{"abi":[{"inputs":[{"internalType":"contract IController","name":"_controller","type":"address"},{"internalType":"contract ICNCToken","name":"_cnc","type":"address"},{"internalType":"address","name":"emergencyMinter","type":"address"}],"stateMutability":"nonpayable","type":"constructor","name":"constructor"},{"anonymous":false,"inputs":[{"indexed":true,"internalType":"address","name":"previousOwner","type":"address"},{"indexed":true,"internalType":"address","name":"newOwner","type":"address"}],"name":"OwnershipTransferred","type":"event"},{"anonymous":false,"inputs":[{"indexed":true,"internalType":"address","name":"pool","type":"address"},{"indexed":true,"internalType":"address","name":"account","type":"address"},{"indexed":true,"internalType":"address","name":"token","type":"address"},{"indexed":false,"internalType":"uint256","name":"tokenAmount","type":"uint256"}],"name":"RebalancingRewardDistributed","type":"event"},{"anonymous":false,"inputs":[{"indexed":false,"internalType":"uint256","name":"cncRebalancingRewardPerDollarPerSecond","type":"uint256"}],"name":"SetCncRebalancingRewardPerDollarPerSecond","type":"event"},{"anonymous":false,"inputs":[{"indexed":false,"internalType":"uint256","name":"maxRebalancingRewardDollarMultiplier","type":"uint256"}],"name":"SetMaxRebalancingRewardDollarMultiplier","type":"event"},{"anonymous":false,"inputs":[{"indexed":false,"internalType":"uint256","name":"minRebalancingRewardDollarMultiplier","type":"uint256"}],"name":"SetMinRebalancingRewardDollarMultiplier","type":"event"},{"inputs":[],"name":"cnc","outputs":[{"internalType":"contract ICNCToken","name":"","type":"address"}],"stateMutability":"view","type":"function"},{"inputs":[],"name":"cncRebalancingRewardPerDollarPerSecond","outputs":[{"internalType":"uint256","name":"","type":"uint256"}],"stateMutability":"view","type":"function"},{"inputs":[{"internalType":"address","name":"conicPool","type":"address"},{"internalType":"uint256","name":"deviationBefore","type":"uint256"},{"internalType":"uint256","name":"deviationAfter","type":"uint256"}],"name":"computeRebalancingRewards","outputs":[{"internalType":"uint256","name":"","type":"uint256"}],"stateMutability":"view","type":"function"},{"inputs":[],"name":"controller","outputs":[{"internalType":"contract IController","name":"","type":"address"}],"stateMutability":"view","type":"function"},{"inputs":[],"name":"emergencyMinter","outputs":[{"internalType":"address","name":"","type":"address"}],"stateMutability":"view","type":"function"},{"inputs":[{"internalType":"contract IConicPool","name":"conicPool","type":"address"},{"internalType":"address","name":"account","type":"address"},{"internalType":"uint256","name":"deviationBefore","type":"uint256"},{"internalType":"uint256","name":"deviationAfter","type":"uint256"}],"name":"handleRebalancingRewards","outputs":[],"stateMutability":"nonpayable","type":"function"},{"inputs":[],"name":"maxRebalancingRewardDollarMultiplier","outputs":[{"internalType":"uint256","name":"","type":"uint256"}],"stateMutability":"view","type":"function"},{"inputs":[],"name":"minRebalancingRewardDollarMultiplier","outputs":[{"internalType":"uint256","name":"","type":"uint256"}],"stateMutability":"view","type":"function"},{"inputs":[],"name":"owner","outputs":[{"internalType":"address","name":"","type":"address"}],"stateMutability":"view","type":"function"},{"inputs":[{"internalType":"address","name":"pool","type":"address"}],"name":"poolCNCRebalancingRewardPerSecond","outputs":[{"internalType":"uint256","name":"","type":"uint256"}],"stateMutability":"view","type":"function"},{"inputs":[],"name":"renounceMinterRights","outputs":[],"stateMutability":"nonpayable","type":"function"},{"inputs":[],"name":"renounceOwnership","outputs":[],"stateMutability":"nonpayable","type":"function"},{"inputs":[{"internalType":"uint256","name":"_cncRebalancingRewardPerDollarPerSecond","type":"uint256"}],"name":"setCncRebalancingRewardPerDollarPerSecond","outputs":[],"stateMutability":"nonpayable","type":"function"},{"inputs":[{"internalType":"uint256","name":"_maxRebalancingRewardDollarMultiplier","type":"uint256"}],"name":"setMaxRebalancingRewardDollarMultiplier","outputs":[],"stateMutability":"nonpayable","type":"function"},{"inputs":[{"internalType":"uint256","name":"_minRebalancingRewardDollarMultiplier","type":"uint256"}],"name":"setMinRebalancingRewardDollarMultiplier","outputs":[],"stateMutability":"nonpayable","type":"function"},{"inputs":[{"internalType":"bytes4","name":"interfaceId","type":"bytes4"}],"name":"supportsInterface","outputs":[{"internalType":"bool","name":"","type":"bool"}],"stateMutability":"view","type":"function"},{"inputs":[],"name":"totalCncMinted","outputs":[{"internalType":"uint256","name":"","type":"uint256"}],"stateMutability":"view","type":"function"},{"inputs":[{"internalType":"address","name":"newOwner","type":"address"}],"name":"transferOwnership","outputs":[],"stateMutability":"nonpayable","type":"function"}],"bytecode":"60e06040523480156200001157600080fd5b50604051620010b4380380620010b48339810160408190526200003491620001a5565b81816200004133620000b5565b6001600160a01b03808216608052821660a05262000066633874ba4d60e11b62000105565b506200008190506315752a00670de0b6b3a7640000620001f9565b600355505069021e19e0c9bab24000006005556a084595161401484a0000006004556001600160a01b031660c0526200021c565b600080546001600160a01b038381166001600160a01b0319831681178455604051919092169283917f8be0079c531659141344cd1fd0a4f28419497f9722a3daafe3b4186f6b6457e09190a35050565b6001600160e01b03198082169003620001645760405162461bcd60e51b815260206004820152601c60248201527f4552433136353a20696e76616c696420696e7465726661636520696400000000604482015260640160405180910390fd5b6001600160e01b0319166000908152600160208190526040909120805460ff19169091179055565b6001600160a01b0381168114620001a257600080fd5b50565b600080600060608486031215620001bb57600080fd5b8351620001c8816200018c565b6020850151909350620001db816200018c565b6040850151909250620001ee816200018c565b809150509250925092565b6000826200021757634e487b7160e01b600052601260045260246000fd5b500490565b60805160a05160c051610e376200027d60003960008181610275015281816103aa0152818161062c01526107d901526000818161023b015281816104e001528181610a450152610ad701526000818161017201526104530152610e376000f3fe608060405234801561001057600080fd5b50600436106101165760003560e01c8063b79d58b0116100a2578063eac2a00211610071578063eac2a00214610223578063f0aa0a1d14610236578063f2fde38b1461025d578063f77c479114610270578063f95878f51461029757600080fd5b8063b79d58b0146101f5578063c0c99342146101fe578063c3e6a78514610211578063d7cfbdf31461021a57600080fd5b806370e9749a116100e957806370e9749a146101ac578063715018a6146101b65780638da5cb5b146101be5780638f3c14cb146101cf5780639f7c4976146101e257600080fd5b806301ffc9a71461011b57806303de1eb0146101435780633d5d2cb2146101645780635e2f23ce1461016d575b600080fd5b61012e610129366004610b52565b6102aa565b60405190151581526020015b60405180910390f35b610156610151366004610b91565b6102ea565b60405190815260200161013a565b61015660035481565b6101947f000000000000000000000000000000000000000000000000000000000000000081565b6040516001600160a01b03909116815260200161013a565b6101b4610448565b005b6101b4610553565b6000546001600160a01b0316610194565b6101b46101dd366004610bc6565b610567565b6101b46101f0366004610bc6565b6105ab565b61015660055481565b6101b461020c366004610bc6565b6105e8565b61015660045481565b61015660025481565b610156610231366004610bdf565b610625565b6101947f000000000000000000000000000000000000000000000000000000000000000081565b6101b461026b366004610bdf565b61075e565b6101947f000000000000000000000000000000000000000000000000000000000000000081565b6101b46102a5366004610bfc565b6107d7565b60006301ffc9a760e01b6001600160e01b0319831614806102e457506001600160e01b0319821660009081526001602052604090205460ff165b92915050565b6000818310156102fc57506000610441565b600061030785610625565b905060006103158486610c58565b90506000610385876001600160a01b031663d1e6c1e56040518163ffffffff1660e01b8152600401602060405180830381865afa15801561035a573d6000803e3d6000fd5b505050506040513d601f19601f8201168201806040525081019061037e9190610c6b565b83906108ef565b604051630850219760e01b81526001600160a01b0389811660048301529192506000917f00000000000000000000000000000000000000000000000000000000000000001690630850219790602401602060405180830381865afa1580156103f1573d6000803e3d6000fd5b505050506040513d601f19601f820116820180604052508101906104159190610c6b565b905060006104238242610c58565b9050610439836104338784610c84565b90610912565b955050505050505b9392505050565b336001600160a01b037f000000000000000000000000000000000000000000000000000000000000000016146104de5760405162461bcd60e51b815260206004820152603060248201527f6f6e6c7920656d657267656e6379206d696e7465722063616e2072656e6f756e60448201526f6365206d696e7465722072696768747360801b60648201526084015b60405180910390fd5b7f00000000000000000000000000000000000000000000000000000000000000006001600160a01b03166370e9749a6040518163ffffffff1660e01b8152600401600060405180830381600087803b15801561053957600080fd5b505af115801561054d573d6000803e3d6000fd5b50505050565b61055b61092a565b6105656000610984565b565b61056f61092a565b60038190556040518181527f52e5ea693f3343bef45800ecec3dd0c08e360e7c6e3a589a8fa2e4ee226c8a12906020015b60405180910390a150565b6105b361092a565b60058190556040518181527fdf9d3bc3dc9123341063db6fb09934e8449a6141c42cf02f0a3f9e055cba9e44906020016105a0565b6105f061092a565b60048190556040518181527f8a10e5a3f1dc16d373c743e33938781850bd5f04fd8ae9989c4bdb38a512dea6906020016105a0565b60008060007f00000000000000000000000000000000000000000000000000000000000000006001600160a01b031663dbcd89fa6040518163ffffffff1660e01b8152600401602060405180830381865afa158015610688573d6000803e3d6000fd5b505050506040513d601f19601f820116820180604052508101906106ac9190610c9b565b60405163129e165160e01b81526001600160a01b038681166004830152919091169063129e1651906024016040805180830381865afa1580156106f3573d6000803e3d6000fd5b505050506040513d601f19601f820116820180604052508101906107179190610cb8565b6005549193509150819081101561072d57506005545b60045481111561073c57506004545b610755816104338560035461091290919063ffffffff16565b95945050505050565b61076661092a565b6001600160a01b0381166107cb5760405162461bcd60e51b815260206004820152602660248201527f4f776e61626c653a206e6577206f776e657220697320746865207a65726f206160448201526564647265737360d01b60648201526084016104d5565b6107d481610984565b50565b7f00000000000000000000000000000000000000000000000000000000000000006001600160a01b031663dbcd89fa6040518163ffffffff1660e01b8152600401602060405180830381865afa158015610835573d6000803e3d6000fd5b505050506040513d601f19601f820116820180604052508101906108599190610c9b565b6001600160a01b0316336001600160a01b0316146108ce5760405162461bcd60e51b815260206004820152602c60248201527f6f6e6c7920496e666c6174696f6e4d616e616765722063616e2063616c6c207460448201526b3434b990333ab731ba34b7b760a11b60648201526084016104d5565b60006108db8584846102ea565b90506108e88585836109d4565b5050505050565b6000816108fe6012600a610dc0565b6109089085610c84565b6104419190610dcc565b60006109206012600a610dc0565b6109088385610c84565b6000546001600160a01b031633146105655760405162461bcd60e51b815260206004820181905260248201527f4f776e61626c653a2063616c6c6572206973206e6f7420746865206f776e657260448201526064016104d5565b600080546001600160a01b038381166001600160a01b0319831681178455604051919092169283917f8be0079c531659141344cd1fd0a4f28419497f9722a3daafe3b4186f6b6457e09190a35050565b6a01925734d5b8904b800000816002546109ee9190610dee565b1115610a0f57600254610a0c906a01925734d5b8904b800000610c58565b90505b80600003610a1c57505050565b6040516340c10f1960e01b81526001600160a01b038381166004830152602482018390526000917f0000000000000000000000000000000000000000000000000000000000000000909116906340c10f19906044016020604051808303816000875af1158015610a90573d6000803e3d6000fd5b505050506040513d601f19601f82011682018060405250810190610ab49190610c6b565b9050801561054d578060026000828254610ace9190610dee565b925050819055507f00000000000000000000000000000000000000000000000000000000000000006001600160a01b0316836001600160a01b0316856001600160a01b03167fc84ef7d7e740eeb018c01c28c59b82def5d19d93fb1c641a70e27665e16f282d84604051610b4491815260200190565b60405180910390a450505050565b600060208284031215610b6457600080fd5b81356001600160e01b03198116811461044157600080fd5b6001600160a01b03811681146107d457600080fd5b600080600060608486031215610ba657600080fd5b8335610bb181610b7c565b95602085013595506040909401359392505050565b600060208284031215610bd857600080fd5b5035919050565b600060208284031215610bf157600080fd5b813561044181610b7c565b60008060008060808587031215610c1257600080fd5b8435610c1d81610b7c565b93506020850135610c2d81610b7c565b93969395505050506040820135916060013590565b634e487b7160e01b600052601160045260246000fd5b818103818111156102e4576102e4610c42565b600060208284031215610c7d57600080fd5b5051919050565b80820281158282048414176102e4576102e4610c42565b600060208284031215610cad57600080fd5b815161044181610b7c565b60008060408385031215610ccb57600080fd5b505080516020909101519092909150565b600181815b80851115610d17578160001904821115610cfd57610cfd610c42565b80851615610d0a57918102915b93841c9390800290610ce1565b509250929050565b600082610d2e575060016102e4565b81610d3b575060006102e4565b8160018114610d515760028114610d5b57610d77565b60019150506102e4565b60ff841115610d6c57610d6c610c42565b50506001821b6102e4565b5060208310610133831016604e8410600b8410161715610d9a575081810a6102e4565b610da48383610cdc565b8060001904821115610db857610db8610c42565b029392505050565b60006104418383610d1f565b600082610de957634e487b7160e01b600052601260045260246000fd5b500490565b808201808211156102e4576102e4610c4256fea26469706673582212208faefe3d43fb741e09d0ef6ca2b925a578fef51639de2f7fe284ade9a81d3c7864736f6c63430008110033","bytecodeSha1":"8363d6787feebd22fc29be8cb1ee9ea7116e8b60","compiler":{"evm_version":"istanbul","optimizer":{"enabled":true,"runs":200},"version":"0.8.17+commit.8df45f5f"},"contractName":"CNCMintingRebalancingRewardsHandler","language":"Solidity","natspec":{"kind":"dev","methods":{"computeRebalancingRewards(address,uint256,uint256)":{"details":"this computes how much CNC a user should get when depositing this does not check whether the rewards should still be distributed amount CNC = t * CNC/s * (1 - (Δdeviation / initialDeviation)) where CNC/s: the amount of CNC per second to distributed for rebalancing t: the time elapsed since the weight update Δdeviation: the deviation difference caused by this deposit initialDeviation: the deviation after updating weights","returns":{"_0":"the amount of CNC to give to the user as reward"}},"handleRebalancingRewards(address,address,uint256,uint256)":{"notice":"Handles the rewards distribution for the rebalancing of the pool","params":{"account":"The account that is rebalancing the pool","conicPool":"The pool that is being rebalanced","deviationAfter":"The total absolute deviation of the Conic pool after the rebalancing","deviationBefore":"The total absolute deviation of the Conic pool before the rebalancing"}},"owner()":{"details":"Returns the address of the current owner."},"renounceOwnership()":{"details":"Leaves the contract without owner. It will not be possible to call `onlyOwner` functions anymore. Can only be called by the current owner. NOTE: Renouncing ownership will leave the contract without an owner, thereby removing any functionality that is only available to the owner."},"supportsInterface(bytes4)":{"details":"See {IERC165-supportsInterface}."},"transferOwnership(address)":{"details":"Transfers ownership of the contract to a new account (`newOwner`). Can only be called by the current owner."}},"stateVariables":{"_INITIAL_MAX_REBALANCING_REWARD_DOLLAR_MULTIPLIER":{"details":"to avoid CNC rewards being too high, the TVL is assumed to be at most 10m when computing the rebalancing rewards"},"_INITIAL_MIN_REBALANCING_REWARD_DOLLAR_MULTIPLIER":{"details":"to avoid CNC rewards being too low, the TVL is assumed to be at least 10k when computing the rebalancing rewards"},"_INITIAL_REBALANCING_REWARD_PER_DOLLAR_PER_SECOND":{"details":"gives out 1 dollar per 1 hour (assuming 1 CNC = 10 USD) for every 10,000 USD of TVL"},"_MAX_REBALANCING_REWARDS":{"details":"the maximum amount of CNC that can be minted for rebalancing rewards"}},"version":1},"opcodes":"PUSH1 0x80 PUSH1 0x40 MSTORE CALLVALUE DUP1 ISZERO PUSH2 0x10 JUMPI PUSH1 0x0 DUP1 REVERT JUMPDEST POP PUSH1 0x4 CALLDATASIZE LT PUSH2 0x116 JUMPI PUSH1 0x0 CALLDATALOAD PUSH1 0xE0 SHR DUP1 PUSH4 0xB79D58B0 GT PUSH2 0xA2 JUMPI DUP1 PUSH4 0xEAC2A002 GT PUSH2 0x71 JUMPI DUP1 PUSH4 0xEAC2A002 EQ PUSH2 0x223 JUMPI DUP1 PUSH4 0xF0AA0A1D EQ PUSH2 0x236 JUMPI DUP1 PUSH4 0xF2FDE38B EQ PUSH2 0x25D JUMPI DUP1 PUSH4 0xF77C4791 EQ PUSH2 0x270 JUMPI DUP1 PUSH4 0xF95878F5 EQ PUSH2 0x297 JUMPI PUSH1 0x0 DUP1 REVERT JUMPDEST DUP1 PUSH4 0xB79D58B0 EQ PUSH2 0x1F5 JUMPI DUP1 PUSH4 0xC0C99342 EQ PUSH2 0x1FE JUMPI DUP1 PUSH4 0xC3E6A785 EQ PUSH2 0x211 JUMPI DUP1 PUSH4 0xD7CFBDF3 EQ PUSH2 0x21A JUMPI PUSH1 0x0 DUP1 REVERT JUMPDEST DUP1 PUSH4 0x70E9749A GT PUSH2 0xE9 JUMPI DUP1 PUSH4 0x70E9749A EQ PUSH2 0x1AC JUMPI DUP1 PUSH4 0x715018A6 EQ PUSH2 0x1B6 JUMPI DUP1 PUSH4 0x8DA5CB5B EQ PUSH2 0x1BE JUMPI DUP1 PUSH4 0x8F3C14CB EQ PUSH2 0x1CF JUMPI DUP1 PUSH4 0x9F7C4976 EQ PUSH2 0x1E2 JUMPI PUSH1 0x0 DUP1 REVERT JUMPDEST DUP1 PUSH4 0x1FFC9A7 EQ PUSH2 0x11B JUMPI DUP1 PUSH4 0x3DE1EB0 EQ PUSH2 0x143 JUMPI DUP1 PUSH4 0x3D5D2CB2 EQ PUSH2 0x164 JUMPI DUP1 PUSH4 0x5E2F23CE EQ PUSH2 0x16D JUMPI JUMPDEST PUSH1 0x0 DUP1 REVERT JUMPDEST PUSH2 0x12E PUSH2 0x129 CALLDATASIZE PUSH1 0x4 PUSH2 0xB52 JUMP JUMPDEST PUSH2 0x2AA JUMP JUMPDEST PUSH1 0x40 MLOAD SWAP1 ISZERO ISZERO DUP2 MSTORE PUSH1 0x20 ADD JUMPDEST PUSH1 0x40 MLOAD DUP1 SWAP2 SUB SWAP1 RETURN JUMPDEST PUSH2 0x156 PUSH2 0x151 CALLDATASIZE PUSH1 0x4 PUSH2 0xB91 JUMP JUMPDEST PUSH2 0x2EA JUMP JUMPDEST PUSH1 0x40 MLOAD SWAP1 DUP2 MSTORE PUSH1 0x20 ADD PUSH2 0x13A JUMP JUMPDEST PUSH2 0x156 PUSH1 0x3 SLOAD DUP2 JUMP JUMPDEST PUSH2 0x194 PUSH32 0x0 DUP2 JUMP JUMPDEST PUSH1 0x40 MLOAD PUSH1 0x1 PUSH1 0x1 PUSH1 0xA0 SHL SUB SWAP1 SWAP2 AND DUP2 MSTORE PUSH1 0x20 ADD PUSH2 0x13A JUMP JUMPDEST PUSH2 0x1B4 PUSH2 0x448 JUMP JUMPDEST STOP JUMPDEST PUSH2 0x1B4 PUSH2 0x553 JUMP JUMPDEST PUSH1 0x0 SLOAD PUSH1 0x1 PUSH1 0x1 PUSH1 0xA0 SHL SUB AND PUSH2 0x194 JUMP JUMPDEST PUSH2 0x1B4 PUSH2 0x1DD CALLDATASIZE PUSH1 0x4 PUSH2 0xBC6 JUMP JUMPDEST PUSH2 0x567 JUMP JUMPDEST PUSH2 0x1B4 PUSH2 0x1F0 CALLDATASIZE PUSH1 0x4 PUSH2 0xBC6 JUMP JUMPDEST PUSH2 0x5AB JUMP JUMPDEST PUSH2 0x156 PUSH1 0x5 SLOAD DUP2 JUMP JUMPDEST PUSH2 0x1B4 PUSH2 0x20C CALLDATASIZE PUSH1 0x4 PUSH2 0xBC6 JUMP JUMPDEST PUSH2 0x5E8 JUMP JUMPDEST PUSH2 0x156 PUSH1 0x4 SLOAD DUP2 JUMP JUMPDEST PUSH2 0x156 PUSH1 0x2 SLOAD DUP2 JUMP JUMPDEST PUSH2 0x156 PUSH2 0x231 CALLDATASIZE PUSH1 0x4 PUSH2 0xBDF JUMP JUMPDEST PUSH2 0x625 JUMP JUMPDEST PUSH2 0x194 PUSH32 0x0 DUP2 JUMP JUMPDEST PUSH2 0x1B4 PUSH2 0x26B CALLDATASIZE PUSH1 0x4 PUSH2 0xBDF JUMP JUMPDEST PUSH2 0x75E JUMP JUMPDEST PUSH2 0x194 PUSH32 0x0 DUP2 JUMP JUMPDEST PUSH2 0x1B4 PUSH2 0x2A5 CALLDATASIZE PUSH1 0x4 PUSH2 0xBFC JUMP JUMPDEST PUSH2 0x7D7 JUMP JUMPDEST PUSH1 0x0 PUSH4 0x1FFC9A7 PUSH1 0xE0 SHL PUSH1 0x1 PUSH1 0x1 PUSH1 0xE0 SHL SUB NOT DUP4 AND EQ DUP1 PUSH2 0x2E4 JUMPI POP PUSH1 0x1 PUSH1 0x1 PUSH1 0xE0 SHL SUB NOT DUP3 AND PUSH1 0x0 SWAP1 DUP2 MSTORE PUSH1 0x1 PUSH1 0x20 MSTORE PUSH1 0x40 SWAP1 KECCAK256 SLOAD PUSH1 0xFF AND JUMPDEST SWAP3 SWAP2 POP POP JUMP JUMPDEST PUSH1 0x0 DUP2 DUP4 LT ISZERO PUSH2 0x2FC JUMPI POP PUSH1 0x0 PUSH2 0x441 JUMP JUMPDEST PUSH1 0x0 PUSH2 0x307 DUP6 PUSH2 0x625 JUMP JUMPDEST SWAP1 POP PUSH1 0x0 PUSH2 0x315 DUP5 DUP7 PUSH2 0xC58 JUMP JUMPDEST SWAP1 POP PUSH1 0x0 PUSH2 0x385 DUP8 PUSH1 0x1 PUSH1 0x1 PUSH1 0xA0 SHL SUB AND PUSH4 0xD1E6C1E5 PUSH1 0x40 MLOAD DUP2 PUSH4 0xFFFFFFFF AND PUSH1 0xE0 SHL DUP2 MSTORE PUSH1 0x4 ADD PUSH1 0x20 PUSH1 0x40 MLOAD DUP1 DUP4 SUB DUP2 DUP7 GAS STATICCALL ISZERO DUP1 ISZERO PUSH2 0x35A JUMPI RETURNDATASIZE PUSH1 0x0 DUP1 RETURNDATACOPY RETURNDATASIZE PUSH1 0x0 REVERT JUMPDEST POP POP POP POP PUSH1 0x40 MLOAD RETURNDATASIZE PUSH1 0x1F NOT PUSH1 0x1F DUP3 ADD AND DUP3 ADD DUP1 PUSH1 0x40 MSTORE POP DUP2 ADD SWAP1 PUSH2 0x37E SWAP2 SWAP1 PUSH2 0xC6B JUMP JUMPDEST DUP4 SWAP1 PUSH2 0x8EF JUMP JUMPDEST PUSH1 0x40 MLOAD PUSH4 0x8502197 PUSH1 0xE0 SHL DUP2 MSTORE PUSH1 0x1 PUSH1 0x1 PUSH1 0xA0 SHL SUB DUP10 DUP2 AND PUSH1 0x4 DUP4 ADD MSTORE SWAP2 SWAP3 POP PUSH1 0x0 SWAP2 PUSH32 0x0 AND SWAP1 PUSH4 0x8502197 SWAP1 PUSH1 0x24 ADD PUSH1 0x20 PUSH1 0x40 MLOAD DUP1 DUP4 SUB DUP2 DUP7 GAS STATICCALL ISZERO DUP1 ISZERO PUSH2 0x3F1 JUMPI RETURNDATASIZE PUSH1 0x0 DUP1 RETURNDATACOPY RETURNDATASIZE PUSH1 0x0 REVERT JUMPDEST POP POP POP POP PUSH1 0x40 MLOAD RETURNDATASIZE PUSH1 0x1F NOT PUSH1 0x1F DUP3 ADD AND DUP3 ADD DUP1 PUSH1 0x40 MSTORE POP DUP2 ADD SWAP1 PUSH2 0x415 SWAP2 SWAP1 PUSH2 0xC6B JUMP JUMPDEST SWAP1 POP PUSH1 0x0 PUSH2 0x423 DUP3 TIMESTAMP PUSH2 0xC58 JUMP JUMPDEST SWAP1 POP PUSH2 0x439 DUP4 PUSH2 0x433 DUP8 DUP5 PUSH2 0xC84 JUMP JUMPDEST SWAP1 PUSH2 0x912 JUMP JUMPDEST SWAP6 POP POP POP POP POP POP JUMPDEST SWAP4 SWAP3 POP POP POP JUMP JUMPDEST CALLER PUSH1 0x1 PUSH1 0x1 PUSH1 0xA0 SHL SUB PUSH32 0x0 AND EQ PUSH2 0x4DE JUMPI PUSH1 0x40 MLOAD PUSH3 0x461BCD PUSH1 0xE5 SHL DUP2 MSTORE PUSH1 0x20 PUSH1 0x4 DUP3 ADD MSTORE PUSH1 0x30 PUSH1 0x24 DUP3 ADD MSTORE PUSH32 0x6F6E6C7920656D657267656E6379206D696E7465722063616E2072656E6F756E PUSH1 0x44 DUP3 ADD MSTORE PUSH16 0x6365206D696E74657220726967687473 PUSH1 0x80 SHL PUSH1 0x64 DUP3 ADD MSTORE PUSH1 0x84 ADD JUMPDEST PUSH1 0x40 MLOAD DUP1 SWAP2 SUB SWAP1 REVERT JUMPDEST PUSH32 0x0 PUSH1 0x1 PUSH1 0x1 PUSH1 0xA0 SHL SUB AND PUSH4 0x70E9749A PUSH1 0x40 MLOAD DUP2 PUSH4 0xFFFFFFFF AND PUSH1 0xE0 SHL DUP2 MSTORE PUSH1 0x4 ADD PUSH1 0x0 PUSH1 0x40 MLOAD DUP1 DUP4 SUB DUP2 PUSH1 0x0 DUP8 DUP1 EXTCODESIZE ISZERO DUP1 ISZERO PUSH2 0x539 JUMPI PUSH1 0x0 DUP1 REVERT JUMPDEST POP GAS CALL ISZERO DUP1 ISZERO PUSH2 0x54D JUMPI RETURNDATASIZE PUSH1 0x0 DUP1 RETURNDATACOPY RETURNDATASIZE PUSH1 0x0 REVERT JUMPDEST POP POP POP POP JUMP JUMPDEST PUSH2 0x55B PUSH2 0x92A JUMP JUMPDEST PUSH2 0x565 PUSH1 0x0 PUSH2 0x984 JUMP JUMPDEST JUMP JUMPDEST PUSH2 0x56F PUSH2 0x92A JUMP JUMPDEST PUSH1 0x3 DUP2 SWAP1 SSTORE PUSH1 0x40 MLOAD DUP2 DUP2 MSTORE PUSH32 0x52E5EA693F3343BEF45800ECEC3DD0C08E360E7C6E3A589A8FA2E4EE226C8A12 SWAP1 PUSH1 0x20 ADD JUMPDEST PUSH1 0x40 MLOAD DUP1 SWAP2 SUB SWAP1 LOG1 POP JUMP JUMPDEST PUSH2 0x5B3 PUSH2 0x92A JUMP JUMPDEST PUSH1 0x5 DUP2 SWAP1 SSTORE PUSH1 0x40 MLOAD DUP2 DUP2 MSTORE PUSH32 0xDF9D3BC3DC9123341063DB6FB09934E8449A6141C42CF02F0A3F9E055CBA9E44 SWAP1 PUSH1 0x20 ADD PUSH2 0x5A0 JUMP JUMPDEST PUSH2 0x5F0 PUSH2 0x92A JUMP JUMPDEST PUSH1 0x4 DUP2 SWAP1 SSTORE PUSH1 0x40 MLOAD DUP2 DUP2 MSTORE PUSH32 0x8A10E5A3F1DC16D373C743E33938781850BD5F04FD8AE9989C4BDB38A512DEA6 SWAP1 PUSH1 0x20 ADD PUSH2 0x5A0 JUMP JUMPDEST PUSH1 0x0 DUP1 PUSH1 0x0 PUSH32 0x0 PUSH1 0x1 PUSH1 0x1 PUSH1 0xA0 SHL SUB AND PUSH4 0xDBCD89FA PUSH1 0x40 MLOAD DUP2 PUSH4 0xFFFFFFFF AND PUSH1 0xE0 SHL DUP2 MSTORE PUSH1 0x4 ADD PUSH1 0x20 PUSH1 0x40 MLOAD DUP1 DUP4 SUB DUP2 DUP7 GAS STATICCALL ISZERO DUP1 ISZERO PUSH2 0x688 JUMPI RETURNDATASIZE PUSH1 0x0 DUP1 RETURNDATACOPY RETURNDATASIZE PUSH1 0x0 REVERT JUMPDEST POP POP POP POP PUSH1 0x40 MLOAD RETURNDATASIZE PUSH1 0x1F NOT PUSH1 0x1F DUP3 ADD AND DUP3 ADD DUP1 PUSH1 0x40 MSTORE POP DUP2 ADD SWAP1 PUSH2 0x6AC SWAP2 SWAP1 PUSH2 0xC9B JUMP JUMPDEST PUSH1 0x40 MLOAD PUSH4 0x129E1651 PUSH1 0xE0 SHL DUP2 MSTORE PUSH1 0x1 PUSH1 0x1 PUSH1 0xA0 SHL SUB DUP7 DUP2 AND PUSH1 0x4 DUP4 ADD MSTORE SWAP2 SWAP1 SWAP2 AND SWAP1 PUSH4 0x129E1651 SWAP1 PUSH1 0x24 ADD PUSH1 0x40 DUP1 MLOAD DUP1 DUP4 SUB DUP2 DUP7 GAS STATICCALL ISZERO DUP1 ISZERO PUSH2 0x6F3 JUMPI RETURNDATASIZE PUSH1 0x0 DUP1 RETURNDATACOPY RETURNDATASIZE PUSH1 0x0 REVERT JUMPDEST POP POP POP POP PUSH1 0x40 MLOAD RETURNDATASIZE PUSH1 0x1F NOT PUSH1 0x1F DUP3 ADD AND DUP3 ADD DUP1 PUSH1 0x40 MSTORE POP DUP2 ADD SWAP1 PUSH2 0x717 SWAP2 SWAP1 PUSH2 0xCB8 JUMP JUMPDEST PUSH1 0x5 SLOAD SWAP2 SWAP4 POP SWAP2 POP DUP2 SWAP1 DUP2 LT ISZERO PUSH2 0x72D JUMPI POP PUSH1 0x5 SLOAD JUMPDEST PUSH1 0x4 SLOAD DUP2 GT ISZERO PUSH2 0x73C JUMPI POP PUSH1 0x4 SLOAD JUMPDEST PUSH2 0x755 DUP2 PUSH2 0x433 DUP6 PUSH1 0x3 SLOAD PUSH2 0x912 SWAP1 SWAP2 SWAP1 PUSH4 0xFFFFFFFF AND JUMP JUMPDEST SWAP6 SWAP5 POP POP POP POP POP JUMP JUMPDEST PUSH2 0x766 PUSH2 0x92A JUMP JUMPDEST PUSH1 0x1 PUSH1 0x1 PUSH1 0xA0 SHL SUB DUP2 AND PUSH2 0x7CB JUMPI PUSH1 0x40 MLOAD PUSH3 0x461BCD PUSH1 0xE5 SHL DUP2 MSTORE PUSH1 0x20 PUSH1 0x4 DUP3 ADD MSTORE PUSH1 0x26 PUSH1 0x24 DUP3 ADD MSTORE PUSH32 0x4F776E61626C653A206E6577206F776E657220697320746865207A65726F2061 PUSH1 0x44 DUP3 ADD MSTORE PUSH6 0x646472657373 PUSH1 0xD0 SHL PUSH1 0x64 DUP3 ADD MSTORE PUSH1 0x84 ADD PUSH2 0x4D5 JUMP JUMPDEST PUSH2 0x7D4 DUP2 PUSH2 0x984 JUMP JUMPDEST POP JUMP JUMPDEST PUSH32 0x0 PUSH1 0x1 PUSH1 0x1 PUSH1 0xA0 SHL SUB AND PUSH4 0xDBCD89FA PUSH1 0x40 MLOAD DUP2 PUSH4 0xFFFFFFFF AND PUSH1 0xE0 SHL DUP2 MSTORE PUSH1 0x4 ADD PUSH1 0x20 PUSH1 0x40 MLOAD DUP1 DUP4 SUB DUP2 DUP7 GAS STATICCALL ISZERO DUP1 ISZERO PUSH2 0x835 JUMPI RETURNDATASIZE PUSH1 0x0 DUP1 RETURNDATACOPY RETURNDATASIZE PUSH1 0x0 REVERT JUMPDEST POP POP POP POP PUSH1 0x40 MLOAD RETURNDATASIZE PUSH1 0x1F NOT PUSH1 0x1F DUP3 ADD AND DUP3 ADD DUP1 PUSH1 0x40 MSTORE POP DUP2 ADD SWAP1 PUSH2 0x859 SWAP2 SWAP1 PUSH2 0xC9B JUMP JUMPDEST PUSH1 0x1 PUSH1 0x1 PUSH1 0xA0 SHL SUB AND CALLER PUSH1 0x1 PUSH1 0x1 PUSH1 0xA0 SHL SUB AND EQ PUSH2 0x8CE JUMPI PUSH1 0x40 MLOAD PUSH3 0x461BCD PUSH1 0xE5 SHL DUP2 MSTORE PUSH1 0x20 PUSH1 0x4 DUP3 ADD MSTORE PUSH1 0x2C PUSH1 0x24 DUP3 ADD MSTORE PUSH32 0x6F6E6C7920496E666C6174696F6E4D616E616765722063616E2063616C6C2074 PUSH1 0x44 DUP3 ADD MSTORE PUSH12 0x3434B990333AB731BA34B7B7 PUSH1 0xA1 SHL PUSH1 0x64 DUP3 ADD MSTORE PUSH1 0x84 ADD PUSH2 0x4D5 JUMP JUMPDEST PUSH1 0x0 PUSH2 0x8DB DUP6 DUP5 DUP5 PUSH2 0x2EA JUMP JUMPDEST SWAP1 POP PUSH2 0x8E8 DUP6 DUP6 DUP4 PUSH2 0x9D4 JUMP JUMPDEST POP POP POP POP POP JUMP JUMPDEST PUSH1 0x0 DUP2 PUSH2 0x8FE PUSH1 0x12 PUSH1 0xA PUSH2 0xDC0 JUMP JUMPDEST PUSH2 0x908 SWAP1 DUP6 PUSH2 0xC84 JUMP JUMPDEST PUSH2 0x441 SWAP2 SWAP1 PUSH2 0xDCC JUMP JUMPDEST PUSH1 0x0 PUSH2 0x920 PUSH1 0x12 PUSH1 0xA PUSH2 0xDC0 JUMP JUMPDEST PUSH2 0x908 DUP4 DUP6 PUSH2 0xC84 JUMP JUMPDEST PUSH1 0x0 SLOAD PUSH1 0x1 PUSH1 0x1 PUSH1 0xA0 SHL SUB AND CALLER EQ PUSH2 0x565 JUMPI PUSH1 0x40 MLOAD PUSH3 0x461BCD PUSH1 0xE5 SHL DUP2 MSTORE PUSH1 0x20 PUSH1 0x4 DUP3 ADD DUP2 SWAP1 MSTORE PUSH1 0x24 DUP3 ADD MSTORE PUSH32 0x4F776E61626C653A2063616C6C6572206973206E6F7420746865206F776E6572 PUSH1 0x44 DUP3 ADD MSTORE PUSH1 0x64 ADD PUSH2 0x4D5 JUMP JUMPDEST PUSH1 0x0 DUP1 SLOAD PUSH1 0x1 PUSH1 0x1 PUSH1 0xA0 SHL SUB DUP4 DUP2 AND PUSH1 0x1 PUSH1 0x1 PUSH1 0xA0 SHL SUB NOT DUP4 AND DUP2 OR DUP5 SSTORE PUSH1 0x40 MLOAD SWAP2 SWAP1 SWAP3 AND SWAP3 DUP4 SWAP2 PUSH32 0x8BE0079C531659141344CD1FD0A4F28419497F9722A3DAAFE3B4186F6B6457E0 SWAP2 SWAP1 LOG3 POP POP JUMP JUMPDEST PUSH11 0x1925734D5B8904B800000 DUP2 PUSH1 0x2 SLOAD PUSH2 0x9EE SWAP2 SWAP1 PUSH2 0xDEE JUMP JUMPDEST GT ISZERO PUSH2 0xA0F JUMPI PUSH1 0x2 SLOAD PUSH2 0xA0C SWAP1 PUSH11 0x1925734D5B8904B800000 PUSH2 0xC58 JUMP JUMPDEST SWAP1 POP JUMPDEST DUP1 PUSH1 0x0 SUB PUSH2 0xA1C JUMPI POP POP POP JUMP JUMPDEST PUSH1 0x40 MLOAD PUSH4 0x40C10F19 PUSH1 0xE0 SHL DUP2 MSTORE PUSH1 0x1 PUSH1 0x1 PUSH1 0xA0 SHL SUB DUP4 DUP2 AND PUSH1 0x4 DUP4 ADD MSTORE PUSH1 0x24 DUP3 ADD DUP4 SWAP1 MSTORE PUSH1 0x0 SWAP2 PUSH32 0x0 SWAP1 SWAP2 AND SWAP1 PUSH4 0x40C10F19 SWAP1 PUSH1 0x44 ADD PUSH1 0x20 PUSH1 0x40 MLOAD DUP1 DUP4 SUB DUP2 PUSH1 0x0 DUP8 GAS CALL ISZERO DUP1 ISZERO PUSH2 0xA90 JUMPI RETURNDATASIZE PUSH1 0x0 DUP1 RETURNDATACOPY RETURNDATASIZE PUSH1 0x0 REVERT JUMPDEST POP POP POP POP PUSH1 0x40 MLOAD RETURNDATASIZE PUSH1 0x1F NOT PUSH1 0x1F DUP3 ADD AND DUP3 ADD DUP1 PUSH1 0x40 MSTORE POP DUP2 ADD SWAP1 PUSH2 0xAB4 SWAP2 SWAP1 PUSH2 0xC6B JUMP JUMPDEST SWAP1 POP DUP1 ISZERO PUSH2 0x54D JUMPI DUP1 PUSH1 0x2 PUSH1 0x0 DUP3 DUP3 SLOAD PUSH2 0xACE SWAP2 SWAP1 PUSH2 0xDEE JUMP JUMPDEST SWAP3 POP POP DUP2 SWAP1 SSTORE POP PUSH32 0x0 PUSH1 0x1 PUSH1 0x1 PUSH1 0xA0 SHL SUB AND DUP4 PUSH1 0x1 PUSH1 0x1 PUSH1 0xA0 SHL SUB AND DUP6 PUSH1 0x1 PUSH1 0x1 PUSH1 0xA0 SHL SUB AND PUSH32 0xC84EF7D7E740EEB018C01C28C59B82DEF5D19D93FB1C641A70E27665E16F282D DUP5 PUSH1 0x40 MLOAD PUSH2 0xB44 SWAP2 DUP2 MSTORE PUSH1 0x20 ADD SWAP1 JUMP JUMPDEST PUSH1 0x40 MLOAD DUP1 SWAP2 SUB SWAP1 LOG4 POP POP POP POP JUMP JUMPDEST PUSH1 0x0 PUSH1 0x20 DUP3 DUP5 SUB SLT ISZERO PUSH2 0xB64 JUMPI PUSH1 0x0 DUP1 REVERT JUMPDEST DUP2 CALLDATALOAD PUSH1 0x1 PUSH1 0x1 PUSH1 0xE0 SHL SUB NOT DUP2 AND DUP2 EQ PUSH2 0x441 JUMPI PUSH1 0x0 DUP1 REVERT JUMPDEST PUSH1 0x1 PUSH1 0x1 PUSH1 0xA0 SHL SUB DUP2 AND DUP2 EQ PUSH2 0x7D4 JUMPI PUSH1 0x0 DUP1 REVERT JUMPDEST PUSH1 0x0 DUP1 PUSH1 0x0 PUSH1 0x60 DUP5 DUP7 SUB SLT ISZERO PUSH2 0xBA6 JUMPI PUSH1 0x0 DUP1 REVERT JUMPDEST DUP4 CALLDATALOAD PUSH2 0xBB1 DUP2 PUSH2 0xB7C JUMP JUMPDEST SWAP6 PUSH1 0x20 DUP6 ADD CALLDATALOAD SWAP6 POP PUSH1 0x40 SWAP1 SWAP5 ADD CALLDATALOAD SWAP4 SWAP3 POP POP POP JUMP JUMPDEST PUSH1 0x0 PUSH1 0x20 DUP3 DUP5 SUB SLT ISZERO PUSH2 0xBD8 JUMPI PUSH1 0x0 DUP1 REVERT JUMPDEST POP CALLDATALOAD SWAP2 SWAP1 POP JUMP JUMPDEST PUSH1 0x0 PUSH1 0x20 DUP3 DUP5 SUB SLT ISZERO PUSH2 0xBF1 JUMPI PUSH1 0x0 DUP1 REVERT JUMPDEST DUP2 CALLDATALOAD PUSH2 0x441 DUP2 PUSH2 0xB7C JUMP JUMPDEST PUSH1 0x0 DUP1 PUSH1 0x0 DUP1 PUSH1 0x80 DUP6 DUP8 SUB SLT ISZERO PUSH2 0xC12 JUMPI PUSH1 0x0 DUP1 REVERT JUMPDEST DUP5 CALLDATALOAD PUSH2 0xC1D DUP2 PUSH2 0xB7C JUMP JUMPDEST SWAP4 POP PUSH1 0x20 DUP6 ADD CALLDATALOAD PUSH2 0xC2D DUP2 PUSH2 0xB7C JUMP JUMPDEST SWAP4 SWAP7 SWAP4 SWAP6 POP POP POP POP PUSH1 0x40 DUP3 ADD CALLDATALOAD SWAP2 PUSH1 0x60 ADD CALLDATALOAD SWAP1 JUMP JUMPDEST PUSH4 0x4E487B71 PUSH1 0xE0 SHL PUSH1 0x0 MSTORE PUSH1 0x11 PUSH1 0x4 MSTORE PUSH1 0x24 PUSH1 0x0 REVERT JUMPDEST DUP2 DUP2 SUB DUP2 DUP2 GT ISZERO PUSH2 0x2E4 JUMPI PUSH2 0x2E4 PUSH2 0xC42 JUMP JUMPDEST PUSH1 0x0 PUSH1 0x20 DUP3 DUP5 SUB SLT ISZERO PUSH2 0xC7D JUMPI PUSH1 0x0 DUP1 REVERT JUMPDEST POP MLOAD SWAP2 SWAP1 POP JUMP JUMPDEST DUP1 DUP3 MUL DUP2 ISZERO DUP3 DUP3 DIV DUP5 EQ OR PUSH2 0x2E4 JUMPI PUSH2 0x2E4 PUSH2 0xC42 JUMP JUMPDEST PUSH1 0x0 PUSH1 0x20 DUP3 DUP5 SUB SLT ISZERO PUSH2 0xCAD JUMPI PUSH1 0x0 DUP1 REVERT JUMPDEST DUP2 MLOAD PUSH2 0x441 DUP2 PUSH2 0xB7C JUMP JUMPDEST PUSH1 0x0 DUP1 PUSH1 0x40 DUP4 DUP6 SUB SLT ISZERO PUSH2 0xCCB JUMPI PUSH1 0x0 DUP1 REVERT JUMPDEST POP POP DUP1 MLOAD PUSH1 0x20 SWAP1 SWAP2 ADD MLOAD SWAP1 SWAP3 SWAP1 SWAP2 POP JUMP JUMPDEST PUSH1 0x1 DUP2 DUP2 JUMPDEST DUP1 DUP6 GT ISZERO PUSH2 0xD17 JUMPI DUP2 PUSH1 0x0 NOT DIV DUP3 GT ISZERO PUSH2 0xCFD JUMPI PUSH2 0xCFD PUSH2 0xC42 JUMP JUMPDEST DUP1 DUP6 AND ISZERO PUSH2 0xD0A JUMPI SWAP2 DUP2 MUL SWAP2 JUMPDEST SWAP4 DUP5 SHR SWAP4 SWAP1 DUP1 MUL SWAP1 PUSH2 0xCE1 JUMP JUMPDEST POP SWAP3 POP SWAP3 SWAP1 POP JUMP JUMPDEST PUSH1 0x0 DUP3 PUSH2 0xD2E JUMPI POP PUSH1 0x1 PUSH2 0x2E4 JUMP JUMPDEST DUP2 PUSH2 0xD3B JUMPI POP PUSH1 0x0 PUSH2 0x2E4 JUMP JUMPDEST DUP2 PUSH1 0x1 DUP2 EQ PUSH2 0xD51 JUMPI PUSH1 0x2 DUP2 EQ PUSH2 0xD5B JUMPI PUSH2 0xD77 JUMP JUMPDEST PUSH1 0x1 SWAP2 POP POP PUSH2 0x2E4 JUMP JUMPDEST PUSH1 0xFF DUP5 GT ISZERO PUSH2 0xD6C JUMPI PUSH2 0xD6C PUSH2 0xC42 JUMP JUMPDEST POP POP PUSH1 0x1 DUP3 SHL PUSH2 0x2E4 JUMP JUMPDEST POP PUSH1 0x20 DUP4 LT PUSH2 0x133 DUP4 LT AND PUSH1 0x4E DUP5 LT PUSH1 0xB DUP5 LT AND OR ISZERO PUSH2 0xD9A JUMPI POP DUP2 DUP2 EXP PUSH2 0x2E4 JUMP JUMPDEST PUSH2 0xDA4 DUP4 DUP4 PUSH2 0xCDC JUMP JUMPDEST DUP1 PUSH1 0x0 NOT DIV DUP3 GT ISZERO PUSH2 0xDB8 JUMPI PUSH2 0xDB8 PUSH2 0xC42 JUMP JUMPDEST MUL SWAP4 SWAP3 POP POP POP JUMP JUMPDEST PUSH1 0x0 PUSH2 0x441 DUP4 DUP4 PUSH2 0xD1F JUMP JUMPDEST PUSH1 0x0 DUP3 PUSH2 0xDE9 JUMPI PUSH4 0x4E487B71 PUSH1 0xE0 SHL PUSH1 0x0 MSTORE PUSH1 0x12 PUSH1 0x4 MSTORE PUSH1 0x24 PUSH1 0x0 REVERT JUMPDEST POP DIV SWAP1 JUMP JUMPDEST DUP1 DUP3 ADD DUP1 DUP3 GT ISZERO PUSH2 0x2E4 JUMPI PUSH2 0x2E4 PUSH2 0xC42 JUMP INVALID LOG2 PUSH5 0x6970667358 0x22 SLT KECCAK256 DUP16 0xAE INVALID RETURNDATASIZE NUMBER 0xFB PUSH21 0x1E09D0EF6CA2B925A578FEF51639DE2F7FE284ADE9 0xA8 SAR EXTCODECOPY PUSH25 0x64736F6C634300081100330000000000000000000000000000 ","sha1":"8ea8c29356a683a9733102b6ff1f45757b94097c","source":"// SPDX-License-Identifier: GPL-3.0-or-later\npragma solidity 0.8.17;\n\nimport \"@openzeppelin/contracts/access/Ownable.sol\";\n\nimport \"@openzeppelin/contracts/utils/structs/EnumerableSet.sol\";\n\nimport \"../../interfaces/tokenomics/ICNCMintingRebalancingRewardsHandler.sol\";\nimport \"../../interfaces/tokenomics/IInflationManager.sol\";\nimport \"../../interfaces/tokenomics/ICNCToken.sol\";\nimport \"../../interfaces/pools/IConicPool.sol\";\nimport \"../../libraries/ScaledMath.sol\";\nimport \"./BaseMinter.sol\";\n\ncontract CNCMintingRebalancingRewardsHandler is\n    ICNCMintingRebalancingRewardsHandler,\n    Ownable,\n    BaseMinter\n{\n    using ScaledMath for uint256;\n    using EnumerableSet for EnumerableSet.AddressSet;\n\n    /// @dev the maximum amount of CNC that can be minted for rebalancing rewards\n    uint256 internal constant _MAX_REBALANCING_REWARDS = 1_900_000e18; // 19% of total supply\n\n    /// @dev gives out 1 dollar per 1 hour (assuming 1 CNC = 10 USD) for every 10,000 USD of TVL\n    uint256 internal constant _INITIAL_REBALANCING_REWARD_PER_DOLLAR_PER_SECOND =\n        1e18 / uint256(3600 * 1 * 10_000 * 10);\n\n    /// @dev to avoid CNC rewards being too low, the TVL is assumed to be at least 10k\n    /// when computing the rebalancing rewards\n    uint256 internal constant _INITIAL_MIN_REBALANCING_REWARD_DOLLAR_MULTIPLIER = 10_000e18;\n\n    /// @dev to avoid CNC rewards being too high, the TVL is assumed to be at most 10m\n    /// when computing the rebalancing rewards\n    uint256 internal constant _INITIAL_MAX_REBALANCING_REWARD_DOLLAR_MULTIPLIER = 10_000_000e18;\n\n    IController public immutable override controller;\n\n    uint256 public override totalCncMinted;\n    uint256 public override cncRebalancingRewardPerDollarPerSecond;\n    uint256 public override maxRebalancingRewardDollarMultiplier;\n    uint256 public override minRebalancingRewardDollarMultiplier;\n\n    modifier onlyInflationManager() {\n        require(\n            msg.sender == address(controller.inflationManager()),\n            \"only InflationManager can call this function\"\n        );\n        _;\n    }\n\n    constructor(\n        IController _controller,\n        ICNCToken _cnc,\n        address emergencyMinter\n    ) BaseMinter(_cnc, emergencyMinter) {\n        cncRebalancingRewardPerDollarPerSecond = _INITIAL_REBALANCING_REWARD_PER_DOLLAR_PER_SECOND;\n        minRebalancingRewardDollarMultiplier = _INITIAL_MIN_REBALANCING_REWARD_DOLLAR_MULTIPLIER;\n        maxRebalancingRewardDollarMultiplier = _INITIAL_MAX_REBALANCING_REWARD_DOLLAR_MULTIPLIER;\n        controller = _controller;\n    }\n\n    function setCncRebalancingRewardPerDollarPerSecond(\n        uint256 _cncRebalancingRewardPerDollarPerSecond\n    ) external override onlyOwner {\n        cncRebalancingRewardPerDollarPerSecond = _cncRebalancingRewardPerDollarPerSecond;\n        emit SetCncRebalancingRewardPerDollarPerSecond(_cncRebalancingRewardPerDollarPerSecond);\n    }\n\n    function setMaxRebalancingRewardDollarMultiplier(uint256 _maxRebalancingRewardDollarMultiplier)\n        external\n        override\n        onlyOwner\n    {\n        maxRebalancingRewardDollarMultiplier = _maxRebalancingRewardDollarMultiplier;\n        emit SetMaxRebalancingRewardDollarMultiplier(_maxRebalancingRewardDollarMultiplier);\n    }\n\n    function setMinRebalancingRewardDollarMultiplier(uint256 _minRebalancingRewardDollarMultiplier)\n        external\n        override\n        onlyOwner\n    {\n        minRebalancingRewardDollarMultiplier = _minRebalancingRewardDollarMultiplier;\n        emit SetMinRebalancingRewardDollarMultiplier(_minRebalancingRewardDollarMultiplier);\n    }\n\n    function _distributeRebalancingRewards(\n        address pool,\n        address account,\n        uint256 amount\n    ) internal {\n        if (totalCncMinted + amount > _MAX_REBALANCING_REWARDS) {\n            amount = _MAX_REBALANCING_REWARDS - totalCncMinted;\n        }\n        if (amount == 0) return;\n        uint256 mintedAmount = cnc.mint(account, amount);\n        if (mintedAmount > 0) {\n            totalCncMinted += mintedAmount;\n            emit RebalancingRewardDistributed(pool, account, address(cnc), mintedAmount);\n        }\n    }\n\n    function poolCNCRebalancingRewardPerSecond(address pool)\n        public\n        view\n        override\n        returns (uint256)\n    {\n        (uint256 poolWeight, uint256 totalUSDValue) = controller\n            .inflationManager()\n            .computePoolWeight(pool);\n        uint256 tvlMultiplier = totalUSDValue;\n        if (tvlMultiplier < minRebalancingRewardDollarMultiplier)\n            tvlMultiplier = minRebalancingRewardDollarMultiplier;\n        if (tvlMultiplier > maxRebalancingRewardDollarMultiplier)\n            tvlMultiplier = maxRebalancingRewardDollarMultiplier;\n        return cncRebalancingRewardPerDollarPerSecond.mulDown(poolWeight).mulDown(tvlMultiplier);\n    }\n\n    function handleRebalancingRewards(\n        IConicPool conicPool,\n        address account,\n        uint256 deviationBefore,\n        uint256 deviationAfter\n    ) external onlyInflationManager {\n        uint256 cncRewardAmount = computeRebalancingRewards(\n            address(conicPool),\n            deviationBefore,\n            deviationAfter\n        );\n        _distributeRebalancingRewards(address(conicPool), account, cncRewardAmount);\n    }\n\n    /// @dev this computes how much CNC a user should get when depositing\n    /// this does not check whether the rewards should still be distributed\n    /// amount CNC = t * CNC/s * (1 - (Δdeviation / initialDeviation))\n    /// where\n    /// CNC/s: the amount of CNC per second to distributed for rebalancing\n    /// t: the time elapsed since the weight update\n    /// Δdeviation: the deviation difference caused by this deposit\n    /// initialDeviation: the deviation after updating weights\n    /// @return the amount of CNC to give to the user as reward\n    function computeRebalancingRewards(\n        address conicPool,\n        uint256 deviationBefore,\n        uint256 deviationAfter\n    ) public view override returns (uint256) {\n        if (deviationBefore < deviationAfter) return 0;\n        uint256 cncPerSecond = poolCNCRebalancingRewardPerSecond(conicPool);\n        uint256 deviationDelta = deviationBefore - deviationAfter;\n        uint256 deviationImprovementRatio = deviationDelta.divDown(\n            IConicPool(conicPool).totalDeviationAfterWeightUpdate()\n        );\n        uint256 lastWeightUpdate = controller.lastWeightUpdate(conicPool);\n        uint256 elapsedSinceUpdate = uint256(block.timestamp) - lastWeightUpdate;\n        return (elapsedSinceUpdate * cncPerSecond).mulDown(deviationImprovementRatio);\n    }\n}\n","sourcePath":"contracts/tokenomics/CNCMintingRebalancingRewardsHandler.sol","type":"contract","deployment":{"address":"0x017F5f86dF6aA8D5B3c01E47E410D66f356A94A6","chainid":"1","blockHeight":16734385}}