{"abi":[{"inputs":[{"internalType":"address","name":"cncToken_","type":"address"},{"internalType":"address","name":"curveRegistryCacheAddress_","type":"address"}],"stateMutability":"nonpayable","type":"constructor","name":"constructor"},{"anonymous":false,"inputs":[{"indexed":false,"internalType":"address","name":"convexBooster","type":"address"}],"name":"ConvexBoosterSet","type":"event"},{"anonymous":false,"inputs":[{"indexed":false,"internalType":"address","name":"convexHandler","type":"address"}],"name":"ConvexHandlerSet","type":"event"},{"anonymous":false,"inputs":[{"indexed":false,"internalType":"address","name":"curveHandler","type":"address"}],"name":"CurveHandlerSet","type":"event"},{"anonymous":false,"inputs":[{"indexed":false,"internalType":"address","name":"curveRegistryCache","type":"address"}],"name":"CurveRegistryCacheSet","type":"event"},{"anonymous":false,"inputs":[{"indexed":false,"internalType":"address","name":"inflationManager","type":"address"}],"name":"InflationManagerSet","type":"event"},{"anonymous":false,"inputs":[{"indexed":true,"internalType":"address","name":"previousOwner","type":"address"},{"indexed":true,"internalType":"address","name":"newOwner","type":"address"}],"name":"OwnershipTransferred","type":"event"},{"anonymous":false,"inputs":[{"indexed":true,"internalType":"address","name":"pool","type":"address"}],"name":"PoolAdded","type":"event"},{"anonymous":false,"inputs":[{"indexed":true,"internalType":"address","name":"pool","type":"address"}],"name":"PoolRemoved","type":"event"},{"anonymous":false,"inputs":[{"indexed":true,"internalType":"address","name":"pool","type":"address"}],"name":"PoolShutdown","type":"event"},{"anonymous":false,"inputs":[{"indexed":false,"internalType":"address","name":"priceOracle","type":"address"}],"name":"PriceOracleSet","type":"event"},{"anonymous":false,"inputs":[{"indexed":false,"internalType":"uint256","name":"weightUpdateMinDelay","type":"uint256"}],"name":"WeightUpdateMinDelaySet","type":"event"},{"inputs":[{"internalType":"address","name":"poolAddress","type":"address"}],"name":"addPool","outputs":[],"stateMutability":"nonpayable","type":"function"},{"inputs":[],"name":"cncToken","outputs":[{"internalType":"address","name":"","type":"address"}],"stateMutability":"view","type":"function"},{"inputs":[],"name":"convexBooster","outputs":[{"internalType":"address","name":"","type":"address"}],"stateMutability":"view","type":"function"},{"inputs":[],"name":"convexHandler","outputs":[{"internalType":"address","name":"","type":"address"}],"stateMutability":"view","type":"function"},{"inputs":[],"name":"curveHandler","outputs":[{"internalType":"address","name":"","type":"address"}],"stateMutability":"view","type":"function"},{"inputs":[],"name":"curveRegistryCache","outputs":[{"internalType":"contract ICurveRegistryCache","name":"","type":"address"}],"stateMutability":"view","type":"function"},{"inputs":[],"name":"emergencyMinter","outputs":[{"internalType":"address","name":"","type":"address"}],"stateMutability":"view","type":"function"},{"inputs":[],"name":"inflationManager","outputs":[{"internalType":"contract IInflationManager","name":"","type":"address"}],"stateMutability":"view","type":"function"},{"inputs":[{"internalType":"address","name":"poolAddress","type":"address"}],"name":"isActivePool","outputs":[{"internalType":"bool","name":"","type":"bool"}],"stateMutability":"view","type":"function"},{"inputs":[{"internalType":"address","name":"poolAddress","type":"address"}],"name":"isPool","outputs":[{"internalType":"bool","name":"","type":"bool"}],"stateMutability":"view","type":"function"},{"inputs":[{"internalType":"address","name":"","type":"address"}],"name":"lastWeightUpdate","outputs":[{"internalType":"uint256","name":"","type":"uint256"}],"stateMutability":"view","type":"function"},{"inputs":[],"name":"listActivePools","outputs":[{"internalType":"address[]","name":"","type":"address[]"}],"stateMutability":"view","type":"function"},{"inputs":[],"name":"listPools","outputs":[{"internalType":"address[]","name":"","type":"address[]"}],"stateMutability":"view","type":"function"},{"inputs":[],"name":"lpTokenStaker","outputs":[{"internalType":"contract ILpTokenStaker","name":"","type":"address"}],"stateMutability":"view","type":"function"},{"inputs":[],"name":"owner","outputs":[{"internalType":"address","name":"","type":"address"}],"stateMutability":"view","type":"function"},{"inputs":[],"name":"priceOracle","outputs":[{"internalType":"contract IOracle","name":"","type":"address"}],"stateMutability":"view","type":"function"},{"inputs":[{"internalType":"address","name":"poolAddress","type":"address"}],"name":"removePool","outputs":[],"stateMutability":"nonpayable","type":"function"},{"inputs":[],"name":"renounceOwnership","outputs":[],"stateMutability":"nonpayable","type":"function"},{"inputs":[{"internalType":"address","name":"_convexBooster","type":"address"}],"name":"setConvexBooster","outputs":[],"stateMutability":"nonpayable","type":"function"},{"inputs":[{"internalType":"address","name":"_convexHandler","type":"address"}],"name":"setConvexHandler","outputs":[],"stateMutability":"nonpayable","type":"function"},{"inputs":[{"internalType":"address","name":"_curveHandler","type":"address"}],"name":"setCurveHandler","outputs":[],"stateMutability":"nonpayable","type":"function"},{"inputs":[{"internalType":"address","name":"curveRegistryCache_","type":"address"}],"name":"setCurveRegistryCache","outputs":[],"stateMutability":"nonpayable","type":"function"},{"inputs":[{"internalType":"address","name":"manager","type":"address"}],"name":"setInflationManager","outputs":[],"stateMutability":"nonpayable","type":"function"},{"inputs":[{"internalType":"address","name":"_lpTokenStaker","type":"address"}],"name":"setLpTokenStaker","outputs":[],"stateMutability":"nonpayable","type":"function"},{"inputs":[{"internalType":"address","name":"oracle","type":"address"}],"name":"setPriceOracle","outputs":[],"stateMutability":"nonpayable","type":"function"},{"inputs":[{"internalType":"uint256","name":"delay","type":"uint256"}],"name":"setWeightUpdateMinDelay","outputs":[],"stateMutability":"nonpayable","type":"function"},{"inputs":[{"internalType":"address","name":"poolAddress","type":"address"}],"name":"shutdownPool","outputs":[],"stateMutability":"nonpayable","type":"function"},{"inputs":[{"internalType":"address","name":"newOwner","type":"address"}],"name":"transferOwnership","outputs":[],"stateMutability":"nonpayable","type":"function"},{"inputs":[{"components":[{"internalType":"address","name":"conicPoolAddress","type":"address"},{"components":[{"internalType":"address","name":"poolAddress","type":"address"},{"internalType":"uint256","name":"weight","type":"uint256"}],"internalType":"struct IConicPool.PoolWeight[]","name":"weights","type":"tuple[]"}],"internalType":"struct IController.WeightUpdate[]","name":"weights","type":"tuple[]"}],"name":"updateAllWeights","outputs":[],"stateMutability":"nonpayable","type":"function"},{"inputs":[{"components":[{"internalType":"address","name":"conicPoolAddress","type":"address"},{"components":[{"internalType":"address","name":"poolAddress","type":"address"},{"internalType":"uint256","name":"weight","type":"uint256"}],"internalType":"struct IConicPool.PoolWeight[]","name":"weights","type":"tuple[]"}],"internalType":"struct IController.WeightUpdate","name":"update","type":"tuple"}],"name":"updateWeights","outputs":[],"stateMutability":"nonpayable","type":"function"},{"inputs":[],"name":"weightUpdateMinDelay","outputs":[{"internalType":"uint256","name":"","type":"uint256"}],"stateMutability":"view","type":"function"}],"bytecode":"60c0604052600580546001600160a01b03191673f403c135812408bfbe8713b5a23a04b3d48aae311790553480156200003757600080fd5b506040516200292d3803806200292d8339810160408190526200005a91620001c2565b620000653362000147565b6001600160a01b0382811660a052600980546001600160a01b031916918316919091179055604051600090839030906200009f9062000197565b6001600160a01b03928316815291166020820152604001604051809103906000f080158015620000d3573d6000803e3d6000fd5b5060405163f2fde38b60e01b81523360048201529091506001600160a01b0382169063f2fde38b90602401600060405180830381600087803b1580156200011957600080fd5b505af11580156200012e573d6000803e3d6000fd5b505050506001600160a01b031660805250620001fa9050565b600080546001600160a01b038381166001600160a01b0319831681178455604051919092169283917f8be0079c531659141344cd1fd0a4f28419497f9722a3daafe3b4186f6b6457e09190a35050565b61105180620018dc83390190565b80516001600160a01b0381168114620001bd57600080fd5b919050565b60008060408385031215620001d657600080fd5b620001e183620001a5565b9150620001f160208401620001a5565b90509250929050565b60805160a0516116b56200022760003960006103270152600081816103000152610d7d01526116b56000f3fe608060405234801561001057600080fd5b50600436106101e55760003560e01c8063715018a61161010f578063b050ecb8116100a2578063e17a803d11610071578063e17a803d1461043d578063ec89d3b814610450578063f2fde38b14610463578063fa5d10581461047657600080fd5b8063b050ecb8146103f1578063c3bb30b514610404578063d914cd4b14610417578063dbcd89fa1461042a57600080fd5b806381e0f765116100de57806381e0f765146103a757806388beb5d5146103ba5780638da5cb5b146103cd5780639f82b217146103de57600080fd5b8063715018a61461037157806372b11179146103795780637f4c43ac146103815780638097354f1461039457600080fd5b806352e3d331116101875780635e2f23ce116101565780635e2f23ce146102fb578063645d28a81461032257806364b0aa9414610349578063687958621461035c57600080fd5b806352e3d3311461029f578063530e784f146102b25780635a991917146102c55780635b16ebb7146102d857600080fd5b80632630c12f116101c35780632630c12f1461023b5780632cdacb50146102665780633b7d09461461027957806348439e7e1461028c57600080fd5b806308502197146101ea5780630e2cf72d1461021d5780631988a10714610232575b600080fd5b61020a6101f836600461128a565b600d6020526000908152604090205481565b6040519081526020015b60405180910390f35b61023061022b3660046112a5565b610489565b005b61020a600c5481565b60085461024e906001600160a01b031681565b6040516001600160a01b039091168152602001610214565b60055461024e906001600160a01b031681565b61023061028736600461128a565b610559565b600b5461024e906001600160a01b031681565b6102306102ad36600461128a565b61064b565b6102306102c036600461128a565b6106a1565b60065461024e906001600160a01b031681565b6102eb6102e636600461128a565b6106f7565b6040519015158152602001610214565b61024e7f000000000000000000000000000000000000000000000000000000000000000081565b61024e7f000000000000000000000000000000000000000000000000000000000000000081565b61023061035736600461128a565b61070a565b610364610853565b60405161021491906112be565b610230610864565b610364610878565b61023061038f36600461128a565b610884565b6102eb6103a236600461128a565b6108da565b6102306103b536600461147d565b6108e7565b6102306103c836600461128a565b610933565b6000546001600160a01b031661024e565b60095461024e906001600160a01b031681565b60075461024e906001600160a01b031681565b61023061041236600461128a565b610989565b61023061042536600461128a565b610aa2565b600a5461024e906001600160a01b031681565b61023061044b36600461152e565b610bea565b61023061045e36600461128a565b610ce9565b61023061047136600461128a565b610eb7565b61023061048436600461128a565b610f30565b610491610f86565b622a300081106104d95760405162461bcd60e51b815260206004820152600e60248201526d64656c617920746f6f206c6f6e6760901b60448201526064015b60405180910390fd5b62015180811161051d5760405162461bcd60e51b815260206004820152600f60248201526e19195b185e481d1bdbc81cda1bdc9d608a1b60448201526064016104d0565b600c8190556040518181527f4cbbfb8b36940e62c2ed74c76e6470d94fe291696433dab19272e011ed311588906020015b60405180910390a150565b610561610f86565b61056c600182610fe0565b6105b05760405162461bcd60e51b815260206004820152601560248201527419985a5b1959081d1bc81c995b5bdd99481c1bdbdb605a1b60448201526064016104d0565b6105bb600382610ffc565b156106145760405162461bcd60e51b8152602060048201526024808201527f73687574646f776e2074686520706f6f6c206265666f72652072656d6f76696e60448201526319c81a5d60e21b60648201526084016104d0565b6040516001600160a01b038216907f4106dfdaa577573db51c0ca93f766dbedfa0758faa2e7f5bcdb7c142be803c3f90600090a250565b610653610f86565b600980546001600160a01b0319166001600160a01b0383169081179091556040519081527f804d6412ec50674626ecd09727ed034ced85412d702250057e5a869d9d82392d9060200161054e565b6106a9610f86565b600880546001600160a01b0319166001600160a01b0383169081179091556040519081527f6536690106168bdf4ba72c128a053d817999b1db90cae23f139b293bf862cb759060200161054e565b6000610704600183610ffc565b92915050565b610712610f86565b61071d600382610fe0565b6107615760405162461bcd60e51b815260206004820152601560248201527419985a5b1959081d1bc81c995b5bdd99481c1bdbdb605a1b60448201526064016104d0565b806001600160a01b031663d6038dc66040518163ffffffff1660e01b8152600401600060405180830381600087803b15801561079c57600080fd5b505af11580156107b0573d6000803e3d6000fd5b50505050600a60009054906101000a90046001600160a01b03166001600160a01b0316633dc4f7de6040518163ffffffff1660e01b8152600401600060405180830381600087803b15801561080457600080fd5b505af1158015610818573d6000803e3d6000fd5b50506040516001600160a01b03841692507f1b2b64a5d6ff166112cd9f1d7e3a30ad9a1e236c68c0c58c965368f3b56d542c9150600090a250565b606061085f600161101e565b905090565b61086c610f86565b610876600061102b565b565b606061085f600361101e565b61088c610f86565b600a80546001600160a01b0319166001600160a01b0383169081179091556040519081527f1807368dab7e70053cc95c16cee46c8b354ce67fa6610400c469d35b566201409060200161054e565b6000610704600383610ffc565b6108ef610f86565b60005b815181101561092f5761091d8282815181106109105761091061156b565b6020026020010151610bea565b8061092781611597565b9150506108f2565b5050565b61093b610f86565b600780546001600160a01b0319166001600160a01b0383169081179091556040519081527f78c0d5a329a7d476b56bc10ad7e2fd11a0433fb6f1ffd12b28b3b3a7ce5cdba99060200161054e565b610991610f86565b600560009054906101000a90046001600160a01b03166001600160a01b031663bf86d6906040518163ffffffff1660e01b8152600401602060405180830381865afa1580156109e4573d6000803e3d6000fd5b505050506040513d601f19601f82011682018060405250810190610a0891906115b0565b610a545760405162461bcd60e51b815260206004820152601f60248201527f63757272656e7420626f6f73746572206973206e6f742073687574646f776e0060448201526064016104d0565b600580546001600160a01b0319166001600160a01b0383169081179091556040519081527f753f93638ea37a2df364592f0884f853232995f9d2834affdeb30031ab97b3769060200161054e565b610aaa610f86565b610ab560018261107b565b610af65760405162461bcd60e51b815260206004820152601260248201527119985a5b1959081d1bc8185919081c1bdbdb60721b60448201526064016104d0565b610b0160038261107b565b610b425760405162461bcd60e51b815260206004820152601260248201527119985a5b1959081d1bc8185919081c1bdbdb60721b60448201526064016104d0565b600b546040516354b94c2f60e11b81526001600160a01b0383811660048301529091169063a972985e906024016020604051808303816000875af1158015610b8e573d6000803e3d6000fd5b505050506040513d601f19601f82011682018060405250810190610bb291906115d2565b506040516001600160a01b038216907f73cca62ab1b520c9715bf4e6c71e3e518c754e7148f65102f43289a7df0efea690600090a250565b610bf2610f86565b600c5481516001600160a01b03166000908152600d60205260409020544291610c1a916115eb565b10610c675760405162461bcd60e51b815260206004820152601f60248201527f776569676874207570646174652064656c6179206e6f7420656c61707365640060448201526064016104d0565b80516020820151604051638dbfb25b60e01b81526001600160a01b0390921691638dbfb25b91610c99916004016115fe565b600060405180830381600087803b158015610cb357600080fd5b505af1158015610cc7573d6000803e3d6000fd5b505091516001600160a01b03166000908152600d602052604090204290555050565b600b546001600160a01b0316610d076000546001600160a01b031690565b6001600160a01b03163303610d72576001600160a01b03811615610d6d5760405162461bcd60e51b815260206004820152601960248201527f6c70546f6b656e5374616b657220616c7265616479207365740000000000000060448201526064016104d0565b610dea565b336001600160a01b037f00000000000000000000000000000000000000000000000000000000000000001614610dea5760405162461bcd60e51b815260206004820152601d60248201527f6f6e6c79206f776e6572206f7220656d657267656e63794d696e74657200000060448201526064016104d0565b600b80546001600160a01b0319166001600160a01b03841617905560005b610e126001611090565b811015610eb257600b546001600160a01b031663a972985e610e3560018461109a565b6040516001600160e01b031960e084901b1681526001600160a01b0390911660048201526024016020604051808303816000875af1158015610e7b573d6000803e3d6000fd5b505050506040513d601f19601f82011682018060405250810190610e9f91906115d2565b5080610eaa81611597565b915050610e08565b505050565b610ebf610f86565b6001600160a01b038116610f245760405162461bcd60e51b815260206004820152602660248201527f4f776e61626c653a206e6577206f776e657220697320746865207a65726f206160448201526564647265737360d01b60648201526084016104d0565b610f2d8161102b565b50565b610f38610f86565b600680546001600160a01b0319166001600160a01b0383169081179091556040519081527f40f17cc99608acc0aa583a98bd741564e79111d55e65adc0399f400a707d48319060200161054e565b6000546001600160a01b031633146108765760405162461bcd60e51b815260206004820181905260248201527f4f776e61626c653a2063616c6c6572206973206e6f7420746865206f776e657260448201526064016104d0565b6000610ff5836001600160a01b0384166110a6565b9392505050565b6001600160a01b03811660009081526001830160205260408120541515610ff5565b60606000610ff583611199565b600080546001600160a01b038381166001600160a01b0319831681178455604051919092169283917f8be0079c531659141344cd1fd0a4f28419497f9722a3daafe3b4186f6b6457e09190a35050565b6000610ff5836001600160a01b0384166111f5565b6000610704825490565b6000610ff58383611244565b6000818152600183016020526040812054801561118f5760006110ca600183611656565b85549091506000906110de90600190611656565b90508181146111435760008660000182815481106110fe576110fe61156b565b90600052602060002001549050808760000184815481106111215761112161156b565b6000918252602080832090910192909255918252600188019052604090208390555b855486908061115457611154611669565b600190038181906000526020600020016000905590558560010160008681526020019081526020016000206000905560019350505050610704565b6000915050610704565b6060816000018054806020026020016040519081016040528092919081815260200182805480156111e957602002820191906000526020600020905b8154815260200190600101908083116111d5575b50505050509050919050565b600081815260018301602052604081205461123c57508154600181810184556000848152602080822090930184905584548482528286019093526040902091909155610704565b506000610704565b600082600001828154811061125b5761125b61156b565b9060005260206000200154905092915050565b80356001600160a01b038116811461128557600080fd5b919050565b60006020828403121561129c57600080fd5b610ff58261126e565b6000602082840312156112b757600080fd5b5035919050565b6020808252825182820181905260009190848201906040850190845b818110156112ff5783516001600160a01b0316835292840192918401916001016112da565b50909695505050505050565b634e487b7160e01b600052604160045260246000fd5b6040805190810167ffffffffffffffff811182821017156113445761134461130b565b60405290565b604051601f8201601f1916810167ffffffffffffffff811182821017156113735761137361130b565b604052919050565b600067ffffffffffffffff8211156113955761139561130b565b5060051b60200190565b600060408083850312156113b257600080fd5b6113ba611321565b91506113c58361126e565b825260208084013567ffffffffffffffff8111156113e257600080fd5b8401601f810186136113f357600080fd5b80356114066114018261137b565b61134a565b81815260069190911b8201830190838101908883111561142557600080fd5b928401925b8284101561146c5785848a0312156114425760008081fd5b61144a611321565b6114538561126e565b815284860135868201528252928501929084019061142a565b808588015250505050505092915050565b6000602080838503121561149057600080fd5b823567ffffffffffffffff808211156114a857600080fd5b818501915085601f8301126114bc57600080fd5b81356114ca6114018261137b565b81815260059190911b830184019084810190888311156114e957600080fd5b8585015b83811015611521578035858111156115055760008081fd5b6115138b89838a010161139f565b8452509186019186016114ed565b5098975050505050505050565b60006020828403121561154057600080fd5b813567ffffffffffffffff81111561155757600080fd5b6115638482850161139f565b949350505050565b634e487b7160e01b600052603260045260246000fd5b634e487b7160e01b600052601160045260246000fd5b6000600182016115a9576115a9611581565b5060010190565b6000602082840312156115c257600080fd5b81518015158114610ff557600080fd5b6000602082840312156115e457600080fd5b5051919050565b8082018082111561070457610704611581565b602080825282518282018190526000919060409081850190868401855b8281101561164957815180516001600160a01b0316855286015186850152928401929085019060010161161b565b5091979650505050505050565b8181038181111561070457610704611581565b634e487b7160e01b600052603160045260246000fdfea2646970667358221220d3f406dd8ba46e23c40ec4a2ed7dfe66e7dbb345731b7706b7e7faaaa95061b864736f6c6343000811003360e060405234801561001057600080fd5b5060405161105138038061105183398101604081905261002f916100bb565b61003833610053565b6001600160a01b039182166080521660a0524260c0526100f5565b600080546001600160a01b038381166001600160a01b0319831681178455604051919092169283917f8be0079c531659141344cd1fd0a4f28419497f9722a3daafe3b4186f6b6457e09190a35050565b6001600160a01b03811681146100b857600080fd5b50565b600080604083850312156100ce57600080fd5b82516100d9816100a3565b60208401519092506100ea816100a3565b809150509250929050565b60805160a05160c051610eee6101636000396000818161011a0152818161073501526108a901526000818161017b015281816101b10152818161023b015281816104a501526105f0015260008181610141015281816107aa01528181610b1d0152610bd40152610eee6000f3fe608060405234801561001057600080fd5b506004361061009e5760003560e01c8063eae4c19f11610066578063eae4c19f14610115578063f0aa0a1d1461013c578063f2fde38b14610163578063f77c479114610176578063fc0e74d11461019d57600080fd5b80632e45c987146100a35780636ae0ca82146100b85780636bbe080e146100d5578063715018a6146100e85780638da5cb5b146100f0575b600080fd5b6100b66100b1366004610cd3565b6101a5565b005b6100c26276a70081565b6040519081526020015b60405180910390f35b6100b66100e3366004610cd3565b610491565b6100b661069f565b6000546001600160a01b03165b6040516001600160a01b0390911681526020016100cc565b6100c27f000000000000000000000000000000000000000000000000000000000000000081565b6100fd7f000000000000000000000000000000000000000000000000000000000000000081565b6100b6610171366004610d0c565b6106b3565b6100fd7f000000000000000000000000000000000000000000000000000000000000000081565b6100b661072c565b6101ad610846565b60007f00000000000000000000000000000000000000000000000000000000000000006001600160a01b031663687958626040518163ffffffff1660e01b8152600401600060405180830381865afa15801561020d573d6000803e3d6000fd5b505050506040513d6000823e601f3d908101601f191682016040526102359190810190610d56565b905060007f00000000000000000000000000000000000000000000000000000000000000006001600160a01b031663dbcd89fa6040518163ffffffff1660e01b8152600401602060405180830381865afa158015610297573d6000803e3d6000fd5b505050506040513d601f19601f820116820180604052508101906102bb9190610e1b565b905060005b825181101561043d5760008382815181106102dd576102dd610e38565b602090810291909101015160405163b46507a160e01b81526001600160a01b03808316600483015288811660248301529192509084169063b46507a190604401602060405180830381865afa15801561033a573d6000803e3d6000fd5b505050506040513d601f19601f8201168201806040525081019061035e9190610e4e565b1561042a576040516356a0d31560e01b81526001600160a01b03828116600483015287811660248301528416906356a0d31590604401600060405180830381600087803b1580156103ae57600080fd5b505af11580156103c2573d6000803e3d6000fd5b505060405163dba8cc3560e01b81526001600160a01b03848116600483015288811660248301528616925063dba8cc359150604401600060405180830381600087803b15801561041157600080fd5b505af1158015610425573d6000803e3d6000fd5b505050505b508061043581610e86565b9150506102c0565b5061044884846108a0565b604080516001600160a01b038087168252851660208201527fc9e531e8bc630778353ecd6045e7e393cd8ec41279cc5c55613631cf227931f7910160405180910390a150505050565b610499610846565b816001600160a01b03167f00000000000000000000000000000000000000000000000000000000000000006001600160a01b03166348439e7e6040518163ffffffff1660e01b8152600401602060405180830381865afa158015610501573d6000803e3d6000fd5b505050506040513d601f19601f820116820180604052508101906105259190610e1b565b6001600160a01b0316146105805760405162461bcd60e51b815260206004820152601f60248201527f456d657267656e63794d696e7465723a20696e76616c6964207374616b65720060448201526064015b60405180910390fd5b816001600160a01b031663fc0e74d16040518163ffffffff1660e01b8152600401600060405180830381600087803b1580156105bb57600080fd5b505af11580156105cf573d6000803e3d6000fd5b5050604051631d913a7760e31b81526001600160a01b0384811660048301527f000000000000000000000000000000000000000000000000000000000000000016925063ec89d3b89150602401600060405180830381600087803b15801561063657600080fd5b505af115801561064a573d6000803e3d6000fd5b5050505061065882826108a0565b604080516001600160a01b038085168252831660208201527ff295a9b77dbaa28354cf6e93e652cbdfe1807b8a0ef1765035e3e167057a8669910160405180910390a15050565b6106a7610846565b6106b16000610b7f565b565b6106bb610846565b6001600160a01b0381166107205760405162461bcd60e51b815260206004820152602660248201527f4f776e61626c653a206e6577206f776e657220697320746865207a65726f206160448201526564647265737360d01b6064820152608401610577565b61072981610b7f565b50565b6107596276a7007f0000000000000000000000000000000000000000000000000000000000000000610e9f565b4210156107a85760405162461bcd60e51b815260206004820152601d60248201527f456d657267656e63794d696e7465723a207374696c6c206163746976650000006044820152606401610577565b7f00000000000000000000000000000000000000000000000000000000000000006001600160a01b03166370e9749a6040518163ffffffff1660e01b8152600401600060405180830381600087803b15801561080357600080fd5b505af1158015610817573d6000803e3d6000fd5b50506040517f4426aa1fb73e391071491fcfe21a88b5c38a0a0333a1f6e77161470439704cf8925060009150a1565b6000546001600160a01b031633146106b15760405162461bcd60e51b815260206004820181905260248201527f4f776e61626c653a2063616c6c6572206973206e6f7420746865206f776e65726044820152606401610577565b6108cd6276a7007f0000000000000000000000000000000000000000000000000000000000000000610e9f565b42106109255760405162461bcd60e51b815260206004820152602160248201527f456d657267656e63794d696e7465723a206e6f206c6f6e6765722061637469766044820152606560f81b6064820152608401610577565b806001600160a01b0316826001600160a01b0316036109865760405162461bcd60e51b815260206004820152601c60248201527f456d657267656e63794d696e7465723a2073616d65206d696e746572000000006044820152606401610577565b61098f82610bcf565b6109f25760405162461bcd60e51b815260206004820152602e60248201527f456d657267656e63794d696e7465723a2063757272656e744d696e746572206960448201526d39903737ba10309036b4b73a32b960911b6064820152608401610577565b6040516301ffc9a760e01b8152633874ba4d60e11b60048201526001600160a01b038216906301ffc9a790602401602060405180830381865afa158015610a3d573d6000803e3d6000fd5b505050506040513d601f19601f82011682018060405250810190610a619190610e4e565b610aad5760405162461bcd60e51b815260206004820152601f60248201527f456d657267656e63794d696e7465723a20696e76616c6964206d696e746572006044820152606401610577565b816001600160a01b03166370e9749a6040518163ffffffff1660e01b8152600401600060405180830381600087803b158015610ae857600080fd5b505af1158015610afc573d6000803e3d6000fd5b5050604051634c1d96ab60e11b81526001600160a01b0384811660048301527f000000000000000000000000000000000000000000000000000000000000000016925063983b2d569150602401600060405180830381600087803b158015610b6357600080fd5b505af1158015610b77573d6000803e3d6000fd5b505050505050565b600080546001600160a01b038381166001600160a01b0319831681178455604051919092169283917f8be0079c531659141344cd1fd0a4f28419497f9722a3daafe3b4186f6b6457e09190a35050565b6000807f00000000000000000000000000000000000000000000000000000000000000006001600160a01b03166322d8dc236040518163ffffffff1660e01b8152600401600060405180830381865afa158015610c30573d6000803e3d6000fd5b505050506040513d6000823e601f3d908101601f19168201604052610c589190810190610d56565b905060005b8151811015610cb457836001600160a01b0316828281518110610c8257610c82610e38565b60200260200101516001600160a01b031603610ca2575060019392505050565b80610cac81610e86565b915050610c5d565b5060009392505050565b6001600160a01b038116811461072957600080fd5b60008060408385031215610ce657600080fd5b8235610cf181610cbe565b91506020830135610d0181610cbe565b809150509250929050565b600060208284031215610d1e57600080fd5b8135610d2981610cbe565b9392505050565b634e487b7160e01b600052604160045260246000fd5b8051610d5181610cbe565b919050565b60006020808385031215610d6957600080fd5b825167ffffffffffffffff80821115610d8157600080fd5b818501915085601f830112610d9557600080fd5b815181811115610da757610da7610d30565b8060051b604051601f19603f83011681018181108582111715610dcc57610dcc610d30565b604052918252848201925083810185019188831115610dea57600080fd5b938501935b82851015610e0f57610e0085610d46565b84529385019392850192610def565b98975050505050505050565b600060208284031215610e2d57600080fd5b8151610d2981610cbe565b634e487b7160e01b600052603260045260246000fd5b600060208284031215610e6057600080fd5b81518015158114610d2957600080fd5b634e487b7160e01b600052601160045260246000fd5b600060018201610e9857610e98610e70565b5060010190565b80820180821115610eb257610eb2610e70565b9291505056fea264697066735822122060391f55239f121123e7abd8cc4e35952f3330e136472e7bcc9b2c3176bb7e6c64736f6c63430008110033","bytecodeSha1":"75bd97a6938b893ad951552d60397ff864337b82","compiler":{"evm_version":"istanbul","optimizer":{"enabled":true,"runs":200},"version":"0.8.17+commit.8df45f5f"},"contractName":"Controller","language":"Solidity","natspec":{"kind":"dev","methods":{"owner()":{"details":"Returns the address of the current owner."},"renounceOwnership()":{"details":"Leaves the contract without owner. It will not be possible to call `onlyOwner` functions anymore. Can only be called by the current owner. NOTE: Renouncing ownership will leave the contract without an owner, thereby removing any functionality that is only available to the owner."},"setLpTokenStaker(address)":{"notice":"this function is only callable by the owner or the emergencyMinter the owner is only allowed to call this function to initialize the lpTokenStaker the emergencyMinter is allowed to call this function to update the lpTokenStaker while it is active the emergencyMinter is only active for 3 months, after which point the LP token staker will effectively be immutable"},"transferOwnership(address)":{"details":"Transfers ownership of the contract to a new account (`newOwner`). Can only be called by the current owner."}},"version":1},"opcodes":"PUSH1 0x80 PUSH1 0x40 MSTORE CALLVALUE DUP1 ISZERO PUSH2 0x10 JUMPI PUSH1 0x0 DUP1 REVERT JUMPDEST POP PUSH1 0x4 CALLDATASIZE LT PUSH2 0x1E5 JUMPI PUSH1 0x0 CALLDATALOAD PUSH1 0xE0 SHR DUP1 PUSH4 0x715018A6 GT PUSH2 0x10F JUMPI DUP1 PUSH4 0xB050ECB8 GT PUSH2 0xA2 JUMPI DUP1 PUSH4 0xE17A803D GT PUSH2 0x71 JUMPI DUP1 PUSH4 0xE17A803D EQ PUSH2 0x43D JUMPI DUP1 PUSH4 0xEC89D3B8 EQ PUSH2 0x450 JUMPI DUP1 PUSH4 0xF2FDE38B EQ PUSH2 0x463 JUMPI DUP1 PUSH4 0xFA5D1058 EQ PUSH2 0x476 JUMPI PUSH1 0x0 DUP1 REVERT JUMPDEST DUP1 PUSH4 0xB050ECB8 EQ PUSH2 0x3F1 JUMPI DUP1 PUSH4 0xC3BB30B5 EQ PUSH2 0x404 JUMPI DUP1 PUSH4 0xD914CD4B EQ PUSH2 0x417 JUMPI DUP1 PUSH4 0xDBCD89FA EQ PUSH2 0x42A JUMPI PUSH1 0x0 DUP1 REVERT JUMPDEST DUP1 PUSH4 0x81E0F765 GT PUSH2 0xDE JUMPI DUP1 PUSH4 0x81E0F765 EQ PUSH2 0x3A7 JUMPI DUP1 PUSH4 0x88BEB5D5 EQ PUSH2 0x3BA JUMPI DUP1 PUSH4 0x8DA5CB5B EQ PUSH2 0x3CD JUMPI DUP1 PUSH4 0x9F82B217 EQ PUSH2 0x3DE JUMPI PUSH1 0x0 DUP1 REVERT JUMPDEST DUP1 PUSH4 0x715018A6 EQ PUSH2 0x371 JUMPI DUP1 PUSH4 0x72B11179 EQ PUSH2 0x379 JUMPI DUP1 PUSH4 0x7F4C43AC EQ PUSH2 0x381 JUMPI DUP1 PUSH4 0x8097354F EQ PUSH2 0x394 JUMPI PUSH1 0x0 DUP1 REVERT JUMPDEST DUP1 PUSH4 0x52E3D331 GT PUSH2 0x187 JUMPI DUP1 PUSH4 0x5E2F23CE GT PUSH2 0x156 JUMPI DUP1 PUSH4 0x5E2F23CE EQ PUSH2 0x2FB JUMPI DUP1 PUSH4 0x645D28A8 EQ PUSH2 0x322 JUMPI DUP1 PUSH4 0x64B0AA94 EQ PUSH2 0x349 JUMPI DUP1 PUSH4 0x68795862 EQ PUSH2 0x35C JUMPI PUSH1 0x0 DUP1 REVERT JUMPDEST DUP1 PUSH4 0x52E3D331 EQ PUSH2 0x29F JUMPI DUP1 PUSH4 0x530E784F EQ PUSH2 0x2B2 JUMPI DUP1 PUSH4 0x5A991917 EQ PUSH2 0x2C5 JUMPI DUP1 PUSH4 0x5B16EBB7 EQ PUSH2 0x2D8 JUMPI PUSH1 0x0 DUP1 REVERT JUMPDEST DUP1 PUSH4 0x2630C12F GT PUSH2 0x1C3 JUMPI DUP1 PUSH4 0x2630C12F EQ PUSH2 0x23B JUMPI DUP1 PUSH4 0x2CDACB50 EQ PUSH2 0x266 JUMPI DUP1 PUSH4 0x3B7D0946 EQ PUSH2 0x279 JUMPI DUP1 PUSH4 0x48439E7E EQ PUSH2 0x28C JUMPI PUSH1 0x0 DUP1 REVERT JUMPDEST DUP1 PUSH4 0x8502197 EQ PUSH2 0x1EA JUMPI DUP1 PUSH4 0xE2CF72D EQ PUSH2 0x21D JUMPI DUP1 PUSH4 0x1988A107 EQ PUSH2 0x232 JUMPI JUMPDEST PUSH1 0x0 DUP1 REVERT JUMPDEST PUSH2 0x20A PUSH2 0x1F8 CALLDATASIZE PUSH1 0x4 PUSH2 0x128A JUMP JUMPDEST PUSH1 0xD PUSH1 0x20 MSTORE PUSH1 0x0 SWAP1 DUP2 MSTORE PUSH1 0x40 SWAP1 KECCAK256 SLOAD DUP2 JUMP JUMPDEST PUSH1 0x40 MLOAD SWAP1 DUP2 MSTORE PUSH1 0x20 ADD JUMPDEST PUSH1 0x40 MLOAD DUP1 SWAP2 SUB SWAP1 RETURN JUMPDEST PUSH2 0x230 PUSH2 0x22B CALLDATASIZE PUSH1 0x4 PUSH2 0x12A5 JUMP JUMPDEST PUSH2 0x489 JUMP JUMPDEST STOP JUMPDEST PUSH2 0x20A PUSH1 0xC SLOAD DUP2 JUMP JUMPDEST PUSH1 0x8 SLOAD PUSH2 0x24E SWAP1 PUSH1 0x1 PUSH1 0x1 PUSH1 0xA0 SHL SUB AND DUP2 JUMP JUMPDEST PUSH1 0x40 MLOAD PUSH1 0x1 PUSH1 0x1 PUSH1 0xA0 SHL SUB SWAP1 SWAP2 AND DUP2 MSTORE PUSH1 0x20 ADD PUSH2 0x214 JUMP JUMPDEST PUSH1 0x5 SLOAD PUSH2 0x24E SWAP1 PUSH1 0x1 PUSH1 0x1 PUSH1 0xA0 SHL SUB AND DUP2 JUMP JUMPDEST PUSH2 0x230 PUSH2 0x287 CALLDATASIZE PUSH1 0x4 PUSH2 0x128A JUMP JUMPDEST PUSH2 0x559 JUMP JUMPDEST PUSH1 0xB SLOAD PUSH2 0x24E SWAP1 PUSH1 0x1 PUSH1 0x1 PUSH1 0xA0 SHL SUB AND DUP2 JUMP JUMPDEST PUSH2 0x230 PUSH2 0x2AD CALLDATASIZE PUSH1 0x4 PUSH2 0x128A JUMP JUMPDEST PUSH2 0x64B JUMP JUMPDEST PUSH2 0x230 PUSH2 0x2C0 CALLDATASIZE PUSH1 0x4 PUSH2 0x128A JUMP JUMPDEST PUSH2 0x6A1 JUMP JUMPDEST PUSH1 0x6 SLOAD PUSH2 0x24E SWAP1 PUSH1 0x1 PUSH1 0x1 PUSH1 0xA0 SHL SUB AND DUP2 JUMP JUMPDEST PUSH2 0x2EB PUSH2 0x2E6 CALLDATASIZE PUSH1 0x4 PUSH2 0x128A JUMP JUMPDEST PUSH2 0x6F7 JUMP JUMPDEST PUSH1 0x40 MLOAD SWAP1 ISZERO ISZERO DUP2 MSTORE PUSH1 0x20 ADD PUSH2 0x214 JUMP JUMPDEST PUSH2 0x24E PUSH32 0x0 DUP2 JUMP JUMPDEST PUSH2 0x24E PUSH32 0x0 DUP2 JUMP JUMPDEST PUSH2 0x230 PUSH2 0x357 CALLDATASIZE PUSH1 0x4 PUSH2 0x128A JUMP JUMPDEST PUSH2 0x70A JUMP JUMPDEST PUSH2 0x364 PUSH2 0x853 JUMP JUMPDEST PUSH1 0x40 MLOAD PUSH2 0x214 SWAP2 SWAP1 PUSH2 0x12BE JUMP JUMPDEST PUSH2 0x230 PUSH2 0x864 JUMP JUMPDEST PUSH2 0x364 PUSH2 0x878 JUMP JUMPDEST PUSH2 0x230 PUSH2 0x38F CALLDATASIZE PUSH1 0x4 PUSH2 0x128A JUMP JUMPDEST PUSH2 0x884 JUMP JUMPDEST PUSH2 0x2EB PUSH2 0x3A2 CALLDATASIZE PUSH1 0x4 PUSH2 0x128A JUMP JUMPDEST PUSH2 0x8DA JUMP JUMPDEST PUSH2 0x230 PUSH2 0x3B5 CALLDATASIZE PUSH1 0x4 PUSH2 0x147D JUMP JUMPDEST PUSH2 0x8E7 JUMP JUMPDEST PUSH2 0x230 PUSH2 0x3C8 CALLDATASIZE PUSH1 0x4 PUSH2 0x128A JUMP JUMPDEST PUSH2 0x933 JUMP JUMPDEST PUSH1 0x0 SLOAD PUSH1 0x1 PUSH1 0x1 PUSH1 0xA0 SHL SUB AND PUSH2 0x24E JUMP JUMPDEST PUSH1 0x9 SLOAD PUSH2 0x24E SWAP1 PUSH1 0x1 PUSH1 0x1 PUSH1 0xA0 SHL SUB AND DUP2 JUMP JUMPDEST PUSH1 0x7 SLOAD PUSH2 0x24E SWAP1 PUSH1 0x1 PUSH1 0x1 PUSH1 0xA0 SHL SUB AND DUP2 JUMP JUMPDEST PUSH2 0x230 PUSH2 0x412 CALLDATASIZE PUSH1 0x4 PUSH2 0x128A JUMP JUMPDEST PUSH2 0x989 JUMP JUMPDEST PUSH2 0x230 PUSH2 0x425 CALLDATASIZE PUSH1 0x4 PUSH2 0x128A JUMP JUMPDEST PUSH2 0xAA2 JUMP JUMPDEST PUSH1 0xA SLOAD PUSH2 0x24E SWAP1 PUSH1 0x1 PUSH1 0x1 PUSH1 0xA0 SHL SUB AND DUP2 JUMP JUMPDEST PUSH2 0x230 PUSH2 0x44B CALLDATASIZE PUSH1 0x4 PUSH2 0x152E JUMP JUMPDEST PUSH2 0xBEA JUMP JUMPDEST PUSH2 0x230 PUSH2 0x45E CALLDATASIZE PUSH1 0x4 PUSH2 0x128A JUMP JUMPDEST PUSH2 0xCE9 JUMP JUMPDEST PUSH2 0x230 PUSH2 0x471 CALLDATASIZE PUSH1 0x4 PUSH2 0x128A JUMP JUMPDEST PUSH2 0xEB7 JUMP JUMPDEST PUSH2 0x230 PUSH2 0x484 CALLDATASIZE PUSH1 0x4 PUSH2 0x128A JUMP JUMPDEST PUSH2 0xF30 JUMP JUMPDEST PUSH2 0x491 PUSH2 0xF86 JUMP JUMPDEST PUSH3 0x2A3000 DUP2 LT PUSH2 0x4D9 JUMPI PUSH1 0x40 MLOAD PUSH3 0x461BCD PUSH1 0xE5 SHL DUP2 MSTORE PUSH1 0x20 PUSH1 0x4 DUP3 ADD MSTORE PUSH1 0xE PUSH1 0x24 DUP3 ADD MSTORE PUSH14 0x64656C617920746F6F206C6F6E67 PUSH1 0x90 SHL PUSH1 0x44 DUP3 ADD MSTORE PUSH1 0x64 ADD JUMPDEST PUSH1 0x40 MLOAD DUP1 SWAP2 SUB SWAP1 REVERT JUMPDEST PUSH3 0x15180 DUP2 GT PUSH2 0x51D JUMPI PUSH1 0x40 MLOAD PUSH3 0x461BCD PUSH1 0xE5 SHL DUP2 MSTORE PUSH1 0x20 PUSH1 0x4 DUP3 ADD MSTORE PUSH1 0xF PUSH1 0x24 DUP3 ADD MSTORE PUSH15 0x19195B185E481D1BDBC81CDA1BDC9D PUSH1 0x8A SHL PUSH1 0x44 DUP3 ADD MSTORE PUSH1 0x64 ADD PUSH2 0x4D0 JUMP JUMPDEST PUSH1 0xC DUP2 SWAP1 SSTORE PUSH1 0x40 MLOAD DUP2 DUP2 MSTORE PUSH32 0x4CBBFB8B36940E62C2ED74C76E6470D94FE291696433DAB19272E011ED311588 SWAP1 PUSH1 0x20 ADD JUMPDEST PUSH1 0x40 MLOAD DUP1 SWAP2 SUB SWAP1 LOG1 POP JUMP JUMPDEST PUSH2 0x561 PUSH2 0xF86 JUMP JUMPDEST PUSH2 0x56C PUSH1 0x1 DUP3 PUSH2 0xFE0 JUMP JUMPDEST PUSH2 0x5B0 JUMPI PUSH1 0x40 MLOAD PUSH3 0x461BCD PUSH1 0xE5 SHL DUP2 MSTORE PUSH1 0x20 PUSH1 0x4 DUP3 ADD MSTORE PUSH1 0x15 PUSH1 0x24 DUP3 ADD MSTORE PUSH21 0x19985A5B1959081D1BC81C995B5BDD99481C1BDBDB PUSH1 0x5A SHL PUSH1 0x44 DUP3 ADD MSTORE PUSH1 0x64 ADD PUSH2 0x4D0 JUMP JUMPDEST PUSH2 0x5BB PUSH1 0x3 DUP3 PUSH2 0xFFC JUMP JUMPDEST ISZERO PUSH2 0x614 JUMPI PUSH1 0x40 MLOAD PUSH3 0x461BCD PUSH1 0xE5 SHL DUP2 MSTORE PUSH1 0x20 PUSH1 0x4 DUP3 ADD MSTORE PUSH1 0x24 DUP1 DUP3 ADD MSTORE PUSH32 0x73687574646F776E2074686520706F6F6C206265666F72652072656D6F76696E PUSH1 0x44 DUP3 ADD MSTORE PUSH4 0x19C81A5D PUSH1 0xE2 SHL PUSH1 0x64 DUP3 ADD MSTORE PUSH1 0x84 ADD PUSH2 0x4D0 JUMP JUMPDEST PUSH1 0x40 MLOAD PUSH1 0x1 PUSH1 0x1 PUSH1 0xA0 SHL SUB DUP3 AND SWAP1 PUSH32 0x4106DFDAA577573DB51C0CA93F766DBEDFA0758FAA2E7F5BCDB7C142BE803C3F SWAP1 PUSH1 0x0 SWAP1 LOG2 POP JUMP JUMPDEST PUSH2 0x653 PUSH2 0xF86 JUMP JUMPDEST PUSH1 0x9 DUP1 SLOAD PUSH1 0x1 PUSH1 0x1 PUSH1 0xA0 SHL SUB NOT AND PUSH1 0x1 PUSH1 0x1 PUSH1 0xA0 SHL SUB DUP4 AND SWAP1 DUP2 OR SWAP1 SWAP2 SSTORE PUSH1 0x40 MLOAD SWAP1 DUP2 MSTORE PUSH32 0x804D6412EC50674626ECD09727ED034CED85412D702250057E5A869D9D82392D SWAP1 PUSH1 0x20 ADD PUSH2 0x54E JUMP JUMPDEST PUSH2 0x6A9 PUSH2 0xF86 JUMP JUMPDEST PUSH1 0x8 DUP1 SLOAD PUSH1 0x1 PUSH1 0x1 PUSH1 0xA0 SHL SUB NOT AND PUSH1 0x1 PUSH1 0x1 PUSH1 0xA0 SHL SUB DUP4 AND SWAP1 DUP2 OR SWAP1 SWAP2 SSTORE PUSH1 0x40 MLOAD SWAP1 DUP2 MSTORE PUSH32 0x6536690106168BDF4BA72C128A053D817999B1DB90CAE23F139B293BF862CB75 SWAP1 PUSH1 0x20 ADD PUSH2 0x54E JUMP JUMPDEST PUSH1 0x0 PUSH2 0x704 PUSH1 0x1 DUP4 PUSH2 0xFFC JUMP JUMPDEST SWAP3 SWAP2 POP POP JUMP JUMPDEST PUSH2 0x712 PUSH2 0xF86 JUMP JUMPDEST PUSH2 0x71D PUSH1 0x3 DUP3 PUSH2 0xFE0 JUMP JUMPDEST PUSH2 0x761 JUMPI PUSH1 0x40 MLOAD PUSH3 0x461BCD PUSH1 0xE5 SHL DUP2 MSTORE PUSH1 0x20 PUSH1 0x4 DUP3 ADD MSTORE PUSH1 0x15 PUSH1 0x24 DUP3 ADD MSTORE PUSH21 0x19985A5B1959081D1BC81C995B5BDD99481C1BDBDB PUSH1 0x5A SHL PUSH1 0x44 DUP3 ADD MSTORE PUSH1 0x64 ADD PUSH2 0x4D0 JUMP JUMPDEST DUP1 PUSH1 0x1 PUSH1 0x1 PUSH1 0xA0 SHL SUB AND PUSH4 0xD6038DC6 PUSH1 0x40 MLOAD DUP2 PUSH4 0xFFFFFFFF AND PUSH1 0xE0 SHL DUP2 MSTORE PUSH1 0x4 ADD PUSH1 0x0 PUSH1 0x40 MLOAD DUP1 DUP4 SUB DUP2 PUSH1 0x0 DUP8 DUP1 EXTCODESIZE ISZERO DUP1 ISZERO PUSH2 0x79C JUMPI PUSH1 0x0 DUP1 REVERT JUMPDEST POP GAS CALL ISZERO DUP1 ISZERO PUSH2 0x7B0 JUMPI RETURNDATASIZE PUSH1 0x0 DUP1 RETURNDATACOPY RETURNDATASIZE PUSH1 0x0 REVERT JUMPDEST POP POP POP POP PUSH1 0xA PUSH1 0x0 SWAP1 SLOAD SWAP1 PUSH2 0x100 EXP SWAP1 DIV PUSH1 0x1 PUSH1 0x1 PUSH1 0xA0 SHL SUB AND PUSH1 0x1 PUSH1 0x1 PUSH1 0xA0 SHL SUB AND PUSH4 0x3DC4F7DE PUSH1 0x40 MLOAD DUP2 PUSH4 0xFFFFFFFF AND PUSH1 0xE0 SHL DUP2 MSTORE PUSH1 0x4 ADD PUSH1 0x0 PUSH1 0x40 MLOAD DUP1 DUP4 SUB DUP2 PUSH1 0x0 DUP8 DUP1 EXTCODESIZE ISZERO DUP1 ISZERO PUSH2 0x804 JUMPI PUSH1 0x0 DUP1 REVERT JUMPDEST POP GAS CALL ISZERO DUP1 ISZERO PUSH2 0x818 JUMPI RETURNDATASIZE PUSH1 0x0 DUP1 RETURNDATACOPY RETURNDATASIZE PUSH1 0x0 REVERT JUMPDEST POP POP PUSH1 0x40 MLOAD PUSH1 0x1 PUSH1 0x1 PUSH1 0xA0 SHL SUB DUP5 AND SWAP3 POP PUSH32 0x1B2B64A5D6FF166112CD9F1D7E3A30AD9A1E236C68C0C58C965368F3B56D542C SWAP2 POP PUSH1 0x0 SWAP1 LOG2 POP JUMP JUMPDEST PUSH1 0x60 PUSH2 0x85F PUSH1 0x1 PUSH2 0x101E JUMP JUMPDEST SWAP1 POP SWAP1 JUMP JUMPDEST PUSH2 0x86C PUSH2 0xF86 JUMP JUMPDEST PUSH2 0x876 PUSH1 0x0 PUSH2 0x102B JUMP JUMPDEST JUMP JUMPDEST PUSH1 0x60 PUSH2 0x85F PUSH1 0x3 PUSH2 0x101E JUMP JUMPDEST PUSH2 0x88C PUSH2 0xF86 JUMP JUMPDEST PUSH1 0xA DUP1 SLOAD PUSH1 0x1 PUSH1 0x1 PUSH1 0xA0 SHL SUB NOT AND PUSH1 0x1 PUSH1 0x1 PUSH1 0xA0 SHL SUB DUP4 AND SWAP1 DUP2 OR SWAP1 SWAP2 SSTORE PUSH1 0x40 MLOAD SWAP1 DUP2 MSTORE PUSH32 0x1807368DAB7E70053CC95C16CEE46C8B354CE67FA6610400C469D35B56620140 SWAP1 PUSH1 0x20 ADD PUSH2 0x54E JUMP JUMPDEST PUSH1 0x0 PUSH2 0x704 PUSH1 0x3 DUP4 PUSH2 0xFFC JUMP JUMPDEST PUSH2 0x8EF PUSH2 0xF86 JUMP JUMPDEST PUSH1 0x0 JUMPDEST DUP2 MLOAD DUP2 LT ISZERO PUSH2 0x92F JUMPI PUSH2 0x91D DUP3 DUP3 DUP2 MLOAD DUP2 LT PUSH2 0x910 JUMPI PUSH2 0x910 PUSH2 0x156B JUMP JUMPDEST PUSH1 0x20 MUL PUSH1 0x20 ADD ADD MLOAD PUSH2 0xBEA JUMP JUMPDEST DUP1 PUSH2 0x927 DUP2 PUSH2 0x1597 JUMP JUMPDEST SWAP2 POP POP PUSH2 0x8F2 JUMP JUMPDEST POP POP JUMP JUMPDEST PUSH2 0x93B PUSH2 0xF86 JUMP JUMPDEST PUSH1 0x7 DUP1 SLOAD PUSH1 0x1 PUSH1 0x1 PUSH1 0xA0 SHL SUB NOT AND PUSH1 0x1 PUSH1 0x1 PUSH1 0xA0 SHL SUB DUP4 AND SWAP1 DUP2 OR SWAP1 SWAP2 SSTORE PUSH1 0x40 MLOAD SWAP1 DUP2 MSTORE PUSH32 0x78C0D5A329A7D476B56BC10AD7E2FD11A0433FB6F1FFD12B28B3B3A7CE5CDBA9 SWAP1 PUSH1 0x20 ADD PUSH2 0x54E JUMP JUMPDEST PUSH2 0x991 PUSH2 0xF86 JUMP JUMPDEST PUSH1 0x5 PUSH1 0x0 SWAP1 SLOAD SWAP1 PUSH2 0x100 EXP SWAP1 DIV PUSH1 0x1 PUSH1 0x1 PUSH1 0xA0 SHL SUB AND PUSH1 0x1 PUSH1 0x1 PUSH1 0xA0 SHL SUB AND PUSH4 0xBF86D690 PUSH1 0x40 MLOAD DUP2 PUSH4 0xFFFFFFFF AND PUSH1 0xE0 SHL DUP2 MSTORE PUSH1 0x4 ADD PUSH1 0x20 PUSH1 0x40 MLOAD DUP1 DUP4 SUB DUP2 DUP7 GAS STATICCALL ISZERO DUP1 ISZERO PUSH2 0x9E4 JUMPI RETURNDATASIZE PUSH1 0x0 DUP1 RETURNDATACOPY RETURNDATASIZE PUSH1 0x0 REVERT JUMPDEST POP POP POP POP PUSH1 0x40 MLOAD RETURNDATASIZE PUSH1 0x1F NOT PUSH1 0x1F DUP3 ADD AND DUP3 ADD DUP1 PUSH1 0x40 MSTORE POP DUP2 ADD SWAP1 PUSH2 0xA08 SWAP2 SWAP1 PUSH2 0x15B0 JUMP JUMPDEST PUSH2 0xA54 JUMPI PUSH1 0x40 MLOAD PUSH3 0x461BCD PUSH1 0xE5 SHL DUP2 MSTORE PUSH1 0x20 PUSH1 0x4 DUP3 ADD MSTORE PUSH1 0x1F PUSH1 0x24 DUP3 ADD MSTORE PUSH32 0x63757272656E7420626F6F73746572206973206E6F742073687574646F776E00 PUSH1 0x44 DUP3 ADD MSTORE PUSH1 0x64 ADD PUSH2 0x4D0 JUMP JUMPDEST PUSH1 0x5 DUP1 SLOAD PUSH1 0x1 PUSH1 0x1 PUSH1 0xA0 SHL SUB NOT AND PUSH1 0x1 PUSH1 0x1 PUSH1 0xA0 SHL SUB DUP4 AND SWAP1 DUP2 OR SWAP1 SWAP2 SSTORE PUSH1 0x40 MLOAD SWAP1 DUP2 MSTORE PUSH32 0x753F93638EA37A2DF364592F0884F853232995F9D2834AFFDEB30031AB97B376 SWAP1 PUSH1 0x20 ADD PUSH2 0x54E JUMP JUMPDEST PUSH2 0xAAA PUSH2 0xF86 JUMP JUMPDEST PUSH2 0xAB5 PUSH1 0x1 DUP3 PUSH2 0x107B JUMP JUMPDEST PUSH2 0xAF6 JUMPI PUSH1 0x40 MLOAD PUSH3 0x461BCD PUSH1 0xE5 SHL DUP2 MSTORE PUSH1 0x20 PUSH1 0x4 DUP3 ADD MSTORE PUSH1 0x12 PUSH1 0x24 DUP3 ADD MSTORE PUSH18 0x19985A5B1959081D1BC8185919081C1BDBDB PUSH1 0x72 SHL PUSH1 0x44 DUP3 ADD MSTORE PUSH1 0x64 ADD PUSH2 0x4D0 JUMP JUMPDEST PUSH2 0xB01 PUSH1 0x3 DUP3 PUSH2 0x107B JUMP JUMPDEST PUSH2 0xB42 JUMPI PUSH1 0x40 MLOAD PUSH3 0x461BCD PUSH1 0xE5 SHL DUP2 MSTORE PUSH1 0x20 PUSH1 0x4 DUP3 ADD MSTORE PUSH1 0x12 PUSH1 0x24 DUP3 ADD MSTORE PUSH18 0x19985A5B1959081D1BC8185919081C1BDBDB PUSH1 0x72 SHL PUSH1 0x44 DUP3 ADD MSTORE PUSH1 0x64 ADD PUSH2 0x4D0 JUMP JUMPDEST PUSH1 0xB SLOAD PUSH1 0x40 MLOAD PUSH4 0x54B94C2F PUSH1 0xE1 SHL DUP2 MSTORE PUSH1 0x1 PUSH1 0x1 PUSH1 0xA0 SHL SUB DUP4 DUP2 AND PUSH1 0x4 DUP4 ADD MSTORE SWAP1 SWAP2 AND SWAP1 PUSH4 0xA972985E SWAP1 PUSH1 0x24 ADD PUSH1 0x20 PUSH1 0x40 MLOAD DUP1 DUP4 SUB DUP2 PUSH1 0x0 DUP8 GAS CALL ISZERO DUP1 ISZERO PUSH2 0xB8E JUMPI RETURNDATASIZE PUSH1 0x0 DUP1 RETURNDATACOPY RETURNDATASIZE PUSH1 0x0 REVERT JUMPDEST POP POP POP POP PUSH1 0x40 MLOAD RETURNDATASIZE PUSH1 0x1F NOT PUSH1 0x1F DUP3 ADD AND DUP3 ADD DUP1 PUSH1 0x40 MSTORE POP DUP2 ADD SWAP1 PUSH2 0xBB2 SWAP2 SWAP1 PUSH2 0x15D2 JUMP JUMPDEST POP PUSH1 0x40 MLOAD PUSH1 0x1 PUSH1 0x1 PUSH1 0xA0 SHL SUB DUP3 AND SWAP1 PUSH32 0x73CCA62AB1B520C9715BF4E6C71E3E518C754E7148F65102F43289A7DF0EFEA6 SWAP1 PUSH1 0x0 SWAP1 LOG2 POP JUMP JUMPDEST PUSH2 0xBF2 PUSH2 0xF86 JUMP JUMPDEST PUSH1 0xC SLOAD DUP2 MLOAD PUSH1 0x1 PUSH1 0x1 PUSH1 0xA0 SHL SUB AND PUSH1 0x0 SWAP1 DUP2 MSTORE PUSH1 0xD PUSH1 0x20 MSTORE PUSH1 0x40 SWAP1 KECCAK256 SLOAD TIMESTAMP SWAP2 PUSH2 0xC1A SWAP2 PUSH2 0x15EB JUMP JUMPDEST LT PUSH2 0xC67 JUMPI PUSH1 0x40 MLOAD PUSH3 0x461BCD PUSH1 0xE5 SHL DUP2 MSTORE PUSH1 0x20 PUSH1 0x4 DUP3 ADD MSTORE PUSH1 0x1F PUSH1 0x24 DUP3 ADD MSTORE PUSH32 0x776569676874207570646174652064656C6179206E6F7420656C617073656400 PUSH1 0x44 DUP3 ADD MSTORE PUSH1 0x64 ADD PUSH2 0x4D0 JUMP JUMPDEST DUP1 MLOAD PUSH1 0x20 DUP3 ADD MLOAD PUSH1 0x40 MLOAD PUSH4 0x8DBFB25B PUSH1 0xE0 SHL DUP2 MSTORE PUSH1 0x1 PUSH1 0x1 PUSH1 0xA0 SHL SUB SWAP1 SWAP3 AND SWAP2 PUSH4 0x8DBFB25B SWAP2 PUSH2 0xC99 SWAP2 PUSH1 0x4 ADD PUSH2 0x15FE JUMP JUMPDEST PUSH1 0x0 PUSH1 0x40 MLOAD DUP1 DUP4 SUB DUP2 PUSH1 0x0 DUP8 DUP1 EXTCODESIZE ISZERO DUP1 ISZERO PUSH2 0xCB3 JUMPI PUSH1 0x0 DUP1 REVERT JUMPDEST POP GAS CALL ISZERO DUP1 ISZERO PUSH2 0xCC7 JUMPI RETURNDATASIZE PUSH1 0x0 DUP1 RETURNDATACOPY RETURNDATASIZE PUSH1 0x0 REVERT JUMPDEST POP POP SWAP2 MLOAD PUSH1 0x1 PUSH1 0x1 PUSH1 0xA0 SHL SUB AND PUSH1 0x0 SWAP1 DUP2 MSTORE PUSH1 0xD PUSH1 0x20 MSTORE PUSH1 0x40 SWAP1 KECCAK256 TIMESTAMP SWAP1 SSTORE POP POP JUMP JUMPDEST PUSH1 0xB SLOAD PUSH1 0x1 PUSH1 0x1 PUSH1 0xA0 SHL SUB AND PUSH2 0xD07 PUSH1 0x0 SLOAD PUSH1 0x1 PUSH1 0x1 PUSH1 0xA0 SHL SUB AND SWAP1 JUMP JUMPDEST PUSH1 0x1 PUSH1 0x1 PUSH1 0xA0 SHL SUB AND CALLER SUB PUSH2 0xD72 JUMPI PUSH1 0x1 PUSH1 0x1 PUSH1 0xA0 SHL SUB DUP2 AND ISZERO PUSH2 0xD6D JUMPI PUSH1 0x40 MLOAD PUSH3 0x461BCD PUSH1 0xE5 SHL DUP2 MSTORE PUSH1 0x20 PUSH1 0x4 DUP3 ADD MSTORE PUSH1 0x19 PUSH1 0x24 DUP3 ADD MSTORE PUSH32 0x6C70546F6B656E5374616B657220616C72656164792073657400000000000000 PUSH1 0x44 DUP3 ADD MSTORE PUSH1 0x64 ADD PUSH2 0x4D0 JUMP JUMPDEST PUSH2 0xDEA JUMP JUMPDEST CALLER PUSH1 0x1 PUSH1 0x1 PUSH1 0xA0 SHL SUB PUSH32 0x0 AND EQ PUSH2 0xDEA JUMPI PUSH1 0x40 MLOAD PUSH3 0x461BCD PUSH1 0xE5 SHL DUP2 MSTORE PUSH1 0x20 PUSH1 0x4 DUP3 ADD MSTORE PUSH1 0x1D PUSH1 0x24 DUP3 ADD MSTORE PUSH32 0x6F6E6C79206F776E6572206F7220656D657267656E63794D696E746572000000 PUSH1 0x44 DUP3 ADD MSTORE PUSH1 0x64 ADD PUSH2 0x4D0 JUMP JUMPDEST PUSH1 0xB DUP1 SLOAD PUSH1 0x1 PUSH1 0x1 PUSH1 0xA0 SHL SUB NOT AND PUSH1 0x1 PUSH1 0x1 PUSH1 0xA0 SHL SUB DUP5 AND OR SWAP1 SSTORE PUSH1 0x0 JUMPDEST PUSH2 0xE12 PUSH1 0x1 PUSH2 0x1090 JUMP JUMPDEST DUP2 LT ISZERO PUSH2 0xEB2 JUMPI PUSH1 0xB SLOAD PUSH1 0x1 PUSH1 0x1 PUSH1 0xA0 SHL SUB AND PUSH4 0xA972985E PUSH2 0xE35 PUSH1 0x1 DUP5 PUSH2 0x109A JUMP JUMPDEST PUSH1 0x40 MLOAD PUSH1 0x1 PUSH1 0x1 PUSH1 0xE0 SHL SUB NOT PUSH1 0xE0 DUP5 SWAP1 SHL AND DUP2 MSTORE PUSH1 0x1 PUSH1 0x1 PUSH1 0xA0 SHL SUB SWAP1 SWAP2 AND PUSH1 0x4 DUP3 ADD MSTORE PUSH1 0x24 ADD PUSH1 0x20 PUSH1 0x40 MLOAD DUP1 DUP4 SUB DUP2 PUSH1 0x0 DUP8 GAS CALL ISZERO DUP1 ISZERO PUSH2 0xE7B JUMPI RETURNDATASIZE PUSH1 0x0 DUP1 RETURNDATACOPY RETURNDATASIZE PUSH1 0x0 REVERT JUMPDEST POP POP POP POP PUSH1 0x40 MLOAD RETURNDATASIZE PUSH1 0x1F NOT PUSH1 0x1F DUP3 ADD AND DUP3 ADD DUP1 PUSH1 0x40 MSTORE POP DUP2 ADD SWAP1 PUSH2 0xE9F SWAP2 SWAP1 PUSH2 0x15D2 JUMP JUMPDEST POP DUP1 PUSH2 0xEAA DUP2 PUSH2 0x1597 JUMP JUMPDEST SWAP2 POP POP PUSH2 0xE08 JUMP JUMPDEST POP POP POP JUMP JUMPDEST PUSH2 0xEBF PUSH2 0xF86 JUMP JUMPDEST PUSH1 0x1 PUSH1 0x1 PUSH1 0xA0 SHL SUB DUP2 AND PUSH2 0xF24 JUMPI PUSH1 0x40 MLOAD PUSH3 0x461BCD PUSH1 0xE5 SHL DUP2 MSTORE PUSH1 0x20 PUSH1 0x4 DUP3 ADD MSTORE PUSH1 0x26 PUSH1 0x24 DUP3 ADD MSTORE PUSH32 0x4F776E61626C653A206E6577206F776E657220697320746865207A65726F2061 PUSH1 0x44 DUP3 ADD MSTORE PUSH6 0x646472657373 PUSH1 0xD0 SHL PUSH1 0x64 DUP3 ADD MSTORE PUSH1 0x84 ADD PUSH2 0x4D0 JUMP JUMPDEST PUSH2 0xF2D DUP2 PUSH2 0x102B JUMP JUMPDEST POP JUMP JUMPDEST PUSH2 0xF38 PUSH2 0xF86 JUMP JUMPDEST PUSH1 0x6 DUP1 SLOAD PUSH1 0x1 PUSH1 0x1 PUSH1 0xA0 SHL SUB NOT AND PUSH1 0x1 PUSH1 0x1 PUSH1 0xA0 SHL SUB DUP4 AND SWAP1 DUP2 OR SWAP1 SWAP2 SSTORE PUSH1 0x40 MLOAD SWAP1 DUP2 MSTORE PUSH32 0x40F17CC99608ACC0AA583A98BD741564E79111D55E65ADC0399F400A707D4831 SWAP1 PUSH1 0x20 ADD PUSH2 0x54E JUMP JUMPDEST PUSH1 0x0 SLOAD PUSH1 0x1 PUSH1 0x1 PUSH1 0xA0 SHL SUB AND CALLER EQ PUSH2 0x876 JUMPI PUSH1 0x40 MLOAD PUSH3 0x461BCD PUSH1 0xE5 SHL DUP2 MSTORE PUSH1 0x20 PUSH1 0x4 DUP3 ADD DUP2 SWAP1 MSTORE PUSH1 0x24 DUP3 ADD MSTORE PUSH32 0x4F776E61626C653A2063616C6C6572206973206E6F7420746865206F776E6572 PUSH1 0x44 DUP3 ADD MSTORE PUSH1 0x64 ADD PUSH2 0x4D0 JUMP JUMPDEST PUSH1 0x0 PUSH2 0xFF5 DUP4 PUSH1 0x1 PUSH1 0x1 PUSH1 0xA0 SHL SUB DUP5 AND PUSH2 0x10A6 JUMP JUMPDEST SWAP4 SWAP3 POP POP POP JUMP JUMPDEST PUSH1 0x1 PUSH1 0x1 PUSH1 0xA0 SHL SUB DUP2 AND PUSH1 0x0 SWAP1 DUP2 MSTORE PUSH1 0x1 DUP4 ADD PUSH1 0x20 MSTORE PUSH1 0x40 DUP2 KECCAK256 SLOAD ISZERO ISZERO PUSH2 0xFF5 JUMP JUMPDEST PUSH1 0x60 PUSH1 0x0 PUSH2 0xFF5 DUP4 PUSH2 0x1199 JUMP JUMPDEST PUSH1 0x0 DUP1 SLOAD PUSH1 0x1 PUSH1 0x1 PUSH1 0xA0 SHL SUB DUP4 DUP2 AND PUSH1 0x1 PUSH1 0x1 PUSH1 0xA0 SHL SUB NOT DUP4 AND DUP2 OR DUP5 SSTORE PUSH1 0x40 MLOAD SWAP2 SWAP1 SWAP3 AND SWAP3 DUP4 SWAP2 PUSH32 0x8BE0079C531659141344CD1FD0A4F28419497F9722A3DAAFE3B4186F6B6457E0 SWAP2 SWAP1 LOG3 POP POP JUMP JUMPDEST PUSH1 0x0 PUSH2 0xFF5 DUP4 PUSH1 0x1 PUSH1 0x1 PUSH1 0xA0 SHL SUB DUP5 AND PUSH2 0x11F5 JUMP JUMPDEST PUSH1 0x0 PUSH2 0x704 DUP3 SLOAD SWAP1 JUMP JUMPDEST PUSH1 0x0 PUSH2 0xFF5 DUP4 DUP4 PUSH2 0x1244 JUMP JUMPDEST PUSH1 0x0 DUP2 DUP2 MSTORE PUSH1 0x1 DUP4 ADD PUSH1 0x20 MSTORE PUSH1 0x40 DUP2 KECCAK256 SLOAD DUP1 ISZERO PUSH2 0x118F JUMPI PUSH1 0x0 PUSH2 0x10CA PUSH1 0x1 DUP4 PUSH2 0x1656 JUMP JUMPDEST DUP6 SLOAD SWAP1 SWAP2 POP PUSH1 0x0 SWAP1 PUSH2 0x10DE SWAP1 PUSH1 0x1 SWAP1 PUSH2 0x1656 JUMP JUMPDEST SWAP1 POP DUP2 DUP2 EQ PUSH2 0x1143 JUMPI PUSH1 0x0 DUP7 PUSH1 0x0 ADD DUP3 DUP2 SLOAD DUP2 LT PUSH2 0x10FE JUMPI PUSH2 0x10FE PUSH2 0x156B JUMP JUMPDEST SWAP1 PUSH1 0x0 MSTORE PUSH1 0x20 PUSH1 0x0 KECCAK256 ADD SLOAD SWAP1 POP DUP1 DUP8 PUSH1 0x0 ADD DUP5 DUP2 SLOAD DUP2 LT PUSH2 0x1121 JUMPI PUSH2 0x1121 PUSH2 0x156B JUMP JUMPDEST PUSH1 0x0 SWAP2 DUP3 MSTORE PUSH1 0x20 DUP1 DUP4 KECCAK256 SWAP1 SWAP2 ADD SWAP3 SWAP1 SWAP3 SSTORE SWAP2 DUP3 MSTORE PUSH1 0x1 DUP9 ADD SWAP1 MSTORE PUSH1 0x40 SWAP1 KECCAK256 DUP4 SWAP1 SSTORE JUMPDEST DUP6 SLOAD DUP7 SWAP1 DUP1 PUSH2 0x1154 JUMPI PUSH2 0x1154 PUSH2 0x1669 JUMP JUMPDEST PUSH1 0x1 SWAP1 SUB DUP2 DUP2 SWAP1 PUSH1 0x0 MSTORE PUSH1 0x20 PUSH1 0x0 KECCAK256 ADD PUSH1 0x0 SWAP1 SSTORE SWAP1 SSTORE DUP6 PUSH1 0x1 ADD PUSH1 0x0 DUP7 DUP2 MSTORE PUSH1 0x20 ADD SWAP1 DUP2 MSTORE PUSH1 0x20 ADD PUSH1 0x0 KECCAK256 PUSH1 0x0 SWAP1 SSTORE PUSH1 0x1 SWAP4 POP POP POP POP PUSH2 0x704 JUMP JUMPDEST PUSH1 0x0 SWAP2 POP POP PUSH2 0x704 JUMP JUMPDEST PUSH1 0x60 DUP2 PUSH1 0x0 ADD DUP1 SLOAD DUP1 PUSH1 0x20 MUL PUSH1 0x20 ADD PUSH1 0x40 MLOAD SWAP1 DUP2 ADD PUSH1 0x40 MSTORE DUP1 SWAP3 SWAP2 SWAP1 DUP2 DUP2 MSTORE PUSH1 0x20 ADD DUP3 DUP1 SLOAD DUP1 ISZERO PUSH2 0x11E9 JUMPI PUSH1 0x20 MUL DUP3 ADD SWAP2 SWAP1 PUSH1 0x0 MSTORE PUSH1 0x20 PUSH1 0x0 KECCAK256 SWAP1 JUMPDEST DUP2 SLOAD DUP2 MSTORE PUSH1 0x20 ADD SWAP1 PUSH1 0x1 ADD SWAP1 DUP1 DUP4 GT PUSH2 0x11D5 JUMPI JUMPDEST POP POP POP POP POP SWAP1 POP SWAP2 SWAP1 POP JUMP JUMPDEST PUSH1 0x0 DUP2 DUP2 MSTORE PUSH1 0x1 DUP4 ADD PUSH1 0x20 MSTORE PUSH1 0x40 DUP2 KECCAK256 SLOAD PUSH2 0x123C JUMPI POP DUP2 SLOAD PUSH1 0x1 DUP2 DUP2 ADD DUP5 SSTORE PUSH1 0x0 DUP5 DUP2 MSTORE PUSH1 0x20 DUP1 DUP3 KECCAK256 SWAP1 SWAP4 ADD DUP5 SWAP1 SSTORE DUP5 SLOAD DUP5 DUP3 MSTORE DUP3 DUP7 ADD SWAP1 SWAP4 MSTORE PUSH1 0x40 SWAP1 KECCAK256 SWAP2 SWAP1 SWAP2 SSTORE PUSH2 0x704 JUMP JUMPDEST POP PUSH1 0x0 PUSH2 0x704 JUMP JUMPDEST PUSH1 0x0 DUP3 PUSH1 0x0 ADD DUP3 DUP2 SLOAD DUP2 LT PUSH2 0x125B JUMPI PUSH2 0x125B PUSH2 0x156B JUMP JUMPDEST SWAP1 PUSH1 0x0 MSTORE PUSH1 0x20 PUSH1 0x0 KECCAK256 ADD SLOAD SWAP1 POP SWAP3 SWAP2 POP POP JUMP JUMPDEST DUP1 CALLDATALOAD PUSH1 0x1 PUSH1 0x1 PUSH1 0xA0 SHL SUB DUP2 AND DUP2 EQ PUSH2 0x1285 JUMPI PUSH1 0x0 DUP1 REVERT JUMPDEST SWAP2 SWAP1 POP JUMP JUMPDEST PUSH1 0x0 PUSH1 0x20 DUP3 DUP5 SUB SLT ISZERO PUSH2 0x129C JUMPI PUSH1 0x0 DUP1 REVERT JUMPDEST PUSH2 0xFF5 DUP3 PUSH2 0x126E JUMP JUMPDEST PUSH1 0x0 PUSH1 0x20 DUP3 DUP5 SUB SLT ISZERO PUSH2 0x12B7 JUMPI PUSH1 0x0 DUP1 REVERT JUMPDEST POP CALLDATALOAD SWAP2 SWAP1 POP JUMP JUMPDEST PUSH1 0x20 DUP1 DUP3 MSTORE DUP3 MLOAD DUP3 DUP3 ADD DUP2 SWAP1 MSTORE PUSH1 0x0 SWAP2 SWAP1 DUP5 DUP3 ADD SWAP1 PUSH1 0x40 DUP6 ADD SWAP1 DUP5 JUMPDEST DUP2 DUP2 LT ISZERO PUSH2 0x12FF JUMPI DUP4 MLOAD PUSH1 0x1 PUSH1 0x1 PUSH1 0xA0 SHL SUB AND DUP4 MSTORE SWAP3 DUP5 ADD SWAP3 SWAP2 DUP5 ADD SWAP2 PUSH1 0x1 ADD PUSH2 0x12DA JUMP JUMPDEST POP SWAP1 SWAP7 SWAP6 POP POP POP POP POP POP JUMP JUMPDEST PUSH4 0x4E487B71 PUSH1 0xE0 SHL PUSH1 0x0 MSTORE PUSH1 0x41 PUSH1 0x4 MSTORE PUSH1 0x24 PUSH1 0x0 REVERT JUMPDEST PUSH1 0x40 DUP1 MLOAD SWAP1 DUP2 ADD PUSH8 0xFFFFFFFFFFFFFFFF DUP2 GT DUP3 DUP3 LT OR ISZERO PUSH2 0x1344 JUMPI PUSH2 0x1344 PUSH2 0x130B JUMP JUMPDEST PUSH1 0x40 MSTORE SWAP1 JUMP JUMPDEST PUSH1 0x40 MLOAD PUSH1 0x1F DUP3 ADD PUSH1 0x1F NOT AND DUP2 ADD PUSH8 0xFFFFFFFFFFFFFFFF DUP2 GT DUP3 DUP3 LT OR ISZERO PUSH2 0x1373 JUMPI PUSH2 0x1373 PUSH2 0x130B JUMP JUMPDEST PUSH1 0x40 MSTORE SWAP2 SWAP1 POP JUMP JUMPDEST PUSH1 0x0 PUSH8 0xFFFFFFFFFFFFFFFF DUP3 GT ISZERO PUSH2 0x1395 JUMPI PUSH2 0x1395 PUSH2 0x130B JUMP JUMPDEST POP PUSH1 0x5 SHL PUSH1 0x20 ADD SWAP1 JUMP JUMPDEST PUSH1 0x0 PUSH1 0x40 DUP1 DUP4 DUP6 SUB SLT ISZERO PUSH2 0x13B2 JUMPI PUSH1 0x0 DUP1 REVERT JUMPDEST PUSH2 0x13BA PUSH2 0x1321 JUMP JUMPDEST SWAP2 POP PUSH2 0x13C5 DUP4 PUSH2 0x126E JUMP JUMPDEST DUP3 MSTORE PUSH1 0x20 DUP1 DUP5 ADD CALLDATALOAD PUSH8 0xFFFFFFFFFFFFFFFF DUP2 GT ISZERO PUSH2 0x13E2 JUMPI PUSH1 0x0 DUP1 REVERT JUMPDEST DUP5 ADD PUSH1 0x1F DUP2 ADD DUP7 SGT PUSH2 0x13F3 JUMPI PUSH1 0x0 DUP1 REVERT JUMPDEST DUP1 CALLDATALOAD PUSH2 0x1406 PUSH2 0x1401 DUP3 PUSH2 0x137B JUMP JUMPDEST PUSH2 0x134A JUMP JUMPDEST DUP2 DUP2 MSTORE PUSH1 0x6 SWAP2 SWAP1 SWAP2 SHL DUP3 ADD DUP4 ADD SWAP1 DUP4 DUP2 ADD SWAP1 DUP9 DUP4 GT ISZERO PUSH2 0x1425 JUMPI PUSH1 0x0 DUP1 REVERT JUMPDEST SWAP3 DUP5 ADD SWAP3 JUMPDEST DUP3 DUP5 LT ISZERO PUSH2 0x146C JUMPI DUP6 DUP5 DUP11 SUB SLT ISZERO PUSH2 0x1442 JUMPI PUSH1 0x0 DUP1 DUP2 REVERT JUMPDEST PUSH2 0x144A PUSH2 0x1321 JUMP JUMPDEST PUSH2 0x1453 DUP6 PUSH2 0x126E JUMP JUMPDEST DUP2 MSTORE DUP5 DUP7 ADD CALLDATALOAD DUP7 DUP3 ADD MSTORE DUP3 MSTORE SWAP3 DUP6 ADD SWAP3 SWAP1 DUP5 ADD SWAP1 PUSH2 0x142A JUMP JUMPDEST DUP1 DUP6 DUP9 ADD MSTORE POP POP POP POP POP POP SWAP3 SWAP2 POP POP JUMP JUMPDEST PUSH1 0x0 PUSH1 0x20 DUP1 DUP4 DUP6 SUB SLT ISZERO PUSH2 0x1490 JUMPI PUSH1 0x0 DUP1 REVERT JUMPDEST DUP3 CALLDATALOAD PUSH8 0xFFFFFFFFFFFFFFFF DUP1 DUP3 GT ISZERO PUSH2 0x14A8 JUMPI PUSH1 0x0 DUP1 REVERT JUMPDEST DUP2 DUP6 ADD SWAP2 POP DUP6 PUSH1 0x1F DUP4 ADD SLT PUSH2 0x14BC JUMPI PUSH1 0x0 DUP1 REVERT JUMPDEST DUP2 CALLDATALOAD PUSH2 0x14CA PUSH2 0x1401 DUP3 PUSH2 0x137B JUMP JUMPDEST DUP2 DUP2 MSTORE PUSH1 0x5 SWAP2 SWAP1 SWAP2 SHL DUP4 ADD DUP5 ADD SWAP1 DUP5 DUP2 ADD SWAP1 DUP9 DUP4 GT ISZERO PUSH2 0x14E9 JUMPI PUSH1 0x0 DUP1 REVERT JUMPDEST DUP6 DUP6 ADD JUMPDEST DUP4 DUP2 LT ISZERO PUSH2 0x1521 JUMPI DUP1 CALLDATALOAD DUP6 DUP2 GT ISZERO PUSH2 0x1505 JUMPI PUSH1 0x0 DUP1 DUP2 REVERT JUMPDEST PUSH2 0x1513 DUP12 DUP10 DUP4 DUP11 ADD ADD PUSH2 0x139F JUMP JUMPDEST DUP5 MSTORE POP SWAP2 DUP7 ADD SWAP2 DUP7 ADD PUSH2 0x14ED JUMP JUMPDEST POP SWAP9 SWAP8 POP POP POP POP POP POP POP POP JUMP JUMPDEST PUSH1 0x0 PUSH1 0x20 DUP3 DUP5 SUB SLT ISZERO PUSH2 0x1540 JUMPI PUSH1 0x0 DUP1 REVERT JUMPDEST DUP2 CALLDATALOAD PUSH8 0xFFFFFFFFFFFFFFFF DUP2 GT ISZERO PUSH2 0x1557 JUMPI PUSH1 0x0 DUP1 REVERT JUMPDEST PUSH2 0x1563 DUP5 DUP3 DUP6 ADD PUSH2 0x139F JUMP JUMPDEST SWAP5 SWAP4 POP POP POP POP JUMP JUMPDEST PUSH4 0x4E487B71 PUSH1 0xE0 SHL PUSH1 0x0 MSTORE PUSH1 0x32 PUSH1 0x4 MSTORE PUSH1 0x24 PUSH1 0x0 REVERT JUMPDEST PUSH4 0x4E487B71 PUSH1 0xE0 SHL PUSH1 0x0 MSTORE PUSH1 0x11 PUSH1 0x4 MSTORE PUSH1 0x24 PUSH1 0x0 REVERT JUMPDEST PUSH1 0x0 PUSH1 0x1 DUP3 ADD PUSH2 0x15A9 JUMPI PUSH2 0x15A9 PUSH2 0x1581 JUMP JUMPDEST POP PUSH1 0x1 ADD SWAP1 JUMP JUMPDEST PUSH1 0x0 PUSH1 0x20 DUP3 DUP5 SUB SLT ISZERO PUSH2 0x15C2 JUMPI PUSH1 0x0 DUP1 REVERT JUMPDEST DUP2 MLOAD DUP1 ISZERO ISZERO DUP2 EQ PUSH2 0xFF5 JUMPI PUSH1 0x0 DUP1 REVERT JUMPDEST PUSH1 0x0 PUSH1 0x20 DUP3 DUP5 SUB SLT ISZERO PUSH2 0x15E4 JUMPI PUSH1 0x0 DUP1 REVERT JUMPDEST POP MLOAD SWAP2 SWAP1 POP JUMP JUMPDEST DUP1 DUP3 ADD DUP1 DUP3 GT ISZERO PUSH2 0x704 JUMPI PUSH2 0x704 PUSH2 0x1581 JUMP JUMPDEST PUSH1 0x20 DUP1 DUP3 MSTORE DUP3 MLOAD DUP3 DUP3 ADD DUP2 SWAP1 MSTORE PUSH1 0x0 SWAP2 SWAP1 PUSH1 0x40 SWAP1 DUP2 DUP6 ADD SWAP1 DUP7 DUP5 ADD DUP6 JUMPDEST DUP3 DUP2 LT ISZERO PUSH2 0x1649 JUMPI DUP2 MLOAD DUP1 MLOAD PUSH1 0x1 PUSH1 0x1 PUSH1 0xA0 SHL SUB AND DUP6 MSTORE DUP7 ADD MLOAD DUP7 DUP6 ADD MSTORE SWAP3 DUP5 ADD SWAP3 SWAP1 DUP6 ADD SWAP1 PUSH1 0x1 ADD PUSH2 0x161B JUMP JUMPDEST POP SWAP2 SWAP8 SWAP7 POP POP POP POP POP POP POP JUMP JUMPDEST DUP2 DUP2 SUB DUP2 DUP2 GT ISZERO PUSH2 0x704 JUMPI PUSH2 0x704 PUSH2 0x1581 JUMP JUMPDEST PUSH4 0x4E487B71 PUSH1 0xE0 SHL PUSH1 0x0 MSTORE PUSH1 0x31 PUSH1 0x4 MSTORE PUSH1 0x24 PUSH1 0x0 REVERT INVALID LOG2 PUSH5 0x6970667358 0x22 SLT KECCAK256 0xD3 DELEGATECALL MOD 0xDD DUP12 LOG4 PUSH15 0x23C40EC4A2ED7DFE66E7DBB345731B PUSH24 0x6B7E7FAAAA95061B864736F6C6343000811003300000000 ","sha1":"d49d269ee8d9380f306ddbff8e7daf24371d429c","source":"// SPDX-License-Identifier: GPL-3.0-or-later\npragma solidity 0.8.17;\n\nimport \"@openzeppelin/contracts/utils/structs/EnumerableSet.sol\";\nimport \"@openzeppelin/contracts/access/Ownable.sol\";\n\nimport \"./tokenomics/EmergencyMinter.sol\";\nimport \"../interfaces/IController.sol\";\nimport \"../interfaces/tokenomics/ILpTokenStaker.sol\";\nimport \"../interfaces/vendor/IBooster.sol\";\n\ncontract Controller is IController, Ownable {\n    using EnumerableSet for EnumerableSet.AddressSet;\n\n    uint256 internal constant _MAX_WEIGHT_UPDATE_MIN_DELAY = 32 days;\n    uint256 internal constant _MIN_WEIGHT_UPDATE_MIN_DELAY = 1 days;\n\n    EnumerableSet.AddressSet internal _pools;\n    EnumerableSet.AddressSet internal _activePools;\n\n    address public immutable emergencyMinter;\n    address public immutable cncToken;\n\n    address public override convexBooster = address(0xF403C135812408BFbE8713b5A23a04b3D48AAE31);\n    address public override curveHandler;\n    address public override convexHandler;\n    IOracle public override priceOracle;\n    ICurveRegistryCache public override curveRegistryCache;\n\n    IInflationManager public override inflationManager;\n    ILpTokenStaker public override lpTokenStaker;\n\n    uint256 public weightUpdateMinDelay;\n\n    mapping(address => uint256) public lastWeightUpdate;\n\n    constructor(address cncToken_, address curveRegistryCacheAddress_) {\n        cncToken = cncToken_;\n        curveRegistryCache = ICurveRegistryCache(curveRegistryCacheAddress_);\n\n        EmergencyMinter emergencyMinter_ = new EmergencyMinter(ICNCToken(cncToken_), this);\n        emergencyMinter_.transferOwnership(msg.sender);\n        emergencyMinter = address(emergencyMinter_);\n    }\n\n    /// @notice this function is only callable by the owner or the emergencyMinter\n    /// the owner is only allowed to call this function to initialize the lpTokenStaker\n    /// the emergencyMinter is allowed to call this function to update the lpTokenStaker while it is active\n    /// the emergencyMinter is only active for 3 months, after which point the LP token staker will\n    /// effectively be immutable\n    function setLpTokenStaker(address _lpTokenStaker) external {\n        address currentTokenStaker = address(lpTokenStaker);\n        if (msg.sender == owner()) {\n            require(currentTokenStaker == address(0), \"lpTokenStaker already set\");\n        } else {\n            // this is to allow the emergencyMinter to set the lpTokenStaker while it is active\n            require(msg.sender == emergencyMinter, \"only owner or emergencyMinter\");\n        }\n        lpTokenStaker = ILpTokenStaker(_lpTokenStaker);\n        for (uint256 i; i < _pools.length(); i++) {\n            lpTokenStaker.checkpoint(_pools.at(i));\n        }\n    }\n\n    function listPools() external view override returns (address[] memory) {\n        return _pools.values();\n    }\n\n    function listActivePools() external view override returns (address[] memory) {\n        return _activePools.values();\n    }\n\n    function addPool(address poolAddress) external override onlyOwner {\n        require(_pools.add(poolAddress), \"failed to add pool\");\n        require(_activePools.add(poolAddress), \"failed to add pool\");\n        lpTokenStaker.checkpoint(poolAddress);\n        emit PoolAdded(poolAddress);\n    }\n\n    function removePool(address poolAddress) external override onlyOwner {\n        require(_pools.remove(poolAddress), \"failed to remove pool\");\n        require(!_activePools.contains(poolAddress), \"shutdown the pool before removing it\");\n        emit PoolRemoved(poolAddress);\n    }\n\n    function shutdownPool(address poolAddress) external override onlyOwner {\n        require(_activePools.remove(poolAddress), \"failed to remove pool\");\n        IConicPool(poolAddress).shutdownPool();\n        inflationManager.updatePoolWeights();\n        emit PoolShutdown(poolAddress);\n    }\n\n    function isPool(address poolAddress) external view override returns (bool) {\n        return _pools.contains(poolAddress);\n    }\n\n    function isActivePool(address poolAddress) external view override returns (bool) {\n        return _activePools.contains(poolAddress);\n    }\n\n    function updateWeights(WeightUpdate memory update) public override onlyOwner {\n        require(\n            lastWeightUpdate[update.conicPoolAddress] + weightUpdateMinDelay < block.timestamp,\n            \"weight update delay not elapsed\"\n        );\n        IConicPool(update.conicPoolAddress).updateWeights(update.weights);\n        lastWeightUpdate[update.conicPoolAddress] = block.timestamp;\n    }\n\n    function updateAllWeights(WeightUpdate[] memory weights) external override onlyOwner {\n        for (uint256 i; i < weights.length; i++) {\n            updateWeights(weights[i]);\n        }\n    }\n\n    function setConvexBooster(address _convexBooster) external override onlyOwner {\n        require(IBooster(convexBooster).isShutdown(), \"current booster is not shutdown\");\n        convexBooster = _convexBooster;\n        emit ConvexBoosterSet(_convexBooster);\n    }\n\n    function setCurveHandler(address _curveHandler) external override onlyOwner {\n        curveHandler = _curveHandler;\n        emit CurveHandlerSet(_curveHandler);\n    }\n\n    function setConvexHandler(address _convexHandler) external override onlyOwner {\n        convexHandler = _convexHandler;\n        emit ConvexHandlerSet(_convexHandler);\n    }\n\n    function setInflationManager(address manager) external onlyOwner {\n        inflationManager = IInflationManager(manager);\n        emit InflationManagerSet(manager);\n    }\n\n    function setPriceOracle(address oracle) external override onlyOwner {\n        priceOracle = IOracle(oracle);\n        emit PriceOracleSet(oracle);\n    }\n\n    function setCurveRegistryCache(address curveRegistryCache_) external override onlyOwner {\n        curveRegistryCache = ICurveRegistryCache(curveRegistryCache_);\n        emit CurveRegistryCacheSet(curveRegistryCache_);\n    }\n\n    function setWeightUpdateMinDelay(uint256 delay) external override onlyOwner {\n        require(delay < _MAX_WEIGHT_UPDATE_MIN_DELAY, \"delay too long\");\n        require(delay > _MIN_WEIGHT_UPDATE_MIN_DELAY, \"delay too short\");\n        weightUpdateMinDelay = delay;\n        emit WeightUpdateMinDelaySet(delay);\n    }\n}\n","sourcePath":"contracts/Controller.sol","type":"contract","deployment":{"address":"0x013A3Da6591d3427F164862793ab4e388F9B587e","chainid":"1","blockHeight":16734345}}