{"abi":[{"inputs":[{"internalType":"address","name":"_controller","type":"address"}],"stateMutability":"nonpayable","type":"constructor","name":"constructor"},{"anonymous":false,"inputs":[{"indexed":true,"internalType":"address","name":"previousOwner","type":"address"},{"indexed":true,"internalType":"address","name":"newOwner","type":"address"}],"name":"OwnershipTransferred","type":"event"},{"anonymous":false,"inputs":[],"name":"PoolWeightsUpdated","type":"event"},{"anonymous":false,"inputs":[{"indexed":true,"internalType":"address","name":"pool","type":"address"},{"indexed":true,"internalType":"address","name":"handler","type":"address"}],"name":"RebalancingRewardHandlerAdded","type":"event"},{"anonymous":false,"inputs":[{"indexed":true,"internalType":"address","name":"pool","type":"address"},{"indexed":true,"internalType":"address","name":"handler","type":"address"}],"name":"RebalancingRewardHandlerRemoved","type":"event"},{"anonymous":false,"inputs":[{"indexed":true,"internalType":"address","name":"pool","type":"address"},{"indexed":false,"internalType":"uint256","name":"cncAmount","type":"uint256"}],"name":"TokensClaimed","type":"event"},{"inputs":[],"name":"CNC","outputs":[{"internalType":"contract ICNCToken","name":"","type":"address"}],"stateMutability":"view","type":"function"},{"inputs":[{"internalType":"address","name":"poolAddress","type":"address"},{"internalType":"address","name":"rebalancingRewardHandler","type":"address"}],"name":"addPoolRebalancingRewardHandler","outputs":[],"stateMutability":"nonpayable","type":"function"},{"inputs":[{"internalType":"address","name":"pool","type":"address"}],"name":"computePoolWeight","outputs":[{"internalType":"uint256","name":"poolWeight","type":"uint256"},{"internalType":"uint256","name":"totalUSDValue","type":"uint256"}],"stateMutability":"view","type":"function"},{"inputs":[],"name":"computePoolWeights","outputs":[{"internalType":"address[]","name":"pools","type":"address[]"},{"internalType":"uint256[]","name":"poolWeights","type":"uint256[]"},{"internalType":"uint256","name":"totalUSDValue","type":"uint256"}],"stateMutability":"view","type":"function"},{"inputs":[],"name":"controller","outputs":[{"internalType":"contract IController","name":"","type":"address"}],"stateMutability":"view","type":"function"},{"inputs":[],"name":"currentInflationRate","outputs":[{"internalType":"uint256","name":"","type":"uint256"}],"stateMutability":"view","type":"function"},{"inputs":[{"internalType":"address","name":"","type":"address"}],"name":"currentPoolWeights","outputs":[{"internalType":"uint256","name":"","type":"uint256"}],"stateMutability":"view","type":"function"},{"inputs":[],"name":"executeInflationRateUpdate","outputs":[],"stateMutability":"nonpayable","type":"function"},{"inputs":[{"internalType":"address","name":"pool","type":"address"}],"name":"getCurrentPoolInflationRate","outputs":[{"internalType":"uint256","name":"","type":"uint256"}],"stateMutability":"view","type":"function"},{"inputs":[{"internalType":"address","name":"account","type":"address"},{"internalType":"uint256","name":"deviationBefore","type":"uint256"},{"internalType":"uint256","name":"deviationAfter","type":"uint256"}],"name":"handleRebalancingRewards","outputs":[],"stateMutability":"nonpayable","type":"function"},{"inputs":[{"internalType":"address","name":"poolAddress","type":"address"},{"internalType":"address","name":"handler","type":"address"}],"name":"hasPoolRebalancingRewardHandler","outputs":[{"internalType":"bool","name":"","type":"bool"}],"stateMutability":"view","type":"function"},{"inputs":[],"name":"lastInflationRateDecay","outputs":[{"internalType":"uint256","name":"","type":"uint256"}],"stateMutability":"view","type":"function"},{"inputs":[],"name":"owner","outputs":[{"internalType":"address","name":"","type":"address"}],"stateMutability":"view","type":"function"},{"inputs":[{"internalType":"address","name":"poolAddress","type":"address"}],"name":"rebalancingRewardHandlers","outputs":[{"internalType":"address[]","name":"","type":"address[]"}],"stateMutability":"view","type":"function"},{"inputs":[{"internalType":"address","name":"poolAddress","type":"address"},{"internalType":"address","name":"rebalancingRewardHandler","type":"address"}],"name":"removePoolRebalancingRewardHandler","outputs":[],"stateMutability":"nonpayable","type":"function"},{"inputs":[],"name":"renounceOwnership","outputs":[],"stateMutability":"nonpayable","type":"function"},{"inputs":[],"name":"totalLpInflationMinted","outputs":[{"internalType":"uint256","name":"","type":"uint256"}],"stateMutability":"view","type":"function"},{"inputs":[{"internalType":"address","name":"newOwner","type":"address"}],"name":"transferOwnership","outputs":[],"stateMutability":"nonpayable","type":"function"},{"inputs":[],"name":"updatePoolWeights","outputs":[],"stateMutability":"nonpayable","type":"function"}],"bytecode":"60a06040523480156200001157600080fd5b506040516200204e3803806200204e83398101604081905262000034916200013d565b6200003f33620000ed565b6001600160a01b038116620000a95760405162461bcd60e51b815260206004820152602660248201527f43616e6e6f7420757365207a65726f206164647265737320666f7220636f6e746044820152653937b63632b960d11b606482015260840160405180910390fd5b6001600160a01b038116608052620000d16301e133806a013da329b63364718000006200016f565b600255620000e362cd5b344262000192565b60035550620001ba565b600080546001600160a01b038381166001600160a01b0319831681178455604051919092169283917f8be0079c531659141344cd1fd0a4f28419497f9722a3daafe3b4186f6b6457e09190a35050565b6000602082840312156200015057600080fd5b81516001600160a01b03811681146200016857600080fd5b9392505050565b6000826200018d57634e487b7160e01b600052601260045260246000fd5b500490565b81810381811115620001b457634e487b7160e01b600052601160045260246000fd5b92915050565b608051611e246200022a600039600081816102b8015281816102fe015281816103af01528181610435015281816104ca015281816107b40152818161087b01528181610a5101528181610d2d01528181610ede01528181610f620152818161103e01526113b30152611e246000f3fe608060405234801561001057600080fd5b50600436106101215760003560e01c80638da5cb5b116100ad578063cd1c374f11610071578063cd1c374f1461027b578063d30113b714610284578063dba8cc351461028d578063f2fde38b146102a0578063f77c4791146102b357600080fd5b80638da5cb5b1461020a578063965125c61461021b578063a53eb52e1461023b578063a563c3d514610252578063ad174d8e1461025b57600080fd5b80634a17ed59116100f45780634a17ed591461019157806356a0d31514610199578063632473da146101ac578063715018a6146101df57806373c96394146101e757600080fd5b8063129e16511461012657806314915ebe146101535780631d43c9d3146101685780633dc4f7de14610189575b600080fd5b610139610134366004611974565b6102da565b604080519283526020830191909152015b60405180910390f35b610166610161366004611991565b610866565b005b61017b610176366004611974565b610a0c565b60405190815260200161014a565b610166610a37565b610166610cfc565b6101666101a73660046119c6565b610d06565b6101c7739ae380f0272e2162340a5bb646c354271c0f5cfc81565b6040516001600160a01b03909116815260200161014a565b610166610e77565b6101fa6101f53660046119c6565b610e89565b604051901515815260200161014a565b6000546001600160a01b03166101c7565b61022e610229366004611974565b610eb2565b60405161014a9190611a43565b610243610ed6565b60405161014a93929190611a56565b61017b60025481565b61017b610269366004611974565b60056020526000908152604090205481565b61017b60045481565b61017b60035481565b61016661029b3660046119c6565b61138c565b6101666102ae366004611974565b611501565b6101c77f000000000000000000000000000000000000000000000000000000000000000081565b604051635b16ebb760e01b81526001600160a01b03828116600483015260009182917f00000000000000000000000000000000000000000000000000000000000000001690635b16ebb790602401602060405180830381865afa158015610345573d6000803e3d6000fd5b505050506040513d601f19601f820116820180604052508101906103699190611ab6565b6103ab5760405162461bcd60e51b815260206004820152600e60248201526d1c1bdbdb081b9bdd08199bdd5b9960921b60448201526064015b60405180910390fd5b60007f00000000000000000000000000000000000000000000000000000000000000006001600160a01b0316632630c12f6040518163ffffffff1660e01b8152600401602060405180830381865afa15801561040b573d6000803e3d6000fd5b505050506040513d601f19601f8201168201806040525081019061042f9190611ad8565b905060007f00000000000000000000000000000000000000000000000000000000000000006001600160a01b031663687958626040518163ffffffff1660e01b8152600401600060405180830381865afa158015610491573d6000803e3d6000fd5b505050506040513d6000823e601f3d908101601f191682016040526104b99190810190611b1b565b90506000805b8251811015610794577f00000000000000000000000000000000000000000000000000000000000000006001600160a01b0316638097354f84838151811061050957610509611be0565b60200260200101516040518263ffffffff1660e01b815260040161053c91906001600160a01b0391909116815260200190565b602060405180830381865afa158015610559573d6000803e3d6000fd5b505050506040513d601f19601f8201168201806040525081019061057d9190611ab6565b1561078257600083828151811061059657610596611be0565b602002602001015190506000816001600160a01b0316636f307dc36040518163ffffffff1660e01b8152600401602060405180830381865afa1580156105e0573d6000803e3d6000fd5b505050506040513d601f19601f820116820180604052508101906106049190611ad8565b604051638b2f0f4f60e01b81526001600160a01b038083166004830152919250600091881690638b2f0f4f90602401602060405180830381865afa158015610650573d6000803e3d6000fd5b505050506040513d601f19601f820116820180604052508101906106749190611bf6565b905060006107528261074c856001600160a01b031663313ce5676040518163ffffffff1660e01b8152600401602060405180830381865afa1580156106bd573d6000803e3d6000fd5b505050506040513d601f19601f820116820180604052508101906106e19190611c0f565b6012886001600160a01b03166324a71a666040518163ffffffff1660e01b8152600401602060405180830381865afa158015610721573d6000803e3d6000fd5b505050506040513d601f19601f820116820180604052508101906107459190611bf6565b919061157a565b906115c3565b905061075e818a611c48565b98508a6001600160a01b0316846001600160a01b03160361077d578095505b505050505b8061078c81611c5b565b9150506104bf565b50604051638097354f60e01b81526001600160a01b0387811660048301527f00000000000000000000000000000000000000000000000000000000000000001690638097354f90602401602060405180830381865afa1580156107fb573d6000803e3d6000fd5b505050506040513d601f19601f8201168201806040525081019061081f9190611ab6565b61082f5760009450505050915091565b83156108445761083f81856115e5565b61085c565b81516108526012600a611d58565b61085c9190611d64565b9450505050915091565b604051635b16ebb760e01b81523360048201527f00000000000000000000000000000000000000000000000000000000000000006001600160a01b031690635b16ebb790602401602060405180830381865afa1580156108ca573d6000803e3d6000fd5b505050506040513d601f19601f820116820180604052508101906108ee9190611ab6565b6109445760405162461bcd60e51b815260206004820152602160248201527f6f6e6c7920706f6f6c732063616e2063616c6c20746869732066756e6374696f6044820152603760f91b60648201526084016103a2565b60005b33600090815260016020526040902061095f906115fe565b811015610a065733600090815260016020526040812061097f9083611608565b60405163f95878f560e01b81523360048201526001600160a01b03878116602483015260448201879052606482018690529192509082169063f95878f590608401600060405180830381600087803b1580156109da57600080fd5b505af11580156109ee573d6000803e3d6000fd5b505050505080806109fe90611c5b565b915050610947565b50505050565b6001600160a01b038116600090815260056020526040812054600254610a31916115c3565b92915050565b600080610a42610ed6565b509150915060008251905060007f00000000000000000000000000000000000000000000000000000000000000006001600160a01b03166348439e7e6040518163ffffffff1660e01b8152600401602060405180830381865afa158015610aad573d6000803e3d6000fd5b505050506040513d601f19601f82011682018060405250810190610ad19190611ad8565b905060005b82811015610ccc576000858281518110610af257610af2611be0565b60200260200101519050806001600160a01b031663904c9bf06040518163ffffffff1660e01b8152600401600060405180830381600087803b158015610b3757600080fd5b505af1158015610b4b573d6000803e3d6000fd5b50505050806001600160a01b0316630f4ef8a66040518163ffffffff1660e01b8152600401602060405180830381865afa158015610b8d573d6000803e3d6000fd5b505050506040513d601f19601f82011682018060405250810190610bb19190611ad8565b6001600160a01b0316635790a0c86040518163ffffffff1660e01b81526004016020604051808303816000875af1158015610bf0573d6000803e3d6000fd5b505050506040513d601f19601f82011682018060405250810190610c149190611ab6565b506040516354b94c2f60e11b81526001600160a01b03828116600483015284169063a972985e906024016020604051808303816000875af1158015610c5d573d6000803e3d6000fd5b505050506040513d601f19601f82011682018060405250810190610c819190611bf6565b50848281518110610c9457610c94611be0565b6020908102919091018101516001600160a01b0390921660009081526005909152604090205580610cc481611c5b565b915050610ad6565b506040517ffb56001529302f12afdfa225ba5ad5da2d7d51b21709e2a2a8821f42b0e2cb5690600090a150505050565b610d04611614565b565b610d0e611652565b604051635b16ebb760e01b81526001600160a01b0383811660048301527f00000000000000000000000000000000000000000000000000000000000000001690635b16ebb790602401602060405180830381865afa158015610d74573d6000803e3d6000fd5b505050506040513d601f19601f82011682018060405250810190610d989190611ab6565b610dd35760405162461bcd60e51b815260206004820152600c60248201526b1a5b9d985b1a59081c1bdbdb60a21b60448201526064016103a2565b6001600160a01b0382166000908152600160205260409020610df590826116ac565b610e335760405162461bcd60e51b815260206004820152600f60248201526e1a185b991b195c881b9bdd081cd95d608a1b60448201526064016103a2565b806001600160a01b0316826001600160a01b03167f388f4b3ec4b4c3329f2ec4ad5434090b54fdef42e3efa2bb40e82136640abc3160405160405180910390a35050565b610e7f611652565b610d0460006116c1565b6001600160a01b0382166000908152600160205260408120610eab9083611711565b9392505050565b6001600160a01b0381166000908152600160205260409020606090610a3190611733565b6060806000807f00000000000000000000000000000000000000000000000000000000000000006001600160a01b0316632630c12f6040518163ffffffff1660e01b8152600401602060405180830381865afa158015610f3a573d6000803e3d6000fd5b505050506040513d601f19601f82011682018060405250810190610f5e9190611ad8565b90507f00000000000000000000000000000000000000000000000000000000000000006001600160a01b031663687958626040518163ffffffff1660e01b8152600401600060405180830381865afa158015610fbe573d6000803e3d6000fd5b505050506040513d6000823e601f3d908101601f19168201604052610fe69190810190611b1b565b93506000845167ffffffffffffffff81111561100457611004611af5565b60405190808252806020026020018201604052801561102d578160200160208202803683370190505b50905060005b8551811015611274577f00000000000000000000000000000000000000000000000000000000000000006001600160a01b0316638097354f87838151811061107d5761107d611be0565b60200260200101516040518263ffffffff1660e01b81526004016110b091906001600160a01b0391909116815260200190565b602060405180830381865afa1580156110cd573d6000803e3d6000fd5b505050506040513d601f19601f820116820180604052508101906110f19190611ab6565b1561126257600086828151811061110a5761110a611be0565b602002602001015190506000816001600160a01b0316636f307dc36040518163ffffffff1660e01b8152600401602060405180830381865afa158015611154573d6000803e3d6000fd5b505050506040513d601f19601f820116820180604052508101906111789190611ad8565b604051638b2f0f4f60e01b81526001600160a01b038083166004830152919250600091871690638b2f0f4f90602401602060405180830381865afa1580156111c4573d6000803e3d6000fd5b505050506040513d601f19601f820116820180604052508101906111e89190611bf6565b905060006112318261074c856001600160a01b031663313ce5676040518163ffffffff1660e01b8152600401602060405180830381865afa1580156106bd573d6000803e3d6000fd5b90508086868151811061124657611246611be0565b602090810291909101015261125b8189611c48565b9750505050505b8061126c81611c5b565b915050611033565b50845167ffffffffffffffff81111561128f5761128f611af5565b6040519080825280602002602001820160405280156112b8578160200160208202803683370190505b5093508260000361131c5760005b85518110156113165785516112dd6012600a611d58565b6112e79190611d64565b8582815181106112f9576112f9611be0565b60209081029190910101528061130e81611c5b565b9150506112c6565b50611385565b60005b8551811015611383576113548483838151811061133e5761133e611be0565b60200260200101516115e590919063ffffffff16565b85828151811061136657611366611be0565b60209081029190910101528061137b81611c5b565b91505061131f565b505b5050909192565b611394611652565b604051635b16ebb760e01b81526001600160a01b0383811660048301527f00000000000000000000000000000000000000000000000000000000000000001690635b16ebb790602401602060405180830381865afa1580156113fa573d6000803e3d6000fd5b505050506040513d601f19601f8201168201806040525081019061141e9190611ab6565b6114595760405162461bcd60e51b815260206004820152600c60248201526b1a5b9d985b1a59081c1bdbdb60a21b60448201526064016103a2565b6001600160a01b038216600090815260016020526040902061147b9082611740565b6114bd5760405162461bcd60e51b81526020600482015260136024820152721a185b991b195c88185b1c9958591e481cd95d606a1b60448201526064016103a2565b806001600160a01b0316826001600160a01b03167fc2892f3aa5a025efdf54a8a5b3ef7397fc15169328547915b9b5825a8c33e05f60405160405180910390a35050565b611509611652565b6001600160a01b03811661156e5760405162461bcd60e51b815260206004820152602660248201527f4f776e61626c653a206e6577206f776e657220697320746865207a65726f206160448201526564647265737360d01b60648201526084016103a2565b611577816116c1565b50565b60008160ff168360ff1603611590575082610eab565b8160ff168360ff1611156115b0576115a9848484611755565b9050610eab565b6115bb848484611776565b949350505050565b60006115d16012600a611d58565b6115db8385611d86565b610eab9190611d64565b6000816115f46012600a611d58565b6115db9085611d86565b6000610a31825490565b6000610eab8383611797565b6301e133806003546116269190611c48565b4210610d0457611634610a37565b6002546116499067058d15ca2db118006115c3565b60025542600355565b6000546001600160a01b03163314610d045760405162461bcd60e51b815260206004820181905260248201527f4f776e61626c653a2063616c6c6572206973206e6f7420746865206f776e657260448201526064016103a2565b6000610eab836001600160a01b0384166117c1565b600080546001600160a01b038381166001600160a01b0319831681178455604051919092169283917f8be0079c531659141344cd1fd0a4f28419497f9722a3daafe3b4186f6b6457e09190a35050565b6001600160a01b03811660009081526001830160205260408120541515610eab565b60606000610eab836118b4565b6000610eab836001600160a01b038416611910565b60006117618284611d9d565b61176c90600a611db6565b6115bb9085611d64565b60006117828383611d9d565b61178d90600a611db6565b6115bb9085611d86565b60008260000182815481106117ae576117ae611be0565b9060005260206000200154905092915050565b600081815260018301602052604081205480156118aa5760006117e5600183611dc5565b85549091506000906117f990600190611dc5565b905081811461185e57600086600001828154811061181957611819611be0565b906000526020600020015490508087600001848154811061183c5761183c611be0565b6000918252602080832090910192909255918252600188019052604090208390555b855486908061186f5761186f611dd8565b600190038181906000526020600020016000905590558560010160008681526020019081526020016000206000905560019350505050610a31565b6000915050610a31565b60608160000180548060200260200160405190810160405280929190818152602001828054801561190457602002820191906000526020600020905b8154815260200190600101908083116118f0575b50505050509050919050565b600081815260018301602052604081205461195757508154600181810184556000848152602080822090930184905584548482528286019093526040902091909155610a31565b506000610a31565b6001600160a01b038116811461157757600080fd5b60006020828403121561198657600080fd5b8135610eab8161195f565b6000806000606084860312156119a657600080fd5b83356119b18161195f565b95602085013595506040909401359392505050565b600080604083850312156119d957600080fd5b82356119e48161195f565b915060208301356119f48161195f565b809150509250929050565b600081518084526020808501945080840160005b83811015611a385781516001600160a01b031687529582019590820190600101611a13565b509495945050505050565b602081526000610eab60208301846119ff565b606081526000611a6960608301866119ff565b82810360208481019190915285518083528682019282019060005b81811015611aa057845183529383019391830191600101611a84565b5050809350505050826040830152949350505050565b600060208284031215611ac857600080fd5b81518015158114610eab57600080fd5b600060208284031215611aea57600080fd5b8151610eab8161195f565b634e487b7160e01b600052604160045260246000fd5b8051611b168161195f565b919050565b60006020808385031215611b2e57600080fd5b825167ffffffffffffffff80821115611b4657600080fd5b818501915085601f830112611b5a57600080fd5b815181811115611b6c57611b6c611af5565b8060051b604051601f19603f83011681018181108582111715611b9157611b91611af5565b604052918252848201925083810185019188831115611baf57600080fd5b938501935b82851015611bd457611bc585611b0b565b84529385019392850192611bb4565b98975050505050505050565b634e487b7160e01b600052603260045260246000fd5b600060208284031215611c0857600080fd5b5051919050565b600060208284031215611c2157600080fd5b815160ff81168114610eab57600080fd5b634e487b7160e01b600052601160045260246000fd5b80820180821115610a3157610a31611c32565b600060018201611c6d57611c6d611c32565b5060010190565b600181815b80851115611caf578160001904821115611c9557611c95611c32565b80851615611ca257918102915b93841c9390800290611c79565b509250929050565b600082611cc657506001610a31565b81611cd357506000610a31565b8160018114611ce95760028114611cf357611d0f565b6001915050610a31565b60ff841115611d0457611d04611c32565b50506001821b610a31565b5060208310610133831016604e8410600b8410161715611d32575081810a610a31565b611d3c8383611c74565b8060001904821115611d5057611d50611c32565b029392505050565b6000610eab8383611cb7565b600082611d8157634e487b7160e01b600052601260045260246000fd5b500490565b8082028115828204841417610a3157610a31611c32565b60ff8281168282160390811115610a3157610a31611c32565b6000610eab60ff841683611cb7565b81810381811115610a3157610a31611c32565b634e487b7160e01b600052603160045260246000fdfea26469706673582212202ca9f00daf1385059e0da345b0a513833dfc3175cf648a4ca5080ac40302222b64736f6c63430008110033","bytecodeSha1":"9ff01e924118c1cec5230c8bb7c3aae5b6915e10","compiler":{"evm_version":"london","optimizer":{"enabled":true,"runs":200},"version":"0.8.17+commit.8df45f5f"},"contractName":"InflationManager","language":"Solidity","natspec":{"kind":"dev","methods":{"computePoolWeight(address)":{"notice":"Same as `computePoolWeights` but only returns the value for a single pool totalUSDValue only accounts for funds in active pools"},"computePoolWeights()":{"notice":"returns the weights of the Conic pools to know how much inflation each of them will receive. totalUSDValue only accounts for funds in active pools"},"getCurrentPoolInflationRate(address)":{"details":"Pool weights will be updated periodically"},"owner()":{"details":"Returns the address of the current owner."},"renounceOwnership()":{"details":"Leaves the contract without owner. It will not be possible to call `onlyOwner` functions. Can only be called by the current owner. NOTE: Renouncing ownership will leave the contract without an owner, thereby disabling any functionality that is only available to the owner."},"transferOwnership(address)":{"details":"Transfers ownership of the contract to a new account (`newOwner`). Can only be called by the current owner."}},"stateVariables":{"_rebalancingRewardHandlers":{"details":"mapping from conic pool to their rebalancing reward handlers"}},"version":1},"opcodes":"PUSH1 0x80 PUSH1 0x40 MSTORE CALLVALUE DUP1 ISZERO PUSH2 0x10 JUMPI PUSH1 0x0 DUP1 REVERT JUMPDEST POP PUSH1 0x4 CALLDATASIZE LT PUSH2 0x121 JUMPI PUSH1 0x0 CALLDATALOAD PUSH1 0xE0 SHR DUP1 PUSH4 0x8DA5CB5B GT PUSH2 0xAD JUMPI DUP1 PUSH4 0xCD1C374F GT PUSH2 0x71 JUMPI DUP1 PUSH4 0xCD1C374F EQ PUSH2 0x27B JUMPI DUP1 PUSH4 0xD30113B7 EQ PUSH2 0x284 JUMPI DUP1 PUSH4 0xDBA8CC35 EQ PUSH2 0x28D JUMPI DUP1 PUSH4 0xF2FDE38B EQ PUSH2 0x2A0 JUMPI DUP1 PUSH4 0xF77C4791 EQ PUSH2 0x2B3 JUMPI PUSH1 0x0 DUP1 REVERT JUMPDEST DUP1 PUSH4 0x8DA5CB5B EQ PUSH2 0x20A JUMPI DUP1 PUSH4 0x965125C6 EQ PUSH2 0x21B JUMPI DUP1 PUSH4 0xA53EB52E EQ PUSH2 0x23B JUMPI DUP1 PUSH4 0xA563C3D5 EQ PUSH2 0x252 JUMPI DUP1 PUSH4 0xAD174D8E EQ PUSH2 0x25B JUMPI PUSH1 0x0 DUP1 REVERT JUMPDEST DUP1 PUSH4 0x4A17ED59 GT PUSH2 0xF4 JUMPI DUP1 PUSH4 0x4A17ED59 EQ PUSH2 0x191 JUMPI DUP1 PUSH4 0x56A0D315 EQ PUSH2 0x199 JUMPI DUP1 PUSH4 0x632473DA EQ PUSH2 0x1AC JUMPI DUP1 PUSH4 0x715018A6 EQ PUSH2 0x1DF JUMPI DUP1 PUSH4 0x73C96394 EQ PUSH2 0x1E7 JUMPI PUSH1 0x0 DUP1 REVERT JUMPDEST DUP1 PUSH4 0x129E1651 EQ PUSH2 0x126 JUMPI DUP1 PUSH4 0x14915EBE EQ PUSH2 0x153 JUMPI DUP1 PUSH4 0x1D43C9D3 EQ PUSH2 0x168 JUMPI DUP1 PUSH4 0x3DC4F7DE EQ PUSH2 0x189 JUMPI JUMPDEST PUSH1 0x0 DUP1 REVERT JUMPDEST PUSH2 0x139 PUSH2 0x134 CALLDATASIZE PUSH1 0x4 PUSH2 0x1974 JUMP JUMPDEST PUSH2 0x2DA JUMP JUMPDEST PUSH1 0x40 DUP1 MLOAD SWAP3 DUP4 MSTORE PUSH1 0x20 DUP4 ADD SWAP2 SWAP1 SWAP2 MSTORE ADD JUMPDEST PUSH1 0x40 MLOAD DUP1 SWAP2 SUB SWAP1 RETURN JUMPDEST PUSH2 0x166 PUSH2 0x161 CALLDATASIZE PUSH1 0x4 PUSH2 0x1991 JUMP JUMPDEST PUSH2 0x866 JUMP JUMPDEST STOP JUMPDEST PUSH2 0x17B PUSH2 0x176 CALLDATASIZE PUSH1 0x4 PUSH2 0x1974 JUMP JUMPDEST PUSH2 0xA0C JUMP JUMPDEST PUSH1 0x40 MLOAD SWAP1 DUP2 MSTORE PUSH1 0x20 ADD PUSH2 0x14A JUMP JUMPDEST PUSH2 0x166 PUSH2 0xA37 JUMP JUMPDEST PUSH2 0x166 PUSH2 0xCFC JUMP JUMPDEST PUSH2 0x166 PUSH2 0x1A7 CALLDATASIZE PUSH1 0x4 PUSH2 0x19C6 JUMP JUMPDEST PUSH2 0xD06 JUMP JUMPDEST PUSH2 0x1C7 PUSH20 0x9AE380F0272E2162340A5BB646C354271C0F5CFC DUP2 JUMP JUMPDEST PUSH1 0x40 MLOAD PUSH1 0x1 PUSH1 0x1 PUSH1 0xA0 SHL SUB SWAP1 SWAP2 AND DUP2 MSTORE PUSH1 0x20 ADD PUSH2 0x14A JUMP JUMPDEST PUSH2 0x166 PUSH2 0xE77 JUMP JUMPDEST PUSH2 0x1FA PUSH2 0x1F5 CALLDATASIZE PUSH1 0x4 PUSH2 0x19C6 JUMP JUMPDEST PUSH2 0xE89 JUMP JUMPDEST PUSH1 0x40 MLOAD SWAP1 ISZERO ISZERO DUP2 MSTORE PUSH1 0x20 ADD PUSH2 0x14A JUMP JUMPDEST PUSH1 0x0 SLOAD PUSH1 0x1 PUSH1 0x1 PUSH1 0xA0 SHL SUB AND PUSH2 0x1C7 JUMP JUMPDEST PUSH2 0x22E PUSH2 0x229 CALLDATASIZE PUSH1 0x4 PUSH2 0x1974 JUMP JUMPDEST PUSH2 0xEB2 JUMP JUMPDEST PUSH1 0x40 MLOAD PUSH2 0x14A SWAP2 SWAP1 PUSH2 0x1A43 JUMP JUMPDEST PUSH2 0x243 PUSH2 0xED6 JUMP JUMPDEST PUSH1 0x40 MLOAD PUSH2 0x14A SWAP4 SWAP3 SWAP2 SWAP1 PUSH2 0x1A56 JUMP JUMPDEST PUSH2 0x17B PUSH1 0x2 SLOAD DUP2 JUMP JUMPDEST PUSH2 0x17B PUSH2 0x269 CALLDATASIZE PUSH1 0x4 PUSH2 0x1974 JUMP JUMPDEST PUSH1 0x5 PUSH1 0x20 MSTORE PUSH1 0x0 SWAP1 DUP2 MSTORE PUSH1 0x40 SWAP1 KECCAK256 SLOAD DUP2 JUMP JUMPDEST PUSH2 0x17B PUSH1 0x4 SLOAD DUP2 JUMP JUMPDEST PUSH2 0x17B PUSH1 0x3 SLOAD DUP2 JUMP JUMPDEST PUSH2 0x166 PUSH2 0x29B CALLDATASIZE PUSH1 0x4 PUSH2 0x19C6 JUMP JUMPDEST PUSH2 0x138C JUMP JUMPDEST PUSH2 0x166 PUSH2 0x2AE CALLDATASIZE PUSH1 0x4 PUSH2 0x1974 JUMP JUMPDEST PUSH2 0x1501 JUMP JUMPDEST PUSH2 0x1C7 PUSH32 0x0 DUP2 JUMP JUMPDEST PUSH1 0x40 MLOAD PUSH4 0x5B16EBB7 PUSH1 0xE0 SHL DUP2 MSTORE PUSH1 0x1 PUSH1 0x1 PUSH1 0xA0 SHL SUB DUP3 DUP2 AND PUSH1 0x4 DUP4 ADD MSTORE PUSH1 0x0 SWAP2 DUP3 SWAP2 PUSH32 0x0 AND SWAP1 PUSH4 0x5B16EBB7 SWAP1 PUSH1 0x24 ADD PUSH1 0x20 PUSH1 0x40 MLOAD DUP1 DUP4 SUB DUP2 DUP7 GAS STATICCALL ISZERO DUP1 ISZERO PUSH2 0x345 JUMPI RETURNDATASIZE PUSH1 0x0 DUP1 RETURNDATACOPY RETURNDATASIZE PUSH1 0x0 REVERT JUMPDEST POP POP POP POP PUSH1 0x40 MLOAD RETURNDATASIZE PUSH1 0x1F NOT PUSH1 0x1F DUP3 ADD AND DUP3 ADD DUP1 PUSH1 0x40 MSTORE POP DUP2 ADD SWAP1 PUSH2 0x369 SWAP2 SWAP1 PUSH2 0x1AB6 JUMP JUMPDEST PUSH2 0x3AB JUMPI PUSH1 0x40 MLOAD PUSH3 0x461BCD PUSH1 0xE5 SHL DUP2 MSTORE PUSH1 0x20 PUSH1 0x4 DUP3 ADD MSTORE PUSH1 0xE PUSH1 0x24 DUP3 ADD MSTORE PUSH14 0x1C1BDBDB081B9BDD08199BDD5B99 PUSH1 0x92 SHL PUSH1 0x44 DUP3 ADD MSTORE PUSH1 0x64 ADD JUMPDEST PUSH1 0x40 MLOAD DUP1 SWAP2 SUB SWAP1 REVERT JUMPDEST PUSH1 0x0 PUSH32 0x0 PUSH1 0x1 PUSH1 0x1 PUSH1 0xA0 SHL SUB AND PUSH4 0x2630C12F PUSH1 0x40 MLOAD DUP2 PUSH4 0xFFFFFFFF AND PUSH1 0xE0 SHL DUP2 MSTORE PUSH1 0x4 ADD PUSH1 0x20 PUSH1 0x40 MLOAD DUP1 DUP4 SUB DUP2 DUP7 GAS STATICCALL ISZERO DUP1 ISZERO PUSH2 0x40B JUMPI RETURNDATASIZE PUSH1 0x0 DUP1 RETURNDATACOPY RETURNDATASIZE PUSH1 0x0 REVERT JUMPDEST POP POP POP POP PUSH1 0x40 MLOAD RETURNDATASIZE PUSH1 0x1F NOT PUSH1 0x1F DUP3 ADD AND DUP3 ADD DUP1 PUSH1 0x40 MSTORE POP DUP2 ADD SWAP1 PUSH2 0x42F SWAP2 SWAP1 PUSH2 0x1AD8 JUMP JUMPDEST SWAP1 POP PUSH1 0x0 PUSH32 0x0 PUSH1 0x1 PUSH1 0x1 PUSH1 0xA0 SHL SUB AND PUSH4 0x68795862 PUSH1 0x40 MLOAD DUP2 PUSH4 0xFFFFFFFF AND PUSH1 0xE0 SHL DUP2 MSTORE PUSH1 0x4 ADD PUSH1 0x0 PUSH1 0x40 MLOAD DUP1 DUP4 SUB DUP2 DUP7 GAS STATICCALL ISZERO DUP1 ISZERO PUSH2 0x491 JUMPI RETURNDATASIZE PUSH1 0x0 DUP1 RETURNDATACOPY RETURNDATASIZE PUSH1 0x0 REVERT JUMPDEST POP POP POP POP PUSH1 0x40 MLOAD RETURNDATASIZE PUSH1 0x0 DUP3 RETURNDATACOPY PUSH1 0x1F RETURNDATASIZE SWAP1 DUP2 ADD PUSH1 0x1F NOT AND DUP3 ADD PUSH1 0x40 MSTORE PUSH2 0x4B9 SWAP2 SWAP1 DUP2 ADD SWAP1 PUSH2 0x1B1B JUMP JUMPDEST SWAP1 POP PUSH1 0x0 DUP1 JUMPDEST DUP3 MLOAD DUP2 LT ISZERO PUSH2 0x794 JUMPI PUSH32 0x0 PUSH1 0x1 PUSH1 0x1 PUSH1 0xA0 SHL SUB AND PUSH4 0x8097354F DUP5 DUP4 DUP2 MLOAD DUP2 LT PUSH2 0x509 JUMPI PUSH2 0x509 PUSH2 0x1BE0 JUMP JUMPDEST PUSH1 0x20 MUL PUSH1 0x20 ADD ADD MLOAD PUSH1 0x40 MLOAD DUP3 PUSH4 0xFFFFFFFF AND PUSH1 0xE0 SHL DUP2 MSTORE PUSH1 0x4 ADD PUSH2 0x53C SWAP2 SWAP1 PUSH1 0x1 PUSH1 0x1 PUSH1 0xA0 SHL SUB SWAP2 SWAP1 SWAP2 AND DUP2 MSTORE PUSH1 0x20 ADD SWAP1 JUMP JUMPDEST PUSH1 0x20 PUSH1 0x40 MLOAD DUP1 DUP4 SUB DUP2 DUP7 GAS STATICCALL ISZERO DUP1 ISZERO PUSH2 0x559 JUMPI RETURNDATASIZE PUSH1 0x0 DUP1 RETURNDATACOPY RETURNDATASIZE PUSH1 0x0 REVERT JUMPDEST POP POP POP POP PUSH1 0x40 MLOAD RETURNDATASIZE PUSH1 0x1F NOT PUSH1 0x1F DUP3 ADD AND DUP3 ADD DUP1 PUSH1 0x40 MSTORE POP DUP2 ADD SWAP1 PUSH2 0x57D SWAP2 SWAP1 PUSH2 0x1AB6 JUMP JUMPDEST ISZERO PUSH2 0x782 JUMPI PUSH1 0x0 DUP4 DUP3 DUP2 MLOAD DUP2 LT PUSH2 0x596 JUMPI PUSH2 0x596 PUSH2 0x1BE0 JUMP JUMPDEST PUSH1 0x20 MUL PUSH1 0x20 ADD ADD MLOAD SWAP1 POP PUSH1 0x0 DUP2 PUSH1 0x1 PUSH1 0x1 PUSH1 0xA0 SHL SUB AND PUSH4 0x6F307DC3 PUSH1 0x40 MLOAD DUP2 PUSH4 0xFFFFFFFF AND PUSH1 0xE0 SHL DUP2 MSTORE PUSH1 0x4 ADD PUSH1 0x20 PUSH1 0x40 MLOAD DUP1 DUP4 SUB DUP2 DUP7 GAS STATICCALL ISZERO DUP1 ISZERO PUSH2 0x5E0 JUMPI RETURNDATASIZE PUSH1 0x0 DUP1 RETURNDATACOPY RETURNDATASIZE PUSH1 0x0 REVERT JUMPDEST POP POP POP POP PUSH1 0x40 MLOAD RETURNDATASIZE PUSH1 0x1F NOT PUSH1 0x1F DUP3 ADD AND DUP3 ADD DUP1 PUSH1 0x40 MSTORE POP DUP2 ADD SWAP1 PUSH2 0x604 SWAP2 SWAP1 PUSH2 0x1AD8 JUMP JUMPDEST PUSH1 0x40 MLOAD PUSH4 0x8B2F0F4F PUSH1 0xE0 SHL DUP2 MSTORE PUSH1 0x1 PUSH1 0x1 PUSH1 0xA0 SHL SUB DUP1 DUP4 AND PUSH1 0x4 DUP4 ADD MSTORE SWAP2 SWAP3 POP PUSH1 0x0 SWAP2 DUP9 AND SWAP1 PUSH4 0x8B2F0F4F SWAP1 PUSH1 0x24 ADD PUSH1 0x20 PUSH1 0x40 MLOAD DUP1 DUP4 SUB DUP2 DUP7 GAS STATICCALL ISZERO DUP1 ISZERO PUSH2 0x650 JUMPI RETURNDATASIZE PUSH1 0x0 DUP1 RETURNDATACOPY RETURNDATASIZE PUSH1 0x0 REVERT JUMPDEST POP POP POP POP PUSH1 0x40 MLOAD RETURNDATASIZE PUSH1 0x1F NOT PUSH1 0x1F DUP3 ADD AND DUP3 ADD DUP1 PUSH1 0x40 MSTORE POP DUP2 ADD SWAP1 PUSH2 0x674 SWAP2 SWAP1 PUSH2 0x1BF6 JUMP JUMPDEST SWAP1 POP PUSH1 0x0 PUSH2 0x752 DUP3 PUSH2 0x74C DUP6 PUSH1 0x1 PUSH1 0x1 PUSH1 0xA0 SHL SUB AND PUSH4 0x313CE567 PUSH1 0x40 MLOAD DUP2 PUSH4 0xFFFFFFFF AND PUSH1 0xE0 SHL DUP2 MSTORE PUSH1 0x4 ADD PUSH1 0x20 PUSH1 0x40 MLOAD DUP1 DUP4 SUB DUP2 DUP7 GAS STATICCALL ISZERO DUP1 ISZERO PUSH2 0x6BD JUMPI RETURNDATASIZE PUSH1 0x0 DUP1 RETURNDATACOPY RETURNDATASIZE PUSH1 0x0 REVERT JUMPDEST POP POP POP POP PUSH1 0x40 MLOAD RETURNDATASIZE PUSH1 0x1F NOT PUSH1 0x1F DUP3 ADD AND DUP3 ADD DUP1 PUSH1 0x40 MSTORE POP DUP2 ADD SWAP1 PUSH2 0x6E1 SWAP2 SWAP1 PUSH2 0x1C0F JUMP JUMPDEST PUSH1 0x12 DUP9 PUSH1 0x1 PUSH1 0x1 PUSH1 0xA0 SHL SUB AND PUSH4 0x24A71A66 PUSH1 0x40 MLOAD DUP2 PUSH4 0xFFFFFFFF AND PUSH1 0xE0 SHL DUP2 MSTORE PUSH1 0x4 ADD PUSH1 0x20 PUSH1 0x40 MLOAD DUP1 DUP4 SUB DUP2 DUP7 GAS STATICCALL ISZERO DUP1 ISZERO PUSH2 0x721 JUMPI RETURNDATASIZE PUSH1 0x0 DUP1 RETURNDATACOPY RETURNDATASIZE PUSH1 0x0 REVERT JUMPDEST POP POP POP POP PUSH1 0x40 MLOAD RETURNDATASIZE PUSH1 0x1F NOT PUSH1 0x1F DUP3 ADD AND DUP3 ADD DUP1 PUSH1 0x40 MSTORE POP DUP2 ADD SWAP1 PUSH2 0x745 SWAP2 SWAP1 PUSH2 0x1BF6 JUMP JUMPDEST SWAP2 SWAP1 PUSH2 0x157A JUMP JUMPDEST SWAP1 PUSH2 0x15C3 JUMP JUMPDEST SWAP1 POP PUSH2 0x75E DUP2 DUP11 PUSH2 0x1C48 JUMP JUMPDEST SWAP9 POP DUP11 PUSH1 0x1 PUSH1 0x1 PUSH1 0xA0 SHL SUB AND DUP5 PUSH1 0x1 PUSH1 0x1 PUSH1 0xA0 SHL SUB AND SUB PUSH2 0x77D JUMPI DUP1 SWAP6 POP JUMPDEST POP POP POP POP JUMPDEST DUP1 PUSH2 0x78C DUP2 PUSH2 0x1C5B JUMP JUMPDEST SWAP2 POP POP PUSH2 0x4BF JUMP JUMPDEST POP PUSH1 0x40 MLOAD PUSH4 0x8097354F PUSH1 0xE0 SHL DUP2 MSTORE PUSH1 0x1 PUSH1 0x1 PUSH1 0xA0 SHL SUB DUP8 DUP2 AND PUSH1 0x4 DUP4 ADD MSTORE PUSH32 0x0 AND SWAP1 PUSH4 0x8097354F SWAP1 PUSH1 0x24 ADD PUSH1 0x20 PUSH1 0x40 MLOAD DUP1 DUP4 SUB DUP2 DUP7 GAS STATICCALL ISZERO DUP1 ISZERO PUSH2 0x7FB JUMPI RETURNDATASIZE PUSH1 0x0 DUP1 RETURNDATACOPY RETURNDATASIZE PUSH1 0x0 REVERT JUMPDEST POP POP POP POP PUSH1 0x40 MLOAD RETURNDATASIZE PUSH1 0x1F NOT PUSH1 0x1F DUP3 ADD AND DUP3 ADD DUP1 PUSH1 0x40 MSTORE POP DUP2 ADD SWAP1 PUSH2 0x81F SWAP2 SWAP1 PUSH2 0x1AB6 JUMP JUMPDEST PUSH2 0x82F JUMPI PUSH1 0x0 SWAP5 POP POP POP POP SWAP2 POP SWAP2 JUMP JUMPDEST DUP4 ISZERO PUSH2 0x844 JUMPI PUSH2 0x83F DUP2 DUP6 PUSH2 0x15E5 JUMP JUMPDEST PUSH2 0x85C JUMP JUMPDEST DUP2 MLOAD PUSH2 0x852 PUSH1 0x12 PUSH1 0xA PUSH2 0x1D58 JUMP JUMPDEST PUSH2 0x85C SWAP2 SWAP1 PUSH2 0x1D64 JUMP JUMPDEST SWAP5 POP POP POP POP SWAP2 POP SWAP2 JUMP JUMPDEST PUSH1 0x40 MLOAD PUSH4 0x5B16EBB7 PUSH1 0xE0 SHL DUP2 MSTORE CALLER PUSH1 0x4 DUP3 ADD MSTORE PUSH32 0x0 PUSH1 0x1 PUSH1 0x1 PUSH1 0xA0 SHL SUB AND SWAP1 PUSH4 0x5B16EBB7 SWAP1 PUSH1 0x24 ADD PUSH1 0x20 PUSH1 0x40 MLOAD DUP1 DUP4 SUB DUP2 DUP7 GAS STATICCALL ISZERO DUP1 ISZERO PUSH2 0x8CA JUMPI RETURNDATASIZE PUSH1 0x0 DUP1 RETURNDATACOPY RETURNDATASIZE PUSH1 0x0 REVERT JUMPDEST POP POP POP POP PUSH1 0x40 MLOAD RETURNDATASIZE PUSH1 0x1F NOT PUSH1 0x1F DUP3 ADD AND DUP3 ADD DUP1 PUSH1 0x40 MSTORE POP DUP2 ADD SWAP1 PUSH2 0x8EE SWAP2 SWAP1 PUSH2 0x1AB6 JUMP JUMPDEST PUSH2 0x944 JUMPI PUSH1 0x40 MLOAD PUSH3 0x461BCD PUSH1 0xE5 SHL DUP2 MSTORE PUSH1 0x20 PUSH1 0x4 DUP3 ADD MSTORE PUSH1 0x21 PUSH1 0x24 DUP3 ADD MSTORE PUSH32 0x6F6E6C7920706F6F6C732063616E2063616C6C20746869732066756E6374696F PUSH1 0x44 DUP3 ADD MSTORE PUSH1 0x37 PUSH1 0xF9 SHL PUSH1 0x64 DUP3 ADD MSTORE PUSH1 0x84 ADD PUSH2 0x3A2 JUMP JUMPDEST PUSH1 0x0 JUMPDEST CALLER PUSH1 0x0 SWAP1 DUP2 MSTORE PUSH1 0x1 PUSH1 0x20 MSTORE PUSH1 0x40 SWAP1 KECCAK256 PUSH2 0x95F SWAP1 PUSH2 0x15FE JUMP JUMPDEST DUP2 LT ISZERO PUSH2 0xA06 JUMPI CALLER PUSH1 0x0 SWAP1 DUP2 MSTORE PUSH1 0x1 PUSH1 0x20 MSTORE PUSH1 0x40 DUP2 KECCAK256 PUSH2 0x97F SWAP1 DUP4 PUSH2 0x1608 JUMP JUMPDEST PUSH1 0x40 MLOAD PUSH4 0xF95878F5 PUSH1 0xE0 SHL DUP2 MSTORE CALLER PUSH1 0x4 DUP3 ADD MSTORE PUSH1 0x1 PUSH1 0x1 PUSH1 0xA0 SHL SUB DUP8 DUP2 AND PUSH1 0x24 DUP4 ADD MSTORE PUSH1 0x44 DUP3 ADD DUP8 SWAP1 MSTORE PUSH1 0x64 DUP3 ADD DUP7 SWAP1 MSTORE SWAP2 SWAP3 POP SWAP1 DUP3 AND SWAP1 PUSH4 0xF95878F5 SWAP1 PUSH1 0x84 ADD PUSH1 0x0 PUSH1 0x40 MLOAD DUP1 DUP4 SUB DUP2 PUSH1 0x0 DUP8 DUP1 EXTCODESIZE ISZERO DUP1 ISZERO PUSH2 0x9DA JUMPI PUSH1 0x0 DUP1 REVERT JUMPDEST POP GAS CALL ISZERO DUP1 ISZERO PUSH2 0x9EE JUMPI RETURNDATASIZE PUSH1 0x0 DUP1 RETURNDATACOPY RETURNDATASIZE PUSH1 0x0 REVERT JUMPDEST POP POP POP POP POP DUP1 DUP1 PUSH2 0x9FE SWAP1 PUSH2 0x1C5B JUMP JUMPDEST SWAP2 POP POP PUSH2 0x947 JUMP JUMPDEST POP POP POP POP JUMP JUMPDEST PUSH1 0x1 PUSH1 0x1 PUSH1 0xA0 SHL SUB DUP2 AND PUSH1 0x0 SWAP1 DUP2 MSTORE PUSH1 0x5 PUSH1 0x20 MSTORE PUSH1 0x40 DUP2 KECCAK256 SLOAD PUSH1 0x2 SLOAD PUSH2 0xA31 SWAP2 PUSH2 0x15C3 JUMP JUMPDEST SWAP3 SWAP2 POP POP JUMP JUMPDEST PUSH1 0x0 DUP1 PUSH2 0xA42 PUSH2 0xED6 JUMP JUMPDEST POP SWAP2 POP SWAP2 POP PUSH1 0x0 DUP3 MLOAD SWAP1 POP PUSH1 0x0 PUSH32 0x0 PUSH1 0x1 PUSH1 0x1 PUSH1 0xA0 SHL SUB AND PUSH4 0x48439E7E PUSH1 0x40 MLOAD DUP2 PUSH4 0xFFFFFFFF AND PUSH1 0xE0 SHL DUP2 MSTORE PUSH1 0x4 ADD PUSH1 0x20 PUSH1 0x40 MLOAD DUP1 DUP4 SUB DUP2 DUP7 GAS STATICCALL ISZERO DUP1 ISZERO PUSH2 0xAAD JUMPI RETURNDATASIZE PUSH1 0x0 DUP1 RETURNDATACOPY RETURNDATASIZE PUSH1 0x0 REVERT JUMPDEST POP POP POP POP PUSH1 0x40 MLOAD RETURNDATASIZE PUSH1 0x1F NOT PUSH1 0x1F DUP3 ADD AND DUP3 ADD DUP1 PUSH1 0x40 MSTORE POP DUP2 ADD SWAP1 PUSH2 0xAD1 SWAP2 SWAP1 PUSH2 0x1AD8 JUMP JUMPDEST SWAP1 POP PUSH1 0x0 JUMPDEST DUP3 DUP2 LT ISZERO PUSH2 0xCCC JUMPI PUSH1 0x0 DUP6 DUP3 DUP2 MLOAD DUP2 LT PUSH2 0xAF2 JUMPI PUSH2 0xAF2 PUSH2 0x1BE0 JUMP JUMPDEST PUSH1 0x20 MUL PUSH1 0x20 ADD ADD MLOAD SWAP1 POP DUP1 PUSH1 0x1 PUSH1 0x1 PUSH1 0xA0 SHL SUB AND PUSH4 0x904C9BF0 PUSH1 0x40 MLOAD DUP2 PUSH4 0xFFFFFFFF AND PUSH1 0xE0 SHL DUP2 MSTORE PUSH1 0x4 ADD PUSH1 0x0 PUSH1 0x40 MLOAD DUP1 DUP4 SUB DUP2 PUSH1 0x0 DUP8 DUP1 EXTCODESIZE ISZERO DUP1 ISZERO PUSH2 0xB37 JUMPI PUSH1 0x0 DUP1 REVERT JUMPDEST POP GAS CALL ISZERO DUP1 ISZERO PUSH2 0xB4B JUMPI RETURNDATASIZE PUSH1 0x0 DUP1 RETURNDATACOPY RETURNDATASIZE PUSH1 0x0 REVERT JUMPDEST POP POP POP POP DUP1 PUSH1 0x1 PUSH1 0x1 PUSH1 0xA0 SHL SUB AND PUSH4 0xF4EF8A6 PUSH1 0x40 MLOAD DUP2 PUSH4 0xFFFFFFFF AND PUSH1 0xE0 SHL DUP2 MSTORE PUSH1 0x4 ADD PUSH1 0x20 PUSH1 0x40 MLOAD DUP1 DUP4 SUB DUP2 DUP7 GAS STATICCALL ISZERO DUP1 ISZERO PUSH2 0xB8D JUMPI RETURNDATASIZE PUSH1 0x0 DUP1 RETURNDATACOPY RETURNDATASIZE PUSH1 0x0 REVERT JUMPDEST POP POP POP POP PUSH1 0x40 MLOAD RETURNDATASIZE PUSH1 0x1F NOT PUSH1 0x1F DUP3 ADD AND DUP3 ADD DUP1 PUSH1 0x40 MSTORE POP DUP2 ADD SWAP1 PUSH2 0xBB1 SWAP2 SWAP1 PUSH2 0x1AD8 JUMP JUMPDEST PUSH1 0x1 PUSH1 0x1 PUSH1 0xA0 SHL SUB AND PUSH4 0x5790A0C8 PUSH1 0x40 MLOAD DUP2 PUSH4 0xFFFFFFFF AND PUSH1 0xE0 SHL DUP2 MSTORE PUSH1 0x4 ADD PUSH1 0x20 PUSH1 0x40 MLOAD DUP1 DUP4 SUB DUP2 PUSH1 0x0 DUP8 GAS CALL ISZERO DUP1 ISZERO PUSH2 0xBF0 JUMPI RETURNDATASIZE PUSH1 0x0 DUP1 RETURNDATACOPY RETURNDATASIZE PUSH1 0x0 REVERT JUMPDEST POP POP POP POP PUSH1 0x40 MLOAD RETURNDATASIZE PUSH1 0x1F NOT PUSH1 0x1F DUP3 ADD AND DUP3 ADD DUP1 PUSH1 0x40 MSTORE POP DUP2 ADD SWAP1 PUSH2 0xC14 SWAP2 SWAP1 PUSH2 0x1AB6 JUMP JUMPDEST POP PUSH1 0x40 MLOAD PUSH4 0x54B94C2F PUSH1 0xE1 SHL DUP2 MSTORE PUSH1 0x1 PUSH1 0x1 PUSH1 0xA0 SHL SUB DUP3 DUP2 AND PUSH1 0x4 DUP4 ADD MSTORE DUP5 AND SWAP1 PUSH4 0xA972985E SWAP1 PUSH1 0x24 ADD PUSH1 0x20 PUSH1 0x40 MLOAD DUP1 DUP4 SUB DUP2 PUSH1 0x0 DUP8 GAS CALL ISZERO DUP1 ISZERO PUSH2 0xC5D JUMPI RETURNDATASIZE PUSH1 0x0 DUP1 RETURNDATACOPY RETURNDATASIZE PUSH1 0x0 REVERT JUMPDEST POP POP POP POP PUSH1 0x40 MLOAD RETURNDATASIZE PUSH1 0x1F NOT PUSH1 0x1F DUP3 ADD AND DUP3 ADD DUP1 PUSH1 0x40 MSTORE POP DUP2 ADD SWAP1 PUSH2 0xC81 SWAP2 SWAP1 PUSH2 0x1BF6 JUMP JUMPDEST POP DUP5 DUP3 DUP2 MLOAD DUP2 LT PUSH2 0xC94 JUMPI PUSH2 0xC94 PUSH2 0x1BE0 JUMP JUMPDEST PUSH1 0x20 SWAP1 DUP2 MUL SWAP2 SWAP1 SWAP2 ADD DUP2 ADD MLOAD PUSH1 0x1 PUSH1 0x1 PUSH1 0xA0 SHL SUB SWAP1 SWAP3 AND PUSH1 0x0 SWAP1 DUP2 MSTORE PUSH1 0x5 SWAP1 SWAP2 MSTORE PUSH1 0x40 SWAP1 KECCAK256 SSTORE DUP1 PUSH2 0xCC4 DUP2 PUSH2 0x1C5B JUMP JUMPDEST SWAP2 POP POP PUSH2 0xAD6 JUMP JUMPDEST POP PUSH1 0x40 MLOAD PUSH32 0xFB56001529302F12AFDFA225BA5AD5DA2D7D51B21709E2A2A8821F42B0E2CB56 SWAP1 PUSH1 0x0 SWAP1 LOG1 POP POP POP POP JUMP JUMPDEST PUSH2 0xD04 PUSH2 0x1614 JUMP JUMPDEST JUMP JUMPDEST PUSH2 0xD0E PUSH2 0x1652 JUMP JUMPDEST PUSH1 0x40 MLOAD PUSH4 0x5B16EBB7 PUSH1 0xE0 SHL DUP2 MSTORE PUSH1 0x1 PUSH1 0x1 PUSH1 0xA0 SHL SUB DUP4 DUP2 AND PUSH1 0x4 DUP4 ADD MSTORE PUSH32 0x0 AND SWAP1 PUSH4 0x5B16EBB7 SWAP1 PUSH1 0x24 ADD PUSH1 0x20 PUSH1 0x40 MLOAD DUP1 DUP4 SUB DUP2 DUP7 GAS STATICCALL ISZERO DUP1 ISZERO PUSH2 0xD74 JUMPI RETURNDATASIZE PUSH1 0x0 DUP1 RETURNDATACOPY RETURNDATASIZE PUSH1 0x0 REVERT JUMPDEST POP POP POP POP PUSH1 0x40 MLOAD RETURNDATASIZE PUSH1 0x1F NOT PUSH1 0x1F DUP3 ADD AND DUP3 ADD DUP1 PUSH1 0x40 MSTORE POP DUP2 ADD SWAP1 PUSH2 0xD98 SWAP2 SWAP1 PUSH2 0x1AB6 JUMP JUMPDEST PUSH2 0xDD3 JUMPI PUSH1 0x40 MLOAD PUSH3 0x461BCD PUSH1 0xE5 SHL DUP2 MSTORE PUSH1 0x20 PUSH1 0x4 DUP3 ADD MSTORE PUSH1 0xC PUSH1 0x24 DUP3 ADD MSTORE PUSH12 0x1A5B9D985B1A59081C1BDBDB PUSH1 0xA2 SHL PUSH1 0x44 DUP3 ADD MSTORE PUSH1 0x64 ADD PUSH2 0x3A2 JUMP JUMPDEST PUSH1 0x1 PUSH1 0x1 PUSH1 0xA0 SHL SUB DUP3 AND PUSH1 0x0 SWAP1 DUP2 MSTORE PUSH1 0x1 PUSH1 0x20 MSTORE PUSH1 0x40 SWAP1 KECCAK256 PUSH2 0xDF5 SWAP1 DUP3 PUSH2 0x16AC JUMP JUMPDEST PUSH2 0xE33 JUMPI PUSH1 0x40 MLOAD PUSH3 0x461BCD PUSH1 0xE5 SHL DUP2 MSTORE PUSH1 0x20 PUSH1 0x4 DUP3 ADD MSTORE PUSH1 0xF PUSH1 0x24 DUP3 ADD MSTORE PUSH15 0x1A185B991B195C881B9BDD081CD95D PUSH1 0x8A SHL PUSH1 0x44 DUP3 ADD MSTORE PUSH1 0x64 ADD PUSH2 0x3A2 JUMP JUMPDEST DUP1 PUSH1 0x1 PUSH1 0x1 PUSH1 0xA0 SHL SUB AND DUP3 PUSH1 0x1 PUSH1 0x1 PUSH1 0xA0 SHL SUB AND PUSH32 0x388F4B3EC4B4C3329F2EC4AD5434090B54FDEF42E3EFA2BB40E82136640ABC31 PUSH1 0x40 MLOAD PUSH1 0x40 MLOAD DUP1 SWAP2 SUB SWAP1 LOG3 POP POP JUMP JUMPDEST PUSH2 0xE7F PUSH2 0x1652 JUMP JUMPDEST PUSH2 0xD04 PUSH1 0x0 PUSH2 0x16C1 JUMP JUMPDEST PUSH1 0x1 PUSH1 0x1 PUSH1 0xA0 SHL SUB DUP3 AND PUSH1 0x0 SWAP1 DUP2 MSTORE PUSH1 0x1 PUSH1 0x20 MSTORE PUSH1 0x40 DUP2 KECCAK256 PUSH2 0xEAB SWAP1 DUP4 PUSH2 0x1711 JUMP JUMPDEST SWAP4 SWAP3 POP POP POP JUMP JUMPDEST PUSH1 0x1 PUSH1 0x1 PUSH1 0xA0 SHL SUB DUP2 AND PUSH1 0x0 SWAP1 DUP2 MSTORE PUSH1 0x1 PUSH1 0x20 MSTORE PUSH1 0x40 SWAP1 KECCAK256 PUSH1 0x60 SWAP1 PUSH2 0xA31 SWAP1 PUSH2 0x1733 JUMP JUMPDEST PUSH1 0x60 DUP1 PUSH1 0x0 DUP1 PUSH32 0x0 PUSH1 0x1 PUSH1 0x1 PUSH1 0xA0 SHL SUB AND PUSH4 0x2630C12F PUSH1 0x40 MLOAD DUP2 PUSH4 0xFFFFFFFF AND PUSH1 0xE0 SHL DUP2 MSTORE PUSH1 0x4 ADD PUSH1 0x20 PUSH1 0x40 MLOAD DUP1 DUP4 SUB DUP2 DUP7 GAS STATICCALL ISZERO DUP1 ISZERO PUSH2 0xF3A JUMPI RETURNDATASIZE PUSH1 0x0 DUP1 RETURNDATACOPY RETURNDATASIZE PUSH1 0x0 REVERT JUMPDEST POP POP POP POP PUSH1 0x40 MLOAD RETURNDATASIZE PUSH1 0x1F NOT PUSH1 0x1F DUP3 ADD AND DUP3 ADD DUP1 PUSH1 0x40 MSTORE POP DUP2 ADD SWAP1 PUSH2 0xF5E SWAP2 SWAP1 PUSH2 0x1AD8 JUMP JUMPDEST SWAP1 POP PUSH32 0x0 PUSH1 0x1 PUSH1 0x1 PUSH1 0xA0 SHL SUB AND PUSH4 0x68795862 PUSH1 0x40 MLOAD DUP2 PUSH4 0xFFFFFFFF AND PUSH1 0xE0 SHL DUP2 MSTORE PUSH1 0x4 ADD PUSH1 0x0 PUSH1 0x40 MLOAD DUP1 DUP4 SUB DUP2 DUP7 GAS STATICCALL ISZERO DUP1 ISZERO PUSH2 0xFBE JUMPI RETURNDATASIZE PUSH1 0x0 DUP1 RETURNDATACOPY RETURNDATASIZE PUSH1 0x0 REVERT JUMPDEST POP POP POP POP PUSH1 0x40 MLOAD RETURNDATASIZE PUSH1 0x0 DUP3 RETURNDATACOPY PUSH1 0x1F RETURNDATASIZE SWAP1 DUP2 ADD PUSH1 0x1F NOT AND DUP3 ADD PUSH1 0x40 MSTORE PUSH2 0xFE6 SWAP2 SWAP1 DUP2 ADD SWAP1 PUSH2 0x1B1B JUMP JUMPDEST SWAP4 POP PUSH1 0x0 DUP5 MLOAD PUSH8 0xFFFFFFFFFFFFFFFF DUP2 GT ISZERO PUSH2 0x1004 JUMPI PUSH2 0x1004 PUSH2 0x1AF5 JUMP JUMPDEST PUSH1 0x40 MLOAD SWAP1 DUP1 DUP3 MSTORE DUP1 PUSH1 0x20 MUL PUSH1 0x20 ADD DUP3 ADD PUSH1 0x40 MSTORE DUP1 ISZERO PUSH2 0x102D JUMPI DUP2 PUSH1 0x20 ADD PUSH1 0x20 DUP3 MUL DUP1 CALLDATASIZE DUP4 CALLDATACOPY ADD SWAP1 POP JUMPDEST POP SWAP1 POP PUSH1 0x0 JUMPDEST DUP6 MLOAD DUP2 LT ISZERO PUSH2 0x1274 JUMPI PUSH32 0x0 PUSH1 0x1 PUSH1 0x1 PUSH1 0xA0 SHL SUB AND PUSH4 0x8097354F DUP8 DUP4 DUP2 MLOAD DUP2 LT PUSH2 0x107D JUMPI PUSH2 0x107D PUSH2 0x1BE0 JUMP JUMPDEST PUSH1 0x20 MUL PUSH1 0x20 ADD ADD MLOAD PUSH1 0x40 MLOAD DUP3 PUSH4 0xFFFFFFFF AND PUSH1 0xE0 SHL DUP2 MSTORE PUSH1 0x4 ADD PUSH2 0x10B0 SWAP2 SWAP1 PUSH1 0x1 PUSH1 0x1 PUSH1 0xA0 SHL SUB SWAP2 SWAP1 SWAP2 AND DUP2 MSTORE PUSH1 0x20 ADD SWAP1 JUMP JUMPDEST PUSH1 0x20 PUSH1 0x40 MLOAD DUP1 DUP4 SUB DUP2 DUP7 GAS STATICCALL ISZERO DUP1 ISZERO PUSH2 0x10CD JUMPI RETURNDATASIZE PUSH1 0x0 DUP1 RETURNDATACOPY RETURNDATASIZE PUSH1 0x0 REVERT JUMPDEST POP POP POP POP PUSH1 0x40 MLOAD RETURNDATASIZE PUSH1 0x1F NOT PUSH1 0x1F DUP3 ADD AND DUP3 ADD DUP1 PUSH1 0x40 MSTORE POP DUP2 ADD SWAP1 PUSH2 0x10F1 SWAP2 SWAP1 PUSH2 0x1AB6 JUMP JUMPDEST ISZERO PUSH2 0x1262 JUMPI PUSH1 0x0 DUP7 DUP3 DUP2 MLOAD DUP2 LT PUSH2 0x110A JUMPI PUSH2 0x110A PUSH2 0x1BE0 JUMP JUMPDEST PUSH1 0x20 MUL PUSH1 0x20 ADD ADD MLOAD SWAP1 POP PUSH1 0x0 DUP2 PUSH1 0x1 PUSH1 0x1 PUSH1 0xA0 SHL SUB AND PUSH4 0x6F307DC3 PUSH1 0x40 MLOAD DUP2 PUSH4 0xFFFFFFFF AND PUSH1 0xE0 SHL DUP2 MSTORE PUSH1 0x4 ADD PUSH1 0x20 PUSH1 0x40 MLOAD DUP1 DUP4 SUB DUP2 DUP7 GAS STATICCALL ISZERO DUP1 ISZERO PUSH2 0x1154 JUMPI RETURNDATASIZE PUSH1 0x0 DUP1 RETURNDATACOPY RETURNDATASIZE PUSH1 0x0 REVERT JUMPDEST POP POP POP POP PUSH1 0x40 MLOAD RETURNDATASIZE PUSH1 0x1F NOT PUSH1 0x1F DUP3 ADD AND DUP3 ADD DUP1 PUSH1 0x40 MSTORE POP DUP2 ADD SWAP1 PUSH2 0x1178 SWAP2 SWAP1 PUSH2 0x1AD8 JUMP JUMPDEST PUSH1 0x40 MLOAD PUSH4 0x8B2F0F4F PUSH1 0xE0 SHL DUP2 MSTORE PUSH1 0x1 PUSH1 0x1 PUSH1 0xA0 SHL SUB DUP1 DUP4 AND PUSH1 0x4 DUP4 ADD MSTORE SWAP2 SWAP3 POP PUSH1 0x0 SWAP2 DUP8 AND SWAP1 PUSH4 0x8B2F0F4F SWAP1 PUSH1 0x24 ADD PUSH1 0x20 PUSH1 0x40 MLOAD DUP1 DUP4 SUB DUP2 DUP7 GAS STATICCALL ISZERO DUP1 ISZERO PUSH2 0x11C4 JUMPI RETURNDATASIZE PUSH1 0x0 DUP1 RETURNDATACOPY RETURNDATASIZE PUSH1 0x0 REVERT JUMPDEST POP POP POP POP PUSH1 0x40 MLOAD RETURNDATASIZE PUSH1 0x1F NOT PUSH1 0x1F DUP3 ADD AND DUP3 ADD DUP1 PUSH1 0x40 MSTORE POP DUP2 ADD SWAP1 PUSH2 0x11E8 SWAP2 SWAP1 PUSH2 0x1BF6 JUMP JUMPDEST SWAP1 POP PUSH1 0x0 PUSH2 0x1231 DUP3 PUSH2 0x74C DUP6 PUSH1 0x1 PUSH1 0x1 PUSH1 0xA0 SHL SUB AND PUSH4 0x313CE567 PUSH1 0x40 MLOAD DUP2 PUSH4 0xFFFFFFFF AND PUSH1 0xE0 SHL DUP2 MSTORE PUSH1 0x4 ADD PUSH1 0x20 PUSH1 0x40 MLOAD DUP1 DUP4 SUB DUP2 DUP7 GAS STATICCALL ISZERO DUP1 ISZERO PUSH2 0x6BD JUMPI RETURNDATASIZE PUSH1 0x0 DUP1 RETURNDATACOPY RETURNDATASIZE PUSH1 0x0 REVERT JUMPDEST SWAP1 POP DUP1 DUP7 DUP7 DUP2 MLOAD DUP2 LT PUSH2 0x1246 JUMPI PUSH2 0x1246 PUSH2 0x1BE0 JUMP JUMPDEST PUSH1 0x20 SWAP1 DUP2 MUL SWAP2 SWAP1 SWAP2 ADD ADD MSTORE PUSH2 0x125B DUP2 DUP10 PUSH2 0x1C48 JUMP JUMPDEST SWAP8 POP POP POP POP POP JUMPDEST DUP1 PUSH2 0x126C DUP2 PUSH2 0x1C5B JUMP JUMPDEST SWAP2 POP POP PUSH2 0x1033 JUMP JUMPDEST POP DUP5 MLOAD PUSH8 0xFFFFFFFFFFFFFFFF DUP2 GT ISZERO PUSH2 0x128F JUMPI PUSH2 0x128F PUSH2 0x1AF5 JUMP JUMPDEST PUSH1 0x40 MLOAD SWAP1 DUP1 DUP3 MSTORE DUP1 PUSH1 0x20 MUL PUSH1 0x20 ADD DUP3 ADD PUSH1 0x40 MSTORE DUP1 ISZERO PUSH2 0x12B8 JUMPI DUP2 PUSH1 0x20 ADD PUSH1 0x20 DUP3 MUL DUP1 CALLDATASIZE DUP4 CALLDATACOPY ADD SWAP1 POP JUMPDEST POP SWAP4 POP DUP3 PUSH1 0x0 SUB PUSH2 0x131C JUMPI PUSH1 0x0 JUMPDEST DUP6 MLOAD DUP2 LT ISZERO PUSH2 0x1316 JUMPI DUP6 MLOAD PUSH2 0x12DD PUSH1 0x12 PUSH1 0xA PUSH2 0x1D58 JUMP JUMPDEST PUSH2 0x12E7 SWAP2 SWAP1 PUSH2 0x1D64 JUMP JUMPDEST DUP6 DUP3 DUP2 MLOAD DUP2 LT PUSH2 0x12F9 JUMPI PUSH2 0x12F9 PUSH2 0x1BE0 JUMP JUMPDEST PUSH1 0x20 SWAP1 DUP2 MUL SWAP2 SWAP1 SWAP2 ADD ADD MSTORE DUP1 PUSH2 0x130E DUP2 PUSH2 0x1C5B JUMP JUMPDEST SWAP2 POP POP PUSH2 0x12C6 JUMP JUMPDEST POP PUSH2 0x1385 JUMP JUMPDEST PUSH1 0x0 JUMPDEST DUP6 MLOAD DUP2 LT ISZERO PUSH2 0x1383 JUMPI PUSH2 0x1354 DUP5 DUP4 DUP4 DUP2 MLOAD DUP2 LT PUSH2 0x133E JUMPI PUSH2 0x133E PUSH2 0x1BE0 JUMP JUMPDEST PUSH1 0x20 MUL PUSH1 0x20 ADD ADD MLOAD PUSH2 0x15E5 SWAP1 SWAP2 SWAP1 PUSH4 0xFFFFFFFF AND JUMP JUMPDEST DUP6 DUP3 DUP2 MLOAD DUP2 LT PUSH2 0x1366 JUMPI PUSH2 0x1366 PUSH2 0x1BE0 JUMP JUMPDEST PUSH1 0x20 SWAP1 DUP2 MUL SWAP2 SWAP1 SWAP2 ADD ADD MSTORE DUP1 PUSH2 0x137B DUP2 PUSH2 0x1C5B JUMP JUMPDEST SWAP2 POP POP PUSH2 0x131F JUMP JUMPDEST POP JUMPDEST POP POP SWAP1 SWAP2 SWAP3 JUMP JUMPDEST PUSH2 0x1394 PUSH2 0x1652 JUMP JUMPDEST PUSH1 0x40 MLOAD PUSH4 0x5B16EBB7 PUSH1 0xE0 SHL DUP2 MSTORE PUSH1 0x1 PUSH1 0x1 PUSH1 0xA0 SHL SUB DUP4 DUP2 AND PUSH1 0x4 DUP4 ADD MSTORE PUSH32 0x0 AND SWAP1 PUSH4 0x5B16EBB7 SWAP1 PUSH1 0x24 ADD PUSH1 0x20 PUSH1 0x40 MLOAD DUP1 DUP4 SUB DUP2 DUP7 GAS STATICCALL ISZERO DUP1 ISZERO PUSH2 0x13FA JUMPI RETURNDATASIZE PUSH1 0x0 DUP1 RETURNDATACOPY RETURNDATASIZE PUSH1 0x0 REVERT JUMPDEST POP POP POP POP PUSH1 0x40 MLOAD RETURNDATASIZE PUSH1 0x1F NOT PUSH1 0x1F DUP3 ADD AND DUP3 ADD DUP1 PUSH1 0x40 MSTORE POP DUP2 ADD SWAP1 PUSH2 0x141E SWAP2 SWAP1 PUSH2 0x1AB6 JUMP JUMPDEST PUSH2 0x1459 JUMPI PUSH1 0x40 MLOAD PUSH3 0x461BCD PUSH1 0xE5 SHL DUP2 MSTORE PUSH1 0x20 PUSH1 0x4 DUP3 ADD MSTORE PUSH1 0xC PUSH1 0x24 DUP3 ADD MSTORE PUSH12 0x1A5B9D985B1A59081C1BDBDB PUSH1 0xA2 SHL PUSH1 0x44 DUP3 ADD MSTORE PUSH1 0x64 ADD PUSH2 0x3A2 JUMP JUMPDEST PUSH1 0x1 PUSH1 0x1 PUSH1 0xA0 SHL SUB DUP3 AND PUSH1 0x0 SWAP1 DUP2 MSTORE PUSH1 0x1 PUSH1 0x20 MSTORE PUSH1 0x40 SWAP1 KECCAK256 PUSH2 0x147B SWAP1 DUP3 PUSH2 0x1740 JUMP JUMPDEST PUSH2 0x14BD JUMPI PUSH1 0x40 MLOAD PUSH3 0x461BCD PUSH1 0xE5 SHL DUP2 MSTORE PUSH1 0x20 PUSH1 0x4 DUP3 ADD MSTORE PUSH1 0x13 PUSH1 0x24 DUP3 ADD MSTORE PUSH19 0x1A185B991B195C88185B1C9958591E481CD95D PUSH1 0x6A SHL PUSH1 0x44 DUP3 ADD MSTORE PUSH1 0x64 ADD PUSH2 0x3A2 JUMP JUMPDEST DUP1 PUSH1 0x1 PUSH1 0x1 PUSH1 0xA0 SHL SUB AND DUP3 PUSH1 0x1 PUSH1 0x1 PUSH1 0xA0 SHL SUB AND PUSH32 0xC2892F3AA5A025EFDF54A8A5B3EF7397FC15169328547915B9B5825A8C33E05F PUSH1 0x40 MLOAD PUSH1 0x40 MLOAD DUP1 SWAP2 SUB SWAP1 LOG3 POP POP JUMP JUMPDEST PUSH2 0x1509 PUSH2 0x1652 JUMP JUMPDEST PUSH1 0x1 PUSH1 0x1 PUSH1 0xA0 SHL SUB DUP2 AND PUSH2 0x156E JUMPI PUSH1 0x40 MLOAD PUSH3 0x461BCD PUSH1 0xE5 SHL DUP2 MSTORE PUSH1 0x20 PUSH1 0x4 DUP3 ADD MSTORE PUSH1 0x26 PUSH1 0x24 DUP3 ADD MSTORE PUSH32 0x4F776E61626C653A206E6577206F776E657220697320746865207A65726F2061 PUSH1 0x44 DUP3 ADD MSTORE PUSH6 0x646472657373 PUSH1 0xD0 SHL PUSH1 0x64 DUP3 ADD MSTORE PUSH1 0x84 ADD PUSH2 0x3A2 JUMP JUMPDEST PUSH2 0x1577 DUP2 PUSH2 0x16C1 JUMP JUMPDEST POP JUMP JUMPDEST PUSH1 0x0 DUP2 PUSH1 0xFF AND DUP4 PUSH1 0xFF AND SUB PUSH2 0x1590 JUMPI POP DUP3 PUSH2 0xEAB JUMP JUMPDEST DUP2 PUSH1 0xFF AND DUP4 PUSH1 0xFF AND GT ISZERO PUSH2 0x15B0 JUMPI PUSH2 0x15A9 DUP5 DUP5 DUP5 PUSH2 0x1755 JUMP JUMPDEST SWAP1 POP PUSH2 0xEAB JUMP JUMPDEST PUSH2 0x15BB DUP5 DUP5 DUP5 PUSH2 0x1776 JUMP JUMPDEST SWAP5 SWAP4 POP POP POP POP JUMP JUMPDEST PUSH1 0x0 PUSH2 0x15D1 PUSH1 0x12 PUSH1 0xA PUSH2 0x1D58 JUMP JUMPDEST PUSH2 0x15DB DUP4 DUP6 PUSH2 0x1D86 JUMP JUMPDEST PUSH2 0xEAB SWAP2 SWAP1 PUSH2 0x1D64 JUMP JUMPDEST PUSH1 0x0 DUP2 PUSH2 0x15F4 PUSH1 0x12 PUSH1 0xA PUSH2 0x1D58 JUMP JUMPDEST PUSH2 0x15DB SWAP1 DUP6 PUSH2 0x1D86 JUMP JUMPDEST PUSH1 0x0 PUSH2 0xA31 DUP3 SLOAD SWAP1 JUMP JUMPDEST PUSH1 0x0 PUSH2 0xEAB DUP4 DUP4 PUSH2 0x1797 JUMP JUMPDEST PUSH4 0x1E13380 PUSH1 0x3 SLOAD PUSH2 0x1626 SWAP2 SWAP1 PUSH2 0x1C48 JUMP JUMPDEST TIMESTAMP LT PUSH2 0xD04 JUMPI PUSH2 0x1634 PUSH2 0xA37 JUMP JUMPDEST PUSH1 0x2 SLOAD PUSH2 0x1649 SWAP1 PUSH8 0x58D15CA2DB11800 PUSH2 0x15C3 JUMP JUMPDEST PUSH1 0x2 SSTORE TIMESTAMP PUSH1 0x3 SSTORE JUMP JUMPDEST PUSH1 0x0 SLOAD PUSH1 0x1 PUSH1 0x1 PUSH1 0xA0 SHL SUB AND CALLER EQ PUSH2 0xD04 JUMPI PUSH1 0x40 MLOAD PUSH3 0x461BCD PUSH1 0xE5 SHL DUP2 MSTORE PUSH1 0x20 PUSH1 0x4 DUP3 ADD DUP2 SWAP1 MSTORE PUSH1 0x24 DUP3 ADD MSTORE PUSH32 0x4F776E61626C653A2063616C6C6572206973206E6F7420746865206F776E6572 PUSH1 0x44 DUP3 ADD MSTORE PUSH1 0x64 ADD PUSH2 0x3A2 JUMP JUMPDEST PUSH1 0x0 PUSH2 0xEAB DUP4 PUSH1 0x1 PUSH1 0x1 PUSH1 0xA0 SHL SUB DUP5 AND PUSH2 0x17C1 JUMP JUMPDEST PUSH1 0x0 DUP1 SLOAD PUSH1 0x1 PUSH1 0x1 PUSH1 0xA0 SHL SUB DUP4 DUP2 AND PUSH1 0x1 PUSH1 0x1 PUSH1 0xA0 SHL SUB NOT DUP4 AND DUP2 OR DUP5 SSTORE PUSH1 0x40 MLOAD SWAP2 SWAP1 SWAP3 AND SWAP3 DUP4 SWAP2 PUSH32 0x8BE0079C531659141344CD1FD0A4F28419497F9722A3DAAFE3B4186F6B6457E0 SWAP2 SWAP1 LOG3 POP POP JUMP JUMPDEST PUSH1 0x1 PUSH1 0x1 PUSH1 0xA0 SHL SUB DUP2 AND PUSH1 0x0 SWAP1 DUP2 MSTORE PUSH1 0x1 DUP4 ADD PUSH1 0x20 MSTORE PUSH1 0x40 DUP2 KECCAK256 SLOAD ISZERO ISZERO PUSH2 0xEAB JUMP JUMPDEST PUSH1 0x60 PUSH1 0x0 PUSH2 0xEAB DUP4 PUSH2 0x18B4 JUMP JUMPDEST PUSH1 0x0 PUSH2 0xEAB DUP4 PUSH1 0x1 PUSH1 0x1 PUSH1 0xA0 SHL SUB DUP5 AND PUSH2 0x1910 JUMP JUMPDEST PUSH1 0x0 PUSH2 0x1761 DUP3 DUP5 PUSH2 0x1D9D JUMP JUMPDEST PUSH2 0x176C SWAP1 PUSH1 0xA PUSH2 0x1DB6 JUMP JUMPDEST PUSH2 0x15BB SWAP1 DUP6 PUSH2 0x1D64 JUMP JUMPDEST PUSH1 0x0 PUSH2 0x1782 DUP4 DUP4 PUSH2 0x1D9D JUMP JUMPDEST PUSH2 0x178D SWAP1 PUSH1 0xA PUSH2 0x1DB6 JUMP JUMPDEST PUSH2 0x15BB SWAP1 DUP6 PUSH2 0x1D86 JUMP JUMPDEST PUSH1 0x0 DUP3 PUSH1 0x0 ADD DUP3 DUP2 SLOAD DUP2 LT PUSH2 0x17AE JUMPI PUSH2 0x17AE PUSH2 0x1BE0 JUMP JUMPDEST SWAP1 PUSH1 0x0 MSTORE PUSH1 0x20 PUSH1 0x0 KECCAK256 ADD SLOAD SWAP1 POP SWAP3 SWAP2 POP POP JUMP JUMPDEST PUSH1 0x0 DUP2 DUP2 MSTORE PUSH1 0x1 DUP4 ADD PUSH1 0x20 MSTORE PUSH1 0x40 DUP2 KECCAK256 SLOAD DUP1 ISZERO PUSH2 0x18AA JUMPI PUSH1 0x0 PUSH2 0x17E5 PUSH1 0x1 DUP4 PUSH2 0x1DC5 JUMP JUMPDEST DUP6 SLOAD SWAP1 SWAP2 POP PUSH1 0x0 SWAP1 PUSH2 0x17F9 SWAP1 PUSH1 0x1 SWAP1 PUSH2 0x1DC5 JUMP JUMPDEST SWAP1 POP DUP2 DUP2 EQ PUSH2 0x185E JUMPI PUSH1 0x0 DUP7 PUSH1 0x0 ADD DUP3 DUP2 SLOAD DUP2 LT PUSH2 0x1819 JUMPI PUSH2 0x1819 PUSH2 0x1BE0 JUMP JUMPDEST SWAP1 PUSH1 0x0 MSTORE PUSH1 0x20 PUSH1 0x0 KECCAK256 ADD SLOAD SWAP1 POP DUP1 DUP8 PUSH1 0x0 ADD DUP5 DUP2 SLOAD DUP2 LT PUSH2 0x183C JUMPI PUSH2 0x183C PUSH2 0x1BE0 JUMP JUMPDEST PUSH1 0x0 SWAP2 DUP3 MSTORE PUSH1 0x20 DUP1 DUP4 KECCAK256 SWAP1 SWAP2 ADD SWAP3 SWAP1 SWAP3 SSTORE SWAP2 DUP3 MSTORE PUSH1 0x1 DUP9 ADD SWAP1 MSTORE PUSH1 0x40 SWAP1 KECCAK256 DUP4 SWAP1 SSTORE JUMPDEST DUP6 SLOAD DUP7 SWAP1 DUP1 PUSH2 0x186F JUMPI PUSH2 0x186F PUSH2 0x1DD8 JUMP JUMPDEST PUSH1 0x1 SWAP1 SUB DUP2 DUP2 SWAP1 PUSH1 0x0 MSTORE PUSH1 0x20 PUSH1 0x0 KECCAK256 ADD PUSH1 0x0 SWAP1 SSTORE SWAP1 SSTORE DUP6 PUSH1 0x1 ADD PUSH1 0x0 DUP7 DUP2 MSTORE PUSH1 0x20 ADD SWAP1 DUP2 MSTORE PUSH1 0x20 ADD PUSH1 0x0 KECCAK256 PUSH1 0x0 SWAP1 SSTORE PUSH1 0x1 SWAP4 POP POP POP POP PUSH2 0xA31 JUMP JUMPDEST PUSH1 0x0 SWAP2 POP POP PUSH2 0xA31 JUMP JUMPDEST PUSH1 0x60 DUP2 PUSH1 0x0 ADD DUP1 SLOAD DUP1 PUSH1 0x20 MUL PUSH1 0x20 ADD PUSH1 0x40 MLOAD SWAP1 DUP2 ADD PUSH1 0x40 MSTORE DUP1 SWAP3 SWAP2 SWAP1 DUP2 DUP2 MSTORE PUSH1 0x20 ADD DUP3 DUP1 SLOAD DUP1 ISZERO PUSH2 0x1904 JUMPI PUSH1 0x20 MUL DUP3 ADD SWAP2 SWAP1 PUSH1 0x0 MSTORE PUSH1 0x20 PUSH1 0x0 KECCAK256 SWAP1 JUMPDEST DUP2 SLOAD DUP2 MSTORE PUSH1 0x20 ADD SWAP1 PUSH1 0x1 ADD SWAP1 DUP1 DUP4 GT PUSH2 0x18F0 JUMPI JUMPDEST POP POP POP POP POP SWAP1 POP SWAP2 SWAP1 POP JUMP JUMPDEST PUSH1 0x0 DUP2 DUP2 MSTORE PUSH1 0x1 DUP4 ADD PUSH1 0x20 MSTORE PUSH1 0x40 DUP2 KECCAK256 SLOAD PUSH2 0x1957 JUMPI POP DUP2 SLOAD PUSH1 0x1 DUP2 DUP2 ADD DUP5 SSTORE PUSH1 0x0 DUP5 DUP2 MSTORE PUSH1 0x20 DUP1 DUP3 KECCAK256 SWAP1 SWAP4 ADD DUP5 SWAP1 SSTORE DUP5 SLOAD DUP5 DUP3 MSTORE DUP3 DUP7 ADD SWAP1 SWAP4 MSTORE PUSH1 0x40 SWAP1 KECCAK256 SWAP2 SWAP1 SWAP2 SSTORE PUSH2 0xA31 JUMP JUMPDEST POP PUSH1 0x0 PUSH2 0xA31 JUMP JUMPDEST PUSH1 0x1 PUSH1 0x1 PUSH1 0xA0 SHL SUB DUP2 AND DUP2 EQ PUSH2 0x1577 JUMPI PUSH1 0x0 DUP1 REVERT JUMPDEST PUSH1 0x0 PUSH1 0x20 DUP3 DUP5 SUB SLT ISZERO PUSH2 0x1986 JUMPI PUSH1 0x0 DUP1 REVERT JUMPDEST DUP2 CALLDATALOAD PUSH2 0xEAB DUP2 PUSH2 0x195F JUMP JUMPDEST PUSH1 0x0 DUP1 PUSH1 0x0 PUSH1 0x60 DUP5 DUP7 SUB SLT ISZERO PUSH2 0x19A6 JUMPI PUSH1 0x0 DUP1 REVERT JUMPDEST DUP4 CALLDATALOAD PUSH2 0x19B1 DUP2 PUSH2 0x195F JUMP JUMPDEST SWAP6 PUSH1 0x20 DUP6 ADD CALLDATALOAD SWAP6 POP PUSH1 0x40 SWAP1 SWAP5 ADD CALLDATALOAD SWAP4 SWAP3 POP POP POP JUMP JUMPDEST PUSH1 0x0 DUP1 PUSH1 0x40 DUP4 DUP6 SUB SLT ISZERO PUSH2 0x19D9 JUMPI PUSH1 0x0 DUP1 REVERT JUMPDEST DUP3 CALLDATALOAD PUSH2 0x19E4 DUP2 PUSH2 0x195F JUMP JUMPDEST SWAP2 POP PUSH1 0x20 DUP4 ADD CALLDATALOAD PUSH2 0x19F4 DUP2 PUSH2 0x195F JUMP JUMPDEST DUP1 SWAP2 POP POP SWAP3 POP SWAP3 SWAP1 POP JUMP JUMPDEST PUSH1 0x0 DUP2 MLOAD DUP1 DUP5 MSTORE PUSH1 0x20 DUP1 DUP6 ADD SWAP5 POP DUP1 DUP5 ADD PUSH1 0x0 JUMPDEST DUP4 DUP2 LT ISZERO PUSH2 0x1A38 JUMPI DUP2 MLOAD PUSH1 0x1 PUSH1 0x1 PUSH1 0xA0 SHL SUB AND DUP8 MSTORE SWAP6 DUP3 ADD SWAP6 SWAP1 DUP3 ADD SWAP1 PUSH1 0x1 ADD PUSH2 0x1A13 JUMP JUMPDEST POP SWAP5 SWAP6 SWAP5 POP POP POP POP POP JUMP JUMPDEST PUSH1 0x20 DUP2 MSTORE PUSH1 0x0 PUSH2 0xEAB PUSH1 0x20 DUP4 ADD DUP5 PUSH2 0x19FF JUMP JUMPDEST PUSH1 0x60 DUP2 MSTORE PUSH1 0x0 PUSH2 0x1A69 PUSH1 0x60 DUP4 ADD DUP7 PUSH2 0x19FF JUMP JUMPDEST DUP3 DUP2 SUB PUSH1 0x20 DUP5 DUP2 ADD SWAP2 SWAP1 SWAP2 MSTORE DUP6 MLOAD DUP1 DUP4 MSTORE DUP7 DUP3 ADD SWAP3 DUP3 ADD SWAP1 PUSH1 0x0 JUMPDEST DUP2 DUP2 LT ISZERO PUSH2 0x1AA0 JUMPI DUP5 MLOAD DUP4 MSTORE SWAP4 DUP4 ADD SWAP4 SWAP2 DUP4 ADD SWAP2 PUSH1 0x1 ADD PUSH2 0x1A84 JUMP JUMPDEST POP POP DUP1 SWAP4 POP POP POP POP DUP3 PUSH1 0x40 DUP4 ADD MSTORE SWAP5 SWAP4 POP POP POP POP JUMP JUMPDEST PUSH1 0x0 PUSH1 0x20 DUP3 DUP5 SUB SLT ISZERO PUSH2 0x1AC8 JUMPI PUSH1 0x0 DUP1 REVERT JUMPDEST DUP2 MLOAD DUP1 ISZERO ISZERO DUP2 EQ PUSH2 0xEAB JUMPI PUSH1 0x0 DUP1 REVERT JUMPDEST PUSH1 0x0 PUSH1 0x20 DUP3 DUP5 SUB SLT ISZERO PUSH2 0x1AEA JUMPI PUSH1 0x0 DUP1 REVERT JUMPDEST DUP2 MLOAD PUSH2 0xEAB DUP2 PUSH2 0x195F JUMP JUMPDEST PUSH4 0x4E487B71 PUSH1 0xE0 SHL PUSH1 0x0 MSTORE PUSH1 0x41 PUSH1 0x4 MSTORE PUSH1 0x24 PUSH1 0x0 REVERT JUMPDEST DUP1 MLOAD PUSH2 0x1B16 DUP2 PUSH2 0x195F JUMP JUMPDEST SWAP2 SWAP1 POP JUMP JUMPDEST PUSH1 0x0 PUSH1 0x20 DUP1 DUP4 DUP6 SUB SLT ISZERO PUSH2 0x1B2E JUMPI PUSH1 0x0 DUP1 REVERT JUMPDEST DUP3 MLOAD PUSH8 0xFFFFFFFFFFFFFFFF DUP1 DUP3 GT ISZERO PUSH2 0x1B46 JUMPI PUSH1 0x0 DUP1 REVERT JUMPDEST DUP2 DUP6 ADD SWAP2 POP DUP6 PUSH1 0x1F DUP4 ADD SLT PUSH2 0x1B5A JUMPI PUSH1 0x0 DUP1 REVERT JUMPDEST DUP2 MLOAD DUP2 DUP2 GT ISZERO PUSH2 0x1B6C JUMPI PUSH2 0x1B6C PUSH2 0x1AF5 JUMP JUMPDEST DUP1 PUSH1 0x5 SHL PUSH1 0x40 MLOAD PUSH1 0x1F NOT PUSH1 0x3F DUP4 ADD AND DUP2 ADD DUP2 DUP2 LT DUP6 DUP3 GT OR ISZERO PUSH2 0x1B91 JUMPI PUSH2 0x1B91 PUSH2 0x1AF5 JUMP JUMPDEST PUSH1 0x40 MSTORE SWAP2 DUP3 MSTORE DUP5 DUP3 ADD SWAP3 POP DUP4 DUP2 ADD DUP6 ADD SWAP2 DUP9 DUP4 GT ISZERO PUSH2 0x1BAF JUMPI PUSH1 0x0 DUP1 REVERT JUMPDEST SWAP4 DUP6 ADD SWAP4 JUMPDEST DUP3 DUP6 LT ISZERO PUSH2 0x1BD4 JUMPI PUSH2 0x1BC5 DUP6 PUSH2 0x1B0B JUMP JUMPDEST DUP5 MSTORE SWAP4 DUP6 ADD SWAP4 SWAP3 DUP6 ADD SWAP3 PUSH2 0x1BB4 JUMP JUMPDEST SWAP9 SWAP8 POP POP POP POP POP POP POP POP JUMP JUMPDEST PUSH4 0x4E487B71 PUSH1 0xE0 SHL PUSH1 0x0 MSTORE PUSH1 0x32 PUSH1 0x4 MSTORE PUSH1 0x24 PUSH1 0x0 REVERT JUMPDEST PUSH1 0x0 PUSH1 0x20 DUP3 DUP5 SUB SLT ISZERO PUSH2 0x1C08 JUMPI PUSH1 0x0 DUP1 REVERT JUMPDEST POP MLOAD SWAP2 SWAP1 POP JUMP JUMPDEST PUSH1 0x0 PUSH1 0x20 DUP3 DUP5 SUB SLT ISZERO PUSH2 0x1C21 JUMPI PUSH1 0x0 DUP1 REVERT JUMPDEST DUP2 MLOAD PUSH1 0xFF DUP2 AND DUP2 EQ PUSH2 0xEAB JUMPI PUSH1 0x0 DUP1 REVERT JUMPDEST PUSH4 0x4E487B71 PUSH1 0xE0 SHL PUSH1 0x0 MSTORE PUSH1 0x11 PUSH1 0x4 MSTORE PUSH1 0x24 PUSH1 0x0 REVERT JUMPDEST DUP1 DUP3 ADD DUP1 DUP3 GT ISZERO PUSH2 0xA31 JUMPI PUSH2 0xA31 PUSH2 0x1C32 JUMP JUMPDEST PUSH1 0x0 PUSH1 0x1 DUP3 ADD PUSH2 0x1C6D JUMPI PUSH2 0x1C6D PUSH2 0x1C32 JUMP JUMPDEST POP PUSH1 0x1 ADD SWAP1 JUMP JUMPDEST PUSH1 0x1 DUP2 DUP2 JUMPDEST DUP1 DUP6 GT ISZERO PUSH2 0x1CAF JUMPI DUP2 PUSH1 0x0 NOT DIV DUP3 GT ISZERO PUSH2 0x1C95 JUMPI PUSH2 0x1C95 PUSH2 0x1C32 JUMP JUMPDEST DUP1 DUP6 AND ISZERO PUSH2 0x1CA2 JUMPI SWAP2 DUP2 MUL SWAP2 JUMPDEST SWAP4 DUP5 SHR SWAP4 SWAP1 DUP1 MUL SWAP1 PUSH2 0x1C79 JUMP JUMPDEST POP SWAP3 POP SWAP3 SWAP1 POP JUMP JUMPDEST PUSH1 0x0 DUP3 PUSH2 0x1CC6 JUMPI POP PUSH1 0x1 PUSH2 0xA31 JUMP JUMPDEST DUP2 PUSH2 0x1CD3 JUMPI POP PUSH1 0x0 PUSH2 0xA31 JUMP JUMPDEST DUP2 PUSH1 0x1 DUP2 EQ PUSH2 0x1CE9 JUMPI PUSH1 0x2 DUP2 EQ PUSH2 0x1CF3 JUMPI PUSH2 0x1D0F JUMP JUMPDEST PUSH1 0x1 SWAP2 POP POP PUSH2 0xA31 JUMP JUMPDEST PUSH1 0xFF DUP5 GT ISZERO PUSH2 0x1D04 JUMPI PUSH2 0x1D04 PUSH2 0x1C32 JUMP JUMPDEST POP POP PUSH1 0x1 DUP3 SHL PUSH2 0xA31 JUMP JUMPDEST POP PUSH1 0x20 DUP4 LT PUSH2 0x133 DUP4 LT AND PUSH1 0x4E DUP5 LT PUSH1 0xB DUP5 LT AND OR ISZERO PUSH2 0x1D32 JUMPI POP DUP2 DUP2 EXP PUSH2 0xA31 JUMP JUMPDEST PUSH2 0x1D3C DUP4 DUP4 PUSH2 0x1C74 JUMP JUMPDEST DUP1 PUSH1 0x0 NOT DIV DUP3 GT ISZERO PUSH2 0x1D50 JUMPI PUSH2 0x1D50 PUSH2 0x1C32 JUMP JUMPDEST MUL SWAP4 SWAP3 POP POP POP JUMP JUMPDEST PUSH1 0x0 PUSH2 0xEAB DUP4 DUP4 PUSH2 0x1CB7 JUMP JUMPDEST PUSH1 0x0 DUP3 PUSH2 0x1D81 JUMPI PUSH4 0x4E487B71 PUSH1 0xE0 SHL PUSH1 0x0 MSTORE PUSH1 0x12 PUSH1 0x4 MSTORE PUSH1 0x24 PUSH1 0x0 REVERT JUMPDEST POP DIV SWAP1 JUMP JUMPDEST DUP1 DUP3 MUL DUP2 ISZERO DUP3 DUP3 DIV DUP5 EQ OR PUSH2 0xA31 JUMPI PUSH2 0xA31 PUSH2 0x1C32 JUMP JUMPDEST PUSH1 0xFF DUP3 DUP2 AND DUP3 DUP3 AND SUB SWAP1 DUP2 GT ISZERO PUSH2 0xA31 JUMPI PUSH2 0xA31 PUSH2 0x1C32 JUMP JUMPDEST PUSH1 0x0 PUSH2 0xEAB PUSH1 0xFF DUP5 AND DUP4 PUSH2 0x1CB7 JUMP JUMPDEST DUP2 DUP2 SUB DUP2 DUP2 GT ISZERO PUSH2 0xA31 JUMPI PUSH2 0xA31 PUSH2 0x1C32 JUMP JUMPDEST PUSH4 0x4E487B71 PUSH1 0xE0 SHL PUSH1 0x0 MSTORE PUSH1 0x31 PUSH1 0x4 MSTORE PUSH1 0x24 PUSH1 0x0 REVERT INVALID LOG2 PUSH5 0x6970667358 0x22 SLT KECCAK256 0x2C 0xA9 CREATE 0xD 0xAF SGT DUP6 SDIV SWAP15 0xD LOG3 GASLIMIT 0xB0 0xA5 SGT DUP4 RETURNDATASIZE 0xFC BALANCE PUSH22 0xCF648A4CA5080AC40302222B64736F6C634300081100 CALLER ","sha1":"61a9ce8ab3555da4117e445ed06b30aaddacb46a","source":"// SPDX-License-Identifier: GPL-3.0-or-later\npragma solidity 0.8.17;\n\nimport \"@openzeppelin/contracts/access/Ownable.sol\";\nimport \"@openzeppelin/contracts/utils/structs/EnumerableSet.sol\";\n\nimport \"../../interfaces/tokenomics/IRebalancingRewardsHandler.sol\";\nimport \"../../interfaces/tokenomics/IInflationManager.sol\";\nimport \"../../interfaces/IController.sol\";\nimport \"../../interfaces/tokenomics/ICNCToken.sol\";\nimport \"../../interfaces/pools/IConicPool.sol\";\nimport \"../../interfaces/pools/ILpToken.sol\";\n\nimport \"../../libraries/ScaledMath.sol\";\n\ncontract InflationManager is IInflationManager, Ownable {\n    using ScaledMath for uint256;\n    using EnumerableSet for EnumerableSet.AddressSet;\n\n    ICNCToken public constant CNC = ICNCToken(0x9aE380F0272E2162340a5bB646c354271c0F5cFC);\n\n    IController public immutable controller;\n\n    uint256 internal constant _INITIAL_INFLATION_RATE = 1_500_000 * 1e18;\n    uint256 internal constant _INFLATION_RATE_DECAY = 0.3999999 * 1e18;\n    uint256 internal constant _INFLATION_RATE_PERIOD = 365 days;\n    // 155 days 66228 seconds: 1st of March 2023 (2023-03-01T14:34:23) to August 4th 2023 (2023-08-04T08:58:11)\n    uint256 internal constant _INFLATION_SECONDS_USED = 13_458_228;\n\n    /// @dev mapping from conic pool to their rebalancing reward handlers\n    mapping(address => EnumerableSet.AddressSet) internal _rebalancingRewardHandlers;\n\n    uint256 public override currentInflationRate;\n    uint256 public lastInflationRateDecay;\n    uint256 public totalLpInflationMinted;\n\n    mapping(address => uint256) public currentPoolWeights;\n\n    constructor(address _controller) Ownable() {\n        require(_controller != address(0), \"Cannot use zero address for controller\");\n        controller = IController(_controller);\n\n        currentInflationRate = _INITIAL_INFLATION_RATE / _INFLATION_RATE_PERIOD;\n        lastInflationRateDecay = block.timestamp - _INFLATION_SECONDS_USED;\n    }\n\n    /// @notice returns the weights of the Conic pools to know how much inflation\n    /// each of them will receive. totalUSDValue only accounts for funds in active pools\n    function computePoolWeights()\n        public\n        view\n        override\n        returns (address[] memory pools, uint256[] memory poolWeights, uint256 totalUSDValue)\n    {\n        IOracle oracle = controller.priceOracle();\n        pools = controller.listPools();\n        uint256[] memory poolUSDValues = new uint256[](pools.length);\n        for (uint256 i; i < pools.length; i++) {\n            if (controller.isActivePool(pools[i])) {\n                IConicPool pool = IConicPool(pools[i]);\n                IERC20Metadata underlying = pool.underlying();\n                uint256 price = oracle.getUSDPrice(address(underlying));\n                uint256 poolUSDValue = pool\n                    .cachedTotalUnderlying()\n                    .convertScale(underlying.decimals(), 18)\n                    .mulDown(price);\n                poolUSDValues[i] = poolUSDValue;\n                totalUSDValue += poolUSDValue;\n            }\n        }\n\n        poolWeights = new uint256[](pools.length);\n\n        if (totalUSDValue == 0) {\n            for (uint256 i; i < pools.length; i++) {\n                poolWeights[i] = ScaledMath.ONE / pools.length;\n            }\n        } else {\n            for (uint256 i; i < pools.length; i++) {\n                poolWeights[i] = poolUSDValues[i].divDown(totalUSDValue);\n            }\n        }\n    }\n\n    /// @notice Same as `computePoolWeights` but only returns the value for a single pool\n    /// totalUSDValue only accounts for funds in active pools\n    function computePoolWeight(\n        address pool\n    ) public view returns (uint256 poolWeight, uint256 totalUSDValue) {\n        require(controller.isPool(pool), \"pool not found\");\n        IOracle oracle = controller.priceOracle();\n        address[] memory pools = controller.listPools();\n        uint256 poolUSDValue;\n        for (uint256 i; i < pools.length; i++) {\n            if (controller.isActivePool(pools[i])) {\n                IConicPool currentPool = IConicPool(pools[i]);\n                IERC20Metadata underlying = currentPool.underlying();\n                uint256 price = oracle.getUSDPrice(address(underlying));\n                uint256 usdValue = currentPool\n                    .cachedTotalUnderlying()\n                    .convertScale(underlying.decimals(), 18)\n                    .mulDown(price);\n                totalUSDValue += usdValue;\n                if (address(currentPool) == pool) poolUSDValue = usdValue;\n            }\n        }\n\n        if (!controller.isActivePool(pool)) {\n            return (0, totalUSDValue);\n        }\n        poolWeight = totalUSDValue == 0\n            ? ScaledMath.ONE / pools.length\n            : poolUSDValue.divDown(totalUSDValue);\n    }\n\n    function executeInflationRateUpdate() external override {\n        _executeInflationRateUpdate();\n    }\n\n    function handleRebalancingRewards(\n        address account,\n        uint256 deviationBefore,\n        uint256 deviationAfter\n    ) external {\n        require(controller.isPool(msg.sender), \"only pools can call this function\");\n        for (uint256 i; i < _rebalancingRewardHandlers[msg.sender].length(); i++) {\n            address handler = _rebalancingRewardHandlers[msg.sender].at(i);\n            IRebalancingRewardsHandler(handler).handleRebalancingRewards(\n                IConicPool(msg.sender),\n                account,\n                deviationBefore,\n                deviationAfter\n            );\n        }\n    }\n\n    function addPoolRebalancingRewardHandler(\n        address poolAddress,\n        address rebalancingRewardHandler\n    ) external override onlyOwner {\n        require(controller.isPool(poolAddress), \"invalid pool\");\n        require(\n            _rebalancingRewardHandlers[poolAddress].add(rebalancingRewardHandler),\n            \"handler already set\"\n        );\n\n        emit RebalancingRewardHandlerAdded(poolAddress, rebalancingRewardHandler);\n    }\n\n    function removePoolRebalancingRewardHandler(\n        address poolAddress,\n        address rebalancingRewardHandler\n    ) external override onlyOwner {\n        require(controller.isPool(poolAddress), \"invalid pool\");\n        require(\n            _rebalancingRewardHandlers[poolAddress].remove(rebalancingRewardHandler),\n            \"handler not set\"\n        );\n        emit RebalancingRewardHandlerRemoved(poolAddress, rebalancingRewardHandler);\n    }\n\n    function hasPoolRebalancingRewardHandler(\n        address poolAddress,\n        address handler\n    ) external view returns (bool) {\n        return _rebalancingRewardHandlers[poolAddress].contains(handler);\n    }\n\n    function rebalancingRewardHandlers(\n        address poolAddress\n    ) external view returns (address[] memory) {\n        return _rebalancingRewardHandlers[poolAddress].values();\n    }\n\n    function updatePoolWeights() public override {\n        (address[] memory _pools, uint256[] memory poolWeights, ) = computePoolWeights();\n        uint256 numPools = _pools.length;\n        ILpTokenStaker lpTokenStaker = controller.lpTokenStaker();\n        for (uint256 i; i < numPools; i++) {\n            address conicPool = _pools[i];\n            IConicPool(conicPool).runSanityChecks();\n            IRewardManager(IConicPool(conicPool).rewardManager()).poolCheckpoint();\n            lpTokenStaker.checkpoint(conicPool);\n            currentPoolWeights[conicPool] = poolWeights[i];\n        }\n        emit PoolWeightsUpdated();\n    }\n\n    /// @dev Pool weights will be updated periodically\n    function getCurrentPoolInflationRate(address pool) external view override returns (uint256) {\n        return currentInflationRate.mulDown(currentPoolWeights[pool]);\n    }\n\n    function _executeInflationRateUpdate() internal {\n        if (block.timestamp >= lastInflationRateDecay + _INFLATION_RATE_PERIOD) {\n            updatePoolWeights();\n            currentInflationRate = currentInflationRate.mulDown(_INFLATION_RATE_DECAY);\n            lastInflationRateDecay = block.timestamp;\n        }\n    }\n}\n","sourcePath":"contracts/tokenomics/InflationManager.sol","type":"contract","deployment":{"address":"0x05F494E6554fab539873dcF92A4D2F6930105B16","chainid":"1","blockHeight":19070686}}