{"abi":[{"inputs":[{"internalType":"address","name":"controller_","type":"address"}],"stateMutability":"nonpayable","type":"constructor","name":"constructor"},{"inputs":[{"internalType":"address","name":"pool","type":"address"},{"internalType":"uint256","name":"assetA","type":"uint256"},{"internalType":"uint256","name":"assetB","type":"uint256"}],"name":"NotWithinThreshold","type":"error"},{"anonymous":false,"inputs":[{"indexed":true,"internalType":"address","name":"token","type":"address"},{"indexed":false,"internalType":"uint256","name":"threshold","type":"uint256"}],"name":"ImbalanceThresholdUpdated","type":"event"},{"anonymous":false,"inputs":[{"indexed":true,"internalType":"address","name":"token","type":"address"},{"indexed":false,"internalType":"uint256","name":"threshold","type":"uint256"}],"name":"InternalImbalanceThresholdUpdated","type":"event"},{"anonymous":false,"inputs":[{"indexed":true,"internalType":"address","name":"previousOwner","type":"address"},{"indexed":true,"internalType":"address","name":"newOwner","type":"address"}],"name":"OwnershipTransferred","type":"event"},{"anonymous":false,"inputs":[{"indexed":true,"internalType":"address","name":"token","type":"address"},{"indexed":false,"internalType":"address","name":"feed","type":"address"},{"indexed":false,"internalType":"uint256","name":"maxDelay","type":"uint256"},{"indexed":false,"internalType":"bool","name":"isEthPrice","type":"bool"}],"name":"TokenUpdated","type":"event"},{"inputs":[{"internalType":"address","name":"","type":"address"}],"name":"customImbalanceBuffers","outputs":[{"internalType":"uint256","name":"","type":"uint256"}],"stateMutability":"view","type":"function"},{"inputs":[{"internalType":"address","name":"","type":"address"}],"name":"customInternalImbalanceBuffers","outputs":[{"internalType":"uint256","name":"","type":"uint256"}],"stateMutability":"view","type":"function"},{"inputs":[{"internalType":"address","name":"token","type":"address"}],"name":"getUSDPrice","outputs":[{"internalType":"uint256","name":"","type":"uint256"}],"stateMutability":"view","type":"function"},{"inputs":[{"internalType":"address","name":"token","type":"address"}],"name":"isTokenSupported","outputs":[{"internalType":"bool","name":"","type":"bool"}],"stateMutability":"view","type":"function"},{"inputs":[],"name":"owner","outputs":[{"internalType":"address","name":"","type":"address"}],"stateMutability":"view","type":"function"},{"inputs":[],"name":"renounceOwnership","outputs":[],"stateMutability":"nonpayable","type":"function"},{"inputs":[{"internalType":"address","name":"token","type":"address"},{"internalType":"uint256","name":"buffer","type":"uint256"}],"name":"setImbalanceThreshold","outputs":[],"stateMutability":"nonpayable","type":"function"},{"inputs":[{"internalType":"address","name":"token","type":"address"},{"internalType":"uint256","name":"buffer","type":"uint256"}],"name":"setInternalImbalanceThreshold","outputs":[],"stateMutability":"nonpayable","type":"function"},{"inputs":[{"internalType":"address","name":"newOwner","type":"address"}],"name":"transferOwnership","outputs":[],"stateMutability":"nonpayable","type":"function"}],"bytecode":"60a060405234801561001057600080fd5b5060405162001b5138038062001b518339810160408190526100319161009b565b61003a3361004b565b6001600160a01b03166080526100cb565b600080546001600160a01b038381166001600160a01b0319831681178455604051919092169283917f8be0079c531659141344cd1fd0a4f28419497f9722a3daafe3b4186f6b6457e09190a35050565b6000602082840312156100ad57600080fd5b81516001600160a01b03811681146100c457600080fd5b9392505050565b608051611a476200010a60003960008181610248015281816102db015281816106f6015281816107e70152818161087a0152610f560152611a476000f3fe608060405234801561001057600080fd5b50600436106100935760003560e01c806375151b631161006657806375151b63146101085780638b2f0f4f1461012b5780638da5cb5b1461013e578063bfd1bbc414610159578063f2fde38b1461016c57600080fd5b806338726f0814610098578063523acec8146100ad5780636bf69111146100e0578063715018a614610100575b600080fd5b6100ab6100a63660046115ed565b61017f565b005b6100cd6100bb366004611619565b60026020526000908152604090205481565b6040519081526020015b60405180910390f35b6100cd6100ee366004611619565b60016020526000908152604090205481565b6100ab61022f565b61011b610116366004611619565b610243565b60405190151581526020016100d7565b6100cd610139366004611619565b61051d565b6000546040516001600160a01b0390911681526020016100d7565b6100ab6101673660046115ed565b610530565b6100ab61017a366004611619565b6105cf565b610187610648565b67016345785d8a00008111156101d65760405162461bcd60e51b815260206004820152600f60248201526e0c4eacccccae440e8dede40d0d2ced608b1b60448201526064015b60405180910390fd5b6001600160a01b03821660008181526001602052604090819020839055517f7b718dc4e7c7ee990f859e57df5619938b679591799489da97280f53d0295439906102239084815260200190565b60405180910390a25050565b610237610648565b61024160006106a2565b565b6000807f00000000000000000000000000000000000000000000000000000000000000006001600160a01b0316632630c12f6040518163ffffffff1660e01b8152600401602060405180830381865afa1580156102a4573d6000803e3d6000fd5b505050506040513d601f19601f820116820180604052508101906102c89190611636565b905060006102d5846106f2565b905060007f00000000000000000000000000000000000000000000000000000000000000006001600160a01b0316639f82b2176040518163ffffffff1660e01b8152600401602060405180830381865afa158015610337573d6000803e3d6000fd5b505050506040513d601f19601f8201168201806040525081019061035b9190611636565b60405163c3c5a54760e01b81526001600160a01b0384811660048301529192509082169063c3c5a54790602401602060405180830381865afa1580156103a5573d6000803e3d6000fd5b505050506040513d601f19601f820116820180604052508101906103c99190611653565b6103d857506000949350505050565b604051630fa1ef5160e31b81526001600160a01b03838116600483015260009190831690637d0f7a8890602401600060405180830381865afa158015610422573d6000803e3d6000fd5b505050506040513d6000823e601f3d908101601f1916820160405261044a91908101906116e0565b905060005b815181101561051057846001600160a01b03166375151b638383815181106104795761047961177f565b60200260200101516040518263ffffffff1660e01b81526004016104ac91906001600160a01b0391909116815260200190565b602060405180830381865afa1580156104c9573d6000803e3d6000fd5b505050506040513d601f19601f820116820180604052508101906104ed9190611653565b6104fe575060009695505050505050565b80610508816117ab565b91505061044f565b5060019695505050505050565b600061052a8260006107e2565b92915050565b610538610648565b67016345785d8a00008111156105825760405162461bcd60e51b815260206004820152600f60248201526e0c4eacccccae440e8dede40d0d2ced608b1b60448201526064016101cd565b6001600160a01b03821660008181526002602052604090819020839055517f51c89a307557aeea126c4caefee33731a9195f3b2c41b443e6a22fa5160f31b1906102239084815260200190565b6105d7610648565b6001600160a01b03811661063c5760405162461bcd60e51b815260206004820152602660248201527f4f776e61626c653a206e6577206f776e657220697320746865207a65726f206160448201526564647265737360d01b60648201526084016101cd565b610645816106a2565b50565b6000546001600160a01b031633146102415760405162461bcd60e51b815260206004820181905260248201527f4f776e61626c653a2063616c6c6572206973206e6f7420746865206f776e657260448201526064016101cd565b600080546001600160a01b038381166001600160a01b0319831681178455604051919092169283917f8be0079c531659141344cd1fd0a4f28419497f9722a3daafe3b4186f6b6457e09190a35050565b60007f00000000000000000000000000000000000000000000000000000000000000006001600160a01b0316639f82b2176040518163ffffffff1660e01b8152600401602060405180830381865afa158015610752573d6000803e3d6000fd5b505050506040513d601f19601f820116820180604052508101906107769190611636565b604051634060c02560e01b81526001600160a01b0384811660048301529190911690634060c02590602401602060405180830381865afa1580156107be573d6000803e3d6000fd5b505050506040513d601f19601f8201168201806040525081019061052a9190611636565b6000807f00000000000000000000000000000000000000000000000000000000000000006001600160a01b0316632630c12f6040518163ffffffff1660e01b8152600401602060405180830381865afa158015610843573d6000803e3d6000fd5b505050506040513d601f19601f820116820180604052508101906108679190611636565b90506000610874856106f2565b905060007f00000000000000000000000000000000000000000000000000000000000000006001600160a01b0316639f82b2176040518163ffffffff1660e01b8152600401602060405180830381865afa1580156108d6573d6000803e3d6000fd5b505050506040513d601f19601f820116820180604052508101906108fa9190611636565b60405163c3c5a54760e01b81526001600160a01b0384811660048301529192509082169063c3c5a54790602401602060405180830381865afa158015610944573d6000803e3d6000fd5b505050506040513d601f19601f820116820180604052508101906109689190611653565b6109aa5760405162461bcd60e51b81526020600482015260136024820152721d1bdad95b881b9bdd081cdd5c1c1bdc9d1959606a1b60448201526064016101cd565b604051636a24d41960e11b81526001600160a01b0383811660048301526000919083169063d449a83290602401600060405180830381865afa1580156109f4573d6000803e3d6000fd5b505050506040513d6000823e601f3d908101601f19168201604052610a1c91908101906117c4565b604051630fa1ef5160e31b81526001600160a01b038581166004830152919250600091841690637d0f7a8890602401600060405180830381865afa158015610a68573d6000803e3d6000fd5b505050506040513d6000823e601f3d908101601f19168201604052610a9091908101906116e0565b604051635f92e81560e11b81526001600160a01b03868116600483015291925060009182919086169063bf25d02a90602401602060405180830381865afa158015610adf573d6000803e3d6000fd5b505050506040513d601f19601f82011682018060405250810190610b03919061184a565b905060008167ffffffffffffffff811115610b2057610b20611675565b604051908082528060200260200182016040528015610b49578160200160208202803683370190505b50905060008267ffffffffffffffff811115610b6757610b67611675565b604051908082528060200260200182016040528015610b90578160200160208202803683370190505b50905060005b83811015610e23576000868281518110610bb257610bb261177f565b6020908102919091010151604051630869e91760e11b81526001600160a01b0380831660048301529192506000918d16906310d3d22e90602401602060405180830381865afa158015610c09573d6000803e3d6000fd5b505050506040513d601f19601f82011682018060405250810190610c2d9190611636565b905060008e610c54576001600160a01b038316600090815260016020526040902054610c6e565b6001600160a01b0383166000908152600260205260409020545b905060006001600160a01b0383163014610cf157604051638b2f0f4f60e01b81526001600160a01b038581166004830152841690638b2f0f4f90602401602060405180830381865afa158015610cc8573d6000803e3d6000fd5b505050506040513d601f19601f82011682018060405250810190610cec919061184a565b610cfc565b610cfc8460016107e2565b905080878681518110610d1157610d1161177f565b60200260200101818152505081868681518110610d3057610d3061177f565b60200260200101818152505060008111610d795760405162461bcd60e51b815260206004820152600a6024820152690707269636520697320360b41b60448201526064016101cd565b6000610d858e87610f52565b905060008111610dc65760405162461bcd60e51b815260206004820152600c60248201526b062616c616e636520697320360a41b60448201526064016101cd565b610dff82610df98e8981518110610ddf57610ddf61177f565b602002602001015160128561112b9092919063ffffffff16565b90611174565b610e09908b611863565b995050505050508080610e1b906117ab565b915050610b96565b506040805160c0810182526001600160a01b03808b168083526020830187905283516372056c6560e11b81526004810191909152610ed6938301918b169063e40ad8ca90602401602060405180830381865afa158015610e87573d6000803e3d6000fd5b505050506040513d601f19601f82011682018060405250810190610eab9190611876565b6004811115610ebc57610ebc611897565b815260200188815260200184815260200183815250611196565b610f428c6001600160a01b03166318160ddd6040518163ffffffff1660e01b8152600401602060405180830381865afa158015610f17573d6000803e3d6000fd5b505050506040513d601f19601f82011682018060405250810190610f3b919061184a565b85906114f6565b9c9b505050505050505050505050565b60007f00000000000000000000000000000000000000000000000000000000000000006001600160a01b0316639f82b2176040518163ffffffff1660e01b8152600401602060405180830381865afa158015610fb2573d6000803e3d6000fd5b505050506040513d601f19601f82011682018060405250810190610fd69190611636565b604051630bb075af60e11b81526001600160a01b0385811660048301529190911690631760eb5e90602401602060405180830381865afa15801561101e573d6000803e3d6000fd5b505050506040513d601f19601f82011682018060405250810190611042919061184a565b6000036110bb5760405162cb501b60e31b8152600f83900b60048201526001600160a01b0384169063065a80d890602401602060405180830381865afa158015611090573d6000803e3d6000fd5b505050506040513d601f19601f820116820180604052508101906110b4919061184a565b905061052a565b604051634903b0d160e01b8152600481018390526001600160a01b03841690634903b0d190602401602060405180830381865afa158015611100573d6000803e3d6000fd5b505050506040513d601f19601f82011682018060405250810190611124919061184a565b9392505050565b60008160ff168360ff1603611141575082611124565b8160ff168360ff1611156111615761115a84848461150f565b9050611124565b61116c848484611530565b949350505050565b60006111826012600a611991565b61118c838561199d565b61112491906119b4565b600061120c600a601284600001516001600160a01b031663ddca3f436040518163ffffffff1660e01b8152600401602060405180830381865afa1580156111e1573d6000803e3d6000fd5b505050506040513d601f19601f82011682018060405250810190611205919061184a565b919061112b565b905060005b6001836020015161122291906119d6565b8110156114f1576000836060015182815181106112415761124161177f565b60200260200101519050600081600a61125a9190611991565b90506000856080015184815181106112745761127461177f565b60200260200101519050600084600161128d9190611863565b90505b86602001518110156114da576000876060015182815181106112b4576112b461177f565b602002602001015190506000886080015183815181106112d6576112d661177f565b6020026020010151905060008185876112ef919061199d565b6112f991906119b4565b9050600061130882898661112b565b9050600060048c60400151600481111561132457611324611897565b036113aa578b5160405163556d6e9f60e01b8152600481018c905260248101889052604481018a90526001600160a01b039091169063556d6e9f90606401602060405180830381865afa15801561137f573d6000803e3d6000fd5b505050506040513d601f19601f820116820180604052508101906113a3919061184a565b905061142b565b8b51604051635e0d443f60e01b8152600f8c810b600483015288900b6024820152604481018a90526001600160a01b0390911690635e0d443f90606401602060405180830381865afa158015611404573d6000803e3d6000fd5b505050506040513d601f19601f82011682018060405250810190611428919061184a565b90505b600061147a8d60a0015188815181106114465761144661177f565b60200260200101518e60a001518d815181106114645761146461177f565b602002602001015161155190919063ffffffff16565b905061148883838e84611568565b6114c1578c5160405163c512c56b60e01b81526001600160a01b039091166004820152602481018c9052604481018890526064016101cd565b50505050505080806114d2906117ab565b915050611290565b5050505080806114e9906117ab565b915050611211565b505050565b6000816115056012600a611991565b61118c908561199d565b600061151b82846119e9565b61152690600a611a02565b61116c90856119b4565b600061153c83836119e9565b61154790600a611a02565b61116c908561199d565b6000818310156115615781611124565b5090919050565b60008160000361157d57660aa87bee53800091505b600061158a60038561199d565b6115949084611863565b9050848611156115bd57806115b3876115ad88826119d6565b906114f6565b111591505061116c565b806115cc866115ad89826119d6565b11159695505050505050565b6001600160a01b038116811461064557600080fd5b6000806040838503121561160057600080fd5b823561160b816115d8565b946020939093013593505050565b60006020828403121561162b57600080fd5b8135611124816115d8565b60006020828403121561164857600080fd5b8151611124816115d8565b60006020828403121561166557600080fd5b8151801515811461112457600080fd5b634e487b7160e01b600052604160045260246000fd5b604051601f8201601f1916810167ffffffffffffffff811182821017156116b4576116b4611675565b604052919050565b600067ffffffffffffffff8211156116d6576116d6611675565b5060051b60200190565b600060208083850312156116f357600080fd5b825167ffffffffffffffff81111561170a57600080fd5b8301601f8101851361171b57600080fd5b805161172e611729826116bc565b61168b565b81815260059190911b8201830190838101908783111561174d57600080fd5b928401925b82841015611774578351611765816115d8565b82529284019290840190611752565b979650505050505050565b634e487b7160e01b600052603260045260246000fd5b634e487b7160e01b600052601160045260246000fd5b6000600182016117bd576117bd611795565b5060010190565b600060208083850312156117d757600080fd5b825167ffffffffffffffff8111156117ee57600080fd5b8301601f810185136117ff57600080fd5b805161180d611729826116bc565b81815260059190911b8201830190838101908783111561182c57600080fd5b928401925b8284101561177457835182529284019290840190611831565b60006020828403121561185c57600080fd5b5051919050565b8082018082111561052a5761052a611795565b60006020828403121561188857600080fd5b81516005811061112457600080fd5b634e487b7160e01b600052602160045260246000fd5b600181815b808511156118e85781600019048211156118ce576118ce611795565b808516156118db57918102915b93841c93908002906118b2565b509250929050565b6000826118ff5750600161052a565b8161190c5750600061052a565b8160018114611922576002811461192c57611948565b600191505061052a565b60ff84111561193d5761193d611795565b50506001821b61052a565b5060208310610133831016604e8410600b841016171561196b575081810a61052a565b61197583836118ad565b806000190482111561198957611989611795565b029392505050565b600061112483836118f0565b808202811582820484141761052a5761052a611795565b6000826119d157634e487b7160e01b600052601260045260246000fd5b500490565b8181038181111561052a5761052a611795565b60ff828116828216039081111561052a5761052a611795565b600061112460ff8416836118f056fea2646970667358221220a52141e1eec47e6095db987e4aa0bd99f9b5a06ee6b7975cc36f3b560c34e8ac64736f6c63430008110033","bytecodeSha1":"52a92e1034dc0097e833b7271b4b7556a399def7","compiler":{"evm_version":"london","optimizer":{"enabled":true,"runs":200},"version":"0.8.17+commit.8df45f5f"},"contractName":"CurveLPOracle","language":"Solidity","natspec":{"kind":"dev","methods":{"customInternalImbalanceBuffers(address)":{"notice":"these are used when the oracle is called internally for pricing metapool base pools"},"getUSDPrice(address)":{"notice":"returns the price in USD of symbol."},"isTokenSupported(address)":{"notice":"returns if the given token is supported for pricing."},"owner()":{"details":"Returns the address of the current owner."},"renounceOwnership()":{"details":"Leaves the contract without owner. It will not be possible to call `onlyOwner` functions. Can only be called by the current owner. NOTE: Renouncing ownership will leave the contract without an owner, thereby disabling any functionality that is only available to the owner."},"transferOwnership(address)":{"details":"Transfers ownership of the contract to a new account (`newOwner`). Can only be called by the current owner."}},"version":1},"opcodes":"PUSH1 0x80 PUSH1 0x40 MSTORE CALLVALUE DUP1 ISZERO PUSH2 0x10 JUMPI PUSH1 0x0 DUP1 REVERT JUMPDEST POP PUSH1 0x4 CALLDATASIZE LT PUSH2 0x93 JUMPI PUSH1 0x0 CALLDATALOAD PUSH1 0xE0 SHR DUP1 PUSH4 0x75151B63 GT PUSH2 0x66 JUMPI DUP1 PUSH4 0x75151B63 EQ PUSH2 0x108 JUMPI DUP1 PUSH4 0x8B2F0F4F EQ PUSH2 0x12B JUMPI DUP1 PUSH4 0x8DA5CB5B EQ PUSH2 0x13E JUMPI DUP1 PUSH4 0xBFD1BBC4 EQ PUSH2 0x159 JUMPI DUP1 PUSH4 0xF2FDE38B EQ PUSH2 0x16C JUMPI PUSH1 0x0 DUP1 REVERT JUMPDEST DUP1 PUSH4 0x38726F08 EQ PUSH2 0x98 JUMPI DUP1 PUSH4 0x523ACEC8 EQ PUSH2 0xAD JUMPI DUP1 PUSH4 0x6BF69111 EQ PUSH2 0xE0 JUMPI DUP1 PUSH4 0x715018A6 EQ PUSH2 0x100 JUMPI JUMPDEST PUSH1 0x0 DUP1 REVERT JUMPDEST PUSH2 0xAB PUSH2 0xA6 CALLDATASIZE PUSH1 0x4 PUSH2 0x15ED JUMP JUMPDEST PUSH2 0x17F JUMP JUMPDEST STOP JUMPDEST PUSH2 0xCD PUSH2 0xBB CALLDATASIZE PUSH1 0x4 PUSH2 0x1619 JUMP JUMPDEST PUSH1 0x2 PUSH1 0x20 MSTORE PUSH1 0x0 SWAP1 DUP2 MSTORE PUSH1 0x40 SWAP1 KECCAK256 SLOAD DUP2 JUMP JUMPDEST PUSH1 0x40 MLOAD SWAP1 DUP2 MSTORE PUSH1 0x20 ADD JUMPDEST PUSH1 0x40 MLOAD DUP1 SWAP2 SUB SWAP1 RETURN JUMPDEST PUSH2 0xCD PUSH2 0xEE CALLDATASIZE PUSH1 0x4 PUSH2 0x1619 JUMP JUMPDEST PUSH1 0x1 PUSH1 0x20 MSTORE PUSH1 0x0 SWAP1 DUP2 MSTORE PUSH1 0x40 SWAP1 KECCAK256 SLOAD DUP2 JUMP JUMPDEST PUSH2 0xAB PUSH2 0x22F JUMP JUMPDEST PUSH2 0x11B PUSH2 0x116 CALLDATASIZE PUSH1 0x4 PUSH2 0x1619 JUMP JUMPDEST PUSH2 0x243 JUMP JUMPDEST PUSH1 0x40 MLOAD SWAP1 ISZERO ISZERO DUP2 MSTORE PUSH1 0x20 ADD PUSH2 0xD7 JUMP JUMPDEST PUSH2 0xCD PUSH2 0x139 CALLDATASIZE PUSH1 0x4 PUSH2 0x1619 JUMP JUMPDEST PUSH2 0x51D JUMP JUMPDEST PUSH1 0x0 SLOAD PUSH1 0x40 MLOAD PUSH1 0x1 PUSH1 0x1 PUSH1 0xA0 SHL SUB SWAP1 SWAP2 AND DUP2 MSTORE PUSH1 0x20 ADD PUSH2 0xD7 JUMP JUMPDEST PUSH2 0xAB PUSH2 0x167 CALLDATASIZE PUSH1 0x4 PUSH2 0x15ED JUMP JUMPDEST PUSH2 0x530 JUMP JUMPDEST PUSH2 0xAB PUSH2 0x17A CALLDATASIZE PUSH1 0x4 PUSH2 0x1619 JUMP JUMPDEST PUSH2 0x5CF JUMP JUMPDEST PUSH2 0x187 PUSH2 0x648 JUMP JUMPDEST PUSH8 0x16345785D8A0000 DUP2 GT ISZERO PUSH2 0x1D6 JUMPI PUSH1 0x40 MLOAD PUSH3 0x461BCD PUSH1 0xE5 SHL DUP2 MSTORE PUSH1 0x20 PUSH1 0x4 DUP3 ADD MSTORE PUSH1 0xF PUSH1 0x24 DUP3 ADD MSTORE PUSH15 0xC4EACCCCCAE440E8DEDE40D0D2CED PUSH1 0x8B SHL PUSH1 0x44 DUP3 ADD MSTORE PUSH1 0x64 ADD JUMPDEST PUSH1 0x40 MLOAD DUP1 SWAP2 SUB SWAP1 REVERT JUMPDEST PUSH1 0x1 PUSH1 0x1 PUSH1 0xA0 SHL SUB DUP3 AND PUSH1 0x0 DUP2 DUP2 MSTORE PUSH1 0x1 PUSH1 0x20 MSTORE PUSH1 0x40 SWAP1 DUP2 SWAP1 KECCAK256 DUP4 SWAP1 SSTORE MLOAD PUSH32 0x7B718DC4E7C7EE990F859E57DF5619938B679591799489DA97280F53D0295439 SWAP1 PUSH2 0x223 SWAP1 DUP5 DUP2 MSTORE PUSH1 0x20 ADD SWAP1 JUMP JUMPDEST PUSH1 0x40 MLOAD DUP1 SWAP2 SUB SWAP1 LOG2 POP POP JUMP JUMPDEST PUSH2 0x237 PUSH2 0x648 JUMP JUMPDEST PUSH2 0x241 PUSH1 0x0 PUSH2 0x6A2 JUMP JUMPDEST JUMP JUMPDEST PUSH1 0x0 DUP1 PUSH32 0x0 PUSH1 0x1 PUSH1 0x1 PUSH1 0xA0 SHL SUB AND PUSH4 0x2630C12F PUSH1 0x40 MLOAD DUP2 PUSH4 0xFFFFFFFF AND PUSH1 0xE0 SHL DUP2 MSTORE PUSH1 0x4 ADD PUSH1 0x20 PUSH1 0x40 MLOAD DUP1 DUP4 SUB DUP2 DUP7 GAS STATICCALL ISZERO DUP1 ISZERO PUSH2 0x2A4 JUMPI RETURNDATASIZE PUSH1 0x0 DUP1 RETURNDATACOPY RETURNDATASIZE PUSH1 0x0 REVERT JUMPDEST POP POP POP POP PUSH1 0x40 MLOAD RETURNDATASIZE PUSH1 0x1F NOT PUSH1 0x1F DUP3 ADD AND DUP3 ADD DUP1 PUSH1 0x40 MSTORE POP DUP2 ADD SWAP1 PUSH2 0x2C8 SWAP2 SWAP1 PUSH2 0x1636 JUMP JUMPDEST SWAP1 POP PUSH1 0x0 PUSH2 0x2D5 DUP5 PUSH2 0x6F2 JUMP JUMPDEST SWAP1 POP PUSH1 0x0 PUSH32 0x0 PUSH1 0x1 PUSH1 0x1 PUSH1 0xA0 SHL SUB AND PUSH4 0x9F82B217 PUSH1 0x40 MLOAD DUP2 PUSH4 0xFFFFFFFF AND PUSH1 0xE0 SHL DUP2 MSTORE PUSH1 0x4 ADD PUSH1 0x20 PUSH1 0x40 MLOAD DUP1 DUP4 SUB DUP2 DUP7 GAS STATICCALL ISZERO DUP1 ISZERO PUSH2 0x337 JUMPI RETURNDATASIZE PUSH1 0x0 DUP1 RETURNDATACOPY RETURNDATASIZE PUSH1 0x0 REVERT JUMPDEST POP POP POP POP PUSH1 0x40 MLOAD RETURNDATASIZE PUSH1 0x1F NOT PUSH1 0x1F DUP3 ADD AND DUP3 ADD DUP1 PUSH1 0x40 MSTORE POP DUP2 ADD SWAP1 PUSH2 0x35B SWAP2 SWAP1 PUSH2 0x1636 JUMP JUMPDEST PUSH1 0x40 MLOAD PUSH4 0xC3C5A547 PUSH1 0xE0 SHL DUP2 MSTORE PUSH1 0x1 PUSH1 0x1 PUSH1 0xA0 SHL SUB DUP5 DUP2 AND PUSH1 0x4 DUP4 ADD MSTORE SWAP2 SWAP3 POP SWAP1 DUP3 AND SWAP1 PUSH4 0xC3C5A547 SWAP1 PUSH1 0x24 ADD PUSH1 0x20 PUSH1 0x40 MLOAD DUP1 DUP4 SUB DUP2 DUP7 GAS STATICCALL ISZERO DUP1 ISZERO PUSH2 0x3A5 JUMPI RETURNDATASIZE PUSH1 0x0 DUP1 RETURNDATACOPY RETURNDATASIZE PUSH1 0x0 REVERT JUMPDEST POP POP POP POP PUSH1 0x40 MLOAD RETURNDATASIZE PUSH1 0x1F NOT PUSH1 0x1F DUP3 ADD AND DUP3 ADD DUP1 PUSH1 0x40 MSTORE POP DUP2 ADD SWAP1 PUSH2 0x3C9 SWAP2 SWAP1 PUSH2 0x1653 JUMP JUMPDEST PUSH2 0x3D8 JUMPI POP PUSH1 0x0 SWAP5 SWAP4 POP POP POP POP JUMP JUMPDEST PUSH1 0x40 MLOAD PUSH4 0xFA1EF51 PUSH1 0xE3 SHL DUP2 MSTORE PUSH1 0x1 PUSH1 0x1 PUSH1 0xA0 SHL SUB DUP4 DUP2 AND PUSH1 0x4 DUP4 ADD MSTORE PUSH1 0x0 SWAP2 SWAP1 DUP4 AND SWAP1 PUSH4 0x7D0F7A88 SWAP1 PUSH1 0x24 ADD PUSH1 0x0 PUSH1 0x40 MLOAD DUP1 DUP4 SUB DUP2 DUP7 GAS STATICCALL ISZERO DUP1 ISZERO PUSH2 0x422 JUMPI RETURNDATASIZE PUSH1 0x0 DUP1 RETURNDATACOPY RETURNDATASIZE PUSH1 0x0 REVERT JUMPDEST POP POP POP POP PUSH1 0x40 MLOAD RETURNDATASIZE PUSH1 0x0 DUP3 RETURNDATACOPY PUSH1 0x1F RETURNDATASIZE SWAP1 DUP2 ADD PUSH1 0x1F NOT AND DUP3 ADD PUSH1 0x40 MSTORE PUSH2 0x44A SWAP2 SWAP1 DUP2 ADD SWAP1 PUSH2 0x16E0 JUMP JUMPDEST SWAP1 POP PUSH1 0x0 JUMPDEST DUP2 MLOAD DUP2 LT ISZERO PUSH2 0x510 JUMPI DUP5 PUSH1 0x1 PUSH1 0x1 PUSH1 0xA0 SHL SUB AND PUSH4 0x75151B63 DUP4 DUP4 DUP2 MLOAD DUP2 LT PUSH2 0x479 JUMPI PUSH2 0x479 PUSH2 0x177F JUMP JUMPDEST PUSH1 0x20 MUL PUSH1 0x20 ADD ADD MLOAD PUSH1 0x40 MLOAD DUP3 PUSH4 0xFFFFFFFF AND PUSH1 0xE0 SHL DUP2 MSTORE PUSH1 0x4 ADD PUSH2 0x4AC SWAP2 SWAP1 PUSH1 0x1 PUSH1 0x1 PUSH1 0xA0 SHL SUB SWAP2 SWAP1 SWAP2 AND DUP2 MSTORE PUSH1 0x20 ADD SWAP1 JUMP JUMPDEST PUSH1 0x20 PUSH1 0x40 MLOAD DUP1 DUP4 SUB DUP2 DUP7 GAS STATICCALL ISZERO DUP1 ISZERO PUSH2 0x4C9 JUMPI RETURNDATASIZE PUSH1 0x0 DUP1 RETURNDATACOPY RETURNDATASIZE PUSH1 0x0 REVERT JUMPDEST POP POP POP POP PUSH1 0x40 MLOAD RETURNDATASIZE PUSH1 0x1F NOT PUSH1 0x1F DUP3 ADD AND DUP3 ADD DUP1 PUSH1 0x40 MSTORE POP DUP2 ADD SWAP1 PUSH2 0x4ED SWAP2 SWAP1 PUSH2 0x1653 JUMP JUMPDEST PUSH2 0x4FE JUMPI POP PUSH1 0x0 SWAP7 SWAP6 POP POP POP POP POP POP JUMP JUMPDEST DUP1 PUSH2 0x508 DUP2 PUSH2 0x17AB JUMP JUMPDEST SWAP2 POP POP PUSH2 0x44F JUMP JUMPDEST POP PUSH1 0x1 SWAP7 SWAP6 POP POP POP POP POP POP JUMP JUMPDEST PUSH1 0x0 PUSH2 0x52A DUP3 PUSH1 0x0 PUSH2 0x7E2 JUMP JUMPDEST SWAP3 SWAP2 POP POP JUMP JUMPDEST PUSH2 0x538 PUSH2 0x648 JUMP JUMPDEST PUSH8 0x16345785D8A0000 DUP2 GT ISZERO PUSH2 0x582 JUMPI PUSH1 0x40 MLOAD PUSH3 0x461BCD PUSH1 0xE5 SHL DUP2 MSTORE PUSH1 0x20 PUSH1 0x4 DUP3 ADD MSTORE PUSH1 0xF PUSH1 0x24 DUP3 ADD MSTORE PUSH15 0xC4EACCCCCAE440E8DEDE40D0D2CED PUSH1 0x8B SHL PUSH1 0x44 DUP3 ADD MSTORE PUSH1 0x64 ADD PUSH2 0x1CD JUMP JUMPDEST PUSH1 0x1 PUSH1 0x1 PUSH1 0xA0 SHL SUB DUP3 AND PUSH1 0x0 DUP2 DUP2 MSTORE PUSH1 0x2 PUSH1 0x20 MSTORE PUSH1 0x40 SWAP1 DUP2 SWAP1 KECCAK256 DUP4 SWAP1 SSTORE MLOAD PUSH32 0x51C89A307557AEEA126C4CAEFEE33731A9195F3B2C41B443E6A22FA5160F31B1 SWAP1 PUSH2 0x223 SWAP1 DUP5 DUP2 MSTORE PUSH1 0x20 ADD SWAP1 JUMP JUMPDEST PUSH2 0x5D7 PUSH2 0x648 JUMP JUMPDEST PUSH1 0x1 PUSH1 0x1 PUSH1 0xA0 SHL SUB DUP2 AND PUSH2 0x63C JUMPI PUSH1 0x40 MLOAD PUSH3 0x461BCD PUSH1 0xE5 SHL DUP2 MSTORE PUSH1 0x20 PUSH1 0x4 DUP3 ADD MSTORE PUSH1 0x26 PUSH1 0x24 DUP3 ADD MSTORE PUSH32 0x4F776E61626C653A206E6577206F776E657220697320746865207A65726F2061 PUSH1 0x44 DUP3 ADD MSTORE PUSH6 0x646472657373 PUSH1 0xD0 SHL PUSH1 0x64 DUP3 ADD MSTORE PUSH1 0x84 ADD PUSH2 0x1CD JUMP JUMPDEST PUSH2 0x645 DUP2 PUSH2 0x6A2 JUMP JUMPDEST POP JUMP JUMPDEST PUSH1 0x0 SLOAD PUSH1 0x1 PUSH1 0x1 PUSH1 0xA0 SHL SUB AND CALLER EQ PUSH2 0x241 JUMPI PUSH1 0x40 MLOAD PUSH3 0x461BCD PUSH1 0xE5 SHL DUP2 MSTORE PUSH1 0x20 PUSH1 0x4 DUP3 ADD DUP2 SWAP1 MSTORE PUSH1 0x24 DUP3 ADD MSTORE PUSH32 0x4F776E61626C653A2063616C6C6572206973206E6F7420746865206F776E6572 PUSH1 0x44 DUP3 ADD MSTORE PUSH1 0x64 ADD PUSH2 0x1CD JUMP JUMPDEST PUSH1 0x0 DUP1 SLOAD PUSH1 0x1 PUSH1 0x1 PUSH1 0xA0 SHL SUB DUP4 DUP2 AND PUSH1 0x1 PUSH1 0x1 PUSH1 0xA0 SHL SUB NOT DUP4 AND DUP2 OR DUP5 SSTORE PUSH1 0x40 MLOAD SWAP2 SWAP1 SWAP3 AND SWAP3 DUP4 SWAP2 PUSH32 0x8BE0079C531659141344CD1FD0A4F28419497F9722A3DAAFE3B4186F6B6457E0 SWAP2 SWAP1 LOG3 POP POP JUMP JUMPDEST PUSH1 0x0 PUSH32 0x0 PUSH1 0x1 PUSH1 0x1 PUSH1 0xA0 SHL SUB AND PUSH4 0x9F82B217 PUSH1 0x40 MLOAD DUP2 PUSH4 0xFFFFFFFF AND PUSH1 0xE0 SHL DUP2 MSTORE PUSH1 0x4 ADD PUSH1 0x20 PUSH1 0x40 MLOAD DUP1 DUP4 SUB DUP2 DUP7 GAS STATICCALL ISZERO DUP1 ISZERO PUSH2 0x752 JUMPI RETURNDATASIZE PUSH1 0x0 DUP1 RETURNDATACOPY RETURNDATASIZE PUSH1 0x0 REVERT JUMPDEST POP POP POP POP PUSH1 0x40 MLOAD RETURNDATASIZE PUSH1 0x1F NOT PUSH1 0x1F DUP3 ADD AND DUP3 ADD DUP1 PUSH1 0x40 MSTORE POP DUP2 ADD SWAP1 PUSH2 0x776 SWAP2 SWAP1 PUSH2 0x1636 JUMP JUMPDEST PUSH1 0x40 MLOAD PUSH4 0x4060C025 PUSH1 0xE0 SHL DUP2 MSTORE PUSH1 0x1 PUSH1 0x1 PUSH1 0xA0 SHL SUB DUP5 DUP2 AND PUSH1 0x4 DUP4 ADD MSTORE SWAP2 SWAP1 SWAP2 AND SWAP1 PUSH4 0x4060C025 SWAP1 PUSH1 0x24 ADD PUSH1 0x20 PUSH1 0x40 MLOAD DUP1 DUP4 SUB DUP2 DUP7 GAS STATICCALL ISZERO DUP1 ISZERO PUSH2 0x7BE JUMPI RETURNDATASIZE PUSH1 0x0 DUP1 RETURNDATACOPY RETURNDATASIZE PUSH1 0x0 REVERT JUMPDEST POP POP POP POP PUSH1 0x40 MLOAD RETURNDATASIZE PUSH1 0x1F NOT PUSH1 0x1F DUP3 ADD AND DUP3 ADD DUP1 PUSH1 0x40 MSTORE POP DUP2 ADD SWAP1 PUSH2 0x52A SWAP2 SWAP1 PUSH2 0x1636 JUMP JUMPDEST PUSH1 0x0 DUP1 PUSH32 0x0 PUSH1 0x1 PUSH1 0x1 PUSH1 0xA0 SHL SUB AND PUSH4 0x2630C12F PUSH1 0x40 MLOAD DUP2 PUSH4 0xFFFFFFFF AND PUSH1 0xE0 SHL DUP2 MSTORE PUSH1 0x4 ADD PUSH1 0x20 PUSH1 0x40 MLOAD DUP1 DUP4 SUB DUP2 DUP7 GAS STATICCALL ISZERO DUP1 ISZERO PUSH2 0x843 JUMPI RETURNDATASIZE PUSH1 0x0 DUP1 RETURNDATACOPY RETURNDATASIZE PUSH1 0x0 REVERT JUMPDEST POP POP POP POP PUSH1 0x40 MLOAD RETURNDATASIZE PUSH1 0x1F NOT PUSH1 0x1F DUP3 ADD AND DUP3 ADD DUP1 PUSH1 0x40 MSTORE POP DUP2 ADD SWAP1 PUSH2 0x867 SWAP2 SWAP1 PUSH2 0x1636 JUMP JUMPDEST SWAP1 POP PUSH1 0x0 PUSH2 0x874 DUP6 PUSH2 0x6F2 JUMP JUMPDEST SWAP1 POP PUSH1 0x0 PUSH32 0x0 PUSH1 0x1 PUSH1 0x1 PUSH1 0xA0 SHL SUB AND PUSH4 0x9F82B217 PUSH1 0x40 MLOAD DUP2 PUSH4 0xFFFFFFFF AND PUSH1 0xE0 SHL DUP2 MSTORE PUSH1 0x4 ADD PUSH1 0x20 PUSH1 0x40 MLOAD DUP1 DUP4 SUB DUP2 DUP7 GAS STATICCALL ISZERO DUP1 ISZERO PUSH2 0x8D6 JUMPI RETURNDATASIZE PUSH1 0x0 DUP1 RETURNDATACOPY RETURNDATASIZE PUSH1 0x0 REVERT JUMPDEST POP POP POP POP PUSH1 0x40 MLOAD RETURNDATASIZE PUSH1 0x1F NOT PUSH1 0x1F DUP3 ADD AND DUP3 ADD DUP1 PUSH1 0x40 MSTORE POP DUP2 ADD SWAP1 PUSH2 0x8FA SWAP2 SWAP1 PUSH2 0x1636 JUMP JUMPDEST PUSH1 0x40 MLOAD PUSH4 0xC3C5A547 PUSH1 0xE0 SHL DUP2 MSTORE PUSH1 0x1 PUSH1 0x1 PUSH1 0xA0 SHL SUB DUP5 DUP2 AND PUSH1 0x4 DUP4 ADD MSTORE SWAP2 SWAP3 POP SWAP1 DUP3 AND SWAP1 PUSH4 0xC3C5A547 SWAP1 PUSH1 0x24 ADD PUSH1 0x20 PUSH1 0x40 MLOAD DUP1 DUP4 SUB DUP2 DUP7 GAS STATICCALL ISZERO DUP1 ISZERO PUSH2 0x944 JUMPI RETURNDATASIZE PUSH1 0x0 DUP1 RETURNDATACOPY RETURNDATASIZE PUSH1 0x0 REVERT JUMPDEST POP POP POP POP PUSH1 0x40 MLOAD RETURNDATASIZE PUSH1 0x1F NOT PUSH1 0x1F DUP3 ADD AND DUP3 ADD DUP1 PUSH1 0x40 MSTORE POP DUP2 ADD SWAP1 PUSH2 0x968 SWAP2 SWAP1 PUSH2 0x1653 JUMP JUMPDEST PUSH2 0x9AA JUMPI PUSH1 0x40 MLOAD PUSH3 0x461BCD PUSH1 0xE5 SHL DUP2 MSTORE PUSH1 0x20 PUSH1 0x4 DUP3 ADD MSTORE PUSH1 0x13 PUSH1 0x24 DUP3 ADD MSTORE PUSH19 0x1D1BDAD95B881B9BDD081CDD5C1C1BDC9D1959 PUSH1 0x6A SHL PUSH1 0x44 DUP3 ADD MSTORE PUSH1 0x64 ADD PUSH2 0x1CD JUMP JUMPDEST PUSH1 0x40 MLOAD PUSH4 0x6A24D419 PUSH1 0xE1 SHL DUP2 MSTORE PUSH1 0x1 PUSH1 0x1 PUSH1 0xA0 SHL SUB DUP4 DUP2 AND PUSH1 0x4 DUP4 ADD MSTORE PUSH1 0x0 SWAP2 SWAP1 DUP4 AND SWAP1 PUSH4 0xD449A832 SWAP1 PUSH1 0x24 ADD PUSH1 0x0 PUSH1 0x40 MLOAD DUP1 DUP4 SUB DUP2 DUP7 GAS STATICCALL ISZERO DUP1 ISZERO PUSH2 0x9F4 JUMPI RETURNDATASIZE PUSH1 0x0 DUP1 RETURNDATACOPY RETURNDATASIZE PUSH1 0x0 REVERT JUMPDEST POP POP POP POP PUSH1 0x40 MLOAD RETURNDATASIZE PUSH1 0x0 DUP3 RETURNDATACOPY PUSH1 0x1F RETURNDATASIZE SWAP1 DUP2 ADD PUSH1 0x1F NOT AND DUP3 ADD PUSH1 0x40 MSTORE PUSH2 0xA1C SWAP2 SWAP1 DUP2 ADD SWAP1 PUSH2 0x17C4 JUMP JUMPDEST PUSH1 0x40 MLOAD PUSH4 0xFA1EF51 PUSH1 0xE3 SHL DUP2 MSTORE PUSH1 0x1 PUSH1 0x1 PUSH1 0xA0 SHL SUB DUP6 DUP2 AND PUSH1 0x4 DUP4 ADD MSTORE SWAP2 SWAP3 POP PUSH1 0x0 SWAP2 DUP5 AND SWAP1 PUSH4 0x7D0F7A88 SWAP1 PUSH1 0x24 ADD PUSH1 0x0 PUSH1 0x40 MLOAD DUP1 DUP4 SUB DUP2 DUP7 GAS STATICCALL ISZERO DUP1 ISZERO PUSH2 0xA68 JUMPI RETURNDATASIZE PUSH1 0x0 DUP1 RETURNDATACOPY RETURNDATASIZE PUSH1 0x0 REVERT JUMPDEST POP POP POP POP PUSH1 0x40 MLOAD RETURNDATASIZE PUSH1 0x0 DUP3 RETURNDATACOPY PUSH1 0x1F RETURNDATASIZE SWAP1 DUP2 ADD PUSH1 0x1F NOT AND DUP3 ADD PUSH1 0x40 MSTORE PUSH2 0xA90 SWAP2 SWAP1 DUP2 ADD SWAP1 PUSH2 0x16E0 JUMP JUMPDEST PUSH1 0x40 MLOAD PUSH4 0x5F92E815 PUSH1 0xE1 SHL DUP2 MSTORE PUSH1 0x1 PUSH1 0x1 PUSH1 0xA0 SHL SUB DUP7 DUP2 AND PUSH1 0x4 DUP4 ADD MSTORE SWAP2 SWAP3 POP PUSH1 0x0 SWAP2 DUP3 SWAP2 SWAP1 DUP7 AND SWAP1 PUSH4 0xBF25D02A SWAP1 PUSH1 0x24 ADD PUSH1 0x20 PUSH1 0x40 MLOAD DUP1 DUP4 SUB DUP2 DUP7 GAS STATICCALL ISZERO DUP1 ISZERO PUSH2 0xADF JUMPI RETURNDATASIZE PUSH1 0x0 DUP1 RETURNDATACOPY RETURNDATASIZE PUSH1 0x0 REVERT JUMPDEST POP POP POP POP PUSH1 0x40 MLOAD RETURNDATASIZE PUSH1 0x1F NOT PUSH1 0x1F DUP3 ADD AND DUP3 ADD DUP1 PUSH1 0x40 MSTORE POP DUP2 ADD SWAP1 PUSH2 0xB03 SWAP2 SWAP1 PUSH2 0x184A JUMP JUMPDEST SWAP1 POP PUSH1 0x0 DUP2 PUSH8 0xFFFFFFFFFFFFFFFF DUP2 GT ISZERO PUSH2 0xB20 JUMPI PUSH2 0xB20 PUSH2 0x1675 JUMP JUMPDEST PUSH1 0x40 MLOAD SWAP1 DUP1 DUP3 MSTORE DUP1 PUSH1 0x20 MUL PUSH1 0x20 ADD DUP3 ADD PUSH1 0x40 MSTORE DUP1 ISZERO PUSH2 0xB49 JUMPI DUP2 PUSH1 0x20 ADD PUSH1 0x20 DUP3 MUL DUP1 CALLDATASIZE DUP4 CALLDATACOPY ADD SWAP1 POP JUMPDEST POP SWAP1 POP PUSH1 0x0 DUP3 PUSH8 0xFFFFFFFFFFFFFFFF DUP2 GT ISZERO PUSH2 0xB67 JUMPI PUSH2 0xB67 PUSH2 0x1675 JUMP JUMPDEST PUSH1 0x40 MLOAD SWAP1 DUP1 DUP3 MSTORE DUP1 PUSH1 0x20 MUL PUSH1 0x20 ADD DUP3 ADD PUSH1 0x40 MSTORE DUP1 ISZERO PUSH2 0xB90 JUMPI DUP2 PUSH1 0x20 ADD PUSH1 0x20 DUP3 MUL DUP1 CALLDATASIZE DUP4 CALLDATACOPY ADD SWAP1 POP JUMPDEST POP SWAP1 POP PUSH1 0x0 JUMPDEST DUP4 DUP2 LT ISZERO PUSH2 0xE23 JUMPI PUSH1 0x0 DUP7 DUP3 DUP2 MLOAD DUP2 LT PUSH2 0xBB2 JUMPI PUSH2 0xBB2 PUSH2 0x177F JUMP JUMPDEST PUSH1 0x20 SWAP1 DUP2 MUL SWAP2 SWAP1 SWAP2 ADD ADD MLOAD PUSH1 0x40 MLOAD PUSH4 0x869E917 PUSH1 0xE1 SHL DUP2 MSTORE PUSH1 0x1 PUSH1 0x1 PUSH1 0xA0 SHL SUB DUP1 DUP4 AND PUSH1 0x4 DUP4 ADD MSTORE SWAP2 SWAP3 POP PUSH1 0x0 SWAP2 DUP14 AND SWAP1 PUSH4 0x10D3D22E SWAP1 PUSH1 0x24 ADD PUSH1 0x20 PUSH1 0x40 MLOAD DUP1 DUP4 SUB DUP2 DUP7 GAS STATICCALL ISZERO DUP1 ISZERO PUSH2 0xC09 JUMPI RETURNDATASIZE PUSH1 0x0 DUP1 RETURNDATACOPY RETURNDATASIZE PUSH1 0x0 REVERT JUMPDEST POP POP POP POP PUSH1 0x40 MLOAD RETURNDATASIZE PUSH1 0x1F NOT PUSH1 0x1F DUP3 ADD AND DUP3 ADD DUP1 PUSH1 0x40 MSTORE POP DUP2 ADD SWAP1 PUSH2 0xC2D SWAP2 SWAP1 PUSH2 0x1636 JUMP JUMPDEST SWAP1 POP PUSH1 0x0 DUP15 PUSH2 0xC54 JUMPI PUSH1 0x1 PUSH1 0x1 PUSH1 0xA0 SHL SUB DUP4 AND PUSH1 0x0 SWAP1 DUP2 MSTORE PUSH1 0x1 PUSH1 0x20 MSTORE PUSH1 0x40 SWAP1 KECCAK256 SLOAD PUSH2 0xC6E JUMP JUMPDEST PUSH1 0x1 PUSH1 0x1 PUSH1 0xA0 SHL SUB DUP4 AND PUSH1 0x0 SWAP1 DUP2 MSTORE PUSH1 0x2 PUSH1 0x20 MSTORE PUSH1 0x40 SWAP1 KECCAK256 SLOAD JUMPDEST SWAP1 POP PUSH1 0x0 PUSH1 0x1 PUSH1 0x1 PUSH1 0xA0 SHL SUB DUP4 AND ADDRESS EQ PUSH2 0xCF1 JUMPI PUSH1 0x40 MLOAD PUSH4 0x8B2F0F4F PUSH1 0xE0 SHL DUP2 MSTORE PUSH1 0x1 PUSH1 0x1 PUSH1 0xA0 SHL SUB DUP6 DUP2 AND PUSH1 0x4 DUP4 ADD MSTORE DUP5 AND SWAP1 PUSH4 0x8B2F0F4F SWAP1 PUSH1 0x24 ADD PUSH1 0x20 PUSH1 0x40 MLOAD DUP1 DUP4 SUB DUP2 DUP7 GAS STATICCALL ISZERO DUP1 ISZERO PUSH2 0xCC8 JUMPI RETURNDATASIZE PUSH1 0x0 DUP1 RETURNDATACOPY RETURNDATASIZE PUSH1 0x0 REVERT JUMPDEST POP POP POP POP PUSH1 0x40 MLOAD RETURNDATASIZE PUSH1 0x1F NOT PUSH1 0x1F DUP3 ADD AND DUP3 ADD DUP1 PUSH1 0x40 MSTORE POP DUP2 ADD SWAP1 PUSH2 0xCEC SWAP2 SWAP1 PUSH2 0x184A JUMP JUMPDEST PUSH2 0xCFC JUMP JUMPDEST PUSH2 0xCFC DUP5 PUSH1 0x1 PUSH2 0x7E2 JUMP JUMPDEST SWAP1 POP DUP1 DUP8 DUP7 DUP2 MLOAD DUP2 LT PUSH2 0xD11 JUMPI PUSH2 0xD11 PUSH2 0x177F JUMP JUMPDEST PUSH1 0x20 MUL PUSH1 0x20 ADD ADD DUP2 DUP2 MSTORE POP POP DUP2 DUP7 DUP7 DUP2 MLOAD DUP2 LT PUSH2 0xD30 JUMPI PUSH2 0xD30 PUSH2 0x177F JUMP JUMPDEST PUSH1 0x20 MUL PUSH1 0x20 ADD ADD DUP2 DUP2 MSTORE POP POP PUSH1 0x0 DUP2 GT PUSH2 0xD79 JUMPI PUSH1 0x40 MLOAD PUSH3 0x461BCD PUSH1 0xE5 SHL DUP2 MSTORE PUSH1 0x20 PUSH1 0x4 DUP3 ADD MSTORE PUSH1 0xA PUSH1 0x24 DUP3 ADD MSTORE PUSH10 0x7072696365206973203 PUSH1 0xB4 SHL PUSH1 0x44 DUP3 ADD MSTORE PUSH1 0x64 ADD PUSH2 0x1CD JUMP JUMPDEST PUSH1 0x0 PUSH2 0xD85 DUP15 DUP8 PUSH2 0xF52 JUMP JUMPDEST SWAP1 POP PUSH1 0x0 DUP2 GT PUSH2 0xDC6 JUMPI PUSH1 0x40 MLOAD PUSH3 0x461BCD PUSH1 0xE5 SHL DUP2 MSTORE PUSH1 0x20 PUSH1 0x4 DUP3 ADD MSTORE PUSH1 0xC PUSH1 0x24 DUP3 ADD MSTORE PUSH12 0x62616C616E6365206973203 PUSH1 0xA4 SHL PUSH1 0x44 DUP3 ADD MSTORE PUSH1 0x64 ADD PUSH2 0x1CD JUMP JUMPDEST PUSH2 0xDFF DUP3 PUSH2 0xDF9 DUP15 DUP10 DUP2 MLOAD DUP2 LT PUSH2 0xDDF JUMPI PUSH2 0xDDF PUSH2 0x177F JUMP JUMPDEST PUSH1 0x20 MUL PUSH1 0x20 ADD ADD MLOAD PUSH1 0x12 DUP6 PUSH2 0x112B SWAP1 SWAP3 SWAP2 SWAP1 PUSH4 0xFFFFFFFF AND JUMP JUMPDEST SWAP1 PUSH2 0x1174 JUMP JUMPDEST PUSH2 0xE09 SWAP1 DUP12 PUSH2 0x1863 JUMP JUMPDEST SWAP10 POP POP POP POP POP POP DUP1 DUP1 PUSH2 0xE1B SWAP1 PUSH2 0x17AB JUMP JUMPDEST SWAP2 POP POP PUSH2 0xB96 JUMP JUMPDEST POP PUSH1 0x40 DUP1 MLOAD PUSH1 0xC0 DUP2 ADD DUP3 MSTORE PUSH1 0x1 PUSH1 0x1 PUSH1 0xA0 SHL SUB DUP1 DUP12 AND DUP1 DUP4 MSTORE PUSH1 0x20 DUP4 ADD DUP8 SWAP1 MSTORE DUP4 MLOAD PUSH4 0x72056C65 PUSH1 0xE1 SHL DUP2 MSTORE PUSH1 0x4 DUP2 ADD SWAP2 SWAP1 SWAP2 MSTORE PUSH2 0xED6 SWAP4 DUP4 ADD SWAP2 DUP12 AND SWAP1 PUSH4 0xE40AD8CA SWAP1 PUSH1 0x24 ADD PUSH1 0x20 PUSH1 0x40 MLOAD DUP1 DUP4 SUB DUP2 DUP7 GAS STATICCALL ISZERO DUP1 ISZERO PUSH2 0xE87 JUMPI RETURNDATASIZE PUSH1 0x0 DUP1 RETURNDATACOPY RETURNDATASIZE PUSH1 0x0 REVERT JUMPDEST POP POP POP POP PUSH1 0x40 MLOAD RETURNDATASIZE PUSH1 0x1F NOT PUSH1 0x1F DUP3 ADD AND DUP3 ADD DUP1 PUSH1 0x40 MSTORE POP DUP2 ADD SWAP1 PUSH2 0xEAB SWAP2 SWAP1 PUSH2 0x1876 JUMP JUMPDEST PUSH1 0x4 DUP2 GT ISZERO PUSH2 0xEBC JUMPI PUSH2 0xEBC PUSH2 0x1897 JUMP JUMPDEST DUP2 MSTORE PUSH1 0x20 ADD DUP9 DUP2 MSTORE PUSH1 0x20 ADD DUP5 DUP2 MSTORE PUSH1 0x20 ADD DUP4 DUP2 MSTORE POP PUSH2 0x1196 JUMP JUMPDEST PUSH2 0xF42 DUP13 PUSH1 0x1 PUSH1 0x1 PUSH1 0xA0 SHL SUB AND PUSH4 0x18160DDD PUSH1 0x40 MLOAD DUP2 PUSH4 0xFFFFFFFF AND PUSH1 0xE0 SHL DUP2 MSTORE PUSH1 0x4 ADD PUSH1 0x20 PUSH1 0x40 MLOAD DUP1 DUP4 SUB DUP2 DUP7 GAS STATICCALL ISZERO DUP1 ISZERO PUSH2 0xF17 JUMPI RETURNDATASIZE PUSH1 0x0 DUP1 RETURNDATACOPY RETURNDATASIZE PUSH1 0x0 REVERT JUMPDEST POP POP POP POP PUSH1 0x40 MLOAD RETURNDATASIZE PUSH1 0x1F NOT PUSH1 0x1F DUP3 ADD AND DUP3 ADD DUP1 PUSH1 0x40 MSTORE POP DUP2 ADD SWAP1 PUSH2 0xF3B SWAP2 SWAP1 PUSH2 0x184A JUMP JUMPDEST DUP6 SWAP1 PUSH2 0x14F6 JUMP JUMPDEST SWAP13 SWAP12 POP POP POP POP POP POP POP POP POP POP POP POP JUMP JUMPDEST PUSH1 0x0 PUSH32 0x0 PUSH1 0x1 PUSH1 0x1 PUSH1 0xA0 SHL SUB AND PUSH4 0x9F82B217 PUSH1 0x40 MLOAD DUP2 PUSH4 0xFFFFFFFF AND PUSH1 0xE0 SHL DUP2 MSTORE PUSH1 0x4 ADD PUSH1 0x20 PUSH1 0x40 MLOAD DUP1 DUP4 SUB DUP2 DUP7 GAS STATICCALL ISZERO DUP1 ISZERO PUSH2 0xFB2 JUMPI RETURNDATASIZE PUSH1 0x0 DUP1 RETURNDATACOPY RETURNDATASIZE PUSH1 0x0 REVERT JUMPDEST POP POP POP POP PUSH1 0x40 MLOAD RETURNDATASIZE PUSH1 0x1F NOT PUSH1 0x1F DUP3 ADD AND DUP3 ADD DUP1 PUSH1 0x40 MSTORE POP DUP2 ADD SWAP1 PUSH2 0xFD6 SWAP2 SWAP1 PUSH2 0x1636 JUMP JUMPDEST PUSH1 0x40 MLOAD PUSH4 0xBB075AF PUSH1 0xE1 SHL DUP2 MSTORE PUSH1 0x1 PUSH1 0x1 PUSH1 0xA0 SHL SUB DUP6 DUP2 AND PUSH1 0x4 DUP4 ADD MSTORE SWAP2 SWAP1 SWAP2 AND SWAP1 PUSH4 0x1760EB5E SWAP1 PUSH1 0x24 ADD PUSH1 0x20 PUSH1 0x40 MLOAD DUP1 DUP4 SUB DUP2 DUP7 GAS STATICCALL ISZERO DUP1 ISZERO PUSH2 0x101E JUMPI RETURNDATASIZE PUSH1 0x0 DUP1 RETURNDATACOPY RETURNDATASIZE PUSH1 0x0 REVERT JUMPDEST POP POP POP POP PUSH1 0x40 MLOAD RETURNDATASIZE PUSH1 0x1F NOT PUSH1 0x1F DUP3 ADD AND DUP3 ADD DUP1 PUSH1 0x40 MSTORE POP DUP2 ADD SWAP1 PUSH2 0x1042 SWAP2 SWAP1 PUSH2 0x184A JUMP JUMPDEST PUSH1 0x0 SUB PUSH2 0x10BB JUMPI PUSH1 0x40 MLOAD PUSH3 0xCB501B PUSH1 0xE3 SHL DUP2 MSTORE PUSH1 0xF DUP4 SWAP1 SIGNEXTEND PUSH1 0x4 DUP3 ADD MSTORE PUSH1 0x1 PUSH1 0x1 PUSH1 0xA0 SHL SUB DUP5 AND SWAP1 PUSH4 0x65A80D8 SWAP1 PUSH1 0x24 ADD PUSH1 0x20 PUSH1 0x40 MLOAD DUP1 DUP4 SUB DUP2 DUP7 GAS STATICCALL ISZERO DUP1 ISZERO PUSH2 0x1090 JUMPI RETURNDATASIZE PUSH1 0x0 DUP1 RETURNDATACOPY RETURNDATASIZE PUSH1 0x0 REVERT JUMPDEST POP POP POP POP PUSH1 0x40 MLOAD RETURNDATASIZE PUSH1 0x1F NOT PUSH1 0x1F DUP3 ADD AND DUP3 ADD DUP1 PUSH1 0x40 MSTORE POP DUP2 ADD SWAP1 PUSH2 0x10B4 SWAP2 SWAP1 PUSH2 0x184A JUMP JUMPDEST SWAP1 POP PUSH2 0x52A JUMP JUMPDEST PUSH1 0x40 MLOAD PUSH4 0x4903B0D1 PUSH1 0xE0 SHL DUP2 MSTORE PUSH1 0x4 DUP2 ADD DUP4 SWAP1 MSTORE PUSH1 0x1 PUSH1 0x1 PUSH1 0xA0 SHL SUB DUP5 AND SWAP1 PUSH4 0x4903B0D1 SWAP1 PUSH1 0x24 ADD PUSH1 0x20 PUSH1 0x40 MLOAD DUP1 DUP4 SUB DUP2 DUP7 GAS STATICCALL ISZERO DUP1 ISZERO PUSH2 0x1100 JUMPI RETURNDATASIZE PUSH1 0x0 DUP1 RETURNDATACOPY RETURNDATASIZE PUSH1 0x0 REVERT JUMPDEST POP POP POP POP PUSH1 0x40 MLOAD RETURNDATASIZE PUSH1 0x1F NOT PUSH1 0x1F DUP3 ADD AND DUP3 ADD DUP1 PUSH1 0x40 MSTORE POP DUP2 ADD SWAP1 PUSH2 0x1124 SWAP2 SWAP1 PUSH2 0x184A JUMP JUMPDEST SWAP4 SWAP3 POP POP POP JUMP JUMPDEST PUSH1 0x0 DUP2 PUSH1 0xFF AND DUP4 PUSH1 0xFF AND SUB PUSH2 0x1141 JUMPI POP DUP3 PUSH2 0x1124 JUMP JUMPDEST DUP2 PUSH1 0xFF AND DUP4 PUSH1 0xFF AND GT ISZERO PUSH2 0x1161 JUMPI PUSH2 0x115A DUP5 DUP5 DUP5 PUSH2 0x150F JUMP JUMPDEST SWAP1 POP PUSH2 0x1124 JUMP JUMPDEST PUSH2 0x116C DUP5 DUP5 DUP5 PUSH2 0x1530 JUMP JUMPDEST SWAP5 SWAP4 POP POP POP POP JUMP JUMPDEST PUSH1 0x0 PUSH2 0x1182 PUSH1 0x12 PUSH1 0xA PUSH2 0x1991 JUMP JUMPDEST PUSH2 0x118C DUP4 DUP6 PUSH2 0x199D JUMP JUMPDEST PUSH2 0x1124 SWAP2 SWAP1 PUSH2 0x19B4 JUMP JUMPDEST PUSH1 0x0 PUSH2 0x120C PUSH1 0xA PUSH1 0x12 DUP5 PUSH1 0x0 ADD MLOAD PUSH1 0x1 PUSH1 0x1 PUSH1 0xA0 SHL SUB AND PUSH4 0xDDCA3F43 PUSH1 0x40 MLOAD DUP2 PUSH4 0xFFFFFFFF AND PUSH1 0xE0 SHL DUP2 MSTORE PUSH1 0x4 ADD PUSH1 0x20 PUSH1 0x40 MLOAD DUP1 DUP4 SUB DUP2 DUP7 GAS STATICCALL ISZERO DUP1 ISZERO PUSH2 0x11E1 JUMPI RETURNDATASIZE PUSH1 0x0 DUP1 RETURNDATACOPY RETURNDATASIZE PUSH1 0x0 REVERT JUMPDEST POP POP POP POP PUSH1 0x40 MLOAD RETURNDATASIZE PUSH1 0x1F NOT PUSH1 0x1F DUP3 ADD AND DUP3 ADD DUP1 PUSH1 0x40 MSTORE POP DUP2 ADD SWAP1 PUSH2 0x1205 SWAP2 SWAP1 PUSH2 0x184A JUMP JUMPDEST SWAP2 SWAP1 PUSH2 0x112B JUMP JUMPDEST SWAP1 POP PUSH1 0x0 JUMPDEST PUSH1 0x1 DUP4 PUSH1 0x20 ADD MLOAD PUSH2 0x1222 SWAP2 SWAP1 PUSH2 0x19D6 JUMP JUMPDEST DUP2 LT ISZERO PUSH2 0x14F1 JUMPI PUSH1 0x0 DUP4 PUSH1 0x60 ADD MLOAD DUP3 DUP2 MLOAD DUP2 LT PUSH2 0x1241 JUMPI PUSH2 0x1241 PUSH2 0x177F JUMP JUMPDEST PUSH1 0x20 MUL PUSH1 0x20 ADD ADD MLOAD SWAP1 POP PUSH1 0x0 DUP2 PUSH1 0xA PUSH2 0x125A SWAP2 SWAP1 PUSH2 0x1991 JUMP JUMPDEST SWAP1 POP PUSH1 0x0 DUP6 PUSH1 0x80 ADD MLOAD DUP5 DUP2 MLOAD DUP2 LT PUSH2 0x1274 JUMPI PUSH2 0x1274 PUSH2 0x177F JUMP JUMPDEST PUSH1 0x20 MUL PUSH1 0x20 ADD ADD MLOAD SWAP1 POP PUSH1 0x0 DUP5 PUSH1 0x1 PUSH2 0x128D SWAP2 SWAP1 PUSH2 0x1863 JUMP JUMPDEST SWAP1 POP JUMPDEST DUP7 PUSH1 0x20 ADD MLOAD DUP2 LT ISZERO PUSH2 0x14DA JUMPI PUSH1 0x0 DUP8 PUSH1 0x60 ADD MLOAD DUP3 DUP2 MLOAD DUP2 LT PUSH2 0x12B4 JUMPI PUSH2 0x12B4 PUSH2 0x177F JUMP JUMPDEST PUSH1 0x20 MUL PUSH1 0x20 ADD ADD MLOAD SWAP1 POP PUSH1 0x0 DUP9 PUSH1 0x80 ADD MLOAD DUP4 DUP2 MLOAD DUP2 LT PUSH2 0x12D6 JUMPI PUSH2 0x12D6 PUSH2 0x177F JUMP JUMPDEST PUSH1 0x20 MUL PUSH1 0x20 ADD ADD MLOAD SWAP1 POP PUSH1 0x0 DUP2 DUP6 DUP8 PUSH2 0x12EF SWAP2 SWAP1 PUSH2 0x199D JUMP JUMPDEST PUSH2 0x12F9 SWAP2 SWAP1 PUSH2 0x19B4 JUMP JUMPDEST SWAP1 POP PUSH1 0x0 PUSH2 0x1308 DUP3 DUP10 DUP7 PUSH2 0x112B JUMP JUMPDEST SWAP1 POP PUSH1 0x0 PUSH1 0x4 DUP13 PUSH1 0x40 ADD MLOAD PUSH1 0x4 DUP2 GT ISZERO PUSH2 0x1324 JUMPI PUSH2 0x1324 PUSH2 0x1897 JUMP JUMPDEST SUB PUSH2 0x13AA JUMPI DUP12 MLOAD PUSH1 0x40 MLOAD PUSH4 0x556D6E9F PUSH1 0xE0 SHL DUP2 MSTORE PUSH1 0x4 DUP2 ADD DUP13 SWAP1 MSTORE PUSH1 0x24 DUP2 ADD DUP9 SWAP1 MSTORE PUSH1 0x44 DUP2 ADD DUP11 SWAP1 MSTORE PUSH1 0x1 PUSH1 0x1 PUSH1 0xA0 SHL SUB SWAP1 SWAP2 AND SWAP1 PUSH4 0x556D6E9F SWAP1 PUSH1 0x64 ADD PUSH1 0x20 PUSH1 0x40 MLOAD DUP1 DUP4 SUB DUP2 DUP7 GAS STATICCALL ISZERO DUP1 ISZERO PUSH2 0x137F JUMPI RETURNDATASIZE PUSH1 0x0 DUP1 RETURNDATACOPY RETURNDATASIZE PUSH1 0x0 REVERT JUMPDEST POP POP POP POP PUSH1 0x40 MLOAD RETURNDATASIZE PUSH1 0x1F NOT PUSH1 0x1F DUP3 ADD AND DUP3 ADD DUP1 PUSH1 0x40 MSTORE POP DUP2 ADD SWAP1 PUSH2 0x13A3 SWAP2 SWAP1 PUSH2 0x184A JUMP JUMPDEST SWAP1 POP PUSH2 0x142B JUMP JUMPDEST DUP12 MLOAD PUSH1 0x40 MLOAD PUSH4 0x5E0D443F PUSH1 0xE0 SHL DUP2 MSTORE PUSH1 0xF DUP13 DUP2 SIGNEXTEND PUSH1 0x4 DUP4 ADD MSTORE DUP9 SWAP1 SIGNEXTEND PUSH1 0x24 DUP3 ADD MSTORE PUSH1 0x44 DUP2 ADD DUP11 SWAP1 MSTORE PUSH1 0x1 PUSH1 0x1 PUSH1 0xA0 SHL SUB SWAP1 SWAP2 AND SWAP1 PUSH4 0x5E0D443F SWAP1 PUSH1 0x64 ADD PUSH1 0x20 PUSH1 0x40 MLOAD DUP1 DUP4 SUB DUP2 DUP7 GAS STATICCALL ISZERO DUP1 ISZERO PUSH2 0x1404 JUMPI RETURNDATASIZE PUSH1 0x0 DUP1 RETURNDATACOPY RETURNDATASIZE PUSH1 0x0 REVERT JUMPDEST POP POP POP POP PUSH1 0x40 MLOAD RETURNDATASIZE PUSH1 0x1F NOT PUSH1 0x1F DUP3 ADD AND DUP3 ADD DUP1 PUSH1 0x40 MSTORE POP DUP2 ADD SWAP1 PUSH2 0x1428 SWAP2 SWAP1 PUSH2 0x184A JUMP JUMPDEST SWAP1 POP JUMPDEST PUSH1 0x0 PUSH2 0x147A DUP14 PUSH1 0xA0 ADD MLOAD DUP9 DUP2 MLOAD DUP2 LT PUSH2 0x1446 JUMPI PUSH2 0x1446 PUSH2 0x177F JUMP JUMPDEST PUSH1 0x20 MUL PUSH1 0x20 ADD ADD MLOAD DUP15 PUSH1 0xA0 ADD MLOAD DUP14 DUP2 MLOAD DUP2 LT PUSH2 0x1464 JUMPI PUSH2 0x1464 PUSH2 0x177F JUMP JUMPDEST PUSH1 0x20 MUL PUSH1 0x20 ADD ADD MLOAD PUSH2 0x1551 SWAP1 SWAP2 SWAP1 PUSH4 0xFFFFFFFF AND JUMP JUMPDEST SWAP1 POP PUSH2 0x1488 DUP4 DUP4 DUP15 DUP5 PUSH2 0x1568 JUMP JUMPDEST PUSH2 0x14C1 JUMPI DUP13 MLOAD PUSH1 0x40 MLOAD PUSH4 0xC512C56B PUSH1 0xE0 SHL DUP2 MSTORE PUSH1 0x1 PUSH1 0x1 PUSH1 0xA0 SHL SUB SWAP1 SWAP2 AND PUSH1 0x4 DUP3 ADD MSTORE PUSH1 0x24 DUP2 ADD DUP13 SWAP1 MSTORE PUSH1 0x44 DUP2 ADD DUP9 SWAP1 MSTORE PUSH1 0x64 ADD PUSH2 0x1CD JUMP JUMPDEST POP POP POP POP POP POP DUP1 DUP1 PUSH2 0x14D2 SWAP1 PUSH2 0x17AB JUMP JUMPDEST SWAP2 POP POP PUSH2 0x1290 JUMP JUMPDEST POP POP POP POP DUP1 DUP1 PUSH2 0x14E9 SWAP1 PUSH2 0x17AB JUMP JUMPDEST SWAP2 POP POP PUSH2 0x1211 JUMP JUMPDEST POP POP POP JUMP JUMPDEST PUSH1 0x0 DUP2 PUSH2 0x1505 PUSH1 0x12 PUSH1 0xA PUSH2 0x1991 JUMP JUMPDEST PUSH2 0x118C SWAP1 DUP6 PUSH2 0x199D JUMP JUMPDEST PUSH1 0x0 PUSH2 0x151B DUP3 DUP5 PUSH2 0x19E9 JUMP JUMPDEST PUSH2 0x1526 SWAP1 PUSH1 0xA PUSH2 0x1A02 JUMP JUMPDEST PUSH2 0x116C SWAP1 DUP6 PUSH2 0x19B4 JUMP JUMPDEST PUSH1 0x0 PUSH2 0x153C DUP4 DUP4 PUSH2 0x19E9 JUMP JUMPDEST PUSH2 0x1547 SWAP1 PUSH1 0xA PUSH2 0x1A02 JUMP JUMPDEST PUSH2 0x116C SWAP1 DUP6 PUSH2 0x199D JUMP JUMPDEST PUSH1 0x0 DUP2 DUP4 LT ISZERO PUSH2 0x1561 JUMPI DUP2 PUSH2 0x1124 JUMP JUMPDEST POP SWAP1 SWAP2 SWAP1 POP JUMP JUMPDEST PUSH1 0x0 DUP2 PUSH1 0x0 SUB PUSH2 0x157D JUMPI PUSH7 0xAA87BEE538000 SWAP2 POP JUMPDEST PUSH1 0x0 PUSH2 0x158A PUSH1 0x3 DUP6 PUSH2 0x199D JUMP JUMPDEST PUSH2 0x1594 SWAP1 DUP5 PUSH2 0x1863 JUMP JUMPDEST SWAP1 POP DUP5 DUP7 GT ISZERO PUSH2 0x15BD JUMPI DUP1 PUSH2 0x15B3 DUP8 PUSH2 0x15AD DUP9 DUP3 PUSH2 0x19D6 JUMP JUMPDEST SWAP1 PUSH2 0x14F6 JUMP JUMPDEST GT ISZERO SWAP2 POP POP PUSH2 0x116C JUMP JUMPDEST DUP1 PUSH2 0x15CC DUP7 PUSH2 0x15AD DUP10 DUP3 PUSH2 0x19D6 JUMP JUMPDEST GT ISZERO SWAP7 SWAP6 POP POP POP POP POP POP JUMP JUMPDEST PUSH1 0x1 PUSH1 0x1 PUSH1 0xA0 SHL SUB DUP2 AND DUP2 EQ PUSH2 0x645 JUMPI PUSH1 0x0 DUP1 REVERT JUMPDEST PUSH1 0x0 DUP1 PUSH1 0x40 DUP4 DUP6 SUB SLT ISZERO PUSH2 0x1600 JUMPI PUSH1 0x0 DUP1 REVERT JUMPDEST DUP3 CALLDATALOAD PUSH2 0x160B DUP2 PUSH2 0x15D8 JUMP JUMPDEST SWAP5 PUSH1 0x20 SWAP4 SWAP1 SWAP4 ADD CALLDATALOAD SWAP4 POP POP POP JUMP JUMPDEST PUSH1 0x0 PUSH1 0x20 DUP3 DUP5 SUB SLT ISZERO PUSH2 0x162B JUMPI PUSH1 0x0 DUP1 REVERT JUMPDEST DUP2 CALLDATALOAD PUSH2 0x1124 DUP2 PUSH2 0x15D8 JUMP JUMPDEST PUSH1 0x0 PUSH1 0x20 DUP3 DUP5 SUB SLT ISZERO PUSH2 0x1648 JUMPI PUSH1 0x0 DUP1 REVERT JUMPDEST DUP2 MLOAD PUSH2 0x1124 DUP2 PUSH2 0x15D8 JUMP JUMPDEST PUSH1 0x0 PUSH1 0x20 DUP3 DUP5 SUB SLT ISZERO PUSH2 0x1665 JUMPI PUSH1 0x0 DUP1 REVERT JUMPDEST DUP2 MLOAD DUP1 ISZERO ISZERO DUP2 EQ PUSH2 0x1124 JUMPI PUSH1 0x0 DUP1 REVERT JUMPDEST PUSH4 0x4E487B71 PUSH1 0xE0 SHL PUSH1 0x0 MSTORE PUSH1 0x41 PUSH1 0x4 MSTORE PUSH1 0x24 PUSH1 0x0 REVERT JUMPDEST PUSH1 0x40 MLOAD PUSH1 0x1F DUP3 ADD PUSH1 0x1F NOT AND DUP2 ADD PUSH8 0xFFFFFFFFFFFFFFFF DUP2 GT DUP3 DUP3 LT OR ISZERO PUSH2 0x16B4 JUMPI PUSH2 0x16B4 PUSH2 0x1675 JUMP JUMPDEST PUSH1 0x40 MSTORE SWAP2 SWAP1 POP JUMP JUMPDEST PUSH1 0x0 PUSH8 0xFFFFFFFFFFFFFFFF DUP3 GT ISZERO PUSH2 0x16D6 JUMPI PUSH2 0x16D6 PUSH2 0x1675 JUMP JUMPDEST POP PUSH1 0x5 SHL PUSH1 0x20 ADD SWAP1 JUMP JUMPDEST PUSH1 0x0 PUSH1 0x20 DUP1 DUP4 DUP6 SUB SLT ISZERO PUSH2 0x16F3 JUMPI PUSH1 0x0 DUP1 REVERT JUMPDEST DUP3 MLOAD PUSH8 0xFFFFFFFFFFFFFFFF DUP2 GT ISZERO PUSH2 0x170A JUMPI PUSH1 0x0 DUP1 REVERT JUMPDEST DUP4 ADD PUSH1 0x1F DUP2 ADD DUP6 SGT PUSH2 0x171B JUMPI PUSH1 0x0 DUP1 REVERT JUMPDEST DUP1 MLOAD PUSH2 0x172E PUSH2 0x1729 DUP3 PUSH2 0x16BC JUMP JUMPDEST PUSH2 0x168B JUMP JUMPDEST DUP2 DUP2 MSTORE PUSH1 0x5 SWAP2 SWAP1 SWAP2 SHL DUP3 ADD DUP4 ADD SWAP1 DUP4 DUP2 ADD SWAP1 DUP8 DUP4 GT ISZERO PUSH2 0x174D JUMPI PUSH1 0x0 DUP1 REVERT JUMPDEST SWAP3 DUP5 ADD SWAP3 JUMPDEST DUP3 DUP5 LT ISZERO PUSH2 0x1774 JUMPI DUP4 MLOAD PUSH2 0x1765 DUP2 PUSH2 0x15D8 JUMP JUMPDEST DUP3 MSTORE SWAP3 DUP5 ADD SWAP3 SWAP1 DUP5 ADD SWAP1 PUSH2 0x1752 JUMP JUMPDEST SWAP8 SWAP7 POP POP POP POP POP POP POP JUMP JUMPDEST PUSH4 0x4E487B71 PUSH1 0xE0 SHL PUSH1 0x0 MSTORE PUSH1 0x32 PUSH1 0x4 MSTORE PUSH1 0x24 PUSH1 0x0 REVERT JUMPDEST PUSH4 0x4E487B71 PUSH1 0xE0 SHL PUSH1 0x0 MSTORE PUSH1 0x11 PUSH1 0x4 MSTORE PUSH1 0x24 PUSH1 0x0 REVERT JUMPDEST PUSH1 0x0 PUSH1 0x1 DUP3 ADD PUSH2 0x17BD JUMPI PUSH2 0x17BD PUSH2 0x1795 JUMP JUMPDEST POP PUSH1 0x1 ADD SWAP1 JUMP JUMPDEST PUSH1 0x0 PUSH1 0x20 DUP1 DUP4 DUP6 SUB SLT ISZERO PUSH2 0x17D7 JUMPI PUSH1 0x0 DUP1 REVERT JUMPDEST DUP3 MLOAD PUSH8 0xFFFFFFFFFFFFFFFF DUP2 GT ISZERO PUSH2 0x17EE JUMPI PUSH1 0x0 DUP1 REVERT JUMPDEST DUP4 ADD PUSH1 0x1F DUP2 ADD DUP6 SGT PUSH2 0x17FF JUMPI PUSH1 0x0 DUP1 REVERT JUMPDEST DUP1 MLOAD PUSH2 0x180D PUSH2 0x1729 DUP3 PUSH2 0x16BC JUMP JUMPDEST DUP2 DUP2 MSTORE PUSH1 0x5 SWAP2 SWAP1 SWAP2 SHL DUP3 ADD DUP4 ADD SWAP1 DUP4 DUP2 ADD SWAP1 DUP8 DUP4 GT ISZERO PUSH2 0x182C JUMPI PUSH1 0x0 DUP1 REVERT JUMPDEST SWAP3 DUP5 ADD SWAP3 JUMPDEST DUP3 DUP5 LT ISZERO PUSH2 0x1774 JUMPI DUP4 MLOAD DUP3 MSTORE SWAP3 DUP5 ADD SWAP3 SWAP1 DUP5 ADD SWAP1 PUSH2 0x1831 JUMP JUMPDEST PUSH1 0x0 PUSH1 0x20 DUP3 DUP5 SUB SLT ISZERO PUSH2 0x185C JUMPI PUSH1 0x0 DUP1 REVERT JUMPDEST POP MLOAD SWAP2 SWAP1 POP JUMP JUMPDEST DUP1 DUP3 ADD DUP1 DUP3 GT ISZERO PUSH2 0x52A JUMPI PUSH2 0x52A PUSH2 0x1795 JUMP JUMPDEST PUSH1 0x0 PUSH1 0x20 DUP3 DUP5 SUB SLT ISZERO PUSH2 0x1888 JUMPI PUSH1 0x0 DUP1 REVERT JUMPDEST DUP2 MLOAD PUSH1 0x5 DUP2 LT PUSH2 0x1124 JUMPI PUSH1 0x0 DUP1 REVERT JUMPDEST PUSH4 0x4E487B71 PUSH1 0xE0 SHL PUSH1 0x0 MSTORE PUSH1 0x21 PUSH1 0x4 MSTORE PUSH1 0x24 PUSH1 0x0 REVERT JUMPDEST PUSH1 0x1 DUP2 DUP2 JUMPDEST DUP1 DUP6 GT ISZERO PUSH2 0x18E8 JUMPI DUP2 PUSH1 0x0 NOT DIV DUP3 GT ISZERO PUSH2 0x18CE JUMPI PUSH2 0x18CE PUSH2 0x1795 JUMP JUMPDEST DUP1 DUP6 AND ISZERO PUSH2 0x18DB JUMPI SWAP2 DUP2 MUL SWAP2 JUMPDEST SWAP4 DUP5 SHR SWAP4 SWAP1 DUP1 MUL SWAP1 PUSH2 0x18B2 JUMP JUMPDEST POP SWAP3 POP SWAP3 SWAP1 POP JUMP JUMPDEST PUSH1 0x0 DUP3 PUSH2 0x18FF JUMPI POP PUSH1 0x1 PUSH2 0x52A JUMP JUMPDEST DUP2 PUSH2 0x190C JUMPI POP PUSH1 0x0 PUSH2 0x52A JUMP JUMPDEST DUP2 PUSH1 0x1 DUP2 EQ PUSH2 0x1922 JUMPI PUSH1 0x2 DUP2 EQ PUSH2 0x192C JUMPI PUSH2 0x1948 JUMP JUMPDEST PUSH1 0x1 SWAP2 POP POP PUSH2 0x52A JUMP JUMPDEST PUSH1 0xFF DUP5 GT ISZERO PUSH2 0x193D JUMPI PUSH2 0x193D PUSH2 0x1795 JUMP JUMPDEST POP POP PUSH1 0x1 DUP3 SHL PUSH2 0x52A JUMP JUMPDEST POP PUSH1 0x20 DUP4 LT PUSH2 0x133 DUP4 LT AND PUSH1 0x4E DUP5 LT PUSH1 0xB DUP5 LT AND OR ISZERO PUSH2 0x196B JUMPI POP DUP2 DUP2 EXP PUSH2 0x52A JUMP JUMPDEST PUSH2 0x1975 DUP4 DUP4 PUSH2 0x18AD JUMP JUMPDEST DUP1 PUSH1 0x0 NOT DIV DUP3 GT ISZERO PUSH2 0x1989 JUMPI PUSH2 0x1989 PUSH2 0x1795 JUMP JUMPDEST MUL SWAP4 SWAP3 POP POP POP JUMP JUMPDEST PUSH1 0x0 PUSH2 0x1124 DUP4 DUP4 PUSH2 0x18F0 JUMP JUMPDEST DUP1 DUP3 MUL DUP2 ISZERO DUP3 DUP3 DIV DUP5 EQ OR PUSH2 0x52A JUMPI PUSH2 0x52A PUSH2 0x1795 JUMP JUMPDEST PUSH1 0x0 DUP3 PUSH2 0x19D1 JUMPI PUSH4 0x4E487B71 PUSH1 0xE0 SHL PUSH1 0x0 MSTORE PUSH1 0x12 PUSH1 0x4 MSTORE PUSH1 0x24 PUSH1 0x0 REVERT JUMPDEST POP DIV SWAP1 JUMP JUMPDEST DUP2 DUP2 SUB DUP2 DUP2 GT ISZERO PUSH2 0x52A JUMPI PUSH2 0x52A PUSH2 0x1795 JUMP JUMPDEST PUSH1 0xFF DUP3 DUP2 AND DUP3 DUP3 AND SUB SWAP1 DUP2 GT ISZERO PUSH2 0x52A JUMPI PUSH2 0x52A PUSH2 0x1795 JUMP JUMPDEST PUSH1 0x0 PUSH2 0x1124 PUSH1 0xFF DUP5 AND DUP4 PUSH2 0x18F0 JUMP INVALID LOG2 PUSH5 0x6970667358 0x22 SLT KECCAK256 0xA5 0x21 COINBASE 0xE1 0xEE 0xC4 PUSH31 0x6095DB987E4AA0BD99F9B5A06EE6B7975CC36F3B560C34E8AC64736F6C6343 STOP ADDMOD GT STOP CALLER ","sha1":"d1395786b8124a75af7686d2429cd2ca1ff49d1d","source":"// SPDX-License-Identifier: GPL-3.0-or-later\npragma solidity 0.8.17;\n\nimport \"@openzeppelin/contracts/token/ERC20/IERC20.sol\";\nimport \"@openzeppelin/contracts/access/Ownable.sol\";\n\nimport \"../../libraries/Types.sol\";\nimport \"../../libraries/ScaledMath.sol\";\nimport \"../../libraries/ScaledMath.sol\";\nimport \"../../libraries/CurvePoolUtils.sol\";\nimport \"../../interfaces/IOracle.sol\";\nimport \"../../interfaces/IController.sol\";\nimport \"../../interfaces/vendor/ICurveFactory.sol\";\nimport \"../../interfaces/vendor/ICurvePoolV0.sol\";\nimport \"../../interfaces/vendor/ICurvePoolV1.sol\";\nimport \"../../interfaces/vendor/ICurveMetaRegistry.sol\";\n\ncontract CurveLPOracle is IOracle, Ownable {\n    using ScaledMath for uint256;\n\n    event ImbalanceThresholdUpdated(address indexed token, uint256 threshold);\n    event InternalImbalanceThresholdUpdated(address indexed token, uint256 threshold);\n\n    uint256 internal constant _MAX_IMBALANCE_BUFFER = 0.1e18;\n    mapping(address => uint256) public customImbalanceBuffers;\n\n    /// @notice these are used when the oracle is called internally for pricing metapool base pools\n    mapping(address => uint256) public customInternalImbalanceBuffers;\n\n    IController private immutable controller;\n\n    constructor(address controller_) {\n        controller = IController(controller_);\n    }\n\n    function isTokenSupported(address token) external view override returns (bool) {\n        IOracle genericOracle = controller.priceOracle();\n        address pool = _getCurvePool(token);\n        ICurveRegistryCache curveRegistryCache_ = controller.curveRegistryCache();\n        if (!curveRegistryCache_.isRegistered(pool)) return false;\n        address[] memory coins = curveRegistryCache_.coins(pool);\n        for (uint256 i; i < coins.length; i++) {\n            if (!genericOracle.isTokenSupported(coins[i])) return false;\n        }\n        return true;\n    }\n\n    function getUSDPrice(address token) external view returns (uint256) {\n        return _getUSDPrice(token, false);\n    }\n\n    function _getUSDPrice(address token, bool isInternal) internal view returns (uint256) {\n        IGenericOracle genericOracle = controller.priceOracle();\n\n        // Getting the pool data\n        address pool = _getCurvePool(token);\n        ICurveRegistryCache curveRegistryCache_ = controller.curveRegistryCache();\n        require(curveRegistryCache_.isRegistered(pool), \"token not supported\");\n        uint256[] memory decimals = curveRegistryCache_.decimals(pool);\n        address[] memory coins = curveRegistryCache_.coins(pool);\n\n        // Adding up the USD value of all the coins in the pool\n        uint256 value;\n        uint256 numberOfCoins = curveRegistryCache_.nCoins(pool);\n        uint256[] memory prices = new uint256[](numberOfCoins);\n        uint256[] memory imbalanceBuffers = new uint256[](numberOfCoins);\n        for (uint256 i; i < numberOfCoins; i++) {\n            address coin = coins[i];\n            IOracle oracle = genericOracle.getOracle(coin);\n\n            uint256 imbalanceBuffer = isInternal\n                ? customInternalImbalanceBuffers[coin]\n                : customImbalanceBuffers[coin];\n\n            uint256 price = address(oracle) == address(this)\n                ? _getUSDPrice(coin, true)\n                : oracle.getUSDPrice(coin);\n\n            prices[i] = price;\n            imbalanceBuffers[i] = imbalanceBuffer;\n            require(price > 0, \"price is 0\");\n            uint256 balance = _getBalance(pool, i);\n            require(balance > 0, \"balance is 0\");\n            value += balance.convertScale(uint8(decimals[i]), 18).mulDown(price);\n        }\n\n        // Verifying the pool is balanced\n        CurvePoolUtils.ensurePoolBalanced(\n            CurvePoolUtils.PoolMeta({\n                pool: pool,\n                numberOfCoins: numberOfCoins,\n                assetType: curveRegistryCache_.assetType(pool),\n                decimals: decimals,\n                prices: prices,\n                imbalanceBuffers: imbalanceBuffers\n            })\n        );\n\n        // Returning the value of the pool in USD per LP Token\n        return value.divDown(IERC20(token).totalSupply());\n    }\n\n    function setImbalanceThreshold(address token, uint256 buffer) external onlyOwner {\n        require(buffer <= _MAX_IMBALANCE_BUFFER, \"buffer too high\");\n        customImbalanceBuffers[token] = buffer;\n        emit ImbalanceThresholdUpdated(token, buffer);\n    }\n\n    function setInternalImbalanceThreshold(address token, uint256 buffer) external onlyOwner {\n        require(buffer <= _MAX_IMBALANCE_BUFFER, \"buffer too high\");\n        customInternalImbalanceBuffers[token] = buffer;\n        emit InternalImbalanceThresholdUpdated(token, buffer);\n    }\n\n    function _getCurvePool(address lpToken_) internal view returns (address) {\n        return controller.curveRegistryCache().poolFromLpToken(lpToken_);\n    }\n\n    function _getBalance(address curvePool, uint256 index) internal view returns (uint256) {\n        if (controller.curveRegistryCache().interfaceVersion(curvePool) == 0) {\n            return ICurvePoolV0(curvePool).balances(int128(uint128(index)));\n        }\n        return ICurvePoolV1(curvePool).balances(index);\n    }\n}\n","sourcePath":"contracts/oracles/CurveLPOracle.sol","type":"contract","deployment":{"address":"0x143f4fbc7b9d4235B2D8a74E905598dA7E951be0","chainid":"1","blockHeight":19079513}}