{"abi":[{"inputs":[{"internalType":"address","name":"_controller","type":"address"},{"internalType":"address","name":"_underlying","type":"address"}],"stateMutability":"nonpayable","type":"constructor","name":"constructor"},{"anonymous":false,"inputs":[{"indexed":false,"internalType":"uint256","name":"claimedCrv","type":"uint256"},{"indexed":false,"internalType":"uint256","name":"claimedCvx","type":"uint256"}],"name":"ClaimedRewards","type":"event"},{"anonymous":false,"inputs":[{"indexed":true,"internalType":"address","name":"claimedBy","type":"address"},{"indexed":false,"internalType":"uint256","name":"cncEarned","type":"uint256"},{"indexed":false,"internalType":"uint256","name":"crvEarned","type":"uint256"},{"indexed":false,"internalType":"uint256","name":"cvxEarned","type":"uint256"}],"name":"EarningsClaimed","type":"event"},{"anonymous":false,"inputs":[{"indexed":false,"internalType":"address","name":"reward","type":"address"}],"name":"ExtraRewardAdded","type":"event"},{"anonymous":false,"inputs":[{"indexed":false,"internalType":"address","name":"reward","type":"address"}],"name":"ExtraRewardRemoved","type":"event"},{"anonymous":false,"inputs":[{"indexed":false,"internalType":"address","name":"extraReward","type":"address"},{"indexed":false,"internalType":"address","name":"curvePool","type":"address"}],"name":"ExtraRewardsCurvePoolSet","type":"event"},{"anonymous":false,"inputs":[{"indexed":false,"internalType":"uint256","name":"feePercentage","type":"uint256"}],"name":"FeesEnabled","type":"event"},{"anonymous":false,"inputs":[{"indexed":false,"internalType":"uint256","name":"feePercentage","type":"uint256"}],"name":"FeesSet","type":"event"},{"anonymous":false,"inputs":[{"indexed":false,"internalType":"uint8","name":"version","type":"uint8"}],"name":"Initialized","type":"event"},{"anonymous":false,"inputs":[{"indexed":true,"internalType":"address","name":"previousOwner","type":"address"},{"indexed":true,"internalType":"address","name":"newOwner","type":"address"}],"name":"OwnershipTransferred","type":"event"},{"anonymous":false,"inputs":[{"indexed":false,"internalType":"uint256","name":"targetTokenReceived","type":"uint256"}],"name":"SoldRewardTokens","type":"event"},{"inputs":[],"name":"CNC","outputs":[{"internalType":"contract IERC20","name":"","type":"address"}],"stateMutability":"view","type":"function"},{"inputs":[],"name":"CNC_ETH_POOL","outputs":[{"internalType":"contract ICurvePoolV2","name":"","type":"address"}],"stateMutability":"view","type":"function"},{"inputs":[],"name":"CRV","outputs":[{"internalType":"contract IERC20","name":"","type":"address"}],"stateMutability":"view","type":"function"},{"inputs":[],"name":"CVX","outputs":[{"internalType":"contract IERC20","name":"","type":"address"}],"stateMutability":"view","type":"function"},{"inputs":[],"name":"MAX_FEE_PERCENTAGE","outputs":[{"internalType":"uint256","name":"","type":"uint256"}],"stateMutability":"view","type":"function"},{"inputs":[],"name":"SLIPPAGE_THRESHOLD","outputs":[{"internalType":"uint256","name":"","type":"uint256"}],"stateMutability":"view","type":"function"},{"inputs":[],"name":"SUSHISWAP","outputs":[{"internalType":"contract UniswapRouter02","name":"","type":"address"}],"stateMutability":"view","type":"function"},{"inputs":[],"name":"WETH","outputs":[{"internalType":"contract IERC20","name":"","type":"address"}],"stateMutability":"view","type":"function"},{"inputs":[{"internalType":"address","name":"account","type":"address"}],"name":"accountCheckpoint","outputs":[],"stateMutability":"nonpayable","type":"function"},{"inputs":[{"internalType":"address[]","name":"_rewards","type":"address[]"}],"name":"addBatchExtraRewards","outputs":[],"stateMutability":"nonpayable","type":"function"},{"inputs":[{"internalType":"address","name":"reward","type":"address"}],"name":"addExtraReward","outputs":[{"internalType":"bool","name":"","type":"bool"}],"stateMutability":"nonpayable","type":"function"},{"inputs":[],"name":"claimEarnings","outputs":[{"internalType":"uint256","name":"","type":"uint256"},{"internalType":"uint256","name":"","type":"uint256"},{"internalType":"uint256","name":"","type":"uint256"}],"stateMutability":"nonpayable","type":"function"},{"inputs":[],"name":"claimPoolEarningsAndSellRewardTokens","outputs":[],"stateMutability":"nonpayable","type":"function"},{"inputs":[{"internalType":"address","name":"account","type":"address"}],"name":"claimableRewards","outputs":[{"internalType":"uint256","name":"cncRewards","type":"uint256"},{"internalType":"uint256","name":"crvRewards","type":"uint256"},{"internalType":"uint256","name":"cvxRewards","type":"uint256"}],"stateMutability":"view","type":"function"},{"inputs":[],"name":"conicPool","outputs":[{"internalType":"address","name":"","type":"address"}],"stateMutability":"view","type":"function"},{"inputs":[],"name":"controller","outputs":[{"internalType":"contract IController","name":"","type":"address"}],"stateMutability":"view","type":"function"},{"inputs":[{"internalType":"address","name":"","type":"address"}],"name":"extraRewardsCurvePool","outputs":[{"internalType":"address","name":"","type":"address"}],"stateMutability":"view","type":"function"},{"inputs":[],"name":"feePercentage","outputs":[{"internalType":"uint256","name":"","type":"uint256"}],"stateMutability":"view","type":"function"},{"inputs":[],"name":"feesEnabled","outputs":[{"internalType":"bool","name":"","type":"bool"}],"stateMutability":"view","type":"function"},{"inputs":[{"internalType":"address","name":"_pool","type":"address"}],"name":"initialize","outputs":[],"stateMutability":"nonpayable","type":"function"},{"inputs":[],"name":"listExtraRewards","outputs":[{"internalType":"address[]","name":"","type":"address[]"}],"stateMutability":"view","type":"function"},{"inputs":[],"name":"owner","outputs":[{"internalType":"address","name":"","type":"address"}],"stateMutability":"view","type":"function"},{"inputs":[],"name":"poolCheckpoint","outputs":[{"internalType":"bool","name":"","type":"bool"}],"stateMutability":"nonpayable","type":"function"},{"inputs":[{"internalType":"address","name":"tokenAddress","type":"address"}],"name":"removeExtraReward","outputs":[],"stateMutability":"nonpayable","type":"function"},{"inputs":[],"name":"renounceOwnership","outputs":[],"stateMutability":"nonpayable","type":"function"},{"inputs":[{"internalType":"address","name":"extraReward_","type":"address"},{"internalType":"address","name":"curvePool_","type":"address"}],"name":"setExtraRewardsCurvePool","outputs":[],"stateMutability":"nonpayable","type":"function"},{"inputs":[{"internalType":"uint256","name":"_feePercentage","type":"uint256"}],"name":"setFeePercentage","outputs":[],"stateMutability":"nonpayable","type":"function"},{"inputs":[{"internalType":"address","name":"newOwner","type":"address"}],"name":"transferOwnership","outputs":[],"stateMutability":"nonpayable","type":"function"},{"inputs":[],"name":"underlying","outputs":[{"internalType":"contract IERC20","name":"","type":"address"}],"stateMutability":"view","type":"function"}],"bytecode":"60c06040523480156200001157600080fd5b5060405162004f6b38038062004f6b8339810160408190526200003491620004e2565b6200003f336200009d565b6001600160a01b03818116608052821660a0526200009573c02aaa39b223fe8d0a0e5c4f27ead9083c756cc273838af967537350d2c44abb8c010e49e32673ab94600019620000ed602090811b62001d4817901c565b5050620005d8565b600080546001600160a01b038381166001600160a01b0319831681178455604051919092169283917f8be0079c531659141344cd1fd0a4f28419497f9722a3daafe3b4186f6b6457e09190a35050565b8015806200016b5750604051636eb1769f60e11b81523060048201526001600160a01b03838116602483015284169063dd62ed3e90604401602060405180830381865afa15801562000143573d6000803e3d6000fd5b505050506040513d601f19601f820116820180604052508101906200016991906200051a565b155b620001e35760405162461bcd60e51b815260206004820152603660248201527f5361666545524332303a20617070726f76652066726f6d206e6f6e2d7a65726f60448201527f20746f206e6f6e2d7a65726f20616c6c6f77616e63650000000000000000000060648201526084015b60405180910390fd5b604080516001600160a01b038416602482015260448082018490528251808303909101815260649091019091526020810180516001600160e01b0390811663095ea7b360e01b179091526200023b9185916200024016565b505050565b60006200029c826040518060400160405280602081526020017f5361666545524332303a206c6f772d6c6576656c2063616c6c206661696c6564815250856001600160a01b03166200032160201b62001e95179092919060201c565b9050805160001480620002c0575080806020019051810190620002c0919062000534565b6200023b5760405162461bcd60e51b815260206004820152602a60248201527f5361666545524332303a204552433230206f7065726174696f6e20646964206e6044820152691bdd081cdd58d8d9595960b21b6064820152608401620001da565b60606200033284846000856200033a565b949350505050565b6060824710156200039d5760405162461bcd60e51b815260206004820152602660248201527f416464726573733a20696e73756666696369656e742062616c616e636520666f6044820152651c8818d85b1b60d21b6064820152608401620001da565b600080866001600160a01b03168587604051620003bb919062000585565b60006040518083038185875af1925050503d8060008114620003fa576040519150601f19603f3d011682016040523d82523d6000602084013e620003ff565b606091505b50909250905062000413878383876200041e565b979650505050505050565b60608315620004925782516000036200048a576001600160a01b0385163b6200048a5760405162461bcd60e51b815260206004820152601d60248201527f416464726573733a2063616c6c20746f206e6f6e2d636f6e74726163740000006044820152606401620001da565b508162000332565b620003328383815115620004a95781518083602001fd5b8060405162461bcd60e51b8152600401620001da9190620005a3565b80516001600160a01b0381168114620004dd57600080fd5b919050565b60008060408385031215620004f657600080fd5b6200050183620004c5565b91506200051160208401620004c5565b90509250929050565b6000602082840312156200052d57600080fd5b5051919050565b6000602082840312156200054757600080fd5b815180151581146200055857600080fd5b9392505050565b60005b838110156200057c57818101518382015260200162000562565b50506000910152565b60008251620005998184602087016200055f565b9190910192915050565b6020815260008251806020840152620005c48160408501602087016200055f565b601f01601f19169190910160400192915050565b60805160a0516148ef6200067c60003960008181610448015281816105a10152818161079b01528181610a5f01528181610da101528181611251015281816118cd01528181611a0c01528181611b1201528181611fae0152818161234c0152818161260c0152818161294801528181612aa901528181612e0d0152818161307e015281816138f30152613dd701526000818161029e0152610c8001526148ef6000f3fe608060405234801561001057600080fd5b50600436106101cf5760003560e01c8063a001ecdd11610104578063d9ceab13116100a2578063e846500911610071578063e846500914610421578063f2fde38b14610430578063f77c479114610443578063fe09d54d1461046a57600080fd5b8063d9ceab13146103ba578063d9e65ced146103dd578063dc01f60d14610406578063e77061831461041957600080fd5b8063ad5c4648116100de578063ad5c464814610366578063ae06c1b714610381578063bf928f8b14610394578063c4d66de8146103a757600080fd5b8063a001ecdd1461033d578063a64e4f8a14610346578063a80ff90a1461035357600080fd5b80636f307dc3116101715780637d59ce011161014b5780637d59ce01146102e35780638da5cb5b146102f6578063945c9142146103075780639c708aab1461032257600080fd5b80636f307dc314610299578063715018a6146102c0578063759cb53b146102c857600080fd5b80635790a0c8116101ad5780635790a0c81461023e5780635e43c47b14610256578063632473da146102695780636dc47e1e1461028457600080fd5b806303950fb5146101d457806349556709146101e9578063558e44d314610221575b600080fd5b6101e76101e23660046141c4565b61047d565b005b61020473838af967537350d2c44abb8c010e49e32673ab9481565b6040516001600160a01b0390911681526020015b60405180910390f35b610230670429d069189e000081565b604051908152602001610218565b61024661059c565b6040519015158152602001610218565b6102466102643660046141fd565b610b93565b610204739ae380f0272e2162340a5bb646c354271c0f5cfc81565b61028c61105e565b604051610218919061425e565b6102047f000000000000000000000000000000000000000000000000000000000000000081565b6101e761106f565b610204734e3fbd56cd56c3e72c1403e103b45db9da5b9d2b81565b600154610204906001600160a01b031681565b6000546001600160a01b0316610204565b61020473d533a949740bb3306d119cc777fa900ba034cd5281565b61020473d9e1ce17f2641f24ae83637ab66a2cca9c378b9f81565b61023060085481565b6007546102469060ff1681565b6101e76103613660046141fd565b611083565b61020473c02aaa39b223fe8d0a0e5c4f27ead9083c756cc281565b6101e761038f366004614271565b611181565b6101e76103a23660046141fd565b611364565b6101e76103b53660046141fd565b611370565b6103c26114b4565b60408051938452602084019290925290820152606001610218565b6102046103eb3660046141fd565b6004602052600090815260409020546001600160a01b031681565b6103c26104143660046141fd565b611a04565b6101e7611c75565b610230670d2f13f7789f000081565b6101e761043e3660046141fd565b611c89565b6102047f000000000000000000000000000000000000000000000000000000000000000081565b6101e76104783660046142f5565b611cff565b610485611eae565b6001600160a01b038083166000908152600460205260409020548116908216036104f65760405162461bcd60e51b815260206004820152601c60248201527f6d75737420626520646966666572656e7420746f2063757272656e740000000060448201526064015b60405180910390fd5b6001600160a01b038116156105305761051a6001600160a01b038316826000611d48565b6105306001600160a01b03831682600019611d48565b6001600160a01b0382811660008181526004602090815260409182902080546001600160a01b031916948616948517905581519283528201929092527f8c529c22babad500cea1516422f2bf23f6e1e7fab884b816062d20a9a0f78fef91015b60405180910390a15050565b6000807f00000000000000000000000000000000000000000000000000000000000000006001600160a01b031663b050ecb86040518163ffffffff1660e01b8152600401602060405180830381865afa1580156105fd573d6000803e3d6000fd5b505050506040513d601f19601f820116820180604052508101906106219190614394565b905060008060008061063285611f08565b93509350935093508060200151801561065c5750805160009081526006602052604090205460ff16155b1561066c57805161066c90612450565b6231b93b60e91b600090815260056020527faf8cf1498b7428d6c04c3d3fb7125fa218ad2faf2f4f7f7e26309929a16dfcd1546106a990866143c7565b620c6ecf60eb1b6000908152600560205260008051602061487a833981519152549192509085111561070157620c6ecf60eb1b600052600560205260008051602061487a833981519152546106fe90866143c7565b90505b62636e6360e81b6000908152600560205260008051602061489a8339815191525461072c90866143c7565b600754909150600090819060ff16156107975760085461074d908690612473565b91506107646008548561247390919063ffffffff16565b905061077082866143c7565b945061077c81856143c7565b9350610788828a6143c7565b985061079481896143c7565b97505b60007f00000000000000000000000000000000000000000000000000000000000000006001600160a01b03166348439e7e6040518163ffffffff1660e01b8152600401602060405180830381865afa1580156107f7573d6000803e3d6000fd5b505050506040513d601f19601f8201168201806040525081019061081b9190614394565b600154604051635598b20960e01b81526001600160a01b039182166004820152911690635598b20990602401602060405180830381865afa158015610864573d6000803e3d6000fd5b505050506040513d601f19601f8201168201806040525081019061088891906143da565b905080156108c6576108a2620c6ecf60eb1b8a878461249e565b6108b46231b93b60e91b8b888461249e565b6108c662636e6360e81b89868461249e565b60075460ff166108e25760009b50505050505050505050505090565b6001546040516370a0823160e01b81526001600160a01b03909116600482015260009073d533a949740bb3306d119cc777fa900ba034cd52906370a0823190602401602060405180830381865afa158015610941573d6000803e3d6000fd5b505050506040513d601f19601f8201168201806040525081019061096591906143da565b8411806109f057506001546040516370a0823160e01b81526001600160a01b039091166004820152734e3fbd56cd56c3e72c1403e103b45db9da5b9d2b906370a0823190602401602060405180830381865afa1580156109c9573d6000803e3d6000fd5b505050506040513d601f19601f820116820180604052508101906109ed91906143da565b83115b15610a01576109fd6124e2565b5060015b600154610a2e9073d533a949740bb3306d119cc777fa900ba034cd52906001600160a01b031630876127ce565b600154610a5b90734e3fbd56cd56c3e72c1403e103b45db9da5b9d2b906001600160a01b031630866127ce565b60007f00000000000000000000000000000000000000000000000000000000000000006001600160a01b031663469048406040518163ffffffff1660e01b8152600401602060405180830381865afa158015610abb573d6000803e3d6000fd5b505050506040513d601f19601f82011682018060405250810190610adf9190614394565b9050610b0073d533a949740bb3306d119cc777fa900ba034cd52828761280c565b610b1f734e3fbd56cd56c3e72c1403e103b45db9da5b9d2b828661280c565b6040516309e690eb60e31b815260048101869052602481018590526001600160a01b03821690634f34875890604401600060405180830381600087803b158015610b6857600080fd5b505af1158015610b7c573d6000803e3d6000fd5b50505050819d505050505050505050505050505090565b6000610b9d611eae565b6001600160a01b038216610be55760405162461bcd60e51b815260206004820152600f60248201526e696e76616c6964206164647265737360881b60448201526064016104ed565b610bf060028361289b565b15610c2d5760405162461bcd60e51b815260206004820152600d60248201526c185b1c9958591e481859191959609a1b60448201526064016104ed565b6001600160a01b038216734e3fbd56cd56c3e72c1403e103b45db9da5b9d2b14801590610c7757506001600160a01b03821673d533a949740bb3306d119cc777fa900ba034cd5214155b8015610cb557507f00000000000000000000000000000000000000000000000000000000000000006001600160a01b0316826001600160a01b031614155b8015610cde57506001600160a01b038216739ae380f0272e2162340a5bb646c354271c0f5cfc14155b610d1e5760405162461bcd60e51b81526020600482015260116024820152701d1bdad95b881b9bdd08185b1b1bddd959607a1b60448201526064016104ed565b6001546040805163c5c63e6560e01b815290516000926001600160a01b03169163c5c63e6591600480830192869291908290030181865afa158015610d67573d6000803e3d6000fd5b505050506040513d6000823e601f3d908101601f19168201604052610d8f91908101906143f3565b905060005b8151811015610f525760007f00000000000000000000000000000000000000000000000000000000000000006001600160a01b03166355eb6b35848481518110610de057610de0614482565b60200260200101516040518263ffffffff1660e01b8152600401610e1391906001600160a01b0391909116815260200190565b602060405180830381865afa158015610e30573d6000803e3d6000fd5b505050506040513d601f19601f82011682018060405250810190610e549190614394565b6001600160a01b03166376a562a4848481518110610e7457610e74614482565b60200260200101516040518263ffffffff1660e01b8152600401610ea791906001600160a01b0391909116815260200190565b602060405180830381865afa158015610ec4573d6000803e3d6000fd5b505050506040513d601f19601f82011682018060405250810190610ee89190614394565b9050806001600160a01b0316856001600160a01b031603610f3f5760405162461bcd60e51b81526020600482015260116024820152701d1bdad95b881b9bdd08185b1b1bddd959607a1b60448201526064016104ed565b5080610f4a81614498565b915050610d94565b5060018054604051630e85cb7760e21b81526001600160a01b0386811660048301526024820193909352911690633a172ddc90604401600060405180830381600087803b158015610fa257600080fd5b505af1158015610fb6573d6000803e3d6000fd5b50610fe4925050506001600160a01b03841673d9e1ce17f2641f24ae83637ab66a2cca9c378b9f6000611d48565b61100e6001600160a01b03841673d9e1ce17f2641f24ae83637ab66a2cca9c378b9f600019611d48565b6040516001600160a01b03841681527fd432e6f46dbf91c120fdfa95a1f4bf5c43f04d957fbc3a32e693be0d29bf17b09060200160405180910390a16110556002846128bd565b9150505b919050565b606061106a60026128d2565b905090565b611077611eae565b61108160006128df565b565b61108b611eae565b61109660028261289b565b6110ce5760405162461bcd60e51b81526020600482015260096024820152681b9bdd08185919195960ba1b60448201526064016104ed565b6110d960028261292f565b50600154604051630e85cb7760e21b81526001600160a01b0383811660048301526000602483015290911690633a172ddc90604401600060405180830381600087803b15801561112857600080fd5b505af115801561113c573d6000803e3d6000fd5b50506040516001600160a01b03841681527fe0f3b1406ab4dd940a92a081b1bcef51da212a57978cc8f6dde5c89ab41a5aa7925060200190505b60405180910390a150565b611189611eae565b670429d069189e000081106111f35760405162461bcd60e51b815260206004820152602a60248201527f63616e6e6f7420736574206665652070657263656e7461676520746f206d6f7260448201526965207468616e2033302560b01b60648201526084016104ed565b60085481036112445760405162461bcd60e51b815260206004820152601c60248201527f6d75737420626520646966666572656e7420746f2063757272656e740000000060448201526064016104ed565b60006001600160a01b03167f00000000000000000000000000000000000000000000000000000000000000006001600160a01b031663469048406040518163ffffffff1660e01b8152600401602060405180830381865afa1580156112ad573d6000803e3d6000fd5b505050506040513d601f19601f820116820180604052508101906112d19190614394565b6001600160a01b03160361131f5760405162461bcd60e51b8152602060048201526015602482015274199959481c9958da5c1a595b9d081b9bdd081cd95d605a1b60448201526064016104ed565b60088190556007805460ff19168215151790556040517f3346af6da1932164d501f2ec28f8c5d686db5828a36b77f2da4332d89184fe7b906111769083815260200190565b61136d81612944565b50565b611378611eae565b600054600160a81b900460ff16158080156113a057506000546001600160a01b90910460ff16105b806113c15750303b1580156113c15750600054600160a01b900460ff166001145b6114245760405162461bcd60e51b815260206004820152602e60248201527f496e697469616c697a61626c653a20636f6e747261637420697320616c72656160448201526d191e481a5b9a5d1a585b1a5e995960921b60648201526084016104ed565b6000805460ff60a01b1916600160a01b1790558015611451576000805460ff60a81b1916600160a81b1790555b600180546001600160a01b0319166001600160a01b03841617905580156114b0576000805460ff60a81b19169055604051600181527f7f26b83ff96e1f2b6a682f133852f6798a09c465da95921460cefb384740249890602001610590565b5050565b60008060006114c233612944565b3360009081527faf8cf1498b7428d6c04c3d3fb7125fa218ad2faf2f4f7f7e26309929a16dfcd360209081526040808320547f1da685d363c3798567409758b6f6466f17974a073e3ce7ce447c063c18ab49628352818420547f8cda27973994b4c9cef5fc6716a5ee96cc4abe3353228d7fabf6c8bb342178b0909352928190205460015491516370a0823160e01b81526001600160a01b0390921660048301529073d533a949740bb3306d119cc777fa900ba034cd52906370a0823190602401602060405180830381865afa1580156115a0573d6000803e3d6000fd5b505050506040513d601f19601f820116820180604052508101906115c491906143da565b83118061164f57506001546040516370a0823160e01b81526001600160a01b039091166004820152734e3fbd56cd56c3e72c1403e103b45db9da5b9d2b906370a0823190602401602060405180830381865afa158015611628573d6000803e3d6000fd5b505050506040513d601f19601f8201168201806040525081019061164c91906143da565b82115b806116d857506001546040516370a0823160e01b81526001600160a01b039091166004820152739ae380f0272e2162340a5bb646c354271c0f5cfc906370a0823190602401602060405180830381865afa1580156116b1573d6000803e3d6000fd5b505050506040513d601f19601f820116820180604052508101906116d591906143da565b81115b15611731576116e56124e2565b60006116f16002612a7b565b11156117315761170033612944565b503360009081527f8cda27973994b4c9cef5fc6716a5ee96cc4abe3353228d7fabf6c8bb342178b060205260409020545b3360008181527f8cda27973994b4c9cef5fc6716a5ee96cc4abe3353228d7fabf6c8bb342178b0602090815260408083208390557f1da685d363c3798567409758b6f6466f17974a073e3ce7ce447c063c18ab496282528083208390557faf8cf1498b7428d6c04c3d3fb7125fa218ad2faf2f4f7f7e26309929a16dfcd39091528120556001546117e29173d533a949740bb3306d119cc777fa900ba034cd52916001600160a01b031690866127ce565b60015461180f90734e3fbd56cd56c3e72c1403e103b45db9da5b9d2b906001600160a01b031633856127ce565b6001546040516370a0823160e01b81526001600160a01b0390911660048201528190739ae380f0272e2162340a5bb646c354271c0f5cfc906370a0823190602401602060405180830381865afa15801561186d573d6000803e3d6000fd5b505050506040513d601f19601f8201168201806040525081019061189191906143da565b106118c3576001546118c390739ae380f0272e2162340a5bb646c354271c0f5cfc906001600160a01b031633846127ce565b60008060006119527f00000000000000000000000000000000000000000000000000000000000000006001600160a01b031663b050ecb86040518163ffffffff1660e01b8152600401602060405180830381865afa158015611929573d6000803e3d6000fd5b505050506040513d601f19601f8201168201806040525081019061194d9190614394565b612a85565b600560209081527faf8cf1498b7428d6c04c3d3fb7125fa218ad2faf2f4f7f7e26309929a16dfcd184905560008051602061487a83398151915283905562636e6360e81b60005260008051602061489a833981519152829055604080518981529182018b90528101899052929550909350915033907f06f39318c760ad4d630f57ba8f8d3c21b8e1deb076e19476d1dece4e3d737e7a9060600160405180910390a25091979396509194509192505050565b6000806000807f00000000000000000000000000000000000000000000000000000000000000006001600160a01b03166348439e7e6040518163ffffffff1660e01b8152600401602060405180830381865afa158015611a68573d6000803e3d6000fd5b505050506040513d601f19601f82011682018060405250810190611a8c9190614394565b600154604051635598b20960e01b81526001600160a01b039182166004820152911690635598b20990602401602060405180830381865afa158015611ad5573d6000803e3d6000fd5b505050506040513d601f19601f82011682018060405250810190611af991906143da565b90506000806000611b08612aa1565b92509250925060007f00000000000000000000000000000000000000000000000000000000000000006001600160a01b03166348439e7e6040518163ffffffff1660e01b8152600401602060405180830381865afa158015611b6e573d6000803e3d6000fd5b505050506040513d601f19601f82011682018060405250810190611b929190614394565b600154604051637d2041e560e11b81526001600160a01b0391821660048201528b8216602482015291169063fa4083ca90604401602060405180830381865afa158015611be3573d6000803e3d6000fd5b505050506040513d601f19601f82011682018060405250810190611c0791906143da565b9050611c1e8962636e6360e81b8484896000612b40565b9750611c43896231b93b60e91b868489600760009054906101000a900460ff16612b40565b9650611c6889620c6ecf60eb1b858489600760009054906101000a900460ff16612b40565b9799969850505050505050565b611c7d61059c565b611081576110816124e2565b611c91611eae565b6001600160a01b038116611cf65760405162461bcd60e51b815260206004820152602660248201527f4f776e61626c653a206e6577206f776e657220697320746865207a65726f206160448201526564647265737360d01b60648201526084016104ed565b61136d816128df565b611d07611eae565b60005b81518110156114b057611d35828281518110611d2857611d28614482565b6020026020010151610b93565b5080611d4081614498565b915050611d0a565b801580611dc25750604051636eb1769f60e11b81523060048201526001600160a01b03838116602483015284169063dd62ed3e90604401602060405180830381865afa158015611d9c573d6000803e3d6000fd5b505050506040513d601f19601f82011682018060405250810190611dc091906143da565b155b611e2d5760405162461bcd60e51b815260206004820152603660248201527f5361666545524332303a20617070726f76652066726f6d206e6f6e2d7a65726f60448201527520746f206e6f6e2d7a65726f20616c6c6f77616e636560501b60648201526084016104ed565b6040516001600160a01b038316602482015260448101829052611e9090849063095ea7b360e01b906064015b60408051601f198184030181529190526020810180516001600160e01b03166001600160e01b031990931692909217909152612c15565b505050565b6060611ea48484600085612cea565b90505b9392505050565b6000546001600160a01b031633146110815760405162461bcd60e51b815260206004820181905260248201527f4f776e61626c653a2063616c6c6572206973206e6f7420746865206f776e657260448201526064016104ed565b6000806000611f2c6040518060400160405280600081526020016000151581525090565b6001546040805163c5c63e6560e01b815290516000926001600160a01b03169163c5c63e6591600480830192869291908290030181865afa158015611f75573d6000803e3d6000fd5b505050506040513d6000823e601f3d908101601f19168201604052611f9d91908101906143f3565b90506000805b8251811015612125577f00000000000000000000000000000000000000000000000000000000000000006001600160a01b03166355eb6b35848381518110611fed57611fed614482565b60200260200101516040518263ffffffff1660e01b815260040161202091906001600160a01b0391909116815260200190565b602060405180830381865afa15801561203d573d6000803e3d6000fd5b505050506040513d601f19601f820116820180604052508101906120619190614394565b60015484516001600160a01b039283169263a775e15e92169086908590811061208c5761208c614482565b60200260200101516040518363ffffffff1660e01b81526004016120c69291906001600160a01b0392831681529116602082015260400190565b602060405180830381865afa1580156120e3573d6000803e3d6000fd5b505050506040513d601f19601f8201168201806040525081019061210791906143da565b61211190836144b1565b91508061211d81614498565b915050611fa3565b506001546040516370a0823160e01b81526001600160a01b039091166004820152819073d533a949740bb3306d119cc777fa900ba034cd52906370a0823190602401602060405180830381865afa158015612184573d6000803e3d6000fd5b505050506040513d601f19601f820116820180604052508101906121a891906143da565b6121b291906144b1565b60405163705e1e5560e01b8152600481018390529096506000906001600160a01b0389169063705e1e5590602401606060405180830381865afa1580156121fd573d6000803e3d6000fd5b505050506040513d601f19601f8201168201806040525081019061222191906144d4565b6001546040516370a0823160e01b81526001600160a01b0390911660048201529095509091508190734e3fbd56cd56c3e72c1403e103b45db9da5b9d2b906370a0823190602401602060405180830381865afa158015612285573d6000803e3d6000fd5b505050506040513d601f19601f820116820180604052508101906122a991906143da565b6122b391906144b1565b6001546040516370a0823160e01b81526001600160a01b039091166004820152909650739ae380f0272e2162340a5bb646c354271c0f5cfc906370a0823190602401602060405180830381865afa158015612312573d6000803e3d6000fd5b505050506040513d601f19601f8201168201806040525081019061233691906143da565b600154909550600160a01b900460ff16612446577f00000000000000000000000000000000000000000000000000000000000000006001600160a01b03166348439e7e6040518163ffffffff1660e01b8152600401602060405180830381865afa1580156123a8573d6000803e3d6000fd5b505050506040513d601f19601f820116820180604052508101906123cc9190614394565b6001546040516334d21ea360e21b81526001600160a01b03918216600482015291169063d3487a8c90602401602060405180830381865afa158015612415573d6000803e3d6000fd5b505050506040513d601f19601f8201168201806040525081019061243991906143da565b61244390866144b1565b94505b5050509193509193565b6124586124e2565b6000908152600660205260409020805460ff19166001179055565b60006124816012600a61462e565b61248b838561463a565b6124959190614651565b90505b92915050565b6124a88282612dc7565b600085815260056020526040812080549091906124c69084906144b1565b9091555050506000928352506005602052604090912060010155565b6124ea612de0565b6001546040516370a0823160e01b81526001600160a01b039091166004820152600090739ae380f0272e2162340a5bb646c354271c0f5cfc906370a0823190602401602060405180830381865afa158015612549573d6000803e3d6000fd5b505050506040513d601f19601f8201168201806040525081019061256d91906143da565b9050612577613340565b6001546040516370a0823160e01b81526001600160a01b0390911660048201526000908290739ae380f0272e2162340a5bb646c354271c0f5cfc906370a0823190602401602060405180830381865afa1580156125d8573d6000803e3d6000fd5b505050506040513d601f19601f820116820180604052508101906125fc91906143da565b61260691906143c7565b905060007f00000000000000000000000000000000000000000000000000000000000000006001600160a01b03166348439e7e6040518163ffffffff1660e01b8152600401602060405180830381865afa158015612668573d6000803e3d6000fd5b505050506040513d601f19601f8201168201806040525081019061268c9190614394565b600154604051635598b20960e01b81526001600160a01b039182166004820152911690635598b20990602401602060405180830381865afa1580156126d5573d6000803e3d6000fd5b505050506040513d601f19601f820116820180604052508101906126f991906143da565b905060008111801561270b5750600082115b15611e905761271a8282612dc7565b62636e6360e81b600090815260056020527f8cda27973994b4c9cef5fc6716a5ee96cc4abe3353228d7fabf6c8bb342178ad805490919061275c9084906144b1565b909155505062636e6360e81b6000908152600560205260008051602061489a83398151915280548492906127919084906144b1565b90915550506040518281527ffc8ed0cd46874d9c3cf1425e1b3bbf9c523bc17c4a959c2c2f600e016f4eddef9060200160405180910390a1505050565b6040516001600160a01b03808516602483015283166044820152606481018290526128069085906323b872dd60e01b90608401611e59565b50505050565b604080516001600160a01b038416602482015260448082018490528251808303909101815260649091019091526020810180516001600160e01b031663095ea7b360e01b17905261285d8482613437565b612806576040516001600160a01b03841660248201526000604482015261289190859063095ea7b360e01b90606401611e59565b6128068482612c15565b6001600160a01b03811660009081526001830160205260408120541515612495565b6000612495836001600160a01b0384166134de565b60606000611ea78361352d565b600080546001600160a01b038381166001600160a01b0319831681178455604051919092169283917f8be0079c531659141344cd1fd0a4f28419497f9722a3daafe3b4186f6b6457e09190a35050565b6000612495836001600160a01b038416613589565b60007f00000000000000000000000000000000000000000000000000000000000000006001600160a01b03166348439e7e6040518163ffffffff1660e01b8152600401602060405180830381865afa1580156129a4573d6000803e3d6000fd5b505050506040513d601f19601f820116820180604052508101906129c89190614394565b600154604051637d2041e560e11b81526001600160a01b039182166004820152848216602482015291169063fa4083ca90604401602060405180830381865afa158015612a19573d6000803e3d6000fd5b505050506040513d601f19601f82011682018060405250810190612a3d91906143da565b9050612a4761059c565b50612a5962636e6360e81b838361367c565b612a6a6231b93b60e91b838361367c565b6114b0620c6ecf60eb1b838361367c565b6000612498825490565b6000806000612a9384611f08565b509196909550909350915050565b6000806000807f00000000000000000000000000000000000000000000000000000000000000006001600160a01b031663b050ecb86040518163ffffffff1660e01b8152600401602060405180830381865afa158015612b05573d6000803e3d6000fd5b505050506040513d601f19601f82011682018060405250810190612b299190614394565b9050612b3481613717565b93509350935050909192565b600085815260056020526040812080548415612bb3578315612b9c57612b8b85612b856008546012600a612b74919061462e565b612b7e91906143c7565b8a90612473565b90612dc7565b612b9590826144b1565b9050612bb3565b612ba68786612dc7565b612bb090826144b1565b90505b6001600160a01b0389166000908152600283016020526040902054612be390612bdc90836143c7565b8790612473565b6001600160a01b038a166000908152600384016020526040902054612c0891906144b1565b9998505050505050505050565b6000612c6a826040518060400160405280602081526020017f5361666545524332303a206c6f772d6c6576656c2063616c6c206661696c6564815250856001600160a01b0316611e959092919063ffffffff16565b9050805160001480612c8b575080806020019051810190612c8b9190614673565b611e905760405162461bcd60e51b815260206004820152602a60248201527f5361666545524332303a204552433230206f7065726174696f6e20646964206e6044820152691bdd081cdd58d8d9595960b21b60648201526084016104ed565b606082471015612d4b5760405162461bcd60e51b815260206004820152602660248201527f416464726573733a20696e73756666696369656e742062616c616e636520666f6044820152651c8818d85b1b60d21b60648201526084016104ed565b600080866001600160a01b03168587604051612d6791906146b2565b60006040518083038185875af1925050503d8060008114612da4576040519150601f19603f3d011682016040523d82523d6000602084013e612da9565b606091505b5091509150612dba878383876137cf565b925050505b949350505050565b600081612dd66012600a61462e565b61248b908561463a565b6001805460ff60a01b1916600160a01b17905560408051632421cf3f60e11b815290516001600160a01b037f000000000000000000000000000000000000000000000000000000000000000016916348439e7e9160048083019260209291908290030181865afa158015612e58573d6000803e3d6000fd5b505050506040513d601f19601f82011682018060405250810190612e7c9190614394565b60015460405163a0190c1760e01b81526001600160a01b03918216600482015291169063a0190c1790602401600060405180830381600087803b158015612ec257600080fd5b505af1158015612ed6573d6000803e3d6000fd5b50506001805460ff60a01b1981169091556040516370a0823160e01b81526001600160a01b03909116600482015260009250734e3fbd56cd56c3e72c1403e103b45db9da5b9d2b91506370a0823190602401602060405180830381865afa158015612f45573d6000803e3d6000fd5b505050506040513d601f19601f82011682018060405250810190612f6991906143da565b6001546040516370a0823160e01b81526001600160a01b03909116600482015290915060009073d533a949740bb3306d119cc777fa900ba034cd52906370a0823190602401602060405180830381865afa158015612fcb573d6000803e3d6000fd5b505050506040513d601f19601f82011682018060405250810190612fef91906143da565b90506000600160009054906101000a90046001600160a01b03166001600160a01b031663c5c63e656040518163ffffffff1660e01b8152600401600060405180830381865afa158015613046573d6000803e3d6000fd5b505050506040513d6000823e601f3d908101601f1916820160405261306e91908101906143f3565b905060005b81518110156131db577f00000000000000000000000000000000000000000000000000000000000000006001600160a01b03166355eb6b358383815181106130bd576130bd614482565b60200260200101516040518263ffffffff1660e01b81526004016130f091906001600160a01b0391909116815260200190565b602060405180830381865afa15801561310d573d6000803e3d6000fd5b505050506040513d601f19601f820116820180604052508101906131319190614394565b60015483516001600160a01b039283169263970de38192169085908590811061315c5761315c614482565b60200260200101516040518363ffffffff1660e01b81526004016131969291906001600160a01b0392831681529116602082015260400190565b600060405180830381600087803b1580156131b057600080fd5b505af11580156131c4573d6000803e3d6000fd5b5050505080806131d390614498565b915050613073565b506001546040516370a0823160e01b81526001600160a01b0390911660048201526000908490734e3fbd56cd56c3e72c1403e103b45db9da5b9d2b906370a0823190602401602060405180830381865afa15801561323d573d6000803e3d6000fd5b505050506040513d601f19601f8201168201806040525081019061326191906143da565b61326b91906143c7565b6001546040516370a0823160e01b81526001600160a01b039091166004820152909150600090849073d533a949740bb3306d119cc777fa900ba034cd52906370a0823190602401602060405180830381865afa1580156132cf573d6000803e3d6000fd5b505050506040513d601f19601f820116820180604052508101906132f391906143da565b6132fd91906143c7565b60408051828152602081018590529192507f141d6e75554381bcc1326596e8010e6c432bb0988e14ca0310d85837a211d292910160405180910390a15050505050565b600061334c6002612a7b565b9050806000036133595750565b60005b8181101561342e57600154613409906001600160a01b031630613380600285613848565b6001546040516370a0823160e01b81526001600160a01b0391821660048201529116906370a0823190602401602060405180830381865afa1580156133c9573d6000803e3d6000fd5b505050506040513d601f19601f820116820180604052508101906133ed91906143da565b6133f8600286613848565b6001600160a01b03169291906127ce565b61341c613417600283613848565b613854565b8061342681614498565b91505061335c565b5061136d613c1a565b6000806000846001600160a01b03168460405161345491906146b2565b6000604051808303816000865af19150503d8060008114613491576040519150601f19603f3d011682016040523d82523d6000602084013e613496565b606091505b50915091508180156134c05750805115806134c05750808060200190518101906134c09190614673565b80156134d557506001600160a01b0385163b15155b95945050505050565b600081815260018301602052604081205461352557508154600181810184556000848152602080822090930184905584548482528286019093526040902091909155612498565b506000612498565b60608160000180548060200260200160405190810160405280929190818152602001828054801561357d57602002820191906000526020600020905b815481526020019060010190808311613569575b50505050509050919050565b600081815260018301602052604081205480156136725760006135ad6001836143c7565b85549091506000906135c1906001906143c7565b90508181146136265760008660000182815481106135e1576135e1614482565b906000526020600020015490508087600001848154811061360457613604614482565b6000918252602080832090910192909255918252600188019052604090208390555b8554869080613637576136376146ce565b600190038181906000526020600020016000905590558560010160008681526020019081526020016000206000905560019350505050612498565b6000915050612498565b60008381526005602090815260408083206001600160a01b03861684526002810190925282205481549192916136bc916136b5916143c7565b8490612473565b6001600160a01b03851660009081526003840160205260408120805492935083929091906136eb9084906144b1565b909155505081546001600160a01b03909416600090815260029092016020525060409020919091555050565b60008060008060008061372987612a85565b6231b93b60e91b60005260056020527faf8cf1498b7428d6c04c3d3fb7125fa218ad2faf2f4f7f7e26309929a16dfcd154929550909350915061376c90846143c7565b620c6ecf60eb1b600052600560205260008051602061487a8339815191525490965061379890836143c7565b62636e6360e81b600052600560205260008051602061489a833981519152549095506137c490826143c7565b959794965050505050565b6060831561383e578251600003613837576001600160a01b0385163b6138375760405162461bcd60e51b815260206004820152601d60248201527f416464726573733a2063616c6c20746f206e6f6e2d636f6e747261637400000060448201526064016104ed565b5081612dbf565b612dbf8383613d7e565b60006124958383613da8565b6040516370a0823160e01b81523060048201526000906001600160a01b038316906370a0823190602401602060405180830381865afa15801561389b573d6000803e3d6000fd5b505050506040513d601f19601f820116820180604052508101906138bf91906143da565b9050806000036138cd575050565b6001600160a01b03808316600090815260046020526040902054168015613ada576000807f00000000000000000000000000000000000000000000000000000000000000006001600160a01b0316639f82b2176040518163ffffffff1660e01b8152600401602060405180830381865afa15801561394f573d6000803e3d6000fd5b505050506040513d601f19601f820116820180604052508101906139739190614394565b604051632feaac8560e11b81526001600160a01b038581166004830152878116602483015273c02aaa39b223fe8d0a0e5c4f27ead9083c756cc260448301529190911690635fd5590a90606401606060405180830381865afa1580156139dd573d6000803e3d6000fd5b505050506040513d601f19601f82011682018060405250810190613a0191906146f6565b5090925090506fffffffffffffffffffffffffffffffff8083169082166001600160a01b03851663ce7d6503838389613a4f8c73c02aaa39b223fe8d0a0e5c4f27ead9083c756cc283613dd2565b6040516001600160e01b031960e087901b1681526004810194909452602484019290925260448301526064820152600060848201523060a482015260c4016020604051808303816000875af1158015613aac573d6000803e3d6000fd5b505050506040513d601f19601f82011682018060405250810190613ad091906143da565b5050505050505050565b6040805160028082526060820183526000926020830190803683370190505090508381600081518110613b0f57613b0f614482565b60200260200101906001600160a01b031690816001600160a01b03168152505073c02aaa39b223fe8d0a0e5c4f27ead9083c756cc281600181518110613b5757613b57614482565b6001600160a01b039092166020928302919091019091015273d9e1ce17f2641f24ae83637ab66a2cca9c378b9f6338ed173984613ba98773c02aaa39b223fe8d0a0e5c4f27ead9083c756cc283613dd2565b8430426040518663ffffffff1660e01b8152600401613bcc959493929190614739565b6000604051808303816000875af1158015613beb573d6000803e3d6000fd5b505050506040513d6000823e601f3d908101601f19168201604052613c139190810190614775565b5050505050565b6040516370a0823160e01b815230600482015260009073c02aaa39b223fe8d0a0e5c4f27ead9083c756cc2906370a0823190602401602060405180830381865afa158015613c6c573d6000803e3d6000fd5b505050506040513d601f19601f82011682018060405250810190613c9091906143da565b905080600003613c9d5750565b73838af967537350d2c44abb8c010e49e32673ab9463ce7d65036000600184613cef73c02aaa39b223fe8d0a0e5c4f27ead9083c756cc2739ae380f0272e2162340a5bb646c354271c0f5cfc83613dd2565b60015460405160e087901b6001600160e01b03191681526004810195909552602485019390935260448401919091526064830152600060848301526001600160a01b031660a482015260c4016020604051808303816000875af1158015613d5a573d6000803e3d6000fd5b505050506040513d601f19601f820116820180604052508101906114b091906143da565b815115613d8e5781518083602001fd5b8060405162461bcd60e51b81526004016104ed91906147fb565b6000826000018281548110613dbf57613dbf614482565b9060005260206000200154905092915050565b6000807f00000000000000000000000000000000000000000000000000000000000000006001600160a01b0316632630c12f6040518163ffffffff1660e01b8152600401602060405180830381865afa158015613e33573d6000803e3d6000fd5b505050506040513d601f19601f82011682018060405250810190613e579190614394565b9050836001600160a01b0316856001600160a01b031603613e7b5782915050611ea7565b6040516375151b6360e01b81526001600160a01b0386811660048301528216906375151b6390602401602060405180830381865afa158015613ec1573d6000803e3d6000fd5b505050506040513d601f19601f82011682018060405250810190613ee59190614673565b1580613f5857506040516375151b6360e01b81526001600160a01b0385811660048301528216906375151b6390602401602060405180830381865afa158015613f32573d6000803e3d6000fd5b505050506040513d601f19601f82011682018060405250810190613f569190614673565b155b15613f67576000915050611ea7565b6134d5670d2f13f7789f0000614126876001600160a01b031663313ce5676040518163ffffffff1660e01b8152600401602060405180830381865afa158015613fb4573d6000803e3d6000fd5b505050506040513d601f19601f82011682018060405250810190613fd8919061482e565b876001600160a01b031663313ce5676040518163ffffffff1660e01b8152600401602060405180830381865afa158015614016573d6000803e3d6000fd5b505050506040513d601f19601f8201168201806040525081019061403a919061482e565b604051638b2f0f4f60e01b81526001600160a01b038a8116600483015261411f9190881690638b2f0f4f90602401602060405180830381865afa158015614085573d6000803e3d6000fd5b505050506040513d601f19601f820116820180604052508101906140a991906143da565b604051638b2f0f4f60e01b81526001600160a01b038d81166004830152612b8591908a1690638b2f0f4f90602401602060405180830381865afa1580156140f4573d6000803e3d6000fd5b505050506040513d601f19601f8201168201806040525081019061411891906143da565b8b90612473565b919061412c565b90612473565b60008160ff168360ff1603614142575082611ea7565b8160ff168360ff1611156141625761415b84848461416d565b9050611ea7565b611ea484848461418e565b60006141798284614851565b61418490600a61486a565b611ea49085614651565b600061419a8383614851565b6141a590600a61486a565b611ea4908561463a565b6001600160a01b038116811461136d57600080fd5b600080604083850312156141d757600080fd5b82356141e2816141af565b915060208301356141f2816141af565b809150509250929050565b60006020828403121561420f57600080fd5b8135611ea7816141af565b600081518084526020808501945080840160005b838110156142535781516001600160a01b03168752958201959082019060010161422e565b509495945050505050565b602081526000612495602083018461421a565b60006020828403121561428357600080fd5b5035919050565b634e487b7160e01b600052604160045260246000fd5b604051601f8201601f1916810167ffffffffffffffff811182821017156142c9576142c961428a565b604052919050565b600067ffffffffffffffff8211156142eb576142eb61428a565b5060051b60200190565b6000602080838503121561430857600080fd5b823567ffffffffffffffff81111561431f57600080fd5b8301601f8101851361433057600080fd5b803561434361433e826142d1565b6142a0565b81815260059190911b8201830190838101908783111561436257600080fd5b928401925b8284101561438957833561437a816141af565b82529284019290840190614367565b979650505050505050565b6000602082840312156143a657600080fd5b8151611ea7816141af565b634e487b7160e01b600052601160045260246000fd5b81810381811115612498576124986143b1565b6000602082840312156143ec57600080fd5b5051919050565b6000602080838503121561440657600080fd5b825167ffffffffffffffff81111561441d57600080fd5b8301601f8101851361442e57600080fd5b805161443c61433e826142d1565b81815260059190911b8201830190838101908783111561445b57600080fd5b928401925b82841015614389578351614473816141af565b82529284019290840190614460565b634e487b7160e01b600052603260045260246000fd5b6000600182016144aa576144aa6143b1565b5060010190565b80820180821115612498576124986143b1565b8051801515811461105957600080fd5b60008082840360608112156144e857600080fd5b835192506040601f19820112156144fe57600080fd5b506040516040810181811067ffffffffffffffff821117156145225761452261428a565b80604052506020840151815261453a604085016144c4565b6020820152809150509250929050565b600181815b8085111561458557816000190482111561456b5761456b6143b1565b8085161561457857918102915b93841c939080029061454f565b509250929050565b60008261459c57506001612498565b816145a957506000612498565b81600181146145bf57600281146145c9576145e5565b6001915050612498565b60ff8411156145da576145da6143b1565b50506001821b612498565b5060208310610133831016604e8410600b8410161715614608575081810a612498565b614612838361454a565b8060001904821115614626576146266143b1565b029392505050565b6000612495838361458d565b8082028115828204841417612498576124986143b1565b60008261466e57634e487b7160e01b600052601260045260246000fd5b500490565b60006020828403121561468557600080fd5b612495826144c4565b60005b838110156146a9578181015183820152602001614691565b50506000910152565b600082516146c481846020870161468e565b9190910192915050565b634e487b7160e01b600052603160045260246000fd5b8051600f81900b811461105957600080fd5b60008060006060848603121561470b57600080fd5b614714846146e4565b9250614722602085016146e4565b9150614730604085016144c4565b90509250925092565b85815284602082015260a06040820152600061475860a083018661421a565b6001600160a01b0394909416606083015250608001529392505050565b6000602080838503121561478857600080fd5b825167ffffffffffffffff81111561479f57600080fd5b8301601f810185136147b057600080fd5b80516147be61433e826142d1565b81815260059190911b820183019083810190878311156147dd57600080fd5b928401925b82841015614389578351825292840192908401906147e2565b602081526000825180602084015261481a81604085016020870161468e565b601f01601f19169190910160400192915050565b60006020828403121561484057600080fd5b815160ff81168114611ea757600080fd5b60ff8281168282160390811115612498576124986143b1565b600061249560ff84168361458d56fe1da685d363c3798567409758b6f6466f17974a073e3ce7ce447c063c18ab49608cda27973994b4c9cef5fc6716a5ee96cc4abe3353228d7fabf6c8bb342178aea26469706673582212205b1330920fc901d8e822a3c84c46371bb7d175b8d920c21e2ff53841f0a1c83764736f6c63430008110033","bytecodeSha1":"8e13cb64c919fd90fdbad7136d14004de998403f","compiler":{"evm_version":"london","optimizer":{"enabled":true,"runs":200},"version":"0.8.17+commit.8df45f5f"},"contractName":"RewardManager","language":"Solidity","natspec":{"kind":"dev","methods":{"claimEarnings()":{"details":"Conic pool LP tokens need to be staked in the `LpTokenStaker` in order to receive a share of the CRV, CVX and CNC earnings. after selling all extra reward tokens.","notice":"Claims all CRV, CVX and CNC earned by a user. All extra reward tokens earned will be sold for CNC."},"claimPoolEarningsAndSellRewardTokens()":{"notice":"Claims all claimable CVX and CRV from Convex for all staked Curve LP tokens. Then Swaps all additional rewards tokens for CNC."},"owner()":{"details":"Returns the address of the current owner."},"poolCheckpoint()":{"notice":"Updates the internal fee accounting state. Returns `true` if rewards were claimed"},"renounceOwnership()":{"details":"Leaves the contract without owner. It will not be possible to call `onlyOwner` functions. Can only be called by the current owner. NOTE: Renouncing ownership will leave the contract without an owner, thereby disabling any functionality that is only available to the owner."},"transferOwnership(address)":{"details":"Transfers ownership of the contract to a new account (`newOwner`). Can only be called by the current owner."}},"version":1},"opcodes":"PUSH1 0x80 PUSH1 0x40 MSTORE CALLVALUE DUP1 ISZERO PUSH2 0x10 JUMPI PUSH1 0x0 DUP1 REVERT JUMPDEST POP PUSH1 0x4 CALLDATASIZE LT PUSH2 0x1CF JUMPI PUSH1 0x0 CALLDATALOAD PUSH1 0xE0 SHR DUP1 PUSH4 0xA001ECDD GT PUSH2 0x104 JUMPI DUP1 PUSH4 0xD9CEAB13 GT PUSH2 0xA2 JUMPI DUP1 PUSH4 0xE8465009 GT PUSH2 0x71 JUMPI DUP1 PUSH4 0xE8465009 EQ PUSH2 0x421 JUMPI DUP1 PUSH4 0xF2FDE38B EQ PUSH2 0x430 JUMPI DUP1 PUSH4 0xF77C4791 EQ PUSH2 0x443 JUMPI DUP1 PUSH4 0xFE09D54D EQ PUSH2 0x46A JUMPI PUSH1 0x0 DUP1 REVERT JUMPDEST DUP1 PUSH4 0xD9CEAB13 EQ PUSH2 0x3BA JUMPI DUP1 PUSH4 0xD9E65CED EQ PUSH2 0x3DD JUMPI DUP1 PUSH4 0xDC01F60D EQ PUSH2 0x406 JUMPI DUP1 PUSH4 0xE7706183 EQ PUSH2 0x419 JUMPI PUSH1 0x0 DUP1 REVERT JUMPDEST DUP1 PUSH4 0xAD5C4648 GT PUSH2 0xDE JUMPI DUP1 PUSH4 0xAD5C4648 EQ PUSH2 0x366 JUMPI DUP1 PUSH4 0xAE06C1B7 EQ PUSH2 0x381 JUMPI DUP1 PUSH4 0xBF928F8B EQ PUSH2 0x394 JUMPI DUP1 PUSH4 0xC4D66DE8 EQ PUSH2 0x3A7 JUMPI PUSH1 0x0 DUP1 REVERT JUMPDEST DUP1 PUSH4 0xA001ECDD EQ PUSH2 0x33D JUMPI DUP1 PUSH4 0xA64E4F8A EQ PUSH2 0x346 JUMPI DUP1 PUSH4 0xA80FF90A EQ PUSH2 0x353 JUMPI PUSH1 0x0 DUP1 REVERT JUMPDEST DUP1 PUSH4 0x6F307DC3 GT PUSH2 0x171 JUMPI DUP1 PUSH4 0x7D59CE01 GT PUSH2 0x14B JUMPI DUP1 PUSH4 0x7D59CE01 EQ PUSH2 0x2E3 JUMPI DUP1 PUSH4 0x8DA5CB5B EQ PUSH2 0x2F6 JUMPI DUP1 PUSH4 0x945C9142 EQ PUSH2 0x307 JUMPI DUP1 PUSH4 0x9C708AAB EQ PUSH2 0x322 JUMPI PUSH1 0x0 DUP1 REVERT JUMPDEST DUP1 PUSH4 0x6F307DC3 EQ PUSH2 0x299 JUMPI DUP1 PUSH4 0x715018A6 EQ PUSH2 0x2C0 JUMPI DUP1 PUSH4 0x759CB53B EQ PUSH2 0x2C8 JUMPI PUSH1 0x0 DUP1 REVERT JUMPDEST DUP1 PUSH4 0x5790A0C8 GT PUSH2 0x1AD JUMPI DUP1 PUSH4 0x5790A0C8 EQ PUSH2 0x23E JUMPI DUP1 PUSH4 0x5E43C47B EQ PUSH2 0x256 JUMPI DUP1 PUSH4 0x632473DA EQ PUSH2 0x269 JUMPI DUP1 PUSH4 0x6DC47E1E EQ PUSH2 0x284 JUMPI PUSH1 0x0 DUP1 REVERT JUMPDEST DUP1 PUSH4 0x3950FB5 EQ PUSH2 0x1D4 JUMPI DUP1 PUSH4 0x49556709 EQ PUSH2 0x1E9 JUMPI DUP1 PUSH4 0x558E44D3 EQ PUSH2 0x221 JUMPI JUMPDEST PUSH1 0x0 DUP1 REVERT JUMPDEST PUSH2 0x1E7 PUSH2 0x1E2 CALLDATASIZE PUSH1 0x4 PUSH2 0x41C4 JUMP JUMPDEST PUSH2 0x47D JUMP JUMPDEST STOP JUMPDEST PUSH2 0x204 PUSH20 0x838AF967537350D2C44ABB8C010E49E32673AB94 DUP2 JUMP JUMPDEST PUSH1 0x40 MLOAD PUSH1 0x1 PUSH1 0x1 PUSH1 0xA0 SHL SUB SWAP1 SWAP2 AND DUP2 MSTORE PUSH1 0x20 ADD JUMPDEST PUSH1 0x40 MLOAD DUP1 SWAP2 SUB SWAP1 RETURN JUMPDEST PUSH2 0x230 PUSH8 0x429D069189E0000 DUP2 JUMP JUMPDEST PUSH1 0x40 MLOAD SWAP1 DUP2 MSTORE PUSH1 0x20 ADD PUSH2 0x218 JUMP JUMPDEST PUSH2 0x246 PUSH2 0x59C JUMP JUMPDEST PUSH1 0x40 MLOAD SWAP1 ISZERO ISZERO DUP2 MSTORE PUSH1 0x20 ADD PUSH2 0x218 JUMP JUMPDEST PUSH2 0x246 PUSH2 0x264 CALLDATASIZE PUSH1 0x4 PUSH2 0x41FD JUMP JUMPDEST PUSH2 0xB93 JUMP JUMPDEST PUSH2 0x204 PUSH20 0x9AE380F0272E2162340A5BB646C354271C0F5CFC DUP2 JUMP JUMPDEST PUSH2 0x28C PUSH2 0x105E JUMP JUMPDEST PUSH1 0x40 MLOAD PUSH2 0x218 SWAP2 SWAP1 PUSH2 0x425E JUMP JUMPDEST PUSH2 0x204 PUSH32 0x0 DUP2 JUMP JUMPDEST PUSH2 0x1E7 PUSH2 0x106F JUMP JUMPDEST PUSH2 0x204 PUSH20 0x4E3FBD56CD56C3E72C1403E103B45DB9DA5B9D2B DUP2 JUMP JUMPDEST PUSH1 0x1 SLOAD PUSH2 0x204 SWAP1 PUSH1 0x1 PUSH1 0x1 PUSH1 0xA0 SHL SUB AND DUP2 JUMP JUMPDEST PUSH1 0x0 SLOAD PUSH1 0x1 PUSH1 0x1 PUSH1 0xA0 SHL SUB AND PUSH2 0x204 JUMP JUMPDEST PUSH2 0x204 PUSH20 0xD533A949740BB3306D119CC777FA900BA034CD52 DUP2 JUMP JUMPDEST PUSH2 0x204 PUSH20 0xD9E1CE17F2641F24AE83637AB66A2CCA9C378B9F DUP2 JUMP JUMPDEST PUSH2 0x230 PUSH1 0x8 SLOAD DUP2 JUMP JUMPDEST PUSH1 0x7 SLOAD PUSH2 0x246 SWAP1 PUSH1 0xFF AND DUP2 JUMP JUMPDEST PUSH2 0x1E7 PUSH2 0x361 CALLDATASIZE PUSH1 0x4 PUSH2 0x41FD JUMP JUMPDEST PUSH2 0x1083 JUMP JUMPDEST PUSH2 0x204 PUSH20 0xC02AAA39B223FE8D0A0E5C4F27EAD9083C756CC2 DUP2 JUMP JUMPDEST PUSH2 0x1E7 PUSH2 0x38F CALLDATASIZE PUSH1 0x4 PUSH2 0x4271 JUMP JUMPDEST PUSH2 0x1181 JUMP JUMPDEST PUSH2 0x1E7 PUSH2 0x3A2 CALLDATASIZE PUSH1 0x4 PUSH2 0x41FD JUMP JUMPDEST PUSH2 0x1364 JUMP JUMPDEST PUSH2 0x1E7 PUSH2 0x3B5 CALLDATASIZE PUSH1 0x4 PUSH2 0x41FD JUMP JUMPDEST PUSH2 0x1370 JUMP JUMPDEST PUSH2 0x3C2 PUSH2 0x14B4 JUMP JUMPDEST PUSH1 0x40 DUP1 MLOAD SWAP4 DUP5 MSTORE PUSH1 0x20 DUP5 ADD SWAP3 SWAP1 SWAP3 MSTORE SWAP1 DUP3 ADD MSTORE PUSH1 0x60 ADD PUSH2 0x218 JUMP JUMPDEST PUSH2 0x204 PUSH2 0x3EB CALLDATASIZE PUSH1 0x4 PUSH2 0x41FD JUMP JUMPDEST PUSH1 0x4 PUSH1 0x20 MSTORE PUSH1 0x0 SWAP1 DUP2 MSTORE PUSH1 0x40 SWAP1 KECCAK256 SLOAD PUSH1 0x1 PUSH1 0x1 PUSH1 0xA0 SHL SUB AND DUP2 JUMP JUMPDEST PUSH2 0x3C2 PUSH2 0x414 CALLDATASIZE PUSH1 0x4 PUSH2 0x41FD JUMP JUMPDEST PUSH2 0x1A04 JUMP JUMPDEST PUSH2 0x1E7 PUSH2 0x1C75 JUMP JUMPDEST PUSH2 0x230 PUSH8 0xD2F13F7789F0000 DUP2 JUMP JUMPDEST PUSH2 0x1E7 PUSH2 0x43E CALLDATASIZE PUSH1 0x4 PUSH2 0x41FD JUMP JUMPDEST PUSH2 0x1C89 JUMP JUMPDEST PUSH2 0x204 PUSH32 0x0 DUP2 JUMP JUMPDEST PUSH2 0x1E7 PUSH2 0x478 CALLDATASIZE PUSH1 0x4 PUSH2 0x42F5 JUMP JUMPDEST PUSH2 0x1CFF JUMP JUMPDEST PUSH2 0x485 PUSH2 0x1EAE JUMP JUMPDEST PUSH1 0x1 PUSH1 0x1 PUSH1 0xA0 SHL SUB DUP1 DUP4 AND PUSH1 0x0 SWAP1 DUP2 MSTORE PUSH1 0x4 PUSH1 0x20 MSTORE PUSH1 0x40 SWAP1 KECCAK256 SLOAD DUP2 AND SWAP1 DUP3 AND SUB PUSH2 0x4F6 JUMPI PUSH1 0x40 MLOAD PUSH3 0x461BCD PUSH1 0xE5 SHL DUP2 MSTORE PUSH1 0x20 PUSH1 0x4 DUP3 ADD MSTORE PUSH1 0x1C PUSH1 0x24 DUP3 ADD MSTORE PUSH32 0x6D75737420626520646966666572656E7420746F2063757272656E7400000000 PUSH1 0x44 DUP3 ADD MSTORE PUSH1 0x64 ADD JUMPDEST PUSH1 0x40 MLOAD DUP1 SWAP2 SUB SWAP1 REVERT JUMPDEST PUSH1 0x1 PUSH1 0x1 PUSH1 0xA0 SHL SUB DUP2 AND ISZERO PUSH2 0x530 JUMPI PUSH2 0x51A PUSH1 0x1 PUSH1 0x1 PUSH1 0xA0 SHL SUB DUP4 AND DUP3 PUSH1 0x0 PUSH2 0x1D48 JUMP JUMPDEST PUSH2 0x530 PUSH1 0x1 PUSH1 0x1 PUSH1 0xA0 SHL SUB DUP4 AND DUP3 PUSH1 0x0 NOT PUSH2 0x1D48 JUMP JUMPDEST PUSH1 0x1 PUSH1 0x1 PUSH1 0xA0 SHL SUB DUP3 DUP2 AND PUSH1 0x0 DUP2 DUP2 MSTORE PUSH1 0x4 PUSH1 0x20 SWAP1 DUP2 MSTORE PUSH1 0x40 SWAP2 DUP3 SWAP1 KECCAK256 DUP1 SLOAD PUSH1 0x1 PUSH1 0x1 PUSH1 0xA0 SHL SUB NOT AND SWAP5 DUP7 AND SWAP5 DUP6 OR SWAP1 SSTORE DUP2 MLOAD SWAP3 DUP4 MSTORE DUP3 ADD SWAP3 SWAP1 SWAP3 MSTORE PUSH32 0x8C529C22BABAD500CEA1516422F2BF23F6E1E7FAB884B816062D20A9A0F78FEF SWAP2 ADD JUMPDEST PUSH1 0x40 MLOAD DUP1 SWAP2 SUB SWAP1 LOG1 POP POP JUMP JUMPDEST PUSH1 0x0 DUP1 PUSH32 0x0 PUSH1 0x1 PUSH1 0x1 PUSH1 0xA0 SHL SUB AND PUSH4 0xB050ECB8 PUSH1 0x40 MLOAD DUP2 PUSH4 0xFFFFFFFF AND PUSH1 0xE0 SHL DUP2 MSTORE PUSH1 0x4 ADD PUSH1 0x20 PUSH1 0x40 MLOAD DUP1 DUP4 SUB DUP2 DUP7 GAS STATICCALL ISZERO DUP1 ISZERO PUSH2 0x5FD JUMPI RETURNDATASIZE PUSH1 0x0 DUP1 RETURNDATACOPY RETURNDATASIZE PUSH1 0x0 REVERT JUMPDEST POP POP POP POP PUSH1 0x40 MLOAD RETURNDATASIZE PUSH1 0x1F NOT PUSH1 0x1F DUP3 ADD AND DUP3 ADD DUP1 PUSH1 0x40 MSTORE POP DUP2 ADD SWAP1 PUSH2 0x621 SWAP2 SWAP1 PUSH2 0x4394 JUMP JUMPDEST SWAP1 POP PUSH1 0x0 DUP1 PUSH1 0x0 DUP1 PUSH2 0x632 DUP6 PUSH2 0x1F08 JUMP JUMPDEST SWAP4 POP SWAP4 POP SWAP4 POP SWAP4 POP DUP1 PUSH1 0x20 ADD MLOAD DUP1 ISZERO PUSH2 0x65C JUMPI POP DUP1 MLOAD PUSH1 0x0 SWAP1 DUP2 MSTORE PUSH1 0x6 PUSH1 0x20 MSTORE PUSH1 0x40 SWAP1 KECCAK256 SLOAD PUSH1 0xFF AND ISZERO JUMPDEST ISZERO PUSH2 0x66C JUMPI DUP1 MLOAD PUSH2 0x66C SWAP1 PUSH2 0x2450 JUMP JUMPDEST PUSH3 0x31B93B PUSH1 0xE9 SHL PUSH1 0x0 SWAP1 DUP2 MSTORE PUSH1 0x5 PUSH1 0x20 MSTORE PUSH32 0xAF8CF1498B7428D6C04C3D3FB7125FA218AD2FAF2F4F7F7E26309929A16DFCD1 SLOAD PUSH2 0x6A9 SWAP1 DUP7 PUSH2 0x43C7 JUMP JUMPDEST PUSH3 0xC6ECF PUSH1 0xEB SHL PUSH1 0x0 SWAP1 DUP2 MSTORE PUSH1 0x5 PUSH1 0x20 MSTORE PUSH1 0x0 DUP1 MLOAD PUSH1 0x20 PUSH2 0x487A DUP4 CODECOPY DUP2 MLOAD SWAP2 MSTORE SLOAD SWAP2 SWAP3 POP SWAP1 DUP6 GT ISZERO PUSH2 0x701 JUMPI PUSH3 0xC6ECF PUSH1 0xEB SHL PUSH1 0x0 MSTORE PUSH1 0x5 PUSH1 0x20 MSTORE PUSH1 0x0 DUP1 MLOAD PUSH1 0x20 PUSH2 0x487A DUP4 CODECOPY DUP2 MLOAD SWAP2 MSTORE SLOAD PUSH2 0x6FE SWAP1 DUP7 PUSH2 0x43C7 JUMP JUMPDEST SWAP1 POP JUMPDEST PUSH3 0x636E63 PUSH1 0xE8 SHL PUSH1 0x0 SWAP1 DUP2 MSTORE PUSH1 0x5 PUSH1 0x20 MSTORE PUSH1 0x0 DUP1 MLOAD PUSH1 0x20 PUSH2 0x489A DUP4 CODECOPY DUP2 MLOAD SWAP2 MSTORE SLOAD PUSH2 0x72C SWAP1 DUP7 PUSH2 0x43C7 JUMP JUMPDEST PUSH1 0x7 SLOAD SWAP1 SWAP2 POP PUSH1 0x0 SWAP1 DUP2 SWAP1 PUSH1 0xFF AND ISZERO PUSH2 0x797 JUMPI PUSH1 0x8 SLOAD PUSH2 0x74D SWAP1 DUP7 SWAP1 PUSH2 0x2473 JUMP JUMPDEST SWAP2 POP PUSH2 0x764 PUSH1 0x8 SLOAD DUP6 PUSH2 0x2473 SWAP1 SWAP2 SWAP1 PUSH4 0xFFFFFFFF AND JUMP JUMPDEST SWAP1 POP PUSH2 0x770 DUP3 DUP7 PUSH2 0x43C7 JUMP JUMPDEST SWAP5 POP PUSH2 0x77C DUP2 DUP6 PUSH2 0x43C7 JUMP JUMPDEST SWAP4 POP PUSH2 0x788 DUP3 DUP11 PUSH2 0x43C7 JUMP JUMPDEST SWAP9 POP PUSH2 0x794 DUP2 DUP10 PUSH2 0x43C7 JUMP JUMPDEST SWAP8 POP JUMPDEST PUSH1 0x0 PUSH32 0x0 PUSH1 0x1 PUSH1 0x1 PUSH1 0xA0 SHL SUB AND PUSH4 0x48439E7E PUSH1 0x40 MLOAD DUP2 PUSH4 0xFFFFFFFF AND PUSH1 0xE0 SHL DUP2 MSTORE PUSH1 0x4 ADD PUSH1 0x20 PUSH1 0x40 MLOAD DUP1 DUP4 SUB DUP2 DUP7 GAS STATICCALL ISZERO DUP1 ISZERO PUSH2 0x7F7 JUMPI RETURNDATASIZE PUSH1 0x0 DUP1 RETURNDATACOPY RETURNDATASIZE PUSH1 0x0 REVERT JUMPDEST POP POP POP POP PUSH1 0x40 MLOAD RETURNDATASIZE PUSH1 0x1F NOT PUSH1 0x1F DUP3 ADD AND DUP3 ADD DUP1 PUSH1 0x40 MSTORE POP DUP2 ADD SWAP1 PUSH2 0x81B SWAP2 SWAP1 PUSH2 0x4394 JUMP JUMPDEST PUSH1 0x1 SLOAD PUSH1 0x40 MLOAD PUSH4 0x5598B209 PUSH1 0xE0 SHL DUP2 MSTORE PUSH1 0x1 PUSH1 0x1 PUSH1 0xA0 SHL SUB SWAP2 DUP3 AND PUSH1 0x4 DUP3 ADD MSTORE SWAP2 AND SWAP1 PUSH4 0x5598B209 SWAP1 PUSH1 0x24 ADD PUSH1 0x20 PUSH1 0x40 MLOAD DUP1 DUP4 SUB DUP2 DUP7 GAS STATICCALL ISZERO DUP1 ISZERO PUSH2 0x864 JUMPI RETURNDATASIZE PUSH1 0x0 DUP1 RETURNDATACOPY RETURNDATASIZE PUSH1 0x0 REVERT JUMPDEST POP POP POP POP PUSH1 0x40 MLOAD RETURNDATASIZE PUSH1 0x1F NOT PUSH1 0x1F DUP3 ADD AND DUP3 ADD DUP1 PUSH1 0x40 MSTORE POP DUP2 ADD SWAP1 PUSH2 0x888 SWAP2 SWAP1 PUSH2 0x43DA JUMP JUMPDEST SWAP1 POP DUP1 ISZERO PUSH2 0x8C6 JUMPI PUSH2 0x8A2 PUSH3 0xC6ECF PUSH1 0xEB SHL DUP11 DUP8 DUP5 PUSH2 0x249E JUMP JUMPDEST PUSH2 0x8B4 PUSH3 0x31B93B PUSH1 0xE9 SHL DUP12 DUP9 DUP5 PUSH2 0x249E JUMP JUMPDEST PUSH2 0x8C6 PUSH3 0x636E63 PUSH1 0xE8 SHL DUP10 DUP7 DUP5 PUSH2 0x249E JUMP JUMPDEST PUSH1 0x7 SLOAD PUSH1 0xFF AND PUSH2 0x8E2 JUMPI PUSH1 0x0 SWAP12 POP POP POP POP POP POP POP POP POP POP POP POP SWAP1 JUMP JUMPDEST PUSH1 0x1 SLOAD PUSH1 0x40 MLOAD PUSH4 0x70A08231 PUSH1 0xE0 SHL DUP2 MSTORE PUSH1 0x1 PUSH1 0x1 PUSH1 0xA0 SHL SUB SWAP1 SWAP2 AND PUSH1 0x4 DUP3 ADD MSTORE PUSH1 0x0 SWAP1 PUSH20 0xD533A949740BB3306D119CC777FA900BA034CD52 SWAP1 PUSH4 0x70A08231 SWAP1 PUSH1 0x24 ADD PUSH1 0x20 PUSH1 0x40 MLOAD DUP1 DUP4 SUB DUP2 DUP7 GAS STATICCALL ISZERO DUP1 ISZERO PUSH2 0x941 JUMPI RETURNDATASIZE PUSH1 0x0 DUP1 RETURNDATACOPY RETURNDATASIZE PUSH1 0x0 REVERT JUMPDEST POP POP POP POP PUSH1 0x40 MLOAD RETURNDATASIZE PUSH1 0x1F NOT PUSH1 0x1F DUP3 ADD AND DUP3 ADD DUP1 PUSH1 0x40 MSTORE POP DUP2 ADD SWAP1 PUSH2 0x965 SWAP2 SWAP1 PUSH2 0x43DA JUMP JUMPDEST DUP5 GT DUP1 PUSH2 0x9F0 JUMPI POP PUSH1 0x1 SLOAD PUSH1 0x40 MLOAD PUSH4 0x70A08231 PUSH1 0xE0 SHL DUP2 MSTORE PUSH1 0x1 PUSH1 0x1 PUSH1 0xA0 SHL SUB SWAP1 SWAP2 AND PUSH1 0x4 DUP3 ADD MSTORE PUSH20 0x4E3FBD56CD56C3E72C1403E103B45DB9DA5B9D2B SWAP1 PUSH4 0x70A08231 SWAP1 PUSH1 0x24 ADD PUSH1 0x20 PUSH1 0x40 MLOAD DUP1 DUP4 SUB DUP2 DUP7 GAS STATICCALL ISZERO DUP1 ISZERO PUSH2 0x9C9 JUMPI RETURNDATASIZE PUSH1 0x0 DUP1 RETURNDATACOPY RETURNDATASIZE PUSH1 0x0 REVERT JUMPDEST POP POP POP POP PUSH1 0x40 MLOAD RETURNDATASIZE PUSH1 0x1F NOT PUSH1 0x1F DUP3 ADD AND DUP3 ADD DUP1 PUSH1 0x40 MSTORE POP DUP2 ADD SWAP1 PUSH2 0x9ED SWAP2 SWAP1 PUSH2 0x43DA JUMP JUMPDEST DUP4 GT JUMPDEST ISZERO PUSH2 0xA01 JUMPI PUSH2 0x9FD PUSH2 0x24E2 JUMP JUMPDEST POP PUSH1 0x1 JUMPDEST PUSH1 0x1 SLOAD PUSH2 0xA2E SWAP1 PUSH20 0xD533A949740BB3306D119CC777FA900BA034CD52 SWAP1 PUSH1 0x1 PUSH1 0x1 PUSH1 0xA0 SHL SUB AND ADDRESS DUP8 PUSH2 0x27CE JUMP JUMPDEST PUSH1 0x1 SLOAD PUSH2 0xA5B SWAP1 PUSH20 0x4E3FBD56CD56C3E72C1403E103B45DB9DA5B9D2B SWAP1 PUSH1 0x1 PUSH1 0x1 PUSH1 0xA0 SHL SUB AND ADDRESS DUP7 PUSH2 0x27CE JUMP JUMPDEST PUSH1 0x0 PUSH32 0x0 PUSH1 0x1 PUSH1 0x1 PUSH1 0xA0 SHL SUB AND PUSH4 0x46904840 PUSH1 0x40 MLOAD DUP2 PUSH4 0xFFFFFFFF AND PUSH1 0xE0 SHL DUP2 MSTORE PUSH1 0x4 ADD PUSH1 0x20 PUSH1 0x40 MLOAD DUP1 DUP4 SUB DUP2 DUP7 GAS STATICCALL ISZERO DUP1 ISZERO PUSH2 0xABB JUMPI RETURNDATASIZE PUSH1 0x0 DUP1 RETURNDATACOPY RETURNDATASIZE PUSH1 0x0 REVERT JUMPDEST POP POP POP POP PUSH1 0x40 MLOAD RETURNDATASIZE PUSH1 0x1F NOT PUSH1 0x1F DUP3 ADD AND DUP3 ADD DUP1 PUSH1 0x40 MSTORE POP DUP2 ADD SWAP1 PUSH2 0xADF SWAP2 SWAP1 PUSH2 0x4394 JUMP JUMPDEST SWAP1 POP PUSH2 0xB00 PUSH20 0xD533A949740BB3306D119CC777FA900BA034CD52 DUP3 DUP8 PUSH2 0x280C JUMP JUMPDEST PUSH2 0xB1F PUSH20 0x4E3FBD56CD56C3E72C1403E103B45DB9DA5B9D2B DUP3 DUP7 PUSH2 0x280C JUMP JUMPDEST PUSH1 0x40 MLOAD PUSH4 0x9E690EB PUSH1 0xE3 SHL DUP2 MSTORE PUSH1 0x4 DUP2 ADD DUP7 SWAP1 MSTORE PUSH1 0x24 DUP2 ADD DUP6 SWAP1 MSTORE PUSH1 0x1 PUSH1 0x1 PUSH1 0xA0 SHL SUB DUP3 AND SWAP1 PUSH4 0x4F348758 SWAP1 PUSH1 0x44 ADD PUSH1 0x0 PUSH1 0x40 MLOAD DUP1 DUP4 SUB DUP2 PUSH1 0x0 DUP8 DUP1 EXTCODESIZE ISZERO DUP1 ISZERO PUSH2 0xB68 JUMPI PUSH1 0x0 DUP1 REVERT JUMPDEST POP GAS CALL ISZERO DUP1 ISZERO PUSH2 0xB7C JUMPI RETURNDATASIZE PUSH1 0x0 DUP1 RETURNDATACOPY RETURNDATASIZE PUSH1 0x0 REVERT JUMPDEST POP POP POP POP DUP2 SWAP14 POP POP POP POP POP POP POP POP POP POP POP POP POP POP SWAP1 JUMP JUMPDEST PUSH1 0x0 PUSH2 0xB9D PUSH2 0x1EAE JUMP JUMPDEST PUSH1 0x1 PUSH1 0x1 PUSH1 0xA0 SHL SUB DUP3 AND PUSH2 0xBE5 JUMPI PUSH1 0x40 MLOAD PUSH3 0x461BCD PUSH1 0xE5 SHL DUP2 MSTORE PUSH1 0x20 PUSH1 0x4 DUP3 ADD MSTORE PUSH1 0xF PUSH1 0x24 DUP3 ADD MSTORE PUSH15 0x696E76616C69642061646472657373 PUSH1 0x88 SHL PUSH1 0x44 DUP3 ADD MSTORE PUSH1 0x64 ADD PUSH2 0x4ED JUMP JUMPDEST PUSH2 0xBF0 PUSH1 0x2 DUP4 PUSH2 0x289B JUMP JUMPDEST ISZERO PUSH2 0xC2D JUMPI PUSH1 0x40 MLOAD PUSH3 0x461BCD PUSH1 0xE5 SHL DUP2 MSTORE PUSH1 0x20 PUSH1 0x4 DUP3 ADD MSTORE PUSH1 0xD PUSH1 0x24 DUP3 ADD MSTORE PUSH13 0x185B1C9958591E481859191959 PUSH1 0x9A SHL PUSH1 0x44 DUP3 ADD MSTORE PUSH1 0x64 ADD PUSH2 0x4ED JUMP JUMPDEST PUSH1 0x1 PUSH1 0x1 PUSH1 0xA0 SHL SUB DUP3 AND PUSH20 0x4E3FBD56CD56C3E72C1403E103B45DB9DA5B9D2B EQ DUP1 ISZERO SWAP1 PUSH2 0xC77 JUMPI POP PUSH1 0x1 PUSH1 0x1 PUSH1 0xA0 SHL SUB DUP3 AND PUSH20 0xD533A949740BB3306D119CC777FA900BA034CD52 EQ ISZERO JUMPDEST DUP1 ISZERO PUSH2 0xCB5 JUMPI POP PUSH32 0x0 PUSH1 0x1 PUSH1 0x1 PUSH1 0xA0 SHL SUB AND DUP3 PUSH1 0x1 PUSH1 0x1 PUSH1 0xA0 SHL SUB AND EQ ISZERO JUMPDEST DUP1 ISZERO PUSH2 0xCDE JUMPI POP PUSH1 0x1 PUSH1 0x1 PUSH1 0xA0 SHL SUB DUP3 AND PUSH20 0x9AE380F0272E2162340A5BB646C354271C0F5CFC EQ ISZERO JUMPDEST PUSH2 0xD1E JUMPI PUSH1 0x40 MLOAD PUSH3 0x461BCD PUSH1 0xE5 SHL DUP2 MSTORE PUSH1 0x20 PUSH1 0x4 DUP3 ADD MSTORE PUSH1 0x11 PUSH1 0x24 DUP3 ADD MSTORE PUSH17 0x1D1BDAD95B881B9BDD08185B1B1BDDD959 PUSH1 0x7A SHL PUSH1 0x44 DUP3 ADD MSTORE PUSH1 0x64 ADD PUSH2 0x4ED JUMP JUMPDEST PUSH1 0x1 SLOAD PUSH1 0x40 DUP1 MLOAD PUSH4 0xC5C63E65 PUSH1 0xE0 SHL DUP2 MSTORE SWAP1 MLOAD PUSH1 0x0 SWAP3 PUSH1 0x1 PUSH1 0x1 PUSH1 0xA0 SHL SUB AND SWAP2 PUSH4 0xC5C63E65 SWAP2 PUSH1 0x4 DUP1 DUP4 ADD SWAP3 DUP7 SWAP3 SWAP2 SWAP1 DUP3 SWAP1 SUB ADD DUP2 DUP7 GAS STATICCALL ISZERO DUP1 ISZERO PUSH2 0xD67 JUMPI RETURNDATASIZE PUSH1 0x0 DUP1 RETURNDATACOPY RETURNDATASIZE PUSH1 0x0 REVERT JUMPDEST POP POP POP POP PUSH1 0x40 MLOAD RETURNDATASIZE PUSH1 0x0 DUP3 RETURNDATACOPY PUSH1 0x1F RETURNDATASIZE SWAP1 DUP2 ADD PUSH1 0x1F NOT AND DUP3 ADD PUSH1 0x40 MSTORE PUSH2 0xD8F SWAP2 SWAP1 DUP2 ADD SWAP1 PUSH2 0x43F3 JUMP JUMPDEST SWAP1 POP PUSH1 0x0 JUMPDEST DUP2 MLOAD DUP2 LT ISZERO PUSH2 0xF52 JUMPI PUSH1 0x0 PUSH32 0x0 PUSH1 0x1 PUSH1 0x1 PUSH1 0xA0 SHL SUB AND PUSH4 0x55EB6B35 DUP5 DUP5 DUP2 MLOAD DUP2 LT PUSH2 0xDE0 JUMPI PUSH2 0xDE0 PUSH2 0x4482 JUMP JUMPDEST PUSH1 0x20 MUL PUSH1 0x20 ADD ADD MLOAD PUSH1 0x40 MLOAD DUP3 PUSH4 0xFFFFFFFF AND PUSH1 0xE0 SHL DUP2 MSTORE PUSH1 0x4 ADD PUSH2 0xE13 SWAP2 SWAP1 PUSH1 0x1 PUSH1 0x1 PUSH1 0xA0 SHL SUB SWAP2 SWAP1 SWAP2 AND DUP2 MSTORE PUSH1 0x20 ADD SWAP1 JUMP JUMPDEST PUSH1 0x20 PUSH1 0x40 MLOAD DUP1 DUP4 SUB DUP2 DUP7 GAS STATICCALL ISZERO DUP1 ISZERO PUSH2 0xE30 JUMPI RETURNDATASIZE PUSH1 0x0 DUP1 RETURNDATACOPY RETURNDATASIZE PUSH1 0x0 REVERT JUMPDEST POP POP POP POP PUSH1 0x40 MLOAD RETURNDATASIZE PUSH1 0x1F NOT PUSH1 0x1F DUP3 ADD AND DUP3 ADD DUP1 PUSH1 0x40 MSTORE POP DUP2 ADD SWAP1 PUSH2 0xE54 SWAP2 SWAP1 PUSH2 0x4394 JUMP JUMPDEST PUSH1 0x1 PUSH1 0x1 PUSH1 0xA0 SHL SUB AND PUSH4 0x76A562A4 DUP5 DUP5 DUP2 MLOAD DUP2 LT PUSH2 0xE74 JUMPI PUSH2 0xE74 PUSH2 0x4482 JUMP JUMPDEST PUSH1 0x20 MUL PUSH1 0x20 ADD ADD MLOAD PUSH1 0x40 MLOAD DUP3 PUSH4 0xFFFFFFFF AND PUSH1 0xE0 SHL DUP2 MSTORE PUSH1 0x4 ADD PUSH2 0xEA7 SWAP2 SWAP1 PUSH1 0x1 PUSH1 0x1 PUSH1 0xA0 SHL SUB SWAP2 SWAP1 SWAP2 AND DUP2 MSTORE PUSH1 0x20 ADD SWAP1 JUMP JUMPDEST PUSH1 0x20 PUSH1 0x40 MLOAD DUP1 DUP4 SUB DUP2 DUP7 GAS STATICCALL ISZERO DUP1 ISZERO PUSH2 0xEC4 JUMPI RETURNDATASIZE PUSH1 0x0 DUP1 RETURNDATACOPY RETURNDATASIZE PUSH1 0x0 REVERT JUMPDEST POP POP POP POP PUSH1 0x40 MLOAD RETURNDATASIZE PUSH1 0x1F NOT PUSH1 0x1F DUP3 ADD AND DUP3 ADD DUP1 PUSH1 0x40 MSTORE POP DUP2 ADD SWAP1 PUSH2 0xEE8 SWAP2 SWAP1 PUSH2 0x4394 JUMP JUMPDEST SWAP1 POP DUP1 PUSH1 0x1 PUSH1 0x1 PUSH1 0xA0 SHL SUB AND DUP6 PUSH1 0x1 PUSH1 0x1 PUSH1 0xA0 SHL SUB AND SUB PUSH2 0xF3F JUMPI PUSH1 0x40 MLOAD PUSH3 0x461BCD PUSH1 0xE5 SHL DUP2 MSTORE PUSH1 0x20 PUSH1 0x4 DUP3 ADD MSTORE PUSH1 0x11 PUSH1 0x24 DUP3 ADD MSTORE PUSH17 0x1D1BDAD95B881B9BDD08185B1B1BDDD959 PUSH1 0x7A SHL PUSH1 0x44 DUP3 ADD MSTORE PUSH1 0x64 ADD PUSH2 0x4ED JUMP JUMPDEST POP DUP1 PUSH2 0xF4A DUP2 PUSH2 0x4498 JUMP JUMPDEST SWAP2 POP POP PUSH2 0xD94 JUMP JUMPDEST POP PUSH1 0x1 DUP1 SLOAD PUSH1 0x40 MLOAD PUSH4 0xE85CB77 PUSH1 0xE2 SHL DUP2 MSTORE PUSH1 0x1 PUSH1 0x1 PUSH1 0xA0 SHL SUB DUP7 DUP2 AND PUSH1 0x4 DUP4 ADD MSTORE PUSH1 0x24 DUP3 ADD SWAP4 SWAP1 SWAP4 MSTORE SWAP2 AND SWAP1 PUSH4 0x3A172DDC SWAP1 PUSH1 0x44 ADD PUSH1 0x0 PUSH1 0x40 MLOAD DUP1 DUP4 SUB DUP2 PUSH1 0x0 DUP8 DUP1 EXTCODESIZE ISZERO DUP1 ISZERO PUSH2 0xFA2 JUMPI PUSH1 0x0 DUP1 REVERT JUMPDEST POP GAS CALL ISZERO DUP1 ISZERO PUSH2 0xFB6 JUMPI RETURNDATASIZE PUSH1 0x0 DUP1 RETURNDATACOPY RETURNDATASIZE PUSH1 0x0 REVERT JUMPDEST POP PUSH2 0xFE4 SWAP3 POP POP POP PUSH1 0x1 PUSH1 0x1 PUSH1 0xA0 SHL SUB DUP5 AND PUSH20 0xD9E1CE17F2641F24AE83637AB66A2CCA9C378B9F PUSH1 0x0 PUSH2 0x1D48 JUMP JUMPDEST PUSH2 0x100E PUSH1 0x1 PUSH1 0x1 PUSH1 0xA0 SHL SUB DUP5 AND PUSH20 0xD9E1CE17F2641F24AE83637AB66A2CCA9C378B9F PUSH1 0x0 NOT PUSH2 0x1D48 JUMP JUMPDEST PUSH1 0x40 MLOAD PUSH1 0x1 PUSH1 0x1 PUSH1 0xA0 SHL SUB DUP5 AND DUP2 MSTORE PUSH32 0xD432E6F46DBF91C120FDFA95A1F4BF5C43F04D957FBC3A32E693BE0D29BF17B0 SWAP1 PUSH1 0x20 ADD PUSH1 0x40 MLOAD DUP1 SWAP2 SUB SWAP1 LOG1 PUSH2 0x1055 PUSH1 0x2 DUP5 PUSH2 0x28BD JUMP JUMPDEST SWAP2 POP POP JUMPDEST SWAP2 SWAP1 POP JUMP JUMPDEST PUSH1 0x60 PUSH2 0x106A PUSH1 0x2 PUSH2 0x28D2 JUMP JUMPDEST SWAP1 POP SWAP1 JUMP JUMPDEST PUSH2 0x1077 PUSH2 0x1EAE JUMP JUMPDEST PUSH2 0x1081 PUSH1 0x0 PUSH2 0x28DF JUMP JUMPDEST JUMP JUMPDEST PUSH2 0x108B PUSH2 0x1EAE JUMP JUMPDEST PUSH2 0x1096 PUSH1 0x2 DUP3 PUSH2 0x289B JUMP JUMPDEST PUSH2 0x10CE JUMPI PUSH1 0x40 MLOAD PUSH3 0x461BCD PUSH1 0xE5 SHL DUP2 MSTORE PUSH1 0x20 PUSH1 0x4 DUP3 ADD MSTORE PUSH1 0x9 PUSH1 0x24 DUP3 ADD MSTORE PUSH9 0x1B9BDD081859191959 PUSH1 0xBA SHL PUSH1 0x44 DUP3 ADD MSTORE PUSH1 0x64 ADD PUSH2 0x4ED JUMP JUMPDEST PUSH2 0x10D9 PUSH1 0x2 DUP3 PUSH2 0x292F JUMP JUMPDEST POP PUSH1 0x1 SLOAD PUSH1 0x40 MLOAD PUSH4 0xE85CB77 PUSH1 0xE2 SHL DUP2 MSTORE PUSH1 0x1 PUSH1 0x1 PUSH1 0xA0 SHL SUB DUP4 DUP2 AND PUSH1 0x4 DUP4 ADD MSTORE PUSH1 0x0 PUSH1 0x24 DUP4 ADD MSTORE SWAP1 SWAP2 AND SWAP1 PUSH4 0x3A172DDC SWAP1 PUSH1 0x44 ADD PUSH1 0x0 PUSH1 0x40 MLOAD DUP1 DUP4 SUB DUP2 PUSH1 0x0 DUP8 DUP1 EXTCODESIZE ISZERO DUP1 ISZERO PUSH2 0x1128 JUMPI PUSH1 0x0 DUP1 REVERT JUMPDEST POP GAS CALL ISZERO DUP1 ISZERO PUSH2 0x113C JUMPI RETURNDATASIZE PUSH1 0x0 DUP1 RETURNDATACOPY RETURNDATASIZE PUSH1 0x0 REVERT JUMPDEST POP POP PUSH1 0x40 MLOAD PUSH1 0x1 PUSH1 0x1 PUSH1 0xA0 SHL SUB DUP5 AND DUP2 MSTORE PUSH32 0xE0F3B1406AB4DD940A92A081B1BCEF51DA212A57978CC8F6DDE5C89AB41A5AA7 SWAP3 POP PUSH1 0x20 ADD SWAP1 POP JUMPDEST PUSH1 0x40 MLOAD DUP1 SWAP2 SUB SWAP1 LOG1 POP JUMP JUMPDEST PUSH2 0x1189 PUSH2 0x1EAE JUMP JUMPDEST PUSH8 0x429D069189E0000 DUP2 LT PUSH2 0x11F3 JUMPI PUSH1 0x40 MLOAD PUSH3 0x461BCD PUSH1 0xE5 SHL DUP2 MSTORE PUSH1 0x20 PUSH1 0x4 DUP3 ADD MSTORE PUSH1 0x2A PUSH1 0x24 DUP3 ADD MSTORE PUSH32 0x63616E6E6F7420736574206665652070657263656E7461676520746F206D6F72 PUSH1 0x44 DUP3 ADD MSTORE PUSH10 0x65207468616E20333025 PUSH1 0xB0 SHL PUSH1 0x64 DUP3 ADD MSTORE PUSH1 0x84 ADD PUSH2 0x4ED JUMP JUMPDEST PUSH1 0x8 SLOAD DUP2 SUB PUSH2 0x1244 JUMPI PUSH1 0x40 MLOAD PUSH3 0x461BCD PUSH1 0xE5 SHL DUP2 MSTORE PUSH1 0x20 PUSH1 0x4 DUP3 ADD MSTORE PUSH1 0x1C PUSH1 0x24 DUP3 ADD MSTORE PUSH32 0x6D75737420626520646966666572656E7420746F2063757272656E7400000000 PUSH1 0x44 DUP3 ADD MSTORE PUSH1 0x64 ADD PUSH2 0x4ED JUMP JUMPDEST PUSH1 0x0 PUSH1 0x1 PUSH1 0x1 PUSH1 0xA0 SHL SUB AND PUSH32 0x0 PUSH1 0x1 PUSH1 0x1 PUSH1 0xA0 SHL SUB AND PUSH4 0x46904840 PUSH1 0x40 MLOAD DUP2 PUSH4 0xFFFFFFFF AND PUSH1 0xE0 SHL DUP2 MSTORE PUSH1 0x4 ADD PUSH1 0x20 PUSH1 0x40 MLOAD DUP1 DUP4 SUB DUP2 DUP7 GAS STATICCALL ISZERO DUP1 ISZERO PUSH2 0x12AD JUMPI RETURNDATASIZE PUSH1 0x0 DUP1 RETURNDATACOPY RETURNDATASIZE PUSH1 0x0 REVERT JUMPDEST POP POP POP POP PUSH1 0x40 MLOAD RETURNDATASIZE PUSH1 0x1F NOT PUSH1 0x1F DUP3 ADD AND DUP3 ADD DUP1 PUSH1 0x40 MSTORE POP DUP2 ADD SWAP1 PUSH2 0x12D1 SWAP2 SWAP1 PUSH2 0x4394 JUMP JUMPDEST PUSH1 0x1 PUSH1 0x1 PUSH1 0xA0 SHL SUB AND SUB PUSH2 0x131F JUMPI PUSH1 0x40 MLOAD PUSH3 0x461BCD PUSH1 0xE5 SHL DUP2 MSTORE PUSH1 0x20 PUSH1 0x4 DUP3 ADD MSTORE PUSH1 0x15 PUSH1 0x24 DUP3 ADD MSTORE PUSH21 0x199959481C9958DA5C1A595B9D081B9BDD081CD95D PUSH1 0x5A SHL PUSH1 0x44 DUP3 ADD MSTORE PUSH1 0x64 ADD PUSH2 0x4ED JUMP JUMPDEST PUSH1 0x8 DUP2 SWAP1 SSTORE PUSH1 0x7 DUP1 SLOAD PUSH1 0xFF NOT AND DUP3 ISZERO ISZERO OR SWAP1 SSTORE PUSH1 0x40 MLOAD PUSH32 0x3346AF6DA1932164D501F2EC28F8C5D686DB5828A36B77F2DA4332D89184FE7B SWAP1 PUSH2 0x1176 SWAP1 DUP4 DUP2 MSTORE PUSH1 0x20 ADD SWAP1 JUMP JUMPDEST PUSH2 0x136D DUP2 PUSH2 0x2944 JUMP JUMPDEST POP JUMP JUMPDEST PUSH2 0x1378 PUSH2 0x1EAE JUMP JUMPDEST PUSH1 0x0 SLOAD PUSH1 0x1 PUSH1 0xA8 SHL SWAP1 DIV PUSH1 0xFF AND ISZERO DUP1 DUP1 ISZERO PUSH2 0x13A0 JUMPI POP PUSH1 0x0 SLOAD PUSH1 0x1 PUSH1 0x1 PUSH1 0xA0 SHL SWAP1 SWAP2 DIV PUSH1 0xFF AND LT JUMPDEST DUP1 PUSH2 0x13C1 JUMPI POP ADDRESS EXTCODESIZE ISZERO DUP1 ISZERO PUSH2 0x13C1 JUMPI POP PUSH1 0x0 SLOAD PUSH1 0x1 PUSH1 0xA0 SHL SWAP1 DIV PUSH1 0xFF AND PUSH1 0x1 EQ JUMPDEST PUSH2 0x1424 JUMPI PUSH1 0x40 MLOAD PUSH3 0x461BCD PUSH1 0xE5 SHL DUP2 MSTORE PUSH1 0x20 PUSH1 0x4 DUP3 ADD MSTORE PUSH1 0x2E PUSH1 0x24 DUP3 ADD MSTORE PUSH32 0x496E697469616C697A61626C653A20636F6E747261637420697320616C726561 PUSH1 0x44 DUP3 ADD MSTORE PUSH14 0x191E481A5B9A5D1A585B1A5E9959 PUSH1 0x92 SHL PUSH1 0x64 DUP3 ADD MSTORE PUSH1 0x84 ADD PUSH2 0x4ED JUMP JUMPDEST PUSH1 0x0 DUP1 SLOAD PUSH1 0xFF PUSH1 0xA0 SHL NOT AND PUSH1 0x1 PUSH1 0xA0 SHL OR SWAP1 SSTORE DUP1 ISZERO PUSH2 0x1451 JUMPI PUSH1 0x0 DUP1 SLOAD PUSH1 0xFF PUSH1 0xA8 SHL NOT AND PUSH1 0x1 PUSH1 0xA8 SHL OR SWAP1 SSTORE JUMPDEST PUSH1 0x1 DUP1 SLOAD PUSH1 0x1 PUSH1 0x1 PUSH1 0xA0 SHL SUB NOT AND PUSH1 0x1 PUSH1 0x1 PUSH1 0xA0 SHL SUB DUP5 AND OR SWAP1 SSTORE DUP1 ISZERO PUSH2 0x14B0 JUMPI PUSH1 0x0 DUP1 SLOAD PUSH1 0xFF PUSH1 0xA8 SHL NOT AND SWAP1 SSTORE PUSH1 0x40 MLOAD PUSH1 0x1 DUP2 MSTORE PUSH32 0x7F26B83FF96E1F2B6A682F133852F6798A09C465DA95921460CEFB3847402498 SWAP1 PUSH1 0x20 ADD PUSH2 0x590 JUMP JUMPDEST POP POP JUMP JUMPDEST PUSH1 0x0 DUP1 PUSH1 0x0 PUSH2 0x14C2 CALLER PUSH2 0x2944 JUMP JUMPDEST CALLER PUSH1 0x0 SWAP1 DUP2 MSTORE PUSH32 0xAF8CF1498B7428D6C04C3D3FB7125FA218AD2FAF2F4F7F7E26309929A16DFCD3 PUSH1 0x20 SWAP1 DUP2 MSTORE PUSH1 0x40 DUP1 DUP4 KECCAK256 SLOAD PUSH32 0x1DA685D363C3798567409758B6F6466F17974A073E3CE7CE447C063C18AB4962 DUP4 MSTORE DUP2 DUP5 KECCAK256 SLOAD PUSH32 0x8CDA27973994B4C9CEF5FC6716A5EE96CC4ABE3353228D7FABF6C8BB342178B0 SWAP1 SWAP4 MSTORE SWAP3 DUP2 SWAP1 KECCAK256 SLOAD PUSH1 0x1 SLOAD SWAP2 MLOAD PUSH4 0x70A08231 PUSH1 0xE0 SHL DUP2 MSTORE PUSH1 0x1 PUSH1 0x1 PUSH1 0xA0 SHL SUB SWAP1 SWAP3 AND PUSH1 0x4 DUP4 ADD MSTORE SWAP1 PUSH20 0xD533A949740BB3306D119CC777FA900BA034CD52 SWAP1 PUSH4 0x70A08231 SWAP1 PUSH1 0x24 ADD PUSH1 0x20 PUSH1 0x40 MLOAD DUP1 DUP4 SUB DUP2 DUP7 GAS STATICCALL ISZERO DUP1 ISZERO PUSH2 0x15A0 JUMPI RETURNDATASIZE PUSH1 0x0 DUP1 RETURNDATACOPY RETURNDATASIZE PUSH1 0x0 REVERT JUMPDEST POP POP POP POP PUSH1 0x40 MLOAD RETURNDATASIZE PUSH1 0x1F NOT PUSH1 0x1F DUP3 ADD AND DUP3 ADD DUP1 PUSH1 0x40 MSTORE POP DUP2 ADD SWAP1 PUSH2 0x15C4 SWAP2 SWAP1 PUSH2 0x43DA JUMP JUMPDEST DUP4 GT DUP1 PUSH2 0x164F JUMPI POP PUSH1 0x1 SLOAD PUSH1 0x40 MLOAD PUSH4 0x70A08231 PUSH1 0xE0 SHL DUP2 MSTORE PUSH1 0x1 PUSH1 0x1 PUSH1 0xA0 SHL SUB SWAP1 SWAP2 AND PUSH1 0x4 DUP3 ADD MSTORE PUSH20 0x4E3FBD56CD56C3E72C1403E103B45DB9DA5B9D2B SWAP1 PUSH4 0x70A08231 SWAP1 PUSH1 0x24 ADD PUSH1 0x20 PUSH1 0x40 MLOAD DUP1 DUP4 SUB DUP2 DUP7 GAS STATICCALL ISZERO DUP1 ISZERO PUSH2 0x1628 JUMPI RETURNDATASIZE PUSH1 0x0 DUP1 RETURNDATACOPY RETURNDATASIZE PUSH1 0x0 REVERT JUMPDEST POP POP POP POP PUSH1 0x40 MLOAD RETURNDATASIZE PUSH1 0x1F NOT PUSH1 0x1F DUP3 ADD AND DUP3 ADD DUP1 PUSH1 0x40 MSTORE POP DUP2 ADD SWAP1 PUSH2 0x164C SWAP2 SWAP1 PUSH2 0x43DA JUMP JUMPDEST DUP3 GT JUMPDEST DUP1 PUSH2 0x16D8 JUMPI POP PUSH1 0x1 SLOAD PUSH1 0x40 MLOAD PUSH4 0x70A08231 PUSH1 0xE0 SHL DUP2 MSTORE PUSH1 0x1 PUSH1 0x1 PUSH1 0xA0 SHL SUB SWAP1 SWAP2 AND PUSH1 0x4 DUP3 ADD MSTORE PUSH20 0x9AE380F0272E2162340A5BB646C354271C0F5CFC SWAP1 PUSH4 0x70A08231 SWAP1 PUSH1 0x24 ADD PUSH1 0x20 PUSH1 0x40 MLOAD DUP1 DUP4 SUB DUP2 DUP7 GAS STATICCALL ISZERO DUP1 ISZERO PUSH2 0x16B1 JUMPI RETURNDATASIZE PUSH1 0x0 DUP1 RETURNDATACOPY RETURNDATASIZE PUSH1 0x0 REVERT JUMPDEST POP POP POP POP PUSH1 0x40 MLOAD RETURNDATASIZE PUSH1 0x1F NOT PUSH1 0x1F DUP3 ADD AND DUP3 ADD DUP1 PUSH1 0x40 MSTORE POP DUP2 ADD SWAP1 PUSH2 0x16D5 SWAP2 SWAP1 PUSH2 0x43DA JUMP JUMPDEST DUP2 GT JUMPDEST ISZERO PUSH2 0x1731 JUMPI PUSH2 0x16E5 PUSH2 0x24E2 JUMP JUMPDEST PUSH1 0x0 PUSH2 0x16F1 PUSH1 0x2 PUSH2 0x2A7B JUMP JUMPDEST GT ISZERO PUSH2 0x1731 JUMPI PUSH2 0x1700 CALLER PUSH2 0x2944 JUMP JUMPDEST POP CALLER PUSH1 0x0 SWAP1 DUP2 MSTORE PUSH32 0x8CDA27973994B4C9CEF5FC6716A5EE96CC4ABE3353228D7FABF6C8BB342178B0 PUSH1 0x20 MSTORE PUSH1 0x40 SWAP1 KECCAK256 SLOAD JUMPDEST CALLER PUSH1 0x0 DUP2 DUP2 MSTORE PUSH32 0x8CDA27973994B4C9CEF5FC6716A5EE96CC4ABE3353228D7FABF6C8BB342178B0 PUSH1 0x20 SWAP1 DUP2 MSTORE PUSH1 0x40 DUP1 DUP4 KECCAK256 DUP4 SWAP1 SSTORE PUSH32 0x1DA685D363C3798567409758B6F6466F17974A073E3CE7CE447C063C18AB4962 DUP3 MSTORE DUP1 DUP4 KECCAK256 DUP4 SWAP1 SSTORE PUSH32 0xAF8CF1498B7428D6C04C3D3FB7125FA218AD2FAF2F4F7F7E26309929A16DFCD3 SWAP1 SWAP2 MSTORE DUP2 KECCAK256 SSTORE PUSH1 0x1 SLOAD PUSH2 0x17E2 SWAP2 PUSH20 0xD533A949740BB3306D119CC777FA900BA034CD52 SWAP2 PUSH1 0x1 PUSH1 0x1 PUSH1 0xA0 SHL SUB AND SWAP1 DUP7 PUSH2 0x27CE JUMP JUMPDEST PUSH1 0x1 SLOAD PUSH2 0x180F SWAP1 PUSH20 0x4E3FBD56CD56C3E72C1403E103B45DB9DA5B9D2B SWAP1 PUSH1 0x1 PUSH1 0x1 PUSH1 0xA0 SHL SUB AND CALLER DUP6 PUSH2 0x27CE JUMP JUMPDEST PUSH1 0x1 SLOAD PUSH1 0x40 MLOAD PUSH4 0x70A08231 PUSH1 0xE0 SHL DUP2 MSTORE PUSH1 0x1 PUSH1 0x1 PUSH1 0xA0 SHL SUB SWAP1 SWAP2 AND PUSH1 0x4 DUP3 ADD MSTORE DUP2 SWAP1 PUSH20 0x9AE380F0272E2162340A5BB646C354271C0F5CFC SWAP1 PUSH4 0x70A08231 SWAP1 PUSH1 0x24 ADD PUSH1 0x20 PUSH1 0x40 MLOAD DUP1 DUP4 SUB DUP2 DUP7 GAS STATICCALL ISZERO DUP1 ISZERO PUSH2 0x186D JUMPI RETURNDATASIZE PUSH1 0x0 DUP1 RETURNDATACOPY RETURNDATASIZE PUSH1 0x0 REVERT JUMPDEST POP POP POP POP PUSH1 0x40 MLOAD RETURNDATASIZE PUSH1 0x1F NOT PUSH1 0x1F DUP3 ADD AND DUP3 ADD DUP1 PUSH1 0x40 MSTORE POP DUP2 ADD SWAP1 PUSH2 0x1891 SWAP2 SWAP1 PUSH2 0x43DA JUMP JUMPDEST LT PUSH2 0x18C3 JUMPI PUSH1 0x1 SLOAD PUSH2 0x18C3 SWAP1 PUSH20 0x9AE380F0272E2162340A5BB646C354271C0F5CFC SWAP1 PUSH1 0x1 PUSH1 0x1 PUSH1 0xA0 SHL SUB AND CALLER DUP5 PUSH2 0x27CE JUMP JUMPDEST PUSH1 0x0 DUP1 PUSH1 0x0 PUSH2 0x1952 PUSH32 0x0 PUSH1 0x1 PUSH1 0x1 PUSH1 0xA0 SHL SUB AND PUSH4 0xB050ECB8 PUSH1 0x40 MLOAD DUP2 PUSH4 0xFFFFFFFF AND PUSH1 0xE0 SHL DUP2 MSTORE PUSH1 0x4 ADD PUSH1 0x20 PUSH1 0x40 MLOAD DUP1 DUP4 SUB DUP2 DUP7 GAS STATICCALL ISZERO DUP1 ISZERO PUSH2 0x1929 JUMPI RETURNDATASIZE PUSH1 0x0 DUP1 RETURNDATACOPY RETURNDATASIZE PUSH1 0x0 REVERT JUMPDEST POP POP POP POP PUSH1 0x40 MLOAD RETURNDATASIZE PUSH1 0x1F NOT PUSH1 0x1F DUP3 ADD AND DUP3 ADD DUP1 PUSH1 0x40 MSTORE POP DUP2 ADD SWAP1 PUSH2 0x194D SWAP2 SWAP1 PUSH2 0x4394 JUMP JUMPDEST PUSH2 0x2A85 JUMP JUMPDEST PUSH1 0x5 PUSH1 0x20 SWAP1 DUP2 MSTORE PUSH32 0xAF8CF1498B7428D6C04C3D3FB7125FA218AD2FAF2F4F7F7E26309929A16DFCD1 DUP5 SWAP1 SSTORE PUSH1 0x0 DUP1 MLOAD PUSH1 0x20 PUSH2 0x487A DUP4 CODECOPY DUP2 MLOAD SWAP2 MSTORE DUP4 SWAP1 SSTORE PUSH3 0x636E63 PUSH1 0xE8 SHL PUSH1 0x0 MSTORE PUSH1 0x0 DUP1 MLOAD PUSH1 0x20 PUSH2 0x489A DUP4 CODECOPY DUP2 MLOAD SWAP2 MSTORE DUP3 SWAP1 SSTORE PUSH1 0x40 DUP1 MLOAD DUP10 DUP2 MSTORE SWAP2 DUP3 ADD DUP12 SWAP1 MSTORE DUP2 ADD DUP10 SWAP1 MSTORE SWAP3 SWAP6 POP SWAP1 SWAP4 POP SWAP2 POP CALLER SWAP1 PUSH32 0x6F39318C760AD4D630F57BA8F8D3C21B8E1DEB076E19476D1DECE4E3D737E7A SWAP1 PUSH1 0x60 ADD PUSH1 0x40 MLOAD DUP1 SWAP2 SUB SWAP1 LOG2 POP SWAP2 SWAP8 SWAP4 SWAP7 POP SWAP2 SWAP5 POP SWAP2 SWAP3 POP POP POP JUMP JUMPDEST PUSH1 0x0 DUP1 PUSH1 0x0 DUP1 PUSH32 0x0 PUSH1 0x1 PUSH1 0x1 PUSH1 0xA0 SHL SUB AND PUSH4 0x48439E7E PUSH1 0x40 MLOAD DUP2 PUSH4 0xFFFFFFFF AND PUSH1 0xE0 SHL DUP2 MSTORE PUSH1 0x4 ADD PUSH1 0x20 PUSH1 0x40 MLOAD DUP1 DUP4 SUB DUP2 DUP7 GAS STATICCALL ISZERO DUP1 ISZERO PUSH2 0x1A68 JUMPI RETURNDATASIZE PUSH1 0x0 DUP1 RETURNDATACOPY RETURNDATASIZE PUSH1 0x0 REVERT JUMPDEST POP POP POP POP PUSH1 0x40 MLOAD RETURNDATASIZE PUSH1 0x1F NOT PUSH1 0x1F DUP3 ADD AND DUP3 ADD DUP1 PUSH1 0x40 MSTORE POP DUP2 ADD SWAP1 PUSH2 0x1A8C SWAP2 SWAP1 PUSH2 0x4394 JUMP JUMPDEST PUSH1 0x1 SLOAD PUSH1 0x40 MLOAD PUSH4 0x5598B209 PUSH1 0xE0 SHL DUP2 MSTORE PUSH1 0x1 PUSH1 0x1 PUSH1 0xA0 SHL SUB SWAP2 DUP3 AND PUSH1 0x4 DUP3 ADD MSTORE SWAP2 AND SWAP1 PUSH4 0x5598B209 SWAP1 PUSH1 0x24 ADD PUSH1 0x20 PUSH1 0x40 MLOAD DUP1 DUP4 SUB DUP2 DUP7 GAS STATICCALL ISZERO DUP1 ISZERO PUSH2 0x1AD5 JUMPI RETURNDATASIZE PUSH1 0x0 DUP1 RETURNDATACOPY RETURNDATASIZE PUSH1 0x0 REVERT JUMPDEST POP POP POP POP PUSH1 0x40 MLOAD RETURNDATASIZE PUSH1 0x1F NOT PUSH1 0x1F DUP3 ADD AND DUP3 ADD DUP1 PUSH1 0x40 MSTORE POP DUP2 ADD SWAP1 PUSH2 0x1AF9 SWAP2 SWAP1 PUSH2 0x43DA JUMP JUMPDEST SWAP1 POP PUSH1 0x0 DUP1 PUSH1 0x0 PUSH2 0x1B08 PUSH2 0x2AA1 JUMP JUMPDEST SWAP3 POP SWAP3 POP SWAP3 POP PUSH1 0x0 PUSH32 0x0 PUSH1 0x1 PUSH1 0x1 PUSH1 0xA0 SHL SUB AND PUSH4 0x48439E7E PUSH1 0x40 MLOAD DUP2 PUSH4 0xFFFFFFFF AND PUSH1 0xE0 SHL DUP2 MSTORE PUSH1 0x4 ADD PUSH1 0x20 PUSH1 0x40 MLOAD DUP1 DUP4 SUB DUP2 DUP7 GAS STATICCALL ISZERO DUP1 ISZERO PUSH2 0x1B6E JUMPI RETURNDATASIZE PUSH1 0x0 DUP1 RETURNDATACOPY RETURNDATASIZE PUSH1 0x0 REVERT JUMPDEST POP POP POP POP PUSH1 0x40 MLOAD RETURNDATASIZE PUSH1 0x1F NOT PUSH1 0x1F DUP3 ADD AND DUP3 ADD DUP1 PUSH1 0x40 MSTORE POP DUP2 ADD SWAP1 PUSH2 0x1B92 SWAP2 SWAP1 PUSH2 0x4394 JUMP JUMPDEST PUSH1 0x1 SLOAD PUSH1 0x40 MLOAD PUSH4 0x7D2041E5 PUSH1 0xE1 SHL DUP2 MSTORE PUSH1 0x1 PUSH1 0x1 PUSH1 0xA0 SHL SUB SWAP2 DUP3 AND PUSH1 0x4 DUP3 ADD MSTORE DUP12 DUP3 AND PUSH1 0x24 DUP3 ADD MSTORE SWAP2 AND SWAP1 PUSH4 0xFA4083CA SWAP1 PUSH1 0x44 ADD PUSH1 0x20 PUSH1 0x40 MLOAD DUP1 DUP4 SUB DUP2 DUP7 GAS STATICCALL ISZERO DUP1 ISZERO PUSH2 0x1BE3 JUMPI RETURNDATASIZE PUSH1 0x0 DUP1 RETURNDATACOPY RETURNDATASIZE PUSH1 0x0 REVERT JUMPDEST POP POP POP POP PUSH1 0x40 MLOAD RETURNDATASIZE PUSH1 0x1F NOT PUSH1 0x1F DUP3 ADD AND DUP3 ADD DUP1 PUSH1 0x40 MSTORE POP DUP2 ADD SWAP1 PUSH2 0x1C07 SWAP2 SWAP1 PUSH2 0x43DA JUMP JUMPDEST SWAP1 POP PUSH2 0x1C1E DUP10 PUSH3 0x636E63 PUSH1 0xE8 SHL DUP5 DUP5 DUP10 PUSH1 0x0 PUSH2 0x2B40 JUMP JUMPDEST SWAP8 POP PUSH2 0x1C43 DUP10 PUSH3 0x31B93B PUSH1 0xE9 SHL DUP7 DUP5 DUP10 PUSH1 0x7 PUSH1 0x0 SWAP1 SLOAD SWAP1 PUSH2 0x100 EXP SWAP1 DIV PUSH1 0xFF AND PUSH2 0x2B40 JUMP JUMPDEST SWAP7 POP PUSH2 0x1C68 DUP10 PUSH3 0xC6ECF PUSH1 0xEB SHL DUP6 DUP5 DUP10 PUSH1 0x7 PUSH1 0x0 SWAP1 SLOAD SWAP1 PUSH2 0x100 EXP SWAP1 DIV PUSH1 0xFF AND PUSH2 0x2B40 JUMP JUMPDEST SWAP8 SWAP10 SWAP7 SWAP9 POP POP POP POP POP POP POP JUMP JUMPDEST PUSH2 0x1C7D PUSH2 0x59C JUMP JUMPDEST PUSH2 0x1081 JUMPI PUSH2 0x1081 PUSH2 0x24E2 JUMP JUMPDEST PUSH2 0x1C91 PUSH2 0x1EAE JUMP JUMPDEST PUSH1 0x1 PUSH1 0x1 PUSH1 0xA0 SHL SUB DUP2 AND PUSH2 0x1CF6 JUMPI PUSH1 0x40 MLOAD PUSH3 0x461BCD PUSH1 0xE5 SHL DUP2 MSTORE PUSH1 0x20 PUSH1 0x4 DUP3 ADD MSTORE PUSH1 0x26 PUSH1 0x24 DUP3 ADD MSTORE PUSH32 0x4F776E61626C653A206E6577206F776E657220697320746865207A65726F2061 PUSH1 0x44 DUP3 ADD MSTORE PUSH6 0x646472657373 PUSH1 0xD0 SHL PUSH1 0x64 DUP3 ADD MSTORE PUSH1 0x84 ADD PUSH2 0x4ED JUMP JUMPDEST PUSH2 0x136D DUP2 PUSH2 0x28DF JUMP JUMPDEST PUSH2 0x1D07 PUSH2 0x1EAE JUMP JUMPDEST PUSH1 0x0 JUMPDEST DUP2 MLOAD DUP2 LT ISZERO PUSH2 0x14B0 JUMPI PUSH2 0x1D35 DUP3 DUP3 DUP2 MLOAD DUP2 LT PUSH2 0x1D28 JUMPI PUSH2 0x1D28 PUSH2 0x4482 JUMP JUMPDEST PUSH1 0x20 MUL PUSH1 0x20 ADD ADD MLOAD PUSH2 0xB93 JUMP JUMPDEST POP DUP1 PUSH2 0x1D40 DUP2 PUSH2 0x4498 JUMP JUMPDEST SWAP2 POP POP PUSH2 0x1D0A JUMP JUMPDEST DUP1 ISZERO DUP1 PUSH2 0x1DC2 JUMPI POP PUSH1 0x40 MLOAD PUSH4 0x6EB1769F PUSH1 0xE1 SHL DUP2 MSTORE ADDRESS PUSH1 0x4 DUP3 ADD MSTORE PUSH1 0x1 PUSH1 0x1 PUSH1 0xA0 SHL SUB DUP4 DUP2 AND PUSH1 0x24 DUP4 ADD MSTORE DUP5 AND SWAP1 PUSH4 0xDD62ED3E SWAP1 PUSH1 0x44 ADD PUSH1 0x20 PUSH1 0x40 MLOAD DUP1 DUP4 SUB DUP2 DUP7 GAS STATICCALL ISZERO DUP1 ISZERO PUSH2 0x1D9C JUMPI RETURNDATASIZE PUSH1 0x0 DUP1 RETURNDATACOPY RETURNDATASIZE PUSH1 0x0 REVERT JUMPDEST POP POP POP POP PUSH1 0x40 MLOAD RETURNDATASIZE PUSH1 0x1F NOT PUSH1 0x1F DUP3 ADD AND DUP3 ADD DUP1 PUSH1 0x40 MSTORE POP DUP2 ADD SWAP1 PUSH2 0x1DC0 SWAP2 SWAP1 PUSH2 0x43DA JUMP JUMPDEST ISZERO JUMPDEST PUSH2 0x1E2D JUMPI PUSH1 0x40 MLOAD PUSH3 0x461BCD PUSH1 0xE5 SHL DUP2 MSTORE PUSH1 0x20 PUSH1 0x4 DUP3 ADD MSTORE PUSH1 0x36 PUSH1 0x24 DUP3 ADD MSTORE PUSH32 0x5361666545524332303A20617070726F76652066726F6D206E6F6E2D7A65726F PUSH1 0x44 DUP3 ADD MSTORE PUSH22 0x20746F206E6F6E2D7A65726F20616C6C6F77616E6365 PUSH1 0x50 SHL PUSH1 0x64 DUP3 ADD MSTORE PUSH1 0x84 ADD PUSH2 0x4ED JUMP JUMPDEST PUSH1 0x40 MLOAD PUSH1 0x1 PUSH1 0x1 PUSH1 0xA0 SHL SUB DUP4 AND PUSH1 0x24 DUP3 ADD MSTORE PUSH1 0x44 DUP2 ADD DUP3 SWAP1 MSTORE PUSH2 0x1E90 SWAP1 DUP5 SWAP1 PUSH4 0x95EA7B3 PUSH1 0xE0 SHL SWAP1 PUSH1 0x64 ADD JUMPDEST PUSH1 0x40 DUP1 MLOAD PUSH1 0x1F NOT DUP2 DUP5 SUB ADD DUP2 MSTORE SWAP2 SWAP1 MSTORE PUSH1 0x20 DUP2 ADD DUP1 MLOAD PUSH1 0x1 PUSH1 0x1 PUSH1 0xE0 SHL SUB AND PUSH1 0x1 PUSH1 0x1 PUSH1 0xE0 SHL SUB NOT SWAP1 SWAP4 AND SWAP3 SWAP1 SWAP3 OR SWAP1 SWAP2 MSTORE PUSH2 0x2C15 JUMP JUMPDEST POP POP POP JUMP JUMPDEST PUSH1 0x60 PUSH2 0x1EA4 DUP5 DUP5 PUSH1 0x0 DUP6 PUSH2 0x2CEA JUMP JUMPDEST SWAP1 POP JUMPDEST SWAP4 SWAP3 POP POP POP JUMP JUMPDEST PUSH1 0x0 SLOAD PUSH1 0x1 PUSH1 0x1 PUSH1 0xA0 SHL SUB AND CALLER EQ PUSH2 0x1081 JUMPI PUSH1 0x40 MLOAD PUSH3 0x461BCD PUSH1 0xE5 SHL DUP2 MSTORE PUSH1 0x20 PUSH1 0x4 DUP3 ADD DUP2 SWAP1 MSTORE PUSH1 0x24 DUP3 ADD MSTORE PUSH32 0x4F776E61626C653A2063616C6C6572206973206E6F7420746865206F776E6572 PUSH1 0x44 DUP3 ADD MSTORE PUSH1 0x64 ADD PUSH2 0x4ED JUMP JUMPDEST PUSH1 0x0 DUP1 PUSH1 0x0 PUSH2 0x1F2C PUSH1 0x40 MLOAD DUP1 PUSH1 0x40 ADD PUSH1 0x40 MSTORE DUP1 PUSH1 0x0 DUP2 MSTORE PUSH1 0x20 ADD PUSH1 0x0 ISZERO ISZERO DUP2 MSTORE POP SWAP1 JUMP JUMPDEST PUSH1 0x1 SLOAD PUSH1 0x40 DUP1 MLOAD PUSH4 0xC5C63E65 PUSH1 0xE0 SHL DUP2 MSTORE SWAP1 MLOAD PUSH1 0x0 SWAP3 PUSH1 0x1 PUSH1 0x1 PUSH1 0xA0 SHL SUB AND SWAP2 PUSH4 0xC5C63E65 SWAP2 PUSH1 0x4 DUP1 DUP4 ADD SWAP3 DUP7 SWAP3 SWAP2 SWAP1 DUP3 SWAP1 SUB ADD DUP2 DUP7 GAS STATICCALL ISZERO DUP1 ISZERO PUSH2 0x1F75 JUMPI RETURNDATASIZE PUSH1 0x0 DUP1 RETURNDATACOPY RETURNDATASIZE PUSH1 0x0 REVERT JUMPDEST POP POP POP POP PUSH1 0x40 MLOAD RETURNDATASIZE PUSH1 0x0 DUP3 RETURNDATACOPY PUSH1 0x1F RETURNDATASIZE SWAP1 DUP2 ADD PUSH1 0x1F NOT AND DUP3 ADD PUSH1 0x40 MSTORE PUSH2 0x1F9D SWAP2 SWAP1 DUP2 ADD SWAP1 PUSH2 0x43F3 JUMP JUMPDEST SWAP1 POP PUSH1 0x0 DUP1 JUMPDEST DUP3 MLOAD DUP2 LT ISZERO PUSH2 0x2125 JUMPI PUSH32 0x0 PUSH1 0x1 PUSH1 0x1 PUSH1 0xA0 SHL SUB AND PUSH4 0x55EB6B35 DUP5 DUP4 DUP2 MLOAD DUP2 LT PUSH2 0x1FED JUMPI PUSH2 0x1FED PUSH2 0x4482 JUMP JUMPDEST PUSH1 0x20 MUL PUSH1 0x20 ADD ADD MLOAD PUSH1 0x40 MLOAD DUP3 PUSH4 0xFFFFFFFF AND PUSH1 0xE0 SHL DUP2 MSTORE PUSH1 0x4 ADD PUSH2 0x2020 SWAP2 SWAP1 PUSH1 0x1 PUSH1 0x1 PUSH1 0xA0 SHL SUB SWAP2 SWAP1 SWAP2 AND DUP2 MSTORE PUSH1 0x20 ADD SWAP1 JUMP JUMPDEST PUSH1 0x20 PUSH1 0x40 MLOAD DUP1 DUP4 SUB DUP2 DUP7 GAS STATICCALL ISZERO DUP1 ISZERO PUSH2 0x203D JUMPI RETURNDATASIZE PUSH1 0x0 DUP1 RETURNDATACOPY RETURNDATASIZE PUSH1 0x0 REVERT JUMPDEST POP POP POP POP PUSH1 0x40 MLOAD RETURNDATASIZE PUSH1 0x1F NOT PUSH1 0x1F DUP3 ADD AND DUP3 ADD DUP1 PUSH1 0x40 MSTORE POP DUP2 ADD SWAP1 PUSH2 0x2061 SWAP2 SWAP1 PUSH2 0x4394 JUMP JUMPDEST PUSH1 0x1 SLOAD DUP5 MLOAD PUSH1 0x1 PUSH1 0x1 PUSH1 0xA0 SHL SUB SWAP3 DUP4 AND SWAP3 PUSH4 0xA775E15E SWAP3 AND SWAP1 DUP7 SWAP1 DUP6 SWAP1 DUP2 LT PUSH2 0x208C JUMPI PUSH2 0x208C PUSH2 0x4482 JUMP JUMPDEST PUSH1 0x20 MUL PUSH1 0x20 ADD ADD MLOAD PUSH1 0x40 MLOAD DUP4 PUSH4 0xFFFFFFFF AND PUSH1 0xE0 SHL DUP2 MSTORE PUSH1 0x4 ADD PUSH2 0x20C6 SWAP3 SWAP2 SWAP1 PUSH1 0x1 PUSH1 0x1 PUSH1 0xA0 SHL SUB SWAP3 DUP4 AND DUP2 MSTORE SWAP2 AND PUSH1 0x20 DUP3 ADD MSTORE PUSH1 0x40 ADD SWAP1 JUMP JUMPDEST PUSH1 0x20 PUSH1 0x40 MLOAD DUP1 DUP4 SUB DUP2 DUP7 GAS STATICCALL ISZERO DUP1 ISZERO PUSH2 0x20E3 JUMPI RETURNDATASIZE PUSH1 0x0 DUP1 RETURNDATACOPY RETURNDATASIZE PUSH1 0x0 REVERT JUMPDEST POP POP POP POP PUSH1 0x40 MLOAD RETURNDATASIZE PUSH1 0x1F NOT PUSH1 0x1F DUP3 ADD AND DUP3 ADD DUP1 PUSH1 0x40 MSTORE POP DUP2 ADD SWAP1 PUSH2 0x2107 SWAP2 SWAP1 PUSH2 0x43DA JUMP JUMPDEST PUSH2 0x2111 SWAP1 DUP4 PUSH2 0x44B1 JUMP JUMPDEST SWAP2 POP DUP1 PUSH2 0x211D DUP2 PUSH2 0x4498 JUMP JUMPDEST SWAP2 POP POP PUSH2 0x1FA3 JUMP JUMPDEST POP PUSH1 0x1 SLOAD PUSH1 0x40 MLOAD PUSH4 0x70A08231 PUSH1 0xE0 SHL DUP2 MSTORE PUSH1 0x1 PUSH1 0x1 PUSH1 0xA0 SHL SUB SWAP1 SWAP2 AND PUSH1 0x4 DUP3 ADD MSTORE DUP2 SWAP1 PUSH20 0xD533A949740BB3306D119CC777FA900BA034CD52 SWAP1 PUSH4 0x70A08231 SWAP1 PUSH1 0x24 ADD PUSH1 0x20 PUSH1 0x40 MLOAD DUP1 DUP4 SUB DUP2 DUP7 GAS STATICCALL ISZERO DUP1 ISZERO PUSH2 0x2184 JUMPI RETURNDATASIZE PUSH1 0x0 DUP1 RETURNDATACOPY RETURNDATASIZE PUSH1 0x0 REVERT JUMPDEST POP POP POP POP PUSH1 0x40 MLOAD RETURNDATASIZE PUSH1 0x1F NOT PUSH1 0x1F DUP3 ADD AND DUP3 ADD DUP1 PUSH1 0x40 MSTORE POP DUP2 ADD SWAP1 PUSH2 0x21A8 SWAP2 SWAP1 PUSH2 0x43DA JUMP JUMPDEST PUSH2 0x21B2 SWAP2 SWAP1 PUSH2 0x44B1 JUMP JUMPDEST PUSH1 0x40 MLOAD PUSH4 0x705E1E55 PUSH1 0xE0 SHL DUP2 MSTORE PUSH1 0x4 DUP2 ADD DUP4 SWAP1 MSTORE SWAP1 SWAP7 POP PUSH1 0x0 SWAP1 PUSH1 0x1 PUSH1 0x1 PUSH1 0xA0 SHL SUB DUP10 AND SWAP1 PUSH4 0x705E1E55 SWAP1 PUSH1 0x24 ADD PUSH1 0x60 PUSH1 0x40 MLOAD DUP1 DUP4 SUB DUP2 DUP7 GAS STATICCALL ISZERO DUP1 ISZERO PUSH2 0x21FD JUMPI RETURNDATASIZE PUSH1 0x0 DUP1 RETURNDATACOPY RETURNDATASIZE PUSH1 0x0 REVERT JUMPDEST POP POP POP POP PUSH1 0x40 MLOAD RETURNDATASIZE PUSH1 0x1F NOT PUSH1 0x1F DUP3 ADD AND DUP3 ADD DUP1 PUSH1 0x40 MSTORE POP DUP2 ADD SWAP1 PUSH2 0x2221 SWAP2 SWAP1 PUSH2 0x44D4 JUMP JUMPDEST PUSH1 0x1 SLOAD PUSH1 0x40 MLOAD PUSH4 0x70A08231 PUSH1 0xE0 SHL DUP2 MSTORE PUSH1 0x1 PUSH1 0x1 PUSH1 0xA0 SHL SUB SWAP1 SWAP2 AND PUSH1 0x4 DUP3 ADD MSTORE SWAP1 SWAP6 POP SWAP1 SWAP2 POP DUP2 SWAP1 PUSH20 0x4E3FBD56CD56C3E72C1403E103B45DB9DA5B9D2B SWAP1 PUSH4 0x70A08231 SWAP1 PUSH1 0x24 ADD PUSH1 0x20 PUSH1 0x40 MLOAD DUP1 DUP4 SUB DUP2 DUP7 GAS STATICCALL ISZERO DUP1 ISZERO PUSH2 0x2285 JUMPI RETURNDATASIZE PUSH1 0x0 DUP1 RETURNDATACOPY RETURNDATASIZE PUSH1 0x0 REVERT JUMPDEST POP POP POP POP PUSH1 0x40 MLOAD RETURNDATASIZE PUSH1 0x1F NOT PUSH1 0x1F DUP3 ADD AND DUP3 ADD DUP1 PUSH1 0x40 MSTORE POP DUP2 ADD SWAP1 PUSH2 0x22A9 SWAP2 SWAP1 PUSH2 0x43DA JUMP JUMPDEST PUSH2 0x22B3 SWAP2 SWAP1 PUSH2 0x44B1 JUMP JUMPDEST PUSH1 0x1 SLOAD PUSH1 0x40 MLOAD PUSH4 0x70A08231 PUSH1 0xE0 SHL DUP2 MSTORE PUSH1 0x1 PUSH1 0x1 PUSH1 0xA0 SHL SUB SWAP1 SWAP2 AND PUSH1 0x4 DUP3 ADD MSTORE SWAP1 SWAP7 POP PUSH20 0x9AE380F0272E2162340A5BB646C354271C0F5CFC SWAP1 PUSH4 0x70A08231 SWAP1 PUSH1 0x24 ADD PUSH1 0x20 PUSH1 0x40 MLOAD DUP1 DUP4 SUB DUP2 DUP7 GAS STATICCALL ISZERO DUP1 ISZERO PUSH2 0x2312 JUMPI RETURNDATASIZE PUSH1 0x0 DUP1 RETURNDATACOPY RETURNDATASIZE PUSH1 0x0 REVERT JUMPDEST POP POP POP POP PUSH1 0x40 MLOAD RETURNDATASIZE PUSH1 0x1F NOT PUSH1 0x1F DUP3 ADD AND DUP3 ADD DUP1 PUSH1 0x40 MSTORE POP DUP2 ADD SWAP1 PUSH2 0x2336 SWAP2 SWAP1 PUSH2 0x43DA JUMP JUMPDEST PUSH1 0x1 SLOAD SWAP1 SWAP6 POP PUSH1 0x1 PUSH1 0xA0 SHL SWAP1 DIV PUSH1 0xFF AND PUSH2 0x2446 JUMPI PUSH32 0x0 PUSH1 0x1 PUSH1 0x1 PUSH1 0xA0 SHL SUB AND PUSH4 0x48439E7E PUSH1 0x40 MLOAD DUP2 PUSH4 0xFFFFFFFF AND PUSH1 0xE0 SHL DUP2 MSTORE PUSH1 0x4 ADD PUSH1 0x20 PUSH1 0x40 MLOAD DUP1 DUP4 SUB DUP2 DUP7 GAS STATICCALL ISZERO DUP1 ISZERO PUSH2 0x23A8 JUMPI RETURNDATASIZE PUSH1 0x0 DUP1 RETURNDATACOPY RETURNDATASIZE PUSH1 0x0 REVERT JUMPDEST POP POP POP POP PUSH1 0x40 MLOAD RETURNDATASIZE PUSH1 0x1F NOT PUSH1 0x1F DUP3 ADD AND DUP3 ADD DUP1 PUSH1 0x40 MSTORE POP DUP2 ADD SWAP1 PUSH2 0x23CC SWAP2 SWAP1 PUSH2 0x4394 JUMP JUMPDEST PUSH1 0x1 SLOAD PUSH1 0x40 MLOAD PUSH4 0x34D21EA3 PUSH1 0xE2 SHL DUP2 MSTORE PUSH1 0x1 PUSH1 0x1 PUSH1 0xA0 SHL SUB SWAP2 DUP3 AND PUSH1 0x4 DUP3 ADD MSTORE SWAP2 AND SWAP1 PUSH4 0xD3487A8C SWAP1 PUSH1 0x24 ADD PUSH1 0x20 PUSH1 0x40 MLOAD DUP1 DUP4 SUB DUP2 DUP7 GAS STATICCALL ISZERO DUP1 ISZERO PUSH2 0x2415 JUMPI RETURNDATASIZE PUSH1 0x0 DUP1 RETURNDATACOPY RETURNDATASIZE PUSH1 0x0 REVERT JUMPDEST POP POP POP POP PUSH1 0x40 MLOAD RETURNDATASIZE PUSH1 0x1F NOT PUSH1 0x1F DUP3 ADD AND DUP3 ADD DUP1 PUSH1 0x40 MSTORE POP DUP2 ADD SWAP1 PUSH2 0x2439 SWAP2 SWAP1 PUSH2 0x43DA JUMP JUMPDEST PUSH2 0x2443 SWAP1 DUP7 PUSH2 0x44B1 JUMP JUMPDEST SWAP5 POP JUMPDEST POP POP POP SWAP2 SWAP4 POP SWAP2 SWAP4 JUMP JUMPDEST PUSH2 0x2458 PUSH2 0x24E2 JUMP JUMPDEST PUSH1 0x0 SWAP1 DUP2 MSTORE PUSH1 0x6 PUSH1 0x20 MSTORE PUSH1 0x40 SWAP1 KECCAK256 DUP1 SLOAD PUSH1 0xFF NOT AND PUSH1 0x1 OR SWAP1 SSTORE JUMP JUMPDEST PUSH1 0x0 PUSH2 0x2481 PUSH1 0x12 PUSH1 0xA PUSH2 0x462E JUMP JUMPDEST PUSH2 0x248B DUP4 DUP6 PUSH2 0x463A JUMP JUMPDEST PUSH2 0x2495 SWAP2 SWAP1 PUSH2 0x4651 JUMP JUMPDEST SWAP1 POP JUMPDEST SWAP3 SWAP2 POP POP JUMP JUMPDEST PUSH2 0x24A8 DUP3 DUP3 PUSH2 0x2DC7 JUMP JUMPDEST PUSH1 0x0 DUP6 DUP2 MSTORE PUSH1 0x5 PUSH1 0x20 MSTORE PUSH1 0x40 DUP2 KECCAK256 DUP1 SLOAD SWAP1 SWAP2 SWAP1 PUSH2 0x24C6 SWAP1 DUP5 SWAP1 PUSH2 0x44B1 JUMP JUMPDEST SWAP1 SWAP2 SSTORE POP POP POP PUSH1 0x0 SWAP3 DUP4 MSTORE POP PUSH1 0x5 PUSH1 0x20 MSTORE PUSH1 0x40 SWAP1 SWAP2 KECCAK256 PUSH1 0x1 ADD SSTORE JUMP JUMPDEST PUSH2 0x24EA PUSH2 0x2DE0 JUMP JUMPDEST PUSH1 0x1 SLOAD PUSH1 0x40 MLOAD PUSH4 0x70A08231 PUSH1 0xE0 SHL DUP2 MSTORE PUSH1 0x1 PUSH1 0x1 PUSH1 0xA0 SHL SUB SWAP1 SWAP2 AND PUSH1 0x4 DUP3 ADD MSTORE PUSH1 0x0 SWAP1 PUSH20 0x9AE380F0272E2162340A5BB646C354271C0F5CFC SWAP1 PUSH4 0x70A08231 SWAP1 PUSH1 0x24 ADD PUSH1 0x20 PUSH1 0x40 MLOAD DUP1 DUP4 SUB DUP2 DUP7 GAS STATICCALL ISZERO DUP1 ISZERO PUSH2 0x2549 JUMPI RETURNDATASIZE PUSH1 0x0 DUP1 RETURNDATACOPY RETURNDATASIZE PUSH1 0x0 REVERT JUMPDEST POP POP POP POP PUSH1 0x40 MLOAD RETURNDATASIZE PUSH1 0x1F NOT PUSH1 0x1F DUP3 ADD AND DUP3 ADD DUP1 PUSH1 0x40 MSTORE POP DUP2 ADD SWAP1 PUSH2 0x256D SWAP2 SWAP1 PUSH2 0x43DA JUMP JUMPDEST SWAP1 POP PUSH2 0x2577 PUSH2 0x3340 JUMP JUMPDEST PUSH1 0x1 SLOAD PUSH1 0x40 MLOAD PUSH4 0x70A08231 PUSH1 0xE0 SHL DUP2 MSTORE PUSH1 0x1 PUSH1 0x1 PUSH1 0xA0 SHL SUB SWAP1 SWAP2 AND PUSH1 0x4 DUP3 ADD MSTORE PUSH1 0x0 SWAP1 DUP3 SWAP1 PUSH20 0x9AE380F0272E2162340A5BB646C354271C0F5CFC SWAP1 PUSH4 0x70A08231 SWAP1 PUSH1 0x24 ADD PUSH1 0x20 PUSH1 0x40 MLOAD DUP1 DUP4 SUB DUP2 DUP7 GAS STATICCALL ISZERO DUP1 ISZERO PUSH2 0x25D8 JUMPI RETURNDATASIZE PUSH1 0x0 DUP1 RETURNDATACOPY RETURNDATASIZE PUSH1 0x0 REVERT JUMPDEST POP POP POP POP PUSH1 0x40 MLOAD RETURNDATASIZE PUSH1 0x1F NOT PUSH1 0x1F DUP3 ADD AND DUP3 ADD DUP1 PUSH1 0x40 MSTORE POP DUP2 ADD SWAP1 PUSH2 0x25FC SWAP2 SWAP1 PUSH2 0x43DA JUMP JUMPDEST PUSH2 0x2606 SWAP2 SWAP1 PUSH2 0x43C7 JUMP JUMPDEST SWAP1 POP PUSH1 0x0 PUSH32 0x0 PUSH1 0x1 PUSH1 0x1 PUSH1 0xA0 SHL SUB AND PUSH4 0x48439E7E PUSH1 0x40 MLOAD DUP2 PUSH4 0xFFFFFFFF AND PUSH1 0xE0 SHL DUP2 MSTORE PUSH1 0x4 ADD PUSH1 0x20 PUSH1 0x40 MLOAD DUP1 DUP4 SUB DUP2 DUP7 GAS STATICCALL ISZERO DUP1 ISZERO PUSH2 0x2668 JUMPI RETURNDATASIZE PUSH1 0x0 DUP1 RETURNDATACOPY RETURNDATASIZE PUSH1 0x0 REVERT JUMPDEST POP POP POP POP PUSH1 0x40 MLOAD RETURNDATASIZE PUSH1 0x1F NOT PUSH1 0x1F DUP3 ADD AND DUP3 ADD DUP1 PUSH1 0x40 MSTORE POP DUP2 ADD SWAP1 PUSH2 0x268C SWAP2 SWAP1 PUSH2 0x4394 JUMP JUMPDEST PUSH1 0x1 SLOAD PUSH1 0x40 MLOAD PUSH4 0x5598B209 PUSH1 0xE0 SHL DUP2 MSTORE PUSH1 0x1 PUSH1 0x1 PUSH1 0xA0 SHL SUB SWAP2 DUP3 AND PUSH1 0x4 DUP3 ADD MSTORE SWAP2 AND SWAP1 PUSH4 0x5598B209 SWAP1 PUSH1 0x24 ADD PUSH1 0x20 PUSH1 0x40 MLOAD DUP1 DUP4 SUB DUP2 DUP7 GAS STATICCALL ISZERO DUP1 ISZERO PUSH2 0x26D5 JUMPI RETURNDATASIZE PUSH1 0x0 DUP1 RETURNDATACOPY RETURNDATASIZE PUSH1 0x0 REVERT JUMPDEST POP POP POP POP PUSH1 0x40 MLOAD RETURNDATASIZE PUSH1 0x1F NOT PUSH1 0x1F DUP3 ADD AND DUP3 ADD DUP1 PUSH1 0x40 MSTORE POP DUP2 ADD SWAP1 PUSH2 0x26F9 SWAP2 SWAP1 PUSH2 0x43DA JUMP JUMPDEST SWAP1 POP PUSH1 0x0 DUP2 GT DUP1 ISZERO PUSH2 0x270B JUMPI POP PUSH1 0x0 DUP3 GT JUMPDEST ISZERO PUSH2 0x1E90 JUMPI PUSH2 0x271A DUP3 DUP3 PUSH2 0x2DC7 JUMP JUMPDEST PUSH3 0x636E63 PUSH1 0xE8 SHL PUSH1 0x0 SWAP1 DUP2 MSTORE PUSH1 0x5 PUSH1 0x20 MSTORE PUSH32 0x8CDA27973994B4C9CEF5FC6716A5EE96CC4ABE3353228D7FABF6C8BB342178AD DUP1 SLOAD SWAP1 SWAP2 SWAP1 PUSH2 0x275C SWAP1 DUP5 SWAP1 PUSH2 0x44B1 JUMP JUMPDEST SWAP1 SWAP2 SSTORE POP POP PUSH3 0x636E63 PUSH1 0xE8 SHL PUSH1 0x0 SWAP1 DUP2 MSTORE PUSH1 0x5 PUSH1 0x20 MSTORE PUSH1 0x0 DUP1 MLOAD PUSH1 0x20 PUSH2 0x489A DUP4 CODECOPY DUP2 MLOAD SWAP2 MSTORE DUP1 SLOAD DUP5 SWAP3 SWAP1 PUSH2 0x2791 SWAP1 DUP5 SWAP1 PUSH2 0x44B1 JUMP JUMPDEST SWAP1 SWAP2 SSTORE POP POP PUSH1 0x40 MLOAD DUP3 DUP2 MSTORE PUSH32 0xFC8ED0CD46874D9C3CF1425E1B3BBF9C523BC17C4A959C2C2F600E016F4EDDEF SWAP1 PUSH1 0x20 ADD PUSH1 0x40 MLOAD DUP1 SWAP2 SUB SWAP1 LOG1 POP POP POP JUMP JUMPDEST PUSH1 0x40 MLOAD PUSH1 0x1 PUSH1 0x1 PUSH1 0xA0 SHL SUB DUP1 DUP6 AND PUSH1 0x24 DUP4 ADD MSTORE DUP4 AND PUSH1 0x44 DUP3 ADD MSTORE PUSH1 0x64 DUP2 ADD DUP3 SWAP1 MSTORE PUSH2 0x2806 SWAP1 DUP6 SWAP1 PUSH4 0x23B872DD PUSH1 0xE0 SHL SWAP1 PUSH1 0x84 ADD PUSH2 0x1E59 JUMP JUMPDEST POP POP POP POP JUMP JUMPDEST PUSH1 0x40 DUP1 MLOAD PUSH1 0x1 PUSH1 0x1 PUSH1 0xA0 SHL SUB DUP5 AND PUSH1 0x24 DUP3 ADD MSTORE PUSH1 0x44 DUP1 DUP3 ADD DUP5 SWAP1 MSTORE DUP3 MLOAD DUP1 DUP4 SUB SWAP1 SWAP2 ADD DUP2 MSTORE PUSH1 0x64 SWAP1 SWAP2 ADD SWAP1 SWAP2 MSTORE PUSH1 0x20 DUP2 ADD DUP1 MLOAD PUSH1 0x1 PUSH1 0x1 PUSH1 0xE0 SHL SUB AND PUSH4 0x95EA7B3 PUSH1 0xE0 SHL OR SWAP1 MSTORE PUSH2 0x285D DUP5 DUP3 PUSH2 0x3437 JUMP JUMPDEST PUSH2 0x2806 JUMPI PUSH1 0x40 MLOAD PUSH1 0x1 PUSH1 0x1 PUSH1 0xA0 SHL SUB DUP5 AND PUSH1 0x24 DUP3 ADD MSTORE PUSH1 0x0 PUSH1 0x44 DUP3 ADD MSTORE PUSH2 0x2891 SWAP1 DUP6 SWAP1 PUSH4 0x95EA7B3 PUSH1 0xE0 SHL SWAP1 PUSH1 0x64 ADD PUSH2 0x1E59 JUMP JUMPDEST PUSH2 0x2806 DUP5 DUP3 PUSH2 0x2C15 JUMP JUMPDEST PUSH1 0x1 PUSH1 0x1 PUSH1 0xA0 SHL SUB DUP2 AND PUSH1 0x0 SWAP1 DUP2 MSTORE PUSH1 0x1 DUP4 ADD PUSH1 0x20 MSTORE PUSH1 0x40 DUP2 KECCAK256 SLOAD ISZERO ISZERO PUSH2 0x2495 JUMP JUMPDEST PUSH1 0x0 PUSH2 0x2495 DUP4 PUSH1 0x1 PUSH1 0x1 PUSH1 0xA0 SHL SUB DUP5 AND PUSH2 0x34DE JUMP JUMPDEST PUSH1 0x60 PUSH1 0x0 PUSH2 0x1EA7 DUP4 PUSH2 0x352D JUMP JUMPDEST PUSH1 0x0 DUP1 SLOAD PUSH1 0x1 PUSH1 0x1 PUSH1 0xA0 SHL SUB DUP4 DUP2 AND PUSH1 0x1 PUSH1 0x1 PUSH1 0xA0 SHL SUB NOT DUP4 AND DUP2 OR DUP5 SSTORE PUSH1 0x40 MLOAD SWAP2 SWAP1 SWAP3 AND SWAP3 DUP4 SWAP2 PUSH32 0x8BE0079C531659141344CD1FD0A4F28419497F9722A3DAAFE3B4186F6B6457E0 SWAP2 SWAP1 LOG3 POP POP JUMP JUMPDEST PUSH1 0x0 PUSH2 0x2495 DUP4 PUSH1 0x1 PUSH1 0x1 PUSH1 0xA0 SHL SUB DUP5 AND PUSH2 0x3589 JUMP JUMPDEST PUSH1 0x0 PUSH32 0x0 PUSH1 0x1 PUSH1 0x1 PUSH1 0xA0 SHL SUB AND PUSH4 0x48439E7E PUSH1 0x40 MLOAD DUP2 PUSH4 0xFFFFFFFF AND PUSH1 0xE0 SHL DUP2 MSTORE PUSH1 0x4 ADD PUSH1 0x20 PUSH1 0x40 MLOAD DUP1 DUP4 SUB DUP2 DUP7 GAS STATICCALL ISZERO DUP1 ISZERO PUSH2 0x29A4 JUMPI RETURNDATASIZE PUSH1 0x0 DUP1 RETURNDATACOPY RETURNDATASIZE PUSH1 0x0 REVERT JUMPDEST POP POP POP POP PUSH1 0x40 MLOAD RETURNDATASIZE PUSH1 0x1F NOT PUSH1 0x1F DUP3 ADD AND DUP3 ADD DUP1 PUSH1 0x40 MSTORE POP DUP2 ADD SWAP1 PUSH2 0x29C8 SWAP2 SWAP1 PUSH2 0x4394 JUMP JUMPDEST PUSH1 0x1 SLOAD PUSH1 0x40 MLOAD PUSH4 0x7D2041E5 PUSH1 0xE1 SHL DUP2 MSTORE PUSH1 0x1 PUSH1 0x1 PUSH1 0xA0 SHL SUB SWAP2 DUP3 AND PUSH1 0x4 DUP3 ADD MSTORE DUP5 DUP3 AND PUSH1 0x24 DUP3 ADD MSTORE SWAP2 AND SWAP1 PUSH4 0xFA4083CA SWAP1 PUSH1 0x44 ADD PUSH1 0x20 PUSH1 0x40 MLOAD DUP1 DUP4 SUB DUP2 DUP7 GAS STATICCALL ISZERO DUP1 ISZERO PUSH2 0x2A19 JUMPI RETURNDATASIZE PUSH1 0x0 DUP1 RETURNDATACOPY RETURNDATASIZE PUSH1 0x0 REVERT JUMPDEST POP POP POP POP PUSH1 0x40 MLOAD RETURNDATASIZE PUSH1 0x1F NOT PUSH1 0x1F DUP3 ADD AND DUP3 ADD DUP1 PUSH1 0x40 MSTORE POP DUP2 ADD SWAP1 PUSH2 0x2A3D SWAP2 SWAP1 PUSH2 0x43DA JUMP JUMPDEST SWAP1 POP PUSH2 0x2A47 PUSH2 0x59C JUMP JUMPDEST POP PUSH2 0x2A59 PUSH3 0x636E63 PUSH1 0xE8 SHL DUP4 DUP4 PUSH2 0x367C JUMP JUMPDEST PUSH2 0x2A6A PUSH3 0x31B93B PUSH1 0xE9 SHL DUP4 DUP4 PUSH2 0x367C JUMP JUMPDEST PUSH2 0x14B0 PUSH3 0xC6ECF PUSH1 0xEB SHL DUP4 DUP4 PUSH2 0x367C JUMP JUMPDEST PUSH1 0x0 PUSH2 0x2498 DUP3 SLOAD SWAP1 JUMP JUMPDEST PUSH1 0x0 DUP1 PUSH1 0x0 PUSH2 0x2A93 DUP5 PUSH2 0x1F08 JUMP JUMPDEST POP SWAP2 SWAP7 SWAP1 SWAP6 POP SWAP1 SWAP4 POP SWAP2 POP POP JUMP JUMPDEST PUSH1 0x0 DUP1 PUSH1 0x0 DUP1 PUSH32 0x0 PUSH1 0x1 PUSH1 0x1 PUSH1 0xA0 SHL SUB AND PUSH4 0xB050ECB8 PUSH1 0x40 MLOAD DUP2 PUSH4 0xFFFFFFFF AND PUSH1 0xE0 SHL DUP2 MSTORE PUSH1 0x4 ADD PUSH1 0x20 PUSH1 0x40 MLOAD DUP1 DUP4 SUB DUP2 DUP7 GAS STATICCALL ISZERO DUP1 ISZERO PUSH2 0x2B05 JUMPI RETURNDATASIZE PUSH1 0x0 DUP1 RETURNDATACOPY RETURNDATASIZE PUSH1 0x0 REVERT JUMPDEST POP POP POP POP PUSH1 0x40 MLOAD RETURNDATASIZE PUSH1 0x1F NOT PUSH1 0x1F DUP3 ADD AND DUP3 ADD DUP1 PUSH1 0x40 MSTORE POP DUP2 ADD SWAP1 PUSH2 0x2B29 SWAP2 SWAP1 PUSH2 0x4394 JUMP JUMPDEST SWAP1 POP PUSH2 0x2B34 DUP2 PUSH2 0x3717 JUMP JUMPDEST SWAP4 POP SWAP4 POP SWAP4 POP POP SWAP1 SWAP2 SWAP3 JUMP JUMPDEST PUSH1 0x0 DUP6 DUP2 MSTORE PUSH1 0x5 PUSH1 0x20 MSTORE PUSH1 0x40 DUP2 KECCAK256 DUP1 SLOAD DUP5 ISZERO PUSH2 0x2BB3 JUMPI DUP4 ISZERO PUSH2 0x2B9C JUMPI PUSH2 0x2B8B DUP6 PUSH2 0x2B85 PUSH1 0x8 SLOAD PUSH1 0x12 PUSH1 0xA PUSH2 0x2B74 SWAP2 SWAP1 PUSH2 0x462E JUMP JUMPDEST PUSH2 0x2B7E SWAP2 SWAP1 PUSH2 0x43C7 JUMP JUMPDEST DUP11 SWAP1 PUSH2 0x2473 JUMP JUMPDEST SWAP1 PUSH2 0x2DC7 JUMP JUMPDEST PUSH2 0x2B95 SWAP1 DUP3 PUSH2 0x44B1 JUMP JUMPDEST SWAP1 POP PUSH2 0x2BB3 JUMP JUMPDEST PUSH2 0x2BA6 DUP8 DUP7 PUSH2 0x2DC7 JUMP JUMPDEST PUSH2 0x2BB0 SWAP1 DUP3 PUSH2 0x44B1 JUMP JUMPDEST SWAP1 POP JUMPDEST PUSH1 0x1 PUSH1 0x1 PUSH1 0xA0 SHL SUB DUP10 AND PUSH1 0x0 SWAP1 DUP2 MSTORE PUSH1 0x2 DUP4 ADD PUSH1 0x20 MSTORE PUSH1 0x40 SWAP1 KECCAK256 SLOAD PUSH2 0x2BE3 SWAP1 PUSH2 0x2BDC SWAP1 DUP4 PUSH2 0x43C7 JUMP JUMPDEST DUP8 SWAP1 PUSH2 0x2473 JUMP JUMPDEST PUSH1 0x1 PUSH1 0x1 PUSH1 0xA0 SHL SUB DUP11 AND PUSH1 0x0 SWAP1 DUP2 MSTORE PUSH1 0x3 DUP5 ADD PUSH1 0x20 MSTORE PUSH1 0x40 SWAP1 KECCAK256 SLOAD PUSH2 0x2C08 SWAP2 SWAP1 PUSH2 0x44B1 JUMP JUMPDEST SWAP10 SWAP9 POP POP POP POP POP POP POP POP POP JUMP JUMPDEST PUSH1 0x0 PUSH2 0x2C6A DUP3 PUSH1 0x40 MLOAD DUP1 PUSH1 0x40 ADD PUSH1 0x40 MSTORE DUP1 PUSH1 0x20 DUP2 MSTORE PUSH1 0x20 ADD PUSH32 0x5361666545524332303A206C6F772D6C6576656C2063616C6C206661696C6564 DUP2 MSTORE POP DUP6 PUSH1 0x1 PUSH1 0x1 PUSH1 0xA0 SHL SUB AND PUSH2 0x1E95 SWAP1 SWAP3 SWAP2 SWAP1 PUSH4 0xFFFFFFFF AND JUMP JUMPDEST SWAP1 POP DUP1 MLOAD PUSH1 0x0 EQ DUP1 PUSH2 0x2C8B JUMPI POP DUP1 DUP1 PUSH1 0x20 ADD SWAP1 MLOAD DUP2 ADD SWAP1 PUSH2 0x2C8B SWAP2 SWAP1 PUSH2 0x4673 JUMP JUMPDEST PUSH2 0x1E90 JUMPI PUSH1 0x40 MLOAD PUSH3 0x461BCD PUSH1 0xE5 SHL DUP2 MSTORE PUSH1 0x20 PUSH1 0x4 DUP3 ADD MSTORE PUSH1 0x2A PUSH1 0x24 DUP3 ADD MSTORE PUSH32 0x5361666545524332303A204552433230206F7065726174696F6E20646964206E PUSH1 0x44 DUP3 ADD MSTORE PUSH10 0x1BDD081CDD58D8D95959 PUSH1 0xB2 SHL PUSH1 0x64 DUP3 ADD MSTORE PUSH1 0x84 ADD PUSH2 0x4ED JUMP JUMPDEST PUSH1 0x60 DUP3 SELFBALANCE LT ISZERO PUSH2 0x2D4B JUMPI PUSH1 0x40 MLOAD PUSH3 0x461BCD PUSH1 0xE5 SHL DUP2 MSTORE PUSH1 0x20 PUSH1 0x4 DUP3 ADD MSTORE PUSH1 0x26 PUSH1 0x24 DUP3 ADD MSTORE PUSH32 0x416464726573733A20696E73756666696369656E742062616C616E636520666F PUSH1 0x44 DUP3 ADD MSTORE PUSH6 0x1C8818D85B1B PUSH1 0xD2 SHL PUSH1 0x64 DUP3 ADD MSTORE PUSH1 0x84 ADD PUSH2 0x4ED JUMP JUMPDEST PUSH1 0x0 DUP1 DUP7 PUSH1 0x1 PUSH1 0x1 PUSH1 0xA0 SHL SUB AND DUP6 DUP8 PUSH1 0x40 MLOAD PUSH2 0x2D67 SWAP2 SWAP1 PUSH2 0x46B2 JUMP JUMPDEST PUSH1 0x0 PUSH1 0x40 MLOAD DUP1 DUP4 SUB DUP2 DUP6 DUP8 GAS CALL SWAP3 POP POP POP RETURNDATASIZE DUP1 PUSH1 0x0 DUP2 EQ PUSH2 0x2DA4 JUMPI PUSH1 0x40 MLOAD SWAP2 POP PUSH1 0x1F NOT PUSH1 0x3F RETURNDATASIZE ADD AND DUP3 ADD PUSH1 0x40 MSTORE RETURNDATASIZE DUP3 MSTORE RETURNDATASIZE PUSH1 0x0 PUSH1 0x20 DUP5 ADD RETURNDATACOPY PUSH2 0x2DA9 JUMP JUMPDEST PUSH1 0x60 SWAP2 POP JUMPDEST POP SWAP2 POP SWAP2 POP PUSH2 0x2DBA DUP8 DUP4 DUP4 DUP8 PUSH2 0x37CF JUMP JUMPDEST SWAP3 POP POP POP JUMPDEST SWAP5 SWAP4 POP POP POP POP JUMP JUMPDEST PUSH1 0x0 DUP2 PUSH2 0x2DD6 PUSH1 0x12 PUSH1 0xA PUSH2 0x462E JUMP JUMPDEST PUSH2 0x248B SWAP1 DUP6 PUSH2 0x463A JUMP JUMPDEST PUSH1 0x1 DUP1 SLOAD PUSH1 0xFF PUSH1 0xA0 SHL NOT AND PUSH1 0x1 PUSH1 0xA0 SHL OR SWAP1 SSTORE PUSH1 0x40 DUP1 MLOAD PUSH4 0x2421CF3F PUSH1 0xE1 SHL DUP2 MSTORE SWAP1 MLOAD PUSH1 0x1 PUSH1 0x1 PUSH1 0xA0 SHL SUB PUSH32 0x0 AND SWAP2 PUSH4 0x48439E7E SWAP2 PUSH1 0x4 DUP1 DUP4 ADD SWAP3 PUSH1 0x20 SWAP3 SWAP2 SWAP1 DUP3 SWAP1 SUB ADD DUP2 DUP7 GAS STATICCALL ISZERO DUP1 ISZERO PUSH2 0x2E58 JUMPI RETURNDATASIZE PUSH1 0x0 DUP1 RETURNDATACOPY RETURNDATASIZE PUSH1 0x0 REVERT JUMPDEST POP POP POP POP PUSH1 0x40 MLOAD RETURNDATASIZE PUSH1 0x1F NOT PUSH1 0x1F DUP3 ADD AND DUP3 ADD DUP1 PUSH1 0x40 MSTORE POP DUP2 ADD SWAP1 PUSH2 0x2E7C SWAP2 SWAP1 PUSH2 0x4394 JUMP JUMPDEST PUSH1 0x1 SLOAD PUSH1 0x40 MLOAD PUSH4 0xA0190C17 PUSH1 0xE0 SHL DUP2 MSTORE PUSH1 0x1 PUSH1 0x1 PUSH1 0xA0 SHL SUB SWAP2 DUP3 AND PUSH1 0x4 DUP3 ADD MSTORE SWAP2 AND SWAP1 PUSH4 0xA0190C17 SWAP1 PUSH1 0x24 ADD PUSH1 0x0 PUSH1 0x40 MLOAD DUP1 DUP4 SUB DUP2 PUSH1 0x0 DUP8 DUP1 EXTCODESIZE ISZERO DUP1 ISZERO PUSH2 0x2EC2 JUMPI PUSH1 0x0 DUP1 REVERT JUMPDEST POP GAS CALL ISZERO DUP1 ISZERO PUSH2 0x2ED6 JUMPI RETURNDATASIZE PUSH1 0x0 DUP1 RETURNDATACOPY RETURNDATASIZE PUSH1 0x0 REVERT JUMPDEST POP POP PUSH1 0x1 DUP1 SLOAD PUSH1 0xFF PUSH1 0xA0 SHL NOT DUP2 AND SWAP1 SWAP2 SSTORE PUSH1 0x40 MLOAD PUSH4 0x70A08231 PUSH1 0xE0 SHL DUP2 MSTORE PUSH1 0x1 PUSH1 0x1 PUSH1 0xA0 SHL SUB SWAP1 SWAP2 AND PUSH1 0x4 DUP3 ADD MSTORE PUSH1 0x0 SWAP3 POP PUSH20 0x4E3FBD56CD56C3E72C1403E103B45DB9DA5B9D2B SWAP2 POP PUSH4 0x70A08231 SWAP1 PUSH1 0x24 ADD PUSH1 0x20 PUSH1 0x40 MLOAD DUP1 DUP4 SUB DUP2 DUP7 GAS STATICCALL ISZERO DUP1 ISZERO PUSH2 0x2F45 JUMPI RETURNDATASIZE PUSH1 0x0 DUP1 RETURNDATACOPY RETURNDATASIZE PUSH1 0x0 REVERT JUMPDEST POP POP POP POP PUSH1 0x40 MLOAD RETURNDATASIZE PUSH1 0x1F NOT PUSH1 0x1F DUP3 ADD AND DUP3 ADD DUP1 PUSH1 0x40 MSTORE POP DUP2 ADD SWAP1 PUSH2 0x2F69 SWAP2 SWAP1 PUSH2 0x43DA JUMP JUMPDEST PUSH1 0x1 SLOAD PUSH1 0x40 MLOAD PUSH4 0x70A08231 PUSH1 0xE0 SHL DUP2 MSTORE PUSH1 0x1 PUSH1 0x1 PUSH1 0xA0 SHL SUB SWAP1 SWAP2 AND PUSH1 0x4 DUP3 ADD MSTORE SWAP1 SWAP2 POP PUSH1 0x0 SWAP1 PUSH20 0xD533A949740BB3306D119CC777FA900BA034CD52 SWAP1 PUSH4 0x70A08231 SWAP1 PUSH1 0x24 ADD PUSH1 0x20 PUSH1 0x40 MLOAD DUP1 DUP4 SUB DUP2 DUP7 GAS STATICCALL ISZERO DUP1 ISZERO PUSH2 0x2FCB JUMPI RETURNDATASIZE PUSH1 0x0 DUP1 RETURNDATACOPY RETURNDATASIZE PUSH1 0x0 REVERT JUMPDEST POP POP POP POP PUSH1 0x40 MLOAD RETURNDATASIZE PUSH1 0x1F NOT PUSH1 0x1F DUP3 ADD AND DUP3 ADD DUP1 PUSH1 0x40 MSTORE POP DUP2 ADD SWAP1 PUSH2 0x2FEF SWAP2 SWAP1 PUSH2 0x43DA JUMP JUMPDEST SWAP1 POP PUSH1 0x0 PUSH1 0x1 PUSH1 0x0 SWAP1 SLOAD SWAP1 PUSH2 0x100 EXP SWAP1 DIV PUSH1 0x1 PUSH1 0x1 PUSH1 0xA0 SHL SUB AND PUSH1 0x1 PUSH1 0x1 PUSH1 0xA0 SHL SUB AND PUSH4 0xC5C63E65 PUSH1 0x40 MLOAD DUP2 PUSH4 0xFFFFFFFF AND PUSH1 0xE0 SHL DUP2 MSTORE PUSH1 0x4 ADD PUSH1 0x0 PUSH1 0x40 MLOAD DUP1 DUP4 SUB DUP2 DUP7 GAS STATICCALL ISZERO DUP1 ISZERO PUSH2 0x3046 JUMPI RETURNDATASIZE PUSH1 0x0 DUP1 RETURNDATACOPY RETURNDATASIZE PUSH1 0x0 REVERT JUMPDEST POP POP POP POP PUSH1 0x40 MLOAD RETURNDATASIZE PUSH1 0x0 DUP3 RETURNDATACOPY PUSH1 0x1F RETURNDATASIZE SWAP1 DUP2 ADD PUSH1 0x1F NOT AND DUP3 ADD PUSH1 0x40 MSTORE PUSH2 0x306E SWAP2 SWAP1 DUP2 ADD SWAP1 PUSH2 0x43F3 JUMP JUMPDEST SWAP1 POP PUSH1 0x0 JUMPDEST DUP2 MLOAD DUP2 LT ISZERO PUSH2 0x31DB JUMPI PUSH32 0x0 PUSH1 0x1 PUSH1 0x1 PUSH1 0xA0 SHL SUB AND PUSH4 0x55EB6B35 DUP4 DUP4 DUP2 MLOAD DUP2 LT PUSH2 0x30BD JUMPI PUSH2 0x30BD PUSH2 0x4482 JUMP JUMPDEST PUSH1 0x20 MUL PUSH1 0x20 ADD ADD MLOAD PUSH1 0x40 MLOAD DUP3 PUSH4 0xFFFFFFFF AND PUSH1 0xE0 SHL DUP2 MSTORE PUSH1 0x4 ADD PUSH2 0x30F0 SWAP2 SWAP1 PUSH1 0x1 PUSH1 0x1 PUSH1 0xA0 SHL SUB SWAP2 SWAP1 SWAP2 AND DUP2 MSTORE PUSH1 0x20 ADD SWAP1 JUMP JUMPDEST PUSH1 0x20 PUSH1 0x40 MLOAD DUP1 DUP4 SUB DUP2 DUP7 GAS STATICCALL ISZERO DUP1 ISZERO PUSH2 0x310D JUMPI RETURNDATASIZE PUSH1 0x0 DUP1 RETURNDATACOPY RETURNDATASIZE PUSH1 0x0 REVERT JUMPDEST POP POP POP POP PUSH1 0x40 MLOAD RETURNDATASIZE PUSH1 0x1F NOT PUSH1 0x1F DUP3 ADD AND DUP3 ADD DUP1 PUSH1 0x40 MSTORE POP DUP2 ADD SWAP1 PUSH2 0x3131 SWAP2 SWAP1 PUSH2 0x4394 JUMP JUMPDEST PUSH1 0x1 SLOAD DUP4 MLOAD PUSH1 0x1 PUSH1 0x1 PUSH1 0xA0 SHL SUB SWAP3 DUP4 AND SWAP3 PUSH4 0x970DE381 SWAP3 AND SWAP1 DUP6 SWAP1 DUP6 SWAP1 DUP2 LT PUSH2 0x315C JUMPI PUSH2 0x315C PUSH2 0x4482 JUMP JUMPDEST PUSH1 0x20 MUL PUSH1 0x20 ADD ADD MLOAD PUSH1 0x40 MLOAD DUP4 PUSH4 0xFFFFFFFF AND PUSH1 0xE0 SHL DUP2 MSTORE PUSH1 0x4 ADD PUSH2 0x3196 SWAP3 SWAP2 SWAP1 PUSH1 0x1 PUSH1 0x1 PUSH1 0xA0 SHL SUB SWAP3 DUP4 AND DUP2 MSTORE SWAP2 AND PUSH1 0x20 DUP3 ADD MSTORE PUSH1 0x40 ADD SWAP1 JUMP JUMPDEST PUSH1 0x0 PUSH1 0x40 MLOAD DUP1 DUP4 SUB DUP2 PUSH1 0x0 DUP8 DUP1 EXTCODESIZE ISZERO DUP1 ISZERO PUSH2 0x31B0 JUMPI PUSH1 0x0 DUP1 REVERT JUMPDEST POP GAS CALL ISZERO DUP1 ISZERO PUSH2 0x31C4 JUMPI RETURNDATASIZE PUSH1 0x0 DUP1 RETURNDATACOPY RETURNDATASIZE PUSH1 0x0 REVERT JUMPDEST POP POP POP POP DUP1 DUP1 PUSH2 0x31D3 SWAP1 PUSH2 0x4498 JUMP JUMPDEST SWAP2 POP POP PUSH2 0x3073 JUMP JUMPDEST POP PUSH1 0x1 SLOAD PUSH1 0x40 MLOAD PUSH4 0x70A08231 PUSH1 0xE0 SHL DUP2 MSTORE PUSH1 0x1 PUSH1 0x1 PUSH1 0xA0 SHL SUB SWAP1 SWAP2 AND PUSH1 0x4 DUP3 ADD MSTORE PUSH1 0x0 SWAP1 DUP5 SWAP1 PUSH20 0x4E3FBD56CD56C3E72C1403E103B45DB9DA5B9D2B SWAP1 PUSH4 0x70A08231 SWAP1 PUSH1 0x24 ADD PUSH1 0x20 PUSH1 0x40 MLOAD DUP1 DUP4 SUB DUP2 DUP7 GAS STATICCALL ISZERO DUP1 ISZERO PUSH2 0x323D JUMPI RETURNDATASIZE PUSH1 0x0 DUP1 RETURNDATACOPY RETURNDATASIZE PUSH1 0x0 REVERT JUMPDEST POP POP POP POP PUSH1 0x40 MLOAD RETURNDATASIZE PUSH1 0x1F NOT PUSH1 0x1F DUP3 ADD AND DUP3 ADD DUP1 PUSH1 0x40 MSTORE POP DUP2 ADD SWAP1 PUSH2 0x3261 SWAP2 SWAP1 PUSH2 0x43DA JUMP JUMPDEST PUSH2 0x326B SWAP2 SWAP1 PUSH2 0x43C7 JUMP JUMPDEST PUSH1 0x1 SLOAD PUSH1 0x40 MLOAD PUSH4 0x70A08231 PUSH1 0xE0 SHL DUP2 MSTORE PUSH1 0x1 PUSH1 0x1 PUSH1 0xA0 SHL SUB SWAP1 SWAP2 AND PUSH1 0x4 DUP3 ADD MSTORE SWAP1 SWAP2 POP PUSH1 0x0 SWAP1 DUP5 SWAP1 PUSH20 0xD533A949740BB3306D119CC777FA900BA034CD52 SWAP1 PUSH4 0x70A08231 SWAP1 PUSH1 0x24 ADD PUSH1 0x20 PUSH1 0x40 MLOAD DUP1 DUP4 SUB DUP2 DUP7 GAS STATICCALL ISZERO DUP1 ISZERO PUSH2 0x32CF JUMPI RETURNDATASIZE PUSH1 0x0 DUP1 RETURNDATACOPY RETURNDATASIZE PUSH1 0x0 REVERT JUMPDEST POP POP POP POP PUSH1 0x40 MLOAD RETURNDATASIZE PUSH1 0x1F NOT PUSH1 0x1F DUP3 ADD AND DUP3 ADD DUP1 PUSH1 0x40 MSTORE POP DUP2 ADD SWAP1 PUSH2 0x32F3 SWAP2 SWAP1 PUSH2 0x43DA JUMP JUMPDEST PUSH2 0x32FD SWAP2 SWAP1 PUSH2 0x43C7 JUMP JUMPDEST PUSH1 0x40 DUP1 MLOAD DUP3 DUP2 MSTORE PUSH1 0x20 DUP2 ADD DUP6 SWAP1 MSTORE SWAP2 SWAP3 POP PUSH32 0x141D6E75554381BCC1326596E8010E6C432BB0988E14CA0310D85837A211D292 SWAP2 ADD PUSH1 0x40 MLOAD DUP1 SWAP2 SUB SWAP1 LOG1 POP POP POP POP POP JUMP JUMPDEST PUSH1 0x0 PUSH2 0x334C PUSH1 0x2 PUSH2 0x2A7B JUMP JUMPDEST SWAP1 POP DUP1 PUSH1 0x0 SUB PUSH2 0x3359 JUMPI POP JUMP JUMPDEST PUSH1 0x0 JUMPDEST DUP2 DUP2 LT ISZERO PUSH2 0x342E JUMPI PUSH1 0x1 SLOAD PUSH2 0x3409 SWAP1 PUSH1 0x1 PUSH1 0x1 PUSH1 0xA0 SHL SUB AND ADDRESS PUSH2 0x3380 PUSH1 0x2 DUP6 PUSH2 0x3848 JUMP JUMPDEST PUSH1 0x1 SLOAD PUSH1 0x40 MLOAD PUSH4 0x70A08231 PUSH1 0xE0 SHL DUP2 MSTORE PUSH1 0x1 PUSH1 0x1 PUSH1 0xA0 SHL SUB SWAP2 DUP3 AND PUSH1 0x4 DUP3 ADD MSTORE SWAP2 AND SWAP1 PUSH4 0x70A08231 SWAP1 PUSH1 0x24 ADD PUSH1 0x20 PUSH1 0x40 MLOAD DUP1 DUP4 SUB DUP2 DUP7 GAS STATICCALL ISZERO DUP1 ISZERO PUSH2 0x33C9 JUMPI RETURNDATASIZE PUSH1 0x0 DUP1 RETURNDATACOPY RETURNDATASIZE PUSH1 0x0 REVERT JUMPDEST POP POP POP POP PUSH1 0x40 MLOAD RETURNDATASIZE PUSH1 0x1F NOT PUSH1 0x1F DUP3 ADD AND DUP3 ADD DUP1 PUSH1 0x40 MSTORE POP DUP2 ADD SWAP1 PUSH2 0x33ED SWAP2 SWAP1 PUSH2 0x43DA JUMP JUMPDEST PUSH2 0x33F8 PUSH1 0x2 DUP7 PUSH2 0x3848 JUMP JUMPDEST PUSH1 0x1 PUSH1 0x1 PUSH1 0xA0 SHL SUB AND SWAP3 SWAP2 SWAP1 PUSH2 0x27CE JUMP JUMPDEST PUSH2 0x341C PUSH2 0x3417 PUSH1 0x2 DUP4 PUSH2 0x3848 JUMP JUMPDEST PUSH2 0x3854 JUMP JUMPDEST DUP1 PUSH2 0x3426 DUP2 PUSH2 0x4498 JUMP JUMPDEST SWAP2 POP POP PUSH2 0x335C JUMP JUMPDEST POP PUSH2 0x136D PUSH2 0x3C1A JUMP JUMPDEST PUSH1 0x0 DUP1 PUSH1 0x0 DUP5 PUSH1 0x1 PUSH1 0x1 PUSH1 0xA0 SHL SUB AND DUP5 PUSH1 0x40 MLOAD PUSH2 0x3454 SWAP2 SWAP1 PUSH2 0x46B2 JUMP JUMPDEST PUSH1 0x0 PUSH1 0x40 MLOAD DUP1 DUP4 SUB DUP2 PUSH1 0x0 DUP7 GAS CALL SWAP2 POP POP RETURNDATASIZE DUP1 PUSH1 0x0 DUP2 EQ PUSH2 0x3491 JUMPI PUSH1 0x40 MLOAD SWAP2 POP PUSH1 0x1F NOT PUSH1 0x3F RETURNDATASIZE ADD AND DUP3 ADD PUSH1 0x40 MSTORE RETURNDATASIZE DUP3 MSTORE RETURNDATASIZE PUSH1 0x0 PUSH1 0x20 DUP5 ADD RETURNDATACOPY PUSH2 0x3496 JUMP JUMPDEST PUSH1 0x60 SWAP2 POP JUMPDEST POP SWAP2 POP SWAP2 POP DUP2 DUP1 ISZERO PUSH2 0x34C0 JUMPI POP DUP1 MLOAD ISZERO DUP1 PUSH2 0x34C0 JUMPI POP DUP1 DUP1 PUSH1 0x20 ADD SWAP1 MLOAD DUP2 ADD SWAP1 PUSH2 0x34C0 SWAP2 SWAP1 PUSH2 0x4673 JUMP JUMPDEST DUP1 ISZERO PUSH2 0x34D5 JUMPI POP PUSH1 0x1 PUSH1 0x1 PUSH1 0xA0 SHL SUB DUP6 AND EXTCODESIZE ISZERO ISZERO JUMPDEST SWAP6 SWAP5 POP POP POP POP POP JUMP JUMPDEST PUSH1 0x0 DUP2 DUP2 MSTORE PUSH1 0x1 DUP4 ADD PUSH1 0x20 MSTORE PUSH1 0x40 DUP2 KECCAK256 SLOAD PUSH2 0x3525 JUMPI POP DUP2 SLOAD PUSH1 0x1 DUP2 DUP2 ADD DUP5 SSTORE PUSH1 0x0 DUP5 DUP2 MSTORE PUSH1 0x20 DUP1 DUP3 KECCAK256 SWAP1 SWAP4 ADD DUP5 SWAP1 SSTORE DUP5 SLOAD DUP5 DUP3 MSTORE DUP3 DUP7 ADD SWAP1 SWAP4 MSTORE PUSH1 0x40 SWAP1 KECCAK256 SWAP2 SWAP1 SWAP2 SSTORE PUSH2 0x2498 JUMP JUMPDEST POP PUSH1 0x0 PUSH2 0x2498 JUMP JUMPDEST PUSH1 0x60 DUP2 PUSH1 0x0 ADD DUP1 SLOAD DUP1 PUSH1 0x20 MUL PUSH1 0x20 ADD PUSH1 0x40 MLOAD SWAP1 DUP2 ADD PUSH1 0x40 MSTORE DUP1 SWAP3 SWAP2 SWAP1 DUP2 DUP2 MSTORE PUSH1 0x20 ADD DUP3 DUP1 SLOAD DUP1 ISZERO PUSH2 0x357D JUMPI PUSH1 0x20 MUL DUP3 ADD SWAP2 SWAP1 PUSH1 0x0 MSTORE PUSH1 0x20 PUSH1 0x0 KECCAK256 SWAP1 JUMPDEST DUP2 SLOAD DUP2 MSTORE PUSH1 0x20 ADD SWAP1 PUSH1 0x1 ADD SWAP1 DUP1 DUP4 GT PUSH2 0x3569 JUMPI JUMPDEST POP POP POP POP POP SWAP1 POP SWAP2 SWAP1 POP JUMP JUMPDEST PUSH1 0x0 DUP2 DUP2 MSTORE PUSH1 0x1 DUP4 ADD PUSH1 0x20 MSTORE PUSH1 0x40 DUP2 KECCAK256 SLOAD DUP1 ISZERO PUSH2 0x3672 JUMPI PUSH1 0x0 PUSH2 0x35AD PUSH1 0x1 DUP4 PUSH2 0x43C7 JUMP JUMPDEST DUP6 SLOAD SWAP1 SWAP2 POP PUSH1 0x0 SWAP1 PUSH2 0x35C1 SWAP1 PUSH1 0x1 SWAP1 PUSH2 0x43C7 JUMP JUMPDEST SWAP1 POP DUP2 DUP2 EQ PUSH2 0x3626 JUMPI PUSH1 0x0 DUP7 PUSH1 0x0 ADD DUP3 DUP2 SLOAD DUP2 LT PUSH2 0x35E1 JUMPI PUSH2 0x35E1 PUSH2 0x4482 JUMP JUMPDEST SWAP1 PUSH1 0x0 MSTORE PUSH1 0x20 PUSH1 0x0 KECCAK256 ADD SLOAD SWAP1 POP DUP1 DUP8 PUSH1 0x0 ADD DUP5 DUP2 SLOAD DUP2 LT PUSH2 0x3604 JUMPI PUSH2 0x3604 PUSH2 0x4482 JUMP JUMPDEST PUSH1 0x0 SWAP2 DUP3 MSTORE PUSH1 0x20 DUP1 DUP4 KECCAK256 SWAP1 SWAP2 ADD SWAP3 SWAP1 SWAP3 SSTORE SWAP2 DUP3 MSTORE PUSH1 0x1 DUP9 ADD SWAP1 MSTORE PUSH1 0x40 SWAP1 KECCAK256 DUP4 SWAP1 SSTORE JUMPDEST DUP6 SLOAD DUP7 SWAP1 DUP1 PUSH2 0x3637 JUMPI PUSH2 0x3637 PUSH2 0x46CE JUMP JUMPDEST PUSH1 0x1 SWAP1 SUB DUP2 DUP2 SWAP1 PUSH1 0x0 MSTORE PUSH1 0x20 PUSH1 0x0 KECCAK256 ADD PUSH1 0x0 SWAP1 SSTORE SWAP1 SSTORE DUP6 PUSH1 0x1 ADD PUSH1 0x0 DUP7 DUP2 MSTORE PUSH1 0x20 ADD SWAP1 DUP2 MSTORE PUSH1 0x20 ADD PUSH1 0x0 KECCAK256 PUSH1 0x0 SWAP1 SSTORE PUSH1 0x1 SWAP4 POP POP POP POP PUSH2 0x2498 JUMP JUMPDEST PUSH1 0x0 SWAP2 POP POP PUSH2 0x2498 JUMP JUMPDEST PUSH1 0x0 DUP4 DUP2 MSTORE PUSH1 0x5 PUSH1 0x20 SWAP1 DUP2 MSTORE PUSH1 0x40 DUP1 DUP4 KECCAK256 PUSH1 0x1 PUSH1 0x1 PUSH1 0xA0 SHL SUB DUP7 AND DUP5 MSTORE PUSH1 0x2 DUP2 ADD SWAP1 SWAP3 MSTORE DUP3 KECCAK256 SLOAD DUP2 SLOAD SWAP2 SWAP3 SWAP2 PUSH2 0x36BC SWAP2 PUSH2 0x36B5 SWAP2 PUSH2 0x43C7 JUMP JUMPDEST DUP5 SWAP1 PUSH2 0x2473 JUMP JUMPDEST PUSH1 0x1 PUSH1 0x1 PUSH1 0xA0 SHL SUB DUP6 AND PUSH1 0x0 SWAP1 DUP2 MSTORE PUSH1 0x3 DUP5 ADD PUSH1 0x20 MSTORE PUSH1 0x40 DUP2 KECCAK256 DUP1 SLOAD SWAP3 SWAP4 POP DUP4 SWAP3 SWAP1 SWAP2 SWAP1 PUSH2 0x36EB SWAP1 DUP5 SWAP1 PUSH2 0x44B1 JUMP JUMPDEST SWAP1 SWAP2 SSTORE POP POP DUP2 SLOAD PUSH1 0x1 PUSH1 0x1 PUSH1 0xA0 SHL SUB SWAP1 SWAP5 AND PUSH1 0x0 SWAP1 DUP2 MSTORE PUSH1 0x2 SWAP1 SWAP3 ADD PUSH1 0x20 MSTORE POP PUSH1 0x40 SWAP1 KECCAK256 SWAP2 SWAP1 SWAP2 SSTORE POP POP JUMP JUMPDEST PUSH1 0x0 DUP1 PUSH1 0x0 DUP1 PUSH1 0x0 DUP1 PUSH2 0x3729 DUP8 PUSH2 0x2A85 JUMP JUMPDEST PUSH3 0x31B93B PUSH1 0xE9 SHL PUSH1 0x0 MSTORE PUSH1 0x5 PUSH1 0x20 MSTORE PUSH32 0xAF8CF1498B7428D6C04C3D3FB7125FA218AD2FAF2F4F7F7E26309929A16DFCD1 SLOAD SWAP3 SWAP6 POP SWAP1 SWAP4 POP SWAP2 POP PUSH2 0x376C SWAP1 DUP5 PUSH2 0x43C7 JUMP JUMPDEST PUSH3 0xC6ECF PUSH1 0xEB SHL PUSH1 0x0 MSTORE PUSH1 0x5 PUSH1 0x20 MSTORE PUSH1 0x0 DUP1 MLOAD PUSH1 0x20 PUSH2 0x487A DUP4 CODECOPY DUP2 MLOAD SWAP2 MSTORE SLOAD SWAP1 SWAP7 POP PUSH2 0x3798 SWAP1 DUP4 PUSH2 0x43C7 JUMP JUMPDEST PUSH3 0x636E63 PUSH1 0xE8 SHL PUSH1 0x0 MSTORE PUSH1 0x5 PUSH1 0x20 MSTORE PUSH1 0x0 DUP1 MLOAD PUSH1 0x20 PUSH2 0x489A DUP4 CODECOPY DUP2 MLOAD SWAP2 MSTORE SLOAD SWAP1 SWAP6 POP PUSH2 0x37C4 SWAP1 DUP3 PUSH2 0x43C7 JUMP JUMPDEST SWAP6 SWAP8 SWAP5 SWAP7 POP POP POP POP POP JUMP JUMPDEST PUSH1 0x60 DUP4 ISZERO PUSH2 0x383E JUMPI DUP3 MLOAD PUSH1 0x0 SUB PUSH2 0x3837 JUMPI PUSH1 0x1 PUSH1 0x1 PUSH1 0xA0 SHL SUB DUP6 AND EXTCODESIZE PUSH2 0x3837 JUMPI PUSH1 0x40 MLOAD PUSH3 0x461BCD PUSH1 0xE5 SHL DUP2 MSTORE PUSH1 0x20 PUSH1 0x4 DUP3 ADD MSTORE PUSH1 0x1D PUSH1 0x24 DUP3 ADD MSTORE PUSH32 0x416464726573733A2063616C6C20746F206E6F6E2D636F6E7472616374000000 PUSH1 0x44 DUP3 ADD MSTORE PUSH1 0x64 ADD PUSH2 0x4ED JUMP JUMPDEST POP DUP2 PUSH2 0x2DBF JUMP JUMPDEST PUSH2 0x2DBF DUP4 DUP4 PUSH2 0x3D7E JUMP JUMPDEST PUSH1 0x0 PUSH2 0x2495 DUP4 DUP4 PUSH2 0x3DA8 JUMP JUMPDEST PUSH1 0x40 MLOAD PUSH4 0x70A08231 PUSH1 0xE0 SHL DUP2 MSTORE ADDRESS PUSH1 0x4 DUP3 ADD MSTORE PUSH1 0x0 SWAP1 PUSH1 0x1 PUSH1 0x1 PUSH1 0xA0 SHL SUB DUP4 AND SWAP1 PUSH4 0x70A08231 SWAP1 PUSH1 0x24 ADD PUSH1 0x20 PUSH1 0x40 MLOAD DUP1 DUP4 SUB DUP2 DUP7 GAS STATICCALL ISZERO DUP1 ISZERO PUSH2 0x389B JUMPI RETURNDATASIZE PUSH1 0x0 DUP1 RETURNDATACOPY RETURNDATASIZE PUSH1 0x0 REVERT JUMPDEST POP POP POP POP PUSH1 0x40 MLOAD RETURNDATASIZE PUSH1 0x1F NOT PUSH1 0x1F DUP3 ADD AND DUP3 ADD DUP1 PUSH1 0x40 MSTORE POP DUP2 ADD SWAP1 PUSH2 0x38BF SWAP2 SWAP1 PUSH2 0x43DA JUMP JUMPDEST SWAP1 POP DUP1 PUSH1 0x0 SUB PUSH2 0x38CD JUMPI POP POP JUMP JUMPDEST PUSH1 0x1 PUSH1 0x1 PUSH1 0xA0 SHL SUB DUP1 DUP4 AND PUSH1 0x0 SWAP1 DUP2 MSTORE PUSH1 0x4 PUSH1 0x20 MSTORE PUSH1 0x40 SWAP1 KECCAK256 SLOAD AND DUP1 ISZERO PUSH2 0x3ADA JUMPI PUSH1 0x0 DUP1 PUSH32 0x0 PUSH1 0x1 PUSH1 0x1 PUSH1 0xA0 SHL SUB AND PUSH4 0x9F82B217 PUSH1 0x40 MLOAD DUP2 PUSH4 0xFFFFFFFF AND PUSH1 0xE0 SHL DUP2 MSTORE PUSH1 0x4 ADD PUSH1 0x20 PUSH1 0x40 MLOAD DUP1 DUP4 SUB DUP2 DUP7 GAS STATICCALL ISZERO DUP1 ISZERO PUSH2 0x394F JUMPI RETURNDATASIZE PUSH1 0x0 DUP1 RETURNDATACOPY RETURNDATASIZE PUSH1 0x0 REVERT JUMPDEST POP POP POP POP PUSH1 0x40 MLOAD RETURNDATASIZE PUSH1 0x1F NOT PUSH1 0x1F DUP3 ADD AND DUP3 ADD DUP1 PUSH1 0x40 MSTORE POP DUP2 ADD SWAP1 PUSH2 0x3973 SWAP2 SWAP1 PUSH2 0x4394 JUMP JUMPDEST PUSH1 0x40 MLOAD PUSH4 0x2FEAAC85 PUSH1 0xE1 SHL DUP2 MSTORE PUSH1 0x1 PUSH1 0x1 PUSH1 0xA0 SHL SUB DUP6 DUP2 AND PUSH1 0x4 DUP4 ADD MSTORE DUP8 DUP2 AND PUSH1 0x24 DUP4 ADD MSTORE PUSH20 0xC02AAA39B223FE8D0A0E5C4F27EAD9083C756CC2 PUSH1 0x44 DUP4 ADD MSTORE SWAP2 SWAP1 SWAP2 AND SWAP1 PUSH4 0x5FD5590A SWAP1 PUSH1 0x64 ADD PUSH1 0x60 PUSH1 0x40 MLOAD DUP1 DUP4 SUB DUP2 DUP7 GAS STATICCALL ISZERO DUP1 ISZERO PUSH2 0x39DD JUMPI RETURNDATASIZE PUSH1 0x0 DUP1 RETURNDATACOPY RETURNDATASIZE PUSH1 0x0 REVERT JUMPDEST POP POP POP POP PUSH1 0x40 MLOAD RETURNDATASIZE PUSH1 0x1F NOT PUSH1 0x1F DUP3 ADD AND DUP3 ADD DUP1 PUSH1 0x40 MSTORE POP DUP2 ADD SWAP1 PUSH2 0x3A01 SWAP2 SWAP1 PUSH2 0x46F6 JUMP JUMPDEST POP SWAP1 SWAP3 POP SWAP1 POP PUSH16 0xFFFFFFFFFFFFFFFFFFFFFFFFFFFFFFFF DUP1 DUP4 AND SWAP1 DUP3 AND PUSH1 0x1 PUSH1 0x1 PUSH1 0xA0 SHL SUB DUP6 AND PUSH4 0xCE7D6503 DUP4 DUP4 DUP10 PUSH2 0x3A4F DUP13 PUSH20 0xC02AAA39B223FE8D0A0E5C4F27EAD9083C756CC2 DUP4 PUSH2 0x3DD2 JUMP JUMPDEST PUSH1 0x40 MLOAD PUSH1 0x1 PUSH1 0x1 PUSH1 0xE0 SHL SUB NOT PUSH1 0xE0 DUP8 SWAP1 SHL AND DUP2 MSTORE PUSH1 0x4 DUP2 ADD SWAP5 SWAP1 SWAP5 MSTORE PUSH1 0x24 DUP5 ADD SWAP3 SWAP1 SWAP3 MSTORE PUSH1 0x44 DUP4 ADD MSTORE PUSH1 0x64 DUP3 ADD MSTORE PUSH1 0x0 PUSH1 0x84 DUP3 ADD MSTORE ADDRESS PUSH1 0xA4 DUP3 ADD MSTORE PUSH1 0xC4 ADD PUSH1 0x20 PUSH1 0x40 MLOAD DUP1 DUP4 SUB DUP2 PUSH1 0x0 DUP8 GAS CALL ISZERO DUP1 ISZERO PUSH2 0x3AAC JUMPI RETURNDATASIZE PUSH1 0x0 DUP1 RETURNDATACOPY RETURNDATASIZE PUSH1 0x0 REVERT JUMPDEST POP POP POP POP PUSH1 0x40 MLOAD RETURNDATASIZE PUSH1 0x1F NOT PUSH1 0x1F DUP3 ADD AND DUP3 ADD DUP1 PUSH1 0x40 MSTORE POP DUP2 ADD SWAP1 PUSH2 0x3AD0 SWAP2 SWAP1 PUSH2 0x43DA JUMP JUMPDEST POP POP POP POP POP POP POP POP JUMP JUMPDEST PUSH1 0x40 DUP1 MLOAD PUSH1 0x2 DUP1 DUP3 MSTORE PUSH1 0x60 DUP3 ADD DUP4 MSTORE PUSH1 0x0 SWAP3 PUSH1 0x20 DUP4 ADD SWAP1 DUP1 CALLDATASIZE DUP4 CALLDATACOPY ADD SWAP1 POP POP SWAP1 POP DUP4 DUP2 PUSH1 0x0 DUP2 MLOAD DUP2 LT PUSH2 0x3B0F JUMPI PUSH2 0x3B0F PUSH2 0x4482 JUMP JUMPDEST PUSH1 0x20 MUL PUSH1 0x20 ADD ADD SWAP1 PUSH1 0x1 PUSH1 0x1 PUSH1 0xA0 SHL SUB AND SWAP1 DUP2 PUSH1 0x1 PUSH1 0x1 PUSH1 0xA0 SHL SUB AND DUP2 MSTORE POP POP PUSH20 0xC02AAA39B223FE8D0A0E5C4F27EAD9083C756CC2 DUP2 PUSH1 0x1 DUP2 MLOAD DUP2 LT PUSH2 0x3B57 JUMPI PUSH2 0x3B57 PUSH2 0x4482 JUMP JUMPDEST PUSH1 0x1 PUSH1 0x1 PUSH1 0xA0 SHL SUB SWAP1 SWAP3 AND PUSH1 0x20 SWAP3 DUP4 MUL SWAP2 SWAP1 SWAP2 ADD SWAP1 SWAP2 ADD MSTORE PUSH20 0xD9E1CE17F2641F24AE83637AB66A2CCA9C378B9F PUSH4 0x38ED1739 DUP5 PUSH2 0x3BA9 DUP8 PUSH20 0xC02AAA39B223FE8D0A0E5C4F27EAD9083C756CC2 DUP4 PUSH2 0x3DD2 JUMP JUMPDEST DUP5 ADDRESS TIMESTAMP PUSH1 0x40 MLOAD DUP7 PUSH4 0xFFFFFFFF AND PUSH1 0xE0 SHL DUP2 MSTORE PUSH1 0x4 ADD PUSH2 0x3BCC SWAP6 SWAP5 SWAP4 SWAP3 SWAP2 SWAP1 PUSH2 0x4739 JUMP JUMPDEST PUSH1 0x0 PUSH1 0x40 MLOAD DUP1 DUP4 SUB DUP2 PUSH1 0x0 DUP8 GAS CALL ISZERO DUP1 ISZERO PUSH2 0x3BEB JUMPI RETURNDATASIZE PUSH1 0x0 DUP1 RETURNDATACOPY RETURNDATASIZE PUSH1 0x0 REVERT JUMPDEST POP POP POP POP PUSH1 0x40 MLOAD RETURNDATASIZE PUSH1 0x0 DUP3 RETURNDATACOPY PUSH1 0x1F RETURNDATASIZE SWAP1 DUP2 ADD PUSH1 0x1F NOT AND DUP3 ADD PUSH1 0x40 MSTORE PUSH2 0x3C13 SWAP2 SWAP1 DUP2 ADD SWAP1 PUSH2 0x4775 JUMP JUMPDEST POP POP POP POP POP JUMP JUMPDEST PUSH1 0x40 MLOAD PUSH4 0x70A08231 PUSH1 0xE0 SHL DUP2 MSTORE ADDRESS PUSH1 0x4 DUP3 ADD MSTORE PUSH1 0x0 SWAP1 PUSH20 0xC02AAA39B223FE8D0A0E5C4F27EAD9083C756CC2 SWAP1 PUSH4 0x70A08231 SWAP1 PUSH1 0x24 ADD PUSH1 0x20 PUSH1 0x40 MLOAD DUP1 DUP4 SUB DUP2 DUP7 GAS STATICCALL ISZERO DUP1 ISZERO PUSH2 0x3C6C JUMPI RETURNDATASIZE PUSH1 0x0 DUP1 RETURNDATACOPY RETURNDATASIZE PUSH1 0x0 REVERT JUMPDEST POP POP POP POP PUSH1 0x40 MLOAD RETURNDATASIZE PUSH1 0x1F NOT PUSH1 0x1F DUP3 ADD AND DUP3 ADD DUP1 PUSH1 0x40 MSTORE POP DUP2 ADD SWAP1 PUSH2 0x3C90 SWAP2 SWAP1 PUSH2 0x43DA JUMP JUMPDEST SWAP1 POP DUP1 PUSH1 0x0 SUB PUSH2 0x3C9D JUMPI POP JUMP JUMPDEST PUSH20 0x838AF967537350D2C44ABB8C010E49E32673AB94 PUSH4 0xCE7D6503 PUSH1 0x0 PUSH1 0x1 DUP5 PUSH2 0x3CEF PUSH20 0xC02AAA39B223FE8D0A0E5C4F27EAD9083C756CC2 PUSH20 0x9AE380F0272E2162340A5BB646C354271C0F5CFC DUP4 PUSH2 0x3DD2 JUMP JUMPDEST PUSH1 0x1 SLOAD PUSH1 0x40 MLOAD PUSH1 0xE0 DUP8 SWAP1 SHL PUSH1 0x1 PUSH1 0x1 PUSH1 0xE0 SHL SUB NOT AND DUP2 MSTORE PUSH1 0x4 DUP2 ADD SWAP6 SWAP1 SWAP6 MSTORE PUSH1 0x24 DUP6 ADD SWAP4 SWAP1 SWAP4 MSTORE PUSH1 0x44 DUP5 ADD SWAP2 SWAP1 SWAP2 MSTORE PUSH1 0x64 DUP4 ADD MSTORE PUSH1 0x0 PUSH1 0x84 DUP4 ADD MSTORE PUSH1 0x1 PUSH1 0x1 PUSH1 0xA0 SHL SUB AND PUSH1 0xA4 DUP3 ADD MSTORE PUSH1 0xC4 ADD PUSH1 0x20 PUSH1 0x40 MLOAD DUP1 DUP4 SUB DUP2 PUSH1 0x0 DUP8 GAS CALL ISZERO DUP1 ISZERO PUSH2 0x3D5A JUMPI RETURNDATASIZE PUSH1 0x0 DUP1 RETURNDATACOPY RETURNDATASIZE PUSH1 0x0 REVERT JUMPDEST POP POP POP POP PUSH1 0x40 MLOAD RETURNDATASIZE PUSH1 0x1F NOT PUSH1 0x1F DUP3 ADD AND DUP3 ADD DUP1 PUSH1 0x40 MSTORE POP DUP2 ADD SWAP1 PUSH2 0x14B0 SWAP2 SWAP1 PUSH2 0x43DA JUMP JUMPDEST DUP2 MLOAD ISZERO PUSH2 0x3D8E JUMPI DUP2 MLOAD DUP1 DUP4 PUSH1 0x20 ADD REVERT JUMPDEST DUP1 PUSH1 0x40 MLOAD PUSH3 0x461BCD PUSH1 0xE5 SHL DUP2 MSTORE PUSH1 0x4 ADD PUSH2 0x4ED SWAP2 SWAP1 PUSH2 0x47FB JUMP JUMPDEST PUSH1 0x0 DUP3 PUSH1 0x0 ADD DUP3 DUP2 SLOAD DUP2 LT PUSH2 0x3DBF JUMPI PUSH2 0x3DBF PUSH2 0x4482 JUMP JUMPDEST SWAP1 PUSH1 0x0 MSTORE PUSH1 0x20 PUSH1 0x0 KECCAK256 ADD SLOAD SWAP1 POP SWAP3 SWAP2 POP POP JUMP JUMPDEST PUSH1 0x0 DUP1 PUSH32 0x0 PUSH1 0x1 PUSH1 0x1 PUSH1 0xA0 SHL SUB AND PUSH4 0x2630C12F PUSH1 0x40 MLOAD DUP2 PUSH4 0xFFFFFFFF AND PUSH1 0xE0 SHL DUP2 MSTORE PUSH1 0x4 ADD PUSH1 0x20 PUSH1 0x40 MLOAD DUP1 DUP4 SUB DUP2 DUP7 GAS STATICCALL ISZERO DUP1 ISZERO PUSH2 0x3E33 JUMPI RETURNDATASIZE PUSH1 0x0 DUP1 RETURNDATACOPY RETURNDATASIZE PUSH1 0x0 REVERT JUMPDEST POP POP POP POP PUSH1 0x40 MLOAD RETURNDATASIZE PUSH1 0x1F NOT PUSH1 0x1F DUP3 ADD AND DUP3 ADD DUP1 PUSH1 0x40 MSTORE POP DUP2 ADD SWAP1 PUSH2 0x3E57 SWAP2 SWAP1 PUSH2 0x4394 JUMP JUMPDEST SWAP1 POP DUP4 PUSH1 0x1 PUSH1 0x1 PUSH1 0xA0 SHL SUB AND DUP6 PUSH1 0x1 PUSH1 0x1 PUSH1 0xA0 SHL SUB AND SUB PUSH2 0x3E7B JUMPI DUP3 SWAP2 POP POP PUSH2 0x1EA7 JUMP JUMPDEST PUSH1 0x40 MLOAD PUSH4 0x75151B63 PUSH1 0xE0 SHL DUP2 MSTORE PUSH1 0x1 PUSH1 0x1 PUSH1 0xA0 SHL SUB DUP7 DUP2 AND PUSH1 0x4 DUP4 ADD MSTORE DUP3 AND SWAP1 PUSH4 0x75151B63 SWAP1 PUSH1 0x24 ADD PUSH1 0x20 PUSH1 0x40 MLOAD DUP1 DUP4 SUB DUP2 DUP7 GAS STATICCALL ISZERO DUP1 ISZERO PUSH2 0x3EC1 JUMPI RETURNDATASIZE PUSH1 0x0 DUP1 RETURNDATACOPY RETURNDATASIZE PUSH1 0x0 REVERT JUMPDEST POP POP POP POP PUSH1 0x40 MLOAD RETURNDATASIZE PUSH1 0x1F NOT PUSH1 0x1F DUP3 ADD AND DUP3 ADD DUP1 PUSH1 0x40 MSTORE POP DUP2 ADD SWAP1 PUSH2 0x3EE5 SWAP2 SWAP1 PUSH2 0x4673 JUMP JUMPDEST ISZERO DUP1 PUSH2 0x3F58 JUMPI POP PUSH1 0x40 MLOAD PUSH4 0x75151B63 PUSH1 0xE0 SHL DUP2 MSTORE PUSH1 0x1 PUSH1 0x1 PUSH1 0xA0 SHL SUB DUP6 DUP2 AND PUSH1 0x4 DUP4 ADD MSTORE DUP3 AND SWAP1 PUSH4 0x75151B63 SWAP1 PUSH1 0x24 ADD PUSH1 0x20 PUSH1 0x40 MLOAD DUP1 DUP4 SUB DUP2 DUP7 GAS STATICCALL ISZERO DUP1 ISZERO PUSH2 0x3F32 JUMPI RETURNDATASIZE PUSH1 0x0 DUP1 RETURNDATACOPY RETURNDATASIZE PUSH1 0x0 REVERT JUMPDEST POP POP POP POP PUSH1 0x40 MLOAD RETURNDATASIZE PUSH1 0x1F NOT PUSH1 0x1F DUP3 ADD AND DUP3 ADD DUP1 PUSH1 0x40 MSTORE POP DUP2 ADD SWAP1 PUSH2 0x3F56 SWAP2 SWAP1 PUSH2 0x4673 JUMP JUMPDEST ISZERO JUMPDEST ISZERO PUSH2 0x3F67 JUMPI PUSH1 0x0 SWAP2 POP POP PUSH2 0x1EA7 JUMP JUMPDEST PUSH2 0x34D5 PUSH8 0xD2F13F7789F0000 PUSH2 0x4126 DUP8 PUSH1 0x1 PUSH1 0x1 PUSH1 0xA0 SHL SUB AND PUSH4 0x313CE567 PUSH1 0x40 MLOAD DUP2 PUSH4 0xFFFFFFFF AND PUSH1 0xE0 SHL DUP2 MSTORE PUSH1 0x4 ADD PUSH1 0x20 PUSH1 0x40 MLOAD DUP1 DUP4 SUB DUP2 DUP7 GAS STATICCALL ISZERO DUP1 ISZERO PUSH2 0x3FB4 JUMPI RETURNDATASIZE PUSH1 0x0 DUP1 RETURNDATACOPY RETURNDATASIZE PUSH1 0x0 REVERT JUMPDEST POP POP POP POP PUSH1 0x40 MLOAD RETURNDATASIZE PUSH1 0x1F NOT PUSH1 0x1F DUP3 ADD AND DUP3 ADD DUP1 PUSH1 0x40 MSTORE POP DUP2 ADD SWAP1 PUSH2 0x3FD8 SWAP2 SWAP1 PUSH2 0x482E JUMP JUMPDEST DUP8 PUSH1 0x1 PUSH1 0x1 PUSH1 0xA0 SHL SUB AND PUSH4 0x313CE567 PUSH1 0x40 MLOAD DUP2 PUSH4 0xFFFFFFFF AND PUSH1 0xE0 SHL DUP2 MSTORE PUSH1 0x4 ADD PUSH1 0x20 PUSH1 0x40 MLOAD DUP1 DUP4 SUB DUP2 DUP7 GAS STATICCALL ISZERO DUP1 ISZERO PUSH2 0x4016 JUMPI RETURNDATASIZE PUSH1 0x0 DUP1 RETURNDATACOPY RETURNDATASIZE PUSH1 0x0 REVERT JUMPDEST POP POP POP POP PUSH1 0x40 MLOAD RETURNDATASIZE PUSH1 0x1F NOT PUSH1 0x1F DUP3 ADD AND DUP3 ADD DUP1 PUSH1 0x40 MSTORE POP DUP2 ADD SWAP1 PUSH2 0x403A SWAP2 SWAP1 PUSH2 0x482E JUMP JUMPDEST PUSH1 0x40 MLOAD PUSH4 0x8B2F0F4F PUSH1 0xE0 SHL DUP2 MSTORE PUSH1 0x1 PUSH1 0x1 PUSH1 0xA0 SHL SUB DUP11 DUP2 AND PUSH1 0x4 DUP4 ADD MSTORE PUSH2 0x411F SWAP2 SWAP1 DUP9 AND SWAP1 PUSH4 0x8B2F0F4F SWAP1 PUSH1 0x24 ADD PUSH1 0x20 PUSH1 0x40 MLOAD DUP1 DUP4 SUB DUP2 DUP7 GAS STATICCALL ISZERO DUP1 ISZERO PUSH2 0x4085 JUMPI RETURNDATASIZE PUSH1 0x0 DUP1 RETURNDATACOPY RETURNDATASIZE PUSH1 0x0 REVERT JUMPDEST POP POP POP POP PUSH1 0x40 MLOAD RETURNDATASIZE PUSH1 0x1F NOT PUSH1 0x1F DUP3 ADD AND DUP3 ADD DUP1 PUSH1 0x40 MSTORE POP DUP2 ADD SWAP1 PUSH2 0x40A9 SWAP2 SWAP1 PUSH2 0x43DA JUMP JUMPDEST PUSH1 0x40 MLOAD PUSH4 0x8B2F0F4F PUSH1 0xE0 SHL DUP2 MSTORE PUSH1 0x1 PUSH1 0x1 PUSH1 0xA0 SHL SUB DUP14 DUP2 AND PUSH1 0x4 DUP4 ADD MSTORE PUSH2 0x2B85 SWAP2 SWAP1 DUP11 AND SWAP1 PUSH4 0x8B2F0F4F SWAP1 PUSH1 0x24 ADD PUSH1 0x20 PUSH1 0x40 MLOAD DUP1 DUP4 SUB DUP2 DUP7 GAS STATICCALL ISZERO DUP1 ISZERO PUSH2 0x40F4 JUMPI RETURNDATASIZE PUSH1 0x0 DUP1 RETURNDATACOPY RETURNDATASIZE PUSH1 0x0 REVERT JUMPDEST POP POP POP POP PUSH1 0x40 MLOAD RETURNDATASIZE PUSH1 0x1F NOT PUSH1 0x1F DUP3 ADD AND DUP3 ADD DUP1 PUSH1 0x40 MSTORE POP DUP2 ADD SWAP1 PUSH2 0x4118 SWAP2 SWAP1 PUSH2 0x43DA JUMP JUMPDEST DUP12 SWAP1 PUSH2 0x2473 JUMP JUMPDEST SWAP2 SWAP1 PUSH2 0x412C JUMP JUMPDEST SWAP1 PUSH2 0x2473 JUMP JUMPDEST PUSH1 0x0 DUP2 PUSH1 0xFF AND DUP4 PUSH1 0xFF AND SUB PUSH2 0x4142 JUMPI POP DUP3 PUSH2 0x1EA7 JUMP JUMPDEST DUP2 PUSH1 0xFF AND DUP4 PUSH1 0xFF AND GT ISZERO PUSH2 0x4162 JUMPI PUSH2 0x415B DUP5 DUP5 DUP5 PUSH2 0x416D JUMP JUMPDEST SWAP1 POP PUSH2 0x1EA7 JUMP JUMPDEST PUSH2 0x1EA4 DUP5 DUP5 DUP5 PUSH2 0x418E JUMP JUMPDEST PUSH1 0x0 PUSH2 0x4179 DUP3 DUP5 PUSH2 0x4851 JUMP JUMPDEST PUSH2 0x4184 SWAP1 PUSH1 0xA PUSH2 0x486A JUMP JUMPDEST PUSH2 0x1EA4 SWAP1 DUP6 PUSH2 0x4651 JUMP JUMPDEST PUSH1 0x0 PUSH2 0x419A DUP4 DUP4 PUSH2 0x4851 JUMP JUMPDEST PUSH2 0x41A5 SWAP1 PUSH1 0xA PUSH2 0x486A JUMP JUMPDEST PUSH2 0x1EA4 SWAP1 DUP6 PUSH2 0x463A JUMP JUMPDEST PUSH1 0x1 PUSH1 0x1 PUSH1 0xA0 SHL SUB DUP2 AND DUP2 EQ PUSH2 0x136D JUMPI PUSH1 0x0 DUP1 REVERT JUMPDEST PUSH1 0x0 DUP1 PUSH1 0x40 DUP4 DUP6 SUB SLT ISZERO PUSH2 0x41D7 JUMPI PUSH1 0x0 DUP1 REVERT JUMPDEST DUP3 CALLDATALOAD PUSH2 0x41E2 DUP2 PUSH2 0x41AF JUMP JUMPDEST SWAP2 POP PUSH1 0x20 DUP4 ADD CALLDATALOAD PUSH2 0x41F2 DUP2 PUSH2 0x41AF JUMP JUMPDEST DUP1 SWAP2 POP POP SWAP3 POP SWAP3 SWAP1 POP JUMP JUMPDEST PUSH1 0x0 PUSH1 0x20 DUP3 DUP5 SUB SLT ISZERO PUSH2 0x420F JUMPI PUSH1 0x0 DUP1 REVERT JUMPDEST DUP2 CALLDATALOAD PUSH2 0x1EA7 DUP2 PUSH2 0x41AF JUMP JUMPDEST PUSH1 0x0 DUP2 MLOAD DUP1 DUP5 MSTORE PUSH1 0x20 DUP1 DUP6 ADD SWAP5 POP DUP1 DUP5 ADD PUSH1 0x0 JUMPDEST DUP4 DUP2 LT ISZERO PUSH2 0x4253 JUMPI DUP2 MLOAD PUSH1 0x1 PUSH1 0x1 PUSH1 0xA0 SHL SUB AND DUP8 MSTORE SWAP6 DUP3 ADD SWAP6 SWAP1 DUP3 ADD SWAP1 PUSH1 0x1 ADD PUSH2 0x422E JUMP JUMPDEST POP SWAP5 SWAP6 SWAP5 POP POP POP POP POP JUMP JUMPDEST PUSH1 0x20 DUP2 MSTORE PUSH1 0x0 PUSH2 0x2495 PUSH1 0x20 DUP4 ADD DUP5 PUSH2 0x421A JUMP JUMPDEST PUSH1 0x0 PUSH1 0x20 DUP3 DUP5 SUB SLT ISZERO PUSH2 0x4283 JUMPI PUSH1 0x0 DUP1 REVERT JUMPDEST POP CALLDATALOAD SWAP2 SWAP1 POP JUMP JUMPDEST PUSH4 0x4E487B71 PUSH1 0xE0 SHL PUSH1 0x0 MSTORE PUSH1 0x41 PUSH1 0x4 MSTORE PUSH1 0x24 PUSH1 0x0 REVERT JUMPDEST PUSH1 0x40 MLOAD PUSH1 0x1F DUP3 ADD PUSH1 0x1F NOT AND DUP2 ADD PUSH8 0xFFFFFFFFFFFFFFFF DUP2 GT DUP3 DUP3 LT OR ISZERO PUSH2 0x42C9 JUMPI PUSH2 0x42C9 PUSH2 0x428A JUMP JUMPDEST PUSH1 0x40 MSTORE SWAP2 SWAP1 POP JUMP JUMPDEST PUSH1 0x0 PUSH8 0xFFFFFFFFFFFFFFFF DUP3 GT ISZERO PUSH2 0x42EB JUMPI PUSH2 0x42EB PUSH2 0x428A JUMP JUMPDEST POP PUSH1 0x5 SHL PUSH1 0x20 ADD SWAP1 JUMP JUMPDEST PUSH1 0x0 PUSH1 0x20 DUP1 DUP4 DUP6 SUB SLT ISZERO PUSH2 0x4308 JUMPI PUSH1 0x0 DUP1 REVERT JUMPDEST DUP3 CALLDATALOAD PUSH8 0xFFFFFFFFFFFFFFFF DUP2 GT ISZERO PUSH2 0x431F JUMPI PUSH1 0x0 DUP1 REVERT JUMPDEST DUP4 ADD PUSH1 0x1F DUP2 ADD DUP6 SGT PUSH2 0x4330 JUMPI PUSH1 0x0 DUP1 REVERT JUMPDEST DUP1 CALLDATALOAD PUSH2 0x4343 PUSH2 0x433E DUP3 PUSH2 0x42D1 JUMP JUMPDEST PUSH2 0x42A0 JUMP JUMPDEST DUP2 DUP2 MSTORE PUSH1 0x5 SWAP2 SWAP1 SWAP2 SHL DUP3 ADD DUP4 ADD SWAP1 DUP4 DUP2 ADD SWAP1 DUP8 DUP4 GT ISZERO PUSH2 0x4362 JUMPI PUSH1 0x0 DUP1 REVERT JUMPDEST SWAP3 DUP5 ADD SWAP3 JUMPDEST DUP3 DUP5 LT ISZERO PUSH2 0x4389 JUMPI DUP4 CALLDATALOAD PUSH2 0x437A DUP2 PUSH2 0x41AF JUMP JUMPDEST DUP3 MSTORE SWAP3 DUP5 ADD SWAP3 SWAP1 DUP5 ADD SWAP1 PUSH2 0x4367 JUMP JUMPDEST SWAP8 SWAP7 POP POP POP POP POP POP POP JUMP JUMPDEST PUSH1 0x0 PUSH1 0x20 DUP3 DUP5 SUB SLT ISZERO PUSH2 0x43A6 JUMPI PUSH1 0x0 DUP1 REVERT JUMPDEST DUP2 MLOAD PUSH2 0x1EA7 DUP2 PUSH2 0x41AF JUMP JUMPDEST PUSH4 0x4E487B71 PUSH1 0xE0 SHL PUSH1 0x0 MSTORE PUSH1 0x11 PUSH1 0x4 MSTORE PUSH1 0x24 PUSH1 0x0 REVERT JUMPDEST DUP2 DUP2 SUB DUP2 DUP2 GT ISZERO PUSH2 0x2498 JUMPI PUSH2 0x2498 PUSH2 0x43B1 JUMP JUMPDEST PUSH1 0x0 PUSH1 0x20 DUP3 DUP5 SUB SLT ISZERO PUSH2 0x43EC JUMPI PUSH1 0x0 DUP1 REVERT JUMPDEST POP MLOAD SWAP2 SWAP1 POP JUMP JUMPDEST PUSH1 0x0 PUSH1 0x20 DUP1 DUP4 DUP6 SUB SLT ISZERO PUSH2 0x4406 JUMPI PUSH1 0x0 DUP1 REVERT JUMPDEST DUP3 MLOAD PUSH8 0xFFFFFFFFFFFFFFFF DUP2 GT ISZERO PUSH2 0x441D JUMPI PUSH1 0x0 DUP1 REVERT JUMPDEST DUP4 ADD PUSH1 0x1F DUP2 ADD DUP6 SGT PUSH2 0x442E JUMPI PUSH1 0x0 DUP1 REVERT JUMPDEST DUP1 MLOAD PUSH2 0x443C PUSH2 0x433E DUP3 PUSH2 0x42D1 JUMP JUMPDEST DUP2 DUP2 MSTORE PUSH1 0x5 SWAP2 SWAP1 SWAP2 SHL DUP3 ADD DUP4 ADD SWAP1 DUP4 DUP2 ADD SWAP1 DUP8 DUP4 GT ISZERO PUSH2 0x445B JUMPI PUSH1 0x0 DUP1 REVERT JUMPDEST SWAP3 DUP5 ADD SWAP3 JUMPDEST DUP3 DUP5 LT ISZERO PUSH2 0x4389 JUMPI DUP4 MLOAD PUSH2 0x4473 DUP2 PUSH2 0x41AF JUMP JUMPDEST DUP3 MSTORE SWAP3 DUP5 ADD SWAP3 SWAP1 DUP5 ADD SWAP1 PUSH2 0x4460 JUMP JUMPDEST PUSH4 0x4E487B71 PUSH1 0xE0 SHL PUSH1 0x0 MSTORE PUSH1 0x32 PUSH1 0x4 MSTORE PUSH1 0x24 PUSH1 0x0 REVERT JUMPDEST PUSH1 0x0 PUSH1 0x1 DUP3 ADD PUSH2 0x44AA JUMPI PUSH2 0x44AA PUSH2 0x43B1 JUMP JUMPDEST POP PUSH1 0x1 ADD SWAP1 JUMP JUMPDEST DUP1 DUP3 ADD DUP1 DUP3 GT ISZERO PUSH2 0x2498 JUMPI PUSH2 0x2498 PUSH2 0x43B1 JUMP JUMPDEST DUP1 MLOAD DUP1 ISZERO ISZERO DUP2 EQ PUSH2 0x1059 JUMPI PUSH1 0x0 DUP1 REVERT JUMPDEST PUSH1 0x0 DUP1 DUP3 DUP5 SUB PUSH1 0x60 DUP2 SLT ISZERO PUSH2 0x44E8 JUMPI PUSH1 0x0 DUP1 REVERT JUMPDEST DUP4 MLOAD SWAP3 POP PUSH1 0x40 PUSH1 0x1F NOT DUP3 ADD SLT ISZERO PUSH2 0x44FE JUMPI PUSH1 0x0 DUP1 REVERT JUMPDEST POP PUSH1 0x40 MLOAD PUSH1 0x40 DUP2 ADD DUP2 DUP2 LT PUSH8 0xFFFFFFFFFFFFFFFF DUP3 GT OR ISZERO PUSH2 0x4522 JUMPI PUSH2 0x4522 PUSH2 0x428A JUMP JUMPDEST DUP1 PUSH1 0x40 MSTORE POP PUSH1 0x20 DUP5 ADD MLOAD DUP2 MSTORE PUSH2 0x453A PUSH1 0x40 DUP6 ADD PUSH2 0x44C4 JUMP JUMPDEST PUSH1 0x20 DUP3 ADD MSTORE DUP1 SWAP2 POP POP SWAP3 POP SWAP3 SWAP1 POP JUMP JUMPDEST PUSH1 0x1 DUP2 DUP2 JUMPDEST DUP1 DUP6 GT ISZERO PUSH2 0x4585 JUMPI DUP2 PUSH1 0x0 NOT DIV DUP3 GT ISZERO PUSH2 0x456B JUMPI PUSH2 0x456B PUSH2 0x43B1 JUMP JUMPDEST DUP1 DUP6 AND ISZERO PUSH2 0x4578 JUMPI SWAP2 DUP2 MUL SWAP2 JUMPDEST SWAP4 DUP5 SHR SWAP4 SWAP1 DUP1 MUL SWAP1 PUSH2 0x454F JUMP JUMPDEST POP SWAP3 POP SWAP3 SWAP1 POP JUMP JUMPDEST PUSH1 0x0 DUP3 PUSH2 0x459C JUMPI POP PUSH1 0x1 PUSH2 0x2498 JUMP JUMPDEST DUP2 PUSH2 0x45A9 JUMPI POP PUSH1 0x0 PUSH2 0x2498 JUMP JUMPDEST DUP2 PUSH1 0x1 DUP2 EQ PUSH2 0x45BF JUMPI PUSH1 0x2 DUP2 EQ PUSH2 0x45C9 JUMPI PUSH2 0x45E5 JUMP JUMPDEST PUSH1 0x1 SWAP2 POP POP PUSH2 0x2498 JUMP JUMPDEST PUSH1 0xFF DUP5 GT ISZERO PUSH2 0x45DA JUMPI PUSH2 0x45DA PUSH2 0x43B1 JUMP JUMPDEST POP POP PUSH1 0x1 DUP3 SHL PUSH2 0x2498 JUMP JUMPDEST POP PUSH1 0x20 DUP4 LT PUSH2 0x133 DUP4 LT AND PUSH1 0x4E DUP5 LT PUSH1 0xB DUP5 LT AND OR ISZERO PUSH2 0x4608 JUMPI POP DUP2 DUP2 EXP PUSH2 0x2498 JUMP JUMPDEST PUSH2 0x4612 DUP4 DUP4 PUSH2 0x454A JUMP JUMPDEST DUP1 PUSH1 0x0 NOT DIV DUP3 GT ISZERO PUSH2 0x4626 JUMPI PUSH2 0x4626 PUSH2 0x43B1 JUMP JUMPDEST MUL SWAP4 SWAP3 POP POP POP JUMP JUMPDEST PUSH1 0x0 PUSH2 0x2495 DUP4 DUP4 PUSH2 0x458D JUMP JUMPDEST DUP1 DUP3 MUL DUP2 ISZERO DUP3 DUP3 DIV DUP5 EQ OR PUSH2 0x2498 JUMPI PUSH2 0x2498 PUSH2 0x43B1 JUMP JUMPDEST PUSH1 0x0 DUP3 PUSH2 0x466E JUMPI PUSH4 0x4E487B71 PUSH1 0xE0 SHL PUSH1 0x0 MSTORE PUSH1 0x12 PUSH1 0x4 MSTORE PUSH1 0x24 PUSH1 0x0 REVERT JUMPDEST POP DIV SWAP1 JUMP JUMPDEST PUSH1 0x0 PUSH1 0x20 DUP3 DUP5 SUB SLT ISZERO PUSH2 0x4685 JUMPI PUSH1 0x0 DUP1 REVERT JUMPDEST PUSH2 0x2495 DUP3 PUSH2 0x44C4 JUMP JUMPDEST PUSH1 0x0 JUMPDEST DUP4 DUP2 LT ISZERO PUSH2 0x46A9 JUMPI DUP2 DUP2 ADD MLOAD DUP4 DUP3 ADD MSTORE PUSH1 0x20 ADD PUSH2 0x4691 JUMP JUMPDEST POP POP PUSH1 0x0 SWAP2 ADD MSTORE JUMP JUMPDEST PUSH1 0x0 DUP3 MLOAD PUSH2 0x46C4 DUP2 DUP5 PUSH1 0x20 DUP8 ADD PUSH2 0x468E JUMP JUMPDEST SWAP2 SWAP1 SWAP2 ADD SWAP3 SWAP2 POP POP JUMP JUMPDEST PUSH4 0x4E487B71 PUSH1 0xE0 SHL PUSH1 0x0 MSTORE PUSH1 0x31 PUSH1 0x4 MSTORE PUSH1 0x24 PUSH1 0x0 REVERT JUMPDEST DUP1 MLOAD PUSH1 0xF DUP2 SWAP1 SIGNEXTEND DUP2 EQ PUSH2 0x1059 JUMPI PUSH1 0x0 DUP1 REVERT JUMPDEST PUSH1 0x0 DUP1 PUSH1 0x0 PUSH1 0x60 DUP5 DUP7 SUB SLT ISZERO PUSH2 0x470B JUMPI PUSH1 0x0 DUP1 REVERT JUMPDEST PUSH2 0x4714 DUP5 PUSH2 0x46E4 JUMP JUMPDEST SWAP3 POP PUSH2 0x4722 PUSH1 0x20 DUP6 ADD PUSH2 0x46E4 JUMP JUMPDEST SWAP2 POP PUSH2 0x4730 PUSH1 0x40 DUP6 ADD PUSH2 0x44C4 JUMP JUMPDEST SWAP1 POP SWAP3 POP SWAP3 POP SWAP3 JUMP JUMPDEST DUP6 DUP2 MSTORE DUP5 PUSH1 0x20 DUP3 ADD MSTORE PUSH1 0xA0 PUSH1 0x40 DUP3 ADD MSTORE PUSH1 0x0 PUSH2 0x4758 PUSH1 0xA0 DUP4 ADD DUP7 PUSH2 0x421A JUMP JUMPDEST PUSH1 0x1 PUSH1 0x1 PUSH1 0xA0 SHL SUB SWAP5 SWAP1 SWAP5 AND PUSH1 0x60 DUP4 ADD MSTORE POP PUSH1 0x80 ADD MSTORE SWAP4 SWAP3 POP POP POP JUMP JUMPDEST PUSH1 0x0 PUSH1 0x20 DUP1 DUP4 DUP6 SUB SLT ISZERO PUSH2 0x4788 JUMPI PUSH1 0x0 DUP1 REVERT JUMPDEST DUP3 MLOAD PUSH8 0xFFFFFFFFFFFFFFFF DUP2 GT ISZERO PUSH2 0x479F JUMPI PUSH1 0x0 DUP1 REVERT JUMPDEST DUP4 ADD PUSH1 0x1F DUP2 ADD DUP6 SGT PUSH2 0x47B0 JUMPI PUSH1 0x0 DUP1 REVERT JUMPDEST DUP1 MLOAD PUSH2 0x47BE PUSH2 0x433E DUP3 PUSH2 0x42D1 JUMP JUMPDEST DUP2 DUP2 MSTORE PUSH1 0x5 SWAP2 SWAP1 SWAP2 SHL DUP3 ADD DUP4 ADD SWAP1 DUP4 DUP2 ADD SWAP1 DUP8 DUP4 GT ISZERO PUSH2 0x47DD JUMPI PUSH1 0x0 DUP1 REVERT JUMPDEST SWAP3 DUP5 ADD SWAP3 JUMPDEST DUP3 DUP5 LT ISZERO PUSH2 0x4389 JUMPI DUP4 MLOAD DUP3 MSTORE SWAP3 DUP5 ADD SWAP3 SWAP1 DUP5 ADD SWAP1 PUSH2 0x47E2 JUMP JUMPDEST PUSH1 0x20 DUP2 MSTORE PUSH1 0x0 DUP3 MLOAD DUP1 PUSH1 0x20 DUP5 ADD MSTORE PUSH2 0x481A DUP2 PUSH1 0x40 DUP6 ADD PUSH1 0x20 DUP8 ADD PUSH2 0x468E JUMP JUMPDEST PUSH1 0x1F ADD PUSH1 0x1F NOT AND SWAP2 SWAP1 SWAP2 ADD PUSH1 0x40 ADD SWAP3 SWAP2 POP POP JUMP JUMPDEST PUSH1 0x0 PUSH1 0x20 DUP3 DUP5 SUB SLT ISZERO PUSH2 0x4840 JUMPI PUSH1 0x0 DUP1 REVERT JUMPDEST DUP2 MLOAD PUSH1 0xFF DUP2 AND DUP2 EQ PUSH2 0x1EA7 JUMPI PUSH1 0x0 DUP1 REVERT JUMPDEST PUSH1 0xFF DUP3 DUP2 AND DUP3 DUP3 AND SUB SWAP1 DUP2 GT ISZERO PUSH2 0x2498 JUMPI PUSH2 0x2498 PUSH2 0x43B1 JUMP JUMPDEST PUSH1 0x0 PUSH2 0x2495 PUSH1 0xFF DUP5 AND DUP4 PUSH2 0x458D JUMP INVALID SAR 0xA6 DUP6 0xD3 PUSH4 0xC3798567 BLOCKHASH SWAP8 PC 0xB6 0xF6 CHAINID PUSH16 0x17974A073E3CE7CE447C063C18AB4960 DUP13 0xDA 0x27 SWAP8 CODECOPY SWAP5 0xB4 0xC9 0xCE CREATE2 0xFC PUSH8 0x16A5EE96CC4ABE33 MSTORE8 0x22 DUP14 PUSH32 0xABF6C8BB342178AEA26469706673582212205B1330920FC901D8E822A3C84C46 CALLDATACOPY SHL 0xB7 0xD1 PUSH22 0xB8D920C21E2FF53841F0A1C83764736F6C6343000811 STOP CALLER ","sha1":"8294934726b587f23bc98963ebd25ddef8339f9b","source":"// SPDX-License-Identifier: GPL-3.0-or-later\npragma solidity 0.8.17;\n\nimport \"@openzeppelin/contracts/access/Ownable.sol\";\nimport \"@openzeppelin/contracts/proxy/utils/Initializable.sol\";\nimport \"@openzeppelin/contracts/utils/structs/EnumerableSet.sol\";\nimport \"@openzeppelin/contracts/token/ERC20/utils/SafeERC20.sol\";\nimport \"@openzeppelin/contracts/token/ERC20/extensions/IERC20Metadata.sol\";\n\nimport \"../interfaces/pools/IConicPool.sol\";\nimport \"../interfaces/pools/ILpToken.sol\";\nimport \"../interfaces/pools/IRewardManager.sol\";\nimport \"../interfaces/IConvexHandler.sol\";\nimport \"../interfaces/IController.sol\";\nimport \"../interfaces/IOracle.sol\";\nimport \"../interfaces/tokenomics/IInflationManager.sol\";\nimport \"../interfaces/tokenomics/ILpTokenStaker.sol\";\nimport \"../interfaces/vendor/ICurvePoolV2.sol\";\nimport \"../interfaces/vendor/UniswapRouter02.sol\";\n\nimport \"../libraries/ScaledMath.sol\";\nimport \"../libraries/Types.sol\";\n\ncontract RewardManager is IRewardManager, Ownable, Initializable {\n    using ScaledMath for uint256;\n    using SafeERC20 for IERC20;\n    using EnumerableSet for EnumerableSet.AddressSet;\n\n    struct RewardMeta {\n        uint256 earnedIntegral;\n        uint256 lastHoldings;\n        mapping(address => uint256) accountIntegral;\n        mapping(address => uint256) accountShare;\n    }\n\n    IERC20 public constant CVX = IERC20(0x4e3FBD56CD56c3e72c1403e103b45Db9da5B9D2B);\n    IERC20 public constant CRV = IERC20(0xD533a949740bb3306d119CC777fa900bA034cd52);\n    IERC20 public constant WETH = IERC20(0xC02aaA39b223FE8D0A0e5C4F27eAD9083C756Cc2);\n    IERC20 public constant CNC = IERC20(0x9aE380F0272E2162340a5bB646c354271c0F5cFC);\n    UniswapRouter02 public constant SUSHISWAP =\n        UniswapRouter02(0xd9e1cE17f2641f24aE83637ab66a2cca9C378B9F);\n    ICurvePoolV2 public constant CNC_ETH_POOL =\n        ICurvePoolV2(0x838af967537350D2C44ABB8c010E49E32673ab94);\n\n    uint256 public constant MAX_FEE_PERCENTAGE = 3e17;\n    uint256 public constant SLIPPAGE_THRESHOLD = 0.95e18; // 5% slippage as a multiplier\n\n    bytes32 internal constant _CNC_KEY = \"cnc\";\n    bytes32 internal constant _CRV_KEY = \"crv\";\n    bytes32 internal constant _CVX_KEY = \"cvx\";\n\n    address public override conicPool;\n    IERC20 public immutable underlying;\n    IController public immutable controller;\n    bool internal _claimingCNC;\n\n    EnumerableSet.AddressSet internal _extraRewards;\n    mapping(address => address) public extraRewardsCurvePool;\n    mapping(bytes32 => RewardMeta) internal _rewardsMeta;\n    mapping(uint256 => bool) internal _claimedForCliff;\n\n    bool public feesEnabled;\n    uint256 public feePercentage;\n\n    constructor(address _controller, address _underlying) {\n        underlying = IERC20(_underlying);\n        controller = IController(_controller);\n        WETH.safeApprove(address(CNC_ETH_POOL), type(uint256).max);\n    }\n\n    function initialize(address _pool) external onlyOwner initializer {\n        conicPool = _pool;\n    }\n\n    /// @notice Updates the internal fee accounting state. Returns `true` if rewards were claimed\n    function poolCheckpoint() public override returns (bool) {\n        IConvexHandler convexHandler = IConvexHandler(controller.convexHandler());\n\n        (\n            uint256 crvHoldings,\n            uint256 cvxHoldings,\n            uint256 cncHoldings,\n            Types.CliffInfo memory cliffInfo\n        ) = _getHoldingsWithCliffInfo(convexHandler);\n\n        // if we are in the threshold near a cliff for the first time claim rewards\n        if (cliffInfo.withinThreshold && !_claimedForCliff[cliffInfo.currentCliff]) {\n            _claimPoolEarningsForCliff(cliffInfo.currentCliff);\n        }\n\n        uint256 crvEarned = crvHoldings - _rewardsMeta[_CRV_KEY].lastHoldings;\n        uint256 cvxEarned;\n        if (cvxHoldings > _rewardsMeta[_CVX_KEY].lastHoldings) {\n            cvxEarned = cvxHoldings - _rewardsMeta[_CVX_KEY].lastHoldings;\n        }\n        uint256 cncEarned = cncHoldings - _rewardsMeta[_CNC_KEY].lastHoldings;\n\n        uint256 crvFee;\n        uint256 cvxFee;\n\n        if (feesEnabled) {\n            crvFee = crvEarned.mulDown(feePercentage);\n            cvxFee = cvxEarned.mulDown(feePercentage);\n            crvEarned -= crvFee;\n            cvxEarned -= cvxFee;\n            crvHoldings -= crvFee;\n            cvxHoldings -= cvxFee;\n        }\n\n        uint256 _totalStaked = controller.lpTokenStaker().getBalanceForPool(conicPool);\n        if (_totalStaked > 0) {\n            _updateEarned(_CVX_KEY, cvxHoldings, cvxEarned, _totalStaked);\n            _updateEarned(_CRV_KEY, crvHoldings, crvEarned, _totalStaked);\n            _updateEarned(_CNC_KEY, cncHoldings, cncEarned, _totalStaked);\n        }\n\n        if (!feesEnabled) {\n            return false;\n        }\n\n        bool rewardsClaimed = false;\n\n        if (crvFee > CRV.balanceOf(conicPool) || cvxFee > CVX.balanceOf(conicPool)) {\n            _claimPoolEarningsAndSellRewardTokens();\n            rewardsClaimed = true;\n        }\n\n        CRV.safeTransferFrom(conicPool, address(this), crvFee);\n        CVX.safeTransferFrom(conicPool, address(this), cvxFee);\n\n        // Fee transfer to the fee recipient\n        IFeeRecipient _feeRecipient = controller.feeRecipient();\n        CRV.forceApprove(address(_feeRecipient), crvFee);\n        CVX.forceApprove(address(_feeRecipient), cvxFee);\n        _feeRecipient.receiveFees(crvFee, cvxFee);\n\n        return rewardsClaimed;\n    }\n\n    function _updateEarned(\n        bytes32 key,\n        uint256 holdings,\n        uint256 earned,\n        uint256 _totalSupply\n    ) internal {\n        _rewardsMeta[key].earnedIntegral += earned.divDown(_totalSupply);\n        _rewardsMeta[key].lastHoldings = holdings;\n    }\n\n    function _getEarnedRewards()\n        internal\n        view\n        returns (uint256 crvEarned, uint256 cvxEarned, uint256 cncEarned)\n    {\n        IConvexHandler convexHandler = IConvexHandler(controller.convexHandler());\n        return _getEarnedRewards(convexHandler);\n    }\n\n    function _getHoldingsWithCliffInfo(\n        IConvexHandler convexHandler\n    )\n        internal\n        view\n        returns (\n            uint256 crvHoldings,\n            uint256 cvxHoldings,\n            uint256 cncHoldings,\n            Types.CliffInfo memory cliffInfo\n        )\n    {\n        address[] memory curvePools = IConicPool(conicPool).allPools();\n\n        uint256 claimableCRV;\n        for (uint256 i; i < curvePools.length; i++) {\n            claimableCRV += controller.poolAdapterFor(curvePools[i]).getCRVEarnedOnConvex(\n                conicPool,\n                curvePools[i]\n            );\n        }\n\n        crvHoldings = CRV.balanceOf(conicPool) + claimableCRV;\n\n        uint256 claimableCVX;\n        (claimableCVX, cliffInfo) = convexHandler.computeClaimableConvexWithCliffInfo(claimableCRV);\n        cvxHoldings = CVX.balanceOf(conicPool) + claimableCVX;\n        cncHoldings = CNC.balanceOf(conicPool);\n        if (!_claimingCNC) {\n            cncHoldings += controller.lpTokenStaker().claimableCnc(conicPool);\n        }\n    }\n\n    function _getHoldings(\n        IConvexHandler convexHandler\n    ) internal view returns (uint256 crvHoldings, uint256 cvxHoldings, uint256 cncHoldings) {\n        (crvHoldings, cvxHoldings, cncHoldings, ) = _getHoldingsWithCliffInfo(convexHandler);\n    }\n\n    function _getEarnedRewards(\n        IConvexHandler convexHandler\n    ) internal view returns (uint256 crvEarned, uint256 cvxEarned, uint256 cncEarned) {\n        (\n            uint256 currentHoldingsCRV,\n            uint256 currentHoldingsCVX,\n            uint256 currentHoldingsCNC\n        ) = _getHoldings(convexHandler);\n\n        crvEarned = currentHoldingsCRV - _rewardsMeta[_CRV_KEY].lastHoldings;\n        cvxEarned = currentHoldingsCVX - _rewardsMeta[_CVX_KEY].lastHoldings;\n        cncEarned = currentHoldingsCNC - _rewardsMeta[_CNC_KEY].lastHoldings;\n    }\n\n    function accountCheckpoint(address account) external {\n        _accountCheckpoint(account);\n    }\n\n    function _accountCheckpoint(address account) internal {\n        uint256 accountBalance = controller.lpTokenStaker().getUserBalanceForPool(\n            conicPool,\n            account\n        );\n        poolCheckpoint();\n        _updateAccountRewardsMeta(_CNC_KEY, account, accountBalance);\n        _updateAccountRewardsMeta(_CRV_KEY, account, accountBalance);\n        _updateAccountRewardsMeta(_CVX_KEY, account, accountBalance);\n    }\n\n    function _updateAccountRewardsMeta(bytes32 key, address account, uint256 balance) internal {\n        RewardMeta storage meta = _rewardsMeta[key];\n        uint256 share = balance.mulDown(meta.earnedIntegral - meta.accountIntegral[account]);\n        meta.accountShare[account] += share;\n        meta.accountIntegral[account] = meta.earnedIntegral;\n    }\n\n    /// @notice Claims all CRV, CVX and CNC earned by a user. All extra reward\n    /// tokens earned will be sold for CNC.\n    /// @dev Conic pool LP tokens need to be staked in the `LpTokenStaker` in\n    /// order to receive a share of the CRV, CVX and CNC earnings.\n    /// after selling all extra reward tokens.\n    function claimEarnings() public override returns (uint256, uint256, uint256) {\n        _accountCheckpoint(msg.sender);\n        uint256 crvAmount = _rewardsMeta[_CRV_KEY].accountShare[msg.sender];\n        uint256 cvxAmount = _rewardsMeta[_CVX_KEY].accountShare[msg.sender];\n        uint256 cncAmount = _rewardsMeta[_CNC_KEY].accountShare[msg.sender];\n        if (\n            crvAmount > CRV.balanceOf(conicPool) ||\n            cvxAmount > CVX.balanceOf(conicPool) ||\n            cncAmount > CNC.balanceOf(conicPool)\n        ) {\n            _claimPoolEarningsAndSellRewardTokens();\n            if (_extraRewards.length() > 0) {\n                // if we sold some rewards for CNC, we need to update the account checkpoint\n                _accountCheckpoint(msg.sender);\n                cncAmount = _rewardsMeta[_CNC_KEY].accountShare[msg.sender];\n            }\n        }\n\n        _rewardsMeta[_CNC_KEY].accountShare[msg.sender] = 0;\n        _rewardsMeta[_CVX_KEY].accountShare[msg.sender] = 0;\n        _rewardsMeta[_CRV_KEY].accountShare[msg.sender] = 0;\n\n        CRV.safeTransferFrom(conicPool, msg.sender, crvAmount);\n        CVX.safeTransferFrom(conicPool, msg.sender, cvxAmount);\n        if (CNC.balanceOf(conicPool) >= cncAmount) {\n            CNC.safeTransferFrom(conicPool, msg.sender, cncAmount);\n        }\n\n        (\n            uint256 currentHoldingsCRV,\n            uint256 currentHoldingsCVX,\n            uint256 currentHoldingsCNC\n        ) = _getHoldings(IConvexHandler(controller.convexHandler()));\n        _rewardsMeta[_CRV_KEY].lastHoldings = currentHoldingsCRV;\n        _rewardsMeta[_CVX_KEY].lastHoldings = currentHoldingsCVX;\n        _rewardsMeta[_CNC_KEY].lastHoldings = currentHoldingsCNC;\n\n        emit EarningsClaimed(msg.sender, cncAmount, crvAmount, cvxAmount);\n        return (cncAmount, crvAmount, cvxAmount);\n    }\n\n    /// @notice Claims all claimable CVX and CRV from Convex for all staked Curve LP tokens.\n    /// Then Swaps all additional rewards tokens for CNC.\n    function claimPoolEarningsAndSellRewardTokens() external override {\n        if (!poolCheckpoint()) {\n            _claimPoolEarningsAndSellRewardTokens();\n        }\n    }\n\n    function _claimPoolEarningsForCliff(uint256 cliff) internal {\n        _claimPoolEarningsAndSellRewardTokens();\n        _claimedForCliff[cliff] = true;\n    }\n\n    function _claimPoolEarningsAndSellRewardTokens() internal {\n        _claimPoolEarnings();\n\n        uint256 cncBalanceBefore_ = CNC.balanceOf(conicPool);\n\n        _sellRewardTokens();\n\n        uint256 receivedCnc_ = CNC.balanceOf(conicPool) - cncBalanceBefore_;\n        uint256 _totalStaked = controller.lpTokenStaker().getBalanceForPool(conicPool);\n        if (_totalStaked > 0 && receivedCnc_ > 0) {\n            _rewardsMeta[_CNC_KEY].earnedIntegral += receivedCnc_.divDown(_totalStaked);\n            _rewardsMeta[_CNC_KEY].lastHoldings += receivedCnc_;\n            emit SoldRewardTokens(receivedCnc_);\n        }\n    }\n\n    /// @notice Claims all claimable CVX and CRV from Convex for all staked Curve LP tokens\n    function _claimPoolEarnings() internal {\n        _claimingCNC = true;\n        controller.lpTokenStaker().claimCNCRewardsForPool(conicPool);\n        _claimingCNC = false;\n\n        uint256 cvxBalance = CVX.balanceOf(conicPool);\n        uint256 crvBalance = CRV.balanceOf(conicPool);\n\n        address[] memory pools = IConicPool(conicPool).allPools();\n        for (uint256 i; i < pools.length; i++) {\n            controller.poolAdapterFor(pools[i]).claimEarnings(conicPool, pools[i]);\n        }\n\n        uint256 claimedCvx = CVX.balanceOf(conicPool) - cvxBalance;\n        uint256 claimedCrv = CRV.balanceOf(conicPool) - crvBalance;\n\n        emit ClaimedRewards(claimedCrv, claimedCvx);\n    }\n\n    /// @notice Swaps all additional rewards tokens for CNC.\n    function _sellRewardTokens() internal {\n        uint256 extraRewardsLength_ = _extraRewards.length();\n        if (extraRewardsLength_ == 0) return;\n        for (uint256 i; i < extraRewardsLength_; i++) {\n            IERC20(_extraRewards.at(i)).safeTransferFrom(\n                conicPool,\n                address(this),\n                IERC20(_extraRewards.at(i)).balanceOf(conicPool)\n            );\n            _swapRewardTokenForWeth(_extraRewards.at(i));\n        }\n        _swapWethForCNC();\n    }\n\n    function listExtraRewards() external view returns (address[] memory) {\n        return _extraRewards.values();\n    }\n\n    function addExtraReward(address reward) public override onlyOwner returns (bool) {\n        require(reward != address(0), \"invalid address\");\n        require(!_extraRewards.contains(reward), \"already added\");\n        require(\n            reward != address(CVX) &&\n                reward != address(CRV) &&\n                reward != address(underlying) &&\n                reward != address(CNC),\n            \"token not allowed\"\n        );\n\n        // Checking reward token isn't a Curve Pool LP Token\n        address[] memory pools = IConicPool(conicPool).allPools();\n        for (uint256 i; i < pools.length; i++) {\n            address curveLpToken_ = controller.poolAdapterFor(pools[i]).lpToken(pools[i]);\n            require(reward != curveLpToken_, \"token not allowed\");\n        }\n\n        IConicPool(conicPool).updateRewardSpendingApproval(reward, true);\n        IERC20(reward).safeApprove(address(SUSHISWAP), 0);\n        IERC20(reward).safeApprove(address(SUSHISWAP), type(uint256).max);\n        emit ExtraRewardAdded(reward);\n        return _extraRewards.add(reward);\n    }\n\n    function addBatchExtraRewards(address[] memory _rewards) external override onlyOwner {\n        for (uint256 i; i < _rewards.length; i++) {\n            addExtraReward(_rewards[i]);\n        }\n    }\n\n    function removeExtraReward(address tokenAddress) external onlyOwner {\n        require(_extraRewards.contains(tokenAddress), \"not added\");\n        _extraRewards.remove(tokenAddress);\n        IConicPool(conicPool).updateRewardSpendingApproval(tokenAddress, false);\n        emit ExtraRewardRemoved(tokenAddress);\n    }\n\n    function setExtraRewardsCurvePool(address extraReward_, address curvePool_) external onlyOwner {\n        require(curvePool_ != extraRewardsCurvePool[extraReward_], \"must be different to current\");\n        if (curvePool_ != address(0)) {\n            IERC20(extraReward_).safeApprove(curvePool_, 0);\n            IERC20(extraReward_).safeApprove(curvePool_, type(uint256).max);\n        }\n        extraRewardsCurvePool[extraReward_] = curvePool_;\n        emit ExtraRewardsCurvePoolSet(extraReward_, curvePool_);\n    }\n\n    function setFeePercentage(uint256 _feePercentage) external override onlyOwner {\n        require(_feePercentage < MAX_FEE_PERCENTAGE, \"cannot set fee percentage to more than 30%\");\n        require(_feePercentage != feePercentage, \"must be different to current\");\n        require(address(controller.feeRecipient()) != address(0), \"fee recipient not set\");\n        feePercentage = _feePercentage;\n        feesEnabled = _feePercentage > 0;\n        emit FeesSet(feePercentage);\n    }\n\n    function claimableRewards(\n        address account\n    ) external view returns (uint256 cncRewards, uint256 crvRewards, uint256 cvxRewards) {\n        uint256 _totalStaked = controller.lpTokenStaker().getBalanceForPool(conicPool);\n        (uint256 crvEarned, uint256 cvxEarned, uint256 cncEarned) = _getEarnedRewards();\n        uint256 userBalance = controller.lpTokenStaker().getUserBalanceForPool(conicPool, account);\n\n        cncRewards = _getClaimableReward(\n            account,\n            _CNC_KEY,\n            cncEarned,\n            userBalance,\n            _totalStaked,\n            false\n        );\n        crvRewards = _getClaimableReward(\n            account,\n            _CRV_KEY,\n            crvEarned,\n            userBalance,\n            _totalStaked,\n            feesEnabled\n        );\n        cvxRewards = _getClaimableReward(\n            account,\n            _CVX_KEY,\n            cvxEarned,\n            userBalance,\n            _totalStaked,\n            feesEnabled\n        );\n    }\n\n    function _getClaimableReward(\n        address account,\n        bytes32 key,\n        uint256 earned,\n        uint256 userBalance,\n        uint256 _totalSupply,\n        bool deductFee\n    ) internal view returns (uint256) {\n        RewardMeta storage meta = _rewardsMeta[key];\n        uint256 integral = meta.earnedIntegral;\n        if (_totalSupply > 0) {\n            if (deductFee) {\n                integral += earned.mulDown(ScaledMath.ONE - feePercentage).divDown(_totalSupply);\n            } else {\n                integral += earned.divDown(_totalSupply);\n            }\n        }\n        return\n            meta.accountShare[account] +\n            userBalance.mulDown(integral - meta.accountIntegral[account]);\n    }\n\n    function _swapRewardTokenForWeth(address rewardToken_) internal {\n        uint256 tokenBalance_ = IERC20(rewardToken_).balanceOf(address(this));\n        if (tokenBalance_ == 0) return;\n\n        ICurvePoolV2 curvePool_ = ICurvePoolV2(extraRewardsCurvePool[rewardToken_]);\n        if (address(curvePool_) != address(0)) {\n            (int128 i, int128 j, ) = controller.curveRegistryCache().coinIndices(\n                address(curvePool_),\n                rewardToken_,\n                address(WETH)\n            );\n            (uint256 from_, uint256 to_) = (uint256(uint128(i)), uint256(uint128(j)));\n            curvePool_.exchange(\n                from_,\n                to_,\n                tokenBalance_,\n                _minAmountOut(address(rewardToken_), address(WETH), tokenBalance_),\n                false,\n                address(this)\n            );\n            return;\n        }\n\n        address[] memory path_ = new address[](2);\n        path_[0] = rewardToken_;\n        path_[1] = address(WETH);\n        SUSHISWAP.swapExactTokensForTokens(\n            tokenBalance_,\n            _minAmountOut(address(rewardToken_), address(WETH), tokenBalance_),\n            path_,\n            address(this),\n            block.timestamp\n        );\n    }\n\n    function _swapWethForCNC() internal {\n        uint256 wethBalance_ = WETH.balanceOf(address(this));\n        if (wethBalance_ == 0) return;\n        CNC_ETH_POOL.exchange(\n            0,\n            1,\n            wethBalance_,\n            _minAmountOut(address(WETH), address(CNC), wethBalance_),\n            false,\n            conicPool\n        );\n    }\n\n    function _minAmountOut(\n        address tokenIn_,\n        address tokenOut_,\n        uint256 amountIn_\n    ) internal view returns (uint256) {\n        IOracle oracle_ = controller.priceOracle();\n\n        if (tokenIn_ == tokenOut_) {\n            return amountIn_;\n        }\n\n        // If we don't have a price for either token, we can't calculate the min amount out\n        // This should only ever happen for very minor tokens, so we accept the risk of not having\n        // slippage protection in that case\n        if (!oracle_.isTokenSupported(tokenIn_) || !oracle_.isTokenSupported(tokenOut_)) {\n            return 0;\n        }\n\n        return\n            amountIn_\n                .mulDown(oracle_.getUSDPrice(tokenIn_))\n                .divDown(oracle_.getUSDPrice(tokenOut_))\n                .convertScale(\n                    IERC20Metadata(tokenIn_).decimals(),\n                    IERC20Metadata(tokenOut_).decimals()\n                )\n                .mulDown(SLIPPAGE_THRESHOLD);\n    }\n}\n","sourcePath":"contracts/RewardManager.sol","type":"contract","deployment":{"address":"0x15C606C60AfcfaA8e57777d947C40E9204119532","chainid":"1","blockHeight":19079207}}