{"abi":[{"inputs":[{"internalType":"address","name":"cncToken_","type":"address"},{"internalType":"address","name":"curveRegistryCacheAddress_","type":"address"}],"stateMutability":"nonpayable","type":"constructor","name":"constructor"},{"anonymous":false,"inputs":[{"indexed":false,"internalType":"address","name":"bonding","type":"address"}],"name":"BondingSet","type":"event"},{"anonymous":false,"inputs":[{"indexed":false,"internalType":"address","name":"convexBooster","type":"address"}],"name":"ConvexBoosterSet","type":"event"},{"anonymous":false,"inputs":[{"indexed":false,"internalType":"address","name":"convexHandler","type":"address"}],"name":"ConvexHandlerSet","type":"event"},{"anonymous":false,"inputs":[{"indexed":false,"internalType":"address","name":"curveHandler","type":"address"}],"name":"CurveHandlerSet","type":"event"},{"anonymous":false,"inputs":[{"indexed":false,"internalType":"address","name":"curveRegistryCache","type":"address"}],"name":"CurveRegistryCacheSet","type":"event"},{"anonymous":false,"inputs":[{"indexed":true,"internalType":"address","name":"pool","type":"address"},{"indexed":false,"internalType":"address","name":"poolAdapter","type":"address"}],"name":"CustomPoolAdapterSet","type":"event"},{"anonymous":false,"inputs":[{"indexed":false,"internalType":"address","name":"poolAdapter","type":"address"}],"name":"DefaultPoolAdapterSet","type":"event"},{"anonymous":false,"inputs":[{"indexed":false,"internalType":"address","name":"feeRecipient","type":"address"}],"name":"FeeRecipientSet","type":"event"},{"anonymous":false,"inputs":[{"indexed":false,"internalType":"address","name":"inflationManager","type":"address"}],"name":"InflationManagerSet","type":"event"},{"anonymous":false,"inputs":[{"indexed":false,"internalType":"uint8","name":"version","type":"uint8"}],"name":"Initialized","type":"event"},{"anonymous":false,"inputs":[{"indexed":true,"internalType":"address","name":"token","type":"address"},{"indexed":false,"internalType":"uint256","name":"amount","type":"uint256"}],"name":"MinimumTaintedTransferAmountSet","type":"event"},{"anonymous":false,"inputs":[{"indexed":false,"internalType":"address","name":"pool","type":"address"},{"indexed":false,"internalType":"bool","name":"allowed","type":"bool"}],"name":"MultiDepositsWithdrawsWhitelistSet","type":"event"},{"anonymous":false,"inputs":[{"indexed":true,"internalType":"address","name":"previousOwner","type":"address"},{"indexed":true,"internalType":"address","name":"newOwner","type":"address"}],"name":"OwnershipTransferred","type":"event"},{"anonymous":false,"inputs":[{"indexed":true,"internalType":"address","name":"manager","type":"address"},{"indexed":false,"internalType":"bool","name":"isManager","type":"bool"}],"name":"PauseManagerSet","type":"event"},{"anonymous":false,"inputs":[{"indexed":true,"internalType":"address","name":"pool","type":"address"}],"name":"PoolAdded","type":"event"},{"anonymous":false,"inputs":[{"indexed":true,"internalType":"address","name":"pool","type":"address"}],"name":"PoolRemoved","type":"event"},{"anonymous":false,"inputs":[{"indexed":true,"internalType":"address","name":"pool","type":"address"}],"name":"PoolShutdown","type":"event"},{"anonymous":false,"inputs":[{"indexed":false,"internalType":"address","name":"priceOracle","type":"address"}],"name":"PriceOracleSet","type":"event"},{"anonymous":false,"inputs":[{"indexed":false,"internalType":"uint256","name":"weightUpdateMinDelay","type":"uint256"}],"name":"WeightUpdateMinDelaySet","type":"event"},{"inputs":[],"name":"MAX_WEIGHT_UPDATE_MIN_DELAY","outputs":[{"internalType":"uint256","name":"","type":"uint256"}],"stateMutability":"view","type":"function"},{"inputs":[],"name":"MIN_WEIGHT_UPDATE_MIN_DELAY","outputs":[{"internalType":"uint256","name":"","type":"uint256"}],"stateMutability":"view","type":"function"},{"inputs":[{"internalType":"address","name":"poolAddress","type":"address"}],"name":"addPool","outputs":[],"stateMutability":"nonpayable","type":"function"},{"inputs":[],"name":"bonding","outputs":[{"internalType":"contract IBonding","name":"","type":"address"}],"stateMutability":"view","type":"function"},{"inputs":[],"name":"cncToken","outputs":[{"internalType":"address","name":"","type":"address"}],"stateMutability":"view","type":"function"},{"inputs":[],"name":"convexBooster","outputs":[{"internalType":"address","name":"","type":"address"}],"stateMutability":"view","type":"function"},{"inputs":[],"name":"convexHandler","outputs":[{"internalType":"address","name":"","type":"address"}],"stateMutability":"view","type":"function"},{"inputs":[],"name":"curveHandler","outputs":[{"internalType":"address","name":"","type":"address"}],"stateMutability":"view","type":"function"},{"inputs":[],"name":"curveRegistryCache","outputs":[{"internalType":"contract ICurveRegistryCache","name":"","type":"address"}],"stateMutability":"view","type":"function"},{"inputs":[],"name":"defaultPoolAdapter","outputs":[{"internalType":"contract IPoolAdapter","name":"","type":"address"}],"stateMutability":"view","type":"function"},{"inputs":[],"name":"feeRecipient","outputs":[{"internalType":"contract IFeeRecipient","name":"","type":"address"}],"stateMutability":"view","type":"function"},{"inputs":[{"internalType":"address","name":"token","type":"address"}],"name":"getMinimumTaintedTransferAmount","outputs":[{"internalType":"uint256","name":"","type":"uint256"}],"stateMutability":"view","type":"function"},{"inputs":[],"name":"getMultipleDepositsWithdrawsWhitelist","outputs":[{"internalType":"address[]","name":"","type":"address[]"}],"stateMutability":"view","type":"function"},{"inputs":[],"name":"inflationManager","outputs":[{"internalType":"contract IInflationManager","name":"","type":"address"}],"stateMutability":"view","type":"function"},{"inputs":[{"internalType":"address","name":"_lpTokenStaker","type":"address"}],"name":"initialize","outputs":[],"stateMutability":"nonpayable","type":"function"},{"inputs":[{"internalType":"address","name":"poolAddress","type":"address"}],"name":"isActivePool","outputs":[{"internalType":"bool","name":"","type":"bool"}],"stateMutability":"view","type":"function"},{"inputs":[{"internalType":"address","name":"account","type":"address"}],"name":"isAllowedMultipleDepositsWithdraws","outputs":[{"internalType":"bool","name":"","type":"bool"}],"stateMutability":"view","type":"function"},{"inputs":[{"internalType":"address","name":"account","type":"address"}],"name":"isPauseManager","outputs":[{"internalType":"bool","name":"","type":"bool"}],"stateMutability":"view","type":"function"},{"inputs":[{"internalType":"address","name":"poolAddress","type":"address"}],"name":"isPool","outputs":[{"internalType":"bool","name":"","type":"bool"}],"stateMutability":"view","type":"function"},{"inputs":[{"internalType":"address","name":"","type":"address"}],"name":"lastWeightUpdate","outputs":[{"internalType":"uint256","name":"","type":"uint256"}],"stateMutability":"view","type":"function"},{"inputs":[],"name":"listActivePools","outputs":[{"internalType":"address[]","name":"","type":"address[]"}],"stateMutability":"view","type":"function"},{"inputs":[],"name":"listPauseManagers","outputs":[{"internalType":"address[]","name":"","type":"address[]"}],"stateMutability":"view","type":"function"},{"inputs":[],"name":"listPools","outputs":[{"internalType":"address[]","name":"","type":"address[]"}],"stateMutability":"view","type":"function"},{"inputs":[],"name":"lpTokenStaker","outputs":[{"internalType":"contract ILpTokenStaker","name":"","type":"address"}],"stateMutability":"view","type":"function"},{"inputs":[],"name":"owner","outputs":[{"internalType":"address","name":"","type":"address"}],"stateMutability":"view","type":"function"},{"inputs":[{"internalType":"address","name":"pool","type":"address"}],"name":"poolAdapterFor","outputs":[{"internalType":"contract IPoolAdapter","name":"","type":"address"}],"stateMutability":"view","type":"function"},{"inputs":[],"name":"priceOracle","outputs":[{"internalType":"contract IGenericOracle","name":"","type":"address"}],"stateMutability":"view","type":"function"},{"inputs":[{"internalType":"address","name":"poolAddress","type":"address"}],"name":"removePool","outputs":[],"stateMutability":"nonpayable","type":"function"},{"inputs":[],"name":"renounceOwnership","outputs":[],"stateMutability":"nonpayable","type":"function"},{"inputs":[{"internalType":"address","name":"account","type":"address"},{"internalType":"bool","name":"allowed","type":"bool"}],"name":"setAllowedMultipleDepositsWithdraws","outputs":[],"stateMutability":"nonpayable","type":"function"},{"inputs":[{"internalType":"address","name":"_bonding","type":"address"}],"name":"setBonding","outputs":[],"stateMutability":"nonpayable","type":"function"},{"inputs":[{"internalType":"address","name":"_convexBooster","type":"address"}],"name":"setConvexBooster","outputs":[],"stateMutability":"nonpayable","type":"function"},{"inputs":[{"internalType":"address","name":"_convexHandler","type":"address"}],"name":"setConvexHandler","outputs":[],"stateMutability":"nonpayable","type":"function"},{"inputs":[{"internalType":"address","name":"_curveHandler","type":"address"}],"name":"setCurveHandler","outputs":[],"stateMutability":"nonpayable","type":"function"},{"inputs":[{"internalType":"address","name":"curveRegistryCache_","type":"address"}],"name":"setCurveRegistryCache","outputs":[],"stateMutability":"nonpayable","type":"function"},{"inputs":[{"internalType":"address","name":"pool","type":"address"},{"internalType":"address","name":"poolAdapter","type":"address"}],"name":"setCustomPoolAdapter","outputs":[],"stateMutability":"nonpayable","type":"function"},{"inputs":[{"internalType":"address","name":"poolAdapter","type":"address"}],"name":"setDefaultPoolAdapter","outputs":[],"stateMutability":"nonpayable","type":"function"},{"inputs":[{"internalType":"address","name":"_feeRecipient","type":"address"}],"name":"setFeeRecipient","outputs":[],"stateMutability":"nonpayable","type":"function"},{"inputs":[{"internalType":"address","name":"manager","type":"address"}],"name":"setInflationManager","outputs":[],"stateMutability":"nonpayable","type":"function"},{"inputs":[{"internalType":"address","name":"token","type":"address"},{"internalType":"uint256","name":"amount","type":"uint256"}],"name":"setMinimumTaintedTransferAmount","outputs":[],"stateMutability":"nonpayable","type":"function"},{"inputs":[{"internalType":"address","name":"account","type":"address"},{"internalType":"bool","name":"isManager","type":"bool"}],"name":"setPauseManager","outputs":[],"stateMutability":"nonpayable","type":"function"},{"inputs":[{"internalType":"address","name":"oracle","type":"address"}],"name":"setPriceOracle","outputs":[],"stateMutability":"nonpayable","type":"function"},{"inputs":[{"internalType":"uint256","name":"delay","type":"uint256"}],"name":"setWeightUpdateMinDelay","outputs":[],"stateMutability":"nonpayable","type":"function"},{"inputs":[{"internalType":"address","name":"poolAddress","type":"address"}],"name":"shutdownPool","outputs":[],"stateMutability":"nonpayable","type":"function"},{"inputs":[{"internalType":"address","name":"_lpTokenStaker","type":"address"}],"name":"switchLpTokenStaker","outputs":[],"stateMutability":"nonpayable","type":"function"},{"inputs":[{"internalType":"address","name":"newOwner","type":"address"}],"name":"transferOwnership","outputs":[],"stateMutability":"nonpayable","type":"function"},{"inputs":[{"components":[{"internalType":"address","name":"conicPoolAddress","type":"address"},{"components":[{"internalType":"address","name":"poolAddress","type":"address"},{"internalType":"uint256","name":"weight","type":"uint256"}],"internalType":"struct IConicPool.PoolWeight[]","name":"weights","type":"tuple[]"}],"internalType":"struct IController.WeightUpdate[]","name":"weights","type":"tuple[]"}],"name":"updateAllWeights","outputs":[],"stateMutability":"nonpayable","type":"function"},{"inputs":[{"components":[{"internalType":"address","name":"conicPoolAddress","type":"address"},{"components":[{"internalType":"address","name":"poolAddress","type":"address"},{"internalType":"uint256","name":"weight","type":"uint256"}],"internalType":"struct IConicPool.PoolWeight[]","name":"weights","type":"tuple[]"}],"internalType":"struct IController.WeightUpdate","name":"update","type":"tuple"}],"name":"updateWeights","outputs":[],"stateMutability":"nonpayable","type":"function"},{"inputs":[],"name":"weightUpdateMinDelay","outputs":[{"internalType":"uint256","name":"","type":"uint256"}],"stateMutability":"view","type":"function"}],"bytecode":"60a0604052600a80546001600160a01b03191673f403c135812408bfbe8713b5a23a04b3d48aae311790553480156200003757600080fd5b50604051620027f1380380620027f18339810160408190526200005a91620000fb565b62000065336200008e565b6001600160a01b03918216608052600e80546001600160a01b0319169190921617905562000133565b600080546001600160a01b038381166001600160a01b0319831681178455604051919092169283917f8be0079c531659141344cd1fd0a4f28419497f9722a3daafe3b4186f6b6457e09190a35050565b80516001600160a01b0381168114620000f657600080fd5b919050565b600080604083850312156200010f57600080fd5b6200011a83620000de565b91506200012a60208401620000de565b90509250929050565b6080516126a26200014f600039600061048f01526126a26000f3fe608060405234801561001057600080fd5b50600436106102bb5760003560e01c8063715018a6116101825780639f82b217116100e9578063d6d7537e116100a2578063e17a803d1161007c578063e17a803d14610647578063e74b981b1461065a578063f2fde38b1461066d578063fa5d10581461068057600080fd5b8063d6d7537e1461060e578063d914cd4b14610621578063dbcd89fa1461063457600080fd5b80639f82b217146105a5578063b050ecb8146105b8578063b1bd815b146105cb578063ba3c2847146105de578063c3bb30b5146105e8578063c4d66de8146105fb57600080fd5b8063827edb8f1161013b578063827edb8f1461053e57806388beb5d5146105515780638da5cb5b1461056457806398457559146105755780639c306073146105885780639ee861571461059257600080fd5b8063715018a6146104cc57806371b1b460146104d457806372b11179146104fd5780637f4c43ac146105055780638097354f1461051857806381e0f7651461052b57600080fd5b8063469048401161022657806355eb6b35116101df57806355eb6b35146104515780635a991917146104645780635b16ebb714610477578063645d28a81461048a57806364b0aa94146104b157806368795862146104c457600080fd5b806346904840146103cf57806348439e7e146103e25780634eb3ffc3146103f557806350fa7c3e1461041857806352e3d3311461042b578063530e784f1461043e57600080fd5b80632630c12f116102785780632630c12f146103455780632cdacb50146103705780633693dd6814610383578063388793ed146103965780633b7d0946146103a95780633c355c4c146103bc57600080fd5b80630589c0bd146102c057806308502197146102de5780630e2cf72d1461030c578063100f285914610321578063172cc335146103295780631988a1071461033c575b600080fd5b6102c8610693565b6040516102d59190612000565b60405180910390f35b6102fe6102ec366004612062565b60166020526000908152604090205481565b6040519081526020016102d5565b61031f61031a36600461207f565b6106a4565b005b6102c86107b2565b61031f610337366004612062565b6107be565b6102fe60155481565b600d54610358906001600160a01b031681565b6040516001600160a01b0390911681526020016102d5565b600a54610358906001600160a01b031681565b601454610358906001600160a01b031681565b61031f6103a43660046120a6565b610887565b61031f6103b7366004612062565b610906565b61031f6103ca3660046120a6565b6109f8565b601254610358906001600160a01b031681565b601054610358906001600160a01b031681565b610408610403366004612062565b610a74565b60405190151581526020016102d5565b61031f610426366004612062565b610a87565b61031f610439366004612062565b610b61565b61031f61044c366004612062565b610c3b565b61035861045f366004612062565b610d09565b600b54610358906001600160a01b031681565b610408610485366004612062565b610d46565b6103587f000000000000000000000000000000000000000000000000000000000000000081565b61031f6104bf366004612062565b610d53565b6102c8610e9c565b61031f610ea8565b6102fe6104e2366004612062565b6001600160a01b031660009081526009602052604090205490565b6102c8610ebc565b61031f610513366004612062565b610ec8565b610408610526366004612062565b610f9b565b61031f610539366004612255565b610fa8565b61031f61054c366004612062565b610ff4565b61031f61055f366004612062565b61112d565b6000546001600160a01b0316610358565b601154610358906001600160a01b031681565b6102fe621baf8081565b61031f6105a0366004612306565b6111d7565b600e54610358906001600160a01b031681565b600c54610358906001600160a01b031681565b61031f6105d9366004612332565b61149e565b6102fe6201518081565b61031f6105f6366004612062565b611579565b61031f610609366004612062565b6116e6565b61040861061c366004612062565b61182d565b61031f61062f366004612062565b61183a565b600f54610358906001600160a01b031681565b61031f610655366004612360565b611982565b61031f610668366004612062565b611a81565b61031f61067b366004612062565b611b50565b61031f61068e366004612062565b611bc9565b606061069f6005611c72565b905090565b6106ac611c7f565b621baf8081106106f45760405162461bcd60e51b815260206004820152600e60248201526d64656c617920746f6f206c6f6e6760901b60448201526064015b60405180910390fd5b6201518081116107385760405162461bcd60e51b815260206004820152600f60248201526e19195b185e481d1bdbc81cda1bdc9d608a1b60448201526064016106eb565b60155481036107765760405162461bcd60e51b815260206004820152600a60248201526973616d652064656c617960b01b60448201526064016106eb565b60158190556040518181527f4cbbfb8b36940e62c2ed74c76e6470d94fe291696433dab19272e011ed311588906020015b60405180910390a150565b606061069f6007611c72565b6107c6611c7f565b6001600160a01b0381166107ec5760405162461bcd60e51b81526004016106eb90612395565b6011546001600160a01b03908116908216036108395760405162461bcd60e51b815260206004820152600c60248201526b73616d6520626f6e64696e6760a01b60448201526064016106eb565b601180546001600160a01b0319166001600160a01b0383169081179091556040519081527f031579ee5e04b0905c1e20ecbaa48c4a65ff836ea81eb46e5a0c47295e07404f906020016107a7565b61088f611c7f565b600081156108a9576108a2600784611cd9565b90506108b7565b6108b4600784611cee565b90505b801561090157604080516001600160a01b038516815283151560208201527f3847778f66347b91d6d6d7ecc6a686b0798b29405595fca791ee2fbb28e0f09b910160405180910390a15b505050565b61090e611c7f565b610919600182611cee565b61095d5760405162461bcd60e51b815260206004820152601560248201527419985a5b1959081d1bc81c995b5bdd99481c1bdbdb605a1b60448201526064016106eb565b610968600382611d03565b156109c15760405162461bcd60e51b8152602060048201526024808201527f73687574646f776e2074686520706f6f6c206265666f72652072656d6f76696e60448201526319c81a5d60e21b60648201526084016106eb565b6040516001600160a01b038216907f4106dfdaa577573db51c0ca93f766dbedfa0758faa2e7f5bcdb7c142be803c3f90600090a250565b610a00611c7f565b600081610a1757610a12600584611cee565b610a22565b610a22600584611cd9565b9050801561090157826001600160a01b03167f6e08c212f0c3f8318d18fdd0fac7505eddc2807d9a2cf0131886b4798c0f14b283604051610a67911515815260200190565b60405180910390a2505050565b6000610a81600583611d03565b92915050565b610a8f611c7f565b6001600160a01b038116610ab55760405162461bcd60e51b81526004016106eb90612395565b6014546001600160a01b0390811690821603610b135760405162461bcd60e51b815260206004820152601960248201527f73616d652064656661756c7420706f6f6c20616461707465720000000000000060448201526064016106eb565b601480546001600160a01b0319166001600160a01b0383169081179091556040519081527fa7f1d9ca15550452fa843fbd95689ebd62fc20be7f3778ed32a5481652599a14906020016107a7565b610b69611c7f565b6001600160a01b038116610b8f5760405162461bcd60e51b81526004016106eb90612395565b600e546001600160a01b0390811690821603610bed5760405162461bcd60e51b815260206004820152601960248201527f73616d652063757276652072656769737472792063616368650000000000000060448201526064016106eb565b600e80546001600160a01b0319166001600160a01b0383169081179091556040519081527f804d6412ec50674626ecd09727ed034ced85412d702250057e5a869d9d82392d906020016107a7565b610c43611c7f565b6001600160a01b038116610c695760405162461bcd60e51b81526004016106eb90612395565b600d546001600160a01b0390811690821603610cbb5760405162461bcd60e51b815260206004820152601160248201527073616d65207072696365206f7261636c6560781b60448201526064016106eb565b600d80546001600160a01b0319166001600160a01b0383169081179091556040519081527f6536690106168bdf4ba72c128a053d817999b1db90cae23f139b293bf862cb75906020016107a7565b6001600160a01b038082166000908152601360205260408120549091168015610d325780610d3f565b6014546001600160a01b03165b9392505050565b6000610a81600183611d03565b610d5b611c7f565b610d66600382611cee565b610daa5760405162461bcd60e51b815260206004820152601560248201527419985a5b1959081d1bc81c995b5bdd99481c1bdbdb605a1b60448201526064016106eb565b806001600160a01b031663d6038dc66040518163ffffffff1660e01b8152600401600060405180830381600087803b158015610de557600080fd5b505af1158015610df9573d6000803e3d6000fd5b50505050600f60009054906101000a90046001600160a01b03166001600160a01b0316633dc4f7de6040518163ffffffff1660e01b8152600401600060405180830381600087803b158015610e4d57600080fd5b505af1158015610e61573d6000803e3d6000fd5b50506040516001600160a01b03841692507f1b2b64a5d6ff166112cd9f1d7e3a30ad9a1e236c68c0c58c965368f3b56d542c9150600090a250565b606061069f6001611c72565b610eb0611c7f565b610eba6000611d25565b565b606061069f6003611c72565b610ed0611c7f565b6001600160a01b038116610ef65760405162461bcd60e51b81526004016106eb90612395565b600f546001600160a01b0390811690821603610f4d5760405162461bcd60e51b815260206004820152601660248201527539b0b6b29034b7333630ba34b7b71036b0b730b3b2b960511b60448201526064016106eb565b600f80546001600160a01b0319166001600160a01b0383169081179091556040519081527f1807368dab7e70053cc95c16cee46c8b354ce67fa6610400c469d35b56620140906020016107a7565b6000610a81600383611d03565b610fb0611c7f565b60005b8151811015610ff057610fde828281518110610fd157610fd16123cc565b6020026020010151611982565b80610fe8816123f8565b915050610fb3565b5050565b610ffc611c7f565b601060009054906101000a90046001600160a01b03166001600160a01b031663fc0e74d16040518163ffffffff1660e01b8152600401600060405180830381600087803b15801561104c57600080fd5b505af1158015611060573d6000803e3d6000fd5b5050601080546001600160a01b0319166001600160a01b03851617905550600090505b61108d6001611d75565b811015610ff0576010546001600160a01b031663a972985e6110b0600184611d7f565b6040516001600160e01b031960e084901b1681526001600160a01b0390911660048201526024016020604051808303816000875af11580156110f6573d6000803e3d6000fd5b505050506040513d601f19601f8201168201806040525081019061111a9190612411565b5080611125816123f8565b915050611083565b611135611c7f565b600c546001600160a01b03908116908216036111895760405162461bcd60e51b815260206004820152601360248201527239b0b6b29031b7b73b32bc103430b7323632b960691b60448201526064016106eb565b600c80546001600160a01b0319166001600160a01b0383169081179091556040519081527f78c0d5a329a7d476b56bc10ad7e2fd11a0433fb6f1ffd12b28b3b3a7ce5cdba9906020016107a7565b6111df611c7f565b6001600160a01b03821660009081526009602052604090205481036112345760405162461bcd60e51b815260206004820152600b60248201526a1cd85b5948185b5bdd5b9d60aa1b60448201526064016106eb565b6000826001600160a01b031663075461726040518163ffffffff1660e01b8152600401602060405180830381865afa158015611274573d6000803e3d6000fd5b505050506040513d601f19601f82011682018060405250810190611298919061242a565b90506000816001600160a01b0316636f307dc36040518163ffffffff1660e01b8152600401602060405180830381865afa1580156112da573d6000803e3d6000fd5b505050506040513d601f19601f820116820180604052508101906112fe919061242a565b600d54604051638b2f0f4f60e01b81526001600160a01b03808416600483015292935060009290911690638b2f0f4f90602401602060405180830381865afa15801561134e573d6000803e3d6000fd5b505050506040513d601f19601f820116820180604052508101906113729190612411565b905060006113e4836001600160a01b031663313ce5676040518163ffffffff1660e01b8152600401602060405180830381865afa1580156113b7573d6000803e3d6000fd5b505050506040513d601f19601f820116820180604052508101906113db9190612447565b86906012611d8b565b905060006113f28284611dd4565b905069021e19e0c9bab24000008111156114405760405162461bcd60e51b815260206004820152600f60248201526e0c2dadeeadce840e8dede40d0d2ced608b1b60448201526064016106eb565b6001600160a01b03871660008181526009602052604090819020889055517f880ef00c8805fc02a281172ffb91adb25137e2e692d9f0b24e13382e0d107ff19061148d9089815260200190565b60405180910390a250505050505050565b6114a6611c7f565b6001600160a01b038083166000908152601360205260409020548116908216036115125760405162461bcd60e51b815260206004820152601860248201527f73616d6520637573746f6d20706f6f6c2061646170746572000000000000000060448201526064016106eb565b6001600160a01b0382811660008181526013602090815260409182902080546001600160a01b0319169486169485179055905192835290917f2f17401e7e83797c1ca2deb3077675db760b04f2e49c233e908c3ebc68c7ca1b910160405180910390a25050565b611581611c7f565b600a60009054906101000a90046001600160a01b03166001600160a01b031663bf86d6906040518163ffffffff1660e01b8152600401602060405180830381865afa1580156115d4573d6000803e3d6000fd5b505050506040513d601f19601f820116820180604052508101906115f8919061246a565b6116445760405162461bcd60e51b815260206004820152601f60248201527f63757272656e7420626f6f73746572206973206e6f742073687574646f776e0060448201526064016106eb565b600a546001600160a01b03908116908216036116985760405162461bcd60e51b815260206004820152601360248201527239b0b6b29031b7b73b32bc103137b7b9ba32b960691b60448201526064016106eb565b600a80546001600160a01b0319166001600160a01b0383169081179091556040519081527f753f93638ea37a2df364592f0884f853232995f9d2834affdeb30031ab97b376906020016107a7565b6116ee611c7f565b600054600160a81b900460ff161580801561171657506000546001600160a01b90910460ff16105b806117375750303b1580156117375750600054600160a01b900460ff166001145b61179a5760405162461bcd60e51b815260206004820152602e60248201527f496e697469616c697a61626c653a20636f6e747261637420697320616c72656160448201526d191e481a5b9a5d1a585b1a5e995960921b60648201526084016106eb565b6000805460ff60a01b1916600160a01b17905580156117c7576000805460ff60a81b1916600160a81b1790555b601080546001600160a01b0319166001600160a01b0384161790558015610ff0576000805460ff60a81b19169055604051600181527f7f26b83ff96e1f2b6a682f133852f6798a09c465da95921460cefb38474024989060200160405180910390a15050565b6000610a81600783611d03565b611842611c7f565b61184d600182611cd9565b61188e5760405162461bcd60e51b815260206004820152601260248201527119985a5b1959081d1bc8185919081c1bdbdb60721b60448201526064016106eb565b611899600382611cd9565b6118da5760405162461bcd60e51b815260206004820152601260248201527119985a5b1959081d1bc8185919081c1bdbdb60721b60448201526064016106eb565b6010546040516354b94c2f60e11b81526001600160a01b0383811660048301529091169063a972985e906024016020604051808303816000875af1158015611926573d6000803e3d6000fd5b505050506040513d601f19601f8201168201806040525081019061194a9190612411565b506040516001600160a01b038216907f73cca62ab1b520c9715bf4e6c71e3e518c754e7148f65102f43289a7df0efea690600090a250565b61198a611c7f565b60155481516001600160a01b031660009081526016602052604090205442916119b291612487565b106119ff5760405162461bcd60e51b815260206004820152601f60248201527f776569676874207570646174652064656c6179206e6f7420656c61707365640060448201526064016106eb565b80516020820151604051638dbfb25b60e01b81526001600160a01b0390921691638dbfb25b91611a319160040161249a565b600060405180830381600087803b158015611a4b57600080fd5b505af1158015611a5f573d6000803e3d6000fd5b505091516001600160a01b031660009081526016602052604090204290555050565b611a89611c7f565b6001600160a01b038116611aaf5760405162461bcd60e51b81526004016106eb90612395565b6012546001600160a01b0390811690821603611b025760405162461bcd60e51b81526020600482015260126024820152711cd85b5948199959481c9958da5c1a595b9d60721b60448201526064016106eb565b601280546001600160a01b0319166001600160a01b0383169081179091556040519081527fbf9a9534339a9d6b81696e05dcfb614b7dc518a31d48be3cfb757988381fb323906020016107a7565b611b58611c7f565b6001600160a01b038116611bbd5760405162461bcd60e51b815260206004820152602660248201527f4f776e61626c653a206e6577206f776e657220697320746865207a65726f206160448201526564647265737360d01b60648201526084016106eb565b611bc681611d25565b50565b611bd1611c7f565b600b546001600160a01b0390811690821603611c245760405162461bcd60e51b815260206004820152601260248201527139b0b6b29031bab93b32903430b7323632b960711b60448201526064016106eb565b600b80546001600160a01b0319166001600160a01b0383169081179091556040519081527f40f17cc99608acc0aa583a98bd741564e79111d55e65adc0399f400a707d4831906020016107a7565b60606000610d3f83611df6565b6000546001600160a01b03163314610eba5760405162461bcd60e51b815260206004820181905260248201527f4f776e61626c653a2063616c6c6572206973206e6f7420746865206f776e657260448201526064016106eb565b6000610d3f836001600160a01b038416611e52565b6000610d3f836001600160a01b038416611ea1565b6001600160a01b03811660009081526001830160205260408120541515610d3f565b600080546001600160a01b038381166001600160a01b0319831681178455604051919092169283917f8be0079c531659141344cd1fd0a4f28419497f9722a3daafe3b4186f6b6457e09190a35050565b6000610a81825490565b6000610d3f8383611f94565b60008160ff168360ff1603611da1575082610d3f565b8160ff168360ff161115611dc157611dba848484611fbe565b9050610d3f565b611dcc848484611fdf565b949350505050565b6000611de26012600a6125d6565b611dec83856125e2565b610d3f91906125f9565b606081600001805480602002602001604051908101604052809291908181526020018280548015611e4657602002820191906000526020600020905b815481526020019060010190808311611e32575b50505050509050919050565b6000818152600183016020526040812054611e9957508154600181810184556000848152602080822090930184905584548482528286019093526040902091909155610a81565b506000610a81565b60008181526001830160205260408120548015611f8a576000611ec560018361261b565b8554909150600090611ed99060019061261b565b9050818114611f3e576000866000018281548110611ef957611ef96123cc565b9060005260206000200154905080876000018481548110611f1c57611f1c6123cc565b6000918252602080832090910192909255918252600188019052604090208390555b8554869080611f4f57611f4f61262e565b600190038181906000526020600020016000905590558560010160008681526020019081526020016000206000905560019350505050610a81565b6000915050610a81565b6000826000018281548110611fab57611fab6123cc565b9060005260206000200154905092915050565b6000611fca8284612644565b611fd590600a61265d565b611dcc90856125f9565b6000611feb8383612644565b611ff690600a61265d565b611dcc90856125e2565b6020808252825182820181905260009190848201906040850190845b818110156120415783516001600160a01b03168352928401929184019160010161201c565b50909695505050505050565b6001600160a01b0381168114611bc657600080fd5b60006020828403121561207457600080fd5b8135610d3f8161204d565b60006020828403121561209157600080fd5b5035919050565b8015158114611bc657600080fd5b600080604083850312156120b957600080fd5b82356120c48161204d565b915060208301356120d481612098565b809150509250929050565b634e487b7160e01b600052604160045260246000fd5b6040805190810167ffffffffffffffff81118282101715612118576121186120df565b60405290565b604051601f8201601f1916810167ffffffffffffffff81118282101715612147576121476120df565b604052919050565b600067ffffffffffffffff821115612169576121696120df565b5060051b60200190565b6000604080838503121561218657600080fd5b61218e6120f5565b9150823561219b8161204d565b825260208381013567ffffffffffffffff8111156121b857600080fd5b8401601f810186136121c957600080fd5b80356121dc6121d78261214f565b61211e565b81815260069190911b820183019083810190888311156121fb57600080fd5b928401925b828410156122445785848a0312156122185760008081fd5b6122206120f5565b843561222b8161204d565b8152848601358682015282529285019290840190612200565b808588015250505050505092915050565b6000602080838503121561226857600080fd5b823567ffffffffffffffff8082111561228057600080fd5b818501915085601f83011261229457600080fd5b81356122a26121d78261214f565b81815260059190911b830184019084810190888311156122c157600080fd5b8585015b838110156122f9578035858111156122dd5760008081fd5b6122eb8b89838a0101612173565b8452509186019186016122c5565b5098975050505050505050565b6000806040838503121561231957600080fd5b82356123248161204d565b946020939093013593505050565b6000806040838503121561234557600080fd5b82356123508161204d565b915060208301356120d48161204d565b60006020828403121561237257600080fd5b813567ffffffffffffffff81111561238957600080fd5b611dcc84828501612173565b6020808252601a908201527f63616e6e6f742073657420746f207a65726f2061646472657373000000000000604082015260600190565b634e487b7160e01b600052603260045260246000fd5b634e487b7160e01b600052601160045260246000fd5b60006001820161240a5761240a6123e2565b5060010190565b60006020828403121561242357600080fd5b5051919050565b60006020828403121561243c57600080fd5b8151610d3f8161204d565b60006020828403121561245957600080fd5b815160ff81168114610d3f57600080fd5b60006020828403121561247c57600080fd5b8151610d3f81612098565b80820180821115610a8157610a816123e2565b602080825282518282018190526000919060409081850190868401855b828110156124e557815180516001600160a01b031685528601518685015292840192908501906001016124b7565b5091979650505050505050565b600181815b8085111561252d578160001904821115612513576125136123e2565b8085161561252057918102915b93841c93908002906124f7565b509250929050565b60008261254457506001610a81565b8161255157506000610a81565b816001811461256757600281146125715761258d565b6001915050610a81565b60ff841115612582576125826123e2565b50506001821b610a81565b5060208310610133831016604e8410600b84101617156125b0575081810a610a81565b6125ba83836124f2565b80600019048211156125ce576125ce6123e2565b029392505050565b6000610d3f8383612535565b8082028115828204841417610a8157610a816123e2565b60008261261657634e487b7160e01b600052601260045260246000fd5b500490565b81810381811115610a8157610a816123e2565b634e487b7160e01b600052603160045260246000fd5b60ff8281168282160390811115610a8157610a816123e2565b6000610d3f60ff84168361253556fea26469706673582212203ae909580b7eeb77da9f9353bea14543049be254b8feb8961fd99f423380e37e64736f6c63430008110033","bytecodeSha1":"5e3c6b5755ced69ddd8022bd75de13b438fd13c1","compiler":{"evm_version":"london","optimizer":{"enabled":true,"runs":200},"version":"0.8.17+commit.8df45f5f"},"contractName":"Controller","language":"Solidity","natspec":{"kind":"dev","methods":{"owner()":{"details":"Returns the address of the current owner."},"renounceOwnership()":{"details":"Leaves the contract without owner. It will not be possible to call `onlyOwner` functions. Can only be called by the current owner. NOTE: Renouncing ownership will leave the contract without an owner, thereby disabling any functionality that is only available to the owner."},"switchLpTokenStaker(address)":{"notice":"shut downs the current lp token staker and sets a new one"},"transferOwnership(address)":{"details":"Transfers ownership of the contract to a new account (`newOwner`). Can only be called by the current owner."}},"version":1},"opcodes":"PUSH1 0x80 PUSH1 0x40 MSTORE CALLVALUE DUP1 ISZERO PUSH2 0x10 JUMPI PUSH1 0x0 DUP1 REVERT JUMPDEST POP PUSH1 0x4 CALLDATASIZE LT PUSH2 0x2BB JUMPI PUSH1 0x0 CALLDATALOAD PUSH1 0xE0 SHR DUP1 PUSH4 0x715018A6 GT PUSH2 0x182 JUMPI DUP1 PUSH4 0x9F82B217 GT PUSH2 0xE9 JUMPI DUP1 PUSH4 0xD6D7537E GT PUSH2 0xA2 JUMPI DUP1 PUSH4 0xE17A803D GT PUSH2 0x7C JUMPI DUP1 PUSH4 0xE17A803D EQ PUSH2 0x647 JUMPI DUP1 PUSH4 0xE74B981B EQ PUSH2 0x65A JUMPI DUP1 PUSH4 0xF2FDE38B EQ PUSH2 0x66D JUMPI DUP1 PUSH4 0xFA5D1058 EQ PUSH2 0x680 JUMPI PUSH1 0x0 DUP1 REVERT JUMPDEST DUP1 PUSH4 0xD6D7537E EQ PUSH2 0x60E JUMPI DUP1 PUSH4 0xD914CD4B EQ PUSH2 0x621 JUMPI DUP1 PUSH4 0xDBCD89FA EQ PUSH2 0x634 JUMPI PUSH1 0x0 DUP1 REVERT JUMPDEST DUP1 PUSH4 0x9F82B217 EQ PUSH2 0x5A5 JUMPI DUP1 PUSH4 0xB050ECB8 EQ PUSH2 0x5B8 JUMPI DUP1 PUSH4 0xB1BD815B EQ PUSH2 0x5CB JUMPI DUP1 PUSH4 0xBA3C2847 EQ PUSH2 0x5DE JUMPI DUP1 PUSH4 0xC3BB30B5 EQ PUSH2 0x5E8 JUMPI DUP1 PUSH4 0xC4D66DE8 EQ PUSH2 0x5FB JUMPI PUSH1 0x0 DUP1 REVERT JUMPDEST DUP1 PUSH4 0x827EDB8F GT PUSH2 0x13B JUMPI DUP1 PUSH4 0x827EDB8F EQ PUSH2 0x53E JUMPI DUP1 PUSH4 0x88BEB5D5 EQ PUSH2 0x551 JUMPI DUP1 PUSH4 0x8DA5CB5B EQ PUSH2 0x564 JUMPI DUP1 PUSH4 0x98457559 EQ PUSH2 0x575 JUMPI DUP1 PUSH4 0x9C306073 EQ PUSH2 0x588 JUMPI DUP1 PUSH4 0x9EE86157 EQ PUSH2 0x592 JUMPI PUSH1 0x0 DUP1 REVERT JUMPDEST DUP1 PUSH4 0x715018A6 EQ PUSH2 0x4CC JUMPI DUP1 PUSH4 0x71B1B460 EQ PUSH2 0x4D4 JUMPI DUP1 PUSH4 0x72B11179 EQ PUSH2 0x4FD JUMPI DUP1 PUSH4 0x7F4C43AC EQ PUSH2 0x505 JUMPI DUP1 PUSH4 0x8097354F EQ PUSH2 0x518 JUMPI DUP1 PUSH4 0x81E0F765 EQ PUSH2 0x52B JUMPI PUSH1 0x0 DUP1 REVERT JUMPDEST DUP1 PUSH4 0x46904840 GT PUSH2 0x226 JUMPI DUP1 PUSH4 0x55EB6B35 GT PUSH2 0x1DF JUMPI DUP1 PUSH4 0x55EB6B35 EQ PUSH2 0x451 JUMPI DUP1 PUSH4 0x5A991917 EQ PUSH2 0x464 JUMPI DUP1 PUSH4 0x5B16EBB7 EQ PUSH2 0x477 JUMPI DUP1 PUSH4 0x645D28A8 EQ PUSH2 0x48A JUMPI DUP1 PUSH4 0x64B0AA94 EQ PUSH2 0x4B1 JUMPI DUP1 PUSH4 0x68795862 EQ PUSH2 0x4C4 JUMPI PUSH1 0x0 DUP1 REVERT JUMPDEST DUP1 PUSH4 0x46904840 EQ PUSH2 0x3CF JUMPI DUP1 PUSH4 0x48439E7E EQ PUSH2 0x3E2 JUMPI DUP1 PUSH4 0x4EB3FFC3 EQ PUSH2 0x3F5 JUMPI DUP1 PUSH4 0x50FA7C3E EQ PUSH2 0x418 JUMPI DUP1 PUSH4 0x52E3D331 EQ PUSH2 0x42B JUMPI DUP1 PUSH4 0x530E784F EQ PUSH2 0x43E JUMPI PUSH1 0x0 DUP1 REVERT JUMPDEST DUP1 PUSH4 0x2630C12F GT PUSH2 0x278 JUMPI DUP1 PUSH4 0x2630C12F EQ PUSH2 0x345 JUMPI DUP1 PUSH4 0x2CDACB50 EQ PUSH2 0x370 JUMPI DUP1 PUSH4 0x3693DD68 EQ PUSH2 0x383 JUMPI DUP1 PUSH4 0x388793ED EQ PUSH2 0x396 JUMPI DUP1 PUSH4 0x3B7D0946 EQ PUSH2 0x3A9 JUMPI DUP1 PUSH4 0x3C355C4C EQ PUSH2 0x3BC JUMPI PUSH1 0x0 DUP1 REVERT JUMPDEST DUP1 PUSH4 0x589C0BD EQ PUSH2 0x2C0 JUMPI DUP1 PUSH4 0x8502197 EQ PUSH2 0x2DE JUMPI DUP1 PUSH4 0xE2CF72D EQ PUSH2 0x30C JUMPI DUP1 PUSH4 0x100F2859 EQ PUSH2 0x321 JUMPI DUP1 PUSH4 0x172CC335 EQ PUSH2 0x329 JUMPI DUP1 PUSH4 0x1988A107 EQ PUSH2 0x33C JUMPI JUMPDEST PUSH1 0x0 DUP1 REVERT JUMPDEST PUSH2 0x2C8 PUSH2 0x693 JUMP JUMPDEST PUSH1 0x40 MLOAD PUSH2 0x2D5 SWAP2 SWAP1 PUSH2 0x2000 JUMP JUMPDEST PUSH1 0x40 MLOAD DUP1 SWAP2 SUB SWAP1 RETURN JUMPDEST PUSH2 0x2FE PUSH2 0x2EC CALLDATASIZE PUSH1 0x4 PUSH2 0x2062 JUMP JUMPDEST PUSH1 0x16 PUSH1 0x20 MSTORE PUSH1 0x0 SWAP1 DUP2 MSTORE PUSH1 0x40 SWAP1 KECCAK256 SLOAD DUP2 JUMP JUMPDEST PUSH1 0x40 MLOAD SWAP1 DUP2 MSTORE PUSH1 0x20 ADD PUSH2 0x2D5 JUMP JUMPDEST PUSH2 0x31F PUSH2 0x31A CALLDATASIZE PUSH1 0x4 PUSH2 0x207F JUMP JUMPDEST PUSH2 0x6A4 JUMP JUMPDEST STOP JUMPDEST PUSH2 0x2C8 PUSH2 0x7B2 JUMP JUMPDEST PUSH2 0x31F PUSH2 0x337 CALLDATASIZE PUSH1 0x4 PUSH2 0x2062 JUMP JUMPDEST PUSH2 0x7BE JUMP JUMPDEST PUSH2 0x2FE PUSH1 0x15 SLOAD DUP2 JUMP JUMPDEST PUSH1 0xD SLOAD PUSH2 0x358 SWAP1 PUSH1 0x1 PUSH1 0x1 PUSH1 0xA0 SHL SUB AND DUP2 JUMP JUMPDEST PUSH1 0x40 MLOAD PUSH1 0x1 PUSH1 0x1 PUSH1 0xA0 SHL SUB SWAP1 SWAP2 AND DUP2 MSTORE PUSH1 0x20 ADD PUSH2 0x2D5 JUMP JUMPDEST PUSH1 0xA SLOAD PUSH2 0x358 SWAP1 PUSH1 0x1 PUSH1 0x1 PUSH1 0xA0 SHL SUB AND DUP2 JUMP JUMPDEST PUSH1 0x14 SLOAD PUSH2 0x358 SWAP1 PUSH1 0x1 PUSH1 0x1 PUSH1 0xA0 SHL SUB AND DUP2 JUMP JUMPDEST PUSH2 0x31F PUSH2 0x3A4 CALLDATASIZE PUSH1 0x4 PUSH2 0x20A6 JUMP JUMPDEST PUSH2 0x887 JUMP JUMPDEST PUSH2 0x31F PUSH2 0x3B7 CALLDATASIZE PUSH1 0x4 PUSH2 0x2062 JUMP JUMPDEST PUSH2 0x906 JUMP JUMPDEST PUSH2 0x31F PUSH2 0x3CA CALLDATASIZE PUSH1 0x4 PUSH2 0x20A6 JUMP JUMPDEST PUSH2 0x9F8 JUMP JUMPDEST PUSH1 0x12 SLOAD PUSH2 0x358 SWAP1 PUSH1 0x1 PUSH1 0x1 PUSH1 0xA0 SHL SUB AND DUP2 JUMP JUMPDEST PUSH1 0x10 SLOAD PUSH2 0x358 SWAP1 PUSH1 0x1 PUSH1 0x1 PUSH1 0xA0 SHL SUB AND DUP2 JUMP JUMPDEST PUSH2 0x408 PUSH2 0x403 CALLDATASIZE PUSH1 0x4 PUSH2 0x2062 JUMP JUMPDEST PUSH2 0xA74 JUMP JUMPDEST PUSH1 0x40 MLOAD SWAP1 ISZERO ISZERO DUP2 MSTORE PUSH1 0x20 ADD PUSH2 0x2D5 JUMP JUMPDEST PUSH2 0x31F PUSH2 0x426 CALLDATASIZE PUSH1 0x4 PUSH2 0x2062 JUMP JUMPDEST PUSH2 0xA87 JUMP JUMPDEST PUSH2 0x31F PUSH2 0x439 CALLDATASIZE PUSH1 0x4 PUSH2 0x2062 JUMP JUMPDEST PUSH2 0xB61 JUMP JUMPDEST PUSH2 0x31F PUSH2 0x44C CALLDATASIZE PUSH1 0x4 PUSH2 0x2062 JUMP JUMPDEST PUSH2 0xC3B JUMP JUMPDEST PUSH2 0x358 PUSH2 0x45F CALLDATASIZE PUSH1 0x4 PUSH2 0x2062 JUMP JUMPDEST PUSH2 0xD09 JUMP JUMPDEST PUSH1 0xB SLOAD PUSH2 0x358 SWAP1 PUSH1 0x1 PUSH1 0x1 PUSH1 0xA0 SHL SUB AND DUP2 JUMP JUMPDEST PUSH2 0x408 PUSH2 0x485 CALLDATASIZE PUSH1 0x4 PUSH2 0x2062 JUMP JUMPDEST PUSH2 0xD46 JUMP JUMPDEST PUSH2 0x358 PUSH32 0x0 DUP2 JUMP JUMPDEST PUSH2 0x31F PUSH2 0x4BF CALLDATASIZE PUSH1 0x4 PUSH2 0x2062 JUMP JUMPDEST PUSH2 0xD53 JUMP JUMPDEST PUSH2 0x2C8 PUSH2 0xE9C JUMP JUMPDEST PUSH2 0x31F PUSH2 0xEA8 JUMP JUMPDEST PUSH2 0x2FE PUSH2 0x4E2 CALLDATASIZE PUSH1 0x4 PUSH2 0x2062 JUMP JUMPDEST PUSH1 0x1 PUSH1 0x1 PUSH1 0xA0 SHL SUB AND PUSH1 0x0 SWAP1 DUP2 MSTORE PUSH1 0x9 PUSH1 0x20 MSTORE PUSH1 0x40 SWAP1 KECCAK256 SLOAD SWAP1 JUMP JUMPDEST PUSH2 0x2C8 PUSH2 0xEBC JUMP JUMPDEST PUSH2 0x31F PUSH2 0x513 CALLDATASIZE PUSH1 0x4 PUSH2 0x2062 JUMP JUMPDEST PUSH2 0xEC8 JUMP JUMPDEST PUSH2 0x408 PUSH2 0x526 CALLDATASIZE PUSH1 0x4 PUSH2 0x2062 JUMP JUMPDEST PUSH2 0xF9B JUMP JUMPDEST PUSH2 0x31F PUSH2 0x539 CALLDATASIZE PUSH1 0x4 PUSH2 0x2255 JUMP JUMPDEST PUSH2 0xFA8 JUMP JUMPDEST PUSH2 0x31F PUSH2 0x54C CALLDATASIZE PUSH1 0x4 PUSH2 0x2062 JUMP JUMPDEST PUSH2 0xFF4 JUMP JUMPDEST PUSH2 0x31F PUSH2 0x55F CALLDATASIZE PUSH1 0x4 PUSH2 0x2062 JUMP JUMPDEST PUSH2 0x112D JUMP JUMPDEST PUSH1 0x0 SLOAD PUSH1 0x1 PUSH1 0x1 PUSH1 0xA0 SHL SUB AND PUSH2 0x358 JUMP JUMPDEST PUSH1 0x11 SLOAD PUSH2 0x358 SWAP1 PUSH1 0x1 PUSH1 0x1 PUSH1 0xA0 SHL SUB AND DUP2 JUMP JUMPDEST PUSH2 0x2FE PUSH3 0x1BAF80 DUP2 JUMP JUMPDEST PUSH2 0x31F PUSH2 0x5A0 CALLDATASIZE PUSH1 0x4 PUSH2 0x2306 JUMP JUMPDEST PUSH2 0x11D7 JUMP JUMPDEST PUSH1 0xE SLOAD PUSH2 0x358 SWAP1 PUSH1 0x1 PUSH1 0x1 PUSH1 0xA0 SHL SUB AND DUP2 JUMP JUMPDEST PUSH1 0xC SLOAD PUSH2 0x358 SWAP1 PUSH1 0x1 PUSH1 0x1 PUSH1 0xA0 SHL SUB AND DUP2 JUMP JUMPDEST PUSH2 0x31F PUSH2 0x5D9 CALLDATASIZE PUSH1 0x4 PUSH2 0x2332 JUMP JUMPDEST PUSH2 0x149E JUMP JUMPDEST PUSH2 0x2FE PUSH3 0x15180 DUP2 JUMP JUMPDEST PUSH2 0x31F PUSH2 0x5F6 CALLDATASIZE PUSH1 0x4 PUSH2 0x2062 JUMP JUMPDEST PUSH2 0x1579 JUMP JUMPDEST PUSH2 0x31F PUSH2 0x609 CALLDATASIZE PUSH1 0x4 PUSH2 0x2062 JUMP JUMPDEST PUSH2 0x16E6 JUMP JUMPDEST PUSH2 0x408 PUSH2 0x61C CALLDATASIZE PUSH1 0x4 PUSH2 0x2062 JUMP JUMPDEST PUSH2 0x182D JUMP JUMPDEST PUSH2 0x31F PUSH2 0x62F CALLDATASIZE PUSH1 0x4 PUSH2 0x2062 JUMP JUMPDEST PUSH2 0x183A JUMP JUMPDEST PUSH1 0xF SLOAD PUSH2 0x358 SWAP1 PUSH1 0x1 PUSH1 0x1 PUSH1 0xA0 SHL SUB AND DUP2 JUMP JUMPDEST PUSH2 0x31F PUSH2 0x655 CALLDATASIZE PUSH1 0x4 PUSH2 0x2360 JUMP JUMPDEST PUSH2 0x1982 JUMP JUMPDEST PUSH2 0x31F PUSH2 0x668 CALLDATASIZE PUSH1 0x4 PUSH2 0x2062 JUMP JUMPDEST PUSH2 0x1A81 JUMP JUMPDEST PUSH2 0x31F PUSH2 0x67B CALLDATASIZE PUSH1 0x4 PUSH2 0x2062 JUMP JUMPDEST PUSH2 0x1B50 JUMP JUMPDEST PUSH2 0x31F PUSH2 0x68E CALLDATASIZE PUSH1 0x4 PUSH2 0x2062 JUMP JUMPDEST PUSH2 0x1BC9 JUMP JUMPDEST PUSH1 0x60 PUSH2 0x69F PUSH1 0x5 PUSH2 0x1C72 JUMP JUMPDEST SWAP1 POP SWAP1 JUMP JUMPDEST PUSH2 0x6AC PUSH2 0x1C7F JUMP JUMPDEST PUSH3 0x1BAF80 DUP2 LT PUSH2 0x6F4 JUMPI PUSH1 0x40 MLOAD PUSH3 0x461BCD PUSH1 0xE5 SHL DUP2 MSTORE PUSH1 0x20 PUSH1 0x4 DUP3 ADD MSTORE PUSH1 0xE PUSH1 0x24 DUP3 ADD MSTORE PUSH14 0x64656C617920746F6F206C6F6E67 PUSH1 0x90 SHL PUSH1 0x44 DUP3 ADD MSTORE PUSH1 0x64 ADD JUMPDEST PUSH1 0x40 MLOAD DUP1 SWAP2 SUB SWAP1 REVERT JUMPDEST PUSH3 0x15180 DUP2 GT PUSH2 0x738 JUMPI PUSH1 0x40 MLOAD PUSH3 0x461BCD PUSH1 0xE5 SHL DUP2 MSTORE PUSH1 0x20 PUSH1 0x4 DUP3 ADD MSTORE PUSH1 0xF PUSH1 0x24 DUP3 ADD MSTORE PUSH15 0x19195B185E481D1BDBC81CDA1BDC9D PUSH1 0x8A SHL PUSH1 0x44 DUP3 ADD MSTORE PUSH1 0x64 ADD PUSH2 0x6EB JUMP JUMPDEST PUSH1 0x15 SLOAD DUP2 SUB PUSH2 0x776 JUMPI PUSH1 0x40 MLOAD PUSH3 0x461BCD PUSH1 0xE5 SHL DUP2 MSTORE PUSH1 0x20 PUSH1 0x4 DUP3 ADD MSTORE PUSH1 0xA PUSH1 0x24 DUP3 ADD MSTORE PUSH10 0x73616D652064656C6179 PUSH1 0xB0 SHL PUSH1 0x44 DUP3 ADD MSTORE PUSH1 0x64 ADD PUSH2 0x6EB JUMP JUMPDEST PUSH1 0x15 DUP2 SWAP1 SSTORE PUSH1 0x40 MLOAD DUP2 DUP2 MSTORE PUSH32 0x4CBBFB8B36940E62C2ED74C76E6470D94FE291696433DAB19272E011ED311588 SWAP1 PUSH1 0x20 ADD JUMPDEST PUSH1 0x40 MLOAD DUP1 SWAP2 SUB SWAP1 LOG1 POP JUMP JUMPDEST PUSH1 0x60 PUSH2 0x69F PUSH1 0x7 PUSH2 0x1C72 JUMP JUMPDEST PUSH2 0x7C6 PUSH2 0x1C7F JUMP JUMPDEST PUSH1 0x1 PUSH1 0x1 PUSH1 0xA0 SHL SUB DUP2 AND PUSH2 0x7EC JUMPI PUSH1 0x40 MLOAD PUSH3 0x461BCD PUSH1 0xE5 SHL DUP2 MSTORE PUSH1 0x4 ADD PUSH2 0x6EB SWAP1 PUSH2 0x2395 JUMP JUMPDEST PUSH1 0x11 SLOAD PUSH1 0x1 PUSH1 0x1 PUSH1 0xA0 SHL SUB SWAP1 DUP2 AND SWAP1 DUP3 AND SUB PUSH2 0x839 JUMPI PUSH1 0x40 MLOAD PUSH3 0x461BCD PUSH1 0xE5 SHL DUP2 MSTORE PUSH1 0x20 PUSH1 0x4 DUP3 ADD MSTORE PUSH1 0xC PUSH1 0x24 DUP3 ADD MSTORE PUSH12 0x73616D6520626F6E64696E67 PUSH1 0xA0 SHL PUSH1 0x44 DUP3 ADD MSTORE PUSH1 0x64 ADD PUSH2 0x6EB JUMP JUMPDEST PUSH1 0x11 DUP1 SLOAD PUSH1 0x1 PUSH1 0x1 PUSH1 0xA0 SHL SUB NOT AND PUSH1 0x1 PUSH1 0x1 PUSH1 0xA0 SHL SUB DUP4 AND SWAP1 DUP2 OR SWAP1 SWAP2 SSTORE PUSH1 0x40 MLOAD SWAP1 DUP2 MSTORE PUSH32 0x31579EE5E04B0905C1E20ECBAA48C4A65FF836EA81EB46E5A0C47295E07404F SWAP1 PUSH1 0x20 ADD PUSH2 0x7A7 JUMP JUMPDEST PUSH2 0x88F PUSH2 0x1C7F JUMP JUMPDEST PUSH1 0x0 DUP2 ISZERO PUSH2 0x8A9 JUMPI PUSH2 0x8A2 PUSH1 0x7 DUP5 PUSH2 0x1CD9 JUMP JUMPDEST SWAP1 POP PUSH2 0x8B7 JUMP JUMPDEST PUSH2 0x8B4 PUSH1 0x7 DUP5 PUSH2 0x1CEE JUMP JUMPDEST SWAP1 POP JUMPDEST DUP1 ISZERO PUSH2 0x901 JUMPI PUSH1 0x40 DUP1 MLOAD PUSH1 0x1 PUSH1 0x1 PUSH1 0xA0 SHL SUB DUP6 AND DUP2 MSTORE DUP4 ISZERO ISZERO PUSH1 0x20 DUP3 ADD MSTORE PUSH32 0x3847778F66347B91D6D6D7ECC6A686B0798B29405595FCA791EE2FBB28E0F09B SWAP2 ADD PUSH1 0x40 MLOAD DUP1 SWAP2 SUB SWAP1 LOG1 JUMPDEST POP POP POP JUMP JUMPDEST PUSH2 0x90E PUSH2 0x1C7F JUMP JUMPDEST PUSH2 0x919 PUSH1 0x1 DUP3 PUSH2 0x1CEE JUMP JUMPDEST PUSH2 0x95D JUMPI PUSH1 0x40 MLOAD PUSH3 0x461BCD PUSH1 0xE5 SHL DUP2 MSTORE PUSH1 0x20 PUSH1 0x4 DUP3 ADD MSTORE PUSH1 0x15 PUSH1 0x24 DUP3 ADD MSTORE PUSH21 0x19985A5B1959081D1BC81C995B5BDD99481C1BDBDB PUSH1 0x5A SHL PUSH1 0x44 DUP3 ADD MSTORE PUSH1 0x64 ADD PUSH2 0x6EB JUMP JUMPDEST PUSH2 0x968 PUSH1 0x3 DUP3 PUSH2 0x1D03 JUMP JUMPDEST ISZERO PUSH2 0x9C1 JUMPI PUSH1 0x40 MLOAD PUSH3 0x461BCD PUSH1 0xE5 SHL DUP2 MSTORE PUSH1 0x20 PUSH1 0x4 DUP3 ADD MSTORE PUSH1 0x24 DUP1 DUP3 ADD MSTORE PUSH32 0x73687574646F776E2074686520706F6F6C206265666F72652072656D6F76696E PUSH1 0x44 DUP3 ADD MSTORE PUSH4 0x19C81A5D PUSH1 0xE2 SHL PUSH1 0x64 DUP3 ADD MSTORE PUSH1 0x84 ADD PUSH2 0x6EB JUMP JUMPDEST PUSH1 0x40 MLOAD PUSH1 0x1 PUSH1 0x1 PUSH1 0xA0 SHL SUB DUP3 AND SWAP1 PUSH32 0x4106DFDAA577573DB51C0CA93F766DBEDFA0758FAA2E7F5BCDB7C142BE803C3F SWAP1 PUSH1 0x0 SWAP1 LOG2 POP JUMP JUMPDEST PUSH2 0xA00 PUSH2 0x1C7F JUMP JUMPDEST PUSH1 0x0 DUP2 PUSH2 0xA17 JUMPI PUSH2 0xA12 PUSH1 0x5 DUP5 PUSH2 0x1CEE JUMP JUMPDEST PUSH2 0xA22 JUMP JUMPDEST PUSH2 0xA22 PUSH1 0x5 DUP5 PUSH2 0x1CD9 JUMP JUMPDEST SWAP1 POP DUP1 ISZERO PUSH2 0x901 JUMPI DUP3 PUSH1 0x1 PUSH1 0x1 PUSH1 0xA0 SHL SUB AND PUSH32 0x6E08C212F0C3F8318D18FDD0FAC7505EDDC2807D9A2CF0131886B4798C0F14B2 DUP4 PUSH1 0x40 MLOAD PUSH2 0xA67 SWAP2 ISZERO ISZERO DUP2 MSTORE PUSH1 0x20 ADD SWAP1 JUMP JUMPDEST PUSH1 0x40 MLOAD DUP1 SWAP2 SUB SWAP1 LOG2 POP POP POP JUMP JUMPDEST PUSH1 0x0 PUSH2 0xA81 PUSH1 0x5 DUP4 PUSH2 0x1D03 JUMP JUMPDEST SWAP3 SWAP2 POP POP JUMP JUMPDEST PUSH2 0xA8F PUSH2 0x1C7F JUMP JUMPDEST PUSH1 0x1 PUSH1 0x1 PUSH1 0xA0 SHL SUB DUP2 AND PUSH2 0xAB5 JUMPI PUSH1 0x40 MLOAD PUSH3 0x461BCD PUSH1 0xE5 SHL DUP2 MSTORE PUSH1 0x4 ADD PUSH2 0x6EB SWAP1 PUSH2 0x2395 JUMP JUMPDEST PUSH1 0x14 SLOAD PUSH1 0x1 PUSH1 0x1 PUSH1 0xA0 SHL SUB SWAP1 DUP2 AND SWAP1 DUP3 AND SUB PUSH2 0xB13 JUMPI PUSH1 0x40 MLOAD PUSH3 0x461BCD PUSH1 0xE5 SHL DUP2 MSTORE PUSH1 0x20 PUSH1 0x4 DUP3 ADD MSTORE PUSH1 0x19 PUSH1 0x24 DUP3 ADD MSTORE PUSH32 0x73616D652064656661756C7420706F6F6C206164617074657200000000000000 PUSH1 0x44 DUP3 ADD MSTORE PUSH1 0x64 ADD PUSH2 0x6EB JUMP JUMPDEST PUSH1 0x14 DUP1 SLOAD PUSH1 0x1 PUSH1 0x1 PUSH1 0xA0 SHL SUB NOT AND PUSH1 0x1 PUSH1 0x1 PUSH1 0xA0 SHL SUB DUP4 AND SWAP1 DUP2 OR SWAP1 SWAP2 SSTORE PUSH1 0x40 MLOAD SWAP1 DUP2 MSTORE PUSH32 0xA7F1D9CA15550452FA843FBD95689EBD62FC20BE7F3778ED32A5481652599A14 SWAP1 PUSH1 0x20 ADD PUSH2 0x7A7 JUMP JUMPDEST PUSH2 0xB69 PUSH2 0x1C7F JUMP JUMPDEST PUSH1 0x1 PUSH1 0x1 PUSH1 0xA0 SHL SUB DUP2 AND PUSH2 0xB8F JUMPI PUSH1 0x40 MLOAD PUSH3 0x461BCD PUSH1 0xE5 SHL DUP2 MSTORE PUSH1 0x4 ADD PUSH2 0x6EB SWAP1 PUSH2 0x2395 JUMP JUMPDEST PUSH1 0xE SLOAD PUSH1 0x1 PUSH1 0x1 PUSH1 0xA0 SHL SUB SWAP1 DUP2 AND SWAP1 DUP3 AND SUB PUSH2 0xBED JUMPI PUSH1 0x40 MLOAD PUSH3 0x461BCD PUSH1 0xE5 SHL DUP2 MSTORE PUSH1 0x20 PUSH1 0x4 DUP3 ADD MSTORE PUSH1 0x19 PUSH1 0x24 DUP3 ADD MSTORE PUSH32 0x73616D6520637572766520726567697374727920636163686500000000000000 PUSH1 0x44 DUP3 ADD MSTORE PUSH1 0x64 ADD PUSH2 0x6EB JUMP JUMPDEST PUSH1 0xE DUP1 SLOAD PUSH1 0x1 PUSH1 0x1 PUSH1 0xA0 SHL SUB NOT AND PUSH1 0x1 PUSH1 0x1 PUSH1 0xA0 SHL SUB DUP4 AND SWAP1 DUP2 OR SWAP1 SWAP2 SSTORE PUSH1 0x40 MLOAD SWAP1 DUP2 MSTORE PUSH32 0x804D6412EC50674626ECD09727ED034CED85412D702250057E5A869D9D82392D SWAP1 PUSH1 0x20 ADD PUSH2 0x7A7 JUMP JUMPDEST PUSH2 0xC43 PUSH2 0x1C7F JUMP JUMPDEST PUSH1 0x1 PUSH1 0x1 PUSH1 0xA0 SHL SUB DUP2 AND PUSH2 0xC69 JUMPI PUSH1 0x40 MLOAD PUSH3 0x461BCD PUSH1 0xE5 SHL DUP2 MSTORE PUSH1 0x4 ADD PUSH2 0x6EB SWAP1 PUSH2 0x2395 JUMP JUMPDEST PUSH1 0xD SLOAD PUSH1 0x1 PUSH1 0x1 PUSH1 0xA0 SHL SUB SWAP1 DUP2 AND SWAP1 DUP3 AND SUB PUSH2 0xCBB JUMPI PUSH1 0x40 MLOAD PUSH3 0x461BCD PUSH1 0xE5 SHL DUP2 MSTORE PUSH1 0x20 PUSH1 0x4 DUP3 ADD MSTORE PUSH1 0x11 PUSH1 0x24 DUP3 ADD MSTORE PUSH17 0x73616D65207072696365206F7261636C65 PUSH1 0x78 SHL PUSH1 0x44 DUP3 ADD MSTORE PUSH1 0x64 ADD PUSH2 0x6EB JUMP JUMPDEST PUSH1 0xD DUP1 SLOAD PUSH1 0x1 PUSH1 0x1 PUSH1 0xA0 SHL SUB NOT AND PUSH1 0x1 PUSH1 0x1 PUSH1 0xA0 SHL SUB DUP4 AND SWAP1 DUP2 OR SWAP1 SWAP2 SSTORE PUSH1 0x40 MLOAD SWAP1 DUP2 MSTORE PUSH32 0x6536690106168BDF4BA72C128A053D817999B1DB90CAE23F139B293BF862CB75 SWAP1 PUSH1 0x20 ADD PUSH2 0x7A7 JUMP JUMPDEST PUSH1 0x1 PUSH1 0x1 PUSH1 0xA0 SHL SUB DUP1 DUP3 AND PUSH1 0x0 SWAP1 DUP2 MSTORE PUSH1 0x13 PUSH1 0x20 MSTORE PUSH1 0x40 DUP2 KECCAK256 SLOAD SWAP1 SWAP2 AND DUP1 ISZERO PUSH2 0xD32 JUMPI DUP1 PUSH2 0xD3F JUMP JUMPDEST PUSH1 0x14 SLOAD PUSH1 0x1 PUSH1 0x1 PUSH1 0xA0 SHL SUB AND JUMPDEST SWAP4 SWAP3 POP POP POP JUMP JUMPDEST PUSH1 0x0 PUSH2 0xA81 PUSH1 0x1 DUP4 PUSH2 0x1D03 JUMP JUMPDEST PUSH2 0xD5B PUSH2 0x1C7F JUMP JUMPDEST PUSH2 0xD66 PUSH1 0x3 DUP3 PUSH2 0x1CEE JUMP JUMPDEST PUSH2 0xDAA JUMPI PUSH1 0x40 MLOAD PUSH3 0x461BCD PUSH1 0xE5 SHL DUP2 MSTORE PUSH1 0x20 PUSH1 0x4 DUP3 ADD MSTORE PUSH1 0x15 PUSH1 0x24 DUP3 ADD MSTORE PUSH21 0x19985A5B1959081D1BC81C995B5BDD99481C1BDBDB PUSH1 0x5A SHL PUSH1 0x44 DUP3 ADD MSTORE PUSH1 0x64 ADD PUSH2 0x6EB JUMP JUMPDEST DUP1 PUSH1 0x1 PUSH1 0x1 PUSH1 0xA0 SHL SUB AND PUSH4 0xD6038DC6 PUSH1 0x40 MLOAD DUP2 PUSH4 0xFFFFFFFF AND PUSH1 0xE0 SHL DUP2 MSTORE PUSH1 0x4 ADD PUSH1 0x0 PUSH1 0x40 MLOAD DUP1 DUP4 SUB DUP2 PUSH1 0x0 DUP8 DUP1 EXTCODESIZE ISZERO DUP1 ISZERO PUSH2 0xDE5 JUMPI PUSH1 0x0 DUP1 REVERT JUMPDEST POP GAS CALL ISZERO DUP1 ISZERO PUSH2 0xDF9 JUMPI RETURNDATASIZE PUSH1 0x0 DUP1 RETURNDATACOPY RETURNDATASIZE PUSH1 0x0 REVERT JUMPDEST POP POP POP POP PUSH1 0xF PUSH1 0x0 SWAP1 SLOAD SWAP1 PUSH2 0x100 EXP SWAP1 DIV PUSH1 0x1 PUSH1 0x1 PUSH1 0xA0 SHL SUB AND PUSH1 0x1 PUSH1 0x1 PUSH1 0xA0 SHL SUB AND PUSH4 0x3DC4F7DE PUSH1 0x40 MLOAD DUP2 PUSH4 0xFFFFFFFF AND PUSH1 0xE0 SHL DUP2 MSTORE PUSH1 0x4 ADD PUSH1 0x0 PUSH1 0x40 MLOAD DUP1 DUP4 SUB DUP2 PUSH1 0x0 DUP8 DUP1 EXTCODESIZE ISZERO DUP1 ISZERO PUSH2 0xE4D JUMPI PUSH1 0x0 DUP1 REVERT JUMPDEST POP GAS CALL ISZERO DUP1 ISZERO PUSH2 0xE61 JUMPI RETURNDATASIZE PUSH1 0x0 DUP1 RETURNDATACOPY RETURNDATASIZE PUSH1 0x0 REVERT JUMPDEST POP POP PUSH1 0x40 MLOAD PUSH1 0x1 PUSH1 0x1 PUSH1 0xA0 SHL SUB DUP5 AND SWAP3 POP PUSH32 0x1B2B64A5D6FF166112CD9F1D7E3A30AD9A1E236C68C0C58C965368F3B56D542C SWAP2 POP PUSH1 0x0 SWAP1 LOG2 POP JUMP JUMPDEST PUSH1 0x60 PUSH2 0x69F PUSH1 0x1 PUSH2 0x1C72 JUMP JUMPDEST PUSH2 0xEB0 PUSH2 0x1C7F JUMP JUMPDEST PUSH2 0xEBA PUSH1 0x0 PUSH2 0x1D25 JUMP JUMPDEST JUMP JUMPDEST PUSH1 0x60 PUSH2 0x69F PUSH1 0x3 PUSH2 0x1C72 JUMP JUMPDEST PUSH2 0xED0 PUSH2 0x1C7F JUMP JUMPDEST PUSH1 0x1 PUSH1 0x1 PUSH1 0xA0 SHL SUB DUP2 AND PUSH2 0xEF6 JUMPI PUSH1 0x40 MLOAD PUSH3 0x461BCD PUSH1 0xE5 SHL DUP2 MSTORE PUSH1 0x4 ADD PUSH2 0x6EB SWAP1 PUSH2 0x2395 JUMP JUMPDEST PUSH1 0xF SLOAD PUSH1 0x1 PUSH1 0x1 PUSH1 0xA0 SHL SUB SWAP1 DUP2 AND SWAP1 DUP3 AND SUB PUSH2 0xF4D JUMPI PUSH1 0x40 MLOAD PUSH3 0x461BCD PUSH1 0xE5 SHL DUP2 MSTORE PUSH1 0x20 PUSH1 0x4 DUP3 ADD MSTORE PUSH1 0x16 PUSH1 0x24 DUP3 ADD MSTORE PUSH22 0x39B0B6B29034B7333630BA34B7B71036B0B730B3B2B9 PUSH1 0x51 SHL PUSH1 0x44 DUP3 ADD MSTORE PUSH1 0x64 ADD PUSH2 0x6EB JUMP JUMPDEST PUSH1 0xF DUP1 SLOAD PUSH1 0x1 PUSH1 0x1 PUSH1 0xA0 SHL SUB NOT AND PUSH1 0x1 PUSH1 0x1 PUSH1 0xA0 SHL SUB DUP4 AND SWAP1 DUP2 OR SWAP1 SWAP2 SSTORE PUSH1 0x40 MLOAD SWAP1 DUP2 MSTORE PUSH32 0x1807368DAB7E70053CC95C16CEE46C8B354CE67FA6610400C469D35B56620140 SWAP1 PUSH1 0x20 ADD PUSH2 0x7A7 JUMP JUMPDEST PUSH1 0x0 PUSH2 0xA81 PUSH1 0x3 DUP4 PUSH2 0x1D03 JUMP JUMPDEST PUSH2 0xFB0 PUSH2 0x1C7F JUMP JUMPDEST PUSH1 0x0 JUMPDEST DUP2 MLOAD DUP2 LT ISZERO PUSH2 0xFF0 JUMPI PUSH2 0xFDE DUP3 DUP3 DUP2 MLOAD DUP2 LT PUSH2 0xFD1 JUMPI PUSH2 0xFD1 PUSH2 0x23CC JUMP JUMPDEST PUSH1 0x20 MUL PUSH1 0x20 ADD ADD MLOAD PUSH2 0x1982 JUMP JUMPDEST DUP1 PUSH2 0xFE8 DUP2 PUSH2 0x23F8 JUMP JUMPDEST SWAP2 POP POP PUSH2 0xFB3 JUMP JUMPDEST POP POP JUMP JUMPDEST PUSH2 0xFFC PUSH2 0x1C7F JUMP JUMPDEST PUSH1 0x10 PUSH1 0x0 SWAP1 SLOAD SWAP1 PUSH2 0x100 EXP SWAP1 DIV PUSH1 0x1 PUSH1 0x1 PUSH1 0xA0 SHL SUB AND PUSH1 0x1 PUSH1 0x1 PUSH1 0xA0 SHL SUB AND PUSH4 0xFC0E74D1 PUSH1 0x40 MLOAD DUP2 PUSH4 0xFFFFFFFF AND PUSH1 0xE0 SHL DUP2 MSTORE PUSH1 0x4 ADD PUSH1 0x0 PUSH1 0x40 MLOAD DUP1 DUP4 SUB DUP2 PUSH1 0x0 DUP8 DUP1 EXTCODESIZE ISZERO DUP1 ISZERO PUSH2 0x104C JUMPI PUSH1 0x0 DUP1 REVERT JUMPDEST POP GAS CALL ISZERO DUP1 ISZERO PUSH2 0x1060 JUMPI RETURNDATASIZE PUSH1 0x0 DUP1 RETURNDATACOPY RETURNDATASIZE PUSH1 0x0 REVERT JUMPDEST POP POP PUSH1 0x10 DUP1 SLOAD PUSH1 0x1 PUSH1 0x1 PUSH1 0xA0 SHL SUB NOT AND PUSH1 0x1 PUSH1 0x1 PUSH1 0xA0 SHL SUB DUP6 AND OR SWAP1 SSTORE POP PUSH1 0x0 SWAP1 POP JUMPDEST PUSH2 0x108D PUSH1 0x1 PUSH2 0x1D75 JUMP JUMPDEST DUP2 LT ISZERO PUSH2 0xFF0 JUMPI PUSH1 0x10 SLOAD PUSH1 0x1 PUSH1 0x1 PUSH1 0xA0 SHL SUB AND PUSH4 0xA972985E PUSH2 0x10B0 PUSH1 0x1 DUP5 PUSH2 0x1D7F JUMP JUMPDEST PUSH1 0x40 MLOAD PUSH1 0x1 PUSH1 0x1 PUSH1 0xE0 SHL SUB NOT PUSH1 0xE0 DUP5 SWAP1 SHL AND DUP2 MSTORE PUSH1 0x1 PUSH1 0x1 PUSH1 0xA0 SHL SUB SWAP1 SWAP2 AND PUSH1 0x4 DUP3 ADD MSTORE PUSH1 0x24 ADD PUSH1 0x20 PUSH1 0x40 MLOAD DUP1 DUP4 SUB DUP2 PUSH1 0x0 DUP8 GAS CALL ISZERO DUP1 ISZERO PUSH2 0x10F6 JUMPI RETURNDATASIZE PUSH1 0x0 DUP1 RETURNDATACOPY RETURNDATASIZE PUSH1 0x0 REVERT JUMPDEST POP POP POP POP PUSH1 0x40 MLOAD RETURNDATASIZE PUSH1 0x1F NOT PUSH1 0x1F DUP3 ADD AND DUP3 ADD DUP1 PUSH1 0x40 MSTORE POP DUP2 ADD SWAP1 PUSH2 0x111A SWAP2 SWAP1 PUSH2 0x2411 JUMP JUMPDEST POP DUP1 PUSH2 0x1125 DUP2 PUSH2 0x23F8 JUMP JUMPDEST SWAP2 POP POP PUSH2 0x1083 JUMP JUMPDEST PUSH2 0x1135 PUSH2 0x1C7F JUMP JUMPDEST PUSH1 0xC SLOAD PUSH1 0x1 PUSH1 0x1 PUSH1 0xA0 SHL SUB SWAP1 DUP2 AND SWAP1 DUP3 AND SUB PUSH2 0x1189 JUMPI PUSH1 0x40 MLOAD PUSH3 0x461BCD PUSH1 0xE5 SHL DUP2 MSTORE PUSH1 0x20 PUSH1 0x4 DUP3 ADD MSTORE PUSH1 0x13 PUSH1 0x24 DUP3 ADD MSTORE PUSH19 0x39B0B6B29031B7B73B32BC103430B7323632B9 PUSH1 0x69 SHL PUSH1 0x44 DUP3 ADD MSTORE PUSH1 0x64 ADD PUSH2 0x6EB JUMP JUMPDEST PUSH1 0xC DUP1 SLOAD PUSH1 0x1 PUSH1 0x1 PUSH1 0xA0 SHL SUB NOT AND PUSH1 0x1 PUSH1 0x1 PUSH1 0xA0 SHL SUB DUP4 AND SWAP1 DUP2 OR SWAP1 SWAP2 SSTORE PUSH1 0x40 MLOAD SWAP1 DUP2 MSTORE PUSH32 0x78C0D5A329A7D476B56BC10AD7E2FD11A0433FB6F1FFD12B28B3B3A7CE5CDBA9 SWAP1 PUSH1 0x20 ADD PUSH2 0x7A7 JUMP JUMPDEST PUSH2 0x11DF PUSH2 0x1C7F JUMP JUMPDEST PUSH1 0x1 PUSH1 0x1 PUSH1 0xA0 SHL SUB DUP3 AND PUSH1 0x0 SWAP1 DUP2 MSTORE PUSH1 0x9 PUSH1 0x20 MSTORE PUSH1 0x40 SWAP1 KECCAK256 SLOAD DUP2 SUB PUSH2 0x1234 JUMPI PUSH1 0x40 MLOAD PUSH3 0x461BCD PUSH1 0xE5 SHL DUP2 MSTORE PUSH1 0x20 PUSH1 0x4 DUP3 ADD MSTORE PUSH1 0xB PUSH1 0x24 DUP3 ADD MSTORE PUSH11 0x1CD85B5948185B5BDD5B9D PUSH1 0xAA SHL PUSH1 0x44 DUP3 ADD MSTORE PUSH1 0x64 ADD PUSH2 0x6EB JUMP JUMPDEST PUSH1 0x0 DUP3 PUSH1 0x1 PUSH1 0x1 PUSH1 0xA0 SHL SUB AND PUSH4 0x7546172 PUSH1 0x40 MLOAD DUP2 PUSH4 0xFFFFFFFF AND PUSH1 0xE0 SHL DUP2 MSTORE PUSH1 0x4 ADD PUSH1 0x20 PUSH1 0x40 MLOAD DUP1 DUP4 SUB DUP2 DUP7 GAS STATICCALL ISZERO DUP1 ISZERO PUSH2 0x1274 JUMPI RETURNDATASIZE PUSH1 0x0 DUP1 RETURNDATACOPY RETURNDATASIZE PUSH1 0x0 REVERT JUMPDEST POP POP POP POP PUSH1 0x40 MLOAD RETURNDATASIZE PUSH1 0x1F NOT PUSH1 0x1F DUP3 ADD AND DUP3 ADD DUP1 PUSH1 0x40 MSTORE POP DUP2 ADD SWAP1 PUSH2 0x1298 SWAP2 SWAP1 PUSH2 0x242A JUMP JUMPDEST SWAP1 POP PUSH1 0x0 DUP2 PUSH1 0x1 PUSH1 0x1 PUSH1 0xA0 SHL SUB AND PUSH4 0x6F307DC3 PUSH1 0x40 MLOAD DUP2 PUSH4 0xFFFFFFFF AND PUSH1 0xE0 SHL DUP2 MSTORE PUSH1 0x4 ADD PUSH1 0x20 PUSH1 0x40 MLOAD DUP1 DUP4 SUB DUP2 DUP7 GAS STATICCALL ISZERO DUP1 ISZERO PUSH2 0x12DA JUMPI RETURNDATASIZE PUSH1 0x0 DUP1 RETURNDATACOPY RETURNDATASIZE PUSH1 0x0 REVERT JUMPDEST POP POP POP POP PUSH1 0x40 MLOAD RETURNDATASIZE PUSH1 0x1F NOT PUSH1 0x1F DUP3 ADD AND DUP3 ADD DUP1 PUSH1 0x40 MSTORE POP DUP2 ADD SWAP1 PUSH2 0x12FE SWAP2 SWAP1 PUSH2 0x242A JUMP JUMPDEST PUSH1 0xD SLOAD PUSH1 0x40 MLOAD PUSH4 0x8B2F0F4F PUSH1 0xE0 SHL DUP2 MSTORE PUSH1 0x1 PUSH1 0x1 PUSH1 0xA0 SHL SUB DUP1 DUP5 AND PUSH1 0x4 DUP4 ADD MSTORE SWAP3 SWAP4 POP PUSH1 0x0 SWAP3 SWAP1 SWAP2 AND SWAP1 PUSH4 0x8B2F0F4F SWAP1 PUSH1 0x24 ADD PUSH1 0x20 PUSH1 0x40 MLOAD DUP1 DUP4 SUB DUP2 DUP7 GAS STATICCALL ISZERO DUP1 ISZERO PUSH2 0x134E JUMPI RETURNDATASIZE PUSH1 0x0 DUP1 RETURNDATACOPY RETURNDATASIZE PUSH1 0x0 REVERT JUMPDEST POP POP POP POP PUSH1 0x40 MLOAD RETURNDATASIZE PUSH1 0x1F NOT PUSH1 0x1F DUP3 ADD AND DUP3 ADD DUP1 PUSH1 0x40 MSTORE POP DUP2 ADD SWAP1 PUSH2 0x1372 SWAP2 SWAP1 PUSH2 0x2411 JUMP JUMPDEST SWAP1 POP PUSH1 0x0 PUSH2 0x13E4 DUP4 PUSH1 0x1 PUSH1 0x1 PUSH1 0xA0 SHL SUB AND PUSH4 0x313CE567 PUSH1 0x40 MLOAD DUP2 PUSH4 0xFFFFFFFF AND PUSH1 0xE0 SHL DUP2 MSTORE PUSH1 0x4 ADD PUSH1 0x20 PUSH1 0x40 MLOAD DUP1 DUP4 SUB DUP2 DUP7 GAS STATICCALL ISZERO DUP1 ISZERO PUSH2 0x13B7 JUMPI RETURNDATASIZE PUSH1 0x0 DUP1 RETURNDATACOPY RETURNDATASIZE PUSH1 0x0 REVERT JUMPDEST POP POP POP POP PUSH1 0x40 MLOAD RETURNDATASIZE PUSH1 0x1F NOT PUSH1 0x1F DUP3 ADD AND DUP3 ADD DUP1 PUSH1 0x40 MSTORE POP DUP2 ADD SWAP1 PUSH2 0x13DB SWAP2 SWAP1 PUSH2 0x2447 JUMP JUMPDEST DUP7 SWAP1 PUSH1 0x12 PUSH2 0x1D8B JUMP JUMPDEST SWAP1 POP PUSH1 0x0 PUSH2 0x13F2 DUP3 DUP5 PUSH2 0x1DD4 JUMP JUMPDEST SWAP1 POP PUSH10 0x21E19E0C9BAB2400000 DUP2 GT ISZERO PUSH2 0x1440 JUMPI PUSH1 0x40 MLOAD PUSH3 0x461BCD PUSH1 0xE5 SHL DUP2 MSTORE PUSH1 0x20 PUSH1 0x4 DUP3 ADD MSTORE PUSH1 0xF PUSH1 0x24 DUP3 ADD MSTORE PUSH15 0xC2DADEEADCE840E8DEDE40D0D2CED PUSH1 0x8B SHL PUSH1 0x44 DUP3 ADD MSTORE PUSH1 0x64 ADD PUSH2 0x6EB JUMP JUMPDEST PUSH1 0x1 PUSH1 0x1 PUSH1 0xA0 SHL SUB DUP8 AND PUSH1 0x0 DUP2 DUP2 MSTORE PUSH1 0x9 PUSH1 0x20 MSTORE PUSH1 0x40 SWAP1 DUP2 SWAP1 KECCAK256 DUP9 SWAP1 SSTORE MLOAD PUSH32 0x880EF00C8805FC02A281172FFB91ADB25137E2E692D9F0B24E13382E0D107FF1 SWAP1 PUSH2 0x148D SWAP1 DUP10 DUP2 MSTORE PUSH1 0x20 ADD SWAP1 JUMP JUMPDEST PUSH1 0x40 MLOAD DUP1 SWAP2 SUB SWAP1 LOG2 POP POP POP POP POP POP POP JUMP JUMPDEST PUSH2 0x14A6 PUSH2 0x1C7F JUMP JUMPDEST PUSH1 0x1 PUSH1 0x1 PUSH1 0xA0 SHL SUB DUP1 DUP4 AND PUSH1 0x0 SWAP1 DUP2 MSTORE PUSH1 0x13 PUSH1 0x20 MSTORE PUSH1 0x40 SWAP1 KECCAK256 SLOAD DUP2 AND SWAP1 DUP3 AND SUB PUSH2 0x1512 JUMPI PUSH1 0x40 MLOAD PUSH3 0x461BCD PUSH1 0xE5 SHL DUP2 MSTORE PUSH1 0x20 PUSH1 0x4 DUP3 ADD MSTORE PUSH1 0x18 PUSH1 0x24 DUP3 ADD MSTORE PUSH32 0x73616D6520637573746F6D20706F6F6C20616461707465720000000000000000 PUSH1 0x44 DUP3 ADD MSTORE PUSH1 0x64 ADD PUSH2 0x6EB JUMP JUMPDEST PUSH1 0x1 PUSH1 0x1 PUSH1 0xA0 SHL SUB DUP3 DUP2 AND PUSH1 0x0 DUP2 DUP2 MSTORE PUSH1 0x13 PUSH1 0x20 SWAP1 DUP2 MSTORE PUSH1 0x40 SWAP2 DUP3 SWAP1 KECCAK256 DUP1 SLOAD PUSH1 0x1 PUSH1 0x1 PUSH1 0xA0 SHL SUB NOT AND SWAP5 DUP7 AND SWAP5 DUP6 OR SWAP1 SSTORE SWAP1 MLOAD SWAP3 DUP4 MSTORE SWAP1 SWAP2 PUSH32 0x2F17401E7E83797C1CA2DEB3077675DB760B04F2E49C233E908C3EBC68C7CA1B SWAP2 ADD PUSH1 0x40 MLOAD DUP1 SWAP2 SUB SWAP1 LOG2 POP POP JUMP JUMPDEST PUSH2 0x1581 PUSH2 0x1C7F JUMP JUMPDEST PUSH1 0xA PUSH1 0x0 SWAP1 SLOAD SWAP1 PUSH2 0x100 EXP SWAP1 DIV PUSH1 0x1 PUSH1 0x1 PUSH1 0xA0 SHL SUB AND PUSH1 0x1 PUSH1 0x1 PUSH1 0xA0 SHL SUB AND PUSH4 0xBF86D690 PUSH1 0x40 MLOAD DUP2 PUSH4 0xFFFFFFFF AND PUSH1 0xE0 SHL DUP2 MSTORE PUSH1 0x4 ADD PUSH1 0x20 PUSH1 0x40 MLOAD DUP1 DUP4 SUB DUP2 DUP7 GAS STATICCALL ISZERO DUP1 ISZERO PUSH2 0x15D4 JUMPI RETURNDATASIZE PUSH1 0x0 DUP1 RETURNDATACOPY RETURNDATASIZE PUSH1 0x0 REVERT JUMPDEST POP POP POP POP PUSH1 0x40 MLOAD RETURNDATASIZE PUSH1 0x1F NOT PUSH1 0x1F DUP3 ADD AND DUP3 ADD DUP1 PUSH1 0x40 MSTORE POP DUP2 ADD SWAP1 PUSH2 0x15F8 SWAP2 SWAP1 PUSH2 0x246A JUMP JUMPDEST PUSH2 0x1644 JUMPI PUSH1 0x40 MLOAD PUSH3 0x461BCD PUSH1 0xE5 SHL DUP2 MSTORE PUSH1 0x20 PUSH1 0x4 DUP3 ADD MSTORE PUSH1 0x1F PUSH1 0x24 DUP3 ADD MSTORE PUSH32 0x63757272656E7420626F6F73746572206973206E6F742073687574646F776E00 PUSH1 0x44 DUP3 ADD MSTORE PUSH1 0x64 ADD PUSH2 0x6EB JUMP JUMPDEST PUSH1 0xA SLOAD PUSH1 0x1 PUSH1 0x1 PUSH1 0xA0 SHL SUB SWAP1 DUP2 AND SWAP1 DUP3 AND SUB PUSH2 0x1698 JUMPI PUSH1 0x40 MLOAD PUSH3 0x461BCD PUSH1 0xE5 SHL DUP2 MSTORE PUSH1 0x20 PUSH1 0x4 DUP3 ADD MSTORE PUSH1 0x13 PUSH1 0x24 DUP3 ADD MSTORE PUSH19 0x39B0B6B29031B7B73B32BC103137B7B9BA32B9 PUSH1 0x69 SHL PUSH1 0x44 DUP3 ADD MSTORE PUSH1 0x64 ADD PUSH2 0x6EB JUMP JUMPDEST PUSH1 0xA DUP1 SLOAD PUSH1 0x1 PUSH1 0x1 PUSH1 0xA0 SHL SUB NOT AND PUSH1 0x1 PUSH1 0x1 PUSH1 0xA0 SHL SUB DUP4 AND SWAP1 DUP2 OR SWAP1 SWAP2 SSTORE PUSH1 0x40 MLOAD SWAP1 DUP2 MSTORE PUSH32 0x753F93638EA37A2DF364592F0884F853232995F9D2834AFFDEB30031AB97B376 SWAP1 PUSH1 0x20 ADD PUSH2 0x7A7 JUMP JUMPDEST PUSH2 0x16EE PUSH2 0x1C7F JUMP JUMPDEST PUSH1 0x0 SLOAD PUSH1 0x1 PUSH1 0xA8 SHL SWAP1 DIV PUSH1 0xFF AND ISZERO DUP1 DUP1 ISZERO PUSH2 0x1716 JUMPI POP PUSH1 0x0 SLOAD PUSH1 0x1 PUSH1 0x1 PUSH1 0xA0 SHL SWAP1 SWAP2 DIV PUSH1 0xFF AND LT JUMPDEST DUP1 PUSH2 0x1737 JUMPI POP ADDRESS EXTCODESIZE ISZERO DUP1 ISZERO PUSH2 0x1737 JUMPI POP PUSH1 0x0 SLOAD PUSH1 0x1 PUSH1 0xA0 SHL SWAP1 DIV PUSH1 0xFF AND PUSH1 0x1 EQ JUMPDEST PUSH2 0x179A JUMPI PUSH1 0x40 MLOAD PUSH3 0x461BCD PUSH1 0xE5 SHL DUP2 MSTORE PUSH1 0x20 PUSH1 0x4 DUP3 ADD MSTORE PUSH1 0x2E PUSH1 0x24 DUP3 ADD MSTORE PUSH32 0x496E697469616C697A61626C653A20636F6E747261637420697320616C726561 PUSH1 0x44 DUP3 ADD MSTORE PUSH14 0x191E481A5B9A5D1A585B1A5E9959 PUSH1 0x92 SHL PUSH1 0x64 DUP3 ADD MSTORE PUSH1 0x84 ADD PUSH2 0x6EB JUMP JUMPDEST PUSH1 0x0 DUP1 SLOAD PUSH1 0xFF PUSH1 0xA0 SHL NOT AND PUSH1 0x1 PUSH1 0xA0 SHL OR SWAP1 SSTORE DUP1 ISZERO PUSH2 0x17C7 JUMPI PUSH1 0x0 DUP1 SLOAD PUSH1 0xFF PUSH1 0xA8 SHL NOT AND PUSH1 0x1 PUSH1 0xA8 SHL OR SWAP1 SSTORE JUMPDEST PUSH1 0x10 DUP1 SLOAD PUSH1 0x1 PUSH1 0x1 PUSH1 0xA0 SHL SUB NOT AND PUSH1 0x1 PUSH1 0x1 PUSH1 0xA0 SHL SUB DUP5 AND OR SWAP1 SSTORE DUP1 ISZERO PUSH2 0xFF0 JUMPI PUSH1 0x0 DUP1 SLOAD PUSH1 0xFF PUSH1 0xA8 SHL NOT AND SWAP1 SSTORE PUSH1 0x40 MLOAD PUSH1 0x1 DUP2 MSTORE PUSH32 0x7F26B83FF96E1F2B6A682F133852F6798A09C465DA95921460CEFB3847402498 SWAP1 PUSH1 0x20 ADD PUSH1 0x40 MLOAD DUP1 SWAP2 SUB SWAP1 LOG1 POP POP JUMP JUMPDEST PUSH1 0x0 PUSH2 0xA81 PUSH1 0x7 DUP4 PUSH2 0x1D03 JUMP JUMPDEST PUSH2 0x1842 PUSH2 0x1C7F JUMP JUMPDEST PUSH2 0x184D PUSH1 0x1 DUP3 PUSH2 0x1CD9 JUMP JUMPDEST PUSH2 0x188E JUMPI PUSH1 0x40 MLOAD PUSH3 0x461BCD PUSH1 0xE5 SHL DUP2 MSTORE PUSH1 0x20 PUSH1 0x4 DUP3 ADD MSTORE PUSH1 0x12 PUSH1 0x24 DUP3 ADD MSTORE PUSH18 0x19985A5B1959081D1BC8185919081C1BDBDB PUSH1 0x72 SHL PUSH1 0x44 DUP3 ADD MSTORE PUSH1 0x64 ADD PUSH2 0x6EB JUMP JUMPDEST PUSH2 0x1899 PUSH1 0x3 DUP3 PUSH2 0x1CD9 JUMP JUMPDEST PUSH2 0x18DA JUMPI PUSH1 0x40 MLOAD PUSH3 0x461BCD PUSH1 0xE5 SHL DUP2 MSTORE PUSH1 0x20 PUSH1 0x4 DUP3 ADD MSTORE PUSH1 0x12 PUSH1 0x24 DUP3 ADD MSTORE PUSH18 0x19985A5B1959081D1BC8185919081C1BDBDB PUSH1 0x72 SHL PUSH1 0x44 DUP3 ADD MSTORE PUSH1 0x64 ADD PUSH2 0x6EB JUMP JUMPDEST PUSH1 0x10 SLOAD PUSH1 0x40 MLOAD PUSH4 0x54B94C2F PUSH1 0xE1 SHL DUP2 MSTORE PUSH1 0x1 PUSH1 0x1 PUSH1 0xA0 SHL SUB DUP4 DUP2 AND PUSH1 0x4 DUP4 ADD MSTORE SWAP1 SWAP2 AND SWAP1 PUSH4 0xA972985E SWAP1 PUSH1 0x24 ADD PUSH1 0x20 PUSH1 0x40 MLOAD DUP1 DUP4 SUB DUP2 PUSH1 0x0 DUP8 GAS CALL ISZERO DUP1 ISZERO PUSH2 0x1926 JUMPI RETURNDATASIZE PUSH1 0x0 DUP1 RETURNDATACOPY RETURNDATASIZE PUSH1 0x0 REVERT JUMPDEST POP POP POP POP PUSH1 0x40 MLOAD RETURNDATASIZE PUSH1 0x1F NOT PUSH1 0x1F DUP3 ADD AND DUP3 ADD DUP1 PUSH1 0x40 MSTORE POP DUP2 ADD SWAP1 PUSH2 0x194A SWAP2 SWAP1 PUSH2 0x2411 JUMP JUMPDEST POP PUSH1 0x40 MLOAD PUSH1 0x1 PUSH1 0x1 PUSH1 0xA0 SHL SUB DUP3 AND SWAP1 PUSH32 0x73CCA62AB1B520C9715BF4E6C71E3E518C754E7148F65102F43289A7DF0EFEA6 SWAP1 PUSH1 0x0 SWAP1 LOG2 POP JUMP JUMPDEST PUSH2 0x198A PUSH2 0x1C7F JUMP JUMPDEST PUSH1 0x15 SLOAD DUP2 MLOAD PUSH1 0x1 PUSH1 0x1 PUSH1 0xA0 SHL SUB AND PUSH1 0x0 SWAP1 DUP2 MSTORE PUSH1 0x16 PUSH1 0x20 MSTORE PUSH1 0x40 SWAP1 KECCAK256 SLOAD TIMESTAMP SWAP2 PUSH2 0x19B2 SWAP2 PUSH2 0x2487 JUMP JUMPDEST LT PUSH2 0x19FF JUMPI PUSH1 0x40 MLOAD PUSH3 0x461BCD PUSH1 0xE5 SHL DUP2 MSTORE PUSH1 0x20 PUSH1 0x4 DUP3 ADD MSTORE PUSH1 0x1F PUSH1 0x24 DUP3 ADD MSTORE PUSH32 0x776569676874207570646174652064656C6179206E6F7420656C617073656400 PUSH1 0x44 DUP3 ADD MSTORE PUSH1 0x64 ADD PUSH2 0x6EB JUMP JUMPDEST DUP1 MLOAD PUSH1 0x20 DUP3 ADD MLOAD PUSH1 0x40 MLOAD PUSH4 0x8DBFB25B PUSH1 0xE0 SHL DUP2 MSTORE PUSH1 0x1 PUSH1 0x1 PUSH1 0xA0 SHL SUB SWAP1 SWAP3 AND SWAP2 PUSH4 0x8DBFB25B SWAP2 PUSH2 0x1A31 SWAP2 PUSH1 0x4 ADD PUSH2 0x249A JUMP JUMPDEST PUSH1 0x0 PUSH1 0x40 MLOAD DUP1 DUP4 SUB DUP2 PUSH1 0x0 DUP8 DUP1 EXTCODESIZE ISZERO DUP1 ISZERO PUSH2 0x1A4B JUMPI PUSH1 0x0 DUP1 REVERT JUMPDEST POP GAS CALL ISZERO DUP1 ISZERO PUSH2 0x1A5F JUMPI RETURNDATASIZE PUSH1 0x0 DUP1 RETURNDATACOPY RETURNDATASIZE PUSH1 0x0 REVERT JUMPDEST POP POP SWAP2 MLOAD PUSH1 0x1 PUSH1 0x1 PUSH1 0xA0 SHL SUB AND PUSH1 0x0 SWAP1 DUP2 MSTORE PUSH1 0x16 PUSH1 0x20 MSTORE PUSH1 0x40 SWAP1 KECCAK256 TIMESTAMP SWAP1 SSTORE POP POP JUMP JUMPDEST PUSH2 0x1A89 PUSH2 0x1C7F JUMP JUMPDEST PUSH1 0x1 PUSH1 0x1 PUSH1 0xA0 SHL SUB DUP2 AND PUSH2 0x1AAF JUMPI PUSH1 0x40 MLOAD PUSH3 0x461BCD PUSH1 0xE5 SHL DUP2 MSTORE PUSH1 0x4 ADD PUSH2 0x6EB SWAP1 PUSH2 0x2395 JUMP JUMPDEST PUSH1 0x12 SLOAD PUSH1 0x1 PUSH1 0x1 PUSH1 0xA0 SHL SUB SWAP1 DUP2 AND SWAP1 DUP3 AND SUB PUSH2 0x1B02 JUMPI PUSH1 0x40 MLOAD PUSH3 0x461BCD PUSH1 0xE5 SHL DUP2 MSTORE PUSH1 0x20 PUSH1 0x4 DUP3 ADD MSTORE PUSH1 0x12 PUSH1 0x24 DUP3 ADD MSTORE PUSH18 0x1CD85B5948199959481C9958DA5C1A595B9D PUSH1 0x72 SHL PUSH1 0x44 DUP3 ADD MSTORE PUSH1 0x64 ADD PUSH2 0x6EB JUMP JUMPDEST PUSH1 0x12 DUP1 SLOAD PUSH1 0x1 PUSH1 0x1 PUSH1 0xA0 SHL SUB NOT AND PUSH1 0x1 PUSH1 0x1 PUSH1 0xA0 SHL SUB DUP4 AND SWAP1 DUP2 OR SWAP1 SWAP2 SSTORE PUSH1 0x40 MLOAD SWAP1 DUP2 MSTORE PUSH32 0xBF9A9534339A9D6B81696E05DCFB614B7DC518A31D48BE3CFB757988381FB323 SWAP1 PUSH1 0x20 ADD PUSH2 0x7A7 JUMP JUMPDEST PUSH2 0x1B58 PUSH2 0x1C7F JUMP JUMPDEST PUSH1 0x1 PUSH1 0x1 PUSH1 0xA0 SHL SUB DUP2 AND PUSH2 0x1BBD JUMPI PUSH1 0x40 MLOAD PUSH3 0x461BCD PUSH1 0xE5 SHL DUP2 MSTORE PUSH1 0x20 PUSH1 0x4 DUP3 ADD MSTORE PUSH1 0x26 PUSH1 0x24 DUP3 ADD MSTORE PUSH32 0x4F776E61626C653A206E6577206F776E657220697320746865207A65726F2061 PUSH1 0x44 DUP3 ADD MSTORE PUSH6 0x646472657373 PUSH1 0xD0 SHL PUSH1 0x64 DUP3 ADD MSTORE PUSH1 0x84 ADD PUSH2 0x6EB JUMP JUMPDEST PUSH2 0x1BC6 DUP2 PUSH2 0x1D25 JUMP JUMPDEST POP JUMP JUMPDEST PUSH2 0x1BD1 PUSH2 0x1C7F JUMP JUMPDEST PUSH1 0xB SLOAD PUSH1 0x1 PUSH1 0x1 PUSH1 0xA0 SHL SUB SWAP1 DUP2 AND SWAP1 DUP3 AND SUB PUSH2 0x1C24 JUMPI PUSH1 0x40 MLOAD PUSH3 0x461BCD PUSH1 0xE5 SHL DUP2 MSTORE PUSH1 0x20 PUSH1 0x4 DUP3 ADD MSTORE PUSH1 0x12 PUSH1 0x24 DUP3 ADD MSTORE PUSH18 0x39B0B6B29031BAB93B32903430B7323632B9 PUSH1 0x71 SHL PUSH1 0x44 DUP3 ADD MSTORE PUSH1 0x64 ADD PUSH2 0x6EB JUMP JUMPDEST PUSH1 0xB DUP1 SLOAD PUSH1 0x1 PUSH1 0x1 PUSH1 0xA0 SHL SUB NOT AND PUSH1 0x1 PUSH1 0x1 PUSH1 0xA0 SHL SUB DUP4 AND SWAP1 DUP2 OR SWAP1 SWAP2 SSTORE PUSH1 0x40 MLOAD SWAP1 DUP2 MSTORE PUSH32 0x40F17CC99608ACC0AA583A98BD741564E79111D55E65ADC0399F400A707D4831 SWAP1 PUSH1 0x20 ADD PUSH2 0x7A7 JUMP JUMPDEST PUSH1 0x60 PUSH1 0x0 PUSH2 0xD3F DUP4 PUSH2 0x1DF6 JUMP JUMPDEST PUSH1 0x0 SLOAD PUSH1 0x1 PUSH1 0x1 PUSH1 0xA0 SHL SUB AND CALLER EQ PUSH2 0xEBA JUMPI PUSH1 0x40 MLOAD PUSH3 0x461BCD PUSH1 0xE5 SHL DUP2 MSTORE PUSH1 0x20 PUSH1 0x4 DUP3 ADD DUP2 SWAP1 MSTORE PUSH1 0x24 DUP3 ADD MSTORE PUSH32 0x4F776E61626C653A2063616C6C6572206973206E6F7420746865206F776E6572 PUSH1 0x44 DUP3 ADD MSTORE PUSH1 0x64 ADD PUSH2 0x6EB JUMP JUMPDEST PUSH1 0x0 PUSH2 0xD3F DUP4 PUSH1 0x1 PUSH1 0x1 PUSH1 0xA0 SHL SUB DUP5 AND PUSH2 0x1E52 JUMP JUMPDEST PUSH1 0x0 PUSH2 0xD3F DUP4 PUSH1 0x1 PUSH1 0x1 PUSH1 0xA0 SHL SUB DUP5 AND PUSH2 0x1EA1 JUMP JUMPDEST PUSH1 0x1 PUSH1 0x1 PUSH1 0xA0 SHL SUB DUP2 AND PUSH1 0x0 SWAP1 DUP2 MSTORE PUSH1 0x1 DUP4 ADD PUSH1 0x20 MSTORE PUSH1 0x40 DUP2 KECCAK256 SLOAD ISZERO ISZERO PUSH2 0xD3F JUMP JUMPDEST PUSH1 0x0 DUP1 SLOAD PUSH1 0x1 PUSH1 0x1 PUSH1 0xA0 SHL SUB DUP4 DUP2 AND PUSH1 0x1 PUSH1 0x1 PUSH1 0xA0 SHL SUB NOT DUP4 AND DUP2 OR DUP5 SSTORE PUSH1 0x40 MLOAD SWAP2 SWAP1 SWAP3 AND SWAP3 DUP4 SWAP2 PUSH32 0x8BE0079C531659141344CD1FD0A4F28419497F9722A3DAAFE3B4186F6B6457E0 SWAP2 SWAP1 LOG3 POP POP JUMP JUMPDEST PUSH1 0x0 PUSH2 0xA81 DUP3 SLOAD SWAP1 JUMP JUMPDEST PUSH1 0x0 PUSH2 0xD3F DUP4 DUP4 PUSH2 0x1F94 JUMP JUMPDEST PUSH1 0x0 DUP2 PUSH1 0xFF AND DUP4 PUSH1 0xFF AND SUB PUSH2 0x1DA1 JUMPI POP DUP3 PUSH2 0xD3F JUMP JUMPDEST DUP2 PUSH1 0xFF AND DUP4 PUSH1 0xFF AND GT ISZERO PUSH2 0x1DC1 JUMPI PUSH2 0x1DBA DUP5 DUP5 DUP5 PUSH2 0x1FBE JUMP JUMPDEST SWAP1 POP PUSH2 0xD3F JUMP JUMPDEST PUSH2 0x1DCC DUP5 DUP5 DUP5 PUSH2 0x1FDF JUMP JUMPDEST SWAP5 SWAP4 POP POP POP POP JUMP JUMPDEST PUSH1 0x0 PUSH2 0x1DE2 PUSH1 0x12 PUSH1 0xA PUSH2 0x25D6 JUMP JUMPDEST PUSH2 0x1DEC DUP4 DUP6 PUSH2 0x25E2 JUMP JUMPDEST PUSH2 0xD3F SWAP2 SWAP1 PUSH2 0x25F9 JUMP JUMPDEST PUSH1 0x60 DUP2 PUSH1 0x0 ADD DUP1 SLOAD DUP1 PUSH1 0x20 MUL PUSH1 0x20 ADD PUSH1 0x40 MLOAD SWAP1 DUP2 ADD PUSH1 0x40 MSTORE DUP1 SWAP3 SWAP2 SWAP1 DUP2 DUP2 MSTORE PUSH1 0x20 ADD DUP3 DUP1 SLOAD DUP1 ISZERO PUSH2 0x1E46 JUMPI PUSH1 0x20 MUL DUP3 ADD SWAP2 SWAP1 PUSH1 0x0 MSTORE PUSH1 0x20 PUSH1 0x0 KECCAK256 SWAP1 JUMPDEST DUP2 SLOAD DUP2 MSTORE PUSH1 0x20 ADD SWAP1 PUSH1 0x1 ADD SWAP1 DUP1 DUP4 GT PUSH2 0x1E32 JUMPI JUMPDEST POP POP POP POP POP SWAP1 POP SWAP2 SWAP1 POP JUMP JUMPDEST PUSH1 0x0 DUP2 DUP2 MSTORE PUSH1 0x1 DUP4 ADD PUSH1 0x20 MSTORE PUSH1 0x40 DUP2 KECCAK256 SLOAD PUSH2 0x1E99 JUMPI POP DUP2 SLOAD PUSH1 0x1 DUP2 DUP2 ADD DUP5 SSTORE PUSH1 0x0 DUP5 DUP2 MSTORE PUSH1 0x20 DUP1 DUP3 KECCAK256 SWAP1 SWAP4 ADD DUP5 SWAP1 SSTORE DUP5 SLOAD DUP5 DUP3 MSTORE DUP3 DUP7 ADD SWAP1 SWAP4 MSTORE PUSH1 0x40 SWAP1 KECCAK256 SWAP2 SWAP1 SWAP2 SSTORE PUSH2 0xA81 JUMP JUMPDEST POP PUSH1 0x0 PUSH2 0xA81 JUMP JUMPDEST PUSH1 0x0 DUP2 DUP2 MSTORE PUSH1 0x1 DUP4 ADD PUSH1 0x20 MSTORE PUSH1 0x40 DUP2 KECCAK256 SLOAD DUP1 ISZERO PUSH2 0x1F8A JUMPI PUSH1 0x0 PUSH2 0x1EC5 PUSH1 0x1 DUP4 PUSH2 0x261B JUMP JUMPDEST DUP6 SLOAD SWAP1 SWAP2 POP PUSH1 0x0 SWAP1 PUSH2 0x1ED9 SWAP1 PUSH1 0x1 SWAP1 PUSH2 0x261B JUMP JUMPDEST SWAP1 POP DUP2 DUP2 EQ PUSH2 0x1F3E JUMPI PUSH1 0x0 DUP7 PUSH1 0x0 ADD DUP3 DUP2 SLOAD DUP2 LT PUSH2 0x1EF9 JUMPI PUSH2 0x1EF9 PUSH2 0x23CC JUMP JUMPDEST SWAP1 PUSH1 0x0 MSTORE PUSH1 0x20 PUSH1 0x0 KECCAK256 ADD SLOAD SWAP1 POP DUP1 DUP8 PUSH1 0x0 ADD DUP5 DUP2 SLOAD DUP2 LT PUSH2 0x1F1C JUMPI PUSH2 0x1F1C PUSH2 0x23CC JUMP JUMPDEST PUSH1 0x0 SWAP2 DUP3 MSTORE PUSH1 0x20 DUP1 DUP4 KECCAK256 SWAP1 SWAP2 ADD SWAP3 SWAP1 SWAP3 SSTORE SWAP2 DUP3 MSTORE PUSH1 0x1 DUP9 ADD SWAP1 MSTORE PUSH1 0x40 SWAP1 KECCAK256 DUP4 SWAP1 SSTORE JUMPDEST DUP6 SLOAD DUP7 SWAP1 DUP1 PUSH2 0x1F4F JUMPI PUSH2 0x1F4F PUSH2 0x262E JUMP JUMPDEST PUSH1 0x1 SWAP1 SUB DUP2 DUP2 SWAP1 PUSH1 0x0 MSTORE PUSH1 0x20 PUSH1 0x0 KECCAK256 ADD PUSH1 0x0 SWAP1 SSTORE SWAP1 SSTORE DUP6 PUSH1 0x1 ADD PUSH1 0x0 DUP7 DUP2 MSTORE PUSH1 0x20 ADD SWAP1 DUP2 MSTORE PUSH1 0x20 ADD PUSH1 0x0 KECCAK256 PUSH1 0x0 SWAP1 SSTORE PUSH1 0x1 SWAP4 POP POP POP POP PUSH2 0xA81 JUMP JUMPDEST PUSH1 0x0 SWAP2 POP POP PUSH2 0xA81 JUMP JUMPDEST PUSH1 0x0 DUP3 PUSH1 0x0 ADD DUP3 DUP2 SLOAD DUP2 LT PUSH2 0x1FAB JUMPI PUSH2 0x1FAB PUSH2 0x23CC JUMP JUMPDEST SWAP1 PUSH1 0x0 MSTORE PUSH1 0x20 PUSH1 0x0 KECCAK256 ADD SLOAD SWAP1 POP SWAP3 SWAP2 POP POP JUMP JUMPDEST PUSH1 0x0 PUSH2 0x1FCA DUP3 DUP5 PUSH2 0x2644 JUMP JUMPDEST PUSH2 0x1FD5 SWAP1 PUSH1 0xA PUSH2 0x265D JUMP JUMPDEST PUSH2 0x1DCC SWAP1 DUP6 PUSH2 0x25F9 JUMP JUMPDEST PUSH1 0x0 PUSH2 0x1FEB DUP4 DUP4 PUSH2 0x2644 JUMP JUMPDEST PUSH2 0x1FF6 SWAP1 PUSH1 0xA PUSH2 0x265D JUMP JUMPDEST PUSH2 0x1DCC SWAP1 DUP6 PUSH2 0x25E2 JUMP JUMPDEST PUSH1 0x20 DUP1 DUP3 MSTORE DUP3 MLOAD DUP3 DUP3 ADD DUP2 SWAP1 MSTORE PUSH1 0x0 SWAP2 SWAP1 DUP5 DUP3 ADD SWAP1 PUSH1 0x40 DUP6 ADD SWAP1 DUP5 JUMPDEST DUP2 DUP2 LT ISZERO PUSH2 0x2041 JUMPI DUP4 MLOAD PUSH1 0x1 PUSH1 0x1 PUSH1 0xA0 SHL SUB AND DUP4 MSTORE SWAP3 DUP5 ADD SWAP3 SWAP2 DUP5 ADD SWAP2 PUSH1 0x1 ADD PUSH2 0x201C JUMP JUMPDEST POP SWAP1 SWAP7 SWAP6 POP POP POP POP POP POP JUMP JUMPDEST PUSH1 0x1 PUSH1 0x1 PUSH1 0xA0 SHL SUB DUP2 AND DUP2 EQ PUSH2 0x1BC6 JUMPI PUSH1 0x0 DUP1 REVERT JUMPDEST PUSH1 0x0 PUSH1 0x20 DUP3 DUP5 SUB SLT ISZERO PUSH2 0x2074 JUMPI PUSH1 0x0 DUP1 REVERT JUMPDEST DUP2 CALLDATALOAD PUSH2 0xD3F DUP2 PUSH2 0x204D JUMP JUMPDEST PUSH1 0x0 PUSH1 0x20 DUP3 DUP5 SUB SLT ISZERO PUSH2 0x2091 JUMPI PUSH1 0x0 DUP1 REVERT JUMPDEST POP CALLDATALOAD SWAP2 SWAP1 POP JUMP JUMPDEST DUP1 ISZERO ISZERO DUP2 EQ PUSH2 0x1BC6 JUMPI PUSH1 0x0 DUP1 REVERT JUMPDEST PUSH1 0x0 DUP1 PUSH1 0x40 DUP4 DUP6 SUB SLT ISZERO PUSH2 0x20B9 JUMPI PUSH1 0x0 DUP1 REVERT JUMPDEST DUP3 CALLDATALOAD PUSH2 0x20C4 DUP2 PUSH2 0x204D JUMP JUMPDEST SWAP2 POP PUSH1 0x20 DUP4 ADD CALLDATALOAD PUSH2 0x20D4 DUP2 PUSH2 0x2098 JUMP JUMPDEST DUP1 SWAP2 POP POP SWAP3 POP SWAP3 SWAP1 POP JUMP JUMPDEST PUSH4 0x4E487B71 PUSH1 0xE0 SHL PUSH1 0x0 MSTORE PUSH1 0x41 PUSH1 0x4 MSTORE PUSH1 0x24 PUSH1 0x0 REVERT JUMPDEST PUSH1 0x40 DUP1 MLOAD SWAP1 DUP2 ADD PUSH8 0xFFFFFFFFFFFFFFFF DUP2 GT DUP3 DUP3 LT OR ISZERO PUSH2 0x2118 JUMPI PUSH2 0x2118 PUSH2 0x20DF JUMP JUMPDEST PUSH1 0x40 MSTORE SWAP1 JUMP JUMPDEST PUSH1 0x40 MLOAD PUSH1 0x1F DUP3 ADD PUSH1 0x1F NOT AND DUP2 ADD PUSH8 0xFFFFFFFFFFFFFFFF DUP2 GT DUP3 DUP3 LT OR ISZERO PUSH2 0x2147 JUMPI PUSH2 0x2147 PUSH2 0x20DF JUMP JUMPDEST PUSH1 0x40 MSTORE SWAP2 SWAP1 POP JUMP JUMPDEST PUSH1 0x0 PUSH8 0xFFFFFFFFFFFFFFFF DUP3 GT ISZERO PUSH2 0x2169 JUMPI PUSH2 0x2169 PUSH2 0x20DF JUMP JUMPDEST POP PUSH1 0x5 SHL PUSH1 0x20 ADD SWAP1 JUMP JUMPDEST PUSH1 0x0 PUSH1 0x40 DUP1 DUP4 DUP6 SUB SLT ISZERO PUSH2 0x2186 JUMPI PUSH1 0x0 DUP1 REVERT JUMPDEST PUSH2 0x218E PUSH2 0x20F5 JUMP JUMPDEST SWAP2 POP DUP3 CALLDATALOAD PUSH2 0x219B DUP2 PUSH2 0x204D JUMP JUMPDEST DUP3 MSTORE PUSH1 0x20 DUP4 DUP2 ADD CALLDATALOAD PUSH8 0xFFFFFFFFFFFFFFFF DUP2 GT ISZERO PUSH2 0x21B8 JUMPI PUSH1 0x0 DUP1 REVERT JUMPDEST DUP5 ADD PUSH1 0x1F DUP2 ADD DUP7 SGT PUSH2 0x21C9 JUMPI PUSH1 0x0 DUP1 REVERT JUMPDEST DUP1 CALLDATALOAD PUSH2 0x21DC PUSH2 0x21D7 DUP3 PUSH2 0x214F JUMP JUMPDEST PUSH2 0x211E JUMP JUMPDEST DUP2 DUP2 MSTORE PUSH1 0x6 SWAP2 SWAP1 SWAP2 SHL DUP3 ADD DUP4 ADD SWAP1 DUP4 DUP2 ADD SWAP1 DUP9 DUP4 GT ISZERO PUSH2 0x21FB JUMPI PUSH1 0x0 DUP1 REVERT JUMPDEST SWAP3 DUP5 ADD SWAP3 JUMPDEST DUP3 DUP5 LT ISZERO PUSH2 0x2244 JUMPI DUP6 DUP5 DUP11 SUB SLT ISZERO PUSH2 0x2218 JUMPI PUSH1 0x0 DUP1 DUP2 REVERT JUMPDEST PUSH2 0x2220 PUSH2 0x20F5 JUMP JUMPDEST DUP5 CALLDATALOAD PUSH2 0x222B DUP2 PUSH2 0x204D JUMP JUMPDEST DUP2 MSTORE DUP5 DUP7 ADD CALLDATALOAD DUP7 DUP3 ADD MSTORE DUP3 MSTORE SWAP3 DUP6 ADD SWAP3 SWAP1 DUP5 ADD SWAP1 PUSH2 0x2200 JUMP JUMPDEST DUP1 DUP6 DUP9 ADD MSTORE POP POP POP POP POP POP SWAP3 SWAP2 POP POP JUMP JUMPDEST PUSH1 0x0 PUSH1 0x20 DUP1 DUP4 DUP6 SUB SLT ISZERO PUSH2 0x2268 JUMPI PUSH1 0x0 DUP1 REVERT JUMPDEST DUP3 CALLDATALOAD PUSH8 0xFFFFFFFFFFFFFFFF DUP1 DUP3 GT ISZERO PUSH2 0x2280 JUMPI PUSH1 0x0 DUP1 REVERT JUMPDEST DUP2 DUP6 ADD SWAP2 POP DUP6 PUSH1 0x1F DUP4 ADD SLT PUSH2 0x2294 JUMPI PUSH1 0x0 DUP1 REVERT JUMPDEST DUP2 CALLDATALOAD PUSH2 0x22A2 PUSH2 0x21D7 DUP3 PUSH2 0x214F JUMP JUMPDEST DUP2 DUP2 MSTORE PUSH1 0x5 SWAP2 SWAP1 SWAP2 SHL DUP4 ADD DUP5 ADD SWAP1 DUP5 DUP2 ADD SWAP1 DUP9 DUP4 GT ISZERO PUSH2 0x22C1 JUMPI PUSH1 0x0 DUP1 REVERT JUMPDEST DUP6 DUP6 ADD JUMPDEST DUP4 DUP2 LT ISZERO PUSH2 0x22F9 JUMPI DUP1 CALLDATALOAD DUP6 DUP2 GT ISZERO PUSH2 0x22DD JUMPI PUSH1 0x0 DUP1 DUP2 REVERT JUMPDEST PUSH2 0x22EB DUP12 DUP10 DUP4 DUP11 ADD ADD PUSH2 0x2173 JUMP JUMPDEST DUP5 MSTORE POP SWAP2 DUP7 ADD SWAP2 DUP7 ADD PUSH2 0x22C5 JUMP JUMPDEST POP SWAP9 SWAP8 POP POP POP POP POP POP POP POP JUMP JUMPDEST PUSH1 0x0 DUP1 PUSH1 0x40 DUP4 DUP6 SUB SLT ISZERO PUSH2 0x2319 JUMPI PUSH1 0x0 DUP1 REVERT JUMPDEST DUP3 CALLDATALOAD PUSH2 0x2324 DUP2 PUSH2 0x204D JUMP JUMPDEST SWAP5 PUSH1 0x20 SWAP4 SWAP1 SWAP4 ADD CALLDATALOAD SWAP4 POP POP POP JUMP JUMPDEST PUSH1 0x0 DUP1 PUSH1 0x40 DUP4 DUP6 SUB SLT ISZERO PUSH2 0x2345 JUMPI PUSH1 0x0 DUP1 REVERT JUMPDEST DUP3 CALLDATALOAD PUSH2 0x2350 DUP2 PUSH2 0x204D JUMP JUMPDEST SWAP2 POP PUSH1 0x20 DUP4 ADD CALLDATALOAD PUSH2 0x20D4 DUP2 PUSH2 0x204D JUMP JUMPDEST PUSH1 0x0 PUSH1 0x20 DUP3 DUP5 SUB SLT ISZERO PUSH2 0x2372 JUMPI PUSH1 0x0 DUP1 REVERT JUMPDEST DUP2 CALLDATALOAD PUSH8 0xFFFFFFFFFFFFFFFF DUP2 GT ISZERO PUSH2 0x2389 JUMPI PUSH1 0x0 DUP1 REVERT JUMPDEST PUSH2 0x1DCC DUP5 DUP3 DUP6 ADD PUSH2 0x2173 JUMP JUMPDEST PUSH1 0x20 DUP1 DUP3 MSTORE PUSH1 0x1A SWAP1 DUP3 ADD MSTORE PUSH32 0x63616E6E6F742073657420746F207A65726F2061646472657373000000000000 PUSH1 0x40 DUP3 ADD MSTORE PUSH1 0x60 ADD SWAP1 JUMP JUMPDEST PUSH4 0x4E487B71 PUSH1 0xE0 SHL PUSH1 0x0 MSTORE PUSH1 0x32 PUSH1 0x4 MSTORE PUSH1 0x24 PUSH1 0x0 REVERT JUMPDEST PUSH4 0x4E487B71 PUSH1 0xE0 SHL PUSH1 0x0 MSTORE PUSH1 0x11 PUSH1 0x4 MSTORE PUSH1 0x24 PUSH1 0x0 REVERT JUMPDEST PUSH1 0x0 PUSH1 0x1 DUP3 ADD PUSH2 0x240A JUMPI PUSH2 0x240A PUSH2 0x23E2 JUMP JUMPDEST POP PUSH1 0x1 ADD SWAP1 JUMP JUMPDEST PUSH1 0x0 PUSH1 0x20 DUP3 DUP5 SUB SLT ISZERO PUSH2 0x2423 JUMPI PUSH1 0x0 DUP1 REVERT JUMPDEST POP MLOAD SWAP2 SWAP1 POP JUMP JUMPDEST PUSH1 0x0 PUSH1 0x20 DUP3 DUP5 SUB SLT ISZERO PUSH2 0x243C JUMPI PUSH1 0x0 DUP1 REVERT JUMPDEST DUP2 MLOAD PUSH2 0xD3F DUP2 PUSH2 0x204D JUMP JUMPDEST PUSH1 0x0 PUSH1 0x20 DUP3 DUP5 SUB SLT ISZERO PUSH2 0x2459 JUMPI PUSH1 0x0 DUP1 REVERT JUMPDEST DUP2 MLOAD PUSH1 0xFF DUP2 AND DUP2 EQ PUSH2 0xD3F JUMPI PUSH1 0x0 DUP1 REVERT JUMPDEST PUSH1 0x0 PUSH1 0x20 DUP3 DUP5 SUB SLT ISZERO PUSH2 0x247C JUMPI PUSH1 0x0 DUP1 REVERT JUMPDEST DUP2 MLOAD PUSH2 0xD3F DUP2 PUSH2 0x2098 JUMP JUMPDEST DUP1 DUP3 ADD DUP1 DUP3 GT ISZERO PUSH2 0xA81 JUMPI PUSH2 0xA81 PUSH2 0x23E2 JUMP JUMPDEST PUSH1 0x20 DUP1 DUP3 MSTORE DUP3 MLOAD DUP3 DUP3 ADD DUP2 SWAP1 MSTORE PUSH1 0x0 SWAP2 SWAP1 PUSH1 0x40 SWAP1 DUP2 DUP6 ADD SWAP1 DUP7 DUP5 ADD DUP6 JUMPDEST DUP3 DUP2 LT ISZERO PUSH2 0x24E5 JUMPI DUP2 MLOAD DUP1 MLOAD PUSH1 0x1 PUSH1 0x1 PUSH1 0xA0 SHL SUB AND DUP6 MSTORE DUP7 ADD MLOAD DUP7 DUP6 ADD MSTORE SWAP3 DUP5 ADD SWAP3 SWAP1 DUP6 ADD SWAP1 PUSH1 0x1 ADD PUSH2 0x24B7 JUMP JUMPDEST POP SWAP2 SWAP8 SWAP7 POP POP POP POP POP POP POP JUMP JUMPDEST PUSH1 0x1 DUP2 DUP2 JUMPDEST DUP1 DUP6 GT ISZERO PUSH2 0x252D JUMPI DUP2 PUSH1 0x0 NOT DIV DUP3 GT ISZERO PUSH2 0x2513 JUMPI PUSH2 0x2513 PUSH2 0x23E2 JUMP JUMPDEST DUP1 DUP6 AND ISZERO PUSH2 0x2520 JUMPI SWAP2 DUP2 MUL SWAP2 JUMPDEST SWAP4 DUP5 SHR SWAP4 SWAP1 DUP1 MUL SWAP1 PUSH2 0x24F7 JUMP JUMPDEST POP SWAP3 POP SWAP3 SWAP1 POP JUMP JUMPDEST PUSH1 0x0 DUP3 PUSH2 0x2544 JUMPI POP PUSH1 0x1 PUSH2 0xA81 JUMP JUMPDEST DUP2 PUSH2 0x2551 JUMPI POP PUSH1 0x0 PUSH2 0xA81 JUMP JUMPDEST DUP2 PUSH1 0x1 DUP2 EQ PUSH2 0x2567 JUMPI PUSH1 0x2 DUP2 EQ PUSH2 0x2571 JUMPI PUSH2 0x258D JUMP JUMPDEST PUSH1 0x1 SWAP2 POP POP PUSH2 0xA81 JUMP JUMPDEST PUSH1 0xFF DUP5 GT ISZERO PUSH2 0x2582 JUMPI PUSH2 0x2582 PUSH2 0x23E2 JUMP JUMPDEST POP POP PUSH1 0x1 DUP3 SHL PUSH2 0xA81 JUMP JUMPDEST POP PUSH1 0x20 DUP4 LT PUSH2 0x133 DUP4 LT AND PUSH1 0x4E DUP5 LT PUSH1 0xB DUP5 LT AND OR ISZERO PUSH2 0x25B0 JUMPI POP DUP2 DUP2 EXP PUSH2 0xA81 JUMP JUMPDEST PUSH2 0x25BA DUP4 DUP4 PUSH2 0x24F2 JUMP JUMPDEST DUP1 PUSH1 0x0 NOT DIV DUP3 GT ISZERO PUSH2 0x25CE JUMPI PUSH2 0x25CE PUSH2 0x23E2 JUMP JUMPDEST MUL SWAP4 SWAP3 POP POP POP JUMP JUMPDEST PUSH1 0x0 PUSH2 0xD3F DUP4 DUP4 PUSH2 0x2535 JUMP JUMPDEST DUP1 DUP3 MUL DUP2 ISZERO DUP3 DUP3 DIV DUP5 EQ OR PUSH2 0xA81 JUMPI PUSH2 0xA81 PUSH2 0x23E2 JUMP JUMPDEST PUSH1 0x0 DUP3 PUSH2 0x2616 JUMPI PUSH4 0x4E487B71 PUSH1 0xE0 SHL PUSH1 0x0 MSTORE PUSH1 0x12 PUSH1 0x4 MSTORE PUSH1 0x24 PUSH1 0x0 REVERT JUMPDEST POP DIV SWAP1 JUMP JUMPDEST DUP2 DUP2 SUB DUP2 DUP2 GT ISZERO PUSH2 0xA81 JUMPI PUSH2 0xA81 PUSH2 0x23E2 JUMP JUMPDEST PUSH4 0x4E487B71 PUSH1 0xE0 SHL PUSH1 0x0 MSTORE PUSH1 0x31 PUSH1 0x4 MSTORE PUSH1 0x24 PUSH1 0x0 REVERT JUMPDEST PUSH1 0xFF DUP3 DUP2 AND DUP3 DUP3 AND SUB SWAP1 DUP2 GT ISZERO PUSH2 0xA81 JUMPI PUSH2 0xA81 PUSH2 0x23E2 JUMP JUMPDEST PUSH1 0x0 PUSH2 0xD3F PUSH1 0xFF DUP5 AND DUP4 PUSH2 0x2535 JUMP INVALID LOG2 PUSH5 0x6970667358 0x22 SLT KECCAK256 GASPRICE 0xE9 MULMOD PC SIGNEXTEND PUSH31 0xEB77DA9F9353BEA14543049BE254B8FEB8961FD99F423380E37E64736F6C63 NUMBER STOP ADDMOD GT STOP CALLER ","sha1":"0367171254a8f47534ef69b3357f867c64e2fd23","source":"// SPDX-License-Identifier: GPL-3.0-or-later\npragma solidity 0.8.17;\n\nimport \"@openzeppelin/contracts/token/ERC20/extensions/IERC20Metadata.sol\";\nimport \"@openzeppelin/contracts/utils/structs/EnumerableSet.sol\";\nimport \"@openzeppelin/contracts/access/Ownable.sol\";\nimport \"@openzeppelin/contracts/proxy/utils/Initializable.sol\";\n\nimport \"../libraries/ScaledMath.sol\";\n\nimport \"../interfaces/IController.sol\";\nimport \"../interfaces/tokenomics/ILpTokenStaker.sol\";\nimport \"../interfaces/IPoolAdapter.sol\";\nimport \"../interfaces/IFeeRecipient.sol\";\nimport \"../interfaces/pools/ILpToken.sol\";\nimport \"../interfaces/vendor/IBooster.sol\";\nimport \"../interfaces/tokenomics/IBonding.sol\";\n\ncontract Controller is IController, Ownable, Initializable {\n    using EnumerableSet for EnumerableSet.AddressSet;\n    using ScaledMath for uint256;\n\n    uint256 public constant MAX_WEIGHT_UPDATE_MIN_DELAY = 21 days;\n    uint256 public constant MIN_WEIGHT_UPDATE_MIN_DELAY = 1 days;\n\n    uint256 internal constant _MAX_TAINTED_USD_AMOUNT = 10_000e18;\n\n    EnumerableSet.AddressSet internal _pools;\n    EnumerableSet.AddressSet internal _activePools;\n    EnumerableSet.AddressSet internal _pauseManagers;\n    EnumerableSet.AddressSet internal _multiDepositsWithdrawsWhitelist;\n\n    mapping(address => uint256) internal _minimumTaintedTransferAmount;\n\n    address public immutable cncToken;\n\n    address public override convexBooster = address(0xF403C135812408BFbE8713b5A23a04b3D48AAE31);\n    address public override curveHandler;\n    address public override convexHandler;\n    IGenericOracle public override priceOracle;\n    ICurveRegistryCache public override curveRegistryCache;\n\n    IInflationManager public override inflationManager;\n    ILpTokenStaker public override lpTokenStaker;\n    IBonding public override bonding;\n    IFeeRecipient public override feeRecipient;\n\n    mapping(address => IPoolAdapter) internal _customPoolAdapters;\n    IPoolAdapter public override defaultPoolAdapter;\n\n    uint256 public weightUpdateMinDelay;\n\n    mapping(address => uint256) public lastWeightUpdate;\n\n    constructor(address cncToken_, address curveRegistryCacheAddress_) {\n        cncToken = cncToken_;\n        curveRegistryCache = ICurveRegistryCache(curveRegistryCacheAddress_);\n    }\n\n    function initialize(address _lpTokenStaker) external onlyOwner initializer {\n        lpTokenStaker = ILpTokenStaker(_lpTokenStaker);\n    }\n\n    /// @notice shut downs the current lp token staker and sets a new one\n    function switchLpTokenStaker(address _lpTokenStaker) external onlyOwner {\n        lpTokenStaker.shutdown();\n        lpTokenStaker = ILpTokenStaker(_lpTokenStaker);\n        for (uint256 i; i < _pools.length(); i++) {\n            lpTokenStaker.checkpoint(_pools.at(i));\n        }\n    }\n\n    function listPools() external view override returns (address[] memory) {\n        return _pools.values();\n    }\n\n    function listActivePools() external view override returns (address[] memory) {\n        return _activePools.values();\n    }\n\n    function addPool(address poolAddress) external override onlyOwner {\n        require(_pools.add(poolAddress), \"failed to add pool\");\n        require(_activePools.add(poolAddress), \"failed to add pool\");\n        lpTokenStaker.checkpoint(poolAddress);\n        emit PoolAdded(poolAddress);\n    }\n\n    function removePool(address poolAddress) external override onlyOwner {\n        require(_pools.remove(poolAddress), \"failed to remove pool\");\n        require(!_activePools.contains(poolAddress), \"shutdown the pool before removing it\");\n        emit PoolRemoved(poolAddress);\n    }\n\n    function shutdownPool(address poolAddress) external override onlyOwner {\n        require(_activePools.remove(poolAddress), \"failed to remove pool\");\n        IConicPool(poolAddress).shutdownPool();\n        inflationManager.updatePoolWeights();\n        emit PoolShutdown(poolAddress);\n    }\n\n    function isPool(address poolAddress) external view override returns (bool) {\n        return _pools.contains(poolAddress);\n    }\n\n    function isActivePool(address poolAddress) external view override returns (bool) {\n        return _activePools.contains(poolAddress);\n    }\n\n    function updateWeights(WeightUpdate memory update) public override onlyOwner {\n        require(\n            lastWeightUpdate[update.conicPoolAddress] + weightUpdateMinDelay < block.timestamp,\n            \"weight update delay not elapsed\"\n        );\n        IConicPool(update.conicPoolAddress).updateWeights(update.weights);\n        lastWeightUpdate[update.conicPoolAddress] = block.timestamp;\n    }\n\n    function updateAllWeights(WeightUpdate[] memory weights) external override onlyOwner {\n        for (uint256 i; i < weights.length; i++) {\n            updateWeights(weights[i]);\n        }\n    }\n\n    function setConvexBooster(address _convexBooster) external override onlyOwner {\n        require(IBooster(convexBooster).isShutdown(), \"current booster is not shutdown\");\n        require(_convexBooster != convexBooster, \"same convex booster\");\n        convexBooster = _convexBooster;\n        emit ConvexBoosterSet(_convexBooster);\n    }\n\n    function setCurveHandler(address _curveHandler) external override onlyOwner {\n        require(_curveHandler != curveHandler, \"same curve handler\");\n        curveHandler = _curveHandler;\n        emit CurveHandlerSet(_curveHandler);\n    }\n\n    function setConvexHandler(address _convexHandler) external override onlyOwner {\n        require(_convexHandler != convexHandler, \"same convex handler\");\n        convexHandler = _convexHandler;\n        emit ConvexHandlerSet(_convexHandler);\n    }\n\n    function setInflationManager(address manager) external onlyOwner {\n        require(manager != address(0), \"cannot set to zero address\");\n        require(manager != address(inflationManager), \"same inflation manager\");\n        inflationManager = IInflationManager(manager);\n        emit InflationManagerSet(manager);\n    }\n\n    function setPriceOracle(address oracle) external override onlyOwner {\n        require(oracle != address(0), \"cannot set to zero address\");\n        require(oracle != address(priceOracle), \"same price oracle\");\n        priceOracle = IGenericOracle(oracle);\n        emit PriceOracleSet(oracle);\n    }\n\n    function setCurveRegistryCache(address curveRegistryCache_) external override onlyOwner {\n        require(curveRegistryCache_ != address(0), \"cannot set to zero address\");\n        require(curveRegistryCache_ != address(curveRegistryCache), \"same curve registry cache\");\n        curveRegistryCache = ICurveRegistryCache(curveRegistryCache_);\n        emit CurveRegistryCacheSet(curveRegistryCache_);\n    }\n\n    function poolAdapterFor(address pool) external view override returns (IPoolAdapter) {\n        IPoolAdapter adapter = _customPoolAdapters[pool];\n        return address(adapter) == address(0) ? defaultPoolAdapter : adapter;\n    }\n\n    function setDefaultPoolAdapter(address poolAdapter) external override onlyOwner {\n        require(poolAdapter != address(0), \"cannot set to zero address\");\n        require(poolAdapter != address(defaultPoolAdapter), \"same default pool adapter\");\n        defaultPoolAdapter = IPoolAdapter(poolAdapter);\n        emit DefaultPoolAdapterSet(poolAdapter);\n    }\n\n    function setCustomPoolAdapter(address pool, address poolAdapter) external override onlyOwner {\n        require(poolAdapter != address(_customPoolAdapters[pool]), \"same custom pool adapter\");\n        _customPoolAdapters[pool] = IPoolAdapter(poolAdapter);\n        emit CustomPoolAdapterSet(pool, poolAdapter);\n    }\n\n    function setBonding(address _bonding) external override onlyOwner {\n        require(address(_bonding) != address(0), \"cannot set to zero address\");\n        require(address(_bonding) != address(bonding), \"same bonding\");\n        bonding = IBonding(_bonding);\n        emit BondingSet(_bonding);\n    }\n\n    function setFeeRecipient(address _feeRecipient) external override onlyOwner {\n        require(address(_feeRecipient) != address(0), \"cannot set to zero address\");\n        require(address(_feeRecipient) != address(feeRecipient), \"same fee recipient\");\n        feeRecipient = IFeeRecipient(_feeRecipient);\n        emit FeeRecipientSet(_feeRecipient);\n    }\n\n    function setWeightUpdateMinDelay(uint256 delay) external override onlyOwner {\n        require(delay < MAX_WEIGHT_UPDATE_MIN_DELAY, \"delay too long\");\n        require(delay > MIN_WEIGHT_UPDATE_MIN_DELAY, \"delay too short\");\n        require(delay != weightUpdateMinDelay, \"same delay\");\n        weightUpdateMinDelay = delay;\n        emit WeightUpdateMinDelaySet(delay);\n    }\n\n    function isPauseManager(address account) external view override returns (bool) {\n        return _pauseManagers.contains(account);\n    }\n\n    function listPauseManagers() external view override returns (address[] memory) {\n        return _pauseManagers.values();\n    }\n\n    function setPauseManager(address account, bool isManager) external override onlyOwner {\n        bool changed = isManager ? _pauseManagers.add(account) : _pauseManagers.remove(account);\n        if (changed) emit PauseManagerSet(account, isManager);\n    }\n\n    function setAllowedMultipleDepositsWithdraws(address account, bool allowed) external onlyOwner {\n        bool changed;\n        if (allowed) changed = _multiDepositsWithdrawsWhitelist.add(account);\n        else changed = _multiDepositsWithdrawsWhitelist.remove(account);\n\n        if (changed) emit MultiDepositsWithdrawsWhitelistSet(account, allowed);\n    }\n\n    function isAllowedMultipleDepositsWithdraws(address account) external view returns (bool) {\n        return _multiDepositsWithdrawsWhitelist.contains(account);\n    }\n\n    function getMultipleDepositsWithdrawsWhitelist() external view returns (address[] memory) {\n        return _multiDepositsWithdrawsWhitelist.values();\n    }\n\n    function setMinimumTaintedTransferAmount(\n        address token,\n        uint256 amount\n    ) external override onlyOwner {\n        require(amount != _minimumTaintedTransferAmount[token], \"same amount\");\n\n        address conicPool = ILpToken(token).minter();\n        IERC20Metadata underlying = IConicPool(conicPool).underlying();\n        uint256 underlyingPrice = priceOracle.getUSDPrice(address(underlying));\n        uint256 scaledAmount = amount.convertScale(underlying.decimals(), 18);\n        uint256 usdAmount = scaledAmount.mulDown(underlyingPrice);\n\n        require(usdAmount <= _MAX_TAINTED_USD_AMOUNT, \"amount too high\");\n\n        _minimumTaintedTransferAmount[token] = amount;\n        emit MinimumTaintedTransferAmountSet(token, amount);\n    }\n\n    function getMinimumTaintedTransferAmount(address token) external view returns (uint256) {\n        return _minimumTaintedTransferAmount[token];\n    }\n}\n","sourcePath":"contracts/Controller.sol","type":"contract","deployment":{"address":"0x2790EC478f150a98F5D96755601a26403DF57EaE","chainid":"1","blockHeight":19036080}}