{"abi":[{"anonymous":false,"inputs":[{"indexed":true,"internalType":"address","name":"pool","type":"address"},{"indexed":true,"internalType":"uint256","name":"pid","type":"uint256"}],"name":"PoolInitialized","type":"event"},{"inputs":[],"name":"BOOSTER","outputs":[{"internalType":"contract IBooster","name":"","type":"address"}],"stateMutability":"view","type":"function"},{"inputs":[{"internalType":"address","name":"pool_","type":"address"}],"name":"assetType","outputs":[{"internalType":"enum CurvePoolUtils.AssetType","name":"","type":"uint8"}],"stateMutability":"view","type":"function"},{"inputs":[{"internalType":"address","name":"pool_","type":"address"}],"name":"basePool","outputs":[{"internalType":"address","name":"","type":"address"}],"stateMutability":"view","type":"function"},{"inputs":[{"internalType":"address","name":"pool_","type":"address"},{"internalType":"address","name":"coin_","type":"address"}],"name":"coinIndex","outputs":[{"internalType":"int128","name":"","type":"int128"}],"stateMutability":"view","type":"function"},{"inputs":[{"internalType":"address","name":"pool_","type":"address"},{"internalType":"address","name":"from_","type":"address"},{"internalType":"address","name":"to_","type":"address"}],"name":"coinIndices","outputs":[{"internalType":"int128","name":"","type":"int128"},{"internalType":"int128","name":"","type":"int128"},{"internalType":"bool","name":"","type":"bool"}],"stateMutability":"view","type":"function"},{"inputs":[{"internalType":"address","name":"pool_","type":"address"}],"name":"coins","outputs":[{"internalType":"address[]","name":"","type":"address[]"}],"stateMutability":"view","type":"function"},{"inputs":[{"internalType":"address","name":"pool_","type":"address"}],"name":"decimals","outputs":[{"internalType":"uint256[]","name":"","type":"uint256[]"}],"stateMutability":"view","type":"function"},{"inputs":[{"internalType":"address","name":"pool","type":"address"}],"name":"getAllUnderlyingCoins","outputs":[{"internalType":"address[]","name":"","type":"address[]"}],"stateMutability":"view","type":"function"},{"inputs":[{"internalType":"address","name":"pool_","type":"address"}],"name":"getPid","outputs":[{"internalType":"uint256","name":"","type":"uint256"}],"stateMutability":"view","type":"function"},{"inputs":[{"internalType":"address","name":"pool_","type":"address"}],"name":"getRewardPool","outputs":[{"internalType":"address","name":"","type":"address"}],"stateMutability":"view","type":"function"},{"inputs":[{"internalType":"address","name":"pool_","type":"address"},{"internalType":"address","name":"coin_","type":"address"}],"name":"hasCoinAnywhere","outputs":[{"internalType":"bool","name":"","type":"bool"}],"stateMutability":"view","type":"function"},{"inputs":[{"internalType":"address","name":"pool_","type":"address"},{"internalType":"address","name":"coin_","type":"address"}],"name":"hasCoinDirectly","outputs":[{"internalType":"bool","name":"","type":"bool"}],"stateMutability":"view","type":"function"},{"inputs":[{"internalType":"address","name":"pool_","type":"address"},{"internalType":"uint256","name":"pid_","type":"uint256"}],"name":"initPool","outputs":[],"stateMutability":"nonpayable","type":"function"},{"inputs":[{"internalType":"address","name":"pool_","type":"address"}],"name":"initPool","outputs":[],"stateMutability":"nonpayable","type":"function"},{"inputs":[{"internalType":"address","name":"pool_","type":"address"}],"name":"interfaceVersion","outputs":[{"internalType":"uint256","name":"","type":"uint256"}],"stateMutability":"view","type":"function"},{"inputs":[{"internalType":"address","name":"pool_","type":"address"}],"name":"isRegistered","outputs":[{"internalType":"bool","name":"","type":"bool"}],"stateMutability":"view","type":"function"},{"inputs":[{"internalType":"uint256","name":"pid_","type":"uint256"}],"name":"isShutdownPid","outputs":[{"internalType":"bool","name":"","type":"bool"}],"stateMutability":"view","type":"function"},{"inputs":[{"internalType":"address","name":"pool_","type":"address"}],"name":"lpToken","outputs":[{"internalType":"address","name":"","type":"address"}],"stateMutability":"view","type":"function"},{"inputs":[{"internalType":"address","name":"pool_","type":"address"}],"name":"nCoins","outputs":[{"internalType":"uint256","name":"","type":"uint256"}],"stateMutability":"view","type":"function"},{"inputs":[{"internalType":"address","name":"lpToken_","type":"address"}],"name":"poolFromLpToken","outputs":[{"internalType":"address","name":"","type":"address"}],"stateMutability":"view","type":"function"}],"bytecode":"608060405234801561001057600080fd5b50612028806100206000396000f3fe608060405234801561001057600080fd5b506004361061012a5760003560e01c806375b0ffd1116100ad578063c3c5a54711610071578063c3c5a547146102f3578063d449a8321461031f578063e40ad8ca1461033f578063effd70811461035f578063f7d372f11461037257600080fd5b806375b0ffd11461028c57806376a562a4146102a75780637d0f7a88146102ba578063b677560f146102cd578063bf25d02a146102e057600080fd5b806343b55f35116100f457806343b55f3514610206578063514a9009146102195780635fd5590a1461022c578063732821281461026457806373a2d4461461027957600080fd5b80622708db1461012f578062eb8ba4146101585780631760eb5e1461017e57806339d8d3ca1461019f5780634060c025146101c2575b600080fd5b61014261013d366004611b9d565b610385565b60405161014f9190611bc1565b60405180910390f35b61016b610166366004611c0e565b610577565b604051600f9190910b815260200161014f565b61019161018c366004611b9d565b6105ed565b60405190815260200161014f565b6101b26101ad366004611c47565b610644565b604051901515815260200161014f565b6101ee6101d0366004611b9d565b6001600160a01b039081166000908152600960205260409020541690565b6040516001600160a01b03909116815260200161014f565b610191610214366004611b9d565b6106c9565b6101ee610227366004611b9d565b610777565b61023f61023a366004611c60565b6107d1565b60408051600f94850b81529290930b602083015215159181019190915260600161014f565b610277610272366004611cab565b6108a3565b005b6101ee610287366004611b9d565b6108b3565b6101ee73f403c135812408bfbe8713b5a23a04b3d48aae3181565b6101ee6102b5366004611b9d565b61090d565b6101426102c8366004611b9d565b610967565b6101b26102db366004611c0e565b610a17565b6101916102ee366004611b9d565b610a81565b6101b2610301366004611b9d565b6001600160a01b031660009081526020819052604090205460ff1690565b61033261032d366004611b9d565b610ad8565b60405161014f9190611cd7565b61035261034d366004611b9d565b610b7f565b60405161014f9190611d25565b6101b261036d366004611c0e565b610bd9565b610277610380366004611b9d565b610c43565b6001600160a01b03808216600090815260046020526040902054606091168061041d576001600160a01b0383166000908152600760209081526040918290208054835181840281018401909452808452909183018282801561041057602002820191906000526020600020905b81546001600160a01b031681526001909101906020018083116103f2575b5050505050915050919050565b6001600160a01b03831660009081526006602052604081205461044290600190611d63565b67ffffffffffffffff81111561045a5761045a611d76565b604051908082528060200260200182016040528015610483578160200160208202803683370190505b5090506000805b6001600160a01b03861660009081526006602052604090205482101561055a576001600160a01b03861660009081526007602052604081208054849081106104d4576104d4611d8c565b60009182526020808320909101546001600160a01b0390811680845260099092526040909220549092508116908616146105475780848361051481611da2565b94508151811061052657610526611d8c565b60200260200101906001600160a01b031690816001600160a01b0316815250505b508161055281611da2565b92505061048a565b505061056f61056883610385565b8290610c52565b949350505050565b6001600160a01b038216600090815260208190526040812054839060ff166105ba5760405162461bcd60e51b81526004016105b190611dbb565b60405180910390fd5b6001600160a01b03808516600090815260056020908152604080832093871683529290522054600f0b91505b5092915050565b6001600160a01b038116600090815260208190526040812054829060ff166106275760405162461bcd60e51b81526004016105b190611dbb565b50506001600160a01b03166000908152600b602052604090205490565b604051631526fe2760e01b815260048101829052600090819073f403c135812408bfbe8713b5a23a04b3d48aae3190631526fe279060240160c060405180830381865afa158015610699573d6000803e3d6000fd5b505050506040513d601f19601f820116820180604052508101906106bd9190611e13565b98975050505050505050565b6001600160a01b038116600090815260208190526040812054829060ff166107035760405162461bcd60e51b81526004016105b190611dbb565b6001600160a01b038381166000908152600d60205260409020541661075a5760405162461bcd60e51b815260206004820152600d60248201526c1c1a59081b9bdd08199bdd5b99609a1b60448201526064016105b1565b50506001600160a01b03166000908152600c602052604090205490565b6001600160a01b038116600090815260208190526040812054829060ff166107b15760405162461bcd60e51b81526004016105b190611dbb565b50506001600160a01b039081166000908152600d60205260409020541690565b6001600160a01b03831660009081526020819052604081205481908190869060ff1661080f5760405162461bcd60e51b81526004016105b190611dbb565b6001600160a01b0387811660008181526005602090815260408083208b861680855290835281842054958b1684528184205494845260028352818420908452909152902054600f92830b929190910b9060ff16801561089357506001600160a01b03808a166000908152600260209081526040808320938b168352929052205460ff165b9350935093505093509350939050565b6108af82600183610d77565b5050565b6001600160a01b038116600090815260208190526040812054829060ff166108ed5760405162461bcd60e51b81526004016105b190611dbb565b50506001600160a01b039081166000908152600460205260409020541690565b6001600160a01b038116600090815260208190526040812054829060ff166109475760405162461bcd60e51b81526004016105b190611dbb565b50506001600160a01b039081166000908152600160205260409020541690565b6001600160a01b038116600090815260208190526040902054606090829060ff166109a45760405162461bcd60e51b81526004016105b190611dbb565b6001600160a01b03831660009081526007602090815260409182902080548351818402810184019094528084529091830182828015610410576020028201919060005260206000209081546001600160a01b031681526001909101906020018083116103f2575050505050915050919050565b6001600160a01b038216600090815260208190526040812054839060ff16610a515760405162461bcd60e51b81526004016105b190611dbb565b50506001600160a01b03918216600090815260026020908152604080832093909416825291909152205460ff1690565b6001600160a01b038116600090815260208190526040812054829060ff16610abb5760405162461bcd60e51b81526004016105b190611dbb565b50506001600160a01b031660009081526006602052604090205490565b6001600160a01b038116600090815260208190526040902054606090829060ff16610b155760405162461bcd60e51b81526004016105b190611dbb565b6001600160a01b0383166000908152600860209081526040918290208054835181840281018401909452808452909183018282801561041057602002820191906000526020600020905b815481526020019060010190808311610b5f575050505050915050919050565b6001600160a01b038116600090815260208190526040812054829060ff16610bb95760405162461bcd60e51b81526004016105b190611dbb565b50506001600160a01b03166000908152600a602052604090205460ff1690565b6001600160a01b038216600090815260208190526040812054839060ff16610c135760405162461bcd60e51b81526004016105b190611dbb565b50506001600160a01b03918216600090815260036020908152604080832093909416825291909152205460ff1690565b610c4f81600080610d77565b50565b606081518351610c629190611e95565b67ffffffffffffffff811115610c7a57610c7a611d76565b604051908082528060200260200182016040528015610ca3578160200160208202803683370190505b50905060005b8351811015610d0857838181518110610cc457610cc4611d8c565b6020026020010151828281518110610cde57610cde611d8c565b6001600160a01b039092166020928302919091019091015280610d0081611da2565b915050610ca9565b5060005b82518110156105e657828181518110610d2757610d27611d8c565b602002602001015182855183610d3d9190611e95565b81518110610d4d57610d4d611d8c565b6001600160a01b039092166020928302919091019091015280610d6f81611da2565b915050610d0c565b6001600160a01b03831660009081526020819052604090205460ff1615610d9d57505050565b610da68361161a565b610e015760405162461bcd60e51b815260206004820152602660248201527f4375727665526567697374727943616368653a20696e76616c6964206375727660448201526519481c1bdbdb60d21b60648201526084016105b1565b6001600160a01b038316600081815260208190526040808220805460ff1916600117905551633795104960e01b815260048101929092529073f98b45fa17de75fb1ad0e7afd971b0ca00e379fc90633795104990602401602060405180830381865afa158015610e75573d6000803e3d6000fd5b505050506040513d601f19601f82011682018060405250810190610e999190611ea8565b6001600160a01b03858116600090815260016020526040902080546001600160a01b03191691831691909117905590508215610edf57610eda8482846116a8565b610eec565b610ee98482611868565b91505b6001600160a01b0381811660009081526009602052604080822080546001600160a01b031916938816938417905551636f20d6dd60e01b815260048101929092529073f98b45fa17de75fb1ad0e7afd971b0ca00e379fc90636f20d6dd90602401602060405180830381865afa158015610f6a573d6000803e3d6000fd5b505050506040513d601f19601f82011682018060405250810190610f8e9190611ea8565b6001600160a01b03868116600090815260046020526040902080546001600160a01b0319169183169182179055909150156110b057610fcf81600080610d77565b6001600160a01b03811660009081526007602090815260408083208054825181850281018501909352808352919290919083018282801561103957602002820191906000526020600020905b81546001600160a01b0316815260019091019060200180831161101b575b5050505050905060005b81518110156110ad57600082828151811061106057611060611d8c565b6020908102919091018101516001600160a01b03808b16600090815260038452604080822092909316815292529020805460ff1916600117905550806110a581611da2565b915050611043565b50505b6040516319b4e59b60e21b81526001600160a01b038616600482015273f98b45fa17de75fb1ad0e7afd971b0ca00e379fc906366d3966c90602401602060405180830381865afa158015611108573d6000803e3d6000fd5b505050506040513d601f19601f8201168201806040525081019061112c9190611ec5565b600481111561113d5761113d611d0f565b6001600160a01b0386166000908152600a60205260409020805460ff1916600183600481111561116f5761116f611d0f565b021790555060405163940494f160e01b81526001600160a01b038616600482015260009073f98b45fa17de75fb1ad0e7afd971b0ca00e379fc9063940494f190602401602060405180830381865afa1580156111cf573d6000803e3d6000fd5b505050506040513d601f19601f820116820180604052508101906111f39190611ec5565b604051639ac90d3d60e01b81526001600160a01b038816600482015290915060009073f98b45fa17de75fb1ad0e7afd971b0ca00e379fc90639ac90d3d9060240161010060405180830381865afa158015611252573d6000803e3d6000fd5b505050506040513d601f19601f820116820180604052508101906112769190611f16565b6040516352b5155560e01b81526001600160a01b038916600482015290915060009073f98b45fa17de75fb1ad0e7afd971b0ca00e379fc906352b515559060240161010060405180830381865afa1580156112d5573d6000803e3d6000fd5b505050506040513d601f19601f820116820180604052508101906112f99190611f80565b905060008367ffffffffffffffff81111561131657611316611d76565b60405190808252806020026020018201604052801561133f578160200160208202803683370190505b50905060005b8481101561158d57600084826008811061136157611361611d8c565b602002015190506001600160a01b0381166113be5760405162461bcd60e51b815260206004820181905260248201527f4375727665526567697374727943616368653a20696e76616c696420636f696e60448201526064016105b1565b808383815181106113d1576113d1611d8c565b6001600160a01b039283166020918202929092018101919091528c821660008181526002835260408082209486168083529484528082208054600160ff199182168117909255848452600386528284208785528652828420805490911690911790558282526005845280822094825293835283812080546001600160801b0319166001600160801b038816179055908152600891829052919091209085908490811061147f5761147f611d8c565b602090810291909101518254600181018455600093845291909220015573eeeeeeeeeeeeeeeeeeeeeeeeeeeeeeeeeeeeeeed196001600160a01b0382160161157a5773c02aaa39b223fe8d0a0e5c4f27ead9083c756cc29050808383815181106114eb576114eb611d8c565b6001600160a01b039283166020918202929092018101919091528c821660008181526002835260408082209486168083529484528082208054600160ff199182168117909255848452600386528284208785528652828420805490911690911790559181526005835281812093815292909152902080546001600160801b0319166001600160801b0384161790555b508061158581611da2565b915050611345565b506001600160a01b03891660009081526006602090815260408083208790556007825290912082516115c192840190611b0e565b506115cb89611a5a565b6001600160a01b038a166000818152600b602052604080822093909355915189927f865db32d629b778510d2a2bd16751d214bd4a78253e6670dcebb9d1e5e3d632791a3505050505050505050565b6040516330cf540360e11b81526001600160a01b038216600482015260009073f98b45fa17de75fb1ad0e7afd971b0ca00e379fc9063619ea80690602401602060405180830381865afa925050508015611691575060408051601f3d908101601f1916820190925261168e91810190611fd7565b60015b61169d57506000919050565b92915050565b919050565b604051631526fe2760e01b8152600481018290526000908190819073f403c135812408bfbe8713b5a23a04b3d48aae3190631526fe279060240160c060405180830381865afa1580156116ff573d6000803e3d6000fd5b505050506040513d601f19601f820116820180604052508101906117239190611e13565b955050945050509250826001600160a01b0316856001600160a01b03161461178d5760405162461bcd60e51b815260206004820152601f60248201527f696e76616c6964206c7020746f6b656e20666f7220637572766520706f6f6c0060448201526064016105b1565b80156117db5760405162461bcd60e51b815260206004820152601860248201527f636f6e76657820706f6f6c206973207368757420646f776e000000000000000060448201526064016105b1565b6001600160a01b0382166118275760405162461bcd60e51b81526020600482015260136024820152721b9bc818dbdb9d995e081c1a5908199bdd5b99606a1b60448201526064016105b1565b506001600160a01b039485166000908152600d6020908152604080832080546001600160a01b0319169490981693909317909655600c909552909320555050565b60008073f403c135812408bfbe8713b5a23a04b3d48aae316001600160a01b031663081e3eda6040518163ffffffff1660e01b8152600401602060405180830381865afa1580156118bd573d6000803e3d6000fd5b505050506040513d601f19601f820116820180604052508101906118e19190611ec5565b90506000805b828110156119da57604051631526fe2760e01b8152600481018290526000908190819073f403c135812408bfbe8713b5a23a04b3d48aae3190631526fe279060240160c060405180830381865afa158015611946573d6000803e3d6000fd5b505050506040513d601f19601f8201168201806040525081019061196a9190611e13565b955050945050509250826001600160a01b0316886001600160a01b03161415806119915750805b1561199e575050506119c8565b506001600160a01b0388166000908152600c602052604090208390559194509091508390506119da565b806119d281611da2565b9150506118e7565b506001600160a01b038116611a275760405162461bcd60e51b81526020600482015260136024820152721b9bc818dbdb9d995e081c1a5908199bdd5b99606a1b60448201526064016105b1565b6001600160a01b039485166000908152600d6020526040902080546001600160a01b031916919095161790935592915050565b600060046001600160a01b0383166000908152600a602052604090205460ff166004811115611a8b57611a8b611d0f565b03611a9857506002919050565b604051634903b0d160e01b8152600060048201526001600160a01b03831690634903b0d190602401602060405180830381865afa925050508015611af9575060408051601f3d908101601f19168201909252611af691810190611ec5565b60015b611b0557506000919050565b50600192915050565b828054828255906000526020600020908101928215611b63579160200282015b82811115611b6357825182546001600160a01b0319166001600160a01b03909116178255602090920191600190910190611b2e565b50611b6f929150611b73565b5090565b5b80821115611b6f5760008155600101611b74565b6001600160a01b0381168114610c4f57600080fd5b600060208284031215611baf57600080fd5b8135611bba81611b88565b9392505050565b6020808252825182820181905260009190848201906040850190845b81811015611c025783516001600160a01b031683529284019291840191600101611bdd565b50909695505050505050565b60008060408385031215611c2157600080fd5b8235611c2c81611b88565b91506020830135611c3c81611b88565b809150509250929050565b600060208284031215611c5957600080fd5b5035919050565b600080600060608486031215611c7557600080fd5b8335611c8081611b88565b92506020840135611c9081611b88565b91506040840135611ca081611b88565b809150509250925092565b60008060408385031215611cbe57600080fd5b8235611cc981611b88565b946020939093013593505050565b6020808252825182820181905260009190848201906040850190845b81811015611c0257835183529284019291840191600101611cf3565b634e487b7160e01b600052602160045260246000fd5b6020810160058310611d4757634e487b7160e01b600052602160045260246000fd5b91905290565b634e487b7160e01b600052601160045260246000fd5b8181038181111561169d5761169d611d4d565b634e487b7160e01b600052604160045260246000fd5b634e487b7160e01b600052603260045260246000fd5b600060018201611db457611db4611d4d565b5060010190565b60208082526028908201527f4375727665526567697374727943616368653a20706f6f6c206e6f7420696e696040820152671d1a585b1a5e995960c21b606082015260800190565b805180151581146116a357600080fd5b60008060008060008060c08789031215611e2c57600080fd5b8651611e3781611b88565b6020880151909650611e4881611b88565b6040880151909550611e5981611b88565b6060880151909450611e6a81611b88565b6080880151909350611e7b81611b88565b9150611e8960a08801611e03565b90509295509295509295565b8082018082111561169d5761169d611d4d565b600060208284031215611eba57600080fd5b8151611bba81611b88565b600060208284031215611ed757600080fd5b5051919050565b604051610100810167ffffffffffffffff81118282101715611f1057634e487b7160e01b600052604160045260246000fd5b60405290565b6000610100808385031215611f2a57600080fd5b83601f840112611f3957600080fd5b611f41611ede565b908301908085831115611f5357600080fd5b845b83811015611f76578051611f6881611b88565b835260209283019201611f55565b5095945050505050565b6000610100808385031215611f9457600080fd5b83601f840112611fa357600080fd5b611fab611ede565b908301908085831115611fbd57600080fd5b845b83811015611f76578051835260209283019201611fbf565b600060208284031215611fe957600080fd5b611bba82611e0356fea26469706673582212200152ccffef4ed03fd2d7e51036413ba1cd40a1a6503abec7a01b4e0b9dcca3fc64736f6c63430008110033","bytecodeSha1":"201b2a135016cac36b67a2af41468ec2d9ce6c05","compiler":{"evm_version":"london","optimizer":{"enabled":true,"runs":200},"version":"0.8.17+commit.8df45f5f"},"contractName":"CurveRegistryCache","language":"Solidity","natspec":{"kind":"dev","methods":{"getAllUnderlyingCoins(address)":{"notice":"this returns the underlying coins of a pool, including the underlying of the base pool if the given pool is a meta pool This does not return the LP token of the base pool as an underlying e.g. if the pool is 3CrvFrax, this will return FRAX, DAI, USDC, USDT"},"interfaceVersion(address)":{"details":"Version 0 uses `int128` for `coins` and `balances`, and `int128` for `get_dy` Version 1 uses `uint256` for `coins` and `balances`, and `int128` for `get_dy` Version 2 uses `uint256` for `coins` and `balances`, and `uint256` for `get_dy` They correspond with which interface the pool implements: ICurvePoolV0, ICurvePoolV1, ICurvePoolV2","notice":"Returns the Curve interface version for a given pool"}},"version":1},"opcodes":"PUSH1 0x80 PUSH1 0x40 MSTORE CALLVALUE DUP1 ISZERO PUSH2 0x10 JUMPI PUSH1 0x0 DUP1 REVERT JUMPDEST POP PUSH1 0x4 CALLDATASIZE LT PUSH2 0x12A JUMPI PUSH1 0x0 CALLDATALOAD PUSH1 0xE0 SHR DUP1 PUSH4 0x75B0FFD1 GT PUSH2 0xAD JUMPI DUP1 PUSH4 0xC3C5A547 GT PUSH2 0x71 JUMPI DUP1 PUSH4 0xC3C5A547 EQ PUSH2 0x2F3 JUMPI DUP1 PUSH4 0xD449A832 EQ PUSH2 0x31F JUMPI DUP1 PUSH4 0xE40AD8CA EQ PUSH2 0x33F JUMPI DUP1 PUSH4 0xEFFD7081 EQ PUSH2 0x35F JUMPI DUP1 PUSH4 0xF7D372F1 EQ PUSH2 0x372 JUMPI PUSH1 0x0 DUP1 REVERT JUMPDEST DUP1 PUSH4 0x75B0FFD1 EQ PUSH2 0x28C JUMPI DUP1 PUSH4 0x76A562A4 EQ PUSH2 0x2A7 JUMPI DUP1 PUSH4 0x7D0F7A88 EQ PUSH2 0x2BA JUMPI DUP1 PUSH4 0xB677560F EQ PUSH2 0x2CD JUMPI DUP1 PUSH4 0xBF25D02A EQ PUSH2 0x2E0 JUMPI PUSH1 0x0 DUP1 REVERT JUMPDEST DUP1 PUSH4 0x43B55F35 GT PUSH2 0xF4 JUMPI DUP1 PUSH4 0x43B55F35 EQ PUSH2 0x206 JUMPI DUP1 PUSH4 0x514A9009 EQ PUSH2 0x219 JUMPI DUP1 PUSH4 0x5FD5590A EQ PUSH2 0x22C JUMPI DUP1 PUSH4 0x73282128 EQ PUSH2 0x264 JUMPI DUP1 PUSH4 0x73A2D446 EQ PUSH2 0x279 JUMPI PUSH1 0x0 DUP1 REVERT JUMPDEST DUP1 PUSH3 0x2708DB EQ PUSH2 0x12F JUMPI DUP1 PUSH3 0xEB8BA4 EQ PUSH2 0x158 JUMPI DUP1 PUSH4 0x1760EB5E EQ PUSH2 0x17E JUMPI DUP1 PUSH4 0x39D8D3CA EQ PUSH2 0x19F JUMPI DUP1 PUSH4 0x4060C025 EQ PUSH2 0x1C2 JUMPI JUMPDEST PUSH1 0x0 DUP1 REVERT JUMPDEST PUSH2 0x142 PUSH2 0x13D CALLDATASIZE PUSH1 0x4 PUSH2 0x1B9D JUMP JUMPDEST PUSH2 0x385 JUMP JUMPDEST PUSH1 0x40 MLOAD PUSH2 0x14F SWAP2 SWAP1 PUSH2 0x1BC1 JUMP JUMPDEST PUSH1 0x40 MLOAD DUP1 SWAP2 SUB SWAP1 RETURN JUMPDEST PUSH2 0x16B PUSH2 0x166 CALLDATASIZE PUSH1 0x4 PUSH2 0x1C0E JUMP JUMPDEST PUSH2 0x577 JUMP JUMPDEST PUSH1 0x40 MLOAD PUSH1 0xF SWAP2 SWAP1 SWAP2 SIGNEXTEND DUP2 MSTORE PUSH1 0x20 ADD PUSH2 0x14F JUMP JUMPDEST PUSH2 0x191 PUSH2 0x18C CALLDATASIZE PUSH1 0x4 PUSH2 0x1B9D JUMP JUMPDEST PUSH2 0x5ED JUMP JUMPDEST PUSH1 0x40 MLOAD SWAP1 DUP2 MSTORE PUSH1 0x20 ADD PUSH2 0x14F JUMP JUMPDEST PUSH2 0x1B2 PUSH2 0x1AD CALLDATASIZE PUSH1 0x4 PUSH2 0x1C47 JUMP JUMPDEST PUSH2 0x644 JUMP JUMPDEST PUSH1 0x40 MLOAD SWAP1 ISZERO ISZERO DUP2 MSTORE PUSH1 0x20 ADD PUSH2 0x14F JUMP JUMPDEST PUSH2 0x1EE PUSH2 0x1D0 CALLDATASIZE PUSH1 0x4 PUSH2 0x1B9D JUMP JUMPDEST PUSH1 0x1 PUSH1 0x1 PUSH1 0xA0 SHL SUB SWAP1 DUP2 AND PUSH1 0x0 SWAP1 DUP2 MSTORE PUSH1 0x9 PUSH1 0x20 MSTORE PUSH1 0x40 SWAP1 KECCAK256 SLOAD AND SWAP1 JUMP JUMPDEST PUSH1 0x40 MLOAD PUSH1 0x1 PUSH1 0x1 PUSH1 0xA0 SHL SUB SWAP1 SWAP2 AND DUP2 MSTORE PUSH1 0x20 ADD PUSH2 0x14F JUMP JUMPDEST PUSH2 0x191 PUSH2 0x214 CALLDATASIZE PUSH1 0x4 PUSH2 0x1B9D JUMP JUMPDEST PUSH2 0x6C9 JUMP JUMPDEST PUSH2 0x1EE PUSH2 0x227 CALLDATASIZE PUSH1 0x4 PUSH2 0x1B9D JUMP JUMPDEST PUSH2 0x777 JUMP JUMPDEST PUSH2 0x23F PUSH2 0x23A CALLDATASIZE PUSH1 0x4 PUSH2 0x1C60 JUMP JUMPDEST PUSH2 0x7D1 JUMP JUMPDEST PUSH1 0x40 DUP1 MLOAD PUSH1 0xF SWAP5 DUP6 SIGNEXTEND DUP2 MSTORE SWAP3 SWAP1 SWAP4 SIGNEXTEND PUSH1 0x20 DUP4 ADD MSTORE ISZERO ISZERO SWAP2 DUP2 ADD SWAP2 SWAP1 SWAP2 MSTORE PUSH1 0x60 ADD PUSH2 0x14F JUMP JUMPDEST PUSH2 0x277 PUSH2 0x272 CALLDATASIZE PUSH1 0x4 PUSH2 0x1CAB JUMP JUMPDEST PUSH2 0x8A3 JUMP JUMPDEST STOP JUMPDEST PUSH2 0x1EE PUSH2 0x287 CALLDATASIZE PUSH1 0x4 PUSH2 0x1B9D JUMP JUMPDEST PUSH2 0x8B3 JUMP JUMPDEST PUSH2 0x1EE PUSH20 0xF403C135812408BFBE8713B5A23A04B3D48AAE31 DUP2 JUMP JUMPDEST PUSH2 0x1EE PUSH2 0x2B5 CALLDATASIZE PUSH1 0x4 PUSH2 0x1B9D JUMP JUMPDEST PUSH2 0x90D JUMP JUMPDEST PUSH2 0x142 PUSH2 0x2C8 CALLDATASIZE PUSH1 0x4 PUSH2 0x1B9D JUMP JUMPDEST PUSH2 0x967 JUMP JUMPDEST PUSH2 0x1B2 PUSH2 0x2DB CALLDATASIZE PUSH1 0x4 PUSH2 0x1C0E JUMP JUMPDEST PUSH2 0xA17 JUMP JUMPDEST PUSH2 0x191 PUSH2 0x2EE CALLDATASIZE PUSH1 0x4 PUSH2 0x1B9D JUMP JUMPDEST PUSH2 0xA81 JUMP JUMPDEST PUSH2 0x1B2 PUSH2 0x301 CALLDATASIZE PUSH1 0x4 PUSH2 0x1B9D JUMP JUMPDEST PUSH1 0x1 PUSH1 0x1 PUSH1 0xA0 SHL SUB AND PUSH1 0x0 SWAP1 DUP2 MSTORE PUSH1 0x20 DUP2 SWAP1 MSTORE PUSH1 0x40 SWAP1 KECCAK256 SLOAD PUSH1 0xFF AND SWAP1 JUMP JUMPDEST PUSH2 0x332 PUSH2 0x32D CALLDATASIZE PUSH1 0x4 PUSH2 0x1B9D JUMP JUMPDEST PUSH2 0xAD8 JUMP JUMPDEST PUSH1 0x40 MLOAD PUSH2 0x14F SWAP2 SWAP1 PUSH2 0x1CD7 JUMP JUMPDEST PUSH2 0x352 PUSH2 0x34D CALLDATASIZE PUSH1 0x4 PUSH2 0x1B9D JUMP JUMPDEST PUSH2 0xB7F JUMP JUMPDEST PUSH1 0x40 MLOAD PUSH2 0x14F SWAP2 SWAP1 PUSH2 0x1D25 JUMP JUMPDEST PUSH2 0x1B2 PUSH2 0x36D CALLDATASIZE PUSH1 0x4 PUSH2 0x1C0E JUMP JUMPDEST PUSH2 0xBD9 JUMP JUMPDEST PUSH2 0x277 PUSH2 0x380 CALLDATASIZE PUSH1 0x4 PUSH2 0x1B9D JUMP JUMPDEST PUSH2 0xC43 JUMP JUMPDEST PUSH1 0x1 PUSH1 0x1 PUSH1 0xA0 SHL SUB DUP1 DUP3 AND PUSH1 0x0 SWAP1 DUP2 MSTORE PUSH1 0x4 PUSH1 0x20 MSTORE PUSH1 0x40 SWAP1 KECCAK256 SLOAD PUSH1 0x60 SWAP2 AND DUP1 PUSH2 0x41D JUMPI PUSH1 0x1 PUSH1 0x1 PUSH1 0xA0 SHL SUB DUP4 AND PUSH1 0x0 SWAP1 DUP2 MSTORE PUSH1 0x7 PUSH1 0x20 SWAP1 DUP2 MSTORE PUSH1 0x40 SWAP2 DUP3 SWAP1 KECCAK256 DUP1 SLOAD DUP4 MLOAD DUP2 DUP5 MUL DUP2 ADD DUP5 ADD SWAP1 SWAP5 MSTORE DUP1 DUP5 MSTORE SWAP1 SWAP2 DUP4 ADD DUP3 DUP3 DUP1 ISZERO PUSH2 0x410 JUMPI PUSH1 0x20 MUL DUP3 ADD SWAP2 SWAP1 PUSH1 0x0 MSTORE PUSH1 0x20 PUSH1 0x0 KECCAK256 SWAP1 JUMPDEST DUP2 SLOAD PUSH1 0x1 PUSH1 0x1 PUSH1 0xA0 SHL SUB AND DUP2 MSTORE PUSH1 0x1 SWAP1 SWAP2 ADD SWAP1 PUSH1 0x20 ADD DUP1 DUP4 GT PUSH2 0x3F2 JUMPI JUMPDEST POP POP POP POP POP SWAP2 POP POP SWAP2 SWAP1 POP JUMP JUMPDEST PUSH1 0x1 PUSH1 0x1 PUSH1 0xA0 SHL SUB DUP4 AND PUSH1 0x0 SWAP1 DUP2 MSTORE PUSH1 0x6 PUSH1 0x20 MSTORE PUSH1 0x40 DUP2 KECCAK256 SLOAD PUSH2 0x442 SWAP1 PUSH1 0x1 SWAP1 PUSH2 0x1D63 JUMP JUMPDEST PUSH8 0xFFFFFFFFFFFFFFFF DUP2 GT ISZERO PUSH2 0x45A JUMPI PUSH2 0x45A PUSH2 0x1D76 JUMP JUMPDEST PUSH1 0x40 MLOAD SWAP1 DUP1 DUP3 MSTORE DUP1 PUSH1 0x20 MUL PUSH1 0x20 ADD DUP3 ADD PUSH1 0x40 MSTORE DUP1 ISZERO PUSH2 0x483 JUMPI DUP2 PUSH1 0x20 ADD PUSH1 0x20 DUP3 MUL DUP1 CALLDATASIZE DUP4 CALLDATACOPY ADD SWAP1 POP JUMPDEST POP SWAP1 POP PUSH1 0x0 DUP1 JUMPDEST PUSH1 0x1 PUSH1 0x1 PUSH1 0xA0 SHL SUB DUP7 AND PUSH1 0x0 SWAP1 DUP2 MSTORE PUSH1 0x6 PUSH1 0x20 MSTORE PUSH1 0x40 SWAP1 KECCAK256 SLOAD DUP3 LT ISZERO PUSH2 0x55A JUMPI PUSH1 0x1 PUSH1 0x1 PUSH1 0xA0 SHL SUB DUP7 AND PUSH1 0x0 SWAP1 DUP2 MSTORE PUSH1 0x7 PUSH1 0x20 MSTORE PUSH1 0x40 DUP2 KECCAK256 DUP1 SLOAD DUP5 SWAP1 DUP2 LT PUSH2 0x4D4 JUMPI PUSH2 0x4D4 PUSH2 0x1D8C JUMP JUMPDEST PUSH1 0x0 SWAP2 DUP3 MSTORE PUSH1 0x20 DUP1 DUP4 KECCAK256 SWAP1 SWAP2 ADD SLOAD PUSH1 0x1 PUSH1 0x1 PUSH1 0xA0 SHL SUB SWAP1 DUP2 AND DUP1 DUP5 MSTORE PUSH1 0x9 SWAP1 SWAP3 MSTORE PUSH1 0x40 SWAP1 SWAP3 KECCAK256 SLOAD SWAP1 SWAP3 POP DUP2 AND SWAP1 DUP7 AND EQ PUSH2 0x547 JUMPI DUP1 DUP5 DUP4 PUSH2 0x514 DUP2 PUSH2 0x1DA2 JUMP JUMPDEST SWAP5 POP DUP2 MLOAD DUP2 LT PUSH2 0x526 JUMPI PUSH2 0x526 PUSH2 0x1D8C JUMP JUMPDEST PUSH1 0x20 MUL PUSH1 0x20 ADD ADD SWAP1 PUSH1 0x1 PUSH1 0x1 PUSH1 0xA0 SHL SUB AND SWAP1 DUP2 PUSH1 0x1 PUSH1 0x1 PUSH1 0xA0 SHL SUB AND DUP2 MSTORE POP POP JUMPDEST POP DUP2 PUSH2 0x552 DUP2 PUSH2 0x1DA2 JUMP JUMPDEST SWAP3 POP POP PUSH2 0x48A JUMP JUMPDEST POP POP PUSH2 0x56F PUSH2 0x568 DUP4 PUSH2 0x385 JUMP JUMPDEST DUP3 SWAP1 PUSH2 0xC52 JUMP JUMPDEST SWAP5 SWAP4 POP POP POP POP JUMP JUMPDEST PUSH1 0x1 PUSH1 0x1 PUSH1 0xA0 SHL SUB DUP3 AND PUSH1 0x0 SWAP1 DUP2 MSTORE PUSH1 0x20 DUP2 SWAP1 MSTORE PUSH1 0x40 DUP2 KECCAK256 SLOAD DUP4 SWAP1 PUSH1 0xFF AND PUSH2 0x5BA JUMPI PUSH1 0x40 MLOAD PUSH3 0x461BCD PUSH1 0xE5 SHL DUP2 MSTORE PUSH1 0x4 ADD PUSH2 0x5B1 SWAP1 PUSH2 0x1DBB JUMP JUMPDEST PUSH1 0x40 MLOAD DUP1 SWAP2 SUB SWAP1 REVERT JUMPDEST PUSH1 0x1 PUSH1 0x1 PUSH1 0xA0 SHL SUB DUP1 DUP6 AND PUSH1 0x0 SWAP1 DUP2 MSTORE PUSH1 0x5 PUSH1 0x20 SWAP1 DUP2 MSTORE PUSH1 0x40 DUP1 DUP4 KECCAK256 SWAP4 DUP8 AND DUP4 MSTORE SWAP3 SWAP1 MSTORE KECCAK256 SLOAD PUSH1 0xF SIGNEXTEND SWAP2 POP JUMPDEST POP SWAP3 SWAP2 POP POP JUMP JUMPDEST PUSH1 0x1 PUSH1 0x1 PUSH1 0xA0 SHL SUB DUP2 AND PUSH1 0x0 SWAP1 DUP2 MSTORE PUSH1 0x20 DUP2 SWAP1 MSTORE PUSH1 0x40 DUP2 KECCAK256 SLOAD DUP3 SWAP1 PUSH1 0xFF AND PUSH2 0x627 JUMPI PUSH1 0x40 MLOAD PUSH3 0x461BCD PUSH1 0xE5 SHL DUP2 MSTORE PUSH1 0x4 ADD PUSH2 0x5B1 SWAP1 PUSH2 0x1DBB JUMP JUMPDEST POP POP PUSH1 0x1 PUSH1 0x1 PUSH1 0xA0 SHL SUB AND PUSH1 0x0 SWAP1 DUP2 MSTORE PUSH1 0xB PUSH1 0x20 MSTORE PUSH1 0x40 SWAP1 KECCAK256 SLOAD SWAP1 JUMP JUMPDEST PUSH1 0x40 MLOAD PUSH4 0x1526FE27 PUSH1 0xE0 SHL DUP2 MSTORE PUSH1 0x4 DUP2 ADD DUP3 SWAP1 MSTORE PUSH1 0x0 SWAP1 DUP2 SWAP1 PUSH20 0xF403C135812408BFBE8713B5A23A04B3D48AAE31 SWAP1 PUSH4 0x1526FE27 SWAP1 PUSH1 0x24 ADD PUSH1 0xC0 PUSH1 0x40 MLOAD DUP1 DUP4 SUB DUP2 DUP7 GAS STATICCALL ISZERO DUP1 ISZERO PUSH2 0x699 JUMPI RETURNDATASIZE PUSH1 0x0 DUP1 RETURNDATACOPY RETURNDATASIZE PUSH1 0x0 REVERT JUMPDEST POP POP POP POP PUSH1 0x40 MLOAD RETURNDATASIZE PUSH1 0x1F NOT PUSH1 0x1F DUP3 ADD AND DUP3 ADD DUP1 PUSH1 0x40 MSTORE POP DUP2 ADD SWAP1 PUSH2 0x6BD SWAP2 SWAP1 PUSH2 0x1E13 JUMP JUMPDEST SWAP9 SWAP8 POP POP POP POP POP POP POP POP JUMP JUMPDEST PUSH1 0x1 PUSH1 0x1 PUSH1 0xA0 SHL SUB DUP2 AND PUSH1 0x0 SWAP1 DUP2 MSTORE PUSH1 0x20 DUP2 SWAP1 MSTORE PUSH1 0x40 DUP2 KECCAK256 SLOAD DUP3 SWAP1 PUSH1 0xFF AND PUSH2 0x703 JUMPI PUSH1 0x40 MLOAD PUSH3 0x461BCD PUSH1 0xE5 SHL DUP2 MSTORE PUSH1 0x4 ADD PUSH2 0x5B1 SWAP1 PUSH2 0x1DBB JUMP JUMPDEST PUSH1 0x1 PUSH1 0x1 PUSH1 0xA0 SHL SUB DUP4 DUP2 AND PUSH1 0x0 SWAP1 DUP2 MSTORE PUSH1 0xD PUSH1 0x20 MSTORE PUSH1 0x40 SWAP1 KECCAK256 SLOAD AND PUSH2 0x75A JUMPI PUSH1 0x40 MLOAD PUSH3 0x461BCD PUSH1 0xE5 SHL DUP2 MSTORE PUSH1 0x20 PUSH1 0x4 DUP3 ADD MSTORE PUSH1 0xD PUSH1 0x24 DUP3 ADD MSTORE PUSH13 0x1C1A59081B9BDD08199BDD5B99 PUSH1 0x9A SHL PUSH1 0x44 DUP3 ADD MSTORE PUSH1 0x64 ADD PUSH2 0x5B1 JUMP JUMPDEST POP POP PUSH1 0x1 PUSH1 0x1 PUSH1 0xA0 SHL SUB AND PUSH1 0x0 SWAP1 DUP2 MSTORE PUSH1 0xC PUSH1 0x20 MSTORE PUSH1 0x40 SWAP1 KECCAK256 SLOAD SWAP1 JUMP JUMPDEST PUSH1 0x1 PUSH1 0x1 PUSH1 0xA0 SHL SUB DUP2 AND PUSH1 0x0 SWAP1 DUP2 MSTORE PUSH1 0x20 DUP2 SWAP1 MSTORE PUSH1 0x40 DUP2 KECCAK256 SLOAD DUP3 SWAP1 PUSH1 0xFF AND PUSH2 0x7B1 JUMPI PUSH1 0x40 MLOAD PUSH3 0x461BCD PUSH1 0xE5 SHL DUP2 MSTORE PUSH1 0x4 ADD PUSH2 0x5B1 SWAP1 PUSH2 0x1DBB JUMP JUMPDEST POP POP PUSH1 0x1 PUSH1 0x1 PUSH1 0xA0 SHL SUB SWAP1 DUP2 AND PUSH1 0x0 SWAP1 DUP2 MSTORE PUSH1 0xD PUSH1 0x20 MSTORE PUSH1 0x40 SWAP1 KECCAK256 SLOAD AND SWAP1 JUMP JUMPDEST PUSH1 0x1 PUSH1 0x1 PUSH1 0xA0 SHL SUB DUP4 AND PUSH1 0x0 SWAP1 DUP2 MSTORE PUSH1 0x20 DUP2 SWAP1 MSTORE PUSH1 0x40 DUP2 KECCAK256 SLOAD DUP2 SWAP1 DUP2 SWAP1 DUP7 SWAP1 PUSH1 0xFF AND PUSH2 0x80F JUMPI PUSH1 0x40 MLOAD PUSH3 0x461BCD PUSH1 0xE5 SHL DUP2 MSTORE PUSH1 0x4 ADD PUSH2 0x5B1 SWAP1 PUSH2 0x1DBB JUMP JUMPDEST PUSH1 0x1 PUSH1 0x1 PUSH1 0xA0 SHL SUB DUP8 DUP2 AND PUSH1 0x0 DUP2 DUP2 MSTORE PUSH1 0x5 PUSH1 0x20 SWAP1 DUP2 MSTORE PUSH1 0x40 DUP1 DUP4 KECCAK256 DUP12 DUP7 AND DUP1 DUP6 MSTORE SWAP1 DUP4 MSTORE DUP2 DUP5 KECCAK256 SLOAD SWAP6 DUP12 AND DUP5 MSTORE DUP2 DUP5 KECCAK256 SLOAD SWAP5 DUP5 MSTORE PUSH1 0x2 DUP4 MSTORE DUP2 DUP5 KECCAK256 SWAP1 DUP5 MSTORE SWAP1 SWAP2 MSTORE SWAP1 KECCAK256 SLOAD PUSH1 0xF SWAP3 DUP4 SIGNEXTEND SWAP3 SWAP2 SWAP1 SWAP2 SIGNEXTEND SWAP1 PUSH1 0xFF AND DUP1 ISZERO PUSH2 0x893 JUMPI POP PUSH1 0x1 PUSH1 0x1 PUSH1 0xA0 SHL SUB DUP1 DUP11 AND PUSH1 0x0 SWAP1 DUP2 MSTORE PUSH1 0x2 PUSH1 0x20 SWAP1 DUP2 MSTORE PUSH1 0x40 DUP1 DUP4 KECCAK256 SWAP4 DUP12 AND DUP4 MSTORE SWAP3 SWAP1 MSTORE KECCAK256 SLOAD PUSH1 0xFF AND JUMPDEST SWAP4 POP SWAP4 POP SWAP4 POP POP SWAP4 POP SWAP4 POP SWAP4 SWAP1 POP JUMP JUMPDEST PUSH2 0x8AF DUP3 PUSH1 0x1 DUP4 PUSH2 0xD77 JUMP JUMPDEST POP POP JUMP JUMPDEST PUSH1 0x1 PUSH1 0x1 PUSH1 0xA0 SHL SUB DUP2 AND PUSH1 0x0 SWAP1 DUP2 MSTORE PUSH1 0x20 DUP2 SWAP1 MSTORE PUSH1 0x40 DUP2 KECCAK256 SLOAD DUP3 SWAP1 PUSH1 0xFF AND PUSH2 0x8ED JUMPI PUSH1 0x40 MLOAD PUSH3 0x461BCD PUSH1 0xE5 SHL DUP2 MSTORE PUSH1 0x4 ADD PUSH2 0x5B1 SWAP1 PUSH2 0x1DBB JUMP JUMPDEST POP POP PUSH1 0x1 PUSH1 0x1 PUSH1 0xA0 SHL SUB SWAP1 DUP2 AND PUSH1 0x0 SWAP1 DUP2 MSTORE PUSH1 0x4 PUSH1 0x20 MSTORE PUSH1 0x40 SWAP1 KECCAK256 SLOAD AND SWAP1 JUMP JUMPDEST PUSH1 0x1 PUSH1 0x1 PUSH1 0xA0 SHL SUB DUP2 AND PUSH1 0x0 SWAP1 DUP2 MSTORE PUSH1 0x20 DUP2 SWAP1 MSTORE PUSH1 0x40 DUP2 KECCAK256 SLOAD DUP3 SWAP1 PUSH1 0xFF AND PUSH2 0x947 JUMPI PUSH1 0x40 MLOAD PUSH3 0x461BCD PUSH1 0xE5 SHL DUP2 MSTORE PUSH1 0x4 ADD PUSH2 0x5B1 SWAP1 PUSH2 0x1DBB JUMP JUMPDEST POP POP PUSH1 0x1 PUSH1 0x1 PUSH1 0xA0 SHL SUB SWAP1 DUP2 AND PUSH1 0x0 SWAP1 DUP2 MSTORE PUSH1 0x1 PUSH1 0x20 MSTORE PUSH1 0x40 SWAP1 KECCAK256 SLOAD AND SWAP1 JUMP JUMPDEST PUSH1 0x1 PUSH1 0x1 PUSH1 0xA0 SHL SUB DUP2 AND PUSH1 0x0 SWAP1 DUP2 MSTORE PUSH1 0x20 DUP2 SWAP1 MSTORE PUSH1 0x40 SWAP1 KECCAK256 SLOAD PUSH1 0x60 SWAP1 DUP3 SWAP1 PUSH1 0xFF AND PUSH2 0x9A4 JUMPI PUSH1 0x40 MLOAD PUSH3 0x461BCD PUSH1 0xE5 SHL DUP2 MSTORE PUSH1 0x4 ADD PUSH2 0x5B1 SWAP1 PUSH2 0x1DBB JUMP JUMPDEST PUSH1 0x1 PUSH1 0x1 PUSH1 0xA0 SHL SUB DUP4 AND PUSH1 0x0 SWAP1 DUP2 MSTORE PUSH1 0x7 PUSH1 0x20 SWAP1 DUP2 MSTORE PUSH1 0x40 SWAP2 DUP3 SWAP1 KECCAK256 DUP1 SLOAD DUP4 MLOAD DUP2 DUP5 MUL DUP2 ADD DUP5 ADD SWAP1 SWAP5 MSTORE DUP1 DUP5 MSTORE SWAP1 SWAP2 DUP4 ADD DUP3 DUP3 DUP1 ISZERO PUSH2 0x410 JUMPI PUSH1 0x20 MUL DUP3 ADD SWAP2 SWAP1 PUSH1 0x0 MSTORE PUSH1 0x20 PUSH1 0x0 KECCAK256 SWAP1 DUP2 SLOAD PUSH1 0x1 PUSH1 0x1 PUSH1 0xA0 SHL SUB AND DUP2 MSTORE PUSH1 0x1 SWAP1 SWAP2 ADD SWAP1 PUSH1 0x20 ADD DUP1 DUP4 GT PUSH2 0x3F2 JUMPI POP POP POP POP POP SWAP2 POP POP SWAP2 SWAP1 POP JUMP JUMPDEST PUSH1 0x1 PUSH1 0x1 PUSH1 0xA0 SHL SUB DUP3 AND PUSH1 0x0 SWAP1 DUP2 MSTORE PUSH1 0x20 DUP2 SWAP1 MSTORE PUSH1 0x40 DUP2 KECCAK256 SLOAD DUP4 SWAP1 PUSH1 0xFF AND PUSH2 0xA51 JUMPI PUSH1 0x40 MLOAD PUSH3 0x461BCD PUSH1 0xE5 SHL DUP2 MSTORE PUSH1 0x4 ADD PUSH2 0x5B1 SWAP1 PUSH2 0x1DBB JUMP JUMPDEST POP POP PUSH1 0x1 PUSH1 0x1 PUSH1 0xA0 SHL SUB SWAP2 DUP3 AND PUSH1 0x0 SWAP1 DUP2 MSTORE PUSH1 0x2 PUSH1 0x20 SWAP1 DUP2 MSTORE PUSH1 0x40 DUP1 DUP4 KECCAK256 SWAP4 SWAP1 SWAP5 AND DUP3 MSTORE SWAP2 SWAP1 SWAP2 MSTORE KECCAK256 SLOAD PUSH1 0xFF AND SWAP1 JUMP JUMPDEST PUSH1 0x1 PUSH1 0x1 PUSH1 0xA0 SHL SUB DUP2 AND PUSH1 0x0 SWAP1 DUP2 MSTORE PUSH1 0x20 DUP2 SWAP1 MSTORE PUSH1 0x40 DUP2 KECCAK256 SLOAD DUP3 SWAP1 PUSH1 0xFF AND PUSH2 0xABB JUMPI PUSH1 0x40 MLOAD PUSH3 0x461BCD PUSH1 0xE5 SHL DUP2 MSTORE PUSH1 0x4 ADD PUSH2 0x5B1 SWAP1 PUSH2 0x1DBB JUMP JUMPDEST POP POP PUSH1 0x1 PUSH1 0x1 PUSH1 0xA0 SHL SUB AND PUSH1 0x0 SWAP1 DUP2 MSTORE PUSH1 0x6 PUSH1 0x20 MSTORE PUSH1 0x40 SWAP1 KECCAK256 SLOAD SWAP1 JUMP JUMPDEST PUSH1 0x1 PUSH1 0x1 PUSH1 0xA0 SHL SUB DUP2 AND PUSH1 0x0 SWAP1 DUP2 MSTORE PUSH1 0x20 DUP2 SWAP1 MSTORE PUSH1 0x40 SWAP1 KECCAK256 SLOAD PUSH1 0x60 SWAP1 DUP3 SWAP1 PUSH1 0xFF AND PUSH2 0xB15 JUMPI PUSH1 0x40 MLOAD PUSH3 0x461BCD PUSH1 0xE5 SHL DUP2 MSTORE PUSH1 0x4 ADD PUSH2 0x5B1 SWAP1 PUSH2 0x1DBB JUMP JUMPDEST PUSH1 0x1 PUSH1 0x1 PUSH1 0xA0 SHL SUB DUP4 AND PUSH1 0x0 SWAP1 DUP2 MSTORE PUSH1 0x8 PUSH1 0x20 SWAP1 DUP2 MSTORE PUSH1 0x40 SWAP2 DUP3 SWAP1 KECCAK256 DUP1 SLOAD DUP4 MLOAD DUP2 DUP5 MUL DUP2 ADD DUP5 ADD SWAP1 SWAP5 MSTORE DUP1 DUP5 MSTORE SWAP1 SWAP2 DUP4 ADD DUP3 DUP3 DUP1 ISZERO PUSH2 0x410 JUMPI PUSH1 0x20 MUL DUP3 ADD SWAP2 SWAP1 PUSH1 0x0 MSTORE PUSH1 0x20 PUSH1 0x0 KECCAK256 SWAP1 JUMPDEST DUP2 SLOAD DUP2 MSTORE PUSH1 0x20 ADD SWAP1 PUSH1 0x1 ADD SWAP1 DUP1 DUP4 GT PUSH2 0xB5F JUMPI POP POP POP POP POP SWAP2 POP POP SWAP2 SWAP1 POP JUMP JUMPDEST PUSH1 0x1 PUSH1 0x1 PUSH1 0xA0 SHL SUB DUP2 AND PUSH1 0x0 SWAP1 DUP2 MSTORE PUSH1 0x20 DUP2 SWAP1 MSTORE PUSH1 0x40 DUP2 KECCAK256 SLOAD DUP3 SWAP1 PUSH1 0xFF AND PUSH2 0xBB9 JUMPI PUSH1 0x40 MLOAD PUSH3 0x461BCD PUSH1 0xE5 SHL DUP2 MSTORE PUSH1 0x4 ADD PUSH2 0x5B1 SWAP1 PUSH2 0x1DBB JUMP JUMPDEST POP POP PUSH1 0x1 PUSH1 0x1 PUSH1 0xA0 SHL SUB AND PUSH1 0x0 SWAP1 DUP2 MSTORE PUSH1 0xA PUSH1 0x20 MSTORE PUSH1 0x40 SWAP1 KECCAK256 SLOAD PUSH1 0xFF AND SWAP1 JUMP JUMPDEST PUSH1 0x1 PUSH1 0x1 PUSH1 0xA0 SHL SUB DUP3 AND PUSH1 0x0 SWAP1 DUP2 MSTORE PUSH1 0x20 DUP2 SWAP1 MSTORE PUSH1 0x40 DUP2 KECCAK256 SLOAD DUP4 SWAP1 PUSH1 0xFF AND PUSH2 0xC13 JUMPI PUSH1 0x40 MLOAD PUSH3 0x461BCD PUSH1 0xE5 SHL DUP2 MSTORE PUSH1 0x4 ADD PUSH2 0x5B1 SWAP1 PUSH2 0x1DBB JUMP JUMPDEST POP POP PUSH1 0x1 PUSH1 0x1 PUSH1 0xA0 SHL SUB SWAP2 DUP3 AND PUSH1 0x0 SWAP1 DUP2 MSTORE PUSH1 0x3 PUSH1 0x20 SWAP1 DUP2 MSTORE PUSH1 0x40 DUP1 DUP4 KECCAK256 SWAP4 SWAP1 SWAP5 AND DUP3 MSTORE SWAP2 SWAP1 SWAP2 MSTORE KECCAK256 SLOAD PUSH1 0xFF AND SWAP1 JUMP JUMPDEST PUSH2 0xC4F DUP2 PUSH1 0x0 DUP1 PUSH2 0xD77 JUMP JUMPDEST POP JUMP JUMPDEST PUSH1 0x60 DUP2 MLOAD DUP4 MLOAD PUSH2 0xC62 SWAP2 SWAP1 PUSH2 0x1E95 JUMP JUMPDEST PUSH8 0xFFFFFFFFFFFFFFFF DUP2 GT ISZERO PUSH2 0xC7A JUMPI PUSH2 0xC7A PUSH2 0x1D76 JUMP JUMPDEST PUSH1 0x40 MLOAD SWAP1 DUP1 DUP3 MSTORE DUP1 PUSH1 0x20 MUL PUSH1 0x20 ADD DUP3 ADD PUSH1 0x40 MSTORE DUP1 ISZERO PUSH2 0xCA3 JUMPI DUP2 PUSH1 0x20 ADD PUSH1 0x20 DUP3 MUL DUP1 CALLDATASIZE DUP4 CALLDATACOPY ADD SWAP1 POP JUMPDEST POP SWAP1 POP PUSH1 0x0 JUMPDEST DUP4 MLOAD DUP2 LT ISZERO PUSH2 0xD08 JUMPI DUP4 DUP2 DUP2 MLOAD DUP2 LT PUSH2 0xCC4 JUMPI PUSH2 0xCC4 PUSH2 0x1D8C JUMP JUMPDEST PUSH1 0x20 MUL PUSH1 0x20 ADD ADD MLOAD DUP3 DUP3 DUP2 MLOAD DUP2 LT PUSH2 0xCDE JUMPI PUSH2 0xCDE PUSH2 0x1D8C JUMP JUMPDEST PUSH1 0x1 PUSH1 0x1 PUSH1 0xA0 SHL SUB SWAP1 SWAP3 AND PUSH1 0x20 SWAP3 DUP4 MUL SWAP2 SWAP1 SWAP2 ADD SWAP1 SWAP2 ADD MSTORE DUP1 PUSH2 0xD00 DUP2 PUSH2 0x1DA2 JUMP JUMPDEST SWAP2 POP POP PUSH2 0xCA9 JUMP JUMPDEST POP PUSH1 0x0 JUMPDEST DUP3 MLOAD DUP2 LT ISZERO PUSH2 0x5E6 JUMPI DUP3 DUP2 DUP2 MLOAD DUP2 LT PUSH2 0xD27 JUMPI PUSH2 0xD27 PUSH2 0x1D8C JUMP JUMPDEST PUSH1 0x20 MUL PUSH1 0x20 ADD ADD MLOAD DUP3 DUP6 MLOAD DUP4 PUSH2 0xD3D SWAP2 SWAP1 PUSH2 0x1E95 JUMP JUMPDEST DUP2 MLOAD DUP2 LT PUSH2 0xD4D JUMPI PUSH2 0xD4D PUSH2 0x1D8C JUMP JUMPDEST PUSH1 0x1 PUSH1 0x1 PUSH1 0xA0 SHL SUB SWAP1 SWAP3 AND PUSH1 0x20 SWAP3 DUP4 MUL SWAP2 SWAP1 SWAP2 ADD SWAP1 SWAP2 ADD MSTORE DUP1 PUSH2 0xD6F DUP2 PUSH2 0x1DA2 JUMP JUMPDEST SWAP2 POP POP PUSH2 0xD0C JUMP JUMPDEST PUSH1 0x1 PUSH1 0x1 PUSH1 0xA0 SHL SUB DUP4 AND PUSH1 0x0 SWAP1 DUP2 MSTORE PUSH1 0x20 DUP2 SWAP1 MSTORE PUSH1 0x40 SWAP1 KECCAK256 SLOAD PUSH1 0xFF AND ISZERO PUSH2 0xD9D JUMPI POP POP POP JUMP JUMPDEST PUSH2 0xDA6 DUP4 PUSH2 0x161A JUMP JUMPDEST PUSH2 0xE01 JUMPI PUSH1 0x40 MLOAD PUSH3 0x461BCD PUSH1 0xE5 SHL DUP2 MSTORE PUSH1 0x20 PUSH1 0x4 DUP3 ADD MSTORE PUSH1 0x26 PUSH1 0x24 DUP3 ADD MSTORE PUSH32 0x4375727665526567697374727943616368653A20696E76616C69642063757276 PUSH1 0x44 DUP3 ADD MSTORE PUSH6 0x19481C1BDBDB PUSH1 0xD2 SHL PUSH1 0x64 DUP3 ADD MSTORE PUSH1 0x84 ADD PUSH2 0x5B1 JUMP JUMPDEST PUSH1 0x1 PUSH1 0x1 PUSH1 0xA0 SHL SUB DUP4 AND PUSH1 0x0 DUP2 DUP2 MSTORE PUSH1 0x20 DUP2 SWAP1 MSTORE PUSH1 0x40 DUP1 DUP3 KECCAK256 DUP1 SLOAD PUSH1 0xFF NOT AND PUSH1 0x1 OR SWAP1 SSTORE MLOAD PUSH4 0x37951049 PUSH1 0xE0 SHL DUP2 MSTORE PUSH1 0x4 DUP2 ADD SWAP3 SWAP1 SWAP3 MSTORE SWAP1 PUSH20 0xF98B45FA17DE75FB1AD0E7AFD971B0CA00E379FC SWAP1 PUSH4 0x37951049 SWAP1 PUSH1 0x24 ADD PUSH1 0x20 PUSH1 0x40 MLOAD DUP1 DUP4 SUB DUP2 DUP7 GAS STATICCALL ISZERO DUP1 ISZERO PUSH2 0xE75 JUMPI RETURNDATASIZE PUSH1 0x0 DUP1 RETURNDATACOPY RETURNDATASIZE PUSH1 0x0 REVERT JUMPDEST POP POP POP POP PUSH1 0x40 MLOAD RETURNDATASIZE PUSH1 0x1F NOT PUSH1 0x1F DUP3 ADD AND DUP3 ADD DUP1 PUSH1 0x40 MSTORE POP DUP2 ADD SWAP1 PUSH2 0xE99 SWAP2 SWAP1 PUSH2 0x1EA8 JUMP JUMPDEST PUSH1 0x1 PUSH1 0x1 PUSH1 0xA0 SHL SUB DUP6 DUP2 AND PUSH1 0x0 SWAP1 DUP2 MSTORE PUSH1 0x1 PUSH1 0x20 MSTORE PUSH1 0x40 SWAP1 KECCAK256 DUP1 SLOAD PUSH1 0x1 PUSH1 0x1 PUSH1 0xA0 SHL SUB NOT AND SWAP2 DUP4 AND SWAP2 SWAP1 SWAP2 OR SWAP1 SSTORE SWAP1 POP DUP3 ISZERO PUSH2 0xEDF JUMPI PUSH2 0xEDA DUP5 DUP3 DUP5 PUSH2 0x16A8 JUMP JUMPDEST PUSH2 0xEEC JUMP JUMPDEST PUSH2 0xEE9 DUP5 DUP3 PUSH2 0x1868 JUMP JUMPDEST SWAP2 POP JUMPDEST PUSH1 0x1 PUSH1 0x1 PUSH1 0xA0 SHL SUB DUP2 DUP2 AND PUSH1 0x0 SWAP1 DUP2 MSTORE PUSH1 0x9 PUSH1 0x20 MSTORE PUSH1 0x40 DUP1 DUP3 KECCAK256 DUP1 SLOAD PUSH1 0x1 PUSH1 0x1 PUSH1 0xA0 SHL SUB NOT AND SWAP4 DUP9 AND SWAP4 DUP5 OR SWAP1 SSTORE MLOAD PUSH4 0x6F20D6DD PUSH1 0xE0 SHL DUP2 MSTORE PUSH1 0x4 DUP2 ADD SWAP3 SWAP1 SWAP3 MSTORE SWAP1 PUSH20 0xF98B45FA17DE75FB1AD0E7AFD971B0CA00E379FC SWAP1 PUSH4 0x6F20D6DD SWAP1 PUSH1 0x24 ADD PUSH1 0x20 PUSH1 0x40 MLOAD DUP1 DUP4 SUB DUP2 DUP7 GAS STATICCALL ISZERO DUP1 ISZERO PUSH2 0xF6A JUMPI RETURNDATASIZE PUSH1 0x0 DUP1 RETURNDATACOPY RETURNDATASIZE PUSH1 0x0 REVERT JUMPDEST POP POP POP POP PUSH1 0x40 MLOAD RETURNDATASIZE PUSH1 0x1F NOT PUSH1 0x1F DUP3 ADD AND DUP3 ADD DUP1 PUSH1 0x40 MSTORE POP DUP2 ADD SWAP1 PUSH2 0xF8E SWAP2 SWAP1 PUSH2 0x1EA8 JUMP JUMPDEST PUSH1 0x1 PUSH1 0x1 PUSH1 0xA0 SHL SUB DUP7 DUP2 AND PUSH1 0x0 SWAP1 DUP2 MSTORE PUSH1 0x4 PUSH1 0x20 MSTORE PUSH1 0x40 SWAP1 KECCAK256 DUP1 SLOAD PUSH1 0x1 PUSH1 0x1 PUSH1 0xA0 SHL SUB NOT AND SWAP2 DUP4 AND SWAP2 DUP3 OR SWAP1 SSTORE SWAP1 SWAP2 POP ISZERO PUSH2 0x10B0 JUMPI PUSH2 0xFCF DUP2 PUSH1 0x0 DUP1 PUSH2 0xD77 JUMP JUMPDEST PUSH1 0x1 PUSH1 0x1 PUSH1 0xA0 SHL SUB DUP2 AND PUSH1 0x0 SWAP1 DUP2 MSTORE PUSH1 0x7 PUSH1 0x20 SWAP1 DUP2 MSTORE PUSH1 0x40 DUP1 DUP4 KECCAK256 DUP1 SLOAD DUP3 MLOAD DUP2 DUP6 MUL DUP2 ADD DUP6 ADD SWAP1 SWAP4 MSTORE DUP1 DUP4 MSTORE SWAP2 SWAP3 SWAP1 SWAP2 SWAP1 DUP4 ADD DUP3 DUP3 DUP1 ISZERO PUSH2 0x1039 JUMPI PUSH1 0x20 MUL DUP3 ADD SWAP2 SWAP1 PUSH1 0x0 MSTORE PUSH1 0x20 PUSH1 0x0 KECCAK256 SWAP1 JUMPDEST DUP2 SLOAD PUSH1 0x1 PUSH1 0x1 PUSH1 0xA0 SHL SUB AND DUP2 MSTORE PUSH1 0x1 SWAP1 SWAP2 ADD SWAP1 PUSH1 0x20 ADD DUP1 DUP4 GT PUSH2 0x101B JUMPI JUMPDEST POP POP POP POP POP SWAP1 POP PUSH1 0x0 JUMPDEST DUP2 MLOAD DUP2 LT ISZERO PUSH2 0x10AD JUMPI PUSH1 0x0 DUP3 DUP3 DUP2 MLOAD DUP2 LT PUSH2 0x1060 JUMPI PUSH2 0x1060 PUSH2 0x1D8C JUMP JUMPDEST PUSH1 0x20 SWAP1 DUP2 MUL SWAP2 SWAP1 SWAP2 ADD DUP2 ADD MLOAD PUSH1 0x1 PUSH1 0x1 PUSH1 0xA0 SHL SUB DUP1 DUP12 AND PUSH1 0x0 SWAP1 DUP2 MSTORE PUSH1 0x3 DUP5 MSTORE PUSH1 0x40 DUP1 DUP3 KECCAK256 SWAP3 SWAP1 SWAP4 AND DUP2 MSTORE SWAP3 MSTORE SWAP1 KECCAK256 DUP1 SLOAD PUSH1 0xFF NOT AND PUSH1 0x1 OR SWAP1 SSTORE POP DUP1 PUSH2 0x10A5 DUP2 PUSH2 0x1DA2 JUMP JUMPDEST SWAP2 POP POP PUSH2 0x1043 JUMP JUMPDEST POP POP JUMPDEST PUSH1 0x40 MLOAD PUSH4 0x19B4E59B PUSH1 0xE2 SHL DUP2 MSTORE PUSH1 0x1 PUSH1 0x1 PUSH1 0xA0 SHL SUB DUP7 AND PUSH1 0x4 DUP3 ADD MSTORE PUSH20 0xF98B45FA17DE75FB1AD0E7AFD971B0CA00E379FC SWAP1 PUSH4 0x66D3966C SWAP1 PUSH1 0x24 ADD PUSH1 0x20 PUSH1 0x40 MLOAD DUP1 DUP4 SUB DUP2 DUP7 GAS STATICCALL ISZERO DUP1 ISZERO PUSH2 0x1108 JUMPI RETURNDATASIZE PUSH1 0x0 DUP1 RETURNDATACOPY RETURNDATASIZE PUSH1 0x0 REVERT JUMPDEST POP POP POP POP PUSH1 0x40 MLOAD RETURNDATASIZE PUSH1 0x1F NOT PUSH1 0x1F DUP3 ADD AND DUP3 ADD DUP1 PUSH1 0x40 MSTORE POP DUP2 ADD SWAP1 PUSH2 0x112C SWAP2 SWAP1 PUSH2 0x1EC5 JUMP JUMPDEST PUSH1 0x4 DUP2 GT ISZERO PUSH2 0x113D JUMPI PUSH2 0x113D PUSH2 0x1D0F JUMP JUMPDEST PUSH1 0x1 PUSH1 0x1 PUSH1 0xA0 SHL SUB DUP7 AND PUSH1 0x0 SWAP1 DUP2 MSTORE PUSH1 0xA PUSH1 0x20 MSTORE PUSH1 0x40 SWAP1 KECCAK256 DUP1 SLOAD PUSH1 0xFF NOT AND PUSH1 0x1 DUP4 PUSH1 0x4 DUP2 GT ISZERO PUSH2 0x116F JUMPI PUSH2 0x116F PUSH2 0x1D0F JUMP JUMPDEST MUL OR SWAP1 SSTORE POP PUSH1 0x40 MLOAD PUSH4 0x940494F1 PUSH1 0xE0 SHL DUP2 MSTORE PUSH1 0x1 PUSH1 0x1 PUSH1 0xA0 SHL SUB DUP7 AND PUSH1 0x4 DUP3 ADD MSTORE PUSH1 0x0 SWAP1 PUSH20 0xF98B45FA17DE75FB1AD0E7AFD971B0CA00E379FC SWAP1 PUSH4 0x940494F1 SWAP1 PUSH1 0x24 ADD PUSH1 0x20 PUSH1 0x40 MLOAD DUP1 DUP4 SUB DUP2 DUP7 GAS STATICCALL ISZERO DUP1 ISZERO PUSH2 0x11CF JUMPI RETURNDATASIZE PUSH1 0x0 DUP1 RETURNDATACOPY RETURNDATASIZE PUSH1 0x0 REVERT JUMPDEST POP POP POP POP PUSH1 0x40 MLOAD RETURNDATASIZE PUSH1 0x1F NOT PUSH1 0x1F DUP3 ADD AND DUP3 ADD DUP1 PUSH1 0x40 MSTORE POP DUP2 ADD SWAP1 PUSH2 0x11F3 SWAP2 SWAP1 PUSH2 0x1EC5 JUMP JUMPDEST PUSH1 0x40 MLOAD PUSH4 0x9AC90D3D PUSH1 0xE0 SHL DUP2 MSTORE PUSH1 0x1 PUSH1 0x1 PUSH1 0xA0 SHL SUB DUP9 AND PUSH1 0x4 DUP3 ADD MSTORE SWAP1 SWAP2 POP PUSH1 0x0 SWAP1 PUSH20 0xF98B45FA17DE75FB1AD0E7AFD971B0CA00E379FC SWAP1 PUSH4 0x9AC90D3D SWAP1 PUSH1 0x24 ADD PUSH2 0x100 PUSH1 0x40 MLOAD DUP1 DUP4 SUB DUP2 DUP7 GAS STATICCALL ISZERO DUP1 ISZERO PUSH2 0x1252 JUMPI RETURNDATASIZE PUSH1 0x0 DUP1 RETURNDATACOPY RETURNDATASIZE PUSH1 0x0 REVERT JUMPDEST POP POP POP POP PUSH1 0x40 MLOAD RETURNDATASIZE PUSH1 0x1F NOT PUSH1 0x1F DUP3 ADD AND DUP3 ADD DUP1 PUSH1 0x40 MSTORE POP DUP2 ADD SWAP1 PUSH2 0x1276 SWAP2 SWAP1 PUSH2 0x1F16 JUMP JUMPDEST PUSH1 0x40 MLOAD PUSH4 0x52B51555 PUSH1 0xE0 SHL DUP2 MSTORE PUSH1 0x1 PUSH1 0x1 PUSH1 0xA0 SHL SUB DUP10 AND PUSH1 0x4 DUP3 ADD MSTORE SWAP1 SWAP2 POP PUSH1 0x0 SWAP1 PUSH20 0xF98B45FA17DE75FB1AD0E7AFD971B0CA00E379FC SWAP1 PUSH4 0x52B51555 SWAP1 PUSH1 0x24 ADD PUSH2 0x100 PUSH1 0x40 MLOAD DUP1 DUP4 SUB DUP2 DUP7 GAS STATICCALL ISZERO DUP1 ISZERO PUSH2 0x12D5 JUMPI RETURNDATASIZE PUSH1 0x0 DUP1 RETURNDATACOPY RETURNDATASIZE PUSH1 0x0 REVERT JUMPDEST POP POP POP POP PUSH1 0x40 MLOAD RETURNDATASIZE PUSH1 0x1F NOT PUSH1 0x1F DUP3 ADD AND DUP3 ADD DUP1 PUSH1 0x40 MSTORE POP DUP2 ADD SWAP1 PUSH2 0x12F9 SWAP2 SWAP1 PUSH2 0x1F80 JUMP JUMPDEST SWAP1 POP PUSH1 0x0 DUP4 PUSH8 0xFFFFFFFFFFFFFFFF DUP2 GT ISZERO PUSH2 0x1316 JUMPI PUSH2 0x1316 PUSH2 0x1D76 JUMP JUMPDEST PUSH1 0x40 MLOAD SWAP1 DUP1 DUP3 MSTORE DUP1 PUSH1 0x20 MUL PUSH1 0x20 ADD DUP3 ADD PUSH1 0x40 MSTORE DUP1 ISZERO PUSH2 0x133F JUMPI DUP2 PUSH1 0x20 ADD PUSH1 0x20 DUP3 MUL DUP1 CALLDATASIZE DUP4 CALLDATACOPY ADD SWAP1 POP JUMPDEST POP SWAP1 POP PUSH1 0x0 JUMPDEST DUP5 DUP2 LT ISZERO PUSH2 0x158D JUMPI PUSH1 0x0 DUP5 DUP3 PUSH1 0x8 DUP2 LT PUSH2 0x1361 JUMPI PUSH2 0x1361 PUSH2 0x1D8C JUMP JUMPDEST PUSH1 0x20 MUL ADD MLOAD SWAP1 POP PUSH1 0x1 PUSH1 0x1 PUSH1 0xA0 SHL SUB DUP2 AND PUSH2 0x13BE JUMPI PUSH1 0x40 MLOAD PUSH3 0x461BCD PUSH1 0xE5 SHL DUP2 MSTORE PUSH1 0x20 PUSH1 0x4 DUP3 ADD DUP2 SWAP1 MSTORE PUSH1 0x24 DUP3 ADD MSTORE PUSH32 0x4375727665526567697374727943616368653A20696E76616C696420636F696E PUSH1 0x44 DUP3 ADD MSTORE PUSH1 0x64 ADD PUSH2 0x5B1 JUMP JUMPDEST DUP1 DUP4 DUP4 DUP2 MLOAD DUP2 LT PUSH2 0x13D1 JUMPI PUSH2 0x13D1 PUSH2 0x1D8C JUMP JUMPDEST PUSH1 0x1 PUSH1 0x1 PUSH1 0xA0 SHL SUB SWAP3 DUP4 AND PUSH1 0x20 SWAP2 DUP3 MUL SWAP3 SWAP1 SWAP3 ADD DUP2 ADD SWAP2 SWAP1 SWAP2 MSTORE DUP13 DUP3 AND PUSH1 0x0 DUP2 DUP2 MSTORE PUSH1 0x2 DUP4 MSTORE PUSH1 0x40 DUP1 DUP3 KECCAK256 SWAP5 DUP7 AND DUP1 DUP4 MSTORE SWAP5 DUP5 MSTORE DUP1 DUP3 KECCAK256 DUP1 SLOAD PUSH1 0x1 PUSH1 0xFF NOT SWAP2 DUP3 AND DUP2 OR SWAP1 SWAP3 SSTORE DUP5 DUP5 MSTORE PUSH1 0x3 DUP7 MSTORE DUP3 DUP5 KECCAK256 DUP8 DUP6 MSTORE DUP7 MSTORE DUP3 DUP5 KECCAK256 DUP1 SLOAD SWAP1 SWAP2 AND SWAP1 SWAP2 OR SWAP1 SSTORE DUP3 DUP3 MSTORE PUSH1 0x5 DUP5 MSTORE DUP1 DUP3 KECCAK256 SWAP5 DUP3 MSTORE SWAP4 DUP4 MSTORE DUP4 DUP2 KECCAK256 DUP1 SLOAD PUSH1 0x1 PUSH1 0x1 PUSH1 0x80 SHL SUB NOT AND PUSH1 0x1 PUSH1 0x1 PUSH1 0x80 SHL SUB DUP9 AND OR SWAP1 SSTORE SWAP1 DUP2 MSTORE PUSH1 0x8 SWAP2 DUP3 SWAP1 MSTORE SWAP2 SWAP1 SWAP2 KECCAK256 SWAP1 DUP6 SWAP1 DUP5 SWAP1 DUP2 LT PUSH2 0x147F JUMPI PUSH2 0x147F PUSH2 0x1D8C JUMP JUMPDEST PUSH1 0x20 SWAP1 DUP2 MUL SWAP2 SWAP1 SWAP2 ADD MLOAD DUP3 SLOAD PUSH1 0x1 DUP2 ADD DUP5 SSTORE PUSH1 0x0 SWAP4 DUP5 MSTORE SWAP2 SWAP1 SWAP3 KECCAK256 ADD SSTORE PUSH20 0xEEEEEEEEEEEEEEEEEEEEEEEEEEEEEEEEEEEEEEED NOT PUSH1 0x1 PUSH1 0x1 PUSH1 0xA0 SHL SUB DUP3 AND ADD PUSH2 0x157A JUMPI PUSH20 0xC02AAA39B223FE8D0A0E5C4F27EAD9083C756CC2 SWAP1 POP DUP1 DUP4 DUP4 DUP2 MLOAD DUP2 LT PUSH2 0x14EB JUMPI PUSH2 0x14EB PUSH2 0x1D8C JUMP JUMPDEST PUSH1 0x1 PUSH1 0x1 PUSH1 0xA0 SHL SUB SWAP3 DUP4 AND PUSH1 0x20 SWAP2 DUP3 MUL SWAP3 SWAP1 SWAP3 ADD DUP2 ADD SWAP2 SWAP1 SWAP2 MSTORE DUP13 DUP3 AND PUSH1 0x0 DUP2 DUP2 MSTORE PUSH1 0x2 DUP4 MSTORE PUSH1 0x40 DUP1 DUP3 KECCAK256 SWAP5 DUP7 AND DUP1 DUP4 MSTORE SWAP5 DUP5 MSTORE DUP1 DUP3 KECCAK256 DUP1 SLOAD PUSH1 0x1 PUSH1 0xFF NOT SWAP2 DUP3 AND DUP2 OR SWAP1 SWAP3 SSTORE DUP5 DUP5 MSTORE PUSH1 0x3 DUP7 MSTORE DUP3 DUP5 KECCAK256 DUP8 DUP6 MSTORE DUP7 MSTORE DUP3 DUP5 KECCAK256 DUP1 SLOAD SWAP1 SWAP2 AND SWAP1 SWAP2 OR SWAP1 SSTORE SWAP2 DUP2 MSTORE PUSH1 0x5 DUP4 MSTORE DUP2 DUP2 KECCAK256 SWAP4 DUP2 MSTORE SWAP3 SWAP1 SWAP2 MSTORE SWAP1 KECCAK256 DUP1 SLOAD PUSH1 0x1 PUSH1 0x1 PUSH1 0x80 SHL SUB NOT AND PUSH1 0x1 PUSH1 0x1 PUSH1 0x80 SHL SUB DUP5 AND OR SWAP1 SSTORE JUMPDEST POP DUP1 PUSH2 0x1585 DUP2 PUSH2 0x1DA2 JUMP JUMPDEST SWAP2 POP POP PUSH2 0x1345 JUMP JUMPDEST POP PUSH1 0x1 PUSH1 0x1 PUSH1 0xA0 SHL SUB DUP10 AND PUSH1 0x0 SWAP1 DUP2 MSTORE PUSH1 0x6 PUSH1 0x20 SWAP1 DUP2 MSTORE PUSH1 0x40 DUP1 DUP4 KECCAK256 DUP8 SWAP1 SSTORE PUSH1 0x7 DUP3 MSTORE SWAP1 SWAP2 KECCAK256 DUP3 MLOAD PUSH2 0x15C1 SWAP3 DUP5 ADD SWAP1 PUSH2 0x1B0E JUMP JUMPDEST POP PUSH2 0x15CB DUP10 PUSH2 0x1A5A JUMP JUMPDEST PUSH1 0x1 PUSH1 0x1 PUSH1 0xA0 SHL SUB DUP11 AND PUSH1 0x0 DUP2 DUP2 MSTORE PUSH1 0xB PUSH1 0x20 MSTORE PUSH1 0x40 DUP1 DUP3 KECCAK256 SWAP4 SWAP1 SWAP4 SSTORE SWAP2 MLOAD DUP10 SWAP3 PUSH32 0x865DB32D629B778510D2A2BD16751D214BD4A78253E6670DCEBB9D1E5E3D6327 SWAP2 LOG3 POP POP POP POP POP POP POP POP POP JUMP JUMPDEST PUSH1 0x40 MLOAD PUSH4 0x30CF5403 PUSH1 0xE1 SHL DUP2 MSTORE PUSH1 0x1 PUSH1 0x1 PUSH1 0xA0 SHL SUB DUP3 AND PUSH1 0x4 DUP3 ADD MSTORE PUSH1 0x0 SWAP1 PUSH20 0xF98B45FA17DE75FB1AD0E7AFD971B0CA00E379FC SWAP1 PUSH4 0x619EA806 SWAP1 PUSH1 0x24 ADD PUSH1 0x20 PUSH1 0x40 MLOAD DUP1 DUP4 SUB DUP2 DUP7 GAS STATICCALL SWAP3 POP POP POP DUP1 ISZERO PUSH2 0x1691 JUMPI POP PUSH1 0x40 DUP1 MLOAD PUSH1 0x1F RETURNDATASIZE SWAP1 DUP2 ADD PUSH1 0x1F NOT AND DUP3 ADD SWAP1 SWAP3 MSTORE PUSH2 0x168E SWAP2 DUP2 ADD SWAP1 PUSH2 0x1FD7 JUMP JUMPDEST PUSH1 0x1 JUMPDEST PUSH2 0x169D JUMPI POP PUSH1 0x0 SWAP2 SWAP1 POP JUMP JUMPDEST SWAP3 SWAP2 POP POP JUMP JUMPDEST SWAP2 SWAP1 POP JUMP JUMPDEST PUSH1 0x40 MLOAD PUSH4 0x1526FE27 PUSH1 0xE0 SHL DUP2 MSTORE PUSH1 0x4 DUP2 ADD DUP3 SWAP1 MSTORE PUSH1 0x0 SWAP1 DUP2 SWAP1 DUP2 SWAP1 PUSH20 0xF403C135812408BFBE8713B5A23A04B3D48AAE31 SWAP1 PUSH4 0x1526FE27 SWAP1 PUSH1 0x24 ADD PUSH1 0xC0 PUSH1 0x40 MLOAD DUP1 DUP4 SUB DUP2 DUP7 GAS STATICCALL ISZERO DUP1 ISZERO PUSH2 0x16FF JUMPI RETURNDATASIZE PUSH1 0x0 DUP1 RETURNDATACOPY RETURNDATASIZE PUSH1 0x0 REVERT JUMPDEST POP POP POP POP PUSH1 0x40 MLOAD RETURNDATASIZE PUSH1 0x1F NOT PUSH1 0x1F DUP3 ADD AND DUP3 ADD DUP1 PUSH1 0x40 MSTORE POP DUP2 ADD SWAP1 PUSH2 0x1723 SWAP2 SWAP1 PUSH2 0x1E13 JUMP JUMPDEST SWAP6 POP POP SWAP5 POP POP POP SWAP3 POP DUP3 PUSH1 0x1 PUSH1 0x1 PUSH1 0xA0 SHL SUB AND DUP6 PUSH1 0x1 PUSH1 0x1 PUSH1 0xA0 SHL SUB AND EQ PUSH2 0x178D JUMPI PUSH1 0x40 MLOAD PUSH3 0x461BCD PUSH1 0xE5 SHL DUP2 MSTORE PUSH1 0x20 PUSH1 0x4 DUP3 ADD MSTORE PUSH1 0x1F PUSH1 0x24 DUP3 ADD MSTORE PUSH32 0x696E76616C6964206C7020746F6B656E20666F7220637572766520706F6F6C00 PUSH1 0x44 DUP3 ADD MSTORE PUSH1 0x64 ADD PUSH2 0x5B1 JUMP JUMPDEST DUP1 ISZERO PUSH2 0x17DB JUMPI PUSH1 0x40 MLOAD PUSH3 0x461BCD PUSH1 0xE5 SHL DUP2 MSTORE PUSH1 0x20 PUSH1 0x4 DUP3 ADD MSTORE PUSH1 0x18 PUSH1 0x24 DUP3 ADD MSTORE PUSH32 0x636F6E76657820706F6F6C206973207368757420646F776E0000000000000000 PUSH1 0x44 DUP3 ADD MSTORE PUSH1 0x64 ADD PUSH2 0x5B1 JUMP JUMPDEST PUSH1 0x1 PUSH1 0x1 PUSH1 0xA0 SHL SUB DUP3 AND PUSH2 0x1827 JUMPI PUSH1 0x40 MLOAD PUSH3 0x461BCD PUSH1 0xE5 SHL DUP2 MSTORE PUSH1 0x20 PUSH1 0x4 DUP3 ADD MSTORE PUSH1 0x13 PUSH1 0x24 DUP3 ADD MSTORE PUSH19 0x1B9BC818DBDB9D995E081C1A5908199BDD5B99 PUSH1 0x6A SHL PUSH1 0x44 DUP3 ADD MSTORE PUSH1 0x64 ADD PUSH2 0x5B1 JUMP JUMPDEST POP PUSH1 0x1 PUSH1 0x1 PUSH1 0xA0 SHL SUB SWAP5 DUP6 AND PUSH1 0x0 SWAP1 DUP2 MSTORE PUSH1 0xD PUSH1 0x20 SWAP1 DUP2 MSTORE PUSH1 0x40 DUP1 DUP4 KECCAK256 DUP1 SLOAD PUSH1 0x1 PUSH1 0x1 PUSH1 0xA0 SHL SUB NOT AND SWAP5 SWAP1 SWAP9 AND SWAP4 SWAP1 SWAP4 OR SWAP1 SWAP7 SSTORE PUSH1 0xC SWAP1 SWAP6 MSTORE SWAP1 SWAP4 KECCAK256 SSTORE POP POP JUMP JUMPDEST PUSH1 0x0 DUP1 PUSH20 0xF403C135812408BFBE8713B5A23A04B3D48AAE31 PUSH1 0x1 PUSH1 0x1 PUSH1 0xA0 SHL SUB AND PUSH4 0x81E3EDA PUSH1 0x40 MLOAD DUP2 PUSH4 0xFFFFFFFF AND PUSH1 0xE0 SHL DUP2 MSTORE PUSH1 0x4 ADD PUSH1 0x20 PUSH1 0x40 MLOAD DUP1 DUP4 SUB DUP2 DUP7 GAS STATICCALL ISZERO DUP1 ISZERO PUSH2 0x18BD JUMPI RETURNDATASIZE PUSH1 0x0 DUP1 RETURNDATACOPY RETURNDATASIZE PUSH1 0x0 REVERT JUMPDEST POP POP POP POP PUSH1 0x40 MLOAD RETURNDATASIZE PUSH1 0x1F NOT PUSH1 0x1F DUP3 ADD AND DUP3 ADD DUP1 PUSH1 0x40 MSTORE POP DUP2 ADD SWAP1 PUSH2 0x18E1 SWAP2 SWAP1 PUSH2 0x1EC5 JUMP JUMPDEST SWAP1 POP PUSH1 0x0 DUP1 JUMPDEST DUP3 DUP2 LT ISZERO PUSH2 0x19DA JUMPI PUSH1 0x40 MLOAD PUSH4 0x1526FE27 PUSH1 0xE0 SHL DUP2 MSTORE PUSH1 0x4 DUP2 ADD DUP3 SWAP1 MSTORE PUSH1 0x0 SWAP1 DUP2 SWAP1 DUP2 SWAP1 PUSH20 0xF403C135812408BFBE8713B5A23A04B3D48AAE31 SWAP1 PUSH4 0x1526FE27 SWAP1 PUSH1 0x24 ADD PUSH1 0xC0 PUSH1 0x40 MLOAD DUP1 DUP4 SUB DUP2 DUP7 GAS STATICCALL ISZERO DUP1 ISZERO PUSH2 0x1946 JUMPI RETURNDATASIZE PUSH1 0x0 DUP1 RETURNDATACOPY RETURNDATASIZE PUSH1 0x0 REVERT JUMPDEST POP POP POP POP PUSH1 0x40 MLOAD RETURNDATASIZE PUSH1 0x1F NOT PUSH1 0x1F DUP3 ADD AND DUP3 ADD DUP1 PUSH1 0x40 MSTORE POP DUP2 ADD SWAP1 PUSH2 0x196A SWAP2 SWAP1 PUSH2 0x1E13 JUMP JUMPDEST SWAP6 POP POP SWAP5 POP POP POP SWAP3 POP DUP3 PUSH1 0x1 PUSH1 0x1 PUSH1 0xA0 SHL SUB AND DUP9 PUSH1 0x1 PUSH1 0x1 PUSH1 0xA0 SHL SUB AND EQ ISZERO DUP1 PUSH2 0x1991 JUMPI POP DUP1 JUMPDEST ISZERO PUSH2 0x199E JUMPI POP POP POP PUSH2 0x19C8 JUMP JUMPDEST POP PUSH1 0x1 PUSH1 0x1 PUSH1 0xA0 SHL SUB DUP9 AND PUSH1 0x0 SWAP1 DUP2 MSTORE PUSH1 0xC PUSH1 0x20 MSTORE PUSH1 0x40 SWAP1 KECCAK256 DUP4 SWAP1 SSTORE SWAP2 SWAP5 POP SWAP1 SWAP2 POP DUP4 SWAP1 POP PUSH2 0x19DA JUMP JUMPDEST DUP1 PUSH2 0x19D2 DUP2 PUSH2 0x1DA2 JUMP JUMPDEST SWAP2 POP POP PUSH2 0x18E7 JUMP JUMPDEST POP PUSH1 0x1 PUSH1 0x1 PUSH1 0xA0 SHL SUB DUP2 AND PUSH2 0x1A27 JUMPI PUSH1 0x40 MLOAD PUSH3 0x461BCD PUSH1 0xE5 SHL DUP2 MSTORE PUSH1 0x20 PUSH1 0x4 DUP3 ADD MSTORE PUSH1 0x13 PUSH1 0x24 DUP3 ADD MSTORE PUSH19 0x1B9BC818DBDB9D995E081C1A5908199BDD5B99 PUSH1 0x6A SHL PUSH1 0x44 DUP3 ADD MSTORE PUSH1 0x64 ADD PUSH2 0x5B1 JUMP JUMPDEST PUSH1 0x1 PUSH1 0x1 PUSH1 0xA0 SHL SUB SWAP5 DUP6 AND PUSH1 0x0 SWAP1 DUP2 MSTORE PUSH1 0xD PUSH1 0x20 MSTORE PUSH1 0x40 SWAP1 KECCAK256 DUP1 SLOAD PUSH1 0x1 PUSH1 0x1 PUSH1 0xA0 SHL SUB NOT AND SWAP2 SWAP1 SWAP6 AND OR SWAP1 SWAP4 SSTORE SWAP3 SWAP2 POP POP JUMP JUMPDEST PUSH1 0x0 PUSH1 0x4 PUSH1 0x1 PUSH1 0x1 PUSH1 0xA0 SHL SUB DUP4 AND PUSH1 0x0 SWAP1 DUP2 MSTORE PUSH1 0xA PUSH1 0x20 MSTORE PUSH1 0x40 SWAP1 KECCAK256 SLOAD PUSH1 0xFF AND PUSH1 0x4 DUP2 GT ISZERO PUSH2 0x1A8B JUMPI PUSH2 0x1A8B PUSH2 0x1D0F JUMP JUMPDEST SUB PUSH2 0x1A98 JUMPI POP PUSH1 0x2 SWAP2 SWAP1 POP JUMP JUMPDEST PUSH1 0x40 MLOAD PUSH4 0x4903B0D1 PUSH1 0xE0 SHL DUP2 MSTORE PUSH1 0x0 PUSH1 0x4 DUP3 ADD MSTORE PUSH1 0x1 PUSH1 0x1 PUSH1 0xA0 SHL SUB DUP4 AND SWAP1 PUSH4 0x4903B0D1 SWAP1 PUSH1 0x24 ADD PUSH1 0x20 PUSH1 0x40 MLOAD DUP1 DUP4 SUB DUP2 DUP7 GAS STATICCALL SWAP3 POP POP POP DUP1 ISZERO PUSH2 0x1AF9 JUMPI POP PUSH1 0x40 DUP1 MLOAD PUSH1 0x1F RETURNDATASIZE SWAP1 DUP2 ADD PUSH1 0x1F NOT AND DUP3 ADD SWAP1 SWAP3 MSTORE PUSH2 0x1AF6 SWAP2 DUP2 ADD SWAP1 PUSH2 0x1EC5 JUMP JUMPDEST PUSH1 0x1 JUMPDEST PUSH2 0x1B05 JUMPI POP PUSH1 0x0 SWAP2 SWAP1 POP JUMP JUMPDEST POP PUSH1 0x1 SWAP3 SWAP2 POP POP JUMP JUMPDEST DUP3 DUP1 SLOAD DUP3 DUP3 SSTORE SWAP1 PUSH1 0x0 MSTORE PUSH1 0x20 PUSH1 0x0 KECCAK256 SWAP1 DUP2 ADD SWAP3 DUP3 ISZERO PUSH2 0x1B63 JUMPI SWAP2 PUSH1 0x20 MUL DUP3 ADD JUMPDEST DUP3 DUP2 GT ISZERO PUSH2 0x1B63 JUMPI DUP3 MLOAD DUP3 SLOAD PUSH1 0x1 PUSH1 0x1 PUSH1 0xA0 SHL SUB NOT AND PUSH1 0x1 PUSH1 0x1 PUSH1 0xA0 SHL SUB SWAP1 SWAP2 AND OR DUP3 SSTORE PUSH1 0x20 SWAP1 SWAP3 ADD SWAP2 PUSH1 0x1 SWAP1 SWAP2 ADD SWAP1 PUSH2 0x1B2E JUMP JUMPDEST POP PUSH2 0x1B6F SWAP3 SWAP2 POP PUSH2 0x1B73 JUMP JUMPDEST POP SWAP1 JUMP JUMPDEST JUMPDEST DUP1 DUP3 GT ISZERO PUSH2 0x1B6F JUMPI PUSH1 0x0 DUP2 SSTORE PUSH1 0x1 ADD PUSH2 0x1B74 JUMP JUMPDEST PUSH1 0x1 PUSH1 0x1 PUSH1 0xA0 SHL SUB DUP2 AND DUP2 EQ PUSH2 0xC4F JUMPI PUSH1 0x0 DUP1 REVERT JUMPDEST PUSH1 0x0 PUSH1 0x20 DUP3 DUP5 SUB SLT ISZERO PUSH2 0x1BAF JUMPI PUSH1 0x0 DUP1 REVERT JUMPDEST DUP2 CALLDATALOAD PUSH2 0x1BBA DUP2 PUSH2 0x1B88 JUMP JUMPDEST SWAP4 SWAP3 POP POP POP JUMP JUMPDEST PUSH1 0x20 DUP1 DUP3 MSTORE DUP3 MLOAD DUP3 DUP3 ADD DUP2 SWAP1 MSTORE PUSH1 0x0 SWAP2 SWAP1 DUP5 DUP3 ADD SWAP1 PUSH1 0x40 DUP6 ADD SWAP1 DUP5 JUMPDEST DUP2 DUP2 LT ISZERO PUSH2 0x1C02 JUMPI DUP4 MLOAD PUSH1 0x1 PUSH1 0x1 PUSH1 0xA0 SHL SUB AND DUP4 MSTORE SWAP3 DUP5 ADD SWAP3 SWAP2 DUP5 ADD SWAP2 PUSH1 0x1 ADD PUSH2 0x1BDD JUMP JUMPDEST POP SWAP1 SWAP7 SWAP6 POP POP POP POP POP POP JUMP JUMPDEST PUSH1 0x0 DUP1 PUSH1 0x40 DUP4 DUP6 SUB SLT ISZERO PUSH2 0x1C21 JUMPI PUSH1 0x0 DUP1 REVERT JUMPDEST DUP3 CALLDATALOAD PUSH2 0x1C2C DUP2 PUSH2 0x1B88 JUMP JUMPDEST SWAP2 POP PUSH1 0x20 DUP4 ADD CALLDATALOAD PUSH2 0x1C3C DUP2 PUSH2 0x1B88 JUMP JUMPDEST DUP1 SWAP2 POP POP SWAP3 POP SWAP3 SWAP1 POP JUMP JUMPDEST PUSH1 0x0 PUSH1 0x20 DUP3 DUP5 SUB SLT ISZERO PUSH2 0x1C59 JUMPI PUSH1 0x0 DUP1 REVERT JUMPDEST POP CALLDATALOAD SWAP2 SWAP1 POP JUMP JUMPDEST PUSH1 0x0 DUP1 PUSH1 0x0 PUSH1 0x60 DUP5 DUP7 SUB SLT ISZERO PUSH2 0x1C75 JUMPI PUSH1 0x0 DUP1 REVERT JUMPDEST DUP4 CALLDATALOAD PUSH2 0x1C80 DUP2 PUSH2 0x1B88 JUMP JUMPDEST SWAP3 POP PUSH1 0x20 DUP5 ADD CALLDATALOAD PUSH2 0x1C90 DUP2 PUSH2 0x1B88 JUMP JUMPDEST SWAP2 POP PUSH1 0x40 DUP5 ADD CALLDATALOAD PUSH2 0x1CA0 DUP2 PUSH2 0x1B88 JUMP JUMPDEST DUP1 SWAP2 POP POP SWAP3 POP SWAP3 POP SWAP3 JUMP JUMPDEST PUSH1 0x0 DUP1 PUSH1 0x40 DUP4 DUP6 SUB SLT ISZERO PUSH2 0x1CBE JUMPI PUSH1 0x0 DUP1 REVERT JUMPDEST DUP3 CALLDATALOAD PUSH2 0x1CC9 DUP2 PUSH2 0x1B88 JUMP JUMPDEST SWAP5 PUSH1 0x20 SWAP4 SWAP1 SWAP4 ADD CALLDATALOAD SWAP4 POP POP POP JUMP JUMPDEST PUSH1 0x20 DUP1 DUP3 MSTORE DUP3 MLOAD DUP3 DUP3 ADD DUP2 SWAP1 MSTORE PUSH1 0x0 SWAP2 SWAP1 DUP5 DUP3 ADD SWAP1 PUSH1 0x40 DUP6 ADD SWAP1 DUP5 JUMPDEST DUP2 DUP2 LT ISZERO PUSH2 0x1C02 JUMPI DUP4 MLOAD DUP4 MSTORE SWAP3 DUP5 ADD SWAP3 SWAP2 DUP5 ADD SWAP2 PUSH1 0x1 ADD PUSH2 0x1CF3 JUMP JUMPDEST PUSH4 0x4E487B71 PUSH1 0xE0 SHL PUSH1 0x0 MSTORE PUSH1 0x21 PUSH1 0x4 MSTORE PUSH1 0x24 PUSH1 0x0 REVERT JUMPDEST PUSH1 0x20 DUP2 ADD PUSH1 0x5 DUP4 LT PUSH2 0x1D47 JUMPI PUSH4 0x4E487B71 PUSH1 0xE0 SHL PUSH1 0x0 MSTORE PUSH1 0x21 PUSH1 0x4 MSTORE PUSH1 0x24 PUSH1 0x0 REVERT JUMPDEST SWAP2 SWAP1 MSTORE SWAP1 JUMP JUMPDEST PUSH4 0x4E487B71 PUSH1 0xE0 SHL PUSH1 0x0 MSTORE PUSH1 0x11 PUSH1 0x4 MSTORE PUSH1 0x24 PUSH1 0x0 REVERT JUMPDEST DUP2 DUP2 SUB DUP2 DUP2 GT ISZERO PUSH2 0x169D JUMPI PUSH2 0x169D PUSH2 0x1D4D JUMP JUMPDEST PUSH4 0x4E487B71 PUSH1 0xE0 SHL PUSH1 0x0 MSTORE PUSH1 0x41 PUSH1 0x4 MSTORE PUSH1 0x24 PUSH1 0x0 REVERT JUMPDEST PUSH4 0x4E487B71 PUSH1 0xE0 SHL PUSH1 0x0 MSTORE PUSH1 0x32 PUSH1 0x4 MSTORE PUSH1 0x24 PUSH1 0x0 REVERT JUMPDEST PUSH1 0x0 PUSH1 0x1 DUP3 ADD PUSH2 0x1DB4 JUMPI PUSH2 0x1DB4 PUSH2 0x1D4D JUMP JUMPDEST POP PUSH1 0x1 ADD SWAP1 JUMP JUMPDEST PUSH1 0x20 DUP1 DUP3 MSTORE PUSH1 0x28 SWAP1 DUP3 ADD MSTORE PUSH32 0x4375727665526567697374727943616368653A20706F6F6C206E6F7420696E69 PUSH1 0x40 DUP3 ADD MSTORE PUSH8 0x1D1A585B1A5E9959 PUSH1 0xC2 SHL PUSH1 0x60 DUP3 ADD MSTORE PUSH1 0x80 ADD SWAP1 JUMP JUMPDEST DUP1 MLOAD DUP1 ISZERO ISZERO DUP2 EQ PUSH2 0x16A3 JUMPI PUSH1 0x0 DUP1 REVERT JUMPDEST PUSH1 0x0 DUP1 PUSH1 0x0 DUP1 PUSH1 0x0 DUP1 PUSH1 0xC0 DUP8 DUP10 SUB SLT ISZERO PUSH2 0x1E2C JUMPI PUSH1 0x0 DUP1 REVERT JUMPDEST DUP7 MLOAD PUSH2 0x1E37 DUP2 PUSH2 0x1B88 JUMP JUMPDEST PUSH1 0x20 DUP9 ADD MLOAD SWAP1 SWAP7 POP PUSH2 0x1E48 DUP2 PUSH2 0x1B88 JUMP JUMPDEST PUSH1 0x40 DUP9 ADD MLOAD SWAP1 SWAP6 POP PUSH2 0x1E59 DUP2 PUSH2 0x1B88 JUMP JUMPDEST PUSH1 0x60 DUP9 ADD MLOAD SWAP1 SWAP5 POP PUSH2 0x1E6A DUP2 PUSH2 0x1B88 JUMP JUMPDEST PUSH1 0x80 DUP9 ADD MLOAD SWAP1 SWAP4 POP PUSH2 0x1E7B DUP2 PUSH2 0x1B88 JUMP JUMPDEST SWAP2 POP PUSH2 0x1E89 PUSH1 0xA0 DUP9 ADD PUSH2 0x1E03 JUMP JUMPDEST SWAP1 POP SWAP3 SWAP6 POP SWAP3 SWAP6 POP SWAP3 SWAP6 JUMP JUMPDEST DUP1 DUP3 ADD DUP1 DUP3 GT ISZERO PUSH2 0x169D JUMPI PUSH2 0x169D PUSH2 0x1D4D JUMP JUMPDEST PUSH1 0x0 PUSH1 0x20 DUP3 DUP5 SUB SLT ISZERO PUSH2 0x1EBA JUMPI PUSH1 0x0 DUP1 REVERT JUMPDEST DUP2 MLOAD PUSH2 0x1BBA DUP2 PUSH2 0x1B88 JUMP JUMPDEST PUSH1 0x0 PUSH1 0x20 DUP3 DUP5 SUB SLT ISZERO PUSH2 0x1ED7 JUMPI PUSH1 0x0 DUP1 REVERT JUMPDEST POP MLOAD SWAP2 SWAP1 POP JUMP JUMPDEST PUSH1 0x40 MLOAD PUSH2 0x100 DUP2 ADD PUSH8 0xFFFFFFFFFFFFFFFF DUP2 GT DUP3 DUP3 LT OR ISZERO PUSH2 0x1F10 JUMPI PUSH4 0x4E487B71 PUSH1 0xE0 SHL PUSH1 0x0 MSTORE PUSH1 0x41 PUSH1 0x4 MSTORE PUSH1 0x24 PUSH1 0x0 REVERT JUMPDEST PUSH1 0x40 MSTORE SWAP1 JUMP JUMPDEST PUSH1 0x0 PUSH2 0x100 DUP1 DUP4 DUP6 SUB SLT ISZERO PUSH2 0x1F2A JUMPI PUSH1 0x0 DUP1 REVERT JUMPDEST DUP4 PUSH1 0x1F DUP5 ADD SLT PUSH2 0x1F39 JUMPI PUSH1 0x0 DUP1 REVERT JUMPDEST PUSH2 0x1F41 PUSH2 0x1EDE JUMP JUMPDEST SWAP1 DUP4 ADD SWAP1 DUP1 DUP6 DUP4 GT ISZERO PUSH2 0x1F53 JUMPI PUSH1 0x0 DUP1 REVERT JUMPDEST DUP5 JUMPDEST DUP4 DUP2 LT ISZERO PUSH2 0x1F76 JUMPI DUP1 MLOAD PUSH2 0x1F68 DUP2 PUSH2 0x1B88 JUMP JUMPDEST DUP4 MSTORE PUSH1 0x20 SWAP3 DUP4 ADD SWAP3 ADD PUSH2 0x1F55 JUMP JUMPDEST POP SWAP6 SWAP5 POP POP POP POP POP JUMP JUMPDEST PUSH1 0x0 PUSH2 0x100 DUP1 DUP4 DUP6 SUB SLT ISZERO PUSH2 0x1F94 JUMPI PUSH1 0x0 DUP1 REVERT JUMPDEST DUP4 PUSH1 0x1F DUP5 ADD SLT PUSH2 0x1FA3 JUMPI PUSH1 0x0 DUP1 REVERT JUMPDEST PUSH2 0x1FAB PUSH2 0x1EDE JUMP JUMPDEST SWAP1 DUP4 ADD SWAP1 DUP1 DUP6 DUP4 GT ISZERO PUSH2 0x1FBD JUMPI PUSH1 0x0 DUP1 REVERT JUMPDEST DUP5 JUMPDEST DUP4 DUP2 LT ISZERO PUSH2 0x1F76 JUMPI DUP1 MLOAD DUP4 MSTORE PUSH1 0x20 SWAP3 DUP4 ADD SWAP3 ADD PUSH2 0x1FBF JUMP JUMPDEST PUSH1 0x0 PUSH1 0x20 DUP3 DUP5 SUB SLT ISZERO PUSH2 0x1FE9 JUMPI PUSH1 0x0 DUP1 REVERT JUMPDEST PUSH2 0x1BBA DUP3 PUSH2 0x1E03 JUMP INVALID LOG2 PUSH5 0x6970667358 0x22 SLT KECCAK256 ADD MSTORE 0xCC SELFDESTRUCT 0xEF 0x4E 0xD0 EXTCODEHASH 0xD2 0xD7 0xE5 LT CALLDATASIZE COINBASE EXTCODESIZE LOG1 0xCD BLOCKHASH LOG1 0xA6 POP GASPRICE 0xBE 0xC7 LOG0 SHL 0x4E SIGNEXTEND SWAP14 0xCC LOG3 0xFC PUSH5 0x736F6C6343 STOP ADDMOD GT STOP CALLER ","sha1":"f8261d50d8a79cf4a96335312f26fa7d8506be67","source":"// SPDX-License-Identifier: GPL-3.0-or-later\npragma solidity 0.8.17;\n\nimport \"../libraries/CurvePoolUtils.sol\";\nimport \"../libraries/ArrayExtensions.sol\";\n\nimport \"../interfaces/ICurveRegistryCache.sol\";\nimport \"../interfaces/vendor/ICurveMetaRegistry.sol\";\nimport \"../interfaces/vendor/ICurvePoolV1.sol\";\n\ncontract CurveRegistryCache is ICurveRegistryCache {\n    using ArrayExtensions for address[];\n\n    address internal constant _ETH = address(0xEeeeeEeeeEeEeeEeEeEeeEEEeeeeEeeeeeeeEEeE);\n    address internal constant _WETH = address(0xC02aaA39b223FE8D0A0e5C4F27eAD9083C756Cc2);\n    ICurveMetaRegistry internal constant _CURVE_REGISTRY =\n        ICurveMetaRegistry(0xF98B45FA17DE75FB1aD0e7aFD971b0ca00e379fC);\n\n    IBooster public constant BOOSTER = IBooster(0xF403C135812408BFbE8713b5A23a04b3D48AAE31);\n\n    modifier onlyInitialized(address pool) {\n        require(_isRegistered[pool], \"CurveRegistryCache: pool not initialized\");\n        _;\n    }\n\n    mapping(address => bool) internal _isRegistered;\n    mapping(address => address) internal _lpToken;\n    mapping(address => mapping(address => bool)) internal _hasCoinDirectly;\n    mapping(address => mapping(address => bool)) internal _hasCoinAnywhere;\n    mapping(address => address) internal _basePool;\n    mapping(address => mapping(address => int128)) internal _coinIndex;\n    mapping(address => uint256) internal _nCoins;\n    mapping(address => address[]) internal _coins;\n    mapping(address => uint256[]) internal _decimals;\n    mapping(address => address) internal _poolFromLpToken;\n    mapping(address => CurvePoolUtils.AssetType) internal _assetType;\n    mapping(address => uint256) internal _interfaceVersion;\n\n    /// Information needed for staking Curve LP tokens on Convex\n    mapping(address => uint256) internal _convexPid;\n    mapping(address => address) internal _convexRewardPool; // curve pool => CRV rewards pool (convex)\n\n    function initPool(address pool_) external override {\n        _initPool(pool_, false, 0);\n    }\n\n    function initPool(address pool_, uint256 pid_) external override {\n        _initPool(pool_, true, pid_);\n    }\n\n    function _initPool(address pool_, bool setPid_, uint256 pid_) internal {\n        if (_isRegistered[pool_]) return;\n        require(_isCurvePool(pool_), \"CurveRegistryCache: invalid curve pool\");\n\n        _isRegistered[pool_] = true;\n        address curveLpToken_ = _CURVE_REGISTRY.get_lp_token(pool_);\n        _lpToken[pool_] = curveLpToken_;\n        if (setPid_) {\n            _setConvexPid(pool_, curveLpToken_, pid_);\n        } else {\n            pid_ = _setConvexPid(pool_, curveLpToken_);\n        }\n        _poolFromLpToken[curveLpToken_] = pool_;\n        address basePool_ = _CURVE_REGISTRY.get_base_pool(pool_);\n        _basePool[pool_] = basePool_;\n        if (basePool_ != address(0)) {\n            _initPool(basePool_, false, 0);\n            address[] memory basePoolCoins_ = _coins[basePool_];\n            for (uint256 i; i < basePoolCoins_.length; i++) {\n                address coin_ = basePoolCoins_[i];\n                _hasCoinAnywhere[pool_][coin_] = true;\n            }\n        }\n        _assetType[pool_] = CurvePoolUtils.AssetType(_CURVE_REGISTRY.get_pool_asset_type(pool_));\n        uint256 nCoins_ = _CURVE_REGISTRY.get_n_coins(pool_);\n        address[8] memory staticCoins_ = _CURVE_REGISTRY.get_coins(pool_);\n        uint256[8] memory staticDecimals_ = _CURVE_REGISTRY.get_decimals(pool_);\n        address[] memory coins_ = new address[](nCoins_);\n        for (uint256 i; i < nCoins_; i++) {\n            address coin_ = staticCoins_[i];\n            require(coin_ != address(0), \"CurveRegistryCache: invalid coin\");\n            coins_[i] = coin_;\n            _hasCoinDirectly[pool_][coin_] = true;\n            _hasCoinAnywhere[pool_][coin_] = true;\n            _coinIndex[pool_][coin_] = int128(uint128(i));\n            _decimals[pool_].push(staticDecimals_[i]);\n\n            if (coin_ == _ETH) {\n                coin_ = _WETH;\n                coins_[i] = coin_;\n                _hasCoinDirectly[pool_][coin_] = true;\n                _hasCoinAnywhere[pool_][coin_] = true;\n                _coinIndex[pool_][coin_] = int128(uint128(i));\n            }\n        }\n        _nCoins[pool_] = nCoins_;\n        _coins[pool_] = coins_;\n        _interfaceVersion[pool_] = _getInterfaceVersion(pool_);\n\n        emit PoolInitialized(pool_, pid_);\n    }\n\n    function _setConvexPid(address pool_, address lpToken_) internal returns (uint256 pid_) {\n        uint256 length = BOOSTER.poolLength();\n        address rewardPool;\n        for (uint256 i; i < length; i++) {\n            (address curveToken, , , address rewardPool_, , bool _isShutdown) = BOOSTER.poolInfo(i);\n            if (lpToken_ != curveToken || _isShutdown) continue;\n            rewardPool = rewardPool_;\n            pid_ = i;\n            _convexPid[pool_] = i;\n            break;\n        }\n        /// Only Curve pools that have a valid Convex PID can be added to the cache\n        require(rewardPool != address(0), \"no convex pid found\");\n        _convexRewardPool[pool_] = rewardPool;\n    }\n\n    function _setConvexPid(address pool_, address lpToken_, uint256 pid_) internal {\n        (address curveToken, , , address rewardPool_, , bool _isShutdown) = BOOSTER.poolInfo(pid_);\n        require(lpToken_ == curveToken, \"invalid lp token for curve pool\");\n        require(!_isShutdown, \"convex pool is shut down\");\n        require(rewardPool_ != address(0), \"no convex pid found\");\n        _convexRewardPool[pool_] = rewardPool_;\n        _convexPid[pool_] = pid_;\n    }\n\n    function isRegistered(address pool_) external view override returns (bool) {\n        return _isRegistered[pool_];\n    }\n\n    function lpToken(\n        address pool_\n    ) external view override onlyInitialized(pool_) returns (address) {\n        return _lpToken[pool_];\n    }\n\n    function assetType(\n        address pool_\n    ) external view override onlyInitialized(pool_) returns (CurvePoolUtils.AssetType) {\n        return _assetType[pool_];\n    }\n\n    function hasCoinDirectly(\n        address pool_,\n        address coin_\n    ) external view override onlyInitialized(pool_) returns (bool) {\n        return _hasCoinDirectly[pool_][coin_];\n    }\n\n    function hasCoinAnywhere(\n        address pool_,\n        address coin_\n    ) external view override onlyInitialized(pool_) returns (bool) {\n        return _hasCoinAnywhere[pool_][coin_];\n    }\n\n    function basePool(\n        address pool_\n    ) external view override onlyInitialized(pool_) returns (address) {\n        return _basePool[pool_];\n    }\n\n    function coinIndex(\n        address pool_,\n        address coin_\n    ) external view override onlyInitialized(pool_) returns (int128) {\n        return _coinIndex[pool_][coin_];\n    }\n\n    function nCoins(address pool_) external view override onlyInitialized(pool_) returns (uint256) {\n        return _nCoins[pool_];\n    }\n\n    function getAllUnderlyingCoins(address pool) public view returns (address[] memory) {\n        address base = _basePool[pool];\n        if (base == address(0)) return _coins[pool];\n\n        address[] memory result = new address[](_nCoins[pool] - 1);\n        for ((uint256 i, uint256 j) = (0, 0); i < _nCoins[pool]; i++) {\n            address coin = _coins[pool][i];\n            if (_poolFromLpToken[coin] != base) {\n                result[j++] = coin;\n            }\n        }\n        return result.concat(getAllUnderlyingCoins(base));\n    }\n\n    function coinIndices(\n        address pool_,\n        address from_,\n        address to_\n    ) external view override onlyInitialized(pool_) returns (int128, int128, bool) {\n        return (\n            _coinIndex[pool_][from_],\n            _coinIndex[pool_][to_],\n            _hasCoinDirectly[pool_][from_] && _hasCoinDirectly[pool_][to_]\n        );\n    }\n\n    function decimals(\n        address pool_\n    ) external view override onlyInitialized(pool_) returns (uint256[] memory) {\n        return _decimals[pool_];\n    }\n\n    /// @notice Returns the Curve interface version for a given pool\n    /// @dev Version 0 uses `int128` for `coins` and `balances`, and `int128` for `get_dy`\n    /// Version 1 uses `uint256` for `coins` and `balances`, and `int128` for `get_dy`\n    /// Version 2 uses `uint256` for `coins` and `balances`, and `uint256` for `get_dy`\n    /// They correspond with which interface the pool implements: ICurvePoolV0, ICurvePoolV1, ICurvePoolV2\n    function interfaceVersion(\n        address pool_\n    ) external view override onlyInitialized(pool_) returns (uint256) {\n        return _interfaceVersion[pool_];\n    }\n\n    function poolFromLpToken(address lpToken_) external view override returns (address) {\n        return _poolFromLpToken[lpToken_];\n    }\n\n    function coins(\n        address pool_\n    ) external view override onlyInitialized(pool_) returns (address[] memory) {\n        return _coins[pool_];\n    }\n\n    function getPid(address pool_) external view override onlyInitialized(pool_) returns (uint256) {\n        require(_convexRewardPool[pool_] != address(0), \"pid not found\");\n        return _convexPid[pool_];\n    }\n\n    function getRewardPool(\n        address pool_\n    ) external view override onlyInitialized(pool_) returns (address) {\n        return _convexRewardPool[pool_];\n    }\n\n    function isShutdownPid(uint256 pid_) external view override returns (bool) {\n        (, , , , , bool _isShutdown) = BOOSTER.poolInfo(pid_);\n        return _isShutdown;\n    }\n\n    function _isCurvePool(address pool_) internal view returns (bool) {\n        try _CURVE_REGISTRY.is_registered(pool_) returns (bool registered_) {\n            return registered_;\n        } catch {\n            return false;\n        }\n    }\n\n    function _getInterfaceVersion(address pool_) internal view returns (uint256) {\n        if (_assetType[pool_] == CurvePoolUtils.AssetType.CRYPTO) return 2;\n        try ICurvePoolV1(pool_).balances(uint256(0)) returns (uint256) {\n            return 1;\n        } catch {\n            return 0;\n        }\n    }\n}\n","sourcePath":"contracts/CurveRegistryCache.sol","type":"contract","deployment":{"address":"0x29E06bBA53f73E271859214D9D87a1bE636273C0","chainid":"1","blockHeight":19013891}}