{"abi":[{"inputs":[{"internalType":"address","name":"genericOracle_","type":"address"}],"stateMutability":"nonpayable","type":"constructor","name":"constructor"},{"anonymous":false,"inputs":[{"indexed":true,"internalType":"address","name":"token","type":"address"},{"indexed":false,"internalType":"address","name":"feed","type":"address"},{"indexed":false,"internalType":"uint256","name":"maxDelay","type":"uint256"},{"indexed":false,"internalType":"bool","name":"isEthPrice","type":"bool"}],"name":"TokenUpdated","type":"event"},{"inputs":[{"internalType":"address","name":"token_","type":"address"}],"name":"getUSDPrice","outputs":[{"internalType":"uint256","name":"","type":"uint256"}],"stateMutability":"view","type":"function"},{"inputs":[{"internalType":"address","name":"token_","type":"address"}],"name":"isTokenSupported","outputs":[{"internalType":"bool","name":"","type":"bool"}],"stateMutability":"pure","type":"function"}],"bytecode":"60a060405234801561001057600080fd5b5060405161059f38038061059f83398101604081905261002f91610040565b6001600160a01b0316608052610070565b60006020828403121561005257600080fd5b81516001600160a01b038116811461006957600080fd5b9392505050565b60805161051461008b60003960006101e301526105146000f3fe608060405234801561001057600080fd5b50600436106100365760003560e01c806375151b631461003b5780638b2f0f4f14610080575b600080fd5b61006b61004936600461035d565b6001600160a01b031673f939e0a03fb07f59a73314e73794be0e57ac1b4e1490565b60405190151581526020015b60405180910390f35b61009361008e36600461035d565b6100a1565b604051908152602001610077565b600073f939e0a03fb07f59a73314e73794be0e57ac1b4e6001600160a01b038316146101095760405162461bcd60e51b81526020600482015260136024820152721d1bdad95b881b9bdd081cdd5c1c1bdc9d1959606a1b604482015260640160405180910390fd5b600061013d734dece678ceceb27446b35c672dc7d61f30bad69e73a0b86991c6218b36c1d19d4a2e9eb0ce3606eb486101bf565b9050600061017373390f3595bca2df7d23783dfd126427cceb997bf473dac17f958d2ee523a2206206994597c13d831ec76101bf565b905060006101a973ca978a0528116dda3cba9acd3e68bc6191ca53d0738e870d67f660d95d5be530380d0ec0bd388289e16101bf565b90506101b68383836102cb565b95945050505050565b604051638b2f0f4f60e01b81526001600160a01b03828116600483015260009182917f00000000000000000000000000000000000000000000000000000000000000001690638b2f0f4f90602401602060405180830381865afa15801561022a573d6000803e3d6000fd5b505050506040513d601f19601f8201168201806040525081019061024e9190610386565b90506000846001600160a01b03166386fc88d36040518163ffffffff1660e01b8152600401602060405180830381865afa158015610290573d6000803e3d6000fd5b505050506040513d601f19601f820116820180604052508101906102b49190610386565b90506102c0828261033b565b925050505b92915050565b60008284101580156102dd5750818411155b806102f357508184101580156102f35750828411155b156102ff575082610334565b83831015801561030f5750818311155b8061032557508183101580156103255750838311155b15610331575081610334565b50805b9392505050565b60006103496012600a610499565b61035383856104a5565b61033491906104bc565b60006020828403121561036f57600080fd5b81356001600160a01b038116811461033457600080fd5b60006020828403121561039857600080fd5b5051919050565b634e487b7160e01b600052601160045260246000fd5b600181815b808511156103f05781600019048211156103d6576103d661039f565b808516156103e357918102915b93841c93908002906103ba565b509250929050565b600082610407575060016102c5565b81610414575060006102c5565b816001811461042a576002811461043457610450565b60019150506102c5565b60ff8411156104455761044561039f565b50506001821b6102c5565b5060208310610133831016604e8410600b8410161715610473575081810a6102c5565b61047d83836103b5565b80600019048211156104915761049161039f565b029392505050565b600061033483836103f8565b80820281158282048414176102c5576102c561039f565b6000826104d957634e487b7160e01b600052601260045260246000fd5b50049056fea2646970667358221220cb9538c2521ba3e6112e97e873ed0f7b8e5c4a445142d48f9a19bd60f275b55f64736f6c63430008110033","bytecodeSha1":"aab84ca88868fade0df2f42f5d4ae4fd2e32eee6","compiler":{"evm_version":"istanbul","optimizer":{"enabled":true,"runs":200},"version":"0.8.17+commit.8df45f5f"},"contractName":"CrvUsdOracle","language":"Solidity","natspec":{"kind":"dev","methods":{},"version":1},"opcodes":"PUSH1 0x80 PUSH1 0x40 MSTORE CALLVALUE DUP1 ISZERO PUSH2 0x10 JUMPI PUSH1 0x0 DUP1 REVERT JUMPDEST POP PUSH1 0x4 CALLDATASIZE LT PUSH2 0x36 JUMPI PUSH1 0x0 CALLDATALOAD PUSH1 0xE0 SHR DUP1 PUSH4 0x75151B63 EQ PUSH2 0x3B JUMPI DUP1 PUSH4 0x8B2F0F4F EQ PUSH2 0x80 JUMPI JUMPDEST PUSH1 0x0 DUP1 REVERT JUMPDEST PUSH2 0x6B PUSH2 0x49 CALLDATASIZE PUSH1 0x4 PUSH2 0x35D JUMP JUMPDEST PUSH1 0x1 PUSH1 0x1 PUSH1 0xA0 SHL SUB AND PUSH20 0xF939E0A03FB07F59A73314E73794BE0E57AC1B4E EQ SWAP1 JUMP JUMPDEST PUSH1 0x40 MLOAD SWAP1 ISZERO ISZERO DUP2 MSTORE PUSH1 0x20 ADD JUMPDEST PUSH1 0x40 MLOAD DUP1 SWAP2 SUB SWAP1 RETURN JUMPDEST PUSH2 0x93 PUSH2 0x8E CALLDATASIZE PUSH1 0x4 PUSH2 0x35D JUMP JUMPDEST PUSH2 0xA1 JUMP JUMPDEST PUSH1 0x40 MLOAD SWAP1 DUP2 MSTORE PUSH1 0x20 ADD PUSH2 0x77 JUMP JUMPDEST PUSH1 0x0 PUSH20 0xF939E0A03FB07F59A73314E73794BE0E57AC1B4E PUSH1 0x1 PUSH1 0x1 PUSH1 0xA0 SHL SUB DUP4 AND EQ PUSH2 0x109 JUMPI PUSH1 0x40 MLOAD PUSH3 0x461BCD PUSH1 0xE5 SHL DUP2 MSTORE PUSH1 0x20 PUSH1 0x4 DUP3 ADD MSTORE PUSH1 0x13 PUSH1 0x24 DUP3 ADD MSTORE PUSH19 0x1D1BDAD95B881B9BDD081CDD5C1C1BDC9D1959 PUSH1 0x6A SHL PUSH1 0x44 DUP3 ADD MSTORE PUSH1 0x64 ADD PUSH1 0x40 MLOAD DUP1 SWAP2 SUB SWAP1 REVERT JUMPDEST PUSH1 0x0 PUSH2 0x13D PUSH20 0x4DECE678CECEB27446B35C672DC7D61F30BAD69E PUSH20 0xA0B86991C6218B36C1D19D4A2E9EB0CE3606EB48 PUSH2 0x1BF JUMP JUMPDEST SWAP1 POP PUSH1 0x0 PUSH2 0x173 PUSH20 0x390F3595BCA2DF7D23783DFD126427CCEB997BF4 PUSH20 0xDAC17F958D2EE523A2206206994597C13D831EC7 PUSH2 0x1BF JUMP JUMPDEST SWAP1 POP PUSH1 0x0 PUSH2 0x1A9 PUSH20 0xCA978A0528116DDA3CBA9ACD3E68BC6191CA53D0 PUSH20 0x8E870D67F660D95D5BE530380D0EC0BD388289E1 PUSH2 0x1BF JUMP JUMPDEST SWAP1 POP PUSH2 0x1B6 DUP4 DUP4 DUP4 PUSH2 0x2CB JUMP JUMPDEST SWAP6 SWAP5 POP POP POP POP POP JUMP JUMPDEST PUSH1 0x40 MLOAD PUSH4 0x8B2F0F4F PUSH1 0xE0 SHL DUP2 MSTORE PUSH1 0x1 PUSH1 0x1 PUSH1 0xA0 SHL SUB DUP3 DUP2 AND PUSH1 0x4 DUP4 ADD MSTORE PUSH1 0x0 SWAP2 DUP3 SWAP2 PUSH32 0x0 AND SWAP1 PUSH4 0x8B2F0F4F SWAP1 PUSH1 0x24 ADD PUSH1 0x20 PUSH1 0x40 MLOAD DUP1 DUP4 SUB DUP2 DUP7 GAS STATICCALL ISZERO DUP1 ISZERO PUSH2 0x22A JUMPI RETURNDATASIZE PUSH1 0x0 DUP1 RETURNDATACOPY RETURNDATASIZE PUSH1 0x0 REVERT JUMPDEST POP POP POP POP PUSH1 0x40 MLOAD RETURNDATASIZE PUSH1 0x1F NOT PUSH1 0x1F DUP3 ADD AND DUP3 ADD DUP1 PUSH1 0x40 MSTORE POP DUP2 ADD SWAP1 PUSH2 0x24E SWAP2 SWAP1 PUSH2 0x386 JUMP JUMPDEST SWAP1 POP PUSH1 0x0 DUP5 PUSH1 0x1 PUSH1 0x1 PUSH1 0xA0 SHL SUB AND PUSH4 0x86FC88D3 PUSH1 0x40 MLOAD DUP2 PUSH4 0xFFFFFFFF AND PUSH1 0xE0 SHL DUP2 MSTORE PUSH1 0x4 ADD PUSH1 0x20 PUSH1 0x40 MLOAD DUP1 DUP4 SUB DUP2 DUP7 GAS STATICCALL ISZERO DUP1 ISZERO PUSH2 0x290 JUMPI RETURNDATASIZE PUSH1 0x0 DUP1 RETURNDATACOPY RETURNDATASIZE PUSH1 0x0 REVERT JUMPDEST POP POP POP POP PUSH1 0x40 MLOAD RETURNDATASIZE PUSH1 0x1F NOT PUSH1 0x1F DUP3 ADD AND DUP3 ADD DUP1 PUSH1 0x40 MSTORE POP DUP2 ADD SWAP1 PUSH2 0x2B4 SWAP2 SWAP1 PUSH2 0x386 JUMP JUMPDEST SWAP1 POP PUSH2 0x2C0 DUP3 DUP3 PUSH2 0x33B JUMP JUMPDEST SWAP3 POP POP POP JUMPDEST SWAP3 SWAP2 POP POP JUMP JUMPDEST PUSH1 0x0 DUP3 DUP5 LT ISZERO DUP1 ISZERO PUSH2 0x2DD JUMPI POP DUP2 DUP5 GT ISZERO JUMPDEST DUP1 PUSH2 0x2F3 JUMPI POP DUP2 DUP5 LT ISZERO DUP1 ISZERO PUSH2 0x2F3 JUMPI POP DUP3 DUP5 GT ISZERO JUMPDEST ISZERO PUSH2 0x2FF JUMPI POP DUP3 PUSH2 0x334 JUMP JUMPDEST DUP4 DUP4 LT ISZERO DUP1 ISZERO PUSH2 0x30F JUMPI POP DUP2 DUP4 GT ISZERO JUMPDEST DUP1 PUSH2 0x325 JUMPI POP DUP2 DUP4 LT ISZERO DUP1 ISZERO PUSH2 0x325 JUMPI POP DUP4 DUP4 GT ISZERO JUMPDEST ISZERO PUSH2 0x331 JUMPI POP DUP2 PUSH2 0x334 JUMP JUMPDEST POP DUP1 JUMPDEST SWAP4 SWAP3 POP POP POP JUMP JUMPDEST PUSH1 0x0 PUSH2 0x349 PUSH1 0x12 PUSH1 0xA PUSH2 0x499 JUMP JUMPDEST PUSH2 0x353 DUP4 DUP6 PUSH2 0x4A5 JUMP JUMPDEST PUSH2 0x334 SWAP2 SWAP1 PUSH2 0x4BC JUMP JUMPDEST PUSH1 0x0 PUSH1 0x20 DUP3 DUP5 SUB SLT ISZERO PUSH2 0x36F JUMPI PUSH1 0x0 DUP1 REVERT JUMPDEST DUP2 CALLDATALOAD PUSH1 0x1 PUSH1 0x1 PUSH1 0xA0 SHL SUB DUP2 AND DUP2 EQ PUSH2 0x334 JUMPI PUSH1 0x0 DUP1 REVERT JUMPDEST PUSH1 0x0 PUSH1 0x20 DUP3 DUP5 SUB SLT ISZERO PUSH2 0x398 JUMPI PUSH1 0x0 DUP1 REVERT JUMPDEST POP MLOAD SWAP2 SWAP1 POP JUMP JUMPDEST PUSH4 0x4E487B71 PUSH1 0xE0 SHL PUSH1 0x0 MSTORE PUSH1 0x11 PUSH1 0x4 MSTORE PUSH1 0x24 PUSH1 0x0 REVERT JUMPDEST PUSH1 0x1 DUP2 DUP2 JUMPDEST DUP1 DUP6 GT ISZERO PUSH2 0x3F0 JUMPI DUP2 PUSH1 0x0 NOT DIV DUP3 GT ISZERO PUSH2 0x3D6 JUMPI PUSH2 0x3D6 PUSH2 0x39F JUMP JUMPDEST DUP1 DUP6 AND ISZERO PUSH2 0x3E3 JUMPI SWAP2 DUP2 MUL SWAP2 JUMPDEST SWAP4 DUP5 SHR SWAP4 SWAP1 DUP1 MUL SWAP1 PUSH2 0x3BA JUMP JUMPDEST POP SWAP3 POP SWAP3 SWAP1 POP JUMP JUMPDEST PUSH1 0x0 DUP3 PUSH2 0x407 JUMPI POP PUSH1 0x1 PUSH2 0x2C5 JUMP JUMPDEST DUP2 PUSH2 0x414 JUMPI POP PUSH1 0x0 PUSH2 0x2C5 JUMP JUMPDEST DUP2 PUSH1 0x1 DUP2 EQ PUSH2 0x42A JUMPI PUSH1 0x2 DUP2 EQ PUSH2 0x434 JUMPI PUSH2 0x450 JUMP JUMPDEST PUSH1 0x1 SWAP2 POP POP PUSH2 0x2C5 JUMP JUMPDEST PUSH1 0xFF DUP5 GT ISZERO PUSH2 0x445 JUMPI PUSH2 0x445 PUSH2 0x39F JUMP JUMPDEST POP POP PUSH1 0x1 DUP3 SHL PUSH2 0x2C5 JUMP JUMPDEST POP PUSH1 0x20 DUP4 LT PUSH2 0x133 DUP4 LT AND PUSH1 0x4E DUP5 LT PUSH1 0xB DUP5 LT AND OR ISZERO PUSH2 0x473 JUMPI POP DUP2 DUP2 EXP PUSH2 0x2C5 JUMP JUMPDEST PUSH2 0x47D DUP4 DUP4 PUSH2 0x3B5 JUMP JUMPDEST DUP1 PUSH1 0x0 NOT DIV DUP3 GT ISZERO PUSH2 0x491 JUMPI PUSH2 0x491 PUSH2 0x39F JUMP JUMPDEST MUL SWAP4 SWAP3 POP POP POP JUMP JUMPDEST PUSH1 0x0 PUSH2 0x334 DUP4 DUP4 PUSH2 0x3F8 JUMP JUMPDEST DUP1 DUP3 MUL DUP2 ISZERO DUP3 DUP3 DIV DUP5 EQ OR PUSH2 0x2C5 JUMPI PUSH2 0x2C5 PUSH2 0x39F JUMP JUMPDEST PUSH1 0x0 DUP3 PUSH2 0x4D9 JUMPI PUSH4 0x4E487B71 PUSH1 0xE0 SHL PUSH1 0x0 MSTORE PUSH1 0x12 PUSH1 0x4 MSTORE PUSH1 0x24 PUSH1 0x0 REVERT JUMPDEST POP DIV SWAP1 JUMP INVALID LOG2 PUSH5 0x6970667358 0x22 SLT KECCAK256 0xCB SWAP6 CODESIZE 0xC2 MSTORE SHL LOG3 0xE6 GT 0x2E SWAP8 0xE8 PUSH20 0xED0F7B8E5C4A445142D48F9A19BD60F275B55F64 PUSH20 0x6F6C634300081100330000000000000000000000 ","sha1":"1fd2374f51c3b9e22d4ce519df5897fc542e74f0","source":"// SPDX-License-Identifier: GPL-3.0-or-later\npragma solidity 0.8.17;\n\nimport \"../../interfaces/IOracle.sol\";\nimport \"../../libraries/ScaledMath.sol\";\n\ninterface ICurvePriceOracle {\n    function price_oracle() external view returns (uint256);\n}\n\ncontract CrvUsdOracle is IOracle {\n    using ScaledMath for uint256;\n\n    // Tokens\n    address internal constant _CRVUSD = address(0xf939E0A03FB07F59A73314E73794Be0E57ac1b4E);\n    address internal constant _USDC = address(0xA0b86991c6218b36c1d19D4a2e9Eb0cE3606eB48);\n    address internal constant _USDT = address(0xdAC17F958D2ee523a2206206994597C13D831ec7);\n    address internal constant _USDP = address(0x8E870D67F660D95d5be530380D0eC0bd388289E1);\n\n    // Curve pools\n    address internal constant _CRVUSD_USDC = address(0x4DEcE678ceceb27446b35C672dC7d61F30bAD69E);\n    address internal constant _CRVUSD_USDT = address(0x390f3595bCa2Df7d23783dFd126427CCeb997BF4);\n    address internal constant _CRVUSD_USDP = address(0xCa978A0528116DDA3cbA9ACD3e68bc6191CA53D0);\n\n    IOracle internal immutable _genericOracle;\n\n    constructor(address genericOracle_) {\n        _genericOracle = IOracle(genericOracle_);\n    }\n\n    function getUSDPrice(address token_) external view override returns (uint256) {\n        require(isTokenSupported(token_), \"token not supported\");\n        uint256 priceFromUsdc_ = _getCrvUsdPriceForCurvePool(_CRVUSD_USDC, _USDC);\n        uint256 priceFromUsdt_ = _getCrvUsdPriceForCurvePool(_CRVUSD_USDT, _USDT);\n        uint256 priceFromUsdp_ = _getCrvUsdPriceForCurvePool(_CRVUSD_USDP, _USDP);\n        return _median(priceFromUsdc_, priceFromUsdt_, priceFromUsdp_);\n    }\n\n    function isTokenSupported(address token_) public pure override returns (bool) {\n        return token_ == _CRVUSD;\n    }\n\n    function _getCrvUsdPriceForCurvePool(\n        address curvePool_,\n        address token_\n    ) internal view returns (uint256) {\n        uint256 tokenPrice_ = _genericOracle.getUSDPrice(token_);\n        uint256 tokenPerCrvUsd_ = ICurvePriceOracle(curvePool_).price_oracle();\n        return tokenPrice_.mulDown(tokenPerCrvUsd_);\n    }\n\n    function _median(uint256 a, uint256 b, uint256 c) internal pure returns (uint256) {\n        if ((a >= b && a <= c) || (a >= c && a <= b)) return a;\n        if ((b >= a && b <= c) || (b >= c && b <= a)) return b;\n        return c;\n    }\n}\n","sourcePath":"contracts/oracles/CrvUsdOracle.sol","type":"contract","deployment":{"address":"0x2Ca33fe9A0816eAa77472e74FD56A0ff5e22890F","chainid":"1","blockHeight":17414451}}