{"abi":[{"inputs":[{"internalType":"address","name":"_token","type":"address"},{"internalType":"address","name":"_treasury","type":"address"},{"internalType":"uint256","name":"_maxPerUser","type":"uint256"},{"internalType":"bytes32","name":"_merkleRoot","type":"bytes32"}],"stateMutability":"nonpayable","type":"constructor","name":"constructor"},{"anonymous":false,"inputs":[],"name":"DistributonEnded","type":"event"},{"anonymous":false,"inputs":[],"name":"DistributonStarted","type":"event"},{"anonymous":false,"inputs":[{"indexed":true,"internalType":"address","name":"previousOwner","type":"address"},{"indexed":true,"internalType":"address","name":"newOwner","type":"address"}],"name":"OwnershipTransferred","type":"event"},{"anonymous":false,"inputs":[{"indexed":false,"internalType":"address","name":"receiver","type":"address"},{"indexed":false,"internalType":"uint256","name":"receiveAmount","type":"uint256"},{"indexed":false,"internalType":"uint256","name":"amountDeposited","type":"uint256"}],"name":"TokenDistributed","type":"event"},{"inputs":[],"name":"ETH_PER_TRANCHE","outputs":[{"internalType":"uint256","name":"","type":"uint256"}],"stateMutability":"view","type":"function"},{"inputs":[],"name":"WHITELIST_DURATION","outputs":[{"internalType":"uint256","name":"","type":"uint256"}],"stateMutability":"view","type":"function"},{"inputs":[{"internalType":"uint256","name":"minOutputAmount","type":"uint256"}],"name":"ape","outputs":[],"stateMutability":"payable","type":"function"},{"inputs":[{"internalType":"uint256","name":"minOutputAmount","type":"uint256"},{"components":[{"internalType":"uint16","name":"nodeIndex","type":"uint16"},{"internalType":"bytes32[]","name":"hashes","type":"bytes32[]"}],"internalType":"struct MerkleProof.Proof","name":"proof","type":"tuple"}],"name":"ape","outputs":[],"stateMutability":"payable","type":"function"},{"inputs":[{"internalType":"address","name":"","type":"address"}],"name":"apedPerUser","outputs":[{"internalType":"uint256","name":"","type":"uint256"}],"stateMutability":"view","type":"function"},{"inputs":[],"name":"currentTrancheSize","outputs":[{"internalType":"uint256","name":"","type":"uint256"}],"stateMutability":"view","type":"function"},{"inputs":[],"name":"end","outputs":[],"stateMutability":"nonpayable","type":"function"},{"inputs":[],"name":"endedAt","outputs":[{"internalType":"uint256","name":"","type":"uint256"}],"stateMutability":"view","type":"function"},{"inputs":[],"name":"exchangeRate","outputs":[{"internalType":"uint256","name":"","type":"uint256"}],"stateMutability":"view","type":"function"},{"inputs":[{"internalType":"uint256","name":"depositAmount","type":"uint256"}],"name":"getAmountForDeposit","outputs":[{"internalType":"uint256","name":"","type":"uint256"}],"stateMutability":"view","type":"function"},{"inputs":[{"internalType":"uint256","name":"depositAmount","type":"uint256"}],"name":"getDefaultMinOutput","outputs":[{"internalType":"uint256","name":"","type":"uint256"}],"stateMutability":"view","type":"function"},{"inputs":[],"name":"getLeftInTranche","outputs":[{"internalType":"uint256","name":"","type":"uint256"}],"stateMutability":"view","type":"function"},{"inputs":[],"name":"lastReductionAmount","outputs":[{"internalType":"uint256","name":"","type":"uint256"}],"stateMutability":"view","type":"function"},{"inputs":[],"name":"maxPerUser","outputs":[{"internalType":"uint256","name":"","type":"uint256"}],"stateMutability":"view","type":"function"},{"inputs":[],"name":"merkleRoot","outputs":[{"internalType":"bytes32","name":"","type":"bytes32"}],"stateMutability":"view","type":"function"},{"inputs":[],"name":"owner","outputs":[{"internalType":"address","name":"","type":"address"}],"stateMutability":"view","type":"function"},{"inputs":[],"name":"renounceOwnership","outputs":[],"stateMutability":"nonpayable","type":"function"},{"inputs":[],"name":"start","outputs":[],"stateMutability":"nonpayable","type":"function"},{"inputs":[],"name":"startedAt","outputs":[{"internalType":"uint256","name":"","type":"uint256"}],"stateMutability":"view","type":"function"},{"inputs":[],"name":"token","outputs":[{"internalType":"address","name":"","type":"address"}],"stateMutability":"view","type":"function"},{"inputs":[],"name":"totalMinted","outputs":[{"internalType":"uint256","name":"","type":"uint256"}],"stateMutability":"view","type":"function"},{"inputs":[{"internalType":"address","name":"newOwner","type":"address"}],"name":"transferOwnership","outputs":[],"stateMutability":"nonpayable","type":"function"},{"inputs":[],"name":"treasury","outputs":[{"internalType":"address","name":"","type":"address"}],"stateMutability":"view","type":"function"}],"bytecode":"6101006040523480156200001257600080fd5b5060405162001c6938038062001c69833981016040819052620000359162000156565b6200004033620000b7565b6001600160a01b03848116608052831660a052670de0b6b3a7640000620000876a01287626ee52197b00000067c249fdd32778000062000107602090811b6200093117901c565b620000939190620001b4565b6003556a01287626ee52197b00000060045560c09190915260e05250620003049050565b600080546001600160a01b038381166001600160a01b0319831681178455604051919092169283917f8be0079c531659141344cd1fd0a4f28419497f9722a3daafe3b4186f6b6457e09190a35050565b600081620001186012600a620002d3565b620001249085620001b4565b620001309190620002e1565b90505b92915050565b80516001600160a01b03811681146200015157600080fd5b919050565b600080600080608085870312156200016d57600080fd5b620001788562000139565b9350620001886020860162000139565b6040860151606090960151949790965092505050565b634e487b7160e01b600052601160045260246000fd5b6000816000190483118215151615620001d157620001d16200019e565b500290565b600181815b8085111562000217578160001904821115620001fb57620001fb6200019e565b808516156200020957918102915b93841c9390800290620001db565b509250929050565b600082620002305750600162000133565b816200023f5750600062000133565b8160018114620002585760028114620002635762000283565b600191505062000133565b60ff8411156200027757620002776200019e565b50506001821b62000133565b5060208310610133831016604e8410600b8410161715620002a8575081810a62000133565b620002b48383620001d6565b8060001904821115620002cb57620002cb6200019e565b029392505050565b60006200013083836200021f565b600082620002ff57634e487b7160e01b600052601260045260246000fd5b500490565b60805160a05160c05160e0516118f3620003766000396000818161021601526105990152600081816101570152610ab60152600081816102d0015281816107e301528181610c150152610e570152600081816103fb015281816107bd01528181610bea0152610f2801526118f36000f3fe6080604052600436106101405760003560e01c8063571b1f8a116100b6578063b718e8721161006f578063b718e87214610373578063be9a655514610389578063efbe1c1c1461039e578063f21f537d146103b3578063f2fde38b146103c9578063fc0c546a146103e957600080fd5b8063571b1f8a146102a857806361d027b3146102be578063715018a61461030a5780638da5cb5b1461031f578063a2309ff81461033d578063a7575e461461035357600080fd5b80632eb4a7ab116101085780632eb4a7ab146102045780632fb63dd4146102385780633ba0b9a9146102545780633cfb71d01461026a5780633d6a71e41461027f57806345fc96be1461029557600080fd5b806306d586bb1461014557806307be2a9c1461018c5780631f8abaa4146101a1578063206a9ad3146101ce578063220e259f146101ee575b600080fd5b34801561015157600080fd5b506101797f000000000000000000000000000000000000000000000000000000000000000081565b6040519081526020015b60405180910390f35b61019f61019a366004611415565b61041d565b005b3480156101ad57600080fd5b506101796101bc36600461142e565b60076020526000908152604090205481565b3480156101da57600080fd5b506101796101e9366004611415565b610483565b3480156101fa57600080fd5b5061017960045481565b34801561021057600080fd5b506101797f000000000000000000000000000000000000000000000000000000000000000081565b34801561024457600080fd5b5061017967c249fdd32778000081565b34801561026057600080fd5b5061017960035481565b34801561027657600080fd5b50610179610520565b34801561028b57600080fd5b5061017960025481565b61019f6102a3366004611457565b610544565b3480156102b457600080fd5b50610179612a3081565b3480156102ca57600080fd5b506102f27f000000000000000000000000000000000000000000000000000000000000000081565b6040516001600160a01b039091168152602001610183565b34801561031657600080fd5b5061019f610614565b34801561032b57600080fd5b506000546001600160a01b03166102f2565b34801561034957600080fd5b5061017960065481565b34801561035f57600080fd5b5061017961036e366004611415565b61064a565b34801561037f57600080fd5b5061017960055481565b34801561039557600080fd5b5061019f610669565b3480156103aa57600080fd5b5061019f610712565b3480156103bf57600080fd5b5061017960015481565b3480156103d557600080fd5b5061019f6103e436600461142e565b610899565b3480156103f557600080fd5b506102f27f000000000000000000000000000000000000000000000000000000000000000081565b42612a3060015461042e91906114bb565b11156104775760405162461bcd60e51b815260206004820152601360248201527277686974656c6973742069732061637469766560681b60448201526064015b60405180910390fd5b6104808161095b565b50565b6000806104a3670766c4cf2e0f2000600354610f9790919063ffffffff16565b60045490915060006104bd82670766c4cf2e0f2000610f97565b905060006104d267c249fdd32778000061064a565b90506000816006546104e491906114bb565b83856005546104f391906114bb565b6104fd91906114bb565b61050791906114d3565b905061051587868584610faf565b979650505050505050565b600060065460045460055461053591906114bb565b61053f91906114d3565b905090565b42612a3060015461055591906114bb565b10610607576040516bffffffffffffffffffffffff193360601b1660208201526000906034016040516020818303038152906040528051906020012090506105c9817f0000000000000000000000000000000000000000000000000000000000000000846105c29061155a565b919061109a565b6106055760405162461bcd60e51b815260206004820152600d60248201526c34b73b30b634b210383937b7b360991b604482015260640161046e565b505b6106108261095b565b5050565b6000546001600160a01b0316331461063e5760405162461bcd60e51b815260040161046e90611624565b6106486000611198565b565b60006106638260035460045461065e610520565b610faf565b92915050565b6000546001600160a01b031633146106935760405162461bcd60e51b815260040161046e90611624565b600154156106e35760405162461bcd60e51b815260206004820152601c60248201527f646973747269627574696f6e20616c7265616479207374617274656400000000604482015260640161046e565b426001556040517ff67a9c9ff66e4a25fdbd2afe53db0cb98c86c5b771ab018c2acb8fe41cb71d5090600090a1565b6000546001600160a01b0316331461073c5760405162461bcd60e51b815260040161046e90611624565b6201518060015461074d91906114bb565b421161075857600080fd5b600254156107a85760405162461bcd60e51b815260206004820152601a60248201527f646973747269627574696f6e20616c726561647920656e646564000000000000604482015260640161046e565b6040516370a0823160e01b81523060048201527f000000000000000000000000000000000000000000000000000000000000000090610869907f0000000000000000000000000000000000000000000000000000000000000000906001600160a01b038416906370a0823190602401602060405180830381865afa158015610834573d6000803e3d6000fd5b505050506040513d601f19601f820116820180604052508101906108589190611659565b6001600160a01b03841691906111e8565b426002556040517fd853973d65981a851c2cd5437067724fd08ff44792b1df6237953b4cb4701e7d90600090a150565b6000546001600160a01b031633146108c35760405162461bcd60e51b815260040161046e90611624565b6001600160a01b0381166109285760405162461bcd60e51b815260206004820152602660248201527f4f776e61626c653a206e6577206f776e657220697320746865207a65726f206160448201526564647265737360d01b606482015260840161046e565b61048081611198565b6000816109406012600a611756565b61094a9085611762565b6109549190611797565b9392505050565b6000341161099c5760405162461bcd60e51b815260206004820152600e60248201526d6e6f7468696e6720746f2061706560901b604482015260640161046e565b600254156109e55760405162461bcd60e51b8152602060048201526016602482015275191a5cdd1c9a589d5d1a5bdb881a185cc8195b99195960521b604482015260640161046e565b600154600003610a375760405162461bcd60e51b815260206004820181905260248201527f646973747269627574696f6e20686173206e6f74207965742073746172746564604482015260640161046e565b670de0b6b3a764000060035411610aa45760405162461bcd60e51b815260206004820152602b60248201527f646973747269627574696f6e20686173206578636565646564206d617820657860448201526a6368616e6765207261746560a81b606482015260840161046e565b336000908152600760205260409020547f0000000000000000000000000000000000000000000000000000000000000000610adf34836114bb565b1115610b2d5760405162461bcd60e51b815260206004820152601a60248201527f63616e6e6f7420617065206d6f7265207468616e203120455448000000000000604482015260640161046e565b610b3734826114bb565b33600090815260076020526040812091909155600354670de0b6b3a764000090610b62903490610f97565b610b6c9190611797565b90506000610b78610520565b9050808211610d1f5783821015610bc55760405162461bcd60e51b8152602060048201526011602482015270746f6f206d75636820736c69707061676560781b604482015260640161046e565b8160066000828254610bd791906114bb565b90915550610c1190506001600160a01b037f00000000000000000000000000000000000000000000000000000000000000001633846111e8565b60007f00000000000000000000000000000000000000000000000000000000000000006001600160a01b031634614e2090604051600060405180830381858888f193505050503d8060008114610c83576040519150601f19603f3d011682016040523d82523d6000602084013e610c88565b606091505b5050905080610cd95760405162461bcd60e51b815260206004820152601a60248201527f6661696c656420746f2073656e6420746f207472656173757279000000000000604482015260640161046e565b6040805133815260208101859052348183015290517f442151da4f589f7e51fac5b4f285a5e8fc8e105067689027ef065e1e922e19359181900360600190a15050505050565b6000805b348111610df857828410610d6d57600354610d5090610d4a670de0b6b3a764000086611762565b90610931565b610d5a90826114bb565b9050610d6683836114bb565b9150610d7e565b610d7784836114bb565b9150610df8565b600454600554610d8e91906114bb565b600555600354610da690670766c4cf2e0f2000610f97565b600355600454610dbe90670766c4cf2e0f2000610f97565b600455600354670de0b6b3a764000090610de290610ddc84346114d3565b90610f97565b610dec9190611797565b93506004549250610d23565b8160066000828254610e0a91906114bb565b909155505085821015610e535760405162461bcd60e51b8152602060048201526011602482015270746f6f206d75636820736c69707061676560781b604482015260640161046e565b60007f00000000000000000000000000000000000000000000000000000000000000006001600160a01b031634614e2090604051600060405180830381858888f193505050503d8060008114610ec5576040519150601f19603f3d011682016040523d82523d6000602084013e610eca565b606091505b5050905080610f1b5760405162461bcd60e51b815260206004820152601a60248201527f6661696c656420746f2073656e6420746f207472656173757279000000000000604482015260640161046e565b610f4f6001600160a01b037f00000000000000000000000000000000000000000000000000000000000000001633856111e8565b6040805133815260208101859052348183015290517f442151da4f589f7e51fac5b4f285a5e8fc8e105067689027ef065e1e922e19359181900360600190a150505050505050565b6000610fa56012600a611756565b61094a8385611762565b600080670de0b6b3a7640000610fc58787610f97565b610fcf9190611797565b9050828111610fdf579050611092565b60008085875b89831161108a578685106110265761100981610d4a670de0b6b3a76400008a611762565b61101390846114bb565b925061101f87856114bb565b9350611037565b61103085856114bb565b935061108a565b61104981670766c4cf2e0f2000610f97565b905061105d82670766c4cf2e0f2000610f97565b9150670de0b6b3a764000061107682610ddc868e6114d3565b6110809190611797565b9450819650610fe5565b509193505050505b949350505050565b602083015151835160009190825b8281101561118d576110bb6002836117ab565b61ffff1660000361111c5785876020015182815181106110dd576110dd6117cc565b60200260200101516040516020016110ff929190918252602082015260400190565b60405160208183030381529060405280519060200120955061116e565b86602001518181518110611132576111326117cc565b602002602001015186604051602001611155929190918252602082015260400190565b6040516020818303038152906040528051906020012095505b6111796002836117e2565b91508061118581611803565b9150506110a8565b505050911492915050565b600080546001600160a01b038381166001600160a01b0319831681178455604051919092169283917f8be0079c531659141344cd1fd0a4f28419497f9722a3daafe3b4186f6b6457e09190a35050565b604080516001600160a01b038416602482015260448082018490528251808303909101815260649091019091526020810180516001600160e01b031663a9059cbb60e01b17905261123a90849061123f565b505050565b6000611294826040518060400160405280602081526020017f5361666545524332303a206c6f772d6c6576656c2063616c6c206661696c6564815250856001600160a01b03166113119092919063ffffffff16565b80519091501561123a57808060200190518101906112b2919061181c565b61123a5760405162461bcd60e51b815260206004820152602a60248201527f5361666545524332303a204552433230206f7065726174696f6e20646964206e6044820152691bdd081cdd58d8d9595960b21b606482015260840161046e565b60606110928484600085856001600160a01b0385163b6113735760405162461bcd60e51b815260206004820152601d60248201527f416464726573733a2063616c6c20746f206e6f6e2d636f6e7472616374000000604482015260640161046e565b600080866001600160a01b0316858760405161138f919061186e565b60006040518083038185875af1925050503d80600081146113cc576040519150601f19603f3d011682016040523d82523d6000602084013e6113d1565b606091505b5091509150610515828286606083156113eb575081610954565b8251156113fb5782518084602001fd5b8160405162461bcd60e51b815260040161046e919061188a565b60006020828403121561142757600080fd5b5035919050565b60006020828403121561144057600080fd5b81356001600160a01b038116811461095457600080fd5b6000806040838503121561146a57600080fd5b82359150602083013567ffffffffffffffff81111561148857600080fd5b83016040818603121561149a57600080fd5b809150509250929050565b634e487b7160e01b600052601160045260246000fd5b600082198211156114ce576114ce6114a5565b500190565b6000828210156114e5576114e56114a5565b500390565b634e487b7160e01b600052604160045260246000fd5b6040805190810167ffffffffffffffff81118282101715611523576115236114ea565b60405290565b604051601f8201601f1916810167ffffffffffffffff81118282101715611552576115526114ea565b604052919050565b60006040823603121561156c57600080fd5b611574611500565b823561ffff8116811461158657600080fd5b815260208381013567ffffffffffffffff808211156115a457600080fd5b9085019036601f8301126115b757600080fd5b8135818111156115c9576115c96114ea565b8060051b91506115da848301611529565b81815291830184019184810190368411156115f457600080fd5b938501935b83851015611612578435825293850193908501906115f9565b94860194909452509295945050505050565b6020808252818101527f4f776e61626c653a2063616c6c6572206973206e6f7420746865206f776e6572604082015260600190565b60006020828403121561166b57600080fd5b5051919050565b600181815b808511156116ad578160001904821115611693576116936114a5565b808516156116a057918102915b93841c9390800290611677565b509250929050565b6000826116c457506001610663565b816116d157506000610663565b81600181146116e757600281146116f15761170d565b6001915050610663565b60ff841115611702576117026114a5565b50506001821b610663565b5060208310610133831016604e8410600b8410161715611730575081810a610663565b61173a8383611672565b806000190482111561174e5761174e6114a5565b029392505050565b600061095483836116b5565b600081600019048311821515161561177c5761177c6114a5565b500290565b634e487b7160e01b600052601260045260246000fd5b6000826117a6576117a6611781565b500490565b600061ffff808416806117c0576117c0611781565b92169190910692915050565b634e487b7160e01b600052603260045260246000fd5b600061ffff808416806117f7576117f7611781565b92169190910492915050565b600060018201611815576118156114a5565b5060010190565b60006020828403121561182e57600080fd5b8151801515811461095457600080fd5b60005b83811015611859578181015183820152602001611841565b83811115611868576000848401525b50505050565b6000825161188081846020870161183e565b9190910192915050565b60208152600082518060208401526118a981604085016020870161183e565b601f01601f1916919091016040019291505056fea264697066735822122062c116a219f440f1a83bbdd0ffe762bbb5f27f2c9535b7c278a2a1c0b059bcb164736f6c634300080d0033","bytecodeSha1":"8dddda35544f318f69676d2020e518b1c317bfff","compiler":{"evm_version":"istanbul","optimizer":{"enabled":true,"runs":200},"version":"0.8.13+commit.abaa5c0e"},"contractName":"InitialDistribution","language":"Solidity","natspec":{"kind":"dev","methods":{"getAmountForDeposit(uint256)":{"notice":"Query the amount of tokens one would receive for an amount of ETH"},"getDefaultMinOutput(uint256)":{"returns":{"_0":"returns a default minimum amount of CNC token to be received for a given ETH amount this will compute an amount with a single tranch devation"}},"owner()":{"details":"Returns the address of the current owner."},"renounceOwnership()":{"details":"Leaves the contract without owner. It will not be possible to call `onlyOwner` functions anymore. Can only be called by the current owner. NOTE: Renouncing ownership will leave the contract without an owner, thereby removing any functionality that is only available to the owner."},"transferOwnership(address)":{"details":"Transfers ownership of the contract to a new account (`newOwner`). Can only be called by the current owner."}},"version":1},"opcodes":"PUSH1 0x80 PUSH1 0x40 MSTORE PUSH1 0x4 CALLDATASIZE LT PUSH2 0x140 JUMPI PUSH1 0x0 CALLDATALOAD PUSH1 0xE0 SHR DUP1 PUSH4 0x571B1F8A GT PUSH2 0xB6 JUMPI DUP1 PUSH4 0xB718E872 GT PUSH2 0x6F JUMPI DUP1 PUSH4 0xB718E872 EQ PUSH2 0x373 JUMPI DUP1 PUSH4 0xBE9A6555 EQ PUSH2 0x389 JUMPI DUP1 PUSH4 0xEFBE1C1C EQ PUSH2 0x39E JUMPI DUP1 PUSH4 0xF21F537D EQ PUSH2 0x3B3 JUMPI DUP1 PUSH4 0xF2FDE38B EQ PUSH2 0x3C9 JUMPI DUP1 PUSH4 0xFC0C546A EQ PUSH2 0x3E9 JUMPI PUSH1 0x0 DUP1 REVERT JUMPDEST DUP1 PUSH4 0x571B1F8A EQ PUSH2 0x2A8 JUMPI DUP1 PUSH4 0x61D027B3 EQ PUSH2 0x2BE JUMPI DUP1 PUSH4 0x715018A6 EQ PUSH2 0x30A JUMPI DUP1 PUSH4 0x8DA5CB5B EQ PUSH2 0x31F JUMPI DUP1 PUSH4 0xA2309FF8 EQ PUSH2 0x33D JUMPI DUP1 PUSH4 0xA7575E46 EQ PUSH2 0x353 JUMPI PUSH1 0x0 DUP1 REVERT JUMPDEST DUP1 PUSH4 0x2EB4A7AB GT PUSH2 0x108 JUMPI DUP1 PUSH4 0x2EB4A7AB EQ PUSH2 0x204 JUMPI DUP1 PUSH4 0x2FB63DD4 EQ PUSH2 0x238 JUMPI DUP1 PUSH4 0x3BA0B9A9 EQ PUSH2 0x254 JUMPI DUP1 PUSH4 0x3CFB71D0 EQ PUSH2 0x26A JUMPI DUP1 PUSH4 0x3D6A71E4 EQ PUSH2 0x27F JUMPI DUP1 PUSH4 0x45FC96BE EQ PUSH2 0x295 JUMPI PUSH1 0x0 DUP1 REVERT JUMPDEST DUP1 PUSH4 0x6D586BB EQ PUSH2 0x145 JUMPI DUP1 PUSH4 0x7BE2A9C EQ PUSH2 0x18C JUMPI DUP1 PUSH4 0x1F8ABAA4 EQ PUSH2 0x1A1 JUMPI DUP1 PUSH4 0x206A9AD3 EQ PUSH2 0x1CE JUMPI DUP1 PUSH4 0x220E259F EQ PUSH2 0x1EE JUMPI JUMPDEST PUSH1 0x0 DUP1 REVERT JUMPDEST CALLVALUE DUP1 ISZERO PUSH2 0x151 JUMPI PUSH1 0x0 DUP1 REVERT JUMPDEST POP PUSH2 0x179 PUSH32 0x0 DUP2 JUMP JUMPDEST PUSH1 0x40 MLOAD SWAP1 DUP2 MSTORE PUSH1 0x20 ADD JUMPDEST PUSH1 0x40 MLOAD DUP1 SWAP2 SUB SWAP1 RETURN JUMPDEST PUSH2 0x19F PUSH2 0x19A CALLDATASIZE PUSH1 0x4 PUSH2 0x1415 JUMP JUMPDEST PUSH2 0x41D JUMP JUMPDEST STOP JUMPDEST CALLVALUE DUP1 ISZERO PUSH2 0x1AD JUMPI PUSH1 0x0 DUP1 REVERT JUMPDEST POP PUSH2 0x179 PUSH2 0x1BC CALLDATASIZE PUSH1 0x4 PUSH2 0x142E JUMP JUMPDEST PUSH1 0x7 PUSH1 0x20 MSTORE PUSH1 0x0 SWAP1 DUP2 MSTORE PUSH1 0x40 SWAP1 KECCAK256 SLOAD DUP2 JUMP JUMPDEST CALLVALUE DUP1 ISZERO PUSH2 0x1DA JUMPI PUSH1 0x0 DUP1 REVERT JUMPDEST POP PUSH2 0x179 PUSH2 0x1E9 CALLDATASIZE PUSH1 0x4 PUSH2 0x1415 JUMP JUMPDEST PUSH2 0x483 JUMP JUMPDEST CALLVALUE DUP1 ISZERO PUSH2 0x1FA JUMPI PUSH1 0x0 DUP1 REVERT JUMPDEST POP PUSH2 0x179 PUSH1 0x4 SLOAD DUP2 JUMP JUMPDEST CALLVALUE DUP1 ISZERO PUSH2 0x210 JUMPI PUSH1 0x0 DUP1 REVERT JUMPDEST POP PUSH2 0x179 PUSH32 0x0 DUP2 JUMP JUMPDEST CALLVALUE DUP1 ISZERO PUSH2 0x244 JUMPI PUSH1 0x0 DUP1 REVERT JUMPDEST POP PUSH2 0x179 PUSH8 0xC249FDD327780000 DUP2 JUMP JUMPDEST CALLVALUE DUP1 ISZERO PUSH2 0x260 JUMPI PUSH1 0x0 DUP1 REVERT JUMPDEST POP PUSH2 0x179 PUSH1 0x3 SLOAD DUP2 JUMP JUMPDEST CALLVALUE DUP1 ISZERO PUSH2 0x276 JUMPI PUSH1 0x0 DUP1 REVERT JUMPDEST POP PUSH2 0x179 PUSH2 0x520 JUMP JUMPDEST CALLVALUE DUP1 ISZERO PUSH2 0x28B JUMPI PUSH1 0x0 DUP1 REVERT JUMPDEST POP PUSH2 0x179 PUSH1 0x2 SLOAD DUP2 JUMP JUMPDEST PUSH2 0x19F PUSH2 0x2A3 CALLDATASIZE PUSH1 0x4 PUSH2 0x1457 JUMP JUMPDEST PUSH2 0x544 JUMP JUMPDEST CALLVALUE DUP1 ISZERO PUSH2 0x2B4 JUMPI PUSH1 0x0 DUP1 REVERT JUMPDEST POP PUSH2 0x179 PUSH2 0x2A30 DUP2 JUMP JUMPDEST CALLVALUE DUP1 ISZERO PUSH2 0x2CA JUMPI PUSH1 0x0 DUP1 REVERT JUMPDEST POP PUSH2 0x2F2 PUSH32 0x0 DUP2 JUMP JUMPDEST PUSH1 0x40 MLOAD PUSH1 0x1 PUSH1 0x1 PUSH1 0xA0 SHL SUB SWAP1 SWAP2 AND DUP2 MSTORE PUSH1 0x20 ADD PUSH2 0x183 JUMP JUMPDEST CALLVALUE DUP1 ISZERO PUSH2 0x316 JUMPI PUSH1 0x0 DUP1 REVERT JUMPDEST POP PUSH2 0x19F PUSH2 0x614 JUMP JUMPDEST CALLVALUE DUP1 ISZERO PUSH2 0x32B JUMPI PUSH1 0x0 DUP1 REVERT JUMPDEST POP PUSH1 0x0 SLOAD PUSH1 0x1 PUSH1 0x1 PUSH1 0xA0 SHL SUB AND PUSH2 0x2F2 JUMP JUMPDEST CALLVALUE DUP1 ISZERO PUSH2 0x349 JUMPI PUSH1 0x0 DUP1 REVERT JUMPDEST POP PUSH2 0x179 PUSH1 0x6 SLOAD DUP2 JUMP JUMPDEST CALLVALUE DUP1 ISZERO PUSH2 0x35F JUMPI PUSH1 0x0 DUP1 REVERT JUMPDEST POP PUSH2 0x179 PUSH2 0x36E CALLDATASIZE PUSH1 0x4 PUSH2 0x1415 JUMP JUMPDEST PUSH2 0x64A JUMP JUMPDEST CALLVALUE DUP1 ISZERO PUSH2 0x37F JUMPI PUSH1 0x0 DUP1 REVERT JUMPDEST POP PUSH2 0x179 PUSH1 0x5 SLOAD DUP2 JUMP JUMPDEST CALLVALUE DUP1 ISZERO PUSH2 0x395 JUMPI PUSH1 0x0 DUP1 REVERT JUMPDEST POP PUSH2 0x19F PUSH2 0x669 JUMP JUMPDEST CALLVALUE DUP1 ISZERO PUSH2 0x3AA JUMPI PUSH1 0x0 DUP1 REVERT JUMPDEST POP PUSH2 0x19F PUSH2 0x712 JUMP JUMPDEST CALLVALUE DUP1 ISZERO PUSH2 0x3BF JUMPI PUSH1 0x0 DUP1 REVERT JUMPDEST POP PUSH2 0x179 PUSH1 0x1 SLOAD DUP2 JUMP JUMPDEST CALLVALUE DUP1 ISZERO PUSH2 0x3D5 JUMPI PUSH1 0x0 DUP1 REVERT JUMPDEST POP PUSH2 0x19F PUSH2 0x3E4 CALLDATASIZE PUSH1 0x4 PUSH2 0x142E JUMP JUMPDEST PUSH2 0x899 JUMP JUMPDEST CALLVALUE DUP1 ISZERO PUSH2 0x3F5 JUMPI PUSH1 0x0 DUP1 REVERT JUMPDEST POP PUSH2 0x2F2 PUSH32 0x0 DUP2 JUMP JUMPDEST TIMESTAMP PUSH2 0x2A30 PUSH1 0x1 SLOAD PUSH2 0x42E SWAP2 SWAP1 PUSH2 0x14BB JUMP JUMPDEST GT ISZERO PUSH2 0x477 JUMPI PUSH1 0x40 MLOAD PUSH3 0x461BCD PUSH1 0xE5 SHL DUP2 MSTORE PUSH1 0x20 PUSH1 0x4 DUP3 ADD MSTORE PUSH1 0x13 PUSH1 0x24 DUP3 ADD MSTORE PUSH19 0x77686974656C69737420697320616374697665 PUSH1 0x68 SHL PUSH1 0x44 DUP3 ADD MSTORE PUSH1 0x64 ADD JUMPDEST PUSH1 0x40 MLOAD DUP1 SWAP2 SUB SWAP1 REVERT JUMPDEST PUSH2 0x480 DUP2 PUSH2 0x95B JUMP JUMPDEST POP JUMP JUMPDEST PUSH1 0x0 DUP1 PUSH2 0x4A3 PUSH8 0x766C4CF2E0F2000 PUSH1 0x3 SLOAD PUSH2 0xF97 SWAP1 SWAP2 SWAP1 PUSH4 0xFFFFFFFF AND JUMP JUMPDEST PUSH1 0x4 SLOAD SWAP1 SWAP2 POP PUSH1 0x0 PUSH2 0x4BD DUP3 PUSH8 0x766C4CF2E0F2000 PUSH2 0xF97 JUMP JUMPDEST SWAP1 POP PUSH1 0x0 PUSH2 0x4D2 PUSH8 0xC249FDD327780000 PUSH2 0x64A JUMP JUMPDEST SWAP1 POP PUSH1 0x0 DUP2 PUSH1 0x6 SLOAD PUSH2 0x4E4 SWAP2 SWAP1 PUSH2 0x14BB JUMP JUMPDEST DUP4 DUP6 PUSH1 0x5 SLOAD PUSH2 0x4F3 SWAP2 SWAP1 PUSH2 0x14BB JUMP JUMPDEST PUSH2 0x4FD SWAP2 SWAP1 PUSH2 0x14BB JUMP JUMPDEST PUSH2 0x507 SWAP2 SWAP1 PUSH2 0x14D3 JUMP JUMPDEST SWAP1 POP PUSH2 0x515 DUP8 DUP7 DUP6 DUP5 PUSH2 0xFAF JUMP JUMPDEST SWAP8 SWAP7 POP POP POP POP POP POP POP JUMP JUMPDEST PUSH1 0x0 PUSH1 0x6 SLOAD PUSH1 0x4 SLOAD PUSH1 0x5 SLOAD PUSH2 0x535 SWAP2 SWAP1 PUSH2 0x14BB JUMP JUMPDEST PUSH2 0x53F SWAP2 SWAP1 PUSH2 0x14D3 JUMP JUMPDEST SWAP1 POP SWAP1 JUMP JUMPDEST TIMESTAMP PUSH2 0x2A30 PUSH1 0x1 SLOAD PUSH2 0x555 SWAP2 SWAP1 PUSH2 0x14BB JUMP JUMPDEST LT PUSH2 0x607 JUMPI PUSH1 0x40 MLOAD PUSH12 0xFFFFFFFFFFFFFFFFFFFFFFFF NOT CALLER PUSH1 0x60 SHL AND PUSH1 0x20 DUP3 ADD MSTORE PUSH1 0x0 SWAP1 PUSH1 0x34 ADD PUSH1 0x40 MLOAD PUSH1 0x20 DUP2 DUP4 SUB SUB DUP2 MSTORE SWAP1 PUSH1 0x40 MSTORE DUP1 MLOAD SWAP1 PUSH1 0x20 ADD KECCAK256 SWAP1 POP PUSH2 0x5C9 DUP2 PUSH32 0x0 DUP5 PUSH2 0x5C2 SWAP1 PUSH2 0x155A JUMP JUMPDEST SWAP2 SWAP1 PUSH2 0x109A JUMP JUMPDEST PUSH2 0x605 JUMPI PUSH1 0x40 MLOAD PUSH3 0x461BCD PUSH1 0xE5 SHL DUP2 MSTORE PUSH1 0x20 PUSH1 0x4 DUP3 ADD MSTORE PUSH1 0xD PUSH1 0x24 DUP3 ADD MSTORE PUSH13 0x34B73B30B634B210383937B7B3 PUSH1 0x99 SHL PUSH1 0x44 DUP3 ADD MSTORE PUSH1 0x64 ADD PUSH2 0x46E JUMP JUMPDEST POP JUMPDEST PUSH2 0x610 DUP3 PUSH2 0x95B JUMP JUMPDEST POP POP JUMP JUMPDEST PUSH1 0x0 SLOAD PUSH1 0x1 PUSH1 0x1 PUSH1 0xA0 SHL SUB AND CALLER EQ PUSH2 0x63E JUMPI PUSH1 0x40 MLOAD PUSH3 0x461BCD PUSH1 0xE5 SHL DUP2 MSTORE PUSH1 0x4 ADD PUSH2 0x46E SWAP1 PUSH2 0x1624 JUMP JUMPDEST PUSH2 0x648 PUSH1 0x0 PUSH2 0x1198 JUMP JUMPDEST JUMP JUMPDEST PUSH1 0x0 PUSH2 0x663 DUP3 PUSH1 0x3 SLOAD PUSH1 0x4 SLOAD PUSH2 0x65E PUSH2 0x520 JUMP JUMPDEST PUSH2 0xFAF JUMP JUMPDEST SWAP3 SWAP2 POP POP JUMP JUMPDEST PUSH1 0x0 SLOAD PUSH1 0x1 PUSH1 0x1 PUSH1 0xA0 SHL SUB AND CALLER EQ PUSH2 0x693 JUMPI PUSH1 0x40 MLOAD PUSH3 0x461BCD PUSH1 0xE5 SHL DUP2 MSTORE PUSH1 0x4 ADD PUSH2 0x46E SWAP1 PUSH2 0x1624 JUMP JUMPDEST PUSH1 0x1 SLOAD ISZERO PUSH2 0x6E3 JUMPI PUSH1 0x40 MLOAD PUSH3 0x461BCD PUSH1 0xE5 SHL DUP2 MSTORE PUSH1 0x20 PUSH1 0x4 DUP3 ADD MSTORE PUSH1 0x1C PUSH1 0x24 DUP3 ADD MSTORE PUSH32 0x646973747269627574696F6E20616C7265616479207374617274656400000000 PUSH1 0x44 DUP3 ADD MSTORE PUSH1 0x64 ADD PUSH2 0x46E JUMP JUMPDEST TIMESTAMP PUSH1 0x1 SSTORE PUSH1 0x40 MLOAD PUSH32 0xF67A9C9FF66E4A25FDBD2AFE53DB0CB98C86C5B771AB018C2ACB8FE41CB71D50 SWAP1 PUSH1 0x0 SWAP1 LOG1 JUMP JUMPDEST PUSH1 0x0 SLOAD PUSH1 0x1 PUSH1 0x1 PUSH1 0xA0 SHL SUB AND CALLER EQ PUSH2 0x73C JUMPI PUSH1 0x40 MLOAD PUSH3 0x461BCD PUSH1 0xE5 SHL DUP2 MSTORE PUSH1 0x4 ADD PUSH2 0x46E SWAP1 PUSH2 0x1624 JUMP JUMPDEST PUSH3 0x15180 PUSH1 0x1 SLOAD PUSH2 0x74D SWAP2 SWAP1 PUSH2 0x14BB JUMP JUMPDEST TIMESTAMP GT PUSH2 0x758 JUMPI PUSH1 0x0 DUP1 REVERT JUMPDEST PUSH1 0x2 SLOAD ISZERO PUSH2 0x7A8 JUMPI PUSH1 0x40 MLOAD PUSH3 0x461BCD PUSH1 0xE5 SHL DUP2 MSTORE PUSH1 0x20 PUSH1 0x4 DUP3 ADD MSTORE PUSH1 0x1A PUSH1 0x24 DUP3 ADD MSTORE PUSH32 0x646973747269627574696F6E20616C726561647920656E646564000000000000 PUSH1 0x44 DUP3 ADD MSTORE PUSH1 0x64 ADD PUSH2 0x46E JUMP JUMPDEST PUSH1 0x40 MLOAD PUSH4 0x70A08231 PUSH1 0xE0 SHL DUP2 MSTORE ADDRESS PUSH1 0x4 DUP3 ADD MSTORE PUSH32 0x0 SWAP1 PUSH2 0x869 SWAP1 PUSH32 0x0 SWAP1 PUSH1 0x1 PUSH1 0x1 PUSH1 0xA0 SHL SUB DUP5 AND SWAP1 PUSH4 0x70A08231 SWAP1 PUSH1 0x24 ADD PUSH1 0x20 PUSH1 0x40 MLOAD DUP1 DUP4 SUB DUP2 DUP7 GAS STATICCALL ISZERO DUP1 ISZERO PUSH2 0x834 JUMPI RETURNDATASIZE PUSH1 0x0 DUP1 RETURNDATACOPY RETURNDATASIZE PUSH1 0x0 REVERT JUMPDEST POP POP POP POP PUSH1 0x40 MLOAD RETURNDATASIZE PUSH1 0x1F NOT PUSH1 0x1F DUP3 ADD AND DUP3 ADD DUP1 PUSH1 0x40 MSTORE POP DUP2 ADD SWAP1 PUSH2 0x858 SWAP2 SWAP1 PUSH2 0x1659 JUMP JUMPDEST PUSH1 0x1 PUSH1 0x1 PUSH1 0xA0 SHL SUB DUP5 AND SWAP2 SWAP1 PUSH2 0x11E8 JUMP JUMPDEST TIMESTAMP PUSH1 0x2 SSTORE PUSH1 0x40 MLOAD PUSH32 0xD853973D65981A851C2CD5437067724FD08FF44792B1DF6237953B4CB4701E7D SWAP1 PUSH1 0x0 SWAP1 LOG1 POP JUMP JUMPDEST PUSH1 0x0 SLOAD PUSH1 0x1 PUSH1 0x1 PUSH1 0xA0 SHL SUB AND CALLER EQ PUSH2 0x8C3 JUMPI PUSH1 0x40 MLOAD PUSH3 0x461BCD PUSH1 0xE5 SHL DUP2 MSTORE PUSH1 0x4 ADD PUSH2 0x46E SWAP1 PUSH2 0x1624 JUMP JUMPDEST PUSH1 0x1 PUSH1 0x1 PUSH1 0xA0 SHL SUB DUP2 AND PUSH2 0x928 JUMPI PUSH1 0x40 MLOAD PUSH3 0x461BCD PUSH1 0xE5 SHL DUP2 MSTORE PUSH1 0x20 PUSH1 0x4 DUP3 ADD MSTORE PUSH1 0x26 PUSH1 0x24 DUP3 ADD MSTORE PUSH32 0x4F776E61626C653A206E6577206F776E657220697320746865207A65726F2061 PUSH1 0x44 DUP3 ADD MSTORE PUSH6 0x646472657373 PUSH1 0xD0 SHL PUSH1 0x64 DUP3 ADD MSTORE PUSH1 0x84 ADD PUSH2 0x46E JUMP JUMPDEST PUSH2 0x480 DUP2 PUSH2 0x1198 JUMP JUMPDEST PUSH1 0x0 DUP2 PUSH2 0x940 PUSH1 0x12 PUSH1 0xA PUSH2 0x1756 JUMP JUMPDEST PUSH2 0x94A SWAP1 DUP6 PUSH2 0x1762 JUMP JUMPDEST PUSH2 0x954 SWAP2 SWAP1 PUSH2 0x1797 JUMP JUMPDEST SWAP4 SWAP3 POP POP POP JUMP JUMPDEST PUSH1 0x0 CALLVALUE GT PUSH2 0x99C JUMPI PUSH1 0x40 MLOAD PUSH3 0x461BCD PUSH1 0xE5 SHL DUP2 MSTORE PUSH1 0x20 PUSH1 0x4 DUP3 ADD MSTORE PUSH1 0xE PUSH1 0x24 DUP3 ADD MSTORE PUSH14 0x6E6F7468696E6720746F20617065 PUSH1 0x90 SHL PUSH1 0x44 DUP3 ADD MSTORE PUSH1 0x64 ADD PUSH2 0x46E JUMP JUMPDEST PUSH1 0x2 SLOAD ISZERO PUSH2 0x9E5 JUMPI PUSH1 0x40 MLOAD PUSH3 0x461BCD PUSH1 0xE5 SHL DUP2 MSTORE PUSH1 0x20 PUSH1 0x4 DUP3 ADD MSTORE PUSH1 0x16 PUSH1 0x24 DUP3 ADD MSTORE PUSH22 0x191A5CDD1C9A589D5D1A5BDB881A185CC8195B991959 PUSH1 0x52 SHL PUSH1 0x44 DUP3 ADD MSTORE PUSH1 0x64 ADD PUSH2 0x46E JUMP JUMPDEST PUSH1 0x1 SLOAD PUSH1 0x0 SUB PUSH2 0xA37 JUMPI PUSH1 0x40 MLOAD PUSH3 0x461BCD PUSH1 0xE5 SHL DUP2 MSTORE PUSH1 0x20 PUSH1 0x4 DUP3 ADD DUP2 SWAP1 MSTORE PUSH1 0x24 DUP3 ADD MSTORE PUSH32 0x646973747269627574696F6E20686173206E6F74207965742073746172746564 PUSH1 0x44 DUP3 ADD MSTORE PUSH1 0x64 ADD PUSH2 0x46E JUMP JUMPDEST PUSH8 0xDE0B6B3A7640000 PUSH1 0x3 SLOAD GT PUSH2 0xAA4 JUMPI PUSH1 0x40 MLOAD PUSH3 0x461BCD PUSH1 0xE5 SHL DUP2 MSTORE PUSH1 0x20 PUSH1 0x4 DUP3 ADD MSTORE PUSH1 0x2B PUSH1 0x24 DUP3 ADD MSTORE PUSH32 0x646973747269627574696F6E20686173206578636565646564206D6178206578 PUSH1 0x44 DUP3 ADD MSTORE PUSH11 0x6368616E67652072617465 PUSH1 0xA8 SHL PUSH1 0x64 DUP3 ADD MSTORE PUSH1 0x84 ADD PUSH2 0x46E JUMP JUMPDEST CALLER PUSH1 0x0 SWAP1 DUP2 MSTORE PUSH1 0x7 PUSH1 0x20 MSTORE PUSH1 0x40 SWAP1 KECCAK256 SLOAD PUSH32 0x0 PUSH2 0xADF CALLVALUE DUP4 PUSH2 0x14BB JUMP JUMPDEST GT ISZERO PUSH2 0xB2D JUMPI PUSH1 0x40 MLOAD PUSH3 0x461BCD PUSH1 0xE5 SHL DUP2 MSTORE PUSH1 0x20 PUSH1 0x4 DUP3 ADD MSTORE PUSH1 0x1A PUSH1 0x24 DUP3 ADD MSTORE PUSH32 0x63616E6E6F7420617065206D6F7265207468616E203120455448000000000000 PUSH1 0x44 DUP3 ADD MSTORE PUSH1 0x64 ADD PUSH2 0x46E JUMP JUMPDEST PUSH2 0xB37 CALLVALUE DUP3 PUSH2 0x14BB JUMP JUMPDEST CALLER PUSH1 0x0 SWAP1 DUP2 MSTORE PUSH1 0x7 PUSH1 0x20 MSTORE PUSH1 0x40 DUP2 KECCAK256 SWAP2 SWAP1 SWAP2 SSTORE PUSH1 0x3 SLOAD PUSH8 0xDE0B6B3A7640000 SWAP1 PUSH2 0xB62 SWAP1 CALLVALUE SWAP1 PUSH2 0xF97 JUMP JUMPDEST PUSH2 0xB6C SWAP2 SWAP1 PUSH2 0x1797 JUMP JUMPDEST SWAP1 POP PUSH1 0x0 PUSH2 0xB78 PUSH2 0x520 JUMP JUMPDEST SWAP1 POP DUP1 DUP3 GT PUSH2 0xD1F JUMPI DUP4 DUP3 LT ISZERO PUSH2 0xBC5 JUMPI PUSH1 0x40 MLOAD PUSH3 0x461BCD PUSH1 0xE5 SHL DUP2 MSTORE PUSH1 0x20 PUSH1 0x4 DUP3 ADD MSTORE PUSH1 0x11 PUSH1 0x24 DUP3 ADD MSTORE PUSH17 0x746F6F206D75636820736C697070616765 PUSH1 0x78 SHL PUSH1 0x44 DUP3 ADD MSTORE PUSH1 0x64 ADD PUSH2 0x46E JUMP JUMPDEST DUP2 PUSH1 0x6 PUSH1 0x0 DUP3 DUP3 SLOAD PUSH2 0xBD7 SWAP2 SWAP1 PUSH2 0x14BB JUMP JUMPDEST SWAP1 SWAP2 SSTORE POP PUSH2 0xC11 SWAP1 POP PUSH1 0x1 PUSH1 0x1 PUSH1 0xA0 SHL SUB PUSH32 0x0 AND CALLER DUP5 PUSH2 0x11E8 JUMP JUMPDEST PUSH1 0x0 PUSH32 0x0 PUSH1 0x1 PUSH1 0x1 PUSH1 0xA0 SHL SUB AND CALLVALUE PUSH2 0x4E20 SWAP1 PUSH1 0x40 MLOAD PUSH1 0x0 PUSH1 0x40 MLOAD DUP1 DUP4 SUB DUP2 DUP6 DUP9 DUP9 CALL SWAP4 POP POP POP POP RETURNDATASIZE DUP1 PUSH1 0x0 DUP2 EQ PUSH2 0xC83 JUMPI PUSH1 0x40 MLOAD SWAP2 POP PUSH1 0x1F NOT PUSH1 0x3F RETURNDATASIZE ADD AND DUP3 ADD PUSH1 0x40 MSTORE RETURNDATASIZE DUP3 MSTORE RETURNDATASIZE PUSH1 0x0 PUSH1 0x20 DUP5 ADD RETURNDATACOPY PUSH2 0xC88 JUMP JUMPDEST PUSH1 0x60 SWAP2 POP JUMPDEST POP POP SWAP1 POP DUP1 PUSH2 0xCD9 JUMPI PUSH1 0x40 MLOAD PUSH3 0x461BCD PUSH1 0xE5 SHL DUP2 MSTORE PUSH1 0x20 PUSH1 0x4 DUP3 ADD MSTORE PUSH1 0x1A PUSH1 0x24 DUP3 ADD MSTORE PUSH32 0x6661696C656420746F2073656E6420746F207472656173757279000000000000 PUSH1 0x44 DUP3 ADD MSTORE PUSH1 0x64 ADD PUSH2 0x46E JUMP JUMPDEST PUSH1 0x40 DUP1 MLOAD CALLER DUP2 MSTORE PUSH1 0x20 DUP2 ADD DUP6 SWAP1 MSTORE CALLVALUE DUP2 DUP4 ADD MSTORE SWAP1 MLOAD PUSH32 0x442151DA4F589F7E51FAC5B4F285A5E8FC8E105067689027EF065E1E922E1935 SWAP2 DUP2 SWAP1 SUB PUSH1 0x60 ADD SWAP1 LOG1 POP POP POP POP POP JUMP JUMPDEST PUSH1 0x0 DUP1 JUMPDEST CALLVALUE DUP2 GT PUSH2 0xDF8 JUMPI DUP3 DUP5 LT PUSH2 0xD6D JUMPI PUSH1 0x3 SLOAD PUSH2 0xD50 SWAP1 PUSH2 0xD4A PUSH8 0xDE0B6B3A7640000 DUP7 PUSH2 0x1762 JUMP JUMPDEST SWAP1 PUSH2 0x931 JUMP JUMPDEST PUSH2 0xD5A SWAP1 DUP3 PUSH2 0x14BB JUMP JUMPDEST SWAP1 POP PUSH2 0xD66 DUP4 DUP4 PUSH2 0x14BB JUMP JUMPDEST SWAP2 POP PUSH2 0xD7E JUMP JUMPDEST PUSH2 0xD77 DUP5 DUP4 PUSH2 0x14BB JUMP JUMPDEST SWAP2 POP PUSH2 0xDF8 JUMP JUMPDEST PUSH1 0x4 SLOAD PUSH1 0x5 SLOAD PUSH2 0xD8E SWAP2 SWAP1 PUSH2 0x14BB JUMP JUMPDEST PUSH1 0x5 SSTORE PUSH1 0x3 SLOAD PUSH2 0xDA6 SWAP1 PUSH8 0x766C4CF2E0F2000 PUSH2 0xF97 JUMP JUMPDEST PUSH1 0x3 SSTORE PUSH1 0x4 SLOAD PUSH2 0xDBE SWAP1 PUSH8 0x766C4CF2E0F2000 PUSH2 0xF97 JUMP JUMPDEST PUSH1 0x4 SSTORE PUSH1 0x3 SLOAD PUSH8 0xDE0B6B3A7640000 SWAP1 PUSH2 0xDE2 SWAP1 PUSH2 0xDDC DUP5 CALLVALUE PUSH2 0x14D3 JUMP JUMPDEST SWAP1 PUSH2 0xF97 JUMP JUMPDEST PUSH2 0xDEC SWAP2 SWAP1 PUSH2 0x1797 JUMP JUMPDEST SWAP4 POP PUSH1 0x4 SLOAD SWAP3 POP PUSH2 0xD23 JUMP JUMPDEST DUP2 PUSH1 0x6 PUSH1 0x0 DUP3 DUP3 SLOAD PUSH2 0xE0A SWAP2 SWAP1 PUSH2 0x14BB JUMP JUMPDEST SWAP1 SWAP2 SSTORE POP POP DUP6 DUP3 LT ISZERO PUSH2 0xE53 JUMPI PUSH1 0x40 MLOAD PUSH3 0x461BCD PUSH1 0xE5 SHL DUP2 MSTORE PUSH1 0x20 PUSH1 0x4 DUP3 ADD MSTORE PUSH1 0x11 PUSH1 0x24 DUP3 ADD MSTORE PUSH17 0x746F6F206D75636820736C697070616765 PUSH1 0x78 SHL PUSH1 0x44 DUP3 ADD MSTORE PUSH1 0x64 ADD PUSH2 0x46E JUMP JUMPDEST PUSH1 0x0 PUSH32 0x0 PUSH1 0x1 PUSH1 0x1 PUSH1 0xA0 SHL SUB AND CALLVALUE PUSH2 0x4E20 SWAP1 PUSH1 0x40 MLOAD PUSH1 0x0 PUSH1 0x40 MLOAD DUP1 DUP4 SUB DUP2 DUP6 DUP9 DUP9 CALL SWAP4 POP POP POP POP RETURNDATASIZE DUP1 PUSH1 0x0 DUP2 EQ PUSH2 0xEC5 JUMPI PUSH1 0x40 MLOAD SWAP2 POP PUSH1 0x1F NOT PUSH1 0x3F RETURNDATASIZE ADD AND DUP3 ADD PUSH1 0x40 MSTORE RETURNDATASIZE DUP3 MSTORE RETURNDATASIZE PUSH1 0x0 PUSH1 0x20 DUP5 ADD RETURNDATACOPY PUSH2 0xECA JUMP JUMPDEST PUSH1 0x60 SWAP2 POP JUMPDEST POP POP SWAP1 POP DUP1 PUSH2 0xF1B JUMPI PUSH1 0x40 MLOAD PUSH3 0x461BCD PUSH1 0xE5 SHL DUP2 MSTORE PUSH1 0x20 PUSH1 0x4 DUP3 ADD MSTORE PUSH1 0x1A PUSH1 0x24 DUP3 ADD MSTORE PUSH32 0x6661696C656420746F2073656E6420746F207472656173757279000000000000 PUSH1 0x44 DUP3 ADD MSTORE PUSH1 0x64 ADD PUSH2 0x46E JUMP JUMPDEST PUSH2 0xF4F PUSH1 0x1 PUSH1 0x1 PUSH1 0xA0 SHL SUB PUSH32 0x0 AND CALLER DUP6 PUSH2 0x11E8 JUMP JUMPDEST PUSH1 0x40 DUP1 MLOAD CALLER DUP2 MSTORE PUSH1 0x20 DUP2 ADD DUP6 SWAP1 MSTORE CALLVALUE DUP2 DUP4 ADD MSTORE SWAP1 MLOAD PUSH32 0x442151DA4F589F7E51FAC5B4F285A5E8FC8E105067689027EF065E1E922E1935 SWAP2 DUP2 SWAP1 SUB PUSH1 0x60 ADD SWAP1 LOG1 POP POP POP POP POP POP POP JUMP JUMPDEST PUSH1 0x0 PUSH2 0xFA5 PUSH1 0x12 PUSH1 0xA PUSH2 0x1756 JUMP JUMPDEST PUSH2 0x94A DUP4 DUP6 PUSH2 0x1762 JUMP JUMPDEST PUSH1 0x0 DUP1 PUSH8 0xDE0B6B3A7640000 PUSH2 0xFC5 DUP8 DUP8 PUSH2 0xF97 JUMP JUMPDEST PUSH2 0xFCF SWAP2 SWAP1 PUSH2 0x1797 JUMP JUMPDEST SWAP1 POP DUP3 DUP2 GT PUSH2 0xFDF JUMPI SWAP1 POP PUSH2 0x1092 JUMP JUMPDEST PUSH1 0x0 DUP1 DUP6 DUP8 JUMPDEST DUP10 DUP4 GT PUSH2 0x108A JUMPI DUP7 DUP6 LT PUSH2 0x1026 JUMPI PUSH2 0x1009 DUP2 PUSH2 0xD4A PUSH8 0xDE0B6B3A7640000 DUP11 PUSH2 0x1762 JUMP JUMPDEST PUSH2 0x1013 SWAP1 DUP5 PUSH2 0x14BB JUMP JUMPDEST SWAP3 POP PUSH2 0x101F DUP8 DUP6 PUSH2 0x14BB JUMP JUMPDEST SWAP4 POP PUSH2 0x1037 JUMP JUMPDEST PUSH2 0x1030 DUP6 DUP6 PUSH2 0x14BB JUMP JUMPDEST SWAP4 POP PUSH2 0x108A JUMP JUMPDEST PUSH2 0x1049 DUP2 PUSH8 0x766C4CF2E0F2000 PUSH2 0xF97 JUMP JUMPDEST SWAP1 POP PUSH2 0x105D DUP3 PUSH8 0x766C4CF2E0F2000 PUSH2 0xF97 JUMP JUMPDEST SWAP2 POP PUSH8 0xDE0B6B3A7640000 PUSH2 0x1076 DUP3 PUSH2 0xDDC DUP7 DUP15 PUSH2 0x14D3 JUMP JUMPDEST PUSH2 0x1080 SWAP2 SWAP1 PUSH2 0x1797 JUMP JUMPDEST SWAP5 POP DUP2 SWAP7 POP PUSH2 0xFE5 JUMP JUMPDEST POP SWAP2 SWAP4 POP POP POP POP JUMPDEST SWAP5 SWAP4 POP POP POP POP JUMP JUMPDEST PUSH1 0x20 DUP4 ADD MLOAD MLOAD DUP4 MLOAD PUSH1 0x0 SWAP2 SWAP1 DUP3 JUMPDEST DUP3 DUP2 LT ISZERO PUSH2 0x118D JUMPI PUSH2 0x10BB PUSH1 0x2 DUP4 PUSH2 0x17AB JUMP JUMPDEST PUSH2 0xFFFF AND PUSH1 0x0 SUB PUSH2 0x111C JUMPI DUP6 DUP8 PUSH1 0x20 ADD MLOAD DUP3 DUP2 MLOAD DUP2 LT PUSH2 0x10DD JUMPI PUSH2 0x10DD PUSH2 0x17CC JUMP JUMPDEST PUSH1 0x20 MUL PUSH1 0x20 ADD ADD MLOAD PUSH1 0x40 MLOAD PUSH1 0x20 ADD PUSH2 0x10FF SWAP3 SWAP2 SWAP1 SWAP2 DUP3 MSTORE PUSH1 0x20 DUP3 ADD MSTORE PUSH1 0x40 ADD SWAP1 JUMP JUMPDEST PUSH1 0x40 MLOAD PUSH1 0x20 DUP2 DUP4 SUB SUB DUP2 MSTORE SWAP1 PUSH1 0x40 MSTORE DUP1 MLOAD SWAP1 PUSH1 0x20 ADD KECCAK256 SWAP6 POP PUSH2 0x116E JUMP JUMPDEST DUP7 PUSH1 0x20 ADD MLOAD DUP2 DUP2 MLOAD DUP2 LT PUSH2 0x1132 JUMPI PUSH2 0x1132 PUSH2 0x17CC JUMP JUMPDEST PUSH1 0x20 MUL PUSH1 0x20 ADD ADD MLOAD DUP7 PUSH1 0x40 MLOAD PUSH1 0x20 ADD PUSH2 0x1155 SWAP3 SWAP2 SWAP1 SWAP2 DUP3 MSTORE PUSH1 0x20 DUP3 ADD MSTORE PUSH1 0x40 ADD SWAP1 JUMP JUMPDEST PUSH1 0x40 MLOAD PUSH1 0x20 DUP2 DUP4 SUB SUB DUP2 MSTORE SWAP1 PUSH1 0x40 MSTORE DUP1 MLOAD SWAP1 PUSH1 0x20 ADD KECCAK256 SWAP6 POP JUMPDEST PUSH2 0x1179 PUSH1 0x2 DUP4 PUSH2 0x17E2 JUMP JUMPDEST SWAP2 POP DUP1 PUSH2 0x1185 DUP2 PUSH2 0x1803 JUMP JUMPDEST SWAP2 POP POP PUSH2 0x10A8 JUMP JUMPDEST POP POP POP SWAP2 EQ SWAP3 SWAP2 POP POP JUMP JUMPDEST PUSH1 0x0 DUP1 SLOAD PUSH1 0x1 PUSH1 0x1 PUSH1 0xA0 SHL SUB DUP4 DUP2 AND PUSH1 0x1 PUSH1 0x1 PUSH1 0xA0 SHL SUB NOT DUP4 AND DUP2 OR DUP5 SSTORE PUSH1 0x40 MLOAD SWAP2 SWAP1 SWAP3 AND SWAP3 DUP4 SWAP2 PUSH32 0x8BE0079C531659141344CD1FD0A4F28419497F9722A3DAAFE3B4186F6B6457E0 SWAP2 SWAP1 LOG3 POP POP JUMP JUMPDEST PUSH1 0x40 DUP1 MLOAD PUSH1 0x1 PUSH1 0x1 PUSH1 0xA0 SHL SUB DUP5 AND PUSH1 0x24 DUP3 ADD MSTORE PUSH1 0x44 DUP1 DUP3 ADD DUP5 SWAP1 MSTORE DUP3 MLOAD DUP1 DUP4 SUB SWAP1 SWAP2 ADD DUP2 MSTORE PUSH1 0x64 SWAP1 SWAP2 ADD SWAP1 SWAP2 MSTORE PUSH1 0x20 DUP2 ADD DUP1 MLOAD PUSH1 0x1 PUSH1 0x1 PUSH1 0xE0 SHL SUB AND PUSH4 0xA9059CBB PUSH1 0xE0 SHL OR SWAP1 MSTORE PUSH2 0x123A SWAP1 DUP5 SWAP1 PUSH2 0x123F JUMP JUMPDEST POP POP POP JUMP JUMPDEST PUSH1 0x0 PUSH2 0x1294 DUP3 PUSH1 0x40 MLOAD DUP1 PUSH1 0x40 ADD PUSH1 0x40 MSTORE DUP1 PUSH1 0x20 DUP2 MSTORE PUSH1 0x20 ADD PUSH32 0x5361666545524332303A206C6F772D6C6576656C2063616C6C206661696C6564 DUP2 MSTORE POP DUP6 PUSH1 0x1 PUSH1 0x1 PUSH1 0xA0 SHL SUB AND PUSH2 0x1311 SWAP1 SWAP3 SWAP2 SWAP1 PUSH4 0xFFFFFFFF AND JUMP JUMPDEST DUP1 MLOAD SWAP1 SWAP2 POP ISZERO PUSH2 0x123A JUMPI DUP1 DUP1 PUSH1 0x20 ADD SWAP1 MLOAD DUP2 ADD SWAP1 PUSH2 0x12B2 SWAP2 SWAP1 PUSH2 0x181C JUMP JUMPDEST PUSH2 0x123A JUMPI PUSH1 0x40 MLOAD PUSH3 0x461BCD PUSH1 0xE5 SHL DUP2 MSTORE PUSH1 0x20 PUSH1 0x4 DUP3 ADD MSTORE PUSH1 0x2A PUSH1 0x24 DUP3 ADD MSTORE PUSH32 0x5361666545524332303A204552433230206F7065726174696F6E20646964206E PUSH1 0x44 DUP3 ADD MSTORE PUSH10 0x1BDD081CDD58D8D95959 PUSH1 0xB2 SHL PUSH1 0x64 DUP3 ADD MSTORE PUSH1 0x84 ADD PUSH2 0x46E JUMP JUMPDEST PUSH1 0x60 PUSH2 0x1092 DUP5 DUP5 PUSH1 0x0 DUP6 DUP6 PUSH1 0x1 PUSH1 0x1 PUSH1 0xA0 SHL SUB DUP6 AND EXTCODESIZE PUSH2 0x1373 JUMPI PUSH1 0x40 MLOAD PUSH3 0x461BCD PUSH1 0xE5 SHL DUP2 MSTORE PUSH1 0x20 PUSH1 0x4 DUP3 ADD MSTORE PUSH1 0x1D PUSH1 0x24 DUP3 ADD MSTORE PUSH32 0x416464726573733A2063616C6C20746F206E6F6E2D636F6E7472616374000000 PUSH1 0x44 DUP3 ADD MSTORE PUSH1 0x64 ADD PUSH2 0x46E JUMP JUMPDEST PUSH1 0x0 DUP1 DUP7 PUSH1 0x1 PUSH1 0x1 PUSH1 0xA0 SHL SUB AND DUP6 DUP8 PUSH1 0x40 MLOAD PUSH2 0x138F SWAP2 SWAP1 PUSH2 0x186E JUMP JUMPDEST PUSH1 0x0 PUSH1 0x40 MLOAD DUP1 DUP4 SUB DUP2 DUP6 DUP8 GAS CALL SWAP3 POP POP POP RETURNDATASIZE DUP1 PUSH1 0x0 DUP2 EQ PUSH2 0x13CC JUMPI PUSH1 0x40 MLOAD SWAP2 POP PUSH1 0x1F NOT PUSH1 0x3F RETURNDATASIZE ADD AND DUP3 ADD PUSH1 0x40 MSTORE RETURNDATASIZE DUP3 MSTORE RETURNDATASIZE PUSH1 0x0 PUSH1 0x20 DUP5 ADD RETURNDATACOPY PUSH2 0x13D1 JUMP JUMPDEST PUSH1 0x60 SWAP2 POP JUMPDEST POP SWAP2 POP SWAP2 POP PUSH2 0x515 DUP3 DUP3 DUP7 PUSH1 0x60 DUP4 ISZERO PUSH2 0x13EB JUMPI POP DUP2 PUSH2 0x954 JUMP JUMPDEST DUP3 MLOAD ISZERO PUSH2 0x13FB JUMPI DUP3 MLOAD DUP1 DUP5 PUSH1 0x20 ADD REVERT JUMPDEST DUP2 PUSH1 0x40 MLOAD PUSH3 0x461BCD PUSH1 0xE5 SHL DUP2 MSTORE PUSH1 0x4 ADD PUSH2 0x46E SWAP2 SWAP1 PUSH2 0x188A JUMP JUMPDEST PUSH1 0x0 PUSH1 0x20 DUP3 DUP5 SUB SLT ISZERO PUSH2 0x1427 JUMPI PUSH1 0x0 DUP1 REVERT JUMPDEST POP CALLDATALOAD SWAP2 SWAP1 POP JUMP JUMPDEST PUSH1 0x0 PUSH1 0x20 DUP3 DUP5 SUB SLT ISZERO PUSH2 0x1440 JUMPI PUSH1 0x0 DUP1 REVERT JUMPDEST DUP2 CALLDATALOAD PUSH1 0x1 PUSH1 0x1 PUSH1 0xA0 SHL SUB DUP2 AND DUP2 EQ PUSH2 0x954 JUMPI PUSH1 0x0 DUP1 REVERT JUMPDEST PUSH1 0x0 DUP1 PUSH1 0x40 DUP4 DUP6 SUB SLT ISZERO PUSH2 0x146A JUMPI PUSH1 0x0 DUP1 REVERT JUMPDEST DUP3 CALLDATALOAD SWAP2 POP PUSH1 0x20 DUP4 ADD CALLDATALOAD PUSH8 0xFFFFFFFFFFFFFFFF DUP2 GT ISZERO PUSH2 0x1488 JUMPI PUSH1 0x0 DUP1 REVERT JUMPDEST DUP4 ADD PUSH1 0x40 DUP2 DUP7 SUB SLT ISZERO PUSH2 0x149A JUMPI PUSH1 0x0 DUP1 REVERT JUMPDEST DUP1 SWAP2 POP POP SWAP3 POP SWAP3 SWAP1 POP JUMP JUMPDEST PUSH4 0x4E487B71 PUSH1 0xE0 SHL PUSH1 0x0 MSTORE PUSH1 0x11 PUSH1 0x4 MSTORE PUSH1 0x24 PUSH1 0x0 REVERT JUMPDEST PUSH1 0x0 DUP3 NOT DUP3 GT ISZERO PUSH2 0x14CE JUMPI PUSH2 0x14CE PUSH2 0x14A5 JUMP JUMPDEST POP ADD SWAP1 JUMP JUMPDEST PUSH1 0x0 DUP3 DUP3 LT ISZERO PUSH2 0x14E5 JUMPI PUSH2 0x14E5 PUSH2 0x14A5 JUMP JUMPDEST POP SUB SWAP1 JUMP JUMPDEST PUSH4 0x4E487B71 PUSH1 0xE0 SHL PUSH1 0x0 MSTORE PUSH1 0x41 PUSH1 0x4 MSTORE PUSH1 0x24 PUSH1 0x0 REVERT JUMPDEST PUSH1 0x40 DUP1 MLOAD SWAP1 DUP2 ADD PUSH8 0xFFFFFFFFFFFFFFFF DUP2 GT DUP3 DUP3 LT OR ISZERO PUSH2 0x1523 JUMPI PUSH2 0x1523 PUSH2 0x14EA JUMP JUMPDEST PUSH1 0x40 MSTORE SWAP1 JUMP JUMPDEST PUSH1 0x40 MLOAD PUSH1 0x1F DUP3 ADD PUSH1 0x1F NOT AND DUP2 ADD PUSH8 0xFFFFFFFFFFFFFFFF DUP2 GT DUP3 DUP3 LT OR ISZERO PUSH2 0x1552 JUMPI PUSH2 0x1552 PUSH2 0x14EA JUMP JUMPDEST PUSH1 0x40 MSTORE SWAP2 SWAP1 POP JUMP JUMPDEST PUSH1 0x0 PUSH1 0x40 DUP3 CALLDATASIZE SUB SLT ISZERO PUSH2 0x156C JUMPI PUSH1 0x0 DUP1 REVERT JUMPDEST PUSH2 0x1574 PUSH2 0x1500 JUMP JUMPDEST DUP3 CALLDATALOAD PUSH2 0xFFFF DUP2 AND DUP2 EQ PUSH2 0x1586 JUMPI PUSH1 0x0 DUP1 REVERT JUMPDEST DUP2 MSTORE PUSH1 0x20 DUP4 DUP2 ADD CALLDATALOAD PUSH8 0xFFFFFFFFFFFFFFFF DUP1 DUP3 GT ISZERO PUSH2 0x15A4 JUMPI PUSH1 0x0 DUP1 REVERT JUMPDEST SWAP1 DUP6 ADD SWAP1 CALLDATASIZE PUSH1 0x1F DUP4 ADD SLT PUSH2 0x15B7 JUMPI PUSH1 0x0 DUP1 REVERT JUMPDEST DUP2 CALLDATALOAD DUP2 DUP2 GT ISZERO PUSH2 0x15C9 JUMPI PUSH2 0x15C9 PUSH2 0x14EA JUMP JUMPDEST DUP1 PUSH1 0x5 SHL SWAP2 POP PUSH2 0x15DA DUP5 DUP4 ADD PUSH2 0x1529 JUMP JUMPDEST DUP2 DUP2 MSTORE SWAP2 DUP4 ADD DUP5 ADD SWAP2 DUP5 DUP2 ADD SWAP1 CALLDATASIZE DUP5 GT ISZERO PUSH2 0x15F4 JUMPI PUSH1 0x0 DUP1 REVERT JUMPDEST SWAP4 DUP6 ADD SWAP4 JUMPDEST DUP4 DUP6 LT ISZERO PUSH2 0x1612 JUMPI DUP5 CALLDATALOAD DUP3 MSTORE SWAP4 DUP6 ADD SWAP4 SWAP1 DUP6 ADD SWAP1 PUSH2 0x15F9 JUMP JUMPDEST SWAP5 DUP7 ADD SWAP5 SWAP1 SWAP5 MSTORE POP SWAP3 SWAP6 SWAP5 POP POP POP POP POP JUMP JUMPDEST PUSH1 0x20 DUP1 DUP3 MSTORE DUP2 DUP2 ADD MSTORE PUSH32 0x4F776E61626C653A2063616C6C6572206973206E6F7420746865206F776E6572 PUSH1 0x40 DUP3 ADD MSTORE PUSH1 0x60 ADD SWAP1 JUMP JUMPDEST PUSH1 0x0 PUSH1 0x20 DUP3 DUP5 SUB SLT ISZERO PUSH2 0x166B JUMPI PUSH1 0x0 DUP1 REVERT JUMPDEST POP MLOAD SWAP2 SWAP1 POP JUMP JUMPDEST PUSH1 0x1 DUP2 DUP2 JUMPDEST DUP1 DUP6 GT ISZERO PUSH2 0x16AD JUMPI DUP2 PUSH1 0x0 NOT DIV DUP3 GT ISZERO PUSH2 0x1693 JUMPI PUSH2 0x1693 PUSH2 0x14A5 JUMP JUMPDEST DUP1 DUP6 AND ISZERO PUSH2 0x16A0 JUMPI SWAP2 DUP2 MUL SWAP2 JUMPDEST SWAP4 DUP5 SHR SWAP4 SWAP1 DUP1 MUL SWAP1 PUSH2 0x1677 JUMP JUMPDEST POP SWAP3 POP SWAP3 SWAP1 POP JUMP JUMPDEST PUSH1 0x0 DUP3 PUSH2 0x16C4 JUMPI POP PUSH1 0x1 PUSH2 0x663 JUMP JUMPDEST DUP2 PUSH2 0x16D1 JUMPI POP PUSH1 0x0 PUSH2 0x663 JUMP JUMPDEST DUP2 PUSH1 0x1 DUP2 EQ PUSH2 0x16E7 JUMPI PUSH1 0x2 DUP2 EQ PUSH2 0x16F1 JUMPI PUSH2 0x170D JUMP JUMPDEST PUSH1 0x1 SWAP2 POP POP PUSH2 0x663 JUMP JUMPDEST PUSH1 0xFF DUP5 GT ISZERO PUSH2 0x1702 JUMPI PUSH2 0x1702 PUSH2 0x14A5 JUMP JUMPDEST POP POP PUSH1 0x1 DUP3 SHL PUSH2 0x663 JUMP JUMPDEST POP PUSH1 0x20 DUP4 LT PUSH2 0x133 DUP4 LT AND PUSH1 0x4E DUP5 LT PUSH1 0xB DUP5 LT AND OR ISZERO PUSH2 0x1730 JUMPI POP DUP2 DUP2 EXP PUSH2 0x663 JUMP JUMPDEST PUSH2 0x173A DUP4 DUP4 PUSH2 0x1672 JUMP JUMPDEST DUP1 PUSH1 0x0 NOT DIV DUP3 GT ISZERO PUSH2 0x174E JUMPI PUSH2 0x174E PUSH2 0x14A5 JUMP JUMPDEST MUL SWAP4 SWAP3 POP POP POP JUMP JUMPDEST PUSH1 0x0 PUSH2 0x954 DUP4 DUP4 PUSH2 0x16B5 JUMP JUMPDEST PUSH1 0x0 DUP2 PUSH1 0x0 NOT DIV DUP4 GT DUP3 ISZERO ISZERO AND ISZERO PUSH2 0x177C JUMPI PUSH2 0x177C PUSH2 0x14A5 JUMP JUMPDEST POP MUL SWAP1 JUMP JUMPDEST PUSH4 0x4E487B71 PUSH1 0xE0 SHL PUSH1 0x0 MSTORE PUSH1 0x12 PUSH1 0x4 MSTORE PUSH1 0x24 PUSH1 0x0 REVERT JUMPDEST PUSH1 0x0 DUP3 PUSH2 0x17A6 JUMPI PUSH2 0x17A6 PUSH2 0x1781 JUMP JUMPDEST POP DIV SWAP1 JUMP JUMPDEST PUSH1 0x0 PUSH2 0xFFFF DUP1 DUP5 AND DUP1 PUSH2 0x17C0 JUMPI PUSH2 0x17C0 PUSH2 0x1781 JUMP JUMPDEST SWAP3 AND SWAP2 SWAP1 SWAP2 MOD SWAP3 SWAP2 POP POP JUMP JUMPDEST PUSH4 0x4E487B71 PUSH1 0xE0 SHL PUSH1 0x0 MSTORE PUSH1 0x32 PUSH1 0x4 MSTORE PUSH1 0x24 PUSH1 0x0 REVERT JUMPDEST PUSH1 0x0 PUSH2 0xFFFF DUP1 DUP5 AND DUP1 PUSH2 0x17F7 JUMPI PUSH2 0x17F7 PUSH2 0x1781 JUMP JUMPDEST SWAP3 AND SWAP2 SWAP1 SWAP2 DIV SWAP3 SWAP2 POP POP JUMP JUMPDEST PUSH1 0x0 PUSH1 0x1 DUP3 ADD PUSH2 0x1815 JUMPI PUSH2 0x1815 PUSH2 0x14A5 JUMP JUMPDEST POP PUSH1 0x1 ADD SWAP1 JUMP JUMPDEST PUSH1 0x0 PUSH1 0x20 DUP3 DUP5 SUB SLT ISZERO PUSH2 0x182E JUMPI PUSH1 0x0 DUP1 REVERT JUMPDEST DUP2 MLOAD DUP1 ISZERO ISZERO DUP2 EQ PUSH2 0x954 JUMPI PUSH1 0x0 DUP1 REVERT JUMPDEST PUSH1 0x0 JUMPDEST DUP4 DUP2 LT ISZERO PUSH2 0x1859 JUMPI DUP2 DUP2 ADD MLOAD DUP4 DUP3 ADD MSTORE PUSH1 0x20 ADD PUSH2 0x1841 JUMP JUMPDEST DUP4 DUP2 GT ISZERO PUSH2 0x1868 JUMPI PUSH1 0x0 DUP5 DUP5 ADD MSTORE JUMPDEST POP POP POP POP JUMP JUMPDEST PUSH1 0x0 DUP3 MLOAD PUSH2 0x1880 DUP2 DUP5 PUSH1 0x20 DUP8 ADD PUSH2 0x183E JUMP JUMPDEST SWAP2 SWAP1 SWAP2 ADD SWAP3 SWAP2 POP POP JUMP JUMPDEST PUSH1 0x20 DUP2 MSTORE PUSH1 0x0 DUP3 MLOAD DUP1 PUSH1 0x20 DUP5 ADD MSTORE PUSH2 0x18A9 DUP2 PUSH1 0x40 DUP6 ADD PUSH1 0x20 DUP8 ADD PUSH2 0x183E JUMP JUMPDEST PUSH1 0x1F ADD PUSH1 0x1F NOT AND SWAP2 SWAP1 SWAP2 ADD PUSH1 0x40 ADD SWAP3 SWAP2 POP POP JUMP INVALID LOG2 PUSH5 0x6970667358 0x22 SLT KECCAK256 PUSH3 0xC116A2 NOT DELEGATECALL BLOCKHASH CALL 0xA8 EXTCODESIZE 0xBD 0xD0 SELFDESTRUCT 0xE7 PUSH3 0xBBB5F2 PUSH32 0x2C9535B7C278A2A1C0B059BCB164736F6C634300080D00330000000000000000 ","sha1":"a24676d231e7773c23983fb3c8662ba06e6c9803","source":"// SPDX-License-Identifier: GPL-3.0-or-later\npragma solidity ^0.8.13;\n\nimport \"../../interfaces/tokenomics/IInitialDistribution.sol\";\nimport \"../../interfaces/tokenomics/ICNCToken.sol\";\nimport \"@openzeppelin/contracts/access/Ownable.sol\";\nimport \"@openzeppelin/contracts/token/ERC20/utils/SafeERC20.sol\";\n\nimport \"../../libraries/ScaledMath.sol\";\nimport \"../../libraries/MerkleProof.sol\";\n\ncontract InitialDistribution is IInitialDistribution, Ownable {\n    using ScaledMath for uint256;\n    using SafeERC20 for IERC20;\n    using MerkleProof for MerkleProof.Proof;\n\n    uint256 internal constant TOTAL_AMOUNT = 0.3e18 * 10_000_000;\n    uint256 internal constant MIN_DURATION = 1 days;\n\n    uint256 public constant ETH_PER_TRANCHE = 14e18;\n    uint256 public constant WHITELIST_DURATION = 3 hours;\n    uint256 internal constant INFLATION_SCALE = 1e18;\n    uint256 internal constant REDUCTION_RATIO = 0.53333e18;\n    uint256 internal constant INITIAL_TRANCHE = 0.14e18 * 10_000_000;\n\n    address public immutable token;\n    address public immutable treasury;\n    uint256 public immutable maxPerUser;\n    bytes32 public immutable merkleRoot;\n    uint256 public startedAt;\n    uint256 public endedAt;\n\n    uint256 public exchangeRate;\n    uint256 public currentTrancheSize;\n    uint256 public lastReductionAmount;\n    uint256 public totalMinted;\n\n    mapping(address => uint256) public apedPerUser;\n\n    constructor(\n        address _token,\n        address _treasury,\n        uint256 _maxPerUser,\n        bytes32 _merkleRoot\n    ) {\n        token = _token;\n        treasury = _treasury;\n        exchangeRate = INITIAL_TRANCHE.divDown(ETH_PER_TRANCHE) * INFLATION_SCALE;\n        currentTrancheSize = INITIAL_TRANCHE;\n        maxPerUser = _maxPerUser;\n        merkleRoot = _merkleRoot;\n    }\n\n    /// @notice Query the amount of tokens one would receive for an amount of ETH\n    function getAmountForDeposit(uint256 depositAmount) public view returns (uint256) {\n        return\n            _getAmountForDeposit(\n                depositAmount,\n                exchangeRate,\n                currentTrancheSize,\n                getLeftInTranche()\n            );\n    }\n\n    /// @return returns a default minimum amount of CNC token to be received\n    /// for a given ETH amount\n    /// this will compute an amount with a single tranch devation\n    function getDefaultMinOutput(uint256 depositAmount) external view returns (uint256) {\n        uint256 initialExchangeRate = exchangeRate.mulDown(REDUCTION_RATIO);\n        uint256 _currentTrancheSize = currentTrancheSize;\n        uint256 trancheSize = _currentTrancheSize.mulDown(REDUCTION_RATIO);\n        uint256 extraMinted = getAmountForDeposit(ETH_PER_TRANCHE);\n        uint256 leftInTranche = (lastReductionAmount + _currentTrancheSize) +\n            trancheSize -\n            (totalMinted + extraMinted);\n        return _getAmountForDeposit(depositAmount, initialExchangeRate, trancheSize, leftInTranche);\n    }\n\n    function _getAmountForDeposit(\n        uint256 depositAmount,\n        uint256 initialExchangeRate,\n        uint256 initialTrancheSize,\n        uint256 leftInTranche\n    ) internal pure returns (uint256) {\n        uint256 amountAtRate = depositAmount.mulDown(initialExchangeRate) / INFLATION_SCALE;\n        if (amountAtRate <= leftInTranche) {\n            return amountAtRate;\n        }\n\n        uint256 receiveAmount;\n        uint256 amountSatisfied;\n        uint256 tempTrancheSize = initialTrancheSize;\n        uint256 tempExchangeRate = initialExchangeRate;\n\n        while (amountSatisfied <= depositAmount) {\n            if (amountAtRate >= leftInTranche) {\n                amountSatisfied += (leftInTranche * INFLATION_SCALE).divDown(tempExchangeRate);\n                receiveAmount += leftInTranche;\n            } else {\n                receiveAmount += amountAtRate;\n                break;\n            }\n            tempExchangeRate = tempExchangeRate.mulDown(REDUCTION_RATIO);\n            tempTrancheSize = tempTrancheSize.mulDown(REDUCTION_RATIO);\n            amountAtRate =\n                (depositAmount - amountSatisfied).mulDown(tempExchangeRate) /\n                INFLATION_SCALE;\n            leftInTranche = tempTrancheSize;\n        }\n        return receiveAmount;\n    }\n\n    function getLeftInTranche() public view override returns (uint256) {\n        return lastReductionAmount + currentTrancheSize - totalMinted;\n    }\n\n    function ape(uint256 minOutputAmount, MerkleProof.Proof calldata proof)\n        external\n        payable\n        override\n    {\n        if (startedAt + WHITELIST_DURATION >= block.timestamp) {\n            bytes32 node = keccak256(abi.encodePacked(msg.sender));\n            require(proof.isValid(node, merkleRoot), \"invalid proof\");\n        }\n        _ape(minOutputAmount);\n    }\n\n    // @notice Apes tokens for ETH. The amount is determined by the msg.value\n    function ape(uint256 minOutputAmount) external payable override {\n        require(startedAt + WHITELIST_DURATION <= block.timestamp, \"whitelist is active\");\n        _ape(minOutputAmount);\n    }\n\n    function _ape(uint256 minOutputAmount) internal {\n        require(msg.value > 0, \"nothing to ape\");\n        require(endedAt == 0, \"distribution has ended\");\n        require(startedAt != 0, \"distribution has not yet started\");\n        require(exchangeRate > 1e18, \"distribution has exceeded max exchange rate\");\n\n        uint256 aped = apedPerUser[msg.sender];\n        require(aped + msg.value <= maxPerUser, \"cannot ape more than 1 ETH\");\n        apedPerUser[msg.sender] = aped + msg.value;\n\n        uint256 amountAtRate = (msg.value).mulDown(exchangeRate) / INFLATION_SCALE;\n        uint256 leftInTranche = getLeftInTranche();\n        if (amountAtRate <= leftInTranche) {\n            require(amountAtRate >= minOutputAmount, \"too much slippage\");\n            totalMinted += amountAtRate;\n            IERC20(token).safeTransfer(msg.sender, amountAtRate);\n            (bool sent, ) = payable(treasury).call{value: msg.value, gas: 20000}(\"\");\n            require(sent, \"failed to send to treasury\");\n            emit TokenDistributed(msg.sender, amountAtRate, msg.value);\n            return;\n        }\n\n        uint256 receiveAmount;\n        uint256 amountSatisfied;\n\n        while (amountSatisfied <= msg.value) {\n            if (amountAtRate >= leftInTranche) {\n                amountSatisfied += (leftInTranche * INFLATION_SCALE).divDown(exchangeRate);\n                receiveAmount += leftInTranche;\n            } else {\n                receiveAmount += amountAtRate;\n                break;\n            }\n            lastReductionAmount = lastReductionAmount + currentTrancheSize;\n            exchangeRate = exchangeRate.mulDown(REDUCTION_RATIO);\n            currentTrancheSize = currentTrancheSize.mulDown(REDUCTION_RATIO);\n            amountAtRate = (msg.value - amountSatisfied).mulDown(exchangeRate) / INFLATION_SCALE;\n            leftInTranche = currentTrancheSize;\n        }\n        totalMinted += receiveAmount;\n\n        require(receiveAmount >= minOutputAmount, \"too much slippage\");\n        (bool sent, ) = payable(treasury).call{value: msg.value, gas: 20000}(\"\");\n        require(sent, \"failed to send to treasury\");\n        IERC20(token).safeTransfer(msg.sender, receiveAmount);\n        emit TokenDistributed(msg.sender, receiveAmount, msg.value);\n    }\n\n    function start() external override onlyOwner {\n        require(startedAt == 0, \"distribution already started\");\n        startedAt = block.timestamp;\n        emit DistributonStarted();\n    }\n\n    function end() external override onlyOwner {\n        require(block.timestamp > startedAt + MIN_DURATION);\n        require(endedAt == 0, \"distribution already ended\");\n        IERC20 _token = IERC20(token);\n        _token.safeTransfer(treasury, _token.balanceOf(address(this)));\n        endedAt = block.timestamp;\n        emit DistributonEnded();\n    }\n}\n","sourcePath":"contracts/tokenomics/InitialDistribution.sol","type":"contract","deployment":{"address":"0x2F0274e73d2f9DA54547c56F74548B5905360a73","chainid":"1","blockHeight":14533768}}