{"abi":[{"inputs":[{"internalType":"address","name":"_underlying","type":"address"},{"internalType":"contract IRewardManager","name":"_rewardManager","type":"address"},{"internalType":"address","name":"_controller","type":"address"},{"internalType":"string","name":"_lpTokenName","type":"string"},{"internalType":"string","name":"_symbol","type":"string"},{"internalType":"address","name":"_cvx","type":"address"},{"internalType":"address","name":"_crv","type":"address"}],"stateMutability":"nonpayable","type":"constructor","name":"constructor"},{"anonymous":false,"inputs":[{"indexed":false,"internalType":"uint256","name":"claimedCrv","type":"uint256"},{"indexed":false,"internalType":"uint256","name":"claimedCvx","type":"uint256"}],"name":"ClaimedRewards","type":"event"},{"anonymous":false,"inputs":[{"indexed":false,"internalType":"address","name":"curvePool_","type":"address"}],"name":"CurvePoolAdded","type":"event"},{"anonymous":false,"inputs":[{"indexed":false,"internalType":"address","name":"curvePool_","type":"address"}],"name":"CurvePoolRemoved","type":"event"},{"anonymous":false,"inputs":[{"indexed":false,"internalType":"uint256","name":"newThreshold","type":"uint256"}],"name":"DepegThresholdUpdated","type":"event"},{"anonymous":false,"inputs":[{"indexed":true,"internalType":"address","name":"sender","type":"address"},{"indexed":true,"internalType":"address","name":"receiver","type":"address"},{"indexed":false,"internalType":"uint256","name":"depositedAmount","type":"uint256"},{"indexed":false,"internalType":"uint256","name":"lpReceived","type":"uint256"}],"name":"Deposit","type":"event"},{"anonymous":false,"inputs":[{"indexed":false,"internalType":"uint256","name":"factor","type":"uint256"}],"name":"EmergencyRebalancingRewardFactorUpdated","type":"event"},{"anonymous":false,"inputs":[{"indexed":false,"internalType":"address","name":"curvePool_","type":"address"}],"name":"HandledDepeggedCurvePool","type":"event"},{"anonymous":false,"inputs":[{"indexed":false,"internalType":"address","name":"curvePool_","type":"address"},{"indexed":false,"internalType":"uint256","name":"pid_","type":"uint256"}],"name":"HandledInvalidConvexPid","type":"event"},{"anonymous":false,"inputs":[{"indexed":false,"internalType":"uint256","name":"newMaxDeviation","type":"uint256"}],"name":"MaxDeviationUpdated","type":"event"},{"anonymous":false,"inputs":[{"indexed":false,"internalType":"uint256","name":"newRatio","type":"uint256"}],"name":"NewMaxIdleCurveLpRatio","type":"event"},{"anonymous":false,"inputs":[{"indexed":true,"internalType":"address","name":"curvePool","type":"address"},{"indexed":false,"internalType":"uint256","name":"newWeight","type":"uint256"}],"name":"NewWeight","type":"event"},{"anonymous":false,"inputs":[{"indexed":true,"internalType":"address","name":"previousOwner","type":"address"},{"indexed":true,"internalType":"address","name":"newOwner","type":"address"}],"name":"OwnershipTransferred","type":"event"},{"anonymous":false,"inputs":[{"indexed":false,"internalType":"uint256","name":"pauseDuration","type":"uint256"}],"name":"PauseDurationSet","type":"event"},{"anonymous":false,"inputs":[{"indexed":false,"internalType":"uint256","name":"pausedUntil","type":"uint256"}],"name":"Paused","type":"event"},{"anonymous":false,"inputs":[{"indexed":false,"internalType":"bool","name":"enabled","type":"bool"}],"name":"RebalancingRewardsEnabledSet","type":"event"},{"anonymous":false,"inputs":[],"name":"Shutdown","type":"event"},{"anonymous":false,"inputs":[{"indexed":true,"internalType":"address","name":"account","type":"address"},{"indexed":false,"internalType":"uint256","name":"amount","type":"uint256"}],"name":"Withdraw","type":"event"},{"inputs":[{"internalType":"address","name":"_pool","type":"address"}],"name":"addPool","outputs":[],"stateMutability":"nonpayable","type":"function"},{"inputs":[],"name":"allPools","outputs":[{"internalType":"address[]","name":"","type":"address[]"}],"stateMutability":"view","type":"function"},{"inputs":[],"name":"cachedTotalUnderlying","outputs":[{"internalType":"uint256","name":"","type":"uint256"}],"stateMutability":"view","type":"function"},{"inputs":[],"name":"computeTotalDeviation","outputs":[{"internalType":"uint256","name":"","type":"uint256"}],"stateMutability":"view","type":"function"},{"inputs":[],"name":"controller","outputs":[{"internalType":"contract IController","name":"","type":"address"}],"stateMutability":"view","type":"function"},{"inputs":[],"name":"depegThreshold","outputs":[{"internalType":"uint256","name":"","type":"uint256"}],"stateMutability":"view","type":"function"},{"inputs":[{"internalType":"uint256","name":"underlyingAmount","type":"uint256"},{"internalType":"uint256","name":"minLpReceived","type":"uint256"},{"internalType":"bool","name":"stake","type":"bool"}],"name":"deposit","outputs":[{"internalType":"uint256","name":"","type":"uint256"}],"stateMutability":"nonpayable","type":"function"},{"inputs":[{"internalType":"uint256","name":"underlyingAmount","type":"uint256"},{"internalType":"uint256","name":"minLpReceived","type":"uint256"}],"name":"deposit","outputs":[{"internalType":"uint256","name":"","type":"uint256"}],"stateMutability":"nonpayable","type":"function"},{"inputs":[{"internalType":"address","name":"account","type":"address"},{"internalType":"uint256","name":"underlyingAmount","type":"uint256"},{"internalType":"uint256","name":"minLpReceived","type":"uint256"},{"internalType":"bool","name":"stake","type":"bool"}],"name":"depositFor","outputs":[{"internalType":"uint256","name":"","type":"uint256"}],"stateMutability":"nonpayable","type":"function"},{"inputs":[],"name":"emergencyRebalancingRewardsFactor","outputs":[{"internalType":"uint256","name":"","type":"uint256"}],"stateMutability":"view","type":"function"},{"inputs":[],"name":"exchangeRate","outputs":[{"internalType":"uint256","name":"","type":"uint256"}],"stateMutability":"view","type":"function"},{"inputs":[],"name":"getAllUnderlyingCoins","outputs":[{"internalType":"address[]","name":"","type":"address[]"}],"stateMutability":"view","type":"function"},{"inputs":[],"name":"getAllocatedUnderlying","outputs":[{"components":[{"internalType":"address","name":"poolAddress","type":"address"},{"internalType":"uint256","name":"amount","type":"uint256"}],"internalType":"struct IConicPool.PoolWithAmount[]","name":"","type":"tuple[]"}],"stateMutability":"view","type":"function"},{"inputs":[{"internalType":"uint256","name":"_index","type":"uint256"}],"name":"getPoolAtIndex","outputs":[{"internalType":"address","name":"","type":"address"}],"stateMutability":"view","type":"function"},{"inputs":[],"name":"getTotalAndPerPoolUnderlying","outputs":[{"internalType":"uint256","name":"totalUnderlying_","type":"uint256"},{"internalType":"uint256","name":"totalAllocated_","type":"uint256"},{"internalType":"uint256[]","name":"perPoolUnderlying_","type":"uint256[]"}],"stateMutability":"view","type":"function"},{"inputs":[{"internalType":"address","name":"curvePool","type":"address"}],"name":"getWeight","outputs":[{"internalType":"uint256","name":"","type":"uint256"}],"stateMutability":"view","type":"function"},{"inputs":[],"name":"getWeights","outputs":[{"components":[{"internalType":"address","name":"poolAddress","type":"address"},{"internalType":"uint256","name":"weight","type":"uint256"}],"internalType":"struct IConicPoolWeightManagement.PoolWeight[]","name":"","type":"tuple[]"}],"stateMutability":"view","type":"function"},{"inputs":[{"internalType":"address","name":"curvePool_","type":"address"}],"name":"handleDepeggedCurvePool","outputs":[],"stateMutability":"nonpayable","type":"function"},{"inputs":[{"internalType":"address","name":"curvePool_","type":"address"}],"name":"handleInvalidConvexPid","outputs":[{"internalType":"uint256","name":"","type":"uint256"}],"stateMutability":"nonpayable","type":"function"},{"inputs":[],"name":"isBalanced","outputs":[{"internalType":"bool","name":"","type":"bool"}],"stateMutability":"view","type":"function"},{"inputs":[],"name":"isPaused","outputs":[{"internalType":"bool","name":"","type":"bool"}],"stateMutability":"view","type":"function"},{"inputs":[{"internalType":"address","name":"_pool","type":"address"}],"name":"isRegisteredPool","outputs":[{"internalType":"bool","name":"","type":"bool"}],"stateMutability":"view","type":"function"},{"inputs":[],"name":"isShutdown","outputs":[{"internalType":"bool","name":"","type":"bool"}],"stateMutability":"view","type":"function"},{"inputs":[],"name":"lpToken","outputs":[{"internalType":"contract ILpToken","name":"","type":"address"}],"stateMutability":"view","type":"function"},{"inputs":[],"name":"maxDeviation","outputs":[{"internalType":"uint256","name":"","type":"uint256"}],"stateMutability":"view","type":"function"},{"inputs":[],"name":"maxIdleCurveLpRatio","outputs":[{"internalType":"uint256","name":"","type":"uint256"}],"stateMutability":"view","type":"function"},{"inputs":[],"name":"owner","outputs":[{"internalType":"address","name":"","type":"address"}],"stateMutability":"view","type":"function"},{"inputs":[],"name":"pause","outputs":[],"stateMutability":"nonpayable","type":"function"},{"inputs":[],"name":"pauseDuration","outputs":[{"internalType":"uint256","name":"","type":"uint256"}],"stateMutability":"view","type":"function"},{"inputs":[],"name":"pausedUntil","outputs":[{"internalType":"uint256","name":"","type":"uint256"}],"stateMutability":"view","type":"function"},{"inputs":[],"name":"poolsCount","outputs":[{"internalType":"uint256","name":"","type":"uint256"}],"stateMutability":"view","type":"function"},{"inputs":[],"name":"rebalancingRewardActive","outputs":[{"internalType":"bool","name":"","type":"bool"}],"stateMutability":"view","type":"function"},{"inputs":[],"name":"rebalancingRewardsActivatedAt","outputs":[{"internalType":"uint64","name":"","type":"uint64"}],"stateMutability":"view","type":"function"},{"inputs":[],"name":"rebalancingRewardsEnabled","outputs":[{"internalType":"bool","name":"","type":"bool"}],"stateMutability":"view","type":"function"},{"inputs":[],"name":"rebalancingRewardsFactor","outputs":[{"internalType":"uint256","name":"","type":"uint256"}],"stateMutability":"view","type":"function"},{"inputs":[{"internalType":"address","name":"_pool","type":"address"}],"name":"removePool","outputs":[],"stateMutability":"nonpayable","type":"function"},{"inputs":[],"name":"renounceOwnership","outputs":[],"stateMutability":"nonpayable","type":"function"},{"inputs":[],"name":"rewardManager","outputs":[{"internalType":"contract IRewardManager","name":"","type":"address"}],"stateMutability":"view","type":"function"},{"inputs":[],"name":"runSanityChecks","outputs":[],"stateMutability":"nonpayable","type":"function"},{"inputs":[{"internalType":"uint256","name":"factor_","type":"uint256"}],"name":"setEmergencyRebalancingRewardFactor","outputs":[],"stateMutability":"nonpayable","type":"function"},{"inputs":[{"internalType":"uint256","name":"maxDeviation_","type":"uint256"}],"name":"setMaxDeviation","outputs":[],"stateMutability":"nonpayable","type":"function"},{"inputs":[{"internalType":"uint256","name":"maxIdleCurveLpRatio_","type":"uint256"}],"name":"setMaxIdleCurveLpRatio","outputs":[],"stateMutability":"nonpayable","type":"function"},{"inputs":[{"internalType":"uint256","name":"_pauseDuration","type":"uint256"}],"name":"setPauseDuration","outputs":[],"stateMutability":"nonpayable","type":"function"},{"inputs":[{"internalType":"bool","name":"enabled","type":"bool"}],"name":"setRebalancingRewardsEnabled","outputs":[],"stateMutability":"nonpayable","type":"function"},{"inputs":[],"name":"shutdownPool","outputs":[],"stateMutability":"nonpayable","type":"function"},{"inputs":[],"name":"totalDeviationAfterWeightUpdate","outputs":[{"internalType":"uint256","name":"","type":"uint256"}],"stateMutability":"view","type":"function"},{"inputs":[],"name":"totalUnderlying","outputs":[{"internalType":"uint256","name":"","type":"uint256"}],"stateMutability":"view","type":"function"},{"inputs":[{"internalType":"address","name":"newOwner","type":"address"}],"name":"transferOwnership","outputs":[],"stateMutability":"nonpayable","type":"function"},{"inputs":[],"name":"underlying","outputs":[{"internalType":"contract IERC20Metadata","name":"","type":"address"}],"stateMutability":"view","type":"function"},{"inputs":[{"internalType":"uint256","name":"conicLpAmount","type":"uint256"},{"internalType":"uint256","name":"minUnderlyingReceived","type":"uint256"}],"name":"unstakeAndWithdraw","outputs":[{"internalType":"uint256","name":"","type":"uint256"}],"stateMutability":"nonpayable","type":"function"},{"inputs":[{"internalType":"uint256","name":"conicLpAmount","type":"uint256"},{"internalType":"uint256","name":"minUnderlyingReceived","type":"uint256"},{"internalType":"address","name":"to","type":"address"}],"name":"unstakeAndWithdraw","outputs":[{"internalType":"uint256","name":"","type":"uint256"}],"stateMutability":"nonpayable","type":"function"},{"inputs":[{"internalType":"uint256","name":"newDepegThreshold_","type":"uint256"}],"name":"updateDepegThreshold","outputs":[],"stateMutability":"nonpayable","type":"function"},{"inputs":[{"internalType":"address","name":"token","type":"address"},{"internalType":"bool","name":"approved","type":"bool"}],"name":"updateRewardSpendingApproval","outputs":[],"stateMutability":"nonpayable","type":"function"},{"inputs":[{"components":[{"internalType":"address","name":"poolAddress","type":"address"},{"internalType":"uint256","name":"weight","type":"uint256"}],"internalType":"struct IConicPoolWeightManagement.PoolWeight[]","name":"poolWeights","type":"tuple[]"}],"name":"updateWeights","outputs":[],"stateMutability":"nonpayable","type":"function"},{"inputs":[],"name":"usdExchangeRate","outputs":[{"internalType":"uint256","name":"","type":"uint256"}],"stateMutability":"view","type":"function"},{"inputs":[],"name":"weightManager","outputs":[{"internalType":"contract IConicPoolWeightManager","name":"","type":"address"}],"stateMutability":"view","type":"function"},{"inputs":[{"internalType":"uint256","name":"conicLpAmount","type":"uint256"},{"internalType":"uint256","name":"minUnderlyingReceived","type":"uint256"},{"internalType":"address","name":"to","type":"address"}],"name":"withdraw","outputs":[{"internalType":"uint256","name":"","type":"uint256"}],"stateMutability":"nonpayable","type":"function"},{"inputs":[{"internalType":"uint256","name":"conicLpAmount","type":"uint256"},{"internalType":"uint256","name":"minUnderlyingReceived","type":"uint256"}],"name":"withdraw","outputs":[{"internalType":"uint256","name":"","type":"uint256"}],"stateMutability":"nonpayable","type":"function"},{"stateMutability":"payable","type":"receive"}],"bytecode":"61016060405266470de4df82000060035566b1a2bc2ec50000600455666a94d74f430000600655678ac7230489e80000600a553480156200003f57600080fd5b506040516200a9ba3803806200a9ba83398101604081905262000062916200080c565b86868686868686846200007533620002e6565b6001600160a01b0390811660805261708060025587811690831614801590620000b05750806001600160a01b0316876001600160a01b031614155b8015620000da57506001600160a01b038716739ae380f0272e2162340a5bb646c354271c0f5cfc14155b620001215760405162461bcd60e51b8152602060048201526012602482015271696e76616c696420756e6465726c79696e6760701b60448201526064015b60405180910390fd5b866001600160a01b031660e0816001600160a01b0316815250506000876001600160a01b031663313ce5676040518163ffffffff1660e01b8152600401602060405180830381865afa1580156200017c573d6000803e3d6000fd5b505050506040513d601f19601f82011682018060405250810190620001a29190620008e3565b90508530828787604051620001b7906200070a565b620001c79594939291906200093d565b604051809103906000f080158015620001e4573d6000803e3d6000fd5b506001600160a01b0390811661010052871661012052604051869089906200020c9062000718565b6001600160a01b03928316815291166020820152604001604051809103906000f08015801562000240573d6000803e3d6000fd5b506001600160a01b039081166101405283811660a081905290831660c05262000279908860001962000336602090811b620037ba17901c565b620002a28760001960c0516001600160a01b03166200033660201b620037ba179092919060201c565b620002d1739ae380f0272e2162340a5bb646c354271c0f5cfc8860001962000336602090811b620037ba17901c565b50505050505050505050505050505062000a05565b600080546001600160a01b038381166001600160a01b0319831681178455604051919092169283917f8be0079c531659141344cd1fd0a4f28419497f9722a3daafe3b4186f6b6457e09190a35050565b801580620003b45750604051636eb1769f60e11b81523060048201526001600160a01b03838116602483015284169063dd62ed3e90604401602060405180830381865afa1580156200038c573d6000803e3d6000fd5b505050506040513d601f19601f82011682018060405250810190620003b2919062000994565b155b620004285760405162461bcd60e51b815260206004820152603660248201527f5361666545524332303a20617070726f76652066726f6d206e6f6e2d7a65726f60448201527f20746f206e6f6e2d7a65726f20616c6c6f77616e636500000000000000000000606482015260840162000118565b604080516001600160a01b038416602482015260448082018490528251808303909101815260649091019091526020810180516001600160e01b0390811663095ea7b360e01b17909152620004809185916200048516565b505050565b6000620004e1826040518060400160405280602081526020017f5361666545524332303a206c6f772d6c6576656c2063616c6c206661696c6564815250856001600160a01b03166200056660201b62003902179092919060201c565b905080516000148062000505575080806020019051810190620005059190620009ae565b620004805760405162461bcd60e51b815260206004820152602a60248201527f5361666545524332303a204552433230206f7065726174696f6e20646964206e6044820152691bdd081cdd58d8d9595960b21b606482015260840162000118565b60606200057784846000856200057f565b949350505050565b606082471015620005e25760405162461bcd60e51b815260206004820152602660248201527f416464726573733a20696e73756666696369656e742062616c616e636520666f6044820152651c8818d85b1b60d21b606482015260840162000118565b600080866001600160a01b03168587604051620006009190620009d2565b60006040518083038185875af1925050503d80600081146200063f576040519150601f19603f3d011682016040523d82523d6000602084013e62000644565b606091505b509092509050620006588783838762000663565b979650505050505050565b60608315620006d7578251600003620006cf576001600160a01b0385163b620006cf5760405162461bcd60e51b815260206004820152601d60248201527f416464726573733a2063616c6c20746f206e6f6e2d636f6e7472616374000000604482015260640162000118565b508162000577565b620005778383815115620006ee5781518083602001fd5b8060405162461bcd60e51b8152600401620001189190620009f0565b6115178062006c1983390190565b61288a806200813083390190565b6001600160a01b03811681146200073c57600080fd5b50565b634e487b7160e01b600052604160045260246000fd5b60005b838110156200077257818101518382015260200162000758565b50506000910152565b600082601f8301126200078d57600080fd5b81516001600160401b0380821115620007aa57620007aa6200073f565b604051601f8301601f19908116603f01168101908282118183101715620007d557620007d56200073f565b81604052838152866020858801011115620007ef57600080fd5b6200080284602083016020890162000755565b9695505050505050565b600080600080600080600060e0888a0312156200082857600080fd5b8751620008358162000726565b6020890151909750620008488162000726565b60408901519096506200085b8162000726565b60608901519095506001600160401b03808211156200087957600080fd5b620008878b838c016200077b565b955060808a01519150808211156200089e57600080fd5b50620008ad8a828b016200077b565b93505060a0880151620008c08162000726565b60c0890151909250620008d38162000726565b8091505092959891949750929550565b600060208284031215620008f657600080fd5b815160ff811681146200090857600080fd5b9392505050565b600081518084526200092981602086016020860162000755565b601f01601f19169290920160200192915050565b6001600160a01b0386811682528516602082015260ff8416604082015260a06060820181905260009062000974908301856200090f565b82810360808401526200098881856200090f565b98975050505050505050565b600060208284031215620009a757600080fd5b5051919050565b600060208284031215620009c157600080fd5b815180151581146200090857600080fd5b60008251620009e681846020870162000755565b9190910192915050565b6020815260006200090860208301846200090f565b60805160a05160c05160e051610100516101205161014051615fb962000c60600039600081816106f701528181610f6401528181611174015281816112f3015281816117ba0152818161182a01528181611b180152818161246a015281816125ff0152818161278f01528181612876015281816128f401528181612a8501528181612dd501528181612eb10152818161304b015281816130f10152818161348801528181613a0801528181613ac301528181613f7f015281816145d2015281816147ef015281816148b701528181614b6101528181614bdf0152614dec01526000818161048f01528181611a670152611ac701526000818161072b01528181610b4f01528181610ddf015281816121630152818161226201528181612343015261391601526000818161038c015281816107bd01528181610c1f01528181610d0501528181610e620152818161164a015281816116e501528181611f1401528181611fbf015281816120140152818161330301528181613be101528181614118015281816141f10152818161427d01526149dd0152600050506000505060008181610b0c0152818161104d015281816111fa015281816115b3015281816118ec01528181611b7801528181611c1d01528181611e7d015281816121d5015281816124ff0152818161281a015281816129ff01528181612b3701528181612ccb0152818161326c015281816133a0015281816134e80152818161358d01528181613b610152818161409b015281816142eb01528181614493015281816146aa0152818161495d01528181614c700152614e740152615fb96000f3fe6080604052600436106103855760003560e01c80638456cb59116101d1578063c5c63e6511610102578063d6038dc6116100a0578063e2bbb1581161006f578063e2bbb15814610aa4578063f0ea87f614610ac4578063f2fde38b14610ada578063f77c479114610afa57600080fd5b8063d6038dc614610a39578063d914cd4b14610a4e578063da748b1014610a6e578063dddbc04914610a8457600080fd5b8063c9387332116100dc578063c9387332146109d9578063cb03a464146109f9578063ce75040e14610a0e578063d1e6c1e514610a2357600080fd5b8063c5c63e651461098f578063c699e633146109a4578063c70920bc146109c457600080fd5b80639e4865621161016f578063b0a4396811610149578063b0a439681461091d578063b187bd261461093d578063b7b3b8c014610955578063bf86d6901461097557600080fd5b80639e486562146108c8578063a58f1d8e146108e7578063ac6c5251146108fd57600080fd5b80638da5cb5b116101ab5780638da5cb5b146108555780638dbfb25b14610873578063904c9bf0146108935780639765ca15146108a857600080fd5b80638456cb591461080957806386fe9a661461081e5780638c788de01461084057600080fd5b806336797aec116102b6578063441a3e70116102545780636e4f3338116102235780636e4f33381461076d5780636f307dc3146107ab578063715018a6146107df57806383645abf146107f457600080fd5b8063441a3e70146106c55780634af1cd69146106e55780635fcbd2851461071957806365f203551461074d57600080fd5b80633b7d0946116102905780633b7d09461461065a5780633ba0b9a91461067a5780633d4912c31461068f57806343a0d066146106a557600080fd5b806336797aec14610604578063377f7eaa146106245780633a172ddc1461063a57600080fd5b806322acb867116103235780632c3da47d116102fd5780632c3da47d146105765780632cf818011461059657806332f44c42146105c0578063331666fa146105e057600080fd5b806322acb8671461052957806324a71a661461054b5780632a1bab731461056057600080fd5b80630f4ef8a61161035f5780630f4ef8a61461047d5780631010b58c146104c957806310aec8f9146104e95780631280a5b61461050957600080fd5b80630526679c146104125780630ad58d2f1461043b5780630c3457891461045b57600080fd5b3661040d577f00000000000000000000000000000000000000000000000000000000000000006001600160a01b031673c02aaa39b223fe8d0a0e5c4f27ead9083c756cc21461040b5760405162461bcd60e51b815260206004820152600d60248201526c1b9bdd0815d15512081c1bdbdb609a1b60448201526064015b60405180910390fd5b005b600080fd5b34801561041e57600080fd5b5061042860025481565b6040519081526020015b60405180910390f35b34801561044757600080fd5b50610428610456366004615680565b610b2e565b34801561046757600080fd5b50610470610f5e565b60405161043291906156b9565b34801561048957600080fd5b506104b17f000000000000000000000000000000000000000000000000000000000000000081565b6040516001600160a01b039091168152602001610432565b3480156104d557600080fd5b506104b16104e4366004615706565b61115b565b3480156104f557600080fd5b5061042861050436600461571f565b6111ed565b34801561051557600080fd5b50610428610524366004615680565b6111f6565b34801561053557600080fd5b5061053e6112ef565b6040516104329190615741565b34801561055757600080fd5b5061042861137c565b34801561056c57600080fd5b5061042860035481565b34801561058257600080fd5b5061040b610591366004615706565b6113a5565b3480156105a257600080fd5b506009546105b09060ff1681565b6040519015158152602001610432565b3480156105cc57600080fd5b5061040b6105db366004615706565b6114a9565b3480156105ec57600080fd5b506105f56115aa565b604051610432939291906157dc565b34801561061057600080fd5b5061040b61061f3660046157fb565b6116d8565b34801561063057600080fd5b50610428600a5481565b34801561064657600080fd5b5061040b610655366004615826565b611a5c565b34801561066657600080fd5b5061040b6106753660046157fb565b611af1565b34801561068657600080fd5b50610428611d0b565b34801561069b57600080fd5b5061042860065481565b3480156106b157600080fd5b506104286106c036600461585f565b611d1d565b3480156106d157600080fd5b506104286106e036600461571f565b611d2b565b3480156106f157600080fd5b506104b17f000000000000000000000000000000000000000000000000000000000000000081565b34801561072557600080fd5b506104b17f000000000000000000000000000000000000000000000000000000000000000081565b34801561075957600080fd5b5061042861076836600461588d565b611d38565b34801561077957600080fd5b50600954610793906201000090046001600160401b031681565b6040516001600160401b039091168152602001610432565b3480156107b757600080fd5b506104b17f000000000000000000000000000000000000000000000000000000000000000081565b3480156107eb57600080fd5b5061040b61242d565b34801561080057600080fd5b50610428612441565b34801561081557600080fd5b5061040b6124ea565b34801561082a57600080fd5b506108336125f9565b60405161043291906158d7565b34801561084c57600080fd5b5061042861278b565b34801561086157600080fd5b506000546001600160a01b03166104b1565b34801561087f57600080fd5b5061040b61088e3660046159bb565b61280f565b34801561089f57600080fd5b5061040b6129fb565b3480156108b457600080fd5b506104286108c33660046157fb565b612da9565b3480156108d457600080fd5b506009546105b090610100900460ff1681565b3480156108f357600080fd5b5061042860045481565b34801561090957600080fd5b506104286109183660046157fb565b612e8f565b34801561092957600080fd5b5061040b610938366004615706565b612f1e565b34801561094957600080fd5b506001544211156105b0565b34801561096157600080fd5b5061040b610970366004615a73565b612fd4565b34801561098157600080fd5b506005546105b09060ff1681565b34801561099b57600080fd5b50610470613047565b3480156109b057600080fd5b506105b06109bf3660046157fb565b6130cf565b3480156109d057600080fd5b5061042861315e565b3480156109e557600080fd5b5061040b6109f4366004615706565b613169565b348015610a0557600080fd5b506105b061324b565b348015610a1a57600080fd5b50610428613267565b348015610a2f57600080fd5b50610428600c5481565b348015610a4557600080fd5b5061040b613395565b348015610a5a57600080fd5b5061040b610a693660046157fb565b613461565b348015610a7a57600080fd5b5061042860015481565b348015610a9057600080fd5b5061040b610a9f366004615706565b61367c565b348015610ab057600080fd5b50610428610abf36600461571f565b613732565b348015610ad057600080fd5b50610428600b5481565b348015610ae657600080fd5b5061040b610af53660046157fb565b613741565b348015610b0657600080fd5b506104b17f000000000000000000000000000000000000000000000000000000000000000081565b6000610b386129fb565b6040516370a0823160e01b815233600482015284907f00000000000000000000000000000000000000000000000000000000000000006001600160a01b0316906370a0823190602401602060405180830381865afa158015610b9e573d6000803e3d6000fd5b505050506040513d601f19601f82011682018060405250810190610bc29190615a90565b1015610c075760405162461bcd60e51b8152602060048201526014602482015273696e73756666696369656e742062616c616e636560601b6044820152606401610402565b6040516370a0823160e01b81523060048201526000907f00000000000000000000000000000000000000000000000000000000000000006001600160a01b0316906370a0823190602401602060405180830381865afa158015610c6e573d6000803e3d6000fd5b505050506040513d601f19601f82011682018060405250810190610c929190615a90565b90506000806000610ca16115aa565b9250925092506000610cbc610cb585613911565b8a906139be565b905080851015610ce1576000610cd28683615abf565b9050610cdf8484836139e0565b505b6040516370a0823160e01b8152306004820152600090610d76906001600160a01b037f000000000000000000000000000000000000000000000000000000000000000016906370a0823190602401602060405180830381865afa158015610d4c573d6000803e3d6000fd5b505050506040513d601f19601f82011682018060405250810190610d709190615a90565b83613c9b565b905088811015610dbc5760405162461bcd60e51b8152602060048201526011602482015270746f6f206d75636820736c69707061676560781b6044820152606401610402565b60405163b8ce670d60e01b81523360048201819052602482018c905260448201527f00000000000000000000000000000000000000000000000000000000000000006001600160a01b03169063b8ce670d906064016020604051808303816000875af1158015610e30573d6000803e3d6000fd5b505050506040513d601f19601f82011682018060405250810190610e549190615a90565b50610e896001600160a01b037f0000000000000000000000000000000000000000000000000000000000000000168983613cb1565b610e938186615abf565b60085542600755610eb46001600160a01b038916632098244360e21b613ce1565b15610f1a57604051632098244360e21b8152336004820152602481018290526001600160a01b03891690638260910c90604401600060405180830381600087803b158015610f0157600080fd5b505af1158015610f15573d6000803e3d6000fd5b505050505b60405181815233907f884edad9ce6fa2440d8a54cc123490eb96d2768479d49ff9c7366125a94243649060200160405180910390a2955050505050505b9392505050565b606060007f00000000000000000000000000000000000000000000000000000000000000006001600160a01b031663c5c63e656040518163ffffffff1660e01b8152600401600060405180830381865afa158015610fc0573d6000803e3d6000fd5b505050506040513d6000823e601f3d908101601f19168201604052610fe89190810190615ad2565b8051604080516000808252602082019092529293509091905b8281101561114957600084828151811061101d5761101d615b60565b60209081029190910101516040516355eb6b3560e01b81526001600160a01b0380831660048301529192506000917f000000000000000000000000000000000000000000000000000000000000000016906355eb6b3590602401602060405180830381865afa158015611094573d6000803e3d6000fd5b505050506040513d601f19601f820116820180604052508101906110b89190615b76565b604051622708db60e01b81526001600160a01b0384811660048301529190911690622708db90602401600060405180830381865afa1580156110fe573d6000803e3d6000fd5b505050506040513d6000823e601f3d908101601f191682016040526111269190810190615ad2565b90506111328482613cfd565b93505050808061114190615b93565b915050611001565b5061115381613e28565b935050505090565b6040516304042d6360e21b8152600481018290526000907f00000000000000000000000000000000000000000000000000000000000000006001600160a01b031690631010b58c90602401602060405180830381865afa1580156111c3573d6000803e3d6000fd5b505050506040513d601f19601f820116820180604052508101906111e79190615b76565b92915050565b6000610f578383335b60007f00000000000000000000000000000000000000000000000000000000000000006001600160a01b03166348439e7e6040518163ffffffff1660e01b8152600401602060405180830381865afa158015611256573d6000803e3d6000fd5b505050506040513d601f19601f8201168201806040525081019061127a9190615b76565b604051630325d16160e01b8152600481018690523360248201526001600160a01b039190911690630325d16190604401600060405180830381600087803b1580156112c457600080fd5b505af11580156112d8573d6000803e3d6000fd5b505050506112e7848484610b2e565b949350505050565b60607f00000000000000000000000000000000000000000000000000000000000000006001600160a01b03166322acb8676040518163ffffffff1660e01b8152600401600060405180830381865afa15801561134f573d6000803e3d6000fd5b505050506040513d6000823e601f3d908101601f191682016040526113779190810190615bac565b905090565b60006203f48060075461138f9190615c5f565b42111561139e5761137761315e565b5060085490565b6113ad613f1c565b670de0b6b3a76400008110156113fc5760405162461bcd60e51b8152602060048201526014602482015273666163746f722062656c6f77206d696e696d756d60601b6044820152606401610402565b68056bc75e2d6310000081111561144c5760405162461bcd60e51b8152602060048201526014602482015273666163746f722061626f7665206d6178696d756d60601b6044820152606401610402565b600a54810361146d5760405162461bcd60e51b815260040161040290615c72565b600a8190556040518181527f43b89d4b5fdc149d21160712a4e8a2c76927dccd7aae23fd717f753758044a6f906020015b60405180910390a150565b6114b1613f1c565b662386f26fc100008110156115025760405162461bcd60e51b81526020600482015260176024820152761a5b9d985b1a590819195c1959c81d1a1c995cda1bdb19604a1b6044820152606401610402565b67016345785d8a00008111156115545760405162461bcd60e51b81526020600482015260176024820152761a5b9d985b1a590819195c1959c81d1a1c995cda1bdb19604a1b6044820152606401610402565b60065481036115755760405162461bcd60e51b815260040161040290615c72565b60068190556040518181527f20da4a1840e5e1bb25784e941f370e4db630545ed9434c8c0bad8e421480595b9060200161149e565b600080606060007f00000000000000000000000000000000000000000000000000000000000000006001600160a01b0316632630c12f6040518163ffffffff1660e01b8152600401602060405180830381865afa15801561160f573d6000803e3d6000fd5b505050506040513d601f19601f820116820180604052508101906116339190615b76565b604051638b2f0f4f60e01b81526001600160a01b037f0000000000000000000000000000000000000000000000000000000000000000811660048301529190911690638b2f0f4f90602401602060405180830381865afa15801561169b573d6000803e3d6000fd5b505050506040513d601f19601f820116820180604052508101906116bf9190615a90565b90506116cc816000613f76565b93509350935050909192565b6116e06129fb565b6117097f0000000000000000000000000000000000000000000000000000000000000000614279565b1561174f5760405162461bcd60e51b81526020600482015260166024820152751d5b99195c9b1e5a5b99c81a5cc819195c1959d9d95960521b6044820152606401610402565b6117588161446f565b61179b5760405162461bcd60e51b81526020600482015260146024820152731c1bdbdb081a5cc81b9bdd0819195c1959d9d95960621b6044820152606401610402565b604051630d9e5ebb60e21b81526001600160a01b0382811660048301527f000000000000000000000000000000000000000000000000000000000000000016906336797aec90602401600060405180830381600087803b1580156117fe57600080fd5b505af1158015611812573d6000803e3d6000fd5b505050506000806118216115aa565b925050915060007f00000000000000000000000000000000000000000000000000000000000000006001600160a01b0316637e412a7a84846040518363ffffffff1660e01b8152600401611876929190615c9b565b602060405180830381865afa158015611893573d6000803e3d6000fd5b505050506040513d601f19601f820116820180604052508101906118b79190615a90565b600c81905560095490915060ff1615611a1a576040516355eb6b3560e01b81526001600160a01b0385811660048301526000917f0000000000000000000000000000000000000000000000000000000000000000909116906355eb6b3590602401602060405180830381865afa158015611935573d6000803e3d6000fd5b505050506040513d601f19601f820116820180604052508101906119599190615b76565b604051633dfa59d160e01b81523060048201526001600160a01b038781166024830152919250600091831690633dfa59d190604401602060405180830381865afa1580156119ab573d6000803e3d6000fd5b505050506040513d601f19601f820116820180604052508101906119cf9190615a90565b905068056bc75e2d63100000811115611a175760098054600a54600b5561ff00196001600160401b03421662010000021669ffffffffffffffffff0019909116176101001790555b50505b6040516001600160a01b03851681527f7d90518f39c7f92fd9046bbb246d9c650dd159f73cca88aa7d919c89c040fa799060200160405180910390a150505050565b336001600160a01b037f00000000000000000000000000000000000000000000000000000000000000001614611aa45760405162461bcd60e51b815260040161040290615cb4565b600081611ab2576000611ab6565b6000195b9050611aec6001600160a01b0384167f0000000000000000000000000000000000000000000000000000000000000000836137ba565b505050565b611af9613f1c565b604051631dbe84a360e11b81526001600160a01b0382811660048301527f00000000000000000000000000000000000000000000000000000000000000001690633b7d094690602401600060405180830381600087803b158015611b5c57600080fd5b505af1158015611b70573d6000803e3d6000fd5b5050505060007f00000000000000000000000000000000000000000000000000000000000000006001600160a01b0316632cdacb506040518163ffffffff1660e01b8152600401602060405180830381865afa158015611bd4573d6000803e3d6000fd5b505050506040513d601f19601f82011682018060405250810190611bf89190615b76565b6040516355eb6b3560e01b81526001600160a01b0384811660048301529192506000917f000000000000000000000000000000000000000000000000000000000000000016906355eb6b3590602401602060405180830381865afa158015611c64573d6000803e3d6000fd5b505050506040513d601f19601f82011682018060405250810190611c889190615b76565b604051631da958a960e21b81526001600160a01b03858116600483015291909116906376a562a490602401602060405180830381865afa158015611cd0573d6000803e3d6000fd5b505050506040513d601f19601f82011682018060405250810190611cf49190615b76565b9050611aec6001600160a01b0382168360006137ba565b6000611377611d1861315e565b613911565b60006112e733858585611d38565b6000610f57838333610b2e565b6000611d4660015442111590565b15611d7c5760405162461bcd60e51b81526020600482015260066024820152651c185d5cd95960d21b6044820152606401610402565b611d846129fb565b611dda604051806101400160405280600081526020016000815260200160008152602001600081526020016000815260200160008152602001606081526020016000815260200160008152602001606081525090565b60055460ff1615611e215760405162461bcd60e51b81526020600482015260116024820152703837b7b61034b99039b43aba103237bbb760791b6044820152606401610402565b60008511611e715760405162461bcd60e51b815260206004820152601d60248201527f6465706f73697420616d6f756e742063616e6e6f74206265207a65726f0000006044820152606401610402565b611e796145ce565b60007f00000000000000000000000000000000000000000000000000000000000000006001600160a01b0316632630c12f6040518163ffffffff1660e01b8152600401602060405180830381865afa158015611ed9573d6000803e3d6000fd5b505050506040513d601f19601f82011682018060405250810190611efd9190615b76565b604051638b2f0f4f60e01b81526001600160a01b037f0000000000000000000000000000000000000000000000000000000000000000811660048301529190911690638b2f0f4f90602401602060405180830381865afa158015611f65573d6000803e3d6000fd5b505050506040513d601f19601f82011682018060405250810190611f899190615a90565b9050611f96816001613f76565b60c085015260a084015260808301819052611fb090613911565b8252611fe76001600160a01b037f000000000000000000000000000000000000000000000000000000000000000016333089614789565b60a082015160c08301516040516370a0823160e01b81523060048201526120849291906001600160a01b037f000000000000000000000000000000000000000000000000000000000000000016906370a0823190602401602060405180830381865afa15801561205b573d6000803e3d6000fd5b505050506040513d601f19601f8201168201806040525081019061207f9190615a90565b6147c7565b61208f816002613f76565b61012085015261010084015260e0830181905260808301516120b091615abf565b602083018190526120c2908790613c9b565b6040830181905282516120d59190614a8f565b6060830181905285111561211f5760405162461bcd60e51b8152602060048201526011602482015270746f6f206d75636820736c69707061676560781b6044820152606401610402565b60e082015160085542600755831561230d576060820151604051630d4d151360e01b815230600482015260248101919091526001600160a01b0388811660448301527f00000000000000000000000000000000000000000000000000000000000000001690630d4d1513906064016020604051808303816000875af11580156121ac573d6000803e3d6000fd5b505050506040513d601f19601f820116820180604052508101906121d09190615a90565b5060007f00000000000000000000000000000000000000000000000000000000000000006001600160a01b03166348439e7e6040518163ffffffff1660e01b8152600401602060405180830381865afa158015612231573d6000803e3d6000fd5b505050506040513d601f19601f820116820180604052508101906122559190615b76565b90506122998184606001517f00000000000000000000000000000000000000000000000000000000000000006001600160a01b0316614aa89092919063ffffffff16565b60608301516040516333f1c33760e01b815260048101919091523060248201526001600160a01b0389811660448301528216906333f1c33790606401600060405180830381600087803b1580156122ef57600080fd5b505af1158015612303573d6000803e3d6000fd5b50505050506123b4565b6060820151604051630d4d151360e01b81526001600160a01b0389811660048301819052602483019390935260448201929092527f000000000000000000000000000000000000000000000000000000000000000090911690630d4d1513906064016020604051808303816000875af115801561238e573d6000803e3d6000fd5b505050506040513d601f19601f820116820180604052508101906123b29190615a90565b505b6123d3878360a001518460c00151856101000151866101200151614b37565b60608201516040805188815260208101929092526001600160a01b0389169133917fdcbc1c05240f31ff3ad067ef1ee35ce4997762752e3a095284754544f4c709d7910160405180910390a3506060015195945050505050565b612435613f1c565b61243f6000614d7f565b565b600080600061244e6115aa565b604051633f20953d60e11b815291945092506001600160a01b037f0000000000000000000000000000000000000000000000000000000000000000169150637e412a7a906124a29085908590600401615c9b565b602060405180830381865afa1580156124bf573d6000803e3d6000fd5b505050506040513d601f19601f820116820180604052508101906124e39190615a90565b9250505090565b604051634eb3ffc360e01b81523360048201527f00000000000000000000000000000000000000000000000000000000000000006001600160a01b031690634eb3ffc390602401602060405180830381865afa15801561254e573d6000803e3d6000fd5b505050506040513d601f19601f820116820180604052508101906125729190615cdc565b6125b25760405162461bcd60e51b81526020600482015260116024820152703737ba103830bab9b29036b0b730b3b2b960791b6044820152606401610402565b6002546125bf9042615c5f565b60018190556040519081527f32fb7c9891bc4f963c7de9f1186d2a7755c7d6e9f4604dabe1d8bb3027c2f49e9060200160405180910390a1565b606060007f00000000000000000000000000000000000000000000000000000000000000006001600160a01b031663c5c63e656040518163ffffffff1660e01b8152600401600060405180830381865afa15801561265b573d6000803e3d6000fd5b505050506040513d6000823e601f3d908101601f191682016040526126839190810190615ad2565b9050600081516001600160401b038111156126a0576126a061592a565b6040519080825280602002602001820160405280156126e557816020015b60408051808201909152600080825260208201528152602001906001900390816126be5790505b50905060006126f26115aa565b9250505060005b825181101561278257604051806040016040528085838151811061271f5761271f615b60565b60200260200101516001600160a01b0316815260200183838151811061274757612747615b60565b602002602001015181525083828151811061276457612764615b60565b6020026020010181905250808061277a90615b93565b9150506126f9565b50909392505050565b60007f00000000000000000000000000000000000000000000000000000000000000006001600160a01b0316638c788de06040518163ffffffff1660e01b8152600401602060405180830381865afa1580156127eb573d6000803e3d6000fd5b505050506040513d601f19601f820116820180604052508101906113779190615a90565b336001600160a01b037f000000000000000000000000000000000000000000000000000000000000000016146128575760405162461bcd60e51b815260040161040290615cb4565b61285f6129fb565b604051638dbfb25b60e01b81526001600160a01b037f00000000000000000000000000000000000000000000000000000000000000001690638dbfb25b906128ab908490600401615741565b600060405180830381600087803b1580156128c557600080fd5b505af11580156128d9573d6000803e3d6000fd5b5050505060008060006128ea6115aa565b92509250925060007f00000000000000000000000000000000000000000000000000000000000000006001600160a01b0316637e412a7a85846040518363ffffffff1660e01b8152600401612940929190615c9b565b602060405180830381865afa15801561295d573d6000803e3d6000fd5b505050506040513d601f19601f820116820180604052508101906129819190615a90565b600c81905560095490915060ff1680156129a257506129a08284614dcf565b155b600980549115156101000261ff00199092169190911790556129c66012600a615ddd565b600b556009805469ffffffffffffffff0000191662010000426001600160401b0316021790556129f4614e64565b5050505050565b60007f00000000000000000000000000000000000000000000000000000000000000006001600160a01b0316639f82b2176040518163ffffffff1660e01b8152600401602060405180830381865afa158015612a5b573d6000803e3d6000fd5b505050506040513d601f19601f82011682018060405250810190612a7f9190615b76565b905060007f00000000000000000000000000000000000000000000000000000000000000006001600160a01b031663c5c63e656040518163ffffffff1660e01b8152600401600060405180830381865afa158015612ae1573d6000803e3d6000fd5b505050506040513d6000823e601f3d908101601f19168201604052612b099190810190615ad2565b905060005b8151811015611aec576000828281518110612b2b57612b2b615b60565b602002602001015190507f00000000000000000000000000000000000000000000000000000000000000006001600160a01b03166355eb6b35826040518263ffffffff1660e01b8152600401612b9091906001600160a01b0391909116815260200190565b602060405180830381865afa158015612bad573d6000803e3d6000fd5b505050506040513d601f19601f82011682018060405250810190612bd19190615b76565b60405163e155c05760e01b81526001600160a01b038381166004830152919091169063e155c05790602401600060405180830381600087803b158015612c1657600080fd5b505af1158015612c2a573d6000803e3d6000fd5b50506040516339d16a2360e11b81526001600160a01b03848116600483015260009350871691506373a2d44690602401602060405180830381865afa158015612c77573d6000803e3d6000fd5b505050506040513d601f19601f82011682018060405250810190612c9b9190615b76565b90506001600160a01b03811615612d94576040516355eb6b3560e01b81526001600160a01b0382811660048301527f000000000000000000000000000000000000000000000000000000000000000016906355eb6b3590602401602060405180830381865afa158015612d12573d6000803e3d6000fd5b505050506040513d601f19601f82011682018060405250810190612d369190615b76565b60405163e155c05760e01b81526001600160a01b038381166004830152919091169063e155c05790602401600060405180830381600087803b158015612d7b57600080fd5b505af1158015612d8f573d6000803e3d6000fd5b505050505b50508080612da190615b93565b915050612b0e565b6000612db36129fb565b604051639765ca1560e01b81526001600160a01b0383811660048301526000917f000000000000000000000000000000000000000000000000000000000000000090911690639765ca15906024016020604051808303816000875af1158015612e20573d6000803e3d6000fd5b505050506040513d601f19601f82011682018060405250810190612e449190615a90565b604080516001600160a01b0386168152602081018390529192507fb6e3324444a482d3e4041851d767063381c41cd9abc8a3191a0b61e3896f9443910160405180910390a192915050565b60405163ac6c525160e01b81526001600160a01b0382811660048301526000917f00000000000000000000000000000000000000000000000000000000000000009091169063ac6c525190602401602060405180830381865afa158015612efa573d6000803e3d6000fd5b505050506040513d601f19601f820116820180604052508101906111e79190615a90565b612f26613f1c565b8060045403612f475760405162461bcd60e51b815260040161040290615c72565b6702c68af0bb140000811115612f9f5760405162461bcd60e51b815260206004820152601960248201527f726174696f206578636565647320757070657220626f756e64000000000000006044820152606401610402565b60048190556040518181527fcf75d305993755a06325155bdff6a203ff5eb28a3561e219588aeb6aba8b3b549060200161149e565b612fdc613f1c565b60095481151560ff9091161515036130065760405162461bcd60e51b815260040161040290615c72565b6009805460ff19168215159081179091556040519081527f279cee3d8f87ec526dc3da1f7f9000d2bedd53531863d9e85e52ea363c3d13059060200161149e565b60607f00000000000000000000000000000000000000000000000000000000000000006001600160a01b031663c5c63e656040518163ffffffff1660e01b8152600401600060405180830381865afa1580156130a7573d6000803e3d6000fd5b505050506040513d6000823e601f3d908101601f191682016040526113779190810190615ad2565b60405163c699e63360e01b81526001600160a01b0382811660048301526000917f00000000000000000000000000000000000000000000000000000000000000009091169063c699e63390602401602060405180830381865afa15801561313a573d6000803e3d6000fd5b505050506040513d601f19601f820116820180604052508101906111e79190615cdc565b6000806127826115aa565b613171613f1c565b610e108110156131c35760405162461bcd60e51b815260206004820152601860248201527f7061757365206475726174696f6e20746f6f2073686f727400000000000000006044820152606401610402565b6203f4808111156132165760405162461bcd60e51b815260206004820152601760248201527f7061757365206475726174696f6e20746f6f206c6f6e670000000000000000006044820152606401610402565b60028190556040518181527fa959cb2cc91580147f93f66fb85db8f308cfdaef3989ab5265408ff80ef6fa669060200161149e565b60008060006132586115aa565b92509250506124e38183614dcf565b6000807f00000000000000000000000000000000000000000000000000000000000000006001600160a01b0316632630c12f6040518163ffffffff1660e01b8152600401602060405180830381865afa1580156132c8573d6000803e3d6000fd5b505050506040513d601f19601f820116820180604052508101906132ec9190615b76565b604051638b2f0f4f60e01b81526001600160a01b037f0000000000000000000000000000000000000000000000000000000000000000811660048301529190911690638b2f0f4f90602401602060405180830381865afa158015613354573d6000803e3d6000fd5b505050506040513d601f19601f820116820180604052508101906133789190615a90565b905061338f81613389611d1861137c565b906139be565b91505090565b336001600160a01b037f000000000000000000000000000000000000000000000000000000000000000016146133dd5760405162461bcd60e51b815260040161040290615cb4565b60055460ff16156134295760405162461bcd60e51b81526020600482015260166024820152753837b7b61030b63932b0b23c9039b43aba103237bbb760511b6044820152606401610402565b6005805460ff191660011790556040517f4426aa1fb73e391071491fcfe21a88b5c38a0a0333a1f6e77161470439704cf890600090a1565b613469613f1c565b60405163d914cd4b60e01b81526001600160a01b0382811660048301527f0000000000000000000000000000000000000000000000000000000000000000169063d914cd4b90602401600060405180830381600087803b1580156134cc57600080fd5b505af11580156134e0573d6000803e3d6000fd5b5050505060007f00000000000000000000000000000000000000000000000000000000000000006001600160a01b0316632cdacb506040518163ffffffff1660e01b8152600401602060405180830381865afa158015613544573d6000803e3d6000fd5b505050506040513d601f19601f820116820180604052508101906135689190615b76565b6040516355eb6b3560e01b81526001600160a01b0384811660048301529192506000917f000000000000000000000000000000000000000000000000000000000000000016906355eb6b3590602401602060405180830381865afa1580156135d4573d6000803e3d6000fd5b505050506040513d601f19601f820116820180604052508101906135f89190615b76565b604051631da958a960e21b81526001600160a01b03858116600483015291909116906376a562a490602401602060405180830381865afa158015613640573d6000803e3d6000fd5b505050506040513d601f19601f820116820180604052508101906136649190615b76565b9050611aec6001600160a01b038216836000196137ba565b613684613f1c565b80600354036136a55760405162461bcd60e51b815260040161040290615c72565b6702c68af0bb1400008111156136fd5760405162461bcd60e51b815260206004820152601d60248201527f646576696174696f6e206578636565647320757070657220626f756e640000006044820152606401610402565b60038190556040518181527f3f9ef5ed5d378ef819698e4b3c710d362f981f90087b428b7a1ee1e716d689d59060200161149e565b6000610f573384846001611d38565b613749613f1c565b6001600160a01b0381166137ae5760405162461bcd60e51b815260206004820152602660248201527f4f776e61626c653a206e6577206f776e657220697320746865207a65726f206160448201526564647265737360d01b6064820152608401610402565b6137b781614d7f565b50565b8015806138345750604051636eb1769f60e11b81523060048201526001600160a01b03838116602483015284169063dd62ed3e90604401602060405180830381865afa15801561380e573d6000803e3d6000fd5b505050506040513d601f19601f820116820180604052508101906138329190615a90565b155b61389f5760405162461bcd60e51b815260206004820152603660248201527f5361666545524332303a20617070726f76652066726f6d206e6f6e2d7a65726f60448201527520746f206e6f6e2d7a65726f20616c6c6f77616e636560501b6064820152608401610402565b6040516001600160a01b038316602482015260448101829052611aec90849063095ea7b360e01b906064015b60408051601f198184030181529190526020810180516001600160e01b03166001600160e01b03199093169290921790915261503b565b60606112e78484600085615110565b6000807f00000000000000000000000000000000000000000000000000000000000000006001600160a01b03166318160ddd6040518163ffffffff1660e01b8152600401602060405180830381865afa158015613972573d6000803e3d6000fd5b505050506040513d601f19601f820116820180604052508101906139969190615a90565b90508015806139a3575082155b156139b457610f576012600a615ddd565b610f578382614a8f565b60006139cc6012600a615ddd565b6139d68385615de9565b610f579190615e00565b8060006139ed8286615abf565b905060006139fa856151eb565b90505b8215613c93576000807f00000000000000000000000000000000000000000000000000000000000000006001600160a01b03166339d825138585613a3f615289565b6040518463ffffffff1660e01b8152600401613a5d93929190615e22565b6040805180830381865afa158015613a79573d6000803e3d6000fd5b505050506040513d601f19601f82011682018060405250810190613a9d9190615e4b565b6040516304042d6360e21b81526004810183905291935091506000906001600160a01b037f00000000000000000000000000000000000000000000000000000000000000001690631010b58c90602401602060405180830381865afa158015613b0a573d6000803e3d6000fd5b505050506040513d601f19601f82011682018060405250810190613b2e9190615b76565b90506000613b3c8784613c9b565b6040516355eb6b3560e01b81526001600160a01b0384811660048301529192506000917f000000000000000000000000000000000000000000000000000000000000000016906355eb6b3590602401602060405180830381865afa158015613ba8573d6000803e3d6000fd5b505050506040513d601f19601f82011682018060405250810190613bcc9190615b76565b6040516001600160a01b0380861660248301527f000000000000000000000000000000000000000000000000000000000000000016604482015260648101849052909150613c519060840160408051601f198184030181529190526020810180516001600160e01b0316636ce5768960e11b1790526001600160a01b038316906152a8565b50613c5c8289615abf565b975081868681518110613c7157613c71615b60565b60200260200101818151613c859190615abf565b9052506139fd945050505050565b505050505050565b6000818310613caa5781610f57565b5090919050565b6040516001600160a01b038316602482015260448101829052611aec90849063a9059cbb60e01b906064016138cb565b6000613cec836152cd565b8015610f575750610f578383615300565b606081518351613d0d9190615c5f565b6001600160401b03811115613d2457613d2461592a565b604051908082528060200260200182016040528015613d4d578160200160208202803683370190505b50905060005b8351811015613db257838181518110613d6e57613d6e615b60565b6020026020010151828281518110613d8857613d88615b60565b6001600160a01b039092166020928302919091019091015280613daa81615b93565b915050613d53565b5060005b8251811015613e2157828181518110613dd157613dd1615b60565b602002602001015182855183613de79190615c5f565b81518110613df757613df7615b60565b6001600160a01b039092166020928302919091019091015280613e1981615b93565b915050613db6565b5092915050565b6060600082516001600160401b03811115613e4557613e4561592a565b604051908082528060200260200182016040528015613e6e578160200160208202803683370190505b5090506000805b8451811015613f1157613ea283868381518110613e9457613e94615b60565b602002602001015184615385565b613eff57848181518110613eb857613eb8615b60565b6020026020010151838380613ecc90615b93565b945081518110613ede57613ede615b60565b60200260200101906001600160a01b031690816001600160a01b0316815250505b80613f0981615b93565b915050613e75565b506112e782826153ea565b6000546001600160a01b0316331461243f5760405162461bcd60e51b815260206004820181905260248201527f4f776e61626c653a2063616c6c6572206973206e6f7420746865206f776e65726044820152606401610402565b600080606060007f00000000000000000000000000000000000000000000000000000000000000006001600160a01b031663c5c63e656040518163ffffffff1660e01b8152600401600060405180830381865afa158015613fdb573d6000803e3d6000fd5b505050506040513d6000823e601f3d908101601f191682016040526140039190810190615ad2565b8051909150806001600160401b038111156140205761402061592a565b604051908082528060200260200182016040528015614049578160200160208202803683370190505b50925060005b818110156141db57600083828151811061406b5761406b615b60565b60209081029190910101516040516355eb6b3560e01b81526001600160a01b0380831660048301529192506000917f000000000000000000000000000000000000000000000000000000000000000016906355eb6b3590602401602060405180830381865afa1580156140e2573d6000803e3d6000fd5b505050506040513d601f19601f820116820180604052508101906141069190615b76565b6001600160a01b0316630fee68b330847f00000000000000000000000000000000000000000000000000000000000000008e8e6040518663ffffffff1660e01b8152600401614159959493929190615e6f565b602060405180830381865afa158015614176573d6000803e3d6000fd5b505050506040513d601f19601f8201168201806040525081019061419a9190615a90565b9050808684815181106141af576141af615b60565b60209081029190910101526141c48188615c5f565b9650505080806141d390615b93565b91505061404f565b506040516370a0823160e01b81523060048201527f00000000000000000000000000000000000000000000000000000000000000006001600160a01b0316906370a0823190602401602060405180830381865afa158015614240573d6000803e3d6000fd5b505050506040513d601f19601f820116820180604052508101906142649190615a90565b61426e9085615c5f565b945050509250925092565b60007f00000000000000000000000000000000000000000000000000000000000000006001600160a01b0316826001600160a01b0316036142bc57506000919050565b6001600160a01b038083166000908152600d60209081526040808320548151632630c12f60e01b8152915190947f00000000000000000000000000000000000000000000000000000000000000001692632630c12f92600480820193918290030181865afa158015614332573d6000803e3d6000fd5b505050506040513d601f19601f820116820180604052508101906143569190615b76565b604051638b2f0f4f60e01b81526000600482018190529192506001600160a01b03831690638b2f0f4f90602401602060405180830381865afa1580156143a0573d6000803e3d6000fd5b505050506040513d601f19601f820116820180604052508101906143c49190615a90565b604051638b2f0f4f60e01b81526001600160a01b038781166004830152919250600091841690638b2f0f4f90602401602060405180830381865afa158015614410573d6000803e3d6000fd5b505050506040513d601f19601f820116820180604052508101906144349190615a90565b905060006144428284614a8f565b905060006144508683615491565b9050600061445e8288614a8f565b600654109998505050505050505050565b6040516355eb6b3560e01b81526001600160a01b03828116600483015260009182917f000000000000000000000000000000000000000000000000000000000000000016906355eb6b3590602401602060405180830381865afa1580156144da573d6000803e3d6000fd5b505050506040513d601f19601f820116820180604052508101906144fe9190615b76565b604051622708db60e01b81526001600160a01b0385811660048301529190911690622708db90602401600060405180830381865afa158015614544573d6000803e3d6000fd5b505050506040513d6000823e601f3d908101601f1916820160405261456c9190810190615ad2565b905060005b81518110156145c457600082828151811061458e5761458e615b60565b602002602001015190506145a181614279565b156145b157506001949350505050565b50806145bc81615b93565b915050614571565b5060009392505050565b60007f00000000000000000000000000000000000000000000000000000000000000006001600160a01b031663c5c63e656040518163ffffffff1660e01b8152600401600060405180830381865afa15801561462e573d6000803e3d6000fd5b505050506040513d6000823e601f3d908101601f191682016040526146569190810190615ad2565b805190915060005b81811015611aec57600083828151811061467a5761467a615b60565b60209081029190910101516040516355eb6b3560e01b81526001600160a01b0380831660048301529192506000917f000000000000000000000000000000000000000000000000000000000000000016906355eb6b3590602401602060405180830381865afa1580156146f1573d6000803e3d6000fd5b505050506040513d601f19601f820116820180604052508101906147159190615b76565b60405163415ec73b60e01b81526001600160a01b0384811660048301529192509082169063415ec73b90602401600060405180830381600087803b15801561475c57600080fd5b505af1158015614770573d6000803e3d6000fd5b505050505050808061478190615b93565b91505061465e565b6040516001600160a01b03808516602483015283166044820152606481018290526147c19085906323b872dd60e01b906084016138cb565b50505050565b8060006147d48286615c5f565b905060006147e1856151eb565b90505b8215613c93576000807f00000000000000000000000000000000000000000000000000000000000000006001600160a01b03166312968a298585614826615289565b6040518463ffffffff1660e01b815260040161484493929190615e22565b6040805180830381865afa158015614860573d6000803e3d6000fd5b505050506040513d601f19601f820116820180604052508101906148849190615e4b565b9092509050614894816064615c5f565b85101561489e5750835b6040516304042d6360e21b8152600481018390526000907f00000000000000000000000000000000000000000000000000000000000000006001600160a01b031690631010b58c90602401602060405180830381865afa158015614906573d6000803e3d6000fd5b505050506040513d601f19601f8201168201806040525081019061492a9190615b76565b905060006149388784613c9b565b6040516355eb6b3560e01b81526001600160a01b0384811660048301529192506000917f000000000000000000000000000000000000000000000000000000000000000016906355eb6b3590602401602060405180830381865afa1580156149a4573d6000803e3d6000fd5b505050506040513d601f19601f820116820180604052508101906149c89190615b76565b6040516001600160a01b0380861660248301527f000000000000000000000000000000000000000000000000000000000000000016604482015260648101849052909150614a4d9060840160408051601f198184030181529190526020810180516001600160e01b0316638340f54960e01b1790526001600160a01b038316906152a8565b50614a588289615abf565b975081868681518110614a6d57614a6d615b60565b60200260200101818151614a819190615c5f565b9052506147e4945050505050565b600081614a9e6012600a615ddd565b6139d69085615de9565b604080516001600160a01b038416602482015260448082018490528251808303909101815260649091019091526020810180516001600160e01b031663095ea7b360e01b179052614af984826154a9565b6147c1576040516001600160a01b038416602482015260006044820152614b2d90859063095ea7b360e01b906064016138cb565b6147c1848261503b565b600954610100900460ff16156129f457604051633f20953d60e11b81526000906001600160a01b037f00000000000000000000000000000000000000000000000000000000000000001690637e412a7a90614b989088908890600401615c9b565b602060405180830381865afa158015614bb5573d6000803e3d6000fd5b505050506040513d601f19601f82011682018060405250810190614bd99190615a90565b905060007f00000000000000000000000000000000000000000000000000000000000000006001600160a01b0316637e412a7a85856040518363ffffffff1660e01b8152600401614c2b929190615c9b565b602060405180830381865afa158015614c48573d6000803e3d6000fd5b505050506040513d601f19601f82011682018060405250810190614c6c9190615a90565b90507f00000000000000000000000000000000000000000000000000000000000000006001600160a01b031663dbcd89fa6040518163ffffffff1660e01b8152600401602060405180830381865afa158015614ccc573d6000803e3d6000fd5b505050506040513d601f19601f82011682018060405250810190614cf09190615b76565b604051630a48af5f60e11b81526001600160a01b038981166004830152602482018590526044820184905291909116906314915ebe90606401600060405180830381600087803b158015614d4357600080fd5b505af1158015614d57573d6000803e3d6000fd5b50505050614d658385614dcf565b15614d76576009805461ff00191690555b50505050505050565b600080546001600160a01b038381166001600160a01b0319831681178455604051919092169283917f8be0079c531659141344cd1fd0a4f28419497f9722a3daafe3b4186f6b6457e09190a35050565b6003546040516328cb81ef60e11b81526000916001600160a01b037f0000000000000000000000000000000000000000000000000000000000000000169163519703de91614e239187918791600401615ec4565b602060405180830381865afa158015614e40573d6000803e3d6000fd5b505050506040513d601f19601f82011682018060405250810190610f579190615cdc565b6000614e6e610f5e565b905060007f00000000000000000000000000000000000000000000000000000000000000006001600160a01b0316632630c12f6040518163ffffffff1660e01b8152600401602060405180830381865afa158015614ed0573d6000803e3d6000fd5b505050506040513d601f19601f82011682018060405250810190614ef49190615b76565b604051638b2f0f4f60e01b81526000600482018190529192506001600160a01b03831690638b2f0f4f90602401602060405180830381865afa158015614f3e573d6000803e3d6000fd5b505050506040513d601f19601f82011682018060405250810190614f629190615a90565b905060005b83518110156147c1576000848281518110614f8457614f84615b60565b6020908102919091010151604051638b2f0f4f60e01b81526001600160a01b038083166004830152919250600091861690638b2f0f4f90602401602060405180830381865afa158015614fdb573d6000803e3d6000fd5b505050506040513d601f19601f82011682018060405250810190614fff9190615a90565b905061500b8185614a8f565b6001600160a01b039092166000908152600d6020526040902091909155508061503381615b93565b915050614f67565b6000615090826040518060400160405280602081526020017f5361666545524332303a206c6f772d6c6576656c2063616c6c206661696c6564815250856001600160a01b03166139029092919063ffffffff16565b90508051600014806150b15750808060200190518101906150b19190615cdc565b611aec5760405162461bcd60e51b815260206004820152602a60248201527f5361666545524332303a204552433230206f7065726174696f6e20646964206e6044820152691bdd081cdd58d8d9595960b21b6064820152608401610402565b6060824710156151715760405162461bcd60e51b815260206004820152602660248201527f416464726573733a20696e73756666696369656e742062616c616e636520666f6044820152651c8818d85b1b60d21b6064820152608401610402565b600080866001600160a01b0316858760405161518d9190615f0d565b60006040518083038185875af1925050503d80600081146151ca576040519150601f19603f3d011682016040523d82523d6000602084013e6151cf565b606091505b50915091506151e087838387615550565b979650505050505050565b6060600082516001600160401b038111156152085761520861592a565b604051908082528060200260200182016040528015615231578160200160208202803683370190505b50905060005b8351811015613e215783818151811061525257615252615b60565b602002602001015182828151811061526c5761526c615b60565b60209081029190910101528061528181615b93565b915050615237565b600954600090610100900460ff166152a2575060035490565b50600090565b6060610f578383604051806060016040528060278152602001615f5d602791396155c9565b60006152e0826301ffc9a760e01b615300565b80156111e757506152f9826001600160e01b0319615300565b1592915050565b604080516001600160e01b03198316602480830191909152825180830390910181526044909101909152602080820180516001600160e01b03166301ffc9a760e01b178152825160009392849283928392918391908a617530fa92503d91506000519050828015615372575060208210155b80156151e0575015159695505050505050565b6000805b828110156153df57836001600160a01b03168582815181106153ad576153ad615b60565b60200260200101516001600160a01b0316036153cd576001915050610f57565b806153d781615b93565b915050615389565b506000949350505050565b6060816001600160401b038111156154045761540461592a565b60405190808252806020026020018201604052801561542d578160200160208202803683370190505b50905060005b82811015613e215783818151811061544d5761544d615b60565b602002602001015182828151811061546757615467615b60565b6001600160a01b03909216602092830291909101909101528061548981615b93565b915050615433565b6000818310156154a357828203610f57565b50900390565b6000806000846001600160a01b0316846040516154c69190615f0d565b6000604051808303816000865af19150503d8060008114615503576040519150601f19603f3d011682016040523d82523d6000602084013e615508565b606091505b50915091508180156155325750805115806155325750808060200190518101906155329190615cdc565b801561554757506001600160a01b0385163b15155b95945050505050565b606083156155bf5782516000036155b8576001600160a01b0385163b6155b85760405162461bcd60e51b815260206004820152601d60248201527f416464726573733a2063616c6c20746f206e6f6e2d636f6e74726163740000006044820152606401610402565b50816112e7565b6112e78383615641565b6060600080856001600160a01b0316856040516155e69190615f0d565b600060405180830381855af49150503d8060008114615621576040519150601f19603f3d011682016040523d82523d6000602084013e615626565b606091505b509150915061563786838387615550565b9695505050505050565b8151156156515781518083602001fd5b8060405162461bcd60e51b81526004016104029190615f29565b6001600160a01b03811681146137b757600080fd5b60008060006060848603121561569557600080fd5b833592506020840135915060408401356156ae8161566b565b809150509250925092565b6020808252825182820181905260009190848201906040850190845b818110156156fa5783516001600160a01b0316835292840192918401916001016156d5565b50909695505050505050565b60006020828403121561571857600080fd5b5035919050565b6000806040838503121561573257600080fd5b50508035926020909101359150565b602080825282518282018190526000919060409081850190868401855b828110156157945761578484835180516001600160a01b03168252602090810151910152565b928401929085019060010161575e565b5091979650505050505050565b600081518084526020808501945080840160005b838110156157d1578151875295820195908201906001016157b5565b509495945050505050565b83815282602082015260606040820152600061554760608301846157a1565b60006020828403121561580d57600080fd5b8135610f578161566b565b80151581146137b757600080fd5b6000806040838503121561583957600080fd5b82356158448161566b565b9150602083013561585481615818565b809150509250929050565b60008060006060848603121561587457600080fd5b833592506020840135915060408401356156ae81615818565b600080600080608085870312156158a357600080fd5b84356158ae8161566b565b9350602085013592506040850135915060608501356158cc81615818565b939692955090935050565b602080825282518282018190526000919060409081850190868401855b828110156157945761591a84835180516001600160a01b03168252602090810151910152565b92840192908501906001016158f4565b634e487b7160e01b600052604160045260246000fd5b604080519081016001600160401b03811182821017156159625761596261592a565b60405290565b604051601f8201601f191681016001600160401b03811182821017156159905761599061592a565b604052919050565b60006001600160401b038211156159b1576159b161592a565b5060051b60200190565b600060208083850312156159ce57600080fd5b82356001600160401b038111156159e457600080fd5b8301601f810185136159f557600080fd5b8035615a08615a0382615998565b615968565b81815260069190911b82018301908381019087831115615a2757600080fd5b928401925b828410156151e05760408489031215615a455760008081fd5b615a4d615940565b8435615a588161566b565b81528486013586820152825260409093019290840190615a2c565b600060208284031215615a8557600080fd5b8135610f5781615818565b600060208284031215615aa257600080fd5b5051919050565b634e487b7160e01b600052601160045260246000fd5b818103818111156111e7576111e7615aa9565b60006020808385031215615ae557600080fd5b82516001600160401b03811115615afb57600080fd5b8301601f81018513615b0c57600080fd5b8051615b1a615a0382615998565b81815260059190911b82018301908381019087831115615b3957600080fd5b928401925b828410156151e0578351615b518161566b565b82529284019290840190615b3e565b634e487b7160e01b600052603260045260246000fd5b600060208284031215615b8857600080fd5b8151610f578161566b565b600060018201615ba557615ba5615aa9565b5060010190565b60006020808385031215615bbf57600080fd5b82516001600160401b03811115615bd557600080fd5b8301601f81018513615be657600080fd5b8051615bf4615a0382615998565b81815260069190911b82018301908381019087831115615c1357600080fd5b928401925b828410156151e05760408489031215615c315760008081fd5b615c39615940565b8451615c448161566b565b81528486015186820152825260409093019290840190615c18565b808201808211156111e7576111e7615aa9565b6020808252600f908201526e1cd85b5948185cc818dd5c9c995b9d608a1b604082015260600190565b8281526040602082015260006112e760408301846157a1565b6020808252600e908201526d1b9bdd08185d5d1a1bdc9a5e995960921b604082015260600190565b600060208284031215615cee57600080fd5b8151610f5781615818565b600181815b80851115615d34578160001904821115615d1a57615d1a615aa9565b80851615615d2757918102915b93841c9390800290615cfe565b509250929050565b600082615d4b575060016111e7565b81615d58575060006111e7565b8160018114615d6e5760028114615d7857615d94565b60019150506111e7565b60ff841115615d8957615d89615aa9565b50506001821b6111e7565b5060208310610133831016604e8410600b8410161715615db7575081810a6111e7565b615dc18383615cf9565b8060001904821115615dd557615dd5615aa9565b029392505050565b6000610f578383615d3c565b80820281158282048414176111e7576111e7615aa9565b600082615e1d57634e487b7160e01b600052601260045260246000fd5b500490565b838152606060208201526000615e3b60608301856157a1565b9050826040830152949350505050565b60008060408385031215615e5e57600080fd5b505080516020909101519092909150565b6001600160a01b0386811682528581166020830152841660408201526060810183905260a0810160038310615eb457634e487b7160e01b600052602160045260246000fd5b8260808301529695505050505050565b606081526000615ed760608301866157a1565b60208301949094525060400152919050565b60005b83811015615f04578181015183820152602001615eec565b50506000910152565b60008251615f1f818460208701615ee9565b9190910192915050565b6020815260008251806020840152615f48816040850160208701615ee9565b601f01601f1916919091016040019291505056fe416464726573733a206c6f772d6c6576656c2064656c65676174652063616c6c206661696c6564a264697066735822122060b0e9196d6241f316cb329e4441f60135a7f7bb8ff4dfc732d4ce3682a2e95764736f6c6343000811003360c06040523480156200001157600080fd5b506040516200151738038062001517833981016040819052620000349162000166565b818160036200004483826200029f565b5060046200005382826200029f565b505050506001600160a01b0393841660805250911660a0526006805460ff191660ff9092169190911790556200036b565b80516001600160a01b03811681146200009c57600080fd5b919050565b634e487b7160e01b600052604160045260246000fd5b600082601f830112620000c957600080fd5b81516001600160401b0380821115620000e657620000e6620000a1565b604051601f8301601f19908116603f01168101908282118183101715620001115762000111620000a1565b816040528381526020925086838588010111156200012e57600080fd5b600091505b8382101562000152578582018301518183018401529082019062000133565b600093810190920192909252949350505050565b600080600080600060a086880312156200017f57600080fd5b6200018a8662000084565b94506200019a6020870162000084565b9350604086015160ff81168114620001b157600080fd5b60608701519093506001600160401b0380821115620001cf57600080fd5b620001dd89838a01620000b7565b93506080880151915080821115620001f457600080fd5b506200020388828901620000b7565b9150509295509295909350565b600181811c908216806200022557607f821691505b6020821081036200024657634e487b7160e01b600052602260045260246000fd5b50919050565b601f8211156200029a57600081815260208120601f850160051c81016020861015620002755750805b601f850160051c820191505b81811015620002965782815560010162000281565b5050505b505050565b81516001600160401b03811115620002bb57620002bb620000a1565b620002d381620002cc845462000210565b846200024c565b602080601f8311600181146200030b5760008415620002f25750858301515b600019600386901b1c1916600185901b17855562000296565b600085815260208120601f198616915b828110156200033c578886015182559484019460019091019084016200031b565b50858210156200035b5787850151600019600388901b60f8161c191681555b5050505050600190811b01905550565b60805160a051611155620003c2600039600081816101280152818161035b01526104a8015260008181610280015281816104fb01528181610729015281816107b101528181610d450152610e0901526111556000f3fe608060405234801561001057600080fd5b50600436106101005760003560e01c806370a0823111610097578063b8ce670d11610066578063b8ce670d14610240578063c5c94cee14610253578063dd62ed3e14610268578063f77c47911461027b57600080fd5b806370a08231146101e957806395d89b4114610212578063a457c2d71461021a578063a9059cbb1461022d57600080fd5b806318160ddd116100d357806318160ddd146101a657806323b872dd146101ae578063313ce567146101c157806339509351146101d657600080fd5b806306fdde03146101055780630754617214610123578063095ea7b3146101625780630d4d151314610185575b600080fd5b61010d6102a2565b60405161011a9190610ed2565b60405180910390f35b61014a7f000000000000000000000000000000000000000000000000000000000000000081565b6040516001600160a01b03909116815260200161011a565b610175610170366004610f38565b610334565b604051901515815260200161011a565b610198610193366004610f64565b61034e565b60405190815260200161011a565b600254610198565b6101756101bc366004610fa6565b6103bd565b60065460405160ff909116815260200161011a565b6101756101e4366004610f38565b6103e1565b6101986101f7366004610fe7565b6001600160a01b031660009081526020819052604090205490565b61010d610403565b610175610228366004610f38565b610412565b61017561023b366004610f38565b61048d565b61019861024e366004610f64565b61049b565b610266610261366004610fa6565b6104f9565b005b61019861027636600461100b565b6105bb565b61014a7f000000000000000000000000000000000000000000000000000000000000000081565b6060600380546102b190611044565b80601f01602080910402602001604051908101604052809291908181526020018280546102dd90611044565b801561032a5780601f106102ff5761010080835404028352916020019161032a565b820191906000526020600020905b81548152906001019060200180831161030d57829003601f168201915b5050505050905090565b6000336103428185856105e6565b60019150505b92915050565b6000336001600160a01b037f000000000000000000000000000000000000000000000000000000000000000016146103a15760405162461bcd60e51b81526004016103989061107e565b60405180910390fd5b6103ab828461070a565b6103b584846108be565b509092915050565b6000336103cb858285610989565b6103d6858585610a03565b506001949350505050565b6000336103428185856103f483836105bb565b6103fe91906110a6565b6105e6565b6060600480546102b190611044565b6000338161042082866105bb565b9050838110156104805760405162461bcd60e51b815260206004820152602560248201527f45524332303a2064656372656173656420616c6c6f77616e63652062656c6f77604482015264207a65726f60d81b6064820152608401610398565b6103d682868684036105e6565b600033610342818585610a03565b6000336001600160a01b037f000000000000000000000000000000000000000000000000000000000000000016146104e55760405162461bcd60e51b81526004016103989061107e565b6104ef828461070a565b6103b58484610bb2565b7f00000000000000000000000000000000000000000000000000000000000000006001600160a01b03166348439e7e6040518163ffffffff1660e01b8152600401602060405180830381865afa158015610557573d6000803e3d6000fd5b505050506040513d601f19601f8201168201806040525081019061057b91906110c7565b6001600160a01b0316336001600160a01b0316146105ab5760405162461bcd60e51b81526004016103989061107e565b6105b6838383610cf0565b505050565b6001600160a01b03918216600090815260016020908152604080832093909416825291909152205490565b6001600160a01b0383166106485760405162461bcd60e51b8152602060048201526024808201527f45524332303a20617070726f76652066726f6d20746865207a65726f206164646044820152637265737360e01b6064820152608401610398565b6001600160a01b0382166106a95760405162461bcd60e51b815260206004820152602260248201527f45524332303a20617070726f766520746f20746865207a65726f206164647265604482015261737360f01b6064820152608401610398565b6001600160a01b0383811660008181526001602090815260408083209487168084529482529182902085905590518481527f8c5be1e5ebec7d5bd14f71427d1e84f3dd0314c0f7b2291e5b200ac8c7c3b925910160405180910390a3505050565b604051636b6ba9bf60e11b81526001600160a01b0383811660048301527f0000000000000000000000000000000000000000000000000000000000000000169063d6d7537e90602401602060405180830381865afa158015610770573d6000803e3d6000fd5b505050506040513d601f19601f8201168201806040525081019061079491906110e4565b158015610827575060405163038d8da360e51b81523060048201527f00000000000000000000000000000000000000000000000000000000000000006001600160a01b0316906371b1b46090602401602060405180830381865afa158015610800573d6000803e3d6000fd5b505050506040513d601f19601f820116820180604052508101906108249190611106565b81115b156108ba576001600160a01b03821660009081526005602052604090205443900361089e5760405162461bcd60e51b815260206004820152602160248201527f63616e6e6f74206d696e742f6275726e20747769636520696e206120626c6f636044820152606b60f81b6064820152608401610398565b6001600160a01b03821660009081526005602052604090204390555b5050565b6001600160a01b0382166109145760405162461bcd60e51b815260206004820152601f60248201527f45524332303a206d696e7420746f20746865207a65726f2061646472657373006044820152606401610398565b61092060008383610dde565b806002600082825461093291906110a6565b90915550506001600160a01b038216600081815260208181526040808320805486019055518481527fddf252ad1be2c89b69c2b068fc378daa952ba7f163c4a11628f55a4df523b3ef910160405180910390a35050565b600061099584846105bb565b905060001981146109fd57818110156109f05760405162461bcd60e51b815260206004820152601d60248201527f45524332303a20696e73756666696369656e7420616c6c6f77616e63650000006044820152606401610398565b6109fd84848484036105e6565b50505050565b6001600160a01b038316610a675760405162461bcd60e51b815260206004820152602560248201527f45524332303a207472616e736665722066726f6d20746865207a65726f206164604482015264647265737360d81b6064820152608401610398565b6001600160a01b038216610ac95760405162461bcd60e51b815260206004820152602360248201527f45524332303a207472616e7366657220746f20746865207a65726f206164647260448201526265737360e81b6064820152608401610398565b610ad4838383610dde565b6001600160a01b03831660009081526020819052604090205481811015610b4c5760405162461bcd60e51b815260206004820152602660248201527f45524332303a207472616e7366657220616d6f756e7420657863656564732062604482015265616c616e636560d01b6064820152608401610398565b6001600160a01b03848116600081815260208181526040808320878703905593871680835291849020805487019055925185815290927fddf252ad1be2c89b69c2b068fc378daa952ba7f163c4a11628f55a4df523b3ef910160405180910390a36109fd565b6001600160a01b038216610c125760405162461bcd60e51b815260206004820152602160248201527f45524332303a206275726e2066726f6d20746865207a65726f206164647265736044820152607360f81b6064820152608401610398565b610c1e82600083610dde565b6001600160a01b03821660009081526020819052604090205481811015610c925760405162461bcd60e51b815260206004820152602260248201527f45524332303a206275726e20616d6f756e7420657863656564732062616c616e604482015261636560f01b6064820152608401610398565b6001600160a01b0383166000818152602081815260408083208686039055600280548790039055518581529192917fddf252ad1be2c89b69c2b068fc378daa952ba7f163c4a11628f55a4df523b3ef910160405180910390a3505050565b816001600160a01b0316836001600160a01b031614158015610d2957506001600160a01b03831660009081526005602052604090205443145b8015610dbb575060405163038d8da360e51b81523060048201527f00000000000000000000000000000000000000000000000000000000000000006001600160a01b0316906371b1b46090602401602060405180830381865afa158015610d94573d6000803e3d6000fd5b505050506040513d601f19601f82011682018060405250810190610db89190611106565b81115b156105b657506001600160a01b0316600090815260056020526040902043905550565b6001600160a01b0383161580610dfb57506001600160a01b038216155b15610e0557505050565b60007f00000000000000000000000000000000000000000000000000000000000000006001600160a01b03166348439e7e6040518163ffffffff1660e01b8152600401602060405180830381865afa158015610e65573d6000803e3d6000fd5b505050506040513d601f19601f82011682018060405250810190610e8991906110c7565b9050806001600160a01b0316846001600160a01b03161480610ebc5750806001600160a01b0316836001600160a01b0316145b15610ec75750505050565b6109fd848484610cf0565b600060208083528351808285015260005b81811015610eff57858101830151858201604001528201610ee3565b506000604082860101526040601f19601f8301168501019250505092915050565b6001600160a01b0381168114610f3557600080fd5b50565b60008060408385031215610f4b57600080fd5b8235610f5681610f20565b946020939093013593505050565b600080600060608486031215610f7957600080fd5b8335610f8481610f20565b9250602084013591506040840135610f9b81610f20565b809150509250925092565b600080600060608486031215610fbb57600080fd5b8335610fc681610f20565b92506020840135610fd681610f20565b929592945050506040919091013590565b600060208284031215610ff957600080fd5b813561100481610f20565b9392505050565b6000806040838503121561101e57600080fd5b823561102981610f20565b9150602083013561103981610f20565b809150509250929050565b600181811c9082168061105857607f821691505b60208210810361107857634e487b7160e01b600052602260045260246000fd5b50919050565b6020808252600e908201526d1b9bdd08185d5d1a1bdc9a5e995960921b604082015260600190565b8082018082111561034857634e487b7160e01b600052601160045260246000fd5b6000602082840312156110d957600080fd5b815161100481610f20565b6000602082840312156110f657600080fd5b8151801515811461100457600080fd5b60006020828403121561111857600080fd5b505191905056fea2646970667358221220160f75bd8dd6eee3c41e6e92401893b9d88332b6b4536dec6eb583525622a08364736f6c6343000811003360e06040523480156200001157600080fd5b506040516200288a3803806200288a833981016040819052620000349162000069565b336080526001600160a01b0391821660a0521660c052620000a8565b6001600160a01b03811681146200006657600080fd5b50565b600080604083850312156200007d57600080fd5b82516200008a8162000050565b60208401519092506200009d8162000050565b809150509250929050565b60805160a05160c05161273b6200014f600039600081816101eb0152818161074a015281816107c501528181610df101528181610e6c01526116ab0152600081816102d6015281816106b301528181610a6e01528181610d5a015281816113450152818161161f01526117d80152600081816102120152818161056f0152818161096e01528181610af201528181611043015281816112af0152611526015261273b6000f3fe608060405234801561001057600080fd5b50600436106101165760003560e01c80637e412a7a116100a2578063ac6c525111610071578063ac6c525114610283578063c5c63e6514610296578063c699e633146102ab578063d914cd4b146102be578063f77c4791146102d157600080fd5b80637e412a7a146102345780638c788de0146102555780638dbfb25b1461025d5780639765ca151461027057600080fd5b806339d82513116100e957806339d825131461019d5780633b7d0946146101b0578063519703de146101c35780636f307dc3146101e65780637d59ce011461020d57600080fd5b80631010b58c1461011b57806312968a291461014b57806322acb8671461017357806336797aec14610188575b600080fd5b61012e610129366004612116565b6102f8565b6040516001600160a01b0390911681526020015b60405180910390f35b61015e61015936600461222e565b61030a565b60408051928352602083019190915201610142565b61017b61047d565b604051610142919061227e565b61019b6101963660046122eb565b610564565b005b61015e6101ab36600461222e565b610658565b61019b6101be3660046122eb565b610963565b6101d66101d1366004612308565b610cf9565b6040519015158152602001610142565b61012e7f000000000000000000000000000000000000000000000000000000000000000081565b61012e7f000000000000000000000000000000000000000000000000000000000000000081565b610247610242366004612356565b610fa4565b604051908152602001610142565b610247611027565b61019b61026b36600461239d565b611038565b61024761027e3660046122eb565b6112a2565b6102476102913660046122eb565b6114f6565b61029e611503565b604051610142919061245c565b6101d66102b93660046122eb565b61150f565b61019b6102cc3660046122eb565b61151b565b61012e7f000000000000000000000000000000000000000000000000000000000000000081565b600061030481836119ab565b92915050565b81516000908190600019825b8281101561041a57600061032a81836119ab565b90506000888381518110610340576103406124a9565b6020026020010151905060006103608360026119b790919063ffffffff16565b9050600061036e8c836119cc565b90508083106103805750505050610408565b60006103a38b6103926012600a6125b9565b61039c91906125c5565b84906119cc565b90506103b16012600a6125b9565b81116103bd57806103c9565b6103c96012600a6125b9565b905060006103d78e836119cc565b905060006103e586836125d8565b90508a81116103fa5750505050505050610408565b809a50879850505050505050505b80610412816125eb565b915050610316565b5060001981136104715760405162461bcd60e51b815260206004820152601d60248201527f6572726f722072657472696576696e67206465706f73697420706f6f6c00000060448201526064015b60405180910390fd5b96919550909350505050565b6060600061048b60006119ee565b905060008167ffffffffffffffff8111156104a8576104a861212f565b6040519080825280602002602001820160405280156104ed57816020015b60408051808201909152600080825260208201528152602001906001900390816104c65790505b50905060005b8281101561055d576000806105096002846119f8565b915091506040518060400160405280836001600160a01b031681526020018281525084848151811061053d5761053d6124a9565b602002602001018190525050508080610555906125eb565b9150506104f3565b5092915050565b336001600160a01b037f000000000000000000000000000000000000000000000000000000000000000016146105ac5760405162461bcd60e51b815260040161046890612604565b6105b58161150f565b6105fa5760405162461bcd60e51b81526020600482015260166024820152751c1bdbdb081a5cc81b9bdd081c9959da5cdd195c995960521b6044820152606401610468565b6106056002826119b7565b60000361064c5760405162461bcd60e51b81526020600482015260156024820152740706f6f6c2077656967687420616c7265616479203605c1b6044820152606401610468565b61065581611a14565b50565b81516000908190600019825b8281101561090957600061067881836119ab565b905060006106876002836119b7565b9050600089848151811061069d5761069d6124a9565b60200260200101519050816000036108945760007f00000000000000000000000000000000000000000000000000000000000000006001600160a01b0316632630c12f6040518163ffffffff1660e01b8152600401602060405180830381865afa15801561070f573d6000803e3d6000fd5b505050506040513d601f19601f82011682018060405250810190610733919061262c565b604051638b2f0f4f60e01b81526001600160a01b037f0000000000000000000000000000000000000000000000000000000000000000811660048301529190911690638b2f0f4f90602401602060405180830381865afa15801561079b573d6000803e3d6000fd5b505050506040513d601f19601f820116820180604052508101906107bf9190612649565b905060007f00000000000000000000000000000000000000000000000000000000000000006001600160a01b031663313ce5676040518163ffffffff1660e01b8152600401602060405180830381865afa158015610821573d6000803e3d6000fd5b505050506040513d601f19601f820116820180604052508101906108459190612662565b61085090600a612685565b61085a8484612694565b61086491906126ab565b905061087a600268056bc75e2d631000006126ab565b81106108915750939750955061095b945050505050565b50505b60006108a08c846119cc565b90508082116108b257505050506108f7565b60006108be828c6119cc565b6108c890836125d8565b905060006108d682856125d8565b90508981116108ea575050505050506108f7565b8099508697505050505050505b80610901816125eb565b915050610664565b5060001981136104715760405162461bcd60e51b815260206004820152601e60248201527f6572726f722072657472696576696e6720776974686472617720706f6f6c00006044820152606401610468565b935093915050565b336001600160a01b037f000000000000000000000000000000000000000000000000000000000000000016146109ab5760405162461bcd60e51b815260040161046890612604565b6109b6600082611d6b565b6109f35760405162461bcd60e51b815260206004820152600e60248201526d1c1bdbdb081b9bdd08185919195960921b6044820152606401610468565b60016109ff60006119ee565b11610a4c5760405162461bcd60e51b815260206004820152601760248201527f63616e6e6f742072656d6f7665206c61737420706f6f6c0000000000000000006044820152606401610468565b6040516355eb6b3560e01b81526001600160a01b0382811660048301526000917f0000000000000000000000000000000000000000000000000000000000000000909116906355eb6b3590602401602060405180830381865afa158015610ab7573d6000803e3d6000fd5b505050506040513d601f19601f82011682018060405250810190610adb919061262c565b604051633dfa59d160e01b81526001600160a01b037f0000000000000000000000000000000000000000000000000000000000000000811660048301528481166024830152919250600091831690633dfa59d190604401602060405180830381865afa158015610b4f573d6000803e3d6000fd5b505050506040513d601f19601f82011682018060405250810190610b739190612649565b905068056bc75e2d631000008110610bcd5760405162461bcd60e51b815260206004820152601860248201527f706f6f6c2068617320616c6c6f63617465642066756e647300000000000000006044820152606401610468565b6000610bda6002856119b7565b90508015610c205760405162461bcd60e51b81526020600482015260136024820152721c1bdbdb081a185cc81dd95a59da1d081cd95d606a1b6044820152606401610468565b610c2b600085611d8d565b610c6a5760405162461bcd60e51b815260206004820152601060248201526f1c1bdbdb081b9bdd081c995b5bdd995960821b6044820152606401610468565b610c75600285611da2565b610cb65760405162461bcd60e51b81526020600482015260126024820152711dd95a59da1d081b9bdd081c995b5bdd995960721b6044820152606401610468565b6040516001600160a01b03851681527fca2456580e344539a90d4d0369fc77866a3135141e2e51621b88d2f010c6bbe2906020015b60405180910390a150505050565b600082600003610d0b57506001610f9d565b60005b8451811015610f97576000610d2e610d2682846119ab565b6002906119b7565b90506000868381518110610d4457610d446124a9565b6020026020010151905081600003610f3e5760007f00000000000000000000000000000000000000000000000000000000000000006001600160a01b0316632630c12f6040518163ffffffff1660e01b8152600401602060405180830381865afa158015610db6573d6000803e3d6000fd5b505050506040513d601f19601f82011682018060405250810190610dda919061262c565b604051638b2f0f4f60e01b81526001600160a01b037f0000000000000000000000000000000000000000000000000000000000000000811660048301529190911690638b2f0f4f90602401602060405180830381865afa158015610e42573d6000803e3d6000fd5b505050506040513d601f19601f82011682018060405250810190610e669190612649565b905060007f00000000000000000000000000000000000000000000000000000000000000006001600160a01b031663313ce5676040518163ffffffff1660e01b8152600401602060405180830381865afa158015610ec8573d6000803e3d6000fd5b505050506040513d601f19601f82011682018060405250810190610eec9190612662565b610ef790600a612685565b610f018484612694565b610f0b91906126ab565b9050610f21600268056bc75e2d631000006126ab565b8110610f3557600095505050505050610f9d565b50505050610f85565b6000610f4a87846119cc565b90506000610f588284611db7565b90506000610f668284611dcf565b905087811115610f7f5760009650505050505050610f9d565b50505050505b80610f8f816125eb565b915050610d0e565b50600190505b9392505050565b60008060005b835181101561101f576000610fc2610d2682846119ab565b90506000610fd087836119cc565b9050610ffe868481518110610fe757610fe76124a9565b602002602001015182611db790919063ffffffff16565b61100890856125c5565b935050508080611017906125eb565b915050610faa565b509392505050565b600061103360006119ee565b905090565b336001600160a01b037f000000000000000000000000000000000000000000000000000000000000000016146110805760405162461bcd60e51b815260040161046890612604565b61108a60006119ee565b8151146110d05760405162461bcd60e51b8152602060048201526014602482015273696e76616c696420706f6f6c207765696768747360601b6044820152606401610468565b60008060005b83518110156112425760008482815181106110f3576110f36124a9565b6020026020010151600001519050826001600160a01b0316816001600160a01b0316116111555760405162461bcd60e51b815260206004820152601060248201526f1c1bdbdb1cc81b9bdd081cdbdc9d195960821b6044820152606401610468565b61115e8161150f565b6111a35760405162461bcd60e51b81526020600482015260166024820152751c1bdbdb081a5cc81b9bdd081c9959da5cdd195c995960521b6044820152606401610468565b60008583815181106111b7576111b76124a9565b60200260200101516020015190506111db82826002611de89092919063ffffffff16565b50816001600160a01b03167f49175c3467edeba7662e939bf84305eaf5084072855b0560f6ac3e145cd172ae8260405161121791815260200190565b60405180910390a261122981866125c5565b945090925081905061123a816125eb565b9150506110d6565b5061124f6012600a6125b9565b821461129d5760405162461bcd60e51b815260206004820152601760248201527f7765696768747320646f206e6f742073756d20746f20310000000000000000006044820152606401610468565b505050565b6000336001600160a01b037f000000000000000000000000000000000000000000000000000000000000000016146112ec5760405162461bcd60e51b815260040161046890612604565b6112f58261150f565b6113415760405162461bcd60e51b815260206004820152601960248201527f637572766520706f6f6c206e6f742072656769737465726564000000000000006044820152606401610468565b60007f00000000000000000000000000000000000000000000000000000000000000006001600160a01b0316639f82b2176040518163ffffffff1660e01b8152600401602060405180830381865afa1580156113a1573d6000803e3d6000fd5b505050506040513d601f19601f820116820180604052508101906113c5919061262c565b6040516343b55f3560e01b81526001600160a01b0385811660048301529192506000918316906343b55f3590602401602060405180830381865afa158015611411573d6000803e3d6000fd5b505050506040513d601f19601f820116820180604052508101906114359190612649565b604051631cec69e560e11b8152600481018290529091506001600160a01b038316906339d8d3ca90602401602060405180830381865afa15801561147d573d6000803e3d6000fd5b505050506040513d601f19601f820116820180604052508101906114a191906126cd565b6114ed5760405162461bcd60e51b815260206004820181905260248201527f636f6e76657820706f6f6c20706964206973206e6f74207368757420646f776e6044820152606401610468565b610f9d84611a14565b60006103046002836119b7565b60606110336000611e06565b60006103048183611d6b565b336001600160a01b037f000000000000000000000000000000000000000000000000000000000000000016146115635760405162461bcd60e51b815260040161046890612604565b600a61156f60006119ee565b106115b05760405162461bcd60e51b81526020600482015260116024820152701b585e081c1bdbdb1cc81c995858da1959607a1b6044820152606401610468565b6115bb600082611d6b565b156115fd5760405162461bcd60e51b81526020600482015260126024820152711c1bdbdb08185b1c9958591e48185919195960721b6044820152606401610468565b6040516355eb6b3560e01b81526001600160a01b0382811660048301526000917f0000000000000000000000000000000000000000000000000000000000000000909116906355eb6b3590602401602060405180830381865afa158015611668573d6000803e3d6000fd5b505050506040513d601f19601f8201168201806040525081019061168c919061262c565b604051632aa2d3f760e21b81526001600160a01b0384811660048301527f00000000000000000000000000000000000000000000000000000000000000008116602483015291925060009183169063aa8b4fdc90604401602060405180830381865afa158015611700573d6000803e3d6000fd5b505050506040513d601f19601f8201168201806040525081019061172491906126cd565b9050806117665760405162461bcd60e51b815260206004820152601060248201526f18dbda5b881b9bdd081a5b881c1bdbdb60821b6044820152606401610468565b604051631da958a960e21b81526001600160a01b038481166004830152600091908416906376a562a490602401602060405180830381865afa1580156117b0573d6000803e3d6000fd5b505050506040513d601f19601f820116820180604052508101906117d4919061262c565b90507f00000000000000000000000000000000000000000000000000000000000000006001600160a01b0316632630c12f6040518163ffffffff1660e01b8152600401602060405180830381865afa158015611834573d6000803e3d6000fd5b505050506040513d601f19601f82011682018060405250810190611858919061262c565b6040516375151b6360e01b81526001600160a01b03838116600483015291909116906375151b6390602401602060405180830381865afa1580156118a0573d6000803e3d6000fd5b505050506040513d601f19601f820116820180604052508101906118c491906126cd565b6119085760405162461bcd60e51b815260206004820152601560248201527431b0b73737ba10383934b1b2902628102a37b5b2b760591b6044820152606401610468565b611913600285611e13565b611926576119246002856000611de8565b505b611931600085611e28565b6119725760405162461bcd60e51b815260206004820152601260248201527119985a5b1959081d1bc8185919081c1bdbdb60721b6044820152606401610468565b6040516001600160a01b03851681527fbadad752e47b51d72487f7881b9baa7c0ed207b8d84f37c0e23eb0a6d67e5b1590602001610ceb565b6000610f9d8383611e3d565b6000610f9d836001600160a01b038416611e67565b60006119da6012600a6125b9565b6119e48385612694565b610f9d91906126ab565b6000610304825490565b6000808080611a078686611ed7565b9097909650945050505050565b6000611a216002836119b7565b905080600003611a2f575050565b611a3b6012600a6125b9565b8103611a825760405162461bcd60e51b815260206004820152601660248201527518d85b89dd081c995b5bdd99481b185cdd081c1bdbdb60521b6044820152606401610468565b6000611aba611a926002856119b7565b611a9e6012600a6125b9565b611aa891906125d8565b611ab46012600a6125b9565b90611dcf565b90506000611ac860006119ee565b9050611ad76002856000611de8565b50836001600160a01b03167f49175c3467edeba7662e939bf84305eaf5084072855b0560f6ac3e145cd172ae6000604051611b1491815260200190565b60405180910390a26000611b296001836125d8565b67ffffffffffffffff811115611b4157611b4161212f565b604051908082528060200260200182016040528015611b6a578160200160208202803683370190505b5090506000611b7a6001846125d8565b67ffffffffffffffff811115611b9257611b9261212f565b604051908082528060200260200182016040528015611bbb578160200160208202803683370190505b5090506000805b84811015611c69576000611bd681836119ab565b90506000611be56002836119b7565b905080600003611bf6575050611c57565b81868581518110611c0957611c096124a9565b60200260200101906001600160a01b031690816001600160a01b03168152505080858581518110611c3c57611c3c6124a9565b602090810291909101015283611c51816125eb565b94505050505b80611c61816125eb565b915050611bc2565b506000805b82811015611d60576000858281518110611c8a57611c8a6124a9565b602002602001015190506000611cc289878581518110611cac57611cac6124a9565b60200260200101516119cc90919063ffffffff16565b9050611ccf6001866125d8565b8303611cef5783611ce26012600a6125b9565b611cec91906125d8565b90505b611cf981856125c5565b9350611d0760028383611de8565b50816001600160a01b03167f49175c3467edeba7662e939bf84305eaf5084072855b0560f6ac3e145cd172ae82604051611d4391815260200190565b60405180910390a250508080611d58906125eb565b915050611c6e565b505050505050505050565b6001600160a01b03811660009081526001830160205260408120541515610f9d565b6000610f9d836001600160a01b038416611f02565b6000610f9d836001600160a01b038416611ff5565b600081831015611dc957828203610f9d565b50900390565b600081611dde6012600a6125b9565b6119e49085612694565b6000611dfe846001600160a01b03851684612012565b949350505050565b60606000610f9d8361202f565b6000610f9d836001600160a01b03841661208b565b6000610f9d836001600160a01b038416612097565b6000826000018281548110611e5457611e546124a9565b9060005260206000200154905092915050565b600081815260028301602052604081205480151580611e8b5750611e8b848461208b565b610f9d5760405162461bcd60e51b815260206004820152601e60248201527f456e756d657261626c654d61703a206e6f6e6578697374656e74206b657900006044820152606401610468565b60008080611ee585856119ab565b600081815260029690960160205260409095205494959350505050565b60008181526001830160205260408120548015611feb576000611f266001836125d8565b8554909150600090611f3a906001906125d8565b9050818114611f9f576000866000018281548110611f5a57611f5a6124a9565b9060005260206000200154905080876000018481548110611f7d57611f7d6124a9565b6000918252602080832090910192909255918252600188019052604090208390555b8554869080611fb057611fb06126ef565b600190038181906000526020600020016000905590558560010160008681526020019081526020016000206000905560019350505050610304565b6000915050610304565b60008181526002830160205260408120819055610f9d83836120e6565b60008281526002840160205260408120829055611dfe84846120f2565b60608160000180548060200260200160405190810160405280929190818152602001828054801561207f57602002820191906000526020600020905b81548152602001906001019080831161206b575b50505050509050919050565b6000610f9d83836120fe565b60008181526001830160205260408120546120de57508154600181810184556000848152602080822090930184905584548482528286019093526040902091909155610304565b506000610304565b6000610f9d8383611f02565b6000610f9d8383612097565b60008181526001830160205260408120541515610f9d565b60006020828403121561212857600080fd5b5035919050565b634e487b7160e01b600052604160045260246000fd5b6040805190810167ffffffffffffffff811182821017156121685761216861212f565b60405290565b604051601f8201601f1916810167ffffffffffffffff811182821017156121975761219761212f565b604052919050565b600067ffffffffffffffff8211156121b9576121b961212f565b5060051b60200190565b600082601f8301126121d457600080fd5b813560206121e96121e48361219f565b61216e565b82815260059290921b8401810191818101908684111561220857600080fd5b8286015b84811015612223578035835291830191830161220c565b509695505050505050565b60008060006060848603121561224357600080fd5b83359250602084013567ffffffffffffffff81111561226157600080fd5b61226d868287016121c3565b925050604084013590509250925092565b602080825282518282018190526000919060409081850190868401855b828110156122c957815180516001600160a01b0316855286015186850152928401929085019060010161229b565b5091979650505050505050565b6001600160a01b038116811461065557600080fd5b6000602082840312156122fd57600080fd5b8135610f9d816122d6565b60008060006060848603121561231d57600080fd5b833567ffffffffffffffff81111561233457600080fd5b612340868287016121c3565b9660208601359650604090950135949350505050565b6000806040838503121561236957600080fd5b82359150602083013567ffffffffffffffff81111561238757600080fd5b612393858286016121c3565b9150509250929050565b600060208083850312156123b057600080fd5b823567ffffffffffffffff8111156123c757600080fd5b8301601f810185136123d857600080fd5b80356123e66121e48261219f565b81815260069190911b8201830190838101908783111561240557600080fd5b928401925b8284101561245157604084890312156124235760008081fd5b61242b612145565b8435612436816122d6565b8152848601358682015282526040909301929084019061240a565b979650505050505050565b6020808252825182820181905260009190848201906040850190845b8181101561249d5783516001600160a01b031683529284019291840191600101612478565b50909695505050505050565b634e487b7160e01b600052603260045260246000fd5b634e487b7160e01b600052601160045260246000fd5b600181815b808511156125105781600019048211156124f6576124f66124bf565b8085161561250357918102915b93841c93908002906124da565b509250929050565b60008261252757506001610304565b8161253457506000610304565b816001811461254a576002811461255457612570565b6001915050610304565b60ff841115612565576125656124bf565b50506001821b610304565b5060208310610133831016604e8410600b8410161715612593575081810a610304565b61259d83836124d5565b80600019048211156125b1576125b16124bf565b029392505050565b6000610f9d8383612518565b80820180821115610304576103046124bf565b81810381811115610304576103046124bf565b6000600182016125fd576125fd6124bf565b5060010190565b6020808252600e908201526d1b9bdd08185d5d1a1bdc9a5e995960921b604082015260600190565b60006020828403121561263e57600080fd5b8151610f9d816122d6565b60006020828403121561265b57600080fd5b5051919050565b60006020828403121561267457600080fd5b815160ff81168114610f9d57600080fd5b6000610f9d60ff841683612518565b8082028115828204841417610304576103046124bf565b6000826126c857634e487b7160e01b600052601260045260246000fd5b500490565b6000602082840312156126df57600080fd5b81518015158114610f9d57600080fd5b634e487b7160e01b600052603160045260246000fdfea2646970667358221220bbfff24b88d8efa029fa1f79e284862232aa7e6ecab53f8f11c1f365bb31197d64736f6c63430008110033","bytecodeSha1":"a7457c31665f10d3821aae77fc92527ec662d88e","compiler":{"evm_version":"london","optimizer":{"enabled":true,"runs":200},"version":"0.8.17+commit.8df45f5f"},"contractName":"ConicEthPool","language":"Solidity","natspec":{"kind":"dev","methods":{"cachedTotalUnderlying()":{"details":"this is useful in cases where we want to reduce gas usage and do not need a precise value","notice":"same as `totalUnderlying` but returns a cached version that might be slightly outdated if oracle prices have changed"},"deposit(uint256,uint256)":{"notice":"Deposit underlying","params":{"minLpReceived":"The minimum amoun of LP to accept from the deposit","underlyingAmount":"Amount of underlying to deposit"},"returns":{"_0":"lpReceived The amount of LP received"}},"deposit(uint256,uint256,bool)":{"notice":"Deposit underlying","params":{"minLpReceived":"The minimum amoun of LP to accept from the deposit","stake":"Whether or not to stake in the LpTokenStaker","underlyingAmount":"Amount of underlying to deposit"},"returns":{"_0":"lpReceived The amount of LP received"}},"depositFor(address,uint256,uint256,bool)":{"notice":"Deposit underlying on behalf of someone","params":{"minLpReceived":"The minimum amount of LP to accept from the deposit","underlyingAmount":"Amount of underlying to deposit"},"returns":{"_0":"lpReceived The amount of LP received"}},"emergencyRebalancingRewardsFactor()":{"notice":"The factor by which the rebalancing reward is multiplied when a pool is depegged"},"exchangeRate()":{"notice":"Get current exchange rate for the pool's LP token to the underlying"},"handleDepeggedCurvePool(address)":{"details":"Cannot be called if the underlying of this pool itself has depegged.","notice":"Called when an underlying of a Curve Pool has depegged and we want to exit the pool. Will check if a coin has depegged, and will revert if not. Sets the weight of the Curve Pool to 0, and re-enables CNC rewards for deposits.","params":{"curvePool_":"The Curve Pool to handle."}},"handleInvalidConvexPid(address)":{"notice":"Allows anyone to set the weight of a Curve pool to 0 if the Convex pool for the associated PID has been shut down. This is a very unlikely outcome and the method does not reenable rebalancing rewards.","params":{"curvePool_":"Curve pool for which the Convex PID is invalid (has been shut down)"}},"owner()":{"details":"Returns the address of the current owner."},"rebalancingRewardsActivatedAt()":{"notice":"the time at which rebalancing rewards have been activated"},"rebalancingRewardsFactor()":{"notice":"The factor by which the rebalancing reward is multiplied this is 1 (scaled to 18 decimals) for normal rebalancing situations but is set to `emergencyRebalancingRewardsFactor` when a pool is depegged"},"renounceOwnership()":{"details":"Leaves the contract without owner. It will not be possible to call `onlyOwner` functions. Can only be called by the current owner. NOTE: Renouncing ownership will leave the contract without an owner, thereby disabling any functionality that is only available to the owner."},"totalUnderlying()":{"notice":"Get current underlying balance of pool"},"transferOwnership(address)":{"details":"Transfers ownership of the contract to a new account (`newOwner`). Can only be called by the current owner."},"unstakeAndWithdraw(uint256,uint256,address)":{"notice":"Unstake LP Tokens and withdraw underlying","params":{"conicLpAmount":"Amount of LP tokens to burn","minUnderlyingReceived":"Minimum amount of underlying to redeem This should always be set to a reasonable value (e.g. 2%), otherwise the user withdrawing could be forced into paying a withdrawal penalty fee by another user"},"returns":{"_0":"uint256 Total underlying withdrawn"}},"usdExchangeRate()":{"details":"This is using the cached total underlying value, so is not precisely accurate.","notice":"Get current exchange rate for the pool's LP token to USD"},"withdraw(uint256,uint256,address)":{"notice":"Withdraw underlying","params":{"conicLpAmount":"Amount of LP tokens to burn","minUnderlyingReceived":"Minimum amount of underlying to redeem This should always be set to a reasonable value (e.g. 2%), otherwise the user withdrawing could be forced into paying a withdrawal penalty fee by another user"},"returns":{"_0":"uint256 Total underlying withdrawn"}}},"version":1},"opcodes":"PUSH1 0x80 PUSH1 0x40 MSTORE PUSH1 0x4 CALLDATASIZE LT PUSH2 0x385 JUMPI PUSH1 0x0 CALLDATALOAD PUSH1 0xE0 SHR DUP1 PUSH4 0x8456CB59 GT PUSH2 0x1D1 JUMPI DUP1 PUSH4 0xC5C63E65 GT PUSH2 0x102 JUMPI DUP1 PUSH4 0xD6038DC6 GT PUSH2 0xA0 JUMPI DUP1 PUSH4 0xE2BBB158 GT PUSH2 0x6F JUMPI DUP1 PUSH4 0xE2BBB158 EQ PUSH2 0xAA4 JUMPI DUP1 PUSH4 0xF0EA87F6 EQ PUSH2 0xAC4 JUMPI DUP1 PUSH4 0xF2FDE38B EQ PUSH2 0xADA JUMPI DUP1 PUSH4 0xF77C4791 EQ PUSH2 0xAFA JUMPI PUSH1 0x0 DUP1 REVERT JUMPDEST DUP1 PUSH4 0xD6038DC6 EQ PUSH2 0xA39 JUMPI DUP1 PUSH4 0xD914CD4B EQ PUSH2 0xA4E JUMPI DUP1 PUSH4 0xDA748B10 EQ PUSH2 0xA6E JUMPI DUP1 PUSH4 0xDDDBC049 EQ PUSH2 0xA84 JUMPI PUSH1 0x0 DUP1 REVERT JUMPDEST DUP1 PUSH4 0xC9387332 GT PUSH2 0xDC JUMPI DUP1 PUSH4 0xC9387332 EQ PUSH2 0x9D9 JUMPI DUP1 PUSH4 0xCB03A464 EQ PUSH2 0x9F9 JUMPI DUP1 PUSH4 0xCE75040E EQ PUSH2 0xA0E JUMPI DUP1 PUSH4 0xD1E6C1E5 EQ PUSH2 0xA23 JUMPI PUSH1 0x0 DUP1 REVERT JUMPDEST DUP1 PUSH4 0xC5C63E65 EQ PUSH2 0x98F JUMPI DUP1 PUSH4 0xC699E633 EQ PUSH2 0x9A4 JUMPI DUP1 PUSH4 0xC70920BC EQ PUSH2 0x9C4 JUMPI PUSH1 0x0 DUP1 REVERT JUMPDEST DUP1 PUSH4 0x9E486562 GT PUSH2 0x16F JUMPI DUP1 PUSH4 0xB0A43968 GT PUSH2 0x149 JUMPI DUP1 PUSH4 0xB0A43968 EQ PUSH2 0x91D JUMPI DUP1 PUSH4 0xB187BD26 EQ PUSH2 0x93D JUMPI DUP1 PUSH4 0xB7B3B8C0 EQ PUSH2 0x955 JUMPI DUP1 PUSH4 0xBF86D690 EQ PUSH2 0x975 JUMPI PUSH1 0x0 DUP1 REVERT JUMPDEST DUP1 PUSH4 0x9E486562 EQ PUSH2 0x8C8 JUMPI DUP1 PUSH4 0xA58F1D8E EQ PUSH2 0x8E7 JUMPI DUP1 PUSH4 0xAC6C5251 EQ PUSH2 0x8FD JUMPI PUSH1 0x0 DUP1 REVERT JUMPDEST DUP1 PUSH4 0x8DA5CB5B GT PUSH2 0x1AB JUMPI DUP1 PUSH4 0x8DA5CB5B EQ PUSH2 0x855 JUMPI DUP1 PUSH4 0x8DBFB25B EQ PUSH2 0x873 JUMPI DUP1 PUSH4 0x904C9BF0 EQ PUSH2 0x893 JUMPI DUP1 PUSH4 0x9765CA15 EQ PUSH2 0x8A8 JUMPI PUSH1 0x0 DUP1 REVERT JUMPDEST DUP1 PUSH4 0x8456CB59 EQ PUSH2 0x809 JUMPI DUP1 PUSH4 0x86FE9A66 EQ PUSH2 0x81E JUMPI DUP1 PUSH4 0x8C788DE0 EQ PUSH2 0x840 JUMPI PUSH1 0x0 DUP1 REVERT JUMPDEST DUP1 PUSH4 0x36797AEC GT PUSH2 0x2B6 JUMPI DUP1 PUSH4 0x441A3E70 GT PUSH2 0x254 JUMPI DUP1 PUSH4 0x6E4F3338 GT PUSH2 0x223 JUMPI DUP1 PUSH4 0x6E4F3338 EQ PUSH2 0x76D JUMPI DUP1 PUSH4 0x6F307DC3 EQ PUSH2 0x7AB JUMPI DUP1 PUSH4 0x715018A6 EQ PUSH2 0x7DF JUMPI DUP1 PUSH4 0x83645ABF EQ PUSH2 0x7F4 JUMPI PUSH1 0x0 DUP1 REVERT JUMPDEST DUP1 PUSH4 0x441A3E70 EQ PUSH2 0x6C5 JUMPI DUP1 PUSH4 0x4AF1CD69 EQ PUSH2 0x6E5 JUMPI DUP1 PUSH4 0x5FCBD285 EQ PUSH2 0x719 JUMPI DUP1 PUSH4 0x65F20355 EQ PUSH2 0x74D JUMPI PUSH1 0x0 DUP1 REVERT JUMPDEST DUP1 PUSH4 0x3B7D0946 GT PUSH2 0x290 JUMPI DUP1 PUSH4 0x3B7D0946 EQ PUSH2 0x65A JUMPI DUP1 PUSH4 0x3BA0B9A9 EQ PUSH2 0x67A JUMPI DUP1 PUSH4 0x3D4912C3 EQ PUSH2 0x68F JUMPI DUP1 PUSH4 0x43A0D066 EQ PUSH2 0x6A5 JUMPI PUSH1 0x0 DUP1 REVERT JUMPDEST DUP1 PUSH4 0x36797AEC EQ PUSH2 0x604 JUMPI DUP1 PUSH4 0x377F7EAA EQ PUSH2 0x624 JUMPI DUP1 PUSH4 0x3A172DDC EQ PUSH2 0x63A JUMPI PUSH1 0x0 DUP1 REVERT JUMPDEST DUP1 PUSH4 0x22ACB867 GT PUSH2 0x323 JUMPI DUP1 PUSH4 0x2C3DA47D GT PUSH2 0x2FD JUMPI DUP1 PUSH4 0x2C3DA47D EQ PUSH2 0x576 JUMPI DUP1 PUSH4 0x2CF81801 EQ PUSH2 0x596 JUMPI DUP1 PUSH4 0x32F44C42 EQ PUSH2 0x5C0 JUMPI DUP1 PUSH4 0x331666FA EQ PUSH2 0x5E0 JUMPI PUSH1 0x0 DUP1 REVERT JUMPDEST DUP1 PUSH4 0x22ACB867 EQ PUSH2 0x529 JUMPI DUP1 PUSH4 0x24A71A66 EQ PUSH2 0x54B JUMPI DUP1 PUSH4 0x2A1BAB73 EQ PUSH2 0x560 JUMPI PUSH1 0x0 DUP1 REVERT JUMPDEST DUP1 PUSH4 0xF4EF8A6 GT PUSH2 0x35F JUMPI DUP1 PUSH4 0xF4EF8A6 EQ PUSH2 0x47D JUMPI DUP1 PUSH4 0x1010B58C EQ PUSH2 0x4C9 JUMPI DUP1 PUSH4 0x10AEC8F9 EQ PUSH2 0x4E9 JUMPI DUP1 PUSH4 0x1280A5B6 EQ PUSH2 0x509 JUMPI PUSH1 0x0 DUP1 REVERT JUMPDEST DUP1 PUSH4 0x526679C EQ PUSH2 0x412 JUMPI DUP1 PUSH4 0xAD58D2F EQ PUSH2 0x43B JUMPI DUP1 PUSH4 0xC345789 EQ PUSH2 0x45B JUMPI PUSH1 0x0 DUP1 REVERT JUMPDEST CALLDATASIZE PUSH2 0x40D JUMPI PUSH32 0x0 PUSH1 0x1 PUSH1 0x1 PUSH1 0xA0 SHL SUB AND PUSH20 0xC02AAA39B223FE8D0A0E5C4F27EAD9083C756CC2 EQ PUSH2 0x40B JUMPI PUSH1 0x40 MLOAD PUSH3 0x461BCD PUSH1 0xE5 SHL DUP2 MSTORE PUSH1 0x20 PUSH1 0x4 DUP3 ADD MSTORE PUSH1 0xD PUSH1 0x24 DUP3 ADD MSTORE PUSH13 0x1B9BDD0815D15512081C1BDBDB PUSH1 0x9A SHL PUSH1 0x44 DUP3 ADD MSTORE PUSH1 0x64 ADD JUMPDEST PUSH1 0x40 MLOAD DUP1 SWAP2 SUB SWAP1 REVERT JUMPDEST STOP JUMPDEST PUSH1 0x0 DUP1 REVERT JUMPDEST CALLVALUE DUP1 ISZERO PUSH2 0x41E JUMPI PUSH1 0x0 DUP1 REVERT JUMPDEST POP PUSH2 0x428 PUSH1 0x2 SLOAD DUP2 JUMP JUMPDEST PUSH1 0x40 MLOAD SWAP1 DUP2 MSTORE PUSH1 0x20 ADD JUMPDEST PUSH1 0x40 MLOAD DUP1 SWAP2 SUB SWAP1 RETURN JUMPDEST CALLVALUE DUP1 ISZERO PUSH2 0x447 JUMPI PUSH1 0x0 DUP1 REVERT JUMPDEST POP PUSH2 0x428 PUSH2 0x456 CALLDATASIZE PUSH1 0x4 PUSH2 0x5680 JUMP JUMPDEST PUSH2 0xB2E JUMP JUMPDEST CALLVALUE DUP1 ISZERO PUSH2 0x467 JUMPI PUSH1 0x0 DUP1 REVERT JUMPDEST POP PUSH2 0x470 PUSH2 0xF5E JUMP JUMPDEST PUSH1 0x40 MLOAD PUSH2 0x432 SWAP2 SWAP1 PUSH2 0x56B9 JUMP JUMPDEST CALLVALUE DUP1 ISZERO PUSH2 0x489 JUMPI PUSH1 0x0 DUP1 REVERT JUMPDEST POP PUSH2 0x4B1 PUSH32 0x0 DUP2 JUMP JUMPDEST PUSH1 0x40 MLOAD PUSH1 0x1 PUSH1 0x1 PUSH1 0xA0 SHL SUB SWAP1 SWAP2 AND DUP2 MSTORE PUSH1 0x20 ADD PUSH2 0x432 JUMP JUMPDEST CALLVALUE DUP1 ISZERO PUSH2 0x4D5 JUMPI PUSH1 0x0 DUP1 REVERT JUMPDEST POP PUSH2 0x4B1 PUSH2 0x4E4 CALLDATASIZE PUSH1 0x4 PUSH2 0x5706 JUMP JUMPDEST PUSH2 0x115B JUMP JUMPDEST CALLVALUE DUP1 ISZERO PUSH2 0x4F5 JUMPI PUSH1 0x0 DUP1 REVERT JUMPDEST POP PUSH2 0x428 PUSH2 0x504 CALLDATASIZE PUSH1 0x4 PUSH2 0x571F JUMP JUMPDEST PUSH2 0x11ED JUMP JUMPDEST CALLVALUE DUP1 ISZERO PUSH2 0x515 JUMPI PUSH1 0x0 DUP1 REVERT JUMPDEST POP PUSH2 0x428 PUSH2 0x524 CALLDATASIZE PUSH1 0x4 PUSH2 0x5680 JUMP JUMPDEST PUSH2 0x11F6 JUMP JUMPDEST CALLVALUE DUP1 ISZERO PUSH2 0x535 JUMPI PUSH1 0x0 DUP1 REVERT JUMPDEST POP PUSH2 0x53E PUSH2 0x12EF JUMP JUMPDEST PUSH1 0x40 MLOAD PUSH2 0x432 SWAP2 SWAP1 PUSH2 0x5741 JUMP JUMPDEST CALLVALUE DUP1 ISZERO PUSH2 0x557 JUMPI PUSH1 0x0 DUP1 REVERT JUMPDEST POP PUSH2 0x428 PUSH2 0x137C JUMP JUMPDEST CALLVALUE DUP1 ISZERO PUSH2 0x56C JUMPI PUSH1 0x0 DUP1 REVERT JUMPDEST POP PUSH2 0x428 PUSH1 0x3 SLOAD DUP2 JUMP JUMPDEST CALLVALUE DUP1 ISZERO PUSH2 0x582 JUMPI PUSH1 0x0 DUP1 REVERT JUMPDEST POP PUSH2 0x40B PUSH2 0x591 CALLDATASIZE PUSH1 0x4 PUSH2 0x5706 JUMP JUMPDEST PUSH2 0x13A5 JUMP JUMPDEST CALLVALUE DUP1 ISZERO PUSH2 0x5A2 JUMPI PUSH1 0x0 DUP1 REVERT JUMPDEST POP PUSH1 0x9 SLOAD PUSH2 0x5B0 SWAP1 PUSH1 0xFF AND DUP2 JUMP JUMPDEST PUSH1 0x40 MLOAD SWAP1 ISZERO ISZERO DUP2 MSTORE PUSH1 0x20 ADD PUSH2 0x432 JUMP JUMPDEST CALLVALUE DUP1 ISZERO PUSH2 0x5CC JUMPI PUSH1 0x0 DUP1 REVERT JUMPDEST POP PUSH2 0x40B PUSH2 0x5DB CALLDATASIZE PUSH1 0x4 PUSH2 0x5706 JUMP JUMPDEST PUSH2 0x14A9 JUMP JUMPDEST CALLVALUE DUP1 ISZERO PUSH2 0x5EC JUMPI PUSH1 0x0 DUP1 REVERT JUMPDEST POP PUSH2 0x5F5 PUSH2 0x15AA JUMP JUMPDEST PUSH1 0x40 MLOAD PUSH2 0x432 SWAP4 SWAP3 SWAP2 SWAP1 PUSH2 0x57DC JUMP JUMPDEST CALLVALUE DUP1 ISZERO PUSH2 0x610 JUMPI PUSH1 0x0 DUP1 REVERT JUMPDEST POP PUSH2 0x40B PUSH2 0x61F CALLDATASIZE PUSH1 0x4 PUSH2 0x57FB JUMP JUMPDEST PUSH2 0x16D8 JUMP JUMPDEST CALLVALUE DUP1 ISZERO PUSH2 0x630 JUMPI PUSH1 0x0 DUP1 REVERT JUMPDEST POP PUSH2 0x428 PUSH1 0xA SLOAD DUP2 JUMP JUMPDEST CALLVALUE DUP1 ISZERO PUSH2 0x646 JUMPI PUSH1 0x0 DUP1 REVERT JUMPDEST POP PUSH2 0x40B PUSH2 0x655 CALLDATASIZE PUSH1 0x4 PUSH2 0x5826 JUMP JUMPDEST PUSH2 0x1A5C JUMP JUMPDEST CALLVALUE DUP1 ISZERO PUSH2 0x666 JUMPI PUSH1 0x0 DUP1 REVERT JUMPDEST POP PUSH2 0x40B PUSH2 0x675 CALLDATASIZE PUSH1 0x4 PUSH2 0x57FB JUMP JUMPDEST PUSH2 0x1AF1 JUMP JUMPDEST CALLVALUE DUP1 ISZERO PUSH2 0x686 JUMPI PUSH1 0x0 DUP1 REVERT JUMPDEST POP PUSH2 0x428 PUSH2 0x1D0B JUMP JUMPDEST CALLVALUE DUP1 ISZERO PUSH2 0x69B JUMPI PUSH1 0x0 DUP1 REVERT JUMPDEST POP PUSH2 0x428 PUSH1 0x6 SLOAD DUP2 JUMP JUMPDEST CALLVALUE DUP1 ISZERO PUSH2 0x6B1 JUMPI PUSH1 0x0 DUP1 REVERT JUMPDEST POP PUSH2 0x428 PUSH2 0x6C0 CALLDATASIZE PUSH1 0x4 PUSH2 0x585F JUMP JUMPDEST PUSH2 0x1D1D JUMP JUMPDEST CALLVALUE DUP1 ISZERO PUSH2 0x6D1 JUMPI PUSH1 0x0 DUP1 REVERT JUMPDEST POP PUSH2 0x428 PUSH2 0x6E0 CALLDATASIZE PUSH1 0x4 PUSH2 0x571F JUMP JUMPDEST PUSH2 0x1D2B JUMP JUMPDEST CALLVALUE DUP1 ISZERO PUSH2 0x6F1 JUMPI PUSH1 0x0 DUP1 REVERT JUMPDEST POP PUSH2 0x4B1 PUSH32 0x0 DUP2 JUMP JUMPDEST CALLVALUE DUP1 ISZERO PUSH2 0x725 JUMPI PUSH1 0x0 DUP1 REVERT JUMPDEST POP PUSH2 0x4B1 PUSH32 0x0 DUP2 JUMP JUMPDEST CALLVALUE DUP1 ISZERO PUSH2 0x759 JUMPI PUSH1 0x0 DUP1 REVERT JUMPDEST POP PUSH2 0x428 PUSH2 0x768 CALLDATASIZE PUSH1 0x4 PUSH2 0x588D JUMP JUMPDEST PUSH2 0x1D38 JUMP JUMPDEST CALLVALUE DUP1 ISZERO PUSH2 0x779 JUMPI PUSH1 0x0 DUP1 REVERT JUMPDEST POP PUSH1 0x9 SLOAD PUSH2 0x793 SWAP1 PUSH3 0x10000 SWAP1 DIV PUSH1 0x1 PUSH1 0x1 PUSH1 0x40 SHL SUB AND DUP2 JUMP JUMPDEST PUSH1 0x40 MLOAD PUSH1 0x1 PUSH1 0x1 PUSH1 0x40 SHL SUB SWAP1 SWAP2 AND DUP2 MSTORE PUSH1 0x20 ADD PUSH2 0x432 JUMP JUMPDEST CALLVALUE DUP1 ISZERO PUSH2 0x7B7 JUMPI PUSH1 0x0 DUP1 REVERT JUMPDEST POP PUSH2 0x4B1 PUSH32 0x0 DUP2 JUMP JUMPDEST CALLVALUE DUP1 ISZERO PUSH2 0x7EB JUMPI PUSH1 0x0 DUP1 REVERT JUMPDEST POP PUSH2 0x40B PUSH2 0x242D JUMP JUMPDEST CALLVALUE DUP1 ISZERO PUSH2 0x800 JUMPI PUSH1 0x0 DUP1 REVERT JUMPDEST POP PUSH2 0x428 PUSH2 0x2441 JUMP JUMPDEST CALLVALUE DUP1 ISZERO PUSH2 0x815 JUMPI PUSH1 0x0 DUP1 REVERT JUMPDEST POP PUSH2 0x40B PUSH2 0x24EA JUMP JUMPDEST CALLVALUE DUP1 ISZERO PUSH2 0x82A JUMPI PUSH1 0x0 DUP1 REVERT JUMPDEST POP PUSH2 0x833 PUSH2 0x25F9 JUMP JUMPDEST PUSH1 0x40 MLOAD PUSH2 0x432 SWAP2 SWAP1 PUSH2 0x58D7 JUMP JUMPDEST CALLVALUE DUP1 ISZERO PUSH2 0x84C JUMPI PUSH1 0x0 DUP1 REVERT JUMPDEST POP PUSH2 0x428 PUSH2 0x278B JUMP JUMPDEST CALLVALUE DUP1 ISZERO PUSH2 0x861 JUMPI PUSH1 0x0 DUP1 REVERT JUMPDEST POP PUSH1 0x0 SLOAD PUSH1 0x1 PUSH1 0x1 PUSH1 0xA0 SHL SUB AND PUSH2 0x4B1 JUMP JUMPDEST CALLVALUE DUP1 ISZERO PUSH2 0x87F JUMPI PUSH1 0x0 DUP1 REVERT JUMPDEST POP PUSH2 0x40B PUSH2 0x88E CALLDATASIZE PUSH1 0x4 PUSH2 0x59BB JUMP JUMPDEST PUSH2 0x280F JUMP JUMPDEST CALLVALUE DUP1 ISZERO PUSH2 0x89F JUMPI PUSH1 0x0 DUP1 REVERT JUMPDEST POP PUSH2 0x40B PUSH2 0x29FB JUMP JUMPDEST CALLVALUE DUP1 ISZERO PUSH2 0x8B4 JUMPI PUSH1 0x0 DUP1 REVERT JUMPDEST POP PUSH2 0x428 PUSH2 0x8C3 CALLDATASIZE PUSH1 0x4 PUSH2 0x57FB JUMP JUMPDEST PUSH2 0x2DA9 JUMP JUMPDEST CALLVALUE DUP1 ISZERO PUSH2 0x8D4 JUMPI PUSH1 0x0 DUP1 REVERT JUMPDEST POP PUSH1 0x9 SLOAD PUSH2 0x5B0 SWAP1 PUSH2 0x100 SWAP1 DIV PUSH1 0xFF AND DUP2 JUMP JUMPDEST CALLVALUE DUP1 ISZERO PUSH2 0x8F3 JUMPI PUSH1 0x0 DUP1 REVERT JUMPDEST POP PUSH2 0x428 PUSH1 0x4 SLOAD DUP2 JUMP JUMPDEST CALLVALUE DUP1 ISZERO PUSH2 0x909 JUMPI PUSH1 0x0 DUP1 REVERT JUMPDEST POP PUSH2 0x428 PUSH2 0x918 CALLDATASIZE PUSH1 0x4 PUSH2 0x57FB JUMP JUMPDEST PUSH2 0x2E8F JUMP JUMPDEST CALLVALUE DUP1 ISZERO PUSH2 0x929 JUMPI PUSH1 0x0 DUP1 REVERT JUMPDEST POP PUSH2 0x40B PUSH2 0x938 CALLDATASIZE PUSH1 0x4 PUSH2 0x5706 JUMP JUMPDEST PUSH2 0x2F1E JUMP JUMPDEST CALLVALUE DUP1 ISZERO PUSH2 0x949 JUMPI PUSH1 0x0 DUP1 REVERT JUMPDEST POP PUSH1 0x1 SLOAD TIMESTAMP GT ISZERO PUSH2 0x5B0 JUMP JUMPDEST CALLVALUE DUP1 ISZERO PUSH2 0x961 JUMPI PUSH1 0x0 DUP1 REVERT JUMPDEST POP PUSH2 0x40B PUSH2 0x970 CALLDATASIZE PUSH1 0x4 PUSH2 0x5A73 JUMP JUMPDEST PUSH2 0x2FD4 JUMP JUMPDEST CALLVALUE DUP1 ISZERO PUSH2 0x981 JUMPI PUSH1 0x0 DUP1 REVERT JUMPDEST POP PUSH1 0x5 SLOAD PUSH2 0x5B0 SWAP1 PUSH1 0xFF AND DUP2 JUMP JUMPDEST CALLVALUE DUP1 ISZERO PUSH2 0x99B JUMPI PUSH1 0x0 DUP1 REVERT JUMPDEST POP PUSH2 0x470 PUSH2 0x3047 JUMP JUMPDEST CALLVALUE DUP1 ISZERO PUSH2 0x9B0 JUMPI PUSH1 0x0 DUP1 REVERT JUMPDEST POP PUSH2 0x5B0 PUSH2 0x9BF CALLDATASIZE PUSH1 0x4 PUSH2 0x57FB JUMP JUMPDEST PUSH2 0x30CF JUMP JUMPDEST CALLVALUE DUP1 ISZERO PUSH2 0x9D0 JUMPI PUSH1 0x0 DUP1 REVERT JUMPDEST POP PUSH2 0x428 PUSH2 0x315E JUMP JUMPDEST CALLVALUE DUP1 ISZERO PUSH2 0x9E5 JUMPI PUSH1 0x0 DUP1 REVERT JUMPDEST POP PUSH2 0x40B PUSH2 0x9F4 CALLDATASIZE PUSH1 0x4 PUSH2 0x5706 JUMP JUMPDEST PUSH2 0x3169 JUMP JUMPDEST CALLVALUE DUP1 ISZERO PUSH2 0xA05 JUMPI PUSH1 0x0 DUP1 REVERT JUMPDEST POP PUSH2 0x5B0 PUSH2 0x324B JUMP JUMPDEST CALLVALUE DUP1 ISZERO PUSH2 0xA1A JUMPI PUSH1 0x0 DUP1 REVERT JUMPDEST POP PUSH2 0x428 PUSH2 0x3267 JUMP JUMPDEST CALLVALUE DUP1 ISZERO PUSH2 0xA2F JUMPI PUSH1 0x0 DUP1 REVERT JUMPDEST POP PUSH2 0x428 PUSH1 0xC SLOAD DUP2 JUMP JUMPDEST CALLVALUE DUP1 ISZERO PUSH2 0xA45 JUMPI PUSH1 0x0 DUP1 REVERT JUMPDEST POP PUSH2 0x40B PUSH2 0x3395 JUMP JUMPDEST CALLVALUE DUP1 ISZERO PUSH2 0xA5A JUMPI PUSH1 0x0 DUP1 REVERT JUMPDEST POP PUSH2 0x40B PUSH2 0xA69 CALLDATASIZE PUSH1 0x4 PUSH2 0x57FB JUMP JUMPDEST PUSH2 0x3461 JUMP JUMPDEST CALLVALUE DUP1 ISZERO PUSH2 0xA7A JUMPI PUSH1 0x0 DUP1 REVERT JUMPDEST POP PUSH2 0x428 PUSH1 0x1 SLOAD DUP2 JUMP JUMPDEST CALLVALUE DUP1 ISZERO PUSH2 0xA90 JUMPI PUSH1 0x0 DUP1 REVERT JUMPDEST POP PUSH2 0x40B PUSH2 0xA9F CALLDATASIZE PUSH1 0x4 PUSH2 0x5706 JUMP JUMPDEST PUSH2 0x367C JUMP JUMPDEST CALLVALUE DUP1 ISZERO PUSH2 0xAB0 JUMPI PUSH1 0x0 DUP1 REVERT JUMPDEST POP PUSH2 0x428 PUSH2 0xABF CALLDATASIZE PUSH1 0x4 PUSH2 0x571F JUMP JUMPDEST PUSH2 0x3732 JUMP JUMPDEST CALLVALUE DUP1 ISZERO PUSH2 0xAD0 JUMPI PUSH1 0x0 DUP1 REVERT JUMPDEST POP PUSH2 0x428 PUSH1 0xB SLOAD DUP2 JUMP JUMPDEST CALLVALUE DUP1 ISZERO PUSH2 0xAE6 JUMPI PUSH1 0x0 DUP1 REVERT JUMPDEST POP PUSH2 0x40B PUSH2 0xAF5 CALLDATASIZE PUSH1 0x4 PUSH2 0x57FB JUMP JUMPDEST PUSH2 0x3741 JUMP JUMPDEST CALLVALUE DUP1 ISZERO PUSH2 0xB06 JUMPI PUSH1 0x0 DUP1 REVERT JUMPDEST POP PUSH2 0x4B1 PUSH32 0x0 DUP2 JUMP JUMPDEST PUSH1 0x0 PUSH2 0xB38 PUSH2 0x29FB JUMP JUMPDEST PUSH1 0x40 MLOAD PUSH4 0x70A08231 PUSH1 0xE0 SHL DUP2 MSTORE CALLER PUSH1 0x4 DUP3 ADD MSTORE DUP5 SWAP1 PUSH32 0x0 PUSH1 0x1 PUSH1 0x1 PUSH1 0xA0 SHL SUB AND SWAP1 PUSH4 0x70A08231 SWAP1 PUSH1 0x24 ADD PUSH1 0x20 PUSH1 0x40 MLOAD DUP1 DUP4 SUB DUP2 DUP7 GAS STATICCALL ISZERO DUP1 ISZERO PUSH2 0xB9E JUMPI RETURNDATASIZE PUSH1 0x0 DUP1 RETURNDATACOPY RETURNDATASIZE PUSH1 0x0 REVERT JUMPDEST POP POP POP POP PUSH1 0x40 MLOAD RETURNDATASIZE PUSH1 0x1F NOT PUSH1 0x1F DUP3 ADD AND DUP3 ADD DUP1 PUSH1 0x40 MSTORE POP DUP2 ADD SWAP1 PUSH2 0xBC2 SWAP2 SWAP1 PUSH2 0x5A90 JUMP JUMPDEST LT ISZERO PUSH2 0xC07 JUMPI PUSH1 0x40 MLOAD PUSH3 0x461BCD PUSH1 0xE5 SHL DUP2 MSTORE PUSH1 0x20 PUSH1 0x4 DUP3 ADD MSTORE PUSH1 0x14 PUSH1 0x24 DUP3 ADD MSTORE PUSH20 0x696E73756666696369656E742062616C616E6365 PUSH1 0x60 SHL PUSH1 0x44 DUP3 ADD MSTORE PUSH1 0x64 ADD PUSH2 0x402 JUMP JUMPDEST PUSH1 0x40 MLOAD PUSH4 0x70A08231 PUSH1 0xE0 SHL DUP2 MSTORE ADDRESS PUSH1 0x4 DUP3 ADD MSTORE PUSH1 0x0 SWAP1 PUSH32 0x0 PUSH1 0x1 PUSH1 0x1 PUSH1 0xA0 SHL SUB AND SWAP1 PUSH4 0x70A08231 SWAP1 PUSH1 0x24 ADD PUSH1 0x20 PUSH1 0x40 MLOAD DUP1 DUP4 SUB DUP2 DUP7 GAS STATICCALL ISZERO DUP1 ISZERO PUSH2 0xC6E JUMPI RETURNDATASIZE PUSH1 0x0 DUP1 RETURNDATACOPY RETURNDATASIZE PUSH1 0x0 REVERT JUMPDEST POP POP POP POP PUSH1 0x40 MLOAD RETURNDATASIZE PUSH1 0x1F NOT PUSH1 0x1F DUP3 ADD AND DUP3 ADD DUP1 PUSH1 0x40 MSTORE POP DUP2 ADD SWAP1 PUSH2 0xC92 SWAP2 SWAP1 PUSH2 0x5A90 JUMP JUMPDEST SWAP1 POP PUSH1 0x0 DUP1 PUSH1 0x0 PUSH2 0xCA1 PUSH2 0x15AA JUMP JUMPDEST SWAP3 POP SWAP3 POP SWAP3 POP PUSH1 0x0 PUSH2 0xCBC PUSH2 0xCB5 DUP6 PUSH2 0x3911 JUMP JUMPDEST DUP11 SWAP1 PUSH2 0x39BE JUMP JUMPDEST SWAP1 POP DUP1 DUP6 LT ISZERO PUSH2 0xCE1 JUMPI PUSH1 0x0 PUSH2 0xCD2 DUP7 DUP4 PUSH2 0x5ABF JUMP JUMPDEST SWAP1 POP PUSH2 0xCDF DUP5 DUP5 DUP4 PUSH2 0x39E0 JUMP JUMPDEST POP JUMPDEST PUSH1 0x40 MLOAD PUSH4 0x70A08231 PUSH1 0xE0 SHL DUP2 MSTORE ADDRESS PUSH1 0x4 DUP3 ADD MSTORE PUSH1 0x0 SWAP1 PUSH2 0xD76 SWAP1 PUSH1 0x1 PUSH1 0x1 PUSH1 0xA0 SHL SUB PUSH32 0x0 AND SWAP1 PUSH4 0x70A08231 SWAP1 PUSH1 0x24 ADD PUSH1 0x20 PUSH1 0x40 MLOAD DUP1 DUP4 SUB DUP2 DUP7 GAS STATICCALL ISZERO DUP1 ISZERO PUSH2 0xD4C JUMPI RETURNDATASIZE PUSH1 0x0 DUP1 RETURNDATACOPY RETURNDATASIZE PUSH1 0x0 REVERT JUMPDEST POP POP POP POP PUSH1 0x40 MLOAD RETURNDATASIZE PUSH1 0x1F NOT PUSH1 0x1F DUP3 ADD AND DUP3 ADD DUP1 PUSH1 0x40 MSTORE POP DUP2 ADD SWAP1 PUSH2 0xD70 SWAP2 SWAP1 PUSH2 0x5A90 JUMP JUMPDEST DUP4 PUSH2 0x3C9B JUMP JUMPDEST SWAP1 POP DUP9 DUP2 LT ISZERO PUSH2 0xDBC JUMPI PUSH1 0x40 MLOAD PUSH3 0x461BCD PUSH1 0xE5 SHL DUP2 MSTORE PUSH1 0x20 PUSH1 0x4 DUP3 ADD MSTORE PUSH1 0x11 PUSH1 0x24 DUP3 ADD MSTORE PUSH17 0x746F6F206D75636820736C697070616765 PUSH1 0x78 SHL PUSH1 0x44 DUP3 ADD MSTORE PUSH1 0x64 ADD PUSH2 0x402 JUMP JUMPDEST PUSH1 0x40 MLOAD PUSH4 0xB8CE670D PUSH1 0xE0 SHL DUP2 MSTORE CALLER PUSH1 0x4 DUP3 ADD DUP2 SWAP1 MSTORE PUSH1 0x24 DUP3 ADD DUP13 SWAP1 MSTORE PUSH1 0x44 DUP3 ADD MSTORE PUSH32 0x0 PUSH1 0x1 PUSH1 0x1 PUSH1 0xA0 SHL SUB AND SWAP1 PUSH4 0xB8CE670D SWAP1 PUSH1 0x64 ADD PUSH1 0x20 PUSH1 0x40 MLOAD DUP1 DUP4 SUB DUP2 PUSH1 0x0 DUP8 GAS CALL ISZERO DUP1 ISZERO PUSH2 0xE30 JUMPI RETURNDATASIZE PUSH1 0x0 DUP1 RETURNDATACOPY RETURNDATASIZE PUSH1 0x0 REVERT JUMPDEST POP POP POP POP PUSH1 0x40 MLOAD RETURNDATASIZE PUSH1 0x1F NOT PUSH1 0x1F DUP3 ADD AND DUP3 ADD DUP1 PUSH1 0x40 MSTORE POP DUP2 ADD SWAP1 PUSH2 0xE54 SWAP2 SWAP1 PUSH2 0x5A90 JUMP JUMPDEST POP PUSH2 0xE89 PUSH1 0x1 PUSH1 0x1 PUSH1 0xA0 SHL SUB PUSH32 0x0 AND DUP10 DUP4 PUSH2 0x3CB1 JUMP JUMPDEST PUSH2 0xE93 DUP2 DUP7 PUSH2 0x5ABF JUMP JUMPDEST PUSH1 0x8 SSTORE TIMESTAMP PUSH1 0x7 SSTORE PUSH2 0xEB4 PUSH1 0x1 PUSH1 0x1 PUSH1 0xA0 SHL SUB DUP10 AND PUSH4 0x20982443 PUSH1 0xE2 SHL PUSH2 0x3CE1 JUMP JUMPDEST ISZERO PUSH2 0xF1A JUMPI PUSH1 0x40 MLOAD PUSH4 0x20982443 PUSH1 0xE2 SHL DUP2 MSTORE CALLER PUSH1 0x4 DUP3 ADD MSTORE PUSH1 0x24 DUP2 ADD DUP3 SWAP1 MSTORE PUSH1 0x1 PUSH1 0x1 PUSH1 0xA0 SHL SUB DUP10 AND SWAP1 PUSH4 0x8260910C SWAP1 PUSH1 0x44 ADD PUSH1 0x0 PUSH1 0x40 MLOAD DUP1 DUP4 SUB DUP2 PUSH1 0x0 DUP8 DUP1 EXTCODESIZE ISZERO DUP1 ISZERO PUSH2 0xF01 JUMPI PUSH1 0x0 DUP1 REVERT JUMPDEST POP GAS CALL ISZERO DUP1 ISZERO PUSH2 0xF15 JUMPI RETURNDATASIZE PUSH1 0x0 DUP1 RETURNDATACOPY RETURNDATASIZE PUSH1 0x0 REVERT JUMPDEST POP POP POP POP JUMPDEST PUSH1 0x40 MLOAD DUP2 DUP2 MSTORE CALLER SWAP1 PUSH32 0x884EDAD9CE6FA2440D8A54CC123490EB96D2768479D49FF9C7366125A9424364 SWAP1 PUSH1 0x20 ADD PUSH1 0x40 MLOAD DUP1 SWAP2 SUB SWAP1 LOG2 SWAP6 POP POP POP POP POP POP JUMPDEST SWAP4 SWAP3 POP POP POP JUMP JUMPDEST PUSH1 0x60 PUSH1 0x0 PUSH32 0x0 PUSH1 0x1 PUSH1 0x1 PUSH1 0xA0 SHL SUB AND PUSH4 0xC5C63E65 PUSH1 0x40 MLOAD DUP2 PUSH4 0xFFFFFFFF AND PUSH1 0xE0 SHL DUP2 MSTORE PUSH1 0x4 ADD PUSH1 0x0 PUSH1 0x40 MLOAD DUP1 DUP4 SUB DUP2 DUP7 GAS STATICCALL ISZERO DUP1 ISZERO PUSH2 0xFC0 JUMPI RETURNDATASIZE PUSH1 0x0 DUP1 RETURNDATACOPY RETURNDATASIZE PUSH1 0x0 REVERT JUMPDEST POP POP POP POP PUSH1 0x40 MLOAD RETURNDATASIZE PUSH1 0x0 DUP3 RETURNDATACOPY PUSH1 0x1F RETURNDATASIZE SWAP1 DUP2 ADD PUSH1 0x1F NOT AND DUP3 ADD PUSH1 0x40 MSTORE PUSH2 0xFE8 SWAP2 SWAP1 DUP2 ADD SWAP1 PUSH2 0x5AD2 JUMP JUMPDEST DUP1 MLOAD PUSH1 0x40 DUP1 MLOAD PUSH1 0x0 DUP1 DUP3 MSTORE PUSH1 0x20 DUP3 ADD SWAP1 SWAP3 MSTORE SWAP3 SWAP4 POP SWAP1 SWAP2 SWAP1 JUMPDEST DUP3 DUP2 LT ISZERO PUSH2 0x1149 JUMPI PUSH1 0x0 DUP5 DUP3 DUP2 MLOAD DUP2 LT PUSH2 0x101D JUMPI PUSH2 0x101D PUSH2 0x5B60 JUMP JUMPDEST PUSH1 0x20 SWAP1 DUP2 MUL SWAP2 SWAP1 SWAP2 ADD ADD MLOAD PUSH1 0x40 MLOAD PUSH4 0x55EB6B35 PUSH1 0xE0 SHL DUP2 MSTORE PUSH1 0x1 PUSH1 0x1 PUSH1 0xA0 SHL SUB DUP1 DUP4 AND PUSH1 0x4 DUP4 ADD MSTORE SWAP2 SWAP3 POP PUSH1 0x0 SWAP2 PUSH32 0x0 AND SWAP1 PUSH4 0x55EB6B35 SWAP1 PUSH1 0x24 ADD PUSH1 0x20 PUSH1 0x40 MLOAD DUP1 DUP4 SUB DUP2 DUP7 GAS STATICCALL ISZERO DUP1 ISZERO PUSH2 0x1094 JUMPI RETURNDATASIZE PUSH1 0x0 DUP1 RETURNDATACOPY RETURNDATASIZE PUSH1 0x0 REVERT JUMPDEST POP POP POP POP PUSH1 0x40 MLOAD RETURNDATASIZE PUSH1 0x1F NOT PUSH1 0x1F DUP3 ADD AND DUP3 ADD DUP1 PUSH1 0x40 MSTORE POP DUP2 ADD SWAP1 PUSH2 0x10B8 SWAP2 SWAP1 PUSH2 0x5B76 JUMP JUMPDEST PUSH1 0x40 MLOAD PUSH3 0x2708DB PUSH1 0xE0 SHL DUP2 MSTORE PUSH1 0x1 PUSH1 0x1 PUSH1 0xA0 SHL SUB DUP5 DUP2 AND PUSH1 0x4 DUP4 ADD MSTORE SWAP2 SWAP1 SWAP2 AND SWAP1 PUSH3 0x2708DB SWAP1 PUSH1 0x24 ADD PUSH1 0x0 PUSH1 0x40 MLOAD DUP1 DUP4 SUB DUP2 DUP7 GAS STATICCALL ISZERO DUP1 ISZERO PUSH2 0x10FE JUMPI RETURNDATASIZE PUSH1 0x0 DUP1 RETURNDATACOPY RETURNDATASIZE PUSH1 0x0 REVERT JUMPDEST POP POP POP POP PUSH1 0x40 MLOAD RETURNDATASIZE PUSH1 0x0 DUP3 RETURNDATACOPY PUSH1 0x1F RETURNDATASIZE SWAP1 DUP2 ADD PUSH1 0x1F NOT AND DUP3 ADD PUSH1 0x40 MSTORE PUSH2 0x1126 SWAP2 SWAP1 DUP2 ADD SWAP1 PUSH2 0x5AD2 JUMP JUMPDEST SWAP1 POP PUSH2 0x1132 DUP5 DUP3 PUSH2 0x3CFD JUMP JUMPDEST SWAP4 POP POP POP DUP1 DUP1 PUSH2 0x1141 SWAP1 PUSH2 0x5B93 JUMP JUMPDEST SWAP2 POP POP PUSH2 0x1001 JUMP JUMPDEST POP PUSH2 0x1153 DUP2 PUSH2 0x3E28 JUMP JUMPDEST SWAP4 POP POP POP POP SWAP1 JUMP JUMPDEST PUSH1 0x40 MLOAD PUSH4 0x4042D63 PUSH1 0xE2 SHL DUP2 MSTORE PUSH1 0x4 DUP2 ADD DUP3 SWAP1 MSTORE PUSH1 0x0 SWAP1 PUSH32 0x0 PUSH1 0x1 PUSH1 0x1 PUSH1 0xA0 SHL SUB AND SWAP1 PUSH4 0x1010B58C SWAP1 PUSH1 0x24 ADD PUSH1 0x20 PUSH1 0x40 MLOAD DUP1 DUP4 SUB DUP2 DUP7 GAS STATICCALL ISZERO DUP1 ISZERO PUSH2 0x11C3 JUMPI RETURNDATASIZE PUSH1 0x0 DUP1 RETURNDATACOPY RETURNDATASIZE PUSH1 0x0 REVERT JUMPDEST POP POP POP POP PUSH1 0x40 MLOAD RETURNDATASIZE PUSH1 0x1F NOT PUSH1 0x1F DUP3 ADD AND DUP3 ADD DUP1 PUSH1 0x40 MSTORE POP DUP2 ADD SWAP1 PUSH2 0x11E7 SWAP2 SWAP1 PUSH2 0x5B76 JUMP JUMPDEST SWAP3 SWAP2 POP POP JUMP JUMPDEST PUSH1 0x0 PUSH2 0xF57 DUP4 DUP4 CALLER JUMPDEST PUSH1 0x0 PUSH32 0x0 PUSH1 0x1 PUSH1 0x1 PUSH1 0xA0 SHL SUB AND PUSH4 0x48439E7E PUSH1 0x40 MLOAD DUP2 PUSH4 0xFFFFFFFF AND PUSH1 0xE0 SHL DUP2 MSTORE PUSH1 0x4 ADD PUSH1 0x20 PUSH1 0x40 MLOAD DUP1 DUP4 SUB DUP2 DUP7 GAS STATICCALL ISZERO DUP1 ISZERO PUSH2 0x1256 JUMPI RETURNDATASIZE PUSH1 0x0 DUP1 RETURNDATACOPY RETURNDATASIZE PUSH1 0x0 REVERT JUMPDEST POP POP POP POP PUSH1 0x40 MLOAD RETURNDATASIZE PUSH1 0x1F NOT PUSH1 0x1F DUP3 ADD AND DUP3 ADD DUP1 PUSH1 0x40 MSTORE POP DUP2 ADD SWAP1 PUSH2 0x127A SWAP2 SWAP1 PUSH2 0x5B76 JUMP JUMPDEST PUSH1 0x40 MLOAD PUSH4 0x325D161 PUSH1 0xE0 SHL DUP2 MSTORE PUSH1 0x4 DUP2 ADD DUP7 SWAP1 MSTORE CALLER PUSH1 0x24 DUP3 ADD MSTORE PUSH1 0x1 PUSH1 0x1 PUSH1 0xA0 SHL SUB SWAP2 SWAP1 SWAP2 AND SWAP1 PUSH4 0x325D161 SWAP1 PUSH1 0x44 ADD PUSH1 0x0 PUSH1 0x40 MLOAD DUP1 DUP4 SUB DUP2 PUSH1 0x0 DUP8 DUP1 EXTCODESIZE ISZERO DUP1 ISZERO PUSH2 0x12C4 JUMPI PUSH1 0x0 DUP1 REVERT JUMPDEST POP GAS CALL ISZERO DUP1 ISZERO PUSH2 0x12D8 JUMPI RETURNDATASIZE PUSH1 0x0 DUP1 RETURNDATACOPY RETURNDATASIZE PUSH1 0x0 REVERT JUMPDEST POP POP POP POP PUSH2 0x12E7 DUP5 DUP5 DUP5 PUSH2 0xB2E JUMP JUMPDEST SWAP5 SWAP4 POP POP POP POP JUMP JUMPDEST PUSH1 0x60 PUSH32 0x0 PUSH1 0x1 PUSH1 0x1 PUSH1 0xA0 SHL SUB AND PUSH4 0x22ACB867 PUSH1 0x40 MLOAD DUP2 PUSH4 0xFFFFFFFF AND PUSH1 0xE0 SHL DUP2 MSTORE PUSH1 0x4 ADD PUSH1 0x0 PUSH1 0x40 MLOAD DUP1 DUP4 SUB DUP2 DUP7 GAS STATICCALL ISZERO DUP1 ISZERO PUSH2 0x134F JUMPI RETURNDATASIZE PUSH1 0x0 DUP1 RETURNDATACOPY RETURNDATASIZE PUSH1 0x0 REVERT JUMPDEST POP POP POP POP PUSH1 0x40 MLOAD RETURNDATASIZE PUSH1 0x0 DUP3 RETURNDATACOPY PUSH1 0x1F RETURNDATASIZE SWAP1 DUP2 ADD PUSH1 0x1F NOT AND DUP3 ADD PUSH1 0x40 MSTORE PUSH2 0x1377 SWAP2 SWAP1 DUP2 ADD SWAP1 PUSH2 0x5BAC JUMP JUMPDEST SWAP1 POP SWAP1 JUMP JUMPDEST PUSH1 0x0 PUSH3 0x3F480 PUSH1 0x7 SLOAD PUSH2 0x138F SWAP2 SWAP1 PUSH2 0x5C5F JUMP JUMPDEST TIMESTAMP GT ISZERO PUSH2 0x139E JUMPI PUSH2 0x1377 PUSH2 0x315E JUMP JUMPDEST POP PUSH1 0x8 SLOAD SWAP1 JUMP JUMPDEST PUSH2 0x13AD PUSH2 0x3F1C JUMP JUMPDEST PUSH8 0xDE0B6B3A7640000 DUP2 LT ISZERO PUSH2 0x13FC JUMPI PUSH1 0x40 MLOAD PUSH3 0x461BCD PUSH1 0xE5 SHL DUP2 MSTORE PUSH1 0x20 PUSH1 0x4 DUP3 ADD MSTORE PUSH1 0x14 PUSH1 0x24 DUP3 ADD MSTORE PUSH20 0x666163746F722062656C6F77206D696E696D756D PUSH1 0x60 SHL PUSH1 0x44 DUP3 ADD MSTORE PUSH1 0x64 ADD PUSH2 0x402 JUMP JUMPDEST PUSH9 0x56BC75E2D63100000 DUP2 GT ISZERO PUSH2 0x144C JUMPI PUSH1 0x40 MLOAD PUSH3 0x461BCD PUSH1 0xE5 SHL DUP2 MSTORE PUSH1 0x20 PUSH1 0x4 DUP3 ADD MSTORE PUSH1 0x14 PUSH1 0x24 DUP3 ADD MSTORE PUSH20 0x666163746F722061626F7665206D6178696D756D PUSH1 0x60 SHL PUSH1 0x44 DUP3 ADD MSTORE PUSH1 0x64 ADD PUSH2 0x402 JUMP JUMPDEST PUSH1 0xA SLOAD DUP2 SUB PUSH2 0x146D JUMPI PUSH1 0x40 MLOAD PUSH3 0x461BCD PUSH1 0xE5 SHL DUP2 MSTORE PUSH1 0x4 ADD PUSH2 0x402 SWAP1 PUSH2 0x5C72 JUMP JUMPDEST PUSH1 0xA DUP2 SWAP1 SSTORE PUSH1 0x40 MLOAD DUP2 DUP2 MSTORE PUSH32 0x43B89D4B5FDC149D21160712A4E8A2C76927DCCD7AAE23FD717F753758044A6F SWAP1 PUSH1 0x20 ADD JUMPDEST PUSH1 0x40 MLOAD DUP1 SWAP2 SUB SWAP1 LOG1 POP JUMP JUMPDEST PUSH2 0x14B1 PUSH2 0x3F1C JUMP JUMPDEST PUSH7 0x2386F26FC10000 DUP2 LT ISZERO PUSH2 0x1502 JUMPI PUSH1 0x40 MLOAD PUSH3 0x461BCD PUSH1 0xE5 SHL DUP2 MSTORE PUSH1 0x20 PUSH1 0x4 DUP3 ADD MSTORE PUSH1 0x17 PUSH1 0x24 DUP3 ADD MSTORE PUSH23 0x1A5B9D985B1A590819195C1959C81D1A1C995CDA1BDB19 PUSH1 0x4A SHL PUSH1 0x44 DUP3 ADD MSTORE PUSH1 0x64 ADD PUSH2 0x402 JUMP JUMPDEST PUSH8 0x16345785D8A0000 DUP2 GT ISZERO PUSH2 0x1554 JUMPI PUSH1 0x40 MLOAD PUSH3 0x461BCD PUSH1 0xE5 SHL DUP2 MSTORE PUSH1 0x20 PUSH1 0x4 DUP3 ADD MSTORE PUSH1 0x17 PUSH1 0x24 DUP3 ADD MSTORE PUSH23 0x1A5B9D985B1A590819195C1959C81D1A1C995CDA1BDB19 PUSH1 0x4A SHL PUSH1 0x44 DUP3 ADD MSTORE PUSH1 0x64 ADD PUSH2 0x402 JUMP JUMPDEST PUSH1 0x6 SLOAD DUP2 SUB PUSH2 0x1575 JUMPI PUSH1 0x40 MLOAD PUSH3 0x461BCD PUSH1 0xE5 SHL DUP2 MSTORE PUSH1 0x4 ADD PUSH2 0x402 SWAP1 PUSH2 0x5C72 JUMP JUMPDEST PUSH1 0x6 DUP2 SWAP1 SSTORE PUSH1 0x40 MLOAD DUP2 DUP2 MSTORE PUSH32 0x20DA4A1840E5E1BB25784E941F370E4DB630545ED9434C8C0BAD8E421480595B SWAP1 PUSH1 0x20 ADD PUSH2 0x149E JUMP JUMPDEST PUSH1 0x0 DUP1 PUSH1 0x60 PUSH1 0x0 PUSH32 0x0 PUSH1 0x1 PUSH1 0x1 PUSH1 0xA0 SHL SUB AND PUSH4 0x2630C12F PUSH1 0x40 MLOAD DUP2 PUSH4 0xFFFFFFFF AND PUSH1 0xE0 SHL DUP2 MSTORE PUSH1 0x4 ADD PUSH1 0x20 PUSH1 0x40 MLOAD DUP1 DUP4 SUB DUP2 DUP7 GAS STATICCALL ISZERO DUP1 ISZERO PUSH2 0x160F JUMPI RETURNDATASIZE PUSH1 0x0 DUP1 RETURNDATACOPY RETURNDATASIZE PUSH1 0x0 REVERT JUMPDEST POP POP POP POP PUSH1 0x40 MLOAD RETURNDATASIZE PUSH1 0x1F NOT PUSH1 0x1F DUP3 ADD AND DUP3 ADD DUP1 PUSH1 0x40 MSTORE POP DUP2 ADD SWAP1 PUSH2 0x1633 SWAP2 SWAP1 PUSH2 0x5B76 JUMP JUMPDEST PUSH1 0x40 MLOAD PUSH4 0x8B2F0F4F PUSH1 0xE0 SHL DUP2 MSTORE PUSH1 0x1 PUSH1 0x1 PUSH1 0xA0 SHL SUB PUSH32 0x0 DUP2 AND PUSH1 0x4 DUP4 ADD MSTORE SWAP2 SWAP1 SWAP2 AND SWAP1 PUSH4 0x8B2F0F4F SWAP1 PUSH1 0x24 ADD PUSH1 0x20 PUSH1 0x40 MLOAD DUP1 DUP4 SUB DUP2 DUP7 GAS STATICCALL ISZERO DUP1 ISZERO PUSH2 0x169B JUMPI RETURNDATASIZE PUSH1 0x0 DUP1 RETURNDATACOPY RETURNDATASIZE PUSH1 0x0 REVERT JUMPDEST POP POP POP POP PUSH1 0x40 MLOAD RETURNDATASIZE PUSH1 0x1F NOT PUSH1 0x1F DUP3 ADD AND DUP3 ADD DUP1 PUSH1 0x40 MSTORE POP DUP2 ADD SWAP1 PUSH2 0x16BF SWAP2 SWAP1 PUSH2 0x5A90 JUMP JUMPDEST SWAP1 POP PUSH2 0x16CC DUP2 PUSH1 0x0 PUSH2 0x3F76 JUMP JUMPDEST SWAP4 POP SWAP4 POP SWAP4 POP POP SWAP1 SWAP2 SWAP3 JUMP JUMPDEST PUSH2 0x16E0 PUSH2 0x29FB JUMP JUMPDEST PUSH2 0x1709 PUSH32 0x0 PUSH2 0x4279 JUMP JUMPDEST ISZERO PUSH2 0x174F JUMPI PUSH1 0x40 MLOAD PUSH3 0x461BCD PUSH1 0xE5 SHL DUP2 MSTORE PUSH1 0x20 PUSH1 0x4 DUP3 ADD MSTORE PUSH1 0x16 PUSH1 0x24 DUP3 ADD MSTORE PUSH22 0x1D5B99195C9B1E5A5B99C81A5CC819195C1959D9D959 PUSH1 0x52 SHL PUSH1 0x44 DUP3 ADD MSTORE PUSH1 0x64 ADD PUSH2 0x402 JUMP JUMPDEST PUSH2 0x1758 DUP2 PUSH2 0x446F JUMP JUMPDEST PUSH2 0x179B JUMPI PUSH1 0x40 MLOAD PUSH3 0x461BCD PUSH1 0xE5 SHL DUP2 MSTORE PUSH1 0x20 PUSH1 0x4 DUP3 ADD MSTORE PUSH1 0x14 PUSH1 0x24 DUP3 ADD MSTORE PUSH20 0x1C1BDBDB081A5CC81B9BDD0819195C1959D9D959 PUSH1 0x62 SHL PUSH1 0x44 DUP3 ADD MSTORE PUSH1 0x64 ADD PUSH2 0x402 JUMP JUMPDEST PUSH1 0x40 MLOAD PUSH4 0xD9E5EBB PUSH1 0xE2 SHL DUP2 MSTORE PUSH1 0x1 PUSH1 0x1 PUSH1 0xA0 SHL SUB DUP3 DUP2 AND PUSH1 0x4 DUP4 ADD MSTORE PUSH32 0x0 AND SWAP1 PUSH4 0x36797AEC SWAP1 PUSH1 0x24 ADD PUSH1 0x0 PUSH1 0x40 MLOAD DUP1 DUP4 SUB DUP2 PUSH1 0x0 DUP8 DUP1 EXTCODESIZE ISZERO DUP1 ISZERO PUSH2 0x17FE JUMPI PUSH1 0x0 DUP1 REVERT JUMPDEST POP GAS CALL ISZERO DUP1 ISZERO PUSH2 0x1812 JUMPI RETURNDATASIZE PUSH1 0x0 DUP1 RETURNDATACOPY RETURNDATASIZE PUSH1 0x0 REVERT JUMPDEST POP POP POP POP PUSH1 0x0 DUP1 PUSH2 0x1821 PUSH2 0x15AA JUMP JUMPDEST SWAP3 POP POP SWAP2 POP PUSH1 0x0 PUSH32 0x0 PUSH1 0x1 PUSH1 0x1 PUSH1 0xA0 SHL SUB AND PUSH4 0x7E412A7A DUP5 DUP5 PUSH1 0x40 MLOAD DUP4 PUSH4 0xFFFFFFFF AND PUSH1 0xE0 SHL DUP2 MSTORE PUSH1 0x4 ADD PUSH2 0x1876 SWAP3 SWAP2 SWAP1 PUSH2 0x5C9B JUMP JUMPDEST PUSH1 0x20 PUSH1 0x40 MLOAD DUP1 DUP4 SUB DUP2 DUP7 GAS STATICCALL ISZERO DUP1 ISZERO PUSH2 0x1893 JUMPI RETURNDATASIZE PUSH1 0x0 DUP1 RETURNDATACOPY RETURNDATASIZE PUSH1 0x0 REVERT JUMPDEST POP POP POP POP PUSH1 0x40 MLOAD RETURNDATASIZE PUSH1 0x1F NOT PUSH1 0x1F DUP3 ADD AND DUP3 ADD DUP1 PUSH1 0x40 MSTORE POP DUP2 ADD SWAP1 PUSH2 0x18B7 SWAP2 SWAP1 PUSH2 0x5A90 JUMP JUMPDEST PUSH1 0xC DUP2 SWAP1 SSTORE PUSH1 0x9 SLOAD SWAP1 SWAP2 POP PUSH1 0xFF AND ISZERO PUSH2 0x1A1A JUMPI PUSH1 0x40 MLOAD PUSH4 0x55EB6B35 PUSH1 0xE0 SHL DUP2 MSTORE PUSH1 0x1 PUSH1 0x1 PUSH1 0xA0 SHL SUB DUP6 DUP2 AND PUSH1 0x4 DUP4 ADD MSTORE PUSH1 0x0 SWAP2 PUSH32 0x0 SWAP1 SWAP2 AND SWAP1 PUSH4 0x55EB6B35 SWAP1 PUSH1 0x24 ADD PUSH1 0x20 PUSH1 0x40 MLOAD DUP1 DUP4 SUB DUP2 DUP7 GAS STATICCALL ISZERO DUP1 ISZERO PUSH2 0x1935 JUMPI RETURNDATASIZE PUSH1 0x0 DUP1 RETURNDATACOPY RETURNDATASIZE PUSH1 0x0 REVERT JUMPDEST POP POP POP POP PUSH1 0x40 MLOAD RETURNDATASIZE PUSH1 0x1F NOT PUSH1 0x1F DUP3 ADD AND DUP3 ADD DUP1 PUSH1 0x40 MSTORE POP DUP2 ADD SWAP1 PUSH2 0x1959 SWAP2 SWAP1 PUSH2 0x5B76 JUMP JUMPDEST PUSH1 0x40 MLOAD PUSH4 0x3DFA59D1 PUSH1 0xE0 SHL DUP2 MSTORE ADDRESS PUSH1 0x4 DUP3 ADD MSTORE PUSH1 0x1 PUSH1 0x1 PUSH1 0xA0 SHL SUB DUP8 DUP2 AND PUSH1 0x24 DUP4 ADD MSTORE SWAP2 SWAP3 POP PUSH1 0x0 SWAP2 DUP4 AND SWAP1 PUSH4 0x3DFA59D1 SWAP1 PUSH1 0x44 ADD PUSH1 0x20 PUSH1 0x40 MLOAD DUP1 DUP4 SUB DUP2 DUP7 GAS STATICCALL ISZERO DUP1 ISZERO PUSH2 0x19AB JUMPI RETURNDATASIZE PUSH1 0x0 DUP1 RETURNDATACOPY RETURNDATASIZE PUSH1 0x0 REVERT JUMPDEST POP POP POP POP PUSH1 0x40 MLOAD RETURNDATASIZE PUSH1 0x1F NOT PUSH1 0x1F DUP3 ADD AND DUP3 ADD DUP1 PUSH1 0x40 MSTORE POP DUP2 ADD SWAP1 PUSH2 0x19CF SWAP2 SWAP1 PUSH2 0x5A90 JUMP JUMPDEST SWAP1 POP PUSH9 0x56BC75E2D63100000 DUP2 GT ISZERO PUSH2 0x1A17 JUMPI PUSH1 0x9 DUP1 SLOAD PUSH1 0xA SLOAD PUSH1 0xB SSTORE PUSH2 0xFF00 NOT PUSH1 0x1 PUSH1 0x1 PUSH1 0x40 SHL SUB TIMESTAMP AND PUSH3 0x10000 MUL AND PUSH10 0xFFFFFFFFFFFFFFFFFF00 NOT SWAP1 SWAP2 AND OR PUSH2 0x100 OR SWAP1 SSTORE JUMPDEST POP POP JUMPDEST PUSH1 0x40 MLOAD PUSH1 0x1 PUSH1 0x1 PUSH1 0xA0 SHL SUB DUP6 AND DUP2 MSTORE PUSH32 0x7D90518F39C7F92FD9046BBB246D9C650DD159F73CCA88AA7D919C89C040FA79 SWAP1 PUSH1 0x20 ADD PUSH1 0x40 MLOAD DUP1 SWAP2 SUB SWAP1 LOG1 POP POP POP POP JUMP JUMPDEST CALLER PUSH1 0x1 PUSH1 0x1 PUSH1 0xA0 SHL SUB PUSH32 0x0 AND EQ PUSH2 0x1AA4 JUMPI PUSH1 0x40 MLOAD PUSH3 0x461BCD PUSH1 0xE5 SHL DUP2 MSTORE PUSH1 0x4 ADD PUSH2 0x402 SWAP1 PUSH2 0x5CB4 JUMP JUMPDEST PUSH1 0x0 DUP2 PUSH2 0x1AB2 JUMPI PUSH1 0x0 PUSH2 0x1AB6 JUMP JUMPDEST PUSH1 0x0 NOT JUMPDEST SWAP1 POP PUSH2 0x1AEC PUSH1 0x1 PUSH1 0x1 PUSH1 0xA0 SHL SUB DUP5 AND PUSH32 0x0 DUP4 PUSH2 0x37BA JUMP JUMPDEST POP POP POP JUMP JUMPDEST PUSH2 0x1AF9 PUSH2 0x3F1C JUMP JUMPDEST PUSH1 0x40 MLOAD PUSH4 0x1DBE84A3 PUSH1 0xE1 SHL DUP2 MSTORE PUSH1 0x1 PUSH1 0x1 PUSH1 0xA0 SHL SUB DUP3 DUP2 AND PUSH1 0x4 DUP4 ADD MSTORE PUSH32 0x0 AND SWAP1 PUSH4 0x3B7D0946 SWAP1 PUSH1 0x24 ADD PUSH1 0x0 PUSH1 0x40 MLOAD DUP1 DUP4 SUB DUP2 PUSH1 0x0 DUP8 DUP1 EXTCODESIZE ISZERO DUP1 ISZERO PUSH2 0x1B5C JUMPI PUSH1 0x0 DUP1 REVERT JUMPDEST POP GAS CALL ISZERO DUP1 ISZERO PUSH2 0x1B70 JUMPI RETURNDATASIZE PUSH1 0x0 DUP1 RETURNDATACOPY RETURNDATASIZE PUSH1 0x0 REVERT JUMPDEST POP POP POP POP PUSH1 0x0 PUSH32 0x0 PUSH1 0x1 PUSH1 0x1 PUSH1 0xA0 SHL SUB AND PUSH4 0x2CDACB50 PUSH1 0x40 MLOAD DUP2 PUSH4 0xFFFFFFFF AND PUSH1 0xE0 SHL DUP2 MSTORE PUSH1 0x4 ADD PUSH1 0x20 PUSH1 0x40 MLOAD DUP1 DUP4 SUB DUP2 DUP7 GAS STATICCALL ISZERO DUP1 ISZERO PUSH2 0x1BD4 JUMPI RETURNDATASIZE PUSH1 0x0 DUP1 RETURNDATACOPY RETURNDATASIZE PUSH1 0x0 REVERT JUMPDEST POP POP POP POP PUSH1 0x40 MLOAD RETURNDATASIZE PUSH1 0x1F NOT PUSH1 0x1F DUP3 ADD AND DUP3 ADD DUP1 PUSH1 0x40 MSTORE POP DUP2 ADD SWAP1 PUSH2 0x1BF8 SWAP2 SWAP1 PUSH2 0x5B76 JUMP JUMPDEST PUSH1 0x40 MLOAD PUSH4 0x55EB6B35 PUSH1 0xE0 SHL DUP2 MSTORE PUSH1 0x1 PUSH1 0x1 PUSH1 0xA0 SHL SUB DUP5 DUP2 AND PUSH1 0x4 DUP4 ADD MSTORE SWAP2 SWAP3 POP PUSH1 0x0 SWAP2 PUSH32 0x0 AND SWAP1 PUSH4 0x55EB6B35 SWAP1 PUSH1 0x24 ADD PUSH1 0x20 PUSH1 0x40 MLOAD DUP1 DUP4 SUB DUP2 DUP7 GAS STATICCALL ISZERO DUP1 ISZERO PUSH2 0x1C64 JUMPI RETURNDATASIZE PUSH1 0x0 DUP1 RETURNDATACOPY RETURNDATASIZE PUSH1 0x0 REVERT JUMPDEST POP POP POP POP PUSH1 0x40 MLOAD RETURNDATASIZE PUSH1 0x1F NOT PUSH1 0x1F DUP3 ADD AND DUP3 ADD DUP1 PUSH1 0x40 MSTORE POP DUP2 ADD SWAP1 PUSH2 0x1C88 SWAP2 SWAP1 PUSH2 0x5B76 JUMP JUMPDEST PUSH1 0x40 MLOAD PUSH4 0x1DA958A9 PUSH1 0xE2 SHL DUP2 MSTORE PUSH1 0x1 PUSH1 0x1 PUSH1 0xA0 SHL SUB DUP6 DUP2 AND PUSH1 0x4 DUP4 ADD MSTORE SWAP2 SWAP1 SWAP2 AND SWAP1 PUSH4 0x76A562A4 SWAP1 PUSH1 0x24 ADD PUSH1 0x20 PUSH1 0x40 MLOAD DUP1 DUP4 SUB DUP2 DUP7 GAS STATICCALL ISZERO DUP1 ISZERO PUSH2 0x1CD0 JUMPI RETURNDATASIZE PUSH1 0x0 DUP1 RETURNDATACOPY RETURNDATASIZE PUSH1 0x0 REVERT JUMPDEST POP POP POP POP PUSH1 0x40 MLOAD RETURNDATASIZE PUSH1 0x1F NOT PUSH1 0x1F DUP3 ADD AND DUP3 ADD DUP1 PUSH1 0x40 MSTORE POP DUP2 ADD SWAP1 PUSH2 0x1CF4 SWAP2 SWAP1 PUSH2 0x5B76 JUMP JUMPDEST SWAP1 POP PUSH2 0x1AEC PUSH1 0x1 PUSH1 0x1 PUSH1 0xA0 SHL SUB DUP3 AND DUP4 PUSH1 0x0 PUSH2 0x37BA JUMP JUMPDEST PUSH1 0x0 PUSH2 0x1377 PUSH2 0x1D18 PUSH2 0x315E JUMP JUMPDEST PUSH2 0x3911 JUMP JUMPDEST PUSH1 0x0 PUSH2 0x12E7 CALLER DUP6 DUP6 DUP6 PUSH2 0x1D38 JUMP JUMPDEST PUSH1 0x0 PUSH2 0xF57 DUP4 DUP4 CALLER PUSH2 0xB2E JUMP JUMPDEST PUSH1 0x0 PUSH2 0x1D46 PUSH1 0x1 SLOAD TIMESTAMP GT ISZERO SWAP1 JUMP JUMPDEST ISZERO PUSH2 0x1D7C JUMPI PUSH1 0x40 MLOAD PUSH3 0x461BCD PUSH1 0xE5 SHL DUP2 MSTORE PUSH1 0x20 PUSH1 0x4 DUP3 ADD MSTORE PUSH1 0x6 PUSH1 0x24 DUP3 ADD MSTORE PUSH6 0x1C185D5CD959 PUSH1 0xD2 SHL PUSH1 0x44 DUP3 ADD MSTORE PUSH1 0x64 ADD PUSH2 0x402 JUMP JUMPDEST PUSH2 0x1D84 PUSH2 0x29FB JUMP JUMPDEST PUSH2 0x1DDA PUSH1 0x40 MLOAD DUP1 PUSH2 0x140 ADD PUSH1 0x40 MSTORE DUP1 PUSH1 0x0 DUP2 MSTORE PUSH1 0x20 ADD PUSH1 0x0 DUP2 MSTORE PUSH1 0x20 ADD PUSH1 0x0 DUP2 MSTORE PUSH1 0x20 ADD PUSH1 0x0 DUP2 MSTORE PUSH1 0x20 ADD PUSH1 0x0 DUP2 MSTORE PUSH1 0x20 ADD PUSH1 0x0 DUP2 MSTORE PUSH1 0x20 ADD PUSH1 0x60 DUP2 MSTORE PUSH1 0x20 ADD PUSH1 0x0 DUP2 MSTORE PUSH1 0x20 ADD PUSH1 0x0 DUP2 MSTORE PUSH1 0x20 ADD PUSH1 0x60 DUP2 MSTORE POP SWAP1 JUMP JUMPDEST PUSH1 0x5 SLOAD PUSH1 0xFF AND ISZERO PUSH2 0x1E21 JUMPI PUSH1 0x40 MLOAD PUSH3 0x461BCD PUSH1 0xE5 SHL DUP2 MSTORE PUSH1 0x20 PUSH1 0x4 DUP3 ADD MSTORE PUSH1 0x11 PUSH1 0x24 DUP3 ADD MSTORE PUSH17 0x3837B7B61034B99039B43ABA103237BBB7 PUSH1 0x79 SHL PUSH1 0x44 DUP3 ADD MSTORE PUSH1 0x64 ADD PUSH2 0x402 JUMP JUMPDEST PUSH1 0x0 DUP6 GT PUSH2 0x1E71 JUMPI PUSH1 0x40 MLOAD PUSH3 0x461BCD PUSH1 0xE5 SHL DUP2 MSTORE PUSH1 0x20 PUSH1 0x4 DUP3 ADD MSTORE PUSH1 0x1D PUSH1 0x24 DUP3 ADD MSTORE PUSH32 0x6465706F73697420616D6F756E742063616E6E6F74206265207A65726F000000 PUSH1 0x44 DUP3 ADD MSTORE PUSH1 0x64 ADD PUSH2 0x402 JUMP JUMPDEST PUSH2 0x1E79 PUSH2 0x45CE JUMP JUMPDEST PUSH1 0x0 PUSH32 0x0 PUSH1 0x1 PUSH1 0x1 PUSH1 0xA0 SHL SUB AND PUSH4 0x2630C12F PUSH1 0x40 MLOAD DUP2 PUSH4 0xFFFFFFFF AND PUSH1 0xE0 SHL DUP2 MSTORE PUSH1 0x4 ADD PUSH1 0x20 PUSH1 0x40 MLOAD DUP1 DUP4 SUB DUP2 DUP7 GAS STATICCALL ISZERO DUP1 ISZERO PUSH2 0x1ED9 JUMPI RETURNDATASIZE PUSH1 0x0 DUP1 RETURNDATACOPY RETURNDATASIZE PUSH1 0x0 REVERT JUMPDEST POP POP POP POP PUSH1 0x40 MLOAD RETURNDATASIZE PUSH1 0x1F NOT PUSH1 0x1F DUP3 ADD AND DUP3 ADD DUP1 PUSH1 0x40 MSTORE POP DUP2 ADD SWAP1 PUSH2 0x1EFD SWAP2 SWAP1 PUSH2 0x5B76 JUMP JUMPDEST PUSH1 0x40 MLOAD PUSH4 0x8B2F0F4F PUSH1 0xE0 SHL DUP2 MSTORE PUSH1 0x1 PUSH1 0x1 PUSH1 0xA0 SHL SUB PUSH32 0x0 DUP2 AND PUSH1 0x4 DUP4 ADD MSTORE SWAP2 SWAP1 SWAP2 AND SWAP1 PUSH4 0x8B2F0F4F SWAP1 PUSH1 0x24 ADD PUSH1 0x20 PUSH1 0x40 MLOAD DUP1 DUP4 SUB DUP2 DUP7 GAS STATICCALL ISZERO DUP1 ISZERO PUSH2 0x1F65 JUMPI RETURNDATASIZE PUSH1 0x0 DUP1 RETURNDATACOPY RETURNDATASIZE PUSH1 0x0 REVERT JUMPDEST POP POP POP POP PUSH1 0x40 MLOAD RETURNDATASIZE PUSH1 0x1F NOT PUSH1 0x1F DUP3 ADD AND DUP3 ADD DUP1 PUSH1 0x40 MSTORE POP DUP2 ADD SWAP1 PUSH2 0x1F89 SWAP2 SWAP1 PUSH2 0x5A90 JUMP JUMPDEST SWAP1 POP PUSH2 0x1F96 DUP2 PUSH1 0x1 PUSH2 0x3F76 JUMP JUMPDEST PUSH1 0xC0 DUP6 ADD MSTORE PUSH1 0xA0 DUP5 ADD MSTORE PUSH1 0x80 DUP4 ADD DUP2 SWAP1 MSTORE PUSH2 0x1FB0 SWAP1 PUSH2 0x3911 JUMP JUMPDEST DUP3 MSTORE PUSH2 0x1FE7 PUSH1 0x1 PUSH1 0x1 PUSH1 0xA0 SHL SUB PUSH32 0x0 AND CALLER ADDRESS DUP10 PUSH2 0x4789 JUMP JUMPDEST PUSH1 0xA0 DUP3 ADD MLOAD PUSH1 0xC0 DUP4 ADD MLOAD PUSH1 0x40 MLOAD PUSH4 0x70A08231 PUSH1 0xE0 SHL DUP2 MSTORE ADDRESS PUSH1 0x4 DUP3 ADD MSTORE PUSH2 0x2084 SWAP3 SWAP2 SWAP1 PUSH1 0x1 PUSH1 0x1 PUSH1 0xA0 SHL SUB PUSH32 0x0 AND SWAP1 PUSH4 0x70A08231 SWAP1 PUSH1 0x24 ADD PUSH1 0x20 PUSH1 0x40 MLOAD DUP1 DUP4 SUB DUP2 DUP7 GAS STATICCALL ISZERO DUP1 ISZERO PUSH2 0x205B JUMPI RETURNDATASIZE PUSH1 0x0 DUP1 RETURNDATACOPY RETURNDATASIZE PUSH1 0x0 REVERT JUMPDEST POP POP POP POP PUSH1 0x40 MLOAD RETURNDATASIZE PUSH1 0x1F NOT PUSH1 0x1F DUP3 ADD AND DUP3 ADD DUP1 PUSH1 0x40 MSTORE POP DUP2 ADD SWAP1 PUSH2 0x207F SWAP2 SWAP1 PUSH2 0x5A90 JUMP JUMPDEST PUSH2 0x47C7 JUMP JUMPDEST PUSH2 0x208F DUP2 PUSH1 0x2 PUSH2 0x3F76 JUMP JUMPDEST PUSH2 0x120 DUP6 ADD MSTORE PUSH2 0x100 DUP5 ADD MSTORE PUSH1 0xE0 DUP4 ADD DUP2 SWAP1 MSTORE PUSH1 0x80 DUP4 ADD MLOAD PUSH2 0x20B0 SWAP2 PUSH2 0x5ABF JUMP JUMPDEST PUSH1 0x20 DUP4 ADD DUP2 SWAP1 MSTORE PUSH2 0x20C2 SWAP1 DUP8 SWAP1 PUSH2 0x3C9B JUMP JUMPDEST PUSH1 0x40 DUP4 ADD DUP2 SWAP1 MSTORE DUP3 MLOAD PUSH2 0x20D5 SWAP2 SWAP1 PUSH2 0x4A8F JUMP JUMPDEST PUSH1 0x60 DUP4 ADD DUP2 SWAP1 MSTORE DUP6 GT ISZERO PUSH2 0x211F JUMPI PUSH1 0x40 MLOAD PUSH3 0x461BCD PUSH1 0xE5 SHL DUP2 MSTORE PUSH1 0x20 PUSH1 0x4 DUP3 ADD MSTORE PUSH1 0x11 PUSH1 0x24 DUP3 ADD MSTORE PUSH17 0x746F6F206D75636820736C697070616765 PUSH1 0x78 SHL PUSH1 0x44 DUP3 ADD MSTORE PUSH1 0x64 ADD PUSH2 0x402 JUMP JUMPDEST PUSH1 0xE0 DUP3 ADD MLOAD PUSH1 0x8 SSTORE TIMESTAMP PUSH1 0x7 SSTORE DUP4 ISZERO PUSH2 0x230D JUMPI PUSH1 0x60 DUP3 ADD MLOAD PUSH1 0x40 MLOAD PUSH4 0xD4D1513 PUSH1 0xE0 SHL DUP2 MSTORE ADDRESS PUSH1 0x4 DUP3 ADD MSTORE PUSH1 0x24 DUP2 ADD SWAP2 SWAP1 SWAP2 MSTORE PUSH1 0x1 PUSH1 0x1 PUSH1 0xA0 SHL SUB DUP9 DUP2 AND PUSH1 0x44 DUP4 ADD MSTORE PUSH32 0x0 AND SWAP1 PUSH4 0xD4D1513 SWAP1 PUSH1 0x64 ADD PUSH1 0x20 PUSH1 0x40 MLOAD DUP1 DUP4 SUB DUP2 PUSH1 0x0 DUP8 GAS CALL ISZERO DUP1 ISZERO PUSH2 0x21AC JUMPI RETURNDATASIZE PUSH1 0x0 DUP1 RETURNDATACOPY RETURNDATASIZE PUSH1 0x0 REVERT JUMPDEST POP POP POP POP PUSH1 0x40 MLOAD RETURNDATASIZE PUSH1 0x1F NOT PUSH1 0x1F DUP3 ADD AND DUP3 ADD DUP1 PUSH1 0x40 MSTORE POP DUP2 ADD SWAP1 PUSH2 0x21D0 SWAP2 SWAP1 PUSH2 0x5A90 JUMP JUMPDEST POP PUSH1 0x0 PUSH32 0x0 PUSH1 0x1 PUSH1 0x1 PUSH1 0xA0 SHL SUB AND PUSH4 0x48439E7E PUSH1 0x40 MLOAD DUP2 PUSH4 0xFFFFFFFF AND PUSH1 0xE0 SHL DUP2 MSTORE PUSH1 0x4 ADD PUSH1 0x20 PUSH1 0x40 MLOAD DUP1 DUP4 SUB DUP2 DUP7 GAS STATICCALL ISZERO DUP1 ISZERO PUSH2 0x2231 JUMPI RETURNDATASIZE PUSH1 0x0 DUP1 RETURNDATACOPY RETURNDATASIZE PUSH1 0x0 REVERT JUMPDEST POP POP POP POP PUSH1 0x40 MLOAD RETURNDATASIZE PUSH1 0x1F NOT PUSH1 0x1F DUP3 ADD AND DUP3 ADD DUP1 PUSH1 0x40 MSTORE POP DUP2 ADD SWAP1 PUSH2 0x2255 SWAP2 SWAP1 PUSH2 0x5B76 JUMP JUMPDEST SWAP1 POP PUSH2 0x2299 DUP2 DUP5 PUSH1 0x60 ADD MLOAD PUSH32 0x0 PUSH1 0x1 PUSH1 0x1 PUSH1 0xA0 SHL SUB AND PUSH2 0x4AA8 SWAP1 SWAP3 SWAP2 SWAP1 PUSH4 0xFFFFFFFF AND JUMP JUMPDEST PUSH1 0x60 DUP4 ADD MLOAD PUSH1 0x40 MLOAD PUSH4 0x33F1C337 PUSH1 0xE0 SHL DUP2 MSTORE PUSH1 0x4 DUP2 ADD SWAP2 SWAP1 SWAP2 MSTORE ADDRESS PUSH1 0x24 DUP3 ADD MSTORE PUSH1 0x1 PUSH1 0x1 PUSH1 0xA0 SHL SUB DUP10 DUP2 AND PUSH1 0x44 DUP4 ADD MSTORE DUP3 AND SWAP1 PUSH4 0x33F1C337 SWAP1 PUSH1 0x64 ADD PUSH1 0x0 PUSH1 0x40 MLOAD DUP1 DUP4 SUB DUP2 PUSH1 0x0 DUP8 DUP1 EXTCODESIZE ISZERO DUP1 ISZERO PUSH2 0x22EF JUMPI PUSH1 0x0 DUP1 REVERT JUMPDEST POP GAS CALL ISZERO DUP1 ISZERO PUSH2 0x2303 JUMPI RETURNDATASIZE PUSH1 0x0 DUP1 RETURNDATACOPY RETURNDATASIZE PUSH1 0x0 REVERT JUMPDEST POP POP POP POP POP PUSH2 0x23B4 JUMP JUMPDEST PUSH1 0x60 DUP3 ADD MLOAD PUSH1 0x40 MLOAD PUSH4 0xD4D1513 PUSH1 0xE0 SHL DUP2 MSTORE PUSH1 0x1 PUSH1 0x1 PUSH1 0xA0 SHL SUB DUP10 DUP2 AND PUSH1 0x4 DUP4 ADD DUP2 SWAP1 MSTORE PUSH1 0x24 DUP4 ADD SWAP4 SWAP1 SWAP4 MSTORE PUSH1 0x44 DUP3 ADD SWAP3 SWAP1 SWAP3 MSTORE PUSH32 0x0 SWAP1 SWAP2 AND SWAP1 PUSH4 0xD4D1513 SWAP1 PUSH1 0x64 ADD PUSH1 0x20 PUSH1 0x40 MLOAD DUP1 DUP4 SUB DUP2 PUSH1 0x0 DUP8 GAS CALL ISZERO DUP1 ISZERO PUSH2 0x238E JUMPI RETURNDATASIZE PUSH1 0x0 DUP1 RETURNDATACOPY RETURNDATASIZE PUSH1 0x0 REVERT JUMPDEST POP POP POP POP PUSH1 0x40 MLOAD RETURNDATASIZE PUSH1 0x1F NOT PUSH1 0x1F DUP3 ADD AND DUP3 ADD DUP1 PUSH1 0x40 MSTORE POP DUP2 ADD SWAP1 PUSH2 0x23B2 SWAP2 SWAP1 PUSH2 0x5A90 JUMP JUMPDEST POP JUMPDEST PUSH2 0x23D3 DUP8 DUP4 PUSH1 0xA0 ADD MLOAD DUP5 PUSH1 0xC0 ADD MLOAD DUP6 PUSH2 0x100 ADD MLOAD DUP7 PUSH2 0x120 ADD MLOAD PUSH2 0x4B37 JUMP JUMPDEST PUSH1 0x60 DUP3 ADD MLOAD PUSH1 0x40 DUP1 MLOAD DUP9 DUP2 MSTORE PUSH1 0x20 DUP2 ADD SWAP3 SWAP1 SWAP3 MSTORE PUSH1 0x1 PUSH1 0x1 PUSH1 0xA0 SHL SUB DUP10 AND SWAP2 CALLER SWAP2 PUSH32 0xDCBC1C05240F31FF3AD067EF1EE35CE4997762752E3A095284754544F4C709D7 SWAP2 ADD PUSH1 0x40 MLOAD DUP1 SWAP2 SUB SWAP1 LOG3 POP PUSH1 0x60 ADD MLOAD SWAP6 SWAP5 POP POP POP POP POP JUMP JUMPDEST PUSH2 0x2435 PUSH2 0x3F1C JUMP JUMPDEST PUSH2 0x243F PUSH1 0x0 PUSH2 0x4D7F JUMP JUMPDEST JUMP JUMPDEST PUSH1 0x0 DUP1 PUSH1 0x0 PUSH2 0x244E PUSH2 0x15AA JUMP JUMPDEST PUSH1 0x40 MLOAD PUSH4 0x3F20953D PUSH1 0xE1 SHL DUP2 MSTORE SWAP2 SWAP5 POP SWAP3 POP PUSH1 0x1 PUSH1 0x1 PUSH1 0xA0 SHL SUB PUSH32 0x0 AND SWAP2 POP PUSH4 0x7E412A7A SWAP1 PUSH2 0x24A2 SWAP1 DUP6 SWAP1 DUP6 SWAP1 PUSH1 0x4 ADD PUSH2 0x5C9B JUMP JUMPDEST PUSH1 0x20 PUSH1 0x40 MLOAD DUP1 DUP4 SUB DUP2 DUP7 GAS STATICCALL ISZERO DUP1 ISZERO PUSH2 0x24BF JUMPI RETURNDATASIZE PUSH1 0x0 DUP1 RETURNDATACOPY RETURNDATASIZE PUSH1 0x0 REVERT JUMPDEST POP POP POP POP PUSH1 0x40 MLOAD RETURNDATASIZE PUSH1 0x1F NOT PUSH1 0x1F DUP3 ADD AND DUP3 ADD DUP1 PUSH1 0x40 MSTORE POP DUP2 ADD SWAP1 PUSH2 0x24E3 SWAP2 SWAP1 PUSH2 0x5A90 JUMP JUMPDEST SWAP3 POP POP POP SWAP1 JUMP JUMPDEST PUSH1 0x40 MLOAD PUSH4 0x4EB3FFC3 PUSH1 0xE0 SHL DUP2 MSTORE CALLER PUSH1 0x4 DUP3 ADD MSTORE PUSH32 0x0 PUSH1 0x1 PUSH1 0x1 PUSH1 0xA0 SHL SUB AND SWAP1 PUSH4 0x4EB3FFC3 SWAP1 PUSH1 0x24 ADD PUSH1 0x20 PUSH1 0x40 MLOAD DUP1 DUP4 SUB DUP2 DUP7 GAS STATICCALL ISZERO DUP1 ISZERO PUSH2 0x254E JUMPI RETURNDATASIZE PUSH1 0x0 DUP1 RETURNDATACOPY RETURNDATASIZE PUSH1 0x0 REVERT JUMPDEST POP POP POP POP PUSH1 0x40 MLOAD RETURNDATASIZE PUSH1 0x1F NOT PUSH1 0x1F DUP3 ADD AND DUP3 ADD DUP1 PUSH1 0x40 MSTORE POP DUP2 ADD SWAP1 PUSH2 0x2572 SWAP2 SWAP1 PUSH2 0x5CDC JUMP JUMPDEST PUSH2 0x25B2 JUMPI PUSH1 0x40 MLOAD PUSH3 0x461BCD PUSH1 0xE5 SHL DUP2 MSTORE PUSH1 0x20 PUSH1 0x4 DUP3 ADD MSTORE PUSH1 0x11 PUSH1 0x24 DUP3 ADD MSTORE PUSH17 0x3737BA103830BAB9B29036B0B730B3B2B9 PUSH1 0x79 SHL PUSH1 0x44 DUP3 ADD MSTORE PUSH1 0x64 ADD PUSH2 0x402 JUMP JUMPDEST PUSH1 0x2 SLOAD PUSH2 0x25BF SWAP1 TIMESTAMP PUSH2 0x5C5F JUMP JUMPDEST PUSH1 0x1 DUP2 SWAP1 SSTORE PUSH1 0x40 MLOAD SWAP1 DUP2 MSTORE PUSH32 0x32FB7C9891BC4F963C7DE9F1186D2A7755C7D6E9F4604DABE1D8BB3027C2F49E SWAP1 PUSH1 0x20 ADD PUSH1 0x40 MLOAD DUP1 SWAP2 SUB SWAP1 LOG1 JUMP JUMPDEST PUSH1 0x60 PUSH1 0x0 PUSH32 0x0 PUSH1 0x1 PUSH1 0x1 PUSH1 0xA0 SHL SUB AND PUSH4 0xC5C63E65 PUSH1 0x40 MLOAD DUP2 PUSH4 0xFFFFFFFF AND PUSH1 0xE0 SHL DUP2 MSTORE PUSH1 0x4 ADD PUSH1 0x0 PUSH1 0x40 MLOAD DUP1 DUP4 SUB DUP2 DUP7 GAS STATICCALL ISZERO DUP1 ISZERO PUSH2 0x265B JUMPI RETURNDATASIZE PUSH1 0x0 DUP1 RETURNDATACOPY RETURNDATASIZE PUSH1 0x0 REVERT JUMPDEST POP POP POP POP PUSH1 0x40 MLOAD RETURNDATASIZE PUSH1 0x0 DUP3 RETURNDATACOPY PUSH1 0x1F RETURNDATASIZE SWAP1 DUP2 ADD PUSH1 0x1F NOT AND DUP3 ADD PUSH1 0x40 MSTORE PUSH2 0x2683 SWAP2 SWAP1 DUP2 ADD SWAP1 PUSH2 0x5AD2 JUMP JUMPDEST SWAP1 POP PUSH1 0x0 DUP2 MLOAD PUSH1 0x1 PUSH1 0x1 PUSH1 0x40 SHL SUB DUP2 GT ISZERO PUSH2 0x26A0 JUMPI PUSH2 0x26A0 PUSH2 0x592A JUMP JUMPDEST PUSH1 0x40 MLOAD SWAP1 DUP1 DUP3 MSTORE DUP1 PUSH1 0x20 MUL PUSH1 0x20 ADD DUP3 ADD PUSH1 0x40 MSTORE DUP1 ISZERO PUSH2 0x26E5 JUMPI DUP2 PUSH1 0x20 ADD JUMPDEST PUSH1 0x40 DUP1 MLOAD DUP1 DUP3 ADD SWAP1 SWAP2 MSTORE PUSH1 0x0 DUP1 DUP3 MSTORE PUSH1 0x20 DUP3 ADD MSTORE DUP2 MSTORE PUSH1 0x20 ADD SWAP1 PUSH1 0x1 SWAP1 SUB SWAP1 DUP2 PUSH2 0x26BE JUMPI SWAP1 POP JUMPDEST POP SWAP1 POP PUSH1 0x0 PUSH2 0x26F2 PUSH2 0x15AA JUMP JUMPDEST SWAP3 POP POP POP PUSH1 0x0 JUMPDEST DUP3 MLOAD DUP2 LT ISZERO PUSH2 0x2782 JUMPI PUSH1 0x40 MLOAD DUP1 PUSH1 0x40 ADD PUSH1 0x40 MSTORE DUP1 DUP6 DUP4 DUP2 MLOAD DUP2 LT PUSH2 0x271F JUMPI PUSH2 0x271F PUSH2 0x5B60 JUMP JUMPDEST PUSH1 0x20 MUL PUSH1 0x20 ADD ADD MLOAD PUSH1 0x1 PUSH1 0x1 PUSH1 0xA0 SHL SUB AND DUP2 MSTORE PUSH1 0x20 ADD DUP4 DUP4 DUP2 MLOAD DUP2 LT PUSH2 0x2747 JUMPI PUSH2 0x2747 PUSH2 0x5B60 JUMP JUMPDEST PUSH1 0x20 MUL PUSH1 0x20 ADD ADD MLOAD DUP2 MSTORE POP DUP4 DUP3 DUP2 MLOAD DUP2 LT PUSH2 0x2764 JUMPI PUSH2 0x2764 PUSH2 0x5B60 JUMP JUMPDEST PUSH1 0x20 MUL PUSH1 0x20 ADD ADD DUP2 SWAP1 MSTORE POP DUP1 DUP1 PUSH2 0x277A SWAP1 PUSH2 0x5B93 JUMP JUMPDEST SWAP2 POP POP PUSH2 0x26F9 JUMP JUMPDEST POP SWAP1 SWAP4 SWAP3 POP POP POP JUMP JUMPDEST PUSH1 0x0 PUSH32 0x0 PUSH1 0x1 PUSH1 0x1 PUSH1 0xA0 SHL SUB AND PUSH4 0x8C788DE0 PUSH1 0x40 MLOAD DUP2 PUSH4 0xFFFFFFFF AND PUSH1 0xE0 SHL DUP2 MSTORE PUSH1 0x4 ADD PUSH1 0x20 PUSH1 0x40 MLOAD DUP1 DUP4 SUB DUP2 DUP7 GAS STATICCALL ISZERO DUP1 ISZERO PUSH2 0x27EB JUMPI RETURNDATASIZE PUSH1 0x0 DUP1 RETURNDATACOPY RETURNDATASIZE PUSH1 0x0 REVERT JUMPDEST POP POP POP POP PUSH1 0x40 MLOAD RETURNDATASIZE PUSH1 0x1F NOT PUSH1 0x1F DUP3 ADD AND DUP3 ADD DUP1 PUSH1 0x40 MSTORE POP DUP2 ADD SWAP1 PUSH2 0x1377 SWAP2 SWAP1 PUSH2 0x5A90 JUMP JUMPDEST CALLER PUSH1 0x1 PUSH1 0x1 PUSH1 0xA0 SHL SUB PUSH32 0x0 AND EQ PUSH2 0x2857 JUMPI PUSH1 0x40 MLOAD PUSH3 0x461BCD PUSH1 0xE5 SHL DUP2 MSTORE PUSH1 0x4 ADD PUSH2 0x402 SWAP1 PUSH2 0x5CB4 JUMP JUMPDEST PUSH2 0x285F PUSH2 0x29FB JUMP JUMPDEST PUSH1 0x40 MLOAD PUSH4 0x8DBFB25B PUSH1 0xE0 SHL DUP2 MSTORE PUSH1 0x1 PUSH1 0x1 PUSH1 0xA0 SHL SUB PUSH32 0x0 AND SWAP1 PUSH4 0x8DBFB25B SWAP1 PUSH2 0x28AB SWAP1 DUP5 SWAP1 PUSH1 0x4 ADD PUSH2 0x5741 JUMP JUMPDEST PUSH1 0x0 PUSH1 0x40 MLOAD DUP1 DUP4 SUB DUP2 PUSH1 0x0 DUP8 DUP1 EXTCODESIZE ISZERO DUP1 ISZERO PUSH2 0x28C5 JUMPI PUSH1 0x0 DUP1 REVERT JUMPDEST POP GAS CALL ISZERO DUP1 ISZERO PUSH2 0x28D9 JUMPI RETURNDATASIZE PUSH1 0x0 DUP1 RETURNDATACOPY RETURNDATASIZE PUSH1 0x0 REVERT JUMPDEST POP POP POP POP PUSH1 0x0 DUP1 PUSH1 0x0 PUSH2 0x28EA PUSH2 0x15AA JUMP JUMPDEST SWAP3 POP SWAP3 POP SWAP3 POP PUSH1 0x0 PUSH32 0x0 PUSH1 0x1 PUSH1 0x1 PUSH1 0xA0 SHL SUB AND PUSH4 0x7E412A7A DUP6 DUP5 PUSH1 0x40 MLOAD DUP4 PUSH4 0xFFFFFFFF AND PUSH1 0xE0 SHL DUP2 MSTORE PUSH1 0x4 ADD PUSH2 0x2940 SWAP3 SWAP2 SWAP1 PUSH2 0x5C9B JUMP JUMPDEST PUSH1 0x20 PUSH1 0x40 MLOAD DUP1 DUP4 SUB DUP2 DUP7 GAS STATICCALL ISZERO DUP1 ISZERO PUSH2 0x295D JUMPI RETURNDATASIZE PUSH1 0x0 DUP1 RETURNDATACOPY RETURNDATASIZE PUSH1 0x0 REVERT JUMPDEST POP POP POP POP PUSH1 0x40 MLOAD RETURNDATASIZE PUSH1 0x1F NOT PUSH1 0x1F DUP3 ADD AND DUP3 ADD DUP1 PUSH1 0x40 MSTORE POP DUP2 ADD SWAP1 PUSH2 0x2981 SWAP2 SWAP1 PUSH2 0x5A90 JUMP JUMPDEST PUSH1 0xC DUP2 SWAP1 SSTORE PUSH1 0x9 SLOAD SWAP1 SWAP2 POP PUSH1 0xFF AND DUP1 ISZERO PUSH2 0x29A2 JUMPI POP PUSH2 0x29A0 DUP3 DUP5 PUSH2 0x4DCF JUMP JUMPDEST ISZERO JUMPDEST PUSH1 0x9 DUP1 SLOAD SWAP2 ISZERO ISZERO PUSH2 0x100 MUL PUSH2 0xFF00 NOT SWAP1 SWAP3 AND SWAP2 SWAP1 SWAP2 OR SWAP1 SSTORE PUSH2 0x29C6 PUSH1 0x12 PUSH1 0xA PUSH2 0x5DDD JUMP JUMPDEST PUSH1 0xB SSTORE PUSH1 0x9 DUP1 SLOAD PUSH10 0xFFFFFFFFFFFFFFFF0000 NOT AND PUSH3 0x10000 TIMESTAMP PUSH1 0x1 PUSH1 0x1 PUSH1 0x40 SHL SUB AND MUL OR SWAP1 SSTORE PUSH2 0x29F4 PUSH2 0x4E64 JUMP JUMPDEST POP POP POP POP POP JUMP JUMPDEST PUSH1 0x0 PUSH32 0x0 PUSH1 0x1 PUSH1 0x1 PUSH1 0xA0 SHL SUB AND PUSH4 0x9F82B217 PUSH1 0x40 MLOAD DUP2 PUSH4 0xFFFFFFFF AND PUSH1 0xE0 SHL DUP2 MSTORE PUSH1 0x4 ADD PUSH1 0x20 PUSH1 0x40 MLOAD DUP1 DUP4 SUB DUP2 DUP7 GAS STATICCALL ISZERO DUP1 ISZERO PUSH2 0x2A5B JUMPI RETURNDATASIZE PUSH1 0x0 DUP1 RETURNDATACOPY RETURNDATASIZE PUSH1 0x0 REVERT JUMPDEST POP POP POP POP PUSH1 0x40 MLOAD RETURNDATASIZE PUSH1 0x1F NOT PUSH1 0x1F DUP3 ADD AND DUP3 ADD DUP1 PUSH1 0x40 MSTORE POP DUP2 ADD SWAP1 PUSH2 0x2A7F SWAP2 SWAP1 PUSH2 0x5B76 JUMP JUMPDEST SWAP1 POP PUSH1 0x0 PUSH32 0x0 PUSH1 0x1 PUSH1 0x1 PUSH1 0xA0 SHL SUB AND PUSH4 0xC5C63E65 PUSH1 0x40 MLOAD DUP2 PUSH4 0xFFFFFFFF AND PUSH1 0xE0 SHL DUP2 MSTORE PUSH1 0x4 ADD PUSH1 0x0 PUSH1 0x40 MLOAD DUP1 DUP4 SUB DUP2 DUP7 GAS STATICCALL ISZERO DUP1 ISZERO PUSH2 0x2AE1 JUMPI RETURNDATASIZE PUSH1 0x0 DUP1 RETURNDATACOPY RETURNDATASIZE PUSH1 0x0 REVERT JUMPDEST POP POP POP POP PUSH1 0x40 MLOAD RETURNDATASIZE PUSH1 0x0 DUP3 RETURNDATACOPY PUSH1 0x1F RETURNDATASIZE SWAP1 DUP2 ADD PUSH1 0x1F NOT AND DUP3 ADD PUSH1 0x40 MSTORE PUSH2 0x2B09 SWAP2 SWAP1 DUP2 ADD SWAP1 PUSH2 0x5AD2 JUMP JUMPDEST SWAP1 POP PUSH1 0x0 JUMPDEST DUP2 MLOAD DUP2 LT ISZERO PUSH2 0x1AEC JUMPI PUSH1 0x0 DUP3 DUP3 DUP2 MLOAD DUP2 LT PUSH2 0x2B2B JUMPI PUSH2 0x2B2B PUSH2 0x5B60 JUMP JUMPDEST PUSH1 0x20 MUL PUSH1 0x20 ADD ADD MLOAD SWAP1 POP PUSH32 0x0 PUSH1 0x1 PUSH1 0x1 PUSH1 0xA0 SHL SUB AND PUSH4 0x55EB6B35 DUP3 PUSH1 0x40 MLOAD DUP3 PUSH4 0xFFFFFFFF AND PUSH1 0xE0 SHL DUP2 MSTORE PUSH1 0x4 ADD PUSH2 0x2B90 SWAP2 SWAP1 PUSH1 0x1 PUSH1 0x1 PUSH1 0xA0 SHL SUB SWAP2 SWAP1 SWAP2 AND DUP2 MSTORE PUSH1 0x20 ADD SWAP1 JUMP JUMPDEST PUSH1 0x20 PUSH1 0x40 MLOAD DUP1 DUP4 SUB DUP2 DUP7 GAS STATICCALL ISZERO DUP1 ISZERO PUSH2 0x2BAD JUMPI RETURNDATASIZE PUSH1 0x0 DUP1 RETURNDATACOPY RETURNDATASIZE PUSH1 0x0 REVERT JUMPDEST POP POP POP POP PUSH1 0x40 MLOAD RETURNDATASIZE PUSH1 0x1F NOT PUSH1 0x1F DUP3 ADD AND DUP3 ADD DUP1 PUSH1 0x40 MSTORE POP DUP2 ADD SWAP1 PUSH2 0x2BD1 SWAP2 SWAP1 PUSH2 0x5B76 JUMP JUMPDEST PUSH1 0x40 MLOAD PUSH4 0xE155C057 PUSH1 0xE0 SHL DUP2 MSTORE PUSH1 0x1 PUSH1 0x1 PUSH1 0xA0 SHL SUB DUP4 DUP2 AND PUSH1 0x4 DUP4 ADD MSTORE SWAP2 SWAP1 SWAP2 AND SWAP1 PUSH4 0xE155C057 SWAP1 PUSH1 0x24 ADD PUSH1 0x0 PUSH1 0x40 MLOAD DUP1 DUP4 SUB DUP2 PUSH1 0x0 DUP8 DUP1 EXTCODESIZE ISZERO DUP1 ISZERO PUSH2 0x2C16 JUMPI PUSH1 0x0 DUP1 REVERT JUMPDEST POP GAS CALL ISZERO DUP1 ISZERO PUSH2 0x2C2A JUMPI RETURNDATASIZE PUSH1 0x0 DUP1 RETURNDATACOPY RETURNDATASIZE PUSH1 0x0 REVERT JUMPDEST POP POP PUSH1 0x40 MLOAD PUSH4 0x39D16A23 PUSH1 0xE1 SHL DUP2 MSTORE PUSH1 0x1 PUSH1 0x1 PUSH1 0xA0 SHL SUB DUP5 DUP2 AND PUSH1 0x4 DUP4 ADD MSTORE PUSH1 0x0 SWAP4 POP DUP8 AND SWAP2 POP PUSH4 0x73A2D446 SWAP1 PUSH1 0x24 ADD PUSH1 0x20 PUSH1 0x40 MLOAD DUP1 DUP4 SUB DUP2 DUP7 GAS STATICCALL ISZERO DUP1 ISZERO PUSH2 0x2C77 JUMPI RETURNDATASIZE PUSH1 0x0 DUP1 RETURNDATACOPY RETURNDATASIZE PUSH1 0x0 REVERT JUMPDEST POP POP POP POP PUSH1 0x40 MLOAD RETURNDATASIZE PUSH1 0x1F NOT PUSH1 0x1F DUP3 ADD AND DUP3 ADD DUP1 PUSH1 0x40 MSTORE POP DUP2 ADD SWAP1 PUSH2 0x2C9B SWAP2 SWAP1 PUSH2 0x5B76 JUMP JUMPDEST SWAP1 POP PUSH1 0x1 PUSH1 0x1 PUSH1 0xA0 SHL SUB DUP2 AND ISZERO PUSH2 0x2D94 JUMPI PUSH1 0x40 MLOAD PUSH4 0x55EB6B35 PUSH1 0xE0 SHL DUP2 MSTORE PUSH1 0x1 PUSH1 0x1 PUSH1 0xA0 SHL SUB DUP3 DUP2 AND PUSH1 0x4 DUP4 ADD MSTORE PUSH32 0x0 AND SWAP1 PUSH4 0x55EB6B35 SWAP1 PUSH1 0x24 ADD PUSH1 0x20 PUSH1 0x40 MLOAD DUP1 DUP4 SUB DUP2 DUP7 GAS STATICCALL ISZERO DUP1 ISZERO PUSH2 0x2D12 JUMPI RETURNDATASIZE PUSH1 0x0 DUP1 RETURNDATACOPY RETURNDATASIZE PUSH1 0x0 REVERT JUMPDEST POP POP POP POP PUSH1 0x40 MLOAD RETURNDATASIZE PUSH1 0x1F NOT PUSH1 0x1F DUP3 ADD AND DUP3 ADD DUP1 PUSH1 0x40 MSTORE POP DUP2 ADD SWAP1 PUSH2 0x2D36 SWAP2 SWAP1 PUSH2 0x5B76 JUMP JUMPDEST PUSH1 0x40 MLOAD PUSH4 0xE155C057 PUSH1 0xE0 SHL DUP2 MSTORE PUSH1 0x1 PUSH1 0x1 PUSH1 0xA0 SHL SUB DUP4 DUP2 AND PUSH1 0x4 DUP4 ADD MSTORE SWAP2 SWAP1 SWAP2 AND SWAP1 PUSH4 0xE155C057 SWAP1 PUSH1 0x24 ADD PUSH1 0x0 PUSH1 0x40 MLOAD DUP1 DUP4 SUB DUP2 PUSH1 0x0 DUP8 DUP1 EXTCODESIZE ISZERO DUP1 ISZERO PUSH2 0x2D7B JUMPI PUSH1 0x0 DUP1 REVERT JUMPDEST POP GAS CALL ISZERO DUP1 ISZERO PUSH2 0x2D8F JUMPI RETURNDATASIZE PUSH1 0x0 DUP1 RETURNDATACOPY RETURNDATASIZE PUSH1 0x0 REVERT JUMPDEST POP POP POP POP JUMPDEST POP POP DUP1 DUP1 PUSH2 0x2DA1 SWAP1 PUSH2 0x5B93 JUMP JUMPDEST SWAP2 POP POP PUSH2 0x2B0E JUMP JUMPDEST PUSH1 0x0 PUSH2 0x2DB3 PUSH2 0x29FB JUMP JUMPDEST PUSH1 0x40 MLOAD PUSH4 0x9765CA15 PUSH1 0xE0 SHL DUP2 MSTORE PUSH1 0x1 PUSH1 0x1 PUSH1 0xA0 SHL SUB DUP4 DUP2 AND PUSH1 0x4 DUP4 ADD MSTORE PUSH1 0x0 SWAP2 PUSH32 0x0 SWAP1 SWAP2 AND SWAP1 PUSH4 0x9765CA15 SWAP1 PUSH1 0x24 ADD PUSH1 0x20 PUSH1 0x40 MLOAD DUP1 DUP4 SUB DUP2 PUSH1 0x0 DUP8 GAS CALL ISZERO DUP1 ISZERO PUSH2 0x2E20 JUMPI RETURNDATASIZE PUSH1 0x0 DUP1 RETURNDATACOPY RETURNDATASIZE PUSH1 0x0 REVERT JUMPDEST POP POP POP POP PUSH1 0x40 MLOAD RETURNDATASIZE PUSH1 0x1F NOT PUSH1 0x1F DUP3 ADD AND DUP3 ADD DUP1 PUSH1 0x40 MSTORE POP DUP2 ADD SWAP1 PUSH2 0x2E44 SWAP2 SWAP1 PUSH2 0x5A90 JUMP JUMPDEST PUSH1 0x40 DUP1 MLOAD PUSH1 0x1 PUSH1 0x1 PUSH1 0xA0 SHL SUB DUP7 AND DUP2 MSTORE PUSH1 0x20 DUP2 ADD DUP4 SWAP1 MSTORE SWAP2 SWAP3 POP PUSH32 0xB6E3324444A482D3E4041851D767063381C41CD9ABC8A3191A0B61E3896F9443 SWAP2 ADD PUSH1 0x40 MLOAD DUP1 SWAP2 SUB SWAP1 LOG1 SWAP3 SWAP2 POP POP JUMP JUMPDEST PUSH1 0x40 MLOAD PUSH4 0xAC6C5251 PUSH1 0xE0 SHL DUP2 MSTORE PUSH1 0x1 PUSH1 0x1 PUSH1 0xA0 SHL SUB DUP3 DUP2 AND PUSH1 0x4 DUP4 ADD MSTORE PUSH1 0x0 SWAP2 PUSH32 0x0 SWAP1 SWAP2 AND SWAP1 PUSH4 0xAC6C5251 SWAP1 PUSH1 0x24 ADD PUSH1 0x20 PUSH1 0x40 MLOAD DUP1 DUP4 SUB DUP2 DUP7 GAS STATICCALL ISZERO DUP1 ISZERO PUSH2 0x2EFA JUMPI RETURNDATASIZE PUSH1 0x0 DUP1 RETURNDATACOPY RETURNDATASIZE PUSH1 0x0 REVERT JUMPDEST POP POP POP POP PUSH1 0x40 MLOAD RETURNDATASIZE PUSH1 0x1F NOT PUSH1 0x1F DUP3 ADD AND DUP3 ADD DUP1 PUSH1 0x40 MSTORE POP DUP2 ADD SWAP1 PUSH2 0x11E7 SWAP2 SWAP1 PUSH2 0x5A90 JUMP JUMPDEST PUSH2 0x2F26 PUSH2 0x3F1C JUMP JUMPDEST DUP1 PUSH1 0x4 SLOAD SUB PUSH2 0x2F47 JUMPI PUSH1 0x40 MLOAD PUSH3 0x461BCD PUSH1 0xE5 SHL DUP2 MSTORE PUSH1 0x4 ADD PUSH2 0x402 SWAP1 PUSH2 0x5C72 JUMP JUMPDEST PUSH8 0x2C68AF0BB140000 DUP2 GT ISZERO PUSH2 0x2F9F JUMPI PUSH1 0x40 MLOAD PUSH3 0x461BCD PUSH1 0xE5 SHL DUP2 MSTORE PUSH1 0x20 PUSH1 0x4 DUP3 ADD MSTORE PUSH1 0x19 PUSH1 0x24 DUP3 ADD MSTORE PUSH32 0x726174696F206578636565647320757070657220626F756E6400000000000000 PUSH1 0x44 DUP3 ADD MSTORE PUSH1 0x64 ADD PUSH2 0x402 JUMP JUMPDEST PUSH1 0x4 DUP2 SWAP1 SSTORE PUSH1 0x40 MLOAD DUP2 DUP2 MSTORE PUSH32 0xCF75D305993755A06325155BDFF6A203FF5EB28A3561E219588AEB6ABA8B3B54 SWAP1 PUSH1 0x20 ADD PUSH2 0x149E JUMP JUMPDEST PUSH2 0x2FDC PUSH2 0x3F1C JUMP JUMPDEST PUSH1 0x9 SLOAD DUP2 ISZERO ISZERO PUSH1 0xFF SWAP1 SWAP2 AND ISZERO ISZERO SUB PUSH2 0x3006 JUMPI PUSH1 0x40 MLOAD PUSH3 0x461BCD PUSH1 0xE5 SHL DUP2 MSTORE PUSH1 0x4 ADD PUSH2 0x402 SWAP1 PUSH2 0x5C72 JUMP JUMPDEST PUSH1 0x9 DUP1 SLOAD PUSH1 0xFF NOT AND DUP3 ISZERO ISZERO SWAP1 DUP2 OR SWAP1 SWAP2 SSTORE PUSH1 0x40 MLOAD SWAP1 DUP2 MSTORE PUSH32 0x279CEE3D8F87EC526DC3DA1F7F9000D2BEDD53531863D9E85E52EA363C3D1305 SWAP1 PUSH1 0x20 ADD PUSH2 0x149E JUMP JUMPDEST PUSH1 0x60 PUSH32 0x0 PUSH1 0x1 PUSH1 0x1 PUSH1 0xA0 SHL SUB AND PUSH4 0xC5C63E65 PUSH1 0x40 MLOAD DUP2 PUSH4 0xFFFFFFFF AND PUSH1 0xE0 SHL DUP2 MSTORE PUSH1 0x4 ADD PUSH1 0x0 PUSH1 0x40 MLOAD DUP1 DUP4 SUB DUP2 DUP7 GAS STATICCALL ISZERO DUP1 ISZERO PUSH2 0x30A7 JUMPI RETURNDATASIZE PUSH1 0x0 DUP1 RETURNDATACOPY RETURNDATASIZE PUSH1 0x0 REVERT JUMPDEST POP POP POP POP PUSH1 0x40 MLOAD RETURNDATASIZE PUSH1 0x0 DUP3 RETURNDATACOPY PUSH1 0x1F RETURNDATASIZE SWAP1 DUP2 ADD PUSH1 0x1F NOT AND DUP3 ADD PUSH1 0x40 MSTORE PUSH2 0x1377 SWAP2 SWAP1 DUP2 ADD SWAP1 PUSH2 0x5AD2 JUMP JUMPDEST PUSH1 0x40 MLOAD PUSH4 0xC699E633 PUSH1 0xE0 SHL DUP2 MSTORE PUSH1 0x1 PUSH1 0x1 PUSH1 0xA0 SHL SUB DUP3 DUP2 AND PUSH1 0x4 DUP4 ADD MSTORE PUSH1 0x0 SWAP2 PUSH32 0x0 SWAP1 SWAP2 AND SWAP1 PUSH4 0xC699E633 SWAP1 PUSH1 0x24 ADD PUSH1 0x20 PUSH1 0x40 MLOAD DUP1 DUP4 SUB DUP2 DUP7 GAS STATICCALL ISZERO DUP1 ISZERO PUSH2 0x313A JUMPI RETURNDATASIZE PUSH1 0x0 DUP1 RETURNDATACOPY RETURNDATASIZE PUSH1 0x0 REVERT JUMPDEST POP POP POP POP PUSH1 0x40 MLOAD RETURNDATASIZE PUSH1 0x1F NOT PUSH1 0x1F DUP3 ADD AND DUP3 ADD DUP1 PUSH1 0x40 MSTORE POP DUP2 ADD SWAP1 PUSH2 0x11E7 SWAP2 SWAP1 PUSH2 0x5CDC JUMP JUMPDEST PUSH1 0x0 DUP1 PUSH2 0x2782 PUSH2 0x15AA JUMP JUMPDEST PUSH2 0x3171 PUSH2 0x3F1C JUMP JUMPDEST PUSH2 0xE10 DUP2 LT ISZERO PUSH2 0x31C3 JUMPI PUSH1 0x40 MLOAD PUSH3 0x461BCD PUSH1 0xE5 SHL DUP2 MSTORE PUSH1 0x20 PUSH1 0x4 DUP3 ADD MSTORE PUSH1 0x18 PUSH1 0x24 DUP3 ADD MSTORE PUSH32 0x7061757365206475726174696F6E20746F6F2073686F72740000000000000000 PUSH1 0x44 DUP3 ADD MSTORE PUSH1 0x64 ADD PUSH2 0x402 JUMP JUMPDEST PUSH3 0x3F480 DUP2 GT ISZERO PUSH2 0x3216 JUMPI PUSH1 0x40 MLOAD PUSH3 0x461BCD PUSH1 0xE5 SHL DUP2 MSTORE PUSH1 0x20 PUSH1 0x4 DUP3 ADD MSTORE PUSH1 0x17 PUSH1 0x24 DUP3 ADD MSTORE PUSH32 0x7061757365206475726174696F6E20746F6F206C6F6E67000000000000000000 PUSH1 0x44 DUP3 ADD MSTORE PUSH1 0x64 ADD PUSH2 0x402 JUMP JUMPDEST PUSH1 0x2 DUP2 SWAP1 SSTORE PUSH1 0x40 MLOAD DUP2 DUP2 MSTORE PUSH32 0xA959CB2CC91580147F93F66FB85DB8F308CFDAEF3989AB5265408FF80EF6FA66 SWAP1 PUSH1 0x20 ADD PUSH2 0x149E JUMP JUMPDEST PUSH1 0x0 DUP1 PUSH1 0x0 PUSH2 0x3258 PUSH2 0x15AA JUMP JUMPDEST SWAP3 POP SWAP3 POP POP PUSH2 0x24E3 DUP2 DUP4 PUSH2 0x4DCF JUMP JUMPDEST PUSH1 0x0 DUP1 PUSH32 0x0 PUSH1 0x1 PUSH1 0x1 PUSH1 0xA0 SHL SUB AND PUSH4 0x2630C12F PUSH1 0x40 MLOAD DUP2 PUSH4 0xFFFFFFFF AND PUSH1 0xE0 SHL DUP2 MSTORE PUSH1 0x4 ADD PUSH1 0x20 PUSH1 0x40 MLOAD DUP1 DUP4 SUB DUP2 DUP7 GAS STATICCALL ISZERO DUP1 ISZERO PUSH2 0x32C8 JUMPI RETURNDATASIZE PUSH1 0x0 DUP1 RETURNDATACOPY RETURNDATASIZE PUSH1 0x0 REVERT JUMPDEST POP POP POP POP PUSH1 0x40 MLOAD RETURNDATASIZE PUSH1 0x1F NOT PUSH1 0x1F DUP3 ADD AND DUP3 ADD DUP1 PUSH1 0x40 MSTORE POP DUP2 ADD SWAP1 PUSH2 0x32EC SWAP2 SWAP1 PUSH2 0x5B76 JUMP JUMPDEST PUSH1 0x40 MLOAD PUSH4 0x8B2F0F4F PUSH1 0xE0 SHL DUP2 MSTORE PUSH1 0x1 PUSH1 0x1 PUSH1 0xA0 SHL SUB PUSH32 0x0 DUP2 AND PUSH1 0x4 DUP4 ADD MSTORE SWAP2 SWAP1 SWAP2 AND SWAP1 PUSH4 0x8B2F0F4F SWAP1 PUSH1 0x24 ADD PUSH1 0x20 PUSH1 0x40 MLOAD DUP1 DUP4 SUB DUP2 DUP7 GAS STATICCALL ISZERO DUP1 ISZERO PUSH2 0x3354 JUMPI RETURNDATASIZE PUSH1 0x0 DUP1 RETURNDATACOPY RETURNDATASIZE PUSH1 0x0 REVERT JUMPDEST POP POP POP POP PUSH1 0x40 MLOAD RETURNDATASIZE PUSH1 0x1F NOT PUSH1 0x1F DUP3 ADD AND DUP3 ADD DUP1 PUSH1 0x40 MSTORE POP DUP2 ADD SWAP1 PUSH2 0x3378 SWAP2 SWAP1 PUSH2 0x5A90 JUMP JUMPDEST SWAP1 POP PUSH2 0x338F DUP2 PUSH2 0x3389 PUSH2 0x1D18 PUSH2 0x137C JUMP JUMPDEST SWAP1 PUSH2 0x39BE JUMP JUMPDEST SWAP2 POP POP SWAP1 JUMP JUMPDEST CALLER PUSH1 0x1 PUSH1 0x1 PUSH1 0xA0 SHL SUB PUSH32 0x0 AND EQ PUSH2 0x33DD JUMPI PUSH1 0x40 MLOAD PUSH3 0x461BCD PUSH1 0xE5 SHL DUP2 MSTORE PUSH1 0x4 ADD PUSH2 0x402 SWAP1 PUSH2 0x5CB4 JUMP JUMPDEST PUSH1 0x5 SLOAD PUSH1 0xFF AND ISZERO PUSH2 0x3429 JUMPI PUSH1 0x40 MLOAD PUSH3 0x461BCD PUSH1 0xE5 SHL DUP2 MSTORE PUSH1 0x20 PUSH1 0x4 DUP3 ADD MSTORE PUSH1 0x16 PUSH1 0x24 DUP3 ADD MSTORE PUSH22 0x3837B7B61030B63932B0B23C9039B43ABA103237BBB7 PUSH1 0x51 SHL PUSH1 0x44 DUP3 ADD MSTORE PUSH1 0x64 ADD PUSH2 0x402 JUMP JUMPDEST PUSH1 0x5 DUP1 SLOAD PUSH1 0xFF NOT AND PUSH1 0x1 OR SWAP1 SSTORE PUSH1 0x40 MLOAD PUSH32 0x4426AA1FB73E391071491FCFE21A88B5C38A0A0333A1F6E77161470439704CF8 SWAP1 PUSH1 0x0 SWAP1 LOG1 JUMP JUMPDEST PUSH2 0x3469 PUSH2 0x3F1C JUMP JUMPDEST PUSH1 0x40 MLOAD PUSH4 0xD914CD4B PUSH1 0xE0 SHL DUP2 MSTORE PUSH1 0x1 PUSH1 0x1 PUSH1 0xA0 SHL SUB DUP3 DUP2 AND PUSH1 0x4 DUP4 ADD MSTORE PUSH32 0x0 AND SWAP1 PUSH4 0xD914CD4B SWAP1 PUSH1 0x24 ADD PUSH1 0x0 PUSH1 0x40 MLOAD DUP1 DUP4 SUB DUP2 PUSH1 0x0 DUP8 DUP1 EXTCODESIZE ISZERO DUP1 ISZERO PUSH2 0x34CC JUMPI PUSH1 0x0 DUP1 REVERT JUMPDEST POP GAS CALL ISZERO DUP1 ISZERO PUSH2 0x34E0 JUMPI RETURNDATASIZE PUSH1 0x0 DUP1 RETURNDATACOPY RETURNDATASIZE PUSH1 0x0 REVERT JUMPDEST POP POP POP POP PUSH1 0x0 PUSH32 0x0 PUSH1 0x1 PUSH1 0x1 PUSH1 0xA0 SHL SUB AND PUSH4 0x2CDACB50 PUSH1 0x40 MLOAD DUP2 PUSH4 0xFFFFFFFF AND PUSH1 0xE0 SHL DUP2 MSTORE PUSH1 0x4 ADD PUSH1 0x20 PUSH1 0x40 MLOAD DUP1 DUP4 SUB DUP2 DUP7 GAS STATICCALL ISZERO DUP1 ISZERO PUSH2 0x3544 JUMPI RETURNDATASIZE PUSH1 0x0 DUP1 RETURNDATACOPY RETURNDATASIZE PUSH1 0x0 REVERT JUMPDEST POP POP POP POP PUSH1 0x40 MLOAD RETURNDATASIZE PUSH1 0x1F NOT PUSH1 0x1F DUP3 ADD AND DUP3 ADD DUP1 PUSH1 0x40 MSTORE POP DUP2 ADD SWAP1 PUSH2 0x3568 SWAP2 SWAP1 PUSH2 0x5B76 JUMP JUMPDEST PUSH1 0x40 MLOAD PUSH4 0x55EB6B35 PUSH1 0xE0 SHL DUP2 MSTORE PUSH1 0x1 PUSH1 0x1 PUSH1 0xA0 SHL SUB DUP5 DUP2 AND PUSH1 0x4 DUP4 ADD MSTORE SWAP2 SWAP3 POP PUSH1 0x0 SWAP2 PUSH32 0x0 AND SWAP1 PUSH4 0x55EB6B35 SWAP1 PUSH1 0x24 ADD PUSH1 0x20 PUSH1 0x40 MLOAD DUP1 DUP4 SUB DUP2 DUP7 GAS STATICCALL ISZERO DUP1 ISZERO PUSH2 0x35D4 JUMPI RETURNDATASIZE PUSH1 0x0 DUP1 RETURNDATACOPY RETURNDATASIZE PUSH1 0x0 REVERT JUMPDEST POP POP POP POP PUSH1 0x40 MLOAD RETURNDATASIZE PUSH1 0x1F NOT PUSH1 0x1F DUP3 ADD AND DUP3 ADD DUP1 PUSH1 0x40 MSTORE POP DUP2 ADD SWAP1 PUSH2 0x35F8 SWAP2 SWAP1 PUSH2 0x5B76 JUMP JUMPDEST PUSH1 0x40 MLOAD PUSH4 0x1DA958A9 PUSH1 0xE2 SHL DUP2 MSTORE PUSH1 0x1 PUSH1 0x1 PUSH1 0xA0 SHL SUB DUP6 DUP2 AND PUSH1 0x4 DUP4 ADD MSTORE SWAP2 SWAP1 SWAP2 AND SWAP1 PUSH4 0x76A562A4 SWAP1 PUSH1 0x24 ADD PUSH1 0x20 PUSH1 0x40 MLOAD DUP1 DUP4 SUB DUP2 DUP7 GAS STATICCALL ISZERO DUP1 ISZERO PUSH2 0x3640 JUMPI RETURNDATASIZE PUSH1 0x0 DUP1 RETURNDATACOPY RETURNDATASIZE PUSH1 0x0 REVERT JUMPDEST POP POP POP POP PUSH1 0x40 MLOAD RETURNDATASIZE PUSH1 0x1F NOT PUSH1 0x1F DUP3 ADD AND DUP3 ADD DUP1 PUSH1 0x40 MSTORE POP DUP2 ADD SWAP1 PUSH2 0x3664 SWAP2 SWAP1 PUSH2 0x5B76 JUMP JUMPDEST SWAP1 POP PUSH2 0x1AEC PUSH1 0x1 PUSH1 0x1 PUSH1 0xA0 SHL SUB DUP3 AND DUP4 PUSH1 0x0 NOT PUSH2 0x37BA JUMP JUMPDEST PUSH2 0x3684 PUSH2 0x3F1C JUMP JUMPDEST DUP1 PUSH1 0x3 SLOAD SUB PUSH2 0x36A5 JUMPI PUSH1 0x40 MLOAD PUSH3 0x461BCD PUSH1 0xE5 SHL DUP2 MSTORE PUSH1 0x4 ADD PUSH2 0x402 SWAP1 PUSH2 0x5C72 JUMP JUMPDEST PUSH8 0x2C68AF0BB140000 DUP2 GT ISZERO PUSH2 0x36FD JUMPI PUSH1 0x40 MLOAD PUSH3 0x461BCD PUSH1 0xE5 SHL DUP2 MSTORE PUSH1 0x20 PUSH1 0x4 DUP3 ADD MSTORE PUSH1 0x1D PUSH1 0x24 DUP3 ADD MSTORE PUSH32 0x646576696174696F6E206578636565647320757070657220626F756E64000000 PUSH1 0x44 DUP3 ADD MSTORE PUSH1 0x64 ADD PUSH2 0x402 JUMP JUMPDEST PUSH1 0x3 DUP2 SWAP1 SSTORE PUSH1 0x40 MLOAD DUP2 DUP2 MSTORE PUSH32 0x3F9EF5ED5D378EF819698E4B3C710D362F981F90087B428B7A1EE1E716D689D5 SWAP1 PUSH1 0x20 ADD PUSH2 0x149E JUMP JUMPDEST PUSH1 0x0 PUSH2 0xF57 CALLER DUP5 DUP5 PUSH1 0x1 PUSH2 0x1D38 JUMP JUMPDEST PUSH2 0x3749 PUSH2 0x3F1C JUMP JUMPDEST PUSH1 0x1 PUSH1 0x1 PUSH1 0xA0 SHL SUB DUP2 AND PUSH2 0x37AE JUMPI PUSH1 0x40 MLOAD PUSH3 0x461BCD PUSH1 0xE5 SHL DUP2 MSTORE PUSH1 0x20 PUSH1 0x4 DUP3 ADD MSTORE PUSH1 0x26 PUSH1 0x24 DUP3 ADD MSTORE PUSH32 0x4F776E61626C653A206E6577206F776E657220697320746865207A65726F2061 PUSH1 0x44 DUP3 ADD MSTORE PUSH6 0x646472657373 PUSH1 0xD0 SHL PUSH1 0x64 DUP3 ADD MSTORE PUSH1 0x84 ADD PUSH2 0x402 JUMP JUMPDEST PUSH2 0x37B7 DUP2 PUSH2 0x4D7F JUMP JUMPDEST POP JUMP JUMPDEST DUP1 ISZERO DUP1 PUSH2 0x3834 JUMPI POP PUSH1 0x40 MLOAD PUSH4 0x6EB1769F PUSH1 0xE1 SHL DUP2 MSTORE ADDRESS PUSH1 0x4 DUP3 ADD MSTORE PUSH1 0x1 PUSH1 0x1 PUSH1 0xA0 SHL SUB DUP4 DUP2 AND PUSH1 0x24 DUP4 ADD MSTORE DUP5 AND SWAP1 PUSH4 0xDD62ED3E SWAP1 PUSH1 0x44 ADD PUSH1 0x20 PUSH1 0x40 MLOAD DUP1 DUP4 SUB DUP2 DUP7 GAS STATICCALL ISZERO DUP1 ISZERO PUSH2 0x380E JUMPI RETURNDATASIZE PUSH1 0x0 DUP1 RETURNDATACOPY RETURNDATASIZE PUSH1 0x0 REVERT JUMPDEST POP POP POP POP PUSH1 0x40 MLOAD RETURNDATASIZE PUSH1 0x1F NOT PUSH1 0x1F DUP3 ADD AND DUP3 ADD DUP1 PUSH1 0x40 MSTORE POP DUP2 ADD SWAP1 PUSH2 0x3832 SWAP2 SWAP1 PUSH2 0x5A90 JUMP JUMPDEST ISZERO JUMPDEST PUSH2 0x389F JUMPI PUSH1 0x40 MLOAD PUSH3 0x461BCD PUSH1 0xE5 SHL DUP2 MSTORE PUSH1 0x20 PUSH1 0x4 DUP3 ADD MSTORE PUSH1 0x36 PUSH1 0x24 DUP3 ADD MSTORE PUSH32 0x5361666545524332303A20617070726F76652066726F6D206E6F6E2D7A65726F PUSH1 0x44 DUP3 ADD MSTORE PUSH22 0x20746F206E6F6E2D7A65726F20616C6C6F77616E6365 PUSH1 0x50 SHL PUSH1 0x64 DUP3 ADD MSTORE PUSH1 0x84 ADD PUSH2 0x402 JUMP JUMPDEST PUSH1 0x40 MLOAD PUSH1 0x1 PUSH1 0x1 PUSH1 0xA0 SHL SUB DUP4 AND PUSH1 0x24 DUP3 ADD MSTORE PUSH1 0x44 DUP2 ADD DUP3 SWAP1 MSTORE PUSH2 0x1AEC SWAP1 DUP5 SWAP1 PUSH4 0x95EA7B3 PUSH1 0xE0 SHL SWAP1 PUSH1 0x64 ADD JUMPDEST PUSH1 0x40 DUP1 MLOAD PUSH1 0x1F NOT DUP2 DUP5 SUB ADD DUP2 MSTORE SWAP2 SWAP1 MSTORE PUSH1 0x20 DUP2 ADD DUP1 MLOAD PUSH1 0x1 PUSH1 0x1 PUSH1 0xE0 SHL SUB AND PUSH1 0x1 PUSH1 0x1 PUSH1 0xE0 SHL SUB NOT SWAP1 SWAP4 AND SWAP3 SWAP1 SWAP3 OR SWAP1 SWAP2 MSTORE PUSH2 0x503B JUMP JUMPDEST PUSH1 0x60 PUSH2 0x12E7 DUP5 DUP5 PUSH1 0x0 DUP6 PUSH2 0x5110 JUMP JUMPDEST PUSH1 0x0 DUP1 PUSH32 0x0 PUSH1 0x1 PUSH1 0x1 PUSH1 0xA0 SHL SUB AND PUSH4 0x18160DDD PUSH1 0x40 MLOAD DUP2 PUSH4 0xFFFFFFFF AND PUSH1 0xE0 SHL DUP2 MSTORE PUSH1 0x4 ADD PUSH1 0x20 PUSH1 0x40 MLOAD DUP1 DUP4 SUB DUP2 DUP7 GAS STATICCALL ISZERO DUP1 ISZERO PUSH2 0x3972 JUMPI RETURNDATASIZE PUSH1 0x0 DUP1 RETURNDATACOPY RETURNDATASIZE PUSH1 0x0 REVERT JUMPDEST POP POP POP POP PUSH1 0x40 MLOAD RETURNDATASIZE PUSH1 0x1F NOT PUSH1 0x1F DUP3 ADD AND DUP3 ADD DUP1 PUSH1 0x40 MSTORE POP DUP2 ADD SWAP1 PUSH2 0x3996 SWAP2 SWAP1 PUSH2 0x5A90 JUMP JUMPDEST SWAP1 POP DUP1 ISZERO DUP1 PUSH2 0x39A3 JUMPI POP DUP3 ISZERO JUMPDEST ISZERO PUSH2 0x39B4 JUMPI PUSH2 0xF57 PUSH1 0x12 PUSH1 0xA PUSH2 0x5DDD JUMP JUMPDEST PUSH2 0xF57 DUP4 DUP3 PUSH2 0x4A8F JUMP JUMPDEST PUSH1 0x0 PUSH2 0x39CC PUSH1 0x12 PUSH1 0xA PUSH2 0x5DDD JUMP JUMPDEST PUSH2 0x39D6 DUP4 DUP6 PUSH2 0x5DE9 JUMP JUMPDEST PUSH2 0xF57 SWAP2 SWAP1 PUSH2 0x5E00 JUMP JUMPDEST DUP1 PUSH1 0x0 PUSH2 0x39ED DUP3 DUP7 PUSH2 0x5ABF JUMP JUMPDEST SWAP1 POP PUSH1 0x0 PUSH2 0x39FA DUP6 PUSH2 0x51EB JUMP JUMPDEST SWAP1 POP JUMPDEST DUP3 ISZERO PUSH2 0x3C93 JUMPI PUSH1 0x0 DUP1 PUSH32 0x0 PUSH1 0x1 PUSH1 0x1 PUSH1 0xA0 SHL SUB AND PUSH4 0x39D82513 DUP6 DUP6 PUSH2 0x3A3F PUSH2 0x5289 JUMP JUMPDEST PUSH1 0x40 MLOAD DUP5 PUSH4 0xFFFFFFFF AND PUSH1 0xE0 SHL DUP2 MSTORE PUSH1 0x4 ADD PUSH2 0x3A5D SWAP4 SWAP3 SWAP2 SWAP1 PUSH2 0x5E22 JUMP JUMPDEST PUSH1 0x40 DUP1 MLOAD DUP1 DUP4 SUB DUP2 DUP7 GAS STATICCALL ISZERO DUP1 ISZERO PUSH2 0x3A79 JUMPI RETURNDATASIZE PUSH1 0x0 DUP1 RETURNDATACOPY RETURNDATASIZE PUSH1 0x0 REVERT JUMPDEST POP POP POP POP PUSH1 0x40 MLOAD RETURNDATASIZE PUSH1 0x1F NOT PUSH1 0x1F DUP3 ADD AND DUP3 ADD DUP1 PUSH1 0x40 MSTORE POP DUP2 ADD SWAP1 PUSH2 0x3A9D SWAP2 SWAP1 PUSH2 0x5E4B JUMP JUMPDEST PUSH1 0x40 MLOAD PUSH4 0x4042D63 PUSH1 0xE2 SHL DUP2 MSTORE PUSH1 0x4 DUP2 ADD DUP4 SWAP1 MSTORE SWAP2 SWAP4 POP SWAP2 POP PUSH1 0x0 SWAP1 PUSH1 0x1 PUSH1 0x1 PUSH1 0xA0 SHL SUB PUSH32 0x0 AND SWAP1 PUSH4 0x1010B58C SWAP1 PUSH1 0x24 ADD PUSH1 0x20 PUSH1 0x40 MLOAD DUP1 DUP4 SUB DUP2 DUP7 GAS STATICCALL ISZERO DUP1 ISZERO PUSH2 0x3B0A JUMPI RETURNDATASIZE PUSH1 0x0 DUP1 RETURNDATACOPY RETURNDATASIZE PUSH1 0x0 REVERT JUMPDEST POP POP POP POP PUSH1 0x40 MLOAD RETURNDATASIZE PUSH1 0x1F NOT PUSH1 0x1F DUP3 ADD AND DUP3 ADD DUP1 PUSH1 0x40 MSTORE POP DUP2 ADD SWAP1 PUSH2 0x3B2E SWAP2 SWAP1 PUSH2 0x5B76 JUMP JUMPDEST SWAP1 POP PUSH1 0x0 PUSH2 0x3B3C DUP8 DUP5 PUSH2 0x3C9B JUMP JUMPDEST PUSH1 0x40 MLOAD PUSH4 0x55EB6B35 PUSH1 0xE0 SHL DUP2 MSTORE PUSH1 0x1 PUSH1 0x1 PUSH1 0xA0 SHL SUB DUP5 DUP2 AND PUSH1 0x4 DUP4 ADD MSTORE SWAP2 SWAP3 POP PUSH1 0x0 SWAP2 PUSH32 0x0 AND SWAP1 PUSH4 0x55EB6B35 SWAP1 PUSH1 0x24 ADD PUSH1 0x20 PUSH1 0x40 MLOAD DUP1 DUP4 SUB DUP2 DUP7 GAS STATICCALL ISZERO DUP1 ISZERO PUSH2 0x3BA8 JUMPI RETURNDATASIZE PUSH1 0x0 DUP1 RETURNDATACOPY RETURNDATASIZE PUSH1 0x0 REVERT JUMPDEST POP POP POP POP PUSH1 0x40 MLOAD RETURNDATASIZE PUSH1 0x1F NOT PUSH1 0x1F DUP3 ADD AND DUP3 ADD DUP1 PUSH1 0x40 MSTORE POP DUP2 ADD SWAP1 PUSH2 0x3BCC SWAP2 SWAP1 PUSH2 0x5B76 JUMP JUMPDEST PUSH1 0x40 MLOAD PUSH1 0x1 PUSH1 0x1 PUSH1 0xA0 SHL SUB DUP1 DUP7 AND PUSH1 0x24 DUP4 ADD MSTORE PUSH32 0x0 AND PUSH1 0x44 DUP3 ADD MSTORE PUSH1 0x64 DUP2 ADD DUP5 SWAP1 MSTORE SWAP1 SWAP2 POP PUSH2 0x3C51 SWAP1 PUSH1 0x84 ADD PUSH1 0x40 DUP1 MLOAD PUSH1 0x1F NOT DUP2 DUP5 SUB ADD DUP2 MSTORE SWAP2 SWAP1 MSTORE PUSH1 0x20 DUP2 ADD DUP1 MLOAD PUSH1 0x1 PUSH1 0x1 PUSH1 0xE0 SHL SUB AND PUSH4 0x6CE57689 PUSH1 0xE1 SHL OR SWAP1 MSTORE PUSH1 0x1 PUSH1 0x1 PUSH1 0xA0 SHL SUB DUP4 AND SWAP1 PUSH2 0x52A8 JUMP JUMPDEST POP PUSH2 0x3C5C DUP3 DUP10 PUSH2 0x5ABF JUMP JUMPDEST SWAP8 POP DUP2 DUP7 DUP7 DUP2 MLOAD DUP2 LT PUSH2 0x3C71 JUMPI PUSH2 0x3C71 PUSH2 0x5B60 JUMP JUMPDEST PUSH1 0x20 MUL PUSH1 0x20 ADD ADD DUP2 DUP2 MLOAD PUSH2 0x3C85 SWAP2 SWAP1 PUSH2 0x5ABF JUMP JUMPDEST SWAP1 MSTORE POP PUSH2 0x39FD SWAP5 POP POP POP POP POP JUMP JUMPDEST POP POP POP POP POP POP JUMP JUMPDEST PUSH1 0x0 DUP2 DUP4 LT PUSH2 0x3CAA JUMPI DUP2 PUSH2 0xF57 JUMP JUMPDEST POP SWAP1 SWAP2 SWAP1 POP JUMP JUMPDEST PUSH1 0x40 MLOAD PUSH1 0x1 PUSH1 0x1 PUSH1 0xA0 SHL SUB DUP4 AND PUSH1 0x24 DUP3 ADD MSTORE PUSH1 0x44 DUP2 ADD DUP3 SWAP1 MSTORE PUSH2 0x1AEC SWAP1 DUP5 SWAP1 PUSH4 0xA9059CBB PUSH1 0xE0 SHL SWAP1 PUSH1 0x64 ADD PUSH2 0x38CB JUMP JUMPDEST PUSH1 0x0 PUSH2 0x3CEC DUP4 PUSH2 0x52CD JUMP JUMPDEST DUP1 ISZERO PUSH2 0xF57 JUMPI POP PUSH2 0xF57 DUP4 DUP4 PUSH2 0x5300 JUMP JUMPDEST PUSH1 0x60 DUP2 MLOAD DUP4 MLOAD PUSH2 0x3D0D SWAP2 SWAP1 PUSH2 0x5C5F JUMP JUMPDEST PUSH1 0x1 PUSH1 0x1 PUSH1 0x40 SHL SUB DUP2 GT ISZERO PUSH2 0x3D24 JUMPI PUSH2 0x3D24 PUSH2 0x592A JUMP JUMPDEST PUSH1 0x40 MLOAD SWAP1 DUP1 DUP3 MSTORE DUP1 PUSH1 0x20 MUL PUSH1 0x20 ADD DUP3 ADD PUSH1 0x40 MSTORE DUP1 ISZERO PUSH2 0x3D4D JUMPI DUP2 PUSH1 0x20 ADD PUSH1 0x20 DUP3 MUL DUP1 CALLDATASIZE DUP4 CALLDATACOPY ADD SWAP1 POP JUMPDEST POP SWAP1 POP PUSH1 0x0 JUMPDEST DUP4 MLOAD DUP2 LT ISZERO PUSH2 0x3DB2 JUMPI DUP4 DUP2 DUP2 MLOAD DUP2 LT PUSH2 0x3D6E JUMPI PUSH2 0x3D6E PUSH2 0x5B60 JUMP JUMPDEST PUSH1 0x20 MUL PUSH1 0x20 ADD ADD MLOAD DUP3 DUP3 DUP2 MLOAD DUP2 LT PUSH2 0x3D88 JUMPI PUSH2 0x3D88 PUSH2 0x5B60 JUMP JUMPDEST PUSH1 0x1 PUSH1 0x1 PUSH1 0xA0 SHL SUB SWAP1 SWAP3 AND PUSH1 0x20 SWAP3 DUP4 MUL SWAP2 SWAP1 SWAP2 ADD SWAP1 SWAP2 ADD MSTORE DUP1 PUSH2 0x3DAA DUP2 PUSH2 0x5B93 JUMP JUMPDEST SWAP2 POP POP PUSH2 0x3D53 JUMP JUMPDEST POP PUSH1 0x0 JUMPDEST DUP3 MLOAD DUP2 LT ISZERO PUSH2 0x3E21 JUMPI DUP3 DUP2 DUP2 MLOAD DUP2 LT PUSH2 0x3DD1 JUMPI PUSH2 0x3DD1 PUSH2 0x5B60 JUMP JUMPDEST PUSH1 0x20 MUL PUSH1 0x20 ADD ADD MLOAD DUP3 DUP6 MLOAD DUP4 PUSH2 0x3DE7 SWAP2 SWAP1 PUSH2 0x5C5F JUMP JUMPDEST DUP2 MLOAD DUP2 LT PUSH2 0x3DF7 JUMPI PUSH2 0x3DF7 PUSH2 0x5B60 JUMP JUMPDEST PUSH1 0x1 PUSH1 0x1 PUSH1 0xA0 SHL SUB SWAP1 SWAP3 AND PUSH1 0x20 SWAP3 DUP4 MUL SWAP2 SWAP1 SWAP2 ADD SWAP1 SWAP2 ADD MSTORE DUP1 PUSH2 0x3E19 DUP2 PUSH2 0x5B93 JUMP JUMPDEST SWAP2 POP POP PUSH2 0x3DB6 JUMP JUMPDEST POP SWAP3 SWAP2 POP POP JUMP JUMPDEST PUSH1 0x60 PUSH1 0x0 DUP3 MLOAD PUSH1 0x1 PUSH1 0x1 PUSH1 0x40 SHL SUB DUP2 GT ISZERO PUSH2 0x3E45 JUMPI PUSH2 0x3E45 PUSH2 0x592A JUMP JUMPDEST PUSH1 0x40 MLOAD SWAP1 DUP1 DUP3 MSTORE DUP1 PUSH1 0x20 MUL PUSH1 0x20 ADD DUP3 ADD PUSH1 0x40 MSTORE DUP1 ISZERO PUSH2 0x3E6E JUMPI DUP2 PUSH1 0x20 ADD PUSH1 0x20 DUP3 MUL DUP1 CALLDATASIZE DUP4 CALLDATACOPY ADD SWAP1 POP JUMPDEST POP SWAP1 POP PUSH1 0x0 DUP1 JUMPDEST DUP5 MLOAD DUP2 LT ISZERO PUSH2 0x3F11 JUMPI PUSH2 0x3EA2 DUP4 DUP7 DUP4 DUP2 MLOAD DUP2 LT PUSH2 0x3E94 JUMPI PUSH2 0x3E94 PUSH2 0x5B60 JUMP JUMPDEST PUSH1 0x20 MUL PUSH1 0x20 ADD ADD MLOAD DUP5 PUSH2 0x5385 JUMP JUMPDEST PUSH2 0x3EFF JUMPI DUP5 DUP2 DUP2 MLOAD DUP2 LT PUSH2 0x3EB8 JUMPI PUSH2 0x3EB8 PUSH2 0x5B60 JUMP JUMPDEST PUSH1 0x20 MUL PUSH1 0x20 ADD ADD MLOAD DUP4 DUP4 DUP1 PUSH2 0x3ECC SWAP1 PUSH2 0x5B93 JUMP JUMPDEST SWAP5 POP DUP2 MLOAD DUP2 LT PUSH2 0x3EDE JUMPI PUSH2 0x3EDE PUSH2 0x5B60 JUMP JUMPDEST PUSH1 0x20 MUL PUSH1 0x20 ADD ADD SWAP1 PUSH1 0x1 PUSH1 0x1 PUSH1 0xA0 SHL SUB AND SWAP1 DUP2 PUSH1 0x1 PUSH1 0x1 PUSH1 0xA0 SHL SUB AND DUP2 MSTORE POP POP JUMPDEST DUP1 PUSH2 0x3F09 DUP2 PUSH2 0x5B93 JUMP JUMPDEST SWAP2 POP POP PUSH2 0x3E75 JUMP JUMPDEST POP PUSH2 0x12E7 DUP3 DUP3 PUSH2 0x53EA JUMP JUMPDEST PUSH1 0x0 SLOAD PUSH1 0x1 PUSH1 0x1 PUSH1 0xA0 SHL SUB AND CALLER EQ PUSH2 0x243F JUMPI PUSH1 0x40 MLOAD PUSH3 0x461BCD PUSH1 0xE5 SHL DUP2 MSTORE PUSH1 0x20 PUSH1 0x4 DUP3 ADD DUP2 SWAP1 MSTORE PUSH1 0x24 DUP3 ADD MSTORE PUSH32 0x4F776E61626C653A2063616C6C6572206973206E6F7420746865206F776E6572 PUSH1 0x44 DUP3 ADD MSTORE PUSH1 0x64 ADD PUSH2 0x402 JUMP JUMPDEST PUSH1 0x0 DUP1 PUSH1 0x60 PUSH1 0x0 PUSH32 0x0 PUSH1 0x1 PUSH1 0x1 PUSH1 0xA0 SHL SUB AND PUSH4 0xC5C63E65 PUSH1 0x40 MLOAD DUP2 PUSH4 0xFFFFFFFF AND PUSH1 0xE0 SHL DUP2 MSTORE PUSH1 0x4 ADD PUSH1 0x0 PUSH1 0x40 MLOAD DUP1 DUP4 SUB DUP2 DUP7 GAS STATICCALL ISZERO DUP1 ISZERO PUSH2 0x3FDB JUMPI RETURNDATASIZE PUSH1 0x0 DUP1 RETURNDATACOPY RETURNDATASIZE PUSH1 0x0 REVERT JUMPDEST POP POP POP POP PUSH1 0x40 MLOAD RETURNDATASIZE PUSH1 0x0 DUP3 RETURNDATACOPY PUSH1 0x1F RETURNDATASIZE SWAP1 DUP2 ADD PUSH1 0x1F NOT AND DUP3 ADD PUSH1 0x40 MSTORE PUSH2 0x4003 SWAP2 SWAP1 DUP2 ADD SWAP1 PUSH2 0x5AD2 JUMP JUMPDEST DUP1 MLOAD SWAP1 SWAP2 POP DUP1 PUSH1 0x1 PUSH1 0x1 PUSH1 0x40 SHL SUB DUP2 GT ISZERO PUSH2 0x4020 JUMPI PUSH2 0x4020 PUSH2 0x592A JUMP JUMPDEST PUSH1 0x40 MLOAD SWAP1 DUP1 DUP3 MSTORE DUP1 PUSH1 0x20 MUL PUSH1 0x20 ADD DUP3 ADD PUSH1 0x40 MSTORE DUP1 ISZERO PUSH2 0x4049 JUMPI DUP2 PUSH1 0x20 ADD PUSH1 0x20 DUP3 MUL DUP1 CALLDATASIZE DUP4 CALLDATACOPY ADD SWAP1 POP JUMPDEST POP SWAP3 POP PUSH1 0x0 JUMPDEST DUP2 DUP2 LT ISZERO PUSH2 0x41DB JUMPI PUSH1 0x0 DUP4 DUP3 DUP2 MLOAD DUP2 LT PUSH2 0x406B JUMPI PUSH2 0x406B PUSH2 0x5B60 JUMP JUMPDEST PUSH1 0x20 SWAP1 DUP2 MUL SWAP2 SWAP1 SWAP2 ADD ADD MLOAD PUSH1 0x40 MLOAD PUSH4 0x55EB6B35 PUSH1 0xE0 SHL DUP2 MSTORE PUSH1 0x1 PUSH1 0x1 PUSH1 0xA0 SHL SUB DUP1 DUP4 AND PUSH1 0x4 DUP4 ADD MSTORE SWAP2 SWAP3 POP PUSH1 0x0 SWAP2 PUSH32 0x0 AND SWAP1 PUSH4 0x55EB6B35 SWAP1 PUSH1 0x24 ADD PUSH1 0x20 PUSH1 0x40 MLOAD DUP1 DUP4 SUB DUP2 DUP7 GAS STATICCALL ISZERO DUP1 ISZERO PUSH2 0x40E2 JUMPI RETURNDATASIZE PUSH1 0x0 DUP1 RETURNDATACOPY RETURNDATASIZE PUSH1 0x0 REVERT JUMPDEST POP POP POP POP PUSH1 0x40 MLOAD RETURNDATASIZE PUSH1 0x1F NOT PUSH1 0x1F DUP3 ADD AND DUP3 ADD DUP1 PUSH1 0x40 MSTORE POP DUP2 ADD SWAP1 PUSH2 0x4106 SWAP2 SWAP1 PUSH2 0x5B76 JUMP JUMPDEST PUSH1 0x1 PUSH1 0x1 PUSH1 0xA0 SHL SUB AND PUSH4 0xFEE68B3 ADDRESS DUP5 PUSH32 0x0 DUP15 DUP15 PUSH1 0x40 MLOAD DUP7 PUSH4 0xFFFFFFFF AND PUSH1 0xE0 SHL DUP2 MSTORE PUSH1 0x4 ADD PUSH2 0x4159 SWAP6 SWAP5 SWAP4 SWAP3 SWAP2 SWAP1 PUSH2 0x5E6F JUMP JUMPDEST PUSH1 0x20 PUSH1 0x40 MLOAD DUP1 DUP4 SUB DUP2 DUP7 GAS STATICCALL ISZERO DUP1 ISZERO PUSH2 0x4176 JUMPI RETURNDATASIZE PUSH1 0x0 DUP1 RETURNDATACOPY RETURNDATASIZE PUSH1 0x0 REVERT JUMPDEST POP POP POP POP PUSH1 0x40 MLOAD RETURNDATASIZE PUSH1 0x1F NOT PUSH1 0x1F DUP3 ADD AND DUP3 ADD DUP1 PUSH1 0x40 MSTORE POP DUP2 ADD SWAP1 PUSH2 0x419A SWAP2 SWAP1 PUSH2 0x5A90 JUMP JUMPDEST SWAP1 POP DUP1 DUP7 DUP5 DUP2 MLOAD DUP2 LT PUSH2 0x41AF JUMPI PUSH2 0x41AF PUSH2 0x5B60 JUMP JUMPDEST PUSH1 0x20 SWAP1 DUP2 MUL SWAP2 SWAP1 SWAP2 ADD ADD MSTORE PUSH2 0x41C4 DUP2 DUP9 PUSH2 0x5C5F JUMP JUMPDEST SWAP7 POP POP POP DUP1 DUP1 PUSH2 0x41D3 SWAP1 PUSH2 0x5B93 JUMP JUMPDEST SWAP2 POP POP PUSH2 0x404F JUMP JUMPDEST POP PUSH1 0x40 MLOAD PUSH4 0x70A08231 PUSH1 0xE0 SHL DUP2 MSTORE ADDRESS PUSH1 0x4 DUP3 ADD MSTORE PUSH32 0x0 PUSH1 0x1 PUSH1 0x1 PUSH1 0xA0 SHL SUB AND SWAP1 PUSH4 0x70A08231 SWAP1 PUSH1 0x24 ADD PUSH1 0x20 PUSH1 0x40 MLOAD DUP1 DUP4 SUB DUP2 DUP7 GAS STATICCALL ISZERO DUP1 ISZERO PUSH2 0x4240 JUMPI RETURNDATASIZE PUSH1 0x0 DUP1 RETURNDATACOPY RETURNDATASIZE PUSH1 0x0 REVERT JUMPDEST POP POP POP POP PUSH1 0x40 MLOAD RETURNDATASIZE PUSH1 0x1F NOT PUSH1 0x1F DUP3 ADD AND DUP3 ADD DUP1 PUSH1 0x40 MSTORE POP DUP2 ADD SWAP1 PUSH2 0x4264 SWAP2 SWAP1 PUSH2 0x5A90 JUMP JUMPDEST PUSH2 0x426E SWAP1 DUP6 PUSH2 0x5C5F JUMP JUMPDEST SWAP5 POP POP POP SWAP3 POP SWAP3 POP SWAP3 JUMP JUMPDEST PUSH1 0x0 PUSH32 0x0 PUSH1 0x1 PUSH1 0x1 PUSH1 0xA0 SHL SUB AND DUP3 PUSH1 0x1 PUSH1 0x1 PUSH1 0xA0 SHL SUB AND SUB PUSH2 0x42BC JUMPI POP PUSH1 0x0 SWAP2 SWAP1 POP JUMP JUMPDEST PUSH1 0x1 PUSH1 0x1 PUSH1 0xA0 SHL SUB DUP1 DUP4 AND PUSH1 0x0 SWAP1 DUP2 MSTORE PUSH1 0xD PUSH1 0x20 SWAP1 DUP2 MSTORE PUSH1 0x40 DUP1 DUP4 KECCAK256 SLOAD DUP2 MLOAD PUSH4 0x2630C12F PUSH1 0xE0 SHL DUP2 MSTORE SWAP2 MLOAD SWAP1 SWAP5 PUSH32 0x0 AND SWAP3 PUSH4 0x2630C12F SWAP3 PUSH1 0x4 DUP1 DUP3 ADD SWAP4 SWAP2 DUP3 SWAP1 SUB ADD DUP2 DUP7 GAS STATICCALL ISZERO DUP1 ISZERO PUSH2 0x4332 JUMPI RETURNDATASIZE PUSH1 0x0 DUP1 RETURNDATACOPY RETURNDATASIZE PUSH1 0x0 REVERT JUMPDEST POP POP POP POP PUSH1 0x40 MLOAD RETURNDATASIZE PUSH1 0x1F NOT PUSH1 0x1F DUP3 ADD AND DUP3 ADD DUP1 PUSH1 0x40 MSTORE POP DUP2 ADD SWAP1 PUSH2 0x4356 SWAP2 SWAP1 PUSH2 0x5B76 JUMP JUMPDEST PUSH1 0x40 MLOAD PUSH4 0x8B2F0F4F PUSH1 0xE0 SHL DUP2 MSTORE PUSH1 0x0 PUSH1 0x4 DUP3 ADD DUP2 SWAP1 MSTORE SWAP2 SWAP3 POP PUSH1 0x1 PUSH1 0x1 PUSH1 0xA0 SHL SUB DUP4 AND SWAP1 PUSH4 0x8B2F0F4F SWAP1 PUSH1 0x24 ADD PUSH1 0x20 PUSH1 0x40 MLOAD DUP1 DUP4 SUB DUP2 DUP7 GAS STATICCALL ISZERO DUP1 ISZERO PUSH2 0x43A0 JUMPI RETURNDATASIZE PUSH1 0x0 DUP1 RETURNDATACOPY RETURNDATASIZE PUSH1 0x0 REVERT JUMPDEST POP POP POP POP PUSH1 0x40 MLOAD RETURNDATASIZE PUSH1 0x1F NOT PUSH1 0x1F DUP3 ADD AND DUP3 ADD DUP1 PUSH1 0x40 MSTORE POP DUP2 ADD SWAP1 PUSH2 0x43C4 SWAP2 SWAP1 PUSH2 0x5A90 JUMP JUMPDEST PUSH1 0x40 MLOAD PUSH4 0x8B2F0F4F PUSH1 0xE0 SHL DUP2 MSTORE PUSH1 0x1 PUSH1 0x1 PUSH1 0xA0 SHL SUB DUP8 DUP2 AND PUSH1 0x4 DUP4 ADD MSTORE SWAP2 SWAP3 POP PUSH1 0x0 SWAP2 DUP5 AND SWAP1 PUSH4 0x8B2F0F4F SWAP1 PUSH1 0x24 ADD PUSH1 0x20 PUSH1 0x40 MLOAD DUP1 DUP4 SUB DUP2 DUP7 GAS STATICCALL ISZERO DUP1 ISZERO PUSH2 0x4410 JUMPI RETURNDATASIZE PUSH1 0x0 DUP1 RETURNDATACOPY RETURNDATASIZE PUSH1 0x0 REVERT JUMPDEST POP POP POP POP PUSH1 0x40 MLOAD RETURNDATASIZE PUSH1 0x1F NOT PUSH1 0x1F DUP3 ADD AND DUP3 ADD DUP1 PUSH1 0x40 MSTORE POP DUP2 ADD SWAP1 PUSH2 0x4434 SWAP2 SWAP1 PUSH2 0x5A90 JUMP JUMPDEST SWAP1 POP PUSH1 0x0 PUSH2 0x4442 DUP3 DUP5 PUSH2 0x4A8F JUMP JUMPDEST SWAP1 POP PUSH1 0x0 PUSH2 0x4450 DUP7 DUP4 PUSH2 0x5491 JUMP JUMPDEST SWAP1 POP PUSH1 0x0 PUSH2 0x445E DUP3 DUP9 PUSH2 0x4A8F JUMP JUMPDEST PUSH1 0x6 SLOAD LT SWAP10 SWAP9 POP POP POP POP POP POP POP POP POP JUMP JUMPDEST PUSH1 0x40 MLOAD PUSH4 0x55EB6B35 PUSH1 0xE0 SHL DUP2 MSTORE PUSH1 0x1 PUSH1 0x1 PUSH1 0xA0 SHL SUB DUP3 DUP2 AND PUSH1 0x4 DUP4 ADD MSTORE PUSH1 0x0 SWAP2 DUP3 SWAP2 PUSH32 0x0 AND SWAP1 PUSH4 0x55EB6B35 SWAP1 PUSH1 0x24 ADD PUSH1 0x20 PUSH1 0x40 MLOAD DUP1 DUP4 SUB DUP2 DUP7 GAS STATICCALL ISZERO DUP1 ISZERO PUSH2 0x44DA JUMPI RETURNDATASIZE PUSH1 0x0 DUP1 RETURNDATACOPY RETURNDATASIZE PUSH1 0x0 REVERT JUMPDEST POP POP POP POP PUSH1 0x40 MLOAD RETURNDATASIZE PUSH1 0x1F NOT PUSH1 0x1F DUP3 ADD AND DUP3 ADD DUP1 PUSH1 0x40 MSTORE POP DUP2 ADD SWAP1 PUSH2 0x44FE SWAP2 SWAP1 PUSH2 0x5B76 JUMP JUMPDEST PUSH1 0x40 MLOAD PUSH3 0x2708DB PUSH1 0xE0 SHL DUP2 MSTORE PUSH1 0x1 PUSH1 0x1 PUSH1 0xA0 SHL SUB DUP6 DUP2 AND PUSH1 0x4 DUP4 ADD MSTORE SWAP2 SWAP1 SWAP2 AND SWAP1 PUSH3 0x2708DB SWAP1 PUSH1 0x24 ADD PUSH1 0x0 PUSH1 0x40 MLOAD DUP1 DUP4 SUB DUP2 DUP7 GAS STATICCALL ISZERO DUP1 ISZERO PUSH2 0x4544 JUMPI RETURNDATASIZE PUSH1 0x0 DUP1 RETURNDATACOPY RETURNDATASIZE PUSH1 0x0 REVERT JUMPDEST POP POP POP POP PUSH1 0x40 MLOAD RETURNDATASIZE PUSH1 0x0 DUP3 RETURNDATACOPY PUSH1 0x1F RETURNDATASIZE SWAP1 DUP2 ADD PUSH1 0x1F NOT AND DUP3 ADD PUSH1 0x40 MSTORE PUSH2 0x456C SWAP2 SWAP1 DUP2 ADD SWAP1 PUSH2 0x5AD2 JUMP JUMPDEST SWAP1 POP PUSH1 0x0 JUMPDEST DUP2 MLOAD DUP2 LT ISZERO PUSH2 0x45C4 JUMPI PUSH1 0x0 DUP3 DUP3 DUP2 MLOAD DUP2 LT PUSH2 0x458E JUMPI PUSH2 0x458E PUSH2 0x5B60 JUMP JUMPDEST PUSH1 0x20 MUL PUSH1 0x20 ADD ADD MLOAD SWAP1 POP PUSH2 0x45A1 DUP2 PUSH2 0x4279 JUMP JUMPDEST ISZERO PUSH2 0x45B1 JUMPI POP PUSH1 0x1 SWAP5 SWAP4 POP POP POP POP JUMP JUMPDEST POP DUP1 PUSH2 0x45BC DUP2 PUSH2 0x5B93 JUMP JUMPDEST SWAP2 POP POP PUSH2 0x4571 JUMP JUMPDEST POP PUSH1 0x0 SWAP4 SWAP3 POP POP POP JUMP JUMPDEST PUSH1 0x0 PUSH32 0x0 PUSH1 0x1 PUSH1 0x1 PUSH1 0xA0 SHL SUB AND PUSH4 0xC5C63E65 PUSH1 0x40 MLOAD DUP2 PUSH4 0xFFFFFFFF AND PUSH1 0xE0 SHL DUP2 MSTORE PUSH1 0x4 ADD PUSH1 0x0 PUSH1 0x40 MLOAD DUP1 DUP4 SUB DUP2 DUP7 GAS STATICCALL ISZERO DUP1 ISZERO PUSH2 0x462E JUMPI RETURNDATASIZE PUSH1 0x0 DUP1 RETURNDATACOPY RETURNDATASIZE PUSH1 0x0 REVERT JUMPDEST POP POP POP POP PUSH1 0x40 MLOAD RETURNDATASIZE PUSH1 0x0 DUP3 RETURNDATACOPY PUSH1 0x1F RETURNDATASIZE SWAP1 DUP2 ADD PUSH1 0x1F NOT AND DUP3 ADD PUSH1 0x40 MSTORE PUSH2 0x4656 SWAP2 SWAP1 DUP2 ADD SWAP1 PUSH2 0x5AD2 JUMP JUMPDEST DUP1 MLOAD SWAP1 SWAP2 POP PUSH1 0x0 JUMPDEST DUP2 DUP2 LT ISZERO PUSH2 0x1AEC JUMPI PUSH1 0x0 DUP4 DUP3 DUP2 MLOAD DUP2 LT PUSH2 0x467A JUMPI PUSH2 0x467A PUSH2 0x5B60 JUMP JUMPDEST PUSH1 0x20 SWAP1 DUP2 MUL SWAP2 SWAP1 SWAP2 ADD ADD MLOAD PUSH1 0x40 MLOAD PUSH4 0x55EB6B35 PUSH1 0xE0 SHL DUP2 MSTORE PUSH1 0x1 PUSH1 0x1 PUSH1 0xA0 SHL SUB DUP1 DUP4 AND PUSH1 0x4 DUP4 ADD MSTORE SWAP2 SWAP3 POP PUSH1 0x0 SWAP2 PUSH32 0x0 AND SWAP1 PUSH4 0x55EB6B35 SWAP1 PUSH1 0x24 ADD PUSH1 0x20 PUSH1 0x40 MLOAD DUP1 DUP4 SUB DUP2 DUP7 GAS STATICCALL ISZERO DUP1 ISZERO PUSH2 0x46F1 JUMPI RETURNDATASIZE PUSH1 0x0 DUP1 RETURNDATACOPY RETURNDATASIZE PUSH1 0x0 REVERT JUMPDEST POP POP POP POP PUSH1 0x40 MLOAD RETURNDATASIZE PUSH1 0x1F NOT PUSH1 0x1F DUP3 ADD AND DUP3 ADD DUP1 PUSH1 0x40 MSTORE POP DUP2 ADD SWAP1 PUSH2 0x4715 SWAP2 SWAP1 PUSH2 0x5B76 JUMP JUMPDEST PUSH1 0x40 MLOAD PUSH4 0x415EC73B PUSH1 0xE0 SHL DUP2 MSTORE PUSH1 0x1 PUSH1 0x1 PUSH1 0xA0 SHL SUB DUP5 DUP2 AND PUSH1 0x4 DUP4 ADD MSTORE SWAP2 SWAP3 POP SWAP1 DUP3 AND SWAP1 PUSH4 0x415EC73B SWAP1 PUSH1 0x24 ADD PUSH1 0x0 PUSH1 0x40 MLOAD DUP1 DUP4 SUB DUP2 PUSH1 0x0 DUP8 DUP1 EXTCODESIZE ISZERO DUP1 ISZERO PUSH2 0x475C JUMPI PUSH1 0x0 DUP1 REVERT JUMPDEST POP GAS CALL ISZERO DUP1 ISZERO PUSH2 0x4770 JUMPI RETURNDATASIZE PUSH1 0x0 DUP1 RETURNDATACOPY RETURNDATASIZE PUSH1 0x0 REVERT JUMPDEST POP POP POP POP POP POP DUP1 DUP1 PUSH2 0x4781 SWAP1 PUSH2 0x5B93 JUMP JUMPDEST SWAP2 POP POP PUSH2 0x465E JUMP JUMPDEST PUSH1 0x40 MLOAD PUSH1 0x1 PUSH1 0x1 PUSH1 0xA0 SHL SUB DUP1 DUP6 AND PUSH1 0x24 DUP4 ADD MSTORE DUP4 AND PUSH1 0x44 DUP3 ADD MSTORE PUSH1 0x64 DUP2 ADD DUP3 SWAP1 MSTORE PUSH2 0x47C1 SWAP1 DUP6 SWAP1 PUSH4 0x23B872DD PUSH1 0xE0 SHL SWAP1 PUSH1 0x84 ADD PUSH2 0x38CB JUMP JUMPDEST POP POP POP POP JUMP JUMPDEST DUP1 PUSH1 0x0 PUSH2 0x47D4 DUP3 DUP7 PUSH2 0x5C5F JUMP JUMPDEST SWAP1 POP PUSH1 0x0 PUSH2 0x47E1 DUP6 PUSH2 0x51EB JUMP JUMPDEST SWAP1 POP JUMPDEST DUP3 ISZERO PUSH2 0x3C93 JUMPI PUSH1 0x0 DUP1 PUSH32 0x0 PUSH1 0x1 PUSH1 0x1 PUSH1 0xA0 SHL SUB AND PUSH4 0x12968A29 DUP6 DUP6 PUSH2 0x4826 PUSH2 0x5289 JUMP JUMPDEST PUSH1 0x40 MLOAD DUP5 PUSH4 0xFFFFFFFF AND PUSH1 0xE0 SHL DUP2 MSTORE PUSH1 0x4 ADD PUSH2 0x4844 SWAP4 SWAP3 SWAP2 SWAP1 PUSH2 0x5E22 JUMP JUMPDEST PUSH1 0x40 DUP1 MLOAD DUP1 DUP4 SUB DUP2 DUP7 GAS STATICCALL ISZERO DUP1 ISZERO PUSH2 0x4860 JUMPI RETURNDATASIZE PUSH1 0x0 DUP1 RETURNDATACOPY RETURNDATASIZE PUSH1 0x0 REVERT JUMPDEST POP POP POP POP PUSH1 0x40 MLOAD RETURNDATASIZE PUSH1 0x1F NOT PUSH1 0x1F DUP3 ADD AND DUP3 ADD DUP1 PUSH1 0x40 MSTORE POP DUP2 ADD SWAP1 PUSH2 0x4884 SWAP2 SWAP1 PUSH2 0x5E4B JUMP JUMPDEST SWAP1 SWAP3 POP SWAP1 POP PUSH2 0x4894 DUP2 PUSH1 0x64 PUSH2 0x5C5F JUMP JUMPDEST DUP6 LT ISZERO PUSH2 0x489E JUMPI POP DUP4 JUMPDEST PUSH1 0x40 MLOAD PUSH4 0x4042D63 PUSH1 0xE2 SHL DUP2 MSTORE PUSH1 0x4 DUP2 ADD DUP4 SWAP1 MSTORE PUSH1 0x0 SWAP1 PUSH32 0x0 PUSH1 0x1 PUSH1 0x1 PUSH1 0xA0 SHL SUB AND SWAP1 PUSH4 0x1010B58C SWAP1 PUSH1 0x24 ADD PUSH1 0x20 PUSH1 0x40 MLOAD DUP1 DUP4 SUB DUP2 DUP7 GAS STATICCALL ISZERO DUP1 ISZERO PUSH2 0x4906 JUMPI RETURNDATASIZE PUSH1 0x0 DUP1 RETURNDATACOPY RETURNDATASIZE PUSH1 0x0 REVERT JUMPDEST POP POP POP POP PUSH1 0x40 MLOAD RETURNDATASIZE PUSH1 0x1F NOT PUSH1 0x1F DUP3 ADD AND DUP3 ADD DUP1 PUSH1 0x40 MSTORE POP DUP2 ADD SWAP1 PUSH2 0x492A SWAP2 SWAP1 PUSH2 0x5B76 JUMP JUMPDEST SWAP1 POP PUSH1 0x0 PUSH2 0x4938 DUP8 DUP5 PUSH2 0x3C9B JUMP JUMPDEST PUSH1 0x40 MLOAD PUSH4 0x55EB6B35 PUSH1 0xE0 SHL DUP2 MSTORE PUSH1 0x1 PUSH1 0x1 PUSH1 0xA0 SHL SUB DUP5 DUP2 AND PUSH1 0x4 DUP4 ADD MSTORE SWAP2 SWAP3 POP PUSH1 0x0 SWAP2 PUSH32 0x0 AND SWAP1 PUSH4 0x55EB6B35 SWAP1 PUSH1 0x24 ADD PUSH1 0x20 PUSH1 0x40 MLOAD DUP1 DUP4 SUB DUP2 DUP7 GAS STATICCALL ISZERO DUP1 ISZERO PUSH2 0x49A4 JUMPI RETURNDATASIZE PUSH1 0x0 DUP1 RETURNDATACOPY RETURNDATASIZE PUSH1 0x0 REVERT JUMPDEST POP POP POP POP PUSH1 0x40 MLOAD RETURNDATASIZE PUSH1 0x1F NOT PUSH1 0x1F DUP3 ADD AND DUP3 ADD DUP1 PUSH1 0x40 MSTORE POP DUP2 ADD SWAP1 PUSH2 0x49C8 SWAP2 SWAP1 PUSH2 0x5B76 JUMP JUMPDEST PUSH1 0x40 MLOAD PUSH1 0x1 PUSH1 0x1 PUSH1 0xA0 SHL SUB DUP1 DUP7 AND PUSH1 0x24 DUP4 ADD MSTORE PUSH32 0x0 AND PUSH1 0x44 DUP3 ADD MSTORE PUSH1 0x64 DUP2 ADD DUP5 SWAP1 MSTORE SWAP1 SWAP2 POP PUSH2 0x4A4D SWAP1 PUSH1 0x84 ADD PUSH1 0x40 DUP1 MLOAD PUSH1 0x1F NOT DUP2 DUP5 SUB ADD DUP2 MSTORE SWAP2 SWAP1 MSTORE PUSH1 0x20 DUP2 ADD DUP1 MLOAD PUSH1 0x1 PUSH1 0x1 PUSH1 0xE0 SHL SUB AND PUSH4 0x8340F549 PUSH1 0xE0 SHL OR SWAP1 MSTORE PUSH1 0x1 PUSH1 0x1 PUSH1 0xA0 SHL SUB DUP4 AND SWAP1 PUSH2 0x52A8 JUMP JUMPDEST POP PUSH2 0x4A58 DUP3 DUP10 PUSH2 0x5ABF JUMP JUMPDEST SWAP8 POP DUP2 DUP7 DUP7 DUP2 MLOAD DUP2 LT PUSH2 0x4A6D JUMPI PUSH2 0x4A6D PUSH2 0x5B60 JUMP JUMPDEST PUSH1 0x20 MUL PUSH1 0x20 ADD ADD DUP2 DUP2 MLOAD PUSH2 0x4A81 SWAP2 SWAP1 PUSH2 0x5C5F JUMP JUMPDEST SWAP1 MSTORE POP PUSH2 0x47E4 SWAP5 POP POP POP POP POP JUMP JUMPDEST PUSH1 0x0 DUP2 PUSH2 0x4A9E PUSH1 0x12 PUSH1 0xA PUSH2 0x5DDD JUMP JUMPDEST PUSH2 0x39D6 SWAP1 DUP6 PUSH2 0x5DE9 JUMP JUMPDEST PUSH1 0x40 DUP1 MLOAD PUSH1 0x1 PUSH1 0x1 PUSH1 0xA0 SHL SUB DUP5 AND PUSH1 0x24 DUP3 ADD MSTORE PUSH1 0x44 DUP1 DUP3 ADD DUP5 SWAP1 MSTORE DUP3 MLOAD DUP1 DUP4 SUB SWAP1 SWAP2 ADD DUP2 MSTORE PUSH1 0x64 SWAP1 SWAP2 ADD SWAP1 SWAP2 MSTORE PUSH1 0x20 DUP2 ADD DUP1 MLOAD PUSH1 0x1 PUSH1 0x1 PUSH1 0xE0 SHL SUB AND PUSH4 0x95EA7B3 PUSH1 0xE0 SHL OR SWAP1 MSTORE PUSH2 0x4AF9 DUP5 DUP3 PUSH2 0x54A9 JUMP JUMPDEST PUSH2 0x47C1 JUMPI PUSH1 0x40 MLOAD PUSH1 0x1 PUSH1 0x1 PUSH1 0xA0 SHL SUB DUP5 AND PUSH1 0x24 DUP3 ADD MSTORE PUSH1 0x0 PUSH1 0x44 DUP3 ADD MSTORE PUSH2 0x4B2D SWAP1 DUP6 SWAP1 PUSH4 0x95EA7B3 PUSH1 0xE0 SHL SWAP1 PUSH1 0x64 ADD PUSH2 0x38CB JUMP JUMPDEST PUSH2 0x47C1 DUP5 DUP3 PUSH2 0x503B JUMP JUMPDEST PUSH1 0x9 SLOAD PUSH2 0x100 SWAP1 DIV PUSH1 0xFF AND ISZERO PUSH2 0x29F4 JUMPI PUSH1 0x40 MLOAD PUSH4 0x3F20953D PUSH1 0xE1 SHL DUP2 MSTORE PUSH1 0x0 SWAP1 PUSH1 0x1 PUSH1 0x1 PUSH1 0xA0 SHL SUB PUSH32 0x0 AND SWAP1 PUSH4 0x7E412A7A SWAP1 PUSH2 0x4B98 SWAP1 DUP9 SWAP1 DUP9 SWAP1 PUSH1 0x4 ADD PUSH2 0x5C9B JUMP JUMPDEST PUSH1 0x20 PUSH1 0x40 MLOAD DUP1 DUP4 SUB DUP2 DUP7 GAS STATICCALL ISZERO DUP1 ISZERO PUSH2 0x4BB5 JUMPI RETURNDATASIZE PUSH1 0x0 DUP1 RETURNDATACOPY RETURNDATASIZE PUSH1 0x0 REVERT JUMPDEST POP POP POP POP PUSH1 0x40 MLOAD RETURNDATASIZE PUSH1 0x1F NOT PUSH1 0x1F DUP3 ADD AND DUP3 ADD DUP1 PUSH1 0x40 MSTORE POP DUP2 ADD SWAP1 PUSH2 0x4BD9 SWAP2 SWAP1 PUSH2 0x5A90 JUMP JUMPDEST SWAP1 POP PUSH1 0x0 PUSH32 0x0 PUSH1 0x1 PUSH1 0x1 PUSH1 0xA0 SHL SUB AND PUSH4 0x7E412A7A DUP6 DUP6 PUSH1 0x40 MLOAD DUP4 PUSH4 0xFFFFFFFF AND PUSH1 0xE0 SHL DUP2 MSTORE PUSH1 0x4 ADD PUSH2 0x4C2B SWAP3 SWAP2 SWAP1 PUSH2 0x5C9B JUMP JUMPDEST PUSH1 0x20 PUSH1 0x40 MLOAD DUP1 DUP4 SUB DUP2 DUP7 GAS STATICCALL ISZERO DUP1 ISZERO PUSH2 0x4C48 JUMPI RETURNDATASIZE PUSH1 0x0 DUP1 RETURNDATACOPY RETURNDATASIZE PUSH1 0x0 REVERT JUMPDEST POP POP POP POP PUSH1 0x40 MLOAD RETURNDATASIZE PUSH1 0x1F NOT PUSH1 0x1F DUP3 ADD AND DUP3 ADD DUP1 PUSH1 0x40 MSTORE POP DUP2 ADD SWAP1 PUSH2 0x4C6C SWAP2 SWAP1 PUSH2 0x5A90 JUMP JUMPDEST SWAP1 POP PUSH32 0x0 PUSH1 0x1 PUSH1 0x1 PUSH1 0xA0 SHL SUB AND PUSH4 0xDBCD89FA PUSH1 0x40 MLOAD DUP2 PUSH4 0xFFFFFFFF AND PUSH1 0xE0 SHL DUP2 MSTORE PUSH1 0x4 ADD PUSH1 0x20 PUSH1 0x40 MLOAD DUP1 DUP4 SUB DUP2 DUP7 GAS STATICCALL ISZERO DUP1 ISZERO PUSH2 0x4CCC JUMPI RETURNDATASIZE PUSH1 0x0 DUP1 RETURNDATACOPY RETURNDATASIZE PUSH1 0x0 REVERT JUMPDEST POP POP POP POP PUSH1 0x40 MLOAD RETURNDATASIZE PUSH1 0x1F NOT PUSH1 0x1F DUP3 ADD AND DUP3 ADD DUP1 PUSH1 0x40 MSTORE POP DUP2 ADD SWAP1 PUSH2 0x4CF0 SWAP2 SWAP1 PUSH2 0x5B76 JUMP JUMPDEST PUSH1 0x40 MLOAD PUSH4 0xA48AF5F PUSH1 0xE1 SHL DUP2 MSTORE PUSH1 0x1 PUSH1 0x1 PUSH1 0xA0 SHL SUB DUP10 DUP2 AND PUSH1 0x4 DUP4 ADD MSTORE PUSH1 0x24 DUP3 ADD DUP6 SWAP1 MSTORE PUSH1 0x44 DUP3 ADD DUP5 SWAP1 MSTORE SWAP2 SWAP1 SWAP2 AND SWAP1 PUSH4 0x14915EBE SWAP1 PUSH1 0x64 ADD PUSH1 0x0 PUSH1 0x40 MLOAD DUP1 DUP4 SUB DUP2 PUSH1 0x0 DUP8 DUP1 EXTCODESIZE ISZERO DUP1 ISZERO PUSH2 0x4D43 JUMPI PUSH1 0x0 DUP1 REVERT JUMPDEST POP GAS CALL ISZERO DUP1 ISZERO PUSH2 0x4D57 JUMPI RETURNDATASIZE PUSH1 0x0 DUP1 RETURNDATACOPY RETURNDATASIZE PUSH1 0x0 REVERT JUMPDEST POP POP POP POP PUSH2 0x4D65 DUP4 DUP6 PUSH2 0x4DCF JUMP JUMPDEST ISZERO PUSH2 0x4D76 JUMPI PUSH1 0x9 DUP1 SLOAD PUSH2 0xFF00 NOT AND SWAP1 SSTORE JUMPDEST POP POP POP POP POP POP POP JUMP JUMPDEST PUSH1 0x0 DUP1 SLOAD PUSH1 0x1 PUSH1 0x1 PUSH1 0xA0 SHL SUB DUP4 DUP2 AND PUSH1 0x1 PUSH1 0x1 PUSH1 0xA0 SHL SUB NOT DUP4 AND DUP2 OR DUP5 SSTORE PUSH1 0x40 MLOAD SWAP2 SWAP1 SWAP3 AND SWAP3 DUP4 SWAP2 PUSH32 0x8BE0079C531659141344CD1FD0A4F28419497F9722A3DAAFE3B4186F6B6457E0 SWAP2 SWAP1 LOG3 POP POP JUMP JUMPDEST PUSH1 0x3 SLOAD PUSH1 0x40 MLOAD PUSH4 0x28CB81EF PUSH1 0xE1 SHL DUP2 MSTORE PUSH1 0x0 SWAP2 PUSH1 0x1 PUSH1 0x1 PUSH1 0xA0 SHL SUB PUSH32 0x0 AND SWAP2 PUSH4 0x519703DE SWAP2 PUSH2 0x4E23 SWAP2 DUP8 SWAP2 DUP8 SWAP2 PUSH1 0x4 ADD PUSH2 0x5EC4 JUMP JUMPDEST PUSH1 0x20 PUSH1 0x40 MLOAD DUP1 DUP4 SUB DUP2 DUP7 GAS STATICCALL ISZERO DUP1 ISZERO PUSH2 0x4E40 JUMPI RETURNDATASIZE PUSH1 0x0 DUP1 RETURNDATACOPY RETURNDATASIZE PUSH1 0x0 REVERT JUMPDEST POP POP POP POP PUSH1 0x40 MLOAD RETURNDATASIZE PUSH1 0x1F NOT PUSH1 0x1F DUP3 ADD AND DUP3 ADD DUP1 PUSH1 0x40 MSTORE POP DUP2 ADD SWAP1 PUSH2 0xF57 SWAP2 SWAP1 PUSH2 0x5CDC JUMP JUMPDEST PUSH1 0x0 PUSH2 0x4E6E PUSH2 0xF5E JUMP JUMPDEST SWAP1 POP PUSH1 0x0 PUSH32 0x0 PUSH1 0x1 PUSH1 0x1 PUSH1 0xA0 SHL SUB AND PUSH4 0x2630C12F PUSH1 0x40 MLOAD DUP2 PUSH4 0xFFFFFFFF AND PUSH1 0xE0 SHL DUP2 MSTORE PUSH1 0x4 ADD PUSH1 0x20 PUSH1 0x40 MLOAD DUP1 DUP4 SUB DUP2 DUP7 GAS STATICCALL ISZERO DUP1 ISZERO PUSH2 0x4ED0 JUMPI RETURNDATASIZE PUSH1 0x0 DUP1 RETURNDATACOPY RETURNDATASIZE PUSH1 0x0 REVERT JUMPDEST POP POP POP POP PUSH1 0x40 MLOAD RETURNDATASIZE PUSH1 0x1F NOT PUSH1 0x1F DUP3 ADD AND DUP3 ADD DUP1 PUSH1 0x40 MSTORE POP DUP2 ADD SWAP1 PUSH2 0x4EF4 SWAP2 SWAP1 PUSH2 0x5B76 JUMP JUMPDEST PUSH1 0x40 MLOAD PUSH4 0x8B2F0F4F PUSH1 0xE0 SHL DUP2 MSTORE PUSH1 0x0 PUSH1 0x4 DUP3 ADD DUP2 SWAP1 MSTORE SWAP2 SWAP3 POP PUSH1 0x1 PUSH1 0x1 PUSH1 0xA0 SHL SUB DUP4 AND SWAP1 PUSH4 0x8B2F0F4F SWAP1 PUSH1 0x24 ADD PUSH1 0x20 PUSH1 0x40 MLOAD DUP1 DUP4 SUB DUP2 DUP7 GAS STATICCALL ISZERO DUP1 ISZERO PUSH2 0x4F3E JUMPI RETURNDATASIZE PUSH1 0x0 DUP1 RETURNDATACOPY RETURNDATASIZE PUSH1 0x0 REVERT JUMPDEST POP POP POP POP PUSH1 0x40 MLOAD RETURNDATASIZE PUSH1 0x1F NOT PUSH1 0x1F DUP3 ADD AND DUP3 ADD DUP1 PUSH1 0x40 MSTORE POP DUP2 ADD SWAP1 PUSH2 0x4F62 SWAP2 SWAP1 PUSH2 0x5A90 JUMP JUMPDEST SWAP1 POP PUSH1 0x0 JUMPDEST DUP4 MLOAD DUP2 LT ISZERO PUSH2 0x47C1 JUMPI PUSH1 0x0 DUP5 DUP3 DUP2 MLOAD DUP2 LT PUSH2 0x4F84 JUMPI PUSH2 0x4F84 PUSH2 0x5B60 JUMP JUMPDEST PUSH1 0x20 SWAP1 DUP2 MUL SWAP2 SWAP1 SWAP2 ADD ADD MLOAD PUSH1 0x40 MLOAD PUSH4 0x8B2F0F4F PUSH1 0xE0 SHL DUP2 MSTORE PUSH1 0x1 PUSH1 0x1 PUSH1 0xA0 SHL SUB DUP1 DUP4 AND PUSH1 0x4 DUP4 ADD MSTORE SWAP2 SWAP3 POP PUSH1 0x0 SWAP2 DUP7 AND SWAP1 PUSH4 0x8B2F0F4F SWAP1 PUSH1 0x24 ADD PUSH1 0x20 PUSH1 0x40 MLOAD DUP1 DUP4 SUB DUP2 DUP7 GAS STATICCALL ISZERO DUP1 ISZERO PUSH2 0x4FDB JUMPI RETURNDATASIZE PUSH1 0x0 DUP1 RETURNDATACOPY RETURNDATASIZE PUSH1 0x0 REVERT JUMPDEST POP POP POP POP PUSH1 0x40 MLOAD RETURNDATASIZE PUSH1 0x1F NOT PUSH1 0x1F DUP3 ADD AND DUP3 ADD DUP1 PUSH1 0x40 MSTORE POP DUP2 ADD SWAP1 PUSH2 0x4FFF SWAP2 SWAP1 PUSH2 0x5A90 JUMP JUMPDEST SWAP1 POP PUSH2 0x500B DUP2 DUP6 PUSH2 0x4A8F JUMP JUMPDEST PUSH1 0x1 PUSH1 0x1 PUSH1 0xA0 SHL SUB SWAP1 SWAP3 AND PUSH1 0x0 SWAP1 DUP2 MSTORE PUSH1 0xD PUSH1 0x20 MSTORE PUSH1 0x40 SWAP1 KECCAK256 SWAP2 SWAP1 SWAP2 SSTORE POP DUP1 PUSH2 0x5033 DUP2 PUSH2 0x5B93 JUMP JUMPDEST SWAP2 POP POP PUSH2 0x4F67 JUMP JUMPDEST PUSH1 0x0 PUSH2 0x5090 DUP3 PUSH1 0x40 MLOAD DUP1 PUSH1 0x40 ADD PUSH1 0x40 MSTORE DUP1 PUSH1 0x20 DUP2 MSTORE PUSH1 0x20 ADD PUSH32 0x5361666545524332303A206C6F772D6C6576656C2063616C6C206661696C6564 DUP2 MSTORE POP DUP6 PUSH1 0x1 PUSH1 0x1 PUSH1 0xA0 SHL SUB AND PUSH2 0x3902 SWAP1 SWAP3 SWAP2 SWAP1 PUSH4 0xFFFFFFFF AND JUMP JUMPDEST SWAP1 POP DUP1 MLOAD PUSH1 0x0 EQ DUP1 PUSH2 0x50B1 JUMPI POP DUP1 DUP1 PUSH1 0x20 ADD SWAP1 MLOAD DUP2 ADD SWAP1 PUSH2 0x50B1 SWAP2 SWAP1 PUSH2 0x5CDC JUMP JUMPDEST PUSH2 0x1AEC JUMPI PUSH1 0x40 MLOAD PUSH3 0x461BCD PUSH1 0xE5 SHL DUP2 MSTORE PUSH1 0x20 PUSH1 0x4 DUP3 ADD MSTORE PUSH1 0x2A PUSH1 0x24 DUP3 ADD MSTORE PUSH32 0x5361666545524332303A204552433230206F7065726174696F6E20646964206E PUSH1 0x44 DUP3 ADD MSTORE PUSH10 0x1BDD081CDD58D8D95959 PUSH1 0xB2 SHL PUSH1 0x64 DUP3 ADD MSTORE PUSH1 0x84 ADD PUSH2 0x402 JUMP JUMPDEST PUSH1 0x60 DUP3 SELFBALANCE LT ISZERO PUSH2 0x5171 JUMPI PUSH1 0x40 MLOAD PUSH3 0x461BCD PUSH1 0xE5 SHL DUP2 MSTORE PUSH1 0x20 PUSH1 0x4 DUP3 ADD MSTORE PUSH1 0x26 PUSH1 0x24 DUP3 ADD MSTORE PUSH32 0x416464726573733A20696E73756666696369656E742062616C616E636520666F PUSH1 0x44 DUP3 ADD MSTORE PUSH6 0x1C8818D85B1B PUSH1 0xD2 SHL PUSH1 0x64 DUP3 ADD MSTORE PUSH1 0x84 ADD PUSH2 0x402 JUMP JUMPDEST PUSH1 0x0 DUP1 DUP7 PUSH1 0x1 PUSH1 0x1 PUSH1 0xA0 SHL SUB AND DUP6 DUP8 PUSH1 0x40 MLOAD PUSH2 0x518D SWAP2 SWAP1 PUSH2 0x5F0D JUMP JUMPDEST PUSH1 0x0 PUSH1 0x40 MLOAD DUP1 DUP4 SUB DUP2 DUP6 DUP8 GAS CALL SWAP3 POP POP POP RETURNDATASIZE DUP1 PUSH1 0x0 DUP2 EQ PUSH2 0x51CA JUMPI PUSH1 0x40 MLOAD SWAP2 POP PUSH1 0x1F NOT PUSH1 0x3F RETURNDATASIZE ADD AND DUP3 ADD PUSH1 0x40 MSTORE RETURNDATASIZE DUP3 MSTORE RETURNDATASIZE PUSH1 0x0 PUSH1 0x20 DUP5 ADD RETURNDATACOPY PUSH2 0x51CF JUMP JUMPDEST PUSH1 0x60 SWAP2 POP JUMPDEST POP SWAP2 POP SWAP2 POP PUSH2 0x51E0 DUP8 DUP4 DUP4 DUP8 PUSH2 0x5550 JUMP JUMPDEST SWAP8 SWAP7 POP POP POP POP POP POP POP JUMP JUMPDEST PUSH1 0x60 PUSH1 0x0 DUP3 MLOAD PUSH1 0x1 PUSH1 0x1 PUSH1 0x40 SHL SUB DUP2 GT ISZERO PUSH2 0x5208 JUMPI PUSH2 0x5208 PUSH2 0x592A JUMP JUMPDEST PUSH1 0x40 MLOAD SWAP1 DUP1 DUP3 MSTORE DUP1 PUSH1 0x20 MUL PUSH1 0x20 ADD DUP3 ADD PUSH1 0x40 MSTORE DUP1 ISZERO PUSH2 0x5231 JUMPI DUP2 PUSH1 0x20 ADD PUSH1 0x20 DUP3 MUL DUP1 CALLDATASIZE DUP4 CALLDATACOPY ADD SWAP1 POP JUMPDEST POP SWAP1 POP PUSH1 0x0 JUMPDEST DUP4 MLOAD DUP2 LT ISZERO PUSH2 0x3E21 JUMPI DUP4 DUP2 DUP2 MLOAD DUP2 LT PUSH2 0x5252 JUMPI PUSH2 0x5252 PUSH2 0x5B60 JUMP JUMPDEST PUSH1 0x20 MUL PUSH1 0x20 ADD ADD MLOAD DUP3 DUP3 DUP2 MLOAD DUP2 LT PUSH2 0x526C JUMPI PUSH2 0x526C PUSH2 0x5B60 JUMP JUMPDEST PUSH1 0x20 SWAP1 DUP2 MUL SWAP2 SWAP1 SWAP2 ADD ADD MSTORE DUP1 PUSH2 0x5281 DUP2 PUSH2 0x5B93 JUMP JUMPDEST SWAP2 POP POP PUSH2 0x5237 JUMP JUMPDEST PUSH1 0x9 SLOAD PUSH1 0x0 SWAP1 PUSH2 0x100 SWAP1 DIV PUSH1 0xFF AND PUSH2 0x52A2 JUMPI POP PUSH1 0x3 SLOAD SWAP1 JUMP JUMPDEST POP PUSH1 0x0 SWAP1 JUMP JUMPDEST PUSH1 0x60 PUSH2 0xF57 DUP4 DUP4 PUSH1 0x40 MLOAD DUP1 PUSH1 0x60 ADD PUSH1 0x40 MSTORE DUP1 PUSH1 0x27 DUP2 MSTORE PUSH1 0x20 ADD PUSH2 0x5F5D PUSH1 0x27 SWAP2 CODECOPY PUSH2 0x55C9 JUMP JUMPDEST PUSH1 0x0 PUSH2 0x52E0 DUP3 PUSH4 0x1FFC9A7 PUSH1 0xE0 SHL PUSH2 0x5300 JUMP JUMPDEST DUP1 ISZERO PUSH2 0x11E7 JUMPI POP PUSH2 0x52F9 DUP3 PUSH1 0x1 PUSH1 0x1 PUSH1 0xE0 SHL SUB NOT PUSH2 0x5300 JUMP JUMPDEST ISZERO SWAP3 SWAP2 POP POP JUMP JUMPDEST PUSH1 0x40 DUP1 MLOAD PUSH1 0x1 PUSH1 0x1 PUSH1 0xE0 SHL SUB NOT DUP4 AND PUSH1 0x24 DUP1 DUP4 ADD SWAP2 SWAP1 SWAP2 MSTORE DUP3 MLOAD DUP1 DUP4 SUB SWAP1 SWAP2 ADD DUP2 MSTORE PUSH1 0x44 SWAP1 SWAP2 ADD SWAP1 SWAP2 MSTORE PUSH1 0x20 DUP1 DUP3 ADD DUP1 MLOAD PUSH1 0x1 PUSH1 0x1 PUSH1 0xE0 SHL SUB AND PUSH4 0x1FFC9A7 PUSH1 0xE0 SHL OR DUP2 MSTORE DUP3 MLOAD PUSH1 0x0 SWAP4 SWAP3 DUP5 SWAP3 DUP4 SWAP3 DUP4 SWAP3 SWAP2 DUP4 SWAP2 SWAP1 DUP11 PUSH2 0x7530 STATICCALL SWAP3 POP RETURNDATASIZE SWAP2 POP PUSH1 0x0 MLOAD SWAP1 POP DUP3 DUP1 ISZERO PUSH2 0x5372 JUMPI POP PUSH1 0x20 DUP3 LT ISZERO JUMPDEST DUP1 ISZERO PUSH2 0x51E0 JUMPI POP ISZERO ISZERO SWAP7 SWAP6 POP POP POP POP POP POP JUMP JUMPDEST PUSH1 0x0 DUP1 JUMPDEST DUP3 DUP2 LT ISZERO PUSH2 0x53DF JUMPI DUP4 PUSH1 0x1 PUSH1 0x1 PUSH1 0xA0 SHL SUB AND DUP6 DUP3 DUP2 MLOAD DUP2 LT PUSH2 0x53AD JUMPI PUSH2 0x53AD PUSH2 0x5B60 JUMP JUMPDEST PUSH1 0x20 MUL PUSH1 0x20 ADD ADD MLOAD PUSH1 0x1 PUSH1 0x1 PUSH1 0xA0 SHL SUB AND SUB PUSH2 0x53CD JUMPI PUSH1 0x1 SWAP2 POP POP PUSH2 0xF57 JUMP JUMPDEST DUP1 PUSH2 0x53D7 DUP2 PUSH2 0x5B93 JUMP JUMPDEST SWAP2 POP POP PUSH2 0x5389 JUMP JUMPDEST POP PUSH1 0x0 SWAP5 SWAP4 POP POP POP POP JUMP JUMPDEST PUSH1 0x60 DUP2 PUSH1 0x1 PUSH1 0x1 PUSH1 0x40 SHL SUB DUP2 GT ISZERO PUSH2 0x5404 JUMPI PUSH2 0x5404 PUSH2 0x592A JUMP JUMPDEST PUSH1 0x40 MLOAD SWAP1 DUP1 DUP3 MSTORE DUP1 PUSH1 0x20 MUL PUSH1 0x20 ADD DUP3 ADD PUSH1 0x40 MSTORE DUP1 ISZERO PUSH2 0x542D JUMPI DUP2 PUSH1 0x20 ADD PUSH1 0x20 DUP3 MUL DUP1 CALLDATASIZE DUP4 CALLDATACOPY ADD SWAP1 POP JUMPDEST POP SWAP1 POP PUSH1 0x0 JUMPDEST DUP3 DUP2 LT ISZERO PUSH2 0x3E21 JUMPI DUP4 DUP2 DUP2 MLOAD DUP2 LT PUSH2 0x544D JUMPI PUSH2 0x544D PUSH2 0x5B60 JUMP JUMPDEST PUSH1 0x20 MUL PUSH1 0x20 ADD ADD MLOAD DUP3 DUP3 DUP2 MLOAD DUP2 LT PUSH2 0x5467 JUMPI PUSH2 0x5467 PUSH2 0x5B60 JUMP JUMPDEST PUSH1 0x1 PUSH1 0x1 PUSH1 0xA0 SHL SUB SWAP1 SWAP3 AND PUSH1 0x20 SWAP3 DUP4 MUL SWAP2 SWAP1 SWAP2 ADD SWAP1 SWAP2 ADD MSTORE DUP1 PUSH2 0x5489 DUP2 PUSH2 0x5B93 JUMP JUMPDEST SWAP2 POP POP PUSH2 0x5433 JUMP JUMPDEST PUSH1 0x0 DUP2 DUP4 LT ISZERO PUSH2 0x54A3 JUMPI DUP3 DUP3 SUB PUSH2 0xF57 JUMP JUMPDEST POP SWAP1 SUB SWAP1 JUMP JUMPDEST PUSH1 0x0 DUP1 PUSH1 0x0 DUP5 PUSH1 0x1 PUSH1 0x1 PUSH1 0xA0 SHL SUB AND DUP5 PUSH1 0x40 MLOAD PUSH2 0x54C6 SWAP2 SWAP1 PUSH2 0x5F0D JUMP JUMPDEST PUSH1 0x0 PUSH1 0x40 MLOAD DUP1 DUP4 SUB DUP2 PUSH1 0x0 DUP7 GAS CALL SWAP2 POP POP RETURNDATASIZE DUP1 PUSH1 0x0 DUP2 EQ PUSH2 0x5503 JUMPI PUSH1 0x40 MLOAD SWAP2 POP PUSH1 0x1F NOT PUSH1 0x3F RETURNDATASIZE ADD AND DUP3 ADD PUSH1 0x40 MSTORE RETURNDATASIZE DUP3 MSTORE RETURNDATASIZE PUSH1 0x0 PUSH1 0x20 DUP5 ADD RETURNDATACOPY PUSH2 0x5508 JUMP JUMPDEST PUSH1 0x60 SWAP2 POP JUMPDEST POP SWAP2 POP SWAP2 POP DUP2 DUP1 ISZERO PUSH2 0x5532 JUMPI POP DUP1 MLOAD ISZERO DUP1 PUSH2 0x5532 JUMPI POP DUP1 DUP1 PUSH1 0x20 ADD SWAP1 MLOAD DUP2 ADD SWAP1 PUSH2 0x5532 SWAP2 SWAP1 PUSH2 0x5CDC JUMP JUMPDEST DUP1 ISZERO PUSH2 0x5547 JUMPI POP PUSH1 0x1 PUSH1 0x1 PUSH1 0xA0 SHL SUB DUP6 AND EXTCODESIZE ISZERO ISZERO JUMPDEST SWAP6 SWAP5 POP POP POP POP POP JUMP JUMPDEST PUSH1 0x60 DUP4 ISZERO PUSH2 0x55BF JUMPI DUP3 MLOAD PUSH1 0x0 SUB PUSH2 0x55B8 JUMPI PUSH1 0x1 PUSH1 0x1 PUSH1 0xA0 SHL SUB DUP6 AND EXTCODESIZE PUSH2 0x55B8 JUMPI PUSH1 0x40 MLOAD PUSH3 0x461BCD PUSH1 0xE5 SHL DUP2 MSTORE PUSH1 0x20 PUSH1 0x4 DUP3 ADD MSTORE PUSH1 0x1D PUSH1 0x24 DUP3 ADD MSTORE PUSH32 0x416464726573733A2063616C6C20746F206E6F6E2D636F6E7472616374000000 PUSH1 0x44 DUP3 ADD MSTORE PUSH1 0x64 ADD PUSH2 0x402 JUMP JUMPDEST POP DUP2 PUSH2 0x12E7 JUMP JUMPDEST PUSH2 0x12E7 DUP4 DUP4 PUSH2 0x5641 JUMP JUMPDEST PUSH1 0x60 PUSH1 0x0 DUP1 DUP6 PUSH1 0x1 PUSH1 0x1 PUSH1 0xA0 SHL SUB AND DUP6 PUSH1 0x40 MLOAD PUSH2 0x55E6 SWAP2 SWAP1 PUSH2 0x5F0D JUMP JUMPDEST PUSH1 0x0 PUSH1 0x40 MLOAD DUP1 DUP4 SUB DUP2 DUP6 GAS DELEGATECALL SWAP2 POP POP RETURNDATASIZE DUP1 PUSH1 0x0 DUP2 EQ PUSH2 0x5621 JUMPI PUSH1 0x40 MLOAD SWAP2 POP PUSH1 0x1F NOT PUSH1 0x3F RETURNDATASIZE ADD AND DUP3 ADD PUSH1 0x40 MSTORE RETURNDATASIZE DUP3 MSTORE RETURNDATASIZE PUSH1 0x0 PUSH1 0x20 DUP5 ADD RETURNDATACOPY PUSH2 0x5626 JUMP JUMPDEST PUSH1 0x60 SWAP2 POP JUMPDEST POP SWAP2 POP SWAP2 POP PUSH2 0x5637 DUP7 DUP4 DUP4 DUP8 PUSH2 0x5550 JUMP JUMPDEST SWAP7 SWAP6 POP POP POP POP POP POP JUMP JUMPDEST DUP2 MLOAD ISZERO PUSH2 0x5651 JUMPI DUP2 MLOAD DUP1 DUP4 PUSH1 0x20 ADD REVERT JUMPDEST DUP1 PUSH1 0x40 MLOAD PUSH3 0x461BCD PUSH1 0xE5 SHL DUP2 MSTORE PUSH1 0x4 ADD PUSH2 0x402 SWAP2 SWAP1 PUSH2 0x5F29 JUMP JUMPDEST PUSH1 0x1 PUSH1 0x1 PUSH1 0xA0 SHL SUB DUP2 AND DUP2 EQ PUSH2 0x37B7 JUMPI PUSH1 0x0 DUP1 REVERT JUMPDEST PUSH1 0x0 DUP1 PUSH1 0x0 PUSH1 0x60 DUP5 DUP7 SUB SLT ISZERO PUSH2 0x5695 JUMPI PUSH1 0x0 DUP1 REVERT JUMPDEST DUP4 CALLDATALOAD SWAP3 POP PUSH1 0x20 DUP5 ADD CALLDATALOAD SWAP2 POP PUSH1 0x40 DUP5 ADD CALLDATALOAD PUSH2 0x56AE DUP2 PUSH2 0x566B JUMP JUMPDEST DUP1 SWAP2 POP POP SWAP3 POP SWAP3 POP SWAP3 JUMP JUMPDEST PUSH1 0x20 DUP1 DUP3 MSTORE DUP3 MLOAD DUP3 DUP3 ADD DUP2 SWAP1 MSTORE PUSH1 0x0 SWAP2 SWAP1 DUP5 DUP3 ADD SWAP1 PUSH1 0x40 DUP6 ADD SWAP1 DUP5 JUMPDEST DUP2 DUP2 LT ISZERO PUSH2 0x56FA JUMPI DUP4 MLOAD PUSH1 0x1 PUSH1 0x1 PUSH1 0xA0 SHL SUB AND DUP4 MSTORE SWAP3 DUP5 ADD SWAP3 SWAP2 DUP5 ADD SWAP2 PUSH1 0x1 ADD PUSH2 0x56D5 JUMP JUMPDEST POP SWAP1 SWAP7 SWAP6 POP POP POP POP POP POP JUMP JUMPDEST PUSH1 0x0 PUSH1 0x20 DUP3 DUP5 SUB SLT ISZERO PUSH2 0x5718 JUMPI PUSH1 0x0 DUP1 REVERT JUMPDEST POP CALLDATALOAD SWAP2 SWAP1 POP JUMP JUMPDEST PUSH1 0x0 DUP1 PUSH1 0x40 DUP4 DUP6 SUB SLT ISZERO PUSH2 0x5732 JUMPI PUSH1 0x0 DUP1 REVERT JUMPDEST POP POP DUP1 CALLDATALOAD SWAP3 PUSH1 0x20 SWAP1 SWAP2 ADD CALLDATALOAD SWAP2 POP JUMP JUMPDEST PUSH1 0x20 DUP1 DUP3 MSTORE DUP3 MLOAD DUP3 DUP3 ADD DUP2 SWAP1 MSTORE PUSH1 0x0 SWAP2 SWAP1 PUSH1 0x40 SWAP1 DUP2 DUP6 ADD SWAP1 DUP7 DUP5 ADD DUP6 JUMPDEST DUP3 DUP2 LT ISZERO PUSH2 0x5794 JUMPI PUSH2 0x5784 DUP5 DUP4 MLOAD DUP1 MLOAD PUSH1 0x1 PUSH1 0x1 PUSH1 0xA0 SHL SUB AND DUP3 MSTORE PUSH1 0x20 SWAP1 DUP2 ADD MLOAD SWAP2 ADD MSTORE JUMP JUMPDEST SWAP3 DUP5 ADD SWAP3 SWAP1 DUP6 ADD SWAP1 PUSH1 0x1 ADD PUSH2 0x575E JUMP JUMPDEST POP SWAP2 SWAP8 SWAP7 POP POP POP POP POP POP POP JUMP JUMPDEST PUSH1 0x0 DUP2 MLOAD DUP1 DUP5 MSTORE PUSH1 0x20 DUP1 DUP6 ADD SWAP5 POP DUP1 DUP5 ADD PUSH1 0x0 JUMPDEST DUP4 DUP2 LT ISZERO PUSH2 0x57D1 JUMPI DUP2 MLOAD DUP8 MSTORE SWAP6 DUP3 ADD SWAP6 SWAP1 DUP3 ADD SWAP1 PUSH1 0x1 ADD PUSH2 0x57B5 JUMP JUMPDEST POP SWAP5 SWAP6 SWAP5 POP POP POP POP POP JUMP JUMPDEST DUP4 DUP2 MSTORE DUP3 PUSH1 0x20 DUP3 ADD MSTORE PUSH1 0x60 PUSH1 0x40 DUP3 ADD MSTORE PUSH1 0x0 PUSH2 0x5547 PUSH1 0x60 DUP4 ADD DUP5 PUSH2 0x57A1 JUMP JUMPDEST PUSH1 0x0 PUSH1 0x20 DUP3 DUP5 SUB SLT ISZERO PUSH2 0x580D JUMPI PUSH1 0x0 DUP1 REVERT JUMPDEST DUP2 CALLDATALOAD PUSH2 0xF57 DUP2 PUSH2 0x566B JUMP JUMPDEST DUP1 ISZERO ISZERO DUP2 EQ PUSH2 0x37B7 JUMPI PUSH1 0x0 DUP1 REVERT JUMPDEST PUSH1 0x0 DUP1 PUSH1 0x40 DUP4 DUP6 SUB SLT ISZERO PUSH2 0x5839 JUMPI PUSH1 0x0 DUP1 REVERT JUMPDEST DUP3 CALLDATALOAD PUSH2 0x5844 DUP2 PUSH2 0x566B JUMP JUMPDEST SWAP2 POP PUSH1 0x20 DUP4 ADD CALLDATALOAD PUSH2 0x5854 DUP2 PUSH2 0x5818 JUMP JUMPDEST DUP1 SWAP2 POP POP SWAP3 POP SWAP3 SWAP1 POP JUMP JUMPDEST PUSH1 0x0 DUP1 PUSH1 0x0 PUSH1 0x60 DUP5 DUP7 SUB SLT ISZERO PUSH2 0x5874 JUMPI PUSH1 0x0 DUP1 REVERT JUMPDEST DUP4 CALLDATALOAD SWAP3 POP PUSH1 0x20 DUP5 ADD CALLDATALOAD SWAP2 POP PUSH1 0x40 DUP5 ADD CALLDATALOAD PUSH2 0x56AE DUP2 PUSH2 0x5818 JUMP JUMPDEST PUSH1 0x0 DUP1 PUSH1 0x0 DUP1 PUSH1 0x80 DUP6 DUP8 SUB SLT ISZERO PUSH2 0x58A3 JUMPI PUSH1 0x0 DUP1 REVERT JUMPDEST DUP5 CALLDATALOAD PUSH2 0x58AE DUP2 PUSH2 0x566B JUMP JUMPDEST SWAP4 POP PUSH1 0x20 DUP6 ADD CALLDATALOAD SWAP3 POP PUSH1 0x40 DUP6 ADD CALLDATALOAD SWAP2 POP PUSH1 0x60 DUP6 ADD CALLDATALOAD PUSH2 0x58CC DUP2 PUSH2 0x5818 JUMP JUMPDEST SWAP4 SWAP7 SWAP3 SWAP6 POP SWAP1 SWAP4 POP POP JUMP JUMPDEST PUSH1 0x20 DUP1 DUP3 MSTORE DUP3 MLOAD DUP3 DUP3 ADD DUP2 SWAP1 MSTORE PUSH1 0x0 SWAP2 SWAP1 PUSH1 0x40 SWAP1 DUP2 DUP6 ADD SWAP1 DUP7 DUP5 ADD DUP6 JUMPDEST DUP3 DUP2 LT ISZERO PUSH2 0x5794 JUMPI PUSH2 0x591A DUP5 DUP4 MLOAD DUP1 MLOAD PUSH1 0x1 PUSH1 0x1 PUSH1 0xA0 SHL SUB AND DUP3 MSTORE PUSH1 0x20 SWAP1 DUP2 ADD MLOAD SWAP2 ADD MSTORE JUMP JUMPDEST SWAP3 DUP5 ADD SWAP3 SWAP1 DUP6 ADD SWAP1 PUSH1 0x1 ADD PUSH2 0x58F4 JUMP JUMPDEST PUSH4 0x4E487B71 PUSH1 0xE0 SHL PUSH1 0x0 MSTORE PUSH1 0x41 PUSH1 0x4 MSTORE PUSH1 0x24 PUSH1 0x0 REVERT JUMPDEST PUSH1 0x40 DUP1 MLOAD SWAP1 DUP2 ADD PUSH1 0x1 PUSH1 0x1 PUSH1 0x40 SHL SUB DUP2 GT DUP3 DUP3 LT OR ISZERO PUSH2 0x5962 JUMPI PUSH2 0x5962 PUSH2 0x592A JUMP JUMPDEST PUSH1 0x40 MSTORE SWAP1 JUMP JUMPDEST PUSH1 0x40 MLOAD PUSH1 0x1F DUP3 ADD PUSH1 0x1F NOT AND DUP2 ADD PUSH1 0x1 PUSH1 0x1 PUSH1 0x40 SHL SUB DUP2 GT DUP3 DUP3 LT OR ISZERO PUSH2 0x5990 JUMPI PUSH2 0x5990 PUSH2 0x592A JUMP JUMPDEST PUSH1 0x40 MSTORE SWAP2 SWAP1 POP JUMP JUMPDEST PUSH1 0x0 PUSH1 0x1 PUSH1 0x1 PUSH1 0x40 SHL SUB DUP3 GT ISZERO PUSH2 0x59B1 JUMPI PUSH2 0x59B1 PUSH2 0x592A JUMP JUMPDEST POP PUSH1 0x5 SHL PUSH1 0x20 ADD SWAP1 JUMP JUMPDEST PUSH1 0x0 PUSH1 0x20 DUP1 DUP4 DUP6 SUB SLT ISZERO PUSH2 0x59CE JUMPI PUSH1 0x0 DUP1 REVERT JUMPDEST DUP3 CALLDATALOAD PUSH1 0x1 PUSH1 0x1 PUSH1 0x40 SHL SUB DUP2 GT ISZERO PUSH2 0x59E4 JUMPI PUSH1 0x0 DUP1 REVERT JUMPDEST DUP4 ADD PUSH1 0x1F DUP2 ADD DUP6 SGT PUSH2 0x59F5 JUMPI PUSH1 0x0 DUP1 REVERT JUMPDEST DUP1 CALLDATALOAD PUSH2 0x5A08 PUSH2 0x5A03 DUP3 PUSH2 0x5998 JUMP JUMPDEST PUSH2 0x5968 JUMP JUMPDEST DUP2 DUP2 MSTORE PUSH1 0x6 SWAP2 SWAP1 SWAP2 SHL DUP3 ADD DUP4 ADD SWAP1 DUP4 DUP2 ADD SWAP1 DUP8 DUP4 GT ISZERO PUSH2 0x5A27 JUMPI PUSH1 0x0 DUP1 REVERT JUMPDEST SWAP3 DUP5 ADD SWAP3 JUMPDEST DUP3 DUP5 LT ISZERO PUSH2 0x51E0 JUMPI PUSH1 0x40 DUP5 DUP10 SUB SLT ISZERO PUSH2 0x5A45 JUMPI PUSH1 0x0 DUP1 DUP2 REVERT JUMPDEST PUSH2 0x5A4D PUSH2 0x5940 JUMP JUMPDEST DUP5 CALLDATALOAD PUSH2 0x5A58 DUP2 PUSH2 0x566B JUMP JUMPDEST DUP2 MSTORE DUP5 DUP7 ADD CALLDATALOAD DUP7 DUP3 ADD MSTORE DUP3 MSTORE PUSH1 0x40 SWAP1 SWAP4 ADD SWAP3 SWAP1 DUP5 ADD SWAP1 PUSH2 0x5A2C JUMP JUMPDEST PUSH1 0x0 PUSH1 0x20 DUP3 DUP5 SUB SLT ISZERO PUSH2 0x5A85 JUMPI PUSH1 0x0 DUP1 REVERT JUMPDEST DUP2 CALLDATALOAD PUSH2 0xF57 DUP2 PUSH2 0x5818 JUMP JUMPDEST PUSH1 0x0 PUSH1 0x20 DUP3 DUP5 SUB SLT ISZERO PUSH2 0x5AA2 JUMPI PUSH1 0x0 DUP1 REVERT JUMPDEST POP MLOAD SWAP2 SWAP1 POP JUMP JUMPDEST PUSH4 0x4E487B71 PUSH1 0xE0 SHL PUSH1 0x0 MSTORE PUSH1 0x11 PUSH1 0x4 MSTORE PUSH1 0x24 PUSH1 0x0 REVERT JUMPDEST DUP2 DUP2 SUB DUP2 DUP2 GT ISZERO PUSH2 0x11E7 JUMPI PUSH2 0x11E7 PUSH2 0x5AA9 JUMP JUMPDEST PUSH1 0x0 PUSH1 0x20 DUP1 DUP4 DUP6 SUB SLT ISZERO PUSH2 0x5AE5 JUMPI PUSH1 0x0 DUP1 REVERT JUMPDEST DUP3 MLOAD PUSH1 0x1 PUSH1 0x1 PUSH1 0x40 SHL SUB DUP2 GT ISZERO PUSH2 0x5AFB JUMPI PUSH1 0x0 DUP1 REVERT JUMPDEST DUP4 ADD PUSH1 0x1F DUP2 ADD DUP6 SGT PUSH2 0x5B0C JUMPI PUSH1 0x0 DUP1 REVERT JUMPDEST DUP1 MLOAD PUSH2 0x5B1A PUSH2 0x5A03 DUP3 PUSH2 0x5998 JUMP JUMPDEST DUP2 DUP2 MSTORE PUSH1 0x5 SWAP2 SWAP1 SWAP2 SHL DUP3 ADD DUP4 ADD SWAP1 DUP4 DUP2 ADD SWAP1 DUP8 DUP4 GT ISZERO PUSH2 0x5B39 JUMPI PUSH1 0x0 DUP1 REVERT JUMPDEST SWAP3 DUP5 ADD SWAP3 JUMPDEST DUP3 DUP5 LT ISZERO PUSH2 0x51E0 JUMPI DUP4 MLOAD PUSH2 0x5B51 DUP2 PUSH2 0x566B JUMP JUMPDEST DUP3 MSTORE SWAP3 DUP5 ADD SWAP3 SWAP1 DUP5 ADD SWAP1 PUSH2 0x5B3E JUMP JUMPDEST PUSH4 0x4E487B71 PUSH1 0xE0 SHL PUSH1 0x0 MSTORE PUSH1 0x32 PUSH1 0x4 MSTORE PUSH1 0x24 PUSH1 0x0 REVERT JUMPDEST PUSH1 0x0 PUSH1 0x20 DUP3 DUP5 SUB SLT ISZERO PUSH2 0x5B88 JUMPI PUSH1 0x0 DUP1 REVERT JUMPDEST DUP2 MLOAD PUSH2 0xF57 DUP2 PUSH2 0x566B JUMP JUMPDEST PUSH1 0x0 PUSH1 0x1 DUP3 ADD PUSH2 0x5BA5 JUMPI PUSH2 0x5BA5 PUSH2 0x5AA9 JUMP JUMPDEST POP PUSH1 0x1 ADD SWAP1 JUMP JUMPDEST PUSH1 0x0 PUSH1 0x20 DUP1 DUP4 DUP6 SUB SLT ISZERO PUSH2 0x5BBF JUMPI PUSH1 0x0 DUP1 REVERT JUMPDEST DUP3 MLOAD PUSH1 0x1 PUSH1 0x1 PUSH1 0x40 SHL SUB DUP2 GT ISZERO PUSH2 0x5BD5 JUMPI PUSH1 0x0 DUP1 REVERT JUMPDEST DUP4 ADD PUSH1 0x1F DUP2 ADD DUP6 SGT PUSH2 0x5BE6 JUMPI PUSH1 0x0 DUP1 REVERT JUMPDEST DUP1 MLOAD PUSH2 0x5BF4 PUSH2 0x5A03 DUP3 PUSH2 0x5998 JUMP JUMPDEST DUP2 DUP2 MSTORE PUSH1 0x6 SWAP2 SWAP1 SWAP2 SHL DUP3 ADD DUP4 ADD SWAP1 DUP4 DUP2 ADD SWAP1 DUP8 DUP4 GT ISZERO PUSH2 0x5C13 JUMPI PUSH1 0x0 DUP1 REVERT JUMPDEST SWAP3 DUP5 ADD SWAP3 JUMPDEST DUP3 DUP5 LT ISZERO PUSH2 0x51E0 JUMPI PUSH1 0x40 DUP5 DUP10 SUB SLT ISZERO PUSH2 0x5C31 JUMPI PUSH1 0x0 DUP1 DUP2 REVERT JUMPDEST PUSH2 0x5C39 PUSH2 0x5940 JUMP JUMPDEST DUP5 MLOAD PUSH2 0x5C44 DUP2 PUSH2 0x566B JUMP JUMPDEST DUP2 MSTORE DUP5 DUP7 ADD MLOAD DUP7 DUP3 ADD MSTORE DUP3 MSTORE PUSH1 0x40 SWAP1 SWAP4 ADD SWAP3 SWAP1 DUP5 ADD SWAP1 PUSH2 0x5C18 JUMP JUMPDEST DUP1 DUP3 ADD DUP1 DUP3 GT ISZERO PUSH2 0x11E7 JUMPI PUSH2 0x11E7 PUSH2 0x5AA9 JUMP JUMPDEST PUSH1 0x20 DUP1 DUP3 MSTORE PUSH1 0xF SWAP1 DUP3 ADD MSTORE PUSH15 0x1CD85B5948185CC818DD5C9C995B9D PUSH1 0x8A SHL PUSH1 0x40 DUP3 ADD MSTORE PUSH1 0x60 ADD SWAP1 JUMP JUMPDEST DUP3 DUP2 MSTORE PUSH1 0x40 PUSH1 0x20 DUP3 ADD MSTORE PUSH1 0x0 PUSH2 0x12E7 PUSH1 0x40 DUP4 ADD DUP5 PUSH2 0x57A1 JUMP JUMPDEST PUSH1 0x20 DUP1 DUP3 MSTORE PUSH1 0xE SWAP1 DUP3 ADD MSTORE PUSH14 0x1B9BDD08185D5D1A1BDC9A5E9959 PUSH1 0x92 SHL PUSH1 0x40 DUP3 ADD MSTORE PUSH1 0x60 ADD SWAP1 JUMP JUMPDEST PUSH1 0x0 PUSH1 0x20 DUP3 DUP5 SUB SLT ISZERO PUSH2 0x5CEE JUMPI PUSH1 0x0 DUP1 REVERT JUMPDEST DUP2 MLOAD PUSH2 0xF57 DUP2 PUSH2 0x5818 JUMP JUMPDEST PUSH1 0x1 DUP2 DUP2 JUMPDEST DUP1 DUP6 GT ISZERO PUSH2 0x5D34 JUMPI DUP2 PUSH1 0x0 NOT DIV DUP3 GT ISZERO PUSH2 0x5D1A JUMPI PUSH2 0x5D1A PUSH2 0x5AA9 JUMP JUMPDEST DUP1 DUP6 AND ISZERO PUSH2 0x5D27 JUMPI SWAP2 DUP2 MUL SWAP2 JUMPDEST SWAP4 DUP5 SHR SWAP4 SWAP1 DUP1 MUL SWAP1 PUSH2 0x5CFE JUMP JUMPDEST POP SWAP3 POP SWAP3 SWAP1 POP JUMP JUMPDEST PUSH1 0x0 DUP3 PUSH2 0x5D4B JUMPI POP PUSH1 0x1 PUSH2 0x11E7 JUMP JUMPDEST DUP2 PUSH2 0x5D58 JUMPI POP PUSH1 0x0 PUSH2 0x11E7 JUMP JUMPDEST DUP2 PUSH1 0x1 DUP2 EQ PUSH2 0x5D6E JUMPI PUSH1 0x2 DUP2 EQ PUSH2 0x5D78 JUMPI PUSH2 0x5D94 JUMP JUMPDEST PUSH1 0x1 SWAP2 POP POP PUSH2 0x11E7 JUMP JUMPDEST PUSH1 0xFF DUP5 GT ISZERO PUSH2 0x5D89 JUMPI PUSH2 0x5D89 PUSH2 0x5AA9 JUMP JUMPDEST POP POP PUSH1 0x1 DUP3 SHL PUSH2 0x11E7 JUMP JUMPDEST POP PUSH1 0x20 DUP4 LT PUSH2 0x133 DUP4 LT AND PUSH1 0x4E DUP5 LT PUSH1 0xB DUP5 LT AND OR ISZERO PUSH2 0x5DB7 JUMPI POP DUP2 DUP2 EXP PUSH2 0x11E7 JUMP JUMPDEST PUSH2 0x5DC1 DUP4 DUP4 PUSH2 0x5CF9 JUMP JUMPDEST DUP1 PUSH1 0x0 NOT DIV DUP3 GT ISZERO PUSH2 0x5DD5 JUMPI PUSH2 0x5DD5 PUSH2 0x5AA9 JUMP JUMPDEST MUL SWAP4 SWAP3 POP POP POP JUMP JUMPDEST PUSH1 0x0 PUSH2 0xF57 DUP4 DUP4 PUSH2 0x5D3C JUMP JUMPDEST DUP1 DUP3 MUL DUP2 ISZERO DUP3 DUP3 DIV DUP5 EQ OR PUSH2 0x11E7 JUMPI PUSH2 0x11E7 PUSH2 0x5AA9 JUMP JUMPDEST PUSH1 0x0 DUP3 PUSH2 0x5E1D JUMPI PUSH4 0x4E487B71 PUSH1 0xE0 SHL PUSH1 0x0 MSTORE PUSH1 0x12 PUSH1 0x4 MSTORE PUSH1 0x24 PUSH1 0x0 REVERT JUMPDEST POP DIV SWAP1 JUMP JUMPDEST DUP4 DUP2 MSTORE PUSH1 0x60 PUSH1 0x20 DUP3 ADD MSTORE PUSH1 0x0 PUSH2 0x5E3B PUSH1 0x60 DUP4 ADD DUP6 PUSH2 0x57A1 JUMP JUMPDEST SWAP1 POP DUP3 PUSH1 0x40 DUP4 ADD MSTORE SWAP5 SWAP4 POP POP POP POP JUMP JUMPDEST PUSH1 0x0 DUP1 PUSH1 0x40 DUP4 DUP6 SUB SLT ISZERO PUSH2 0x5E5E JUMPI PUSH1 0x0 DUP1 REVERT JUMPDEST POP POP DUP1 MLOAD PUSH1 0x20 SWAP1 SWAP2 ADD MLOAD SWAP1 SWAP3 SWAP1 SWAP2 POP JUMP JUMPDEST PUSH1 0x1 PUSH1 0x1 PUSH1 0xA0 SHL SUB DUP7 DUP2 AND DUP3 MSTORE DUP6 DUP2 AND PUSH1 0x20 DUP4 ADD MSTORE DUP5 AND PUSH1 0x40 DUP3 ADD MSTORE PUSH1 0x60 DUP2 ADD DUP4 SWAP1 MSTORE PUSH1 0xA0 DUP2 ADD PUSH1 0x3 DUP4 LT PUSH2 0x5EB4 JUMPI PUSH4 0x4E487B71 PUSH1 0xE0 SHL PUSH1 0x0 MSTORE PUSH1 0x21 PUSH1 0x4 MSTORE PUSH1 0x24 PUSH1 0x0 REVERT JUMPDEST DUP3 PUSH1 0x80 DUP4 ADD MSTORE SWAP7 SWAP6 POP POP POP POP POP POP JUMP JUMPDEST PUSH1 0x60 DUP2 MSTORE PUSH1 0x0 PUSH2 0x5ED7 PUSH1 0x60 DUP4 ADD DUP7 PUSH2 0x57A1 JUMP JUMPDEST PUSH1 0x20 DUP4 ADD SWAP5 SWAP1 SWAP5 MSTORE POP PUSH1 0x40 ADD MSTORE SWAP2 SWAP1 POP JUMP JUMPDEST PUSH1 0x0 JUMPDEST DUP4 DUP2 LT ISZERO PUSH2 0x5F04 JUMPI DUP2 DUP2 ADD MLOAD DUP4 DUP3 ADD MSTORE PUSH1 0x20 ADD PUSH2 0x5EEC JUMP JUMPDEST POP POP PUSH1 0x0 SWAP2 ADD MSTORE JUMP JUMPDEST PUSH1 0x0 DUP3 MLOAD PUSH2 0x5F1F DUP2 DUP5 PUSH1 0x20 DUP8 ADD PUSH2 0x5EE9 JUMP JUMPDEST SWAP2 SWAP1 SWAP2 ADD SWAP3 SWAP2 POP POP JUMP JUMPDEST PUSH1 0x20 DUP2 MSTORE PUSH1 0x0 DUP3 MLOAD DUP1 PUSH1 0x20 DUP5 ADD MSTORE PUSH2 0x5F48 DUP2 PUSH1 0x40 DUP6 ADD PUSH1 0x20 DUP8 ADD PUSH2 0x5EE9 JUMP JUMPDEST PUSH1 0x1F ADD PUSH1 0x1F NOT AND SWAP2 SWAP1 SWAP2 ADD PUSH1 0x40 ADD SWAP3 SWAP2 POP POP JUMP INVALID COINBASE PUSH5 0x6472657373 GASPRICE KECCAK256 PUSH13 0x6F772D6C6576656C2064656C65 PUSH8 0x6174652063616C6C KECCAK256 PUSH7 0x61696C6564A264 PUSH10 0x7066735822122060B0E9 NOT PUSH14 0x6241F316CB329E4441F60135A7F7 0xBB DUP16 DELEGATECALL 0xDF 0xC7 ORIGIN 0xD4 0xCE CALLDATASIZE DUP3 LOG2 0xE9 JUMPI PUSH5 0x736F6C6343 STOP ADDMOD GT STOP CALLER ","sha1":"3bced388b0ac495152c6b5d3fb07e2b8461a4cbe","source":"// SPDX-License-Identifier: GPL-3.0-or-later\npragma solidity 0.8.17;\n\nimport \"./BaseConicPool.sol\";\nimport \"../interfaces/IPoolAdapter.sol\";\n\ncontract ConicEthPool is BaseConicPool {\n    using EnumerableSet for EnumerableSet.AddressSet;\n    using ScaledMath for uint256;\n\n    constructor(\n        address _underlying,\n        IRewardManager _rewardManager,\n        address _controller,\n        string memory _lpTokenName,\n        string memory _symbol,\n        address _cvx,\n        address _crv\n    ) BaseConicPool(_underlying, _rewardManager, _controller, _lpTokenName, _symbol, _cvx, _crv) {}\n\n    function _updatePriceCache() internal override {\n        address[] memory underlyings = getAllUnderlyingCoins();\n        IOracle priceOracle_ = controller.priceOracle();\n        uint256 ethUsdPrice_ = priceOracle_.getUSDPrice(address(0));\n        for (uint256 i; i < underlyings.length; i++) {\n            address coin = underlyings[i];\n            uint256 priceInUsd_ = priceOracle_.getUSDPrice(coin);\n            _cachedPrices[coin] = priceInUsd_.divDown(ethUsdPrice_);\n        }\n    }\n\n    function _isAssetDepegged(address asset_) internal view override returns (bool) {\n        // ETH has no sense of peg per se, so always return false for it\n        if (asset_ == address(underlying)) return false;\n\n        uint256 cachedPrice_ = _cachedPrices[asset_];\n        IOracle priceOracle_ = controller.priceOracle();\n        uint256 ethUsdPrice_ = priceOracle_.getUSDPrice(address(0));\n        uint256 currentPriceUsd_ = priceOracle_.getUSDPrice(asset_);\n        uint256 currentPrice_ = currentPriceUsd_.divDown(ethUsdPrice_);\n        uint256 priceDiff_ = cachedPrice_.absSub(currentPrice_);\n        uint256 priceDiffPercent_ = priceDiff_.divDown(cachedPrice_);\n        return priceDiffPercent_ > depegThreshold;\n    }\n\n    function runSanityChecks() public override {\n        ICurveRegistryCache curveRegistryCache = controller.curveRegistryCache();\n        address[] memory pools = weightManager.allPools();\n        for (uint256 i; i < pools.length; i++) {\n            address pool_ = pools[i];\n            controller.poolAdapterFor(pool_).executeSanityCheck(pool_);\n            address basePool = curveRegistryCache.basePool(pool_);\n            if (basePool != address(0)) {\n                controller.poolAdapterFor(basePool).executeSanityCheck(basePool);\n            }\n        }\n    }\n}\n","sourcePath":"contracts/ConicEthPool.sol","type":"contract","deployment":{"address":"0x3367070ed152e2b715eef48D157685Cf496f3543","chainid":"1","blockHeight":19079112}}