{"abi":[{"inputs":[{"internalType":"contract IConicPool","name":"_conicPool","type":"address"}],"stateMutability":"nonpayable","type":"constructor","name":"constructor"},{"anonymous":false,"inputs":[{"indexed":true,"internalType":"address","name":"admin","type":"address"}],"name":"AdminAdded","type":"event"},{"anonymous":false,"inputs":[{"indexed":true,"internalType":"address","name":"admin","type":"address"}],"name":"AdminRemoved","type":"event"},{"anonymous":false,"inputs":[{"indexed":false,"internalType":"uint256","name":"oldExchangeRate","type":"uint256"},{"indexed":false,"internalType":"uint256","name":"newExchangeRate","type":"uint256"}],"name":"ExchangeRateUpdateExecuted","type":"event"},{"anonymous":false,"inputs":[{"indexed":false,"internalType":"uint256","name":"newExchangeRate","type":"uint256"}],"name":"ExchangeRateUpdateRequested","type":"event"},{"inputs":[{"internalType":"address","name":"admin","type":"address"}],"name":"addAdmin","outputs":[],"stateMutability":"nonpayable","type":"function"},{"inputs":[],"name":"conicPool","outputs":[{"internalType":"contract IConicPool","name":"","type":"address"}],"stateMutability":"view","type":"function"},{"inputs":[],"name":"exchangeRate","outputs":[{"internalType":"uint256","name":"","type":"uint256"}],"stateMutability":"view","type":"function"},{"inputs":[],"name":"executeExchangeRateUpdate","outputs":[],"stateMutability":"nonpayable","type":"function"},{"inputs":[],"name":"listAdmins","outputs":[{"internalType":"address[]","name":"admins","type":"address[]"}],"stateMutability":"view","type":"function"},{"inputs":[],"name":"lpToken","outputs":[{"internalType":"contract IERC20","name":"","type":"address"}],"stateMutability":"view","type":"function"},{"inputs":[],"name":"pendingExchangeRate","outputs":[{"internalType":"uint256","name":"","type":"uint256"}],"stateMutability":"view","type":"function"},{"inputs":[],"name":"pendingExchangeRateBlock","outputs":[{"internalType":"uint256","name":"","type":"uint256"}],"stateMutability":"view","type":"function"},{"inputs":[{"internalType":"address","name":"admin","type":"address"}],"name":"removeAdmin","outputs":[],"stateMutability":"nonpayable","type":"function"},{"inputs":[],"name":"requestExchangeRateUpdate","outputs":[],"stateMutability":"nonpayable","type":"function"}],"bytecode":"60c060405234801561001057600080fd5b50604051610aa7380380610aa783398101604081905261002f916101bd565b6001600160a01b038116608081905260408051635fcbd28560e01b81529051635fcbd285916004808201926020929091908290030181865afa158015610079573d6000803e3d6000fd5b505050506040513d601f19601f8201168201806040525081019061009d91906101bd565b6001600160a01b031660a0816001600160a01b031681525050806001600160a01b0316633ba0b9a96040518163ffffffff1660e01b8152600401602060405180830381865afa1580156100f4573d6000803e3d6000fd5b505050506040513d601f19601f8201168201806040525081019061011891906101e1565b600455610131600033610138602090811b61052817901c565b50506101fa565b600061014d836001600160a01b038416610156565b90505b92915050565b600081815260018301602052604081205461019d57508154600181810184556000848152602080822090930184905584548482528286019093526040902091909155610150565b506000610150565b6001600160a01b03811681146101ba57600080fd5b50565b6000602082840312156101cf57600080fd5b81516101da816101a5565b9392505050565b6000602082840312156101f357600080fd5b5051919050565b60805160a051610882610225600039600060ea01526000818161013c015261046601526108826000f3fe608060405234801561001057600080fd5b506004361061009e5760003560e01c8063704802751161006657806370480275146101245780637d59ce01146101375780638865f4501461015e578063a591afbe14610167578063da3e6e571461017c57600080fd5b80631785f53c146100a35780632f5755ca146100b85780633ba0b9a9146100c05780634e3c2861146100dc5780635fcbd285146100e5575b600080fd5b6100b66100b1366004610739565b610184565b005b6100b661026a565b6100c960045481565b6040519081526020015b60405180910390f35b6100c960035481565b61010c7f000000000000000000000000000000000000000000000000000000000000000081565b6040516001600160a01b0390911681526020016100d3565b6100b6610132366004610739565b6103bc565b61010c7f000000000000000000000000000000000000000000000000000000000000000081565b6100c960025481565b61016f61042a565b6040516100d39190610762565b6100b661043b565b61018f600033610546565b6101b45760405162461bcd60e51b81526004016101ab906107af565b60405180910390fd5b60016101c06000610568565b116102225760405162461bcd60e51b815260206004820152602c60248201527f436f6e69634c70546f6b656e4f7261636c653a2063616e6e6f742072656d6f7660448201526b32903630b9ba1030b236b4b760a11b60648201526084016101ab565b61022d600082610572565b15610267576040516001600160a01b038216907fa3b62bc36326052d97ea62d63c3d60308ed4c3ea8ac079dd8499f1e9c4f80c0f90600090a25b50565b610275600033610546565b6102915760405162461bcd60e51b81526004016101ab906107af565b6000600354116102ff5760405162461bcd60e51b815260206004820152603360248201527f436f6e69634c70546f6b656e4f7261636c653a206e6f2070656e64696e672065604482015272786368616e676520726174652075706461746560681b60648201526084016101ab565b60035443116103675760405162461bcd60e51b815260206004820152602e60248201527f436f6e69634c70546f6b656e4f7261636c653a2063616e6e6f7420657865637560448201526d746520726174652075706461746560901b60648201526084016101ab565b60048054600280549283905560009081905560035560408051828152602081018490529192917f6e6bee957b87f16ab1f2dcb1e057e74e1727e1dc725f2ac7c2e90524cc523a53910160405180910390a15050565b6103c7600033610546565b6103e35760405162461bcd60e51b81526004016101ab906107af565b6103ee600082610528565b15610267576040516001600160a01b038216907f44d6d25963f097ad14f29f06854a01f575648a1ef82f30e562ccd3889717e33990600090a250565b60606104366000610587565b905090565b610446600033610546565b6104625760405162461bcd60e51b81526004016101ab906107af565b60007f00000000000000000000000000000000000000000000000000000000000000006001600160a01b0316633ba0b9a96040518163ffffffff1660e01b8152600401602060405180830381865afa1580156104c2573d6000803e3d6000fd5b505050506040513d601f19601f820116820180604052508101906104e691906107e6565b6002819055436003556040518181529091507fd57312e1ad6159927304b2d7bb984da30303d5504923e7a937e91d8f1a87facf9060200160405180910390a150565b600061053d836001600160a01b03841661059b565b90505b92915050565b6001600160a01b0381166000908152600183016020526040812054151561053d565b6000610540825490565b600061053d836001600160a01b0384166105ea565b60606000610594836106dd565b9392505050565b60008181526001830160205260408120546105e257508154600181810184556000848152602080822090930184905584548482528286019093526040902091909155610540565b506000610540565b600081815260018301602052604081205480156106d357600061060e6001836107ff565b8554909150600090610622906001906107ff565b905081811461068757600086600001828154811061064257610642610820565b906000526020600020015490508087600001848154811061066557610665610820565b6000918252602080832090910192909255918252600188019052604090208390555b855486908061069857610698610836565b600190038181906000526020600020016000905590558560010160008681526020019081526020016000206000905560019350505050610540565b6000915050610540565b60608160000180548060200260200160405190810160405280929190818152602001828054801561072d57602002820191906000526020600020905b815481526020019060010190808311610719575b50505050509050919050565b60006020828403121561074b57600080fd5b81356001600160a01b038116811461059457600080fd5b6020808252825182820181905260009190848201906040850190845b818110156107a35783516001600160a01b03168352928401929184019160010161077e565b50909695505050505050565b6020808252601d908201527f436f6e69634c70546f6b656e4f7261636c653a20666f7262696464656e000000604082015260600190565b6000602082840312156107f857600080fd5b5051919050565b8181038181111561054057634e487b7160e01b600052601160045260246000fd5b634e487b7160e01b600052603260045260246000fd5b634e487b7160e01b600052603160045260246000fdfea2646970667358221220a8c21c5acdbfa6f8172f0c081ff56b1a9e46ed13158e0ead713f1c550229538b64736f6c63430008110033","bytecodeSha1":"880e9b6624509893d53cc3cdac990fccd9b4ff11","compiler":{"evm_version":"london","optimizer":{"enabled":true,"runs":200},"version":"0.8.17+commit.8df45f5f"},"contractName":"ConicLpTokenOracle","language":"Solidity","natspec":{"kind":"dev","methods":{"exchangeRate()":{"notice":"Price of the LP token in terms of underlying: `exchangeRate * LP = underlying`"}},"version":1},"opcodes":"PUSH1 0x80 PUSH1 0x40 MSTORE CALLVALUE DUP1 ISZERO PUSH2 0x10 JUMPI PUSH1 0x0 DUP1 REVERT JUMPDEST POP PUSH1 0x4 CALLDATASIZE LT PUSH2 0x9E JUMPI PUSH1 0x0 CALLDATALOAD PUSH1 0xE0 SHR DUP1 PUSH4 0x70480275 GT PUSH2 0x66 JUMPI DUP1 PUSH4 0x70480275 EQ PUSH2 0x124 JUMPI DUP1 PUSH4 0x7D59CE01 EQ PUSH2 0x137 JUMPI DUP1 PUSH4 0x8865F450 EQ PUSH2 0x15E JUMPI DUP1 PUSH4 0xA591AFBE EQ PUSH2 0x167 JUMPI DUP1 PUSH4 0xDA3E6E57 EQ PUSH2 0x17C JUMPI PUSH1 0x0 DUP1 REVERT JUMPDEST DUP1 PUSH4 0x1785F53C EQ PUSH2 0xA3 JUMPI DUP1 PUSH4 0x2F5755CA EQ PUSH2 0xB8 JUMPI DUP1 PUSH4 0x3BA0B9A9 EQ PUSH2 0xC0 JUMPI DUP1 PUSH4 0x4E3C2861 EQ PUSH2 0xDC JUMPI DUP1 PUSH4 0x5FCBD285 EQ PUSH2 0xE5 JUMPI JUMPDEST PUSH1 0x0 DUP1 REVERT JUMPDEST PUSH2 0xB6 PUSH2 0xB1 CALLDATASIZE PUSH1 0x4 PUSH2 0x739 JUMP JUMPDEST PUSH2 0x184 JUMP JUMPDEST STOP JUMPDEST PUSH2 0xB6 PUSH2 0x26A JUMP JUMPDEST PUSH2 0xC9 PUSH1 0x4 SLOAD DUP2 JUMP JUMPDEST PUSH1 0x40 MLOAD SWAP1 DUP2 MSTORE PUSH1 0x20 ADD JUMPDEST PUSH1 0x40 MLOAD DUP1 SWAP2 SUB SWAP1 RETURN JUMPDEST PUSH2 0xC9 PUSH1 0x3 SLOAD DUP2 JUMP JUMPDEST PUSH2 0x10C PUSH32 0x0 DUP2 JUMP JUMPDEST PUSH1 0x40 MLOAD PUSH1 0x1 PUSH1 0x1 PUSH1 0xA0 SHL SUB SWAP1 SWAP2 AND DUP2 MSTORE PUSH1 0x20 ADD PUSH2 0xD3 JUMP JUMPDEST PUSH2 0xB6 PUSH2 0x132 CALLDATASIZE PUSH1 0x4 PUSH2 0x739 JUMP JUMPDEST PUSH2 0x3BC JUMP JUMPDEST PUSH2 0x10C PUSH32 0x0 DUP2 JUMP JUMPDEST PUSH2 0xC9 PUSH1 0x2 SLOAD DUP2 JUMP JUMPDEST PUSH2 0x16F PUSH2 0x42A JUMP JUMPDEST PUSH1 0x40 MLOAD PUSH2 0xD3 SWAP2 SWAP1 PUSH2 0x762 JUMP JUMPDEST PUSH2 0xB6 PUSH2 0x43B JUMP JUMPDEST PUSH2 0x18F PUSH1 0x0 CALLER PUSH2 0x546 JUMP JUMPDEST PUSH2 0x1B4 JUMPI PUSH1 0x40 MLOAD PUSH3 0x461BCD PUSH1 0xE5 SHL DUP2 MSTORE PUSH1 0x4 ADD PUSH2 0x1AB SWAP1 PUSH2 0x7AF JUMP JUMPDEST PUSH1 0x40 MLOAD DUP1 SWAP2 SUB SWAP1 REVERT JUMPDEST PUSH1 0x1 PUSH2 0x1C0 PUSH1 0x0 PUSH2 0x568 JUMP JUMPDEST GT PUSH2 0x222 JUMPI PUSH1 0x40 MLOAD PUSH3 0x461BCD PUSH1 0xE5 SHL DUP2 MSTORE PUSH1 0x20 PUSH1 0x4 DUP3 ADD MSTORE PUSH1 0x2C PUSH1 0x24 DUP3 ADD MSTORE PUSH32 0x436F6E69634C70546F6B656E4F7261636C653A2063616E6E6F742072656D6F76 PUSH1 0x44 DUP3 ADD MSTORE PUSH12 0x32903630B9BA1030B236B4B7 PUSH1 0xA1 SHL PUSH1 0x64 DUP3 ADD MSTORE PUSH1 0x84 ADD PUSH2 0x1AB JUMP JUMPDEST PUSH2 0x22D PUSH1 0x0 DUP3 PUSH2 0x572 JUMP JUMPDEST ISZERO PUSH2 0x267 JUMPI PUSH1 0x40 MLOAD PUSH1 0x1 PUSH1 0x1 PUSH1 0xA0 SHL SUB DUP3 AND SWAP1 PUSH32 0xA3B62BC36326052D97EA62D63C3D60308ED4C3EA8AC079DD8499F1E9C4F80C0F SWAP1 PUSH1 0x0 SWAP1 LOG2 JUMPDEST POP JUMP JUMPDEST PUSH2 0x275 PUSH1 0x0 CALLER PUSH2 0x546 JUMP JUMPDEST PUSH2 0x291 JUMPI PUSH1 0x40 MLOAD PUSH3 0x461BCD PUSH1 0xE5 SHL DUP2 MSTORE PUSH1 0x4 ADD PUSH2 0x1AB SWAP1 PUSH2 0x7AF JUMP JUMPDEST PUSH1 0x0 PUSH1 0x3 SLOAD GT PUSH2 0x2FF JUMPI PUSH1 0x40 MLOAD PUSH3 0x461BCD PUSH1 0xE5 SHL DUP2 MSTORE PUSH1 0x20 PUSH1 0x4 DUP3 ADD MSTORE PUSH1 0x33 PUSH1 0x24 DUP3 ADD MSTORE PUSH32 0x436F6E69634C70546F6B656E4F7261636C653A206E6F2070656E64696E672065 PUSH1 0x44 DUP3 ADD MSTORE PUSH19 0x786368616E6765207261746520757064617465 PUSH1 0x68 SHL PUSH1 0x64 DUP3 ADD MSTORE PUSH1 0x84 ADD PUSH2 0x1AB JUMP JUMPDEST PUSH1 0x3 SLOAD NUMBER GT PUSH2 0x367 JUMPI PUSH1 0x40 MLOAD PUSH3 0x461BCD PUSH1 0xE5 SHL DUP2 MSTORE PUSH1 0x20 PUSH1 0x4 DUP3 ADD MSTORE PUSH1 0x2E PUSH1 0x24 DUP3 ADD MSTORE PUSH32 0x436F6E69634C70546F6B656E4F7261636C653A2063616E6E6F74206578656375 PUSH1 0x44 DUP3 ADD MSTORE PUSH14 0x7465207261746520757064617465 PUSH1 0x90 SHL PUSH1 0x64 DUP3 ADD MSTORE PUSH1 0x84 ADD PUSH2 0x1AB JUMP JUMPDEST PUSH1 0x4 DUP1 SLOAD PUSH1 0x2 DUP1 SLOAD SWAP3 DUP4 SWAP1 SSTORE PUSH1 0x0 SWAP1 DUP2 SWAP1 SSTORE PUSH1 0x3 SSTORE PUSH1 0x40 DUP1 MLOAD DUP3 DUP2 MSTORE PUSH1 0x20 DUP2 ADD DUP5 SWAP1 MSTORE SWAP2 SWAP3 SWAP2 PUSH32 0x6E6BEE957B87F16AB1F2DCB1E057E74E1727E1DC725F2AC7C2E90524CC523A53 SWAP2 ADD PUSH1 0x40 MLOAD DUP1 SWAP2 SUB SWAP1 LOG1 POP POP JUMP JUMPDEST PUSH2 0x3C7 PUSH1 0x0 CALLER PUSH2 0x546 JUMP JUMPDEST PUSH2 0x3E3 JUMPI PUSH1 0x40 MLOAD PUSH3 0x461BCD PUSH1 0xE5 SHL DUP2 MSTORE PUSH1 0x4 ADD PUSH2 0x1AB SWAP1 PUSH2 0x7AF JUMP JUMPDEST PUSH2 0x3EE PUSH1 0x0 DUP3 PUSH2 0x528 JUMP JUMPDEST ISZERO PUSH2 0x267 JUMPI PUSH1 0x40 MLOAD PUSH1 0x1 PUSH1 0x1 PUSH1 0xA0 SHL SUB DUP3 AND SWAP1 PUSH32 0x44D6D25963F097AD14F29F06854A01F575648A1EF82F30E562CCD3889717E339 SWAP1 PUSH1 0x0 SWAP1 LOG2 POP JUMP JUMPDEST PUSH1 0x60 PUSH2 0x436 PUSH1 0x0 PUSH2 0x587 JUMP JUMPDEST SWAP1 POP SWAP1 JUMP JUMPDEST PUSH2 0x446 PUSH1 0x0 CALLER PUSH2 0x546 JUMP JUMPDEST PUSH2 0x462 JUMPI PUSH1 0x40 MLOAD PUSH3 0x461BCD PUSH1 0xE5 SHL DUP2 MSTORE PUSH1 0x4 ADD PUSH2 0x1AB SWAP1 PUSH2 0x7AF JUMP JUMPDEST PUSH1 0x0 PUSH32 0x0 PUSH1 0x1 PUSH1 0x1 PUSH1 0xA0 SHL SUB AND PUSH4 0x3BA0B9A9 PUSH1 0x40 MLOAD DUP2 PUSH4 0xFFFFFFFF AND PUSH1 0xE0 SHL DUP2 MSTORE PUSH1 0x4 ADD PUSH1 0x20 PUSH1 0x40 MLOAD DUP1 DUP4 SUB DUP2 DUP7 GAS STATICCALL ISZERO DUP1 ISZERO PUSH2 0x4C2 JUMPI RETURNDATASIZE PUSH1 0x0 DUP1 RETURNDATACOPY RETURNDATASIZE PUSH1 0x0 REVERT JUMPDEST POP POP POP POP PUSH1 0x40 MLOAD RETURNDATASIZE PUSH1 0x1F NOT PUSH1 0x1F DUP3 ADD AND DUP3 ADD DUP1 PUSH1 0x40 MSTORE POP DUP2 ADD SWAP1 PUSH2 0x4E6 SWAP2 SWAP1 PUSH2 0x7E6 JUMP JUMPDEST PUSH1 0x2 DUP2 SWAP1 SSTORE NUMBER PUSH1 0x3 SSTORE PUSH1 0x40 MLOAD DUP2 DUP2 MSTORE SWAP1 SWAP2 POP PUSH32 0xD57312E1AD6159927304B2D7BB984DA30303D5504923E7A937E91D8F1A87FACF SWAP1 PUSH1 0x20 ADD PUSH1 0x40 MLOAD DUP1 SWAP2 SUB SWAP1 LOG1 POP JUMP JUMPDEST PUSH1 0x0 PUSH2 0x53D DUP4 PUSH1 0x1 PUSH1 0x1 PUSH1 0xA0 SHL SUB DUP5 AND PUSH2 0x59B JUMP JUMPDEST SWAP1 POP JUMPDEST SWAP3 SWAP2 POP POP JUMP JUMPDEST PUSH1 0x1 PUSH1 0x1 PUSH1 0xA0 SHL SUB DUP2 AND PUSH1 0x0 SWAP1 DUP2 MSTORE PUSH1 0x1 DUP4 ADD PUSH1 0x20 MSTORE PUSH1 0x40 DUP2 KECCAK256 SLOAD ISZERO ISZERO PUSH2 0x53D JUMP JUMPDEST PUSH1 0x0 PUSH2 0x540 DUP3 SLOAD SWAP1 JUMP JUMPDEST PUSH1 0x0 PUSH2 0x53D DUP4 PUSH1 0x1 PUSH1 0x1 PUSH1 0xA0 SHL SUB DUP5 AND PUSH2 0x5EA JUMP JUMPDEST PUSH1 0x60 PUSH1 0x0 PUSH2 0x594 DUP4 PUSH2 0x6DD JUMP JUMPDEST SWAP4 SWAP3 POP POP POP JUMP JUMPDEST PUSH1 0x0 DUP2 DUP2 MSTORE PUSH1 0x1 DUP4 ADD PUSH1 0x20 MSTORE PUSH1 0x40 DUP2 KECCAK256 SLOAD PUSH2 0x5E2 JUMPI POP DUP2 SLOAD PUSH1 0x1 DUP2 DUP2 ADD DUP5 SSTORE PUSH1 0x0 DUP5 DUP2 MSTORE PUSH1 0x20 DUP1 DUP3 KECCAK256 SWAP1 SWAP4 ADD DUP5 SWAP1 SSTORE DUP5 SLOAD DUP5 DUP3 MSTORE DUP3 DUP7 ADD SWAP1 SWAP4 MSTORE PUSH1 0x40 SWAP1 KECCAK256 SWAP2 SWAP1 SWAP2 SSTORE PUSH2 0x540 JUMP JUMPDEST POP PUSH1 0x0 PUSH2 0x540 JUMP JUMPDEST PUSH1 0x0 DUP2 DUP2 MSTORE PUSH1 0x1 DUP4 ADD PUSH1 0x20 MSTORE PUSH1 0x40 DUP2 KECCAK256 SLOAD DUP1 ISZERO PUSH2 0x6D3 JUMPI PUSH1 0x0 PUSH2 0x60E PUSH1 0x1 DUP4 PUSH2 0x7FF JUMP JUMPDEST DUP6 SLOAD SWAP1 SWAP2 POP PUSH1 0x0 SWAP1 PUSH2 0x622 SWAP1 PUSH1 0x1 SWAP1 PUSH2 0x7FF JUMP JUMPDEST SWAP1 POP DUP2 DUP2 EQ PUSH2 0x687 JUMPI PUSH1 0x0 DUP7 PUSH1 0x0 ADD DUP3 DUP2 SLOAD DUP2 LT PUSH2 0x642 JUMPI PUSH2 0x642 PUSH2 0x820 JUMP JUMPDEST SWAP1 PUSH1 0x0 MSTORE PUSH1 0x20 PUSH1 0x0 KECCAK256 ADD SLOAD SWAP1 POP DUP1 DUP8 PUSH1 0x0 ADD DUP5 DUP2 SLOAD DUP2 LT PUSH2 0x665 JUMPI PUSH2 0x665 PUSH2 0x820 JUMP JUMPDEST PUSH1 0x0 SWAP2 DUP3 MSTORE PUSH1 0x20 DUP1 DUP4 KECCAK256 SWAP1 SWAP2 ADD SWAP3 SWAP1 SWAP3 SSTORE SWAP2 DUP3 MSTORE PUSH1 0x1 DUP9 ADD SWAP1 MSTORE PUSH1 0x40 SWAP1 KECCAK256 DUP4 SWAP1 SSTORE JUMPDEST DUP6 SLOAD DUP7 SWAP1 DUP1 PUSH2 0x698 JUMPI PUSH2 0x698 PUSH2 0x836 JUMP JUMPDEST PUSH1 0x1 SWAP1 SUB DUP2 DUP2 SWAP1 PUSH1 0x0 MSTORE PUSH1 0x20 PUSH1 0x0 KECCAK256 ADD PUSH1 0x0 SWAP1 SSTORE SWAP1 SSTORE DUP6 PUSH1 0x1 ADD PUSH1 0x0 DUP7 DUP2 MSTORE PUSH1 0x20 ADD SWAP1 DUP2 MSTORE PUSH1 0x20 ADD PUSH1 0x0 KECCAK256 PUSH1 0x0 SWAP1 SSTORE PUSH1 0x1 SWAP4 POP POP POP POP PUSH2 0x540 JUMP JUMPDEST PUSH1 0x0 SWAP2 POP POP PUSH2 0x540 JUMP JUMPDEST PUSH1 0x60 DUP2 PUSH1 0x0 ADD DUP1 SLOAD DUP1 PUSH1 0x20 MUL PUSH1 0x20 ADD PUSH1 0x40 MLOAD SWAP1 DUP2 ADD PUSH1 0x40 MSTORE DUP1 SWAP3 SWAP2 SWAP1 DUP2 DUP2 MSTORE PUSH1 0x20 ADD DUP3 DUP1 SLOAD DUP1 ISZERO PUSH2 0x72D JUMPI PUSH1 0x20 MUL DUP3 ADD SWAP2 SWAP1 PUSH1 0x0 MSTORE PUSH1 0x20 PUSH1 0x0 KECCAK256 SWAP1 JUMPDEST DUP2 SLOAD DUP2 MSTORE PUSH1 0x20 ADD SWAP1 PUSH1 0x1 ADD SWAP1 DUP1 DUP4 GT PUSH2 0x719 JUMPI JUMPDEST POP POP POP POP POP SWAP1 POP SWAP2 SWAP1 POP JUMP JUMPDEST PUSH1 0x0 PUSH1 0x20 DUP3 DUP5 SUB SLT ISZERO PUSH2 0x74B JUMPI PUSH1 0x0 DUP1 REVERT JUMPDEST DUP2 CALLDATALOAD PUSH1 0x1 PUSH1 0x1 PUSH1 0xA0 SHL SUB DUP2 AND DUP2 EQ PUSH2 0x594 JUMPI PUSH1 0x0 DUP1 REVERT JUMPDEST PUSH1 0x20 DUP1 DUP3 MSTORE DUP3 MLOAD DUP3 DUP3 ADD DUP2 SWAP1 MSTORE PUSH1 0x0 SWAP2 SWAP1 DUP5 DUP3 ADD SWAP1 PUSH1 0x40 DUP6 ADD SWAP1 DUP5 JUMPDEST DUP2 DUP2 LT ISZERO PUSH2 0x7A3 JUMPI DUP4 MLOAD PUSH1 0x1 PUSH1 0x1 PUSH1 0xA0 SHL SUB AND DUP4 MSTORE SWAP3 DUP5 ADD SWAP3 SWAP2 DUP5 ADD SWAP2 PUSH1 0x1 ADD PUSH2 0x77E JUMP JUMPDEST POP SWAP1 SWAP7 SWAP6 POP POP POP POP POP POP JUMP JUMPDEST PUSH1 0x20 DUP1 DUP3 MSTORE PUSH1 0x1D SWAP1 DUP3 ADD MSTORE PUSH32 0x436F6E69634C70546F6B656E4F7261636C653A20666F7262696464656E000000 PUSH1 0x40 DUP3 ADD MSTORE PUSH1 0x60 ADD SWAP1 JUMP JUMPDEST PUSH1 0x0 PUSH1 0x20 DUP3 DUP5 SUB SLT ISZERO PUSH2 0x7F8 JUMPI PUSH1 0x0 DUP1 REVERT JUMPDEST POP MLOAD SWAP2 SWAP1 POP JUMP JUMPDEST DUP2 DUP2 SUB DUP2 DUP2 GT ISZERO PUSH2 0x540 JUMPI PUSH4 0x4E487B71 PUSH1 0xE0 SHL PUSH1 0x0 MSTORE PUSH1 0x11 PUSH1 0x4 MSTORE PUSH1 0x24 PUSH1 0x0 REVERT JUMPDEST PUSH4 0x4E487B71 PUSH1 0xE0 SHL PUSH1 0x0 MSTORE PUSH1 0x32 PUSH1 0x4 MSTORE PUSH1 0x24 PUSH1 0x0 REVERT JUMPDEST PUSH4 0x4E487B71 PUSH1 0xE0 SHL PUSH1 0x0 MSTORE PUSH1 0x31 PUSH1 0x4 MSTORE PUSH1 0x24 PUSH1 0x0 REVERT INVALID LOG2 PUSH5 0x6970667358 0x22 SLT KECCAK256 0xA8 0xC2 SHR GAS 0xCD 0xBF 0xA6 0xF8 OR 0x2F 0xC ADDMOD 0x1F CREATE2 PUSH12 0x1A9E46ED13158E0EAD713F1C SSTORE MUL 0x29 MSTORE8 DUP12 PUSH5 0x736F6C6343 STOP ADDMOD GT STOP CALLER ","sha1":"1db369587d743b779dd43f5177fd927b4b5fb869","source":"// SPDX-License-Identifier: GPL-3.0-or-later\npragma solidity 0.8.17;\n\nimport \"@openzeppelin/contracts/access/Ownable.sol\";\nimport \"@openzeppelin/contracts/utils/structs/EnumerableSet.sol\";\n\nimport \"../../interfaces/pools/IConicPool.sol\";\n\ncontract ConicLpTokenOracle {\n    using EnumerableSet for EnumerableSet.AddressSet;\n\n    event ExchangeRateUpdateRequested(uint256 newExchangeRate);\n    event ExchangeRateUpdateExecuted(uint256 oldExchangeRate, uint256 newExchangeRate);\n    event AdminAdded(address indexed admin);\n    event AdminRemoved(address indexed admin);\n\n    EnumerableSet.AddressSet internal _admins;\n\n    IConicPool public immutable conicPool;\n    IERC20 public immutable lpToken;\n\n    uint256 public pendingExchangeRate;\n    uint256 public pendingExchangeRateBlock;\n\n    /// @notice Price of the LP token in terms of underlying: `exchangeRate * LP = underlying`\n    uint256 public exchangeRate;\n\n    modifier onlyAdmin() {\n        require(_admins.contains(msg.sender), \"ConicLpTokenOracle: forbidden\");\n        _;\n    }\n\n    constructor(IConicPool _conicPool) {\n        conicPool = _conicPool;\n        lpToken = _conicPool.lpToken();\n        exchangeRate = _conicPool.exchangeRate();\n        _admins.add(msg.sender);\n    }\n\n    function requestExchangeRateUpdate() external onlyAdmin {\n        uint256 currentExchangeRate = conicPool.exchangeRate();\n        pendingExchangeRate = currentExchangeRate;\n        pendingExchangeRateBlock = block.number;\n        emit ExchangeRateUpdateRequested(currentExchangeRate);\n    }\n\n    function executeExchangeRateUpdate() external onlyAdmin {\n        require(\n            pendingExchangeRateBlock > 0,\n            \"ConicLpTokenOracle: no pending exchange rate update\"\n        );\n        require(\n            block.number > pendingExchangeRateBlock,\n            \"ConicLpTokenOracle: cannot execute rate update\"\n        );\n        uint256 oldExchangeRate = exchangeRate;\n        uint256 newExchangeRate = pendingExchangeRate;\n        exchangeRate = newExchangeRate;\n        pendingExchangeRate = 0;\n        pendingExchangeRateBlock = 0;\n        emit ExchangeRateUpdateExecuted(oldExchangeRate, newExchangeRate);\n    }\n\n    function addAdmin(address admin) external onlyAdmin {\n        if (_admins.add(admin)) emit AdminAdded(admin);\n    }\n\n    function removeAdmin(address admin) external onlyAdmin {\n        require(_admins.length() > 1, \"ConicLpTokenOracle: cannot remove last admin\");\n        if (_admins.remove(admin)) emit AdminRemoved(admin);\n    }\n\n    function listAdmins() external view returns (address[] memory admins) {\n        return _admins.values();\n    }\n}\n","sourcePath":"contracts/oracles/ConicLpTokenOracle.sol","type":"contract","deployment":{"address":"0x364E5736D9ff2d3C2Fb3F8ecCD33D97bb4D210BB","chainid":"1","blockHeight":19120268}}