{"abi":[{"inputs":[{"internalType":"address","name":"_controller","type":"address"},{"internalType":"address","name":"_pool","type":"address"},{"internalType":"address","name":"_lpToken","type":"address"},{"internalType":"address","name":"_underlying","type":"address"},{"internalType":"address","name":"cncLocker","type":"address"}],"stateMutability":"nonpayable","type":"constructor","name":"constructor"},{"anonymous":false,"inputs":[{"indexed":false,"internalType":"uint256","name":"claimedCrv","type":"uint256"},{"indexed":false,"internalType":"uint256","name":"claimedCvx","type":"uint256"}],"name":"ClaimedRewards","type":"event"},{"anonymous":false,"inputs":[{"indexed":true,"internalType":"address","name":"claimedBy","type":"address"},{"indexed":false,"internalType":"uint256","name":"cncEarned","type":"uint256"},{"indexed":false,"internalType":"uint256","name":"crvEarned","type":"uint256"},{"indexed":false,"internalType":"uint256","name":"cvxEarned","type":"uint256"}],"name":"EarningsClaimed","type":"event"},{"anonymous":false,"inputs":[{"indexed":false,"internalType":"address","name":"reward","type":"address"}],"name":"ExtraRewardAdded","type":"event"},{"anonymous":false,"inputs":[{"indexed":false,"internalType":"address","name":"reward","type":"address"}],"name":"ExtraRewardRemoved","type":"event"},{"anonymous":false,"inputs":[{"indexed":false,"internalType":"address","name":"extraReward","type":"address"},{"indexed":false,"internalType":"address","name":"curvePool","type":"address"}],"name":"ExtraRewardsCurvePoolSet","type":"event"},{"anonymous":false,"inputs":[{"indexed":false,"internalType":"uint256","name":"feePercentage","type":"uint256"}],"name":"FeesEnabled","type":"event"},{"anonymous":false,"inputs":[{"indexed":false,"internalType":"uint256","name":"feePercentage","type":"uint256"}],"name":"FeesSet","type":"event"},{"anonymous":false,"inputs":[{"indexed":true,"internalType":"address","name":"previousOwner","type":"address"},{"indexed":true,"internalType":"address","name":"newOwner","type":"address"}],"name":"OwnershipTransferred","type":"event"},{"anonymous":false,"inputs":[{"indexed":false,"internalType":"uint256","name":"targetTokenReceived","type":"uint256"}],"name":"SoldRewardTokens","type":"event"},{"inputs":[],"name":"CNC","outputs":[{"internalType":"contract IERC20","name":"","type":"address"}],"stateMutability":"view","type":"function"},{"inputs":[],"name":"CNC_ETH_POOL","outputs":[{"internalType":"contract ICurvePoolV2","name":"","type":"address"}],"stateMutability":"view","type":"function"},{"inputs":[],"name":"CRV","outputs":[{"internalType":"contract IERC20","name":"","type":"address"}],"stateMutability":"view","type":"function"},{"inputs":[],"name":"CVX","outputs":[{"internalType":"contract IERC20","name":"","type":"address"}],"stateMutability":"view","type":"function"},{"inputs":[],"name":"MAX_FEE_PERCENTAGE","outputs":[{"internalType":"uint256","name":"","type":"uint256"}],"stateMutability":"view","type":"function"},{"inputs":[],"name":"SLIPPAGE_THRESHOLD","outputs":[{"internalType":"uint256","name":"","type":"uint256"}],"stateMutability":"view","type":"function"},{"inputs":[],"name":"SUSHISWAP","outputs":[{"internalType":"contract UniswapRouter02","name":"","type":"address"}],"stateMutability":"view","type":"function"},{"inputs":[],"name":"WETH","outputs":[{"internalType":"contract IERC20","name":"","type":"address"}],"stateMutability":"view","type":"function"},{"inputs":[{"internalType":"address","name":"account","type":"address"}],"name":"accountCheckpoint","outputs":[],"stateMutability":"nonpayable","type":"function"},{"inputs":[{"internalType":"address[]","name":"_rewards","type":"address[]"}],"name":"addBatchExtraRewards","outputs":[],"stateMutability":"nonpayable","type":"function"},{"inputs":[{"internalType":"address","name":"reward","type":"address"}],"name":"addExtraReward","outputs":[{"internalType":"bool","name":"","type":"bool"}],"stateMutability":"nonpayable","type":"function"},{"inputs":[],"name":"claimEarnings","outputs":[{"internalType":"uint256","name":"","type":"uint256"},{"internalType":"uint256","name":"","type":"uint256"},{"internalType":"uint256","name":"","type":"uint256"}],"stateMutability":"nonpayable","type":"function"},{"inputs":[],"name":"claimPoolEarningsAndSellRewardTokens","outputs":[],"stateMutability":"nonpayable","type":"function"},{"inputs":[{"internalType":"address","name":"account","type":"address"}],"name":"claimableRewards","outputs":[{"internalType":"uint256","name":"cncRewards","type":"uint256"},{"internalType":"uint256","name":"crvRewards","type":"uint256"},{"internalType":"uint256","name":"cvxRewards","type":"uint256"}],"stateMutability":"view","type":"function"},{"inputs":[],"name":"controller","outputs":[{"internalType":"contract IController","name":"","type":"address"}],"stateMutability":"view","type":"function"},{"inputs":[{"internalType":"address","name":"","type":"address"}],"name":"extraRewardsCurvePool","outputs":[{"internalType":"address","name":"","type":"address"}],"stateMutability":"view","type":"function"},{"inputs":[],"name":"feePercentage","outputs":[{"internalType":"uint256","name":"","type":"uint256"}],"stateMutability":"view","type":"function"},{"inputs":[],"name":"feesEnabled","outputs":[{"internalType":"bool","name":"","type":"bool"}],"stateMutability":"view","type":"function"},{"inputs":[],"name":"listExtraRewards","outputs":[{"internalType":"address[]","name":"","type":"address[]"}],"stateMutability":"view","type":"function"},{"inputs":[],"name":"locker","outputs":[{"internalType":"contract ICNCLockerV2","name":"","type":"address"}],"stateMutability":"view","type":"function"},{"inputs":[],"name":"lpToken","outputs":[{"internalType":"contract ILpToken","name":"","type":"address"}],"stateMutability":"view","type":"function"},{"inputs":[],"name":"owner","outputs":[{"internalType":"address","name":"","type":"address"}],"stateMutability":"view","type":"function"},{"inputs":[],"name":"pool","outputs":[{"internalType":"address","name":"","type":"address"}],"stateMutability":"view","type":"function"},{"inputs":[],"name":"poolCheckpoint","outputs":[{"internalType":"bool","name":"","type":"bool"}],"stateMutability":"nonpayable","type":"function"},{"inputs":[{"internalType":"address","name":"tokenAddress","type":"address"}],"name":"removeExtraReward","outputs":[],"stateMutability":"nonpayable","type":"function"},{"inputs":[],"name":"renounceOwnership","outputs":[],"stateMutability":"nonpayable","type":"function"},{"inputs":[{"internalType":"address","name":"extraReward_","type":"address"},{"internalType":"address","name":"curvePool_","type":"address"}],"name":"setExtraRewardsCurvePool","outputs":[],"stateMutability":"nonpayable","type":"function"},{"inputs":[{"internalType":"uint256","name":"_feePercentage","type":"uint256"}],"name":"setFeePercentage","outputs":[],"stateMutability":"nonpayable","type":"function"},{"inputs":[{"internalType":"address","name":"newOwner","type":"address"}],"name":"transferOwnership","outputs":[],"stateMutability":"nonpayable","type":"function"},{"inputs":[],"name":"underlying","outputs":[{"internalType":"contract IERC20","name":"","type":"address"}],"stateMutability":"view","type":"function"}],"bytecode":"6101206040523480156200001257600080fd5b5060405162004b8338038062004b838339810160408190526200003591620004fc565b6200004033620000ba565b6001600160a01b0384811660805283811660a05282811660c052851660e052620000a273c02aaa39b223fe8d0a0e5c4f27ead9083c756cc273838af967537350d2c44abb8c010e49e32673ab946000196200010a602090811b62001aa417901c565b6001600160a01b031661010052506200062a92505050565b600080546001600160a01b038381166001600160a01b0319831681178455604051919092169283917f8be0079c531659141344cd1fd0a4f28419497f9722a3daafe3b4186f6b6457e09190a35050565b801580620001885750604051636eb1769f60e11b81523060048201526001600160a01b03838116602483015284169063dd62ed3e90604401602060405180830381865afa15801562000160573d6000803e3d6000fd5b505050506040513d601f19601f820116820180604052508101906200018691906200056c565b155b620002005760405162461bcd60e51b815260206004820152603660248201527f5361666545524332303a20617070726f76652066726f6d206e6f6e2d7a65726f60448201527f20746f206e6f6e2d7a65726f20616c6c6f77616e63650000000000000000000060648201526084015b60405180910390fd5b604080516001600160a01b038416602482015260448082018490528251808303909101815260649091019091526020810180516001600160e01b0390811663095ea7b360e01b17909152620002589185916200025d16565b505050565b6000620002b9826040518060400160405280602081526020017f5361666545524332303a206c6f772d6c6576656c2063616c6c206661696c6564815250856001600160a01b03166200033b60201b62001bf1179092919060201c565b805190915015620002585780806020019051810190620002da919062000586565b620002585760405162461bcd60e51b815260206004820152602a60248201527f5361666545524332303a204552433230206f7065726174696f6e20646964206e6044820152691bdd081cdd58d8d9595960b21b6064820152608401620001f7565b60606200034c848460008562000354565b949350505050565b606082471015620003b75760405162461bcd60e51b815260206004820152602660248201527f416464726573733a20696e73756666696369656e742062616c616e636520666f6044820152651c8818d85b1b60d21b6064820152608401620001f7565b600080866001600160a01b03168587604051620003d59190620005d7565b60006040518083038185875af1925050503d806000811462000414576040519150601f19603f3d011682016040523d82523d6000602084013e62000419565b606091505b5090925090506200042d8783838762000438565b979650505050505050565b60608315620004ac578251600003620004a4576001600160a01b0385163b620004a45760405162461bcd60e51b815260206004820152601d60248201527f416464726573733a2063616c6c20746f206e6f6e2d636f6e74726163740000006044820152606401620001f7565b50816200034c565b6200034c8383815115620004c35781518083602001fd5b8060405162461bcd60e51b8152600401620001f79190620005f5565b80516001600160a01b0381168114620004f757600080fd5b919050565b600080600080600060a086880312156200051557600080fd5b6200052086620004df565b94506200053060208701620004df565b93506200054060408701620004df565b92506200055060608701620004df565b91506200056060808701620004df565b90509295509295909350565b6000602082840312156200057f57600080fd5b5051919050565b6000602082840312156200059957600080fd5b81518015158114620005aa57600080fd5b9392505050565b60005b83811015620005ce578181015183820152602001620005b4565b50506000910152565b60008251620005eb818460208701620005b1565b9190910192915050565b602081526000825180602084015262000616816040850160208701620005b1565b601f01601f19169190910160400192915050565b60805160a05160c05160e051610100516143af620007d4600039600081816103f201528181610b1701528181610b5601528181610b9801526110fa0152600081816104a2015281816105fa015281816107c101528181610de9015281816115a80152818161170b0152818161184901528181611ffd015281816122f101528181612558015281816126b201528181612a0b01528181612c4a015281816133f701526138f60152600081816102f70152610cb1015260006102a00152600081816101f9015281816108580152818161093d015281816109e401528181610a9701528181610ad701528181610d530152818161127a0152818161131e015281816113c3015281816114f80152818161153801528181611578015281816117a2015281816118e001528181611c6c01528181611d0501528181611d9a01528181611eb401528181611f5f01528181612094015281816121ae0152818161225701528181612388015281816125ef01528181612a9101528181612b1901528181612bb901528181612cdd01528181612d6301528181612de601528181612e93015261383201526143af6000f3fe608060405234801561001057600080fd5b50600436106101da5760003560e01c8063a001ecdd11610104578063d9ceab13116100a2578063e846500911610071578063e84650091461047b578063f2fde38b1461048a578063f77c47911461049d578063fe09d54d146104c457600080fd5b8063d9ceab1314610414578063d9e65ced14610437578063dc01f60d14610460578063e77061831461047357600080fd5b8063ad5c4648116100de578063ad5c4648146103ac578063ae06c1b7146103c7578063bf928f8b146103da578063d7b96d4e146103ed57600080fd5b8063a001ecdd14610383578063a64e4f8a1461038c578063a80ff90a1461039957600080fd5b8063632473da1161017c578063759cb53b1161014b578063759cb53b146103215780638da5cb5b1461033c578063945c91421461034d5780639c708aab1461036857600080fd5b8063632473da146102c25780636dc47e1e146102dd5780636f307dc3146102f2578063715018a61461031957600080fd5b8063558e44d3116101b8578063558e44d3146102535780635790a0c8146102705780635e43c47b146102885780635fcbd2851461029b57600080fd5b806303950fb5146101df57806316f0115b146101f45780634955670914610238575b600080fd5b6101f26101ed366004613cec565b6104d7565b005b61021b7f000000000000000000000000000000000000000000000000000000000000000081565b6040516001600160a01b0390911681526020015b60405180910390f35b61021b73838af967537350d2c44abb8c010e49e32673ab9481565b610262670429d069189e000081565b60405190815260200161022f565b6102786105f5565b604051901515815260200161022f565b610278610296366004613d25565b610c0c565b61021b7f000000000000000000000000000000000000000000000000000000000000000081565b61021b739ae380f0272e2162340a5bb646c354271c0f5cfc81565b6102e561100b565b60405161022f9190613d86565b61021b7f000000000000000000000000000000000000000000000000000000000000000081565b6101f261101c565b61021b734e3fbd56cd56c3e72c1403e103b45db9da5b9d2b81565b6000546001600160a01b031661021b565b61021b73d533a949740bb3306d119cc777fa900ba034cd5281565b61021b73d9e1ce17f2641f24ae83637ab66a2cca9c378b9f81565b61026260065481565b6005546102789060ff1681565b6101f26103a7366004613d25565b611030565b61021b73c02aaa39b223fe8d0a0e5c4f27ead9083c756cc281565b6101f26103d5366004613d99565b611084565b6101f26103e8366004613d25565b6111c8565b61021b7f000000000000000000000000000000000000000000000000000000000000000081565b61041c6111d4565b6040805193845260208401929092529082015260600161022f565b61021b610445366004613d25565b6003602052600090815260409020546001600160a01b031681565b61041c61046e366004613d25565b611703565b6101f26119cd565b610262670d2f13f7789f000081565b6101f2610498366004613d25565b6119e1565b61021b7f000000000000000000000000000000000000000000000000000000000000000081565b6101f26104d2366004613e1d565b611a57565b6104df611c0a565b6001600160a01b038083166000908152600360205260409020548116908216036105505760405162461bcd60e51b815260206004820152601c60248201527f6d75737420626520646966666572656e7420746f2063757272656e740000000060448201526064015b60405180910390fd5b6001600160a01b0381161561058a576105746001600160a01b038316826000611aa4565b61058a6001600160a01b03831682600019611aa4565b6001600160a01b0382811660008181526003602090815260409182902080546001600160a01b031916948616948517905581519283528201929092527f8c529c22babad500cea1516422f2bf23f6e1e7fab884b816062d20a9a0f78fef910160405180910390a15050565b6000807f00000000000000000000000000000000000000000000000000000000000000006001600160a01b031663b050ecb86040518163ffffffff1660e01b8152600401602060405180830381865afa158015610656573d6000803e3d6000fd5b505050506040513d601f19601f8201168201806040525081019061067a9190613ebc565b9050600080600061068a84611c64565b6231b93b60e91b600090815260046020527fe435d5a83a779cf6192c429679f3e210b1ef61729756a280ca43f6042e409374549396509194509250906106d09085613eef565b620c6ecf60eb1b600090815260046020527f31e16c83f2524a334424f1d58f96614d72f11901dd6699c42d38f67c2a9eb5cd54919250906107119085613eef565b62636e6360e81b600090815260046020527f6e39c77d7cf74a2ee020f0dce55b9495c576676d5cf0f00f7768f97036ef0c7c54919250906107529085613eef565b600554909150600090819060ff16156107bd57600654610773908690612120565b915061078a6006548561212090919063ffffffff16565b90506107968286613eef565b94506107a28185613eef565b93506107ae8289613eef565b97506107ba8188613eef565b96505b60007f00000000000000000000000000000000000000000000000000000000000000006001600160a01b03166348439e7e6040518163ffffffff1660e01b8152600401602060405180830381865afa15801561081d573d6000803e3d6000fd5b505050506040513d601f19601f820116820180604052508101906108419190613ebc565b604051635598b20960e01b81526001600160a01b037f0000000000000000000000000000000000000000000000000000000000000000811660048301529190911690635598b20990602401602060405180830381865afa1580156108a9573d6000803e3d6000fd5b505050506040513d601f19601f820116820180604052508101906108cd9190613f02565b9050801561090b576108e7620c6ecf60eb1b89878461214b565b6108f96231b93b60e91b8a888461214b565b61090b62636e6360e81b88868461214b565b60055460ff166109265760009a505050505050505050505090565b6040516370a0823160e01b81526001600160a01b037f000000000000000000000000000000000000000000000000000000000000000016600482015260009073d533a949740bb3306d119cc777fa900ba034cd52906370a0823190602401602060405180830381865afa1580156109a1573d6000803e3d6000fd5b505050506040513d601f19601f820116820180604052508101906109c59190613f02565b841180610a6c57506040516370a0823160e01b81526001600160a01b037f0000000000000000000000000000000000000000000000000000000000000000166004820152734e3fbd56cd56c3e72c1403e103b45db9da5b9d2b906370a0823190602401602060405180830381865afa158015610a45573d6000803e3d6000fd5b505050506040513d601f19601f82011682018060405250810190610a699190613f02565b83115b15610a7d57610a7961218f565b5060015b610abd73d533a949740bb3306d119cc777fa900ba034cd527f0000000000000000000000000000000000000000000000000000000000000000308761248f565b610afd734e3fbd56cd56c3e72c1403e103b45db9da5b9d2b7f0000000000000000000000000000000000000000000000000000000000000000308661248f565b610b3c73d533a949740bb3306d119cc777fa900ba034cd527f000000000000000000000000000000000000000000000000000000000000000086611aa4565b610b7b734e3fbd56cd56c3e72c1403e103b45db9da5b9d2b7f000000000000000000000000000000000000000000000000000000000000000085611aa4565b6040516309e690eb60e31b815260048101859052602481018490527f00000000000000000000000000000000000000000000000000000000000000006001600160a01b031690634f34875890604401600060405180830381600087803b158015610be457600080fd5b505af1158015610bf8573d6000803e3d6000fd5b50929e9d5050505050505050505050505050565b6000610c16611c0a565b6001600160a01b038216610c5e5760405162461bcd60e51b815260206004820152600f60248201526e696e76616c6964206164647265737360881b6044820152606401610547565b6001600160a01b038216734e3fbd56cd56c3e72c1403e103b45db9da5b9d2b14801590610ca857506001600160a01b03821673d533a949740bb3306d119cc777fa900ba034cd5214155b8015610ce657507f00000000000000000000000000000000000000000000000000000000000000006001600160a01b0316826001600160a01b031614155b8015610d0f57506001600160a01b038216739ae380f0272e2162340a5bb646c354271c0f5cfc14155b610d4f5760405162461bcd60e51b81526020600482015260116024820152701d1bdad95b881b9bdd08185b1b1bddd959607a1b6044820152606401610547565b60007f00000000000000000000000000000000000000000000000000000000000000006001600160a01b0316636f934abe6040518163ffffffff1660e01b8152600401600060405180830381865afa158015610daf573d6000803e3d6000fd5b505050506040513d6000823e601f3d908101601f19168201604052610dd79190810190613f1b565b905060005b8151811015610f675760007f00000000000000000000000000000000000000000000000000000000000000006001600160a01b0316639f82b2176040518163ffffffff1660e01b8152600401602060405180830381865afa158015610e45573d6000803e3d6000fd5b505050506040513d601f19601f82011682018060405250810190610e699190613ebc565b6001600160a01b03166376a562a4848481518110610e8957610e89613faa565b60200260200101516040518263ffffffff1660e01b8152600401610ebc91906001600160a01b0391909116815260200190565b602060405180830381865afa158015610ed9573d6000803e3d6000fd5b505050506040513d601f19601f82011682018060405250810190610efd9190613ebc565b9050806001600160a01b0316856001600160a01b031603610f545760405162461bcd60e51b81526020600482015260116024820152701d1bdad95b881b9bdd08185b1b1bddd959607a1b6044820152606401610547565b5080610f5f81613fc0565b915050610ddc565b50610f916001600160a01b03841673d9e1ce17f2641f24ae83637ab66a2cca9c378b9f6000611aa4565b610fbb6001600160a01b03841673d9e1ce17f2641f24ae83637ab66a2cca9c378b9f600019611aa4565b6040516001600160a01b03841681527fd432e6f46dbf91c120fdfa95a1f4bf5c43f04d957fbc3a32e693be0d29bf17b09060200160405180910390a16110026001846124cd565b9150505b919050565b606061101760016124e2565b905090565b611024611c0a565b61102e60006124ef565b565b611038611c0a565b61104360018261253f565b506040516001600160a01b03821681527fe0f3b1406ab4dd940a92a081b1bcef51da212a57978cc8f6dde5c89ab41a5aa7906020015b60405180910390a150565b61108c611c0a565b670429d069189e000081106110f65760405162461bcd60e51b815260206004820152602a60248201527f63616e6e6f7420736574206665652070657263656e7461676520746f206d6f7260448201526965207468616e2033302560b01b6064820152608401610547565b60007f00000000000000000000000000000000000000000000000000000000000000006001600160a01b031663631516c26040518163ffffffff1660e01b8152600401602060405180830381865afa158015611156573d6000803e3d6000fd5b505050506040513d601f19601f8201168201806040525081019061117a9190613f02565b1161118457600080fd5b60068190556005805460ff191660011790556040517f3346af6da1932164d501f2ec28f8c5d686db5828a36b77f2da4332d89184fe7b906110799083815260200190565b6111d181612554565b50565b60008060006111e233612554565b3360009081527fe435d5a83a779cf6192c429679f3e210b1ef61729756a280ca43f6042e40937660209081526040808320547f31e16c83f2524a334424f1d58f96614d72f11901dd6699c42d38f67c2a9eb5cf8352818420547f6e39c77d7cf74a2ee020f0dce55b9495c576676d5cf0f00f7768f97036ef0c7e909352928190205490516370a0823160e01b81526001600160a01b037f000000000000000000000000000000000000000000000000000000000000000016600482015273d533a949740bb3306d119cc777fa900ba034cd52906370a0823190602401602060405180830381865afa1580156112db573d6000803e3d6000fd5b505050506040513d601f19601f820116820180604052508101906112ff9190613f02565b8311806113a657506040516370a0823160e01b81526001600160a01b037f0000000000000000000000000000000000000000000000000000000000000000166004820152734e3fbd56cd56c3e72c1403e103b45db9da5b9d2b906370a0823190602401602060405180830381865afa15801561137f573d6000803e3d6000fd5b505050506040513d601f19601f820116820180604052508101906113a39190613f02565b82115b8061144b57506040516370a0823160e01b81526001600160a01b037f0000000000000000000000000000000000000000000000000000000000000000166004820152739ae380f0272e2162340a5bb646c354271c0f5cfc906370a0823190602401602060405180830381865afa158015611424573d6000803e3d6000fd5b505050506040513d601f19601f820116820180604052508101906114489190613f02565b81115b156114585761145861218f565b3360008181527f6e39c77d7cf74a2ee020f0dce55b9495c576676d5cf0f00f7768f97036ef0c7e602090815260408083208390557f31e16c83f2524a334424f1d58f96614d72f11901dd6699c42d38f67c2a9eb5cf82528083208390557fe435d5a83a779cf6192c429679f3e210b1ef61729756a280ca43f6042e40937690915281205561151e9073d533a949740bb3306d119cc777fa900ba034cd52907f0000000000000000000000000000000000000000000000000000000000000000908661248f565b61155e734e3fbd56cd56c3e72c1403e103b45db9da5b9d2b7f0000000000000000000000000000000000000000000000000000000000000000338561248f565b61159e739ae380f0272e2162340a5bb646c354271c0f5cfc7f0000000000000000000000000000000000000000000000000000000000000000338461248f565b600080600061162d7f00000000000000000000000000000000000000000000000000000000000000006001600160a01b031663b050ecb86040518163ffffffff1660e01b8152600401602060405180830381865afa158015611604573d6000803e3d6000fd5b505050506040513d601f19601f820116820180604052508101906116289190613ebc565b611c64565b600460209081527fe435d5a83a779cf6192c429679f3e210b1ef61729756a280ca43f6042e4093748490557f31e16c83f2524a334424f1d58f96614d72f11901dd6699c42d38f67c2a9eb5cd83905562636e6360e81b6000527f6e39c77d7cf74a2ee020f0dce55b9495c576676d5cf0f00f7768f97036ef0c7c829055604080518981529182018b90528101899052929550909350915033907f06f39318c760ad4d630f57ba8f8d3c21b8e1deb076e19476d1dece4e3d737e7a9060600160405180910390a25091979396509194509192505050565b6000806000807f00000000000000000000000000000000000000000000000000000000000000006001600160a01b03166348439e7e6040518163ffffffff1660e01b8152600401602060405180830381865afa158015611767573d6000803e3d6000fd5b505050506040513d601f19601f8201168201806040525081019061178b9190613ebc565b604051635598b20960e01b81526001600160a01b037f0000000000000000000000000000000000000000000000000000000000000000811660048301529190911690635598b20990602401602060405180830381865afa1580156117f3573d6000803e3d6000fd5b505050506040513d601f19601f820116820180604052508101906118179190613f02565b905080600003611832576000806000935093509350506119c6565b600080600061183f6126aa565b92509250925060007f00000000000000000000000000000000000000000000000000000000000000006001600160a01b03166348439e7e6040518163ffffffff1660e01b8152600401602060405180830381865afa1580156118a5573d6000803e3d6000fd5b505050506040513d601f19601f820116820180604052508101906118c99190613ebc565b604051637d2041e560e11b81526001600160a01b037f0000000000000000000000000000000000000000000000000000000000000000811660048301528b81166024830152919091169063fa4083ca90604401602060405180830381865afa158015611939573d6000803e3d6000fd5b505050506040513d601f19601f8201168201806040525081019061195d9190613f02565b90506119748962636e6360e81b8484896000612749565b9750611999896231b93b60e91b868489600560009054906101000a900460ff16612749565b96506119be89620c6ecf60eb1b858489600560009054906101000a900460ff16612749565b955050505050505b9193909250565b6119d56105f5565b61102e5761102e61218f565b6119e9611c0a565b6001600160a01b038116611a4e5760405162461bcd60e51b815260206004820152602660248201527f4f776e61626c653a206e6577206f776e657220697320746865207a65726f206160448201526564647265737360d01b6064820152608401610547565b6111d1816124ef565b611a5f611c0a565b60005b8151811015611aa057611a8d828281518110611a8057611a80613faa565b6020026020010151610c0c565b5080611a9881613fc0565b915050611a62565b5050565b801580611b1e5750604051636eb1769f60e11b81523060048201526001600160a01b03838116602483015284169063dd62ed3e90604401602060405180830381865afa158015611af8573d6000803e3d6000fd5b505050506040513d601f19601f82011682018060405250810190611b1c9190613f02565b155b611b895760405162461bcd60e51b815260206004820152603660248201527f5361666545524332303a20617070726f76652066726f6d206e6f6e2d7a65726f60448201527520746f206e6f6e2d7a65726f20616c6c6f77616e636560501b6064820152608401610547565b6040516001600160a01b038316602482015260448101829052611bec90849063095ea7b360e01b906064015b60408051601f198184030181529190526020810180516001600160e01b03166001600160e01b031990931692909217909152612816565b505050565b6060611c0084846000856128e8565b90505b9392505050565b6000546001600160a01b0316331461102e5760405162461bcd60e51b815260206004820181905260248201527f4f776e61626c653a2063616c6c6572206973206e6f7420746865206f776e65726044820152606401610547565b6000806000807f00000000000000000000000000000000000000000000000000000000000000006001600160a01b0316636f934abe6040518163ffffffff1660e01b8152600401600060405180830381865afa158015611cc8573d6000803e3d6000fd5b505050506040513d6000823e601f3d908101601f19168201604052611cf09190810190613f1b565b90506000856001600160a01b031663d83350087f0000000000000000000000000000000000000000000000000000000000000000846040518363ffffffff1660e01b8152600401611d42929190613fd9565b602060405180830381865afa158015611d5f573d6000803e3d6000fd5b505050506040513d601f19601f82011682018060405250810190611d839190613f02565b6040516370a0823160e01b81526001600160a01b037f0000000000000000000000000000000000000000000000000000000000000000166004820152909150819073d533a949740bb3306d119cc777fa900ba034cd52906370a0823190602401602060405180830381865afa158015611e00573d6000803e3d6000fd5b505050506040513d601f19601f82011682018060405250810190611e249190613f02565b611e2e9190613ffd565b60405163323808cd60e01b8152600481018390529095506000906001600160a01b0388169063323808cd90602401602060405180830381865afa158015611e79573d6000803e3d6000fd5b505050506040513d601f19601f82011682018060405250810190611e9d9190613f02565b6040516370a0823160e01b81526001600160a01b037f00000000000000000000000000000000000000000000000000000000000000001660048201529091508190734e3fbd56cd56c3e72c1403e103b45db9da5b9d2b906370a0823190602401602060405180830381865afa158015611f1a573d6000803e3d6000fd5b505050506040513d601f19601f82011682018060405250810190611f3e9190613f02565b611f489190613ffd565b6040516370a0823160e01b81526001600160a01b037f0000000000000000000000000000000000000000000000000000000000000000166004820152909550739ae380f0272e2162340a5bb646c354271c0f5cfc906370a0823190602401602060405180830381865afa158015611fc3573d6000803e3d6000fd5b505050506040513d601f19601f82011682018060405250810190611fe79190613f02565b600054909450600160a01b900460ff16612116577f00000000000000000000000000000000000000000000000000000000000000006001600160a01b03166348439e7e6040518163ffffffff1660e01b8152600401602060405180830381865afa158015612059573d6000803e3d6000fd5b505050506040513d601f19601f8201168201806040525081019061207d9190613ebc565b6040516334d21ea360e21b81526001600160a01b037f000000000000000000000000000000000000000000000000000000000000000081166004830152919091169063d3487a8c90602401602060405180830381865afa1580156120e5573d6000803e3d6000fd5b505050506040513d601f19601f820116820180604052508101906121099190613f02565b6121139085613ffd565b93505b5050509193909250565b600061212e6012600a6140f4565b6121388385614100565b6121429190614117565b90505b92915050565b61215582826129c5565b60008581526004602052604081208054909190612173908490613ffd565b9091555050506000928352506004602052604090912060010155565b6121976129de565b6040516370a0823160e01b81526001600160a01b037f0000000000000000000000000000000000000000000000000000000000000000166004820152600090739ae380f0272e2162340a5bb646c354271c0f5cfc906370a0823190602401602060405180830381865afa158015612212573d6000803e3d6000fd5b505050506040513d601f19601f820116820180604052508101906122369190613f02565b9050612240612f6d565b6040516370a0823160e01b81526001600160a01b037f00000000000000000000000000000000000000000000000000000000000000001660048201526000908290739ae380f0272e2162340a5bb646c354271c0f5cfc906370a0823190602401602060405180830381865afa1580156122bd573d6000803e3d6000fd5b505050506040513d601f19601f820116820180604052508101906122e19190613f02565b6122eb9190613eef565b905060007f00000000000000000000000000000000000000000000000000000000000000006001600160a01b03166348439e7e6040518163ffffffff1660e01b8152600401602060405180830381865afa15801561234d573d6000803e3d6000fd5b505050506040513d601f19601f820116820180604052508101906123719190613ebc565b604051635598b20960e01b81526001600160a01b037f0000000000000000000000000000000000000000000000000000000000000000811660048301529190911690635598b20990602401602060405180830381865afa1580156123d9573d6000803e3d6000fd5b505050506040513d601f19601f820116820180604052508101906123fd9190613f02565b905080156124575761240f82826129c5565b62636e6360e81b600090815260046020527f6e39c77d7cf74a2ee020f0dce55b9495c576676d5cf0f00f7768f97036ef0c7b8054909190612451908490613ffd565b90915550505b6040518281527ffc8ed0cd46874d9c3cf1425e1b3bbf9c523bc17c4a959c2c2f600e016f4eddef9060200160405180910390a1505050565b6040516001600160a01b03808516602483015283166044820152606481018290526124c79085906323b872dd60e01b90608401611bb5565b50505050565b6000612142836001600160a01b038416612fbf565b60606000611c038361300e565b600080546001600160a01b038381166001600160a01b0319831681178455604051919092169283917f8be0079c531659141344cd1fd0a4f28419497f9722a3daafe3b4186f6b6457e09190a35050565b6000612142836001600160a01b03841661306a565b60007f00000000000000000000000000000000000000000000000000000000000000006001600160a01b03166348439e7e6040518163ffffffff1660e01b8152600401602060405180830381865afa1580156125b4573d6000803e3d6000fd5b505050506040513d601f19601f820116820180604052508101906125d89190613ebc565b604051637d2041e560e11b81526001600160a01b037f0000000000000000000000000000000000000000000000000000000000000000811660048301528481166024830152919091169063fa4083ca90604401602060405180830381865afa158015612648573d6000803e3d6000fd5b505050506040513d601f19601f8201168201806040525081019061266c9190613f02565b90506126766105f5565b5061268862636e6360e81b838361315d565b6126996231b93b60e91b838361315d565b611aa0620c6ecf60eb1b838361315d565b6000806000807f00000000000000000000000000000000000000000000000000000000000000006001600160a01b031663b050ecb86040518163ffffffff1660e01b8152600401602060405180830381865afa15801561270e573d6000803e3d6000fd5b505050506040513d601f19601f820116820180604052508101906127329190613ebc565b905061273d816131f8565b93509350935050909192565b60008581526004602052604081208054831561279d5760065461278c906127726012600a6140f4565b61277c9190613eef565b61278689886129c5565b90612120565b6127969082613ffd565b90506127b4565b6127a787866129c5565b6127b19082613ffd565b90505b6001600160a01b03891660009081526002830160205260409020546127e4906127dd9083613eef565b8790612120565b6001600160a01b038a1660009081526003840160205260409020546128099190613ffd565b9998505050505050505050565b600061286b826040518060400160405280602081526020017f5361666545524332303a206c6f772d6c6576656c2063616c6c206661696c6564815250856001600160a01b0316611bf19092919063ffffffff16565b805190915015611bec57808060200190518101906128899190614149565b611bec5760405162461bcd60e51b815260206004820152602a60248201527f5361666545524332303a204552433230206f7065726174696f6e20646964206e6044820152691bdd081cdd58d8d9595960b21b6064820152608401610547565b6060824710156129495760405162461bcd60e51b815260206004820152602660248201527f416464726573733a20696e73756666696369656e742062616c616e636520666f6044820152651c8818d85b1b60d21b6064820152608401610547565b600080866001600160a01b031685876040516129659190614188565b60006040518083038185875af1925050503d80600081146129a2576040519150601f19603f3d011682016040523d82523d6000602084013e6129a7565b606091505b50915091506129b8878383876132c9565b925050505b949350505050565b6000816129d46012600a6140f4565b6121389085614100565b6000805460ff60a01b1916600160a01b17905560408051632421cf3f60e11b815290516001600160a01b037f000000000000000000000000000000000000000000000000000000000000000016916348439e7e9160048083019260209291908290030181865afa158015612a56573d6000803e3d6000fd5b505050506040513d601f19601f82011682018060405250810190612a7a9190613ebc565b60405163a0190c1760e01b81526001600160a01b037f000000000000000000000000000000000000000000000000000000000000000081166004830152919091169063a0190c1790602401600060405180830381600087803b158015612adf57600080fd5b505af1158015612af3573d6000803e3d6000fd5b50506000805460ff60a01b191681556040516370a0823160e01b81526001600160a01b037f0000000000000000000000000000000000000000000000000000000000000000166004820152909250734e3fbd56cd56c3e72c1403e103b45db9da5b9d2b91506370a0823190602401602060405180830381865afa158015612b7e573d6000803e3d6000fd5b505050506040513d601f19601f82011682018060405250810190612ba29190613f02565b6040516370a0823160e01b81526001600160a01b037f000000000000000000000000000000000000000000000000000000000000000016600482015290915060009073d533a949740bb3306d119cc777fa900ba034cd52906370a0823190602401602060405180830381865afa158015612c20573d6000803e3d6000fd5b505050506040513d601f19601f82011682018060405250810190612c449190613f02565b905060007f00000000000000000000000000000000000000000000000000000000000000006001600160a01b031663b050ecb86040518163ffffffff1660e01b8152600401602060405180830381865afa158015612ca6573d6000803e3d6000fd5b505050506040513d601f19601f82011682018060405250810190612cca9190613ebc565b9050806001600160a01b031663bc810e267f00000000000000000000000000000000000000000000000000000000000000006001600160a01b0316636f934abe6040518163ffffffff1660e01b8152600401600060405180830381865afa158015612d39573d6000803e3d6000fd5b505050506040513d6000823e601f3d908101601f19168201604052612d619190810190613f1b565b7f00000000000000000000000000000000000000000000000000000000000000006040518363ffffffff1660e01b8152600401612d9f9291906141a4565b600060405180830381600087803b158015612db957600080fd5b505af1158015612dcd573d6000803e3d6000fd5b50506040516370a0823160e01b81526001600160a01b037f000000000000000000000000000000000000000000000000000000000000000016600482015260009250859150734e3fbd56cd56c3e72c1403e103b45db9da5b9d2b906370a0823190602401602060405180830381865afa158015612e4e573d6000803e3d6000fd5b505050506040513d601f19601f82011682018060405250810190612e729190613f02565b612e7c9190613eef565b6040516370a0823160e01b81526001600160a01b037f0000000000000000000000000000000000000000000000000000000000000000166004820152909150600090849073d533a949740bb3306d119cc777fa900ba034cd52906370a0823190602401602060405180830381865afa158015612efc573d6000803e3d6000fd5b505050506040513d601f19601f82011682018060405250810190612f209190613f02565b612f2a9190613eef565b60408051828152602081018590529192507f141d6e75554381bcc1326596e8010e6c432bb0988e14ca0310d85837a211d292910160405180910390a15050505050565b6000612f796001613342565b905080600003612f865750565b60005b81811015612fb657612fa4612f9f60018361334c565b613358565b80612fae81613fc0565b915050612f89565b506111d161371e565b600081815260018301602052604081205461300657508154600181810184556000848152602080822090930184905584548482528286019093526040902091909155612145565b506000612145565b60608160000180548060200260200160405190810160405280929190818152602001828054801561305e57602002820191906000526020600020905b81548152602001906001019080831161304a575b50505050509050919050565b6000818152600183016020526040812054801561315357600061308e600183613eef565b85549091506000906130a290600190613eef565b90508181146131075760008660000182815481106130c2576130c2613faa565b90600052602060002001549050808760000184815481106130e5576130e5613faa565b6000918252602080832090910192909255918252600188019052604090208390555b8554869080613118576131186141ce565b600190038181906000526020600020016000905590558560010160008681526020019081526020016000206000905560019350505050612145565b6000915050612145565b60008381526004602090815260408083206001600160a01b038616845260028101909252822054815491929161319d9161319691613eef565b8490612120565b6001600160a01b03851660009081526003840160205260408120805492935083929091906131cc908490613ffd565b909155505081546001600160a01b03909416600090815260029092016020525060409020919091555050565b60008060008060008061320a87611c64565b6231b93b60e91b60005260046020527fe435d5a83a779cf6192c429679f3e210b1ef61729756a280ca43f6042e40937454929550909350915061324d9084613eef565b620c6ecf60eb1b60005260046020527f31e16c83f2524a334424f1d58f96614d72f11901dd6699c42d38f67c2a9eb5cd5490965061328b9083613eef565b62636e6360e81b60005260046020527f6e39c77d7cf74a2ee020f0dce55b9495c576676d5cf0f00f7768f97036ef0c7c549095506121139082613eef565b60608315613338578251600003613331576001600160a01b0385163b6133315760405162461bcd60e51b815260206004820152601d60248201527f416464726573733a2063616c6c20746f206e6f6e2d636f6e74726163740000006044820152606401610547565b50816129bd565b6129bd838361389d565b6000612145825490565b600061214283836138c7565b6040516370a0823160e01b81523060048201526000906001600160a01b038316906370a0823190602401602060405180830381865afa15801561339f573d6000803e3d6000fd5b505050506040513d601f19601f820116820180604052508101906133c39190613f02565b9050806000036133d1575050565b6001600160a01b038083166000908152600360205260409020541680156135de576000807f00000000000000000000000000000000000000000000000000000000000000006001600160a01b0316639f82b2176040518163ffffffff1660e01b8152600401602060405180830381865afa158015613453573d6000803e3d6000fd5b505050506040513d601f19601f820116820180604052508101906134779190613ebc565b604051632feaac8560e11b81526001600160a01b038581166004830152878116602483015273c02aaa39b223fe8d0a0e5c4f27ead9083c756cc260448301529190911690635fd5590a90606401606060405180830381865afa1580156134e1573d6000803e3d6000fd5b505050506040513d601f19601f8201168201806040525081019061350591906141f6565b5090925090506fffffffffffffffffffffffffffffffff8083169082166001600160a01b03851663ce7d65038383896135538c73c02aaa39b223fe8d0a0e5c4f27ead9083c756cc2836138f1565b6040516001600160e01b031960e087901b1681526004810194909452602484019290925260448301526064820152600060848201523060a482015260c4016020604051808303816000875af11580156135b0573d6000803e3d6000fd5b505050506040513d601f19601f820116820180604052508101906135d49190613f02565b5050505050505050565b604080516002808252606082018352600092602083019080368337019050509050838160008151811061361357613613613faa565b60200260200101906001600160a01b031690816001600160a01b03168152505073c02aaa39b223fe8d0a0e5c4f27ead9083c756cc28160018151811061365b5761365b613faa565b6001600160a01b039092166020928302919091019091015273d9e1ce17f2641f24ae83637ab66a2cca9c378b9f6338ed1739846136ad8773c02aaa39b223fe8d0a0e5c4f27ead9083c756cc2836138f1565b8430426040518663ffffffff1660e01b81526004016136d0959493929190614239565b6000604051808303816000875af11580156136ef573d6000803e3d6000fd5b505050506040513d6000823e601f3d908101601f191682016040526137179190810190614275565b5050505050565b6040516370a0823160e01b815230600482015260009073c02aaa39b223fe8d0a0e5c4f27ead9083c756cc2906370a0823190602401602060405180830381865afa158015613770573d6000803e3d6000fd5b505050506040513d601f19601f820116820180604052508101906137949190613f02565b9050806000036137a15750565b73838af967537350d2c44abb8c010e49e32673ab9463ce7d650360006001846137f373c02aaa39b223fe8d0a0e5c4f27ead9083c756cc2739ae380f0272e2162340a5bb646c354271c0f5cfc836138f1565b6040516001600160e01b031960e087901b1681526004810194909452602484019290925260448301526064820152600060848201526001600160a01b037f00000000000000000000000000000000000000000000000000000000000000001660a482015260c4016020604051808303816000875af1158015613879573d6000803e3d6000fd5b505050506040513d601f19601f82011682018060405250810190611aa09190613f02565b8151156138ad5781518083602001fd5b8060405162461bcd60e51b815260040161054791906142fb565b60008260000182815481106138de576138de613faa565b9060005260206000200154905092915050565b6000807f00000000000000000000000000000000000000000000000000000000000000006001600160a01b0316632630c12f6040518163ffffffff1660e01b8152600401602060405180830381865afa158015613952573d6000803e3d6000fd5b505050506040513d601f19601f820116820180604052508101906139769190613ebc565b9050836001600160a01b0316856001600160a01b03160361399a5782915050611c03565b6040516375151b6360e01b81526001600160a01b0386811660048301528216906375151b6390602401602060405180830381865afa1580156139e0573d6000803e3d6000fd5b505050506040513d601f19601f82011682018060405250810190613a049190614149565b1580613a7757506040516375151b6360e01b81526001600160a01b0385811660048301528216906375151b6390602401602060405180830381865afa158015613a51573d6000803e3d6000fd5b505050506040513d601f19601f82011682018060405250810190613a759190614149565b155b15613a86576000915050611c03565b613c4b670d2f13f7789f0000612786876001600160a01b031663313ce5676040518163ffffffff1660e01b8152600401602060405180830381865afa158015613ad3573d6000803e3d6000fd5b505050506040513d601f19601f82011682018060405250810190613af7919061432e565b876001600160a01b031663313ce5676040518163ffffffff1660e01b8152600401602060405180830381865afa158015613b35573d6000803e3d6000fd5b505050506040513d601f19601f82011682018060405250810190613b59919061432e565b604051638b2f0f4f60e01b81526001600160a01b038a81166004830152613c449190881690638b2f0f4f90602401602060405180830381865afa158015613ba4573d6000803e3d6000fd5b505050506040513d601f19601f82011682018060405250810190613bc89190613f02565b604051638b2f0f4f60e01b81526001600160a01b038d81166004830152613c3e91908a1690638b2f0f4f90602401602060405180830381865afa158015613c13573d6000803e3d6000fd5b505050506040513d601f19601f82011682018060405250810190613c379190613f02565b8b90612120565b906129c5565b9190613c54565b95945050505050565b60008160ff168360ff1603613c6a575082611c03565b8160ff168360ff161115613c8a57613c83848484613c95565b9050611c03565b611c00848484613cb6565b6000613ca18284614351565b613cac90600a61436a565b611c009085614117565b6000613cc28383614351565b613ccd90600a61436a565b611c009085614100565b6001600160a01b03811681146111d157600080fd5b60008060408385031215613cff57600080fd5b8235613d0a81613cd7565b91506020830135613d1a81613cd7565b809150509250929050565b600060208284031215613d3757600080fd5b8135611c0381613cd7565b600081518084526020808501945080840160005b83811015613d7b5781516001600160a01b031687529582019590820190600101613d56565b509495945050505050565b6020815260006121426020830184613d42565b600060208284031215613dab57600080fd5b5035919050565b634e487b7160e01b600052604160045260246000fd5b604051601f8201601f1916810167ffffffffffffffff81118282101715613df157613df1613db2565b604052919050565b600067ffffffffffffffff821115613e1357613e13613db2565b5060051b60200190565b60006020808385031215613e3057600080fd5b823567ffffffffffffffff811115613e4757600080fd5b8301601f81018513613e5857600080fd5b8035613e6b613e6682613df9565b613dc8565b81815260059190911b82018301908381019087831115613e8a57600080fd5b928401925b82841015613eb1578335613ea281613cd7565b82529284019290840190613e8f565b979650505050505050565b600060208284031215613ece57600080fd5b8151611c0381613cd7565b634e487b7160e01b600052601160045260246000fd5b8181038181111561214557612145613ed9565b600060208284031215613f1457600080fd5b5051919050565b60006020808385031215613f2e57600080fd5b825167ffffffffffffffff811115613f4557600080fd5b8301601f81018513613f5657600080fd5b8051613f64613e6682613df9565b81815260059190911b82018301908381019087831115613f8357600080fd5b928401925b82841015613eb1578351613f9b81613cd7565b82529284019290840190613f88565b634e487b7160e01b600052603260045260246000fd5b600060018201613fd257613fd2613ed9565b5060010190565b6001600160a01b0383168152604060208201819052600090611c0090830184613d42565b8082018082111561214557612145613ed9565b600181815b8085111561404b57816000190482111561403157614031613ed9565b8085161561403e57918102915b93841c9390800290614015565b509250929050565b60008261406257506001612145565b8161406f57506000612145565b8160018114614085576002811461408f576140ab565b6001915050612145565b60ff8411156140a0576140a0613ed9565b50506001821b612145565b5060208310610133831016604e8410600b84101617156140ce575081810a612145565b6140d88383614010565b80600019048211156140ec576140ec613ed9565b029392505050565b60006121428383614053565b808202811582820484141761214557612145613ed9565b60008261413457634e487b7160e01b600052601260045260246000fd5b500490565b8051801515811461100657600080fd5b60006020828403121561415b57600080fd5b61214282614139565b60005b8381101561417f578181015183820152602001614167565b50506000910152565b6000825161419a818460208701614164565b9190910192915050565b6040815260006141b76040830185613d42565b905060018060a01b03831660208301529392505050565b634e487b7160e01b600052603160045260246000fd5b8051600f81900b811461100657600080fd5b60008060006060848603121561420b57600080fd5b614214846141e4565b9250614222602085016141e4565b915061423060408501614139565b90509250925092565b85815284602082015260a06040820152600061425860a0830186613d42565b6001600160a01b0394909416606083015250608001529392505050565b6000602080838503121561428857600080fd5b825167ffffffffffffffff81111561429f57600080fd5b8301601f810185136142b057600080fd5b80516142be613e6682613df9565b81815260059190911b820183019083810190878311156142dd57600080fd5b928401925b82841015613eb1578351825292840192908401906142e2565b602081526000825180602084015261431a816040850160208701614164565b601f01601f19169190910160400192915050565b60006020828403121561434057600080fd5b815160ff81168114611c0357600080fd5b60ff828116828216039081111561214557612145613ed9565b600061214260ff84168361405356fea26469706673582212204ce8c0e615afedd01b63f90ee5121d4b8af8d1a6d98406a176f17d8a00f5298264736f6c63430008110033","bytecodeSha1":"dbdc935e657939a85309a867ca1cbac10b2f68cd","compiler":{"evm_version":"istanbul","optimizer":{"enabled":true,"runs":200},"version":"0.8.17+commit.8df45f5f"},"contractName":"RewardManagerV2","language":"Solidity","natspec":{"kind":"dev","methods":{"claimEarnings()":{"details":"Conic pool LP tokens need to be staked in the `LpTokenStaker` in order to receive a share of the CRV, CVX and CNC earnings. after selling all extra reward tokens.","notice":"Claims all CRV, CVX and CNC earned by a user. All extra reward tokens earned will be sold for CNC."},"claimPoolEarningsAndSellRewardTokens()":{"notice":"Claims all claimable CVX and CRV from Convex for all staked Curve LP tokens. Then Swaps all additional rewards tokens for CNC."},"owner()":{"details":"Returns the address of the current owner."},"poolCheckpoint()":{"notice":"Updates the internal fee accounting state. Returns `true` if rewards were claimed"},"renounceOwnership()":{"details":"Leaves the contract without owner. It will not be possible to call `onlyOwner` functions anymore. Can only be called by the current owner. NOTE: Renouncing ownership will leave the contract without an owner, thereby removing any functionality that is only available to the owner."},"transferOwnership(address)":{"details":"Transfers ownership of the contract to a new account (`newOwner`). Can only be called by the current owner."}},"version":1},"opcodes":"PUSH1 0x80 PUSH1 0x40 MSTORE CALLVALUE DUP1 ISZERO PUSH2 0x10 JUMPI PUSH1 0x0 DUP1 REVERT JUMPDEST POP PUSH1 0x4 CALLDATASIZE LT PUSH2 0x1DA JUMPI PUSH1 0x0 CALLDATALOAD PUSH1 0xE0 SHR DUP1 PUSH4 0xA001ECDD GT PUSH2 0x104 JUMPI DUP1 PUSH4 0xD9CEAB13 GT PUSH2 0xA2 JUMPI DUP1 PUSH4 0xE8465009 GT PUSH2 0x71 JUMPI DUP1 PUSH4 0xE8465009 EQ PUSH2 0x47B JUMPI DUP1 PUSH4 0xF2FDE38B EQ PUSH2 0x48A JUMPI DUP1 PUSH4 0xF77C4791 EQ PUSH2 0x49D JUMPI DUP1 PUSH4 0xFE09D54D EQ PUSH2 0x4C4 JUMPI PUSH1 0x0 DUP1 REVERT JUMPDEST DUP1 PUSH4 0xD9CEAB13 EQ PUSH2 0x414 JUMPI DUP1 PUSH4 0xD9E65CED EQ PUSH2 0x437 JUMPI DUP1 PUSH4 0xDC01F60D EQ PUSH2 0x460 JUMPI DUP1 PUSH4 0xE7706183 EQ PUSH2 0x473 JUMPI PUSH1 0x0 DUP1 REVERT JUMPDEST DUP1 PUSH4 0xAD5C4648 GT PUSH2 0xDE JUMPI DUP1 PUSH4 0xAD5C4648 EQ PUSH2 0x3AC JUMPI DUP1 PUSH4 0xAE06C1B7 EQ PUSH2 0x3C7 JUMPI DUP1 PUSH4 0xBF928F8B EQ PUSH2 0x3DA JUMPI DUP1 PUSH4 0xD7B96D4E EQ PUSH2 0x3ED JUMPI PUSH1 0x0 DUP1 REVERT JUMPDEST DUP1 PUSH4 0xA001ECDD EQ PUSH2 0x383 JUMPI DUP1 PUSH4 0xA64E4F8A EQ PUSH2 0x38C JUMPI DUP1 PUSH4 0xA80FF90A EQ PUSH2 0x399 JUMPI PUSH1 0x0 DUP1 REVERT JUMPDEST DUP1 PUSH4 0x632473DA GT PUSH2 0x17C JUMPI DUP1 PUSH4 0x759CB53B GT PUSH2 0x14B JUMPI DUP1 PUSH4 0x759CB53B EQ PUSH2 0x321 JUMPI DUP1 PUSH4 0x8DA5CB5B EQ PUSH2 0x33C JUMPI DUP1 PUSH4 0x945C9142 EQ PUSH2 0x34D JUMPI DUP1 PUSH4 0x9C708AAB EQ PUSH2 0x368 JUMPI PUSH1 0x0 DUP1 REVERT JUMPDEST DUP1 PUSH4 0x632473DA EQ PUSH2 0x2C2 JUMPI DUP1 PUSH4 0x6DC47E1E EQ PUSH2 0x2DD JUMPI DUP1 PUSH4 0x6F307DC3 EQ PUSH2 0x2F2 JUMPI DUP1 PUSH4 0x715018A6 EQ PUSH2 0x319 JUMPI PUSH1 0x0 DUP1 REVERT JUMPDEST DUP1 PUSH4 0x558E44D3 GT PUSH2 0x1B8 JUMPI DUP1 PUSH4 0x558E44D3 EQ PUSH2 0x253 JUMPI DUP1 PUSH4 0x5790A0C8 EQ PUSH2 0x270 JUMPI DUP1 PUSH4 0x5E43C47B EQ PUSH2 0x288 JUMPI DUP1 PUSH4 0x5FCBD285 EQ PUSH2 0x29B JUMPI PUSH1 0x0 DUP1 REVERT JUMPDEST DUP1 PUSH4 0x3950FB5 EQ PUSH2 0x1DF JUMPI DUP1 PUSH4 0x16F0115B EQ PUSH2 0x1F4 JUMPI DUP1 PUSH4 0x49556709 EQ PUSH2 0x238 JUMPI JUMPDEST PUSH1 0x0 DUP1 REVERT JUMPDEST PUSH2 0x1F2 PUSH2 0x1ED CALLDATASIZE PUSH1 0x4 PUSH2 0x3CEC JUMP JUMPDEST PUSH2 0x4D7 JUMP JUMPDEST STOP JUMPDEST PUSH2 0x21B PUSH32 0x0 DUP2 JUMP JUMPDEST PUSH1 0x40 MLOAD PUSH1 0x1 PUSH1 0x1 PUSH1 0xA0 SHL SUB SWAP1 SWAP2 AND DUP2 MSTORE PUSH1 0x20 ADD JUMPDEST PUSH1 0x40 MLOAD DUP1 SWAP2 SUB SWAP1 RETURN JUMPDEST PUSH2 0x21B PUSH20 0x838AF967537350D2C44ABB8C010E49E32673AB94 DUP2 JUMP JUMPDEST PUSH2 0x262 PUSH8 0x429D069189E0000 DUP2 JUMP JUMPDEST PUSH1 0x40 MLOAD SWAP1 DUP2 MSTORE PUSH1 0x20 ADD PUSH2 0x22F JUMP JUMPDEST PUSH2 0x278 PUSH2 0x5F5 JUMP JUMPDEST PUSH1 0x40 MLOAD SWAP1 ISZERO ISZERO DUP2 MSTORE PUSH1 0x20 ADD PUSH2 0x22F JUMP JUMPDEST PUSH2 0x278 PUSH2 0x296 CALLDATASIZE PUSH1 0x4 PUSH2 0x3D25 JUMP JUMPDEST PUSH2 0xC0C JUMP JUMPDEST PUSH2 0x21B PUSH32 0x0 DUP2 JUMP JUMPDEST PUSH2 0x21B PUSH20 0x9AE380F0272E2162340A5BB646C354271C0F5CFC DUP2 JUMP JUMPDEST PUSH2 0x2E5 PUSH2 0x100B JUMP JUMPDEST PUSH1 0x40 MLOAD PUSH2 0x22F SWAP2 SWAP1 PUSH2 0x3D86 JUMP JUMPDEST PUSH2 0x21B PUSH32 0x0 DUP2 JUMP JUMPDEST PUSH2 0x1F2 PUSH2 0x101C JUMP JUMPDEST PUSH2 0x21B PUSH20 0x4E3FBD56CD56C3E72C1403E103B45DB9DA5B9D2B DUP2 JUMP JUMPDEST PUSH1 0x0 SLOAD PUSH1 0x1 PUSH1 0x1 PUSH1 0xA0 SHL SUB AND PUSH2 0x21B JUMP JUMPDEST PUSH2 0x21B PUSH20 0xD533A949740BB3306D119CC777FA900BA034CD52 DUP2 JUMP JUMPDEST PUSH2 0x21B PUSH20 0xD9E1CE17F2641F24AE83637AB66A2CCA9C378B9F DUP2 JUMP JUMPDEST PUSH2 0x262 PUSH1 0x6 SLOAD DUP2 JUMP JUMPDEST PUSH1 0x5 SLOAD PUSH2 0x278 SWAP1 PUSH1 0xFF AND DUP2 JUMP JUMPDEST PUSH2 0x1F2 PUSH2 0x3A7 CALLDATASIZE PUSH1 0x4 PUSH2 0x3D25 JUMP JUMPDEST PUSH2 0x1030 JUMP JUMPDEST PUSH2 0x21B PUSH20 0xC02AAA39B223FE8D0A0E5C4F27EAD9083C756CC2 DUP2 JUMP JUMPDEST PUSH2 0x1F2 PUSH2 0x3D5 CALLDATASIZE PUSH1 0x4 PUSH2 0x3D99 JUMP JUMPDEST PUSH2 0x1084 JUMP JUMPDEST PUSH2 0x1F2 PUSH2 0x3E8 CALLDATASIZE PUSH1 0x4 PUSH2 0x3D25 JUMP JUMPDEST PUSH2 0x11C8 JUMP JUMPDEST PUSH2 0x21B PUSH32 0x0 DUP2 JUMP JUMPDEST PUSH2 0x41C PUSH2 0x11D4 JUMP JUMPDEST PUSH1 0x40 DUP1 MLOAD SWAP4 DUP5 MSTORE PUSH1 0x20 DUP5 ADD SWAP3 SWAP1 SWAP3 MSTORE SWAP1 DUP3 ADD MSTORE PUSH1 0x60 ADD PUSH2 0x22F JUMP JUMPDEST PUSH2 0x21B PUSH2 0x445 CALLDATASIZE PUSH1 0x4 PUSH2 0x3D25 JUMP JUMPDEST PUSH1 0x3 PUSH1 0x20 MSTORE PUSH1 0x0 SWAP1 DUP2 MSTORE PUSH1 0x40 SWAP1 KECCAK256 SLOAD PUSH1 0x1 PUSH1 0x1 PUSH1 0xA0 SHL SUB AND DUP2 JUMP JUMPDEST PUSH2 0x41C PUSH2 0x46E CALLDATASIZE PUSH1 0x4 PUSH2 0x3D25 JUMP JUMPDEST PUSH2 0x1703 JUMP JUMPDEST PUSH2 0x1F2 PUSH2 0x19CD JUMP JUMPDEST PUSH2 0x262 PUSH8 0xD2F13F7789F0000 DUP2 JUMP JUMPDEST PUSH2 0x1F2 PUSH2 0x498 CALLDATASIZE PUSH1 0x4 PUSH2 0x3D25 JUMP JUMPDEST PUSH2 0x19E1 JUMP JUMPDEST PUSH2 0x21B PUSH32 0x0 DUP2 JUMP JUMPDEST PUSH2 0x1F2 PUSH2 0x4D2 CALLDATASIZE PUSH1 0x4 PUSH2 0x3E1D JUMP JUMPDEST PUSH2 0x1A57 JUMP JUMPDEST PUSH2 0x4DF PUSH2 0x1C0A JUMP JUMPDEST PUSH1 0x1 PUSH1 0x1 PUSH1 0xA0 SHL SUB DUP1 DUP4 AND PUSH1 0x0 SWAP1 DUP2 MSTORE PUSH1 0x3 PUSH1 0x20 MSTORE PUSH1 0x40 SWAP1 KECCAK256 SLOAD DUP2 AND SWAP1 DUP3 AND SUB PUSH2 0x550 JUMPI PUSH1 0x40 MLOAD PUSH3 0x461BCD PUSH1 0xE5 SHL DUP2 MSTORE PUSH1 0x20 PUSH1 0x4 DUP3 ADD MSTORE PUSH1 0x1C PUSH1 0x24 DUP3 ADD MSTORE PUSH32 0x6D75737420626520646966666572656E7420746F2063757272656E7400000000 PUSH1 0x44 DUP3 ADD MSTORE PUSH1 0x64 ADD JUMPDEST PUSH1 0x40 MLOAD DUP1 SWAP2 SUB SWAP1 REVERT JUMPDEST PUSH1 0x1 PUSH1 0x1 PUSH1 0xA0 SHL SUB DUP2 AND ISZERO PUSH2 0x58A JUMPI PUSH2 0x574 PUSH1 0x1 PUSH1 0x1 PUSH1 0xA0 SHL SUB DUP4 AND DUP3 PUSH1 0x0 PUSH2 0x1AA4 JUMP JUMPDEST PUSH2 0x58A PUSH1 0x1 PUSH1 0x1 PUSH1 0xA0 SHL SUB DUP4 AND DUP3 PUSH1 0x0 NOT PUSH2 0x1AA4 JUMP JUMPDEST PUSH1 0x1 PUSH1 0x1 PUSH1 0xA0 SHL SUB DUP3 DUP2 AND PUSH1 0x0 DUP2 DUP2 MSTORE PUSH1 0x3 PUSH1 0x20 SWAP1 DUP2 MSTORE PUSH1 0x40 SWAP2 DUP3 SWAP1 KECCAK256 DUP1 SLOAD PUSH1 0x1 PUSH1 0x1 PUSH1 0xA0 SHL SUB NOT AND SWAP5 DUP7 AND SWAP5 DUP6 OR SWAP1 SSTORE DUP2 MLOAD SWAP3 DUP4 MSTORE DUP3 ADD SWAP3 SWAP1 SWAP3 MSTORE PUSH32 0x8C529C22BABAD500CEA1516422F2BF23F6E1E7FAB884B816062D20A9A0F78FEF SWAP2 ADD PUSH1 0x40 MLOAD DUP1 SWAP2 SUB SWAP1 LOG1 POP POP JUMP JUMPDEST PUSH1 0x0 DUP1 PUSH32 0x0 PUSH1 0x1 PUSH1 0x1 PUSH1 0xA0 SHL SUB AND PUSH4 0xB050ECB8 PUSH1 0x40 MLOAD DUP2 PUSH4 0xFFFFFFFF AND PUSH1 0xE0 SHL DUP2 MSTORE PUSH1 0x4 ADD PUSH1 0x20 PUSH1 0x40 MLOAD DUP1 DUP4 SUB DUP2 DUP7 GAS STATICCALL ISZERO DUP1 ISZERO PUSH2 0x656 JUMPI RETURNDATASIZE PUSH1 0x0 DUP1 RETURNDATACOPY RETURNDATASIZE PUSH1 0x0 REVERT JUMPDEST POP POP POP POP PUSH1 0x40 MLOAD RETURNDATASIZE PUSH1 0x1F NOT PUSH1 0x1F DUP3 ADD AND DUP3 ADD DUP1 PUSH1 0x40 MSTORE POP DUP2 ADD SWAP1 PUSH2 0x67A SWAP2 SWAP1 PUSH2 0x3EBC JUMP JUMPDEST SWAP1 POP PUSH1 0x0 DUP1 PUSH1 0x0 PUSH2 0x68A DUP5 PUSH2 0x1C64 JUMP JUMPDEST PUSH3 0x31B93B PUSH1 0xE9 SHL PUSH1 0x0 SWAP1 DUP2 MSTORE PUSH1 0x4 PUSH1 0x20 MSTORE PUSH32 0xE435D5A83A779CF6192C429679F3E210B1EF61729756A280CA43F6042E409374 SLOAD SWAP4 SWAP7 POP SWAP2 SWAP5 POP SWAP3 POP SWAP1 PUSH2 0x6D0 SWAP1 DUP6 PUSH2 0x3EEF JUMP JUMPDEST PUSH3 0xC6ECF PUSH1 0xEB SHL PUSH1 0x0 SWAP1 DUP2 MSTORE PUSH1 0x4 PUSH1 0x20 MSTORE PUSH32 0x31E16C83F2524A334424F1D58F96614D72F11901DD6699C42D38F67C2A9EB5CD SLOAD SWAP2 SWAP3 POP SWAP1 PUSH2 0x711 SWAP1 DUP6 PUSH2 0x3EEF JUMP JUMPDEST PUSH3 0x636E63 PUSH1 0xE8 SHL PUSH1 0x0 SWAP1 DUP2 MSTORE PUSH1 0x4 PUSH1 0x20 MSTORE PUSH32 0x6E39C77D7CF74A2EE020F0DCE55B9495C576676D5CF0F00F7768F97036EF0C7C SLOAD SWAP2 SWAP3 POP SWAP1 PUSH2 0x752 SWAP1 DUP6 PUSH2 0x3EEF JUMP JUMPDEST PUSH1 0x5 SLOAD SWAP1 SWAP2 POP PUSH1 0x0 SWAP1 DUP2 SWAP1 PUSH1 0xFF AND ISZERO PUSH2 0x7BD JUMPI PUSH1 0x6 SLOAD PUSH2 0x773 SWAP1 DUP7 SWAP1 PUSH2 0x2120 JUMP JUMPDEST SWAP2 POP PUSH2 0x78A PUSH1 0x6 SLOAD DUP6 PUSH2 0x2120 SWAP1 SWAP2 SWAP1 PUSH4 0xFFFFFFFF AND JUMP JUMPDEST SWAP1 POP PUSH2 0x796 DUP3 DUP7 PUSH2 0x3EEF JUMP JUMPDEST SWAP5 POP PUSH2 0x7A2 DUP2 DUP6 PUSH2 0x3EEF JUMP JUMPDEST SWAP4 POP PUSH2 0x7AE DUP3 DUP10 PUSH2 0x3EEF JUMP JUMPDEST SWAP8 POP PUSH2 0x7BA DUP2 DUP9 PUSH2 0x3EEF JUMP JUMPDEST SWAP7 POP JUMPDEST PUSH1 0x0 PUSH32 0x0 PUSH1 0x1 PUSH1 0x1 PUSH1 0xA0 SHL SUB AND PUSH4 0x48439E7E PUSH1 0x40 MLOAD DUP2 PUSH4 0xFFFFFFFF AND PUSH1 0xE0 SHL DUP2 MSTORE PUSH1 0x4 ADD PUSH1 0x20 PUSH1 0x40 MLOAD DUP1 DUP4 SUB DUP2 DUP7 GAS STATICCALL ISZERO DUP1 ISZERO PUSH2 0x81D JUMPI RETURNDATASIZE PUSH1 0x0 DUP1 RETURNDATACOPY RETURNDATASIZE PUSH1 0x0 REVERT JUMPDEST POP POP POP POP PUSH1 0x40 MLOAD RETURNDATASIZE PUSH1 0x1F NOT PUSH1 0x1F DUP3 ADD AND DUP3 ADD DUP1 PUSH1 0x40 MSTORE POP DUP2 ADD SWAP1 PUSH2 0x841 SWAP2 SWAP1 PUSH2 0x3EBC JUMP JUMPDEST PUSH1 0x40 MLOAD PUSH4 0x5598B209 PUSH1 0xE0 SHL DUP2 MSTORE PUSH1 0x1 PUSH1 0x1 PUSH1 0xA0 SHL SUB PUSH32 0x0 DUP2 AND PUSH1 0x4 DUP4 ADD MSTORE SWAP2 SWAP1 SWAP2 AND SWAP1 PUSH4 0x5598B209 SWAP1 PUSH1 0x24 ADD PUSH1 0x20 PUSH1 0x40 MLOAD DUP1 DUP4 SUB DUP2 DUP7 GAS STATICCALL ISZERO DUP1 ISZERO PUSH2 0x8A9 JUMPI RETURNDATASIZE PUSH1 0x0 DUP1 RETURNDATACOPY RETURNDATASIZE PUSH1 0x0 REVERT JUMPDEST POP POP POP POP PUSH1 0x40 MLOAD RETURNDATASIZE PUSH1 0x1F NOT PUSH1 0x1F DUP3 ADD AND DUP3 ADD DUP1 PUSH1 0x40 MSTORE POP DUP2 ADD SWAP1 PUSH2 0x8CD SWAP2 SWAP1 PUSH2 0x3F02 JUMP JUMPDEST SWAP1 POP DUP1 ISZERO PUSH2 0x90B JUMPI PUSH2 0x8E7 PUSH3 0xC6ECF PUSH1 0xEB SHL DUP10 DUP8 DUP5 PUSH2 0x214B JUMP JUMPDEST PUSH2 0x8F9 PUSH3 0x31B93B PUSH1 0xE9 SHL DUP11 DUP9 DUP5 PUSH2 0x214B JUMP JUMPDEST PUSH2 0x90B PUSH3 0x636E63 PUSH1 0xE8 SHL DUP9 DUP7 DUP5 PUSH2 0x214B JUMP JUMPDEST PUSH1 0x5 SLOAD PUSH1 0xFF AND PUSH2 0x926 JUMPI PUSH1 0x0 SWAP11 POP POP POP POP POP POP POP POP POP POP POP SWAP1 JUMP JUMPDEST PUSH1 0x40 MLOAD PUSH4 0x70A08231 PUSH1 0xE0 SHL DUP2 MSTORE PUSH1 0x1 PUSH1 0x1 PUSH1 0xA0 SHL SUB PUSH32 0x0 AND PUSH1 0x4 DUP3 ADD MSTORE PUSH1 0x0 SWAP1 PUSH20 0xD533A949740BB3306D119CC777FA900BA034CD52 SWAP1 PUSH4 0x70A08231 SWAP1 PUSH1 0x24 ADD PUSH1 0x20 PUSH1 0x40 MLOAD DUP1 DUP4 SUB DUP2 DUP7 GAS STATICCALL ISZERO DUP1 ISZERO PUSH2 0x9A1 JUMPI RETURNDATASIZE PUSH1 0x0 DUP1 RETURNDATACOPY RETURNDATASIZE PUSH1 0x0 REVERT JUMPDEST POP POP POP POP PUSH1 0x40 MLOAD RETURNDATASIZE PUSH1 0x1F NOT PUSH1 0x1F DUP3 ADD AND DUP3 ADD DUP1 PUSH1 0x40 MSTORE POP DUP2 ADD SWAP1 PUSH2 0x9C5 SWAP2 SWAP1 PUSH2 0x3F02 JUMP JUMPDEST DUP5 GT DUP1 PUSH2 0xA6C JUMPI POP PUSH1 0x40 MLOAD PUSH4 0x70A08231 PUSH1 0xE0 SHL DUP2 MSTORE PUSH1 0x1 PUSH1 0x1 PUSH1 0xA0 SHL SUB PUSH32 0x0 AND PUSH1 0x4 DUP3 ADD MSTORE PUSH20 0x4E3FBD56CD56C3E72C1403E103B45DB9DA5B9D2B SWAP1 PUSH4 0x70A08231 SWAP1 PUSH1 0x24 ADD PUSH1 0x20 PUSH1 0x40 MLOAD DUP1 DUP4 SUB DUP2 DUP7 GAS STATICCALL ISZERO DUP1 ISZERO PUSH2 0xA45 JUMPI RETURNDATASIZE PUSH1 0x0 DUP1 RETURNDATACOPY RETURNDATASIZE PUSH1 0x0 REVERT JUMPDEST POP POP POP POP PUSH1 0x40 MLOAD RETURNDATASIZE PUSH1 0x1F NOT PUSH1 0x1F DUP3 ADD AND DUP3 ADD DUP1 PUSH1 0x40 MSTORE POP DUP2 ADD SWAP1 PUSH2 0xA69 SWAP2 SWAP1 PUSH2 0x3F02 JUMP JUMPDEST DUP4 GT JUMPDEST ISZERO PUSH2 0xA7D JUMPI PUSH2 0xA79 PUSH2 0x218F JUMP JUMPDEST POP PUSH1 0x1 JUMPDEST PUSH2 0xABD PUSH20 0xD533A949740BB3306D119CC777FA900BA034CD52 PUSH32 0x0 ADDRESS DUP8 PUSH2 0x248F JUMP JUMPDEST PUSH2 0xAFD PUSH20 0x4E3FBD56CD56C3E72C1403E103B45DB9DA5B9D2B PUSH32 0x0 ADDRESS DUP7 PUSH2 0x248F JUMP JUMPDEST PUSH2 0xB3C PUSH20 0xD533A949740BB3306D119CC777FA900BA034CD52 PUSH32 0x0 DUP7 PUSH2 0x1AA4 JUMP JUMPDEST PUSH2 0xB7B PUSH20 0x4E3FBD56CD56C3E72C1403E103B45DB9DA5B9D2B PUSH32 0x0 DUP6 PUSH2 0x1AA4 JUMP JUMPDEST PUSH1 0x40 MLOAD PUSH4 0x9E690EB PUSH1 0xE3 SHL DUP2 MSTORE PUSH1 0x4 DUP2 ADD DUP6 SWAP1 MSTORE PUSH1 0x24 DUP2 ADD DUP5 SWAP1 MSTORE PUSH32 0x0 PUSH1 0x1 PUSH1 0x1 PUSH1 0xA0 SHL SUB AND SWAP1 PUSH4 0x4F348758 SWAP1 PUSH1 0x44 ADD PUSH1 0x0 PUSH1 0x40 MLOAD DUP1 DUP4 SUB DUP2 PUSH1 0x0 DUP8 DUP1 EXTCODESIZE ISZERO DUP1 ISZERO PUSH2 0xBE4 JUMPI PUSH1 0x0 DUP1 REVERT JUMPDEST POP GAS CALL ISZERO DUP1 ISZERO PUSH2 0xBF8 JUMPI RETURNDATASIZE PUSH1 0x0 DUP1 RETURNDATACOPY RETURNDATASIZE PUSH1 0x0 REVERT JUMPDEST POP SWAP3 SWAP15 SWAP14 POP POP POP POP POP POP POP POP POP POP POP POP POP POP JUMP JUMPDEST PUSH1 0x0 PUSH2 0xC16 PUSH2 0x1C0A JUMP JUMPDEST PUSH1 0x1 PUSH1 0x1 PUSH1 0xA0 SHL SUB DUP3 AND PUSH2 0xC5E JUMPI PUSH1 0x40 MLOAD PUSH3 0x461BCD PUSH1 0xE5 SHL DUP2 MSTORE PUSH1 0x20 PUSH1 0x4 DUP3 ADD MSTORE PUSH1 0xF PUSH1 0x24 DUP3 ADD MSTORE PUSH15 0x696E76616C69642061646472657373 PUSH1 0x88 SHL PUSH1 0x44 DUP3 ADD MSTORE PUSH1 0x64 ADD PUSH2 0x547 JUMP JUMPDEST PUSH1 0x1 PUSH1 0x1 PUSH1 0xA0 SHL SUB DUP3 AND PUSH20 0x4E3FBD56CD56C3E72C1403E103B45DB9DA5B9D2B EQ DUP1 ISZERO SWAP1 PUSH2 0xCA8 JUMPI POP PUSH1 0x1 PUSH1 0x1 PUSH1 0xA0 SHL SUB DUP3 AND PUSH20 0xD533A949740BB3306D119CC777FA900BA034CD52 EQ ISZERO JUMPDEST DUP1 ISZERO PUSH2 0xCE6 JUMPI POP PUSH32 0x0 PUSH1 0x1 PUSH1 0x1 PUSH1 0xA0 SHL SUB AND DUP3 PUSH1 0x1 PUSH1 0x1 PUSH1 0xA0 SHL SUB AND EQ ISZERO JUMPDEST DUP1 ISZERO PUSH2 0xD0F JUMPI POP PUSH1 0x1 PUSH1 0x1 PUSH1 0xA0 SHL SUB DUP3 AND PUSH20 0x9AE380F0272E2162340A5BB646C354271C0F5CFC EQ ISZERO JUMPDEST PUSH2 0xD4F JUMPI PUSH1 0x40 MLOAD PUSH3 0x461BCD PUSH1 0xE5 SHL DUP2 MSTORE PUSH1 0x20 PUSH1 0x4 DUP3 ADD MSTORE PUSH1 0x11 PUSH1 0x24 DUP3 ADD MSTORE PUSH17 0x1D1BDAD95B881B9BDD08185B1B1BDDD959 PUSH1 0x7A SHL PUSH1 0x44 DUP3 ADD MSTORE PUSH1 0x64 ADD PUSH2 0x547 JUMP JUMPDEST PUSH1 0x0 PUSH32 0x0 PUSH1 0x1 PUSH1 0x1 PUSH1 0xA0 SHL SUB AND PUSH4 0x6F934ABE PUSH1 0x40 MLOAD DUP2 PUSH4 0xFFFFFFFF AND PUSH1 0xE0 SHL DUP2 MSTORE PUSH1 0x4 ADD PUSH1 0x0 PUSH1 0x40 MLOAD DUP1 DUP4 SUB DUP2 DUP7 GAS STATICCALL ISZERO DUP1 ISZERO PUSH2 0xDAF JUMPI RETURNDATASIZE PUSH1 0x0 DUP1 RETURNDATACOPY RETURNDATASIZE PUSH1 0x0 REVERT JUMPDEST POP POP POP POP PUSH1 0x40 MLOAD RETURNDATASIZE PUSH1 0x0 DUP3 RETURNDATACOPY PUSH1 0x1F RETURNDATASIZE SWAP1 DUP2 ADD PUSH1 0x1F NOT AND DUP3 ADD PUSH1 0x40 MSTORE PUSH2 0xDD7 SWAP2 SWAP1 DUP2 ADD SWAP1 PUSH2 0x3F1B JUMP JUMPDEST SWAP1 POP PUSH1 0x0 JUMPDEST DUP2 MLOAD DUP2 LT ISZERO PUSH2 0xF67 JUMPI PUSH1 0x0 PUSH32 0x0 PUSH1 0x1 PUSH1 0x1 PUSH1 0xA0 SHL SUB AND PUSH4 0x9F82B217 PUSH1 0x40 MLOAD DUP2 PUSH4 0xFFFFFFFF AND PUSH1 0xE0 SHL DUP2 MSTORE PUSH1 0x4 ADD PUSH1 0x20 PUSH1 0x40 MLOAD DUP1 DUP4 SUB DUP2 DUP7 GAS STATICCALL ISZERO DUP1 ISZERO PUSH2 0xE45 JUMPI RETURNDATASIZE PUSH1 0x0 DUP1 RETURNDATACOPY RETURNDATASIZE PUSH1 0x0 REVERT JUMPDEST POP POP POP POP PUSH1 0x40 MLOAD RETURNDATASIZE PUSH1 0x1F NOT PUSH1 0x1F DUP3 ADD AND DUP3 ADD DUP1 PUSH1 0x40 MSTORE POP DUP2 ADD SWAP1 PUSH2 0xE69 SWAP2 SWAP1 PUSH2 0x3EBC JUMP JUMPDEST PUSH1 0x1 PUSH1 0x1 PUSH1 0xA0 SHL SUB AND PUSH4 0x76A562A4 DUP5 DUP5 DUP2 MLOAD DUP2 LT PUSH2 0xE89 JUMPI PUSH2 0xE89 PUSH2 0x3FAA JUMP JUMPDEST PUSH1 0x20 MUL PUSH1 0x20 ADD ADD MLOAD PUSH1 0x40 MLOAD DUP3 PUSH4 0xFFFFFFFF AND PUSH1 0xE0 SHL DUP2 MSTORE PUSH1 0x4 ADD PUSH2 0xEBC SWAP2 SWAP1 PUSH1 0x1 PUSH1 0x1 PUSH1 0xA0 SHL SUB SWAP2 SWAP1 SWAP2 AND DUP2 MSTORE PUSH1 0x20 ADD SWAP1 JUMP JUMPDEST PUSH1 0x20 PUSH1 0x40 MLOAD DUP1 DUP4 SUB DUP2 DUP7 GAS STATICCALL ISZERO DUP1 ISZERO PUSH2 0xED9 JUMPI RETURNDATASIZE PUSH1 0x0 DUP1 RETURNDATACOPY RETURNDATASIZE PUSH1 0x0 REVERT JUMPDEST POP POP POP POP PUSH1 0x40 MLOAD RETURNDATASIZE PUSH1 0x1F NOT PUSH1 0x1F DUP3 ADD AND DUP3 ADD DUP1 PUSH1 0x40 MSTORE POP DUP2 ADD SWAP1 PUSH2 0xEFD SWAP2 SWAP1 PUSH2 0x3EBC JUMP JUMPDEST SWAP1 POP DUP1 PUSH1 0x1 PUSH1 0x1 PUSH1 0xA0 SHL SUB AND DUP6 PUSH1 0x1 PUSH1 0x1 PUSH1 0xA0 SHL SUB AND SUB PUSH2 0xF54 JUMPI PUSH1 0x40 MLOAD PUSH3 0x461BCD PUSH1 0xE5 SHL DUP2 MSTORE PUSH1 0x20 PUSH1 0x4 DUP3 ADD MSTORE PUSH1 0x11 PUSH1 0x24 DUP3 ADD MSTORE PUSH17 0x1D1BDAD95B881B9BDD08185B1B1BDDD959 PUSH1 0x7A SHL PUSH1 0x44 DUP3 ADD MSTORE PUSH1 0x64 ADD PUSH2 0x547 JUMP JUMPDEST POP DUP1 PUSH2 0xF5F DUP2 PUSH2 0x3FC0 JUMP JUMPDEST SWAP2 POP POP PUSH2 0xDDC JUMP JUMPDEST POP PUSH2 0xF91 PUSH1 0x1 PUSH1 0x1 PUSH1 0xA0 SHL SUB DUP5 AND PUSH20 0xD9E1CE17F2641F24AE83637AB66A2CCA9C378B9F PUSH1 0x0 PUSH2 0x1AA4 JUMP JUMPDEST PUSH2 0xFBB PUSH1 0x1 PUSH1 0x1 PUSH1 0xA0 SHL SUB DUP5 AND PUSH20 0xD9E1CE17F2641F24AE83637AB66A2CCA9C378B9F PUSH1 0x0 NOT PUSH2 0x1AA4 JUMP JUMPDEST PUSH1 0x40 MLOAD PUSH1 0x1 PUSH1 0x1 PUSH1 0xA0 SHL SUB DUP5 AND DUP2 MSTORE PUSH32 0xD432E6F46DBF91C120FDFA95A1F4BF5C43F04D957FBC3A32E693BE0D29BF17B0 SWAP1 PUSH1 0x20 ADD PUSH1 0x40 MLOAD DUP1 SWAP2 SUB SWAP1 LOG1 PUSH2 0x1002 PUSH1 0x1 DUP5 PUSH2 0x24CD JUMP JUMPDEST SWAP2 POP POP JUMPDEST SWAP2 SWAP1 POP JUMP JUMPDEST PUSH1 0x60 PUSH2 0x1017 PUSH1 0x1 PUSH2 0x24E2 JUMP JUMPDEST SWAP1 POP SWAP1 JUMP JUMPDEST PUSH2 0x1024 PUSH2 0x1C0A JUMP JUMPDEST PUSH2 0x102E PUSH1 0x0 PUSH2 0x24EF JUMP JUMPDEST JUMP JUMPDEST PUSH2 0x1038 PUSH2 0x1C0A JUMP JUMPDEST PUSH2 0x1043 PUSH1 0x1 DUP3 PUSH2 0x253F JUMP JUMPDEST POP PUSH1 0x40 MLOAD PUSH1 0x1 PUSH1 0x1 PUSH1 0xA0 SHL SUB DUP3 AND DUP2 MSTORE PUSH32 0xE0F3B1406AB4DD940A92A081B1BCEF51DA212A57978CC8F6DDE5C89AB41A5AA7 SWAP1 PUSH1 0x20 ADD JUMPDEST PUSH1 0x40 MLOAD DUP1 SWAP2 SUB SWAP1 LOG1 POP JUMP JUMPDEST PUSH2 0x108C PUSH2 0x1C0A JUMP JUMPDEST PUSH8 0x429D069189E0000 DUP2 LT PUSH2 0x10F6 JUMPI PUSH1 0x40 MLOAD PUSH3 0x461BCD PUSH1 0xE5 SHL DUP2 MSTORE PUSH1 0x20 PUSH1 0x4 DUP3 ADD MSTORE PUSH1 0x2A PUSH1 0x24 DUP3 ADD MSTORE PUSH32 0x63616E6E6F7420736574206665652070657263656E7461676520746F206D6F72 PUSH1 0x44 DUP3 ADD MSTORE PUSH10 0x65207468616E20333025 PUSH1 0xB0 SHL PUSH1 0x64 DUP3 ADD MSTORE PUSH1 0x84 ADD PUSH2 0x547 JUMP JUMPDEST PUSH1 0x0 PUSH32 0x0 PUSH1 0x1 PUSH1 0x1 PUSH1 0xA0 SHL SUB AND PUSH4 0x631516C2 PUSH1 0x40 MLOAD DUP2 PUSH4 0xFFFFFFFF AND PUSH1 0xE0 SHL DUP2 MSTORE PUSH1 0x4 ADD PUSH1 0x20 PUSH1 0x40 MLOAD DUP1 DUP4 SUB DUP2 DUP7 GAS STATICCALL ISZERO DUP1 ISZERO PUSH2 0x1156 JUMPI RETURNDATASIZE PUSH1 0x0 DUP1 RETURNDATACOPY RETURNDATASIZE PUSH1 0x0 REVERT JUMPDEST POP POP POP POP PUSH1 0x40 MLOAD RETURNDATASIZE PUSH1 0x1F NOT PUSH1 0x1F DUP3 ADD AND DUP3 ADD DUP1 PUSH1 0x40 MSTORE POP DUP2 ADD SWAP1 PUSH2 0x117A SWAP2 SWAP1 PUSH2 0x3F02 JUMP JUMPDEST GT PUSH2 0x1184 JUMPI PUSH1 0x0 DUP1 REVERT JUMPDEST PUSH1 0x6 DUP2 SWAP1 SSTORE PUSH1 0x5 DUP1 SLOAD PUSH1 0xFF NOT AND PUSH1 0x1 OR SWAP1 SSTORE PUSH1 0x40 MLOAD PUSH32 0x3346AF6DA1932164D501F2EC28F8C5D686DB5828A36B77F2DA4332D89184FE7B SWAP1 PUSH2 0x1079 SWAP1 DUP4 DUP2 MSTORE PUSH1 0x20 ADD SWAP1 JUMP JUMPDEST PUSH2 0x11D1 DUP2 PUSH2 0x2554 JUMP JUMPDEST POP JUMP JUMPDEST PUSH1 0x0 DUP1 PUSH1 0x0 PUSH2 0x11E2 CALLER PUSH2 0x2554 JUMP JUMPDEST CALLER PUSH1 0x0 SWAP1 DUP2 MSTORE PUSH32 0xE435D5A83A779CF6192C429679F3E210B1EF61729756A280CA43F6042E409376 PUSH1 0x20 SWAP1 DUP2 MSTORE PUSH1 0x40 DUP1 DUP4 KECCAK256 SLOAD PUSH32 0x31E16C83F2524A334424F1D58F96614D72F11901DD6699C42D38F67C2A9EB5CF DUP4 MSTORE DUP2 DUP5 KECCAK256 SLOAD PUSH32 0x6E39C77D7CF74A2EE020F0DCE55B9495C576676D5CF0F00F7768F97036EF0C7E SWAP1 SWAP4 MSTORE SWAP3 DUP2 SWAP1 KECCAK256 SLOAD SWAP1 MLOAD PUSH4 0x70A08231 PUSH1 0xE0 SHL DUP2 MSTORE PUSH1 0x1 PUSH1 0x1 PUSH1 0xA0 SHL SUB PUSH32 0x0 AND PUSH1 0x4 DUP3 ADD MSTORE PUSH20 0xD533A949740BB3306D119CC777FA900BA034CD52 SWAP1 PUSH4 0x70A08231 SWAP1 PUSH1 0x24 ADD PUSH1 0x20 PUSH1 0x40 MLOAD DUP1 DUP4 SUB DUP2 DUP7 GAS STATICCALL ISZERO DUP1 ISZERO PUSH2 0x12DB JUMPI RETURNDATASIZE PUSH1 0x0 DUP1 RETURNDATACOPY RETURNDATASIZE PUSH1 0x0 REVERT JUMPDEST POP POP POP POP PUSH1 0x40 MLOAD RETURNDATASIZE PUSH1 0x1F NOT PUSH1 0x1F DUP3 ADD AND DUP3 ADD DUP1 PUSH1 0x40 MSTORE POP DUP2 ADD SWAP1 PUSH2 0x12FF SWAP2 SWAP1 PUSH2 0x3F02 JUMP JUMPDEST DUP4 GT DUP1 PUSH2 0x13A6 JUMPI POP PUSH1 0x40 MLOAD PUSH4 0x70A08231 PUSH1 0xE0 SHL DUP2 MSTORE PUSH1 0x1 PUSH1 0x1 PUSH1 0xA0 SHL SUB PUSH32 0x0 AND PUSH1 0x4 DUP3 ADD MSTORE PUSH20 0x4E3FBD56CD56C3E72C1403E103B45DB9DA5B9D2B SWAP1 PUSH4 0x70A08231 SWAP1 PUSH1 0x24 ADD PUSH1 0x20 PUSH1 0x40 MLOAD DUP1 DUP4 SUB DUP2 DUP7 GAS STATICCALL ISZERO DUP1 ISZERO PUSH2 0x137F JUMPI RETURNDATASIZE PUSH1 0x0 DUP1 RETURNDATACOPY RETURNDATASIZE PUSH1 0x0 REVERT JUMPDEST POP POP POP POP PUSH1 0x40 MLOAD RETURNDATASIZE PUSH1 0x1F NOT PUSH1 0x1F DUP3 ADD AND DUP3 ADD DUP1 PUSH1 0x40 MSTORE POP DUP2 ADD SWAP1 PUSH2 0x13A3 SWAP2 SWAP1 PUSH2 0x3F02 JUMP JUMPDEST DUP3 GT JUMPDEST DUP1 PUSH2 0x144B JUMPI POP PUSH1 0x40 MLOAD PUSH4 0x70A08231 PUSH1 0xE0 SHL DUP2 MSTORE PUSH1 0x1 PUSH1 0x1 PUSH1 0xA0 SHL SUB PUSH32 0x0 AND PUSH1 0x4 DUP3 ADD MSTORE PUSH20 0x9AE380F0272E2162340A5BB646C354271C0F5CFC SWAP1 PUSH4 0x70A08231 SWAP1 PUSH1 0x24 ADD PUSH1 0x20 PUSH1 0x40 MLOAD DUP1 DUP4 SUB DUP2 DUP7 GAS STATICCALL ISZERO DUP1 ISZERO PUSH2 0x1424 JUMPI RETURNDATASIZE PUSH1 0x0 DUP1 RETURNDATACOPY RETURNDATASIZE PUSH1 0x0 REVERT JUMPDEST POP POP POP POP PUSH1 0x40 MLOAD RETURNDATASIZE PUSH1 0x1F NOT PUSH1 0x1F DUP3 ADD AND DUP3 ADD DUP1 PUSH1 0x40 MSTORE POP DUP2 ADD SWAP1 PUSH2 0x1448 SWAP2 SWAP1 PUSH2 0x3F02 JUMP JUMPDEST DUP2 GT JUMPDEST ISZERO PUSH2 0x1458 JUMPI PUSH2 0x1458 PUSH2 0x218F JUMP JUMPDEST CALLER PUSH1 0x0 DUP2 DUP2 MSTORE PUSH32 0x6E39C77D7CF74A2EE020F0DCE55B9495C576676D5CF0F00F7768F97036EF0C7E PUSH1 0x20 SWAP1 DUP2 MSTORE PUSH1 0x40 DUP1 DUP4 KECCAK256 DUP4 SWAP1 SSTORE PUSH32 0x31E16C83F2524A334424F1D58F96614D72F11901DD6699C42D38F67C2A9EB5CF DUP3 MSTORE DUP1 DUP4 KECCAK256 DUP4 SWAP1 SSTORE PUSH32 0xE435D5A83A779CF6192C429679F3E210B1EF61729756A280CA43F6042E409376 SWAP1 SWAP2 MSTORE DUP2 KECCAK256 SSTORE PUSH2 0x151E SWAP1 PUSH20 0xD533A949740BB3306D119CC777FA900BA034CD52 SWAP1 PUSH32 0x0 SWAP1 DUP7 PUSH2 0x248F JUMP JUMPDEST PUSH2 0x155E PUSH20 0x4E3FBD56CD56C3E72C1403E103B45DB9DA5B9D2B PUSH32 0x0 CALLER DUP6 PUSH2 0x248F JUMP JUMPDEST PUSH2 0x159E PUSH20 0x9AE380F0272E2162340A5BB646C354271C0F5CFC PUSH32 0x0 CALLER DUP5 PUSH2 0x248F JUMP JUMPDEST PUSH1 0x0 DUP1 PUSH1 0x0 PUSH2 0x162D PUSH32 0x0 PUSH1 0x1 PUSH1 0x1 PUSH1 0xA0 SHL SUB AND PUSH4 0xB050ECB8 PUSH1 0x40 MLOAD DUP2 PUSH4 0xFFFFFFFF AND PUSH1 0xE0 SHL DUP2 MSTORE PUSH1 0x4 ADD PUSH1 0x20 PUSH1 0x40 MLOAD DUP1 DUP4 SUB DUP2 DUP7 GAS STATICCALL ISZERO DUP1 ISZERO PUSH2 0x1604 JUMPI RETURNDATASIZE PUSH1 0x0 DUP1 RETURNDATACOPY RETURNDATASIZE PUSH1 0x0 REVERT JUMPDEST POP POP POP POP PUSH1 0x40 MLOAD RETURNDATASIZE PUSH1 0x1F NOT PUSH1 0x1F DUP3 ADD AND DUP3 ADD DUP1 PUSH1 0x40 MSTORE POP DUP2 ADD SWAP1 PUSH2 0x1628 SWAP2 SWAP1 PUSH2 0x3EBC JUMP JUMPDEST PUSH2 0x1C64 JUMP JUMPDEST PUSH1 0x4 PUSH1 0x20 SWAP1 DUP2 MSTORE PUSH32 0xE435D5A83A779CF6192C429679F3E210B1EF61729756A280CA43F6042E409374 DUP5 SWAP1 SSTORE PUSH32 0x31E16C83F2524A334424F1D58F96614D72F11901DD6699C42D38F67C2A9EB5CD DUP4 SWAP1 SSTORE PUSH3 0x636E63 PUSH1 0xE8 SHL PUSH1 0x0 MSTORE PUSH32 0x6E39C77D7CF74A2EE020F0DCE55B9495C576676D5CF0F00F7768F97036EF0C7C DUP3 SWAP1 SSTORE PUSH1 0x40 DUP1 MLOAD DUP10 DUP2 MSTORE SWAP2 DUP3 ADD DUP12 SWAP1 MSTORE DUP2 ADD DUP10 SWAP1 MSTORE SWAP3 SWAP6 POP SWAP1 SWAP4 POP SWAP2 POP CALLER SWAP1 PUSH32 0x6F39318C760AD4D630F57BA8F8D3C21B8E1DEB076E19476D1DECE4E3D737E7A SWAP1 PUSH1 0x60 ADD PUSH1 0x40 MLOAD DUP1 SWAP2 SUB SWAP1 LOG2 POP SWAP2 SWAP8 SWAP4 SWAP7 POP SWAP2 SWAP5 POP SWAP2 SWAP3 POP POP POP JUMP JUMPDEST PUSH1 0x0 DUP1 PUSH1 0x0 DUP1 PUSH32 0x0 PUSH1 0x1 PUSH1 0x1 PUSH1 0xA0 SHL SUB AND PUSH4 0x48439E7E PUSH1 0x40 MLOAD DUP2 PUSH4 0xFFFFFFFF AND PUSH1 0xE0 SHL DUP2 MSTORE PUSH1 0x4 ADD PUSH1 0x20 PUSH1 0x40 MLOAD DUP1 DUP4 SUB DUP2 DUP7 GAS STATICCALL ISZERO DUP1 ISZERO PUSH2 0x1767 JUMPI RETURNDATASIZE PUSH1 0x0 DUP1 RETURNDATACOPY RETURNDATASIZE PUSH1 0x0 REVERT JUMPDEST POP POP POP POP PUSH1 0x40 MLOAD RETURNDATASIZE PUSH1 0x1F NOT PUSH1 0x1F DUP3 ADD AND DUP3 ADD DUP1 PUSH1 0x40 MSTORE POP DUP2 ADD SWAP1 PUSH2 0x178B SWAP2 SWAP1 PUSH2 0x3EBC JUMP JUMPDEST PUSH1 0x40 MLOAD PUSH4 0x5598B209 PUSH1 0xE0 SHL DUP2 MSTORE PUSH1 0x1 PUSH1 0x1 PUSH1 0xA0 SHL SUB PUSH32 0x0 DUP2 AND PUSH1 0x4 DUP4 ADD MSTORE SWAP2 SWAP1 SWAP2 AND SWAP1 PUSH4 0x5598B209 SWAP1 PUSH1 0x24 ADD PUSH1 0x20 PUSH1 0x40 MLOAD DUP1 DUP4 SUB DUP2 DUP7 GAS STATICCALL ISZERO DUP1 ISZERO PUSH2 0x17F3 JUMPI RETURNDATASIZE PUSH1 0x0 DUP1 RETURNDATACOPY RETURNDATASIZE PUSH1 0x0 REVERT JUMPDEST POP POP POP POP PUSH1 0x40 MLOAD RETURNDATASIZE PUSH1 0x1F NOT PUSH1 0x1F DUP3 ADD AND DUP3 ADD DUP1 PUSH1 0x40 MSTORE POP DUP2 ADD SWAP1 PUSH2 0x1817 SWAP2 SWAP1 PUSH2 0x3F02 JUMP JUMPDEST SWAP1 POP DUP1 PUSH1 0x0 SUB PUSH2 0x1832 JUMPI PUSH1 0x0 DUP1 PUSH1 0x0 SWAP4 POP SWAP4 POP SWAP4 POP POP PUSH2 0x19C6 JUMP JUMPDEST PUSH1 0x0 DUP1 PUSH1 0x0 PUSH2 0x183F PUSH2 0x26AA JUMP JUMPDEST SWAP3 POP SWAP3 POP SWAP3 POP PUSH1 0x0 PUSH32 0x0 PUSH1 0x1 PUSH1 0x1 PUSH1 0xA0 SHL SUB AND PUSH4 0x48439E7E PUSH1 0x40 MLOAD DUP2 PUSH4 0xFFFFFFFF AND PUSH1 0xE0 SHL DUP2 MSTORE PUSH1 0x4 ADD PUSH1 0x20 PUSH1 0x40 MLOAD DUP1 DUP4 SUB DUP2 DUP7 GAS STATICCALL ISZERO DUP1 ISZERO PUSH2 0x18A5 JUMPI RETURNDATASIZE PUSH1 0x0 DUP1 RETURNDATACOPY RETURNDATASIZE PUSH1 0x0 REVERT JUMPDEST POP POP POP POP PUSH1 0x40 MLOAD RETURNDATASIZE PUSH1 0x1F NOT PUSH1 0x1F DUP3 ADD AND DUP3 ADD DUP1 PUSH1 0x40 MSTORE POP DUP2 ADD SWAP1 PUSH2 0x18C9 SWAP2 SWAP1 PUSH2 0x3EBC JUMP JUMPDEST PUSH1 0x40 MLOAD PUSH4 0x7D2041E5 PUSH1 0xE1 SHL DUP2 MSTORE PUSH1 0x1 PUSH1 0x1 PUSH1 0xA0 SHL SUB PUSH32 0x0 DUP2 AND PUSH1 0x4 DUP4 ADD MSTORE DUP12 DUP2 AND PUSH1 0x24 DUP4 ADD MSTORE SWAP2 SWAP1 SWAP2 AND SWAP1 PUSH4 0xFA4083CA SWAP1 PUSH1 0x44 ADD PUSH1 0x20 PUSH1 0x40 MLOAD DUP1 DUP4 SUB DUP2 DUP7 GAS STATICCALL ISZERO DUP1 ISZERO PUSH2 0x1939 JUMPI RETURNDATASIZE PUSH1 0x0 DUP1 RETURNDATACOPY RETURNDATASIZE PUSH1 0x0 REVERT JUMPDEST POP POP POP POP PUSH1 0x40 MLOAD RETURNDATASIZE PUSH1 0x1F NOT PUSH1 0x1F DUP3 ADD AND DUP3 ADD DUP1 PUSH1 0x40 MSTORE POP DUP2 ADD SWAP1 PUSH2 0x195D SWAP2 SWAP1 PUSH2 0x3F02 JUMP JUMPDEST SWAP1 POP PUSH2 0x1974 DUP10 PUSH3 0x636E63 PUSH1 0xE8 SHL DUP5 DUP5 DUP10 PUSH1 0x0 PUSH2 0x2749 JUMP JUMPDEST SWAP8 POP PUSH2 0x1999 DUP10 PUSH3 0x31B93B PUSH1 0xE9 SHL DUP7 DUP5 DUP10 PUSH1 0x5 PUSH1 0x0 SWAP1 SLOAD SWAP1 PUSH2 0x100 EXP SWAP1 DIV PUSH1 0xFF AND PUSH2 0x2749 JUMP JUMPDEST SWAP7 POP PUSH2 0x19BE DUP10 PUSH3 0xC6ECF PUSH1 0xEB SHL DUP6 DUP5 DUP10 PUSH1 0x5 PUSH1 0x0 SWAP1 SLOAD SWAP1 PUSH2 0x100 EXP SWAP1 DIV PUSH1 0xFF AND PUSH2 0x2749 JUMP JUMPDEST SWAP6 POP POP POP POP POP POP JUMPDEST SWAP2 SWAP4 SWAP1 SWAP3 POP JUMP JUMPDEST PUSH2 0x19D5 PUSH2 0x5F5 JUMP JUMPDEST PUSH2 0x102E JUMPI PUSH2 0x102E PUSH2 0x218F JUMP JUMPDEST PUSH2 0x19E9 PUSH2 0x1C0A JUMP JUMPDEST PUSH1 0x1 PUSH1 0x1 PUSH1 0xA0 SHL SUB DUP2 AND PUSH2 0x1A4E JUMPI PUSH1 0x40 MLOAD PUSH3 0x461BCD PUSH1 0xE5 SHL DUP2 MSTORE PUSH1 0x20 PUSH1 0x4 DUP3 ADD MSTORE PUSH1 0x26 PUSH1 0x24 DUP3 ADD MSTORE PUSH32 0x4F776E61626C653A206E6577206F776E657220697320746865207A65726F2061 PUSH1 0x44 DUP3 ADD MSTORE PUSH6 0x646472657373 PUSH1 0xD0 SHL PUSH1 0x64 DUP3 ADD MSTORE PUSH1 0x84 ADD PUSH2 0x547 JUMP JUMPDEST PUSH2 0x11D1 DUP2 PUSH2 0x24EF JUMP JUMPDEST PUSH2 0x1A5F PUSH2 0x1C0A JUMP JUMPDEST PUSH1 0x0 JUMPDEST DUP2 MLOAD DUP2 LT ISZERO PUSH2 0x1AA0 JUMPI PUSH2 0x1A8D DUP3 DUP3 DUP2 MLOAD DUP2 LT PUSH2 0x1A80 JUMPI PUSH2 0x1A80 PUSH2 0x3FAA JUMP JUMPDEST PUSH1 0x20 MUL PUSH1 0x20 ADD ADD MLOAD PUSH2 0xC0C JUMP JUMPDEST POP DUP1 PUSH2 0x1A98 DUP2 PUSH2 0x3FC0 JUMP JUMPDEST SWAP2 POP POP PUSH2 0x1A62 JUMP JUMPDEST POP POP JUMP JUMPDEST DUP1 ISZERO DUP1 PUSH2 0x1B1E JUMPI POP PUSH1 0x40 MLOAD PUSH4 0x6EB1769F PUSH1 0xE1 SHL DUP2 MSTORE ADDRESS PUSH1 0x4 DUP3 ADD MSTORE PUSH1 0x1 PUSH1 0x1 PUSH1 0xA0 SHL SUB DUP4 DUP2 AND PUSH1 0x24 DUP4 ADD MSTORE DUP5 AND SWAP1 PUSH4 0xDD62ED3E SWAP1 PUSH1 0x44 ADD PUSH1 0x20 PUSH1 0x40 MLOAD DUP1 DUP4 SUB DUP2 DUP7 GAS STATICCALL ISZERO DUP1 ISZERO PUSH2 0x1AF8 JUMPI RETURNDATASIZE PUSH1 0x0 DUP1 RETURNDATACOPY RETURNDATASIZE PUSH1 0x0 REVERT JUMPDEST POP POP POP POP PUSH1 0x40 MLOAD RETURNDATASIZE PUSH1 0x1F NOT PUSH1 0x1F DUP3 ADD AND DUP3 ADD DUP1 PUSH1 0x40 MSTORE POP DUP2 ADD SWAP1 PUSH2 0x1B1C SWAP2 SWAP1 PUSH2 0x3F02 JUMP JUMPDEST ISZERO JUMPDEST PUSH2 0x1B89 JUMPI PUSH1 0x40 MLOAD PUSH3 0x461BCD PUSH1 0xE5 SHL DUP2 MSTORE PUSH1 0x20 PUSH1 0x4 DUP3 ADD MSTORE PUSH1 0x36 PUSH1 0x24 DUP3 ADD MSTORE PUSH32 0x5361666545524332303A20617070726F76652066726F6D206E6F6E2D7A65726F PUSH1 0x44 DUP3 ADD MSTORE PUSH22 0x20746F206E6F6E2D7A65726F20616C6C6F77616E6365 PUSH1 0x50 SHL PUSH1 0x64 DUP3 ADD MSTORE PUSH1 0x84 ADD PUSH2 0x547 JUMP JUMPDEST PUSH1 0x40 MLOAD PUSH1 0x1 PUSH1 0x1 PUSH1 0xA0 SHL SUB DUP4 AND PUSH1 0x24 DUP3 ADD MSTORE PUSH1 0x44 DUP2 ADD DUP3 SWAP1 MSTORE PUSH2 0x1BEC SWAP1 DUP5 SWAP1 PUSH4 0x95EA7B3 PUSH1 0xE0 SHL SWAP1 PUSH1 0x64 ADD JUMPDEST PUSH1 0x40 DUP1 MLOAD PUSH1 0x1F NOT DUP2 DUP5 SUB ADD DUP2 MSTORE SWAP2 SWAP1 MSTORE PUSH1 0x20 DUP2 ADD DUP1 MLOAD PUSH1 0x1 PUSH1 0x1 PUSH1 0xE0 SHL SUB AND PUSH1 0x1 PUSH1 0x1 PUSH1 0xE0 SHL SUB NOT SWAP1 SWAP4 AND SWAP3 SWAP1 SWAP3 OR SWAP1 SWAP2 MSTORE PUSH2 0x2816 JUMP JUMPDEST POP POP POP JUMP JUMPDEST PUSH1 0x60 PUSH2 0x1C00 DUP5 DUP5 PUSH1 0x0 DUP6 PUSH2 0x28E8 JUMP JUMPDEST SWAP1 POP JUMPDEST SWAP4 SWAP3 POP POP POP JUMP JUMPDEST PUSH1 0x0 SLOAD PUSH1 0x1 PUSH1 0x1 PUSH1 0xA0 SHL SUB AND CALLER EQ PUSH2 0x102E JUMPI PUSH1 0x40 MLOAD PUSH3 0x461BCD PUSH1 0xE5 SHL DUP2 MSTORE PUSH1 0x20 PUSH1 0x4 DUP3 ADD DUP2 SWAP1 MSTORE PUSH1 0x24 DUP3 ADD MSTORE PUSH32 0x4F776E61626C653A2063616C6C6572206973206E6F7420746865206F776E6572 PUSH1 0x44 DUP3 ADD MSTORE PUSH1 0x64 ADD PUSH2 0x547 JUMP JUMPDEST PUSH1 0x0 DUP1 PUSH1 0x0 DUP1 PUSH32 0x0 PUSH1 0x1 PUSH1 0x1 PUSH1 0xA0 SHL SUB AND PUSH4 0x6F934ABE PUSH1 0x40 MLOAD DUP2 PUSH4 0xFFFFFFFF AND PUSH1 0xE0 SHL DUP2 MSTORE PUSH1 0x4 ADD PUSH1 0x0 PUSH1 0x40 MLOAD DUP1 DUP4 SUB DUP2 DUP7 GAS STATICCALL ISZERO DUP1 ISZERO PUSH2 0x1CC8 JUMPI RETURNDATASIZE PUSH1 0x0 DUP1 RETURNDATACOPY RETURNDATASIZE PUSH1 0x0 REVERT JUMPDEST POP POP POP POP PUSH1 0x40 MLOAD RETURNDATASIZE PUSH1 0x0 DUP3 RETURNDATACOPY PUSH1 0x1F RETURNDATASIZE SWAP1 DUP2 ADD PUSH1 0x1F NOT AND DUP3 ADD PUSH1 0x40 MSTORE PUSH2 0x1CF0 SWAP2 SWAP1 DUP2 ADD SWAP1 PUSH2 0x3F1B JUMP JUMPDEST SWAP1 POP PUSH1 0x0 DUP6 PUSH1 0x1 PUSH1 0x1 PUSH1 0xA0 SHL SUB AND PUSH4 0xD8335008 PUSH32 0x0 DUP5 PUSH1 0x40 MLOAD DUP4 PUSH4 0xFFFFFFFF AND PUSH1 0xE0 SHL DUP2 MSTORE PUSH1 0x4 ADD PUSH2 0x1D42 SWAP3 SWAP2 SWAP1 PUSH2 0x3FD9 JUMP JUMPDEST PUSH1 0x20 PUSH1 0x40 MLOAD DUP1 DUP4 SUB DUP2 DUP7 GAS STATICCALL ISZERO DUP1 ISZERO PUSH2 0x1D5F JUMPI RETURNDATASIZE PUSH1 0x0 DUP1 RETURNDATACOPY RETURNDATASIZE PUSH1 0x0 REVERT JUMPDEST POP POP POP POP PUSH1 0x40 MLOAD RETURNDATASIZE PUSH1 0x1F NOT PUSH1 0x1F DUP3 ADD AND DUP3 ADD DUP1 PUSH1 0x40 MSTORE POP DUP2 ADD SWAP1 PUSH2 0x1D83 SWAP2 SWAP1 PUSH2 0x3F02 JUMP JUMPDEST PUSH1 0x40 MLOAD PUSH4 0x70A08231 PUSH1 0xE0 SHL DUP2 MSTORE PUSH1 0x1 PUSH1 0x1 PUSH1 0xA0 SHL SUB PUSH32 0x0 AND PUSH1 0x4 DUP3 ADD MSTORE SWAP1 SWAP2 POP DUP2 SWAP1 PUSH20 0xD533A949740BB3306D119CC777FA900BA034CD52 SWAP1 PUSH4 0x70A08231 SWAP1 PUSH1 0x24 ADD PUSH1 0x20 PUSH1 0x40 MLOAD DUP1 DUP4 SUB DUP2 DUP7 GAS STATICCALL ISZERO DUP1 ISZERO PUSH2 0x1E00 JUMPI RETURNDATASIZE PUSH1 0x0 DUP1 RETURNDATACOPY RETURNDATASIZE PUSH1 0x0 REVERT JUMPDEST POP POP POP POP PUSH1 0x40 MLOAD RETURNDATASIZE PUSH1 0x1F NOT PUSH1 0x1F DUP3 ADD AND DUP3 ADD DUP1 PUSH1 0x40 MSTORE POP DUP2 ADD SWAP1 PUSH2 0x1E24 SWAP2 SWAP1 PUSH2 0x3F02 JUMP JUMPDEST PUSH2 0x1E2E SWAP2 SWAP1 PUSH2 0x3FFD JUMP JUMPDEST PUSH1 0x40 MLOAD PUSH4 0x323808CD PUSH1 0xE0 SHL DUP2 MSTORE PUSH1 0x4 DUP2 ADD DUP4 SWAP1 MSTORE SWAP1 SWAP6 POP PUSH1 0x0 SWAP1 PUSH1 0x1 PUSH1 0x1 PUSH1 0xA0 SHL SUB DUP9 AND SWAP1 PUSH4 0x323808CD SWAP1 PUSH1 0x24 ADD PUSH1 0x20 PUSH1 0x40 MLOAD DUP1 DUP4 SUB DUP2 DUP7 GAS STATICCALL ISZERO DUP1 ISZERO PUSH2 0x1E79 JUMPI RETURNDATASIZE PUSH1 0x0 DUP1 RETURNDATACOPY RETURNDATASIZE PUSH1 0x0 REVERT JUMPDEST POP POP POP POP PUSH1 0x40 MLOAD RETURNDATASIZE PUSH1 0x1F NOT PUSH1 0x1F DUP3 ADD AND DUP3 ADD DUP1 PUSH1 0x40 MSTORE POP DUP2 ADD SWAP1 PUSH2 0x1E9D SWAP2 SWAP1 PUSH2 0x3F02 JUMP JUMPDEST PUSH1 0x40 MLOAD PUSH4 0x70A08231 PUSH1 0xE0 SHL DUP2 MSTORE PUSH1 0x1 PUSH1 0x1 PUSH1 0xA0 SHL SUB PUSH32 0x0 AND PUSH1 0x4 DUP3 ADD MSTORE SWAP1 SWAP2 POP DUP2 SWAP1 PUSH20 0x4E3FBD56CD56C3E72C1403E103B45DB9DA5B9D2B SWAP1 PUSH4 0x70A08231 SWAP1 PUSH1 0x24 ADD PUSH1 0x20 PUSH1 0x40 MLOAD DUP1 DUP4 SUB DUP2 DUP7 GAS STATICCALL ISZERO DUP1 ISZERO PUSH2 0x1F1A JUMPI RETURNDATASIZE PUSH1 0x0 DUP1 RETURNDATACOPY RETURNDATASIZE PUSH1 0x0 REVERT JUMPDEST POP POP POP POP PUSH1 0x40 MLOAD RETURNDATASIZE PUSH1 0x1F NOT PUSH1 0x1F DUP3 ADD AND DUP3 ADD DUP1 PUSH1 0x40 MSTORE POP DUP2 ADD SWAP1 PUSH2 0x1F3E SWAP2 SWAP1 PUSH2 0x3F02 JUMP JUMPDEST PUSH2 0x1F48 SWAP2 SWAP1 PUSH2 0x3FFD JUMP JUMPDEST PUSH1 0x40 MLOAD PUSH4 0x70A08231 PUSH1 0xE0 SHL DUP2 MSTORE PUSH1 0x1 PUSH1 0x1 PUSH1 0xA0 SHL SUB PUSH32 0x0 AND PUSH1 0x4 DUP3 ADD MSTORE SWAP1 SWAP6 POP PUSH20 0x9AE380F0272E2162340A5BB646C354271C0F5CFC SWAP1 PUSH4 0x70A08231 SWAP1 PUSH1 0x24 ADD PUSH1 0x20 PUSH1 0x40 MLOAD DUP1 DUP4 SUB DUP2 DUP7 GAS STATICCALL ISZERO DUP1 ISZERO PUSH2 0x1FC3 JUMPI RETURNDATASIZE PUSH1 0x0 DUP1 RETURNDATACOPY RETURNDATASIZE PUSH1 0x0 REVERT JUMPDEST POP POP POP POP PUSH1 0x40 MLOAD RETURNDATASIZE PUSH1 0x1F NOT PUSH1 0x1F DUP3 ADD AND DUP3 ADD DUP1 PUSH1 0x40 MSTORE POP DUP2 ADD SWAP1 PUSH2 0x1FE7 SWAP2 SWAP1 PUSH2 0x3F02 JUMP JUMPDEST PUSH1 0x0 SLOAD SWAP1 SWAP5 POP PUSH1 0x1 PUSH1 0xA0 SHL SWAP1 DIV PUSH1 0xFF AND PUSH2 0x2116 JUMPI PUSH32 0x0 PUSH1 0x1 PUSH1 0x1 PUSH1 0xA0 SHL SUB AND PUSH4 0x48439E7E PUSH1 0x40 MLOAD DUP2 PUSH4 0xFFFFFFFF AND PUSH1 0xE0 SHL DUP2 MSTORE PUSH1 0x4 ADD PUSH1 0x20 PUSH1 0x40 MLOAD DUP1 DUP4 SUB DUP2 DUP7 GAS STATICCALL ISZERO DUP1 ISZERO PUSH2 0x2059 JUMPI RETURNDATASIZE PUSH1 0x0 DUP1 RETURNDATACOPY RETURNDATASIZE PUSH1 0x0 REVERT JUMPDEST POP POP POP POP PUSH1 0x40 MLOAD RETURNDATASIZE PUSH1 0x1F NOT PUSH1 0x1F DUP3 ADD AND DUP3 ADD DUP1 PUSH1 0x40 MSTORE POP DUP2 ADD SWAP1 PUSH2 0x207D SWAP2 SWAP1 PUSH2 0x3EBC JUMP JUMPDEST PUSH1 0x40 MLOAD PUSH4 0x34D21EA3 PUSH1 0xE2 SHL DUP2 MSTORE PUSH1 0x1 PUSH1 0x1 PUSH1 0xA0 SHL SUB PUSH32 0x0 DUP2 AND PUSH1 0x4 DUP4 ADD MSTORE SWAP2 SWAP1 SWAP2 AND SWAP1 PUSH4 0xD3487A8C SWAP1 PUSH1 0x24 ADD PUSH1 0x20 PUSH1 0x40 MLOAD DUP1 DUP4 SUB DUP2 DUP7 GAS STATICCALL ISZERO DUP1 ISZERO PUSH2 0x20E5 JUMPI RETURNDATASIZE PUSH1 0x0 DUP1 RETURNDATACOPY RETURNDATASIZE PUSH1 0x0 REVERT JUMPDEST POP POP POP POP PUSH1 0x40 MLOAD RETURNDATASIZE PUSH1 0x1F NOT PUSH1 0x1F DUP3 ADD AND DUP3 ADD DUP1 PUSH1 0x40 MSTORE POP DUP2 ADD SWAP1 PUSH2 0x2109 SWAP2 SWAP1 PUSH2 0x3F02 JUMP JUMPDEST PUSH2 0x2113 SWAP1 DUP6 PUSH2 0x3FFD JUMP JUMPDEST SWAP4 POP JUMPDEST POP POP POP SWAP2 SWAP4 SWAP1 SWAP3 POP JUMP JUMPDEST PUSH1 0x0 PUSH2 0x212E PUSH1 0x12 PUSH1 0xA PUSH2 0x40F4 JUMP JUMPDEST PUSH2 0x2138 DUP4 DUP6 PUSH2 0x4100 JUMP JUMPDEST PUSH2 0x2142 SWAP2 SWAP1 PUSH2 0x4117 JUMP JUMPDEST SWAP1 POP JUMPDEST SWAP3 SWAP2 POP POP JUMP JUMPDEST PUSH2 0x2155 DUP3 DUP3 PUSH2 0x29C5 JUMP JUMPDEST PUSH1 0x0 DUP6 DUP2 MSTORE PUSH1 0x4 PUSH1 0x20 MSTORE PUSH1 0x40 DUP2 KECCAK256 DUP1 SLOAD SWAP1 SWAP2 SWAP1 PUSH2 0x2173 SWAP1 DUP5 SWAP1 PUSH2 0x3FFD JUMP JUMPDEST SWAP1 SWAP2 SSTORE POP POP POP PUSH1 0x0 SWAP3 DUP4 MSTORE POP PUSH1 0x4 PUSH1 0x20 MSTORE PUSH1 0x40 SWAP1 SWAP2 KECCAK256 PUSH1 0x1 ADD SSTORE JUMP JUMPDEST PUSH2 0x2197 PUSH2 0x29DE JUMP JUMPDEST PUSH1 0x40 MLOAD PUSH4 0x70A08231 PUSH1 0xE0 SHL DUP2 MSTORE PUSH1 0x1 PUSH1 0x1 PUSH1 0xA0 SHL SUB PUSH32 0x0 AND PUSH1 0x4 DUP3 ADD MSTORE PUSH1 0x0 SWAP1 PUSH20 0x9AE380F0272E2162340A5BB646C354271C0F5CFC SWAP1 PUSH4 0x70A08231 SWAP1 PUSH1 0x24 ADD PUSH1 0x20 PUSH1 0x40 MLOAD DUP1 DUP4 SUB DUP2 DUP7 GAS STATICCALL ISZERO DUP1 ISZERO PUSH2 0x2212 JUMPI RETURNDATASIZE PUSH1 0x0 DUP1 RETURNDATACOPY RETURNDATASIZE PUSH1 0x0 REVERT JUMPDEST POP POP POP POP PUSH1 0x40 MLOAD RETURNDATASIZE PUSH1 0x1F NOT PUSH1 0x1F DUP3 ADD AND DUP3 ADD DUP1 PUSH1 0x40 MSTORE POP DUP2 ADD SWAP1 PUSH2 0x2236 SWAP2 SWAP1 PUSH2 0x3F02 JUMP JUMPDEST SWAP1 POP PUSH2 0x2240 PUSH2 0x2F6D JUMP JUMPDEST PUSH1 0x40 MLOAD PUSH4 0x70A08231 PUSH1 0xE0 SHL DUP2 MSTORE PUSH1 0x1 PUSH1 0x1 PUSH1 0xA0 SHL SUB PUSH32 0x0 AND PUSH1 0x4 DUP3 ADD MSTORE PUSH1 0x0 SWAP1 DUP3 SWAP1 PUSH20 0x9AE380F0272E2162340A5BB646C354271C0F5CFC SWAP1 PUSH4 0x70A08231 SWAP1 PUSH1 0x24 ADD PUSH1 0x20 PUSH1 0x40 MLOAD DUP1 DUP4 SUB DUP2 DUP7 GAS STATICCALL ISZERO DUP1 ISZERO PUSH2 0x22BD JUMPI RETURNDATASIZE PUSH1 0x0 DUP1 RETURNDATACOPY RETURNDATASIZE PUSH1 0x0 REVERT JUMPDEST POP POP POP POP PUSH1 0x40 MLOAD RETURNDATASIZE PUSH1 0x1F NOT PUSH1 0x1F DUP3 ADD AND DUP3 ADD DUP1 PUSH1 0x40 MSTORE POP DUP2 ADD SWAP1 PUSH2 0x22E1 SWAP2 SWAP1 PUSH2 0x3F02 JUMP JUMPDEST PUSH2 0x22EB SWAP2 SWAP1 PUSH2 0x3EEF JUMP JUMPDEST SWAP1 POP PUSH1 0x0 PUSH32 0x0 PUSH1 0x1 PUSH1 0x1 PUSH1 0xA0 SHL SUB AND PUSH4 0x48439E7E PUSH1 0x40 MLOAD DUP2 PUSH4 0xFFFFFFFF AND PUSH1 0xE0 SHL DUP2 MSTORE PUSH1 0x4 ADD PUSH1 0x20 PUSH1 0x40 MLOAD DUP1 DUP4 SUB DUP2 DUP7 GAS STATICCALL ISZERO DUP1 ISZERO PUSH2 0x234D JUMPI RETURNDATASIZE PUSH1 0x0 DUP1 RETURNDATACOPY RETURNDATASIZE PUSH1 0x0 REVERT JUMPDEST POP POP POP POP PUSH1 0x40 MLOAD RETURNDATASIZE PUSH1 0x1F NOT PUSH1 0x1F DUP3 ADD AND DUP3 ADD DUP1 PUSH1 0x40 MSTORE POP DUP2 ADD SWAP1 PUSH2 0x2371 SWAP2 SWAP1 PUSH2 0x3EBC JUMP JUMPDEST PUSH1 0x40 MLOAD PUSH4 0x5598B209 PUSH1 0xE0 SHL DUP2 MSTORE PUSH1 0x1 PUSH1 0x1 PUSH1 0xA0 SHL SUB PUSH32 0x0 DUP2 AND PUSH1 0x4 DUP4 ADD MSTORE SWAP2 SWAP1 SWAP2 AND SWAP1 PUSH4 0x5598B209 SWAP1 PUSH1 0x24 ADD PUSH1 0x20 PUSH1 0x40 MLOAD DUP1 DUP4 SUB DUP2 DUP7 GAS STATICCALL ISZERO DUP1 ISZERO PUSH2 0x23D9 JUMPI RETURNDATASIZE PUSH1 0x0 DUP1 RETURNDATACOPY RETURNDATASIZE PUSH1 0x0 REVERT JUMPDEST POP POP POP POP PUSH1 0x40 MLOAD RETURNDATASIZE PUSH1 0x1F NOT PUSH1 0x1F DUP3 ADD AND DUP3 ADD DUP1 PUSH1 0x40 MSTORE POP DUP2 ADD SWAP1 PUSH2 0x23FD SWAP2 SWAP1 PUSH2 0x3F02 JUMP JUMPDEST SWAP1 POP DUP1 ISZERO PUSH2 0x2457 JUMPI PUSH2 0x240F DUP3 DUP3 PUSH2 0x29C5 JUMP JUMPDEST PUSH3 0x636E63 PUSH1 0xE8 SHL PUSH1 0x0 SWAP1 DUP2 MSTORE PUSH1 0x4 PUSH1 0x20 MSTORE PUSH32 0x6E39C77D7CF74A2EE020F0DCE55B9495C576676D5CF0F00F7768F97036EF0C7B DUP1 SLOAD SWAP1 SWAP2 SWAP1 PUSH2 0x2451 SWAP1 DUP5 SWAP1 PUSH2 0x3FFD JUMP JUMPDEST SWAP1 SWAP2 SSTORE POP POP JUMPDEST PUSH1 0x40 MLOAD DUP3 DUP2 MSTORE PUSH32 0xFC8ED0CD46874D9C3CF1425E1B3BBF9C523BC17C4A959C2C2F600E016F4EDDEF SWAP1 PUSH1 0x20 ADD PUSH1 0x40 MLOAD DUP1 SWAP2 SUB SWAP1 LOG1 POP POP POP JUMP JUMPDEST PUSH1 0x40 MLOAD PUSH1 0x1 PUSH1 0x1 PUSH1 0xA0 SHL SUB DUP1 DUP6 AND PUSH1 0x24 DUP4 ADD MSTORE DUP4 AND PUSH1 0x44 DUP3 ADD MSTORE PUSH1 0x64 DUP2 ADD DUP3 SWAP1 MSTORE PUSH2 0x24C7 SWAP1 DUP6 SWAP1 PUSH4 0x23B872DD PUSH1 0xE0 SHL SWAP1 PUSH1 0x84 ADD PUSH2 0x1BB5 JUMP JUMPDEST POP POP POP POP JUMP JUMPDEST PUSH1 0x0 PUSH2 0x2142 DUP4 PUSH1 0x1 PUSH1 0x1 PUSH1 0xA0 SHL SUB DUP5 AND PUSH2 0x2FBF JUMP JUMPDEST PUSH1 0x60 PUSH1 0x0 PUSH2 0x1C03 DUP4 PUSH2 0x300E JUMP JUMPDEST PUSH1 0x0 DUP1 SLOAD PUSH1 0x1 PUSH1 0x1 PUSH1 0xA0 SHL SUB DUP4 DUP2 AND PUSH1 0x1 PUSH1 0x1 PUSH1 0xA0 SHL SUB NOT DUP4 AND DUP2 OR DUP5 SSTORE PUSH1 0x40 MLOAD SWAP2 SWAP1 SWAP3 AND SWAP3 DUP4 SWAP2 PUSH32 0x8BE0079C531659141344CD1FD0A4F28419497F9722A3DAAFE3B4186F6B6457E0 SWAP2 SWAP1 LOG3 POP POP JUMP JUMPDEST PUSH1 0x0 PUSH2 0x2142 DUP4 PUSH1 0x1 PUSH1 0x1 PUSH1 0xA0 SHL SUB DUP5 AND PUSH2 0x306A JUMP JUMPDEST PUSH1 0x0 PUSH32 0x0 PUSH1 0x1 PUSH1 0x1 PUSH1 0xA0 SHL SUB AND PUSH4 0x48439E7E PUSH1 0x40 MLOAD DUP2 PUSH4 0xFFFFFFFF AND PUSH1 0xE0 SHL DUP2 MSTORE PUSH1 0x4 ADD PUSH1 0x20 PUSH1 0x40 MLOAD DUP1 DUP4 SUB DUP2 DUP7 GAS STATICCALL ISZERO DUP1 ISZERO PUSH2 0x25B4 JUMPI RETURNDATASIZE PUSH1 0x0 DUP1 RETURNDATACOPY RETURNDATASIZE PUSH1 0x0 REVERT JUMPDEST POP POP POP POP PUSH1 0x40 MLOAD RETURNDATASIZE PUSH1 0x1F NOT PUSH1 0x1F DUP3 ADD AND DUP3 ADD DUP1 PUSH1 0x40 MSTORE POP DUP2 ADD SWAP1 PUSH2 0x25D8 SWAP2 SWAP1 PUSH2 0x3EBC JUMP JUMPDEST PUSH1 0x40 MLOAD PUSH4 0x7D2041E5 PUSH1 0xE1 SHL DUP2 MSTORE PUSH1 0x1 PUSH1 0x1 PUSH1 0xA0 SHL SUB PUSH32 0x0 DUP2 AND PUSH1 0x4 DUP4 ADD MSTORE DUP5 DUP2 AND PUSH1 0x24 DUP4 ADD MSTORE SWAP2 SWAP1 SWAP2 AND SWAP1 PUSH4 0xFA4083CA SWAP1 PUSH1 0x44 ADD PUSH1 0x20 PUSH1 0x40 MLOAD DUP1 DUP4 SUB DUP2 DUP7 GAS STATICCALL ISZERO DUP1 ISZERO PUSH2 0x2648 JUMPI RETURNDATASIZE PUSH1 0x0 DUP1 RETURNDATACOPY RETURNDATASIZE PUSH1 0x0 REVERT JUMPDEST POP POP POP POP PUSH1 0x40 MLOAD RETURNDATASIZE PUSH1 0x1F NOT PUSH1 0x1F DUP3 ADD AND DUP3 ADD DUP1 PUSH1 0x40 MSTORE POP DUP2 ADD SWAP1 PUSH2 0x266C SWAP2 SWAP1 PUSH2 0x3F02 JUMP JUMPDEST SWAP1 POP PUSH2 0x2676 PUSH2 0x5F5 JUMP JUMPDEST POP PUSH2 0x2688 PUSH3 0x636E63 PUSH1 0xE8 SHL DUP4 DUP4 PUSH2 0x315D JUMP JUMPDEST PUSH2 0x2699 PUSH3 0x31B93B PUSH1 0xE9 SHL DUP4 DUP4 PUSH2 0x315D JUMP JUMPDEST PUSH2 0x1AA0 PUSH3 0xC6ECF PUSH1 0xEB SHL DUP4 DUP4 PUSH2 0x315D JUMP JUMPDEST PUSH1 0x0 DUP1 PUSH1 0x0 DUP1 PUSH32 0x0 PUSH1 0x1 PUSH1 0x1 PUSH1 0xA0 SHL SUB AND PUSH4 0xB050ECB8 PUSH1 0x40 MLOAD DUP2 PUSH4 0xFFFFFFFF AND PUSH1 0xE0 SHL DUP2 MSTORE PUSH1 0x4 ADD PUSH1 0x20 PUSH1 0x40 MLOAD DUP1 DUP4 SUB DUP2 DUP7 GAS STATICCALL ISZERO DUP1 ISZERO PUSH2 0x270E JUMPI RETURNDATASIZE PUSH1 0x0 DUP1 RETURNDATACOPY RETURNDATASIZE PUSH1 0x0 REVERT JUMPDEST POP POP POP POP PUSH1 0x40 MLOAD RETURNDATASIZE PUSH1 0x1F NOT PUSH1 0x1F DUP3 ADD AND DUP3 ADD DUP1 PUSH1 0x40 MSTORE POP DUP2 ADD SWAP1 PUSH2 0x2732 SWAP2 SWAP1 PUSH2 0x3EBC JUMP JUMPDEST SWAP1 POP PUSH2 0x273D DUP2 PUSH2 0x31F8 JUMP JUMPDEST SWAP4 POP SWAP4 POP SWAP4 POP POP SWAP1 SWAP2 SWAP3 JUMP JUMPDEST PUSH1 0x0 DUP6 DUP2 MSTORE PUSH1 0x4 PUSH1 0x20 MSTORE PUSH1 0x40 DUP2 KECCAK256 DUP1 SLOAD DUP4 ISZERO PUSH2 0x279D JUMPI PUSH1 0x6 SLOAD PUSH2 0x278C SWAP1 PUSH2 0x2772 PUSH1 0x12 PUSH1 0xA PUSH2 0x40F4 JUMP JUMPDEST PUSH2 0x277C SWAP2 SWAP1 PUSH2 0x3EEF JUMP JUMPDEST PUSH2 0x2786 DUP10 DUP9 PUSH2 0x29C5 JUMP JUMPDEST SWAP1 PUSH2 0x2120 JUMP JUMPDEST PUSH2 0x2796 SWAP1 DUP3 PUSH2 0x3FFD JUMP JUMPDEST SWAP1 POP PUSH2 0x27B4 JUMP JUMPDEST PUSH2 0x27A7 DUP8 DUP7 PUSH2 0x29C5 JUMP JUMPDEST PUSH2 0x27B1 SWAP1 DUP3 PUSH2 0x3FFD JUMP JUMPDEST SWAP1 POP JUMPDEST PUSH1 0x1 PUSH1 0x1 PUSH1 0xA0 SHL SUB DUP10 AND PUSH1 0x0 SWAP1 DUP2 MSTORE PUSH1 0x2 DUP4 ADD PUSH1 0x20 MSTORE PUSH1 0x40 SWAP1 KECCAK256 SLOAD PUSH2 0x27E4 SWAP1 PUSH2 0x27DD SWAP1 DUP4 PUSH2 0x3EEF JUMP JUMPDEST DUP8 SWAP1 PUSH2 0x2120 JUMP JUMPDEST PUSH1 0x1 PUSH1 0x1 PUSH1 0xA0 SHL SUB DUP11 AND PUSH1 0x0 SWAP1 DUP2 MSTORE PUSH1 0x3 DUP5 ADD PUSH1 0x20 MSTORE PUSH1 0x40 SWAP1 KECCAK256 SLOAD PUSH2 0x2809 SWAP2 SWAP1 PUSH2 0x3FFD JUMP JUMPDEST SWAP10 SWAP9 POP POP POP POP POP POP POP POP POP JUMP JUMPDEST PUSH1 0x0 PUSH2 0x286B DUP3 PUSH1 0x40 MLOAD DUP1 PUSH1 0x40 ADD PUSH1 0x40 MSTORE DUP1 PUSH1 0x20 DUP2 MSTORE PUSH1 0x20 ADD PUSH32 0x5361666545524332303A206C6F772D6C6576656C2063616C6C206661696C6564 DUP2 MSTORE POP DUP6 PUSH1 0x1 PUSH1 0x1 PUSH1 0xA0 SHL SUB AND PUSH2 0x1BF1 SWAP1 SWAP3 SWAP2 SWAP1 PUSH4 0xFFFFFFFF AND JUMP JUMPDEST DUP1 MLOAD SWAP1 SWAP2 POP ISZERO PUSH2 0x1BEC JUMPI DUP1 DUP1 PUSH1 0x20 ADD SWAP1 MLOAD DUP2 ADD SWAP1 PUSH2 0x2889 SWAP2 SWAP1 PUSH2 0x4149 JUMP JUMPDEST PUSH2 0x1BEC JUMPI PUSH1 0x40 MLOAD PUSH3 0x461BCD PUSH1 0xE5 SHL DUP2 MSTORE PUSH1 0x20 PUSH1 0x4 DUP3 ADD MSTORE PUSH1 0x2A PUSH1 0x24 DUP3 ADD MSTORE PUSH32 0x5361666545524332303A204552433230206F7065726174696F6E20646964206E PUSH1 0x44 DUP3 ADD MSTORE PUSH10 0x1BDD081CDD58D8D95959 PUSH1 0xB2 SHL PUSH1 0x64 DUP3 ADD MSTORE PUSH1 0x84 ADD PUSH2 0x547 JUMP JUMPDEST PUSH1 0x60 DUP3 SELFBALANCE LT ISZERO PUSH2 0x2949 JUMPI PUSH1 0x40 MLOAD PUSH3 0x461BCD PUSH1 0xE5 SHL DUP2 MSTORE PUSH1 0x20 PUSH1 0x4 DUP3 ADD MSTORE PUSH1 0x26 PUSH1 0x24 DUP3 ADD MSTORE PUSH32 0x416464726573733A20696E73756666696369656E742062616C616E636520666F PUSH1 0x44 DUP3 ADD MSTORE PUSH6 0x1C8818D85B1B PUSH1 0xD2 SHL PUSH1 0x64 DUP3 ADD MSTORE PUSH1 0x84 ADD PUSH2 0x547 JUMP JUMPDEST PUSH1 0x0 DUP1 DUP7 PUSH1 0x1 PUSH1 0x1 PUSH1 0xA0 SHL SUB AND DUP6 DUP8 PUSH1 0x40 MLOAD PUSH2 0x2965 SWAP2 SWAP1 PUSH2 0x4188 JUMP JUMPDEST PUSH1 0x0 PUSH1 0x40 MLOAD DUP1 DUP4 SUB DUP2 DUP6 DUP8 GAS CALL SWAP3 POP POP POP RETURNDATASIZE DUP1 PUSH1 0x0 DUP2 EQ PUSH2 0x29A2 JUMPI PUSH1 0x40 MLOAD SWAP2 POP PUSH1 0x1F NOT PUSH1 0x3F RETURNDATASIZE ADD AND DUP3 ADD PUSH1 0x40 MSTORE RETURNDATASIZE DUP3 MSTORE RETURNDATASIZE PUSH1 0x0 PUSH1 0x20 DUP5 ADD RETURNDATACOPY PUSH2 0x29A7 JUMP JUMPDEST PUSH1 0x60 SWAP2 POP JUMPDEST POP SWAP2 POP SWAP2 POP PUSH2 0x29B8 DUP8 DUP4 DUP4 DUP8 PUSH2 0x32C9 JUMP JUMPDEST SWAP3 POP POP POP JUMPDEST SWAP5 SWAP4 POP POP POP POP JUMP JUMPDEST PUSH1 0x0 DUP2 PUSH2 0x29D4 PUSH1 0x12 PUSH1 0xA PUSH2 0x40F4 JUMP JUMPDEST PUSH2 0x2138 SWAP1 DUP6 PUSH2 0x4100 JUMP JUMPDEST PUSH1 0x0 DUP1 SLOAD PUSH1 0xFF PUSH1 0xA0 SHL NOT AND PUSH1 0x1 PUSH1 0xA0 SHL OR SWAP1 SSTORE PUSH1 0x40 DUP1 MLOAD PUSH4 0x2421CF3F PUSH1 0xE1 SHL DUP2 MSTORE SWAP1 MLOAD PUSH1 0x1 PUSH1 0x1 PUSH1 0xA0 SHL SUB PUSH32 0x0 AND SWAP2 PUSH4 0x48439E7E SWAP2 PUSH1 0x4 DUP1 DUP4 ADD SWAP3 PUSH1 0x20 SWAP3 SWAP2 SWAP1 DUP3 SWAP1 SUB ADD DUP2 DUP7 GAS STATICCALL ISZERO DUP1 ISZERO PUSH2 0x2A56 JUMPI RETURNDATASIZE PUSH1 0x0 DUP1 RETURNDATACOPY RETURNDATASIZE PUSH1 0x0 REVERT JUMPDEST POP POP POP POP PUSH1 0x40 MLOAD RETURNDATASIZE PUSH1 0x1F NOT PUSH1 0x1F DUP3 ADD AND DUP3 ADD DUP1 PUSH1 0x40 MSTORE POP DUP2 ADD SWAP1 PUSH2 0x2A7A SWAP2 SWAP1 PUSH2 0x3EBC JUMP JUMPDEST PUSH1 0x40 MLOAD PUSH4 0xA0190C17 PUSH1 0xE0 SHL DUP2 MSTORE PUSH1 0x1 PUSH1 0x1 PUSH1 0xA0 SHL SUB PUSH32 0x0 DUP2 AND PUSH1 0x4 DUP4 ADD MSTORE SWAP2 SWAP1 SWAP2 AND SWAP1 PUSH4 0xA0190C17 SWAP1 PUSH1 0x24 ADD PUSH1 0x0 PUSH1 0x40 MLOAD DUP1 DUP4 SUB DUP2 PUSH1 0x0 DUP8 DUP1 EXTCODESIZE ISZERO DUP1 ISZERO PUSH2 0x2ADF JUMPI PUSH1 0x0 DUP1 REVERT JUMPDEST POP GAS CALL ISZERO DUP1 ISZERO PUSH2 0x2AF3 JUMPI RETURNDATASIZE PUSH1 0x0 DUP1 RETURNDATACOPY RETURNDATASIZE PUSH1 0x0 REVERT JUMPDEST POP POP PUSH1 0x0 DUP1 SLOAD PUSH1 0xFF PUSH1 0xA0 SHL NOT AND DUP2 SSTORE PUSH1 0x40 MLOAD PUSH4 0x70A08231 PUSH1 0xE0 SHL DUP2 MSTORE PUSH1 0x1 PUSH1 0x1 PUSH1 0xA0 SHL SUB PUSH32 0x0 AND PUSH1 0x4 DUP3 ADD MSTORE SWAP1 SWAP3 POP PUSH20 0x4E3FBD56CD56C3E72C1403E103B45DB9DA5B9D2B SWAP2 POP PUSH4 0x70A08231 SWAP1 PUSH1 0x24 ADD PUSH1 0x20 PUSH1 0x40 MLOAD DUP1 DUP4 SUB DUP2 DUP7 GAS STATICCALL ISZERO DUP1 ISZERO PUSH2 0x2B7E JUMPI RETURNDATASIZE PUSH1 0x0 DUP1 RETURNDATACOPY RETURNDATASIZE PUSH1 0x0 REVERT JUMPDEST POP POP POP POP PUSH1 0x40 MLOAD RETURNDATASIZE PUSH1 0x1F NOT PUSH1 0x1F DUP3 ADD AND DUP3 ADD DUP1 PUSH1 0x40 MSTORE POP DUP2 ADD SWAP1 PUSH2 0x2BA2 SWAP2 SWAP1 PUSH2 0x3F02 JUMP JUMPDEST PUSH1 0x40 MLOAD PUSH4 0x70A08231 PUSH1 0xE0 SHL DUP2 MSTORE PUSH1 0x1 PUSH1 0x1 PUSH1 0xA0 SHL SUB PUSH32 0x0 AND PUSH1 0x4 DUP3 ADD MSTORE SWAP1 SWAP2 POP PUSH1 0x0 SWAP1 PUSH20 0xD533A949740BB3306D119CC777FA900BA034CD52 SWAP1 PUSH4 0x70A08231 SWAP1 PUSH1 0x24 ADD PUSH1 0x20 PUSH1 0x40 MLOAD DUP1 DUP4 SUB DUP2 DUP7 GAS STATICCALL ISZERO DUP1 ISZERO PUSH2 0x2C20 JUMPI RETURNDATASIZE PUSH1 0x0 DUP1 RETURNDATACOPY RETURNDATASIZE PUSH1 0x0 REVERT JUMPDEST POP POP POP POP PUSH1 0x40 MLOAD RETURNDATASIZE PUSH1 0x1F NOT PUSH1 0x1F DUP3 ADD AND DUP3 ADD DUP1 PUSH1 0x40 MSTORE POP DUP2 ADD SWAP1 PUSH2 0x2C44 SWAP2 SWAP1 PUSH2 0x3F02 JUMP JUMPDEST SWAP1 POP PUSH1 0x0 PUSH32 0x0 PUSH1 0x1 PUSH1 0x1 PUSH1 0xA0 SHL SUB AND PUSH4 0xB050ECB8 PUSH1 0x40 MLOAD DUP2 PUSH4 0xFFFFFFFF AND PUSH1 0xE0 SHL DUP2 MSTORE PUSH1 0x4 ADD PUSH1 0x20 PUSH1 0x40 MLOAD DUP1 DUP4 SUB DUP2 DUP7 GAS STATICCALL ISZERO DUP1 ISZERO PUSH2 0x2CA6 JUMPI RETURNDATASIZE PUSH1 0x0 DUP1 RETURNDATACOPY RETURNDATASIZE PUSH1 0x0 REVERT JUMPDEST POP POP POP POP PUSH1 0x40 MLOAD RETURNDATASIZE PUSH1 0x1F NOT PUSH1 0x1F DUP3 ADD AND DUP3 ADD DUP1 PUSH1 0x40 MSTORE POP DUP2 ADD SWAP1 PUSH2 0x2CCA SWAP2 SWAP1 PUSH2 0x3EBC JUMP JUMPDEST SWAP1 POP DUP1 PUSH1 0x1 PUSH1 0x1 PUSH1 0xA0 SHL SUB AND PUSH4 0xBC810E26 PUSH32 0x0 PUSH1 0x1 PUSH1 0x1 PUSH1 0xA0 SHL SUB AND PUSH4 0x6F934ABE PUSH1 0x40 MLOAD DUP2 PUSH4 0xFFFFFFFF AND PUSH1 0xE0 SHL DUP2 MSTORE PUSH1 0x4 ADD PUSH1 0x0 PUSH1 0x40 MLOAD DUP1 DUP4 SUB DUP2 DUP7 GAS STATICCALL ISZERO DUP1 ISZERO PUSH2 0x2D39 JUMPI RETURNDATASIZE PUSH1 0x0 DUP1 RETURNDATACOPY RETURNDATASIZE PUSH1 0x0 REVERT JUMPDEST POP POP POP POP PUSH1 0x40 MLOAD RETURNDATASIZE PUSH1 0x0 DUP3 RETURNDATACOPY PUSH1 0x1F RETURNDATASIZE SWAP1 DUP2 ADD PUSH1 0x1F NOT AND DUP3 ADD PUSH1 0x40 MSTORE PUSH2 0x2D61 SWAP2 SWAP1 DUP2 ADD SWAP1 PUSH2 0x3F1B JUMP JUMPDEST PUSH32 0x0 PUSH1 0x40 MLOAD DUP4 PUSH4 0xFFFFFFFF AND PUSH1 0xE0 SHL DUP2 MSTORE PUSH1 0x4 ADD PUSH2 0x2D9F SWAP3 SWAP2 SWAP1 PUSH2 0x41A4 JUMP JUMPDEST PUSH1 0x0 PUSH1 0x40 MLOAD DUP1 DUP4 SUB DUP2 PUSH1 0x0 DUP8 DUP1 EXTCODESIZE ISZERO DUP1 ISZERO PUSH2 0x2DB9 JUMPI PUSH1 0x0 DUP1 REVERT JUMPDEST POP GAS CALL ISZERO DUP1 ISZERO PUSH2 0x2DCD JUMPI RETURNDATASIZE PUSH1 0x0 DUP1 RETURNDATACOPY RETURNDATASIZE PUSH1 0x0 REVERT JUMPDEST POP POP PUSH1 0x40 MLOAD PUSH4 0x70A08231 PUSH1 0xE0 SHL DUP2 MSTORE PUSH1 0x1 PUSH1 0x1 PUSH1 0xA0 SHL SUB PUSH32 0x0 AND PUSH1 0x4 DUP3 ADD MSTORE PUSH1 0x0 SWAP3 POP DUP6 SWAP2 POP PUSH20 0x4E3FBD56CD56C3E72C1403E103B45DB9DA5B9D2B SWAP1 PUSH4 0x70A08231 SWAP1 PUSH1 0x24 ADD PUSH1 0x20 PUSH1 0x40 MLOAD DUP1 DUP4 SUB DUP2 DUP7 GAS STATICCALL ISZERO DUP1 ISZERO PUSH2 0x2E4E JUMPI RETURNDATASIZE PUSH1 0x0 DUP1 RETURNDATACOPY RETURNDATASIZE PUSH1 0x0 REVERT JUMPDEST POP POP POP POP PUSH1 0x40 MLOAD RETURNDATASIZE PUSH1 0x1F NOT PUSH1 0x1F DUP3 ADD AND DUP3 ADD DUP1 PUSH1 0x40 MSTORE POP DUP2 ADD SWAP1 PUSH2 0x2E72 SWAP2 SWAP1 PUSH2 0x3F02 JUMP JUMPDEST PUSH2 0x2E7C SWAP2 SWAP1 PUSH2 0x3EEF JUMP JUMPDEST PUSH1 0x40 MLOAD PUSH4 0x70A08231 PUSH1 0xE0 SHL DUP2 MSTORE PUSH1 0x1 PUSH1 0x1 PUSH1 0xA0 SHL SUB PUSH32 0x0 AND PUSH1 0x4 DUP3 ADD MSTORE SWAP1 SWAP2 POP PUSH1 0x0 SWAP1 DUP5 SWAP1 PUSH20 0xD533A949740BB3306D119CC777FA900BA034CD52 SWAP1 PUSH4 0x70A08231 SWAP1 PUSH1 0x24 ADD PUSH1 0x20 PUSH1 0x40 MLOAD DUP1 DUP4 SUB DUP2 DUP7 GAS STATICCALL ISZERO DUP1 ISZERO PUSH2 0x2EFC JUMPI RETURNDATASIZE PUSH1 0x0 DUP1 RETURNDATACOPY RETURNDATASIZE PUSH1 0x0 REVERT JUMPDEST POP POP POP POP PUSH1 0x40 MLOAD RETURNDATASIZE PUSH1 0x1F NOT PUSH1 0x1F DUP3 ADD AND DUP3 ADD DUP1 PUSH1 0x40 MSTORE POP DUP2 ADD SWAP1 PUSH2 0x2F20 SWAP2 SWAP1 PUSH2 0x3F02 JUMP JUMPDEST PUSH2 0x2F2A SWAP2 SWAP1 PUSH2 0x3EEF JUMP JUMPDEST PUSH1 0x40 DUP1 MLOAD DUP3 DUP2 MSTORE PUSH1 0x20 DUP2 ADD DUP6 SWAP1 MSTORE SWAP2 SWAP3 POP PUSH32 0x141D6E75554381BCC1326596E8010E6C432BB0988E14CA0310D85837A211D292 SWAP2 ADD PUSH1 0x40 MLOAD DUP1 SWAP2 SUB SWAP1 LOG1 POP POP POP POP POP JUMP JUMPDEST PUSH1 0x0 PUSH2 0x2F79 PUSH1 0x1 PUSH2 0x3342 JUMP JUMPDEST SWAP1 POP DUP1 PUSH1 0x0 SUB PUSH2 0x2F86 JUMPI POP JUMP JUMPDEST PUSH1 0x0 JUMPDEST DUP2 DUP2 LT ISZERO PUSH2 0x2FB6 JUMPI PUSH2 0x2FA4 PUSH2 0x2F9F PUSH1 0x1 DUP4 PUSH2 0x334C JUMP JUMPDEST PUSH2 0x3358 JUMP JUMPDEST DUP1 PUSH2 0x2FAE DUP2 PUSH2 0x3FC0 JUMP JUMPDEST SWAP2 POP POP PUSH2 0x2F89 JUMP JUMPDEST POP PUSH2 0x11D1 PUSH2 0x371E JUMP JUMPDEST PUSH1 0x0 DUP2 DUP2 MSTORE PUSH1 0x1 DUP4 ADD PUSH1 0x20 MSTORE PUSH1 0x40 DUP2 KECCAK256 SLOAD PUSH2 0x3006 JUMPI POP DUP2 SLOAD PUSH1 0x1 DUP2 DUP2 ADD DUP5 SSTORE PUSH1 0x0 DUP5 DUP2 MSTORE PUSH1 0x20 DUP1 DUP3 KECCAK256 SWAP1 SWAP4 ADD DUP5 SWAP1 SSTORE DUP5 SLOAD DUP5 DUP3 MSTORE DUP3 DUP7 ADD SWAP1 SWAP4 MSTORE PUSH1 0x40 SWAP1 KECCAK256 SWAP2 SWAP1 SWAP2 SSTORE PUSH2 0x2145 JUMP JUMPDEST POP PUSH1 0x0 PUSH2 0x2145 JUMP JUMPDEST PUSH1 0x60 DUP2 PUSH1 0x0 ADD DUP1 SLOAD DUP1 PUSH1 0x20 MUL PUSH1 0x20 ADD PUSH1 0x40 MLOAD SWAP1 DUP2 ADD PUSH1 0x40 MSTORE DUP1 SWAP3 SWAP2 SWAP1 DUP2 DUP2 MSTORE PUSH1 0x20 ADD DUP3 DUP1 SLOAD DUP1 ISZERO PUSH2 0x305E JUMPI PUSH1 0x20 MUL DUP3 ADD SWAP2 SWAP1 PUSH1 0x0 MSTORE PUSH1 0x20 PUSH1 0x0 KECCAK256 SWAP1 JUMPDEST DUP2 SLOAD DUP2 MSTORE PUSH1 0x20 ADD SWAP1 PUSH1 0x1 ADD SWAP1 DUP1 DUP4 GT PUSH2 0x304A JUMPI JUMPDEST POP POP POP POP POP SWAP1 POP SWAP2 SWAP1 POP JUMP JUMPDEST PUSH1 0x0 DUP2 DUP2 MSTORE PUSH1 0x1 DUP4 ADD PUSH1 0x20 MSTORE PUSH1 0x40 DUP2 KECCAK256 SLOAD DUP1 ISZERO PUSH2 0x3153 JUMPI PUSH1 0x0 PUSH2 0x308E PUSH1 0x1 DUP4 PUSH2 0x3EEF JUMP JUMPDEST DUP6 SLOAD SWAP1 SWAP2 POP PUSH1 0x0 SWAP1 PUSH2 0x30A2 SWAP1 PUSH1 0x1 SWAP1 PUSH2 0x3EEF JUMP JUMPDEST SWAP1 POP DUP2 DUP2 EQ PUSH2 0x3107 JUMPI PUSH1 0x0 DUP7 PUSH1 0x0 ADD DUP3 DUP2 SLOAD DUP2 LT PUSH2 0x30C2 JUMPI PUSH2 0x30C2 PUSH2 0x3FAA JUMP JUMPDEST SWAP1 PUSH1 0x0 MSTORE PUSH1 0x20 PUSH1 0x0 KECCAK256 ADD SLOAD SWAP1 POP DUP1 DUP8 PUSH1 0x0 ADD DUP5 DUP2 SLOAD DUP2 LT PUSH2 0x30E5 JUMPI PUSH2 0x30E5 PUSH2 0x3FAA JUMP JUMPDEST PUSH1 0x0 SWAP2 DUP3 MSTORE PUSH1 0x20 DUP1 DUP4 KECCAK256 SWAP1 SWAP2 ADD SWAP3 SWAP1 SWAP3 SSTORE SWAP2 DUP3 MSTORE PUSH1 0x1 DUP9 ADD SWAP1 MSTORE PUSH1 0x40 SWAP1 KECCAK256 DUP4 SWAP1 SSTORE JUMPDEST DUP6 SLOAD DUP7 SWAP1 DUP1 PUSH2 0x3118 JUMPI PUSH2 0x3118 PUSH2 0x41CE JUMP JUMPDEST PUSH1 0x1 SWAP1 SUB DUP2 DUP2 SWAP1 PUSH1 0x0 MSTORE PUSH1 0x20 PUSH1 0x0 KECCAK256 ADD PUSH1 0x0 SWAP1 SSTORE SWAP1 SSTORE DUP6 PUSH1 0x1 ADD PUSH1 0x0 DUP7 DUP2 MSTORE PUSH1 0x20 ADD SWAP1 DUP2 MSTORE PUSH1 0x20 ADD PUSH1 0x0 KECCAK256 PUSH1 0x0 SWAP1 SSTORE PUSH1 0x1 SWAP4 POP POP POP POP PUSH2 0x2145 JUMP JUMPDEST PUSH1 0x0 SWAP2 POP POP PUSH2 0x2145 JUMP JUMPDEST PUSH1 0x0 DUP4 DUP2 MSTORE PUSH1 0x4 PUSH1 0x20 SWAP1 DUP2 MSTORE PUSH1 0x40 DUP1 DUP4 KECCAK256 PUSH1 0x1 PUSH1 0x1 PUSH1 0xA0 SHL SUB DUP7 AND DUP5 MSTORE PUSH1 0x2 DUP2 ADD SWAP1 SWAP3 MSTORE DUP3 KECCAK256 SLOAD DUP2 SLOAD SWAP2 SWAP3 SWAP2 PUSH2 0x319D SWAP2 PUSH2 0x3196 SWAP2 PUSH2 0x3EEF JUMP JUMPDEST DUP5 SWAP1 PUSH2 0x2120 JUMP JUMPDEST PUSH1 0x1 PUSH1 0x1 PUSH1 0xA0 SHL SUB DUP6 AND PUSH1 0x0 SWAP1 DUP2 MSTORE PUSH1 0x3 DUP5 ADD PUSH1 0x20 MSTORE PUSH1 0x40 DUP2 KECCAK256 DUP1 SLOAD SWAP3 SWAP4 POP DUP4 SWAP3 SWAP1 SWAP2 SWAP1 PUSH2 0x31CC SWAP1 DUP5 SWAP1 PUSH2 0x3FFD JUMP JUMPDEST SWAP1 SWAP2 SSTORE POP POP DUP2 SLOAD PUSH1 0x1 PUSH1 0x1 PUSH1 0xA0 SHL SUB SWAP1 SWAP5 AND PUSH1 0x0 SWAP1 DUP2 MSTORE PUSH1 0x2 SWAP1 SWAP3 ADD PUSH1 0x20 MSTORE POP PUSH1 0x40 SWAP1 KECCAK256 SWAP2 SWAP1 SWAP2 SSTORE POP POP JUMP JUMPDEST PUSH1 0x0 DUP1 PUSH1 0x0 DUP1 PUSH1 0x0 DUP1 PUSH2 0x320A DUP8 PUSH2 0x1C64 JUMP JUMPDEST PUSH3 0x31B93B PUSH1 0xE9 SHL PUSH1 0x0 MSTORE PUSH1 0x4 PUSH1 0x20 MSTORE PUSH32 0xE435D5A83A779CF6192C429679F3E210B1EF61729756A280CA43F6042E409374 SLOAD SWAP3 SWAP6 POP SWAP1 SWAP4 POP SWAP2 POP PUSH2 0x324D SWAP1 DUP5 PUSH2 0x3EEF JUMP JUMPDEST PUSH3 0xC6ECF PUSH1 0xEB SHL PUSH1 0x0 MSTORE PUSH1 0x4 PUSH1 0x20 MSTORE PUSH32 0x31E16C83F2524A334424F1D58F96614D72F11901DD6699C42D38F67C2A9EB5CD SLOAD SWAP1 SWAP7 POP PUSH2 0x328B SWAP1 DUP4 PUSH2 0x3EEF JUMP JUMPDEST PUSH3 0x636E63 PUSH1 0xE8 SHL PUSH1 0x0 MSTORE PUSH1 0x4 PUSH1 0x20 MSTORE PUSH32 0x6E39C77D7CF74A2EE020F0DCE55B9495C576676D5CF0F00F7768F97036EF0C7C SLOAD SWAP1 SWAP6 POP PUSH2 0x2113 SWAP1 DUP3 PUSH2 0x3EEF JUMP JUMPDEST PUSH1 0x60 DUP4 ISZERO PUSH2 0x3338 JUMPI DUP3 MLOAD PUSH1 0x0 SUB PUSH2 0x3331 JUMPI PUSH1 0x1 PUSH1 0x1 PUSH1 0xA0 SHL SUB DUP6 AND EXTCODESIZE PUSH2 0x3331 JUMPI PUSH1 0x40 MLOAD PUSH3 0x461BCD PUSH1 0xE5 SHL DUP2 MSTORE PUSH1 0x20 PUSH1 0x4 DUP3 ADD MSTORE PUSH1 0x1D PUSH1 0x24 DUP3 ADD MSTORE PUSH32 0x416464726573733A2063616C6C20746F206E6F6E2D636F6E7472616374000000 PUSH1 0x44 DUP3 ADD MSTORE PUSH1 0x64 ADD PUSH2 0x547 JUMP JUMPDEST POP DUP2 PUSH2 0x29BD JUMP JUMPDEST PUSH2 0x29BD DUP4 DUP4 PUSH2 0x389D JUMP JUMPDEST PUSH1 0x0 PUSH2 0x2145 DUP3 SLOAD SWAP1 JUMP JUMPDEST PUSH1 0x0 PUSH2 0x2142 DUP4 DUP4 PUSH2 0x38C7 JUMP JUMPDEST PUSH1 0x40 MLOAD PUSH4 0x70A08231 PUSH1 0xE0 SHL DUP2 MSTORE ADDRESS PUSH1 0x4 DUP3 ADD MSTORE PUSH1 0x0 SWAP1 PUSH1 0x1 PUSH1 0x1 PUSH1 0xA0 SHL SUB DUP4 AND SWAP1 PUSH4 0x70A08231 SWAP1 PUSH1 0x24 ADD PUSH1 0x20 PUSH1 0x40 MLOAD DUP1 DUP4 SUB DUP2 DUP7 GAS STATICCALL ISZERO DUP1 ISZERO PUSH2 0x339F JUMPI RETURNDATASIZE PUSH1 0x0 DUP1 RETURNDATACOPY RETURNDATASIZE PUSH1 0x0 REVERT JUMPDEST POP POP POP POP PUSH1 0x40 MLOAD RETURNDATASIZE PUSH1 0x1F NOT PUSH1 0x1F DUP3 ADD AND DUP3 ADD DUP1 PUSH1 0x40 MSTORE POP DUP2 ADD SWAP1 PUSH2 0x33C3 SWAP2 SWAP1 PUSH2 0x3F02 JUMP JUMPDEST SWAP1 POP DUP1 PUSH1 0x0 SUB PUSH2 0x33D1 JUMPI POP POP JUMP JUMPDEST PUSH1 0x1 PUSH1 0x1 PUSH1 0xA0 SHL SUB DUP1 DUP4 AND PUSH1 0x0 SWAP1 DUP2 MSTORE PUSH1 0x3 PUSH1 0x20 MSTORE PUSH1 0x40 SWAP1 KECCAK256 SLOAD AND DUP1 ISZERO PUSH2 0x35DE JUMPI PUSH1 0x0 DUP1 PUSH32 0x0 PUSH1 0x1 PUSH1 0x1 PUSH1 0xA0 SHL SUB AND PUSH4 0x9F82B217 PUSH1 0x40 MLOAD DUP2 PUSH4 0xFFFFFFFF AND PUSH1 0xE0 SHL DUP2 MSTORE PUSH1 0x4 ADD PUSH1 0x20 PUSH1 0x40 MLOAD DUP1 DUP4 SUB DUP2 DUP7 GAS STATICCALL ISZERO DUP1 ISZERO PUSH2 0x3453 JUMPI RETURNDATASIZE PUSH1 0x0 DUP1 RETURNDATACOPY RETURNDATASIZE PUSH1 0x0 REVERT JUMPDEST POP POP POP POP PUSH1 0x40 MLOAD RETURNDATASIZE PUSH1 0x1F NOT PUSH1 0x1F DUP3 ADD AND DUP3 ADD DUP1 PUSH1 0x40 MSTORE POP DUP2 ADD SWAP1 PUSH2 0x3477 SWAP2 SWAP1 PUSH2 0x3EBC JUMP JUMPDEST PUSH1 0x40 MLOAD PUSH4 0x2FEAAC85 PUSH1 0xE1 SHL DUP2 MSTORE PUSH1 0x1 PUSH1 0x1 PUSH1 0xA0 SHL SUB DUP6 DUP2 AND PUSH1 0x4 DUP4 ADD MSTORE DUP8 DUP2 AND PUSH1 0x24 DUP4 ADD MSTORE PUSH20 0xC02AAA39B223FE8D0A0E5C4F27EAD9083C756CC2 PUSH1 0x44 DUP4 ADD MSTORE SWAP2 SWAP1 SWAP2 AND SWAP1 PUSH4 0x5FD5590A SWAP1 PUSH1 0x64 ADD PUSH1 0x60 PUSH1 0x40 MLOAD DUP1 DUP4 SUB DUP2 DUP7 GAS STATICCALL ISZERO DUP1 ISZERO PUSH2 0x34E1 JUMPI RETURNDATASIZE PUSH1 0x0 DUP1 RETURNDATACOPY RETURNDATASIZE PUSH1 0x0 REVERT JUMPDEST POP POP POP POP PUSH1 0x40 MLOAD RETURNDATASIZE PUSH1 0x1F NOT PUSH1 0x1F DUP3 ADD AND DUP3 ADD DUP1 PUSH1 0x40 MSTORE POP DUP2 ADD SWAP1 PUSH2 0x3505 SWAP2 SWAP1 PUSH2 0x41F6 JUMP JUMPDEST POP SWAP1 SWAP3 POP SWAP1 POP PUSH16 0xFFFFFFFFFFFFFFFFFFFFFFFFFFFFFFFF DUP1 DUP4 AND SWAP1 DUP3 AND PUSH1 0x1 PUSH1 0x1 PUSH1 0xA0 SHL SUB DUP6 AND PUSH4 0xCE7D6503 DUP4 DUP4 DUP10 PUSH2 0x3553 DUP13 PUSH20 0xC02AAA39B223FE8D0A0E5C4F27EAD9083C756CC2 DUP4 PUSH2 0x38F1 JUMP JUMPDEST PUSH1 0x40 MLOAD PUSH1 0x1 PUSH1 0x1 PUSH1 0xE0 SHL SUB NOT PUSH1 0xE0 DUP8 SWAP1 SHL AND DUP2 MSTORE PUSH1 0x4 DUP2 ADD SWAP5 SWAP1 SWAP5 MSTORE PUSH1 0x24 DUP5 ADD SWAP3 SWAP1 SWAP3 MSTORE PUSH1 0x44 DUP4 ADD MSTORE PUSH1 0x64 DUP3 ADD MSTORE PUSH1 0x0 PUSH1 0x84 DUP3 ADD MSTORE ADDRESS PUSH1 0xA4 DUP3 ADD MSTORE PUSH1 0xC4 ADD PUSH1 0x20 PUSH1 0x40 MLOAD DUP1 DUP4 SUB DUP2 PUSH1 0x0 DUP8 GAS CALL ISZERO DUP1 ISZERO PUSH2 0x35B0 JUMPI RETURNDATASIZE PUSH1 0x0 DUP1 RETURNDATACOPY RETURNDATASIZE PUSH1 0x0 REVERT JUMPDEST POP POP POP POP PUSH1 0x40 MLOAD RETURNDATASIZE PUSH1 0x1F NOT PUSH1 0x1F DUP3 ADD AND DUP3 ADD DUP1 PUSH1 0x40 MSTORE POP DUP2 ADD SWAP1 PUSH2 0x35D4 SWAP2 SWAP1 PUSH2 0x3F02 JUMP JUMPDEST POP POP POP POP POP POP POP POP JUMP JUMPDEST PUSH1 0x40 DUP1 MLOAD PUSH1 0x2 DUP1 DUP3 MSTORE PUSH1 0x60 DUP3 ADD DUP4 MSTORE PUSH1 0x0 SWAP3 PUSH1 0x20 DUP4 ADD SWAP1 DUP1 CALLDATASIZE DUP4 CALLDATACOPY ADD SWAP1 POP POP SWAP1 POP DUP4 DUP2 PUSH1 0x0 DUP2 MLOAD DUP2 LT PUSH2 0x3613 JUMPI PUSH2 0x3613 PUSH2 0x3FAA JUMP JUMPDEST PUSH1 0x20 MUL PUSH1 0x20 ADD ADD SWAP1 PUSH1 0x1 PUSH1 0x1 PUSH1 0xA0 SHL SUB AND SWAP1 DUP2 PUSH1 0x1 PUSH1 0x1 PUSH1 0xA0 SHL SUB AND DUP2 MSTORE POP POP PUSH20 0xC02AAA39B223FE8D0A0E5C4F27EAD9083C756CC2 DUP2 PUSH1 0x1 DUP2 MLOAD DUP2 LT PUSH2 0x365B JUMPI PUSH2 0x365B PUSH2 0x3FAA JUMP JUMPDEST PUSH1 0x1 PUSH1 0x1 PUSH1 0xA0 SHL SUB SWAP1 SWAP3 AND PUSH1 0x20 SWAP3 DUP4 MUL SWAP2 SWAP1 SWAP2 ADD SWAP1 SWAP2 ADD MSTORE PUSH20 0xD9E1CE17F2641F24AE83637AB66A2CCA9C378B9F PUSH4 0x38ED1739 DUP5 PUSH2 0x36AD DUP8 PUSH20 0xC02AAA39B223FE8D0A0E5C4F27EAD9083C756CC2 DUP4 PUSH2 0x38F1 JUMP JUMPDEST DUP5 ADDRESS TIMESTAMP PUSH1 0x40 MLOAD DUP7 PUSH4 0xFFFFFFFF AND PUSH1 0xE0 SHL DUP2 MSTORE PUSH1 0x4 ADD PUSH2 0x36D0 SWAP6 SWAP5 SWAP4 SWAP3 SWAP2 SWAP1 PUSH2 0x4239 JUMP JUMPDEST PUSH1 0x0 PUSH1 0x40 MLOAD DUP1 DUP4 SUB DUP2 PUSH1 0x0 DUP8 GAS CALL ISZERO DUP1 ISZERO PUSH2 0x36EF JUMPI RETURNDATASIZE PUSH1 0x0 DUP1 RETURNDATACOPY RETURNDATASIZE PUSH1 0x0 REVERT JUMPDEST POP POP POP POP PUSH1 0x40 MLOAD RETURNDATASIZE PUSH1 0x0 DUP3 RETURNDATACOPY PUSH1 0x1F RETURNDATASIZE SWAP1 DUP2 ADD PUSH1 0x1F NOT AND DUP3 ADD PUSH1 0x40 MSTORE PUSH2 0x3717 SWAP2 SWAP1 DUP2 ADD SWAP1 PUSH2 0x4275 JUMP JUMPDEST POP POP POP POP POP JUMP JUMPDEST PUSH1 0x40 MLOAD PUSH4 0x70A08231 PUSH1 0xE0 SHL DUP2 MSTORE ADDRESS PUSH1 0x4 DUP3 ADD MSTORE PUSH1 0x0 SWAP1 PUSH20 0xC02AAA39B223FE8D0A0E5C4F27EAD9083C756CC2 SWAP1 PUSH4 0x70A08231 SWAP1 PUSH1 0x24 ADD PUSH1 0x20 PUSH1 0x40 MLOAD DUP1 DUP4 SUB DUP2 DUP7 GAS STATICCALL ISZERO DUP1 ISZERO PUSH2 0x3770 JUMPI RETURNDATASIZE PUSH1 0x0 DUP1 RETURNDATACOPY RETURNDATASIZE PUSH1 0x0 REVERT JUMPDEST POP POP POP POP PUSH1 0x40 MLOAD RETURNDATASIZE PUSH1 0x1F NOT PUSH1 0x1F DUP3 ADD AND DUP3 ADD DUP1 PUSH1 0x40 MSTORE POP DUP2 ADD SWAP1 PUSH2 0x3794 SWAP2 SWAP1 PUSH2 0x3F02 JUMP JUMPDEST SWAP1 POP DUP1 PUSH1 0x0 SUB PUSH2 0x37A1 JUMPI POP JUMP JUMPDEST PUSH20 0x838AF967537350D2C44ABB8C010E49E32673AB94 PUSH4 0xCE7D6503 PUSH1 0x0 PUSH1 0x1 DUP5 PUSH2 0x37F3 PUSH20 0xC02AAA39B223FE8D0A0E5C4F27EAD9083C756CC2 PUSH20 0x9AE380F0272E2162340A5BB646C354271C0F5CFC DUP4 PUSH2 0x38F1 JUMP JUMPDEST PUSH1 0x40 MLOAD PUSH1 0x1 PUSH1 0x1 PUSH1 0xE0 SHL SUB NOT PUSH1 0xE0 DUP8 SWAP1 SHL AND DUP2 MSTORE PUSH1 0x4 DUP2 ADD SWAP5 SWAP1 SWAP5 MSTORE PUSH1 0x24 DUP5 ADD SWAP3 SWAP1 SWAP3 MSTORE PUSH1 0x44 DUP4 ADD MSTORE PUSH1 0x64 DUP3 ADD MSTORE PUSH1 0x0 PUSH1 0x84 DUP3 ADD MSTORE PUSH1 0x1 PUSH1 0x1 PUSH1 0xA0 SHL SUB PUSH32 0x0 AND PUSH1 0xA4 DUP3 ADD MSTORE PUSH1 0xC4 ADD PUSH1 0x20 PUSH1 0x40 MLOAD DUP1 DUP4 SUB DUP2 PUSH1 0x0 DUP8 GAS CALL ISZERO DUP1 ISZERO PUSH2 0x3879 JUMPI RETURNDATASIZE PUSH1 0x0 DUP1 RETURNDATACOPY RETURNDATASIZE PUSH1 0x0 REVERT JUMPDEST POP POP POP POP PUSH1 0x40 MLOAD RETURNDATASIZE PUSH1 0x1F NOT PUSH1 0x1F DUP3 ADD AND DUP3 ADD DUP1 PUSH1 0x40 MSTORE POP DUP2 ADD SWAP1 PUSH2 0x1AA0 SWAP2 SWAP1 PUSH2 0x3F02 JUMP JUMPDEST DUP2 MLOAD ISZERO PUSH2 0x38AD JUMPI DUP2 MLOAD DUP1 DUP4 PUSH1 0x20 ADD REVERT JUMPDEST DUP1 PUSH1 0x40 MLOAD PUSH3 0x461BCD PUSH1 0xE5 SHL DUP2 MSTORE PUSH1 0x4 ADD PUSH2 0x547 SWAP2 SWAP1 PUSH2 0x42FB JUMP JUMPDEST PUSH1 0x0 DUP3 PUSH1 0x0 ADD DUP3 DUP2 SLOAD DUP2 LT PUSH2 0x38DE JUMPI PUSH2 0x38DE PUSH2 0x3FAA JUMP JUMPDEST SWAP1 PUSH1 0x0 MSTORE PUSH1 0x20 PUSH1 0x0 KECCAK256 ADD SLOAD SWAP1 POP SWAP3 SWAP2 POP POP JUMP JUMPDEST PUSH1 0x0 DUP1 PUSH32 0x0 PUSH1 0x1 PUSH1 0x1 PUSH1 0xA0 SHL SUB AND PUSH4 0x2630C12F PUSH1 0x40 MLOAD DUP2 PUSH4 0xFFFFFFFF AND PUSH1 0xE0 SHL DUP2 MSTORE PUSH1 0x4 ADD PUSH1 0x20 PUSH1 0x40 MLOAD DUP1 DUP4 SUB DUP2 DUP7 GAS STATICCALL ISZERO DUP1 ISZERO PUSH2 0x3952 JUMPI RETURNDATASIZE PUSH1 0x0 DUP1 RETURNDATACOPY RETURNDATASIZE PUSH1 0x0 REVERT JUMPDEST POP POP POP POP PUSH1 0x40 MLOAD RETURNDATASIZE PUSH1 0x1F NOT PUSH1 0x1F DUP3 ADD AND DUP3 ADD DUP1 PUSH1 0x40 MSTORE POP DUP2 ADD SWAP1 PUSH2 0x3976 SWAP2 SWAP1 PUSH2 0x3EBC JUMP JUMPDEST SWAP1 POP DUP4 PUSH1 0x1 PUSH1 0x1 PUSH1 0xA0 SHL SUB AND DUP6 PUSH1 0x1 PUSH1 0x1 PUSH1 0xA0 SHL SUB AND SUB PUSH2 0x399A JUMPI DUP3 SWAP2 POP POP PUSH2 0x1C03 JUMP JUMPDEST PUSH1 0x40 MLOAD PUSH4 0x75151B63 PUSH1 0xE0 SHL DUP2 MSTORE PUSH1 0x1 PUSH1 0x1 PUSH1 0xA0 SHL SUB DUP7 DUP2 AND PUSH1 0x4 DUP4 ADD MSTORE DUP3 AND SWAP1 PUSH4 0x75151B63 SWAP1 PUSH1 0x24 ADD PUSH1 0x20 PUSH1 0x40 MLOAD DUP1 DUP4 SUB DUP2 DUP7 GAS STATICCALL ISZERO DUP1 ISZERO PUSH2 0x39E0 JUMPI RETURNDATASIZE PUSH1 0x0 DUP1 RETURNDATACOPY RETURNDATASIZE PUSH1 0x0 REVERT JUMPDEST POP POP POP POP PUSH1 0x40 MLOAD RETURNDATASIZE PUSH1 0x1F NOT PUSH1 0x1F DUP3 ADD AND DUP3 ADD DUP1 PUSH1 0x40 MSTORE POP DUP2 ADD SWAP1 PUSH2 0x3A04 SWAP2 SWAP1 PUSH2 0x4149 JUMP JUMPDEST ISZERO DUP1 PUSH2 0x3A77 JUMPI POP PUSH1 0x40 MLOAD PUSH4 0x75151B63 PUSH1 0xE0 SHL DUP2 MSTORE PUSH1 0x1 PUSH1 0x1 PUSH1 0xA0 SHL SUB DUP6 DUP2 AND PUSH1 0x4 DUP4 ADD MSTORE DUP3 AND SWAP1 PUSH4 0x75151B63 SWAP1 PUSH1 0x24 ADD PUSH1 0x20 PUSH1 0x40 MLOAD DUP1 DUP4 SUB DUP2 DUP7 GAS STATICCALL ISZERO DUP1 ISZERO PUSH2 0x3A51 JUMPI RETURNDATASIZE PUSH1 0x0 DUP1 RETURNDATACOPY RETURNDATASIZE PUSH1 0x0 REVERT JUMPDEST POP POP POP POP PUSH1 0x40 MLOAD RETURNDATASIZE PUSH1 0x1F NOT PUSH1 0x1F DUP3 ADD AND DUP3 ADD DUP1 PUSH1 0x40 MSTORE POP DUP2 ADD SWAP1 PUSH2 0x3A75 SWAP2 SWAP1 PUSH2 0x4149 JUMP JUMPDEST ISZERO JUMPDEST ISZERO PUSH2 0x3A86 JUMPI PUSH1 0x0 SWAP2 POP POP PUSH2 0x1C03 JUMP JUMPDEST PUSH2 0x3C4B PUSH8 0xD2F13F7789F0000 PUSH2 0x2786 DUP8 PUSH1 0x1 PUSH1 0x1 PUSH1 0xA0 SHL SUB AND PUSH4 0x313CE567 PUSH1 0x40 MLOAD DUP2 PUSH4 0xFFFFFFFF AND PUSH1 0xE0 SHL DUP2 MSTORE PUSH1 0x4 ADD PUSH1 0x20 PUSH1 0x40 MLOAD DUP1 DUP4 SUB DUP2 DUP7 GAS STATICCALL ISZERO DUP1 ISZERO PUSH2 0x3AD3 JUMPI RETURNDATASIZE PUSH1 0x0 DUP1 RETURNDATACOPY RETURNDATASIZE PUSH1 0x0 REVERT JUMPDEST POP POP POP POP PUSH1 0x40 MLOAD RETURNDATASIZE PUSH1 0x1F NOT PUSH1 0x1F DUP3 ADD AND DUP3 ADD DUP1 PUSH1 0x40 MSTORE POP DUP2 ADD SWAP1 PUSH2 0x3AF7 SWAP2 SWAP1 PUSH2 0x432E JUMP JUMPDEST DUP8 PUSH1 0x1 PUSH1 0x1 PUSH1 0xA0 SHL SUB AND PUSH4 0x313CE567 PUSH1 0x40 MLOAD DUP2 PUSH4 0xFFFFFFFF AND PUSH1 0xE0 SHL DUP2 MSTORE PUSH1 0x4 ADD PUSH1 0x20 PUSH1 0x40 MLOAD DUP1 DUP4 SUB DUP2 DUP7 GAS STATICCALL ISZERO DUP1 ISZERO PUSH2 0x3B35 JUMPI RETURNDATASIZE PUSH1 0x0 DUP1 RETURNDATACOPY RETURNDATASIZE PUSH1 0x0 REVERT JUMPDEST POP POP POP POP PUSH1 0x40 MLOAD RETURNDATASIZE PUSH1 0x1F NOT PUSH1 0x1F DUP3 ADD AND DUP3 ADD DUP1 PUSH1 0x40 MSTORE POP DUP2 ADD SWAP1 PUSH2 0x3B59 SWAP2 SWAP1 PUSH2 0x432E JUMP JUMPDEST PUSH1 0x40 MLOAD PUSH4 0x8B2F0F4F PUSH1 0xE0 SHL DUP2 MSTORE PUSH1 0x1 PUSH1 0x1 PUSH1 0xA0 SHL SUB DUP11 DUP2 AND PUSH1 0x4 DUP4 ADD MSTORE PUSH2 0x3C44 SWAP2 SWAP1 DUP9 AND SWAP1 PUSH4 0x8B2F0F4F SWAP1 PUSH1 0x24 ADD PUSH1 0x20 PUSH1 0x40 MLOAD DUP1 DUP4 SUB DUP2 DUP7 GAS STATICCALL ISZERO DUP1 ISZERO PUSH2 0x3BA4 JUMPI RETURNDATASIZE PUSH1 0x0 DUP1 RETURNDATACOPY RETURNDATASIZE PUSH1 0x0 REVERT JUMPDEST POP POP POP POP PUSH1 0x40 MLOAD RETURNDATASIZE PUSH1 0x1F NOT PUSH1 0x1F DUP3 ADD AND DUP3 ADD DUP1 PUSH1 0x40 MSTORE POP DUP2 ADD SWAP1 PUSH2 0x3BC8 SWAP2 SWAP1 PUSH2 0x3F02 JUMP JUMPDEST PUSH1 0x40 MLOAD PUSH4 0x8B2F0F4F PUSH1 0xE0 SHL DUP2 MSTORE PUSH1 0x1 PUSH1 0x1 PUSH1 0xA0 SHL SUB DUP14 DUP2 AND PUSH1 0x4 DUP4 ADD MSTORE PUSH2 0x3C3E SWAP2 SWAP1 DUP11 AND SWAP1 PUSH4 0x8B2F0F4F SWAP1 PUSH1 0x24 ADD PUSH1 0x20 PUSH1 0x40 MLOAD DUP1 DUP4 SUB DUP2 DUP7 GAS STATICCALL ISZERO DUP1 ISZERO PUSH2 0x3C13 JUMPI RETURNDATASIZE PUSH1 0x0 DUP1 RETURNDATACOPY RETURNDATASIZE PUSH1 0x0 REVERT JUMPDEST POP POP POP POP PUSH1 0x40 MLOAD RETURNDATASIZE PUSH1 0x1F NOT PUSH1 0x1F DUP3 ADD AND DUP3 ADD DUP1 PUSH1 0x40 MSTORE POP DUP2 ADD SWAP1 PUSH2 0x3C37 SWAP2 SWAP1 PUSH2 0x3F02 JUMP JUMPDEST DUP12 SWAP1 PUSH2 0x2120 JUMP JUMPDEST SWAP1 PUSH2 0x29C5 JUMP JUMPDEST SWAP2 SWAP1 PUSH2 0x3C54 JUMP JUMPDEST SWAP6 SWAP5 POP POP POP POP POP JUMP JUMPDEST PUSH1 0x0 DUP2 PUSH1 0xFF AND DUP4 PUSH1 0xFF AND SUB PUSH2 0x3C6A JUMPI POP DUP3 PUSH2 0x1C03 JUMP JUMPDEST DUP2 PUSH1 0xFF AND DUP4 PUSH1 0xFF AND GT ISZERO PUSH2 0x3C8A JUMPI PUSH2 0x3C83 DUP5 DUP5 DUP5 PUSH2 0x3C95 JUMP JUMPDEST SWAP1 POP PUSH2 0x1C03 JUMP JUMPDEST PUSH2 0x1C00 DUP5 DUP5 DUP5 PUSH2 0x3CB6 JUMP JUMPDEST PUSH1 0x0 PUSH2 0x3CA1 DUP3 DUP5 PUSH2 0x4351 JUMP JUMPDEST PUSH2 0x3CAC SWAP1 PUSH1 0xA PUSH2 0x436A JUMP JUMPDEST PUSH2 0x1C00 SWAP1 DUP6 PUSH2 0x4117 JUMP JUMPDEST PUSH1 0x0 PUSH2 0x3CC2 DUP4 DUP4 PUSH2 0x4351 JUMP JUMPDEST PUSH2 0x3CCD SWAP1 PUSH1 0xA PUSH2 0x436A JUMP JUMPDEST PUSH2 0x1C00 SWAP1 DUP6 PUSH2 0x4100 JUMP JUMPDEST PUSH1 0x1 PUSH1 0x1 PUSH1 0xA0 SHL SUB DUP2 AND DUP2 EQ PUSH2 0x11D1 JUMPI PUSH1 0x0 DUP1 REVERT JUMPDEST PUSH1 0x0 DUP1 PUSH1 0x40 DUP4 DUP6 SUB SLT ISZERO PUSH2 0x3CFF JUMPI PUSH1 0x0 DUP1 REVERT JUMPDEST DUP3 CALLDATALOAD PUSH2 0x3D0A DUP2 PUSH2 0x3CD7 JUMP JUMPDEST SWAP2 POP PUSH1 0x20 DUP4 ADD CALLDATALOAD PUSH2 0x3D1A DUP2 PUSH2 0x3CD7 JUMP JUMPDEST DUP1 SWAP2 POP POP SWAP3 POP SWAP3 SWAP1 POP JUMP JUMPDEST PUSH1 0x0 PUSH1 0x20 DUP3 DUP5 SUB SLT ISZERO PUSH2 0x3D37 JUMPI PUSH1 0x0 DUP1 REVERT JUMPDEST DUP2 CALLDATALOAD PUSH2 0x1C03 DUP2 PUSH2 0x3CD7 JUMP JUMPDEST PUSH1 0x0 DUP2 MLOAD DUP1 DUP5 MSTORE PUSH1 0x20 DUP1 DUP6 ADD SWAP5 POP DUP1 DUP5 ADD PUSH1 0x0 JUMPDEST DUP4 DUP2 LT ISZERO PUSH2 0x3D7B JUMPI DUP2 MLOAD PUSH1 0x1 PUSH1 0x1 PUSH1 0xA0 SHL SUB AND DUP8 MSTORE SWAP6 DUP3 ADD SWAP6 SWAP1 DUP3 ADD SWAP1 PUSH1 0x1 ADD PUSH2 0x3D56 JUMP JUMPDEST POP SWAP5 SWAP6 SWAP5 POP POP POP POP POP JUMP JUMPDEST PUSH1 0x20 DUP2 MSTORE PUSH1 0x0 PUSH2 0x2142 PUSH1 0x20 DUP4 ADD DUP5 PUSH2 0x3D42 JUMP JUMPDEST PUSH1 0x0 PUSH1 0x20 DUP3 DUP5 SUB SLT ISZERO PUSH2 0x3DAB JUMPI PUSH1 0x0 DUP1 REVERT JUMPDEST POP CALLDATALOAD SWAP2 SWAP1 POP JUMP JUMPDEST PUSH4 0x4E487B71 PUSH1 0xE0 SHL PUSH1 0x0 MSTORE PUSH1 0x41 PUSH1 0x4 MSTORE PUSH1 0x24 PUSH1 0x0 REVERT JUMPDEST PUSH1 0x40 MLOAD PUSH1 0x1F DUP3 ADD PUSH1 0x1F NOT AND DUP2 ADD PUSH8 0xFFFFFFFFFFFFFFFF DUP2 GT DUP3 DUP3 LT OR ISZERO PUSH2 0x3DF1 JUMPI PUSH2 0x3DF1 PUSH2 0x3DB2 JUMP JUMPDEST PUSH1 0x40 MSTORE SWAP2 SWAP1 POP JUMP JUMPDEST PUSH1 0x0 PUSH8 0xFFFFFFFFFFFFFFFF DUP3 GT ISZERO PUSH2 0x3E13 JUMPI PUSH2 0x3E13 PUSH2 0x3DB2 JUMP JUMPDEST POP PUSH1 0x5 SHL PUSH1 0x20 ADD SWAP1 JUMP JUMPDEST PUSH1 0x0 PUSH1 0x20 DUP1 DUP4 DUP6 SUB SLT ISZERO PUSH2 0x3E30 JUMPI PUSH1 0x0 DUP1 REVERT JUMPDEST DUP3 CALLDATALOAD PUSH8 0xFFFFFFFFFFFFFFFF DUP2 GT ISZERO PUSH2 0x3E47 JUMPI PUSH1 0x0 DUP1 REVERT JUMPDEST DUP4 ADD PUSH1 0x1F DUP2 ADD DUP6 SGT PUSH2 0x3E58 JUMPI PUSH1 0x0 DUP1 REVERT JUMPDEST DUP1 CALLDATALOAD PUSH2 0x3E6B PUSH2 0x3E66 DUP3 PUSH2 0x3DF9 JUMP JUMPDEST PUSH2 0x3DC8 JUMP JUMPDEST DUP2 DUP2 MSTORE PUSH1 0x5 SWAP2 SWAP1 SWAP2 SHL DUP3 ADD DUP4 ADD SWAP1 DUP4 DUP2 ADD SWAP1 DUP8 DUP4 GT ISZERO PUSH2 0x3E8A JUMPI PUSH1 0x0 DUP1 REVERT JUMPDEST SWAP3 DUP5 ADD SWAP3 JUMPDEST DUP3 DUP5 LT ISZERO PUSH2 0x3EB1 JUMPI DUP4 CALLDATALOAD PUSH2 0x3EA2 DUP2 PUSH2 0x3CD7 JUMP JUMPDEST DUP3 MSTORE SWAP3 DUP5 ADD SWAP3 SWAP1 DUP5 ADD SWAP1 PUSH2 0x3E8F JUMP JUMPDEST SWAP8 SWAP7 POP POP POP POP POP POP POP JUMP JUMPDEST PUSH1 0x0 PUSH1 0x20 DUP3 DUP5 SUB SLT ISZERO PUSH2 0x3ECE JUMPI PUSH1 0x0 DUP1 REVERT JUMPDEST DUP2 MLOAD PUSH2 0x1C03 DUP2 PUSH2 0x3CD7 JUMP JUMPDEST PUSH4 0x4E487B71 PUSH1 0xE0 SHL PUSH1 0x0 MSTORE PUSH1 0x11 PUSH1 0x4 MSTORE PUSH1 0x24 PUSH1 0x0 REVERT JUMPDEST DUP2 DUP2 SUB DUP2 DUP2 GT ISZERO PUSH2 0x2145 JUMPI PUSH2 0x2145 PUSH2 0x3ED9 JUMP JUMPDEST PUSH1 0x0 PUSH1 0x20 DUP3 DUP5 SUB SLT ISZERO PUSH2 0x3F14 JUMPI PUSH1 0x0 DUP1 REVERT JUMPDEST POP MLOAD SWAP2 SWAP1 POP JUMP JUMPDEST PUSH1 0x0 PUSH1 0x20 DUP1 DUP4 DUP6 SUB SLT ISZERO PUSH2 0x3F2E JUMPI PUSH1 0x0 DUP1 REVERT JUMPDEST DUP3 MLOAD PUSH8 0xFFFFFFFFFFFFFFFF DUP2 GT ISZERO PUSH2 0x3F45 JUMPI PUSH1 0x0 DUP1 REVERT JUMPDEST DUP4 ADD PUSH1 0x1F DUP2 ADD DUP6 SGT PUSH2 0x3F56 JUMPI PUSH1 0x0 DUP1 REVERT JUMPDEST DUP1 MLOAD PUSH2 0x3F64 PUSH2 0x3E66 DUP3 PUSH2 0x3DF9 JUMP JUMPDEST DUP2 DUP2 MSTORE PUSH1 0x5 SWAP2 SWAP1 SWAP2 SHL DUP3 ADD DUP4 ADD SWAP1 DUP4 DUP2 ADD SWAP1 DUP8 DUP4 GT ISZERO PUSH2 0x3F83 JUMPI PUSH1 0x0 DUP1 REVERT JUMPDEST SWAP3 DUP5 ADD SWAP3 JUMPDEST DUP3 DUP5 LT ISZERO PUSH2 0x3EB1 JUMPI DUP4 MLOAD PUSH2 0x3F9B DUP2 PUSH2 0x3CD7 JUMP JUMPDEST DUP3 MSTORE SWAP3 DUP5 ADD SWAP3 SWAP1 DUP5 ADD SWAP1 PUSH2 0x3F88 JUMP JUMPDEST PUSH4 0x4E487B71 PUSH1 0xE0 SHL PUSH1 0x0 MSTORE PUSH1 0x32 PUSH1 0x4 MSTORE PUSH1 0x24 PUSH1 0x0 REVERT JUMPDEST PUSH1 0x0 PUSH1 0x1 DUP3 ADD PUSH2 0x3FD2 JUMPI PUSH2 0x3FD2 PUSH2 0x3ED9 JUMP JUMPDEST POP PUSH1 0x1 ADD SWAP1 JUMP JUMPDEST PUSH1 0x1 PUSH1 0x1 PUSH1 0xA0 SHL SUB DUP4 AND DUP2 MSTORE PUSH1 0x40 PUSH1 0x20 DUP3 ADD DUP2 SWAP1 MSTORE PUSH1 0x0 SWAP1 PUSH2 0x1C00 SWAP1 DUP4 ADD DUP5 PUSH2 0x3D42 JUMP JUMPDEST DUP1 DUP3 ADD DUP1 DUP3 GT ISZERO PUSH2 0x2145 JUMPI PUSH2 0x2145 PUSH2 0x3ED9 JUMP JUMPDEST PUSH1 0x1 DUP2 DUP2 JUMPDEST DUP1 DUP6 GT ISZERO PUSH2 0x404B JUMPI DUP2 PUSH1 0x0 NOT DIV DUP3 GT ISZERO PUSH2 0x4031 JUMPI PUSH2 0x4031 PUSH2 0x3ED9 JUMP JUMPDEST DUP1 DUP6 AND ISZERO PUSH2 0x403E JUMPI SWAP2 DUP2 MUL SWAP2 JUMPDEST SWAP4 DUP5 SHR SWAP4 SWAP1 DUP1 MUL SWAP1 PUSH2 0x4015 JUMP JUMPDEST POP SWAP3 POP SWAP3 SWAP1 POP JUMP JUMPDEST PUSH1 0x0 DUP3 PUSH2 0x4062 JUMPI POP PUSH1 0x1 PUSH2 0x2145 JUMP JUMPDEST DUP2 PUSH2 0x406F JUMPI POP PUSH1 0x0 PUSH2 0x2145 JUMP JUMPDEST DUP2 PUSH1 0x1 DUP2 EQ PUSH2 0x4085 JUMPI PUSH1 0x2 DUP2 EQ PUSH2 0x408F JUMPI PUSH2 0x40AB JUMP JUMPDEST PUSH1 0x1 SWAP2 POP POP PUSH2 0x2145 JUMP JUMPDEST PUSH1 0xFF DUP5 GT ISZERO PUSH2 0x40A0 JUMPI PUSH2 0x40A0 PUSH2 0x3ED9 JUMP JUMPDEST POP POP PUSH1 0x1 DUP3 SHL PUSH2 0x2145 JUMP JUMPDEST POP PUSH1 0x20 DUP4 LT PUSH2 0x133 DUP4 LT AND PUSH1 0x4E DUP5 LT PUSH1 0xB DUP5 LT AND OR ISZERO PUSH2 0x40CE JUMPI POP DUP2 DUP2 EXP PUSH2 0x2145 JUMP JUMPDEST PUSH2 0x40D8 DUP4 DUP4 PUSH2 0x4010 JUMP JUMPDEST DUP1 PUSH1 0x0 NOT DIV DUP3 GT ISZERO PUSH2 0x40EC JUMPI PUSH2 0x40EC PUSH2 0x3ED9 JUMP JUMPDEST MUL SWAP4 SWAP3 POP POP POP JUMP JUMPDEST PUSH1 0x0 PUSH2 0x2142 DUP4 DUP4 PUSH2 0x4053 JUMP JUMPDEST DUP1 DUP3 MUL DUP2 ISZERO DUP3 DUP3 DIV DUP5 EQ OR PUSH2 0x2145 JUMPI PUSH2 0x2145 PUSH2 0x3ED9 JUMP JUMPDEST PUSH1 0x0 DUP3 PUSH2 0x4134 JUMPI PUSH4 0x4E487B71 PUSH1 0xE0 SHL PUSH1 0x0 MSTORE PUSH1 0x12 PUSH1 0x4 MSTORE PUSH1 0x24 PUSH1 0x0 REVERT JUMPDEST POP DIV SWAP1 JUMP JUMPDEST DUP1 MLOAD DUP1 ISZERO ISZERO DUP2 EQ PUSH2 0x1006 JUMPI PUSH1 0x0 DUP1 REVERT JUMPDEST PUSH1 0x0 PUSH1 0x20 DUP3 DUP5 SUB SLT ISZERO PUSH2 0x415B JUMPI PUSH1 0x0 DUP1 REVERT JUMPDEST PUSH2 0x2142 DUP3 PUSH2 0x4139 JUMP JUMPDEST PUSH1 0x0 JUMPDEST DUP4 DUP2 LT ISZERO PUSH2 0x417F JUMPI DUP2 DUP2 ADD MLOAD DUP4 DUP3 ADD MSTORE PUSH1 0x20 ADD PUSH2 0x4167 JUMP JUMPDEST POP POP PUSH1 0x0 SWAP2 ADD MSTORE JUMP JUMPDEST PUSH1 0x0 DUP3 MLOAD PUSH2 0x419A DUP2 DUP5 PUSH1 0x20 DUP8 ADD PUSH2 0x4164 JUMP JUMPDEST SWAP2 SWAP1 SWAP2 ADD SWAP3 SWAP2 POP POP JUMP JUMPDEST PUSH1 0x40 DUP2 MSTORE PUSH1 0x0 PUSH2 0x41B7 PUSH1 0x40 DUP4 ADD DUP6 PUSH2 0x3D42 JUMP JUMPDEST SWAP1 POP PUSH1 0x1 DUP1 PUSH1 0xA0 SHL SUB DUP4 AND PUSH1 0x20 DUP4 ADD MSTORE SWAP4 SWAP3 POP POP POP JUMP JUMPDEST PUSH4 0x4E487B71 PUSH1 0xE0 SHL PUSH1 0x0 MSTORE PUSH1 0x31 PUSH1 0x4 MSTORE PUSH1 0x24 PUSH1 0x0 REVERT JUMPDEST DUP1 MLOAD PUSH1 0xF DUP2 SWAP1 SIGNEXTEND DUP2 EQ PUSH2 0x1006 JUMPI PUSH1 0x0 DUP1 REVERT JUMPDEST PUSH1 0x0 DUP1 PUSH1 0x0 PUSH1 0x60 DUP5 DUP7 SUB SLT ISZERO PUSH2 0x420B JUMPI PUSH1 0x0 DUP1 REVERT JUMPDEST PUSH2 0x4214 DUP5 PUSH2 0x41E4 JUMP JUMPDEST SWAP3 POP PUSH2 0x4222 PUSH1 0x20 DUP6 ADD PUSH2 0x41E4 JUMP JUMPDEST SWAP2 POP PUSH2 0x4230 PUSH1 0x40 DUP6 ADD PUSH2 0x4139 JUMP JUMPDEST SWAP1 POP SWAP3 POP SWAP3 POP SWAP3 JUMP JUMPDEST DUP6 DUP2 MSTORE DUP5 PUSH1 0x20 DUP3 ADD MSTORE PUSH1 0xA0 PUSH1 0x40 DUP3 ADD MSTORE PUSH1 0x0 PUSH2 0x4258 PUSH1 0xA0 DUP4 ADD DUP7 PUSH2 0x3D42 JUMP JUMPDEST PUSH1 0x1 PUSH1 0x1 PUSH1 0xA0 SHL SUB SWAP5 SWAP1 SWAP5 AND PUSH1 0x60 DUP4 ADD MSTORE POP PUSH1 0x80 ADD MSTORE SWAP4 SWAP3 POP POP POP JUMP JUMPDEST PUSH1 0x0 PUSH1 0x20 DUP1 DUP4 DUP6 SUB SLT ISZERO PUSH2 0x4288 JUMPI PUSH1 0x0 DUP1 REVERT JUMPDEST DUP3 MLOAD PUSH8 0xFFFFFFFFFFFFFFFF DUP2 GT ISZERO PUSH2 0x429F JUMPI PUSH1 0x0 DUP1 REVERT JUMPDEST DUP4 ADD PUSH1 0x1F DUP2 ADD DUP6 SGT PUSH2 0x42B0 JUMPI PUSH1 0x0 DUP1 REVERT JUMPDEST DUP1 MLOAD PUSH2 0x42BE PUSH2 0x3E66 DUP3 PUSH2 0x3DF9 JUMP JUMPDEST DUP2 DUP2 MSTORE PUSH1 0x5 SWAP2 SWAP1 SWAP2 SHL DUP3 ADD DUP4 ADD SWAP1 DUP4 DUP2 ADD SWAP1 DUP8 DUP4 GT ISZERO PUSH2 0x42DD JUMPI PUSH1 0x0 DUP1 REVERT JUMPDEST SWAP3 DUP5 ADD SWAP3 JUMPDEST DUP3 DUP5 LT ISZERO PUSH2 0x3EB1 JUMPI DUP4 MLOAD DUP3 MSTORE SWAP3 DUP5 ADD SWAP3 SWAP1 DUP5 ADD SWAP1 PUSH2 0x42E2 JUMP JUMPDEST PUSH1 0x20 DUP2 MSTORE PUSH1 0x0 DUP3 MLOAD DUP1 PUSH1 0x20 DUP5 ADD MSTORE PUSH2 0x431A DUP2 PUSH1 0x40 DUP6 ADD PUSH1 0x20 DUP8 ADD PUSH2 0x4164 JUMP JUMPDEST PUSH1 0x1F ADD PUSH1 0x1F NOT AND SWAP2 SWAP1 SWAP2 ADD PUSH1 0x40 ADD SWAP3 SWAP2 POP POP JUMP JUMPDEST PUSH1 0x0 PUSH1 0x20 DUP3 DUP5 SUB SLT ISZERO PUSH2 0x4340 JUMPI PUSH1 0x0 DUP1 REVERT JUMPDEST DUP2 MLOAD PUSH1 0xFF DUP2 AND DUP2 EQ PUSH2 0x1C03 JUMPI PUSH1 0x0 DUP1 REVERT JUMPDEST PUSH1 0xFF DUP3 DUP2 AND DUP3 DUP3 AND SUB SWAP1 DUP2 GT ISZERO PUSH2 0x2145 JUMPI PUSH2 0x2145 PUSH2 0x3ED9 JUMP JUMPDEST PUSH1 0x0 PUSH2 0x2142 PUSH1 0xFF DUP5 AND DUP4 PUSH2 0x4053 JUMP INVALID LOG2 PUSH5 0x6970667358 0x22 SLT KECCAK256 0x4C 0xE8 0xC0 0xE6 ISZERO 0xAF 0xED 0xD0 SHL PUSH4 0xF90EE512 SAR 0x4B DUP11 0xF8 0xD1 0xA6 0xD9 DUP5 MOD LOG1 PUSH23 0xF17D8A00F5298264736F6C634300081100330000000000 ","sha1":"475ec9cc1581fb0ce62a230612df0901ae4f2caf","source":"// SPDX-License-Identifier: GPL-3.0-or-later\npragma solidity 0.8.17;\n\nimport \"@openzeppelin/contracts/access/Ownable.sol\";\nimport \"@openzeppelin/contracts/utils/structs/EnumerableSet.sol\";\nimport \"@openzeppelin/contracts/token/ERC20/utils/SafeERC20.sol\";\nimport \"@openzeppelin/contracts/token/ERC20/extensions/IERC20Metadata.sol\";\n\nimport \"../interfaces/pools/IConicPool.sol\";\nimport \"../interfaces/pools/ILpToken.sol\";\nimport \"../interfaces/pools/IRewardManager.sol\";\nimport \"../interfaces/IConvexHandler.sol\";\nimport \"../interfaces/ICurveHandler.sol\";\nimport \"../interfaces/IController.sol\";\nimport \"../interfaces/IOracle.sol\";\nimport \"../interfaces/tokenomics/IInflationManager.sol\";\nimport \"../interfaces/tokenomics/ILpTokenStaker.sol\";\nimport \"../interfaces/tokenomics/ICNCLockerV2.sol\";\nimport \"../interfaces/vendor/ICurvePoolV2.sol\";\nimport \"../interfaces/vendor/UniswapRouter02.sol\";\n\nimport \"../libraries/ScaledMath.sol\";\n\ncontract RewardManagerV2 is IRewardManager, Ownable {\n    using ScaledMath for uint256;\n    using SafeERC20 for IERC20;\n    using EnumerableSet for EnumerableSet.AddressSet;\n\n    struct RewardMeta {\n        uint256 earnedIntegral;\n        uint256 lastHoldings;\n        mapping(address => uint256) accountIntegral;\n        mapping(address => uint256) accountShare;\n    }\n\n    IERC20 public constant CVX = IERC20(0x4e3FBD56CD56c3e72c1403e103b45Db9da5B9D2B);\n    IERC20 public constant CRV = IERC20(0xD533a949740bb3306d119CC777fa900bA034cd52);\n    IERC20 public constant WETH = IERC20(0xC02aaA39b223FE8D0A0e5C4F27eAD9083C756Cc2);\n    IERC20 public constant CNC = IERC20(0x9aE380F0272E2162340a5bB646c354271c0F5cFC);\n    UniswapRouter02 public constant SUSHISWAP =\n        UniswapRouter02(0xd9e1cE17f2641f24aE83637ab66a2cca9C378B9F);\n    ICurvePoolV2 public constant CNC_ETH_POOL =\n        ICurvePoolV2(0x838af967537350D2C44ABB8c010E49E32673ab94);\n\n    uint256 public constant MAX_FEE_PERCENTAGE = 3e17;\n    uint256 public constant SLIPPAGE_THRESHOLD = 0.95e18; // 5% slippage as a multiplier\n\n    bytes32 internal constant _CNC_KEY = \"cnc\";\n    bytes32 internal constant _CRV_KEY = \"crv\";\n    bytes32 internal constant _CVX_KEY = \"cvx\";\n\n    address public immutable override pool;\n    ILpToken public immutable lpToken;\n    IERC20 public immutable underlying;\n    IController public immutable controller;\n    ICNCLockerV2 public immutable locker;\n    bool internal _claimingCNC;\n\n    EnumerableSet.AddressSet internal _extraRewards;\n    mapping(address => address) public extraRewardsCurvePool;\n    mapping(bytes32 => RewardMeta) internal _rewardsMeta;\n\n    bool public feesEnabled;\n    uint256 public feePercentage;\n\n    constructor(\n        address _controller,\n        address _pool,\n        address _lpToken,\n        address _underlying,\n        address cncLocker\n    ) {\n        pool = _pool;\n        lpToken = ILpToken(_lpToken);\n        underlying = IERC20(_underlying);\n        controller = IController(_controller);\n        WETH.safeApprove(address(CNC_ETH_POOL), type(uint256).max);\n        locker = ICNCLockerV2(cncLocker);\n    }\n\n    /// @notice Updates the internal fee accounting state. Returns `true` if rewards were claimed\n    function poolCheckpoint() public override returns (bool) {\n        IConvexHandler convexHandler = IConvexHandler(controller.convexHandler());\n\n        (uint256 crvHoldings, uint256 cvxHoldings, uint256 cncHoldings) = _getHoldings(\n            convexHandler\n        );\n        uint256 crvEarned = crvHoldings - _rewardsMeta[_CRV_KEY].lastHoldings;\n        uint256 cvxEarned = cvxHoldings - _rewardsMeta[_CVX_KEY].lastHoldings;\n        uint256 cncEarned = cncHoldings - _rewardsMeta[_CNC_KEY].lastHoldings;\n\n        uint256 crvFee;\n        uint256 cvxFee;\n\n        if (feesEnabled) {\n            crvFee = crvEarned.mulDown(feePercentage);\n            cvxFee = cvxEarned.mulDown(feePercentage);\n            crvEarned -= crvFee;\n            cvxEarned -= cvxFee;\n            crvHoldings -= crvFee;\n            cvxHoldings -= cvxFee;\n        }\n\n        uint256 _totalStaked = controller.lpTokenStaker().getBalanceForPool(pool);\n        if (_totalStaked > 0) {\n            _updateEarned(_CVX_KEY, cvxHoldings, cvxEarned, _totalStaked);\n            _updateEarned(_CRV_KEY, crvHoldings, crvEarned, _totalStaked);\n            _updateEarned(_CNC_KEY, cncHoldings, cncEarned, _totalStaked);\n        }\n\n        if (!feesEnabled) {\n            return false;\n        }\n\n        bool rewardsClaimed = false;\n\n        if (crvFee > CRV.balanceOf(pool) || cvxFee > CVX.balanceOf(pool)) {\n            _claimPoolEarningsAndSellRewardTokens();\n            rewardsClaimed = true;\n        }\n\n        CRV.safeTransferFrom(pool, address(this), crvFee);\n        CVX.safeTransferFrom(pool, address(this), cvxFee);\n\n        // Fee transfer to the CNC locker\n        CRV.safeApprove(address(locker), crvFee);\n        CVX.safeApprove(address(locker), cvxFee);\n        locker.receiveFees(crvFee, cvxFee);\n\n        return rewardsClaimed;\n    }\n\n    function _updateEarned(\n        bytes32 key,\n        uint256 holdings,\n        uint256 earned,\n        uint256 _totalSupply\n    ) internal {\n        _rewardsMeta[key].earnedIntegral += earned.divDown(_totalSupply);\n        _rewardsMeta[key].lastHoldings = holdings;\n    }\n\n    function _getEarnedRewards()\n        internal\n        view\n        returns (uint256 crvEarned, uint256 cvxEarned, uint256 cncEarned)\n    {\n        IConvexHandler convexHandler = IConvexHandler(controller.convexHandler());\n        return _getEarnedRewards(convexHandler);\n    }\n\n    function _getHoldings(\n        IConvexHandler convexHandler\n    ) internal view returns (uint256 crvHoldings, uint256 cvxHoldings, uint256 cncHoldings) {\n        address[] memory curvePools = IConicPool(pool).allCurvePools();\n\n        uint256 claimableCRV = convexHandler.getCrvEarnedBatch(pool, curvePools);\n        crvHoldings = CRV.balanceOf(pool) + claimableCRV;\n\n        uint256 claimableCVX = convexHandler.computeClaimableConvex(claimableCRV);\n        cvxHoldings = CVX.balanceOf(pool) + claimableCVX;\n        cncHoldings = CNC.balanceOf(pool);\n        if (!_claimingCNC) {\n            cncHoldings += controller.lpTokenStaker().claimableCnc(pool);\n        }\n    }\n\n    function _getEarnedRewards(\n        IConvexHandler convexHandler\n    ) internal view returns (uint256 crvEarned, uint256 cvxEarned, uint256 cncEarned) {\n        (\n            uint256 currentHoldingsCRV,\n            uint256 currentHoldingsCVX,\n            uint256 currentHoldingsCNC\n        ) = _getHoldings(convexHandler);\n\n        crvEarned = currentHoldingsCRV - _rewardsMeta[_CRV_KEY].lastHoldings;\n        cvxEarned = currentHoldingsCVX - _rewardsMeta[_CVX_KEY].lastHoldings;\n        cncEarned = currentHoldingsCNC - _rewardsMeta[_CNC_KEY].lastHoldings;\n    }\n\n    function accountCheckpoint(address account) external {\n        _accountCheckpoint(account);\n    }\n\n    function _accountCheckpoint(address account) internal {\n        uint256 accountBalance = controller.lpTokenStaker().getUserBalanceForPool(pool, account);\n        poolCheckpoint();\n        _updateAccountRewardsMeta(_CNC_KEY, account, accountBalance);\n        _updateAccountRewardsMeta(_CRV_KEY, account, accountBalance);\n        _updateAccountRewardsMeta(_CVX_KEY, account, accountBalance);\n    }\n\n    function _updateAccountRewardsMeta(bytes32 key, address account, uint256 balance) internal {\n        RewardMeta storage meta = _rewardsMeta[key];\n        uint256 share = balance.mulDown(meta.earnedIntegral - meta.accountIntegral[account]);\n        meta.accountShare[account] += share;\n        meta.accountIntegral[account] = meta.earnedIntegral;\n    }\n\n    /// @notice Claims all CRV, CVX and CNC earned by a user. All extra reward\n    /// tokens earned will be sold for CNC.\n    /// @dev Conic pool LP tokens need to be staked in the `LpTokenStaker` in\n    /// order to receive a share of the CRV, CVX and CNC earnings.\n    /// after selling all extra reward tokens.\n    function claimEarnings() public override returns (uint256, uint256, uint256) {\n        _accountCheckpoint(msg.sender);\n        uint256 crvAmount = _rewardsMeta[_CRV_KEY].accountShare[msg.sender];\n        uint256 cvxAmount = _rewardsMeta[_CVX_KEY].accountShare[msg.sender];\n        uint256 cncAmount = _rewardsMeta[_CNC_KEY].accountShare[msg.sender];\n\n        if (\n            crvAmount > CRV.balanceOf(pool) ||\n            cvxAmount > CVX.balanceOf(pool) ||\n            cncAmount > CNC.balanceOf(pool)\n        ) {\n            _claimPoolEarningsAndSellRewardTokens();\n        }\n        _rewardsMeta[_CNC_KEY].accountShare[msg.sender] = 0;\n        _rewardsMeta[_CVX_KEY].accountShare[msg.sender] = 0;\n        _rewardsMeta[_CRV_KEY].accountShare[msg.sender] = 0;\n\n        CRV.safeTransferFrom(pool, msg.sender, crvAmount);\n        CVX.safeTransferFrom(pool, msg.sender, cvxAmount);\n        CNC.safeTransferFrom(pool, msg.sender, cncAmount);\n\n        (\n            uint256 currentHoldingsCRV,\n            uint256 currentHoldingsCVX,\n            uint256 currentHoldingsCNC\n        ) = _getHoldings(IConvexHandler(controller.convexHandler()));\n        _rewardsMeta[_CRV_KEY].lastHoldings = currentHoldingsCRV;\n        _rewardsMeta[_CVX_KEY].lastHoldings = currentHoldingsCVX;\n        _rewardsMeta[_CNC_KEY].lastHoldings = currentHoldingsCNC;\n\n        emit EarningsClaimed(msg.sender, cncAmount, crvAmount, cvxAmount);\n        return (cncAmount, crvAmount, cvxAmount);\n    }\n\n    /// @notice Claims all claimable CVX and CRV from Convex for all staked Curve LP tokens.\n    /// Then Swaps all additional rewards tokens for CNC.\n    function claimPoolEarningsAndSellRewardTokens() external override {\n        if (!poolCheckpoint()) {\n            _claimPoolEarningsAndSellRewardTokens();\n        }\n    }\n\n    function _claimPoolEarningsAndSellRewardTokens() internal {\n        _claimPoolEarnings();\n\n        uint256 cncBalanceBefore_ = CNC.balanceOf(pool);\n\n        _sellRewardTokens();\n\n        uint256 receivedCnc_ = CNC.balanceOf(pool) - cncBalanceBefore_;\n        uint256 _totalStaked = controller.lpTokenStaker().getBalanceForPool(pool);\n        if (_totalStaked > 0)\n            _rewardsMeta[_CNC_KEY].earnedIntegral += receivedCnc_.divDown(_totalStaked);\n        emit SoldRewardTokens(receivedCnc_);\n    }\n\n    /// @notice Claims all claimable CVX and CRV from Convex for all staked Curve LP tokens\n    function _claimPoolEarnings() internal {\n        _claimingCNC = true;\n        controller.lpTokenStaker().claimCNCRewardsForPool(pool);\n        _claimingCNC = false;\n\n        uint256 cvxBalance = CVX.balanceOf(pool);\n        uint256 crvBalance = CRV.balanceOf(pool);\n\n        address convexHandler = controller.convexHandler();\n\n        IConvexHandler(convexHandler).claimBatchEarnings(IConicPool(pool).allCurvePools(), pool);\n\n        uint256 claimedCvx = CVX.balanceOf(pool) - cvxBalance;\n        uint256 claimedCrv = CRV.balanceOf(pool) - crvBalance;\n\n        emit ClaimedRewards(claimedCrv, claimedCvx);\n    }\n\n    /// @notice Swaps all additional rewards tokens for CNC.\n    function _sellRewardTokens() internal {\n        uint256 extraRewardsLength_ = _extraRewards.length();\n        if (extraRewardsLength_ == 0) return;\n        for (uint256 i; i < extraRewardsLength_; i++) {\n            _swapRewardTokenForWeth(_extraRewards.at(i));\n        }\n        _swapWethForCNC();\n    }\n\n    function listExtraRewards() external view returns (address[] memory) {\n        return _extraRewards.values();\n    }\n\n    function addExtraReward(address reward) public override onlyOwner returns (bool) {\n        require(reward != address(0), \"invalid address\");\n        require(\n            reward != address(CVX) &&\n                reward != address(CRV) &&\n                reward != address(underlying) &&\n                reward != address(CNC),\n            \"token not allowed\"\n        );\n\n        // Checking reward token isn't a Curve Pool LP Token\n        address[] memory curvePools_ = IConicPool(pool).allCurvePools();\n        for (uint256 i; i < curvePools_.length; i++) {\n            address curveLpToken_ = controller.curveRegistryCache().lpToken(curvePools_[i]);\n            require(reward != curveLpToken_, \"token not allowed\");\n        }\n\n        IERC20(reward).safeApprove(address(SUSHISWAP), 0);\n        IERC20(reward).safeApprove(address(SUSHISWAP), type(uint256).max);\n        emit ExtraRewardAdded(reward);\n        return _extraRewards.add(reward);\n    }\n\n    function addBatchExtraRewards(address[] memory _rewards) external override onlyOwner {\n        for (uint256 i; i < _rewards.length; i++) {\n            addExtraReward(_rewards[i]);\n        }\n    }\n\n    function removeExtraReward(address tokenAddress) external onlyOwner {\n        _extraRewards.remove(tokenAddress);\n        emit ExtraRewardRemoved(tokenAddress);\n    }\n\n    function setExtraRewardsCurvePool(address extraReward_, address curvePool_) external onlyOwner {\n        require(curvePool_ != extraRewardsCurvePool[extraReward_], \"must be different to current\");\n        if (curvePool_ != address(0)) {\n            IERC20(extraReward_).safeApprove(curvePool_, 0);\n            IERC20(extraReward_).safeApprove(curvePool_, type(uint256).max);\n        }\n        extraRewardsCurvePool[extraReward_] = curvePool_;\n        emit ExtraRewardsCurvePoolSet(extraReward_, curvePool_);\n    }\n\n    function setFeePercentage(uint256 _feePercentage) external override onlyOwner {\n        require(_feePercentage < MAX_FEE_PERCENTAGE, \"cannot set fee percentage to more than 30%\");\n        require(locker.totalBoosted() > 0);\n        feePercentage = _feePercentage;\n        feesEnabled = true;\n        emit FeesSet(feePercentage);\n    }\n\n    function claimableRewards(\n        address account\n    ) external view returns (uint256 cncRewards, uint256 crvRewards, uint256 cvxRewards) {\n        uint256 _totalStaked = controller.lpTokenStaker().getBalanceForPool(pool);\n        if (_totalStaked == 0) return (0, 0, 0);\n        (uint256 crvEarned, uint256 cvxEarned, uint256 cncEarned) = _getEarnedRewards();\n        uint256 userBalance = controller.lpTokenStaker().getUserBalanceForPool(pool, account);\n\n        cncRewards = _getClaimableReward(\n            account,\n            _CNC_KEY,\n            cncEarned,\n            userBalance,\n            _totalStaked,\n            false\n        );\n        crvRewards = _getClaimableReward(\n            account,\n            _CRV_KEY,\n            crvEarned,\n            userBalance,\n            _totalStaked,\n            feesEnabled\n        );\n        cvxRewards = _getClaimableReward(\n            account,\n            _CVX_KEY,\n            cvxEarned,\n            userBalance,\n            _totalStaked,\n            feesEnabled\n        );\n    }\n\n    function _getClaimableReward(\n        address account,\n        bytes32 key,\n        uint256 earned,\n        uint256 userBalance,\n        uint256 _totalSupply,\n        bool deductFee\n    ) internal view returns (uint256) {\n        RewardMeta storage meta = _rewardsMeta[key];\n        uint256 integral = meta.earnedIntegral;\n        if (deductFee) {\n            integral += earned.divDown(_totalSupply).mulDown(ScaledMath.ONE - feePercentage);\n        } else {\n            integral += earned.divDown(_totalSupply);\n        }\n        return\n            meta.accountShare[account] +\n            userBalance.mulDown(integral - meta.accountIntegral[account]);\n    }\n\n    function _swapRewardTokenForWeth(address rewardToken_) internal {\n        uint256 tokenBalance_ = IERC20(rewardToken_).balanceOf(address(this));\n        if (tokenBalance_ == 0) return;\n\n        ICurvePoolV2 curvePool_ = ICurvePoolV2(extraRewardsCurvePool[rewardToken_]);\n        if (address(curvePool_) != address(0)) {\n            (int128 i, int128 j, ) = controller.curveRegistryCache().coinIndices(\n                address(curvePool_),\n                rewardToken_,\n                address(WETH)\n            );\n            (uint256 from_, uint256 to_) = (uint256(uint128(i)), uint256(uint128(j)));\n            curvePool_.exchange(\n                from_,\n                to_,\n                tokenBalance_,\n                _minAmountOut(address(rewardToken_), address(WETH), tokenBalance_),\n                false,\n                address(this)\n            );\n            return;\n        }\n\n        address[] memory path_ = new address[](2);\n        path_[0] = rewardToken_;\n        path_[1] = address(WETH);\n        SUSHISWAP.swapExactTokensForTokens(\n            tokenBalance_,\n            _minAmountOut(address(rewardToken_), address(WETH), tokenBalance_),\n            path_,\n            address(this),\n            block.timestamp\n        );\n    }\n\n    function _swapWethForCNC() internal {\n        uint256 wethBalance_ = WETH.balanceOf(address(this));\n        if (wethBalance_ == 0) return;\n        CNC_ETH_POOL.exchange(\n            0,\n            1,\n            wethBalance_,\n            _minAmountOut(address(WETH), address(CNC), wethBalance_),\n            false,\n            pool\n        );\n    }\n\n    function _minAmountOut(\n        address tokenIn_,\n        address tokenOut_,\n        uint256 amountIn_\n    ) internal view returns (uint256) {\n        IOracle oracle_ = controller.priceOracle();\n\n        if (tokenIn_ == tokenOut_) {\n            return amountIn_;\n        }\n\n        // If we don't have a price for either token, we can't calculate the min amount out\n        // This should only ever happen for very minor tokens, so we accept the risk of not having\n        // slippage protection in that case\n        if (!oracle_.isTokenSupported(tokenIn_) || !oracle_.isTokenSupported(tokenOut_)) {\n            return 0;\n        }\n\n        return\n            amountIn_\n                .mulDown(oracle_.getUSDPrice(tokenIn_))\n                .divDown(oracle_.getUSDPrice(tokenOut_))\n                .convertScale(\n                    IERC20Metadata(tokenIn_).decimals(),\n                    IERC20Metadata(tokenOut_).decimals()\n                )\n                .mulDown(SLIPPAGE_THRESHOLD);\n    }\n}\n","sourcePath":"contracts/RewardManagerV2.sol","type":"contract","deployment":{"address":"0x374cb7d10F84777B4a0d5E21410c1a700C9692F8","chainid":"1","blockHeight":17004083}}