{"abi":[{"inputs":[{"internalType":"address","name":"governance","type":"address"},{"internalType":"address","name":"veto","type":"address"}],"stateMutability":"nonpayable","type":"constructor","name":"constructor"},{"anonymous":false,"inputs":[{"indexed":true,"internalType":"uint64","name":"changeId","type":"uint64"}],"name":"ChangeCanceled","type":"event"},{"anonymous":false,"inputs":[{"indexed":true,"internalType":"uint64","name":"changeId","type":"uint64"}],"name":"ChangeExecuted","type":"event"},{"anonymous":false,"inputs":[{"components":[{"internalType":"address","name":"target","type":"address"},{"internalType":"bytes","name":"data","type":"bytes"}],"indexed":false,"internalType":"struct IGovernanceProxy.Call[]","name":"calls","type":"tuple[]"},{"indexed":false,"internalType":"uint64","name":"delay","type":"uint64"},{"indexed":false,"internalType":"uint64","name":"changeId","type":"uint64"}],"name":"ChangeRequested","type":"event"},{"anonymous":false,"inputs":[{"indexed":true,"internalType":"bytes4","name":"selector","type":"bytes4"},{"indexed":false,"internalType":"uint64","name":"delay","type":"uint64"}],"name":"DelayUpdated","type":"event"},{"anonymous":false,"inputs":[{"indexed":true,"internalType":"bytes32","name":"role","type":"bytes32"},{"indexed":true,"internalType":"address","name":"account","type":"address"}],"name":"RoleGranted","type":"event"},{"anonymous":false,"inputs":[{"indexed":true,"internalType":"bytes32","name":"role","type":"bytes32"},{"indexed":true,"internalType":"address","name":"account","type":"address"}],"name":"RoleRevoked","type":"event"},{"inputs":[],"name":"GOVERNANCE_ROLE","outputs":[{"internalType":"bytes32","name":"","type":"bytes32"}],"stateMutability":"view","type":"function"},{"inputs":[],"name":"VETO_ROLE","outputs":[{"internalType":"bytes32","name":"","type":"bytes32"}],"stateMutability":"view","type":"function"},{"inputs":[{"internalType":"bytes32","name":"role","type":"bytes32"}],"name":"accountsWithRole","outputs":[{"internalType":"address[]","name":"","type":"address[]"}],"stateMutability":"view","type":"function"},{"inputs":[{"internalType":"uint64","name":"id","type":"uint64"}],"name":"cancelChange","outputs":[],"stateMutability":"nonpayable","type":"function"},{"inputs":[{"internalType":"bytes4","name":"","type":"bytes4"}],"name":"delays","outputs":[{"internalType":"uint64","name":"","type":"uint64"}],"stateMutability":"view","type":"function"},{"inputs":[{"internalType":"uint64","name":"id","type":"uint64"}],"name":"executeChange","outputs":[],"stateMutability":"nonpayable","type":"function"},{"inputs":[{"internalType":"uint256","name":"offset","type":"uint256"},{"internalType":"uint256","name":"n","type":"uint256"}],"name":"getEndedChanges","outputs":[{"components":[{"internalType":"enum IGovernanceProxy.Status","name":"status","type":"uint8"},{"internalType":"uint64","name":"id","type":"uint64"},{"internalType":"uint64","name":"requestedAt","type":"uint64"},{"internalType":"uint64","name":"delay","type":"uint64"},{"internalType":"uint64","name":"endedAt","type":"uint64"},{"components":[{"internalType":"address","name":"target","type":"address"},{"internalType":"bytes","name":"data","type":"bytes"}],"internalType":"struct IGovernanceProxy.Call[]","name":"calls","type":"tuple[]"}],"internalType":"struct IGovernanceProxy.Change[]","name":"","type":"tuple[]"}],"stateMutability":"view","type":"function"},{"inputs":[],"name":"getEndedChanges","outputs":[{"components":[{"internalType":"enum IGovernanceProxy.Status","name":"status","type":"uint8"},{"internalType":"uint64","name":"id","type":"uint64"},{"internalType":"uint64","name":"requestedAt","type":"uint64"},{"internalType":"uint64","name":"delay","type":"uint64"},{"internalType":"uint64","name":"endedAt","type":"uint64"},{"components":[{"internalType":"address","name":"target","type":"address"},{"internalType":"bytes","name":"data","type":"bytes"}],"internalType":"struct IGovernanceProxy.Call[]","name":"calls","type":"tuple[]"}],"internalType":"struct IGovernanceProxy.Change[]","name":"","type":"tuple[]"}],"stateMutability":"view","type":"function"},{"inputs":[],"name":"getEndedChangesCount","outputs":[{"internalType":"uint256","name":"","type":"uint256"}],"stateMutability":"view","type":"function"},{"inputs":[{"internalType":"uint64","name":"changeId","type":"uint64"}],"name":"getPendingChange","outputs":[{"components":[{"internalType":"enum IGovernanceProxy.Status","name":"status","type":"uint8"},{"internalType":"uint64","name":"id","type":"uint64"},{"internalType":"uint64","name":"requestedAt","type":"uint64"},{"internalType":"uint64","name":"delay","type":"uint64"},{"internalType":"uint64","name":"endedAt","type":"uint64"},{"components":[{"internalType":"address","name":"target","type":"address"},{"internalType":"bytes","name":"data","type":"bytes"}],"internalType":"struct IGovernanceProxy.Call[]","name":"calls","type":"tuple[]"}],"internalType":"struct IGovernanceProxy.Change","name":"change","type":"tuple"}],"stateMutability":"view","type":"function"},{"inputs":[],"name":"getPendingChanges","outputs":[{"components":[{"internalType":"enum IGovernanceProxy.Status","name":"status","type":"uint8"},{"internalType":"uint64","name":"id","type":"uint64"},{"internalType":"uint64","name":"requestedAt","type":"uint64"},{"internalType":"uint64","name":"delay","type":"uint64"},{"internalType":"uint64","name":"endedAt","type":"uint64"},{"components":[{"internalType":"address","name":"target","type":"address"},{"internalType":"bytes","name":"data","type":"bytes"}],"internalType":"struct IGovernanceProxy.Call[]","name":"calls","type":"tuple[]"}],"internalType":"struct IGovernanceProxy.Change[]","name":"","type":"tuple[]"}],"stateMutability":"view","type":"function"},{"inputs":[{"internalType":"bytes32","name":"role","type":"bytes32"}],"name":"getRoleMemberCount","outputs":[{"internalType":"uint256","name":"","type":"uint256"}],"stateMutability":"view","type":"function"},{"inputs":[{"internalType":"bytes32","name":"role","type":"bytes32"},{"internalType":"address","name":"account","type":"address"}],"name":"grantRole","outputs":[],"stateMutability":"nonpayable","type":"function"},{"inputs":[{"internalType":"bytes32","name":"role","type":"bytes32"},{"internalType":"address","name":"account","type":"address"}],"name":"hasRole","outputs":[{"internalType":"bool","name":"","type":"bool"}],"stateMutability":"view","type":"function"},{"inputs":[],"name":"nextChangeId","outputs":[{"internalType":"uint64","name":"","type":"uint64"}],"stateMutability":"view","type":"function"},{"inputs":[{"components":[{"internalType":"address","name":"target","type":"address"},{"internalType":"bytes","name":"data","type":"bytes"}],"internalType":"struct IGovernanceProxy.Call[]","name":"calls","type":"tuple[]"}],"name":"requestChange","outputs":[],"stateMutability":"nonpayable","type":"function"},{"inputs":[{"internalType":"bytes32","name":"role","type":"bytes32"},{"internalType":"address","name":"account","type":"address"}],"name":"revokeRole","outputs":[],"stateMutability":"nonpayable","type":"function"},{"inputs":[{"internalType":"bytes4","name":"selector","type":"bytes4"},{"internalType":"uint64","name":"delay","type":"uint64"}],"name":"updateDelay","outputs":[],"stateMutability":"nonpayable","type":"function"}],"bytecode":"60806040523480156200001157600080fd5b50604051620027f8380380620027f8833981016040819052620000349162000157565b6200004d69474f5645524e414e434560b01b8362000068565b62000060635645544f60e01b8262000068565b50506200018f565b6000828152602081815260409091206200008d91839062000ec0620000c8821b17901c565b506040516001600160a01b0382169083907f2ae6a113c0ed5b78a53413ffbb7679881f11145ccfba4fb92e863dfcd5a1d2f390600090a35050565b6000620000df836001600160a01b038416620000e8565b90505b92915050565b60008181526001830160205260408120546200013157508154600181810184556000848152602080822090930184905584548482528286019093526040902091909155620000e2565b506000620000e2565b80516001600160a01b03811681146200015257600080fd5b919050565b600080604083850312156200016b57600080fd5b62000176836200013a565b915062000186602084016200013a565b90509250929050565b612659806200019f6000396000f3fe608060405234801561001057600080fd5b50600436106101165760003560e01c8063d547741f116100a2578063ee5112a911610071578063ee5112a91461024e578063f36c8f5c14610256578063f3de7f4f1461026a578063fb507e8714610293578063fcb96a9f146102b357600080fd5b8063d547741f14610202578063d980e4b114610215578063da2d17fe14610228578063e4a99c471461023b57600080fd5b8063634f8ed6116100e9578063634f8ed61461017357806391d1485414610193578063a147109b146101b6578063a825a680146101c4578063ca15c873146101ef57600080fd5b80630954ae961461011b5780630c2cdbd7146101395780630f26f5d21461014b5780632f2ff15d14610160575b600080fd5b6101236102c6565b6040516101309190611e25565b60405180910390f35b6004545b604051908152602001610130565b61015e610159366004611e87565b6104a8565b005b61015e61016e366004611f10565b610596565b610186610181366004611f40565b61061f565b6040516101309190611f59565b6101a66101a1366004611f10565b61063f565b6040519015158152602001610130565b61013d635645544f60e01b81565b6001546101d7906001600160401b031681565b6040516001600160401b039091168152602001610130565b61013d6101fd366004611f40565b61065e565b61015e610210366004611f10565b610675565b61015e610223366004611fc2565b61070e565b61015e610236366004611ff3565b6107ae565b610123610249366004612028565b610888565b610123610b04565b61013d69474f5645524e414e434560b01b81565b6101d761027836600461204a565b6002602052600090815260409020546001600160401b031681565b6102a66102a1366004611fc2565b610cdd565b6040516101309190612067565b61015e6102c1366004611fc2565b610ea6565b60606003805480602002602001604051908101604052809291908181526020016000905b8282101561049f57838290600052602060002090600302016040518060c00160405290816000820160009054906101000a900460ff16600381111561033157610331611cd0565b600381111561034257610342611cd0565b815281546001600160401b0361010082048116602080850191909152600160481b83048216604080860191909152600160881b909304821660608501526001850154909116608084015260028401805483518184028101840190945280845260a090940193909160009084015b82821015610488576000848152602090819020604080518082019091526002850290910180546001600160a01b0316825260018101805492939192918401916103f79061207a565b80601f01602080910402602001604051908101604052809291908181526020018280546104239061207a565b80156104705780601f1061044557610100808354040283529160200191610470565b820191906000526020600020905b81548152906001019060200180831161045357829003601f168201915b505050505081525050815260200190600101906103af565b5050505081525050815260200190600101906102ea565b50505050905090565b69474f5645524e414e434560b01b6104c0813361063f565b6104e55760405162461bcd60e51b81526004016104dc906120b4565b60405180910390fd5b6000805b8381101561056057600061052d868684818110610508576105086120dc565b905060200281019061051a91906120f2565b610528906020810190612112565b610ed5565b9050826001600160401b0316816001600160401b0316111561054d578092505b508061055881612175565b9150506104e9565b5060008061056f838787610f92565b91509150826001600160401b031660000361058e5761058e8282611167565b505050505050565b3330146105b55760405162461bcd60e51b81526004016104dc906120b4565b69474f5645524e414e434560b01b8214806105d65750635645544f60e01b82145b6106115760405162461bcd60e51b815260206004820152600c60248201526b696e76616c696420726f6c6560a01b60448201526064016104dc565b61061b828261139f565b5050565b6000818152602081905260409020606090610639906113f2565b92915050565b600082815260208190526040812061065790836113ff565b9392505050565b600081815260208190526040812061063990611421565b3330146106945760405162461bcd60e51b81526004016104dc906120b4565b69474f5645524e414e434560b01b821415806106b8575060016106b68361065e565b115b6107045760405162461bcd60e51b815260206004820152601a60248201527f6e656564206174206c65617374206f6e6520676f7665726e6f7200000000000060448201526064016104dc565b61061b828261142b565b61072569474f5645524e414e434560b01b3361063f565b8061073c575061073c635645544f60e01b3361063f565b6107585760405162461bcd60e51b81526004016104dc906120b4565b6000806107648361147e565b60405191935091506001600160401b038416907f4bb934cf1c626b3439a169ba2f7710e204c468538fc3a2f54942fd8ee60046af90600090a26107a982826001611549565b505050565b3330146107cd5760405162461bcd60e51b81526004016104dc906120b4565b62127500816001600160401b0316111561081a5760405162461bcd60e51b815260206004820152600e60248201526d0c8cad8c2f240e8dede40d0d2ced60931b60448201526064016104dc565b6001600160e01b03198216600081815260026020908152604091829020805467ffffffffffffffff19166001600160401b03861690811790915591519182527f0816c272a68b4bff071bf7f969473d64b07dcee749dc4b37a85be0ea27f05efd910160405180910390a25050565b60606000826001600160401b038111156108a4576108a461218e565b60405190808252806020026020018201604052801561090657816020015b6040805160c081018252600080825260208083018290529282018190526060808301829052608083019190915260a082015282526000199092019101816108c25790505b50905060005b83811015610afc57600461092082876121a4565b81548110610930576109306120dc565b90600052602060002090600302016040518060c00160405290816000820160009054906101000a900460ff16600381111561096d5761096d611cd0565b600381111561097e5761097e611cd0565b815281546001600160401b0361010082048116602080850191909152600160481b83048216604080860191909152600160881b909304821660608501526001850154909116608084015260028401805483518184028101840190945280845260a090940193909160009084015b82821015610ac4576000848152602090819020604080518082019091526002850290910180546001600160a01b031682526001810180549293919291840191610a339061207a565b80601f0160208091040260200160405190810160405280929190818152602001828054610a5f9061207a565b8015610aac5780601f10610a8157610100808354040283529160200191610aac565b820191906000526020600020905b815481529060010190602001808311610a8f57829003601f168201915b505050505081525050815260200190600101906109eb565b5050505081525050828281518110610ade57610ade6120dc565b60200260200101819052508080610af490612175565b91505061090c565b509392505050565b60606004805480602002602001604051908101604052809291908181526020016000905b8282101561049f57838290600052602060002090600302016040518060c00160405290816000820160009054906101000a900460ff166003811115610b6f57610b6f611cd0565b6003811115610b8057610b80611cd0565b815281546001600160401b0361010082048116602080850191909152600160481b83048216604080860191909152600160881b909304821660608501526001850154909116608084015260028401805483518184028101840190945280845260a090940193909160009084015b82821015610cc6576000848152602090819020604080518082019091526002850290910180546001600160a01b031682526001810180549293919291840191610c359061207a565b80601f0160208091040260200160405190810160405280929190818152602001828054610c619061207a565b8015610cae5780601f10610c8357610100808354040283529160200191610cae565b820191906000526020600020905b815481529060010190602001808311610c9157829003601f168201915b50505050508152505081526020019060010190610bed565b505050508152505081526020019060010190610b28565b6040805160c0810182526000808252602082018190529181018290526060808201839052608082019290925260a0810191909152610d1a8261147e565b6040805160c0810190915282548390829060ff166003811115610d3f57610d3f611cd0565b6003811115610d5057610d50611cd0565b815281546001600160401b0361010082048116602080850191909152600160481b83048216604080860191909152600160881b909304821660608501526001850154909116608084015260028401805483518184028101840190945280845260a090940193909160009084015b82821015610e96576000848152602090819020604080518082019091526002850290910180546001600160a01b031682526001810180549293919291840191610e059061207a565b80601f0160208091040260200160405190810160405280929190818152602001828054610e319061207a565b8015610e7e5780601f10610e5357610100808354040283529160200191610e7e565b820191906000526020600020905b815481529060010190602001808311610e6157829003601f168201915b50505050508152505081526020019060010190610dbd565b5050509152509095945050505050565b600080610eb28361147e565b915091506107a98282611167565b6000610657836001600160a01b0384166116a9565b600080610ee560048285876121b7565b610eee916121e1565b90506312e9740160e11b6001600160e01b0319821601610f69576000610f1784600481886121b7565b8080601f016020809104026020016040519081016040528093929190818152602001838380828437600092019190915250508251929350610f649284016020908101925084019050612211565b509150505b6001600160e01b0319166000908152600260205260409020546001600160401b03169392505050565b60018054600091829182916001600160401b039091169082610fb38361223f565b825461010092830a6001600160401b038181021990921692821602919091179092556003805460018101825560008281527fc2575a0e9e593c00f959f8c92f12db2869c3395a3b0502d05e2516446f71f85b9190920290810180547fc2575a0e9e593c00f959f8c92f12db2869c3395a3b0502d05e2516446f71f85c909201805467ffffffffffffffff19169055610100600160881b031990911685851690930267ffffffffffffffff60481b191692909217600160481b428516021778ffffffffffffffff00000000000000000000000000000000ff1916600160881b938b169390930260ff191692909217815594509091505b8481101561110f57836002018686838181106110c6576110c66120dc565b90506020028101906110d891906120f2565b8154600181018355600092835260209092209091600202016110fa82826122ab565b5050808061110790612175565b9150506110a8565b5060035461111f906001906123c6565b91507fea6e341f82fb9f110709efb8c6306f361297efe562f52a900dd723067675762a8585888460405161115694939291906123d9565b60405180910390a150935093915050565b8154429061118e906001600160401b03600160881b8204811691600160481b9004166124e8565b6001600160401b031611156111e55760405162461bcd60e51b815260206004820152601d60248201527f646561646c696e6520686173206e6f74206265656e207265616368656400000060448201526064016104dc565b6000825460ff1660038111156111fd576111fd611cd0565b1461123f5760405162461bcd60e51b81526020600482015260126024820152716368616e6765206e6f742070656e64696e6760701b60448201526064016104dc565b815460ff1916600317825560005b600283015481101561135357611340836002018281548110611271576112716120dc565b9060005260206000209060020201600101805461128d9061207a565b80601f01602080910402602001604051908101604052809291908181526020018280546112b99061207a565b80156113065780601f106112db57610100808354040283529160200191611306565b820191906000526020600020905b8154815290600101906020018083116112e957829003601f168201915b5050505050846002018381548110611320576113206120dc565b60009182526020909120600290910201546001600160a01b0316906116f8565b508061134b81612175565b91505061124d565b5061136082826002611549565b81546040516101009091046001600160401b0316907f4093c58d6d95b5dc15bbca26257f9d4618824328023882d9cf600066a1f4bf3490600090a25050565b60008281526020819052604090206113b79082610ec0565b506040516001600160a01b0382169083907f2ae6a113c0ed5b78a53413ffbb7679881f11145ccfba4fb92e863dfcd5a1d2f390600090a35050565b606060006106578361173c565b6001600160a01b03811660009081526001830160205260408120541515610657565b6000610639825490565b60008281526020819052604090206114439082611798565b506040516001600160a01b0382169083907f155aaafb6329a2098580462df33ec4b7441b19729b9601c5fc17ae1cf99a8a5290600090a35050565b60008060005b60035481101561150d57836001600160401b0316600382815481106114ab576114ab6120dc565b600091825260209091206003909102015461010090046001600160401b0316036114fb57600381815481106114e2576114e26120dc565b9060005260206000209060030201819250925050915091565b8061150581612175565b915050611484565b5060405162461bcd60e51b815260206004820152601060248201526f18da185b99d9481b9bdd08199bdd5b9960821b60448201526064016104dc565b82548190849060ff1916600183600381111561156757611567611cd0565b02179055506001838101805467ffffffffffffffff1916426001600160401b031617905560048054808301825560009190915284547f8a35acfbc15ff81a39ae7d344fd709f28e8600b4aa8c65c6b64bfe7fe36bd19b60039283020180548794919360ff90931692849260ff19909216919084908111156115ea576115ea611cd0565b0217905550815481546001600160401b0361010092839004811690920268ffffffffffffffff00198216811784558454600160481b9081900484160267ffffffffffffffff60481b19909116610100600160881b031990921691909117178083558354600160881b9081900483160267ffffffffffffffff60881b19909116178255600180840154908301805467ffffffffffffffff1916919092161790556002808301805461169d9284019190611baf565b5050506107a9826117ad565b60008181526001830160205260408120546116f057508154600181810184556000848152602080822090930184905584548482528286019093526040902091909155610639565b506000610639565b6060610657838360006040518060400160405280601e81526020017f416464726573733a206c6f772d6c6576656c2063616c6c206661696c6564000081525061193a565b60608160000180548060200260200160405190810160405280929190818152602001828054801561178c57602002820191906000526020600020905b815481526020019060010190808311611778575b50505050509050919050565b6000610657836001600160a01b038416611a17565b600380546117bd906001906123c6565b815481106117cd576117cd6120dc565b9060005260206000209060030201600382815481106117ee576117ee6120dc565b60009182526020909120825460039283029091018054909260ff90921691839160ff191690600190849081111561182757611827611cd0565b0217905550815481546001600160401b0361010092839004811690920268ffffffffffffffff00198216811784558454600160481b9081900484160267ffffffffffffffff60481b19909116610100600160881b031990921691909117178083558354600160881b9081900483160267ffffffffffffffff60881b19909116178255600180840154908301805467ffffffffffffffff191691909216179055600280830180546118da9284019190611baf565b5090505060038054806118ef576118ef612508565b60008281526020812060036000199093019283020180546001600160c81b031916815560018101805467ffffffffffffffff19169055906119336002830182611c34565b5050905550565b60608247101561199b5760405162461bcd60e51b815260206004820152602660248201527f416464726573733a20696e73756666696369656e742062616c616e636520666f6044820152651c8818d85b1b60d21b60648201526084016104dc565b600080866001600160a01b031685876040516119b7919061251e565b60006040518083038185875af1925050503d80600081146119f4576040519150601f19603f3d011682016040523d82523d6000602084013e6119f9565b606091505b5091509150611a0a87838387611b11565b925050505b949350505050565b60008181526001830160205260408120548015611b00576000611a3b6001836123c6565b8554909150600090611a4f906001906123c6565b9050818114611ab4576000866000018281548110611a6f57611a6f6120dc565b9060005260206000200154905080876000018481548110611a9257611a926120dc565b6000918252602080832090910192909255918252600188019052604090208390555b8554869080611ac557611ac5612508565b600190038181906000526020600020016000905590558560010160008681526020019081526020016000206000905560019350505050610639565b6000915050610639565b5092915050565b60608315611b80578251600003611b79576001600160a01b0385163b611b795760405162461bcd60e51b815260206004820152601d60248201527f416464726573733a2063616c6c20746f206e6f6e2d636f6e747261637400000060448201526064016104dc565b5081611a0f565b611a0f8383815115611b955781518083602001fd5b8060405162461bcd60e51b81526004016104dc9190612530565b828054828255906000526020600020906002028101928215611c245760005260206000209160020282015b82811115611c2457825482546001600160a01b0319166001600160a01b039091161782558282600180820190611c1290840182612543565b50505091600201919060020190611bda565b50611c30929150611c58565b5090565b5080546000825560020290600052602060002090810190611c559190611c58565b50565b80821115611c305780546001600160a01b03191681556000611c7d6001830182611c86565b50600201611c58565b508054611c929061207a565b6000825580601f10611ca2575050565b601f016020900490600052602060002090810190611c5591905b80821115611c305760008155600101611cbc565b634e487b7160e01b600052602160045260246000fd5b60005b83811015611d01578181015183820152602001611ce9565b50506000910152565b60008151808452611d22816020860160208601611ce6565b601f01601f19169290920160200192915050565b600082825180855260208086019550808260051b84010181860160005b84811015611d9e57858303601f19018952815180516001600160a01b031684528401516040858501819052611d8a81860183611d0a565b9a86019a9450505090830190600101611d53565b5090979650505050505050565b6000815160048110611dcd57634e487b7160e01b600052602160045260246000fd5b8084525060208201516001600160401b038082166020860152806040850151166040860152806060850151166060860152806080850151166080860152505060a082015160c060a0850152611a0f60c0850182611d36565b6000602080830181845280855180835260408601915060408160051b870101925083870160005b82811015611e7a57603f19888603018452611e68858351611dab565b94509285019290850190600101611e4c565b5092979650505050505050565b60008060208385031215611e9a57600080fd5b82356001600160401b0380821115611eb157600080fd5b818501915085601f830112611ec557600080fd5b813581811115611ed457600080fd5b8660208260051b8501011115611ee957600080fd5b60209290920196919550909350505050565b6001600160a01b0381168114611c5557600080fd5b60008060408385031215611f2357600080fd5b823591506020830135611f3581611efb565b809150509250929050565b600060208284031215611f5257600080fd5b5035919050565b6020808252825182820181905260009190848201906040850190845b81811015611f9a5783516001600160a01b031683529284019291840191600101611f75565b50909695505050505050565b80356001600160401b0381168114611fbd57600080fd5b919050565b600060208284031215611fd457600080fd5b61065782611fa6565b6001600160e01b031981168114611c5557600080fd5b6000806040838503121561200657600080fd5b823561201181611fdd565b915061201f60208401611fa6565b90509250929050565b6000806040838503121561203b57600080fd5b50508035926020909101359150565b60006020828403121561205c57600080fd5b813561065781611fdd565b6020815260006106576020830184611dab565b600181811c9082168061208e57607f821691505b6020821081036120ae57634e487b7160e01b600052602260045260246000fd5b50919050565b6020808252600e908201526d1b9bdd08185d5d1a1bdc9a5e995960921b604082015260600190565b634e487b7160e01b600052603260045260246000fd5b60008235603e1983360301811261210857600080fd5b9190910192915050565b6000808335601e1984360301811261212957600080fd5b8301803591506001600160401b0382111561214357600080fd5b60200191503681900382131561215857600080fd5b9250929050565b634e487b7160e01b600052601160045260246000fd5b6000600182016121875761218761215f565b5060010190565b634e487b7160e01b600052604160045260246000fd5b808201808211156106395761063961215f565b600080858511156121c757600080fd5b838611156121d457600080fd5b5050820193919092039150565b6001600160e01b031981358181169160048510156122095780818660040360031b1b83161692505b505092915050565b6000806040838503121561222457600080fd5b825161222f81611fdd565b6020939093015192949293505050565b60006001600160401b0380831681810361225b5761225b61215f565b6001019392505050565b601f8211156107a957600081815260208120601f850160051c8101602086101561228c5750805b601f850160051c820191505b8181101561058e57828155600101612298565b81356122b681611efb565b81546001600160a01b0319166001600160a01b0391909116178155600181810160208481013536869003601e190181126122ef57600080fd5b850180356001600160401b0381111561230757600080fd5b803603838301131561231857600080fd5b61232c81612326865461207a565b86612265565b6000601f821160018114612362576000831561234a57508382018501355b600019600385901b1c1916600184901b1786556123bb565b600086815260209020601f19841690835b8281101561239257868501880135825593870193908901908701612373565b50848210156123b15760001960f88660031b161c198785880101351681555b50508683881b0186555b505050505050505050565b818103818111156106395761063961215f565b60608082528181018590526000906080600587901b8401810190840188845b898110156124b557868403607f190183528135368c9003603e1901811261241e57600080fd5b8b016040813561242d81611efb565b6001600160a01b0316865260208281013536849003601e1901811261245157600080fd5b9092018281019290356001600160401b0381111561246e57600080fd5b80360384131561247d57600080fd5b8282890152808389015280848a8a013760008882018a0152601f01601f191690960187019594850194939093019250506001016123f8565b5050506001600160401b038616602085015291506124d09050565b6001600160401b038316604083015295945050505050565b6001600160401b03818116838216019080821115611b0a57611b0a61215f565b634e487b7160e01b600052603160045260246000fd5b60008251612108818460208701611ce6565b6020815260006106576020830184611d0a565b81810361254e575050565b612558825461207a565b6001600160401b0381111561256f5761256f61218e565b6125838161257d845461207a565b84612265565b6000601f8211600181146125b7576000831561259f5750848201545b600019600385901b1c1916600184901b17845561261c565b600085815260209020601f19841690600086815260209020845b838110156125f157828601548255600195860195909101906020016125d1565b508583101561260f5781850154600019600388901b60f8161c191681555b50505060018360011b0184555b505050505056fea264697066735822122067db76eec3fc9190291706d01aebff755210be034a97a46cbf685cf5f92d7f6d64736f6c63430008110033","bytecodeSha1":"decf0cc8173c7af8a1b150851e18ede543c00c60","compiler":{"evm_version":"london","optimizer":{"enabled":true,"runs":200},"version":"0.8.17+commit.8df45f5f"},"contractName":"GovernanceProxy","language":"Solidity","natspec":{"kind":"dev","methods":{"cancelChange(uint64)":{"notice":"Cancels a pending change Both governance and users having veto power can cancel a pending change"},"delays(bytes4)":{"notice":"mapping from function selector to delay in seconds NOTE: For simplicity, delays are only based on selectors and not on the contract address, which means that if two functions in different contracts have the exact same name and arguments, they will share the same delay"},"executeChange(uint64)":{"notice":"Executes a change The deadline of the change must be past Anyone can execute a pending change but in practice, this will be called by governance too"},"getEndedChanges()":{"returns":{"_0":"all the ended changes this can become large so `getEndedChanges(uint256 offset, uint256 n)` is the preferred way to query"}},"getEndedChanges(uint256,uint256)":{"returns":{"_0":"`n` ended changes starting from offset This is useful is you want to paginate through the changes note that the changes are in chronological order of execution/cancelation which means that it might be useful to start paginatign from the end of the array"}},"getEndedChangesCount()":{"returns":{"_0":"total number of ended changes"}},"getPendingChange(uint64)":{"returns":{"change":"the pending change with the given id if found this reverts if the change is not found"}},"getPendingChanges()":{"returns":{"_0":"all the pending changes this should typically be quite small so no need for pagination"}},"requestChange((address,bytes)[])":{"details":"If the change requires no delay, it will be executed immediately","notice":"Requests a list of function calls to be executed as a change","params":{"calls":"the calls to be executed this should be fully encoded including the selectors and the abi-encoded arguments Changes can only be requested by governance"}}},"stateVariables":{"endedChanges":{"details":"this is an array of all changes that have ended, regardless of their status this is only used to make it easier to query but should not be used from within any contract as the length is completely unbounded"},"pendingChanges":{"details":"array of pending changes to execute We perform linear searches through this using the change ID, so in theory this could run out of gas. However, in practice, the number of pending changes should never become large enough for this to become an issue"}},"version":1},"opcodes":"PUSH1 0x80 PUSH1 0x40 MSTORE CALLVALUE DUP1 ISZERO PUSH2 0x10 JUMPI PUSH1 0x0 DUP1 REVERT JUMPDEST POP PUSH1 0x4 CALLDATASIZE LT PUSH2 0x116 JUMPI PUSH1 0x0 CALLDATALOAD PUSH1 0xE0 SHR DUP1 PUSH4 0xD547741F GT PUSH2 0xA2 JUMPI DUP1 PUSH4 0xEE5112A9 GT PUSH2 0x71 JUMPI DUP1 PUSH4 0xEE5112A9 EQ PUSH2 0x24E JUMPI DUP1 PUSH4 0xF36C8F5C EQ PUSH2 0x256 JUMPI DUP1 PUSH4 0xF3DE7F4F EQ PUSH2 0x26A JUMPI DUP1 PUSH4 0xFB507E87 EQ PUSH2 0x293 JUMPI DUP1 PUSH4 0xFCB96A9F EQ PUSH2 0x2B3 JUMPI PUSH1 0x0 DUP1 REVERT JUMPDEST DUP1 PUSH4 0xD547741F EQ PUSH2 0x202 JUMPI DUP1 PUSH4 0xD980E4B1 EQ PUSH2 0x215 JUMPI DUP1 PUSH4 0xDA2D17FE EQ PUSH2 0x228 JUMPI DUP1 PUSH4 0xE4A99C47 EQ PUSH2 0x23B JUMPI PUSH1 0x0 DUP1 REVERT JUMPDEST DUP1 PUSH4 0x634F8ED6 GT PUSH2 0xE9 JUMPI DUP1 PUSH4 0x634F8ED6 EQ PUSH2 0x173 JUMPI DUP1 PUSH4 0x91D14854 EQ PUSH2 0x193 JUMPI DUP1 PUSH4 0xA147109B EQ PUSH2 0x1B6 JUMPI DUP1 PUSH4 0xA825A680 EQ PUSH2 0x1C4 JUMPI DUP1 PUSH4 0xCA15C873 EQ PUSH2 0x1EF JUMPI PUSH1 0x0 DUP1 REVERT JUMPDEST DUP1 PUSH4 0x954AE96 EQ PUSH2 0x11B JUMPI DUP1 PUSH4 0xC2CDBD7 EQ PUSH2 0x139 JUMPI DUP1 PUSH4 0xF26F5D2 EQ PUSH2 0x14B JUMPI DUP1 PUSH4 0x2F2FF15D EQ PUSH2 0x160 JUMPI JUMPDEST PUSH1 0x0 DUP1 REVERT JUMPDEST PUSH2 0x123 PUSH2 0x2C6 JUMP JUMPDEST PUSH1 0x40 MLOAD PUSH2 0x130 SWAP2 SWAP1 PUSH2 0x1E25 JUMP JUMPDEST PUSH1 0x40 MLOAD DUP1 SWAP2 SUB SWAP1 RETURN JUMPDEST PUSH1 0x4 SLOAD JUMPDEST PUSH1 0x40 MLOAD SWAP1 DUP2 MSTORE PUSH1 0x20 ADD PUSH2 0x130 JUMP JUMPDEST PUSH2 0x15E PUSH2 0x159 CALLDATASIZE PUSH1 0x4 PUSH2 0x1E87 JUMP JUMPDEST PUSH2 0x4A8 JUMP JUMPDEST STOP JUMPDEST PUSH2 0x15E PUSH2 0x16E CALLDATASIZE PUSH1 0x4 PUSH2 0x1F10 JUMP JUMPDEST PUSH2 0x596 JUMP JUMPDEST PUSH2 0x186 PUSH2 0x181 CALLDATASIZE PUSH1 0x4 PUSH2 0x1F40 JUMP JUMPDEST PUSH2 0x61F JUMP JUMPDEST PUSH1 0x40 MLOAD PUSH2 0x130 SWAP2 SWAP1 PUSH2 0x1F59 JUMP JUMPDEST PUSH2 0x1A6 PUSH2 0x1A1 CALLDATASIZE PUSH1 0x4 PUSH2 0x1F10 JUMP JUMPDEST PUSH2 0x63F JUMP JUMPDEST PUSH1 0x40 MLOAD SWAP1 ISZERO ISZERO DUP2 MSTORE PUSH1 0x20 ADD PUSH2 0x130 JUMP JUMPDEST PUSH2 0x13D PUSH4 0x5645544F PUSH1 0xE0 SHL DUP2 JUMP JUMPDEST PUSH1 0x1 SLOAD PUSH2 0x1D7 SWAP1 PUSH1 0x1 PUSH1 0x1 PUSH1 0x40 SHL SUB AND DUP2 JUMP JUMPDEST PUSH1 0x40 MLOAD PUSH1 0x1 PUSH1 0x1 PUSH1 0x40 SHL SUB SWAP1 SWAP2 AND DUP2 MSTORE PUSH1 0x20 ADD PUSH2 0x130 JUMP JUMPDEST PUSH2 0x13D PUSH2 0x1FD CALLDATASIZE PUSH1 0x4 PUSH2 0x1F40 JUMP JUMPDEST PUSH2 0x65E JUMP JUMPDEST PUSH2 0x15E PUSH2 0x210 CALLDATASIZE PUSH1 0x4 PUSH2 0x1F10 JUMP JUMPDEST PUSH2 0x675 JUMP JUMPDEST PUSH2 0x15E PUSH2 0x223 CALLDATASIZE PUSH1 0x4 PUSH2 0x1FC2 JUMP JUMPDEST PUSH2 0x70E JUMP JUMPDEST PUSH2 0x15E PUSH2 0x236 CALLDATASIZE PUSH1 0x4 PUSH2 0x1FF3 JUMP JUMPDEST PUSH2 0x7AE JUMP JUMPDEST PUSH2 0x123 PUSH2 0x249 CALLDATASIZE PUSH1 0x4 PUSH2 0x2028 JUMP JUMPDEST PUSH2 0x888 JUMP JUMPDEST PUSH2 0x123 PUSH2 0xB04 JUMP JUMPDEST PUSH2 0x13D PUSH10 0x474F5645524E414E4345 PUSH1 0xB0 SHL DUP2 JUMP JUMPDEST PUSH2 0x1D7 PUSH2 0x278 CALLDATASIZE PUSH1 0x4 PUSH2 0x204A JUMP JUMPDEST PUSH1 0x2 PUSH1 0x20 MSTORE PUSH1 0x0 SWAP1 DUP2 MSTORE PUSH1 0x40 SWAP1 KECCAK256 SLOAD PUSH1 0x1 PUSH1 0x1 PUSH1 0x40 SHL SUB AND DUP2 JUMP JUMPDEST PUSH2 0x2A6 PUSH2 0x2A1 CALLDATASIZE PUSH1 0x4 PUSH2 0x1FC2 JUMP JUMPDEST PUSH2 0xCDD JUMP JUMPDEST PUSH1 0x40 MLOAD PUSH2 0x130 SWAP2 SWAP1 PUSH2 0x2067 JUMP JUMPDEST PUSH2 0x15E PUSH2 0x2C1 CALLDATASIZE PUSH1 0x4 PUSH2 0x1FC2 JUMP JUMPDEST PUSH2 0xEA6 JUMP JUMPDEST PUSH1 0x60 PUSH1 0x3 DUP1 SLOAD DUP1 PUSH1 0x20 MUL PUSH1 0x20 ADD PUSH1 0x40 MLOAD SWAP1 DUP2 ADD PUSH1 0x40 MSTORE DUP1 SWAP3 SWAP2 SWAP1 DUP2 DUP2 MSTORE PUSH1 0x20 ADD PUSH1 0x0 SWAP1 JUMPDEST DUP3 DUP3 LT ISZERO PUSH2 0x49F JUMPI DUP4 DUP3 SWAP1 PUSH1 0x0 MSTORE PUSH1 0x20 PUSH1 0x0 KECCAK256 SWAP1 PUSH1 0x3 MUL ADD PUSH1 0x40 MLOAD DUP1 PUSH1 0xC0 ADD PUSH1 0x40 MSTORE SWAP1 DUP2 PUSH1 0x0 DUP3 ADD PUSH1 0x0 SWAP1 SLOAD SWAP1 PUSH2 0x100 EXP SWAP1 DIV PUSH1 0xFF AND PUSH1 0x3 DUP2 GT ISZERO PUSH2 0x331 JUMPI PUSH2 0x331 PUSH2 0x1CD0 JUMP JUMPDEST PUSH1 0x3 DUP2 GT ISZERO PUSH2 0x342 JUMPI PUSH2 0x342 PUSH2 0x1CD0 JUMP JUMPDEST DUP2 MSTORE DUP2 SLOAD PUSH1 0x1 PUSH1 0x1 PUSH1 0x40 SHL SUB PUSH2 0x100 DUP3 DIV DUP2 AND PUSH1 0x20 DUP1 DUP6 ADD SWAP2 SWAP1 SWAP2 MSTORE PUSH1 0x1 PUSH1 0x48 SHL DUP4 DIV DUP3 AND PUSH1 0x40 DUP1 DUP7 ADD SWAP2 SWAP1 SWAP2 MSTORE PUSH1 0x1 PUSH1 0x88 SHL SWAP1 SWAP4 DIV DUP3 AND PUSH1 0x60 DUP6 ADD MSTORE PUSH1 0x1 DUP6 ADD SLOAD SWAP1 SWAP2 AND PUSH1 0x80 DUP5 ADD MSTORE PUSH1 0x2 DUP5 ADD DUP1 SLOAD DUP4 MLOAD DUP2 DUP5 MUL DUP2 ADD DUP5 ADD SWAP1 SWAP5 MSTORE DUP1 DUP5 MSTORE PUSH1 0xA0 SWAP1 SWAP5 ADD SWAP4 SWAP1 SWAP2 PUSH1 0x0 SWAP1 DUP5 ADD JUMPDEST DUP3 DUP3 LT ISZERO PUSH2 0x488 JUMPI PUSH1 0x0 DUP5 DUP2 MSTORE PUSH1 0x20 SWAP1 DUP2 SWAP1 KECCAK256 PUSH1 0x40 DUP1 MLOAD DUP1 DUP3 ADD SWAP1 SWAP2 MSTORE PUSH1 0x2 DUP6 MUL SWAP1 SWAP2 ADD DUP1 SLOAD PUSH1 0x1 PUSH1 0x1 PUSH1 0xA0 SHL SUB AND DUP3 MSTORE PUSH1 0x1 DUP2 ADD DUP1 SLOAD SWAP3 SWAP4 SWAP2 SWAP3 SWAP2 DUP5 ADD SWAP2 PUSH2 0x3F7 SWAP1 PUSH2 0x207A JUMP JUMPDEST DUP1 PUSH1 0x1F ADD PUSH1 0x20 DUP1 SWAP2 DIV MUL PUSH1 0x20 ADD PUSH1 0x40 MLOAD SWAP1 DUP2 ADD PUSH1 0x40 MSTORE DUP1 SWAP3 SWAP2 SWAP1 DUP2 DUP2 MSTORE PUSH1 0x20 ADD DUP3 DUP1 SLOAD PUSH2 0x423 SWAP1 PUSH2 0x207A JUMP JUMPDEST DUP1 ISZERO PUSH2 0x470 JUMPI DUP1 PUSH1 0x1F LT PUSH2 0x445 JUMPI PUSH2 0x100 DUP1 DUP4 SLOAD DIV MUL DUP4 MSTORE SWAP2 PUSH1 0x20 ADD SWAP2 PUSH2 0x470 JUMP JUMPDEST DUP3 ADD SWAP2 SWAP1 PUSH1 0x0 MSTORE PUSH1 0x20 PUSH1 0x0 KECCAK256 SWAP1 JUMPDEST DUP2 SLOAD DUP2 MSTORE SWAP1 PUSH1 0x1 ADD SWAP1 PUSH1 0x20 ADD DUP1 DUP4 GT PUSH2 0x453 JUMPI DUP3 SWAP1 SUB PUSH1 0x1F AND DUP3 ADD SWAP2 JUMPDEST POP POP POP POP POP DUP2 MSTORE POP POP DUP2 MSTORE PUSH1 0x20 ADD SWAP1 PUSH1 0x1 ADD SWAP1 PUSH2 0x3AF JUMP JUMPDEST POP POP POP POP DUP2 MSTORE POP POP DUP2 MSTORE PUSH1 0x20 ADD SWAP1 PUSH1 0x1 ADD SWAP1 PUSH2 0x2EA JUMP JUMPDEST POP POP POP POP SWAP1 POP SWAP1 JUMP JUMPDEST PUSH10 0x474F5645524E414E4345 PUSH1 0xB0 SHL PUSH2 0x4C0 DUP2 CALLER PUSH2 0x63F JUMP JUMPDEST PUSH2 0x4E5 JUMPI PUSH1 0x40 MLOAD PUSH3 0x461BCD PUSH1 0xE5 SHL DUP2 MSTORE PUSH1 0x4 ADD PUSH2 0x4DC SWAP1 PUSH2 0x20B4 JUMP JUMPDEST PUSH1 0x40 MLOAD DUP1 SWAP2 SUB SWAP1 REVERT JUMPDEST PUSH1 0x0 DUP1 JUMPDEST DUP4 DUP2 LT ISZERO PUSH2 0x560 JUMPI PUSH1 0x0 PUSH2 0x52D DUP7 DUP7 DUP5 DUP2 DUP2 LT PUSH2 0x508 JUMPI PUSH2 0x508 PUSH2 0x20DC JUMP JUMPDEST SWAP1 POP PUSH1 0x20 MUL DUP2 ADD SWAP1 PUSH2 0x51A SWAP2 SWAP1 PUSH2 0x20F2 JUMP JUMPDEST PUSH2 0x528 SWAP1 PUSH1 0x20 DUP2 ADD SWAP1 PUSH2 0x2112 JUMP JUMPDEST PUSH2 0xED5 JUMP JUMPDEST SWAP1 POP DUP3 PUSH1 0x1 PUSH1 0x1 PUSH1 0x40 SHL SUB AND DUP2 PUSH1 0x1 PUSH1 0x1 PUSH1 0x40 SHL SUB AND GT ISZERO PUSH2 0x54D JUMPI DUP1 SWAP3 POP JUMPDEST POP DUP1 PUSH2 0x558 DUP2 PUSH2 0x2175 JUMP JUMPDEST SWAP2 POP POP PUSH2 0x4E9 JUMP JUMPDEST POP PUSH1 0x0 DUP1 PUSH2 0x56F DUP4 DUP8 DUP8 PUSH2 0xF92 JUMP JUMPDEST SWAP2 POP SWAP2 POP DUP3 PUSH1 0x1 PUSH1 0x1 PUSH1 0x40 SHL SUB AND PUSH1 0x0 SUB PUSH2 0x58E JUMPI PUSH2 0x58E DUP3 DUP3 PUSH2 0x1167 JUMP JUMPDEST POP POP POP POP POP POP JUMP JUMPDEST CALLER ADDRESS EQ PUSH2 0x5B5 JUMPI PUSH1 0x40 MLOAD PUSH3 0x461BCD PUSH1 0xE5 SHL DUP2 MSTORE PUSH1 0x4 ADD PUSH2 0x4DC SWAP1 PUSH2 0x20B4 JUMP JUMPDEST PUSH10 0x474F5645524E414E4345 PUSH1 0xB0 SHL DUP3 EQ DUP1 PUSH2 0x5D6 JUMPI POP PUSH4 0x5645544F PUSH1 0xE0 SHL DUP3 EQ JUMPDEST PUSH2 0x611 JUMPI PUSH1 0x40 MLOAD PUSH3 0x461BCD PUSH1 0xE5 SHL DUP2 MSTORE PUSH1 0x20 PUSH1 0x4 DUP3 ADD MSTORE PUSH1 0xC PUSH1 0x24 DUP3 ADD MSTORE PUSH12 0x696E76616C696420726F6C65 PUSH1 0xA0 SHL PUSH1 0x44 DUP3 ADD MSTORE PUSH1 0x64 ADD PUSH2 0x4DC JUMP JUMPDEST PUSH2 0x61B DUP3 DUP3 PUSH2 0x139F JUMP JUMPDEST POP POP JUMP JUMPDEST PUSH1 0x0 DUP2 DUP2 MSTORE PUSH1 0x20 DUP2 SWAP1 MSTORE PUSH1 0x40 SWAP1 KECCAK256 PUSH1 0x60 SWAP1 PUSH2 0x639 SWAP1 PUSH2 0x13F2 JUMP JUMPDEST SWAP3 SWAP2 POP POP JUMP JUMPDEST PUSH1 0x0 DUP3 DUP2 MSTORE PUSH1 0x20 DUP2 SWAP1 MSTORE PUSH1 0x40 DUP2 KECCAK256 PUSH2 0x657 SWAP1 DUP4 PUSH2 0x13FF JUMP JUMPDEST SWAP4 SWAP3 POP POP POP JUMP JUMPDEST PUSH1 0x0 DUP2 DUP2 MSTORE PUSH1 0x20 DUP2 SWAP1 MSTORE PUSH1 0x40 DUP2 KECCAK256 PUSH2 0x639 SWAP1 PUSH2 0x1421 JUMP JUMPDEST CALLER ADDRESS EQ PUSH2 0x694 JUMPI PUSH1 0x40 MLOAD PUSH3 0x461BCD PUSH1 0xE5 SHL DUP2 MSTORE PUSH1 0x4 ADD PUSH2 0x4DC SWAP1 PUSH2 0x20B4 JUMP JUMPDEST PUSH10 0x474F5645524E414E4345 PUSH1 0xB0 SHL DUP3 EQ ISZERO DUP1 PUSH2 0x6B8 JUMPI POP PUSH1 0x1 PUSH2 0x6B6 DUP4 PUSH2 0x65E JUMP JUMPDEST GT JUMPDEST PUSH2 0x704 JUMPI PUSH1 0x40 MLOAD PUSH3 0x461BCD PUSH1 0xE5 SHL DUP2 MSTORE PUSH1 0x20 PUSH1 0x4 DUP3 ADD MSTORE PUSH1 0x1A PUSH1 0x24 DUP3 ADD MSTORE PUSH32 0x6E656564206174206C65617374206F6E6520676F7665726E6F72000000000000 PUSH1 0x44 DUP3 ADD MSTORE PUSH1 0x64 ADD PUSH2 0x4DC JUMP JUMPDEST PUSH2 0x61B DUP3 DUP3 PUSH2 0x142B JUMP JUMPDEST PUSH2 0x725 PUSH10 0x474F5645524E414E4345 PUSH1 0xB0 SHL CALLER PUSH2 0x63F JUMP JUMPDEST DUP1 PUSH2 0x73C JUMPI POP PUSH2 0x73C PUSH4 0x5645544F PUSH1 0xE0 SHL CALLER PUSH2 0x63F JUMP JUMPDEST PUSH2 0x758 JUMPI PUSH1 0x40 MLOAD PUSH3 0x461BCD PUSH1 0xE5 SHL DUP2 MSTORE PUSH1 0x4 ADD PUSH2 0x4DC SWAP1 PUSH2 0x20B4 JUMP JUMPDEST PUSH1 0x0 DUP1 PUSH2 0x764 DUP4 PUSH2 0x147E JUMP JUMPDEST PUSH1 0x40 MLOAD SWAP2 SWAP4 POP SWAP2 POP PUSH1 0x1 PUSH1 0x1 PUSH1 0x40 SHL SUB DUP5 AND SWAP1 PUSH32 0x4BB934CF1C626B3439A169BA2F7710E204C468538FC3A2F54942FD8EE60046AF SWAP1 PUSH1 0x0 SWAP1 LOG2 PUSH2 0x7A9 DUP3 DUP3 PUSH1 0x1 PUSH2 0x1549 JUMP JUMPDEST POP POP POP JUMP JUMPDEST CALLER ADDRESS EQ PUSH2 0x7CD JUMPI PUSH1 0x40 MLOAD PUSH3 0x461BCD PUSH1 0xE5 SHL DUP2 MSTORE PUSH1 0x4 ADD PUSH2 0x4DC SWAP1 PUSH2 0x20B4 JUMP JUMPDEST PUSH3 0x127500 DUP2 PUSH1 0x1 PUSH1 0x1 PUSH1 0x40 SHL SUB AND GT ISZERO PUSH2 0x81A JUMPI PUSH1 0x40 MLOAD PUSH3 0x461BCD PUSH1 0xE5 SHL DUP2 MSTORE PUSH1 0x20 PUSH1 0x4 DUP3 ADD MSTORE PUSH1 0xE PUSH1 0x24 DUP3 ADD MSTORE PUSH14 0xC8CAD8C2F240E8DEDE40D0D2CED PUSH1 0x93 SHL PUSH1 0x44 DUP3 ADD MSTORE PUSH1 0x64 ADD PUSH2 0x4DC JUMP JUMPDEST PUSH1 0x1 PUSH1 0x1 PUSH1 0xE0 SHL SUB NOT DUP3 AND PUSH1 0x0 DUP2 DUP2 MSTORE PUSH1 0x2 PUSH1 0x20 SWAP1 DUP2 MSTORE PUSH1 0x40 SWAP2 DUP3 SWAP1 KECCAK256 DUP1 SLOAD PUSH8 0xFFFFFFFFFFFFFFFF NOT AND PUSH1 0x1 PUSH1 0x1 PUSH1 0x40 SHL SUB DUP7 AND SWAP1 DUP2 OR SWAP1 SWAP2 SSTORE SWAP2 MLOAD SWAP2 DUP3 MSTORE PUSH32 0x816C272A68B4BFF071BF7F969473D64B07DCEE749DC4B37A85BE0EA27F05EFD SWAP2 ADD PUSH1 0x40 MLOAD DUP1 SWAP2 SUB SWAP1 LOG2 POP POP JUMP JUMPDEST PUSH1 0x60 PUSH1 0x0 DUP3 PUSH1 0x1 PUSH1 0x1 PUSH1 0x40 SHL SUB DUP2 GT ISZERO PUSH2 0x8A4 JUMPI PUSH2 0x8A4 PUSH2 0x218E JUMP JUMPDEST PUSH1 0x40 MLOAD SWAP1 DUP1 DUP3 MSTORE DUP1 PUSH1 0x20 MUL PUSH1 0x20 ADD DUP3 ADD PUSH1 0x40 MSTORE DUP1 ISZERO PUSH2 0x906 JUMPI DUP2 PUSH1 0x20 ADD JUMPDEST PUSH1 0x40 DUP1 MLOAD PUSH1 0xC0 DUP2 ADD DUP3 MSTORE PUSH1 0x0 DUP1 DUP3 MSTORE PUSH1 0x20 DUP1 DUP4 ADD DUP3 SWAP1 MSTORE SWAP3 DUP3 ADD DUP2 SWAP1 MSTORE PUSH1 0x60 DUP1 DUP4 ADD DUP3 SWAP1 MSTORE PUSH1 0x80 DUP4 ADD SWAP2 SWAP1 SWAP2 MSTORE PUSH1 0xA0 DUP3 ADD MSTORE DUP3 MSTORE PUSH1 0x0 NOT SWAP1 SWAP3 ADD SWAP2 ADD DUP2 PUSH2 0x8C2 JUMPI SWAP1 POP JUMPDEST POP SWAP1 POP PUSH1 0x0 JUMPDEST DUP4 DUP2 LT ISZERO PUSH2 0xAFC JUMPI PUSH1 0x4 PUSH2 0x920 DUP3 DUP8 PUSH2 0x21A4 JUMP JUMPDEST DUP2 SLOAD DUP2 LT PUSH2 0x930 JUMPI PUSH2 0x930 PUSH2 0x20DC JUMP JUMPDEST SWAP1 PUSH1 0x0 MSTORE PUSH1 0x20 PUSH1 0x0 KECCAK256 SWAP1 PUSH1 0x3 MUL ADD PUSH1 0x40 MLOAD DUP1 PUSH1 0xC0 ADD PUSH1 0x40 MSTORE SWAP1 DUP2 PUSH1 0x0 DUP3 ADD PUSH1 0x0 SWAP1 SLOAD SWAP1 PUSH2 0x100 EXP SWAP1 DIV PUSH1 0xFF AND PUSH1 0x3 DUP2 GT ISZERO PUSH2 0x96D JUMPI PUSH2 0x96D PUSH2 0x1CD0 JUMP JUMPDEST PUSH1 0x3 DUP2 GT ISZERO PUSH2 0x97E JUMPI PUSH2 0x97E PUSH2 0x1CD0 JUMP JUMPDEST DUP2 MSTORE DUP2 SLOAD PUSH1 0x1 PUSH1 0x1 PUSH1 0x40 SHL SUB PUSH2 0x100 DUP3 DIV DUP2 AND PUSH1 0x20 DUP1 DUP6 ADD SWAP2 SWAP1 SWAP2 MSTORE PUSH1 0x1 PUSH1 0x48 SHL DUP4 DIV DUP3 AND PUSH1 0x40 DUP1 DUP7 ADD SWAP2 SWAP1 SWAP2 MSTORE PUSH1 0x1 PUSH1 0x88 SHL SWAP1 SWAP4 DIV DUP3 AND PUSH1 0x60 DUP6 ADD MSTORE PUSH1 0x1 DUP6 ADD SLOAD SWAP1 SWAP2 AND PUSH1 0x80 DUP5 ADD MSTORE PUSH1 0x2 DUP5 ADD DUP1 SLOAD DUP4 MLOAD DUP2 DUP5 MUL DUP2 ADD DUP5 ADD SWAP1 SWAP5 MSTORE DUP1 DUP5 MSTORE PUSH1 0xA0 SWAP1 SWAP5 ADD SWAP4 SWAP1 SWAP2 PUSH1 0x0 SWAP1 DUP5 ADD JUMPDEST DUP3 DUP3 LT ISZERO PUSH2 0xAC4 JUMPI PUSH1 0x0 DUP5 DUP2 MSTORE PUSH1 0x20 SWAP1 DUP2 SWAP1 KECCAK256 PUSH1 0x40 DUP1 MLOAD DUP1 DUP3 ADD SWAP1 SWAP2 MSTORE PUSH1 0x2 DUP6 MUL SWAP1 SWAP2 ADD DUP1 SLOAD PUSH1 0x1 PUSH1 0x1 PUSH1 0xA0 SHL SUB AND DUP3 MSTORE PUSH1 0x1 DUP2 ADD DUP1 SLOAD SWAP3 SWAP4 SWAP2 SWAP3 SWAP2 DUP5 ADD SWAP2 PUSH2 0xA33 SWAP1 PUSH2 0x207A JUMP JUMPDEST DUP1 PUSH1 0x1F ADD PUSH1 0x20 DUP1 SWAP2 DIV MUL PUSH1 0x20 ADD PUSH1 0x40 MLOAD SWAP1 DUP2 ADD PUSH1 0x40 MSTORE DUP1 SWAP3 SWAP2 SWAP1 DUP2 DUP2 MSTORE PUSH1 0x20 ADD DUP3 DUP1 SLOAD PUSH2 0xA5F SWAP1 PUSH2 0x207A JUMP JUMPDEST DUP1 ISZERO PUSH2 0xAAC JUMPI DUP1 PUSH1 0x1F LT PUSH2 0xA81 JUMPI PUSH2 0x100 DUP1 DUP4 SLOAD DIV MUL DUP4 MSTORE SWAP2 PUSH1 0x20 ADD SWAP2 PUSH2 0xAAC JUMP JUMPDEST DUP3 ADD SWAP2 SWAP1 PUSH1 0x0 MSTORE PUSH1 0x20 PUSH1 0x0 KECCAK256 SWAP1 JUMPDEST DUP2 SLOAD DUP2 MSTORE SWAP1 PUSH1 0x1 ADD SWAP1 PUSH1 0x20 ADD DUP1 DUP4 GT PUSH2 0xA8F JUMPI DUP3 SWAP1 SUB PUSH1 0x1F AND DUP3 ADD SWAP2 JUMPDEST POP POP POP POP POP DUP2 MSTORE POP POP DUP2 MSTORE PUSH1 0x20 ADD SWAP1 PUSH1 0x1 ADD SWAP1 PUSH2 0x9EB JUMP JUMPDEST POP POP POP POP DUP2 MSTORE POP POP DUP3 DUP3 DUP2 MLOAD DUP2 LT PUSH2 0xADE JUMPI PUSH2 0xADE PUSH2 0x20DC JUMP JUMPDEST PUSH1 0x20 MUL PUSH1 0x20 ADD ADD DUP2 SWAP1 MSTORE POP DUP1 DUP1 PUSH2 0xAF4 SWAP1 PUSH2 0x2175 JUMP JUMPDEST SWAP2 POP POP PUSH2 0x90C JUMP JUMPDEST POP SWAP4 SWAP3 POP POP POP JUMP JUMPDEST PUSH1 0x60 PUSH1 0x4 DUP1 SLOAD DUP1 PUSH1 0x20 MUL PUSH1 0x20 ADD PUSH1 0x40 MLOAD SWAP1 DUP2 ADD PUSH1 0x40 MSTORE DUP1 SWAP3 SWAP2 SWAP1 DUP2 DUP2 MSTORE PUSH1 0x20 ADD PUSH1 0x0 SWAP1 JUMPDEST DUP3 DUP3 LT ISZERO PUSH2 0x49F JUMPI DUP4 DUP3 SWAP1 PUSH1 0x0 MSTORE PUSH1 0x20 PUSH1 0x0 KECCAK256 SWAP1 PUSH1 0x3 MUL ADD PUSH1 0x40 MLOAD DUP1 PUSH1 0xC0 ADD PUSH1 0x40 MSTORE SWAP1 DUP2 PUSH1 0x0 DUP3 ADD PUSH1 0x0 SWAP1 SLOAD SWAP1 PUSH2 0x100 EXP SWAP1 DIV PUSH1 0xFF AND PUSH1 0x3 DUP2 GT ISZERO PUSH2 0xB6F JUMPI PUSH2 0xB6F PUSH2 0x1CD0 JUMP JUMPDEST PUSH1 0x3 DUP2 GT ISZERO PUSH2 0xB80 JUMPI PUSH2 0xB80 PUSH2 0x1CD0 JUMP JUMPDEST DUP2 MSTORE DUP2 SLOAD PUSH1 0x1 PUSH1 0x1 PUSH1 0x40 SHL SUB PUSH2 0x100 DUP3 DIV DUP2 AND PUSH1 0x20 DUP1 DUP6 ADD SWAP2 SWAP1 SWAP2 MSTORE PUSH1 0x1 PUSH1 0x48 SHL DUP4 DIV DUP3 AND PUSH1 0x40 DUP1 DUP7 ADD SWAP2 SWAP1 SWAP2 MSTORE PUSH1 0x1 PUSH1 0x88 SHL SWAP1 SWAP4 DIV DUP3 AND PUSH1 0x60 DUP6 ADD MSTORE PUSH1 0x1 DUP6 ADD SLOAD SWAP1 SWAP2 AND PUSH1 0x80 DUP5 ADD MSTORE PUSH1 0x2 DUP5 ADD DUP1 SLOAD DUP4 MLOAD DUP2 DUP5 MUL DUP2 ADD DUP5 ADD SWAP1 SWAP5 MSTORE DUP1 DUP5 MSTORE PUSH1 0xA0 SWAP1 SWAP5 ADD SWAP4 SWAP1 SWAP2 PUSH1 0x0 SWAP1 DUP5 ADD JUMPDEST DUP3 DUP3 LT ISZERO PUSH2 0xCC6 JUMPI PUSH1 0x0 DUP5 DUP2 MSTORE PUSH1 0x20 SWAP1 DUP2 SWAP1 KECCAK256 PUSH1 0x40 DUP1 MLOAD DUP1 DUP3 ADD SWAP1 SWAP2 MSTORE PUSH1 0x2 DUP6 MUL SWAP1 SWAP2 ADD DUP1 SLOAD PUSH1 0x1 PUSH1 0x1 PUSH1 0xA0 SHL SUB AND DUP3 MSTORE PUSH1 0x1 DUP2 ADD DUP1 SLOAD SWAP3 SWAP4 SWAP2 SWAP3 SWAP2 DUP5 ADD SWAP2 PUSH2 0xC35 SWAP1 PUSH2 0x207A JUMP JUMPDEST DUP1 PUSH1 0x1F ADD PUSH1 0x20 DUP1 SWAP2 DIV MUL PUSH1 0x20 ADD PUSH1 0x40 MLOAD SWAP1 DUP2 ADD PUSH1 0x40 MSTORE DUP1 SWAP3 SWAP2 SWAP1 DUP2 DUP2 MSTORE PUSH1 0x20 ADD DUP3 DUP1 SLOAD PUSH2 0xC61 SWAP1 PUSH2 0x207A JUMP JUMPDEST DUP1 ISZERO PUSH2 0xCAE JUMPI DUP1 PUSH1 0x1F LT PUSH2 0xC83 JUMPI PUSH2 0x100 DUP1 DUP4 SLOAD DIV MUL DUP4 MSTORE SWAP2 PUSH1 0x20 ADD SWAP2 PUSH2 0xCAE JUMP JUMPDEST DUP3 ADD SWAP2 SWAP1 PUSH1 0x0 MSTORE PUSH1 0x20 PUSH1 0x0 KECCAK256 SWAP1 JUMPDEST DUP2 SLOAD DUP2 MSTORE SWAP1 PUSH1 0x1 ADD SWAP1 PUSH1 0x20 ADD DUP1 DUP4 GT PUSH2 0xC91 JUMPI DUP3 SWAP1 SUB PUSH1 0x1F AND DUP3 ADD SWAP2 JUMPDEST POP POP POP POP POP DUP2 MSTORE POP POP DUP2 MSTORE PUSH1 0x20 ADD SWAP1 PUSH1 0x1 ADD SWAP1 PUSH2 0xBED JUMP JUMPDEST POP POP POP POP DUP2 MSTORE POP POP DUP2 MSTORE PUSH1 0x20 ADD SWAP1 PUSH1 0x1 ADD SWAP1 PUSH2 0xB28 JUMP JUMPDEST PUSH1 0x40 DUP1 MLOAD PUSH1 0xC0 DUP2 ADD DUP3 MSTORE PUSH1 0x0 DUP1 DUP3 MSTORE PUSH1 0x20 DUP3 ADD DUP2 SWAP1 MSTORE SWAP2 DUP2 ADD DUP3 SWAP1 MSTORE PUSH1 0x60 DUP1 DUP3 ADD DUP4 SWAP1 MSTORE PUSH1 0x80 DUP3 ADD SWAP3 SWAP1 SWAP3 MSTORE PUSH1 0xA0 DUP2 ADD SWAP2 SWAP1 SWAP2 MSTORE PUSH2 0xD1A DUP3 PUSH2 0x147E JUMP JUMPDEST PUSH1 0x40 DUP1 MLOAD PUSH1 0xC0 DUP2 ADD SWAP1 SWAP2 MSTORE DUP3 SLOAD DUP4 SWAP1 DUP3 SWAP1 PUSH1 0xFF AND PUSH1 0x3 DUP2 GT ISZERO PUSH2 0xD3F JUMPI PUSH2 0xD3F PUSH2 0x1CD0 JUMP JUMPDEST PUSH1 0x3 DUP2 GT ISZERO PUSH2 0xD50 JUMPI PUSH2 0xD50 PUSH2 0x1CD0 JUMP JUMPDEST DUP2 MSTORE DUP2 SLOAD PUSH1 0x1 PUSH1 0x1 PUSH1 0x40 SHL SUB PUSH2 0x100 DUP3 DIV DUP2 AND PUSH1 0x20 DUP1 DUP6 ADD SWAP2 SWAP1 SWAP2 MSTORE PUSH1 0x1 PUSH1 0x48 SHL DUP4 DIV DUP3 AND PUSH1 0x40 DUP1 DUP7 ADD SWAP2 SWAP1 SWAP2 MSTORE PUSH1 0x1 PUSH1 0x88 SHL SWAP1 SWAP4 DIV DUP3 AND PUSH1 0x60 DUP6 ADD MSTORE PUSH1 0x1 DUP6 ADD SLOAD SWAP1 SWAP2 AND PUSH1 0x80 DUP5 ADD MSTORE PUSH1 0x2 DUP5 ADD DUP1 SLOAD DUP4 MLOAD DUP2 DUP5 MUL DUP2 ADD DUP5 ADD SWAP1 SWAP5 MSTORE DUP1 DUP5 MSTORE PUSH1 0xA0 SWAP1 SWAP5 ADD SWAP4 SWAP1 SWAP2 PUSH1 0x0 SWAP1 DUP5 ADD JUMPDEST DUP3 DUP3 LT ISZERO PUSH2 0xE96 JUMPI PUSH1 0x0 DUP5 DUP2 MSTORE PUSH1 0x20 SWAP1 DUP2 SWAP1 KECCAK256 PUSH1 0x40 DUP1 MLOAD DUP1 DUP3 ADD SWAP1 SWAP2 MSTORE PUSH1 0x2 DUP6 MUL SWAP1 SWAP2 ADD DUP1 SLOAD PUSH1 0x1 PUSH1 0x1 PUSH1 0xA0 SHL SUB AND DUP3 MSTORE PUSH1 0x1 DUP2 ADD DUP1 SLOAD SWAP3 SWAP4 SWAP2 SWAP3 SWAP2 DUP5 ADD SWAP2 PUSH2 0xE05 SWAP1 PUSH2 0x207A JUMP JUMPDEST DUP1 PUSH1 0x1F ADD PUSH1 0x20 DUP1 SWAP2 DIV MUL PUSH1 0x20 ADD PUSH1 0x40 MLOAD SWAP1 DUP2 ADD PUSH1 0x40 MSTORE DUP1 SWAP3 SWAP2 SWAP1 DUP2 DUP2 MSTORE PUSH1 0x20 ADD DUP3 DUP1 SLOAD PUSH2 0xE31 SWAP1 PUSH2 0x207A JUMP JUMPDEST DUP1 ISZERO PUSH2 0xE7E JUMPI DUP1 PUSH1 0x1F LT PUSH2 0xE53 JUMPI PUSH2 0x100 DUP1 DUP4 SLOAD DIV MUL DUP4 MSTORE SWAP2 PUSH1 0x20 ADD SWAP2 PUSH2 0xE7E JUMP JUMPDEST DUP3 ADD SWAP2 SWAP1 PUSH1 0x0 MSTORE PUSH1 0x20 PUSH1 0x0 KECCAK256 SWAP1 JUMPDEST DUP2 SLOAD DUP2 MSTORE SWAP1 PUSH1 0x1 ADD SWAP1 PUSH1 0x20 ADD DUP1 DUP4 GT PUSH2 0xE61 JUMPI DUP3 SWAP1 SUB PUSH1 0x1F AND DUP3 ADD SWAP2 JUMPDEST POP POP POP POP POP DUP2 MSTORE POP POP DUP2 MSTORE PUSH1 0x20 ADD SWAP1 PUSH1 0x1 ADD SWAP1 PUSH2 0xDBD JUMP JUMPDEST POP POP POP SWAP2 MSTORE POP SWAP1 SWAP6 SWAP5 POP POP POP POP POP JUMP JUMPDEST PUSH1 0x0 DUP1 PUSH2 0xEB2 DUP4 PUSH2 0x147E JUMP JUMPDEST SWAP2 POP SWAP2 POP PUSH2 0x7A9 DUP3 DUP3 PUSH2 0x1167 JUMP JUMPDEST PUSH1 0x0 PUSH2 0x657 DUP4 PUSH1 0x1 PUSH1 0x1 PUSH1 0xA0 SHL SUB DUP5 AND PUSH2 0x16A9 JUMP JUMPDEST PUSH1 0x0 DUP1 PUSH2 0xEE5 PUSH1 0x4 DUP3 DUP6 DUP8 PUSH2 0x21B7 JUMP JUMPDEST PUSH2 0xEEE SWAP2 PUSH2 0x21E1 JUMP JUMPDEST SWAP1 POP PUSH4 0x12E97401 PUSH1 0xE1 SHL PUSH1 0x1 PUSH1 0x1 PUSH1 0xE0 SHL SUB NOT DUP3 AND ADD PUSH2 0xF69 JUMPI PUSH1 0x0 PUSH2 0xF17 DUP5 PUSH1 0x4 DUP2 DUP9 PUSH2 0x21B7 JUMP JUMPDEST DUP1 DUP1 PUSH1 0x1F ADD PUSH1 0x20 DUP1 SWAP2 DIV MUL PUSH1 0x20 ADD PUSH1 0x40 MLOAD SWAP1 DUP2 ADD PUSH1 0x40 MSTORE DUP1 SWAP4 SWAP3 SWAP2 SWAP1 DUP2 DUP2 MSTORE PUSH1 0x20 ADD DUP4 DUP4 DUP1 DUP3 DUP5 CALLDATACOPY PUSH1 0x0 SWAP3 ADD SWAP2 SWAP1 SWAP2 MSTORE POP POP DUP3 MLOAD SWAP3 SWAP4 POP PUSH2 0xF64 SWAP3 DUP5 ADD PUSH1 0x20 SWAP1 DUP2 ADD SWAP3 POP DUP5 ADD SWAP1 POP PUSH2 0x2211 JUMP JUMPDEST POP SWAP2 POP POP JUMPDEST PUSH1 0x1 PUSH1 0x1 PUSH1 0xE0 SHL SUB NOT AND PUSH1 0x0 SWAP1 DUP2 MSTORE PUSH1 0x2 PUSH1 0x20 MSTORE PUSH1 0x40 SWAP1 KECCAK256 SLOAD PUSH1 0x1 PUSH1 0x1 PUSH1 0x40 SHL SUB AND SWAP4 SWAP3 POP POP POP JUMP JUMPDEST PUSH1 0x1 DUP1 SLOAD PUSH1 0x0 SWAP2 DUP3 SWAP2 DUP3 SWAP2 PUSH1 0x1 PUSH1 0x1 PUSH1 0x40 SHL SUB SWAP1 SWAP2 AND SWAP1 DUP3 PUSH2 0xFB3 DUP4 PUSH2 0x223F JUMP JUMPDEST DUP3 SLOAD PUSH2 0x100 SWAP3 DUP4 EXP PUSH1 0x1 PUSH1 0x1 PUSH1 0x40 SHL SUB DUP2 DUP2 MUL NOT SWAP1 SWAP3 AND SWAP3 DUP3 AND MUL SWAP2 SWAP1 SWAP2 OR SWAP1 SWAP3 SSTORE PUSH1 0x3 DUP1 SLOAD PUSH1 0x1 DUP2 ADD DUP3 SSTORE PUSH1 0x0 DUP3 DUP2 MSTORE PUSH32 0xC2575A0E9E593C00F959F8C92F12DB2869C3395A3B0502D05E2516446F71F85B SWAP2 SWAP1 SWAP3 MUL SWAP1 DUP2 ADD DUP1 SLOAD PUSH32 0xC2575A0E9E593C00F959F8C92F12DB2869C3395A3B0502D05E2516446F71F85C SWAP1 SWAP3 ADD DUP1 SLOAD PUSH8 0xFFFFFFFFFFFFFFFF NOT AND SWAP1 SSTORE PUSH2 0x100 PUSH1 0x1 PUSH1 0x88 SHL SUB NOT SWAP1 SWAP2 AND DUP6 DUP6 AND SWAP1 SWAP4 MUL PUSH8 0xFFFFFFFFFFFFFFFF PUSH1 0x48 SHL NOT AND SWAP3 SWAP1 SWAP3 OR PUSH1 0x1 PUSH1 0x48 SHL TIMESTAMP DUP6 AND MUL OR PUSH25 0xFFFFFFFFFFFFFFFF00000000000000000000000000000000FF NOT AND PUSH1 0x1 PUSH1 0x88 SHL SWAP4 DUP12 AND SWAP4 SWAP1 SWAP4 MUL PUSH1 0xFF NOT AND SWAP3 SWAP1 SWAP3 OR DUP2 SSTORE SWAP5 POP SWAP1 SWAP2 POP JUMPDEST DUP5 DUP2 LT ISZERO PUSH2 0x110F JUMPI DUP4 PUSH1 0x2 ADD DUP7 DUP7 DUP4 DUP2 DUP2 LT PUSH2 0x10C6 JUMPI PUSH2 0x10C6 PUSH2 0x20DC JUMP JUMPDEST SWAP1 POP PUSH1 0x20 MUL DUP2 ADD SWAP1 PUSH2 0x10D8 SWAP2 SWAP1 PUSH2 0x20F2 JUMP JUMPDEST DUP2 SLOAD PUSH1 0x1 DUP2 ADD DUP4 SSTORE PUSH1 0x0 SWAP3 DUP4 MSTORE PUSH1 0x20 SWAP1 SWAP3 KECCAK256 SWAP1 SWAP2 PUSH1 0x2 MUL ADD PUSH2 0x10FA DUP3 DUP3 PUSH2 0x22AB JUMP JUMPDEST POP POP DUP1 DUP1 PUSH2 0x1107 SWAP1 PUSH2 0x2175 JUMP JUMPDEST SWAP2 POP POP PUSH2 0x10A8 JUMP JUMPDEST POP PUSH1 0x3 SLOAD PUSH2 0x111F SWAP1 PUSH1 0x1 SWAP1 PUSH2 0x23C6 JUMP JUMPDEST SWAP2 POP PUSH32 0xEA6E341F82FB9F110709EFB8C6306F361297EFE562F52A900DD723067675762A DUP6 DUP6 DUP9 DUP5 PUSH1 0x40 MLOAD PUSH2 0x1156 SWAP5 SWAP4 SWAP3 SWAP2 SWAP1 PUSH2 0x23D9 JUMP JUMPDEST PUSH1 0x40 MLOAD DUP1 SWAP2 SUB SWAP1 LOG1 POP SWAP4 POP SWAP4 SWAP2 POP POP JUMP JUMPDEST DUP2 SLOAD TIMESTAMP SWAP1 PUSH2 0x118E SWAP1 PUSH1 0x1 PUSH1 0x1 PUSH1 0x40 SHL SUB PUSH1 0x1 PUSH1 0x88 SHL DUP3 DIV DUP2 AND SWAP2 PUSH1 0x1 PUSH1 0x48 SHL SWAP1 DIV AND PUSH2 0x24E8 JUMP JUMPDEST PUSH1 0x1 PUSH1 0x1 PUSH1 0x40 SHL SUB AND GT ISZERO PUSH2 0x11E5 JUMPI PUSH1 0x40 MLOAD PUSH3 0x461BCD PUSH1 0xE5 SHL DUP2 MSTORE PUSH1 0x20 PUSH1 0x4 DUP3 ADD MSTORE PUSH1 0x1D PUSH1 0x24 DUP3 ADD MSTORE PUSH32 0x646561646C696E6520686173206E6F74206265656E2072656163686564000000 PUSH1 0x44 DUP3 ADD MSTORE PUSH1 0x64 ADD PUSH2 0x4DC JUMP JUMPDEST PUSH1 0x0 DUP3 SLOAD PUSH1 0xFF AND PUSH1 0x3 DUP2 GT ISZERO PUSH2 0x11FD JUMPI PUSH2 0x11FD PUSH2 0x1CD0 JUMP JUMPDEST EQ PUSH2 0x123F JUMPI PUSH1 0x40 MLOAD PUSH3 0x461BCD PUSH1 0xE5 SHL DUP2 MSTORE PUSH1 0x20 PUSH1 0x4 DUP3 ADD MSTORE PUSH1 0x12 PUSH1 0x24 DUP3 ADD MSTORE PUSH18 0x6368616E6765206E6F742070656E64696E67 PUSH1 0x70 SHL PUSH1 0x44 DUP3 ADD MSTORE PUSH1 0x64 ADD PUSH2 0x4DC JUMP JUMPDEST DUP2 SLOAD PUSH1 0xFF NOT AND PUSH1 0x3 OR DUP3 SSTORE PUSH1 0x0 JUMPDEST PUSH1 0x2 DUP4 ADD SLOAD DUP2 LT ISZERO PUSH2 0x1353 JUMPI PUSH2 0x1340 DUP4 PUSH1 0x2 ADD DUP3 DUP2 SLOAD DUP2 LT PUSH2 0x1271 JUMPI PUSH2 0x1271 PUSH2 0x20DC JUMP JUMPDEST SWAP1 PUSH1 0x0 MSTORE PUSH1 0x20 PUSH1 0x0 KECCAK256 SWAP1 PUSH1 0x2 MUL ADD PUSH1 0x1 ADD DUP1 SLOAD PUSH2 0x128D SWAP1 PUSH2 0x207A JUMP JUMPDEST DUP1 PUSH1 0x1F ADD PUSH1 0x20 DUP1 SWAP2 DIV MUL PUSH1 0x20 ADD PUSH1 0x40 MLOAD SWAP1 DUP2 ADD PUSH1 0x40 MSTORE DUP1 SWAP3 SWAP2 SWAP1 DUP2 DUP2 MSTORE PUSH1 0x20 ADD DUP3 DUP1 SLOAD PUSH2 0x12B9 SWAP1 PUSH2 0x207A JUMP JUMPDEST DUP1 ISZERO PUSH2 0x1306 JUMPI DUP1 PUSH1 0x1F LT PUSH2 0x12DB JUMPI PUSH2 0x100 DUP1 DUP4 SLOAD DIV MUL DUP4 MSTORE SWAP2 PUSH1 0x20 ADD SWAP2 PUSH2 0x1306 JUMP JUMPDEST DUP3 ADD SWAP2 SWAP1 PUSH1 0x0 MSTORE PUSH1 0x20 PUSH1 0x0 KECCAK256 SWAP1 JUMPDEST DUP2 SLOAD DUP2 MSTORE SWAP1 PUSH1 0x1 ADD SWAP1 PUSH1 0x20 ADD DUP1 DUP4 GT PUSH2 0x12E9 JUMPI DUP3 SWAP1 SUB PUSH1 0x1F AND DUP3 ADD SWAP2 JUMPDEST POP POP POP POP POP DUP5 PUSH1 0x2 ADD DUP4 DUP2 SLOAD DUP2 LT PUSH2 0x1320 JUMPI PUSH2 0x1320 PUSH2 0x20DC JUMP JUMPDEST PUSH1 0x0 SWAP2 DUP3 MSTORE PUSH1 0x20 SWAP1 SWAP2 KECCAK256 PUSH1 0x2 SWAP1 SWAP2 MUL ADD SLOAD PUSH1 0x1 PUSH1 0x1 PUSH1 0xA0 SHL SUB AND SWAP1 PUSH2 0x16F8 JUMP JUMPDEST POP DUP1 PUSH2 0x134B DUP2 PUSH2 0x2175 JUMP JUMPDEST SWAP2 POP POP PUSH2 0x124D JUMP JUMPDEST POP PUSH2 0x1360 DUP3 DUP3 PUSH1 0x2 PUSH2 0x1549 JUMP JUMPDEST DUP2 SLOAD PUSH1 0x40 MLOAD PUSH2 0x100 SWAP1 SWAP2 DIV PUSH1 0x1 PUSH1 0x1 PUSH1 0x40 SHL SUB AND SWAP1 PUSH32 0x4093C58D6D95B5DC15BBCA26257F9D4618824328023882D9CF600066A1F4BF34 SWAP1 PUSH1 0x0 SWAP1 LOG2 POP POP JUMP JUMPDEST PUSH1 0x0 DUP3 DUP2 MSTORE PUSH1 0x20 DUP2 SWAP1 MSTORE PUSH1 0x40 SWAP1 KECCAK256 PUSH2 0x13B7 SWAP1 DUP3 PUSH2 0xEC0 JUMP JUMPDEST POP PUSH1 0x40 MLOAD PUSH1 0x1 PUSH1 0x1 PUSH1 0xA0 SHL SUB DUP3 AND SWAP1 DUP4 SWAP1 PUSH32 0x2AE6A113C0ED5B78A53413FFBB7679881F11145CCFBA4FB92E863DFCD5A1D2F3 SWAP1 PUSH1 0x0 SWAP1 LOG3 POP POP JUMP JUMPDEST PUSH1 0x60 PUSH1 0x0 PUSH2 0x657 DUP4 PUSH2 0x173C JUMP JUMPDEST PUSH1 0x1 PUSH1 0x1 PUSH1 0xA0 SHL SUB DUP2 AND PUSH1 0x0 SWAP1 DUP2 MSTORE PUSH1 0x1 DUP4 ADD PUSH1 0x20 MSTORE PUSH1 0x40 DUP2 KECCAK256 SLOAD ISZERO ISZERO PUSH2 0x657 JUMP JUMPDEST PUSH1 0x0 PUSH2 0x639 DUP3 SLOAD SWAP1 JUMP JUMPDEST PUSH1 0x0 DUP3 DUP2 MSTORE PUSH1 0x20 DUP2 SWAP1 MSTORE PUSH1 0x40 SWAP1 KECCAK256 PUSH2 0x1443 SWAP1 DUP3 PUSH2 0x1798 JUMP JUMPDEST POP PUSH1 0x40 MLOAD PUSH1 0x1 PUSH1 0x1 PUSH1 0xA0 SHL SUB DUP3 AND SWAP1 DUP4 SWAP1 PUSH32 0x155AAAFB6329A2098580462DF33EC4B7441B19729B9601C5FC17AE1CF99A8A52 SWAP1 PUSH1 0x0 SWAP1 LOG3 POP POP JUMP JUMPDEST PUSH1 0x0 DUP1 PUSH1 0x0 JUMPDEST PUSH1 0x3 SLOAD DUP2 LT ISZERO PUSH2 0x150D JUMPI DUP4 PUSH1 0x1 PUSH1 0x1 PUSH1 0x40 SHL SUB AND PUSH1 0x3 DUP3 DUP2 SLOAD DUP2 LT PUSH2 0x14AB JUMPI PUSH2 0x14AB PUSH2 0x20DC JUMP JUMPDEST PUSH1 0x0 SWAP2 DUP3 MSTORE PUSH1 0x20 SWAP1 SWAP2 KECCAK256 PUSH1 0x3 SWAP1 SWAP2 MUL ADD SLOAD PUSH2 0x100 SWAP1 DIV PUSH1 0x1 PUSH1 0x1 PUSH1 0x40 SHL SUB AND SUB PUSH2 0x14FB JUMPI PUSH1 0x3 DUP2 DUP2 SLOAD DUP2 LT PUSH2 0x14E2 JUMPI PUSH2 0x14E2 PUSH2 0x20DC JUMP JUMPDEST SWAP1 PUSH1 0x0 MSTORE PUSH1 0x20 PUSH1 0x0 KECCAK256 SWAP1 PUSH1 0x3 MUL ADD DUP2 SWAP3 POP SWAP3 POP POP SWAP2 POP SWAP2 JUMP JUMPDEST DUP1 PUSH2 0x1505 DUP2 PUSH2 0x2175 JUMP JUMPDEST SWAP2 POP POP PUSH2 0x1484 JUMP JUMPDEST POP PUSH1 0x40 MLOAD PUSH3 0x461BCD PUSH1 0xE5 SHL DUP2 MSTORE PUSH1 0x20 PUSH1 0x4 DUP3 ADD MSTORE PUSH1 0x10 PUSH1 0x24 DUP3 ADD MSTORE PUSH16 0x18DA185B99D9481B9BDD08199BDD5B99 PUSH1 0x82 SHL PUSH1 0x44 DUP3 ADD MSTORE PUSH1 0x64 ADD PUSH2 0x4DC JUMP JUMPDEST DUP3 SLOAD DUP2 SWAP1 DUP5 SWAP1 PUSH1 0xFF NOT AND PUSH1 0x1 DUP4 PUSH1 0x3 DUP2 GT ISZERO PUSH2 0x1567 JUMPI PUSH2 0x1567 PUSH2 0x1CD0 JUMP JUMPDEST MUL OR SWAP1 SSTORE POP PUSH1 0x1 DUP4 DUP2 ADD DUP1 SLOAD PUSH8 0xFFFFFFFFFFFFFFFF NOT AND TIMESTAMP PUSH1 0x1 PUSH1 0x1 PUSH1 0x40 SHL SUB AND OR SWAP1 SSTORE PUSH1 0x4 DUP1 SLOAD DUP1 DUP4 ADD DUP3 SSTORE PUSH1 0x0 SWAP2 SWAP1 SWAP2 MSTORE DUP5 SLOAD PUSH32 0x8A35ACFBC15FF81A39AE7D344FD709F28E8600B4AA8C65C6B64BFE7FE36BD19B PUSH1 0x3 SWAP3 DUP4 MUL ADD DUP1 SLOAD DUP8 SWAP5 SWAP2 SWAP4 PUSH1 0xFF SWAP1 SWAP4 AND SWAP3 DUP5 SWAP3 PUSH1 0xFF NOT SWAP1 SWAP3 AND SWAP2 SWAP1 DUP5 SWAP1 DUP2 GT ISZERO PUSH2 0x15EA JUMPI PUSH2 0x15EA PUSH2 0x1CD0 JUMP JUMPDEST MUL OR SWAP1 SSTORE POP DUP2 SLOAD DUP2 SLOAD PUSH1 0x1 PUSH1 0x1 PUSH1 0x40 SHL SUB PUSH2 0x100 SWAP3 DUP4 SWAP1 DIV DUP2 AND SWAP1 SWAP3 MUL PUSH9 0xFFFFFFFFFFFFFFFF00 NOT DUP3 AND DUP2 OR DUP5 SSTORE DUP5 SLOAD PUSH1 0x1 PUSH1 0x48 SHL SWAP1 DUP2 SWAP1 DIV DUP5 AND MUL PUSH8 0xFFFFFFFFFFFFFFFF PUSH1 0x48 SHL NOT SWAP1 SWAP2 AND PUSH2 0x100 PUSH1 0x1 PUSH1 0x88 SHL SUB NOT SWAP1 SWAP3 AND SWAP2 SWAP1 SWAP2 OR OR DUP1 DUP4 SSTORE DUP4 SLOAD PUSH1 0x1 PUSH1 0x88 SHL SWAP1 DUP2 SWAP1 DIV DUP4 AND MUL PUSH8 0xFFFFFFFFFFFFFFFF PUSH1 0x88 SHL NOT SWAP1 SWAP2 AND OR DUP3 SSTORE PUSH1 0x1 DUP1 DUP5 ADD SLOAD SWAP1 DUP4 ADD DUP1 SLOAD PUSH8 0xFFFFFFFFFFFFFFFF NOT AND SWAP2 SWAP1 SWAP3 AND OR SWAP1 SSTORE PUSH1 0x2 DUP1 DUP4 ADD DUP1 SLOAD PUSH2 0x169D SWAP3 DUP5 ADD SWAP2 SWAP1 PUSH2 0x1BAF JUMP JUMPDEST POP POP POP PUSH2 0x7A9 DUP3 PUSH2 0x17AD JUMP JUMPDEST PUSH1 0x0 DUP2 DUP2 MSTORE PUSH1 0x1 DUP4 ADD PUSH1 0x20 MSTORE PUSH1 0x40 DUP2 KECCAK256 SLOAD PUSH2 0x16F0 JUMPI POP DUP2 SLOAD PUSH1 0x1 DUP2 DUP2 ADD DUP5 SSTORE PUSH1 0x0 DUP5 DUP2 MSTORE PUSH1 0x20 DUP1 DUP3 KECCAK256 SWAP1 SWAP4 ADD DUP5 SWAP1 SSTORE DUP5 SLOAD DUP5 DUP3 MSTORE DUP3 DUP7 ADD SWAP1 SWAP4 MSTORE PUSH1 0x40 SWAP1 KECCAK256 SWAP2 SWAP1 SWAP2 SSTORE PUSH2 0x639 JUMP JUMPDEST POP PUSH1 0x0 PUSH2 0x639 JUMP JUMPDEST PUSH1 0x60 PUSH2 0x657 DUP4 DUP4 PUSH1 0x0 PUSH1 0x40 MLOAD DUP1 PUSH1 0x40 ADD PUSH1 0x40 MSTORE DUP1 PUSH1 0x1E DUP2 MSTORE PUSH1 0x20 ADD PUSH32 0x416464726573733A206C6F772D6C6576656C2063616C6C206661696C65640000 DUP2 MSTORE POP PUSH2 0x193A JUMP JUMPDEST PUSH1 0x60 DUP2 PUSH1 0x0 ADD DUP1 SLOAD DUP1 PUSH1 0x20 MUL PUSH1 0x20 ADD PUSH1 0x40 MLOAD SWAP1 DUP2 ADD PUSH1 0x40 MSTORE DUP1 SWAP3 SWAP2 SWAP1 DUP2 DUP2 MSTORE PUSH1 0x20 ADD DUP3 DUP1 SLOAD DUP1 ISZERO PUSH2 0x178C JUMPI PUSH1 0x20 MUL DUP3 ADD SWAP2 SWAP1 PUSH1 0x0 MSTORE PUSH1 0x20 PUSH1 0x0 KECCAK256 SWAP1 JUMPDEST DUP2 SLOAD DUP2 MSTORE PUSH1 0x20 ADD SWAP1 PUSH1 0x1 ADD SWAP1 DUP1 DUP4 GT PUSH2 0x1778 JUMPI JUMPDEST POP POP POP POP POP SWAP1 POP SWAP2 SWAP1 POP JUMP JUMPDEST PUSH1 0x0 PUSH2 0x657 DUP4 PUSH1 0x1 PUSH1 0x1 PUSH1 0xA0 SHL SUB DUP5 AND PUSH2 0x1A17 JUMP JUMPDEST PUSH1 0x3 DUP1 SLOAD PUSH2 0x17BD SWAP1 PUSH1 0x1 SWAP1 PUSH2 0x23C6 JUMP JUMPDEST DUP2 SLOAD DUP2 LT PUSH2 0x17CD JUMPI PUSH2 0x17CD PUSH2 0x20DC JUMP JUMPDEST SWAP1 PUSH1 0x0 MSTORE PUSH1 0x20 PUSH1 0x0 KECCAK256 SWAP1 PUSH1 0x3 MUL ADD PUSH1 0x3 DUP3 DUP2 SLOAD DUP2 LT PUSH2 0x17EE JUMPI PUSH2 0x17EE PUSH2 0x20DC JUMP JUMPDEST PUSH1 0x0 SWAP2 DUP3 MSTORE PUSH1 0x20 SWAP1 SWAP2 KECCAK256 DUP3 SLOAD PUSH1 0x3 SWAP3 DUP4 MUL SWAP1 SWAP2 ADD DUP1 SLOAD SWAP1 SWAP3 PUSH1 0xFF SWAP1 SWAP3 AND SWAP2 DUP4 SWAP2 PUSH1 0xFF NOT AND SWAP1 PUSH1 0x1 SWAP1 DUP5 SWAP1 DUP2 GT ISZERO PUSH2 0x1827 JUMPI PUSH2 0x1827 PUSH2 0x1CD0 JUMP JUMPDEST MUL OR SWAP1 SSTORE POP DUP2 SLOAD DUP2 SLOAD PUSH1 0x1 PUSH1 0x1 PUSH1 0x40 SHL SUB PUSH2 0x100 SWAP3 DUP4 SWAP1 DIV DUP2 AND SWAP1 SWAP3 MUL PUSH9 0xFFFFFFFFFFFFFFFF00 NOT DUP3 AND DUP2 OR DUP5 SSTORE DUP5 SLOAD PUSH1 0x1 PUSH1 0x48 SHL SWAP1 DUP2 SWAP1 DIV DUP5 AND MUL PUSH8 0xFFFFFFFFFFFFFFFF PUSH1 0x48 SHL NOT SWAP1 SWAP2 AND PUSH2 0x100 PUSH1 0x1 PUSH1 0x88 SHL SUB NOT SWAP1 SWAP3 AND SWAP2 SWAP1 SWAP2 OR OR DUP1 DUP4 SSTORE DUP4 SLOAD PUSH1 0x1 PUSH1 0x88 SHL SWAP1 DUP2 SWAP1 DIV DUP4 AND MUL PUSH8 0xFFFFFFFFFFFFFFFF PUSH1 0x88 SHL NOT SWAP1 SWAP2 AND OR DUP3 SSTORE PUSH1 0x1 DUP1 DUP5 ADD SLOAD SWAP1 DUP4 ADD DUP1 SLOAD PUSH8 0xFFFFFFFFFFFFFFFF NOT AND SWAP2 SWAP1 SWAP3 AND OR SWAP1 SSTORE PUSH1 0x2 DUP1 DUP4 ADD DUP1 SLOAD PUSH2 0x18DA SWAP3 DUP5 ADD SWAP2 SWAP1 PUSH2 0x1BAF JUMP JUMPDEST POP SWAP1 POP POP PUSH1 0x3 DUP1 SLOAD DUP1 PUSH2 0x18EF JUMPI PUSH2 0x18EF PUSH2 0x2508 JUMP JUMPDEST PUSH1 0x0 DUP3 DUP2 MSTORE PUSH1 0x20 DUP2 KECCAK256 PUSH1 0x3 PUSH1 0x0 NOT SWAP1 SWAP4 ADD SWAP3 DUP4 MUL ADD DUP1 SLOAD PUSH1 0x1 PUSH1 0x1 PUSH1 0xC8 SHL SUB NOT AND DUP2 SSTORE PUSH1 0x1 DUP2 ADD DUP1 SLOAD PUSH8 0xFFFFFFFFFFFFFFFF NOT AND SWAP1 SSTORE SWAP1 PUSH2 0x1933 PUSH1 0x2 DUP4 ADD DUP3 PUSH2 0x1C34 JUMP JUMPDEST POP POP SWAP1 SSTORE POP JUMP JUMPDEST PUSH1 0x60 DUP3 SELFBALANCE LT ISZERO PUSH2 0x199B JUMPI PUSH1 0x40 MLOAD PUSH3 0x461BCD PUSH1 0xE5 SHL DUP2 MSTORE PUSH1 0x20 PUSH1 0x4 DUP3 ADD MSTORE PUSH1 0x26 PUSH1 0x24 DUP3 ADD MSTORE PUSH32 0x416464726573733A20696E73756666696369656E742062616C616E636520666F PUSH1 0x44 DUP3 ADD MSTORE PUSH6 0x1C8818D85B1B PUSH1 0xD2 SHL PUSH1 0x64 DUP3 ADD MSTORE PUSH1 0x84 ADD PUSH2 0x4DC JUMP JUMPDEST PUSH1 0x0 DUP1 DUP7 PUSH1 0x1 PUSH1 0x1 PUSH1 0xA0 SHL SUB AND DUP6 DUP8 PUSH1 0x40 MLOAD PUSH2 0x19B7 SWAP2 SWAP1 PUSH2 0x251E JUMP JUMPDEST PUSH1 0x0 PUSH1 0x40 MLOAD DUP1 DUP4 SUB DUP2 DUP6 DUP8 GAS CALL SWAP3 POP POP POP RETURNDATASIZE DUP1 PUSH1 0x0 DUP2 EQ PUSH2 0x19F4 JUMPI PUSH1 0x40 MLOAD SWAP2 POP PUSH1 0x1F NOT PUSH1 0x3F RETURNDATASIZE ADD AND DUP3 ADD PUSH1 0x40 MSTORE RETURNDATASIZE DUP3 MSTORE RETURNDATASIZE PUSH1 0x0 PUSH1 0x20 DUP5 ADD RETURNDATACOPY PUSH2 0x19F9 JUMP JUMPDEST PUSH1 0x60 SWAP2 POP JUMPDEST POP SWAP2 POP SWAP2 POP PUSH2 0x1A0A DUP8 DUP4 DUP4 DUP8 PUSH2 0x1B11 JUMP JUMPDEST SWAP3 POP POP POP JUMPDEST SWAP5 SWAP4 POP POP POP POP JUMP JUMPDEST PUSH1 0x0 DUP2 DUP2 MSTORE PUSH1 0x1 DUP4 ADD PUSH1 0x20 MSTORE PUSH1 0x40 DUP2 KECCAK256 SLOAD DUP1 ISZERO PUSH2 0x1B00 JUMPI PUSH1 0x0 PUSH2 0x1A3B PUSH1 0x1 DUP4 PUSH2 0x23C6 JUMP JUMPDEST DUP6 SLOAD SWAP1 SWAP2 POP PUSH1 0x0 SWAP1 PUSH2 0x1A4F SWAP1 PUSH1 0x1 SWAP1 PUSH2 0x23C6 JUMP JUMPDEST SWAP1 POP DUP2 DUP2 EQ PUSH2 0x1AB4 JUMPI PUSH1 0x0 DUP7 PUSH1 0x0 ADD DUP3 DUP2 SLOAD DUP2 LT PUSH2 0x1A6F JUMPI PUSH2 0x1A6F PUSH2 0x20DC JUMP JUMPDEST SWAP1 PUSH1 0x0 MSTORE PUSH1 0x20 PUSH1 0x0 KECCAK256 ADD SLOAD SWAP1 POP DUP1 DUP8 PUSH1 0x0 ADD DUP5 DUP2 SLOAD DUP2 LT PUSH2 0x1A92 JUMPI PUSH2 0x1A92 PUSH2 0x20DC JUMP JUMPDEST PUSH1 0x0 SWAP2 DUP3 MSTORE PUSH1 0x20 DUP1 DUP4 KECCAK256 SWAP1 SWAP2 ADD SWAP3 SWAP1 SWAP3 SSTORE SWAP2 DUP3 MSTORE PUSH1 0x1 DUP9 ADD SWAP1 MSTORE PUSH1 0x40 SWAP1 KECCAK256 DUP4 SWAP1 SSTORE JUMPDEST DUP6 SLOAD DUP7 SWAP1 DUP1 PUSH2 0x1AC5 JUMPI PUSH2 0x1AC5 PUSH2 0x2508 JUMP JUMPDEST PUSH1 0x1 SWAP1 SUB DUP2 DUP2 SWAP1 PUSH1 0x0 MSTORE PUSH1 0x20 PUSH1 0x0 KECCAK256 ADD PUSH1 0x0 SWAP1 SSTORE SWAP1 SSTORE DUP6 PUSH1 0x1 ADD PUSH1 0x0 DUP7 DUP2 MSTORE PUSH1 0x20 ADD SWAP1 DUP2 MSTORE PUSH1 0x20 ADD PUSH1 0x0 KECCAK256 PUSH1 0x0 SWAP1 SSTORE PUSH1 0x1 SWAP4 POP POP POP POP PUSH2 0x639 JUMP JUMPDEST PUSH1 0x0 SWAP2 POP POP PUSH2 0x639 JUMP JUMPDEST POP SWAP3 SWAP2 POP POP JUMP JUMPDEST PUSH1 0x60 DUP4 ISZERO PUSH2 0x1B80 JUMPI DUP3 MLOAD PUSH1 0x0 SUB PUSH2 0x1B79 JUMPI PUSH1 0x1 PUSH1 0x1 PUSH1 0xA0 SHL SUB DUP6 AND EXTCODESIZE PUSH2 0x1B79 JUMPI PUSH1 0x40 MLOAD PUSH3 0x461BCD PUSH1 0xE5 SHL DUP2 MSTORE PUSH1 0x20 PUSH1 0x4 DUP3 ADD MSTORE PUSH1 0x1D PUSH1 0x24 DUP3 ADD MSTORE PUSH32 0x416464726573733A2063616C6C20746F206E6F6E2D636F6E7472616374000000 PUSH1 0x44 DUP3 ADD MSTORE PUSH1 0x64 ADD PUSH2 0x4DC JUMP JUMPDEST POP DUP2 PUSH2 0x1A0F JUMP JUMPDEST PUSH2 0x1A0F DUP4 DUP4 DUP2 MLOAD ISZERO PUSH2 0x1B95 JUMPI DUP2 MLOAD DUP1 DUP4 PUSH1 0x20 ADD REVERT JUMPDEST DUP1 PUSH1 0x40 MLOAD PUSH3 0x461BCD PUSH1 0xE5 SHL DUP2 MSTORE PUSH1 0x4 ADD PUSH2 0x4DC SWAP2 SWAP1 PUSH2 0x2530 JUMP JUMPDEST DUP3 DUP1 SLOAD DUP3 DUP3 SSTORE SWAP1 PUSH1 0x0 MSTORE PUSH1 0x20 PUSH1 0x0 KECCAK256 SWAP1 PUSH1 0x2 MUL DUP2 ADD SWAP3 DUP3 ISZERO PUSH2 0x1C24 JUMPI PUSH1 0x0 MSTORE PUSH1 0x20 PUSH1 0x0 KECCAK256 SWAP2 PUSH1 0x2 MUL DUP3 ADD JUMPDEST DUP3 DUP2 GT ISZERO PUSH2 0x1C24 JUMPI DUP3 SLOAD DUP3 SLOAD PUSH1 0x1 PUSH1 0x1 PUSH1 0xA0 SHL SUB NOT AND PUSH1 0x1 PUSH1 0x1 PUSH1 0xA0 SHL SUB SWAP1 SWAP2 AND OR DUP3 SSTORE DUP3 DUP3 PUSH1 0x1 DUP1 DUP3 ADD SWAP1 PUSH2 0x1C12 SWAP1 DUP5 ADD DUP3 PUSH2 0x2543 JUMP JUMPDEST POP POP POP SWAP2 PUSH1 0x2 ADD SWAP2 SWAP1 PUSH1 0x2 ADD SWAP1 PUSH2 0x1BDA JUMP JUMPDEST POP PUSH2 0x1C30 SWAP3 SWAP2 POP PUSH2 0x1C58 JUMP JUMPDEST POP SWAP1 JUMP JUMPDEST POP DUP1 SLOAD PUSH1 0x0 DUP3 SSTORE PUSH1 0x2 MUL SWAP1 PUSH1 0x0 MSTORE PUSH1 0x20 PUSH1 0x0 KECCAK256 SWAP1 DUP2 ADD SWAP1 PUSH2 0x1C55 SWAP2 SWAP1 PUSH2 0x1C58 JUMP JUMPDEST POP JUMP JUMPDEST DUP1 DUP3 GT ISZERO PUSH2 0x1C30 JUMPI DUP1 SLOAD PUSH1 0x1 PUSH1 0x1 PUSH1 0xA0 SHL SUB NOT AND DUP2 SSTORE PUSH1 0x0 PUSH2 0x1C7D PUSH1 0x1 DUP4 ADD DUP3 PUSH2 0x1C86 JUMP JUMPDEST POP PUSH1 0x2 ADD PUSH2 0x1C58 JUMP JUMPDEST POP DUP1 SLOAD PUSH2 0x1C92 SWAP1 PUSH2 0x207A JUMP JUMPDEST PUSH1 0x0 DUP3 SSTORE DUP1 PUSH1 0x1F LT PUSH2 0x1CA2 JUMPI POP POP JUMP JUMPDEST PUSH1 0x1F ADD PUSH1 0x20 SWAP1 DIV SWAP1 PUSH1 0x0 MSTORE PUSH1 0x20 PUSH1 0x0 KECCAK256 SWAP1 DUP2 ADD SWAP1 PUSH2 0x1C55 SWAP2 SWAP1 JUMPDEST DUP1 DUP3 GT ISZERO PUSH2 0x1C30 JUMPI PUSH1 0x0 DUP2 SSTORE PUSH1 0x1 ADD PUSH2 0x1CBC JUMP JUMPDEST PUSH4 0x4E487B71 PUSH1 0xE0 SHL PUSH1 0x0 MSTORE PUSH1 0x21 PUSH1 0x4 MSTORE PUSH1 0x24 PUSH1 0x0 REVERT JUMPDEST PUSH1 0x0 JUMPDEST DUP4 DUP2 LT ISZERO PUSH2 0x1D01 JUMPI DUP2 DUP2 ADD MLOAD DUP4 DUP3 ADD MSTORE PUSH1 0x20 ADD PUSH2 0x1CE9 JUMP JUMPDEST POP POP PUSH1 0x0 SWAP2 ADD MSTORE JUMP JUMPDEST PUSH1 0x0 DUP2 MLOAD DUP1 DUP5 MSTORE PUSH2 0x1D22 DUP2 PUSH1 0x20 DUP7 ADD PUSH1 0x20 DUP7 ADD PUSH2 0x1CE6 JUMP JUMPDEST PUSH1 0x1F ADD PUSH1 0x1F NOT AND SWAP3 SWAP1 SWAP3 ADD PUSH1 0x20 ADD SWAP3 SWAP2 POP POP JUMP JUMPDEST PUSH1 0x0 DUP3 DUP3 MLOAD DUP1 DUP6 MSTORE PUSH1 0x20 DUP1 DUP7 ADD SWAP6 POP DUP1 DUP3 PUSH1 0x5 SHL DUP5 ADD ADD DUP2 DUP7 ADD PUSH1 0x0 JUMPDEST DUP5 DUP2 LT ISZERO PUSH2 0x1D9E JUMPI DUP6 DUP4 SUB PUSH1 0x1F NOT ADD DUP10 MSTORE DUP2 MLOAD DUP1 MLOAD PUSH1 0x1 PUSH1 0x1 PUSH1 0xA0 SHL SUB AND DUP5 MSTORE DUP5 ADD MLOAD PUSH1 0x40 DUP6 DUP6 ADD DUP2 SWAP1 MSTORE PUSH2 0x1D8A DUP2 DUP7 ADD DUP4 PUSH2 0x1D0A JUMP JUMPDEST SWAP11 DUP7 ADD SWAP11 SWAP5 POP POP POP SWAP1 DUP4 ADD SWAP1 PUSH1 0x1 ADD PUSH2 0x1D53 JUMP JUMPDEST POP SWAP1 SWAP8 SWAP7 POP POP POP POP POP POP POP JUMP JUMPDEST PUSH1 0x0 DUP2 MLOAD PUSH1 0x4 DUP2 LT PUSH2 0x1DCD JUMPI PUSH4 0x4E487B71 PUSH1 0xE0 SHL PUSH1 0x0 MSTORE PUSH1 0x21 PUSH1 0x4 MSTORE PUSH1 0x24 PUSH1 0x0 REVERT JUMPDEST DUP1 DUP5 MSTORE POP PUSH1 0x20 DUP3 ADD MLOAD PUSH1 0x1 PUSH1 0x1 PUSH1 0x40 SHL SUB DUP1 DUP3 AND PUSH1 0x20 DUP7 ADD MSTORE DUP1 PUSH1 0x40 DUP6 ADD MLOAD AND PUSH1 0x40 DUP7 ADD MSTORE DUP1 PUSH1 0x60 DUP6 ADD MLOAD AND PUSH1 0x60 DUP7 ADD MSTORE DUP1 PUSH1 0x80 DUP6 ADD MLOAD AND PUSH1 0x80 DUP7 ADD MSTORE POP POP PUSH1 0xA0 DUP3 ADD MLOAD PUSH1 0xC0 PUSH1 0xA0 DUP6 ADD MSTORE PUSH2 0x1A0F PUSH1 0xC0 DUP6 ADD DUP3 PUSH2 0x1D36 JUMP JUMPDEST PUSH1 0x0 PUSH1 0x20 DUP1 DUP4 ADD DUP2 DUP5 MSTORE DUP1 DUP6 MLOAD DUP1 DUP4 MSTORE PUSH1 0x40 DUP7 ADD SWAP2 POP PUSH1 0x40 DUP2 PUSH1 0x5 SHL DUP8 ADD ADD SWAP3 POP DUP4 DUP8 ADD PUSH1 0x0 JUMPDEST DUP3 DUP2 LT ISZERO PUSH2 0x1E7A JUMPI PUSH1 0x3F NOT DUP9 DUP7 SUB ADD DUP5 MSTORE PUSH2 0x1E68 DUP6 DUP4 MLOAD PUSH2 0x1DAB JUMP JUMPDEST SWAP5 POP SWAP3 DUP6 ADD SWAP3 SWAP1 DUP6 ADD SWAP1 PUSH1 0x1 ADD PUSH2 0x1E4C JUMP JUMPDEST POP SWAP3 SWAP8 SWAP7 POP POP POP POP POP POP POP JUMP JUMPDEST PUSH1 0x0 DUP1 PUSH1 0x20 DUP4 DUP6 SUB SLT ISZERO PUSH2 0x1E9A JUMPI PUSH1 0x0 DUP1 REVERT JUMPDEST DUP3 CALLDATALOAD PUSH1 0x1 PUSH1 0x1 PUSH1 0x40 SHL SUB DUP1 DUP3 GT ISZERO PUSH2 0x1EB1 JUMPI PUSH1 0x0 DUP1 REVERT JUMPDEST DUP2 DUP6 ADD SWAP2 POP DUP6 PUSH1 0x1F DUP4 ADD SLT PUSH2 0x1EC5 JUMPI PUSH1 0x0 DUP1 REVERT JUMPDEST DUP2 CALLDATALOAD DUP2 DUP2 GT ISZERO PUSH2 0x1ED4 JUMPI PUSH1 0x0 DUP1 REVERT JUMPDEST DUP7 PUSH1 0x20 DUP3 PUSH1 0x5 SHL DUP6 ADD ADD GT ISZERO PUSH2 0x1EE9 JUMPI PUSH1 0x0 DUP1 REVERT JUMPDEST PUSH1 0x20 SWAP3 SWAP1 SWAP3 ADD SWAP7 SWAP2 SWAP6 POP SWAP1 SWAP4 POP POP POP POP JUMP JUMPDEST PUSH1 0x1 PUSH1 0x1 PUSH1 0xA0 SHL SUB DUP2 AND DUP2 EQ PUSH2 0x1C55 JUMPI PUSH1 0x0 DUP1 REVERT JUMPDEST PUSH1 0x0 DUP1 PUSH1 0x40 DUP4 DUP6 SUB SLT ISZERO PUSH2 0x1F23 JUMPI PUSH1 0x0 DUP1 REVERT JUMPDEST DUP3 CALLDATALOAD SWAP2 POP PUSH1 0x20 DUP4 ADD CALLDATALOAD PUSH2 0x1F35 DUP2 PUSH2 0x1EFB JUMP JUMPDEST DUP1 SWAP2 POP POP SWAP3 POP SWAP3 SWAP1 POP JUMP JUMPDEST PUSH1 0x0 PUSH1 0x20 DUP3 DUP5 SUB SLT ISZERO PUSH2 0x1F52 JUMPI PUSH1 0x0 DUP1 REVERT JUMPDEST POP CALLDATALOAD SWAP2 SWAP1 POP JUMP JUMPDEST PUSH1 0x20 DUP1 DUP3 MSTORE DUP3 MLOAD DUP3 DUP3 ADD DUP2 SWAP1 MSTORE PUSH1 0x0 SWAP2 SWAP1 DUP5 DUP3 ADD SWAP1 PUSH1 0x40 DUP6 ADD SWAP1 DUP5 JUMPDEST DUP2 DUP2 LT ISZERO PUSH2 0x1F9A JUMPI DUP4 MLOAD PUSH1 0x1 PUSH1 0x1 PUSH1 0xA0 SHL SUB AND DUP4 MSTORE SWAP3 DUP5 ADD SWAP3 SWAP2 DUP5 ADD SWAP2 PUSH1 0x1 ADD PUSH2 0x1F75 JUMP JUMPDEST POP SWAP1 SWAP7 SWAP6 POP POP POP POP POP POP JUMP JUMPDEST DUP1 CALLDATALOAD PUSH1 0x1 PUSH1 0x1 PUSH1 0x40 SHL SUB DUP2 AND DUP2 EQ PUSH2 0x1FBD JUMPI PUSH1 0x0 DUP1 REVERT JUMPDEST SWAP2 SWAP1 POP JUMP JUMPDEST PUSH1 0x0 PUSH1 0x20 DUP3 DUP5 SUB SLT ISZERO PUSH2 0x1FD4 JUMPI PUSH1 0x0 DUP1 REVERT JUMPDEST PUSH2 0x657 DUP3 PUSH2 0x1FA6 JUMP JUMPDEST PUSH1 0x1 PUSH1 0x1 PUSH1 0xE0 SHL SUB NOT DUP2 AND DUP2 EQ PUSH2 0x1C55 JUMPI PUSH1 0x0 DUP1 REVERT JUMPDEST PUSH1 0x0 DUP1 PUSH1 0x40 DUP4 DUP6 SUB SLT ISZERO PUSH2 0x2006 JUMPI PUSH1 0x0 DUP1 REVERT JUMPDEST DUP3 CALLDATALOAD PUSH2 0x2011 DUP2 PUSH2 0x1FDD JUMP JUMPDEST SWAP2 POP PUSH2 0x201F PUSH1 0x20 DUP5 ADD PUSH2 0x1FA6 JUMP JUMPDEST SWAP1 POP SWAP3 POP SWAP3 SWAP1 POP JUMP JUMPDEST PUSH1 0x0 DUP1 PUSH1 0x40 DUP4 DUP6 SUB SLT ISZERO PUSH2 0x203B JUMPI PUSH1 0x0 DUP1 REVERT JUMPDEST POP POP DUP1 CALLDATALOAD SWAP3 PUSH1 0x20 SWAP1 SWAP2 ADD CALLDATALOAD SWAP2 POP JUMP JUMPDEST PUSH1 0x0 PUSH1 0x20 DUP3 DUP5 SUB SLT ISZERO PUSH2 0x205C JUMPI PUSH1 0x0 DUP1 REVERT JUMPDEST DUP2 CALLDATALOAD PUSH2 0x657 DUP2 PUSH2 0x1FDD JUMP JUMPDEST PUSH1 0x20 DUP2 MSTORE PUSH1 0x0 PUSH2 0x657 PUSH1 0x20 DUP4 ADD DUP5 PUSH2 0x1DAB JUMP JUMPDEST PUSH1 0x1 DUP2 DUP2 SHR SWAP1 DUP3 AND DUP1 PUSH2 0x208E JUMPI PUSH1 0x7F DUP3 AND SWAP2 POP JUMPDEST PUSH1 0x20 DUP3 LT DUP2 SUB PUSH2 0x20AE JUMPI PUSH4 0x4E487B71 PUSH1 0xE0 SHL PUSH1 0x0 MSTORE PUSH1 0x22 PUSH1 0x4 MSTORE PUSH1 0x24 PUSH1 0x0 REVERT JUMPDEST POP SWAP2 SWAP1 POP JUMP JUMPDEST PUSH1 0x20 DUP1 DUP3 MSTORE PUSH1 0xE SWAP1 DUP3 ADD MSTORE PUSH14 0x1B9BDD08185D5D1A1BDC9A5E9959 PUSH1 0x92 SHL PUSH1 0x40 DUP3 ADD MSTORE PUSH1 0x60 ADD SWAP1 JUMP JUMPDEST PUSH4 0x4E487B71 PUSH1 0xE0 SHL PUSH1 0x0 MSTORE PUSH1 0x32 PUSH1 0x4 MSTORE PUSH1 0x24 PUSH1 0x0 REVERT JUMPDEST PUSH1 0x0 DUP3 CALLDATALOAD PUSH1 0x3E NOT DUP4 CALLDATASIZE SUB ADD DUP2 SLT PUSH2 0x2108 JUMPI PUSH1 0x0 DUP1 REVERT JUMPDEST SWAP2 SWAP1 SWAP2 ADD SWAP3 SWAP2 POP POP JUMP JUMPDEST PUSH1 0x0 DUP1 DUP4 CALLDATALOAD PUSH1 0x1E NOT DUP5 CALLDATASIZE SUB ADD DUP2 SLT PUSH2 0x2129 JUMPI PUSH1 0x0 DUP1 REVERT JUMPDEST DUP4 ADD DUP1 CALLDATALOAD SWAP2 POP PUSH1 0x1 PUSH1 0x1 PUSH1 0x40 SHL SUB DUP3 GT ISZERO PUSH2 0x2143 JUMPI PUSH1 0x0 DUP1 REVERT JUMPDEST PUSH1 0x20 ADD SWAP2 POP CALLDATASIZE DUP2 SWAP1 SUB DUP3 SGT ISZERO PUSH2 0x2158 JUMPI PUSH1 0x0 DUP1 REVERT JUMPDEST SWAP3 POP SWAP3 SWAP1 POP JUMP JUMPDEST PUSH4 0x4E487B71 PUSH1 0xE0 SHL PUSH1 0x0 MSTORE PUSH1 0x11 PUSH1 0x4 MSTORE PUSH1 0x24 PUSH1 0x0 REVERT JUMPDEST PUSH1 0x0 PUSH1 0x1 DUP3 ADD PUSH2 0x2187 JUMPI PUSH2 0x2187 PUSH2 0x215F JUMP JUMPDEST POP PUSH1 0x1 ADD SWAP1 JUMP JUMPDEST PUSH4 0x4E487B71 PUSH1 0xE0 SHL PUSH1 0x0 MSTORE PUSH1 0x41 PUSH1 0x4 MSTORE PUSH1 0x24 PUSH1 0x0 REVERT JUMPDEST DUP1 DUP3 ADD DUP1 DUP3 GT ISZERO PUSH2 0x639 JUMPI PUSH2 0x639 PUSH2 0x215F JUMP JUMPDEST PUSH1 0x0 DUP1 DUP6 DUP6 GT ISZERO PUSH2 0x21C7 JUMPI PUSH1 0x0 DUP1 REVERT JUMPDEST DUP4 DUP7 GT ISZERO PUSH2 0x21D4 JUMPI PUSH1 0x0 DUP1 REVERT JUMPDEST POP POP DUP3 ADD SWAP4 SWAP2 SWAP1 SWAP3 SUB SWAP2 POP JUMP JUMPDEST PUSH1 0x1 PUSH1 0x1 PUSH1 0xE0 SHL SUB NOT DUP2 CALLDATALOAD DUP2 DUP2 AND SWAP2 PUSH1 0x4 DUP6 LT ISZERO PUSH2 0x2209 JUMPI DUP1 DUP2 DUP7 PUSH1 0x4 SUB PUSH1 0x3 SHL SHL DUP4 AND AND SWAP3 POP JUMPDEST POP POP SWAP3 SWAP2 POP POP JUMP JUMPDEST PUSH1 0x0 DUP1 PUSH1 0x40 DUP4 DUP6 SUB SLT ISZERO PUSH2 0x2224 JUMPI PUSH1 0x0 DUP1 REVERT JUMPDEST DUP3 MLOAD PUSH2 0x222F DUP2 PUSH2 0x1FDD JUMP JUMPDEST PUSH1 0x20 SWAP4 SWAP1 SWAP4 ADD MLOAD SWAP3 SWAP5 SWAP3 SWAP4 POP POP POP JUMP JUMPDEST PUSH1 0x0 PUSH1 0x1 PUSH1 0x1 PUSH1 0x40 SHL SUB DUP1 DUP4 AND DUP2 DUP2 SUB PUSH2 0x225B JUMPI PUSH2 0x225B PUSH2 0x215F JUMP JUMPDEST PUSH1 0x1 ADD SWAP4 SWAP3 POP POP POP JUMP JUMPDEST PUSH1 0x1F DUP3 GT ISZERO PUSH2 0x7A9 JUMPI PUSH1 0x0 DUP2 DUP2 MSTORE PUSH1 0x20 DUP2 KECCAK256 PUSH1 0x1F DUP6 ADD PUSH1 0x5 SHR DUP2 ADD PUSH1 0x20 DUP7 LT ISZERO PUSH2 0x228C JUMPI POP DUP1 JUMPDEST PUSH1 0x1F DUP6 ADD PUSH1 0x5 SHR DUP3 ADD SWAP2 POP JUMPDEST DUP2 DUP2 LT ISZERO PUSH2 0x58E JUMPI DUP3 DUP2 SSTORE PUSH1 0x1 ADD PUSH2 0x2298 JUMP JUMPDEST DUP2 CALLDATALOAD PUSH2 0x22B6 DUP2 PUSH2 0x1EFB JUMP JUMPDEST DUP2 SLOAD PUSH1 0x1 PUSH1 0x1 PUSH1 0xA0 SHL SUB NOT AND PUSH1 0x1 PUSH1 0x1 PUSH1 0xA0 SHL SUB SWAP2 SWAP1 SWAP2 AND OR DUP2 SSTORE PUSH1 0x1 DUP2 DUP2 ADD PUSH1 0x20 DUP5 DUP2 ADD CALLDATALOAD CALLDATASIZE DUP7 SWAP1 SUB PUSH1 0x1E NOT ADD DUP2 SLT PUSH2 0x22EF JUMPI PUSH1 0x0 DUP1 REVERT JUMPDEST DUP6 ADD DUP1 CALLDATALOAD PUSH1 0x1 PUSH1 0x1 PUSH1 0x40 SHL SUB DUP2 GT ISZERO PUSH2 0x2307 JUMPI PUSH1 0x0 DUP1 REVERT JUMPDEST DUP1 CALLDATASIZE SUB DUP4 DUP4 ADD SGT ISZERO PUSH2 0x2318 JUMPI PUSH1 0x0 DUP1 REVERT JUMPDEST PUSH2 0x232C DUP2 PUSH2 0x2326 DUP7 SLOAD PUSH2 0x207A JUMP JUMPDEST DUP7 PUSH2 0x2265 JUMP JUMPDEST PUSH1 0x0 PUSH1 0x1F DUP3 GT PUSH1 0x1 DUP2 EQ PUSH2 0x2362 JUMPI PUSH1 0x0 DUP4 ISZERO PUSH2 0x234A JUMPI POP DUP4 DUP3 ADD DUP6 ADD CALLDATALOAD JUMPDEST PUSH1 0x0 NOT PUSH1 0x3 DUP6 SWAP1 SHL SHR NOT AND PUSH1 0x1 DUP5 SWAP1 SHL OR DUP7 SSTORE PUSH2 0x23BB JUMP JUMPDEST PUSH1 0x0 DUP7 DUP2 MSTORE PUSH1 0x20 SWAP1 KECCAK256 PUSH1 0x1F NOT DUP5 AND SWAP1 DUP4 JUMPDEST DUP3 DUP2 LT ISZERO PUSH2 0x2392 JUMPI DUP7 DUP6 ADD DUP9 ADD CALLDATALOAD DUP3 SSTORE SWAP4 DUP8 ADD SWAP4 SWAP1 DUP10 ADD SWAP1 DUP8 ADD PUSH2 0x2373 JUMP JUMPDEST POP DUP5 DUP3 LT ISZERO PUSH2 0x23B1 JUMPI PUSH1 0x0 NOT PUSH1 0xF8 DUP7 PUSH1 0x3 SHL AND SHR NOT DUP8 DUP6 DUP9 ADD ADD CALLDATALOAD AND DUP2 SSTORE JUMPDEST POP POP DUP7 DUP4 DUP9 SHL ADD DUP7 SSTORE JUMPDEST POP POP POP POP POP POP POP POP POP JUMP JUMPDEST DUP2 DUP2 SUB DUP2 DUP2 GT ISZERO PUSH2 0x639 JUMPI PUSH2 0x639 PUSH2 0x215F JUMP JUMPDEST PUSH1 0x60 DUP1 DUP3 MSTORE DUP2 DUP2 ADD DUP6 SWAP1 MSTORE PUSH1 0x0 SWAP1 PUSH1 0x80 PUSH1 0x5 DUP8 SWAP1 SHL DUP5 ADD DUP2 ADD SWAP1 DUP5 ADD DUP9 DUP5 JUMPDEST DUP10 DUP2 LT ISZERO PUSH2 0x24B5 JUMPI DUP7 DUP5 SUB PUSH1 0x7F NOT ADD DUP4 MSTORE DUP2 CALLDATALOAD CALLDATASIZE DUP13 SWAP1 SUB PUSH1 0x3E NOT ADD DUP2 SLT PUSH2 0x241E JUMPI PUSH1 0x0 DUP1 REVERT JUMPDEST DUP12 ADD PUSH1 0x40 DUP2 CALLDATALOAD PUSH2 0x242D DUP2 PUSH2 0x1EFB JUMP JUMPDEST PUSH1 0x1 PUSH1 0x1 PUSH1 0xA0 SHL SUB AND DUP7 MSTORE PUSH1 0x20 DUP3 DUP2 ADD CALLDATALOAD CALLDATASIZE DUP5 SWAP1 SUB PUSH1 0x1E NOT ADD DUP2 SLT PUSH2 0x2451 JUMPI PUSH1 0x0 DUP1 REVERT JUMPDEST SWAP1 SWAP3 ADD DUP3 DUP2 ADD SWAP3 SWAP1 CALLDATALOAD PUSH1 0x1 PUSH1 0x1 PUSH1 0x40 SHL SUB DUP2 GT ISZERO PUSH2 0x246E JUMPI PUSH1 0x0 DUP1 REVERT JUMPDEST DUP1 CALLDATASIZE SUB DUP5 SGT ISZERO PUSH2 0x247D JUMPI PUSH1 0x0 DUP1 REVERT JUMPDEST DUP3 DUP3 DUP10 ADD MSTORE DUP1 DUP4 DUP10 ADD MSTORE DUP1 DUP5 DUP11 DUP11 ADD CALLDATACOPY PUSH1 0x0 DUP9 DUP3 ADD DUP11 ADD MSTORE PUSH1 0x1F ADD PUSH1 0x1F NOT AND SWAP1 SWAP7 ADD DUP8 ADD SWAP6 SWAP5 DUP6 ADD SWAP5 SWAP4 SWAP1 SWAP4 ADD SWAP3 POP POP PUSH1 0x1 ADD PUSH2 0x23F8 JUMP JUMPDEST POP POP POP PUSH1 0x1 PUSH1 0x1 PUSH1 0x40 SHL SUB DUP7 AND PUSH1 0x20 DUP6 ADD MSTORE SWAP2 POP PUSH2 0x24D0 SWAP1 POP JUMP JUMPDEST PUSH1 0x1 PUSH1 0x1 PUSH1 0x40 SHL SUB DUP4 AND PUSH1 0x40 DUP4 ADD MSTORE SWAP6 SWAP5 POP POP POP POP POP JUMP JUMPDEST PUSH1 0x1 PUSH1 0x1 PUSH1 0x40 SHL SUB DUP2 DUP2 AND DUP4 DUP3 AND ADD SWAP1 DUP1 DUP3 GT ISZERO PUSH2 0x1B0A JUMPI PUSH2 0x1B0A PUSH2 0x215F JUMP JUMPDEST PUSH4 0x4E487B71 PUSH1 0xE0 SHL PUSH1 0x0 MSTORE PUSH1 0x31 PUSH1 0x4 MSTORE PUSH1 0x24 PUSH1 0x0 REVERT JUMPDEST PUSH1 0x0 DUP3 MLOAD PUSH2 0x2108 DUP2 DUP5 PUSH1 0x20 DUP8 ADD PUSH2 0x1CE6 JUMP JUMPDEST PUSH1 0x20 DUP2 MSTORE PUSH1 0x0 PUSH2 0x657 PUSH1 0x20 DUP4 ADD DUP5 PUSH2 0x1D0A JUMP JUMPDEST DUP2 DUP2 SUB PUSH2 0x254E JUMPI POP POP JUMP JUMPDEST PUSH2 0x2558 DUP3 SLOAD PUSH2 0x207A JUMP JUMPDEST PUSH1 0x1 PUSH1 0x1 PUSH1 0x40 SHL SUB DUP2 GT ISZERO PUSH2 0x256F JUMPI PUSH2 0x256F PUSH2 0x218E JUMP JUMPDEST PUSH2 0x2583 DUP2 PUSH2 0x257D DUP5 SLOAD PUSH2 0x207A JUMP JUMPDEST DUP5 PUSH2 0x2265 JUMP JUMPDEST PUSH1 0x0 PUSH1 0x1F DUP3 GT PUSH1 0x1 DUP2 EQ PUSH2 0x25B7 JUMPI PUSH1 0x0 DUP4 ISZERO PUSH2 0x259F JUMPI POP DUP5 DUP3 ADD SLOAD JUMPDEST PUSH1 0x0 NOT PUSH1 0x3 DUP6 SWAP1 SHL SHR NOT AND PUSH1 0x1 DUP5 SWAP1 SHL OR DUP5 SSTORE PUSH2 0x261C JUMP JUMPDEST PUSH1 0x0 DUP6 DUP2 MSTORE PUSH1 0x20 SWAP1 KECCAK256 PUSH1 0x1F NOT DUP5 AND SWAP1 PUSH1 0x0 DUP7 DUP2 MSTORE PUSH1 0x20 SWAP1 KECCAK256 DUP5 JUMPDEST DUP4 DUP2 LT ISZERO PUSH2 0x25F1 JUMPI DUP3 DUP7 ADD SLOAD DUP3 SSTORE PUSH1 0x1 SWAP6 DUP7 ADD SWAP6 SWAP1 SWAP2 ADD SWAP1 PUSH1 0x20 ADD PUSH2 0x25D1 JUMP JUMPDEST POP DUP6 DUP4 LT ISZERO PUSH2 0x260F JUMPI DUP2 DUP6 ADD SLOAD PUSH1 0x0 NOT PUSH1 0x3 DUP9 SWAP1 SHL PUSH1 0xF8 AND SHR NOT AND DUP2 SSTORE JUMPDEST POP POP POP PUSH1 0x1 DUP4 PUSH1 0x1 SHL ADD DUP5 SSTORE JUMPDEST POP POP POP POP POP JUMP INVALID LOG2 PUSH5 0x6970667358 0x22 SLT KECCAK256 PUSH8 0xDB76EEC3FC919029 OR MOD 0xD0 BYTE 0xEB SELFDESTRUCT PUSH22 0x5210BE034A97A46CBF685CF5F92D7F6D64736F6C6343 STOP ADDMOD GT STOP CALLER ","sha1":"0806e9884922ca4afbd885e8c0ce9d0134ceda07","source":"// SPDX-License-Identifier: GPL-3.0-or-later\npragma solidity 0.8.17;\n\nimport \"@openzeppelin/contracts/utils/Address.sol\";\n\nimport \"./SimpleAccessControl.sol\";\nimport \"../../interfaces/access/IGovernanceProxy.sol\";\n\ncontract GovernanceProxy is IGovernanceProxy, SimpleAccessControl {\n    using Address for address;\n\n    bytes32 public constant GOVERNANCE_ROLE = \"GOVERNANCE\";\n    bytes32 public constant VETO_ROLE = \"VETO\";\n\n    uint256 internal constant _MAX_DELAY = 14 days;\n\n    uint64 public nextChangeId;\n\n    /// @notice mapping from function selector to delay in seconds\n    /// NOTE: For simplicity, delays are only based on selectors and not on the\n    /// contract address, which means that if two functions in different\n    /// contracts have the exact same name and arguments, they will share the same delay\n    mapping(bytes4 => uint64) public override delays;\n\n    /// @dev array of pending changes to execute\n    /// We perform linear searches through this using the change ID, so in theory\n    /// this could run out of gas. However, in practice, the number of pending\n    /// changes should never become large enough for this to become an issue\n    Change[] internal pendingChanges;\n\n    /// @dev this is an array of all changes that have ended, regardless of their status\n    /// this is only used to make it easier to query but should not be used from within\n    /// any contract as the length is completely unbounded\n    Change[] internal endedChanges;\n\n    constructor(address governance, address veto) {\n        _grantRole(GOVERNANCE_ROLE, governance);\n        _grantRole(VETO_ROLE, veto);\n    }\n\n    /// @return change the pending change with the given id if found\n    /// this reverts if the change is not found\n    function getPendingChange(uint64 changeId) external view returns (Change memory change) {\n        (change, ) = _findPendingChange(changeId);\n    }\n\n    /// @return all the pending changes\n    /// this should typically be quite small so no need for pagination\n    function getPendingChanges() external view returns (Change[] memory) {\n        return pendingChanges;\n    }\n\n    /// @return total number of ended changes\n    function getEndedChangesCount() external view returns (uint256) {\n        return endedChanges.length;\n    }\n\n    /// @return all the ended changes\n    /// this can become large so `getEndedChanges(uint256 offset, uint256 n)`\n    /// is the preferred way to query\n    function getEndedChanges() external view returns (Change[] memory) {\n        return endedChanges;\n    }\n\n    /// @return `n` ended changes starting from offset\n    /// This is useful is you want to paginate through the changes\n    /// note that the changes are in chronological order of execution/cancelation\n    /// which means that it might be useful to start paginatign from the end of the array\n    function getEndedChanges(uint256 offset, uint256 n) external view returns (Change[] memory) {\n        Change[] memory paginated = new Change[](n);\n        for (uint256 i; i < n; i++) {\n            paginated[i] = endedChanges[offset + i];\n        }\n        return paginated;\n    }\n\n    /// @notice Requests a list of function calls to be executed as a change\n    /// @dev If the change requires no delay, it will be executed immediately\n    /// @param calls the calls to be executed\n    /// this should be fully encoded including the selectors and the abi-encoded arguments\n    /// Changes can only be requested by governance\n    function requestChange(Call[] calldata calls) external onlyRole(GOVERNANCE_ROLE) {\n        // Calculating the maximum delay for all calls\n        uint64 maxDelay;\n        for (uint256 i; i < calls.length; i++) {\n            uint64 delay = _computeDelay(calls[i].data);\n            if (delay > maxDelay) maxDelay = delay;\n        }\n\n        (Change storage change, uint256 index) = _requestChange(maxDelay, calls);\n\n        // If the change requires no delay, execute it immediately\n        if (maxDelay == 0) {\n            _executeChange(change, index);\n        }\n    }\n\n    /// @notice Executes a change\n    /// The deadline of the change must be past\n    /// Anyone can execute a pending change but in practice, this will be called by governance too\n    function executeChange(uint64 id) external {\n        (Change storage change, uint256 index) = _findPendingChange(id);\n        _executeChange(change, index);\n    }\n\n    /// @notice Cancels a pending change\n    /// Both governance and users having veto power can cancel a pending change\n    function cancelChange(uint64 id) external {\n        require(\n            hasRole(GOVERNANCE_ROLE, msg.sender) || hasRole(VETO_ROLE, msg.sender),\n            \"not authorized\"\n        );\n\n        (Change storage change, uint256 index) = _findPendingChange(id);\n        emit ChangeCanceled(id);\n        _endChange(change, index, Status.Canceled);\n    }\n\n    // the following functions should be called through `executeChange`\n\n    function updateDelay(bytes4 selector, uint64 delay) external override {\n        require(msg.sender == address(this), \"not authorized\");\n        require(delay <= _MAX_DELAY, \"delay too high\");\n        delays[selector] = delay;\n        emit DelayUpdated(selector, delay);\n    }\n\n    function grantRole(bytes32 role, address account) external override {\n        require(msg.sender == address(this), \"not authorized\");\n        require(role == GOVERNANCE_ROLE || role == VETO_ROLE, \"invalid role\");\n        _grantRole(role, account);\n    }\n\n    function revokeRole(bytes32 role, address account) external override {\n        require(msg.sender == address(this), \"not authorized\");\n        require(\n            role != GOVERNANCE_ROLE || getRoleMemberCount(role) > 1,\n            \"need at least one governor\"\n        );\n        _revokeRole(role, account);\n    }\n\n    // internal helpers\n\n    function _requestChange(\n        uint64 delay,\n        Call[] calldata calls\n    ) internal returns (Change storage change, uint256 index) {\n        uint64 id = nextChangeId++;\n        change = pendingChanges.push();\n        change.id = id;\n        change.requestedAt = uint64(block.timestamp);\n        change.endedAt = 0;\n        change.delay = delay;\n        change.status = Status.Pending;\n        for (uint256 i; i < calls.length; i++) {\n            change.calls.push(calls[i]);\n        }\n\n        index = pendingChanges.length - 1;\n\n        emit ChangeRequested(calls, delay, id);\n    }\n\n    function _executeChange(Change storage change, uint256 index) internal {\n        require(\n            change.requestedAt + change.delay <= block.timestamp,\n            \"deadline has not been reached\"\n        );\n        require(change.status == Status.Pending, \"change not pending\");\n\n        change.status = Status.Executing;\n\n        for (uint256 i; i < change.calls.length; i++) {\n            change.calls[i].target.functionCall(change.calls[i].data);\n        }\n\n        _endChange(change, index, Status.Executed);\n\n        emit ChangeExecuted(change.id);\n    }\n\n    function _endChange(Change storage change, uint256 index, Status status) internal {\n        change.status = status;\n        change.endedAt = uint64(block.timestamp);\n        endedChanges.push(change);\n        _removePendingChange(index);\n    }\n\n    function _removePendingChange(uint256 index) internal {\n        pendingChanges[index] = pendingChanges[pendingChanges.length - 1];\n        pendingChanges.pop();\n    }\n\n    function _findPendingChange(uint64 id) internal view returns (Change storage, uint256 index) {\n        for (uint256 i; i < pendingChanges.length; i++) {\n            if (pendingChanges[i].id == id) {\n                return (pendingChanges[i], i);\n            }\n        }\n        revert(\"change not found\");\n    }\n\n    function _computeDelay(bytes calldata data) internal view returns (uint64) {\n        bytes4 selector = bytes4(data[:4]);\n\n        // special case for `updateDelay`, we want to set the delay\n        // as the delay for the current function for which the delay\n        // will be changed, rather than a generic delay for `updateDelay` itself\n        // for all the other functions, we use their actual delay\n        if (selector == GovernanceProxy.updateDelay.selector) {\n            bytes memory callData = data[4:];\n            (selector, ) = abi.decode(callData, (bytes4, uint256));\n        }\n\n        return delays[selector];\n    }\n}\n","sourcePath":"contracts/access/GovernanceProxy.sol","type":"contract","deployment":{"address":"0x38A40942cB275D941309d5Af28b44d27576CdaAf","chainid":"1","blockHeight":19070045}}