{"abi":[{"inputs":[{"internalType":"contract IController","name":"_controller","type":"address"}],"stateMutability":"nonpayable","type":"constructor","name":"constructor"},{"inputs":[{"internalType":"address","name":"conicPool","type":"address"},{"internalType":"address","name":"pool","type":"address"}],"name":"claimEarnings","outputs":[],"stateMutability":"nonpayable","type":"function"},{"inputs":[{"internalType":"address","name":"conicPool","type":"address"},{"internalType":"address","name":"pool","type":"address"}],"name":"computePoolValueInUSD","outputs":[{"internalType":"uint256","name":"usdAmount","type":"uint256"}],"stateMutability":"view","type":"function"},{"inputs":[{"internalType":"address","name":"conicPool","type":"address"},{"internalType":"address","name":"pool","type":"address"},{"internalType":"enum IPoolAdapter.PriceMode","name":"priceMode","type":"uint8"}],"name":"computePoolValueInUSD","outputs":[{"internalType":"uint256","name":"usdAmount","type":"uint256"}],"stateMutability":"view","type":"function"},{"inputs":[{"internalType":"address","name":"conicPool","type":"address"},{"internalType":"address","name":"pool","type":"address"},{"internalType":"address","name":"underlying","type":"address"},{"internalType":"uint256","name":"underlyingPrice","type":"uint256"},{"internalType":"enum IPoolAdapter.PriceMode","name":"priceMode","type":"uint8"}],"name":"computePoolValueInUnderlying","outputs":[{"internalType":"uint256","name":"underlyingAmount","type":"uint256"}],"stateMutability":"view","type":"function"},{"inputs":[{"internalType":"address","name":"conicPool","type":"address"},{"internalType":"address","name":"pool","type":"address"},{"internalType":"address","name":"underlying","type":"address"},{"internalType":"uint256","name":"underlyingPrice","type":"uint256"}],"name":"computePoolValueInUnderlying","outputs":[{"internalType":"uint256","name":"underlyingAmount","type":"uint256"}],"stateMutability":"view","type":"function"},{"inputs":[],"name":"controller","outputs":[{"internalType":"contract IController","name":"","type":"address"}],"stateMutability":"view","type":"function"},{"inputs":[{"internalType":"address","name":"curvePool","type":"address"},{"internalType":"address","name":"underlying","type":"address"},{"internalType":"uint256","name":"underlyingAmount","type":"uint256"}],"name":"deposit","outputs":[],"stateMutability":"nonpayable","type":"function"},{"inputs":[{"internalType":"address","name":"pool","type":"address"}],"name":"executeSanityCheck","outputs":[],"stateMutability":"nonpayable","type":"function"},{"inputs":[{"internalType":"address","name":"pool","type":"address"}],"name":"getAllUnderlyingCoins","outputs":[{"internalType":"address[]","name":"","type":"address[]"}],"stateMutability":"view","type":"function"},{"inputs":[{"internalType":"address","name":"account","type":"address"},{"internalType":"address","name":"curvePool","type":"address"}],"name":"getCRVEarnedOnConvex","outputs":[{"internalType":"uint256","name":"","type":"uint256"}],"stateMutability":"view","type":"function"},{"inputs":[{"internalType":"address","name":"pool","type":"address"}],"name":"lpToken","outputs":[{"internalType":"address","name":"","type":"address"}],"stateMutability":"view","type":"function"},{"inputs":[{"internalType":"address","name":"pool","type":"address"},{"internalType":"address","name":"asset","type":"address"}],"name":"supportsAsset","outputs":[{"internalType":"bool","name":"","type":"bool"}],"stateMutability":"view","type":"function"},{"inputs":[{"internalType":"address","name":"pool","type":"address"}],"name":"updatePriceCache","outputs":[],"stateMutability":"nonpayable","type":"function"},{"inputs":[{"internalType":"address","name":"pool","type":"address"},{"internalType":"address","name":"underlying","type":"address"},{"internalType":"uint256","name":"underlyingAmount","type":"uint256"}],"name":"withdraw","outputs":[],"stateMutability":"nonpayable","type":"function"}],"bytecode":"60a060405234801561001057600080fd5b50604051611fd4380380611fd483398101604081905261002f91610040565b6001600160a01b0316608052610070565b60006020828403121561005257600080fd5b81516001600160a01b038116811461006957600080fd5b9392505050565b608051611ecb610109600039600081816102380152818161025e015281816104040152818161048a0152818161060c015281816106920152818161096b01528181610acf01528181610bc201528181610c1401528181610d0101528181610dfa01528181610ef201528181610fe801528181611191015281816112460152818161129b0152818161151f01526116820152611ecb6000f3fe608060405234801561001057600080fd5b50600436106100e95760003560e01c8063970de3811161008c578063d9caed1211610066578063d9caed12146101fa578063e155c0571461020d578063eb83075f14610220578063f77c47911461023357600080fd5b8063970de381146101b1578063a775e15e146101c4578063aa8b4fdc146101d757600080fd5b8063415ec73b116100c8578063415ec73b1461014b5780634a4293cb1461016057806376a562a4146101735780638340f5491461019e57600080fd5b80622708db146100ee5780630fee68b3146101175780633dfa59d114610138575b600080fd5b6101016100fc36600461190f565b61025a565b60405161010e919061192c565b60405180910390f35b61012a61012536600461198d565b610352565b60405190815260200161010e565b61012a6101463660046119f1565b6103eb565b61015e61015936600461190f565b610400565b005b61012a61016e366004611a2a565b610607565b61018661018136600461190f565b610967565b6040516001600160a01b03909116815260200161010e565b61015e6101ac366004611a71565b610a57565b61015e6101bf3660046119f1565b610c12565b61012a6101d23660046119f1565b610cfd565b6101ea6101e53660046119f1565b610df6565b604051901515815260200161010e565b61015e610208366004611a71565b610eee565b61015e61021b36600461190f565b611299565b61012a61022e366004611ab2565b611374565b6101867f000000000000000000000000000000000000000000000000000000000000000081565b60607f00000000000000000000000000000000000000000000000000000000000000006001600160a01b0316639f82b2176040518163ffffffff1660e01b8152600401602060405180830381865afa1580156102ba573d6000803e3d6000fd5b505050506040513d601f19601f820116820180604052508101906102de9190611b03565b604051622708db60e01b81526001600160a01b0384811660048301529190911690622708db90602401600060405180830381865afa158015610324573d6000803e3d6000fd5b505050506040513d6000823e601f3d908101601f1916820160405261034c9190810190611b41565b92915050565b600080846001600160a01b031663313ce5676040518163ffffffff1660e01b8152600401602060405180830381865afa158015610393573d6000803e3d6000fd5b505050506040513d601f19601f820116820180604052508101906103b79190611bfa565b905060006103c6888886610607565b90506103df6012836103d8848961138f565b91906113b2565b98975050505050505050565b60006103f983836000610607565b9392505050565b60007f00000000000000000000000000000000000000000000000000000000000000006001600160a01b0316639f82b2176040518163ffffffff1660e01b8152600401602060405180830381865afa158015610460573d6000803e3d6000fd5b505050506040513d601f19601f820116820180604052508101906104849190611b03565b905060007f00000000000000000000000000000000000000000000000000000000000000006001600160a01b0316632630c12f6040518163ffffffff1660e01b8152600401602060405180830381865afa1580156104e6573d6000803e3d6000fd5b505050506040513d601f19601f8201168201806040525081019061050a9190611b03565b604051631da958a960e21b81526001600160a01b0385811660048301529192506000918416906376a562a490602401602060405180830381865afa158015610556573d6000803e3d6000fd5b505050506040513d601f19601f8201168201806040525081019061057a9190611b03565b604051638b2f0f4f60e01b81526001600160a01b03808316600483015291925090831690638b2f0f4f90602401602060405180830381865afa1580156105c4573d6000803e3d6000fd5b505050506040513d601f19601f820116820180604052508101906105e89190611c1d565b6001600160a01b03909116600090815260208190526040902055505050565b6000807f00000000000000000000000000000000000000000000000000000000000000006001600160a01b0316632630c12f6040518163ffffffff1660e01b8152600401602060405180830381865afa158015610668573d6000803e3d6000fd5b505050506040513d601f19601f8201168201806040525081019061068c9190611b03565b905060007f00000000000000000000000000000000000000000000000000000000000000006001600160a01b0316639f82b2176040518163ffffffff1660e01b8152600401602060405180830381865afa1580156106ee573d6000803e3d6000fd5b505050506040513d601f19601f820116820180604052508101906107129190611b03565b604051631da958a960e21b81526001600160a01b03878116600483015291909116906376a562a490602401602060405180830381865afa15801561075a573d6000803e3d6000fd5b505050506040513d601f19601f8201168201806040525081019061077e9190611b03565b90506000816001600160a01b031663313ce5676040518163ffffffff1660e01b8152600401602060405180830381865afa1580156107c0573d6000803e3d6000fd5b505050506040513d601f19601f820116820180604052508101906107e49190611bfa565b905060006107f288886113f3565b905060008087600281111561080957610809611c36565b0361087f57604051638b2f0f4f60e01b81526001600160a01b038581166004830152861690638b2f0f4f90602401602060405180830381865afa158015610854573d6000803e3d6000fd5b505050506040513d601f19601f820116820180604052508101906108789190611c1d565b9050610944565b600187600281111561089357610893611c36565b036108b757506001600160a01b038316600090815260208190526040902054610944565b6001600160a01b0384811660008181526020819052604090819020549051638b2f0f4f60e01b8152600481019290925261094192909190881690638b2f0f4f90602401602060405180830381865afa158015610917573d6000803e3d6000fd5b505050506040513d601f19601f8201168201806040525081019061093b9190611c1d565b90611413565b90505b61095a81610954848660126113b2565b9061142a565b9998505050505050505050565b60007f00000000000000000000000000000000000000000000000000000000000000006001600160a01b0316639f82b2176040518163ffffffff1660e01b8152600401602060405180830381865afa1580156109c7573d6000803e3d6000fd5b505050506040513d601f19601f820116820180604052508101906109eb9190611b03565b604051631da958a960e21b81526001600160a01b03848116600483015291909116906376a562a490602401602060405180830381865afa158015610a33573d6000803e3d6000fd5b505050506040513d601f19601f8201168201806040525081019061034c9190611b03565b80600003610a6457505050565b6040516001600160a01b0380851660248301528316604482015260648101829052610b4a9060840160408051601f19818403018152918152602080830180516001600160e01b0316638340f54960e01b1790528151635a99191760e01b815291516001600160a01b037f00000000000000000000000000000000000000000000000000000000000000001692635a9919179260048083019391928290030181865afa158015610b17573d6000803e3d6000fd5b505050506040513d601f19601f82011682018060405250810190610b3b9190611b03565b6001600160a01b031690611442565b506000610b573085611467565b90508015610c0c576040516001600160a01b038516602482015260448101829052610c0a9060640160408051601f19818403018152918152602080830180516001600160e01b03166311f9fbc960e21b179052815163160a1d9760e31b815291516001600160a01b037f0000000000000000000000000000000000000000000000000000000000000000169263b050ecb89260048083019391928290030181865afa158015610b17573d6000803e3d6000fd5b505b50505050565b7f00000000000000000000000000000000000000000000000000000000000000006001600160a01b031663b050ecb86040518163ffffffff1660e01b8152600401602060405180830381865afa158015610c70573d6000803e3d6000fd5b505050506040513d601f19601f82011682018060405250810190610c949190611b03565b60405163970de38160e01b81526001600160a01b0383811660048301528481166024830152919091169063970de38190604401600060405180830381600087803b158015610ce157600080fd5b505af1158015610cf5573d6000803e3d6000fd5b505050505050565b60007f00000000000000000000000000000000000000000000000000000000000000006001600160a01b031663b050ecb86040518163ffffffff1660e01b8152600401602060405180830381865afa158015610d5d573d6000803e3d6000fd5b505050506040513d601f19601f82011682018060405250810190610d819190611b03565b60405163212f9b4f60e01b81526001600160a01b0385811660048301528481166024830152919091169063212f9b4f906044015b602060405180830381865afa158015610dd2573d6000803e3d6000fd5b505050506040513d601f19601f820116820180604052508101906103f99190611c1d565b60007f00000000000000000000000000000000000000000000000000000000000000006001600160a01b0316639f82b2176040518163ffffffff1660e01b8152600401602060405180830381865afa158015610e56573d6000803e3d6000fd5b505050506040513d601f19601f82011682018060405250810190610e7a9190611b03565b60405163effd708160e01b81526001600160a01b0385811660048301528481166024830152919091169063effd708190604401602060405180830381865afa158015610eca573d6000803e3d6000fd5b505050506040513d601f19601f820116820180604052508101906103f99190611c4c565b60007f00000000000000000000000000000000000000000000000000000000000000006001600160a01b0316639f82b2176040518163ffffffff1660e01b8152600401602060405180830381865afa158015610f4e573d6000803e3d6000fd5b505050506040513d601f19601f82011682018060405250810190610f729190611b03565b604051631da958a960e21b81526001600160a01b0386811660048301529192506000918316906376a562a490602401602060405180830381865afa158015610fbe573d6000803e3d6000fd5b505050506040513d601f19601f82011682018060405250810190610fe29190611b03565b905060007f00000000000000000000000000000000000000000000000000000000000000006001600160a01b0316632630c12f6040518163ffffffff1660e01b8152600401602060405180830381865afa158015611044573d6000803e3d6000fd5b505050506040513d601f19601f820116820180604052508101906110689190611b03565b604051633d23479160e01b81526001600160a01b0387811660048301528481166024830152604482018790529190911690633d23479190606401602060405180830381865afa1580156110bf573d6000803e3d6000fd5b505050506040513d601f19601f820116820180604052508101906110e39190611c1d565b9050806000036110f557505050505050565b600061110130886113f3565b9050600061110f308961151b565b90508282101561111d578192505b808311156111db576111d9886111338386611c84565b6040516001600160a01b039092166024830152604482015260640160408051601f19818403018152918152602080830180516001600160e01b031663f3fef3a360e01b179052815163160a1d9760e31b815291516001600160a01b037f0000000000000000000000000000000000000000000000000000000000000000169263b050ecb89260048083019391928290030181865afa158015610b17573d6000803e3d6000fd5b505b6040516001600160a01b03808a166024830152881660448201526064810184905261128e9060840160408051601f19818403018152918152602080830180516001600160e01b0316636ce5768960e11b1790528151635a99191760e01b815291516001600160a01b037f00000000000000000000000000000000000000000000000000000000000000001692635a9919179260048083019391928290030181865afa158015610b17573d6000803e3d6000fd5b505050505050505050565b7f00000000000000000000000000000000000000000000000000000000000000006001600160a01b0316635a9919176040518163ffffffff1660e01b8152600401602060405180830381865afa1580156112f7573d6000803e3d6000fd5b505050506040513d601f19601f8201168201806040525081019061131b9190611b03565b60405163af9fe9e560e01b81526001600160a01b038381166004830152919091169063af9fe9e590602401600060405180830381600087803b15801561136057600080fd5b505af1158015610c0a573d6000803e3d6000fd5b6000611384858585856000610352565b90505b949350505050565b60008161139e6012600a611d7b565b6113a89085611d87565b6103f99190611d9e565b60008160ff168360ff16036113c85750826103f9565b8160ff168360ff1611156113e8576113e184848461163b565b90506103f9565b61138784848461165c565b60006113ff838361151b565b611409848461167d565b6103f99190611dc0565b60008183111561142357816103f9565b5090919050565b60006114386012600a611d7b565b6113a88385611d87565b60606103f98383604051806060016040528060278152602001611e6f602791396117dc565b600080836001600160a01b031663a58f1d8e6040518163ffffffff1660e01b8152600401602060405180830381865afa1580156114a8573d6000803e3d6000fd5b505050506040513d601f19601f820116820180604052508101906114cc9190611c1d565b905060006114da858561151b565b90506000816114e9878761167d565b6114f39190611dc0565b905082611500838361138f565b1061150f5750915061034c9050565b50600095945050505050565b60007f00000000000000000000000000000000000000000000000000000000000000006001600160a01b0316639f82b2176040518163ffffffff1660e01b8152600401602060405180830381865afa15801561157b573d6000803e3d6000fd5b505050506040513d601f19601f8201168201806040525081019061159f9190611b03565b604051631da958a960e21b81526001600160a01b03848116600483015291909116906376a562a490602401602060405180830381865afa1580156115e7573d6000803e3d6000fd5b505050506040513d601f19601f8201168201806040525081019061160b9190611b03565b6040516370a0823160e01b81526001600160a01b03858116600483015291909116906370a0823190602401610db5565b60006116478284611dd3565b61165290600a611dec565b6113879085611d9e565b60006116688383611dd3565b61167390600a611dec565b6113879085611d87565b6000807f00000000000000000000000000000000000000000000000000000000000000006001600160a01b031663b050ecb86040518163ffffffff1660e01b8152600401602060405180830381865afa1580156116de573d6000803e3d6000fd5b505050506040513d601f19601f820116820180604052508101906117029190611b03565b60405163514a900960e01b81526001600160a01b038581166004830152919091169063514a900990602401602060405180830381865afa15801561174a573d6000803e3d6000fd5b505050506040513d601f19601f8201168201806040525081019061176e9190611b03565b6040516370a0823160e01b81526001600160a01b038681166004830152919250908216906370a0823190602401602060405180830381865afa1580156117b8573d6000803e3d6000fd5b505050506040513d601f19601f820116820180604052508101906113879190611c1d565b6060600080856001600160a01b0316856040516117f99190611e1f565b600060405180830381855af49150503d8060008114611834576040519150601f19603f3d011682016040523d82523d6000602084013e611839565b606091505b509150915061184a86838387611854565b9695505050505050565b606083156118c85782516000036118c1576001600160a01b0385163b6118c15760405162461bcd60e51b815260206004820152601d60248201527f416464726573733a2063616c6c20746f206e6f6e2d636f6e747261637400000060448201526064015b60405180910390fd5b5081611387565b61138783838151156118dd5781518083602001fd5b8060405162461bcd60e51b81526004016118b89190611e3b565b6001600160a01b038116811461190c57600080fd5b50565b60006020828403121561192157600080fd5b81356103f9816118f7565b6020808252825182820181905260009190848201906040850190845b8181101561196d5783516001600160a01b031683529284019291840191600101611948565b50909695505050505050565b80356003811061198857600080fd5b919050565b600080600080600060a086880312156119a557600080fd5b85356119b0816118f7565b945060208601356119c0816118f7565b935060408601356119d0816118f7565b9250606086013591506119e560808701611979565b90509295509295909350565b60008060408385031215611a0457600080fd5b8235611a0f816118f7565b91506020830135611a1f816118f7565b809150509250929050565b600080600060608486031215611a3f57600080fd5b8335611a4a816118f7565b92506020840135611a5a816118f7565b9150611a6860408501611979565b90509250925092565b600080600060608486031215611a8657600080fd5b8335611a91816118f7565b92506020840135611aa1816118f7565b929592945050506040919091013590565b60008060008060808587031215611ac857600080fd5b8435611ad3816118f7565b93506020850135611ae3816118f7565b92506040850135611af3816118f7565b9396929550929360600135925050565b600060208284031215611b1557600080fd5b81516103f9816118f7565b634e487b7160e01b600052604160045260246000fd5b8051611988816118f7565b60006020808385031215611b5457600080fd5b825167ffffffffffffffff80821115611b6c57600080fd5b818501915085601f830112611b8057600080fd5b815181811115611b9257611b92611b20565b8060051b604051601f19603f83011681018181108582111715611bb757611bb7611b20565b604052918252848201925083810185019188831115611bd557600080fd5b938501935b828510156103df57611beb85611b36565b84529385019392850192611bda565b600060208284031215611c0c57600080fd5b815160ff811681146103f957600080fd5b600060208284031215611c2f57600080fd5b5051919050565b634e487b7160e01b600052602160045260246000fd5b600060208284031215611c5e57600080fd5b815180151581146103f957600080fd5b634e487b7160e01b600052601160045260246000fd5b8181038181111561034c5761034c611c6e565b600181815b80851115611cd2578160001904821115611cb857611cb8611c6e565b80851615611cc557918102915b93841c9390800290611c9c565b509250929050565b600082611ce95750600161034c565b81611cf65750600061034c565b8160018114611d0c5760028114611d1657611d32565b600191505061034c565b60ff841115611d2757611d27611c6e565b50506001821b61034c565b5060208310610133831016604e8410600b8410161715611d55575081810a61034c565b611d5f8383611c97565b8060001904821115611d7357611d73611c6e565b029392505050565b60006103f98383611cda565b808202811582820484141761034c5761034c611c6e565b600082611dbb57634e487b7160e01b600052601260045260246000fd5b500490565b8082018082111561034c5761034c611c6e565b60ff828116828216039081111561034c5761034c611c6e565b60006103f960ff841683611cda565b60005b83811015611e16578181015183820152602001611dfe565b50506000910152565b60008251611e31818460208701611dfb565b9190910192915050565b6020815260008251806020840152611e5a816040850160208701611dfb565b601f01601f1916919091016040019291505056fe416464726573733a206c6f772d6c6576656c2064656c65676174652063616c6c206661696c6564a2646970667358221220ef8500c25713e345d1e720125f996e78fa95fdd149d0b8331eb87f8cfb62f82164736f6c63430008110033","bytecodeSha1":"7b846944d6a05233d26497a97444fe1dcec07bc4","compiler":{"evm_version":"london","optimizer":{"enabled":true,"runs":200},"version":"0.8.17+commit.8df45f5f"},"contractName":"CurveAdapter","language":"Solidity","natspec":{"kind":"dev","methods":{"claimEarnings(address,address)":{"notice":"Claim earnings of `conicPool` from `pool`"},"computePoolValueInUSD(address,address)":{"notice":"Returns the amount of of assets that `conicPool` holds in `pool`, in terms of USD"},"computePoolValueInUSD(address,address,uint8)":{"notice":"Returns the amount of of assets that `conicPool` holds in `pool`, in terms of USD using the given price mode"},"computePoolValueInUnderlying(address,address,address,uint256)":{"notice":"Returns the amount of of assets that `conicPool` holds in `pool`, in terms of underlying"},"computePoolValueInUnderlying(address,address,address,uint256,uint8)":{"notice":"Returns the amount of of assets that `conicPool` holds in `pool`, in terms of underlying using the given price mode"},"executeSanityCheck(address)":{"notice":"Executes a sanity check, e.g. checking for reentrancy"},"getAllUnderlyingCoins(address)":{"notice":"returns all the underlying coins of the pool"},"getCRVEarnedOnConvex(address,address)":{"notice":"Returns the amount of CRV earned by `pool` on Convex"},"lpToken(address)":{"notice":"Returns the LP token of a given `pool`"},"supportsAsset(address,address)":{"notice":"Returns true if `pool` supports `asset`"},"updatePriceCache(address)":{"notice":"Updates the price caches of the given pools"},"withdraw(address,address,uint256)":{"details":"This function should be written with the assumption that it will be delegate-called into","notice":"Withdraw `underlyingAmount` of `underlying` from `pool`"}},"stateVariables":{"_cachedPrices":{"details":"used to store the prices of the LP tokens"}},"version":1},"opcodes":"PUSH1 0x80 PUSH1 0x40 MSTORE CALLVALUE DUP1 ISZERO PUSH2 0x10 JUMPI PUSH1 0x0 DUP1 REVERT JUMPDEST POP PUSH1 0x4 CALLDATASIZE LT PUSH2 0xE9 JUMPI PUSH1 0x0 CALLDATALOAD PUSH1 0xE0 SHR DUP1 PUSH4 0x970DE381 GT PUSH2 0x8C JUMPI DUP1 PUSH4 0xD9CAED12 GT PUSH2 0x66 JUMPI DUP1 PUSH4 0xD9CAED12 EQ PUSH2 0x1FA JUMPI DUP1 PUSH4 0xE155C057 EQ PUSH2 0x20D JUMPI DUP1 PUSH4 0xEB83075F EQ PUSH2 0x220 JUMPI DUP1 PUSH4 0xF77C4791 EQ PUSH2 0x233 JUMPI PUSH1 0x0 DUP1 REVERT JUMPDEST DUP1 PUSH4 0x970DE381 EQ PUSH2 0x1B1 JUMPI DUP1 PUSH4 0xA775E15E EQ PUSH2 0x1C4 JUMPI DUP1 PUSH4 0xAA8B4FDC EQ PUSH2 0x1D7 JUMPI PUSH1 0x0 DUP1 REVERT JUMPDEST DUP1 PUSH4 0x415EC73B GT PUSH2 0xC8 JUMPI DUP1 PUSH4 0x415EC73B EQ PUSH2 0x14B JUMPI DUP1 PUSH4 0x4A4293CB EQ PUSH2 0x160 JUMPI DUP1 PUSH4 0x76A562A4 EQ PUSH2 0x173 JUMPI DUP1 PUSH4 0x8340F549 EQ PUSH2 0x19E JUMPI PUSH1 0x0 DUP1 REVERT JUMPDEST DUP1 PUSH3 0x2708DB EQ PUSH2 0xEE JUMPI DUP1 PUSH4 0xFEE68B3 EQ PUSH2 0x117 JUMPI DUP1 PUSH4 0x3DFA59D1 EQ PUSH2 0x138 JUMPI JUMPDEST PUSH1 0x0 DUP1 REVERT JUMPDEST PUSH2 0x101 PUSH2 0xFC CALLDATASIZE PUSH1 0x4 PUSH2 0x190F JUMP JUMPDEST PUSH2 0x25A JUMP JUMPDEST PUSH1 0x40 MLOAD PUSH2 0x10E SWAP2 SWAP1 PUSH2 0x192C JUMP JUMPDEST PUSH1 0x40 MLOAD DUP1 SWAP2 SUB SWAP1 RETURN JUMPDEST PUSH2 0x12A PUSH2 0x125 CALLDATASIZE PUSH1 0x4 PUSH2 0x198D JUMP JUMPDEST PUSH2 0x352 JUMP JUMPDEST PUSH1 0x40 MLOAD SWAP1 DUP2 MSTORE PUSH1 0x20 ADD PUSH2 0x10E JUMP JUMPDEST PUSH2 0x12A PUSH2 0x146 CALLDATASIZE PUSH1 0x4 PUSH2 0x19F1 JUMP JUMPDEST PUSH2 0x3EB JUMP JUMPDEST PUSH2 0x15E PUSH2 0x159 CALLDATASIZE PUSH1 0x4 PUSH2 0x190F JUMP JUMPDEST PUSH2 0x400 JUMP JUMPDEST STOP JUMPDEST PUSH2 0x12A PUSH2 0x16E CALLDATASIZE PUSH1 0x4 PUSH2 0x1A2A JUMP JUMPDEST PUSH2 0x607 JUMP JUMPDEST PUSH2 0x186 PUSH2 0x181 CALLDATASIZE PUSH1 0x4 PUSH2 0x190F JUMP JUMPDEST PUSH2 0x967 JUMP JUMPDEST PUSH1 0x40 MLOAD PUSH1 0x1 PUSH1 0x1 PUSH1 0xA0 SHL SUB SWAP1 SWAP2 AND DUP2 MSTORE PUSH1 0x20 ADD PUSH2 0x10E JUMP JUMPDEST PUSH2 0x15E PUSH2 0x1AC CALLDATASIZE PUSH1 0x4 PUSH2 0x1A71 JUMP JUMPDEST PUSH2 0xA57 JUMP JUMPDEST PUSH2 0x15E PUSH2 0x1BF CALLDATASIZE PUSH1 0x4 PUSH2 0x19F1 JUMP JUMPDEST PUSH2 0xC12 JUMP JUMPDEST PUSH2 0x12A PUSH2 0x1D2 CALLDATASIZE PUSH1 0x4 PUSH2 0x19F1 JUMP JUMPDEST PUSH2 0xCFD JUMP JUMPDEST PUSH2 0x1EA PUSH2 0x1E5 CALLDATASIZE PUSH1 0x4 PUSH2 0x19F1 JUMP JUMPDEST PUSH2 0xDF6 JUMP JUMPDEST PUSH1 0x40 MLOAD SWAP1 ISZERO ISZERO DUP2 MSTORE PUSH1 0x20 ADD PUSH2 0x10E JUMP JUMPDEST PUSH2 0x15E PUSH2 0x208 CALLDATASIZE PUSH1 0x4 PUSH2 0x1A71 JUMP JUMPDEST PUSH2 0xEEE JUMP JUMPDEST PUSH2 0x15E PUSH2 0x21B CALLDATASIZE PUSH1 0x4 PUSH2 0x190F JUMP JUMPDEST PUSH2 0x1299 JUMP JUMPDEST PUSH2 0x12A PUSH2 0x22E CALLDATASIZE PUSH1 0x4 PUSH2 0x1AB2 JUMP JUMPDEST PUSH2 0x1374 JUMP JUMPDEST PUSH2 0x186 PUSH32 0x0 DUP2 JUMP JUMPDEST PUSH1 0x60 PUSH32 0x0 PUSH1 0x1 PUSH1 0x1 PUSH1 0xA0 SHL SUB AND PUSH4 0x9F82B217 PUSH1 0x40 MLOAD DUP2 PUSH4 0xFFFFFFFF AND PUSH1 0xE0 SHL DUP2 MSTORE PUSH1 0x4 ADD PUSH1 0x20 PUSH1 0x40 MLOAD DUP1 DUP4 SUB DUP2 DUP7 GAS STATICCALL ISZERO DUP1 ISZERO PUSH2 0x2BA JUMPI RETURNDATASIZE PUSH1 0x0 DUP1 RETURNDATACOPY RETURNDATASIZE PUSH1 0x0 REVERT JUMPDEST POP POP POP POP PUSH1 0x40 MLOAD RETURNDATASIZE PUSH1 0x1F NOT PUSH1 0x1F DUP3 ADD AND DUP3 ADD DUP1 PUSH1 0x40 MSTORE POP DUP2 ADD SWAP1 PUSH2 0x2DE SWAP2 SWAP1 PUSH2 0x1B03 JUMP JUMPDEST PUSH1 0x40 MLOAD PUSH3 0x2708DB PUSH1 0xE0 SHL DUP2 MSTORE PUSH1 0x1 PUSH1 0x1 PUSH1 0xA0 SHL SUB DUP5 DUP2 AND PUSH1 0x4 DUP4 ADD MSTORE SWAP2 SWAP1 SWAP2 AND SWAP1 PUSH3 0x2708DB SWAP1 PUSH1 0x24 ADD PUSH1 0x0 PUSH1 0x40 MLOAD DUP1 DUP4 SUB DUP2 DUP7 GAS STATICCALL ISZERO DUP1 ISZERO PUSH2 0x324 JUMPI RETURNDATASIZE PUSH1 0x0 DUP1 RETURNDATACOPY RETURNDATASIZE PUSH1 0x0 REVERT JUMPDEST POP POP POP POP PUSH1 0x40 MLOAD RETURNDATASIZE PUSH1 0x0 DUP3 RETURNDATACOPY PUSH1 0x1F RETURNDATASIZE SWAP1 DUP2 ADD PUSH1 0x1F NOT AND DUP3 ADD PUSH1 0x40 MSTORE PUSH2 0x34C SWAP2 SWAP1 DUP2 ADD SWAP1 PUSH2 0x1B41 JUMP JUMPDEST SWAP3 SWAP2 POP POP JUMP JUMPDEST PUSH1 0x0 DUP1 DUP5 PUSH1 0x1 PUSH1 0x1 PUSH1 0xA0 SHL SUB AND PUSH4 0x313CE567 PUSH1 0x40 MLOAD DUP2 PUSH4 0xFFFFFFFF AND PUSH1 0xE0 SHL DUP2 MSTORE PUSH1 0x4 ADD PUSH1 0x20 PUSH1 0x40 MLOAD DUP1 DUP4 SUB DUP2 DUP7 GAS STATICCALL ISZERO DUP1 ISZERO PUSH2 0x393 JUMPI RETURNDATASIZE PUSH1 0x0 DUP1 RETURNDATACOPY RETURNDATASIZE PUSH1 0x0 REVERT JUMPDEST POP POP POP POP PUSH1 0x40 MLOAD RETURNDATASIZE PUSH1 0x1F NOT PUSH1 0x1F DUP3 ADD AND DUP3 ADD DUP1 PUSH1 0x40 MSTORE POP DUP2 ADD SWAP1 PUSH2 0x3B7 SWAP2 SWAP1 PUSH2 0x1BFA JUMP JUMPDEST SWAP1 POP PUSH1 0x0 PUSH2 0x3C6 DUP9 DUP9 DUP7 PUSH2 0x607 JUMP JUMPDEST SWAP1 POP PUSH2 0x3DF PUSH1 0x12 DUP4 PUSH2 0x3D8 DUP5 DUP10 PUSH2 0x138F JUMP JUMPDEST SWAP2 SWAP1 PUSH2 0x13B2 JUMP JUMPDEST SWAP9 SWAP8 POP POP POP POP POP POP POP POP JUMP JUMPDEST PUSH1 0x0 PUSH2 0x3F9 DUP4 DUP4 PUSH1 0x0 PUSH2 0x607 JUMP JUMPDEST SWAP4 SWAP3 POP POP POP JUMP JUMPDEST PUSH1 0x0 PUSH32 0x0 PUSH1 0x1 PUSH1 0x1 PUSH1 0xA0 SHL SUB AND PUSH4 0x9F82B217 PUSH1 0x40 MLOAD DUP2 PUSH4 0xFFFFFFFF AND PUSH1 0xE0 SHL DUP2 MSTORE PUSH1 0x4 ADD PUSH1 0x20 PUSH1 0x40 MLOAD DUP1 DUP4 SUB DUP2 DUP7 GAS STATICCALL ISZERO DUP1 ISZERO PUSH2 0x460 JUMPI RETURNDATASIZE PUSH1 0x0 DUP1 RETURNDATACOPY RETURNDATASIZE PUSH1 0x0 REVERT JUMPDEST POP POP POP POP PUSH1 0x40 MLOAD RETURNDATASIZE PUSH1 0x1F NOT PUSH1 0x1F DUP3 ADD AND DUP3 ADD DUP1 PUSH1 0x40 MSTORE POP DUP2 ADD SWAP1 PUSH2 0x484 SWAP2 SWAP1 PUSH2 0x1B03 JUMP JUMPDEST SWAP1 POP PUSH1 0x0 PUSH32 0x0 PUSH1 0x1 PUSH1 0x1 PUSH1 0xA0 SHL SUB AND PUSH4 0x2630C12F PUSH1 0x40 MLOAD DUP2 PUSH4 0xFFFFFFFF AND PUSH1 0xE0 SHL DUP2 MSTORE PUSH1 0x4 ADD PUSH1 0x20 PUSH1 0x40 MLOAD DUP1 DUP4 SUB DUP2 DUP7 GAS STATICCALL ISZERO DUP1 ISZERO PUSH2 0x4E6 JUMPI RETURNDATASIZE PUSH1 0x0 DUP1 RETURNDATACOPY RETURNDATASIZE PUSH1 0x0 REVERT JUMPDEST POP POP POP POP PUSH1 0x40 MLOAD RETURNDATASIZE PUSH1 0x1F NOT PUSH1 0x1F DUP3 ADD AND DUP3 ADD DUP1 PUSH1 0x40 MSTORE POP DUP2 ADD SWAP1 PUSH2 0x50A SWAP2 SWAP1 PUSH2 0x1B03 JUMP JUMPDEST PUSH1 0x40 MLOAD PUSH4 0x1DA958A9 PUSH1 0xE2 SHL DUP2 MSTORE PUSH1 0x1 PUSH1 0x1 PUSH1 0xA0 SHL SUB DUP6 DUP2 AND PUSH1 0x4 DUP4 ADD MSTORE SWAP2 SWAP3 POP PUSH1 0x0 SWAP2 DUP5 AND SWAP1 PUSH4 0x76A562A4 SWAP1 PUSH1 0x24 ADD PUSH1 0x20 PUSH1 0x40 MLOAD DUP1 DUP4 SUB DUP2 DUP7 GAS STATICCALL ISZERO DUP1 ISZERO PUSH2 0x556 JUMPI RETURNDATASIZE PUSH1 0x0 DUP1 RETURNDATACOPY RETURNDATASIZE PUSH1 0x0 REVERT JUMPDEST POP POP POP POP PUSH1 0x40 MLOAD RETURNDATASIZE PUSH1 0x1F NOT PUSH1 0x1F DUP3 ADD AND DUP3 ADD DUP1 PUSH1 0x40 MSTORE POP DUP2 ADD SWAP1 PUSH2 0x57A SWAP2 SWAP1 PUSH2 0x1B03 JUMP JUMPDEST PUSH1 0x40 MLOAD PUSH4 0x8B2F0F4F PUSH1 0xE0 SHL DUP2 MSTORE PUSH1 0x1 PUSH1 0x1 PUSH1 0xA0 SHL SUB DUP1 DUP4 AND PUSH1 0x4 DUP4 ADD MSTORE SWAP2 SWAP3 POP SWAP1 DUP4 AND SWAP1 PUSH4 0x8B2F0F4F SWAP1 PUSH1 0x24 ADD PUSH1 0x20 PUSH1 0x40 MLOAD DUP1 DUP4 SUB DUP2 DUP7 GAS STATICCALL ISZERO DUP1 ISZERO PUSH2 0x5C4 JUMPI RETURNDATASIZE PUSH1 0x0 DUP1 RETURNDATACOPY RETURNDATASIZE PUSH1 0x0 REVERT JUMPDEST POP POP POP POP PUSH1 0x40 MLOAD RETURNDATASIZE PUSH1 0x1F NOT PUSH1 0x1F DUP3 ADD AND DUP3 ADD DUP1 PUSH1 0x40 MSTORE POP DUP2 ADD SWAP1 PUSH2 0x5E8 SWAP2 SWAP1 PUSH2 0x1C1D JUMP JUMPDEST PUSH1 0x1 PUSH1 0x1 PUSH1 0xA0 SHL SUB SWAP1 SWAP2 AND PUSH1 0x0 SWAP1 DUP2 MSTORE PUSH1 0x20 DUP2 SWAP1 MSTORE PUSH1 0x40 SWAP1 KECCAK256 SSTORE POP POP POP JUMP JUMPDEST PUSH1 0x0 DUP1 PUSH32 0x0 PUSH1 0x1 PUSH1 0x1 PUSH1 0xA0 SHL SUB AND PUSH4 0x2630C12F PUSH1 0x40 MLOAD DUP2 PUSH4 0xFFFFFFFF AND PUSH1 0xE0 SHL DUP2 MSTORE PUSH1 0x4 ADD PUSH1 0x20 PUSH1 0x40 MLOAD DUP1 DUP4 SUB DUP2 DUP7 GAS STATICCALL ISZERO DUP1 ISZERO PUSH2 0x668 JUMPI RETURNDATASIZE PUSH1 0x0 DUP1 RETURNDATACOPY RETURNDATASIZE PUSH1 0x0 REVERT JUMPDEST POP POP POP POP PUSH1 0x40 MLOAD RETURNDATASIZE PUSH1 0x1F NOT PUSH1 0x1F DUP3 ADD AND DUP3 ADD DUP1 PUSH1 0x40 MSTORE POP DUP2 ADD SWAP1 PUSH2 0x68C SWAP2 SWAP1 PUSH2 0x1B03 JUMP JUMPDEST SWAP1 POP PUSH1 0x0 PUSH32 0x0 PUSH1 0x1 PUSH1 0x1 PUSH1 0xA0 SHL SUB AND PUSH4 0x9F82B217 PUSH1 0x40 MLOAD DUP2 PUSH4 0xFFFFFFFF AND PUSH1 0xE0 SHL DUP2 MSTORE PUSH1 0x4 ADD PUSH1 0x20 PUSH1 0x40 MLOAD DUP1 DUP4 SUB DUP2 DUP7 GAS STATICCALL ISZERO DUP1 ISZERO PUSH2 0x6EE JUMPI RETURNDATASIZE PUSH1 0x0 DUP1 RETURNDATACOPY RETURNDATASIZE PUSH1 0x0 REVERT JUMPDEST POP POP POP POP PUSH1 0x40 MLOAD RETURNDATASIZE PUSH1 0x1F NOT PUSH1 0x1F DUP3 ADD AND DUP3 ADD DUP1 PUSH1 0x40 MSTORE POP DUP2 ADD SWAP1 PUSH2 0x712 SWAP2 SWAP1 PUSH2 0x1B03 JUMP JUMPDEST PUSH1 0x40 MLOAD PUSH4 0x1DA958A9 PUSH1 0xE2 SHL DUP2 MSTORE PUSH1 0x1 PUSH1 0x1 PUSH1 0xA0 SHL SUB DUP8 DUP2 AND PUSH1 0x4 DUP4 ADD MSTORE SWAP2 SWAP1 SWAP2 AND SWAP1 PUSH4 0x76A562A4 SWAP1 PUSH1 0x24 ADD PUSH1 0x20 PUSH1 0x40 MLOAD DUP1 DUP4 SUB DUP2 DUP7 GAS STATICCALL ISZERO DUP1 ISZERO PUSH2 0x75A JUMPI RETURNDATASIZE PUSH1 0x0 DUP1 RETURNDATACOPY RETURNDATASIZE PUSH1 0x0 REVERT JUMPDEST POP POP POP POP PUSH1 0x40 MLOAD RETURNDATASIZE PUSH1 0x1F NOT PUSH1 0x1F DUP3 ADD AND DUP3 ADD DUP1 PUSH1 0x40 MSTORE POP DUP2 ADD SWAP1 PUSH2 0x77E SWAP2 SWAP1 PUSH2 0x1B03 JUMP JUMPDEST SWAP1 POP PUSH1 0x0 DUP2 PUSH1 0x1 PUSH1 0x1 PUSH1 0xA0 SHL SUB AND PUSH4 0x313CE567 PUSH1 0x40 MLOAD DUP2 PUSH4 0xFFFFFFFF AND PUSH1 0xE0 SHL DUP2 MSTORE PUSH1 0x4 ADD PUSH1 0x20 PUSH1 0x40 MLOAD DUP1 DUP4 SUB DUP2 DUP7 GAS STATICCALL ISZERO DUP1 ISZERO PUSH2 0x7C0 JUMPI RETURNDATASIZE PUSH1 0x0 DUP1 RETURNDATACOPY RETURNDATASIZE PUSH1 0x0 REVERT JUMPDEST POP POP POP POP PUSH1 0x40 MLOAD RETURNDATASIZE PUSH1 0x1F NOT PUSH1 0x1F DUP3 ADD AND DUP3 ADD DUP1 PUSH1 0x40 MSTORE POP DUP2 ADD SWAP1 PUSH2 0x7E4 SWAP2 SWAP1 PUSH2 0x1BFA JUMP JUMPDEST SWAP1 POP PUSH1 0x0 PUSH2 0x7F2 DUP9 DUP9 PUSH2 0x13F3 JUMP JUMPDEST SWAP1 POP PUSH1 0x0 DUP1 DUP8 PUSH1 0x2 DUP2 GT ISZERO PUSH2 0x809 JUMPI PUSH2 0x809 PUSH2 0x1C36 JUMP JUMPDEST SUB PUSH2 0x87F JUMPI PUSH1 0x40 MLOAD PUSH4 0x8B2F0F4F PUSH1 0xE0 SHL DUP2 MSTORE PUSH1 0x1 PUSH1 0x1 PUSH1 0xA0 SHL SUB DUP6 DUP2 AND PUSH1 0x4 DUP4 ADD MSTORE DUP7 AND SWAP1 PUSH4 0x8B2F0F4F SWAP1 PUSH1 0x24 ADD PUSH1 0x20 PUSH1 0x40 MLOAD DUP1 DUP4 SUB DUP2 DUP7 GAS STATICCALL ISZERO DUP1 ISZERO PUSH2 0x854 JUMPI RETURNDATASIZE PUSH1 0x0 DUP1 RETURNDATACOPY RETURNDATASIZE PUSH1 0x0 REVERT JUMPDEST POP POP POP POP PUSH1 0x40 MLOAD RETURNDATASIZE PUSH1 0x1F NOT PUSH1 0x1F DUP3 ADD AND DUP3 ADD DUP1 PUSH1 0x40 MSTORE POP DUP2 ADD SWAP1 PUSH2 0x878 SWAP2 SWAP1 PUSH2 0x1C1D JUMP JUMPDEST SWAP1 POP PUSH2 0x944 JUMP JUMPDEST PUSH1 0x1 DUP8 PUSH1 0x2 DUP2 GT ISZERO PUSH2 0x893 JUMPI PUSH2 0x893 PUSH2 0x1C36 JUMP JUMPDEST SUB PUSH2 0x8B7 JUMPI POP PUSH1 0x1 PUSH1 0x1 PUSH1 0xA0 SHL SUB DUP4 AND PUSH1 0x0 SWAP1 DUP2 MSTORE PUSH1 0x20 DUP2 SWAP1 MSTORE PUSH1 0x40 SWAP1 KECCAK256 SLOAD PUSH2 0x944 JUMP JUMPDEST PUSH1 0x1 PUSH1 0x1 PUSH1 0xA0 SHL SUB DUP5 DUP2 AND PUSH1 0x0 DUP2 DUP2 MSTORE PUSH1 0x20 DUP2 SWAP1 MSTORE PUSH1 0x40 SWAP1 DUP2 SWAP1 KECCAK256 SLOAD SWAP1 MLOAD PUSH4 0x8B2F0F4F PUSH1 0xE0 SHL DUP2 MSTORE PUSH1 0x4 DUP2 ADD SWAP3 SWAP1 SWAP3 MSTORE PUSH2 0x941 SWAP3 SWAP1 SWAP2 SWAP1 DUP9 AND SWAP1 PUSH4 0x8B2F0F4F SWAP1 PUSH1 0x24 ADD PUSH1 0x20 PUSH1 0x40 MLOAD DUP1 DUP4 SUB DUP2 DUP7 GAS STATICCALL ISZERO DUP1 ISZERO PUSH2 0x917 JUMPI RETURNDATASIZE PUSH1 0x0 DUP1 RETURNDATACOPY RETURNDATASIZE PUSH1 0x0 REVERT JUMPDEST POP POP POP POP PUSH1 0x40 MLOAD RETURNDATASIZE PUSH1 0x1F NOT PUSH1 0x1F DUP3 ADD AND DUP3 ADD DUP1 PUSH1 0x40 MSTORE POP DUP2 ADD SWAP1 PUSH2 0x93B SWAP2 SWAP1 PUSH2 0x1C1D JUMP JUMPDEST SWAP1 PUSH2 0x1413 JUMP JUMPDEST SWAP1 POP JUMPDEST PUSH2 0x95A DUP2 PUSH2 0x954 DUP5 DUP7 PUSH1 0x12 PUSH2 0x13B2 JUMP JUMPDEST SWAP1 PUSH2 0x142A JUMP JUMPDEST SWAP10 SWAP9 POP POP POP POP POP POP POP POP POP JUMP JUMPDEST PUSH1 0x0 PUSH32 0x0 PUSH1 0x1 PUSH1 0x1 PUSH1 0xA0 SHL SUB AND PUSH4 0x9F82B217 PUSH1 0x40 MLOAD DUP2 PUSH4 0xFFFFFFFF AND PUSH1 0xE0 SHL DUP2 MSTORE PUSH1 0x4 ADD PUSH1 0x20 PUSH1 0x40 MLOAD DUP1 DUP4 SUB DUP2 DUP7 GAS STATICCALL ISZERO DUP1 ISZERO PUSH2 0x9C7 JUMPI RETURNDATASIZE PUSH1 0x0 DUP1 RETURNDATACOPY RETURNDATASIZE PUSH1 0x0 REVERT JUMPDEST POP POP POP POP PUSH1 0x40 MLOAD RETURNDATASIZE PUSH1 0x1F NOT PUSH1 0x1F DUP3 ADD AND DUP3 ADD DUP1 PUSH1 0x40 MSTORE POP DUP2 ADD SWAP1 PUSH2 0x9EB SWAP2 SWAP1 PUSH2 0x1B03 JUMP JUMPDEST PUSH1 0x40 MLOAD PUSH4 0x1DA958A9 PUSH1 0xE2 SHL DUP2 MSTORE PUSH1 0x1 PUSH1 0x1 PUSH1 0xA0 SHL SUB DUP5 DUP2 AND PUSH1 0x4 DUP4 ADD MSTORE SWAP2 SWAP1 SWAP2 AND SWAP1 PUSH4 0x76A562A4 SWAP1 PUSH1 0x24 ADD PUSH1 0x20 PUSH1 0x40 MLOAD DUP1 DUP4 SUB DUP2 DUP7 GAS STATICCALL ISZERO DUP1 ISZERO PUSH2 0xA33 JUMPI RETURNDATASIZE PUSH1 0x0 DUP1 RETURNDATACOPY RETURNDATASIZE PUSH1 0x0 REVERT JUMPDEST POP POP POP POP PUSH1 0x40 MLOAD RETURNDATASIZE PUSH1 0x1F NOT PUSH1 0x1F DUP3 ADD AND DUP3 ADD DUP1 PUSH1 0x40 MSTORE POP DUP2 ADD SWAP1 PUSH2 0x34C SWAP2 SWAP1 PUSH2 0x1B03 JUMP JUMPDEST DUP1 PUSH1 0x0 SUB PUSH2 0xA64 JUMPI POP POP POP JUMP JUMPDEST PUSH1 0x40 MLOAD PUSH1 0x1 PUSH1 0x1 PUSH1 0xA0 SHL SUB DUP1 DUP6 AND PUSH1 0x24 DUP4 ADD MSTORE DUP4 AND PUSH1 0x44 DUP3 ADD MSTORE PUSH1 0x64 DUP2 ADD DUP3 SWAP1 MSTORE PUSH2 0xB4A SWAP1 PUSH1 0x84 ADD PUSH1 0x40 DUP1 MLOAD PUSH1 0x1F NOT DUP2 DUP5 SUB ADD DUP2 MSTORE SWAP2 DUP2 MSTORE PUSH1 0x20 DUP1 DUP4 ADD DUP1 MLOAD PUSH1 0x1 PUSH1 0x1 PUSH1 0xE0 SHL SUB AND PUSH4 0x8340F549 PUSH1 0xE0 SHL OR SWAP1 MSTORE DUP2 MLOAD PUSH4 0x5A991917 PUSH1 0xE0 SHL DUP2 MSTORE SWAP2 MLOAD PUSH1 0x1 PUSH1 0x1 PUSH1 0xA0 SHL SUB PUSH32 0x0 AND SWAP3 PUSH4 0x5A991917 SWAP3 PUSH1 0x4 DUP1 DUP4 ADD SWAP4 SWAP2 SWAP3 DUP3 SWAP1 SUB ADD DUP2 DUP7 GAS STATICCALL ISZERO DUP1 ISZERO PUSH2 0xB17 JUMPI RETURNDATASIZE PUSH1 0x0 DUP1 RETURNDATACOPY RETURNDATASIZE PUSH1 0x0 REVERT JUMPDEST POP POP POP POP PUSH1 0x40 MLOAD RETURNDATASIZE PUSH1 0x1F NOT PUSH1 0x1F DUP3 ADD AND DUP3 ADD DUP1 PUSH1 0x40 MSTORE POP DUP2 ADD SWAP1 PUSH2 0xB3B SWAP2 SWAP1 PUSH2 0x1B03 JUMP JUMPDEST PUSH1 0x1 PUSH1 0x1 PUSH1 0xA0 SHL SUB AND SWAP1 PUSH2 0x1442 JUMP JUMPDEST POP PUSH1 0x0 PUSH2 0xB57 ADDRESS DUP6 PUSH2 0x1467 JUMP JUMPDEST SWAP1 POP DUP1 ISZERO PUSH2 0xC0C JUMPI PUSH1 0x40 MLOAD PUSH1 0x1 PUSH1 0x1 PUSH1 0xA0 SHL SUB DUP6 AND PUSH1 0x24 DUP3 ADD MSTORE PUSH1 0x44 DUP2 ADD DUP3 SWAP1 MSTORE PUSH2 0xC0A SWAP1 PUSH1 0x64 ADD PUSH1 0x40 DUP1 MLOAD PUSH1 0x1F NOT DUP2 DUP5 SUB ADD DUP2 MSTORE SWAP2 DUP2 MSTORE PUSH1 0x20 DUP1 DUP4 ADD DUP1 MLOAD PUSH1 0x1 PUSH1 0x1 PUSH1 0xE0 SHL SUB AND PUSH4 0x11F9FBC9 PUSH1 0xE2 SHL OR SWAP1 MSTORE DUP2 MLOAD PUSH4 0x160A1D97 PUSH1 0xE3 SHL DUP2 MSTORE SWAP2 MLOAD PUSH1 0x1 PUSH1 0x1 PUSH1 0xA0 SHL SUB PUSH32 0x0 AND SWAP3 PUSH4 0xB050ECB8 SWAP3 PUSH1 0x4 DUP1 DUP4 ADD SWAP4 SWAP2 SWAP3 DUP3 SWAP1 SUB ADD DUP2 DUP7 GAS STATICCALL ISZERO DUP1 ISZERO PUSH2 0xB17 JUMPI RETURNDATASIZE PUSH1 0x0 DUP1 RETURNDATACOPY RETURNDATASIZE PUSH1 0x0 REVERT JUMPDEST POP JUMPDEST POP POP POP POP JUMP JUMPDEST PUSH32 0x0 PUSH1 0x1 PUSH1 0x1 PUSH1 0xA0 SHL SUB AND PUSH4 0xB050ECB8 PUSH1 0x40 MLOAD DUP2 PUSH4 0xFFFFFFFF AND PUSH1 0xE0 SHL DUP2 MSTORE PUSH1 0x4 ADD PUSH1 0x20 PUSH1 0x40 MLOAD DUP1 DUP4 SUB DUP2 DUP7 GAS STATICCALL ISZERO DUP1 ISZERO PUSH2 0xC70 JUMPI RETURNDATASIZE PUSH1 0x0 DUP1 RETURNDATACOPY RETURNDATASIZE PUSH1 0x0 REVERT JUMPDEST POP POP POP POP PUSH1 0x40 MLOAD RETURNDATASIZE PUSH1 0x1F NOT PUSH1 0x1F DUP3 ADD AND DUP3 ADD DUP1 PUSH1 0x40 MSTORE POP DUP2 ADD SWAP1 PUSH2 0xC94 SWAP2 SWAP1 PUSH2 0x1B03 JUMP JUMPDEST PUSH1 0x40 MLOAD PUSH4 0x970DE381 PUSH1 0xE0 SHL DUP2 MSTORE PUSH1 0x1 PUSH1 0x1 PUSH1 0xA0 SHL SUB DUP4 DUP2 AND PUSH1 0x4 DUP4 ADD MSTORE DUP5 DUP2 AND PUSH1 0x24 DUP4 ADD MSTORE SWAP2 SWAP1 SWAP2 AND SWAP1 PUSH4 0x970DE381 SWAP1 PUSH1 0x44 ADD PUSH1 0x0 PUSH1 0x40 MLOAD DUP1 DUP4 SUB DUP2 PUSH1 0x0 DUP8 DUP1 EXTCODESIZE ISZERO DUP1 ISZERO PUSH2 0xCE1 JUMPI PUSH1 0x0 DUP1 REVERT JUMPDEST POP GAS CALL ISZERO DUP1 ISZERO PUSH2 0xCF5 JUMPI RETURNDATASIZE PUSH1 0x0 DUP1 RETURNDATACOPY RETURNDATASIZE PUSH1 0x0 REVERT JUMPDEST POP POP POP POP POP POP JUMP JUMPDEST PUSH1 0x0 PUSH32 0x0 PUSH1 0x1 PUSH1 0x1 PUSH1 0xA0 SHL SUB AND PUSH4 0xB050ECB8 PUSH1 0x40 MLOAD DUP2 PUSH4 0xFFFFFFFF AND PUSH1 0xE0 SHL DUP2 MSTORE PUSH1 0x4 ADD PUSH1 0x20 PUSH1 0x40 MLOAD DUP1 DUP4 SUB DUP2 DUP7 GAS STATICCALL ISZERO DUP1 ISZERO PUSH2 0xD5D JUMPI RETURNDATASIZE PUSH1 0x0 DUP1 RETURNDATACOPY RETURNDATASIZE PUSH1 0x0 REVERT JUMPDEST POP POP POP POP PUSH1 0x40 MLOAD RETURNDATASIZE PUSH1 0x1F NOT PUSH1 0x1F DUP3 ADD AND DUP3 ADD DUP1 PUSH1 0x40 MSTORE POP DUP2 ADD SWAP1 PUSH2 0xD81 SWAP2 SWAP1 PUSH2 0x1B03 JUMP JUMPDEST PUSH1 0x40 MLOAD PUSH4 0x212F9B4F PUSH1 0xE0 SHL DUP2 MSTORE PUSH1 0x1 PUSH1 0x1 PUSH1 0xA0 SHL SUB DUP6 DUP2 AND PUSH1 0x4 DUP4 ADD MSTORE DUP5 DUP2 AND PUSH1 0x24 DUP4 ADD MSTORE SWAP2 SWAP1 SWAP2 AND SWAP1 PUSH4 0x212F9B4F SWAP1 PUSH1 0x44 ADD JUMPDEST PUSH1 0x20 PUSH1 0x40 MLOAD DUP1 DUP4 SUB DUP2 DUP7 GAS STATICCALL ISZERO DUP1 ISZERO PUSH2 0xDD2 JUMPI RETURNDATASIZE PUSH1 0x0 DUP1 RETURNDATACOPY RETURNDATASIZE PUSH1 0x0 REVERT JUMPDEST POP POP POP POP PUSH1 0x40 MLOAD RETURNDATASIZE PUSH1 0x1F NOT PUSH1 0x1F DUP3 ADD AND DUP3 ADD DUP1 PUSH1 0x40 MSTORE POP DUP2 ADD SWAP1 PUSH2 0x3F9 SWAP2 SWAP1 PUSH2 0x1C1D JUMP JUMPDEST PUSH1 0x0 PUSH32 0x0 PUSH1 0x1 PUSH1 0x1 PUSH1 0xA0 SHL SUB AND PUSH4 0x9F82B217 PUSH1 0x40 MLOAD DUP2 PUSH4 0xFFFFFFFF AND PUSH1 0xE0 SHL DUP2 MSTORE PUSH1 0x4 ADD PUSH1 0x20 PUSH1 0x40 MLOAD DUP1 DUP4 SUB DUP2 DUP7 GAS STATICCALL ISZERO DUP1 ISZERO PUSH2 0xE56 JUMPI RETURNDATASIZE PUSH1 0x0 DUP1 RETURNDATACOPY RETURNDATASIZE PUSH1 0x0 REVERT JUMPDEST POP POP POP POP PUSH1 0x40 MLOAD RETURNDATASIZE PUSH1 0x1F NOT PUSH1 0x1F DUP3 ADD AND DUP3 ADD DUP1 PUSH1 0x40 MSTORE POP DUP2 ADD SWAP1 PUSH2 0xE7A SWAP2 SWAP1 PUSH2 0x1B03 JUMP JUMPDEST PUSH1 0x40 MLOAD PUSH4 0xEFFD7081 PUSH1 0xE0 SHL DUP2 MSTORE PUSH1 0x1 PUSH1 0x1 PUSH1 0xA0 SHL SUB DUP6 DUP2 AND PUSH1 0x4 DUP4 ADD MSTORE DUP5 DUP2 AND PUSH1 0x24 DUP4 ADD MSTORE SWAP2 SWAP1 SWAP2 AND SWAP1 PUSH4 0xEFFD7081 SWAP1 PUSH1 0x44 ADD PUSH1 0x20 PUSH1 0x40 MLOAD DUP1 DUP4 SUB DUP2 DUP7 GAS STATICCALL ISZERO DUP1 ISZERO PUSH2 0xECA JUMPI RETURNDATASIZE PUSH1 0x0 DUP1 RETURNDATACOPY RETURNDATASIZE PUSH1 0x0 REVERT JUMPDEST POP POP POP POP PUSH1 0x40 MLOAD RETURNDATASIZE PUSH1 0x1F NOT PUSH1 0x1F DUP3 ADD AND DUP3 ADD DUP1 PUSH1 0x40 MSTORE POP DUP2 ADD SWAP1 PUSH2 0x3F9 SWAP2 SWAP1 PUSH2 0x1C4C JUMP JUMPDEST PUSH1 0x0 PUSH32 0x0 PUSH1 0x1 PUSH1 0x1 PUSH1 0xA0 SHL SUB AND PUSH4 0x9F82B217 PUSH1 0x40 MLOAD DUP2 PUSH4 0xFFFFFFFF AND PUSH1 0xE0 SHL DUP2 MSTORE PUSH1 0x4 ADD PUSH1 0x20 PUSH1 0x40 MLOAD DUP1 DUP4 SUB DUP2 DUP7 GAS STATICCALL ISZERO DUP1 ISZERO PUSH2 0xF4E JUMPI RETURNDATASIZE PUSH1 0x0 DUP1 RETURNDATACOPY RETURNDATASIZE PUSH1 0x0 REVERT JUMPDEST POP POP POP POP PUSH1 0x40 MLOAD RETURNDATASIZE PUSH1 0x1F NOT PUSH1 0x1F DUP3 ADD AND DUP3 ADD DUP1 PUSH1 0x40 MSTORE POP DUP2 ADD SWAP1 PUSH2 0xF72 SWAP2 SWAP1 PUSH2 0x1B03 JUMP JUMPDEST PUSH1 0x40 MLOAD PUSH4 0x1DA958A9 PUSH1 0xE2 SHL DUP2 MSTORE PUSH1 0x1 PUSH1 0x1 PUSH1 0xA0 SHL SUB DUP7 DUP2 AND PUSH1 0x4 DUP4 ADD MSTORE SWAP2 SWAP3 POP PUSH1 0x0 SWAP2 DUP4 AND SWAP1 PUSH4 0x76A562A4 SWAP1 PUSH1 0x24 ADD PUSH1 0x20 PUSH1 0x40 MLOAD DUP1 DUP4 SUB DUP2 DUP7 GAS STATICCALL ISZERO DUP1 ISZERO PUSH2 0xFBE JUMPI RETURNDATASIZE PUSH1 0x0 DUP1 RETURNDATACOPY RETURNDATASIZE PUSH1 0x0 REVERT JUMPDEST POP POP POP POP PUSH1 0x40 MLOAD RETURNDATASIZE PUSH1 0x1F NOT PUSH1 0x1F DUP3 ADD AND DUP3 ADD DUP1 PUSH1 0x40 MSTORE POP DUP2 ADD SWAP1 PUSH2 0xFE2 SWAP2 SWAP1 PUSH2 0x1B03 JUMP JUMPDEST SWAP1 POP PUSH1 0x0 PUSH32 0x0 PUSH1 0x1 PUSH1 0x1 PUSH1 0xA0 SHL SUB AND PUSH4 0x2630C12F PUSH1 0x40 MLOAD DUP2 PUSH4 0xFFFFFFFF AND PUSH1 0xE0 SHL DUP2 MSTORE PUSH1 0x4 ADD PUSH1 0x20 PUSH1 0x40 MLOAD DUP1 DUP4 SUB DUP2 DUP7 GAS STATICCALL ISZERO DUP1 ISZERO PUSH2 0x1044 JUMPI RETURNDATASIZE PUSH1 0x0 DUP1 RETURNDATACOPY RETURNDATASIZE PUSH1 0x0 REVERT JUMPDEST POP POP POP POP PUSH1 0x40 MLOAD RETURNDATASIZE PUSH1 0x1F NOT PUSH1 0x1F DUP3 ADD AND DUP3 ADD DUP1 PUSH1 0x40 MSTORE POP DUP2 ADD SWAP1 PUSH2 0x1068 SWAP2 SWAP1 PUSH2 0x1B03 JUMP JUMPDEST PUSH1 0x40 MLOAD PUSH4 0x3D234791 PUSH1 0xE0 SHL DUP2 MSTORE PUSH1 0x1 PUSH1 0x1 PUSH1 0xA0 SHL SUB DUP8 DUP2 AND PUSH1 0x4 DUP4 ADD MSTORE DUP5 DUP2 AND PUSH1 0x24 DUP4 ADD MSTORE PUSH1 0x44 DUP3 ADD DUP8 SWAP1 MSTORE SWAP2 SWAP1 SWAP2 AND SWAP1 PUSH4 0x3D234791 SWAP1 PUSH1 0x64 ADD PUSH1 0x20 PUSH1 0x40 MLOAD DUP1 DUP4 SUB DUP2 DUP7 GAS STATICCALL ISZERO DUP1 ISZERO PUSH2 0x10BF JUMPI RETURNDATASIZE PUSH1 0x0 DUP1 RETURNDATACOPY RETURNDATASIZE PUSH1 0x0 REVERT JUMPDEST POP POP POP POP PUSH1 0x40 MLOAD RETURNDATASIZE PUSH1 0x1F NOT PUSH1 0x1F DUP3 ADD AND DUP3 ADD DUP1 PUSH1 0x40 MSTORE POP DUP2 ADD SWAP1 PUSH2 0x10E3 SWAP2 SWAP1 PUSH2 0x1C1D JUMP JUMPDEST SWAP1 POP DUP1 PUSH1 0x0 SUB PUSH2 0x10F5 JUMPI POP POP POP POP POP POP JUMP JUMPDEST PUSH1 0x0 PUSH2 0x1101 ADDRESS DUP9 PUSH2 0x13F3 JUMP JUMPDEST SWAP1 POP PUSH1 0x0 PUSH2 0x110F ADDRESS DUP10 PUSH2 0x151B JUMP JUMPDEST SWAP1 POP DUP3 DUP3 LT ISZERO PUSH2 0x111D JUMPI DUP2 SWAP3 POP JUMPDEST DUP1 DUP4 GT ISZERO PUSH2 0x11DB JUMPI PUSH2 0x11D9 DUP9 PUSH2 0x1133 DUP4 DUP7 PUSH2 0x1C84 JUMP JUMPDEST PUSH1 0x40 MLOAD PUSH1 0x1 PUSH1 0x1 PUSH1 0xA0 SHL SUB SWAP1 SWAP3 AND PUSH1 0x24 DUP4 ADD MSTORE PUSH1 0x44 DUP3 ADD MSTORE PUSH1 0x64 ADD PUSH1 0x40 DUP1 MLOAD PUSH1 0x1F NOT DUP2 DUP5 SUB ADD DUP2 MSTORE SWAP2 DUP2 MSTORE PUSH1 0x20 DUP1 DUP4 ADD DUP1 MLOAD PUSH1 0x1 PUSH1 0x1 PUSH1 0xE0 SHL SUB AND PUSH4 0xF3FEF3A3 PUSH1 0xE0 SHL OR SWAP1 MSTORE DUP2 MLOAD PUSH4 0x160A1D97 PUSH1 0xE3 SHL DUP2 MSTORE SWAP2 MLOAD PUSH1 0x1 PUSH1 0x1 PUSH1 0xA0 SHL SUB PUSH32 0x0 AND SWAP3 PUSH4 0xB050ECB8 SWAP3 PUSH1 0x4 DUP1 DUP4 ADD SWAP4 SWAP2 SWAP3 DUP3 SWAP1 SUB ADD DUP2 DUP7 GAS STATICCALL ISZERO DUP1 ISZERO PUSH2 0xB17 JUMPI RETURNDATASIZE PUSH1 0x0 DUP1 RETURNDATACOPY RETURNDATASIZE PUSH1 0x0 REVERT JUMPDEST POP JUMPDEST PUSH1 0x40 MLOAD PUSH1 0x1 PUSH1 0x1 PUSH1 0xA0 SHL SUB DUP1 DUP11 AND PUSH1 0x24 DUP4 ADD MSTORE DUP9 AND PUSH1 0x44 DUP3 ADD MSTORE PUSH1 0x64 DUP2 ADD DUP5 SWAP1 MSTORE PUSH2 0x128E SWAP1 PUSH1 0x84 ADD PUSH1 0x40 DUP1 MLOAD PUSH1 0x1F NOT DUP2 DUP5 SUB ADD DUP2 MSTORE SWAP2 DUP2 MSTORE PUSH1 0x20 DUP1 DUP4 ADD DUP1 MLOAD PUSH1 0x1 PUSH1 0x1 PUSH1 0xE0 SHL SUB AND PUSH4 0x6CE57689 PUSH1 0xE1 SHL OR SWAP1 MSTORE DUP2 MLOAD PUSH4 0x5A991917 PUSH1 0xE0 SHL DUP2 MSTORE SWAP2 MLOAD PUSH1 0x1 PUSH1 0x1 PUSH1 0xA0 SHL SUB PUSH32 0x0 AND SWAP3 PUSH4 0x5A991917 SWAP3 PUSH1 0x4 DUP1 DUP4 ADD SWAP4 SWAP2 SWAP3 DUP3 SWAP1 SUB ADD DUP2 DUP7 GAS STATICCALL ISZERO DUP1 ISZERO PUSH2 0xB17 JUMPI RETURNDATASIZE PUSH1 0x0 DUP1 RETURNDATACOPY RETURNDATASIZE PUSH1 0x0 REVERT JUMPDEST POP POP POP POP POP POP POP POP POP JUMP JUMPDEST PUSH32 0x0 PUSH1 0x1 PUSH1 0x1 PUSH1 0xA0 SHL SUB AND PUSH4 0x5A991917 PUSH1 0x40 MLOAD DUP2 PUSH4 0xFFFFFFFF AND PUSH1 0xE0 SHL DUP2 MSTORE PUSH1 0x4 ADD PUSH1 0x20 PUSH1 0x40 MLOAD DUP1 DUP4 SUB DUP2 DUP7 GAS STATICCALL ISZERO DUP1 ISZERO PUSH2 0x12F7 JUMPI RETURNDATASIZE PUSH1 0x0 DUP1 RETURNDATACOPY RETURNDATASIZE PUSH1 0x0 REVERT JUMPDEST POP POP POP POP PUSH1 0x40 MLOAD RETURNDATASIZE PUSH1 0x1F NOT PUSH1 0x1F DUP3 ADD AND DUP3 ADD DUP1 PUSH1 0x40 MSTORE POP DUP2 ADD SWAP1 PUSH2 0x131B SWAP2 SWAP1 PUSH2 0x1B03 JUMP JUMPDEST PUSH1 0x40 MLOAD PUSH4 0xAF9FE9E5 PUSH1 0xE0 SHL DUP2 MSTORE PUSH1 0x1 PUSH1 0x1 PUSH1 0xA0 SHL SUB DUP4 DUP2 AND PUSH1 0x4 DUP4 ADD MSTORE SWAP2 SWAP1 SWAP2 AND SWAP1 PUSH4 0xAF9FE9E5 SWAP1 PUSH1 0x24 ADD PUSH1 0x0 PUSH1 0x40 MLOAD DUP1 DUP4 SUB DUP2 PUSH1 0x0 DUP8 DUP1 EXTCODESIZE ISZERO DUP1 ISZERO PUSH2 0x1360 JUMPI PUSH1 0x0 DUP1 REVERT JUMPDEST POP GAS CALL ISZERO DUP1 ISZERO PUSH2 0xC0A JUMPI RETURNDATASIZE PUSH1 0x0 DUP1 RETURNDATACOPY RETURNDATASIZE PUSH1 0x0 REVERT JUMPDEST PUSH1 0x0 PUSH2 0x1384 DUP6 DUP6 DUP6 DUP6 PUSH1 0x0 PUSH2 0x352 JUMP JUMPDEST SWAP1 POP JUMPDEST SWAP5 SWAP4 POP POP POP POP JUMP JUMPDEST PUSH1 0x0 DUP2 PUSH2 0x139E PUSH1 0x12 PUSH1 0xA PUSH2 0x1D7B JUMP JUMPDEST PUSH2 0x13A8 SWAP1 DUP6 PUSH2 0x1D87 JUMP JUMPDEST PUSH2 0x3F9 SWAP2 SWAP1 PUSH2 0x1D9E JUMP JUMPDEST PUSH1 0x0 DUP2 PUSH1 0xFF AND DUP4 PUSH1 0xFF AND SUB PUSH2 0x13C8 JUMPI POP DUP3 PUSH2 0x3F9 JUMP JUMPDEST DUP2 PUSH1 0xFF AND DUP4 PUSH1 0xFF AND GT ISZERO PUSH2 0x13E8 JUMPI PUSH2 0x13E1 DUP5 DUP5 DUP5 PUSH2 0x163B JUMP JUMPDEST SWAP1 POP PUSH2 0x3F9 JUMP JUMPDEST PUSH2 0x1387 DUP5 DUP5 DUP5 PUSH2 0x165C JUMP JUMPDEST PUSH1 0x0 PUSH2 0x13FF DUP4 DUP4 PUSH2 0x151B JUMP JUMPDEST PUSH2 0x1409 DUP5 DUP5 PUSH2 0x167D JUMP JUMPDEST PUSH2 0x3F9 SWAP2 SWAP1 PUSH2 0x1DC0 JUMP JUMPDEST PUSH1 0x0 DUP2 DUP4 GT ISZERO PUSH2 0x1423 JUMPI DUP2 PUSH2 0x3F9 JUMP JUMPDEST POP SWAP1 SWAP2 SWAP1 POP JUMP JUMPDEST PUSH1 0x0 PUSH2 0x1438 PUSH1 0x12 PUSH1 0xA PUSH2 0x1D7B JUMP JUMPDEST PUSH2 0x13A8 DUP4 DUP6 PUSH2 0x1D87 JUMP JUMPDEST PUSH1 0x60 PUSH2 0x3F9 DUP4 DUP4 PUSH1 0x40 MLOAD DUP1 PUSH1 0x60 ADD PUSH1 0x40 MSTORE DUP1 PUSH1 0x27 DUP2 MSTORE PUSH1 0x20 ADD PUSH2 0x1E6F PUSH1 0x27 SWAP2 CODECOPY PUSH2 0x17DC JUMP JUMPDEST PUSH1 0x0 DUP1 DUP4 PUSH1 0x1 PUSH1 0x1 PUSH1 0xA0 SHL SUB AND PUSH4 0xA58F1D8E PUSH1 0x40 MLOAD DUP2 PUSH4 0xFFFFFFFF AND PUSH1 0xE0 SHL DUP2 MSTORE PUSH1 0x4 ADD PUSH1 0x20 PUSH1 0x40 MLOAD DUP1 DUP4 SUB DUP2 DUP7 GAS STATICCALL ISZERO DUP1 ISZERO PUSH2 0x14A8 JUMPI RETURNDATASIZE PUSH1 0x0 DUP1 RETURNDATACOPY RETURNDATASIZE PUSH1 0x0 REVERT JUMPDEST POP POP POP POP PUSH1 0x40 MLOAD RETURNDATASIZE PUSH1 0x1F NOT PUSH1 0x1F DUP3 ADD AND DUP3 ADD DUP1 PUSH1 0x40 MSTORE POP DUP2 ADD SWAP1 PUSH2 0x14CC SWAP2 SWAP1 PUSH2 0x1C1D JUMP JUMPDEST SWAP1 POP PUSH1 0x0 PUSH2 0x14DA DUP6 DUP6 PUSH2 0x151B JUMP JUMPDEST SWAP1 POP PUSH1 0x0 DUP2 PUSH2 0x14E9 DUP8 DUP8 PUSH2 0x167D JUMP JUMPDEST PUSH2 0x14F3 SWAP2 SWAP1 PUSH2 0x1DC0 JUMP JUMPDEST SWAP1 POP DUP3 PUSH2 0x1500 DUP4 DUP4 PUSH2 0x138F JUMP JUMPDEST LT PUSH2 0x150F JUMPI POP SWAP2 POP PUSH2 0x34C SWAP1 POP JUMP JUMPDEST POP PUSH1 0x0 SWAP6 SWAP5 POP POP POP POP POP JUMP JUMPDEST PUSH1 0x0 PUSH32 0x0 PUSH1 0x1 PUSH1 0x1 PUSH1 0xA0 SHL SUB AND PUSH4 0x9F82B217 PUSH1 0x40 MLOAD DUP2 PUSH4 0xFFFFFFFF AND PUSH1 0xE0 SHL DUP2 MSTORE PUSH1 0x4 ADD PUSH1 0x20 PUSH1 0x40 MLOAD DUP1 DUP4 SUB DUP2 DUP7 GAS STATICCALL ISZERO DUP1 ISZERO PUSH2 0x157B JUMPI RETURNDATASIZE PUSH1 0x0 DUP1 RETURNDATACOPY RETURNDATASIZE PUSH1 0x0 REVERT JUMPDEST POP POP POP POP PUSH1 0x40 MLOAD RETURNDATASIZE PUSH1 0x1F NOT PUSH1 0x1F DUP3 ADD AND DUP3 ADD DUP1 PUSH1 0x40 MSTORE POP DUP2 ADD SWAP1 PUSH2 0x159F SWAP2 SWAP1 PUSH2 0x1B03 JUMP JUMPDEST PUSH1 0x40 MLOAD PUSH4 0x1DA958A9 PUSH1 0xE2 SHL DUP2 MSTORE PUSH1 0x1 PUSH1 0x1 PUSH1 0xA0 SHL SUB DUP5 DUP2 AND PUSH1 0x4 DUP4 ADD MSTORE SWAP2 SWAP1 SWAP2 AND SWAP1 PUSH4 0x76A562A4 SWAP1 PUSH1 0x24 ADD PUSH1 0x20 PUSH1 0x40 MLOAD DUP1 DUP4 SUB DUP2 DUP7 GAS STATICCALL ISZERO DUP1 ISZERO PUSH2 0x15E7 JUMPI RETURNDATASIZE PUSH1 0x0 DUP1 RETURNDATACOPY RETURNDATASIZE PUSH1 0x0 REVERT JUMPDEST POP POP POP POP PUSH1 0x40 MLOAD RETURNDATASIZE PUSH1 0x1F NOT PUSH1 0x1F DUP3 ADD AND DUP3 ADD DUP1 PUSH1 0x40 MSTORE POP DUP2 ADD SWAP1 PUSH2 0x160B SWAP2 SWAP1 PUSH2 0x1B03 JUMP JUMPDEST PUSH1 0x40 MLOAD PUSH4 0x70A08231 PUSH1 0xE0 SHL DUP2 MSTORE PUSH1 0x1 PUSH1 0x1 PUSH1 0xA0 SHL SUB DUP6 DUP2 AND PUSH1 0x4 DUP4 ADD MSTORE SWAP2 SWAP1 SWAP2 AND SWAP1 PUSH4 0x70A08231 SWAP1 PUSH1 0x24 ADD PUSH2 0xDB5 JUMP JUMPDEST PUSH1 0x0 PUSH2 0x1647 DUP3 DUP5 PUSH2 0x1DD3 JUMP JUMPDEST PUSH2 0x1652 SWAP1 PUSH1 0xA PUSH2 0x1DEC JUMP JUMPDEST PUSH2 0x1387 SWAP1 DUP6 PUSH2 0x1D9E JUMP JUMPDEST PUSH1 0x0 PUSH2 0x1668 DUP4 DUP4 PUSH2 0x1DD3 JUMP JUMPDEST PUSH2 0x1673 SWAP1 PUSH1 0xA PUSH2 0x1DEC JUMP JUMPDEST PUSH2 0x1387 SWAP1 DUP6 PUSH2 0x1D87 JUMP JUMPDEST PUSH1 0x0 DUP1 PUSH32 0x0 PUSH1 0x1 PUSH1 0x1 PUSH1 0xA0 SHL SUB AND PUSH4 0xB050ECB8 PUSH1 0x40 MLOAD DUP2 PUSH4 0xFFFFFFFF AND PUSH1 0xE0 SHL DUP2 MSTORE PUSH1 0x4 ADD PUSH1 0x20 PUSH1 0x40 MLOAD DUP1 DUP4 SUB DUP2 DUP7 GAS STATICCALL ISZERO DUP1 ISZERO PUSH2 0x16DE JUMPI RETURNDATASIZE PUSH1 0x0 DUP1 RETURNDATACOPY RETURNDATASIZE PUSH1 0x0 REVERT JUMPDEST POP POP POP POP PUSH1 0x40 MLOAD RETURNDATASIZE PUSH1 0x1F NOT PUSH1 0x1F DUP3 ADD AND DUP3 ADD DUP1 PUSH1 0x40 MSTORE POP DUP2 ADD SWAP1 PUSH2 0x1702 SWAP2 SWAP1 PUSH2 0x1B03 JUMP JUMPDEST PUSH1 0x40 MLOAD PUSH4 0x514A9009 PUSH1 0xE0 SHL DUP2 MSTORE PUSH1 0x1 PUSH1 0x1 PUSH1 0xA0 SHL SUB DUP6 DUP2 AND PUSH1 0x4 DUP4 ADD MSTORE SWAP2 SWAP1 SWAP2 AND SWAP1 PUSH4 0x514A9009 SWAP1 PUSH1 0x24 ADD PUSH1 0x20 PUSH1 0x40 MLOAD DUP1 DUP4 SUB DUP2 DUP7 GAS STATICCALL ISZERO DUP1 ISZERO PUSH2 0x174A JUMPI RETURNDATASIZE PUSH1 0x0 DUP1 RETURNDATACOPY RETURNDATASIZE PUSH1 0x0 REVERT JUMPDEST POP POP POP POP PUSH1 0x40 MLOAD RETURNDATASIZE PUSH1 0x1F NOT PUSH1 0x1F DUP3 ADD AND DUP3 ADD DUP1 PUSH1 0x40 MSTORE POP DUP2 ADD SWAP1 PUSH2 0x176E SWAP2 SWAP1 PUSH2 0x1B03 JUMP JUMPDEST PUSH1 0x40 MLOAD PUSH4 0x70A08231 PUSH1 0xE0 SHL DUP2 MSTORE PUSH1 0x1 PUSH1 0x1 PUSH1 0xA0 SHL SUB DUP7 DUP2 AND PUSH1 0x4 DUP4 ADD MSTORE SWAP2 SWAP3 POP SWAP1 DUP3 AND SWAP1 PUSH4 0x70A08231 SWAP1 PUSH1 0x24 ADD PUSH1 0x20 PUSH1 0x40 MLOAD DUP1 DUP4 SUB DUP2 DUP7 GAS STATICCALL ISZERO DUP1 ISZERO PUSH2 0x17B8 JUMPI RETURNDATASIZE PUSH1 0x0 DUP1 RETURNDATACOPY RETURNDATASIZE PUSH1 0x0 REVERT JUMPDEST POP POP POP POP PUSH1 0x40 MLOAD RETURNDATASIZE PUSH1 0x1F NOT PUSH1 0x1F DUP3 ADD AND DUP3 ADD DUP1 PUSH1 0x40 MSTORE POP DUP2 ADD SWAP1 PUSH2 0x1387 SWAP2 SWAP1 PUSH2 0x1C1D JUMP JUMPDEST PUSH1 0x60 PUSH1 0x0 DUP1 DUP6 PUSH1 0x1 PUSH1 0x1 PUSH1 0xA0 SHL SUB AND DUP6 PUSH1 0x40 MLOAD PUSH2 0x17F9 SWAP2 SWAP1 PUSH2 0x1E1F JUMP JUMPDEST PUSH1 0x0 PUSH1 0x40 MLOAD DUP1 DUP4 SUB DUP2 DUP6 GAS DELEGATECALL SWAP2 POP POP RETURNDATASIZE DUP1 PUSH1 0x0 DUP2 EQ PUSH2 0x1834 JUMPI PUSH1 0x40 MLOAD SWAP2 POP PUSH1 0x1F NOT PUSH1 0x3F RETURNDATASIZE ADD AND DUP3 ADD PUSH1 0x40 MSTORE RETURNDATASIZE DUP3 MSTORE RETURNDATASIZE PUSH1 0x0 PUSH1 0x20 DUP5 ADD RETURNDATACOPY PUSH2 0x1839 JUMP JUMPDEST PUSH1 0x60 SWAP2 POP JUMPDEST POP SWAP2 POP SWAP2 POP PUSH2 0x184A DUP7 DUP4 DUP4 DUP8 PUSH2 0x1854 JUMP JUMPDEST SWAP7 SWAP6 POP POP POP POP POP POP JUMP JUMPDEST PUSH1 0x60 DUP4 ISZERO PUSH2 0x18C8 JUMPI DUP3 MLOAD PUSH1 0x0 SUB PUSH2 0x18C1 JUMPI PUSH1 0x1 PUSH1 0x1 PUSH1 0xA0 SHL SUB DUP6 AND EXTCODESIZE PUSH2 0x18C1 JUMPI PUSH1 0x40 MLOAD PUSH3 0x461BCD PUSH1 0xE5 SHL DUP2 MSTORE PUSH1 0x20 PUSH1 0x4 DUP3 ADD MSTORE PUSH1 0x1D PUSH1 0x24 DUP3 ADD MSTORE PUSH32 0x416464726573733A2063616C6C20746F206E6F6E2D636F6E7472616374000000 PUSH1 0x44 DUP3 ADD MSTORE PUSH1 0x64 ADD JUMPDEST PUSH1 0x40 MLOAD DUP1 SWAP2 SUB SWAP1 REVERT JUMPDEST POP DUP2 PUSH2 0x1387 JUMP JUMPDEST PUSH2 0x1387 DUP4 DUP4 DUP2 MLOAD ISZERO PUSH2 0x18DD JUMPI DUP2 MLOAD DUP1 DUP4 PUSH1 0x20 ADD REVERT JUMPDEST DUP1 PUSH1 0x40 MLOAD PUSH3 0x461BCD PUSH1 0xE5 SHL DUP2 MSTORE PUSH1 0x4 ADD PUSH2 0x18B8 SWAP2 SWAP1 PUSH2 0x1E3B JUMP JUMPDEST PUSH1 0x1 PUSH1 0x1 PUSH1 0xA0 SHL SUB DUP2 AND DUP2 EQ PUSH2 0x190C JUMPI PUSH1 0x0 DUP1 REVERT JUMPDEST POP JUMP JUMPDEST PUSH1 0x0 PUSH1 0x20 DUP3 DUP5 SUB SLT ISZERO PUSH2 0x1921 JUMPI PUSH1 0x0 DUP1 REVERT JUMPDEST DUP2 CALLDATALOAD PUSH2 0x3F9 DUP2 PUSH2 0x18F7 JUMP JUMPDEST PUSH1 0x20 DUP1 DUP3 MSTORE DUP3 MLOAD DUP3 DUP3 ADD DUP2 SWAP1 MSTORE PUSH1 0x0 SWAP2 SWAP1 DUP5 DUP3 ADD SWAP1 PUSH1 0x40 DUP6 ADD SWAP1 DUP5 JUMPDEST DUP2 DUP2 LT ISZERO PUSH2 0x196D JUMPI DUP4 MLOAD PUSH1 0x1 PUSH1 0x1 PUSH1 0xA0 SHL SUB AND DUP4 MSTORE SWAP3 DUP5 ADD SWAP3 SWAP2 DUP5 ADD SWAP2 PUSH1 0x1 ADD PUSH2 0x1948 JUMP JUMPDEST POP SWAP1 SWAP7 SWAP6 POP POP POP POP POP POP JUMP JUMPDEST DUP1 CALLDATALOAD PUSH1 0x3 DUP2 LT PUSH2 0x1988 JUMPI PUSH1 0x0 DUP1 REVERT JUMPDEST SWAP2 SWAP1 POP JUMP JUMPDEST PUSH1 0x0 DUP1 PUSH1 0x0 DUP1 PUSH1 0x0 PUSH1 0xA0 DUP7 DUP9 SUB SLT ISZERO PUSH2 0x19A5 JUMPI PUSH1 0x0 DUP1 REVERT JUMPDEST DUP6 CALLDATALOAD PUSH2 0x19B0 DUP2 PUSH2 0x18F7 JUMP JUMPDEST SWAP5 POP PUSH1 0x20 DUP7 ADD CALLDATALOAD PUSH2 0x19C0 DUP2 PUSH2 0x18F7 JUMP JUMPDEST SWAP4 POP PUSH1 0x40 DUP7 ADD CALLDATALOAD PUSH2 0x19D0 DUP2 PUSH2 0x18F7 JUMP JUMPDEST SWAP3 POP PUSH1 0x60 DUP7 ADD CALLDATALOAD SWAP2 POP PUSH2 0x19E5 PUSH1 0x80 DUP8 ADD PUSH2 0x1979 JUMP JUMPDEST SWAP1 POP SWAP3 SWAP6 POP SWAP3 SWAP6 SWAP1 SWAP4 POP JUMP JUMPDEST PUSH1 0x0 DUP1 PUSH1 0x40 DUP4 DUP6 SUB SLT ISZERO PUSH2 0x1A04 JUMPI PUSH1 0x0 DUP1 REVERT JUMPDEST DUP3 CALLDATALOAD PUSH2 0x1A0F DUP2 PUSH2 0x18F7 JUMP JUMPDEST SWAP2 POP PUSH1 0x20 DUP4 ADD CALLDATALOAD PUSH2 0x1A1F DUP2 PUSH2 0x18F7 JUMP JUMPDEST DUP1 SWAP2 POP POP SWAP3 POP SWAP3 SWAP1 POP JUMP JUMPDEST PUSH1 0x0 DUP1 PUSH1 0x0 PUSH1 0x60 DUP5 DUP7 SUB SLT ISZERO PUSH2 0x1A3F JUMPI PUSH1 0x0 DUP1 REVERT JUMPDEST DUP4 CALLDATALOAD PUSH2 0x1A4A DUP2 PUSH2 0x18F7 JUMP JUMPDEST SWAP3 POP PUSH1 0x20 DUP5 ADD CALLDATALOAD PUSH2 0x1A5A DUP2 PUSH2 0x18F7 JUMP JUMPDEST SWAP2 POP PUSH2 0x1A68 PUSH1 0x40 DUP6 ADD PUSH2 0x1979 JUMP JUMPDEST SWAP1 POP SWAP3 POP SWAP3 POP SWAP3 JUMP JUMPDEST PUSH1 0x0 DUP1 PUSH1 0x0 PUSH1 0x60 DUP5 DUP7 SUB SLT ISZERO PUSH2 0x1A86 JUMPI PUSH1 0x0 DUP1 REVERT JUMPDEST DUP4 CALLDATALOAD PUSH2 0x1A91 DUP2 PUSH2 0x18F7 JUMP JUMPDEST SWAP3 POP PUSH1 0x20 DUP5 ADD CALLDATALOAD PUSH2 0x1AA1 DUP2 PUSH2 0x18F7 JUMP JUMPDEST SWAP3 SWAP6 SWAP3 SWAP5 POP POP POP PUSH1 0x40 SWAP2 SWAP1 SWAP2 ADD CALLDATALOAD SWAP1 JUMP JUMPDEST PUSH1 0x0 DUP1 PUSH1 0x0 DUP1 PUSH1 0x80 DUP6 DUP8 SUB SLT ISZERO PUSH2 0x1AC8 JUMPI PUSH1 0x0 DUP1 REVERT JUMPDEST DUP5 CALLDATALOAD PUSH2 0x1AD3 DUP2 PUSH2 0x18F7 JUMP JUMPDEST SWAP4 POP PUSH1 0x20 DUP6 ADD CALLDATALOAD PUSH2 0x1AE3 DUP2 PUSH2 0x18F7 JUMP JUMPDEST SWAP3 POP PUSH1 0x40 DUP6 ADD CALLDATALOAD PUSH2 0x1AF3 DUP2 PUSH2 0x18F7 JUMP JUMPDEST SWAP4 SWAP7 SWAP3 SWAP6 POP SWAP3 SWAP4 PUSH1 0x60 ADD CALLDATALOAD SWAP3 POP POP JUMP JUMPDEST PUSH1 0x0 PUSH1 0x20 DUP3 DUP5 SUB SLT ISZERO PUSH2 0x1B15 JUMPI PUSH1 0x0 DUP1 REVERT JUMPDEST DUP2 MLOAD PUSH2 0x3F9 DUP2 PUSH2 0x18F7 JUMP JUMPDEST PUSH4 0x4E487B71 PUSH1 0xE0 SHL PUSH1 0x0 MSTORE PUSH1 0x41 PUSH1 0x4 MSTORE PUSH1 0x24 PUSH1 0x0 REVERT JUMPDEST DUP1 MLOAD PUSH2 0x1988 DUP2 PUSH2 0x18F7 JUMP JUMPDEST PUSH1 0x0 PUSH1 0x20 DUP1 DUP4 DUP6 SUB SLT ISZERO PUSH2 0x1B54 JUMPI PUSH1 0x0 DUP1 REVERT JUMPDEST DUP3 MLOAD PUSH8 0xFFFFFFFFFFFFFFFF DUP1 DUP3 GT ISZERO PUSH2 0x1B6C JUMPI PUSH1 0x0 DUP1 REVERT JUMPDEST DUP2 DUP6 ADD SWAP2 POP DUP6 PUSH1 0x1F DUP4 ADD SLT PUSH2 0x1B80 JUMPI PUSH1 0x0 DUP1 REVERT JUMPDEST DUP2 MLOAD DUP2 DUP2 GT ISZERO PUSH2 0x1B92 JUMPI PUSH2 0x1B92 PUSH2 0x1B20 JUMP JUMPDEST DUP1 PUSH1 0x5 SHL PUSH1 0x40 MLOAD PUSH1 0x1F NOT PUSH1 0x3F DUP4 ADD AND DUP2 ADD DUP2 DUP2 LT DUP6 DUP3 GT OR ISZERO PUSH2 0x1BB7 JUMPI PUSH2 0x1BB7 PUSH2 0x1B20 JUMP JUMPDEST PUSH1 0x40 MSTORE SWAP2 DUP3 MSTORE DUP5 DUP3 ADD SWAP3 POP DUP4 DUP2 ADD DUP6 ADD SWAP2 DUP9 DUP4 GT ISZERO PUSH2 0x1BD5 JUMPI PUSH1 0x0 DUP1 REVERT JUMPDEST SWAP4 DUP6 ADD SWAP4 JUMPDEST DUP3 DUP6 LT ISZERO PUSH2 0x3DF JUMPI PUSH2 0x1BEB DUP6 PUSH2 0x1B36 JUMP JUMPDEST DUP5 MSTORE SWAP4 DUP6 ADD SWAP4 SWAP3 DUP6 ADD SWAP3 PUSH2 0x1BDA JUMP JUMPDEST PUSH1 0x0 PUSH1 0x20 DUP3 DUP5 SUB SLT ISZERO PUSH2 0x1C0C JUMPI PUSH1 0x0 DUP1 REVERT JUMPDEST DUP2 MLOAD PUSH1 0xFF DUP2 AND DUP2 EQ PUSH2 0x3F9 JUMPI PUSH1 0x0 DUP1 REVERT JUMPDEST PUSH1 0x0 PUSH1 0x20 DUP3 DUP5 SUB SLT ISZERO PUSH2 0x1C2F JUMPI PUSH1 0x0 DUP1 REVERT JUMPDEST POP MLOAD SWAP2 SWAP1 POP JUMP JUMPDEST PUSH4 0x4E487B71 PUSH1 0xE0 SHL PUSH1 0x0 MSTORE PUSH1 0x21 PUSH1 0x4 MSTORE PUSH1 0x24 PUSH1 0x0 REVERT JUMPDEST PUSH1 0x0 PUSH1 0x20 DUP3 DUP5 SUB SLT ISZERO PUSH2 0x1C5E JUMPI PUSH1 0x0 DUP1 REVERT JUMPDEST DUP2 MLOAD DUP1 ISZERO ISZERO DUP2 EQ PUSH2 0x3F9 JUMPI PUSH1 0x0 DUP1 REVERT JUMPDEST PUSH4 0x4E487B71 PUSH1 0xE0 SHL PUSH1 0x0 MSTORE PUSH1 0x11 PUSH1 0x4 MSTORE PUSH1 0x24 PUSH1 0x0 REVERT JUMPDEST DUP2 DUP2 SUB DUP2 DUP2 GT ISZERO PUSH2 0x34C JUMPI PUSH2 0x34C PUSH2 0x1C6E JUMP JUMPDEST PUSH1 0x1 DUP2 DUP2 JUMPDEST DUP1 DUP6 GT ISZERO PUSH2 0x1CD2 JUMPI DUP2 PUSH1 0x0 NOT DIV DUP3 GT ISZERO PUSH2 0x1CB8 JUMPI PUSH2 0x1CB8 PUSH2 0x1C6E JUMP JUMPDEST DUP1 DUP6 AND ISZERO PUSH2 0x1CC5 JUMPI SWAP2 DUP2 MUL SWAP2 JUMPDEST SWAP4 DUP5 SHR SWAP4 SWAP1 DUP1 MUL SWAP1 PUSH2 0x1C9C JUMP JUMPDEST POP SWAP3 POP SWAP3 SWAP1 POP JUMP JUMPDEST PUSH1 0x0 DUP3 PUSH2 0x1CE9 JUMPI POP PUSH1 0x1 PUSH2 0x34C JUMP JUMPDEST DUP2 PUSH2 0x1CF6 JUMPI POP PUSH1 0x0 PUSH2 0x34C JUMP JUMPDEST DUP2 PUSH1 0x1 DUP2 EQ PUSH2 0x1D0C JUMPI PUSH1 0x2 DUP2 EQ PUSH2 0x1D16 JUMPI PUSH2 0x1D32 JUMP JUMPDEST PUSH1 0x1 SWAP2 POP POP PUSH2 0x34C JUMP JUMPDEST PUSH1 0xFF DUP5 GT ISZERO PUSH2 0x1D27 JUMPI PUSH2 0x1D27 PUSH2 0x1C6E JUMP JUMPDEST POP POP PUSH1 0x1 DUP3 SHL PUSH2 0x34C JUMP JUMPDEST POP PUSH1 0x20 DUP4 LT PUSH2 0x133 DUP4 LT AND PUSH1 0x4E DUP5 LT PUSH1 0xB DUP5 LT AND OR ISZERO PUSH2 0x1D55 JUMPI POP DUP2 DUP2 EXP PUSH2 0x34C JUMP JUMPDEST PUSH2 0x1D5F DUP4 DUP4 PUSH2 0x1C97 JUMP JUMPDEST DUP1 PUSH1 0x0 NOT DIV DUP3 GT ISZERO PUSH2 0x1D73 JUMPI PUSH2 0x1D73 PUSH2 0x1C6E JUMP JUMPDEST MUL SWAP4 SWAP3 POP POP POP JUMP JUMPDEST PUSH1 0x0 PUSH2 0x3F9 DUP4 DUP4 PUSH2 0x1CDA JUMP JUMPDEST DUP1 DUP3 MUL DUP2 ISZERO DUP3 DUP3 DIV DUP5 EQ OR PUSH2 0x34C JUMPI PUSH2 0x34C PUSH2 0x1C6E JUMP JUMPDEST PUSH1 0x0 DUP3 PUSH2 0x1DBB JUMPI PUSH4 0x4E487B71 PUSH1 0xE0 SHL PUSH1 0x0 MSTORE PUSH1 0x12 PUSH1 0x4 MSTORE PUSH1 0x24 PUSH1 0x0 REVERT JUMPDEST POP DIV SWAP1 JUMP JUMPDEST DUP1 DUP3 ADD DUP1 DUP3 GT ISZERO PUSH2 0x34C JUMPI PUSH2 0x34C PUSH2 0x1C6E JUMP JUMPDEST PUSH1 0xFF DUP3 DUP2 AND DUP3 DUP3 AND SUB SWAP1 DUP2 GT ISZERO PUSH2 0x34C JUMPI PUSH2 0x34C PUSH2 0x1C6E JUMP JUMPDEST PUSH1 0x0 PUSH2 0x3F9 PUSH1 0xFF DUP5 AND DUP4 PUSH2 0x1CDA JUMP JUMPDEST PUSH1 0x0 JUMPDEST DUP4 DUP2 LT ISZERO PUSH2 0x1E16 JUMPI DUP2 DUP2 ADD MLOAD DUP4 DUP3 ADD MSTORE PUSH1 0x20 ADD PUSH2 0x1DFE JUMP JUMPDEST POP POP PUSH1 0x0 SWAP2 ADD MSTORE JUMP JUMPDEST PUSH1 0x0 DUP3 MLOAD PUSH2 0x1E31 DUP2 DUP5 PUSH1 0x20 DUP8 ADD PUSH2 0x1DFB JUMP JUMPDEST SWAP2 SWAP1 SWAP2 ADD SWAP3 SWAP2 POP POP JUMP JUMPDEST PUSH1 0x20 DUP2 MSTORE PUSH1 0x0 DUP3 MLOAD DUP1 PUSH1 0x20 DUP5 ADD MSTORE PUSH2 0x1E5A DUP2 PUSH1 0x40 DUP6 ADD PUSH1 0x20 DUP8 ADD PUSH2 0x1DFB JUMP JUMPDEST PUSH1 0x1F ADD PUSH1 0x1F NOT AND SWAP2 SWAP1 SWAP2 ADD PUSH1 0x40 ADD SWAP3 SWAP2 POP POP JUMP INVALID COINBASE PUSH5 0x6472657373 GASPRICE KECCAK256 PUSH13 0x6F772D6C6576656C2064656C65 PUSH8 0x6174652063616C6C KECCAK256 PUSH7 0x61696C6564A264 PUSH10 0x70667358221220EF8500 0xC2 JUMPI SGT 0xE3 GASLIMIT 0xD1 0xE7 KECCAK256 SLT 0x5F SWAP10 PUSH15 0x78FA95FDD149D0B8331EB87F8CFB62 0xF8 0x21 PUSH5 0x736F6C6343 STOP ADDMOD GT STOP CALLER ","sha1":"3f56bcd0acbce89879cef223a6a8be9a73377654","source":"// SPDX-License-Identifier: GPL-3.0-or-later\npragma solidity 0.8.17;\n\nimport \"@openzeppelin/contracts/token/ERC20/extensions/IERC20Metadata.sol\";\nimport \"@openzeppelin/contracts/utils/Address.sol\";\n\nimport \"../../interfaces/IPoolAdapter.sol\";\nimport \"../../interfaces/IController.sol\";\nimport \"../../interfaces/IConvexHandler.sol\";\nimport \"../../interfaces/ICurveHandler.sol\";\nimport \"../../interfaces/vendor/IBaseRewardPool.sol\";\n\nimport \"../../libraries/ScaledMath.sol\";\n\ncontract CurveAdapter is IPoolAdapter {\n    using Address for address;\n    using ScaledMath for uint256;\n\n    /// @dev used to store the prices of the LP tokens\n    mapping(address => uint256) internal _cachedPrices;\n\n    IController public immutable controller;\n\n    constructor(IController _controller) {\n        controller = _controller;\n    }\n\n    function deposit(\n        address curvePool,\n        address underlying,\n        uint256 underlyingAmount\n    ) external override {\n        if (underlyingAmount == 0) return;\n\n        controller.curveHandler().functionDelegateCall(\n            abi.encodeWithSignature(\n                \"deposit(address,address,uint256)\",\n                curvePool,\n                underlying,\n                underlyingAmount\n            )\n        );\n\n        uint256 depositAmount = _getDepositAmount(address(this), curvePool);\n        if (depositAmount > 0) {\n            controller.convexHandler().functionDelegateCall(\n                abi.encodeWithSignature(\"deposit(address,uint256)\", curvePool, depositAmount)\n            );\n        }\n    }\n\n    function withdraw(\n        address pool,\n        address underlying,\n        uint256 underlyingAmount\n    ) external override {\n        ICurveRegistryCache registryCache = controller.curveRegistryCache();\n        address curveLpToken = registryCache.lpToken(pool);\n\n        uint256 lpToWithdraw = controller.priceOracle().underlyingToCurveLp(\n            underlying,\n            curveLpToken,\n            underlyingAmount\n        );\n        if (lpToWithdraw == 0) return;\n\n        uint256 totalAvailableLp = _totalCurveLpBalance(address(this), pool);\n\n        uint256 idleCurveLpBalance = _idleCurveLpBalance(address(this), pool);\n\n        // Due to rounding errors with the conversion of underlying to LP tokens,\n        // we may not have the precise amount of LP tokens to withdraw from the pool.\n        // In this case, we withdraw the maximum amount of LP tokens available.\n        if (totalAvailableLp < lpToWithdraw) {\n            lpToWithdraw = totalAvailableLp;\n        }\n\n        if (lpToWithdraw > idleCurveLpBalance) {\n            controller.convexHandler().functionDelegateCall(\n                abi.encodeWithSignature(\n                    \"withdraw(address,uint256)\",\n                    pool,\n                    lpToWithdraw - idleCurveLpBalance\n                )\n            );\n        }\n\n        controller.curveHandler().functionDelegateCall(\n            abi.encodeWithSignature(\n                \"withdraw(address,address,uint256)\",\n                pool,\n                underlying,\n                lpToWithdraw\n            )\n        );\n    }\n\n    function updatePriceCache(address pool) external override {\n        ICurveRegistryCache registryCache = controller.curveRegistryCache();\n        IGenericOracle priceOracle = controller.priceOracle();\n        address curveLpToken = registryCache.lpToken(pool);\n        _cachedPrices[curveLpToken] = priceOracle.getUSDPrice(curveLpToken);\n    }\n\n    function computePoolValueInUnderlying(\n        address conicPool,\n        address pool,\n        address underlying,\n        uint256 underlyingPrice\n    ) external view override returns (uint256 underlyingAmount) {\n        return\n            computePoolValueInUnderlying(\n                conicPool,\n                pool,\n                underlying,\n                underlyingPrice,\n                PriceMode.Latest\n            );\n    }\n\n    function computePoolValueInUnderlying(\n        address conicPool,\n        address pool,\n        address underlying,\n        uint256 underlyingPrice,\n        PriceMode priceMode\n    ) public view override returns (uint256 underlyingAmount) {\n        uint8 decimals = IERC20Metadata(underlying).decimals();\n        uint256 usdAmount = computePoolValueInUSD(conicPool, pool, priceMode);\n        underlyingAmount = usdAmount.divDown(underlyingPrice).convertScale(18, decimals);\n    }\n\n    function computePoolValueInUSD(\n        address conicPool,\n        address pool\n    ) external view override returns (uint256 usdAmount) {\n        return computePoolValueInUSD(conicPool, pool, PriceMode.Latest);\n    }\n\n    function computePoolValueInUSD(\n        address conicPool,\n        address pool,\n        PriceMode priceMode\n    ) public view override returns (uint256 usdAmount) {\n        IGenericOracle priceOracle = controller.priceOracle();\n        address curveLpToken = controller.curveRegistryCache().lpToken(pool);\n        uint8 lpDecimals = IERC20Metadata(curveLpToken).decimals();\n        uint256 lpBalance = _totalCurveLpBalance(conicPool, pool);\n        uint256 lpPrice;\n        if (priceMode == PriceMode.Latest) {\n            lpPrice = priceOracle.getUSDPrice(curveLpToken);\n        } else if (priceMode == PriceMode.Cached) {\n            lpPrice = _cachedPrices[curveLpToken];\n        } else {\n            // priceMode == PriceMode.Minimum\n            lpPrice = priceOracle.getUSDPrice(curveLpToken).min(_cachedPrices[curveLpToken]);\n        }\n\n        usdAmount = lpBalance.convertScale(lpDecimals, 18).mulDown(lpPrice);\n    }\n\n    function _getDepositAmount(\n        address conicPool,\n        address curvePool\n    ) internal view returns (uint256) {\n        uint256 maxIdleCurveLpRatio = IConicPool(conicPool).maxIdleCurveLpRatio();\n        uint256 idleCurveLpBalance = _idleCurveLpBalance(conicPool, curvePool);\n        uint256 totalCurveLpBalance = _stakedCurveLpBalance(conicPool, curvePool) +\n            idleCurveLpBalance;\n\n        if (idleCurveLpBalance.divDown(totalCurveLpBalance) >= maxIdleCurveLpRatio) {\n            return idleCurveLpBalance;\n        }\n        return 0;\n    }\n\n    function _idleCurveLpBalance(\n        address conicPool_,\n        address curvePool_\n    ) internal view returns (uint256) {\n        return IERC20(controller.curveRegistryCache().lpToken(curvePool_)).balanceOf(conicPool_);\n    }\n\n    function _stakedCurveLpBalance(\n        address conicPool_,\n        address curvePool_\n    ) internal view returns (uint256) {\n        address rewardPool = IConvexHandler(controller.convexHandler()).getRewardPool(curvePool_);\n        return IBaseRewardPool(rewardPool).balanceOf(conicPool_);\n    }\n\n    function _totalCurveLpBalance(\n        address conicPool_,\n        address curvePool_\n    ) internal view returns (uint256) {\n        return\n            _stakedCurveLpBalance(conicPool_, curvePool_) +\n            _idleCurveLpBalance(conicPool_, curvePool_);\n    }\n\n    function claimEarnings(address conicPool, address pool) external override {\n        IConvexHandler(controller.convexHandler()).claimEarnings(pool, conicPool);\n    }\n\n    function lpToken(address pool) external view override returns (address) {\n        return controller.curveRegistryCache().lpToken(pool);\n    }\n\n    function getAllUnderlyingCoins(address pool) external view returns (address[] memory) {\n        return controller.curveRegistryCache().getAllUnderlyingCoins(pool);\n    }\n\n    function supportsAsset(address pool, address asset) external view override returns (bool) {\n        return controller.curveRegistryCache().hasCoinAnywhere(pool, asset);\n    }\n\n    function getCRVEarnedOnConvex(\n        address account,\n        address curvePool\n    ) external view override returns (uint256) {\n        return IConvexHandler(controller.convexHandler()).getCrvEarned(account, curvePool);\n    }\n\n    function executeSanityCheck(address pool) external override {\n        ICurveHandler(controller.curveHandler()).reentrancyCheck(pool);\n    }\n}\n","sourcePath":"contracts/adapters/CurveAdapter.sol","type":"contract","deployment":{"address":"0x396b4Ca70A59Cf44F26C89e525212F9fc10E898C","chainid":"1","blockHeight":19070205}}