{"abi":[{"anonymous":false,"inputs":[{"indexed":true,"internalType":"address","name":"pool","type":"address"},{"indexed":true,"internalType":"uint256","name":"pid","type":"uint256"}],"name":"PoolInitialized","type":"event"},{"inputs":[],"name":"BOOSTER","outputs":[{"internalType":"contract IBooster","name":"","type":"address"}],"stateMutability":"view","type":"function"},{"inputs":[{"internalType":"address","name":"pool_","type":"address"}],"name":"assetType","outputs":[{"internalType":"enum CurvePoolUtils.AssetType","name":"","type":"uint8"}],"stateMutability":"view","type":"function"},{"inputs":[{"internalType":"address","name":"pool_","type":"address"}],"name":"basePool","outputs":[{"internalType":"address","name":"","type":"address"}],"stateMutability":"view","type":"function"},{"inputs":[{"internalType":"address","name":"pool_","type":"address"},{"internalType":"address","name":"coin_","type":"address"}],"name":"coinIndex","outputs":[{"internalType":"int128","name":"","type":"int128"}],"stateMutability":"view","type":"function"},{"inputs":[{"internalType":"address","name":"pool_","type":"address"},{"internalType":"address","name":"from_","type":"address"},{"internalType":"address","name":"to_","type":"address"}],"name":"coinIndices","outputs":[{"internalType":"int128","name":"","type":"int128"},{"internalType":"int128","name":"","type":"int128"},{"internalType":"bool","name":"","type":"bool"}],"stateMutability":"view","type":"function"},{"inputs":[{"internalType":"address","name":"pool_","type":"address"}],"name":"coins","outputs":[{"internalType":"address[]","name":"","type":"address[]"}],"stateMutability":"view","type":"function"},{"inputs":[{"internalType":"address","name":"pool_","type":"address"}],"name":"decimals","outputs":[{"internalType":"uint256[]","name":"","type":"uint256[]"}],"stateMutability":"view","type":"function"},{"inputs":[{"internalType":"address","name":"pool_","type":"address"}],"name":"getPid","outputs":[{"internalType":"uint256","name":"","type":"uint256"}],"stateMutability":"view","type":"function"},{"inputs":[{"internalType":"address","name":"pool_","type":"address"}],"name":"getRewardPool","outputs":[{"internalType":"address","name":"","type":"address"}],"stateMutability":"view","type":"function"},{"inputs":[{"internalType":"address","name":"pool_","type":"address"},{"internalType":"address","name":"coin_","type":"address"}],"name":"hasCoinAnywhere","outputs":[{"internalType":"bool","name":"","type":"bool"}],"stateMutability":"view","type":"function"},{"inputs":[{"internalType":"address","name":"pool_","type":"address"},{"internalType":"address","name":"coin_","type":"address"}],"name":"hasCoinDirectly","outputs":[{"internalType":"bool","name":"","type":"bool"}],"stateMutability":"view","type":"function"},{"inputs":[{"internalType":"address","name":"pool_","type":"address"},{"internalType":"uint256","name":"pid_","type":"uint256"}],"name":"initPool","outputs":[],"stateMutability":"nonpayable","type":"function"},{"inputs":[{"internalType":"address","name":"pool_","type":"address"}],"name":"initPool","outputs":[],"stateMutability":"nonpayable","type":"function"},{"inputs":[{"internalType":"address","name":"pool_","type":"address"}],"name":"interfaceVersion","outputs":[{"internalType":"uint256","name":"","type":"uint256"}],"stateMutability":"view","type":"function"},{"inputs":[{"internalType":"address","name":"pool_","type":"address"}],"name":"isRegistered","outputs":[{"internalType":"bool","name":"","type":"bool"}],"stateMutability":"view","type":"function"},{"inputs":[{"internalType":"uint256","name":"pid_","type":"uint256"}],"name":"isShutdownPid","outputs":[{"internalType":"bool","name":"","type":"bool"}],"stateMutability":"view","type":"function"},{"inputs":[{"internalType":"address","name":"pool_","type":"address"}],"name":"lpToken","outputs":[{"internalType":"address","name":"","type":"address"}],"stateMutability":"view","type":"function"},{"inputs":[{"internalType":"address","name":"pool_","type":"address"}],"name":"nCoins","outputs":[{"internalType":"uint256","name":"","type":"uint256"}],"stateMutability":"view","type":"function"},{"inputs":[{"internalType":"address","name":"lpToken_","type":"address"}],"name":"poolFromLpToken","outputs":[{"internalType":"address","name":"","type":"address"}],"stateMutability":"view","type":"function"}],"bytecode":"608060405234801561001057600080fd5b50611cc1806100206000396000f3fe608060405234801561001057600080fd5b50600436106101205760003560e01c806375b0ffd1116100ad578063c3c5a54711610071578063c3c5a547146102d2578063d449a832146102fe578063e40ad8ca1461031e578063effd70811461033e578063f7d372f11461035157600080fd5b806375b0ffd11461025e57806376a562a4146102795780637d0f7a881461028c578063b677560f146102ac578063bf25d02a146102bf57600080fd5b806343b55f35116100f457806343b55f35146101d8578063514a9009146101eb5780635fd5590a146101fe578063732821281461023657806373a2d4461461024b57600080fd5b8062eb8ba4146101255780631760eb5e1461015057806339d8d3ca146101715780634060c02514610194575b600080fd5b610138610133366004611864565b610364565b604051600f9190910b81526020015b60405180910390f35b61016361015e36600461189d565b6103d7565b604051908152602001610147565b61018461017f3660046118c1565b61042e565b6040519015158152602001610147565b6101c06101a236600461189d565b6001600160a01b039081166000908152600960205260409020541690565b6040516001600160a01b039091168152602001610147565b6101636101e636600461189d565b6104b3565b6101c06101f936600461189d565b610561565b61021161020c3660046118da565b6105bb565b60408051600f94850b81529290930b6020830152151591810191909152606001610147565b610249610244366004611925565b61068d565b005b6101c061025936600461189d565b61069d565b6101c073f403c135812408bfbe8713b5a23a04b3d48aae3181565b6101c061028736600461189d565b6106f7565b61029f61029a36600461189d565b610751565b6040516101479190611951565b6101846102ba366004611864565b610803565b6101636102cd36600461189d565b61086d565b6101846102e036600461189d565b6001600160a01b031660009081526020819052604090205460ff1690565b61031161030c36600461189d565b6108c4565b604051610147919061199e565b61033161032c36600461189d565b61096b565b60405161014791906119ec565b61018461034c366004611864565b6109c5565b61024961035f36600461189d565b610a2f565b6001600160a01b038216600090815260208190526040812054839060ff166103a75760405162461bcd60e51b815260040161039e90611a14565b60405180910390fd5b50506001600160a01b039182166000908152600560209081526040808320939094168252919091522054600f0b90565b6001600160a01b038116600090815260208190526040812054829060ff166104115760405162461bcd60e51b815260040161039e90611a14565b50506001600160a01b03166000908152600b602052604090205490565b604051631526fe2760e01b815260048101829052600090819073f403c135812408bfbe8713b5a23a04b3d48aae3190631526fe279060240160c060405180830381865afa158015610483573d6000803e3d6000fd5b505050506040513d601f19601f820116820180604052508101906104a79190611a6c565b98975050505050505050565b6001600160a01b038116600090815260208190526040812054829060ff166104ed5760405162461bcd60e51b815260040161039e90611a14565b6001600160a01b038381166000908152600d6020526040902054166105445760405162461bcd60e51b815260206004820152600d60248201526c1c1a59081b9bdd08199bdd5b99609a1b604482015260640161039e565b50506001600160a01b03166000908152600c602052604090205490565b6001600160a01b038116600090815260208190526040812054829060ff1661059b5760405162461bcd60e51b815260040161039e90611a14565b50506001600160a01b039081166000908152600d60205260409020541690565b6001600160a01b03831660009081526020819052604081205481908190869060ff166105f95760405162461bcd60e51b815260040161039e90611a14565b6001600160a01b0387811660008181526005602090815260408083208b861680855290835281842054958b1684528184205494845260028352818420908452909152902054600f92830b929190910b9060ff16801561067d57506001600160a01b03808a166000908152600260209081526040808320938b168352929052205460ff165b9350935093505093509350939050565b61069982600183610a3e565b5050565b6001600160a01b038116600090815260208190526040812054829060ff166106d75760405162461bcd60e51b815260040161039e90611a14565b50506001600160a01b039081166000908152600460205260409020541690565b6001600160a01b038116600090815260208190526040812054829060ff166107315760405162461bcd60e51b815260040161039e90611a14565b50506001600160a01b039081166000908152600160205260409020541690565b6001600160a01b038116600090815260208190526040902054606090829060ff1661078e5760405162461bcd60e51b815260040161039e90611a14565b6001600160a01b038316600090815260076020908152604091829020805483518184028101840190945280845290918301828280156107f657602002820191906000526020600020905b81546001600160a01b031681526001909101906020018083116107d8575b5050505050915050919050565b6001600160a01b038216600090815260208190526040812054839060ff1661083d5760405162461bcd60e51b815260040161039e90611a14565b50506001600160a01b03918216600090815260026020908152604080832093909416825291909152205460ff1690565b6001600160a01b038116600090815260208190526040812054829060ff166108a75760405162461bcd60e51b815260040161039e90611a14565b50506001600160a01b031660009081526006602052604090205490565b6001600160a01b038116600090815260208190526040902054606090829060ff166109015760405162461bcd60e51b815260040161039e90611a14565b6001600160a01b038316600090815260086020908152604091829020805483518184028101840190945280845290918301828280156107f657602002820191906000526020600020905b81548152602001906001019080831161094b575050505050915050919050565b6001600160a01b038116600090815260208190526040812054829060ff166109a55760405162461bcd60e51b815260040161039e90611a14565b50506001600160a01b03166000908152600a602052604090205460ff1690565b6001600160a01b038216600090815260208190526040812054839060ff166109ff5760405162461bcd60e51b815260040161039e90611a14565b50506001600160a01b03918216600090815260036020908152604080832093909416825291909152205460ff1690565b610a3b81600080610a3e565b50565b6001600160a01b03831660009081526020819052604090205460ff1615610a6457505050565b610a6d836112e1565b610ac85760405162461bcd60e51b815260206004820152602660248201527f4375727665526567697374727943616368653a20696e76616c6964206375727660448201526519481c1bdbdb60d21b606482015260840161039e565b6001600160a01b038316600081815260208190526040808220805460ff1916600117905551633795104960e01b815260048101929092529073f98b45fa17de75fb1ad0e7afd971b0ca00e379fc90633795104990602401602060405180830381865afa158015610b3c573d6000803e3d6000fd5b505050506040513d601f19601f82011682018060405250810190610b609190611aee565b6001600160a01b03858116600090815260016020526040902080546001600160a01b03191691831691909117905590508215610ba657610ba184828461136f565b610bb3565b610bb0848261152f565b91505b6001600160a01b0381811660009081526009602052604080822080546001600160a01b031916938816938417905551636f20d6dd60e01b815260048101929092529073f98b45fa17de75fb1ad0e7afd971b0ca00e379fc90636f20d6dd90602401602060405180830381865afa158015610c31573d6000803e3d6000fd5b505050506040513d601f19601f82011682018060405250810190610c559190611aee565b6001600160a01b03868116600090815260046020526040902080546001600160a01b031916918316918217905590915015610d7757610c9681600080610a3e565b6001600160a01b038116600090815260076020908152604080832080548251818502810185019093528083529192909190830182828015610d0057602002820191906000526020600020905b81546001600160a01b03168152600190910190602001808311610ce2575b5050505050905060005b8151811015610d74576000828281518110610d2757610d27611b0b565b6020908102919091018101516001600160a01b03808b16600090815260038452604080822092909316815292529020805460ff191660011790555080610d6c81611b21565b915050610d0a565b50505b6040516319b4e59b60e21b81526001600160a01b038616600482015273f98b45fa17de75fb1ad0e7afd971b0ca00e379fc906366d3966c90602401602060405180830381865afa158015610dcf573d6000803e3d6000fd5b505050506040513d601f19601f82011682018060405250810190610df39190611b48565b6004811115610e0457610e046119d6565b6001600160a01b0386166000908152600a60205260409020805460ff19166001836004811115610e3657610e366119d6565b021790555060405163940494f160e01b81526001600160a01b038616600482015260009073f98b45fa17de75fb1ad0e7afd971b0ca00e379fc9063940494f190602401602060405180830381865afa158015610e96573d6000803e3d6000fd5b505050506040513d601f19601f82011682018060405250810190610eba9190611b48565b604051639ac90d3d60e01b81526001600160a01b038816600482015290915060009073f98b45fa17de75fb1ad0e7afd971b0ca00e379fc90639ac90d3d9060240161010060405180830381865afa158015610f19573d6000803e3d6000fd5b505050506040513d601f19601f82011682018060405250810190610f3d9190611baf565b6040516352b5155560e01b81526001600160a01b038916600482015290915060009073f98b45fa17de75fb1ad0e7afd971b0ca00e379fc906352b515559060240161010060405180830381865afa158015610f9c573d6000803e3d6000fd5b505050506040513d601f19601f82011682018060405250810190610fc09190611c19565b905060008367ffffffffffffffff811115610fdd57610fdd611b61565b604051908082528060200260200182016040528015611006578160200160208202803683370190505b50905060005b8481101561125457600084826008811061102857611028611b0b565b602002015190506001600160a01b0381166110855760405162461bcd60e51b815260206004820181905260248201527f4375727665526567697374727943616368653a20696e76616c696420636f696e604482015260640161039e565b8083838151811061109857611098611b0b565b6001600160a01b039283166020918202929092018101919091528c821660008181526002835260408082209486168083529484528082208054600160ff199182168117909255848452600386528284208785528652828420805490911690911790558282526005845280822094825293835283812080546001600160801b0319166001600160801b038816179055908152600891829052919091209085908490811061114657611146611b0b565b602090810291909101518254600181018455600093845291909220015573eeeeeeeeeeeeeeeeeeeeeeeeeeeeeeeeeeeeeeed196001600160a01b038216016112415773c02aaa39b223fe8d0a0e5c4f27ead9083c756cc29050808383815181106111b2576111b2611b0b565b6001600160a01b039283166020918202929092018101919091528c821660008181526002835260408082209486168083529484528082208054600160ff199182168117909255848452600386528284208785528652828420805490911690911790559181526005835281812093815292909152902080546001600160801b0319166001600160801b0384161790555b508061124c81611b21565b91505061100c565b506001600160a01b0389166000908152600660209081526040808320879055600782529091208251611288928401906117d5565b5061129289611721565b6001600160a01b038a166000818152600b602052604080822093909355915189927f865db32d629b778510d2a2bd16751d214bd4a78253e6670dcebb9d1e5e3d632791a3505050505050505050565b6040516330cf540360e11b81526001600160a01b038216600482015260009073f98b45fa17de75fb1ad0e7afd971b0ca00e379fc9063619ea80690602401602060405180830381865afa925050508015611358575060408051601f3d908101601f1916820190925261135591810190611c70565b60015b61136457506000919050565b92915050565b919050565b604051631526fe2760e01b8152600481018290526000908190819073f403c135812408bfbe8713b5a23a04b3d48aae3190631526fe279060240160c060405180830381865afa1580156113c6573d6000803e3d6000fd5b505050506040513d601f19601f820116820180604052508101906113ea9190611a6c565b955050945050509250826001600160a01b0316856001600160a01b0316146114545760405162461bcd60e51b815260206004820152601f60248201527f696e76616c6964206c7020746f6b656e20666f7220637572766520706f6f6c00604482015260640161039e565b80156114a25760405162461bcd60e51b815260206004820152601760248201527f636f6e76657820706f6f6c2069732073687574646f776e000000000000000000604482015260640161039e565b6001600160a01b0382166114ee5760405162461bcd60e51b81526020600482015260136024820152721b9bc818dbdb9d995e081c1a5908199bdd5b99606a1b604482015260640161039e565b506001600160a01b039485166000908152600d6020908152604080832080546001600160a01b0319169490981693909317909655600c909552909320555050565b60008073f403c135812408bfbe8713b5a23a04b3d48aae316001600160a01b031663081e3eda6040518163ffffffff1660e01b8152600401602060405180830381865afa158015611584573d6000803e3d6000fd5b505050506040513d601f19601f820116820180604052508101906115a89190611b48565b90506000805b828110156116a157604051631526fe2760e01b8152600481018290526000908190819073f403c135812408bfbe8713b5a23a04b3d48aae3190631526fe279060240160c060405180830381865afa15801561160d573d6000803e3d6000fd5b505050506040513d601f19601f820116820180604052508101906116319190611a6c565b955050945050509250826001600160a01b0316886001600160a01b03161415806116585750805b156116655750505061168f565b506001600160a01b0388166000908152600c602052604090208390559194509091508390506116a1565b8061169981611b21565b9150506115ae565b506001600160a01b0381166116ee5760405162461bcd60e51b81526020600482015260136024820152721b9bc818dbdb9d995e081c1a5908199bdd5b99606a1b604482015260640161039e565b6001600160a01b039485166000908152600d6020526040902080546001600160a01b031916919095161790935592915050565b600060046001600160a01b0383166000908152600a602052604090205460ff166004811115611752576117526119d6565b0361175f57506002919050565b604051634903b0d160e01b8152600060048201526001600160a01b03831690634903b0d190602401602060405180830381865afa9250505080156117c0575060408051601f3d908101601f191682019092526117bd91810190611b48565b60015b6117cc57506000919050565b50600192915050565b82805482825590600052602060002090810192821561182a579160200282015b8281111561182a57825182546001600160a01b0319166001600160a01b039091161782556020909201916001909101906117f5565b5061183692915061183a565b5090565b5b80821115611836576000815560010161183b565b6001600160a01b0381168114610a3b57600080fd5b6000806040838503121561187757600080fd5b82356118828161184f565b915060208301356118928161184f565b809150509250929050565b6000602082840312156118af57600080fd5b81356118ba8161184f565b9392505050565b6000602082840312156118d357600080fd5b5035919050565b6000806000606084860312156118ef57600080fd5b83356118fa8161184f565b9250602084013561190a8161184f565b9150604084013561191a8161184f565b809150509250925092565b6000806040838503121561193857600080fd5b82356119438161184f565b946020939093013593505050565b6020808252825182820181905260009190848201906040850190845b818110156119925783516001600160a01b03168352928401929184019160010161196d565b50909695505050505050565b6020808252825182820181905260009190848201906040850190845b81811015611992578351835292840192918401916001016119ba565b634e487b7160e01b600052602160045260246000fd5b6020810160058310611a0e57634e487b7160e01b600052602160045260246000fd5b91905290565b60208082526028908201527f4375727665526567697374727943616368653a20706f6f6c206e6f7420696e696040820152671d1a585b1a5e995960c21b606082015260800190565b8051801515811461136a57600080fd5b60008060008060008060c08789031215611a8557600080fd5b8651611a908161184f565b6020880151909650611aa18161184f565b6040880151909550611ab28161184f565b6060880151909450611ac38161184f565b6080880151909350611ad48161184f565b9150611ae260a08801611a5c565b90509295509295509295565b600060208284031215611b0057600080fd5b81516118ba8161184f565b634e487b7160e01b600052603260045260246000fd5b600060018201611b4157634e487b7160e01b600052601160045260246000fd5b5060010190565b600060208284031215611b5a57600080fd5b5051919050565b634e487b7160e01b600052604160045260246000fd5b604051610100810167ffffffffffffffff81118282101715611ba957634e487b7160e01b600052604160045260246000fd5b60405290565b6000610100808385031215611bc357600080fd5b83601f840112611bd257600080fd5b611bda611b77565b908301908085831115611bec57600080fd5b845b83811015611c0f578051611c018161184f565b835260209283019201611bee565b5095945050505050565b6000610100808385031215611c2d57600080fd5b83601f840112611c3c57600080fd5b611c44611b77565b908301908085831115611c5657600080fd5b845b83811015611c0f578051835260209283019201611c58565b600060208284031215611c8257600080fd5b6118ba82611a5c56fea2646970667358221220af1b16d0bea81c7b81973a282c4db7c3a4cd9f9a0f371f3e8cf1851d988aeb7064736f6c63430008110033","bytecodeSha1":"9184dc4ea02529147deca7438a380e95a8c2ab25","compiler":{"evm_version":"london","optimizer":{"enabled":true,"runs":200},"version":"0.8.17+commit.8df45f5f"},"contractName":"CurveRegistryCacheV2","language":"Solidity","natspec":{"kind":"dev","methods":{"interfaceVersion(address)":{"details":"Version 0 uses `int128` for `coins` and `balances`, and `int128` for `get_dy` Version 1 uses `uint256` for `coins` and `balances`, and `int128` for `get_dy` Version 2 uses `uint256` for `coins` and `balances`, and `uint256` for `get_dy` They correspond with which interface the pool implements: ICurvePoolV0, ICurvePoolV1, ICurvePoolV2","notice":"Returns the Curve interface version for a given pool"}},"version":1},"opcodes":"PUSH1 0x80 PUSH1 0x40 MSTORE CALLVALUE DUP1 ISZERO PUSH2 0x10 JUMPI PUSH1 0x0 DUP1 REVERT JUMPDEST POP PUSH1 0x4 CALLDATASIZE LT PUSH2 0x120 JUMPI PUSH1 0x0 CALLDATALOAD PUSH1 0xE0 SHR DUP1 PUSH4 0x75B0FFD1 GT PUSH2 0xAD JUMPI DUP1 PUSH4 0xC3C5A547 GT PUSH2 0x71 JUMPI DUP1 PUSH4 0xC3C5A547 EQ PUSH2 0x2D2 JUMPI DUP1 PUSH4 0xD449A832 EQ PUSH2 0x2FE JUMPI DUP1 PUSH4 0xE40AD8CA EQ PUSH2 0x31E JUMPI DUP1 PUSH4 0xEFFD7081 EQ PUSH2 0x33E JUMPI DUP1 PUSH4 0xF7D372F1 EQ PUSH2 0x351 JUMPI PUSH1 0x0 DUP1 REVERT JUMPDEST DUP1 PUSH4 0x75B0FFD1 EQ PUSH2 0x25E JUMPI DUP1 PUSH4 0x76A562A4 EQ PUSH2 0x279 JUMPI DUP1 PUSH4 0x7D0F7A88 EQ PUSH2 0x28C JUMPI DUP1 PUSH4 0xB677560F EQ PUSH2 0x2AC JUMPI DUP1 PUSH4 0xBF25D02A EQ PUSH2 0x2BF JUMPI PUSH1 0x0 DUP1 REVERT JUMPDEST DUP1 PUSH4 0x43B55F35 GT PUSH2 0xF4 JUMPI DUP1 PUSH4 0x43B55F35 EQ PUSH2 0x1D8 JUMPI DUP1 PUSH4 0x514A9009 EQ PUSH2 0x1EB JUMPI DUP1 PUSH4 0x5FD5590A EQ PUSH2 0x1FE JUMPI DUP1 PUSH4 0x73282128 EQ PUSH2 0x236 JUMPI DUP1 PUSH4 0x73A2D446 EQ PUSH2 0x24B JUMPI PUSH1 0x0 DUP1 REVERT JUMPDEST DUP1 PUSH3 0xEB8BA4 EQ PUSH2 0x125 JUMPI DUP1 PUSH4 0x1760EB5E EQ PUSH2 0x150 JUMPI DUP1 PUSH4 0x39D8D3CA EQ PUSH2 0x171 JUMPI DUP1 PUSH4 0x4060C025 EQ PUSH2 0x194 JUMPI JUMPDEST PUSH1 0x0 DUP1 REVERT JUMPDEST PUSH2 0x138 PUSH2 0x133 CALLDATASIZE PUSH1 0x4 PUSH2 0x1864 JUMP JUMPDEST PUSH2 0x364 JUMP JUMPDEST PUSH1 0x40 MLOAD PUSH1 0xF SWAP2 SWAP1 SWAP2 SIGNEXTEND DUP2 MSTORE PUSH1 0x20 ADD JUMPDEST PUSH1 0x40 MLOAD DUP1 SWAP2 SUB SWAP1 RETURN JUMPDEST PUSH2 0x163 PUSH2 0x15E CALLDATASIZE PUSH1 0x4 PUSH2 0x189D JUMP JUMPDEST PUSH2 0x3D7 JUMP JUMPDEST PUSH1 0x40 MLOAD SWAP1 DUP2 MSTORE PUSH1 0x20 ADD PUSH2 0x147 JUMP JUMPDEST PUSH2 0x184 PUSH2 0x17F CALLDATASIZE PUSH1 0x4 PUSH2 0x18C1 JUMP JUMPDEST PUSH2 0x42E JUMP JUMPDEST PUSH1 0x40 MLOAD SWAP1 ISZERO ISZERO DUP2 MSTORE PUSH1 0x20 ADD PUSH2 0x147 JUMP JUMPDEST PUSH2 0x1C0 PUSH2 0x1A2 CALLDATASIZE PUSH1 0x4 PUSH2 0x189D JUMP JUMPDEST PUSH1 0x1 PUSH1 0x1 PUSH1 0xA0 SHL SUB SWAP1 DUP2 AND PUSH1 0x0 SWAP1 DUP2 MSTORE PUSH1 0x9 PUSH1 0x20 MSTORE PUSH1 0x40 SWAP1 KECCAK256 SLOAD AND SWAP1 JUMP JUMPDEST PUSH1 0x40 MLOAD PUSH1 0x1 PUSH1 0x1 PUSH1 0xA0 SHL SUB SWAP1 SWAP2 AND DUP2 MSTORE PUSH1 0x20 ADD PUSH2 0x147 JUMP JUMPDEST PUSH2 0x163 PUSH2 0x1E6 CALLDATASIZE PUSH1 0x4 PUSH2 0x189D JUMP JUMPDEST PUSH2 0x4B3 JUMP JUMPDEST PUSH2 0x1C0 PUSH2 0x1F9 CALLDATASIZE PUSH1 0x4 PUSH2 0x189D JUMP JUMPDEST PUSH2 0x561 JUMP JUMPDEST PUSH2 0x211 PUSH2 0x20C CALLDATASIZE PUSH1 0x4 PUSH2 0x18DA JUMP JUMPDEST PUSH2 0x5BB JUMP JUMPDEST PUSH1 0x40 DUP1 MLOAD PUSH1 0xF SWAP5 DUP6 SIGNEXTEND DUP2 MSTORE SWAP3 SWAP1 SWAP4 SIGNEXTEND PUSH1 0x20 DUP4 ADD MSTORE ISZERO ISZERO SWAP2 DUP2 ADD SWAP2 SWAP1 SWAP2 MSTORE PUSH1 0x60 ADD PUSH2 0x147 JUMP JUMPDEST PUSH2 0x249 PUSH2 0x244 CALLDATASIZE PUSH1 0x4 PUSH2 0x1925 JUMP JUMPDEST PUSH2 0x68D JUMP JUMPDEST STOP JUMPDEST PUSH2 0x1C0 PUSH2 0x259 CALLDATASIZE PUSH1 0x4 PUSH2 0x189D JUMP JUMPDEST PUSH2 0x69D JUMP JUMPDEST PUSH2 0x1C0 PUSH20 0xF403C135812408BFBE8713B5A23A04B3D48AAE31 DUP2 JUMP JUMPDEST PUSH2 0x1C0 PUSH2 0x287 CALLDATASIZE PUSH1 0x4 PUSH2 0x189D JUMP JUMPDEST PUSH2 0x6F7 JUMP JUMPDEST PUSH2 0x29F PUSH2 0x29A CALLDATASIZE PUSH1 0x4 PUSH2 0x189D JUMP JUMPDEST PUSH2 0x751 JUMP JUMPDEST PUSH1 0x40 MLOAD PUSH2 0x147 SWAP2 SWAP1 PUSH2 0x1951 JUMP JUMPDEST PUSH2 0x184 PUSH2 0x2BA CALLDATASIZE PUSH1 0x4 PUSH2 0x1864 JUMP JUMPDEST PUSH2 0x803 JUMP JUMPDEST PUSH2 0x163 PUSH2 0x2CD CALLDATASIZE PUSH1 0x4 PUSH2 0x189D JUMP JUMPDEST PUSH2 0x86D JUMP JUMPDEST PUSH2 0x184 PUSH2 0x2E0 CALLDATASIZE PUSH1 0x4 PUSH2 0x189D JUMP JUMPDEST PUSH1 0x1 PUSH1 0x1 PUSH1 0xA0 SHL SUB AND PUSH1 0x0 SWAP1 DUP2 MSTORE PUSH1 0x20 DUP2 SWAP1 MSTORE PUSH1 0x40 SWAP1 KECCAK256 SLOAD PUSH1 0xFF AND SWAP1 JUMP JUMPDEST PUSH2 0x311 PUSH2 0x30C CALLDATASIZE PUSH1 0x4 PUSH2 0x189D JUMP JUMPDEST PUSH2 0x8C4 JUMP JUMPDEST PUSH1 0x40 MLOAD PUSH2 0x147 SWAP2 SWAP1 PUSH2 0x199E JUMP JUMPDEST PUSH2 0x331 PUSH2 0x32C CALLDATASIZE PUSH1 0x4 PUSH2 0x189D JUMP JUMPDEST PUSH2 0x96B JUMP JUMPDEST PUSH1 0x40 MLOAD PUSH2 0x147 SWAP2 SWAP1 PUSH2 0x19EC JUMP JUMPDEST PUSH2 0x184 PUSH2 0x34C CALLDATASIZE PUSH1 0x4 PUSH2 0x1864 JUMP JUMPDEST PUSH2 0x9C5 JUMP JUMPDEST PUSH2 0x249 PUSH2 0x35F CALLDATASIZE PUSH1 0x4 PUSH2 0x189D JUMP JUMPDEST PUSH2 0xA2F JUMP JUMPDEST PUSH1 0x1 PUSH1 0x1 PUSH1 0xA0 SHL SUB DUP3 AND PUSH1 0x0 SWAP1 DUP2 MSTORE PUSH1 0x20 DUP2 SWAP1 MSTORE PUSH1 0x40 DUP2 KECCAK256 SLOAD DUP4 SWAP1 PUSH1 0xFF AND PUSH2 0x3A7 JUMPI PUSH1 0x40 MLOAD PUSH3 0x461BCD PUSH1 0xE5 SHL DUP2 MSTORE PUSH1 0x4 ADD PUSH2 0x39E SWAP1 PUSH2 0x1A14 JUMP JUMPDEST PUSH1 0x40 MLOAD DUP1 SWAP2 SUB SWAP1 REVERT JUMPDEST POP POP PUSH1 0x1 PUSH1 0x1 PUSH1 0xA0 SHL SUB SWAP2 DUP3 AND PUSH1 0x0 SWAP1 DUP2 MSTORE PUSH1 0x5 PUSH1 0x20 SWAP1 DUP2 MSTORE PUSH1 0x40 DUP1 DUP4 KECCAK256 SWAP4 SWAP1 SWAP5 AND DUP3 MSTORE SWAP2 SWAP1 SWAP2 MSTORE KECCAK256 SLOAD PUSH1 0xF SIGNEXTEND SWAP1 JUMP JUMPDEST PUSH1 0x1 PUSH1 0x1 PUSH1 0xA0 SHL SUB DUP2 AND PUSH1 0x0 SWAP1 DUP2 MSTORE PUSH1 0x20 DUP2 SWAP1 MSTORE PUSH1 0x40 DUP2 KECCAK256 SLOAD DUP3 SWAP1 PUSH1 0xFF AND PUSH2 0x411 JUMPI PUSH1 0x40 MLOAD PUSH3 0x461BCD PUSH1 0xE5 SHL DUP2 MSTORE PUSH1 0x4 ADD PUSH2 0x39E SWAP1 PUSH2 0x1A14 JUMP JUMPDEST POP POP PUSH1 0x1 PUSH1 0x1 PUSH1 0xA0 SHL SUB AND PUSH1 0x0 SWAP1 DUP2 MSTORE PUSH1 0xB PUSH1 0x20 MSTORE PUSH1 0x40 SWAP1 KECCAK256 SLOAD SWAP1 JUMP JUMPDEST PUSH1 0x40 MLOAD PUSH4 0x1526FE27 PUSH1 0xE0 SHL DUP2 MSTORE PUSH1 0x4 DUP2 ADD DUP3 SWAP1 MSTORE PUSH1 0x0 SWAP1 DUP2 SWAP1 PUSH20 0xF403C135812408BFBE8713B5A23A04B3D48AAE31 SWAP1 PUSH4 0x1526FE27 SWAP1 PUSH1 0x24 ADD PUSH1 0xC0 PUSH1 0x40 MLOAD DUP1 DUP4 SUB DUP2 DUP7 GAS STATICCALL ISZERO DUP1 ISZERO PUSH2 0x483 JUMPI RETURNDATASIZE PUSH1 0x0 DUP1 RETURNDATACOPY RETURNDATASIZE PUSH1 0x0 REVERT JUMPDEST POP POP POP POP PUSH1 0x40 MLOAD RETURNDATASIZE PUSH1 0x1F NOT PUSH1 0x1F DUP3 ADD AND DUP3 ADD DUP1 PUSH1 0x40 MSTORE POP DUP2 ADD SWAP1 PUSH2 0x4A7 SWAP2 SWAP1 PUSH2 0x1A6C JUMP JUMPDEST SWAP9 SWAP8 POP POP POP POP POP POP POP POP JUMP JUMPDEST PUSH1 0x1 PUSH1 0x1 PUSH1 0xA0 SHL SUB DUP2 AND PUSH1 0x0 SWAP1 DUP2 MSTORE PUSH1 0x20 DUP2 SWAP1 MSTORE PUSH1 0x40 DUP2 KECCAK256 SLOAD DUP3 SWAP1 PUSH1 0xFF AND PUSH2 0x4ED JUMPI PUSH1 0x40 MLOAD PUSH3 0x461BCD PUSH1 0xE5 SHL DUP2 MSTORE PUSH1 0x4 ADD PUSH2 0x39E SWAP1 PUSH2 0x1A14 JUMP JUMPDEST PUSH1 0x1 PUSH1 0x1 PUSH1 0xA0 SHL SUB DUP4 DUP2 AND PUSH1 0x0 SWAP1 DUP2 MSTORE PUSH1 0xD PUSH1 0x20 MSTORE PUSH1 0x40 SWAP1 KECCAK256 SLOAD AND PUSH2 0x544 JUMPI PUSH1 0x40 MLOAD PUSH3 0x461BCD PUSH1 0xE5 SHL DUP2 MSTORE PUSH1 0x20 PUSH1 0x4 DUP3 ADD MSTORE PUSH1 0xD PUSH1 0x24 DUP3 ADD MSTORE PUSH13 0x1C1A59081B9BDD08199BDD5B99 PUSH1 0x9A SHL PUSH1 0x44 DUP3 ADD MSTORE PUSH1 0x64 ADD PUSH2 0x39E JUMP JUMPDEST POP POP PUSH1 0x1 PUSH1 0x1 PUSH1 0xA0 SHL SUB AND PUSH1 0x0 SWAP1 DUP2 MSTORE PUSH1 0xC PUSH1 0x20 MSTORE PUSH1 0x40 SWAP1 KECCAK256 SLOAD SWAP1 JUMP JUMPDEST PUSH1 0x1 PUSH1 0x1 PUSH1 0xA0 SHL SUB DUP2 AND PUSH1 0x0 SWAP1 DUP2 MSTORE PUSH1 0x20 DUP2 SWAP1 MSTORE PUSH1 0x40 DUP2 KECCAK256 SLOAD DUP3 SWAP1 PUSH1 0xFF AND PUSH2 0x59B JUMPI PUSH1 0x40 MLOAD PUSH3 0x461BCD PUSH1 0xE5 SHL DUP2 MSTORE PUSH1 0x4 ADD PUSH2 0x39E SWAP1 PUSH2 0x1A14 JUMP JUMPDEST POP POP PUSH1 0x1 PUSH1 0x1 PUSH1 0xA0 SHL SUB SWAP1 DUP2 AND PUSH1 0x0 SWAP1 DUP2 MSTORE PUSH1 0xD PUSH1 0x20 MSTORE PUSH1 0x40 SWAP1 KECCAK256 SLOAD AND SWAP1 JUMP JUMPDEST PUSH1 0x1 PUSH1 0x1 PUSH1 0xA0 SHL SUB DUP4 AND PUSH1 0x0 SWAP1 DUP2 MSTORE PUSH1 0x20 DUP2 SWAP1 MSTORE PUSH1 0x40 DUP2 KECCAK256 SLOAD DUP2 SWAP1 DUP2 SWAP1 DUP7 SWAP1 PUSH1 0xFF AND PUSH2 0x5F9 JUMPI PUSH1 0x40 MLOAD PUSH3 0x461BCD PUSH1 0xE5 SHL DUP2 MSTORE PUSH1 0x4 ADD PUSH2 0x39E SWAP1 PUSH2 0x1A14 JUMP JUMPDEST PUSH1 0x1 PUSH1 0x1 PUSH1 0xA0 SHL SUB DUP8 DUP2 AND PUSH1 0x0 DUP2 DUP2 MSTORE PUSH1 0x5 PUSH1 0x20 SWAP1 DUP2 MSTORE PUSH1 0x40 DUP1 DUP4 KECCAK256 DUP12 DUP7 AND DUP1 DUP6 MSTORE SWAP1 DUP4 MSTORE DUP2 DUP5 KECCAK256 SLOAD SWAP6 DUP12 AND DUP5 MSTORE DUP2 DUP5 KECCAK256 SLOAD SWAP5 DUP5 MSTORE PUSH1 0x2 DUP4 MSTORE DUP2 DUP5 KECCAK256 SWAP1 DUP5 MSTORE SWAP1 SWAP2 MSTORE SWAP1 KECCAK256 SLOAD PUSH1 0xF SWAP3 DUP4 SIGNEXTEND SWAP3 SWAP2 SWAP1 SWAP2 SIGNEXTEND SWAP1 PUSH1 0xFF AND DUP1 ISZERO PUSH2 0x67D JUMPI POP PUSH1 0x1 PUSH1 0x1 PUSH1 0xA0 SHL SUB DUP1 DUP11 AND PUSH1 0x0 SWAP1 DUP2 MSTORE PUSH1 0x2 PUSH1 0x20 SWAP1 DUP2 MSTORE PUSH1 0x40 DUP1 DUP4 KECCAK256 SWAP4 DUP12 AND DUP4 MSTORE SWAP3 SWAP1 MSTORE KECCAK256 SLOAD PUSH1 0xFF AND JUMPDEST SWAP4 POP SWAP4 POP SWAP4 POP POP SWAP4 POP SWAP4 POP SWAP4 SWAP1 POP JUMP JUMPDEST PUSH2 0x699 DUP3 PUSH1 0x1 DUP4 PUSH2 0xA3E JUMP JUMPDEST POP POP JUMP JUMPDEST PUSH1 0x1 PUSH1 0x1 PUSH1 0xA0 SHL SUB DUP2 AND PUSH1 0x0 SWAP1 DUP2 MSTORE PUSH1 0x20 DUP2 SWAP1 MSTORE PUSH1 0x40 DUP2 KECCAK256 SLOAD DUP3 SWAP1 PUSH1 0xFF AND PUSH2 0x6D7 JUMPI PUSH1 0x40 MLOAD PUSH3 0x461BCD PUSH1 0xE5 SHL DUP2 MSTORE PUSH1 0x4 ADD PUSH2 0x39E SWAP1 PUSH2 0x1A14 JUMP JUMPDEST POP POP PUSH1 0x1 PUSH1 0x1 PUSH1 0xA0 SHL SUB SWAP1 DUP2 AND PUSH1 0x0 SWAP1 DUP2 MSTORE PUSH1 0x4 PUSH1 0x20 MSTORE PUSH1 0x40 SWAP1 KECCAK256 SLOAD AND SWAP1 JUMP JUMPDEST PUSH1 0x1 PUSH1 0x1 PUSH1 0xA0 SHL SUB DUP2 AND PUSH1 0x0 SWAP1 DUP2 MSTORE PUSH1 0x20 DUP2 SWAP1 MSTORE PUSH1 0x40 DUP2 KECCAK256 SLOAD DUP3 SWAP1 PUSH1 0xFF AND PUSH2 0x731 JUMPI PUSH1 0x40 MLOAD PUSH3 0x461BCD PUSH1 0xE5 SHL DUP2 MSTORE PUSH1 0x4 ADD PUSH2 0x39E SWAP1 PUSH2 0x1A14 JUMP JUMPDEST POP POP PUSH1 0x1 PUSH1 0x1 PUSH1 0xA0 SHL SUB SWAP1 DUP2 AND PUSH1 0x0 SWAP1 DUP2 MSTORE PUSH1 0x1 PUSH1 0x20 MSTORE PUSH1 0x40 SWAP1 KECCAK256 SLOAD AND SWAP1 JUMP JUMPDEST PUSH1 0x1 PUSH1 0x1 PUSH1 0xA0 SHL SUB DUP2 AND PUSH1 0x0 SWAP1 DUP2 MSTORE PUSH1 0x20 DUP2 SWAP1 MSTORE PUSH1 0x40 SWAP1 KECCAK256 SLOAD PUSH1 0x60 SWAP1 DUP3 SWAP1 PUSH1 0xFF AND PUSH2 0x78E JUMPI PUSH1 0x40 MLOAD PUSH3 0x461BCD PUSH1 0xE5 SHL DUP2 MSTORE PUSH1 0x4 ADD PUSH2 0x39E SWAP1 PUSH2 0x1A14 JUMP JUMPDEST PUSH1 0x1 PUSH1 0x1 PUSH1 0xA0 SHL SUB DUP4 AND PUSH1 0x0 SWAP1 DUP2 MSTORE PUSH1 0x7 PUSH1 0x20 SWAP1 DUP2 MSTORE PUSH1 0x40 SWAP2 DUP3 SWAP1 KECCAK256 DUP1 SLOAD DUP4 MLOAD DUP2 DUP5 MUL DUP2 ADD DUP5 ADD SWAP1 SWAP5 MSTORE DUP1 DUP5 MSTORE SWAP1 SWAP2 DUP4 ADD DUP3 DUP3 DUP1 ISZERO PUSH2 0x7F6 JUMPI PUSH1 0x20 MUL DUP3 ADD SWAP2 SWAP1 PUSH1 0x0 MSTORE PUSH1 0x20 PUSH1 0x0 KECCAK256 SWAP1 JUMPDEST DUP2 SLOAD PUSH1 0x1 PUSH1 0x1 PUSH1 0xA0 SHL SUB AND DUP2 MSTORE PUSH1 0x1 SWAP1 SWAP2 ADD SWAP1 PUSH1 0x20 ADD DUP1 DUP4 GT PUSH2 0x7D8 JUMPI JUMPDEST POP POP POP POP POP SWAP2 POP POP SWAP2 SWAP1 POP JUMP JUMPDEST PUSH1 0x1 PUSH1 0x1 PUSH1 0xA0 SHL SUB DUP3 AND PUSH1 0x0 SWAP1 DUP2 MSTORE PUSH1 0x20 DUP2 SWAP1 MSTORE PUSH1 0x40 DUP2 KECCAK256 SLOAD DUP4 SWAP1 PUSH1 0xFF AND PUSH2 0x83D JUMPI PUSH1 0x40 MLOAD PUSH3 0x461BCD PUSH1 0xE5 SHL DUP2 MSTORE PUSH1 0x4 ADD PUSH2 0x39E SWAP1 PUSH2 0x1A14 JUMP JUMPDEST POP POP PUSH1 0x1 PUSH1 0x1 PUSH1 0xA0 SHL SUB SWAP2 DUP3 AND PUSH1 0x0 SWAP1 DUP2 MSTORE PUSH1 0x2 PUSH1 0x20 SWAP1 DUP2 MSTORE PUSH1 0x40 DUP1 DUP4 KECCAK256 SWAP4 SWAP1 SWAP5 AND DUP3 MSTORE SWAP2 SWAP1 SWAP2 MSTORE KECCAK256 SLOAD PUSH1 0xFF AND SWAP1 JUMP JUMPDEST PUSH1 0x1 PUSH1 0x1 PUSH1 0xA0 SHL SUB DUP2 AND PUSH1 0x0 SWAP1 DUP2 MSTORE PUSH1 0x20 DUP2 SWAP1 MSTORE PUSH1 0x40 DUP2 KECCAK256 SLOAD DUP3 SWAP1 PUSH1 0xFF AND PUSH2 0x8A7 JUMPI PUSH1 0x40 MLOAD PUSH3 0x461BCD PUSH1 0xE5 SHL DUP2 MSTORE PUSH1 0x4 ADD PUSH2 0x39E SWAP1 PUSH2 0x1A14 JUMP JUMPDEST POP POP PUSH1 0x1 PUSH1 0x1 PUSH1 0xA0 SHL SUB AND PUSH1 0x0 SWAP1 DUP2 MSTORE PUSH1 0x6 PUSH1 0x20 MSTORE PUSH1 0x40 SWAP1 KECCAK256 SLOAD SWAP1 JUMP JUMPDEST PUSH1 0x1 PUSH1 0x1 PUSH1 0xA0 SHL SUB DUP2 AND PUSH1 0x0 SWAP1 DUP2 MSTORE PUSH1 0x20 DUP2 SWAP1 MSTORE PUSH1 0x40 SWAP1 KECCAK256 SLOAD PUSH1 0x60 SWAP1 DUP3 SWAP1 PUSH1 0xFF AND PUSH2 0x901 JUMPI PUSH1 0x40 MLOAD PUSH3 0x461BCD PUSH1 0xE5 SHL DUP2 MSTORE PUSH1 0x4 ADD PUSH2 0x39E SWAP1 PUSH2 0x1A14 JUMP JUMPDEST PUSH1 0x1 PUSH1 0x1 PUSH1 0xA0 SHL SUB DUP4 AND PUSH1 0x0 SWAP1 DUP2 MSTORE PUSH1 0x8 PUSH1 0x20 SWAP1 DUP2 MSTORE PUSH1 0x40 SWAP2 DUP3 SWAP1 KECCAK256 DUP1 SLOAD DUP4 MLOAD DUP2 DUP5 MUL DUP2 ADD DUP5 ADD SWAP1 SWAP5 MSTORE DUP1 DUP5 MSTORE SWAP1 SWAP2 DUP4 ADD DUP3 DUP3 DUP1 ISZERO PUSH2 0x7F6 JUMPI PUSH1 0x20 MUL DUP3 ADD SWAP2 SWAP1 PUSH1 0x0 MSTORE PUSH1 0x20 PUSH1 0x0 KECCAK256 SWAP1 JUMPDEST DUP2 SLOAD DUP2 MSTORE PUSH1 0x20 ADD SWAP1 PUSH1 0x1 ADD SWAP1 DUP1 DUP4 GT PUSH2 0x94B JUMPI POP POP POP POP POP SWAP2 POP POP SWAP2 SWAP1 POP JUMP JUMPDEST PUSH1 0x1 PUSH1 0x1 PUSH1 0xA0 SHL SUB DUP2 AND PUSH1 0x0 SWAP1 DUP2 MSTORE PUSH1 0x20 DUP2 SWAP1 MSTORE PUSH1 0x40 DUP2 KECCAK256 SLOAD DUP3 SWAP1 PUSH1 0xFF AND PUSH2 0x9A5 JUMPI PUSH1 0x40 MLOAD PUSH3 0x461BCD PUSH1 0xE5 SHL DUP2 MSTORE PUSH1 0x4 ADD PUSH2 0x39E SWAP1 PUSH2 0x1A14 JUMP JUMPDEST POP POP PUSH1 0x1 PUSH1 0x1 PUSH1 0xA0 SHL SUB AND PUSH1 0x0 SWAP1 DUP2 MSTORE PUSH1 0xA PUSH1 0x20 MSTORE PUSH1 0x40 SWAP1 KECCAK256 SLOAD PUSH1 0xFF AND SWAP1 JUMP JUMPDEST PUSH1 0x1 PUSH1 0x1 PUSH1 0xA0 SHL SUB DUP3 AND PUSH1 0x0 SWAP1 DUP2 MSTORE PUSH1 0x20 DUP2 SWAP1 MSTORE PUSH1 0x40 DUP2 KECCAK256 SLOAD DUP4 SWAP1 PUSH1 0xFF AND PUSH2 0x9FF JUMPI PUSH1 0x40 MLOAD PUSH3 0x461BCD PUSH1 0xE5 SHL DUP2 MSTORE PUSH1 0x4 ADD PUSH2 0x39E SWAP1 PUSH2 0x1A14 JUMP JUMPDEST POP POP PUSH1 0x1 PUSH1 0x1 PUSH1 0xA0 SHL SUB SWAP2 DUP3 AND PUSH1 0x0 SWAP1 DUP2 MSTORE PUSH1 0x3 PUSH1 0x20 SWAP1 DUP2 MSTORE PUSH1 0x40 DUP1 DUP4 KECCAK256 SWAP4 SWAP1 SWAP5 AND DUP3 MSTORE SWAP2 SWAP1 SWAP2 MSTORE KECCAK256 SLOAD PUSH1 0xFF AND SWAP1 JUMP JUMPDEST PUSH2 0xA3B DUP2 PUSH1 0x0 DUP1 PUSH2 0xA3E JUMP JUMPDEST POP JUMP JUMPDEST PUSH1 0x1 PUSH1 0x1 PUSH1 0xA0 SHL SUB DUP4 AND PUSH1 0x0 SWAP1 DUP2 MSTORE PUSH1 0x20 DUP2 SWAP1 MSTORE PUSH1 0x40 SWAP1 KECCAK256 SLOAD PUSH1 0xFF AND ISZERO PUSH2 0xA64 JUMPI POP POP POP JUMP JUMPDEST PUSH2 0xA6D DUP4 PUSH2 0x12E1 JUMP JUMPDEST PUSH2 0xAC8 JUMPI PUSH1 0x40 MLOAD PUSH3 0x461BCD PUSH1 0xE5 SHL DUP2 MSTORE PUSH1 0x20 PUSH1 0x4 DUP3 ADD MSTORE PUSH1 0x26 PUSH1 0x24 DUP3 ADD MSTORE PUSH32 0x4375727665526567697374727943616368653A20696E76616C69642063757276 PUSH1 0x44 DUP3 ADD MSTORE PUSH6 0x19481C1BDBDB PUSH1 0xD2 SHL PUSH1 0x64 DUP3 ADD MSTORE PUSH1 0x84 ADD PUSH2 0x39E JUMP JUMPDEST PUSH1 0x1 PUSH1 0x1 PUSH1 0xA0 SHL SUB DUP4 AND PUSH1 0x0 DUP2 DUP2 MSTORE PUSH1 0x20 DUP2 SWAP1 MSTORE PUSH1 0x40 DUP1 DUP3 KECCAK256 DUP1 SLOAD PUSH1 0xFF NOT AND PUSH1 0x1 OR SWAP1 SSTORE MLOAD PUSH4 0x37951049 PUSH1 0xE0 SHL DUP2 MSTORE PUSH1 0x4 DUP2 ADD SWAP3 SWAP1 SWAP3 MSTORE SWAP1 PUSH20 0xF98B45FA17DE75FB1AD0E7AFD971B0CA00E379FC SWAP1 PUSH4 0x37951049 SWAP1 PUSH1 0x24 ADD PUSH1 0x20 PUSH1 0x40 MLOAD DUP1 DUP4 SUB DUP2 DUP7 GAS STATICCALL ISZERO DUP1 ISZERO PUSH2 0xB3C JUMPI RETURNDATASIZE PUSH1 0x0 DUP1 RETURNDATACOPY RETURNDATASIZE PUSH1 0x0 REVERT JUMPDEST POP POP POP POP PUSH1 0x40 MLOAD RETURNDATASIZE PUSH1 0x1F NOT PUSH1 0x1F DUP3 ADD AND DUP3 ADD DUP1 PUSH1 0x40 MSTORE POP DUP2 ADD SWAP1 PUSH2 0xB60 SWAP2 SWAP1 PUSH2 0x1AEE JUMP JUMPDEST PUSH1 0x1 PUSH1 0x1 PUSH1 0xA0 SHL SUB DUP6 DUP2 AND PUSH1 0x0 SWAP1 DUP2 MSTORE PUSH1 0x1 PUSH1 0x20 MSTORE PUSH1 0x40 SWAP1 KECCAK256 DUP1 SLOAD PUSH1 0x1 PUSH1 0x1 PUSH1 0xA0 SHL SUB NOT AND SWAP2 DUP4 AND SWAP2 SWAP1 SWAP2 OR SWAP1 SSTORE SWAP1 POP DUP3 ISZERO PUSH2 0xBA6 JUMPI PUSH2 0xBA1 DUP5 DUP3 DUP5 PUSH2 0x136F JUMP JUMPDEST PUSH2 0xBB3 JUMP JUMPDEST PUSH2 0xBB0 DUP5 DUP3 PUSH2 0x152F JUMP JUMPDEST SWAP2 POP JUMPDEST PUSH1 0x1 PUSH1 0x1 PUSH1 0xA0 SHL SUB DUP2 DUP2 AND PUSH1 0x0 SWAP1 DUP2 MSTORE PUSH1 0x9 PUSH1 0x20 MSTORE PUSH1 0x40 DUP1 DUP3 KECCAK256 DUP1 SLOAD PUSH1 0x1 PUSH1 0x1 PUSH1 0xA0 SHL SUB NOT AND SWAP4 DUP9 AND SWAP4 DUP5 OR SWAP1 SSTORE MLOAD PUSH4 0x6F20D6DD PUSH1 0xE0 SHL DUP2 MSTORE PUSH1 0x4 DUP2 ADD SWAP3 SWAP1 SWAP3 MSTORE SWAP1 PUSH20 0xF98B45FA17DE75FB1AD0E7AFD971B0CA00E379FC SWAP1 PUSH4 0x6F20D6DD SWAP1 PUSH1 0x24 ADD PUSH1 0x20 PUSH1 0x40 MLOAD DUP1 DUP4 SUB DUP2 DUP7 GAS STATICCALL ISZERO DUP1 ISZERO PUSH2 0xC31 JUMPI RETURNDATASIZE PUSH1 0x0 DUP1 RETURNDATACOPY RETURNDATASIZE PUSH1 0x0 REVERT JUMPDEST POP POP POP POP PUSH1 0x40 MLOAD RETURNDATASIZE PUSH1 0x1F NOT PUSH1 0x1F DUP3 ADD AND DUP3 ADD DUP1 PUSH1 0x40 MSTORE POP DUP2 ADD SWAP1 PUSH2 0xC55 SWAP2 SWAP1 PUSH2 0x1AEE JUMP JUMPDEST PUSH1 0x1 PUSH1 0x1 PUSH1 0xA0 SHL SUB DUP7 DUP2 AND PUSH1 0x0 SWAP1 DUP2 MSTORE PUSH1 0x4 PUSH1 0x20 MSTORE PUSH1 0x40 SWAP1 KECCAK256 DUP1 SLOAD PUSH1 0x1 PUSH1 0x1 PUSH1 0xA0 SHL SUB NOT AND SWAP2 DUP4 AND SWAP2 DUP3 OR SWAP1 SSTORE SWAP1 SWAP2 POP ISZERO PUSH2 0xD77 JUMPI PUSH2 0xC96 DUP2 PUSH1 0x0 DUP1 PUSH2 0xA3E JUMP JUMPDEST PUSH1 0x1 PUSH1 0x1 PUSH1 0xA0 SHL SUB DUP2 AND PUSH1 0x0 SWAP1 DUP2 MSTORE PUSH1 0x7 PUSH1 0x20 SWAP1 DUP2 MSTORE PUSH1 0x40 DUP1 DUP4 KECCAK256 DUP1 SLOAD DUP3 MLOAD DUP2 DUP6 MUL DUP2 ADD DUP6 ADD SWAP1 SWAP4 MSTORE DUP1 DUP4 MSTORE SWAP2 SWAP3 SWAP1 SWAP2 SWAP1 DUP4 ADD DUP3 DUP3 DUP1 ISZERO PUSH2 0xD00 JUMPI PUSH1 0x20 MUL DUP3 ADD SWAP2 SWAP1 PUSH1 0x0 MSTORE PUSH1 0x20 PUSH1 0x0 KECCAK256 SWAP1 JUMPDEST DUP2 SLOAD PUSH1 0x1 PUSH1 0x1 PUSH1 0xA0 SHL SUB AND DUP2 MSTORE PUSH1 0x1 SWAP1 SWAP2 ADD SWAP1 PUSH1 0x20 ADD DUP1 DUP4 GT PUSH2 0xCE2 JUMPI JUMPDEST POP POP POP POP POP SWAP1 POP PUSH1 0x0 JUMPDEST DUP2 MLOAD DUP2 LT ISZERO PUSH2 0xD74 JUMPI PUSH1 0x0 DUP3 DUP3 DUP2 MLOAD DUP2 LT PUSH2 0xD27 JUMPI PUSH2 0xD27 PUSH2 0x1B0B JUMP JUMPDEST PUSH1 0x20 SWAP1 DUP2 MUL SWAP2 SWAP1 SWAP2 ADD DUP2 ADD MLOAD PUSH1 0x1 PUSH1 0x1 PUSH1 0xA0 SHL SUB DUP1 DUP12 AND PUSH1 0x0 SWAP1 DUP2 MSTORE PUSH1 0x3 DUP5 MSTORE PUSH1 0x40 DUP1 DUP3 KECCAK256 SWAP3 SWAP1 SWAP4 AND DUP2 MSTORE SWAP3 MSTORE SWAP1 KECCAK256 DUP1 SLOAD PUSH1 0xFF NOT AND PUSH1 0x1 OR SWAP1 SSTORE POP DUP1 PUSH2 0xD6C DUP2 PUSH2 0x1B21 JUMP JUMPDEST SWAP2 POP POP PUSH2 0xD0A JUMP JUMPDEST POP POP JUMPDEST PUSH1 0x40 MLOAD PUSH4 0x19B4E59B PUSH1 0xE2 SHL DUP2 MSTORE PUSH1 0x1 PUSH1 0x1 PUSH1 0xA0 SHL SUB DUP7 AND PUSH1 0x4 DUP3 ADD MSTORE PUSH20 0xF98B45FA17DE75FB1AD0E7AFD971B0CA00E379FC SWAP1 PUSH4 0x66D3966C SWAP1 PUSH1 0x24 ADD PUSH1 0x20 PUSH1 0x40 MLOAD DUP1 DUP4 SUB DUP2 DUP7 GAS STATICCALL ISZERO DUP1 ISZERO PUSH2 0xDCF JUMPI RETURNDATASIZE PUSH1 0x0 DUP1 RETURNDATACOPY RETURNDATASIZE PUSH1 0x0 REVERT JUMPDEST POP POP POP POP PUSH1 0x40 MLOAD RETURNDATASIZE PUSH1 0x1F NOT PUSH1 0x1F DUP3 ADD AND DUP3 ADD DUP1 PUSH1 0x40 MSTORE POP DUP2 ADD SWAP1 PUSH2 0xDF3 SWAP2 SWAP1 PUSH2 0x1B48 JUMP JUMPDEST PUSH1 0x4 DUP2 GT ISZERO PUSH2 0xE04 JUMPI PUSH2 0xE04 PUSH2 0x19D6 JUMP JUMPDEST PUSH1 0x1 PUSH1 0x1 PUSH1 0xA0 SHL SUB DUP7 AND PUSH1 0x0 SWAP1 DUP2 MSTORE PUSH1 0xA PUSH1 0x20 MSTORE PUSH1 0x40 SWAP1 KECCAK256 DUP1 SLOAD PUSH1 0xFF NOT AND PUSH1 0x1 DUP4 PUSH1 0x4 DUP2 GT ISZERO PUSH2 0xE36 JUMPI PUSH2 0xE36 PUSH2 0x19D6 JUMP JUMPDEST MUL OR SWAP1 SSTORE POP PUSH1 0x40 MLOAD PUSH4 0x940494F1 PUSH1 0xE0 SHL DUP2 MSTORE PUSH1 0x1 PUSH1 0x1 PUSH1 0xA0 SHL SUB DUP7 AND PUSH1 0x4 DUP3 ADD MSTORE PUSH1 0x0 SWAP1 PUSH20 0xF98B45FA17DE75FB1AD0E7AFD971B0CA00E379FC SWAP1 PUSH4 0x940494F1 SWAP1 PUSH1 0x24 ADD PUSH1 0x20 PUSH1 0x40 MLOAD DUP1 DUP4 SUB DUP2 DUP7 GAS STATICCALL ISZERO DUP1 ISZERO PUSH2 0xE96 JUMPI RETURNDATASIZE PUSH1 0x0 DUP1 RETURNDATACOPY RETURNDATASIZE PUSH1 0x0 REVERT JUMPDEST POP POP POP POP PUSH1 0x40 MLOAD RETURNDATASIZE PUSH1 0x1F NOT PUSH1 0x1F DUP3 ADD AND DUP3 ADD DUP1 PUSH1 0x40 MSTORE POP DUP2 ADD SWAP1 PUSH2 0xEBA SWAP2 SWAP1 PUSH2 0x1B48 JUMP JUMPDEST PUSH1 0x40 MLOAD PUSH4 0x9AC90D3D PUSH1 0xE0 SHL DUP2 MSTORE PUSH1 0x1 PUSH1 0x1 PUSH1 0xA0 SHL SUB DUP9 AND PUSH1 0x4 DUP3 ADD MSTORE SWAP1 SWAP2 POP PUSH1 0x0 SWAP1 PUSH20 0xF98B45FA17DE75FB1AD0E7AFD971B0CA00E379FC SWAP1 PUSH4 0x9AC90D3D SWAP1 PUSH1 0x24 ADD PUSH2 0x100 PUSH1 0x40 MLOAD DUP1 DUP4 SUB DUP2 DUP7 GAS STATICCALL ISZERO DUP1 ISZERO PUSH2 0xF19 JUMPI RETURNDATASIZE PUSH1 0x0 DUP1 RETURNDATACOPY RETURNDATASIZE PUSH1 0x0 REVERT JUMPDEST POP POP POP POP PUSH1 0x40 MLOAD RETURNDATASIZE PUSH1 0x1F NOT PUSH1 0x1F DUP3 ADD AND DUP3 ADD DUP1 PUSH1 0x40 MSTORE POP DUP2 ADD SWAP1 PUSH2 0xF3D SWAP2 SWAP1 PUSH2 0x1BAF JUMP JUMPDEST PUSH1 0x40 MLOAD PUSH4 0x52B51555 PUSH1 0xE0 SHL DUP2 MSTORE PUSH1 0x1 PUSH1 0x1 PUSH1 0xA0 SHL SUB DUP10 AND PUSH1 0x4 DUP3 ADD MSTORE SWAP1 SWAP2 POP PUSH1 0x0 SWAP1 PUSH20 0xF98B45FA17DE75FB1AD0E7AFD971B0CA00E379FC SWAP1 PUSH4 0x52B51555 SWAP1 PUSH1 0x24 ADD PUSH2 0x100 PUSH1 0x40 MLOAD DUP1 DUP4 SUB DUP2 DUP7 GAS STATICCALL ISZERO DUP1 ISZERO PUSH2 0xF9C JUMPI RETURNDATASIZE PUSH1 0x0 DUP1 RETURNDATACOPY RETURNDATASIZE PUSH1 0x0 REVERT JUMPDEST POP POP POP POP PUSH1 0x40 MLOAD RETURNDATASIZE PUSH1 0x1F NOT PUSH1 0x1F DUP3 ADD AND DUP3 ADD DUP1 PUSH1 0x40 MSTORE POP DUP2 ADD SWAP1 PUSH2 0xFC0 SWAP2 SWAP1 PUSH2 0x1C19 JUMP JUMPDEST SWAP1 POP PUSH1 0x0 DUP4 PUSH8 0xFFFFFFFFFFFFFFFF DUP2 GT ISZERO PUSH2 0xFDD JUMPI PUSH2 0xFDD PUSH2 0x1B61 JUMP JUMPDEST PUSH1 0x40 MLOAD SWAP1 DUP1 DUP3 MSTORE DUP1 PUSH1 0x20 MUL PUSH1 0x20 ADD DUP3 ADD PUSH1 0x40 MSTORE DUP1 ISZERO PUSH2 0x1006 JUMPI DUP2 PUSH1 0x20 ADD PUSH1 0x20 DUP3 MUL DUP1 CALLDATASIZE DUP4 CALLDATACOPY ADD SWAP1 POP JUMPDEST POP SWAP1 POP PUSH1 0x0 JUMPDEST DUP5 DUP2 LT ISZERO PUSH2 0x1254 JUMPI PUSH1 0x0 DUP5 DUP3 PUSH1 0x8 DUP2 LT PUSH2 0x1028 JUMPI PUSH2 0x1028 PUSH2 0x1B0B JUMP JUMPDEST PUSH1 0x20 MUL ADD MLOAD SWAP1 POP PUSH1 0x1 PUSH1 0x1 PUSH1 0xA0 SHL SUB DUP2 AND PUSH2 0x1085 JUMPI PUSH1 0x40 MLOAD PUSH3 0x461BCD PUSH1 0xE5 SHL DUP2 MSTORE PUSH1 0x20 PUSH1 0x4 DUP3 ADD DUP2 SWAP1 MSTORE PUSH1 0x24 DUP3 ADD MSTORE PUSH32 0x4375727665526567697374727943616368653A20696E76616C696420636F696E PUSH1 0x44 DUP3 ADD MSTORE PUSH1 0x64 ADD PUSH2 0x39E JUMP JUMPDEST DUP1 DUP4 DUP4 DUP2 MLOAD DUP2 LT PUSH2 0x1098 JUMPI PUSH2 0x1098 PUSH2 0x1B0B JUMP JUMPDEST PUSH1 0x1 PUSH1 0x1 PUSH1 0xA0 SHL SUB SWAP3 DUP4 AND PUSH1 0x20 SWAP2 DUP3 MUL SWAP3 SWAP1 SWAP3 ADD DUP2 ADD SWAP2 SWAP1 SWAP2 MSTORE DUP13 DUP3 AND PUSH1 0x0 DUP2 DUP2 MSTORE PUSH1 0x2 DUP4 MSTORE PUSH1 0x40 DUP1 DUP3 KECCAK256 SWAP5 DUP7 AND DUP1 DUP4 MSTORE SWAP5 DUP5 MSTORE DUP1 DUP3 KECCAK256 DUP1 SLOAD PUSH1 0x1 PUSH1 0xFF NOT SWAP2 DUP3 AND DUP2 OR SWAP1 SWAP3 SSTORE DUP5 DUP5 MSTORE PUSH1 0x3 DUP7 MSTORE DUP3 DUP5 KECCAK256 DUP8 DUP6 MSTORE DUP7 MSTORE DUP3 DUP5 KECCAK256 DUP1 SLOAD SWAP1 SWAP2 AND SWAP1 SWAP2 OR SWAP1 SSTORE DUP3 DUP3 MSTORE PUSH1 0x5 DUP5 MSTORE DUP1 DUP3 KECCAK256 SWAP5 DUP3 MSTORE SWAP4 DUP4 MSTORE DUP4 DUP2 KECCAK256 DUP1 SLOAD PUSH1 0x1 PUSH1 0x1 PUSH1 0x80 SHL SUB NOT AND PUSH1 0x1 PUSH1 0x1 PUSH1 0x80 SHL SUB DUP9 AND OR SWAP1 SSTORE SWAP1 DUP2 MSTORE PUSH1 0x8 SWAP2 DUP3 SWAP1 MSTORE SWAP2 SWAP1 SWAP2 KECCAK256 SWAP1 DUP6 SWAP1 DUP5 SWAP1 DUP2 LT PUSH2 0x1146 JUMPI PUSH2 0x1146 PUSH2 0x1B0B JUMP JUMPDEST PUSH1 0x20 SWAP1 DUP2 MUL SWAP2 SWAP1 SWAP2 ADD MLOAD DUP3 SLOAD PUSH1 0x1 DUP2 ADD DUP5 SSTORE PUSH1 0x0 SWAP4 DUP5 MSTORE SWAP2 SWAP1 SWAP3 KECCAK256 ADD SSTORE PUSH20 0xEEEEEEEEEEEEEEEEEEEEEEEEEEEEEEEEEEEEEEED NOT PUSH1 0x1 PUSH1 0x1 PUSH1 0xA0 SHL SUB DUP3 AND ADD PUSH2 0x1241 JUMPI PUSH20 0xC02AAA39B223FE8D0A0E5C4F27EAD9083C756CC2 SWAP1 POP DUP1 DUP4 DUP4 DUP2 MLOAD DUP2 LT PUSH2 0x11B2 JUMPI PUSH2 0x11B2 PUSH2 0x1B0B JUMP JUMPDEST PUSH1 0x1 PUSH1 0x1 PUSH1 0xA0 SHL SUB SWAP3 DUP4 AND PUSH1 0x20 SWAP2 DUP3 MUL SWAP3 SWAP1 SWAP3 ADD DUP2 ADD SWAP2 SWAP1 SWAP2 MSTORE DUP13 DUP3 AND PUSH1 0x0 DUP2 DUP2 MSTORE PUSH1 0x2 DUP4 MSTORE PUSH1 0x40 DUP1 DUP3 KECCAK256 SWAP5 DUP7 AND DUP1 DUP4 MSTORE SWAP5 DUP5 MSTORE DUP1 DUP3 KECCAK256 DUP1 SLOAD PUSH1 0x1 PUSH1 0xFF NOT SWAP2 DUP3 AND DUP2 OR SWAP1 SWAP3 SSTORE DUP5 DUP5 MSTORE PUSH1 0x3 DUP7 MSTORE DUP3 DUP5 KECCAK256 DUP8 DUP6 MSTORE DUP7 MSTORE DUP3 DUP5 KECCAK256 DUP1 SLOAD SWAP1 SWAP2 AND SWAP1 SWAP2 OR SWAP1 SSTORE SWAP2 DUP2 MSTORE PUSH1 0x5 DUP4 MSTORE DUP2 DUP2 KECCAK256 SWAP4 DUP2 MSTORE SWAP3 SWAP1 SWAP2 MSTORE SWAP1 KECCAK256 DUP1 SLOAD PUSH1 0x1 PUSH1 0x1 PUSH1 0x80 SHL SUB NOT AND PUSH1 0x1 PUSH1 0x1 PUSH1 0x80 SHL SUB DUP5 AND OR SWAP1 SSTORE JUMPDEST POP DUP1 PUSH2 0x124C DUP2 PUSH2 0x1B21 JUMP JUMPDEST SWAP2 POP POP PUSH2 0x100C JUMP JUMPDEST POP PUSH1 0x1 PUSH1 0x1 PUSH1 0xA0 SHL SUB DUP10 AND PUSH1 0x0 SWAP1 DUP2 MSTORE PUSH1 0x6 PUSH1 0x20 SWAP1 DUP2 MSTORE PUSH1 0x40 DUP1 DUP4 KECCAK256 DUP8 SWAP1 SSTORE PUSH1 0x7 DUP3 MSTORE SWAP1 SWAP2 KECCAK256 DUP3 MLOAD PUSH2 0x1288 SWAP3 DUP5 ADD SWAP1 PUSH2 0x17D5 JUMP JUMPDEST POP PUSH2 0x1292 DUP10 PUSH2 0x1721 JUMP JUMPDEST PUSH1 0x1 PUSH1 0x1 PUSH1 0xA0 SHL SUB DUP11 AND PUSH1 0x0 DUP2 DUP2 MSTORE PUSH1 0xB PUSH1 0x20 MSTORE PUSH1 0x40 DUP1 DUP3 KECCAK256 SWAP4 SWAP1 SWAP4 SSTORE SWAP2 MLOAD DUP10 SWAP3 PUSH32 0x865DB32D629B778510D2A2BD16751D214BD4A78253E6670DCEBB9D1E5E3D6327 SWAP2 LOG3 POP POP POP POP POP POP POP POP POP JUMP JUMPDEST PUSH1 0x40 MLOAD PUSH4 0x30CF5403 PUSH1 0xE1 SHL DUP2 MSTORE PUSH1 0x1 PUSH1 0x1 PUSH1 0xA0 SHL SUB DUP3 AND PUSH1 0x4 DUP3 ADD MSTORE PUSH1 0x0 SWAP1 PUSH20 0xF98B45FA17DE75FB1AD0E7AFD971B0CA00E379FC SWAP1 PUSH4 0x619EA806 SWAP1 PUSH1 0x24 ADD PUSH1 0x20 PUSH1 0x40 MLOAD DUP1 DUP4 SUB DUP2 DUP7 GAS STATICCALL SWAP3 POP POP POP DUP1 ISZERO PUSH2 0x1358 JUMPI POP PUSH1 0x40 DUP1 MLOAD PUSH1 0x1F RETURNDATASIZE SWAP1 DUP2 ADD PUSH1 0x1F NOT AND DUP3 ADD SWAP1 SWAP3 MSTORE PUSH2 0x1355 SWAP2 DUP2 ADD SWAP1 PUSH2 0x1C70 JUMP JUMPDEST PUSH1 0x1 JUMPDEST PUSH2 0x1364 JUMPI POP PUSH1 0x0 SWAP2 SWAP1 POP JUMP JUMPDEST SWAP3 SWAP2 POP POP JUMP JUMPDEST SWAP2 SWAP1 POP JUMP JUMPDEST PUSH1 0x40 MLOAD PUSH4 0x1526FE27 PUSH1 0xE0 SHL DUP2 MSTORE PUSH1 0x4 DUP2 ADD DUP3 SWAP1 MSTORE PUSH1 0x0 SWAP1 DUP2 SWAP1 DUP2 SWAP1 PUSH20 0xF403C135812408BFBE8713B5A23A04B3D48AAE31 SWAP1 PUSH4 0x1526FE27 SWAP1 PUSH1 0x24 ADD PUSH1 0xC0 PUSH1 0x40 MLOAD DUP1 DUP4 SUB DUP2 DUP7 GAS STATICCALL ISZERO DUP1 ISZERO PUSH2 0x13C6 JUMPI RETURNDATASIZE PUSH1 0x0 DUP1 RETURNDATACOPY RETURNDATASIZE PUSH1 0x0 REVERT JUMPDEST POP POP POP POP PUSH1 0x40 MLOAD RETURNDATASIZE PUSH1 0x1F NOT PUSH1 0x1F DUP3 ADD AND DUP3 ADD DUP1 PUSH1 0x40 MSTORE POP DUP2 ADD SWAP1 PUSH2 0x13EA SWAP2 SWAP1 PUSH2 0x1A6C JUMP JUMPDEST SWAP6 POP POP SWAP5 POP POP POP SWAP3 POP DUP3 PUSH1 0x1 PUSH1 0x1 PUSH1 0xA0 SHL SUB AND DUP6 PUSH1 0x1 PUSH1 0x1 PUSH1 0xA0 SHL SUB AND EQ PUSH2 0x1454 JUMPI PUSH1 0x40 MLOAD PUSH3 0x461BCD PUSH1 0xE5 SHL DUP2 MSTORE PUSH1 0x20 PUSH1 0x4 DUP3 ADD MSTORE PUSH1 0x1F PUSH1 0x24 DUP3 ADD MSTORE PUSH32 0x696E76616C6964206C7020746F6B656E20666F7220637572766520706F6F6C00 PUSH1 0x44 DUP3 ADD MSTORE PUSH1 0x64 ADD PUSH2 0x39E JUMP JUMPDEST DUP1 ISZERO PUSH2 0x14A2 JUMPI PUSH1 0x40 MLOAD PUSH3 0x461BCD PUSH1 0xE5 SHL DUP2 MSTORE PUSH1 0x20 PUSH1 0x4 DUP3 ADD MSTORE PUSH1 0x17 PUSH1 0x24 DUP3 ADD MSTORE PUSH32 0x636F6E76657820706F6F6C2069732073687574646F776E000000000000000000 PUSH1 0x44 DUP3 ADD MSTORE PUSH1 0x64 ADD PUSH2 0x39E JUMP JUMPDEST PUSH1 0x1 PUSH1 0x1 PUSH1 0xA0 SHL SUB DUP3 AND PUSH2 0x14EE JUMPI PUSH1 0x40 MLOAD PUSH3 0x461BCD PUSH1 0xE5 SHL DUP2 MSTORE PUSH1 0x20 PUSH1 0x4 DUP3 ADD MSTORE PUSH1 0x13 PUSH1 0x24 DUP3 ADD MSTORE PUSH19 0x1B9BC818DBDB9D995E081C1A5908199BDD5B99 PUSH1 0x6A SHL PUSH1 0x44 DUP3 ADD MSTORE PUSH1 0x64 ADD PUSH2 0x39E JUMP JUMPDEST POP PUSH1 0x1 PUSH1 0x1 PUSH1 0xA0 SHL SUB SWAP5 DUP6 AND PUSH1 0x0 SWAP1 DUP2 MSTORE PUSH1 0xD PUSH1 0x20 SWAP1 DUP2 MSTORE PUSH1 0x40 DUP1 DUP4 KECCAK256 DUP1 SLOAD PUSH1 0x1 PUSH1 0x1 PUSH1 0xA0 SHL SUB NOT AND SWAP5 SWAP1 SWAP9 AND SWAP4 SWAP1 SWAP4 OR SWAP1 SWAP7 SSTORE PUSH1 0xC SWAP1 SWAP6 MSTORE SWAP1 SWAP4 KECCAK256 SSTORE POP POP JUMP JUMPDEST PUSH1 0x0 DUP1 PUSH20 0xF403C135812408BFBE8713B5A23A04B3D48AAE31 PUSH1 0x1 PUSH1 0x1 PUSH1 0xA0 SHL SUB AND PUSH4 0x81E3EDA PUSH1 0x40 MLOAD DUP2 PUSH4 0xFFFFFFFF AND PUSH1 0xE0 SHL DUP2 MSTORE PUSH1 0x4 ADD PUSH1 0x20 PUSH1 0x40 MLOAD DUP1 DUP4 SUB DUP2 DUP7 GAS STATICCALL ISZERO DUP1 ISZERO PUSH2 0x1584 JUMPI RETURNDATASIZE PUSH1 0x0 DUP1 RETURNDATACOPY RETURNDATASIZE PUSH1 0x0 REVERT JUMPDEST POP POP POP POP PUSH1 0x40 MLOAD RETURNDATASIZE PUSH1 0x1F NOT PUSH1 0x1F DUP3 ADD AND DUP3 ADD DUP1 PUSH1 0x40 MSTORE POP DUP2 ADD SWAP1 PUSH2 0x15A8 SWAP2 SWAP1 PUSH2 0x1B48 JUMP JUMPDEST SWAP1 POP PUSH1 0x0 DUP1 JUMPDEST DUP3 DUP2 LT ISZERO PUSH2 0x16A1 JUMPI PUSH1 0x40 MLOAD PUSH4 0x1526FE27 PUSH1 0xE0 SHL DUP2 MSTORE PUSH1 0x4 DUP2 ADD DUP3 SWAP1 MSTORE PUSH1 0x0 SWAP1 DUP2 SWAP1 DUP2 SWAP1 PUSH20 0xF403C135812408BFBE8713B5A23A04B3D48AAE31 SWAP1 PUSH4 0x1526FE27 SWAP1 PUSH1 0x24 ADD PUSH1 0xC0 PUSH1 0x40 MLOAD DUP1 DUP4 SUB DUP2 DUP7 GAS STATICCALL ISZERO DUP1 ISZERO PUSH2 0x160D JUMPI RETURNDATASIZE PUSH1 0x0 DUP1 RETURNDATACOPY RETURNDATASIZE PUSH1 0x0 REVERT JUMPDEST POP POP POP POP PUSH1 0x40 MLOAD RETURNDATASIZE PUSH1 0x1F NOT PUSH1 0x1F DUP3 ADD AND DUP3 ADD DUP1 PUSH1 0x40 MSTORE POP DUP2 ADD SWAP1 PUSH2 0x1631 SWAP2 SWAP1 PUSH2 0x1A6C JUMP JUMPDEST SWAP6 POP POP SWAP5 POP POP POP SWAP3 POP DUP3 PUSH1 0x1 PUSH1 0x1 PUSH1 0xA0 SHL SUB AND DUP9 PUSH1 0x1 PUSH1 0x1 PUSH1 0xA0 SHL SUB AND EQ ISZERO DUP1 PUSH2 0x1658 JUMPI POP DUP1 JUMPDEST ISZERO PUSH2 0x1665 JUMPI POP POP POP PUSH2 0x168F JUMP JUMPDEST POP PUSH1 0x1 PUSH1 0x1 PUSH1 0xA0 SHL SUB DUP9 AND PUSH1 0x0 SWAP1 DUP2 MSTORE PUSH1 0xC PUSH1 0x20 MSTORE PUSH1 0x40 SWAP1 KECCAK256 DUP4 SWAP1 SSTORE SWAP2 SWAP5 POP SWAP1 SWAP2 POP DUP4 SWAP1 POP PUSH2 0x16A1 JUMP JUMPDEST DUP1 PUSH2 0x1699 DUP2 PUSH2 0x1B21 JUMP JUMPDEST SWAP2 POP POP PUSH2 0x15AE JUMP JUMPDEST POP PUSH1 0x1 PUSH1 0x1 PUSH1 0xA0 SHL SUB DUP2 AND PUSH2 0x16EE JUMPI PUSH1 0x40 MLOAD PUSH3 0x461BCD PUSH1 0xE5 SHL DUP2 MSTORE PUSH1 0x20 PUSH1 0x4 DUP3 ADD MSTORE PUSH1 0x13 PUSH1 0x24 DUP3 ADD MSTORE PUSH19 0x1B9BC818DBDB9D995E081C1A5908199BDD5B99 PUSH1 0x6A SHL PUSH1 0x44 DUP3 ADD MSTORE PUSH1 0x64 ADD PUSH2 0x39E JUMP JUMPDEST PUSH1 0x1 PUSH1 0x1 PUSH1 0xA0 SHL SUB SWAP5 DUP6 AND PUSH1 0x0 SWAP1 DUP2 MSTORE PUSH1 0xD PUSH1 0x20 MSTORE PUSH1 0x40 SWAP1 KECCAK256 DUP1 SLOAD PUSH1 0x1 PUSH1 0x1 PUSH1 0xA0 SHL SUB NOT AND SWAP2 SWAP1 SWAP6 AND OR SWAP1 SWAP4 SSTORE SWAP3 SWAP2 POP POP JUMP JUMPDEST PUSH1 0x0 PUSH1 0x4 PUSH1 0x1 PUSH1 0x1 PUSH1 0xA0 SHL SUB DUP4 AND PUSH1 0x0 SWAP1 DUP2 MSTORE PUSH1 0xA PUSH1 0x20 MSTORE PUSH1 0x40 SWAP1 KECCAK256 SLOAD PUSH1 0xFF AND PUSH1 0x4 DUP2 GT ISZERO PUSH2 0x1752 JUMPI PUSH2 0x1752 PUSH2 0x19D6 JUMP JUMPDEST SUB PUSH2 0x175F JUMPI POP PUSH1 0x2 SWAP2 SWAP1 POP JUMP JUMPDEST PUSH1 0x40 MLOAD PUSH4 0x4903B0D1 PUSH1 0xE0 SHL DUP2 MSTORE PUSH1 0x0 PUSH1 0x4 DUP3 ADD MSTORE PUSH1 0x1 PUSH1 0x1 PUSH1 0xA0 SHL SUB DUP4 AND SWAP1 PUSH4 0x4903B0D1 SWAP1 PUSH1 0x24 ADD PUSH1 0x20 PUSH1 0x40 MLOAD DUP1 DUP4 SUB DUP2 DUP7 GAS STATICCALL SWAP3 POP POP POP DUP1 ISZERO PUSH2 0x17C0 JUMPI POP PUSH1 0x40 DUP1 MLOAD PUSH1 0x1F RETURNDATASIZE SWAP1 DUP2 ADD PUSH1 0x1F NOT AND DUP3 ADD SWAP1 SWAP3 MSTORE PUSH2 0x17BD SWAP2 DUP2 ADD SWAP1 PUSH2 0x1B48 JUMP JUMPDEST PUSH1 0x1 JUMPDEST PUSH2 0x17CC JUMPI POP PUSH1 0x0 SWAP2 SWAP1 POP JUMP JUMPDEST POP PUSH1 0x1 SWAP3 SWAP2 POP POP JUMP JUMPDEST DUP3 DUP1 SLOAD DUP3 DUP3 SSTORE SWAP1 PUSH1 0x0 MSTORE PUSH1 0x20 PUSH1 0x0 KECCAK256 SWAP1 DUP2 ADD SWAP3 DUP3 ISZERO PUSH2 0x182A JUMPI SWAP2 PUSH1 0x20 MUL DUP3 ADD JUMPDEST DUP3 DUP2 GT ISZERO PUSH2 0x182A JUMPI DUP3 MLOAD DUP3 SLOAD PUSH1 0x1 PUSH1 0x1 PUSH1 0xA0 SHL SUB NOT AND PUSH1 0x1 PUSH1 0x1 PUSH1 0xA0 SHL SUB SWAP1 SWAP2 AND OR DUP3 SSTORE PUSH1 0x20 SWAP1 SWAP3 ADD SWAP2 PUSH1 0x1 SWAP1 SWAP2 ADD SWAP1 PUSH2 0x17F5 JUMP JUMPDEST POP PUSH2 0x1836 SWAP3 SWAP2 POP PUSH2 0x183A JUMP JUMPDEST POP SWAP1 JUMP JUMPDEST JUMPDEST DUP1 DUP3 GT ISZERO PUSH2 0x1836 JUMPI PUSH1 0x0 DUP2 SSTORE PUSH1 0x1 ADD PUSH2 0x183B JUMP JUMPDEST PUSH1 0x1 PUSH1 0x1 PUSH1 0xA0 SHL SUB DUP2 AND DUP2 EQ PUSH2 0xA3B JUMPI PUSH1 0x0 DUP1 REVERT JUMPDEST PUSH1 0x0 DUP1 PUSH1 0x40 DUP4 DUP6 SUB SLT ISZERO PUSH2 0x1877 JUMPI PUSH1 0x0 DUP1 REVERT JUMPDEST DUP3 CALLDATALOAD PUSH2 0x1882 DUP2 PUSH2 0x184F JUMP JUMPDEST SWAP2 POP PUSH1 0x20 DUP4 ADD CALLDATALOAD PUSH2 0x1892 DUP2 PUSH2 0x184F JUMP JUMPDEST DUP1 SWAP2 POP POP SWAP3 POP SWAP3 SWAP1 POP JUMP JUMPDEST PUSH1 0x0 PUSH1 0x20 DUP3 DUP5 SUB SLT ISZERO PUSH2 0x18AF JUMPI PUSH1 0x0 DUP1 REVERT JUMPDEST DUP2 CALLDATALOAD PUSH2 0x18BA DUP2 PUSH2 0x184F JUMP JUMPDEST SWAP4 SWAP3 POP POP POP JUMP JUMPDEST PUSH1 0x0 PUSH1 0x20 DUP3 DUP5 SUB SLT ISZERO PUSH2 0x18D3 JUMPI PUSH1 0x0 DUP1 REVERT JUMPDEST POP CALLDATALOAD SWAP2 SWAP1 POP JUMP JUMPDEST PUSH1 0x0 DUP1 PUSH1 0x0 PUSH1 0x60 DUP5 DUP7 SUB SLT ISZERO PUSH2 0x18EF JUMPI PUSH1 0x0 DUP1 REVERT JUMPDEST DUP4 CALLDATALOAD PUSH2 0x18FA DUP2 PUSH2 0x184F JUMP JUMPDEST SWAP3 POP PUSH1 0x20 DUP5 ADD CALLDATALOAD PUSH2 0x190A DUP2 PUSH2 0x184F JUMP JUMPDEST SWAP2 POP PUSH1 0x40 DUP5 ADD CALLDATALOAD PUSH2 0x191A DUP2 PUSH2 0x184F JUMP JUMPDEST DUP1 SWAP2 POP POP SWAP3 POP SWAP3 POP SWAP3 JUMP JUMPDEST PUSH1 0x0 DUP1 PUSH1 0x40 DUP4 DUP6 SUB SLT ISZERO PUSH2 0x1938 JUMPI PUSH1 0x0 DUP1 REVERT JUMPDEST DUP3 CALLDATALOAD PUSH2 0x1943 DUP2 PUSH2 0x184F JUMP JUMPDEST SWAP5 PUSH1 0x20 SWAP4 SWAP1 SWAP4 ADD CALLDATALOAD SWAP4 POP POP POP JUMP JUMPDEST PUSH1 0x20 DUP1 DUP3 MSTORE DUP3 MLOAD DUP3 DUP3 ADD DUP2 SWAP1 MSTORE PUSH1 0x0 SWAP2 SWAP1 DUP5 DUP3 ADD SWAP1 PUSH1 0x40 DUP6 ADD SWAP1 DUP5 JUMPDEST DUP2 DUP2 LT ISZERO PUSH2 0x1992 JUMPI DUP4 MLOAD PUSH1 0x1 PUSH1 0x1 PUSH1 0xA0 SHL SUB AND DUP4 MSTORE SWAP3 DUP5 ADD SWAP3 SWAP2 DUP5 ADD SWAP2 PUSH1 0x1 ADD PUSH2 0x196D JUMP JUMPDEST POP SWAP1 SWAP7 SWAP6 POP POP POP POP POP POP JUMP JUMPDEST PUSH1 0x20 DUP1 DUP3 MSTORE DUP3 MLOAD DUP3 DUP3 ADD DUP2 SWAP1 MSTORE PUSH1 0x0 SWAP2 SWAP1 DUP5 DUP3 ADD SWAP1 PUSH1 0x40 DUP6 ADD SWAP1 DUP5 JUMPDEST DUP2 DUP2 LT ISZERO PUSH2 0x1992 JUMPI DUP4 MLOAD DUP4 MSTORE SWAP3 DUP5 ADD SWAP3 SWAP2 DUP5 ADD SWAP2 PUSH1 0x1 ADD PUSH2 0x19BA JUMP JUMPDEST PUSH4 0x4E487B71 PUSH1 0xE0 SHL PUSH1 0x0 MSTORE PUSH1 0x21 PUSH1 0x4 MSTORE PUSH1 0x24 PUSH1 0x0 REVERT JUMPDEST PUSH1 0x20 DUP2 ADD PUSH1 0x5 DUP4 LT PUSH2 0x1A0E JUMPI PUSH4 0x4E487B71 PUSH1 0xE0 SHL PUSH1 0x0 MSTORE PUSH1 0x21 PUSH1 0x4 MSTORE PUSH1 0x24 PUSH1 0x0 REVERT JUMPDEST SWAP2 SWAP1 MSTORE SWAP1 JUMP JUMPDEST PUSH1 0x20 DUP1 DUP3 MSTORE PUSH1 0x28 SWAP1 DUP3 ADD MSTORE PUSH32 0x4375727665526567697374727943616368653A20706F6F6C206E6F7420696E69 PUSH1 0x40 DUP3 ADD MSTORE PUSH8 0x1D1A585B1A5E9959 PUSH1 0xC2 SHL PUSH1 0x60 DUP3 ADD MSTORE PUSH1 0x80 ADD SWAP1 JUMP JUMPDEST DUP1 MLOAD DUP1 ISZERO ISZERO DUP2 EQ PUSH2 0x136A JUMPI PUSH1 0x0 DUP1 REVERT JUMPDEST PUSH1 0x0 DUP1 PUSH1 0x0 DUP1 PUSH1 0x0 DUP1 PUSH1 0xC0 DUP8 DUP10 SUB SLT ISZERO PUSH2 0x1A85 JUMPI PUSH1 0x0 DUP1 REVERT JUMPDEST DUP7 MLOAD PUSH2 0x1A90 DUP2 PUSH2 0x184F JUMP JUMPDEST PUSH1 0x20 DUP9 ADD MLOAD SWAP1 SWAP7 POP PUSH2 0x1AA1 DUP2 PUSH2 0x184F JUMP JUMPDEST PUSH1 0x40 DUP9 ADD MLOAD SWAP1 SWAP6 POP PUSH2 0x1AB2 DUP2 PUSH2 0x184F JUMP JUMPDEST PUSH1 0x60 DUP9 ADD MLOAD SWAP1 SWAP5 POP PUSH2 0x1AC3 DUP2 PUSH2 0x184F JUMP JUMPDEST PUSH1 0x80 DUP9 ADD MLOAD SWAP1 SWAP4 POP PUSH2 0x1AD4 DUP2 PUSH2 0x184F JUMP JUMPDEST SWAP2 POP PUSH2 0x1AE2 PUSH1 0xA0 DUP9 ADD PUSH2 0x1A5C JUMP JUMPDEST SWAP1 POP SWAP3 SWAP6 POP SWAP3 SWAP6 POP SWAP3 SWAP6 JUMP JUMPDEST PUSH1 0x0 PUSH1 0x20 DUP3 DUP5 SUB SLT ISZERO PUSH2 0x1B00 JUMPI PUSH1 0x0 DUP1 REVERT JUMPDEST DUP2 MLOAD PUSH2 0x18BA DUP2 PUSH2 0x184F JUMP JUMPDEST PUSH4 0x4E487B71 PUSH1 0xE0 SHL PUSH1 0x0 MSTORE PUSH1 0x32 PUSH1 0x4 MSTORE PUSH1 0x24 PUSH1 0x0 REVERT JUMPDEST PUSH1 0x0 PUSH1 0x1 DUP3 ADD PUSH2 0x1B41 JUMPI PUSH4 0x4E487B71 PUSH1 0xE0 SHL PUSH1 0x0 MSTORE PUSH1 0x11 PUSH1 0x4 MSTORE PUSH1 0x24 PUSH1 0x0 REVERT JUMPDEST POP PUSH1 0x1 ADD SWAP1 JUMP JUMPDEST PUSH1 0x0 PUSH1 0x20 DUP3 DUP5 SUB SLT ISZERO PUSH2 0x1B5A JUMPI PUSH1 0x0 DUP1 REVERT JUMPDEST POP MLOAD SWAP2 SWAP1 POP JUMP JUMPDEST PUSH4 0x4E487B71 PUSH1 0xE0 SHL PUSH1 0x0 MSTORE PUSH1 0x41 PUSH1 0x4 MSTORE PUSH1 0x24 PUSH1 0x0 REVERT JUMPDEST PUSH1 0x40 MLOAD PUSH2 0x100 DUP2 ADD PUSH8 0xFFFFFFFFFFFFFFFF DUP2 GT DUP3 DUP3 LT OR ISZERO PUSH2 0x1BA9 JUMPI PUSH4 0x4E487B71 PUSH1 0xE0 SHL PUSH1 0x0 MSTORE PUSH1 0x41 PUSH1 0x4 MSTORE PUSH1 0x24 PUSH1 0x0 REVERT JUMPDEST PUSH1 0x40 MSTORE SWAP1 JUMP JUMPDEST PUSH1 0x0 PUSH2 0x100 DUP1 DUP4 DUP6 SUB SLT ISZERO PUSH2 0x1BC3 JUMPI PUSH1 0x0 DUP1 REVERT JUMPDEST DUP4 PUSH1 0x1F DUP5 ADD SLT PUSH2 0x1BD2 JUMPI PUSH1 0x0 DUP1 REVERT JUMPDEST PUSH2 0x1BDA PUSH2 0x1B77 JUMP JUMPDEST SWAP1 DUP4 ADD SWAP1 DUP1 DUP6 DUP4 GT ISZERO PUSH2 0x1BEC JUMPI PUSH1 0x0 DUP1 REVERT JUMPDEST DUP5 JUMPDEST DUP4 DUP2 LT ISZERO PUSH2 0x1C0F JUMPI DUP1 MLOAD PUSH2 0x1C01 DUP2 PUSH2 0x184F JUMP JUMPDEST DUP4 MSTORE PUSH1 0x20 SWAP3 DUP4 ADD SWAP3 ADD PUSH2 0x1BEE JUMP JUMPDEST POP SWAP6 SWAP5 POP POP POP POP POP JUMP JUMPDEST PUSH1 0x0 PUSH2 0x100 DUP1 DUP4 DUP6 SUB SLT ISZERO PUSH2 0x1C2D JUMPI PUSH1 0x0 DUP1 REVERT JUMPDEST DUP4 PUSH1 0x1F DUP5 ADD SLT PUSH2 0x1C3C JUMPI PUSH1 0x0 DUP1 REVERT JUMPDEST PUSH2 0x1C44 PUSH2 0x1B77 JUMP JUMPDEST SWAP1 DUP4 ADD SWAP1 DUP1 DUP6 DUP4 GT ISZERO PUSH2 0x1C56 JUMPI PUSH1 0x0 DUP1 REVERT JUMPDEST DUP5 JUMPDEST DUP4 DUP2 LT ISZERO PUSH2 0x1C0F JUMPI DUP1 MLOAD DUP4 MSTORE PUSH1 0x20 SWAP3 DUP4 ADD SWAP3 ADD PUSH2 0x1C58 JUMP JUMPDEST PUSH1 0x0 PUSH1 0x20 DUP3 DUP5 SUB SLT ISZERO PUSH2 0x1C82 JUMPI PUSH1 0x0 DUP1 REVERT JUMPDEST PUSH2 0x18BA DUP3 PUSH2 0x1A5C JUMP INVALID LOG2 PUSH5 0x6970667358 0x22 SLT KECCAK256 0xAF SHL AND 0xD0 0xBE 0xA8 SHR PUSH28 0x81973A282C4DB7C3A4CD9F9A0F371F3E8CF1851D988AEB7064736F6C PUSH4 0x43000811 STOP CALLER ","sha1":"980c806c6cdc52a7e7064581e3f585a81cf4c789","source":"// SPDX-License-Identifier: GPL-3.0-or-later\npragma solidity 0.8.17;\n\nimport \"../libraries/CurvePoolUtils.sol\";\n\nimport \"../interfaces/ICurveRegistryCache.sol\";\nimport \"../interfaces/vendor/ICurveMetaRegistry.sol\";\nimport \"../interfaces/vendor/ICurvePoolV1.sol\";\n\ncontract CurveRegistryCacheV2 is ICurveRegistryCache {\n    address internal constant _ETH = address(0xEeeeeEeeeEeEeeEeEeEeeEEEeeeeEeeeeeeeEEeE);\n    address internal constant _WETH = address(0xC02aaA39b223FE8D0A0e5C4F27eAD9083C756Cc2);\n    ICurveMetaRegistry internal constant _CURVE_REGISTRY =\n        ICurveMetaRegistry(0xF98B45FA17DE75FB1aD0e7aFD971b0ca00e379fC);\n\n    IBooster public constant BOOSTER = IBooster(0xF403C135812408BFbE8713b5A23a04b3D48AAE31);\n\n    modifier onlyInitialized(address pool) {\n        require(_isRegistered[pool], \"CurveRegistryCache: pool not initialized\");\n        _;\n    }\n\n    mapping(address => bool) internal _isRegistered;\n    mapping(address => address) internal _lpToken;\n    mapping(address => mapping(address => bool)) internal _hasCoinDirectly;\n    mapping(address => mapping(address => bool)) internal _hasCoinAnywhere;\n    mapping(address => address) internal _basePool;\n    mapping(address => mapping(address => int128)) internal _coinIndex;\n    mapping(address => uint256) internal _nCoins;\n    mapping(address => address[]) internal _coins;\n    mapping(address => uint256[]) internal _decimals;\n    mapping(address => address) internal _poolFromLpToken;\n    mapping(address => CurvePoolUtils.AssetType) internal _assetType;\n    mapping(address => uint256) internal _interfaceVersion;\n\n    /// Information needed for staking Curve LP tokens on Convex\n    mapping(address => uint256) internal _convexPid;\n    mapping(address => address) internal _convexRewardPool; // curve pool => CRV rewards pool (convex)\n\n    function initPool(address pool_) external override {\n        _initPool(pool_, false, 0);\n    }\n\n    function initPool(address pool_, uint256 pid_) external override {\n        _initPool(pool_, true, pid_);\n    }\n\n    function _initPool(address pool_, bool setPid_, uint256 pid_) internal {\n        if (_isRegistered[pool_]) return;\n        require(_isCurvePool(pool_), \"CurveRegistryCache: invalid curve pool\");\n\n        _isRegistered[pool_] = true;\n        address curveLpToken_ = _CURVE_REGISTRY.get_lp_token(pool_);\n        _lpToken[pool_] = curveLpToken_;\n        if (setPid_) {\n            _setConvexPid(pool_, curveLpToken_, pid_);\n        } else {\n            pid_ = _setConvexPid(pool_, curveLpToken_);\n        }\n        _poolFromLpToken[curveLpToken_] = pool_;\n        address basePool_ = _CURVE_REGISTRY.get_base_pool(pool_);\n        _basePool[pool_] = basePool_;\n        if (basePool_ != address(0)) {\n            _initPool(basePool_, false, 0);\n            address[] memory basePoolCoins_ = _coins[basePool_];\n            for (uint256 i; i < basePoolCoins_.length; i++) {\n                address coin_ = basePoolCoins_[i];\n                _hasCoinAnywhere[pool_][coin_] = true;\n            }\n        }\n        _assetType[pool_] = CurvePoolUtils.AssetType(_CURVE_REGISTRY.get_pool_asset_type(pool_));\n        uint256 nCoins_ = _CURVE_REGISTRY.get_n_coins(pool_);\n        address[8] memory staticCoins_ = _CURVE_REGISTRY.get_coins(pool_);\n        uint256[8] memory staticDecimals_ = _CURVE_REGISTRY.get_decimals(pool_);\n        address[] memory coins_ = new address[](nCoins_);\n        for (uint256 i; i < nCoins_; i++) {\n            address coin_ = staticCoins_[i];\n            require(coin_ != address(0), \"CurveRegistryCache: invalid coin\");\n            coins_[i] = coin_;\n            _hasCoinDirectly[pool_][coin_] = true;\n            _hasCoinAnywhere[pool_][coin_] = true;\n            _coinIndex[pool_][coin_] = int128(uint128(i));\n            _decimals[pool_].push(staticDecimals_[i]);\n\n            if (coin_ == _ETH) {\n                coin_ = _WETH;\n                coins_[i] = coin_;\n                _hasCoinDirectly[pool_][coin_] = true;\n                _hasCoinAnywhere[pool_][coin_] = true;\n                _coinIndex[pool_][coin_] = int128(uint128(i));\n            }\n        }\n        _nCoins[pool_] = nCoins_;\n        _coins[pool_] = coins_;\n        _interfaceVersion[pool_] = _getInterfaceVersion(pool_);\n\n        emit PoolInitialized(pool_, pid_);\n    }\n\n    function _setConvexPid(address pool_, address lpToken_) internal returns (uint256 pid_) {\n        uint256 length = BOOSTER.poolLength();\n        address rewardPool;\n        for (uint256 i; i < length; i++) {\n            (address curveToken, , , address rewardPool_, , bool _isShutdown) = BOOSTER.poolInfo(i);\n            if (lpToken_ != curveToken || _isShutdown) continue;\n            rewardPool = rewardPool_;\n            pid_ = i;\n            _convexPid[pool_] = i;\n            break;\n        }\n        /// Only Curve pools that have a valid Convex PID can be added to the cache\n        require(rewardPool != address(0), \"no convex pid found\");\n        _convexRewardPool[pool_] = rewardPool;\n    }\n\n    function _setConvexPid(address pool_, address lpToken_, uint256 pid_) internal {\n        (address curveToken, , , address rewardPool_, , bool _isShutdown) = BOOSTER.poolInfo(pid_);\n        require(lpToken_ == curveToken, \"invalid lp token for curve pool\");\n        require(!_isShutdown, \"convex pool is shutdown\");\n        require(rewardPool_ != address(0), \"no convex pid found\");\n        _convexRewardPool[pool_] = rewardPool_;\n        _convexPid[pool_] = pid_;\n    }\n\n    function isRegistered(address pool_) external view override returns (bool) {\n        return _isRegistered[pool_];\n    }\n\n    function lpToken(\n        address pool_\n    ) external view override onlyInitialized(pool_) returns (address) {\n        return _lpToken[pool_];\n    }\n\n    function assetType(\n        address pool_\n    ) external view override onlyInitialized(pool_) returns (CurvePoolUtils.AssetType) {\n        return _assetType[pool_];\n    }\n\n    function hasCoinDirectly(\n        address pool_,\n        address coin_\n    ) external view override onlyInitialized(pool_) returns (bool) {\n        return _hasCoinDirectly[pool_][coin_];\n    }\n\n    function hasCoinAnywhere(\n        address pool_,\n        address coin_\n    ) external view override onlyInitialized(pool_) returns (bool) {\n        return _hasCoinAnywhere[pool_][coin_];\n    }\n\n    function basePool(\n        address pool_\n    ) external view override onlyInitialized(pool_) returns (address) {\n        return _basePool[pool_];\n    }\n\n    function coinIndex(\n        address pool_,\n        address coin_\n    ) external view override onlyInitialized(pool_) returns (int128) {\n        return _coinIndex[pool_][coin_];\n    }\n\n    function nCoins(address pool_) external view override onlyInitialized(pool_) returns (uint256) {\n        return _nCoins[pool_];\n    }\n\n    function coinIndices(\n        address pool_,\n        address from_,\n        address to_\n    ) external view override onlyInitialized(pool_) returns (int128, int128, bool) {\n        return (\n            _coinIndex[pool_][from_],\n            _coinIndex[pool_][to_],\n            _hasCoinDirectly[pool_][from_] && _hasCoinDirectly[pool_][to_]\n        );\n    }\n\n    function decimals(\n        address pool_\n    ) external view override onlyInitialized(pool_) returns (uint256[] memory) {\n        return _decimals[pool_];\n    }\n\n    /// @notice Returns the Curve interface version for a given pool\n    /// @dev Version 0 uses `int128` for `coins` and `balances`, and `int128` for `get_dy`\n    /// Version 1 uses `uint256` for `coins` and `balances`, and `int128` for `get_dy`\n    /// Version 2 uses `uint256` for `coins` and `balances`, and `uint256` for `get_dy`\n    /// They correspond with which interface the pool implements: ICurvePoolV0, ICurvePoolV1, ICurvePoolV2\n    function interfaceVersion(\n        address pool_\n    ) external view override onlyInitialized(pool_) returns (uint256) {\n        return _interfaceVersion[pool_];\n    }\n\n    function poolFromLpToken(address lpToken_) external view override returns (address) {\n        return _poolFromLpToken[lpToken_];\n    }\n\n    function coins(\n        address pool_\n    ) external view override onlyInitialized(pool_) returns (address[] memory) {\n        return _coins[pool_];\n    }\n\n    function getPid(address pool_) external view override onlyInitialized(pool_) returns (uint256) {\n        require(_convexRewardPool[pool_] != address(0), \"pid not found\");\n        return _convexPid[pool_];\n    }\n\n    function getRewardPool(\n        address pool_\n    ) external view override onlyInitialized(pool_) returns (address) {\n        return _convexRewardPool[pool_];\n    }\n\n    function isShutdownPid(uint256 pid_) external view override returns (bool) {\n        (, , , , , bool _isShutdown) = BOOSTER.poolInfo(pid_);\n        return _isShutdown;\n    }\n\n    function _isCurvePool(address pool_) internal view returns (bool) {\n        try _CURVE_REGISTRY.is_registered(pool_) returns (bool registered_) {\n            return registered_;\n        } catch {\n            return false;\n        }\n    }\n\n    function _getInterfaceVersion(address pool_) internal view returns (uint256) {\n        if (_assetType[pool_] == CurvePoolUtils.AssetType.CRYPTO) return 2;\n        try ICurvePoolV1(pool_).balances(uint256(0)) returns (uint256) {\n            return 1;\n        } catch {\n            return 0;\n        }\n    }\n}\n","sourcePath":"contracts/CurveRegistryCacheV2.sol","type":"contract","deployment":{"address":"0x3905A3C1156f67BB55366d7A5a11D1043dcf97c9","chainid":"1","blockHeight":17591364}}