{"abi":[{"inputs":[{"internalType":"address","name":"_controller","type":"address"},{"internalType":"address","name":"_underlying","type":"address"},{"internalType":"address","name":"cncLocker","type":"address"}],"stateMutability":"nonpayable","type":"constructor","name":"constructor"},{"anonymous":false,"inputs":[{"indexed":false,"internalType":"uint256","name":"claimedCrv","type":"uint256"},{"indexed":false,"internalType":"uint256","name":"claimedCvx","type":"uint256"}],"name":"ClaimedRewards","type":"event"},{"anonymous":false,"inputs":[{"indexed":true,"internalType":"address","name":"claimedBy","type":"address"},{"indexed":false,"internalType":"uint256","name":"cncEarned","type":"uint256"},{"indexed":false,"internalType":"uint256","name":"crvEarned","type":"uint256"},{"indexed":false,"internalType":"uint256","name":"cvxEarned","type":"uint256"}],"name":"EarningsClaimed","type":"event"},{"anonymous":false,"inputs":[{"indexed":false,"internalType":"address","name":"reward","type":"address"}],"name":"ExtraRewardAdded","type":"event"},{"anonymous":false,"inputs":[{"indexed":false,"internalType":"address","name":"reward","type":"address"}],"name":"ExtraRewardRemoved","type":"event"},{"anonymous":false,"inputs":[{"indexed":false,"internalType":"address","name":"extraReward","type":"address"},{"indexed":false,"internalType":"address","name":"curvePool","type":"address"}],"name":"ExtraRewardsCurvePoolSet","type":"event"},{"anonymous":false,"inputs":[{"indexed":false,"internalType":"uint256","name":"feePercentage","type":"uint256"}],"name":"FeesEnabled","type":"event"},{"anonymous":false,"inputs":[{"indexed":false,"internalType":"uint256","name":"feePercentage","type":"uint256"}],"name":"FeesSet","type":"event"},{"anonymous":false,"inputs":[{"indexed":false,"internalType":"uint8","name":"version","type":"uint8"}],"name":"Initialized","type":"event"},{"anonymous":false,"inputs":[{"indexed":true,"internalType":"address","name":"previousOwner","type":"address"},{"indexed":true,"internalType":"address","name":"newOwner","type":"address"}],"name":"OwnershipTransferred","type":"event"},{"anonymous":false,"inputs":[{"indexed":false,"internalType":"uint256","name":"targetTokenReceived","type":"uint256"}],"name":"SoldRewardTokens","type":"event"},{"inputs":[],"name":"CNC","outputs":[{"internalType":"contract IERC20","name":"","type":"address"}],"stateMutability":"view","type":"function"},{"inputs":[],"name":"CNC_ETH_POOL","outputs":[{"internalType":"contract ICurvePoolV2","name":"","type":"address"}],"stateMutability":"view","type":"function"},{"inputs":[],"name":"CRV","outputs":[{"internalType":"contract IERC20","name":"","type":"address"}],"stateMutability":"view","type":"function"},{"inputs":[],"name":"CVX","outputs":[{"internalType":"contract IERC20","name":"","type":"address"}],"stateMutability":"view","type":"function"},{"inputs":[],"name":"MAX_FEE_PERCENTAGE","outputs":[{"internalType":"uint256","name":"","type":"uint256"}],"stateMutability":"view","type":"function"},{"inputs":[],"name":"SLIPPAGE_THRESHOLD","outputs":[{"internalType":"uint256","name":"","type":"uint256"}],"stateMutability":"view","type":"function"},{"inputs":[],"name":"SUSHISWAP","outputs":[{"internalType":"contract UniswapRouter02","name":"","type":"address"}],"stateMutability":"view","type":"function"},{"inputs":[],"name":"WETH","outputs":[{"internalType":"contract IERC20","name":"","type":"address"}],"stateMutability":"view","type":"function"},{"inputs":[{"internalType":"address","name":"account","type":"address"}],"name":"accountCheckpoint","outputs":[],"stateMutability":"nonpayable","type":"function"},{"inputs":[{"internalType":"address[]","name":"_rewards","type":"address[]"}],"name":"addBatchExtraRewards","outputs":[],"stateMutability":"nonpayable","type":"function"},{"inputs":[{"internalType":"address","name":"reward","type":"address"}],"name":"addExtraReward","outputs":[{"internalType":"bool","name":"","type":"bool"}],"stateMutability":"nonpayable","type":"function"},{"inputs":[],"name":"claimEarnings","outputs":[{"internalType":"uint256","name":"","type":"uint256"},{"internalType":"uint256","name":"","type":"uint256"},{"internalType":"uint256","name":"","type":"uint256"}],"stateMutability":"nonpayable","type":"function"},{"inputs":[],"name":"claimPoolEarningsAndSellRewardTokens","outputs":[],"stateMutability":"nonpayable","type":"function"},{"inputs":[{"internalType":"address","name":"account","type":"address"}],"name":"claimableRewards","outputs":[{"internalType":"uint256","name":"cncRewards","type":"uint256"},{"internalType":"uint256","name":"crvRewards","type":"uint256"},{"internalType":"uint256","name":"cvxRewards","type":"uint256"}],"stateMutability":"view","type":"function"},{"inputs":[],"name":"controller","outputs":[{"internalType":"contract IController","name":"","type":"address"}],"stateMutability":"view","type":"function"},{"inputs":[{"internalType":"address","name":"","type":"address"}],"name":"extraRewardsCurvePool","outputs":[{"internalType":"address","name":"","type":"address"}],"stateMutability":"view","type":"function"},{"inputs":[],"name":"feePercentage","outputs":[{"internalType":"uint256","name":"","type":"uint256"}],"stateMutability":"view","type":"function"},{"inputs":[],"name":"feesEnabled","outputs":[{"internalType":"bool","name":"","type":"bool"}],"stateMutability":"view","type":"function"},{"inputs":[{"internalType":"address","name":"_pool","type":"address"}],"name":"initialize","outputs":[],"stateMutability":"nonpayable","type":"function"},{"inputs":[],"name":"listExtraRewards","outputs":[{"internalType":"address[]","name":"","type":"address[]"}],"stateMutability":"view","type":"function"},{"inputs":[],"name":"locker","outputs":[{"internalType":"contract ICNCLockerV2","name":"","type":"address"}],"stateMutability":"view","type":"function"},{"inputs":[],"name":"lpToken","outputs":[{"internalType":"contract ILpToken","name":"","type":"address"}],"stateMutability":"view","type":"function"},{"inputs":[],"name":"owner","outputs":[{"internalType":"address","name":"","type":"address"}],"stateMutability":"view","type":"function"},{"inputs":[],"name":"pool","outputs":[{"internalType":"address","name":"","type":"address"}],"stateMutability":"view","type":"function"},{"inputs":[],"name":"poolCheckpoint","outputs":[{"internalType":"bool","name":"","type":"bool"}],"stateMutability":"nonpayable","type":"function"},{"inputs":[{"internalType":"address","name":"tokenAddress","type":"address"}],"name":"removeExtraReward","outputs":[],"stateMutability":"nonpayable","type":"function"},{"inputs":[],"name":"renounceOwnership","outputs":[],"stateMutability":"nonpayable","type":"function"},{"inputs":[{"internalType":"address","name":"extraReward_","type":"address"},{"internalType":"address","name":"curvePool_","type":"address"}],"name":"setExtraRewardsCurvePool","outputs":[],"stateMutability":"nonpayable","type":"function"},{"inputs":[{"internalType":"uint256","name":"_feePercentage","type":"uint256"}],"name":"setFeePercentage","outputs":[],"stateMutability":"nonpayable","type":"function"},{"inputs":[{"internalType":"address","name":"newOwner","type":"address"}],"name":"transferOwnership","outputs":[],"stateMutability":"nonpayable","type":"function"},{"inputs":[],"name":"underlying","outputs":[{"internalType":"contract IERC20","name":"","type":"address"}],"stateMutability":"view","type":"function"}],"bytecode":"60e06040523480156200001157600080fd5b50604051620048e1380380620048e18339810160408190526200003491620004ec565b6200003f33620000aa565b6001600160a01b03828116608052831660a0526200009573c02aaa39b223fe8d0a0e5c4f27ead9083c756cc273838af967537350d2c44abb8c010e49e32673ab94600019620000fa602090811b62001afd17901c565b6001600160a01b031660c05250620005f49050565b600080546001600160a01b038381166001600160a01b0319831681178455604051919092169283917f8be0079c531659141344cd1fd0a4f28419497f9722a3daafe3b4186f6b6457e09190a35050565b801580620001785750604051636eb1769f60e11b81523060048201526001600160a01b03838116602483015284169063dd62ed3e90604401602060405180830381865afa15801562000150573d6000803e3d6000fd5b505050506040513d601f19601f8201168201806040525081019062000176919062000536565b155b620001f05760405162461bcd60e51b815260206004820152603660248201527f5361666545524332303a20617070726f76652066726f6d206e6f6e2d7a65726f60448201527f20746f206e6f6e2d7a65726f20616c6c6f77616e63650000000000000000000060648201526084015b60405180910390fd5b604080516001600160a01b038416602482015260448082018490528251808303909101815260649091019091526020810180516001600160e01b0390811663095ea7b360e01b17909152620002489185916200024d16565b505050565b6000620002a9826040518060400160405280602081526020017f5361666545524332303a206c6f772d6c6576656c2063616c6c206661696c6564815250856001600160a01b03166200032b60201b62001c4a179092919060201c565b805190915015620002485780806020019051810190620002ca919062000550565b620002485760405162461bcd60e51b815260206004820152602a60248201527f5361666545524332303a204552433230206f7065726174696f6e20646964206e6044820152691bdd081cdd58d8d9595960b21b6064820152608401620001e7565b60606200033c848460008562000344565b949350505050565b606082471015620003a75760405162461bcd60e51b815260206004820152602660248201527f416464726573733a20696e73756666696369656e742062616c616e636520666f6044820152651c8818d85b1b60d21b6064820152608401620001e7565b600080866001600160a01b03168587604051620003c59190620005a1565b60006040518083038185875af1925050503d806000811462000404576040519150601f19603f3d011682016040523d82523d6000602084013e62000409565b606091505b5090925090506200041d8783838762000428565b979650505050505050565b606083156200049c57825160000362000494576001600160a01b0385163b620004945760405162461bcd60e51b815260206004820152601d60248201527f416464726573733a2063616c6c20746f206e6f6e2d636f6e74726163740000006044820152606401620001e7565b50816200033c565b6200033c8383815115620004b35781518083602001fd5b8060405162461bcd60e51b8152600401620001e79190620005bf565b80516001600160a01b0381168114620004e757600080fd5b919050565b6000806000606084860312156200050257600080fd5b6200050d84620004cf565b92506200051d60208501620004cf565b91506200052d60408501620004cf565b90509250925092565b6000602082840312156200054957600080fd5b5051919050565b6000602082840312156200056357600080fd5b815180151581146200057457600080fd5b9392505050565b60005b83811015620005985781810151838201526020016200057e565b50506000910152565b60008251620005b58184602087016200057b565b9190910192915050565b6020815260008251806020840152620005e08160408501602087016200057b565b601f01601f19169190910160400192915050565b60805160a05160c051614238620006a9600039600081816103e801528181610a9101528181610ad001528181610b12015261105d015260008181610498015281816105f1015281816107b801528181610d4c01528181611643015281816117a6015281816118c501528181611fdf0152818161227c015281816124c4015281816125ff0152818161295801528181612b410152818161329b015261377f0152600081816102da0152610c2b01526142386000f3fe608060405234801561001057600080fd5b50600436106101e55760003560e01c8063a001ecdd1161010f578063d9ceab13116100a2578063e846500911610071578063e846500914610471578063f2fde38b14610480578063f77c479114610493578063fe09d54d146104ba57600080fd5b8063d9ceab131461040a578063d9e65ced1461042d578063dc01f60d14610456578063e77061831461046957600080fd5b8063ae06c1b7116100de578063ae06c1b7146103aa578063bf928f8b146103bd578063c4d66de8146103d0578063d7b96d4e146103e357600080fd5b8063a001ecdd14610366578063a64e4f8a1461036f578063a80ff90a1461037c578063ad5c46481461038f57600080fd5b8063632473da11610187578063759cb53b11610156578063759cb53b146103045780638da5cb5b1461031f578063945c9142146103305780639c708aab1461034b57600080fd5b8063632473da146102a55780636dc47e1e146102c05780636f307dc3146102d5578063715018a6146102fc57600080fd5b8063558e44d3116101c3578063558e44d31461024a5780635790a0c8146102675780635e43c47b1461027f5780635fcbd2851461029257600080fd5b806303950fb5146101ea57806316f0115b146101ff578063495567091461022f575b600080fd5b6101fd6101f8366004613b75565b6104cd565b005b600154610212906001600160a01b031681565b6040516001600160a01b0390911681526020015b60405180910390f35b61021273838af967537350d2c44abb8c010e49e32673ab9481565b610259670429d069189e000081565b604051908152602001610226565b61026f6105ec565b6040519015158152602001610226565b61026f61028d366004613bae565b610b86565b600254610212906001600160a01b031681565b610212739ae380f0272e2162340a5bb646c354271c0f5cfc81565b6102c8610f6e565b6040516102269190613c0f565b6102127f000000000000000000000000000000000000000000000000000000000000000081565b6101fd610f7f565b610212734e3fbd56cd56c3e72c1403e103b45db9da5b9d2b81565b6000546001600160a01b0316610212565b61021273d533a949740bb3306d119cc777fa900ba034cd5281565b61021273d9e1ce17f2641f24ae83637ab66a2cca9c378b9f81565b61025960085481565b60075461026f9060ff1681565b6101fd61038a366004613bae565b610f93565b61021273c02aaa39b223fe8d0a0e5c4f27ead9083c756cc281565b6101fd6103b8366004613c22565b610fe7565b6101fd6103cb366004613bae565b61112b565b6101fd6103de366004613bae565b611137565b6102127f000000000000000000000000000000000000000000000000000000000000000081565b6104126112fd565b60408051938452602084019290925290820152606001610226565b61021261043b366004613bae565b6005602052600090815260409020546001600160a01b031681565b610412610464366004613bae565b61179e565b6101fd611a2a565b610259670d2f13f7789f000081565b6101fd61048e366004613bae565b611a3e565b6102127f000000000000000000000000000000000000000000000000000000000000000081565b6101fd6104c8366004613ca6565b611ab4565b6104d5611c63565b6001600160a01b038083166000908152600560205260409020548116908216036105465760405162461bcd60e51b815260206004820152601c60248201527f6d75737420626520646966666572656e7420746f2063757272656e740000000060448201526064015b60405180910390fd5b6001600160a01b038116156105805761056a6001600160a01b038316826000611afd565b6105806001600160a01b03831682600019611afd565b6001600160a01b0382811660008181526005602090815260409182902080546001600160a01b031916948616948517905581519283528201929092527f8c529c22babad500cea1516422f2bf23f6e1e7fab884b816062d20a9a0f78fef91015b60405180910390a15050565b6000807f00000000000000000000000000000000000000000000000000000000000000006001600160a01b031663b050ecb86040518163ffffffff1660e01b8152600401602060405180830381865afa15801561064d573d6000803e3d6000fd5b505050506040513d601f19601f820116820180604052508101906106719190613d45565b9050600080600061068184611cbd565b6231b93b60e91b600090815260066020527fe2ee452672e51ea6a0e1a769beff058add3428c3669348c1314b250e4abcf644549396509194509250906106c79085613d78565b620c6ecf60eb1b600090815260066020527f3acadc8a217eebdcf686f20849b9575c123b0b8572285c75a94ddd9d4c51e5bb54919250906107089085613d78565b62636e6360e81b600090815260066020527f7af089d8bde560df8f6fed82c9d27c7cabc5c74f30c79b49f5655e8729cb5c4f54919250906107499085613d78565b600754909150600090819060ff16156107b45760085461076a9086906120e3565b9150610781600854856120e390919063ffffffff16565b905061078d8286613d78565b94506107998185613d78565b93506107a58289613d78565b97506107b18188613d78565b96505b60007f00000000000000000000000000000000000000000000000000000000000000006001600160a01b03166348439e7e6040518163ffffffff1660e01b8152600401602060405180830381865afa158015610814573d6000803e3d6000fd5b505050506040513d601f19601f820116820180604052508101906108389190613d45565b600154604051635598b20960e01b81526001600160a01b039182166004820152911690635598b20990602401602060405180830381865afa158015610881573d6000803e3d6000fd5b505050506040513d601f19601f820116820180604052508101906108a59190613d8b565b905080156108e3576108bf620c6ecf60eb1b89878461210e565b6108d16231b93b60e91b8a888461210e565b6108e362636e6360e81b88868461210e565b60075460ff166108fe5760009a505050505050505050505090565b6001546040516370a0823160e01b81526001600160a01b03909116600482015260009073d533a949740bb3306d119cc777fa900ba034cd52906370a0823190602401602060405180830381865afa15801561095d573d6000803e3d6000fd5b505050506040513d601f19601f820116820180604052508101906109819190613d8b565b841180610a0c57506001546040516370a0823160e01b81526001600160a01b039091166004820152734e3fbd56cd56c3e72c1403e103b45db9da5b9d2b906370a0823190602401602060405180830381865afa1580156109e5573d6000803e3d6000fd5b505050506040513d601f19601f82011682018060405250810190610a099190613d8b565b83115b15610a1d57610a19612152565b5060015b600154610a4a9073d533a949740bb3306d119cc777fa900ba034cd52906001600160a01b031630876123fb565b600154610a7790734e3fbd56cd56c3e72c1403e103b45db9da5b9d2b906001600160a01b031630866123fb565b610ab673d533a949740bb3306d119cc777fa900ba034cd527f000000000000000000000000000000000000000000000000000000000000000086611afd565b610af5734e3fbd56cd56c3e72c1403e103b45db9da5b9d2b7f000000000000000000000000000000000000000000000000000000000000000085611afd565b6040516309e690eb60e31b815260048101859052602481018490527f00000000000000000000000000000000000000000000000000000000000000006001600160a01b031690634f34875890604401600060405180830381600087803b158015610b5e57600080fd5b505af1158015610b72573d6000803e3d6000fd5b50929e9d5050505050505050505050505050565b6000610b90611c63565b6001600160a01b038216610bd85760405162461bcd60e51b815260206004820152600f60248201526e696e76616c6964206164647265737360881b604482015260640161053d565b6001600160a01b038216734e3fbd56cd56c3e72c1403e103b45db9da5b9d2b14801590610c2257506001600160a01b03821673d533a949740bb3306d119cc777fa900ba034cd5214155b8015610c6057507f00000000000000000000000000000000000000000000000000000000000000006001600160a01b0316826001600160a01b031614155b8015610c8957506001600160a01b038216739ae380f0272e2162340a5bb646c354271c0f5cfc14155b610cc95760405162461bcd60e51b81526020600482015260116024820152701d1bdad95b881b9bdd08185b1b1bddd959607a1b604482015260640161053d565b600154604080516337c9a55f60e11b815290516000926001600160a01b031691636f934abe91600480830192869291908290030181865afa158015610d12573d6000803e3d6000fd5b505050506040513d6000823e601f3d908101601f19168201604052610d3a9190810190613da4565b905060005b8151811015610eca5760007f00000000000000000000000000000000000000000000000000000000000000006001600160a01b0316639f82b2176040518163ffffffff1660e01b8152600401602060405180830381865afa158015610da8573d6000803e3d6000fd5b505050506040513d601f19601f82011682018060405250810190610dcc9190613d45565b6001600160a01b03166376a562a4848481518110610dec57610dec613e33565b60200260200101516040518263ffffffff1660e01b8152600401610e1f91906001600160a01b0391909116815260200190565b602060405180830381865afa158015610e3c573d6000803e3d6000fd5b505050506040513d601f19601f82011682018060405250810190610e609190613d45565b9050806001600160a01b0316856001600160a01b031603610eb75760405162461bcd60e51b81526020600482015260116024820152701d1bdad95b881b9bdd08185b1b1bddd959607a1b604482015260640161053d565b5080610ec281613e49565b915050610d3f565b50610ef46001600160a01b03841673d9e1ce17f2641f24ae83637ab66a2cca9c378b9f6000611afd565b610f1e6001600160a01b03841673d9e1ce17f2641f24ae83637ab66a2cca9c378b9f600019611afd565b6040516001600160a01b03841681527fd432e6f46dbf91c120fdfa95a1f4bf5c43f04d957fbc3a32e693be0d29bf17b09060200160405180910390a1610f65600384612439565b9150505b919050565b6060610f7a600361244e565b905090565b610f87611c63565b610f91600061245b565b565b610f9b611c63565b610fa66003826124ab565b506040516001600160a01b03821681527fe0f3b1406ab4dd940a92a081b1bcef51da212a57978cc8f6dde5c89ab41a5aa7906020015b60405180910390a150565b610fef611c63565b670429d069189e000081106110595760405162461bcd60e51b815260206004820152602a60248201527f63616e6e6f7420736574206665652070657263656e7461676520746f206d6f7260448201526965207468616e2033302560b01b606482015260840161053d565b60007f00000000000000000000000000000000000000000000000000000000000000006001600160a01b031663631516c26040518163ffffffff1660e01b8152600401602060405180830381865afa1580156110b9573d6000803e3d6000fd5b505050506040513d601f19601f820116820180604052508101906110dd9190613d8b565b116110e757600080fd5b60088190556007805460ff191660011790556040517f3346af6da1932164d501f2ec28f8c5d686db5828a36b77f2da4332d89184fe7b90610fdc9083815260200190565b611134816124c0565b50565b61113f611c63565b600054600160a81b900460ff161580801561116757506000546001600160a01b90910460ff16105b806111885750303b1580156111885750600054600160a01b900460ff166001145b6111eb5760405162461bcd60e51b815260206004820152602e60248201527f496e697469616c697a61626c653a20636f6e747261637420697320616c72656160448201526d191e481a5b9a5d1a585b1a5e995960921b606482015260840161053d565b6000805460ff60a01b1916600160a01b1790558015611218576000805460ff60a81b1916600160a81b1790555b600180546001600160a01b0319166001600160a01b03841690811790915560408051635fcbd28560e01b81529051635fcbd285916004808201926020929091908290030181865afa158015611271573d6000803e3d6000fd5b505050506040513d601f19601f820116820180604052508101906112959190613d45565b600280546001600160a01b0319166001600160a01b039290921691909117905580156112f9576000805460ff60a81b19169055604051600181527f7f26b83ff96e1f2b6a682f133852f6798a09c465da95921460cefb3847402498906020016105e0565b5050565b600080600061130b336124c0565b3360009081527fe2ee452672e51ea6a0e1a769beff058add3428c3669348c1314b250e4abcf64660209081526040808320547f3acadc8a217eebdcf686f20849b9575c123b0b8572285c75a94ddd9d4c51e5bd8352818420547f7af089d8bde560df8f6fed82c9d27c7cabc5c74f30c79b49f5655e8729cb5c51909352928190205460015491516370a0823160e01b81526001600160a01b0390921660048301529073d533a949740bb3306d119cc777fa900ba034cd52906370a0823190602401602060405180830381865afa1580156113e9573d6000803e3d6000fd5b505050506040513d601f19601f8201168201806040525081019061140d9190613d8b565b83118061149857506001546040516370a0823160e01b81526001600160a01b039091166004820152734e3fbd56cd56c3e72c1403e103b45db9da5b9d2b906370a0823190602401602060405180830381865afa158015611471573d6000803e3d6000fd5b505050506040513d601f19601f820116820180604052508101906114959190613d8b565b82115b8061152157506001546040516370a0823160e01b81526001600160a01b039091166004820152739ae380f0272e2162340a5bb646c354271c0f5cfc906370a0823190602401602060405180830381865afa1580156114fa573d6000803e3d6000fd5b505050506040513d601f19601f8201168201806040525081019061151e9190613d8b565b81115b1561152e5761152e612152565b3360008181527f7af089d8bde560df8f6fed82c9d27c7cabc5c74f30c79b49f5655e8729cb5c51602090815260408083208390557f3acadc8a217eebdcf686f20849b9575c123b0b8572285c75a94ddd9d4c51e5bd82528083208390557fe2ee452672e51ea6a0e1a769beff058add3428c3669348c1314b250e4abcf6469091528120556001546115df9173d533a949740bb3306d119cc777fa900ba034cd52916001600160a01b031690866123fb565b60015461160c90734e3fbd56cd56c3e72c1403e103b45db9da5b9d2b906001600160a01b031633856123fb565b60015461163990739ae380f0272e2162340a5bb646c354271c0f5cfc906001600160a01b031633846123fb565b60008060006116c87f00000000000000000000000000000000000000000000000000000000000000006001600160a01b031663b050ecb86040518163ffffffff1660e01b8152600401602060405180830381865afa15801561169f573d6000803e3d6000fd5b505050506040513d601f19601f820116820180604052508101906116c39190613d45565b611cbd565b600660209081527fe2ee452672e51ea6a0e1a769beff058add3428c3669348c1314b250e4abcf6448490557f3acadc8a217eebdcf686f20849b9575c123b0b8572285c75a94ddd9d4c51e5bb83905562636e6360e81b6000527f7af089d8bde560df8f6fed82c9d27c7cabc5c74f30c79b49f5655e8729cb5c4f829055604080518981529182018b90528101899052929550909350915033907f06f39318c760ad4d630f57ba8f8d3c21b8e1deb076e19476d1dece4e3d737e7a9060600160405180910390a25091979396509194509192505050565b6000806000807f00000000000000000000000000000000000000000000000000000000000000006001600160a01b03166348439e7e6040518163ffffffff1660e01b8152600401602060405180830381865afa158015611802573d6000803e3d6000fd5b505050506040513d601f19601f820116820180604052508101906118269190613d45565b600154604051635598b20960e01b81526001600160a01b039182166004820152911690635598b20990602401602060405180830381865afa15801561186f573d6000803e3d6000fd5b505050506040513d601f19601f820116820180604052508101906118939190613d8b565b9050806000036118ae57600080600093509350935050611a23565b60008060006118bb6125f7565b92509250925060007f00000000000000000000000000000000000000000000000000000000000000006001600160a01b03166348439e7e6040518163ffffffff1660e01b8152600401602060405180830381865afa158015611921573d6000803e3d6000fd5b505050506040513d601f19601f820116820180604052508101906119459190613d45565b600154604051637d2041e560e11b81526001600160a01b0391821660048201528b8216602482015291169063fa4083ca90604401602060405180830381865afa158015611996573d6000803e3d6000fd5b505050506040513d601f19601f820116820180604052508101906119ba9190613d8b565b90506119d18962636e6360e81b8484896000612696565b97506119f6896231b93b60e91b868489600760009054906101000a900460ff16612696565b9650611a1b89620c6ecf60eb1b858489600760009054906101000a900460ff16612696565b955050505050505b9193909250565b611a326105ec565b610f9157610f91612152565b611a46611c63565b6001600160a01b038116611aab5760405162461bcd60e51b815260206004820152602660248201527f4f776e61626c653a206e6577206f776e657220697320746865207a65726f206160448201526564647265737360d01b606482015260840161053d565b6111348161245b565b611abc611c63565b60005b81518110156112f957611aea828281518110611add57611add613e33565b6020026020010151610b86565b5080611af581613e49565b915050611abf565b801580611b775750604051636eb1769f60e11b81523060048201526001600160a01b03838116602483015284169063dd62ed3e90604401602060405180830381865afa158015611b51573d6000803e3d6000fd5b505050506040513d601f19601f82011682018060405250810190611b759190613d8b565b155b611be25760405162461bcd60e51b815260206004820152603660248201527f5361666545524332303a20617070726f76652066726f6d206e6f6e2d7a65726f60448201527520746f206e6f6e2d7a65726f20616c6c6f77616e636560501b606482015260840161053d565b6040516001600160a01b038316602482015260448101829052611c4590849063095ea7b360e01b906064015b60408051601f198184030181529190526020810180516001600160e01b03166001600160e01b031990931692909217909152612763565b505050565b6060611c598484600085612835565b90505b9392505050565b6000546001600160a01b03163314610f915760405162461bcd60e51b815260206004820181905260248201527f4f776e61626c653a2063616c6c6572206973206e6f7420746865206f776e6572604482015260640161053d565b600080600080600160009054906101000a90046001600160a01b03166001600160a01b0316636f934abe6040518163ffffffff1660e01b8152600401600060405180830381865afa158015611d16573d6000803e3d6000fd5b505050506040513d6000823e601f3d908101601f19168201604052611d3e9190810190613da4565b600154604051631b066a0160e31b81529192506000916001600160a01b038881169263d833500892611d7892909116908690600401613e62565b602060405180830381865afa158015611d95573d6000803e3d6000fd5b505050506040513d601f19601f82011682018060405250810190611db99190613d8b565b6001546040516370a0823160e01b81526001600160a01b039091166004820152909150819073d533a949740bb3306d119cc777fa900ba034cd52906370a0823190602401602060405180830381865afa158015611e1a573d6000803e3d6000fd5b505050506040513d601f19601f82011682018060405250810190611e3e9190613d8b565b611e489190613e86565b60405163323808cd60e01b8152600481018390529095506000906001600160a01b0388169063323808cd90602401602060405180830381865afa158015611e93573d6000803e3d6000fd5b505050506040513d601f19601f82011682018060405250810190611eb79190613d8b565b6001546040516370a0823160e01b81526001600160a01b0390911660048201529091508190734e3fbd56cd56c3e72c1403e103b45db9da5b9d2b906370a0823190602401602060405180830381865afa158015611f18573d6000803e3d6000fd5b505050506040513d601f19601f82011682018060405250810190611f3c9190613d8b565b611f469190613e86565b6001546040516370a0823160e01b81526001600160a01b039091166004820152909550739ae380f0272e2162340a5bb646c354271c0f5cfc906370a0823190602401602060405180830381865afa158015611fa5573d6000803e3d6000fd5b505050506040513d601f19601f82011682018060405250810190611fc99190613d8b565b600254909450600160a01b900460ff166120d9577f00000000000000000000000000000000000000000000000000000000000000006001600160a01b03166348439e7e6040518163ffffffff1660e01b8152600401602060405180830381865afa15801561203b573d6000803e3d6000fd5b505050506040513d601f19601f8201168201806040525081019061205f9190613d45565b6001546040516334d21ea360e21b81526001600160a01b03918216600482015291169063d3487a8c90602401602060405180830381865afa1580156120a8573d6000803e3d6000fd5b505050506040513d601f19601f820116820180604052508101906120cc9190613d8b565b6120d69085613e86565b93505b5050509193909250565b60006120f16012600a613f7d565b6120fb8385613f89565b6121059190613fa0565b90505b92915050565b6121188282612912565b60008581526006602052604081208054909190612136908490613e86565b9091555050506000928352506006602052604090912060010155565b61215a61292b565b6001546040516370a0823160e01b81526001600160a01b039091166004820152600090739ae380f0272e2162340a5bb646c354271c0f5cfc906370a0823190602401602060405180830381865afa1580156121b9573d6000803e3d6000fd5b505050506040513d601f19601f820116820180604052508101906121dd9190613d8b565b90506121e7612e11565b6001546040516370a0823160e01b81526001600160a01b0390911660048201526000908290739ae380f0272e2162340a5bb646c354271c0f5cfc906370a0823190602401602060405180830381865afa158015612248573d6000803e3d6000fd5b505050506040513d601f19601f8201168201806040525081019061226c9190613d8b565b6122769190613d78565b905060007f00000000000000000000000000000000000000000000000000000000000000006001600160a01b03166348439e7e6040518163ffffffff1660e01b8152600401602060405180830381865afa1580156122d8573d6000803e3d6000fd5b505050506040513d601f19601f820116820180604052508101906122fc9190613d45565b600154604051635598b20960e01b81526001600160a01b039182166004820152911690635598b20990602401602060405180830381865afa158015612345573d6000803e3d6000fd5b505050506040513d601f19601f820116820180604052508101906123699190613d8b565b905080156123c35761237b8282612912565b62636e6360e81b600090815260066020527f7af089d8bde560df8f6fed82c9d27c7cabc5c74f30c79b49f5655e8729cb5c4e80549091906123bd908490613e86565b90915550505b6040518281527ffc8ed0cd46874d9c3cf1425e1b3bbf9c523bc17c4a959c2c2f600e016f4eddef9060200160405180910390a1505050565b6040516001600160a01b03808516602483015283166044820152606481018290526124339085906323b872dd60e01b90608401611c0e565b50505050565b6000612105836001600160a01b038416612e63565b60606000611c5c83612eb2565b600080546001600160a01b038381166001600160a01b0319831681178455604051919092169283917f8be0079c531659141344cd1fd0a4f28419497f9722a3daafe3b4186f6b6457e09190a35050565b6000612105836001600160a01b038416612f0e565b60007f00000000000000000000000000000000000000000000000000000000000000006001600160a01b03166348439e7e6040518163ffffffff1660e01b8152600401602060405180830381865afa158015612520573d6000803e3d6000fd5b505050506040513d601f19601f820116820180604052508101906125449190613d45565b600154604051637d2041e560e11b81526001600160a01b039182166004820152848216602482015291169063fa4083ca90604401602060405180830381865afa158015612595573d6000803e3d6000fd5b505050506040513d601f19601f820116820180604052508101906125b99190613d8b565b90506125c36105ec565b506125d562636e6360e81b8383613001565b6125e66231b93b60e91b8383613001565b6112f9620c6ecf60eb1b8383613001565b6000806000807f00000000000000000000000000000000000000000000000000000000000000006001600160a01b031663b050ecb86040518163ffffffff1660e01b8152600401602060405180830381865afa15801561265b573d6000803e3d6000fd5b505050506040513d601f19601f8201168201806040525081019061267f9190613d45565b905061268a8161309c565b93509350935050909192565b6000858152600660205260408120805483156126ea576008546126d9906126bf6012600a613f7d565b6126c99190613d78565b6126d38988612912565b906120e3565b6126e39082613e86565b9050612701565b6126f48786612912565b6126fe9082613e86565b90505b6001600160a01b03891660009081526002830160205260409020546127319061272a9083613d78565b87906120e3565b6001600160a01b038a1660009081526003840160205260409020546127569190613e86565b9998505050505050505050565b60006127b8826040518060400160405280602081526020017f5361666545524332303a206c6f772d6c6576656c2063616c6c206661696c6564815250856001600160a01b0316611c4a9092919063ffffffff16565b805190915015611c4557808060200190518101906127d69190613fd2565b611c455760405162461bcd60e51b815260206004820152602a60248201527f5361666545524332303a204552433230206f7065726174696f6e20646964206e6044820152691bdd081cdd58d8d9595960b21b606482015260840161053d565b6060824710156128965760405162461bcd60e51b815260206004820152602660248201527f416464726573733a20696e73756666696369656e742062616c616e636520666f6044820152651c8818d85b1b60d21b606482015260840161053d565b600080866001600160a01b031685876040516128b29190614011565b60006040518083038185875af1925050503d80600081146128ef576040519150601f19603f3d011682016040523d82523d6000602084013e6128f4565b606091505b50915091506129058783838761316d565b925050505b949350505050565b6000816129216012600a613f7d565b6120fb9085613f89565b6002805460ff60a01b1916600160a01b17905560408051632421cf3f60e11b815290516001600160a01b037f000000000000000000000000000000000000000000000000000000000000000016916348439e7e9160048083019260209291908290030181865afa1580156129a3573d6000803e3d6000fd5b505050506040513d601f19601f820116820180604052508101906129c79190613d45565b60015460405163a0190c1760e01b81526001600160a01b03918216600482015291169063a0190c1790602401600060405180830381600087803b158015612a0d57600080fd5b505af1158015612a21573d6000803e3d6000fd5b50506002805460ff60a01b1916905550506001546040516370a0823160e01b81526001600160a01b039091166004820152600090734e3fbd56cd56c3e72c1403e103b45db9da5b9d2b906370a0823190602401602060405180830381865afa158015612a91573d6000803e3d6000fd5b505050506040513d601f19601f82011682018060405250810190612ab59190613d8b565b6001546040516370a0823160e01b81526001600160a01b03909116600482015290915060009073d533a949740bb3306d119cc777fa900ba034cd52906370a0823190602401602060405180830381865afa158015612b17573d6000803e3d6000fd5b505050506040513d601f19601f82011682018060405250810190612b3b9190613d8b565b905060007f00000000000000000000000000000000000000000000000000000000000000006001600160a01b031663b050ecb86040518163ffffffff1660e01b8152600401602060405180830381865afa158015612b9d573d6000803e3d6000fd5b505050506040513d601f19601f82011682018060405250810190612bc19190613d45565b9050806001600160a01b031663bc810e26600160009054906101000a90046001600160a01b03166001600160a01b0316636f934abe6040518163ffffffff1660e01b8152600401600060405180830381865afa158015612c25573d6000803e3d6000fd5b505050506040513d6000823e601f3d908101601f19168201604052612c4d9190810190613da4565b6001546040516001600160e01b031960e085901b168152612c7b92916001600160a01b03169060040161402d565b600060405180830381600087803b158015612c9557600080fd5b505af1158015612ca9573d6000803e3d6000fd5b50506001546040516370a0823160e01b81526001600160a01b03909116600482015260009250859150734e3fbd56cd56c3e72c1403e103b45db9da5b9d2b906370a0823190602401602060405180830381865afa158015612d0e573d6000803e3d6000fd5b505050506040513d601f19601f82011682018060405250810190612d329190613d8b565b612d3c9190613d78565b6001546040516370a0823160e01b81526001600160a01b039091166004820152909150600090849073d533a949740bb3306d119cc777fa900ba034cd52906370a0823190602401602060405180830381865afa158015612da0573d6000803e3d6000fd5b505050506040513d601f19601f82011682018060405250810190612dc49190613d8b565b612dce9190613d78565b60408051828152602081018590529192507f141d6e75554381bcc1326596e8010e6c432bb0988e14ca0310d85837a211d292910160405180910390a15050505050565b6000612e1d60036131e6565b905080600003612e2a5750565b60005b81811015612e5a57612e48612e436003836131f0565b6131fc565b80612e5281613e49565b915050612e2d565b506111346135c2565b6000818152600183016020526040812054612eaa57508154600181810184556000848152602080822090930184905584548482528286019093526040902091909155612108565b506000612108565b606081600001805480602002602001604051908101604052809291908181526020018280548015612f0257602002820191906000526020600020905b815481526020019060010190808311612eee575b50505050509050919050565b60008181526001830160205260408120548015612ff7576000612f32600183613d78565b8554909150600090612f4690600190613d78565b9050818114612fab576000866000018281548110612f6657612f66613e33565b9060005260206000200154905080876000018481548110612f8957612f89613e33565b6000918252602080832090910192909255918252600188019052604090208390555b8554869080612fbc57612fbc614057565b600190038181906000526020600020016000905590558560010160008681526020019081526020016000206000905560019350505050612108565b6000915050612108565b60008381526006602090815260408083206001600160a01b03861684526002810190925282205481549192916130419161303a91613d78565b84906120e3565b6001600160a01b0385166000908152600384016020526040812080549293508392909190613070908490613e86565b909155505081546001600160a01b03909416600090815260029092016020525060409020919091555050565b6000806000806000806130ae87611cbd565b6231b93b60e91b60005260066020527fe2ee452672e51ea6a0e1a769beff058add3428c3669348c1314b250e4abcf6445492955090935091506130f19084613d78565b620c6ecf60eb1b60005260066020527f3acadc8a217eebdcf686f20849b9575c123b0b8572285c75a94ddd9d4c51e5bb5490965061312f9083613d78565b62636e6360e81b60005260066020527f7af089d8bde560df8f6fed82c9d27c7cabc5c74f30c79b49f5655e8729cb5c4f549095506120d69082613d78565b606083156131dc5782516000036131d5576001600160a01b0385163b6131d55760405162461bcd60e51b815260206004820152601d60248201527f416464726573733a2063616c6c20746f206e6f6e2d636f6e7472616374000000604482015260640161053d565b508161290a565b61290a8383613726565b6000612108825490565b60006121058383613750565b6040516370a0823160e01b81523060048201526000906001600160a01b038316906370a0823190602401602060405180830381865afa158015613243573d6000803e3d6000fd5b505050506040513d601f19601f820116820180604052508101906132679190613d8b565b905080600003613275575050565b6001600160a01b03808316600090815260056020526040902054168015613482576000807f00000000000000000000000000000000000000000000000000000000000000006001600160a01b0316639f82b2176040518163ffffffff1660e01b8152600401602060405180830381865afa1580156132f7573d6000803e3d6000fd5b505050506040513d601f19601f8201168201806040525081019061331b9190613d45565b604051632feaac8560e11b81526001600160a01b038581166004830152878116602483015273c02aaa39b223fe8d0a0e5c4f27ead9083c756cc260448301529190911690635fd5590a90606401606060405180830381865afa158015613385573d6000803e3d6000fd5b505050506040513d601f19601f820116820180604052508101906133a9919061407f565b5090925090506fffffffffffffffffffffffffffffffff8083169082166001600160a01b03851663ce7d65038383896133f78c73c02aaa39b223fe8d0a0e5c4f27ead9083c756cc28361377a565b6040516001600160e01b031960e087901b1681526004810194909452602484019290925260448301526064820152600060848201523060a482015260c4016020604051808303816000875af1158015613454573d6000803e3d6000fd5b505050506040513d601f19601f820116820180604052508101906134789190613d8b565b5050505050505050565b60408051600280825260608201835260009260208301908036833701905050905083816000815181106134b7576134b7613e33565b60200260200101906001600160a01b031690816001600160a01b03168152505073c02aaa39b223fe8d0a0e5c4f27ead9083c756cc2816001815181106134ff576134ff613e33565b6001600160a01b039092166020928302919091019091015273d9e1ce17f2641f24ae83637ab66a2cca9c378b9f6338ed1739846135518773c02aaa39b223fe8d0a0e5c4f27ead9083c756cc28361377a565b8430426040518663ffffffff1660e01b81526004016135749594939291906140c2565b6000604051808303816000875af1158015613593573d6000803e3d6000fd5b505050506040513d6000823e601f3d908101601f191682016040526135bb91908101906140fe565b5050505050565b6040516370a0823160e01b815230600482015260009073c02aaa39b223fe8d0a0e5c4f27ead9083c756cc2906370a0823190602401602060405180830381865afa158015613614573d6000803e3d6000fd5b505050506040513d601f19601f820116820180604052508101906136389190613d8b565b9050806000036136455750565b73838af967537350d2c44abb8c010e49e32673ab9463ce7d6503600060018461369773c02aaa39b223fe8d0a0e5c4f27ead9083c756cc2739ae380f0272e2162340a5bb646c354271c0f5cfc8361377a565b60015460405160e087901b6001600160e01b03191681526004810195909552602485019390935260448401919091526064830152600060848301526001600160a01b031660a482015260c4016020604051808303816000875af1158015613702573d6000803e3d6000fd5b505050506040513d601f19601f820116820180604052508101906112f99190613d8b565b8151156137365781518083602001fd5b8060405162461bcd60e51b815260040161053d9190614184565b600082600001828154811061376757613767613e33565b9060005260206000200154905092915050565b6000807f00000000000000000000000000000000000000000000000000000000000000006001600160a01b0316632630c12f6040518163ffffffff1660e01b8152600401602060405180830381865afa1580156137db573d6000803e3d6000fd5b505050506040513d601f19601f820116820180604052508101906137ff9190613d45565b9050836001600160a01b0316856001600160a01b0316036138235782915050611c5c565b6040516375151b6360e01b81526001600160a01b0386811660048301528216906375151b6390602401602060405180830381865afa158015613869573d6000803e3d6000fd5b505050506040513d601f19601f8201168201806040525081019061388d9190613fd2565b158061390057506040516375151b6360e01b81526001600160a01b0385811660048301528216906375151b6390602401602060405180830381865afa1580156138da573d6000803e3d6000fd5b505050506040513d601f19601f820116820180604052508101906138fe9190613fd2565b155b1561390f576000915050611c5c565b613ad4670d2f13f7789f00006126d3876001600160a01b031663313ce5676040518163ffffffff1660e01b8152600401602060405180830381865afa15801561395c573d6000803e3d6000fd5b505050506040513d601f19601f8201168201806040525081019061398091906141b7565b876001600160a01b031663313ce5676040518163ffffffff1660e01b8152600401602060405180830381865afa1580156139be573d6000803e3d6000fd5b505050506040513d601f19601f820116820180604052508101906139e291906141b7565b604051638b2f0f4f60e01b81526001600160a01b038a81166004830152613acd9190881690638b2f0f4f90602401602060405180830381865afa158015613a2d573d6000803e3d6000fd5b505050506040513d601f19601f82011682018060405250810190613a519190613d8b565b604051638b2f0f4f60e01b81526001600160a01b038d81166004830152613ac791908a1690638b2f0f4f90602401602060405180830381865afa158015613a9c573d6000803e3d6000fd5b505050506040513d601f19601f82011682018060405250810190613ac09190613d8b565b8b906120e3565b90612912565b9190613add565b95945050505050565b60008160ff168360ff1603613af3575082611c5c565b8160ff168360ff161115613b1357613b0c848484613b1e565b9050611c5c565b611c59848484613b3f565b6000613b2a82846141da565b613b3590600a6141f3565b611c599085613fa0565b6000613b4b83836141da565b613b5690600a6141f3565b611c599085613f89565b6001600160a01b038116811461113457600080fd5b60008060408385031215613b8857600080fd5b8235613b9381613b60565b91506020830135613ba381613b60565b809150509250929050565b600060208284031215613bc057600080fd5b8135611c5c81613b60565b600081518084526020808501945080840160005b83811015613c045781516001600160a01b031687529582019590820190600101613bdf565b509495945050505050565b6020815260006121056020830184613bcb565b600060208284031215613c3457600080fd5b5035919050565b634e487b7160e01b600052604160045260246000fd5b604051601f8201601f1916810167ffffffffffffffff81118282101715613c7a57613c7a613c3b565b604052919050565b600067ffffffffffffffff821115613c9c57613c9c613c3b565b5060051b60200190565b60006020808385031215613cb957600080fd5b823567ffffffffffffffff811115613cd057600080fd5b8301601f81018513613ce157600080fd5b8035613cf4613cef82613c82565b613c51565b81815260059190911b82018301908381019087831115613d1357600080fd5b928401925b82841015613d3a578335613d2b81613b60565b82529284019290840190613d18565b979650505050505050565b600060208284031215613d5757600080fd5b8151611c5c81613b60565b634e487b7160e01b600052601160045260246000fd5b8181038181111561210857612108613d62565b600060208284031215613d9d57600080fd5b5051919050565b60006020808385031215613db757600080fd5b825167ffffffffffffffff811115613dce57600080fd5b8301601f81018513613ddf57600080fd5b8051613ded613cef82613c82565b81815260059190911b82018301908381019087831115613e0c57600080fd5b928401925b82841015613d3a578351613e2481613b60565b82529284019290840190613e11565b634e487b7160e01b600052603260045260246000fd5b600060018201613e5b57613e5b613d62565b5060010190565b6001600160a01b0383168152604060208201819052600090611c5990830184613bcb565b8082018082111561210857612108613d62565b600181815b80851115613ed4578160001904821115613eba57613eba613d62565b80851615613ec757918102915b93841c9390800290613e9e565b509250929050565b600082613eeb57506001612108565b81613ef857506000612108565b8160018114613f0e5760028114613f1857613f34565b6001915050612108565b60ff841115613f2957613f29613d62565b50506001821b612108565b5060208310610133831016604e8410600b8410161715613f57575081810a612108565b613f618383613e99565b8060001904821115613f7557613f75613d62565b029392505050565b60006121058383613edc565b808202811582820484141761210857612108613d62565b600082613fbd57634e487b7160e01b600052601260045260246000fd5b500490565b80518015158114610f6957600080fd5b600060208284031215613fe457600080fd5b61210582613fc2565b60005b83811015614008578181015183820152602001613ff0565b50506000910152565b60008251614023818460208701613fed565b9190910192915050565b6040815260006140406040830185613bcb565b905060018060a01b03831660208301529392505050565b634e487b7160e01b600052603160045260246000fd5b8051600f81900b8114610f6957600080fd5b60008060006060848603121561409457600080fd5b61409d8461406d565b92506140ab6020850161406d565b91506140b960408501613fc2565b90509250925092565b85815284602082015260a0604082015260006140e160a0830186613bcb565b6001600160a01b0394909416606083015250608001529392505050565b6000602080838503121561411157600080fd5b825167ffffffffffffffff81111561412857600080fd5b8301601f8101851361413957600080fd5b8051614147613cef82613c82565b81815260059190911b8201830190838101908783111561416657600080fd5b928401925b82841015613d3a5783518252928401929084019061416b565b60208152600082518060208401526141a3816040850160208701613fed565b601f01601f19169190910160400192915050565b6000602082840312156141c957600080fd5b815160ff81168114611c5c57600080fd5b60ff828116828216039081111561210857612108613d62565b600061210560ff841683613edc56fea2646970667358221220eb3b911f932c44907416896aa3c17f5b21873905e8d582734f2ca200d89cae8764736f6c63430008110033","bytecodeSha1":"160f48cedd586a1d3f9ea1a309b7e6a8ca6d80e1","compiler":{"evm_version":"london","optimizer":{"enabled":true,"runs":200},"version":"0.8.17+commit.8df45f5f"},"contractName":"RewardManagerV2","language":"Solidity","natspec":{"kind":"dev","methods":{"claimEarnings()":{"details":"Conic pool LP tokens need to be staked in the `LpTokenStaker` in order to receive a share of the CRV, CVX and CNC earnings. after selling all extra reward tokens.","notice":"Claims all CRV, CVX and CNC earned by a user. All extra reward tokens earned will be sold for CNC."},"claimPoolEarningsAndSellRewardTokens()":{"notice":"Claims all claimable CVX and CRV from Convex for all staked Curve LP tokens. Then Swaps all additional rewards tokens for CNC."},"owner()":{"details":"Returns the address of the current owner."},"poolCheckpoint()":{"notice":"Updates the internal fee accounting state. Returns `true` if rewards were claimed"},"renounceOwnership()":{"details":"Leaves the contract without owner. It will not be possible to call `onlyOwner` functions anymore. Can only be called by the current owner. NOTE: Renouncing ownership will leave the contract without an owner, thereby removing any functionality that is only available to the owner."},"transferOwnership(address)":{"details":"Transfers ownership of the contract to a new account (`newOwner`). Can only be called by the current owner."}},"version":1},"opcodes":"PUSH1 0x80 PUSH1 0x40 MSTORE CALLVALUE DUP1 ISZERO PUSH2 0x10 JUMPI PUSH1 0x0 DUP1 REVERT JUMPDEST POP PUSH1 0x4 CALLDATASIZE LT PUSH2 0x1E5 JUMPI PUSH1 0x0 CALLDATALOAD PUSH1 0xE0 SHR DUP1 PUSH4 0xA001ECDD GT PUSH2 0x10F JUMPI DUP1 PUSH4 0xD9CEAB13 GT PUSH2 0xA2 JUMPI DUP1 PUSH4 0xE8465009 GT PUSH2 0x71 JUMPI DUP1 PUSH4 0xE8465009 EQ PUSH2 0x471 JUMPI DUP1 PUSH4 0xF2FDE38B EQ PUSH2 0x480 JUMPI DUP1 PUSH4 0xF77C4791 EQ PUSH2 0x493 JUMPI DUP1 PUSH4 0xFE09D54D EQ PUSH2 0x4BA JUMPI PUSH1 0x0 DUP1 REVERT JUMPDEST DUP1 PUSH4 0xD9CEAB13 EQ PUSH2 0x40A JUMPI DUP1 PUSH4 0xD9E65CED EQ PUSH2 0x42D JUMPI DUP1 PUSH4 0xDC01F60D EQ PUSH2 0x456 JUMPI DUP1 PUSH4 0xE7706183 EQ PUSH2 0x469 JUMPI PUSH1 0x0 DUP1 REVERT JUMPDEST DUP1 PUSH4 0xAE06C1B7 GT PUSH2 0xDE JUMPI DUP1 PUSH4 0xAE06C1B7 EQ PUSH2 0x3AA JUMPI DUP1 PUSH4 0xBF928F8B EQ PUSH2 0x3BD JUMPI DUP1 PUSH4 0xC4D66DE8 EQ PUSH2 0x3D0 JUMPI DUP1 PUSH4 0xD7B96D4E EQ PUSH2 0x3E3 JUMPI PUSH1 0x0 DUP1 REVERT JUMPDEST DUP1 PUSH4 0xA001ECDD EQ PUSH2 0x366 JUMPI DUP1 PUSH4 0xA64E4F8A EQ PUSH2 0x36F JUMPI DUP1 PUSH4 0xA80FF90A EQ PUSH2 0x37C JUMPI DUP1 PUSH4 0xAD5C4648 EQ PUSH2 0x38F JUMPI PUSH1 0x0 DUP1 REVERT JUMPDEST DUP1 PUSH4 0x632473DA GT PUSH2 0x187 JUMPI DUP1 PUSH4 0x759CB53B GT PUSH2 0x156 JUMPI DUP1 PUSH4 0x759CB53B EQ PUSH2 0x304 JUMPI DUP1 PUSH4 0x8DA5CB5B EQ PUSH2 0x31F JUMPI DUP1 PUSH4 0x945C9142 EQ PUSH2 0x330 JUMPI DUP1 PUSH4 0x9C708AAB EQ PUSH2 0x34B JUMPI PUSH1 0x0 DUP1 REVERT JUMPDEST DUP1 PUSH4 0x632473DA EQ PUSH2 0x2A5 JUMPI DUP1 PUSH4 0x6DC47E1E EQ PUSH2 0x2C0 JUMPI DUP1 PUSH4 0x6F307DC3 EQ PUSH2 0x2D5 JUMPI DUP1 PUSH4 0x715018A6 EQ PUSH2 0x2FC JUMPI PUSH1 0x0 DUP1 REVERT JUMPDEST DUP1 PUSH4 0x558E44D3 GT PUSH2 0x1C3 JUMPI DUP1 PUSH4 0x558E44D3 EQ PUSH2 0x24A JUMPI DUP1 PUSH4 0x5790A0C8 EQ PUSH2 0x267 JUMPI DUP1 PUSH4 0x5E43C47B EQ PUSH2 0x27F JUMPI DUP1 PUSH4 0x5FCBD285 EQ PUSH2 0x292 JUMPI PUSH1 0x0 DUP1 REVERT JUMPDEST DUP1 PUSH4 0x3950FB5 EQ PUSH2 0x1EA JUMPI DUP1 PUSH4 0x16F0115B EQ PUSH2 0x1FF JUMPI DUP1 PUSH4 0x49556709 EQ PUSH2 0x22F JUMPI JUMPDEST PUSH1 0x0 DUP1 REVERT JUMPDEST PUSH2 0x1FD PUSH2 0x1F8 CALLDATASIZE PUSH1 0x4 PUSH2 0x3B75 JUMP JUMPDEST PUSH2 0x4CD JUMP JUMPDEST STOP JUMPDEST PUSH1 0x1 SLOAD PUSH2 0x212 SWAP1 PUSH1 0x1 PUSH1 0x1 PUSH1 0xA0 SHL SUB AND DUP2 JUMP JUMPDEST PUSH1 0x40 MLOAD PUSH1 0x1 PUSH1 0x1 PUSH1 0xA0 SHL SUB SWAP1 SWAP2 AND DUP2 MSTORE PUSH1 0x20 ADD JUMPDEST PUSH1 0x40 MLOAD DUP1 SWAP2 SUB SWAP1 RETURN JUMPDEST PUSH2 0x212 PUSH20 0x838AF967537350D2C44ABB8C010E49E32673AB94 DUP2 JUMP JUMPDEST PUSH2 0x259 PUSH8 0x429D069189E0000 DUP2 JUMP JUMPDEST PUSH1 0x40 MLOAD SWAP1 DUP2 MSTORE PUSH1 0x20 ADD PUSH2 0x226 JUMP JUMPDEST PUSH2 0x26F PUSH2 0x5EC JUMP JUMPDEST PUSH1 0x40 MLOAD SWAP1 ISZERO ISZERO DUP2 MSTORE PUSH1 0x20 ADD PUSH2 0x226 JUMP JUMPDEST PUSH2 0x26F PUSH2 0x28D CALLDATASIZE PUSH1 0x4 PUSH2 0x3BAE JUMP JUMPDEST PUSH2 0xB86 JUMP JUMPDEST PUSH1 0x2 SLOAD PUSH2 0x212 SWAP1 PUSH1 0x1 PUSH1 0x1 PUSH1 0xA0 SHL SUB AND DUP2 JUMP JUMPDEST PUSH2 0x212 PUSH20 0x9AE380F0272E2162340A5BB646C354271C0F5CFC DUP2 JUMP JUMPDEST PUSH2 0x2C8 PUSH2 0xF6E JUMP JUMPDEST PUSH1 0x40 MLOAD PUSH2 0x226 SWAP2 SWAP1 PUSH2 0x3C0F JUMP JUMPDEST PUSH2 0x212 PUSH32 0x0 DUP2 JUMP JUMPDEST PUSH2 0x1FD PUSH2 0xF7F JUMP JUMPDEST PUSH2 0x212 PUSH20 0x4E3FBD56CD56C3E72C1403E103B45DB9DA5B9D2B DUP2 JUMP JUMPDEST PUSH1 0x0 SLOAD PUSH1 0x1 PUSH1 0x1 PUSH1 0xA0 SHL SUB AND PUSH2 0x212 JUMP JUMPDEST PUSH2 0x212 PUSH20 0xD533A949740BB3306D119CC777FA900BA034CD52 DUP2 JUMP JUMPDEST PUSH2 0x212 PUSH20 0xD9E1CE17F2641F24AE83637AB66A2CCA9C378B9F DUP2 JUMP JUMPDEST PUSH2 0x259 PUSH1 0x8 SLOAD DUP2 JUMP JUMPDEST PUSH1 0x7 SLOAD PUSH2 0x26F SWAP1 PUSH1 0xFF AND DUP2 JUMP JUMPDEST PUSH2 0x1FD PUSH2 0x38A CALLDATASIZE PUSH1 0x4 PUSH2 0x3BAE JUMP JUMPDEST PUSH2 0xF93 JUMP JUMPDEST PUSH2 0x212 PUSH20 0xC02AAA39B223FE8D0A0E5C4F27EAD9083C756CC2 DUP2 JUMP JUMPDEST PUSH2 0x1FD PUSH2 0x3B8 CALLDATASIZE PUSH1 0x4 PUSH2 0x3C22 JUMP JUMPDEST PUSH2 0xFE7 JUMP JUMPDEST PUSH2 0x1FD PUSH2 0x3CB CALLDATASIZE PUSH1 0x4 PUSH2 0x3BAE JUMP JUMPDEST PUSH2 0x112B JUMP JUMPDEST PUSH2 0x1FD PUSH2 0x3DE CALLDATASIZE PUSH1 0x4 PUSH2 0x3BAE JUMP JUMPDEST PUSH2 0x1137 JUMP JUMPDEST PUSH2 0x212 PUSH32 0x0 DUP2 JUMP JUMPDEST PUSH2 0x412 PUSH2 0x12FD JUMP JUMPDEST PUSH1 0x40 DUP1 MLOAD SWAP4 DUP5 MSTORE PUSH1 0x20 DUP5 ADD SWAP3 SWAP1 SWAP3 MSTORE SWAP1 DUP3 ADD MSTORE PUSH1 0x60 ADD PUSH2 0x226 JUMP JUMPDEST PUSH2 0x212 PUSH2 0x43B CALLDATASIZE PUSH1 0x4 PUSH2 0x3BAE JUMP JUMPDEST PUSH1 0x5 PUSH1 0x20 MSTORE PUSH1 0x0 SWAP1 DUP2 MSTORE PUSH1 0x40 SWAP1 KECCAK256 SLOAD PUSH1 0x1 PUSH1 0x1 PUSH1 0xA0 SHL SUB AND DUP2 JUMP JUMPDEST PUSH2 0x412 PUSH2 0x464 CALLDATASIZE PUSH1 0x4 PUSH2 0x3BAE JUMP JUMPDEST PUSH2 0x179E JUMP JUMPDEST PUSH2 0x1FD PUSH2 0x1A2A JUMP JUMPDEST PUSH2 0x259 PUSH8 0xD2F13F7789F0000 DUP2 JUMP JUMPDEST PUSH2 0x1FD PUSH2 0x48E CALLDATASIZE PUSH1 0x4 PUSH2 0x3BAE JUMP JUMPDEST PUSH2 0x1A3E JUMP JUMPDEST PUSH2 0x212 PUSH32 0x0 DUP2 JUMP JUMPDEST PUSH2 0x1FD PUSH2 0x4C8 CALLDATASIZE PUSH1 0x4 PUSH2 0x3CA6 JUMP JUMPDEST PUSH2 0x1AB4 JUMP JUMPDEST PUSH2 0x4D5 PUSH2 0x1C63 JUMP JUMPDEST PUSH1 0x1 PUSH1 0x1 PUSH1 0xA0 SHL SUB DUP1 DUP4 AND PUSH1 0x0 SWAP1 DUP2 MSTORE PUSH1 0x5 PUSH1 0x20 MSTORE PUSH1 0x40 SWAP1 KECCAK256 SLOAD DUP2 AND SWAP1 DUP3 AND SUB PUSH2 0x546 JUMPI PUSH1 0x40 MLOAD PUSH3 0x461BCD PUSH1 0xE5 SHL DUP2 MSTORE PUSH1 0x20 PUSH1 0x4 DUP3 ADD MSTORE PUSH1 0x1C PUSH1 0x24 DUP3 ADD MSTORE PUSH32 0x6D75737420626520646966666572656E7420746F2063757272656E7400000000 PUSH1 0x44 DUP3 ADD MSTORE PUSH1 0x64 ADD JUMPDEST PUSH1 0x40 MLOAD DUP1 SWAP2 SUB SWAP1 REVERT JUMPDEST PUSH1 0x1 PUSH1 0x1 PUSH1 0xA0 SHL SUB DUP2 AND ISZERO PUSH2 0x580 JUMPI PUSH2 0x56A PUSH1 0x1 PUSH1 0x1 PUSH1 0xA0 SHL SUB DUP4 AND DUP3 PUSH1 0x0 PUSH2 0x1AFD JUMP JUMPDEST PUSH2 0x580 PUSH1 0x1 PUSH1 0x1 PUSH1 0xA0 SHL SUB DUP4 AND DUP3 PUSH1 0x0 NOT PUSH2 0x1AFD JUMP JUMPDEST PUSH1 0x1 PUSH1 0x1 PUSH1 0xA0 SHL SUB DUP3 DUP2 AND PUSH1 0x0 DUP2 DUP2 MSTORE PUSH1 0x5 PUSH1 0x20 SWAP1 DUP2 MSTORE PUSH1 0x40 SWAP2 DUP3 SWAP1 KECCAK256 DUP1 SLOAD PUSH1 0x1 PUSH1 0x1 PUSH1 0xA0 SHL SUB NOT AND SWAP5 DUP7 AND SWAP5 DUP6 OR SWAP1 SSTORE DUP2 MLOAD SWAP3 DUP4 MSTORE DUP3 ADD SWAP3 SWAP1 SWAP3 MSTORE PUSH32 0x8C529C22BABAD500CEA1516422F2BF23F6E1E7FAB884B816062D20A9A0F78FEF SWAP2 ADD JUMPDEST PUSH1 0x40 MLOAD DUP1 SWAP2 SUB SWAP1 LOG1 POP POP JUMP JUMPDEST PUSH1 0x0 DUP1 PUSH32 0x0 PUSH1 0x1 PUSH1 0x1 PUSH1 0xA0 SHL SUB AND PUSH4 0xB050ECB8 PUSH1 0x40 MLOAD DUP2 PUSH4 0xFFFFFFFF AND PUSH1 0xE0 SHL DUP2 MSTORE PUSH1 0x4 ADD PUSH1 0x20 PUSH1 0x40 MLOAD DUP1 DUP4 SUB DUP2 DUP7 GAS STATICCALL ISZERO DUP1 ISZERO PUSH2 0x64D JUMPI RETURNDATASIZE PUSH1 0x0 DUP1 RETURNDATACOPY RETURNDATASIZE PUSH1 0x0 REVERT JUMPDEST POP POP POP POP PUSH1 0x40 MLOAD RETURNDATASIZE PUSH1 0x1F NOT PUSH1 0x1F DUP3 ADD AND DUP3 ADD DUP1 PUSH1 0x40 MSTORE POP DUP2 ADD SWAP1 PUSH2 0x671 SWAP2 SWAP1 PUSH2 0x3D45 JUMP JUMPDEST SWAP1 POP PUSH1 0x0 DUP1 PUSH1 0x0 PUSH2 0x681 DUP5 PUSH2 0x1CBD JUMP JUMPDEST PUSH3 0x31B93B PUSH1 0xE9 SHL PUSH1 0x0 SWAP1 DUP2 MSTORE PUSH1 0x6 PUSH1 0x20 MSTORE PUSH32 0xE2EE452672E51EA6A0E1A769BEFF058ADD3428C3669348C1314B250E4ABCF644 SLOAD SWAP4 SWAP7 POP SWAP2 SWAP5 POP SWAP3 POP SWAP1 PUSH2 0x6C7 SWAP1 DUP6 PUSH2 0x3D78 JUMP JUMPDEST PUSH3 0xC6ECF PUSH1 0xEB SHL PUSH1 0x0 SWAP1 DUP2 MSTORE PUSH1 0x6 PUSH1 0x20 MSTORE PUSH32 0x3ACADC8A217EEBDCF686F20849B9575C123B0B8572285C75A94DDD9D4C51E5BB SLOAD SWAP2 SWAP3 POP SWAP1 PUSH2 0x708 SWAP1 DUP6 PUSH2 0x3D78 JUMP JUMPDEST PUSH3 0x636E63 PUSH1 0xE8 SHL PUSH1 0x0 SWAP1 DUP2 MSTORE PUSH1 0x6 PUSH1 0x20 MSTORE PUSH32 0x7AF089D8BDE560DF8F6FED82C9D27C7CABC5C74F30C79B49F5655E8729CB5C4F SLOAD SWAP2 SWAP3 POP SWAP1 PUSH2 0x749 SWAP1 DUP6 PUSH2 0x3D78 JUMP JUMPDEST PUSH1 0x7 SLOAD SWAP1 SWAP2 POP PUSH1 0x0 SWAP1 DUP2 SWAP1 PUSH1 0xFF AND ISZERO PUSH2 0x7B4 JUMPI PUSH1 0x8 SLOAD PUSH2 0x76A SWAP1 DUP7 SWAP1 PUSH2 0x20E3 JUMP JUMPDEST SWAP2 POP PUSH2 0x781 PUSH1 0x8 SLOAD DUP6 PUSH2 0x20E3 SWAP1 SWAP2 SWAP1 PUSH4 0xFFFFFFFF AND JUMP JUMPDEST SWAP1 POP PUSH2 0x78D DUP3 DUP7 PUSH2 0x3D78 JUMP JUMPDEST SWAP5 POP PUSH2 0x799 DUP2 DUP6 PUSH2 0x3D78 JUMP JUMPDEST SWAP4 POP PUSH2 0x7A5 DUP3 DUP10 PUSH2 0x3D78 JUMP JUMPDEST SWAP8 POP PUSH2 0x7B1 DUP2 DUP9 PUSH2 0x3D78 JUMP JUMPDEST SWAP7 POP JUMPDEST PUSH1 0x0 PUSH32 0x0 PUSH1 0x1 PUSH1 0x1 PUSH1 0xA0 SHL SUB AND PUSH4 0x48439E7E PUSH1 0x40 MLOAD DUP2 PUSH4 0xFFFFFFFF AND PUSH1 0xE0 SHL DUP2 MSTORE PUSH1 0x4 ADD PUSH1 0x20 PUSH1 0x40 MLOAD DUP1 DUP4 SUB DUP2 DUP7 GAS STATICCALL ISZERO DUP1 ISZERO PUSH2 0x814 JUMPI RETURNDATASIZE PUSH1 0x0 DUP1 RETURNDATACOPY RETURNDATASIZE PUSH1 0x0 REVERT JUMPDEST POP POP POP POP PUSH1 0x40 MLOAD RETURNDATASIZE PUSH1 0x1F NOT PUSH1 0x1F DUP3 ADD AND DUP3 ADD DUP1 PUSH1 0x40 MSTORE POP DUP2 ADD SWAP1 PUSH2 0x838 SWAP2 SWAP1 PUSH2 0x3D45 JUMP JUMPDEST PUSH1 0x1 SLOAD PUSH1 0x40 MLOAD PUSH4 0x5598B209 PUSH1 0xE0 SHL DUP2 MSTORE PUSH1 0x1 PUSH1 0x1 PUSH1 0xA0 SHL SUB SWAP2 DUP3 AND PUSH1 0x4 DUP3 ADD MSTORE SWAP2 AND SWAP1 PUSH4 0x5598B209 SWAP1 PUSH1 0x24 ADD PUSH1 0x20 PUSH1 0x40 MLOAD DUP1 DUP4 SUB DUP2 DUP7 GAS STATICCALL ISZERO DUP1 ISZERO PUSH2 0x881 JUMPI RETURNDATASIZE PUSH1 0x0 DUP1 RETURNDATACOPY RETURNDATASIZE PUSH1 0x0 REVERT JUMPDEST POP POP POP POP PUSH1 0x40 MLOAD RETURNDATASIZE PUSH1 0x1F NOT PUSH1 0x1F DUP3 ADD AND DUP3 ADD DUP1 PUSH1 0x40 MSTORE POP DUP2 ADD SWAP1 PUSH2 0x8A5 SWAP2 SWAP1 PUSH2 0x3D8B JUMP JUMPDEST SWAP1 POP DUP1 ISZERO PUSH2 0x8E3 JUMPI PUSH2 0x8BF PUSH3 0xC6ECF PUSH1 0xEB SHL DUP10 DUP8 DUP5 PUSH2 0x210E JUMP JUMPDEST PUSH2 0x8D1 PUSH3 0x31B93B PUSH1 0xE9 SHL DUP11 DUP9 DUP5 PUSH2 0x210E JUMP JUMPDEST PUSH2 0x8E3 PUSH3 0x636E63 PUSH1 0xE8 SHL DUP9 DUP7 DUP5 PUSH2 0x210E JUMP JUMPDEST PUSH1 0x7 SLOAD PUSH1 0xFF AND PUSH2 0x8FE JUMPI PUSH1 0x0 SWAP11 POP POP POP POP POP POP POP POP POP POP POP SWAP1 JUMP JUMPDEST PUSH1 0x1 SLOAD PUSH1 0x40 MLOAD PUSH4 0x70A08231 PUSH1 0xE0 SHL DUP2 MSTORE PUSH1 0x1 PUSH1 0x1 PUSH1 0xA0 SHL SUB SWAP1 SWAP2 AND PUSH1 0x4 DUP3 ADD MSTORE PUSH1 0x0 SWAP1 PUSH20 0xD533A949740BB3306D119CC777FA900BA034CD52 SWAP1 PUSH4 0x70A08231 SWAP1 PUSH1 0x24 ADD PUSH1 0x20 PUSH1 0x40 MLOAD DUP1 DUP4 SUB DUP2 DUP7 GAS STATICCALL ISZERO DUP1 ISZERO PUSH2 0x95D JUMPI RETURNDATASIZE PUSH1 0x0 DUP1 RETURNDATACOPY RETURNDATASIZE PUSH1 0x0 REVERT JUMPDEST POP POP POP POP PUSH1 0x40 MLOAD RETURNDATASIZE PUSH1 0x1F NOT PUSH1 0x1F DUP3 ADD AND DUP3 ADD DUP1 PUSH1 0x40 MSTORE POP DUP2 ADD SWAP1 PUSH2 0x981 SWAP2 SWAP1 PUSH2 0x3D8B JUMP JUMPDEST DUP5 GT DUP1 PUSH2 0xA0C JUMPI POP PUSH1 0x1 SLOAD PUSH1 0x40 MLOAD PUSH4 0x70A08231 PUSH1 0xE0 SHL DUP2 MSTORE PUSH1 0x1 PUSH1 0x1 PUSH1 0xA0 SHL SUB SWAP1 SWAP2 AND PUSH1 0x4 DUP3 ADD MSTORE PUSH20 0x4E3FBD56CD56C3E72C1403E103B45DB9DA5B9D2B SWAP1 PUSH4 0x70A08231 SWAP1 PUSH1 0x24 ADD PUSH1 0x20 PUSH1 0x40 MLOAD DUP1 DUP4 SUB DUP2 DUP7 GAS STATICCALL ISZERO DUP1 ISZERO PUSH2 0x9E5 JUMPI RETURNDATASIZE PUSH1 0x0 DUP1 RETURNDATACOPY RETURNDATASIZE PUSH1 0x0 REVERT JUMPDEST POP POP POP POP PUSH1 0x40 MLOAD RETURNDATASIZE PUSH1 0x1F NOT PUSH1 0x1F DUP3 ADD AND DUP3 ADD DUP1 PUSH1 0x40 MSTORE POP DUP2 ADD SWAP1 PUSH2 0xA09 SWAP2 SWAP1 PUSH2 0x3D8B JUMP JUMPDEST DUP4 GT JUMPDEST ISZERO PUSH2 0xA1D JUMPI PUSH2 0xA19 PUSH2 0x2152 JUMP JUMPDEST POP PUSH1 0x1 JUMPDEST PUSH1 0x1 SLOAD PUSH2 0xA4A SWAP1 PUSH20 0xD533A949740BB3306D119CC777FA900BA034CD52 SWAP1 PUSH1 0x1 PUSH1 0x1 PUSH1 0xA0 SHL SUB AND ADDRESS DUP8 PUSH2 0x23FB JUMP JUMPDEST PUSH1 0x1 SLOAD PUSH2 0xA77 SWAP1 PUSH20 0x4E3FBD56CD56C3E72C1403E103B45DB9DA5B9D2B SWAP1 PUSH1 0x1 PUSH1 0x1 PUSH1 0xA0 SHL SUB AND ADDRESS DUP7 PUSH2 0x23FB JUMP JUMPDEST PUSH2 0xAB6 PUSH20 0xD533A949740BB3306D119CC777FA900BA034CD52 PUSH32 0x0 DUP7 PUSH2 0x1AFD JUMP JUMPDEST PUSH2 0xAF5 PUSH20 0x4E3FBD56CD56C3E72C1403E103B45DB9DA5B9D2B PUSH32 0x0 DUP6 PUSH2 0x1AFD JUMP JUMPDEST PUSH1 0x40 MLOAD PUSH4 0x9E690EB PUSH1 0xE3 SHL DUP2 MSTORE PUSH1 0x4 DUP2 ADD DUP6 SWAP1 MSTORE PUSH1 0x24 DUP2 ADD DUP5 SWAP1 MSTORE PUSH32 0x0 PUSH1 0x1 PUSH1 0x1 PUSH1 0xA0 SHL SUB AND SWAP1 PUSH4 0x4F348758 SWAP1 PUSH1 0x44 ADD PUSH1 0x0 PUSH1 0x40 MLOAD DUP1 DUP4 SUB DUP2 PUSH1 0x0 DUP8 DUP1 EXTCODESIZE ISZERO DUP1 ISZERO PUSH2 0xB5E JUMPI PUSH1 0x0 DUP1 REVERT JUMPDEST POP GAS CALL ISZERO DUP1 ISZERO PUSH2 0xB72 JUMPI RETURNDATASIZE PUSH1 0x0 DUP1 RETURNDATACOPY RETURNDATASIZE PUSH1 0x0 REVERT JUMPDEST POP SWAP3 SWAP15 SWAP14 POP POP POP POP POP POP POP POP POP POP POP POP POP POP JUMP JUMPDEST PUSH1 0x0 PUSH2 0xB90 PUSH2 0x1C63 JUMP JUMPDEST PUSH1 0x1 PUSH1 0x1 PUSH1 0xA0 SHL SUB DUP3 AND PUSH2 0xBD8 JUMPI PUSH1 0x40 MLOAD PUSH3 0x461BCD PUSH1 0xE5 SHL DUP2 MSTORE PUSH1 0x20 PUSH1 0x4 DUP3 ADD MSTORE PUSH1 0xF PUSH1 0x24 DUP3 ADD MSTORE PUSH15 0x696E76616C69642061646472657373 PUSH1 0x88 SHL PUSH1 0x44 DUP3 ADD MSTORE PUSH1 0x64 ADD PUSH2 0x53D JUMP JUMPDEST PUSH1 0x1 PUSH1 0x1 PUSH1 0xA0 SHL SUB DUP3 AND PUSH20 0x4E3FBD56CD56C3E72C1403E103B45DB9DA5B9D2B EQ DUP1 ISZERO SWAP1 PUSH2 0xC22 JUMPI POP PUSH1 0x1 PUSH1 0x1 PUSH1 0xA0 SHL SUB DUP3 AND PUSH20 0xD533A949740BB3306D119CC777FA900BA034CD52 EQ ISZERO JUMPDEST DUP1 ISZERO PUSH2 0xC60 JUMPI POP PUSH32 0x0 PUSH1 0x1 PUSH1 0x1 PUSH1 0xA0 SHL SUB AND DUP3 PUSH1 0x1 PUSH1 0x1 PUSH1 0xA0 SHL SUB AND EQ ISZERO JUMPDEST DUP1 ISZERO PUSH2 0xC89 JUMPI POP PUSH1 0x1 PUSH1 0x1 PUSH1 0xA0 SHL SUB DUP3 AND PUSH20 0x9AE380F0272E2162340A5BB646C354271C0F5CFC EQ ISZERO JUMPDEST PUSH2 0xCC9 JUMPI PUSH1 0x40 MLOAD PUSH3 0x461BCD PUSH1 0xE5 SHL DUP2 MSTORE PUSH1 0x20 PUSH1 0x4 DUP3 ADD MSTORE PUSH1 0x11 PUSH1 0x24 DUP3 ADD MSTORE PUSH17 0x1D1BDAD95B881B9BDD08185B1B1BDDD959 PUSH1 0x7A SHL PUSH1 0x44 DUP3 ADD MSTORE PUSH1 0x64 ADD PUSH2 0x53D JUMP JUMPDEST PUSH1 0x1 SLOAD PUSH1 0x40 DUP1 MLOAD PUSH4 0x37C9A55F PUSH1 0xE1 SHL DUP2 MSTORE SWAP1 MLOAD PUSH1 0x0 SWAP3 PUSH1 0x1 PUSH1 0x1 PUSH1 0xA0 SHL SUB AND SWAP2 PUSH4 0x6F934ABE SWAP2 PUSH1 0x4 DUP1 DUP4 ADD SWAP3 DUP7 SWAP3 SWAP2 SWAP1 DUP3 SWAP1 SUB ADD DUP2 DUP7 GAS STATICCALL ISZERO DUP1 ISZERO PUSH2 0xD12 JUMPI RETURNDATASIZE PUSH1 0x0 DUP1 RETURNDATACOPY RETURNDATASIZE PUSH1 0x0 REVERT JUMPDEST POP POP POP POP PUSH1 0x40 MLOAD RETURNDATASIZE PUSH1 0x0 DUP3 RETURNDATACOPY PUSH1 0x1F RETURNDATASIZE SWAP1 DUP2 ADD PUSH1 0x1F NOT AND DUP3 ADD PUSH1 0x40 MSTORE PUSH2 0xD3A SWAP2 SWAP1 DUP2 ADD SWAP1 PUSH2 0x3DA4 JUMP JUMPDEST SWAP1 POP PUSH1 0x0 JUMPDEST DUP2 MLOAD DUP2 LT ISZERO PUSH2 0xECA JUMPI PUSH1 0x0 PUSH32 0x0 PUSH1 0x1 PUSH1 0x1 PUSH1 0xA0 SHL SUB AND PUSH4 0x9F82B217 PUSH1 0x40 MLOAD DUP2 PUSH4 0xFFFFFFFF AND PUSH1 0xE0 SHL DUP2 MSTORE PUSH1 0x4 ADD PUSH1 0x20 PUSH1 0x40 MLOAD DUP1 DUP4 SUB DUP2 DUP7 GAS STATICCALL ISZERO DUP1 ISZERO PUSH2 0xDA8 JUMPI RETURNDATASIZE PUSH1 0x0 DUP1 RETURNDATACOPY RETURNDATASIZE PUSH1 0x0 REVERT JUMPDEST POP POP POP POP PUSH1 0x40 MLOAD RETURNDATASIZE PUSH1 0x1F NOT PUSH1 0x1F DUP3 ADD AND DUP3 ADD DUP1 PUSH1 0x40 MSTORE POP DUP2 ADD SWAP1 PUSH2 0xDCC SWAP2 SWAP1 PUSH2 0x3D45 JUMP JUMPDEST PUSH1 0x1 PUSH1 0x1 PUSH1 0xA0 SHL SUB AND PUSH4 0x76A562A4 DUP5 DUP5 DUP2 MLOAD DUP2 LT PUSH2 0xDEC JUMPI PUSH2 0xDEC PUSH2 0x3E33 JUMP JUMPDEST PUSH1 0x20 MUL PUSH1 0x20 ADD ADD MLOAD PUSH1 0x40 MLOAD DUP3 PUSH4 0xFFFFFFFF AND PUSH1 0xE0 SHL DUP2 MSTORE PUSH1 0x4 ADD PUSH2 0xE1F SWAP2 SWAP1 PUSH1 0x1 PUSH1 0x1 PUSH1 0xA0 SHL SUB SWAP2 SWAP1 SWAP2 AND DUP2 MSTORE PUSH1 0x20 ADD SWAP1 JUMP JUMPDEST PUSH1 0x20 PUSH1 0x40 MLOAD DUP1 DUP4 SUB DUP2 DUP7 GAS STATICCALL ISZERO DUP1 ISZERO PUSH2 0xE3C JUMPI RETURNDATASIZE PUSH1 0x0 DUP1 RETURNDATACOPY RETURNDATASIZE PUSH1 0x0 REVERT JUMPDEST POP POP POP POP PUSH1 0x40 MLOAD RETURNDATASIZE PUSH1 0x1F NOT PUSH1 0x1F DUP3 ADD AND DUP3 ADD DUP1 PUSH1 0x40 MSTORE POP DUP2 ADD SWAP1 PUSH2 0xE60 SWAP2 SWAP1 PUSH2 0x3D45 JUMP JUMPDEST SWAP1 POP DUP1 PUSH1 0x1 PUSH1 0x1 PUSH1 0xA0 SHL SUB AND DUP6 PUSH1 0x1 PUSH1 0x1 PUSH1 0xA0 SHL SUB AND SUB PUSH2 0xEB7 JUMPI PUSH1 0x40 MLOAD PUSH3 0x461BCD PUSH1 0xE5 SHL DUP2 MSTORE PUSH1 0x20 PUSH1 0x4 DUP3 ADD MSTORE PUSH1 0x11 PUSH1 0x24 DUP3 ADD MSTORE PUSH17 0x1D1BDAD95B881B9BDD08185B1B1BDDD959 PUSH1 0x7A SHL PUSH1 0x44 DUP3 ADD MSTORE PUSH1 0x64 ADD PUSH2 0x53D JUMP JUMPDEST POP DUP1 PUSH2 0xEC2 DUP2 PUSH2 0x3E49 JUMP JUMPDEST SWAP2 POP POP PUSH2 0xD3F JUMP JUMPDEST POP PUSH2 0xEF4 PUSH1 0x1 PUSH1 0x1 PUSH1 0xA0 SHL SUB DUP5 AND PUSH20 0xD9E1CE17F2641F24AE83637AB66A2CCA9C378B9F PUSH1 0x0 PUSH2 0x1AFD JUMP JUMPDEST PUSH2 0xF1E PUSH1 0x1 PUSH1 0x1 PUSH1 0xA0 SHL SUB DUP5 AND PUSH20 0xD9E1CE17F2641F24AE83637AB66A2CCA9C378B9F PUSH1 0x0 NOT PUSH2 0x1AFD JUMP JUMPDEST PUSH1 0x40 MLOAD PUSH1 0x1 PUSH1 0x1 PUSH1 0xA0 SHL SUB DUP5 AND DUP2 MSTORE PUSH32 0xD432E6F46DBF91C120FDFA95A1F4BF5C43F04D957FBC3A32E693BE0D29BF17B0 SWAP1 PUSH1 0x20 ADD PUSH1 0x40 MLOAD DUP1 SWAP2 SUB SWAP1 LOG1 PUSH2 0xF65 PUSH1 0x3 DUP5 PUSH2 0x2439 JUMP JUMPDEST SWAP2 POP POP JUMPDEST SWAP2 SWAP1 POP JUMP JUMPDEST PUSH1 0x60 PUSH2 0xF7A PUSH1 0x3 PUSH2 0x244E JUMP JUMPDEST SWAP1 POP SWAP1 JUMP JUMPDEST PUSH2 0xF87 PUSH2 0x1C63 JUMP JUMPDEST PUSH2 0xF91 PUSH1 0x0 PUSH2 0x245B JUMP JUMPDEST JUMP JUMPDEST PUSH2 0xF9B PUSH2 0x1C63 JUMP JUMPDEST PUSH2 0xFA6 PUSH1 0x3 DUP3 PUSH2 0x24AB JUMP JUMPDEST POP PUSH1 0x40 MLOAD PUSH1 0x1 PUSH1 0x1 PUSH1 0xA0 SHL SUB DUP3 AND DUP2 MSTORE PUSH32 0xE0F3B1406AB4DD940A92A081B1BCEF51DA212A57978CC8F6DDE5C89AB41A5AA7 SWAP1 PUSH1 0x20 ADD JUMPDEST PUSH1 0x40 MLOAD DUP1 SWAP2 SUB SWAP1 LOG1 POP JUMP JUMPDEST PUSH2 0xFEF PUSH2 0x1C63 JUMP JUMPDEST PUSH8 0x429D069189E0000 DUP2 LT PUSH2 0x1059 JUMPI PUSH1 0x40 MLOAD PUSH3 0x461BCD PUSH1 0xE5 SHL DUP2 MSTORE PUSH1 0x20 PUSH1 0x4 DUP3 ADD MSTORE PUSH1 0x2A PUSH1 0x24 DUP3 ADD MSTORE PUSH32 0x63616E6E6F7420736574206665652070657263656E7461676520746F206D6F72 PUSH1 0x44 DUP3 ADD MSTORE PUSH10 0x65207468616E20333025 PUSH1 0xB0 SHL PUSH1 0x64 DUP3 ADD MSTORE PUSH1 0x84 ADD PUSH2 0x53D JUMP JUMPDEST PUSH1 0x0 PUSH32 0x0 PUSH1 0x1 PUSH1 0x1 PUSH1 0xA0 SHL SUB AND PUSH4 0x631516C2 PUSH1 0x40 MLOAD DUP2 PUSH4 0xFFFFFFFF AND PUSH1 0xE0 SHL DUP2 MSTORE PUSH1 0x4 ADD PUSH1 0x20 PUSH1 0x40 MLOAD DUP1 DUP4 SUB DUP2 DUP7 GAS STATICCALL ISZERO DUP1 ISZERO PUSH2 0x10B9 JUMPI RETURNDATASIZE PUSH1 0x0 DUP1 RETURNDATACOPY RETURNDATASIZE PUSH1 0x0 REVERT JUMPDEST POP POP POP POP PUSH1 0x40 MLOAD RETURNDATASIZE PUSH1 0x1F NOT PUSH1 0x1F DUP3 ADD AND DUP3 ADD DUP1 PUSH1 0x40 MSTORE POP DUP2 ADD SWAP1 PUSH2 0x10DD SWAP2 SWAP1 PUSH2 0x3D8B JUMP JUMPDEST GT PUSH2 0x10E7 JUMPI PUSH1 0x0 DUP1 REVERT JUMPDEST PUSH1 0x8 DUP2 SWAP1 SSTORE PUSH1 0x7 DUP1 SLOAD PUSH1 0xFF NOT AND PUSH1 0x1 OR SWAP1 SSTORE PUSH1 0x40 MLOAD PUSH32 0x3346AF6DA1932164D501F2EC28F8C5D686DB5828A36B77F2DA4332D89184FE7B SWAP1 PUSH2 0xFDC SWAP1 DUP4 DUP2 MSTORE PUSH1 0x20 ADD SWAP1 JUMP JUMPDEST PUSH2 0x1134 DUP2 PUSH2 0x24C0 JUMP JUMPDEST POP JUMP JUMPDEST PUSH2 0x113F PUSH2 0x1C63 JUMP JUMPDEST PUSH1 0x0 SLOAD PUSH1 0x1 PUSH1 0xA8 SHL SWAP1 DIV PUSH1 0xFF AND ISZERO DUP1 DUP1 ISZERO PUSH2 0x1167 JUMPI POP PUSH1 0x0 SLOAD PUSH1 0x1 PUSH1 0x1 PUSH1 0xA0 SHL SWAP1 SWAP2 DIV PUSH1 0xFF AND LT JUMPDEST DUP1 PUSH2 0x1188 JUMPI POP ADDRESS EXTCODESIZE ISZERO DUP1 ISZERO PUSH2 0x1188 JUMPI POP PUSH1 0x0 SLOAD PUSH1 0x1 PUSH1 0xA0 SHL SWAP1 DIV PUSH1 0xFF AND PUSH1 0x1 EQ JUMPDEST PUSH2 0x11EB JUMPI PUSH1 0x40 MLOAD PUSH3 0x461BCD PUSH1 0xE5 SHL DUP2 MSTORE PUSH1 0x20 PUSH1 0x4 DUP3 ADD MSTORE PUSH1 0x2E PUSH1 0x24 DUP3 ADD MSTORE PUSH32 0x496E697469616C697A61626C653A20636F6E747261637420697320616C726561 PUSH1 0x44 DUP3 ADD MSTORE PUSH14 0x191E481A5B9A5D1A585B1A5E9959 PUSH1 0x92 SHL PUSH1 0x64 DUP3 ADD MSTORE PUSH1 0x84 ADD PUSH2 0x53D JUMP JUMPDEST PUSH1 0x0 DUP1 SLOAD PUSH1 0xFF PUSH1 0xA0 SHL NOT AND PUSH1 0x1 PUSH1 0xA0 SHL OR SWAP1 SSTORE DUP1 ISZERO PUSH2 0x1218 JUMPI PUSH1 0x0 DUP1 SLOAD PUSH1 0xFF PUSH1 0xA8 SHL NOT AND PUSH1 0x1 PUSH1 0xA8 SHL OR SWAP1 SSTORE JUMPDEST PUSH1 0x1 DUP1 SLOAD PUSH1 0x1 PUSH1 0x1 PUSH1 0xA0 SHL SUB NOT AND PUSH1 0x1 PUSH1 0x1 PUSH1 0xA0 SHL SUB DUP5 AND SWAP1 DUP2 OR SWAP1 SWAP2 SSTORE PUSH1 0x40 DUP1 MLOAD PUSH4 0x5FCBD285 PUSH1 0xE0 SHL DUP2 MSTORE SWAP1 MLOAD PUSH4 0x5FCBD285 SWAP2 PUSH1 0x4 DUP1 DUP3 ADD SWAP3 PUSH1 0x20 SWAP3 SWAP1 SWAP2 SWAP1 DUP3 SWAP1 SUB ADD DUP2 DUP7 GAS STATICCALL ISZERO DUP1 ISZERO PUSH2 0x1271 JUMPI RETURNDATASIZE PUSH1 0x0 DUP1 RETURNDATACOPY RETURNDATASIZE PUSH1 0x0 REVERT JUMPDEST POP POP POP POP PUSH1 0x40 MLOAD RETURNDATASIZE PUSH1 0x1F NOT PUSH1 0x1F DUP3 ADD AND DUP3 ADD DUP1 PUSH1 0x40 MSTORE POP DUP2 ADD SWAP1 PUSH2 0x1295 SWAP2 SWAP1 PUSH2 0x3D45 JUMP JUMPDEST PUSH1 0x2 DUP1 SLOAD PUSH1 0x1 PUSH1 0x1 PUSH1 0xA0 SHL SUB NOT AND PUSH1 0x1 PUSH1 0x1 PUSH1 0xA0 SHL SUB SWAP3 SWAP1 SWAP3 AND SWAP2 SWAP1 SWAP2 OR SWAP1 SSTORE DUP1 ISZERO PUSH2 0x12F9 JUMPI PUSH1 0x0 DUP1 SLOAD PUSH1 0xFF PUSH1 0xA8 SHL NOT AND SWAP1 SSTORE PUSH1 0x40 MLOAD PUSH1 0x1 DUP2 MSTORE PUSH32 0x7F26B83FF96E1F2B6A682F133852F6798A09C465DA95921460CEFB3847402498 SWAP1 PUSH1 0x20 ADD PUSH2 0x5E0 JUMP JUMPDEST POP POP JUMP JUMPDEST PUSH1 0x0 DUP1 PUSH1 0x0 PUSH2 0x130B CALLER PUSH2 0x24C0 JUMP JUMPDEST CALLER PUSH1 0x0 SWAP1 DUP2 MSTORE PUSH32 0xE2EE452672E51EA6A0E1A769BEFF058ADD3428C3669348C1314B250E4ABCF646 PUSH1 0x20 SWAP1 DUP2 MSTORE PUSH1 0x40 DUP1 DUP4 KECCAK256 SLOAD PUSH32 0x3ACADC8A217EEBDCF686F20849B9575C123B0B8572285C75A94DDD9D4C51E5BD DUP4 MSTORE DUP2 DUP5 KECCAK256 SLOAD PUSH32 0x7AF089D8BDE560DF8F6FED82C9D27C7CABC5C74F30C79B49F5655E8729CB5C51 SWAP1 SWAP4 MSTORE SWAP3 DUP2 SWAP1 KECCAK256 SLOAD PUSH1 0x1 SLOAD SWAP2 MLOAD PUSH4 0x70A08231 PUSH1 0xE0 SHL DUP2 MSTORE PUSH1 0x1 PUSH1 0x1 PUSH1 0xA0 SHL SUB SWAP1 SWAP3 AND PUSH1 0x4 DUP4 ADD MSTORE SWAP1 PUSH20 0xD533A949740BB3306D119CC777FA900BA034CD52 SWAP1 PUSH4 0x70A08231 SWAP1 PUSH1 0x24 ADD PUSH1 0x20 PUSH1 0x40 MLOAD DUP1 DUP4 SUB DUP2 DUP7 GAS STATICCALL ISZERO DUP1 ISZERO PUSH2 0x13E9 JUMPI RETURNDATASIZE PUSH1 0x0 DUP1 RETURNDATACOPY RETURNDATASIZE PUSH1 0x0 REVERT JUMPDEST POP POP POP POP PUSH1 0x40 MLOAD RETURNDATASIZE PUSH1 0x1F NOT PUSH1 0x1F DUP3 ADD AND DUP3 ADD DUP1 PUSH1 0x40 MSTORE POP DUP2 ADD SWAP1 PUSH2 0x140D SWAP2 SWAP1 PUSH2 0x3D8B JUMP JUMPDEST DUP4 GT DUP1 PUSH2 0x1498 JUMPI POP PUSH1 0x1 SLOAD PUSH1 0x40 MLOAD PUSH4 0x70A08231 PUSH1 0xE0 SHL DUP2 MSTORE PUSH1 0x1 PUSH1 0x1 PUSH1 0xA0 SHL SUB SWAP1 SWAP2 AND PUSH1 0x4 DUP3 ADD MSTORE PUSH20 0x4E3FBD56CD56C3E72C1403E103B45DB9DA5B9D2B SWAP1 PUSH4 0x70A08231 SWAP1 PUSH1 0x24 ADD PUSH1 0x20 PUSH1 0x40 MLOAD DUP1 DUP4 SUB DUP2 DUP7 GAS STATICCALL ISZERO DUP1 ISZERO PUSH2 0x1471 JUMPI RETURNDATASIZE PUSH1 0x0 DUP1 RETURNDATACOPY RETURNDATASIZE PUSH1 0x0 REVERT JUMPDEST POP POP POP POP PUSH1 0x40 MLOAD RETURNDATASIZE PUSH1 0x1F NOT PUSH1 0x1F DUP3 ADD AND DUP3 ADD DUP1 PUSH1 0x40 MSTORE POP DUP2 ADD SWAP1 PUSH2 0x1495 SWAP2 SWAP1 PUSH2 0x3D8B JUMP JUMPDEST DUP3 GT JUMPDEST DUP1 PUSH2 0x1521 JUMPI POP PUSH1 0x1 SLOAD PUSH1 0x40 MLOAD PUSH4 0x70A08231 PUSH1 0xE0 SHL DUP2 MSTORE PUSH1 0x1 PUSH1 0x1 PUSH1 0xA0 SHL SUB SWAP1 SWAP2 AND PUSH1 0x4 DUP3 ADD MSTORE PUSH20 0x9AE380F0272E2162340A5BB646C354271C0F5CFC SWAP1 PUSH4 0x70A08231 SWAP1 PUSH1 0x24 ADD PUSH1 0x20 PUSH1 0x40 MLOAD DUP1 DUP4 SUB DUP2 DUP7 GAS STATICCALL ISZERO DUP1 ISZERO PUSH2 0x14FA JUMPI RETURNDATASIZE PUSH1 0x0 DUP1 RETURNDATACOPY RETURNDATASIZE PUSH1 0x0 REVERT JUMPDEST POP POP POP POP PUSH1 0x40 MLOAD RETURNDATASIZE PUSH1 0x1F NOT PUSH1 0x1F DUP3 ADD AND DUP3 ADD DUP1 PUSH1 0x40 MSTORE POP DUP2 ADD SWAP1 PUSH2 0x151E SWAP2 SWAP1 PUSH2 0x3D8B JUMP JUMPDEST DUP2 GT JUMPDEST ISZERO PUSH2 0x152E JUMPI PUSH2 0x152E PUSH2 0x2152 JUMP JUMPDEST CALLER PUSH1 0x0 DUP2 DUP2 MSTORE PUSH32 0x7AF089D8BDE560DF8F6FED82C9D27C7CABC5C74F30C79B49F5655E8729CB5C51 PUSH1 0x20 SWAP1 DUP2 MSTORE PUSH1 0x40 DUP1 DUP4 KECCAK256 DUP4 SWAP1 SSTORE PUSH32 0x3ACADC8A217EEBDCF686F20849B9575C123B0B8572285C75A94DDD9D4C51E5BD DUP3 MSTORE DUP1 DUP4 KECCAK256 DUP4 SWAP1 SSTORE PUSH32 0xE2EE452672E51EA6A0E1A769BEFF058ADD3428C3669348C1314B250E4ABCF646 SWAP1 SWAP2 MSTORE DUP2 KECCAK256 SSTORE PUSH1 0x1 SLOAD PUSH2 0x15DF SWAP2 PUSH20 0xD533A949740BB3306D119CC777FA900BA034CD52 SWAP2 PUSH1 0x1 PUSH1 0x1 PUSH1 0xA0 SHL SUB AND SWAP1 DUP7 PUSH2 0x23FB JUMP JUMPDEST PUSH1 0x1 SLOAD PUSH2 0x160C SWAP1 PUSH20 0x4E3FBD56CD56C3E72C1403E103B45DB9DA5B9D2B SWAP1 PUSH1 0x1 PUSH1 0x1 PUSH1 0xA0 SHL SUB AND CALLER DUP6 PUSH2 0x23FB JUMP JUMPDEST PUSH1 0x1 SLOAD PUSH2 0x1639 SWAP1 PUSH20 0x9AE380F0272E2162340A5BB646C354271C0F5CFC SWAP1 PUSH1 0x1 PUSH1 0x1 PUSH1 0xA0 SHL SUB AND CALLER DUP5 PUSH2 0x23FB JUMP JUMPDEST PUSH1 0x0 DUP1 PUSH1 0x0 PUSH2 0x16C8 PUSH32 0x0 PUSH1 0x1 PUSH1 0x1 PUSH1 0xA0 SHL SUB AND PUSH4 0xB050ECB8 PUSH1 0x40 MLOAD DUP2 PUSH4 0xFFFFFFFF AND PUSH1 0xE0 SHL DUP2 MSTORE PUSH1 0x4 ADD PUSH1 0x20 PUSH1 0x40 MLOAD DUP1 DUP4 SUB DUP2 DUP7 GAS STATICCALL ISZERO DUP1 ISZERO PUSH2 0x169F JUMPI RETURNDATASIZE PUSH1 0x0 DUP1 RETURNDATACOPY RETURNDATASIZE PUSH1 0x0 REVERT JUMPDEST POP POP POP POP PUSH1 0x40 MLOAD RETURNDATASIZE PUSH1 0x1F NOT PUSH1 0x1F DUP3 ADD AND DUP3 ADD DUP1 PUSH1 0x40 MSTORE POP DUP2 ADD SWAP1 PUSH2 0x16C3 SWAP2 SWAP1 PUSH2 0x3D45 JUMP JUMPDEST PUSH2 0x1CBD JUMP JUMPDEST PUSH1 0x6 PUSH1 0x20 SWAP1 DUP2 MSTORE PUSH32 0xE2EE452672E51EA6A0E1A769BEFF058ADD3428C3669348C1314B250E4ABCF644 DUP5 SWAP1 SSTORE PUSH32 0x3ACADC8A217EEBDCF686F20849B9575C123B0B8572285C75A94DDD9D4C51E5BB DUP4 SWAP1 SSTORE PUSH3 0x636E63 PUSH1 0xE8 SHL PUSH1 0x0 MSTORE PUSH32 0x7AF089D8BDE560DF8F6FED82C9D27C7CABC5C74F30C79B49F5655E8729CB5C4F DUP3 SWAP1 SSTORE PUSH1 0x40 DUP1 MLOAD DUP10 DUP2 MSTORE SWAP2 DUP3 ADD DUP12 SWAP1 MSTORE DUP2 ADD DUP10 SWAP1 MSTORE SWAP3 SWAP6 POP SWAP1 SWAP4 POP SWAP2 POP CALLER SWAP1 PUSH32 0x6F39318C760AD4D630F57BA8F8D3C21B8E1DEB076E19476D1DECE4E3D737E7A SWAP1 PUSH1 0x60 ADD PUSH1 0x40 MLOAD DUP1 SWAP2 SUB SWAP1 LOG2 POP SWAP2 SWAP8 SWAP4 SWAP7 POP SWAP2 SWAP5 POP SWAP2 SWAP3 POP POP POP JUMP JUMPDEST PUSH1 0x0 DUP1 PUSH1 0x0 DUP1 PUSH32 0x0 PUSH1 0x1 PUSH1 0x1 PUSH1 0xA0 SHL SUB AND PUSH4 0x48439E7E PUSH1 0x40 MLOAD DUP2 PUSH4 0xFFFFFFFF AND PUSH1 0xE0 SHL DUP2 MSTORE PUSH1 0x4 ADD PUSH1 0x20 PUSH1 0x40 MLOAD DUP1 DUP4 SUB DUP2 DUP7 GAS STATICCALL ISZERO DUP1 ISZERO PUSH2 0x1802 JUMPI RETURNDATASIZE PUSH1 0x0 DUP1 RETURNDATACOPY RETURNDATASIZE PUSH1 0x0 REVERT JUMPDEST POP POP POP POP PUSH1 0x40 MLOAD RETURNDATASIZE PUSH1 0x1F NOT PUSH1 0x1F DUP3 ADD AND DUP3 ADD DUP1 PUSH1 0x40 MSTORE POP DUP2 ADD SWAP1 PUSH2 0x1826 SWAP2 SWAP1 PUSH2 0x3D45 JUMP JUMPDEST PUSH1 0x1 SLOAD PUSH1 0x40 MLOAD PUSH4 0x5598B209 PUSH1 0xE0 SHL DUP2 MSTORE PUSH1 0x1 PUSH1 0x1 PUSH1 0xA0 SHL SUB SWAP2 DUP3 AND PUSH1 0x4 DUP3 ADD MSTORE SWAP2 AND SWAP1 PUSH4 0x5598B209 SWAP1 PUSH1 0x24 ADD PUSH1 0x20 PUSH1 0x40 MLOAD DUP1 DUP4 SUB DUP2 DUP7 GAS STATICCALL ISZERO DUP1 ISZERO PUSH2 0x186F JUMPI RETURNDATASIZE PUSH1 0x0 DUP1 RETURNDATACOPY RETURNDATASIZE PUSH1 0x0 REVERT JUMPDEST POP POP POP POP PUSH1 0x40 MLOAD RETURNDATASIZE PUSH1 0x1F NOT PUSH1 0x1F DUP3 ADD AND DUP3 ADD DUP1 PUSH1 0x40 MSTORE POP DUP2 ADD SWAP1 PUSH2 0x1893 SWAP2 SWAP1 PUSH2 0x3D8B JUMP JUMPDEST SWAP1 POP DUP1 PUSH1 0x0 SUB PUSH2 0x18AE JUMPI PUSH1 0x0 DUP1 PUSH1 0x0 SWAP4 POP SWAP4 POP SWAP4 POP POP PUSH2 0x1A23 JUMP JUMPDEST PUSH1 0x0 DUP1 PUSH1 0x0 PUSH2 0x18BB PUSH2 0x25F7 JUMP JUMPDEST SWAP3 POP SWAP3 POP SWAP3 POP PUSH1 0x0 PUSH32 0x0 PUSH1 0x1 PUSH1 0x1 PUSH1 0xA0 SHL SUB AND PUSH4 0x48439E7E PUSH1 0x40 MLOAD DUP2 PUSH4 0xFFFFFFFF AND PUSH1 0xE0 SHL DUP2 MSTORE PUSH1 0x4 ADD PUSH1 0x20 PUSH1 0x40 MLOAD DUP1 DUP4 SUB DUP2 DUP7 GAS STATICCALL ISZERO DUP1 ISZERO PUSH2 0x1921 JUMPI RETURNDATASIZE PUSH1 0x0 DUP1 RETURNDATACOPY RETURNDATASIZE PUSH1 0x0 REVERT JUMPDEST POP POP POP POP PUSH1 0x40 MLOAD RETURNDATASIZE PUSH1 0x1F NOT PUSH1 0x1F DUP3 ADD AND DUP3 ADD DUP1 PUSH1 0x40 MSTORE POP DUP2 ADD SWAP1 PUSH2 0x1945 SWAP2 SWAP1 PUSH2 0x3D45 JUMP JUMPDEST PUSH1 0x1 SLOAD PUSH1 0x40 MLOAD PUSH4 0x7D2041E5 PUSH1 0xE1 SHL DUP2 MSTORE PUSH1 0x1 PUSH1 0x1 PUSH1 0xA0 SHL SUB SWAP2 DUP3 AND PUSH1 0x4 DUP3 ADD MSTORE DUP12 DUP3 AND PUSH1 0x24 DUP3 ADD MSTORE SWAP2 AND SWAP1 PUSH4 0xFA4083CA SWAP1 PUSH1 0x44 ADD PUSH1 0x20 PUSH1 0x40 MLOAD DUP1 DUP4 SUB DUP2 DUP7 GAS STATICCALL ISZERO DUP1 ISZERO PUSH2 0x1996 JUMPI RETURNDATASIZE PUSH1 0x0 DUP1 RETURNDATACOPY RETURNDATASIZE PUSH1 0x0 REVERT JUMPDEST POP POP POP POP PUSH1 0x40 MLOAD RETURNDATASIZE PUSH1 0x1F NOT PUSH1 0x1F DUP3 ADD AND DUP3 ADD DUP1 PUSH1 0x40 MSTORE POP DUP2 ADD SWAP1 PUSH2 0x19BA SWAP2 SWAP1 PUSH2 0x3D8B JUMP JUMPDEST SWAP1 POP PUSH2 0x19D1 DUP10 PUSH3 0x636E63 PUSH1 0xE8 SHL DUP5 DUP5 DUP10 PUSH1 0x0 PUSH2 0x2696 JUMP JUMPDEST SWAP8 POP PUSH2 0x19F6 DUP10 PUSH3 0x31B93B PUSH1 0xE9 SHL DUP7 DUP5 DUP10 PUSH1 0x7 PUSH1 0x0 SWAP1 SLOAD SWAP1 PUSH2 0x100 EXP SWAP1 DIV PUSH1 0xFF AND PUSH2 0x2696 JUMP JUMPDEST SWAP7 POP PUSH2 0x1A1B DUP10 PUSH3 0xC6ECF PUSH1 0xEB SHL DUP6 DUP5 DUP10 PUSH1 0x7 PUSH1 0x0 SWAP1 SLOAD SWAP1 PUSH2 0x100 EXP SWAP1 DIV PUSH1 0xFF AND PUSH2 0x2696 JUMP JUMPDEST SWAP6 POP POP POP POP POP POP JUMPDEST SWAP2 SWAP4 SWAP1 SWAP3 POP JUMP JUMPDEST PUSH2 0x1A32 PUSH2 0x5EC JUMP JUMPDEST PUSH2 0xF91 JUMPI PUSH2 0xF91 PUSH2 0x2152 JUMP JUMPDEST PUSH2 0x1A46 PUSH2 0x1C63 JUMP JUMPDEST PUSH1 0x1 PUSH1 0x1 PUSH1 0xA0 SHL SUB DUP2 AND PUSH2 0x1AAB JUMPI PUSH1 0x40 MLOAD PUSH3 0x461BCD PUSH1 0xE5 SHL DUP2 MSTORE PUSH1 0x20 PUSH1 0x4 DUP3 ADD MSTORE PUSH1 0x26 PUSH1 0x24 DUP3 ADD MSTORE PUSH32 0x4F776E61626C653A206E6577206F776E657220697320746865207A65726F2061 PUSH1 0x44 DUP3 ADD MSTORE PUSH6 0x646472657373 PUSH1 0xD0 SHL PUSH1 0x64 DUP3 ADD MSTORE PUSH1 0x84 ADD PUSH2 0x53D JUMP JUMPDEST PUSH2 0x1134 DUP2 PUSH2 0x245B JUMP JUMPDEST PUSH2 0x1ABC PUSH2 0x1C63 JUMP JUMPDEST PUSH1 0x0 JUMPDEST DUP2 MLOAD DUP2 LT ISZERO PUSH2 0x12F9 JUMPI PUSH2 0x1AEA DUP3 DUP3 DUP2 MLOAD DUP2 LT PUSH2 0x1ADD JUMPI PUSH2 0x1ADD PUSH2 0x3E33 JUMP JUMPDEST PUSH1 0x20 MUL PUSH1 0x20 ADD ADD MLOAD PUSH2 0xB86 JUMP JUMPDEST POP DUP1 PUSH2 0x1AF5 DUP2 PUSH2 0x3E49 JUMP JUMPDEST SWAP2 POP POP PUSH2 0x1ABF JUMP JUMPDEST DUP1 ISZERO DUP1 PUSH2 0x1B77 JUMPI POP PUSH1 0x40 MLOAD PUSH4 0x6EB1769F PUSH1 0xE1 SHL DUP2 MSTORE ADDRESS PUSH1 0x4 DUP3 ADD MSTORE PUSH1 0x1 PUSH1 0x1 PUSH1 0xA0 SHL SUB DUP4 DUP2 AND PUSH1 0x24 DUP4 ADD MSTORE DUP5 AND SWAP1 PUSH4 0xDD62ED3E SWAP1 PUSH1 0x44 ADD PUSH1 0x20 PUSH1 0x40 MLOAD DUP1 DUP4 SUB DUP2 DUP7 GAS STATICCALL ISZERO DUP1 ISZERO PUSH2 0x1B51 JUMPI RETURNDATASIZE PUSH1 0x0 DUP1 RETURNDATACOPY RETURNDATASIZE PUSH1 0x0 REVERT JUMPDEST POP POP POP POP PUSH1 0x40 MLOAD RETURNDATASIZE PUSH1 0x1F NOT PUSH1 0x1F DUP3 ADD AND DUP3 ADD DUP1 PUSH1 0x40 MSTORE POP DUP2 ADD SWAP1 PUSH2 0x1B75 SWAP2 SWAP1 PUSH2 0x3D8B JUMP JUMPDEST ISZERO JUMPDEST PUSH2 0x1BE2 JUMPI PUSH1 0x40 MLOAD PUSH3 0x461BCD PUSH1 0xE5 SHL DUP2 MSTORE PUSH1 0x20 PUSH1 0x4 DUP3 ADD MSTORE PUSH1 0x36 PUSH1 0x24 DUP3 ADD MSTORE PUSH32 0x5361666545524332303A20617070726F76652066726F6D206E6F6E2D7A65726F PUSH1 0x44 DUP3 ADD MSTORE PUSH22 0x20746F206E6F6E2D7A65726F20616C6C6F77616E6365 PUSH1 0x50 SHL PUSH1 0x64 DUP3 ADD MSTORE PUSH1 0x84 ADD PUSH2 0x53D JUMP JUMPDEST PUSH1 0x40 MLOAD PUSH1 0x1 PUSH1 0x1 PUSH1 0xA0 SHL SUB DUP4 AND PUSH1 0x24 DUP3 ADD MSTORE PUSH1 0x44 DUP2 ADD DUP3 SWAP1 MSTORE PUSH2 0x1C45 SWAP1 DUP5 SWAP1 PUSH4 0x95EA7B3 PUSH1 0xE0 SHL SWAP1 PUSH1 0x64 ADD JUMPDEST PUSH1 0x40 DUP1 MLOAD PUSH1 0x1F NOT DUP2 DUP5 SUB ADD DUP2 MSTORE SWAP2 SWAP1 MSTORE PUSH1 0x20 DUP2 ADD DUP1 MLOAD PUSH1 0x1 PUSH1 0x1 PUSH1 0xE0 SHL SUB AND PUSH1 0x1 PUSH1 0x1 PUSH1 0xE0 SHL SUB NOT SWAP1 SWAP4 AND SWAP3 SWAP1 SWAP3 OR SWAP1 SWAP2 MSTORE PUSH2 0x2763 JUMP JUMPDEST POP POP POP JUMP JUMPDEST PUSH1 0x60 PUSH2 0x1C59 DUP5 DUP5 PUSH1 0x0 DUP6 PUSH2 0x2835 JUMP JUMPDEST SWAP1 POP JUMPDEST SWAP4 SWAP3 POP POP POP JUMP JUMPDEST PUSH1 0x0 SLOAD PUSH1 0x1 PUSH1 0x1 PUSH1 0xA0 SHL SUB AND CALLER EQ PUSH2 0xF91 JUMPI PUSH1 0x40 MLOAD PUSH3 0x461BCD PUSH1 0xE5 SHL DUP2 MSTORE PUSH1 0x20 PUSH1 0x4 DUP3 ADD DUP2 SWAP1 MSTORE PUSH1 0x24 DUP3 ADD MSTORE PUSH32 0x4F776E61626C653A2063616C6C6572206973206E6F7420746865206F776E6572 PUSH1 0x44 DUP3 ADD MSTORE PUSH1 0x64 ADD PUSH2 0x53D JUMP JUMPDEST PUSH1 0x0 DUP1 PUSH1 0x0 DUP1 PUSH1 0x1 PUSH1 0x0 SWAP1 SLOAD SWAP1 PUSH2 0x100 EXP SWAP1 DIV PUSH1 0x1 PUSH1 0x1 PUSH1 0xA0 SHL SUB AND PUSH1 0x1 PUSH1 0x1 PUSH1 0xA0 SHL SUB AND PUSH4 0x6F934ABE PUSH1 0x40 MLOAD DUP2 PUSH4 0xFFFFFFFF AND PUSH1 0xE0 SHL DUP2 MSTORE PUSH1 0x4 ADD PUSH1 0x0 PUSH1 0x40 MLOAD DUP1 DUP4 SUB DUP2 DUP7 GAS STATICCALL ISZERO DUP1 ISZERO PUSH2 0x1D16 JUMPI RETURNDATASIZE PUSH1 0x0 DUP1 RETURNDATACOPY RETURNDATASIZE PUSH1 0x0 REVERT JUMPDEST POP POP POP POP PUSH1 0x40 MLOAD RETURNDATASIZE PUSH1 0x0 DUP3 RETURNDATACOPY PUSH1 0x1F RETURNDATASIZE SWAP1 DUP2 ADD PUSH1 0x1F NOT AND DUP3 ADD PUSH1 0x40 MSTORE PUSH2 0x1D3E SWAP2 SWAP1 DUP2 ADD SWAP1 PUSH2 0x3DA4 JUMP JUMPDEST PUSH1 0x1 SLOAD PUSH1 0x40 MLOAD PUSH4 0x1B066A01 PUSH1 0xE3 SHL DUP2 MSTORE SWAP2 SWAP3 POP PUSH1 0x0 SWAP2 PUSH1 0x1 PUSH1 0x1 PUSH1 0xA0 SHL SUB DUP9 DUP2 AND SWAP3 PUSH4 0xD8335008 SWAP3 PUSH2 0x1D78 SWAP3 SWAP1 SWAP2 AND SWAP1 DUP7 SWAP1 PUSH1 0x4 ADD PUSH2 0x3E62 JUMP JUMPDEST PUSH1 0x20 PUSH1 0x40 MLOAD DUP1 DUP4 SUB DUP2 DUP7 GAS STATICCALL ISZERO DUP1 ISZERO PUSH2 0x1D95 JUMPI RETURNDATASIZE PUSH1 0x0 DUP1 RETURNDATACOPY RETURNDATASIZE PUSH1 0x0 REVERT JUMPDEST POP POP POP POP PUSH1 0x40 MLOAD RETURNDATASIZE PUSH1 0x1F NOT PUSH1 0x1F DUP3 ADD AND DUP3 ADD DUP1 PUSH1 0x40 MSTORE POP DUP2 ADD SWAP1 PUSH2 0x1DB9 SWAP2 SWAP1 PUSH2 0x3D8B JUMP JUMPDEST PUSH1 0x1 SLOAD PUSH1 0x40 MLOAD PUSH4 0x70A08231 PUSH1 0xE0 SHL DUP2 MSTORE PUSH1 0x1 PUSH1 0x1 PUSH1 0xA0 SHL SUB SWAP1 SWAP2 AND PUSH1 0x4 DUP3 ADD MSTORE SWAP1 SWAP2 POP DUP2 SWAP1 PUSH20 0xD533A949740BB3306D119CC777FA900BA034CD52 SWAP1 PUSH4 0x70A08231 SWAP1 PUSH1 0x24 ADD PUSH1 0x20 PUSH1 0x40 MLOAD DUP1 DUP4 SUB DUP2 DUP7 GAS STATICCALL ISZERO DUP1 ISZERO PUSH2 0x1E1A JUMPI RETURNDATASIZE PUSH1 0x0 DUP1 RETURNDATACOPY RETURNDATASIZE PUSH1 0x0 REVERT JUMPDEST POP POP POP POP PUSH1 0x40 MLOAD RETURNDATASIZE PUSH1 0x1F NOT PUSH1 0x1F DUP3 ADD AND DUP3 ADD DUP1 PUSH1 0x40 MSTORE POP DUP2 ADD SWAP1 PUSH2 0x1E3E SWAP2 SWAP1 PUSH2 0x3D8B JUMP JUMPDEST PUSH2 0x1E48 SWAP2 SWAP1 PUSH2 0x3E86 JUMP JUMPDEST PUSH1 0x40 MLOAD PUSH4 0x323808CD PUSH1 0xE0 SHL DUP2 MSTORE PUSH1 0x4 DUP2 ADD DUP4 SWAP1 MSTORE SWAP1 SWAP6 POP PUSH1 0x0 SWAP1 PUSH1 0x1 PUSH1 0x1 PUSH1 0xA0 SHL SUB DUP9 AND SWAP1 PUSH4 0x323808CD SWAP1 PUSH1 0x24 ADD PUSH1 0x20 PUSH1 0x40 MLOAD DUP1 DUP4 SUB DUP2 DUP7 GAS STATICCALL ISZERO DUP1 ISZERO PUSH2 0x1E93 JUMPI RETURNDATASIZE PUSH1 0x0 DUP1 RETURNDATACOPY RETURNDATASIZE PUSH1 0x0 REVERT JUMPDEST POP POP POP POP PUSH1 0x40 MLOAD RETURNDATASIZE PUSH1 0x1F NOT PUSH1 0x1F DUP3 ADD AND DUP3 ADD DUP1 PUSH1 0x40 MSTORE POP DUP2 ADD SWAP1 PUSH2 0x1EB7 SWAP2 SWAP1 PUSH2 0x3D8B JUMP JUMPDEST PUSH1 0x1 SLOAD PUSH1 0x40 MLOAD PUSH4 0x70A08231 PUSH1 0xE0 SHL DUP2 MSTORE PUSH1 0x1 PUSH1 0x1 PUSH1 0xA0 SHL SUB SWAP1 SWAP2 AND PUSH1 0x4 DUP3 ADD MSTORE SWAP1 SWAP2 POP DUP2 SWAP1 PUSH20 0x4E3FBD56CD56C3E72C1403E103B45DB9DA5B9D2B SWAP1 PUSH4 0x70A08231 SWAP1 PUSH1 0x24 ADD PUSH1 0x20 PUSH1 0x40 MLOAD DUP1 DUP4 SUB DUP2 DUP7 GAS STATICCALL ISZERO DUP1 ISZERO PUSH2 0x1F18 JUMPI RETURNDATASIZE PUSH1 0x0 DUP1 RETURNDATACOPY RETURNDATASIZE PUSH1 0x0 REVERT JUMPDEST POP POP POP POP PUSH1 0x40 MLOAD RETURNDATASIZE PUSH1 0x1F NOT PUSH1 0x1F DUP3 ADD AND DUP3 ADD DUP1 PUSH1 0x40 MSTORE POP DUP2 ADD SWAP1 PUSH2 0x1F3C SWAP2 SWAP1 PUSH2 0x3D8B JUMP JUMPDEST PUSH2 0x1F46 SWAP2 SWAP1 PUSH2 0x3E86 JUMP JUMPDEST PUSH1 0x1 SLOAD PUSH1 0x40 MLOAD PUSH4 0x70A08231 PUSH1 0xE0 SHL DUP2 MSTORE PUSH1 0x1 PUSH1 0x1 PUSH1 0xA0 SHL SUB SWAP1 SWAP2 AND PUSH1 0x4 DUP3 ADD MSTORE SWAP1 SWAP6 POP PUSH20 0x9AE380F0272E2162340A5BB646C354271C0F5CFC SWAP1 PUSH4 0x70A08231 SWAP1 PUSH1 0x24 ADD PUSH1 0x20 PUSH1 0x40 MLOAD DUP1 DUP4 SUB DUP2 DUP7 GAS STATICCALL ISZERO DUP1 ISZERO PUSH2 0x1FA5 JUMPI RETURNDATASIZE PUSH1 0x0 DUP1 RETURNDATACOPY RETURNDATASIZE PUSH1 0x0 REVERT JUMPDEST POP POP POP POP PUSH1 0x40 MLOAD RETURNDATASIZE PUSH1 0x1F NOT PUSH1 0x1F DUP3 ADD AND DUP3 ADD DUP1 PUSH1 0x40 MSTORE POP DUP2 ADD SWAP1 PUSH2 0x1FC9 SWAP2 SWAP1 PUSH2 0x3D8B JUMP JUMPDEST PUSH1 0x2 SLOAD SWAP1 SWAP5 POP PUSH1 0x1 PUSH1 0xA0 SHL SWAP1 DIV PUSH1 0xFF AND PUSH2 0x20D9 JUMPI PUSH32 0x0 PUSH1 0x1 PUSH1 0x1 PUSH1 0xA0 SHL SUB AND PUSH4 0x48439E7E PUSH1 0x40 MLOAD DUP2 PUSH4 0xFFFFFFFF AND PUSH1 0xE0 SHL DUP2 MSTORE PUSH1 0x4 ADD PUSH1 0x20 PUSH1 0x40 MLOAD DUP1 DUP4 SUB DUP2 DUP7 GAS STATICCALL ISZERO DUP1 ISZERO PUSH2 0x203B JUMPI RETURNDATASIZE PUSH1 0x0 DUP1 RETURNDATACOPY RETURNDATASIZE PUSH1 0x0 REVERT JUMPDEST POP POP POP POP PUSH1 0x40 MLOAD RETURNDATASIZE PUSH1 0x1F NOT PUSH1 0x1F DUP3 ADD AND DUP3 ADD DUP1 PUSH1 0x40 MSTORE POP DUP2 ADD SWAP1 PUSH2 0x205F SWAP2 SWAP1 PUSH2 0x3D45 JUMP JUMPDEST PUSH1 0x1 SLOAD PUSH1 0x40 MLOAD PUSH4 0x34D21EA3 PUSH1 0xE2 SHL DUP2 MSTORE PUSH1 0x1 PUSH1 0x1 PUSH1 0xA0 SHL SUB SWAP2 DUP3 AND PUSH1 0x4 DUP3 ADD MSTORE SWAP2 AND SWAP1 PUSH4 0xD3487A8C SWAP1 PUSH1 0x24 ADD PUSH1 0x20 PUSH1 0x40 MLOAD DUP1 DUP4 SUB DUP2 DUP7 GAS STATICCALL ISZERO DUP1 ISZERO PUSH2 0x20A8 JUMPI RETURNDATASIZE PUSH1 0x0 DUP1 RETURNDATACOPY RETURNDATASIZE PUSH1 0x0 REVERT JUMPDEST POP POP POP POP PUSH1 0x40 MLOAD RETURNDATASIZE PUSH1 0x1F NOT PUSH1 0x1F DUP3 ADD AND DUP3 ADD DUP1 PUSH1 0x40 MSTORE POP DUP2 ADD SWAP1 PUSH2 0x20CC SWAP2 SWAP1 PUSH2 0x3D8B JUMP JUMPDEST PUSH2 0x20D6 SWAP1 DUP6 PUSH2 0x3E86 JUMP JUMPDEST SWAP4 POP JUMPDEST POP POP POP SWAP2 SWAP4 SWAP1 SWAP3 POP JUMP JUMPDEST PUSH1 0x0 PUSH2 0x20F1 PUSH1 0x12 PUSH1 0xA PUSH2 0x3F7D JUMP JUMPDEST PUSH2 0x20FB DUP4 DUP6 PUSH2 0x3F89 JUMP JUMPDEST PUSH2 0x2105 SWAP2 SWAP1 PUSH2 0x3FA0 JUMP JUMPDEST SWAP1 POP JUMPDEST SWAP3 SWAP2 POP POP JUMP JUMPDEST PUSH2 0x2118 DUP3 DUP3 PUSH2 0x2912 JUMP JUMPDEST PUSH1 0x0 DUP6 DUP2 MSTORE PUSH1 0x6 PUSH1 0x20 MSTORE PUSH1 0x40 DUP2 KECCAK256 DUP1 SLOAD SWAP1 SWAP2 SWAP1 PUSH2 0x2136 SWAP1 DUP5 SWAP1 PUSH2 0x3E86 JUMP JUMPDEST SWAP1 SWAP2 SSTORE POP POP POP PUSH1 0x0 SWAP3 DUP4 MSTORE POP PUSH1 0x6 PUSH1 0x20 MSTORE PUSH1 0x40 SWAP1 SWAP2 KECCAK256 PUSH1 0x1 ADD SSTORE JUMP JUMPDEST PUSH2 0x215A PUSH2 0x292B JUMP JUMPDEST PUSH1 0x1 SLOAD PUSH1 0x40 MLOAD PUSH4 0x70A08231 PUSH1 0xE0 SHL DUP2 MSTORE PUSH1 0x1 PUSH1 0x1 PUSH1 0xA0 SHL SUB SWAP1 SWAP2 AND PUSH1 0x4 DUP3 ADD MSTORE PUSH1 0x0 SWAP1 PUSH20 0x9AE380F0272E2162340A5BB646C354271C0F5CFC SWAP1 PUSH4 0x70A08231 SWAP1 PUSH1 0x24 ADD PUSH1 0x20 PUSH1 0x40 MLOAD DUP1 DUP4 SUB DUP2 DUP7 GAS STATICCALL ISZERO DUP1 ISZERO PUSH2 0x21B9 JUMPI RETURNDATASIZE PUSH1 0x0 DUP1 RETURNDATACOPY RETURNDATASIZE PUSH1 0x0 REVERT JUMPDEST POP POP POP POP PUSH1 0x40 MLOAD RETURNDATASIZE PUSH1 0x1F NOT PUSH1 0x1F DUP3 ADD AND DUP3 ADD DUP1 PUSH1 0x40 MSTORE POP DUP2 ADD SWAP1 PUSH2 0x21DD SWAP2 SWAP1 PUSH2 0x3D8B JUMP JUMPDEST SWAP1 POP PUSH2 0x21E7 PUSH2 0x2E11 JUMP JUMPDEST PUSH1 0x1 SLOAD PUSH1 0x40 MLOAD PUSH4 0x70A08231 PUSH1 0xE0 SHL DUP2 MSTORE PUSH1 0x1 PUSH1 0x1 PUSH1 0xA0 SHL SUB SWAP1 SWAP2 AND PUSH1 0x4 DUP3 ADD MSTORE PUSH1 0x0 SWAP1 DUP3 SWAP1 PUSH20 0x9AE380F0272E2162340A5BB646C354271C0F5CFC SWAP1 PUSH4 0x70A08231 SWAP1 PUSH1 0x24 ADD PUSH1 0x20 PUSH1 0x40 MLOAD DUP1 DUP4 SUB DUP2 DUP7 GAS STATICCALL ISZERO DUP1 ISZERO PUSH2 0x2248 JUMPI RETURNDATASIZE PUSH1 0x0 DUP1 RETURNDATACOPY RETURNDATASIZE PUSH1 0x0 REVERT JUMPDEST POP POP POP POP PUSH1 0x40 MLOAD RETURNDATASIZE PUSH1 0x1F NOT PUSH1 0x1F DUP3 ADD AND DUP3 ADD DUP1 PUSH1 0x40 MSTORE POP DUP2 ADD SWAP1 PUSH2 0x226C SWAP2 SWAP1 PUSH2 0x3D8B JUMP JUMPDEST PUSH2 0x2276 SWAP2 SWAP1 PUSH2 0x3D78 JUMP JUMPDEST SWAP1 POP PUSH1 0x0 PUSH32 0x0 PUSH1 0x1 PUSH1 0x1 PUSH1 0xA0 SHL SUB AND PUSH4 0x48439E7E PUSH1 0x40 MLOAD DUP2 PUSH4 0xFFFFFFFF AND PUSH1 0xE0 SHL DUP2 MSTORE PUSH1 0x4 ADD PUSH1 0x20 PUSH1 0x40 MLOAD DUP1 DUP4 SUB DUP2 DUP7 GAS STATICCALL ISZERO DUP1 ISZERO PUSH2 0x22D8 JUMPI RETURNDATASIZE PUSH1 0x0 DUP1 RETURNDATACOPY RETURNDATASIZE PUSH1 0x0 REVERT JUMPDEST POP POP POP POP PUSH1 0x40 MLOAD RETURNDATASIZE PUSH1 0x1F NOT PUSH1 0x1F DUP3 ADD AND DUP3 ADD DUP1 PUSH1 0x40 MSTORE POP DUP2 ADD SWAP1 PUSH2 0x22FC SWAP2 SWAP1 PUSH2 0x3D45 JUMP JUMPDEST PUSH1 0x1 SLOAD PUSH1 0x40 MLOAD PUSH4 0x5598B209 PUSH1 0xE0 SHL DUP2 MSTORE PUSH1 0x1 PUSH1 0x1 PUSH1 0xA0 SHL SUB SWAP2 DUP3 AND PUSH1 0x4 DUP3 ADD MSTORE SWAP2 AND SWAP1 PUSH4 0x5598B209 SWAP1 PUSH1 0x24 ADD PUSH1 0x20 PUSH1 0x40 MLOAD DUP1 DUP4 SUB DUP2 DUP7 GAS STATICCALL ISZERO DUP1 ISZERO PUSH2 0x2345 JUMPI RETURNDATASIZE PUSH1 0x0 DUP1 RETURNDATACOPY RETURNDATASIZE PUSH1 0x0 REVERT JUMPDEST POP POP POP POP PUSH1 0x40 MLOAD RETURNDATASIZE PUSH1 0x1F NOT PUSH1 0x1F DUP3 ADD AND DUP3 ADD DUP1 PUSH1 0x40 MSTORE POP DUP2 ADD SWAP1 PUSH2 0x2369 SWAP2 SWAP1 PUSH2 0x3D8B JUMP JUMPDEST SWAP1 POP DUP1 ISZERO PUSH2 0x23C3 JUMPI PUSH2 0x237B DUP3 DUP3 PUSH2 0x2912 JUMP JUMPDEST PUSH3 0x636E63 PUSH1 0xE8 SHL PUSH1 0x0 SWAP1 DUP2 MSTORE PUSH1 0x6 PUSH1 0x20 MSTORE PUSH32 0x7AF089D8BDE560DF8F6FED82C9D27C7CABC5C74F30C79B49F5655E8729CB5C4E DUP1 SLOAD SWAP1 SWAP2 SWAP1 PUSH2 0x23BD SWAP1 DUP5 SWAP1 PUSH2 0x3E86 JUMP JUMPDEST SWAP1 SWAP2 SSTORE POP POP JUMPDEST PUSH1 0x40 MLOAD DUP3 DUP2 MSTORE PUSH32 0xFC8ED0CD46874D9C3CF1425E1B3BBF9C523BC17C4A959C2C2F600E016F4EDDEF SWAP1 PUSH1 0x20 ADD PUSH1 0x40 MLOAD DUP1 SWAP2 SUB SWAP1 LOG1 POP POP POP JUMP JUMPDEST PUSH1 0x40 MLOAD PUSH1 0x1 PUSH1 0x1 PUSH1 0xA0 SHL SUB DUP1 DUP6 AND PUSH1 0x24 DUP4 ADD MSTORE DUP4 AND PUSH1 0x44 DUP3 ADD MSTORE PUSH1 0x64 DUP2 ADD DUP3 SWAP1 MSTORE PUSH2 0x2433 SWAP1 DUP6 SWAP1 PUSH4 0x23B872DD PUSH1 0xE0 SHL SWAP1 PUSH1 0x84 ADD PUSH2 0x1C0E JUMP JUMPDEST POP POP POP POP JUMP JUMPDEST PUSH1 0x0 PUSH2 0x2105 DUP4 PUSH1 0x1 PUSH1 0x1 PUSH1 0xA0 SHL SUB DUP5 AND PUSH2 0x2E63 JUMP JUMPDEST PUSH1 0x60 PUSH1 0x0 PUSH2 0x1C5C DUP4 PUSH2 0x2EB2 JUMP JUMPDEST PUSH1 0x0 DUP1 SLOAD PUSH1 0x1 PUSH1 0x1 PUSH1 0xA0 SHL SUB DUP4 DUP2 AND PUSH1 0x1 PUSH1 0x1 PUSH1 0xA0 SHL SUB NOT DUP4 AND DUP2 OR DUP5 SSTORE PUSH1 0x40 MLOAD SWAP2 SWAP1 SWAP3 AND SWAP3 DUP4 SWAP2 PUSH32 0x8BE0079C531659141344CD1FD0A4F28419497F9722A3DAAFE3B4186F6B6457E0 SWAP2 SWAP1 LOG3 POP POP JUMP JUMPDEST PUSH1 0x0 PUSH2 0x2105 DUP4 PUSH1 0x1 PUSH1 0x1 PUSH1 0xA0 SHL SUB DUP5 AND PUSH2 0x2F0E JUMP JUMPDEST PUSH1 0x0 PUSH32 0x0 PUSH1 0x1 PUSH1 0x1 PUSH1 0xA0 SHL SUB AND PUSH4 0x48439E7E PUSH1 0x40 MLOAD DUP2 PUSH4 0xFFFFFFFF AND PUSH1 0xE0 SHL DUP2 MSTORE PUSH1 0x4 ADD PUSH1 0x20 PUSH1 0x40 MLOAD DUP1 DUP4 SUB DUP2 DUP7 GAS STATICCALL ISZERO DUP1 ISZERO PUSH2 0x2520 JUMPI RETURNDATASIZE PUSH1 0x0 DUP1 RETURNDATACOPY RETURNDATASIZE PUSH1 0x0 REVERT JUMPDEST POP POP POP POP PUSH1 0x40 MLOAD RETURNDATASIZE PUSH1 0x1F NOT PUSH1 0x1F DUP3 ADD AND DUP3 ADD DUP1 PUSH1 0x40 MSTORE POP DUP2 ADD SWAP1 PUSH2 0x2544 SWAP2 SWAP1 PUSH2 0x3D45 JUMP JUMPDEST PUSH1 0x1 SLOAD PUSH1 0x40 MLOAD PUSH4 0x7D2041E5 PUSH1 0xE1 SHL DUP2 MSTORE PUSH1 0x1 PUSH1 0x1 PUSH1 0xA0 SHL SUB SWAP2 DUP3 AND PUSH1 0x4 DUP3 ADD MSTORE DUP5 DUP3 AND PUSH1 0x24 DUP3 ADD MSTORE SWAP2 AND SWAP1 PUSH4 0xFA4083CA SWAP1 PUSH1 0x44 ADD PUSH1 0x20 PUSH1 0x40 MLOAD DUP1 DUP4 SUB DUP2 DUP7 GAS STATICCALL ISZERO DUP1 ISZERO PUSH2 0x2595 JUMPI RETURNDATASIZE PUSH1 0x0 DUP1 RETURNDATACOPY RETURNDATASIZE PUSH1 0x0 REVERT JUMPDEST POP POP POP POP PUSH1 0x40 MLOAD RETURNDATASIZE PUSH1 0x1F NOT PUSH1 0x1F DUP3 ADD AND DUP3 ADD DUP1 PUSH1 0x40 MSTORE POP DUP2 ADD SWAP1 PUSH2 0x25B9 SWAP2 SWAP1 PUSH2 0x3D8B JUMP JUMPDEST SWAP1 POP PUSH2 0x25C3 PUSH2 0x5EC JUMP JUMPDEST POP PUSH2 0x25D5 PUSH3 0x636E63 PUSH1 0xE8 SHL DUP4 DUP4 PUSH2 0x3001 JUMP JUMPDEST PUSH2 0x25E6 PUSH3 0x31B93B PUSH1 0xE9 SHL DUP4 DUP4 PUSH2 0x3001 JUMP JUMPDEST PUSH2 0x12F9 PUSH3 0xC6ECF PUSH1 0xEB SHL DUP4 DUP4 PUSH2 0x3001 JUMP JUMPDEST PUSH1 0x0 DUP1 PUSH1 0x0 DUP1 PUSH32 0x0 PUSH1 0x1 PUSH1 0x1 PUSH1 0xA0 SHL SUB AND PUSH4 0xB050ECB8 PUSH1 0x40 MLOAD DUP2 PUSH4 0xFFFFFFFF AND PUSH1 0xE0 SHL DUP2 MSTORE PUSH1 0x4 ADD PUSH1 0x20 PUSH1 0x40 MLOAD DUP1 DUP4 SUB DUP2 DUP7 GAS STATICCALL ISZERO DUP1 ISZERO PUSH2 0x265B JUMPI RETURNDATASIZE PUSH1 0x0 DUP1 RETURNDATACOPY RETURNDATASIZE PUSH1 0x0 REVERT JUMPDEST POP POP POP POP PUSH1 0x40 MLOAD RETURNDATASIZE PUSH1 0x1F NOT PUSH1 0x1F DUP3 ADD AND DUP3 ADD DUP1 PUSH1 0x40 MSTORE POP DUP2 ADD SWAP1 PUSH2 0x267F SWAP2 SWAP1 PUSH2 0x3D45 JUMP JUMPDEST SWAP1 POP PUSH2 0x268A DUP2 PUSH2 0x309C JUMP JUMPDEST SWAP4 POP SWAP4 POP SWAP4 POP POP SWAP1 SWAP2 SWAP3 JUMP JUMPDEST PUSH1 0x0 DUP6 DUP2 MSTORE PUSH1 0x6 PUSH1 0x20 MSTORE PUSH1 0x40 DUP2 KECCAK256 DUP1 SLOAD DUP4 ISZERO PUSH2 0x26EA JUMPI PUSH1 0x8 SLOAD PUSH2 0x26D9 SWAP1 PUSH2 0x26BF PUSH1 0x12 PUSH1 0xA PUSH2 0x3F7D JUMP JUMPDEST PUSH2 0x26C9 SWAP2 SWAP1 PUSH2 0x3D78 JUMP JUMPDEST PUSH2 0x26D3 DUP10 DUP9 PUSH2 0x2912 JUMP JUMPDEST SWAP1 PUSH2 0x20E3 JUMP JUMPDEST PUSH2 0x26E3 SWAP1 DUP3 PUSH2 0x3E86 JUMP JUMPDEST SWAP1 POP PUSH2 0x2701 JUMP JUMPDEST PUSH2 0x26F4 DUP8 DUP7 PUSH2 0x2912 JUMP JUMPDEST PUSH2 0x26FE SWAP1 DUP3 PUSH2 0x3E86 JUMP JUMPDEST SWAP1 POP JUMPDEST PUSH1 0x1 PUSH1 0x1 PUSH1 0xA0 SHL SUB DUP10 AND PUSH1 0x0 SWAP1 DUP2 MSTORE PUSH1 0x2 DUP4 ADD PUSH1 0x20 MSTORE PUSH1 0x40 SWAP1 KECCAK256 SLOAD PUSH2 0x2731 SWAP1 PUSH2 0x272A SWAP1 DUP4 PUSH2 0x3D78 JUMP JUMPDEST DUP8 SWAP1 PUSH2 0x20E3 JUMP JUMPDEST PUSH1 0x1 PUSH1 0x1 PUSH1 0xA0 SHL SUB DUP11 AND PUSH1 0x0 SWAP1 DUP2 MSTORE PUSH1 0x3 DUP5 ADD PUSH1 0x20 MSTORE PUSH1 0x40 SWAP1 KECCAK256 SLOAD PUSH2 0x2756 SWAP2 SWAP1 PUSH2 0x3E86 JUMP JUMPDEST SWAP10 SWAP9 POP POP POP POP POP POP POP POP POP JUMP JUMPDEST PUSH1 0x0 PUSH2 0x27B8 DUP3 PUSH1 0x40 MLOAD DUP1 PUSH1 0x40 ADD PUSH1 0x40 MSTORE DUP1 PUSH1 0x20 DUP2 MSTORE PUSH1 0x20 ADD PUSH32 0x5361666545524332303A206C6F772D6C6576656C2063616C6C206661696C6564 DUP2 MSTORE POP DUP6 PUSH1 0x1 PUSH1 0x1 PUSH1 0xA0 SHL SUB AND PUSH2 0x1C4A SWAP1 SWAP3 SWAP2 SWAP1 PUSH4 0xFFFFFFFF AND JUMP JUMPDEST DUP1 MLOAD SWAP1 SWAP2 POP ISZERO PUSH2 0x1C45 JUMPI DUP1 DUP1 PUSH1 0x20 ADD SWAP1 MLOAD DUP2 ADD SWAP1 PUSH2 0x27D6 SWAP2 SWAP1 PUSH2 0x3FD2 JUMP JUMPDEST PUSH2 0x1C45 JUMPI PUSH1 0x40 MLOAD PUSH3 0x461BCD PUSH1 0xE5 SHL DUP2 MSTORE PUSH1 0x20 PUSH1 0x4 DUP3 ADD MSTORE PUSH1 0x2A PUSH1 0x24 DUP3 ADD MSTORE PUSH32 0x5361666545524332303A204552433230206F7065726174696F6E20646964206E PUSH1 0x44 DUP3 ADD MSTORE PUSH10 0x1BDD081CDD58D8D95959 PUSH1 0xB2 SHL PUSH1 0x64 DUP3 ADD MSTORE PUSH1 0x84 ADD PUSH2 0x53D JUMP JUMPDEST PUSH1 0x60 DUP3 SELFBALANCE LT ISZERO PUSH2 0x2896 JUMPI PUSH1 0x40 MLOAD PUSH3 0x461BCD PUSH1 0xE5 SHL DUP2 MSTORE PUSH1 0x20 PUSH1 0x4 DUP3 ADD MSTORE PUSH1 0x26 PUSH1 0x24 DUP3 ADD MSTORE PUSH32 0x416464726573733A20696E73756666696369656E742062616C616E636520666F PUSH1 0x44 DUP3 ADD MSTORE PUSH6 0x1C8818D85B1B PUSH1 0xD2 SHL PUSH1 0x64 DUP3 ADD MSTORE PUSH1 0x84 ADD PUSH2 0x53D JUMP JUMPDEST PUSH1 0x0 DUP1 DUP7 PUSH1 0x1 PUSH1 0x1 PUSH1 0xA0 SHL SUB AND DUP6 DUP8 PUSH1 0x40 MLOAD PUSH2 0x28B2 SWAP2 SWAP1 PUSH2 0x4011 JUMP JUMPDEST PUSH1 0x0 PUSH1 0x40 MLOAD DUP1 DUP4 SUB DUP2 DUP6 DUP8 GAS CALL SWAP3 POP POP POP RETURNDATASIZE DUP1 PUSH1 0x0 DUP2 EQ PUSH2 0x28EF JUMPI PUSH1 0x40 MLOAD SWAP2 POP PUSH1 0x1F NOT PUSH1 0x3F RETURNDATASIZE ADD AND DUP3 ADD PUSH1 0x40 MSTORE RETURNDATASIZE DUP3 MSTORE RETURNDATASIZE PUSH1 0x0 PUSH1 0x20 DUP5 ADD RETURNDATACOPY PUSH2 0x28F4 JUMP JUMPDEST PUSH1 0x60 SWAP2 POP JUMPDEST POP SWAP2 POP SWAP2 POP PUSH2 0x2905 DUP8 DUP4 DUP4 DUP8 PUSH2 0x316D JUMP JUMPDEST SWAP3 POP POP POP JUMPDEST SWAP5 SWAP4 POP POP POP POP JUMP JUMPDEST PUSH1 0x0 DUP2 PUSH2 0x2921 PUSH1 0x12 PUSH1 0xA PUSH2 0x3F7D JUMP JUMPDEST PUSH2 0x20FB SWAP1 DUP6 PUSH2 0x3F89 JUMP JUMPDEST PUSH1 0x2 DUP1 SLOAD PUSH1 0xFF PUSH1 0xA0 SHL NOT AND PUSH1 0x1 PUSH1 0xA0 SHL OR SWAP1 SSTORE PUSH1 0x40 DUP1 MLOAD PUSH4 0x2421CF3F PUSH1 0xE1 SHL DUP2 MSTORE SWAP1 MLOAD PUSH1 0x1 PUSH1 0x1 PUSH1 0xA0 SHL SUB PUSH32 0x0 AND SWAP2 PUSH4 0x48439E7E SWAP2 PUSH1 0x4 DUP1 DUP4 ADD SWAP3 PUSH1 0x20 SWAP3 SWAP2 SWAP1 DUP3 SWAP1 SUB ADD DUP2 DUP7 GAS STATICCALL ISZERO DUP1 ISZERO PUSH2 0x29A3 JUMPI RETURNDATASIZE PUSH1 0x0 DUP1 RETURNDATACOPY RETURNDATASIZE PUSH1 0x0 REVERT JUMPDEST POP POP POP POP PUSH1 0x40 MLOAD RETURNDATASIZE PUSH1 0x1F NOT PUSH1 0x1F DUP3 ADD AND DUP3 ADD DUP1 PUSH1 0x40 MSTORE POP DUP2 ADD SWAP1 PUSH2 0x29C7 SWAP2 SWAP1 PUSH2 0x3D45 JUMP JUMPDEST PUSH1 0x1 SLOAD PUSH1 0x40 MLOAD PUSH4 0xA0190C17 PUSH1 0xE0 SHL DUP2 MSTORE PUSH1 0x1 PUSH1 0x1 PUSH1 0xA0 SHL SUB SWAP2 DUP3 AND PUSH1 0x4 DUP3 ADD MSTORE SWAP2 AND SWAP1 PUSH4 0xA0190C17 SWAP1 PUSH1 0x24 ADD PUSH1 0x0 PUSH1 0x40 MLOAD DUP1 DUP4 SUB DUP2 PUSH1 0x0 DUP8 DUP1 EXTCODESIZE ISZERO DUP1 ISZERO PUSH2 0x2A0D JUMPI PUSH1 0x0 DUP1 REVERT JUMPDEST POP GAS CALL ISZERO DUP1 ISZERO PUSH2 0x2A21 JUMPI RETURNDATASIZE PUSH1 0x0 DUP1 RETURNDATACOPY RETURNDATASIZE PUSH1 0x0 REVERT JUMPDEST POP POP PUSH1 0x2 DUP1 SLOAD PUSH1 0xFF PUSH1 0xA0 SHL NOT AND SWAP1 SSTORE POP POP PUSH1 0x1 SLOAD PUSH1 0x40 MLOAD PUSH4 0x70A08231 PUSH1 0xE0 SHL DUP2 MSTORE PUSH1 0x1 PUSH1 0x1 PUSH1 0xA0 SHL SUB SWAP1 SWAP2 AND PUSH1 0x4 DUP3 ADD MSTORE PUSH1 0x0 SWAP1 PUSH20 0x4E3FBD56CD56C3E72C1403E103B45DB9DA5B9D2B SWAP1 PUSH4 0x70A08231 SWAP1 PUSH1 0x24 ADD PUSH1 0x20 PUSH1 0x40 MLOAD DUP1 DUP4 SUB DUP2 DUP7 GAS STATICCALL ISZERO DUP1 ISZERO PUSH2 0x2A91 JUMPI RETURNDATASIZE PUSH1 0x0 DUP1 RETURNDATACOPY RETURNDATASIZE PUSH1 0x0 REVERT JUMPDEST POP POP POP POP PUSH1 0x40 MLOAD RETURNDATASIZE PUSH1 0x1F NOT PUSH1 0x1F DUP3 ADD AND DUP3 ADD DUP1 PUSH1 0x40 MSTORE POP DUP2 ADD SWAP1 PUSH2 0x2AB5 SWAP2 SWAP1 PUSH2 0x3D8B JUMP JUMPDEST PUSH1 0x1 SLOAD PUSH1 0x40 MLOAD PUSH4 0x70A08231 PUSH1 0xE0 SHL DUP2 MSTORE PUSH1 0x1 PUSH1 0x1 PUSH1 0xA0 SHL SUB SWAP1 SWAP2 AND PUSH1 0x4 DUP3 ADD MSTORE SWAP1 SWAP2 POP PUSH1 0x0 SWAP1 PUSH20 0xD533A949740BB3306D119CC777FA900BA034CD52 SWAP1 PUSH4 0x70A08231 SWAP1 PUSH1 0x24 ADD PUSH1 0x20 PUSH1 0x40 MLOAD DUP1 DUP4 SUB DUP2 DUP7 GAS STATICCALL ISZERO DUP1 ISZERO PUSH2 0x2B17 JUMPI RETURNDATASIZE PUSH1 0x0 DUP1 RETURNDATACOPY RETURNDATASIZE PUSH1 0x0 REVERT JUMPDEST POP POP POP POP PUSH1 0x40 MLOAD RETURNDATASIZE PUSH1 0x1F NOT PUSH1 0x1F DUP3 ADD AND DUP3 ADD DUP1 PUSH1 0x40 MSTORE POP DUP2 ADD SWAP1 PUSH2 0x2B3B SWAP2 SWAP1 PUSH2 0x3D8B JUMP JUMPDEST SWAP1 POP PUSH1 0x0 PUSH32 0x0 PUSH1 0x1 PUSH1 0x1 PUSH1 0xA0 SHL SUB AND PUSH4 0xB050ECB8 PUSH1 0x40 MLOAD DUP2 PUSH4 0xFFFFFFFF AND PUSH1 0xE0 SHL DUP2 MSTORE PUSH1 0x4 ADD PUSH1 0x20 PUSH1 0x40 MLOAD DUP1 DUP4 SUB DUP2 DUP7 GAS STATICCALL ISZERO DUP1 ISZERO PUSH2 0x2B9D JUMPI RETURNDATASIZE PUSH1 0x0 DUP1 RETURNDATACOPY RETURNDATASIZE PUSH1 0x0 REVERT JUMPDEST POP POP POP POP PUSH1 0x40 MLOAD RETURNDATASIZE PUSH1 0x1F NOT PUSH1 0x1F DUP3 ADD AND DUP3 ADD DUP1 PUSH1 0x40 MSTORE POP DUP2 ADD SWAP1 PUSH2 0x2BC1 SWAP2 SWAP1 PUSH2 0x3D45 JUMP JUMPDEST SWAP1 POP DUP1 PUSH1 0x1 PUSH1 0x1 PUSH1 0xA0 SHL SUB AND PUSH4 0xBC810E26 PUSH1 0x1 PUSH1 0x0 SWAP1 SLOAD SWAP1 PUSH2 0x100 EXP SWAP1 DIV PUSH1 0x1 PUSH1 0x1 PUSH1 0xA0 SHL SUB AND PUSH1 0x1 PUSH1 0x1 PUSH1 0xA0 SHL SUB AND PUSH4 0x6F934ABE PUSH1 0x40 MLOAD DUP2 PUSH4 0xFFFFFFFF AND PUSH1 0xE0 SHL DUP2 MSTORE PUSH1 0x4 ADD PUSH1 0x0 PUSH1 0x40 MLOAD DUP1 DUP4 SUB DUP2 DUP7 GAS STATICCALL ISZERO DUP1 ISZERO PUSH2 0x2C25 JUMPI RETURNDATASIZE PUSH1 0x0 DUP1 RETURNDATACOPY RETURNDATASIZE PUSH1 0x0 REVERT JUMPDEST POP POP POP POP PUSH1 0x40 MLOAD RETURNDATASIZE PUSH1 0x0 DUP3 RETURNDATACOPY PUSH1 0x1F RETURNDATASIZE SWAP1 DUP2 ADD PUSH1 0x1F NOT AND DUP3 ADD PUSH1 0x40 MSTORE PUSH2 0x2C4D SWAP2 SWAP1 DUP2 ADD SWAP1 PUSH2 0x3DA4 JUMP JUMPDEST PUSH1 0x1 SLOAD PUSH1 0x40 MLOAD PUSH1 0x1 PUSH1 0x1 PUSH1 0xE0 SHL SUB NOT PUSH1 0xE0 DUP6 SWAP1 SHL AND DUP2 MSTORE PUSH2 0x2C7B SWAP3 SWAP2 PUSH1 0x1 PUSH1 0x1 PUSH1 0xA0 SHL SUB AND SWAP1 PUSH1 0x4 ADD PUSH2 0x402D JUMP JUMPDEST PUSH1 0x0 PUSH1 0x40 MLOAD DUP1 DUP4 SUB DUP2 PUSH1 0x0 DUP8 DUP1 EXTCODESIZE ISZERO DUP1 ISZERO PUSH2 0x2C95 JUMPI PUSH1 0x0 DUP1 REVERT JUMPDEST POP GAS CALL ISZERO DUP1 ISZERO PUSH2 0x2CA9 JUMPI RETURNDATASIZE PUSH1 0x0 DUP1 RETURNDATACOPY RETURNDATASIZE PUSH1 0x0 REVERT JUMPDEST POP POP PUSH1 0x1 SLOAD PUSH1 0x40 MLOAD PUSH4 0x70A08231 PUSH1 0xE0 SHL DUP2 MSTORE PUSH1 0x1 PUSH1 0x1 PUSH1 0xA0 SHL SUB SWAP1 SWAP2 AND PUSH1 0x4 DUP3 ADD MSTORE PUSH1 0x0 SWAP3 POP DUP6 SWAP2 POP PUSH20 0x4E3FBD56CD56C3E72C1403E103B45DB9DA5B9D2B SWAP1 PUSH4 0x70A08231 SWAP1 PUSH1 0x24 ADD PUSH1 0x20 PUSH1 0x40 MLOAD DUP1 DUP4 SUB DUP2 DUP7 GAS STATICCALL ISZERO DUP1 ISZERO PUSH2 0x2D0E JUMPI RETURNDATASIZE PUSH1 0x0 DUP1 RETURNDATACOPY RETURNDATASIZE PUSH1 0x0 REVERT JUMPDEST POP POP POP POP PUSH1 0x40 MLOAD RETURNDATASIZE PUSH1 0x1F NOT PUSH1 0x1F DUP3 ADD AND DUP3 ADD DUP1 PUSH1 0x40 MSTORE POP DUP2 ADD SWAP1 PUSH2 0x2D32 SWAP2 SWAP1 PUSH2 0x3D8B JUMP JUMPDEST PUSH2 0x2D3C SWAP2 SWAP1 PUSH2 0x3D78 JUMP JUMPDEST PUSH1 0x1 SLOAD PUSH1 0x40 MLOAD PUSH4 0x70A08231 PUSH1 0xE0 SHL DUP2 MSTORE PUSH1 0x1 PUSH1 0x1 PUSH1 0xA0 SHL SUB SWAP1 SWAP2 AND PUSH1 0x4 DUP3 ADD MSTORE SWAP1 SWAP2 POP PUSH1 0x0 SWAP1 DUP5 SWAP1 PUSH20 0xD533A949740BB3306D119CC777FA900BA034CD52 SWAP1 PUSH4 0x70A08231 SWAP1 PUSH1 0x24 ADD PUSH1 0x20 PUSH1 0x40 MLOAD DUP1 DUP4 SUB DUP2 DUP7 GAS STATICCALL ISZERO DUP1 ISZERO PUSH2 0x2DA0 JUMPI RETURNDATASIZE PUSH1 0x0 DUP1 RETURNDATACOPY RETURNDATASIZE PUSH1 0x0 REVERT JUMPDEST POP POP POP POP PUSH1 0x40 MLOAD RETURNDATASIZE PUSH1 0x1F NOT PUSH1 0x1F DUP3 ADD AND DUP3 ADD DUP1 PUSH1 0x40 MSTORE POP DUP2 ADD SWAP1 PUSH2 0x2DC4 SWAP2 SWAP1 PUSH2 0x3D8B JUMP JUMPDEST PUSH2 0x2DCE SWAP2 SWAP1 PUSH2 0x3D78 JUMP JUMPDEST PUSH1 0x40 DUP1 MLOAD DUP3 DUP2 MSTORE PUSH1 0x20 DUP2 ADD DUP6 SWAP1 MSTORE SWAP2 SWAP3 POP PUSH32 0x141D6E75554381BCC1326596E8010E6C432BB0988E14CA0310D85837A211D292 SWAP2 ADD PUSH1 0x40 MLOAD DUP1 SWAP2 SUB SWAP1 LOG1 POP POP POP POP POP JUMP JUMPDEST PUSH1 0x0 PUSH2 0x2E1D PUSH1 0x3 PUSH2 0x31E6 JUMP JUMPDEST SWAP1 POP DUP1 PUSH1 0x0 SUB PUSH2 0x2E2A JUMPI POP JUMP JUMPDEST PUSH1 0x0 JUMPDEST DUP2 DUP2 LT ISZERO PUSH2 0x2E5A JUMPI PUSH2 0x2E48 PUSH2 0x2E43 PUSH1 0x3 DUP4 PUSH2 0x31F0 JUMP JUMPDEST PUSH2 0x31FC JUMP JUMPDEST DUP1 PUSH2 0x2E52 DUP2 PUSH2 0x3E49 JUMP JUMPDEST SWAP2 POP POP PUSH2 0x2E2D JUMP JUMPDEST POP PUSH2 0x1134 PUSH2 0x35C2 JUMP JUMPDEST PUSH1 0x0 DUP2 DUP2 MSTORE PUSH1 0x1 DUP4 ADD PUSH1 0x20 MSTORE PUSH1 0x40 DUP2 KECCAK256 SLOAD PUSH2 0x2EAA JUMPI POP DUP2 SLOAD PUSH1 0x1 DUP2 DUP2 ADD DUP5 SSTORE PUSH1 0x0 DUP5 DUP2 MSTORE PUSH1 0x20 DUP1 DUP3 KECCAK256 SWAP1 SWAP4 ADD DUP5 SWAP1 SSTORE DUP5 SLOAD DUP5 DUP3 MSTORE DUP3 DUP7 ADD SWAP1 SWAP4 MSTORE PUSH1 0x40 SWAP1 KECCAK256 SWAP2 SWAP1 SWAP2 SSTORE PUSH2 0x2108 JUMP JUMPDEST POP PUSH1 0x0 PUSH2 0x2108 JUMP JUMPDEST PUSH1 0x60 DUP2 PUSH1 0x0 ADD DUP1 SLOAD DUP1 PUSH1 0x20 MUL PUSH1 0x20 ADD PUSH1 0x40 MLOAD SWAP1 DUP2 ADD PUSH1 0x40 MSTORE DUP1 SWAP3 SWAP2 SWAP1 DUP2 DUP2 MSTORE PUSH1 0x20 ADD DUP3 DUP1 SLOAD DUP1 ISZERO PUSH2 0x2F02 JUMPI PUSH1 0x20 MUL DUP3 ADD SWAP2 SWAP1 PUSH1 0x0 MSTORE PUSH1 0x20 PUSH1 0x0 KECCAK256 SWAP1 JUMPDEST DUP2 SLOAD DUP2 MSTORE PUSH1 0x20 ADD SWAP1 PUSH1 0x1 ADD SWAP1 DUP1 DUP4 GT PUSH2 0x2EEE JUMPI JUMPDEST POP POP POP POP POP SWAP1 POP SWAP2 SWAP1 POP JUMP JUMPDEST PUSH1 0x0 DUP2 DUP2 MSTORE PUSH1 0x1 DUP4 ADD PUSH1 0x20 MSTORE PUSH1 0x40 DUP2 KECCAK256 SLOAD DUP1 ISZERO PUSH2 0x2FF7 JUMPI PUSH1 0x0 PUSH2 0x2F32 PUSH1 0x1 DUP4 PUSH2 0x3D78 JUMP JUMPDEST DUP6 SLOAD SWAP1 SWAP2 POP PUSH1 0x0 SWAP1 PUSH2 0x2F46 SWAP1 PUSH1 0x1 SWAP1 PUSH2 0x3D78 JUMP JUMPDEST SWAP1 POP DUP2 DUP2 EQ PUSH2 0x2FAB JUMPI PUSH1 0x0 DUP7 PUSH1 0x0 ADD DUP3 DUP2 SLOAD DUP2 LT PUSH2 0x2F66 JUMPI PUSH2 0x2F66 PUSH2 0x3E33 JUMP JUMPDEST SWAP1 PUSH1 0x0 MSTORE PUSH1 0x20 PUSH1 0x0 KECCAK256 ADD SLOAD SWAP1 POP DUP1 DUP8 PUSH1 0x0 ADD DUP5 DUP2 SLOAD DUP2 LT PUSH2 0x2F89 JUMPI PUSH2 0x2F89 PUSH2 0x3E33 JUMP JUMPDEST PUSH1 0x0 SWAP2 DUP3 MSTORE PUSH1 0x20 DUP1 DUP4 KECCAK256 SWAP1 SWAP2 ADD SWAP3 SWAP1 SWAP3 SSTORE SWAP2 DUP3 MSTORE PUSH1 0x1 DUP9 ADD SWAP1 MSTORE PUSH1 0x40 SWAP1 KECCAK256 DUP4 SWAP1 SSTORE JUMPDEST DUP6 SLOAD DUP7 SWAP1 DUP1 PUSH2 0x2FBC JUMPI PUSH2 0x2FBC PUSH2 0x4057 JUMP JUMPDEST PUSH1 0x1 SWAP1 SUB DUP2 DUP2 SWAP1 PUSH1 0x0 MSTORE PUSH1 0x20 PUSH1 0x0 KECCAK256 ADD PUSH1 0x0 SWAP1 SSTORE SWAP1 SSTORE DUP6 PUSH1 0x1 ADD PUSH1 0x0 DUP7 DUP2 MSTORE PUSH1 0x20 ADD SWAP1 DUP2 MSTORE PUSH1 0x20 ADD PUSH1 0x0 KECCAK256 PUSH1 0x0 SWAP1 SSTORE PUSH1 0x1 SWAP4 POP POP POP POP PUSH2 0x2108 JUMP JUMPDEST PUSH1 0x0 SWAP2 POP POP PUSH2 0x2108 JUMP JUMPDEST PUSH1 0x0 DUP4 DUP2 MSTORE PUSH1 0x6 PUSH1 0x20 SWAP1 DUP2 MSTORE PUSH1 0x40 DUP1 DUP4 KECCAK256 PUSH1 0x1 PUSH1 0x1 PUSH1 0xA0 SHL SUB DUP7 AND DUP5 MSTORE PUSH1 0x2 DUP2 ADD SWAP1 SWAP3 MSTORE DUP3 KECCAK256 SLOAD DUP2 SLOAD SWAP2 SWAP3 SWAP2 PUSH2 0x3041 SWAP2 PUSH2 0x303A SWAP2 PUSH2 0x3D78 JUMP JUMPDEST DUP5 SWAP1 PUSH2 0x20E3 JUMP JUMPDEST PUSH1 0x1 PUSH1 0x1 PUSH1 0xA0 SHL SUB DUP6 AND PUSH1 0x0 SWAP1 DUP2 MSTORE PUSH1 0x3 DUP5 ADD PUSH1 0x20 MSTORE PUSH1 0x40 DUP2 KECCAK256 DUP1 SLOAD SWAP3 SWAP4 POP DUP4 SWAP3 SWAP1 SWAP2 SWAP1 PUSH2 0x3070 SWAP1 DUP5 SWAP1 PUSH2 0x3E86 JUMP JUMPDEST SWAP1 SWAP2 SSTORE POP POP DUP2 SLOAD PUSH1 0x1 PUSH1 0x1 PUSH1 0xA0 SHL SUB SWAP1 SWAP5 AND PUSH1 0x0 SWAP1 DUP2 MSTORE PUSH1 0x2 SWAP1 SWAP3 ADD PUSH1 0x20 MSTORE POP PUSH1 0x40 SWAP1 KECCAK256 SWAP2 SWAP1 SWAP2 SSTORE POP POP JUMP JUMPDEST PUSH1 0x0 DUP1 PUSH1 0x0 DUP1 PUSH1 0x0 DUP1 PUSH2 0x30AE DUP8 PUSH2 0x1CBD JUMP JUMPDEST PUSH3 0x31B93B PUSH1 0xE9 SHL PUSH1 0x0 MSTORE PUSH1 0x6 PUSH1 0x20 MSTORE PUSH32 0xE2EE452672E51EA6A0E1A769BEFF058ADD3428C3669348C1314B250E4ABCF644 SLOAD SWAP3 SWAP6 POP SWAP1 SWAP4 POP SWAP2 POP PUSH2 0x30F1 SWAP1 DUP5 PUSH2 0x3D78 JUMP JUMPDEST PUSH3 0xC6ECF PUSH1 0xEB SHL PUSH1 0x0 MSTORE PUSH1 0x6 PUSH1 0x20 MSTORE PUSH32 0x3ACADC8A217EEBDCF686F20849B9575C123B0B8572285C75A94DDD9D4C51E5BB SLOAD SWAP1 SWAP7 POP PUSH2 0x312F SWAP1 DUP4 PUSH2 0x3D78 JUMP JUMPDEST PUSH3 0x636E63 PUSH1 0xE8 SHL PUSH1 0x0 MSTORE PUSH1 0x6 PUSH1 0x20 MSTORE PUSH32 0x7AF089D8BDE560DF8F6FED82C9D27C7CABC5C74F30C79B49F5655E8729CB5C4F SLOAD SWAP1 SWAP6 POP PUSH2 0x20D6 SWAP1 DUP3 PUSH2 0x3D78 JUMP JUMPDEST PUSH1 0x60 DUP4 ISZERO PUSH2 0x31DC JUMPI DUP3 MLOAD PUSH1 0x0 SUB PUSH2 0x31D5 JUMPI PUSH1 0x1 PUSH1 0x1 PUSH1 0xA0 SHL SUB DUP6 AND EXTCODESIZE PUSH2 0x31D5 JUMPI PUSH1 0x40 MLOAD PUSH3 0x461BCD PUSH1 0xE5 SHL DUP2 MSTORE PUSH1 0x20 PUSH1 0x4 DUP3 ADD MSTORE PUSH1 0x1D PUSH1 0x24 DUP3 ADD MSTORE PUSH32 0x416464726573733A2063616C6C20746F206E6F6E2D636F6E7472616374000000 PUSH1 0x44 DUP3 ADD MSTORE PUSH1 0x64 ADD PUSH2 0x53D JUMP JUMPDEST POP DUP2 PUSH2 0x290A JUMP JUMPDEST PUSH2 0x290A DUP4 DUP4 PUSH2 0x3726 JUMP JUMPDEST PUSH1 0x0 PUSH2 0x2108 DUP3 SLOAD SWAP1 JUMP JUMPDEST PUSH1 0x0 PUSH2 0x2105 DUP4 DUP4 PUSH2 0x3750 JUMP JUMPDEST PUSH1 0x40 MLOAD PUSH4 0x70A08231 PUSH1 0xE0 SHL DUP2 MSTORE ADDRESS PUSH1 0x4 DUP3 ADD MSTORE PUSH1 0x0 SWAP1 PUSH1 0x1 PUSH1 0x1 PUSH1 0xA0 SHL SUB DUP4 AND SWAP1 PUSH4 0x70A08231 SWAP1 PUSH1 0x24 ADD PUSH1 0x20 PUSH1 0x40 MLOAD DUP1 DUP4 SUB DUP2 DUP7 GAS STATICCALL ISZERO DUP1 ISZERO PUSH2 0x3243 JUMPI RETURNDATASIZE PUSH1 0x0 DUP1 RETURNDATACOPY RETURNDATASIZE PUSH1 0x0 REVERT JUMPDEST POP POP POP POP PUSH1 0x40 MLOAD RETURNDATASIZE PUSH1 0x1F NOT PUSH1 0x1F DUP3 ADD AND DUP3 ADD DUP1 PUSH1 0x40 MSTORE POP DUP2 ADD SWAP1 PUSH2 0x3267 SWAP2 SWAP1 PUSH2 0x3D8B JUMP JUMPDEST SWAP1 POP DUP1 PUSH1 0x0 SUB PUSH2 0x3275 JUMPI POP POP JUMP JUMPDEST PUSH1 0x1 PUSH1 0x1 PUSH1 0xA0 SHL SUB DUP1 DUP4 AND PUSH1 0x0 SWAP1 DUP2 MSTORE PUSH1 0x5 PUSH1 0x20 MSTORE PUSH1 0x40 SWAP1 KECCAK256 SLOAD AND DUP1 ISZERO PUSH2 0x3482 JUMPI PUSH1 0x0 DUP1 PUSH32 0x0 PUSH1 0x1 PUSH1 0x1 PUSH1 0xA0 SHL SUB AND PUSH4 0x9F82B217 PUSH1 0x40 MLOAD DUP2 PUSH4 0xFFFFFFFF AND PUSH1 0xE0 SHL DUP2 MSTORE PUSH1 0x4 ADD PUSH1 0x20 PUSH1 0x40 MLOAD DUP1 DUP4 SUB DUP2 DUP7 GAS STATICCALL ISZERO DUP1 ISZERO PUSH2 0x32F7 JUMPI RETURNDATASIZE PUSH1 0x0 DUP1 RETURNDATACOPY RETURNDATASIZE PUSH1 0x0 REVERT JUMPDEST POP POP POP POP PUSH1 0x40 MLOAD RETURNDATASIZE PUSH1 0x1F NOT PUSH1 0x1F DUP3 ADD AND DUP3 ADD DUP1 PUSH1 0x40 MSTORE POP DUP2 ADD SWAP1 PUSH2 0x331B SWAP2 SWAP1 PUSH2 0x3D45 JUMP JUMPDEST PUSH1 0x40 MLOAD PUSH4 0x2FEAAC85 PUSH1 0xE1 SHL DUP2 MSTORE PUSH1 0x1 PUSH1 0x1 PUSH1 0xA0 SHL SUB DUP6 DUP2 AND PUSH1 0x4 DUP4 ADD MSTORE DUP8 DUP2 AND PUSH1 0x24 DUP4 ADD MSTORE PUSH20 0xC02AAA39B223FE8D0A0E5C4F27EAD9083C756CC2 PUSH1 0x44 DUP4 ADD MSTORE SWAP2 SWAP1 SWAP2 AND SWAP1 PUSH4 0x5FD5590A SWAP1 PUSH1 0x64 ADD PUSH1 0x60 PUSH1 0x40 MLOAD DUP1 DUP4 SUB DUP2 DUP7 GAS STATICCALL ISZERO DUP1 ISZERO PUSH2 0x3385 JUMPI RETURNDATASIZE PUSH1 0x0 DUP1 RETURNDATACOPY RETURNDATASIZE PUSH1 0x0 REVERT JUMPDEST POP POP POP POP PUSH1 0x40 MLOAD RETURNDATASIZE PUSH1 0x1F NOT PUSH1 0x1F DUP3 ADD AND DUP3 ADD DUP1 PUSH1 0x40 MSTORE POP DUP2 ADD SWAP1 PUSH2 0x33A9 SWAP2 SWAP1 PUSH2 0x407F JUMP JUMPDEST POP SWAP1 SWAP3 POP SWAP1 POP PUSH16 0xFFFFFFFFFFFFFFFFFFFFFFFFFFFFFFFF DUP1 DUP4 AND SWAP1 DUP3 AND PUSH1 0x1 PUSH1 0x1 PUSH1 0xA0 SHL SUB DUP6 AND PUSH4 0xCE7D6503 DUP4 DUP4 DUP10 PUSH2 0x33F7 DUP13 PUSH20 0xC02AAA39B223FE8D0A0E5C4F27EAD9083C756CC2 DUP4 PUSH2 0x377A JUMP JUMPDEST PUSH1 0x40 MLOAD PUSH1 0x1 PUSH1 0x1 PUSH1 0xE0 SHL SUB NOT PUSH1 0xE0 DUP8 SWAP1 SHL AND DUP2 MSTORE PUSH1 0x4 DUP2 ADD SWAP5 SWAP1 SWAP5 MSTORE PUSH1 0x24 DUP5 ADD SWAP3 SWAP1 SWAP3 MSTORE PUSH1 0x44 DUP4 ADD MSTORE PUSH1 0x64 DUP3 ADD MSTORE PUSH1 0x0 PUSH1 0x84 DUP3 ADD MSTORE ADDRESS PUSH1 0xA4 DUP3 ADD MSTORE PUSH1 0xC4 ADD PUSH1 0x20 PUSH1 0x40 MLOAD DUP1 DUP4 SUB DUP2 PUSH1 0x0 DUP8 GAS CALL ISZERO DUP1 ISZERO PUSH2 0x3454 JUMPI RETURNDATASIZE PUSH1 0x0 DUP1 RETURNDATACOPY RETURNDATASIZE PUSH1 0x0 REVERT JUMPDEST POP POP POP POP PUSH1 0x40 MLOAD RETURNDATASIZE PUSH1 0x1F NOT PUSH1 0x1F DUP3 ADD AND DUP3 ADD DUP1 PUSH1 0x40 MSTORE POP DUP2 ADD SWAP1 PUSH2 0x3478 SWAP2 SWAP1 PUSH2 0x3D8B JUMP JUMPDEST POP POP POP POP POP POP POP POP JUMP JUMPDEST PUSH1 0x40 DUP1 MLOAD PUSH1 0x2 DUP1 DUP3 MSTORE PUSH1 0x60 DUP3 ADD DUP4 MSTORE PUSH1 0x0 SWAP3 PUSH1 0x20 DUP4 ADD SWAP1 DUP1 CALLDATASIZE DUP4 CALLDATACOPY ADD SWAP1 POP POP SWAP1 POP DUP4 DUP2 PUSH1 0x0 DUP2 MLOAD DUP2 LT PUSH2 0x34B7 JUMPI PUSH2 0x34B7 PUSH2 0x3E33 JUMP JUMPDEST PUSH1 0x20 MUL PUSH1 0x20 ADD ADD SWAP1 PUSH1 0x1 PUSH1 0x1 PUSH1 0xA0 SHL SUB AND SWAP1 DUP2 PUSH1 0x1 PUSH1 0x1 PUSH1 0xA0 SHL SUB AND DUP2 MSTORE POP POP PUSH20 0xC02AAA39B223FE8D0A0E5C4F27EAD9083C756CC2 DUP2 PUSH1 0x1 DUP2 MLOAD DUP2 LT PUSH2 0x34FF JUMPI PUSH2 0x34FF PUSH2 0x3E33 JUMP JUMPDEST PUSH1 0x1 PUSH1 0x1 PUSH1 0xA0 SHL SUB SWAP1 SWAP3 AND PUSH1 0x20 SWAP3 DUP4 MUL SWAP2 SWAP1 SWAP2 ADD SWAP1 SWAP2 ADD MSTORE PUSH20 0xD9E1CE17F2641F24AE83637AB66A2CCA9C378B9F PUSH4 0x38ED1739 DUP5 PUSH2 0x3551 DUP8 PUSH20 0xC02AAA39B223FE8D0A0E5C4F27EAD9083C756CC2 DUP4 PUSH2 0x377A JUMP JUMPDEST DUP5 ADDRESS TIMESTAMP PUSH1 0x40 MLOAD DUP7 PUSH4 0xFFFFFFFF AND PUSH1 0xE0 SHL DUP2 MSTORE PUSH1 0x4 ADD PUSH2 0x3574 SWAP6 SWAP5 SWAP4 SWAP3 SWAP2 SWAP1 PUSH2 0x40C2 JUMP JUMPDEST PUSH1 0x0 PUSH1 0x40 MLOAD DUP1 DUP4 SUB DUP2 PUSH1 0x0 DUP8 GAS CALL ISZERO DUP1 ISZERO PUSH2 0x3593 JUMPI RETURNDATASIZE PUSH1 0x0 DUP1 RETURNDATACOPY RETURNDATASIZE PUSH1 0x0 REVERT JUMPDEST POP POP POP POP PUSH1 0x40 MLOAD RETURNDATASIZE PUSH1 0x0 DUP3 RETURNDATACOPY PUSH1 0x1F RETURNDATASIZE SWAP1 DUP2 ADD PUSH1 0x1F NOT AND DUP3 ADD PUSH1 0x40 MSTORE PUSH2 0x35BB SWAP2 SWAP1 DUP2 ADD SWAP1 PUSH2 0x40FE JUMP JUMPDEST POP POP POP POP POP JUMP JUMPDEST PUSH1 0x40 MLOAD PUSH4 0x70A08231 PUSH1 0xE0 SHL DUP2 MSTORE ADDRESS PUSH1 0x4 DUP3 ADD MSTORE PUSH1 0x0 SWAP1 PUSH20 0xC02AAA39B223FE8D0A0E5C4F27EAD9083C756CC2 SWAP1 PUSH4 0x70A08231 SWAP1 PUSH1 0x24 ADD PUSH1 0x20 PUSH1 0x40 MLOAD DUP1 DUP4 SUB DUP2 DUP7 GAS STATICCALL ISZERO DUP1 ISZERO PUSH2 0x3614 JUMPI RETURNDATASIZE PUSH1 0x0 DUP1 RETURNDATACOPY RETURNDATASIZE PUSH1 0x0 REVERT JUMPDEST POP POP POP POP PUSH1 0x40 MLOAD RETURNDATASIZE PUSH1 0x1F NOT PUSH1 0x1F DUP3 ADD AND DUP3 ADD DUP1 PUSH1 0x40 MSTORE POP DUP2 ADD SWAP1 PUSH2 0x3638 SWAP2 SWAP1 PUSH2 0x3D8B JUMP JUMPDEST SWAP1 POP DUP1 PUSH1 0x0 SUB PUSH2 0x3645 JUMPI POP JUMP JUMPDEST PUSH20 0x838AF967537350D2C44ABB8C010E49E32673AB94 PUSH4 0xCE7D6503 PUSH1 0x0 PUSH1 0x1 DUP5 PUSH2 0x3697 PUSH20 0xC02AAA39B223FE8D0A0E5C4F27EAD9083C756CC2 PUSH20 0x9AE380F0272E2162340A5BB646C354271C0F5CFC DUP4 PUSH2 0x377A JUMP JUMPDEST PUSH1 0x1 SLOAD PUSH1 0x40 MLOAD PUSH1 0xE0 DUP8 SWAP1 SHL PUSH1 0x1 PUSH1 0x1 PUSH1 0xE0 SHL SUB NOT AND DUP2 MSTORE PUSH1 0x4 DUP2 ADD SWAP6 SWAP1 SWAP6 MSTORE PUSH1 0x24 DUP6 ADD SWAP4 SWAP1 SWAP4 MSTORE PUSH1 0x44 DUP5 ADD SWAP2 SWAP1 SWAP2 MSTORE PUSH1 0x64 DUP4 ADD MSTORE PUSH1 0x0 PUSH1 0x84 DUP4 ADD MSTORE PUSH1 0x1 PUSH1 0x1 PUSH1 0xA0 SHL SUB AND PUSH1 0xA4 DUP3 ADD MSTORE PUSH1 0xC4 ADD PUSH1 0x20 PUSH1 0x40 MLOAD DUP1 DUP4 SUB DUP2 PUSH1 0x0 DUP8 GAS CALL ISZERO DUP1 ISZERO PUSH2 0x3702 JUMPI RETURNDATASIZE PUSH1 0x0 DUP1 RETURNDATACOPY RETURNDATASIZE PUSH1 0x0 REVERT JUMPDEST POP POP POP POP PUSH1 0x40 MLOAD RETURNDATASIZE PUSH1 0x1F NOT PUSH1 0x1F DUP3 ADD AND DUP3 ADD DUP1 PUSH1 0x40 MSTORE POP DUP2 ADD SWAP1 PUSH2 0x12F9 SWAP2 SWAP1 PUSH2 0x3D8B JUMP JUMPDEST DUP2 MLOAD ISZERO PUSH2 0x3736 JUMPI DUP2 MLOAD DUP1 DUP4 PUSH1 0x20 ADD REVERT JUMPDEST DUP1 PUSH1 0x40 MLOAD PUSH3 0x461BCD PUSH1 0xE5 SHL DUP2 MSTORE PUSH1 0x4 ADD PUSH2 0x53D SWAP2 SWAP1 PUSH2 0x4184 JUMP JUMPDEST PUSH1 0x0 DUP3 PUSH1 0x0 ADD DUP3 DUP2 SLOAD DUP2 LT PUSH2 0x3767 JUMPI PUSH2 0x3767 PUSH2 0x3E33 JUMP JUMPDEST SWAP1 PUSH1 0x0 MSTORE PUSH1 0x20 PUSH1 0x0 KECCAK256 ADD SLOAD SWAP1 POP SWAP3 SWAP2 POP POP JUMP JUMPDEST PUSH1 0x0 DUP1 PUSH32 0x0 PUSH1 0x1 PUSH1 0x1 PUSH1 0xA0 SHL SUB AND PUSH4 0x2630C12F PUSH1 0x40 MLOAD DUP2 PUSH4 0xFFFFFFFF AND PUSH1 0xE0 SHL DUP2 MSTORE PUSH1 0x4 ADD PUSH1 0x20 PUSH1 0x40 MLOAD DUP1 DUP4 SUB DUP2 DUP7 GAS STATICCALL ISZERO DUP1 ISZERO PUSH2 0x37DB JUMPI RETURNDATASIZE PUSH1 0x0 DUP1 RETURNDATACOPY RETURNDATASIZE PUSH1 0x0 REVERT JUMPDEST POP POP POP POP PUSH1 0x40 MLOAD RETURNDATASIZE PUSH1 0x1F NOT PUSH1 0x1F DUP3 ADD AND DUP3 ADD DUP1 PUSH1 0x40 MSTORE POP DUP2 ADD SWAP1 PUSH2 0x37FF SWAP2 SWAP1 PUSH2 0x3D45 JUMP JUMPDEST SWAP1 POP DUP4 PUSH1 0x1 PUSH1 0x1 PUSH1 0xA0 SHL SUB AND DUP6 PUSH1 0x1 PUSH1 0x1 PUSH1 0xA0 SHL SUB AND SUB PUSH2 0x3823 JUMPI DUP3 SWAP2 POP POP PUSH2 0x1C5C JUMP JUMPDEST PUSH1 0x40 MLOAD PUSH4 0x75151B63 PUSH1 0xE0 SHL DUP2 MSTORE PUSH1 0x1 PUSH1 0x1 PUSH1 0xA0 SHL SUB DUP7 DUP2 AND PUSH1 0x4 DUP4 ADD MSTORE DUP3 AND SWAP1 PUSH4 0x75151B63 SWAP1 PUSH1 0x24 ADD PUSH1 0x20 PUSH1 0x40 MLOAD DUP1 DUP4 SUB DUP2 DUP7 GAS STATICCALL ISZERO DUP1 ISZERO PUSH2 0x3869 JUMPI RETURNDATASIZE PUSH1 0x0 DUP1 RETURNDATACOPY RETURNDATASIZE PUSH1 0x0 REVERT JUMPDEST POP POP POP POP PUSH1 0x40 MLOAD RETURNDATASIZE PUSH1 0x1F NOT PUSH1 0x1F DUP3 ADD AND DUP3 ADD DUP1 PUSH1 0x40 MSTORE POP DUP2 ADD SWAP1 PUSH2 0x388D SWAP2 SWAP1 PUSH2 0x3FD2 JUMP JUMPDEST ISZERO DUP1 PUSH2 0x3900 JUMPI POP PUSH1 0x40 MLOAD PUSH4 0x75151B63 PUSH1 0xE0 SHL DUP2 MSTORE PUSH1 0x1 PUSH1 0x1 PUSH1 0xA0 SHL SUB DUP6 DUP2 AND PUSH1 0x4 DUP4 ADD MSTORE DUP3 AND SWAP1 PUSH4 0x75151B63 SWAP1 PUSH1 0x24 ADD PUSH1 0x20 PUSH1 0x40 MLOAD DUP1 DUP4 SUB DUP2 DUP7 GAS STATICCALL ISZERO DUP1 ISZERO PUSH2 0x38DA JUMPI RETURNDATASIZE PUSH1 0x0 DUP1 RETURNDATACOPY RETURNDATASIZE PUSH1 0x0 REVERT JUMPDEST POP POP POP POP PUSH1 0x40 MLOAD RETURNDATASIZE PUSH1 0x1F NOT PUSH1 0x1F DUP3 ADD AND DUP3 ADD DUP1 PUSH1 0x40 MSTORE POP DUP2 ADD SWAP1 PUSH2 0x38FE SWAP2 SWAP1 PUSH2 0x3FD2 JUMP JUMPDEST ISZERO JUMPDEST ISZERO PUSH2 0x390F JUMPI PUSH1 0x0 SWAP2 POP POP PUSH2 0x1C5C JUMP JUMPDEST PUSH2 0x3AD4 PUSH8 0xD2F13F7789F0000 PUSH2 0x26D3 DUP8 PUSH1 0x1 PUSH1 0x1 PUSH1 0xA0 SHL SUB AND PUSH4 0x313CE567 PUSH1 0x40 MLOAD DUP2 PUSH4 0xFFFFFFFF AND PUSH1 0xE0 SHL DUP2 MSTORE PUSH1 0x4 ADD PUSH1 0x20 PUSH1 0x40 MLOAD DUP1 DUP4 SUB DUP2 DUP7 GAS STATICCALL ISZERO DUP1 ISZERO PUSH2 0x395C JUMPI RETURNDATASIZE PUSH1 0x0 DUP1 RETURNDATACOPY RETURNDATASIZE PUSH1 0x0 REVERT JUMPDEST POP POP POP POP PUSH1 0x40 MLOAD RETURNDATASIZE PUSH1 0x1F NOT PUSH1 0x1F DUP3 ADD AND DUP3 ADD DUP1 PUSH1 0x40 MSTORE POP DUP2 ADD SWAP1 PUSH2 0x3980 SWAP2 SWAP1 PUSH2 0x41B7 JUMP JUMPDEST DUP8 PUSH1 0x1 PUSH1 0x1 PUSH1 0xA0 SHL SUB AND PUSH4 0x313CE567 PUSH1 0x40 MLOAD DUP2 PUSH4 0xFFFFFFFF AND PUSH1 0xE0 SHL DUP2 MSTORE PUSH1 0x4 ADD PUSH1 0x20 PUSH1 0x40 MLOAD DUP1 DUP4 SUB DUP2 DUP7 GAS STATICCALL ISZERO DUP1 ISZERO PUSH2 0x39BE JUMPI RETURNDATASIZE PUSH1 0x0 DUP1 RETURNDATACOPY RETURNDATASIZE PUSH1 0x0 REVERT JUMPDEST POP POP POP POP PUSH1 0x40 MLOAD RETURNDATASIZE PUSH1 0x1F NOT PUSH1 0x1F DUP3 ADD AND DUP3 ADD DUP1 PUSH1 0x40 MSTORE POP DUP2 ADD SWAP1 PUSH2 0x39E2 SWAP2 SWAP1 PUSH2 0x41B7 JUMP JUMPDEST PUSH1 0x40 MLOAD PUSH4 0x8B2F0F4F PUSH1 0xE0 SHL DUP2 MSTORE PUSH1 0x1 PUSH1 0x1 PUSH1 0xA0 SHL SUB DUP11 DUP2 AND PUSH1 0x4 DUP4 ADD MSTORE PUSH2 0x3ACD SWAP2 SWAP1 DUP9 AND SWAP1 PUSH4 0x8B2F0F4F SWAP1 PUSH1 0x24 ADD PUSH1 0x20 PUSH1 0x40 MLOAD DUP1 DUP4 SUB DUP2 DUP7 GAS STATICCALL ISZERO DUP1 ISZERO PUSH2 0x3A2D JUMPI RETURNDATASIZE PUSH1 0x0 DUP1 RETURNDATACOPY RETURNDATASIZE PUSH1 0x0 REVERT JUMPDEST POP POP POP POP PUSH1 0x40 MLOAD RETURNDATASIZE PUSH1 0x1F NOT PUSH1 0x1F DUP3 ADD AND DUP3 ADD DUP1 PUSH1 0x40 MSTORE POP DUP2 ADD SWAP1 PUSH2 0x3A51 SWAP2 SWAP1 PUSH2 0x3D8B JUMP JUMPDEST PUSH1 0x40 MLOAD PUSH4 0x8B2F0F4F PUSH1 0xE0 SHL DUP2 MSTORE PUSH1 0x1 PUSH1 0x1 PUSH1 0xA0 SHL SUB DUP14 DUP2 AND PUSH1 0x4 DUP4 ADD MSTORE PUSH2 0x3AC7 SWAP2 SWAP1 DUP11 AND SWAP1 PUSH4 0x8B2F0F4F SWAP1 PUSH1 0x24 ADD PUSH1 0x20 PUSH1 0x40 MLOAD DUP1 DUP4 SUB DUP2 DUP7 GAS STATICCALL ISZERO DUP1 ISZERO PUSH2 0x3A9C JUMPI RETURNDATASIZE PUSH1 0x0 DUP1 RETURNDATACOPY RETURNDATASIZE PUSH1 0x0 REVERT JUMPDEST POP POP POP POP PUSH1 0x40 MLOAD RETURNDATASIZE PUSH1 0x1F NOT PUSH1 0x1F DUP3 ADD AND DUP3 ADD DUP1 PUSH1 0x40 MSTORE POP DUP2 ADD SWAP1 PUSH2 0x3AC0 SWAP2 SWAP1 PUSH2 0x3D8B JUMP JUMPDEST DUP12 SWAP1 PUSH2 0x20E3 JUMP JUMPDEST SWAP1 PUSH2 0x2912 JUMP JUMPDEST SWAP2 SWAP1 PUSH2 0x3ADD JUMP JUMPDEST SWAP6 SWAP5 POP POP POP POP POP JUMP JUMPDEST PUSH1 0x0 DUP2 PUSH1 0xFF AND DUP4 PUSH1 0xFF AND SUB PUSH2 0x3AF3 JUMPI POP DUP3 PUSH2 0x1C5C JUMP JUMPDEST DUP2 PUSH1 0xFF AND DUP4 PUSH1 0xFF AND GT ISZERO PUSH2 0x3B13 JUMPI PUSH2 0x3B0C DUP5 DUP5 DUP5 PUSH2 0x3B1E JUMP JUMPDEST SWAP1 POP PUSH2 0x1C5C JUMP JUMPDEST PUSH2 0x1C59 DUP5 DUP5 DUP5 PUSH2 0x3B3F JUMP JUMPDEST PUSH1 0x0 PUSH2 0x3B2A DUP3 DUP5 PUSH2 0x41DA JUMP JUMPDEST PUSH2 0x3B35 SWAP1 PUSH1 0xA PUSH2 0x41F3 JUMP JUMPDEST PUSH2 0x1C59 SWAP1 DUP6 PUSH2 0x3FA0 JUMP JUMPDEST PUSH1 0x0 PUSH2 0x3B4B DUP4 DUP4 PUSH2 0x41DA JUMP JUMPDEST PUSH2 0x3B56 SWAP1 PUSH1 0xA PUSH2 0x41F3 JUMP JUMPDEST PUSH2 0x1C59 SWAP1 DUP6 PUSH2 0x3F89 JUMP JUMPDEST PUSH1 0x1 PUSH1 0x1 PUSH1 0xA0 SHL SUB DUP2 AND DUP2 EQ PUSH2 0x1134 JUMPI PUSH1 0x0 DUP1 REVERT JUMPDEST PUSH1 0x0 DUP1 PUSH1 0x40 DUP4 DUP6 SUB SLT ISZERO PUSH2 0x3B88 JUMPI PUSH1 0x0 DUP1 REVERT JUMPDEST DUP3 CALLDATALOAD PUSH2 0x3B93 DUP2 PUSH2 0x3B60 JUMP JUMPDEST SWAP2 POP PUSH1 0x20 DUP4 ADD CALLDATALOAD PUSH2 0x3BA3 DUP2 PUSH2 0x3B60 JUMP JUMPDEST DUP1 SWAP2 POP POP SWAP3 POP SWAP3 SWAP1 POP JUMP JUMPDEST PUSH1 0x0 PUSH1 0x20 DUP3 DUP5 SUB SLT ISZERO PUSH2 0x3BC0 JUMPI PUSH1 0x0 DUP1 REVERT JUMPDEST DUP2 CALLDATALOAD PUSH2 0x1C5C DUP2 PUSH2 0x3B60 JUMP JUMPDEST PUSH1 0x0 DUP2 MLOAD DUP1 DUP5 MSTORE PUSH1 0x20 DUP1 DUP6 ADD SWAP5 POP DUP1 DUP5 ADD PUSH1 0x0 JUMPDEST DUP4 DUP2 LT ISZERO PUSH2 0x3C04 JUMPI DUP2 MLOAD PUSH1 0x1 PUSH1 0x1 PUSH1 0xA0 SHL SUB AND DUP8 MSTORE SWAP6 DUP3 ADD SWAP6 SWAP1 DUP3 ADD SWAP1 PUSH1 0x1 ADD PUSH2 0x3BDF JUMP JUMPDEST POP SWAP5 SWAP6 SWAP5 POP POP POP POP POP JUMP JUMPDEST PUSH1 0x20 DUP2 MSTORE PUSH1 0x0 PUSH2 0x2105 PUSH1 0x20 DUP4 ADD DUP5 PUSH2 0x3BCB JUMP JUMPDEST PUSH1 0x0 PUSH1 0x20 DUP3 DUP5 SUB SLT ISZERO PUSH2 0x3C34 JUMPI PUSH1 0x0 DUP1 REVERT JUMPDEST POP CALLDATALOAD SWAP2 SWAP1 POP JUMP JUMPDEST PUSH4 0x4E487B71 PUSH1 0xE0 SHL PUSH1 0x0 MSTORE PUSH1 0x41 PUSH1 0x4 MSTORE PUSH1 0x24 PUSH1 0x0 REVERT JUMPDEST PUSH1 0x40 MLOAD PUSH1 0x1F DUP3 ADD PUSH1 0x1F NOT AND DUP2 ADD PUSH8 0xFFFFFFFFFFFFFFFF DUP2 GT DUP3 DUP3 LT OR ISZERO PUSH2 0x3C7A JUMPI PUSH2 0x3C7A PUSH2 0x3C3B JUMP JUMPDEST PUSH1 0x40 MSTORE SWAP2 SWAP1 POP JUMP JUMPDEST PUSH1 0x0 PUSH8 0xFFFFFFFFFFFFFFFF DUP3 GT ISZERO PUSH2 0x3C9C JUMPI PUSH2 0x3C9C PUSH2 0x3C3B JUMP JUMPDEST POP PUSH1 0x5 SHL PUSH1 0x20 ADD SWAP1 JUMP JUMPDEST PUSH1 0x0 PUSH1 0x20 DUP1 DUP4 DUP6 SUB SLT ISZERO PUSH2 0x3CB9 JUMPI PUSH1 0x0 DUP1 REVERT JUMPDEST DUP3 CALLDATALOAD PUSH8 0xFFFFFFFFFFFFFFFF DUP2 GT ISZERO PUSH2 0x3CD0 JUMPI PUSH1 0x0 DUP1 REVERT JUMPDEST DUP4 ADD PUSH1 0x1F DUP2 ADD DUP6 SGT PUSH2 0x3CE1 JUMPI PUSH1 0x0 DUP1 REVERT JUMPDEST DUP1 CALLDATALOAD PUSH2 0x3CF4 PUSH2 0x3CEF DUP3 PUSH2 0x3C82 JUMP JUMPDEST PUSH2 0x3C51 JUMP JUMPDEST DUP2 DUP2 MSTORE PUSH1 0x5 SWAP2 SWAP1 SWAP2 SHL DUP3 ADD DUP4 ADD SWAP1 DUP4 DUP2 ADD SWAP1 DUP8 DUP4 GT ISZERO PUSH2 0x3D13 JUMPI PUSH1 0x0 DUP1 REVERT JUMPDEST SWAP3 DUP5 ADD SWAP3 JUMPDEST DUP3 DUP5 LT ISZERO PUSH2 0x3D3A JUMPI DUP4 CALLDATALOAD PUSH2 0x3D2B DUP2 PUSH2 0x3B60 JUMP JUMPDEST DUP3 MSTORE SWAP3 DUP5 ADD SWAP3 SWAP1 DUP5 ADD SWAP1 PUSH2 0x3D18 JUMP JUMPDEST SWAP8 SWAP7 POP POP POP POP POP POP POP JUMP JUMPDEST PUSH1 0x0 PUSH1 0x20 DUP3 DUP5 SUB SLT ISZERO PUSH2 0x3D57 JUMPI PUSH1 0x0 DUP1 REVERT JUMPDEST DUP2 MLOAD PUSH2 0x1C5C DUP2 PUSH2 0x3B60 JUMP JUMPDEST PUSH4 0x4E487B71 PUSH1 0xE0 SHL PUSH1 0x0 MSTORE PUSH1 0x11 PUSH1 0x4 MSTORE PUSH1 0x24 PUSH1 0x0 REVERT JUMPDEST DUP2 DUP2 SUB DUP2 DUP2 GT ISZERO PUSH2 0x2108 JUMPI PUSH2 0x2108 PUSH2 0x3D62 JUMP JUMPDEST PUSH1 0x0 PUSH1 0x20 DUP3 DUP5 SUB SLT ISZERO PUSH2 0x3D9D JUMPI PUSH1 0x0 DUP1 REVERT JUMPDEST POP MLOAD SWAP2 SWAP1 POP JUMP JUMPDEST PUSH1 0x0 PUSH1 0x20 DUP1 DUP4 DUP6 SUB SLT ISZERO PUSH2 0x3DB7 JUMPI PUSH1 0x0 DUP1 REVERT JUMPDEST DUP3 MLOAD PUSH8 0xFFFFFFFFFFFFFFFF DUP2 GT ISZERO PUSH2 0x3DCE JUMPI PUSH1 0x0 DUP1 REVERT JUMPDEST DUP4 ADD PUSH1 0x1F DUP2 ADD DUP6 SGT PUSH2 0x3DDF JUMPI PUSH1 0x0 DUP1 REVERT JUMPDEST DUP1 MLOAD PUSH2 0x3DED PUSH2 0x3CEF DUP3 PUSH2 0x3C82 JUMP JUMPDEST DUP2 DUP2 MSTORE PUSH1 0x5 SWAP2 SWAP1 SWAP2 SHL DUP3 ADD DUP4 ADD SWAP1 DUP4 DUP2 ADD SWAP1 DUP8 DUP4 GT ISZERO PUSH2 0x3E0C JUMPI PUSH1 0x0 DUP1 REVERT JUMPDEST SWAP3 DUP5 ADD SWAP3 JUMPDEST DUP3 DUP5 LT ISZERO PUSH2 0x3D3A JUMPI DUP4 MLOAD PUSH2 0x3E24 DUP2 PUSH2 0x3B60 JUMP JUMPDEST DUP3 MSTORE SWAP3 DUP5 ADD SWAP3 SWAP1 DUP5 ADD SWAP1 PUSH2 0x3E11 JUMP JUMPDEST PUSH4 0x4E487B71 PUSH1 0xE0 SHL PUSH1 0x0 MSTORE PUSH1 0x32 PUSH1 0x4 MSTORE PUSH1 0x24 PUSH1 0x0 REVERT JUMPDEST PUSH1 0x0 PUSH1 0x1 DUP3 ADD PUSH2 0x3E5B JUMPI PUSH2 0x3E5B PUSH2 0x3D62 JUMP JUMPDEST POP PUSH1 0x1 ADD SWAP1 JUMP JUMPDEST PUSH1 0x1 PUSH1 0x1 PUSH1 0xA0 SHL SUB DUP4 AND DUP2 MSTORE PUSH1 0x40 PUSH1 0x20 DUP3 ADD DUP2 SWAP1 MSTORE PUSH1 0x0 SWAP1 PUSH2 0x1C59 SWAP1 DUP4 ADD DUP5 PUSH2 0x3BCB JUMP JUMPDEST DUP1 DUP3 ADD DUP1 DUP3 GT ISZERO PUSH2 0x2108 JUMPI PUSH2 0x2108 PUSH2 0x3D62 JUMP JUMPDEST PUSH1 0x1 DUP2 DUP2 JUMPDEST DUP1 DUP6 GT ISZERO PUSH2 0x3ED4 JUMPI DUP2 PUSH1 0x0 NOT DIV DUP3 GT ISZERO PUSH2 0x3EBA JUMPI PUSH2 0x3EBA PUSH2 0x3D62 JUMP JUMPDEST DUP1 DUP6 AND ISZERO PUSH2 0x3EC7 JUMPI SWAP2 DUP2 MUL SWAP2 JUMPDEST SWAP4 DUP5 SHR SWAP4 SWAP1 DUP1 MUL SWAP1 PUSH2 0x3E9E JUMP JUMPDEST POP SWAP3 POP SWAP3 SWAP1 POP JUMP JUMPDEST PUSH1 0x0 DUP3 PUSH2 0x3EEB JUMPI POP PUSH1 0x1 PUSH2 0x2108 JUMP JUMPDEST DUP2 PUSH2 0x3EF8 JUMPI POP PUSH1 0x0 PUSH2 0x2108 JUMP JUMPDEST DUP2 PUSH1 0x1 DUP2 EQ PUSH2 0x3F0E JUMPI PUSH1 0x2 DUP2 EQ PUSH2 0x3F18 JUMPI PUSH2 0x3F34 JUMP JUMPDEST PUSH1 0x1 SWAP2 POP POP PUSH2 0x2108 JUMP JUMPDEST PUSH1 0xFF DUP5 GT ISZERO PUSH2 0x3F29 JUMPI PUSH2 0x3F29 PUSH2 0x3D62 JUMP JUMPDEST POP POP PUSH1 0x1 DUP3 SHL PUSH2 0x2108 JUMP JUMPDEST POP PUSH1 0x20 DUP4 LT PUSH2 0x133 DUP4 LT AND PUSH1 0x4E DUP5 LT PUSH1 0xB DUP5 LT AND OR ISZERO PUSH2 0x3F57 JUMPI POP DUP2 DUP2 EXP PUSH2 0x2108 JUMP JUMPDEST PUSH2 0x3F61 DUP4 DUP4 PUSH2 0x3E99 JUMP JUMPDEST DUP1 PUSH1 0x0 NOT DIV DUP3 GT ISZERO PUSH2 0x3F75 JUMPI PUSH2 0x3F75 PUSH2 0x3D62 JUMP JUMPDEST MUL SWAP4 SWAP3 POP POP POP JUMP JUMPDEST PUSH1 0x0 PUSH2 0x2105 DUP4 DUP4 PUSH2 0x3EDC JUMP JUMPDEST DUP1 DUP3 MUL DUP2 ISZERO DUP3 DUP3 DIV DUP5 EQ OR PUSH2 0x2108 JUMPI PUSH2 0x2108 PUSH2 0x3D62 JUMP JUMPDEST PUSH1 0x0 DUP3 PUSH2 0x3FBD JUMPI PUSH4 0x4E487B71 PUSH1 0xE0 SHL PUSH1 0x0 MSTORE PUSH1 0x12 PUSH1 0x4 MSTORE PUSH1 0x24 PUSH1 0x0 REVERT JUMPDEST POP DIV SWAP1 JUMP JUMPDEST DUP1 MLOAD DUP1 ISZERO ISZERO DUP2 EQ PUSH2 0xF69 JUMPI PUSH1 0x0 DUP1 REVERT JUMPDEST PUSH1 0x0 PUSH1 0x20 DUP3 DUP5 SUB SLT ISZERO PUSH2 0x3FE4 JUMPI PUSH1 0x0 DUP1 REVERT JUMPDEST PUSH2 0x2105 DUP3 PUSH2 0x3FC2 JUMP JUMPDEST PUSH1 0x0 JUMPDEST DUP4 DUP2 LT ISZERO PUSH2 0x4008 JUMPI DUP2 DUP2 ADD MLOAD DUP4 DUP3 ADD MSTORE PUSH1 0x20 ADD PUSH2 0x3FF0 JUMP JUMPDEST POP POP PUSH1 0x0 SWAP2 ADD MSTORE JUMP JUMPDEST PUSH1 0x0 DUP3 MLOAD PUSH2 0x4023 DUP2 DUP5 PUSH1 0x20 DUP8 ADD PUSH2 0x3FED JUMP JUMPDEST SWAP2 SWAP1 SWAP2 ADD SWAP3 SWAP2 POP POP JUMP JUMPDEST PUSH1 0x40 DUP2 MSTORE PUSH1 0x0 PUSH2 0x4040 PUSH1 0x40 DUP4 ADD DUP6 PUSH2 0x3BCB JUMP JUMPDEST SWAP1 POP PUSH1 0x1 DUP1 PUSH1 0xA0 SHL SUB DUP4 AND PUSH1 0x20 DUP4 ADD MSTORE SWAP4 SWAP3 POP POP POP JUMP JUMPDEST PUSH4 0x4E487B71 PUSH1 0xE0 SHL PUSH1 0x0 MSTORE PUSH1 0x31 PUSH1 0x4 MSTORE PUSH1 0x24 PUSH1 0x0 REVERT JUMPDEST DUP1 MLOAD PUSH1 0xF DUP2 SWAP1 SIGNEXTEND DUP2 EQ PUSH2 0xF69 JUMPI PUSH1 0x0 DUP1 REVERT JUMPDEST PUSH1 0x0 DUP1 PUSH1 0x0 PUSH1 0x60 DUP5 DUP7 SUB SLT ISZERO PUSH2 0x4094 JUMPI PUSH1 0x0 DUP1 REVERT JUMPDEST PUSH2 0x409D DUP5 PUSH2 0x406D JUMP JUMPDEST SWAP3 POP PUSH2 0x40AB PUSH1 0x20 DUP6 ADD PUSH2 0x406D JUMP JUMPDEST SWAP2 POP PUSH2 0x40B9 PUSH1 0x40 DUP6 ADD PUSH2 0x3FC2 JUMP JUMPDEST SWAP1 POP SWAP3 POP SWAP3 POP SWAP3 JUMP JUMPDEST DUP6 DUP2 MSTORE DUP5 PUSH1 0x20 DUP3 ADD MSTORE PUSH1 0xA0 PUSH1 0x40 DUP3 ADD MSTORE PUSH1 0x0 PUSH2 0x40E1 PUSH1 0xA0 DUP4 ADD DUP7 PUSH2 0x3BCB JUMP JUMPDEST PUSH1 0x1 PUSH1 0x1 PUSH1 0xA0 SHL SUB SWAP5 SWAP1 SWAP5 AND PUSH1 0x60 DUP4 ADD MSTORE POP PUSH1 0x80 ADD MSTORE SWAP4 SWAP3 POP POP POP JUMP JUMPDEST PUSH1 0x0 PUSH1 0x20 DUP1 DUP4 DUP6 SUB SLT ISZERO PUSH2 0x4111 JUMPI PUSH1 0x0 DUP1 REVERT JUMPDEST DUP3 MLOAD PUSH8 0xFFFFFFFFFFFFFFFF DUP2 GT ISZERO PUSH2 0x4128 JUMPI PUSH1 0x0 DUP1 REVERT JUMPDEST DUP4 ADD PUSH1 0x1F DUP2 ADD DUP6 SGT PUSH2 0x4139 JUMPI PUSH1 0x0 DUP1 REVERT JUMPDEST DUP1 MLOAD PUSH2 0x4147 PUSH2 0x3CEF DUP3 PUSH2 0x3C82 JUMP JUMPDEST DUP2 DUP2 MSTORE PUSH1 0x5 SWAP2 SWAP1 SWAP2 SHL DUP3 ADD DUP4 ADD SWAP1 DUP4 DUP2 ADD SWAP1 DUP8 DUP4 GT ISZERO PUSH2 0x4166 JUMPI PUSH1 0x0 DUP1 REVERT JUMPDEST SWAP3 DUP5 ADD SWAP3 JUMPDEST DUP3 DUP5 LT ISZERO PUSH2 0x3D3A JUMPI DUP4 MLOAD DUP3 MSTORE SWAP3 DUP5 ADD SWAP3 SWAP1 DUP5 ADD SWAP1 PUSH2 0x416B JUMP JUMPDEST PUSH1 0x20 DUP2 MSTORE PUSH1 0x0 DUP3 MLOAD DUP1 PUSH1 0x20 DUP5 ADD MSTORE PUSH2 0x41A3 DUP2 PUSH1 0x40 DUP6 ADD PUSH1 0x20 DUP8 ADD PUSH2 0x3FED JUMP JUMPDEST PUSH1 0x1F ADD PUSH1 0x1F NOT AND SWAP2 SWAP1 SWAP2 ADD PUSH1 0x40 ADD SWAP3 SWAP2 POP POP JUMP JUMPDEST PUSH1 0x0 PUSH1 0x20 DUP3 DUP5 SUB SLT ISZERO PUSH2 0x41C9 JUMPI PUSH1 0x0 DUP1 REVERT JUMPDEST DUP2 MLOAD PUSH1 0xFF DUP2 AND DUP2 EQ PUSH2 0x1C5C JUMPI PUSH1 0x0 DUP1 REVERT JUMPDEST PUSH1 0xFF DUP3 DUP2 AND DUP3 DUP3 AND SUB SWAP1 DUP2 GT ISZERO PUSH2 0x2108 JUMPI PUSH2 0x2108 PUSH2 0x3D62 JUMP JUMPDEST PUSH1 0x0 PUSH2 0x2105 PUSH1 0xFF DUP5 AND DUP4 PUSH2 0x3EDC JUMP INVALID LOG2 PUSH5 0x6970667358 0x22 SLT KECCAK256 0xEB EXTCODESIZE SWAP2 0x1F SWAP4 0x2C DIFFICULTY SWAP1 PUSH21 0x16896AA3C17F5B21873905E8D582734F2CA200D89C 0xAE DUP8 PUSH5 0x736F6C6343 STOP ADDMOD GT STOP CALLER ","sha1":"26f7b2c35f64995f602b4206a5df669e2e7b2547","source":"// SPDX-License-Identifier: GPL-3.0-or-later\npragma solidity 0.8.17;\n\nimport \"@openzeppelin/contracts/access/Ownable.sol\";\nimport \"@openzeppelin/contracts/proxy/utils/Initializable.sol\";\nimport \"@openzeppelin/contracts/utils/structs/EnumerableSet.sol\";\nimport \"@openzeppelin/contracts/token/ERC20/utils/SafeERC20.sol\";\nimport \"@openzeppelin/contracts/token/ERC20/extensions/IERC20Metadata.sol\";\n\nimport \"../interfaces/pools/IConicPool.sol\";\nimport \"../interfaces/pools/ILpToken.sol\";\nimport \"../interfaces/pools/IRewardManager.sol\";\nimport \"../interfaces/IConvexHandler.sol\";\nimport \"../interfaces/ICurveHandler.sol\";\nimport \"../interfaces/IController.sol\";\nimport \"../interfaces/IOracle.sol\";\nimport \"../interfaces/tokenomics/IInflationManager.sol\";\nimport \"../interfaces/tokenomics/ILpTokenStaker.sol\";\nimport \"../interfaces/tokenomics/ICNCLockerV2.sol\";\nimport \"../interfaces/vendor/ICurvePoolV2.sol\";\nimport \"../interfaces/vendor/UniswapRouter02.sol\";\n\nimport \"../libraries/ScaledMath.sol\";\n\ncontract RewardManagerV2 is IRewardManager, Ownable, Initializable {\n    using ScaledMath for uint256;\n    using SafeERC20 for IERC20;\n    using EnumerableSet for EnumerableSet.AddressSet;\n\n    struct RewardMeta {\n        uint256 earnedIntegral;\n        uint256 lastHoldings;\n        mapping(address => uint256) accountIntegral;\n        mapping(address => uint256) accountShare;\n    }\n\n    IERC20 public constant CVX = IERC20(0x4e3FBD56CD56c3e72c1403e103b45Db9da5B9D2B);\n    IERC20 public constant CRV = IERC20(0xD533a949740bb3306d119CC777fa900bA034cd52);\n    IERC20 public constant WETH = IERC20(0xC02aaA39b223FE8D0A0e5C4F27eAD9083C756Cc2);\n    IERC20 public constant CNC = IERC20(0x9aE380F0272E2162340a5bB646c354271c0F5cFC);\n    UniswapRouter02 public constant SUSHISWAP =\n        UniswapRouter02(0xd9e1cE17f2641f24aE83637ab66a2cca9C378B9F);\n    ICurvePoolV2 public constant CNC_ETH_POOL =\n        ICurvePoolV2(0x838af967537350D2C44ABB8c010E49E32673ab94);\n\n    uint256 public constant MAX_FEE_PERCENTAGE = 3e17;\n    uint256 public constant SLIPPAGE_THRESHOLD = 0.95e18; // 5% slippage as a multiplier\n\n    bytes32 internal constant _CNC_KEY = \"cnc\";\n    bytes32 internal constant _CRV_KEY = \"crv\";\n    bytes32 internal constant _CVX_KEY = \"cvx\";\n\n    address public override pool;\n    ILpToken public lpToken;\n    IERC20 public immutable underlying;\n    IController public immutable controller;\n    ICNCLockerV2 public immutable locker;\n    bool internal _claimingCNC;\n\n    EnumerableSet.AddressSet internal _extraRewards;\n    mapping(address => address) public extraRewardsCurvePool;\n    mapping(bytes32 => RewardMeta) internal _rewardsMeta;\n\n    bool public feesEnabled;\n    uint256 public feePercentage;\n\n    constructor(address _controller, address _underlying, address cncLocker) {\n        underlying = IERC20(_underlying);\n        controller = IController(_controller);\n        WETH.safeApprove(address(CNC_ETH_POOL), type(uint256).max);\n        locker = ICNCLockerV2(cncLocker);\n    }\n\n    function initialize(address _pool) external onlyOwner initializer {\n        pool = _pool;\n        lpToken = IConicPool(_pool).lpToken();\n    }\n\n    /// @notice Updates the internal fee accounting state. Returns `true` if rewards were claimed\n    function poolCheckpoint() public override returns (bool) {\n        IConvexHandler convexHandler = IConvexHandler(controller.convexHandler());\n\n        (uint256 crvHoldings, uint256 cvxHoldings, uint256 cncHoldings) = _getHoldings(\n            convexHandler\n        );\n        uint256 crvEarned = crvHoldings - _rewardsMeta[_CRV_KEY].lastHoldings;\n        uint256 cvxEarned = cvxHoldings - _rewardsMeta[_CVX_KEY].lastHoldings;\n        uint256 cncEarned = cncHoldings - _rewardsMeta[_CNC_KEY].lastHoldings;\n\n        uint256 crvFee;\n        uint256 cvxFee;\n\n        if (feesEnabled) {\n            crvFee = crvEarned.mulDown(feePercentage);\n            cvxFee = cvxEarned.mulDown(feePercentage);\n            crvEarned -= crvFee;\n            cvxEarned -= cvxFee;\n            crvHoldings -= crvFee;\n            cvxHoldings -= cvxFee;\n        }\n\n        uint256 _totalStaked = controller.lpTokenStaker().getBalanceForPool(pool);\n        if (_totalStaked > 0) {\n            _updateEarned(_CVX_KEY, cvxHoldings, cvxEarned, _totalStaked);\n            _updateEarned(_CRV_KEY, crvHoldings, crvEarned, _totalStaked);\n            _updateEarned(_CNC_KEY, cncHoldings, cncEarned, _totalStaked);\n        }\n\n        if (!feesEnabled) {\n            return false;\n        }\n\n        bool rewardsClaimed = false;\n\n        if (crvFee > CRV.balanceOf(pool) || cvxFee > CVX.balanceOf(pool)) {\n            _claimPoolEarningsAndSellRewardTokens();\n            rewardsClaimed = true;\n        }\n\n        CRV.safeTransferFrom(pool, address(this), crvFee);\n        CVX.safeTransferFrom(pool, address(this), cvxFee);\n\n        // Fee transfer to the CNC locker\n        CRV.safeApprove(address(locker), crvFee);\n        CVX.safeApprove(address(locker), cvxFee);\n        locker.receiveFees(crvFee, cvxFee);\n\n        return rewardsClaimed;\n    }\n\n    function _updateEarned(\n        bytes32 key,\n        uint256 holdings,\n        uint256 earned,\n        uint256 _totalSupply\n    ) internal {\n        _rewardsMeta[key].earnedIntegral += earned.divDown(_totalSupply);\n        _rewardsMeta[key].lastHoldings = holdings;\n    }\n\n    function _getEarnedRewards()\n        internal\n        view\n        returns (uint256 crvEarned, uint256 cvxEarned, uint256 cncEarned)\n    {\n        IConvexHandler convexHandler = IConvexHandler(controller.convexHandler());\n        return _getEarnedRewards(convexHandler);\n    }\n\n    function _getHoldings(\n        IConvexHandler convexHandler\n    ) internal view returns (uint256 crvHoldings, uint256 cvxHoldings, uint256 cncHoldings) {\n        address[] memory curvePools = IConicPool(pool).allCurvePools();\n\n        uint256 claimableCRV = convexHandler.getCrvEarnedBatch(pool, curvePools);\n        crvHoldings = CRV.balanceOf(pool) + claimableCRV;\n\n        uint256 claimableCVX = convexHandler.computeClaimableConvex(claimableCRV);\n        cvxHoldings = CVX.balanceOf(pool) + claimableCVX;\n        cncHoldings = CNC.balanceOf(pool);\n        if (!_claimingCNC) {\n            cncHoldings += controller.lpTokenStaker().claimableCnc(pool);\n        }\n    }\n\n    function _getEarnedRewards(\n        IConvexHandler convexHandler\n    ) internal view returns (uint256 crvEarned, uint256 cvxEarned, uint256 cncEarned) {\n        (\n            uint256 currentHoldingsCRV,\n            uint256 currentHoldingsCVX,\n            uint256 currentHoldingsCNC\n        ) = _getHoldings(convexHandler);\n\n        crvEarned = currentHoldingsCRV - _rewardsMeta[_CRV_KEY].lastHoldings;\n        cvxEarned = currentHoldingsCVX - _rewardsMeta[_CVX_KEY].lastHoldings;\n        cncEarned = currentHoldingsCNC - _rewardsMeta[_CNC_KEY].lastHoldings;\n    }\n\n    function accountCheckpoint(address account) external {\n        _accountCheckpoint(account);\n    }\n\n    function _accountCheckpoint(address account) internal {\n        uint256 accountBalance = controller.lpTokenStaker().getUserBalanceForPool(pool, account);\n        poolCheckpoint();\n        _updateAccountRewardsMeta(_CNC_KEY, account, accountBalance);\n        _updateAccountRewardsMeta(_CRV_KEY, account, accountBalance);\n        _updateAccountRewardsMeta(_CVX_KEY, account, accountBalance);\n    }\n\n    function _updateAccountRewardsMeta(bytes32 key, address account, uint256 balance) internal {\n        RewardMeta storage meta = _rewardsMeta[key];\n        uint256 share = balance.mulDown(meta.earnedIntegral - meta.accountIntegral[account]);\n        meta.accountShare[account] += share;\n        meta.accountIntegral[account] = meta.earnedIntegral;\n    }\n\n    /// @notice Claims all CRV, CVX and CNC earned by a user. All extra reward\n    /// tokens earned will be sold for CNC.\n    /// @dev Conic pool LP tokens need to be staked in the `LpTokenStaker` in\n    /// order to receive a share of the CRV, CVX and CNC earnings.\n    /// after selling all extra reward tokens.\n    function claimEarnings() public override returns (uint256, uint256, uint256) {\n        _accountCheckpoint(msg.sender);\n        uint256 crvAmount = _rewardsMeta[_CRV_KEY].accountShare[msg.sender];\n        uint256 cvxAmount = _rewardsMeta[_CVX_KEY].accountShare[msg.sender];\n        uint256 cncAmount = _rewardsMeta[_CNC_KEY].accountShare[msg.sender];\n\n        if (\n            crvAmount > CRV.balanceOf(pool) ||\n            cvxAmount > CVX.balanceOf(pool) ||\n            cncAmount > CNC.balanceOf(pool)\n        ) {\n            _claimPoolEarningsAndSellRewardTokens();\n        }\n        _rewardsMeta[_CNC_KEY].accountShare[msg.sender] = 0;\n        _rewardsMeta[_CVX_KEY].accountShare[msg.sender] = 0;\n        _rewardsMeta[_CRV_KEY].accountShare[msg.sender] = 0;\n\n        CRV.safeTransferFrom(pool, msg.sender, crvAmount);\n        CVX.safeTransferFrom(pool, msg.sender, cvxAmount);\n        CNC.safeTransferFrom(pool, msg.sender, cncAmount);\n\n        (\n            uint256 currentHoldingsCRV,\n            uint256 currentHoldingsCVX,\n            uint256 currentHoldingsCNC\n        ) = _getHoldings(IConvexHandler(controller.convexHandler()));\n        _rewardsMeta[_CRV_KEY].lastHoldings = currentHoldingsCRV;\n        _rewardsMeta[_CVX_KEY].lastHoldings = currentHoldingsCVX;\n        _rewardsMeta[_CNC_KEY].lastHoldings = currentHoldingsCNC;\n\n        emit EarningsClaimed(msg.sender, cncAmount, crvAmount, cvxAmount);\n        return (cncAmount, crvAmount, cvxAmount);\n    }\n\n    /// @notice Claims all claimable CVX and CRV from Convex for all staked Curve LP tokens.\n    /// Then Swaps all additional rewards tokens for CNC.\n    function claimPoolEarningsAndSellRewardTokens() external override {\n        if (!poolCheckpoint()) {\n            _claimPoolEarningsAndSellRewardTokens();\n        }\n    }\n\n    function _claimPoolEarningsAndSellRewardTokens() internal {\n        _claimPoolEarnings();\n\n        uint256 cncBalanceBefore_ = CNC.balanceOf(pool);\n\n        _sellRewardTokens();\n\n        uint256 receivedCnc_ = CNC.balanceOf(pool) - cncBalanceBefore_;\n        uint256 _totalStaked = controller.lpTokenStaker().getBalanceForPool(pool);\n        if (_totalStaked > 0)\n            _rewardsMeta[_CNC_KEY].earnedIntegral += receivedCnc_.divDown(_totalStaked);\n        emit SoldRewardTokens(receivedCnc_);\n    }\n\n    /// @notice Claims all claimable CVX and CRV from Convex for all staked Curve LP tokens\n    function _claimPoolEarnings() internal {\n        _claimingCNC = true;\n        controller.lpTokenStaker().claimCNCRewardsForPool(pool);\n        _claimingCNC = false;\n\n        uint256 cvxBalance = CVX.balanceOf(pool);\n        uint256 crvBalance = CRV.balanceOf(pool);\n\n        address convexHandler = controller.convexHandler();\n\n        IConvexHandler(convexHandler).claimBatchEarnings(IConicPool(pool).allCurvePools(), pool);\n\n        uint256 claimedCvx = CVX.balanceOf(pool) - cvxBalance;\n        uint256 claimedCrv = CRV.balanceOf(pool) - crvBalance;\n\n        emit ClaimedRewards(claimedCrv, claimedCvx);\n    }\n\n    /// @notice Swaps all additional rewards tokens for CNC.\n    function _sellRewardTokens() internal {\n        uint256 extraRewardsLength_ = _extraRewards.length();\n        if (extraRewardsLength_ == 0) return;\n        for (uint256 i; i < extraRewardsLength_; i++) {\n            _swapRewardTokenForWeth(_extraRewards.at(i));\n        }\n        _swapWethForCNC();\n    }\n\n    function listExtraRewards() external view returns (address[] memory) {\n        return _extraRewards.values();\n    }\n\n    function addExtraReward(address reward) public override onlyOwner returns (bool) {\n        require(reward != address(0), \"invalid address\");\n        require(\n            reward != address(CVX) &&\n                reward != address(CRV) &&\n                reward != address(underlying) &&\n                reward != address(CNC),\n            \"token not allowed\"\n        );\n\n        // Checking reward token isn't a Curve Pool LP Token\n        address[] memory curvePools_ = IConicPool(pool).allCurvePools();\n        for (uint256 i; i < curvePools_.length; i++) {\n            address curveLpToken_ = controller.curveRegistryCache().lpToken(curvePools_[i]);\n            require(reward != curveLpToken_, \"token not allowed\");\n        }\n\n        IERC20(reward).safeApprove(address(SUSHISWAP), 0);\n        IERC20(reward).safeApprove(address(SUSHISWAP), type(uint256).max);\n        emit ExtraRewardAdded(reward);\n        return _extraRewards.add(reward);\n    }\n\n    function addBatchExtraRewards(address[] memory _rewards) external override onlyOwner {\n        for (uint256 i; i < _rewards.length; i++) {\n            addExtraReward(_rewards[i]);\n        }\n    }\n\n    function removeExtraReward(address tokenAddress) external onlyOwner {\n        _extraRewards.remove(tokenAddress);\n        emit ExtraRewardRemoved(tokenAddress);\n    }\n\n    function setExtraRewardsCurvePool(address extraReward_, address curvePool_) external onlyOwner {\n        require(curvePool_ != extraRewardsCurvePool[extraReward_], \"must be different to current\");\n        if (curvePool_ != address(0)) {\n            IERC20(extraReward_).safeApprove(curvePool_, 0);\n            IERC20(extraReward_).safeApprove(curvePool_, type(uint256).max);\n        }\n        extraRewardsCurvePool[extraReward_] = curvePool_;\n        emit ExtraRewardsCurvePoolSet(extraReward_, curvePool_);\n    }\n\n    function setFeePercentage(uint256 _feePercentage) external override onlyOwner {\n        require(_feePercentage < MAX_FEE_PERCENTAGE, \"cannot set fee percentage to more than 30%\");\n        require(locker.totalBoosted() > 0);\n        feePercentage = _feePercentage;\n        feesEnabled = true;\n        emit FeesSet(feePercentage);\n    }\n\n    function claimableRewards(\n        address account\n    ) external view returns (uint256 cncRewards, uint256 crvRewards, uint256 cvxRewards) {\n        uint256 _totalStaked = controller.lpTokenStaker().getBalanceForPool(pool);\n        if (_totalStaked == 0) return (0, 0, 0);\n        (uint256 crvEarned, uint256 cvxEarned, uint256 cncEarned) = _getEarnedRewards();\n        uint256 userBalance = controller.lpTokenStaker().getUserBalanceForPool(pool, account);\n\n        cncRewards = _getClaimableReward(\n            account,\n            _CNC_KEY,\n            cncEarned,\n            userBalance,\n            _totalStaked,\n            false\n        );\n        crvRewards = _getClaimableReward(\n            account,\n            _CRV_KEY,\n            crvEarned,\n            userBalance,\n            _totalStaked,\n            feesEnabled\n        );\n        cvxRewards = _getClaimableReward(\n            account,\n            _CVX_KEY,\n            cvxEarned,\n            userBalance,\n            _totalStaked,\n            feesEnabled\n        );\n    }\n\n    function _getClaimableReward(\n        address account,\n        bytes32 key,\n        uint256 earned,\n        uint256 userBalance,\n        uint256 _totalSupply,\n        bool deductFee\n    ) internal view returns (uint256) {\n        RewardMeta storage meta = _rewardsMeta[key];\n        uint256 integral = meta.earnedIntegral;\n        if (deductFee) {\n            integral += earned.divDown(_totalSupply).mulDown(ScaledMath.ONE - feePercentage);\n        } else {\n            integral += earned.divDown(_totalSupply);\n        }\n        return\n            meta.accountShare[account] +\n            userBalance.mulDown(integral - meta.accountIntegral[account]);\n    }\n\n    function _swapRewardTokenForWeth(address rewardToken_) internal {\n        uint256 tokenBalance_ = IERC20(rewardToken_).balanceOf(address(this));\n        if (tokenBalance_ == 0) return;\n\n        ICurvePoolV2 curvePool_ = ICurvePoolV2(extraRewardsCurvePool[rewardToken_]);\n        if (address(curvePool_) != address(0)) {\n            (int128 i, int128 j, ) = controller.curveRegistryCache().coinIndices(\n                address(curvePool_),\n                rewardToken_,\n                address(WETH)\n            );\n            (uint256 from_, uint256 to_) = (uint256(uint128(i)), uint256(uint128(j)));\n            curvePool_.exchange(\n                from_,\n                to_,\n                tokenBalance_,\n                _minAmountOut(address(rewardToken_), address(WETH), tokenBalance_),\n                false,\n                address(this)\n            );\n            return;\n        }\n\n        address[] memory path_ = new address[](2);\n        path_[0] = rewardToken_;\n        path_[1] = address(WETH);\n        SUSHISWAP.swapExactTokensForTokens(\n            tokenBalance_,\n            _minAmountOut(address(rewardToken_), address(WETH), tokenBalance_),\n            path_,\n            address(this),\n            block.timestamp\n        );\n    }\n\n    function _swapWethForCNC() internal {\n        uint256 wethBalance_ = WETH.balanceOf(address(this));\n        if (wethBalance_ == 0) return;\n        CNC_ETH_POOL.exchange(\n            0,\n            1,\n            wethBalance_,\n            _minAmountOut(address(WETH), address(CNC), wethBalance_),\n            false,\n            pool\n        );\n    }\n\n    function _minAmountOut(\n        address tokenIn_,\n        address tokenOut_,\n        uint256 amountIn_\n    ) internal view returns (uint256) {\n        IOracle oracle_ = controller.priceOracle();\n\n        if (tokenIn_ == tokenOut_) {\n            return amountIn_;\n        }\n\n        // If we don't have a price for either token, we can't calculate the min amount out\n        // This should only ever happen for very minor tokens, so we accept the risk of not having\n        // slippage protection in that case\n        if (!oracle_.isTokenSupported(tokenIn_) || !oracle_.isTokenSupported(tokenOut_)) {\n            return 0;\n        }\n\n        return\n            amountIn_\n                .mulDown(oracle_.getUSDPrice(tokenIn_))\n                .divDown(oracle_.getUSDPrice(tokenOut_))\n                .convertScale(\n                    IERC20Metadata(tokenIn_).decimals(),\n                    IERC20Metadata(tokenOut_).decimals()\n                )\n                .mulDown(SLIPPAGE_THRESHOLD);\n    }\n}\n","sourcePath":"contracts/RewardManagerV2.sol","type":"contract","deployment":{"address":"0x39f15f704c1F4678f7E6359A58a196228266ff02","chainid":"1","blockHeight":17438002}}