{"abi":[{"inputs":[{"internalType":"address","name":"bondingAddress_","type":"address"}],"stateMutability":"nonpayable","type":"constructor","name":"constructor"},{"inputs":[{"internalType":"address","name":"account","type":"address"}],"name":"claimableCrvUsd","outputs":[{"internalType":"uint256","name":"","type":"uint256"}],"stateMutability":"view","type":"function"}],"bytecode":"60a060405234801561001057600080fd5b50604051610e55380380610e5583398101604081905261002f91610040565b6001600160a01b0316608052610070565b60006020828403121561005257600080fd5b81516001600160a01b038116811461006957600080fd5b9392505050565b608051610d5c6100f96000396000818160590152818160ec01528181610172015281816101f80152818161029d0152818161030d015281816103a301528181610425015281816104d101528181610549015281816105cc015281816106700152818161072a015281816107a20152818161083f015281816109430152610a550152610d5c6000f3fe608060405234801561001057600080fd5b506004361061002b5760003560e01c806388cd654614610030575b600080fd5b61004361003e366004610b45565b610055565b60405190815260200160405180910390f35b60007f00000000000000000000000000000000000000000000000000000000000000006001600160a01b031663a32a39396040518163ffffffff1660e01b8152600401602060405180830381865afa1580156100b5573d6000803e3d6000fd5b505050506040513d601f19601f820116820180604052508101906100d99190610b69565b6100e557506000919050565b60008060007f00000000000000000000000000000000000000000000000000000000000000006001600160a01b031663015599f36040518163ffffffff1660e01b8152600401602060405180830381865afa158015610148573d6000803e3d6000fd5b505050506040513d601f19601f8201168201806040525081019061016c9190610b8b565b905060007f00000000000000000000000000000000000000000000000000000000000000006001600160a01b031663ee568b706040518163ffffffff1660e01b8152600401602060405180830381865afa1580156101ce573d6000803e3d6000fd5b505050506040513d601f19601f820116820180604052508101906101f29190610b8b565b905060007f00000000000000000000000000000000000000000000000000000000000000006001600160a01b0316632a7c57186040518163ffffffff1660e01b8152600401602060405180830381865afa158015610254573d6000803e3d6000fd5b505050506040513d601f19601f820116820180604052508101906102789190610b8b565b6040516368f9482360e01b81526001600160a01b0389811660048301529192506000917f000000000000000000000000000000000000000000000000000000000000000016906368f9482390602401602060405180830381865afa1580156102e4573d6000803e3d6000fd5b505050506040513d601f19601f820116820180604052508101906103089190610b8b565b90505b7f00000000000000000000000000000000000000000000000000000000000000006001600160a01b0316634ff0876a6040518163ffffffff1660e01b8152600401602060405180830381865afa158015610369573d6000803e3d6000fd5b505050506040513d601f19601f8201168201806040525081019061038d9190610b8b565b6103979085610bba565b42101580156104b257507f00000000000000000000000000000000000000000000000000000000000000006001600160a01b0316634ff0876a6040518163ffffffff1660e01b8152600401602060405180830381865afa1580156103ff573d6000803e3d6000fd5b505050506040513d601f19601f820116820180604052508101906104239190610b8b565b7f00000000000000000000000000000000000000000000000000000000000000006001600160a01b0316630cc678c96040518163ffffffff1660e01b8152600401602060405180830381865afa158015610481573d6000803e3d6000fd5b505050506040513d601f19601f820116820180604052508101906104a59190610b8b565b6104af9190610bba565b84105b15610710576040516331e0dfeb60e21b81526004810185905261066c907f00000000000000000000000000000000000000000000000000000000000000006001600160a01b03169063c7837fac90602401602060405180830381865afa158015610520573d6000803e3d6000fd5b505050506040513d601f19601f820116820180604052508101906105449190610b8b565b6106667f00000000000000000000000000000000000000000000000000000000000000006001600160a01b0316634ff0876a6040518163ffffffff1660e01b8152600401602060405180830381865afa1580156105a5573d6000803e3d6000fd5b505050506040513d601f19601f820116820180604052508101906105c99190610b8b565b867f00000000000000000000000000000000000000000000000000000000000000006001600160a01b0316634ff0876a6040518163ffffffff1660e01b8152600401602060405180830381865afa158015610628573d6000803e3d6000fd5b505050506040513d601f19601f8201168201806040525081019061064c9190610b8b565b610656908a610bba565b6106609190610bcd565b90610ae9565b90610b15565b94507f00000000000000000000000000000000000000000000000000000000000000006001600160a01b0316634ff0876a6040518163ffffffff1660e01b8152600401602060405180830381865afa1580156106cc573d6000803e3d6000fd5b505050506040513d601f19601f820116820180604052508101906106f09190610b8b565b6106fa9085610bba565b93508392506107098587610bba565b955061030b565b6040516331e0dfeb60e21b81526004810185905261082c907f00000000000000000000000000000000000000000000000000000000000000006001600160a01b03169063c7837fac90602401602060405180830381865afa158015610779573d6000803e3d6000fd5b505050506040513d601f19601f8201168201806040525081019061079d9190610b8b565b6106667f00000000000000000000000000000000000000000000000000000000000000006001600160a01b0316634ff0876a6040518163ffffffff1660e01b8152600401602060405180830381865afa1580156107fe573d6000803e3d6000fd5b505050506040513d601f19601f820116820180604052508101906108229190610b8b565b6106608742610bcd565b6108369087610bba565b955042925060007f00000000000000000000000000000000000000000000000000000000000000006001600160a01b0316637da93a986040518163ffffffff1660e01b8152600401602060405180830381865afa15801561089b573d6000803e3d6000fd5b505050506040513d601f19601f820116820180604052508101906108bf9190610be0565b6001600160a01b031663631516c26040518163ffffffff1660e01b8152600401602060405180830381865afa1580156108fc573d6000803e3d6000fd5b505050506040513d601f19601f820116820180604052508101906109209190610b8b565b9050801561093f576109328782610ae9565b61093c9084610bba565b92505b60007f00000000000000000000000000000000000000000000000000000000000000006001600160a01b0316637da93a986040518163ffffffff1660e01b8152600401602060405180830381865afa15801561099f573d6000803e3d6000fd5b505050506040513d601f19601f820116820180604052508101906109c39190610be0565b6040516328a8103960e01b81526001600160a01b038c8116600483015291909116906328a8103990602401602060405180830381865afa158015610a0b573d6000803e3d6000fd5b505050506040513d601f19601f82011682018060405250810190610a2f9190610b8b565b604051633caf8a7160e21b81526001600160a01b038c81166004830152919250610ad1917f0000000000000000000000000000000000000000000000000000000000000000169063f2be29c490602401602060405180830381865afa158015610a9c573d6000803e3d6000fd5b505050506040513d601f19601f82011682018060405250810190610ac09190610b8b565b610aca9086610bcd565b8290610b15565b610adb9084610bba565b9a9950505050505050505050565b600081610af86012600a610ce1565b610b029085610ced565b610b0c9190610d04565b90505b92915050565b6000610b236012600a610ce1565b610b028385610ced565b6001600160a01b0381168114610b4257600080fd5b50565b600060208284031215610b5757600080fd5b8135610b6281610b2d565b9392505050565b600060208284031215610b7b57600080fd5b81518015158114610b6257600080fd5b600060208284031215610b9d57600080fd5b5051919050565b634e487b7160e01b600052601160045260246000fd5b80820180821115610b0f57610b0f610ba4565b81810381811115610b0f57610b0f610ba4565b600060208284031215610bf257600080fd5b8151610b6281610b2d565b600181815b80851115610c38578160001904821115610c1e57610c1e610ba4565b80851615610c2b57918102915b93841c9390800290610c02565b509250929050565b600082610c4f57506001610b0f565b81610c5c57506000610b0f565b8160018114610c725760028114610c7c57610c98565b6001915050610b0f565b60ff841115610c8d57610c8d610ba4565b50506001821b610b0f565b5060208310610133831016604e8410600b8410161715610cbb575081810a610b0f565b610cc58383610bfd565b8060001904821115610cd957610cd9610ba4565b029392505050565b6000610b0c8383610c40565b8082028115828204841417610b0f57610b0f610ba4565b600082610d2157634e487b7160e01b600052601260045260246000fd5b50049056fea26469706673582212206c7c33aabab805be1fb5cf3ce56eba1651a94669a3e6bfb980cf171917f0901d64736f6c63430008110033","bytecodeSha1":"851dbfd0b0d61ac496637f43472f556ba6eb5a6d","compiler":{"evm_version":"london","optimizer":{"enabled":true,"runs":200},"version":"0.8.17+commit.8df45f5f"},"contractName":"BondingHelper","language":"Solidity","natspec":{"kind":"dev","methods":{},"version":1},"opcodes":"PUSH1 0x80 PUSH1 0x40 MSTORE CALLVALUE DUP1 ISZERO PUSH2 0x10 JUMPI PUSH1 0x0 DUP1 REVERT JUMPDEST POP PUSH1 0x4 CALLDATASIZE LT PUSH2 0x2B JUMPI PUSH1 0x0 CALLDATALOAD PUSH1 0xE0 SHR DUP1 PUSH4 0x88CD6546 EQ PUSH2 0x30 JUMPI JUMPDEST PUSH1 0x0 DUP1 REVERT JUMPDEST PUSH2 0x43 PUSH2 0x3E CALLDATASIZE PUSH1 0x4 PUSH2 0xB45 JUMP JUMPDEST PUSH2 0x55 JUMP JUMPDEST PUSH1 0x40 MLOAD SWAP1 DUP2 MSTORE PUSH1 0x20 ADD PUSH1 0x40 MLOAD DUP1 SWAP2 SUB SWAP1 RETURN JUMPDEST PUSH1 0x0 PUSH32 0x0 PUSH1 0x1 PUSH1 0x1 PUSH1 0xA0 SHL SUB AND PUSH4 0xA32A3939 PUSH1 0x40 MLOAD DUP2 PUSH4 0xFFFFFFFF AND PUSH1 0xE0 SHL DUP2 MSTORE PUSH1 0x4 ADD PUSH1 0x20 PUSH1 0x40 MLOAD DUP1 DUP4 SUB DUP2 DUP7 GAS STATICCALL ISZERO DUP1 ISZERO PUSH2 0xB5 JUMPI RETURNDATASIZE PUSH1 0x0 DUP1 RETURNDATACOPY RETURNDATASIZE PUSH1 0x0 REVERT JUMPDEST POP POP POP POP PUSH1 0x40 MLOAD RETURNDATASIZE PUSH1 0x1F NOT PUSH1 0x1F DUP3 ADD AND DUP3 ADD DUP1 PUSH1 0x40 MSTORE POP DUP2 ADD SWAP1 PUSH2 0xD9 SWAP2 SWAP1 PUSH2 0xB69 JUMP JUMPDEST PUSH2 0xE5 JUMPI POP PUSH1 0x0 SWAP2 SWAP1 POP JUMP JUMPDEST PUSH1 0x0 DUP1 PUSH1 0x0 PUSH32 0x0 PUSH1 0x1 PUSH1 0x1 PUSH1 0xA0 SHL SUB AND PUSH4 0x15599F3 PUSH1 0x40 MLOAD DUP2 PUSH4 0xFFFFFFFF AND PUSH1 0xE0 SHL DUP2 MSTORE PUSH1 0x4 ADD PUSH1 0x20 PUSH1 0x40 MLOAD DUP1 DUP4 SUB DUP2 DUP7 GAS STATICCALL ISZERO DUP1 ISZERO PUSH2 0x148 JUMPI RETURNDATASIZE PUSH1 0x0 DUP1 RETURNDATACOPY RETURNDATASIZE PUSH1 0x0 REVERT JUMPDEST POP POP POP POP PUSH1 0x40 MLOAD RETURNDATASIZE PUSH1 0x1F NOT PUSH1 0x1F DUP3 ADD AND DUP3 ADD DUP1 PUSH1 0x40 MSTORE POP DUP2 ADD SWAP1 PUSH2 0x16C SWAP2 SWAP1 PUSH2 0xB8B JUMP JUMPDEST SWAP1 POP PUSH1 0x0 PUSH32 0x0 PUSH1 0x1 PUSH1 0x1 PUSH1 0xA0 SHL SUB AND PUSH4 0xEE568B70 PUSH1 0x40 MLOAD DUP2 PUSH4 0xFFFFFFFF AND PUSH1 0xE0 SHL DUP2 MSTORE PUSH1 0x4 ADD PUSH1 0x20 PUSH1 0x40 MLOAD DUP1 DUP4 SUB DUP2 DUP7 GAS STATICCALL ISZERO DUP1 ISZERO PUSH2 0x1CE JUMPI RETURNDATASIZE PUSH1 0x0 DUP1 RETURNDATACOPY RETURNDATASIZE PUSH1 0x0 REVERT JUMPDEST POP POP POP POP PUSH1 0x40 MLOAD RETURNDATASIZE PUSH1 0x1F NOT PUSH1 0x1F DUP3 ADD AND DUP3 ADD DUP1 PUSH1 0x40 MSTORE POP DUP2 ADD SWAP1 PUSH2 0x1F2 SWAP2 SWAP1 PUSH2 0xB8B JUMP JUMPDEST SWAP1 POP PUSH1 0x0 PUSH32 0x0 PUSH1 0x1 PUSH1 0x1 PUSH1 0xA0 SHL SUB AND PUSH4 0x2A7C5718 PUSH1 0x40 MLOAD DUP2 PUSH4 0xFFFFFFFF AND PUSH1 0xE0 SHL DUP2 MSTORE PUSH1 0x4 ADD PUSH1 0x20 PUSH1 0x40 MLOAD DUP1 DUP4 SUB DUP2 DUP7 GAS STATICCALL ISZERO DUP1 ISZERO PUSH2 0x254 JUMPI RETURNDATASIZE PUSH1 0x0 DUP1 RETURNDATACOPY RETURNDATASIZE PUSH1 0x0 REVERT JUMPDEST POP POP POP POP PUSH1 0x40 MLOAD RETURNDATASIZE PUSH1 0x1F NOT PUSH1 0x1F DUP3 ADD AND DUP3 ADD DUP1 PUSH1 0x40 MSTORE POP DUP2 ADD SWAP1 PUSH2 0x278 SWAP2 SWAP1 PUSH2 0xB8B JUMP JUMPDEST PUSH1 0x40 MLOAD PUSH4 0x68F94823 PUSH1 0xE0 SHL DUP2 MSTORE PUSH1 0x1 PUSH1 0x1 PUSH1 0xA0 SHL SUB DUP10 DUP2 AND PUSH1 0x4 DUP4 ADD MSTORE SWAP2 SWAP3 POP PUSH1 0x0 SWAP2 PUSH32 0x0 AND SWAP1 PUSH4 0x68F94823 SWAP1 PUSH1 0x24 ADD PUSH1 0x20 PUSH1 0x40 MLOAD DUP1 DUP4 SUB DUP2 DUP7 GAS STATICCALL ISZERO DUP1 ISZERO PUSH2 0x2E4 JUMPI RETURNDATASIZE PUSH1 0x0 DUP1 RETURNDATACOPY RETURNDATASIZE PUSH1 0x0 REVERT JUMPDEST POP POP POP POP PUSH1 0x40 MLOAD RETURNDATASIZE PUSH1 0x1F NOT PUSH1 0x1F DUP3 ADD AND DUP3 ADD DUP1 PUSH1 0x40 MSTORE POP DUP2 ADD SWAP1 PUSH2 0x308 SWAP2 SWAP1 PUSH2 0xB8B JUMP JUMPDEST SWAP1 POP JUMPDEST PUSH32 0x0 PUSH1 0x1 PUSH1 0x1 PUSH1 0xA0 SHL SUB AND PUSH4 0x4FF0876A PUSH1 0x40 MLOAD DUP2 PUSH4 0xFFFFFFFF AND PUSH1 0xE0 SHL DUP2 MSTORE PUSH1 0x4 ADD PUSH1 0x20 PUSH1 0x40 MLOAD DUP1 DUP4 SUB DUP2 DUP7 GAS STATICCALL ISZERO DUP1 ISZERO PUSH2 0x369 JUMPI RETURNDATASIZE PUSH1 0x0 DUP1 RETURNDATACOPY RETURNDATASIZE PUSH1 0x0 REVERT JUMPDEST POP POP POP POP PUSH1 0x40 MLOAD RETURNDATASIZE PUSH1 0x1F NOT PUSH1 0x1F DUP3 ADD AND DUP3 ADD DUP1 PUSH1 0x40 MSTORE POP DUP2 ADD SWAP1 PUSH2 0x38D SWAP2 SWAP1 PUSH2 0xB8B JUMP JUMPDEST PUSH2 0x397 SWAP1 DUP6 PUSH2 0xBBA JUMP JUMPDEST TIMESTAMP LT ISZERO DUP1 ISZERO PUSH2 0x4B2 JUMPI POP PUSH32 0x0 PUSH1 0x1 PUSH1 0x1 PUSH1 0xA0 SHL SUB AND PUSH4 0x4FF0876A PUSH1 0x40 MLOAD DUP2 PUSH4 0xFFFFFFFF AND PUSH1 0xE0 SHL DUP2 MSTORE PUSH1 0x4 ADD PUSH1 0x20 PUSH1 0x40 MLOAD DUP1 DUP4 SUB DUP2 DUP7 GAS STATICCALL ISZERO DUP1 ISZERO PUSH2 0x3FF JUMPI RETURNDATASIZE PUSH1 0x0 DUP1 RETURNDATACOPY RETURNDATASIZE PUSH1 0x0 REVERT JUMPDEST POP POP POP POP PUSH1 0x40 MLOAD RETURNDATASIZE PUSH1 0x1F NOT PUSH1 0x1F DUP3 ADD AND DUP3 ADD DUP1 PUSH1 0x40 MSTORE POP DUP2 ADD SWAP1 PUSH2 0x423 SWAP2 SWAP1 PUSH2 0xB8B JUMP JUMPDEST PUSH32 0x0 PUSH1 0x1 PUSH1 0x1 PUSH1 0xA0 SHL SUB AND PUSH4 0xCC678C9 PUSH1 0x40 MLOAD DUP2 PUSH4 0xFFFFFFFF AND PUSH1 0xE0 SHL DUP2 MSTORE PUSH1 0x4 ADD PUSH1 0x20 PUSH1 0x40 MLOAD DUP1 DUP4 SUB DUP2 DUP7 GAS STATICCALL ISZERO DUP1 ISZERO PUSH2 0x481 JUMPI RETURNDATASIZE PUSH1 0x0 DUP1 RETURNDATACOPY RETURNDATASIZE PUSH1 0x0 REVERT JUMPDEST POP POP POP POP PUSH1 0x40 MLOAD RETURNDATASIZE PUSH1 0x1F NOT PUSH1 0x1F DUP3 ADD AND DUP3 ADD DUP1 PUSH1 0x40 MSTORE POP DUP2 ADD SWAP1 PUSH2 0x4A5 SWAP2 SWAP1 PUSH2 0xB8B JUMP JUMPDEST PUSH2 0x4AF SWAP2 SWAP1 PUSH2 0xBBA JUMP JUMPDEST DUP5 LT JUMPDEST ISZERO PUSH2 0x710 JUMPI PUSH1 0x40 MLOAD PUSH4 0x31E0DFEB PUSH1 0xE2 SHL DUP2 MSTORE PUSH1 0x4 DUP2 ADD DUP6 SWAP1 MSTORE PUSH2 0x66C SWAP1 PUSH32 0x0 PUSH1 0x1 PUSH1 0x1 PUSH1 0xA0 SHL SUB AND SWAP1 PUSH4 0xC7837FAC SWAP1 PUSH1 0x24 ADD PUSH1 0x20 PUSH1 0x40 MLOAD DUP1 DUP4 SUB DUP2 DUP7 GAS STATICCALL ISZERO DUP1 ISZERO PUSH2 0x520 JUMPI RETURNDATASIZE PUSH1 0x0 DUP1 RETURNDATACOPY RETURNDATASIZE PUSH1 0x0 REVERT JUMPDEST POP POP POP POP PUSH1 0x40 MLOAD RETURNDATASIZE PUSH1 0x1F NOT PUSH1 0x1F DUP3 ADD AND DUP3 ADD DUP1 PUSH1 0x40 MSTORE POP DUP2 ADD SWAP1 PUSH2 0x544 SWAP2 SWAP1 PUSH2 0xB8B JUMP JUMPDEST PUSH2 0x666 PUSH32 0x0 PUSH1 0x1 PUSH1 0x1 PUSH1 0xA0 SHL SUB AND PUSH4 0x4FF0876A PUSH1 0x40 MLOAD DUP2 PUSH4 0xFFFFFFFF AND PUSH1 0xE0 SHL DUP2 MSTORE PUSH1 0x4 ADD PUSH1 0x20 PUSH1 0x40 MLOAD DUP1 DUP4 SUB DUP2 DUP7 GAS STATICCALL ISZERO DUP1 ISZERO PUSH2 0x5A5 JUMPI RETURNDATASIZE PUSH1 0x0 DUP1 RETURNDATACOPY RETURNDATASIZE PUSH1 0x0 REVERT JUMPDEST POP POP POP POP PUSH1 0x40 MLOAD RETURNDATASIZE PUSH1 0x1F NOT PUSH1 0x1F DUP3 ADD AND DUP3 ADD DUP1 PUSH1 0x40 MSTORE POP DUP2 ADD SWAP1 PUSH2 0x5C9 SWAP2 SWAP1 PUSH2 0xB8B JUMP JUMPDEST DUP7 PUSH32 0x0 PUSH1 0x1 PUSH1 0x1 PUSH1 0xA0 SHL SUB AND PUSH4 0x4FF0876A PUSH1 0x40 MLOAD DUP2 PUSH4 0xFFFFFFFF AND PUSH1 0xE0 SHL DUP2 MSTORE PUSH1 0x4 ADD PUSH1 0x20 PUSH1 0x40 MLOAD DUP1 DUP4 SUB DUP2 DUP7 GAS STATICCALL ISZERO DUP1 ISZERO PUSH2 0x628 JUMPI RETURNDATASIZE PUSH1 0x0 DUP1 RETURNDATACOPY RETURNDATASIZE PUSH1 0x0 REVERT JUMPDEST POP POP POP POP PUSH1 0x40 MLOAD RETURNDATASIZE PUSH1 0x1F NOT PUSH1 0x1F DUP3 ADD AND DUP3 ADD DUP1 PUSH1 0x40 MSTORE POP DUP2 ADD SWAP1 PUSH2 0x64C SWAP2 SWAP1 PUSH2 0xB8B JUMP JUMPDEST PUSH2 0x656 SWAP1 DUP11 PUSH2 0xBBA JUMP JUMPDEST PUSH2 0x660 SWAP2 SWAP1 PUSH2 0xBCD JUMP JUMPDEST SWAP1 PUSH2 0xAE9 JUMP JUMPDEST SWAP1 PUSH2 0xB15 JUMP JUMPDEST SWAP5 POP PUSH32 0x0 PUSH1 0x1 PUSH1 0x1 PUSH1 0xA0 SHL SUB AND PUSH4 0x4FF0876A PUSH1 0x40 MLOAD DUP2 PUSH4 0xFFFFFFFF AND PUSH1 0xE0 SHL DUP2 MSTORE PUSH1 0x4 ADD PUSH1 0x20 PUSH1 0x40 MLOAD DUP1 DUP4 SUB DUP2 DUP7 GAS STATICCALL ISZERO DUP1 ISZERO PUSH2 0x6CC JUMPI RETURNDATASIZE PUSH1 0x0 DUP1 RETURNDATACOPY RETURNDATASIZE PUSH1 0x0 REVERT JUMPDEST POP POP POP POP PUSH1 0x40 MLOAD RETURNDATASIZE PUSH1 0x1F NOT PUSH1 0x1F DUP3 ADD AND DUP3 ADD DUP1 PUSH1 0x40 MSTORE POP DUP2 ADD SWAP1 PUSH2 0x6F0 SWAP2 SWAP1 PUSH2 0xB8B JUMP JUMPDEST PUSH2 0x6FA SWAP1 DUP6 PUSH2 0xBBA JUMP JUMPDEST SWAP4 POP DUP4 SWAP3 POP PUSH2 0x709 DUP6 DUP8 PUSH2 0xBBA JUMP JUMPDEST SWAP6 POP PUSH2 0x30B JUMP JUMPDEST PUSH1 0x40 MLOAD PUSH4 0x31E0DFEB PUSH1 0xE2 SHL DUP2 MSTORE PUSH1 0x4 DUP2 ADD DUP6 SWAP1 MSTORE PUSH2 0x82C SWAP1 PUSH32 0x0 PUSH1 0x1 PUSH1 0x1 PUSH1 0xA0 SHL SUB AND SWAP1 PUSH4 0xC7837FAC SWAP1 PUSH1 0x24 ADD PUSH1 0x20 PUSH1 0x40 MLOAD DUP1 DUP4 SUB DUP2 DUP7 GAS STATICCALL ISZERO DUP1 ISZERO PUSH2 0x779 JUMPI RETURNDATASIZE PUSH1 0x0 DUP1 RETURNDATACOPY RETURNDATASIZE PUSH1 0x0 REVERT JUMPDEST POP POP POP POP PUSH1 0x40 MLOAD RETURNDATASIZE PUSH1 0x1F NOT PUSH1 0x1F DUP3 ADD AND DUP3 ADD DUP1 PUSH1 0x40 MSTORE POP DUP2 ADD SWAP1 PUSH2 0x79D SWAP2 SWAP1 PUSH2 0xB8B JUMP JUMPDEST PUSH2 0x666 PUSH32 0x0 PUSH1 0x1 PUSH1 0x1 PUSH1 0xA0 SHL SUB AND PUSH4 0x4FF0876A PUSH1 0x40 MLOAD DUP2 PUSH4 0xFFFFFFFF AND PUSH1 0xE0 SHL DUP2 MSTORE PUSH1 0x4 ADD PUSH1 0x20 PUSH1 0x40 MLOAD DUP1 DUP4 SUB DUP2 DUP7 GAS STATICCALL ISZERO DUP1 ISZERO PUSH2 0x7FE JUMPI RETURNDATASIZE PUSH1 0x0 DUP1 RETURNDATACOPY RETURNDATASIZE PUSH1 0x0 REVERT JUMPDEST POP POP POP POP PUSH1 0x40 MLOAD RETURNDATASIZE PUSH1 0x1F NOT PUSH1 0x1F DUP3 ADD AND DUP3 ADD DUP1 PUSH1 0x40 MSTORE POP DUP2 ADD SWAP1 PUSH2 0x822 SWAP2 SWAP1 PUSH2 0xB8B JUMP JUMPDEST PUSH2 0x660 DUP8 TIMESTAMP PUSH2 0xBCD JUMP JUMPDEST PUSH2 0x836 SWAP1 DUP8 PUSH2 0xBBA JUMP JUMPDEST SWAP6 POP TIMESTAMP SWAP3 POP PUSH1 0x0 PUSH32 0x0 PUSH1 0x1 PUSH1 0x1 PUSH1 0xA0 SHL SUB AND PUSH4 0x7DA93A98 PUSH1 0x40 MLOAD DUP2 PUSH4 0xFFFFFFFF AND PUSH1 0xE0 SHL DUP2 MSTORE PUSH1 0x4 ADD PUSH1 0x20 PUSH1 0x40 MLOAD DUP1 DUP4 SUB DUP2 DUP7 GAS STATICCALL ISZERO DUP1 ISZERO PUSH2 0x89B JUMPI RETURNDATASIZE PUSH1 0x0 DUP1 RETURNDATACOPY RETURNDATASIZE PUSH1 0x0 REVERT JUMPDEST POP POP POP POP PUSH1 0x40 MLOAD RETURNDATASIZE PUSH1 0x1F NOT PUSH1 0x1F DUP3 ADD AND DUP3 ADD DUP1 PUSH1 0x40 MSTORE POP DUP2 ADD SWAP1 PUSH2 0x8BF SWAP2 SWAP1 PUSH2 0xBE0 JUMP JUMPDEST PUSH1 0x1 PUSH1 0x1 PUSH1 0xA0 SHL SUB AND PUSH4 0x631516C2 PUSH1 0x40 MLOAD DUP2 PUSH4 0xFFFFFFFF AND PUSH1 0xE0 SHL DUP2 MSTORE PUSH1 0x4 ADD PUSH1 0x20 PUSH1 0x40 MLOAD DUP1 DUP4 SUB DUP2 DUP7 GAS STATICCALL ISZERO DUP1 ISZERO PUSH2 0x8FC JUMPI RETURNDATASIZE PUSH1 0x0 DUP1 RETURNDATACOPY RETURNDATASIZE PUSH1 0x0 REVERT JUMPDEST POP POP POP POP PUSH1 0x40 MLOAD RETURNDATASIZE PUSH1 0x1F NOT PUSH1 0x1F DUP3 ADD AND DUP3 ADD DUP1 PUSH1 0x40 MSTORE POP DUP2 ADD SWAP1 PUSH2 0x920 SWAP2 SWAP1 PUSH2 0xB8B JUMP JUMPDEST SWAP1 POP DUP1 ISZERO PUSH2 0x93F JUMPI PUSH2 0x932 DUP8 DUP3 PUSH2 0xAE9 JUMP JUMPDEST PUSH2 0x93C SWAP1 DUP5 PUSH2 0xBBA JUMP JUMPDEST SWAP3 POP JUMPDEST PUSH1 0x0 PUSH32 0x0 PUSH1 0x1 PUSH1 0x1 PUSH1 0xA0 SHL SUB AND PUSH4 0x7DA93A98 PUSH1 0x40 MLOAD DUP2 PUSH4 0xFFFFFFFF AND PUSH1 0xE0 SHL DUP2 MSTORE PUSH1 0x4 ADD PUSH1 0x20 PUSH1 0x40 MLOAD DUP1 DUP4 SUB DUP2 DUP7 GAS STATICCALL ISZERO DUP1 ISZERO PUSH2 0x99F JUMPI RETURNDATASIZE PUSH1 0x0 DUP1 RETURNDATACOPY RETURNDATASIZE PUSH1 0x0 REVERT JUMPDEST POP POP POP POP PUSH1 0x40 MLOAD RETURNDATASIZE PUSH1 0x1F NOT PUSH1 0x1F DUP3 ADD AND DUP3 ADD DUP1 PUSH1 0x40 MSTORE POP DUP2 ADD SWAP1 PUSH2 0x9C3 SWAP2 SWAP1 PUSH2 0xBE0 JUMP JUMPDEST PUSH1 0x40 MLOAD PUSH4 0x28A81039 PUSH1 0xE0 SHL DUP2 MSTORE PUSH1 0x1 PUSH1 0x1 PUSH1 0xA0 SHL SUB DUP13 DUP2 AND PUSH1 0x4 DUP4 ADD MSTORE SWAP2 SWAP1 SWAP2 AND SWAP1 PUSH4 0x28A81039 SWAP1 PUSH1 0x24 ADD PUSH1 0x20 PUSH1 0x40 MLOAD DUP1 DUP4 SUB DUP2 DUP7 GAS STATICCALL ISZERO DUP1 ISZERO PUSH2 0xA0B JUMPI RETURNDATASIZE PUSH1 0x0 DUP1 RETURNDATACOPY RETURNDATASIZE PUSH1 0x0 REVERT JUMPDEST POP POP POP POP PUSH1 0x40 MLOAD RETURNDATASIZE PUSH1 0x1F NOT PUSH1 0x1F DUP3 ADD AND DUP3 ADD DUP1 PUSH1 0x40 MSTORE POP DUP2 ADD SWAP1 PUSH2 0xA2F SWAP2 SWAP1 PUSH2 0xB8B JUMP JUMPDEST PUSH1 0x40 MLOAD PUSH4 0x3CAF8A71 PUSH1 0xE2 SHL DUP2 MSTORE PUSH1 0x1 PUSH1 0x1 PUSH1 0xA0 SHL SUB DUP13 DUP2 AND PUSH1 0x4 DUP4 ADD MSTORE SWAP2 SWAP3 POP PUSH2 0xAD1 SWAP2 PUSH32 0x0 AND SWAP1 PUSH4 0xF2BE29C4 SWAP1 PUSH1 0x24 ADD PUSH1 0x20 PUSH1 0x40 MLOAD DUP1 DUP4 SUB DUP2 DUP7 GAS STATICCALL ISZERO DUP1 ISZERO PUSH2 0xA9C JUMPI RETURNDATASIZE PUSH1 0x0 DUP1 RETURNDATACOPY RETURNDATASIZE PUSH1 0x0 REVERT JUMPDEST POP POP POP POP PUSH1 0x40 MLOAD RETURNDATASIZE PUSH1 0x1F NOT PUSH1 0x1F DUP3 ADD AND DUP3 ADD DUP1 PUSH1 0x40 MSTORE POP DUP2 ADD SWAP1 PUSH2 0xAC0 SWAP2 SWAP1 PUSH2 0xB8B JUMP JUMPDEST PUSH2 0xACA SWAP1 DUP7 PUSH2 0xBCD JUMP JUMPDEST DUP3 SWAP1 PUSH2 0xB15 JUMP JUMPDEST PUSH2 0xADB SWAP1 DUP5 PUSH2 0xBBA JUMP JUMPDEST SWAP11 SWAP10 POP POP POP POP POP POP POP POP POP POP JUMP JUMPDEST PUSH1 0x0 DUP2 PUSH2 0xAF8 PUSH1 0x12 PUSH1 0xA PUSH2 0xCE1 JUMP JUMPDEST PUSH2 0xB02 SWAP1 DUP6 PUSH2 0xCED JUMP JUMPDEST PUSH2 0xB0C SWAP2 SWAP1 PUSH2 0xD04 JUMP JUMPDEST SWAP1 POP JUMPDEST SWAP3 SWAP2 POP POP JUMP JUMPDEST PUSH1 0x0 PUSH2 0xB23 PUSH1 0x12 PUSH1 0xA PUSH2 0xCE1 JUMP JUMPDEST PUSH2 0xB02 DUP4 DUP6 PUSH2 0xCED JUMP JUMPDEST PUSH1 0x1 PUSH1 0x1 PUSH1 0xA0 SHL SUB DUP2 AND DUP2 EQ PUSH2 0xB42 JUMPI PUSH1 0x0 DUP1 REVERT JUMPDEST POP JUMP JUMPDEST PUSH1 0x0 PUSH1 0x20 DUP3 DUP5 SUB SLT ISZERO PUSH2 0xB57 JUMPI PUSH1 0x0 DUP1 REVERT JUMPDEST DUP2 CALLDATALOAD PUSH2 0xB62 DUP2 PUSH2 0xB2D JUMP JUMPDEST SWAP4 SWAP3 POP POP POP JUMP JUMPDEST PUSH1 0x0 PUSH1 0x20 DUP3 DUP5 SUB SLT ISZERO PUSH2 0xB7B JUMPI PUSH1 0x0 DUP1 REVERT JUMPDEST DUP2 MLOAD DUP1 ISZERO ISZERO DUP2 EQ PUSH2 0xB62 JUMPI PUSH1 0x0 DUP1 REVERT JUMPDEST PUSH1 0x0 PUSH1 0x20 DUP3 DUP5 SUB SLT ISZERO PUSH2 0xB9D JUMPI PUSH1 0x0 DUP1 REVERT JUMPDEST POP MLOAD SWAP2 SWAP1 POP JUMP JUMPDEST PUSH4 0x4E487B71 PUSH1 0xE0 SHL PUSH1 0x0 MSTORE PUSH1 0x11 PUSH1 0x4 MSTORE PUSH1 0x24 PUSH1 0x0 REVERT JUMPDEST DUP1 DUP3 ADD DUP1 DUP3 GT ISZERO PUSH2 0xB0F JUMPI PUSH2 0xB0F PUSH2 0xBA4 JUMP JUMPDEST DUP2 DUP2 SUB DUP2 DUP2 GT ISZERO PUSH2 0xB0F JUMPI PUSH2 0xB0F PUSH2 0xBA4 JUMP JUMPDEST PUSH1 0x0 PUSH1 0x20 DUP3 DUP5 SUB SLT ISZERO PUSH2 0xBF2 JUMPI PUSH1 0x0 DUP1 REVERT JUMPDEST DUP2 MLOAD PUSH2 0xB62 DUP2 PUSH2 0xB2D JUMP JUMPDEST PUSH1 0x1 DUP2 DUP2 JUMPDEST DUP1 DUP6 GT ISZERO PUSH2 0xC38 JUMPI DUP2 PUSH1 0x0 NOT DIV DUP3 GT ISZERO PUSH2 0xC1E JUMPI PUSH2 0xC1E PUSH2 0xBA4 JUMP JUMPDEST DUP1 DUP6 AND ISZERO PUSH2 0xC2B JUMPI SWAP2 DUP2 MUL SWAP2 JUMPDEST SWAP4 DUP5 SHR SWAP4 SWAP1 DUP1 MUL SWAP1 PUSH2 0xC02 JUMP JUMPDEST POP SWAP3 POP SWAP3 SWAP1 POP JUMP JUMPDEST PUSH1 0x0 DUP3 PUSH2 0xC4F JUMPI POP PUSH1 0x1 PUSH2 0xB0F JUMP JUMPDEST DUP2 PUSH2 0xC5C JUMPI POP PUSH1 0x0 PUSH2 0xB0F JUMP JUMPDEST DUP2 PUSH1 0x1 DUP2 EQ PUSH2 0xC72 JUMPI PUSH1 0x2 DUP2 EQ PUSH2 0xC7C JUMPI PUSH2 0xC98 JUMP JUMPDEST PUSH1 0x1 SWAP2 POP POP PUSH2 0xB0F JUMP JUMPDEST PUSH1 0xFF DUP5 GT ISZERO PUSH2 0xC8D JUMPI PUSH2 0xC8D PUSH2 0xBA4 JUMP JUMPDEST POP POP PUSH1 0x1 DUP3 SHL PUSH2 0xB0F JUMP JUMPDEST POP PUSH1 0x20 DUP4 LT PUSH2 0x133 DUP4 LT AND PUSH1 0x4E DUP5 LT PUSH1 0xB DUP5 LT AND OR ISZERO PUSH2 0xCBB JUMPI POP DUP2 DUP2 EXP PUSH2 0xB0F JUMP JUMPDEST PUSH2 0xCC5 DUP4 DUP4 PUSH2 0xBFD JUMP JUMPDEST DUP1 PUSH1 0x0 NOT DIV DUP3 GT ISZERO PUSH2 0xCD9 JUMPI PUSH2 0xCD9 PUSH2 0xBA4 JUMP JUMPDEST MUL SWAP4 SWAP3 POP POP POP JUMP JUMPDEST PUSH1 0x0 PUSH2 0xB0C DUP4 DUP4 PUSH2 0xC40 JUMP JUMPDEST DUP1 DUP3 MUL DUP2 ISZERO DUP3 DUP3 DIV DUP5 EQ OR PUSH2 0xB0F JUMPI PUSH2 0xB0F PUSH2 0xBA4 JUMP JUMPDEST PUSH1 0x0 DUP3 PUSH2 0xD21 JUMPI PUSH4 0x4E487B71 PUSH1 0xE0 SHL PUSH1 0x0 MSTORE PUSH1 0x12 PUSH1 0x4 MSTORE PUSH1 0x24 PUSH1 0x0 REVERT JUMPDEST POP DIV SWAP1 JUMP INVALID LOG2 PUSH5 0x6970667358 0x22 SLT KECCAK256 PUSH13 0x7C33AABAB805BE1FB5CF3CE56E 0xBA AND MLOAD 0xA9 CHAINID PUSH10 0xA3E6BFB980CF171917F0 SWAP1 SAR PUSH5 0x736F6C6343 STOP ADDMOD GT STOP CALLER ","sha1":"ef97ae576951e0d21999d2b8d081945d34947af0","source":"// SPDX-License-Identifier: GPL-3.0-or-later\npragma solidity 0.8.17;\n\nimport \"../tokenomics/Bonding.sol\";\n\nimport \"../../libraries/ScaledMath.sol\";\n\ninterface IBondingHelper {\n    function claimableCrvUsd(address account) external returns (uint256);\n}\n\ncontract BondingHelper is IBondingHelper {\n    using ScaledMath for uint256;\n\n    Bonding internal immutable bonding;\n\n    constructor(address bondingAddress_) {\n        bonding = Bonding(bondingAddress_);\n    }\n\n    function claimableCrvUsd(address account) external view override returns (uint256) {\n        if (!bonding.bondingStarted()) return 0;\n        uint256 streamed_;\n        uint256 streamedInEpoch;\n        uint256 lastStreamEpochStartTime_ = bonding.lastStreamEpochStartTime();\n        uint256 lastStreamUpdate_ = bonding.lastStreamUpdate();\n        uint256 streamIntegral_ = bonding.streamIntegral();\n        uint256 amount_ = bonding.perAccountStreamAccrued(account);\n        while (\n            (block.timestamp >= lastStreamEpochStartTime_ + bonding.epochDuration()) &&\n            (lastStreamEpochStartTime_ < bonding.bondingEndTime() + bonding.epochDuration())\n        ) {\n            streamedInEpoch = (lastStreamEpochStartTime_ +\n                bonding.epochDuration() -\n                lastStreamUpdate_).divDown(bonding.epochDuration()).mulDown(\n                    bonding.assetsInEpoch(lastStreamEpochStartTime_)\n                );\n            lastStreamEpochStartTime_ += bonding.epochDuration();\n            lastStreamUpdate_ = lastStreamEpochStartTime_;\n            streamed_ += streamedInEpoch;\n        }\n        streamed_ += (block.timestamp - lastStreamUpdate_).divDown(bonding.epochDuration()).mulDown(\n            bonding.assetsInEpoch(lastStreamEpochStartTime_)\n        );\n        lastStreamUpdate_ = block.timestamp;\n        uint256 totalBoosted = bonding.cncLocker().totalBoosted();\n        if (totalBoosted > 0) {\n            streamIntegral_ += streamed_.divDown(totalBoosted);\n        }\n        uint256 accountBoostedBalance = bonding.cncLocker().totalStreamBoost(account);\n        amount_ += accountBoostedBalance.mulDown(\n            streamIntegral_ - bonding.perAccountStreamIntegral(account)\n        );\n        return amount_;\n    }\n}\n","sourcePath":"contracts/helpers/BondingHelper.sol","type":"contract","deployment":{"address":"0x447528A9f8423A68819B2DA43E157205E26A6C07","chainid":"1","blockHeight":19112626}}