{"abi":[{"inputs":[{"internalType":"address","name":"rewardToken_","type":"address"},{"internalType":"uint256","name":"starttime_","type":"uint256"},{"internalType":"uint256","name":"endtime_","type":"uint256"},{"internalType":"address","name":"fundAdmin_","type":"address"}],"stateMutability":"nonpayable","type":"constructor","name":"constructor"},{"anonymous":false,"inputs":[{"indexed":true,"internalType":"address","name":"user","type":"address"},{"indexed":false,"internalType":"uint256","name":"amount","type":"uint256"}],"name":"Claim","type":"event"},{"anonymous":false,"inputs":[{"indexed":true,"internalType":"address","name":"recipient","type":"address"},{"indexed":false,"internalType":"uint256","name":"reward","type":"uint256"}],"name":"Fund","type":"event"},{"anonymous":false,"inputs":[{"indexed":true,"internalType":"address","name":"previousOwner","type":"address"},{"indexed":true,"internalType":"address","name":"newOwner","type":"address"}],"name":"OwnershipTransferred","type":"event"},{"anonymous":false,"inputs":[{"indexed":false,"internalType":"uint256","name":"amount","type":"uint256"}],"name":"SupplyInitialized","type":"event"},{"inputs":[{"internalType":"address","name":"_recipient","type":"address"}],"name":"balanceOf","outputs":[{"internalType":"uint256","name":"","type":"uint256"}],"stateMutability":"view","type":"function"},{"inputs":[],"name":"claim","outputs":[],"stateMutability":"nonpayable","type":"function"},{"inputs":[],"name":"endTime","outputs":[{"internalType":"uint256","name":"","type":"uint256"}],"stateMutability":"view","type":"function"},{"inputs":[],"name":"fundAdmin","outputs":[{"internalType":"address","name":"","type":"address"}],"stateMutability":"view","type":"function"},{"inputs":[{"internalType":"address","name":"","type":"address"}],"name":"initialLocked","outputs":[{"internalType":"uint256","name":"","type":"uint256"}],"stateMutability":"view","type":"function"},{"inputs":[],"name":"initialLockedSupply","outputs":[{"internalType":"uint256","name":"","type":"uint256"}],"stateMutability":"view","type":"function"},{"inputs":[{"internalType":"address","name":"_recipient","type":"address"}],"name":"lockedOf","outputs":[{"internalType":"uint256","name":"","type":"uint256"}],"stateMutability":"view","type":"function"},{"inputs":[],"name":"lockedSupply","outputs":[{"internalType":"uint256","name":"","type":"uint256"}],"stateMutability":"view","type":"function"},{"inputs":[],"name":"owner","outputs":[{"internalType":"address","name":"","type":"address"}],"stateMutability":"view","type":"function"},{"inputs":[],"name":"renounceOwnership","outputs":[],"stateMutability":"nonpayable","type":"function"},{"inputs":[],"name":"rewardToken","outputs":[{"internalType":"contract IERC20","name":"","type":"address"}],"stateMutability":"view","type":"function"},{"inputs":[],"name":"setUnallocatedSupply","outputs":[],"stateMutability":"nonpayable","type":"function"},{"inputs":[{"internalType":"address[]","name":"_recipient","type":"address[]"},{"internalType":"uint256[]","name":"_amount","type":"uint256[]"}],"name":"setupVesting","outputs":[{"internalType":"bool","name":"","type":"bool"}],"stateMutability":"nonpayable","type":"function"},{"inputs":[],"name":"startTime","outputs":[{"internalType":"uint256","name":"","type":"uint256"}],"stateMutability":"view","type":"function"},{"inputs":[{"internalType":"address","name":"","type":"address"}],"name":"totalClaimed","outputs":[{"internalType":"uint256","name":"","type":"uint256"}],"stateMutability":"view","type":"function"},{"inputs":[],"name":"totalTime","outputs":[{"internalType":"uint256","name":"","type":"uint256"}],"stateMutability":"view","type":"function"},{"inputs":[{"internalType":"address","name":"newOwner","type":"address"}],"name":"transferOwnership","outputs":[],"stateMutability":"nonpayable","type":"function"},{"inputs":[],"name":"unallocatedSupply","outputs":[{"internalType":"uint256","name":"","type":"uint256"}],"stateMutability":"view","type":"function"},{"inputs":[{"internalType":"address","name":"_recipient","type":"address"}],"name":"vestedOf","outputs":[{"internalType":"uint256","name":"","type":"uint256"}],"stateMutability":"view","type":"function"},{"inputs":[],"name":"vestedSupply","outputs":[{"internalType":"uint256","name":"","type":"uint256"}],"stateMutability":"view","type":"function"}],"bytecode":"60806040523480156200001157600080fd5b5060405162001168380380620011688339810160408190526200003491620001b8565b6001600055620000443362000149565b428310156200009a5760405162461bcd60e51b815260206004820152601460248201527f7374617274206d7573742062652066757475726500000000000000000000000060448201526064015b60405180910390fd5b828211620000eb5760405162461bcd60e51b815260206004820152601360248201527f656e64206d757374206265206772656174657200000000000000000000000000604482015260640162000091565b600280546001600160a01b0319166001600160a01b038616179055600483905560058290556200011c838362000203565b600655600380546001600160a01b0319166001600160a01b03929092169190911790555062000229915050565b600180546001600160a01b038381166001600160a01b0319831681179093556040519116919082907f8be0079c531659141344cd1fd0a4f28419497f9722a3daafe3b4186f6b6457e090600090a35050565b80516001600160a01b0381168114620001b357600080fd5b919050565b60008060008060808587031215620001cf57600080fd5b620001da856200019b565b93506020850151925060408501519150620001f8606086016200019b565b905092959194509250565b6000828210156200022457634e487b7160e01b600052601160045260246000fd5b500390565b610f2f80620002396000396000f3fe608060405234801561001057600080fd5b506004361061012c5760003560e01c806394477104116100ad578063ca5c7b9111610071578063ca5c7b911461023f578063d9844dc014610247578063ef5d9ae81461024f578063f2fde38b1461026f578063f7c618c11461028257600080fd5b806394477104146101f55780639c45658314610208578063a289a7de1461021b578063a5f1e28214610223578063aa04ae781461023657600080fd5b806370a08231116100f457806370a08231146101a3578063715018a6146101b657806378e97925146101be5780637d086b29146101c75780638da5cb5b146101d057600080fd5b8063099d695f146101315780633197cbb6146101645780633b2d578e1461016d5780634e71d92d1461019057806358533e0a1461019a575b600080fd5b61015161013f366004610c74565b600a6020526000908152604090205481565b6040519081526020015b60405180910390f35b61015160055481565b61018061017b366004610ce9565b610295565b604051901515815260200161015b565b61019861049a565b005b61015160065481565b6101516101b1366004610c74565b6105a3565b6101986105dd565b61015160045481565b61015160075481565b6001546001600160a01b03165b6040516001600160a01b03909116815260200161015b565b610151610203366004610c74565b610613565b6003546101dd906001600160a01b031681565b610198610625565b610151610231366004610c74565b610816565b61015160085481565b61015161084a565b610151610866565b61015161025d366004610c74565b600b6020526000908152604090205481565b61019861027d366004610c74565b610870565b6002546101dd906001600160a01b031681565b60006002600054036102ee5760405162461bcd60e51b815260206004820152601f60248201527f5265656e7472616e637947756172643a207265656e7472616e742063616c6c0060448201526064015b60405180910390fd5b60026000556003546001600160a01b0316331461030a57600080fd5b6000805b8581101561045757600085858381811061032a5761032a610d55565b90506020020135905080600a60008a8a8681811061034a5761034a610d55565b905060200201602081019061035f9190610c74565b6001600160a01b03166001600160a01b031681526020019081526020016000205461038a9190610d81565b600a60008a8a868181106103a0576103a0610d55565b90506020020160208101906103b59190610c74565b6001600160a01b031681526020810191909152604001600020556103d98184610d81565b92508787838181106103ed576103ed610d55565b90506020020160208101906104029190610c74565b6001600160a01b03167fda8220a878ff7a89474ccffdaa31ea1ed1ffbb0207d5051afccc4fbaf81f9bcd8260405161043c91815260200190565b60405180910390a2508061044f81610d99565b91505061030e565b50806007600082825461046a9190610d81565b9250508190555080600860008282546104839190610db2565b909155506001925050506001600055949350505050565b6002600054036104ec5760405162461bcd60e51b815260206004820152601f60248201527f5265656e7472616e637947756172643a207265656e7472616e742063616c6c0060448201526064016102e5565b600260009081556104fd334261090b565b336000908152600b60205260408120549192509061051b9083610db2565b336000908152600b6020526040902054909150610539908290610d81565b336000818152600b6020526040902091909155600254610565916001600160a01b039091169083610983565b60405181815233907f47cee97cb7acd717b3c0aa1435d004cd5b3c8c57d70dbceb4e4458bbd60e39d49060200160405180910390a250506001600055565b6000806105b0834261090b565b6001600160a01b0384166000908152600b60205260409020549091506105d69082610db2565b9392505050565b6001546001600160a01b031633146106075760405162461bcd60e51b81526004016102e590610dc9565b61061160006109da565b565b600061061f824261090b565b92915050565b6001546001600160a01b0316331461064f5760405162461bcd60e51b81526004016102e590610dc9565b60095460ff16156106a25760405162461bcd60e51b815260206004820152601e60248201527f556e616c6c6f636174656420737570706c7920616c726561647920736574000060448201526064016102e5565b6002546040516370a0823160e01b81523060048201526000916001600160a01b0316906370a0823190602401602060405180830381865afa1580156106eb573d6000803e3d6000fd5b505050506040513d601f19601f8201168201806040525081019061070f9190610dfe565b1161075c5760405162461bcd60e51b815260206004820181905260248201527f636f6e747261637420646f6573206e6f74206f776e20616e7920746f6b656e7360448201526064016102e5565b6002546040516370a0823160e01b81523060048201526001600160a01b03909116906370a0823190602401602060405180830381865afa1580156107a4573d6000803e3d6000fd5b505050506040513d601f19601f820116820180604052508101906107c89190610dfe565b60088190556009805460ff191660011790556040517fbfb9fb88b2e32860621efc374bb8c2fdbe4bc8455e7378d3a6abf6f01494b35e9161080c9190815260200190565b60405180910390a1565b600080610823834261090b565b6001600160a01b0384166000908152600a60205260409020549091506105d6908290610db2565b6000610854610a2c565b6007546108619190610db2565b905090565b6000610861610a2c565b6001546001600160a01b0316331461089a5760405162461bcd60e51b81526004016102e590610dc9565b6001600160a01b0381166108ff5760405162461bcd60e51b815260206004820152602660248201527f4f776e61626c653a206e6577206f776e657220697320746865207a65726f206160448201526564647265737360d01b60648201526084016102e5565b610908816109da565b50565b600060045482101561091f5750600061061f565b6001600160a01b0383166000908152600a60205260408120546004549091906109489085610db2565b90506000600654828461095b9190610e17565b6109659190610e36565b90508281111561097a5782935050505061061f565b95945050505050565b604080516001600160a01b038416602482015260448082018490528251808303909101815260649091019091526020810180516001600160e01b031663a9059cbb60e01b1790526109d5908490610a8e565b505050565b600180546001600160a01b038381166001600160a01b0319831681179093556040519116919082907f8be0079c531659141344cd1fd0a4f28419497f9722a3daafe3b4186f6b6457e090600090a35050565b6004546000904290811015610a4357600091505090565b600754600454600090610a569084610db2565b905060006006548284610a699190610e17565b610a739190610e36565b905082811115610a865750909392505050565b949350505050565b6000610ae3826040518060400160405280602081526020017f5361666545524332303a206c6f772d6c6576656c2063616c6c206661696c6564815250856001600160a01b0316610b609092919063ffffffff16565b8051909150156109d55780806020019051810190610b019190610e58565b6109d55760405162461bcd60e51b815260206004820152602a60248201527f5361666545524332303a204552433230206f7065726174696f6e20646964206e6044820152691bdd081cdd58d8d9595960b21b60648201526084016102e5565b6060610a868484600085856001600160a01b0385163b610bc25760405162461bcd60e51b815260206004820152601d60248201527f416464726573733a2063616c6c20746f206e6f6e2d636f6e747261637400000060448201526064016102e5565b600080866001600160a01b03168587604051610bde9190610eaa565b60006040518083038185875af1925050503d8060008114610c1b576040519150601f19603f3d011682016040523d82523d6000602084013e610c20565b606091505b5091509150610c30828286610c3b565b979650505050505050565b60608315610c4a5750816105d6565b825115610c5a5782518084602001fd5b8160405162461bcd60e51b81526004016102e59190610ec6565b600060208284031215610c8657600080fd5b81356001600160a01b03811681146105d657600080fd5b60008083601f840112610caf57600080fd5b50813567ffffffffffffffff811115610cc757600080fd5b6020830191508360208260051b8501011115610ce257600080fd5b9250929050565b60008060008060408587031215610cff57600080fd5b843567ffffffffffffffff80821115610d1757600080fd5b610d2388838901610c9d565b90965094506020870135915080821115610d3c57600080fd5b50610d4987828801610c9d565b95989497509550505050565b634e487b7160e01b600052603260045260246000fd5b634e487b7160e01b600052601160045260246000fd5b60008219821115610d9457610d94610d6b565b500190565b600060018201610dab57610dab610d6b565b5060010190565b600082821015610dc457610dc4610d6b565b500390565b6020808252818101527f4f776e61626c653a2063616c6c6572206973206e6f7420746865206f776e6572604082015260600190565b600060208284031215610e1057600080fd5b5051919050565b6000816000190483118215151615610e3157610e31610d6b565b500290565b600082610e5357634e487b7160e01b600052601260045260246000fd5b500490565b600060208284031215610e6a57600080fd5b815180151581146105d657600080fd5b60005b83811015610e95578181015183820152602001610e7d565b83811115610ea4576000848401525b50505050565b60008251610ebc818460208701610e7a565b9190910192915050565b6020815260008251806020840152610ee5816040850160208701610e7a565b601f01601f1916919091016040019291505056fea264697066735822122018c6ff141a4c9f203e0ba08c1c28d97b69f0c5ef667851562efa536fdd58d02464736f6c634300080d0033","bytecodeSha1":"698cf46079ec51b8cf423aaad5a9e4874ed49a64","compiler":{"evm_version":"istanbul","optimizer":{"enabled":true,"runs":200},"version":"0.8.13+commit.abaa5c0e"},"contractName":"VestingEscrow","language":"Solidity","natspec":{"kind":"dev","methods":{"owner()":{"details":"Returns the address of the current owner."},"renounceOwnership()":{"details":"Leaves the contract without owner. It will not be possible to call `onlyOwner` functions anymore. Can only be called by the current owner. NOTE: Renouncing ownership will leave the contract without an owner, thereby removing any functionality that is only available to the owner."},"transferOwnership(address)":{"details":"Transfers ownership of the contract to a new account (`newOwner`). Can only be called by the current owner."}},"version":1},"opcodes":"PUSH1 0x80 PUSH1 0x40 MSTORE CALLVALUE DUP1 ISZERO PUSH2 0x10 JUMPI PUSH1 0x0 DUP1 REVERT JUMPDEST POP PUSH1 0x4 CALLDATASIZE LT PUSH2 0x12C JUMPI PUSH1 0x0 CALLDATALOAD PUSH1 0xE0 SHR DUP1 PUSH4 0x94477104 GT PUSH2 0xAD JUMPI DUP1 PUSH4 0xCA5C7B91 GT PUSH2 0x71 JUMPI DUP1 PUSH4 0xCA5C7B91 EQ PUSH2 0x23F JUMPI DUP1 PUSH4 0xD9844DC0 EQ PUSH2 0x247 JUMPI DUP1 PUSH4 0xEF5D9AE8 EQ PUSH2 0x24F JUMPI DUP1 PUSH4 0xF2FDE38B EQ PUSH2 0x26F JUMPI DUP1 PUSH4 0xF7C618C1 EQ PUSH2 0x282 JUMPI PUSH1 0x0 DUP1 REVERT JUMPDEST DUP1 PUSH4 0x94477104 EQ PUSH2 0x1F5 JUMPI DUP1 PUSH4 0x9C456583 EQ PUSH2 0x208 JUMPI DUP1 PUSH4 0xA289A7DE EQ PUSH2 0x21B JUMPI DUP1 PUSH4 0xA5F1E282 EQ PUSH2 0x223 JUMPI DUP1 PUSH4 0xAA04AE78 EQ PUSH2 0x236 JUMPI PUSH1 0x0 DUP1 REVERT JUMPDEST DUP1 PUSH4 0x70A08231 GT PUSH2 0xF4 JUMPI DUP1 PUSH4 0x70A08231 EQ PUSH2 0x1A3 JUMPI DUP1 PUSH4 0x715018A6 EQ PUSH2 0x1B6 JUMPI DUP1 PUSH4 0x78E97925 EQ PUSH2 0x1BE JUMPI DUP1 PUSH4 0x7D086B29 EQ PUSH2 0x1C7 JUMPI DUP1 PUSH4 0x8DA5CB5B EQ PUSH2 0x1D0 JUMPI PUSH1 0x0 DUP1 REVERT JUMPDEST DUP1 PUSH4 0x99D695F EQ PUSH2 0x131 JUMPI DUP1 PUSH4 0x3197CBB6 EQ PUSH2 0x164 JUMPI DUP1 PUSH4 0x3B2D578E EQ PUSH2 0x16D JUMPI DUP1 PUSH4 0x4E71D92D EQ PUSH2 0x190 JUMPI DUP1 PUSH4 0x58533E0A EQ PUSH2 0x19A JUMPI JUMPDEST PUSH1 0x0 DUP1 REVERT JUMPDEST PUSH2 0x151 PUSH2 0x13F CALLDATASIZE PUSH1 0x4 PUSH2 0xC74 JUMP JUMPDEST PUSH1 0xA PUSH1 0x20 MSTORE PUSH1 0x0 SWAP1 DUP2 MSTORE PUSH1 0x40 SWAP1 KECCAK256 SLOAD DUP2 JUMP JUMPDEST PUSH1 0x40 MLOAD SWAP1 DUP2 MSTORE PUSH1 0x20 ADD JUMPDEST PUSH1 0x40 MLOAD DUP1 SWAP2 SUB SWAP1 RETURN JUMPDEST PUSH2 0x151 PUSH1 0x5 SLOAD DUP2 JUMP JUMPDEST PUSH2 0x180 PUSH2 0x17B CALLDATASIZE PUSH1 0x4 PUSH2 0xCE9 JUMP JUMPDEST PUSH2 0x295 JUMP JUMPDEST PUSH1 0x40 MLOAD SWAP1 ISZERO ISZERO DUP2 MSTORE PUSH1 0x20 ADD PUSH2 0x15B JUMP JUMPDEST PUSH2 0x198 PUSH2 0x49A JUMP JUMPDEST STOP JUMPDEST PUSH2 0x151 PUSH1 0x6 SLOAD DUP2 JUMP JUMPDEST PUSH2 0x151 PUSH2 0x1B1 CALLDATASIZE PUSH1 0x4 PUSH2 0xC74 JUMP JUMPDEST PUSH2 0x5A3 JUMP JUMPDEST PUSH2 0x198 PUSH2 0x5DD JUMP JUMPDEST PUSH2 0x151 PUSH1 0x4 SLOAD DUP2 JUMP JUMPDEST PUSH2 0x151 PUSH1 0x7 SLOAD DUP2 JUMP JUMPDEST PUSH1 0x1 SLOAD PUSH1 0x1 PUSH1 0x1 PUSH1 0xA0 SHL SUB AND JUMPDEST PUSH1 0x40 MLOAD PUSH1 0x1 PUSH1 0x1 PUSH1 0xA0 SHL SUB SWAP1 SWAP2 AND DUP2 MSTORE PUSH1 0x20 ADD PUSH2 0x15B JUMP JUMPDEST PUSH2 0x151 PUSH2 0x203 CALLDATASIZE PUSH1 0x4 PUSH2 0xC74 JUMP JUMPDEST PUSH2 0x613 JUMP JUMPDEST PUSH1 0x3 SLOAD PUSH2 0x1DD SWAP1 PUSH1 0x1 PUSH1 0x1 PUSH1 0xA0 SHL SUB AND DUP2 JUMP JUMPDEST PUSH2 0x198 PUSH2 0x625 JUMP JUMPDEST PUSH2 0x151 PUSH2 0x231 CALLDATASIZE PUSH1 0x4 PUSH2 0xC74 JUMP JUMPDEST PUSH2 0x816 JUMP JUMPDEST PUSH2 0x151 PUSH1 0x8 SLOAD DUP2 JUMP JUMPDEST PUSH2 0x151 PUSH2 0x84A JUMP JUMPDEST PUSH2 0x151 PUSH2 0x866 JUMP JUMPDEST PUSH2 0x151 PUSH2 0x25D CALLDATASIZE PUSH1 0x4 PUSH2 0xC74 JUMP JUMPDEST PUSH1 0xB PUSH1 0x20 MSTORE PUSH1 0x0 SWAP1 DUP2 MSTORE PUSH1 0x40 SWAP1 KECCAK256 SLOAD DUP2 JUMP JUMPDEST PUSH2 0x198 PUSH2 0x27D CALLDATASIZE PUSH1 0x4 PUSH2 0xC74 JUMP JUMPDEST PUSH2 0x870 JUMP JUMPDEST PUSH1 0x2 SLOAD PUSH2 0x1DD SWAP1 PUSH1 0x1 PUSH1 0x1 PUSH1 0xA0 SHL SUB AND DUP2 JUMP JUMPDEST PUSH1 0x0 PUSH1 0x2 PUSH1 0x0 SLOAD SUB PUSH2 0x2EE JUMPI PUSH1 0x40 MLOAD PUSH3 0x461BCD PUSH1 0xE5 SHL DUP2 MSTORE PUSH1 0x20 PUSH1 0x4 DUP3 ADD MSTORE PUSH1 0x1F PUSH1 0x24 DUP3 ADD MSTORE PUSH32 0x5265656E7472616E637947756172643A207265656E7472616E742063616C6C00 PUSH1 0x44 DUP3 ADD MSTORE PUSH1 0x64 ADD JUMPDEST PUSH1 0x40 MLOAD DUP1 SWAP2 SUB SWAP1 REVERT JUMPDEST PUSH1 0x2 PUSH1 0x0 SSTORE PUSH1 0x3 SLOAD PUSH1 0x1 PUSH1 0x1 PUSH1 0xA0 SHL SUB AND CALLER EQ PUSH2 0x30A JUMPI PUSH1 0x0 DUP1 REVERT JUMPDEST PUSH1 0x0 DUP1 JUMPDEST DUP6 DUP2 LT ISZERO PUSH2 0x457 JUMPI PUSH1 0x0 DUP6 DUP6 DUP4 DUP2 DUP2 LT PUSH2 0x32A JUMPI PUSH2 0x32A PUSH2 0xD55 JUMP JUMPDEST SWAP1 POP PUSH1 0x20 MUL ADD CALLDATALOAD SWAP1 POP DUP1 PUSH1 0xA PUSH1 0x0 DUP11 DUP11 DUP7 DUP2 DUP2 LT PUSH2 0x34A JUMPI PUSH2 0x34A PUSH2 0xD55 JUMP JUMPDEST SWAP1 POP PUSH1 0x20 MUL ADD PUSH1 0x20 DUP2 ADD SWAP1 PUSH2 0x35F SWAP2 SWAP1 PUSH2 0xC74 JUMP JUMPDEST PUSH1 0x1 PUSH1 0x1 PUSH1 0xA0 SHL SUB AND PUSH1 0x1 PUSH1 0x1 PUSH1 0xA0 SHL SUB AND DUP2 MSTORE PUSH1 0x20 ADD SWAP1 DUP2 MSTORE PUSH1 0x20 ADD PUSH1 0x0 KECCAK256 SLOAD PUSH2 0x38A SWAP2 SWAP1 PUSH2 0xD81 JUMP JUMPDEST PUSH1 0xA PUSH1 0x0 DUP11 DUP11 DUP7 DUP2 DUP2 LT PUSH2 0x3A0 JUMPI PUSH2 0x3A0 PUSH2 0xD55 JUMP JUMPDEST SWAP1 POP PUSH1 0x20 MUL ADD PUSH1 0x20 DUP2 ADD SWAP1 PUSH2 0x3B5 SWAP2 SWAP1 PUSH2 0xC74 JUMP JUMPDEST PUSH1 0x1 PUSH1 0x1 PUSH1 0xA0 SHL SUB AND DUP2 MSTORE PUSH1 0x20 DUP2 ADD SWAP2 SWAP1 SWAP2 MSTORE PUSH1 0x40 ADD PUSH1 0x0 KECCAK256 SSTORE PUSH2 0x3D9 DUP2 DUP5 PUSH2 0xD81 JUMP JUMPDEST SWAP3 POP DUP8 DUP8 DUP4 DUP2 DUP2 LT PUSH2 0x3ED JUMPI PUSH2 0x3ED PUSH2 0xD55 JUMP JUMPDEST SWAP1 POP PUSH1 0x20 MUL ADD PUSH1 0x20 DUP2 ADD SWAP1 PUSH2 0x402 SWAP2 SWAP1 PUSH2 0xC74 JUMP JUMPDEST PUSH1 0x1 PUSH1 0x1 PUSH1 0xA0 SHL SUB AND PUSH32 0xDA8220A878FF7A89474CCFFDAA31EA1ED1FFBB0207D5051AFCCC4FBAF81F9BCD DUP3 PUSH1 0x40 MLOAD PUSH2 0x43C SWAP2 DUP2 MSTORE PUSH1 0x20 ADD SWAP1 JUMP JUMPDEST PUSH1 0x40 MLOAD DUP1 SWAP2 SUB SWAP1 LOG2 POP DUP1 PUSH2 0x44F DUP2 PUSH2 0xD99 JUMP JUMPDEST SWAP2 POP POP PUSH2 0x30E JUMP JUMPDEST POP DUP1 PUSH1 0x7 PUSH1 0x0 DUP3 DUP3 SLOAD PUSH2 0x46A SWAP2 SWAP1 PUSH2 0xD81 JUMP JUMPDEST SWAP3 POP POP DUP2 SWAP1 SSTORE POP DUP1 PUSH1 0x8 PUSH1 0x0 DUP3 DUP3 SLOAD PUSH2 0x483 SWAP2 SWAP1 PUSH2 0xDB2 JUMP JUMPDEST SWAP1 SWAP2 SSTORE POP PUSH1 0x1 SWAP3 POP POP POP PUSH1 0x1 PUSH1 0x0 SSTORE SWAP5 SWAP4 POP POP POP POP JUMP JUMPDEST PUSH1 0x2 PUSH1 0x0 SLOAD SUB PUSH2 0x4EC JUMPI PUSH1 0x40 MLOAD PUSH3 0x461BCD PUSH1 0xE5 SHL DUP2 MSTORE PUSH1 0x20 PUSH1 0x4 DUP3 ADD MSTORE PUSH1 0x1F PUSH1 0x24 DUP3 ADD MSTORE PUSH32 0x5265656E7472616E637947756172643A207265656E7472616E742063616C6C00 PUSH1 0x44 DUP3 ADD MSTORE PUSH1 0x64 ADD PUSH2 0x2E5 JUMP JUMPDEST PUSH1 0x2 PUSH1 0x0 SWAP1 DUP2 SSTORE PUSH2 0x4FD CALLER TIMESTAMP PUSH2 0x90B JUMP JUMPDEST CALLER PUSH1 0x0 SWAP1 DUP2 MSTORE PUSH1 0xB PUSH1 0x20 MSTORE PUSH1 0x40 DUP2 KECCAK256 SLOAD SWAP2 SWAP3 POP SWAP1 PUSH2 0x51B SWAP1 DUP4 PUSH2 0xDB2 JUMP JUMPDEST CALLER PUSH1 0x0 SWAP1 DUP2 MSTORE PUSH1 0xB PUSH1 0x20 MSTORE PUSH1 0x40 SWAP1 KECCAK256 SLOAD SWAP1 SWAP2 POP PUSH2 0x539 SWAP1 DUP3 SWAP1 PUSH2 0xD81 JUMP JUMPDEST CALLER PUSH1 0x0 DUP2 DUP2 MSTORE PUSH1 0xB PUSH1 0x20 MSTORE PUSH1 0x40 SWAP1 KECCAK256 SWAP2 SWAP1 SWAP2 SSTORE PUSH1 0x2 SLOAD PUSH2 0x565 SWAP2 PUSH1 0x1 PUSH1 0x1 PUSH1 0xA0 SHL SUB SWAP1 SWAP2 AND SWAP1 DUP4 PUSH2 0x983 JUMP JUMPDEST PUSH1 0x40 MLOAD DUP2 DUP2 MSTORE CALLER SWAP1 PUSH32 0x47CEE97CB7ACD717B3C0AA1435D004CD5B3C8C57D70DBCEB4E4458BBD60E39D4 SWAP1 PUSH1 0x20 ADD PUSH1 0x40 MLOAD DUP1 SWAP2 SUB SWAP1 LOG2 POP POP PUSH1 0x1 PUSH1 0x0 SSTORE JUMP JUMPDEST PUSH1 0x0 DUP1 PUSH2 0x5B0 DUP4 TIMESTAMP PUSH2 0x90B JUMP JUMPDEST PUSH1 0x1 PUSH1 0x1 PUSH1 0xA0 SHL SUB DUP5 AND PUSH1 0x0 SWAP1 DUP2 MSTORE PUSH1 0xB PUSH1 0x20 MSTORE PUSH1 0x40 SWAP1 KECCAK256 SLOAD SWAP1 SWAP2 POP PUSH2 0x5D6 SWAP1 DUP3 PUSH2 0xDB2 JUMP JUMPDEST SWAP4 SWAP3 POP POP POP JUMP JUMPDEST PUSH1 0x1 SLOAD PUSH1 0x1 PUSH1 0x1 PUSH1 0xA0 SHL SUB AND CALLER EQ PUSH2 0x607 JUMPI PUSH1 0x40 MLOAD PUSH3 0x461BCD PUSH1 0xE5 SHL DUP2 MSTORE PUSH1 0x4 ADD PUSH2 0x2E5 SWAP1 PUSH2 0xDC9 JUMP JUMPDEST PUSH2 0x611 PUSH1 0x0 PUSH2 0x9DA JUMP JUMPDEST JUMP JUMPDEST PUSH1 0x0 PUSH2 0x61F DUP3 TIMESTAMP PUSH2 0x90B JUMP JUMPDEST SWAP3 SWAP2 POP POP JUMP JUMPDEST PUSH1 0x1 SLOAD PUSH1 0x1 PUSH1 0x1 PUSH1 0xA0 SHL SUB AND CALLER EQ PUSH2 0x64F JUMPI PUSH1 0x40 MLOAD PUSH3 0x461BCD PUSH1 0xE5 SHL DUP2 MSTORE PUSH1 0x4 ADD PUSH2 0x2E5 SWAP1 PUSH2 0xDC9 JUMP JUMPDEST PUSH1 0x9 SLOAD PUSH1 0xFF AND ISZERO PUSH2 0x6A2 JUMPI PUSH1 0x40 MLOAD PUSH3 0x461BCD PUSH1 0xE5 SHL DUP2 MSTORE PUSH1 0x20 PUSH1 0x4 DUP3 ADD MSTORE PUSH1 0x1E PUSH1 0x24 DUP3 ADD MSTORE PUSH32 0x556E616C6C6F636174656420737570706C7920616C7265616479207365740000 PUSH1 0x44 DUP3 ADD MSTORE PUSH1 0x64 ADD PUSH2 0x2E5 JUMP JUMPDEST PUSH1 0x2 SLOAD PUSH1 0x40 MLOAD PUSH4 0x70A08231 PUSH1 0xE0 SHL DUP2 MSTORE ADDRESS PUSH1 0x4 DUP3 ADD MSTORE PUSH1 0x0 SWAP2 PUSH1 0x1 PUSH1 0x1 PUSH1 0xA0 SHL SUB AND SWAP1 PUSH4 0x70A08231 SWAP1 PUSH1 0x24 ADD PUSH1 0x20 PUSH1 0x40 MLOAD DUP1 DUP4 SUB DUP2 DUP7 GAS STATICCALL ISZERO DUP1 ISZERO PUSH2 0x6EB JUMPI RETURNDATASIZE PUSH1 0x0 DUP1 RETURNDATACOPY RETURNDATASIZE PUSH1 0x0 REVERT JUMPDEST POP POP POP POP PUSH1 0x40 MLOAD RETURNDATASIZE PUSH1 0x1F NOT PUSH1 0x1F DUP3 ADD AND DUP3 ADD DUP1 PUSH1 0x40 MSTORE POP DUP2 ADD SWAP1 PUSH2 0x70F SWAP2 SWAP1 PUSH2 0xDFE JUMP JUMPDEST GT PUSH2 0x75C JUMPI PUSH1 0x40 MLOAD PUSH3 0x461BCD PUSH1 0xE5 SHL DUP2 MSTORE PUSH1 0x20 PUSH1 0x4 DUP3 ADD DUP2 SWAP1 MSTORE PUSH1 0x24 DUP3 ADD MSTORE PUSH32 0x636F6E747261637420646F6573206E6F74206F776E20616E7920746F6B656E73 PUSH1 0x44 DUP3 ADD MSTORE PUSH1 0x64 ADD PUSH2 0x2E5 JUMP JUMPDEST PUSH1 0x2 SLOAD PUSH1 0x40 MLOAD PUSH4 0x70A08231 PUSH1 0xE0 SHL DUP2 MSTORE ADDRESS PUSH1 0x4 DUP3 ADD MSTORE PUSH1 0x1 PUSH1 0x1 PUSH1 0xA0 SHL SUB SWAP1 SWAP2 AND SWAP1 PUSH4 0x70A08231 SWAP1 PUSH1 0x24 ADD PUSH1 0x20 PUSH1 0x40 MLOAD DUP1 DUP4 SUB DUP2 DUP7 GAS STATICCALL ISZERO DUP1 ISZERO PUSH2 0x7A4 JUMPI RETURNDATASIZE PUSH1 0x0 DUP1 RETURNDATACOPY RETURNDATASIZE PUSH1 0x0 REVERT JUMPDEST POP POP POP POP PUSH1 0x40 MLOAD RETURNDATASIZE PUSH1 0x1F NOT PUSH1 0x1F DUP3 ADD AND DUP3 ADD DUP1 PUSH1 0x40 MSTORE POP DUP2 ADD SWAP1 PUSH2 0x7C8 SWAP2 SWAP1 PUSH2 0xDFE JUMP JUMPDEST PUSH1 0x8 DUP2 SWAP1 SSTORE PUSH1 0x9 DUP1 SLOAD PUSH1 0xFF NOT AND PUSH1 0x1 OR SWAP1 SSTORE PUSH1 0x40 MLOAD PUSH32 0xBFB9FB88B2E32860621EFC374BB8C2FDBE4BC8455E7378D3A6ABF6F01494B35E SWAP2 PUSH2 0x80C SWAP2 SWAP1 DUP2 MSTORE PUSH1 0x20 ADD SWAP1 JUMP JUMPDEST PUSH1 0x40 MLOAD DUP1 SWAP2 SUB SWAP1 LOG1 JUMP JUMPDEST PUSH1 0x0 DUP1 PUSH2 0x823 DUP4 TIMESTAMP PUSH2 0x90B JUMP JUMPDEST PUSH1 0x1 PUSH1 0x1 PUSH1 0xA0 SHL SUB DUP5 AND PUSH1 0x0 SWAP1 DUP2 MSTORE PUSH1 0xA PUSH1 0x20 MSTORE PUSH1 0x40 SWAP1 KECCAK256 SLOAD SWAP1 SWAP2 POP PUSH2 0x5D6 SWAP1 DUP3 SWAP1 PUSH2 0xDB2 JUMP JUMPDEST PUSH1 0x0 PUSH2 0x854 PUSH2 0xA2C JUMP JUMPDEST PUSH1 0x7 SLOAD PUSH2 0x861 SWAP2 SWAP1 PUSH2 0xDB2 JUMP JUMPDEST SWAP1 POP SWAP1 JUMP JUMPDEST PUSH1 0x0 PUSH2 0x861 PUSH2 0xA2C JUMP JUMPDEST PUSH1 0x1 SLOAD PUSH1 0x1 PUSH1 0x1 PUSH1 0xA0 SHL SUB AND CALLER EQ PUSH2 0x89A JUMPI PUSH1 0x40 MLOAD PUSH3 0x461BCD PUSH1 0xE5 SHL DUP2 MSTORE PUSH1 0x4 ADD PUSH2 0x2E5 SWAP1 PUSH2 0xDC9 JUMP JUMPDEST PUSH1 0x1 PUSH1 0x1 PUSH1 0xA0 SHL SUB DUP2 AND PUSH2 0x8FF JUMPI PUSH1 0x40 MLOAD PUSH3 0x461BCD PUSH1 0xE5 SHL DUP2 MSTORE PUSH1 0x20 PUSH1 0x4 DUP3 ADD MSTORE PUSH1 0x26 PUSH1 0x24 DUP3 ADD MSTORE PUSH32 0x4F776E61626C653A206E6577206F776E657220697320746865207A65726F2061 PUSH1 0x44 DUP3 ADD MSTORE PUSH6 0x646472657373 PUSH1 0xD0 SHL PUSH1 0x64 DUP3 ADD MSTORE PUSH1 0x84 ADD PUSH2 0x2E5 JUMP JUMPDEST PUSH2 0x908 DUP2 PUSH2 0x9DA JUMP JUMPDEST POP JUMP JUMPDEST PUSH1 0x0 PUSH1 0x4 SLOAD DUP3 LT ISZERO PUSH2 0x91F JUMPI POP PUSH1 0x0 PUSH2 0x61F JUMP JUMPDEST PUSH1 0x1 PUSH1 0x1 PUSH1 0xA0 SHL SUB DUP4 AND PUSH1 0x0 SWAP1 DUP2 MSTORE PUSH1 0xA PUSH1 0x20 MSTORE PUSH1 0x40 DUP2 KECCAK256 SLOAD PUSH1 0x4 SLOAD SWAP1 SWAP2 SWAP1 PUSH2 0x948 SWAP1 DUP6 PUSH2 0xDB2 JUMP JUMPDEST SWAP1 POP PUSH1 0x0 PUSH1 0x6 SLOAD DUP3 DUP5 PUSH2 0x95B SWAP2 SWAP1 PUSH2 0xE17 JUMP JUMPDEST PUSH2 0x965 SWAP2 SWAP1 PUSH2 0xE36 JUMP JUMPDEST SWAP1 POP DUP3 DUP2 GT ISZERO PUSH2 0x97A JUMPI DUP3 SWAP4 POP POP POP POP PUSH2 0x61F JUMP JUMPDEST SWAP6 SWAP5 POP POP POP POP POP JUMP JUMPDEST PUSH1 0x40 DUP1 MLOAD PUSH1 0x1 PUSH1 0x1 PUSH1 0xA0 SHL SUB DUP5 AND PUSH1 0x24 DUP3 ADD MSTORE PUSH1 0x44 DUP1 DUP3 ADD DUP5 SWAP1 MSTORE DUP3 MLOAD DUP1 DUP4 SUB SWAP1 SWAP2 ADD DUP2 MSTORE PUSH1 0x64 SWAP1 SWAP2 ADD SWAP1 SWAP2 MSTORE PUSH1 0x20 DUP2 ADD DUP1 MLOAD PUSH1 0x1 PUSH1 0x1 PUSH1 0xE0 SHL SUB AND PUSH4 0xA9059CBB PUSH1 0xE0 SHL OR SWAP1 MSTORE PUSH2 0x9D5 SWAP1 DUP5 SWAP1 PUSH2 0xA8E JUMP JUMPDEST POP POP POP JUMP JUMPDEST PUSH1 0x1 DUP1 SLOAD PUSH1 0x1 PUSH1 0x1 PUSH1 0xA0 SHL SUB DUP4 DUP2 AND PUSH1 0x1 PUSH1 0x1 PUSH1 0xA0 SHL SUB NOT DUP4 AND DUP2 OR SWAP1 SWAP4 SSTORE PUSH1 0x40 MLOAD SWAP2 AND SWAP2 SWAP1 DUP3 SWAP1 PUSH32 0x8BE0079C531659141344CD1FD0A4F28419497F9722A3DAAFE3B4186F6B6457E0 SWAP1 PUSH1 0x0 SWAP1 LOG3 POP POP JUMP JUMPDEST PUSH1 0x4 SLOAD PUSH1 0x0 SWAP1 TIMESTAMP SWAP1 DUP2 LT ISZERO PUSH2 0xA43 JUMPI PUSH1 0x0 SWAP2 POP POP SWAP1 JUMP JUMPDEST PUSH1 0x7 SLOAD PUSH1 0x4 SLOAD PUSH1 0x0 SWAP1 PUSH2 0xA56 SWAP1 DUP5 PUSH2 0xDB2 JUMP JUMPDEST SWAP1 POP PUSH1 0x0 PUSH1 0x6 SLOAD DUP3 DUP5 PUSH2 0xA69 SWAP2 SWAP1 PUSH2 0xE17 JUMP JUMPDEST PUSH2 0xA73 SWAP2 SWAP1 PUSH2 0xE36 JUMP JUMPDEST SWAP1 POP DUP3 DUP2 GT ISZERO PUSH2 0xA86 JUMPI POP SWAP1 SWAP4 SWAP3 POP POP POP JUMP JUMPDEST SWAP5 SWAP4 POP POP POP POP JUMP JUMPDEST PUSH1 0x0 PUSH2 0xAE3 DUP3 PUSH1 0x40 MLOAD DUP1 PUSH1 0x40 ADD PUSH1 0x40 MSTORE DUP1 PUSH1 0x20 DUP2 MSTORE PUSH1 0x20 ADD PUSH32 0x5361666545524332303A206C6F772D6C6576656C2063616C6C206661696C6564 DUP2 MSTORE POP DUP6 PUSH1 0x1 PUSH1 0x1 PUSH1 0xA0 SHL SUB AND PUSH2 0xB60 SWAP1 SWAP3 SWAP2 SWAP1 PUSH4 0xFFFFFFFF AND JUMP JUMPDEST DUP1 MLOAD SWAP1 SWAP2 POP ISZERO PUSH2 0x9D5 JUMPI DUP1 DUP1 PUSH1 0x20 ADD SWAP1 MLOAD DUP2 ADD SWAP1 PUSH2 0xB01 SWAP2 SWAP1 PUSH2 0xE58 JUMP JUMPDEST PUSH2 0x9D5 JUMPI PUSH1 0x40 MLOAD PUSH3 0x461BCD PUSH1 0xE5 SHL DUP2 MSTORE PUSH1 0x20 PUSH1 0x4 DUP3 ADD MSTORE PUSH1 0x2A PUSH1 0x24 DUP3 ADD MSTORE PUSH32 0x5361666545524332303A204552433230206F7065726174696F6E20646964206E PUSH1 0x44 DUP3 ADD MSTORE PUSH10 0x1BDD081CDD58D8D95959 PUSH1 0xB2 SHL PUSH1 0x64 DUP3 ADD MSTORE PUSH1 0x84 ADD PUSH2 0x2E5 JUMP JUMPDEST PUSH1 0x60 PUSH2 0xA86 DUP5 DUP5 PUSH1 0x0 DUP6 DUP6 PUSH1 0x1 PUSH1 0x1 PUSH1 0xA0 SHL SUB DUP6 AND EXTCODESIZE PUSH2 0xBC2 JUMPI PUSH1 0x40 MLOAD PUSH3 0x461BCD PUSH1 0xE5 SHL DUP2 MSTORE PUSH1 0x20 PUSH1 0x4 DUP3 ADD MSTORE PUSH1 0x1D PUSH1 0x24 DUP3 ADD MSTORE PUSH32 0x416464726573733A2063616C6C20746F206E6F6E2D636F6E7472616374000000 PUSH1 0x44 DUP3 ADD MSTORE PUSH1 0x64 ADD PUSH2 0x2E5 JUMP JUMPDEST PUSH1 0x0 DUP1 DUP7 PUSH1 0x1 PUSH1 0x1 PUSH1 0xA0 SHL SUB AND DUP6 DUP8 PUSH1 0x40 MLOAD PUSH2 0xBDE SWAP2 SWAP1 PUSH2 0xEAA JUMP JUMPDEST PUSH1 0x0 PUSH1 0x40 MLOAD DUP1 DUP4 SUB DUP2 DUP6 DUP8 GAS CALL SWAP3 POP POP POP RETURNDATASIZE DUP1 PUSH1 0x0 DUP2 EQ PUSH2 0xC1B JUMPI PUSH1 0x40 MLOAD SWAP2 POP PUSH1 0x1F NOT PUSH1 0x3F RETURNDATASIZE ADD AND DUP3 ADD PUSH1 0x40 MSTORE RETURNDATASIZE DUP3 MSTORE RETURNDATASIZE PUSH1 0x0 PUSH1 0x20 DUP5 ADD RETURNDATACOPY PUSH2 0xC20 JUMP JUMPDEST PUSH1 0x60 SWAP2 POP JUMPDEST POP SWAP2 POP SWAP2 POP PUSH2 0xC30 DUP3 DUP3 DUP7 PUSH2 0xC3B JUMP JUMPDEST SWAP8 SWAP7 POP POP POP POP POP POP POP JUMP JUMPDEST PUSH1 0x60 DUP4 ISZERO PUSH2 0xC4A JUMPI POP DUP2 PUSH2 0x5D6 JUMP JUMPDEST DUP3 MLOAD ISZERO PUSH2 0xC5A JUMPI DUP3 MLOAD DUP1 DUP5 PUSH1 0x20 ADD REVERT JUMPDEST DUP2 PUSH1 0x40 MLOAD PUSH3 0x461BCD PUSH1 0xE5 SHL DUP2 MSTORE PUSH1 0x4 ADD PUSH2 0x2E5 SWAP2 SWAP1 PUSH2 0xEC6 JUMP JUMPDEST PUSH1 0x0 PUSH1 0x20 DUP3 DUP5 SUB SLT ISZERO PUSH2 0xC86 JUMPI PUSH1 0x0 DUP1 REVERT JUMPDEST DUP2 CALLDATALOAD PUSH1 0x1 PUSH1 0x1 PUSH1 0xA0 SHL SUB DUP2 AND DUP2 EQ PUSH2 0x5D6 JUMPI PUSH1 0x0 DUP1 REVERT JUMPDEST PUSH1 0x0 DUP1 DUP4 PUSH1 0x1F DUP5 ADD SLT PUSH2 0xCAF JUMPI PUSH1 0x0 DUP1 REVERT JUMPDEST POP DUP2 CALLDATALOAD PUSH8 0xFFFFFFFFFFFFFFFF DUP2 GT ISZERO PUSH2 0xCC7 JUMPI PUSH1 0x0 DUP1 REVERT JUMPDEST PUSH1 0x20 DUP4 ADD SWAP2 POP DUP4 PUSH1 0x20 DUP3 PUSH1 0x5 SHL DUP6 ADD ADD GT ISZERO PUSH2 0xCE2 JUMPI PUSH1 0x0 DUP1 REVERT JUMPDEST SWAP3 POP SWAP3 SWAP1 POP JUMP JUMPDEST PUSH1 0x0 DUP1 PUSH1 0x0 DUP1 PUSH1 0x40 DUP6 DUP8 SUB SLT ISZERO PUSH2 0xCFF JUMPI PUSH1 0x0 DUP1 REVERT JUMPDEST DUP5 CALLDATALOAD PUSH8 0xFFFFFFFFFFFFFFFF DUP1 DUP3 GT ISZERO PUSH2 0xD17 JUMPI PUSH1 0x0 DUP1 REVERT JUMPDEST PUSH2 0xD23 DUP9 DUP4 DUP10 ADD PUSH2 0xC9D JUMP JUMPDEST SWAP1 SWAP7 POP SWAP5 POP PUSH1 0x20 DUP8 ADD CALLDATALOAD SWAP2 POP DUP1 DUP3 GT ISZERO PUSH2 0xD3C JUMPI PUSH1 0x0 DUP1 REVERT JUMPDEST POP PUSH2 0xD49 DUP8 DUP3 DUP9 ADD PUSH2 0xC9D JUMP JUMPDEST SWAP6 SWAP9 SWAP5 SWAP8 POP SWAP6 POP POP POP POP JUMP JUMPDEST PUSH4 0x4E487B71 PUSH1 0xE0 SHL PUSH1 0x0 MSTORE PUSH1 0x32 PUSH1 0x4 MSTORE PUSH1 0x24 PUSH1 0x0 REVERT JUMPDEST PUSH4 0x4E487B71 PUSH1 0xE0 SHL PUSH1 0x0 MSTORE PUSH1 0x11 PUSH1 0x4 MSTORE PUSH1 0x24 PUSH1 0x0 REVERT JUMPDEST PUSH1 0x0 DUP3 NOT DUP3 GT ISZERO PUSH2 0xD94 JUMPI PUSH2 0xD94 PUSH2 0xD6B JUMP JUMPDEST POP ADD SWAP1 JUMP JUMPDEST PUSH1 0x0 PUSH1 0x1 DUP3 ADD PUSH2 0xDAB JUMPI PUSH2 0xDAB PUSH2 0xD6B JUMP JUMPDEST POP PUSH1 0x1 ADD SWAP1 JUMP JUMPDEST PUSH1 0x0 DUP3 DUP3 LT ISZERO PUSH2 0xDC4 JUMPI PUSH2 0xDC4 PUSH2 0xD6B JUMP JUMPDEST POP SUB SWAP1 JUMP JUMPDEST PUSH1 0x20 DUP1 DUP3 MSTORE DUP2 DUP2 ADD MSTORE PUSH32 0x4F776E61626C653A2063616C6C6572206973206E6F7420746865206F776E6572 PUSH1 0x40 DUP3 ADD MSTORE PUSH1 0x60 ADD SWAP1 JUMP JUMPDEST PUSH1 0x0 PUSH1 0x20 DUP3 DUP5 SUB SLT ISZERO PUSH2 0xE10 JUMPI PUSH1 0x0 DUP1 REVERT JUMPDEST POP MLOAD SWAP2 SWAP1 POP JUMP JUMPDEST PUSH1 0x0 DUP2 PUSH1 0x0 NOT DIV DUP4 GT DUP3 ISZERO ISZERO AND ISZERO PUSH2 0xE31 JUMPI PUSH2 0xE31 PUSH2 0xD6B JUMP JUMPDEST POP MUL SWAP1 JUMP JUMPDEST PUSH1 0x0 DUP3 PUSH2 0xE53 JUMPI PUSH4 0x4E487B71 PUSH1 0xE0 SHL PUSH1 0x0 MSTORE PUSH1 0x12 PUSH1 0x4 MSTORE PUSH1 0x24 PUSH1 0x0 REVERT JUMPDEST POP DIV SWAP1 JUMP JUMPDEST PUSH1 0x0 PUSH1 0x20 DUP3 DUP5 SUB SLT ISZERO PUSH2 0xE6A JUMPI PUSH1 0x0 DUP1 REVERT JUMPDEST DUP2 MLOAD DUP1 ISZERO ISZERO DUP2 EQ PUSH2 0x5D6 JUMPI PUSH1 0x0 DUP1 REVERT JUMPDEST PUSH1 0x0 JUMPDEST DUP4 DUP2 LT ISZERO PUSH2 0xE95 JUMPI DUP2 DUP2 ADD MLOAD DUP4 DUP3 ADD MSTORE PUSH1 0x20 ADD PUSH2 0xE7D JUMP JUMPDEST DUP4 DUP2 GT ISZERO PUSH2 0xEA4 JUMPI PUSH1 0x0 DUP5 DUP5 ADD MSTORE JUMPDEST POP POP POP POP JUMP JUMPDEST PUSH1 0x0 DUP3 MLOAD PUSH2 0xEBC DUP2 DUP5 PUSH1 0x20 DUP8 ADD PUSH2 0xE7A JUMP JUMPDEST SWAP2 SWAP1 SWAP2 ADD SWAP3 SWAP2 POP POP JUMP JUMPDEST PUSH1 0x20 DUP2 MSTORE PUSH1 0x0 DUP3 MLOAD DUP1 PUSH1 0x20 DUP5 ADD MSTORE PUSH2 0xEE5 DUP2 PUSH1 0x40 DUP6 ADD PUSH1 0x20 DUP8 ADD PUSH2 0xE7A JUMP JUMPDEST PUSH1 0x1F ADD PUSH1 0x1F NOT AND SWAP2 SWAP1 SWAP2 ADD PUSH1 0x40 ADD SWAP3 SWAP2 POP POP JUMP INVALID LOG2 PUSH5 0x6970667358 0x22 SLT KECCAK256 XOR 0xC6 SELFDESTRUCT EQ BYTE 0x4C SWAP16 KECCAK256 RETURNDATACOPY SIGNEXTEND LOG0 DUP13 SHR 0x28 0xD9 PUSH28 0x69F0C5EF667851562EFA536FDD58D02464736F6C634300080D003300 ","sha1":"ad6e45f8299633fdab1163ec1d1a0269abe41a31","source":"// SPDX-License-Identifier: MIT\npragma solidity ^0.8.13;\n\n/*\nAdopted from Convex's Vested Escrow\nfound at https://github.com/convex-eth/platform/blob/main/contracts/contracts/VestedEscrow.sol\n*/\nimport \"@openzeppelin/contracts/token/ERC20/IERC20.sol\";\nimport \"@openzeppelin/contracts/token/ERC20/utils/SafeERC20.sol\";\nimport \"@openzeppelin/contracts/security/ReentrancyGuard.sol\";\nimport \"@openzeppelin/contracts/access/Ownable.sol\";\n\nimport \"../../libraries/ScaledMath.sol\";\nimport \"../../interfaces/tokenomics/IVestingEscrow.sol\";\n\ncontract VestingEscrow is ReentrancyGuard, Ownable, IVestingEscrow {\n    using ScaledMath for uint256;\n    using SafeERC20 for IERC20;\n\n    IERC20 public rewardToken;\n    address public fundAdmin;\n\n    uint256 public startTime;\n    uint256 public endTime;\n    uint256 public totalTime;\n\n    uint256 public initialLockedSupply;\n    uint256 public unallocatedSupply;\n    bool supplyInitialized;\n\n    mapping(address => uint256) public initialLocked;\n    mapping(address => uint256) public totalClaimed;\n\n    constructor(\n        address rewardToken_,\n        uint256 starttime_,\n        uint256 endtime_,\n        address fundAdmin_\n    ) Ownable() {\n        require(starttime_ >= block.timestamp, \"start must be future\");\n        require(endtime_ > starttime_, \"end must be greater\");\n\n        rewardToken = IERC20(rewardToken_);\n        startTime = starttime_;\n        endTime = endtime_;\n        totalTime = endTime - startTime;\n        fundAdmin = fundAdmin_;\n    }\n\n    // @notice: Initializes the token supply granted to the vesting escrow contract. Needs to be called after minting\n    function setUnallocatedSupply() external override onlyOwner {\n        require(!supplyInitialized, \"Unallocated supply already set\");\n        require(\n            rewardToken.balanceOf(address(this)) > 0,\n            \"contract does not own any tokens\"\n        );\n        unallocatedSupply = rewardToken.balanceOf(address(this));\n        supplyInitialized = true;\n        emit SupplyInitialized(unallocatedSupply);\n    }\n\n    function setupVesting(\n        address[] calldata _recipient,\n        uint256[] calldata _amount\n    ) external override nonReentrant returns (bool) {\n        require(msg.sender == fundAdmin);\n        uint256 totalAmount = 0;\n        for (uint256 i = 0; i < _recipient.length; i++) {\n            uint256 amount = _amount[i];\n            initialLocked[_recipient[i]] =\n                initialLocked[_recipient[i]] +\n                amount;\n            totalAmount += amount;\n            emit Fund(_recipient[i], amount);\n        }\n\n        initialLockedSupply += totalAmount;\n        unallocatedSupply -= totalAmount;\n        return true;\n    }\n\n    function _totalVestedOf(address _recipient, uint256 _time)\n        internal\n        view\n        returns (uint256)\n    {\n        if (_time < startTime) {\n            return 0;\n        }\n        uint256 locked = initialLocked[_recipient];\n        uint256 elapsed = _time - startTime;\n        uint256 total = (locked * elapsed) / totalTime;\n        if (total > locked) {\n            return locked;\n        }\n        return total;\n    }\n\n    function _totalVested() internal view returns (uint256) {\n        uint256 _time = block.timestamp;\n        if (_time < startTime) {\n            return 0;\n        }\n        uint256 locked = initialLockedSupply;\n        uint256 elapsed = _time - startTime;\n        uint256 total = (locked * elapsed) / totalTime;\n        if (total > locked) {\n            return locked;\n        }\n        return total;\n    }\n\n    function vestedSupply() external view override returns (uint256) {\n        return _totalVested();\n    }\n\n    function lockedSupply() external view override returns (uint256) {\n        return initialLockedSupply - _totalVested();\n    }\n\n    function vestedOf(address _recipient)\n        external\n        view\n        override\n        returns (uint256)\n    {\n        return _totalVestedOf(_recipient, block.timestamp);\n    }\n\n    function balanceOf(address _recipient)\n        external\n        view\n        override\n        returns (uint256)\n    {\n        uint256 vested = _totalVestedOf(_recipient, block.timestamp);\n        return vested - totalClaimed[_recipient];\n    }\n\n    function lockedOf(address _recipient)\n        external\n        view\n        override\n        returns (uint256)\n    {\n        uint256 vested = _totalVestedOf(_recipient, block.timestamp);\n        return initialLocked[_recipient] - vested;\n    }\n\n    function claim() external override nonReentrant {\n        uint256 vested = _totalVestedOf(msg.sender, block.timestamp);\n        uint256 claimable = vested - totalClaimed[msg.sender];\n\n        totalClaimed[msg.sender] = totalClaimed[msg.sender] + claimable;\n        rewardToken.safeTransfer(msg.sender, claimable);\n\n        emit Claim(msg.sender, claimable);\n    }\n}\n","sourcePath":"contracts/tokenomics/VestingEscrow.sol","type":"contract","deployment":{"address":"0x5296e0cc7b64808dDD0a4932BB03072440ce3E95","chainid":"1","blockHeight":14545068}}