{"abi":[{"inputs":[{"internalType":"contract IController","name":"_controller","type":"address"},{"internalType":"contract ICNCToken","name":"_cnc","type":"address"},{"internalType":"contract ICNCMintingRebalancingRewardsHandler","name":"_previousRewardsHandler","type":"address"}],"stateMutability":"nonpayable","type":"constructor","name":"constructor"},{"anonymous":false,"inputs":[{"indexed":false,"internalType":"uint8","name":"version","type":"uint8"}],"name":"Initialized","type":"event"},{"anonymous":false,"inputs":[{"indexed":true,"internalType":"address","name":"previousOwner","type":"address"},{"indexed":true,"internalType":"address","name":"newOwner","type":"address"}],"name":"OwnershipTransferred","type":"event"},{"anonymous":false,"inputs":[{"indexed":true,"internalType":"address","name":"pool","type":"address"},{"indexed":true,"internalType":"address","name":"account","type":"address"},{"indexed":true,"internalType":"address","name":"token","type":"address"},{"indexed":false,"internalType":"uint256","name":"tokenAmount","type":"uint256"}],"name":"RebalancingRewardDistributed","type":"event"},{"anonymous":false,"inputs":[{"indexed":false,"internalType":"uint256","name":"cncRebalancingRewardPerDollarPerSecond","type":"uint256"}],"name":"SetCncRebalancingRewardPerDollarPerSecond","type":"event"},{"inputs":[],"name":"cnc","outputs":[{"internalType":"contract ICNCToken","name":"","type":"address"}],"stateMutability":"view","type":"function"},{"inputs":[],"name":"cncRebalancingRewardPerDollarPerSecond","outputs":[{"internalType":"uint256","name":"","type":"uint256"}],"stateMutability":"view","type":"function"},{"inputs":[{"internalType":"address","name":"conicPool","type":"address"},{"internalType":"uint256","name":"deviationBefore","type":"uint256"},{"internalType":"uint256","name":"deviationAfter","type":"uint256"}],"name":"computeRebalancingRewards","outputs":[{"internalType":"uint256","name":"","type":"uint256"}],"stateMutability":"view","type":"function"},{"inputs":[],"name":"controller","outputs":[{"internalType":"contract IController","name":"","type":"address"}],"stateMutability":"view","type":"function"},{"inputs":[{"internalType":"contract IConicPool","name":"conicPool","type":"address"},{"internalType":"address","name":"account","type":"address"},{"internalType":"uint256","name":"deviationBefore","type":"uint256"},{"internalType":"uint256","name":"deviationAfter","type":"uint256"}],"name":"handleRebalancingRewards","outputs":[],"stateMutability":"nonpayable","type":"function"},{"inputs":[],"name":"initialize","outputs":[],"stateMutability":"nonpayable","type":"function"},{"inputs":[],"name":"owner","outputs":[{"internalType":"address","name":"","type":"address"}],"stateMutability":"view","type":"function"},{"inputs":[],"name":"previousRewardsHandler","outputs":[{"internalType":"contract ICNCMintingRebalancingRewardsHandler","name":"","type":"address"}],"stateMutability":"view","type":"function"},{"inputs":[{"internalType":"address","name":"conicPool","type":"address"},{"internalType":"uint256","name":"underlyingAmount","type":"uint256"},{"internalType":"uint256","name":"minUnderlyingReceived","type":"uint256"},{"internalType":"uint256","name":"minCNCReceived","type":"uint256"}],"name":"rebalance","outputs":[{"internalType":"uint256","name":"underlyingReceived","type":"uint256"},{"internalType":"uint256","name":"cncReceived","type":"uint256"}],"stateMutability":"nonpayable","type":"function"},{"inputs":[],"name":"renounceOwnership","outputs":[],"stateMutability":"nonpayable","type":"function"},{"inputs":[{"internalType":"uint256","name":"_cncRebalancingRewardPerDollarPerSecond","type":"uint256"}],"name":"setCncRebalancingRewardPerDollarPerSecond","outputs":[],"stateMutability":"nonpayable","type":"function"},{"inputs":[{"internalType":"address","name":"newRebalancingRewardsHandler","type":"address"}],"name":"switchMintingRebalancingRewardsHandler","outputs":[],"stateMutability":"nonpayable","type":"function"},{"inputs":[],"name":"totalCncMinted","outputs":[{"internalType":"uint256","name":"","type":"uint256"}],"stateMutability":"view","type":"function"},{"inputs":[{"internalType":"address","name":"newOwner","type":"address"}],"name":"transferOwnership","outputs":[],"stateMutability":"nonpayable","type":"function"}],"bytecode":"60e06040523480156200001157600080fd5b50604051620024ee380380620024ee8339810160408190526200003491620001fb565b6200003f3362000192565b6001600160a01b0383166200009b5760405162461bcd60e51b815260206004820152601a60248201527f636f6e74726f6c6c6572206973207a65726f206164647265737300000000000060448201526064015b60405180910390fd5b6001600160a01b038216620000f35760405162461bcd60e51b815260206004820152601360248201527f636e63206973207a65726f206164647265737300000000000000000000000000604482015260640162000092565b6001600160a01b0381166200015a5760405162461bcd60e51b815260206004820152602660248201527f70726576696f75735265776172647348616e646c6572206973207a65726f206160448201526564647265737360d01b606482015260840162000092565b6200017263066ff300674563918244f400006200024f565b6002556001600160a01b03928316608052821660c0521660a05262000272565b600080546001600160a01b038381166001600160a01b0319831681178455604051919092169283917f8be0079c531659141344cd1fd0a4f28419497f9722a3daafe3b4186f6b6457e09190a35050565b6001600160a01b0381168114620001f857600080fd5b50565b6000806000606084860312156200021157600080fd5b83516200021e81620001e2565b60208501519093506200023181620001e2565b60408501519092506200024481620001e2565b809150509250925092565b6000826200026d57634e487b7160e01b600052601260045260246000fd5b500490565b60805160a05160c0516121ea620003046000396000818161016001526113920152600081816101dc01528181610b7d01528181610bdb015281816110a3015281816111a901528181611ac40152611b560152600081816102160152818161041f015281816104b101528181610651015281816106e50152818161086101528181610c74015261151601526121ea6000f3fe608060405234801561001057600080fd5b50600436106100ea5760003560e01c80638da5cb5b1161008c578063f0aa0a1d11610066578063f0aa0a1d146101d7578063f2fde38b146101fe578063f77c479114610211578063f95878f51461023857600080fd5b80638da5cb5b146101aa5780638f3c14cb146101bb578063d7cfbdf3146101ce57600080fd5b80633d5d2cb2116100c85780633d5d2cb214610152578063603293f11461015b578063715018a61461019a5780638129fc1c146101a257600080fd5b806303de1eb0146100ef578063182ba0bf146101155780632332d74b1461012a575b600080fd5b6101026100fd366004611d09565b61024b565b6040519081526020015b60405180910390f35b610128610123366004611d3e565b610645565b005b61013d610138366004611d5b565b610c50565b6040805192835260208301919091520161010c565b61010260025481565b6101827f000000000000000000000000000000000000000000000000000000000000000081565b6040516001600160a01b03909116815260200161010c565b61012861129b565b6101286112af565b6000546001600160a01b0316610182565b6101286101c9366004611d96565b611461565b61010260015481565b6101827f000000000000000000000000000000000000000000000000000000000000000081565b61012861020c366004611d3e565b61149e565b6101827f000000000000000000000000000000000000000000000000000000000000000081565b610128610246366004611daf565b611514565b60008183101561025d5750600061063e565b60008490506000816001600160a01b0316636f307dc36040518163ffffffff1660e01b8152600401602060405180830381865afa1580156102a2573d6000803e3d6000fd5b505050506040513d601f19601f820116820180604052508101906102c69190611df5565b6001600160a01b031663313ce5676040518163ffffffff1660e01b8152600401602060405180830381865afa158015610303573d6000803e3d6000fd5b505050506040513d601f19601f820116820180604052508101906103279190611e12565b90506000826001600160a01b031663f0ea87f66040518163ffffffff1660e01b8152600401602060405180830381865afa158015610369573d6000803e3d6000fd5b505050506040513d601f19601f8201168201806040525081019061038d9190611e35565b90506000836001600160a01b0316636e4f33386040518163ffffffff1660e01b8152600401602060405180830381865afa1580156103cf573d6000803e3d6000fd5b505050506040513d601f19601f820116820180604052508101906103f39190611e4e565b67ffffffffffffffff169050600061040b8789611e8e565b905060006104198342611e8e565b905060007f00000000000000000000000000000000000000000000000000000000000000006001600160a01b0316639c3060736040518163ffffffff1660e01b8152600401602060405180830381865afa15801561047b573d6000803e3d6000fd5b505050506040513d601f19601f8201168201806040525081019061049f9190611e35565b9050808211156104ad578091505b60007f00000000000000000000000000000000000000000000000000000000000000006001600160a01b0316632630c12f6040518163ffffffff1660e01b8152600401602060405180830381865afa15801561050d573d6000803e3d6000fd5b505050506040513d601f19601f820116820180604052508101906105319190611df5565b6001600160a01b0316638b2f0f4f896001600160a01b0316636f307dc36040518163ffffffff1660e01b8152600401602060405180830381865afa15801561057d573d6000803e3d6000fd5b505050506040513d601f19601f820116820180604052508101906105a19190611df5565b6040516001600160e01b031960e084901b1681526001600160a01b039091166004820152602401602060405180830381865afa1580156105e5573d6000803e3d6000fd5b505050506040513d601f19601f820116820180604052508101906106099190611e35565b90506106338161062d8881610620898d601261161d565b60025461062d908a611ea1565b90611666565b985050505050505050505b9392505050565b61064d611691565b60007f00000000000000000000000000000000000000000000000000000000000000006001600160a01b031663687958626040518163ffffffff1660e01b8152600401600060405180830381865afa1580156106ad573d6000803e3d6000fd5b505050506040513d6000823e601f3d908101601f191682016040526106d59190810190611ede565b905060005b8151811015610b5d577f00000000000000000000000000000000000000000000000000000000000000006001600160a01b031663dbcd89fa6040518163ffffffff1660e01b8152600401602060405180830381865afa158015610741573d6000803e3d6000fd5b505050506040513d601f19601f820116820180604052508101906107659190611df5565b6001600160a01b03166373c9639483838151811061078557610785611fa3565b60209081029190910101516040516001600160e01b031960e084901b1681526001600160a01b039091166004820152306024820152604401602060405180830381865afa1580156107da573d6000803e3d6000fd5b505050506040513d601f19601f820116820180604052508101906107fe9190611fb9565b1561085f5760405162461bcd60e51b815260206004820152602660248201527f68616e646c6572206973207374696c6c207265676973746572656420666f722060448201526518481c1bdbdb60d21b60648201526084015b60405180910390fd5b7f00000000000000000000000000000000000000000000000000000000000000006001600160a01b031663dbcd89fa6040518163ffffffff1660e01b8152600401602060405180830381865afa1580156108bd573d6000803e3d6000fd5b505050506040513d601f19601f820116820180604052508101906108e19190611df5565b6001600160a01b03166373c9639483838151811061090157610901611fa3565b6020026020010151856040518363ffffffff1660e01b815260040161093c9291906001600160a01b0392831681529116602082015260400190565b602060405180830381865afa158015610959573d6000803e3d6000fd5b505050506040513d601f19601f8201168201806040525081019061097d9190611fb9565b6109d75760405162461bcd60e51b815260206004820152602560248201527f6e65772068616e646c6572206e6f74207265676973746572656420666f722061604482015264081c1bdbdb60da1b6064820152608401610856565b306001600160a01b0316836001600160a01b031663603293f16040518163ffffffff1660e01b8152600401602060405180830381865afa158015610a1f573d6000803e3d6000fd5b505050506040513d601f19601f82011682018060405250810190610a439190611df5565b6001600160a01b031614610a995760405162461bcd60e51b815260206004820152601f60248201527f70726576696f75735265776172647348616e646c6572206d69736d61746368006044820152606401610856565b600154836001600160a01b031663d7cfbdf36040518163ffffffff1660e01b8152600401602060405180830381865afa158015610ada573d6000803e3d6000fd5b505050506040513d601f19601f82011682018060405250810190610afe9190611e35565b14610b4b5760405162461bcd60e51b815260206004820152601760248201527f746f74616c436e634d696e746564206d69736d617463680000000000000000006044820152606401610856565b80610b5581611fdb565b9150506106da565b50604051634c1d96ab60e11b81526001600160a01b0383811660048301527f0000000000000000000000000000000000000000000000000000000000000000169063983b2d5690602401600060405180830381600087803b158015610bc157600080fd5b505af1158015610bd5573d6000803e3d6000fd5b505050507f00000000000000000000000000000000000000000000000000000000000000006001600160a01b03166370e9749a6040518163ffffffff1660e01b8152600401600060405180830381600087803b158015610c3457600080fd5b505af1158015610c48573d6000803e3d6000fd5b505050505050565b604051635b16ebb760e01b81526001600160a01b03858116600483015260009182917f00000000000000000000000000000000000000000000000000000000000000001690635b16ebb790602401602060405180830381865afa158015610cbb573d6000803e3d6000fd5b505050506040513d601f19601f82011682018060405250810190610cdf9190611fb9565b610d185760405162461bcd60e51b815260206004820152600a6024820152691b9bdd0818481c1bdbdb60b21b6044820152606401610856565b60008690506000816001600160a01b0316639e4865626040518163ffffffff1660e01b8152600401602060405180830381865afa158015610d5d573d6000803e3d6000fd5b505050506040513d601f19601f82011682018060405250810190610d819190611fb9565b90506000826001600160a01b0316636f307dc36040518163ffffffff1660e01b8152600401602060405180830381865afa158015610dc3573d6000803e3d6000fd5b505050506040513d601f19601f82011682018060405250810190610de79190611df5565b6040516370a0823160e01b815233600482015290915088906001600160a01b038316906370a0823190602401602060405180830381865afa158015610e30573d6000803e3d6000fd5b505050506040513d601f19601f82011682018060405250810190610e549190611e35565b1015610ea25760405162461bcd60e51b815260206004820152601760248201527f696e73756666696369656e7420756e6465726c79696e670000000000000000006044820152606401610856565b6000836001600160a01b03166383645abf6040518163ffffffff1660e01b8152600401602060405180830381865afa158015610ee2573d6000803e3d6000fd5b505050506040513d601f19601f82011682018060405250810190610f069190611e35565b9050610f1d6001600160a01b03831633308c6116eb565b610f316001600160a01b0383168b8b611756565b6003805460ff191660011790556040516321d0683360e11b8152600481018a905260006024820181905260448201819052906001600160a01b038616906343a0d066906064016020604051808303816000875af1158015610f96573d6000803e3d6000fd5b505050506040513d601f19601f82011682018060405250810190610fba9190611e35565b6003805460ff19169055604051630441a3e760e41b815260048101829052600060248201529091506001600160a01b0386169063441a3e70906044016020604051808303816000875af1158015611015573d6000803e3d6000fd5b505050506040513d601f19601f820116820180604052508101906110399190611e35565b96508887101561108b5760405162461bcd60e51b815260206004820181905260248201527f696e73756666696369656e7420756e6465726c79696e672072656365697665646044820152606401610856565b6040516370a0823160e01b81523360048201526000907f00000000000000000000000000000000000000000000000000000000000000006001600160a01b0316906370a0823190602401602060405180830381865afa1580156110f2573d6000803e3d6000fd5b505050506040513d601f19601f820116820180604052508101906111169190611e35565b90508415611192576000866001600160a01b03166383645abf6040518163ffffffff1660e01b8152600401602060405180830381865afa15801561115e573d6000803e3d6000fd5b505050506040513d601f19601f820116820180604052508101906111829190611e35565b9050611190873386846117e5565b505b6040516370a0823160e01b815233600482015281907f00000000000000000000000000000000000000000000000000000000000000006001600160a01b0316906370a0823190602401602060405180830381865afa1580156111f8573d6000803e3d6000fd5b505050506040513d601f19601f8201168201806040525081019061121c9190611e35565b6112269190611e8e565b9650888710156112785760405162461bcd60e51b815260206004820152601960248201527f696e73756666696369656e7420434e43207265636569766564000000000000006044820152606401610856565b61128c6001600160a01b038516338a611810565b50505050505094509492505050565b6112a3611691565b6112ad6000611845565b565b6112b7611691565b600054600160a81b900460ff16158080156112df57506000546001600160a01b90910460ff16105b806113005750303b1580156113005750600054600160a01b900460ff166001145b6113635760405162461bcd60e51b815260206004820152602e60248201527f496e697469616c697a61626c653a20636f6e747261637420697320616c72656160448201526d191e481a5b9a5d1a585b1a5e995960921b6064820152608401610856565b6000805460ff60a01b1916600160a01b1790558015611390576000805460ff60a81b1916600160a81b1790555b7f00000000000000000000000000000000000000000000000000000000000000006001600160a01b031663d7cfbdf36040518163ffffffff1660e01b8152600401602060405180830381865afa1580156113ee573d6000803e3d6000fd5b505050506040513d601f19601f820116820180604052508101906114129190611e35565b600155801561145e576000805460ff60a81b19169055604051600181527f7f26b83ff96e1f2b6a682f133852f6798a09c465da95921460cefb3847402498906020015b60405180910390a15b50565b611469611691565b60028190556040518181527f52e5ea693f3343bef45800ecec3dd0c08e360e7c6e3a589a8fa2e4ee226c8a1290602001611455565b6114a6611691565b6001600160a01b03811661150b5760405162461bcd60e51b815260206004820152602660248201527f4f776e61626c653a206e6577206f776e657220697320746865207a65726f206160448201526564647265737360d01b6064820152608401610856565b61145e81611845565b7f00000000000000000000000000000000000000000000000000000000000000006001600160a01b031663dbcd89fa6040518163ffffffff1660e01b8152600401602060405180830381865afa158015611572573d6000803e3d6000fd5b505050506040513d601f19601f820116820180604052508101906115969190611df5565b6001600160a01b0316336001600160a01b03161461160b5760405162461bcd60e51b815260206004820152602c60248201527f6f6e6c7920496e666c6174696f6e4d616e616765722063616e2063616c6c207460448201526b3434b990333ab731ba34b7b760a11b6064820152608401610856565b611617848484846117e5565b50505050565b60008160ff168360ff160361163357508261063e565b8160ff168360ff1611156116535761164c848484611895565b905061063e565b61165e8484846118b6565b949350505050565b60006116746012600a6120d8565b61167e8385611ea1565b61168891906120e4565b90505b92915050565b6000546001600160a01b031633146112ad5760405162461bcd60e51b815260206004820181905260248201527f4f776e61626c653a2063616c6c6572206973206e6f7420746865206f776e65726044820152606401610856565b6040516001600160a01b03808516602483015283166044820152606481018290526116179085906323b872dd60e01b906084015b60408051601f198184030181529190526020810180516001600160e01b03166001600160e01b0319909316929092179091526118d7565b604080516001600160a01b038416602482015260448082018490528251808303909101815260649091019091526020810180516001600160e01b031663095ea7b360e01b1790526117a784826119ac565b611617576040516001600160a01b0384166024820152600060448201526117db90859063095ea7b360e01b9060640161171f565b61161784826118d7565b60035460ff166116175760006117fc85848461024b565b9050611809858583611a53565b5050505050565b6040516001600160a01b03831660248201526044810182905261184090849063a9059cbb60e01b9060640161171f565b505050565b600080546001600160a01b038381166001600160a01b0319831681178455604051919092169283917f8be0079c531659141344cd1fd0a4f28419497f9722a3daafe3b4186f6b6457e09190a35050565b60006118a18284612106565b6118ac90600a61211f565b61165e90856120e4565b60006118c28383612106565b6118cd90600a61211f565b61165e9085611ea1565b600061192c826040518060400160405280602081526020017f5361666545524332303a206c6f772d6c6576656c2063616c6c206661696c6564815250856001600160a01b0316611bd19092919063ffffffff16565b905080516000148061194d57508080602001905181019061194d9190611fb9565b6118405760405162461bcd60e51b815260206004820152602a60248201527f5361666545524332303a204552433230206f7065726174696f6e20646964206e6044820152691bdd081cdd58d8d9595960b21b6064820152608401610856565b6000806000846001600160a01b0316846040516119c99190612152565b6000604051808303816000865af19150503d8060008114611a06576040519150601f19603f3d011682016040523d82523d6000602084013e611a0b565b606091505b5091509150818015611a35575080511580611a35575080806020019051810190611a359190611fb9565b8015611a4a57506001600160a01b0385163b15155b95945050505050565b6a01925734d5b8904b80000081600154611a6d919061216e565b1115611a8e57600154611a8b906a01925734d5b8904b800000611e8e565b90505b80600003611a9b57505050565b6040516340c10f1960e01b81526001600160a01b038381166004830152602482018390526000917f0000000000000000000000000000000000000000000000000000000000000000909116906340c10f19906044016020604051808303816000875af1158015611b0f573d6000803e3d6000fd5b505050506040513d601f19601f82011682018060405250810190611b339190611e35565b90508015611617578060016000828254611b4d919061216e565b925050819055507f00000000000000000000000000000000000000000000000000000000000000006001600160a01b0316836001600160a01b0316856001600160a01b03167fc84ef7d7e740eeb018c01c28c59b82def5d19d93fb1c641a70e27665e16f282d84604051611bc391815260200190565b60405180910390a450505050565b606061165e848460008585600080866001600160a01b03168587604051611bf89190612152565b60006040518083038185875af1925050503d8060008114611c35576040519150601f19603f3d011682016040523d82523d6000602084013e611c3a565b606091505b5091509150611c4b87838387611c56565b979650505050505050565b60608315611cc5578251600003611cbe576001600160a01b0385163b611cbe5760405162461bcd60e51b815260206004820152601d60248201527f416464726573733a2063616c6c20746f206e6f6e2d636f6e74726163740000006044820152606401610856565b508161165e565b61165e8383815115611cda5781518083602001fd5b8060405162461bcd60e51b81526004016108569190612181565b6001600160a01b038116811461145e57600080fd5b600080600060608486031215611d1e57600080fd5b8335611d2981611cf4565b95602085013595506040909401359392505050565b600060208284031215611d5057600080fd5b813561063e81611cf4565b60008060008060808587031215611d7157600080fd5b8435611d7c81611cf4565b966020860135965060408601359560600135945092505050565b600060208284031215611da857600080fd5b5035919050565b60008060008060808587031215611dc557600080fd5b8435611dd081611cf4565b93506020850135611de081611cf4565b93969395505050506040820135916060013590565b600060208284031215611e0757600080fd5b815161063e81611cf4565b600060208284031215611e2457600080fd5b815160ff8116811461063e57600080fd5b600060208284031215611e4757600080fd5b5051919050565b600060208284031215611e6057600080fd5b815167ffffffffffffffff8116811461063e57600080fd5b634e487b7160e01b600052601160045260246000fd5b8181038181111561168b5761168b611e78565b808202811582820484141761168b5761168b611e78565b634e487b7160e01b600052604160045260246000fd5b8051611ed981611cf4565b919050565b60006020808385031215611ef157600080fd5b825167ffffffffffffffff80821115611f0957600080fd5b818501915085601f830112611f1d57600080fd5b815181811115611f2f57611f2f611eb8565b8060051b604051601f19603f83011681018181108582111715611f5457611f54611eb8565b604052918252848201925083810185019188831115611f7257600080fd5b938501935b82851015611f9757611f8885611ece565b84529385019392850192611f77565b98975050505050505050565b634e487b7160e01b600052603260045260246000fd5b600060208284031215611fcb57600080fd5b8151801515811461063e57600080fd5b600060018201611fed57611fed611e78565b5060010190565b600181815b8085111561202f57816000190482111561201557612015611e78565b8085161561202257918102915b93841c9390800290611ff9565b509250929050565b6000826120465750600161168b565b816120535750600061168b565b816001811461206957600281146120735761208f565b600191505061168b565b60ff84111561208457612084611e78565b50506001821b61168b565b5060208310610133831016604e8410600b84101617156120b2575081810a61168b565b6120bc8383611ff4565b80600019048211156120d0576120d0611e78565b029392505050565b60006116888383612037565b60008261210157634e487b7160e01b600052601260045260246000fd5b500490565b60ff828116828216039081111561168b5761168b611e78565b600061168860ff841683612037565b60005b83811015612149578181015183820152602001612131565b50506000910152565b6000825161216481846020870161212e565b9190910192915050565b8082018082111561168b5761168b611e78565b60208152600082518060208401526121a081604085016020870161212e565b601f01601f1916919091016040019291505056fea2646970667358221220c10adc680718a3797b7e70344ece6d122e82c0d27a5cac84d790fc38aa5bd18d64736f6c63430008110033","bytecodeSha1":"619bfbdcc613eef9ba71f3d12e9abfee1f5a67e6","compiler":{"evm_version":"london","optimizer":{"enabled":true,"runs":200},"version":"0.8.17+commit.8df45f5f"},"contractName":"CNCMintingRebalancingRewardsHandler","language":"Solidity","natspec":{"kind":"dev","methods":{"computeRebalancingRewards(address,uint256,uint256)":{"details":"this computes how much CNC a user should get when depositing this does not check whether the rewards should still be distributed amount CNC = t * CNC/s * Δdeviation * rewardFactor * underlying price where CNC/s: the amount of CNC per second to distributed for rebalancing t: the time elapsed since the weight update Δdeviation: the deviation difference caused by this deposit initialDeviation: the deviation after updating weights","returns":{"_0":"the amount of CNC to give to the user as reward"}},"handleRebalancingRewards(address,address,uint256,uint256)":{"notice":"Handles the rewards distribution for the rebalancing of the pool","params":{"account":"The account that is rebalancing the pool","conicPool":"The pool that is being rebalanced","deviationAfter":"The total absolute deviation of the Conic pool after the rebalancing","deviationBefore":"The total absolute deviation of the Conic pool before the rebalancing"}},"owner()":{"details":"Returns the address of the current owner."},"renounceOwnership()":{"details":"Leaves the contract without owner. It will not be possible to call `onlyOwner` functions. Can only be called by the current owner. NOTE: Renouncing ownership will leave the contract without an owner, thereby disabling any functionality that is only available to the owner."},"switchMintingRebalancingRewardsHandler(address)":{"notice":"switches the minting rebalancing reward handler by granting the new one minting rights and renouncing his own `InflationManager.removePoolRebalancingRewardHandler` should be called on every pool before this is called this should typically be done as a single batched governance action The same governance action should also call `InflationManager.addPoolRebalancingRewardHandler` for each pool passing in `newRebalancingRewardsHandler` so that the whole operation is atomic","params":{"newRebalancingRewardsHandler":"the address of the new rebalancing rewards handler"}},"transferOwnership(address)":{"details":"Transfers ownership of the contract to a new account (`newOwner`). Can only be called by the current owner."}},"stateVariables":{"_INITIAL_REBALANCING_REWARD_PER_DOLLAR_PER_SECOND":{"details":"gives out 5 dollars per 1 hour (assuming 1 CNC = 3 USD) for every 10,000 USD in TVL that needs to be shifted"},"_MAX_REBALANCING_REWARDS":{"details":"the maximum amount of CNC that can be minted for rebalancing rewards"}},"version":1},"opcodes":"PUSH1 0x80 PUSH1 0x40 MSTORE CALLVALUE DUP1 ISZERO PUSH2 0x10 JUMPI PUSH1 0x0 DUP1 REVERT JUMPDEST POP PUSH1 0x4 CALLDATASIZE LT PUSH2 0xEA JUMPI PUSH1 0x0 CALLDATALOAD PUSH1 0xE0 SHR DUP1 PUSH4 0x8DA5CB5B GT PUSH2 0x8C JUMPI DUP1 PUSH4 0xF0AA0A1D GT PUSH2 0x66 JUMPI DUP1 PUSH4 0xF0AA0A1D EQ PUSH2 0x1D7 JUMPI DUP1 PUSH4 0xF2FDE38B EQ PUSH2 0x1FE JUMPI DUP1 PUSH4 0xF77C4791 EQ PUSH2 0x211 JUMPI DUP1 PUSH4 0xF95878F5 EQ PUSH2 0x238 JUMPI PUSH1 0x0 DUP1 REVERT JUMPDEST DUP1 PUSH4 0x8DA5CB5B EQ PUSH2 0x1AA JUMPI DUP1 PUSH4 0x8F3C14CB EQ PUSH2 0x1BB JUMPI DUP1 PUSH4 0xD7CFBDF3 EQ PUSH2 0x1CE JUMPI PUSH1 0x0 DUP1 REVERT JUMPDEST DUP1 PUSH4 0x3D5D2CB2 GT PUSH2 0xC8 JUMPI DUP1 PUSH4 0x3D5D2CB2 EQ PUSH2 0x152 JUMPI DUP1 PUSH4 0x603293F1 EQ PUSH2 0x15B JUMPI DUP1 PUSH4 0x715018A6 EQ PUSH2 0x19A JUMPI DUP1 PUSH4 0x8129FC1C EQ PUSH2 0x1A2 JUMPI PUSH1 0x0 DUP1 REVERT JUMPDEST DUP1 PUSH4 0x3DE1EB0 EQ PUSH2 0xEF JUMPI DUP1 PUSH4 0x182BA0BF EQ PUSH2 0x115 JUMPI DUP1 PUSH4 0x2332D74B EQ PUSH2 0x12A JUMPI JUMPDEST PUSH1 0x0 DUP1 REVERT JUMPDEST PUSH2 0x102 PUSH2 0xFD CALLDATASIZE PUSH1 0x4 PUSH2 0x1D09 JUMP JUMPDEST PUSH2 0x24B JUMP JUMPDEST PUSH1 0x40 MLOAD SWAP1 DUP2 MSTORE PUSH1 0x20 ADD JUMPDEST PUSH1 0x40 MLOAD DUP1 SWAP2 SUB SWAP1 RETURN JUMPDEST PUSH2 0x128 PUSH2 0x123 CALLDATASIZE PUSH1 0x4 PUSH2 0x1D3E JUMP JUMPDEST PUSH2 0x645 JUMP JUMPDEST STOP JUMPDEST PUSH2 0x13D PUSH2 0x138 CALLDATASIZE PUSH1 0x4 PUSH2 0x1D5B JUMP JUMPDEST PUSH2 0xC50 JUMP JUMPDEST PUSH1 0x40 DUP1 MLOAD SWAP3 DUP4 MSTORE PUSH1 0x20 DUP4 ADD SWAP2 SWAP1 SWAP2 MSTORE ADD PUSH2 0x10C JUMP JUMPDEST PUSH2 0x102 PUSH1 0x2 SLOAD DUP2 JUMP JUMPDEST PUSH2 0x182 PUSH32 0x0 DUP2 JUMP JUMPDEST PUSH1 0x40 MLOAD PUSH1 0x1 PUSH1 0x1 PUSH1 0xA0 SHL SUB SWAP1 SWAP2 AND DUP2 MSTORE PUSH1 0x20 ADD PUSH2 0x10C JUMP JUMPDEST PUSH2 0x128 PUSH2 0x129B JUMP JUMPDEST PUSH2 0x128 PUSH2 0x12AF JUMP JUMPDEST PUSH1 0x0 SLOAD PUSH1 0x1 PUSH1 0x1 PUSH1 0xA0 SHL SUB AND PUSH2 0x182 JUMP JUMPDEST PUSH2 0x128 PUSH2 0x1C9 CALLDATASIZE PUSH1 0x4 PUSH2 0x1D96 JUMP JUMPDEST PUSH2 0x1461 JUMP JUMPDEST PUSH2 0x102 PUSH1 0x1 SLOAD DUP2 JUMP JUMPDEST PUSH2 0x182 PUSH32 0x0 DUP2 JUMP JUMPDEST PUSH2 0x128 PUSH2 0x20C CALLDATASIZE PUSH1 0x4 PUSH2 0x1D3E JUMP JUMPDEST PUSH2 0x149E JUMP JUMPDEST PUSH2 0x182 PUSH32 0x0 DUP2 JUMP JUMPDEST PUSH2 0x128 PUSH2 0x246 CALLDATASIZE PUSH1 0x4 PUSH2 0x1DAF JUMP JUMPDEST PUSH2 0x1514 JUMP JUMPDEST PUSH1 0x0 DUP2 DUP4 LT ISZERO PUSH2 0x25D JUMPI POP PUSH1 0x0 PUSH2 0x63E JUMP JUMPDEST PUSH1 0x0 DUP5 SWAP1 POP PUSH1 0x0 DUP2 PUSH1 0x1 PUSH1 0x1 PUSH1 0xA0 SHL SUB AND PUSH4 0x6F307DC3 PUSH1 0x40 MLOAD DUP2 PUSH4 0xFFFFFFFF AND PUSH1 0xE0 SHL DUP2 MSTORE PUSH1 0x4 ADD PUSH1 0x20 PUSH1 0x40 MLOAD DUP1 DUP4 SUB DUP2 DUP7 GAS STATICCALL ISZERO DUP1 ISZERO PUSH2 0x2A2 JUMPI RETURNDATASIZE PUSH1 0x0 DUP1 RETURNDATACOPY RETURNDATASIZE PUSH1 0x0 REVERT JUMPDEST POP POP POP POP PUSH1 0x40 MLOAD RETURNDATASIZE PUSH1 0x1F NOT PUSH1 0x1F DUP3 ADD AND DUP3 ADD DUP1 PUSH1 0x40 MSTORE POP DUP2 ADD SWAP1 PUSH2 0x2C6 SWAP2 SWAP1 PUSH2 0x1DF5 JUMP JUMPDEST PUSH1 0x1 PUSH1 0x1 PUSH1 0xA0 SHL SUB AND PUSH4 0x313CE567 PUSH1 0x40 MLOAD DUP2 PUSH4 0xFFFFFFFF AND PUSH1 0xE0 SHL DUP2 MSTORE PUSH1 0x4 ADD PUSH1 0x20 PUSH1 0x40 MLOAD DUP1 DUP4 SUB DUP2 DUP7 GAS STATICCALL ISZERO DUP1 ISZERO PUSH2 0x303 JUMPI RETURNDATASIZE PUSH1 0x0 DUP1 RETURNDATACOPY RETURNDATASIZE PUSH1 0x0 REVERT JUMPDEST POP POP POP POP PUSH1 0x40 MLOAD RETURNDATASIZE PUSH1 0x1F NOT PUSH1 0x1F DUP3 ADD AND DUP3 ADD DUP1 PUSH1 0x40 MSTORE POP DUP2 ADD SWAP1 PUSH2 0x327 SWAP2 SWAP1 PUSH2 0x1E12 JUMP JUMPDEST SWAP1 POP PUSH1 0x0 DUP3 PUSH1 0x1 PUSH1 0x1 PUSH1 0xA0 SHL SUB AND PUSH4 0xF0EA87F6 PUSH1 0x40 MLOAD DUP2 PUSH4 0xFFFFFFFF AND PUSH1 0xE0 SHL DUP2 MSTORE PUSH1 0x4 ADD PUSH1 0x20 PUSH1 0x40 MLOAD DUP1 DUP4 SUB DUP2 DUP7 GAS STATICCALL ISZERO DUP1 ISZERO PUSH2 0x369 JUMPI RETURNDATASIZE PUSH1 0x0 DUP1 RETURNDATACOPY RETURNDATASIZE PUSH1 0x0 REVERT JUMPDEST POP POP POP POP PUSH1 0x40 MLOAD RETURNDATASIZE PUSH1 0x1F NOT PUSH1 0x1F DUP3 ADD AND DUP3 ADD DUP1 PUSH1 0x40 MSTORE POP DUP2 ADD SWAP1 PUSH2 0x38D SWAP2 SWAP1 PUSH2 0x1E35 JUMP JUMPDEST SWAP1 POP PUSH1 0x0 DUP4 PUSH1 0x1 PUSH1 0x1 PUSH1 0xA0 SHL SUB AND PUSH4 0x6E4F3338 PUSH1 0x40 MLOAD DUP2 PUSH4 0xFFFFFFFF AND PUSH1 0xE0 SHL DUP2 MSTORE PUSH1 0x4 ADD PUSH1 0x20 PUSH1 0x40 MLOAD DUP1 DUP4 SUB DUP2 DUP7 GAS STATICCALL ISZERO DUP1 ISZERO PUSH2 0x3CF JUMPI RETURNDATASIZE PUSH1 0x0 DUP1 RETURNDATACOPY RETURNDATASIZE PUSH1 0x0 REVERT JUMPDEST POP POP POP POP PUSH1 0x40 MLOAD RETURNDATASIZE PUSH1 0x1F NOT PUSH1 0x1F DUP3 ADD AND DUP3 ADD DUP1 PUSH1 0x40 MSTORE POP DUP2 ADD SWAP1 PUSH2 0x3F3 SWAP2 SWAP1 PUSH2 0x1E4E JUMP JUMPDEST PUSH8 0xFFFFFFFFFFFFFFFF AND SWAP1 POP PUSH1 0x0 PUSH2 0x40B DUP8 DUP10 PUSH2 0x1E8E JUMP JUMPDEST SWAP1 POP PUSH1 0x0 PUSH2 0x419 DUP4 TIMESTAMP PUSH2 0x1E8E JUMP JUMPDEST SWAP1 POP PUSH1 0x0 PUSH32 0x0 PUSH1 0x1 PUSH1 0x1 PUSH1 0xA0 SHL SUB AND PUSH4 0x9C306073 PUSH1 0x40 MLOAD DUP2 PUSH4 0xFFFFFFFF AND PUSH1 0xE0 SHL DUP2 MSTORE PUSH1 0x4 ADD PUSH1 0x20 PUSH1 0x40 MLOAD DUP1 DUP4 SUB DUP2 DUP7 GAS STATICCALL ISZERO DUP1 ISZERO PUSH2 0x47B JUMPI RETURNDATASIZE PUSH1 0x0 DUP1 RETURNDATACOPY RETURNDATASIZE PUSH1 0x0 REVERT JUMPDEST POP POP POP POP PUSH1 0x40 MLOAD RETURNDATASIZE PUSH1 0x1F NOT PUSH1 0x1F DUP3 ADD AND DUP3 ADD DUP1 PUSH1 0x40 MSTORE POP DUP2 ADD SWAP1 PUSH2 0x49F SWAP2 SWAP1 PUSH2 0x1E35 JUMP JUMPDEST SWAP1 POP DUP1 DUP3 GT ISZERO PUSH2 0x4AD JUMPI DUP1 SWAP2 POP JUMPDEST PUSH1 0x0 PUSH32 0x0 PUSH1 0x1 PUSH1 0x1 PUSH1 0xA0 SHL SUB AND PUSH4 0x2630C12F PUSH1 0x40 MLOAD DUP2 PUSH4 0xFFFFFFFF AND PUSH1 0xE0 SHL DUP2 MSTORE PUSH1 0x4 ADD PUSH1 0x20 PUSH1 0x40 MLOAD DUP1 DUP4 SUB DUP2 DUP7 GAS STATICCALL ISZERO DUP1 ISZERO PUSH2 0x50D JUMPI RETURNDATASIZE PUSH1 0x0 DUP1 RETURNDATACOPY RETURNDATASIZE PUSH1 0x0 REVERT JUMPDEST POP POP POP POP PUSH1 0x40 MLOAD RETURNDATASIZE PUSH1 0x1F NOT PUSH1 0x1F DUP3 ADD AND DUP3 ADD DUP1 PUSH1 0x40 MSTORE POP DUP2 ADD SWAP1 PUSH2 0x531 SWAP2 SWAP1 PUSH2 0x1DF5 JUMP JUMPDEST PUSH1 0x1 PUSH1 0x1 PUSH1 0xA0 SHL SUB AND PUSH4 0x8B2F0F4F DUP10 PUSH1 0x1 PUSH1 0x1 PUSH1 0xA0 SHL SUB AND PUSH4 0x6F307DC3 PUSH1 0x40 MLOAD DUP2 PUSH4 0xFFFFFFFF AND PUSH1 0xE0 SHL DUP2 MSTORE PUSH1 0x4 ADD PUSH1 0x20 PUSH1 0x40 MLOAD DUP1 DUP4 SUB DUP2 DUP7 GAS STATICCALL ISZERO DUP1 ISZERO PUSH2 0x57D JUMPI RETURNDATASIZE PUSH1 0x0 DUP1 RETURNDATACOPY RETURNDATASIZE PUSH1 0x0 REVERT JUMPDEST POP POP POP POP PUSH1 0x40 MLOAD RETURNDATASIZE PUSH1 0x1F NOT PUSH1 0x1F DUP3 ADD AND DUP3 ADD DUP1 PUSH1 0x40 MSTORE POP DUP2 ADD SWAP1 PUSH2 0x5A1 SWAP2 SWAP1 PUSH2 0x1DF5 JUMP JUMPDEST PUSH1 0x40 MLOAD PUSH1 0x1 PUSH1 0x1 PUSH1 0xE0 SHL SUB NOT PUSH1 0xE0 DUP5 SWAP1 SHL AND DUP2 MSTORE PUSH1 0x1 PUSH1 0x1 PUSH1 0xA0 SHL SUB SWAP1 SWAP2 AND PUSH1 0x4 DUP3 ADD MSTORE PUSH1 0x24 ADD PUSH1 0x20 PUSH1 0x40 MLOAD DUP1 DUP4 SUB DUP2 DUP7 GAS STATICCALL ISZERO DUP1 ISZERO PUSH2 0x5E5 JUMPI RETURNDATASIZE PUSH1 0x0 DUP1 RETURNDATACOPY RETURNDATASIZE PUSH1 0x0 REVERT JUMPDEST POP POP POP POP PUSH1 0x40 MLOAD RETURNDATASIZE PUSH1 0x1F NOT PUSH1 0x1F DUP3 ADD AND DUP3 ADD DUP1 PUSH1 0x40 MSTORE POP DUP2 ADD SWAP1 PUSH2 0x609 SWAP2 SWAP1 PUSH2 0x1E35 JUMP JUMPDEST SWAP1 POP PUSH2 0x633 DUP2 PUSH2 0x62D DUP9 DUP2 PUSH2 0x620 DUP10 DUP14 PUSH1 0x12 PUSH2 0x161D JUMP JUMPDEST PUSH1 0x2 SLOAD PUSH2 0x62D SWAP1 DUP11 PUSH2 0x1EA1 JUMP JUMPDEST SWAP1 PUSH2 0x1666 JUMP JUMPDEST SWAP9 POP POP POP POP POP POP POP POP POP JUMPDEST SWAP4 SWAP3 POP POP POP JUMP JUMPDEST PUSH2 0x64D PUSH2 0x1691 JUMP JUMPDEST PUSH1 0x0 PUSH32 0x0 PUSH1 0x1 PUSH1 0x1 PUSH1 0xA0 SHL SUB AND PUSH4 0x68795862 PUSH1 0x40 MLOAD DUP2 PUSH4 0xFFFFFFFF AND PUSH1 0xE0 SHL DUP2 MSTORE PUSH1 0x4 ADD PUSH1 0x0 PUSH1 0x40 MLOAD DUP1 DUP4 SUB DUP2 DUP7 GAS STATICCALL ISZERO DUP1 ISZERO PUSH2 0x6AD JUMPI RETURNDATASIZE PUSH1 0x0 DUP1 RETURNDATACOPY RETURNDATASIZE PUSH1 0x0 REVERT JUMPDEST POP POP POP POP PUSH1 0x40 MLOAD RETURNDATASIZE PUSH1 0x0 DUP3 RETURNDATACOPY PUSH1 0x1F RETURNDATASIZE SWAP1 DUP2 ADD PUSH1 0x1F NOT AND DUP3 ADD PUSH1 0x40 MSTORE PUSH2 0x6D5 SWAP2 SWAP1 DUP2 ADD SWAP1 PUSH2 0x1EDE JUMP JUMPDEST SWAP1 POP PUSH1 0x0 JUMPDEST DUP2 MLOAD DUP2 LT ISZERO PUSH2 0xB5D JUMPI PUSH32 0x0 PUSH1 0x1 PUSH1 0x1 PUSH1 0xA0 SHL SUB AND PUSH4 0xDBCD89FA PUSH1 0x40 MLOAD DUP2 PUSH4 0xFFFFFFFF AND PUSH1 0xE0 SHL DUP2 MSTORE PUSH1 0x4 ADD PUSH1 0x20 PUSH1 0x40 MLOAD DUP1 DUP4 SUB DUP2 DUP7 GAS STATICCALL ISZERO DUP1 ISZERO PUSH2 0x741 JUMPI RETURNDATASIZE PUSH1 0x0 DUP1 RETURNDATACOPY RETURNDATASIZE PUSH1 0x0 REVERT JUMPDEST POP POP POP POP PUSH1 0x40 MLOAD RETURNDATASIZE PUSH1 0x1F NOT PUSH1 0x1F DUP3 ADD AND DUP3 ADD DUP1 PUSH1 0x40 MSTORE POP DUP2 ADD SWAP1 PUSH2 0x765 SWAP2 SWAP1 PUSH2 0x1DF5 JUMP JUMPDEST PUSH1 0x1 PUSH1 0x1 PUSH1 0xA0 SHL SUB AND PUSH4 0x73C96394 DUP4 DUP4 DUP2 MLOAD DUP2 LT PUSH2 0x785 JUMPI PUSH2 0x785 PUSH2 0x1FA3 JUMP JUMPDEST PUSH1 0x20 SWAP1 DUP2 MUL SWAP2 SWAP1 SWAP2 ADD ADD MLOAD PUSH1 0x40 MLOAD PUSH1 0x1 PUSH1 0x1 PUSH1 0xE0 SHL SUB NOT PUSH1 0xE0 DUP5 SWAP1 SHL AND DUP2 MSTORE PUSH1 0x1 PUSH1 0x1 PUSH1 0xA0 SHL SUB SWAP1 SWAP2 AND PUSH1 0x4 DUP3 ADD MSTORE ADDRESS PUSH1 0x24 DUP3 ADD MSTORE PUSH1 0x44 ADD PUSH1 0x20 PUSH1 0x40 MLOAD DUP1 DUP4 SUB DUP2 DUP7 GAS STATICCALL ISZERO DUP1 ISZERO PUSH2 0x7DA JUMPI RETURNDATASIZE PUSH1 0x0 DUP1 RETURNDATACOPY RETURNDATASIZE PUSH1 0x0 REVERT JUMPDEST POP POP POP POP PUSH1 0x40 MLOAD RETURNDATASIZE PUSH1 0x1F NOT PUSH1 0x1F DUP3 ADD AND DUP3 ADD DUP1 PUSH1 0x40 MSTORE POP DUP2 ADD SWAP1 PUSH2 0x7FE SWAP2 SWAP1 PUSH2 0x1FB9 JUMP JUMPDEST ISZERO PUSH2 0x85F JUMPI PUSH1 0x40 MLOAD PUSH3 0x461BCD PUSH1 0xE5 SHL DUP2 MSTORE PUSH1 0x20 PUSH1 0x4 DUP3 ADD MSTORE PUSH1 0x26 PUSH1 0x24 DUP3 ADD MSTORE PUSH32 0x68616E646C6572206973207374696C6C207265676973746572656420666F7220 PUSH1 0x44 DUP3 ADD MSTORE PUSH6 0x18481C1BDBDB PUSH1 0xD2 SHL PUSH1 0x64 DUP3 ADD MSTORE PUSH1 0x84 ADD JUMPDEST PUSH1 0x40 MLOAD DUP1 SWAP2 SUB SWAP1 REVERT JUMPDEST PUSH32 0x0 PUSH1 0x1 PUSH1 0x1 PUSH1 0xA0 SHL SUB AND PUSH4 0xDBCD89FA PUSH1 0x40 MLOAD DUP2 PUSH4 0xFFFFFFFF AND PUSH1 0xE0 SHL DUP2 MSTORE PUSH1 0x4 ADD PUSH1 0x20 PUSH1 0x40 MLOAD DUP1 DUP4 SUB DUP2 DUP7 GAS STATICCALL ISZERO DUP1 ISZERO PUSH2 0x8BD JUMPI RETURNDATASIZE PUSH1 0x0 DUP1 RETURNDATACOPY RETURNDATASIZE PUSH1 0x0 REVERT JUMPDEST POP POP POP POP PUSH1 0x40 MLOAD RETURNDATASIZE PUSH1 0x1F NOT PUSH1 0x1F DUP3 ADD AND DUP3 ADD DUP1 PUSH1 0x40 MSTORE POP DUP2 ADD SWAP1 PUSH2 0x8E1 SWAP2 SWAP1 PUSH2 0x1DF5 JUMP JUMPDEST PUSH1 0x1 PUSH1 0x1 PUSH1 0xA0 SHL SUB AND PUSH4 0x73C96394 DUP4 DUP4 DUP2 MLOAD DUP2 LT PUSH2 0x901 JUMPI PUSH2 0x901 PUSH2 0x1FA3 JUMP JUMPDEST PUSH1 0x20 MUL PUSH1 0x20 ADD ADD MLOAD DUP6 PUSH1 0x40 MLOAD DUP4 PUSH4 0xFFFFFFFF AND PUSH1 0xE0 SHL DUP2 MSTORE PUSH1 0x4 ADD PUSH2 0x93C SWAP3 SWAP2 SWAP1 PUSH1 0x1 PUSH1 0x1 PUSH1 0xA0 SHL SUB SWAP3 DUP4 AND DUP2 MSTORE SWAP2 AND PUSH1 0x20 DUP3 ADD MSTORE PUSH1 0x40 ADD SWAP1 JUMP JUMPDEST PUSH1 0x20 PUSH1 0x40 MLOAD DUP1 DUP4 SUB DUP2 DUP7 GAS STATICCALL ISZERO DUP1 ISZERO PUSH2 0x959 JUMPI RETURNDATASIZE PUSH1 0x0 DUP1 RETURNDATACOPY RETURNDATASIZE PUSH1 0x0 REVERT JUMPDEST POP POP POP POP PUSH1 0x40 MLOAD RETURNDATASIZE PUSH1 0x1F NOT PUSH1 0x1F DUP3 ADD AND DUP3 ADD DUP1 PUSH1 0x40 MSTORE POP DUP2 ADD SWAP1 PUSH2 0x97D SWAP2 SWAP1 PUSH2 0x1FB9 JUMP JUMPDEST PUSH2 0x9D7 JUMPI PUSH1 0x40 MLOAD PUSH3 0x461BCD PUSH1 0xE5 SHL DUP2 MSTORE PUSH1 0x20 PUSH1 0x4 DUP3 ADD MSTORE PUSH1 0x25 PUSH1 0x24 DUP3 ADD MSTORE PUSH32 0x6E65772068616E646C6572206E6F74207265676973746572656420666F722061 PUSH1 0x44 DUP3 ADD MSTORE PUSH5 0x81C1BDBDB PUSH1 0xDA SHL PUSH1 0x64 DUP3 ADD MSTORE PUSH1 0x84 ADD PUSH2 0x856 JUMP JUMPDEST ADDRESS PUSH1 0x1 PUSH1 0x1 PUSH1 0xA0 SHL SUB AND DUP4 PUSH1 0x1 PUSH1 0x1 PUSH1 0xA0 SHL SUB AND PUSH4 0x603293F1 PUSH1 0x40 MLOAD DUP2 PUSH4 0xFFFFFFFF AND PUSH1 0xE0 SHL DUP2 MSTORE PUSH1 0x4 ADD PUSH1 0x20 PUSH1 0x40 MLOAD DUP1 DUP4 SUB DUP2 DUP7 GAS STATICCALL ISZERO DUP1 ISZERO PUSH2 0xA1F JUMPI RETURNDATASIZE PUSH1 0x0 DUP1 RETURNDATACOPY RETURNDATASIZE PUSH1 0x0 REVERT JUMPDEST POP POP POP POP PUSH1 0x40 MLOAD RETURNDATASIZE PUSH1 0x1F NOT PUSH1 0x1F DUP3 ADD AND DUP3 ADD DUP1 PUSH1 0x40 MSTORE POP DUP2 ADD SWAP1 PUSH2 0xA43 SWAP2 SWAP1 PUSH2 0x1DF5 JUMP JUMPDEST PUSH1 0x1 PUSH1 0x1 PUSH1 0xA0 SHL SUB AND EQ PUSH2 0xA99 JUMPI PUSH1 0x40 MLOAD PUSH3 0x461BCD PUSH1 0xE5 SHL DUP2 MSTORE PUSH1 0x20 PUSH1 0x4 DUP3 ADD MSTORE PUSH1 0x1F PUSH1 0x24 DUP3 ADD MSTORE PUSH32 0x70726576696F75735265776172647348616E646C6572206D69736D6174636800 PUSH1 0x44 DUP3 ADD MSTORE PUSH1 0x64 ADD PUSH2 0x856 JUMP JUMPDEST PUSH1 0x1 SLOAD DUP4 PUSH1 0x1 PUSH1 0x1 PUSH1 0xA0 SHL SUB AND PUSH4 0xD7CFBDF3 PUSH1 0x40 MLOAD DUP2 PUSH4 0xFFFFFFFF AND PUSH1 0xE0 SHL DUP2 MSTORE PUSH1 0x4 ADD PUSH1 0x20 PUSH1 0x40 MLOAD DUP1 DUP4 SUB DUP2 DUP7 GAS STATICCALL ISZERO DUP1 ISZERO PUSH2 0xADA JUMPI RETURNDATASIZE PUSH1 0x0 DUP1 RETURNDATACOPY RETURNDATASIZE PUSH1 0x0 REVERT JUMPDEST POP POP POP POP PUSH1 0x40 MLOAD RETURNDATASIZE PUSH1 0x1F NOT PUSH1 0x1F DUP3 ADD AND DUP3 ADD DUP1 PUSH1 0x40 MSTORE POP DUP2 ADD SWAP1 PUSH2 0xAFE SWAP2 SWAP1 PUSH2 0x1E35 JUMP JUMPDEST EQ PUSH2 0xB4B JUMPI PUSH1 0x40 MLOAD PUSH3 0x461BCD PUSH1 0xE5 SHL DUP2 MSTORE PUSH1 0x20 PUSH1 0x4 DUP3 ADD MSTORE PUSH1 0x17 PUSH1 0x24 DUP3 ADD MSTORE PUSH32 0x746F74616C436E634D696E746564206D69736D61746368000000000000000000 PUSH1 0x44 DUP3 ADD MSTORE PUSH1 0x64 ADD PUSH2 0x856 JUMP JUMPDEST DUP1 PUSH2 0xB55 DUP2 PUSH2 0x1FDB JUMP JUMPDEST SWAP2 POP POP PUSH2 0x6DA JUMP JUMPDEST POP PUSH1 0x40 MLOAD PUSH4 0x4C1D96AB PUSH1 0xE1 SHL DUP2 MSTORE PUSH1 0x1 PUSH1 0x1 PUSH1 0xA0 SHL SUB DUP4 DUP2 AND PUSH1 0x4 DUP4 ADD MSTORE PUSH32 0x0 AND SWAP1 PUSH4 0x983B2D56 SWAP1 PUSH1 0x24 ADD PUSH1 0x0 PUSH1 0x40 MLOAD DUP1 DUP4 SUB DUP2 PUSH1 0x0 DUP8 DUP1 EXTCODESIZE ISZERO DUP1 ISZERO PUSH2 0xBC1 JUMPI PUSH1 0x0 DUP1 REVERT JUMPDEST POP GAS CALL ISZERO DUP1 ISZERO PUSH2 0xBD5 JUMPI RETURNDATASIZE PUSH1 0x0 DUP1 RETURNDATACOPY RETURNDATASIZE PUSH1 0x0 REVERT JUMPDEST POP POP POP POP PUSH32 0x0 PUSH1 0x1 PUSH1 0x1 PUSH1 0xA0 SHL SUB AND PUSH4 0x70E9749A PUSH1 0x40 MLOAD DUP2 PUSH4 0xFFFFFFFF AND PUSH1 0xE0 SHL DUP2 MSTORE PUSH1 0x4 ADD PUSH1 0x0 PUSH1 0x40 MLOAD DUP1 DUP4 SUB DUP2 PUSH1 0x0 DUP8 DUP1 EXTCODESIZE ISZERO DUP1 ISZERO PUSH2 0xC34 JUMPI PUSH1 0x0 DUP1 REVERT JUMPDEST POP GAS CALL ISZERO DUP1 ISZERO PUSH2 0xC48 JUMPI RETURNDATASIZE PUSH1 0x0 DUP1 RETURNDATACOPY RETURNDATASIZE PUSH1 0x0 REVERT JUMPDEST POP POP POP POP POP POP JUMP JUMPDEST PUSH1 0x40 MLOAD PUSH4 0x5B16EBB7 PUSH1 0xE0 SHL DUP2 MSTORE PUSH1 0x1 PUSH1 0x1 PUSH1 0xA0 SHL SUB DUP6 DUP2 AND PUSH1 0x4 DUP4 ADD MSTORE PUSH1 0x0 SWAP2 DUP3 SWAP2 PUSH32 0x0 AND SWAP1 PUSH4 0x5B16EBB7 SWAP1 PUSH1 0x24 ADD PUSH1 0x20 PUSH1 0x40 MLOAD DUP1 DUP4 SUB DUP2 DUP7 GAS STATICCALL ISZERO DUP1 ISZERO PUSH2 0xCBB JUMPI RETURNDATASIZE PUSH1 0x0 DUP1 RETURNDATACOPY RETURNDATASIZE PUSH1 0x0 REVERT JUMPDEST POP POP POP POP PUSH1 0x40 MLOAD RETURNDATASIZE PUSH1 0x1F NOT PUSH1 0x1F DUP3 ADD AND DUP3 ADD DUP1 PUSH1 0x40 MSTORE POP DUP2 ADD SWAP1 PUSH2 0xCDF SWAP2 SWAP1 PUSH2 0x1FB9 JUMP JUMPDEST PUSH2 0xD18 JUMPI PUSH1 0x40 MLOAD PUSH3 0x461BCD PUSH1 0xE5 SHL DUP2 MSTORE PUSH1 0x20 PUSH1 0x4 DUP3 ADD MSTORE PUSH1 0xA PUSH1 0x24 DUP3 ADD MSTORE PUSH10 0x1B9BDD0818481C1BDBDB PUSH1 0xB2 SHL PUSH1 0x44 DUP3 ADD MSTORE PUSH1 0x64 ADD PUSH2 0x856 JUMP JUMPDEST PUSH1 0x0 DUP7 SWAP1 POP PUSH1 0x0 DUP2 PUSH1 0x1 PUSH1 0x1 PUSH1 0xA0 SHL SUB AND PUSH4 0x9E486562 PUSH1 0x40 MLOAD DUP2 PUSH4 0xFFFFFFFF AND PUSH1 0xE0 SHL DUP2 MSTORE PUSH1 0x4 ADD PUSH1 0x20 PUSH1 0x40 MLOAD DUP1 DUP4 SUB DUP2 DUP7 GAS STATICCALL ISZERO DUP1 ISZERO PUSH2 0xD5D JUMPI RETURNDATASIZE PUSH1 0x0 DUP1 RETURNDATACOPY RETURNDATASIZE PUSH1 0x0 REVERT JUMPDEST POP POP POP POP PUSH1 0x40 MLOAD RETURNDATASIZE PUSH1 0x1F NOT PUSH1 0x1F DUP3 ADD AND DUP3 ADD DUP1 PUSH1 0x40 MSTORE POP DUP2 ADD SWAP1 PUSH2 0xD81 SWAP2 SWAP1 PUSH2 0x1FB9 JUMP JUMPDEST SWAP1 POP PUSH1 0x0 DUP3 PUSH1 0x1 PUSH1 0x1 PUSH1 0xA0 SHL SUB AND PUSH4 0x6F307DC3 PUSH1 0x40 MLOAD DUP2 PUSH4 0xFFFFFFFF AND PUSH1 0xE0 SHL DUP2 MSTORE PUSH1 0x4 ADD PUSH1 0x20 PUSH1 0x40 MLOAD DUP1 DUP4 SUB DUP2 DUP7 GAS STATICCALL ISZERO DUP1 ISZERO PUSH2 0xDC3 JUMPI RETURNDATASIZE PUSH1 0x0 DUP1 RETURNDATACOPY RETURNDATASIZE PUSH1 0x0 REVERT JUMPDEST POP POP POP POP PUSH1 0x40 MLOAD RETURNDATASIZE PUSH1 0x1F NOT PUSH1 0x1F DUP3 ADD AND DUP3 ADD DUP1 PUSH1 0x40 MSTORE POP DUP2 ADD SWAP1 PUSH2 0xDE7 SWAP2 SWAP1 PUSH2 0x1DF5 JUMP JUMPDEST PUSH1 0x40 MLOAD PUSH4 0x70A08231 PUSH1 0xE0 SHL DUP2 MSTORE CALLER PUSH1 0x4 DUP3 ADD MSTORE SWAP1 SWAP2 POP DUP9 SWAP1 PUSH1 0x1 PUSH1 0x1 PUSH1 0xA0 SHL SUB DUP4 AND SWAP1 PUSH4 0x70A08231 SWAP1 PUSH1 0x24 ADD PUSH1 0x20 PUSH1 0x40 MLOAD DUP1 DUP4 SUB DUP2 DUP7 GAS STATICCALL ISZERO DUP1 ISZERO PUSH2 0xE30 JUMPI RETURNDATASIZE PUSH1 0x0 DUP1 RETURNDATACOPY RETURNDATASIZE PUSH1 0x0 REVERT JUMPDEST POP POP POP POP PUSH1 0x40 MLOAD RETURNDATASIZE PUSH1 0x1F NOT PUSH1 0x1F DUP3 ADD AND DUP3 ADD DUP1 PUSH1 0x40 MSTORE POP DUP2 ADD SWAP1 PUSH2 0xE54 SWAP2 SWAP1 PUSH2 0x1E35 JUMP JUMPDEST LT ISZERO PUSH2 0xEA2 JUMPI PUSH1 0x40 MLOAD PUSH3 0x461BCD PUSH1 0xE5 SHL DUP2 MSTORE PUSH1 0x20 PUSH1 0x4 DUP3 ADD MSTORE PUSH1 0x17 PUSH1 0x24 DUP3 ADD MSTORE PUSH32 0x696E73756666696369656E7420756E6465726C79696E67000000000000000000 PUSH1 0x44 DUP3 ADD MSTORE PUSH1 0x64 ADD PUSH2 0x856 JUMP JUMPDEST PUSH1 0x0 DUP4 PUSH1 0x1 PUSH1 0x1 PUSH1 0xA0 SHL SUB AND PUSH4 0x83645ABF PUSH1 0x40 MLOAD DUP2 PUSH4 0xFFFFFFFF AND PUSH1 0xE0 SHL DUP2 MSTORE PUSH1 0x4 ADD PUSH1 0x20 PUSH1 0x40 MLOAD DUP1 DUP4 SUB DUP2 DUP7 GAS STATICCALL ISZERO DUP1 ISZERO PUSH2 0xEE2 JUMPI RETURNDATASIZE PUSH1 0x0 DUP1 RETURNDATACOPY RETURNDATASIZE PUSH1 0x0 REVERT JUMPDEST POP POP POP POP PUSH1 0x40 MLOAD RETURNDATASIZE PUSH1 0x1F NOT PUSH1 0x1F DUP3 ADD AND DUP3 ADD DUP1 PUSH1 0x40 MSTORE POP DUP2 ADD SWAP1 PUSH2 0xF06 SWAP2 SWAP1 PUSH2 0x1E35 JUMP JUMPDEST SWAP1 POP PUSH2 0xF1D PUSH1 0x1 PUSH1 0x1 PUSH1 0xA0 SHL SUB DUP4 AND CALLER ADDRESS DUP13 PUSH2 0x16EB JUMP JUMPDEST PUSH2 0xF31 PUSH1 0x1 PUSH1 0x1 PUSH1 0xA0 SHL SUB DUP4 AND DUP12 DUP12 PUSH2 0x1756 JUMP JUMPDEST PUSH1 0x3 DUP1 SLOAD PUSH1 0xFF NOT AND PUSH1 0x1 OR SWAP1 SSTORE PUSH1 0x40 MLOAD PUSH4 0x21D06833 PUSH1 0xE1 SHL DUP2 MSTORE PUSH1 0x4 DUP2 ADD DUP11 SWAP1 MSTORE PUSH1 0x0 PUSH1 0x24 DUP3 ADD DUP2 SWAP1 MSTORE PUSH1 0x44 DUP3 ADD DUP2 SWAP1 MSTORE SWAP1 PUSH1 0x1 PUSH1 0x1 PUSH1 0xA0 SHL SUB DUP7 AND SWAP1 PUSH4 0x43A0D066 SWAP1 PUSH1 0x64 ADD PUSH1 0x20 PUSH1 0x40 MLOAD DUP1 DUP4 SUB DUP2 PUSH1 0x0 DUP8 GAS CALL ISZERO DUP1 ISZERO PUSH2 0xF96 JUMPI RETURNDATASIZE PUSH1 0x0 DUP1 RETURNDATACOPY RETURNDATASIZE PUSH1 0x0 REVERT JUMPDEST POP POP POP POP PUSH1 0x40 MLOAD RETURNDATASIZE PUSH1 0x1F NOT PUSH1 0x1F DUP3 ADD AND DUP3 ADD DUP1 PUSH1 0x40 MSTORE POP DUP2 ADD SWAP1 PUSH2 0xFBA SWAP2 SWAP1 PUSH2 0x1E35 JUMP JUMPDEST PUSH1 0x3 DUP1 SLOAD PUSH1 0xFF NOT AND SWAP1 SSTORE PUSH1 0x40 MLOAD PUSH4 0x441A3E7 PUSH1 0xE4 SHL DUP2 MSTORE PUSH1 0x4 DUP2 ADD DUP3 SWAP1 MSTORE PUSH1 0x0 PUSH1 0x24 DUP3 ADD MSTORE SWAP1 SWAP2 POP PUSH1 0x1 PUSH1 0x1 PUSH1 0xA0 SHL SUB DUP7 AND SWAP1 PUSH4 0x441A3E70 SWAP1 PUSH1 0x44 ADD PUSH1 0x20 PUSH1 0x40 MLOAD DUP1 DUP4 SUB DUP2 PUSH1 0x0 DUP8 GAS CALL ISZERO DUP1 ISZERO PUSH2 0x1015 JUMPI RETURNDATASIZE PUSH1 0x0 DUP1 RETURNDATACOPY RETURNDATASIZE PUSH1 0x0 REVERT JUMPDEST POP POP POP POP PUSH1 0x40 MLOAD RETURNDATASIZE PUSH1 0x1F NOT PUSH1 0x1F DUP3 ADD AND DUP3 ADD DUP1 PUSH1 0x40 MSTORE POP DUP2 ADD SWAP1 PUSH2 0x1039 SWAP2 SWAP1 PUSH2 0x1E35 JUMP JUMPDEST SWAP7 POP DUP9 DUP8 LT ISZERO PUSH2 0x108B JUMPI PUSH1 0x40 MLOAD PUSH3 0x461BCD PUSH1 0xE5 SHL DUP2 MSTORE PUSH1 0x20 PUSH1 0x4 DUP3 ADD DUP2 SWAP1 MSTORE PUSH1 0x24 DUP3 ADD MSTORE PUSH32 0x696E73756666696369656E7420756E6465726C79696E67207265636569766564 PUSH1 0x44 DUP3 ADD MSTORE PUSH1 0x64 ADD PUSH2 0x856 JUMP JUMPDEST PUSH1 0x40 MLOAD PUSH4 0x70A08231 PUSH1 0xE0 SHL DUP2 MSTORE CALLER PUSH1 0x4 DUP3 ADD MSTORE PUSH1 0x0 SWAP1 PUSH32 0x0 PUSH1 0x1 PUSH1 0x1 PUSH1 0xA0 SHL SUB AND SWAP1 PUSH4 0x70A08231 SWAP1 PUSH1 0x24 ADD PUSH1 0x20 PUSH1 0x40 MLOAD DUP1 DUP4 SUB DUP2 DUP7 GAS STATICCALL ISZERO DUP1 ISZERO PUSH2 0x10F2 JUMPI RETURNDATASIZE PUSH1 0x0 DUP1 RETURNDATACOPY RETURNDATASIZE PUSH1 0x0 REVERT JUMPDEST POP POP POP POP PUSH1 0x40 MLOAD RETURNDATASIZE PUSH1 0x1F NOT PUSH1 0x1F DUP3 ADD AND DUP3 ADD DUP1 PUSH1 0x40 MSTORE POP DUP2 ADD SWAP1 PUSH2 0x1116 SWAP2 SWAP1 PUSH2 0x1E35 JUMP JUMPDEST SWAP1 POP DUP5 ISZERO PUSH2 0x1192 JUMPI PUSH1 0x0 DUP7 PUSH1 0x1 PUSH1 0x1 PUSH1 0xA0 SHL SUB AND PUSH4 0x83645ABF PUSH1 0x40 MLOAD DUP2 PUSH4 0xFFFFFFFF AND PUSH1 0xE0 SHL DUP2 MSTORE PUSH1 0x4 ADD PUSH1 0x20 PUSH1 0x40 MLOAD DUP1 DUP4 SUB DUP2 DUP7 GAS STATICCALL ISZERO DUP1 ISZERO PUSH2 0x115E JUMPI RETURNDATASIZE PUSH1 0x0 DUP1 RETURNDATACOPY RETURNDATASIZE PUSH1 0x0 REVERT JUMPDEST POP POP POP POP PUSH1 0x40 MLOAD RETURNDATASIZE PUSH1 0x1F NOT PUSH1 0x1F DUP3 ADD AND DUP3 ADD DUP1 PUSH1 0x40 MSTORE POP DUP2 ADD SWAP1 PUSH2 0x1182 SWAP2 SWAP1 PUSH2 0x1E35 JUMP JUMPDEST SWAP1 POP PUSH2 0x1190 DUP8 CALLER DUP7 DUP5 PUSH2 0x17E5 JUMP JUMPDEST POP JUMPDEST PUSH1 0x40 MLOAD PUSH4 0x70A08231 PUSH1 0xE0 SHL DUP2 MSTORE CALLER PUSH1 0x4 DUP3 ADD MSTORE DUP2 SWAP1 PUSH32 0x0 PUSH1 0x1 PUSH1 0x1 PUSH1 0xA0 SHL SUB AND SWAP1 PUSH4 0x70A08231 SWAP1 PUSH1 0x24 ADD PUSH1 0x20 PUSH1 0x40 MLOAD DUP1 DUP4 SUB DUP2 DUP7 GAS STATICCALL ISZERO DUP1 ISZERO PUSH2 0x11F8 JUMPI RETURNDATASIZE PUSH1 0x0 DUP1 RETURNDATACOPY RETURNDATASIZE PUSH1 0x0 REVERT JUMPDEST POP POP POP POP PUSH1 0x40 MLOAD RETURNDATASIZE PUSH1 0x1F NOT PUSH1 0x1F DUP3 ADD AND DUP3 ADD DUP1 PUSH1 0x40 MSTORE POP DUP2 ADD SWAP1 PUSH2 0x121C SWAP2 SWAP1 PUSH2 0x1E35 JUMP JUMPDEST PUSH2 0x1226 SWAP2 SWAP1 PUSH2 0x1E8E JUMP JUMPDEST SWAP7 POP DUP9 DUP8 LT ISZERO PUSH2 0x1278 JUMPI PUSH1 0x40 MLOAD PUSH3 0x461BCD PUSH1 0xE5 SHL DUP2 MSTORE PUSH1 0x20 PUSH1 0x4 DUP3 ADD MSTORE PUSH1 0x19 PUSH1 0x24 DUP3 ADD MSTORE PUSH32 0x696E73756666696369656E7420434E4320726563656976656400000000000000 PUSH1 0x44 DUP3 ADD MSTORE PUSH1 0x64 ADD PUSH2 0x856 JUMP JUMPDEST PUSH2 0x128C PUSH1 0x1 PUSH1 0x1 PUSH1 0xA0 SHL SUB DUP6 AND CALLER DUP11 PUSH2 0x1810 JUMP JUMPDEST POP POP POP POP POP POP SWAP5 POP SWAP5 SWAP3 POP POP POP JUMP JUMPDEST PUSH2 0x12A3 PUSH2 0x1691 JUMP JUMPDEST PUSH2 0x12AD PUSH1 0x0 PUSH2 0x1845 JUMP JUMPDEST JUMP JUMPDEST PUSH2 0x12B7 PUSH2 0x1691 JUMP JUMPDEST PUSH1 0x0 SLOAD PUSH1 0x1 PUSH1 0xA8 SHL SWAP1 DIV PUSH1 0xFF AND ISZERO DUP1 DUP1 ISZERO PUSH2 0x12DF JUMPI POP PUSH1 0x0 SLOAD PUSH1 0x1 PUSH1 0x1 PUSH1 0xA0 SHL SWAP1 SWAP2 DIV PUSH1 0xFF AND LT JUMPDEST DUP1 PUSH2 0x1300 JUMPI POP ADDRESS EXTCODESIZE ISZERO DUP1 ISZERO PUSH2 0x1300 JUMPI POP PUSH1 0x0 SLOAD PUSH1 0x1 PUSH1 0xA0 SHL SWAP1 DIV PUSH1 0xFF AND PUSH1 0x1 EQ JUMPDEST PUSH2 0x1363 JUMPI PUSH1 0x40 MLOAD PUSH3 0x461BCD PUSH1 0xE5 SHL DUP2 MSTORE PUSH1 0x20 PUSH1 0x4 DUP3 ADD MSTORE PUSH1 0x2E PUSH1 0x24 DUP3 ADD MSTORE PUSH32 0x496E697469616C697A61626C653A20636F6E747261637420697320616C726561 PUSH1 0x44 DUP3 ADD MSTORE PUSH14 0x191E481A5B9A5D1A585B1A5E9959 PUSH1 0x92 SHL PUSH1 0x64 DUP3 ADD MSTORE PUSH1 0x84 ADD PUSH2 0x856 JUMP JUMPDEST PUSH1 0x0 DUP1 SLOAD PUSH1 0xFF PUSH1 0xA0 SHL NOT AND PUSH1 0x1 PUSH1 0xA0 SHL OR SWAP1 SSTORE DUP1 ISZERO PUSH2 0x1390 JUMPI PUSH1 0x0 DUP1 SLOAD PUSH1 0xFF PUSH1 0xA8 SHL NOT AND PUSH1 0x1 PUSH1 0xA8 SHL OR SWAP1 SSTORE JUMPDEST PUSH32 0x0 PUSH1 0x1 PUSH1 0x1 PUSH1 0xA0 SHL SUB AND PUSH4 0xD7CFBDF3 PUSH1 0x40 MLOAD DUP2 PUSH4 0xFFFFFFFF AND PUSH1 0xE0 SHL DUP2 MSTORE PUSH1 0x4 ADD PUSH1 0x20 PUSH1 0x40 MLOAD DUP1 DUP4 SUB DUP2 DUP7 GAS STATICCALL ISZERO DUP1 ISZERO PUSH2 0x13EE JUMPI RETURNDATASIZE PUSH1 0x0 DUP1 RETURNDATACOPY RETURNDATASIZE PUSH1 0x0 REVERT JUMPDEST POP POP POP POP PUSH1 0x40 MLOAD RETURNDATASIZE PUSH1 0x1F NOT PUSH1 0x1F DUP3 ADD AND DUP3 ADD DUP1 PUSH1 0x40 MSTORE POP DUP2 ADD SWAP1 PUSH2 0x1412 SWAP2 SWAP1 PUSH2 0x1E35 JUMP JUMPDEST PUSH1 0x1 SSTORE DUP1 ISZERO PUSH2 0x145E JUMPI PUSH1 0x0 DUP1 SLOAD PUSH1 0xFF PUSH1 0xA8 SHL NOT AND SWAP1 SSTORE PUSH1 0x40 MLOAD PUSH1 0x1 DUP2 MSTORE PUSH32 0x7F26B83FF96E1F2B6A682F133852F6798A09C465DA95921460CEFB3847402498 SWAP1 PUSH1 0x20 ADD JUMPDEST PUSH1 0x40 MLOAD DUP1 SWAP2 SUB SWAP1 LOG1 JUMPDEST POP JUMP JUMPDEST PUSH2 0x1469 PUSH2 0x1691 JUMP JUMPDEST PUSH1 0x2 DUP2 SWAP1 SSTORE PUSH1 0x40 MLOAD DUP2 DUP2 MSTORE PUSH32 0x52E5EA693F3343BEF45800ECEC3DD0C08E360E7C6E3A589A8FA2E4EE226C8A12 SWAP1 PUSH1 0x20 ADD PUSH2 0x1455 JUMP JUMPDEST PUSH2 0x14A6 PUSH2 0x1691 JUMP JUMPDEST PUSH1 0x1 PUSH1 0x1 PUSH1 0xA0 SHL SUB DUP2 AND PUSH2 0x150B JUMPI PUSH1 0x40 MLOAD PUSH3 0x461BCD PUSH1 0xE5 SHL DUP2 MSTORE PUSH1 0x20 PUSH1 0x4 DUP3 ADD MSTORE PUSH1 0x26 PUSH1 0x24 DUP3 ADD MSTORE PUSH32 0x4F776E61626C653A206E6577206F776E657220697320746865207A65726F2061 PUSH1 0x44 DUP3 ADD MSTORE PUSH6 0x646472657373 PUSH1 0xD0 SHL PUSH1 0x64 DUP3 ADD MSTORE PUSH1 0x84 ADD PUSH2 0x856 JUMP JUMPDEST PUSH2 0x145E DUP2 PUSH2 0x1845 JUMP JUMPDEST PUSH32 0x0 PUSH1 0x1 PUSH1 0x1 PUSH1 0xA0 SHL SUB AND PUSH4 0xDBCD89FA PUSH1 0x40 MLOAD DUP2 PUSH4 0xFFFFFFFF AND PUSH1 0xE0 SHL DUP2 MSTORE PUSH1 0x4 ADD PUSH1 0x20 PUSH1 0x40 MLOAD DUP1 DUP4 SUB DUP2 DUP7 GAS STATICCALL ISZERO DUP1 ISZERO PUSH2 0x1572 JUMPI RETURNDATASIZE PUSH1 0x0 DUP1 RETURNDATACOPY RETURNDATASIZE PUSH1 0x0 REVERT JUMPDEST POP POP POP POP PUSH1 0x40 MLOAD RETURNDATASIZE PUSH1 0x1F NOT PUSH1 0x1F DUP3 ADD AND DUP3 ADD DUP1 PUSH1 0x40 MSTORE POP DUP2 ADD SWAP1 PUSH2 0x1596 SWAP2 SWAP1 PUSH2 0x1DF5 JUMP JUMPDEST PUSH1 0x1 PUSH1 0x1 PUSH1 0xA0 SHL SUB AND CALLER PUSH1 0x1 PUSH1 0x1 PUSH1 0xA0 SHL SUB AND EQ PUSH2 0x160B JUMPI PUSH1 0x40 MLOAD PUSH3 0x461BCD PUSH1 0xE5 SHL DUP2 MSTORE PUSH1 0x20 PUSH1 0x4 DUP3 ADD MSTORE PUSH1 0x2C PUSH1 0x24 DUP3 ADD MSTORE PUSH32 0x6F6E6C7920496E666C6174696F6E4D616E616765722063616E2063616C6C2074 PUSH1 0x44 DUP3 ADD MSTORE PUSH12 0x3434B990333AB731BA34B7B7 PUSH1 0xA1 SHL PUSH1 0x64 DUP3 ADD MSTORE PUSH1 0x84 ADD PUSH2 0x856 JUMP JUMPDEST PUSH2 0x1617 DUP5 DUP5 DUP5 DUP5 PUSH2 0x17E5 JUMP JUMPDEST POP POP POP POP JUMP JUMPDEST PUSH1 0x0 DUP2 PUSH1 0xFF AND DUP4 PUSH1 0xFF AND SUB PUSH2 0x1633 JUMPI POP DUP3 PUSH2 0x63E JUMP JUMPDEST DUP2 PUSH1 0xFF AND DUP4 PUSH1 0xFF AND GT ISZERO PUSH2 0x1653 JUMPI PUSH2 0x164C DUP5 DUP5 DUP5 PUSH2 0x1895 JUMP JUMPDEST SWAP1 POP PUSH2 0x63E JUMP JUMPDEST PUSH2 0x165E DUP5 DUP5 DUP5 PUSH2 0x18B6 JUMP JUMPDEST SWAP5 SWAP4 POP POP POP POP JUMP JUMPDEST PUSH1 0x0 PUSH2 0x1674 PUSH1 0x12 PUSH1 0xA PUSH2 0x20D8 JUMP JUMPDEST PUSH2 0x167E DUP4 DUP6 PUSH2 0x1EA1 JUMP JUMPDEST PUSH2 0x1688 SWAP2 SWAP1 PUSH2 0x20E4 JUMP JUMPDEST SWAP1 POP JUMPDEST SWAP3 SWAP2 POP POP JUMP JUMPDEST PUSH1 0x0 SLOAD PUSH1 0x1 PUSH1 0x1 PUSH1 0xA0 SHL SUB AND CALLER EQ PUSH2 0x12AD JUMPI PUSH1 0x40 MLOAD PUSH3 0x461BCD PUSH1 0xE5 SHL DUP2 MSTORE PUSH1 0x20 PUSH1 0x4 DUP3 ADD DUP2 SWAP1 MSTORE PUSH1 0x24 DUP3 ADD MSTORE PUSH32 0x4F776E61626C653A2063616C6C6572206973206E6F7420746865206F776E6572 PUSH1 0x44 DUP3 ADD MSTORE PUSH1 0x64 ADD PUSH2 0x856 JUMP JUMPDEST PUSH1 0x40 MLOAD PUSH1 0x1 PUSH1 0x1 PUSH1 0xA0 SHL SUB DUP1 DUP6 AND PUSH1 0x24 DUP4 ADD MSTORE DUP4 AND PUSH1 0x44 DUP3 ADD MSTORE PUSH1 0x64 DUP2 ADD DUP3 SWAP1 MSTORE PUSH2 0x1617 SWAP1 DUP6 SWAP1 PUSH4 0x23B872DD PUSH1 0xE0 SHL SWAP1 PUSH1 0x84 ADD JUMPDEST PUSH1 0x40 DUP1 MLOAD PUSH1 0x1F NOT DUP2 DUP5 SUB ADD DUP2 MSTORE SWAP2 SWAP1 MSTORE PUSH1 0x20 DUP2 ADD DUP1 MLOAD PUSH1 0x1 PUSH1 0x1 PUSH1 0xE0 SHL SUB AND PUSH1 0x1 PUSH1 0x1 PUSH1 0xE0 SHL SUB NOT SWAP1 SWAP4 AND SWAP3 SWAP1 SWAP3 OR SWAP1 SWAP2 MSTORE PUSH2 0x18D7 JUMP JUMPDEST PUSH1 0x40 DUP1 MLOAD PUSH1 0x1 PUSH1 0x1 PUSH1 0xA0 SHL SUB DUP5 AND PUSH1 0x24 DUP3 ADD MSTORE PUSH1 0x44 DUP1 DUP3 ADD DUP5 SWAP1 MSTORE DUP3 MLOAD DUP1 DUP4 SUB SWAP1 SWAP2 ADD DUP2 MSTORE PUSH1 0x64 SWAP1 SWAP2 ADD SWAP1 SWAP2 MSTORE PUSH1 0x20 DUP2 ADD DUP1 MLOAD PUSH1 0x1 PUSH1 0x1 PUSH1 0xE0 SHL SUB AND PUSH4 0x95EA7B3 PUSH1 0xE0 SHL OR SWAP1 MSTORE PUSH2 0x17A7 DUP5 DUP3 PUSH2 0x19AC JUMP JUMPDEST PUSH2 0x1617 JUMPI PUSH1 0x40 MLOAD PUSH1 0x1 PUSH1 0x1 PUSH1 0xA0 SHL SUB DUP5 AND PUSH1 0x24 DUP3 ADD MSTORE PUSH1 0x0 PUSH1 0x44 DUP3 ADD MSTORE PUSH2 0x17DB SWAP1 DUP6 SWAP1 PUSH4 0x95EA7B3 PUSH1 0xE0 SHL SWAP1 PUSH1 0x64 ADD PUSH2 0x171F JUMP JUMPDEST PUSH2 0x1617 DUP5 DUP3 PUSH2 0x18D7 JUMP JUMPDEST PUSH1 0x3 SLOAD PUSH1 0xFF AND PUSH2 0x1617 JUMPI PUSH1 0x0 PUSH2 0x17FC DUP6 DUP5 DUP5 PUSH2 0x24B JUMP JUMPDEST SWAP1 POP PUSH2 0x1809 DUP6 DUP6 DUP4 PUSH2 0x1A53 JUMP JUMPDEST POP POP POP POP POP JUMP JUMPDEST PUSH1 0x40 MLOAD PUSH1 0x1 PUSH1 0x1 PUSH1 0xA0 SHL SUB DUP4 AND PUSH1 0x24 DUP3 ADD MSTORE PUSH1 0x44 DUP2 ADD DUP3 SWAP1 MSTORE PUSH2 0x1840 SWAP1 DUP5 SWAP1 PUSH4 0xA9059CBB PUSH1 0xE0 SHL SWAP1 PUSH1 0x64 ADD PUSH2 0x171F JUMP JUMPDEST POP POP POP JUMP JUMPDEST PUSH1 0x0 DUP1 SLOAD PUSH1 0x1 PUSH1 0x1 PUSH1 0xA0 SHL SUB DUP4 DUP2 AND PUSH1 0x1 PUSH1 0x1 PUSH1 0xA0 SHL SUB NOT DUP4 AND DUP2 OR DUP5 SSTORE PUSH1 0x40 MLOAD SWAP2 SWAP1 SWAP3 AND SWAP3 DUP4 SWAP2 PUSH32 0x8BE0079C531659141344CD1FD0A4F28419497F9722A3DAAFE3B4186F6B6457E0 SWAP2 SWAP1 LOG3 POP POP JUMP JUMPDEST PUSH1 0x0 PUSH2 0x18A1 DUP3 DUP5 PUSH2 0x2106 JUMP JUMPDEST PUSH2 0x18AC SWAP1 PUSH1 0xA PUSH2 0x211F JUMP JUMPDEST PUSH2 0x165E SWAP1 DUP6 PUSH2 0x20E4 JUMP JUMPDEST PUSH1 0x0 PUSH2 0x18C2 DUP4 DUP4 PUSH2 0x2106 JUMP JUMPDEST PUSH2 0x18CD SWAP1 PUSH1 0xA PUSH2 0x211F JUMP JUMPDEST PUSH2 0x165E SWAP1 DUP6 PUSH2 0x1EA1 JUMP JUMPDEST PUSH1 0x0 PUSH2 0x192C DUP3 PUSH1 0x40 MLOAD DUP1 PUSH1 0x40 ADD PUSH1 0x40 MSTORE DUP1 PUSH1 0x20 DUP2 MSTORE PUSH1 0x20 ADD PUSH32 0x5361666545524332303A206C6F772D6C6576656C2063616C6C206661696C6564 DUP2 MSTORE POP DUP6 PUSH1 0x1 PUSH1 0x1 PUSH1 0xA0 SHL SUB AND PUSH2 0x1BD1 SWAP1 SWAP3 SWAP2 SWAP1 PUSH4 0xFFFFFFFF AND JUMP JUMPDEST SWAP1 POP DUP1 MLOAD PUSH1 0x0 EQ DUP1 PUSH2 0x194D JUMPI POP DUP1 DUP1 PUSH1 0x20 ADD SWAP1 MLOAD DUP2 ADD SWAP1 PUSH2 0x194D SWAP2 SWAP1 PUSH2 0x1FB9 JUMP JUMPDEST PUSH2 0x1840 JUMPI PUSH1 0x40 MLOAD PUSH3 0x461BCD PUSH1 0xE5 SHL DUP2 MSTORE PUSH1 0x20 PUSH1 0x4 DUP3 ADD MSTORE PUSH1 0x2A PUSH1 0x24 DUP3 ADD MSTORE PUSH32 0x5361666545524332303A204552433230206F7065726174696F6E20646964206E PUSH1 0x44 DUP3 ADD MSTORE PUSH10 0x1BDD081CDD58D8D95959 PUSH1 0xB2 SHL PUSH1 0x64 DUP3 ADD MSTORE PUSH1 0x84 ADD PUSH2 0x856 JUMP JUMPDEST PUSH1 0x0 DUP1 PUSH1 0x0 DUP5 PUSH1 0x1 PUSH1 0x1 PUSH1 0xA0 SHL SUB AND DUP5 PUSH1 0x40 MLOAD PUSH2 0x19C9 SWAP2 SWAP1 PUSH2 0x2152 JUMP JUMPDEST PUSH1 0x0 PUSH1 0x40 MLOAD DUP1 DUP4 SUB DUP2 PUSH1 0x0 DUP7 GAS CALL SWAP2 POP POP RETURNDATASIZE DUP1 PUSH1 0x0 DUP2 EQ PUSH2 0x1A06 JUMPI PUSH1 0x40 MLOAD SWAP2 POP PUSH1 0x1F NOT PUSH1 0x3F RETURNDATASIZE ADD AND DUP3 ADD PUSH1 0x40 MSTORE RETURNDATASIZE DUP3 MSTORE RETURNDATASIZE PUSH1 0x0 PUSH1 0x20 DUP5 ADD RETURNDATACOPY PUSH2 0x1A0B JUMP JUMPDEST PUSH1 0x60 SWAP2 POP JUMPDEST POP SWAP2 POP SWAP2 POP DUP2 DUP1 ISZERO PUSH2 0x1A35 JUMPI POP DUP1 MLOAD ISZERO DUP1 PUSH2 0x1A35 JUMPI POP DUP1 DUP1 PUSH1 0x20 ADD SWAP1 MLOAD DUP2 ADD SWAP1 PUSH2 0x1A35 SWAP2 SWAP1 PUSH2 0x1FB9 JUMP JUMPDEST DUP1 ISZERO PUSH2 0x1A4A JUMPI POP PUSH1 0x1 PUSH1 0x1 PUSH1 0xA0 SHL SUB DUP6 AND EXTCODESIZE ISZERO ISZERO JUMPDEST SWAP6 SWAP5 POP POP POP POP POP JUMP JUMPDEST PUSH11 0x1925734D5B8904B800000 DUP2 PUSH1 0x1 SLOAD PUSH2 0x1A6D SWAP2 SWAP1 PUSH2 0x216E JUMP JUMPDEST GT ISZERO PUSH2 0x1A8E JUMPI PUSH1 0x1 SLOAD PUSH2 0x1A8B SWAP1 PUSH11 0x1925734D5B8904B800000 PUSH2 0x1E8E JUMP JUMPDEST SWAP1 POP JUMPDEST DUP1 PUSH1 0x0 SUB PUSH2 0x1A9B JUMPI POP POP POP JUMP JUMPDEST PUSH1 0x40 MLOAD PUSH4 0x40C10F19 PUSH1 0xE0 SHL DUP2 MSTORE PUSH1 0x1 PUSH1 0x1 PUSH1 0xA0 SHL SUB DUP4 DUP2 AND PUSH1 0x4 DUP4 ADD MSTORE PUSH1 0x24 DUP3 ADD DUP4 SWAP1 MSTORE PUSH1 0x0 SWAP2 PUSH32 0x0 SWAP1 SWAP2 AND SWAP1 PUSH4 0x40C10F19 SWAP1 PUSH1 0x44 ADD PUSH1 0x20 PUSH1 0x40 MLOAD DUP1 DUP4 SUB DUP2 PUSH1 0x0 DUP8 GAS CALL ISZERO DUP1 ISZERO PUSH2 0x1B0F JUMPI RETURNDATASIZE PUSH1 0x0 DUP1 RETURNDATACOPY RETURNDATASIZE PUSH1 0x0 REVERT JUMPDEST POP POP POP POP PUSH1 0x40 MLOAD RETURNDATASIZE PUSH1 0x1F NOT PUSH1 0x1F DUP3 ADD AND DUP3 ADD DUP1 PUSH1 0x40 MSTORE POP DUP2 ADD SWAP1 PUSH2 0x1B33 SWAP2 SWAP1 PUSH2 0x1E35 JUMP JUMPDEST SWAP1 POP DUP1 ISZERO PUSH2 0x1617 JUMPI DUP1 PUSH1 0x1 PUSH1 0x0 DUP3 DUP3 SLOAD PUSH2 0x1B4D SWAP2 SWAP1 PUSH2 0x216E JUMP JUMPDEST SWAP3 POP POP DUP2 SWAP1 SSTORE POP PUSH32 0x0 PUSH1 0x1 PUSH1 0x1 PUSH1 0xA0 SHL SUB AND DUP4 PUSH1 0x1 PUSH1 0x1 PUSH1 0xA0 SHL SUB AND DUP6 PUSH1 0x1 PUSH1 0x1 PUSH1 0xA0 SHL SUB AND PUSH32 0xC84EF7D7E740EEB018C01C28C59B82DEF5D19D93FB1C641A70E27665E16F282D DUP5 PUSH1 0x40 MLOAD PUSH2 0x1BC3 SWAP2 DUP2 MSTORE PUSH1 0x20 ADD SWAP1 JUMP JUMPDEST PUSH1 0x40 MLOAD DUP1 SWAP2 SUB SWAP1 LOG4 POP POP POP POP JUMP JUMPDEST PUSH1 0x60 PUSH2 0x165E DUP5 DUP5 PUSH1 0x0 DUP6 DUP6 PUSH1 0x0 DUP1 DUP7 PUSH1 0x1 PUSH1 0x1 PUSH1 0xA0 SHL SUB AND DUP6 DUP8 PUSH1 0x40 MLOAD PUSH2 0x1BF8 SWAP2 SWAP1 PUSH2 0x2152 JUMP JUMPDEST PUSH1 0x0 PUSH1 0x40 MLOAD DUP1 DUP4 SUB DUP2 DUP6 DUP8 GAS CALL SWAP3 POP POP POP RETURNDATASIZE DUP1 PUSH1 0x0 DUP2 EQ PUSH2 0x1C35 JUMPI PUSH1 0x40 MLOAD SWAP2 POP PUSH1 0x1F NOT PUSH1 0x3F RETURNDATASIZE ADD AND DUP3 ADD PUSH1 0x40 MSTORE RETURNDATASIZE DUP3 MSTORE RETURNDATASIZE PUSH1 0x0 PUSH1 0x20 DUP5 ADD RETURNDATACOPY PUSH2 0x1C3A JUMP JUMPDEST PUSH1 0x60 SWAP2 POP JUMPDEST POP SWAP2 POP SWAP2 POP PUSH2 0x1C4B DUP8 DUP4 DUP4 DUP8 PUSH2 0x1C56 JUMP JUMPDEST SWAP8 SWAP7 POP POP POP POP POP POP POP JUMP JUMPDEST PUSH1 0x60 DUP4 ISZERO PUSH2 0x1CC5 JUMPI DUP3 MLOAD PUSH1 0x0 SUB PUSH2 0x1CBE JUMPI PUSH1 0x1 PUSH1 0x1 PUSH1 0xA0 SHL SUB DUP6 AND EXTCODESIZE PUSH2 0x1CBE JUMPI PUSH1 0x40 MLOAD PUSH3 0x461BCD PUSH1 0xE5 SHL DUP2 MSTORE PUSH1 0x20 PUSH1 0x4 DUP3 ADD MSTORE PUSH1 0x1D PUSH1 0x24 DUP3 ADD MSTORE PUSH32 0x416464726573733A2063616C6C20746F206E6F6E2D636F6E7472616374000000 PUSH1 0x44 DUP3 ADD MSTORE PUSH1 0x64 ADD PUSH2 0x856 JUMP JUMPDEST POP DUP2 PUSH2 0x165E JUMP JUMPDEST PUSH2 0x165E DUP4 DUP4 DUP2 MLOAD ISZERO PUSH2 0x1CDA JUMPI DUP2 MLOAD DUP1 DUP4 PUSH1 0x20 ADD REVERT JUMPDEST DUP1 PUSH1 0x40 MLOAD PUSH3 0x461BCD PUSH1 0xE5 SHL DUP2 MSTORE PUSH1 0x4 ADD PUSH2 0x856 SWAP2 SWAP1 PUSH2 0x2181 JUMP JUMPDEST PUSH1 0x1 PUSH1 0x1 PUSH1 0xA0 SHL SUB DUP2 AND DUP2 EQ PUSH2 0x145E JUMPI PUSH1 0x0 DUP1 REVERT JUMPDEST PUSH1 0x0 DUP1 PUSH1 0x0 PUSH1 0x60 DUP5 DUP7 SUB SLT ISZERO PUSH2 0x1D1E JUMPI PUSH1 0x0 DUP1 REVERT JUMPDEST DUP4 CALLDATALOAD PUSH2 0x1D29 DUP2 PUSH2 0x1CF4 JUMP JUMPDEST SWAP6 PUSH1 0x20 DUP6 ADD CALLDATALOAD SWAP6 POP PUSH1 0x40 SWAP1 SWAP5 ADD CALLDATALOAD SWAP4 SWAP3 POP POP POP JUMP JUMPDEST PUSH1 0x0 PUSH1 0x20 DUP3 DUP5 SUB SLT ISZERO PUSH2 0x1D50 JUMPI PUSH1 0x0 DUP1 REVERT JUMPDEST DUP2 CALLDATALOAD PUSH2 0x63E DUP2 PUSH2 0x1CF4 JUMP JUMPDEST PUSH1 0x0 DUP1 PUSH1 0x0 DUP1 PUSH1 0x80 DUP6 DUP8 SUB SLT ISZERO PUSH2 0x1D71 JUMPI PUSH1 0x0 DUP1 REVERT JUMPDEST DUP5 CALLDATALOAD PUSH2 0x1D7C DUP2 PUSH2 0x1CF4 JUMP JUMPDEST SWAP7 PUSH1 0x20 DUP7 ADD CALLDATALOAD SWAP7 POP PUSH1 0x40 DUP7 ADD CALLDATALOAD SWAP6 PUSH1 0x60 ADD CALLDATALOAD SWAP5 POP SWAP3 POP POP POP JUMP JUMPDEST PUSH1 0x0 PUSH1 0x20 DUP3 DUP5 SUB SLT ISZERO PUSH2 0x1DA8 JUMPI PUSH1 0x0 DUP1 REVERT JUMPDEST POP CALLDATALOAD SWAP2 SWAP1 POP JUMP JUMPDEST PUSH1 0x0 DUP1 PUSH1 0x0 DUP1 PUSH1 0x80 DUP6 DUP8 SUB SLT ISZERO PUSH2 0x1DC5 JUMPI PUSH1 0x0 DUP1 REVERT JUMPDEST DUP5 CALLDATALOAD PUSH2 0x1DD0 DUP2 PUSH2 0x1CF4 JUMP JUMPDEST SWAP4 POP PUSH1 0x20 DUP6 ADD CALLDATALOAD PUSH2 0x1DE0 DUP2 PUSH2 0x1CF4 JUMP JUMPDEST SWAP4 SWAP7 SWAP4 SWAP6 POP POP POP POP PUSH1 0x40 DUP3 ADD CALLDATALOAD SWAP2 PUSH1 0x60 ADD CALLDATALOAD SWAP1 JUMP JUMPDEST PUSH1 0x0 PUSH1 0x20 DUP3 DUP5 SUB SLT ISZERO PUSH2 0x1E07 JUMPI PUSH1 0x0 DUP1 REVERT JUMPDEST DUP2 MLOAD PUSH2 0x63E DUP2 PUSH2 0x1CF4 JUMP JUMPDEST PUSH1 0x0 PUSH1 0x20 DUP3 DUP5 SUB SLT ISZERO PUSH2 0x1E24 JUMPI PUSH1 0x0 DUP1 REVERT JUMPDEST DUP2 MLOAD PUSH1 0xFF DUP2 AND DUP2 EQ PUSH2 0x63E JUMPI PUSH1 0x0 DUP1 REVERT JUMPDEST PUSH1 0x0 PUSH1 0x20 DUP3 DUP5 SUB SLT ISZERO PUSH2 0x1E47 JUMPI PUSH1 0x0 DUP1 REVERT JUMPDEST POP MLOAD SWAP2 SWAP1 POP JUMP JUMPDEST PUSH1 0x0 PUSH1 0x20 DUP3 DUP5 SUB SLT ISZERO PUSH2 0x1E60 JUMPI PUSH1 0x0 DUP1 REVERT JUMPDEST DUP2 MLOAD PUSH8 0xFFFFFFFFFFFFFFFF DUP2 AND DUP2 EQ PUSH2 0x63E JUMPI PUSH1 0x0 DUP1 REVERT JUMPDEST PUSH4 0x4E487B71 PUSH1 0xE0 SHL PUSH1 0x0 MSTORE PUSH1 0x11 PUSH1 0x4 MSTORE PUSH1 0x24 PUSH1 0x0 REVERT JUMPDEST DUP2 DUP2 SUB DUP2 DUP2 GT ISZERO PUSH2 0x168B JUMPI PUSH2 0x168B PUSH2 0x1E78 JUMP JUMPDEST DUP1 DUP3 MUL DUP2 ISZERO DUP3 DUP3 DIV DUP5 EQ OR PUSH2 0x168B JUMPI PUSH2 0x168B PUSH2 0x1E78 JUMP JUMPDEST PUSH4 0x4E487B71 PUSH1 0xE0 SHL PUSH1 0x0 MSTORE PUSH1 0x41 PUSH1 0x4 MSTORE PUSH1 0x24 PUSH1 0x0 REVERT JUMPDEST DUP1 MLOAD PUSH2 0x1ED9 DUP2 PUSH2 0x1CF4 JUMP JUMPDEST SWAP2 SWAP1 POP JUMP JUMPDEST PUSH1 0x0 PUSH1 0x20 DUP1 DUP4 DUP6 SUB SLT ISZERO PUSH2 0x1EF1 JUMPI PUSH1 0x0 DUP1 REVERT JUMPDEST DUP3 MLOAD PUSH8 0xFFFFFFFFFFFFFFFF DUP1 DUP3 GT ISZERO PUSH2 0x1F09 JUMPI PUSH1 0x0 DUP1 REVERT JUMPDEST DUP2 DUP6 ADD SWAP2 POP DUP6 PUSH1 0x1F DUP4 ADD SLT PUSH2 0x1F1D JUMPI PUSH1 0x0 DUP1 REVERT JUMPDEST DUP2 MLOAD DUP2 DUP2 GT ISZERO PUSH2 0x1F2F JUMPI PUSH2 0x1F2F PUSH2 0x1EB8 JUMP JUMPDEST DUP1 PUSH1 0x5 SHL PUSH1 0x40 MLOAD PUSH1 0x1F NOT PUSH1 0x3F DUP4 ADD AND DUP2 ADD DUP2 DUP2 LT DUP6 DUP3 GT OR ISZERO PUSH2 0x1F54 JUMPI PUSH2 0x1F54 PUSH2 0x1EB8 JUMP JUMPDEST PUSH1 0x40 MSTORE SWAP2 DUP3 MSTORE DUP5 DUP3 ADD SWAP3 POP DUP4 DUP2 ADD DUP6 ADD SWAP2 DUP9 DUP4 GT ISZERO PUSH2 0x1F72 JUMPI PUSH1 0x0 DUP1 REVERT JUMPDEST SWAP4 DUP6 ADD SWAP4 JUMPDEST DUP3 DUP6 LT ISZERO PUSH2 0x1F97 JUMPI PUSH2 0x1F88 DUP6 PUSH2 0x1ECE JUMP JUMPDEST DUP5 MSTORE SWAP4 DUP6 ADD SWAP4 SWAP3 DUP6 ADD SWAP3 PUSH2 0x1F77 JUMP JUMPDEST SWAP9 SWAP8 POP POP POP POP POP POP POP POP JUMP JUMPDEST PUSH4 0x4E487B71 PUSH1 0xE0 SHL PUSH1 0x0 MSTORE PUSH1 0x32 PUSH1 0x4 MSTORE PUSH1 0x24 PUSH1 0x0 REVERT JUMPDEST PUSH1 0x0 PUSH1 0x20 DUP3 DUP5 SUB SLT ISZERO PUSH2 0x1FCB JUMPI PUSH1 0x0 DUP1 REVERT JUMPDEST DUP2 MLOAD DUP1 ISZERO ISZERO DUP2 EQ PUSH2 0x63E JUMPI PUSH1 0x0 DUP1 REVERT JUMPDEST PUSH1 0x0 PUSH1 0x1 DUP3 ADD PUSH2 0x1FED JUMPI PUSH2 0x1FED PUSH2 0x1E78 JUMP JUMPDEST POP PUSH1 0x1 ADD SWAP1 JUMP JUMPDEST PUSH1 0x1 DUP2 DUP2 JUMPDEST DUP1 DUP6 GT ISZERO PUSH2 0x202F JUMPI DUP2 PUSH1 0x0 NOT DIV DUP3 GT ISZERO PUSH2 0x2015 JUMPI PUSH2 0x2015 PUSH2 0x1E78 JUMP JUMPDEST DUP1 DUP6 AND ISZERO PUSH2 0x2022 JUMPI SWAP2 DUP2 MUL SWAP2 JUMPDEST SWAP4 DUP5 SHR SWAP4 SWAP1 DUP1 MUL SWAP1 PUSH2 0x1FF9 JUMP JUMPDEST POP SWAP3 POP SWAP3 SWAP1 POP JUMP JUMPDEST PUSH1 0x0 DUP3 PUSH2 0x2046 JUMPI POP PUSH1 0x1 PUSH2 0x168B JUMP JUMPDEST DUP2 PUSH2 0x2053 JUMPI POP PUSH1 0x0 PUSH2 0x168B JUMP JUMPDEST DUP2 PUSH1 0x1 DUP2 EQ PUSH2 0x2069 JUMPI PUSH1 0x2 DUP2 EQ PUSH2 0x2073 JUMPI PUSH2 0x208F JUMP JUMPDEST PUSH1 0x1 SWAP2 POP POP PUSH2 0x168B JUMP JUMPDEST PUSH1 0xFF DUP5 GT ISZERO PUSH2 0x2084 JUMPI PUSH2 0x2084 PUSH2 0x1E78 JUMP JUMPDEST POP POP PUSH1 0x1 DUP3 SHL PUSH2 0x168B JUMP JUMPDEST POP PUSH1 0x20 DUP4 LT PUSH2 0x133 DUP4 LT AND PUSH1 0x4E DUP5 LT PUSH1 0xB DUP5 LT AND OR ISZERO PUSH2 0x20B2 JUMPI POP DUP2 DUP2 EXP PUSH2 0x168B JUMP JUMPDEST PUSH2 0x20BC DUP4 DUP4 PUSH2 0x1FF4 JUMP JUMPDEST DUP1 PUSH1 0x0 NOT DIV DUP3 GT ISZERO PUSH2 0x20D0 JUMPI PUSH2 0x20D0 PUSH2 0x1E78 JUMP JUMPDEST MUL SWAP4 SWAP3 POP POP POP JUMP JUMPDEST PUSH1 0x0 PUSH2 0x1688 DUP4 DUP4 PUSH2 0x2037 JUMP JUMPDEST PUSH1 0x0 DUP3 PUSH2 0x2101 JUMPI PUSH4 0x4E487B71 PUSH1 0xE0 SHL PUSH1 0x0 MSTORE PUSH1 0x12 PUSH1 0x4 MSTORE PUSH1 0x24 PUSH1 0x0 REVERT JUMPDEST POP DIV SWAP1 JUMP JUMPDEST PUSH1 0xFF DUP3 DUP2 AND DUP3 DUP3 AND SUB SWAP1 DUP2 GT ISZERO PUSH2 0x168B JUMPI PUSH2 0x168B PUSH2 0x1E78 JUMP JUMPDEST PUSH1 0x0 PUSH2 0x1688 PUSH1 0xFF DUP5 AND DUP4 PUSH2 0x2037 JUMP JUMPDEST PUSH1 0x0 JUMPDEST DUP4 DUP2 LT ISZERO PUSH2 0x2149 JUMPI DUP2 DUP2 ADD MLOAD DUP4 DUP3 ADD MSTORE PUSH1 0x20 ADD PUSH2 0x2131 JUMP JUMPDEST POP POP PUSH1 0x0 SWAP2 ADD MSTORE JUMP JUMPDEST PUSH1 0x0 DUP3 MLOAD PUSH2 0x2164 DUP2 DUP5 PUSH1 0x20 DUP8 ADD PUSH2 0x212E JUMP JUMPDEST SWAP2 SWAP1 SWAP2 ADD SWAP3 SWAP2 POP POP JUMP JUMPDEST DUP1 DUP3 ADD DUP1 DUP3 GT ISZERO PUSH2 0x168B JUMPI PUSH2 0x168B PUSH2 0x1E78 JUMP JUMPDEST PUSH1 0x20 DUP2 MSTORE PUSH1 0x0 DUP3 MLOAD DUP1 PUSH1 0x20 DUP5 ADD MSTORE PUSH2 0x21A0 DUP2 PUSH1 0x40 DUP6 ADD PUSH1 0x20 DUP8 ADD PUSH2 0x212E JUMP JUMPDEST PUSH1 0x1F ADD PUSH1 0x1F NOT AND SWAP2 SWAP1 SWAP2 ADD PUSH1 0x40 ADD SWAP3 SWAP2 POP POP JUMP INVALID LOG2 PUSH5 0x6970667358 0x22 SLT KECCAK256 0xC1 EXP 0xDC PUSH9 0x718A3797B7E70344E 0xCE PUSH14 0x122E82C0D27A5CAC84D790FC38AA JUMPDEST 0xD1 DUP14 PUSH5 0x736F6C6343 STOP ADDMOD GT STOP CALLER ","sha1":"7c571c6c60add10d8f4aa235def1763cbc658d38","source":"// SPDX-License-Identifier: GPL-3.0-or-later\npragma solidity 0.8.17;\n\nimport \"@openzeppelin/contracts/access/Ownable.sol\";\n\nimport \"@openzeppelin/contracts/proxy/utils/Initializable.sol\";\nimport \"@openzeppelin/contracts/utils/structs/EnumerableSet.sol\";\nimport \"@openzeppelin/contracts/token/ERC20/IERC20.sol\";\nimport \"@openzeppelin/contracts/token/ERC20/utils/SafeERC20.sol\";\nimport \"@openzeppelin/contracts/token/ERC20/utils/SafeERC20.sol\";\n\nimport \"../../interfaces/tokenomics/ICNCMintingRebalancingRewardsHandler.sol\";\nimport \"../../interfaces/tokenomics/IInflationManager.sol\";\nimport \"../../interfaces/tokenomics/ICNCToken.sol\";\nimport \"../../interfaces/pools/IConicPool.sol\";\nimport \"../../libraries/ScaledMath.sol\";\n\ncontract CNCMintingRebalancingRewardsHandler is\n    ICNCMintingRebalancingRewardsHandler,\n    Ownable,\n    Initializable\n{\n    using SafeERC20 for IERC20;\n    using ScaledMath for uint256;\n    using EnumerableSet for EnumerableSet.AddressSet;\n\n    /// @dev the maximum amount of CNC that can be minted for rebalancing rewards\n    uint256 internal constant _MAX_REBALANCING_REWARDS = 1_900_000e18; // 19% of total supply\n\n    /// @dev gives out 5 dollars per 1 hour (assuming 1 CNC = 3 USD) for every 10,000 USD in TVL that needs to be shifted\n    uint256 internal constant _INITIAL_REBALANCING_REWARD_PER_DOLLAR_PER_SECOND =\n        5e18 / uint256(3600 * 1 * 10_000 * 3);\n\n    IController public immutable override controller;\n\n    ICNCToken public immutable cnc;\n\n    ICNCMintingRebalancingRewardsHandler public immutable previousRewardsHandler;\n    uint256 public override totalCncMinted;\n    uint256 public override cncRebalancingRewardPerDollarPerSecond;\n\n    bool internal _isInternal;\n\n    modifier onlyInflationManager() {\n        require(\n            msg.sender == address(controller.inflationManager()),\n            \"only InflationManager can call this function\"\n        );\n        _;\n    }\n\n    constructor(\n        IController _controller,\n        ICNCToken _cnc,\n        ICNCMintingRebalancingRewardsHandler _previousRewardsHandler\n    ) {\n        require(address(_controller) != address(0), \"controller is zero address\");\n        require(address(_cnc) != address(0), \"cnc is zero address\");\n        require(\n            address(_previousRewardsHandler) != address(0),\n            \"previousRewardsHandler is zero address\"\n        );\n        cncRebalancingRewardPerDollarPerSecond = _INITIAL_REBALANCING_REWARD_PER_DOLLAR_PER_SECOND;\n        controller = _controller;\n        previousRewardsHandler = _previousRewardsHandler;\n        cnc = _cnc;\n    }\n\n    function initialize() external onlyOwner initializer {\n        totalCncMinted = previousRewardsHandler.totalCncMinted();\n    }\n\n    function setCncRebalancingRewardPerDollarPerSecond(\n        uint256 _cncRebalancingRewardPerDollarPerSecond\n    ) external override onlyOwner {\n        cncRebalancingRewardPerDollarPerSecond = _cncRebalancingRewardPerDollarPerSecond;\n        emit SetCncRebalancingRewardPerDollarPerSecond(_cncRebalancingRewardPerDollarPerSecond);\n    }\n\n    function _distributeRebalancingRewards(address pool, address account, uint256 amount) internal {\n        if (totalCncMinted + amount > _MAX_REBALANCING_REWARDS) {\n            amount = _MAX_REBALANCING_REWARDS - totalCncMinted;\n        }\n        if (amount == 0) return;\n        uint256 mintedAmount = cnc.mint(account, amount);\n        if (mintedAmount > 0) {\n            totalCncMinted += mintedAmount;\n            emit RebalancingRewardDistributed(pool, account, address(cnc), mintedAmount);\n        }\n    }\n\n    function handleRebalancingRewards(\n        IConicPool conicPool,\n        address account,\n        uint256 deviationBefore,\n        uint256 deviationAfter\n    ) external onlyInflationManager {\n        _handleRebalancingRewards(conicPool, account, deviationBefore, deviationAfter);\n    }\n\n    function _handleRebalancingRewards(\n        IConicPool conicPool,\n        address account,\n        uint256 deviationBefore,\n        uint256 deviationAfter\n    ) internal {\n        if (_isInternal) return;\n        uint256 cncRewardAmount = computeRebalancingRewards(\n            address(conicPool),\n            deviationBefore,\n            deviationAfter\n        );\n        _distributeRebalancingRewards(address(conicPool), account, cncRewardAmount);\n    }\n\n    /// @dev this computes how much CNC a user should get when depositing\n    /// this does not check whether the rewards should still be distributed\n    /// amount CNC = t * CNC/s * Δdeviation * rewardFactor * underlying price\n    /// where\n    /// CNC/s: the amount of CNC per second to distributed for rebalancing\n    /// t: the time elapsed since the weight update\n    /// Δdeviation: the deviation difference caused by this deposit\n    /// initialDeviation: the deviation after updating weights\n    /// @return the amount of CNC to give to the user as reward\n    function computeRebalancingRewards(\n        address conicPool,\n        uint256 deviationBefore,\n        uint256 deviationAfter\n    ) public view override returns (uint256) {\n        if (deviationBefore < deviationAfter) return 0;\n        IConicPool pool = IConicPool(conicPool);\n        uint8 decimals = pool.underlying().decimals();\n        uint256 rewardFactor = pool.rebalancingRewardsFactor();\n        uint256 rewardsActivatedAt = pool.rebalancingRewardsActivatedAt();\n        uint256 deviationDelta = deviationBefore - deviationAfter;\n        uint256 elapsed = uint256(block.timestamp) - rewardsActivatedAt;\n\n        // We should never enter this condition when the protocol is working normally\n        // since we execute weight updates more frequently than the max delay\n        uint256 maxElapsedTime = controller.MAX_WEIGHT_UPDATE_MIN_DELAY();\n        if (elapsed > maxElapsedTime) {\n            elapsed = maxElapsedTime;\n        }\n\n        uint256 underlyingPrice = controller.priceOracle().getUSDPrice(address(pool.underlying()));\n\n        return\n            (elapsed * cncRebalancingRewardPerDollarPerSecond)\n                .mulDown(deviationDelta.convertScale(decimals, 18))\n                .mulDown(rewardFactor)\n                .mulDown(underlyingPrice);\n    }\n\n    function rebalance(\n        address conicPool,\n        uint256 underlyingAmount,\n        uint256 minUnderlyingReceived,\n        uint256 minCNCReceived\n    ) external override returns (uint256 underlyingReceived, uint256 cncReceived) {\n        require(controller.isPool(conicPool), \"not a pool\");\n        IConicPool conicPool_ = IConicPool(conicPool);\n        bool rebalancingRewardActive = conicPool_.rebalancingRewardActive();\n        IERC20 underlying = conicPool_.underlying();\n        require(underlying.balanceOf(msg.sender) >= underlyingAmount, \"insufficient underlying\");\n        uint256 deviationBefore = conicPool_.computeTotalDeviation();\n        underlying.safeTransferFrom(msg.sender, address(this), underlyingAmount);\n        underlying.forceApprove(conicPool, underlyingAmount);\n        _isInternal = true;\n        uint256 lpTokenAmount = conicPool_.deposit(underlyingAmount, 0, false);\n        _isInternal = false;\n        underlyingReceived = conicPool_.withdraw(lpTokenAmount, 0);\n        require(underlyingReceived >= minUnderlyingReceived, \"insufficient underlying received\");\n        uint256 cncBefore = cnc.balanceOf(msg.sender);\n\n        // Only distribute rebalancing rewards if active\n        if (rebalancingRewardActive) {\n            uint256 deviationAfter = conicPool_.computeTotalDeviation();\n            _handleRebalancingRewards(conicPool_, msg.sender, deviationBefore, deviationAfter);\n        }\n\n        cncReceived = cnc.balanceOf(msg.sender) - cncBefore;\n        require(cncReceived >= minCNCReceived, \"insufficient CNC received\");\n        underlying.safeTransfer(msg.sender, underlyingReceived);\n    }\n\n    /// @notice switches the minting rebalancing reward handler by granting the new one minting rights\n    /// and renouncing his own\n    /// `InflationManager.removePoolRebalancingRewardHandler` should be called on every pool before this is called\n    /// this should typically be done as a single batched governance action\n    /// The same governance action should also call `InflationManager.addPoolRebalancingRewardHandler` for each pool\n    /// passing in `newRebalancingRewardsHandler` so that the whole operation is atomic\n    /// @param newRebalancingRewardsHandler the address of the new rebalancing rewards handler\n    function switchMintingRebalancingRewardsHandler(\n        address newRebalancingRewardsHandler\n    ) external onlyOwner {\n        address[] memory pools = controller.listPools();\n        for (uint256 i; i < pools.length; i++) {\n            require(\n                !controller.inflationManager().hasPoolRebalancingRewardHandler(\n                    pools[i],\n                    address(this)\n                ),\n                \"handler is still registered for a pool\"\n            );\n            require(\n                controller.inflationManager().hasPoolRebalancingRewardHandler(\n                    pools[i],\n                    newRebalancingRewardsHandler\n                ),\n                \"new handler not registered for a pool\"\n            );\n            require(\n                address(\n                    CNCMintingRebalancingRewardsHandler(newRebalancingRewardsHandler)\n                        .previousRewardsHandler()\n                ) == address(this),\n                \"previousRewardsHandler mismatch\"\n            );\n            require(\n                ICNCMintingRebalancingRewardsHandler(newRebalancingRewardsHandler)\n                    .totalCncMinted() == totalCncMinted,\n                \"totalCncMinted mismatch\"\n            );\n        }\n        cnc.addMinter(newRebalancingRewardsHandler);\n        cnc.renounceMinterRights();\n    }\n}\n","sourcePath":"contracts/tokenomics/CNCMintingRebalancingRewardsHandler.sol","type":"contract","deployment":{"address":"0x53a2f0333F7320e862616211b0E44E4354077f9D","chainid":"1","blockHeight":19069091}}