{"abi":[{"inputs":[{"internalType":"address","name":"_controller","type":"address"},{"internalType":"address","name":"_cncToken","type":"address"},{"internalType":"address","name":"_treasury","type":"address"},{"internalType":"address","name":"_crv","type":"address"},{"internalType":"address","name":"_cvx","type":"address"},{"internalType":"bytes32","name":"_merkleRoot","type":"bytes32"}],"stateMutability":"nonpayable","type":"constructor","name":"constructor"},{"anonymous":false,"inputs":[{"indexed":true,"internalType":"address","name":"claimer","type":"address"},{"indexed":false,"internalType":"uint256","name":"amount","type":"uint256"}],"name":"AirdropBoostClaimed","type":"event"},{"anonymous":false,"inputs":[{"indexed":true,"internalType":"address","name":"claimer","type":"address"},{"indexed":false,"internalType":"uint256","name":"crvAmount","type":"uint256"},{"indexed":false,"internalType":"uint256","name":"cvxAmount","type":"uint256"}],"name":"FeesClaimed","type":"event"},{"anonymous":false,"inputs":[{"indexed":true,"internalType":"address","name":"sender","type":"address"},{"indexed":false,"internalType":"uint256","name":"crvAmount","type":"uint256"},{"indexed":false,"internalType":"uint256","name":"cvxAmount","type":"uint256"}],"name":"FeesReceived","type":"event"},{"anonymous":false,"inputs":[{"indexed":true,"internalType":"address","name":"account","type":"address"},{"indexed":true,"internalType":"address","name":"kicker","type":"address"},{"indexed":false,"internalType":"uint256","name":"amount","type":"uint256"}],"name":"KickExecuted","type":"event"},{"anonymous":false,"inputs":[{"indexed":true,"internalType":"address","name":"account","type":"address"},{"indexed":false,"internalType":"uint256","name":"amount","type":"uint256"},{"indexed":false,"internalType":"uint256","name":"unlockTime","type":"uint256"},{"indexed":false,"internalType":"bool","name":"relocked","type":"bool"}],"name":"Locked","type":"event"},{"anonymous":false,"inputs":[{"indexed":true,"internalType":"address","name":"previousOwner","type":"address"},{"indexed":true,"internalType":"address","name":"newOwner","type":"address"}],"name":"OwnershipTransferred","type":"event"},{"anonymous":false,"inputs":[{"indexed":true,"internalType":"address","name":"account","type":"address"},{"indexed":false,"internalType":"uint256","name":"amount","type":"uint256"}],"name":"Relocked","type":"event"},{"anonymous":false,"inputs":[],"name":"Shutdown","type":"event"},{"anonymous":false,"inputs":[{"indexed":true,"internalType":"address","name":"token","type":"address"}],"name":"TokenRecovered","type":"event"},{"anonymous":false,"inputs":[{"indexed":true,"internalType":"address","name":"account","type":"address"},{"indexed":false,"internalType":"uint256","name":"amount","type":"uint256"}],"name":"UnlockExecuted","type":"event"},{"inputs":[],"name":"V1_LOCKER","outputs":[{"internalType":"address","name":"","type":"address"}],"stateMutability":"view","type":"function"},{"inputs":[],"name":"accruedFeesIntegralCrv","outputs":[{"internalType":"uint256","name":"","type":"uint256"}],"stateMutability":"view","type":"function"},{"inputs":[],"name":"accruedFeesIntegralCvx","outputs":[{"internalType":"uint256","name":"","type":"uint256"}],"stateMutability":"view","type":"function"},{"inputs":[{"internalType":"address","name":"account","type":"address"}],"name":"airdropBoost","outputs":[{"internalType":"uint256","name":"","type":"uint256"}],"stateMutability":"view","type":"function"},{"inputs":[],"name":"airdropEndTime","outputs":[{"internalType":"uint256","name":"","type":"uint256"}],"stateMutability":"view","type":"function"},{"inputs":[{"internalType":"address","name":"user","type":"address"}],"name":"balanceOf","outputs":[{"internalType":"uint256","name":"","type":"uint256"}],"stateMutability":"view","type":"function"},{"inputs":[{"internalType":"uint256","name":"amount","type":"uint256"},{"components":[{"internalType":"uint16","name":"nodeIndex","type":"uint16"},{"internalType":"bytes32[]","name":"hashes","type":"bytes32[]"}],"internalType":"struct MerkleProof.Proof","name":"proof","type":"tuple"}],"name":"claimAirdropBoost","outputs":[],"stateMutability":"nonpayable","type":"function"},{"inputs":[],"name":"claimFees","outputs":[{"internalType":"uint256","name":"crvAmount","type":"uint256"},{"internalType":"uint256","name":"cvxAmount","type":"uint256"}],"stateMutability":"nonpayable","type":"function"},{"inputs":[{"internalType":"address","name":"account","type":"address"}],"name":"claimableFees","outputs":[{"internalType":"uint256","name":"claimableCrv","type":"uint256"},{"internalType":"uint256","name":"claimableCvx","type":"uint256"}],"stateMutability":"view","type":"function"},{"inputs":[{"internalType":"address","name":"","type":"address"}],"name":"claimedAirdrop","outputs":[{"internalType":"bool","name":"","type":"bool"}],"stateMutability":"view","type":"function"},{"inputs":[],"name":"cncToken","outputs":[{"internalType":"contract ICNCToken","name":"","type":"address"}],"stateMutability":"view","type":"function"},{"inputs":[{"internalType":"uint128","name":"lockTime","type":"uint128"}],"name":"computeBoost","outputs":[{"internalType":"uint128","name":"","type":"uint128"}],"stateMutability":"pure","type":"function"},{"inputs":[],"name":"controller","outputs":[{"internalType":"contract IController","name":"","type":"address"}],"stateMutability":"view","type":"function"},{"inputs":[],"name":"crv","outputs":[{"internalType":"contract IERC20","name":"","type":"address"}],"stateMutability":"view","type":"function"},{"inputs":[],"name":"cvx","outputs":[{"internalType":"contract IERC20","name":"","type":"address"}],"stateMutability":"view","type":"function"},{"inputs":[],"name":"executeAvailableUnlocks","outputs":[{"internalType":"uint256","name":"","type":"uint256"}],"stateMutability":"nonpayable","type":"function"},{"inputs":[{"internalType":"address","name":"dst","type":"address"}],"name":"executeAvailableUnlocksFor","outputs":[{"internalType":"uint256","name":"","type":"uint256"}],"stateMutability":"nonpayable","type":"function"},{"inputs":[{"internalType":"address","name":"dst","type":"address"},{"internalType":"uint64[]","name":"lockIds","type":"uint64[]"}],"name":"executeUnlocks","outputs":[{"internalType":"uint256","name":"","type":"uint256"}],"stateMutability":"nonpayable","type":"function"},{"inputs":[],"name":"isShutdown","outputs":[{"internalType":"bool","name":"","type":"bool"}],"stateMutability":"view","type":"function"},{"inputs":[{"internalType":"address","name":"user","type":"address"},{"internalType":"uint64","name":"lockId","type":"uint64"}],"name":"kick","outputs":[],"stateMutability":"nonpayable","type":"function"},{"inputs":[{"internalType":"uint256","name":"amount","type":"uint256"},{"internalType":"uint64","name":"lockTime","type":"uint64"}],"name":"lock","outputs":[],"stateMutability":"nonpayable","type":"function"},{"inputs":[{"internalType":"uint256","name":"amount","type":"uint256"},{"internalType":"uint64","name":"lockTime","type":"uint64"},{"internalType":"bool","name":"relock_","type":"bool"}],"name":"lock","outputs":[],"stateMutability":"nonpayable","type":"function"},{"inputs":[{"internalType":"uint256","name":"amount","type":"uint256"},{"internalType":"uint64","name":"lockTime","type":"uint64"},{"internalType":"bool","name":"relock_","type":"bool"},{"internalType":"address","name":"account","type":"address"}],"name":"lockFor","outputs":[],"stateMutability":"nonpayable","type":"function"},{"inputs":[{"internalType":"address","name":"","type":"address"}],"name":"lockedBalance","outputs":[{"internalType":"uint256","name":"","type":"uint256"}],"stateMutability":"view","type":"function"},{"inputs":[{"internalType":"address","name":"","type":"address"}],"name":"lockedBoosted","outputs":[{"internalType":"uint256","name":"","type":"uint256"}],"stateMutability":"view","type":"function"},{"inputs":[],"name":"merkleRoot","outputs":[{"internalType":"bytes32","name":"","type":"bytes32"}],"stateMutability":"view","type":"function"},{"inputs":[],"name":"owner","outputs":[{"internalType":"address","name":"","type":"address"}],"stateMutability":"view","type":"function"},{"inputs":[{"internalType":"address","name":"","type":"address"}],"name":"perAccountAccruedCrv","outputs":[{"internalType":"uint256","name":"","type":"uint256"}],"stateMutability":"view","type":"function"},{"inputs":[{"internalType":"address","name":"","type":"address"}],"name":"perAccountAccruedCvx","outputs":[{"internalType":"uint256","name":"","type":"uint256"}],"stateMutability":"view","type":"function"},{"inputs":[{"internalType":"address","name":"","type":"address"}],"name":"perAccountFeesCrv","outputs":[{"internalType":"uint256","name":"","type":"uint256"}],"stateMutability":"view","type":"function"},{"inputs":[{"internalType":"address","name":"","type":"address"}],"name":"perAccountFeesCvx","outputs":[{"internalType":"uint256","name":"","type":"uint256"}],"stateMutability":"view","type":"function"},{"inputs":[{"internalType":"uint256","name":"amountCrv","type":"uint256"},{"internalType":"uint256","name":"amountCvx","type":"uint256"}],"name":"receiveFees","outputs":[],"stateMutability":"nonpayable","type":"function"},{"inputs":[{"internalType":"address","name":"token","type":"address"}],"name":"recoverToken","outputs":[],"stateMutability":"nonpayable","type":"function"},{"inputs":[{"internalType":"uint64","name":"lockId","type":"uint64"},{"internalType":"uint64","name":"lockTime","type":"uint64"}],"name":"relock","outputs":[],"stateMutability":"nonpayable","type":"function"},{"inputs":[{"internalType":"uint64","name":"lockTime","type":"uint64"}],"name":"relock","outputs":[],"stateMutability":"nonpayable","type":"function"},{"inputs":[{"internalType":"uint64[]","name":"lockIds","type":"uint64[]"},{"internalType":"uint64","name":"lockTime","type":"uint64"}],"name":"relockMultiple","outputs":[],"stateMutability":"nonpayable","type":"function"},{"inputs":[],"name":"renounceOwnership","outputs":[],"stateMutability":"nonpayable","type":"function"},{"inputs":[],"name":"shutDown","outputs":[],"stateMutability":"nonpayable","type":"function"},{"inputs":[],"name":"totalBoosted","outputs":[{"internalType":"uint256","name":"","type":"uint256"}],"stateMutability":"view","type":"function"},{"inputs":[],"name":"totalLocked","outputs":[{"internalType":"uint256","name":"","type":"uint256"}],"stateMutability":"view","type":"function"},{"inputs":[{"internalType":"address","name":"account","type":"address"}],"name":"totalRewardsBoost","outputs":[{"internalType":"uint256","name":"","type":"uint256"}],"stateMutability":"view","type":"function"},{"inputs":[{"internalType":"address","name":"account","type":"address"}],"name":"totalVoteBoost","outputs":[{"internalType":"uint256","name":"","type":"uint256"}],"stateMutability":"view","type":"function"},{"inputs":[{"internalType":"address","name":"newOwner","type":"address"}],"name":"transferOwnership","outputs":[],"stateMutability":"nonpayable","type":"function"},{"inputs":[],"name":"treasury","outputs":[{"internalType":"address","name":"","type":"address"}],"stateMutability":"view","type":"function"},{"inputs":[{"internalType":"address","name":"user","type":"address"}],"name":"unlockableBalance","outputs":[{"internalType":"uint256","name":"","type":"uint256"}],"stateMutability":"view","type":"function"},{"inputs":[{"internalType":"address","name":"user","type":"address"}],"name":"unlockableBalanceBoosted","outputs":[{"internalType":"uint256","name":"","type":"uint256"}],"stateMutability":"view","type":"function"},{"inputs":[{"internalType":"address","name":"account","type":"address"}],"name":"userLocks","outputs":[{"components":[{"internalType":"uint256","name":"amount","type":"uint256"},{"internalType":"uint64","name":"unlockTime","type":"uint64"},{"internalType":"uint128","name":"boost","type":"uint128"},{"internalType":"uint64","name":"id","type":"uint64"}],"internalType":"struct ICNCLockerV2.VoteLock[]","name":"","type":"tuple[]"}],"stateMutability":"view","type":"function"},{"inputs":[{"internalType":"address","name":"","type":"address"},{"internalType":"uint256","name":"","type":"uint256"}],"name":"voteLocks","outputs":[{"internalType":"uint256","name":"amount","type":"uint256"},{"internalType":"uint64","name":"unlockTime","type":"uint64"},{"internalType":"uint128","name":"boost","type":"uint128"},{"internalType":"uint64","name":"id","type":"uint64"}],"stateMutability":"view","type":"function"}],"bytecode":"6101606040523480156200001257600080fd5b5060405162003c5538038062003c558339810160408190526200003591620000f6565b620000403362000089565b6001600160a01b03808716610140528581166080528481166101205283811660e0528216610100526200007762eff100426200016e565b60a05260c05250620001969350505050565b600080546001600160a01b038381166001600160a01b0319831681178455604051919092169283917f8be0079c531659141344cd1fd0a4f28419497f9722a3daafe3b4186f6b6457e09190a35050565b80516001600160a01b0381168114620000f157600080fd5b919050565b60008060008060008060c087890312156200011057600080fd5b6200011b87620000d9565b95506200012b60208801620000d9565b94506200013b60408801620000d9565b93506200014b60608801620000d9565b92506200015b60808801620000d9565b915060a087015190509295509295509295565b808201808211156200019057634e487b7160e01b600052601160045260246000fd5b92915050565b60805160a05160c05160e0516101005161012051610140516139f462000261600039600081816107520152610f2e01526000818161046f01526117cb0152600081816105e101528181610d9f0152818161173701526121080152600081816104de01528181610d6a015281816116f901526120cc0152600081816103b7015261098401526000818161058e01526108320152600081816104b701528181611416015281816116bc01528181611aa801528181611adc01528181611d6d01526124be01526139f46000f3fe608060405234801561001057600080fd5b50600436106102a05760003560e01c806378f89c2011610167578063a6aed923116100ce578063ddecf66211610087578063ddecf662146106b2578063dfb142ae146106fc578063ea312d761461070f578063f2fde38b1461073a578063f77c47911461074d578063f816144e1461077457600080fd5b8063a6aed9231461065c578063bb3cac541461066f578063bf4b3e6514610682578063bf86d6901461068a578063c5890d2d14610697578063d294f093146106aa57600080fd5b80638da5cb5b116101205780638da5cb5b146105cb578063923c1d61146105dc57806393ed9d0114610603578063984acb49146106165780639ae697bf146106295780639be65a601461064957600080fd5b806378f89c201461051b5780637907706f1461052e5780637bf500c8146105415780637e0b249214610561578063806019c1146105895780638434cf70146105b057600080fd5b80634f3487581161020b57806361d027b3116101c457806361d027b31461046a578063631516c2146104a9578063645d28a8146104b25780636a4874a1146104d957806370a0823114610500578063715018a61461051357600080fd5b80634f348758146103ff5780635219c5121461041257806356891412146104255780635cad88eb1461042e5780635ee26ad0146104375780635f07112f1461045757600080fd5b80631c91607f1161025d5780631c91607f1461036c57806326a4c8421461038c5780632a3246071461039f5780632eb4a7ab146103b25780633efa9979146103d957806346e919d0146103ec57600080fd5b80630259ef58146102a55780630499abd4146102ce5780630b70608f146102fc57806310b9e5831461031157806311e1dc1e146103195780631b93f66d14610339575b600080fd5b6102b86102b33660046130ff565b61077d565b6040516102c5919061311c565b60405180910390f35b6102ee6102dc3660046130ff565b600c6020526000908152604090205481565b6040519081526020016102c5565b61030f61030a366004613195565b610830565b005b61030f610a41565b6102ee6103273660046130ff565b600e6020526000908152604090205481565b61035c6103473660046130ff565b60056020526000908152604090205460ff1681565b60405190151581526020016102c5565b6102ee61037a3660046130ff565b600f6020526000908152604090205481565b61030f61039a366004613249565b610ad4565b6102ee6103ad3660046130ff565b610b98565b6102ee7f000000000000000000000000000000000000000000000000000000000000000081565b61030f6103e736600461329c565b610c92565b6102ee6103fa3660046130ff565b610ca2565b61030f61040d3660046132c8565b610d5d565b6102ee6104203660046130ff565b610e4e565b6102ee60075481565b6102ee600a5481565b6102ee6104453660046130ff565b60026020526000908152604090205481565b61030f6104653660046132f8565b610ef7565b6104917f000000000000000000000000000000000000000000000000000000000000000081565b6040516001600160a01b0390911681526020016102c5565b6102ee60085481565b6104917f000000000000000000000000000000000000000000000000000000000000000081565b6104917f000000000000000000000000000000000000000000000000000000000000000081565b6102ee61050e3660046130ff565b610f08565b61030f610f13565b6102ee6105293660046130ff565b610f27565b61030f61053c366004613338565b611029565b6102ee61054f3660046130ff565b600d6020526000908152604090205481565b61057461056f3660046130ff565b6110a4565b604080519283526020830191909152016102c5565b6102ee7f000000000000000000000000000000000000000000000000000000000000000081565b610491733f41480dd3b32f1cc579125f9570dccd07e0766781565b6000546001600160a01b0316610491565b6104917f000000000000000000000000000000000000000000000000000000000000000081565b6102ee610611366004613362565b61115e565b61030f6106243660046133b6565b61147d565b6102ee6106373660046130ff565b60016020526000908152604090205481565b61030f6106573660046130ff565b6116ba565b61030f61066a3660046133d1565b611889565b6102ee61067d3660046130ff565b611c3d565b6102ee611c87565b60095461035c9060ff1681565b61030f6106a53660046133ef565b611c97565b61057461209a565b6106c56106c0366004613440565b612189565b604080519485526001600160401b0393841660208601526001600160801b03909216918401919091521660608201526080016102c5565b6102ee61070a3660046130ff565b6121e9565b61072261071d36600461346c565b612524565b6040516001600160801b0390911681526020016102c5565b61030f6107483660046130ff565b612595565b6104917f000000000000000000000000000000000000000000000000000000000000000081565b6102ee600b5481565b6001600160a01b0381166000908152600360209081526040808320805482518185028101850190935280835260609492939192909184015b828210156108255760008481526020908190206040805160808101825260028602909201805483526001908101546001600160401b03808216858701526001600160801b03600160401b83041693850193909352600160c01b9004909116606083015290835290920191016107b5565b505050509050919050565b7f000000000000000000000000000000000000000000000000000000000000000042106108945760405162461bcd60e51b815260206004820152600d60248201526c185a5c991c9bdc08195b991959609a1b60448201526064015b60405180910390fd5b3360009081526005602052604090205460ff16156108e65760405162461bcd60e51b815260206004820152600f60248201526e185b1c9958591e4818db185a5b5959608a1b604482015260640161088b565b6730927f74c9de000082111561093e5760405162461bcd60e51b815260206004820181905260248201527f616d6f756e742065786365656473206d61782061697264726f7020626f6f7374604482015260640161088b565b6040516bffffffffffffffffffffffff193360601b166020820152603481018390526000906054016040516020818303038152906040528051906020012090506109b4817f0000000000000000000000000000000000000000000000000000000000000000846109ad90613503565b919061260e565b6109f05760405162461bcd60e51b815260206004820152600d60248201526c34b73b30b634b210383937b7b360991b604482015260640161088b565b3360008181526004602052604090819020859055517ffb7c165a21b698d172209fd3fbb4a907042c12438cd506666064cd98e0a142aa90610a349086815260200190565b60405180910390a2505050565b610a4961270c565b60095460ff1615610a9c5760405162461bcd60e51b815260206004820152601860248201527f6c6f636b657220616c72656164792073757370656e6465640000000000000000604482015260640161088b565b6009805460ff191660011790556040517f4426aa1fb73e391071491fcfe21a88b5c38a0a0333a1f6e77161470439704cf890600090a1565b60095460ff1615610af75760405162461bcd60e51b815260040161088b906135cc565b6001600160401b038116629e340011801590610b20575063013c68006001600160401b03821611155b610b3c5760405162461bcd60e51b815260040161088b906135f6565b610b4533612766565b60005b82811015610b9257610b80848483818110610b6557610b65613621565b9050602002016020810190610b7a91906133b6565b83612850565b80610b8a8161364d565b915050610b48565b50505050565b6001600160a01b03811660009081526003602052604081208054829190825b81811015610c8857426001600160801b0316838281548110610bdb57610bdb613621565b60009182526020909120600160029092020101546001600160401b031611610c7657610c69838281548110610c1257610c12613621565b906000526020600020906002020160010160089054906101000a90046001600160801b03166001600160801b0316848381548110610c5257610c52613621565b600091825260209091206002909102015490612b1f565b610c739085613666565b93505b80610c808161364d565b915050610bb7565b5091949350505050565b610c9e82826000610ef7565b5050565b6040516370a0823160e01b81526001600160a01b0382166004820152600090733f41480dd3b32f1cc579125f9570dccd07e07667906370a0823190602401602060405180830381865afa158015610cfd573d6000803e3d6000fd5b505050506040513d601f19601f82011682018060405250810190610d219190613679565b610d2a83610b98565b6001600160a01b038416600090815260026020526040902054610d4d9190613692565b610d579190613666565b92915050565b610d926001600160a01b037f000000000000000000000000000000000000000000000000000000000000000016333085612b48565b610dc76001600160a01b037f000000000000000000000000000000000000000000000000000000000000000016333084612b48565b600854610dd5908390612bb3565b600a6000828254610de69190613666565b9091555050600854610df9908290612bb3565b600b6000828254610e0a9190613666565b9091555050604080518381526020810183905233917f213e72af0d3613bd643cff3059f872c1015e6541624e37872bf95eefbaf220a8910160405180910390a25050565b6001600160a01b03811660009081526003602052604081208054829190825b81811015610c8857426001600160801b0316838281548110610e9157610e91613621565b60009182526020909120600160029092020101546001600160401b031611610ee557828181548110610ec557610ec5613621565b90600052602060002090600202016000015484610ee29190613666565b93505b80610eef8161364d565b915050610e6d565b610f0383838333611c97565b505050565b6000610d5782610f27565b610f1b61270c565b610f256000612bcc565b565b6000610d577f00000000000000000000000000000000000000000000000000000000000000006001600160a01b03166348439e7e6040518163ffffffff1660e01b8152600401602060405180830381865afa158015610f8a573d6000803e3d6000fd5b505050506040513d601f19601f82011682018060405250810190610fae91906136a5565b60405163067ba3d960e41b81526001600160a01b03858116600483015291909116906367ba3d9090602401602060405180830381865afa158015610ff6573d6000803e3d6000fd5b505050506040513d601f19601f8201168201806040525081019061101a9190613679565b61102384610ca2565b90612b1f565b60095460ff161561104c5760405162461bcd60e51b815260040161088b906135cc565b6001600160401b038116629e340011801590611075575063013c68006001600160401b03821611155b6110915760405162461bcd60e51b815260040161088b906135f6565b61109a33612766565b610c9e8282612850565b6001600160a01b038116600090815260026020908152604080832054600c909252822054600a548392916110e3916110dc9190613692565b8290612b1f565b6001600160a01b0385166000908152600d60205260409020546111069190613666565b6001600160a01b0385166000908152600e6020526040902054600b54919450611133916110dc9190613692565b6001600160a01b0385166000908152600f60205260409020546111569190613666565b915050915091565b600061116933612766565b3360009081526003602052604081208190815b8581101561138f5760006111b63389898581811061119c5761119c613621565b90506020020160208101906111b191906133b6565b612c1c565b60095490915060ff16806111f85750428382815481106111d8576111d8613621565b60009182526020909120600160029092020101546001600160401b031611155b6112375760405162461bcd60e51b815260206004820152601060248201526f1b1bd8dac81b9bdd08195e1c1a5c995960821b604482015260640161088b565b82818154811061124957611249613621565b906000526020600020906002020160000154856112669190613666565b945061127d838281548110610c1257610c12613621565b6112879085613666565b8354909450839061129a90600190613692565b815481106112aa576112aa613621565b90600052602060002090600202018382815481106112ca576112ca613621565b6000918252602090912082546002909202019081556001918201805492909101805467ffffffffffffffff1981166001600160401b03948516908117835583546001600160801b03600160401b9182900416026001600160c01b031990921617178082559154600160c01b908190049093169092026001600160c01b03909116179055825483908061135e5761135e6136c2565b60008281526020812060026000199093019283020181815560010155905550806113878161364d565b91505061117c565b5082600760008282546113a29190613692565b9250508190555081600860008282546113bb9190613692565b909155505033600090815260016020526040812080548592906113df908490613692565b90915550503360009081526002602052604081208054849290611403908490613692565b9091555061143d90506001600160a01b037f0000000000000000000000000000000000000000000000000000000000000000168885612cf7565b60405183815233907fb291e2a2847a5ad6d47409943306c6d6e8c63a9855b849701b868191e94789709060200160405180910390a2509095945050505050565b60095460ff16156114a05760405162461bcd60e51b815260040161088b906135cc565b6001600160401b038116629e3400118015906114c9575063013c68006001600160401b03821611155b6114e55760405162461bcd60e51b815260040161088b906135f6565b6114ee33612766565b6000611502826001600160401b0316612524565b9050600061151083426136d8565b336000908152600360205260408120549192505b818110156115a55733600090815260036020526040902080546001600160401b03851691908390811061155957611559613621565b60009182526020909120600160029092020101546001600160401b0316106115935760405162461bcd60e51b815260040161088b906136ff565b8061159d8161364d565b915050611524565b503360009081526003602052604081206115be916130af565b3360009081526002602052604081205460088054919290916115e1908490613692565b9091555050336000818152600260209081526040808320839055600190915290205461160f91908486612d27565b33600090815260016020526040812054611632906001600160801b038616612b1f565b905080600860008282546116469190613666565b9091555050336000908152600260205260408120805483929061166a908490613666565b9091555050336000818152600160209081526040918290205491519182527fe2d155d9d74decc198a9a9b4f5bddb24ee0842ee745c9ce57e3573b971e50d9d910160405180910390a25050505050565b7f00000000000000000000000000000000000000000000000000000000000000006001600160a01b0316816001600160a01b03161415801561172e57507f00000000000000000000000000000000000000000000000000000000000000006001600160a01b0316816001600160a01b031614155b801561176c57507f00000000000000000000000000000000000000000000000000000000000000006001600160a01b0316816001600160a01b031614155b6117b05760405162461bcd60e51b815260206004820152601560248201527431b0b73737ba103bb4ba34323930bb903a37b5b2b760591b604482015260640161088b565b6040516370a0823160e01b81523060048201528190611851907f0000000000000000000000000000000000000000000000000000000000000000906001600160a01b038416906370a0823190602401602060405180830381865afa15801561181c573d6000803e3d6000fd5b505050506040513d601f19601f820116820180604052508101906118409190613679565b6001600160a01b0384169190612cf7565b6040516001600160a01b038316907f17a79be10b6da9324a110f0ea6d3043db38f1eee6e2ee1dbfa7272338e39da4590600090a25050565b60006118958383612c1c565b6001600160a01b03841660009081526003602052604090208054919250906001600160801b034216906224ea00908390859081106118d5576118d5613621565b60009182526020909120600160029092020101546118fc91906001600160401b0316613736565b6001600160801b0316111561194b5760405162461bcd60e51b815260206004820152601560248201527463616e6e6f74206b69636b2074686973206c6f636b60581b604482015260640161088b565b61195484612766565b600081838154811061196857611968613621565b9060005260206000209060020201600001549050806007600082825461198e9190613692565b925050819055506119d58284815481106119aa576119aa613621565b60009182526020909120600290910201600101548290600160401b90046001600160801b0316612b1f565b600860008282546119e69190613692565b90915550506001600160a01b03851660009081526001602052604081208054839290611a13908490613692565b92505081905550611a2f8284815481106119aa576119aa613621565b6001600160a01b03861660009081526002602052604081208054909190611a57908490613692565b9091555060009050611a718267016345785d8a0000612b1f565b9050683635c9adc5dea00000811115611a905750683635c9adc5dea000005b611acf86611a9e8385613692565b6001600160a01b037f0000000000000000000000000000000000000000000000000000000000000000169190612cf7565b611b036001600160a01b037f0000000000000000000000000000000000000000000000000000000000000000163383612cf7565b60405182815233906001600160a01b038816907f9716d4c8630c7c1a47a462f169d1764a38687f7532baf2bd74a791afc20030e69060200160405180910390a382548390611b5390600190613692565b81548110611b6357611b63613621565b9060005260206000209060020201838581548110611b8357611b83613621565b6000918252602090912082546002909202019081556001918201805492909101805467ffffffffffffffff1981166001600160401b03948516908117835583546001600160801b03600160401b9182900416026001600160c01b031990921617178082559154600160c01b908190049093169092026001600160c01b039091161790558254839080611c1757611c176136c2565b600082815260208120600260001990930192830201818155600101559055505050505050565b6001600160a01b0381166000908152600460205260408120548103611c6b5750670de0b6b3a7640000919050565b506001600160a01b031660009081526004602052604090205490565b6000611c92336121e9565b905090565b60095460ff1615611cba5760405162461bcd60e51b815260040161088b906135cc565b6001600160401b038316629e340011801590611ce3575063013c68006001600160401b03841611155b611cff5760405162461bcd60e51b815260040161088b906135f6565b811580611d145750336001600160a01b038216145b611d575760405162461bcd60e51b81526020600482015260146024820152733932b637b1b59037b7363c903337b91039b2b63360611b604482015260640161088b565b611d6081612766565b611d956001600160a01b037f000000000000000000000000000000000000000000000000000000000000000016333087612b48565b6000611da9846001600160401b0316612524565b90506000611db633611c3d565b9050670de0b6b3a7640000811115611e0857336000908152600560205260409020805460ff19166001179055611df56001600160801b03831682612e12565b3360009081526004602052604081205591505b6000611e1486426136d8565b905060008515611f8f576001600160a01b038516600090815260036020526040812054905b81811015611ec3576001600160a01b038716600090815260036020526040902080546001600160401b038616919083908110611e7757611e77613621565b60009182526020909120600160029092020101546001600160401b031610611eb15760405162461bcd60e51b815260040161088b906136ff565b80611ebb8161364d565b915050611e39565b506001600160a01b0386166000908152600360205260408120611ee5916130af565b6001600160a01b0386166000908152600260205260408120546008805491929091611f11908490613692565b90915550506001600160a01b03861660009081526002602090815260408083208390556001909152902054611f54908790611f4d908c90613666565b8588612d27565b6001600160a01b038616600090815260016020526040902054611f87906001600160801b03871690611023908c90613666565b915050611fb1565b611f9b85898487612d27565b611fae886001600160801b038616612b1f565b90505b8760076000828254611fc39190613666565b925050819055508060086000828254611fdc9190613666565b90915550506001600160a01b038516600090815260016020526040812080548a9290612009908490613666565b90915550506001600160a01b03851660009081526002602052604081208054839290612036908490613666565b9091555050604080518981526001600160401b03841660208201528715158183015290516001600160a01b038716917fca8d506eda84f8ed07c2908ae102299d34888ef5e19b97f56e4d6fcd1104c31e919081900360600190a25050505050505050565b6000806120a633612766565b5050336000818152600d6020908152604080832054600f9092529091205490916120fb907f00000000000000000000000000000000000000000000000000000000000000006001600160a01b03169084612cf7565b61212f6001600160a01b037f0000000000000000000000000000000000000000000000000000000000000000163383612cf7565b336000818152600d60209081526040808320839055600f82528083209290925581518581529081018490527f1ac537f0ad67b64ac68a04587ff3a4cb6977de22eb2c37ee560897a92c6d07c7910160405180910390a29091565b600360205281600052604060002081815481106121a557600080fd5b6000918252602090912060029091020180546001909101549092506001600160401b0380821692506001600160801b03600160401b83041691600160c01b90041684565b60006001600160a01b0382166122375760405162461bcd60e51b815260206004820152601360248201527234b73b30b634b2103232b9ba34b730ba34b7b760691b604482015260640161088b565b61224033612766565b33600090815260036020526040812080548291905b801561243857612266600182613692565b60095490915060ff16806122a857504282828154811061228857612288613621565b60009182526020909120600160029092020101546001600160401b031611155b15612433578181815481106122bf576122bf613621565b906000526020600020906002020160000154846122dc9190613666565b93506123338282815481106122f3576122f3613621565b906000526020600020906002020160010160089054906101000a90046001600160801b03166001600160801b0316838381548110610c5257610c52613621565b61233d9084613666565b8254909350829061235090600190613692565b8154811061236057612360613621565b906000526020600020906002020182828154811061238057612380613621565b6000918252602090912082546002909202019081556001918201805492909101805467ffffffffffffffff1981166001600160401b03948516908117835583546001600160801b03600160401b9182900416026001600160c01b031990921617178082559154600160c01b908190049093169092026001600160c01b039091161790558154829080612414576124146136c2565b6000828152602081206002600019909301928302018181556001015590555b612255565b836007600082825461244a9190613692565b9250508190555082600860008282546124639190613692565b90915550503360009081526001602052604081208054869290612487908490613692565b909155505033600090815260026020526040812080548592906124ab908490613692565b909155506124e590506001600160a01b037f0000000000000000000000000000000000000000000000000000000000000000168786612cf7565b60405184815233907fb291e2a2847a5ad6d47409943306c6d6e8c63a9855b849701b868191e94789709060200160405180910390a25091949350505050565b6000670de0b6b3a764000061258b612562612546629e340063013c6800613756565b612553629e340087613756565b6001600160801b031690612e34565b61257c670de0b6b3a76400006714d1120d7b160000613756565b6001600160801b031690612e12565b610d579190613736565b61259d61270c565b6001600160a01b0381166126025760405162461bcd60e51b815260206004820152602660248201527f4f776e61626c653a206e6577206f776e657220697320746865207a65726f206160448201526564647265737360d01b606482015260840161088b565b61260b81612bcc565b50565b602083015151835160009190825b828110156127015761262f60028361378c565b61ffff1660000361269057858760200151828151811061265157612651613621565b6020026020010151604051602001612673929190918252602082015260400190565b6040516020818303038152906040528051906020012095506126e2565b866020015181815181106126a6576126a6613621565b6020026020010151866040516020016126c9929190918252602082015260400190565b6040516020818303038152906040528051906020012095505b6126ed6002836137ad565b9150806126f98161364d565b91505061261c565b505050911492915050565b6000546001600160a01b03163314610f255760405162461bcd60e51b815260206004820181905260248201527f4f776e61626c653a2063616c6c6572206973206e6f7420746865206f776e6572604482015260640161088b565b6001600160a01b038116600090815260026020908152604080832054600c90925290912054600a5461279b916110dc91613692565b6001600160a01b0383166000908152600d6020526040812080549091906127c3908490613666565b9091555050600a546001600160a01b0383166000908152600c6020908152604080832093909355600e90522054600b54612800916110dc91613692565b6001600160a01b0383166000908152600f602052604081208054909190612828908490613666565b9091555050600b546001600160a01b039092166000908152600e602052604090209190915550565b600061285c3384612c1c565b90506000612872836001600160401b0316612524565b9050600061288084426136d8565b3360009081526003602052604090208054919250906001600160401b038316908290869081106128b2576128b2613621565b60009182526020909120600160029092020101546001600160401b0316106128ec5760405162461bcd60e51b815260040161088b906136ff565b600081858154811061290057612900613621565b9060005260206000209060020201600001549050600061296b83878154811061292b5761292b613621565b906000526020600020906002020160010160089054906101000a90046001600160801b03166001600160801b0316848881548110610c5257610c52613621565b8354909150839061297e90600190613692565b8154811061298e5761298e613621565b90600052602060002090600202018387815481106129ae576129ae613621565b6000918252602090912082546002909202019081556001918201805492909101805467ffffffffffffffff1981166001600160401b03948516908117835583546001600160801b03600160401b9182900416026001600160c01b031990921617178082559154600160c01b908190049093169092026001600160c01b039091161790558254839080612a4257612a426136c2565b600082815260208120600260001990930192830201818155600101559055612a6c33838688612d27565b6000612a81836001600160801b038816612b1f565b90508181600854612a929190613666565b612a9c9190613692565b600855336000908152600260205260409020548290612abc908390613666565b612ac69190613692565b33600081815260026020526040908190209290925590517fe2d155d9d74decc198a9a9b4f5bddb24ee0842ee745c9ce57e3573b971e50d9d90612b0c9086815260200190565b60405180910390a2505050505050505050565b6000612b2d6012600a6138b2565b612b3783856138be565b612b4191906138d5565b9392505050565b6040516001600160a01b0380851660248301528316604482015260648101829052610b929085906323b872dd60e01b906084015b60408051601f198184030181529190526020810180516001600160e01b03166001600160e01b031990931692909217909152612e4d565b600081612bc26012600a6138b2565b612b3790856138be565b600080546001600160a01b038381166001600160a01b0319831681178455604051919092169283917f8be0079c531659141344cd1fd0a4f28419497f9722a3daafe3b4186f6b6457e09190a35050565b6001600160a01b038216600090815260036020526040812054815b81811015612cb9576001600160a01b038516600090815260036020526040902080546001600160401b038616919083908110612c7557612c75613621565b6000918252602090912060029091020160010154600160c01b90046001600160401b031603612ca7579150610d579050565b80612cb18161364d565b915050612c37565b5060405162461bcd60e51b81526020600482015260126024820152711b1bd8dac8191bd95cdb89dd08195e1a5cdd60721b604482015260640161088b565b6040516001600160a01b038316602482015260448101829052610f0390849063a9059cbb60e01b90606401612b7c565b6006546001600160a01b038516600090815260036020908152604080832081516080810183528881526001600160401b038881168286019081526001600160801b03808a1695840195865297821660608401818152855460018181018855968a529790982093516002909702909301958655519483018054945196518216600160c01b026001600160c01b0397909816600160401b026001600160c01b031990951695909116949094179290921793909316939093179055612dea9082906136d8565b6006805467ffffffffffffffff19166001600160401b03929092169190911790555050505050565b6000612e206012600a6138b2565b612e2a83856138e9565b612b419190613914565b600081612e436012600a6138b2565b612e2a90856138e9565b6000612ea2826040518060400160405280602081526020017f5361666545524332303a206c6f772d6c6576656c2063616c6c206661696c6564815250856001600160a01b0316612f1f9092919063ffffffff16565b805190915015610f035780806020019051810190612ec0919061392e565b610f035760405162461bcd60e51b815260206004820152602a60248201527f5361666545524332303a204552433230206f7065726174696f6e20646964206e6044820152691bdd081cdd58d8d9595960b21b606482015260840161088b565b6060612f2e8484600085612f36565b949350505050565b606082471015612f975760405162461bcd60e51b815260206004820152602660248201527f416464726573733a20696e73756666696369656e742062616c616e636520666f6044820152651c8818d85b1b60d21b606482015260840161088b565b600080866001600160a01b03168587604051612fb3919061396f565b60006040518083038185875af1925050503d8060008114612ff0576040519150601f19603f3d011682016040523d82523d6000602084013e612ff5565b606091505b509150915061300687838387613011565b979650505050505050565b60608315613080578251600003613079576001600160a01b0385163b6130795760405162461bcd60e51b815260206004820152601d60248201527f416464726573733a2063616c6c20746f206e6f6e2d636f6e7472616374000000604482015260640161088b565b5081612f2e565b612f2e83838151156130955781518083602001fd5b8060405162461bcd60e51b815260040161088b919061398b565b508054600082556002029060005260206000209081019061260b91905b808211156130e657600080825560018201556002016130cc565b5090565b6001600160a01b038116811461260b57600080fd5b60006020828403121561311157600080fd5b8135612b41816130ea565b602080825282518282018190526000919060409081850190868401855b8281101561318857815180518552868101516001600160401b0390811688870152868201516001600160801b031687870152606091820151169085015260809093019290850190600101613139565b5091979650505050505050565b600080604083850312156131a857600080fd5b8235915060208301356001600160401b038111156131c557600080fd5b8301604081860312156131d757600080fd5b809150509250929050565b60008083601f8401126131f457600080fd5b5081356001600160401b0381111561320b57600080fd5b6020830191508360208260051b850101111561322657600080fd5b9250929050565b80356001600160401b038116811461324457600080fd5b919050565b60008060006040848603121561325e57600080fd5b83356001600160401b0381111561327457600080fd5b613280868287016131e2565b909450925061329390506020850161322d565b90509250925092565b600080604083850312156132af57600080fd5b823591506132bf6020840161322d565b90509250929050565b600080604083850312156132db57600080fd5b50508035926020909101359150565b801515811461260b57600080fd5b60008060006060848603121561330d57600080fd5b8335925061331d6020850161322d565b9150604084013561332d816132ea565b809150509250925092565b6000806040838503121561334b57600080fd5b6133548361322d565b91506132bf6020840161322d565b60008060006040848603121561337757600080fd5b8335613382816130ea565b925060208401356001600160401b0381111561339d57600080fd5b6133a9868287016131e2565b9497909650939450505050565b6000602082840312156133c857600080fd5b612b418261322d565b600080604083850312156133e457600080fd5b8235613354816130ea565b6000806000806080858703121561340557600080fd5b843593506134156020860161322d565b92506040850135613425816132ea565b91506060850135613435816130ea565b939692955090935050565b6000806040838503121561345357600080fd5b823561345e816130ea565b946020939093013593505050565b60006020828403121561347e57600080fd5b81356001600160801b0381168114612b4157600080fd5b634e487b7160e01b600052604160045260246000fd5b604080519081016001600160401b03811182821017156134cd576134cd613495565b60405290565b604051601f8201601f191681016001600160401b03811182821017156134fb576134fb613495565b604052919050565b60006040823603121561351557600080fd5b61351d6134ab565b823561ffff8116811461352f57600080fd5b81526020838101356001600160401b038082111561354c57600080fd5b9085019036601f83011261355f57600080fd5b81358181111561357157613571613495565b8060051b91506135828483016134d3565b818152918301840191848101903684111561359c57600080fd5b938501935b838510156135ba578435825293850193908501906135a1565b94860194909452509295945050505050565b60208082526010908201526f1b1bd8dad95c881cdd5cdc195b99195960821b604082015260600190565b6020808252601190820152701b1bd8dac81d1a5b59481a5b9d985b1a59607a1b604082015260600190565b634e487b7160e01b600052603260045260246000fd5b634e487b7160e01b600052601160045260246000fd5b60006001820161365f5761365f613637565b5060010190565b80820180821115610d5757610d57613637565b60006020828403121561368b57600080fd5b5051919050565b81810381811115610d5757610d57613637565b6000602082840312156136b757600080fd5b8151612b41816130ea565b634e487b7160e01b600052603160045260246000fd5b6001600160401b038181168382160190808211156136f8576136f8613637565b5092915050565b6020808252601e908201527f63616e6e6f74206d6f76652074686520756e6c6f636b2074696d652075700000604082015260600190565b6001600160801b038181168382160190808211156136f8576136f8613637565b6001600160801b038281168282160390808211156136f8576136f8613637565b634e487b7160e01b600052601260045260246000fd5b600061ffff808416806137a1576137a1613776565b92169190910692915050565b600061ffff808416806137c2576137c2613776565b92169190910492915050565b600181815b808511156138095781600019048211156137ef576137ef613637565b808516156137fc57918102915b93841c93908002906137d3565b509250929050565b60008261382057506001610d57565b8161382d57506000610d57565b8160018114613843576002811461384d57613869565b6001915050610d57565b60ff84111561385e5761385e613637565b50506001821b610d57565b5060208310610133831016604e8410600b841016171561388c575081810a610d57565b61389683836137ce565b80600019048211156138aa576138aa613637565b029392505050565b6000612b418383613811565b8082028115828204841417610d5757610d57613637565b6000826138e4576138e4613776565b500490565b6001600160801b0381811683821602808216919082811461390c5761390c613637565b505092915050565b60006001600160801b03808416806137c2576137c2613776565b60006020828403121561394057600080fd5b8151612b41816132ea565b60005b8381101561396657818101518382015260200161394e565b50506000910152565b6000825161398181846020870161394b565b9190910192915050565b60208152600082518060208401526139aa81604085016020870161394b565b601f01601f1916919091016040019291505056fea26469706673582212209da3b742dc4887a2cb62925f8826e21b57f7f747c6bcfd4ef674ef2fecbd3f6b64736f6c63430008110033","bytecodeSha1":"72c14389c44858bd4020b5788bbc2ac20d61e54d","compiler":{"evm_version":"istanbul","optimizer":{"enabled":true,"runs":200},"version":"0.8.17+commit.8df45f5f"},"contractName":"CNCLockerV2","language":"Solidity","natspec":{"kind":"dev","methods":{"executeAvailableUnlocks()":{"notice":"Process all expired locks of msg.sender and withdraw unlocked CNC."},"executeAvailableUnlocksFor(address)":{"notice":"Process all expired locks of msg.sender and withdraw unlocked CNC to `dst`."},"executeUnlocks(address,uint64[])":{"notice":"Process specified locks of msg.sender and withdraw unlocked CNC to `dst`.","params":{"dst":"Destination address to receive unlocked CNC.","lockIds":"Array of lock IDs to process."},"returns":{"_0":"unlocked Amount of CNC unlocked."}},"kick(address,uint64)":{"notice":"Kick an expired lock"},"lock(uint256,uint64,bool)":{"notice":"Lock an amount of CNC for vlCNC.","params":{"amount":"Amount of CNC to lock.","lockTime":"Duration of the lock.","relock_":"`True` if this is a relock of an existing lock."}},"lockFor(uint256,uint64,bool,address)":{"notice":"Lock an amount of CNC for vlCNC.","params":{"account":"The account to receive the vlCNC.","amount":"Amount of CNC to lock.","lockTime":"Duration of the lock.","relock_":"`True` if this is a relock of all existing locks."}},"owner()":{"details":"Returns the address of the current owner."},"relock(uint64,uint64)":{"details":"Users locking CNC can create multiple locks therefore individual locks can be relocked separately.","notice":"Relock a specific lock","params":{"lockId":"Id of the lock to relock.","lockTime":"Duration for which the locks's CNC amount should be relocked for."}},"relockMultiple(uint64[],uint64)":{"notice":"Relock specified locks","params":{"lockIds":"Ids of the locks to relock.","lockTime":"Duration for which the locks's CNC amount should be relocked for."}},"renounceOwnership()":{"details":"Leaves the contract without owner. It will not be possible to call `onlyOwner` functions anymore. Can only be called by the current owner. NOTE: Renouncing ownership will leave the contract without an owner, thereby removing any functionality that is only available to the owner."},"transferOwnership(address)":{"details":"Transfers ownership of the contract to a new account (`newOwner`). Can only be called by the current owner."},"unlockableBalance(address)":{"notice":"Get unlocked CNC balance for an address","params":{"user":"Address to get unlocked CNC balance for"},"returns":{"_0":"Unlocked CNC balance"}},"unlockableBalanceBoosted(address)":{"notice":"Get unlocked boosted CNC balance for an address","params":{"user":"Address to get unlocked boosted CNC balance for"},"returns":{"_0":"Unlocked boosted CNC balance"}}},"version":1},"opcodes":"PUSH1 0x80 PUSH1 0x40 MSTORE CALLVALUE DUP1 ISZERO PUSH2 0x10 JUMPI PUSH1 0x0 DUP1 REVERT JUMPDEST POP PUSH1 0x4 CALLDATASIZE LT PUSH2 0x2A0 JUMPI PUSH1 0x0 CALLDATALOAD PUSH1 0xE0 SHR DUP1 PUSH4 0x78F89C20 GT PUSH2 0x167 JUMPI DUP1 PUSH4 0xA6AED923 GT PUSH2 0xCE JUMPI DUP1 PUSH4 0xDDECF662 GT PUSH2 0x87 JUMPI DUP1 PUSH4 0xDDECF662 EQ PUSH2 0x6B2 JUMPI DUP1 PUSH4 0xDFB142AE EQ PUSH2 0x6FC JUMPI DUP1 PUSH4 0xEA312D76 EQ PUSH2 0x70F JUMPI DUP1 PUSH4 0xF2FDE38B EQ PUSH2 0x73A JUMPI DUP1 PUSH4 0xF77C4791 EQ PUSH2 0x74D JUMPI DUP1 PUSH4 0xF816144E EQ PUSH2 0x774 JUMPI PUSH1 0x0 DUP1 REVERT JUMPDEST DUP1 PUSH4 0xA6AED923 EQ PUSH2 0x65C JUMPI DUP1 PUSH4 0xBB3CAC54 EQ PUSH2 0x66F JUMPI DUP1 PUSH4 0xBF4B3E65 EQ PUSH2 0x682 JUMPI DUP1 PUSH4 0xBF86D690 EQ PUSH2 0x68A JUMPI DUP1 PUSH4 0xC5890D2D EQ PUSH2 0x697 JUMPI DUP1 PUSH4 0xD294F093 EQ PUSH2 0x6AA JUMPI PUSH1 0x0 DUP1 REVERT JUMPDEST DUP1 PUSH4 0x8DA5CB5B GT PUSH2 0x120 JUMPI DUP1 PUSH4 0x8DA5CB5B EQ PUSH2 0x5CB JUMPI DUP1 PUSH4 0x923C1D61 EQ PUSH2 0x5DC JUMPI DUP1 PUSH4 0x93ED9D01 EQ PUSH2 0x603 JUMPI DUP1 PUSH4 0x984ACB49 EQ PUSH2 0x616 JUMPI DUP1 PUSH4 0x9AE697BF EQ PUSH2 0x629 JUMPI DUP1 PUSH4 0x9BE65A60 EQ PUSH2 0x649 JUMPI PUSH1 0x0 DUP1 REVERT JUMPDEST DUP1 PUSH4 0x78F89C20 EQ PUSH2 0x51B JUMPI DUP1 PUSH4 0x7907706F EQ PUSH2 0x52E JUMPI DUP1 PUSH4 0x7BF500C8 EQ PUSH2 0x541 JUMPI DUP1 PUSH4 0x7E0B2492 EQ PUSH2 0x561 JUMPI DUP1 PUSH4 0x806019C1 EQ PUSH2 0x589 JUMPI DUP1 PUSH4 0x8434CF70 EQ PUSH2 0x5B0 JUMPI PUSH1 0x0 DUP1 REVERT JUMPDEST DUP1 PUSH4 0x4F348758 GT PUSH2 0x20B JUMPI DUP1 PUSH4 0x61D027B3 GT PUSH2 0x1C4 JUMPI DUP1 PUSH4 0x61D027B3 EQ PUSH2 0x46A JUMPI DUP1 PUSH4 0x631516C2 EQ PUSH2 0x4A9 JUMPI DUP1 PUSH4 0x645D28A8 EQ PUSH2 0x4B2 JUMPI DUP1 PUSH4 0x6A4874A1 EQ PUSH2 0x4D9 JUMPI DUP1 PUSH4 0x70A08231 EQ PUSH2 0x500 JUMPI DUP1 PUSH4 0x715018A6 EQ PUSH2 0x513 JUMPI PUSH1 0x0 DUP1 REVERT JUMPDEST DUP1 PUSH4 0x4F348758 EQ PUSH2 0x3FF JUMPI DUP1 PUSH4 0x5219C512 EQ PUSH2 0x412 JUMPI DUP1 PUSH4 0x56891412 EQ PUSH2 0x425 JUMPI DUP1 PUSH4 0x5CAD88EB EQ PUSH2 0x42E JUMPI DUP1 PUSH4 0x5EE26AD0 EQ PUSH2 0x437 JUMPI DUP1 PUSH4 0x5F07112F EQ PUSH2 0x457 JUMPI PUSH1 0x0 DUP1 REVERT JUMPDEST DUP1 PUSH4 0x1C91607F GT PUSH2 0x25D JUMPI DUP1 PUSH4 0x1C91607F EQ PUSH2 0x36C JUMPI DUP1 PUSH4 0x26A4C842 EQ PUSH2 0x38C JUMPI DUP1 PUSH4 0x2A324607 EQ PUSH2 0x39F JUMPI DUP1 PUSH4 0x2EB4A7AB EQ PUSH2 0x3B2 JUMPI DUP1 PUSH4 0x3EFA9979 EQ PUSH2 0x3D9 JUMPI DUP1 PUSH4 0x46E919D0 EQ PUSH2 0x3EC JUMPI PUSH1 0x0 DUP1 REVERT JUMPDEST DUP1 PUSH4 0x259EF58 EQ PUSH2 0x2A5 JUMPI DUP1 PUSH4 0x499ABD4 EQ PUSH2 0x2CE JUMPI DUP1 PUSH4 0xB70608F EQ PUSH2 0x2FC JUMPI DUP1 PUSH4 0x10B9E583 EQ PUSH2 0x311 JUMPI DUP1 PUSH4 0x11E1DC1E EQ PUSH2 0x319 JUMPI DUP1 PUSH4 0x1B93F66D EQ PUSH2 0x339 JUMPI JUMPDEST PUSH1 0x0 DUP1 REVERT JUMPDEST PUSH2 0x2B8 PUSH2 0x2B3 CALLDATASIZE PUSH1 0x4 PUSH2 0x30FF JUMP JUMPDEST PUSH2 0x77D JUMP JUMPDEST PUSH1 0x40 MLOAD PUSH2 0x2C5 SWAP2 SWAP1 PUSH2 0x311C JUMP JUMPDEST PUSH1 0x40 MLOAD DUP1 SWAP2 SUB SWAP1 RETURN JUMPDEST PUSH2 0x2EE PUSH2 0x2DC CALLDATASIZE PUSH1 0x4 PUSH2 0x30FF JUMP JUMPDEST PUSH1 0xC PUSH1 0x20 MSTORE PUSH1 0x0 SWAP1 DUP2 MSTORE PUSH1 0x40 SWAP1 KECCAK256 SLOAD DUP2 JUMP JUMPDEST PUSH1 0x40 MLOAD SWAP1 DUP2 MSTORE PUSH1 0x20 ADD PUSH2 0x2C5 JUMP JUMPDEST PUSH2 0x30F PUSH2 0x30A CALLDATASIZE PUSH1 0x4 PUSH2 0x3195 JUMP JUMPDEST PUSH2 0x830 JUMP JUMPDEST STOP JUMPDEST PUSH2 0x30F PUSH2 0xA41 JUMP JUMPDEST PUSH2 0x2EE PUSH2 0x327 CALLDATASIZE PUSH1 0x4 PUSH2 0x30FF JUMP JUMPDEST PUSH1 0xE PUSH1 0x20 MSTORE PUSH1 0x0 SWAP1 DUP2 MSTORE PUSH1 0x40 SWAP1 KECCAK256 SLOAD DUP2 JUMP JUMPDEST PUSH2 0x35C PUSH2 0x347 CALLDATASIZE PUSH1 0x4 PUSH2 0x30FF JUMP JUMPDEST PUSH1 0x5 PUSH1 0x20 MSTORE PUSH1 0x0 SWAP1 DUP2 MSTORE PUSH1 0x40 SWAP1 KECCAK256 SLOAD PUSH1 0xFF AND DUP2 JUMP JUMPDEST PUSH1 0x40 MLOAD SWAP1 ISZERO ISZERO DUP2 MSTORE PUSH1 0x20 ADD PUSH2 0x2C5 JUMP JUMPDEST PUSH2 0x2EE PUSH2 0x37A CALLDATASIZE PUSH1 0x4 PUSH2 0x30FF JUMP JUMPDEST PUSH1 0xF PUSH1 0x20 MSTORE PUSH1 0x0 SWAP1 DUP2 MSTORE PUSH1 0x40 SWAP1 KECCAK256 SLOAD DUP2 JUMP JUMPDEST PUSH2 0x30F PUSH2 0x39A CALLDATASIZE PUSH1 0x4 PUSH2 0x3249 JUMP JUMPDEST PUSH2 0xAD4 JUMP JUMPDEST PUSH2 0x2EE PUSH2 0x3AD CALLDATASIZE PUSH1 0x4 PUSH2 0x30FF JUMP JUMPDEST PUSH2 0xB98 JUMP JUMPDEST PUSH2 0x2EE PUSH32 0x0 DUP2 JUMP JUMPDEST PUSH2 0x30F PUSH2 0x3E7 CALLDATASIZE PUSH1 0x4 PUSH2 0x329C JUMP JUMPDEST PUSH2 0xC92 JUMP JUMPDEST PUSH2 0x2EE PUSH2 0x3FA CALLDATASIZE PUSH1 0x4 PUSH2 0x30FF JUMP JUMPDEST PUSH2 0xCA2 JUMP JUMPDEST PUSH2 0x30F PUSH2 0x40D CALLDATASIZE PUSH1 0x4 PUSH2 0x32C8 JUMP JUMPDEST PUSH2 0xD5D JUMP JUMPDEST PUSH2 0x2EE PUSH2 0x420 CALLDATASIZE PUSH1 0x4 PUSH2 0x30FF JUMP JUMPDEST PUSH2 0xE4E JUMP JUMPDEST PUSH2 0x2EE PUSH1 0x7 SLOAD DUP2 JUMP JUMPDEST PUSH2 0x2EE PUSH1 0xA SLOAD DUP2 JUMP JUMPDEST PUSH2 0x2EE PUSH2 0x445 CALLDATASIZE PUSH1 0x4 PUSH2 0x30FF JUMP JUMPDEST PUSH1 0x2 PUSH1 0x20 MSTORE PUSH1 0x0 SWAP1 DUP2 MSTORE PUSH1 0x40 SWAP1 KECCAK256 SLOAD DUP2 JUMP JUMPDEST PUSH2 0x30F PUSH2 0x465 CALLDATASIZE PUSH1 0x4 PUSH2 0x32F8 JUMP JUMPDEST PUSH2 0xEF7 JUMP JUMPDEST PUSH2 0x491 PUSH32 0x0 DUP2 JUMP JUMPDEST PUSH1 0x40 MLOAD PUSH1 0x1 PUSH1 0x1 PUSH1 0xA0 SHL SUB SWAP1 SWAP2 AND DUP2 MSTORE PUSH1 0x20 ADD PUSH2 0x2C5 JUMP JUMPDEST PUSH2 0x2EE PUSH1 0x8 SLOAD DUP2 JUMP JUMPDEST PUSH2 0x491 PUSH32 0x0 DUP2 JUMP JUMPDEST PUSH2 0x491 PUSH32 0x0 DUP2 JUMP JUMPDEST PUSH2 0x2EE PUSH2 0x50E CALLDATASIZE PUSH1 0x4 PUSH2 0x30FF JUMP JUMPDEST PUSH2 0xF08 JUMP JUMPDEST PUSH2 0x30F PUSH2 0xF13 JUMP JUMPDEST PUSH2 0x2EE PUSH2 0x529 CALLDATASIZE PUSH1 0x4 PUSH2 0x30FF JUMP JUMPDEST PUSH2 0xF27 JUMP JUMPDEST PUSH2 0x30F PUSH2 0x53C CALLDATASIZE PUSH1 0x4 PUSH2 0x3338 JUMP JUMPDEST PUSH2 0x1029 JUMP JUMPDEST PUSH2 0x2EE PUSH2 0x54F CALLDATASIZE PUSH1 0x4 PUSH2 0x30FF JUMP JUMPDEST PUSH1 0xD PUSH1 0x20 MSTORE PUSH1 0x0 SWAP1 DUP2 MSTORE PUSH1 0x40 SWAP1 KECCAK256 SLOAD DUP2 JUMP JUMPDEST PUSH2 0x574 PUSH2 0x56F CALLDATASIZE PUSH1 0x4 PUSH2 0x30FF JUMP JUMPDEST PUSH2 0x10A4 JUMP JUMPDEST PUSH1 0x40 DUP1 MLOAD SWAP3 DUP4 MSTORE PUSH1 0x20 DUP4 ADD SWAP2 SWAP1 SWAP2 MSTORE ADD PUSH2 0x2C5 JUMP JUMPDEST PUSH2 0x2EE PUSH32 0x0 DUP2 JUMP JUMPDEST PUSH2 0x491 PUSH20 0x3F41480DD3B32F1CC579125F9570DCCD07E07667 DUP2 JUMP JUMPDEST PUSH1 0x0 SLOAD PUSH1 0x1 PUSH1 0x1 PUSH1 0xA0 SHL SUB AND PUSH2 0x491 JUMP JUMPDEST PUSH2 0x491 PUSH32 0x0 DUP2 JUMP JUMPDEST PUSH2 0x2EE PUSH2 0x611 CALLDATASIZE PUSH1 0x4 PUSH2 0x3362 JUMP JUMPDEST PUSH2 0x115E JUMP JUMPDEST PUSH2 0x30F PUSH2 0x624 CALLDATASIZE PUSH1 0x4 PUSH2 0x33B6 JUMP JUMPDEST PUSH2 0x147D JUMP JUMPDEST PUSH2 0x2EE PUSH2 0x637 CALLDATASIZE PUSH1 0x4 PUSH2 0x30FF JUMP JUMPDEST PUSH1 0x1 PUSH1 0x20 MSTORE PUSH1 0x0 SWAP1 DUP2 MSTORE PUSH1 0x40 SWAP1 KECCAK256 SLOAD DUP2 JUMP JUMPDEST PUSH2 0x30F PUSH2 0x657 CALLDATASIZE PUSH1 0x4 PUSH2 0x30FF JUMP JUMPDEST PUSH2 0x16BA JUMP JUMPDEST PUSH2 0x30F PUSH2 0x66A CALLDATASIZE PUSH1 0x4 PUSH2 0x33D1 JUMP JUMPDEST PUSH2 0x1889 JUMP JUMPDEST PUSH2 0x2EE PUSH2 0x67D CALLDATASIZE PUSH1 0x4 PUSH2 0x30FF JUMP JUMPDEST PUSH2 0x1C3D JUMP JUMPDEST PUSH2 0x2EE PUSH2 0x1C87 JUMP JUMPDEST PUSH1 0x9 SLOAD PUSH2 0x35C SWAP1 PUSH1 0xFF AND DUP2 JUMP JUMPDEST PUSH2 0x30F PUSH2 0x6A5 CALLDATASIZE PUSH1 0x4 PUSH2 0x33EF JUMP JUMPDEST PUSH2 0x1C97 JUMP JUMPDEST PUSH2 0x574 PUSH2 0x209A JUMP JUMPDEST PUSH2 0x6C5 PUSH2 0x6C0 CALLDATASIZE PUSH1 0x4 PUSH2 0x3440 JUMP JUMPDEST PUSH2 0x2189 JUMP JUMPDEST PUSH1 0x40 DUP1 MLOAD SWAP5 DUP6 MSTORE PUSH1 0x1 PUSH1 0x1 PUSH1 0x40 SHL SUB SWAP4 DUP5 AND PUSH1 0x20 DUP7 ADD MSTORE PUSH1 0x1 PUSH1 0x1 PUSH1 0x80 SHL SUB SWAP1 SWAP3 AND SWAP2 DUP5 ADD SWAP2 SWAP1 SWAP2 MSTORE AND PUSH1 0x60 DUP3 ADD MSTORE PUSH1 0x80 ADD PUSH2 0x2C5 JUMP JUMPDEST PUSH2 0x2EE PUSH2 0x70A CALLDATASIZE PUSH1 0x4 PUSH2 0x30FF JUMP JUMPDEST PUSH2 0x21E9 JUMP JUMPDEST PUSH2 0x722 PUSH2 0x71D CALLDATASIZE PUSH1 0x4 PUSH2 0x346C JUMP JUMPDEST PUSH2 0x2524 JUMP JUMPDEST PUSH1 0x40 MLOAD PUSH1 0x1 PUSH1 0x1 PUSH1 0x80 SHL SUB SWAP1 SWAP2 AND DUP2 MSTORE PUSH1 0x20 ADD PUSH2 0x2C5 JUMP JUMPDEST PUSH2 0x30F PUSH2 0x748 CALLDATASIZE PUSH1 0x4 PUSH2 0x30FF JUMP JUMPDEST PUSH2 0x2595 JUMP JUMPDEST PUSH2 0x491 PUSH32 0x0 DUP2 JUMP JUMPDEST PUSH2 0x2EE PUSH1 0xB SLOAD DUP2 JUMP JUMPDEST PUSH1 0x1 PUSH1 0x1 PUSH1 0xA0 SHL SUB DUP2 AND PUSH1 0x0 SWAP1 DUP2 MSTORE PUSH1 0x3 PUSH1 0x20 SWAP1 DUP2 MSTORE PUSH1 0x40 DUP1 DUP4 KECCAK256 DUP1 SLOAD DUP3 MLOAD DUP2 DUP6 MUL DUP2 ADD DUP6 ADD SWAP1 SWAP4 MSTORE DUP1 DUP4 MSTORE PUSH1 0x60 SWAP5 SWAP3 SWAP4 SWAP2 SWAP3 SWAP1 SWAP2 DUP5 ADD JUMPDEST DUP3 DUP3 LT ISZERO PUSH2 0x825 JUMPI PUSH1 0x0 DUP5 DUP2 MSTORE PUSH1 0x20 SWAP1 DUP2 SWAP1 KECCAK256 PUSH1 0x40 DUP1 MLOAD PUSH1 0x80 DUP2 ADD DUP3 MSTORE PUSH1 0x2 DUP7 MUL SWAP1 SWAP3 ADD DUP1 SLOAD DUP4 MSTORE PUSH1 0x1 SWAP1 DUP2 ADD SLOAD PUSH1 0x1 PUSH1 0x1 PUSH1 0x40 SHL SUB DUP1 DUP3 AND DUP6 DUP8 ADD MSTORE PUSH1 0x1 PUSH1 0x1 PUSH1 0x80 SHL SUB PUSH1 0x1 PUSH1 0x40 SHL DUP4 DIV AND SWAP4 DUP6 ADD SWAP4 SWAP1 SWAP4 MSTORE PUSH1 0x1 PUSH1 0xC0 SHL SWAP1 DIV SWAP1 SWAP2 AND PUSH1 0x60 DUP4 ADD MSTORE SWAP1 DUP4 MSTORE SWAP1 SWAP3 ADD SWAP2 ADD PUSH2 0x7B5 JUMP JUMPDEST POP POP POP POP SWAP1 POP SWAP2 SWAP1 POP JUMP JUMPDEST PUSH32 0x0 TIMESTAMP LT PUSH2 0x894 JUMPI PUSH1 0x40 MLOAD PUSH3 0x461BCD PUSH1 0xE5 SHL DUP2 MSTORE PUSH1 0x20 PUSH1 0x4 DUP3 ADD MSTORE PUSH1 0xD PUSH1 0x24 DUP3 ADD MSTORE PUSH13 0x185A5C991C9BDC08195B991959 PUSH1 0x9A SHL PUSH1 0x44 DUP3 ADD MSTORE PUSH1 0x64 ADD JUMPDEST PUSH1 0x40 MLOAD DUP1 SWAP2 SUB SWAP1 REVERT JUMPDEST CALLER PUSH1 0x0 SWAP1 DUP2 MSTORE PUSH1 0x5 PUSH1 0x20 MSTORE PUSH1 0x40 SWAP1 KECCAK256 SLOAD PUSH1 0xFF AND ISZERO PUSH2 0x8E6 JUMPI PUSH1 0x40 MLOAD PUSH3 0x461BCD PUSH1 0xE5 SHL DUP2 MSTORE PUSH1 0x20 PUSH1 0x4 DUP3 ADD MSTORE PUSH1 0xF PUSH1 0x24 DUP3 ADD MSTORE PUSH15 0x185B1C9958591E4818DB185A5B5959 PUSH1 0x8A SHL PUSH1 0x44 DUP3 ADD MSTORE PUSH1 0x64 ADD PUSH2 0x88B JUMP JUMPDEST PUSH8 0x30927F74C9DE0000 DUP3 GT ISZERO PUSH2 0x93E JUMPI PUSH1 0x40 MLOAD PUSH3 0x461BCD PUSH1 0xE5 SHL DUP2 MSTORE PUSH1 0x20 PUSH1 0x4 DUP3 ADD DUP2 SWAP1 MSTORE PUSH1 0x24 DUP3 ADD MSTORE PUSH32 0x616D6F756E742065786365656473206D61782061697264726F7020626F6F7374 PUSH1 0x44 DUP3 ADD MSTORE PUSH1 0x64 ADD PUSH2 0x88B JUMP JUMPDEST PUSH1 0x40 MLOAD PUSH12 0xFFFFFFFFFFFFFFFFFFFFFFFF NOT CALLER PUSH1 0x60 SHL AND PUSH1 0x20 DUP3 ADD MSTORE PUSH1 0x34 DUP2 ADD DUP4 SWAP1 MSTORE PUSH1 0x0 SWAP1 PUSH1 0x54 ADD PUSH1 0x40 MLOAD PUSH1 0x20 DUP2 DUP4 SUB SUB DUP2 MSTORE SWAP1 PUSH1 0x40 MSTORE DUP1 MLOAD SWAP1 PUSH1 0x20 ADD KECCAK256 SWAP1 POP PUSH2 0x9B4 DUP2 PUSH32 0x0 DUP5 PUSH2 0x9AD SWAP1 PUSH2 0x3503 JUMP JUMPDEST SWAP2 SWAP1 PUSH2 0x260E JUMP JUMPDEST PUSH2 0x9F0 JUMPI PUSH1 0x40 MLOAD PUSH3 0x461BCD PUSH1 0xE5 SHL DUP2 MSTORE PUSH1 0x20 PUSH1 0x4 DUP3 ADD MSTORE PUSH1 0xD PUSH1 0x24 DUP3 ADD MSTORE PUSH13 0x34B73B30B634B210383937B7B3 PUSH1 0x99 SHL PUSH1 0x44 DUP3 ADD MSTORE PUSH1 0x64 ADD PUSH2 0x88B JUMP JUMPDEST CALLER PUSH1 0x0 DUP2 DUP2 MSTORE PUSH1 0x4 PUSH1 0x20 MSTORE PUSH1 0x40 SWAP1 DUP2 SWAP1 KECCAK256 DUP6 SWAP1 SSTORE MLOAD PUSH32 0xFB7C165A21B698D172209FD3FBB4A907042C12438CD506666064CD98E0A142AA SWAP1 PUSH2 0xA34 SWAP1 DUP7 DUP2 MSTORE PUSH1 0x20 ADD SWAP1 JUMP JUMPDEST PUSH1 0x40 MLOAD DUP1 SWAP2 SUB SWAP1 LOG2 POP POP POP JUMP JUMPDEST PUSH2 0xA49 PUSH2 0x270C JUMP JUMPDEST PUSH1 0x9 SLOAD PUSH1 0xFF AND ISZERO PUSH2 0xA9C JUMPI PUSH1 0x40 MLOAD PUSH3 0x461BCD PUSH1 0xE5 SHL DUP2 MSTORE PUSH1 0x20 PUSH1 0x4 DUP3 ADD MSTORE PUSH1 0x18 PUSH1 0x24 DUP3 ADD MSTORE PUSH32 0x6C6F636B657220616C72656164792073757370656E6465640000000000000000 PUSH1 0x44 DUP3 ADD MSTORE PUSH1 0x64 ADD PUSH2 0x88B JUMP JUMPDEST PUSH1 0x9 DUP1 SLOAD PUSH1 0xFF NOT AND PUSH1 0x1 OR SWAP1 SSTORE PUSH1 0x40 MLOAD PUSH32 0x4426AA1FB73E391071491FCFE21A88B5C38A0A0333A1F6E77161470439704CF8 SWAP1 PUSH1 0x0 SWAP1 LOG1 JUMP JUMPDEST PUSH1 0x9 SLOAD PUSH1 0xFF AND ISZERO PUSH2 0xAF7 JUMPI PUSH1 0x40 MLOAD PUSH3 0x461BCD PUSH1 0xE5 SHL DUP2 MSTORE PUSH1 0x4 ADD PUSH2 0x88B SWAP1 PUSH2 0x35CC JUMP JUMPDEST PUSH1 0x1 PUSH1 0x1 PUSH1 0x40 SHL SUB DUP2 AND PUSH3 0x9E3400 GT DUP1 ISZERO SWAP1 PUSH2 0xB20 JUMPI POP PUSH4 0x13C6800 PUSH1 0x1 PUSH1 0x1 PUSH1 0x40 SHL SUB DUP3 AND GT ISZERO JUMPDEST PUSH2 0xB3C JUMPI PUSH1 0x40 MLOAD PUSH3 0x461BCD PUSH1 0xE5 SHL DUP2 MSTORE PUSH1 0x4 ADD PUSH2 0x88B SWAP1 PUSH2 0x35F6 JUMP JUMPDEST PUSH2 0xB45 CALLER PUSH2 0x2766 JUMP JUMPDEST PUSH1 0x0 JUMPDEST DUP3 DUP2 LT ISZERO PUSH2 0xB92 JUMPI PUSH2 0xB80 DUP5 DUP5 DUP4 DUP2 DUP2 LT PUSH2 0xB65 JUMPI PUSH2 0xB65 PUSH2 0x3621 JUMP JUMPDEST SWAP1 POP PUSH1 0x20 MUL ADD PUSH1 0x20 DUP2 ADD SWAP1 PUSH2 0xB7A SWAP2 SWAP1 PUSH2 0x33B6 JUMP JUMPDEST DUP4 PUSH2 0x2850 JUMP JUMPDEST DUP1 PUSH2 0xB8A DUP2 PUSH2 0x364D JUMP JUMPDEST SWAP2 POP POP PUSH2 0xB48 JUMP JUMPDEST POP POP POP POP JUMP JUMPDEST PUSH1 0x1 PUSH1 0x1 PUSH1 0xA0 SHL SUB DUP2 AND PUSH1 0x0 SWAP1 DUP2 MSTORE PUSH1 0x3 PUSH1 0x20 MSTORE PUSH1 0x40 DUP2 KECCAK256 DUP1 SLOAD DUP3 SWAP2 SWAP1 DUP3 JUMPDEST DUP2 DUP2 LT ISZERO PUSH2 0xC88 JUMPI TIMESTAMP PUSH1 0x1 PUSH1 0x1 PUSH1 0x80 SHL SUB AND DUP4 DUP3 DUP2 SLOAD DUP2 LT PUSH2 0xBDB JUMPI PUSH2 0xBDB PUSH2 0x3621 JUMP JUMPDEST PUSH1 0x0 SWAP2 DUP3 MSTORE PUSH1 0x20 SWAP1 SWAP2 KECCAK256 PUSH1 0x1 PUSH1 0x2 SWAP1 SWAP3 MUL ADD ADD SLOAD PUSH1 0x1 PUSH1 0x1 PUSH1 0x40 SHL SUB AND GT PUSH2 0xC76 JUMPI PUSH2 0xC69 DUP4 DUP3 DUP2 SLOAD DUP2 LT PUSH2 0xC12 JUMPI PUSH2 0xC12 PUSH2 0x3621 JUMP JUMPDEST SWAP1 PUSH1 0x0 MSTORE PUSH1 0x20 PUSH1 0x0 KECCAK256 SWAP1 PUSH1 0x2 MUL ADD PUSH1 0x1 ADD PUSH1 0x8 SWAP1 SLOAD SWAP1 PUSH2 0x100 EXP SWAP1 DIV PUSH1 0x1 PUSH1 0x1 PUSH1 0x80 SHL SUB AND PUSH1 0x1 PUSH1 0x1 PUSH1 0x80 SHL SUB AND DUP5 DUP4 DUP2 SLOAD DUP2 LT PUSH2 0xC52 JUMPI PUSH2 0xC52 PUSH2 0x3621 JUMP JUMPDEST PUSH1 0x0 SWAP2 DUP3 MSTORE PUSH1 0x20 SWAP1 SWAP2 KECCAK256 PUSH1 0x2 SWAP1 SWAP2 MUL ADD SLOAD SWAP1 PUSH2 0x2B1F JUMP JUMPDEST PUSH2 0xC73 SWAP1 DUP6 PUSH2 0x3666 JUMP JUMPDEST SWAP4 POP JUMPDEST DUP1 PUSH2 0xC80 DUP2 PUSH2 0x364D JUMP JUMPDEST SWAP2 POP POP PUSH2 0xBB7 JUMP JUMPDEST POP SWAP2 SWAP5 SWAP4 POP POP POP POP JUMP JUMPDEST PUSH2 0xC9E DUP3 DUP3 PUSH1 0x0 PUSH2 0xEF7 JUMP JUMPDEST POP POP JUMP JUMPDEST PUSH1 0x40 MLOAD PUSH4 0x70A08231 PUSH1 0xE0 SHL DUP2 MSTORE PUSH1 0x1 PUSH1 0x1 PUSH1 0xA0 SHL SUB DUP3 AND PUSH1 0x4 DUP3 ADD MSTORE PUSH1 0x0 SWAP1 PUSH20 0x3F41480DD3B32F1CC579125F9570DCCD07E07667 SWAP1 PUSH4 0x70A08231 SWAP1 PUSH1 0x24 ADD PUSH1 0x20 PUSH1 0x40 MLOAD DUP1 DUP4 SUB DUP2 DUP7 GAS STATICCALL ISZERO DUP1 ISZERO PUSH2 0xCFD JUMPI RETURNDATASIZE PUSH1 0x0 DUP1 RETURNDATACOPY RETURNDATASIZE PUSH1 0x0 REVERT JUMPDEST POP POP POP POP PUSH1 0x40 MLOAD RETURNDATASIZE PUSH1 0x1F NOT PUSH1 0x1F DUP3 ADD AND DUP3 ADD DUP1 PUSH1 0x40 MSTORE POP DUP2 ADD SWAP1 PUSH2 0xD21 SWAP2 SWAP1 PUSH2 0x3679 JUMP JUMPDEST PUSH2 0xD2A DUP4 PUSH2 0xB98 JUMP JUMPDEST PUSH1 0x1 PUSH1 0x1 PUSH1 0xA0 SHL SUB DUP5 AND PUSH1 0x0 SWAP1 DUP2 MSTORE PUSH1 0x2 PUSH1 0x20 MSTORE PUSH1 0x40 SWAP1 KECCAK256 SLOAD PUSH2 0xD4D SWAP2 SWAP1 PUSH2 0x3692 JUMP JUMPDEST PUSH2 0xD57 SWAP2 SWAP1 PUSH2 0x3666 JUMP JUMPDEST SWAP3 SWAP2 POP POP JUMP JUMPDEST PUSH2 0xD92 PUSH1 0x1 PUSH1 0x1 PUSH1 0xA0 SHL SUB PUSH32 0x0 AND CALLER ADDRESS DUP6 PUSH2 0x2B48 JUMP JUMPDEST PUSH2 0xDC7 PUSH1 0x1 PUSH1 0x1 PUSH1 0xA0 SHL SUB PUSH32 0x0 AND CALLER ADDRESS DUP5 PUSH2 0x2B48 JUMP JUMPDEST PUSH1 0x8 SLOAD PUSH2 0xDD5 SWAP1 DUP4 SWAP1 PUSH2 0x2BB3 JUMP JUMPDEST PUSH1 0xA PUSH1 0x0 DUP3 DUP3 SLOAD PUSH2 0xDE6 SWAP2 SWAP1 PUSH2 0x3666 JUMP JUMPDEST SWAP1 SWAP2 SSTORE POP POP PUSH1 0x8 SLOAD PUSH2 0xDF9 SWAP1 DUP3 SWAP1 PUSH2 0x2BB3 JUMP JUMPDEST PUSH1 0xB PUSH1 0x0 DUP3 DUP3 SLOAD PUSH2 0xE0A SWAP2 SWAP1 PUSH2 0x3666 JUMP JUMPDEST SWAP1 SWAP2 SSTORE POP POP PUSH1 0x40 DUP1 MLOAD DUP4 DUP2 MSTORE PUSH1 0x20 DUP2 ADD DUP4 SWAP1 MSTORE CALLER SWAP2 PUSH32 0x213E72AF0D3613BD643CFF3059F872C1015E6541624E37872BF95EEFBAF220A8 SWAP2 ADD PUSH1 0x40 MLOAD DUP1 SWAP2 SUB SWAP1 LOG2 POP POP JUMP JUMPDEST PUSH1 0x1 PUSH1 0x1 PUSH1 0xA0 SHL SUB DUP2 AND PUSH1 0x0 SWAP1 DUP2 MSTORE PUSH1 0x3 PUSH1 0x20 MSTORE PUSH1 0x40 DUP2 KECCAK256 DUP1 SLOAD DUP3 SWAP2 SWAP1 DUP3 JUMPDEST DUP2 DUP2 LT ISZERO PUSH2 0xC88 JUMPI TIMESTAMP PUSH1 0x1 PUSH1 0x1 PUSH1 0x80 SHL SUB AND DUP4 DUP3 DUP2 SLOAD DUP2 LT PUSH2 0xE91 JUMPI PUSH2 0xE91 PUSH2 0x3621 JUMP JUMPDEST PUSH1 0x0 SWAP2 DUP3 MSTORE PUSH1 0x20 SWAP1 SWAP2 KECCAK256 PUSH1 0x1 PUSH1 0x2 SWAP1 SWAP3 MUL ADD ADD SLOAD PUSH1 0x1 PUSH1 0x1 PUSH1 0x40 SHL SUB AND GT PUSH2 0xEE5 JUMPI DUP3 DUP2 DUP2 SLOAD DUP2 LT PUSH2 0xEC5 JUMPI PUSH2 0xEC5 PUSH2 0x3621 JUMP JUMPDEST SWAP1 PUSH1 0x0 MSTORE PUSH1 0x20 PUSH1 0x0 KECCAK256 SWAP1 PUSH1 0x2 MUL ADD PUSH1 0x0 ADD SLOAD DUP5 PUSH2 0xEE2 SWAP2 SWAP1 PUSH2 0x3666 JUMP JUMPDEST SWAP4 POP JUMPDEST DUP1 PUSH2 0xEEF DUP2 PUSH2 0x364D JUMP JUMPDEST SWAP2 POP POP PUSH2 0xE6D JUMP JUMPDEST PUSH2 0xF03 DUP4 DUP4 DUP4 CALLER PUSH2 0x1C97 JUMP JUMPDEST POP POP POP JUMP JUMPDEST PUSH1 0x0 PUSH2 0xD57 DUP3 PUSH2 0xF27 JUMP JUMPDEST PUSH2 0xF1B PUSH2 0x270C JUMP JUMPDEST PUSH2 0xF25 PUSH1 0x0 PUSH2 0x2BCC JUMP JUMPDEST JUMP JUMPDEST PUSH1 0x0 PUSH2 0xD57 PUSH32 0x0 PUSH1 0x1 PUSH1 0x1 PUSH1 0xA0 SHL SUB AND PUSH4 0x48439E7E PUSH1 0x40 MLOAD DUP2 PUSH4 0xFFFFFFFF AND PUSH1 0xE0 SHL DUP2 MSTORE PUSH1 0x4 ADD PUSH1 0x20 PUSH1 0x40 MLOAD DUP1 DUP4 SUB DUP2 DUP7 GAS STATICCALL ISZERO DUP1 ISZERO PUSH2 0xF8A JUMPI RETURNDATASIZE PUSH1 0x0 DUP1 RETURNDATACOPY RETURNDATASIZE PUSH1 0x0 REVERT JUMPDEST POP POP POP POP PUSH1 0x40 MLOAD RETURNDATASIZE PUSH1 0x1F NOT PUSH1 0x1F DUP3 ADD AND DUP3 ADD DUP1 PUSH1 0x40 MSTORE POP DUP2 ADD SWAP1 PUSH2 0xFAE SWAP2 SWAP1 PUSH2 0x36A5 JUMP JUMPDEST PUSH1 0x40 MLOAD PUSH4 0x67BA3D9 PUSH1 0xE4 SHL DUP2 MSTORE PUSH1 0x1 PUSH1 0x1 PUSH1 0xA0 SHL SUB DUP6 DUP2 AND PUSH1 0x4 DUP4 ADD MSTORE SWAP2 SWAP1 SWAP2 AND SWAP1 PUSH4 0x67BA3D90 SWAP1 PUSH1 0x24 ADD PUSH1 0x20 PUSH1 0x40 MLOAD DUP1 DUP4 SUB DUP2 DUP7 GAS STATICCALL ISZERO DUP1 ISZERO PUSH2 0xFF6 JUMPI RETURNDATASIZE PUSH1 0x0 DUP1 RETURNDATACOPY RETURNDATASIZE PUSH1 0x0 REVERT JUMPDEST POP POP POP POP PUSH1 0x40 MLOAD RETURNDATASIZE PUSH1 0x1F NOT PUSH1 0x1F DUP3 ADD AND DUP3 ADD DUP1 PUSH1 0x40 MSTORE POP DUP2 ADD SWAP1 PUSH2 0x101A SWAP2 SWAP1 PUSH2 0x3679 JUMP JUMPDEST PUSH2 0x1023 DUP5 PUSH2 0xCA2 JUMP JUMPDEST SWAP1 PUSH2 0x2B1F JUMP JUMPDEST PUSH1 0x9 SLOAD PUSH1 0xFF AND ISZERO PUSH2 0x104C JUMPI PUSH1 0x40 MLOAD PUSH3 0x461BCD PUSH1 0xE5 SHL DUP2 MSTORE PUSH1 0x4 ADD PUSH2 0x88B SWAP1 PUSH2 0x35CC JUMP JUMPDEST PUSH1 0x1 PUSH1 0x1 PUSH1 0x40 SHL SUB DUP2 AND PUSH3 0x9E3400 GT DUP1 ISZERO SWAP1 PUSH2 0x1075 JUMPI POP PUSH4 0x13C6800 PUSH1 0x1 PUSH1 0x1 PUSH1 0x40 SHL SUB DUP3 AND GT ISZERO JUMPDEST PUSH2 0x1091 JUMPI PUSH1 0x40 MLOAD PUSH3 0x461BCD PUSH1 0xE5 SHL DUP2 MSTORE PUSH1 0x4 ADD PUSH2 0x88B SWAP1 PUSH2 0x35F6 JUMP JUMPDEST PUSH2 0x109A CALLER PUSH2 0x2766 JUMP JUMPDEST PUSH2 0xC9E DUP3 DUP3 PUSH2 0x2850 JUMP JUMPDEST PUSH1 0x1 PUSH1 0x1 PUSH1 0xA0 SHL SUB DUP2 AND PUSH1 0x0 SWAP1 DUP2 MSTORE PUSH1 0x2 PUSH1 0x20 SWAP1 DUP2 MSTORE PUSH1 0x40 DUP1 DUP4 KECCAK256 SLOAD PUSH1 0xC SWAP1 SWAP3 MSTORE DUP3 KECCAK256 SLOAD PUSH1 0xA SLOAD DUP4 SWAP3 SWAP2 PUSH2 0x10E3 SWAP2 PUSH2 0x10DC SWAP2 SWAP1 PUSH2 0x3692 JUMP JUMPDEST DUP3 SWAP1 PUSH2 0x2B1F JUMP JUMPDEST PUSH1 0x1 PUSH1 0x1 PUSH1 0xA0 SHL SUB DUP6 AND PUSH1 0x0 SWAP1 DUP2 MSTORE PUSH1 0xD PUSH1 0x20 MSTORE PUSH1 0x40 SWAP1 KECCAK256 SLOAD PUSH2 0x1106 SWAP2 SWAP1 PUSH2 0x3666 JUMP JUMPDEST PUSH1 0x1 PUSH1 0x1 PUSH1 0xA0 SHL SUB DUP6 AND PUSH1 0x0 SWAP1 DUP2 MSTORE PUSH1 0xE PUSH1 0x20 MSTORE PUSH1 0x40 SWAP1 KECCAK256 SLOAD PUSH1 0xB SLOAD SWAP2 SWAP5 POP PUSH2 0x1133 SWAP2 PUSH2 0x10DC SWAP2 SWAP1 PUSH2 0x3692 JUMP JUMPDEST PUSH1 0x1 PUSH1 0x1 PUSH1 0xA0 SHL SUB DUP6 AND PUSH1 0x0 SWAP1 DUP2 MSTORE PUSH1 0xF PUSH1 0x20 MSTORE PUSH1 0x40 SWAP1 KECCAK256 SLOAD PUSH2 0x1156 SWAP2 SWAP1 PUSH2 0x3666 JUMP JUMPDEST SWAP2 POP POP SWAP2 POP SWAP2 JUMP JUMPDEST PUSH1 0x0 PUSH2 0x1169 CALLER PUSH2 0x2766 JUMP JUMPDEST CALLER PUSH1 0x0 SWAP1 DUP2 MSTORE PUSH1 0x3 PUSH1 0x20 MSTORE PUSH1 0x40 DUP2 KECCAK256 DUP2 SWAP1 DUP2 JUMPDEST DUP6 DUP2 LT ISZERO PUSH2 0x138F JUMPI PUSH1 0x0 PUSH2 0x11B6 CALLER DUP10 DUP10 DUP6 DUP2 DUP2 LT PUSH2 0x119C JUMPI PUSH2 0x119C PUSH2 0x3621 JUMP JUMPDEST SWAP1 POP PUSH1 0x20 MUL ADD PUSH1 0x20 DUP2 ADD SWAP1 PUSH2 0x11B1 SWAP2 SWAP1 PUSH2 0x33B6 JUMP JUMPDEST PUSH2 0x2C1C JUMP JUMPDEST PUSH1 0x9 SLOAD SWAP1 SWAP2 POP PUSH1 0xFF AND DUP1 PUSH2 0x11F8 JUMPI POP TIMESTAMP DUP4 DUP3 DUP2 SLOAD DUP2 LT PUSH2 0x11D8 JUMPI PUSH2 0x11D8 PUSH2 0x3621 JUMP JUMPDEST PUSH1 0x0 SWAP2 DUP3 MSTORE PUSH1 0x20 SWAP1 SWAP2 KECCAK256 PUSH1 0x1 PUSH1 0x2 SWAP1 SWAP3 MUL ADD ADD SLOAD PUSH1 0x1 PUSH1 0x1 PUSH1 0x40 SHL SUB AND GT ISZERO JUMPDEST PUSH2 0x1237 JUMPI PUSH1 0x40 MLOAD PUSH3 0x461BCD PUSH1 0xE5 SHL DUP2 MSTORE PUSH1 0x20 PUSH1 0x4 DUP3 ADD MSTORE PUSH1 0x10 PUSH1 0x24 DUP3 ADD MSTORE PUSH16 0x1B1BD8DAC81B9BDD08195E1C1A5C9959 PUSH1 0x82 SHL PUSH1 0x44 DUP3 ADD MSTORE PUSH1 0x64 ADD PUSH2 0x88B JUMP JUMPDEST DUP3 DUP2 DUP2 SLOAD DUP2 LT PUSH2 0x1249 JUMPI PUSH2 0x1249 PUSH2 0x3621 JUMP JUMPDEST SWAP1 PUSH1 0x0 MSTORE PUSH1 0x20 PUSH1 0x0 KECCAK256 SWAP1 PUSH1 0x2 MUL ADD PUSH1 0x0 ADD SLOAD DUP6 PUSH2 0x1266 SWAP2 SWAP1 PUSH2 0x3666 JUMP JUMPDEST SWAP5 POP PUSH2 0x127D DUP4 DUP3 DUP2 SLOAD DUP2 LT PUSH2 0xC12 JUMPI PUSH2 0xC12 PUSH2 0x3621 JUMP JUMPDEST PUSH2 0x1287 SWAP1 DUP6 PUSH2 0x3666 JUMP JUMPDEST DUP4 SLOAD SWAP1 SWAP5 POP DUP4 SWAP1 PUSH2 0x129A SWAP1 PUSH1 0x1 SWAP1 PUSH2 0x3692 JUMP JUMPDEST DUP2 SLOAD DUP2 LT PUSH2 0x12AA JUMPI PUSH2 0x12AA PUSH2 0x3621 JUMP JUMPDEST SWAP1 PUSH1 0x0 MSTORE PUSH1 0x20 PUSH1 0x0 KECCAK256 SWAP1 PUSH1 0x2 MUL ADD DUP4 DUP3 DUP2 SLOAD DUP2 LT PUSH2 0x12CA JUMPI PUSH2 0x12CA PUSH2 0x3621 JUMP JUMPDEST PUSH1 0x0 SWAP2 DUP3 MSTORE PUSH1 0x20 SWAP1 SWAP2 KECCAK256 DUP3 SLOAD PUSH1 0x2 SWAP1 SWAP3 MUL ADD SWAP1 DUP2 SSTORE PUSH1 0x1 SWAP2 DUP3 ADD DUP1 SLOAD SWAP3 SWAP1 SWAP2 ADD DUP1 SLOAD PUSH8 0xFFFFFFFFFFFFFFFF NOT DUP2 AND PUSH1 0x1 PUSH1 0x1 PUSH1 0x40 SHL SUB SWAP5 DUP6 AND SWAP1 DUP2 OR DUP4 SSTORE DUP4 SLOAD PUSH1 0x1 PUSH1 0x1 PUSH1 0x80 SHL SUB PUSH1 0x1 PUSH1 0x40 SHL SWAP2 DUP3 SWAP1 DIV AND MUL PUSH1 0x1 PUSH1 0x1 PUSH1 0xC0 SHL SUB NOT SWAP1 SWAP3 AND OR OR DUP1 DUP3 SSTORE SWAP2 SLOAD PUSH1 0x1 PUSH1 0xC0 SHL SWAP1 DUP2 SWAP1 DIV SWAP1 SWAP4 AND SWAP1 SWAP3 MUL PUSH1 0x1 PUSH1 0x1 PUSH1 0xC0 SHL SUB SWAP1 SWAP2 AND OR SWAP1 SSTORE DUP3 SLOAD DUP4 SWAP1 DUP1 PUSH2 0x135E JUMPI PUSH2 0x135E PUSH2 0x36C2 JUMP JUMPDEST PUSH1 0x0 DUP3 DUP2 MSTORE PUSH1 0x20 DUP2 KECCAK256 PUSH1 0x2 PUSH1 0x0 NOT SWAP1 SWAP4 ADD SWAP3 DUP4 MUL ADD DUP2 DUP2 SSTORE PUSH1 0x1 ADD SSTORE SWAP1 SSTORE POP DUP1 PUSH2 0x1387 DUP2 PUSH2 0x364D JUMP JUMPDEST SWAP2 POP POP PUSH2 0x117C JUMP JUMPDEST POP DUP3 PUSH1 0x7 PUSH1 0x0 DUP3 DUP3 SLOAD PUSH2 0x13A2 SWAP2 SWAP1 PUSH2 0x3692 JUMP JUMPDEST SWAP3 POP POP DUP2 SWAP1 SSTORE POP DUP2 PUSH1 0x8 PUSH1 0x0 DUP3 DUP3 SLOAD PUSH2 0x13BB SWAP2 SWAP1 PUSH2 0x3692 JUMP JUMPDEST SWAP1 SWAP2 SSTORE POP POP CALLER PUSH1 0x0 SWAP1 DUP2 MSTORE PUSH1 0x1 PUSH1 0x20 MSTORE PUSH1 0x40 DUP2 KECCAK256 DUP1 SLOAD DUP6 SWAP3 SWAP1 PUSH2 0x13DF SWAP1 DUP5 SWAP1 PUSH2 0x3692 JUMP JUMPDEST SWAP1 SWAP2 SSTORE POP POP CALLER PUSH1 0x0 SWAP1 DUP2 MSTORE PUSH1 0x2 PUSH1 0x20 MSTORE PUSH1 0x40 DUP2 KECCAK256 DUP1 SLOAD DUP5 SWAP3 SWAP1 PUSH2 0x1403 SWAP1 DUP5 SWAP1 PUSH2 0x3692 JUMP JUMPDEST SWAP1 SWAP2 SSTORE POP PUSH2 0x143D SWAP1 POP PUSH1 0x1 PUSH1 0x1 PUSH1 0xA0 SHL SUB PUSH32 0x0 AND DUP9 DUP6 PUSH2 0x2CF7 JUMP JUMPDEST PUSH1 0x40 MLOAD DUP4 DUP2 MSTORE CALLER SWAP1 PUSH32 0xB291E2A2847A5AD6D47409943306C6D6E8C63A9855B849701B868191E9478970 SWAP1 PUSH1 0x20 ADD PUSH1 0x40 MLOAD DUP1 SWAP2 SUB SWAP1 LOG2 POP SWAP1 SWAP6 SWAP5 POP POP POP POP POP JUMP JUMPDEST PUSH1 0x9 SLOAD PUSH1 0xFF AND ISZERO PUSH2 0x14A0 JUMPI PUSH1 0x40 MLOAD PUSH3 0x461BCD PUSH1 0xE5 SHL DUP2 MSTORE PUSH1 0x4 ADD PUSH2 0x88B SWAP1 PUSH2 0x35CC JUMP JUMPDEST PUSH1 0x1 PUSH1 0x1 PUSH1 0x40 SHL SUB DUP2 AND PUSH3 0x9E3400 GT DUP1 ISZERO SWAP1 PUSH2 0x14C9 JUMPI POP PUSH4 0x13C6800 PUSH1 0x1 PUSH1 0x1 PUSH1 0x40 SHL SUB DUP3 AND GT ISZERO JUMPDEST PUSH2 0x14E5 JUMPI PUSH1 0x40 MLOAD PUSH3 0x461BCD PUSH1 0xE5 SHL DUP2 MSTORE PUSH1 0x4 ADD PUSH2 0x88B SWAP1 PUSH2 0x35F6 JUMP JUMPDEST PUSH2 0x14EE CALLER PUSH2 0x2766 JUMP JUMPDEST PUSH1 0x0 PUSH2 0x1502 DUP3 PUSH1 0x1 PUSH1 0x1 PUSH1 0x40 SHL SUB AND PUSH2 0x2524 JUMP JUMPDEST SWAP1 POP PUSH1 0x0 PUSH2 0x1510 DUP4 TIMESTAMP PUSH2 0x36D8 JUMP JUMPDEST CALLER PUSH1 0x0 SWAP1 DUP2 MSTORE PUSH1 0x3 PUSH1 0x20 MSTORE PUSH1 0x40 DUP2 KECCAK256 SLOAD SWAP2 SWAP3 POP JUMPDEST DUP2 DUP2 LT ISZERO PUSH2 0x15A5 JUMPI CALLER PUSH1 0x0 SWAP1 DUP2 MSTORE PUSH1 0x3 PUSH1 0x20 MSTORE PUSH1 0x40 SWAP1 KECCAK256 DUP1 SLOAD PUSH1 0x1 PUSH1 0x1 PUSH1 0x40 SHL SUB DUP6 AND SWAP2 SWAP1 DUP4 SWAP1 DUP2 LT PUSH2 0x1559 JUMPI PUSH2 0x1559 PUSH2 0x3621 JUMP JUMPDEST PUSH1 0x0 SWAP2 DUP3 MSTORE PUSH1 0x20 SWAP1 SWAP2 KECCAK256 PUSH1 0x1 PUSH1 0x2 SWAP1 SWAP3 MUL ADD ADD SLOAD PUSH1 0x1 PUSH1 0x1 PUSH1 0x40 SHL SUB AND LT PUSH2 0x1593 JUMPI PUSH1 0x40 MLOAD PUSH3 0x461BCD PUSH1 0xE5 SHL DUP2 MSTORE PUSH1 0x4 ADD PUSH2 0x88B SWAP1 PUSH2 0x36FF JUMP JUMPDEST DUP1 PUSH2 0x159D DUP2 PUSH2 0x364D JUMP JUMPDEST SWAP2 POP POP PUSH2 0x1524 JUMP JUMPDEST POP CALLER PUSH1 0x0 SWAP1 DUP2 MSTORE PUSH1 0x3 PUSH1 0x20 MSTORE PUSH1 0x40 DUP2 KECCAK256 PUSH2 0x15BE SWAP2 PUSH2 0x30AF JUMP JUMPDEST CALLER PUSH1 0x0 SWAP1 DUP2 MSTORE PUSH1 0x2 PUSH1 0x20 MSTORE PUSH1 0x40 DUP2 KECCAK256 SLOAD PUSH1 0x8 DUP1 SLOAD SWAP2 SWAP3 SWAP1 SWAP2 PUSH2 0x15E1 SWAP1 DUP5 SWAP1 PUSH2 0x3692 JUMP JUMPDEST SWAP1 SWAP2 SSTORE POP POP CALLER PUSH1 0x0 DUP2 DUP2 MSTORE PUSH1 0x2 PUSH1 0x20 SWAP1 DUP2 MSTORE PUSH1 0x40 DUP1 DUP4 KECCAK256 DUP4 SWAP1 SSTORE PUSH1 0x1 SWAP1 SWAP2 MSTORE SWAP1 KECCAK256 SLOAD PUSH2 0x160F SWAP2 SWAP1 DUP5 DUP7 PUSH2 0x2D27 JUMP JUMPDEST CALLER PUSH1 0x0 SWAP1 DUP2 MSTORE PUSH1 0x1 PUSH1 0x20 MSTORE PUSH1 0x40 DUP2 KECCAK256 SLOAD PUSH2 0x1632 SWAP1 PUSH1 0x1 PUSH1 0x1 PUSH1 0x80 SHL SUB DUP7 AND PUSH2 0x2B1F JUMP JUMPDEST SWAP1 POP DUP1 PUSH1 0x8 PUSH1 0x0 DUP3 DUP3 SLOAD PUSH2 0x1646 SWAP2 SWAP1 PUSH2 0x3666 JUMP JUMPDEST SWAP1 SWAP2 SSTORE POP POP CALLER PUSH1 0x0 SWAP1 DUP2 MSTORE PUSH1 0x2 PUSH1 0x20 MSTORE PUSH1 0x40 DUP2 KECCAK256 DUP1 SLOAD DUP4 SWAP3 SWAP1 PUSH2 0x166A SWAP1 DUP5 SWAP1 PUSH2 0x3666 JUMP JUMPDEST SWAP1 SWAP2 SSTORE POP POP CALLER PUSH1 0x0 DUP2 DUP2 MSTORE PUSH1 0x1 PUSH1 0x20 SWAP1 DUP2 MSTORE PUSH1 0x40 SWAP2 DUP3 SWAP1 KECCAK256 SLOAD SWAP2 MLOAD SWAP2 DUP3 MSTORE PUSH32 0xE2D155D9D74DECC198A9A9B4F5BDDB24EE0842EE745C9CE57E3573B971E50D9D SWAP2 ADD PUSH1 0x40 MLOAD DUP1 SWAP2 SUB SWAP1 LOG2 POP POP POP POP POP JUMP JUMPDEST PUSH32 0x0 PUSH1 0x1 PUSH1 0x1 PUSH1 0xA0 SHL SUB AND DUP2 PUSH1 0x1 PUSH1 0x1 PUSH1 0xA0 SHL SUB AND EQ ISZERO DUP1 ISZERO PUSH2 0x172E JUMPI POP PUSH32 0x0 PUSH1 0x1 PUSH1 0x1 PUSH1 0xA0 SHL SUB AND DUP2 PUSH1 0x1 PUSH1 0x1 PUSH1 0xA0 SHL SUB AND EQ ISZERO JUMPDEST DUP1 ISZERO PUSH2 0x176C JUMPI POP PUSH32 0x0 PUSH1 0x1 PUSH1 0x1 PUSH1 0xA0 SHL SUB AND DUP2 PUSH1 0x1 PUSH1 0x1 PUSH1 0xA0 SHL SUB AND EQ ISZERO JUMPDEST PUSH2 0x17B0 JUMPI PUSH1 0x40 MLOAD PUSH3 0x461BCD PUSH1 0xE5 SHL DUP2 MSTORE PUSH1 0x20 PUSH1 0x4 DUP3 ADD MSTORE PUSH1 0x15 PUSH1 0x24 DUP3 ADD MSTORE PUSH21 0x31B0B73737BA103BB4BA34323930BB903A37B5B2B7 PUSH1 0x59 SHL PUSH1 0x44 DUP3 ADD MSTORE PUSH1 0x64 ADD PUSH2 0x88B JUMP JUMPDEST PUSH1 0x40 MLOAD PUSH4 0x70A08231 PUSH1 0xE0 SHL DUP2 MSTORE ADDRESS PUSH1 0x4 DUP3 ADD MSTORE DUP2 SWAP1 PUSH2 0x1851 SWAP1 PUSH32 0x0 SWAP1 PUSH1 0x1 PUSH1 0x1 PUSH1 0xA0 SHL SUB DUP5 AND SWAP1 PUSH4 0x70A08231 SWAP1 PUSH1 0x24 ADD PUSH1 0x20 PUSH1 0x40 MLOAD DUP1 DUP4 SUB DUP2 DUP7 GAS STATICCALL ISZERO DUP1 ISZERO PUSH2 0x181C JUMPI RETURNDATASIZE PUSH1 0x0 DUP1 RETURNDATACOPY RETURNDATASIZE PUSH1 0x0 REVERT JUMPDEST POP POP POP POP PUSH1 0x40 MLOAD RETURNDATASIZE PUSH1 0x1F NOT PUSH1 0x1F DUP3 ADD AND DUP3 ADD DUP1 PUSH1 0x40 MSTORE POP DUP2 ADD SWAP1 PUSH2 0x1840 SWAP2 SWAP1 PUSH2 0x3679 JUMP JUMPDEST PUSH1 0x1 PUSH1 0x1 PUSH1 0xA0 SHL SUB DUP5 AND SWAP2 SWAP1 PUSH2 0x2CF7 JUMP JUMPDEST PUSH1 0x40 MLOAD PUSH1 0x1 PUSH1 0x1 PUSH1 0xA0 SHL SUB DUP4 AND SWAP1 PUSH32 0x17A79BE10B6DA9324A110F0EA6D3043DB38F1EEE6E2EE1DBFA7272338E39DA45 SWAP1 PUSH1 0x0 SWAP1 LOG2 POP POP JUMP JUMPDEST PUSH1 0x0 PUSH2 0x1895 DUP4 DUP4 PUSH2 0x2C1C JUMP JUMPDEST PUSH1 0x1 PUSH1 0x1 PUSH1 0xA0 SHL SUB DUP5 AND PUSH1 0x0 SWAP1 DUP2 MSTORE PUSH1 0x3 PUSH1 0x20 MSTORE PUSH1 0x40 SWAP1 KECCAK256 DUP1 SLOAD SWAP2 SWAP3 POP SWAP1 PUSH1 0x1 PUSH1 0x1 PUSH1 0x80 SHL SUB TIMESTAMP AND SWAP1 PUSH3 0x24EA00 SWAP1 DUP4 SWAP1 DUP6 SWAP1 DUP2 LT PUSH2 0x18D5 JUMPI PUSH2 0x18D5 PUSH2 0x3621 JUMP JUMPDEST PUSH1 0x0 SWAP2 DUP3 MSTORE PUSH1 0x20 SWAP1 SWAP2 KECCAK256 PUSH1 0x1 PUSH1 0x2 SWAP1 SWAP3 MUL ADD ADD SLOAD PUSH2 0x18FC SWAP2 SWAP1 PUSH1 0x1 PUSH1 0x1 PUSH1 0x40 SHL SUB AND PUSH2 0x3736 JUMP JUMPDEST PUSH1 0x1 PUSH1 0x1 PUSH1 0x80 SHL SUB AND GT ISZERO PUSH2 0x194B JUMPI PUSH1 0x40 MLOAD PUSH3 0x461BCD PUSH1 0xE5 SHL DUP2 MSTORE PUSH1 0x20 PUSH1 0x4 DUP3 ADD MSTORE PUSH1 0x15 PUSH1 0x24 DUP3 ADD MSTORE PUSH21 0x63616E6E6F74206B69636B2074686973206C6F636B PUSH1 0x58 SHL PUSH1 0x44 DUP3 ADD MSTORE PUSH1 0x64 ADD PUSH2 0x88B JUMP JUMPDEST PUSH2 0x1954 DUP5 PUSH2 0x2766 JUMP JUMPDEST PUSH1 0x0 DUP2 DUP4 DUP2 SLOAD DUP2 LT PUSH2 0x1968 JUMPI PUSH2 0x1968 PUSH2 0x3621 JUMP JUMPDEST SWAP1 PUSH1 0x0 MSTORE PUSH1 0x20 PUSH1 0x0 KECCAK256 SWAP1 PUSH1 0x2 MUL ADD PUSH1 0x0 ADD SLOAD SWAP1 POP DUP1 PUSH1 0x7 PUSH1 0x0 DUP3 DUP3 SLOAD PUSH2 0x198E SWAP2 SWAP1 PUSH2 0x3692 JUMP JUMPDEST SWAP3 POP POP DUP2 SWAP1 SSTORE POP PUSH2 0x19D5 DUP3 DUP5 DUP2 SLOAD DUP2 LT PUSH2 0x19AA JUMPI PUSH2 0x19AA PUSH2 0x3621 JUMP JUMPDEST PUSH1 0x0 SWAP2 DUP3 MSTORE PUSH1 0x20 SWAP1 SWAP2 KECCAK256 PUSH1 0x2 SWAP1 SWAP2 MUL ADD PUSH1 0x1 ADD SLOAD DUP3 SWAP1 PUSH1 0x1 PUSH1 0x40 SHL SWAP1 DIV PUSH1 0x1 PUSH1 0x1 PUSH1 0x80 SHL SUB AND PUSH2 0x2B1F JUMP JUMPDEST PUSH1 0x8 PUSH1 0x0 DUP3 DUP3 SLOAD PUSH2 0x19E6 SWAP2 SWAP1 PUSH2 0x3692 JUMP JUMPDEST SWAP1 SWAP2 SSTORE POP POP PUSH1 0x1 PUSH1 0x1 PUSH1 0xA0 SHL SUB DUP6 AND PUSH1 0x0 SWAP1 DUP2 MSTORE PUSH1 0x1 PUSH1 0x20 MSTORE PUSH1 0x40 DUP2 KECCAK256 DUP1 SLOAD DUP4 SWAP3 SWAP1 PUSH2 0x1A13 SWAP1 DUP5 SWAP1 PUSH2 0x3692 JUMP JUMPDEST SWAP3 POP POP DUP2 SWAP1 SSTORE POP PUSH2 0x1A2F DUP3 DUP5 DUP2 SLOAD DUP2 LT PUSH2 0x19AA JUMPI PUSH2 0x19AA PUSH2 0x3621 JUMP JUMPDEST PUSH1 0x1 PUSH1 0x1 PUSH1 0xA0 SHL SUB DUP7 AND PUSH1 0x0 SWAP1 DUP2 MSTORE PUSH1 0x2 PUSH1 0x20 MSTORE PUSH1 0x40 DUP2 KECCAK256 DUP1 SLOAD SWAP1 SWAP2 SWAP1 PUSH2 0x1A57 SWAP1 DUP5 SWAP1 PUSH2 0x3692 JUMP JUMPDEST SWAP1 SWAP2 SSTORE POP PUSH1 0x0 SWAP1 POP PUSH2 0x1A71 DUP3 PUSH8 0x16345785D8A0000 PUSH2 0x2B1F JUMP JUMPDEST SWAP1 POP PUSH9 0x3635C9ADC5DEA00000 DUP2 GT ISZERO PUSH2 0x1A90 JUMPI POP PUSH9 0x3635C9ADC5DEA00000 JUMPDEST PUSH2 0x1ACF DUP7 PUSH2 0x1A9E DUP4 DUP6 PUSH2 0x3692 JUMP JUMPDEST PUSH1 0x1 PUSH1 0x1 PUSH1 0xA0 SHL SUB PUSH32 0x0 AND SWAP2 SWAP1 PUSH2 0x2CF7 JUMP JUMPDEST PUSH2 0x1B03 PUSH1 0x1 PUSH1 0x1 PUSH1 0xA0 SHL SUB PUSH32 0x0 AND CALLER DUP4 PUSH2 0x2CF7 JUMP JUMPDEST PUSH1 0x40 MLOAD DUP3 DUP2 MSTORE CALLER SWAP1 PUSH1 0x1 PUSH1 0x1 PUSH1 0xA0 SHL SUB DUP9 AND SWAP1 PUSH32 0x9716D4C8630C7C1A47A462F169D1764A38687F7532BAF2BD74A791AFC20030E6 SWAP1 PUSH1 0x20 ADD PUSH1 0x40 MLOAD DUP1 SWAP2 SUB SWAP1 LOG3 DUP3 SLOAD DUP4 SWAP1 PUSH2 0x1B53 SWAP1 PUSH1 0x1 SWAP1 PUSH2 0x3692 JUMP JUMPDEST DUP2 SLOAD DUP2 LT PUSH2 0x1B63 JUMPI PUSH2 0x1B63 PUSH2 0x3621 JUMP JUMPDEST SWAP1 PUSH1 0x0 MSTORE PUSH1 0x20 PUSH1 0x0 KECCAK256 SWAP1 PUSH1 0x2 MUL ADD DUP4 DUP6 DUP2 SLOAD DUP2 LT PUSH2 0x1B83 JUMPI PUSH2 0x1B83 PUSH2 0x3621 JUMP JUMPDEST PUSH1 0x0 SWAP2 DUP3 MSTORE PUSH1 0x20 SWAP1 SWAP2 KECCAK256 DUP3 SLOAD PUSH1 0x2 SWAP1 SWAP3 MUL ADD SWAP1 DUP2 SSTORE PUSH1 0x1 SWAP2 DUP3 ADD DUP1 SLOAD SWAP3 SWAP1 SWAP2 ADD DUP1 SLOAD PUSH8 0xFFFFFFFFFFFFFFFF NOT DUP2 AND PUSH1 0x1 PUSH1 0x1 PUSH1 0x40 SHL SUB SWAP5 DUP6 AND SWAP1 DUP2 OR DUP4 SSTORE DUP4 SLOAD PUSH1 0x1 PUSH1 0x1 PUSH1 0x80 SHL SUB PUSH1 0x1 PUSH1 0x40 SHL SWAP2 DUP3 SWAP1 DIV AND MUL PUSH1 0x1 PUSH1 0x1 PUSH1 0xC0 SHL SUB NOT SWAP1 SWAP3 AND OR OR DUP1 DUP3 SSTORE SWAP2 SLOAD PUSH1 0x1 PUSH1 0xC0 SHL SWAP1 DUP2 SWAP1 DIV SWAP1 SWAP4 AND SWAP1 SWAP3 MUL PUSH1 0x1 PUSH1 0x1 PUSH1 0xC0 SHL SUB SWAP1 SWAP2 AND OR SWAP1 SSTORE DUP3 SLOAD DUP4 SWAP1 DUP1 PUSH2 0x1C17 JUMPI PUSH2 0x1C17 PUSH2 0x36C2 JUMP JUMPDEST PUSH1 0x0 DUP3 DUP2 MSTORE PUSH1 0x20 DUP2 KECCAK256 PUSH1 0x2 PUSH1 0x0 NOT SWAP1 SWAP4 ADD SWAP3 DUP4 MUL ADD DUP2 DUP2 SSTORE PUSH1 0x1 ADD SSTORE SWAP1 SSTORE POP POP POP POP POP POP JUMP JUMPDEST PUSH1 0x1 PUSH1 0x1 PUSH1 0xA0 SHL SUB DUP2 AND PUSH1 0x0 SWAP1 DUP2 MSTORE PUSH1 0x4 PUSH1 0x20 MSTORE PUSH1 0x40 DUP2 KECCAK256 SLOAD DUP2 SUB PUSH2 0x1C6B JUMPI POP PUSH8 0xDE0B6B3A7640000 SWAP2 SWAP1 POP JUMP JUMPDEST POP PUSH1 0x1 PUSH1 0x1 PUSH1 0xA0 SHL SUB AND PUSH1 0x0 SWAP1 DUP2 MSTORE PUSH1 0x4 PUSH1 0x20 MSTORE PUSH1 0x40 SWAP1 KECCAK256 SLOAD SWAP1 JUMP JUMPDEST PUSH1 0x0 PUSH2 0x1C92 CALLER PUSH2 0x21E9 JUMP JUMPDEST SWAP1 POP SWAP1 JUMP JUMPDEST PUSH1 0x9 SLOAD PUSH1 0xFF AND ISZERO PUSH2 0x1CBA JUMPI PUSH1 0x40 MLOAD PUSH3 0x461BCD PUSH1 0xE5 SHL DUP2 MSTORE PUSH1 0x4 ADD PUSH2 0x88B SWAP1 PUSH2 0x35CC JUMP JUMPDEST PUSH1 0x1 PUSH1 0x1 PUSH1 0x40 SHL SUB DUP4 AND PUSH3 0x9E3400 GT DUP1 ISZERO SWAP1 PUSH2 0x1CE3 JUMPI POP PUSH4 0x13C6800 PUSH1 0x1 PUSH1 0x1 PUSH1 0x40 SHL SUB DUP5 AND GT ISZERO JUMPDEST PUSH2 0x1CFF JUMPI PUSH1 0x40 MLOAD PUSH3 0x461BCD PUSH1 0xE5 SHL DUP2 MSTORE PUSH1 0x4 ADD PUSH2 0x88B SWAP1 PUSH2 0x35F6 JUMP JUMPDEST DUP2 ISZERO DUP1 PUSH2 0x1D14 JUMPI POP CALLER PUSH1 0x1 PUSH1 0x1 PUSH1 0xA0 SHL SUB DUP3 AND EQ JUMPDEST PUSH2 0x1D57 JUMPI PUSH1 0x40 MLOAD PUSH3 0x461BCD PUSH1 0xE5 SHL DUP2 MSTORE PUSH1 0x20 PUSH1 0x4 DUP3 ADD MSTORE PUSH1 0x14 PUSH1 0x24 DUP3 ADD MSTORE PUSH20 0x3932B637B1B59037B7363C903337B91039B2B633 PUSH1 0x61 SHL PUSH1 0x44 DUP3 ADD MSTORE PUSH1 0x64 ADD PUSH2 0x88B JUMP JUMPDEST PUSH2 0x1D60 DUP2 PUSH2 0x2766 JUMP JUMPDEST PUSH2 0x1D95 PUSH1 0x1 PUSH1 0x1 PUSH1 0xA0 SHL SUB PUSH32 0x0 AND CALLER ADDRESS DUP8 PUSH2 0x2B48 JUMP JUMPDEST PUSH1 0x0 PUSH2 0x1DA9 DUP5 PUSH1 0x1 PUSH1 0x1 PUSH1 0x40 SHL SUB AND PUSH2 0x2524 JUMP JUMPDEST SWAP1 POP PUSH1 0x0 PUSH2 0x1DB6 CALLER PUSH2 0x1C3D JUMP JUMPDEST SWAP1 POP PUSH8 0xDE0B6B3A7640000 DUP2 GT ISZERO PUSH2 0x1E08 JUMPI CALLER PUSH1 0x0 SWAP1 DUP2 MSTORE PUSH1 0x5 PUSH1 0x20 MSTORE PUSH1 0x40 SWAP1 KECCAK256 DUP1 SLOAD PUSH1 0xFF NOT AND PUSH1 0x1 OR SWAP1 SSTORE PUSH2 0x1DF5 PUSH1 0x1 PUSH1 0x1 PUSH1 0x80 SHL SUB DUP4 AND DUP3 PUSH2 0x2E12 JUMP JUMPDEST CALLER PUSH1 0x0 SWAP1 DUP2 MSTORE PUSH1 0x4 PUSH1 0x20 MSTORE PUSH1 0x40 DUP2 KECCAK256 SSTORE SWAP2 POP JUMPDEST PUSH1 0x0 PUSH2 0x1E14 DUP7 TIMESTAMP PUSH2 0x36D8 JUMP JUMPDEST SWAP1 POP PUSH1 0x0 DUP6 ISZERO PUSH2 0x1F8F JUMPI PUSH1 0x1 PUSH1 0x1 PUSH1 0xA0 SHL SUB DUP6 AND PUSH1 0x0 SWAP1 DUP2 MSTORE PUSH1 0x3 PUSH1 0x20 MSTORE PUSH1 0x40 DUP2 KECCAK256 SLOAD SWAP1 JUMPDEST DUP2 DUP2 LT ISZERO PUSH2 0x1EC3 JUMPI PUSH1 0x1 PUSH1 0x1 PUSH1 0xA0 SHL SUB DUP8 AND PUSH1 0x0 SWAP1 DUP2 MSTORE PUSH1 0x3 PUSH1 0x20 MSTORE PUSH1 0x40 SWAP1 KECCAK256 DUP1 SLOAD PUSH1 0x1 PUSH1 0x1 PUSH1 0x40 SHL SUB DUP7 AND SWAP2 SWAP1 DUP4 SWAP1 DUP2 LT PUSH2 0x1E77 JUMPI PUSH2 0x1E77 PUSH2 0x3621 JUMP JUMPDEST PUSH1 0x0 SWAP2 DUP3 MSTORE PUSH1 0x20 SWAP1 SWAP2 KECCAK256 PUSH1 0x1 PUSH1 0x2 SWAP1 SWAP3 MUL ADD ADD SLOAD PUSH1 0x1 PUSH1 0x1 PUSH1 0x40 SHL SUB AND LT PUSH2 0x1EB1 JUMPI PUSH1 0x40 MLOAD PUSH3 0x461BCD PUSH1 0xE5 SHL DUP2 MSTORE PUSH1 0x4 ADD PUSH2 0x88B SWAP1 PUSH2 0x36FF JUMP JUMPDEST DUP1 PUSH2 0x1EBB DUP2 PUSH2 0x364D JUMP JUMPDEST SWAP2 POP POP PUSH2 0x1E39 JUMP JUMPDEST POP PUSH1 0x1 PUSH1 0x1 PUSH1 0xA0 SHL SUB DUP7 AND PUSH1 0x0 SWAP1 DUP2 MSTORE PUSH1 0x3 PUSH1 0x20 MSTORE PUSH1 0x40 DUP2 KECCAK256 PUSH2 0x1EE5 SWAP2 PUSH2 0x30AF JUMP JUMPDEST PUSH1 0x1 PUSH1 0x1 PUSH1 0xA0 SHL SUB DUP7 AND PUSH1 0x0 SWAP1 DUP2 MSTORE PUSH1 0x2 PUSH1 0x20 MSTORE PUSH1 0x40 DUP2 KECCAK256 SLOAD PUSH1 0x8 DUP1 SLOAD SWAP2 SWAP3 SWAP1 SWAP2 PUSH2 0x1F11 SWAP1 DUP5 SWAP1 PUSH2 0x3692 JUMP JUMPDEST SWAP1 SWAP2 SSTORE POP POP PUSH1 0x1 PUSH1 0x1 PUSH1 0xA0 SHL SUB DUP7 AND PUSH1 0x0 SWAP1 DUP2 MSTORE PUSH1 0x2 PUSH1 0x20 SWAP1 DUP2 MSTORE PUSH1 0x40 DUP1 DUP4 KECCAK256 DUP4 SWAP1 SSTORE PUSH1 0x1 SWAP1 SWAP2 MSTORE SWAP1 KECCAK256 SLOAD PUSH2 0x1F54 SWAP1 DUP8 SWAP1 PUSH2 0x1F4D SWAP1 DUP13 SWAP1 PUSH2 0x3666 JUMP JUMPDEST DUP6 DUP9 PUSH2 0x2D27 JUMP JUMPDEST PUSH1 0x1 PUSH1 0x1 PUSH1 0xA0 SHL SUB DUP7 AND PUSH1 0x0 SWAP1 DUP2 MSTORE PUSH1 0x1 PUSH1 0x20 MSTORE PUSH1 0x40 SWAP1 KECCAK256 SLOAD PUSH2 0x1F87 SWAP1 PUSH1 0x1 PUSH1 0x1 PUSH1 0x80 SHL SUB DUP8 AND SWAP1 PUSH2 0x1023 SWAP1 DUP13 SWAP1 PUSH2 0x3666 JUMP JUMPDEST SWAP2 POP POP PUSH2 0x1FB1 JUMP JUMPDEST PUSH2 0x1F9B DUP6 DUP10 DUP5 DUP8 PUSH2 0x2D27 JUMP JUMPDEST PUSH2 0x1FAE DUP9 PUSH1 0x1 PUSH1 0x1 PUSH1 0x80 SHL SUB DUP7 AND PUSH2 0x2B1F JUMP JUMPDEST SWAP1 POP JUMPDEST DUP8 PUSH1 0x7 PUSH1 0x0 DUP3 DUP3 SLOAD PUSH2 0x1FC3 SWAP2 SWAP1 PUSH2 0x3666 JUMP JUMPDEST SWAP3 POP POP DUP2 SWAP1 SSTORE POP DUP1 PUSH1 0x8 PUSH1 0x0 DUP3 DUP3 SLOAD PUSH2 0x1FDC SWAP2 SWAP1 PUSH2 0x3666 JUMP JUMPDEST SWAP1 SWAP2 SSTORE POP POP PUSH1 0x1 PUSH1 0x1 PUSH1 0xA0 SHL SUB DUP6 AND PUSH1 0x0 SWAP1 DUP2 MSTORE PUSH1 0x1 PUSH1 0x20 MSTORE PUSH1 0x40 DUP2 KECCAK256 DUP1 SLOAD DUP11 SWAP3 SWAP1 PUSH2 0x2009 SWAP1 DUP5 SWAP1 PUSH2 0x3666 JUMP JUMPDEST SWAP1 SWAP2 SSTORE POP POP PUSH1 0x1 PUSH1 0x1 PUSH1 0xA0 SHL SUB DUP6 AND PUSH1 0x0 SWAP1 DUP2 MSTORE PUSH1 0x2 PUSH1 0x20 MSTORE PUSH1 0x40 DUP2 KECCAK256 DUP1 SLOAD DUP4 SWAP3 SWAP1 PUSH2 0x2036 SWAP1 DUP5 SWAP1 PUSH2 0x3666 JUMP JUMPDEST SWAP1 SWAP2 SSTORE POP POP PUSH1 0x40 DUP1 MLOAD DUP10 DUP2 MSTORE PUSH1 0x1 PUSH1 0x1 PUSH1 0x40 SHL SUB DUP5 AND PUSH1 0x20 DUP3 ADD MSTORE DUP8 ISZERO ISZERO DUP2 DUP4 ADD MSTORE SWAP1 MLOAD PUSH1 0x1 PUSH1 0x1 PUSH1 0xA0 SHL SUB DUP8 AND SWAP2 PUSH32 0xCA8D506EDA84F8ED07C2908AE102299D34888EF5E19B97F56E4D6FCD1104C31E SWAP2 SWAP1 DUP2 SWAP1 SUB PUSH1 0x60 ADD SWAP1 LOG2 POP POP POP POP POP POP POP POP JUMP JUMPDEST PUSH1 0x0 DUP1 PUSH2 0x20A6 CALLER PUSH2 0x2766 JUMP JUMPDEST POP POP CALLER PUSH1 0x0 DUP2 DUP2 MSTORE PUSH1 0xD PUSH1 0x20 SWAP1 DUP2 MSTORE PUSH1 0x40 DUP1 DUP4 KECCAK256 SLOAD PUSH1 0xF SWAP1 SWAP3 MSTORE SWAP1 SWAP2 KECCAK256 SLOAD SWAP1 SWAP2 PUSH2 0x20FB SWAP1 PUSH32 0x0 PUSH1 0x1 PUSH1 0x1 PUSH1 0xA0 SHL SUB AND SWAP1 DUP5 PUSH2 0x2CF7 JUMP JUMPDEST PUSH2 0x212F PUSH1 0x1 PUSH1 0x1 PUSH1 0xA0 SHL SUB PUSH32 0x0 AND CALLER DUP4 PUSH2 0x2CF7 JUMP JUMPDEST CALLER PUSH1 0x0 DUP2 DUP2 MSTORE PUSH1 0xD PUSH1 0x20 SWAP1 DUP2 MSTORE PUSH1 0x40 DUP1 DUP4 KECCAK256 DUP4 SWAP1 SSTORE PUSH1 0xF DUP3 MSTORE DUP1 DUP4 KECCAK256 SWAP3 SWAP1 SWAP3 SSTORE DUP2 MLOAD DUP6 DUP2 MSTORE SWAP1 DUP2 ADD DUP5 SWAP1 MSTORE PUSH32 0x1AC537F0AD67B64AC68A04587FF3A4CB6977DE22EB2C37EE560897A92C6D07C7 SWAP2 ADD PUSH1 0x40 MLOAD DUP1 SWAP2 SUB SWAP1 LOG2 SWAP1 SWAP2 JUMP JUMPDEST PUSH1 0x3 PUSH1 0x20 MSTORE DUP2 PUSH1 0x0 MSTORE PUSH1 0x40 PUSH1 0x0 KECCAK256 DUP2 DUP2 SLOAD DUP2 LT PUSH2 0x21A5 JUMPI PUSH1 0x0 DUP1 REVERT JUMPDEST PUSH1 0x0 SWAP2 DUP3 MSTORE PUSH1 0x20 SWAP1 SWAP2 KECCAK256 PUSH1 0x2 SWAP1 SWAP2 MUL ADD DUP1 SLOAD PUSH1 0x1 SWAP1 SWAP2 ADD SLOAD SWAP1 SWAP3 POP PUSH1 0x1 PUSH1 0x1 PUSH1 0x40 SHL SUB DUP1 DUP3 AND SWAP3 POP PUSH1 0x1 PUSH1 0x1 PUSH1 0x80 SHL SUB PUSH1 0x1 PUSH1 0x40 SHL DUP4 DIV AND SWAP2 PUSH1 0x1 PUSH1 0xC0 SHL SWAP1 DIV AND DUP5 JUMP JUMPDEST PUSH1 0x0 PUSH1 0x1 PUSH1 0x1 PUSH1 0xA0 SHL SUB DUP3 AND PUSH2 0x2237 JUMPI PUSH1 0x40 MLOAD PUSH3 0x461BCD PUSH1 0xE5 SHL DUP2 MSTORE PUSH1 0x20 PUSH1 0x4 DUP3 ADD MSTORE PUSH1 0x13 PUSH1 0x24 DUP3 ADD MSTORE PUSH19 0x34B73B30B634B2103232B9BA34B730BA34B7B7 PUSH1 0x69 SHL PUSH1 0x44 DUP3 ADD MSTORE PUSH1 0x64 ADD PUSH2 0x88B JUMP JUMPDEST PUSH2 0x2240 CALLER PUSH2 0x2766 JUMP JUMPDEST CALLER PUSH1 0x0 SWAP1 DUP2 MSTORE PUSH1 0x3 PUSH1 0x20 MSTORE PUSH1 0x40 DUP2 KECCAK256 DUP1 SLOAD DUP3 SWAP2 SWAP1 JUMPDEST DUP1 ISZERO PUSH2 0x2438 JUMPI PUSH2 0x2266 PUSH1 0x1 DUP3 PUSH2 0x3692 JUMP JUMPDEST PUSH1 0x9 SLOAD SWAP1 SWAP2 POP PUSH1 0xFF AND DUP1 PUSH2 0x22A8 JUMPI POP TIMESTAMP DUP3 DUP3 DUP2 SLOAD DUP2 LT PUSH2 0x2288 JUMPI PUSH2 0x2288 PUSH2 0x3621 JUMP JUMPDEST PUSH1 0x0 SWAP2 DUP3 MSTORE PUSH1 0x20 SWAP1 SWAP2 KECCAK256 PUSH1 0x1 PUSH1 0x2 SWAP1 SWAP3 MUL ADD ADD SLOAD PUSH1 0x1 PUSH1 0x1 PUSH1 0x40 SHL SUB AND GT ISZERO JUMPDEST ISZERO PUSH2 0x2433 JUMPI DUP2 DUP2 DUP2 SLOAD DUP2 LT PUSH2 0x22BF JUMPI PUSH2 0x22BF PUSH2 0x3621 JUMP JUMPDEST SWAP1 PUSH1 0x0 MSTORE PUSH1 0x20 PUSH1 0x0 KECCAK256 SWAP1 PUSH1 0x2 MUL ADD PUSH1 0x0 ADD SLOAD DUP5 PUSH2 0x22DC SWAP2 SWAP1 PUSH2 0x3666 JUMP JUMPDEST SWAP4 POP PUSH2 0x2333 DUP3 DUP3 DUP2 SLOAD DUP2 LT PUSH2 0x22F3 JUMPI PUSH2 0x22F3 PUSH2 0x3621 JUMP JUMPDEST SWAP1 PUSH1 0x0 MSTORE PUSH1 0x20 PUSH1 0x0 KECCAK256 SWAP1 PUSH1 0x2 MUL ADD PUSH1 0x1 ADD PUSH1 0x8 SWAP1 SLOAD SWAP1 PUSH2 0x100 EXP SWAP1 DIV PUSH1 0x1 PUSH1 0x1 PUSH1 0x80 SHL SUB AND PUSH1 0x1 PUSH1 0x1 PUSH1 0x80 SHL SUB AND DUP4 DUP4 DUP2 SLOAD DUP2 LT PUSH2 0xC52 JUMPI PUSH2 0xC52 PUSH2 0x3621 JUMP JUMPDEST PUSH2 0x233D SWAP1 DUP5 PUSH2 0x3666 JUMP JUMPDEST DUP3 SLOAD SWAP1 SWAP4 POP DUP3 SWAP1 PUSH2 0x2350 SWAP1 PUSH1 0x1 SWAP1 PUSH2 0x3692 JUMP JUMPDEST DUP2 SLOAD DUP2 LT PUSH2 0x2360 JUMPI PUSH2 0x2360 PUSH2 0x3621 JUMP JUMPDEST SWAP1 PUSH1 0x0 MSTORE PUSH1 0x20 PUSH1 0x0 KECCAK256 SWAP1 PUSH1 0x2 MUL ADD DUP3 DUP3 DUP2 SLOAD DUP2 LT PUSH2 0x2380 JUMPI PUSH2 0x2380 PUSH2 0x3621 JUMP JUMPDEST PUSH1 0x0 SWAP2 DUP3 MSTORE PUSH1 0x20 SWAP1 SWAP2 KECCAK256 DUP3 SLOAD PUSH1 0x2 SWAP1 SWAP3 MUL ADD SWAP1 DUP2 SSTORE PUSH1 0x1 SWAP2 DUP3 ADD DUP1 SLOAD SWAP3 SWAP1 SWAP2 ADD DUP1 SLOAD PUSH8 0xFFFFFFFFFFFFFFFF NOT DUP2 AND PUSH1 0x1 PUSH1 0x1 PUSH1 0x40 SHL SUB SWAP5 DUP6 AND SWAP1 DUP2 OR DUP4 SSTORE DUP4 SLOAD PUSH1 0x1 PUSH1 0x1 PUSH1 0x80 SHL SUB PUSH1 0x1 PUSH1 0x40 SHL SWAP2 DUP3 SWAP1 DIV AND MUL PUSH1 0x1 PUSH1 0x1 PUSH1 0xC0 SHL SUB NOT SWAP1 SWAP3 AND OR OR DUP1 DUP3 SSTORE SWAP2 SLOAD PUSH1 0x1 PUSH1 0xC0 SHL SWAP1 DUP2 SWAP1 DIV SWAP1 SWAP4 AND SWAP1 SWAP3 MUL PUSH1 0x1 PUSH1 0x1 PUSH1 0xC0 SHL SUB SWAP1 SWAP2 AND OR SWAP1 SSTORE DUP2 SLOAD DUP3 SWAP1 DUP1 PUSH2 0x2414 JUMPI PUSH2 0x2414 PUSH2 0x36C2 JUMP JUMPDEST PUSH1 0x0 DUP3 DUP2 MSTORE PUSH1 0x20 DUP2 KECCAK256 PUSH1 0x2 PUSH1 0x0 NOT SWAP1 SWAP4 ADD SWAP3 DUP4 MUL ADD DUP2 DUP2 SSTORE PUSH1 0x1 ADD SSTORE SWAP1 SSTORE JUMPDEST PUSH2 0x2255 JUMP JUMPDEST DUP4 PUSH1 0x7 PUSH1 0x0 DUP3 DUP3 SLOAD PUSH2 0x244A SWAP2 SWAP1 PUSH2 0x3692 JUMP JUMPDEST SWAP3 POP POP DUP2 SWAP1 SSTORE POP DUP3 PUSH1 0x8 PUSH1 0x0 DUP3 DUP3 SLOAD PUSH2 0x2463 SWAP2 SWAP1 PUSH2 0x3692 JUMP JUMPDEST SWAP1 SWAP2 SSTORE POP POP CALLER PUSH1 0x0 SWAP1 DUP2 MSTORE PUSH1 0x1 PUSH1 0x20 MSTORE PUSH1 0x40 DUP2 KECCAK256 DUP1 SLOAD DUP7 SWAP3 SWAP1 PUSH2 0x2487 SWAP1 DUP5 SWAP1 PUSH2 0x3692 JUMP JUMPDEST SWAP1 SWAP2 SSTORE POP POP CALLER PUSH1 0x0 SWAP1 DUP2 MSTORE PUSH1 0x2 PUSH1 0x20 MSTORE PUSH1 0x40 DUP2 KECCAK256 DUP1 SLOAD DUP6 SWAP3 SWAP1 PUSH2 0x24AB SWAP1 DUP5 SWAP1 PUSH2 0x3692 JUMP JUMPDEST SWAP1 SWAP2 SSTORE POP PUSH2 0x24E5 SWAP1 POP PUSH1 0x1 PUSH1 0x1 PUSH1 0xA0 SHL SUB PUSH32 0x0 AND DUP8 DUP7 PUSH2 0x2CF7 JUMP JUMPDEST PUSH1 0x40 MLOAD DUP5 DUP2 MSTORE CALLER SWAP1 PUSH32 0xB291E2A2847A5AD6D47409943306C6D6E8C63A9855B849701B868191E9478970 SWAP1 PUSH1 0x20 ADD PUSH1 0x40 MLOAD DUP1 SWAP2 SUB SWAP1 LOG2 POP SWAP2 SWAP5 SWAP4 POP POP POP POP JUMP JUMPDEST PUSH1 0x0 PUSH8 0xDE0B6B3A7640000 PUSH2 0x258B PUSH2 0x2562 PUSH2 0x2546 PUSH3 0x9E3400 PUSH4 0x13C6800 PUSH2 0x3756 JUMP JUMPDEST PUSH2 0x2553 PUSH3 0x9E3400 DUP8 PUSH2 0x3756 JUMP JUMPDEST PUSH1 0x1 PUSH1 0x1 PUSH1 0x80 SHL SUB AND SWAP1 PUSH2 0x2E34 JUMP JUMPDEST PUSH2 0x257C PUSH8 0xDE0B6B3A7640000 PUSH8 0x14D1120D7B160000 PUSH2 0x3756 JUMP JUMPDEST PUSH1 0x1 PUSH1 0x1 PUSH1 0x80 SHL SUB AND SWAP1 PUSH2 0x2E12 JUMP JUMPDEST PUSH2 0xD57 SWAP2 SWAP1 PUSH2 0x3736 JUMP JUMPDEST PUSH2 0x259D PUSH2 0x270C JUMP JUMPDEST PUSH1 0x1 PUSH1 0x1 PUSH1 0xA0 SHL SUB DUP2 AND PUSH2 0x2602 JUMPI PUSH1 0x40 MLOAD PUSH3 0x461BCD PUSH1 0xE5 SHL DUP2 MSTORE PUSH1 0x20 PUSH1 0x4 DUP3 ADD MSTORE PUSH1 0x26 PUSH1 0x24 DUP3 ADD MSTORE PUSH32 0x4F776E61626C653A206E6577206F776E657220697320746865207A65726F2061 PUSH1 0x44 DUP3 ADD MSTORE PUSH6 0x646472657373 PUSH1 0xD0 SHL PUSH1 0x64 DUP3 ADD MSTORE PUSH1 0x84 ADD PUSH2 0x88B JUMP JUMPDEST PUSH2 0x260B DUP2 PUSH2 0x2BCC JUMP JUMPDEST POP JUMP JUMPDEST PUSH1 0x20 DUP4 ADD MLOAD MLOAD DUP4 MLOAD PUSH1 0x0 SWAP2 SWAP1 DUP3 JUMPDEST DUP3 DUP2 LT ISZERO PUSH2 0x2701 JUMPI PUSH2 0x262F PUSH1 0x2 DUP4 PUSH2 0x378C JUMP JUMPDEST PUSH2 0xFFFF AND PUSH1 0x0 SUB PUSH2 0x2690 JUMPI DUP6 DUP8 PUSH1 0x20 ADD MLOAD DUP3 DUP2 MLOAD DUP2 LT PUSH2 0x2651 JUMPI PUSH2 0x2651 PUSH2 0x3621 JUMP JUMPDEST PUSH1 0x20 MUL PUSH1 0x20 ADD ADD MLOAD PUSH1 0x40 MLOAD PUSH1 0x20 ADD PUSH2 0x2673 SWAP3 SWAP2 SWAP1 SWAP2 DUP3 MSTORE PUSH1 0x20 DUP3 ADD MSTORE PUSH1 0x40 ADD SWAP1 JUMP JUMPDEST PUSH1 0x40 MLOAD PUSH1 0x20 DUP2 DUP4 SUB SUB DUP2 MSTORE SWAP1 PUSH1 0x40 MSTORE DUP1 MLOAD SWAP1 PUSH1 0x20 ADD KECCAK256 SWAP6 POP PUSH2 0x26E2 JUMP JUMPDEST DUP7 PUSH1 0x20 ADD MLOAD DUP2 DUP2 MLOAD DUP2 LT PUSH2 0x26A6 JUMPI PUSH2 0x26A6 PUSH2 0x3621 JUMP JUMPDEST PUSH1 0x20 MUL PUSH1 0x20 ADD ADD MLOAD DUP7 PUSH1 0x40 MLOAD PUSH1 0x20 ADD PUSH2 0x26C9 SWAP3 SWAP2 SWAP1 SWAP2 DUP3 MSTORE PUSH1 0x20 DUP3 ADD MSTORE PUSH1 0x40 ADD SWAP1 JUMP JUMPDEST PUSH1 0x40 MLOAD PUSH1 0x20 DUP2 DUP4 SUB SUB DUP2 MSTORE SWAP1 PUSH1 0x40 MSTORE DUP1 MLOAD SWAP1 PUSH1 0x20 ADD KECCAK256 SWAP6 POP JUMPDEST PUSH2 0x26ED PUSH1 0x2 DUP4 PUSH2 0x37AD JUMP JUMPDEST SWAP2 POP DUP1 PUSH2 0x26F9 DUP2 PUSH2 0x364D JUMP JUMPDEST SWAP2 POP POP PUSH2 0x261C JUMP JUMPDEST POP POP POP SWAP2 EQ SWAP3 SWAP2 POP POP JUMP JUMPDEST PUSH1 0x0 SLOAD PUSH1 0x1 PUSH1 0x1 PUSH1 0xA0 SHL SUB AND CALLER EQ PUSH2 0xF25 JUMPI PUSH1 0x40 MLOAD PUSH3 0x461BCD PUSH1 0xE5 SHL DUP2 MSTORE PUSH1 0x20 PUSH1 0x4 DUP3 ADD DUP2 SWAP1 MSTORE PUSH1 0x24 DUP3 ADD MSTORE PUSH32 0x4F776E61626C653A2063616C6C6572206973206E6F7420746865206F776E6572 PUSH1 0x44 DUP3 ADD MSTORE PUSH1 0x64 ADD PUSH2 0x88B JUMP JUMPDEST PUSH1 0x1 PUSH1 0x1 PUSH1 0xA0 SHL SUB DUP2 AND PUSH1 0x0 SWAP1 DUP2 MSTORE PUSH1 0x2 PUSH1 0x20 SWAP1 DUP2 MSTORE PUSH1 0x40 DUP1 DUP4 KECCAK256 SLOAD PUSH1 0xC SWAP1 SWAP3 MSTORE SWAP1 SWAP2 KECCAK256 SLOAD PUSH1 0xA SLOAD PUSH2 0x279B SWAP2 PUSH2 0x10DC SWAP2 PUSH2 0x3692 JUMP JUMPDEST PUSH1 0x1 PUSH1 0x1 PUSH1 0xA0 SHL SUB DUP4 AND PUSH1 0x0 SWAP1 DUP2 MSTORE PUSH1 0xD PUSH1 0x20 MSTORE PUSH1 0x40 DUP2 KECCAK256 DUP1 SLOAD SWAP1 SWAP2 SWAP1 PUSH2 0x27C3 SWAP1 DUP5 SWAP1 PUSH2 0x3666 JUMP JUMPDEST SWAP1 SWAP2 SSTORE POP POP PUSH1 0xA SLOAD PUSH1 0x1 PUSH1 0x1 PUSH1 0xA0 SHL SUB DUP4 AND PUSH1 0x0 SWAP1 DUP2 MSTORE PUSH1 0xC PUSH1 0x20 SWAP1 DUP2 MSTORE PUSH1 0x40 DUP1 DUP4 KECCAK256 SWAP4 SWAP1 SWAP4 SSTORE PUSH1 0xE SWAP1 MSTORE KECCAK256 SLOAD PUSH1 0xB SLOAD PUSH2 0x2800 SWAP2 PUSH2 0x10DC SWAP2 PUSH2 0x3692 JUMP JUMPDEST PUSH1 0x1 PUSH1 0x1 PUSH1 0xA0 SHL SUB DUP4 AND PUSH1 0x0 SWAP1 DUP2 MSTORE PUSH1 0xF PUSH1 0x20 MSTORE PUSH1 0x40 DUP2 KECCAK256 DUP1 SLOAD SWAP1 SWAP2 SWAP1 PUSH2 0x2828 SWAP1 DUP5 SWAP1 PUSH2 0x3666 JUMP JUMPDEST SWAP1 SWAP2 SSTORE POP POP PUSH1 0xB SLOAD PUSH1 0x1 PUSH1 0x1 PUSH1 0xA0 SHL SUB SWAP1 SWAP3 AND PUSH1 0x0 SWAP1 DUP2 MSTORE PUSH1 0xE PUSH1 0x20 MSTORE PUSH1 0x40 SWAP1 KECCAK256 SWAP2 SWAP1 SWAP2 SSTORE POP JUMP JUMPDEST PUSH1 0x0 PUSH2 0x285C CALLER DUP5 PUSH2 0x2C1C JUMP JUMPDEST SWAP1 POP PUSH1 0x0 PUSH2 0x2872 DUP4 PUSH1 0x1 PUSH1 0x1 PUSH1 0x40 SHL SUB AND PUSH2 0x2524 JUMP JUMPDEST SWAP1 POP PUSH1 0x0 PUSH2 0x2880 DUP5 TIMESTAMP PUSH2 0x36D8 JUMP JUMPDEST CALLER PUSH1 0x0 SWAP1 DUP2 MSTORE PUSH1 0x3 PUSH1 0x20 MSTORE PUSH1 0x40 SWAP1 KECCAK256 DUP1 SLOAD SWAP2 SWAP3 POP SWAP1 PUSH1 0x1 PUSH1 0x1 PUSH1 0x40 SHL SUB DUP4 AND SWAP1 DUP3 SWAP1 DUP7 SWAP1 DUP2 LT PUSH2 0x28B2 JUMPI PUSH2 0x28B2 PUSH2 0x3621 JUMP JUMPDEST PUSH1 0x0 SWAP2 DUP3 MSTORE PUSH1 0x20 SWAP1 SWAP2 KECCAK256 PUSH1 0x1 PUSH1 0x2 SWAP1 SWAP3 MUL ADD ADD SLOAD PUSH1 0x1 PUSH1 0x1 PUSH1 0x40 SHL SUB AND LT PUSH2 0x28EC JUMPI PUSH1 0x40 MLOAD PUSH3 0x461BCD PUSH1 0xE5 SHL DUP2 MSTORE PUSH1 0x4 ADD PUSH2 0x88B SWAP1 PUSH2 0x36FF JUMP JUMPDEST PUSH1 0x0 DUP2 DUP6 DUP2 SLOAD DUP2 LT PUSH2 0x2900 JUMPI PUSH2 0x2900 PUSH2 0x3621 JUMP JUMPDEST SWAP1 PUSH1 0x0 MSTORE PUSH1 0x20 PUSH1 0x0 KECCAK256 SWAP1 PUSH1 0x2 MUL ADD PUSH1 0x0 ADD SLOAD SWAP1 POP PUSH1 0x0 PUSH2 0x296B DUP4 DUP8 DUP2 SLOAD DUP2 LT PUSH2 0x292B JUMPI PUSH2 0x292B PUSH2 0x3621 JUMP JUMPDEST SWAP1 PUSH1 0x0 MSTORE PUSH1 0x20 PUSH1 0x0 KECCAK256 SWAP1 PUSH1 0x2 MUL ADD PUSH1 0x1 ADD PUSH1 0x8 SWAP1 SLOAD SWAP1 PUSH2 0x100 EXP SWAP1 DIV PUSH1 0x1 PUSH1 0x1 PUSH1 0x80 SHL SUB AND PUSH1 0x1 PUSH1 0x1 PUSH1 0x80 SHL SUB AND DUP5 DUP9 DUP2 SLOAD DUP2 LT PUSH2 0xC52 JUMPI PUSH2 0xC52 PUSH2 0x3621 JUMP JUMPDEST DUP4 SLOAD SWAP1 SWAP2 POP DUP4 SWAP1 PUSH2 0x297E SWAP1 PUSH1 0x1 SWAP1 PUSH2 0x3692 JUMP JUMPDEST DUP2 SLOAD DUP2 LT PUSH2 0x298E JUMPI PUSH2 0x298E PUSH2 0x3621 JUMP JUMPDEST SWAP1 PUSH1 0x0 MSTORE PUSH1 0x20 PUSH1 0x0 KECCAK256 SWAP1 PUSH1 0x2 MUL ADD DUP4 DUP8 DUP2 SLOAD DUP2 LT PUSH2 0x29AE JUMPI PUSH2 0x29AE PUSH2 0x3621 JUMP JUMPDEST PUSH1 0x0 SWAP2 DUP3 MSTORE PUSH1 0x20 SWAP1 SWAP2 KECCAK256 DUP3 SLOAD PUSH1 0x2 SWAP1 SWAP3 MUL ADD SWAP1 DUP2 SSTORE PUSH1 0x1 SWAP2 DUP3 ADD DUP1 SLOAD SWAP3 SWAP1 SWAP2 ADD DUP1 SLOAD PUSH8 0xFFFFFFFFFFFFFFFF NOT DUP2 AND PUSH1 0x1 PUSH1 0x1 PUSH1 0x40 SHL SUB SWAP5 DUP6 AND SWAP1 DUP2 OR DUP4 SSTORE DUP4 SLOAD PUSH1 0x1 PUSH1 0x1 PUSH1 0x80 SHL SUB PUSH1 0x1 PUSH1 0x40 SHL SWAP2 DUP3 SWAP1 DIV AND MUL PUSH1 0x1 PUSH1 0x1 PUSH1 0xC0 SHL SUB NOT SWAP1 SWAP3 AND OR OR DUP1 DUP3 SSTORE SWAP2 SLOAD PUSH1 0x1 PUSH1 0xC0 SHL SWAP1 DUP2 SWAP1 DIV SWAP1 SWAP4 AND SWAP1 SWAP3 MUL PUSH1 0x1 PUSH1 0x1 PUSH1 0xC0 SHL SUB SWAP1 SWAP2 AND OR SWAP1 SSTORE DUP3 SLOAD DUP4 SWAP1 DUP1 PUSH2 0x2A42 JUMPI PUSH2 0x2A42 PUSH2 0x36C2 JUMP JUMPDEST PUSH1 0x0 DUP3 DUP2 MSTORE PUSH1 0x20 DUP2 KECCAK256 PUSH1 0x2 PUSH1 0x0 NOT SWAP1 SWAP4 ADD SWAP3 DUP4 MUL ADD DUP2 DUP2 SSTORE PUSH1 0x1 ADD SSTORE SWAP1 SSTORE PUSH2 0x2A6C CALLER DUP4 DUP7 DUP9 PUSH2 0x2D27 JUMP JUMPDEST PUSH1 0x0 PUSH2 0x2A81 DUP4 PUSH1 0x1 PUSH1 0x1 PUSH1 0x80 SHL SUB DUP9 AND PUSH2 0x2B1F JUMP JUMPDEST SWAP1 POP DUP2 DUP2 PUSH1 0x8 SLOAD PUSH2 0x2A92 SWAP2 SWAP1 PUSH2 0x3666 JUMP JUMPDEST PUSH2 0x2A9C SWAP2 SWAP1 PUSH2 0x3692 JUMP JUMPDEST PUSH1 0x8 SSTORE CALLER PUSH1 0x0 SWAP1 DUP2 MSTORE PUSH1 0x2 PUSH1 0x20 MSTORE PUSH1 0x40 SWAP1 KECCAK256 SLOAD DUP3 SWAP1 PUSH2 0x2ABC SWAP1 DUP4 SWAP1 PUSH2 0x3666 JUMP JUMPDEST PUSH2 0x2AC6 SWAP2 SWAP1 PUSH2 0x3692 JUMP JUMPDEST CALLER PUSH1 0x0 DUP2 DUP2 MSTORE PUSH1 0x2 PUSH1 0x20 MSTORE PUSH1 0x40 SWAP1 DUP2 SWAP1 KECCAK256 SWAP3 SWAP1 SWAP3 SSTORE SWAP1 MLOAD PUSH32 0xE2D155D9D74DECC198A9A9B4F5BDDB24EE0842EE745C9CE57E3573B971E50D9D SWAP1 PUSH2 0x2B0C SWAP1 DUP7 DUP2 MSTORE PUSH1 0x20 ADD SWAP1 JUMP JUMPDEST PUSH1 0x40 MLOAD DUP1 SWAP2 SUB SWAP1 LOG2 POP POP POP POP POP POP POP POP POP JUMP JUMPDEST PUSH1 0x0 PUSH2 0x2B2D PUSH1 0x12 PUSH1 0xA PUSH2 0x38B2 JUMP JUMPDEST PUSH2 0x2B37 DUP4 DUP6 PUSH2 0x38BE JUMP JUMPDEST PUSH2 0x2B41 SWAP2 SWAP1 PUSH2 0x38D5 JUMP JUMPDEST SWAP4 SWAP3 POP POP POP JUMP JUMPDEST PUSH1 0x40 MLOAD PUSH1 0x1 PUSH1 0x1 PUSH1 0xA0 SHL SUB DUP1 DUP6 AND PUSH1 0x24 DUP4 ADD MSTORE DUP4 AND PUSH1 0x44 DUP3 ADD MSTORE PUSH1 0x64 DUP2 ADD DUP3 SWAP1 MSTORE PUSH2 0xB92 SWAP1 DUP6 SWAP1 PUSH4 0x23B872DD PUSH1 0xE0 SHL SWAP1 PUSH1 0x84 ADD JUMPDEST PUSH1 0x40 DUP1 MLOAD PUSH1 0x1F NOT DUP2 DUP5 SUB ADD DUP2 MSTORE SWAP2 SWAP1 MSTORE PUSH1 0x20 DUP2 ADD DUP1 MLOAD PUSH1 0x1 PUSH1 0x1 PUSH1 0xE0 SHL SUB AND PUSH1 0x1 PUSH1 0x1 PUSH1 0xE0 SHL SUB NOT SWAP1 SWAP4 AND SWAP3 SWAP1 SWAP3 OR SWAP1 SWAP2 MSTORE PUSH2 0x2E4D JUMP JUMPDEST PUSH1 0x0 DUP2 PUSH2 0x2BC2 PUSH1 0x12 PUSH1 0xA PUSH2 0x38B2 JUMP JUMPDEST PUSH2 0x2B37 SWAP1 DUP6 PUSH2 0x38BE JUMP JUMPDEST PUSH1 0x0 DUP1 SLOAD PUSH1 0x1 PUSH1 0x1 PUSH1 0xA0 SHL SUB DUP4 DUP2 AND PUSH1 0x1 PUSH1 0x1 PUSH1 0xA0 SHL SUB NOT DUP4 AND DUP2 OR DUP5 SSTORE PUSH1 0x40 MLOAD SWAP2 SWAP1 SWAP3 AND SWAP3 DUP4 SWAP2 PUSH32 0x8BE0079C531659141344CD1FD0A4F28419497F9722A3DAAFE3B4186F6B6457E0 SWAP2 SWAP1 LOG3 POP POP JUMP JUMPDEST PUSH1 0x1 PUSH1 0x1 PUSH1 0xA0 SHL SUB DUP3 AND PUSH1 0x0 SWAP1 DUP2 MSTORE PUSH1 0x3 PUSH1 0x20 MSTORE PUSH1 0x40 DUP2 KECCAK256 SLOAD DUP2 JUMPDEST DUP2 DUP2 LT ISZERO PUSH2 0x2CB9 JUMPI PUSH1 0x1 PUSH1 0x1 PUSH1 0xA0 SHL SUB DUP6 AND PUSH1 0x0 SWAP1 DUP2 MSTORE PUSH1 0x3 PUSH1 0x20 MSTORE PUSH1 0x40 SWAP1 KECCAK256 DUP1 SLOAD PUSH1 0x1 PUSH1 0x1 PUSH1 0x40 SHL SUB DUP7 AND SWAP2 SWAP1 DUP4 SWAP1 DUP2 LT PUSH2 0x2C75 JUMPI PUSH2 0x2C75 PUSH2 0x3621 JUMP JUMPDEST PUSH1 0x0 SWAP2 DUP3 MSTORE PUSH1 0x20 SWAP1 SWAP2 KECCAK256 PUSH1 0x2 SWAP1 SWAP2 MUL ADD PUSH1 0x1 ADD SLOAD PUSH1 0x1 PUSH1 0xC0 SHL SWAP1 DIV PUSH1 0x1 PUSH1 0x1 PUSH1 0x40 SHL SUB AND SUB PUSH2 0x2CA7 JUMPI SWAP2 POP PUSH2 0xD57 SWAP1 POP JUMP JUMPDEST DUP1 PUSH2 0x2CB1 DUP2 PUSH2 0x364D JUMP JUMPDEST SWAP2 POP POP PUSH2 0x2C37 JUMP JUMPDEST POP PUSH1 0x40 MLOAD PUSH3 0x461BCD PUSH1 0xE5 SHL DUP2 MSTORE PUSH1 0x20 PUSH1 0x4 DUP3 ADD MSTORE PUSH1 0x12 PUSH1 0x24 DUP3 ADD MSTORE PUSH18 0x1B1BD8DAC8191BD95CDB89DD08195E1A5CDD PUSH1 0x72 SHL PUSH1 0x44 DUP3 ADD MSTORE PUSH1 0x64 ADD PUSH2 0x88B JUMP JUMPDEST PUSH1 0x40 MLOAD PUSH1 0x1 PUSH1 0x1 PUSH1 0xA0 SHL SUB DUP4 AND PUSH1 0x24 DUP3 ADD MSTORE PUSH1 0x44 DUP2 ADD DUP3 SWAP1 MSTORE PUSH2 0xF03 SWAP1 DUP5 SWAP1 PUSH4 0xA9059CBB PUSH1 0xE0 SHL SWAP1 PUSH1 0x64 ADD PUSH2 0x2B7C JUMP JUMPDEST PUSH1 0x6 SLOAD PUSH1 0x1 PUSH1 0x1 PUSH1 0xA0 SHL SUB DUP6 AND PUSH1 0x0 SWAP1 DUP2 MSTORE PUSH1 0x3 PUSH1 0x20 SWAP1 DUP2 MSTORE PUSH1 0x40 DUP1 DUP4 KECCAK256 DUP2 MLOAD PUSH1 0x80 DUP2 ADD DUP4 MSTORE DUP9 DUP2 MSTORE PUSH1 0x1 PUSH1 0x1 PUSH1 0x40 SHL SUB DUP9 DUP2 AND DUP3 DUP7 ADD SWAP1 DUP2 MSTORE PUSH1 0x1 PUSH1 0x1 PUSH1 0x80 SHL SUB DUP1 DUP11 AND SWAP6 DUP5 ADD SWAP6 DUP7 MSTORE SWAP8 DUP3 AND PUSH1 0x60 DUP5 ADD DUP2 DUP2 MSTORE DUP6 SLOAD PUSH1 0x1 DUP2 DUP2 ADD DUP9 SSTORE SWAP7 DUP11 MSTORE SWAP8 SWAP1 SWAP9 KECCAK256 SWAP4 MLOAD PUSH1 0x2 SWAP1 SWAP8 MUL SWAP1 SWAP4 ADD SWAP6 DUP7 SSTORE MLOAD SWAP5 DUP4 ADD DUP1 SLOAD SWAP5 MLOAD SWAP7 MLOAD DUP3 AND PUSH1 0x1 PUSH1 0xC0 SHL MUL PUSH1 0x1 PUSH1 0x1 PUSH1 0xC0 SHL SUB SWAP8 SWAP1 SWAP9 AND PUSH1 0x1 PUSH1 0x40 SHL MUL PUSH1 0x1 PUSH1 0x1 PUSH1 0xC0 SHL SUB NOT SWAP1 SWAP6 AND SWAP6 SWAP1 SWAP2 AND SWAP5 SWAP1 SWAP5 OR SWAP3 SWAP1 SWAP3 OR SWAP4 SWAP1 SWAP4 AND SWAP4 SWAP1 SWAP4 OR SWAP1 SSTORE PUSH2 0x2DEA SWAP1 DUP3 SWAP1 PUSH2 0x36D8 JUMP JUMPDEST PUSH1 0x6 DUP1 SLOAD PUSH8 0xFFFFFFFFFFFFFFFF NOT AND PUSH1 0x1 PUSH1 0x1 PUSH1 0x40 SHL SUB SWAP3 SWAP1 SWAP3 AND SWAP2 SWAP1 SWAP2 OR SWAP1 SSTORE POP POP POP POP POP JUMP JUMPDEST PUSH1 0x0 PUSH2 0x2E20 PUSH1 0x12 PUSH1 0xA PUSH2 0x38B2 JUMP JUMPDEST PUSH2 0x2E2A DUP4 DUP6 PUSH2 0x38E9 JUMP JUMPDEST PUSH2 0x2B41 SWAP2 SWAP1 PUSH2 0x3914 JUMP JUMPDEST PUSH1 0x0 DUP2 PUSH2 0x2E43 PUSH1 0x12 PUSH1 0xA PUSH2 0x38B2 JUMP JUMPDEST PUSH2 0x2E2A SWAP1 DUP6 PUSH2 0x38E9 JUMP JUMPDEST PUSH1 0x0 PUSH2 0x2EA2 DUP3 PUSH1 0x40 MLOAD DUP1 PUSH1 0x40 ADD PUSH1 0x40 MSTORE DUP1 PUSH1 0x20 DUP2 MSTORE PUSH1 0x20 ADD PUSH32 0x5361666545524332303A206C6F772D6C6576656C2063616C6C206661696C6564 DUP2 MSTORE POP DUP6 PUSH1 0x1 PUSH1 0x1 PUSH1 0xA0 SHL SUB AND PUSH2 0x2F1F SWAP1 SWAP3 SWAP2 SWAP1 PUSH4 0xFFFFFFFF AND JUMP JUMPDEST DUP1 MLOAD SWAP1 SWAP2 POP ISZERO PUSH2 0xF03 JUMPI DUP1 DUP1 PUSH1 0x20 ADD SWAP1 MLOAD DUP2 ADD SWAP1 PUSH2 0x2EC0 SWAP2 SWAP1 PUSH2 0x392E JUMP JUMPDEST PUSH2 0xF03 JUMPI PUSH1 0x40 MLOAD PUSH3 0x461BCD PUSH1 0xE5 SHL DUP2 MSTORE PUSH1 0x20 PUSH1 0x4 DUP3 ADD MSTORE PUSH1 0x2A PUSH1 0x24 DUP3 ADD MSTORE PUSH32 0x5361666545524332303A204552433230206F7065726174696F6E20646964206E PUSH1 0x44 DUP3 ADD MSTORE PUSH10 0x1BDD081CDD58D8D95959 PUSH1 0xB2 SHL PUSH1 0x64 DUP3 ADD MSTORE PUSH1 0x84 ADD PUSH2 0x88B JUMP JUMPDEST PUSH1 0x60 PUSH2 0x2F2E DUP5 DUP5 PUSH1 0x0 DUP6 PUSH2 0x2F36 JUMP JUMPDEST SWAP5 SWAP4 POP POP POP POP JUMP JUMPDEST PUSH1 0x60 DUP3 SELFBALANCE LT ISZERO PUSH2 0x2F97 JUMPI PUSH1 0x40 MLOAD PUSH3 0x461BCD PUSH1 0xE5 SHL DUP2 MSTORE PUSH1 0x20 PUSH1 0x4 DUP3 ADD MSTORE PUSH1 0x26 PUSH1 0x24 DUP3 ADD MSTORE PUSH32 0x416464726573733A20696E73756666696369656E742062616C616E636520666F PUSH1 0x44 DUP3 ADD MSTORE PUSH6 0x1C8818D85B1B PUSH1 0xD2 SHL PUSH1 0x64 DUP3 ADD MSTORE PUSH1 0x84 ADD PUSH2 0x88B JUMP JUMPDEST PUSH1 0x0 DUP1 DUP7 PUSH1 0x1 PUSH1 0x1 PUSH1 0xA0 SHL SUB AND DUP6 DUP8 PUSH1 0x40 MLOAD PUSH2 0x2FB3 SWAP2 SWAP1 PUSH2 0x396F JUMP JUMPDEST PUSH1 0x0 PUSH1 0x40 MLOAD DUP1 DUP4 SUB DUP2 DUP6 DUP8 GAS CALL SWAP3 POP POP POP RETURNDATASIZE DUP1 PUSH1 0x0 DUP2 EQ PUSH2 0x2FF0 JUMPI PUSH1 0x40 MLOAD SWAP2 POP PUSH1 0x1F NOT PUSH1 0x3F RETURNDATASIZE ADD AND DUP3 ADD PUSH1 0x40 MSTORE RETURNDATASIZE DUP3 MSTORE RETURNDATASIZE PUSH1 0x0 PUSH1 0x20 DUP5 ADD RETURNDATACOPY PUSH2 0x2FF5 JUMP JUMPDEST PUSH1 0x60 SWAP2 POP JUMPDEST POP SWAP2 POP SWAP2 POP PUSH2 0x3006 DUP8 DUP4 DUP4 DUP8 PUSH2 0x3011 JUMP JUMPDEST SWAP8 SWAP7 POP POP POP POP POP POP POP JUMP JUMPDEST PUSH1 0x60 DUP4 ISZERO PUSH2 0x3080 JUMPI DUP3 MLOAD PUSH1 0x0 SUB PUSH2 0x3079 JUMPI PUSH1 0x1 PUSH1 0x1 PUSH1 0xA0 SHL SUB DUP6 AND EXTCODESIZE PUSH2 0x3079 JUMPI PUSH1 0x40 MLOAD PUSH3 0x461BCD PUSH1 0xE5 SHL DUP2 MSTORE PUSH1 0x20 PUSH1 0x4 DUP3 ADD MSTORE PUSH1 0x1D PUSH1 0x24 DUP3 ADD MSTORE PUSH32 0x416464726573733A2063616C6C20746F206E6F6E2D636F6E7472616374000000 PUSH1 0x44 DUP3 ADD MSTORE PUSH1 0x64 ADD PUSH2 0x88B JUMP JUMPDEST POP DUP2 PUSH2 0x2F2E JUMP JUMPDEST PUSH2 0x2F2E DUP4 DUP4 DUP2 MLOAD ISZERO PUSH2 0x3095 JUMPI DUP2 MLOAD DUP1 DUP4 PUSH1 0x20 ADD REVERT JUMPDEST DUP1 PUSH1 0x40 MLOAD PUSH3 0x461BCD PUSH1 0xE5 SHL DUP2 MSTORE PUSH1 0x4 ADD PUSH2 0x88B SWAP2 SWAP1 PUSH2 0x398B JUMP JUMPDEST POP DUP1 SLOAD PUSH1 0x0 DUP3 SSTORE PUSH1 0x2 MUL SWAP1 PUSH1 0x0 MSTORE PUSH1 0x20 PUSH1 0x0 KECCAK256 SWAP1 DUP2 ADD SWAP1 PUSH2 0x260B SWAP2 SWAP1 JUMPDEST DUP1 DUP3 GT ISZERO PUSH2 0x30E6 JUMPI PUSH1 0x0 DUP1 DUP3 SSTORE PUSH1 0x1 DUP3 ADD SSTORE PUSH1 0x2 ADD PUSH2 0x30CC JUMP JUMPDEST POP SWAP1 JUMP JUMPDEST PUSH1 0x1 PUSH1 0x1 PUSH1 0xA0 SHL SUB DUP2 AND DUP2 EQ PUSH2 0x260B JUMPI PUSH1 0x0 DUP1 REVERT JUMPDEST PUSH1 0x0 PUSH1 0x20 DUP3 DUP5 SUB SLT ISZERO PUSH2 0x3111 JUMPI PUSH1 0x0 DUP1 REVERT JUMPDEST DUP2 CALLDATALOAD PUSH2 0x2B41 DUP2 PUSH2 0x30EA JUMP JUMPDEST PUSH1 0x20 DUP1 DUP3 MSTORE DUP3 MLOAD DUP3 DUP3 ADD DUP2 SWAP1 MSTORE PUSH1 0x0 SWAP2 SWAP1 PUSH1 0x40 SWAP1 DUP2 DUP6 ADD SWAP1 DUP7 DUP5 ADD DUP6 JUMPDEST DUP3 DUP2 LT ISZERO PUSH2 0x3188 JUMPI DUP2 MLOAD DUP1 MLOAD DUP6 MSTORE DUP7 DUP2 ADD MLOAD PUSH1 0x1 PUSH1 0x1 PUSH1 0x40 SHL SUB SWAP1 DUP2 AND DUP9 DUP8 ADD MSTORE DUP7 DUP3 ADD MLOAD PUSH1 0x1 PUSH1 0x1 PUSH1 0x80 SHL SUB AND DUP8 DUP8 ADD MSTORE PUSH1 0x60 SWAP2 DUP3 ADD MLOAD AND SWAP1 DUP6 ADD MSTORE PUSH1 0x80 SWAP1 SWAP4 ADD SWAP3 SWAP1 DUP6 ADD SWAP1 PUSH1 0x1 ADD PUSH2 0x3139 JUMP JUMPDEST POP SWAP2 SWAP8 SWAP7 POP POP POP POP POP POP POP JUMP JUMPDEST PUSH1 0x0 DUP1 PUSH1 0x40 DUP4 DUP6 SUB SLT ISZERO PUSH2 0x31A8 JUMPI PUSH1 0x0 DUP1 REVERT JUMPDEST DUP3 CALLDATALOAD SWAP2 POP PUSH1 0x20 DUP4 ADD CALLDATALOAD PUSH1 0x1 PUSH1 0x1 PUSH1 0x40 SHL SUB DUP2 GT ISZERO PUSH2 0x31C5 JUMPI PUSH1 0x0 DUP1 REVERT JUMPDEST DUP4 ADD PUSH1 0x40 DUP2 DUP7 SUB SLT ISZERO PUSH2 0x31D7 JUMPI PUSH1 0x0 DUP1 REVERT JUMPDEST DUP1 SWAP2 POP POP SWAP3 POP SWAP3 SWAP1 POP JUMP JUMPDEST PUSH1 0x0 DUP1 DUP4 PUSH1 0x1F DUP5 ADD SLT PUSH2 0x31F4 JUMPI PUSH1 0x0 DUP1 REVERT JUMPDEST POP DUP2 CALLDATALOAD PUSH1 0x1 PUSH1 0x1 PUSH1 0x40 SHL SUB DUP2 GT ISZERO PUSH2 0x320B JUMPI PUSH1 0x0 DUP1 REVERT JUMPDEST PUSH1 0x20 DUP4 ADD SWAP2 POP DUP4 PUSH1 0x20 DUP3 PUSH1 0x5 SHL DUP6 ADD ADD GT ISZERO PUSH2 0x3226 JUMPI PUSH1 0x0 DUP1 REVERT JUMPDEST SWAP3 POP SWAP3 SWAP1 POP JUMP JUMPDEST DUP1 CALLDATALOAD PUSH1 0x1 PUSH1 0x1 PUSH1 0x40 SHL SUB DUP2 AND DUP2 EQ PUSH2 0x3244 JUMPI PUSH1 0x0 DUP1 REVERT JUMPDEST SWAP2 SWAP1 POP JUMP JUMPDEST PUSH1 0x0 DUP1 PUSH1 0x0 PUSH1 0x40 DUP5 DUP7 SUB SLT ISZERO PUSH2 0x325E JUMPI PUSH1 0x0 DUP1 REVERT JUMPDEST DUP4 CALLDATALOAD PUSH1 0x1 PUSH1 0x1 PUSH1 0x40 SHL SUB DUP2 GT ISZERO PUSH2 0x3274 JUMPI PUSH1 0x0 DUP1 REVERT JUMPDEST PUSH2 0x3280 DUP7 DUP3 DUP8 ADD PUSH2 0x31E2 JUMP JUMPDEST SWAP1 SWAP5 POP SWAP3 POP PUSH2 0x3293 SWAP1 POP PUSH1 0x20 DUP6 ADD PUSH2 0x322D JUMP JUMPDEST SWAP1 POP SWAP3 POP SWAP3 POP SWAP3 JUMP JUMPDEST PUSH1 0x0 DUP1 PUSH1 0x40 DUP4 DUP6 SUB SLT ISZERO PUSH2 0x32AF JUMPI PUSH1 0x0 DUP1 REVERT JUMPDEST DUP3 CALLDATALOAD SWAP2 POP PUSH2 0x32BF PUSH1 0x20 DUP5 ADD PUSH2 0x322D JUMP JUMPDEST SWAP1 POP SWAP3 POP SWAP3 SWAP1 POP JUMP JUMPDEST PUSH1 0x0 DUP1 PUSH1 0x40 DUP4 DUP6 SUB SLT ISZERO PUSH2 0x32DB JUMPI PUSH1 0x0 DUP1 REVERT JUMPDEST POP POP DUP1 CALLDATALOAD SWAP3 PUSH1 0x20 SWAP1 SWAP2 ADD CALLDATALOAD SWAP2 POP JUMP JUMPDEST DUP1 ISZERO ISZERO DUP2 EQ PUSH2 0x260B JUMPI PUSH1 0x0 DUP1 REVERT JUMPDEST PUSH1 0x0 DUP1 PUSH1 0x0 PUSH1 0x60 DUP5 DUP7 SUB SLT ISZERO PUSH2 0x330D JUMPI PUSH1 0x0 DUP1 REVERT JUMPDEST DUP4 CALLDATALOAD SWAP3 POP PUSH2 0x331D PUSH1 0x20 DUP6 ADD PUSH2 0x322D JUMP JUMPDEST SWAP2 POP PUSH1 0x40 DUP5 ADD CALLDATALOAD PUSH2 0x332D DUP2 PUSH2 0x32EA JUMP JUMPDEST DUP1 SWAP2 POP POP SWAP3 POP SWAP3 POP SWAP3 JUMP JUMPDEST PUSH1 0x0 DUP1 PUSH1 0x40 DUP4 DUP6 SUB SLT ISZERO PUSH2 0x334B JUMPI PUSH1 0x0 DUP1 REVERT JUMPDEST PUSH2 0x3354 DUP4 PUSH2 0x322D JUMP JUMPDEST SWAP2 POP PUSH2 0x32BF PUSH1 0x20 DUP5 ADD PUSH2 0x322D JUMP JUMPDEST PUSH1 0x0 DUP1 PUSH1 0x0 PUSH1 0x40 DUP5 DUP7 SUB SLT ISZERO PUSH2 0x3377 JUMPI PUSH1 0x0 DUP1 REVERT JUMPDEST DUP4 CALLDATALOAD PUSH2 0x3382 DUP2 PUSH2 0x30EA JUMP JUMPDEST SWAP3 POP PUSH1 0x20 DUP5 ADD CALLDATALOAD PUSH1 0x1 PUSH1 0x1 PUSH1 0x40 SHL SUB DUP2 GT ISZERO PUSH2 0x339D JUMPI PUSH1 0x0 DUP1 REVERT JUMPDEST PUSH2 0x33A9 DUP7 DUP3 DUP8 ADD PUSH2 0x31E2 JUMP JUMPDEST SWAP5 SWAP8 SWAP1 SWAP7 POP SWAP4 SWAP5 POP POP POP POP JUMP JUMPDEST PUSH1 0x0 PUSH1 0x20 DUP3 DUP5 SUB SLT ISZERO PUSH2 0x33C8 JUMPI PUSH1 0x0 DUP1 REVERT JUMPDEST PUSH2 0x2B41 DUP3 PUSH2 0x322D JUMP JUMPDEST PUSH1 0x0 DUP1 PUSH1 0x40 DUP4 DUP6 SUB SLT ISZERO PUSH2 0x33E4 JUMPI PUSH1 0x0 DUP1 REVERT JUMPDEST DUP3 CALLDATALOAD PUSH2 0x3354 DUP2 PUSH2 0x30EA JUMP JUMPDEST PUSH1 0x0 DUP1 PUSH1 0x0 DUP1 PUSH1 0x80 DUP6 DUP8 SUB SLT ISZERO PUSH2 0x3405 JUMPI PUSH1 0x0 DUP1 REVERT JUMPDEST DUP5 CALLDATALOAD SWAP4 POP PUSH2 0x3415 PUSH1 0x20 DUP7 ADD PUSH2 0x322D JUMP JUMPDEST SWAP3 POP PUSH1 0x40 DUP6 ADD CALLDATALOAD PUSH2 0x3425 DUP2 PUSH2 0x32EA JUMP JUMPDEST SWAP2 POP PUSH1 0x60 DUP6 ADD CALLDATALOAD PUSH2 0x3435 DUP2 PUSH2 0x30EA JUMP JUMPDEST SWAP4 SWAP7 SWAP3 SWAP6 POP SWAP1 SWAP4 POP POP JUMP JUMPDEST PUSH1 0x0 DUP1 PUSH1 0x40 DUP4 DUP6 SUB SLT ISZERO PUSH2 0x3453 JUMPI PUSH1 0x0 DUP1 REVERT JUMPDEST DUP3 CALLDATALOAD PUSH2 0x345E DUP2 PUSH2 0x30EA JUMP JUMPDEST SWAP5 PUSH1 0x20 SWAP4 SWAP1 SWAP4 ADD CALLDATALOAD SWAP4 POP POP POP JUMP JUMPDEST PUSH1 0x0 PUSH1 0x20 DUP3 DUP5 SUB SLT ISZERO PUSH2 0x347E JUMPI PUSH1 0x0 DUP1 REVERT JUMPDEST DUP2 CALLDATALOAD PUSH1 0x1 PUSH1 0x1 PUSH1 0x80 SHL SUB DUP2 AND DUP2 EQ PUSH2 0x2B41 JUMPI PUSH1 0x0 DUP1 REVERT JUMPDEST PUSH4 0x4E487B71 PUSH1 0xE0 SHL PUSH1 0x0 MSTORE PUSH1 0x41 PUSH1 0x4 MSTORE PUSH1 0x24 PUSH1 0x0 REVERT JUMPDEST PUSH1 0x40 DUP1 MLOAD SWAP1 DUP2 ADD PUSH1 0x1 PUSH1 0x1 PUSH1 0x40 SHL SUB DUP2 GT DUP3 DUP3 LT OR ISZERO PUSH2 0x34CD JUMPI PUSH2 0x34CD PUSH2 0x3495 JUMP JUMPDEST PUSH1 0x40 MSTORE SWAP1 JUMP JUMPDEST PUSH1 0x40 MLOAD PUSH1 0x1F DUP3 ADD PUSH1 0x1F NOT AND DUP2 ADD PUSH1 0x1 PUSH1 0x1 PUSH1 0x40 SHL SUB DUP2 GT DUP3 DUP3 LT OR ISZERO PUSH2 0x34FB JUMPI PUSH2 0x34FB PUSH2 0x3495 JUMP JUMPDEST PUSH1 0x40 MSTORE SWAP2 SWAP1 POP JUMP JUMPDEST PUSH1 0x0 PUSH1 0x40 DUP3 CALLDATASIZE SUB SLT ISZERO PUSH2 0x3515 JUMPI PUSH1 0x0 DUP1 REVERT JUMPDEST PUSH2 0x351D PUSH2 0x34AB JUMP JUMPDEST DUP3 CALLDATALOAD PUSH2 0xFFFF DUP2 AND DUP2 EQ PUSH2 0x352F JUMPI PUSH1 0x0 DUP1 REVERT JUMPDEST DUP2 MSTORE PUSH1 0x20 DUP4 DUP2 ADD CALLDATALOAD PUSH1 0x1 PUSH1 0x1 PUSH1 0x40 SHL SUB DUP1 DUP3 GT ISZERO PUSH2 0x354C JUMPI PUSH1 0x0 DUP1 REVERT JUMPDEST SWAP1 DUP6 ADD SWAP1 CALLDATASIZE PUSH1 0x1F DUP4 ADD SLT PUSH2 0x355F JUMPI PUSH1 0x0 DUP1 REVERT JUMPDEST DUP2 CALLDATALOAD DUP2 DUP2 GT ISZERO PUSH2 0x3571 JUMPI PUSH2 0x3571 PUSH2 0x3495 JUMP JUMPDEST DUP1 PUSH1 0x5 SHL SWAP2 POP PUSH2 0x3582 DUP5 DUP4 ADD PUSH2 0x34D3 JUMP JUMPDEST DUP2 DUP2 MSTORE SWAP2 DUP4 ADD DUP5 ADD SWAP2 DUP5 DUP2 ADD SWAP1 CALLDATASIZE DUP5 GT ISZERO PUSH2 0x359C JUMPI PUSH1 0x0 DUP1 REVERT JUMPDEST SWAP4 DUP6 ADD SWAP4 JUMPDEST DUP4 DUP6 LT ISZERO PUSH2 0x35BA JUMPI DUP5 CALLDATALOAD DUP3 MSTORE SWAP4 DUP6 ADD SWAP4 SWAP1 DUP6 ADD SWAP1 PUSH2 0x35A1 JUMP JUMPDEST SWAP5 DUP7 ADD SWAP5 SWAP1 SWAP5 MSTORE POP SWAP3 SWAP6 SWAP5 POP POP POP POP POP JUMP JUMPDEST PUSH1 0x20 DUP1 DUP3 MSTORE PUSH1 0x10 SWAP1 DUP3 ADD MSTORE PUSH16 0x1B1BD8DAD95C881CDD5CDC195B991959 PUSH1 0x82 SHL PUSH1 0x40 DUP3 ADD MSTORE PUSH1 0x60 ADD SWAP1 JUMP JUMPDEST PUSH1 0x20 DUP1 DUP3 MSTORE PUSH1 0x11 SWAP1 DUP3 ADD MSTORE PUSH17 0x1B1BD8DAC81D1A5B59481A5B9D985B1A59 PUSH1 0x7A SHL PUSH1 0x40 DUP3 ADD MSTORE PUSH1 0x60 ADD SWAP1 JUMP JUMPDEST PUSH4 0x4E487B71 PUSH1 0xE0 SHL PUSH1 0x0 MSTORE PUSH1 0x32 PUSH1 0x4 MSTORE PUSH1 0x24 PUSH1 0x0 REVERT JUMPDEST PUSH4 0x4E487B71 PUSH1 0xE0 SHL PUSH1 0x0 MSTORE PUSH1 0x11 PUSH1 0x4 MSTORE PUSH1 0x24 PUSH1 0x0 REVERT JUMPDEST PUSH1 0x0 PUSH1 0x1 DUP3 ADD PUSH2 0x365F JUMPI PUSH2 0x365F PUSH2 0x3637 JUMP JUMPDEST POP PUSH1 0x1 ADD SWAP1 JUMP JUMPDEST DUP1 DUP3 ADD DUP1 DUP3 GT ISZERO PUSH2 0xD57 JUMPI PUSH2 0xD57 PUSH2 0x3637 JUMP JUMPDEST PUSH1 0x0 PUSH1 0x20 DUP3 DUP5 SUB SLT ISZERO PUSH2 0x368B JUMPI PUSH1 0x0 DUP1 REVERT JUMPDEST POP MLOAD SWAP2 SWAP1 POP JUMP JUMPDEST DUP2 DUP2 SUB DUP2 DUP2 GT ISZERO PUSH2 0xD57 JUMPI PUSH2 0xD57 PUSH2 0x3637 JUMP JUMPDEST PUSH1 0x0 PUSH1 0x20 DUP3 DUP5 SUB SLT ISZERO PUSH2 0x36B7 JUMPI PUSH1 0x0 DUP1 REVERT JUMPDEST DUP2 MLOAD PUSH2 0x2B41 DUP2 PUSH2 0x30EA JUMP JUMPDEST PUSH4 0x4E487B71 PUSH1 0xE0 SHL PUSH1 0x0 MSTORE PUSH1 0x31 PUSH1 0x4 MSTORE PUSH1 0x24 PUSH1 0x0 REVERT JUMPDEST PUSH1 0x1 PUSH1 0x1 PUSH1 0x40 SHL SUB DUP2 DUP2 AND DUP4 DUP3 AND ADD SWAP1 DUP1 DUP3 GT ISZERO PUSH2 0x36F8 JUMPI PUSH2 0x36F8 PUSH2 0x3637 JUMP JUMPDEST POP SWAP3 SWAP2 POP POP JUMP JUMPDEST PUSH1 0x20 DUP1 DUP3 MSTORE PUSH1 0x1E SWAP1 DUP3 ADD MSTORE PUSH32 0x63616E6E6F74206D6F76652074686520756E6C6F636B2074696D652075700000 PUSH1 0x40 DUP3 ADD MSTORE PUSH1 0x60 ADD SWAP1 JUMP JUMPDEST PUSH1 0x1 PUSH1 0x1 PUSH1 0x80 SHL SUB DUP2 DUP2 AND DUP4 DUP3 AND ADD SWAP1 DUP1 DUP3 GT ISZERO PUSH2 0x36F8 JUMPI PUSH2 0x36F8 PUSH2 0x3637 JUMP JUMPDEST PUSH1 0x1 PUSH1 0x1 PUSH1 0x80 SHL SUB DUP3 DUP2 AND DUP3 DUP3 AND SUB SWAP1 DUP1 DUP3 GT ISZERO PUSH2 0x36F8 JUMPI PUSH2 0x36F8 PUSH2 0x3637 JUMP JUMPDEST PUSH4 0x4E487B71 PUSH1 0xE0 SHL PUSH1 0x0 MSTORE PUSH1 0x12 PUSH1 0x4 MSTORE PUSH1 0x24 PUSH1 0x0 REVERT JUMPDEST PUSH1 0x0 PUSH2 0xFFFF DUP1 DUP5 AND DUP1 PUSH2 0x37A1 JUMPI PUSH2 0x37A1 PUSH2 0x3776 JUMP JUMPDEST SWAP3 AND SWAP2 SWAP1 SWAP2 MOD SWAP3 SWAP2 POP POP JUMP JUMPDEST PUSH1 0x0 PUSH2 0xFFFF DUP1 DUP5 AND DUP1 PUSH2 0x37C2 JUMPI PUSH2 0x37C2 PUSH2 0x3776 JUMP JUMPDEST SWAP3 AND SWAP2 SWAP1 SWAP2 DIV SWAP3 SWAP2 POP POP JUMP JUMPDEST PUSH1 0x1 DUP2 DUP2 JUMPDEST DUP1 DUP6 GT ISZERO PUSH2 0x3809 JUMPI DUP2 PUSH1 0x0 NOT DIV DUP3 GT ISZERO PUSH2 0x37EF JUMPI PUSH2 0x37EF PUSH2 0x3637 JUMP JUMPDEST DUP1 DUP6 AND ISZERO PUSH2 0x37FC JUMPI SWAP2 DUP2 MUL SWAP2 JUMPDEST SWAP4 DUP5 SHR SWAP4 SWAP1 DUP1 MUL SWAP1 PUSH2 0x37D3 JUMP JUMPDEST POP SWAP3 POP SWAP3 SWAP1 POP JUMP JUMPDEST PUSH1 0x0 DUP3 PUSH2 0x3820 JUMPI POP PUSH1 0x1 PUSH2 0xD57 JUMP JUMPDEST DUP2 PUSH2 0x382D JUMPI POP PUSH1 0x0 PUSH2 0xD57 JUMP JUMPDEST DUP2 PUSH1 0x1 DUP2 EQ PUSH2 0x3843 JUMPI PUSH1 0x2 DUP2 EQ PUSH2 0x384D JUMPI PUSH2 0x3869 JUMP JUMPDEST PUSH1 0x1 SWAP2 POP POP PUSH2 0xD57 JUMP JUMPDEST PUSH1 0xFF DUP5 GT ISZERO PUSH2 0x385E JUMPI PUSH2 0x385E PUSH2 0x3637 JUMP JUMPDEST POP POP PUSH1 0x1 DUP3 SHL PUSH2 0xD57 JUMP JUMPDEST POP PUSH1 0x20 DUP4 LT PUSH2 0x133 DUP4 LT AND PUSH1 0x4E DUP5 LT PUSH1 0xB DUP5 LT AND OR ISZERO PUSH2 0x388C JUMPI POP DUP2 DUP2 EXP PUSH2 0xD57 JUMP JUMPDEST PUSH2 0x3896 DUP4 DUP4 PUSH2 0x37CE JUMP JUMPDEST DUP1 PUSH1 0x0 NOT DIV DUP3 GT ISZERO PUSH2 0x38AA JUMPI PUSH2 0x38AA PUSH2 0x3637 JUMP JUMPDEST MUL SWAP4 SWAP3 POP POP POP JUMP JUMPDEST PUSH1 0x0 PUSH2 0x2B41 DUP4 DUP4 PUSH2 0x3811 JUMP JUMPDEST DUP1 DUP3 MUL DUP2 ISZERO DUP3 DUP3 DIV DUP5 EQ OR PUSH2 0xD57 JUMPI PUSH2 0xD57 PUSH2 0x3637 JUMP JUMPDEST PUSH1 0x0 DUP3 PUSH2 0x38E4 JUMPI PUSH2 0x38E4 PUSH2 0x3776 JUMP JUMPDEST POP DIV SWAP1 JUMP JUMPDEST PUSH1 0x1 PUSH1 0x1 PUSH1 0x80 SHL SUB DUP2 DUP2 AND DUP4 DUP3 AND MUL DUP1 DUP3 AND SWAP2 SWAP1 DUP3 DUP2 EQ PUSH2 0x390C JUMPI PUSH2 0x390C PUSH2 0x3637 JUMP JUMPDEST POP POP SWAP3 SWAP2 POP POP JUMP JUMPDEST PUSH1 0x0 PUSH1 0x1 PUSH1 0x1 PUSH1 0x80 SHL SUB DUP1 DUP5 AND DUP1 PUSH2 0x37C2 JUMPI PUSH2 0x37C2 PUSH2 0x3776 JUMP JUMPDEST PUSH1 0x0 PUSH1 0x20 DUP3 DUP5 SUB SLT ISZERO PUSH2 0x3940 JUMPI PUSH1 0x0 DUP1 REVERT JUMPDEST DUP2 MLOAD PUSH2 0x2B41 DUP2 PUSH2 0x32EA JUMP JUMPDEST PUSH1 0x0 JUMPDEST DUP4 DUP2 LT ISZERO PUSH2 0x3966 JUMPI DUP2 DUP2 ADD MLOAD DUP4 DUP3 ADD MSTORE PUSH1 0x20 ADD PUSH2 0x394E JUMP JUMPDEST POP POP PUSH1 0x0 SWAP2 ADD MSTORE JUMP JUMPDEST PUSH1 0x0 DUP3 MLOAD PUSH2 0x3981 DUP2 DUP5 PUSH1 0x20 DUP8 ADD PUSH2 0x394B JUMP JUMPDEST SWAP2 SWAP1 SWAP2 ADD SWAP3 SWAP2 POP POP JUMP JUMPDEST PUSH1 0x20 DUP2 MSTORE PUSH1 0x0 DUP3 MLOAD DUP1 PUSH1 0x20 DUP5 ADD MSTORE PUSH2 0x39AA DUP2 PUSH1 0x40 DUP6 ADD PUSH1 0x20 DUP8 ADD PUSH2 0x394B JUMP JUMPDEST PUSH1 0x1F ADD PUSH1 0x1F NOT AND SWAP2 SWAP1 SWAP2 ADD PUSH1 0x40 ADD SWAP3 SWAP2 POP POP JUMP INVALID LOG2 PUSH5 0x6970667358 0x22 SLT KECCAK256 SWAP14 LOG3 0xB7 TIMESTAMP 0xDC BASEFEE DUP8 LOG2 0xCB PUSH3 0x925F88 0x26 0xE2 SHL JUMPI 0xF7 0xF7 SELFBALANCE 0xC6 0xBC REVERT 0x4E 0xF6 PUSH21 0xEF2FECBD3F6B64736F6C6343000811003300000000 ","sha1":"2d2b393eea0bebf0999a463986c1e0f854b5e2b3","source":"// SPDX-License-Identifier: GPL-3.0-or-later\npragma solidity 0.8.17;\n\nimport \"@openzeppelin/contracts/token/ERC20/utils/SafeERC20.sol\";\nimport \"@openzeppelin/contracts/token/ERC20/IERC20.sol\";\nimport \"@openzeppelin/contracts/access/Ownable.sol\";\n\nimport \"../../libraries/ScaledMath.sol\";\nimport \"../../interfaces/tokenomics/ICNCLockerV2.sol\";\nimport \"../../interfaces/tokenomics/ICNCToken.sol\";\nimport \"../../interfaces/tokenomics/ICNCVoteLocker.sol\";\nimport \"../../interfaces/IController.sol\";\n\ncontract CNCLockerV2 is ICNCLockerV2, Ownable {\n    using SafeERC20 for ICNCToken;\n    using SafeERC20 for IERC20;\n    using ScaledMath for uint256;\n    using ScaledMath for uint128;\n    using MerkleProof for MerkleProof.Proof;\n\n    address public constant V1_LOCKER = address(0x3F41480DD3b32F1cC579125F9570DCcD07E07667);\n\n    uint128 internal constant _MIN_LOCK_TIME = 120 days;\n    uint128 internal constant _MAX_LOCK_TIME = 240 days;\n    uint128 internal constant _GRACE_PERIOD = 28 days;\n    uint128 internal constant _MIN_BOOST = 1e18;\n    uint128 internal constant _MAX_BOOST = 1.5e18;\n    uint128 internal constant _KICK_PENALTY = 1e17;\n    uint256 internal constant _MAX_KICK_PENALTY_AMOUNT = 1000e18;\n    uint128 constant _AIRDROP_DURATION = 182 days;\n    uint256 internal constant _MAX_AIRDROP_BOOST = 3.5e18;\n\n    ICNCToken public immutable cncToken;\n\n    // Boost data\n    mapping(address => uint256) public lockedBalance;\n    mapping(address => uint256) public lockedBoosted;\n    mapping(address => VoteLock[]) public voteLocks;\n    mapping(address => uint256) internal _airdroppedBoost;\n    mapping(address => bool) public override claimedAirdrop;\n    uint64 internal _nextId;\n    uint256 public immutable airdropEndTime;\n    bytes32 public immutable merkleRoot;\n    uint256 public totalLocked;\n    uint256 public totalBoosted;\n    bool public isShutdown;\n\n    // Fee data\n    IERC20 public immutable crv;\n    IERC20 public immutable cvx;\n    uint256 public accruedFeesIntegralCrv;\n    uint256 public accruedFeesIntegralCvx;\n    mapping(address => uint256) public perAccountAccruedCrv;\n    mapping(address => uint256) public perAccountFeesCrv;\n    mapping(address => uint256) public perAccountAccruedCvx;\n    mapping(address => uint256) public perAccountFeesCvx;\n\n    address public immutable treasury;\n    IController public immutable controller;\n\n    constructor(\n        address _controller,\n        address _cncToken,\n        address _treasury,\n        address _crv,\n        address _cvx,\n        bytes32 _merkleRoot\n    ) Ownable() {\n        controller = IController(_controller);\n        cncToken = ICNCToken(_cncToken);\n        treasury = _treasury;\n        crv = IERC20(_crv);\n        cvx = IERC20(_cvx);\n        airdropEndTime = block.timestamp + _AIRDROP_DURATION;\n        merkleRoot = _merkleRoot;\n    }\n\n    function lock(uint256 amount, uint64 lockTime) external override {\n        lock(amount, lockTime, false);\n    }\n\n    /// @notice Lock an amount of CNC for vlCNC.\n    /// @param amount Amount of CNC to lock.\n    /// @param lockTime Duration of the lock.\n    /// @param relock_ `True` if this is a relock of an existing lock.\n    function lock(\n        uint256 amount,\n        uint64 lockTime,\n        bool relock_\n    ) public override {\n        lockFor(amount, lockTime, relock_, msg.sender);\n    }\n\n    /// @notice Lock an amount of CNC for vlCNC.\n    /// @param amount Amount of CNC to lock.\n    /// @param lockTime Duration of the lock.\n    /// @param relock_ `True` if this is a relock of all existing locks.\n    /// @param account The account to receive the vlCNC.\n    function lockFor(\n        uint256 amount,\n        uint64 lockTime,\n        bool relock_,\n        address account\n    ) public override {\n        require(!isShutdown, \"locker suspended\");\n        require((_MIN_LOCK_TIME <= lockTime) && (lockTime <= _MAX_LOCK_TIME), \"lock time invalid\");\n        require(!relock_ || msg.sender == account, \"relock only for self\");\n        _feeCheckpoint(account);\n        cncToken.safeTransferFrom(msg.sender, address(this), amount);\n\n        uint128 boost = computeBoost(lockTime);\n\n        uint256 airdropBoost_ = airdropBoost(msg.sender);\n        if (airdropBoost_ > 1e18) {\n            claimedAirdrop[msg.sender] = true;\n            boost = boost.mulDownUint128(uint128(airdropBoost_));\n            delete _airdroppedBoost[msg.sender];\n        }\n\n        uint64 unlockTime = uint64(block.timestamp) + lockTime;\n        uint256 boostedAmount;\n\n        if (relock_) {\n            uint256 length = voteLocks[account].length;\n            for (uint256 i; i < length; i++) {\n                require(\n                    voteLocks[account][i].unlockTime < unlockTime,\n                    \"cannot move the unlock time up\"\n                );\n            }\n            delete voteLocks[account];\n            totalBoosted -= lockedBoosted[account];\n            lockedBoosted[account] = 0;\n            _addVoteLock(account, lockedBalance[account] + amount, unlockTime, boost);\n            boostedAmount = (lockedBalance[account] + amount).mulDown(uint256(boost));\n        } else {\n            _addVoteLock(account, amount, unlockTime, boost);\n            boostedAmount = amount.mulDown(boost);\n        }\n        totalLocked += amount;\n        totalBoosted += boostedAmount;\n        lockedBalance[account] += amount;\n        lockedBoosted[account] += boostedAmount;\n        emit Locked(account, amount, unlockTime, relock_);\n    }\n\n    /// @notice Process all expired locks of msg.sender and withdraw unlocked CNC.\n    function executeAvailableUnlocks() external override returns (uint256) {\n        return executeAvailableUnlocksFor(msg.sender);\n    }\n\n    /// @notice Process all expired locks of msg.sender and withdraw unlocked CNC to `dst`.\n    function executeAvailableUnlocksFor(address dst) public override returns (uint256) {\n        require(dst != address(0), \"invalid destination\");\n        _feeCheckpoint(msg.sender);\n        uint256 sumUnlockable;\n        uint256 sumBoosted;\n        VoteLock[] storage _pending = voteLocks[msg.sender];\n        uint256 i = _pending.length;\n        while (i > 0) {\n            i = i - 1;\n\n            if (isShutdown || _pending[i].unlockTime <= block.timestamp) {\n                sumUnlockable += _pending[i].amount;\n                sumBoosted += _pending[i].amount.mulDown(_pending[i].boost);\n                _pending[i] = _pending[_pending.length - 1];\n                _pending.pop();\n            }\n        }\n        totalLocked -= sumUnlockable;\n        totalBoosted -= sumBoosted;\n        lockedBalance[msg.sender] -= sumUnlockable;\n        lockedBoosted[msg.sender] -= sumBoosted;\n        cncToken.safeTransfer(dst, sumUnlockable);\n        emit UnlockExecuted(msg.sender, sumUnlockable);\n        return sumUnlockable;\n    }\n\n    /// @notice Process specified locks of msg.sender and withdraw unlocked CNC to `dst`.\n    /// @param dst Destination address to receive unlocked CNC.\n    /// @param lockIds Array of lock IDs to process.\n    /// @return unlocked Amount of CNC unlocked.\n    function executeUnlocks(address dst, uint64[] calldata lockIds)\n        public\n        override\n        returns (uint256)\n    {\n        _feeCheckpoint(msg.sender);\n        uint256 sumUnlockable;\n        uint256 sumBoosted;\n        VoteLock[] storage _pending = voteLocks[msg.sender];\n        for (uint256 idIndex; idIndex < lockIds.length; idIndex++) {\n            uint256 index = _getLockIndexById(msg.sender, lockIds[idIndex]);\n            require(\n                isShutdown || _pending[index].unlockTime <= block.timestamp,\n                \"lock not expired\"\n            );\n            sumUnlockable += _pending[index].amount;\n            sumBoosted += _pending[index].amount.mulDown(_pending[index].boost);\n            _pending[index] = _pending[_pending.length - 1];\n            _pending.pop();\n        }\n        totalLocked -= sumUnlockable;\n        totalBoosted -= sumBoosted;\n        lockedBalance[msg.sender] -= sumUnlockable;\n        lockedBoosted[msg.sender] -= sumBoosted;\n        cncToken.safeTransfer(dst, sumUnlockable);\n        emit UnlockExecuted(msg.sender, sumUnlockable);\n        return sumUnlockable;\n    }\n\n    /// @notice Get unlocked CNC balance for an address\n    /// @param user Address to get unlocked CNC balance for\n    /// @return Unlocked CNC balance\n    function unlockableBalance(address user) public view override returns (uint256) {\n        uint256 sumUnlockable = 0;\n        VoteLock[] storage _pending = voteLocks[user];\n        uint256 length = _pending.length;\n        for (uint256 i; i < length; i++) {\n            if (_pending[i].unlockTime <= uint128(block.timestamp)) {\n                sumUnlockable += _pending[i].amount;\n            }\n        }\n        return sumUnlockable;\n    }\n\n    /// @notice Get unlocked boosted CNC balance for an address\n    /// @param user Address to get unlocked boosted CNC balance for\n    /// @return Unlocked boosted CNC balance\n    function unlockableBalanceBoosted(address user) public view override returns (uint256) {\n        uint256 sumUnlockable = 0;\n        VoteLock[] storage _pending = voteLocks[user];\n        uint256 length = _pending.length;\n        for (uint256 i; i < length; i++) {\n            if (_pending[i].unlockTime <= uint128(block.timestamp)) {\n                sumUnlockable += _pending[i].amount.mulDown(_pending[i].boost);\n            }\n        }\n        return sumUnlockable;\n    }\n\n    function shutDown() external override onlyOwner {\n        require(!isShutdown, \"locker already suspended\");\n        isShutdown = true;\n        emit Shutdown();\n    }\n\n    function recoverToken(address token) external override {\n        require(\n            token != address(cncToken) && token != address(crv) && token != address(cvx),\n            \"cannot withdraw token\"\n        );\n        IERC20 _token = IERC20(token);\n        _token.safeTransfer(treasury, _token.balanceOf(address(this)));\n        emit TokenRecovered(token);\n    }\n\n    /// @notice Relock a specific lock\n    /// @dev Users locking CNC can create multiple locks therefore individual locks can be relocked separately.\n    /// @param lockId Id of the lock to relock.\n    /// @param lockTime Duration for which the locks's CNC amount should be relocked for.\n    function relock(uint64 lockId, uint64 lockTime) external override {\n        require(!isShutdown, \"locker suspended\");\n        require((_MIN_LOCK_TIME <= lockTime) && (lockTime <= _MAX_LOCK_TIME), \"lock time invalid\");\n        _feeCheckpoint(msg.sender);\n        _relock(lockId, lockTime);\n    }\n\n    /// @notice Relock specified locks\n    /// @param lockIds Ids of the locks to relock.\n    /// @param lockTime Duration for which the locks's CNC amount should be relocked for.\n    function relockMultiple(uint64[] calldata lockIds, uint64 lockTime) external override {\n        require(!isShutdown, \"locker suspended\");\n        require((_MIN_LOCK_TIME <= lockTime) && (lockTime <= _MAX_LOCK_TIME), \"lock time invalid\");\n        _feeCheckpoint(msg.sender);\n        for (uint256 i; i < lockIds.length; i++) {\n            _relock(lockIds[i], lockTime);\n        }\n    }\n\n    function _relock(uint64 lockId, uint64 lockTime) internal {\n        uint256 lockIndex = _getLockIndexById(msg.sender, lockId);\n\n        uint128 boost = computeBoost(lockTime);\n\n        uint64 unlockTime = uint64(block.timestamp) + lockTime;\n\n        VoteLock[] storage locks = voteLocks[msg.sender];\n        require(locks[lockIndex].unlockTime < unlockTime, \"cannot move the unlock time up\");\n        uint256 amount = locks[lockIndex].amount;\n        uint256 previousBoostedAmount = locks[lockIndex].amount.mulDown(locks[lockIndex].boost);\n        locks[lockIndex] = locks[locks.length - 1];\n        locks.pop();\n\n        _addVoteLock(msg.sender, amount, unlockTime, boost);\n        uint256 boostedAmount = amount.mulDown(boost);\n\n        totalBoosted = totalBoosted + boostedAmount - previousBoostedAmount;\n        lockedBoosted[msg.sender] =\n            lockedBoosted[msg.sender] +\n            boostedAmount -\n            previousBoostedAmount;\n\n        emit Relocked(msg.sender, amount);\n    }\n\n    function relock(uint64 lockTime) external override {\n        require(!isShutdown, \"locker suspended\");\n        require((_MIN_LOCK_TIME <= lockTime) && (lockTime <= _MAX_LOCK_TIME), \"lock time invalid\");\n        _feeCheckpoint(msg.sender);\n\n        uint128 boost = computeBoost(lockTime);\n\n        uint64 unlockTime = uint64(block.timestamp) + lockTime;\n\n        uint256 length = voteLocks[msg.sender].length;\n        for (uint256 i; i < length; i++) {\n            require(\n                voteLocks[msg.sender][i].unlockTime < unlockTime,\n                \"cannot move the unlock time up\"\n            );\n        }\n        delete voteLocks[msg.sender];\n        totalBoosted -= lockedBoosted[msg.sender];\n        lockedBoosted[msg.sender] = 0;\n        _addVoteLock(msg.sender, lockedBalance[msg.sender], unlockTime, boost);\n        uint256 boostedAmount = lockedBalance[msg.sender].mulDown(uint256(boost));\n        totalBoosted += boostedAmount;\n        lockedBoosted[msg.sender] += boostedAmount;\n        emit Relocked(msg.sender, lockedBalance[msg.sender]);\n    }\n\n    /// @notice Kick an expired lock\n    function kick(address user, uint64 lockId) external override {\n        uint256 lockIndex = _getLockIndexById(user, lockId);\n        VoteLock[] storage _pending = voteLocks[user];\n        require(\n            _pending[lockIndex].unlockTime + _GRACE_PERIOD <= uint128(block.timestamp),\n            \"cannot kick this lock\"\n        );\n        _feeCheckpoint(user);\n        uint256 amount = _pending[lockIndex].amount;\n        totalLocked -= amount;\n        totalBoosted -= amount.mulDown(_pending[lockIndex].boost);\n        lockedBalance[user] -= amount;\n        lockedBoosted[user] -= amount.mulDown(_pending[lockIndex].boost);\n        uint256 kickPenalty = amount.mulDown(_KICK_PENALTY);\n        if (kickPenalty > _MAX_KICK_PENALTY_AMOUNT) {\n            kickPenalty = _MAX_KICK_PENALTY_AMOUNT;\n        }\n        cncToken.safeTransfer(user, amount - kickPenalty);\n        cncToken.safeTransfer(msg.sender, kickPenalty);\n        emit KickExecuted(user, msg.sender, amount);\n        _pending[lockIndex] = _pending[_pending.length - 1];\n        _pending.pop();\n    }\n\n    function receiveFees(uint256 amountCrv, uint256 amountCvx) external override {\n        crv.safeTransferFrom(msg.sender, address(this), amountCrv);\n        cvx.safeTransferFrom(msg.sender, address(this), amountCvx);\n        accruedFeesIntegralCrv += amountCrv.divDown(totalBoosted);\n        accruedFeesIntegralCvx += amountCvx.divDown(totalBoosted);\n        emit FeesReceived(msg.sender, amountCrv, amountCvx);\n    }\n\n    function claimFees() external override returns (uint256 crvAmount, uint256 cvxAmount) {\n        _feeCheckpoint(msg.sender);\n        crvAmount = perAccountFeesCrv[msg.sender];\n        cvxAmount = perAccountFeesCvx[msg.sender];\n        crv.safeTransfer(msg.sender, crvAmount);\n        cvx.safeTransfer(msg.sender, cvxAmount);\n        perAccountFeesCrv[msg.sender] = 0;\n        perAccountFeesCvx[msg.sender] = 0;\n        emit FeesClaimed(msg.sender, crvAmount, cvxAmount);\n    }\n\n    function claimAirdropBoost(uint256 amount, MerkleProof.Proof calldata proof) external override {\n        require(block.timestamp < airdropEndTime, \"airdrop ended\");\n        require(!claimedAirdrop[msg.sender], \"already claimed\");\n        require(amount <= _MAX_AIRDROP_BOOST, \"amount exceeds max airdrop boost\");\n        bytes32 node = keccak256(abi.encodePacked(msg.sender, amount));\n        require(proof.isValid(node, merkleRoot), \"invalid proof\");\n        _airdroppedBoost[msg.sender] = amount;\n        emit AirdropBoostClaimed(msg.sender, amount);\n    }\n\n    function claimableFees(address account)\n        external\n        view\n        override\n        returns (uint256 claimableCrv, uint256 claimableCvx)\n    {\n        uint256 boost_ = lockedBoosted[account];\n        claimableCrv =\n            perAccountFeesCrv[account] +\n            boost_.mulDown(accruedFeesIntegralCrv - perAccountAccruedCrv[account]);\n        claimableCvx =\n            perAccountFeesCvx[account] +\n            boost_.mulDown(accruedFeesIntegralCvx - perAccountAccruedCvx[account]);\n    }\n\n    function balanceOf(address user) external view override returns (uint256) {\n        return totalVoteBoost(user);\n    }\n\n    function _feeCheckpoint(address account) internal {\n        uint256 boost_ = lockedBoosted[account];\n        perAccountFeesCrv[account] += boost_.mulDown(\n            accruedFeesIntegralCrv - perAccountAccruedCrv[account]\n        );\n        perAccountAccruedCrv[account] = accruedFeesIntegralCrv;\n        perAccountFeesCvx[account] += boost_.mulDown(\n            accruedFeesIntegralCvx - perAccountAccruedCvx[account]\n        );\n        perAccountAccruedCvx[account] = accruedFeesIntegralCvx;\n    }\n\n    function computeBoost(uint128 lockTime) public pure override returns (uint128) {\n        return ((_MAX_BOOST - _MIN_BOOST).mulDownUint128(\n            (lockTime - _MIN_LOCK_TIME).divDownUint128(_MAX_LOCK_TIME - _MIN_LOCK_TIME)\n        ) + _MIN_BOOST);\n    }\n\n    function airdropBoost(address account) public view override returns (uint256) {\n        if (_airdroppedBoost[account] == 0) return 1e18;\n        return _airdroppedBoost[account];\n    }\n\n    function totalVoteBoost(address account) public view override returns (uint256) {\n        return totalRewardsBoost(account).mulDown(controller.lpTokenStaker().getBoost(account));\n    }\n\n    function totalRewardsBoost(address account) public view override returns (uint256) {\n        return\n            lockedBoosted[account] -\n            unlockableBalanceBoosted(account) +\n            ICNCVoteLocker(V1_LOCKER).balanceOf(account);\n    }\n\n    function userLocks(address account) external view override returns (VoteLock[] memory) {\n        return voteLocks[account];\n    }\n\n    function _getLockIndexById(address user, uint64 id) internal view returns (uint256) {\n        uint256 length_ = voteLocks[user].length;\n        for (uint256 i; i < length_; i++) {\n            if (voteLocks[user][i].id == id) {\n                return i;\n            }\n        }\n        revert(\"lock doesn't exist\");\n    }\n\n    function _addVoteLock(\n        address user,\n        uint256 amount,\n        uint64 unlockTime,\n        uint128 boost\n    ) internal {\n        uint64 id = _nextId;\n        voteLocks[user].push(VoteLock(amount, unlockTime, boost, id));\n        _nextId = id + 1;\n    }\n}\n","sourcePath":"contracts/tokenomics/CNCLockerV2.sol","type":"contract","deployment":{"address":"0x5F2e1Ac047E6A8526f8640a7Ed8AB53a0b3f4acF","chainid":"1","blockHeight":16734410}}