{"abi":[{"inputs":[{"internalType":"contract IController","name":"_controller","type":"address"},{"internalType":"contract ICNCToken","name":"_cnc","type":"address"},{"internalType":"contract ICNCMintingRebalancingRewardsHandler","name":"_previousRewardsHandler","type":"address"}],"stateMutability":"nonpayable","type":"constructor","name":"constructor"},{"anonymous":false,"inputs":[{"indexed":false,"internalType":"uint8","name":"version","type":"uint8"}],"name":"Initialized","type":"event"},{"anonymous":false,"inputs":[{"indexed":true,"internalType":"address","name":"previousOwner","type":"address"},{"indexed":true,"internalType":"address","name":"newOwner","type":"address"}],"name":"OwnershipTransferred","type":"event"},{"anonymous":false,"inputs":[{"indexed":true,"internalType":"address","name":"pool","type":"address"},{"indexed":true,"internalType":"address","name":"account","type":"address"},{"indexed":true,"internalType":"address","name":"token","type":"address"},{"indexed":false,"internalType":"uint256","name":"tokenAmount","type":"uint256"}],"name":"RebalancingRewardDistributed","type":"event"},{"anonymous":false,"inputs":[{"indexed":false,"internalType":"uint256","name":"cncRebalancingRewardPerDollarPerSecond","type":"uint256"}],"name":"SetCncRebalancingRewardPerDollarPerSecond","type":"event"},{"inputs":[],"name":"cnc","outputs":[{"internalType":"contract ICNCToken","name":"","type":"address"}],"stateMutability":"view","type":"function"},{"inputs":[],"name":"cncRebalancingRewardPerDollarPerSecond","outputs":[{"internalType":"uint256","name":"","type":"uint256"}],"stateMutability":"view","type":"function"},{"inputs":[{"internalType":"address","name":"conicPool","type":"address"},{"internalType":"uint256","name":"deviationBefore","type":"uint256"},{"internalType":"uint256","name":"deviationAfter","type":"uint256"}],"name":"computeRebalancingRewards","outputs":[{"internalType":"uint256","name":"","type":"uint256"}],"stateMutability":"view","type":"function"},{"inputs":[],"name":"controller","outputs":[{"internalType":"contract IController","name":"","type":"address"}],"stateMutability":"view","type":"function"},{"inputs":[],"name":"emergencyMinter","outputs":[{"internalType":"address","name":"","type":"address"}],"stateMutability":"view","type":"function"},{"inputs":[{"internalType":"contract IConicPool","name":"conicPool","type":"address"},{"internalType":"address","name":"account","type":"address"},{"internalType":"uint256","name":"deviationBefore","type":"uint256"},{"internalType":"uint256","name":"deviationAfter","type":"uint256"}],"name":"handleRebalancingRewards","outputs":[],"stateMutability":"nonpayable","type":"function"},{"inputs":[],"name":"initialize","outputs":[],"stateMutability":"nonpayable","type":"function"},{"inputs":[],"name":"owner","outputs":[{"internalType":"address","name":"","type":"address"}],"stateMutability":"view","type":"function"},{"inputs":[],"name":"previousRewardsHandler","outputs":[{"internalType":"contract ICNCMintingRebalancingRewardsHandler","name":"","type":"address"}],"stateMutability":"view","type":"function"},{"inputs":[{"internalType":"address","name":"conicPool","type":"address"},{"internalType":"uint256","name":"underlyingAmount","type":"uint256"},{"internalType":"uint256","name":"minUnderlyingReceived","type":"uint256"},{"internalType":"uint256","name":"minCNCReceived","type":"uint256"}],"name":"rebalance","outputs":[{"internalType":"uint256","name":"underlyingReceived","type":"uint256"},{"internalType":"uint256","name":"cncReceived","type":"uint256"}],"stateMutability":"nonpayable","type":"function"},{"inputs":[],"name":"renounceMinterRights","outputs":[],"stateMutability":"nonpayable","type":"function"},{"inputs":[],"name":"renounceOwnership","outputs":[],"stateMutability":"nonpayable","type":"function"},{"inputs":[{"internalType":"uint256","name":"_cncRebalancingRewardPerDollarPerSecond","type":"uint256"}],"name":"setCncRebalancingRewardPerDollarPerSecond","outputs":[],"stateMutability":"nonpayable","type":"function"},{"inputs":[{"internalType":"bytes4","name":"interfaceId","type":"bytes4"}],"name":"supportsInterface","outputs":[{"internalType":"bool","name":"","type":"bool"}],"stateMutability":"view","type":"function"},{"inputs":[{"internalType":"address","name":"newRebalancingRewardsHandler","type":"address"}],"name":"switchMintingRebalancingRewardsHandler","outputs":[],"stateMutability":"nonpayable","type":"function"},{"inputs":[],"name":"totalCncMinted","outputs":[{"internalType":"uint256","name":"","type":"uint256"}],"stateMutability":"view","type":"function"},{"inputs":[{"internalType":"address","name":"newOwner","type":"address"}],"name":"transferOwnership","outputs":[],"stateMutability":"nonpayable","type":"function"}],"bytecode":"6101006040523480156200001257600080fd5b50604051620020c8380380620020c8833981016040819052620000359162000191565b8160006200004333620000a1565b6001600160a01b03808216608052821660a05262000068633874ba4d60e11b620000f1565b50620000839050630cdfe600674563918244f40000620001e5565b6004556001600160a01b0392831660c05290911660e0525062000208565b600080546001600160a01b038381166001600160a01b0319831681178455604051919092169283917f8be0079c531659141344cd1fd0a4f28419497f9722a3daafe3b4186f6b6457e09190a35050565b6001600160e01b03198082169003620001505760405162461bcd60e51b815260206004820152601c60248201527f4552433136353a20696e76616c696420696e7465726661636520696400000000604482015260640160405180910390fd5b6001600160e01b0319166000908152600160208190526040909120805460ff19169091179055565b6001600160a01b03811681146200018e57600080fd5b50565b600080600060608486031215620001a757600080fd5b8351620001b48162000178565b6020850151909350620001c78162000178565b6040850151909250620001da8162000178565b809150509250925092565b6000826200020357634e487b7160e01b600052601260045260246000fd5b500490565b60805160a05160c05160e051611e24620002a4600039600081816101e3015261100101526000818161028901528181610408015281816104bf01528181610553015281816107f6015261118301526000818161024f015281816106ff0152818161075d01528181610c2501528181610d2b01528181610eb0015281816116fe01526117900152600081816101a40152610e280152611e246000f3fe608060405234801561001057600080fd5b506004361061010b5760003560e01c8063715018a6116100a2578063d7cfbdf311610071578063d7cfbdf314610241578063f0aa0a1d1461024a578063f2fde38b14610271578063f77c479114610284578063f95878f5146102ab57600080fd5b8063715018a61461020d5780638129fc1c146102155780638da5cb5b1461021d5780638f3c14cb1461022e57600080fd5b80633d5d2cb2116100de5780633d5d2cb2146101965780635e2f23ce1461019f578063603293f1146101de57806370e9749a1461020557600080fd5b806301ffc9a71461011057806303de1eb014610138578063182ba0bf146101595780632332d74b1461016e575b600080fd5b61012361011e36600461192e565b6102be565b60405190151581526020015b60405180910390f35b61014b61014636600461196d565b6102fe565b60405190815260200161012f565b61016c6101673660046119a2565b6104b3565b005b61018161017c3660046119bf565b6107d2565b6040805192835260208301919091520161012f565b61014b60045481565b6101c67f000000000000000000000000000000000000000000000000000000000000000081565b6040516001600160a01b03909116815260200161012f565b6101c67f000000000000000000000000000000000000000000000000000000000000000081565b61016c610e1d565b61016c610f23565b61016c610f37565b6000546001600160a01b03166101c6565b61016c61023c3660046119fa565b6110ce565b61014b60035481565b6101c67f000000000000000000000000000000000000000000000000000000000000000081565b61016c61027f3660046119a2565b61110b565b6101c67f000000000000000000000000000000000000000000000000000000000000000081565b61016c6102b9366004611a13565b611181565b60006301ffc9a760e01b6001600160e01b0319831614806102f857506001600160e01b0319821660009081526001602052604090205460ff165b92915050565b600081831015610310575060006104ac565b6000846001600160a01b0316636f307dc36040518163ffffffff1660e01b8152600401602060405180830381865afa158015610350573d6000803e3d6000fd5b505050506040513d601f19601f820116820180604052508101906103749190611a59565b6001600160a01b031663313ce5676040518163ffffffff1660e01b8152600401602060405180830381865afa1580156103b1573d6000803e3d6000fd5b505050506040513d601f19601f820116820180604052508101906103d59190611a76565b905060006103e38486611aaf565b604051630850219760e01b81526001600160a01b0388811660048301529192506000917f00000000000000000000000000000000000000000000000000000000000000001690630850219790602401602060405180830381865afa15801561044f573d6000803e3d6000fd5b505050506040513d601f19601f820116820180604052508101906104739190611ac2565b905060006104818242611aaf565b90506104a561049284866012611284565b60045461049f9084611adb565b906112cd565b9450505050505b9392505050565b6104bb6112ef565b60007f00000000000000000000000000000000000000000000000000000000000000006001600160a01b031663687958626040518163ffffffff1660e01b8152600401600060405180830381865afa15801561051b573d6000803e3d6000fd5b505050506040513d6000823e601f3d908101601f191682016040526105439190810190611b18565b905060005b81518110156106df577f00000000000000000000000000000000000000000000000000000000000000006001600160a01b031663dbcd89fa6040518163ffffffff1660e01b8152600401602060405180830381865afa1580156105af573d6000803e3d6000fd5b505050506040513d601f19601f820116820180604052508101906105d39190611a59565b6001600160a01b031663b46507a18383815181106105f3576105f3611bdd565b60209081029190910101516040516001600160e01b031960e084901b1681526001600160a01b039091166004820152306024820152604401602060405180830381865afa158015610648573d6000803e3d6000fd5b505050506040513d601f19601f8201168201806040525081019061066c9190611bf3565b156106cd5760405162461bcd60e51b815260206004820152602660248201527f68616e646c6572206973207374696c6c207265676973746572656420666f722060448201526518481c1bdbdb60d21b60648201526084015b60405180910390fd5b806106d781611c15565b915050610548565b50604051634c1d96ab60e11b81526001600160a01b0383811660048301527f0000000000000000000000000000000000000000000000000000000000000000169063983b2d5690602401600060405180830381600087803b15801561074357600080fd5b505af1158015610757573d6000803e3d6000fd5b505050507f00000000000000000000000000000000000000000000000000000000000000006001600160a01b03166370e9749a6040518163ffffffff1660e01b8152600401600060405180830381600087803b1580156107b657600080fd5b505af11580156107ca573d6000803e3d6000fd5b505050505050565b604051635b16ebb760e01b81526001600160a01b03858116600483015260009182917f00000000000000000000000000000000000000000000000000000000000000001690635b16ebb790602401602060405180830381865afa15801561083d573d6000803e3d6000fd5b505050506040513d601f19601f820116820180604052508101906108619190611bf3565b61089a5760405162461bcd60e51b815260206004820152600a6024820152691b9bdd0818481c1bdbdb60b21b60448201526064016106c4565b60008690506000816001600160a01b0316639e4865626040518163ffffffff1660e01b8152600401602060405180830381865afa1580156108df573d6000803e3d6000fd5b505050506040513d601f19601f820116820180604052508101906109039190611bf3565b90506000826001600160a01b0316636f307dc36040518163ffffffff1660e01b8152600401602060405180830381865afa158015610945573d6000803e3d6000fd5b505050506040513d601f19601f820116820180604052508101906109699190611a59565b6040516370a0823160e01b815233600482015290915088906001600160a01b038316906370a0823190602401602060405180830381865afa1580156109b2573d6000803e3d6000fd5b505050506040513d601f19601f820116820180604052508101906109d69190611ac2565b1015610a245760405162461bcd60e51b815260206004820152601760248201527f696e73756666696369656e7420756e6465726c79696e6700000000000000000060448201526064016106c4565b6000836001600160a01b03166383645abf6040518163ffffffff1660e01b8152600401602060405180830381865afa158015610a64573d6000803e3d6000fd5b505050506040513d601f19601f82011682018060405250810190610a889190611ac2565b9050610a9f6001600160a01b03831633308c611349565b610ab36001600160a01b0383168b8b6113b4565b6005805460ff191660011790556040516321d0683360e11b8152600481018a905260006024820181905260448201819052906001600160a01b038616906343a0d066906064016020604051808303816000875af1158015610b18573d6000803e3d6000fd5b505050506040513d601f19601f82011682018060405250810190610b3c9190611ac2565b6005805460ff19169055604051630441a3e760e41b815260048101829052600060248201529091506001600160a01b0386169063441a3e70906044016020604051808303816000875af1158015610b97573d6000803e3d6000fd5b505050506040513d601f19601f82011682018060405250810190610bbb9190611ac2565b965088871015610c0d5760405162461bcd60e51b815260206004820181905260248201527f696e73756666696369656e7420756e6465726c79696e6720726563656976656460448201526064016106c4565b6040516370a0823160e01b81523360048201526000907f00000000000000000000000000000000000000000000000000000000000000006001600160a01b0316906370a0823190602401602060405180830381865afa158015610c74573d6000803e3d6000fd5b505050506040513d601f19601f82011682018060405250810190610c989190611ac2565b90508415610d14576000866001600160a01b03166383645abf6040518163ffffffff1660e01b8152600401602060405180830381865afa158015610ce0573d6000803e3d6000fd5b505050506040513d601f19601f82011682018060405250810190610d049190611ac2565b9050610d12873386846114ce565b505b6040516370a0823160e01b815233600482015281907f00000000000000000000000000000000000000000000000000000000000000006001600160a01b0316906370a0823190602401602060405180830381865afa158015610d7a573d6000803e3d6000fd5b505050506040513d601f19601f82011682018060405250810190610d9e9190611ac2565b610da89190611aaf565b965088871015610dfa5760405162461bcd60e51b815260206004820152601960248201527f696e73756666696369656e7420434e432072656365697665640000000000000060448201526064016106c4565b610e0e6001600160a01b038516338a6114f9565b50505050505094509492505050565b336001600160a01b037f00000000000000000000000000000000000000000000000000000000000000001614610eae5760405162461bcd60e51b815260206004820152603060248201527f6f6e6c7920656d657267656e6379206d696e7465722063616e2072656e6f756e60448201526f6365206d696e7465722072696768747360801b60648201526084016106c4565b7f00000000000000000000000000000000000000000000000000000000000000006001600160a01b03166370e9749a6040518163ffffffff1660e01b8152600401600060405180830381600087803b158015610f0957600080fd5b505af1158015610f1d573d6000803e3d6000fd5b50505050565b610f2b6112ef565b610f356000611529565b565b610f3f6112ef565b600254610100900460ff1615808015610f5f5750600254600160ff909116105b80610f795750303b158015610f79575060025460ff166001145b610fdc5760405162461bcd60e51b815260206004820152602e60248201527f496e697469616c697a61626c653a20636f6e747261637420697320616c72656160448201526d191e481a5b9a5d1a585b1a5e995960921b60648201526084016106c4565b6002805460ff191660011790558015610fff576002805461ff0019166101001790555b7f00000000000000000000000000000000000000000000000000000000000000006001600160a01b031663d7cfbdf36040518163ffffffff1660e01b8152600401602060405180830381865afa15801561105d573d6000803e3d6000fd5b505050506040513d601f19601f820116820180604052508101906110819190611ac2565b60035580156110cb576002805461ff0019169055604051600181527f7f26b83ff96e1f2b6a682f133852f6798a09c465da95921460cefb3847402498906020015b60405180910390a15b50565b6110d66112ef565b60048190556040518181527f52e5ea693f3343bef45800ecec3dd0c08e360e7c6e3a589a8fa2e4ee226c8a12906020016110c2565b6111136112ef565b6001600160a01b0381166111785760405162461bcd60e51b815260206004820152602660248201527f4f776e61626c653a206e6577206f776e657220697320746865207a65726f206160448201526564647265737360d01b60648201526084016106c4565b6110cb81611529565b7f00000000000000000000000000000000000000000000000000000000000000006001600160a01b031663dbcd89fa6040518163ffffffff1660e01b8152600401602060405180830381865afa1580156111df573d6000803e3d6000fd5b505050506040513d601f19601f820116820180604052508101906112039190611a59565b6001600160a01b0316336001600160a01b0316146112785760405162461bcd60e51b815260206004820152602c60248201527f6f6e6c7920496e666c6174696f6e4d616e616765722063616e2063616c6c207460448201526b3434b990333ab731ba34b7b760a11b60648201526084016106c4565b610f1d848484846114ce565b60008160ff168360ff160361129a5750826104ac565b8160ff168360ff1611156112ba576112b3848484611579565b90506104ac565b6112c584848461159a565b949350505050565b60006112db6012600a611d12565b6112e58385611adb565b6104ac9190611d1e565b6000546001600160a01b03163314610f355760405162461bcd60e51b815260206004820181905260248201527f4f776e61626c653a2063616c6c6572206973206e6f7420746865206f776e657260448201526064016106c4565b6040516001600160a01b0380851660248301528316604482015260648101829052610f1d9085906323b872dd60e01b906084015b60408051601f198184030181529190526020810180516001600160e01b03166001600160e01b0319909316929092179091526115bb565b80158061142e5750604051636eb1769f60e11b81523060048201526001600160a01b03838116602483015284169063dd62ed3e90604401602060405180830381865afa158015611408573d6000803e3d6000fd5b505050506040513d601f19601f8201168201806040525081019061142c9190611ac2565b155b6114995760405162461bcd60e51b815260206004820152603660248201527f5361666545524332303a20617070726f76652066726f6d206e6f6e2d7a65726f60448201527520746f206e6f6e2d7a65726f20616c6c6f77616e636560501b60648201526084016106c4565b6040516001600160a01b0383166024820152604481018290526114c990849063095ea7b360e01b9060640161137d565b505050565b60055460ff16610f1d5760006114e58584846102fe565b90506114f285858361168d565b5050505050565b6040516001600160a01b0383166024820152604481018290526114c990849063a9059cbb60e01b9060640161137d565b600080546001600160a01b038381166001600160a01b0319831681178455604051919092169283917f8be0079c531659141344cd1fd0a4f28419497f9722a3daafe3b4186f6b6457e09190a35050565b60006115858284611d40565b61159090600a611d59565b6112c59085611d1e565b60006115a68383611d40565b6115b190600a611d59565b6112c59085611adb565b6000611610826040518060400160405280602081526020017f5361666545524332303a206c6f772d6c6576656c2063616c6c206661696c6564815250856001600160a01b031661180b9092919063ffffffff16565b8051909150156114c9578080602001905181019061162e9190611bf3565b6114c95760405162461bcd60e51b815260206004820152602a60248201527f5361666545524332303a204552433230206f7065726174696f6e20646964206e6044820152691bdd081cdd58d8d9595960b21b60648201526084016106c4565b6a01925734d5b8904b800000816003546116a79190611d68565b11156116c8576003546116c5906a01925734d5b8904b800000611aaf565b90505b806000036116d557505050565b6040516340c10f1960e01b81526001600160a01b038381166004830152602482018390526000917f0000000000000000000000000000000000000000000000000000000000000000909116906340c10f19906044016020604051808303816000875af1158015611749573d6000803e3d6000fd5b505050506040513d601f19601f8201168201806040525081019061176d9190611ac2565b90508015610f1d5780600360008282546117879190611d68565b925050819055507f00000000000000000000000000000000000000000000000000000000000000006001600160a01b0316836001600160a01b0316856001600160a01b03167fc84ef7d7e740eeb018c01c28c59b82def5d19d93fb1c641a70e27665e16f282d846040516117fd91815260200190565b60405180910390a450505050565b60606112c5848460008585600080866001600160a01b031685876040516118329190611d9f565b60006040518083038185875af1925050503d806000811461186f576040519150601f19603f3d011682016040523d82523d6000602084013e611874565b606091505b509150915061188587838387611890565b979650505050505050565b606083156118ff5782516000036118f8576001600160a01b0385163b6118f85760405162461bcd60e51b815260206004820152601d60248201527f416464726573733a2063616c6c20746f206e6f6e2d636f6e747261637400000060448201526064016106c4565b50816112c5565b6112c583838151156119145781518083602001fd5b8060405162461bcd60e51b81526004016106c49190611dbb565b60006020828403121561194057600080fd5b81356001600160e01b0319811681146104ac57600080fd5b6001600160a01b03811681146110cb57600080fd5b60008060006060848603121561198257600080fd5b833561198d81611958565b95602085013595506040909401359392505050565b6000602082840312156119b457600080fd5b81356104ac81611958565b600080600080608085870312156119d557600080fd5b84356119e081611958565b966020860135965060408601359560600135945092505050565b600060208284031215611a0c57600080fd5b5035919050565b60008060008060808587031215611a2957600080fd5b8435611a3481611958565b93506020850135611a4481611958565b93969395505050506040820135916060013590565b600060208284031215611a6b57600080fd5b81516104ac81611958565b600060208284031215611a8857600080fd5b815160ff811681146104ac57600080fd5b634e487b7160e01b600052601160045260246000fd5b818103818111156102f8576102f8611a99565b600060208284031215611ad457600080fd5b5051919050565b80820281158282048414176102f8576102f8611a99565b634e487b7160e01b600052604160045260246000fd5b8051611b1381611958565b919050565b60006020808385031215611b2b57600080fd5b825167ffffffffffffffff80821115611b4357600080fd5b818501915085601f830112611b5757600080fd5b815181811115611b6957611b69611af2565b8060051b604051601f19603f83011681018181108582111715611b8e57611b8e611af2565b604052918252848201925083810185019188831115611bac57600080fd5b938501935b82851015611bd157611bc285611b08565b84529385019392850192611bb1565b98975050505050505050565b634e487b7160e01b600052603260045260246000fd5b600060208284031215611c0557600080fd5b815180151581146104ac57600080fd5b600060018201611c2757611c27611a99565b5060010190565b600181815b80851115611c69578160001904821115611c4f57611c4f611a99565b80851615611c5c57918102915b93841c9390800290611c33565b509250929050565b600082611c80575060016102f8565b81611c8d575060006102f8565b8160018114611ca35760028114611cad57611cc9565b60019150506102f8565b60ff841115611cbe57611cbe611a99565b50506001821b6102f8565b5060208310610133831016604e8410600b8410161715611cec575081810a6102f8565b611cf68383611c2e565b8060001904821115611d0a57611d0a611a99565b029392505050565b60006104ac8383611c71565b600082611d3b57634e487b7160e01b600052601260045260246000fd5b500490565b60ff82811682821603908111156102f8576102f8611a99565b60006104ac60ff841683611c71565b808201808211156102f8576102f8611a99565b60005b83811015611d96578181015183820152602001611d7e565b50506000910152565b60008251611db1818460208701611d7b565b9190910192915050565b6020815260008251806020840152611dda816040850160208701611d7b565b601f01601f1916919091016040019291505056fea264697066735822122005cd43accdafed0ea6731c47d3834edce2cd2a85819aedb0b059bcaf6240122f64736f6c63430008110033","bytecodeSha1":"94e8d47a544eb69ce25980d0a6487a03cf750cca","compiler":{"evm_version":"london","optimizer":{"enabled":true,"runs":200},"version":"0.8.17+commit.8df45f5f"},"contractName":"CNCMintingRebalancingRewardsHandlerV3","language":"Solidity","natspec":{"kind":"dev","methods":{"computeRebalancingRewards(address,uint256,uint256)":{"details":"this computes how much CNC a user should get when depositing this does not check whether the rewards should still be distributed amount CNC = t * CNC/s * (1 - (Δdeviation / initialDeviation)) where CNC/s: the amount of CNC per second to distributed for rebalancing t: the time elapsed since the weight update Δdeviation: the deviation difference caused by this deposit initialDeviation: the deviation after updating weights","returns":{"_0":"the amount of CNC to give to the user as reward"}},"constructor":{"notice":"NOTE: we do not use the `emergencyMinter` anymore so we pass in address(0) as the emergency minter to disable the usage of `renounceMinterRights` From V3, we can remove the dependency on `BaseMinter` altogether but for now we need it to be able to call `EmergencyMinter.switchRebalancingRewardsHandler`"},"handleRebalancingRewards(address,address,uint256,uint256)":{"notice":"Handles the rewards distribution for the rebalancing of the pool","params":{"account":"The account that is rebalancing the pool","conicPool":"The pool that is being rebalanced","deviationAfter":"The total absolute deviation of the Conic pool after the rebalancing","deviationBefore":"The total absolute deviation of the Conic pool before the rebalancing"}},"owner()":{"details":"Returns the address of the current owner."},"renounceOwnership()":{"details":"Leaves the contract without owner. It will not be possible to call `onlyOwner` functions anymore. Can only be called by the current owner. NOTE: Renouncing ownership will leave the contract without an owner, thereby removing any functionality that is only available to the owner."},"supportsInterface(bytes4)":{"details":"See {IERC165-supportsInterface}."},"switchMintingRebalancingRewardsHandler(address)":{"notice":"switches the minting rebalancing reward handler by granting the new one minting rights and renouncing his own `InflationManager.removePoolRebalancingRewardHandler` should be called on every pool before this is called this should typically be done as a single batched governance action The same governance action should also call `InflationManager.addPoolRebalancingRewardHandler` for each pool passing in `newRebalancingRewardsHandler` so that the whole operation is atomic","params":{"newRebalancingRewardsHandler":"the address of the new rebalancing rewards handler"}},"transferOwnership(address)":{"details":"Transfers ownership of the contract to a new account (`newOwner`). Can only be called by the current owner."}},"stateVariables":{"_INITIAL_REBALANCING_REWARD_PER_DOLLAR_PER_SECOND":{"details":"gives out 5 dollars per 1 hour (assuming 1 CNC = 6 USD) for every 10,000 USD in TVL that needs to be shifted"},"_MAX_REBALANCING_REWARDS":{"details":"the maximum amount of CNC that can be minted for rebalancing rewards"}},"version":1},"opcodes":"PUSH1 0x80 PUSH1 0x40 MSTORE CALLVALUE DUP1 ISZERO PUSH2 0x10 JUMPI PUSH1 0x0 DUP1 REVERT JUMPDEST POP PUSH1 0x4 CALLDATASIZE LT PUSH2 0x10B JUMPI PUSH1 0x0 CALLDATALOAD PUSH1 0xE0 SHR DUP1 PUSH4 0x715018A6 GT PUSH2 0xA2 JUMPI DUP1 PUSH4 0xD7CFBDF3 GT PUSH2 0x71 JUMPI DUP1 PUSH4 0xD7CFBDF3 EQ PUSH2 0x241 JUMPI DUP1 PUSH4 0xF0AA0A1D EQ PUSH2 0x24A JUMPI DUP1 PUSH4 0xF2FDE38B EQ PUSH2 0x271 JUMPI DUP1 PUSH4 0xF77C4791 EQ PUSH2 0x284 JUMPI DUP1 PUSH4 0xF95878F5 EQ PUSH2 0x2AB JUMPI PUSH1 0x0 DUP1 REVERT JUMPDEST DUP1 PUSH4 0x715018A6 EQ PUSH2 0x20D JUMPI DUP1 PUSH4 0x8129FC1C EQ PUSH2 0x215 JUMPI DUP1 PUSH4 0x8DA5CB5B EQ PUSH2 0x21D JUMPI DUP1 PUSH4 0x8F3C14CB EQ PUSH2 0x22E JUMPI PUSH1 0x0 DUP1 REVERT JUMPDEST DUP1 PUSH4 0x3D5D2CB2 GT PUSH2 0xDE JUMPI DUP1 PUSH4 0x3D5D2CB2 EQ PUSH2 0x196 JUMPI DUP1 PUSH4 0x5E2F23CE EQ PUSH2 0x19F JUMPI DUP1 PUSH4 0x603293F1 EQ PUSH2 0x1DE JUMPI DUP1 PUSH4 0x70E9749A EQ PUSH2 0x205 JUMPI PUSH1 0x0 DUP1 REVERT JUMPDEST DUP1 PUSH4 0x1FFC9A7 EQ PUSH2 0x110 JUMPI DUP1 PUSH4 0x3DE1EB0 EQ PUSH2 0x138 JUMPI DUP1 PUSH4 0x182BA0BF EQ PUSH2 0x159 JUMPI DUP1 PUSH4 0x2332D74B EQ PUSH2 0x16E JUMPI JUMPDEST PUSH1 0x0 DUP1 REVERT JUMPDEST PUSH2 0x123 PUSH2 0x11E CALLDATASIZE PUSH1 0x4 PUSH2 0x192E JUMP JUMPDEST PUSH2 0x2BE JUMP JUMPDEST PUSH1 0x40 MLOAD SWAP1 ISZERO ISZERO DUP2 MSTORE PUSH1 0x20 ADD JUMPDEST PUSH1 0x40 MLOAD DUP1 SWAP2 SUB SWAP1 RETURN JUMPDEST PUSH2 0x14B PUSH2 0x146 CALLDATASIZE PUSH1 0x4 PUSH2 0x196D JUMP JUMPDEST PUSH2 0x2FE JUMP JUMPDEST PUSH1 0x40 MLOAD SWAP1 DUP2 MSTORE PUSH1 0x20 ADD PUSH2 0x12F JUMP JUMPDEST PUSH2 0x16C PUSH2 0x167 CALLDATASIZE PUSH1 0x4 PUSH2 0x19A2 JUMP JUMPDEST PUSH2 0x4B3 JUMP JUMPDEST STOP JUMPDEST PUSH2 0x181 PUSH2 0x17C CALLDATASIZE PUSH1 0x4 PUSH2 0x19BF JUMP JUMPDEST PUSH2 0x7D2 JUMP JUMPDEST PUSH1 0x40 DUP1 MLOAD SWAP3 DUP4 MSTORE PUSH1 0x20 DUP4 ADD SWAP2 SWAP1 SWAP2 MSTORE ADD PUSH2 0x12F JUMP JUMPDEST PUSH2 0x14B PUSH1 0x4 SLOAD DUP2 JUMP JUMPDEST PUSH2 0x1C6 PUSH32 0x0 DUP2 JUMP JUMPDEST PUSH1 0x40 MLOAD PUSH1 0x1 PUSH1 0x1 PUSH1 0xA0 SHL SUB SWAP1 SWAP2 AND DUP2 MSTORE PUSH1 0x20 ADD PUSH2 0x12F JUMP JUMPDEST PUSH2 0x1C6 PUSH32 0x0 DUP2 JUMP JUMPDEST PUSH2 0x16C PUSH2 0xE1D JUMP JUMPDEST PUSH2 0x16C PUSH2 0xF23 JUMP JUMPDEST PUSH2 0x16C PUSH2 0xF37 JUMP JUMPDEST PUSH1 0x0 SLOAD PUSH1 0x1 PUSH1 0x1 PUSH1 0xA0 SHL SUB AND PUSH2 0x1C6 JUMP JUMPDEST PUSH2 0x16C PUSH2 0x23C CALLDATASIZE PUSH1 0x4 PUSH2 0x19FA JUMP JUMPDEST PUSH2 0x10CE JUMP JUMPDEST PUSH2 0x14B PUSH1 0x3 SLOAD DUP2 JUMP JUMPDEST PUSH2 0x1C6 PUSH32 0x0 DUP2 JUMP JUMPDEST PUSH2 0x16C PUSH2 0x27F CALLDATASIZE PUSH1 0x4 PUSH2 0x19A2 JUMP JUMPDEST PUSH2 0x110B JUMP JUMPDEST PUSH2 0x1C6 PUSH32 0x0 DUP2 JUMP JUMPDEST PUSH2 0x16C PUSH2 0x2B9 CALLDATASIZE PUSH1 0x4 PUSH2 0x1A13 JUMP JUMPDEST PUSH2 0x1181 JUMP JUMPDEST PUSH1 0x0 PUSH4 0x1FFC9A7 PUSH1 0xE0 SHL PUSH1 0x1 PUSH1 0x1 PUSH1 0xE0 SHL SUB NOT DUP4 AND EQ DUP1 PUSH2 0x2F8 JUMPI POP PUSH1 0x1 PUSH1 0x1 PUSH1 0xE0 SHL SUB NOT DUP3 AND PUSH1 0x0 SWAP1 DUP2 MSTORE PUSH1 0x1 PUSH1 0x20 MSTORE PUSH1 0x40 SWAP1 KECCAK256 SLOAD PUSH1 0xFF AND JUMPDEST SWAP3 SWAP2 POP POP JUMP JUMPDEST PUSH1 0x0 DUP2 DUP4 LT ISZERO PUSH2 0x310 JUMPI POP PUSH1 0x0 PUSH2 0x4AC JUMP JUMPDEST PUSH1 0x0 DUP5 PUSH1 0x1 PUSH1 0x1 PUSH1 0xA0 SHL SUB AND PUSH4 0x6F307DC3 PUSH1 0x40 MLOAD DUP2 PUSH4 0xFFFFFFFF AND PUSH1 0xE0 SHL DUP2 MSTORE PUSH1 0x4 ADD PUSH1 0x20 PUSH1 0x40 MLOAD DUP1 DUP4 SUB DUP2 DUP7 GAS STATICCALL ISZERO DUP1 ISZERO PUSH2 0x350 JUMPI RETURNDATASIZE PUSH1 0x0 DUP1 RETURNDATACOPY RETURNDATASIZE PUSH1 0x0 REVERT JUMPDEST POP POP POP POP PUSH1 0x40 MLOAD RETURNDATASIZE PUSH1 0x1F NOT PUSH1 0x1F DUP3 ADD AND DUP3 ADD DUP1 PUSH1 0x40 MSTORE POP DUP2 ADD SWAP1 PUSH2 0x374 SWAP2 SWAP1 PUSH2 0x1A59 JUMP JUMPDEST PUSH1 0x1 PUSH1 0x1 PUSH1 0xA0 SHL SUB AND PUSH4 0x313CE567 PUSH1 0x40 MLOAD DUP2 PUSH4 0xFFFFFFFF AND PUSH1 0xE0 SHL DUP2 MSTORE PUSH1 0x4 ADD PUSH1 0x20 PUSH1 0x40 MLOAD DUP1 DUP4 SUB DUP2 DUP7 GAS STATICCALL ISZERO DUP1 ISZERO PUSH2 0x3B1 JUMPI RETURNDATASIZE PUSH1 0x0 DUP1 RETURNDATACOPY RETURNDATASIZE PUSH1 0x0 REVERT JUMPDEST POP POP POP POP PUSH1 0x40 MLOAD RETURNDATASIZE PUSH1 0x1F NOT PUSH1 0x1F DUP3 ADD AND DUP3 ADD DUP1 PUSH1 0x40 MSTORE POP DUP2 ADD SWAP1 PUSH2 0x3D5 SWAP2 SWAP1 PUSH2 0x1A76 JUMP JUMPDEST SWAP1 POP PUSH1 0x0 PUSH2 0x3E3 DUP5 DUP7 PUSH2 0x1AAF JUMP JUMPDEST PUSH1 0x40 MLOAD PUSH4 0x8502197 PUSH1 0xE0 SHL DUP2 MSTORE PUSH1 0x1 PUSH1 0x1 PUSH1 0xA0 SHL SUB DUP9 DUP2 AND PUSH1 0x4 DUP4 ADD MSTORE SWAP2 SWAP3 POP PUSH1 0x0 SWAP2 PUSH32 0x0 AND SWAP1 PUSH4 0x8502197 SWAP1 PUSH1 0x24 ADD PUSH1 0x20 PUSH1 0x40 MLOAD DUP1 DUP4 SUB DUP2 DUP7 GAS STATICCALL ISZERO DUP1 ISZERO PUSH2 0x44F JUMPI RETURNDATASIZE PUSH1 0x0 DUP1 RETURNDATACOPY RETURNDATASIZE PUSH1 0x0 REVERT JUMPDEST POP POP POP POP PUSH1 0x40 MLOAD RETURNDATASIZE PUSH1 0x1F NOT PUSH1 0x1F DUP3 ADD AND DUP3 ADD DUP1 PUSH1 0x40 MSTORE POP DUP2 ADD SWAP1 PUSH2 0x473 SWAP2 SWAP1 PUSH2 0x1AC2 JUMP JUMPDEST SWAP1 POP PUSH1 0x0 PUSH2 0x481 DUP3 TIMESTAMP PUSH2 0x1AAF JUMP JUMPDEST SWAP1 POP PUSH2 0x4A5 PUSH2 0x492 DUP5 DUP7 PUSH1 0x12 PUSH2 0x1284 JUMP JUMPDEST PUSH1 0x4 SLOAD PUSH2 0x49F SWAP1 DUP5 PUSH2 0x1ADB JUMP JUMPDEST SWAP1 PUSH2 0x12CD JUMP JUMPDEST SWAP5 POP POP POP POP POP JUMPDEST SWAP4 SWAP3 POP POP POP JUMP JUMPDEST PUSH2 0x4BB PUSH2 0x12EF JUMP JUMPDEST PUSH1 0x0 PUSH32 0x0 PUSH1 0x1 PUSH1 0x1 PUSH1 0xA0 SHL SUB AND PUSH4 0x68795862 PUSH1 0x40 MLOAD DUP2 PUSH4 0xFFFFFFFF AND PUSH1 0xE0 SHL DUP2 MSTORE PUSH1 0x4 ADD PUSH1 0x0 PUSH1 0x40 MLOAD DUP1 DUP4 SUB DUP2 DUP7 GAS STATICCALL ISZERO DUP1 ISZERO PUSH2 0x51B JUMPI RETURNDATASIZE PUSH1 0x0 DUP1 RETURNDATACOPY RETURNDATASIZE PUSH1 0x0 REVERT JUMPDEST POP POP POP POP PUSH1 0x40 MLOAD RETURNDATASIZE PUSH1 0x0 DUP3 RETURNDATACOPY PUSH1 0x1F RETURNDATASIZE SWAP1 DUP2 ADD PUSH1 0x1F NOT AND DUP3 ADD PUSH1 0x40 MSTORE PUSH2 0x543 SWAP2 SWAP1 DUP2 ADD SWAP1 PUSH2 0x1B18 JUMP JUMPDEST SWAP1 POP PUSH1 0x0 JUMPDEST DUP2 MLOAD DUP2 LT ISZERO PUSH2 0x6DF JUMPI PUSH32 0x0 PUSH1 0x1 PUSH1 0x1 PUSH1 0xA0 SHL SUB AND PUSH4 0xDBCD89FA PUSH1 0x40 MLOAD DUP2 PUSH4 0xFFFFFFFF AND PUSH1 0xE0 SHL DUP2 MSTORE PUSH1 0x4 ADD PUSH1 0x20 PUSH1 0x40 MLOAD DUP1 DUP4 SUB DUP2 DUP7 GAS STATICCALL ISZERO DUP1 ISZERO PUSH2 0x5AF JUMPI RETURNDATASIZE PUSH1 0x0 DUP1 RETURNDATACOPY RETURNDATASIZE PUSH1 0x0 REVERT JUMPDEST POP POP POP POP PUSH1 0x40 MLOAD RETURNDATASIZE PUSH1 0x1F NOT PUSH1 0x1F DUP3 ADD AND DUP3 ADD DUP1 PUSH1 0x40 MSTORE POP DUP2 ADD SWAP1 PUSH2 0x5D3 SWAP2 SWAP1 PUSH2 0x1A59 JUMP JUMPDEST PUSH1 0x1 PUSH1 0x1 PUSH1 0xA0 SHL SUB AND PUSH4 0xB46507A1 DUP4 DUP4 DUP2 MLOAD DUP2 LT PUSH2 0x5F3 JUMPI PUSH2 0x5F3 PUSH2 0x1BDD JUMP JUMPDEST PUSH1 0x20 SWAP1 DUP2 MUL SWAP2 SWAP1 SWAP2 ADD ADD MLOAD PUSH1 0x40 MLOAD PUSH1 0x1 PUSH1 0x1 PUSH1 0xE0 SHL SUB NOT PUSH1 0xE0 DUP5 SWAP1 SHL AND DUP2 MSTORE PUSH1 0x1 PUSH1 0x1 PUSH1 0xA0 SHL SUB SWAP1 SWAP2 AND PUSH1 0x4 DUP3 ADD MSTORE ADDRESS PUSH1 0x24 DUP3 ADD MSTORE PUSH1 0x44 ADD PUSH1 0x20 PUSH1 0x40 MLOAD DUP1 DUP4 SUB DUP2 DUP7 GAS STATICCALL ISZERO DUP1 ISZERO PUSH2 0x648 JUMPI RETURNDATASIZE PUSH1 0x0 DUP1 RETURNDATACOPY RETURNDATASIZE PUSH1 0x0 REVERT JUMPDEST POP POP POP POP PUSH1 0x40 MLOAD RETURNDATASIZE PUSH1 0x1F NOT PUSH1 0x1F DUP3 ADD AND DUP3 ADD DUP1 PUSH1 0x40 MSTORE POP DUP2 ADD SWAP1 PUSH2 0x66C SWAP2 SWAP1 PUSH2 0x1BF3 JUMP JUMPDEST ISZERO PUSH2 0x6CD JUMPI PUSH1 0x40 MLOAD PUSH3 0x461BCD PUSH1 0xE5 SHL DUP2 MSTORE PUSH1 0x20 PUSH1 0x4 DUP3 ADD MSTORE PUSH1 0x26 PUSH1 0x24 DUP3 ADD MSTORE PUSH32 0x68616E646C6572206973207374696C6C207265676973746572656420666F7220 PUSH1 0x44 DUP3 ADD MSTORE PUSH6 0x18481C1BDBDB PUSH1 0xD2 SHL PUSH1 0x64 DUP3 ADD MSTORE PUSH1 0x84 ADD JUMPDEST PUSH1 0x40 MLOAD DUP1 SWAP2 SUB SWAP1 REVERT JUMPDEST DUP1 PUSH2 0x6D7 DUP2 PUSH2 0x1C15 JUMP JUMPDEST SWAP2 POP POP PUSH2 0x548 JUMP JUMPDEST POP PUSH1 0x40 MLOAD PUSH4 0x4C1D96AB PUSH1 0xE1 SHL DUP2 MSTORE PUSH1 0x1 PUSH1 0x1 PUSH1 0xA0 SHL SUB DUP4 DUP2 AND PUSH1 0x4 DUP4 ADD MSTORE PUSH32 0x0 AND SWAP1 PUSH4 0x983B2D56 SWAP1 PUSH1 0x24 ADD PUSH1 0x0 PUSH1 0x40 MLOAD DUP1 DUP4 SUB DUP2 PUSH1 0x0 DUP8 DUP1 EXTCODESIZE ISZERO DUP1 ISZERO PUSH2 0x743 JUMPI PUSH1 0x0 DUP1 REVERT JUMPDEST POP GAS CALL ISZERO DUP1 ISZERO PUSH2 0x757 JUMPI RETURNDATASIZE PUSH1 0x0 DUP1 RETURNDATACOPY RETURNDATASIZE PUSH1 0x0 REVERT JUMPDEST POP POP POP POP PUSH32 0x0 PUSH1 0x1 PUSH1 0x1 PUSH1 0xA0 SHL SUB AND PUSH4 0x70E9749A PUSH1 0x40 MLOAD DUP2 PUSH4 0xFFFFFFFF AND PUSH1 0xE0 SHL DUP2 MSTORE PUSH1 0x4 ADD PUSH1 0x0 PUSH1 0x40 MLOAD DUP1 DUP4 SUB DUP2 PUSH1 0x0 DUP8 DUP1 EXTCODESIZE ISZERO DUP1 ISZERO PUSH2 0x7B6 JUMPI PUSH1 0x0 DUP1 REVERT JUMPDEST POP GAS CALL ISZERO DUP1 ISZERO PUSH2 0x7CA JUMPI RETURNDATASIZE PUSH1 0x0 DUP1 RETURNDATACOPY RETURNDATASIZE PUSH1 0x0 REVERT JUMPDEST POP POP POP POP POP POP JUMP JUMPDEST PUSH1 0x40 MLOAD PUSH4 0x5B16EBB7 PUSH1 0xE0 SHL DUP2 MSTORE PUSH1 0x1 PUSH1 0x1 PUSH1 0xA0 SHL SUB DUP6 DUP2 AND PUSH1 0x4 DUP4 ADD MSTORE PUSH1 0x0 SWAP2 DUP3 SWAP2 PUSH32 0x0 AND SWAP1 PUSH4 0x5B16EBB7 SWAP1 PUSH1 0x24 ADD PUSH1 0x20 PUSH1 0x40 MLOAD DUP1 DUP4 SUB DUP2 DUP7 GAS STATICCALL ISZERO DUP1 ISZERO PUSH2 0x83D JUMPI RETURNDATASIZE PUSH1 0x0 DUP1 RETURNDATACOPY RETURNDATASIZE PUSH1 0x0 REVERT JUMPDEST POP POP POP POP PUSH1 0x40 MLOAD RETURNDATASIZE PUSH1 0x1F NOT PUSH1 0x1F DUP3 ADD AND DUP3 ADD DUP1 PUSH1 0x40 MSTORE POP DUP2 ADD SWAP1 PUSH2 0x861 SWAP2 SWAP1 PUSH2 0x1BF3 JUMP JUMPDEST PUSH2 0x89A JUMPI PUSH1 0x40 MLOAD PUSH3 0x461BCD PUSH1 0xE5 SHL DUP2 MSTORE PUSH1 0x20 PUSH1 0x4 DUP3 ADD MSTORE PUSH1 0xA PUSH1 0x24 DUP3 ADD MSTORE PUSH10 0x1B9BDD0818481C1BDBDB PUSH1 0xB2 SHL PUSH1 0x44 DUP3 ADD MSTORE PUSH1 0x64 ADD PUSH2 0x6C4 JUMP JUMPDEST PUSH1 0x0 DUP7 SWAP1 POP PUSH1 0x0 DUP2 PUSH1 0x1 PUSH1 0x1 PUSH1 0xA0 SHL SUB AND PUSH4 0x9E486562 PUSH1 0x40 MLOAD DUP2 PUSH4 0xFFFFFFFF AND PUSH1 0xE0 SHL DUP2 MSTORE PUSH1 0x4 ADD PUSH1 0x20 PUSH1 0x40 MLOAD DUP1 DUP4 SUB DUP2 DUP7 GAS STATICCALL ISZERO DUP1 ISZERO PUSH2 0x8DF JUMPI RETURNDATASIZE PUSH1 0x0 DUP1 RETURNDATACOPY RETURNDATASIZE PUSH1 0x0 REVERT JUMPDEST POP POP POP POP PUSH1 0x40 MLOAD RETURNDATASIZE PUSH1 0x1F NOT PUSH1 0x1F DUP3 ADD AND DUP3 ADD DUP1 PUSH1 0x40 MSTORE POP DUP2 ADD SWAP1 PUSH2 0x903 SWAP2 SWAP1 PUSH2 0x1BF3 JUMP JUMPDEST SWAP1 POP PUSH1 0x0 DUP3 PUSH1 0x1 PUSH1 0x1 PUSH1 0xA0 SHL SUB AND PUSH4 0x6F307DC3 PUSH1 0x40 MLOAD DUP2 PUSH4 0xFFFFFFFF AND PUSH1 0xE0 SHL DUP2 MSTORE PUSH1 0x4 ADD PUSH1 0x20 PUSH1 0x40 MLOAD DUP1 DUP4 SUB DUP2 DUP7 GAS STATICCALL ISZERO DUP1 ISZERO PUSH2 0x945 JUMPI RETURNDATASIZE PUSH1 0x0 DUP1 RETURNDATACOPY RETURNDATASIZE PUSH1 0x0 REVERT JUMPDEST POP POP POP POP PUSH1 0x40 MLOAD RETURNDATASIZE PUSH1 0x1F NOT PUSH1 0x1F DUP3 ADD AND DUP3 ADD DUP1 PUSH1 0x40 MSTORE POP DUP2 ADD SWAP1 PUSH2 0x969 SWAP2 SWAP1 PUSH2 0x1A59 JUMP JUMPDEST PUSH1 0x40 MLOAD PUSH4 0x70A08231 PUSH1 0xE0 SHL DUP2 MSTORE CALLER PUSH1 0x4 DUP3 ADD MSTORE SWAP1 SWAP2 POP DUP9 SWAP1 PUSH1 0x1 PUSH1 0x1 PUSH1 0xA0 SHL SUB DUP4 AND SWAP1 PUSH4 0x70A08231 SWAP1 PUSH1 0x24 ADD PUSH1 0x20 PUSH1 0x40 MLOAD DUP1 DUP4 SUB DUP2 DUP7 GAS STATICCALL ISZERO DUP1 ISZERO PUSH2 0x9B2 JUMPI RETURNDATASIZE PUSH1 0x0 DUP1 RETURNDATACOPY RETURNDATASIZE PUSH1 0x0 REVERT JUMPDEST POP POP POP POP PUSH1 0x40 MLOAD RETURNDATASIZE PUSH1 0x1F NOT PUSH1 0x1F DUP3 ADD AND DUP3 ADD DUP1 PUSH1 0x40 MSTORE POP DUP2 ADD SWAP1 PUSH2 0x9D6 SWAP2 SWAP1 PUSH2 0x1AC2 JUMP JUMPDEST LT ISZERO PUSH2 0xA24 JUMPI PUSH1 0x40 MLOAD PUSH3 0x461BCD PUSH1 0xE5 SHL DUP2 MSTORE PUSH1 0x20 PUSH1 0x4 DUP3 ADD MSTORE PUSH1 0x17 PUSH1 0x24 DUP3 ADD MSTORE PUSH32 0x696E73756666696369656E7420756E6465726C79696E67000000000000000000 PUSH1 0x44 DUP3 ADD MSTORE PUSH1 0x64 ADD PUSH2 0x6C4 JUMP JUMPDEST PUSH1 0x0 DUP4 PUSH1 0x1 PUSH1 0x1 PUSH1 0xA0 SHL SUB AND PUSH4 0x83645ABF PUSH1 0x40 MLOAD DUP2 PUSH4 0xFFFFFFFF AND PUSH1 0xE0 SHL DUP2 MSTORE PUSH1 0x4 ADD PUSH1 0x20 PUSH1 0x40 MLOAD DUP1 DUP4 SUB DUP2 DUP7 GAS STATICCALL ISZERO DUP1 ISZERO PUSH2 0xA64 JUMPI RETURNDATASIZE PUSH1 0x0 DUP1 RETURNDATACOPY RETURNDATASIZE PUSH1 0x0 REVERT JUMPDEST POP POP POP POP PUSH1 0x40 MLOAD RETURNDATASIZE PUSH1 0x1F NOT PUSH1 0x1F DUP3 ADD AND DUP3 ADD DUP1 PUSH1 0x40 MSTORE POP DUP2 ADD SWAP1 PUSH2 0xA88 SWAP2 SWAP1 PUSH2 0x1AC2 JUMP JUMPDEST SWAP1 POP PUSH2 0xA9F PUSH1 0x1 PUSH1 0x1 PUSH1 0xA0 SHL SUB DUP4 AND CALLER ADDRESS DUP13 PUSH2 0x1349 JUMP JUMPDEST PUSH2 0xAB3 PUSH1 0x1 PUSH1 0x1 PUSH1 0xA0 SHL SUB DUP4 AND DUP12 DUP12 PUSH2 0x13B4 JUMP JUMPDEST PUSH1 0x5 DUP1 SLOAD PUSH1 0xFF NOT AND PUSH1 0x1 OR SWAP1 SSTORE PUSH1 0x40 MLOAD PUSH4 0x21D06833 PUSH1 0xE1 SHL DUP2 MSTORE PUSH1 0x4 DUP2 ADD DUP11 SWAP1 MSTORE PUSH1 0x0 PUSH1 0x24 DUP3 ADD DUP2 SWAP1 MSTORE PUSH1 0x44 DUP3 ADD DUP2 SWAP1 MSTORE SWAP1 PUSH1 0x1 PUSH1 0x1 PUSH1 0xA0 SHL SUB DUP7 AND SWAP1 PUSH4 0x43A0D066 SWAP1 PUSH1 0x64 ADD PUSH1 0x20 PUSH1 0x40 MLOAD DUP1 DUP4 SUB DUP2 PUSH1 0x0 DUP8 GAS CALL ISZERO DUP1 ISZERO PUSH2 0xB18 JUMPI RETURNDATASIZE PUSH1 0x0 DUP1 RETURNDATACOPY RETURNDATASIZE PUSH1 0x0 REVERT JUMPDEST POP POP POP POP PUSH1 0x40 MLOAD RETURNDATASIZE PUSH1 0x1F NOT PUSH1 0x1F DUP3 ADD AND DUP3 ADD DUP1 PUSH1 0x40 MSTORE POP DUP2 ADD SWAP1 PUSH2 0xB3C SWAP2 SWAP1 PUSH2 0x1AC2 JUMP JUMPDEST PUSH1 0x5 DUP1 SLOAD PUSH1 0xFF NOT AND SWAP1 SSTORE PUSH1 0x40 MLOAD PUSH4 0x441A3E7 PUSH1 0xE4 SHL DUP2 MSTORE PUSH1 0x4 DUP2 ADD DUP3 SWAP1 MSTORE PUSH1 0x0 PUSH1 0x24 DUP3 ADD MSTORE SWAP1 SWAP2 POP PUSH1 0x1 PUSH1 0x1 PUSH1 0xA0 SHL SUB DUP7 AND SWAP1 PUSH4 0x441A3E70 SWAP1 PUSH1 0x44 ADD PUSH1 0x20 PUSH1 0x40 MLOAD DUP1 DUP4 SUB DUP2 PUSH1 0x0 DUP8 GAS CALL ISZERO DUP1 ISZERO PUSH2 0xB97 JUMPI RETURNDATASIZE PUSH1 0x0 DUP1 RETURNDATACOPY RETURNDATASIZE PUSH1 0x0 REVERT JUMPDEST POP POP POP POP PUSH1 0x40 MLOAD RETURNDATASIZE PUSH1 0x1F NOT PUSH1 0x1F DUP3 ADD AND DUP3 ADD DUP1 PUSH1 0x40 MSTORE POP DUP2 ADD SWAP1 PUSH2 0xBBB SWAP2 SWAP1 PUSH2 0x1AC2 JUMP JUMPDEST SWAP7 POP DUP9 DUP8 LT ISZERO PUSH2 0xC0D JUMPI PUSH1 0x40 MLOAD PUSH3 0x461BCD PUSH1 0xE5 SHL DUP2 MSTORE PUSH1 0x20 PUSH1 0x4 DUP3 ADD DUP2 SWAP1 MSTORE PUSH1 0x24 DUP3 ADD MSTORE PUSH32 0x696E73756666696369656E7420756E6465726C79696E67207265636569766564 PUSH1 0x44 DUP3 ADD MSTORE PUSH1 0x64 ADD PUSH2 0x6C4 JUMP JUMPDEST PUSH1 0x40 MLOAD PUSH4 0x70A08231 PUSH1 0xE0 SHL DUP2 MSTORE CALLER PUSH1 0x4 DUP3 ADD MSTORE PUSH1 0x0 SWAP1 PUSH32 0x0 PUSH1 0x1 PUSH1 0x1 PUSH1 0xA0 SHL SUB AND SWAP1 PUSH4 0x70A08231 SWAP1 PUSH1 0x24 ADD PUSH1 0x20 PUSH1 0x40 MLOAD DUP1 DUP4 SUB DUP2 DUP7 GAS STATICCALL ISZERO DUP1 ISZERO PUSH2 0xC74 JUMPI RETURNDATASIZE PUSH1 0x0 DUP1 RETURNDATACOPY RETURNDATASIZE PUSH1 0x0 REVERT JUMPDEST POP POP POP POP PUSH1 0x40 MLOAD RETURNDATASIZE PUSH1 0x1F NOT PUSH1 0x1F DUP3 ADD AND DUP3 ADD DUP1 PUSH1 0x40 MSTORE POP DUP2 ADD SWAP1 PUSH2 0xC98 SWAP2 SWAP1 PUSH2 0x1AC2 JUMP JUMPDEST SWAP1 POP DUP5 ISZERO PUSH2 0xD14 JUMPI PUSH1 0x0 DUP7 PUSH1 0x1 PUSH1 0x1 PUSH1 0xA0 SHL SUB AND PUSH4 0x83645ABF PUSH1 0x40 MLOAD DUP2 PUSH4 0xFFFFFFFF AND PUSH1 0xE0 SHL DUP2 MSTORE PUSH1 0x4 ADD PUSH1 0x20 PUSH1 0x40 MLOAD DUP1 DUP4 SUB DUP2 DUP7 GAS STATICCALL ISZERO DUP1 ISZERO PUSH2 0xCE0 JUMPI RETURNDATASIZE PUSH1 0x0 DUP1 RETURNDATACOPY RETURNDATASIZE PUSH1 0x0 REVERT JUMPDEST POP POP POP POP PUSH1 0x40 MLOAD RETURNDATASIZE PUSH1 0x1F NOT PUSH1 0x1F DUP3 ADD AND DUP3 ADD DUP1 PUSH1 0x40 MSTORE POP DUP2 ADD SWAP1 PUSH2 0xD04 SWAP2 SWAP1 PUSH2 0x1AC2 JUMP JUMPDEST SWAP1 POP PUSH2 0xD12 DUP8 CALLER DUP7 DUP5 PUSH2 0x14CE JUMP JUMPDEST POP JUMPDEST PUSH1 0x40 MLOAD PUSH4 0x70A08231 PUSH1 0xE0 SHL DUP2 MSTORE CALLER PUSH1 0x4 DUP3 ADD MSTORE DUP2 SWAP1 PUSH32 0x0 PUSH1 0x1 PUSH1 0x1 PUSH1 0xA0 SHL SUB AND SWAP1 PUSH4 0x70A08231 SWAP1 PUSH1 0x24 ADD PUSH1 0x20 PUSH1 0x40 MLOAD DUP1 DUP4 SUB DUP2 DUP7 GAS STATICCALL ISZERO DUP1 ISZERO PUSH2 0xD7A JUMPI RETURNDATASIZE PUSH1 0x0 DUP1 RETURNDATACOPY RETURNDATASIZE PUSH1 0x0 REVERT JUMPDEST POP POP POP POP PUSH1 0x40 MLOAD RETURNDATASIZE PUSH1 0x1F NOT PUSH1 0x1F DUP3 ADD AND DUP3 ADD DUP1 PUSH1 0x40 MSTORE POP DUP2 ADD SWAP1 PUSH2 0xD9E SWAP2 SWAP1 PUSH2 0x1AC2 JUMP JUMPDEST PUSH2 0xDA8 SWAP2 SWAP1 PUSH2 0x1AAF JUMP JUMPDEST SWAP7 POP DUP9 DUP8 LT ISZERO PUSH2 0xDFA JUMPI PUSH1 0x40 MLOAD PUSH3 0x461BCD PUSH1 0xE5 SHL DUP2 MSTORE PUSH1 0x20 PUSH1 0x4 DUP3 ADD MSTORE PUSH1 0x19 PUSH1 0x24 DUP3 ADD MSTORE PUSH32 0x696E73756666696369656E7420434E4320726563656976656400000000000000 PUSH1 0x44 DUP3 ADD MSTORE PUSH1 0x64 ADD PUSH2 0x6C4 JUMP JUMPDEST PUSH2 0xE0E PUSH1 0x1 PUSH1 0x1 PUSH1 0xA0 SHL SUB DUP6 AND CALLER DUP11 PUSH2 0x14F9 JUMP JUMPDEST POP POP POP POP POP POP SWAP5 POP SWAP5 SWAP3 POP POP POP JUMP JUMPDEST CALLER PUSH1 0x1 PUSH1 0x1 PUSH1 0xA0 SHL SUB PUSH32 0x0 AND EQ PUSH2 0xEAE JUMPI PUSH1 0x40 MLOAD PUSH3 0x461BCD PUSH1 0xE5 SHL DUP2 MSTORE PUSH1 0x20 PUSH1 0x4 DUP3 ADD MSTORE PUSH1 0x30 PUSH1 0x24 DUP3 ADD MSTORE PUSH32 0x6F6E6C7920656D657267656E6379206D696E7465722063616E2072656E6F756E PUSH1 0x44 DUP3 ADD MSTORE PUSH16 0x6365206D696E74657220726967687473 PUSH1 0x80 SHL PUSH1 0x64 DUP3 ADD MSTORE PUSH1 0x84 ADD PUSH2 0x6C4 JUMP JUMPDEST PUSH32 0x0 PUSH1 0x1 PUSH1 0x1 PUSH1 0xA0 SHL SUB AND PUSH4 0x70E9749A PUSH1 0x40 MLOAD DUP2 PUSH4 0xFFFFFFFF AND PUSH1 0xE0 SHL DUP2 MSTORE PUSH1 0x4 ADD PUSH1 0x0 PUSH1 0x40 MLOAD DUP1 DUP4 SUB DUP2 PUSH1 0x0 DUP8 DUP1 EXTCODESIZE ISZERO DUP1 ISZERO PUSH2 0xF09 JUMPI PUSH1 0x0 DUP1 REVERT JUMPDEST POP GAS CALL ISZERO DUP1 ISZERO PUSH2 0xF1D JUMPI RETURNDATASIZE PUSH1 0x0 DUP1 RETURNDATACOPY RETURNDATASIZE PUSH1 0x0 REVERT JUMPDEST POP POP POP POP JUMP JUMPDEST PUSH2 0xF2B PUSH2 0x12EF JUMP JUMPDEST PUSH2 0xF35 PUSH1 0x0 PUSH2 0x1529 JUMP JUMPDEST JUMP JUMPDEST PUSH2 0xF3F PUSH2 0x12EF JUMP JUMPDEST PUSH1 0x2 SLOAD PUSH2 0x100 SWAP1 DIV PUSH1 0xFF AND ISZERO DUP1 DUP1 ISZERO PUSH2 0xF5F JUMPI POP PUSH1 0x2 SLOAD PUSH1 0x1 PUSH1 0xFF SWAP1 SWAP2 AND LT JUMPDEST DUP1 PUSH2 0xF79 JUMPI POP ADDRESS EXTCODESIZE ISZERO DUP1 ISZERO PUSH2 0xF79 JUMPI POP PUSH1 0x2 SLOAD PUSH1 0xFF AND PUSH1 0x1 EQ JUMPDEST PUSH2 0xFDC JUMPI PUSH1 0x40 MLOAD PUSH3 0x461BCD PUSH1 0xE5 SHL DUP2 MSTORE PUSH1 0x20 PUSH1 0x4 DUP3 ADD MSTORE PUSH1 0x2E PUSH1 0x24 DUP3 ADD MSTORE PUSH32 0x496E697469616C697A61626C653A20636F6E747261637420697320616C726561 PUSH1 0x44 DUP3 ADD MSTORE PUSH14 0x191E481A5B9A5D1A585B1A5E9959 PUSH1 0x92 SHL PUSH1 0x64 DUP3 ADD MSTORE PUSH1 0x84 ADD PUSH2 0x6C4 JUMP JUMPDEST PUSH1 0x2 DUP1 SLOAD PUSH1 0xFF NOT AND PUSH1 0x1 OR SWAP1 SSTORE DUP1 ISZERO PUSH2 0xFFF JUMPI PUSH1 0x2 DUP1 SLOAD PUSH2 0xFF00 NOT AND PUSH2 0x100 OR SWAP1 SSTORE JUMPDEST PUSH32 0x0 PUSH1 0x1 PUSH1 0x1 PUSH1 0xA0 SHL SUB AND PUSH4 0xD7CFBDF3 PUSH1 0x40 MLOAD DUP2 PUSH4 0xFFFFFFFF AND PUSH1 0xE0 SHL DUP2 MSTORE PUSH1 0x4 ADD PUSH1 0x20 PUSH1 0x40 MLOAD DUP1 DUP4 SUB DUP2 DUP7 GAS STATICCALL ISZERO DUP1 ISZERO PUSH2 0x105D JUMPI RETURNDATASIZE PUSH1 0x0 DUP1 RETURNDATACOPY RETURNDATASIZE PUSH1 0x0 REVERT JUMPDEST POP POP POP POP PUSH1 0x40 MLOAD RETURNDATASIZE PUSH1 0x1F NOT PUSH1 0x1F DUP3 ADD AND DUP3 ADD DUP1 PUSH1 0x40 MSTORE POP DUP2 ADD SWAP1 PUSH2 0x1081 SWAP2 SWAP1 PUSH2 0x1AC2 JUMP JUMPDEST PUSH1 0x3 SSTORE DUP1 ISZERO PUSH2 0x10CB JUMPI PUSH1 0x2 DUP1 SLOAD PUSH2 0xFF00 NOT AND SWAP1 SSTORE PUSH1 0x40 MLOAD PUSH1 0x1 DUP2 MSTORE PUSH32 0x7F26B83FF96E1F2B6A682F133852F6798A09C465DA95921460CEFB3847402498 SWAP1 PUSH1 0x20 ADD JUMPDEST PUSH1 0x40 MLOAD DUP1 SWAP2 SUB SWAP1 LOG1 JUMPDEST POP JUMP JUMPDEST PUSH2 0x10D6 PUSH2 0x12EF JUMP JUMPDEST PUSH1 0x4 DUP2 SWAP1 SSTORE PUSH1 0x40 MLOAD DUP2 DUP2 MSTORE PUSH32 0x52E5EA693F3343BEF45800ECEC3DD0C08E360E7C6E3A589A8FA2E4EE226C8A12 SWAP1 PUSH1 0x20 ADD PUSH2 0x10C2 JUMP JUMPDEST PUSH2 0x1113 PUSH2 0x12EF JUMP JUMPDEST PUSH1 0x1 PUSH1 0x1 PUSH1 0xA0 SHL SUB DUP2 AND PUSH2 0x1178 JUMPI PUSH1 0x40 MLOAD PUSH3 0x461BCD PUSH1 0xE5 SHL DUP2 MSTORE PUSH1 0x20 PUSH1 0x4 DUP3 ADD MSTORE PUSH1 0x26 PUSH1 0x24 DUP3 ADD MSTORE PUSH32 0x4F776E61626C653A206E6577206F776E657220697320746865207A65726F2061 PUSH1 0x44 DUP3 ADD MSTORE PUSH6 0x646472657373 PUSH1 0xD0 SHL PUSH1 0x64 DUP3 ADD MSTORE PUSH1 0x84 ADD PUSH2 0x6C4 JUMP JUMPDEST PUSH2 0x10CB DUP2 PUSH2 0x1529 JUMP JUMPDEST PUSH32 0x0 PUSH1 0x1 PUSH1 0x1 PUSH1 0xA0 SHL SUB AND PUSH4 0xDBCD89FA PUSH1 0x40 MLOAD DUP2 PUSH4 0xFFFFFFFF AND PUSH1 0xE0 SHL DUP2 MSTORE PUSH1 0x4 ADD PUSH1 0x20 PUSH1 0x40 MLOAD DUP1 DUP4 SUB DUP2 DUP7 GAS STATICCALL ISZERO DUP1 ISZERO PUSH2 0x11DF JUMPI RETURNDATASIZE PUSH1 0x0 DUP1 RETURNDATACOPY RETURNDATASIZE PUSH1 0x0 REVERT JUMPDEST POP POP POP POP PUSH1 0x40 MLOAD RETURNDATASIZE PUSH1 0x1F NOT PUSH1 0x1F DUP3 ADD AND DUP3 ADD DUP1 PUSH1 0x40 MSTORE POP DUP2 ADD SWAP1 PUSH2 0x1203 SWAP2 SWAP1 PUSH2 0x1A59 JUMP JUMPDEST PUSH1 0x1 PUSH1 0x1 PUSH1 0xA0 SHL SUB AND CALLER PUSH1 0x1 PUSH1 0x1 PUSH1 0xA0 SHL SUB AND EQ PUSH2 0x1278 JUMPI PUSH1 0x40 MLOAD PUSH3 0x461BCD PUSH1 0xE5 SHL DUP2 MSTORE PUSH1 0x20 PUSH1 0x4 DUP3 ADD MSTORE PUSH1 0x2C PUSH1 0x24 DUP3 ADD MSTORE PUSH32 0x6F6E6C7920496E666C6174696F6E4D616E616765722063616E2063616C6C2074 PUSH1 0x44 DUP3 ADD MSTORE PUSH12 0x3434B990333AB731BA34B7B7 PUSH1 0xA1 SHL PUSH1 0x64 DUP3 ADD MSTORE PUSH1 0x84 ADD PUSH2 0x6C4 JUMP JUMPDEST PUSH2 0xF1D DUP5 DUP5 DUP5 DUP5 PUSH2 0x14CE JUMP JUMPDEST PUSH1 0x0 DUP2 PUSH1 0xFF AND DUP4 PUSH1 0xFF AND SUB PUSH2 0x129A JUMPI POP DUP3 PUSH2 0x4AC JUMP JUMPDEST DUP2 PUSH1 0xFF AND DUP4 PUSH1 0xFF AND GT ISZERO PUSH2 0x12BA JUMPI PUSH2 0x12B3 DUP5 DUP5 DUP5 PUSH2 0x1579 JUMP JUMPDEST SWAP1 POP PUSH2 0x4AC JUMP JUMPDEST PUSH2 0x12C5 DUP5 DUP5 DUP5 PUSH2 0x159A JUMP JUMPDEST SWAP5 SWAP4 POP POP POP POP JUMP JUMPDEST PUSH1 0x0 PUSH2 0x12DB PUSH1 0x12 PUSH1 0xA PUSH2 0x1D12 JUMP JUMPDEST PUSH2 0x12E5 DUP4 DUP6 PUSH2 0x1ADB JUMP JUMPDEST PUSH2 0x4AC SWAP2 SWAP1 PUSH2 0x1D1E JUMP JUMPDEST PUSH1 0x0 SLOAD PUSH1 0x1 PUSH1 0x1 PUSH1 0xA0 SHL SUB AND CALLER EQ PUSH2 0xF35 JUMPI PUSH1 0x40 MLOAD PUSH3 0x461BCD PUSH1 0xE5 SHL DUP2 MSTORE PUSH1 0x20 PUSH1 0x4 DUP3 ADD DUP2 SWAP1 MSTORE PUSH1 0x24 DUP3 ADD MSTORE PUSH32 0x4F776E61626C653A2063616C6C6572206973206E6F7420746865206F776E6572 PUSH1 0x44 DUP3 ADD MSTORE PUSH1 0x64 ADD PUSH2 0x6C4 JUMP JUMPDEST PUSH1 0x40 MLOAD PUSH1 0x1 PUSH1 0x1 PUSH1 0xA0 SHL SUB DUP1 DUP6 AND PUSH1 0x24 DUP4 ADD MSTORE DUP4 AND PUSH1 0x44 DUP3 ADD MSTORE PUSH1 0x64 DUP2 ADD DUP3 SWAP1 MSTORE PUSH2 0xF1D SWAP1 DUP6 SWAP1 PUSH4 0x23B872DD PUSH1 0xE0 SHL SWAP1 PUSH1 0x84 ADD JUMPDEST PUSH1 0x40 DUP1 MLOAD PUSH1 0x1F NOT DUP2 DUP5 SUB ADD DUP2 MSTORE SWAP2 SWAP1 MSTORE PUSH1 0x20 DUP2 ADD DUP1 MLOAD PUSH1 0x1 PUSH1 0x1 PUSH1 0xE0 SHL SUB AND PUSH1 0x1 PUSH1 0x1 PUSH1 0xE0 SHL SUB NOT SWAP1 SWAP4 AND SWAP3 SWAP1 SWAP3 OR SWAP1 SWAP2 MSTORE PUSH2 0x15BB JUMP JUMPDEST DUP1 ISZERO DUP1 PUSH2 0x142E JUMPI POP PUSH1 0x40 MLOAD PUSH4 0x6EB1769F PUSH1 0xE1 SHL DUP2 MSTORE ADDRESS PUSH1 0x4 DUP3 ADD MSTORE PUSH1 0x1 PUSH1 0x1 PUSH1 0xA0 SHL SUB DUP4 DUP2 AND PUSH1 0x24 DUP4 ADD MSTORE DUP5 AND SWAP1 PUSH4 0xDD62ED3E SWAP1 PUSH1 0x44 ADD PUSH1 0x20 PUSH1 0x40 MLOAD DUP1 DUP4 SUB DUP2 DUP7 GAS STATICCALL ISZERO DUP1 ISZERO PUSH2 0x1408 JUMPI RETURNDATASIZE PUSH1 0x0 DUP1 RETURNDATACOPY RETURNDATASIZE PUSH1 0x0 REVERT JUMPDEST POP POP POP POP PUSH1 0x40 MLOAD RETURNDATASIZE PUSH1 0x1F NOT PUSH1 0x1F DUP3 ADD AND DUP3 ADD DUP1 PUSH1 0x40 MSTORE POP DUP2 ADD SWAP1 PUSH2 0x142C SWAP2 SWAP1 PUSH2 0x1AC2 JUMP JUMPDEST ISZERO JUMPDEST PUSH2 0x1499 JUMPI PUSH1 0x40 MLOAD PUSH3 0x461BCD PUSH1 0xE5 SHL DUP2 MSTORE PUSH1 0x20 PUSH1 0x4 DUP3 ADD MSTORE PUSH1 0x36 PUSH1 0x24 DUP3 ADD MSTORE PUSH32 0x5361666545524332303A20617070726F76652066726F6D206E6F6E2D7A65726F PUSH1 0x44 DUP3 ADD MSTORE PUSH22 0x20746F206E6F6E2D7A65726F20616C6C6F77616E6365 PUSH1 0x50 SHL PUSH1 0x64 DUP3 ADD MSTORE PUSH1 0x84 ADD PUSH2 0x6C4 JUMP JUMPDEST PUSH1 0x40 MLOAD PUSH1 0x1 PUSH1 0x1 PUSH1 0xA0 SHL SUB DUP4 AND PUSH1 0x24 DUP3 ADD MSTORE PUSH1 0x44 DUP2 ADD DUP3 SWAP1 MSTORE PUSH2 0x14C9 SWAP1 DUP5 SWAP1 PUSH4 0x95EA7B3 PUSH1 0xE0 SHL SWAP1 PUSH1 0x64 ADD PUSH2 0x137D JUMP JUMPDEST POP POP POP JUMP JUMPDEST PUSH1 0x5 SLOAD PUSH1 0xFF AND PUSH2 0xF1D JUMPI PUSH1 0x0 PUSH2 0x14E5 DUP6 DUP5 DUP5 PUSH2 0x2FE JUMP JUMPDEST SWAP1 POP PUSH2 0x14F2 DUP6 DUP6 DUP4 PUSH2 0x168D JUMP JUMPDEST POP POP POP POP POP JUMP JUMPDEST PUSH1 0x40 MLOAD PUSH1 0x1 PUSH1 0x1 PUSH1 0xA0 SHL SUB DUP4 AND PUSH1 0x24 DUP3 ADD MSTORE PUSH1 0x44 DUP2 ADD DUP3 SWAP1 MSTORE PUSH2 0x14C9 SWAP1 DUP5 SWAP1 PUSH4 0xA9059CBB PUSH1 0xE0 SHL SWAP1 PUSH1 0x64 ADD PUSH2 0x137D JUMP JUMPDEST PUSH1 0x0 DUP1 SLOAD PUSH1 0x1 PUSH1 0x1 PUSH1 0xA0 SHL SUB DUP4 DUP2 AND PUSH1 0x1 PUSH1 0x1 PUSH1 0xA0 SHL SUB NOT DUP4 AND DUP2 OR DUP5 SSTORE PUSH1 0x40 MLOAD SWAP2 SWAP1 SWAP3 AND SWAP3 DUP4 SWAP2 PUSH32 0x8BE0079C531659141344CD1FD0A4F28419497F9722A3DAAFE3B4186F6B6457E0 SWAP2 SWAP1 LOG3 POP POP JUMP JUMPDEST PUSH1 0x0 PUSH2 0x1585 DUP3 DUP5 PUSH2 0x1D40 JUMP JUMPDEST PUSH2 0x1590 SWAP1 PUSH1 0xA PUSH2 0x1D59 JUMP JUMPDEST PUSH2 0x12C5 SWAP1 DUP6 PUSH2 0x1D1E JUMP JUMPDEST PUSH1 0x0 PUSH2 0x15A6 DUP4 DUP4 PUSH2 0x1D40 JUMP JUMPDEST PUSH2 0x15B1 SWAP1 PUSH1 0xA PUSH2 0x1D59 JUMP JUMPDEST PUSH2 0x12C5 SWAP1 DUP6 PUSH2 0x1ADB JUMP JUMPDEST PUSH1 0x0 PUSH2 0x1610 DUP3 PUSH1 0x40 MLOAD DUP1 PUSH1 0x40 ADD PUSH1 0x40 MSTORE DUP1 PUSH1 0x20 DUP2 MSTORE PUSH1 0x20 ADD PUSH32 0x5361666545524332303A206C6F772D6C6576656C2063616C6C206661696C6564 DUP2 MSTORE POP DUP6 PUSH1 0x1 PUSH1 0x1 PUSH1 0xA0 SHL SUB AND PUSH2 0x180B SWAP1 SWAP3 SWAP2 SWAP1 PUSH4 0xFFFFFFFF AND JUMP JUMPDEST DUP1 MLOAD SWAP1 SWAP2 POP ISZERO PUSH2 0x14C9 JUMPI DUP1 DUP1 PUSH1 0x20 ADD SWAP1 MLOAD DUP2 ADD SWAP1 PUSH2 0x162E SWAP2 SWAP1 PUSH2 0x1BF3 JUMP JUMPDEST PUSH2 0x14C9 JUMPI PUSH1 0x40 MLOAD PUSH3 0x461BCD PUSH1 0xE5 SHL DUP2 MSTORE PUSH1 0x20 PUSH1 0x4 DUP3 ADD MSTORE PUSH1 0x2A PUSH1 0x24 DUP3 ADD MSTORE PUSH32 0x5361666545524332303A204552433230206F7065726174696F6E20646964206E PUSH1 0x44 DUP3 ADD MSTORE PUSH10 0x1BDD081CDD58D8D95959 PUSH1 0xB2 SHL PUSH1 0x64 DUP3 ADD MSTORE PUSH1 0x84 ADD PUSH2 0x6C4 JUMP JUMPDEST PUSH11 0x1925734D5B8904B800000 DUP2 PUSH1 0x3 SLOAD PUSH2 0x16A7 SWAP2 SWAP1 PUSH2 0x1D68 JUMP JUMPDEST GT ISZERO PUSH2 0x16C8 JUMPI PUSH1 0x3 SLOAD PUSH2 0x16C5 SWAP1 PUSH11 0x1925734D5B8904B800000 PUSH2 0x1AAF JUMP JUMPDEST SWAP1 POP JUMPDEST DUP1 PUSH1 0x0 SUB PUSH2 0x16D5 JUMPI POP POP POP JUMP JUMPDEST PUSH1 0x40 MLOAD PUSH4 0x40C10F19 PUSH1 0xE0 SHL DUP2 MSTORE PUSH1 0x1 PUSH1 0x1 PUSH1 0xA0 SHL SUB DUP4 DUP2 AND PUSH1 0x4 DUP4 ADD MSTORE PUSH1 0x24 DUP3 ADD DUP4 SWAP1 MSTORE PUSH1 0x0 SWAP2 PUSH32 0x0 SWAP1 SWAP2 AND SWAP1 PUSH4 0x40C10F19 SWAP1 PUSH1 0x44 ADD PUSH1 0x20 PUSH1 0x40 MLOAD DUP1 DUP4 SUB DUP2 PUSH1 0x0 DUP8 GAS CALL ISZERO DUP1 ISZERO PUSH2 0x1749 JUMPI RETURNDATASIZE PUSH1 0x0 DUP1 RETURNDATACOPY RETURNDATASIZE PUSH1 0x0 REVERT JUMPDEST POP POP POP POP PUSH1 0x40 MLOAD RETURNDATASIZE PUSH1 0x1F NOT PUSH1 0x1F DUP3 ADD AND DUP3 ADD DUP1 PUSH1 0x40 MSTORE POP DUP2 ADD SWAP1 PUSH2 0x176D SWAP2 SWAP1 PUSH2 0x1AC2 JUMP JUMPDEST SWAP1 POP DUP1 ISZERO PUSH2 0xF1D JUMPI DUP1 PUSH1 0x3 PUSH1 0x0 DUP3 DUP3 SLOAD PUSH2 0x1787 SWAP2 SWAP1 PUSH2 0x1D68 JUMP JUMPDEST SWAP3 POP POP DUP2 SWAP1 SSTORE POP PUSH32 0x0 PUSH1 0x1 PUSH1 0x1 PUSH1 0xA0 SHL SUB AND DUP4 PUSH1 0x1 PUSH1 0x1 PUSH1 0xA0 SHL SUB AND DUP6 PUSH1 0x1 PUSH1 0x1 PUSH1 0xA0 SHL SUB AND PUSH32 0xC84EF7D7E740EEB018C01C28C59B82DEF5D19D93FB1C641A70E27665E16F282D DUP5 PUSH1 0x40 MLOAD PUSH2 0x17FD SWAP2 DUP2 MSTORE PUSH1 0x20 ADD SWAP1 JUMP JUMPDEST PUSH1 0x40 MLOAD DUP1 SWAP2 SUB SWAP1 LOG4 POP POP POP POP JUMP JUMPDEST PUSH1 0x60 PUSH2 0x12C5 DUP5 DUP5 PUSH1 0x0 DUP6 DUP6 PUSH1 0x0 DUP1 DUP7 PUSH1 0x1 PUSH1 0x1 PUSH1 0xA0 SHL SUB AND DUP6 DUP8 PUSH1 0x40 MLOAD PUSH2 0x1832 SWAP2 SWAP1 PUSH2 0x1D9F JUMP JUMPDEST PUSH1 0x0 PUSH1 0x40 MLOAD DUP1 DUP4 SUB DUP2 DUP6 DUP8 GAS CALL SWAP3 POP POP POP RETURNDATASIZE DUP1 PUSH1 0x0 DUP2 EQ PUSH2 0x186F JUMPI PUSH1 0x40 MLOAD SWAP2 POP PUSH1 0x1F NOT PUSH1 0x3F RETURNDATASIZE ADD AND DUP3 ADD PUSH1 0x40 MSTORE RETURNDATASIZE DUP3 MSTORE RETURNDATASIZE PUSH1 0x0 PUSH1 0x20 DUP5 ADD RETURNDATACOPY PUSH2 0x1874 JUMP JUMPDEST PUSH1 0x60 SWAP2 POP JUMPDEST POP SWAP2 POP SWAP2 POP PUSH2 0x1885 DUP8 DUP4 DUP4 DUP8 PUSH2 0x1890 JUMP JUMPDEST SWAP8 SWAP7 POP POP POP POP POP POP POP JUMP JUMPDEST PUSH1 0x60 DUP4 ISZERO PUSH2 0x18FF JUMPI DUP3 MLOAD PUSH1 0x0 SUB PUSH2 0x18F8 JUMPI PUSH1 0x1 PUSH1 0x1 PUSH1 0xA0 SHL SUB DUP6 AND EXTCODESIZE PUSH2 0x18F8 JUMPI PUSH1 0x40 MLOAD PUSH3 0x461BCD PUSH1 0xE5 SHL DUP2 MSTORE PUSH1 0x20 PUSH1 0x4 DUP3 ADD MSTORE PUSH1 0x1D PUSH1 0x24 DUP3 ADD MSTORE PUSH32 0x416464726573733A2063616C6C20746F206E6F6E2D636F6E7472616374000000 PUSH1 0x44 DUP3 ADD MSTORE PUSH1 0x64 ADD PUSH2 0x6C4 JUMP JUMPDEST POP DUP2 PUSH2 0x12C5 JUMP JUMPDEST PUSH2 0x12C5 DUP4 DUP4 DUP2 MLOAD ISZERO PUSH2 0x1914 JUMPI DUP2 MLOAD DUP1 DUP4 PUSH1 0x20 ADD REVERT JUMPDEST DUP1 PUSH1 0x40 MLOAD PUSH3 0x461BCD PUSH1 0xE5 SHL DUP2 MSTORE PUSH1 0x4 ADD PUSH2 0x6C4 SWAP2 SWAP1 PUSH2 0x1DBB JUMP JUMPDEST PUSH1 0x0 PUSH1 0x20 DUP3 DUP5 SUB SLT ISZERO PUSH2 0x1940 JUMPI PUSH1 0x0 DUP1 REVERT JUMPDEST DUP2 CALLDATALOAD PUSH1 0x1 PUSH1 0x1 PUSH1 0xE0 SHL SUB NOT DUP2 AND DUP2 EQ PUSH2 0x4AC JUMPI PUSH1 0x0 DUP1 REVERT JUMPDEST PUSH1 0x1 PUSH1 0x1 PUSH1 0xA0 SHL SUB DUP2 AND DUP2 EQ PUSH2 0x10CB JUMPI PUSH1 0x0 DUP1 REVERT JUMPDEST PUSH1 0x0 DUP1 PUSH1 0x0 PUSH1 0x60 DUP5 DUP7 SUB SLT ISZERO PUSH2 0x1982 JUMPI PUSH1 0x0 DUP1 REVERT JUMPDEST DUP4 CALLDATALOAD PUSH2 0x198D DUP2 PUSH2 0x1958 JUMP JUMPDEST SWAP6 PUSH1 0x20 DUP6 ADD CALLDATALOAD SWAP6 POP PUSH1 0x40 SWAP1 SWAP5 ADD CALLDATALOAD SWAP4 SWAP3 POP POP POP JUMP JUMPDEST PUSH1 0x0 PUSH1 0x20 DUP3 DUP5 SUB SLT ISZERO PUSH2 0x19B4 JUMPI PUSH1 0x0 DUP1 REVERT JUMPDEST DUP2 CALLDATALOAD PUSH2 0x4AC DUP2 PUSH2 0x1958 JUMP JUMPDEST PUSH1 0x0 DUP1 PUSH1 0x0 DUP1 PUSH1 0x80 DUP6 DUP8 SUB SLT ISZERO PUSH2 0x19D5 JUMPI PUSH1 0x0 DUP1 REVERT JUMPDEST DUP5 CALLDATALOAD PUSH2 0x19E0 DUP2 PUSH2 0x1958 JUMP JUMPDEST SWAP7 PUSH1 0x20 DUP7 ADD CALLDATALOAD SWAP7 POP PUSH1 0x40 DUP7 ADD CALLDATALOAD SWAP6 PUSH1 0x60 ADD CALLDATALOAD SWAP5 POP SWAP3 POP POP POP JUMP JUMPDEST PUSH1 0x0 PUSH1 0x20 DUP3 DUP5 SUB SLT ISZERO PUSH2 0x1A0C JUMPI PUSH1 0x0 DUP1 REVERT JUMPDEST POP CALLDATALOAD SWAP2 SWAP1 POP JUMP JUMPDEST PUSH1 0x0 DUP1 PUSH1 0x0 DUP1 PUSH1 0x80 DUP6 DUP8 SUB SLT ISZERO PUSH2 0x1A29 JUMPI PUSH1 0x0 DUP1 REVERT JUMPDEST DUP5 CALLDATALOAD PUSH2 0x1A34 DUP2 PUSH2 0x1958 JUMP JUMPDEST SWAP4 POP PUSH1 0x20 DUP6 ADD CALLDATALOAD PUSH2 0x1A44 DUP2 PUSH2 0x1958 JUMP JUMPDEST SWAP4 SWAP7 SWAP4 SWAP6 POP POP POP POP PUSH1 0x40 DUP3 ADD CALLDATALOAD SWAP2 PUSH1 0x60 ADD CALLDATALOAD SWAP1 JUMP JUMPDEST PUSH1 0x0 PUSH1 0x20 DUP3 DUP5 SUB SLT ISZERO PUSH2 0x1A6B JUMPI PUSH1 0x0 DUP1 REVERT JUMPDEST DUP2 MLOAD PUSH2 0x4AC DUP2 PUSH2 0x1958 JUMP JUMPDEST PUSH1 0x0 PUSH1 0x20 DUP3 DUP5 SUB SLT ISZERO PUSH2 0x1A88 JUMPI PUSH1 0x0 DUP1 REVERT JUMPDEST DUP2 MLOAD PUSH1 0xFF DUP2 AND DUP2 EQ PUSH2 0x4AC JUMPI PUSH1 0x0 DUP1 REVERT JUMPDEST PUSH4 0x4E487B71 PUSH1 0xE0 SHL PUSH1 0x0 MSTORE PUSH1 0x11 PUSH1 0x4 MSTORE PUSH1 0x24 PUSH1 0x0 REVERT JUMPDEST DUP2 DUP2 SUB DUP2 DUP2 GT ISZERO PUSH2 0x2F8 JUMPI PUSH2 0x2F8 PUSH2 0x1A99 JUMP JUMPDEST PUSH1 0x0 PUSH1 0x20 DUP3 DUP5 SUB SLT ISZERO PUSH2 0x1AD4 JUMPI PUSH1 0x0 DUP1 REVERT JUMPDEST POP MLOAD SWAP2 SWAP1 POP JUMP JUMPDEST DUP1 DUP3 MUL DUP2 ISZERO DUP3 DUP3 DIV DUP5 EQ OR PUSH2 0x2F8 JUMPI PUSH2 0x2F8 PUSH2 0x1A99 JUMP JUMPDEST PUSH4 0x4E487B71 PUSH1 0xE0 SHL PUSH1 0x0 MSTORE PUSH1 0x41 PUSH1 0x4 MSTORE PUSH1 0x24 PUSH1 0x0 REVERT JUMPDEST DUP1 MLOAD PUSH2 0x1B13 DUP2 PUSH2 0x1958 JUMP JUMPDEST SWAP2 SWAP1 POP JUMP JUMPDEST PUSH1 0x0 PUSH1 0x20 DUP1 DUP4 DUP6 SUB SLT ISZERO PUSH2 0x1B2B JUMPI PUSH1 0x0 DUP1 REVERT JUMPDEST DUP3 MLOAD PUSH8 0xFFFFFFFFFFFFFFFF DUP1 DUP3 GT ISZERO PUSH2 0x1B43 JUMPI PUSH1 0x0 DUP1 REVERT JUMPDEST DUP2 DUP6 ADD SWAP2 POP DUP6 PUSH1 0x1F DUP4 ADD SLT PUSH2 0x1B57 JUMPI PUSH1 0x0 DUP1 REVERT JUMPDEST DUP2 MLOAD DUP2 DUP2 GT ISZERO PUSH2 0x1B69 JUMPI PUSH2 0x1B69 PUSH2 0x1AF2 JUMP JUMPDEST DUP1 PUSH1 0x5 SHL PUSH1 0x40 MLOAD PUSH1 0x1F NOT PUSH1 0x3F DUP4 ADD AND DUP2 ADD DUP2 DUP2 LT DUP6 DUP3 GT OR ISZERO PUSH2 0x1B8E JUMPI PUSH2 0x1B8E PUSH2 0x1AF2 JUMP JUMPDEST PUSH1 0x40 MSTORE SWAP2 DUP3 MSTORE DUP5 DUP3 ADD SWAP3 POP DUP4 DUP2 ADD DUP6 ADD SWAP2 DUP9 DUP4 GT ISZERO PUSH2 0x1BAC JUMPI PUSH1 0x0 DUP1 REVERT JUMPDEST SWAP4 DUP6 ADD SWAP4 JUMPDEST DUP3 DUP6 LT ISZERO PUSH2 0x1BD1 JUMPI PUSH2 0x1BC2 DUP6 PUSH2 0x1B08 JUMP JUMPDEST DUP5 MSTORE SWAP4 DUP6 ADD SWAP4 SWAP3 DUP6 ADD SWAP3 PUSH2 0x1BB1 JUMP JUMPDEST SWAP9 SWAP8 POP POP POP POP POP POP POP POP JUMP JUMPDEST PUSH4 0x4E487B71 PUSH1 0xE0 SHL PUSH1 0x0 MSTORE PUSH1 0x32 PUSH1 0x4 MSTORE PUSH1 0x24 PUSH1 0x0 REVERT JUMPDEST PUSH1 0x0 PUSH1 0x20 DUP3 DUP5 SUB SLT ISZERO PUSH2 0x1C05 JUMPI PUSH1 0x0 DUP1 REVERT JUMPDEST DUP2 MLOAD DUP1 ISZERO ISZERO DUP2 EQ PUSH2 0x4AC JUMPI PUSH1 0x0 DUP1 REVERT JUMPDEST PUSH1 0x0 PUSH1 0x1 DUP3 ADD PUSH2 0x1C27 JUMPI PUSH2 0x1C27 PUSH2 0x1A99 JUMP JUMPDEST POP PUSH1 0x1 ADD SWAP1 JUMP JUMPDEST PUSH1 0x1 DUP2 DUP2 JUMPDEST DUP1 DUP6 GT ISZERO PUSH2 0x1C69 JUMPI DUP2 PUSH1 0x0 NOT DIV DUP3 GT ISZERO PUSH2 0x1C4F JUMPI PUSH2 0x1C4F PUSH2 0x1A99 JUMP JUMPDEST DUP1 DUP6 AND ISZERO PUSH2 0x1C5C JUMPI SWAP2 DUP2 MUL SWAP2 JUMPDEST SWAP4 DUP5 SHR SWAP4 SWAP1 DUP1 MUL SWAP1 PUSH2 0x1C33 JUMP JUMPDEST POP SWAP3 POP SWAP3 SWAP1 POP JUMP JUMPDEST PUSH1 0x0 DUP3 PUSH2 0x1C80 JUMPI POP PUSH1 0x1 PUSH2 0x2F8 JUMP JUMPDEST DUP2 PUSH2 0x1C8D JUMPI POP PUSH1 0x0 PUSH2 0x2F8 JUMP JUMPDEST DUP2 PUSH1 0x1 DUP2 EQ PUSH2 0x1CA3 JUMPI PUSH1 0x2 DUP2 EQ PUSH2 0x1CAD JUMPI PUSH2 0x1CC9 JUMP JUMPDEST PUSH1 0x1 SWAP2 POP POP PUSH2 0x2F8 JUMP JUMPDEST PUSH1 0xFF DUP5 GT ISZERO PUSH2 0x1CBE JUMPI PUSH2 0x1CBE PUSH2 0x1A99 JUMP JUMPDEST POP POP PUSH1 0x1 DUP3 SHL PUSH2 0x2F8 JUMP JUMPDEST POP PUSH1 0x20 DUP4 LT PUSH2 0x133 DUP4 LT AND PUSH1 0x4E DUP5 LT PUSH1 0xB DUP5 LT AND OR ISZERO PUSH2 0x1CEC JUMPI POP DUP2 DUP2 EXP PUSH2 0x2F8 JUMP JUMPDEST PUSH2 0x1CF6 DUP4 DUP4 PUSH2 0x1C2E JUMP JUMPDEST DUP1 PUSH1 0x0 NOT DIV DUP3 GT ISZERO PUSH2 0x1D0A JUMPI PUSH2 0x1D0A PUSH2 0x1A99 JUMP JUMPDEST MUL SWAP4 SWAP3 POP POP POP JUMP JUMPDEST PUSH1 0x0 PUSH2 0x4AC DUP4 DUP4 PUSH2 0x1C71 JUMP JUMPDEST PUSH1 0x0 DUP3 PUSH2 0x1D3B JUMPI PUSH4 0x4E487B71 PUSH1 0xE0 SHL PUSH1 0x0 MSTORE PUSH1 0x12 PUSH1 0x4 MSTORE PUSH1 0x24 PUSH1 0x0 REVERT JUMPDEST POP DIV SWAP1 JUMP JUMPDEST PUSH1 0xFF DUP3 DUP2 AND DUP3 DUP3 AND SUB SWAP1 DUP2 GT ISZERO PUSH2 0x2F8 JUMPI PUSH2 0x2F8 PUSH2 0x1A99 JUMP JUMPDEST PUSH1 0x0 PUSH2 0x4AC PUSH1 0xFF DUP5 AND DUP4 PUSH2 0x1C71 JUMP JUMPDEST DUP1 DUP3 ADD DUP1 DUP3 GT ISZERO PUSH2 0x2F8 JUMPI PUSH2 0x2F8 PUSH2 0x1A99 JUMP JUMPDEST PUSH1 0x0 JUMPDEST DUP4 DUP2 LT ISZERO PUSH2 0x1D96 JUMPI DUP2 DUP2 ADD MLOAD DUP4 DUP3 ADD MSTORE PUSH1 0x20 ADD PUSH2 0x1D7E JUMP JUMPDEST POP POP PUSH1 0x0 SWAP2 ADD MSTORE JUMP JUMPDEST PUSH1 0x0 DUP3 MLOAD PUSH2 0x1DB1 DUP2 DUP5 PUSH1 0x20 DUP8 ADD PUSH2 0x1D7B JUMP JUMPDEST SWAP2 SWAP1 SWAP2 ADD SWAP3 SWAP2 POP POP JUMP JUMPDEST PUSH1 0x20 DUP2 MSTORE PUSH1 0x0 DUP3 MLOAD DUP1 PUSH1 0x20 DUP5 ADD MSTORE PUSH2 0x1DDA DUP2 PUSH1 0x40 DUP6 ADD PUSH1 0x20 DUP8 ADD PUSH2 0x1D7B JUMP JUMPDEST PUSH1 0x1F ADD PUSH1 0x1F NOT AND SWAP2 SWAP1 SWAP2 ADD PUSH1 0x40 ADD SWAP3 SWAP2 POP POP JUMP INVALID LOG2 PUSH5 0x6970667358 0x22 SLT KECCAK256 SDIV 0xCD NUMBER 0xAC 0xCD 0xAF 0xED 0xE 0xA6 PUSH20 0x1C47D3834EDCE2CD2A85819AEDB0B059BCAF6240 SLT 0x2F PUSH5 0x736F6C6343 STOP ADDMOD GT STOP CALLER ","sha1":"71575c4909a42c18ea085cc4da676a8d933bd8c7","source":"// SPDX-License-Identifier: GPL-3.0-or-later\npragma solidity 0.8.17;\n\nimport \"@openzeppelin/contracts/access/Ownable.sol\";\n\nimport \"@openzeppelin/contracts/proxy/utils/Initializable.sol\";\nimport \"@openzeppelin/contracts/utils/structs/EnumerableSet.sol\";\nimport \"@openzeppelin/contracts/token/ERC20/IERC20.sol\";\nimport \"@openzeppelin/contracts/token/ERC20/utils/SafeERC20.sol\";\nimport \"@openzeppelin/contracts/token/ERC20/utils/SafeERC20.sol\";\n\nimport \"../../interfaces/tokenomics/ICNCMintingRebalancingRewardsHandlerV2.sol\";\nimport \"../../interfaces/tokenomics/ICNCMintingRebalancingRewardsHandler.sol\";\nimport \"../../interfaces/tokenomics/IInflationManager.sol\";\nimport \"../../interfaces/tokenomics/ICNCToken.sol\";\nimport \"../../interfaces/pools/IConicPool.sol\";\nimport \"../../libraries/ScaledMath.sol\";\nimport \"./BaseMinter.sol\";\n\ncontract CNCMintingRebalancingRewardsHandlerV3 is\n    ICNCMintingRebalancingRewardsHandlerV2,\n    Ownable,\n    BaseMinter,\n    Initializable\n{\n    using SafeERC20 for IERC20;\n    using ScaledMath for uint256;\n    using EnumerableSet for EnumerableSet.AddressSet;\n\n    /// @dev the maximum amount of CNC that can be minted for rebalancing rewards\n    uint256 internal constant _MAX_REBALANCING_REWARDS = 1_900_000e18; // 19% of total supply\n\n    /// @dev gives out 5 dollars per 1 hour (assuming 1 CNC = 6 USD) for every 10,000 USD in TVL that needs to be shifted\n    uint256 internal constant _INITIAL_REBALANCING_REWARD_PER_DOLLAR_PER_SECOND =\n        5e18 / uint256(3600 * 1 * 10_000 * 6);\n\n    IController public immutable override controller;\n\n    ICNCMintingRebalancingRewardsHandler public immutable previousRewardsHandler;\n    uint256 public override totalCncMinted;\n    uint256 public override cncRebalancingRewardPerDollarPerSecond;\n\n    bool internal _isInternal;\n\n    modifier onlyInflationManager() {\n        require(\n            msg.sender == address(controller.inflationManager()),\n            \"only InflationManager can call this function\"\n        );\n        _;\n    }\n\n    /// NOTE: we do not use the `emergencyMinter` anymore so we pass in address(0) as the emergency minter\n    /// to disable the usage of `renounceMinterRights`\n    /// From V3, we can remove the dependency on `BaseMinter` altogether but for now we need it\n    /// to be able to call `EmergencyMinter.switchRebalancingRewardsHandler`\n    constructor(\n        IController _controller,\n        ICNCToken _cnc,\n        ICNCMintingRebalancingRewardsHandler _previousRewardsHandler\n    ) BaseMinter(_cnc, address(0)) {\n        cncRebalancingRewardPerDollarPerSecond = _INITIAL_REBALANCING_REWARD_PER_DOLLAR_PER_SECOND;\n        controller = _controller;\n        previousRewardsHandler = _previousRewardsHandler;\n    }\n\n    function initialize() external onlyOwner initializer {\n        totalCncMinted = previousRewardsHandler.totalCncMinted();\n    }\n\n    function setCncRebalancingRewardPerDollarPerSecond(\n        uint256 _cncRebalancingRewardPerDollarPerSecond\n    ) external override onlyOwner {\n        cncRebalancingRewardPerDollarPerSecond = _cncRebalancingRewardPerDollarPerSecond;\n        emit SetCncRebalancingRewardPerDollarPerSecond(_cncRebalancingRewardPerDollarPerSecond);\n    }\n\n    function _distributeRebalancingRewards(address pool, address account, uint256 amount) internal {\n        if (totalCncMinted + amount > _MAX_REBALANCING_REWARDS) {\n            amount = _MAX_REBALANCING_REWARDS - totalCncMinted;\n        }\n        if (amount == 0) return;\n        uint256 mintedAmount = cnc.mint(account, amount);\n        if (mintedAmount > 0) {\n            totalCncMinted += mintedAmount;\n            emit RebalancingRewardDistributed(pool, account, address(cnc), mintedAmount);\n        }\n    }\n\n    function handleRebalancingRewards(\n        IConicPool conicPool,\n        address account,\n        uint256 deviationBefore,\n        uint256 deviationAfter\n    ) external onlyInflationManager {\n        _handleRebalancingRewards(conicPool, account, deviationBefore, deviationAfter);\n    }\n\n    function _handleRebalancingRewards(\n        IConicPool conicPool,\n        address account,\n        uint256 deviationBefore,\n        uint256 deviationAfter\n    ) internal {\n        if (_isInternal) return;\n        uint256 cncRewardAmount = computeRebalancingRewards(\n            address(conicPool),\n            deviationBefore,\n            deviationAfter\n        );\n        _distributeRebalancingRewards(address(conicPool), account, cncRewardAmount);\n    }\n\n    /// @dev this computes how much CNC a user should get when depositing\n    /// this does not check whether the rewards should still be distributed\n    /// amount CNC = t * CNC/s * (1 - (Δdeviation / initialDeviation))\n    /// where\n    /// CNC/s: the amount of CNC per second to distributed for rebalancing\n    /// t: the time elapsed since the weight update\n    /// Δdeviation: the deviation difference caused by this deposit\n    /// initialDeviation: the deviation after updating weights\n    /// @return the amount of CNC to give to the user as reward\n    function computeRebalancingRewards(\n        address conicPool,\n        uint256 deviationBefore,\n        uint256 deviationAfter\n    ) public view override returns (uint256) {\n        if (deviationBefore < deviationAfter) return 0;\n        uint8 decimals = IConicPool(conicPool).underlying().decimals();\n        uint256 deviationDelta = deviationBefore - deviationAfter;\n        uint256 lastWeightUpdate = controller.lastWeightUpdate(conicPool);\n        uint256 elapsedSinceUpdate = uint256(block.timestamp) - lastWeightUpdate;\n        return\n            (elapsedSinceUpdate * cncRebalancingRewardPerDollarPerSecond).mulDown(\n                deviationDelta.convertScale(decimals, 18)\n            );\n    }\n\n    function rebalance(\n        address conicPool,\n        uint256 underlyingAmount,\n        uint256 minUnderlyingReceived,\n        uint256 minCNCReceived\n    ) external override returns (uint256 underlyingReceived, uint256 cncReceived) {\n        require(controller.isPool(conicPool), \"not a pool\");\n        IConicPool conicPool_ = IConicPool(conicPool);\n        bool rebalancingRewardActive = conicPool_.rebalancingRewardActive();\n        IERC20 underlying = conicPool_.underlying();\n        require(underlying.balanceOf(msg.sender) >= underlyingAmount, \"insufficient underlying\");\n        uint256 deviationBefore = conicPool_.computeTotalDeviation();\n        underlying.safeTransferFrom(msg.sender, address(this), underlyingAmount);\n        underlying.safeApprove(conicPool, underlyingAmount);\n        _isInternal = true;\n        uint256 lpTokenAmount = conicPool_.deposit(underlyingAmount, 0, false);\n        _isInternal = false;\n        underlyingReceived = conicPool_.withdraw(lpTokenAmount, 0);\n        require(underlyingReceived >= minUnderlyingReceived, \"insufficient underlying received\");\n        uint256 cncBefore = cnc.balanceOf(msg.sender);\n\n        // Only distribute rebalancing rewards if active\n        if (rebalancingRewardActive) {\n            uint256 deviationAfter = conicPool_.computeTotalDeviation();\n            _handleRebalancingRewards(conicPool_, msg.sender, deviationBefore, deviationAfter);\n        }\n\n        cncReceived = cnc.balanceOf(msg.sender) - cncBefore;\n        require(cncReceived >= minCNCReceived, \"insufficient CNC received\");\n        underlying.safeTransfer(msg.sender, underlyingReceived);\n    }\n\n    /// @notice switches the minting rebalancing reward handler by granting the new one minting rights\n    /// and renouncing his own\n    /// `InflationManager.removePoolRebalancingRewardHandler` should be called on every pool before this is called\n    /// this should typically be done as a single batched governance action\n    /// The same governance action should also call `InflationManager.addPoolRebalancingRewardHandler` for each pool\n    /// passing in `newRebalancingRewardsHandler` so that the whole operation is atomic\n    /// @param newRebalancingRewardsHandler the address of the new rebalancing rewards handler\n    function switchMintingRebalancingRewardsHandler(\n        address newRebalancingRewardsHandler\n    ) external onlyOwner {\n        address[] memory pools = controller.listPools();\n        for (uint256 i; i < pools.length; i++) {\n            require(\n                !controller.inflationManager().hasPoolRebalancingRewardHandlers(\n                    pools[i],\n                    address(this)\n                ),\n                \"handler is still registered for a pool\"\n            );\n        }\n        cnc.addMinter(newRebalancingRewardsHandler);\n        cnc.renounceMinterRights();\n    }\n}\n","sourcePath":"contracts/tokenomics/CNCMintingRebalancingRewardsHandlerV3.sol","type":"contract","deployment":{"address":"0x675b1beB7511b68bcf75B856BC84a1cD759f821B","chainid":"1","blockHeight":17735126}}