{"abi":[{"anonymous":false,"inputs":[{"indexed":true,"internalType":"address","name":"token","type":"address"},{"indexed":false,"internalType":"address","name":"feed","type":"address"},{"indexed":false,"internalType":"uint256","name":"maxDelay","type":"uint256"},{"indexed":false,"internalType":"bool","name":"isEthPrice","type":"bool"}],"name":"TokenUpdated","type":"event"},{"inputs":[{"internalType":"address","name":"token","type":"address"}],"name":"getUSDPrice","outputs":[{"internalType":"uint256","name":"","type":"uint256"}],"stateMutability":"view","type":"function"},{"inputs":[{"internalType":"address","name":"token","type":"address"}],"name":"isTokenSupported","outputs":[{"internalType":"bool","name":"","type":"bool"}],"stateMutability":"view","type":"function"}],"bytecode":"608060405234801561001057600080fd5b50610974806100206000396000f3fe608060405234801561001057600080fd5b50600436106100365760003560e01c806375151b631461003b5780638b2f0f4f14610063575b600080fd5b61004e6100493660046105ed565b610084565b60405190151581526020015b60405180910390f35b6100766100713660046105ed565b61022a565b60405190815260200161005a565b60006001600160a01b03821661009c57506001919050565b60405163d2edb6dd60e01b81526001600160a01b038316600482015273eeeeeeeeeeeeeeeeeeeeeeeeeeeeeeeeeeeeeeee60248201527347fb2585d2c56fe188d0e6ec628a38b74fceeedf9063d2edb6dd90604401602060405180830381865afa92505050801561012a575060408051601f3d908101601f191682019092526101279181019061060a565b60015b61021c57610136610627565b806308c379a003610206575061014a61067e565b806101555750610208565b60405163d2edb6dd60e01b81526001600160a01b038416600482015261034860248201527347fb2585d2c56fe188d0e6ec628a38b74fceeedf9063d2edb6dd90604401602060405180830381865afa9250505080156101d1575060408051601f3d908101601f191682019092526101ce9181019061060a565b60015b610212576101dd610627565b806308c379a00361020657506101f161067e565b806101fc5750610208565b5060009392505050565b505b3d6000803e3d6000fd5b5060019392505050565b50600192915050565b919050565b600061023a826103486000610240565b92915050565b60006001600160a01b0384166102685773eeeeeeeeeeeeeeeeeeeeeeeeeeeeeeeeeeeeeeee93505b60405163bcfd032d60e01b81526001600160a01b038086166004830152841660248201527347fb2585d2c56fe188d0e6ec628a38b74fceeedf9063bcfd032d9060440160a060405180830381865afa9250505080156102e4575060408051601f3d908101601f191682019092526102e191810190610722565b60015b6103f4576102f0610627565b806308c379a003610206575061030461067e565b8061030f5750610208565b8215610338578060405162461bcd60e51b815260040161032f9190610772565b60405180910390fd5b610347196001600160a01b038516016103b257670de0b6b3a764000061037673eeeeeeeeeeeeeeeeeeeeeeeeeeeeeeeeeeeeeeee6103486001610240565b6103968773eeeeeeeeeeeeeeeeeeeeeeeeeeeeeeeeeeeeeeee6001610240565b6103a091906107d6565b6103aa91906107ed565b915050610567565b6103d473eeeeeeeeeeeeeeeeeeeeeeeeeeeeeeeeeeeeeeee6103486001610240565b6103e2866103486001610240565b6103a090670de0b6b3a76400006107d6565b816000036104395760405162461bcd60e51b8152602060048201526012602482015271726f756e64206e6f7420636f6d706c65746560701b604482015260640161032f565b8360000361047a5760405162461bcd60e51b815260206004820152600e60248201526d6e6567617469766520707269636560901b604482015260640161032f565b8469ffffffffffffffffffff168169ffffffffffffffffffff1610156104d05760405162461bcd60e51b815260206004820152600b60248201526a7374616c6520707269636560a81b604482015260640161032f565b604051630b1c5a7560e31b81526001600160a01b03808b1660048301528916602482015261055f9085907347fb2585d2c56fe188d0e6ec628a38b74fceeedf906358e2d3a890604401602060405180830381865afa158015610536573d6000803e3d6000fd5b505050506040513d601f19601f8201168201806040525081019061055a919061080f565b61056e565b955050505050505b9392505050565b60008160ff1660120361058257508161023a565b60128260ff1611156105b557610599601283610832565b6105a490600a61092f565b6105ae90846107ed565b905061023a565b6105c0826012610832565b6105cb90600a61092f565b6105ae90846107d6565b6001600160a01b03811681146105ea57600080fd5b50565b6000602082840312156105ff57600080fd5b8135610567816105d5565b60006020828403121561061c57600080fd5b8151610567816105d5565b600060033d11156106405760046000803e5060005160e01c5b90565b601f8201601f1916810167ffffffffffffffff8111828210171561067757634e487b7160e01b600052604160045260246000fd5b6040525050565b600060443d101561068c5790565b6040516003193d81016004833e81513d67ffffffffffffffff81602484011181841117156106bc57505050505090565b82850191508151818111156106d45750505050505090565b843d87010160208285010111156106ee5750505050505090565b6106fd60208286010187610643565b509095945050505050565b805169ffffffffffffffffffff8116811461022557600080fd5b600080600080600060a0868803121561073a57600080fd5b61074386610708565b945060208601519350604086015192506060860151915061076660808701610708565b90509295509295909350565b600060208083528351808285015260005b8181101561079f57858101830151858201604001528201610783565b506000604082860101526040601f19601f8301168501019250505092915050565b634e487b7160e01b600052601160045260246000fd5b808202811582820484141761023a5761023a6107c0565b60008261080a57634e487b7160e01b600052601260045260246000fd5b500490565b60006020828403121561082157600080fd5b815160ff8116811461056757600080fd5b60ff828116828216039081111561023a5761023a6107c0565b600181815b8085111561088657816000190482111561086c5761086c6107c0565b8085161561087957918102915b93841c9390800290610850565b509250929050565b60008261089d5750600161023a565b816108aa5750600061023a565b81600181146108c057600281146108ca576108e6565b600191505061023a565b60ff8411156108db576108db6107c0565b50506001821b61023a565b5060208310610133831016604e8410600b8410161715610909575081810a61023a565b610913838361084b565b8060001904821115610927576109276107c0565b029392505050565b600061056760ff84168361088e56fea264697066735822122007ac5f8b7c5663c5e9b2f1c1a0212e1d74c90432664b06b40992a3b5280199a464736f6c63430008110033","bytecodeSha1":"fd30e198a01939f23a1c6fe6bbc4859bc524dbac","compiler":{"evm_version":"istanbul","optimizer":{"enabled":true,"runs":200},"version":"0.8.17+commit.8df45f5f"},"contractName":"ChainlinkOracle","language":"Solidity","natspec":{"kind":"dev","methods":{"getUSDPrice(address)":{"notice":"returns the price in USD of symbol."},"isTokenSupported(address)":{"notice":"returns if the given token is supported for pricing."}},"version":1},"opcodes":"PUSH1 0x80 PUSH1 0x40 MSTORE CALLVALUE DUP1 ISZERO PUSH2 0x10 JUMPI PUSH1 0x0 DUP1 REVERT JUMPDEST POP PUSH1 0x4 CALLDATASIZE LT PUSH2 0x36 JUMPI PUSH1 0x0 CALLDATALOAD PUSH1 0xE0 SHR DUP1 PUSH4 0x75151B63 EQ PUSH2 0x3B JUMPI DUP1 PUSH4 0x8B2F0F4F EQ PUSH2 0x63 JUMPI JUMPDEST PUSH1 0x0 DUP1 REVERT JUMPDEST PUSH2 0x4E PUSH2 0x49 CALLDATASIZE PUSH1 0x4 PUSH2 0x5ED JUMP JUMPDEST PUSH2 0x84 JUMP JUMPDEST PUSH1 0x40 MLOAD SWAP1 ISZERO ISZERO DUP2 MSTORE PUSH1 0x20 ADD JUMPDEST PUSH1 0x40 MLOAD DUP1 SWAP2 SUB SWAP1 RETURN JUMPDEST PUSH2 0x76 PUSH2 0x71 CALLDATASIZE PUSH1 0x4 PUSH2 0x5ED JUMP JUMPDEST PUSH2 0x22A JUMP JUMPDEST PUSH1 0x40 MLOAD SWAP1 DUP2 MSTORE PUSH1 0x20 ADD PUSH2 0x5A JUMP JUMPDEST PUSH1 0x0 PUSH1 0x1 PUSH1 0x1 PUSH1 0xA0 SHL SUB DUP3 AND PUSH2 0x9C JUMPI POP PUSH1 0x1 SWAP2 SWAP1 POP JUMP JUMPDEST PUSH1 0x40 MLOAD PUSH4 0xD2EDB6DD PUSH1 0xE0 SHL DUP2 MSTORE PUSH1 0x1 PUSH1 0x1 PUSH1 0xA0 SHL SUB DUP4 AND PUSH1 0x4 DUP3 ADD MSTORE PUSH20 0xEEEEEEEEEEEEEEEEEEEEEEEEEEEEEEEEEEEEEEEE PUSH1 0x24 DUP3 ADD MSTORE PUSH20 0x47FB2585D2C56FE188D0E6EC628A38B74FCEEEDF SWAP1 PUSH4 0xD2EDB6DD SWAP1 PUSH1 0x44 ADD PUSH1 0x20 PUSH1 0x40 MLOAD DUP1 DUP4 SUB DUP2 DUP7 GAS STATICCALL SWAP3 POP POP POP DUP1 ISZERO PUSH2 0x12A JUMPI POP PUSH1 0x40 DUP1 MLOAD PUSH1 0x1F RETURNDATASIZE SWAP1 DUP2 ADD PUSH1 0x1F NOT AND DUP3 ADD SWAP1 SWAP3 MSTORE PUSH2 0x127 SWAP2 DUP2 ADD SWAP1 PUSH2 0x60A JUMP JUMPDEST PUSH1 0x1 JUMPDEST PUSH2 0x21C JUMPI PUSH2 0x136 PUSH2 0x627 JUMP JUMPDEST DUP1 PUSH4 0x8C379A0 SUB PUSH2 0x206 JUMPI POP PUSH2 0x14A PUSH2 0x67E JUMP JUMPDEST DUP1 PUSH2 0x155 JUMPI POP PUSH2 0x208 JUMP JUMPDEST PUSH1 0x40 MLOAD PUSH4 0xD2EDB6DD PUSH1 0xE0 SHL DUP2 MSTORE PUSH1 0x1 PUSH1 0x1 PUSH1 0xA0 SHL SUB DUP5 AND PUSH1 0x4 DUP3 ADD MSTORE PUSH2 0x348 PUSH1 0x24 DUP3 ADD MSTORE PUSH20 0x47FB2585D2C56FE188D0E6EC628A38B74FCEEEDF SWAP1 PUSH4 0xD2EDB6DD SWAP1 PUSH1 0x44 ADD PUSH1 0x20 PUSH1 0x40 MLOAD DUP1 DUP4 SUB DUP2 DUP7 GAS STATICCALL SWAP3 POP POP POP DUP1 ISZERO PUSH2 0x1D1 JUMPI POP PUSH1 0x40 DUP1 MLOAD PUSH1 0x1F RETURNDATASIZE SWAP1 DUP2 ADD PUSH1 0x1F NOT AND DUP3 ADD SWAP1 SWAP3 MSTORE PUSH2 0x1CE SWAP2 DUP2 ADD SWAP1 PUSH2 0x60A JUMP JUMPDEST PUSH1 0x1 JUMPDEST PUSH2 0x212 JUMPI PUSH2 0x1DD PUSH2 0x627 JUMP JUMPDEST DUP1 PUSH4 0x8C379A0 SUB PUSH2 0x206 JUMPI POP PUSH2 0x1F1 PUSH2 0x67E JUMP JUMPDEST DUP1 PUSH2 0x1FC JUMPI POP PUSH2 0x208 JUMP JUMPDEST POP PUSH1 0x0 SWAP4 SWAP3 POP POP POP JUMP JUMPDEST POP JUMPDEST RETURNDATASIZE PUSH1 0x0 DUP1 RETURNDATACOPY RETURNDATASIZE PUSH1 0x0 REVERT JUMPDEST POP PUSH1 0x1 SWAP4 SWAP3 POP POP POP JUMP JUMPDEST POP PUSH1 0x1 SWAP3 SWAP2 POP POP JUMP JUMPDEST SWAP2 SWAP1 POP JUMP JUMPDEST PUSH1 0x0 PUSH2 0x23A DUP3 PUSH2 0x348 PUSH1 0x0 PUSH2 0x240 JUMP JUMPDEST SWAP3 SWAP2 POP POP JUMP JUMPDEST PUSH1 0x0 PUSH1 0x1 PUSH1 0x1 PUSH1 0xA0 SHL SUB DUP5 AND PUSH2 0x268 JUMPI PUSH20 0xEEEEEEEEEEEEEEEEEEEEEEEEEEEEEEEEEEEEEEEE SWAP4 POP JUMPDEST PUSH1 0x40 MLOAD PUSH4 0xBCFD032D PUSH1 0xE0 SHL DUP2 MSTORE PUSH1 0x1 PUSH1 0x1 PUSH1 0xA0 SHL SUB DUP1 DUP7 AND PUSH1 0x4 DUP4 ADD MSTORE DUP5 AND PUSH1 0x24 DUP3 ADD MSTORE PUSH20 0x47FB2585D2C56FE188D0E6EC628A38B74FCEEEDF SWAP1 PUSH4 0xBCFD032D SWAP1 PUSH1 0x44 ADD PUSH1 0xA0 PUSH1 0x40 MLOAD DUP1 DUP4 SUB DUP2 DUP7 GAS STATICCALL SWAP3 POP POP POP DUP1 ISZERO PUSH2 0x2E4 JUMPI POP PUSH1 0x40 DUP1 MLOAD PUSH1 0x1F RETURNDATASIZE SWAP1 DUP2 ADD PUSH1 0x1F NOT AND DUP3 ADD SWAP1 SWAP3 MSTORE PUSH2 0x2E1 SWAP2 DUP2 ADD SWAP1 PUSH2 0x722 JUMP JUMPDEST PUSH1 0x1 JUMPDEST PUSH2 0x3F4 JUMPI PUSH2 0x2F0 PUSH2 0x627 JUMP JUMPDEST DUP1 PUSH4 0x8C379A0 SUB PUSH2 0x206 JUMPI POP PUSH2 0x304 PUSH2 0x67E JUMP JUMPDEST DUP1 PUSH2 0x30F JUMPI POP PUSH2 0x208 JUMP JUMPDEST DUP3 ISZERO PUSH2 0x338 JUMPI DUP1 PUSH1 0x40 MLOAD PUSH3 0x461BCD PUSH1 0xE5 SHL DUP2 MSTORE PUSH1 0x4 ADD PUSH2 0x32F SWAP2 SWAP1 PUSH2 0x772 JUMP JUMPDEST PUSH1 0x40 MLOAD DUP1 SWAP2 SUB SWAP1 REVERT JUMPDEST PUSH2 0x347 NOT PUSH1 0x1 PUSH1 0x1 PUSH1 0xA0 SHL SUB DUP6 AND ADD PUSH2 0x3B2 JUMPI PUSH8 0xDE0B6B3A7640000 PUSH2 0x376 PUSH20 0xEEEEEEEEEEEEEEEEEEEEEEEEEEEEEEEEEEEEEEEE PUSH2 0x348 PUSH1 0x1 PUSH2 0x240 JUMP JUMPDEST PUSH2 0x396 DUP8 PUSH20 0xEEEEEEEEEEEEEEEEEEEEEEEEEEEEEEEEEEEEEEEE PUSH1 0x1 PUSH2 0x240 JUMP JUMPDEST PUSH2 0x3A0 SWAP2 SWAP1 PUSH2 0x7D6 JUMP JUMPDEST PUSH2 0x3AA SWAP2 SWAP1 PUSH2 0x7ED JUMP JUMPDEST SWAP2 POP POP PUSH2 0x567 JUMP JUMPDEST PUSH2 0x3D4 PUSH20 0xEEEEEEEEEEEEEEEEEEEEEEEEEEEEEEEEEEEEEEEE PUSH2 0x348 PUSH1 0x1 PUSH2 0x240 JUMP JUMPDEST PUSH2 0x3E2 DUP7 PUSH2 0x348 PUSH1 0x1 PUSH2 0x240 JUMP JUMPDEST PUSH2 0x3A0 SWAP1 PUSH8 0xDE0B6B3A7640000 PUSH2 0x7D6 JUMP JUMPDEST DUP2 PUSH1 0x0 SUB PUSH2 0x439 JUMPI PUSH1 0x40 MLOAD PUSH3 0x461BCD PUSH1 0xE5 SHL DUP2 MSTORE PUSH1 0x20 PUSH1 0x4 DUP3 ADD MSTORE PUSH1 0x12 PUSH1 0x24 DUP3 ADD MSTORE PUSH18 0x726F756E64206E6F7420636F6D706C657465 PUSH1 0x70 SHL PUSH1 0x44 DUP3 ADD MSTORE PUSH1 0x64 ADD PUSH2 0x32F JUMP JUMPDEST DUP4 PUSH1 0x0 SUB PUSH2 0x47A JUMPI PUSH1 0x40 MLOAD PUSH3 0x461BCD PUSH1 0xE5 SHL DUP2 MSTORE PUSH1 0x20 PUSH1 0x4 DUP3 ADD MSTORE PUSH1 0xE PUSH1 0x24 DUP3 ADD MSTORE PUSH14 0x6E65676174697665207072696365 PUSH1 0x90 SHL PUSH1 0x44 DUP3 ADD MSTORE PUSH1 0x64 ADD PUSH2 0x32F JUMP JUMPDEST DUP5 PUSH10 0xFFFFFFFFFFFFFFFFFFFF AND DUP2 PUSH10 0xFFFFFFFFFFFFFFFFFFFF AND LT ISZERO PUSH2 0x4D0 JUMPI PUSH1 0x40 MLOAD PUSH3 0x461BCD PUSH1 0xE5 SHL DUP2 MSTORE PUSH1 0x20 PUSH1 0x4 DUP3 ADD MSTORE PUSH1 0xB PUSH1 0x24 DUP3 ADD MSTORE PUSH11 0x7374616C65207072696365 PUSH1 0xA8 SHL PUSH1 0x44 DUP3 ADD MSTORE PUSH1 0x64 ADD PUSH2 0x32F JUMP JUMPDEST PUSH1 0x40 MLOAD PUSH4 0xB1C5A75 PUSH1 0xE3 SHL DUP2 MSTORE PUSH1 0x1 PUSH1 0x1 PUSH1 0xA0 SHL SUB DUP1 DUP12 AND PUSH1 0x4 DUP4 ADD MSTORE DUP10 AND PUSH1 0x24 DUP3 ADD MSTORE PUSH2 0x55F SWAP1 DUP6 SWAP1 PUSH20 0x47FB2585D2C56FE188D0E6EC628A38B74FCEEEDF SWAP1 PUSH4 0x58E2D3A8 SWAP1 PUSH1 0x44 ADD PUSH1 0x20 PUSH1 0x40 MLOAD DUP1 DUP4 SUB DUP2 DUP7 GAS STATICCALL ISZERO DUP1 ISZERO PUSH2 0x536 JUMPI RETURNDATASIZE PUSH1 0x0 DUP1 RETURNDATACOPY RETURNDATASIZE PUSH1 0x0 REVERT JUMPDEST POP POP POP POP PUSH1 0x40 MLOAD RETURNDATASIZE PUSH1 0x1F NOT PUSH1 0x1F DUP3 ADD AND DUP3 ADD DUP1 PUSH1 0x40 MSTORE POP DUP2 ADD SWAP1 PUSH2 0x55A SWAP2 SWAP1 PUSH2 0x80F JUMP JUMPDEST PUSH2 0x56E JUMP JUMPDEST SWAP6 POP POP POP POP POP POP JUMPDEST SWAP4 SWAP3 POP POP POP JUMP JUMPDEST PUSH1 0x0 DUP2 PUSH1 0xFF AND PUSH1 0x12 SUB PUSH2 0x582 JUMPI POP DUP2 PUSH2 0x23A JUMP JUMPDEST PUSH1 0x12 DUP3 PUSH1 0xFF AND GT ISZERO PUSH2 0x5B5 JUMPI PUSH2 0x599 PUSH1 0x12 DUP4 PUSH2 0x832 JUMP JUMPDEST PUSH2 0x5A4 SWAP1 PUSH1 0xA PUSH2 0x92F JUMP JUMPDEST PUSH2 0x5AE SWAP1 DUP5 PUSH2 0x7ED JUMP JUMPDEST SWAP1 POP PUSH2 0x23A JUMP JUMPDEST PUSH2 0x5C0 DUP3 PUSH1 0x12 PUSH2 0x832 JUMP JUMPDEST PUSH2 0x5CB SWAP1 PUSH1 0xA PUSH2 0x92F JUMP JUMPDEST PUSH2 0x5AE SWAP1 DUP5 PUSH2 0x7D6 JUMP JUMPDEST PUSH1 0x1 PUSH1 0x1 PUSH1 0xA0 SHL SUB DUP2 AND DUP2 EQ PUSH2 0x5EA JUMPI PUSH1 0x0 DUP1 REVERT JUMPDEST POP JUMP JUMPDEST PUSH1 0x0 PUSH1 0x20 DUP3 DUP5 SUB SLT ISZERO PUSH2 0x5FF JUMPI PUSH1 0x0 DUP1 REVERT JUMPDEST DUP2 CALLDATALOAD PUSH2 0x567 DUP2 PUSH2 0x5D5 JUMP JUMPDEST PUSH1 0x0 PUSH1 0x20 DUP3 DUP5 SUB SLT ISZERO PUSH2 0x61C JUMPI PUSH1 0x0 DUP1 REVERT JUMPDEST DUP2 MLOAD PUSH2 0x567 DUP2 PUSH2 0x5D5 JUMP JUMPDEST PUSH1 0x0 PUSH1 0x3 RETURNDATASIZE GT ISZERO PUSH2 0x640 JUMPI PUSH1 0x4 PUSH1 0x0 DUP1 RETURNDATACOPY POP PUSH1 0x0 MLOAD PUSH1 0xE0 SHR JUMPDEST SWAP1 JUMP JUMPDEST PUSH1 0x1F DUP3 ADD PUSH1 0x1F NOT AND DUP2 ADD PUSH8 0xFFFFFFFFFFFFFFFF DUP2 GT DUP3 DUP3 LT OR ISZERO PUSH2 0x677 JUMPI PUSH4 0x4E487B71 PUSH1 0xE0 SHL PUSH1 0x0 MSTORE PUSH1 0x41 PUSH1 0x4 MSTORE PUSH1 0x24 PUSH1 0x0 REVERT JUMPDEST PUSH1 0x40 MSTORE POP POP JUMP JUMPDEST PUSH1 0x0 PUSH1 0x44 RETURNDATASIZE LT ISZERO PUSH2 0x68C JUMPI SWAP1 JUMP JUMPDEST PUSH1 0x40 MLOAD PUSH1 0x3 NOT RETURNDATASIZE DUP2 ADD PUSH1 0x4 DUP4 RETURNDATACOPY DUP2 MLOAD RETURNDATASIZE PUSH8 0xFFFFFFFFFFFFFFFF DUP2 PUSH1 0x24 DUP5 ADD GT DUP2 DUP5 GT OR ISZERO PUSH2 0x6BC JUMPI POP POP POP POP POP SWAP1 JUMP JUMPDEST DUP3 DUP6 ADD SWAP2 POP DUP2 MLOAD DUP2 DUP2 GT ISZERO PUSH2 0x6D4 JUMPI POP POP POP POP POP POP SWAP1 JUMP JUMPDEST DUP5 RETURNDATASIZE DUP8 ADD ADD PUSH1 0x20 DUP3 DUP6 ADD ADD GT ISZERO PUSH2 0x6EE JUMPI POP POP POP POP POP POP SWAP1 JUMP JUMPDEST PUSH2 0x6FD PUSH1 0x20 DUP3 DUP7 ADD ADD DUP8 PUSH2 0x643 JUMP JUMPDEST POP SWAP1 SWAP6 SWAP5 POP POP POP POP POP JUMP JUMPDEST DUP1 MLOAD PUSH10 0xFFFFFFFFFFFFFFFFFFFF DUP2 AND DUP2 EQ PUSH2 0x225 JUMPI PUSH1 0x0 DUP1 REVERT JUMPDEST PUSH1 0x0 DUP1 PUSH1 0x0 DUP1 PUSH1 0x0 PUSH1 0xA0 DUP7 DUP9 SUB SLT ISZERO PUSH2 0x73A JUMPI PUSH1 0x0 DUP1 REVERT JUMPDEST PUSH2 0x743 DUP7 PUSH2 0x708 JUMP JUMPDEST SWAP5 POP PUSH1 0x20 DUP7 ADD MLOAD SWAP4 POP PUSH1 0x40 DUP7 ADD MLOAD SWAP3 POP PUSH1 0x60 DUP7 ADD MLOAD SWAP2 POP PUSH2 0x766 PUSH1 0x80 DUP8 ADD PUSH2 0x708 JUMP JUMPDEST SWAP1 POP SWAP3 SWAP6 POP SWAP3 SWAP6 SWAP1 SWAP4 POP JUMP JUMPDEST PUSH1 0x0 PUSH1 0x20 DUP1 DUP4 MSTORE DUP4 MLOAD DUP1 DUP3 DUP6 ADD MSTORE PUSH1 0x0 JUMPDEST DUP2 DUP2 LT ISZERO PUSH2 0x79F JUMPI DUP6 DUP2 ADD DUP4 ADD MLOAD DUP6 DUP3 ADD PUSH1 0x40 ADD MSTORE DUP3 ADD PUSH2 0x783 JUMP JUMPDEST POP PUSH1 0x0 PUSH1 0x40 DUP3 DUP7 ADD ADD MSTORE PUSH1 0x40 PUSH1 0x1F NOT PUSH1 0x1F DUP4 ADD AND DUP6 ADD ADD SWAP3 POP POP POP SWAP3 SWAP2 POP POP JUMP JUMPDEST PUSH4 0x4E487B71 PUSH1 0xE0 SHL PUSH1 0x0 MSTORE PUSH1 0x11 PUSH1 0x4 MSTORE PUSH1 0x24 PUSH1 0x0 REVERT JUMPDEST DUP1 DUP3 MUL DUP2 ISZERO DUP3 DUP3 DIV DUP5 EQ OR PUSH2 0x23A JUMPI PUSH2 0x23A PUSH2 0x7C0 JUMP JUMPDEST PUSH1 0x0 DUP3 PUSH2 0x80A JUMPI PUSH4 0x4E487B71 PUSH1 0xE0 SHL PUSH1 0x0 MSTORE PUSH1 0x12 PUSH1 0x4 MSTORE PUSH1 0x24 PUSH1 0x0 REVERT JUMPDEST POP DIV SWAP1 JUMP JUMPDEST PUSH1 0x0 PUSH1 0x20 DUP3 DUP5 SUB SLT ISZERO PUSH2 0x821 JUMPI PUSH1 0x0 DUP1 REVERT JUMPDEST DUP2 MLOAD PUSH1 0xFF DUP2 AND DUP2 EQ PUSH2 0x567 JUMPI PUSH1 0x0 DUP1 REVERT JUMPDEST PUSH1 0xFF DUP3 DUP2 AND DUP3 DUP3 AND SUB SWAP1 DUP2 GT ISZERO PUSH2 0x23A JUMPI PUSH2 0x23A PUSH2 0x7C0 JUMP JUMPDEST PUSH1 0x1 DUP2 DUP2 JUMPDEST DUP1 DUP6 GT ISZERO PUSH2 0x886 JUMPI DUP2 PUSH1 0x0 NOT DIV DUP3 GT ISZERO PUSH2 0x86C JUMPI PUSH2 0x86C PUSH2 0x7C0 JUMP JUMPDEST DUP1 DUP6 AND ISZERO PUSH2 0x879 JUMPI SWAP2 DUP2 MUL SWAP2 JUMPDEST SWAP4 DUP5 SHR SWAP4 SWAP1 DUP1 MUL SWAP1 PUSH2 0x850 JUMP JUMPDEST POP SWAP3 POP SWAP3 SWAP1 POP JUMP JUMPDEST PUSH1 0x0 DUP3 PUSH2 0x89D JUMPI POP PUSH1 0x1 PUSH2 0x23A JUMP JUMPDEST DUP2 PUSH2 0x8AA JUMPI POP PUSH1 0x0 PUSH2 0x23A JUMP JUMPDEST DUP2 PUSH1 0x1 DUP2 EQ PUSH2 0x8C0 JUMPI PUSH1 0x2 DUP2 EQ PUSH2 0x8CA JUMPI PUSH2 0x8E6 JUMP JUMPDEST PUSH1 0x1 SWAP2 POP POP PUSH2 0x23A JUMP JUMPDEST PUSH1 0xFF DUP5 GT ISZERO PUSH2 0x8DB JUMPI PUSH2 0x8DB PUSH2 0x7C0 JUMP JUMPDEST POP POP PUSH1 0x1 DUP3 SHL PUSH2 0x23A JUMP JUMPDEST POP PUSH1 0x20 DUP4 LT PUSH2 0x133 DUP4 LT AND PUSH1 0x4E DUP5 LT PUSH1 0xB DUP5 LT AND OR ISZERO PUSH2 0x909 JUMPI POP DUP2 DUP2 EXP PUSH2 0x23A JUMP JUMPDEST PUSH2 0x913 DUP4 DUP4 PUSH2 0x84B JUMP JUMPDEST DUP1 PUSH1 0x0 NOT DIV DUP3 GT ISZERO PUSH2 0x927 JUMPI PUSH2 0x927 PUSH2 0x7C0 JUMP JUMPDEST MUL SWAP4 SWAP3 POP POP POP JUMP JUMPDEST PUSH1 0x0 PUSH2 0x567 PUSH1 0xFF DUP5 AND DUP4 PUSH2 0x88E JUMP INVALID LOG2 PUSH5 0x6970667358 0x22 SLT KECCAK256 SMOD 0xAC 0x5F DUP12 PUSH29 0x5663C5E9B2F1C1A0212E1D74C90432664B06B40992A3B5280199A46473 PUSH16 0x6C634300081100330000000000000000 ","sha1":"1992f2ca5b6c245528a010d5fff3e3a54a81f880","source":"// SPDX-License-Identifier: GPL-3.0-or-later\npragma solidity 0.8.17;\n\nimport \"@chainlink/contracts/Denominations.sol\";\nimport \"@chainlink/contracts/interfaces/FeedRegistryInterface.sol\";\n\nimport \"../../interfaces/IOracle.sol\";\n\ninterface IAggregatorV3Interface {\n    function decimals() external view returns (uint8);\n\n    function description() external view returns (string memory);\n\n    function version() external view returns (uint256);\n\n    /// @notice `getRoundData` and `latestRoundData` should both raise \"No data present\"\n    /// if they do not have data to report, instead of returning unset values\n    /// which could be misinterpreted as actual reported values.\n    function getRoundData(uint80 _roundId)\n        external\n        view\n        returns (\n            uint80 roundId,\n            int256 answer,\n            uint256 startedAt,\n            uint256 updatedAt,\n            uint80 answeredInRound\n        );\n\n    function latestRoundData()\n        external\n        view\n        returns (\n            uint80 roundId,\n            int256 answer,\n            uint256 startedAt,\n            uint256 updatedAt,\n            uint80 answeredInRound\n        );\n}\n\ncontract ChainlinkOracle is IOracle {\n    FeedRegistryInterface internal constant _feedRegistry =\n        FeedRegistryInterface(0x47Fb2585D2C56Fe188D0E6ec628a38b74fCeeeDf);\n\n    function isTokenSupported(address token) external view override returns (bool) {\n        if (token == address(0)) return true;\n        try _feedRegistry.getFeed(token, Denominations.ETH) returns (AggregatorV2V3Interface) {\n            return true;\n        } catch Error(string memory) {\n            try _feedRegistry.getFeed(token, Denominations.USD) returns (AggregatorV2V3Interface) {\n                return true;\n            } catch Error(string memory) {\n                return false;\n            }\n        }\n    }\n\n    // Prices are always provided with 18 decimals pecision\n    function getUSDPrice(address token) external view returns (uint256) {\n        return _getPrice(token, Denominations.USD, false);\n    }\n\n    function _getPrice(\n        address token,\n        address denomination,\n        bool shouldRevert\n    ) internal view returns (uint256) {\n        if (token == address(0)) token = Denominations.ETH;\n        try _feedRegistry.latestRoundData(token, denomination) returns (\n            uint80 roundID_,\n            int256 price_,\n            uint256,\n            uint256 timeStamp_,\n            uint80 answeredInRound_\n        ) {\n            require(timeStamp_ != 0, \"round not complete\");\n            require(price_ != 0, \"negative price\");\n            require(answeredInRound_ >= roundID_, \"stale price\");\n            return _scaleFrom(uint256(price_), _feedRegistry.decimals(token, denomination));\n        } catch Error(string memory reason) {\n            if (shouldRevert) revert(reason);\n\n            if (denomination == Denominations.USD) {\n                return\n                    (_getPrice(token, Denominations.ETH, true) *\n                        _getPrice(Denominations.ETH, Denominations.USD, true)) / 1e18;\n            }\n            return\n                (_getPrice(token, Denominations.USD, true) * 1e18) /\n                _getPrice(Denominations.ETH, Denominations.USD, true);\n        }\n    }\n\n    function _scaleFrom(uint256 value, uint8 decimals) internal pure returns (uint256) {\n        if (decimals == 18) return value;\n        if (decimals > 18) return value / 10**(decimals - 18);\n        else return value * 10**(18 - decimals);\n    }\n}\n","sourcePath":"contracts/oracles/ChainlinkOracle.sol","type":"contract","deployment":{"address":"0x716E837Aceb8460a2D3c95240386dA515c0a02F5","chainid":"1","blockHeight":16734370}}