{"bytecode":"608060405267063eb89da4ed000060015534801561001c57600080fd5b506100263361004a565b61003e6301d7f9006932d26d12e980b600000061009a565b600255426003556100bc565b600080546001600160a01b038381166001600160a01b0319831681178455604051919092169283917f8be0079c531659141344cd1fd0a4f28419497f9722a3daafe3b4186f6b6457e09190a35050565b6000826100b757634e487b7160e01b600052601260045260246000fd5b500490565b611314806100cb6000396000f3fe608060405234801561001057600080fd5b506004361061010b5760003560e01c8063a563c3d5116100a2578063d30113b711610071578063d30113b714610213578063e50373f91461021c578063f14faf6f1461022f578063f2fde38b14610242578063fc0e74d11461025557600080fd5b8063a563c3d5146101b8578063a834af01146101c1578063bf86d690146101d4578063cc6ba391146101f857600080fd5b8063715018a6116100de578063715018a6146101845780637a4a74141461018c578063864c29b9146101945780638da5cb5b146101a757600080fd5b80632d2c5565146101105780634a17ed591461014857806358da77df14610152578063632473da14610169575b600080fd5b61012b73b27dc5f8286f063f11491c8f349053cb37718bea81565b6040516001600160a01b0390911681526020015b60405180910390f35b61015061025d565b005b61015b60015481565b60405190815260200161013f565b61012b739ae380f0272e2162340a5bb646c354271c0f5cfc81565b61015061026f565b610150610281565b6101506101a2366004611030565b61059b565b6000546001600160a01b031661012b565b61015b60025481565b6101506101cf366004611054565b6106dc565b6000546101e890600160a01b900460ff1681565b604051901515815260200161013f565b61012b735a8fa46ebb404494d718786e55c4e043337b10bf81565b61015b60035481565b61015061022a366004611030565b6107e3565b61015061023d366004611054565b6108f8565b610150610250366004611030565b610969565b6101506109df565b610265610af3565b61026d610b4d565b565b610277610af3565b61026d6000610b83565b600054600160a01b900460ff16156102d75760405162461bcd60e51b815260206004820152601460248201527331b7b73a3930b1ba1034b99039b43aba3237bbb760611b60448201526064015b60405180910390fd5b60006102f0600254600154610bd390919063ffffffff16565b604051632474e32f60e11b8152739ae380f0272e2162340a5bb646c354271c0f5cfc6004820152909150600090735a8fa46ebb404494d718786e55c4e043337b10bf906348e9c65e9060240160c0604051808303816000875af115801561035b573d6000803e3d6000fd5b505050506040513d601f19601f8201168201806040525081019061037f919061106d565b505050925050506000814210156103be57600061039c42846110e1565b9050836103ac8262093a806110e1565b6103b691906110f4565b9150506103e8565b60006103ca83426110e1565b9050836103da8262093a8061110b565b6103e491906110f4565b9150505b6040516370a0823160e01b81523060048201528190739ae380f0272e2162340a5bb646c354271c0f5cfc906370a0823190602401602060405180830381865afa158015610439573d6000803e3d6000fd5b505050506040513d601f19601f8201168201806040525081019061045d919061111e565b10156104ab5760405162461bcd60e51b815260206004820152601860248201527f496e73756666696369656e7420434e432062616c616e6365000000000000000060448201526064016102ce565b6104de739ae380f0272e2162340a5bb646c354271c0f5cfc735a8fa46ebb404494d718786e55c4e043337b10bf83610bfe565b6040516393f7aa6760e01b8152739ae380f0272e2162340a5bb646c354271c0f5cfc600482015260248101829052735a8fa46ebb404494d718786e55c4e043337b10bf906393f7aa6790604401600060405180830381600087803b15801561054557600080fd5b505af1158015610559573d6000803e3d6000fd5b505050507fd0c41267123f6ab5d260fdbe62d3642294c061d7cf1b5f861d620e93f4e5fae48160405161058e91815260200190565b60405180910390a1505050565b6105a3610af3565b600054600160a01b900460ff166105fc5760405162461bcd60e51b815260206004820152601b60248201527f4469737472696275746f72206973206e6f742073687574646f776e000000000060448201526064016102ce565b6001600160a01b0381166106525760405162461bcd60e51b815260206004820152601760248201527f43616e206e6f74206265207a65726f206164647265737300000000000000000060448201526064016102ce565b6040516301628e8960e21b8152739ae380f0272e2162340a5bb646c354271c0f5cfc60048201526001600160a01b0382166024820152735a8fa46ebb404494d718786e55c4e043337b10bf9063058a3a2490604401600060405180830381600087803b1580156106c157600080fd5b505af11580156106d5573d6000803e3d6000fd5b5050505050565b6106e4610af3565b670de0b6b3a76400008111156107485760405162461bcd60e51b815260206004820152602360248201527f696e666c6174696f6e2073686172652063616e206e6f7420657863656564203160448201526230302560e81b60648201526084016102ce565b60015481036107a85760405162461bcd60e51b815260206004820152602660248201527f6e657720696e666c6174696f6e20736861726573206d7573742062652064696660448201526519995c995b9d60d21b60648201526084016102ce565b60018190556040518181527ffdf4206368ddd54341131bfd6c2f4170abf5eb0a280e5d1558952930144116f59060200160405180910390a150565b6107eb610af3565b739ae380f0272e2162340a5bb646c354271c0f5cfb196001600160a01b038216016108625760405162461bcd60e51b815260206004820152602160248201527f696e76616c696420746f6b656e20746f2073656e6420746f20747265617375726044820152607960f81b60648201526084016102ce565b6040516370a0823160e01b81523060048201526108f59073b27dc5f8286f063f11491c8f349053cb37718bea906001600160a01b038416906370a0823190602401602060405180830381865afa1580156108c0573d6000803e3d6000fd5b505050506040513d601f19601f820116820180604052508101906108e4919061111e565b6001600160a01b0384169190610d4b565b50565b600054600160a01b900460ff16156109495760405162461bcd60e51b815260206004820152601460248201527331b7b73a3930b1ba1034b99039b43aba3237bbb760611b60448201526064016102ce565b6108f5739ae380f0272e2162340a5bb646c354271c0f5cfc333084610d7b565b610971610af3565b6001600160a01b0381166109d65760405162461bcd60e51b815260206004820152602660248201527f4f776e61626c653a206e6577206f776e657220697320746865207a65726f206160448201526564647265737360d01b60648201526084016102ce565b6108f581610b83565b6109e7610af3565b600054600160a01b900460ff1615610a375760405162461bcd60e51b815260206004820152601360248201527234b99030b63932b0b23c9039b43aba3237bbb760691b60448201526064016102ce565b6000805460ff60a01b1916600160a01b1790556040516370a0823160e01b815230600482015261026d9073b27dc5f8286f063f11491c8f349053cb37718bea90739ae380f0272e2162340a5bb646c354271c0f5cfc906370a0823190602401602060405180830381865afa158015610ab3573d6000803e3d6000fd5b505050506040513d601f19601f82011682018060405250810190610ad7919061111e565b739ae380f0272e2162340a5bb646c354271c0f5cfc9190610d4b565b6000546001600160a01b0316331461026d5760405162461bcd60e51b815260206004820181905260248201527f4f776e61626c653a2063616c6c6572206973206e6f7420746865206f776e657260448201526064016102ce565b6301d7f900600354610b5f919061110b565b421061026d57600254610b7a9067058d15ca2db11800610bd3565b60025542600355565b600080546001600160a01b038381166001600160a01b0319831681178455604051919092169283917f8be0079c531659141344cd1fd0a4f28419497f9722a3daafe3b4186f6b6457e09190a35050565b6000610be16012600a61121b565b610beb83856110f4565b610bf59190611227565b90505b92915050565b801580610c785750604051636eb1769f60e11b81523060048201526001600160a01b03838116602483015284169063dd62ed3e90604401602060405180830381865afa158015610c52573d6000803e3d6000fd5b505050506040513d601f19601f82011682018060405250810190610c76919061111e565b155b610ce35760405162461bcd60e51b815260206004820152603660248201527f5361666545524332303a20617070726f76652066726f6d206e6f6e2d7a65726f60448201527520746f206e6f6e2d7a65726f20616c6c6f77616e636560501b60648201526084016102ce565b6040516001600160a01b038316602482015260448101829052610d4690849063095ea7b360e01b906064015b60408051601f198184030181529190526020810180516001600160e01b03166001600160e01b031990931692909217909152610db9565b505050565b6040516001600160a01b038316602482015260448101829052610d4690849063a9059cbb60e01b90606401610d0f565b6040516001600160a01b0380851660248301528316604482015260648101829052610db39085906323b872dd60e01b90608401610d0f565b50505050565b6000610e0e826040518060400160405280602081526020017f5361666545524332303a206c6f772d6c6576656c2063616c6c206661696c6564815250856001600160a01b0316610e8b9092919063ffffffff16565b805190915015610d465780806020019051810190610e2c9190611249565b610d465760405162461bcd60e51b815260206004820152602a60248201527f5361666545524332303a204552433230206f7065726174696f6e20646964206e6044820152691bdd081cdd58d8d9595960b21b60648201526084016102ce565b6060610e9a8484600085610ea2565b949350505050565b606082471015610f035760405162461bcd60e51b815260206004820152602660248201527f416464726573733a20696e73756666696369656e742062616c616e636520666f6044820152651c8818d85b1b60d21b60648201526084016102ce565b600080866001600160a01b03168587604051610f1f919061128f565b60006040518083038185875af1925050503d8060008114610f5c576040519150601f19603f3d011682016040523d82523d6000602084013e610f61565b606091505b5091509150610f7287838387610f7d565b979650505050505050565b60608315610fec578251600003610fe5576001600160a01b0385163b610fe55760405162461bcd60e51b815260206004820152601d60248201527f416464726573733a2063616c6c20746f206e6f6e2d636f6e747261637400000060448201526064016102ce565b5081610e9a565b610e9a83838151156110015781518083602001fd5b8060405162461bcd60e51b81526004016102ce91906112ab565b6001600160a01b03811681146108f557600080fd5b60006020828403121561104257600080fd5b813561104d8161101b565b9392505050565b60006020828403121561106657600080fd5b5035919050565b60008060008060008060c0878903121561108657600080fd5b86516110918161101b565b60208801519096506110a28161101b565b6040880151606089015160808a015160a0909a0151989b929a5090989097909650945092505050565b634e487b7160e01b600052601160045260246000fd5b81810381811115610bf857610bf86110cb565b8082028115828204841417610bf857610bf86110cb565b80820180821115610bf857610bf86110cb565b60006020828403121561113057600080fd5b5051919050565b600181815b80851115611172578160001904821115611158576111586110cb565b8085161561116557918102915b93841c939080029061113c565b509250929050565b60008261118957506001610bf8565b8161119657506000610bf8565b81600181146111ac57600281146111b6576111d2565b6001915050610bf8565b60ff8411156111c7576111c76110cb565b50506001821b610bf8565b5060208310610133831016604e8410600b84101617156111f5575081810a610bf8565b6111ff8383611137565b8060001904821115611213576112136110cb565b029392505050565b6000610bf5838361117a565b60008261124457634e487b7160e01b600052601260045260246000fd5b500490565b60006020828403121561125b57600080fd5b8151801515811461104d57600080fd5b60005b8381101561128657818101518382015260200161126e565b50506000910152565b600082516112a181846020870161126b565b9190910192915050565b60208152600082518060208401526112ca81604085016020870161126b565b601f01601f1916919091016040019291505056fea2646970667358221220407c355c14c8aa5ff6ab7aba6e205f08987313371c53b9aef27543445edb8b8064736f6c63430008110033","bytecodeSha1":"4af14ffde64ae30f6660f810787d121ca8f3fd18","type":"contract","abi":[{"inputs":[],"stateMutability":"nonpayable","type":"constructor","name":"constructor"},{"anonymous":false,"inputs":[{"indexed":false,"internalType":"uint256","name":"amount","type":"uint256"}],"name":"GaugeTopUp","type":"event"},{"anonymous":false,"inputs":[{"indexed":false,"internalType":"uint256","name":"gaugeInflationShare","type":"uint256"}],"name":"InflationSharesUpdated","type":"event"},{"anonymous":false,"inputs":[{"indexed":true,"internalType":"address","name":"previousOwner","type":"address"},{"indexed":true,"internalType":"address","name":"newOwner","type":"address"}],"name":"OwnershipTransferred","type":"event"},{"inputs":[],"name":"CNC","outputs":[{"internalType":"contract IERC20","name":"","type":"address"}],"stateMutability":"view","type":"function"},{"inputs":[],"name":"CNC_ETH_GAUGE","outputs":[{"internalType":"contract ICurveGauge","name":"","type":"address"}],"stateMutability":"view","type":"function"},{"inputs":[],"name":"TREASURY","outputs":[{"internalType":"address","name":"","type":"address"}],"stateMutability":"view","type":"function"},{"inputs":[],"name":"currentInflationRate","outputs":[{"internalType":"uint256","name":"","type":"uint256"}],"stateMutability":"view","type":"function"},{"inputs":[{"internalType":"uint256","name":"amount","type":"uint256"}],"name":"donate","outputs":[],"stateMutability":"nonpayable","type":"function"},{"inputs":[],"name":"executeInflationRateUpdate","outputs":[],"stateMutability":"nonpayable","type":"function"},{"inputs":[],"name":"gaugeInflationShare","outputs":[{"internalType":"uint256","name":"","type":"uint256"}],"stateMutability":"view","type":"function"},{"inputs":[],"name":"isShutdown","outputs":[{"internalType":"bool","name":"","type":"bool"}],"stateMutability":"view","type":"function"},{"inputs":[],"name":"lastInflationRateDecay","outputs":[{"internalType":"uint256","name":"","type":"uint256"}],"stateMutability":"view","type":"function"},{"inputs":[],"name":"owner","outputs":[{"internalType":"address","name":"","type":"address"}],"stateMutability":"view","type":"function"},{"inputs":[],"name":"renounceOwnership","outputs":[],"stateMutability":"nonpayable","type":"function"},{"inputs":[{"internalType":"address","name":"newDistributor","type":"address"}],"name":"setGaugeRewardDistributor","outputs":[],"stateMutability":"nonpayable","type":"function"},{"inputs":[],"name":"shutdown","outputs":[],"stateMutability":"nonpayable","type":"function"},{"inputs":[],"name":"topUpGauge","outputs":[],"stateMutability":"nonpayable","type":"function"},{"inputs":[{"internalType":"address","name":"newOwner","type":"address"}],"name":"transferOwnership","outputs":[],"stateMutability":"nonpayable","type":"function"},{"inputs":[{"internalType":"uint256","name":"_gaugeInflationShare","type":"uint256"}],"name":"updateInflationShare","outputs":[],"stateMutability":"nonpayable","type":"function"},{"inputs":[{"internalType":"address","name":"token","type":"address"}],"name":"withdrawOtherToken","outputs":[],"stateMutability":"nonpayable","type":"function"}],"compiler":{"version":"0.8.17+commit.8df45f5f","evm_version":"istanbul","optimizer":{"enabled":true,"runs":200}},"contractName":"CNCDistributor","language":"Solidity","natspec":{"methods":{"owner()":{"details":"Returns the address of the current owner."},"renounceOwnership()":{"details":"Leaves the contract without owner. It will not be possible to call `onlyOwner` functions anymore. Can only be called by the current owner. NOTE: Renouncing ownership will leave the contract without an owner, thereby removing any functionality that is only available to the owner."},"transferOwnership(address)":{"details":"Transfers ownership of the contract to a new account (`newOwner`). Can only be called by the current owner."}},"kind":"dev","version":1},"opcodes":"PUSH1 0x80 PUSH1 0x40 MSTORE CALLVALUE DUP1 ISZERO PUSH2 0x10 JUMPI PUSH1 0x0 DUP1 REVERT JUMPDEST POP PUSH1 0x4 CALLDATASIZE LT PUSH2 0x10B JUMPI PUSH1 0x0 CALLDATALOAD PUSH1 0xE0 SHR DUP1 PUSH4 0xA563C3D5 GT PUSH2 0xA2 JUMPI DUP1 PUSH4 0xD30113B7 GT PUSH2 0x71 JUMPI DUP1 PUSH4 0xD30113B7 EQ PUSH2 0x213 JUMPI DUP1 PUSH4 0xE50373F9 EQ PUSH2 0x21C JUMPI DUP1 PUSH4 0xF14FAF6F EQ PUSH2 0x22F JUMPI DUP1 PUSH4 0xF2FDE38B EQ PUSH2 0x242 JUMPI DUP1 PUSH4 0xFC0E74D1 EQ PUSH2 0x255 JUMPI PUSH1 0x0 DUP1 REVERT JUMPDEST DUP1 PUSH4 0xA563C3D5 EQ PUSH2 0x1B8 JUMPI DUP1 PUSH4 0xA834AF01 EQ PUSH2 0x1C1 JUMPI DUP1 PUSH4 0xBF86D690 EQ PUSH2 0x1D4 JUMPI DUP1 PUSH4 0xCC6BA391 EQ PUSH2 0x1F8 JUMPI PUSH1 0x0 DUP1 REVERT JUMPDEST DUP1 PUSH4 0x715018A6 GT PUSH2 0xDE JUMPI DUP1 PUSH4 0x715018A6 EQ PUSH2 0x184 JUMPI DUP1 PUSH4 0x7A4A7414 EQ PUSH2 0x18C JUMPI DUP1 PUSH4 0x864C29B9 EQ PUSH2 0x194 JUMPI DUP1 PUSH4 0x8DA5CB5B EQ PUSH2 0x1A7 JUMPI PUSH1 0x0 DUP1 REVERT JUMPDEST DUP1 PUSH4 0x2D2C5565 EQ PUSH2 0x110 JUMPI DUP1 PUSH4 0x4A17ED59 EQ PUSH2 0x148 JUMPI DUP1 PUSH4 0x58DA77DF EQ PUSH2 0x152 JUMPI DUP1 PUSH4 0x632473DA EQ PUSH2 0x169 JUMPI JUMPDEST PUSH1 0x0 DUP1 REVERT JUMPDEST PUSH2 0x12B PUSH20 0xB27DC5F8286F063F11491C8F349053CB37718BEA DUP2 JUMP JUMPDEST PUSH1 0x40 MLOAD PUSH1 0x1 PUSH1 0x1 PUSH1 0xA0 SHL SUB SWAP1 SWAP2 AND DUP2 MSTORE PUSH1 0x20 ADD JUMPDEST PUSH1 0x40 MLOAD DUP1 SWAP2 SUB SWAP1 RETURN JUMPDEST PUSH2 0x150 PUSH2 0x25D JUMP JUMPDEST STOP JUMPDEST PUSH2 0x15B PUSH1 0x1 SLOAD DUP2 JUMP JUMPDEST PUSH1 0x40 MLOAD SWAP1 DUP2 MSTORE PUSH1 0x20 ADD PUSH2 0x13F JUMP JUMPDEST PUSH2 0x12B PUSH20 0x9AE380F0272E2162340A5BB646C354271C0F5CFC DUP2 JUMP JUMPDEST PUSH2 0x150 PUSH2 0x26F JUMP JUMPDEST PUSH2 0x150 PUSH2 0x281 JUMP JUMPDEST PUSH2 0x150 PUSH2 0x1A2 CALLDATASIZE PUSH1 0x4 PUSH2 0x1030 JUMP JUMPDEST PUSH2 0x59B JUMP JUMPDEST PUSH1 0x0 SLOAD PUSH1 0x1 PUSH1 0x1 PUSH1 0xA0 SHL SUB AND PUSH2 0x12B JUMP JUMPDEST PUSH2 0x15B PUSH1 0x2 SLOAD DUP2 JUMP JUMPDEST PUSH2 0x150 PUSH2 0x1CF CALLDATASIZE PUSH1 0x4 PUSH2 0x1054 JUMP JUMPDEST PUSH2 0x6DC JUMP JUMPDEST PUSH1 0x0 SLOAD PUSH2 0x1E8 SWAP1 PUSH1 0x1 PUSH1 0xA0 SHL SWAP1 DIV PUSH1 0xFF AND DUP2 JUMP JUMPDEST PUSH1 0x40 MLOAD SWAP1 ISZERO ISZERO DUP2 MSTORE PUSH1 0x20 ADD PUSH2 0x13F JUMP JUMPDEST PUSH2 0x12B PUSH20 0x5A8FA46EBB404494D718786E55C4E043337B10BF DUP2 JUMP JUMPDEST PUSH2 0x15B PUSH1 0x3 SLOAD DUP2 JUMP JUMPDEST PUSH2 0x150 PUSH2 0x22A CALLDATASIZE PUSH1 0x4 PUSH2 0x1030 JUMP JUMPDEST PUSH2 0x7E3 JUMP JUMPDEST PUSH2 0x150 PUSH2 0x23D CALLDATASIZE PUSH1 0x4 PUSH2 0x1054 JUMP JUMPDEST PUSH2 0x8F8 JUMP JUMPDEST PUSH2 0x150 PUSH2 0x250 CALLDATASIZE PUSH1 0x4 PUSH2 0x1030 JUMP JUMPDEST PUSH2 0x969 JUMP JUMPDEST PUSH2 0x150 PUSH2 0x9DF JUMP JUMPDEST PUSH2 0x265 PUSH2 0xAF3 JUMP JUMPDEST PUSH2 0x26D PUSH2 0xB4D JUMP JUMPDEST JUMP JUMPDEST PUSH2 0x277 PUSH2 0xAF3 JUMP JUMPDEST PUSH2 0x26D PUSH1 0x0 PUSH2 0xB83 JUMP JUMPDEST PUSH1 0x0 SLOAD PUSH1 0x1 PUSH1 0xA0 SHL SWAP1 DIV PUSH1 0xFF AND ISZERO PUSH2 0x2D7 JUMPI PUSH1 0x40 MLOAD PUSH3 0x461BCD PUSH1 0xE5 SHL DUP2 MSTORE PUSH1 0x20 PUSH1 0x4 DUP3 ADD MSTORE PUSH1 0x14 PUSH1 0x24 DUP3 ADD MSTORE PUSH20 0x31B7B73A3930B1BA1034B99039B43ABA3237BBB7 PUSH1 0x61 SHL PUSH1 0x44 DUP3 ADD MSTORE PUSH1 0x64 ADD JUMPDEST PUSH1 0x40 MLOAD DUP1 SWAP2 SUB SWAP1 REVERT JUMPDEST PUSH1 0x0 PUSH2 0x2F0 PUSH1 0x2 SLOAD PUSH1 0x1 SLOAD PUSH2 0xBD3 SWAP1 SWAP2 SWAP1 PUSH4 0xFFFFFFFF AND JUMP JUMPDEST PUSH1 0x40 MLOAD PUSH4 0x2474E32F PUSH1 0xE1 SHL DUP2 MSTORE PUSH20 0x9AE380F0272E2162340A5BB646C354271C0F5CFC PUSH1 0x4 DUP3 ADD MSTORE SWAP1 SWAP2 POP PUSH1 0x0 SWAP1 PUSH20 0x5A8FA46EBB404494D718786E55C4E043337B10BF SWAP1 PUSH4 0x48E9C65E SWAP1 PUSH1 0x24 ADD PUSH1 0xC0 PUSH1 0x40 MLOAD DUP1 DUP4 SUB DUP2 PUSH1 0x0 DUP8 GAS CALL ISZERO DUP1 ISZERO PUSH2 0x35B JUMPI RETURNDATASIZE PUSH1 0x0 DUP1 RETURNDATACOPY RETURNDATASIZE PUSH1 0x0 REVERT JUMPDEST POP POP POP POP PUSH1 0x40 MLOAD RETURNDATASIZE PUSH1 0x1F NOT PUSH1 0x1F DUP3 ADD AND DUP3 ADD DUP1 PUSH1 0x40 MSTORE POP DUP2 ADD SWAP1 PUSH2 0x37F SWAP2 SWAP1 PUSH2 0x106D JUMP JUMPDEST POP POP POP SWAP3 POP POP POP PUSH1 0x0 DUP2 TIMESTAMP LT ISZERO PUSH2 0x3BE JUMPI PUSH1 0x0 PUSH2 0x39C TIMESTAMP DUP5 PUSH2 0x10E1 JUMP JUMPDEST SWAP1 POP DUP4 PUSH2 0x3AC DUP3 PUSH3 0x93A80 PUSH2 0x10E1 JUMP JUMPDEST PUSH2 0x3B6 SWAP2 SWAP1 PUSH2 0x10F4 JUMP JUMPDEST SWAP2 POP POP PUSH2 0x3E8 JUMP JUMPDEST PUSH1 0x0 PUSH2 0x3CA DUP4 TIMESTAMP PUSH2 0x10E1 JUMP JUMPDEST SWAP1 POP DUP4 PUSH2 0x3DA DUP3 PUSH3 0x93A80 PUSH2 0x110B JUMP JUMPDEST PUSH2 0x3E4 SWAP2 SWAP1 PUSH2 0x10F4 JUMP JUMPDEST SWAP2 POP POP JUMPDEST PUSH1 0x40 MLOAD PUSH4 0x70A08231 PUSH1 0xE0 SHL DUP2 MSTORE ADDRESS PUSH1 0x4 DUP3 ADD MSTORE DUP2 SWAP1 PUSH20 0x9AE380F0272E2162340A5BB646C354271C0F5CFC SWAP1 PUSH4 0x70A08231 SWAP1 PUSH1 0x24 ADD PUSH1 0x20 PUSH1 0x40 MLOAD DUP1 DUP4 SUB DUP2 DUP7 GAS STATICCALL ISZERO DUP1 ISZERO PUSH2 0x439 JUMPI RETURNDATASIZE PUSH1 0x0 DUP1 RETURNDATACOPY RETURNDATASIZE PUSH1 0x0 REVERT JUMPDEST POP POP POP POP PUSH1 0x40 MLOAD RETURNDATASIZE PUSH1 0x1F NOT PUSH1 0x1F DUP3 ADD AND DUP3 ADD DUP1 PUSH1 0x40 MSTORE POP DUP2 ADD SWAP1 PUSH2 0x45D SWAP2 SWAP1 PUSH2 0x111E JUMP JUMPDEST LT ISZERO PUSH2 0x4AB JUMPI PUSH1 0x40 MLOAD PUSH3 0x461BCD PUSH1 0xE5 SHL DUP2 MSTORE PUSH1 0x20 PUSH1 0x4 DUP3 ADD MSTORE PUSH1 0x18 PUSH1 0x24 DUP3 ADD MSTORE PUSH32 0x496E73756666696369656E7420434E432062616C616E63650000000000000000 PUSH1 0x44 DUP3 ADD MSTORE PUSH1 0x64 ADD PUSH2 0x2CE JUMP JUMPDEST PUSH2 0x4DE PUSH20 0x9AE380F0272E2162340A5BB646C354271C0F5CFC PUSH20 0x5A8FA46EBB404494D718786E55C4E043337B10BF DUP4 PUSH2 0xBFE JUMP JUMPDEST PUSH1 0x40 MLOAD PUSH4 0x93F7AA67 PUSH1 0xE0 SHL DUP2 MSTORE PUSH20 0x9AE380F0272E2162340A5BB646C354271C0F5CFC PUSH1 0x4 DUP3 ADD MSTORE PUSH1 0x24 DUP2 ADD DUP3 SWAP1 MSTORE PUSH20 0x5A8FA46EBB404494D718786E55C4E043337B10BF SWAP1 PUSH4 0x93F7AA67 SWAP1 PUSH1 0x44 ADD PUSH1 0x0 PUSH1 0x40 MLOAD DUP1 DUP4 SUB DUP2 PUSH1 0x0 DUP8 DUP1 EXTCODESIZE ISZERO DUP1 ISZERO PUSH2 0x545 JUMPI PUSH1 0x0 DUP1 REVERT JUMPDEST POP GAS CALL ISZERO DUP1 ISZERO PUSH2 0x559 JUMPI RETURNDATASIZE PUSH1 0x0 DUP1 RETURNDATACOPY RETURNDATASIZE PUSH1 0x0 REVERT JUMPDEST POP POP POP POP PUSH32 0xD0C41267123F6AB5D260FDBE62D3642294C061D7CF1B5F861D620E93F4E5FAE4 DUP2 PUSH1 0x40 MLOAD PUSH2 0x58E SWAP2 DUP2 MSTORE PUSH1 0x20 ADD SWAP1 JUMP JUMPDEST PUSH1 0x40 MLOAD DUP1 SWAP2 SUB SWAP1 LOG1 POP POP POP JUMP JUMPDEST PUSH2 0x5A3 PUSH2 0xAF3 JUMP JUMPDEST PUSH1 0x0 SLOAD PUSH1 0x1 PUSH1 0xA0 SHL SWAP1 DIV PUSH1 0xFF AND PUSH2 0x5FC JUMPI PUSH1 0x40 MLOAD PUSH3 0x461BCD PUSH1 0xE5 SHL DUP2 MSTORE PUSH1 0x20 PUSH1 0x4 DUP3 ADD MSTORE PUSH1 0x1B PUSH1 0x24 DUP3 ADD MSTORE PUSH32 0x4469737472696275746F72206973206E6F742073687574646F776E0000000000 PUSH1 0x44 DUP3 ADD MSTORE PUSH1 0x64 ADD PUSH2 0x2CE JUMP JUMPDEST PUSH1 0x1 PUSH1 0x1 PUSH1 0xA0 SHL SUB DUP2 AND PUSH2 0x652 JUMPI PUSH1 0x40 MLOAD PUSH3 0x461BCD PUSH1 0xE5 SHL DUP2 MSTORE PUSH1 0x20 PUSH1 0x4 DUP3 ADD MSTORE PUSH1 0x17 PUSH1 0x24 DUP3 ADD MSTORE PUSH32 0x43616E206E6F74206265207A65726F2061646472657373000000000000000000 PUSH1 0x44 DUP3 ADD MSTORE PUSH1 0x64 ADD PUSH2 0x2CE JUMP JUMPDEST PUSH1 0x40 MLOAD PUSH4 0x1628E89 PUSH1 0xE2 SHL DUP2 MSTORE PUSH20 0x9AE380F0272E2162340A5BB646C354271C0F5CFC PUSH1 0x4 DUP3 ADD MSTORE PUSH1 0x1 PUSH1 0x1 PUSH1 0xA0 SHL SUB DUP3 AND PUSH1 0x24 DUP3 ADD MSTORE PUSH20 0x5A8FA46EBB404494D718786E55C4E043337B10BF SWAP1 PUSH4 0x58A3A24 SWAP1 PUSH1 0x44 ADD PUSH1 0x0 PUSH1 0x40 MLOAD DUP1 DUP4 SUB DUP2 PUSH1 0x0 DUP8 DUP1 EXTCODESIZE ISZERO DUP1 ISZERO PUSH2 0x6C1 JUMPI PUSH1 0x0 DUP1 REVERT JUMPDEST POP GAS CALL ISZERO DUP1 ISZERO PUSH2 0x6D5 JUMPI RETURNDATASIZE PUSH1 0x0 DUP1 RETURNDATACOPY RETURNDATASIZE PUSH1 0x0 REVERT JUMPDEST POP POP POP POP POP JUMP JUMPDEST PUSH2 0x6E4 PUSH2 0xAF3 JUMP JUMPDEST PUSH8 0xDE0B6B3A7640000 DUP2 GT ISZERO PUSH2 0x748 JUMPI PUSH1 0x40 MLOAD PUSH3 0x461BCD PUSH1 0xE5 SHL DUP2 MSTORE PUSH1 0x20 PUSH1 0x4 DUP3 ADD MSTORE PUSH1 0x23 PUSH1 0x24 DUP3 ADD MSTORE PUSH32 0x696E666C6174696F6E2073686172652063616E206E6F74206578636565642031 PUSH1 0x44 DUP3 ADD MSTORE PUSH3 0x303025 PUSH1 0xE8 SHL PUSH1 0x64 DUP3 ADD MSTORE PUSH1 0x84 ADD PUSH2 0x2CE JUMP JUMPDEST PUSH1 0x1 SLOAD DUP2 SUB PUSH2 0x7A8 JUMPI PUSH1 0x40 MLOAD PUSH3 0x461BCD PUSH1 0xE5 SHL DUP2 MSTORE PUSH1 0x20 PUSH1 0x4 DUP3 ADD MSTORE PUSH1 0x26 PUSH1 0x24 DUP3 ADD MSTORE PUSH32 0x6E657720696E666C6174696F6E20736861726573206D75737420626520646966 PUSH1 0x44 DUP3 ADD MSTORE PUSH6 0x19995C995B9D PUSH1 0xD2 SHL PUSH1 0x64 DUP3 ADD MSTORE PUSH1 0x84 ADD PUSH2 0x2CE JUMP JUMPDEST PUSH1 0x1 DUP2 SWAP1 SSTORE PUSH1 0x40 MLOAD DUP2 DUP2 MSTORE PUSH32 0xFDF4206368DDD54341131BFD6C2F4170ABF5EB0A280E5D1558952930144116F5 SWAP1 PUSH1 0x20 ADD PUSH1 0x40 MLOAD DUP1 SWAP2 SUB SWAP1 LOG1 POP JUMP JUMPDEST PUSH2 0x7EB PUSH2 0xAF3 JUMP JUMPDEST PUSH20 0x9AE380F0272E2162340A5BB646C354271C0F5CFB NOT PUSH1 0x1 PUSH1 0x1 PUSH1 0xA0 SHL SUB DUP3 AND ADD PUSH2 0x862 JUMPI PUSH1 0x40 MLOAD PUSH3 0x461BCD PUSH1 0xE5 SHL DUP2 MSTORE PUSH1 0x20 PUSH1 0x4 DUP3 ADD MSTORE PUSH1 0x21 PUSH1 0x24 DUP3 ADD MSTORE PUSH32 0x696E76616C696420746F6B656E20746F2073656E6420746F2074726561737572 PUSH1 0x44 DUP3 ADD MSTORE PUSH1 0x79 PUSH1 0xF8 SHL PUSH1 0x64 DUP3 ADD MSTORE PUSH1 0x84 ADD PUSH2 0x2CE JUMP JUMPDEST PUSH1 0x40 MLOAD PUSH4 0x70A08231 PUSH1 0xE0 SHL DUP2 MSTORE ADDRESS PUSH1 0x4 DUP3 ADD MSTORE PUSH2 0x8F5 SWAP1 PUSH20 0xB27DC5F8286F063F11491C8F349053CB37718BEA SWAP1 PUSH1 0x1 PUSH1 0x1 PUSH1 0xA0 SHL SUB DUP5 AND SWAP1 PUSH4 0x70A08231 SWAP1 PUSH1 0x24 ADD PUSH1 0x20 PUSH1 0x40 MLOAD DUP1 DUP4 SUB DUP2 DUP7 GAS STATICCALL ISZERO DUP1 ISZERO PUSH2 0x8C0 JUMPI RETURNDATASIZE PUSH1 0x0 DUP1 RETURNDATACOPY RETURNDATASIZE PUSH1 0x0 REVERT JUMPDEST POP POP POP POP PUSH1 0x40 MLOAD RETURNDATASIZE PUSH1 0x1F NOT PUSH1 0x1F DUP3 ADD AND DUP3 ADD DUP1 PUSH1 0x40 MSTORE POP DUP2 ADD SWAP1 PUSH2 0x8E4 SWAP2 SWAP1 PUSH2 0x111E JUMP JUMPDEST PUSH1 0x1 PUSH1 0x1 PUSH1 0xA0 SHL SUB DUP5 AND SWAP2 SWAP1 PUSH2 0xD4B JUMP JUMPDEST POP JUMP JUMPDEST PUSH1 0x0 SLOAD PUSH1 0x1 PUSH1 0xA0 SHL SWAP1 DIV PUSH1 0xFF AND ISZERO PUSH2 0x949 JUMPI PUSH1 0x40 MLOAD PUSH3 0x461BCD PUSH1 0xE5 SHL DUP2 MSTORE PUSH1 0x20 PUSH1 0x4 DUP3 ADD MSTORE PUSH1 0x14 PUSH1 0x24 DUP3 ADD MSTORE PUSH20 0x31B7B73A3930B1BA1034B99039B43ABA3237BBB7 PUSH1 0x61 SHL PUSH1 0x44 DUP3 ADD MSTORE PUSH1 0x64 ADD PUSH2 0x2CE JUMP JUMPDEST PUSH2 0x8F5 PUSH20 0x9AE380F0272E2162340A5BB646C354271C0F5CFC CALLER ADDRESS DUP5 PUSH2 0xD7B JUMP JUMPDEST PUSH2 0x971 PUSH2 0xAF3 JUMP JUMPDEST PUSH1 0x1 PUSH1 0x1 PUSH1 0xA0 SHL SUB DUP2 AND PUSH2 0x9D6 JUMPI PUSH1 0x40 MLOAD PUSH3 0x461BCD PUSH1 0xE5 SHL DUP2 MSTORE PUSH1 0x20 PUSH1 0x4 DUP3 ADD MSTORE PUSH1 0x26 PUSH1 0x24 DUP3 ADD MSTORE PUSH32 0x4F776E61626C653A206E6577206F776E657220697320746865207A65726F2061 PUSH1 0x44 DUP3 ADD MSTORE PUSH6 0x646472657373 PUSH1 0xD0 SHL PUSH1 0x64 DUP3 ADD MSTORE PUSH1 0x84 ADD PUSH2 0x2CE JUMP JUMPDEST PUSH2 0x8F5 DUP2 PUSH2 0xB83 JUMP JUMPDEST PUSH2 0x9E7 PUSH2 0xAF3 JUMP JUMPDEST PUSH1 0x0 SLOAD PUSH1 0x1 PUSH1 0xA0 SHL SWAP1 DIV PUSH1 0xFF AND ISZERO PUSH2 0xA37 JUMPI PUSH1 0x40 MLOAD PUSH3 0x461BCD PUSH1 0xE5 SHL DUP2 MSTORE PUSH1 0x20 PUSH1 0x4 DUP3 ADD MSTORE PUSH1 0x13 PUSH1 0x24 DUP3 ADD MSTORE PUSH19 0x34B99030B63932B0B23C9039B43ABA3237BBB7 PUSH1 0x69 SHL PUSH1 0x44 DUP3 ADD MSTORE PUSH1 0x64 ADD PUSH2 0x2CE JUMP JUMPDEST PUSH1 0x0 DUP1 SLOAD PUSH1 0xFF PUSH1 0xA0 SHL NOT AND PUSH1 0x1 PUSH1 0xA0 SHL OR SWAP1 SSTORE PUSH1 0x40 MLOAD PUSH4 0x70A08231 PUSH1 0xE0 SHL DUP2 MSTORE ADDRESS PUSH1 0x4 DUP3 ADD MSTORE PUSH2 0x26D SWAP1 PUSH20 0xB27DC5F8286F063F11491C8F349053CB37718BEA SWAP1 PUSH20 0x9AE380F0272E2162340A5BB646C354271C0F5CFC SWAP1 PUSH4 0x70A08231 SWAP1 PUSH1 0x24 ADD PUSH1 0x20 PUSH1 0x40 MLOAD DUP1 DUP4 SUB DUP2 DUP7 GAS STATICCALL ISZERO DUP1 ISZERO PUSH2 0xAB3 JUMPI RETURNDATASIZE PUSH1 0x0 DUP1 RETURNDATACOPY RETURNDATASIZE PUSH1 0x0 REVERT JUMPDEST POP POP POP POP PUSH1 0x40 MLOAD RETURNDATASIZE PUSH1 0x1F NOT PUSH1 0x1F DUP3 ADD AND DUP3 ADD DUP1 PUSH1 0x40 MSTORE POP DUP2 ADD SWAP1 PUSH2 0xAD7 SWAP2 SWAP1 PUSH2 0x111E JUMP JUMPDEST PUSH20 0x9AE380F0272E2162340A5BB646C354271C0F5CFC SWAP2 SWAP1 PUSH2 0xD4B JUMP JUMPDEST PUSH1 0x0 SLOAD PUSH1 0x1 PUSH1 0x1 PUSH1 0xA0 SHL SUB AND CALLER EQ PUSH2 0x26D JUMPI PUSH1 0x40 MLOAD PUSH3 0x461BCD PUSH1 0xE5 SHL DUP2 MSTORE PUSH1 0x20 PUSH1 0x4 DUP3 ADD DUP2 SWAP1 MSTORE PUSH1 0x24 DUP3 ADD MSTORE PUSH32 0x4F776E61626C653A2063616C6C6572206973206E6F7420746865206F776E6572 PUSH1 0x44 DUP3 ADD MSTORE PUSH1 0x64 ADD PUSH2 0x2CE JUMP JUMPDEST PUSH4 0x1D7F900 PUSH1 0x3 SLOAD PUSH2 0xB5F SWAP2 SWAP1 PUSH2 0x110B JUMP JUMPDEST TIMESTAMP LT PUSH2 0x26D JUMPI PUSH1 0x2 SLOAD PUSH2 0xB7A SWAP1 PUSH8 0x58D15CA2DB11800 PUSH2 0xBD3 JUMP JUMPDEST PUSH1 0x2 SSTORE TIMESTAMP PUSH1 0x3 SSTORE JUMP JUMPDEST PUSH1 0x0 DUP1 SLOAD PUSH1 0x1 PUSH1 0x1 PUSH1 0xA0 SHL SUB DUP4 DUP2 AND PUSH1 0x1 PUSH1 0x1 PUSH1 0xA0 SHL SUB NOT DUP4 AND DUP2 OR DUP5 SSTORE PUSH1 0x40 MLOAD SWAP2 SWAP1 SWAP3 AND SWAP3 DUP4 SWAP2 PUSH32 0x8BE0079C531659141344CD1FD0A4F28419497F9722A3DAAFE3B4186F6B6457E0 SWAP2 SWAP1 LOG3 POP POP JUMP JUMPDEST PUSH1 0x0 PUSH2 0xBE1 PUSH1 0x12 PUSH1 0xA PUSH2 0x121B JUMP JUMPDEST PUSH2 0xBEB DUP4 DUP6 PUSH2 0x10F4 JUMP JUMPDEST PUSH2 0xBF5 SWAP2 SWAP1 PUSH2 0x1227 JUMP JUMPDEST SWAP1 POP JUMPDEST SWAP3 SWAP2 POP POP JUMP JUMPDEST DUP1 ISZERO DUP1 PUSH2 0xC78 JUMPI POP PUSH1 0x40 MLOAD PUSH4 0x6EB1769F PUSH1 0xE1 SHL DUP2 MSTORE ADDRESS PUSH1 0x4 DUP3 ADD MSTORE PUSH1 0x1 PUSH1 0x1 PUSH1 0xA0 SHL SUB DUP4 DUP2 AND PUSH1 0x24 DUP4 ADD MSTORE DUP5 AND SWAP1 PUSH4 0xDD62ED3E SWAP1 PUSH1 0x44 ADD PUSH1 0x20 PUSH1 0x40 MLOAD DUP1 DUP4 SUB DUP2 DUP7 GAS STATICCALL ISZERO DUP1 ISZERO PUSH2 0xC52 JUMPI RETURNDATASIZE PUSH1 0x0 DUP1 RETURNDATACOPY RETURNDATASIZE PUSH1 0x0 REVERT JUMPDEST POP POP POP POP PUSH1 0x40 MLOAD RETURNDATASIZE PUSH1 0x1F NOT PUSH1 0x1F DUP3 ADD AND DUP3 ADD DUP1 PUSH1 0x40 MSTORE POP DUP2 ADD SWAP1 PUSH2 0xC76 SWAP2 SWAP1 PUSH2 0x111E JUMP JUMPDEST ISZERO JUMPDEST PUSH2 0xCE3 JUMPI PUSH1 0x40 MLOAD PUSH3 0x461BCD PUSH1 0xE5 SHL DUP2 MSTORE PUSH1 0x20 PUSH1 0x4 DUP3 ADD MSTORE PUSH1 0x36 PUSH1 0x24 DUP3 ADD MSTORE PUSH32 0x5361666545524332303A20617070726F76652066726F6D206E6F6E2D7A65726F PUSH1 0x44 DUP3 ADD MSTORE PUSH22 0x20746F206E6F6E2D7A65726F20616C6C6F77616E6365 PUSH1 0x50 SHL PUSH1 0x64 DUP3 ADD MSTORE PUSH1 0x84 ADD PUSH2 0x2CE JUMP JUMPDEST PUSH1 0x40 MLOAD PUSH1 0x1 PUSH1 0x1 PUSH1 0xA0 SHL SUB DUP4 AND PUSH1 0x24 DUP3 ADD MSTORE PUSH1 0x44 DUP2 ADD DUP3 SWAP1 MSTORE PUSH2 0xD46 SWAP1 DUP5 SWAP1 PUSH4 0x95EA7B3 PUSH1 0xE0 SHL SWAP1 PUSH1 0x64 ADD JUMPDEST PUSH1 0x40 DUP1 MLOAD PUSH1 0x1F NOT DUP2 DUP5 SUB ADD DUP2 MSTORE SWAP2 SWAP1 MSTORE PUSH1 0x20 DUP2 ADD DUP1 MLOAD PUSH1 0x1 PUSH1 0x1 PUSH1 0xE0 SHL SUB AND PUSH1 0x1 PUSH1 0x1 PUSH1 0xE0 SHL SUB NOT SWAP1 SWAP4 AND SWAP3 SWAP1 SWAP3 OR SWAP1 SWAP2 MSTORE PUSH2 0xDB9 JUMP JUMPDEST POP POP POP JUMP JUMPDEST PUSH1 0x40 MLOAD PUSH1 0x1 PUSH1 0x1 PUSH1 0xA0 SHL SUB DUP4 AND PUSH1 0x24 DUP3 ADD MSTORE PUSH1 0x44 DUP2 ADD DUP3 SWAP1 MSTORE PUSH2 0xD46 SWAP1 DUP5 SWAP1 PUSH4 0xA9059CBB PUSH1 0xE0 SHL SWAP1 PUSH1 0x64 ADD PUSH2 0xD0F JUMP JUMPDEST PUSH1 0x40 MLOAD PUSH1 0x1 PUSH1 0x1 PUSH1 0xA0 SHL SUB DUP1 DUP6 AND PUSH1 0x24 DUP4 ADD MSTORE DUP4 AND PUSH1 0x44 DUP3 ADD MSTORE PUSH1 0x64 DUP2 ADD DUP3 SWAP1 MSTORE PUSH2 0xDB3 SWAP1 DUP6 SWAP1 PUSH4 0x23B872DD PUSH1 0xE0 SHL SWAP1 PUSH1 0x84 ADD PUSH2 0xD0F JUMP JUMPDEST POP POP POP POP JUMP JUMPDEST PUSH1 0x0 PUSH2 0xE0E DUP3 PUSH1 0x40 MLOAD DUP1 PUSH1 0x40 ADD PUSH1 0x40 MSTORE DUP1 PUSH1 0x20 DUP2 MSTORE PUSH1 0x20 ADD PUSH32 0x5361666545524332303A206C6F772D6C6576656C2063616C6C206661696C6564 DUP2 MSTORE POP DUP6 PUSH1 0x1 PUSH1 0x1 PUSH1 0xA0 SHL SUB AND PUSH2 0xE8B SWAP1 SWAP3 SWAP2 SWAP1 PUSH4 0xFFFFFFFF AND JUMP JUMPDEST DUP1 MLOAD SWAP1 SWAP2 POP ISZERO PUSH2 0xD46 JUMPI DUP1 DUP1 PUSH1 0x20 ADD SWAP1 MLOAD DUP2 ADD SWAP1 PUSH2 0xE2C SWAP2 SWAP1 PUSH2 0x1249 JUMP JUMPDEST PUSH2 0xD46 JUMPI PUSH1 0x40 MLOAD PUSH3 0x461BCD PUSH1 0xE5 SHL DUP2 MSTORE PUSH1 0x20 PUSH1 0x4 DUP3 ADD MSTORE PUSH1 0x2A PUSH1 0x24 DUP3 ADD MSTORE PUSH32 0x5361666545524332303A204552433230206F7065726174696F6E20646964206E PUSH1 0x44 DUP3 ADD MSTORE PUSH10 0x1BDD081CDD58D8D95959 PUSH1 0xB2 SHL PUSH1 0x64 DUP3 ADD MSTORE PUSH1 0x84 ADD PUSH2 0x2CE JUMP JUMPDEST PUSH1 0x60 PUSH2 0xE9A DUP5 DUP5 PUSH1 0x0 DUP6 PUSH2 0xEA2 JUMP JUMPDEST SWAP5 SWAP4 POP POP POP POP JUMP JUMPDEST PUSH1 0x60 DUP3 SELFBALANCE LT ISZERO PUSH2 0xF03 JUMPI PUSH1 0x40 MLOAD PUSH3 0x461BCD PUSH1 0xE5 SHL DUP2 MSTORE PUSH1 0x20 PUSH1 0x4 DUP3 ADD MSTORE PUSH1 0x26 PUSH1 0x24 DUP3 ADD MSTORE PUSH32 0x416464726573733A20696E73756666696369656E742062616C616E636520666F PUSH1 0x44 DUP3 ADD MSTORE PUSH6 0x1C8818D85B1B PUSH1 0xD2 SHL PUSH1 0x64 DUP3 ADD MSTORE PUSH1 0x84 ADD PUSH2 0x2CE JUMP JUMPDEST PUSH1 0x0 DUP1 DUP7 PUSH1 0x1 PUSH1 0x1 PUSH1 0xA0 SHL SUB AND DUP6 DUP8 PUSH1 0x40 MLOAD PUSH2 0xF1F SWAP2 SWAP1 PUSH2 0x128F JUMP JUMPDEST PUSH1 0x0 PUSH1 0x40 MLOAD DUP1 DUP4 SUB DUP2 DUP6 DUP8 GAS CALL SWAP3 POP POP POP RETURNDATASIZE DUP1 PUSH1 0x0 DUP2 EQ PUSH2 0xF5C JUMPI PUSH1 0x40 MLOAD SWAP2 POP PUSH1 0x1F NOT PUSH1 0x3F RETURNDATASIZE ADD AND DUP3 ADD PUSH1 0x40 MSTORE RETURNDATASIZE DUP3 MSTORE RETURNDATASIZE PUSH1 0x0 PUSH1 0x20 DUP5 ADD RETURNDATACOPY PUSH2 0xF61 JUMP JUMPDEST PUSH1 0x60 SWAP2 POP JUMPDEST POP SWAP2 POP SWAP2 POP PUSH2 0xF72 DUP8 DUP4 DUP4 DUP8 PUSH2 0xF7D JUMP JUMPDEST SWAP8 SWAP7 POP POP POP POP POP POP POP JUMP JUMPDEST PUSH1 0x60 DUP4 ISZERO PUSH2 0xFEC JUMPI DUP3 MLOAD PUSH1 0x0 SUB PUSH2 0xFE5 JUMPI PUSH1 0x1 PUSH1 0x1 PUSH1 0xA0 SHL SUB DUP6 AND EXTCODESIZE PUSH2 0xFE5 JUMPI PUSH1 0x40 MLOAD PUSH3 0x461BCD PUSH1 0xE5 SHL DUP2 MSTORE PUSH1 0x20 PUSH1 0x4 DUP3 ADD MSTORE PUSH1 0x1D PUSH1 0x24 DUP3 ADD MSTORE PUSH32 0x416464726573733A2063616C6C20746F206E6F6E2D636F6E7472616374000000 PUSH1 0x44 DUP3 ADD MSTORE PUSH1 0x64 ADD PUSH2 0x2CE JUMP JUMPDEST POP DUP2 PUSH2 0xE9A JUMP JUMPDEST PUSH2 0xE9A DUP4 DUP4 DUP2 MLOAD ISZERO PUSH2 0x1001 JUMPI DUP2 MLOAD DUP1 DUP4 PUSH1 0x20 ADD REVERT JUMPDEST DUP1 PUSH1 0x40 MLOAD PUSH3 0x461BCD PUSH1 0xE5 SHL DUP2 MSTORE PUSH1 0x4 ADD PUSH2 0x2CE SWAP2 SWAP1 PUSH2 0x12AB JUMP JUMPDEST PUSH1 0x1 PUSH1 0x1 PUSH1 0xA0 SHL SUB DUP2 AND DUP2 EQ PUSH2 0x8F5 JUMPI PUSH1 0x0 DUP1 REVERT JUMPDEST PUSH1 0x0 PUSH1 0x20 DUP3 DUP5 SUB SLT ISZERO PUSH2 0x1042 JUMPI PUSH1 0x0 DUP1 REVERT JUMPDEST DUP2 CALLDATALOAD PUSH2 0x104D DUP2 PUSH2 0x101B JUMP JUMPDEST SWAP4 SWAP3 POP POP POP JUMP JUMPDEST PUSH1 0x0 PUSH1 0x20 DUP3 DUP5 SUB SLT ISZERO PUSH2 0x1066 JUMPI PUSH1 0x0 DUP1 REVERT JUMPDEST POP CALLDATALOAD SWAP2 SWAP1 POP JUMP JUMPDEST PUSH1 0x0 DUP1 PUSH1 0x0 DUP1 PUSH1 0x0 DUP1 PUSH1 0xC0 DUP8 DUP10 SUB SLT ISZERO PUSH2 0x1086 JUMPI PUSH1 0x0 DUP1 REVERT JUMPDEST DUP7 MLOAD PUSH2 0x1091 DUP2 PUSH2 0x101B JUMP JUMPDEST PUSH1 0x20 DUP9 ADD MLOAD SWAP1 SWAP7 POP PUSH2 0x10A2 DUP2 PUSH2 0x101B JUMP JUMPDEST PUSH1 0x40 DUP9 ADD MLOAD PUSH1 0x60 DUP10 ADD MLOAD PUSH1 0x80 DUP11 ADD MLOAD PUSH1 0xA0 SWAP1 SWAP11 ADD MLOAD SWAP9 SWAP12 SWAP3 SWAP11 POP SWAP1 SWAP9 SWAP1 SWAP8 SWAP1 SWAP7 POP SWAP5 POP SWAP3 POP POP POP JUMP JUMPDEST PUSH4 0x4E487B71 PUSH1 0xE0 SHL PUSH1 0x0 MSTORE PUSH1 0x11 PUSH1 0x4 MSTORE PUSH1 0x24 PUSH1 0x0 REVERT JUMPDEST DUP2 DUP2 SUB DUP2 DUP2 GT ISZERO PUSH2 0xBF8 JUMPI PUSH2 0xBF8 PUSH2 0x10CB JUMP JUMPDEST DUP1 DUP3 MUL DUP2 ISZERO DUP3 DUP3 DIV DUP5 EQ OR PUSH2 0xBF8 JUMPI PUSH2 0xBF8 PUSH2 0x10CB JUMP JUMPDEST DUP1 DUP3 ADD DUP1 DUP3 GT ISZERO PUSH2 0xBF8 JUMPI PUSH2 0xBF8 PUSH2 0x10CB JUMP JUMPDEST PUSH1 0x0 PUSH1 0x20 DUP3 DUP5 SUB SLT ISZERO PUSH2 0x1130 JUMPI PUSH1 0x0 DUP1 REVERT JUMPDEST POP MLOAD SWAP2 SWAP1 POP JUMP JUMPDEST PUSH1 0x1 DUP2 DUP2 JUMPDEST DUP1 DUP6 GT ISZERO PUSH2 0x1172 JUMPI DUP2 PUSH1 0x0 NOT DIV DUP3 GT ISZERO PUSH2 0x1158 JUMPI PUSH2 0x1158 PUSH2 0x10CB JUMP JUMPDEST DUP1 DUP6 AND ISZERO PUSH2 0x1165 JUMPI SWAP2 DUP2 MUL SWAP2 JUMPDEST SWAP4 DUP5 SHR SWAP4 SWAP1 DUP1 MUL SWAP1 PUSH2 0x113C JUMP JUMPDEST POP SWAP3 POP SWAP3 SWAP1 POP JUMP JUMPDEST PUSH1 0x0 DUP3 PUSH2 0x1189 JUMPI POP PUSH1 0x1 PUSH2 0xBF8 JUMP JUMPDEST DUP2 PUSH2 0x1196 JUMPI POP PUSH1 0x0 PUSH2 0xBF8 JUMP JUMPDEST DUP2 PUSH1 0x1 DUP2 EQ PUSH2 0x11AC JUMPI PUSH1 0x2 DUP2 EQ PUSH2 0x11B6 JUMPI PUSH2 0x11D2 JUMP JUMPDEST PUSH1 0x1 SWAP2 POP POP PUSH2 0xBF8 JUMP JUMPDEST PUSH1 0xFF DUP5 GT ISZERO PUSH2 0x11C7 JUMPI PUSH2 0x11C7 PUSH2 0x10CB JUMP JUMPDEST POP POP PUSH1 0x1 DUP3 SHL PUSH2 0xBF8 JUMP JUMPDEST POP PUSH1 0x20 DUP4 LT PUSH2 0x133 DUP4 LT AND PUSH1 0x4E DUP5 LT PUSH1 0xB DUP5 LT AND OR ISZERO PUSH2 0x11F5 JUMPI POP DUP2 DUP2 EXP PUSH2 0xBF8 JUMP JUMPDEST PUSH2 0x11FF DUP4 DUP4 PUSH2 0x1137 JUMP JUMPDEST DUP1 PUSH1 0x0 NOT DIV DUP3 GT ISZERO PUSH2 0x1213 JUMPI PUSH2 0x1213 PUSH2 0x10CB JUMP JUMPDEST MUL SWAP4 SWAP3 POP POP POP JUMP JUMPDEST PUSH1 0x0 PUSH2 0xBF5 DUP4 DUP4 PUSH2 0x117A JUMP JUMPDEST PUSH1 0x0 DUP3 PUSH2 0x1244 JUMPI PUSH4 0x4E487B71 PUSH1 0xE0 SHL PUSH1 0x0 MSTORE PUSH1 0x12 PUSH1 0x4 MSTORE PUSH1 0x24 PUSH1 0x0 REVERT JUMPDEST POP DIV SWAP1 JUMP JUMPDEST PUSH1 0x0 PUSH1 0x20 DUP3 DUP5 SUB SLT ISZERO PUSH2 0x125B JUMPI PUSH1 0x0 DUP1 REVERT JUMPDEST DUP2 MLOAD DUP1 ISZERO ISZERO DUP2 EQ PUSH2 0x104D JUMPI PUSH1 0x0 DUP1 REVERT JUMPDEST PUSH1 0x0 JUMPDEST DUP4 DUP2 LT ISZERO PUSH2 0x1286 JUMPI DUP2 DUP2 ADD MLOAD DUP4 DUP3 ADD MSTORE PUSH1 0x20 ADD PUSH2 0x126E JUMP JUMPDEST POP POP PUSH1 0x0 SWAP2 ADD MSTORE JUMP JUMPDEST PUSH1 0x0 DUP3 MLOAD PUSH2 0x12A1 DUP2 DUP5 PUSH1 0x20 DUP8 ADD PUSH2 0x126B JUMP JUMPDEST SWAP2 SWAP1 SWAP2 ADD SWAP3 SWAP2 POP POP JUMP JUMPDEST PUSH1 0x20 DUP2 MSTORE PUSH1 0x0 DUP3 MLOAD DUP1 PUSH1 0x20 DUP5 ADD MSTORE PUSH2 0x12CA DUP2 PUSH1 0x40 DUP6 ADD PUSH1 0x20 DUP8 ADD PUSH2 0x126B JUMP JUMPDEST PUSH1 0x1F ADD PUSH1 0x1F NOT AND SWAP2 SWAP1 SWAP2 ADD PUSH1 0x40 ADD SWAP3 SWAP2 POP POP JUMP INVALID LOG2 PUSH5 0x6970667358 0x22 SLT KECCAK256 BLOCKHASH PUSH29 0x355C14C8AA5FF6AB7ABA6E205F08987313371C53B9AEF27543445EDB8B DUP1 PUSH5 0x736F6C6343 STOP ADDMOD GT STOP CALLER ","sha1":"2341b44c8b95bab08f8a2fc86c0883b16fbde622","source":"// SPDX-License-Identifier: GPL-3.0-or-later\npragma solidity 0.8.17;\n\nimport \"@openzeppelin/contracts/access/Ownable.sol\";\nimport \"@openzeppelin/contracts/token/ERC20/IERC20.sol\";\nimport \"@openzeppelin/contracts/token/ERC20/utils/SafeERC20.sol\";\n\nimport \"../libraries/ScaledMath.sol\";\n\nimport \"../interfaces/ICNCDistributor.sol\";\nimport \"../interfaces/vendor/ICurveGauge.sol\";\n\ncontract CNCDistributor is ICNCDistributor, Ownable {\n    using SafeERC20 for IERC20;\n    using ScaledMath for uint256;\n\n    IERC20 public constant CNC = IERC20(0x9aE380F0272E2162340a5bB646c354271c0F5cFC);\n    address public constant TREASURY = 0xB27DC5f8286f063F11491c8f349053cB37718bea;\n    ICurveGauge public constant CNC_ETH_GAUGE =\n        ICurveGauge(0x5A8fa46ebb404494D718786e55c4E043337B10bF);\n\n    uint256 internal constant INITIAL_INFLATION_RATE = 240_000 * 1e18;\n    uint256 internal constant INFLATION_RATE_DECAY = 0.3999999 * 1e18;\n    uint256 internal constant INFLATION_RATE_PERIOD = 358 days; // @dev: avoid inflation running over by 1 week\n\n    bool public override isShutdown;\n    uint256 public override gaugeInflationShare = 0.45e18;\n    uint256 public override currentInflationRate;\n    uint256 public override lastInflationRateDecay;\n\n    constructor() {\n        currentInflationRate = INITIAL_INFLATION_RATE / INFLATION_RATE_PERIOD;\n        lastInflationRateDecay = block.timestamp;\n    }\n\n    function topUpGauge() public override {\n        require(!isShutdown, \"contract is shutdown\");\n        uint256 gaugeInflationRate = gaugeInflationShare.mulDown(currentInflationRate);\n\n        (, , uint256 periodFinish, , , ) = CNC_ETH_GAUGE.reward_data(address(CNC));\n        uint256 amount;\n        if (block.timestamp < periodFinish) {\n            uint256 remainder = periodFinish - block.timestamp;\n            amount = (7 days - remainder) * gaugeInflationRate;\n        } else {\n            uint256 diff = block.timestamp - periodFinish;\n            amount = (diff + 7 days) * gaugeInflationRate;\n        }\n\n        require(CNC.balanceOf(address(this)) >= amount, \"Insufficient CNC balance\");\n        CNC.safeApprove(address(CNC_ETH_GAUGE), amount);\n        CNC_ETH_GAUGE.deposit_reward_token(address(CNC), amount);\n\n        emit GaugeTopUp(amount);\n    }\n\n    function donate(uint256 amount) external override {\n        require(!isShutdown, \"contract is shutdown\");\n        CNC.safeTransferFrom(msg.sender, address(this), amount);\n    }\n\n    function withdrawOtherToken(address token) external override onlyOwner {\n        require(token != address(CNC), \"invalid token to send to treasury\");\n        IERC20(token).safeTransfer(TREASURY, IERC20(token).balanceOf(address(this)));\n    }\n\n    function updateInflationShare(uint256 _gaugeInflationShare) external onlyOwner {\n        require(_gaugeInflationShare <= 1e18, \"inflation share can not exceed 100%\");\n        require(\n            _gaugeInflationShare != gaugeInflationShare,\n            \"new inflation shares must be different\"\n        );\n        gaugeInflationShare = _gaugeInflationShare;\n\n        emit InflationSharesUpdated(_gaugeInflationShare);\n    }\n\n    function _executeInflationRateUpdate() internal {\n        if (block.timestamp >= lastInflationRateDecay + INFLATION_RATE_PERIOD) {\n            currentInflationRate = currentInflationRate.mulDown(INFLATION_RATE_DECAY);\n            lastInflationRateDecay = block.timestamp;\n        }\n    }\n\n    function executeInflationRateUpdate() external override onlyOwner {\n        _executeInflationRateUpdate();\n    }\n\n    function setGaugeRewardDistributor(address newDistributor) external onlyOwner {\n        require(isShutdown, \"Distributor is not shutdown\");\n        require(newDistributor != address(0), \"Can not be zero address\");\n        CNC_ETH_GAUGE.set_reward_distributor(address(CNC), newDistributor);\n    }\n\n    function shutdown() external override onlyOwner {\n        require(!isShutdown, \"is already shutdown\");\n        isShutdown = true;\n        CNC.safeTransfer(TREASURY, CNC.balanceOf(address(this)));\n    }\n}\n","sourcePath":"contracts/CNCDistributor.sol","deployment":{"address":"0x74eA6D777a4aEC782EBA0AcAE61142AAc69D3E2F","chainid":"1","blockHeight":16997523}}