{"abi":[{"inputs":[{"internalType":"address","name":"_controller","type":"address"}],"stateMutability":"nonpayable","type":"constructor","name":"constructor"},{"inputs":[{"internalType":"address[]","name":"_curvePools","type":"address[]"},{"internalType":"address","name":"_conicPool","type":"address"}],"name":"claimBatchEarnings","outputs":[],"stateMutability":"nonpayable","type":"function"},{"inputs":[{"internalType":"address","name":"_curvePool","type":"address"},{"internalType":"address","name":"_conicPool","type":"address"}],"name":"claimEarnings","outputs":[],"stateMutability":"nonpayable","type":"function"},{"inputs":[{"internalType":"uint256","name":"crvAmount","type":"uint256"}],"name":"computeClaimableConvex","outputs":[{"internalType":"uint256","name":"","type":"uint256"}],"stateMutability":"view","type":"function"},{"inputs":[],"name":"controller","outputs":[{"internalType":"contract IController","name":"","type":"address"}],"stateMutability":"view","type":"function"},{"inputs":[{"internalType":"address","name":"_curvePool","type":"address"},{"internalType":"uint256","name":"_amount","type":"uint256"}],"name":"deposit","outputs":[],"stateMutability":"nonpayable","type":"function"},{"inputs":[{"internalType":"address","name":"_account","type":"address"},{"internalType":"address","name":"_curvePool","type":"address"}],"name":"getCrvEarned","outputs":[{"internalType":"uint256","name":"","type":"uint256"}],"stateMutability":"view","type":"function"},{"inputs":[{"internalType":"address","name":"_account","type":"address"},{"internalType":"address[]","name":"_curvePools","type":"address[]"}],"name":"getCrvEarnedBatch","outputs":[{"internalType":"uint256","name":"","type":"uint256"}],"stateMutability":"view","type":"function"},{"inputs":[{"internalType":"address","name":"_curvePool","type":"address"}],"name":"getRewardPool","outputs":[{"internalType":"address","name":"","type":"address"}],"stateMutability":"view","type":"function"},{"inputs":[{"internalType":"address","name":"_curvePool","type":"address"},{"internalType":"uint256","name":"_amount","type":"uint256"}],"name":"withdraw","outputs":[],"stateMutability":"nonpayable","type":"function"}],"bytecode":"60a060405234801561001057600080fd5b50604051610e0c380380610e0c83398101604081905261002f91610040565b6001600160a01b0316608052610070565b60006020828403121561005257600080fd5b81516001600160a01b038116811461006957600080fd5b9392505050565b608051610d576100b56000396000818161016201528181610189015281816103ef015281816104df015281816105e50152818161078e01526108b50152610d576000f3fe608060405234801561001057600080fd5b50600436106100935760003560e01c8063970de38111610066578063970de38114610111578063bc810e2614610124578063d833500814610137578063f3fef3a31461014a578063f77c47911461015d57600080fd5b8063212f9b4f14610098578063323808cd146100be57806347e7ef24146100d1578063514a9009146100e6575b600080fd5b6100ab6100a6366004610a34565b610184565b6040519081526020015b60405180910390f35b6100ab6100cc366004610a6d565b6102eb565b6100e46100df366004610a86565b6103eb565b005b6100f96100f4366004610ab2565b6105e1565b6040516001600160a01b0390911681526020016100b5565b6100e461011f366004610a34565b6106d1565b6100e4610132366004610b8e565b6106df565b6100ab610145366004610bd5565b61072b565b6100e4610158366004610a86565b61078a565b6100f97f000000000000000000000000000000000000000000000000000000000000000081565b6000807f00000000000000000000000000000000000000000000000000000000000000006001600160a01b0316639f82b2176040518163ffffffff1660e01b8152600401602060405180830381865afa1580156101e5573d6000803e3d6000fd5b505050506040513d601f19601f820116820180604052508101906102099190610c25565b60405163514a900960e01b81526001600160a01b038581166004830152919091169063514a900990602401602060405180830381865afa158015610251573d6000803e3d6000fd5b505050506040513d601f19601f820116820180604052508101906102759190610c25565b6040516246613160e11b81526001600160a01b03868116600483015291925090821690628cc26290602401602060405180830381865afa1580156102bd573d6000803e3d6000fd5b505050506040513d601f19601f820116820180604052508101906102e19190610c42565b9150505b92915050565b600080734e3fbd56cd56c3e72c1403e103b45db9da5b9d2b6001600160a01b03166318160ddd6040518163ffffffff1660e01b8152600401602060405180830381865afa158015610340573d6000803e3d6000fd5b505050506040513d601f19601f820116820180604052508101906103649190610c42565b9050600061037c69152d02c7e14af680000083610c71565b90506103e88110610391575060009392505050565b600061039f826103e8610c93565b905060006103e86103b08388610ca6565b6103ba9190610c71565b905060006103d3856a52b7d2dcc80cd2e4000000610c93565b9050808211156103e1578091505b5095945050505050565b60007f00000000000000000000000000000000000000000000000000000000000000006001600160a01b0316639f82b2176040518163ffffffff1660e01b8152600401602060405180830381865afa15801561044b573d6000803e3d6000fd5b505050506040513d601f19601f8201168201806040525081019061046f9190610c25565b6040516343b55f3560e01b81526001600160a01b03858116600483015291909116906343b55f3590602401602060405180830381865afa1580156104b7573d6000803e3d6000fd5b505050506040513d601f19601f820116820180604052508101906104db9190610c42565b90507f00000000000000000000000000000000000000000000000000000000000000006001600160a01b0316632cdacb506040518163ffffffff1660e01b8152600401602060405180830381865afa15801561053b573d6000803e3d6000fd5b505050506040513d601f19601f8201168201806040525081019061055f9190610c25565b6040516321d0683360e11b81526004810183905260248101849052600160448201526001600160a01b0391909116906343a0d066906064015b6020604051808303816000875af11580156105b7573d6000803e3d6000fd5b505050506040513d601f19601f820116820180604052508101906105db9190610cbd565b50505050565b60007f00000000000000000000000000000000000000000000000000000000000000006001600160a01b0316639f82b2176040518163ffffffff1660e01b8152600401602060405180830381865afa158015610641573d6000803e3d6000fd5b505050506040513d601f19601f820116820180604052508101906106659190610c25565b60405163514a900960e01b81526001600160a01b038481166004830152919091169063514a900990602401602060405180830381865afa1580156106ad573d6000803e3d6000fd5b505050506040513d601f19601f820116820180604052508101906102e59190610c25565b6106db82826108b1565b5050565b60005b82518110156107265760008382815181106106ff576106ff610cdf565b6020026020010151905061071381846108b1565b508061071e81610cf5565b9150506106e2565b505050565b60008060005b835181101561078257600084828151811061074e5761074e610cdf565b602002602001015190506107628682610184565b61076c9084610d0e565b925050808061077a90610cf5565b915050610731565b509392505050565b60007f00000000000000000000000000000000000000000000000000000000000000006001600160a01b0316639f82b2176040518163ffffffff1660e01b8152600401602060405180830381865afa1580156107ea573d6000803e3d6000fd5b505050506040513d601f19601f8201168201806040525081019061080e9190610c25565b60405163514a900960e01b81526001600160a01b038581166004830152919091169063514a900990602401602060405180830381865afa158015610856573d6000803e3d6000fd5b505050506040513d601f19601f8201168201806040525081019061087a9190610c25565b604051636197390160e11b815260048101849052600160248201529091506001600160a01b0382169063c32e720290604401610598565b60007f00000000000000000000000000000000000000000000000000000000000000006001600160a01b0316639f82b2176040518163ffffffff1660e01b8152600401602060405180830381865afa158015610911573d6000803e3d6000fd5b505050506040513d601f19601f820116820180604052508101906109359190610c25565b60405163514a900960e01b81526001600160a01b038581166004830152919091169063514a900990602401602060405180830381865afa15801561097d573d6000803e3d6000fd5b505050506040513d601f19601f820116820180604052508101906109a19190610c25565b604051637050ccd960e01b81526001600160a01b0384811660048301526001602483015291925090821690637050ccd990604401600060405180830381600087803b1580156109ef57600080fd5b505af1158015610a03573d6000803e3d6000fd5b50505050505050565b6001600160a01b0381168114610a2157600080fd5b50565b8035610a2f81610a0c565b919050565b60008060408385031215610a4757600080fd5b8235610a5281610a0c565b91506020830135610a6281610a0c565b809150509250929050565b600060208284031215610a7f57600080fd5b5035919050565b60008060408385031215610a9957600080fd5b8235610aa481610a0c565b946020939093013593505050565b600060208284031215610ac457600080fd5b8135610acf81610a0c565b9392505050565b634e487b7160e01b600052604160045260246000fd5b600082601f830112610afd57600080fd5b8135602067ffffffffffffffff80831115610b1a57610b1a610ad6565b8260051b604051601f19603f83011681018181108482111715610b3f57610b3f610ad6565b604052938452858101830193838101925087851115610b5d57600080fd5b83870191505b84821015610b8357610b7482610a24565b83529183019190830190610b63565b979650505050505050565b60008060408385031215610ba157600080fd5b823567ffffffffffffffff811115610bb857600080fd5b610bc485828601610aec565b9250506020830135610a6281610a0c565b60008060408385031215610be857600080fd5b8235610bf381610a0c565b9150602083013567ffffffffffffffff811115610c0f57600080fd5b610c1b85828601610aec565b9150509250929050565b600060208284031215610c3757600080fd5b8151610acf81610a0c565b600060208284031215610c5457600080fd5b5051919050565b634e487b7160e01b600052601160045260246000fd5b600082610c8e57634e487b7160e01b600052601260045260246000fd5b500490565b818103818111156102e5576102e5610c5b565b80820281158282048414176102e5576102e5610c5b565b600060208284031215610ccf57600080fd5b81518015158114610acf57600080fd5b634e487b7160e01b600052603260045260246000fd5b600060018201610d0757610d07610c5b565b5060010190565b808201808211156102e5576102e5610c5b56fea26469706673582212206ab370cb584e5028f23331db5d0899500fe7f5e9b019e4b6a821dc9466402f4264736f6c63430008110033","bytecodeSha1":"0dfc480353880cbd866a69191fe35eaed578ac6d","compiler":{"evm_version":"istanbul","optimizer":{"enabled":true,"runs":200},"version":"0.8.17+commit.8df45f5f"},"contractName":"ConvexHandler","language":"Solidity","natspec":{"kind":"dev","methods":{"claimBatchEarnings(address[],address)":{"notice":"Claims CRV, CVX and extra rewards from Convex for multiple Curve LP tokens staked.","params":{"_conicPool":"Conic pool for which rewards will be claimed.","_curvePools":"List of Curve pools from which LP tokens have been deposited"}},"claimEarnings(address,address)":{"notice":"Claims CRV, CVX and extra rewards from Convex on behalf of a Conic pool.","params":{"_conicPool":"Conic pool for which rewards will be claimed.","_curvePool":"Curve pool from which LP tokens have been deposited on Convex."}},"computeClaimableConvex(uint256)":{"details":"Not easily computable from the CVX token contract","notice":"Computes how much CVX can be claimed for an amount of CRV earned","params":{"crvAmount":"Amount of CRV for which CVX will be minted pro rata."},"returns":{"_0":"CVX amount that would be minted."}},"deposit(address,uint256)":{"notice":"Deposits a Curve LP token on Convex and stakes the Convex Curve LP token in the respective CRV rewards contract on Convex.","params":{"_amount":"Amount of Curve LP tokens to deposit","_curvePool":"Curve Pool for which LP tokens should be deposited"}},"getCrvEarned(address,address)":{"notice":"Gets total amount of CRV earned by an account from staking an amount of Curve LP tokens via Convex for a single Curve pool.","params":{"_account":"Account which staked an amount of Curve LP tokens.","_curvePool":"Curve pool for which earned CRV should be computed."},"returns":{"_0":"Total amount of CRV earned."}},"getCrvEarnedBatch(address,address[])":{"notice":"Gets total amount of CRV earned by an account from staking multiple Curve LP tokens via Convex.","params":{"_account":"Account which staked Curve LP tokens.","_curvePools":"List of Curve pools for which earned CRV should be computed."},"returns":{"_0":"Total amount of CRV earned."}},"withdraw(address,uint256)":{"details":"Curve LP tokens get unstaked from the Convex CRV rewards contract.","notice":"Withdraws Curve LP tokens from Convex.","params":{"_amount":"Amount of Curve LP tokens to withdraw.","_curvePool":"Curve pool for which LP tokens should be withdrawn."}}},"version":1},"opcodes":"PUSH1 0x80 PUSH1 0x40 MSTORE CALLVALUE DUP1 ISZERO PUSH2 0x10 JUMPI PUSH1 0x0 DUP1 REVERT JUMPDEST POP PUSH1 0x4 CALLDATASIZE LT PUSH2 0x93 JUMPI PUSH1 0x0 CALLDATALOAD PUSH1 0xE0 SHR DUP1 PUSH4 0x970DE381 GT PUSH2 0x66 JUMPI DUP1 PUSH4 0x970DE381 EQ PUSH2 0x111 JUMPI DUP1 PUSH4 0xBC810E26 EQ PUSH2 0x124 JUMPI DUP1 PUSH4 0xD8335008 EQ PUSH2 0x137 JUMPI DUP1 PUSH4 0xF3FEF3A3 EQ PUSH2 0x14A JUMPI DUP1 PUSH4 0xF77C4791 EQ PUSH2 0x15D JUMPI PUSH1 0x0 DUP1 REVERT JUMPDEST DUP1 PUSH4 0x212F9B4F EQ PUSH2 0x98 JUMPI DUP1 PUSH4 0x323808CD EQ PUSH2 0xBE JUMPI DUP1 PUSH4 0x47E7EF24 EQ PUSH2 0xD1 JUMPI DUP1 PUSH4 0x514A9009 EQ PUSH2 0xE6 JUMPI JUMPDEST PUSH1 0x0 DUP1 REVERT JUMPDEST PUSH2 0xAB PUSH2 0xA6 CALLDATASIZE PUSH1 0x4 PUSH2 0xA34 JUMP JUMPDEST PUSH2 0x184 JUMP JUMPDEST PUSH1 0x40 MLOAD SWAP1 DUP2 MSTORE PUSH1 0x20 ADD JUMPDEST PUSH1 0x40 MLOAD DUP1 SWAP2 SUB SWAP1 RETURN JUMPDEST PUSH2 0xAB PUSH2 0xCC CALLDATASIZE PUSH1 0x4 PUSH2 0xA6D JUMP JUMPDEST PUSH2 0x2EB JUMP JUMPDEST PUSH2 0xE4 PUSH2 0xDF CALLDATASIZE PUSH1 0x4 PUSH2 0xA86 JUMP JUMPDEST PUSH2 0x3EB JUMP JUMPDEST STOP JUMPDEST PUSH2 0xF9 PUSH2 0xF4 CALLDATASIZE PUSH1 0x4 PUSH2 0xAB2 JUMP JUMPDEST PUSH2 0x5E1 JUMP JUMPDEST PUSH1 0x40 MLOAD PUSH1 0x1 PUSH1 0x1 PUSH1 0xA0 SHL SUB SWAP1 SWAP2 AND DUP2 MSTORE PUSH1 0x20 ADD PUSH2 0xB5 JUMP JUMPDEST PUSH2 0xE4 PUSH2 0x11F CALLDATASIZE PUSH1 0x4 PUSH2 0xA34 JUMP JUMPDEST PUSH2 0x6D1 JUMP JUMPDEST PUSH2 0xE4 PUSH2 0x132 CALLDATASIZE PUSH1 0x4 PUSH2 0xB8E JUMP JUMPDEST PUSH2 0x6DF JUMP JUMPDEST PUSH2 0xAB PUSH2 0x145 CALLDATASIZE PUSH1 0x4 PUSH2 0xBD5 JUMP JUMPDEST PUSH2 0x72B JUMP JUMPDEST PUSH2 0xE4 PUSH2 0x158 CALLDATASIZE PUSH1 0x4 PUSH2 0xA86 JUMP JUMPDEST PUSH2 0x78A JUMP JUMPDEST PUSH2 0xF9 PUSH32 0x0 DUP2 JUMP JUMPDEST PUSH1 0x0 DUP1 PUSH32 0x0 PUSH1 0x1 PUSH1 0x1 PUSH1 0xA0 SHL SUB AND PUSH4 0x9F82B217 PUSH1 0x40 MLOAD DUP2 PUSH4 0xFFFFFFFF AND PUSH1 0xE0 SHL DUP2 MSTORE PUSH1 0x4 ADD PUSH1 0x20 PUSH1 0x40 MLOAD DUP1 DUP4 SUB DUP2 DUP7 GAS STATICCALL ISZERO DUP1 ISZERO PUSH2 0x1E5 JUMPI RETURNDATASIZE PUSH1 0x0 DUP1 RETURNDATACOPY RETURNDATASIZE PUSH1 0x0 REVERT JUMPDEST POP POP POP POP PUSH1 0x40 MLOAD RETURNDATASIZE PUSH1 0x1F NOT PUSH1 0x1F DUP3 ADD AND DUP3 ADD DUP1 PUSH1 0x40 MSTORE POP DUP2 ADD SWAP1 PUSH2 0x209 SWAP2 SWAP1 PUSH2 0xC25 JUMP JUMPDEST PUSH1 0x40 MLOAD PUSH4 0x514A9009 PUSH1 0xE0 SHL DUP2 MSTORE PUSH1 0x1 PUSH1 0x1 PUSH1 0xA0 SHL SUB DUP6 DUP2 AND PUSH1 0x4 DUP4 ADD MSTORE SWAP2 SWAP1 SWAP2 AND SWAP1 PUSH4 0x514A9009 SWAP1 PUSH1 0x24 ADD PUSH1 0x20 PUSH1 0x40 MLOAD DUP1 DUP4 SUB DUP2 DUP7 GAS STATICCALL ISZERO DUP1 ISZERO PUSH2 0x251 JUMPI RETURNDATASIZE PUSH1 0x0 DUP1 RETURNDATACOPY RETURNDATASIZE PUSH1 0x0 REVERT JUMPDEST POP POP POP POP PUSH1 0x40 MLOAD RETURNDATASIZE PUSH1 0x1F NOT PUSH1 0x1F DUP3 ADD AND DUP3 ADD DUP1 PUSH1 0x40 MSTORE POP DUP2 ADD SWAP1 PUSH2 0x275 SWAP2 SWAP1 PUSH2 0xC25 JUMP JUMPDEST PUSH1 0x40 MLOAD PUSH3 0x466131 PUSH1 0xE1 SHL DUP2 MSTORE PUSH1 0x1 PUSH1 0x1 PUSH1 0xA0 SHL SUB DUP7 DUP2 AND PUSH1 0x4 DUP4 ADD MSTORE SWAP2 SWAP3 POP SWAP1 DUP3 AND SWAP1 PUSH3 0x8CC262 SWAP1 PUSH1 0x24 ADD PUSH1 0x20 PUSH1 0x40 MLOAD DUP1 DUP4 SUB DUP2 DUP7 GAS STATICCALL ISZERO DUP1 ISZERO PUSH2 0x2BD JUMPI RETURNDATASIZE PUSH1 0x0 DUP1 RETURNDATACOPY RETURNDATASIZE PUSH1 0x0 REVERT JUMPDEST POP POP POP POP PUSH1 0x40 MLOAD RETURNDATASIZE PUSH1 0x1F NOT PUSH1 0x1F DUP3 ADD AND DUP3 ADD DUP1 PUSH1 0x40 MSTORE POP DUP2 ADD SWAP1 PUSH2 0x2E1 SWAP2 SWAP1 PUSH2 0xC42 JUMP JUMPDEST SWAP2 POP POP JUMPDEST SWAP3 SWAP2 POP POP JUMP JUMPDEST PUSH1 0x0 DUP1 PUSH20 0x4E3FBD56CD56C3E72C1403E103B45DB9DA5B9D2B PUSH1 0x1 PUSH1 0x1 PUSH1 0xA0 SHL SUB AND PUSH4 0x18160DDD PUSH1 0x40 MLOAD DUP2 PUSH4 0xFFFFFFFF AND PUSH1 0xE0 SHL DUP2 MSTORE PUSH1 0x4 ADD PUSH1 0x20 PUSH1 0x40 MLOAD DUP1 DUP4 SUB DUP2 DUP7 GAS STATICCALL ISZERO DUP1 ISZERO PUSH2 0x340 JUMPI RETURNDATASIZE PUSH1 0x0 DUP1 RETURNDATACOPY RETURNDATASIZE PUSH1 0x0 REVERT JUMPDEST POP POP POP POP PUSH1 0x40 MLOAD RETURNDATASIZE PUSH1 0x1F NOT PUSH1 0x1F DUP3 ADD AND DUP3 ADD DUP1 PUSH1 0x40 MSTORE POP DUP2 ADD SWAP1 PUSH2 0x364 SWAP2 SWAP1 PUSH2 0xC42 JUMP JUMPDEST SWAP1 POP PUSH1 0x0 PUSH2 0x37C PUSH10 0x152D02C7E14AF6800000 DUP4 PUSH2 0xC71 JUMP JUMPDEST SWAP1 POP PUSH2 0x3E8 DUP2 LT PUSH2 0x391 JUMPI POP PUSH1 0x0 SWAP4 SWAP3 POP POP POP JUMP JUMPDEST PUSH1 0x0 PUSH2 0x39F DUP3 PUSH2 0x3E8 PUSH2 0xC93 JUMP JUMPDEST SWAP1 POP PUSH1 0x0 PUSH2 0x3E8 PUSH2 0x3B0 DUP4 DUP9 PUSH2 0xCA6 JUMP JUMPDEST PUSH2 0x3BA SWAP2 SWAP1 PUSH2 0xC71 JUMP JUMPDEST SWAP1 POP PUSH1 0x0 PUSH2 0x3D3 DUP6 PUSH11 0x52B7D2DCC80CD2E4000000 PUSH2 0xC93 JUMP JUMPDEST SWAP1 POP DUP1 DUP3 GT ISZERO PUSH2 0x3E1 JUMPI DUP1 SWAP2 POP JUMPDEST POP SWAP6 SWAP5 POP POP POP POP POP JUMP JUMPDEST PUSH1 0x0 PUSH32 0x0 PUSH1 0x1 PUSH1 0x1 PUSH1 0xA0 SHL SUB AND PUSH4 0x9F82B217 PUSH1 0x40 MLOAD DUP2 PUSH4 0xFFFFFFFF AND PUSH1 0xE0 SHL DUP2 MSTORE PUSH1 0x4 ADD PUSH1 0x20 PUSH1 0x40 MLOAD DUP1 DUP4 SUB DUP2 DUP7 GAS STATICCALL ISZERO DUP1 ISZERO PUSH2 0x44B JUMPI RETURNDATASIZE PUSH1 0x0 DUP1 RETURNDATACOPY RETURNDATASIZE PUSH1 0x0 REVERT JUMPDEST POP POP POP POP PUSH1 0x40 MLOAD RETURNDATASIZE PUSH1 0x1F NOT PUSH1 0x1F DUP3 ADD AND DUP3 ADD DUP1 PUSH1 0x40 MSTORE POP DUP2 ADD SWAP1 PUSH2 0x46F SWAP2 SWAP1 PUSH2 0xC25 JUMP JUMPDEST PUSH1 0x40 MLOAD PUSH4 0x43B55F35 PUSH1 0xE0 SHL DUP2 MSTORE PUSH1 0x1 PUSH1 0x1 PUSH1 0xA0 SHL SUB DUP6 DUP2 AND PUSH1 0x4 DUP4 ADD MSTORE SWAP2 SWAP1 SWAP2 AND SWAP1 PUSH4 0x43B55F35 SWAP1 PUSH1 0x24 ADD PUSH1 0x20 PUSH1 0x40 MLOAD DUP1 DUP4 SUB DUP2 DUP7 GAS STATICCALL ISZERO DUP1 ISZERO PUSH2 0x4B7 JUMPI RETURNDATASIZE PUSH1 0x0 DUP1 RETURNDATACOPY RETURNDATASIZE PUSH1 0x0 REVERT JUMPDEST POP POP POP POP PUSH1 0x40 MLOAD RETURNDATASIZE PUSH1 0x1F NOT PUSH1 0x1F DUP3 ADD AND DUP3 ADD DUP1 PUSH1 0x40 MSTORE POP DUP2 ADD SWAP1 PUSH2 0x4DB SWAP2 SWAP1 PUSH2 0xC42 JUMP JUMPDEST SWAP1 POP PUSH32 0x0 PUSH1 0x1 PUSH1 0x1 PUSH1 0xA0 SHL SUB AND PUSH4 0x2CDACB50 PUSH1 0x40 MLOAD DUP2 PUSH4 0xFFFFFFFF AND PUSH1 0xE0 SHL DUP2 MSTORE PUSH1 0x4 ADD PUSH1 0x20 PUSH1 0x40 MLOAD DUP1 DUP4 SUB DUP2 DUP7 GAS STATICCALL ISZERO DUP1 ISZERO PUSH2 0x53B JUMPI RETURNDATASIZE PUSH1 0x0 DUP1 RETURNDATACOPY RETURNDATASIZE PUSH1 0x0 REVERT JUMPDEST POP POP POP POP PUSH1 0x40 MLOAD RETURNDATASIZE PUSH1 0x1F NOT PUSH1 0x1F DUP3 ADD AND DUP3 ADD DUP1 PUSH1 0x40 MSTORE POP DUP2 ADD SWAP1 PUSH2 0x55F SWAP2 SWAP1 PUSH2 0xC25 JUMP JUMPDEST PUSH1 0x40 MLOAD PUSH4 0x21D06833 PUSH1 0xE1 SHL DUP2 MSTORE PUSH1 0x4 DUP2 ADD DUP4 SWAP1 MSTORE PUSH1 0x24 DUP2 ADD DUP5 SWAP1 MSTORE PUSH1 0x1 PUSH1 0x44 DUP3 ADD MSTORE PUSH1 0x1 PUSH1 0x1 PUSH1 0xA0 SHL SUB SWAP2 SWAP1 SWAP2 AND SWAP1 PUSH4 0x43A0D066 SWAP1 PUSH1 0x64 ADD JUMPDEST PUSH1 0x20 PUSH1 0x40 MLOAD DUP1 DUP4 SUB DUP2 PUSH1 0x0 DUP8 GAS CALL ISZERO DUP1 ISZERO PUSH2 0x5B7 JUMPI RETURNDATASIZE PUSH1 0x0 DUP1 RETURNDATACOPY RETURNDATASIZE PUSH1 0x0 REVERT JUMPDEST POP POP POP POP PUSH1 0x40 MLOAD RETURNDATASIZE PUSH1 0x1F NOT PUSH1 0x1F DUP3 ADD AND DUP3 ADD DUP1 PUSH1 0x40 MSTORE POP DUP2 ADD SWAP1 PUSH2 0x5DB SWAP2 SWAP1 PUSH2 0xCBD JUMP JUMPDEST POP POP POP POP JUMP JUMPDEST PUSH1 0x0 PUSH32 0x0 PUSH1 0x1 PUSH1 0x1 PUSH1 0xA0 SHL SUB AND PUSH4 0x9F82B217 PUSH1 0x40 MLOAD DUP2 PUSH4 0xFFFFFFFF AND PUSH1 0xE0 SHL DUP2 MSTORE PUSH1 0x4 ADD PUSH1 0x20 PUSH1 0x40 MLOAD DUP1 DUP4 SUB DUP2 DUP7 GAS STATICCALL ISZERO DUP1 ISZERO PUSH2 0x641 JUMPI RETURNDATASIZE PUSH1 0x0 DUP1 RETURNDATACOPY RETURNDATASIZE PUSH1 0x0 REVERT JUMPDEST POP POP POP POP PUSH1 0x40 MLOAD RETURNDATASIZE PUSH1 0x1F NOT PUSH1 0x1F DUP3 ADD AND DUP3 ADD DUP1 PUSH1 0x40 MSTORE POP DUP2 ADD SWAP1 PUSH2 0x665 SWAP2 SWAP1 PUSH2 0xC25 JUMP JUMPDEST PUSH1 0x40 MLOAD PUSH4 0x514A9009 PUSH1 0xE0 SHL DUP2 MSTORE PUSH1 0x1 PUSH1 0x1 PUSH1 0xA0 SHL SUB DUP5 DUP2 AND PUSH1 0x4 DUP4 ADD MSTORE SWAP2 SWAP1 SWAP2 AND SWAP1 PUSH4 0x514A9009 SWAP1 PUSH1 0x24 ADD PUSH1 0x20 PUSH1 0x40 MLOAD DUP1 DUP4 SUB DUP2 DUP7 GAS STATICCALL ISZERO DUP1 ISZERO PUSH2 0x6AD JUMPI RETURNDATASIZE PUSH1 0x0 DUP1 RETURNDATACOPY RETURNDATASIZE PUSH1 0x0 REVERT JUMPDEST POP POP POP POP PUSH1 0x40 MLOAD RETURNDATASIZE PUSH1 0x1F NOT PUSH1 0x1F DUP3 ADD AND DUP3 ADD DUP1 PUSH1 0x40 MSTORE POP DUP2 ADD SWAP1 PUSH2 0x2E5 SWAP2 SWAP1 PUSH2 0xC25 JUMP JUMPDEST PUSH2 0x6DB DUP3 DUP3 PUSH2 0x8B1 JUMP JUMPDEST POP POP JUMP JUMPDEST PUSH1 0x0 JUMPDEST DUP3 MLOAD DUP2 LT ISZERO PUSH2 0x726 JUMPI PUSH1 0x0 DUP4 DUP3 DUP2 MLOAD DUP2 LT PUSH2 0x6FF JUMPI PUSH2 0x6FF PUSH2 0xCDF JUMP JUMPDEST PUSH1 0x20 MUL PUSH1 0x20 ADD ADD MLOAD SWAP1 POP PUSH2 0x713 DUP2 DUP5 PUSH2 0x8B1 JUMP JUMPDEST POP DUP1 PUSH2 0x71E DUP2 PUSH2 0xCF5 JUMP JUMPDEST SWAP2 POP POP PUSH2 0x6E2 JUMP JUMPDEST POP POP POP JUMP JUMPDEST PUSH1 0x0 DUP1 PUSH1 0x0 JUMPDEST DUP4 MLOAD DUP2 LT ISZERO PUSH2 0x782 JUMPI PUSH1 0x0 DUP5 DUP3 DUP2 MLOAD DUP2 LT PUSH2 0x74E JUMPI PUSH2 0x74E PUSH2 0xCDF JUMP JUMPDEST PUSH1 0x20 MUL PUSH1 0x20 ADD ADD MLOAD SWAP1 POP PUSH2 0x762 DUP7 DUP3 PUSH2 0x184 JUMP JUMPDEST PUSH2 0x76C SWAP1 DUP5 PUSH2 0xD0E JUMP JUMPDEST SWAP3 POP POP DUP1 DUP1 PUSH2 0x77A SWAP1 PUSH2 0xCF5 JUMP JUMPDEST SWAP2 POP POP PUSH2 0x731 JUMP JUMPDEST POP SWAP4 SWAP3 POP POP POP JUMP JUMPDEST PUSH1 0x0 PUSH32 0x0 PUSH1 0x1 PUSH1 0x1 PUSH1 0xA0 SHL SUB AND PUSH4 0x9F82B217 PUSH1 0x40 MLOAD DUP2 PUSH4 0xFFFFFFFF AND PUSH1 0xE0 SHL DUP2 MSTORE PUSH1 0x4 ADD PUSH1 0x20 PUSH1 0x40 MLOAD DUP1 DUP4 SUB DUP2 DUP7 GAS STATICCALL ISZERO DUP1 ISZERO PUSH2 0x7EA JUMPI RETURNDATASIZE PUSH1 0x0 DUP1 RETURNDATACOPY RETURNDATASIZE PUSH1 0x0 REVERT JUMPDEST POP POP POP POP PUSH1 0x40 MLOAD RETURNDATASIZE PUSH1 0x1F NOT PUSH1 0x1F DUP3 ADD AND DUP3 ADD DUP1 PUSH1 0x40 MSTORE POP DUP2 ADD SWAP1 PUSH2 0x80E SWAP2 SWAP1 PUSH2 0xC25 JUMP JUMPDEST PUSH1 0x40 MLOAD PUSH4 0x514A9009 PUSH1 0xE0 SHL DUP2 MSTORE PUSH1 0x1 PUSH1 0x1 PUSH1 0xA0 SHL SUB DUP6 DUP2 AND PUSH1 0x4 DUP4 ADD MSTORE SWAP2 SWAP1 SWAP2 AND SWAP1 PUSH4 0x514A9009 SWAP1 PUSH1 0x24 ADD PUSH1 0x20 PUSH1 0x40 MLOAD DUP1 DUP4 SUB DUP2 DUP7 GAS STATICCALL ISZERO DUP1 ISZERO PUSH2 0x856 JUMPI RETURNDATASIZE PUSH1 0x0 DUP1 RETURNDATACOPY RETURNDATASIZE PUSH1 0x0 REVERT JUMPDEST POP POP POP POP PUSH1 0x40 MLOAD RETURNDATASIZE PUSH1 0x1F NOT PUSH1 0x1F DUP3 ADD AND DUP3 ADD DUP1 PUSH1 0x40 MSTORE POP DUP2 ADD SWAP1 PUSH2 0x87A SWAP2 SWAP1 PUSH2 0xC25 JUMP JUMPDEST PUSH1 0x40 MLOAD PUSH4 0x61973901 PUSH1 0xE1 SHL DUP2 MSTORE PUSH1 0x4 DUP2 ADD DUP5 SWAP1 MSTORE PUSH1 0x1 PUSH1 0x24 DUP3 ADD MSTORE SWAP1 SWAP2 POP PUSH1 0x1 PUSH1 0x1 PUSH1 0xA0 SHL SUB DUP3 AND SWAP1 PUSH4 0xC32E7202 SWAP1 PUSH1 0x44 ADD PUSH2 0x598 JUMP JUMPDEST PUSH1 0x0 PUSH32 0x0 PUSH1 0x1 PUSH1 0x1 PUSH1 0xA0 SHL SUB AND PUSH4 0x9F82B217 PUSH1 0x40 MLOAD DUP2 PUSH4 0xFFFFFFFF AND PUSH1 0xE0 SHL DUP2 MSTORE PUSH1 0x4 ADD PUSH1 0x20 PUSH1 0x40 MLOAD DUP1 DUP4 SUB DUP2 DUP7 GAS STATICCALL ISZERO DUP1 ISZERO PUSH2 0x911 JUMPI RETURNDATASIZE PUSH1 0x0 DUP1 RETURNDATACOPY RETURNDATASIZE PUSH1 0x0 REVERT JUMPDEST POP POP POP POP PUSH1 0x40 MLOAD RETURNDATASIZE PUSH1 0x1F NOT PUSH1 0x1F DUP3 ADD AND DUP3 ADD DUP1 PUSH1 0x40 MSTORE POP DUP2 ADD SWAP1 PUSH2 0x935 SWAP2 SWAP1 PUSH2 0xC25 JUMP JUMPDEST PUSH1 0x40 MLOAD PUSH4 0x514A9009 PUSH1 0xE0 SHL DUP2 MSTORE PUSH1 0x1 PUSH1 0x1 PUSH1 0xA0 SHL SUB DUP6 DUP2 AND PUSH1 0x4 DUP4 ADD MSTORE SWAP2 SWAP1 SWAP2 AND SWAP1 PUSH4 0x514A9009 SWAP1 PUSH1 0x24 ADD PUSH1 0x20 PUSH1 0x40 MLOAD DUP1 DUP4 SUB DUP2 DUP7 GAS STATICCALL ISZERO DUP1 ISZERO PUSH2 0x97D JUMPI RETURNDATASIZE PUSH1 0x0 DUP1 RETURNDATACOPY RETURNDATASIZE PUSH1 0x0 REVERT JUMPDEST POP POP POP POP PUSH1 0x40 MLOAD RETURNDATASIZE PUSH1 0x1F NOT PUSH1 0x1F DUP3 ADD AND DUP3 ADD DUP1 PUSH1 0x40 MSTORE POP DUP2 ADD SWAP1 PUSH2 0x9A1 SWAP2 SWAP1 PUSH2 0xC25 JUMP JUMPDEST PUSH1 0x40 MLOAD PUSH4 0x7050CCD9 PUSH1 0xE0 SHL DUP2 MSTORE PUSH1 0x1 PUSH1 0x1 PUSH1 0xA0 SHL SUB DUP5 DUP2 AND PUSH1 0x4 DUP4 ADD MSTORE PUSH1 0x1 PUSH1 0x24 DUP4 ADD MSTORE SWAP2 SWAP3 POP SWAP1 DUP3 AND SWAP1 PUSH4 0x7050CCD9 SWAP1 PUSH1 0x44 ADD PUSH1 0x0 PUSH1 0x40 MLOAD DUP1 DUP4 SUB DUP2 PUSH1 0x0 DUP8 DUP1 EXTCODESIZE ISZERO DUP1 ISZERO PUSH2 0x9EF JUMPI PUSH1 0x0 DUP1 REVERT JUMPDEST POP GAS CALL ISZERO DUP1 ISZERO PUSH2 0xA03 JUMPI RETURNDATASIZE PUSH1 0x0 DUP1 RETURNDATACOPY RETURNDATASIZE PUSH1 0x0 REVERT JUMPDEST POP POP POP POP POP POP POP JUMP JUMPDEST PUSH1 0x1 PUSH1 0x1 PUSH1 0xA0 SHL SUB DUP2 AND DUP2 EQ PUSH2 0xA21 JUMPI PUSH1 0x0 DUP1 REVERT JUMPDEST POP JUMP JUMPDEST DUP1 CALLDATALOAD PUSH2 0xA2F DUP2 PUSH2 0xA0C JUMP JUMPDEST SWAP2 SWAP1 POP JUMP JUMPDEST PUSH1 0x0 DUP1 PUSH1 0x40 DUP4 DUP6 SUB SLT ISZERO PUSH2 0xA47 JUMPI PUSH1 0x0 DUP1 REVERT JUMPDEST DUP3 CALLDATALOAD PUSH2 0xA52 DUP2 PUSH2 0xA0C JUMP JUMPDEST SWAP2 POP PUSH1 0x20 DUP4 ADD CALLDATALOAD PUSH2 0xA62 DUP2 PUSH2 0xA0C JUMP JUMPDEST DUP1 SWAP2 POP POP SWAP3 POP SWAP3 SWAP1 POP JUMP JUMPDEST PUSH1 0x0 PUSH1 0x20 DUP3 DUP5 SUB SLT ISZERO PUSH2 0xA7F JUMPI PUSH1 0x0 DUP1 REVERT JUMPDEST POP CALLDATALOAD SWAP2 SWAP1 POP JUMP JUMPDEST PUSH1 0x0 DUP1 PUSH1 0x40 DUP4 DUP6 SUB SLT ISZERO PUSH2 0xA99 JUMPI PUSH1 0x0 DUP1 REVERT JUMPDEST DUP3 CALLDATALOAD PUSH2 0xAA4 DUP2 PUSH2 0xA0C JUMP JUMPDEST SWAP5 PUSH1 0x20 SWAP4 SWAP1 SWAP4 ADD CALLDATALOAD SWAP4 POP POP POP JUMP JUMPDEST PUSH1 0x0 PUSH1 0x20 DUP3 DUP5 SUB SLT ISZERO PUSH2 0xAC4 JUMPI PUSH1 0x0 DUP1 REVERT JUMPDEST DUP2 CALLDATALOAD PUSH2 0xACF DUP2 PUSH2 0xA0C JUMP JUMPDEST SWAP4 SWAP3 POP POP POP JUMP JUMPDEST PUSH4 0x4E487B71 PUSH1 0xE0 SHL PUSH1 0x0 MSTORE PUSH1 0x41 PUSH1 0x4 MSTORE PUSH1 0x24 PUSH1 0x0 REVERT JUMPDEST PUSH1 0x0 DUP3 PUSH1 0x1F DUP4 ADD SLT PUSH2 0xAFD JUMPI PUSH1 0x0 DUP1 REVERT JUMPDEST DUP2 CALLDATALOAD PUSH1 0x20 PUSH8 0xFFFFFFFFFFFFFFFF DUP1 DUP4 GT ISZERO PUSH2 0xB1A JUMPI PUSH2 0xB1A PUSH2 0xAD6 JUMP JUMPDEST DUP3 PUSH1 0x5 SHL PUSH1 0x40 MLOAD PUSH1 0x1F NOT PUSH1 0x3F DUP4 ADD AND DUP2 ADD DUP2 DUP2 LT DUP5 DUP3 GT OR ISZERO PUSH2 0xB3F JUMPI PUSH2 0xB3F PUSH2 0xAD6 JUMP JUMPDEST PUSH1 0x40 MSTORE SWAP4 DUP5 MSTORE DUP6 DUP2 ADD DUP4 ADD SWAP4 DUP4 DUP2 ADD SWAP3 POP DUP8 DUP6 GT ISZERO PUSH2 0xB5D JUMPI PUSH1 0x0 DUP1 REVERT JUMPDEST DUP4 DUP8 ADD SWAP2 POP JUMPDEST DUP5 DUP3 LT ISZERO PUSH2 0xB83 JUMPI PUSH2 0xB74 DUP3 PUSH2 0xA24 JUMP JUMPDEST DUP4 MSTORE SWAP2 DUP4 ADD SWAP2 SWAP1 DUP4 ADD SWAP1 PUSH2 0xB63 JUMP JUMPDEST SWAP8 SWAP7 POP POP POP POP POP POP POP JUMP JUMPDEST PUSH1 0x0 DUP1 PUSH1 0x40 DUP4 DUP6 SUB SLT ISZERO PUSH2 0xBA1 JUMPI PUSH1 0x0 DUP1 REVERT JUMPDEST DUP3 CALLDATALOAD PUSH8 0xFFFFFFFFFFFFFFFF DUP2 GT ISZERO PUSH2 0xBB8 JUMPI PUSH1 0x0 DUP1 REVERT JUMPDEST PUSH2 0xBC4 DUP6 DUP3 DUP7 ADD PUSH2 0xAEC JUMP JUMPDEST SWAP3 POP POP PUSH1 0x20 DUP4 ADD CALLDATALOAD PUSH2 0xA62 DUP2 PUSH2 0xA0C JUMP JUMPDEST PUSH1 0x0 DUP1 PUSH1 0x40 DUP4 DUP6 SUB SLT ISZERO PUSH2 0xBE8 JUMPI PUSH1 0x0 DUP1 REVERT JUMPDEST DUP3 CALLDATALOAD PUSH2 0xBF3 DUP2 PUSH2 0xA0C JUMP JUMPDEST SWAP2 POP PUSH1 0x20 DUP4 ADD CALLDATALOAD PUSH8 0xFFFFFFFFFFFFFFFF DUP2 GT ISZERO PUSH2 0xC0F JUMPI PUSH1 0x0 DUP1 REVERT JUMPDEST PUSH2 0xC1B DUP6 DUP3 DUP7 ADD PUSH2 0xAEC JUMP JUMPDEST SWAP2 POP POP SWAP3 POP SWAP3 SWAP1 POP JUMP JUMPDEST PUSH1 0x0 PUSH1 0x20 DUP3 DUP5 SUB SLT ISZERO PUSH2 0xC37 JUMPI PUSH1 0x0 DUP1 REVERT JUMPDEST DUP2 MLOAD PUSH2 0xACF DUP2 PUSH2 0xA0C JUMP JUMPDEST PUSH1 0x0 PUSH1 0x20 DUP3 DUP5 SUB SLT ISZERO PUSH2 0xC54 JUMPI PUSH1 0x0 DUP1 REVERT JUMPDEST POP MLOAD SWAP2 SWAP1 POP JUMP JUMPDEST PUSH4 0x4E487B71 PUSH1 0xE0 SHL PUSH1 0x0 MSTORE PUSH1 0x11 PUSH1 0x4 MSTORE PUSH1 0x24 PUSH1 0x0 REVERT JUMPDEST PUSH1 0x0 DUP3 PUSH2 0xC8E JUMPI PUSH4 0x4E487B71 PUSH1 0xE0 SHL PUSH1 0x0 MSTORE PUSH1 0x12 PUSH1 0x4 MSTORE PUSH1 0x24 PUSH1 0x0 REVERT JUMPDEST POP DIV SWAP1 JUMP JUMPDEST DUP2 DUP2 SUB DUP2 DUP2 GT ISZERO PUSH2 0x2E5 JUMPI PUSH2 0x2E5 PUSH2 0xC5B JUMP JUMPDEST DUP1 DUP3 MUL DUP2 ISZERO DUP3 DUP3 DIV DUP5 EQ OR PUSH2 0x2E5 JUMPI PUSH2 0x2E5 PUSH2 0xC5B JUMP JUMPDEST PUSH1 0x0 PUSH1 0x20 DUP3 DUP5 SUB SLT ISZERO PUSH2 0xCCF JUMPI PUSH1 0x0 DUP1 REVERT JUMPDEST DUP2 MLOAD DUP1 ISZERO ISZERO DUP2 EQ PUSH2 0xACF JUMPI PUSH1 0x0 DUP1 REVERT JUMPDEST PUSH4 0x4E487B71 PUSH1 0xE0 SHL PUSH1 0x0 MSTORE PUSH1 0x32 PUSH1 0x4 MSTORE PUSH1 0x24 PUSH1 0x0 REVERT JUMPDEST PUSH1 0x0 PUSH1 0x1 DUP3 ADD PUSH2 0xD07 JUMPI PUSH2 0xD07 PUSH2 0xC5B JUMP JUMPDEST POP PUSH1 0x1 ADD SWAP1 JUMP JUMPDEST DUP1 DUP3 ADD DUP1 DUP3 GT ISZERO PUSH2 0x2E5 JUMPI PUSH2 0x2E5 PUSH2 0xC5B JUMP INVALID LOG2 PUSH5 0x6970667358 0x22 SLT KECCAK256 PUSH11 0xB370CB584E5028F23331DB 0x5D ADDMOD SWAP10 POP 0xF 0xE7 CREATE2 0xE9 0xB0 NOT 0xE4 0xB6 0xA8 0x21 0xDC SWAP5 PUSH7 0x402F4264736F6C PUSH4 0x43000811 STOP CALLER ","sha1":"f16c5a4cf7d91a489d956e41c1b3fdde006f3d00","source":"// SPDX-License-Identifier: GPL-3.0-or-later\npragma solidity 0.8.17;\n\nimport \"@openzeppelin/contracts/token/ERC20/utils/SafeERC20.sol\";\nimport \"@openzeppelin/contracts/token/ERC20/IERC20.sol\";\n\nimport \"../interfaces/IConvexHandler.sol\";\nimport \"../interfaces/pools/ILpToken.sol\";\nimport \"../interfaces/vendor/IRewardStaking.sol\";\nimport \"../interfaces/vendor/IBooster.sol\";\nimport \"../interfaces/vendor/IBaseRewardPool.sol\";\nimport \"../interfaces/ICurveRegistryCache.sol\";\nimport \"../interfaces/IController.sol\";\n\ncontract ConvexHandler is IConvexHandler {\n    using SafeERC20 for IERC20;\n\n    uint256 internal constant _CLIFF_COUNT = 1000;\n    uint256 internal constant _CLIFF_SIZE = 100_000e18;\n    uint256 internal constant _MAX_CVX_SUPPLY = 100_000_000e18;\n    address internal constant _CVX_TOKEN = address(0x4e3FBD56CD56c3e72c1403e103b45Db9da5B9D2B);\n\n    IController public immutable controller;\n\n    constructor(address _controller) {\n        controller = IController(_controller);\n    }\n\n    /// @notice Deposits a Curve LP token on Convex and stakes the Convex\n    /// Curve LP token in the respective CRV rewards contract on Convex.\n    /// @param _curvePool Curve Pool for which LP tokens should be deposited\n    /// @param _amount Amount of Curve LP tokens to deposit\n    function deposit(address _curvePool, uint256 _amount) external {\n        uint256 pid = controller.curveRegistryCache().getPid(_curvePool);\n        IBooster(controller.convexBooster()).deposit(pid, _amount, true);\n    }\n\n    /// @notice Withdraws Curve LP tokens from Convex.\n    /// @dev Curve LP tokens get unstaked from the Convex CRV rewards contract.\n    /// @param _curvePool Curve pool for which LP tokens should be withdrawn.\n    /// @param _amount Amount of Curve LP tokens to withdraw.\n    function withdraw(address _curvePool, uint256 _amount) external {\n        address rewardPool = controller.curveRegistryCache().getRewardPool(_curvePool);\n        IBaseRewardPool(rewardPool).withdrawAndUnwrap(_amount, true);\n    }\n\n    /// @notice Claims CRV, CVX and extra rewards from Convex on behalf of a Conic pool.\n    /// @param _curvePool Curve pool from which LP tokens have been deposited on Convex.\n    /// @param _conicPool Conic pool for which rewards will be claimed.\n    function claimEarnings(address _curvePool, address _conicPool) external {\n        _claimConvexReward(_curvePool, _conicPool);\n    }\n\n    /// @notice Claims CRV, CVX and extra rewards from Convex for multiple Curve LP tokens staked.\n    /// @param _curvePools List of Curve pools from which LP tokens have been deposited\n    /// @param _conicPool Conic pool for which rewards will be claimed.\n    function claimBatchEarnings(address[] memory _curvePools, address _conicPool) external {\n        for (uint256 i; i < _curvePools.length; i++) {\n            address pool = _curvePools[i];\n            _claimConvexReward(pool, _conicPool);\n        }\n    }\n\n    function getRewardPool(address _curvePool) public view returns (address) {\n        return controller.curveRegistryCache().getRewardPool(_curvePool);\n    }\n\n    function _claimConvexReward(address _curvePool, address _conicPool) internal {\n        address rewardPool = controller.curveRegistryCache().getRewardPool(_curvePool);\n        IBaseRewardPool(rewardPool).getReward(_conicPool, true);\n    }\n\n    /// @notice Gets total amount of CRV earned by an account from staking an amount of\n    /// Curve LP tokens via Convex for a single Curve pool.\n    /// @param _account Account which staked an amount of Curve LP tokens.\n    /// @param _curvePool Curve pool for which earned CRV should be computed.\n    /// @return Total amount of CRV earned.\n    function getCrvEarned(address _account, address _curvePool) public view returns (uint256) {\n        address rewardPool = controller.curveRegistryCache().getRewardPool(_curvePool);\n        return IBaseRewardPool(rewardPool).earned(_account);\n    }\n\n    /// @notice Gets total amount of CRV earned by an account from staking multiple Curve\n    /// LP tokens via Convex.\n    /// @param _account Account which staked Curve LP tokens.\n    /// @param _curvePools List of Curve pools for which earned CRV should be computed.\n    /// @return Total amount of CRV earned.\n    function getCrvEarnedBatch(address _account, address[] memory _curvePools)\n        external\n        view\n        returns (uint256)\n    {\n        uint256 totalCrvEarned;\n        for (uint256 i; i < _curvePools.length; i++) {\n            address pool = _curvePools[i];\n            totalCrvEarned += getCrvEarned(_account, pool);\n        }\n        return totalCrvEarned;\n    }\n\n    /// @notice Computes how much CVX can be claimed for an amount of CRV earned\n    /// @dev Not easily computable from the CVX token contract\n    /// @param crvAmount Amount of CRV for which CVX will be minted pro rata.\n    /// @return CVX amount that would be minted.\n    function computeClaimableConvex(uint256 crvAmount) external view returns (uint256) {\n        uint256 cvxTotalSupply = IERC20(_CVX_TOKEN).totalSupply();\n        uint256 cliff = cvxTotalSupply / _CLIFF_SIZE;\n        if (cliff >= _CLIFF_COUNT) {\n            return 0;\n        }\n        uint256 remaining = _CLIFF_COUNT - cliff;\n        uint256 cvxEarned = (crvAmount * remaining) / _CLIFF_COUNT;\n        uint256 amountTillMax = _MAX_CVX_SUPPLY - cvxTotalSupply;\n        if (cvxEarned > amountTillMax) {\n            cvxEarned = amountTillMax;\n        }\n        return cvxEarned;\n    }\n}\n","sourcePath":"contracts/ConvexHandler.sol","type":"contract","deployment":{"address":"0x7C7063D7bF4eE28523d1db5d0A5aC560C075a519","chainid":"1","blockHeight":16734417}}