{"abi":[{"anonymous":false,"inputs":[{"indexed":true,"internalType":"address","name":"token","type":"address"},{"indexed":false,"internalType":"address","name":"feed","type":"address"},{"indexed":false,"internalType":"uint256","name":"maxDelay","type":"uint256"},{"indexed":false,"internalType":"bool","name":"isEthPrice","type":"bool"}],"name":"TokenUpdated","type":"event"},{"inputs":[],"name":"ETH_USD_FEED","outputs":[{"internalType":"address","name":"","type":"address"}],"stateMutability":"view","type":"function"},{"inputs":[],"name":"ETH_USD_FEED_MULTIPLIER","outputs":[{"internalType":"uint256","name":"","type":"uint256"}],"stateMutability":"view","type":"function"},{"inputs":[],"name":"FRAX_ETH","outputs":[{"internalType":"address","name":"","type":"address"}],"stateMutability":"view","type":"function"},{"inputs":[],"name":"FRAX_ETH_ETH_FEED","outputs":[{"internalType":"address","name":"","type":"address"}],"stateMutability":"view","type":"function"},{"inputs":[],"name":"HEARTBEAT","outputs":[{"internalType":"uint256","name":"","type":"uint256"}],"stateMutability":"view","type":"function"},{"inputs":[{"internalType":"address","name":"token","type":"address"}],"name":"getUSDPrice","outputs":[{"internalType":"uint256","name":"","type":"uint256"}],"stateMutability":"view","type":"function"},{"inputs":[{"internalType":"address","name":"token","type":"address"}],"name":"isTokenSupported","outputs":[{"internalType":"bool","name":"","type":"bool"}],"stateMutability":"pure","type":"function"}],"bytecode":"608060405234801561001057600080fd5b50610477806100206000396000f3fe608060405234801561001057600080fd5b506004361061007d5760003560e01c806375151b631161005b57806375151b63146100ed5780638b2f0f4f1461012d57806394d8572a14610140578063f18fb8e81461015b57600080fd5b806304e4fdf4146100825780631586b388146100ba578063297887b5146100d2575b600080fd5b61009d735e8422345238f34275888049021821e8e08caa1f81565b6040516001600160a01b0390911681526020015b60405180910390f35b6100c462015f9081565b6040519081526020016100b1565b61009d73c58f3385fbc1c8ad2c0c9a061d7c13b141d7a5df81565b61011d6100fb36600461033a565b6001600160a01b0316735e8422345238f34275888049021821e8e08caa1f1490565b60405190151581526020016100b1565b6100c461013b36600461033a565b610166565b61009d735f4ec3df9cbd43714fe2740f5e3616155c5b841981565b6100c46305f5e10081565b60006001600160a01b038216735e8422345238f34275888049021821e8e08caa1f146101d05760405162461bcd60e51b81526020600482015260146024820152730dedcd8f240e6eae0e0dee4e8e6408ca4b08aa8960631b60448201526064015b60405180910390fd5b60006101ef735f4ec3df9cbd43714fe2740f5e3616155c5b8419610233565b9050600061021073c58f3385fbc1c8ad2c0c9a061d7c13b141d7a5df610233565b90506305f5e1006102218284610380565b61022b919061039d565b949350505050565b600080829050600080826001600160a01b031663feaf968c6040518163ffffffff1660e01b815260040160a060405180830381865afa15801561027a573d6000803e3d6000fd5b505050506040513d601f19601f8201168201806040525081019061029e91906103de565b50935050925050600082136102e65760405162461bcd60e51b815260206004820152600e60248201526d6e6567617469766520707269636560901b60448201526064016101c7565b6102f362015f904261042e565b8110156103325760405162461bcd60e51b815260206004820152600d60248201526c1c1c9a58d9481d1bdbc81bdb19609a1b60448201526064016101c7565b509392505050565b60006020828403121561034c57600080fd5b81356001600160a01b038116811461036357600080fd5b9392505050565b634e487b7160e01b600052601160045260246000fd5b80820281158282048414176103975761039761036a565b92915050565b6000826103ba57634e487b7160e01b600052601260045260246000fd5b500490565b805169ffffffffffffffffffff811681146103d957600080fd5b919050565b600080600080600060a086880312156103f657600080fd5b6103ff866103bf565b9450602086015193506040860151925060608601519150610422608087016103bf565b90509295509295909350565b818103818111156103975761039761036a56fea26469706673582212203bbfc9e5a4574d9ebf0e3b3bb9292631b563ec21e625626ec94650046dcbb17164736f6c63430008110033","bytecodeSha1":"b723f5d8bb8b421d1ea94863983928ac726d150f","compiler":{"evm_version":"london","optimizer":{"enabled":true,"runs":200},"version":"0.8.17+commit.8df45f5f"},"contractName":"FrxETHPriceOracle","language":"Solidity","natspec":{"kind":"dev","methods":{"getUSDPrice(address)":{"notice":"returns the price in USD of symbol."},"isTokenSupported(address)":{"notice":"returns if the given token is supported for pricing."}},"version":1},"opcodes":"PUSH1 0x80 PUSH1 0x40 MSTORE CALLVALUE DUP1 ISZERO PUSH2 0x10 JUMPI PUSH1 0x0 DUP1 REVERT JUMPDEST POP PUSH1 0x4 CALLDATASIZE LT PUSH2 0x7D JUMPI PUSH1 0x0 CALLDATALOAD PUSH1 0xE0 SHR DUP1 PUSH4 0x75151B63 GT PUSH2 0x5B JUMPI DUP1 PUSH4 0x75151B63 EQ PUSH2 0xED JUMPI DUP1 PUSH4 0x8B2F0F4F EQ PUSH2 0x12D JUMPI DUP1 PUSH4 0x94D8572A EQ PUSH2 0x140 JUMPI DUP1 PUSH4 0xF18FB8E8 EQ PUSH2 0x15B JUMPI PUSH1 0x0 DUP1 REVERT JUMPDEST DUP1 PUSH4 0x4E4FDF4 EQ PUSH2 0x82 JUMPI DUP1 PUSH4 0x1586B388 EQ PUSH2 0xBA JUMPI DUP1 PUSH4 0x297887B5 EQ PUSH2 0xD2 JUMPI JUMPDEST PUSH1 0x0 DUP1 REVERT JUMPDEST PUSH2 0x9D PUSH20 0x5E8422345238F34275888049021821E8E08CAA1F DUP2 JUMP JUMPDEST PUSH1 0x40 MLOAD PUSH1 0x1 PUSH1 0x1 PUSH1 0xA0 SHL SUB SWAP1 SWAP2 AND DUP2 MSTORE PUSH1 0x20 ADD JUMPDEST PUSH1 0x40 MLOAD DUP1 SWAP2 SUB SWAP1 RETURN JUMPDEST PUSH2 0xC4 PUSH3 0x15F90 DUP2 JUMP JUMPDEST PUSH1 0x40 MLOAD SWAP1 DUP2 MSTORE PUSH1 0x20 ADD PUSH2 0xB1 JUMP JUMPDEST PUSH2 0x9D PUSH20 0xC58F3385FBC1C8AD2C0C9A061D7C13B141D7A5DF DUP2 JUMP JUMPDEST PUSH2 0x11D PUSH2 0xFB CALLDATASIZE PUSH1 0x4 PUSH2 0x33A JUMP JUMPDEST PUSH1 0x1 PUSH1 0x1 PUSH1 0xA0 SHL SUB AND PUSH20 0x5E8422345238F34275888049021821E8E08CAA1F EQ SWAP1 JUMP JUMPDEST PUSH1 0x40 MLOAD SWAP1 ISZERO ISZERO DUP2 MSTORE PUSH1 0x20 ADD PUSH2 0xB1 JUMP JUMPDEST PUSH2 0xC4 PUSH2 0x13B CALLDATASIZE PUSH1 0x4 PUSH2 0x33A JUMP JUMPDEST PUSH2 0x166 JUMP JUMPDEST PUSH2 0x9D PUSH20 0x5F4EC3DF9CBD43714FE2740F5E3616155C5B8419 DUP2 JUMP JUMPDEST PUSH2 0xC4 PUSH4 0x5F5E100 DUP2 JUMP JUMPDEST PUSH1 0x0 PUSH1 0x1 PUSH1 0x1 PUSH1 0xA0 SHL SUB DUP3 AND PUSH20 0x5E8422345238F34275888049021821E8E08CAA1F EQ PUSH2 0x1D0 JUMPI PUSH1 0x40 MLOAD PUSH3 0x461BCD PUSH1 0xE5 SHL DUP2 MSTORE PUSH1 0x20 PUSH1 0x4 DUP3 ADD MSTORE PUSH1 0x14 PUSH1 0x24 DUP3 ADD MSTORE PUSH20 0xDEDCD8F240E6EAE0E0DEE4E8E6408CA4B08AA89 PUSH1 0x63 SHL PUSH1 0x44 DUP3 ADD MSTORE PUSH1 0x64 ADD JUMPDEST PUSH1 0x40 MLOAD DUP1 SWAP2 SUB SWAP1 REVERT JUMPDEST PUSH1 0x0 PUSH2 0x1EF PUSH20 0x5F4EC3DF9CBD43714FE2740F5E3616155C5B8419 PUSH2 0x233 JUMP JUMPDEST SWAP1 POP PUSH1 0x0 PUSH2 0x210 PUSH20 0xC58F3385FBC1C8AD2C0C9A061D7C13B141D7A5DF PUSH2 0x233 JUMP JUMPDEST SWAP1 POP PUSH4 0x5F5E100 PUSH2 0x221 DUP3 DUP5 PUSH2 0x380 JUMP JUMPDEST PUSH2 0x22B SWAP2 SWAP1 PUSH2 0x39D JUMP JUMPDEST SWAP5 SWAP4 POP POP POP POP JUMP JUMPDEST PUSH1 0x0 DUP1 DUP3 SWAP1 POP PUSH1 0x0 DUP1 DUP3 PUSH1 0x1 PUSH1 0x1 PUSH1 0xA0 SHL SUB AND PUSH4 0xFEAF968C PUSH1 0x40 MLOAD DUP2 PUSH4 0xFFFFFFFF AND PUSH1 0xE0 SHL DUP2 MSTORE PUSH1 0x4 ADD PUSH1 0xA0 PUSH1 0x40 MLOAD DUP1 DUP4 SUB DUP2 DUP7 GAS STATICCALL ISZERO DUP1 ISZERO PUSH2 0x27A JUMPI RETURNDATASIZE PUSH1 0x0 DUP1 RETURNDATACOPY RETURNDATASIZE PUSH1 0x0 REVERT JUMPDEST POP POP POP POP PUSH1 0x40 MLOAD RETURNDATASIZE PUSH1 0x1F NOT PUSH1 0x1F DUP3 ADD AND DUP3 ADD DUP1 PUSH1 0x40 MSTORE POP DUP2 ADD SWAP1 PUSH2 0x29E SWAP2 SWAP1 PUSH2 0x3DE JUMP JUMPDEST POP SWAP4 POP POP SWAP3 POP POP PUSH1 0x0 DUP3 SGT PUSH2 0x2E6 JUMPI PUSH1 0x40 MLOAD PUSH3 0x461BCD PUSH1 0xE5 SHL DUP2 MSTORE PUSH1 0x20 PUSH1 0x4 DUP3 ADD MSTORE PUSH1 0xE PUSH1 0x24 DUP3 ADD MSTORE PUSH14 0x6E65676174697665207072696365 PUSH1 0x90 SHL PUSH1 0x44 DUP3 ADD MSTORE PUSH1 0x64 ADD PUSH2 0x1C7 JUMP JUMPDEST PUSH2 0x2F3 PUSH3 0x15F90 TIMESTAMP PUSH2 0x42E JUMP JUMPDEST DUP2 LT ISZERO PUSH2 0x332 JUMPI PUSH1 0x40 MLOAD PUSH3 0x461BCD PUSH1 0xE5 SHL DUP2 MSTORE PUSH1 0x20 PUSH1 0x4 DUP3 ADD MSTORE PUSH1 0xD PUSH1 0x24 DUP3 ADD MSTORE PUSH13 0x1C1C9A58D9481D1BDBC81BDB19 PUSH1 0x9A SHL PUSH1 0x44 DUP3 ADD MSTORE PUSH1 0x64 ADD PUSH2 0x1C7 JUMP JUMPDEST POP SWAP4 SWAP3 POP POP POP JUMP JUMPDEST PUSH1 0x0 PUSH1 0x20 DUP3 DUP5 SUB SLT ISZERO PUSH2 0x34C JUMPI PUSH1 0x0 DUP1 REVERT JUMPDEST DUP2 CALLDATALOAD PUSH1 0x1 PUSH1 0x1 PUSH1 0xA0 SHL SUB DUP2 AND DUP2 EQ PUSH2 0x363 JUMPI PUSH1 0x0 DUP1 REVERT JUMPDEST SWAP4 SWAP3 POP POP POP JUMP JUMPDEST PUSH4 0x4E487B71 PUSH1 0xE0 SHL PUSH1 0x0 MSTORE PUSH1 0x11 PUSH1 0x4 MSTORE PUSH1 0x24 PUSH1 0x0 REVERT JUMPDEST DUP1 DUP3 MUL DUP2 ISZERO DUP3 DUP3 DIV DUP5 EQ OR PUSH2 0x397 JUMPI PUSH2 0x397 PUSH2 0x36A JUMP JUMPDEST SWAP3 SWAP2 POP POP JUMP JUMPDEST PUSH1 0x0 DUP3 PUSH2 0x3BA JUMPI PUSH4 0x4E487B71 PUSH1 0xE0 SHL PUSH1 0x0 MSTORE PUSH1 0x12 PUSH1 0x4 MSTORE PUSH1 0x24 PUSH1 0x0 REVERT JUMPDEST POP DIV SWAP1 JUMP JUMPDEST DUP1 MLOAD PUSH10 0xFFFFFFFFFFFFFFFFFFFF DUP2 AND DUP2 EQ PUSH2 0x3D9 JUMPI PUSH1 0x0 DUP1 REVERT JUMPDEST SWAP2 SWAP1 POP JUMP JUMPDEST PUSH1 0x0 DUP1 PUSH1 0x0 DUP1 PUSH1 0x0 PUSH1 0xA0 DUP7 DUP9 SUB SLT ISZERO PUSH2 0x3F6 JUMPI PUSH1 0x0 DUP1 REVERT JUMPDEST PUSH2 0x3FF DUP7 PUSH2 0x3BF JUMP JUMPDEST SWAP5 POP PUSH1 0x20 DUP7 ADD MLOAD SWAP4 POP PUSH1 0x40 DUP7 ADD MLOAD SWAP3 POP PUSH1 0x60 DUP7 ADD MLOAD SWAP2 POP PUSH2 0x422 PUSH1 0x80 DUP8 ADD PUSH2 0x3BF JUMP JUMPDEST SWAP1 POP SWAP3 SWAP6 POP SWAP3 SWAP6 SWAP1 SWAP4 POP JUMP JUMPDEST DUP2 DUP2 SUB DUP2 DUP2 GT ISZERO PUSH2 0x397 JUMPI PUSH2 0x397 PUSH2 0x36A JUMP INVALID LOG2 PUSH5 0x6970667358 0x22 SLT KECCAK256 EXTCODESIZE 0xBF 0xC9 0xE5 LOG4 JUMPI 0x4D SWAP15 0xBF 0xE EXTCODESIZE EXTCODESIZE 0xB9 0x29 0x26 BALANCE 0xB5 PUSH4 0xEC21E625 PUSH3 0x6EC946 POP DIV PUSH14 0xCBB17164736F6C63430008110033 ","sha1":"59726b643a69dafc5042dd0e06bbc400858ccf2c","source":"// SPDX-License-Identifier: GPL-3.0-or-later\npragma solidity 0.8.17;\n\nimport \"@chainlink/contracts/Denominations.sol\";\n\nimport \"../../interfaces/IOracle.sol\";\n\nimport {IAggregatorV3Interface} from \"./ChainlinkOracle.sol\";\n\ncontract FrxETHPriceOracle is IOracle {\n    address public constant ETH_USD_FEED = 0x5f4eC3Df9cbd43714FE2740f5E3616155c5b8419;\n    uint256 public constant ETH_USD_FEED_MULTIPLIER = 10 ** 8; // ETH/USD feed has 8 decimals\n\n    address public constant FRAX_ETH = 0x5E8422345238F34275888049021821E8E08CAa1f;\n    address public constant FRAX_ETH_ETH_FEED = 0xC58F3385FBc1C8AD2c0C9a061D7c13b141D7A5Df;\n\n    uint256 public constant HEARTBEAT = 90_000; // FRAX_ETH_ETH_FEED.maximumOracleDelay = 25 hours\n\n    function getUSDPrice(address token) external view override returns (uint256) {\n        require(token == FRAX_ETH, \"only supports FRXETH\");\n        uint256 ethPrice_ = _getPrice(ETH_USD_FEED);\n        uint256 frxEthEthPrice_ = _getPrice(FRAX_ETH_ETH_FEED);\n        return (ethPrice_ * frxEthEthPrice_) / ETH_USD_FEED_MULTIPLIER;\n    }\n\n    function _getPrice(address feed) internal view returns (uint256) {\n        IAggregatorV3Interface feed_ = IAggregatorV3Interface(feed);\n        (, int256 price_, , uint256 updatedAt_, ) = feed_.latestRoundData();\n        require(price_ > 0, \"negative price\");\n        require(updatedAt_ >= block.timestamp - HEARTBEAT, \"price too old\");\n        return uint256(price_);\n    }\n\n    function isTokenSupported(address token) external pure override returns (bool) {\n        return token == FRAX_ETH;\n    }\n}\n","sourcePath":"contracts/oracles/FrxETHOracle.sol","type":"contract","deployment":{"address":"0x7EeA9d690162bc71Bb81B9BA83b53d4AD376F21C","chainid":"1","blockHeight":19069551}}