{"abi":[{"inputs":[{"internalType":"address","name":"ethPool_","type":"address"}],"stateMutability":"nonpayable","type":"constructor","name":"constructor"},{"inputs":[{"internalType":"address","name":"account","type":"address"},{"internalType":"uint256","name":"amount","type":"uint256"},{"internalType":"uint256","name":"minLpReceived","type":"uint256"},{"internalType":"bool","name":"stake","type":"bool"}],"name":"depositFor","outputs":[{"internalType":"uint256","name":"","type":"uint256"}],"stateMutability":"payable","type":"function"},{"inputs":[],"name":"ethPool","outputs":[{"internalType":"contract IConicPool","name":"","type":"address"}],"stateMutability":"view","type":"function"}],"bytecode":"60a060405234801561001057600080fd5b506040516103d93803806103d983398101604081905261002f916100c4565b6001600160a01b038116608081905260405163095ea7b360e01b81526004810191909152600019602482015273c02aaa39b223fe8d0a0e5c4f27ead9083c756cc29063095ea7b3906044016020604051808303816000875af1158015610099573d6000803e3d6000fd5b505050506040513d601f19601f820116820180604052508101906100bd91906100f4565b5050610116565b6000602082840312156100d657600080fd5b81516001600160a01b03811681146100ed57600080fd5b9392505050565b60006020828403121561010657600080fd5b815180151581146100ed57600080fd5b6080516102a2610137600039600081816066015261017e01526102a26000f3fe6080604052600436106100295760003560e01c806365f203551461002e578063f16673a414610054575b600080fd5b61004161003c3660046101f8565b6100a0565b6040519081526020015b60405180910390f35b34801561006057600080fd5b506100887f000000000000000000000000000000000000000000000000000000000000000081565b6040516001600160a01b03909116815260200161004b565b60008334146100e45760405162461bcd60e51b815260206004820152600c60248201526b1ddc9bdb99c8185b5bdd5b9d60a21b604482015260640160405180910390fd5b73c02aaa39b223fe8d0a0e5c4f27ead9083c756cc26001600160a01b031663d0e30db0856040518263ffffffff1660e01b81526004016000604051808303818588803b15801561013357600080fd5b505af1158015610147573d6000803e3d6000fd5b50506040516365f2035560e01b81526001600160a01b038981166004830152602482018990526044820188905286151560648301527f00000000000000000000000000000000000000000000000000000000000000001693506365f20355925060840190506020604051808303816000875af11580156101cb573d6000803e3d6000fd5b505050506040513d601f19601f820116820180604052508101906101ef9190610253565b95945050505050565b6000806000806080858703121561020e57600080fd5b84356001600160a01b038116811461022557600080fd5b935060208501359250604085013591506060850135801515811461024857600080fd5b939692955090935050565b60006020828403121561026557600080fd5b505191905056fea26469706673582212205ce06b6e66763817226c6466243412f5f2b3e8402c423ff7dd293fdcf04d24a964736f6c63430008110033","bytecodeSha1":"f2d696c6e37dbee7da605ddb5cf1f0328416c382","compiler":{"evm_version":"istanbul","optimizer":{"enabled":true,"runs":200},"version":"0.8.17+commit.8df45f5f"},"contractName":"EthZap","language":"Solidity","natspec":{"kind":"dev","methods":{},"version":1},"opcodes":"PUSH1 0x80 PUSH1 0x40 MSTORE PUSH1 0x4 CALLDATASIZE LT PUSH2 0x29 JUMPI PUSH1 0x0 CALLDATALOAD PUSH1 0xE0 SHR DUP1 PUSH4 0x65F20355 EQ PUSH2 0x2E JUMPI DUP1 PUSH4 0xF16673A4 EQ PUSH2 0x54 JUMPI JUMPDEST PUSH1 0x0 DUP1 REVERT JUMPDEST PUSH2 0x41 PUSH2 0x3C CALLDATASIZE PUSH1 0x4 PUSH2 0x1F8 JUMP JUMPDEST PUSH2 0xA0 JUMP JUMPDEST PUSH1 0x40 MLOAD SWAP1 DUP2 MSTORE PUSH1 0x20 ADD JUMPDEST PUSH1 0x40 MLOAD DUP1 SWAP2 SUB SWAP1 RETURN JUMPDEST CALLVALUE DUP1 ISZERO PUSH2 0x60 JUMPI PUSH1 0x0 DUP1 REVERT JUMPDEST POP PUSH2 0x88 PUSH32 0x0 DUP2 JUMP JUMPDEST PUSH1 0x40 MLOAD PUSH1 0x1 PUSH1 0x1 PUSH1 0xA0 SHL SUB SWAP1 SWAP2 AND DUP2 MSTORE PUSH1 0x20 ADD PUSH2 0x4B JUMP JUMPDEST PUSH1 0x0 DUP4 CALLVALUE EQ PUSH2 0xE4 JUMPI PUSH1 0x40 MLOAD PUSH3 0x461BCD PUSH1 0xE5 SHL DUP2 MSTORE PUSH1 0x20 PUSH1 0x4 DUP3 ADD MSTORE PUSH1 0xC PUSH1 0x24 DUP3 ADD MSTORE PUSH12 0x1DDC9BDB99C8185B5BDD5B9D PUSH1 0xA2 SHL PUSH1 0x44 DUP3 ADD MSTORE PUSH1 0x64 ADD PUSH1 0x40 MLOAD DUP1 SWAP2 SUB SWAP1 REVERT JUMPDEST PUSH20 0xC02AAA39B223FE8D0A0E5C4F27EAD9083C756CC2 PUSH1 0x1 PUSH1 0x1 PUSH1 0xA0 SHL SUB AND PUSH4 0xD0E30DB0 DUP6 PUSH1 0x40 MLOAD DUP3 PUSH4 0xFFFFFFFF AND PUSH1 0xE0 SHL DUP2 MSTORE PUSH1 0x4 ADD PUSH1 0x0 PUSH1 0x40 MLOAD DUP1 DUP4 SUB DUP2 DUP6 DUP9 DUP1 EXTCODESIZE ISZERO DUP1 ISZERO PUSH2 0x133 JUMPI PUSH1 0x0 DUP1 REVERT JUMPDEST POP GAS CALL ISZERO DUP1 ISZERO PUSH2 0x147 JUMPI RETURNDATASIZE PUSH1 0x0 DUP1 RETURNDATACOPY RETURNDATASIZE PUSH1 0x0 REVERT JUMPDEST POP POP PUSH1 0x40 MLOAD PUSH4 0x65F20355 PUSH1 0xE0 SHL DUP2 MSTORE PUSH1 0x1 PUSH1 0x1 PUSH1 0xA0 SHL SUB DUP10 DUP2 AND PUSH1 0x4 DUP4 ADD MSTORE PUSH1 0x24 DUP3 ADD DUP10 SWAP1 MSTORE PUSH1 0x44 DUP3 ADD DUP9 SWAP1 MSTORE DUP7 ISZERO ISZERO PUSH1 0x64 DUP4 ADD MSTORE PUSH32 0x0 AND SWAP4 POP PUSH4 0x65F20355 SWAP3 POP PUSH1 0x84 ADD SWAP1 POP PUSH1 0x20 PUSH1 0x40 MLOAD DUP1 DUP4 SUB DUP2 PUSH1 0x0 DUP8 GAS CALL ISZERO DUP1 ISZERO PUSH2 0x1CB JUMPI RETURNDATASIZE PUSH1 0x0 DUP1 RETURNDATACOPY RETURNDATASIZE PUSH1 0x0 REVERT JUMPDEST POP POP POP POP PUSH1 0x40 MLOAD RETURNDATASIZE PUSH1 0x1F NOT PUSH1 0x1F DUP3 ADD AND DUP3 ADD DUP1 PUSH1 0x40 MSTORE POP DUP2 ADD SWAP1 PUSH2 0x1EF SWAP2 SWAP1 PUSH2 0x253 JUMP JUMPDEST SWAP6 SWAP5 POP POP POP POP POP JUMP JUMPDEST PUSH1 0x0 DUP1 PUSH1 0x0 DUP1 PUSH1 0x80 DUP6 DUP8 SUB SLT ISZERO PUSH2 0x20E JUMPI PUSH1 0x0 DUP1 REVERT JUMPDEST DUP5 CALLDATALOAD PUSH1 0x1 PUSH1 0x1 PUSH1 0xA0 SHL SUB DUP2 AND DUP2 EQ PUSH2 0x225 JUMPI PUSH1 0x0 DUP1 REVERT JUMPDEST SWAP4 POP PUSH1 0x20 DUP6 ADD CALLDATALOAD SWAP3 POP PUSH1 0x40 DUP6 ADD CALLDATALOAD SWAP2 POP PUSH1 0x60 DUP6 ADD CALLDATALOAD DUP1 ISZERO ISZERO DUP2 EQ PUSH2 0x248 JUMPI PUSH1 0x0 DUP1 REVERT JUMPDEST SWAP4 SWAP7 SWAP3 SWAP6 POP SWAP1 SWAP4 POP POP JUMP JUMPDEST PUSH1 0x0 PUSH1 0x20 DUP3 DUP5 SUB SLT ISZERO PUSH2 0x265 JUMPI PUSH1 0x0 DUP1 REVERT JUMPDEST POP MLOAD SWAP2 SWAP1 POP JUMP INVALID LOG2 PUSH5 0x6970667358 0x22 SLT KECCAK256 0x5C 0xE0 PUSH12 0x6E66763817226C6466243412 CREATE2 CALLCODE 0xB3 0xE8 BLOCKHASH 0x2C TIMESTAMP EXTCODEHASH 0xF7 0xDD 0x29 EXTCODEHASH 0xDC CREATE 0x4D 0x24 0xA9 PUSH5 0x736F6C6343 STOP ADDMOD GT STOP CALLER ","sha1":"fa1b5c4b98bcaf552bd69e3029e83da907dfd162","source":"// SPDX-License-Identifier: GPL-3.0-or-later\npragma solidity 0.8.17;\n\nimport \"@openzeppelin/contracts/utils/Address.sol\";\n\nimport \"../../interfaces/pools/IConicPool.sol\";\nimport \"../../interfaces/vendor/IWETH.sol\";\n\ncontract EthZap {\n    using Address for address;\n\n    IConicPool public immutable ethPool;\n    IWETH internal constant _WETH = IWETH(0xC02aaA39b223FE8D0A0e5C4F27eAD9083C756Cc2);\n\n    constructor(address ethPool_) {\n        ethPool = IConicPool(ethPool_);\n        _WETH.approve(ethPool_, type(uint256).max);\n    }\n\n    function depositFor(\n        address account,\n        uint256 amount,\n        uint256 minLpReceived,\n        bool stake\n    ) external payable returns (uint256) {\n        require(msg.value == amount, \"wrong amount\");\n        _WETH.deposit{value: amount}();\n        return ethPool.depositFor(account, amount, minLpReceived, stake);\n    }\n}\n","sourcePath":"contracts/zaps/EthZap.sol","type":"contract","deployment":{"address":"0x7e82f577a4eFF903C2086951976BEF1b83BfE5bd","chainid":"1","blockHeight":17592146}}