{"abi":[{"anonymous":false,"inputs":[{"indexed":false,"internalType":"address","name":"token","type":"address"},{"indexed":false,"internalType":"address","name":"oracle","type":"address"}],"name":"CustomOracleAdded","type":"event"},{"anonymous":false,"inputs":[{"indexed":true,"internalType":"address","name":"previousOwner","type":"address"},{"indexed":true,"internalType":"address","name":"newOwner","type":"address"}],"name":"OwnershipTransferred","type":"event"},{"anonymous":false,"inputs":[{"indexed":true,"internalType":"address","name":"token","type":"address"},{"indexed":false,"internalType":"address","name":"feed","type":"address"},{"indexed":false,"internalType":"uint256","name":"maxDelay","type":"uint256"},{"indexed":false,"internalType":"bool","name":"isEthPrice","type":"bool"}],"name":"TokenUpdated","type":"event"},{"inputs":[{"internalType":"address","name":"curveLpToken","type":"address"},{"internalType":"address","name":"underlying","type":"address"},{"internalType":"uint256","name":"curveLpAmount","type":"uint256"}],"name":"curveLpToUnderlying","outputs":[{"internalType":"uint256","name":"","type":"uint256"}],"stateMutability":"view","type":"function"},{"inputs":[{"internalType":"address","name":"curveLpToken","type":"address"},{"internalType":"address","name":"underlying","type":"address"},{"internalType":"uint256","name":"curveLpAmount","type":"uint256"},{"internalType":"uint256","name":"underlyingPrice","type":"uint256"}],"name":"curveLpToUnderlying","outputs":[{"internalType":"uint256","name":"","type":"uint256"}],"stateMutability":"view","type":"function"},{"inputs":[{"internalType":"address","name":"","type":"address"}],"name":"customOracles","outputs":[{"internalType":"contract IOracle","name":"","type":"address"}],"stateMutability":"view","type":"function"},{"inputs":[{"internalType":"address","name":"token","type":"address"}],"name":"getOracle","outputs":[{"internalType":"contract IOracle","name":"","type":"address"}],"stateMutability":"view","type":"function"},{"inputs":[{"internalType":"address","name":"token","type":"address"}],"name":"getUSDPrice","outputs":[{"internalType":"uint256","name":"","type":"uint256"}],"stateMutability":"view","type":"function"},{"inputs":[{"internalType":"address","name":"curveLpOracle","type":"address"},{"internalType":"address","name":"chainlinkOracle","type":"address"}],"name":"initialize","outputs":[],"stateMutability":"nonpayable","type":"function"},{"inputs":[{"internalType":"address","name":"token","type":"address"}],"name":"isTokenSupported","outputs":[{"internalType":"bool","name":"","type":"bool"}],"stateMutability":"view","type":"function"},{"inputs":[],"name":"owner","outputs":[{"internalType":"address","name":"","type":"address"}],"stateMutability":"view","type":"function"},{"inputs":[],"name":"renounceOwnership","outputs":[],"stateMutability":"nonpayable","type":"function"},{"inputs":[{"internalType":"address","name":"token","type":"address"},{"internalType":"address","name":"oracle","type":"address"}],"name":"setCustomOracle","outputs":[],"stateMutability":"nonpayable","type":"function"},{"inputs":[{"internalType":"address","name":"newOwner","type":"address"}],"name":"transferOwnership","outputs":[],"stateMutability":"nonpayable","type":"function"},{"inputs":[{"internalType":"address","name":"underlying","type":"address"},{"internalType":"address","name":"curveLpToken","type":"address"},{"internalType":"uint256","name":"underlyingAmount","type":"uint256"}],"name":"underlyingToCurveLp","outputs":[{"internalType":"uint256","name":"","type":"uint256"}],"stateMutability":"view","type":"function"}],"bytecode":"608060405234801561001057600080fd5b5061001a3361001f565b61006f565b600080546001600160a01b038381166001600160a01b0319831681178455604051919092169283917f8be0079c531659141344cd1fd0a4f28419497f9722a3daafe3b4186f6b6457e09190a35050565b610b4e8061007e6000396000f3fe608060405234801561001057600080fd5b50600436106100b45760003560e01c80637c4be525116100715780637c4be5251461015d5780638b2f0f4f146101865780638da5cb5b14610199578063d2ca1a77146101aa578063dd8b7772146101bd578063f2fde38b146101d057600080fd5b806310d3d22e146100b95780633d234791146100e9578063485cc9551461010a57806367b7b2891461011f578063715018a61461013257806375151b631461013a575b600080fd5b6100cc6100c7366004610887565b6101e3565b6040516001600160a01b0390911681526020015b60405180910390f35b6100fc6100f73660046108a2565b6102b9565b6040519081526020016100e0565b61011d6101183660046108de565b610358565b005b61011d61012d3660046108de565b6103e5565b61011d610458565b61014d610148366004610887565b61046c565b60405190151581526020016100e0565b6100cc61016b366004610887565b6001602052600090815260409020546001600160a01b031681565b6100fc610194366004610887565b610579565b6000546001600160a01b03166100cc565b6100fc6101b83660046108a2565b6105f0565b6100fc6101cb366004610911565b610601565b61011d6101de366004610887565b61068a565b6001600160a01b038181166000908152600160205260408120549091161561022457506001600160a01b039081166000908152600160205260409020541690565b6002546040516375151b6360e01b81526001600160a01b038481166004830152909116906375151b6390602401602060405180830381865afa15801561026e573d6000803e3d6000fd5b505050506040513d601f19601f820116820180604052508101906102929190610953565b156102a85750506002546001600160a01b031690565b50506003546001600160a01b031690565b600061034e846001600160a01b031663313ce5676040518163ffffffff1660e01b8152600401602060405180830381865afa1580156102fc573d6000803e3d6000fd5b505050506040513d601f19601f820116820180604052508101906103209190610975565b601261034761032e87610579565b61034161033a8a610579565b8890610703565b90610725565b919061073e565b90505b9392505050565b61036061077f565b6003546001600160a01b0316156103b45760405162461bcd60e51b8152602060048201526013602482015272185b1c9958591e481a5b9a5d1a585b1a5e9959606a1b60448201526064015b60405180910390fd5b600280546001600160a01b039283166001600160a01b03199182161790915560038054939092169216919091179055565b6103ed61077f565b6001600160a01b0382811660008181526001602090815260409182902080546001600160a01b031916948616948517905581519283528201929092527f1b4b9cd5d281236804584b516042a4e440806fdd4d36fe010c13c54c9544f292910160405180910390a15050565b61046061077f565b61046a60006107d9565b565b6001600160a01b038181166000908152600160205260408120549091161515806104ff57506002546040516375151b6360e01b81526001600160a01b038481166004830152909116906375151b6390602401602060405180830381865afa1580156104db573d6000803e3d6000fd5b505050506040513d601f19601f820116820180604052508101906104ff9190610953565b8061057357506003546040516375151b6360e01b81526001600160a01b038481166004830152909116906375151b6390602401602060405180830381865afa15801561054f573d6000803e3d6000fd5b505050506040513d601f19601f820116820180604052508101906105739190610953565b92915050565b6000610584826101e3565b604051638b2f0f4f60e01b81526001600160a01b0384811660048301529190911690638b2f0f4f90602401602060405180830381865afa1580156105cc573d6000803e3d6000fd5b505050506040513d601f19601f820116820180604052508101906105739190610998565b600061034e8484846101cb87610579565b60006106816012856001600160a01b031663313ce5676040518163ffffffff1660e01b8152600401602060405180830381865afa158015610646573d6000803e3d6000fd5b505050506040513d601f19601f8201168201806040525081019061066a9190610975565b6103478561034161067a8b610579565b8990610703565b95945050505050565b61069261077f565b6001600160a01b0381166106f75760405162461bcd60e51b815260206004820152602660248201527f4f776e61626c653a206e6577206f776e657220697320746865207a65726f206160448201526564647265737360d01b60648201526084016103ab565b610700816107d9565b50565b60006107116012600a610aab565b61071b8385610ab7565b6103519190610ace565b6000816107346012600a610aab565b61071b9085610ab7565b60008160ff168360ff1603610754575082610351565b8160ff168360ff1611156107745761076d848484610829565b9050610351565b61034e84848461084a565b6000546001600160a01b0316331461046a5760405162461bcd60e51b815260206004820181905260248201527f4f776e61626c653a2063616c6c6572206973206e6f7420746865206f776e657260448201526064016103ab565b600080546001600160a01b038381166001600160a01b0319831681178455604051919092169283917f8be0079c531659141344cd1fd0a4f28419497f9722a3daafe3b4186f6b6457e09190a35050565b60006108358284610af0565b61084090600a610b09565b61034e9085610ace565b60006108568383610af0565b61086190600a610b09565b61034e9085610ab7565b80356001600160a01b038116811461088257600080fd5b919050565b60006020828403121561089957600080fd5b6103518261086b565b6000806000606084860312156108b757600080fd5b6108c08461086b565b92506108ce6020850161086b565b9150604084013590509250925092565b600080604083850312156108f157600080fd5b6108fa8361086b565b91506109086020840161086b565b90509250929050565b6000806000806080858703121561092757600080fd5b6109308561086b565b935061093e6020860161086b565b93969395505050506040820135916060013590565b60006020828403121561096557600080fd5b8151801515811461035157600080fd5b60006020828403121561098757600080fd5b815160ff8116811461035157600080fd5b6000602082840312156109aa57600080fd5b5051919050565b634e487b7160e01b600052601160045260246000fd5b600181815b80851115610a025781600019048211156109e8576109e86109b1565b808516156109f557918102915b93841c93908002906109cc565b509250929050565b600082610a1957506001610573565b81610a2657506000610573565b8160018114610a3c5760028114610a4657610a62565b6001915050610573565b60ff841115610a5757610a576109b1565b50506001821b610573565b5060208310610133831016604e8410600b8410161715610a85575081810a610573565b610a8f83836109c7565b8060001904821115610aa357610aa36109b1565b029392505050565b60006103518383610a0a565b8082028115828204841417610573576105736109b1565b600082610aeb57634e487b7160e01b600052601260045260246000fd5b500490565b60ff8281168282160390811115610573576105736109b1565b600061035160ff841683610a0a56fea26469706673582212203d2a4a674cb30b7bbd064a5465de58dffa93320ecde86086ee476d392f29f74c64736f6c63430008110033","bytecodeSha1":"fd73f6d70ee4c694dcad6b5609799dfc2757deb1","compiler":{"evm_version":"london","optimizer":{"enabled":true,"runs":200},"version":"0.8.17+commit.8df45f5f"},"contractName":"GenericOracle","language":"Solidity","natspec":{"kind":"dev","methods":{"curveLpToUnderlying(address,address,uint256)":{"notice":"converts the price of an LP token to the given underlying"},"curveLpToUnderlying(address,address,uint256,uint256)":{"notice":"same as above but avoids fetching the underlying price again"},"getOracle(address)":{"notice":"returns the oracle to be used to price `token`"},"getUSDPrice(address)":{"notice":"returns the price in USD of symbol."},"isTokenSupported(address)":{"notice":"returns if the given token is supported for pricing."},"owner()":{"details":"Returns the address of the current owner."},"renounceOwnership()":{"details":"Leaves the contract without owner. It will not be possible to call `onlyOwner` functions. Can only be called by the current owner. NOTE: Renouncing ownership will leave the contract without an owner, thereby disabling any functionality that is only available to the owner."},"transferOwnership(address)":{"details":"Transfers ownership of the contract to a new account (`newOwner`). Can only be called by the current owner."},"underlyingToCurveLp(address,address,uint256)":{"notice":"converts the price an underlying asset to a given Curve LP token"}},"version":1},"opcodes":"PUSH1 0x80 PUSH1 0x40 MSTORE CALLVALUE DUP1 ISZERO PUSH2 0x10 JUMPI PUSH1 0x0 DUP1 REVERT JUMPDEST POP PUSH1 0x4 CALLDATASIZE LT PUSH2 0xB4 JUMPI PUSH1 0x0 CALLDATALOAD PUSH1 0xE0 SHR DUP1 PUSH4 0x7C4BE525 GT PUSH2 0x71 JUMPI DUP1 PUSH4 0x7C4BE525 EQ PUSH2 0x15D JUMPI DUP1 PUSH4 0x8B2F0F4F EQ PUSH2 0x186 JUMPI DUP1 PUSH4 0x8DA5CB5B EQ PUSH2 0x199 JUMPI DUP1 PUSH4 0xD2CA1A77 EQ PUSH2 0x1AA JUMPI DUP1 PUSH4 0xDD8B7772 EQ PUSH2 0x1BD JUMPI DUP1 PUSH4 0xF2FDE38B EQ PUSH2 0x1D0 JUMPI PUSH1 0x0 DUP1 REVERT JUMPDEST DUP1 PUSH4 0x10D3D22E EQ PUSH2 0xB9 JUMPI DUP1 PUSH4 0x3D234791 EQ PUSH2 0xE9 JUMPI DUP1 PUSH4 0x485CC955 EQ PUSH2 0x10A JUMPI DUP1 PUSH4 0x67B7B289 EQ PUSH2 0x11F JUMPI DUP1 PUSH4 0x715018A6 EQ PUSH2 0x132 JUMPI DUP1 PUSH4 0x75151B63 EQ PUSH2 0x13A JUMPI JUMPDEST PUSH1 0x0 DUP1 REVERT JUMPDEST PUSH2 0xCC PUSH2 0xC7 CALLDATASIZE PUSH1 0x4 PUSH2 0x887 JUMP JUMPDEST PUSH2 0x1E3 JUMP JUMPDEST PUSH1 0x40 MLOAD PUSH1 0x1 PUSH1 0x1 PUSH1 0xA0 SHL SUB SWAP1 SWAP2 AND DUP2 MSTORE PUSH1 0x20 ADD JUMPDEST PUSH1 0x40 MLOAD DUP1 SWAP2 SUB SWAP1 RETURN JUMPDEST PUSH2 0xFC PUSH2 0xF7 CALLDATASIZE PUSH1 0x4 PUSH2 0x8A2 JUMP JUMPDEST PUSH2 0x2B9 JUMP JUMPDEST PUSH1 0x40 MLOAD SWAP1 DUP2 MSTORE PUSH1 0x20 ADD PUSH2 0xE0 JUMP JUMPDEST PUSH2 0x11D PUSH2 0x118 CALLDATASIZE PUSH1 0x4 PUSH2 0x8DE JUMP JUMPDEST PUSH2 0x358 JUMP JUMPDEST STOP JUMPDEST PUSH2 0x11D PUSH2 0x12D CALLDATASIZE PUSH1 0x4 PUSH2 0x8DE JUMP JUMPDEST PUSH2 0x3E5 JUMP JUMPDEST PUSH2 0x11D PUSH2 0x458 JUMP JUMPDEST PUSH2 0x14D PUSH2 0x148 CALLDATASIZE PUSH1 0x4 PUSH2 0x887 JUMP JUMPDEST PUSH2 0x46C JUMP JUMPDEST PUSH1 0x40 MLOAD SWAP1 ISZERO ISZERO DUP2 MSTORE PUSH1 0x20 ADD PUSH2 0xE0 JUMP JUMPDEST PUSH2 0xCC PUSH2 0x16B CALLDATASIZE PUSH1 0x4 PUSH2 0x887 JUMP JUMPDEST PUSH1 0x1 PUSH1 0x20 MSTORE PUSH1 0x0 SWAP1 DUP2 MSTORE PUSH1 0x40 SWAP1 KECCAK256 SLOAD PUSH1 0x1 PUSH1 0x1 PUSH1 0xA0 SHL SUB AND DUP2 JUMP JUMPDEST PUSH2 0xFC PUSH2 0x194 CALLDATASIZE PUSH1 0x4 PUSH2 0x887 JUMP JUMPDEST PUSH2 0x579 JUMP JUMPDEST PUSH1 0x0 SLOAD PUSH1 0x1 PUSH1 0x1 PUSH1 0xA0 SHL SUB AND PUSH2 0xCC JUMP JUMPDEST PUSH2 0xFC PUSH2 0x1B8 CALLDATASIZE PUSH1 0x4 PUSH2 0x8A2 JUMP JUMPDEST PUSH2 0x5F0 JUMP JUMPDEST PUSH2 0xFC PUSH2 0x1CB CALLDATASIZE PUSH1 0x4 PUSH2 0x911 JUMP JUMPDEST PUSH2 0x601 JUMP JUMPDEST PUSH2 0x11D PUSH2 0x1DE CALLDATASIZE PUSH1 0x4 PUSH2 0x887 JUMP JUMPDEST PUSH2 0x68A JUMP JUMPDEST PUSH1 0x1 PUSH1 0x1 PUSH1 0xA0 SHL SUB DUP2 DUP2 AND PUSH1 0x0 SWAP1 DUP2 MSTORE PUSH1 0x1 PUSH1 0x20 MSTORE PUSH1 0x40 DUP2 KECCAK256 SLOAD SWAP1 SWAP2 AND ISZERO PUSH2 0x224 JUMPI POP PUSH1 0x1 PUSH1 0x1 PUSH1 0xA0 SHL SUB SWAP1 DUP2 AND PUSH1 0x0 SWAP1 DUP2 MSTORE PUSH1 0x1 PUSH1 0x20 MSTORE PUSH1 0x40 SWAP1 KECCAK256 SLOAD AND SWAP1 JUMP JUMPDEST PUSH1 0x2 SLOAD PUSH1 0x40 MLOAD PUSH4 0x75151B63 PUSH1 0xE0 SHL DUP2 MSTORE PUSH1 0x1 PUSH1 0x1 PUSH1 0xA0 SHL SUB DUP5 DUP2 AND PUSH1 0x4 DUP4 ADD MSTORE SWAP1 SWAP2 AND SWAP1 PUSH4 0x75151B63 SWAP1 PUSH1 0x24 ADD PUSH1 0x20 PUSH1 0x40 MLOAD DUP1 DUP4 SUB DUP2 DUP7 GAS STATICCALL ISZERO DUP1 ISZERO PUSH2 0x26E JUMPI RETURNDATASIZE PUSH1 0x0 DUP1 RETURNDATACOPY RETURNDATASIZE PUSH1 0x0 REVERT JUMPDEST POP POP POP POP PUSH1 0x40 MLOAD RETURNDATASIZE PUSH1 0x1F NOT PUSH1 0x1F DUP3 ADD AND DUP3 ADD DUP1 PUSH1 0x40 MSTORE POP DUP2 ADD SWAP1 PUSH2 0x292 SWAP2 SWAP1 PUSH2 0x953 JUMP JUMPDEST ISZERO PUSH2 0x2A8 JUMPI POP POP PUSH1 0x2 SLOAD PUSH1 0x1 PUSH1 0x1 PUSH1 0xA0 SHL SUB AND SWAP1 JUMP JUMPDEST POP POP PUSH1 0x3 SLOAD PUSH1 0x1 PUSH1 0x1 PUSH1 0xA0 SHL SUB AND SWAP1 JUMP JUMPDEST PUSH1 0x0 PUSH2 0x34E DUP5 PUSH1 0x1 PUSH1 0x1 PUSH1 0xA0 SHL SUB AND PUSH4 0x313CE567 PUSH1 0x40 MLOAD DUP2 PUSH4 0xFFFFFFFF AND PUSH1 0xE0 SHL DUP2 MSTORE PUSH1 0x4 ADD PUSH1 0x20 PUSH1 0x40 MLOAD DUP1 DUP4 SUB DUP2 DUP7 GAS STATICCALL ISZERO DUP1 ISZERO PUSH2 0x2FC JUMPI RETURNDATASIZE PUSH1 0x0 DUP1 RETURNDATACOPY RETURNDATASIZE PUSH1 0x0 REVERT JUMPDEST POP POP POP POP PUSH1 0x40 MLOAD RETURNDATASIZE PUSH1 0x1F NOT PUSH1 0x1F DUP3 ADD AND DUP3 ADD DUP1 PUSH1 0x40 MSTORE POP DUP2 ADD SWAP1 PUSH2 0x320 SWAP2 SWAP1 PUSH2 0x975 JUMP JUMPDEST PUSH1 0x12 PUSH2 0x347 PUSH2 0x32E DUP8 PUSH2 0x579 JUMP JUMPDEST PUSH2 0x341 PUSH2 0x33A DUP11 PUSH2 0x579 JUMP JUMPDEST DUP9 SWAP1 PUSH2 0x703 JUMP JUMPDEST SWAP1 PUSH2 0x725 JUMP JUMPDEST SWAP2 SWAP1 PUSH2 0x73E JUMP JUMPDEST SWAP1 POP JUMPDEST SWAP4 SWAP3 POP POP POP JUMP JUMPDEST PUSH2 0x360 PUSH2 0x77F JUMP JUMPDEST PUSH1 0x3 SLOAD PUSH1 0x1 PUSH1 0x1 PUSH1 0xA0 SHL SUB AND ISZERO PUSH2 0x3B4 JUMPI PUSH1 0x40 MLOAD PUSH3 0x461BCD PUSH1 0xE5 SHL DUP2 MSTORE PUSH1 0x20 PUSH1 0x4 DUP3 ADD MSTORE PUSH1 0x13 PUSH1 0x24 DUP3 ADD MSTORE PUSH19 0x185B1C9958591E481A5B9A5D1A585B1A5E9959 PUSH1 0x6A SHL PUSH1 0x44 DUP3 ADD MSTORE PUSH1 0x64 ADD JUMPDEST PUSH1 0x40 MLOAD DUP1 SWAP2 SUB SWAP1 REVERT JUMPDEST PUSH1 0x2 DUP1 SLOAD PUSH1 0x1 PUSH1 0x1 PUSH1 0xA0 SHL SUB SWAP3 DUP4 AND PUSH1 0x1 PUSH1 0x1 PUSH1 0xA0 SHL SUB NOT SWAP2 DUP3 AND OR SWAP1 SWAP2 SSTORE PUSH1 0x3 DUP1 SLOAD SWAP4 SWAP1 SWAP3 AND SWAP3 AND SWAP2 SWAP1 SWAP2 OR SWAP1 SSTORE JUMP JUMPDEST PUSH2 0x3ED PUSH2 0x77F JUMP JUMPDEST PUSH1 0x1 PUSH1 0x1 PUSH1 0xA0 SHL SUB DUP3 DUP2 AND PUSH1 0x0 DUP2 DUP2 MSTORE PUSH1 0x1 PUSH1 0x20 SWAP1 DUP2 MSTORE PUSH1 0x40 SWAP2 DUP3 SWAP1 KECCAK256 DUP1 SLOAD PUSH1 0x1 PUSH1 0x1 PUSH1 0xA0 SHL SUB NOT AND SWAP5 DUP7 AND SWAP5 DUP6 OR SWAP1 SSTORE DUP2 MLOAD SWAP3 DUP4 MSTORE DUP3 ADD SWAP3 SWAP1 SWAP3 MSTORE PUSH32 0x1B4B9CD5D281236804584B516042A4E440806FDD4D36FE010C13C54C9544F292 SWAP2 ADD PUSH1 0x40 MLOAD DUP1 SWAP2 SUB SWAP1 LOG1 POP POP JUMP JUMPDEST PUSH2 0x460 PUSH2 0x77F JUMP JUMPDEST PUSH2 0x46A PUSH1 0x0 PUSH2 0x7D9 JUMP JUMPDEST JUMP JUMPDEST PUSH1 0x1 PUSH1 0x1 PUSH1 0xA0 SHL SUB DUP2 DUP2 AND PUSH1 0x0 SWAP1 DUP2 MSTORE PUSH1 0x1 PUSH1 0x20 MSTORE PUSH1 0x40 DUP2 KECCAK256 SLOAD SWAP1 SWAP2 AND ISZERO ISZERO DUP1 PUSH2 0x4FF JUMPI POP PUSH1 0x2 SLOAD PUSH1 0x40 MLOAD PUSH4 0x75151B63 PUSH1 0xE0 SHL DUP2 MSTORE PUSH1 0x1 PUSH1 0x1 PUSH1 0xA0 SHL SUB DUP5 DUP2 AND PUSH1 0x4 DUP4 ADD MSTORE SWAP1 SWAP2 AND SWAP1 PUSH4 0x75151B63 SWAP1 PUSH1 0x24 ADD PUSH1 0x20 PUSH1 0x40 MLOAD DUP1 DUP4 SUB DUP2 DUP7 GAS STATICCALL ISZERO DUP1 ISZERO PUSH2 0x4DB JUMPI RETURNDATASIZE PUSH1 0x0 DUP1 RETURNDATACOPY RETURNDATASIZE PUSH1 0x0 REVERT JUMPDEST POP POP POP POP PUSH1 0x40 MLOAD RETURNDATASIZE PUSH1 0x1F NOT PUSH1 0x1F DUP3 ADD AND DUP3 ADD DUP1 PUSH1 0x40 MSTORE POP DUP2 ADD SWAP1 PUSH2 0x4FF SWAP2 SWAP1 PUSH2 0x953 JUMP JUMPDEST DUP1 PUSH2 0x573 JUMPI POP PUSH1 0x3 SLOAD PUSH1 0x40 MLOAD PUSH4 0x75151B63 PUSH1 0xE0 SHL DUP2 MSTORE PUSH1 0x1 PUSH1 0x1 PUSH1 0xA0 SHL SUB DUP5 DUP2 AND PUSH1 0x4 DUP4 ADD MSTORE SWAP1 SWAP2 AND SWAP1 PUSH4 0x75151B63 SWAP1 PUSH1 0x24 ADD PUSH1 0x20 PUSH1 0x40 MLOAD DUP1 DUP4 SUB DUP2 DUP7 GAS STATICCALL ISZERO DUP1 ISZERO PUSH2 0x54F JUMPI RETURNDATASIZE PUSH1 0x0 DUP1 RETURNDATACOPY RETURNDATASIZE PUSH1 0x0 REVERT JUMPDEST POP POP POP POP PUSH1 0x40 MLOAD RETURNDATASIZE PUSH1 0x1F NOT PUSH1 0x1F DUP3 ADD AND DUP3 ADD DUP1 PUSH1 0x40 MSTORE POP DUP2 ADD SWAP1 PUSH2 0x573 SWAP2 SWAP1 PUSH2 0x953 JUMP JUMPDEST SWAP3 SWAP2 POP POP JUMP JUMPDEST PUSH1 0x0 PUSH2 0x584 DUP3 PUSH2 0x1E3 JUMP JUMPDEST PUSH1 0x40 MLOAD PUSH4 0x8B2F0F4F PUSH1 0xE0 SHL DUP2 MSTORE PUSH1 0x1 PUSH1 0x1 PUSH1 0xA0 SHL SUB DUP5 DUP2 AND PUSH1 0x4 DUP4 ADD MSTORE SWAP2 SWAP1 SWAP2 AND SWAP1 PUSH4 0x8B2F0F4F SWAP1 PUSH1 0x24 ADD PUSH1 0x20 PUSH1 0x40 MLOAD DUP1 DUP4 SUB DUP2 DUP7 GAS STATICCALL ISZERO DUP1 ISZERO PUSH2 0x5CC JUMPI RETURNDATASIZE PUSH1 0x0 DUP1 RETURNDATACOPY RETURNDATASIZE PUSH1 0x0 REVERT JUMPDEST POP POP POP POP PUSH1 0x40 MLOAD RETURNDATASIZE PUSH1 0x1F NOT PUSH1 0x1F DUP3 ADD AND DUP3 ADD DUP1 PUSH1 0x40 MSTORE POP DUP2 ADD SWAP1 PUSH2 0x573 SWAP2 SWAP1 PUSH2 0x998 JUMP JUMPDEST PUSH1 0x0 PUSH2 0x34E DUP5 DUP5 DUP5 PUSH2 0x1CB DUP8 PUSH2 0x579 JUMP JUMPDEST PUSH1 0x0 PUSH2 0x681 PUSH1 0x12 DUP6 PUSH1 0x1 PUSH1 0x1 PUSH1 0xA0 SHL SUB AND PUSH4 0x313CE567 PUSH1 0x40 MLOAD DUP2 PUSH4 0xFFFFFFFF AND PUSH1 0xE0 SHL DUP2 MSTORE PUSH1 0x4 ADD PUSH1 0x20 PUSH1 0x40 MLOAD DUP1 DUP4 SUB DUP2 DUP7 GAS STATICCALL ISZERO DUP1 ISZERO PUSH2 0x646 JUMPI RETURNDATASIZE PUSH1 0x0 DUP1 RETURNDATACOPY RETURNDATASIZE PUSH1 0x0 REVERT JUMPDEST POP POP POP POP PUSH1 0x40 MLOAD RETURNDATASIZE PUSH1 0x1F NOT PUSH1 0x1F DUP3 ADD AND DUP3 ADD DUP1 PUSH1 0x40 MSTORE POP DUP2 ADD SWAP1 PUSH2 0x66A SWAP2 SWAP1 PUSH2 0x975 JUMP JUMPDEST PUSH2 0x347 DUP6 PUSH2 0x341 PUSH2 0x67A DUP12 PUSH2 0x579 JUMP JUMPDEST DUP10 SWAP1 PUSH2 0x703 JUMP JUMPDEST SWAP6 SWAP5 POP POP POP POP POP JUMP JUMPDEST PUSH2 0x692 PUSH2 0x77F JUMP JUMPDEST PUSH1 0x1 PUSH1 0x1 PUSH1 0xA0 SHL SUB DUP2 AND PUSH2 0x6F7 JUMPI PUSH1 0x40 MLOAD PUSH3 0x461BCD PUSH1 0xE5 SHL DUP2 MSTORE PUSH1 0x20 PUSH1 0x4 DUP3 ADD MSTORE PUSH1 0x26 PUSH1 0x24 DUP3 ADD MSTORE PUSH32 0x4F776E61626C653A206E6577206F776E657220697320746865207A65726F2061 PUSH1 0x44 DUP3 ADD MSTORE PUSH6 0x646472657373 PUSH1 0xD0 SHL PUSH1 0x64 DUP3 ADD MSTORE PUSH1 0x84 ADD PUSH2 0x3AB JUMP JUMPDEST PUSH2 0x700 DUP2 PUSH2 0x7D9 JUMP JUMPDEST POP JUMP JUMPDEST PUSH1 0x0 PUSH2 0x711 PUSH1 0x12 PUSH1 0xA PUSH2 0xAAB JUMP JUMPDEST PUSH2 0x71B DUP4 DUP6 PUSH2 0xAB7 JUMP JUMPDEST PUSH2 0x351 SWAP2 SWAP1 PUSH2 0xACE JUMP JUMPDEST PUSH1 0x0 DUP2 PUSH2 0x734 PUSH1 0x12 PUSH1 0xA PUSH2 0xAAB JUMP JUMPDEST PUSH2 0x71B SWAP1 DUP6 PUSH2 0xAB7 JUMP JUMPDEST PUSH1 0x0 DUP2 PUSH1 0xFF AND DUP4 PUSH1 0xFF AND SUB PUSH2 0x754 JUMPI POP DUP3 PUSH2 0x351 JUMP JUMPDEST DUP2 PUSH1 0xFF AND DUP4 PUSH1 0xFF AND GT ISZERO PUSH2 0x774 JUMPI PUSH2 0x76D DUP5 DUP5 DUP5 PUSH2 0x829 JUMP JUMPDEST SWAP1 POP PUSH2 0x351 JUMP JUMPDEST PUSH2 0x34E DUP5 DUP5 DUP5 PUSH2 0x84A JUMP JUMPDEST PUSH1 0x0 SLOAD PUSH1 0x1 PUSH1 0x1 PUSH1 0xA0 SHL SUB AND CALLER EQ PUSH2 0x46A JUMPI PUSH1 0x40 MLOAD PUSH3 0x461BCD PUSH1 0xE5 SHL DUP2 MSTORE PUSH1 0x20 PUSH1 0x4 DUP3 ADD DUP2 SWAP1 MSTORE PUSH1 0x24 DUP3 ADD MSTORE PUSH32 0x4F776E61626C653A2063616C6C6572206973206E6F7420746865206F776E6572 PUSH1 0x44 DUP3 ADD MSTORE PUSH1 0x64 ADD PUSH2 0x3AB JUMP JUMPDEST PUSH1 0x0 DUP1 SLOAD PUSH1 0x1 PUSH1 0x1 PUSH1 0xA0 SHL SUB DUP4 DUP2 AND PUSH1 0x1 PUSH1 0x1 PUSH1 0xA0 SHL SUB NOT DUP4 AND DUP2 OR DUP5 SSTORE PUSH1 0x40 MLOAD SWAP2 SWAP1 SWAP3 AND SWAP3 DUP4 SWAP2 PUSH32 0x8BE0079C531659141344CD1FD0A4F28419497F9722A3DAAFE3B4186F6B6457E0 SWAP2 SWAP1 LOG3 POP POP JUMP JUMPDEST PUSH1 0x0 PUSH2 0x835 DUP3 DUP5 PUSH2 0xAF0 JUMP JUMPDEST PUSH2 0x840 SWAP1 PUSH1 0xA PUSH2 0xB09 JUMP JUMPDEST PUSH2 0x34E SWAP1 DUP6 PUSH2 0xACE JUMP JUMPDEST PUSH1 0x0 PUSH2 0x856 DUP4 DUP4 PUSH2 0xAF0 JUMP JUMPDEST PUSH2 0x861 SWAP1 PUSH1 0xA PUSH2 0xB09 JUMP JUMPDEST PUSH2 0x34E SWAP1 DUP6 PUSH2 0xAB7 JUMP JUMPDEST DUP1 CALLDATALOAD PUSH1 0x1 PUSH1 0x1 PUSH1 0xA0 SHL SUB DUP2 AND DUP2 EQ PUSH2 0x882 JUMPI PUSH1 0x0 DUP1 REVERT JUMPDEST SWAP2 SWAP1 POP JUMP JUMPDEST PUSH1 0x0 PUSH1 0x20 DUP3 DUP5 SUB SLT ISZERO PUSH2 0x899 JUMPI PUSH1 0x0 DUP1 REVERT JUMPDEST PUSH2 0x351 DUP3 PUSH2 0x86B JUMP JUMPDEST PUSH1 0x0 DUP1 PUSH1 0x0 PUSH1 0x60 DUP5 DUP7 SUB SLT ISZERO PUSH2 0x8B7 JUMPI PUSH1 0x0 DUP1 REVERT JUMPDEST PUSH2 0x8C0 DUP5 PUSH2 0x86B JUMP JUMPDEST SWAP3 POP PUSH2 0x8CE PUSH1 0x20 DUP6 ADD PUSH2 0x86B JUMP JUMPDEST SWAP2 POP PUSH1 0x40 DUP5 ADD CALLDATALOAD SWAP1 POP SWAP3 POP SWAP3 POP SWAP3 JUMP JUMPDEST PUSH1 0x0 DUP1 PUSH1 0x40 DUP4 DUP6 SUB SLT ISZERO PUSH2 0x8F1 JUMPI PUSH1 0x0 DUP1 REVERT JUMPDEST PUSH2 0x8FA DUP4 PUSH2 0x86B JUMP JUMPDEST SWAP2 POP PUSH2 0x908 PUSH1 0x20 DUP5 ADD PUSH2 0x86B JUMP JUMPDEST SWAP1 POP SWAP3 POP SWAP3 SWAP1 POP JUMP JUMPDEST PUSH1 0x0 DUP1 PUSH1 0x0 DUP1 PUSH1 0x80 DUP6 DUP8 SUB SLT ISZERO PUSH2 0x927 JUMPI PUSH1 0x0 DUP1 REVERT JUMPDEST PUSH2 0x930 DUP6 PUSH2 0x86B JUMP JUMPDEST SWAP4 POP PUSH2 0x93E PUSH1 0x20 DUP7 ADD PUSH2 0x86B JUMP JUMPDEST SWAP4 SWAP7 SWAP4 SWAP6 POP POP POP POP PUSH1 0x40 DUP3 ADD CALLDATALOAD SWAP2 PUSH1 0x60 ADD CALLDATALOAD SWAP1 JUMP JUMPDEST PUSH1 0x0 PUSH1 0x20 DUP3 DUP5 SUB SLT ISZERO PUSH2 0x965 JUMPI PUSH1 0x0 DUP1 REVERT JUMPDEST DUP2 MLOAD DUP1 ISZERO ISZERO DUP2 EQ PUSH2 0x351 JUMPI PUSH1 0x0 DUP1 REVERT JUMPDEST PUSH1 0x0 PUSH1 0x20 DUP3 DUP5 SUB SLT ISZERO PUSH2 0x987 JUMPI PUSH1 0x0 DUP1 REVERT JUMPDEST DUP2 MLOAD PUSH1 0xFF DUP2 AND DUP2 EQ PUSH2 0x351 JUMPI PUSH1 0x0 DUP1 REVERT JUMPDEST PUSH1 0x0 PUSH1 0x20 DUP3 DUP5 SUB SLT ISZERO PUSH2 0x9AA JUMPI PUSH1 0x0 DUP1 REVERT JUMPDEST POP MLOAD SWAP2 SWAP1 POP JUMP JUMPDEST PUSH4 0x4E487B71 PUSH1 0xE0 SHL PUSH1 0x0 MSTORE PUSH1 0x11 PUSH1 0x4 MSTORE PUSH1 0x24 PUSH1 0x0 REVERT JUMPDEST PUSH1 0x1 DUP2 DUP2 JUMPDEST DUP1 DUP6 GT ISZERO PUSH2 0xA02 JUMPI DUP2 PUSH1 0x0 NOT DIV DUP3 GT ISZERO PUSH2 0x9E8 JUMPI PUSH2 0x9E8 PUSH2 0x9B1 JUMP JUMPDEST DUP1 DUP6 AND ISZERO PUSH2 0x9F5 JUMPI SWAP2 DUP2 MUL SWAP2 JUMPDEST SWAP4 DUP5 SHR SWAP4 SWAP1 DUP1 MUL SWAP1 PUSH2 0x9CC JUMP JUMPDEST POP SWAP3 POP SWAP3 SWAP1 POP JUMP JUMPDEST PUSH1 0x0 DUP3 PUSH2 0xA19 JUMPI POP PUSH1 0x1 PUSH2 0x573 JUMP JUMPDEST DUP2 PUSH2 0xA26 JUMPI POP PUSH1 0x0 PUSH2 0x573 JUMP JUMPDEST DUP2 PUSH1 0x1 DUP2 EQ PUSH2 0xA3C JUMPI PUSH1 0x2 DUP2 EQ PUSH2 0xA46 JUMPI PUSH2 0xA62 JUMP JUMPDEST PUSH1 0x1 SWAP2 POP POP PUSH2 0x573 JUMP JUMPDEST PUSH1 0xFF DUP5 GT ISZERO PUSH2 0xA57 JUMPI PUSH2 0xA57 PUSH2 0x9B1 JUMP JUMPDEST POP POP PUSH1 0x1 DUP3 SHL PUSH2 0x573 JUMP JUMPDEST POP PUSH1 0x20 DUP4 LT PUSH2 0x133 DUP4 LT AND PUSH1 0x4E DUP5 LT PUSH1 0xB DUP5 LT AND OR ISZERO PUSH2 0xA85 JUMPI POP DUP2 DUP2 EXP PUSH2 0x573 JUMP JUMPDEST PUSH2 0xA8F DUP4 DUP4 PUSH2 0x9C7 JUMP JUMPDEST DUP1 PUSH1 0x0 NOT DIV DUP3 GT ISZERO PUSH2 0xAA3 JUMPI PUSH2 0xAA3 PUSH2 0x9B1 JUMP JUMPDEST MUL SWAP4 SWAP3 POP POP POP JUMP JUMPDEST PUSH1 0x0 PUSH2 0x351 DUP4 DUP4 PUSH2 0xA0A JUMP JUMPDEST DUP1 DUP3 MUL DUP2 ISZERO DUP3 DUP3 DIV DUP5 EQ OR PUSH2 0x573 JUMPI PUSH2 0x573 PUSH2 0x9B1 JUMP JUMPDEST PUSH1 0x0 DUP3 PUSH2 0xAEB JUMPI PUSH4 0x4E487B71 PUSH1 0xE0 SHL PUSH1 0x0 MSTORE PUSH1 0x12 PUSH1 0x4 MSTORE PUSH1 0x24 PUSH1 0x0 REVERT JUMPDEST POP DIV SWAP1 JUMP JUMPDEST PUSH1 0xFF DUP3 DUP2 AND DUP3 DUP3 AND SUB SWAP1 DUP2 GT ISZERO PUSH2 0x573 JUMPI PUSH2 0x573 PUSH2 0x9B1 JUMP JUMPDEST PUSH1 0x0 PUSH2 0x351 PUSH1 0xFF DUP5 AND DUP4 PUSH2 0xA0A JUMP INVALID LOG2 PUSH5 0x6970667358 0x22 SLT KECCAK256 RETURNDATASIZE 0x2A 0x4A PUSH8 0x4CB30B7BBD064A54 PUSH6 0xDE58DFFA9332 0xE 0xCD 0xE8 PUSH1 0x86 0xEE SELFBALANCE PUSH14 0x392F29F74C64736F6C6343000811 STOP CALLER ","sha1":"d7075c5b6c07db5875d35374e0fe45414076f68f","source":"// SPDX-License-Identifier: GPL-3.0-or-later\npragma solidity 0.8.17;\n\nimport \"@openzeppelin/contracts/access/Ownable.sol\";\nimport \"@openzeppelin/contracts/token/ERC20/extensions/IERC20Metadata.sol\";\n\nimport \"../../libraries/ScaledMath.sol\";\nimport \"../../interfaces/IGenericOracle.sol\";\n\ncontract GenericOracle is IGenericOracle, Ownable {\n    using ScaledMath for uint256;\n\n    event CustomOracleAdded(address token, address oracle);\n\n    mapping(address => IOracle) public customOracles;\n\n    IOracle internal _chainlinkOracle;\n    IOracle internal _curveLpOracle;\n\n    function initialize(address curveLpOracle, address chainlinkOracle) external onlyOwner {\n        require(address(_curveLpOracle) == address(0), \"already initialized\");\n        _chainlinkOracle = IOracle(chainlinkOracle);\n        _curveLpOracle = IOracle(curveLpOracle);\n    }\n\n    function isTokenSupported(address token) external view override returns (bool) {\n        return\n            address(customOracles[token]) != address(0) ||\n            _chainlinkOracle.isTokenSupported(token) ||\n            _curveLpOracle.isTokenSupported(token);\n    }\n\n    function getOracle(address token) public view virtual returns (IOracle) {\n        if (address(customOracles[token]) != address(0)) {\n            return customOracles[token];\n        }\n        if (_chainlinkOracle.isTokenSupported(token)) {\n            return _chainlinkOracle;\n        }\n        return _curveLpOracle;\n    }\n\n    function getUSDPrice(address token) public view virtual returns (uint256) {\n        return getOracle(token).getUSDPrice(token);\n    }\n\n    function setCustomOracle(address token, address oracle) external onlyOwner {\n        customOracles[token] = IOracle(oracle);\n        emit CustomOracleAdded(token, oracle);\n    }\n\n    function curveLpToUnderlying(\n        address curveLpToken,\n        address underlying,\n        uint256 curveLpAmount\n    ) external view returns (uint256) {\n        return\n            curveLpToUnderlying(curveLpToken, underlying, curveLpAmount, getUSDPrice(underlying));\n    }\n\n    function curveLpToUnderlying(\n        address curveLpToken,\n        address underlying,\n        uint256 curveLpAmount,\n        uint256 underlyingPrice\n    ) public view returns (uint256) {\n        return\n            curveLpAmount.mulDown(getUSDPrice(curveLpToken)).divDown(underlyingPrice).convertScale(\n                18,\n                IERC20Metadata(underlying).decimals()\n            );\n    }\n\n    function underlyingToCurveLp(\n        address underlying,\n        address curveLpToken,\n        uint256 underlyingAmount\n    ) external view returns (uint256) {\n        return\n            underlyingAmount\n                .mulDown(getUSDPrice(address(underlying)))\n                .divDown(getUSDPrice(curveLpToken))\n                .convertScale(IERC20Metadata(underlying).decimals(), 18);\n    }\n}\n","sourcePath":"contracts/oracles/GenericOracle.sol","type":"contract","deployment":{"address":"0x865934bEa4Ffe1B51260a99455B1561BC3114E07","chainid":"1","blockHeight":19079518}}