{"abi":[{"inputs":[{"internalType":"address","name":"_controller","type":"address"},{"internalType":"address","name":"_cncToken","type":"address"},{"internalType":"address","name":"_treasury","type":"address"},{"internalType":"address","name":"_crv","type":"address"},{"internalType":"address","name":"_cvx","type":"address"},{"internalType":"bytes32","name":"_merkleRoot","type":"bytes32"}],"stateMutability":"nonpayable","type":"constructor","name":"constructor"},{"anonymous":false,"inputs":[{"indexed":true,"internalType":"address","name":"claimer","type":"address"},{"indexed":false,"internalType":"uint256","name":"amount","type":"uint256"}],"name":"AirdropBoostClaimed","type":"event"},{"anonymous":false,"inputs":[{"indexed":true,"internalType":"address","name":"claimer","type":"address"},{"indexed":false,"internalType":"uint256","name":"crvAmount","type":"uint256"},{"indexed":false,"internalType":"uint256","name":"cvxAmount","type":"uint256"}],"name":"FeesClaimed","type":"event"},{"anonymous":false,"inputs":[{"indexed":true,"internalType":"address","name":"sender","type":"address"},{"indexed":false,"internalType":"uint256","name":"crvAmount","type":"uint256"},{"indexed":false,"internalType":"uint256","name":"cvxAmount","type":"uint256"}],"name":"FeesReceived","type":"event"},{"anonymous":false,"inputs":[{"indexed":true,"internalType":"address","name":"account","type":"address"},{"indexed":true,"internalType":"address","name":"kicker","type":"address"},{"indexed":false,"internalType":"uint256","name":"amount","type":"uint256"}],"name":"KickExecuted","type":"event"},{"anonymous":false,"inputs":[{"indexed":true,"internalType":"address","name":"account","type":"address"},{"indexed":false,"internalType":"uint256","name":"amount","type":"uint256"},{"indexed":false,"internalType":"uint256","name":"unlockTime","type":"uint256"},{"indexed":false,"internalType":"bool","name":"relocked","type":"bool"}],"name":"Locked","type":"event"},{"anonymous":false,"inputs":[{"indexed":true,"internalType":"address","name":"previousOwner","type":"address"},{"indexed":true,"internalType":"address","name":"newOwner","type":"address"}],"name":"OwnershipTransferred","type":"event"},{"anonymous":false,"inputs":[{"indexed":true,"internalType":"address","name":"account","type":"address"},{"indexed":false,"internalType":"uint256","name":"amount","type":"uint256"}],"name":"Relocked","type":"event"},{"anonymous":false,"inputs":[],"name":"Shutdown","type":"event"},{"anonymous":false,"inputs":[{"indexed":true,"internalType":"address","name":"token","type":"address"}],"name":"TokenRecovered","type":"event"},{"anonymous":false,"inputs":[{"indexed":true,"internalType":"address","name":"account","type":"address"},{"indexed":false,"internalType":"uint256","name":"amount","type":"uint256"}],"name":"UnlockExecuted","type":"event"},{"inputs":[],"name":"accruedFeesIntegralCrv","outputs":[{"internalType":"uint256","name":"","type":"uint256"}],"stateMutability":"view","type":"function"},{"inputs":[],"name":"accruedFeesIntegralCvx","outputs":[{"internalType":"uint256","name":"","type":"uint256"}],"stateMutability":"view","type":"function"},{"inputs":[{"internalType":"address","name":"account","type":"address"}],"name":"airdropBoost","outputs":[{"internalType":"uint256","name":"","type":"uint256"}],"stateMutability":"view","type":"function"},{"inputs":[],"name":"airdropEndTime","outputs":[{"internalType":"uint256","name":"","type":"uint256"}],"stateMutability":"view","type":"function"},{"inputs":[{"internalType":"address","name":"user","type":"address"}],"name":"balanceOf","outputs":[{"internalType":"uint256","name":"","type":"uint256"}],"stateMutability":"view","type":"function"},{"inputs":[{"components":[{"internalType":"address","name":"user","type":"address"},{"internalType":"uint64","name":"id","type":"uint64"}],"internalType":"struct ICNCLockerV3.LockId[]","name":"locks","type":"tuple[]"}],"name":"batchKick","outputs":[],"stateMutability":"nonpayable","type":"function"},{"inputs":[{"internalType":"uint256","name":"amount","type":"uint256"},{"components":[{"internalType":"uint16","name":"nodeIndex","type":"uint16"},{"internalType":"bytes32[]","name":"hashes","type":"bytes32[]"}],"internalType":"struct MerkleProof.Proof","name":"proof","type":"tuple"}],"name":"claimAirdropBoost","outputs":[],"stateMutability":"nonpayable","type":"function"},{"inputs":[],"name":"claimFees","outputs":[{"internalType":"uint256","name":"crvAmount","type":"uint256"},{"internalType":"uint256","name":"cvxAmount","type":"uint256"}],"stateMutability":"nonpayable","type":"function"},{"inputs":[{"internalType":"address","name":"account","type":"address"}],"name":"claimableFees","outputs":[{"internalType":"uint256","name":"claimableCrv","type":"uint256"},{"internalType":"uint256","name":"claimableCvx","type":"uint256"}],"stateMutability":"view","type":"function"},{"inputs":[{"internalType":"address","name":"","type":"address"}],"name":"claimedAirdrop","outputs":[{"internalType":"bool","name":"","type":"bool"}],"stateMutability":"view","type":"function"},{"inputs":[],"name":"cncToken","outputs":[{"internalType":"contract ICNCToken","name":"","type":"address"}],"stateMutability":"view","type":"function"},{"inputs":[{"internalType":"uint128","name":"lockTime","type":"uint128"}],"name":"computeBoost","outputs":[{"internalType":"uint128","name":"","type":"uint128"}],"stateMutability":"pure","type":"function"},{"inputs":[],"name":"controller","outputs":[{"internalType":"contract IController","name":"","type":"address"}],"stateMutability":"view","type":"function"},{"inputs":[],"name":"crv","outputs":[{"internalType":"contract IERC20","name":"","type":"address"}],"stateMutability":"view","type":"function"},{"inputs":[],"name":"cvx","outputs":[{"internalType":"contract IERC20","name":"","type":"address"}],"stateMutability":"view","type":"function"},{"inputs":[],"name":"executeAvailableUnlocks","outputs":[{"internalType":"uint256","name":"","type":"uint256"}],"stateMutability":"nonpayable","type":"function"},{"inputs":[{"internalType":"address","name":"dst","type":"address"}],"name":"executeAvailableUnlocksFor","outputs":[{"internalType":"uint256","name":"","type":"uint256"}],"stateMutability":"nonpayable","type":"function"},{"inputs":[{"internalType":"address","name":"dst","type":"address"},{"internalType":"uint64[]","name":"lockIds","type":"uint64[]"}],"name":"executeUnlocks","outputs":[{"internalType":"uint256","name":"","type":"uint256"}],"stateMutability":"nonpayable","type":"function"},{"inputs":[],"name":"isShutdown","outputs":[{"internalType":"bool","name":"","type":"bool"}],"stateMutability":"view","type":"function"},{"inputs":[{"internalType":"address","name":"user","type":"address"},{"internalType":"uint64","name":"lockId","type":"uint64"}],"name":"kick","outputs":[],"stateMutability":"nonpayable","type":"function"},{"inputs":[{"internalType":"uint256","name":"amount","type":"uint256"},{"internalType":"uint64","name":"lockTime","type":"uint64"}],"name":"lock","outputs":[],"stateMutability":"nonpayable","type":"function"},{"inputs":[{"internalType":"uint256","name":"amount","type":"uint256"},{"internalType":"uint64","name":"lockTime","type":"uint64"},{"internalType":"bool","name":"relock_","type":"bool"}],"name":"lock","outputs":[],"stateMutability":"nonpayable","type":"function"},{"inputs":[{"internalType":"uint256","name":"amount","type":"uint256"},{"internalType":"uint64","name":"lockTime","type":"uint64"},{"internalType":"bool","name":"relock_","type":"bool"},{"internalType":"address","name":"account","type":"address"}],"name":"lockFor","outputs":[],"stateMutability":"nonpayable","type":"function"},{"inputs":[{"internalType":"address","name":"","type":"address"}],"name":"lockedBalance","outputs":[{"internalType":"uint256","name":"","type":"uint256"}],"stateMutability":"view","type":"function"},{"inputs":[{"internalType":"address","name":"","type":"address"}],"name":"lockedBoosted","outputs":[{"internalType":"uint256","name":"","type":"uint256"}],"stateMutability":"view","type":"function"},{"inputs":[],"name":"merkleRoot","outputs":[{"internalType":"bytes32","name":"","type":"bytes32"}],"stateMutability":"view","type":"function"},{"inputs":[],"name":"owner","outputs":[{"internalType":"address","name":"","type":"address"}],"stateMutability":"view","type":"function"},{"inputs":[{"internalType":"address","name":"","type":"address"}],"name":"perAccountAccruedCrv","outputs":[{"internalType":"uint256","name":"","type":"uint256"}],"stateMutability":"view","type":"function"},{"inputs":[{"internalType":"address","name":"","type":"address"}],"name":"perAccountAccruedCvx","outputs":[{"internalType":"uint256","name":"","type":"uint256"}],"stateMutability":"view","type":"function"},{"inputs":[{"internalType":"address","name":"","type":"address"}],"name":"perAccountFeesCrv","outputs":[{"internalType":"uint256","name":"","type":"uint256"}],"stateMutability":"view","type":"function"},{"inputs":[{"internalType":"address","name":"","type":"address"}],"name":"perAccountFeesCvx","outputs":[{"internalType":"uint256","name":"","type":"uint256"}],"stateMutability":"view","type":"function"},{"inputs":[{"internalType":"uint256","name":"amountCrv","type":"uint256"},{"internalType":"uint256","name":"amountCvx","type":"uint256"}],"name":"receiveFees","outputs":[],"stateMutability":"nonpayable","type":"function"},{"inputs":[{"internalType":"address","name":"token","type":"address"}],"name":"recoverToken","outputs":[],"stateMutability":"nonpayable","type":"function"},{"inputs":[{"internalType":"uint64","name":"lockId","type":"uint64"},{"internalType":"uint64","name":"lockTime","type":"uint64"}],"name":"relock","outputs":[],"stateMutability":"nonpayable","type":"function"},{"inputs":[{"internalType":"uint64","name":"lockTime","type":"uint64"}],"name":"relock","outputs":[],"stateMutability":"nonpayable","type":"function"},{"inputs":[{"internalType":"uint64[]","name":"lockIds","type":"uint64[]"},{"internalType":"uint64","name":"lockTime","type":"uint64"}],"name":"relockMultiple","outputs":[],"stateMutability":"nonpayable","type":"function"},{"inputs":[],"name":"renounceOwnership","outputs":[],"stateMutability":"nonpayable","type":"function"},{"inputs":[],"name":"shutDown","outputs":[],"stateMutability":"nonpayable","type":"function"},{"inputs":[],"name":"totalBoosted","outputs":[{"internalType":"uint256","name":"","type":"uint256"}],"stateMutability":"view","type":"function"},{"inputs":[],"name":"totalLocked","outputs":[{"internalType":"uint256","name":"","type":"uint256"}],"stateMutability":"view","type":"function"},{"inputs":[{"internalType":"address","name":"account","type":"address"}],"name":"totalRewardsBoost","outputs":[{"internalType":"uint256","name":"","type":"uint256"}],"stateMutability":"view","type":"function"},{"inputs":[{"internalType":"address","name":"account","type":"address"}],"name":"totalStreamBoost","outputs":[{"internalType":"uint256","name":"","type":"uint256"}],"stateMutability":"view","type":"function"},{"inputs":[{"internalType":"address","name":"account","type":"address"}],"name":"totalVoteBoost","outputs":[{"internalType":"uint256","name":"","type":"uint256"}],"stateMutability":"view","type":"function"},{"inputs":[{"internalType":"address","name":"newOwner","type":"address"}],"name":"transferOwnership","outputs":[],"stateMutability":"nonpayable","type":"function"},{"inputs":[],"name":"treasury","outputs":[{"internalType":"address","name":"","type":"address"}],"stateMutability":"view","type":"function"},{"inputs":[{"internalType":"address","name":"user","type":"address"}],"name":"unlockableBalance","outputs":[{"internalType":"uint256","name":"","type":"uint256"}],"stateMutability":"view","type":"function"},{"inputs":[{"internalType":"address","name":"user","type":"address"}],"name":"unlockableBalanceBoosted","outputs":[{"internalType":"uint256","name":"","type":"uint256"}],"stateMutability":"view","type":"function"},{"inputs":[{"internalType":"address","name":"account","type":"address"}],"name":"userLocks","outputs":[{"components":[{"internalType":"uint256","name":"amount","type":"uint256"},{"internalType":"uint64","name":"unlockTime","type":"uint64"},{"internalType":"uint128","name":"boost","type":"uint128"},{"internalType":"uint64","name":"id","type":"uint64"}],"internalType":"struct ICNCLockerV3.VoteLock[]","name":"","type":"tuple[]"}],"stateMutability":"view","type":"function"},{"inputs":[{"internalType":"address","name":"","type":"address"},{"internalType":"uint256","name":"","type":"uint256"}],"name":"voteLocks","outputs":[{"internalType":"uint256","name":"amount","type":"uint256"},{"internalType":"uint64","name":"unlockTime","type":"uint64"},{"internalType":"uint128","name":"boost","type":"uint128"},{"internalType":"uint64","name":"id","type":"uint64"}],"stateMutability":"view","type":"function"}],"bytecode":"6101606040523480156200001257600080fd5b5060405162003f2d38038062003f2d8339810160408190526200003591620000f6565b620000403362000089565b6001600160a01b03808716610140528581166080528481166101205283811660e0528216610100526200007762eff100426200016e565b60a05260c05250620001969350505050565b600080546001600160a01b038381166001600160a01b0319831681178455604051919092169283917f8be0079c531659141344cd1fd0a4f28419497f9722a3daafe3b4186f6b6457e09190a35050565b80516001600160a01b0381168114620000f157600080fd5b919050565b60008060008060008060c087890312156200011057600080fd5b6200011b87620000d9565b95506200012b60208801620000d9565b94506200013b60408801620000d9565b93506200014b60608801620000d9565b92506200015b60808801620000d9565b915060a087015190509295509295509295565b808201808211156200019057634e487b7160e01b600052601160045260246000fd5b92915050565b60805160a05160c05160e051610100516101205161014051613cc5620002686000396000818161078e01528181610f3b015261297c0152600081816104b301526117d801526000818161060a01528181610dac0152818161174401526121b901526000818161052201528181610d7701528181611706015261217d0152600081816103fb0152610a180152600081816105d2015261086e0152600081816104fb01528181611423015281816116c901528181611ab501528181611ae901528181611e1e015261256f0152613cc56000f3fe608060405234801561001057600080fd5b50600436106102bb5760003560e01c8063715018a611610182578063a6aed923116100e9578063ddecf662116100a2578063edaf69bd1161007c578063edaf69bd14610763578063f2fde38b14610776578063f77c479114610789578063f816144e146107b057600080fd5b8063ddecf662146106db578063dfb142ae14610725578063ea312d761461073857600080fd5b8063a6aed92314610685578063bb3cac5414610698578063bf4b3e65146106ab578063bf86d690146106b3578063c5890d2d146106c0578063d294f093146106d357600080fd5b80638da5cb5b1161013b5780638da5cb5b146105f4578063923c1d611461060557806393ed9d011461062c578063984acb491461063f5780639ae697bf146106525780639be65a601461067257600080fd5b8063715018a61461055757806378f89c201461055f5780637907706f146105725780637bf500c8146105855780637e0b2492146105a5578063806019c1146105cd57600080fd5b806346e919d0116102265780635f07112f116101df5780635f07112f1461049b57806361d027b3146104ae578063631516c2146104ed578063645d28a8146104f65780636a4874a11461051d57806370a082311461054457600080fd5b806346e919d0146104305780634f348758146104435780635219c5121461045657806356891412146104695780635cad88eb146104725780635ee26ad01461047b57600080fd5b80631c91607f116102785780631c91607f1461038757806326a4c842146103a757806328a81039146103ba5780632a324607146103e35780632eb4a7ab146103f65780633efa99791461041d57600080fd5b80630259ef58146102c05780630499abd4146102e95780630b70608f1461031757806310b9e5831461032c57806311e1dc1e146103345780631b93f66d14610354575b600080fd5b6102d36102ce366004613301565b6107b9565b6040516102e0919061331e565b60405180910390f35b6103096102f7366004613301565b600c6020526000908152604090205481565b6040519081526020016102e0565b61032a610325366004613397565b61086c565b005b61032a610ad5565b610309610342366004613301565b600e6020526000908152604090205481565b610377610362366004613301565b60056020526000908152604090205460ff1681565b60405190151581526020016102e0565b610309610395366004613301565b600f6020526000908152604090205481565b61032a6103b536600461344b565b610b68565b6103096103c8366004613301565b6001600160a01b031660009081526002602052604090205490565b6103096103f1366004613301565b610c2c565b6103097f000000000000000000000000000000000000000000000000000000000000000081565b61032a61042b36600461349e565b610d26565b61030961043e366004613301565b610d36565b61032a6104513660046134ca565b610d6a565b610309610464366004613301565b610e5b565b61030960075481565b610309600a5481565b610309610489366004613301565b60026020526000908152604090205481565b61032a6104a93660046134fa565b610f04565b6104d57f000000000000000000000000000000000000000000000000000000000000000081565b6040516001600160a01b0390911681526020016102e0565b61030960085481565b6104d57f000000000000000000000000000000000000000000000000000000000000000081565b6104d57f000000000000000000000000000000000000000000000000000000000000000081565b610309610552366004613301565b610f15565b61032a610f20565b61030961056d366004613301565b610f34565b61032a61058036600461353a565b611036565b610309610593366004613301565b600d6020526000908152604090205481565b6105b86105b3366004613301565b6110b1565b604080519283526020830191909152016102e0565b6103097f000000000000000000000000000000000000000000000000000000000000000081565b6000546001600160a01b03166104d5565b6104d57f000000000000000000000000000000000000000000000000000000000000000081565b61030961063a366004613564565b61116b565b61032a61064d3660046135b8565b61148a565b610309610660366004613301565b60016020526000908152604090205481565b61032a610680366004613301565b6116c7565b61032a6106933660046135d3565b611896565b6103096106a6366004613301565b611c4a565b610309611c94565b6009546103779060ff1681565b61032a6106ce3660046135f1565b611ca4565b6105b861214b565b6106ee6106e9366004613642565b61223a565b604080519485526001600160401b0393841660208601526001600160801b03909216918401919091521660608201526080016102e0565b610309610733366004613301565b61229a565b61074b61074636600461366e565b6125d5565b6040516001600160801b0390911681526020016102e0565b61032a610771366004613728565b612646565b61032a610784366004613301565b6126a8565b6104d57f000000000000000000000000000000000000000000000000000000000000000081565b610309600b5481565b6001600160a01b0381166000908152600360209081526040808320805482518185028101850190935280835260609492939192909184015b828210156108615760008481526020908190206040805160808101825260028602909201805483526001908101546001600160401b03808216858701526001600160801b03600160401b83041693850193909352600160c01b9004909116606083015290835290920191016107f1565b505050509050919050565b7f000000000000000000000000000000000000000000000000000000000000000042106108d05760405162461bcd60e51b815260206004820152600d60248201526c185a5c991c9bdc08195b991959609a1b60448201526064015b60405180910390fd5b3360009081526005602052604090205460ff16156109225760405162461bcd60e51b815260206004820152600f60248201526e185b1c9958591e4818db185a5b5959608a1b60448201526064016108c7565b670de0b6b3a764000082101561097a5760405162461bcd60e51b815260206004820152601860248201527f616d6f756e742063616e6e6f742062652062656c6f772031000000000000000060448201526064016108c7565b6730927f74c9de00008211156109d25760405162461bcd60e51b815260206004820181905260248201527f616d6f756e742065786365656473206d61782061697264726f7020626f6f737460448201526064016108c7565b6040516bffffffffffffffffffffffff193360601b16602082015260348101839052600090605401604051602081830303815290604052805190602001209050610a48817f000000000000000000000000000000000000000000000000000000000000000084610a41906137e8565b9190612721565b610a845760405162461bcd60e51b815260206004820152600d60248201526c34b73b30b634b210383937b7b360991b60448201526064016108c7565b3360008181526004602052604090819020859055517ffb7c165a21b698d172209fd3fbb4a907042c12438cd506666064cd98e0a142aa90610ac89086815260200190565b60405180910390a2505050565b610add61281f565b60095460ff1615610b305760405162461bcd60e51b815260206004820152601860248201527f6c6f636b657220616c72656164792073757370656e646564000000000000000060448201526064016108c7565b6009805460ff191660011790556040517f4426aa1fb73e391071491fcfe21a88b5c38a0a0333a1f6e77161470439704cf890600090a1565b60095460ff1615610b8b5760405162461bcd60e51b81526004016108c79061389d565b6001600160401b038116629e340011801590610bb4575063013c68006001600160401b03821611155b610bd05760405162461bcd60e51b81526004016108c7906138c7565b610bd933612879565b60005b82811015610c2657610c14848483818110610bf957610bf96138f2565b9050602002016020810190610c0e91906135b8565b83612a4f565b80610c1e8161391e565b915050610bdc565b50505050565b6001600160a01b03811660009081526003602052604081208054829190825b81811015610d1c57426001600160801b0316838281548110610c6f57610c6f6138f2565b60009182526020909120600160029092020101546001600160401b031611610d0a57610cfd838281548110610ca657610ca66138f2565b906000526020600020906002020160010160089054906101000a90046001600160801b03166001600160801b0316848381548110610ce657610ce66138f2565b600091825260209091206002909102015490612d1e565b610d079085613937565b93505b80610d148161391e565b915050610c4b565b5091949350505050565b610d3282826000610f04565b5050565b6000610d4182610c2c565b6001600160a01b038316600090815260026020526040902054610d64919061394a565b92915050565b610d9f6001600160a01b037f000000000000000000000000000000000000000000000000000000000000000016333085612d47565b610dd46001600160a01b037f000000000000000000000000000000000000000000000000000000000000000016333084612d47565b600854610de2908390612db2565b600a6000828254610df39190613937565b9091555050600854610e06908290612db2565b600b6000828254610e179190613937565b9091555050604080518381526020810183905233917f213e72af0d3613bd643cff3059f872c1015e6541624e37872bf95eefbaf220a8910160405180910390a25050565b6001600160a01b03811660009081526003602052604081208054829190825b81811015610d1c57426001600160801b0316838281548110610e9e57610e9e6138f2565b60009182526020909120600160029092020101546001600160401b031611610ef257828181548110610ed257610ed26138f2565b90600052602060002090600202016000015484610eef9190613937565b93505b80610efc8161391e565b915050610e7a565b610f1083838333611ca4565b505050565b6000610d6482610f34565b610f2861281f565b610f326000612dcb565b565b6000610d647f00000000000000000000000000000000000000000000000000000000000000006001600160a01b03166348439e7e6040518163ffffffff1660e01b8152600401602060405180830381865afa158015610f97573d6000803e3d6000fd5b505050506040513d601f19601f82011682018060405250810190610fbb919061395d565b60405163067ba3d960e41b81526001600160a01b03858116600483015291909116906367ba3d9090602401602060405180830381865afa158015611003573d6000803e3d6000fd5b505050506040513d601f19601f82011682018060405250810190611027919061397a565b61103084610d36565b90612d1e565b60095460ff16156110595760405162461bcd60e51b81526004016108c79061389d565b6001600160401b038116629e340011801590611082575063013c68006001600160401b03821611155b61109e5760405162461bcd60e51b81526004016108c7906138c7565b6110a733612879565b610d328282612a4f565b6001600160a01b038116600090815260026020908152604080832054600c909252822054600a548392916110f0916110e9919061394a565b8290612d1e565b6001600160a01b0385166000908152600d60205260409020546111139190613937565b6001600160a01b0385166000908152600e6020526040902054600b54919450611140916110e9919061394a565b6001600160a01b0385166000908152600f60205260409020546111639190613937565b915050915091565b600061117633612879565b3360009081526003602052604081208190815b8581101561139c5760006111c3338989858181106111a9576111a96138f2565b90506020020160208101906111be91906135b8565b612e1b565b60095490915060ff16806112055750428382815481106111e5576111e56138f2565b60009182526020909120600160029092020101546001600160401b031611155b6112445760405162461bcd60e51b815260206004820152601060248201526f1b1bd8dac81b9bdd08195e1c1a5c995960821b60448201526064016108c7565b828181548110611256576112566138f2565b906000526020600020906002020160000154856112739190613937565b945061128a838281548110610ca657610ca66138f2565b6112949085613937565b835490945083906112a79060019061394a565b815481106112b7576112b76138f2565b90600052602060002090600202018382815481106112d7576112d76138f2565b6000918252602090912082546002909202019081556001918201805492909101805467ffffffffffffffff1981166001600160401b03948516908117835583546001600160801b03600160401b9182900416026001600160c01b031990921617178082559154600160c01b908190049093169092026001600160c01b03909116179055825483908061136b5761136b613993565b60008281526020812060026000199093019283020181815560010155905550806113948161391e565b915050611189565b5082600760008282546113af919061394a565b9250508190555081600860008282546113c8919061394a565b909155505033600090815260016020526040812080548592906113ec90849061394a565b9091555050336000908152600260205260408120805484929061141090849061394a565b9091555061144a90506001600160a01b037f0000000000000000000000000000000000000000000000000000000000000000168885612ef6565b60405183815233907fb291e2a2847a5ad6d47409943306c6d6e8c63a9855b849701b868191e94789709060200160405180910390a2509095945050505050565b60095460ff16156114ad5760405162461bcd60e51b81526004016108c79061389d565b6001600160401b038116629e3400118015906114d6575063013c68006001600160401b03821611155b6114f25760405162461bcd60e51b81526004016108c7906138c7565b6114fb33612879565b600061150f826001600160401b03166125d5565b9050600061151d83426139a9565b336000908152600360205260408120549192505b818110156115b25733600090815260036020526040902080546001600160401b038516919083908110611566576115666138f2565b60009182526020909120600160029092020101546001600160401b0316106115a05760405162461bcd60e51b81526004016108c7906139d0565b806115aa8161391e565b915050611531565b503360009081526003602052604081206115cb916132b1565b3360009081526002602052604081205460088054919290916115ee90849061394a565b9091555050336000818152600260209081526040808320839055600190915290205461161c91908486612f26565b3360009081526001602052604081205461163f906001600160801b038616612d1e565b905080600860008282546116539190613937565b90915550503360009081526002602052604081208054839290611677908490613937565b9091555050336000818152600160209081526040918290205491519182527fe2d155d9d74decc198a9a9b4f5bddb24ee0842ee745c9ce57e3573b971e50d9d910160405180910390a25050505050565b7f00000000000000000000000000000000000000000000000000000000000000006001600160a01b0316816001600160a01b03161415801561173b57507f00000000000000000000000000000000000000000000000000000000000000006001600160a01b0316816001600160a01b031614155b801561177957507f00000000000000000000000000000000000000000000000000000000000000006001600160a01b0316816001600160a01b031614155b6117bd5760405162461bcd60e51b815260206004820152601560248201527431b0b73737ba103bb4ba34323930bb903a37b5b2b760591b60448201526064016108c7565b6040516370a0823160e01b8152306004820152819061185e907f0000000000000000000000000000000000000000000000000000000000000000906001600160a01b038416906370a0823190602401602060405180830381865afa158015611829573d6000803e3d6000fd5b505050506040513d601f19601f8201168201806040525081019061184d919061397a565b6001600160a01b0384169190612ef6565b6040516001600160a01b038316907f17a79be10b6da9324a110f0ea6d3043db38f1eee6e2ee1dbfa7272338e39da4590600090a25050565b60006118a28383612e1b565b6001600160a01b03841660009081526003602052604090208054919250906001600160801b034216906224ea00908390859081106118e2576118e26138f2565b600091825260209091206001600290920201015461190991906001600160401b0316613a07565b6001600160801b031611156119585760405162461bcd60e51b815260206004820152601560248201527463616e6e6f74206b69636b2074686973206c6f636b60581b60448201526064016108c7565b61196184612879565b6000818381548110611975576119756138f2565b9060005260206000209060020201600001549050806007600082825461199b919061394a565b925050819055506119e28284815481106119b7576119b76138f2565b60009182526020909120600290910201600101548290600160401b90046001600160801b0316612d1e565b600860008282546119f3919061394a565b90915550506001600160a01b03851660009081526001602052604081208054839290611a2090849061394a565b92505081905550611a3c8284815481106119b7576119b76138f2565b6001600160a01b03861660009081526002602052604081208054909190611a6490849061394a565b9091555060009050611a7e8267016345785d8a0000612d1e565b9050683635c9adc5dea00000811115611a9d5750683635c9adc5dea000005b611adc86611aab838561394a565b6001600160a01b037f0000000000000000000000000000000000000000000000000000000000000000169190612ef6565b611b106001600160a01b037f0000000000000000000000000000000000000000000000000000000000000000163383612ef6565b60405182815233906001600160a01b038816907f9716d4c8630c7c1a47a462f169d1764a38687f7532baf2bd74a791afc20030e69060200160405180910390a382548390611b609060019061394a565b81548110611b7057611b706138f2565b9060005260206000209060020201838581548110611b9057611b906138f2565b6000918252602090912082546002909202019081556001918201805492909101805467ffffffffffffffff1981166001600160401b03948516908117835583546001600160801b03600160401b9182900416026001600160c01b031990921617178082559154600160c01b908190049093169092026001600160c01b039091161790558254839080611c2457611c24613993565b600082815260208120600260001990930192830201818155600101559055505050505050565b6001600160a01b0381166000908152600460205260408120548103611c785750670de0b6b3a7640000919050565b506001600160a01b031660009081526004602052604090205490565b6000611c9f3361229a565b905090565b60095460ff1615611cc75760405162461bcd60e51b81526004016108c79061389d565b678ac7230489e80000841015611d125760405162461bcd60e51b815260206004820152601060248201526f185b5bdd5b9d081d1bdbc81cdb585b1b60821b60448201526064016108c7565b6001600160401b038316629e340011801590611d3b575063013c68006001600160401b03841611155b611d575760405162461bcd60e51b81526004016108c7906138c7565b811580611d6c5750336001600160a01b038216145b611daf5760405162461bcd60e51b81526020600482015260146024820152733932b637b1b59037b7363c903337b91039b2b63360611b60448201526064016108c7565b6001600160a01b038116600090815260036020526040902054600a11611e085760405162461bcd60e51b815260206004820152600e60248201526d746f6f206d616e79206c6f636b7360901b60448201526064016108c7565b611e1181612879565b611e466001600160a01b037f000000000000000000000000000000000000000000000000000000000000000016333087612d47565b6000611e5a846001600160401b03166125d5565b90506000611e6733611c4a565b9050670de0b6b3a7640000811115611eb957336000908152600560205260409020805460ff19166001179055611ea66001600160801b03831682613011565b3360009081526004602052604081205591505b6000611ec586426139a9565b905060008515612040576001600160a01b038516600090815260036020526040812054905b81811015611f74576001600160a01b038716600090815260036020526040902080546001600160401b038616919083908110611f2857611f286138f2565b60009182526020909120600160029092020101546001600160401b031610611f625760405162461bcd60e51b81526004016108c7906139d0565b80611f6c8161391e565b915050611eea565b506001600160a01b0386166000908152600360205260408120611f96916132b1565b6001600160a01b0386166000908152600260205260408120546008805491929091611fc290849061394a565b90915550506001600160a01b03861660009081526002602090815260408083208390556001909152902054612005908790611ffe908c90613937565b8588612f26565b6001600160a01b038616600090815260016020526040902054612038906001600160801b03871690611030908c90613937565b915050612062565b61204c85898487612f26565b61205f886001600160801b038616612d1e565b90505b87600760008282546120749190613937565b92505081905550806008600082825461208d9190613937565b90915550506001600160a01b038516600090815260016020526040812080548a92906120ba908490613937565b90915550506001600160a01b038516600090815260026020526040812080548392906120e7908490613937565b9091555050604080518981526001600160401b03841660208201528715158183015290516001600160a01b038716917fca8d506eda84f8ed07c2908ae102299d34888ef5e19b97f56e4d6fcd1104c31e919081900360600190a25050505050505050565b60008061215733612879565b5050336000818152600d6020908152604080832054600f9092529091205490916121ac907f00000000000000000000000000000000000000000000000000000000000000006001600160a01b03169084612ef6565b6121e06001600160a01b037f0000000000000000000000000000000000000000000000000000000000000000163383612ef6565b336000818152600d60209081526040808320839055600f82528083209290925581518581529081018490527f1ac537f0ad67b64ac68a04587ff3a4cb6977de22eb2c37ee560897a92c6d07c7910160405180910390a29091565b6003602052816000526040600020818154811061225657600080fd5b6000918252602090912060029091020180546001909101549092506001600160401b0380821692506001600160801b03600160401b83041691600160c01b90041684565b60006001600160a01b0382166122e85760405162461bcd60e51b815260206004820152601360248201527234b73b30b634b2103232b9ba34b730ba34b7b760691b60448201526064016108c7565b6122f133612879565b33600090815260036020526040812080548291905b80156124e95761231760018261394a565b60095490915060ff1680612359575042828281548110612339576123396138f2565b60009182526020909120600160029092020101546001600160401b031611155b156124e457818181548110612370576123706138f2565b9060005260206000209060020201600001548461238d9190613937565b93506123e48282815481106123a4576123a46138f2565b906000526020600020906002020160010160089054906101000a90046001600160801b03166001600160801b0316838381548110610ce657610ce66138f2565b6123ee9084613937565b825490935082906124019060019061394a565b81548110612411576124116138f2565b9060005260206000209060020201828281548110612431576124316138f2565b6000918252602090912082546002909202019081556001918201805492909101805467ffffffffffffffff1981166001600160401b03948516908117835583546001600160801b03600160401b9182900416026001600160c01b031990921617178082559154600160c01b908190049093169092026001600160c01b0390911617905581548290806124c5576124c5613993565b6000828152602081206002600019909301928302018181556001015590555b612306565b83600760008282546124fb919061394a565b925050819055508260086000828254612514919061394a565b9091555050336000908152600160205260408120805486929061253890849061394a565b9091555050336000908152600260205260408120805485929061255c90849061394a565b9091555061259690506001600160a01b037f0000000000000000000000000000000000000000000000000000000000000000168786612ef6565b60405184815233907fb291e2a2847a5ad6d47409943306c6d6e8c63a9855b849701b868191e94789709060200160405180910390a25091949350505050565b6000670de0b6b3a764000061263c6126136125f7629e340063013c6800613a27565b612604629e340087613a27565b6001600160801b031690613033565b61262d670de0b6b3a76400006714d1120d7b160000613a27565b6001600160801b031690613011565b610d649190613a07565b60005b8151811015610d3257612696828281518110612667576126676138f2565b602002602001015160000151838381518110612685576126856138f2565b602002602001015160200151611896565b806126a08161391e565b915050612649565b6126b061281f565b6001600160a01b0381166127155760405162461bcd60e51b815260206004820152602660248201527f4f776e61626c653a206e6577206f776e657220697320746865207a65726f206160448201526564647265737360d01b60648201526084016108c7565b61271e81612dcb565b50565b602083015151835160009190825b8281101561281457612742600283613a5d565b61ffff166000036127a3578587602001518281518110612764576127646138f2565b6020026020010151604051602001612786929190918252602082015260400190565b6040516020818303038152906040528051906020012095506127f5565b866020015181815181106127b9576127b96138f2565b6020026020010151866040516020016127dc929190918252602082015260400190565b6040516020818303038152906040528051906020012095505b612800600283613a7e565b91508061280c8161391e565b91505061272f565b505050911492915050565b6000546001600160a01b03163314610f325760405162461bcd60e51b815260206004820181905260248201527f4f776e61626c653a2063616c6c6572206973206e6f7420746865206f776e657260448201526064016108c7565b6001600160a01b038116600090815260026020908152604080832054600a54600b54600c90945291909320549091906128bd906128b6908461394a565b8490612d1e565b6001600160a01b0385166000908152600d6020526040812080549091906128e5908490613937565b90915550506001600160a01b0384166000908152600c60209081526040808320859055600e90915290205461291e906128b6908361394a565b6001600160a01b0385166000908152600f602052604081208054909190612946908490613937565b90915550506001600160a01b038085166000908152600e602090815260408083208590558051639845755960e01b8152905192937f000000000000000000000000000000000000000000000000000000000000000016926398457559926004808401939192918290030181865afa1580156129c5573d6000803e3d6000fd5b505050506040513d601f19601f820116820180604052508101906129e9919061395d565b60405163bf928f8b60e01b81526001600160a01b0387811660048301529192509082169063bf928f8b90602401600060405180830381600087803b158015612a3057600080fd5b505af1158015612a44573d6000803e3d6000fd5b505050505050505050565b6000612a5b3384612e1b565b90506000612a71836001600160401b03166125d5565b90506000612a7f84426139a9565b3360009081526003602052604090208054919250906001600160401b03831690829086908110612ab157612ab16138f2565b60009182526020909120600160029092020101546001600160401b031610612aeb5760405162461bcd60e51b81526004016108c7906139d0565b6000818581548110612aff57612aff6138f2565b90600052602060002090600202016000015490506000612b6a838781548110612b2a57612b2a6138f2565b906000526020600020906002020160010160089054906101000a90046001600160801b03166001600160801b0316848881548110610ce657610ce66138f2565b83549091508390612b7d9060019061394a565b81548110612b8d57612b8d6138f2565b9060005260206000209060020201838781548110612bad57612bad6138f2565b6000918252602090912082546002909202019081556001918201805492909101805467ffffffffffffffff1981166001600160401b03948516908117835583546001600160801b03600160401b9182900416026001600160c01b031990921617178082559154600160c01b908190049093169092026001600160c01b039091161790558254839080612c4157612c41613993565b600082815260208120600260001990930192830201818155600101559055612c6b33838688612f26565b6000612c80836001600160801b038816612d1e565b90508181600854612c919190613937565b612c9b919061394a565b600855336000908152600260205260409020548290612cbb908390613937565b612cc5919061394a565b33600081815260026020526040908190209290925590517fe2d155d9d74decc198a9a9b4f5bddb24ee0842ee745c9ce57e3573b971e50d9d90612d0b9086815260200190565b60405180910390a2505050505050505050565b6000612d2c6012600a613b83565b612d368385613b8f565b612d409190613ba6565b9392505050565b6040516001600160a01b0380851660248301528316604482015260648101829052610c269085906323b872dd60e01b906084015b60408051601f198184030181529190526020810180516001600160e01b03166001600160e01b03199093169290921790915261304c565b600081612dc16012600a613b83565b612d369085613b8f565b600080546001600160a01b038381166001600160a01b0319831681178455604051919092169283917f8be0079c531659141344cd1fd0a4f28419497f9722a3daafe3b4186f6b6457e09190a35050565b6001600160a01b038216600090815260036020526040812054815b81811015612eb8576001600160a01b038516600090815260036020526040902080546001600160401b038616919083908110612e7457612e746138f2565b6000918252602090912060029091020160010154600160c01b90046001600160401b031603612ea6579150610d649050565b80612eb08161391e565b915050612e36565b5060405162461bcd60e51b81526020600482015260126024820152711b1bd8dac8191bd95cdb89dd08195e1a5cdd60721b60448201526064016108c7565b6040516001600160a01b038316602482015260448101829052610f1090849063a9059cbb60e01b90606401612d7b565b6006546001600160a01b038516600090815260036020908152604080832081516080810183528881526001600160401b038881168286019081526001600160801b03808a1695840195865297821660608401818152855460018181018855968a529790982093516002909702909301958655519483018054945196518216600160c01b026001600160c01b0397909816600160401b026001600160c01b031990951695909116949094179290921793909316939093179055612fe99082906139a9565b6006805467ffffffffffffffff19166001600160401b03929092169190911790555050505050565b600061301f6012600a613b83565b6130298385613bba565b612d409190613be5565b6000816130426012600a613b83565b6130299085613bba565b60006130a1826040518060400160405280602081526020017f5361666545524332303a206c6f772d6c6576656c2063616c6c206661696c6564815250856001600160a01b03166131219092919063ffffffff16565b90508051600014806130c25750808060200190518101906130c29190613bff565b610f105760405162461bcd60e51b815260206004820152602a60248201527f5361666545524332303a204552433230206f7065726174696f6e20646964206e6044820152691bdd081cdd58d8d9595960b21b60648201526084016108c7565b60606131308484600085613138565b949350505050565b6060824710156131995760405162461bcd60e51b815260206004820152602660248201527f416464726573733a20696e73756666696369656e742062616c616e636520666f6044820152651c8818d85b1b60d21b60648201526084016108c7565b600080866001600160a01b031685876040516131b59190613c40565b60006040518083038185875af1925050503d80600081146131f2576040519150601f19603f3d011682016040523d82523d6000602084013e6131f7565b606091505b509150915061320887838387613213565b979650505050505050565b6060831561328257825160000361327b576001600160a01b0385163b61327b5760405162461bcd60e51b815260206004820152601d60248201527f416464726573733a2063616c6c20746f206e6f6e2d636f6e747261637400000060448201526064016108c7565b5081613130565b61313083838151156132975781518083602001fd5b8060405162461bcd60e51b81526004016108c79190613c5c565b508054600082556002029060005260206000209081019061271e91905b808211156132e857600080825560018201556002016132ce565b5090565b6001600160a01b038116811461271e57600080fd5b60006020828403121561331357600080fd5b8135612d40816132ec565b602080825282518282018190526000919060409081850190868401855b8281101561338a57815180518552868101516001600160401b0390811688870152868201516001600160801b03168787015260609182015116908501526080909301929085019060010161333b565b5091979650505050505050565b600080604083850312156133aa57600080fd5b8235915060208301356001600160401b038111156133c757600080fd5b8301604081860312156133d957600080fd5b809150509250929050565b60008083601f8401126133f657600080fd5b5081356001600160401b0381111561340d57600080fd5b6020830191508360208260051b850101111561342857600080fd5b9250929050565b80356001600160401b038116811461344657600080fd5b919050565b60008060006040848603121561346057600080fd5b83356001600160401b0381111561347657600080fd5b613482868287016133e4565b909450925061349590506020850161342f565b90509250925092565b600080604083850312156134b157600080fd5b823591506134c16020840161342f565b90509250929050565b600080604083850312156134dd57600080fd5b50508035926020909101359150565b801515811461271e57600080fd5b60008060006060848603121561350f57600080fd5b8335925061351f6020850161342f565b9150604084013561352f816134ec565b809150509250925092565b6000806040838503121561354d57600080fd5b6135568361342f565b91506134c16020840161342f565b60008060006040848603121561357957600080fd5b8335613584816132ec565b925060208401356001600160401b0381111561359f57600080fd5b6135ab868287016133e4565b9497909650939450505050565b6000602082840312156135ca57600080fd5b612d408261342f565b600080604083850312156135e657600080fd5b8235613556816132ec565b6000806000806080858703121561360757600080fd5b843593506136176020860161342f565b92506040850135613627816134ec565b91506060850135613637816132ec565b939692955090935050565b6000806040838503121561365557600080fd5b8235613660816132ec565b946020939093013593505050565b60006020828403121561368057600080fd5b81356001600160801b0381168114612d4057600080fd5b634e487b7160e01b600052604160045260246000fd5b604080519081016001600160401b03811182821017156136cf576136cf613697565b60405290565b604051601f8201601f191681016001600160401b03811182821017156136fd576136fd613697565b604052919050565b60006001600160401b0382111561371e5761371e613697565b5060051b60200190565b6000602080838503121561373b57600080fd5b82356001600160401b0381111561375157600080fd5b8301601f8101851361376257600080fd5b803561377561377082613705565b6136d5565b81815260069190911b8201830190838101908783111561379457600080fd5b928401925b8284101561320857604084890312156137b25760008081fd5b6137ba6136ad565b84356137c5816132ec565b81526137d285870161342f565b8187015282526040939093019290840190613799565b6000604082360312156137fa57600080fd5b6138026136ad565b823561ffff8116811461381457600080fd5b81526020838101356001600160401b0381111561383057600080fd5b840136601f82011261384157600080fd5b803561384f61377082613705565b81815260059190911b8201830190838101903683111561386e57600080fd5b928401925b8284101561388c57833582529284019290840190613873565b938501939093525091949350505050565b60208082526010908201526f1b1bd8dad95c881cdd5cdc195b99195960821b604082015260600190565b6020808252601190820152701b1bd8dac81d1a5b59481a5b9d985b1a59607a1b604082015260600190565b634e487b7160e01b600052603260045260246000fd5b634e487b7160e01b600052601160045260246000fd5b60006001820161393057613930613908565b5060010190565b80820180821115610d6457610d64613908565b81810381811115610d6457610d64613908565b60006020828403121561396f57600080fd5b8151612d40816132ec565b60006020828403121561398c57600080fd5b5051919050565b634e487b7160e01b600052603160045260246000fd5b6001600160401b038181168382160190808211156139c9576139c9613908565b5092915050565b6020808252601e908201527f63616e6e6f74206d6f76652074686520756e6c6f636b2074696d652075700000604082015260600190565b6001600160801b038181168382160190808211156139c9576139c9613908565b6001600160801b038281168282160390808211156139c9576139c9613908565b634e487b7160e01b600052601260045260246000fd5b600061ffff80841680613a7257613a72613a47565b92169190910692915050565b600061ffff80841680613a9357613a93613a47565b92169190910492915050565b600181815b80851115613ada578160001904821115613ac057613ac0613908565b80851615613acd57918102915b93841c9390800290613aa4565b509250929050565b600082613af157506001610d64565b81613afe57506000610d64565b8160018114613b145760028114613b1e57613b3a565b6001915050610d64565b60ff841115613b2f57613b2f613908565b50506001821b610d64565b5060208310610133831016604e8410600b8410161715613b5d575081810a610d64565b613b678383613a9f565b8060001904821115613b7b57613b7b613908565b029392505050565b6000612d408383613ae2565b8082028115828204841417610d6457610d64613908565b600082613bb557613bb5613a47565b500490565b6001600160801b03818116838216028082169190828114613bdd57613bdd613908565b505092915050565b60006001600160801b0380841680613a9357613a93613a47565b600060208284031215613c1157600080fd5b8151612d40816134ec565b60005b83811015613c37578181015183820152602001613c1f565b50506000910152565b60008251613c52818460208701613c1c565b9190910192915050565b6020815260008251806020840152613c7b816040850160208701613c1c565b601f01601f1916919091016040019291505056fea2646970667358221220110a4a0bdcb2a334a38a1327bc995e846ea2733286b8c500341b4b85048b6e7164736f6c63430008110033","bytecodeSha1":"8f7c8be5b4a31fbe2eede4172644b02695dcf80c","compiler":{"evm_version":"london","optimizer":{"enabled":true,"runs":200},"version":"0.8.17+commit.8df45f5f"},"contractName":"CNCLockerV3","language":"Solidity","natspec":{"kind":"dev","methods":{"executeAvailableUnlocks()":{"notice":"Process all expired locks of msg.sender and withdraw unlocked CNC."},"executeAvailableUnlocksFor(address)":{"notice":"Process all expired locks of msg.sender and withdraw unlocked CNC to `dst`."},"executeUnlocks(address,uint64[])":{"notice":"Process specified locks of msg.sender and withdraw unlocked CNC to `dst`.","params":{"dst":"Destination address to receive unlocked CNC.","lockIds":"Array of lock IDs to process."},"returns":{"_0":"unlocked Amount of CNC unlocked."}},"kick(address,uint64)":{"notice":"Kick an expired lock"},"lock(uint256,uint64,bool)":{"notice":"Lock an amount of CNC for vlCNC.","params":{"amount":"Amount of CNC to lock.","lockTime":"Duration of the lock.","relock_":"`True` if this is a relock of an existing lock."}},"lockFor(uint256,uint64,bool,address)":{"notice":"Lock an amount of CNC for vlCNC.","params":{"account":"The account to receive the vlCNC.","amount":"Amount of CNC to lock.","lockTime":"Duration of the lock.","relock_":"`True` if this is a relock of all existing locks."}},"owner()":{"details":"Returns the address of the current owner."},"relock(uint64,uint64)":{"details":"Users locking CNC can create multiple locks therefore individual locks can be relocked separately.","notice":"Relock a specific lock","params":{"lockId":"Id of the lock to relock.","lockTime":"Duration for which the locks's CNC amount should be relocked for."}},"relockMultiple(uint64[],uint64)":{"notice":"Relock specified locks","params":{"lockIds":"Ids of the locks to relock.","lockTime":"Duration for which the locks's CNC amount should be relocked for."}},"renounceOwnership()":{"details":"Leaves the contract without owner. It will not be possible to call `onlyOwner` functions. Can only be called by the current owner. NOTE: Renouncing ownership will leave the contract without an owner, thereby disabling any functionality that is only available to the owner."},"transferOwnership(address)":{"details":"Transfers ownership of the contract to a new account (`newOwner`). Can only be called by the current owner."},"unlockableBalance(address)":{"notice":"Get unlocked CNC balance for an address","params":{"user":"Address to get unlocked CNC balance for"},"returns":{"_0":"Unlocked CNC balance"}},"unlockableBalanceBoosted(address)":{"notice":"Get unlocked boosted CNC balance for an address","params":{"user":"Address to get unlocked boosted CNC balance for"},"returns":{"_0":"Unlocked boosted CNC balance"}}},"version":1},"opcodes":"PUSH1 0x80 PUSH1 0x40 MSTORE CALLVALUE DUP1 ISZERO PUSH2 0x10 JUMPI PUSH1 0x0 DUP1 REVERT JUMPDEST POP PUSH1 0x4 CALLDATASIZE LT PUSH2 0x2BB JUMPI PUSH1 0x0 CALLDATALOAD PUSH1 0xE0 SHR DUP1 PUSH4 0x715018A6 GT PUSH2 0x182 JUMPI DUP1 PUSH4 0xA6AED923 GT PUSH2 0xE9 JUMPI DUP1 PUSH4 0xDDECF662 GT PUSH2 0xA2 JUMPI DUP1 PUSH4 0xEDAF69BD GT PUSH2 0x7C JUMPI DUP1 PUSH4 0xEDAF69BD EQ PUSH2 0x763 JUMPI DUP1 PUSH4 0xF2FDE38B EQ PUSH2 0x776 JUMPI DUP1 PUSH4 0xF77C4791 EQ PUSH2 0x789 JUMPI DUP1 PUSH4 0xF816144E EQ PUSH2 0x7B0 JUMPI PUSH1 0x0 DUP1 REVERT JUMPDEST DUP1 PUSH4 0xDDECF662 EQ PUSH2 0x6DB JUMPI DUP1 PUSH4 0xDFB142AE EQ PUSH2 0x725 JUMPI DUP1 PUSH4 0xEA312D76 EQ PUSH2 0x738 JUMPI PUSH1 0x0 DUP1 REVERT JUMPDEST DUP1 PUSH4 0xA6AED923 EQ PUSH2 0x685 JUMPI DUP1 PUSH4 0xBB3CAC54 EQ PUSH2 0x698 JUMPI DUP1 PUSH4 0xBF4B3E65 EQ PUSH2 0x6AB JUMPI DUP1 PUSH4 0xBF86D690 EQ PUSH2 0x6B3 JUMPI DUP1 PUSH4 0xC5890D2D EQ PUSH2 0x6C0 JUMPI DUP1 PUSH4 0xD294F093 EQ PUSH2 0x6D3 JUMPI PUSH1 0x0 DUP1 REVERT JUMPDEST DUP1 PUSH4 0x8DA5CB5B GT PUSH2 0x13B JUMPI DUP1 PUSH4 0x8DA5CB5B EQ PUSH2 0x5F4 JUMPI DUP1 PUSH4 0x923C1D61 EQ PUSH2 0x605 JUMPI DUP1 PUSH4 0x93ED9D01 EQ PUSH2 0x62C JUMPI DUP1 PUSH4 0x984ACB49 EQ PUSH2 0x63F JUMPI DUP1 PUSH4 0x9AE697BF EQ PUSH2 0x652 JUMPI DUP1 PUSH4 0x9BE65A60 EQ PUSH2 0x672 JUMPI PUSH1 0x0 DUP1 REVERT JUMPDEST DUP1 PUSH4 0x715018A6 EQ PUSH2 0x557 JUMPI DUP1 PUSH4 0x78F89C20 EQ PUSH2 0x55F JUMPI DUP1 PUSH4 0x7907706F EQ PUSH2 0x572 JUMPI DUP1 PUSH4 0x7BF500C8 EQ PUSH2 0x585 JUMPI DUP1 PUSH4 0x7E0B2492 EQ PUSH2 0x5A5 JUMPI DUP1 PUSH4 0x806019C1 EQ PUSH2 0x5CD JUMPI PUSH1 0x0 DUP1 REVERT JUMPDEST DUP1 PUSH4 0x46E919D0 GT PUSH2 0x226 JUMPI DUP1 PUSH4 0x5F07112F GT PUSH2 0x1DF JUMPI DUP1 PUSH4 0x5F07112F EQ PUSH2 0x49B JUMPI DUP1 PUSH4 0x61D027B3 EQ PUSH2 0x4AE JUMPI DUP1 PUSH4 0x631516C2 EQ PUSH2 0x4ED JUMPI DUP1 PUSH4 0x645D28A8 EQ PUSH2 0x4F6 JUMPI DUP1 PUSH4 0x6A4874A1 EQ PUSH2 0x51D JUMPI DUP1 PUSH4 0x70A08231 EQ PUSH2 0x544 JUMPI PUSH1 0x0 DUP1 REVERT JUMPDEST DUP1 PUSH4 0x46E919D0 EQ PUSH2 0x430 JUMPI DUP1 PUSH4 0x4F348758 EQ PUSH2 0x443 JUMPI DUP1 PUSH4 0x5219C512 EQ PUSH2 0x456 JUMPI DUP1 PUSH4 0x56891412 EQ PUSH2 0x469 JUMPI DUP1 PUSH4 0x5CAD88EB EQ PUSH2 0x472 JUMPI DUP1 PUSH4 0x5EE26AD0 EQ PUSH2 0x47B JUMPI PUSH1 0x0 DUP1 REVERT JUMPDEST DUP1 PUSH4 0x1C91607F GT PUSH2 0x278 JUMPI DUP1 PUSH4 0x1C91607F EQ PUSH2 0x387 JUMPI DUP1 PUSH4 0x26A4C842 EQ PUSH2 0x3A7 JUMPI DUP1 PUSH4 0x28A81039 EQ PUSH2 0x3BA JUMPI DUP1 PUSH4 0x2A324607 EQ PUSH2 0x3E3 JUMPI DUP1 PUSH4 0x2EB4A7AB EQ PUSH2 0x3F6 JUMPI DUP1 PUSH4 0x3EFA9979 EQ PUSH2 0x41D JUMPI PUSH1 0x0 DUP1 REVERT JUMPDEST DUP1 PUSH4 0x259EF58 EQ PUSH2 0x2C0 JUMPI DUP1 PUSH4 0x499ABD4 EQ PUSH2 0x2E9 JUMPI DUP1 PUSH4 0xB70608F EQ PUSH2 0x317 JUMPI DUP1 PUSH4 0x10B9E583 EQ PUSH2 0x32C JUMPI DUP1 PUSH4 0x11E1DC1E EQ PUSH2 0x334 JUMPI DUP1 PUSH4 0x1B93F66D EQ PUSH2 0x354 JUMPI JUMPDEST PUSH1 0x0 DUP1 REVERT JUMPDEST PUSH2 0x2D3 PUSH2 0x2CE CALLDATASIZE PUSH1 0x4 PUSH2 0x3301 JUMP JUMPDEST PUSH2 0x7B9 JUMP JUMPDEST PUSH1 0x40 MLOAD PUSH2 0x2E0 SWAP2 SWAP1 PUSH2 0x331E JUMP JUMPDEST PUSH1 0x40 MLOAD DUP1 SWAP2 SUB SWAP1 RETURN JUMPDEST PUSH2 0x309 PUSH2 0x2F7 CALLDATASIZE PUSH1 0x4 PUSH2 0x3301 JUMP JUMPDEST PUSH1 0xC PUSH1 0x20 MSTORE PUSH1 0x0 SWAP1 DUP2 MSTORE PUSH1 0x40 SWAP1 KECCAK256 SLOAD DUP2 JUMP JUMPDEST PUSH1 0x40 MLOAD SWAP1 DUP2 MSTORE PUSH1 0x20 ADD PUSH2 0x2E0 JUMP JUMPDEST PUSH2 0x32A PUSH2 0x325 CALLDATASIZE PUSH1 0x4 PUSH2 0x3397 JUMP JUMPDEST PUSH2 0x86C JUMP JUMPDEST STOP JUMPDEST PUSH2 0x32A PUSH2 0xAD5 JUMP JUMPDEST PUSH2 0x309 PUSH2 0x342 CALLDATASIZE PUSH1 0x4 PUSH2 0x3301 JUMP JUMPDEST PUSH1 0xE PUSH1 0x20 MSTORE PUSH1 0x0 SWAP1 DUP2 MSTORE PUSH1 0x40 SWAP1 KECCAK256 SLOAD DUP2 JUMP JUMPDEST PUSH2 0x377 PUSH2 0x362 CALLDATASIZE PUSH1 0x4 PUSH2 0x3301 JUMP JUMPDEST PUSH1 0x5 PUSH1 0x20 MSTORE PUSH1 0x0 SWAP1 DUP2 MSTORE PUSH1 0x40 SWAP1 KECCAK256 SLOAD PUSH1 0xFF AND DUP2 JUMP JUMPDEST PUSH1 0x40 MLOAD SWAP1 ISZERO ISZERO DUP2 MSTORE PUSH1 0x20 ADD PUSH2 0x2E0 JUMP JUMPDEST PUSH2 0x309 PUSH2 0x395 CALLDATASIZE PUSH1 0x4 PUSH2 0x3301 JUMP JUMPDEST PUSH1 0xF PUSH1 0x20 MSTORE PUSH1 0x0 SWAP1 DUP2 MSTORE PUSH1 0x40 SWAP1 KECCAK256 SLOAD DUP2 JUMP JUMPDEST PUSH2 0x32A PUSH2 0x3B5 CALLDATASIZE PUSH1 0x4 PUSH2 0x344B JUMP JUMPDEST PUSH2 0xB68 JUMP JUMPDEST PUSH2 0x309 PUSH2 0x3C8 CALLDATASIZE PUSH1 0x4 PUSH2 0x3301 JUMP JUMPDEST PUSH1 0x1 PUSH1 0x1 PUSH1 0xA0 SHL SUB AND PUSH1 0x0 SWAP1 DUP2 MSTORE PUSH1 0x2 PUSH1 0x20 MSTORE PUSH1 0x40 SWAP1 KECCAK256 SLOAD SWAP1 JUMP JUMPDEST PUSH2 0x309 PUSH2 0x3F1 CALLDATASIZE PUSH1 0x4 PUSH2 0x3301 JUMP JUMPDEST PUSH2 0xC2C JUMP JUMPDEST PUSH2 0x309 PUSH32 0x0 DUP2 JUMP JUMPDEST PUSH2 0x32A PUSH2 0x42B CALLDATASIZE PUSH1 0x4 PUSH2 0x349E JUMP JUMPDEST PUSH2 0xD26 JUMP JUMPDEST PUSH2 0x309 PUSH2 0x43E CALLDATASIZE PUSH1 0x4 PUSH2 0x3301 JUMP JUMPDEST PUSH2 0xD36 JUMP JUMPDEST PUSH2 0x32A PUSH2 0x451 CALLDATASIZE PUSH1 0x4 PUSH2 0x34CA JUMP JUMPDEST PUSH2 0xD6A JUMP JUMPDEST PUSH2 0x309 PUSH2 0x464 CALLDATASIZE PUSH1 0x4 PUSH2 0x3301 JUMP JUMPDEST PUSH2 0xE5B JUMP JUMPDEST PUSH2 0x309 PUSH1 0x7 SLOAD DUP2 JUMP JUMPDEST PUSH2 0x309 PUSH1 0xA SLOAD DUP2 JUMP JUMPDEST PUSH2 0x309 PUSH2 0x489 CALLDATASIZE PUSH1 0x4 PUSH2 0x3301 JUMP JUMPDEST PUSH1 0x2 PUSH1 0x20 MSTORE PUSH1 0x0 SWAP1 DUP2 MSTORE PUSH1 0x40 SWAP1 KECCAK256 SLOAD DUP2 JUMP JUMPDEST PUSH2 0x32A PUSH2 0x4A9 CALLDATASIZE PUSH1 0x4 PUSH2 0x34FA JUMP JUMPDEST PUSH2 0xF04 JUMP JUMPDEST PUSH2 0x4D5 PUSH32 0x0 DUP2 JUMP JUMPDEST PUSH1 0x40 MLOAD PUSH1 0x1 PUSH1 0x1 PUSH1 0xA0 SHL SUB SWAP1 SWAP2 AND DUP2 MSTORE PUSH1 0x20 ADD PUSH2 0x2E0 JUMP JUMPDEST PUSH2 0x309 PUSH1 0x8 SLOAD DUP2 JUMP JUMPDEST PUSH2 0x4D5 PUSH32 0x0 DUP2 JUMP JUMPDEST PUSH2 0x4D5 PUSH32 0x0 DUP2 JUMP JUMPDEST PUSH2 0x309 PUSH2 0x552 CALLDATASIZE PUSH1 0x4 PUSH2 0x3301 JUMP JUMPDEST PUSH2 0xF15 JUMP JUMPDEST PUSH2 0x32A PUSH2 0xF20 JUMP JUMPDEST PUSH2 0x309 PUSH2 0x56D CALLDATASIZE PUSH1 0x4 PUSH2 0x3301 JUMP JUMPDEST PUSH2 0xF34 JUMP JUMPDEST PUSH2 0x32A PUSH2 0x580 CALLDATASIZE PUSH1 0x4 PUSH2 0x353A JUMP JUMPDEST PUSH2 0x1036 JUMP JUMPDEST PUSH2 0x309 PUSH2 0x593 CALLDATASIZE PUSH1 0x4 PUSH2 0x3301 JUMP JUMPDEST PUSH1 0xD PUSH1 0x20 MSTORE PUSH1 0x0 SWAP1 DUP2 MSTORE PUSH1 0x40 SWAP1 KECCAK256 SLOAD DUP2 JUMP JUMPDEST PUSH2 0x5B8 PUSH2 0x5B3 CALLDATASIZE PUSH1 0x4 PUSH2 0x3301 JUMP JUMPDEST PUSH2 0x10B1 JUMP JUMPDEST PUSH1 0x40 DUP1 MLOAD SWAP3 DUP4 MSTORE PUSH1 0x20 DUP4 ADD SWAP2 SWAP1 SWAP2 MSTORE ADD PUSH2 0x2E0 JUMP JUMPDEST PUSH2 0x309 PUSH32 0x0 DUP2 JUMP JUMPDEST PUSH1 0x0 SLOAD PUSH1 0x1 PUSH1 0x1 PUSH1 0xA0 SHL SUB AND PUSH2 0x4D5 JUMP JUMPDEST PUSH2 0x4D5 PUSH32 0x0 DUP2 JUMP JUMPDEST PUSH2 0x309 PUSH2 0x63A CALLDATASIZE PUSH1 0x4 PUSH2 0x3564 JUMP JUMPDEST PUSH2 0x116B JUMP JUMPDEST PUSH2 0x32A PUSH2 0x64D CALLDATASIZE PUSH1 0x4 PUSH2 0x35B8 JUMP JUMPDEST PUSH2 0x148A JUMP JUMPDEST PUSH2 0x309 PUSH2 0x660 CALLDATASIZE PUSH1 0x4 PUSH2 0x3301 JUMP JUMPDEST PUSH1 0x1 PUSH1 0x20 MSTORE PUSH1 0x0 SWAP1 DUP2 MSTORE PUSH1 0x40 SWAP1 KECCAK256 SLOAD DUP2 JUMP JUMPDEST PUSH2 0x32A PUSH2 0x680 CALLDATASIZE PUSH1 0x4 PUSH2 0x3301 JUMP JUMPDEST PUSH2 0x16C7 JUMP JUMPDEST PUSH2 0x32A PUSH2 0x693 CALLDATASIZE PUSH1 0x4 PUSH2 0x35D3 JUMP JUMPDEST PUSH2 0x1896 JUMP JUMPDEST PUSH2 0x309 PUSH2 0x6A6 CALLDATASIZE PUSH1 0x4 PUSH2 0x3301 JUMP JUMPDEST PUSH2 0x1C4A JUMP JUMPDEST PUSH2 0x309 PUSH2 0x1C94 JUMP JUMPDEST PUSH1 0x9 SLOAD PUSH2 0x377 SWAP1 PUSH1 0xFF AND DUP2 JUMP JUMPDEST PUSH2 0x32A PUSH2 0x6CE CALLDATASIZE PUSH1 0x4 PUSH2 0x35F1 JUMP JUMPDEST PUSH2 0x1CA4 JUMP JUMPDEST PUSH2 0x5B8 PUSH2 0x214B JUMP JUMPDEST PUSH2 0x6EE PUSH2 0x6E9 CALLDATASIZE PUSH1 0x4 PUSH2 0x3642 JUMP JUMPDEST PUSH2 0x223A JUMP JUMPDEST PUSH1 0x40 DUP1 MLOAD SWAP5 DUP6 MSTORE PUSH1 0x1 PUSH1 0x1 PUSH1 0x40 SHL SUB SWAP4 DUP5 AND PUSH1 0x20 DUP7 ADD MSTORE PUSH1 0x1 PUSH1 0x1 PUSH1 0x80 SHL SUB SWAP1 SWAP3 AND SWAP2 DUP5 ADD SWAP2 SWAP1 SWAP2 MSTORE AND PUSH1 0x60 DUP3 ADD MSTORE PUSH1 0x80 ADD PUSH2 0x2E0 JUMP JUMPDEST PUSH2 0x309 PUSH2 0x733 CALLDATASIZE PUSH1 0x4 PUSH2 0x3301 JUMP JUMPDEST PUSH2 0x229A JUMP JUMPDEST PUSH2 0x74B PUSH2 0x746 CALLDATASIZE PUSH1 0x4 PUSH2 0x366E JUMP JUMPDEST PUSH2 0x25D5 JUMP JUMPDEST PUSH1 0x40 MLOAD PUSH1 0x1 PUSH1 0x1 PUSH1 0x80 SHL SUB SWAP1 SWAP2 AND DUP2 MSTORE PUSH1 0x20 ADD PUSH2 0x2E0 JUMP JUMPDEST PUSH2 0x32A PUSH2 0x771 CALLDATASIZE PUSH1 0x4 PUSH2 0x3728 JUMP JUMPDEST PUSH2 0x2646 JUMP JUMPDEST PUSH2 0x32A PUSH2 0x784 CALLDATASIZE PUSH1 0x4 PUSH2 0x3301 JUMP JUMPDEST PUSH2 0x26A8 JUMP JUMPDEST PUSH2 0x4D5 PUSH32 0x0 DUP2 JUMP JUMPDEST PUSH2 0x309 PUSH1 0xB SLOAD DUP2 JUMP JUMPDEST PUSH1 0x1 PUSH1 0x1 PUSH1 0xA0 SHL SUB DUP2 AND PUSH1 0x0 SWAP1 DUP2 MSTORE PUSH1 0x3 PUSH1 0x20 SWAP1 DUP2 MSTORE PUSH1 0x40 DUP1 DUP4 KECCAK256 DUP1 SLOAD DUP3 MLOAD DUP2 DUP6 MUL DUP2 ADD DUP6 ADD SWAP1 SWAP4 MSTORE DUP1 DUP4 MSTORE PUSH1 0x60 SWAP5 SWAP3 SWAP4 SWAP2 SWAP3 SWAP1 SWAP2 DUP5 ADD JUMPDEST DUP3 DUP3 LT ISZERO PUSH2 0x861 JUMPI PUSH1 0x0 DUP5 DUP2 MSTORE PUSH1 0x20 SWAP1 DUP2 SWAP1 KECCAK256 PUSH1 0x40 DUP1 MLOAD PUSH1 0x80 DUP2 ADD DUP3 MSTORE PUSH1 0x2 DUP7 MUL SWAP1 SWAP3 ADD DUP1 SLOAD DUP4 MSTORE PUSH1 0x1 SWAP1 DUP2 ADD SLOAD PUSH1 0x1 PUSH1 0x1 PUSH1 0x40 SHL SUB DUP1 DUP3 AND DUP6 DUP8 ADD MSTORE PUSH1 0x1 PUSH1 0x1 PUSH1 0x80 SHL SUB PUSH1 0x1 PUSH1 0x40 SHL DUP4 DIV AND SWAP4 DUP6 ADD SWAP4 SWAP1 SWAP4 MSTORE PUSH1 0x1 PUSH1 0xC0 SHL SWAP1 DIV SWAP1 SWAP2 AND PUSH1 0x60 DUP4 ADD MSTORE SWAP1 DUP4 MSTORE SWAP1 SWAP3 ADD SWAP2 ADD PUSH2 0x7F1 JUMP JUMPDEST POP POP POP POP SWAP1 POP SWAP2 SWAP1 POP JUMP JUMPDEST PUSH32 0x0 TIMESTAMP LT PUSH2 0x8D0 JUMPI PUSH1 0x40 MLOAD PUSH3 0x461BCD PUSH1 0xE5 SHL DUP2 MSTORE PUSH1 0x20 PUSH1 0x4 DUP3 ADD MSTORE PUSH1 0xD PUSH1 0x24 DUP3 ADD MSTORE PUSH13 0x185A5C991C9BDC08195B991959 PUSH1 0x9A SHL PUSH1 0x44 DUP3 ADD MSTORE PUSH1 0x64 ADD JUMPDEST PUSH1 0x40 MLOAD DUP1 SWAP2 SUB SWAP1 REVERT JUMPDEST CALLER PUSH1 0x0 SWAP1 DUP2 MSTORE PUSH1 0x5 PUSH1 0x20 MSTORE PUSH1 0x40 SWAP1 KECCAK256 SLOAD PUSH1 0xFF AND ISZERO PUSH2 0x922 JUMPI PUSH1 0x40 MLOAD PUSH3 0x461BCD PUSH1 0xE5 SHL DUP2 MSTORE PUSH1 0x20 PUSH1 0x4 DUP3 ADD MSTORE PUSH1 0xF PUSH1 0x24 DUP3 ADD MSTORE PUSH15 0x185B1C9958591E4818DB185A5B5959 PUSH1 0x8A SHL PUSH1 0x44 DUP3 ADD MSTORE PUSH1 0x64 ADD PUSH2 0x8C7 JUMP JUMPDEST PUSH8 0xDE0B6B3A7640000 DUP3 LT ISZERO PUSH2 0x97A JUMPI PUSH1 0x40 MLOAD PUSH3 0x461BCD PUSH1 0xE5 SHL DUP2 MSTORE PUSH1 0x20 PUSH1 0x4 DUP3 ADD MSTORE PUSH1 0x18 PUSH1 0x24 DUP3 ADD MSTORE PUSH32 0x616D6F756E742063616E6E6F742062652062656C6F7720310000000000000000 PUSH1 0x44 DUP3 ADD MSTORE PUSH1 0x64 ADD PUSH2 0x8C7 JUMP JUMPDEST PUSH8 0x30927F74C9DE0000 DUP3 GT ISZERO PUSH2 0x9D2 JUMPI PUSH1 0x40 MLOAD PUSH3 0x461BCD PUSH1 0xE5 SHL DUP2 MSTORE PUSH1 0x20 PUSH1 0x4 DUP3 ADD DUP2 SWAP1 MSTORE PUSH1 0x24 DUP3 ADD MSTORE PUSH32 0x616D6F756E742065786365656473206D61782061697264726F7020626F6F7374 PUSH1 0x44 DUP3 ADD MSTORE PUSH1 0x64 ADD PUSH2 0x8C7 JUMP JUMPDEST PUSH1 0x40 MLOAD PUSH12 0xFFFFFFFFFFFFFFFFFFFFFFFF NOT CALLER PUSH1 0x60 SHL AND PUSH1 0x20 DUP3 ADD MSTORE PUSH1 0x34 DUP2 ADD DUP4 SWAP1 MSTORE PUSH1 0x0 SWAP1 PUSH1 0x54 ADD PUSH1 0x40 MLOAD PUSH1 0x20 DUP2 DUP4 SUB SUB DUP2 MSTORE SWAP1 PUSH1 0x40 MSTORE DUP1 MLOAD SWAP1 PUSH1 0x20 ADD KECCAK256 SWAP1 POP PUSH2 0xA48 DUP2 PUSH32 0x0 DUP5 PUSH2 0xA41 SWAP1 PUSH2 0x37E8 JUMP JUMPDEST SWAP2 SWAP1 PUSH2 0x2721 JUMP JUMPDEST PUSH2 0xA84 JUMPI PUSH1 0x40 MLOAD PUSH3 0x461BCD PUSH1 0xE5 SHL DUP2 MSTORE PUSH1 0x20 PUSH1 0x4 DUP3 ADD MSTORE PUSH1 0xD PUSH1 0x24 DUP3 ADD MSTORE PUSH13 0x34B73B30B634B210383937B7B3 PUSH1 0x99 SHL PUSH1 0x44 DUP3 ADD MSTORE PUSH1 0x64 ADD PUSH2 0x8C7 JUMP JUMPDEST CALLER PUSH1 0x0 DUP2 DUP2 MSTORE PUSH1 0x4 PUSH1 0x20 MSTORE PUSH1 0x40 SWAP1 DUP2 SWAP1 KECCAK256 DUP6 SWAP1 SSTORE MLOAD PUSH32 0xFB7C165A21B698D172209FD3FBB4A907042C12438CD506666064CD98E0A142AA SWAP1 PUSH2 0xAC8 SWAP1 DUP7 DUP2 MSTORE PUSH1 0x20 ADD SWAP1 JUMP JUMPDEST PUSH1 0x40 MLOAD DUP1 SWAP2 SUB SWAP1 LOG2 POP POP POP JUMP JUMPDEST PUSH2 0xADD PUSH2 0x281F JUMP JUMPDEST PUSH1 0x9 SLOAD PUSH1 0xFF AND ISZERO PUSH2 0xB30 JUMPI PUSH1 0x40 MLOAD PUSH3 0x461BCD PUSH1 0xE5 SHL DUP2 MSTORE PUSH1 0x20 PUSH1 0x4 DUP3 ADD MSTORE PUSH1 0x18 PUSH1 0x24 DUP3 ADD MSTORE PUSH32 0x6C6F636B657220616C72656164792073757370656E6465640000000000000000 PUSH1 0x44 DUP3 ADD MSTORE PUSH1 0x64 ADD PUSH2 0x8C7 JUMP JUMPDEST PUSH1 0x9 DUP1 SLOAD PUSH1 0xFF NOT AND PUSH1 0x1 OR SWAP1 SSTORE PUSH1 0x40 MLOAD PUSH32 0x4426AA1FB73E391071491FCFE21A88B5C38A0A0333A1F6E77161470439704CF8 SWAP1 PUSH1 0x0 SWAP1 LOG1 JUMP JUMPDEST PUSH1 0x9 SLOAD PUSH1 0xFF AND ISZERO PUSH2 0xB8B JUMPI PUSH1 0x40 MLOAD PUSH3 0x461BCD PUSH1 0xE5 SHL DUP2 MSTORE PUSH1 0x4 ADD PUSH2 0x8C7 SWAP1 PUSH2 0x389D JUMP JUMPDEST PUSH1 0x1 PUSH1 0x1 PUSH1 0x40 SHL SUB DUP2 AND PUSH3 0x9E3400 GT DUP1 ISZERO SWAP1 PUSH2 0xBB4 JUMPI POP PUSH4 0x13C6800 PUSH1 0x1 PUSH1 0x1 PUSH1 0x40 SHL SUB DUP3 AND GT ISZERO JUMPDEST PUSH2 0xBD0 JUMPI PUSH1 0x40 MLOAD PUSH3 0x461BCD PUSH1 0xE5 SHL DUP2 MSTORE PUSH1 0x4 ADD PUSH2 0x8C7 SWAP1 PUSH2 0x38C7 JUMP JUMPDEST PUSH2 0xBD9 CALLER PUSH2 0x2879 JUMP JUMPDEST PUSH1 0x0 JUMPDEST DUP3 DUP2 LT ISZERO PUSH2 0xC26 JUMPI PUSH2 0xC14 DUP5 DUP5 DUP4 DUP2 DUP2 LT PUSH2 0xBF9 JUMPI PUSH2 0xBF9 PUSH2 0x38F2 JUMP JUMPDEST SWAP1 POP PUSH1 0x20 MUL ADD PUSH1 0x20 DUP2 ADD SWAP1 PUSH2 0xC0E SWAP2 SWAP1 PUSH2 0x35B8 JUMP JUMPDEST DUP4 PUSH2 0x2A4F JUMP JUMPDEST DUP1 PUSH2 0xC1E DUP2 PUSH2 0x391E JUMP JUMPDEST SWAP2 POP POP PUSH2 0xBDC JUMP JUMPDEST POP POP POP POP JUMP JUMPDEST PUSH1 0x1 PUSH1 0x1 PUSH1 0xA0 SHL SUB DUP2 AND PUSH1 0x0 SWAP1 DUP2 MSTORE PUSH1 0x3 PUSH1 0x20 MSTORE PUSH1 0x40 DUP2 KECCAK256 DUP1 SLOAD DUP3 SWAP2 SWAP1 DUP3 JUMPDEST DUP2 DUP2 LT ISZERO PUSH2 0xD1C JUMPI TIMESTAMP PUSH1 0x1 PUSH1 0x1 PUSH1 0x80 SHL SUB AND DUP4 DUP3 DUP2 SLOAD DUP2 LT PUSH2 0xC6F JUMPI PUSH2 0xC6F PUSH2 0x38F2 JUMP JUMPDEST PUSH1 0x0 SWAP2 DUP3 MSTORE PUSH1 0x20 SWAP1 SWAP2 KECCAK256 PUSH1 0x1 PUSH1 0x2 SWAP1 SWAP3 MUL ADD ADD SLOAD PUSH1 0x1 PUSH1 0x1 PUSH1 0x40 SHL SUB AND GT PUSH2 0xD0A JUMPI PUSH2 0xCFD DUP4 DUP3 DUP2 SLOAD DUP2 LT PUSH2 0xCA6 JUMPI PUSH2 0xCA6 PUSH2 0x38F2 JUMP JUMPDEST SWAP1 PUSH1 0x0 MSTORE PUSH1 0x20 PUSH1 0x0 KECCAK256 SWAP1 PUSH1 0x2 MUL ADD PUSH1 0x1 ADD PUSH1 0x8 SWAP1 SLOAD SWAP1 PUSH2 0x100 EXP SWAP1 DIV PUSH1 0x1 PUSH1 0x1 PUSH1 0x80 SHL SUB AND PUSH1 0x1 PUSH1 0x1 PUSH1 0x80 SHL SUB AND DUP5 DUP4 DUP2 SLOAD DUP2 LT PUSH2 0xCE6 JUMPI PUSH2 0xCE6 PUSH2 0x38F2 JUMP JUMPDEST PUSH1 0x0 SWAP2 DUP3 MSTORE PUSH1 0x20 SWAP1 SWAP2 KECCAK256 PUSH1 0x2 SWAP1 SWAP2 MUL ADD SLOAD SWAP1 PUSH2 0x2D1E JUMP JUMPDEST PUSH2 0xD07 SWAP1 DUP6 PUSH2 0x3937 JUMP JUMPDEST SWAP4 POP JUMPDEST DUP1 PUSH2 0xD14 DUP2 PUSH2 0x391E JUMP JUMPDEST SWAP2 POP POP PUSH2 0xC4B JUMP JUMPDEST POP SWAP2 SWAP5 SWAP4 POP POP POP POP JUMP JUMPDEST PUSH2 0xD32 DUP3 DUP3 PUSH1 0x0 PUSH2 0xF04 JUMP JUMPDEST POP POP JUMP JUMPDEST PUSH1 0x0 PUSH2 0xD41 DUP3 PUSH2 0xC2C JUMP JUMPDEST PUSH1 0x1 PUSH1 0x1 PUSH1 0xA0 SHL SUB DUP4 AND PUSH1 0x0 SWAP1 DUP2 MSTORE PUSH1 0x2 PUSH1 0x20 MSTORE PUSH1 0x40 SWAP1 KECCAK256 SLOAD PUSH2 0xD64 SWAP2 SWAP1 PUSH2 0x394A JUMP JUMPDEST SWAP3 SWAP2 POP POP JUMP JUMPDEST PUSH2 0xD9F PUSH1 0x1 PUSH1 0x1 PUSH1 0xA0 SHL SUB PUSH32 0x0 AND CALLER ADDRESS DUP6 PUSH2 0x2D47 JUMP JUMPDEST PUSH2 0xDD4 PUSH1 0x1 PUSH1 0x1 PUSH1 0xA0 SHL SUB PUSH32 0x0 AND CALLER ADDRESS DUP5 PUSH2 0x2D47 JUMP JUMPDEST PUSH1 0x8 SLOAD PUSH2 0xDE2 SWAP1 DUP4 SWAP1 PUSH2 0x2DB2 JUMP JUMPDEST PUSH1 0xA PUSH1 0x0 DUP3 DUP3 SLOAD PUSH2 0xDF3 SWAP2 SWAP1 PUSH2 0x3937 JUMP JUMPDEST SWAP1 SWAP2 SSTORE POP POP PUSH1 0x8 SLOAD PUSH2 0xE06 SWAP1 DUP3 SWAP1 PUSH2 0x2DB2 JUMP JUMPDEST PUSH1 0xB PUSH1 0x0 DUP3 DUP3 SLOAD PUSH2 0xE17 SWAP2 SWAP1 PUSH2 0x3937 JUMP JUMPDEST SWAP1 SWAP2 SSTORE POP POP PUSH1 0x40 DUP1 MLOAD DUP4 DUP2 MSTORE PUSH1 0x20 DUP2 ADD DUP4 SWAP1 MSTORE CALLER SWAP2 PUSH32 0x213E72AF0D3613BD643CFF3059F872C1015E6541624E37872BF95EEFBAF220A8 SWAP2 ADD PUSH1 0x40 MLOAD DUP1 SWAP2 SUB SWAP1 LOG2 POP POP JUMP JUMPDEST PUSH1 0x1 PUSH1 0x1 PUSH1 0xA0 SHL SUB DUP2 AND PUSH1 0x0 SWAP1 DUP2 MSTORE PUSH1 0x3 PUSH1 0x20 MSTORE PUSH1 0x40 DUP2 KECCAK256 DUP1 SLOAD DUP3 SWAP2 SWAP1 DUP3 JUMPDEST DUP2 DUP2 LT ISZERO PUSH2 0xD1C JUMPI TIMESTAMP PUSH1 0x1 PUSH1 0x1 PUSH1 0x80 SHL SUB AND DUP4 DUP3 DUP2 SLOAD DUP2 LT PUSH2 0xE9E JUMPI PUSH2 0xE9E PUSH2 0x38F2 JUMP JUMPDEST PUSH1 0x0 SWAP2 DUP3 MSTORE PUSH1 0x20 SWAP1 SWAP2 KECCAK256 PUSH1 0x1 PUSH1 0x2 SWAP1 SWAP3 MUL ADD ADD SLOAD PUSH1 0x1 PUSH1 0x1 PUSH1 0x40 SHL SUB AND GT PUSH2 0xEF2 JUMPI DUP3 DUP2 DUP2 SLOAD DUP2 LT PUSH2 0xED2 JUMPI PUSH2 0xED2 PUSH2 0x38F2 JUMP JUMPDEST SWAP1 PUSH1 0x0 MSTORE PUSH1 0x20 PUSH1 0x0 KECCAK256 SWAP1 PUSH1 0x2 MUL ADD PUSH1 0x0 ADD SLOAD DUP5 PUSH2 0xEEF SWAP2 SWAP1 PUSH2 0x3937 JUMP JUMPDEST SWAP4 POP JUMPDEST DUP1 PUSH2 0xEFC DUP2 PUSH2 0x391E JUMP JUMPDEST SWAP2 POP POP PUSH2 0xE7A JUMP JUMPDEST PUSH2 0xF10 DUP4 DUP4 DUP4 CALLER PUSH2 0x1CA4 JUMP JUMPDEST POP POP POP JUMP JUMPDEST PUSH1 0x0 PUSH2 0xD64 DUP3 PUSH2 0xF34 JUMP JUMPDEST PUSH2 0xF28 PUSH2 0x281F JUMP JUMPDEST PUSH2 0xF32 PUSH1 0x0 PUSH2 0x2DCB JUMP JUMPDEST JUMP JUMPDEST PUSH1 0x0 PUSH2 0xD64 PUSH32 0x0 PUSH1 0x1 PUSH1 0x1 PUSH1 0xA0 SHL SUB AND PUSH4 0x48439E7E PUSH1 0x40 MLOAD DUP2 PUSH4 0xFFFFFFFF AND PUSH1 0xE0 SHL DUP2 MSTORE PUSH1 0x4 ADD PUSH1 0x20 PUSH1 0x40 MLOAD DUP1 DUP4 SUB DUP2 DUP7 GAS STATICCALL ISZERO DUP1 ISZERO PUSH2 0xF97 JUMPI RETURNDATASIZE PUSH1 0x0 DUP1 RETURNDATACOPY RETURNDATASIZE PUSH1 0x0 REVERT JUMPDEST POP POP POP POP PUSH1 0x40 MLOAD RETURNDATASIZE PUSH1 0x1F NOT PUSH1 0x1F DUP3 ADD AND DUP3 ADD DUP1 PUSH1 0x40 MSTORE POP DUP2 ADD SWAP1 PUSH2 0xFBB SWAP2 SWAP1 PUSH2 0x395D JUMP JUMPDEST PUSH1 0x40 MLOAD PUSH4 0x67BA3D9 PUSH1 0xE4 SHL DUP2 MSTORE PUSH1 0x1 PUSH1 0x1 PUSH1 0xA0 SHL SUB DUP6 DUP2 AND PUSH1 0x4 DUP4 ADD MSTORE SWAP2 SWAP1 SWAP2 AND SWAP1 PUSH4 0x67BA3D90 SWAP1 PUSH1 0x24 ADD PUSH1 0x20 PUSH1 0x40 MLOAD DUP1 DUP4 SUB DUP2 DUP7 GAS STATICCALL ISZERO DUP1 ISZERO PUSH2 0x1003 JUMPI RETURNDATASIZE PUSH1 0x0 DUP1 RETURNDATACOPY RETURNDATASIZE PUSH1 0x0 REVERT JUMPDEST POP POP POP POP PUSH1 0x40 MLOAD RETURNDATASIZE PUSH1 0x1F NOT PUSH1 0x1F DUP3 ADD AND DUP3 ADD DUP1 PUSH1 0x40 MSTORE POP DUP2 ADD SWAP1 PUSH2 0x1027 SWAP2 SWAP1 PUSH2 0x397A JUMP JUMPDEST PUSH2 0x1030 DUP5 PUSH2 0xD36 JUMP JUMPDEST SWAP1 PUSH2 0x2D1E JUMP JUMPDEST PUSH1 0x9 SLOAD PUSH1 0xFF AND ISZERO PUSH2 0x1059 JUMPI PUSH1 0x40 MLOAD PUSH3 0x461BCD PUSH1 0xE5 SHL DUP2 MSTORE PUSH1 0x4 ADD PUSH2 0x8C7 SWAP1 PUSH2 0x389D JUMP JUMPDEST PUSH1 0x1 PUSH1 0x1 PUSH1 0x40 SHL SUB DUP2 AND PUSH3 0x9E3400 GT DUP1 ISZERO SWAP1 PUSH2 0x1082 JUMPI POP PUSH4 0x13C6800 PUSH1 0x1 PUSH1 0x1 PUSH1 0x40 SHL SUB DUP3 AND GT ISZERO JUMPDEST PUSH2 0x109E JUMPI PUSH1 0x40 MLOAD PUSH3 0x461BCD PUSH1 0xE5 SHL DUP2 MSTORE PUSH1 0x4 ADD PUSH2 0x8C7 SWAP1 PUSH2 0x38C7 JUMP JUMPDEST PUSH2 0x10A7 CALLER PUSH2 0x2879 JUMP JUMPDEST PUSH2 0xD32 DUP3 DUP3 PUSH2 0x2A4F JUMP JUMPDEST PUSH1 0x1 PUSH1 0x1 PUSH1 0xA0 SHL SUB DUP2 AND PUSH1 0x0 SWAP1 DUP2 MSTORE PUSH1 0x2 PUSH1 0x20 SWAP1 DUP2 MSTORE PUSH1 0x40 DUP1 DUP4 KECCAK256 SLOAD PUSH1 0xC SWAP1 SWAP3 MSTORE DUP3 KECCAK256 SLOAD PUSH1 0xA SLOAD DUP4 SWAP3 SWAP2 PUSH2 0x10F0 SWAP2 PUSH2 0x10E9 SWAP2 SWAP1 PUSH2 0x394A JUMP JUMPDEST DUP3 SWAP1 PUSH2 0x2D1E JUMP JUMPDEST PUSH1 0x1 PUSH1 0x1 PUSH1 0xA0 SHL SUB DUP6 AND PUSH1 0x0 SWAP1 DUP2 MSTORE PUSH1 0xD PUSH1 0x20 MSTORE PUSH1 0x40 SWAP1 KECCAK256 SLOAD PUSH2 0x1113 SWAP2 SWAP1 PUSH2 0x3937 JUMP JUMPDEST PUSH1 0x1 PUSH1 0x1 PUSH1 0xA0 SHL SUB DUP6 AND PUSH1 0x0 SWAP1 DUP2 MSTORE PUSH1 0xE PUSH1 0x20 MSTORE PUSH1 0x40 SWAP1 KECCAK256 SLOAD PUSH1 0xB SLOAD SWAP2 SWAP5 POP PUSH2 0x1140 SWAP2 PUSH2 0x10E9 SWAP2 SWAP1 PUSH2 0x394A JUMP JUMPDEST PUSH1 0x1 PUSH1 0x1 PUSH1 0xA0 SHL SUB DUP6 AND PUSH1 0x0 SWAP1 DUP2 MSTORE PUSH1 0xF PUSH1 0x20 MSTORE PUSH1 0x40 SWAP1 KECCAK256 SLOAD PUSH2 0x1163 SWAP2 SWAP1 PUSH2 0x3937 JUMP JUMPDEST SWAP2 POP POP SWAP2 POP SWAP2 JUMP JUMPDEST PUSH1 0x0 PUSH2 0x1176 CALLER PUSH2 0x2879 JUMP JUMPDEST CALLER PUSH1 0x0 SWAP1 DUP2 MSTORE PUSH1 0x3 PUSH1 0x20 MSTORE PUSH1 0x40 DUP2 KECCAK256 DUP2 SWAP1 DUP2 JUMPDEST DUP6 DUP2 LT ISZERO PUSH2 0x139C JUMPI PUSH1 0x0 PUSH2 0x11C3 CALLER DUP10 DUP10 DUP6 DUP2 DUP2 LT PUSH2 0x11A9 JUMPI PUSH2 0x11A9 PUSH2 0x38F2 JUMP JUMPDEST SWAP1 POP PUSH1 0x20 MUL ADD PUSH1 0x20 DUP2 ADD SWAP1 PUSH2 0x11BE SWAP2 SWAP1 PUSH2 0x35B8 JUMP JUMPDEST PUSH2 0x2E1B JUMP JUMPDEST PUSH1 0x9 SLOAD SWAP1 SWAP2 POP PUSH1 0xFF AND DUP1 PUSH2 0x1205 JUMPI POP TIMESTAMP DUP4 DUP3 DUP2 SLOAD DUP2 LT PUSH2 0x11E5 JUMPI PUSH2 0x11E5 PUSH2 0x38F2 JUMP JUMPDEST PUSH1 0x0 SWAP2 DUP3 MSTORE PUSH1 0x20 SWAP1 SWAP2 KECCAK256 PUSH1 0x1 PUSH1 0x2 SWAP1 SWAP3 MUL ADD ADD SLOAD PUSH1 0x1 PUSH1 0x1 PUSH1 0x40 SHL SUB AND GT ISZERO JUMPDEST PUSH2 0x1244 JUMPI PUSH1 0x40 MLOAD PUSH3 0x461BCD PUSH1 0xE5 SHL DUP2 MSTORE PUSH1 0x20 PUSH1 0x4 DUP3 ADD MSTORE PUSH1 0x10 PUSH1 0x24 DUP3 ADD MSTORE PUSH16 0x1B1BD8DAC81B9BDD08195E1C1A5C9959 PUSH1 0x82 SHL PUSH1 0x44 DUP3 ADD MSTORE PUSH1 0x64 ADD PUSH2 0x8C7 JUMP JUMPDEST DUP3 DUP2 DUP2 SLOAD DUP2 LT PUSH2 0x1256 JUMPI PUSH2 0x1256 PUSH2 0x38F2 JUMP JUMPDEST SWAP1 PUSH1 0x0 MSTORE PUSH1 0x20 PUSH1 0x0 KECCAK256 SWAP1 PUSH1 0x2 MUL ADD PUSH1 0x0 ADD SLOAD DUP6 PUSH2 0x1273 SWAP2 SWAP1 PUSH2 0x3937 JUMP JUMPDEST SWAP5 POP PUSH2 0x128A DUP4 DUP3 DUP2 SLOAD DUP2 LT PUSH2 0xCA6 JUMPI PUSH2 0xCA6 PUSH2 0x38F2 JUMP JUMPDEST PUSH2 0x1294 SWAP1 DUP6 PUSH2 0x3937 JUMP JUMPDEST DUP4 SLOAD SWAP1 SWAP5 POP DUP4 SWAP1 PUSH2 0x12A7 SWAP1 PUSH1 0x1 SWAP1 PUSH2 0x394A JUMP JUMPDEST DUP2 SLOAD DUP2 LT PUSH2 0x12B7 JUMPI PUSH2 0x12B7 PUSH2 0x38F2 JUMP JUMPDEST SWAP1 PUSH1 0x0 MSTORE PUSH1 0x20 PUSH1 0x0 KECCAK256 SWAP1 PUSH1 0x2 MUL ADD DUP4 DUP3 DUP2 SLOAD DUP2 LT PUSH2 0x12D7 JUMPI PUSH2 0x12D7 PUSH2 0x38F2 JUMP JUMPDEST PUSH1 0x0 SWAP2 DUP3 MSTORE PUSH1 0x20 SWAP1 SWAP2 KECCAK256 DUP3 SLOAD PUSH1 0x2 SWAP1 SWAP3 MUL ADD SWAP1 DUP2 SSTORE PUSH1 0x1 SWAP2 DUP3 ADD DUP1 SLOAD SWAP3 SWAP1 SWAP2 ADD DUP1 SLOAD PUSH8 0xFFFFFFFFFFFFFFFF NOT DUP2 AND PUSH1 0x1 PUSH1 0x1 PUSH1 0x40 SHL SUB SWAP5 DUP6 AND SWAP1 DUP2 OR DUP4 SSTORE DUP4 SLOAD PUSH1 0x1 PUSH1 0x1 PUSH1 0x80 SHL SUB PUSH1 0x1 PUSH1 0x40 SHL SWAP2 DUP3 SWAP1 DIV AND MUL PUSH1 0x1 PUSH1 0x1 PUSH1 0xC0 SHL SUB NOT SWAP1 SWAP3 AND OR OR DUP1 DUP3 SSTORE SWAP2 SLOAD PUSH1 0x1 PUSH1 0xC0 SHL SWAP1 DUP2 SWAP1 DIV SWAP1 SWAP4 AND SWAP1 SWAP3 MUL PUSH1 0x1 PUSH1 0x1 PUSH1 0xC0 SHL SUB SWAP1 SWAP2 AND OR SWAP1 SSTORE DUP3 SLOAD DUP4 SWAP1 DUP1 PUSH2 0x136B JUMPI PUSH2 0x136B PUSH2 0x3993 JUMP JUMPDEST PUSH1 0x0 DUP3 DUP2 MSTORE PUSH1 0x20 DUP2 KECCAK256 PUSH1 0x2 PUSH1 0x0 NOT SWAP1 SWAP4 ADD SWAP3 DUP4 MUL ADD DUP2 DUP2 SSTORE PUSH1 0x1 ADD SSTORE SWAP1 SSTORE POP DUP1 PUSH2 0x1394 DUP2 PUSH2 0x391E JUMP JUMPDEST SWAP2 POP POP PUSH2 0x1189 JUMP JUMPDEST POP DUP3 PUSH1 0x7 PUSH1 0x0 DUP3 DUP3 SLOAD PUSH2 0x13AF SWAP2 SWAP1 PUSH2 0x394A JUMP JUMPDEST SWAP3 POP POP DUP2 SWAP1 SSTORE POP DUP2 PUSH1 0x8 PUSH1 0x0 DUP3 DUP3 SLOAD PUSH2 0x13C8 SWAP2 SWAP1 PUSH2 0x394A JUMP JUMPDEST SWAP1 SWAP2 SSTORE POP POP CALLER PUSH1 0x0 SWAP1 DUP2 MSTORE PUSH1 0x1 PUSH1 0x20 MSTORE PUSH1 0x40 DUP2 KECCAK256 DUP1 SLOAD DUP6 SWAP3 SWAP1 PUSH2 0x13EC SWAP1 DUP5 SWAP1 PUSH2 0x394A JUMP JUMPDEST SWAP1 SWAP2 SSTORE POP POP CALLER PUSH1 0x0 SWAP1 DUP2 MSTORE PUSH1 0x2 PUSH1 0x20 MSTORE PUSH1 0x40 DUP2 KECCAK256 DUP1 SLOAD DUP5 SWAP3 SWAP1 PUSH2 0x1410 SWAP1 DUP5 SWAP1 PUSH2 0x394A JUMP JUMPDEST SWAP1 SWAP2 SSTORE POP PUSH2 0x144A SWAP1 POP PUSH1 0x1 PUSH1 0x1 PUSH1 0xA0 SHL SUB PUSH32 0x0 AND DUP9 DUP6 PUSH2 0x2EF6 JUMP JUMPDEST PUSH1 0x40 MLOAD DUP4 DUP2 MSTORE CALLER SWAP1 PUSH32 0xB291E2A2847A5AD6D47409943306C6D6E8C63A9855B849701B868191E9478970 SWAP1 PUSH1 0x20 ADD PUSH1 0x40 MLOAD DUP1 SWAP2 SUB SWAP1 LOG2 POP SWAP1 SWAP6 SWAP5 POP POP POP POP POP JUMP JUMPDEST PUSH1 0x9 SLOAD PUSH1 0xFF AND ISZERO PUSH2 0x14AD JUMPI PUSH1 0x40 MLOAD PUSH3 0x461BCD PUSH1 0xE5 SHL DUP2 MSTORE PUSH1 0x4 ADD PUSH2 0x8C7 SWAP1 PUSH2 0x389D JUMP JUMPDEST PUSH1 0x1 PUSH1 0x1 PUSH1 0x40 SHL SUB DUP2 AND PUSH3 0x9E3400 GT DUP1 ISZERO SWAP1 PUSH2 0x14D6 JUMPI POP PUSH4 0x13C6800 PUSH1 0x1 PUSH1 0x1 PUSH1 0x40 SHL SUB DUP3 AND GT ISZERO JUMPDEST PUSH2 0x14F2 JUMPI PUSH1 0x40 MLOAD PUSH3 0x461BCD PUSH1 0xE5 SHL DUP2 MSTORE PUSH1 0x4 ADD PUSH2 0x8C7 SWAP1 PUSH2 0x38C7 JUMP JUMPDEST PUSH2 0x14FB CALLER PUSH2 0x2879 JUMP JUMPDEST PUSH1 0x0 PUSH2 0x150F DUP3 PUSH1 0x1 PUSH1 0x1 PUSH1 0x40 SHL SUB AND PUSH2 0x25D5 JUMP JUMPDEST SWAP1 POP PUSH1 0x0 PUSH2 0x151D DUP4 TIMESTAMP PUSH2 0x39A9 JUMP JUMPDEST CALLER PUSH1 0x0 SWAP1 DUP2 MSTORE PUSH1 0x3 PUSH1 0x20 MSTORE PUSH1 0x40 DUP2 KECCAK256 SLOAD SWAP2 SWAP3 POP JUMPDEST DUP2 DUP2 LT ISZERO PUSH2 0x15B2 JUMPI CALLER PUSH1 0x0 SWAP1 DUP2 MSTORE PUSH1 0x3 PUSH1 0x20 MSTORE PUSH1 0x40 SWAP1 KECCAK256 DUP1 SLOAD PUSH1 0x1 PUSH1 0x1 PUSH1 0x40 SHL SUB DUP6 AND SWAP2 SWAP1 DUP4 SWAP1 DUP2 LT PUSH2 0x1566 JUMPI PUSH2 0x1566 PUSH2 0x38F2 JUMP JUMPDEST PUSH1 0x0 SWAP2 DUP3 MSTORE PUSH1 0x20 SWAP1 SWAP2 KECCAK256 PUSH1 0x1 PUSH1 0x2 SWAP1 SWAP3 MUL ADD ADD SLOAD PUSH1 0x1 PUSH1 0x1 PUSH1 0x40 SHL SUB AND LT PUSH2 0x15A0 JUMPI PUSH1 0x40 MLOAD PUSH3 0x461BCD PUSH1 0xE5 SHL DUP2 MSTORE PUSH1 0x4 ADD PUSH2 0x8C7 SWAP1 PUSH2 0x39D0 JUMP JUMPDEST DUP1 PUSH2 0x15AA DUP2 PUSH2 0x391E JUMP JUMPDEST SWAP2 POP POP PUSH2 0x1531 JUMP JUMPDEST POP CALLER PUSH1 0x0 SWAP1 DUP2 MSTORE PUSH1 0x3 PUSH1 0x20 MSTORE PUSH1 0x40 DUP2 KECCAK256 PUSH2 0x15CB SWAP2 PUSH2 0x32B1 JUMP JUMPDEST CALLER PUSH1 0x0 SWAP1 DUP2 MSTORE PUSH1 0x2 PUSH1 0x20 MSTORE PUSH1 0x40 DUP2 KECCAK256 SLOAD PUSH1 0x8 DUP1 SLOAD SWAP2 SWAP3 SWAP1 SWAP2 PUSH2 0x15EE SWAP1 DUP5 SWAP1 PUSH2 0x394A JUMP JUMPDEST SWAP1 SWAP2 SSTORE POP POP CALLER PUSH1 0x0 DUP2 DUP2 MSTORE PUSH1 0x2 PUSH1 0x20 SWAP1 DUP2 MSTORE PUSH1 0x40 DUP1 DUP4 KECCAK256 DUP4 SWAP1 SSTORE PUSH1 0x1 SWAP1 SWAP2 MSTORE SWAP1 KECCAK256 SLOAD PUSH2 0x161C SWAP2 SWAP1 DUP5 DUP7 PUSH2 0x2F26 JUMP JUMPDEST CALLER PUSH1 0x0 SWAP1 DUP2 MSTORE PUSH1 0x1 PUSH1 0x20 MSTORE PUSH1 0x40 DUP2 KECCAK256 SLOAD PUSH2 0x163F SWAP1 PUSH1 0x1 PUSH1 0x1 PUSH1 0x80 SHL SUB DUP7 AND PUSH2 0x2D1E JUMP JUMPDEST SWAP1 POP DUP1 PUSH1 0x8 PUSH1 0x0 DUP3 DUP3 SLOAD PUSH2 0x1653 SWAP2 SWAP1 PUSH2 0x3937 JUMP JUMPDEST SWAP1 SWAP2 SSTORE POP POP CALLER PUSH1 0x0 SWAP1 DUP2 MSTORE PUSH1 0x2 PUSH1 0x20 MSTORE PUSH1 0x40 DUP2 KECCAK256 DUP1 SLOAD DUP4 SWAP3 SWAP1 PUSH2 0x1677 SWAP1 DUP5 SWAP1 PUSH2 0x3937 JUMP JUMPDEST SWAP1 SWAP2 SSTORE POP POP CALLER PUSH1 0x0 DUP2 DUP2 MSTORE PUSH1 0x1 PUSH1 0x20 SWAP1 DUP2 MSTORE PUSH1 0x40 SWAP2 DUP3 SWAP1 KECCAK256 SLOAD SWAP2 MLOAD SWAP2 DUP3 MSTORE PUSH32 0xE2D155D9D74DECC198A9A9B4F5BDDB24EE0842EE745C9CE57E3573B971E50D9D SWAP2 ADD PUSH1 0x40 MLOAD DUP1 SWAP2 SUB SWAP1 LOG2 POP POP POP POP POP JUMP JUMPDEST PUSH32 0x0 PUSH1 0x1 PUSH1 0x1 PUSH1 0xA0 SHL SUB AND DUP2 PUSH1 0x1 PUSH1 0x1 PUSH1 0xA0 SHL SUB AND EQ ISZERO DUP1 ISZERO PUSH2 0x173B JUMPI POP PUSH32 0x0 PUSH1 0x1 PUSH1 0x1 PUSH1 0xA0 SHL SUB AND DUP2 PUSH1 0x1 PUSH1 0x1 PUSH1 0xA0 SHL SUB AND EQ ISZERO JUMPDEST DUP1 ISZERO PUSH2 0x1779 JUMPI POP PUSH32 0x0 PUSH1 0x1 PUSH1 0x1 PUSH1 0xA0 SHL SUB AND DUP2 PUSH1 0x1 PUSH1 0x1 PUSH1 0xA0 SHL SUB AND EQ ISZERO JUMPDEST PUSH2 0x17BD JUMPI PUSH1 0x40 MLOAD PUSH3 0x461BCD PUSH1 0xE5 SHL DUP2 MSTORE PUSH1 0x20 PUSH1 0x4 DUP3 ADD MSTORE PUSH1 0x15 PUSH1 0x24 DUP3 ADD MSTORE PUSH21 0x31B0B73737BA103BB4BA34323930BB903A37B5B2B7 PUSH1 0x59 SHL PUSH1 0x44 DUP3 ADD MSTORE PUSH1 0x64 ADD PUSH2 0x8C7 JUMP JUMPDEST PUSH1 0x40 MLOAD PUSH4 0x70A08231 PUSH1 0xE0 SHL DUP2 MSTORE ADDRESS PUSH1 0x4 DUP3 ADD MSTORE DUP2 SWAP1 PUSH2 0x185E SWAP1 PUSH32 0x0 SWAP1 PUSH1 0x1 PUSH1 0x1 PUSH1 0xA0 SHL SUB DUP5 AND SWAP1 PUSH4 0x70A08231 SWAP1 PUSH1 0x24 ADD PUSH1 0x20 PUSH1 0x40 MLOAD DUP1 DUP4 SUB DUP2 DUP7 GAS STATICCALL ISZERO DUP1 ISZERO PUSH2 0x1829 JUMPI RETURNDATASIZE PUSH1 0x0 DUP1 RETURNDATACOPY RETURNDATASIZE PUSH1 0x0 REVERT JUMPDEST POP POP POP POP PUSH1 0x40 MLOAD RETURNDATASIZE PUSH1 0x1F NOT PUSH1 0x1F DUP3 ADD AND DUP3 ADD DUP1 PUSH1 0x40 MSTORE POP DUP2 ADD SWAP1 PUSH2 0x184D SWAP2 SWAP1 PUSH2 0x397A JUMP JUMPDEST PUSH1 0x1 PUSH1 0x1 PUSH1 0xA0 SHL SUB DUP5 AND SWAP2 SWAP1 PUSH2 0x2EF6 JUMP JUMPDEST PUSH1 0x40 MLOAD PUSH1 0x1 PUSH1 0x1 PUSH1 0xA0 SHL SUB DUP4 AND SWAP1 PUSH32 0x17A79BE10B6DA9324A110F0EA6D3043DB38F1EEE6E2EE1DBFA7272338E39DA45 SWAP1 PUSH1 0x0 SWAP1 LOG2 POP POP JUMP JUMPDEST PUSH1 0x0 PUSH2 0x18A2 DUP4 DUP4 PUSH2 0x2E1B JUMP JUMPDEST PUSH1 0x1 PUSH1 0x1 PUSH1 0xA0 SHL SUB DUP5 AND PUSH1 0x0 SWAP1 DUP2 MSTORE PUSH1 0x3 PUSH1 0x20 MSTORE PUSH1 0x40 SWAP1 KECCAK256 DUP1 SLOAD SWAP2 SWAP3 POP SWAP1 PUSH1 0x1 PUSH1 0x1 PUSH1 0x80 SHL SUB TIMESTAMP AND SWAP1 PUSH3 0x24EA00 SWAP1 DUP4 SWAP1 DUP6 SWAP1 DUP2 LT PUSH2 0x18E2 JUMPI PUSH2 0x18E2 PUSH2 0x38F2 JUMP JUMPDEST PUSH1 0x0 SWAP2 DUP3 MSTORE PUSH1 0x20 SWAP1 SWAP2 KECCAK256 PUSH1 0x1 PUSH1 0x2 SWAP1 SWAP3 MUL ADD ADD SLOAD PUSH2 0x1909 SWAP2 SWAP1 PUSH1 0x1 PUSH1 0x1 PUSH1 0x40 SHL SUB AND PUSH2 0x3A07 JUMP JUMPDEST PUSH1 0x1 PUSH1 0x1 PUSH1 0x80 SHL SUB AND GT ISZERO PUSH2 0x1958 JUMPI PUSH1 0x40 MLOAD PUSH3 0x461BCD PUSH1 0xE5 SHL DUP2 MSTORE PUSH1 0x20 PUSH1 0x4 DUP3 ADD MSTORE PUSH1 0x15 PUSH1 0x24 DUP3 ADD MSTORE PUSH21 0x63616E6E6F74206B69636B2074686973206C6F636B PUSH1 0x58 SHL PUSH1 0x44 DUP3 ADD MSTORE PUSH1 0x64 ADD PUSH2 0x8C7 JUMP JUMPDEST PUSH2 0x1961 DUP5 PUSH2 0x2879 JUMP JUMPDEST PUSH1 0x0 DUP2 DUP4 DUP2 SLOAD DUP2 LT PUSH2 0x1975 JUMPI PUSH2 0x1975 PUSH2 0x38F2 JUMP JUMPDEST SWAP1 PUSH1 0x0 MSTORE PUSH1 0x20 PUSH1 0x0 KECCAK256 SWAP1 PUSH1 0x2 MUL ADD PUSH1 0x0 ADD SLOAD SWAP1 POP DUP1 PUSH1 0x7 PUSH1 0x0 DUP3 DUP3 SLOAD PUSH2 0x199B SWAP2 SWAP1 PUSH2 0x394A JUMP JUMPDEST SWAP3 POP POP DUP2 SWAP1 SSTORE POP PUSH2 0x19E2 DUP3 DUP5 DUP2 SLOAD DUP2 LT PUSH2 0x19B7 JUMPI PUSH2 0x19B7 PUSH2 0x38F2 JUMP JUMPDEST PUSH1 0x0 SWAP2 DUP3 MSTORE PUSH1 0x20 SWAP1 SWAP2 KECCAK256 PUSH1 0x2 SWAP1 SWAP2 MUL ADD PUSH1 0x1 ADD SLOAD DUP3 SWAP1 PUSH1 0x1 PUSH1 0x40 SHL SWAP1 DIV PUSH1 0x1 PUSH1 0x1 PUSH1 0x80 SHL SUB AND PUSH2 0x2D1E JUMP JUMPDEST PUSH1 0x8 PUSH1 0x0 DUP3 DUP3 SLOAD PUSH2 0x19F3 SWAP2 SWAP1 PUSH2 0x394A JUMP JUMPDEST SWAP1 SWAP2 SSTORE POP POP PUSH1 0x1 PUSH1 0x1 PUSH1 0xA0 SHL SUB DUP6 AND PUSH1 0x0 SWAP1 DUP2 MSTORE PUSH1 0x1 PUSH1 0x20 MSTORE PUSH1 0x40 DUP2 KECCAK256 DUP1 SLOAD DUP4 SWAP3 SWAP1 PUSH2 0x1A20 SWAP1 DUP5 SWAP1 PUSH2 0x394A JUMP JUMPDEST SWAP3 POP POP DUP2 SWAP1 SSTORE POP PUSH2 0x1A3C DUP3 DUP5 DUP2 SLOAD DUP2 LT PUSH2 0x19B7 JUMPI PUSH2 0x19B7 PUSH2 0x38F2 JUMP JUMPDEST PUSH1 0x1 PUSH1 0x1 PUSH1 0xA0 SHL SUB DUP7 AND PUSH1 0x0 SWAP1 DUP2 MSTORE PUSH1 0x2 PUSH1 0x20 MSTORE PUSH1 0x40 DUP2 KECCAK256 DUP1 SLOAD SWAP1 SWAP2 SWAP1 PUSH2 0x1A64 SWAP1 DUP5 SWAP1 PUSH2 0x394A JUMP JUMPDEST SWAP1 SWAP2 SSTORE POP PUSH1 0x0 SWAP1 POP PUSH2 0x1A7E DUP3 PUSH8 0x16345785D8A0000 PUSH2 0x2D1E JUMP JUMPDEST SWAP1 POP PUSH9 0x3635C9ADC5DEA00000 DUP2 GT ISZERO PUSH2 0x1A9D JUMPI POP PUSH9 0x3635C9ADC5DEA00000 JUMPDEST PUSH2 0x1ADC DUP7 PUSH2 0x1AAB DUP4 DUP6 PUSH2 0x394A JUMP JUMPDEST PUSH1 0x1 PUSH1 0x1 PUSH1 0xA0 SHL SUB PUSH32 0x0 AND SWAP2 SWAP1 PUSH2 0x2EF6 JUMP JUMPDEST PUSH2 0x1B10 PUSH1 0x1 PUSH1 0x1 PUSH1 0xA0 SHL SUB PUSH32 0x0 AND CALLER DUP4 PUSH2 0x2EF6 JUMP JUMPDEST PUSH1 0x40 MLOAD DUP3 DUP2 MSTORE CALLER SWAP1 PUSH1 0x1 PUSH1 0x1 PUSH1 0xA0 SHL SUB DUP9 AND SWAP1 PUSH32 0x9716D4C8630C7C1A47A462F169D1764A38687F7532BAF2BD74A791AFC20030E6 SWAP1 PUSH1 0x20 ADD PUSH1 0x40 MLOAD DUP1 SWAP2 SUB SWAP1 LOG3 DUP3 SLOAD DUP4 SWAP1 PUSH2 0x1B60 SWAP1 PUSH1 0x1 SWAP1 PUSH2 0x394A JUMP JUMPDEST DUP2 SLOAD DUP2 LT PUSH2 0x1B70 JUMPI PUSH2 0x1B70 PUSH2 0x38F2 JUMP JUMPDEST SWAP1 PUSH1 0x0 MSTORE PUSH1 0x20 PUSH1 0x0 KECCAK256 SWAP1 PUSH1 0x2 MUL ADD DUP4 DUP6 DUP2 SLOAD DUP2 LT PUSH2 0x1B90 JUMPI PUSH2 0x1B90 PUSH2 0x38F2 JUMP JUMPDEST PUSH1 0x0 SWAP2 DUP3 MSTORE PUSH1 0x20 SWAP1 SWAP2 KECCAK256 DUP3 SLOAD PUSH1 0x2 SWAP1 SWAP3 MUL ADD SWAP1 DUP2 SSTORE PUSH1 0x1 SWAP2 DUP3 ADD DUP1 SLOAD SWAP3 SWAP1 SWAP2 ADD DUP1 SLOAD PUSH8 0xFFFFFFFFFFFFFFFF NOT DUP2 AND PUSH1 0x1 PUSH1 0x1 PUSH1 0x40 SHL SUB SWAP5 DUP6 AND SWAP1 DUP2 OR DUP4 SSTORE DUP4 SLOAD PUSH1 0x1 PUSH1 0x1 PUSH1 0x80 SHL SUB PUSH1 0x1 PUSH1 0x40 SHL SWAP2 DUP3 SWAP1 DIV AND MUL PUSH1 0x1 PUSH1 0x1 PUSH1 0xC0 SHL SUB NOT SWAP1 SWAP3 AND OR OR DUP1 DUP3 SSTORE SWAP2 SLOAD PUSH1 0x1 PUSH1 0xC0 SHL SWAP1 DUP2 SWAP1 DIV SWAP1 SWAP4 AND SWAP1 SWAP3 MUL PUSH1 0x1 PUSH1 0x1 PUSH1 0xC0 SHL SUB SWAP1 SWAP2 AND OR SWAP1 SSTORE DUP3 SLOAD DUP4 SWAP1 DUP1 PUSH2 0x1C24 JUMPI PUSH2 0x1C24 PUSH2 0x3993 JUMP JUMPDEST PUSH1 0x0 DUP3 DUP2 MSTORE PUSH1 0x20 DUP2 KECCAK256 PUSH1 0x2 PUSH1 0x0 NOT SWAP1 SWAP4 ADD SWAP3 DUP4 MUL ADD DUP2 DUP2 SSTORE PUSH1 0x1 ADD SSTORE SWAP1 SSTORE POP POP POP POP POP POP JUMP JUMPDEST PUSH1 0x1 PUSH1 0x1 PUSH1 0xA0 SHL SUB DUP2 AND PUSH1 0x0 SWAP1 DUP2 MSTORE PUSH1 0x4 PUSH1 0x20 MSTORE PUSH1 0x40 DUP2 KECCAK256 SLOAD DUP2 SUB PUSH2 0x1C78 JUMPI POP PUSH8 0xDE0B6B3A7640000 SWAP2 SWAP1 POP JUMP JUMPDEST POP PUSH1 0x1 PUSH1 0x1 PUSH1 0xA0 SHL SUB AND PUSH1 0x0 SWAP1 DUP2 MSTORE PUSH1 0x4 PUSH1 0x20 MSTORE PUSH1 0x40 SWAP1 KECCAK256 SLOAD SWAP1 JUMP JUMPDEST PUSH1 0x0 PUSH2 0x1C9F CALLER PUSH2 0x229A JUMP JUMPDEST SWAP1 POP SWAP1 JUMP JUMPDEST PUSH1 0x9 SLOAD PUSH1 0xFF AND ISZERO PUSH2 0x1CC7 JUMPI PUSH1 0x40 MLOAD PUSH3 0x461BCD PUSH1 0xE5 SHL DUP2 MSTORE PUSH1 0x4 ADD PUSH2 0x8C7 SWAP1 PUSH2 0x389D JUMP JUMPDEST PUSH8 0x8AC7230489E80000 DUP5 LT ISZERO PUSH2 0x1D12 JUMPI PUSH1 0x40 MLOAD PUSH3 0x461BCD PUSH1 0xE5 SHL DUP2 MSTORE PUSH1 0x20 PUSH1 0x4 DUP3 ADD MSTORE PUSH1 0x10 PUSH1 0x24 DUP3 ADD MSTORE PUSH16 0x185B5BDD5B9D081D1BDBC81CDB585B1B PUSH1 0x82 SHL PUSH1 0x44 DUP3 ADD MSTORE PUSH1 0x64 ADD PUSH2 0x8C7 JUMP JUMPDEST PUSH1 0x1 PUSH1 0x1 PUSH1 0x40 SHL SUB DUP4 AND PUSH3 0x9E3400 GT DUP1 ISZERO SWAP1 PUSH2 0x1D3B JUMPI POP PUSH4 0x13C6800 PUSH1 0x1 PUSH1 0x1 PUSH1 0x40 SHL SUB DUP5 AND GT ISZERO JUMPDEST PUSH2 0x1D57 JUMPI PUSH1 0x40 MLOAD PUSH3 0x461BCD PUSH1 0xE5 SHL DUP2 MSTORE PUSH1 0x4 ADD PUSH2 0x8C7 SWAP1 PUSH2 0x38C7 JUMP JUMPDEST DUP2 ISZERO DUP1 PUSH2 0x1D6C JUMPI POP CALLER PUSH1 0x1 PUSH1 0x1 PUSH1 0xA0 SHL SUB DUP3 AND EQ JUMPDEST PUSH2 0x1DAF JUMPI PUSH1 0x40 MLOAD PUSH3 0x461BCD PUSH1 0xE5 SHL DUP2 MSTORE PUSH1 0x20 PUSH1 0x4 DUP3 ADD MSTORE PUSH1 0x14 PUSH1 0x24 DUP3 ADD MSTORE PUSH20 0x3932B637B1B59037B7363C903337B91039B2B633 PUSH1 0x61 SHL PUSH1 0x44 DUP3 ADD MSTORE PUSH1 0x64 ADD PUSH2 0x8C7 JUMP JUMPDEST PUSH1 0x1 PUSH1 0x1 PUSH1 0xA0 SHL SUB DUP2 AND PUSH1 0x0 SWAP1 DUP2 MSTORE PUSH1 0x3 PUSH1 0x20 MSTORE PUSH1 0x40 SWAP1 KECCAK256 SLOAD PUSH1 0xA GT PUSH2 0x1E08 JUMPI PUSH1 0x40 MLOAD PUSH3 0x461BCD PUSH1 0xE5 SHL DUP2 MSTORE PUSH1 0x20 PUSH1 0x4 DUP3 ADD MSTORE PUSH1 0xE PUSH1 0x24 DUP3 ADD MSTORE PUSH14 0x746F6F206D616E79206C6F636B73 PUSH1 0x90 SHL PUSH1 0x44 DUP3 ADD MSTORE PUSH1 0x64 ADD PUSH2 0x8C7 JUMP JUMPDEST PUSH2 0x1E11 DUP2 PUSH2 0x2879 JUMP JUMPDEST PUSH2 0x1E46 PUSH1 0x1 PUSH1 0x1 PUSH1 0xA0 SHL SUB PUSH32 0x0 AND CALLER ADDRESS DUP8 PUSH2 0x2D47 JUMP JUMPDEST PUSH1 0x0 PUSH2 0x1E5A DUP5 PUSH1 0x1 PUSH1 0x1 PUSH1 0x40 SHL SUB AND PUSH2 0x25D5 JUMP JUMPDEST SWAP1 POP PUSH1 0x0 PUSH2 0x1E67 CALLER PUSH2 0x1C4A JUMP JUMPDEST SWAP1 POP PUSH8 0xDE0B6B3A7640000 DUP2 GT ISZERO PUSH2 0x1EB9 JUMPI CALLER PUSH1 0x0 SWAP1 DUP2 MSTORE PUSH1 0x5 PUSH1 0x20 MSTORE PUSH1 0x40 SWAP1 KECCAK256 DUP1 SLOAD PUSH1 0xFF NOT AND PUSH1 0x1 OR SWAP1 SSTORE PUSH2 0x1EA6 PUSH1 0x1 PUSH1 0x1 PUSH1 0x80 SHL SUB DUP4 AND DUP3 PUSH2 0x3011 JUMP JUMPDEST CALLER PUSH1 0x0 SWAP1 DUP2 MSTORE PUSH1 0x4 PUSH1 0x20 MSTORE PUSH1 0x40 DUP2 KECCAK256 SSTORE SWAP2 POP JUMPDEST PUSH1 0x0 PUSH2 0x1EC5 DUP7 TIMESTAMP PUSH2 0x39A9 JUMP JUMPDEST SWAP1 POP PUSH1 0x0 DUP6 ISZERO PUSH2 0x2040 JUMPI PUSH1 0x1 PUSH1 0x1 PUSH1 0xA0 SHL SUB DUP6 AND PUSH1 0x0 SWAP1 DUP2 MSTORE PUSH1 0x3 PUSH1 0x20 MSTORE PUSH1 0x40 DUP2 KECCAK256 SLOAD SWAP1 JUMPDEST DUP2 DUP2 LT ISZERO PUSH2 0x1F74 JUMPI PUSH1 0x1 PUSH1 0x1 PUSH1 0xA0 SHL SUB DUP8 AND PUSH1 0x0 SWAP1 DUP2 MSTORE PUSH1 0x3 PUSH1 0x20 MSTORE PUSH1 0x40 SWAP1 KECCAK256 DUP1 SLOAD PUSH1 0x1 PUSH1 0x1 PUSH1 0x40 SHL SUB DUP7 AND SWAP2 SWAP1 DUP4 SWAP1 DUP2 LT PUSH2 0x1F28 JUMPI PUSH2 0x1F28 PUSH2 0x38F2 JUMP JUMPDEST PUSH1 0x0 SWAP2 DUP3 MSTORE PUSH1 0x20 SWAP1 SWAP2 KECCAK256 PUSH1 0x1 PUSH1 0x2 SWAP1 SWAP3 MUL ADD ADD SLOAD PUSH1 0x1 PUSH1 0x1 PUSH1 0x40 SHL SUB AND LT PUSH2 0x1F62 JUMPI PUSH1 0x40 MLOAD PUSH3 0x461BCD PUSH1 0xE5 SHL DUP2 MSTORE PUSH1 0x4 ADD PUSH2 0x8C7 SWAP1 PUSH2 0x39D0 JUMP JUMPDEST DUP1 PUSH2 0x1F6C DUP2 PUSH2 0x391E JUMP JUMPDEST SWAP2 POP POP PUSH2 0x1EEA JUMP JUMPDEST POP PUSH1 0x1 PUSH1 0x1 PUSH1 0xA0 SHL SUB DUP7 AND PUSH1 0x0 SWAP1 DUP2 MSTORE PUSH1 0x3 PUSH1 0x20 MSTORE PUSH1 0x40 DUP2 KECCAK256 PUSH2 0x1F96 SWAP2 PUSH2 0x32B1 JUMP JUMPDEST PUSH1 0x1 PUSH1 0x1 PUSH1 0xA0 SHL SUB DUP7 AND PUSH1 0x0 SWAP1 DUP2 MSTORE PUSH1 0x2 PUSH1 0x20 MSTORE PUSH1 0x40 DUP2 KECCAK256 SLOAD PUSH1 0x8 DUP1 SLOAD SWAP2 SWAP3 SWAP1 SWAP2 PUSH2 0x1FC2 SWAP1 DUP5 SWAP1 PUSH2 0x394A JUMP JUMPDEST SWAP1 SWAP2 SSTORE POP POP PUSH1 0x1 PUSH1 0x1 PUSH1 0xA0 SHL SUB DUP7 AND PUSH1 0x0 SWAP1 DUP2 MSTORE PUSH1 0x2 PUSH1 0x20 SWAP1 DUP2 MSTORE PUSH1 0x40 DUP1 DUP4 KECCAK256 DUP4 SWAP1 SSTORE PUSH1 0x1 SWAP1 SWAP2 MSTORE SWAP1 KECCAK256 SLOAD PUSH2 0x2005 SWAP1 DUP8 SWAP1 PUSH2 0x1FFE SWAP1 DUP13 SWAP1 PUSH2 0x3937 JUMP JUMPDEST DUP6 DUP9 PUSH2 0x2F26 JUMP JUMPDEST PUSH1 0x1 PUSH1 0x1 PUSH1 0xA0 SHL SUB DUP7 AND PUSH1 0x0 SWAP1 DUP2 MSTORE PUSH1 0x1 PUSH1 0x20 MSTORE PUSH1 0x40 SWAP1 KECCAK256 SLOAD PUSH2 0x2038 SWAP1 PUSH1 0x1 PUSH1 0x1 PUSH1 0x80 SHL SUB DUP8 AND SWAP1 PUSH2 0x1030 SWAP1 DUP13 SWAP1 PUSH2 0x3937 JUMP JUMPDEST SWAP2 POP POP PUSH2 0x2062 JUMP JUMPDEST PUSH2 0x204C DUP6 DUP10 DUP5 DUP8 PUSH2 0x2F26 JUMP JUMPDEST PUSH2 0x205F DUP9 PUSH1 0x1 PUSH1 0x1 PUSH1 0x80 SHL SUB DUP7 AND PUSH2 0x2D1E JUMP JUMPDEST SWAP1 POP JUMPDEST DUP8 PUSH1 0x7 PUSH1 0x0 DUP3 DUP3 SLOAD PUSH2 0x2074 SWAP2 SWAP1 PUSH2 0x3937 JUMP JUMPDEST SWAP3 POP POP DUP2 SWAP1 SSTORE POP DUP1 PUSH1 0x8 PUSH1 0x0 DUP3 DUP3 SLOAD PUSH2 0x208D SWAP2 SWAP1 PUSH2 0x3937 JUMP JUMPDEST SWAP1 SWAP2 SSTORE POP POP PUSH1 0x1 PUSH1 0x1 PUSH1 0xA0 SHL SUB DUP6 AND PUSH1 0x0 SWAP1 DUP2 MSTORE PUSH1 0x1 PUSH1 0x20 MSTORE PUSH1 0x40 DUP2 KECCAK256 DUP1 SLOAD DUP11 SWAP3 SWAP1 PUSH2 0x20BA SWAP1 DUP5 SWAP1 PUSH2 0x3937 JUMP JUMPDEST SWAP1 SWAP2 SSTORE POP POP PUSH1 0x1 PUSH1 0x1 PUSH1 0xA0 SHL SUB DUP6 AND PUSH1 0x0 SWAP1 DUP2 MSTORE PUSH1 0x2 PUSH1 0x20 MSTORE PUSH1 0x40 DUP2 KECCAK256 DUP1 SLOAD DUP4 SWAP3 SWAP1 PUSH2 0x20E7 SWAP1 DUP5 SWAP1 PUSH2 0x3937 JUMP JUMPDEST SWAP1 SWAP2 SSTORE POP POP PUSH1 0x40 DUP1 MLOAD DUP10 DUP2 MSTORE PUSH1 0x1 PUSH1 0x1 PUSH1 0x40 SHL SUB DUP5 AND PUSH1 0x20 DUP3 ADD MSTORE DUP8 ISZERO ISZERO DUP2 DUP4 ADD MSTORE SWAP1 MLOAD PUSH1 0x1 PUSH1 0x1 PUSH1 0xA0 SHL SUB DUP8 AND SWAP2 PUSH32 0xCA8D506EDA84F8ED07C2908AE102299D34888EF5E19B97F56E4D6FCD1104C31E SWAP2 SWAP1 DUP2 SWAP1 SUB PUSH1 0x60 ADD SWAP1 LOG2 POP POP POP POP POP POP POP POP JUMP JUMPDEST PUSH1 0x0 DUP1 PUSH2 0x2157 CALLER PUSH2 0x2879 JUMP JUMPDEST POP POP CALLER PUSH1 0x0 DUP2 DUP2 MSTORE PUSH1 0xD PUSH1 0x20 SWAP1 DUP2 MSTORE PUSH1 0x40 DUP1 DUP4 KECCAK256 SLOAD PUSH1 0xF SWAP1 SWAP3 MSTORE SWAP1 SWAP2 KECCAK256 SLOAD SWAP1 SWAP2 PUSH2 0x21AC SWAP1 PUSH32 0x0 PUSH1 0x1 PUSH1 0x1 PUSH1 0xA0 SHL SUB AND SWAP1 DUP5 PUSH2 0x2EF6 JUMP JUMPDEST PUSH2 0x21E0 PUSH1 0x1 PUSH1 0x1 PUSH1 0xA0 SHL SUB PUSH32 0x0 AND CALLER DUP4 PUSH2 0x2EF6 JUMP JUMPDEST CALLER PUSH1 0x0 DUP2 DUP2 MSTORE PUSH1 0xD PUSH1 0x20 SWAP1 DUP2 MSTORE PUSH1 0x40 DUP1 DUP4 KECCAK256 DUP4 SWAP1 SSTORE PUSH1 0xF DUP3 MSTORE DUP1 DUP4 KECCAK256 SWAP3 SWAP1 SWAP3 SSTORE DUP2 MLOAD DUP6 DUP2 MSTORE SWAP1 DUP2 ADD DUP5 SWAP1 MSTORE PUSH32 0x1AC537F0AD67B64AC68A04587FF3A4CB6977DE22EB2C37EE560897A92C6D07C7 SWAP2 ADD PUSH1 0x40 MLOAD DUP1 SWAP2 SUB SWAP1 LOG2 SWAP1 SWAP2 JUMP JUMPDEST PUSH1 0x3 PUSH1 0x20 MSTORE DUP2 PUSH1 0x0 MSTORE PUSH1 0x40 PUSH1 0x0 KECCAK256 DUP2 DUP2 SLOAD DUP2 LT PUSH2 0x2256 JUMPI PUSH1 0x0 DUP1 REVERT JUMPDEST PUSH1 0x0 SWAP2 DUP3 MSTORE PUSH1 0x20 SWAP1 SWAP2 KECCAK256 PUSH1 0x2 SWAP1 SWAP2 MUL ADD DUP1 SLOAD PUSH1 0x1 SWAP1 SWAP2 ADD SLOAD SWAP1 SWAP3 POP PUSH1 0x1 PUSH1 0x1 PUSH1 0x40 SHL SUB DUP1 DUP3 AND SWAP3 POP PUSH1 0x1 PUSH1 0x1 PUSH1 0x80 SHL SUB PUSH1 0x1 PUSH1 0x40 SHL DUP4 DIV AND SWAP2 PUSH1 0x1 PUSH1 0xC0 SHL SWAP1 DIV AND DUP5 JUMP JUMPDEST PUSH1 0x0 PUSH1 0x1 PUSH1 0x1 PUSH1 0xA0 SHL SUB DUP3 AND PUSH2 0x22E8 JUMPI PUSH1 0x40 MLOAD PUSH3 0x461BCD PUSH1 0xE5 SHL DUP2 MSTORE PUSH1 0x20 PUSH1 0x4 DUP3 ADD MSTORE PUSH1 0x13 PUSH1 0x24 DUP3 ADD MSTORE PUSH19 0x34B73B30B634B2103232B9BA34B730BA34B7B7 PUSH1 0x69 SHL PUSH1 0x44 DUP3 ADD MSTORE PUSH1 0x64 ADD PUSH2 0x8C7 JUMP JUMPDEST PUSH2 0x22F1 CALLER PUSH2 0x2879 JUMP JUMPDEST CALLER PUSH1 0x0 SWAP1 DUP2 MSTORE PUSH1 0x3 PUSH1 0x20 MSTORE PUSH1 0x40 DUP2 KECCAK256 DUP1 SLOAD DUP3 SWAP2 SWAP1 JUMPDEST DUP1 ISZERO PUSH2 0x24E9 JUMPI PUSH2 0x2317 PUSH1 0x1 DUP3 PUSH2 0x394A JUMP JUMPDEST PUSH1 0x9 SLOAD SWAP1 SWAP2 POP PUSH1 0xFF AND DUP1 PUSH2 0x2359 JUMPI POP TIMESTAMP DUP3 DUP3 DUP2 SLOAD DUP2 LT PUSH2 0x2339 JUMPI PUSH2 0x2339 PUSH2 0x38F2 JUMP JUMPDEST PUSH1 0x0 SWAP2 DUP3 MSTORE PUSH1 0x20 SWAP1 SWAP2 KECCAK256 PUSH1 0x1 PUSH1 0x2 SWAP1 SWAP3 MUL ADD ADD SLOAD PUSH1 0x1 PUSH1 0x1 PUSH1 0x40 SHL SUB AND GT ISZERO JUMPDEST ISZERO PUSH2 0x24E4 JUMPI DUP2 DUP2 DUP2 SLOAD DUP2 LT PUSH2 0x2370 JUMPI PUSH2 0x2370 PUSH2 0x38F2 JUMP JUMPDEST SWAP1 PUSH1 0x0 MSTORE PUSH1 0x20 PUSH1 0x0 KECCAK256 SWAP1 PUSH1 0x2 MUL ADD PUSH1 0x0 ADD SLOAD DUP5 PUSH2 0x238D SWAP2 SWAP1 PUSH2 0x3937 JUMP JUMPDEST SWAP4 POP PUSH2 0x23E4 DUP3 DUP3 DUP2 SLOAD DUP2 LT PUSH2 0x23A4 JUMPI PUSH2 0x23A4 PUSH2 0x38F2 JUMP JUMPDEST SWAP1 PUSH1 0x0 MSTORE PUSH1 0x20 PUSH1 0x0 KECCAK256 SWAP1 PUSH1 0x2 MUL ADD PUSH1 0x1 ADD PUSH1 0x8 SWAP1 SLOAD SWAP1 PUSH2 0x100 EXP SWAP1 DIV PUSH1 0x1 PUSH1 0x1 PUSH1 0x80 SHL SUB AND PUSH1 0x1 PUSH1 0x1 PUSH1 0x80 SHL SUB AND DUP4 DUP4 DUP2 SLOAD DUP2 LT PUSH2 0xCE6 JUMPI PUSH2 0xCE6 PUSH2 0x38F2 JUMP JUMPDEST PUSH2 0x23EE SWAP1 DUP5 PUSH2 0x3937 JUMP JUMPDEST DUP3 SLOAD SWAP1 SWAP4 POP DUP3 SWAP1 PUSH2 0x2401 SWAP1 PUSH1 0x1 SWAP1 PUSH2 0x394A JUMP JUMPDEST DUP2 SLOAD DUP2 LT PUSH2 0x2411 JUMPI PUSH2 0x2411 PUSH2 0x38F2 JUMP JUMPDEST SWAP1 PUSH1 0x0 MSTORE PUSH1 0x20 PUSH1 0x0 KECCAK256 SWAP1 PUSH1 0x2 MUL ADD DUP3 DUP3 DUP2 SLOAD DUP2 LT PUSH2 0x2431 JUMPI PUSH2 0x2431 PUSH2 0x38F2 JUMP JUMPDEST PUSH1 0x0 SWAP2 DUP3 MSTORE PUSH1 0x20 SWAP1 SWAP2 KECCAK256 DUP3 SLOAD PUSH1 0x2 SWAP1 SWAP3 MUL ADD SWAP1 DUP2 SSTORE PUSH1 0x1 SWAP2 DUP3 ADD DUP1 SLOAD SWAP3 SWAP1 SWAP2 ADD DUP1 SLOAD PUSH8 0xFFFFFFFFFFFFFFFF NOT DUP2 AND PUSH1 0x1 PUSH1 0x1 PUSH1 0x40 SHL SUB SWAP5 DUP6 AND SWAP1 DUP2 OR DUP4 SSTORE DUP4 SLOAD PUSH1 0x1 PUSH1 0x1 PUSH1 0x80 SHL SUB PUSH1 0x1 PUSH1 0x40 SHL SWAP2 DUP3 SWAP1 DIV AND MUL PUSH1 0x1 PUSH1 0x1 PUSH1 0xC0 SHL SUB NOT SWAP1 SWAP3 AND OR OR DUP1 DUP3 SSTORE SWAP2 SLOAD PUSH1 0x1 PUSH1 0xC0 SHL SWAP1 DUP2 SWAP1 DIV SWAP1 SWAP4 AND SWAP1 SWAP3 MUL PUSH1 0x1 PUSH1 0x1 PUSH1 0xC0 SHL SUB SWAP1 SWAP2 AND OR SWAP1 SSTORE DUP2 SLOAD DUP3 SWAP1 DUP1 PUSH2 0x24C5 JUMPI PUSH2 0x24C5 PUSH2 0x3993 JUMP JUMPDEST PUSH1 0x0 DUP3 DUP2 MSTORE PUSH1 0x20 DUP2 KECCAK256 PUSH1 0x2 PUSH1 0x0 NOT SWAP1 SWAP4 ADD SWAP3 DUP4 MUL ADD DUP2 DUP2 SSTORE PUSH1 0x1 ADD SSTORE SWAP1 SSTORE JUMPDEST PUSH2 0x2306 JUMP JUMPDEST DUP4 PUSH1 0x7 PUSH1 0x0 DUP3 DUP3 SLOAD PUSH2 0x24FB SWAP2 SWAP1 PUSH2 0x394A JUMP JUMPDEST SWAP3 POP POP DUP2 SWAP1 SSTORE POP DUP3 PUSH1 0x8 PUSH1 0x0 DUP3 DUP3 SLOAD PUSH2 0x2514 SWAP2 SWAP1 PUSH2 0x394A JUMP JUMPDEST SWAP1 SWAP2 SSTORE POP POP CALLER PUSH1 0x0 SWAP1 DUP2 MSTORE PUSH1 0x1 PUSH1 0x20 MSTORE PUSH1 0x40 DUP2 KECCAK256 DUP1 SLOAD DUP7 SWAP3 SWAP1 PUSH2 0x2538 SWAP1 DUP5 SWAP1 PUSH2 0x394A JUMP JUMPDEST SWAP1 SWAP2 SSTORE POP POP CALLER PUSH1 0x0 SWAP1 DUP2 MSTORE PUSH1 0x2 PUSH1 0x20 MSTORE PUSH1 0x40 DUP2 KECCAK256 DUP1 SLOAD DUP6 SWAP3 SWAP1 PUSH2 0x255C SWAP1 DUP5 SWAP1 PUSH2 0x394A JUMP JUMPDEST SWAP1 SWAP2 SSTORE POP PUSH2 0x2596 SWAP1 POP PUSH1 0x1 PUSH1 0x1 PUSH1 0xA0 SHL SUB PUSH32 0x0 AND DUP8 DUP7 PUSH2 0x2EF6 JUMP JUMPDEST PUSH1 0x40 MLOAD DUP5 DUP2 MSTORE CALLER SWAP1 PUSH32 0xB291E2A2847A5AD6D47409943306C6D6E8C63A9855B849701B868191E9478970 SWAP1 PUSH1 0x20 ADD PUSH1 0x40 MLOAD DUP1 SWAP2 SUB SWAP1 LOG2 POP SWAP2 SWAP5 SWAP4 POP POP POP POP JUMP JUMPDEST PUSH1 0x0 PUSH8 0xDE0B6B3A7640000 PUSH2 0x263C PUSH2 0x2613 PUSH2 0x25F7 PUSH3 0x9E3400 PUSH4 0x13C6800 PUSH2 0x3A27 JUMP JUMPDEST PUSH2 0x2604 PUSH3 0x9E3400 DUP8 PUSH2 0x3A27 JUMP JUMPDEST PUSH1 0x1 PUSH1 0x1 PUSH1 0x80 SHL SUB AND SWAP1 PUSH2 0x3033 JUMP JUMPDEST PUSH2 0x262D PUSH8 0xDE0B6B3A7640000 PUSH8 0x14D1120D7B160000 PUSH2 0x3A27 JUMP JUMPDEST PUSH1 0x1 PUSH1 0x1 PUSH1 0x80 SHL SUB AND SWAP1 PUSH2 0x3011 JUMP JUMPDEST PUSH2 0xD64 SWAP2 SWAP1 PUSH2 0x3A07 JUMP JUMPDEST PUSH1 0x0 JUMPDEST DUP2 MLOAD DUP2 LT ISZERO PUSH2 0xD32 JUMPI PUSH2 0x2696 DUP3 DUP3 DUP2 MLOAD DUP2 LT PUSH2 0x2667 JUMPI PUSH2 0x2667 PUSH2 0x38F2 JUMP JUMPDEST PUSH1 0x20 MUL PUSH1 0x20 ADD ADD MLOAD PUSH1 0x0 ADD MLOAD DUP4 DUP4 DUP2 MLOAD DUP2 LT PUSH2 0x2685 JUMPI PUSH2 0x2685 PUSH2 0x38F2 JUMP JUMPDEST PUSH1 0x20 MUL PUSH1 0x20 ADD ADD MLOAD PUSH1 0x20 ADD MLOAD PUSH2 0x1896 JUMP JUMPDEST DUP1 PUSH2 0x26A0 DUP2 PUSH2 0x391E JUMP JUMPDEST SWAP2 POP POP PUSH2 0x2649 JUMP JUMPDEST PUSH2 0x26B0 PUSH2 0x281F JUMP JUMPDEST PUSH1 0x1 PUSH1 0x1 PUSH1 0xA0 SHL SUB DUP2 AND PUSH2 0x2715 JUMPI PUSH1 0x40 MLOAD PUSH3 0x461BCD PUSH1 0xE5 SHL DUP2 MSTORE PUSH1 0x20 PUSH1 0x4 DUP3 ADD MSTORE PUSH1 0x26 PUSH1 0x24 DUP3 ADD MSTORE PUSH32 0x4F776E61626C653A206E6577206F776E657220697320746865207A65726F2061 PUSH1 0x44 DUP3 ADD MSTORE PUSH6 0x646472657373 PUSH1 0xD0 SHL PUSH1 0x64 DUP3 ADD MSTORE PUSH1 0x84 ADD PUSH2 0x8C7 JUMP JUMPDEST PUSH2 0x271E DUP2 PUSH2 0x2DCB JUMP JUMPDEST POP JUMP JUMPDEST PUSH1 0x20 DUP4 ADD MLOAD MLOAD DUP4 MLOAD PUSH1 0x0 SWAP2 SWAP1 DUP3 JUMPDEST DUP3 DUP2 LT ISZERO PUSH2 0x2814 JUMPI PUSH2 0x2742 PUSH1 0x2 DUP4 PUSH2 0x3A5D JUMP JUMPDEST PUSH2 0xFFFF AND PUSH1 0x0 SUB PUSH2 0x27A3 JUMPI DUP6 DUP8 PUSH1 0x20 ADD MLOAD DUP3 DUP2 MLOAD DUP2 LT PUSH2 0x2764 JUMPI PUSH2 0x2764 PUSH2 0x38F2 JUMP JUMPDEST PUSH1 0x20 MUL PUSH1 0x20 ADD ADD MLOAD PUSH1 0x40 MLOAD PUSH1 0x20 ADD PUSH2 0x2786 SWAP3 SWAP2 SWAP1 SWAP2 DUP3 MSTORE PUSH1 0x20 DUP3 ADD MSTORE PUSH1 0x40 ADD SWAP1 JUMP JUMPDEST PUSH1 0x40 MLOAD PUSH1 0x20 DUP2 DUP4 SUB SUB DUP2 MSTORE SWAP1 PUSH1 0x40 MSTORE DUP1 MLOAD SWAP1 PUSH1 0x20 ADD KECCAK256 SWAP6 POP PUSH2 0x27F5 JUMP JUMPDEST DUP7 PUSH1 0x20 ADD MLOAD DUP2 DUP2 MLOAD DUP2 LT PUSH2 0x27B9 JUMPI PUSH2 0x27B9 PUSH2 0x38F2 JUMP JUMPDEST PUSH1 0x20 MUL PUSH1 0x20 ADD ADD MLOAD DUP7 PUSH1 0x40 MLOAD PUSH1 0x20 ADD PUSH2 0x27DC SWAP3 SWAP2 SWAP1 SWAP2 DUP3 MSTORE PUSH1 0x20 DUP3 ADD MSTORE PUSH1 0x40 ADD SWAP1 JUMP JUMPDEST PUSH1 0x40 MLOAD PUSH1 0x20 DUP2 DUP4 SUB SUB DUP2 MSTORE SWAP1 PUSH1 0x40 MSTORE DUP1 MLOAD SWAP1 PUSH1 0x20 ADD KECCAK256 SWAP6 POP JUMPDEST PUSH2 0x2800 PUSH1 0x2 DUP4 PUSH2 0x3A7E JUMP JUMPDEST SWAP2 POP DUP1 PUSH2 0x280C DUP2 PUSH2 0x391E JUMP JUMPDEST SWAP2 POP POP PUSH2 0x272F JUMP JUMPDEST POP POP POP SWAP2 EQ SWAP3 SWAP2 POP POP JUMP JUMPDEST PUSH1 0x0 SLOAD PUSH1 0x1 PUSH1 0x1 PUSH1 0xA0 SHL SUB AND CALLER EQ PUSH2 0xF32 JUMPI PUSH1 0x40 MLOAD PUSH3 0x461BCD PUSH1 0xE5 SHL DUP2 MSTORE PUSH1 0x20 PUSH1 0x4 DUP3 ADD DUP2 SWAP1 MSTORE PUSH1 0x24 DUP3 ADD MSTORE PUSH32 0x4F776E61626C653A2063616C6C6572206973206E6F7420746865206F776E6572 PUSH1 0x44 DUP3 ADD MSTORE PUSH1 0x64 ADD PUSH2 0x8C7 JUMP JUMPDEST PUSH1 0x1 PUSH1 0x1 PUSH1 0xA0 SHL SUB DUP2 AND PUSH1 0x0 SWAP1 DUP2 MSTORE PUSH1 0x2 PUSH1 0x20 SWAP1 DUP2 MSTORE PUSH1 0x40 DUP1 DUP4 KECCAK256 SLOAD PUSH1 0xA SLOAD PUSH1 0xB SLOAD PUSH1 0xC SWAP1 SWAP5 MSTORE SWAP2 SWAP1 SWAP4 KECCAK256 SLOAD SWAP1 SWAP2 SWAP1 PUSH2 0x28BD SWAP1 PUSH2 0x28B6 SWAP1 DUP5 PUSH2 0x394A JUMP JUMPDEST DUP5 SWAP1 PUSH2 0x2D1E JUMP JUMPDEST PUSH1 0x1 PUSH1 0x1 PUSH1 0xA0 SHL SUB DUP6 AND PUSH1 0x0 SWAP1 DUP2 MSTORE PUSH1 0xD PUSH1 0x20 MSTORE PUSH1 0x40 DUP2 KECCAK256 DUP1 SLOAD SWAP1 SWAP2 SWAP1 PUSH2 0x28E5 SWAP1 DUP5 SWAP1 PUSH2 0x3937 JUMP JUMPDEST SWAP1 SWAP2 SSTORE POP POP PUSH1 0x1 PUSH1 0x1 PUSH1 0xA0 SHL SUB DUP5 AND PUSH1 0x0 SWAP1 DUP2 MSTORE PUSH1 0xC PUSH1 0x20 SWAP1 DUP2 MSTORE PUSH1 0x40 DUP1 DUP4 KECCAK256 DUP6 SWAP1 SSTORE PUSH1 0xE SWAP1 SWAP2 MSTORE SWAP1 KECCAK256 SLOAD PUSH2 0x291E SWAP1 PUSH2 0x28B6 SWAP1 DUP4 PUSH2 0x394A JUMP JUMPDEST PUSH1 0x1 PUSH1 0x1 PUSH1 0xA0 SHL SUB DUP6 AND PUSH1 0x0 SWAP1 DUP2 MSTORE PUSH1 0xF PUSH1 0x20 MSTORE PUSH1 0x40 DUP2 KECCAK256 DUP1 SLOAD SWAP1 SWAP2 SWAP1 PUSH2 0x2946 SWAP1 DUP5 SWAP1 PUSH2 0x3937 JUMP JUMPDEST SWAP1 SWAP2 SSTORE POP POP PUSH1 0x1 PUSH1 0x1 PUSH1 0xA0 SHL SUB DUP1 DUP6 AND PUSH1 0x0 SWAP1 DUP2 MSTORE PUSH1 0xE PUSH1 0x20 SWAP1 DUP2 MSTORE PUSH1 0x40 DUP1 DUP4 KECCAK256 DUP6 SWAP1 SSTORE DUP1 MLOAD PUSH4 0x98457559 PUSH1 0xE0 SHL DUP2 MSTORE SWAP1 MLOAD SWAP3 SWAP4 PUSH32 0x0 AND SWAP3 PUSH4 0x98457559 SWAP3 PUSH1 0x4 DUP1 DUP5 ADD SWAP4 SWAP2 SWAP3 SWAP2 DUP3 SWAP1 SUB ADD DUP2 DUP7 GAS STATICCALL ISZERO DUP1 ISZERO PUSH2 0x29C5 JUMPI RETURNDATASIZE PUSH1 0x0 DUP1 RETURNDATACOPY RETURNDATASIZE PUSH1 0x0 REVERT JUMPDEST POP POP POP POP PUSH1 0x40 MLOAD RETURNDATASIZE PUSH1 0x1F NOT PUSH1 0x1F DUP3 ADD AND DUP3 ADD DUP1 PUSH1 0x40 MSTORE POP DUP2 ADD SWAP1 PUSH2 0x29E9 SWAP2 SWAP1 PUSH2 0x395D JUMP JUMPDEST PUSH1 0x40 MLOAD PUSH4 0xBF928F8B PUSH1 0xE0 SHL DUP2 MSTORE PUSH1 0x1 PUSH1 0x1 PUSH1 0xA0 SHL SUB DUP8 DUP2 AND PUSH1 0x4 DUP4 ADD MSTORE SWAP2 SWAP3 POP SWAP1 DUP3 AND SWAP1 PUSH4 0xBF928F8B SWAP1 PUSH1 0x24 ADD PUSH1 0x0 PUSH1 0x40 MLOAD DUP1 DUP4 SUB DUP2 PUSH1 0x0 DUP8 DUP1 EXTCODESIZE ISZERO DUP1 ISZERO PUSH2 0x2A30 JUMPI PUSH1 0x0 DUP1 REVERT JUMPDEST POP GAS CALL ISZERO DUP1 ISZERO PUSH2 0x2A44 JUMPI RETURNDATASIZE PUSH1 0x0 DUP1 RETURNDATACOPY RETURNDATASIZE PUSH1 0x0 REVERT JUMPDEST POP POP POP POP POP POP POP POP POP JUMP JUMPDEST PUSH1 0x0 PUSH2 0x2A5B CALLER DUP5 PUSH2 0x2E1B JUMP JUMPDEST SWAP1 POP PUSH1 0x0 PUSH2 0x2A71 DUP4 PUSH1 0x1 PUSH1 0x1 PUSH1 0x40 SHL SUB AND PUSH2 0x25D5 JUMP JUMPDEST SWAP1 POP PUSH1 0x0 PUSH2 0x2A7F DUP5 TIMESTAMP PUSH2 0x39A9 JUMP JUMPDEST CALLER PUSH1 0x0 SWAP1 DUP2 MSTORE PUSH1 0x3 PUSH1 0x20 MSTORE PUSH1 0x40 SWAP1 KECCAK256 DUP1 SLOAD SWAP2 SWAP3 POP SWAP1 PUSH1 0x1 PUSH1 0x1 PUSH1 0x40 SHL SUB DUP4 AND SWAP1 DUP3 SWAP1 DUP7 SWAP1 DUP2 LT PUSH2 0x2AB1 JUMPI PUSH2 0x2AB1 PUSH2 0x38F2 JUMP JUMPDEST PUSH1 0x0 SWAP2 DUP3 MSTORE PUSH1 0x20 SWAP1 SWAP2 KECCAK256 PUSH1 0x1 PUSH1 0x2 SWAP1 SWAP3 MUL ADD ADD SLOAD PUSH1 0x1 PUSH1 0x1 PUSH1 0x40 SHL SUB AND LT PUSH2 0x2AEB JUMPI PUSH1 0x40 MLOAD PUSH3 0x461BCD PUSH1 0xE5 SHL DUP2 MSTORE PUSH1 0x4 ADD PUSH2 0x8C7 SWAP1 PUSH2 0x39D0 JUMP JUMPDEST PUSH1 0x0 DUP2 DUP6 DUP2 SLOAD DUP2 LT PUSH2 0x2AFF JUMPI PUSH2 0x2AFF PUSH2 0x38F2 JUMP JUMPDEST SWAP1 PUSH1 0x0 MSTORE PUSH1 0x20 PUSH1 0x0 KECCAK256 SWAP1 PUSH1 0x2 MUL ADD PUSH1 0x0 ADD SLOAD SWAP1 POP PUSH1 0x0 PUSH2 0x2B6A DUP4 DUP8 DUP2 SLOAD DUP2 LT PUSH2 0x2B2A JUMPI PUSH2 0x2B2A PUSH2 0x38F2 JUMP JUMPDEST SWAP1 PUSH1 0x0 MSTORE PUSH1 0x20 PUSH1 0x0 KECCAK256 SWAP1 PUSH1 0x2 MUL ADD PUSH1 0x1 ADD PUSH1 0x8 SWAP1 SLOAD SWAP1 PUSH2 0x100 EXP SWAP1 DIV PUSH1 0x1 PUSH1 0x1 PUSH1 0x80 SHL SUB AND PUSH1 0x1 PUSH1 0x1 PUSH1 0x80 SHL SUB AND DUP5 DUP9 DUP2 SLOAD DUP2 LT PUSH2 0xCE6 JUMPI PUSH2 0xCE6 PUSH2 0x38F2 JUMP JUMPDEST DUP4 SLOAD SWAP1 SWAP2 POP DUP4 SWAP1 PUSH2 0x2B7D SWAP1 PUSH1 0x1 SWAP1 PUSH2 0x394A JUMP JUMPDEST DUP2 SLOAD DUP2 LT PUSH2 0x2B8D JUMPI PUSH2 0x2B8D PUSH2 0x38F2 JUMP JUMPDEST SWAP1 PUSH1 0x0 MSTORE PUSH1 0x20 PUSH1 0x0 KECCAK256 SWAP1 PUSH1 0x2 MUL ADD DUP4 DUP8 DUP2 SLOAD DUP2 LT PUSH2 0x2BAD JUMPI PUSH2 0x2BAD PUSH2 0x38F2 JUMP JUMPDEST PUSH1 0x0 SWAP2 DUP3 MSTORE PUSH1 0x20 SWAP1 SWAP2 KECCAK256 DUP3 SLOAD PUSH1 0x2 SWAP1 SWAP3 MUL ADD SWAP1 DUP2 SSTORE PUSH1 0x1 SWAP2 DUP3 ADD DUP1 SLOAD SWAP3 SWAP1 SWAP2 ADD DUP1 SLOAD PUSH8 0xFFFFFFFFFFFFFFFF NOT DUP2 AND PUSH1 0x1 PUSH1 0x1 PUSH1 0x40 SHL SUB SWAP5 DUP6 AND SWAP1 DUP2 OR DUP4 SSTORE DUP4 SLOAD PUSH1 0x1 PUSH1 0x1 PUSH1 0x80 SHL SUB PUSH1 0x1 PUSH1 0x40 SHL SWAP2 DUP3 SWAP1 DIV AND MUL PUSH1 0x1 PUSH1 0x1 PUSH1 0xC0 SHL SUB NOT SWAP1 SWAP3 AND OR OR DUP1 DUP3 SSTORE SWAP2 SLOAD PUSH1 0x1 PUSH1 0xC0 SHL SWAP1 DUP2 SWAP1 DIV SWAP1 SWAP4 AND SWAP1 SWAP3 MUL PUSH1 0x1 PUSH1 0x1 PUSH1 0xC0 SHL SUB SWAP1 SWAP2 AND OR SWAP1 SSTORE DUP3 SLOAD DUP4 SWAP1 DUP1 PUSH2 0x2C41 JUMPI PUSH2 0x2C41 PUSH2 0x3993 JUMP JUMPDEST PUSH1 0x0 DUP3 DUP2 MSTORE PUSH1 0x20 DUP2 KECCAK256 PUSH1 0x2 PUSH1 0x0 NOT SWAP1 SWAP4 ADD SWAP3 DUP4 MUL ADD DUP2 DUP2 SSTORE PUSH1 0x1 ADD SSTORE SWAP1 SSTORE PUSH2 0x2C6B CALLER DUP4 DUP7 DUP9 PUSH2 0x2F26 JUMP JUMPDEST PUSH1 0x0 PUSH2 0x2C80 DUP4 PUSH1 0x1 PUSH1 0x1 PUSH1 0x80 SHL SUB DUP9 AND PUSH2 0x2D1E JUMP JUMPDEST SWAP1 POP DUP2 DUP2 PUSH1 0x8 SLOAD PUSH2 0x2C91 SWAP2 SWAP1 PUSH2 0x3937 JUMP JUMPDEST PUSH2 0x2C9B SWAP2 SWAP1 PUSH2 0x394A JUMP JUMPDEST PUSH1 0x8 SSTORE CALLER PUSH1 0x0 SWAP1 DUP2 MSTORE PUSH1 0x2 PUSH1 0x20 MSTORE PUSH1 0x40 SWAP1 KECCAK256 SLOAD DUP3 SWAP1 PUSH2 0x2CBB SWAP1 DUP4 SWAP1 PUSH2 0x3937 JUMP JUMPDEST PUSH2 0x2CC5 SWAP2 SWAP1 PUSH2 0x394A JUMP JUMPDEST CALLER PUSH1 0x0 DUP2 DUP2 MSTORE PUSH1 0x2 PUSH1 0x20 MSTORE PUSH1 0x40 SWAP1 DUP2 SWAP1 KECCAK256 SWAP3 SWAP1 SWAP3 SSTORE SWAP1 MLOAD PUSH32 0xE2D155D9D74DECC198A9A9B4F5BDDB24EE0842EE745C9CE57E3573B971E50D9D SWAP1 PUSH2 0x2D0B SWAP1 DUP7 DUP2 MSTORE PUSH1 0x20 ADD SWAP1 JUMP JUMPDEST PUSH1 0x40 MLOAD DUP1 SWAP2 SUB SWAP1 LOG2 POP POP POP POP POP POP POP POP POP JUMP JUMPDEST PUSH1 0x0 PUSH2 0x2D2C PUSH1 0x12 PUSH1 0xA PUSH2 0x3B83 JUMP JUMPDEST PUSH2 0x2D36 DUP4 DUP6 PUSH2 0x3B8F JUMP JUMPDEST PUSH2 0x2D40 SWAP2 SWAP1 PUSH2 0x3BA6 JUMP JUMPDEST SWAP4 SWAP3 POP POP POP JUMP JUMPDEST PUSH1 0x40 MLOAD PUSH1 0x1 PUSH1 0x1 PUSH1 0xA0 SHL SUB DUP1 DUP6 AND PUSH1 0x24 DUP4 ADD MSTORE DUP4 AND PUSH1 0x44 DUP3 ADD MSTORE PUSH1 0x64 DUP2 ADD DUP3 SWAP1 MSTORE PUSH2 0xC26 SWAP1 DUP6 SWAP1 PUSH4 0x23B872DD PUSH1 0xE0 SHL SWAP1 PUSH1 0x84 ADD JUMPDEST PUSH1 0x40 DUP1 MLOAD PUSH1 0x1F NOT DUP2 DUP5 SUB ADD DUP2 MSTORE SWAP2 SWAP1 MSTORE PUSH1 0x20 DUP2 ADD DUP1 MLOAD PUSH1 0x1 PUSH1 0x1 PUSH1 0xE0 SHL SUB AND PUSH1 0x1 PUSH1 0x1 PUSH1 0xE0 SHL SUB NOT SWAP1 SWAP4 AND SWAP3 SWAP1 SWAP3 OR SWAP1 SWAP2 MSTORE PUSH2 0x304C JUMP JUMPDEST PUSH1 0x0 DUP2 PUSH2 0x2DC1 PUSH1 0x12 PUSH1 0xA PUSH2 0x3B83 JUMP JUMPDEST PUSH2 0x2D36 SWAP1 DUP6 PUSH2 0x3B8F JUMP JUMPDEST PUSH1 0x0 DUP1 SLOAD PUSH1 0x1 PUSH1 0x1 PUSH1 0xA0 SHL SUB DUP4 DUP2 AND PUSH1 0x1 PUSH1 0x1 PUSH1 0xA0 SHL SUB NOT DUP4 AND DUP2 OR DUP5 SSTORE PUSH1 0x40 MLOAD SWAP2 SWAP1 SWAP3 AND SWAP3 DUP4 SWAP2 PUSH32 0x8BE0079C531659141344CD1FD0A4F28419497F9722A3DAAFE3B4186F6B6457E0 SWAP2 SWAP1 LOG3 POP POP JUMP JUMPDEST PUSH1 0x1 PUSH1 0x1 PUSH1 0xA0 SHL SUB DUP3 AND PUSH1 0x0 SWAP1 DUP2 MSTORE PUSH1 0x3 PUSH1 0x20 MSTORE PUSH1 0x40 DUP2 KECCAK256 SLOAD DUP2 JUMPDEST DUP2 DUP2 LT ISZERO PUSH2 0x2EB8 JUMPI PUSH1 0x1 PUSH1 0x1 PUSH1 0xA0 SHL SUB DUP6 AND PUSH1 0x0 SWAP1 DUP2 MSTORE PUSH1 0x3 PUSH1 0x20 MSTORE PUSH1 0x40 SWAP1 KECCAK256 DUP1 SLOAD PUSH1 0x1 PUSH1 0x1 PUSH1 0x40 SHL SUB DUP7 AND SWAP2 SWAP1 DUP4 SWAP1 DUP2 LT PUSH2 0x2E74 JUMPI PUSH2 0x2E74 PUSH2 0x38F2 JUMP JUMPDEST PUSH1 0x0 SWAP2 DUP3 MSTORE PUSH1 0x20 SWAP1 SWAP2 KECCAK256 PUSH1 0x2 SWAP1 SWAP2 MUL ADD PUSH1 0x1 ADD SLOAD PUSH1 0x1 PUSH1 0xC0 SHL SWAP1 DIV PUSH1 0x1 PUSH1 0x1 PUSH1 0x40 SHL SUB AND SUB PUSH2 0x2EA6 JUMPI SWAP2 POP PUSH2 0xD64 SWAP1 POP JUMP JUMPDEST DUP1 PUSH2 0x2EB0 DUP2 PUSH2 0x391E JUMP JUMPDEST SWAP2 POP POP PUSH2 0x2E36 JUMP JUMPDEST POP PUSH1 0x40 MLOAD PUSH3 0x461BCD PUSH1 0xE5 SHL DUP2 MSTORE PUSH1 0x20 PUSH1 0x4 DUP3 ADD MSTORE PUSH1 0x12 PUSH1 0x24 DUP3 ADD MSTORE PUSH18 0x1B1BD8DAC8191BD95CDB89DD08195E1A5CDD PUSH1 0x72 SHL PUSH1 0x44 DUP3 ADD MSTORE PUSH1 0x64 ADD PUSH2 0x8C7 JUMP JUMPDEST PUSH1 0x40 MLOAD PUSH1 0x1 PUSH1 0x1 PUSH1 0xA0 SHL SUB DUP4 AND PUSH1 0x24 DUP3 ADD MSTORE PUSH1 0x44 DUP2 ADD DUP3 SWAP1 MSTORE PUSH2 0xF10 SWAP1 DUP5 SWAP1 PUSH4 0xA9059CBB PUSH1 0xE0 SHL SWAP1 PUSH1 0x64 ADD PUSH2 0x2D7B JUMP JUMPDEST PUSH1 0x6 SLOAD PUSH1 0x1 PUSH1 0x1 PUSH1 0xA0 SHL SUB DUP6 AND PUSH1 0x0 SWAP1 DUP2 MSTORE PUSH1 0x3 PUSH1 0x20 SWAP1 DUP2 MSTORE PUSH1 0x40 DUP1 DUP4 KECCAK256 DUP2 MLOAD PUSH1 0x80 DUP2 ADD DUP4 MSTORE DUP9 DUP2 MSTORE PUSH1 0x1 PUSH1 0x1 PUSH1 0x40 SHL SUB DUP9 DUP2 AND DUP3 DUP7 ADD SWAP1 DUP2 MSTORE PUSH1 0x1 PUSH1 0x1 PUSH1 0x80 SHL SUB DUP1 DUP11 AND SWAP6 DUP5 ADD SWAP6 DUP7 MSTORE SWAP8 DUP3 AND PUSH1 0x60 DUP5 ADD DUP2 DUP2 MSTORE DUP6 SLOAD PUSH1 0x1 DUP2 DUP2 ADD DUP9 SSTORE SWAP7 DUP11 MSTORE SWAP8 SWAP1 SWAP9 KECCAK256 SWAP4 MLOAD PUSH1 0x2 SWAP1 SWAP8 MUL SWAP1 SWAP4 ADD SWAP6 DUP7 SSTORE MLOAD SWAP5 DUP4 ADD DUP1 SLOAD SWAP5 MLOAD SWAP7 MLOAD DUP3 AND PUSH1 0x1 PUSH1 0xC0 SHL MUL PUSH1 0x1 PUSH1 0x1 PUSH1 0xC0 SHL SUB SWAP8 SWAP1 SWAP9 AND PUSH1 0x1 PUSH1 0x40 SHL MUL PUSH1 0x1 PUSH1 0x1 PUSH1 0xC0 SHL SUB NOT SWAP1 SWAP6 AND SWAP6 SWAP1 SWAP2 AND SWAP5 SWAP1 SWAP5 OR SWAP3 SWAP1 SWAP3 OR SWAP4 SWAP1 SWAP4 AND SWAP4 SWAP1 SWAP4 OR SWAP1 SSTORE PUSH2 0x2FE9 SWAP1 DUP3 SWAP1 PUSH2 0x39A9 JUMP JUMPDEST PUSH1 0x6 DUP1 SLOAD PUSH8 0xFFFFFFFFFFFFFFFF NOT AND PUSH1 0x1 PUSH1 0x1 PUSH1 0x40 SHL SUB SWAP3 SWAP1 SWAP3 AND SWAP2 SWAP1 SWAP2 OR SWAP1 SSTORE POP POP POP POP POP JUMP JUMPDEST PUSH1 0x0 PUSH2 0x301F PUSH1 0x12 PUSH1 0xA PUSH2 0x3B83 JUMP JUMPDEST PUSH2 0x3029 DUP4 DUP6 PUSH2 0x3BBA JUMP JUMPDEST PUSH2 0x2D40 SWAP2 SWAP1 PUSH2 0x3BE5 JUMP JUMPDEST PUSH1 0x0 DUP2 PUSH2 0x3042 PUSH1 0x12 PUSH1 0xA PUSH2 0x3B83 JUMP JUMPDEST PUSH2 0x3029 SWAP1 DUP6 PUSH2 0x3BBA JUMP JUMPDEST PUSH1 0x0 PUSH2 0x30A1 DUP3 PUSH1 0x40 MLOAD DUP1 PUSH1 0x40 ADD PUSH1 0x40 MSTORE DUP1 PUSH1 0x20 DUP2 MSTORE PUSH1 0x20 ADD PUSH32 0x5361666545524332303A206C6F772D6C6576656C2063616C6C206661696C6564 DUP2 MSTORE POP DUP6 PUSH1 0x1 PUSH1 0x1 PUSH1 0xA0 SHL SUB AND PUSH2 0x3121 SWAP1 SWAP3 SWAP2 SWAP1 PUSH4 0xFFFFFFFF AND JUMP JUMPDEST SWAP1 POP DUP1 MLOAD PUSH1 0x0 EQ DUP1 PUSH2 0x30C2 JUMPI POP DUP1 DUP1 PUSH1 0x20 ADD SWAP1 MLOAD DUP2 ADD SWAP1 PUSH2 0x30C2 SWAP2 SWAP1 PUSH2 0x3BFF JUMP JUMPDEST PUSH2 0xF10 JUMPI PUSH1 0x40 MLOAD PUSH3 0x461BCD PUSH1 0xE5 SHL DUP2 MSTORE PUSH1 0x20 PUSH1 0x4 DUP3 ADD MSTORE PUSH1 0x2A PUSH1 0x24 DUP3 ADD MSTORE PUSH32 0x5361666545524332303A204552433230206F7065726174696F6E20646964206E PUSH1 0x44 DUP3 ADD MSTORE PUSH10 0x1BDD081CDD58D8D95959 PUSH1 0xB2 SHL PUSH1 0x64 DUP3 ADD MSTORE PUSH1 0x84 ADD PUSH2 0x8C7 JUMP JUMPDEST PUSH1 0x60 PUSH2 0x3130 DUP5 DUP5 PUSH1 0x0 DUP6 PUSH2 0x3138 JUMP JUMPDEST SWAP5 SWAP4 POP POP POP POP JUMP JUMPDEST PUSH1 0x60 DUP3 SELFBALANCE LT ISZERO PUSH2 0x3199 JUMPI PUSH1 0x40 MLOAD PUSH3 0x461BCD PUSH1 0xE5 SHL DUP2 MSTORE PUSH1 0x20 PUSH1 0x4 DUP3 ADD MSTORE PUSH1 0x26 PUSH1 0x24 DUP3 ADD MSTORE PUSH32 0x416464726573733A20696E73756666696369656E742062616C616E636520666F PUSH1 0x44 DUP3 ADD MSTORE PUSH6 0x1C8818D85B1B PUSH1 0xD2 SHL PUSH1 0x64 DUP3 ADD MSTORE PUSH1 0x84 ADD PUSH2 0x8C7 JUMP JUMPDEST PUSH1 0x0 DUP1 DUP7 PUSH1 0x1 PUSH1 0x1 PUSH1 0xA0 SHL SUB AND DUP6 DUP8 PUSH1 0x40 MLOAD PUSH2 0x31B5 SWAP2 SWAP1 PUSH2 0x3C40 JUMP JUMPDEST PUSH1 0x0 PUSH1 0x40 MLOAD DUP1 DUP4 SUB DUP2 DUP6 DUP8 GAS CALL SWAP3 POP POP POP RETURNDATASIZE DUP1 PUSH1 0x0 DUP2 EQ PUSH2 0x31F2 JUMPI PUSH1 0x40 MLOAD SWAP2 POP PUSH1 0x1F NOT PUSH1 0x3F RETURNDATASIZE ADD AND DUP3 ADD PUSH1 0x40 MSTORE RETURNDATASIZE DUP3 MSTORE RETURNDATASIZE PUSH1 0x0 PUSH1 0x20 DUP5 ADD RETURNDATACOPY PUSH2 0x31F7 JUMP JUMPDEST PUSH1 0x60 SWAP2 POP JUMPDEST POP SWAP2 POP SWAP2 POP PUSH2 0x3208 DUP8 DUP4 DUP4 DUP8 PUSH2 0x3213 JUMP JUMPDEST SWAP8 SWAP7 POP POP POP POP POP POP POP JUMP JUMPDEST PUSH1 0x60 DUP4 ISZERO PUSH2 0x3282 JUMPI DUP3 MLOAD PUSH1 0x0 SUB PUSH2 0x327B JUMPI PUSH1 0x1 PUSH1 0x1 PUSH1 0xA0 SHL SUB DUP6 AND EXTCODESIZE PUSH2 0x327B JUMPI PUSH1 0x40 MLOAD PUSH3 0x461BCD PUSH1 0xE5 SHL DUP2 MSTORE PUSH1 0x20 PUSH1 0x4 DUP3 ADD MSTORE PUSH1 0x1D PUSH1 0x24 DUP3 ADD MSTORE PUSH32 0x416464726573733A2063616C6C20746F206E6F6E2D636F6E7472616374000000 PUSH1 0x44 DUP3 ADD MSTORE PUSH1 0x64 ADD PUSH2 0x8C7 JUMP JUMPDEST POP DUP2 PUSH2 0x3130 JUMP JUMPDEST PUSH2 0x3130 DUP4 DUP4 DUP2 MLOAD ISZERO PUSH2 0x3297 JUMPI DUP2 MLOAD DUP1 DUP4 PUSH1 0x20 ADD REVERT JUMPDEST DUP1 PUSH1 0x40 MLOAD PUSH3 0x461BCD PUSH1 0xE5 SHL DUP2 MSTORE PUSH1 0x4 ADD PUSH2 0x8C7 SWAP2 SWAP1 PUSH2 0x3C5C JUMP JUMPDEST POP DUP1 SLOAD PUSH1 0x0 DUP3 SSTORE PUSH1 0x2 MUL SWAP1 PUSH1 0x0 MSTORE PUSH1 0x20 PUSH1 0x0 KECCAK256 SWAP1 DUP2 ADD SWAP1 PUSH2 0x271E SWAP2 SWAP1 JUMPDEST DUP1 DUP3 GT ISZERO PUSH2 0x32E8 JUMPI PUSH1 0x0 DUP1 DUP3 SSTORE PUSH1 0x1 DUP3 ADD SSTORE PUSH1 0x2 ADD PUSH2 0x32CE JUMP JUMPDEST POP SWAP1 JUMP JUMPDEST PUSH1 0x1 PUSH1 0x1 PUSH1 0xA0 SHL SUB DUP2 AND DUP2 EQ PUSH2 0x271E JUMPI PUSH1 0x0 DUP1 REVERT JUMPDEST PUSH1 0x0 PUSH1 0x20 DUP3 DUP5 SUB SLT ISZERO PUSH2 0x3313 JUMPI PUSH1 0x0 DUP1 REVERT JUMPDEST DUP2 CALLDATALOAD PUSH2 0x2D40 DUP2 PUSH2 0x32EC JUMP JUMPDEST PUSH1 0x20 DUP1 DUP3 MSTORE DUP3 MLOAD DUP3 DUP3 ADD DUP2 SWAP1 MSTORE PUSH1 0x0 SWAP2 SWAP1 PUSH1 0x40 SWAP1 DUP2 DUP6 ADD SWAP1 DUP7 DUP5 ADD DUP6 JUMPDEST DUP3 DUP2 LT ISZERO PUSH2 0x338A JUMPI DUP2 MLOAD DUP1 MLOAD DUP6 MSTORE DUP7 DUP2 ADD MLOAD PUSH1 0x1 PUSH1 0x1 PUSH1 0x40 SHL SUB SWAP1 DUP2 AND DUP9 DUP8 ADD MSTORE DUP7 DUP3 ADD MLOAD PUSH1 0x1 PUSH1 0x1 PUSH1 0x80 SHL SUB AND DUP8 DUP8 ADD MSTORE PUSH1 0x60 SWAP2 DUP3 ADD MLOAD AND SWAP1 DUP6 ADD MSTORE PUSH1 0x80 SWAP1 SWAP4 ADD SWAP3 SWAP1 DUP6 ADD SWAP1 PUSH1 0x1 ADD PUSH2 0x333B JUMP JUMPDEST POP SWAP2 SWAP8 SWAP7 POP POP POP POP POP POP POP JUMP JUMPDEST PUSH1 0x0 DUP1 PUSH1 0x40 DUP4 DUP6 SUB SLT ISZERO PUSH2 0x33AA JUMPI PUSH1 0x0 DUP1 REVERT JUMPDEST DUP3 CALLDATALOAD SWAP2 POP PUSH1 0x20 DUP4 ADD CALLDATALOAD PUSH1 0x1 PUSH1 0x1 PUSH1 0x40 SHL SUB DUP2 GT ISZERO PUSH2 0x33C7 JUMPI PUSH1 0x0 DUP1 REVERT JUMPDEST DUP4 ADD PUSH1 0x40 DUP2 DUP7 SUB SLT ISZERO PUSH2 0x33D9 JUMPI PUSH1 0x0 DUP1 REVERT JUMPDEST DUP1 SWAP2 POP POP SWAP3 POP SWAP3 SWAP1 POP JUMP JUMPDEST PUSH1 0x0 DUP1 DUP4 PUSH1 0x1F DUP5 ADD SLT PUSH2 0x33F6 JUMPI PUSH1 0x0 DUP1 REVERT JUMPDEST POP DUP2 CALLDATALOAD PUSH1 0x1 PUSH1 0x1 PUSH1 0x40 SHL SUB DUP2 GT ISZERO PUSH2 0x340D JUMPI PUSH1 0x0 DUP1 REVERT JUMPDEST PUSH1 0x20 DUP4 ADD SWAP2 POP DUP4 PUSH1 0x20 DUP3 PUSH1 0x5 SHL DUP6 ADD ADD GT ISZERO PUSH2 0x3428 JUMPI PUSH1 0x0 DUP1 REVERT JUMPDEST SWAP3 POP SWAP3 SWAP1 POP JUMP JUMPDEST DUP1 CALLDATALOAD PUSH1 0x1 PUSH1 0x1 PUSH1 0x40 SHL SUB DUP2 AND DUP2 EQ PUSH2 0x3446 JUMPI PUSH1 0x0 DUP1 REVERT JUMPDEST SWAP2 SWAP1 POP JUMP JUMPDEST PUSH1 0x0 DUP1 PUSH1 0x0 PUSH1 0x40 DUP5 DUP7 SUB SLT ISZERO PUSH2 0x3460 JUMPI PUSH1 0x0 DUP1 REVERT JUMPDEST DUP4 CALLDATALOAD PUSH1 0x1 PUSH1 0x1 PUSH1 0x40 SHL SUB DUP2 GT ISZERO PUSH2 0x3476 JUMPI PUSH1 0x0 DUP1 REVERT JUMPDEST PUSH2 0x3482 DUP7 DUP3 DUP8 ADD PUSH2 0x33E4 JUMP JUMPDEST SWAP1 SWAP5 POP SWAP3 POP PUSH2 0x3495 SWAP1 POP PUSH1 0x20 DUP6 ADD PUSH2 0x342F JUMP JUMPDEST SWAP1 POP SWAP3 POP SWAP3 POP SWAP3 JUMP JUMPDEST PUSH1 0x0 DUP1 PUSH1 0x40 DUP4 DUP6 SUB SLT ISZERO PUSH2 0x34B1 JUMPI PUSH1 0x0 DUP1 REVERT JUMPDEST DUP3 CALLDATALOAD SWAP2 POP PUSH2 0x34C1 PUSH1 0x20 DUP5 ADD PUSH2 0x342F JUMP JUMPDEST SWAP1 POP SWAP3 POP SWAP3 SWAP1 POP JUMP JUMPDEST PUSH1 0x0 DUP1 PUSH1 0x40 DUP4 DUP6 SUB SLT ISZERO PUSH2 0x34DD JUMPI PUSH1 0x0 DUP1 REVERT JUMPDEST POP POP DUP1 CALLDATALOAD SWAP3 PUSH1 0x20 SWAP1 SWAP2 ADD CALLDATALOAD SWAP2 POP JUMP JUMPDEST DUP1 ISZERO ISZERO DUP2 EQ PUSH2 0x271E JUMPI PUSH1 0x0 DUP1 REVERT JUMPDEST PUSH1 0x0 DUP1 PUSH1 0x0 PUSH1 0x60 DUP5 DUP7 SUB SLT ISZERO PUSH2 0x350F JUMPI PUSH1 0x0 DUP1 REVERT JUMPDEST DUP4 CALLDATALOAD SWAP3 POP PUSH2 0x351F PUSH1 0x20 DUP6 ADD PUSH2 0x342F JUMP JUMPDEST SWAP2 POP PUSH1 0x40 DUP5 ADD CALLDATALOAD PUSH2 0x352F DUP2 PUSH2 0x34EC JUMP JUMPDEST DUP1 SWAP2 POP POP SWAP3 POP SWAP3 POP SWAP3 JUMP JUMPDEST PUSH1 0x0 DUP1 PUSH1 0x40 DUP4 DUP6 SUB SLT ISZERO PUSH2 0x354D JUMPI PUSH1 0x0 DUP1 REVERT JUMPDEST PUSH2 0x3556 DUP4 PUSH2 0x342F JUMP JUMPDEST SWAP2 POP PUSH2 0x34C1 PUSH1 0x20 DUP5 ADD PUSH2 0x342F JUMP JUMPDEST PUSH1 0x0 DUP1 PUSH1 0x0 PUSH1 0x40 DUP5 DUP7 SUB SLT ISZERO PUSH2 0x3579 JUMPI PUSH1 0x0 DUP1 REVERT JUMPDEST DUP4 CALLDATALOAD PUSH2 0x3584 DUP2 PUSH2 0x32EC JUMP JUMPDEST SWAP3 POP PUSH1 0x20 DUP5 ADD CALLDATALOAD PUSH1 0x1 PUSH1 0x1 PUSH1 0x40 SHL SUB DUP2 GT ISZERO PUSH2 0x359F JUMPI PUSH1 0x0 DUP1 REVERT JUMPDEST PUSH2 0x35AB DUP7 DUP3 DUP8 ADD PUSH2 0x33E4 JUMP JUMPDEST SWAP5 SWAP8 SWAP1 SWAP7 POP SWAP4 SWAP5 POP POP POP POP JUMP JUMPDEST PUSH1 0x0 PUSH1 0x20 DUP3 DUP5 SUB SLT ISZERO PUSH2 0x35CA JUMPI PUSH1 0x0 DUP1 REVERT JUMPDEST PUSH2 0x2D40 DUP3 PUSH2 0x342F JUMP JUMPDEST PUSH1 0x0 DUP1 PUSH1 0x40 DUP4 DUP6 SUB SLT ISZERO PUSH2 0x35E6 JUMPI PUSH1 0x0 DUP1 REVERT JUMPDEST DUP3 CALLDATALOAD PUSH2 0x3556 DUP2 PUSH2 0x32EC JUMP JUMPDEST PUSH1 0x0 DUP1 PUSH1 0x0 DUP1 PUSH1 0x80 DUP6 DUP8 SUB SLT ISZERO PUSH2 0x3607 JUMPI PUSH1 0x0 DUP1 REVERT JUMPDEST DUP5 CALLDATALOAD SWAP4 POP PUSH2 0x3617 PUSH1 0x20 DUP7 ADD PUSH2 0x342F JUMP JUMPDEST SWAP3 POP PUSH1 0x40 DUP6 ADD CALLDATALOAD PUSH2 0x3627 DUP2 PUSH2 0x34EC JUMP JUMPDEST SWAP2 POP PUSH1 0x60 DUP6 ADD CALLDATALOAD PUSH2 0x3637 DUP2 PUSH2 0x32EC JUMP JUMPDEST SWAP4 SWAP7 SWAP3 SWAP6 POP SWAP1 SWAP4 POP POP JUMP JUMPDEST PUSH1 0x0 DUP1 PUSH1 0x40 DUP4 DUP6 SUB SLT ISZERO PUSH2 0x3655 JUMPI PUSH1 0x0 DUP1 REVERT JUMPDEST DUP3 CALLDATALOAD PUSH2 0x3660 DUP2 PUSH2 0x32EC JUMP JUMPDEST SWAP5 PUSH1 0x20 SWAP4 SWAP1 SWAP4 ADD CALLDATALOAD SWAP4 POP POP POP JUMP JUMPDEST PUSH1 0x0 PUSH1 0x20 DUP3 DUP5 SUB SLT ISZERO PUSH2 0x3680 JUMPI PUSH1 0x0 DUP1 REVERT JUMPDEST DUP2 CALLDATALOAD PUSH1 0x1 PUSH1 0x1 PUSH1 0x80 SHL SUB DUP2 AND DUP2 EQ PUSH2 0x2D40 JUMPI PUSH1 0x0 DUP1 REVERT JUMPDEST PUSH4 0x4E487B71 PUSH1 0xE0 SHL PUSH1 0x0 MSTORE PUSH1 0x41 PUSH1 0x4 MSTORE PUSH1 0x24 PUSH1 0x0 REVERT JUMPDEST PUSH1 0x40 DUP1 MLOAD SWAP1 DUP2 ADD PUSH1 0x1 PUSH1 0x1 PUSH1 0x40 SHL SUB DUP2 GT DUP3 DUP3 LT OR ISZERO PUSH2 0x36CF JUMPI PUSH2 0x36CF PUSH2 0x3697 JUMP JUMPDEST PUSH1 0x40 MSTORE SWAP1 JUMP JUMPDEST PUSH1 0x40 MLOAD PUSH1 0x1F DUP3 ADD PUSH1 0x1F NOT AND DUP2 ADD PUSH1 0x1 PUSH1 0x1 PUSH1 0x40 SHL SUB DUP2 GT DUP3 DUP3 LT OR ISZERO PUSH2 0x36FD JUMPI PUSH2 0x36FD PUSH2 0x3697 JUMP JUMPDEST PUSH1 0x40 MSTORE SWAP2 SWAP1 POP JUMP JUMPDEST PUSH1 0x0 PUSH1 0x1 PUSH1 0x1 PUSH1 0x40 SHL SUB DUP3 GT ISZERO PUSH2 0x371E JUMPI PUSH2 0x371E PUSH2 0x3697 JUMP JUMPDEST POP PUSH1 0x5 SHL PUSH1 0x20 ADD SWAP1 JUMP JUMPDEST PUSH1 0x0 PUSH1 0x20 DUP1 DUP4 DUP6 SUB SLT ISZERO PUSH2 0x373B JUMPI PUSH1 0x0 DUP1 REVERT JUMPDEST DUP3 CALLDATALOAD PUSH1 0x1 PUSH1 0x1 PUSH1 0x40 SHL SUB DUP2 GT ISZERO PUSH2 0x3751 JUMPI PUSH1 0x0 DUP1 REVERT JUMPDEST DUP4 ADD PUSH1 0x1F DUP2 ADD DUP6 SGT PUSH2 0x3762 JUMPI PUSH1 0x0 DUP1 REVERT JUMPDEST DUP1 CALLDATALOAD PUSH2 0x3775 PUSH2 0x3770 DUP3 PUSH2 0x3705 JUMP JUMPDEST PUSH2 0x36D5 JUMP JUMPDEST DUP2 DUP2 MSTORE PUSH1 0x6 SWAP2 SWAP1 SWAP2 SHL DUP3 ADD DUP4 ADD SWAP1 DUP4 DUP2 ADD SWAP1 DUP8 DUP4 GT ISZERO PUSH2 0x3794 JUMPI PUSH1 0x0 DUP1 REVERT JUMPDEST SWAP3 DUP5 ADD SWAP3 JUMPDEST DUP3 DUP5 LT ISZERO PUSH2 0x3208 JUMPI PUSH1 0x40 DUP5 DUP10 SUB SLT ISZERO PUSH2 0x37B2 JUMPI PUSH1 0x0 DUP1 DUP2 REVERT JUMPDEST PUSH2 0x37BA PUSH2 0x36AD JUMP JUMPDEST DUP5 CALLDATALOAD PUSH2 0x37C5 DUP2 PUSH2 0x32EC JUMP JUMPDEST DUP2 MSTORE PUSH2 0x37D2 DUP6 DUP8 ADD PUSH2 0x342F JUMP JUMPDEST DUP2 DUP8 ADD MSTORE DUP3 MSTORE PUSH1 0x40 SWAP4 SWAP1 SWAP4 ADD SWAP3 SWAP1 DUP5 ADD SWAP1 PUSH2 0x3799 JUMP JUMPDEST PUSH1 0x0 PUSH1 0x40 DUP3 CALLDATASIZE SUB SLT ISZERO PUSH2 0x37FA JUMPI PUSH1 0x0 DUP1 REVERT JUMPDEST PUSH2 0x3802 PUSH2 0x36AD JUMP JUMPDEST DUP3 CALLDATALOAD PUSH2 0xFFFF DUP2 AND DUP2 EQ PUSH2 0x3814 JUMPI PUSH1 0x0 DUP1 REVERT JUMPDEST DUP2 MSTORE PUSH1 0x20 DUP4 DUP2 ADD CALLDATALOAD PUSH1 0x1 PUSH1 0x1 PUSH1 0x40 SHL SUB DUP2 GT ISZERO PUSH2 0x3830 JUMPI PUSH1 0x0 DUP1 REVERT JUMPDEST DUP5 ADD CALLDATASIZE PUSH1 0x1F DUP3 ADD SLT PUSH2 0x3841 JUMPI PUSH1 0x0 DUP1 REVERT JUMPDEST DUP1 CALLDATALOAD PUSH2 0x384F PUSH2 0x3770 DUP3 PUSH2 0x3705 JUMP JUMPDEST DUP2 DUP2 MSTORE PUSH1 0x5 SWAP2 SWAP1 SWAP2 SHL DUP3 ADD DUP4 ADD SWAP1 DUP4 DUP2 ADD SWAP1 CALLDATASIZE DUP4 GT ISZERO PUSH2 0x386E JUMPI PUSH1 0x0 DUP1 REVERT JUMPDEST SWAP3 DUP5 ADD SWAP3 JUMPDEST DUP3 DUP5 LT ISZERO PUSH2 0x388C JUMPI DUP4 CALLDATALOAD DUP3 MSTORE SWAP3 DUP5 ADD SWAP3 SWAP1 DUP5 ADD SWAP1 PUSH2 0x3873 JUMP JUMPDEST SWAP4 DUP6 ADD SWAP4 SWAP1 SWAP4 MSTORE POP SWAP2 SWAP5 SWAP4 POP POP POP POP JUMP JUMPDEST PUSH1 0x20 DUP1 DUP3 MSTORE PUSH1 0x10 SWAP1 DUP3 ADD MSTORE PUSH16 0x1B1BD8DAD95C881CDD5CDC195B991959 PUSH1 0x82 SHL PUSH1 0x40 DUP3 ADD MSTORE PUSH1 0x60 ADD SWAP1 JUMP JUMPDEST PUSH1 0x20 DUP1 DUP3 MSTORE PUSH1 0x11 SWAP1 DUP3 ADD MSTORE PUSH17 0x1B1BD8DAC81D1A5B59481A5B9D985B1A59 PUSH1 0x7A SHL PUSH1 0x40 DUP3 ADD MSTORE PUSH1 0x60 ADD SWAP1 JUMP JUMPDEST PUSH4 0x4E487B71 PUSH1 0xE0 SHL PUSH1 0x0 MSTORE PUSH1 0x32 PUSH1 0x4 MSTORE PUSH1 0x24 PUSH1 0x0 REVERT JUMPDEST PUSH4 0x4E487B71 PUSH1 0xE0 SHL PUSH1 0x0 MSTORE PUSH1 0x11 PUSH1 0x4 MSTORE PUSH1 0x24 PUSH1 0x0 REVERT JUMPDEST PUSH1 0x0 PUSH1 0x1 DUP3 ADD PUSH2 0x3930 JUMPI PUSH2 0x3930 PUSH2 0x3908 JUMP JUMPDEST POP PUSH1 0x1 ADD SWAP1 JUMP JUMPDEST DUP1 DUP3 ADD DUP1 DUP3 GT ISZERO PUSH2 0xD64 JUMPI PUSH2 0xD64 PUSH2 0x3908 JUMP JUMPDEST DUP2 DUP2 SUB DUP2 DUP2 GT ISZERO PUSH2 0xD64 JUMPI PUSH2 0xD64 PUSH2 0x3908 JUMP JUMPDEST PUSH1 0x0 PUSH1 0x20 DUP3 DUP5 SUB SLT ISZERO PUSH2 0x396F JUMPI PUSH1 0x0 DUP1 REVERT JUMPDEST DUP2 MLOAD PUSH2 0x2D40 DUP2 PUSH2 0x32EC JUMP JUMPDEST PUSH1 0x0 PUSH1 0x20 DUP3 DUP5 SUB SLT ISZERO PUSH2 0x398C JUMPI PUSH1 0x0 DUP1 REVERT JUMPDEST POP MLOAD SWAP2 SWAP1 POP JUMP JUMPDEST PUSH4 0x4E487B71 PUSH1 0xE0 SHL PUSH1 0x0 MSTORE PUSH1 0x31 PUSH1 0x4 MSTORE PUSH1 0x24 PUSH1 0x0 REVERT JUMPDEST PUSH1 0x1 PUSH1 0x1 PUSH1 0x40 SHL SUB DUP2 DUP2 AND DUP4 DUP3 AND ADD SWAP1 DUP1 DUP3 GT ISZERO PUSH2 0x39C9 JUMPI PUSH2 0x39C9 PUSH2 0x3908 JUMP JUMPDEST POP SWAP3 SWAP2 POP POP JUMP JUMPDEST PUSH1 0x20 DUP1 DUP3 MSTORE PUSH1 0x1E SWAP1 DUP3 ADD MSTORE PUSH32 0x63616E6E6F74206D6F76652074686520756E6C6F636B2074696D652075700000 PUSH1 0x40 DUP3 ADD MSTORE PUSH1 0x60 ADD SWAP1 JUMP JUMPDEST PUSH1 0x1 PUSH1 0x1 PUSH1 0x80 SHL SUB DUP2 DUP2 AND DUP4 DUP3 AND ADD SWAP1 DUP1 DUP3 GT ISZERO PUSH2 0x39C9 JUMPI PUSH2 0x39C9 PUSH2 0x3908 JUMP JUMPDEST PUSH1 0x1 PUSH1 0x1 PUSH1 0x80 SHL SUB DUP3 DUP2 AND DUP3 DUP3 AND SUB SWAP1 DUP1 DUP3 GT ISZERO PUSH2 0x39C9 JUMPI PUSH2 0x39C9 PUSH2 0x3908 JUMP JUMPDEST PUSH4 0x4E487B71 PUSH1 0xE0 SHL PUSH1 0x0 MSTORE PUSH1 0x12 PUSH1 0x4 MSTORE PUSH1 0x24 PUSH1 0x0 REVERT JUMPDEST PUSH1 0x0 PUSH2 0xFFFF DUP1 DUP5 AND DUP1 PUSH2 0x3A72 JUMPI PUSH2 0x3A72 PUSH2 0x3A47 JUMP JUMPDEST SWAP3 AND SWAP2 SWAP1 SWAP2 MOD SWAP3 SWAP2 POP POP JUMP JUMPDEST PUSH1 0x0 PUSH2 0xFFFF DUP1 DUP5 AND DUP1 PUSH2 0x3A93 JUMPI PUSH2 0x3A93 PUSH2 0x3A47 JUMP JUMPDEST SWAP3 AND SWAP2 SWAP1 SWAP2 DIV SWAP3 SWAP2 POP POP JUMP JUMPDEST PUSH1 0x1 DUP2 DUP2 JUMPDEST DUP1 DUP6 GT ISZERO PUSH2 0x3ADA JUMPI DUP2 PUSH1 0x0 NOT DIV DUP3 GT ISZERO PUSH2 0x3AC0 JUMPI PUSH2 0x3AC0 PUSH2 0x3908 JUMP JUMPDEST DUP1 DUP6 AND ISZERO PUSH2 0x3ACD JUMPI SWAP2 DUP2 MUL SWAP2 JUMPDEST SWAP4 DUP5 SHR SWAP4 SWAP1 DUP1 MUL SWAP1 PUSH2 0x3AA4 JUMP JUMPDEST POP SWAP3 POP SWAP3 SWAP1 POP JUMP JUMPDEST PUSH1 0x0 DUP3 PUSH2 0x3AF1 JUMPI POP PUSH1 0x1 PUSH2 0xD64 JUMP JUMPDEST DUP2 PUSH2 0x3AFE JUMPI POP PUSH1 0x0 PUSH2 0xD64 JUMP JUMPDEST DUP2 PUSH1 0x1 DUP2 EQ PUSH2 0x3B14 JUMPI PUSH1 0x2 DUP2 EQ PUSH2 0x3B1E JUMPI PUSH2 0x3B3A JUMP JUMPDEST PUSH1 0x1 SWAP2 POP POP PUSH2 0xD64 JUMP JUMPDEST PUSH1 0xFF DUP5 GT ISZERO PUSH2 0x3B2F JUMPI PUSH2 0x3B2F PUSH2 0x3908 JUMP JUMPDEST POP POP PUSH1 0x1 DUP3 SHL PUSH2 0xD64 JUMP JUMPDEST POP PUSH1 0x20 DUP4 LT PUSH2 0x133 DUP4 LT AND PUSH1 0x4E DUP5 LT PUSH1 0xB DUP5 LT AND OR ISZERO PUSH2 0x3B5D JUMPI POP DUP2 DUP2 EXP PUSH2 0xD64 JUMP JUMPDEST PUSH2 0x3B67 DUP4 DUP4 PUSH2 0x3A9F JUMP JUMPDEST DUP1 PUSH1 0x0 NOT DIV DUP3 GT ISZERO PUSH2 0x3B7B JUMPI PUSH2 0x3B7B PUSH2 0x3908 JUMP JUMPDEST MUL SWAP4 SWAP3 POP POP POP JUMP JUMPDEST PUSH1 0x0 PUSH2 0x2D40 DUP4 DUP4 PUSH2 0x3AE2 JUMP JUMPDEST DUP1 DUP3 MUL DUP2 ISZERO DUP3 DUP3 DIV DUP5 EQ OR PUSH2 0xD64 JUMPI PUSH2 0xD64 PUSH2 0x3908 JUMP JUMPDEST PUSH1 0x0 DUP3 PUSH2 0x3BB5 JUMPI PUSH2 0x3BB5 PUSH2 0x3A47 JUMP JUMPDEST POP DIV SWAP1 JUMP JUMPDEST PUSH1 0x1 PUSH1 0x1 PUSH1 0x80 SHL SUB DUP2 DUP2 AND DUP4 DUP3 AND MUL DUP1 DUP3 AND SWAP2 SWAP1 DUP3 DUP2 EQ PUSH2 0x3BDD JUMPI PUSH2 0x3BDD PUSH2 0x3908 JUMP JUMPDEST POP POP SWAP3 SWAP2 POP POP JUMP JUMPDEST PUSH1 0x0 PUSH1 0x1 PUSH1 0x1 PUSH1 0x80 SHL SUB DUP1 DUP5 AND DUP1 PUSH2 0x3A93 JUMPI PUSH2 0x3A93 PUSH2 0x3A47 JUMP JUMPDEST PUSH1 0x0 PUSH1 0x20 DUP3 DUP5 SUB SLT ISZERO PUSH2 0x3C11 JUMPI PUSH1 0x0 DUP1 REVERT JUMPDEST DUP2 MLOAD PUSH2 0x2D40 DUP2 PUSH2 0x34EC JUMP JUMPDEST PUSH1 0x0 JUMPDEST DUP4 DUP2 LT ISZERO PUSH2 0x3C37 JUMPI DUP2 DUP2 ADD MLOAD DUP4 DUP3 ADD MSTORE PUSH1 0x20 ADD PUSH2 0x3C1F JUMP JUMPDEST POP POP PUSH1 0x0 SWAP2 ADD MSTORE JUMP JUMPDEST PUSH1 0x0 DUP3 MLOAD PUSH2 0x3C52 DUP2 DUP5 PUSH1 0x20 DUP8 ADD PUSH2 0x3C1C JUMP JUMPDEST SWAP2 SWAP1 SWAP2 ADD SWAP3 SWAP2 POP POP JUMP JUMPDEST PUSH1 0x20 DUP2 MSTORE PUSH1 0x0 DUP3 MLOAD DUP1 PUSH1 0x20 DUP5 ADD MSTORE PUSH2 0x3C7B DUP2 PUSH1 0x40 DUP6 ADD PUSH1 0x20 DUP8 ADD PUSH2 0x3C1C JUMP JUMPDEST PUSH1 0x1F ADD PUSH1 0x1F NOT AND SWAP2 SWAP1 SWAP2 ADD PUSH1 0x40 ADD SWAP3 SWAP2 POP POP JUMP INVALID LOG2 PUSH5 0x6970667358 0x22 SLT KECCAK256 GT EXP 0x4A SIGNEXTEND 0xDC 0xB2 LOG3 CALLVALUE LOG3 DUP11 SGT 0x27 0xBC SWAP10 0x5E DUP5 PUSH15 0xA2733286B8C500341B4B85048B6E71 PUSH5 0x736F6C6343 STOP ADDMOD GT STOP CALLER ","sha1":"f71cfc1764de9480866faf1b8de72582aed73a93","source":"// SPDX-License-Identifier: GPL-3.0-or-later\npragma solidity 0.8.17;\n\nimport \"@openzeppelin/contracts/token/ERC20/utils/SafeERC20.sol\";\nimport \"@openzeppelin/contracts/token/ERC20/IERC20.sol\";\nimport \"@openzeppelin/contracts/access/Ownable.sol\";\n\nimport \"../../libraries/ScaledMath.sol\";\nimport \"../../interfaces/tokenomics/ICNCLockerV3.sol\";\nimport \"../../interfaces/tokenomics/ICNCToken.sol\";\nimport \"../../interfaces/tokenomics/ICNCVoteLocker.sol\";\nimport \"../../interfaces/IController.sol\";\n\ncontract CNCLockerV3 is ICNCLockerV3, Ownable {\n    using SafeERC20 for ICNCToken;\n    using SafeERC20 for IERC20;\n    using ScaledMath for uint256;\n    using ScaledMath for uint128;\n    using MerkleProof for MerkleProof.Proof;\n\n    uint128 internal constant _MIN_LOCK_AMOUNT = 10e18;\n    uint128 internal constant _MAX_LOCKS = 10;\n    uint128 internal constant _MIN_LOCK_TIME = 120 days;\n    uint128 internal constant _MAX_LOCK_TIME = 240 days;\n    uint128 internal constant _GRACE_PERIOD = 28 days;\n    uint128 internal constant _MIN_BOOST = 1e18;\n    uint128 internal constant _MAX_BOOST = 1.5e18;\n    uint128 internal constant _KICK_PENALTY = 1e17;\n    uint256 internal constant _MAX_KICK_PENALTY_AMOUNT = 1000e18;\n    uint128 constant _AIRDROP_DURATION = 182 days;\n    uint256 internal constant _MIN_AIRDROP_BOOST = 1e18;\n    uint256 internal constant _MAX_AIRDROP_BOOST = 3.5e18;\n\n    ICNCToken public immutable cncToken;\n\n    // Boost data\n    mapping(address => uint256) public lockedBalance;\n    mapping(address => uint256) public lockedBoosted;\n    mapping(address => VoteLock[]) public voteLocks;\n    mapping(address => uint256) internal _airdroppedBoost;\n    mapping(address => bool) public override claimedAirdrop;\n    uint64 internal _nextId;\n    uint256 public immutable airdropEndTime;\n    bytes32 public immutable merkleRoot;\n    uint256 public totalLocked;\n    uint256 public totalBoosted;\n    bool public isShutdown;\n\n    // Fee data\n    IERC20 public immutable crv;\n    IERC20 public immutable cvx;\n    uint256 public accruedFeesIntegralCrv;\n    uint256 public accruedFeesIntegralCvx;\n    mapping(address => uint256) public perAccountAccruedCrv;\n    mapping(address => uint256) public perAccountFeesCrv;\n    mapping(address => uint256) public perAccountAccruedCvx;\n    mapping(address => uint256) public perAccountFeesCvx;\n\n    address public immutable treasury;\n    IController public immutable controller;\n\n    constructor(\n        address _controller,\n        address _cncToken,\n        address _treasury,\n        address _crv,\n        address _cvx,\n        bytes32 _merkleRoot\n    ) Ownable() {\n        controller = IController(_controller);\n        cncToken = ICNCToken(_cncToken);\n        treasury = _treasury;\n        crv = IERC20(_crv);\n        cvx = IERC20(_cvx);\n        airdropEndTime = block.timestamp + _AIRDROP_DURATION;\n        merkleRoot = _merkleRoot;\n    }\n\n    function lock(uint256 amount, uint64 lockTime) external override {\n        lock(amount, lockTime, false);\n    }\n\n    /// @notice Lock an amount of CNC for vlCNC.\n    /// @param amount Amount of CNC to lock.\n    /// @param lockTime Duration of the lock.\n    /// @param relock_ `True` if this is a relock of an existing lock.\n    function lock(uint256 amount, uint64 lockTime, bool relock_) public override {\n        lockFor(amount, lockTime, relock_, msg.sender);\n    }\n\n    /// @notice Lock an amount of CNC for vlCNC.\n    /// @param amount Amount of CNC to lock.\n    /// @param lockTime Duration of the lock.\n    /// @param relock_ `True` if this is a relock of all existing locks.\n    /// @param account The account to receive the vlCNC.\n    function lockFor(\n        uint256 amount,\n        uint64 lockTime,\n        bool relock_,\n        address account\n    ) public override {\n        require(!isShutdown, \"locker suspended\");\n        require(amount >= _MIN_LOCK_AMOUNT, \"amount too small\");\n        require((_MIN_LOCK_TIME <= lockTime) && (lockTime <= _MAX_LOCK_TIME), \"lock time invalid\");\n        require(!relock_ || msg.sender == account, \"relock only for self\");\n        require(voteLocks[account].length < _MAX_LOCKS, \"too many locks\");\n        _feeCheckpoint(account);\n        cncToken.safeTransferFrom(msg.sender, address(this), amount);\n\n        uint128 boost = computeBoost(lockTime);\n\n        uint256 airdropBoost_ = airdropBoost(msg.sender);\n        if (airdropBoost_ > 1e18) {\n            claimedAirdrop[msg.sender] = true;\n            boost = boost.mulDownUint128(uint128(airdropBoost_));\n            delete _airdroppedBoost[msg.sender];\n        }\n\n        uint64 unlockTime = uint64(block.timestamp) + lockTime;\n        uint256 boostedAmount;\n\n        if (relock_) {\n            uint256 length = voteLocks[account].length;\n            for (uint256 i; i < length; i++) {\n                require(\n                    voteLocks[account][i].unlockTime < unlockTime,\n                    \"cannot move the unlock time up\"\n                );\n            }\n            delete voteLocks[account];\n            totalBoosted -= lockedBoosted[account];\n            lockedBoosted[account] = 0;\n            _addVoteLock(account, lockedBalance[account] + amount, unlockTime, boost);\n            boostedAmount = (lockedBalance[account] + amount).mulDown(uint256(boost));\n        } else {\n            _addVoteLock(account, amount, unlockTime, boost);\n            boostedAmount = amount.mulDown(boost);\n        }\n        totalLocked += amount;\n        totalBoosted += boostedAmount;\n        lockedBalance[account] += amount;\n        lockedBoosted[account] += boostedAmount;\n        emit Locked(account, amount, unlockTime, relock_);\n    }\n\n    /// @notice Process all expired locks of msg.sender and withdraw unlocked CNC.\n    function executeAvailableUnlocks() external override returns (uint256) {\n        return executeAvailableUnlocksFor(msg.sender);\n    }\n\n    /// @notice Process all expired locks of msg.sender and withdraw unlocked CNC to `dst`.\n    function executeAvailableUnlocksFor(address dst) public override returns (uint256) {\n        require(dst != address(0), \"invalid destination\");\n        _feeCheckpoint(msg.sender);\n        uint256 sumUnlockable;\n        uint256 sumBoosted;\n        VoteLock[] storage _pending = voteLocks[msg.sender];\n        uint256 i = _pending.length;\n        while (i > 0) {\n            i = i - 1;\n\n            if (isShutdown || _pending[i].unlockTime <= block.timestamp) {\n                sumUnlockable += _pending[i].amount;\n                sumBoosted += _pending[i].amount.mulDown(_pending[i].boost);\n                _pending[i] = _pending[_pending.length - 1];\n                _pending.pop();\n            }\n        }\n        totalLocked -= sumUnlockable;\n        totalBoosted -= sumBoosted;\n        lockedBalance[msg.sender] -= sumUnlockable;\n        lockedBoosted[msg.sender] -= sumBoosted;\n        cncToken.safeTransfer(dst, sumUnlockable);\n        emit UnlockExecuted(msg.sender, sumUnlockable);\n        return sumUnlockable;\n    }\n\n    /// @notice Process specified locks of msg.sender and withdraw unlocked CNC to `dst`.\n    /// @param dst Destination address to receive unlocked CNC.\n    /// @param lockIds Array of lock IDs to process.\n    /// @return unlocked Amount of CNC unlocked.\n    function executeUnlocks(\n        address dst,\n        uint64[] calldata lockIds\n    ) public override returns (uint256) {\n        _feeCheckpoint(msg.sender);\n        uint256 sumUnlockable;\n        uint256 sumBoosted;\n        VoteLock[] storage _pending = voteLocks[msg.sender];\n        for (uint256 idIndex; idIndex < lockIds.length; idIndex++) {\n            uint256 index = _getLockIndexById(msg.sender, lockIds[idIndex]);\n            require(\n                isShutdown || _pending[index].unlockTime <= block.timestamp,\n                \"lock not expired\"\n            );\n            sumUnlockable += _pending[index].amount;\n            sumBoosted += _pending[index].amount.mulDown(_pending[index].boost);\n            _pending[index] = _pending[_pending.length - 1];\n            _pending.pop();\n        }\n        totalLocked -= sumUnlockable;\n        totalBoosted -= sumBoosted;\n        lockedBalance[msg.sender] -= sumUnlockable;\n        lockedBoosted[msg.sender] -= sumBoosted;\n        cncToken.safeTransfer(dst, sumUnlockable);\n        emit UnlockExecuted(msg.sender, sumUnlockable);\n        return sumUnlockable;\n    }\n\n    /// @notice Get unlocked CNC balance for an address\n    /// @param user Address to get unlocked CNC balance for\n    /// @return Unlocked CNC balance\n    function unlockableBalance(address user) public view override returns (uint256) {\n        uint256 sumUnlockable = 0;\n        VoteLock[] storage _pending = voteLocks[user];\n        uint256 length = _pending.length;\n        for (uint256 i; i < length; i++) {\n            if (_pending[i].unlockTime <= uint128(block.timestamp)) {\n                sumUnlockable += _pending[i].amount;\n            }\n        }\n        return sumUnlockable;\n    }\n\n    /// @notice Get unlocked boosted CNC balance for an address\n    /// @param user Address to get unlocked boosted CNC balance for\n    /// @return Unlocked boosted CNC balance\n    function unlockableBalanceBoosted(address user) public view override returns (uint256) {\n        uint256 sumUnlockable = 0;\n        VoteLock[] storage _pending = voteLocks[user];\n        uint256 length = _pending.length;\n        for (uint256 i; i < length; i++) {\n            if (_pending[i].unlockTime <= uint128(block.timestamp)) {\n                sumUnlockable += _pending[i].amount.mulDown(_pending[i].boost);\n            }\n        }\n        return sumUnlockable;\n    }\n\n    function shutDown() external override onlyOwner {\n        require(!isShutdown, \"locker already suspended\");\n        isShutdown = true;\n        emit Shutdown();\n    }\n\n    function recoverToken(address token) external override {\n        require(\n            token != address(cncToken) && token != address(crv) && token != address(cvx),\n            \"cannot withdraw token\"\n        );\n        IERC20 _token = IERC20(token);\n        _token.safeTransfer(treasury, _token.balanceOf(address(this)));\n        emit TokenRecovered(token);\n    }\n\n    /// @notice Relock a specific lock\n    /// @dev Users locking CNC can create multiple locks therefore individual locks can be relocked separately.\n    /// @param lockId Id of the lock to relock.\n    /// @param lockTime Duration for which the locks's CNC amount should be relocked for.\n    function relock(uint64 lockId, uint64 lockTime) external override {\n        require(!isShutdown, \"locker suspended\");\n        require((_MIN_LOCK_TIME <= lockTime) && (lockTime <= _MAX_LOCK_TIME), \"lock time invalid\");\n        _feeCheckpoint(msg.sender);\n        _relock(lockId, lockTime);\n    }\n\n    /// @notice Relock specified locks\n    /// @param lockIds Ids of the locks to relock.\n    /// @param lockTime Duration for which the locks's CNC amount should be relocked for.\n    function relockMultiple(uint64[] calldata lockIds, uint64 lockTime) external override {\n        require(!isShutdown, \"locker suspended\");\n        require((_MIN_LOCK_TIME <= lockTime) && (lockTime <= _MAX_LOCK_TIME), \"lock time invalid\");\n        _feeCheckpoint(msg.sender);\n        for (uint256 i; i < lockIds.length; i++) {\n            _relock(lockIds[i], lockTime);\n        }\n    }\n\n    function _relock(uint64 lockId, uint64 lockTime) internal {\n        uint256 lockIndex = _getLockIndexById(msg.sender, lockId);\n\n        uint128 boost = computeBoost(lockTime);\n\n        uint64 unlockTime = uint64(block.timestamp) + lockTime;\n\n        VoteLock[] storage locks = voteLocks[msg.sender];\n        require(locks[lockIndex].unlockTime < unlockTime, \"cannot move the unlock time up\");\n        uint256 amount = locks[lockIndex].amount;\n        uint256 previousBoostedAmount = locks[lockIndex].amount.mulDown(locks[lockIndex].boost);\n        locks[lockIndex] = locks[locks.length - 1];\n        locks.pop();\n\n        _addVoteLock(msg.sender, amount, unlockTime, boost);\n        uint256 boostedAmount = amount.mulDown(boost);\n\n        totalBoosted = totalBoosted + boostedAmount - previousBoostedAmount;\n        lockedBoosted[msg.sender] =\n            lockedBoosted[msg.sender] +\n            boostedAmount -\n            previousBoostedAmount;\n\n        emit Relocked(msg.sender, amount);\n    }\n\n    function relock(uint64 lockTime) external override {\n        require(!isShutdown, \"locker suspended\");\n        require((_MIN_LOCK_TIME <= lockTime) && (lockTime <= _MAX_LOCK_TIME), \"lock time invalid\");\n        _feeCheckpoint(msg.sender);\n\n        uint128 boost = computeBoost(lockTime);\n\n        uint64 unlockTime = uint64(block.timestamp) + lockTime;\n\n        uint256 length = voteLocks[msg.sender].length;\n        for (uint256 i; i < length; i++) {\n            require(\n                voteLocks[msg.sender][i].unlockTime < unlockTime,\n                \"cannot move the unlock time up\"\n            );\n        }\n        delete voteLocks[msg.sender];\n        totalBoosted -= lockedBoosted[msg.sender];\n        lockedBoosted[msg.sender] = 0;\n        _addVoteLock(msg.sender, lockedBalance[msg.sender], unlockTime, boost);\n        uint256 boostedAmount = lockedBalance[msg.sender].mulDown(uint256(boost));\n        totalBoosted += boostedAmount;\n        lockedBoosted[msg.sender] += boostedAmount;\n        emit Relocked(msg.sender, lockedBalance[msg.sender]);\n    }\n\n    function batchKick(LockId[] memory locks) external override {\n        for (uint256 i; i < locks.length; i++) {\n            kick(locks[i].user, locks[i].id);\n        }\n    }\n\n    /// @notice Kick an expired lock\n    function kick(address user, uint64 lockId) public override {\n        uint256 lockIndex = _getLockIndexById(user, lockId);\n        VoteLock[] storage _pending = voteLocks[user];\n        require(\n            _pending[lockIndex].unlockTime + _GRACE_PERIOD <= uint128(block.timestamp),\n            \"cannot kick this lock\"\n        );\n        _feeCheckpoint(user);\n        uint256 amount = _pending[lockIndex].amount;\n        totalLocked -= amount;\n        totalBoosted -= amount.mulDown(_pending[lockIndex].boost);\n        lockedBalance[user] -= amount;\n        lockedBoosted[user] -= amount.mulDown(_pending[lockIndex].boost);\n        uint256 kickPenalty = amount.mulDown(_KICK_PENALTY);\n        if (kickPenalty > _MAX_KICK_PENALTY_AMOUNT) {\n            kickPenalty = _MAX_KICK_PENALTY_AMOUNT;\n        }\n        cncToken.safeTransfer(user, amount - kickPenalty);\n        cncToken.safeTransfer(msg.sender, kickPenalty);\n        emit KickExecuted(user, msg.sender, amount);\n        _pending[lockIndex] = _pending[_pending.length - 1];\n        _pending.pop();\n    }\n\n    function receiveFees(uint256 amountCrv, uint256 amountCvx) external override {\n        crv.safeTransferFrom(msg.sender, address(this), amountCrv);\n        cvx.safeTransferFrom(msg.sender, address(this), amountCvx);\n        accruedFeesIntegralCrv += amountCrv.divDown(totalBoosted);\n        accruedFeesIntegralCvx += amountCvx.divDown(totalBoosted);\n        emit FeesReceived(msg.sender, amountCrv, amountCvx);\n    }\n\n    function claimFees() external override returns (uint256 crvAmount, uint256 cvxAmount) {\n        _feeCheckpoint(msg.sender);\n        crvAmount = perAccountFeesCrv[msg.sender];\n        cvxAmount = perAccountFeesCvx[msg.sender];\n        crv.safeTransfer(msg.sender, crvAmount);\n        cvx.safeTransfer(msg.sender, cvxAmount);\n        perAccountFeesCrv[msg.sender] = 0;\n        perAccountFeesCvx[msg.sender] = 0;\n        emit FeesClaimed(msg.sender, crvAmount, cvxAmount);\n    }\n\n    function claimAirdropBoost(uint256 amount, MerkleProof.Proof calldata proof) external override {\n        require(block.timestamp < airdropEndTime, \"airdrop ended\");\n        require(!claimedAirdrop[msg.sender], \"already claimed\");\n        require(amount >= _MIN_AIRDROP_BOOST, \"amount cannot be below 1\");\n        require(amount <= _MAX_AIRDROP_BOOST, \"amount exceeds max airdrop boost\");\n        bytes32 node = keccak256(abi.encodePacked(msg.sender, amount));\n        require(proof.isValid(node, merkleRoot), \"invalid proof\");\n        _airdroppedBoost[msg.sender] = amount;\n        emit AirdropBoostClaimed(msg.sender, amount);\n    }\n\n    function claimableFees(\n        address account\n    ) external view override returns (uint256 claimableCrv, uint256 claimableCvx) {\n        uint256 boost_ = lockedBoosted[account];\n        claimableCrv =\n            perAccountFeesCrv[account] +\n            boost_.mulDown(accruedFeesIntegralCrv - perAccountAccruedCrv[account]);\n        claimableCvx =\n            perAccountFeesCvx[account] +\n            boost_.mulDown(accruedFeesIntegralCvx - perAccountAccruedCvx[account]);\n    }\n\n    function balanceOf(address user) external view override returns (uint256) {\n        return totalVoteBoost(user);\n    }\n\n    function _feeCheckpoint(address account) internal {\n        uint256 boost_ = lockedBoosted[account];\n        uint256 accruedFeesIntegralCrv_ = accruedFeesIntegralCrv;\n        uint256 accruedFeesIntegralCvx_ = accruedFeesIntegralCvx;\n\n        perAccountFeesCrv[account] += boost_.mulDown(\n            accruedFeesIntegralCrv_ - perAccountAccruedCrv[account]\n        );\n        perAccountAccruedCrv[account] = accruedFeesIntegralCrv_;\n        perAccountFeesCvx[account] += boost_.mulDown(\n            accruedFeesIntegralCvx_ - perAccountAccruedCvx[account]\n        );\n        perAccountAccruedCvx[account] = accruedFeesIntegralCvx_;\n\n        // bonding stream\n        IBonding bonding = controller.bonding();\n        bonding.accountCheckpoint(account);\n    }\n\n    function computeBoost(uint128 lockTime) public pure override returns (uint128) {\n        return ((_MAX_BOOST - _MIN_BOOST).mulDownUint128(\n            (lockTime - _MIN_LOCK_TIME).divDownUint128(_MAX_LOCK_TIME - _MIN_LOCK_TIME)\n        ) + _MIN_BOOST);\n    }\n\n    function airdropBoost(address account) public view override returns (uint256) {\n        if (_airdroppedBoost[account] == 0) return 1e18;\n        return _airdroppedBoost[account];\n    }\n\n    function totalVoteBoost(address account) public view override returns (uint256) {\n        return totalRewardsBoost(account).mulDown(controller.lpTokenStaker().getBoost(account));\n    }\n\n    function totalStreamBoost(address account) external view override returns (uint256) {\n        return lockedBoosted[account];\n    }\n\n    function totalRewardsBoost(address account) public view override returns (uint256) {\n        return lockedBoosted[account] - unlockableBalanceBoosted(account);\n    }\n\n    function userLocks(address account) external view override returns (VoteLock[] memory) {\n        return voteLocks[account];\n    }\n\n    function _getLockIndexById(address user, uint64 id) internal view returns (uint256) {\n        uint256 length_ = voteLocks[user].length;\n        for (uint256 i; i < length_; i++) {\n            if (voteLocks[user][i].id == id) {\n                return i;\n            }\n        }\n        revert(\"lock doesn't exist\");\n    }\n\n    function _addVoteLock(address user, uint256 amount, uint64 unlockTime, uint128 boost) internal {\n        uint64 id = _nextId;\n        voteLocks[user].push(VoteLock(amount, unlockTime, boost, id));\n        _nextId = id + 1;\n    }\n}\n","sourcePath":"contracts/tokenomics/CNCLockerV3.sol","type":"contract","deployment":{"address":"0x8b318d1d27ee1E4329d88F0c1E9bc3A1025B2c93","chainid":"1","blockHeight":19069019}}