{"abi":[{"inputs":[{"internalType":"address","name":"controller_","type":"address"}],"stateMutability":"nonpayable","type":"constructor","name":"constructor"},{"inputs":[{"internalType":"address","name":"_curvePool","type":"address"},{"internalType":"address","name":"_token","type":"address"},{"internalType":"uint256","name":"_amount","type":"uint256"}],"name":"deposit","outputs":[],"stateMutability":"nonpayable","type":"function"},{"inputs":[{"internalType":"address","name":"_curvePool","type":"address"},{"internalType":"address","name":"_token","type":"address"},{"internalType":"uint256","name":"_amount","type":"uint256"}],"name":"withdraw","outputs":[],"stateMutability":"nonpayable","type":"function"}],"bytecode":"60a060405234801561001057600080fd5b50604051620022c0380380620022c083398101604081905261003191610042565b6001600160a01b0316608052610072565b60006020828403121561005457600080fd5b81516001600160a01b038116811461006b57600080fd5b9392505050565b608051612209620000b7600039600081816067015281816103b8015281816107200152818161085a01528181610f040152818161102b015261130f01526122096000f3fe608060405234801561001057600080fd5b50600436106100365760003560e01c80638340f5491461003b578063d9caed1214610050575b600080fd5b61004e610049366004611cc7565b610063565b005b61004e61005e366004611cc7565b6103b4565b60007f00000000000000000000000000000000000000000000000000000000000000006001600160a01b0316639f82b2176040518163ffffffff1660e01b8152600401602060405180830381865afa1580156100c3573d6000803e3d6000fd5b505050506040513d601f19601f820116820180604052508101906100e79190611d08565b905060006100f585856106f5565b9050816001600160a01b031663b677560f86836101125786610128565b73eeeeeeeeeeeeeeeeeeeeeeeeeeeeeeeeeeeeeeee5b6040516001600160e01b031960e085901b1681526001600160a01b03928316600482015291166024820152604401602060405180830381865afa158015610173573d6000803e3d6000fd5b505050506040513d601f19601f820116820180604052508101906101979190611d25565b6103a2576040516339d16a2360e11b81526001600160a01b038681166004830152600091908416906373a2d44690602401602060405180830381865afa1580156101e5573d6000803e3d6000fd5b505050506040513d601f19601f820116820180604052508101906102099190611d08565b90506001600160a01b03811661023a5760405162461bcd60e51b815260040161023190611d57565b60405180910390fd5b604051631da958a960e21b81526001600160a01b038281166004830152600091908516906376a562a490602401602060405180830381865afa158015610284573d6000803e3d6000fd5b505050506040513d601f19601f820116820180604052508101906102a89190611d08565b6040516370a0823160e01b81523060048201529091506000906001600160a01b038316906370a0823190602401602060405180830381865afa1580156102f2573d6000803e3d6000fd5b505050506040513d601f19601f820116820180604052508101906103169190611d9b565b905061032383878961082f565b6040516370a0823160e01b8152306004820152919650869181906001600160a01b038416906370a0823190602401602060405180830381865afa15801561036e573d6000803e3d6000fd5b505050506040513d601f19601f820116820180604052508101906103929190611d9b565b61039c9190611dca565b95505050505b6103ad85848661082f565b5050505050565b60007f00000000000000000000000000000000000000000000000000000000000000006001600160a01b0316639f82b2176040518163ffffffff1660e01b8152600401602060405180830381865afa158015610414573d6000803e3d6000fd5b505050506040513d601f19601f820116820180604052508101906104389190611d08565b9050600061044685856106f5565b9050816001600160a01b031663b677560f86836104635786610479565b73eeeeeeeeeeeeeeeeeeeeeeeeeeeeeeeeeeeeeeee5b6040516001600160e01b031960e085901b1681526001600160a01b03928316600482015291166024820152604401602060405180830381865afa1580156104c4573d6000803e3d6000fd5b505050506040513d601f19601f820116820180604052508101906104e89190611d25565b6106ea576040516339d16a2360e11b81526001600160a01b038681166004830152600091908416906373a2d44690602401602060405180830381865afa158015610536573d6000803e3d6000fd5b505050506040513d601f19601f8201168201806040525081019061055a9190611d08565b90506001600160a01b0381166105825760405162461bcd60e51b815260040161023190611d57565b604051631da958a960e21b81526001600160a01b038281166004830152600091908516906376a562a490602401602060405180830381865afa1580156105cc573d6000803e3d6000fd5b505050506040513d601f19601f820116820180604052508101906105f09190611d08565b6040516370a0823160e01b81523060048201529091506000906001600160a01b038316906370a0823190602401602060405180830381865afa15801561063a573d6000803e3d6000fd5b505050506040513d601f19601f8201168201806040525081019061065e9190611d9b565b905061066b888784610ef2565b6040516370a0823160e01b8152306004820152929750879281906001600160a01b038416906370a0823190602401602060405180830381865afa1580156106b6573d6000803e3d6000fd5b505050506040513d601f19601f820116820180604052508101906106da9190611d9b565b6106e49190611dca565b95505050505b6103ad858486610ef2565b60006001600160a01b03821673c02aaa39b223fe8d0a0e5c4f27ead9083c756cc214801561082657507f00000000000000000000000000000000000000000000000000000000000000006001600160a01b0316639f82b2176040518163ffffffff1660e01b8152600401602060405180830381865afa15801561077c573d6000803e3d6000fd5b505050506040513d601f19601f820116820180604052508101906107a09190611d08565b60405163b677560f60e01b81526001600160a01b03858116600483015273eeeeeeeeeeeeeeeeeeeeeeeeeeeeeeeeeeeeeeee6024830152919091169063b677560f90604401602060405180830381865afa158015610802573d6000803e3d6000fd5b505050506040513d601f19601f820116820180604052508101906108269190611d25565b90505b92915050565b600061083b84836106f5565b905080610856576108566001600160a01b03831685856111bf565b60007f00000000000000000000000000000000000000000000000000000000000000006001600160a01b0316639f82b2176040518163ffffffff1660e01b8152600401602060405180830381865afa1580156108b6573d6000803e3d6000fd5b505050506040513d601f19601f820116820180604052508101906108da9190611d08565b90506000816001600160a01b031662eb8ba487856108f8578661090e565b73eeeeeeeeeeeeeeeeeeeeeeeeeeeeeeeeeeeeeeee5b6040516001600160e01b031960e085901b1681526001600160a01b03928316600482015291166024820152604401602060405180830381865afa158015610959573d6000803e3d6000fd5b505050506040513d601f19601f8201168201806040525081019061097d9190611ddd565b604051635f92e81560e11b81526001600160a01b0388811660048301526fffffffffffffffffffffffffffffffff92909216925060009184169063bf25d02a90602401602060405180830381865afa1580156109dd573d6000803e3d6000fd5b505050506040513d601f19601f82011682018060405250810190610a019190611d9b565b905080600203610b0a57610a13611bdc565b86818460028110610a2657610a26611e00565b60200201528415610aa257610a3a876112aa565b604051630b4c7e4d60e01b81526001600160a01b03891690630b4c7e4d908990610a6b908590600090600401611e39565b6000604051808303818588803b158015610a8457600080fd5b505af1158015610a98573d6000803e3d6000fd5b5050505050610b04565b604051630b4c7e4d60e01b81526001600160a01b03891690630b4c7e4d90610ad1908490600090600401611e39565b600060405180830381600087803b158015610aeb57600080fd5b505af1158015610aff573d6000803e3d6000fd5b505050505b50610ee9565b80600303610ba157610b1a611bfa565b86818460038110610b2d57610b2d611e00565b60200201528415610b7257610b41876112aa565b604051634515cef360e01b81526001600160a01b03891690634515cef3908990610a6b908590600090600401611e77565b604051634515cef360e01b81526001600160a01b03891690634515cef390610ad1908490600090600401611e77565b80600403610c3657610bb1611c18565b86818460048110610bc457610bc4611e00565b60200201528415610c0857610bd8876112aa565b60405162a6cbcd60e21b81526001600160a01b0389169063029b2f34908990610a6b908590600090600401611eb5565b60405162a6cbcd60e21b81526001600160a01b0389169063029b2f3490610ad1908490600090600401611eb5565b80600503610ccd57610c46611c36565b86818460058110610c5957610c59611e00565b60200201528415610c9e57610c6d876112aa565b604051638473849960e01b81526001600160a01b038916906384738499908990610a6b908590600090600401611ef3565b604051638473849960e01b81526001600160a01b03891690638473849990610ad1908490600090600401611ef3565b80600603610d6457610cdd611c54565b86818460068110610cf057610cf0611e00565b60200201528415610d3557610d04876112aa565b604051633f8a44f360e01b81526001600160a01b03891690633f8a44f3908990610a6b908590600090600401611f31565b604051633f8a44f360e01b81526001600160a01b03891690633f8a44f390610ad1908490600090600401611f31565b80600703610dfb57610d74611c72565b86818460078110610d8757610d87611e00565b60200201528415610dcc57610d9b876112aa565b60405163a5918ca160e01b81526001600160a01b0389169063a5918ca1908990610a6b908590600090600401611f6f565b60405163a5918ca160e01b81526001600160a01b0389169063a5918ca190610ad1908490600090600401611f6f565b80600803610e9257610e0b611c90565b86818460088110610e1e57610e1e611e00565b60200201528415610e6357610e32876112aa565b6040516352d7f31760e01b81526001600160a01b038916906352d7f317908990610a6b908590600090600401611fae565b6040516352d7f31760e01b81526001600160a01b038916906352d7f31790610ad1908490600090600401611fae565b60405162461bcd60e51b815260206004820152602660248201527f696e76616c6964206e756d626572206f6620636f696e7320666f72206375727660448201526519481c1bdbdb60d21b6064820152608401610231565b50505050505050565b6000610efe84836106f5565b905060007f00000000000000000000000000000000000000000000000000000000000000006001600160a01b0316639f82b2176040518163ffffffff1660e01b8152600401602060405180830381865afa158015610f60573d6000803e3d6000fd5b505050506040513d601f19601f82011682018060405250810190610f849190611d08565b6001600160a01b031662eb8ba48684610f9d5785610fb3565b73eeeeeeeeeeeeeeeeeeeeeeeeeeeeeeeeeeeeeeee5b6040516001600160e01b031960e085901b1681526001600160a01b03928316600482015291166024820152604401602060405180830381865afa158015610ffe573d6000803e3d6000fd5b505050506040513d601f19601f820116820180604052508101906110229190611ddd565b905060004790507f00000000000000000000000000000000000000000000000000000000000000006001600160a01b0316639f82b2176040518163ffffffff1660e01b8152600401602060405180830381865afa158015611087573d6000803e3d6000fd5b505050506040513d601f19601f820116820180604052508101906110ab9190611d08565b604051630bb075af60e11b81526001600160a01b0388811660048301529190911690631760eb5e90602401602060405180830381865afa1580156110f3573d6000803e3d6000fd5b505050506040513d601f19601f820116820180604052508101906111179190611d9b565b60000361112e5761112986868461130b565b61119a565b604051630d2680e960e11b815260048101869052600f83900b6024820152600060448201526001600160a01b03871690631a4d01d290606401600060405180830381600087803b15801561118157600080fd5b505af1158015611195573d6000803e3d6000fd5b505050505b82156111b75760006111ac8247611dca565b9050610ee9816117f9565b505050505050565b604051636eb1769f60e11b81523060048201526001600160a01b038381166024830152600091839186169063dd62ed3e90604401602060405180830381865afa158015611210573d6000803e3d6000fd5b505050506040513d601f19601f820116820180604052508101906112349190611d9b565b61123e9190611fcb565b6040516001600160a01b0385166024820152604481018290529091506112a490859063095ea7b360e01b906064015b60408051601f198184030181529190526020810180516001600160e01b03166001600160e01b03199093169290921790915261185c565b50505050565b604051632e1a7d4d60e01b81526004810182905273c02aaa39b223fe8d0a0e5c4f27ead9083c756cc290632e1a7d4d90602401600060405180830381600087803b1580156112f757600080fd5b505af11580156103ad573d6000803e3d6000fd5b60007f00000000000000000000000000000000000000000000000000000000000000006001600160a01b0316639f82b2176040518163ffffffff1660e01b8152600401602060405180830381865afa15801561136b573d6000803e3d6000fd5b505050506040513d601f19601f8201168201806040525081019061138f9190611d08565b604051635f92e81560e11b81526001600160a01b03868116600483015291925060009183169063bf25d02a90602401602060405180830381865afa1580156113db573d6000803e3d6000fd5b505050506040513d601f19601f820116820180604052508101906113ff9190611d9b565b90508060020361147757611411611bdc565b6040516316cd8e2760e21b81526001600160a01b03871690635b36389c9061143f9088908590600401611fde565b600060405180830381600087803b15801561145957600080fd5b505af115801561146d573d6000803e3d6000fd5b5050505050611633565b806003036114b557611487611bfa565b60405163ecb586a560e01b81526001600160a01b0387169063ecb586a59061143f9088908590600401611ff2565b806004036114f3576114c5611c18565b604051637d49d87560e01b81526001600160a01b03871690637d49d8759061143f9088908590600401612006565b8060050361153157611503611c36565b6040516371dffae760e11b81526001600160a01b0387169063e3bff5ce9061143f908890859060040161201a565b8060060361156f57611541611c54565b60405163684916a560e01b81526001600160a01b0387169063684916a59061143f908890859060040161202e565b806007036115ad5761157f611c72565b604051635c912d2b60e01b81526001600160a01b03871690635c912d2b9061143f9088908590600401612042565b806008036115eb576115bd611c90565b604051633fec654960e01b81526001600160a01b03871690633fec65499061143f9088908590600401612057565b60405162461bcd60e51b815260206004820152601f60248201527f437572766548616e646c65723a20756e737570706f7274656420636f696e73006044820152606401610231565b60005b818110156111b75783600f0b8103156117e757604051630fa1ef5160e31b81526001600160a01b03878116600483015260009190851690637d0f7a8890602401600060405180830381865afa158015611693573d6000803e3d6000fd5b505050506040513d6000823e601f3d908101601f191682016040526116bb9190810190612082565b905060008183815181106116d1576116d1611e00565b60209081029190910101516040516370a0823160e01b81523060048201529091506000906001600160a01b038316906370a0823190602401602060405180830381865afa158015611726573d6000803e3d6000fd5b505050506040513d601f19601f8201168201806040525081019061174a9190611d9b565b90508060000361175c575050506117e7565b6117706001600160a01b0383168a83611933565b604051630f7c084960e21b8152600f85810b600483015288900b602482015260448101829052600060648201526001600160a01b038a1690633df0212490608401600060405180830381600087803b1580156117cb57600080fd5b505af11580156117df573d6000803e3d6000fd5b505050505050505b806117f181612147565b915050611636565b73c02aaa39b223fe8d0a0e5c4f27ead9083c756cc26001600160a01b031663d0e30db0826040518263ffffffff1660e01b81526004016000604051808303818588803b15801561184857600080fd5b505af11580156111b7573d6000803e3d6000fd5b60006118b1826040518060400160405280602081526020017f5361666545524332303a206c6f772d6c6576656c2063616c6c206661696c6564815250856001600160a01b0316611a489092919063ffffffff16565b80519091501561192e57808060200190518101906118cf9190611d25565b61192e5760405162461bcd60e51b815260206004820152602a60248201527f5361666545524332303a204552433230206f7065726174696f6e20646964206e6044820152691bdd081cdd58d8d9595960b21b6064820152608401610231565b505050565b8015806119ad5750604051636eb1769f60e11b81523060048201526001600160a01b03838116602483015284169063dd62ed3e90604401602060405180830381865afa158015611987573d6000803e3d6000fd5b505050506040513d601f19601f820116820180604052508101906119ab9190611d9b565b155b611a185760405162461bcd60e51b815260206004820152603660248201527f5361666545524332303a20617070726f76652066726f6d206e6f6e2d7a65726f60448201527520746f206e6f6e2d7a65726f20616c6c6f77616e636560501b6064820152608401610231565b6040516001600160a01b03831660248201526044810182905261192e90849063095ea7b360e01b9060640161126d565b6060611a578484600085611a61565b90505b9392505050565b606082471015611ac25760405162461bcd60e51b815260206004820152602660248201527f416464726573733a20696e73756666696369656e742062616c616e636520666f6044820152651c8818d85b1b60d21b6064820152608401610231565b600080866001600160a01b03168587604051611ade9190612184565b60006040518083038185875af1925050503d8060008114611b1b576040519150601f19603f3d011682016040523d82523d6000602084013e611b20565b606091505b5091509150611b3187838387611b3e565b925050505b949350505050565b60608315611bad578251600003611ba6576001600160a01b0385163b611ba65760405162461bcd60e51b815260206004820152601d60248201527f416464726573733a2063616c6c20746f206e6f6e2d636f6e74726163740000006044820152606401610231565b5081611b36565b611b368383815115611bc25781518083602001fd5b8060405162461bcd60e51b815260040161023191906121a0565b60405180604001604052806002906020820280368337509192915050565b60405180606001604052806003906020820280368337509192915050565b60405180608001604052806004906020820280368337509192915050565b6040518060a001604052806005906020820280368337509192915050565b6040518060c001604052806006906020820280368337509192915050565b6040518060e001604052806007906020820280368337509192915050565b6040518061010001604052806008906020820280368337509192915050565b6001600160a01b0381168114611cc457600080fd5b50565b600080600060608486031215611cdc57600080fd5b8335611ce781611caf565b92506020840135611cf781611caf565b929592945050506040919091013590565b600060208284031215611d1a57600080fd5b8151611a5a81611caf565b600060208284031215611d3757600080fd5b81518015158114611a5a57600080fd5b8051611d5281611caf565b919050565b60208082526024908201527f437572766548616e646c65723a20696e7465726d656469617465206e6f7420666040820152631bdd5b9960e21b606082015260800190565b600060208284031215611dad57600080fd5b5051919050565b634e487b7160e01b600052601160045260246000fd5b8181038181111561082957610829611db4565b600060208284031215611def57600080fd5b815180600f0b8114611a5a57600080fd5b634e487b7160e01b600052603260045260246000fd5b8060005b60028110156112a4578151845260209384019390910190600101611e1a565b60608101611e478285611e16565b8260408301529392505050565b8060005b60038110156112a4578151845260209384019390910190600101611e58565b60808101611e858285611e54565b8260608301529392505050565b8060005b60048110156112a4578151845260209384019390910190600101611e96565b60a08101611ec38285611e92565b8260808301529392505050565b8060005b60058110156112a4578151845260209384019390910190600101611ed4565b60c08101611f018285611ed0565b8260a08301529392505050565b8060005b60068110156112a4578151845260209384019390910190600101611f12565b60e08101611f3f8285611f0e565b8260c08301529392505050565b8060005b60078110156112a4578151845260209384019390910190600101611f50565b6101008101611f7e8285611f4c565b8260e08301529392505050565b8060005b60088110156112a4578151845260209384019390910190600101611f8f565b6101208101611fbd8285611f8b565b826101008301529392505050565b8082018082111561082957610829611db4565b82815260608101611a5a6020830184611e16565b82815260808101611a5a6020830184611e54565b82815260a08101611a5a6020830184611e92565b82815260c08101611a5a6020830184611ed0565b82815260e08101611a5a6020830184611f0e565b8281526101008101611a5a6020830184611f4c565b8281526101208101611a5a6020830184611f8b565b634e487b7160e01b600052604160045260246000fd5b6000602080838503121561209557600080fd5b825167ffffffffffffffff808211156120ad57600080fd5b818501915085601f8301126120c157600080fd5b8151818111156120d3576120d361206c565b8060051b604051601f19603f830116810181811085821117156120f8576120f861206c565b60405291825284820192508381018501918883111561211657600080fd5b938501935b8285101561213b5761212c85611d47565b8452938501939285019261211b565b98975050505050505050565b60006001820161215957612159611db4565b5060010190565b60005b8381101561217b578181015183820152602001612163565b50506000910152565b60008251612196818460208701612160565b9190910192915050565b60208152600082518060208401526121bf816040850160208701612160565b601f01601f1916919091016040019291505056fea26469706673582212208afd78f1cac4c5629f8b9e0ecd686b9ed0018f07439f87c04e2f76a0c036c5f264736f6c63430008110033","bytecodeSha1":"82005c96f81574aa0d27103aaa9591688686b23e","compiler":{"evm_version":"istanbul","optimizer":{"enabled":true,"runs":200},"version":"0.8.17+commit.8df45f5f"},"contractName":"CurveHandler","language":"Solidity","natspec":{"kind":"dev","methods":{"deposit(address,address,uint256)":{"details":"This supports both v1 and v2 (crypto) pools.","notice":"Deposits single sided liquidity into a Curve pool","params":{"_amount":"Amount of asset to deposit","_curvePool":"Curve pool to deposit into","_token":"Asset to deposit"}},"withdraw(address,address,uint256)":{"notice":"Withdraws single sided liquidity from a Curve pool","params":{"_amount":"Amount of Curve LP tokens to withdraw","_curvePool":"Curve pool to withdraw from","_token":"Underlying asset to withdraw"}}},"notice":"This contract acts as a wrapper for depositing and removing liquidity to and from Curve pools. Please be aware of the following: - This contract accepts WETH and unwraps it for Curve pool deposits - This contract should only be used through delegate calls for deposits and withdrawals - Slippage from deposits and withdrawals is handled in the ConicPool (do not use handler elsewhere)","version":1},"opcodes":"PUSH1 0x80 PUSH1 0x40 MSTORE CALLVALUE DUP1 ISZERO PUSH2 0x10 JUMPI PUSH1 0x0 DUP1 REVERT JUMPDEST POP PUSH1 0x4 CALLDATASIZE LT PUSH2 0x36 JUMPI PUSH1 0x0 CALLDATALOAD PUSH1 0xE0 SHR DUP1 PUSH4 0x8340F549 EQ PUSH2 0x3B JUMPI DUP1 PUSH4 0xD9CAED12 EQ PUSH2 0x50 JUMPI JUMPDEST PUSH1 0x0 DUP1 REVERT JUMPDEST PUSH2 0x4E PUSH2 0x49 CALLDATASIZE PUSH1 0x4 PUSH2 0x1CC7 JUMP JUMPDEST PUSH2 0x63 JUMP JUMPDEST STOP JUMPDEST PUSH2 0x4E PUSH2 0x5E CALLDATASIZE PUSH1 0x4 PUSH2 0x1CC7 JUMP JUMPDEST PUSH2 0x3B4 JUMP JUMPDEST PUSH1 0x0 PUSH32 0x0 PUSH1 0x1 PUSH1 0x1 PUSH1 0xA0 SHL SUB AND PUSH4 0x9F82B217 PUSH1 0x40 MLOAD DUP2 PUSH4 0xFFFFFFFF AND PUSH1 0xE0 SHL DUP2 MSTORE PUSH1 0x4 ADD PUSH1 0x20 PUSH1 0x40 MLOAD DUP1 DUP4 SUB DUP2 DUP7 GAS STATICCALL ISZERO DUP1 ISZERO PUSH2 0xC3 JUMPI RETURNDATASIZE PUSH1 0x0 DUP1 RETURNDATACOPY RETURNDATASIZE PUSH1 0x0 REVERT JUMPDEST POP POP POP POP PUSH1 0x40 MLOAD RETURNDATASIZE PUSH1 0x1F NOT PUSH1 0x1F DUP3 ADD AND DUP3 ADD DUP1 PUSH1 0x40 MSTORE POP DUP2 ADD SWAP1 PUSH2 0xE7 SWAP2 SWAP1 PUSH2 0x1D08 JUMP JUMPDEST SWAP1 POP PUSH1 0x0 PUSH2 0xF5 DUP6 DUP6 PUSH2 0x6F5 JUMP JUMPDEST SWAP1 POP DUP2 PUSH1 0x1 PUSH1 0x1 PUSH1 0xA0 SHL SUB AND PUSH4 0xB677560F DUP7 DUP4 PUSH2 0x112 JUMPI DUP7 PUSH2 0x128 JUMP JUMPDEST PUSH20 0xEEEEEEEEEEEEEEEEEEEEEEEEEEEEEEEEEEEEEEEE JUMPDEST PUSH1 0x40 MLOAD PUSH1 0x1 PUSH1 0x1 PUSH1 0xE0 SHL SUB NOT PUSH1 0xE0 DUP6 SWAP1 SHL AND DUP2 MSTORE PUSH1 0x1 PUSH1 0x1 PUSH1 0xA0 SHL SUB SWAP3 DUP4 AND PUSH1 0x4 DUP3 ADD MSTORE SWAP2 AND PUSH1 0x24 DUP3 ADD MSTORE PUSH1 0x44 ADD PUSH1 0x20 PUSH1 0x40 MLOAD DUP1 DUP4 SUB DUP2 DUP7 GAS STATICCALL ISZERO DUP1 ISZERO PUSH2 0x173 JUMPI RETURNDATASIZE PUSH1 0x0 DUP1 RETURNDATACOPY RETURNDATASIZE PUSH1 0x0 REVERT JUMPDEST POP POP POP POP PUSH1 0x40 MLOAD RETURNDATASIZE PUSH1 0x1F NOT PUSH1 0x1F DUP3 ADD AND DUP3 ADD DUP1 PUSH1 0x40 MSTORE POP DUP2 ADD SWAP1 PUSH2 0x197 SWAP2 SWAP1 PUSH2 0x1D25 JUMP JUMPDEST PUSH2 0x3A2 JUMPI PUSH1 0x40 MLOAD PUSH4 0x39D16A23 PUSH1 0xE1 SHL DUP2 MSTORE PUSH1 0x1 PUSH1 0x1 PUSH1 0xA0 SHL SUB DUP7 DUP2 AND PUSH1 0x4 DUP4 ADD MSTORE PUSH1 0x0 SWAP2 SWAP1 DUP5 AND SWAP1 PUSH4 0x73A2D446 SWAP1 PUSH1 0x24 ADD PUSH1 0x20 PUSH1 0x40 MLOAD DUP1 DUP4 SUB DUP2 DUP7 GAS STATICCALL ISZERO DUP1 ISZERO PUSH2 0x1E5 JUMPI RETURNDATASIZE PUSH1 0x0 DUP1 RETURNDATACOPY RETURNDATASIZE PUSH1 0x0 REVERT JUMPDEST POP POP POP POP PUSH1 0x40 MLOAD RETURNDATASIZE PUSH1 0x1F NOT PUSH1 0x1F DUP3 ADD AND DUP3 ADD DUP1 PUSH1 0x40 MSTORE POP DUP2 ADD SWAP1 PUSH2 0x209 SWAP2 SWAP1 PUSH2 0x1D08 JUMP JUMPDEST SWAP1 POP PUSH1 0x1 PUSH1 0x1 PUSH1 0xA0 SHL SUB DUP2 AND PUSH2 0x23A JUMPI PUSH1 0x40 MLOAD PUSH3 0x461BCD PUSH1 0xE5 SHL DUP2 MSTORE PUSH1 0x4 ADD PUSH2 0x231 SWAP1 PUSH2 0x1D57 JUMP JUMPDEST PUSH1 0x40 MLOAD DUP1 SWAP2 SUB SWAP1 REVERT JUMPDEST PUSH1 0x40 MLOAD PUSH4 0x1DA958A9 PUSH1 0xE2 SHL DUP2 MSTORE PUSH1 0x1 PUSH1 0x1 PUSH1 0xA0 SHL SUB DUP3 DUP2 AND PUSH1 0x4 DUP4 ADD MSTORE PUSH1 0x0 SWAP2 SWAP1 DUP6 AND SWAP1 PUSH4 0x76A562A4 SWAP1 PUSH1 0x24 ADD PUSH1 0x20 PUSH1 0x40 MLOAD DUP1 DUP4 SUB DUP2 DUP7 GAS STATICCALL ISZERO DUP1 ISZERO PUSH2 0x284 JUMPI RETURNDATASIZE PUSH1 0x0 DUP1 RETURNDATACOPY RETURNDATASIZE PUSH1 0x0 REVERT JUMPDEST POP POP POP POP PUSH1 0x40 MLOAD RETURNDATASIZE PUSH1 0x1F NOT PUSH1 0x1F DUP3 ADD AND DUP3 ADD DUP1 PUSH1 0x40 MSTORE POP DUP2 ADD SWAP1 PUSH2 0x2A8 SWAP2 SWAP1 PUSH2 0x1D08 JUMP JUMPDEST PUSH1 0x40 MLOAD PUSH4 0x70A08231 PUSH1 0xE0 SHL DUP2 MSTORE ADDRESS PUSH1 0x4 DUP3 ADD MSTORE SWAP1 SWAP2 POP PUSH1 0x0 SWAP1 PUSH1 0x1 PUSH1 0x1 PUSH1 0xA0 SHL SUB DUP4 AND SWAP1 PUSH4 0x70A08231 SWAP1 PUSH1 0x24 ADD PUSH1 0x20 PUSH1 0x40 MLOAD DUP1 DUP4 SUB DUP2 DUP7 GAS STATICCALL ISZERO DUP1 ISZERO PUSH2 0x2F2 JUMPI RETURNDATASIZE PUSH1 0x0 DUP1 RETURNDATACOPY RETURNDATASIZE PUSH1 0x0 REVERT JUMPDEST POP POP POP POP PUSH1 0x40 MLOAD RETURNDATASIZE PUSH1 0x1F NOT PUSH1 0x1F DUP3 ADD AND DUP3 ADD DUP1 PUSH1 0x40 MSTORE POP DUP2 ADD SWAP1 PUSH2 0x316 SWAP2 SWAP1 PUSH2 0x1D9B JUMP JUMPDEST SWAP1 POP PUSH2 0x323 DUP4 DUP8 DUP10 PUSH2 0x82F JUMP JUMPDEST PUSH1 0x40 MLOAD PUSH4 0x70A08231 PUSH1 0xE0 SHL DUP2 MSTORE ADDRESS PUSH1 0x4 DUP3 ADD MSTORE SWAP2 SWAP7 POP DUP7 SWAP2 DUP2 SWAP1 PUSH1 0x1 PUSH1 0x1 PUSH1 0xA0 SHL SUB DUP5 AND SWAP1 PUSH4 0x70A08231 SWAP1 PUSH1 0x24 ADD PUSH1 0x20 PUSH1 0x40 MLOAD DUP1 DUP4 SUB DUP2 DUP7 GAS STATICCALL ISZERO DUP1 ISZERO PUSH2 0x36E JUMPI RETURNDATASIZE PUSH1 0x0 DUP1 RETURNDATACOPY RETURNDATASIZE PUSH1 0x0 REVERT JUMPDEST POP POP POP POP PUSH1 0x40 MLOAD RETURNDATASIZE PUSH1 0x1F NOT PUSH1 0x1F DUP3 ADD AND DUP3 ADD DUP1 PUSH1 0x40 MSTORE POP DUP2 ADD SWAP1 PUSH2 0x392 SWAP2 SWAP1 PUSH2 0x1D9B JUMP JUMPDEST PUSH2 0x39C SWAP2 SWAP1 PUSH2 0x1DCA JUMP JUMPDEST SWAP6 POP POP POP POP JUMPDEST PUSH2 0x3AD DUP6 DUP5 DUP7 PUSH2 0x82F JUMP JUMPDEST POP POP POP POP POP JUMP JUMPDEST PUSH1 0x0 PUSH32 0x0 PUSH1 0x1 PUSH1 0x1 PUSH1 0xA0 SHL SUB AND PUSH4 0x9F82B217 PUSH1 0x40 MLOAD DUP2 PUSH4 0xFFFFFFFF AND PUSH1 0xE0 SHL DUP2 MSTORE PUSH1 0x4 ADD PUSH1 0x20 PUSH1 0x40 MLOAD DUP1 DUP4 SUB DUP2 DUP7 GAS STATICCALL ISZERO DUP1 ISZERO PUSH2 0x414 JUMPI RETURNDATASIZE PUSH1 0x0 DUP1 RETURNDATACOPY RETURNDATASIZE PUSH1 0x0 REVERT JUMPDEST POP POP POP POP PUSH1 0x40 MLOAD RETURNDATASIZE PUSH1 0x1F NOT PUSH1 0x1F DUP3 ADD AND DUP3 ADD DUP1 PUSH1 0x40 MSTORE POP DUP2 ADD SWAP1 PUSH2 0x438 SWAP2 SWAP1 PUSH2 0x1D08 JUMP JUMPDEST SWAP1 POP PUSH1 0x0 PUSH2 0x446 DUP6 DUP6 PUSH2 0x6F5 JUMP JUMPDEST SWAP1 POP DUP2 PUSH1 0x1 PUSH1 0x1 PUSH1 0xA0 SHL SUB AND PUSH4 0xB677560F DUP7 DUP4 PUSH2 0x463 JUMPI DUP7 PUSH2 0x479 JUMP JUMPDEST PUSH20 0xEEEEEEEEEEEEEEEEEEEEEEEEEEEEEEEEEEEEEEEE JUMPDEST PUSH1 0x40 MLOAD PUSH1 0x1 PUSH1 0x1 PUSH1 0xE0 SHL SUB NOT PUSH1 0xE0 DUP6 SWAP1 SHL AND DUP2 MSTORE PUSH1 0x1 PUSH1 0x1 PUSH1 0xA0 SHL SUB SWAP3 DUP4 AND PUSH1 0x4 DUP3 ADD MSTORE SWAP2 AND PUSH1 0x24 DUP3 ADD MSTORE PUSH1 0x44 ADD PUSH1 0x20 PUSH1 0x40 MLOAD DUP1 DUP4 SUB DUP2 DUP7 GAS STATICCALL ISZERO DUP1 ISZERO PUSH2 0x4C4 JUMPI RETURNDATASIZE PUSH1 0x0 DUP1 RETURNDATACOPY RETURNDATASIZE PUSH1 0x0 REVERT JUMPDEST POP POP POP POP PUSH1 0x40 MLOAD RETURNDATASIZE PUSH1 0x1F NOT PUSH1 0x1F DUP3 ADD AND DUP3 ADD DUP1 PUSH1 0x40 MSTORE POP DUP2 ADD SWAP1 PUSH2 0x4E8 SWAP2 SWAP1 PUSH2 0x1D25 JUMP JUMPDEST PUSH2 0x6EA JUMPI PUSH1 0x40 MLOAD PUSH4 0x39D16A23 PUSH1 0xE1 SHL DUP2 MSTORE PUSH1 0x1 PUSH1 0x1 PUSH1 0xA0 SHL SUB DUP7 DUP2 AND PUSH1 0x4 DUP4 ADD MSTORE PUSH1 0x0 SWAP2 SWAP1 DUP5 AND SWAP1 PUSH4 0x73A2D446 SWAP1 PUSH1 0x24 ADD PUSH1 0x20 PUSH1 0x40 MLOAD DUP1 DUP4 SUB DUP2 DUP7 GAS STATICCALL ISZERO DUP1 ISZERO PUSH2 0x536 JUMPI RETURNDATASIZE PUSH1 0x0 DUP1 RETURNDATACOPY RETURNDATASIZE PUSH1 0x0 REVERT JUMPDEST POP POP POP POP PUSH1 0x40 MLOAD RETURNDATASIZE PUSH1 0x1F NOT PUSH1 0x1F DUP3 ADD AND DUP3 ADD DUP1 PUSH1 0x40 MSTORE POP DUP2 ADD SWAP1 PUSH2 0x55A SWAP2 SWAP1 PUSH2 0x1D08 JUMP JUMPDEST SWAP1 POP PUSH1 0x1 PUSH1 0x1 PUSH1 0xA0 SHL SUB DUP2 AND PUSH2 0x582 JUMPI PUSH1 0x40 MLOAD PUSH3 0x461BCD PUSH1 0xE5 SHL DUP2 MSTORE PUSH1 0x4 ADD PUSH2 0x231 SWAP1 PUSH2 0x1D57 JUMP JUMPDEST PUSH1 0x40 MLOAD PUSH4 0x1DA958A9 PUSH1 0xE2 SHL DUP2 MSTORE PUSH1 0x1 PUSH1 0x1 PUSH1 0xA0 SHL SUB DUP3 DUP2 AND PUSH1 0x4 DUP4 ADD MSTORE PUSH1 0x0 SWAP2 SWAP1 DUP6 AND SWAP1 PUSH4 0x76A562A4 SWAP1 PUSH1 0x24 ADD PUSH1 0x20 PUSH1 0x40 MLOAD DUP1 DUP4 SUB DUP2 DUP7 GAS STATICCALL ISZERO DUP1 ISZERO PUSH2 0x5CC JUMPI RETURNDATASIZE PUSH1 0x0 DUP1 RETURNDATACOPY RETURNDATASIZE PUSH1 0x0 REVERT JUMPDEST POP POP POP POP PUSH1 0x40 MLOAD RETURNDATASIZE PUSH1 0x1F NOT PUSH1 0x1F DUP3 ADD AND DUP3 ADD DUP1 PUSH1 0x40 MSTORE POP DUP2 ADD SWAP1 PUSH2 0x5F0 SWAP2 SWAP1 PUSH2 0x1D08 JUMP JUMPDEST PUSH1 0x40 MLOAD PUSH4 0x70A08231 PUSH1 0xE0 SHL DUP2 MSTORE ADDRESS PUSH1 0x4 DUP3 ADD MSTORE SWAP1 SWAP2 POP PUSH1 0x0 SWAP1 PUSH1 0x1 PUSH1 0x1 PUSH1 0xA0 SHL SUB DUP4 AND SWAP1 PUSH4 0x70A08231 SWAP1 PUSH1 0x24 ADD PUSH1 0x20 PUSH1 0x40 MLOAD DUP1 DUP4 SUB DUP2 DUP7 GAS STATICCALL ISZERO DUP1 ISZERO PUSH2 0x63A JUMPI RETURNDATASIZE PUSH1 0x0 DUP1 RETURNDATACOPY RETURNDATASIZE PUSH1 0x0 REVERT JUMPDEST POP POP POP POP PUSH1 0x40 MLOAD RETURNDATASIZE PUSH1 0x1F NOT PUSH1 0x1F DUP3 ADD AND DUP3 ADD DUP1 PUSH1 0x40 MSTORE POP DUP2 ADD SWAP1 PUSH2 0x65E SWAP2 SWAP1 PUSH2 0x1D9B JUMP JUMPDEST SWAP1 POP PUSH2 0x66B DUP9 DUP8 DUP5 PUSH2 0xEF2 JUMP JUMPDEST PUSH1 0x40 MLOAD PUSH4 0x70A08231 PUSH1 0xE0 SHL DUP2 MSTORE ADDRESS PUSH1 0x4 DUP3 ADD MSTORE SWAP3 SWAP8 POP DUP8 SWAP3 DUP2 SWAP1 PUSH1 0x1 PUSH1 0x1 PUSH1 0xA0 SHL SUB DUP5 AND SWAP1 PUSH4 0x70A08231 SWAP1 PUSH1 0x24 ADD PUSH1 0x20 PUSH1 0x40 MLOAD DUP1 DUP4 SUB DUP2 DUP7 GAS STATICCALL ISZERO DUP1 ISZERO PUSH2 0x6B6 JUMPI RETURNDATASIZE PUSH1 0x0 DUP1 RETURNDATACOPY RETURNDATASIZE PUSH1 0x0 REVERT JUMPDEST POP POP POP POP PUSH1 0x40 MLOAD RETURNDATASIZE PUSH1 0x1F NOT PUSH1 0x1F DUP3 ADD AND DUP3 ADD DUP1 PUSH1 0x40 MSTORE POP DUP2 ADD SWAP1 PUSH2 0x6DA SWAP2 SWAP1 PUSH2 0x1D9B JUMP JUMPDEST PUSH2 0x6E4 SWAP2 SWAP1 PUSH2 0x1DCA JUMP JUMPDEST SWAP6 POP POP POP POP JUMPDEST PUSH2 0x3AD DUP6 DUP5 DUP7 PUSH2 0xEF2 JUMP JUMPDEST PUSH1 0x0 PUSH1 0x1 PUSH1 0x1 PUSH1 0xA0 SHL SUB DUP3 AND PUSH20 0xC02AAA39B223FE8D0A0E5C4F27EAD9083C756CC2 EQ DUP1 ISZERO PUSH2 0x826 JUMPI POP PUSH32 0x0 PUSH1 0x1 PUSH1 0x1 PUSH1 0xA0 SHL SUB AND PUSH4 0x9F82B217 PUSH1 0x40 MLOAD DUP2 PUSH4 0xFFFFFFFF AND PUSH1 0xE0 SHL DUP2 MSTORE PUSH1 0x4 ADD PUSH1 0x20 PUSH1 0x40 MLOAD DUP1 DUP4 SUB DUP2 DUP7 GAS STATICCALL ISZERO DUP1 ISZERO PUSH2 0x77C JUMPI RETURNDATASIZE PUSH1 0x0 DUP1 RETURNDATACOPY RETURNDATASIZE PUSH1 0x0 REVERT JUMPDEST POP POP POP POP PUSH1 0x40 MLOAD RETURNDATASIZE PUSH1 0x1F NOT PUSH1 0x1F DUP3 ADD AND DUP3 ADD DUP1 PUSH1 0x40 MSTORE POP DUP2 ADD SWAP1 PUSH2 0x7A0 SWAP2 SWAP1 PUSH2 0x1D08 JUMP JUMPDEST PUSH1 0x40 MLOAD PUSH4 0xB677560F PUSH1 0xE0 SHL DUP2 MSTORE PUSH1 0x1 PUSH1 0x1 PUSH1 0xA0 SHL SUB DUP6 DUP2 AND PUSH1 0x4 DUP4 ADD MSTORE PUSH20 0xEEEEEEEEEEEEEEEEEEEEEEEEEEEEEEEEEEEEEEEE PUSH1 0x24 DUP4 ADD MSTORE SWAP2 SWAP1 SWAP2 AND SWAP1 PUSH4 0xB677560F SWAP1 PUSH1 0x44 ADD PUSH1 0x20 PUSH1 0x40 MLOAD DUP1 DUP4 SUB DUP2 DUP7 GAS STATICCALL ISZERO DUP1 ISZERO PUSH2 0x802 JUMPI RETURNDATASIZE PUSH1 0x0 DUP1 RETURNDATACOPY RETURNDATASIZE PUSH1 0x0 REVERT JUMPDEST POP POP POP POP PUSH1 0x40 MLOAD RETURNDATASIZE PUSH1 0x1F NOT PUSH1 0x1F DUP3 ADD AND DUP3 ADD DUP1 PUSH1 0x40 MSTORE POP DUP2 ADD SWAP1 PUSH2 0x826 SWAP2 SWAP1 PUSH2 0x1D25 JUMP JUMPDEST SWAP1 POP JUMPDEST SWAP3 SWAP2 POP POP JUMP JUMPDEST PUSH1 0x0 PUSH2 0x83B DUP5 DUP4 PUSH2 0x6F5 JUMP JUMPDEST SWAP1 POP DUP1 PUSH2 0x856 JUMPI PUSH2 0x856 PUSH1 0x1 PUSH1 0x1 PUSH1 0xA0 SHL SUB DUP4 AND DUP6 DUP6 PUSH2 0x11BF JUMP JUMPDEST PUSH1 0x0 PUSH32 0x0 PUSH1 0x1 PUSH1 0x1 PUSH1 0xA0 SHL SUB AND PUSH4 0x9F82B217 PUSH1 0x40 MLOAD DUP2 PUSH4 0xFFFFFFFF AND PUSH1 0xE0 SHL DUP2 MSTORE PUSH1 0x4 ADD PUSH1 0x20 PUSH1 0x40 MLOAD DUP1 DUP4 SUB DUP2 DUP7 GAS STATICCALL ISZERO DUP1 ISZERO PUSH2 0x8B6 JUMPI RETURNDATASIZE PUSH1 0x0 DUP1 RETURNDATACOPY RETURNDATASIZE PUSH1 0x0 REVERT JUMPDEST POP POP POP POP PUSH1 0x40 MLOAD RETURNDATASIZE PUSH1 0x1F NOT PUSH1 0x1F DUP3 ADD AND DUP3 ADD DUP1 PUSH1 0x40 MSTORE POP DUP2 ADD SWAP1 PUSH2 0x8DA SWAP2 SWAP1 PUSH2 0x1D08 JUMP JUMPDEST SWAP1 POP PUSH1 0x0 DUP2 PUSH1 0x1 PUSH1 0x1 PUSH1 0xA0 SHL SUB AND PUSH3 0xEB8BA4 DUP8 DUP6 PUSH2 0x8F8 JUMPI DUP7 PUSH2 0x90E JUMP JUMPDEST PUSH20 0xEEEEEEEEEEEEEEEEEEEEEEEEEEEEEEEEEEEEEEEE JUMPDEST PUSH1 0x40 MLOAD PUSH1 0x1 PUSH1 0x1 PUSH1 0xE0 SHL SUB NOT PUSH1 0xE0 DUP6 SWAP1 SHL AND DUP2 MSTORE PUSH1 0x1 PUSH1 0x1 PUSH1 0xA0 SHL SUB SWAP3 DUP4 AND PUSH1 0x4 DUP3 ADD MSTORE SWAP2 AND PUSH1 0x24 DUP3 ADD MSTORE PUSH1 0x44 ADD PUSH1 0x20 PUSH1 0x40 MLOAD DUP1 DUP4 SUB DUP2 DUP7 GAS STATICCALL ISZERO DUP1 ISZERO PUSH2 0x959 JUMPI RETURNDATASIZE PUSH1 0x0 DUP1 RETURNDATACOPY RETURNDATASIZE PUSH1 0x0 REVERT JUMPDEST POP POP POP POP PUSH1 0x40 MLOAD RETURNDATASIZE PUSH1 0x1F NOT PUSH1 0x1F DUP3 ADD AND DUP3 ADD DUP1 PUSH1 0x40 MSTORE POP DUP2 ADD SWAP1 PUSH2 0x97D SWAP2 SWAP1 PUSH2 0x1DDD JUMP JUMPDEST PUSH1 0x40 MLOAD PUSH4 0x5F92E815 PUSH1 0xE1 SHL DUP2 MSTORE PUSH1 0x1 PUSH1 0x1 PUSH1 0xA0 SHL SUB DUP9 DUP2 AND PUSH1 0x4 DUP4 ADD MSTORE PUSH16 0xFFFFFFFFFFFFFFFFFFFFFFFFFFFFFFFF SWAP3 SWAP1 SWAP3 AND SWAP3 POP PUSH1 0x0 SWAP2 DUP5 AND SWAP1 PUSH4 0xBF25D02A SWAP1 PUSH1 0x24 ADD PUSH1 0x20 PUSH1 0x40 MLOAD DUP1 DUP4 SUB DUP2 DUP7 GAS STATICCALL ISZERO DUP1 ISZERO PUSH2 0x9DD JUMPI RETURNDATASIZE PUSH1 0x0 DUP1 RETURNDATACOPY RETURNDATASIZE PUSH1 0x0 REVERT JUMPDEST POP POP POP POP PUSH1 0x40 MLOAD RETURNDATASIZE PUSH1 0x1F NOT PUSH1 0x1F DUP3 ADD AND DUP3 ADD DUP1 PUSH1 0x40 MSTORE POP DUP2 ADD SWAP1 PUSH2 0xA01 SWAP2 SWAP1 PUSH2 0x1D9B JUMP JUMPDEST SWAP1 POP DUP1 PUSH1 0x2 SUB PUSH2 0xB0A JUMPI PUSH2 0xA13 PUSH2 0x1BDC JUMP JUMPDEST DUP7 DUP2 DUP5 PUSH1 0x2 DUP2 LT PUSH2 0xA26 JUMPI PUSH2 0xA26 PUSH2 0x1E00 JUMP JUMPDEST PUSH1 0x20 MUL ADD MSTORE DUP5 ISZERO PUSH2 0xAA2 JUMPI PUSH2 0xA3A DUP8 PUSH2 0x12AA JUMP JUMPDEST PUSH1 0x40 MLOAD PUSH4 0xB4C7E4D PUSH1 0xE0 SHL DUP2 MSTORE PUSH1 0x1 PUSH1 0x1 PUSH1 0xA0 SHL SUB DUP10 AND SWAP1 PUSH4 0xB4C7E4D SWAP1 DUP10 SWAP1 PUSH2 0xA6B SWAP1 DUP6 SWAP1 PUSH1 0x0 SWAP1 PUSH1 0x4 ADD PUSH2 0x1E39 JUMP JUMPDEST PUSH1 0x0 PUSH1 0x40 MLOAD DUP1 DUP4 SUB DUP2 DUP6 DUP9 DUP1 EXTCODESIZE ISZERO DUP1 ISZERO PUSH2 0xA84 JUMPI PUSH1 0x0 DUP1 REVERT JUMPDEST POP GAS CALL ISZERO DUP1 ISZERO PUSH2 0xA98 JUMPI RETURNDATASIZE PUSH1 0x0 DUP1 RETURNDATACOPY RETURNDATASIZE PUSH1 0x0 REVERT JUMPDEST POP POP POP POP POP PUSH2 0xB04 JUMP JUMPDEST PUSH1 0x40 MLOAD PUSH4 0xB4C7E4D PUSH1 0xE0 SHL DUP2 MSTORE PUSH1 0x1 PUSH1 0x1 PUSH1 0xA0 SHL SUB DUP10 AND SWAP1 PUSH4 0xB4C7E4D SWAP1 PUSH2 0xAD1 SWAP1 DUP5 SWAP1 PUSH1 0x0 SWAP1 PUSH1 0x4 ADD PUSH2 0x1E39 JUMP JUMPDEST PUSH1 0x0 PUSH1 0x40 MLOAD DUP1 DUP4 SUB DUP2 PUSH1 0x0 DUP8 DUP1 EXTCODESIZE ISZERO DUP1 ISZERO PUSH2 0xAEB JUMPI PUSH1 0x0 DUP1 REVERT JUMPDEST POP GAS CALL ISZERO DUP1 ISZERO PUSH2 0xAFF JUMPI RETURNDATASIZE PUSH1 0x0 DUP1 RETURNDATACOPY RETURNDATASIZE PUSH1 0x0 REVERT JUMPDEST POP POP POP POP JUMPDEST POP PUSH2 0xEE9 JUMP JUMPDEST DUP1 PUSH1 0x3 SUB PUSH2 0xBA1 JUMPI PUSH2 0xB1A PUSH2 0x1BFA JUMP JUMPDEST DUP7 DUP2 DUP5 PUSH1 0x3 DUP2 LT PUSH2 0xB2D JUMPI PUSH2 0xB2D PUSH2 0x1E00 JUMP JUMPDEST PUSH1 0x20 MUL ADD MSTORE DUP5 ISZERO PUSH2 0xB72 JUMPI PUSH2 0xB41 DUP8 PUSH2 0x12AA JUMP JUMPDEST PUSH1 0x40 MLOAD PUSH4 0x4515CEF3 PUSH1 0xE0 SHL DUP2 MSTORE PUSH1 0x1 PUSH1 0x1 PUSH1 0xA0 SHL SUB DUP10 AND SWAP1 PUSH4 0x4515CEF3 SWAP1 DUP10 SWAP1 PUSH2 0xA6B SWAP1 DUP6 SWAP1 PUSH1 0x0 SWAP1 PUSH1 0x4 ADD PUSH2 0x1E77 JUMP JUMPDEST PUSH1 0x40 MLOAD PUSH4 0x4515CEF3 PUSH1 0xE0 SHL DUP2 MSTORE PUSH1 0x1 PUSH1 0x1 PUSH1 0xA0 SHL SUB DUP10 AND SWAP1 PUSH4 0x4515CEF3 SWAP1 PUSH2 0xAD1 SWAP1 DUP5 SWAP1 PUSH1 0x0 SWAP1 PUSH1 0x4 ADD PUSH2 0x1E77 JUMP JUMPDEST DUP1 PUSH1 0x4 SUB PUSH2 0xC36 JUMPI PUSH2 0xBB1 PUSH2 0x1C18 JUMP JUMPDEST DUP7 DUP2 DUP5 PUSH1 0x4 DUP2 LT PUSH2 0xBC4 JUMPI PUSH2 0xBC4 PUSH2 0x1E00 JUMP JUMPDEST PUSH1 0x20 MUL ADD MSTORE DUP5 ISZERO PUSH2 0xC08 JUMPI PUSH2 0xBD8 DUP8 PUSH2 0x12AA JUMP JUMPDEST PUSH1 0x40 MLOAD PUSH3 0xA6CBCD PUSH1 0xE2 SHL DUP2 MSTORE PUSH1 0x1 PUSH1 0x1 PUSH1 0xA0 SHL SUB DUP10 AND SWAP1 PUSH4 0x29B2F34 SWAP1 DUP10 SWAP1 PUSH2 0xA6B SWAP1 DUP6 SWAP1 PUSH1 0x0 SWAP1 PUSH1 0x4 ADD PUSH2 0x1EB5 JUMP JUMPDEST PUSH1 0x40 MLOAD PUSH3 0xA6CBCD PUSH1 0xE2 SHL DUP2 MSTORE PUSH1 0x1 PUSH1 0x1 PUSH1 0xA0 SHL SUB DUP10 AND SWAP1 PUSH4 0x29B2F34 SWAP1 PUSH2 0xAD1 SWAP1 DUP5 SWAP1 PUSH1 0x0 SWAP1 PUSH1 0x4 ADD PUSH2 0x1EB5 JUMP JUMPDEST DUP1 PUSH1 0x5 SUB PUSH2 0xCCD JUMPI PUSH2 0xC46 PUSH2 0x1C36 JUMP JUMPDEST DUP7 DUP2 DUP5 PUSH1 0x5 DUP2 LT PUSH2 0xC59 JUMPI PUSH2 0xC59 PUSH2 0x1E00 JUMP JUMPDEST PUSH1 0x20 MUL ADD MSTORE DUP5 ISZERO PUSH2 0xC9E JUMPI PUSH2 0xC6D DUP8 PUSH2 0x12AA JUMP JUMPDEST PUSH1 0x40 MLOAD PUSH4 0x84738499 PUSH1 0xE0 SHL DUP2 MSTORE PUSH1 0x1 PUSH1 0x1 PUSH1 0xA0 SHL SUB DUP10 AND SWAP1 PUSH4 0x84738499 SWAP1 DUP10 SWAP1 PUSH2 0xA6B SWAP1 DUP6 SWAP1 PUSH1 0x0 SWAP1 PUSH1 0x4 ADD PUSH2 0x1EF3 JUMP JUMPDEST PUSH1 0x40 MLOAD PUSH4 0x84738499 PUSH1 0xE0 SHL DUP2 MSTORE PUSH1 0x1 PUSH1 0x1 PUSH1 0xA0 SHL SUB DUP10 AND SWAP1 PUSH4 0x84738499 SWAP1 PUSH2 0xAD1 SWAP1 DUP5 SWAP1 PUSH1 0x0 SWAP1 PUSH1 0x4 ADD PUSH2 0x1EF3 JUMP JUMPDEST DUP1 PUSH1 0x6 SUB PUSH2 0xD64 JUMPI PUSH2 0xCDD PUSH2 0x1C54 JUMP JUMPDEST DUP7 DUP2 DUP5 PUSH1 0x6 DUP2 LT PUSH2 0xCF0 JUMPI PUSH2 0xCF0 PUSH2 0x1E00 JUMP JUMPDEST PUSH1 0x20 MUL ADD MSTORE DUP5 ISZERO PUSH2 0xD35 JUMPI PUSH2 0xD04 DUP8 PUSH2 0x12AA JUMP JUMPDEST PUSH1 0x40 MLOAD PUSH4 0x3F8A44F3 PUSH1 0xE0 SHL DUP2 MSTORE PUSH1 0x1 PUSH1 0x1 PUSH1 0xA0 SHL SUB DUP10 AND SWAP1 PUSH4 0x3F8A44F3 SWAP1 DUP10 SWAP1 PUSH2 0xA6B SWAP1 DUP6 SWAP1 PUSH1 0x0 SWAP1 PUSH1 0x4 ADD PUSH2 0x1F31 JUMP JUMPDEST PUSH1 0x40 MLOAD PUSH4 0x3F8A44F3 PUSH1 0xE0 SHL DUP2 MSTORE PUSH1 0x1 PUSH1 0x1 PUSH1 0xA0 SHL SUB DUP10 AND SWAP1 PUSH4 0x3F8A44F3 SWAP1 PUSH2 0xAD1 SWAP1 DUP5 SWAP1 PUSH1 0x0 SWAP1 PUSH1 0x4 ADD PUSH2 0x1F31 JUMP JUMPDEST DUP1 PUSH1 0x7 SUB PUSH2 0xDFB JUMPI PUSH2 0xD74 PUSH2 0x1C72 JUMP JUMPDEST DUP7 DUP2 DUP5 PUSH1 0x7 DUP2 LT PUSH2 0xD87 JUMPI PUSH2 0xD87 PUSH2 0x1E00 JUMP JUMPDEST PUSH1 0x20 MUL ADD MSTORE DUP5 ISZERO PUSH2 0xDCC JUMPI PUSH2 0xD9B DUP8 PUSH2 0x12AA JUMP JUMPDEST PUSH1 0x40 MLOAD PUSH4 0xA5918CA1 PUSH1 0xE0 SHL DUP2 MSTORE PUSH1 0x1 PUSH1 0x1 PUSH1 0xA0 SHL SUB DUP10 AND SWAP1 PUSH4 0xA5918CA1 SWAP1 DUP10 SWAP1 PUSH2 0xA6B SWAP1 DUP6 SWAP1 PUSH1 0x0 SWAP1 PUSH1 0x4 ADD PUSH2 0x1F6F JUMP JUMPDEST PUSH1 0x40 MLOAD PUSH4 0xA5918CA1 PUSH1 0xE0 SHL DUP2 MSTORE PUSH1 0x1 PUSH1 0x1 PUSH1 0xA0 SHL SUB DUP10 AND SWAP1 PUSH4 0xA5918CA1 SWAP1 PUSH2 0xAD1 SWAP1 DUP5 SWAP1 PUSH1 0x0 SWAP1 PUSH1 0x4 ADD PUSH2 0x1F6F JUMP JUMPDEST DUP1 PUSH1 0x8 SUB PUSH2 0xE92 JUMPI PUSH2 0xE0B PUSH2 0x1C90 JUMP JUMPDEST DUP7 DUP2 DUP5 PUSH1 0x8 DUP2 LT PUSH2 0xE1E JUMPI PUSH2 0xE1E PUSH2 0x1E00 JUMP JUMPDEST PUSH1 0x20 MUL ADD MSTORE DUP5 ISZERO PUSH2 0xE63 JUMPI PUSH2 0xE32 DUP8 PUSH2 0x12AA JUMP JUMPDEST PUSH1 0x40 MLOAD PUSH4 0x52D7F317 PUSH1 0xE0 SHL DUP2 MSTORE PUSH1 0x1 PUSH1 0x1 PUSH1 0xA0 SHL SUB DUP10 AND SWAP1 PUSH4 0x52D7F317 SWAP1 DUP10 SWAP1 PUSH2 0xA6B SWAP1 DUP6 SWAP1 PUSH1 0x0 SWAP1 PUSH1 0x4 ADD PUSH2 0x1FAE JUMP JUMPDEST PUSH1 0x40 MLOAD PUSH4 0x52D7F317 PUSH1 0xE0 SHL DUP2 MSTORE PUSH1 0x1 PUSH1 0x1 PUSH1 0xA0 SHL SUB DUP10 AND SWAP1 PUSH4 0x52D7F317 SWAP1 PUSH2 0xAD1 SWAP1 DUP5 SWAP1 PUSH1 0x0 SWAP1 PUSH1 0x4 ADD PUSH2 0x1FAE JUMP JUMPDEST PUSH1 0x40 MLOAD PUSH3 0x461BCD PUSH1 0xE5 SHL DUP2 MSTORE PUSH1 0x20 PUSH1 0x4 DUP3 ADD MSTORE PUSH1 0x26 PUSH1 0x24 DUP3 ADD MSTORE PUSH32 0x696E76616C6964206E756D626572206F6620636F696E7320666F722063757276 PUSH1 0x44 DUP3 ADD MSTORE PUSH6 0x19481C1BDBDB PUSH1 0xD2 SHL PUSH1 0x64 DUP3 ADD MSTORE PUSH1 0x84 ADD PUSH2 0x231 JUMP JUMPDEST POP POP POP POP POP POP POP JUMP JUMPDEST PUSH1 0x0 PUSH2 0xEFE DUP5 DUP4 PUSH2 0x6F5 JUMP JUMPDEST SWAP1 POP PUSH1 0x0 PUSH32 0x0 PUSH1 0x1 PUSH1 0x1 PUSH1 0xA0 SHL SUB AND PUSH4 0x9F82B217 PUSH1 0x40 MLOAD DUP2 PUSH4 0xFFFFFFFF AND PUSH1 0xE0 SHL DUP2 MSTORE PUSH1 0x4 ADD PUSH1 0x20 PUSH1 0x40 MLOAD DUP1 DUP4 SUB DUP2 DUP7 GAS STATICCALL ISZERO DUP1 ISZERO PUSH2 0xF60 JUMPI RETURNDATASIZE PUSH1 0x0 DUP1 RETURNDATACOPY RETURNDATASIZE PUSH1 0x0 REVERT JUMPDEST POP POP POP POP PUSH1 0x40 MLOAD RETURNDATASIZE PUSH1 0x1F NOT PUSH1 0x1F DUP3 ADD AND DUP3 ADD DUP1 PUSH1 0x40 MSTORE POP DUP2 ADD SWAP1 PUSH2 0xF84 SWAP2 SWAP1 PUSH2 0x1D08 JUMP JUMPDEST PUSH1 0x1 PUSH1 0x1 PUSH1 0xA0 SHL SUB AND PUSH3 0xEB8BA4 DUP7 DUP5 PUSH2 0xF9D JUMPI DUP6 PUSH2 0xFB3 JUMP JUMPDEST PUSH20 0xEEEEEEEEEEEEEEEEEEEEEEEEEEEEEEEEEEEEEEEE JUMPDEST PUSH1 0x40 MLOAD PUSH1 0x1 PUSH1 0x1 PUSH1 0xE0 SHL SUB NOT PUSH1 0xE0 DUP6 SWAP1 SHL AND DUP2 MSTORE PUSH1 0x1 PUSH1 0x1 PUSH1 0xA0 SHL SUB SWAP3 DUP4 AND PUSH1 0x4 DUP3 ADD MSTORE SWAP2 AND PUSH1 0x24 DUP3 ADD MSTORE PUSH1 0x44 ADD PUSH1 0x20 PUSH1 0x40 MLOAD DUP1 DUP4 SUB DUP2 DUP7 GAS STATICCALL ISZERO DUP1 ISZERO PUSH2 0xFFE JUMPI RETURNDATASIZE PUSH1 0x0 DUP1 RETURNDATACOPY RETURNDATASIZE PUSH1 0x0 REVERT JUMPDEST POP POP POP POP PUSH1 0x40 MLOAD RETURNDATASIZE PUSH1 0x1F NOT PUSH1 0x1F DUP3 ADD AND DUP3 ADD DUP1 PUSH1 0x40 MSTORE POP DUP2 ADD SWAP1 PUSH2 0x1022 SWAP2 SWAP1 PUSH2 0x1DDD JUMP JUMPDEST SWAP1 POP PUSH1 0x0 SELFBALANCE SWAP1 POP PUSH32 0x0 PUSH1 0x1 PUSH1 0x1 PUSH1 0xA0 SHL SUB AND PUSH4 0x9F82B217 PUSH1 0x40 MLOAD DUP2 PUSH4 0xFFFFFFFF AND PUSH1 0xE0 SHL DUP2 MSTORE PUSH1 0x4 ADD PUSH1 0x20 PUSH1 0x40 MLOAD DUP1 DUP4 SUB DUP2 DUP7 GAS STATICCALL ISZERO DUP1 ISZERO PUSH2 0x1087 JUMPI RETURNDATASIZE PUSH1 0x0 DUP1 RETURNDATACOPY RETURNDATASIZE PUSH1 0x0 REVERT JUMPDEST POP POP POP POP PUSH1 0x40 MLOAD RETURNDATASIZE PUSH1 0x1F NOT PUSH1 0x1F DUP3 ADD AND DUP3 ADD DUP1 PUSH1 0x40 MSTORE POP DUP2 ADD SWAP1 PUSH2 0x10AB SWAP2 SWAP1 PUSH2 0x1D08 JUMP JUMPDEST PUSH1 0x40 MLOAD PUSH4 0xBB075AF PUSH1 0xE1 SHL DUP2 MSTORE PUSH1 0x1 PUSH1 0x1 PUSH1 0xA0 SHL SUB DUP9 DUP2 AND PUSH1 0x4 DUP4 ADD MSTORE SWAP2 SWAP1 SWAP2 AND SWAP1 PUSH4 0x1760EB5E SWAP1 PUSH1 0x24 ADD PUSH1 0x20 PUSH1 0x40 MLOAD DUP1 DUP4 SUB DUP2 DUP7 GAS STATICCALL ISZERO DUP1 ISZERO PUSH2 0x10F3 JUMPI RETURNDATASIZE PUSH1 0x0 DUP1 RETURNDATACOPY RETURNDATASIZE PUSH1 0x0 REVERT JUMPDEST POP POP POP POP PUSH1 0x40 MLOAD RETURNDATASIZE PUSH1 0x1F NOT PUSH1 0x1F DUP3 ADD AND DUP3 ADD DUP1 PUSH1 0x40 MSTORE POP DUP2 ADD SWAP1 PUSH2 0x1117 SWAP2 SWAP1 PUSH2 0x1D9B JUMP JUMPDEST PUSH1 0x0 SUB PUSH2 0x112E JUMPI PUSH2 0x1129 DUP7 DUP7 DUP5 PUSH2 0x130B JUMP JUMPDEST PUSH2 0x119A JUMP JUMPDEST PUSH1 0x40 MLOAD PUSH4 0xD2680E9 PUSH1 0xE1 SHL DUP2 MSTORE PUSH1 0x4 DUP2 ADD DUP7 SWAP1 MSTORE PUSH1 0xF DUP4 SWAP1 SIGNEXTEND PUSH1 0x24 DUP3 ADD MSTORE PUSH1 0x0 PUSH1 0x44 DUP3 ADD MSTORE PUSH1 0x1 PUSH1 0x1 PUSH1 0xA0 SHL SUB DUP8 AND SWAP1 PUSH4 0x1A4D01D2 SWAP1 PUSH1 0x64 ADD PUSH1 0x0 PUSH1 0x40 MLOAD DUP1 DUP4 SUB DUP2 PUSH1 0x0 DUP8 DUP1 EXTCODESIZE ISZERO DUP1 ISZERO PUSH2 0x1181 JUMPI PUSH1 0x0 DUP1 REVERT JUMPDEST POP GAS CALL ISZERO DUP1 ISZERO PUSH2 0x1195 JUMPI RETURNDATASIZE PUSH1 0x0 DUP1 RETURNDATACOPY RETURNDATASIZE PUSH1 0x0 REVERT JUMPDEST POP POP POP POP JUMPDEST DUP3 ISZERO PUSH2 0x11B7 JUMPI PUSH1 0x0 PUSH2 0x11AC DUP3 SELFBALANCE PUSH2 0x1DCA JUMP JUMPDEST SWAP1 POP PUSH2 0xEE9 DUP2 PUSH2 0x17F9 JUMP JUMPDEST POP POP POP POP POP POP JUMP JUMPDEST PUSH1 0x40 MLOAD PUSH4 0x6EB1769F PUSH1 0xE1 SHL DUP2 MSTORE ADDRESS PUSH1 0x4 DUP3 ADD MSTORE PUSH1 0x1 PUSH1 0x1 PUSH1 0xA0 SHL SUB DUP4 DUP2 AND PUSH1 0x24 DUP4 ADD MSTORE PUSH1 0x0 SWAP2 DUP4 SWAP2 DUP7 AND SWAP1 PUSH4 0xDD62ED3E SWAP1 PUSH1 0x44 ADD PUSH1 0x20 PUSH1 0x40 MLOAD DUP1 DUP4 SUB DUP2 DUP7 GAS STATICCALL ISZERO DUP1 ISZERO PUSH2 0x1210 JUMPI RETURNDATASIZE PUSH1 0x0 DUP1 RETURNDATACOPY RETURNDATASIZE PUSH1 0x0 REVERT JUMPDEST POP POP POP POP PUSH1 0x40 MLOAD RETURNDATASIZE PUSH1 0x1F NOT PUSH1 0x1F DUP3 ADD AND DUP3 ADD DUP1 PUSH1 0x40 MSTORE POP DUP2 ADD SWAP1 PUSH2 0x1234 SWAP2 SWAP1 PUSH2 0x1D9B JUMP JUMPDEST PUSH2 0x123E SWAP2 SWAP1 PUSH2 0x1FCB JUMP JUMPDEST PUSH1 0x40 MLOAD PUSH1 0x1 PUSH1 0x1 PUSH1 0xA0 SHL SUB DUP6 AND PUSH1 0x24 DUP3 ADD MSTORE PUSH1 0x44 DUP2 ADD DUP3 SWAP1 MSTORE SWAP1 SWAP2 POP PUSH2 0x12A4 SWAP1 DUP6 SWAP1 PUSH4 0x95EA7B3 PUSH1 0xE0 SHL SWAP1 PUSH1 0x64 ADD JUMPDEST PUSH1 0x40 DUP1 MLOAD PUSH1 0x1F NOT DUP2 DUP5 SUB ADD DUP2 MSTORE SWAP2 SWAP1 MSTORE PUSH1 0x20 DUP2 ADD DUP1 MLOAD PUSH1 0x1 PUSH1 0x1 PUSH1 0xE0 SHL SUB AND PUSH1 0x1 PUSH1 0x1 PUSH1 0xE0 SHL SUB NOT SWAP1 SWAP4 AND SWAP3 SWAP1 SWAP3 OR SWAP1 SWAP2 MSTORE PUSH2 0x185C JUMP JUMPDEST POP POP POP POP JUMP JUMPDEST PUSH1 0x40 MLOAD PUSH4 0x2E1A7D4D PUSH1 0xE0 SHL DUP2 MSTORE PUSH1 0x4 DUP2 ADD DUP3 SWAP1 MSTORE PUSH20 0xC02AAA39B223FE8D0A0E5C4F27EAD9083C756CC2 SWAP1 PUSH4 0x2E1A7D4D SWAP1 PUSH1 0x24 ADD PUSH1 0x0 PUSH1 0x40 MLOAD DUP1 DUP4 SUB DUP2 PUSH1 0x0 DUP8 DUP1 EXTCODESIZE ISZERO DUP1 ISZERO PUSH2 0x12F7 JUMPI PUSH1 0x0 DUP1 REVERT JUMPDEST POP GAS CALL ISZERO DUP1 ISZERO PUSH2 0x3AD JUMPI RETURNDATASIZE PUSH1 0x0 DUP1 RETURNDATACOPY RETURNDATASIZE PUSH1 0x0 REVERT JUMPDEST PUSH1 0x0 PUSH32 0x0 PUSH1 0x1 PUSH1 0x1 PUSH1 0xA0 SHL SUB AND PUSH4 0x9F82B217 PUSH1 0x40 MLOAD DUP2 PUSH4 0xFFFFFFFF AND PUSH1 0xE0 SHL DUP2 MSTORE PUSH1 0x4 ADD PUSH1 0x20 PUSH1 0x40 MLOAD DUP1 DUP4 SUB DUP2 DUP7 GAS STATICCALL ISZERO DUP1 ISZERO PUSH2 0x136B JUMPI RETURNDATASIZE PUSH1 0x0 DUP1 RETURNDATACOPY RETURNDATASIZE PUSH1 0x0 REVERT JUMPDEST POP POP POP POP PUSH1 0x40 MLOAD RETURNDATASIZE PUSH1 0x1F NOT PUSH1 0x1F DUP3 ADD AND DUP3 ADD DUP1 PUSH1 0x40 MSTORE POP DUP2 ADD SWAP1 PUSH2 0x138F SWAP2 SWAP1 PUSH2 0x1D08 JUMP JUMPDEST PUSH1 0x40 MLOAD PUSH4 0x5F92E815 PUSH1 0xE1 SHL DUP2 MSTORE PUSH1 0x1 PUSH1 0x1 PUSH1 0xA0 SHL SUB DUP7 DUP2 AND PUSH1 0x4 DUP4 ADD MSTORE SWAP2 SWAP3 POP PUSH1 0x0 SWAP2 DUP4 AND SWAP1 PUSH4 0xBF25D02A SWAP1 PUSH1 0x24 ADD PUSH1 0x20 PUSH1 0x40 MLOAD DUP1 DUP4 SUB DUP2 DUP7 GAS STATICCALL ISZERO DUP1 ISZERO PUSH2 0x13DB JUMPI RETURNDATASIZE PUSH1 0x0 DUP1 RETURNDATACOPY RETURNDATASIZE PUSH1 0x0 REVERT JUMPDEST POP POP POP POP PUSH1 0x40 MLOAD RETURNDATASIZE PUSH1 0x1F NOT PUSH1 0x1F DUP3 ADD AND DUP3 ADD DUP1 PUSH1 0x40 MSTORE POP DUP2 ADD SWAP1 PUSH2 0x13FF SWAP2 SWAP1 PUSH2 0x1D9B JUMP JUMPDEST SWAP1 POP DUP1 PUSH1 0x2 SUB PUSH2 0x1477 JUMPI PUSH2 0x1411 PUSH2 0x1BDC JUMP JUMPDEST PUSH1 0x40 MLOAD PUSH4 0x16CD8E27 PUSH1 0xE2 SHL DUP2 MSTORE PUSH1 0x1 PUSH1 0x1 PUSH1 0xA0 SHL SUB DUP8 AND SWAP1 PUSH4 0x5B36389C SWAP1 PUSH2 0x143F SWAP1 DUP9 SWAP1 DUP6 SWAP1 PUSH1 0x4 ADD PUSH2 0x1FDE JUMP JUMPDEST PUSH1 0x0 PUSH1 0x40 MLOAD DUP1 DUP4 SUB DUP2 PUSH1 0x0 DUP8 DUP1 EXTCODESIZE ISZERO DUP1 ISZERO PUSH2 0x1459 JUMPI PUSH1 0x0 DUP1 REVERT JUMPDEST POP GAS CALL ISZERO DUP1 ISZERO PUSH2 0x146D JUMPI RETURNDATASIZE PUSH1 0x0 DUP1 RETURNDATACOPY RETURNDATASIZE PUSH1 0x0 REVERT JUMPDEST POP POP POP POP POP PUSH2 0x1633 JUMP JUMPDEST DUP1 PUSH1 0x3 SUB PUSH2 0x14B5 JUMPI PUSH2 0x1487 PUSH2 0x1BFA JUMP JUMPDEST PUSH1 0x40 MLOAD PUSH4 0xECB586A5 PUSH1 0xE0 SHL DUP2 MSTORE PUSH1 0x1 PUSH1 0x1 PUSH1 0xA0 SHL SUB DUP8 AND SWAP1 PUSH4 0xECB586A5 SWAP1 PUSH2 0x143F SWAP1 DUP9 SWAP1 DUP6 SWAP1 PUSH1 0x4 ADD PUSH2 0x1FF2 JUMP JUMPDEST DUP1 PUSH1 0x4 SUB PUSH2 0x14F3 JUMPI PUSH2 0x14C5 PUSH2 0x1C18 JUMP JUMPDEST PUSH1 0x40 MLOAD PUSH4 0x7D49D875 PUSH1 0xE0 SHL DUP2 MSTORE PUSH1 0x1 PUSH1 0x1 PUSH1 0xA0 SHL SUB DUP8 AND SWAP1 PUSH4 0x7D49D875 SWAP1 PUSH2 0x143F SWAP1 DUP9 SWAP1 DUP6 SWAP1 PUSH1 0x4 ADD PUSH2 0x2006 JUMP JUMPDEST DUP1 PUSH1 0x5 SUB PUSH2 0x1531 JUMPI PUSH2 0x1503 PUSH2 0x1C36 JUMP JUMPDEST PUSH1 0x40 MLOAD PUSH4 0x71DFFAE7 PUSH1 0xE1 SHL DUP2 MSTORE PUSH1 0x1 PUSH1 0x1 PUSH1 0xA0 SHL SUB DUP8 AND SWAP1 PUSH4 0xE3BFF5CE SWAP1 PUSH2 0x143F SWAP1 DUP9 SWAP1 DUP6 SWAP1 PUSH1 0x4 ADD PUSH2 0x201A JUMP JUMPDEST DUP1 PUSH1 0x6 SUB PUSH2 0x156F JUMPI PUSH2 0x1541 PUSH2 0x1C54 JUMP JUMPDEST PUSH1 0x40 MLOAD PUSH4 0x684916A5 PUSH1 0xE0 SHL DUP2 MSTORE PUSH1 0x1 PUSH1 0x1 PUSH1 0xA0 SHL SUB DUP8 AND SWAP1 PUSH4 0x684916A5 SWAP1 PUSH2 0x143F SWAP1 DUP9 SWAP1 DUP6 SWAP1 PUSH1 0x4 ADD PUSH2 0x202E JUMP JUMPDEST DUP1 PUSH1 0x7 SUB PUSH2 0x15AD JUMPI PUSH2 0x157F PUSH2 0x1C72 JUMP JUMPDEST PUSH1 0x40 MLOAD PUSH4 0x5C912D2B PUSH1 0xE0 SHL DUP2 MSTORE PUSH1 0x1 PUSH1 0x1 PUSH1 0xA0 SHL SUB DUP8 AND SWAP1 PUSH4 0x5C912D2B SWAP1 PUSH2 0x143F SWAP1 DUP9 SWAP1 DUP6 SWAP1 PUSH1 0x4 ADD PUSH2 0x2042 JUMP JUMPDEST DUP1 PUSH1 0x8 SUB PUSH2 0x15EB JUMPI PUSH2 0x15BD PUSH2 0x1C90 JUMP JUMPDEST PUSH1 0x40 MLOAD PUSH4 0x3FEC6549 PUSH1 0xE0 SHL DUP2 MSTORE PUSH1 0x1 PUSH1 0x1 PUSH1 0xA0 SHL SUB DUP8 AND SWAP1 PUSH4 0x3FEC6549 SWAP1 PUSH2 0x143F SWAP1 DUP9 SWAP1 DUP6 SWAP1 PUSH1 0x4 ADD PUSH2 0x2057 JUMP JUMPDEST PUSH1 0x40 MLOAD PUSH3 0x461BCD PUSH1 0xE5 SHL DUP2 MSTORE PUSH1 0x20 PUSH1 0x4 DUP3 ADD MSTORE PUSH1 0x1F PUSH1 0x24 DUP3 ADD MSTORE PUSH32 0x437572766548616E646C65723A20756E737570706F7274656420636F696E7300 PUSH1 0x44 DUP3 ADD MSTORE PUSH1 0x64 ADD PUSH2 0x231 JUMP JUMPDEST PUSH1 0x0 JUMPDEST DUP2 DUP2 LT ISZERO PUSH2 0x11B7 JUMPI DUP4 PUSH1 0xF SIGNEXTEND DUP2 SUB ISZERO PUSH2 0x17E7 JUMPI PUSH1 0x40 MLOAD PUSH4 0xFA1EF51 PUSH1 0xE3 SHL DUP2 MSTORE PUSH1 0x1 PUSH1 0x1 PUSH1 0xA0 SHL SUB DUP8 DUP2 AND PUSH1 0x4 DUP4 ADD MSTORE PUSH1 0x0 SWAP2 SWAP1 DUP6 AND SWAP1 PUSH4 0x7D0F7A88 SWAP1 PUSH1 0x24 ADD PUSH1 0x0 PUSH1 0x40 MLOAD DUP1 DUP4 SUB DUP2 DUP7 GAS STATICCALL ISZERO DUP1 ISZERO PUSH2 0x1693 JUMPI RETURNDATASIZE PUSH1 0x0 DUP1 RETURNDATACOPY RETURNDATASIZE PUSH1 0x0 REVERT JUMPDEST POP POP POP POP PUSH1 0x40 MLOAD RETURNDATASIZE PUSH1 0x0 DUP3 RETURNDATACOPY PUSH1 0x1F RETURNDATASIZE SWAP1 DUP2 ADD PUSH1 0x1F NOT AND DUP3 ADD PUSH1 0x40 MSTORE PUSH2 0x16BB SWAP2 SWAP1 DUP2 ADD SWAP1 PUSH2 0x2082 JUMP JUMPDEST SWAP1 POP PUSH1 0x0 DUP2 DUP4 DUP2 MLOAD DUP2 LT PUSH2 0x16D1 JUMPI PUSH2 0x16D1 PUSH2 0x1E00 JUMP JUMPDEST PUSH1 0x20 SWAP1 DUP2 MUL SWAP2 SWAP1 SWAP2 ADD ADD MLOAD PUSH1 0x40 MLOAD PUSH4 0x70A08231 PUSH1 0xE0 SHL DUP2 MSTORE ADDRESS PUSH1 0x4 DUP3 ADD MSTORE SWAP1 SWAP2 POP PUSH1 0x0 SWAP1 PUSH1 0x1 PUSH1 0x1 PUSH1 0xA0 SHL SUB DUP4 AND SWAP1 PUSH4 0x70A08231 SWAP1 PUSH1 0x24 ADD PUSH1 0x20 PUSH1 0x40 MLOAD DUP1 DUP4 SUB DUP2 DUP7 GAS STATICCALL ISZERO DUP1 ISZERO PUSH2 0x1726 JUMPI RETURNDATASIZE PUSH1 0x0 DUP1 RETURNDATACOPY RETURNDATASIZE PUSH1 0x0 REVERT JUMPDEST POP POP POP POP PUSH1 0x40 MLOAD RETURNDATASIZE PUSH1 0x1F NOT PUSH1 0x1F DUP3 ADD AND DUP3 ADD DUP1 PUSH1 0x40 MSTORE POP DUP2 ADD SWAP1 PUSH2 0x174A SWAP2 SWAP1 PUSH2 0x1D9B JUMP JUMPDEST SWAP1 POP DUP1 PUSH1 0x0 SUB PUSH2 0x175C JUMPI POP POP POP PUSH2 0x17E7 JUMP JUMPDEST PUSH2 0x1770 PUSH1 0x1 PUSH1 0x1 PUSH1 0xA0 SHL SUB DUP4 AND DUP11 DUP4 PUSH2 0x1933 JUMP JUMPDEST PUSH1 0x40 MLOAD PUSH4 0xF7C0849 PUSH1 0xE2 SHL DUP2 MSTORE PUSH1 0xF DUP6 DUP2 SIGNEXTEND PUSH1 0x4 DUP4 ADD MSTORE DUP9 SWAP1 SIGNEXTEND PUSH1 0x24 DUP3 ADD MSTORE PUSH1 0x44 DUP2 ADD DUP3 SWAP1 MSTORE PUSH1 0x0 PUSH1 0x64 DUP3 ADD MSTORE PUSH1 0x1 PUSH1 0x1 PUSH1 0xA0 SHL SUB DUP11 AND SWAP1 PUSH4 0x3DF02124 SWAP1 PUSH1 0x84 ADD PUSH1 0x0 PUSH1 0x40 MLOAD DUP1 DUP4 SUB DUP2 PUSH1 0x0 DUP8 DUP1 EXTCODESIZE ISZERO DUP1 ISZERO PUSH2 0x17CB JUMPI PUSH1 0x0 DUP1 REVERT JUMPDEST POP GAS CALL ISZERO DUP1 ISZERO PUSH2 0x17DF JUMPI RETURNDATASIZE PUSH1 0x0 DUP1 RETURNDATACOPY RETURNDATASIZE PUSH1 0x0 REVERT JUMPDEST POP POP POP POP POP POP POP JUMPDEST DUP1 PUSH2 0x17F1 DUP2 PUSH2 0x2147 JUMP JUMPDEST SWAP2 POP POP PUSH2 0x1636 JUMP JUMPDEST PUSH20 0xC02AAA39B223FE8D0A0E5C4F27EAD9083C756CC2 PUSH1 0x1 PUSH1 0x1 PUSH1 0xA0 SHL SUB AND PUSH4 0xD0E30DB0 DUP3 PUSH1 0x40 MLOAD DUP3 PUSH4 0xFFFFFFFF AND PUSH1 0xE0 SHL DUP2 MSTORE PUSH1 0x4 ADD PUSH1 0x0 PUSH1 0x40 MLOAD DUP1 DUP4 SUB DUP2 DUP6 DUP9 DUP1 EXTCODESIZE ISZERO DUP1 ISZERO PUSH2 0x1848 JUMPI PUSH1 0x0 DUP1 REVERT JUMPDEST POP GAS CALL ISZERO DUP1 ISZERO PUSH2 0x11B7 JUMPI RETURNDATASIZE PUSH1 0x0 DUP1 RETURNDATACOPY RETURNDATASIZE PUSH1 0x0 REVERT JUMPDEST PUSH1 0x0 PUSH2 0x18B1 DUP3 PUSH1 0x40 MLOAD DUP1 PUSH1 0x40 ADD PUSH1 0x40 MSTORE DUP1 PUSH1 0x20 DUP2 MSTORE PUSH1 0x20 ADD PUSH32 0x5361666545524332303A206C6F772D6C6576656C2063616C6C206661696C6564 DUP2 MSTORE POP DUP6 PUSH1 0x1 PUSH1 0x1 PUSH1 0xA0 SHL SUB AND PUSH2 0x1A48 SWAP1 SWAP3 SWAP2 SWAP1 PUSH4 0xFFFFFFFF AND JUMP JUMPDEST DUP1 MLOAD SWAP1 SWAP2 POP ISZERO PUSH2 0x192E JUMPI DUP1 DUP1 PUSH1 0x20 ADD SWAP1 MLOAD DUP2 ADD SWAP1 PUSH2 0x18CF SWAP2 SWAP1 PUSH2 0x1D25 JUMP JUMPDEST PUSH2 0x192E JUMPI PUSH1 0x40 MLOAD PUSH3 0x461BCD PUSH1 0xE5 SHL DUP2 MSTORE PUSH1 0x20 PUSH1 0x4 DUP3 ADD MSTORE PUSH1 0x2A PUSH1 0x24 DUP3 ADD MSTORE PUSH32 0x5361666545524332303A204552433230206F7065726174696F6E20646964206E PUSH1 0x44 DUP3 ADD MSTORE PUSH10 0x1BDD081CDD58D8D95959 PUSH1 0xB2 SHL PUSH1 0x64 DUP3 ADD MSTORE PUSH1 0x84 ADD PUSH2 0x231 JUMP JUMPDEST POP POP POP JUMP JUMPDEST DUP1 ISZERO DUP1 PUSH2 0x19AD JUMPI POP PUSH1 0x40 MLOAD PUSH4 0x6EB1769F PUSH1 0xE1 SHL DUP2 MSTORE ADDRESS PUSH1 0x4 DUP3 ADD MSTORE PUSH1 0x1 PUSH1 0x1 PUSH1 0xA0 SHL SUB DUP4 DUP2 AND PUSH1 0x24 DUP4 ADD MSTORE DUP5 AND SWAP1 PUSH4 0xDD62ED3E SWAP1 PUSH1 0x44 ADD PUSH1 0x20 PUSH1 0x40 MLOAD DUP1 DUP4 SUB DUP2 DUP7 GAS STATICCALL ISZERO DUP1 ISZERO PUSH2 0x1987 JUMPI RETURNDATASIZE PUSH1 0x0 DUP1 RETURNDATACOPY RETURNDATASIZE PUSH1 0x0 REVERT JUMPDEST POP POP POP POP PUSH1 0x40 MLOAD RETURNDATASIZE PUSH1 0x1F NOT PUSH1 0x1F DUP3 ADD AND DUP3 ADD DUP1 PUSH1 0x40 MSTORE POP DUP2 ADD SWAP1 PUSH2 0x19AB SWAP2 SWAP1 PUSH2 0x1D9B JUMP JUMPDEST ISZERO JUMPDEST PUSH2 0x1A18 JUMPI PUSH1 0x40 MLOAD PUSH3 0x461BCD PUSH1 0xE5 SHL DUP2 MSTORE PUSH1 0x20 PUSH1 0x4 DUP3 ADD MSTORE PUSH1 0x36 PUSH1 0x24 DUP3 ADD MSTORE PUSH32 0x5361666545524332303A20617070726F76652066726F6D206E6F6E2D7A65726F PUSH1 0x44 DUP3 ADD MSTORE PUSH22 0x20746F206E6F6E2D7A65726F20616C6C6F77616E6365 PUSH1 0x50 SHL PUSH1 0x64 DUP3 ADD MSTORE PUSH1 0x84 ADD PUSH2 0x231 JUMP JUMPDEST PUSH1 0x40 MLOAD PUSH1 0x1 PUSH1 0x1 PUSH1 0xA0 SHL SUB DUP4 AND PUSH1 0x24 DUP3 ADD MSTORE PUSH1 0x44 DUP2 ADD DUP3 SWAP1 MSTORE PUSH2 0x192E SWAP1 DUP5 SWAP1 PUSH4 0x95EA7B3 PUSH1 0xE0 SHL SWAP1 PUSH1 0x64 ADD PUSH2 0x126D JUMP JUMPDEST PUSH1 0x60 PUSH2 0x1A57 DUP5 DUP5 PUSH1 0x0 DUP6 PUSH2 0x1A61 JUMP JUMPDEST SWAP1 POP JUMPDEST SWAP4 SWAP3 POP POP POP JUMP JUMPDEST PUSH1 0x60 DUP3 SELFBALANCE LT ISZERO PUSH2 0x1AC2 JUMPI PUSH1 0x40 MLOAD PUSH3 0x461BCD PUSH1 0xE5 SHL DUP2 MSTORE PUSH1 0x20 PUSH1 0x4 DUP3 ADD MSTORE PUSH1 0x26 PUSH1 0x24 DUP3 ADD MSTORE PUSH32 0x416464726573733A20696E73756666696369656E742062616C616E636520666F PUSH1 0x44 DUP3 ADD MSTORE PUSH6 0x1C8818D85B1B PUSH1 0xD2 SHL PUSH1 0x64 DUP3 ADD MSTORE PUSH1 0x84 ADD PUSH2 0x231 JUMP JUMPDEST PUSH1 0x0 DUP1 DUP7 PUSH1 0x1 PUSH1 0x1 PUSH1 0xA0 SHL SUB AND DUP6 DUP8 PUSH1 0x40 MLOAD PUSH2 0x1ADE SWAP2 SWAP1 PUSH2 0x2184 JUMP JUMPDEST PUSH1 0x0 PUSH1 0x40 MLOAD DUP1 DUP4 SUB DUP2 DUP6 DUP8 GAS CALL SWAP3 POP POP POP RETURNDATASIZE DUP1 PUSH1 0x0 DUP2 EQ PUSH2 0x1B1B JUMPI PUSH1 0x40 MLOAD SWAP2 POP PUSH1 0x1F NOT PUSH1 0x3F RETURNDATASIZE ADD AND DUP3 ADD PUSH1 0x40 MSTORE RETURNDATASIZE DUP3 MSTORE RETURNDATASIZE PUSH1 0x0 PUSH1 0x20 DUP5 ADD RETURNDATACOPY PUSH2 0x1B20 JUMP JUMPDEST PUSH1 0x60 SWAP2 POP JUMPDEST POP SWAP2 POP SWAP2 POP PUSH2 0x1B31 DUP8 DUP4 DUP4 DUP8 PUSH2 0x1B3E JUMP JUMPDEST SWAP3 POP POP POP JUMPDEST SWAP5 SWAP4 POP POP POP POP JUMP JUMPDEST PUSH1 0x60 DUP4 ISZERO PUSH2 0x1BAD JUMPI DUP3 MLOAD PUSH1 0x0 SUB PUSH2 0x1BA6 JUMPI PUSH1 0x1 PUSH1 0x1 PUSH1 0xA0 SHL SUB DUP6 AND EXTCODESIZE PUSH2 0x1BA6 JUMPI PUSH1 0x40 MLOAD PUSH3 0x461BCD PUSH1 0xE5 SHL DUP2 MSTORE PUSH1 0x20 PUSH1 0x4 DUP3 ADD MSTORE PUSH1 0x1D PUSH1 0x24 DUP3 ADD MSTORE PUSH32 0x416464726573733A2063616C6C20746F206E6F6E2D636F6E7472616374000000 PUSH1 0x44 DUP3 ADD MSTORE PUSH1 0x64 ADD PUSH2 0x231 JUMP JUMPDEST POP DUP2 PUSH2 0x1B36 JUMP JUMPDEST PUSH2 0x1B36 DUP4 DUP4 DUP2 MLOAD ISZERO PUSH2 0x1BC2 JUMPI DUP2 MLOAD DUP1 DUP4 PUSH1 0x20 ADD REVERT JUMPDEST DUP1 PUSH1 0x40 MLOAD PUSH3 0x461BCD PUSH1 0xE5 SHL DUP2 MSTORE PUSH1 0x4 ADD PUSH2 0x231 SWAP2 SWAP1 PUSH2 0x21A0 JUMP JUMPDEST PUSH1 0x40 MLOAD DUP1 PUSH1 0x40 ADD PUSH1 0x40 MSTORE DUP1 PUSH1 0x2 SWAP1 PUSH1 0x20 DUP3 MUL DUP1 CALLDATASIZE DUP4 CALLDATACOPY POP SWAP2 SWAP3 SWAP2 POP POP JUMP JUMPDEST PUSH1 0x40 MLOAD DUP1 PUSH1 0x60 ADD PUSH1 0x40 MSTORE DUP1 PUSH1 0x3 SWAP1 PUSH1 0x20 DUP3 MUL DUP1 CALLDATASIZE DUP4 CALLDATACOPY POP SWAP2 SWAP3 SWAP2 POP POP JUMP JUMPDEST PUSH1 0x40 MLOAD DUP1 PUSH1 0x80 ADD PUSH1 0x40 MSTORE DUP1 PUSH1 0x4 SWAP1 PUSH1 0x20 DUP3 MUL DUP1 CALLDATASIZE DUP4 CALLDATACOPY POP SWAP2 SWAP3 SWAP2 POP POP JUMP JUMPDEST PUSH1 0x40 MLOAD DUP1 PUSH1 0xA0 ADD PUSH1 0x40 MSTORE DUP1 PUSH1 0x5 SWAP1 PUSH1 0x20 DUP3 MUL DUP1 CALLDATASIZE DUP4 CALLDATACOPY POP SWAP2 SWAP3 SWAP2 POP POP JUMP JUMPDEST PUSH1 0x40 MLOAD DUP1 PUSH1 0xC0 ADD PUSH1 0x40 MSTORE DUP1 PUSH1 0x6 SWAP1 PUSH1 0x20 DUP3 MUL DUP1 CALLDATASIZE DUP4 CALLDATACOPY POP SWAP2 SWAP3 SWAP2 POP POP JUMP JUMPDEST PUSH1 0x40 MLOAD DUP1 PUSH1 0xE0 ADD PUSH1 0x40 MSTORE DUP1 PUSH1 0x7 SWAP1 PUSH1 0x20 DUP3 MUL DUP1 CALLDATASIZE DUP4 CALLDATACOPY POP SWAP2 SWAP3 SWAP2 POP POP JUMP JUMPDEST PUSH1 0x40 MLOAD DUP1 PUSH2 0x100 ADD PUSH1 0x40 MSTORE DUP1 PUSH1 0x8 SWAP1 PUSH1 0x20 DUP3 MUL DUP1 CALLDATASIZE DUP4 CALLDATACOPY POP SWAP2 SWAP3 SWAP2 POP POP JUMP JUMPDEST PUSH1 0x1 PUSH1 0x1 PUSH1 0xA0 SHL SUB DUP2 AND DUP2 EQ PUSH2 0x1CC4 JUMPI PUSH1 0x0 DUP1 REVERT JUMPDEST POP JUMP JUMPDEST PUSH1 0x0 DUP1 PUSH1 0x0 PUSH1 0x60 DUP5 DUP7 SUB SLT ISZERO PUSH2 0x1CDC JUMPI PUSH1 0x0 DUP1 REVERT JUMPDEST DUP4 CALLDATALOAD PUSH2 0x1CE7 DUP2 PUSH2 0x1CAF JUMP JUMPDEST SWAP3 POP PUSH1 0x20 DUP5 ADD CALLDATALOAD PUSH2 0x1CF7 DUP2 PUSH2 0x1CAF JUMP JUMPDEST SWAP3 SWAP6 SWAP3 SWAP5 POP POP POP PUSH1 0x40 SWAP2 SWAP1 SWAP2 ADD CALLDATALOAD SWAP1 JUMP JUMPDEST PUSH1 0x0 PUSH1 0x20 DUP3 DUP5 SUB SLT ISZERO PUSH2 0x1D1A JUMPI PUSH1 0x0 DUP1 REVERT JUMPDEST DUP2 MLOAD PUSH2 0x1A5A DUP2 PUSH2 0x1CAF JUMP JUMPDEST PUSH1 0x0 PUSH1 0x20 DUP3 DUP5 SUB SLT ISZERO PUSH2 0x1D37 JUMPI PUSH1 0x0 DUP1 REVERT JUMPDEST DUP2 MLOAD DUP1 ISZERO ISZERO DUP2 EQ PUSH2 0x1A5A JUMPI PUSH1 0x0 DUP1 REVERT JUMPDEST DUP1 MLOAD PUSH2 0x1D52 DUP2 PUSH2 0x1CAF JUMP JUMPDEST SWAP2 SWAP1 POP JUMP JUMPDEST PUSH1 0x20 DUP1 DUP3 MSTORE PUSH1 0x24 SWAP1 DUP3 ADD MSTORE PUSH32 0x437572766548616E646C65723A20696E7465726D656469617465206E6F742066 PUSH1 0x40 DUP3 ADD MSTORE PUSH4 0x1BDD5B99 PUSH1 0xE2 SHL PUSH1 0x60 DUP3 ADD MSTORE PUSH1 0x80 ADD SWAP1 JUMP JUMPDEST PUSH1 0x0 PUSH1 0x20 DUP3 DUP5 SUB SLT ISZERO PUSH2 0x1DAD JUMPI PUSH1 0x0 DUP1 REVERT JUMPDEST POP MLOAD SWAP2 SWAP1 POP JUMP JUMPDEST PUSH4 0x4E487B71 PUSH1 0xE0 SHL PUSH1 0x0 MSTORE PUSH1 0x11 PUSH1 0x4 MSTORE PUSH1 0x24 PUSH1 0x0 REVERT JUMPDEST DUP2 DUP2 SUB DUP2 DUP2 GT ISZERO PUSH2 0x829 JUMPI PUSH2 0x829 PUSH2 0x1DB4 JUMP JUMPDEST PUSH1 0x0 PUSH1 0x20 DUP3 DUP5 SUB SLT ISZERO PUSH2 0x1DEF JUMPI PUSH1 0x0 DUP1 REVERT JUMPDEST DUP2 MLOAD DUP1 PUSH1 0xF SIGNEXTEND DUP2 EQ PUSH2 0x1A5A JUMPI PUSH1 0x0 DUP1 REVERT JUMPDEST PUSH4 0x4E487B71 PUSH1 0xE0 SHL PUSH1 0x0 MSTORE PUSH1 0x32 PUSH1 0x4 MSTORE PUSH1 0x24 PUSH1 0x0 REVERT JUMPDEST DUP1 PUSH1 0x0 JUMPDEST PUSH1 0x2 DUP2 LT ISZERO PUSH2 0x12A4 JUMPI DUP2 MLOAD DUP5 MSTORE PUSH1 0x20 SWAP4 DUP5 ADD SWAP4 SWAP1 SWAP2 ADD SWAP1 PUSH1 0x1 ADD PUSH2 0x1E1A JUMP JUMPDEST PUSH1 0x60 DUP2 ADD PUSH2 0x1E47 DUP3 DUP6 PUSH2 0x1E16 JUMP JUMPDEST DUP3 PUSH1 0x40 DUP4 ADD MSTORE SWAP4 SWAP3 POP POP POP JUMP JUMPDEST DUP1 PUSH1 0x0 JUMPDEST PUSH1 0x3 DUP2 LT ISZERO PUSH2 0x12A4 JUMPI DUP2 MLOAD DUP5 MSTORE PUSH1 0x20 SWAP4 DUP5 ADD SWAP4 SWAP1 SWAP2 ADD SWAP1 PUSH1 0x1 ADD PUSH2 0x1E58 JUMP JUMPDEST PUSH1 0x80 DUP2 ADD PUSH2 0x1E85 DUP3 DUP6 PUSH2 0x1E54 JUMP JUMPDEST DUP3 PUSH1 0x60 DUP4 ADD MSTORE SWAP4 SWAP3 POP POP POP JUMP JUMPDEST DUP1 PUSH1 0x0 JUMPDEST PUSH1 0x4 DUP2 LT ISZERO PUSH2 0x12A4 JUMPI DUP2 MLOAD DUP5 MSTORE PUSH1 0x20 SWAP4 DUP5 ADD SWAP4 SWAP1 SWAP2 ADD SWAP1 PUSH1 0x1 ADD PUSH2 0x1E96 JUMP JUMPDEST PUSH1 0xA0 DUP2 ADD PUSH2 0x1EC3 DUP3 DUP6 PUSH2 0x1E92 JUMP JUMPDEST DUP3 PUSH1 0x80 DUP4 ADD MSTORE SWAP4 SWAP3 POP POP POP JUMP JUMPDEST DUP1 PUSH1 0x0 JUMPDEST PUSH1 0x5 DUP2 LT ISZERO PUSH2 0x12A4 JUMPI DUP2 MLOAD DUP5 MSTORE PUSH1 0x20 SWAP4 DUP5 ADD SWAP4 SWAP1 SWAP2 ADD SWAP1 PUSH1 0x1 ADD PUSH2 0x1ED4 JUMP JUMPDEST PUSH1 0xC0 DUP2 ADD PUSH2 0x1F01 DUP3 DUP6 PUSH2 0x1ED0 JUMP JUMPDEST DUP3 PUSH1 0xA0 DUP4 ADD MSTORE SWAP4 SWAP3 POP POP POP JUMP JUMPDEST DUP1 PUSH1 0x0 JUMPDEST PUSH1 0x6 DUP2 LT ISZERO PUSH2 0x12A4 JUMPI DUP2 MLOAD DUP5 MSTORE PUSH1 0x20 SWAP4 DUP5 ADD SWAP4 SWAP1 SWAP2 ADD SWAP1 PUSH1 0x1 ADD PUSH2 0x1F12 JUMP JUMPDEST PUSH1 0xE0 DUP2 ADD PUSH2 0x1F3F DUP3 DUP6 PUSH2 0x1F0E JUMP JUMPDEST DUP3 PUSH1 0xC0 DUP4 ADD MSTORE SWAP4 SWAP3 POP POP POP JUMP JUMPDEST DUP1 PUSH1 0x0 JUMPDEST PUSH1 0x7 DUP2 LT ISZERO PUSH2 0x12A4 JUMPI DUP2 MLOAD DUP5 MSTORE PUSH1 0x20 SWAP4 DUP5 ADD SWAP4 SWAP1 SWAP2 ADD SWAP1 PUSH1 0x1 ADD PUSH2 0x1F50 JUMP JUMPDEST PUSH2 0x100 DUP2 ADD PUSH2 0x1F7E DUP3 DUP6 PUSH2 0x1F4C JUMP JUMPDEST DUP3 PUSH1 0xE0 DUP4 ADD MSTORE SWAP4 SWAP3 POP POP POP JUMP JUMPDEST DUP1 PUSH1 0x0 JUMPDEST PUSH1 0x8 DUP2 LT ISZERO PUSH2 0x12A4 JUMPI DUP2 MLOAD DUP5 MSTORE PUSH1 0x20 SWAP4 DUP5 ADD SWAP4 SWAP1 SWAP2 ADD SWAP1 PUSH1 0x1 ADD PUSH2 0x1F8F JUMP JUMPDEST PUSH2 0x120 DUP2 ADD PUSH2 0x1FBD DUP3 DUP6 PUSH2 0x1F8B JUMP JUMPDEST DUP3 PUSH2 0x100 DUP4 ADD MSTORE SWAP4 SWAP3 POP POP POP JUMP JUMPDEST DUP1 DUP3 ADD DUP1 DUP3 GT ISZERO PUSH2 0x829 JUMPI PUSH2 0x829 PUSH2 0x1DB4 JUMP JUMPDEST DUP3 DUP2 MSTORE PUSH1 0x60 DUP2 ADD PUSH2 0x1A5A PUSH1 0x20 DUP4 ADD DUP5 PUSH2 0x1E16 JUMP JUMPDEST DUP3 DUP2 MSTORE PUSH1 0x80 DUP2 ADD PUSH2 0x1A5A PUSH1 0x20 DUP4 ADD DUP5 PUSH2 0x1E54 JUMP JUMPDEST DUP3 DUP2 MSTORE PUSH1 0xA0 DUP2 ADD PUSH2 0x1A5A PUSH1 0x20 DUP4 ADD DUP5 PUSH2 0x1E92 JUMP JUMPDEST DUP3 DUP2 MSTORE PUSH1 0xC0 DUP2 ADD PUSH2 0x1A5A PUSH1 0x20 DUP4 ADD DUP5 PUSH2 0x1ED0 JUMP JUMPDEST DUP3 DUP2 MSTORE PUSH1 0xE0 DUP2 ADD PUSH2 0x1A5A PUSH1 0x20 DUP4 ADD DUP5 PUSH2 0x1F0E JUMP JUMPDEST DUP3 DUP2 MSTORE PUSH2 0x100 DUP2 ADD PUSH2 0x1A5A PUSH1 0x20 DUP4 ADD DUP5 PUSH2 0x1F4C JUMP JUMPDEST DUP3 DUP2 MSTORE PUSH2 0x120 DUP2 ADD PUSH2 0x1A5A PUSH1 0x20 DUP4 ADD DUP5 PUSH2 0x1F8B JUMP JUMPDEST PUSH4 0x4E487B71 PUSH1 0xE0 SHL PUSH1 0x0 MSTORE PUSH1 0x41 PUSH1 0x4 MSTORE PUSH1 0x24 PUSH1 0x0 REVERT JUMPDEST PUSH1 0x0 PUSH1 0x20 DUP1 DUP4 DUP6 SUB SLT ISZERO PUSH2 0x2095 JUMPI PUSH1 0x0 DUP1 REVERT JUMPDEST DUP3 MLOAD PUSH8 0xFFFFFFFFFFFFFFFF DUP1 DUP3 GT ISZERO PUSH2 0x20AD JUMPI PUSH1 0x0 DUP1 REVERT JUMPDEST DUP2 DUP6 ADD SWAP2 POP DUP6 PUSH1 0x1F DUP4 ADD SLT PUSH2 0x20C1 JUMPI PUSH1 0x0 DUP1 REVERT JUMPDEST DUP2 MLOAD DUP2 DUP2 GT ISZERO PUSH2 0x20D3 JUMPI PUSH2 0x20D3 PUSH2 0x206C JUMP JUMPDEST DUP1 PUSH1 0x5 SHL PUSH1 0x40 MLOAD PUSH1 0x1F NOT PUSH1 0x3F DUP4 ADD AND DUP2 ADD DUP2 DUP2 LT DUP6 DUP3 GT OR ISZERO PUSH2 0x20F8 JUMPI PUSH2 0x20F8 PUSH2 0x206C JUMP JUMPDEST PUSH1 0x40 MSTORE SWAP2 DUP3 MSTORE DUP5 DUP3 ADD SWAP3 POP DUP4 DUP2 ADD DUP6 ADD SWAP2 DUP9 DUP4 GT ISZERO PUSH2 0x2116 JUMPI PUSH1 0x0 DUP1 REVERT JUMPDEST SWAP4 DUP6 ADD SWAP4 JUMPDEST DUP3 DUP6 LT ISZERO PUSH2 0x213B JUMPI PUSH2 0x212C DUP6 PUSH2 0x1D47 JUMP JUMPDEST DUP5 MSTORE SWAP4 DUP6 ADD SWAP4 SWAP3 DUP6 ADD SWAP3 PUSH2 0x211B JUMP JUMPDEST SWAP9 SWAP8 POP POP POP POP POP POP POP POP JUMP JUMPDEST PUSH1 0x0 PUSH1 0x1 DUP3 ADD PUSH2 0x2159 JUMPI PUSH2 0x2159 PUSH2 0x1DB4 JUMP JUMPDEST POP PUSH1 0x1 ADD SWAP1 JUMP JUMPDEST PUSH1 0x0 JUMPDEST DUP4 DUP2 LT ISZERO PUSH2 0x217B JUMPI DUP2 DUP2 ADD MLOAD DUP4 DUP3 ADD MSTORE PUSH1 0x20 ADD PUSH2 0x2163 JUMP JUMPDEST POP POP PUSH1 0x0 SWAP2 ADD MSTORE JUMP JUMPDEST PUSH1 0x0 DUP3 MLOAD PUSH2 0x2196 DUP2 DUP5 PUSH1 0x20 DUP8 ADD PUSH2 0x2160 JUMP JUMPDEST SWAP2 SWAP1 SWAP2 ADD SWAP3 SWAP2 POP POP JUMP JUMPDEST PUSH1 0x20 DUP2 MSTORE PUSH1 0x0 DUP3 MLOAD DUP1 PUSH1 0x20 DUP5 ADD MSTORE PUSH2 0x21BF DUP2 PUSH1 0x40 DUP6 ADD PUSH1 0x20 DUP8 ADD PUSH2 0x2160 JUMP JUMPDEST PUSH1 0x1F ADD PUSH1 0x1F NOT AND SWAP2 SWAP1 SWAP2 ADD PUSH1 0x40 ADD SWAP3 SWAP2 POP POP JUMP INVALID LOG2 PUSH5 0x6970667358 0x22 SLT KECCAK256 DUP11 REVERT PUSH25 0xF1CAC4C5629F8B9E0ECD686B9ED0018F07439F87C04E2F76A0 0xC0 CALLDATASIZE 0xC5 CALLCODE PUSH5 0x736F6C6343 STOP ADDMOD GT STOP CALLER ","sha1":"989bae56c18c377d329bec7d5325ffd281ff1ada","source":"// SPDX-License-Identifier: GPL-3.0-or-later\npragma solidity 0.8.17;\n\nimport \"@openzeppelin/contracts/token/ERC20/utils/SafeERC20.sol\";\nimport \"@openzeppelin/contracts/token/ERC20/IERC20.sol\";\n\nimport \"../interfaces/pools/ILpToken.sol\";\nimport \"../interfaces/ICurveHandler.sol\";\nimport \"../interfaces/ICurveRegistryCache.sol\";\nimport \"../interfaces/vendor/IWETH.sol\";\nimport \"../interfaces/vendor/ICurvePoolV1.sol\";\nimport \"../interfaces/vendor/ICurvePoolV0.sol\";\nimport \"../interfaces/vendor/ICurvePoolV1Eth.sol\";\nimport \"../interfaces/IController.sol\";\n\n/// @notice This contract acts as a wrapper for depositing and removing liquidity to and from Curve pools.\n/// Please be aware of the following:\n/// - This contract accepts WETH and unwraps it for Curve pool deposits\n/// - This contract should only be used through delegate calls for deposits and withdrawals\n/// - Slippage from deposits and withdrawals is handled in the ConicPool (do not use handler elsewhere)\ncontract CurveHandler is ICurveHandler {\n    using SafeERC20 for IERC20;\n\n    address internal constant _ETH_ADDRESS = 0xEeeeeEeeeEeEeeEeEeEeeEEEeeeeEeeeeeeeEEeE;\n    IWETH internal constant _WETH = IWETH(0xC02aaA39b223FE8D0A0e5C4F27eAD9083C756Cc2);\n    IController internal immutable controller;\n\n    constructor(address controller_) {\n        controller = IController(controller_);\n    }\n\n    /// @notice Deposits single sided liquidity into a Curve pool\n    /// @dev This supports both v1 and v2 (crypto) pools.\n    /// @param _curvePool Curve pool to deposit into\n    /// @param _token Asset to deposit\n    /// @param _amount Amount of asset to deposit\n    function deposit(\n        address _curvePool,\n        address _token,\n        uint256 _amount\n    ) public override {\n        ICurveRegistryCache registry_ = controller.curveRegistryCache();\n        bool isETH = _isETH(_curvePool, _token);\n        if (!registry_.hasCoinDirectly(_curvePool, isETH ? _ETH_ADDRESS : _token)) {\n            address intermediate = registry_.basePool(_curvePool);\n            require(intermediate != address(0), \"CurveHandler: intermediate not found\");\n            address lpToken = registry_.lpToken(intermediate);\n            uint256 balanceBefore = ILpToken(lpToken).balanceOf(address(this));\n            _addLiquidity(intermediate, _amount, _token);\n            _token = lpToken;\n            _amount = ILpToken(_token).balanceOf(address(this)) - balanceBefore;\n        }\n        _addLiquidity(_curvePool, _amount, _token);\n    }\n\n    /// @notice Withdraws single sided liquidity from a Curve pool\n    /// @param _curvePool Curve pool to withdraw from\n    /// @param _token Underlying asset to withdraw\n    /// @param _amount Amount of Curve LP tokens to withdraw\n    function withdraw(\n        address _curvePool,\n        address _token,\n        uint256 _amount\n    ) external {\n        ICurveRegistryCache registry_ = controller.curveRegistryCache();\n        bool isETH = _isETH(_curvePool, _token);\n        if (!registry_.hasCoinDirectly(_curvePool, isETH ? _ETH_ADDRESS : _token)) {\n            address intermediate = registry_.basePool(_curvePool);\n            require(intermediate != address(0), \"CurveHandler: intermediate not found\");\n            address lpToken = registry_.lpToken(intermediate);\n            uint256 balanceBefore = ILpToken(lpToken).balanceOf(address(this));\n            _removeLiquidity(_curvePool, _amount, lpToken);\n            _curvePool = intermediate;\n            _amount = ILpToken(lpToken).balanceOf(address(this)) - balanceBefore;\n        }\n\n        _removeLiquidity(_curvePool, _amount, _token);\n    }\n\n    function _removeLiquidity(\n        address _curvePool,\n        uint256 _amount, // Curve LP token amount\n        address _token // underlying asset to withdraw\n    ) internal {\n        bool isETH = _isETH(_curvePool, _token);\n        int128 index = controller.curveRegistryCache().coinIndex(\n            _curvePool,\n            isETH ? _ETH_ADDRESS : _token\n        );\n\n        uint256 balanceBeforeWithdraw = address(this).balance;\n\n        if (controller.curveRegistryCache().interfaceVersion(_curvePool) == 0) {\n            _version_0_remove_liquidity_one_coin(_curvePool, _amount, index);\n        } else {\n            ICurvePoolV1(_curvePool).remove_liquidity_one_coin(_amount, index, 0);\n        }\n\n        if (isETH) {\n            uint256 balanceIncrease = address(this).balance - balanceBeforeWithdraw;\n            _wrapWETH(balanceIncrease);\n        }\n    }\n\n    /// Version 0 pools don't have a `remove_liquidity_one_coin` function.\n    /// So we work around this by calling `removing_liquidity`\n    /// and then swapping all the coins to the target\n    function _version_0_remove_liquidity_one_coin(\n        address _curvePool,\n        uint256 _amount,\n        int128 _index\n    ) internal {\n        ICurveRegistryCache registry_ = controller.curveRegistryCache();\n        uint256 coins = registry_.nCoins(_curvePool);\n        if (coins == 2) {\n            uint256[2] memory min_amounts;\n            ICurvePoolV0(_curvePool).remove_liquidity(_amount, min_amounts);\n        } else if (coins == 3) {\n            uint256[3] memory min_amounts;\n            ICurvePoolV0(_curvePool).remove_liquidity(_amount, min_amounts);\n        } else if (coins == 4) {\n            uint256[4] memory min_amounts;\n            ICurvePoolV0(_curvePool).remove_liquidity(_amount, min_amounts);\n        } else if (coins == 5) {\n            uint256[5] memory min_amounts;\n            ICurvePoolV0(_curvePool).remove_liquidity(_amount, min_amounts);\n        } else if (coins == 6) {\n            uint256[6] memory min_amounts;\n            ICurvePoolV0(_curvePool).remove_liquidity(_amount, min_amounts);\n        } else if (coins == 7) {\n            uint256[7] memory min_amounts;\n            ICurvePoolV0(_curvePool).remove_liquidity(_amount, min_amounts);\n        } else if (coins == 8) {\n            uint256[8] memory min_amounts;\n            ICurvePoolV0(_curvePool).remove_liquidity(_amount, min_amounts);\n        } else {\n            revert(\"CurveHandler: unsupported coins\");\n        }\n\n        for (uint256 i = 0; i < coins; i++) {\n            if (i == uint256(int256(_index))) continue;\n            address[] memory coins_ = registry_.coins(_curvePool);\n            address coin_ = coins_[i];\n            uint256 balance_ = IERC20(coin_).balanceOf(address(this));\n            if (balance_ == 0) continue;\n            IERC20(coin_).safeApprove(_curvePool, balance_);\n            ICurvePoolV0(_curvePool).exchange(int128(int256(i)), _index, balance_, 0);\n        }\n    }\n\n    function _wrapWETH(uint256 amount) internal {\n        _WETH.deposit{value: amount}();\n    }\n\n    function _unwrapWETH(uint256 amount) internal {\n        _WETH.withdraw(amount);\n    }\n\n    function _addLiquidity(\n        address _curvePool,\n        uint256 _amount, // amount of asset to deposit\n        address _token // asset to deposit\n    ) internal {\n        bool isETH = _isETH(_curvePool, _token);\n        if (!isETH) {\n            IERC20(_token).safeIncreaseAllowance(_curvePool, _amount);\n        }\n\n        ICurveRegistryCache registry_ = controller.curveRegistryCache();\n        uint256 index = uint128(registry_.coinIndex(_curvePool, isETH ? _ETH_ADDRESS : _token));\n        uint256 coins = registry_.nCoins(_curvePool);\n        if (coins == 2) {\n            uint256[2] memory amounts;\n            amounts[index] = _amount;\n            if (isETH) {\n                _unwrapWETH(_amount);\n                ICurvePoolV1Eth(_curvePool).add_liquidity{value: _amount}(amounts, 0);\n            } else {\n                ICurvePoolV1(_curvePool).add_liquidity(amounts, 0);\n            }\n        } else if (coins == 3) {\n            uint256[3] memory amounts;\n            amounts[index] = _amount;\n            if (isETH) {\n                _unwrapWETH(_amount);\n                ICurvePoolV1Eth(_curvePool).add_liquidity{value: _amount}(amounts, 0);\n            } else {\n                ICurvePoolV1(_curvePool).add_liquidity(amounts, 0);\n            }\n        } else if (coins == 4) {\n            uint256[4] memory amounts;\n            amounts[index] = _amount;\n            if (isETH) {\n                _unwrapWETH(_amount);\n                ICurvePoolV1Eth(_curvePool).add_liquidity{value: _amount}(amounts, 0);\n            } else {\n                ICurvePoolV1(_curvePool).add_liquidity(amounts, 0);\n            }\n        } else if (coins == 5) {\n            uint256[5] memory amounts;\n            amounts[index] = _amount;\n            if (isETH) {\n                _unwrapWETH(_amount);\n                ICurvePoolV1Eth(_curvePool).add_liquidity{value: _amount}(amounts, 0);\n            } else {\n                ICurvePoolV1(_curvePool).add_liquidity(amounts, 0);\n            }\n        } else if (coins == 6) {\n            uint256[6] memory amounts;\n            amounts[index] = _amount;\n            if (isETH) {\n                _unwrapWETH(_amount);\n                ICurvePoolV1Eth(_curvePool).add_liquidity{value: _amount}(amounts, 0);\n            } else {\n                ICurvePoolV1(_curvePool).add_liquidity(amounts, 0);\n            }\n        } else if (coins == 7) {\n            uint256[7] memory amounts;\n            amounts[index] = _amount;\n            if (isETH) {\n                _unwrapWETH(_amount);\n                ICurvePoolV1Eth(_curvePool).add_liquidity{value: _amount}(amounts, 0);\n            } else {\n                ICurvePoolV1(_curvePool).add_liquidity(amounts, 0);\n            }\n        } else if (coins == 8) {\n            uint256[8] memory amounts;\n            amounts[index] = _amount;\n            if (isETH) {\n                _unwrapWETH(_amount);\n                ICurvePoolV1Eth(_curvePool).add_liquidity{value: _amount}(amounts, 0);\n            } else {\n                ICurvePoolV1(_curvePool).add_liquidity(amounts, 0);\n            }\n        } else {\n            revert(\"invalid number of coins for curve pool\");\n        }\n    }\n\n    function _isETH(address pool, address token) internal view returns (bool) {\n        return\n            token == address(_WETH) &&\n            controller.curveRegistryCache().hasCoinDirectly(pool, _ETH_ADDRESS);\n    }\n}\n","sourcePath":"contracts/CurveHandler.sol","type":"contract","deployment":{"address":"0x92bffb71BBe241ba9cdFb3A4e56E48dC4F118ED7","chainid":"1","blockHeight":16734422}}