{"abi":[{"inputs":[],"stateMutability":"nonpayable","type":"constructor","name":"constructor"},{"anonymous":false,"inputs":[{"indexed":false,"internalType":"uint256","name":"amount","type":"uint256"}],"name":"AMMRewardsMinted","type":"event"},{"anonymous":false,"inputs":[{"indexed":false,"internalType":"uint256","name":"amount","type":"uint256"}],"name":"AirdropMinted","type":"event"},{"anonymous":false,"inputs":[{"indexed":true,"internalType":"address","name":"owner","type":"address"},{"indexed":true,"internalType":"address","name":"spender","type":"address"},{"indexed":false,"internalType":"uint256","name":"value","type":"uint256"}],"name":"Approval","type":"event"},{"anonymous":false,"inputs":[{"indexed":false,"internalType":"uint256","name":"amount","type":"uint256"}],"name":"InitialDistributionMinted","type":"event"},{"anonymous":false,"inputs":[{"indexed":false,"internalType":"address","name":"minter","type":"address"}],"name":"MinterAdded","type":"event"},{"anonymous":false,"inputs":[{"indexed":false,"internalType":"address","name":"minter","type":"address"}],"name":"MinterRemoved","type":"event"},{"anonymous":false,"inputs":[{"indexed":false,"internalType":"uint256","name":"amount","type":"uint256"}],"name":"SeedShareMinted","type":"event"},{"anonymous":false,"inputs":[{"indexed":true,"internalType":"address","name":"from","type":"address"},{"indexed":true,"internalType":"address","name":"to","type":"address"},{"indexed":false,"internalType":"uint256","name":"value","type":"uint256"}],"name":"Transfer","type":"event"},{"anonymous":false,"inputs":[{"indexed":false,"internalType":"uint256","name":"amount","type":"uint256"}],"name":"TreasuryRewardsMinted","type":"event"},{"inputs":[],"name":"AIRDROP_MINT_RATIO","outputs":[{"internalType":"uint256","name":"","type":"uint256"}],"stateMutability":"view","type":"function"},{"inputs":[],"name":"AMM_REWARDS_RATIO","outputs":[{"internalType":"uint256","name":"","type":"uint256"}],"stateMutability":"view","type":"function"},{"inputs":[],"name":"INFLATION_RATIO","outputs":[{"internalType":"uint256","name":"","type":"uint256"}],"stateMutability":"view","type":"function"},{"inputs":[],"name":"MAX_TOTAL_SUPPLY","outputs":[{"internalType":"uint256","name":"","type":"uint256"}],"stateMutability":"view","type":"function"},{"inputs":[],"name":"PRE_MINT_RATIO","outputs":[{"internalType":"uint256","name":"","type":"uint256"}],"stateMutability":"view","type":"function"},{"inputs":[],"name":"TREASURY_REWARDS_RATIO","outputs":[{"internalType":"uint256","name":"","type":"uint256"}],"stateMutability":"view","type":"function"},{"inputs":[],"name":"TREASURY_SEED_RATIO","outputs":[{"internalType":"uint256","name":"","type":"uint256"}],"stateMutability":"view","type":"function"},{"inputs":[{"internalType":"address","name":"newMinter","type":"address"}],"name":"addMinter","outputs":[],"stateMutability":"nonpayable","type":"function"},{"inputs":[],"name":"airdropMintDone","outputs":[{"internalType":"bool","name":"","type":"bool"}],"stateMutability":"view","type":"function"},{"inputs":[{"internalType":"address","name":"owner","type":"address"},{"internalType":"address","name":"spender","type":"address"}],"name":"allowance","outputs":[{"internalType":"uint256","name":"","type":"uint256"}],"stateMutability":"view","type":"function"},{"inputs":[],"name":"ammGaugeMintDone","outputs":[{"internalType":"bool","name":"","type":"bool"}],"stateMutability":"view","type":"function"},{"inputs":[{"internalType":"address","name":"spender","type":"address"},{"internalType":"uint256","name":"amount","type":"uint256"}],"name":"approve","outputs":[{"internalType":"bool","name":"","type":"bool"}],"stateMutability":"nonpayable","type":"function"},{"inputs":[{"internalType":"address","name":"account","type":"address"}],"name":"balanceOf","outputs":[{"internalType":"uint256","name":"","type":"uint256"}],"stateMutability":"view","type":"function"},{"inputs":[],"name":"decimals","outputs":[{"internalType":"uint8","name":"","type":"uint8"}],"stateMutability":"view","type":"function"},{"inputs":[{"internalType":"address","name":"spender","type":"address"},{"internalType":"uint256","name":"subtractedValue","type":"uint256"}],"name":"decreaseAllowance","outputs":[{"internalType":"bool","name":"","type":"bool"}],"stateMutability":"nonpayable","type":"function"},{"inputs":[{"internalType":"address","name":"spender","type":"address"},{"internalType":"uint256","name":"addedValue","type":"uint256"}],"name":"increaseAllowance","outputs":[{"internalType":"bool","name":"","type":"bool"}],"stateMutability":"nonpayable","type":"function"},{"inputs":[],"name":"inflationMintedRatio","outputs":[{"internalType":"uint256","name":"","type":"uint256"}],"stateMutability":"view","type":"function"},{"inputs":[],"name":"initialDistributionMintDone","outputs":[{"internalType":"bool","name":"","type":"bool"}],"stateMutability":"view","type":"function"},{"inputs":[],"name":"listMinters","outputs":[{"internalType":"address[]","name":"","type":"address[]"}],"stateMutability":"view","type":"function"},{"inputs":[{"internalType":"address","name":"account","type":"address"},{"internalType":"uint256","name":"amount","type":"uint256"}],"name":"mint","outputs":[{"internalType":"uint256","name":"","type":"uint256"}],"stateMutability":"nonpayable","type":"function"},{"inputs":[{"internalType":"address","name":"ammGauge","type":"address"}],"name":"mintAMMRewards","outputs":[],"stateMutability":"nonpayable","type":"function"},{"inputs":[{"internalType":"address","name":"airdropHandler","type":"address"}],"name":"mintAirdrop","outputs":[],"stateMutability":"nonpayable","type":"function"},{"inputs":[{"internalType":"address","name":"distribution","type":"address"}],"name":"mintInitialDistribution","outputs":[],"stateMutability":"nonpayable","type":"function"},{"inputs":[{"internalType":"address","name":"treasury","type":"address"}],"name":"mintSeedShare","outputs":[],"stateMutability":"nonpayable","type":"function"},{"inputs":[{"internalType":"address","name":"treasuryEscrow","type":"address"}],"name":"mintTreasuryShare","outputs":[],"stateMutability":"nonpayable","type":"function"},{"inputs":[],"name":"name","outputs":[{"internalType":"string","name":"","type":"string"}],"stateMutability":"view","type":"function"},{"inputs":[],"name":"renounceMinterRights","outputs":[],"stateMutability":"nonpayable","type":"function"},{"inputs":[],"name":"seedShareMintDone","outputs":[{"internalType":"bool","name":"","type":"bool"}],"stateMutability":"view","type":"function"},{"inputs":[],"name":"symbol","outputs":[{"internalType":"string","name":"","type":"string"}],"stateMutability":"view","type":"function"},{"inputs":[],"name":"totalSupply","outputs":[{"internalType":"uint256","name":"","type":"uint256"}],"stateMutability":"view","type":"function"},{"inputs":[{"internalType":"address","name":"to","type":"address"},{"internalType":"uint256","name":"amount","type":"uint256"}],"name":"transfer","outputs":[{"internalType":"bool","name":"","type":"bool"}],"stateMutability":"nonpayable","type":"function"},{"inputs":[{"internalType":"address","name":"from","type":"address"},{"internalType":"address","name":"to","type":"address"},{"internalType":"uint256","name":"amount","type":"uint256"}],"name":"transferFrom","outputs":[{"internalType":"bool","name":"","type":"bool"}],"stateMutability":"nonpayable","type":"function"},{"inputs":[],"name":"treasuryMintDone","outputs":[{"internalType":"bool","name":"","type":"bool"}],"stateMutability":"view","type":"function"}],"bytecode":"60806040523480156200001157600080fd5b506040518060400160405280601381526020017f436f6e69632046696e616e636520546f6b656e0000000000000000000000000081525060405180604001604052806003815260200162434e4360e81b81525081600390805190602001906200007c9291906200015c565b508051620000929060049060208401906200015c565b505050620000b0336005620000ea60201b62000d621790919060201c565b506040513381527f6ae172837ea30b801fbfcdd4108aa1d5bf8ff775444fd70256b44e6bf3dfc3f69060200160405180910390a16200023e565b600062000101836001600160a01b0384166200010a565b90505b92915050565b6000818152600183016020526040812054620001535750815460018181018455600084815260208082209093018490558454848252828601909352604090209190915562000104565b50600062000104565b8280546200016a9062000202565b90600052602060002090601f0160209004810192826200018e5760008555620001d9565b82601f10620001a957805160ff1916838001178555620001d9565b82800160010185558215620001d9579182015b82811115620001d9578251825591602001919060010190620001bc565b50620001e7929150620001eb565b5090565b5b80821115620001e75760008155600101620001ec565b600181811c908216806200021757607f821691505b6020821081036200023857634e487b7160e01b600052602260045260246000fd5b50919050565b6117aa806200024e6000396000f3fe608060405234801561001057600080fd5b50600436106101fb5760003560e01c8063879800441161011a578063b4a2a592116100ad578063e36fcc9c1161007c578063e36fcc9c1461042b578063e78dac191461043e578063e79e7fea14610451578063e7c5dda5146102d4578063f81e13701461046057600080fd5b8063b4a2a592146103ca578063bac9a971146103d7578063dd62ed3e146103ea578063dfb6f2f71461042357600080fd5b8063a43ada7d116100e9578063a43ada7d1461037c578063a44d53f714610391578063a457c2d7146103a4578063a9059cbb146103b757600080fd5b8063879800441461034057806395d89b4114610353578063983b2d561461035b578063a3d4d43e1461036e57600080fd5b80633ec997c31161019257806370a082311161016157806370a08231146102eb57806370e9749a14610314578063759934751461031e5780637b4218fe1461032c57600080fd5b80633ec997c3146102af57806340c10f19146102c157806357dccb72146102d45780636599c23d146102e357600080fd5b806323b872dd116101ce57806323b872dd14610268578063313ce5671461027b57806333039d3d1461028a578063395093511461029c57600080fd5b806306fdde0314610200578063095ea7b31461021e57806318160ddd1461024157806322d8dc2314610253575b600080fd5b610208610473565b60405161021591906113fe565b60405180910390f35b61023161022c36600461146f565b610505565b6040519015158152602001610215565b6002545b604051908152602001610215565b61025b61051f565b6040516102159190611499565b6102316102763660046114e6565b610530565b60405160128152602001610215565b6102456a084595161401484a00000081565b6102316102aa36600461146f565b610554565b60075461023190610100900460ff1681565b6102456102cf36600461146f565b610593565b61024567016345785d8a000081565b61024561061e565b6102456102f9366004611522565b6001600160a01b031660009081526020819052604090205490565b61031c61067d565b005b610245662386f26fc1000081565b600754610231906301000000900460ff1681565b61031c61034e366004611522565b6106e5565b6102086107df565b61031c610369366004611522565b6107ee565b61024566b1a2bc2ec5000081565b60075461023190640100000000900460ff1681565b6007546102319062010000900460ff1681565b6102316103b236600461146f565b610865565b6102316103c536600461146f565b6108f7565b6007546102319060ff1681565b61031c6103e5366004611522565b610905565b6102456103f836600461153d565b6001600160a01b03918216600090815260016020908152604080832093909416825291909152205490565b6102456109e7565b61031c610439366004611522565b610aa4565b61031c61044c366004611522565b610b94565b610245670429d069189e000081565b61031c61046e366004611522565b610c6f565b60606003805461048290611570565b80601f01602080910402602001604051908101604052809291908181526020018280546104ae90611570565b80156104fb5780601f106104d0576101008083540402835291602001916104fb565b820191906000526020600020905b8154815290600101906020018083116104de57829003601f168201915b5050505050905090565b600033610513818585610d7e565b60019150505b92915050565b606061052b6005610ea2565b905090565b60003361053e858285610eaf565b610549858585610f41565b506001949350505050565b3360008181526001602090815260408083206001600160a01b0387168452909152812054909190610513908290869061058e9087906115c0565b610d7e565b60006105a060053361110f565b6105c55760405162461bcd60e51b81526004016105bc906115d8565b60405180910390fd5b60006105d060025490565b90506a084595161401484a0000006105e882856115c0565b111561060657610603816a084595161401484a000000611600565b92505b8215610616576106168484611131565b509092915050565b662386f26fc1000066b1a2bc2ec50000670429d069189e000067016345785d8a000061065281670de0b6b3a7640000611600565b61065c9190611600565b6106669190611600565b6106709190611600565b61067a9190611600565b81565b61068860053361110f565b6106a45760405162461bcd60e51b81526004016105bc906115d8565b6106af600533611210565b506040513381527fe94479a9f7e1952cc78f2d6baab678adc1b772d936c6583def489e524cb666929060200160405180910390a1565b6106f060053361110f565b61070c5760405162461bcd60e51b81526004016105bc906115d8565b60075462010000900460ff16156107655760405162461bcd60e51b815260206004820152601a60248201527f616d6d207265776172647320616c7265616479206d696e74656400000000000060448201526064016105bc565b60006107846a084595161401484a00000067016345785d8a0000611225565b90506107908282611131565b6007805462ff00001916620100001790556040517f058d72dbae44f18992d02a83d43fd32a84aa136f64c37c5c3e69719314a3e2f8906107d39083815260200190565b60405180910390a15050565b60606004805461048290611570565b6107f960053361110f565b6108155760405162461bcd60e51b81526004016105bc906115d8565b610820600582610d62565b15610862576040516001600160a01b03821681527f6ae172837ea30b801fbfcdd4108aa1d5bf8ff775444fd70256b44e6bf3dfc3f69060200160405180910390a15b50565b3360008181526001602090815260408083206001600160a01b0387168452909152812054909190838110156108ea5760405162461bcd60e51b815260206004820152602560248201527f45524332303a2064656372656173656420616c6c6f77616e63652062656c6f77604482015264207a65726f60d81b60648201526084016105bc565b6105498286868403610d7e565b600033610513818585610f41565b61091060053361110f565b61092c5760405162461bcd60e51b81526004016105bc906115d8565b600754610100900460ff161561097b5760405162461bcd60e51b815260206004820152601460248201527361697264726f7020616c726561647920646f6e6560601b60448201526064016105bc565b600061099a6a084595161401484a00000067016345785d8a0000611225565b90506109a68282611131565b6007805461ff0019166101001790556040517fd0e93c5a4c2e9bf73ec7cbb7b20f83e5b3a0804ebb1653a2e8e0295cb9d48bce906107d39083815260200190565b6000806109f360025490565b90506000610a68662386f26fc1000066b1a2bc2ec50000670429d069189e000067016345785d8a0000610a2e81670de0b6b3a7640000611600565b610a389190611600565b610a429190611600565b610a4c9190611600565b610a569190611600565b6a084595161401484a00000090611225565b90506000610a81826a084595161401484a000000611600565b90506000610a8f8285611600565b9050610a9b8184611247565b94505050505090565b610aaf60053361110f565b610acb5760405162461bcd60e51b81526004016105bc906115d8565b6007546301000000900460ff1615610b255760405162461bcd60e51b815260206004820152601f60248201527f7472656173757279207265776172647320616c7265616479206d696e7465640060448201526064016105bc565b6000610b436a084595161401484a00000066b1a2bc2ec50000611225565b9050610b4f8282611131565b6007805463ff000000191663010000001790556040517f3f759f4d99d78902db4aefe5267a8ded87095e93e34de88a4750d83d32db3d75906107d39083815260200190565b610b9f60053361110f565b610bbb5760405162461bcd60e51b81526004016105bc906115d8565b60075460ff1615610c055760405162461bcd60e51b81526020600482015260146024820152737072656d696e7420616c726561647920646f6e6560601b60448201526064016105bc565b6000610c246a084595161401484a000000670429d069189e0000611225565b9050610c308282611131565b6007805460ff191660011790556040517ffcd40474fa7630e8d1eb5dc5b7fe5714d084304367598bc59f32875b2c55dba0906107d39083815260200190565b610c7a60053361110f565b610c965760405162461bcd60e51b81526004016105bc906115d8565b600754640100000000900460ff1615610cf15760405162461bcd60e51b815260206004820152601960248201527f7365656420736861726520616c7265616479206d696e7465640000000000000060448201526064016105bc565b6000610d0f6a084595161401484a000000662386f26fc10000611225565b9050610d1b8282611131565b6007805464ff0000000019166401000000001790556040517fdec4020415f2934687edf026856f723eee67a66a6c8cfea21a111f3d06833d5a906107d39083815260200190565b6000610d77836001600160a01b038416611260565b9392505050565b6001600160a01b038316610de05760405162461bcd60e51b8152602060048201526024808201527f45524332303a20617070726f76652066726f6d20746865207a65726f206164646044820152637265737360e01b60648201526084016105bc565b6001600160a01b038216610e415760405162461bcd60e51b815260206004820152602260248201527f45524332303a20617070726f766520746f20746865207a65726f206164647265604482015261737360f01b60648201526084016105bc565b6001600160a01b0383811660008181526001602090815260408083209487168084529482529182902085905590518481527f8c5be1e5ebec7d5bd14f71427d1e84f3dd0314c0f7b2291e5b200ac8c7c3b925910160405180910390a3505050565b60606000610d77836112af565b6001600160a01b038381166000908152600160209081526040808320938616835292905220546000198114610f3b5781811015610f2e5760405162461bcd60e51b815260206004820152601d60248201527f45524332303a20696e73756666696369656e7420616c6c6f77616e636500000060448201526064016105bc565b610f3b8484848403610d7e565b50505050565b6001600160a01b038316610fa55760405162461bcd60e51b815260206004820152602560248201527f45524332303a207472616e736665722066726f6d20746865207a65726f206164604482015264647265737360d81b60648201526084016105bc565b6001600160a01b0382166110075760405162461bcd60e51b815260206004820152602360248201527f45524332303a207472616e7366657220746f20746865207a65726f206164647260448201526265737360e81b60648201526084016105bc565b6001600160a01b0383166000908152602081905260409020548181101561107f5760405162461bcd60e51b815260206004820152602660248201527f45524332303a207472616e7366657220616d6f756e7420657863656564732062604482015265616c616e636560d01b60648201526084016105bc565b6001600160a01b038085166000908152602081905260408082208585039055918516815290812080548492906110b69084906115c0565b92505081905550826001600160a01b0316846001600160a01b03167fddf252ad1be2c89b69c2b068fc378daa952ba7f163c4a11628f55a4df523b3ef8460405161110291815260200190565b60405180910390a3610f3b565b6001600160a01b03811660009081526001830160205260408120541515610d77565b6001600160a01b0382166111875760405162461bcd60e51b815260206004820152601f60248201527f45524332303a206d696e7420746f20746865207a65726f20616464726573730060448201526064016105bc565b806002600082825461119991906115c0565b90915550506001600160a01b038216600090815260208190526040812080548392906111c69084906115c0565b90915550506040518181526001600160a01b038316906000907fddf252ad1be2c89b69c2b068fc378daa952ba7f163c4a11628f55a4df523b3ef9060200160405180910390a35050565b6000610d77836001600160a01b03841661130b565b60006112336012600a6116fb565b61123d8385611707565b610d779190611726565b6000816112566012600a6116fb565b61123d9085611707565b60008181526001830160205260408120546112a757508154600181810184556000848152602080822090930184905584548482528286019093526040902091909155610519565b506000610519565b6060816000018054806020026020016040519081016040528092919081815260200182805480156112ff57602002820191906000526020600020905b8154815260200190600101908083116112eb575b50505050509050919050565b600081815260018301602052604081205480156113f457600061132f600183611600565b855490915060009061134390600190611600565b90508181146113a857600086600001828154811061136357611363611748565b906000526020600020015490508087600001848154811061138657611386611748565b6000918252602080832090910192909255918252600188019052604090208390555b85548690806113b9576113b961175e565b600190038181906000526020600020016000905590558560010160008681526020019081526020016000206000905560019350505050610519565b6000915050610519565b600060208083528351808285015260005b8181101561142b5785810183015185820160400152820161140f565b8181111561143d576000604083870101525b50601f01601f1916929092016040019392505050565b80356001600160a01b038116811461146a57600080fd5b919050565b6000806040838503121561148257600080fd5b61148b83611453565b946020939093013593505050565b6020808252825182820181905260009190848201906040850190845b818110156114da5783516001600160a01b0316835292840192918401916001016114b5565b50909695505050505050565b6000806000606084860312156114fb57600080fd5b61150484611453565b925061151260208501611453565b9150604084013590509250925092565b60006020828403121561153457600080fd5b610d7782611453565b6000806040838503121561155057600080fd5b61155983611453565b915061156760208401611453565b90509250929050565b600181811c9082168061158457607f821691505b6020821081036115a457634e487b7160e01b600052602260045260246000fd5b50919050565b634e487b7160e01b600052601160045260246000fd5b600082198211156115d3576115d36115aa565b500190565b6020808252600e908201526d1b9bdd08185d5d1a1bdc9a5e995960921b604082015260600190565b600082821015611612576116126115aa565b500390565b600181815b80851115611652578160001904821115611638576116386115aa565b8085161561164557918102915b93841c939080029061161c565b509250929050565b60008261166957506001610519565b8161167657506000610519565b816001811461168c5760028114611696576116b2565b6001915050610519565b60ff8411156116a7576116a76115aa565b50506001821b610519565b5060208310610133831016604e8410600b84101617156116d5575081810a610519565b6116df8383611617565b80600019048211156116f3576116f36115aa565b029392505050565b6000610d77838361165a565b6000816000190483118215151615611721576117216115aa565b500290565b60008261174357634e487b7160e01b600052601260045260246000fd5b500490565b634e487b7160e01b600052603260045260246000fd5b634e487b7160e01b600052603160045260246000fdfea2646970667358221220cfe2fd7a75ecc65222ca56ff8b5b8e7a727eafc2178393364750fa47f585ab7364736f6c634300080d0033","bytecodeSha1":"9ed3dbe78e0730dd3bade19f1473b4ae40455f7a","compiler":{"evm_version":"istanbul","optimizer":{"enabled":true,"runs":200},"version":"0.8.13+commit.abaa5c0e"},"contractName":"CNCToken","language":"Solidity","natspec":{"kind":"dev","methods":{"allowance(address,address)":{"details":"See {IERC20-allowance}."},"approve(address,uint256)":{"details":"See {IERC20-approve}. NOTE: If `amount` is the maximum `uint256`, the allowance is not updated on `transferFrom`. This is semantically equivalent to an infinite approval. Requirements: - `spender` cannot be the zero address."},"balanceOf(address)":{"details":"See {IERC20-balanceOf}."},"decimals()":{"details":"Returns the number of decimals used to get its user representation. For example, if `decimals` equals `2`, a balance of `505` tokens should be displayed to a user as `5.05` (`505 / 10 ** 2`). Tokens usually opt for a value of 18, imitating the relationship between Ether and Wei. This is the value {ERC20} uses, unless this function is overridden; NOTE: This information is only used for _display_ purposes: it in no way affects any of the arithmetic of the contract, including {IERC20-balanceOf} and {IERC20-transfer}."},"decreaseAllowance(address,uint256)":{"details":"Atomically decreases the allowance granted to `spender` by the caller. This is an alternative to {approve} that can be used as a mitigation for problems described in {IERC20-approve}. Emits an {Approval} event indicating the updated allowance. Requirements: - `spender` cannot be the zero address. - `spender` must have allowance for the caller of at least `subtractedValue`."},"increaseAllowance(address,uint256)":{"details":"Atomically increases the allowance granted to `spender` by the caller. This is an alternative to {approve} that can be used as a mitigation for problems described in {IERC20-approve}. Emits an {Approval} event indicating the updated allowance. Requirements: - `spender` cannot be the zero address."},"inflationMintedRatio()":{"details":"this assumes that all the pre-mint events occured"},"listMinters()":{"notice":"returns a list of all authorized minters"},"mint(address,uint256)":{"notice":"mints `amount` to `account`"},"mintAMMRewards(address)":{"notice":"mints the amm rewards"},"mintAirdrop(address)":{"notice":"mints the airdrop amount to the airdrop contract"},"mintInitialDistribution(address)":{"notice":"mints the initial distribution amount to the distribution contract"},"name()":{"details":"Returns the name of the token."},"symbol()":{"details":"Returns the symbol of the token, usually a shorter version of the name."},"totalSupply()":{"details":"See {IERC20-totalSupply}."},"transfer(address,uint256)":{"details":"See {IERC20-transfer}. Requirements: - `to` cannot be the zero address. - the caller must have a balance of at least `amount`."},"transferFrom(address,address,uint256)":{"details":"See {IERC20-transferFrom}. Emits an {Approval} event indicating the updated allowance. This is not required by the EIP. See the note at the beginning of {ERC20}. NOTE: Does not update the allowance if the current allowance is the maximum `uint256`. Requirements: - `from` and `to` cannot be the zero address. - `from` must have a balance of at least `amount`. - the caller must have allowance for ``from``'s tokens of at least `amount`."}},"notice":"the deployer will initially have minting rights The process will be to premint `PRE_MINT_RATIO` of `MAX_TOTAL_SUPPLY` to the initial distribution address, grant the minting rights to the inflation manager and renounce its minting rights","version":1},"opcodes":"PUSH1 0x80 PUSH1 0x40 MSTORE CALLVALUE DUP1 ISZERO PUSH2 0x10 JUMPI PUSH1 0x0 DUP1 REVERT JUMPDEST POP PUSH1 0x4 CALLDATASIZE LT PUSH2 0x1FB JUMPI PUSH1 0x0 CALLDATALOAD PUSH1 0xE0 SHR DUP1 PUSH4 0x87980044 GT PUSH2 0x11A JUMPI DUP1 PUSH4 0xB4A2A592 GT PUSH2 0xAD JUMPI DUP1 PUSH4 0xE36FCC9C GT PUSH2 0x7C JUMPI DUP1 PUSH4 0xE36FCC9C EQ PUSH2 0x42B JUMPI DUP1 PUSH4 0xE78DAC19 EQ PUSH2 0x43E JUMPI DUP1 PUSH4 0xE79E7FEA EQ PUSH2 0x451 JUMPI DUP1 PUSH4 0xE7C5DDA5 EQ PUSH2 0x2D4 JUMPI DUP1 PUSH4 0xF81E1370 EQ PUSH2 0x460 JUMPI PUSH1 0x0 DUP1 REVERT JUMPDEST DUP1 PUSH4 0xB4A2A592 EQ PUSH2 0x3CA JUMPI DUP1 PUSH4 0xBAC9A971 EQ PUSH2 0x3D7 JUMPI DUP1 PUSH4 0xDD62ED3E EQ PUSH2 0x3EA JUMPI DUP1 PUSH4 0xDFB6F2F7 EQ PUSH2 0x423 JUMPI PUSH1 0x0 DUP1 REVERT JUMPDEST DUP1 PUSH4 0xA43ADA7D GT PUSH2 0xE9 JUMPI DUP1 PUSH4 0xA43ADA7D EQ PUSH2 0x37C JUMPI DUP1 PUSH4 0xA44D53F7 EQ PUSH2 0x391 JUMPI DUP1 PUSH4 0xA457C2D7 EQ PUSH2 0x3A4 JUMPI DUP1 PUSH4 0xA9059CBB EQ PUSH2 0x3B7 JUMPI PUSH1 0x0 DUP1 REVERT JUMPDEST DUP1 PUSH4 0x87980044 EQ PUSH2 0x340 JUMPI DUP1 PUSH4 0x95D89B41 EQ PUSH2 0x353 JUMPI DUP1 PUSH4 0x983B2D56 EQ PUSH2 0x35B JUMPI DUP1 PUSH4 0xA3D4D43E EQ PUSH2 0x36E JUMPI PUSH1 0x0 DUP1 REVERT JUMPDEST DUP1 PUSH4 0x3EC997C3 GT PUSH2 0x192 JUMPI DUP1 PUSH4 0x70A08231 GT PUSH2 0x161 JUMPI DUP1 PUSH4 0x70A08231 EQ PUSH2 0x2EB JUMPI DUP1 PUSH4 0x70E9749A EQ PUSH2 0x314 JUMPI DUP1 PUSH4 0x75993475 EQ PUSH2 0x31E JUMPI DUP1 PUSH4 0x7B4218FE EQ PUSH2 0x32C JUMPI PUSH1 0x0 DUP1 REVERT JUMPDEST DUP1 PUSH4 0x3EC997C3 EQ PUSH2 0x2AF JUMPI DUP1 PUSH4 0x40C10F19 EQ PUSH2 0x2C1 JUMPI DUP1 PUSH4 0x57DCCB72 EQ PUSH2 0x2D4 JUMPI DUP1 PUSH4 0x6599C23D EQ PUSH2 0x2E3 JUMPI PUSH1 0x0 DUP1 REVERT JUMPDEST DUP1 PUSH4 0x23B872DD GT PUSH2 0x1CE JUMPI DUP1 PUSH4 0x23B872DD EQ PUSH2 0x268 JUMPI DUP1 PUSH4 0x313CE567 EQ PUSH2 0x27B JUMPI DUP1 PUSH4 0x33039D3D EQ PUSH2 0x28A JUMPI DUP1 PUSH4 0x39509351 EQ PUSH2 0x29C JUMPI PUSH1 0x0 DUP1 REVERT JUMPDEST DUP1 PUSH4 0x6FDDE03 EQ PUSH2 0x200 JUMPI DUP1 PUSH4 0x95EA7B3 EQ PUSH2 0x21E JUMPI DUP1 PUSH4 0x18160DDD EQ PUSH2 0x241 JUMPI DUP1 PUSH4 0x22D8DC23 EQ PUSH2 0x253 JUMPI JUMPDEST PUSH1 0x0 DUP1 REVERT JUMPDEST PUSH2 0x208 PUSH2 0x473 JUMP JUMPDEST PUSH1 0x40 MLOAD PUSH2 0x215 SWAP2 SWAP1 PUSH2 0x13FE JUMP JUMPDEST PUSH1 0x40 MLOAD DUP1 SWAP2 SUB SWAP1 RETURN JUMPDEST PUSH2 0x231 PUSH2 0x22C CALLDATASIZE PUSH1 0x4 PUSH2 0x146F JUMP JUMPDEST PUSH2 0x505 JUMP JUMPDEST PUSH1 0x40 MLOAD SWAP1 ISZERO ISZERO DUP2 MSTORE PUSH1 0x20 ADD PUSH2 0x215 JUMP JUMPDEST PUSH1 0x2 SLOAD JUMPDEST PUSH1 0x40 MLOAD SWAP1 DUP2 MSTORE PUSH1 0x20 ADD PUSH2 0x215 JUMP JUMPDEST PUSH2 0x25B PUSH2 0x51F JUMP JUMPDEST PUSH1 0x40 MLOAD PUSH2 0x215 SWAP2 SWAP1 PUSH2 0x1499 JUMP JUMPDEST PUSH2 0x231 PUSH2 0x276 CALLDATASIZE PUSH1 0x4 PUSH2 0x14E6 JUMP JUMPDEST PUSH2 0x530 JUMP JUMPDEST PUSH1 0x40 MLOAD PUSH1 0x12 DUP2 MSTORE PUSH1 0x20 ADD PUSH2 0x215 JUMP JUMPDEST PUSH2 0x245 PUSH11 0x84595161401484A000000 DUP2 JUMP JUMPDEST PUSH2 0x231 PUSH2 0x2AA CALLDATASIZE PUSH1 0x4 PUSH2 0x146F JUMP JUMPDEST PUSH2 0x554 JUMP JUMPDEST PUSH1 0x7 SLOAD PUSH2 0x231 SWAP1 PUSH2 0x100 SWAP1 DIV PUSH1 0xFF AND DUP2 JUMP JUMPDEST PUSH2 0x245 PUSH2 0x2CF CALLDATASIZE PUSH1 0x4 PUSH2 0x146F JUMP JUMPDEST PUSH2 0x593 JUMP JUMPDEST PUSH2 0x245 PUSH8 0x16345785D8A0000 DUP2 JUMP JUMPDEST PUSH2 0x245 PUSH2 0x61E JUMP JUMPDEST PUSH2 0x245 PUSH2 0x2F9 CALLDATASIZE PUSH1 0x4 PUSH2 0x1522 JUMP JUMPDEST PUSH1 0x1 PUSH1 0x1 PUSH1 0xA0 SHL SUB AND PUSH1 0x0 SWAP1 DUP2 MSTORE PUSH1 0x20 DUP2 SWAP1 MSTORE PUSH1 0x40 SWAP1 KECCAK256 SLOAD SWAP1 JUMP JUMPDEST PUSH2 0x31C PUSH2 0x67D JUMP JUMPDEST STOP JUMPDEST PUSH2 0x245 PUSH7 0x2386F26FC10000 DUP2 JUMP JUMPDEST PUSH1 0x7 SLOAD PUSH2 0x231 SWAP1 PUSH4 0x1000000 SWAP1 DIV PUSH1 0xFF AND DUP2 JUMP JUMPDEST PUSH2 0x31C PUSH2 0x34E CALLDATASIZE PUSH1 0x4 PUSH2 0x1522 JUMP JUMPDEST PUSH2 0x6E5 JUMP JUMPDEST PUSH2 0x208 PUSH2 0x7DF JUMP JUMPDEST PUSH2 0x31C PUSH2 0x369 CALLDATASIZE PUSH1 0x4 PUSH2 0x1522 JUMP JUMPDEST PUSH2 0x7EE JUMP JUMPDEST PUSH2 0x245 PUSH7 0xB1A2BC2EC50000 DUP2 JUMP JUMPDEST PUSH1 0x7 SLOAD PUSH2 0x231 SWAP1 PUSH5 0x100000000 SWAP1 DIV PUSH1 0xFF AND DUP2 JUMP JUMPDEST PUSH1 0x7 SLOAD PUSH2 0x231 SWAP1 PUSH3 0x10000 SWAP1 DIV PUSH1 0xFF AND DUP2 JUMP JUMPDEST PUSH2 0x231 PUSH2 0x3B2 CALLDATASIZE PUSH1 0x4 PUSH2 0x146F JUMP JUMPDEST PUSH2 0x865 JUMP JUMPDEST PUSH2 0x231 PUSH2 0x3C5 CALLDATASIZE PUSH1 0x4 PUSH2 0x146F JUMP JUMPDEST PUSH2 0x8F7 JUMP JUMPDEST PUSH1 0x7 SLOAD PUSH2 0x231 SWAP1 PUSH1 0xFF AND DUP2 JUMP JUMPDEST PUSH2 0x31C PUSH2 0x3E5 CALLDATASIZE PUSH1 0x4 PUSH2 0x1522 JUMP JUMPDEST PUSH2 0x905 JUMP JUMPDEST PUSH2 0x245 PUSH2 0x3F8 CALLDATASIZE PUSH1 0x4 PUSH2 0x153D JUMP JUMPDEST PUSH1 0x1 PUSH1 0x1 PUSH1 0xA0 SHL SUB SWAP2 DUP3 AND PUSH1 0x0 SWAP1 DUP2 MSTORE PUSH1 0x1 PUSH1 0x20 SWAP1 DUP2 MSTORE PUSH1 0x40 DUP1 DUP4 KECCAK256 SWAP4 SWAP1 SWAP5 AND DUP3 MSTORE SWAP2 SWAP1 SWAP2 MSTORE KECCAK256 SLOAD SWAP1 JUMP JUMPDEST PUSH2 0x245 PUSH2 0x9E7 JUMP JUMPDEST PUSH2 0x31C PUSH2 0x439 CALLDATASIZE PUSH1 0x4 PUSH2 0x1522 JUMP JUMPDEST PUSH2 0xAA4 JUMP JUMPDEST PUSH2 0x31C PUSH2 0x44C CALLDATASIZE PUSH1 0x4 PUSH2 0x1522 JUMP JUMPDEST PUSH2 0xB94 JUMP JUMPDEST PUSH2 0x245 PUSH8 0x429D069189E0000 DUP2 JUMP JUMPDEST PUSH2 0x31C PUSH2 0x46E CALLDATASIZE PUSH1 0x4 PUSH2 0x1522 JUMP JUMPDEST PUSH2 0xC6F JUMP JUMPDEST PUSH1 0x60 PUSH1 0x3 DUP1 SLOAD PUSH2 0x482 SWAP1 PUSH2 0x1570 JUMP JUMPDEST DUP1 PUSH1 0x1F ADD PUSH1 0x20 DUP1 SWAP2 DIV MUL PUSH1 0x20 ADD PUSH1 0x40 MLOAD SWAP1 DUP2 ADD PUSH1 0x40 MSTORE DUP1 SWAP3 SWAP2 SWAP1 DUP2 DUP2 MSTORE PUSH1 0x20 ADD DUP3 DUP1 SLOAD PUSH2 0x4AE SWAP1 PUSH2 0x1570 JUMP JUMPDEST DUP1 ISZERO PUSH2 0x4FB JUMPI DUP1 PUSH1 0x1F LT PUSH2 0x4D0 JUMPI PUSH2 0x100 DUP1 DUP4 SLOAD DIV MUL DUP4 MSTORE SWAP2 PUSH1 0x20 ADD SWAP2 PUSH2 0x4FB JUMP JUMPDEST DUP3 ADD SWAP2 SWAP1 PUSH1 0x0 MSTORE PUSH1 0x20 PUSH1 0x0 KECCAK256 SWAP1 JUMPDEST DUP2 SLOAD DUP2 MSTORE SWAP1 PUSH1 0x1 ADD SWAP1 PUSH1 0x20 ADD DUP1 DUP4 GT PUSH2 0x4DE JUMPI DUP3 SWAP1 SUB PUSH1 0x1F AND DUP3 ADD SWAP2 JUMPDEST POP POP POP POP POP SWAP1 POP SWAP1 JUMP JUMPDEST PUSH1 0x0 CALLER PUSH2 0x513 DUP2 DUP6 DUP6 PUSH2 0xD7E JUMP JUMPDEST PUSH1 0x1 SWAP2 POP POP JUMPDEST SWAP3 SWAP2 POP POP JUMP JUMPDEST PUSH1 0x60 PUSH2 0x52B PUSH1 0x5 PUSH2 0xEA2 JUMP JUMPDEST SWAP1 POP SWAP1 JUMP JUMPDEST PUSH1 0x0 CALLER PUSH2 0x53E DUP6 DUP3 DUP6 PUSH2 0xEAF JUMP JUMPDEST PUSH2 0x549 DUP6 DUP6 DUP6 PUSH2 0xF41 JUMP JUMPDEST POP PUSH1 0x1 SWAP5 SWAP4 POP POP POP POP JUMP JUMPDEST CALLER PUSH1 0x0 DUP2 DUP2 MSTORE PUSH1 0x1 PUSH1 0x20 SWAP1 DUP2 MSTORE PUSH1 0x40 DUP1 DUP4 KECCAK256 PUSH1 0x1 PUSH1 0x1 PUSH1 0xA0 SHL SUB DUP8 AND DUP5 MSTORE SWAP1 SWAP2 MSTORE DUP2 KECCAK256 SLOAD SWAP1 SWAP2 SWAP1 PUSH2 0x513 SWAP1 DUP3 SWAP1 DUP7 SWAP1 PUSH2 0x58E SWAP1 DUP8 SWAP1 PUSH2 0x15C0 JUMP JUMPDEST PUSH2 0xD7E JUMP JUMPDEST PUSH1 0x0 PUSH2 0x5A0 PUSH1 0x5 CALLER PUSH2 0x110F JUMP JUMPDEST PUSH2 0x5C5 JUMPI PUSH1 0x40 MLOAD PUSH3 0x461BCD PUSH1 0xE5 SHL DUP2 MSTORE PUSH1 0x4 ADD PUSH2 0x5BC SWAP1 PUSH2 0x15D8 JUMP JUMPDEST PUSH1 0x40 MLOAD DUP1 SWAP2 SUB SWAP1 REVERT JUMPDEST PUSH1 0x0 PUSH2 0x5D0 PUSH1 0x2 SLOAD SWAP1 JUMP JUMPDEST SWAP1 POP PUSH11 0x84595161401484A000000 PUSH2 0x5E8 DUP3 DUP6 PUSH2 0x15C0 JUMP JUMPDEST GT ISZERO PUSH2 0x606 JUMPI PUSH2 0x603 DUP2 PUSH11 0x84595161401484A000000 PUSH2 0x1600 JUMP JUMPDEST SWAP3 POP JUMPDEST DUP3 ISZERO PUSH2 0x616 JUMPI PUSH2 0x616 DUP5 DUP5 PUSH2 0x1131 JUMP JUMPDEST POP SWAP1 SWAP3 SWAP2 POP POP JUMP JUMPDEST PUSH7 0x2386F26FC10000 PUSH7 0xB1A2BC2EC50000 PUSH8 0x429D069189E0000 PUSH8 0x16345785D8A0000 PUSH2 0x652 DUP2 PUSH8 0xDE0B6B3A7640000 PUSH2 0x1600 JUMP JUMPDEST PUSH2 0x65C SWAP2 SWAP1 PUSH2 0x1600 JUMP JUMPDEST PUSH2 0x666 SWAP2 SWAP1 PUSH2 0x1600 JUMP JUMPDEST PUSH2 0x670 SWAP2 SWAP1 PUSH2 0x1600 JUMP JUMPDEST PUSH2 0x67A SWAP2 SWAP1 PUSH2 0x1600 JUMP JUMPDEST DUP2 JUMP JUMPDEST PUSH2 0x688 PUSH1 0x5 CALLER PUSH2 0x110F JUMP JUMPDEST PUSH2 0x6A4 JUMPI PUSH1 0x40 MLOAD PUSH3 0x461BCD PUSH1 0xE5 SHL DUP2 MSTORE PUSH1 0x4 ADD PUSH2 0x5BC SWAP1 PUSH2 0x15D8 JUMP JUMPDEST PUSH2 0x6AF PUSH1 0x5 CALLER PUSH2 0x1210 JUMP JUMPDEST POP PUSH1 0x40 MLOAD CALLER DUP2 MSTORE PUSH32 0xE94479A9F7E1952CC78F2D6BAAB678ADC1B772D936C6583DEF489E524CB66692 SWAP1 PUSH1 0x20 ADD PUSH1 0x40 MLOAD DUP1 SWAP2 SUB SWAP1 LOG1 JUMP JUMPDEST PUSH2 0x6F0 PUSH1 0x5 CALLER PUSH2 0x110F JUMP JUMPDEST PUSH2 0x70C JUMPI PUSH1 0x40 MLOAD PUSH3 0x461BCD PUSH1 0xE5 SHL DUP2 MSTORE PUSH1 0x4 ADD PUSH2 0x5BC SWAP1 PUSH2 0x15D8 JUMP JUMPDEST PUSH1 0x7 SLOAD PUSH3 0x10000 SWAP1 DIV PUSH1 0xFF AND ISZERO PUSH2 0x765 JUMPI PUSH1 0x40 MLOAD PUSH3 0x461BCD PUSH1 0xE5 SHL DUP2 MSTORE PUSH1 0x20 PUSH1 0x4 DUP3 ADD MSTORE PUSH1 0x1A PUSH1 0x24 DUP3 ADD MSTORE PUSH32 0x616D6D207265776172647320616C7265616479206D696E746564000000000000 PUSH1 0x44 DUP3 ADD MSTORE PUSH1 0x64 ADD PUSH2 0x5BC JUMP JUMPDEST PUSH1 0x0 PUSH2 0x784 PUSH11 0x84595161401484A000000 PUSH8 0x16345785D8A0000 PUSH2 0x1225 JUMP JUMPDEST SWAP1 POP PUSH2 0x790 DUP3 DUP3 PUSH2 0x1131 JUMP JUMPDEST PUSH1 0x7 DUP1 SLOAD PUSH3 0xFF0000 NOT AND PUSH3 0x10000 OR SWAP1 SSTORE PUSH1 0x40 MLOAD PUSH32 0x58D72DBAE44F18992D02A83D43FD32A84AA136F64C37C5C3E69719314A3E2F8 SWAP1 PUSH2 0x7D3 SWAP1 DUP4 DUP2 MSTORE PUSH1 0x20 ADD SWAP1 JUMP JUMPDEST PUSH1 0x40 MLOAD DUP1 SWAP2 SUB SWAP1 LOG1 POP POP JUMP JUMPDEST PUSH1 0x60 PUSH1 0x4 DUP1 SLOAD PUSH2 0x482 SWAP1 PUSH2 0x1570 JUMP JUMPDEST PUSH2 0x7F9 PUSH1 0x5 CALLER PUSH2 0x110F JUMP JUMPDEST PUSH2 0x815 JUMPI PUSH1 0x40 MLOAD PUSH3 0x461BCD PUSH1 0xE5 SHL DUP2 MSTORE PUSH1 0x4 ADD PUSH2 0x5BC SWAP1 PUSH2 0x15D8 JUMP JUMPDEST PUSH2 0x820 PUSH1 0x5 DUP3 PUSH2 0xD62 JUMP JUMPDEST ISZERO PUSH2 0x862 JUMPI PUSH1 0x40 MLOAD PUSH1 0x1 PUSH1 0x1 PUSH1 0xA0 SHL SUB DUP3 AND DUP2 MSTORE PUSH32 0x6AE172837EA30B801FBFCDD4108AA1D5BF8FF775444FD70256B44E6BF3DFC3F6 SWAP1 PUSH1 0x20 ADD PUSH1 0x40 MLOAD DUP1 SWAP2 SUB SWAP1 LOG1 JUMPDEST POP JUMP JUMPDEST CALLER PUSH1 0x0 DUP2 DUP2 MSTORE PUSH1 0x1 PUSH1 0x20 SWAP1 DUP2 MSTORE PUSH1 0x40 DUP1 DUP4 KECCAK256 PUSH1 0x1 PUSH1 0x1 PUSH1 0xA0 SHL SUB DUP8 AND DUP5 MSTORE SWAP1 SWAP2 MSTORE DUP2 KECCAK256 SLOAD SWAP1 SWAP2 SWAP1 DUP4 DUP2 LT ISZERO PUSH2 0x8EA JUMPI PUSH1 0x40 MLOAD PUSH3 0x461BCD PUSH1 0xE5 SHL DUP2 MSTORE PUSH1 0x20 PUSH1 0x4 DUP3 ADD MSTORE PUSH1 0x25 PUSH1 0x24 DUP3 ADD MSTORE PUSH32 0x45524332303A2064656372656173656420616C6C6F77616E63652062656C6F77 PUSH1 0x44 DUP3 ADD MSTORE PUSH5 0x207A65726F PUSH1 0xD8 SHL PUSH1 0x64 DUP3 ADD MSTORE PUSH1 0x84 ADD PUSH2 0x5BC JUMP JUMPDEST PUSH2 0x549 DUP3 DUP7 DUP7 DUP5 SUB PUSH2 0xD7E JUMP JUMPDEST PUSH1 0x0 CALLER PUSH2 0x513 DUP2 DUP6 DUP6 PUSH2 0xF41 JUMP JUMPDEST PUSH2 0x910 PUSH1 0x5 CALLER PUSH2 0x110F JUMP JUMPDEST PUSH2 0x92C JUMPI PUSH1 0x40 MLOAD PUSH3 0x461BCD PUSH1 0xE5 SHL DUP2 MSTORE PUSH1 0x4 ADD PUSH2 0x5BC SWAP1 PUSH2 0x15D8 JUMP JUMPDEST PUSH1 0x7 SLOAD PUSH2 0x100 SWAP1 DIV PUSH1 0xFF AND ISZERO PUSH2 0x97B JUMPI PUSH1 0x40 MLOAD PUSH3 0x461BCD PUSH1 0xE5 SHL DUP2 MSTORE PUSH1 0x20 PUSH1 0x4 DUP3 ADD MSTORE PUSH1 0x14 PUSH1 0x24 DUP3 ADD MSTORE PUSH20 0x61697264726F7020616C726561647920646F6E65 PUSH1 0x60 SHL PUSH1 0x44 DUP3 ADD MSTORE PUSH1 0x64 ADD PUSH2 0x5BC JUMP JUMPDEST PUSH1 0x0 PUSH2 0x99A PUSH11 0x84595161401484A000000 PUSH8 0x16345785D8A0000 PUSH2 0x1225 JUMP JUMPDEST SWAP1 POP PUSH2 0x9A6 DUP3 DUP3 PUSH2 0x1131 JUMP JUMPDEST PUSH1 0x7 DUP1 SLOAD PUSH2 0xFF00 NOT AND PUSH2 0x100 OR SWAP1 SSTORE PUSH1 0x40 MLOAD PUSH32 0xD0E93C5A4C2E9BF73EC7CBB7B20F83E5B3A0804EBB1653A2E8E0295CB9D48BCE SWAP1 PUSH2 0x7D3 SWAP1 DUP4 DUP2 MSTORE PUSH1 0x20 ADD SWAP1 JUMP JUMPDEST PUSH1 0x0 DUP1 PUSH2 0x9F3 PUSH1 0x2 SLOAD SWAP1 JUMP JUMPDEST SWAP1 POP PUSH1 0x0 PUSH2 0xA68 PUSH7 0x2386F26FC10000 PUSH7 0xB1A2BC2EC50000 PUSH8 0x429D069189E0000 PUSH8 0x16345785D8A0000 PUSH2 0xA2E DUP2 PUSH8 0xDE0B6B3A7640000 PUSH2 0x1600 JUMP JUMPDEST PUSH2 0xA38 SWAP2 SWAP1 PUSH2 0x1600 JUMP JUMPDEST PUSH2 0xA42 SWAP2 SWAP1 PUSH2 0x1600 JUMP JUMPDEST PUSH2 0xA4C SWAP2 SWAP1 PUSH2 0x1600 JUMP JUMPDEST PUSH2 0xA56 SWAP2 SWAP1 PUSH2 0x1600 JUMP JUMPDEST PUSH11 0x84595161401484A000000 SWAP1 PUSH2 0x1225 JUMP JUMPDEST SWAP1 POP PUSH1 0x0 PUSH2 0xA81 DUP3 PUSH11 0x84595161401484A000000 PUSH2 0x1600 JUMP JUMPDEST SWAP1 POP PUSH1 0x0 PUSH2 0xA8F DUP3 DUP6 PUSH2 0x1600 JUMP JUMPDEST SWAP1 POP PUSH2 0xA9B DUP2 DUP5 PUSH2 0x1247 JUMP JUMPDEST SWAP5 POP POP POP POP POP SWAP1 JUMP JUMPDEST PUSH2 0xAAF PUSH1 0x5 CALLER PUSH2 0x110F JUMP JUMPDEST PUSH2 0xACB JUMPI PUSH1 0x40 MLOAD PUSH3 0x461BCD PUSH1 0xE5 SHL DUP2 MSTORE PUSH1 0x4 ADD PUSH2 0x5BC SWAP1 PUSH2 0x15D8 JUMP JUMPDEST PUSH1 0x7 SLOAD PUSH4 0x1000000 SWAP1 DIV PUSH1 0xFF AND ISZERO PUSH2 0xB25 JUMPI PUSH1 0x40 MLOAD PUSH3 0x461BCD PUSH1 0xE5 SHL DUP2 MSTORE PUSH1 0x20 PUSH1 0x4 DUP3 ADD MSTORE PUSH1 0x1F PUSH1 0x24 DUP3 ADD MSTORE PUSH32 0x7472656173757279207265776172647320616C7265616479206D696E74656400 PUSH1 0x44 DUP3 ADD MSTORE PUSH1 0x64 ADD PUSH2 0x5BC JUMP JUMPDEST PUSH1 0x0 PUSH2 0xB43 PUSH11 0x84595161401484A000000 PUSH7 0xB1A2BC2EC50000 PUSH2 0x1225 JUMP JUMPDEST SWAP1 POP PUSH2 0xB4F DUP3 DUP3 PUSH2 0x1131 JUMP JUMPDEST PUSH1 0x7 DUP1 SLOAD PUSH4 0xFF000000 NOT AND PUSH4 0x1000000 OR SWAP1 SSTORE PUSH1 0x40 MLOAD PUSH32 0x3F759F4D99D78902DB4AEFE5267A8DED87095E93E34DE88A4750D83D32DB3D75 SWAP1 PUSH2 0x7D3 SWAP1 DUP4 DUP2 MSTORE PUSH1 0x20 ADD SWAP1 JUMP JUMPDEST PUSH2 0xB9F PUSH1 0x5 CALLER PUSH2 0x110F JUMP JUMPDEST PUSH2 0xBBB JUMPI PUSH1 0x40 MLOAD PUSH3 0x461BCD PUSH1 0xE5 SHL DUP2 MSTORE PUSH1 0x4 ADD PUSH2 0x5BC SWAP1 PUSH2 0x15D8 JUMP JUMPDEST PUSH1 0x7 SLOAD PUSH1 0xFF AND ISZERO PUSH2 0xC05 JUMPI PUSH1 0x40 MLOAD PUSH3 0x461BCD PUSH1 0xE5 SHL DUP2 MSTORE PUSH1 0x20 PUSH1 0x4 DUP3 ADD MSTORE PUSH1 0x14 PUSH1 0x24 DUP3 ADD MSTORE PUSH20 0x7072656D696E7420616C726561647920646F6E65 PUSH1 0x60 SHL PUSH1 0x44 DUP3 ADD MSTORE PUSH1 0x64 ADD PUSH2 0x5BC JUMP JUMPDEST PUSH1 0x0 PUSH2 0xC24 PUSH11 0x84595161401484A000000 PUSH8 0x429D069189E0000 PUSH2 0x1225 JUMP JUMPDEST SWAP1 POP PUSH2 0xC30 DUP3 DUP3 PUSH2 0x1131 JUMP JUMPDEST PUSH1 0x7 DUP1 SLOAD PUSH1 0xFF NOT AND PUSH1 0x1 OR SWAP1 SSTORE PUSH1 0x40 MLOAD PUSH32 0xFCD40474FA7630E8D1EB5DC5B7FE5714D084304367598BC59F32875B2C55DBA0 SWAP1 PUSH2 0x7D3 SWAP1 DUP4 DUP2 MSTORE PUSH1 0x20 ADD SWAP1 JUMP JUMPDEST PUSH2 0xC7A PUSH1 0x5 CALLER PUSH2 0x110F JUMP JUMPDEST PUSH2 0xC96 JUMPI PUSH1 0x40 MLOAD PUSH3 0x461BCD PUSH1 0xE5 SHL DUP2 MSTORE PUSH1 0x4 ADD PUSH2 0x5BC SWAP1 PUSH2 0x15D8 JUMP JUMPDEST PUSH1 0x7 SLOAD PUSH5 0x100000000 SWAP1 DIV PUSH1 0xFF AND ISZERO PUSH2 0xCF1 JUMPI PUSH1 0x40 MLOAD PUSH3 0x461BCD PUSH1 0xE5 SHL DUP2 MSTORE PUSH1 0x20 PUSH1 0x4 DUP3 ADD MSTORE PUSH1 0x19 PUSH1 0x24 DUP3 ADD MSTORE PUSH32 0x7365656420736861726520616C7265616479206D696E74656400000000000000 PUSH1 0x44 DUP3 ADD MSTORE PUSH1 0x64 ADD PUSH2 0x5BC JUMP JUMPDEST PUSH1 0x0 PUSH2 0xD0F PUSH11 0x84595161401484A000000 PUSH7 0x2386F26FC10000 PUSH2 0x1225 JUMP JUMPDEST SWAP1 POP PUSH2 0xD1B DUP3 DUP3 PUSH2 0x1131 JUMP JUMPDEST PUSH1 0x7 DUP1 SLOAD PUSH5 0xFF00000000 NOT AND PUSH5 0x100000000 OR SWAP1 SSTORE PUSH1 0x40 MLOAD PUSH32 0xDEC4020415F2934687EDF026856F723EEE67A66A6C8CFEA21A111F3D06833D5A SWAP1 PUSH2 0x7D3 SWAP1 DUP4 DUP2 MSTORE PUSH1 0x20 ADD SWAP1 JUMP JUMPDEST PUSH1 0x0 PUSH2 0xD77 DUP4 PUSH1 0x1 PUSH1 0x1 PUSH1 0xA0 SHL SUB DUP5 AND PUSH2 0x1260 JUMP JUMPDEST SWAP4 SWAP3 POP POP POP JUMP JUMPDEST PUSH1 0x1 PUSH1 0x1 PUSH1 0xA0 SHL SUB DUP4 AND PUSH2 0xDE0 JUMPI PUSH1 0x40 MLOAD PUSH3 0x461BCD PUSH1 0xE5 SHL DUP2 MSTORE PUSH1 0x20 PUSH1 0x4 DUP3 ADD MSTORE PUSH1 0x24 DUP1 DUP3 ADD MSTORE PUSH32 0x45524332303A20617070726F76652066726F6D20746865207A65726F20616464 PUSH1 0x44 DUP3 ADD MSTORE PUSH4 0x72657373 PUSH1 0xE0 SHL PUSH1 0x64 DUP3 ADD MSTORE PUSH1 0x84 ADD PUSH2 0x5BC JUMP JUMPDEST PUSH1 0x1 PUSH1 0x1 PUSH1 0xA0 SHL SUB DUP3 AND PUSH2 0xE41 JUMPI PUSH1 0x40 MLOAD PUSH3 0x461BCD PUSH1 0xE5 SHL DUP2 MSTORE PUSH1 0x20 PUSH1 0x4 DUP3 ADD MSTORE PUSH1 0x22 PUSH1 0x24 DUP3 ADD MSTORE PUSH32 0x45524332303A20617070726F766520746F20746865207A65726F206164647265 PUSH1 0x44 DUP3 ADD MSTORE PUSH2 0x7373 PUSH1 0xF0 SHL PUSH1 0x64 DUP3 ADD MSTORE PUSH1 0x84 ADD PUSH2 0x5BC JUMP JUMPDEST PUSH1 0x1 PUSH1 0x1 PUSH1 0xA0 SHL SUB DUP4 DUP2 AND PUSH1 0x0 DUP2 DUP2 MSTORE PUSH1 0x1 PUSH1 0x20 SWAP1 DUP2 MSTORE PUSH1 0x40 DUP1 DUP4 KECCAK256 SWAP5 DUP8 AND DUP1 DUP5 MSTORE SWAP5 DUP3 MSTORE SWAP2 DUP3 SWAP1 KECCAK256 DUP6 SWAP1 SSTORE SWAP1 MLOAD DUP5 DUP2 MSTORE PUSH32 0x8C5BE1E5EBEC7D5BD14F71427D1E84F3DD0314C0F7B2291E5B200AC8C7C3B925 SWAP2 ADD PUSH1 0x40 MLOAD DUP1 SWAP2 SUB SWAP1 LOG3 POP POP POP JUMP JUMPDEST PUSH1 0x60 PUSH1 0x0 PUSH2 0xD77 DUP4 PUSH2 0x12AF JUMP JUMPDEST PUSH1 0x1 PUSH1 0x1 PUSH1 0xA0 SHL SUB DUP4 DUP2 AND PUSH1 0x0 SWAP1 DUP2 MSTORE PUSH1 0x1 PUSH1 0x20 SWAP1 DUP2 MSTORE PUSH1 0x40 DUP1 DUP4 KECCAK256 SWAP4 DUP7 AND DUP4 MSTORE SWAP3 SWAP1 MSTORE KECCAK256 SLOAD PUSH1 0x0 NOT DUP2 EQ PUSH2 0xF3B JUMPI DUP2 DUP2 LT ISZERO PUSH2 0xF2E JUMPI PUSH1 0x40 MLOAD PUSH3 0x461BCD PUSH1 0xE5 SHL DUP2 MSTORE PUSH1 0x20 PUSH1 0x4 DUP3 ADD MSTORE PUSH1 0x1D PUSH1 0x24 DUP3 ADD MSTORE PUSH32 0x45524332303A20696E73756666696369656E7420616C6C6F77616E6365000000 PUSH1 0x44 DUP3 ADD MSTORE PUSH1 0x64 ADD PUSH2 0x5BC JUMP JUMPDEST PUSH2 0xF3B DUP5 DUP5 DUP5 DUP5 SUB PUSH2 0xD7E JUMP JUMPDEST POP POP POP POP JUMP JUMPDEST PUSH1 0x1 PUSH1 0x1 PUSH1 0xA0 SHL SUB DUP4 AND PUSH2 0xFA5 JUMPI PUSH1 0x40 MLOAD PUSH3 0x461BCD PUSH1 0xE5 SHL DUP2 MSTORE PUSH1 0x20 PUSH1 0x4 DUP3 ADD MSTORE PUSH1 0x25 PUSH1 0x24 DUP3 ADD MSTORE PUSH32 0x45524332303A207472616E736665722066726F6D20746865207A65726F206164 PUSH1 0x44 DUP3 ADD MSTORE PUSH5 0x6472657373 PUSH1 0xD8 SHL PUSH1 0x64 DUP3 ADD MSTORE PUSH1 0x84 ADD PUSH2 0x5BC JUMP JUMPDEST PUSH1 0x1 PUSH1 0x1 PUSH1 0xA0 SHL SUB DUP3 AND PUSH2 0x1007 JUMPI PUSH1 0x40 MLOAD PUSH3 0x461BCD PUSH1 0xE5 SHL DUP2 MSTORE PUSH1 0x20 PUSH1 0x4 DUP3 ADD MSTORE PUSH1 0x23 PUSH1 0x24 DUP3 ADD MSTORE PUSH32 0x45524332303A207472616E7366657220746F20746865207A65726F2061646472 PUSH1 0x44 DUP3 ADD MSTORE PUSH3 0x657373 PUSH1 0xE8 SHL PUSH1 0x64 DUP3 ADD MSTORE PUSH1 0x84 ADD PUSH2 0x5BC JUMP JUMPDEST PUSH1 0x1 PUSH1 0x1 PUSH1 0xA0 SHL SUB DUP4 AND PUSH1 0x0 SWAP1 DUP2 MSTORE PUSH1 0x20 DUP2 SWAP1 MSTORE PUSH1 0x40 SWAP1 KECCAK256 SLOAD DUP2 DUP2 LT ISZERO PUSH2 0x107F JUMPI PUSH1 0x40 MLOAD PUSH3 0x461BCD PUSH1 0xE5 SHL DUP2 MSTORE PUSH1 0x20 PUSH1 0x4 DUP3 ADD MSTORE PUSH1 0x26 PUSH1 0x24 DUP3 ADD MSTORE PUSH32 0x45524332303A207472616E7366657220616D6F756E7420657863656564732062 PUSH1 0x44 DUP3 ADD MSTORE PUSH6 0x616C616E6365 PUSH1 0xD0 SHL PUSH1 0x64 DUP3 ADD MSTORE PUSH1 0x84 ADD PUSH2 0x5BC JUMP JUMPDEST PUSH1 0x1 PUSH1 0x1 PUSH1 0xA0 SHL SUB DUP1 DUP6 AND PUSH1 0x0 SWAP1 DUP2 MSTORE PUSH1 0x20 DUP2 SWAP1 MSTORE PUSH1 0x40 DUP1 DUP3 KECCAK256 DUP6 DUP6 SUB SWAP1 SSTORE SWAP2 DUP6 AND DUP2 MSTORE SWAP1 DUP2 KECCAK256 DUP1 SLOAD DUP5 SWAP3 SWAP1 PUSH2 0x10B6 SWAP1 DUP5 SWAP1 PUSH2 0x15C0 JUMP JUMPDEST SWAP3 POP POP DUP2 SWAP1 SSTORE POP DUP3 PUSH1 0x1 PUSH1 0x1 PUSH1 0xA0 SHL SUB AND DUP5 PUSH1 0x1 PUSH1 0x1 PUSH1 0xA0 SHL SUB AND PUSH32 0xDDF252AD1BE2C89B69C2B068FC378DAA952BA7F163C4A11628F55A4DF523B3EF DUP5 PUSH1 0x40 MLOAD PUSH2 0x1102 SWAP2 DUP2 MSTORE PUSH1 0x20 ADD SWAP1 JUMP JUMPDEST PUSH1 0x40 MLOAD DUP1 SWAP2 SUB SWAP1 LOG3 PUSH2 0xF3B JUMP JUMPDEST PUSH1 0x1 PUSH1 0x1 PUSH1 0xA0 SHL SUB DUP2 AND PUSH1 0x0 SWAP1 DUP2 MSTORE PUSH1 0x1 DUP4 ADD PUSH1 0x20 MSTORE PUSH1 0x40 DUP2 KECCAK256 SLOAD ISZERO ISZERO PUSH2 0xD77 JUMP JUMPDEST PUSH1 0x1 PUSH1 0x1 PUSH1 0xA0 SHL SUB DUP3 AND PUSH2 0x1187 JUMPI PUSH1 0x40 MLOAD PUSH3 0x461BCD PUSH1 0xE5 SHL DUP2 MSTORE PUSH1 0x20 PUSH1 0x4 DUP3 ADD MSTORE PUSH1 0x1F PUSH1 0x24 DUP3 ADD MSTORE PUSH32 0x45524332303A206D696E7420746F20746865207A65726F206164647265737300 PUSH1 0x44 DUP3 ADD MSTORE PUSH1 0x64 ADD PUSH2 0x5BC JUMP JUMPDEST DUP1 PUSH1 0x2 PUSH1 0x0 DUP3 DUP3 SLOAD PUSH2 0x1199 SWAP2 SWAP1 PUSH2 0x15C0 JUMP JUMPDEST SWAP1 SWAP2 SSTORE POP POP PUSH1 0x1 PUSH1 0x1 PUSH1 0xA0 SHL SUB DUP3 AND PUSH1 0x0 SWAP1 DUP2 MSTORE PUSH1 0x20 DUP2 SWAP1 MSTORE PUSH1 0x40 DUP2 KECCAK256 DUP1 SLOAD DUP4 SWAP3 SWAP1 PUSH2 0x11C6 SWAP1 DUP5 SWAP1 PUSH2 0x15C0 JUMP JUMPDEST SWAP1 SWAP2 SSTORE POP POP PUSH1 0x40 MLOAD DUP2 DUP2 MSTORE PUSH1 0x1 PUSH1 0x1 PUSH1 0xA0 SHL SUB DUP4 AND SWAP1 PUSH1 0x0 SWAP1 PUSH32 0xDDF252AD1BE2C89B69C2B068FC378DAA952BA7F163C4A11628F55A4DF523B3EF SWAP1 PUSH1 0x20 ADD PUSH1 0x40 MLOAD DUP1 SWAP2 SUB SWAP1 LOG3 POP POP JUMP JUMPDEST PUSH1 0x0 PUSH2 0xD77 DUP4 PUSH1 0x1 PUSH1 0x1 PUSH1 0xA0 SHL SUB DUP5 AND PUSH2 0x130B JUMP JUMPDEST PUSH1 0x0 PUSH2 0x1233 PUSH1 0x12 PUSH1 0xA PUSH2 0x16FB JUMP JUMPDEST PUSH2 0x123D DUP4 DUP6 PUSH2 0x1707 JUMP JUMPDEST PUSH2 0xD77 SWAP2 SWAP1 PUSH2 0x1726 JUMP JUMPDEST PUSH1 0x0 DUP2 PUSH2 0x1256 PUSH1 0x12 PUSH1 0xA PUSH2 0x16FB JUMP JUMPDEST PUSH2 0x123D SWAP1 DUP6 PUSH2 0x1707 JUMP JUMPDEST PUSH1 0x0 DUP2 DUP2 MSTORE PUSH1 0x1 DUP4 ADD PUSH1 0x20 MSTORE PUSH1 0x40 DUP2 KECCAK256 SLOAD PUSH2 0x12A7 JUMPI POP DUP2 SLOAD PUSH1 0x1 DUP2 DUP2 ADD DUP5 SSTORE PUSH1 0x0 DUP5 DUP2 MSTORE PUSH1 0x20 DUP1 DUP3 KECCAK256 SWAP1 SWAP4 ADD DUP5 SWAP1 SSTORE DUP5 SLOAD DUP5 DUP3 MSTORE DUP3 DUP7 ADD SWAP1 SWAP4 MSTORE PUSH1 0x40 SWAP1 KECCAK256 SWAP2 SWAP1 SWAP2 SSTORE PUSH2 0x519 JUMP JUMPDEST POP PUSH1 0x0 PUSH2 0x519 JUMP JUMPDEST PUSH1 0x60 DUP2 PUSH1 0x0 ADD DUP1 SLOAD DUP1 PUSH1 0x20 MUL PUSH1 0x20 ADD PUSH1 0x40 MLOAD SWAP1 DUP2 ADD PUSH1 0x40 MSTORE DUP1 SWAP3 SWAP2 SWAP1 DUP2 DUP2 MSTORE PUSH1 0x20 ADD DUP3 DUP1 SLOAD DUP1 ISZERO PUSH2 0x12FF JUMPI PUSH1 0x20 MUL DUP3 ADD SWAP2 SWAP1 PUSH1 0x0 MSTORE PUSH1 0x20 PUSH1 0x0 KECCAK256 SWAP1 JUMPDEST DUP2 SLOAD DUP2 MSTORE PUSH1 0x20 ADD SWAP1 PUSH1 0x1 ADD SWAP1 DUP1 DUP4 GT PUSH2 0x12EB JUMPI JUMPDEST POP POP POP POP POP SWAP1 POP SWAP2 SWAP1 POP JUMP JUMPDEST PUSH1 0x0 DUP2 DUP2 MSTORE PUSH1 0x1 DUP4 ADD PUSH1 0x20 MSTORE PUSH1 0x40 DUP2 KECCAK256 SLOAD DUP1 ISZERO PUSH2 0x13F4 JUMPI PUSH1 0x0 PUSH2 0x132F PUSH1 0x1 DUP4 PUSH2 0x1600 JUMP JUMPDEST DUP6 SLOAD SWAP1 SWAP2 POP PUSH1 0x0 SWAP1 PUSH2 0x1343 SWAP1 PUSH1 0x1 SWAP1 PUSH2 0x1600 JUMP JUMPDEST SWAP1 POP DUP2 DUP2 EQ PUSH2 0x13A8 JUMPI PUSH1 0x0 DUP7 PUSH1 0x0 ADD DUP3 DUP2 SLOAD DUP2 LT PUSH2 0x1363 JUMPI PUSH2 0x1363 PUSH2 0x1748 JUMP JUMPDEST SWAP1 PUSH1 0x0 MSTORE PUSH1 0x20 PUSH1 0x0 KECCAK256 ADD SLOAD SWAP1 POP DUP1 DUP8 PUSH1 0x0 ADD DUP5 DUP2 SLOAD DUP2 LT PUSH2 0x1386 JUMPI PUSH2 0x1386 PUSH2 0x1748 JUMP JUMPDEST PUSH1 0x0 SWAP2 DUP3 MSTORE PUSH1 0x20 DUP1 DUP4 KECCAK256 SWAP1 SWAP2 ADD SWAP3 SWAP1 SWAP3 SSTORE SWAP2 DUP3 MSTORE PUSH1 0x1 DUP9 ADD SWAP1 MSTORE PUSH1 0x40 SWAP1 KECCAK256 DUP4 SWAP1 SSTORE JUMPDEST DUP6 SLOAD DUP7 SWAP1 DUP1 PUSH2 0x13B9 JUMPI PUSH2 0x13B9 PUSH2 0x175E JUMP JUMPDEST PUSH1 0x1 SWAP1 SUB DUP2 DUP2 SWAP1 PUSH1 0x0 MSTORE PUSH1 0x20 PUSH1 0x0 KECCAK256 ADD PUSH1 0x0 SWAP1 SSTORE SWAP1 SSTORE DUP6 PUSH1 0x1 ADD PUSH1 0x0 DUP7 DUP2 MSTORE PUSH1 0x20 ADD SWAP1 DUP2 MSTORE PUSH1 0x20 ADD PUSH1 0x0 KECCAK256 PUSH1 0x0 SWAP1 SSTORE PUSH1 0x1 SWAP4 POP POP POP POP PUSH2 0x519 JUMP JUMPDEST PUSH1 0x0 SWAP2 POP POP PUSH2 0x519 JUMP JUMPDEST PUSH1 0x0 PUSH1 0x20 DUP1 DUP4 MSTORE DUP4 MLOAD DUP1 DUP3 DUP6 ADD MSTORE PUSH1 0x0 JUMPDEST DUP2 DUP2 LT ISZERO PUSH2 0x142B JUMPI DUP6 DUP2 ADD DUP4 ADD MLOAD DUP6 DUP3 ADD PUSH1 0x40 ADD MSTORE DUP3 ADD PUSH2 0x140F JUMP JUMPDEST DUP2 DUP2 GT ISZERO PUSH2 0x143D JUMPI PUSH1 0x0 PUSH1 0x40 DUP4 DUP8 ADD ADD MSTORE JUMPDEST POP PUSH1 0x1F ADD PUSH1 0x1F NOT AND SWAP3 SWAP1 SWAP3 ADD PUSH1 0x40 ADD SWAP4 SWAP3 POP POP POP JUMP JUMPDEST DUP1 CALLDATALOAD PUSH1 0x1 PUSH1 0x1 PUSH1 0xA0 SHL SUB DUP2 AND DUP2 EQ PUSH2 0x146A JUMPI PUSH1 0x0 DUP1 REVERT JUMPDEST SWAP2 SWAP1 POP JUMP JUMPDEST PUSH1 0x0 DUP1 PUSH1 0x40 DUP4 DUP6 SUB SLT ISZERO PUSH2 0x1482 JUMPI PUSH1 0x0 DUP1 REVERT JUMPDEST PUSH2 0x148B DUP4 PUSH2 0x1453 JUMP JUMPDEST SWAP5 PUSH1 0x20 SWAP4 SWAP1 SWAP4 ADD CALLDATALOAD SWAP4 POP POP POP JUMP JUMPDEST PUSH1 0x20 DUP1 DUP3 MSTORE DUP3 MLOAD DUP3 DUP3 ADD DUP2 SWAP1 MSTORE PUSH1 0x0 SWAP2 SWAP1 DUP5 DUP3 ADD SWAP1 PUSH1 0x40 DUP6 ADD SWAP1 DUP5 JUMPDEST DUP2 DUP2 LT ISZERO PUSH2 0x14DA JUMPI DUP4 MLOAD PUSH1 0x1 PUSH1 0x1 PUSH1 0xA0 SHL SUB AND DUP4 MSTORE SWAP3 DUP5 ADD SWAP3 SWAP2 DUP5 ADD SWAP2 PUSH1 0x1 ADD PUSH2 0x14B5 JUMP JUMPDEST POP SWAP1 SWAP7 SWAP6 POP POP POP POP POP POP JUMP JUMPDEST PUSH1 0x0 DUP1 PUSH1 0x0 PUSH1 0x60 DUP5 DUP7 SUB SLT ISZERO PUSH2 0x14FB JUMPI PUSH1 0x0 DUP1 REVERT JUMPDEST PUSH2 0x1504 DUP5 PUSH2 0x1453 JUMP JUMPDEST SWAP3 POP PUSH2 0x1512 PUSH1 0x20 DUP6 ADD PUSH2 0x1453 JUMP JUMPDEST SWAP2 POP PUSH1 0x40 DUP5 ADD CALLDATALOAD SWAP1 POP SWAP3 POP SWAP3 POP SWAP3 JUMP JUMPDEST PUSH1 0x0 PUSH1 0x20 DUP3 DUP5 SUB SLT ISZERO PUSH2 0x1534 JUMPI PUSH1 0x0 DUP1 REVERT JUMPDEST PUSH2 0xD77 DUP3 PUSH2 0x1453 JUMP JUMPDEST PUSH1 0x0 DUP1 PUSH1 0x40 DUP4 DUP6 SUB SLT ISZERO PUSH2 0x1550 JUMPI PUSH1 0x0 DUP1 REVERT JUMPDEST PUSH2 0x1559 DUP4 PUSH2 0x1453 JUMP JUMPDEST SWAP2 POP PUSH2 0x1567 PUSH1 0x20 DUP5 ADD PUSH2 0x1453 JUMP JUMPDEST SWAP1 POP SWAP3 POP SWAP3 SWAP1 POP JUMP JUMPDEST PUSH1 0x1 DUP2 DUP2 SHR SWAP1 DUP3 AND DUP1 PUSH2 0x1584 JUMPI PUSH1 0x7F DUP3 AND SWAP2 POP JUMPDEST PUSH1 0x20 DUP3 LT DUP2 SUB PUSH2 0x15A4 JUMPI PUSH4 0x4E487B71 PUSH1 0xE0 SHL PUSH1 0x0 MSTORE PUSH1 0x22 PUSH1 0x4 MSTORE PUSH1 0x24 PUSH1 0x0 REVERT JUMPDEST POP SWAP2 SWAP1 POP JUMP JUMPDEST PUSH4 0x4E487B71 PUSH1 0xE0 SHL PUSH1 0x0 MSTORE PUSH1 0x11 PUSH1 0x4 MSTORE PUSH1 0x24 PUSH1 0x0 REVERT JUMPDEST PUSH1 0x0 DUP3 NOT DUP3 GT ISZERO PUSH2 0x15D3 JUMPI PUSH2 0x15D3 PUSH2 0x15AA JUMP JUMPDEST POP ADD SWAP1 JUMP JUMPDEST PUSH1 0x20 DUP1 DUP3 MSTORE PUSH1 0xE SWAP1 DUP3 ADD MSTORE PUSH14 0x1B9BDD08185D5D1A1BDC9A5E9959 PUSH1 0x92 SHL PUSH1 0x40 DUP3 ADD MSTORE PUSH1 0x60 ADD SWAP1 JUMP JUMPDEST PUSH1 0x0 DUP3 DUP3 LT ISZERO PUSH2 0x1612 JUMPI PUSH2 0x1612 PUSH2 0x15AA JUMP JUMPDEST POP SUB SWAP1 JUMP JUMPDEST PUSH1 0x1 DUP2 DUP2 JUMPDEST DUP1 DUP6 GT ISZERO PUSH2 0x1652 JUMPI DUP2 PUSH1 0x0 NOT DIV DUP3 GT ISZERO PUSH2 0x1638 JUMPI PUSH2 0x1638 PUSH2 0x15AA JUMP JUMPDEST DUP1 DUP6 AND ISZERO PUSH2 0x1645 JUMPI SWAP2 DUP2 MUL SWAP2 JUMPDEST SWAP4 DUP5 SHR SWAP4 SWAP1 DUP1 MUL SWAP1 PUSH2 0x161C JUMP JUMPDEST POP SWAP3 POP SWAP3 SWAP1 POP JUMP JUMPDEST PUSH1 0x0 DUP3 PUSH2 0x1669 JUMPI POP PUSH1 0x1 PUSH2 0x519 JUMP JUMPDEST DUP2 PUSH2 0x1676 JUMPI POP PUSH1 0x0 PUSH2 0x519 JUMP JUMPDEST DUP2 PUSH1 0x1 DUP2 EQ PUSH2 0x168C JUMPI PUSH1 0x2 DUP2 EQ PUSH2 0x1696 JUMPI PUSH2 0x16B2 JUMP JUMPDEST PUSH1 0x1 SWAP2 POP POP PUSH2 0x519 JUMP JUMPDEST PUSH1 0xFF DUP5 GT ISZERO PUSH2 0x16A7 JUMPI PUSH2 0x16A7 PUSH2 0x15AA JUMP JUMPDEST POP POP PUSH1 0x1 DUP3 SHL PUSH2 0x519 JUMP JUMPDEST POP PUSH1 0x20 DUP4 LT PUSH2 0x133 DUP4 LT AND PUSH1 0x4E DUP5 LT PUSH1 0xB DUP5 LT AND OR ISZERO PUSH2 0x16D5 JUMPI POP DUP2 DUP2 EXP PUSH2 0x519 JUMP JUMPDEST PUSH2 0x16DF DUP4 DUP4 PUSH2 0x1617 JUMP JUMPDEST DUP1 PUSH1 0x0 NOT DIV DUP3 GT ISZERO PUSH2 0x16F3 JUMPI PUSH2 0x16F3 PUSH2 0x15AA JUMP JUMPDEST MUL SWAP4 SWAP3 POP POP POP JUMP JUMPDEST PUSH1 0x0 PUSH2 0xD77 DUP4 DUP4 PUSH2 0x165A JUMP JUMPDEST PUSH1 0x0 DUP2 PUSH1 0x0 NOT DIV DUP4 GT DUP3 ISZERO ISZERO AND ISZERO PUSH2 0x1721 JUMPI PUSH2 0x1721 PUSH2 0x15AA JUMP JUMPDEST POP MUL SWAP1 JUMP JUMPDEST PUSH1 0x0 DUP3 PUSH2 0x1743 JUMPI PUSH4 0x4E487B71 PUSH1 0xE0 SHL PUSH1 0x0 MSTORE PUSH1 0x12 PUSH1 0x4 MSTORE PUSH1 0x24 PUSH1 0x0 REVERT JUMPDEST POP DIV SWAP1 JUMP JUMPDEST PUSH4 0x4E487B71 PUSH1 0xE0 SHL PUSH1 0x0 MSTORE PUSH1 0x32 PUSH1 0x4 MSTORE PUSH1 0x24 PUSH1 0x0 REVERT JUMPDEST PUSH4 0x4E487B71 PUSH1 0xE0 SHL PUSH1 0x0 MSTORE PUSH1 0x31 PUSH1 0x4 MSTORE PUSH1 0x24 PUSH1 0x0 REVERT INVALID LOG2 PUSH5 0x6970667358 0x22 SLT KECCAK256 0xCF 0xE2 REVERT PUSH27 0x75ECC65222CA56FF8B5B8E7A727EAFC2178393364750FA47F585AB PUSH20 0x64736F6C634300080D0033000000000000000000 ","sha1":"01298aab81ffe76f007e5c99c94c55e4f2b02603","source":"// SPDX-License-Identifier: GPL-3.0-or-later\npragma solidity ^0.8.13;\n\nimport \"@openzeppelin/contracts/token/ERC20/ERC20.sol\";\nimport \"@openzeppelin/contracts/utils/structs/EnumerableSet.sol\";\n\nimport \"../../libraries/ScaledMath.sol\";\nimport \"../../interfaces/tokenomics/ICNCToken.sol\";\n\n/// @notice the deployer will initially have minting rights\n/// The process will be to premint `PRE_MINT_RATIO` of `MAX_TOTAL_SUPPLY`\n/// to the initial distribution address, grant the minting rights to the inflation manager\n/// and renounce its minting rights\ncontract CNCToken is ICNCToken, ERC20 {\n    using EnumerableSet for EnumerableSet.AddressSet;\n    using ScaledMath for uint256;\n\n    uint256 public constant PRE_MINT_RATIO = 0.3e18;\n    uint256 public constant AIRDROP_MINT_RATIO = 0.1e18;\n    uint256 public constant AMM_REWARDS_RATIO = 0.1e18;\n    uint256 public constant TREASURY_REWARDS_RATIO = 0.05e18;\n    uint256 public constant TREASURY_SEED_RATIO = 0.01e18;\n    uint256 public constant INFLATION_RATIO =\n        1e18 -\n            AMM_REWARDS_RATIO -\n            AIRDROP_MINT_RATIO -\n            PRE_MINT_RATIO -\n            TREASURY_REWARDS_RATIO -\n            TREASURY_SEED_RATIO;\n    uint256 public constant MAX_TOTAL_SUPPLY = 10_000_000e18;\n\n    EnumerableSet.AddressSet internal authorizedMinters;\n\n    bool public initialDistributionMintDone;\n    bool public airdropMintDone;\n    bool public ammGaugeMintDone;\n    bool public treasuryMintDone;\n    bool public seedShareMintDone;\n\n    modifier onlyMinter() {\n        require(authorizedMinters.contains(msg.sender), \"not authorized\");\n        _;\n    }\n\n    constructor() ERC20(\"Conic Finance Token\", \"CNC\") {\n        authorizedMinters.add(msg.sender);\n        emit MinterAdded(msg.sender);\n    }\n\n    function addMinter(address newMinter) external onlyMinter {\n        if (authorizedMinters.add(newMinter)) {\n            emit MinterAdded(newMinter);\n        }\n    }\n\n    function renounceMinterRights() external onlyMinter {\n        authorizedMinters.remove(msg.sender);\n        emit MinterRemoved(msg.sender);\n    }\n\n    function mintInitialDistribution(address distribution) external onlyMinter {\n        require(!initialDistributionMintDone, \"premint already done\");\n        uint256 mintAmount = MAX_TOTAL_SUPPLY.mulDown(PRE_MINT_RATIO);\n        _mint(distribution, mintAmount);\n        initialDistributionMintDone = true;\n        emit InitialDistributionMinted(mintAmount);\n    }\n\n    function mintAirdrop(address airdropHandler) external onlyMinter {\n        require(!airdropMintDone, \"airdrop already done\");\n        uint256 mintAmount = MAX_TOTAL_SUPPLY.mulDown(AIRDROP_MINT_RATIO);\n        _mint(airdropHandler, mintAmount);\n        airdropMintDone = true;\n        emit AirdropMinted(mintAmount);\n    }\n\n    function mintAMMRewards(address ammGauge) external onlyMinter {\n        require(!ammGaugeMintDone, \"amm rewards already minted\");\n        uint256 mintAmount = MAX_TOTAL_SUPPLY.mulDown(AMM_REWARDS_RATIO);\n        _mint(ammGauge, mintAmount);\n        ammGaugeMintDone = true;\n        emit AMMRewardsMinted(mintAmount);\n    }\n\n    function mintTreasuryShare(address treasuryEscrow) external onlyMinter {\n        require(!treasuryMintDone, \"treasury rewards already minted\");\n        uint256 mintAmount = MAX_TOTAL_SUPPLY.mulDown(TREASURY_REWARDS_RATIO);\n        _mint(treasuryEscrow, mintAmount);\n        treasuryMintDone = true;\n        emit TreasuryRewardsMinted(mintAmount);\n    }\n\n    function mintSeedShare(address treasury) external onlyMinter {\n        require(!seedShareMintDone, \"seed share already minted\");\n        uint256 mintAmount = MAX_TOTAL_SUPPLY.mulDown(TREASURY_SEED_RATIO);\n        _mint(treasury, mintAmount);\n        seedShareMintDone = true;\n        emit SeedShareMinted(mintAmount);\n    }\n\n    function mint(address account, uint256 amount) external onlyMinter returns (uint256) {\n        uint256 currentSupply = totalSupply();\n        if (amount + currentSupply > MAX_TOTAL_SUPPLY) {\n            amount = MAX_TOTAL_SUPPLY - currentSupply;\n        }\n        if (amount > 0) {\n            _mint(account, amount);\n        }\n        return amount;\n    }\n\n    /// @dev this assumes that all the pre-mint events occured\n    function inflationMintedRatio() external view returns (uint256) {\n        uint256 currentSupply = totalSupply();\n        uint256 totalToMint = MAX_TOTAL_SUPPLY.mulDown(INFLATION_RATIO);\n        uint256 totalPreMinted = MAX_TOTAL_SUPPLY - totalToMint;\n        uint256 totalInflationMinted = currentSupply - totalPreMinted;\n        return totalInflationMinted.divDown(totalToMint);\n    }\n\n    function listMinters() external view returns (address[] memory) {\n        return authorizedMinters.values();\n    }\n}\n","sourcePath":"contracts/tokenomics/CNCToken.sol","type":"contract","deployment":{"address":"0x9aE380F0272E2162340a5bB646c354271c0F5cFC","chainid":"1","blockHeight":14533764}}