{"abi":[{"inputs":[{"internalType":"address","name":"controller_","type":"address"},{"internalType":"contract ICNCToken","name":"cnc_","type":"address"},{"internalType":"address","name":"treasury_","type":"address"}],"stateMutability":"nonpayable","type":"constructor","name":"constructor"},{"anonymous":false,"inputs":[{"indexed":true,"internalType":"address","name":"account","type":"address"},{"indexed":false,"internalType":"uint256","name":"amount","type":"uint256"}],"name":"LpTokenStaked","type":"event"},{"anonymous":false,"inputs":[{"indexed":true,"internalType":"address","name":"account","type":"address"},{"indexed":false,"internalType":"uint256","name":"amount","type":"uint256"}],"name":"LpTokenUnstaked","type":"event"},{"anonymous":false,"inputs":[],"name":"Shutdown","type":"event"},{"anonymous":false,"inputs":[{"indexed":true,"internalType":"address","name":"pool","type":"address"},{"indexed":false,"internalType":"uint256","name":"cncAmount","type":"uint256"}],"name":"TokensClaimed","type":"event"},{"inputs":[],"name":"INCREASE_PERIOD","outputs":[{"internalType":"uint256","name":"","type":"uint256"}],"stateMutability":"view","type":"function"},{"inputs":[],"name":"MAX_BOOST","outputs":[{"internalType":"uint256","name":"","type":"uint256"}],"stateMutability":"view","type":"function"},{"inputs":[],"name":"MIN_BOOST","outputs":[{"internalType":"uint256","name":"","type":"uint256"}],"stateMutability":"view","type":"function"},{"inputs":[],"name":"TIME_STARTING_FACTOR","outputs":[{"internalType":"uint256","name":"","type":"uint256"}],"stateMutability":"view","type":"function"},{"inputs":[],"name":"TVL_FACTOR","outputs":[{"internalType":"uint256","name":"","type":"uint256"}],"stateMutability":"view","type":"function"},{"inputs":[{"internalType":"address","name":"account","type":"address"}],"name":"_getTotalStakedForUserCommonDenomination","outputs":[{"internalType":"uint256","name":"","type":"uint256"},{"internalType":"uint256","name":"","type":"uint256"}],"stateMutability":"view","type":"function"},{"inputs":[{"internalType":"address","name":"","type":"address"}],"name":"boosts","outputs":[{"internalType":"uint256","name":"timeBoost","type":"uint256"},{"internalType":"uint256","name":"lastUpdated","type":"uint256"}],"stateMutability":"view","type":"function"},{"inputs":[{"internalType":"address","name":"pool","type":"address"}],"name":"checkpoint","outputs":[{"internalType":"uint256","name":"","type":"uint256"}],"stateMutability":"nonpayable","type":"function"},{"inputs":[{"internalType":"address","name":"pool","type":"address"}],"name":"claimCNCRewardsForPool","outputs":[],"stateMutability":"nonpayable","type":"function"},{"inputs":[{"internalType":"address","name":"pool","type":"address"}],"name":"claimableCnc","outputs":[{"internalType":"uint256","name":"","type":"uint256"}],"stateMutability":"view","type":"function"},{"inputs":[],"name":"cnc","outputs":[{"internalType":"contract ICNCToken","name":"","type":"address"}],"stateMutability":"view","type":"function"},{"inputs":[],"name":"controller","outputs":[{"internalType":"contract IController","name":"","type":"address"}],"stateMutability":"view","type":"function"},{"inputs":[{"internalType":"address","name":"conicPool","type":"address"}],"name":"getBalanceForPool","outputs":[{"internalType":"uint256","name":"","type":"uint256"}],"stateMutability":"view","type":"function"},{"inputs":[{"internalType":"address","name":"user","type":"address"}],"name":"getBoost","outputs":[{"internalType":"uint256","name":"","type":"uint256"}],"stateMutability":"view","type":"function"},{"inputs":[{"internalType":"address","name":"user","type":"address"}],"name":"getCachedBoost","outputs":[{"internalType":"uint256","name":"","type":"uint256"}],"stateMutability":"view","type":"function"},{"inputs":[{"internalType":"address","name":"conicPool","type":"address"},{"internalType":"address","name":"account","type":"address"}],"name":"getUserBalanceForPool","outputs":[{"internalType":"uint256","name":"","type":"uint256"}],"stateMutability":"view","type":"function"},{"inputs":[],"name":"isShutdown","outputs":[{"internalType":"bool","name":"","type":"bool"}],"stateMutability":"view","type":"function"},{"inputs":[{"internalType":"address","name":"","type":"address"}],"name":"poolLastUpdated","outputs":[{"internalType":"uint256","name":"","type":"uint256"}],"stateMutability":"view","type":"function"},{"inputs":[{"internalType":"address","name":"","type":"address"}],"name":"poolShares","outputs":[{"internalType":"uint256","name":"","type":"uint256"}],"stateMutability":"view","type":"function"},{"inputs":[],"name":"shutdown","outputs":[],"stateMutability":"nonpayable","type":"function"},{"inputs":[{"internalType":"uint256","name":"amount","type":"uint256"},{"internalType":"address","name":"conicPool","type":"address"}],"name":"stake","outputs":[],"stateMutability":"nonpayable","type":"function"},{"inputs":[{"internalType":"uint256","name":"amount","type":"uint256"},{"internalType":"address","name":"conicPool","type":"address"},{"internalType":"address","name":"account","type":"address"}],"name":"stakeFor","outputs":[],"stateMutability":"nonpayable","type":"function"},{"inputs":[{"internalType":"uint256","name":"amount","type":"uint256"},{"internalType":"address","name":"conicPool","type":"address"}],"name":"unstake","outputs":[],"stateMutability":"nonpayable","type":"function"},{"inputs":[{"internalType":"uint256","name":"amount","type":"uint256"},{"internalType":"address","name":"conicPool","type":"address"},{"internalType":"address","name":"account","type":"address"}],"name":"unstakeFor","outputs":[],"stateMutability":"nonpayable","type":"function"},{"inputs":[{"internalType":"uint256","name":"amount","type":"uint256"},{"internalType":"address","name":"account","type":"address"}],"name":"unstakeFrom","outputs":[],"stateMutability":"nonpayable","type":"function"},{"inputs":[{"internalType":"address","name":"user","type":"address"}],"name":"updateBoost","outputs":[],"stateMutability":"nonpayable","type":"function"}],"bytecode":"60e06040523480156200001157600080fd5b5060405162002a5038038062002a5083398101604081905262000034916200016d565b6001600160a01b03808416608052821660a0526200005162000066565b6001600160a01b031660c05250620002e79050565b60006080516001600160a01b031663687958626040518163ffffffff1660e01b8152600401600060405180830381865afa158015620000a9573d6000803e3d6000fd5b505050506040513d6000823e601f3d908101601f19168201604052620000d39190810190620001d7565b905060005b81518110156200013e574260046000848481518110620000fc57620000fc620002a9565b60200260200101516001600160a01b03166001600160a01b031681526020019081526020016000208190555080806200013590620002bf565b915050620000d8565b5050565b6001600160a01b03811681146200015857600080fd5b50565b8051620001688162000142565b919050565b6000806000606084860312156200018357600080fd5b8351620001908162000142565b6020850151909350620001a38162000142565b6040850151909250620001b68162000142565b809150509250925092565b634e487b7160e01b600052604160045260246000fd5b60006020808385031215620001eb57600080fd5b82516001600160401b03808211156200020357600080fd5b818501915085601f8301126200021857600080fd5b8151818111156200022d576200022d620001c1565b8060051b604051601f19603f83011681018181108582111715620002555762000255620001c1565b6040529182528482019250838101850191888311156200027457600080fd5b938501935b828510156200029d576200028d856200015b565b8452938501939285019262000279565b98975050505050505050565b634e487b7160e01b600052603260045260246000fd5b600060018201620002e057634e487b7160e01b600052601160045260246000fd5b5060010190565b60805160a05160c0516126d06200038060003960006116cd0152600081816103890152818161163b015281816116fc015281816119de01528181611a8a0152611b310152600081816103c80152818161044b015281816107f301528181610ad001528181610db0015281816111750152818161136b015281816114eb0152818161155c015281816119090152611e8601526126d06000f3fe608060405234801561001057600080fd5b506004361061018e5760003560e01c80638aba3f77116100de578063bf86d69011610097578063f77c479111610071578063f77c4791146103c3578063fa4083ca146103ea578063fc0e74d1146103fd578063fdabc9861461040557600080fd5b8063bf86d69014610354578063d3487a8c14610371578063f0aa0a1d1461038457600080fd5b80638aba3f77146102bb578063a0190c17146102e4578063a3f0ed07146102f7578063a91ea1ba1461031f578063a972985e14610332578063bb51ccf01461034557600080fd5b80635598b2091161014b5780637acb7757116101255780637acb77571461027b5780637b3db81a1461028e5780638381e18214610298578063863445b8146102ab57600080fd5b80635598b2091461021f57806362f04c001461024857806367ba3d901461026857600080fd5b80630276d476146101935780630325d161146101a85780630a7486c7146101bb5780630fb51f41146101dd578063315865df146101fd57806333f1c3371461020c575b600080fd5b6101a66101a1366004612216565b61042c565b005b6101a66101b6366004612258565b6107de565b6101ca670de0b6b3a764000081565b6040519081526020015b60405180910390f35b6101ca6101eb366004612288565b60036020526000908152604090205481565b6101ca678ac7230489e8000081565b6101a661021a366004612216565b610a8e565b6101ca61022d366004612288565b6001600160a01b031660009081526001602052604090205490565b6101ca610256366004612288565b60046020526000908152604090205481565b6101ca610276366004612288565b610efe565b6101a6610289366004612258565b61105b565b6101ca62278d0081565b6101a66102a6366004612258565b611066565b6101ca680270801d946c94000081565b6101ca6102c9366004612288565b6001600160a01b031660009081526002602052604090205490565b6101a66102f2366004612288565b611071565b61030a610305366004612288565b61116e565b604080519283526020830191909152016101d4565b6101a661032d366004612288565b61126d565b6101ca610340366004612288565b6112aa565b6101ca67016345785d8a000081565b6005546103619060ff1681565b60405190151581526020016101d4565b6101ca61037f366004612288565b611351565b6103ab7f000000000000000000000000000000000000000000000000000000000000000081565b6040516001600160a01b0390911681526020016101d4565b6103ab7f000000000000000000000000000000000000000000000000000000000000000081565b6101ca6103f83660046122a5565b6114b5565b6101a66114e0565b61030a610413366004612288565b6002602052600090815260409020805460019091015482565b604051635b16ebb760e01b81526001600160a01b0383811660048301527f00000000000000000000000000000000000000000000000000000000000000001690635b16ebb790602401602060405180830381865afa158015610492573d6000803e3d6000fd5b505050506040513d601f19601f820116820180604052508101906104b691906122d3565b6104fa5760405162461bcd60e51b815260206004820152601060248201526f1b9bdd08184818dbdb9a58c81c1bdbdb60821b60448201526064015b60405180910390fd5b336000908152602081815260408083206001600160a01b038616845290915290205483111561055f5760405162461bcd60e51b81526020600482015260116024820152701b9bdd08195b9bdd59da081cdd185ad959607a1b60448201526064016104f1565b60055460ff1661063157816001600160a01b0316630f4ef8a66040518163ffffffff1660e01b8152600401602060405180830381865afa1580156105a7573d6000803e3d6000fd5b505050506040513d601f19601f820116820180604052508101906105cb91906122f5565b60405163bf928f8b60e01b81523360048201526001600160a01b03919091169063bf928f8b90602401600060405180830381600087803b15801561060e57600080fd5b505af1158015610622573d6000803e3d6000fd5b505050506106313360006117a5565b336000908152602081815260408083206001600160a01b038616845290915281208054859290610662908490612328565b90915550506001600160a01b0382166000908152600160205260408120805485929061068f908490612328565b9250508190555061070d8184846001600160a01b0316635fcbd2856040518163ffffffff1660e01b8152600401602060405180830381865afa1580156106d9573d6000803e3d6000fd5b505050506040513d601f19601f820116820180604052508101906106fd91906122f5565b6001600160a01b031691906117c3565b816001600160a01b0316635fcbd2856040518163ffffffff1660e01b8152600401602060405180830381865afa15801561074b573d6000803e3d6000fd5b505050506040513d601f19601f8201168201806040525081019061076f91906122f5565b6040516362e4a67760e11b81523360048201526001600160a01b03838116602483015260448201869052919091169063c5c94cee90606401600060405180830381600087803b1580156107c157600080fd5b505af11580156107d5573d6000803e3d6000fd5b50505050505050565b604051635b16ebb760e01b81523360048201527f00000000000000000000000000000000000000000000000000000000000000006001600160a01b031690635b16ebb790602401602060405180830381865afa158015610842573d6000803e3d6000fd5b505050506040513d601f19601f8201168201806040525081019061086691906122d3565b6108b25760405162461bcd60e51b815260206004820152601d60248201527f6f6e6c792063616c6c61626c652066726f6d20636f6e696320706f6f6c00000060448201526064016104f1565b6001600160a01b0381166000908152602081815260408083203384529091529020548211156109175760405162461bcd60e51b81526020600482015260116024820152701b9bdd08195b9bdd59da081cdd185ad959607a1b60448201526064016104f1565b60055460ff166109eb57336001600160a01b0316630f4ef8a66040518163ffffffff1660e01b8152600401602060405180830381865afa15801561095f573d6000803e3d6000fd5b505050506040513d601f19601f8201168201806040525081019061098391906122f5565b60405163bf928f8b60e01b81526001600160a01b038381166004830152919091169063bf928f8b90602401600060405180830381600087803b1580156109c857600080fd5b505af11580156109dc573d6000803e3d6000fd5b505050506109eb8160006117a5565b6001600160a01b03811660009081526020818152604080832033845290915281208054849290610a1c908490612328565b90915550503360009081526001602052604081208054849290610a40908490612328565b92505081905550610a8a8183336001600160a01b0316635fcbd2856040518163ffffffff1660e01b8152600401602060405180830381865afa1580156106d9573d6000803e3d6000fd5b5050565b60055460ff1615610ab15760405162461bcd60e51b81526004016104f19061233b565b604051635b16ebb760e01b81526001600160a01b0383811660048301527f00000000000000000000000000000000000000000000000000000000000000001690635b16ebb790602401602060405180830381865afa158015610b17573d6000803e3d6000fd5b505050506040513d601f19601f82011682018060405250810190610b3b91906122d3565b610b7a5760405162461bcd60e51b815260206004820152601060248201526f1b9bdd08184818dbdb9a58c81c1bdbdb60821b60448201526064016104f1565b6000826001600160a01b0316635fcbd2856040518163ffffffff1660e01b8152600401602060405180830381865afa158015610bba573d6000803e3d6000fd5b505050506040513d601f19601f82011682018060405250810190610bde91906122f5565b90506000836001600160a01b031663ce75040e6040518163ffffffff1660e01b8152600401602060405180830381865afa158015610c20573d6000803e3d6000fd5b505050506040513d601f19601f82011682018060405250810190610c449190612372565b9050836001600160a01b0316630f4ef8a66040518163ffffffff1660e01b8152600401602060405180830381865afa158015610c84573d6000803e3d6000fd5b505050506040513d601f19601f82011682018060405250810190610ca891906122f5565b60405163bf928f8b60e01b81526001600160a01b038581166004830152919091169063bf928f8b90602401600060405180830381600087803b158015610ced57600080fd5b505af1158015610d01573d6000803e3d6000fd5b50505050610d8683610d8183610d7b866001600160a01b031663313ce5676040518163ffffffff1660e01b8152600401602060405180830381865afa158015610d4e573d6000803e3d6000fd5b505050506040513d601f19601f82011682018060405250810190610d72919061238b565b8a906012611826565b90611871565b6117a5565b610d9b6001600160a01b038316333088611893565b604051635b16ebb760e01b81523360048201527f00000000000000000000000000000000000000000000000000000000000000006001600160a01b031690635b16ebb790602401602060405180830381865afa158015610dff573d6000803e3d6000fd5b505050506040513d601f19601f82011682018060405250810190610e2391906122d3565b610e90576040516362e4a67760e11b81523360048201526001600160a01b0384811660248301526044820187905283169063c5c94cee90606401600060405180830381600087803b158015610e7757600080fd5b505af1158015610e8b573d6000803e3d6000fd5b505050505b6001600160a01b0380841660009081526020818152604080832093881683529290529081208054879290610ec59084906123ae565b90915550506001600160a01b03841660009081526001602052604081208054879290610ef29084906123ae565b90915550505050505050565b60055460009060ff1615610f1b5750670de0b6b3a7640000919050565b600080610f278461116e565b915091508060001480610f38575081155b15610f4e5750670de0b6b3a76400009392505050565b6000610f67680270801d946c940000610d7b85856118d1565b610f736012600a6124a5565b610f7d91906123ae565b6001600160a01b0386166000908152600260205260409020805491925090610fda67016345785d8a0000610fb36012600a6124a5565b610fbd9190612328565b610d7b62278d00856001015442610fd49190612328565b906118d1565b610fe490826123ae565b9050610ff26012600a6124a5565b811115611008576110056012600a6124a5565b90505b60006110148483611871565b9050670de0b6b3a76400008110156110355750670de0b6b3a7640000611050565b678ac7230489e800008111156110505750678ac7230489e800005b979650505050505050565b610a8a828233610a8e565b610a8a82823361042c565b60055460ff16156110945760405162461bcd60e51b81526004016104f19061233b565b806001600160a01b0316630f4ef8a66040518163ffffffff1660e01b8152600401602060405180830381865afa1580156110d2573d6000803e3d6000fd5b505050506040513d601f19601f820116820180604052508101906110f691906122f5565b6001600160a01b0316336001600160a01b0316146111625760405162461bcd60e51b8152602060048201526024808201527f63616e206f6e6c792062652063616c6c656420627920726577617264206d616e60448201526330b3b2b960e11b60648201526084016104f1565b61116b816118ea565b50565b60008060007f00000000000000000000000000000000000000000000000000000000000000006001600160a01b031663687958626040518163ffffffff1660e01b8152600401600060405180830381865afa1580156111d1573d6000803e3d6000fd5b505050506040513d6000823e601f3d908101601f191682016040526111f991908101906124d2565b905060008060005b8351811015611262576000806112308987858151811061122357611223612597565b6020026020010151611bfa565b909250905061123f82866123ae565b945061124b81856123ae565b93505050808061125a906125ad565b915050611201565b509590945092505050565b60055460ff16156112905760405162461bcd60e51b81526004016104f19061233b565b600061129b8261116e565b509050610a8a82826000611d9a565b60055460009060ff16156112d05760405162461bcd60e51b81526004016104f19061233b565b6001600160a01b0382166000908152600460205260408120546112f39042612328565b90508060000361131a5750506001600160a01b031660009081526003602052604090205490565b61132383611e82565b50506001600160a01b038116600090815260046020908152604080832042905560039091529020545b919050565b60055460009060ff161561136757506000919050565b60007f00000000000000000000000000000000000000000000000000000000000000006001600160a01b031663dbcd89fa6040518163ffffffff1660e01b8152600401602060405180830381865afa1580156113c7573d6000803e3d6000fd5b505050506040513d601f19601f820116820180604052508101906113eb91906122f5565b604051631d43c9d360e01b81526001600160a01b0385811660048301529190911690631d43c9d390602401602060405180830381865afa158015611433573d6000803e3d6000fd5b505050506040513d601f19601f820116820180604052508101906114579190612372565b6001600160a01b0384166000908152600460205260408120549192509061147e9042612328565b905061148a81836125c6565b6001600160a01b0385166000908152600360205260409020546114ad91906123ae565b949350505050565b6001600160a01b03808216600090815260208181526040808320938616835292905220545b92915050565b336001600160a01b037f000000000000000000000000000000000000000000000000000000000000000016146115585760405162461bcd60e51b815260206004820152601d60248201527f4c70546f6b656e5374616b65723a206e6f7420636f6e74726f6c6c657200000060448201526064016104f1565b60007f00000000000000000000000000000000000000000000000000000000000000006001600160a01b031663687958626040518163ffffffff1660e01b8152600401600060405180830381865afa1580156115b8573d6000803e3d6000fd5b505050506040513d6000823e601f3d908101601f191682016040526115e091908101906124d2565b905060005b81518110156116225761161082828151811061160357611603612597565b60200260200101516118ea565b8061161a816125ad565b9150506115e5565b506040516370a0823160e01b81523060048201526000907f00000000000000000000000000000000000000000000000000000000000000006001600160a01b0316906370a0823190602401602060405180830381865afa15801561168a573d6000803e3d6000fd5b505050506040513d601f19601f820116820180604052508101906116ae9190612372565b9050801561176b5760405163a9059cbb60e01b81526001600160a01b037f000000000000000000000000000000000000000000000000000000000000000081166004830152602482018390527f0000000000000000000000000000000000000000000000000000000000000000169063a9059cbb906044016020604051808303816000875af1158015611745573d6000803e3d6000fd5b505050506040513d601f19601f8201168201806040525081019061176991906122d3565b505b6005805460ff191660011790556040517f4426aa1fb73e391071491fcfe21a88b5c38a0a0333a1f6e77161470439704cf890600090a15050565b60006117b08361116e565b5090506117be838284611d9a565b505050565b6040516001600160a01b0383166024820152604481018290526117be90849063a9059cbb60e01b906064015b60408051601f198184030181529190526020810180516001600160e01b03166001600160e01b031990931692909217909152611fd7565b60008160ff168360ff160361183c57508261186a565b8160ff168360ff16111561185c576118558484846120ac565b905061186a565b6118678484846120cd565b90505b9392505050565b600061187f6012600a6124a5565b61188983856125c6565b61186a91906125dd565b6040516001600160a01b03808516602483015283166044820152606481018290526118cb9085906323b872dd60e01b906084016117ef565b50505050565b6000816118e06012600a6124a5565b61188990856125c6565b604051635b16ebb760e01b81526001600160a01b0382811660048301527f00000000000000000000000000000000000000000000000000000000000000001690635b16ebb790602401602060405180830381865afa158015611950573d6000803e3d6000fd5b505050506040513d601f19601f8201168201806040525081019061197491906122d3565b6119ad5760405162461bcd60e51b815260206004820152600a6024820152691b9bdd0818481c1bdbdb60b21b60448201526064016104f1565b60006119b8826112aa565b9050806000036119c6575050565b6040516370a0823160e01b81523060048201526000907f00000000000000000000000000000000000000000000000000000000000000006001600160a01b0316906370a0823190602401602060405180830381865afa158015611a2d573d6000803e3d6000fd5b505050506040513d601f19601f82011682018060405250810190611a519190612372565b90508015611b055781811115611a645750805b60405163a9059cbb60e01b81526001600160a01b038481166004830152602482018390527f0000000000000000000000000000000000000000000000000000000000000000169063a9059cbb906044016020604051808303816000875af1158015611ad3573d6000803e3d6000fd5b505050506040513d601f19601f82011682018060405250810190611af791906122d3565b50611b028183612328565b91505b8115611ba0576040516340c10f1960e01b81526001600160a01b038481166004830152602482018490527f000000000000000000000000000000000000000000000000000000000000000016906340c10f19906044016020604051808303816000875af1158015611b7a573d6000803e3d6000fd5b505050506040513d601f19601f82011682018060405250810190611b9e9190612372565b505b6001600160a01b0383166000818152600360205260408120557f896e034966eaaf1adc54acc0f257056febbd300c9e47182cf761982cf1f5e430611be483856123ae565b60405190815260200160405180910390a2505050565b6000806000836001600160a01b031663ce75040e6040518163ffffffff1660e01b8152600401602060405180830381865afa158015611c3d573d6000803e3d6000fd5b505050506040513d601f19601f82011682018060405250810190611c619190612372565b90506000846001600160a01b0316635fcbd2856040518163ffffffff1660e01b8152600401602060405180830381865afa158015611ca3573d6000803e3d6000fd5b505050506040513d601f19601f82011682018060405250810190611cc791906122f5565b6001600160a01b031663313ce5676040518163ffffffff1660e01b8152600401602060405180830381865afa158015611d04573d6000803e3d6000fd5b505050506040513d601f19601f82011682018060405250810190611d28919061238b565b6001600160a01b038616600090815260016020526040902054909150611d56908390610d7b90846012611826565b6001600160a01b03808816600090815260208181526040808320938a1683529290522054909450611d8f908390610d7b90846012611826565b925050509250929050565b6001600160a01b038316600090815260026020526040812090839003611dd15767016345785d8a0000815542600190910155505050565b8054611deb67016345785d8a0000610fb36012600a6124a5565b611df590826123ae565b9050611e036012600a6124a5565b811115611e1957611e166012600a6124a5565b90505b82600003611e2957808255611e75565b6000611e3584866123ae565b9050611e53611e4485836118d1565b67016345785d8a000090611871565b611e67611e6087846118d1565b8490611871565b611e7191906123ae565b8355505b5042600190910155505050565b60007f00000000000000000000000000000000000000000000000000000000000000006001600160a01b031663dbcd89fa6040518163ffffffff1660e01b8152600401602060405180830381865afa158015611ee2573d6000803e3d6000fd5b505050506040513d601f19601f82011682018060405250810190611f0691906122f5565b604051631d43c9d360e01b81526001600160a01b0384811660048301529190911690631d43c9d390602401602060405180830381865afa158015611f4e573d6000803e3d6000fd5b505050506040513d601f19601f82011682018060405250810190611f729190612372565b6001600160a01b03831660009081526004602052604081205491925090611f999042612328565b9050611fa581836125c6565b6001600160a01b03841660009081526003602052604081208054909190611fcd9084906123ae565b9091555050505050565b600061202c826040518060400160405280602081526020017f5361666545524332303a206c6f772d6c6576656c2063616c6c206661696c6564815250856001600160a01b03166120ee9092919063ffffffff16565b905080516000148061204d57508080602001905181019061204d91906122d3565b6117be5760405162461bcd60e51b815260206004820152602a60248201527f5361666545524332303a204552433230206f7065726174696f6e20646964206e6044820152691bdd081cdd58d8d9595960b21b60648201526084016104f1565b60006120b882846125ff565b6120c390600a612618565b61186790856125dd565b60006120d983836125ff565b6120e490600a612618565b61186790856125c6565b6060611867848460008585600080866001600160a01b03168587604051612115919061264b565b60006040518083038185875af1925050503d8060008114612152576040519150601f19603f3d011682016040523d82523d6000602084013e612157565b606091505b509150915061105087838387606083156121d25782516000036121cb576001600160a01b0385163b6121cb5760405162461bcd60e51b815260206004820152601d60248201527f416464726573733a2063616c6c20746f206e6f6e2d636f6e747261637400000060448201526064016104f1565b50816114ad565b6114ad83838151156121e75781518083602001fd5b8060405162461bcd60e51b81526004016104f19190612667565b6001600160a01b038116811461116b57600080fd5b60008060006060848603121561222b57600080fd5b83359250602084013561223d81612201565b9150604084013561224d81612201565b809150509250925092565b6000806040838503121561226b57600080fd5b82359150602083013561227d81612201565b809150509250929050565b60006020828403121561229a57600080fd5b813561186a81612201565b600080604083850312156122b857600080fd5b82356122c381612201565b9150602083013561227d81612201565b6000602082840312156122e557600080fd5b8151801515811461186a57600080fd5b60006020828403121561230757600080fd5b815161186a81612201565b634e487b7160e01b600052601160045260246000fd5b818103818111156114da576114da612312565b60208082526017908201527f4c70546f6b656e5374616b65723a2073687574646f776e000000000000000000604082015260600190565b60006020828403121561238457600080fd5b5051919050565b60006020828403121561239d57600080fd5b815160ff8116811461186a57600080fd5b808201808211156114da576114da612312565b600181815b808511156123fc5781600019048211156123e2576123e2612312565b808516156123ef57918102915b93841c93908002906123c6565b509250929050565b600082612413575060016114da565b81612420575060006114da565b816001811461243657600281146124405761245c565b60019150506114da565b60ff84111561245157612451612312565b50506001821b6114da565b5060208310610133831016604e8410600b841016171561247f575081810a6114da565b61248983836123c1565b806000190482111561249d5761249d612312565b029392505050565b600061186a8383612404565b634e487b7160e01b600052604160045260246000fd5b805161134c81612201565b600060208083850312156124e557600080fd5b825167ffffffffffffffff808211156124fd57600080fd5b818501915085601f83011261251157600080fd5b815181811115612523576125236124b1565b8060051b604051601f19603f83011681018181108582111715612548576125486124b1565b60405291825284820192508381018501918883111561256657600080fd5b938501935b8285101561258b5761257c856124c7565b8452938501939285019261256b565b98975050505050505050565b634e487b7160e01b600052603260045260246000fd5b6000600182016125bf576125bf612312565b5060010190565b80820281158282048414176114da576114da612312565b6000826125fa57634e487b7160e01b600052601260045260246000fd5b500490565b60ff82811682821603908111156114da576114da612312565b600061186a60ff841683612404565b60005b8381101561264257818101518382015260200161262a565b50506000910152565b6000825161265d818460208701612627565b9190910192915050565b6020815260008251806020840152612686816040850160208701612627565b601f01601f1916919091016040019291505056fea2646970667358221220288546bd852a618e10406f912b2fc6dfbf231f12b97ee12ef01853c14950a06464736f6c63430008110033","bytecodeSha1":"3b0fef7f8baa436172da5958acf7c3981f9ed8fd","compiler":{"evm_version":"london","optimizer":{"enabled":true,"runs":200},"version":"0.8.17+commit.8df45f5f"},"contractName":"LpTokenStaker","language":"Solidity","natspec":{"details":"USD amounts in this contract are always scaled by 1e18","kind":"dev","methods":{},"version":1},"opcodes":"PUSH1 0x80 PUSH1 0x40 MSTORE CALLVALUE DUP1 ISZERO PUSH2 0x10 JUMPI PUSH1 0x0 DUP1 REVERT JUMPDEST POP PUSH1 0x4 CALLDATASIZE LT PUSH2 0x18E JUMPI PUSH1 0x0 CALLDATALOAD PUSH1 0xE0 SHR DUP1 PUSH4 0x8ABA3F77 GT PUSH2 0xDE JUMPI DUP1 PUSH4 0xBF86D690 GT PUSH2 0x97 JUMPI DUP1 PUSH4 0xF77C4791 GT PUSH2 0x71 JUMPI DUP1 PUSH4 0xF77C4791 EQ PUSH2 0x3C3 JUMPI DUP1 PUSH4 0xFA4083CA EQ PUSH2 0x3EA JUMPI DUP1 PUSH4 0xFC0E74D1 EQ PUSH2 0x3FD JUMPI DUP1 PUSH4 0xFDABC986 EQ PUSH2 0x405 JUMPI PUSH1 0x0 DUP1 REVERT JUMPDEST DUP1 PUSH4 0xBF86D690 EQ PUSH2 0x354 JUMPI DUP1 PUSH4 0xD3487A8C EQ PUSH2 0x371 JUMPI DUP1 PUSH4 0xF0AA0A1D EQ PUSH2 0x384 JUMPI PUSH1 0x0 DUP1 REVERT JUMPDEST DUP1 PUSH4 0x8ABA3F77 EQ PUSH2 0x2BB JUMPI DUP1 PUSH4 0xA0190C17 EQ PUSH2 0x2E4 JUMPI DUP1 PUSH4 0xA3F0ED07 EQ PUSH2 0x2F7 JUMPI DUP1 PUSH4 0xA91EA1BA EQ PUSH2 0x31F JUMPI DUP1 PUSH4 0xA972985E EQ PUSH2 0x332 JUMPI DUP1 PUSH4 0xBB51CCF0 EQ PUSH2 0x345 JUMPI PUSH1 0x0 DUP1 REVERT JUMPDEST DUP1 PUSH4 0x5598B209 GT PUSH2 0x14B JUMPI DUP1 PUSH4 0x7ACB7757 GT PUSH2 0x125 JUMPI DUP1 PUSH4 0x7ACB7757 EQ PUSH2 0x27B JUMPI DUP1 PUSH4 0x7B3DB81A EQ PUSH2 0x28E JUMPI DUP1 PUSH4 0x8381E182 EQ PUSH2 0x298 JUMPI DUP1 PUSH4 0x863445B8 EQ PUSH2 0x2AB JUMPI PUSH1 0x0 DUP1 REVERT JUMPDEST DUP1 PUSH4 0x5598B209 EQ PUSH2 0x21F JUMPI DUP1 PUSH4 0x62F04C00 EQ PUSH2 0x248 JUMPI DUP1 PUSH4 0x67BA3D90 EQ PUSH2 0x268 JUMPI PUSH1 0x0 DUP1 REVERT JUMPDEST DUP1 PUSH4 0x276D476 EQ PUSH2 0x193 JUMPI DUP1 PUSH4 0x325D161 EQ PUSH2 0x1A8 JUMPI DUP1 PUSH4 0xA7486C7 EQ PUSH2 0x1BB JUMPI DUP1 PUSH4 0xFB51F41 EQ PUSH2 0x1DD JUMPI DUP1 PUSH4 0x315865DF EQ PUSH2 0x1FD JUMPI DUP1 PUSH4 0x33F1C337 EQ PUSH2 0x20C JUMPI JUMPDEST PUSH1 0x0 DUP1 REVERT JUMPDEST PUSH2 0x1A6 PUSH2 0x1A1 CALLDATASIZE PUSH1 0x4 PUSH2 0x2216 JUMP JUMPDEST PUSH2 0x42C JUMP JUMPDEST STOP JUMPDEST PUSH2 0x1A6 PUSH2 0x1B6 CALLDATASIZE PUSH1 0x4 PUSH2 0x2258 JUMP JUMPDEST PUSH2 0x7DE JUMP JUMPDEST PUSH2 0x1CA PUSH8 0xDE0B6B3A7640000 DUP2 JUMP JUMPDEST PUSH1 0x40 MLOAD SWAP1 DUP2 MSTORE PUSH1 0x20 ADD JUMPDEST PUSH1 0x40 MLOAD DUP1 SWAP2 SUB SWAP1 RETURN JUMPDEST PUSH2 0x1CA PUSH2 0x1EB CALLDATASIZE PUSH1 0x4 PUSH2 0x2288 JUMP JUMPDEST PUSH1 0x3 PUSH1 0x20 MSTORE PUSH1 0x0 SWAP1 DUP2 MSTORE PUSH1 0x40 SWAP1 KECCAK256 SLOAD DUP2 JUMP JUMPDEST PUSH2 0x1CA PUSH8 0x8AC7230489E80000 DUP2 JUMP JUMPDEST PUSH2 0x1A6 PUSH2 0x21A CALLDATASIZE PUSH1 0x4 PUSH2 0x2216 JUMP JUMPDEST PUSH2 0xA8E JUMP JUMPDEST PUSH2 0x1CA PUSH2 0x22D CALLDATASIZE PUSH1 0x4 PUSH2 0x2288 JUMP JUMPDEST PUSH1 0x1 PUSH1 0x1 PUSH1 0xA0 SHL SUB AND PUSH1 0x0 SWAP1 DUP2 MSTORE PUSH1 0x1 PUSH1 0x20 MSTORE PUSH1 0x40 SWAP1 KECCAK256 SLOAD SWAP1 JUMP JUMPDEST PUSH2 0x1CA PUSH2 0x256 CALLDATASIZE PUSH1 0x4 PUSH2 0x2288 JUMP JUMPDEST PUSH1 0x4 PUSH1 0x20 MSTORE PUSH1 0x0 SWAP1 DUP2 MSTORE PUSH1 0x40 SWAP1 KECCAK256 SLOAD DUP2 JUMP JUMPDEST PUSH2 0x1CA PUSH2 0x276 CALLDATASIZE PUSH1 0x4 PUSH2 0x2288 JUMP JUMPDEST PUSH2 0xEFE JUMP JUMPDEST PUSH2 0x1A6 PUSH2 0x289 CALLDATASIZE PUSH1 0x4 PUSH2 0x2258 JUMP JUMPDEST PUSH2 0x105B JUMP JUMPDEST PUSH2 0x1CA PUSH3 0x278D00 DUP2 JUMP JUMPDEST PUSH2 0x1A6 PUSH2 0x2A6 CALLDATASIZE PUSH1 0x4 PUSH2 0x2258 JUMP JUMPDEST PUSH2 0x1066 JUMP JUMPDEST PUSH2 0x1CA PUSH9 0x270801D946C940000 DUP2 JUMP JUMPDEST PUSH2 0x1CA PUSH2 0x2C9 CALLDATASIZE PUSH1 0x4 PUSH2 0x2288 JUMP JUMPDEST PUSH1 0x1 PUSH1 0x1 PUSH1 0xA0 SHL SUB AND PUSH1 0x0 SWAP1 DUP2 MSTORE PUSH1 0x2 PUSH1 0x20 MSTORE PUSH1 0x40 SWAP1 KECCAK256 SLOAD SWAP1 JUMP JUMPDEST PUSH2 0x1A6 PUSH2 0x2F2 CALLDATASIZE PUSH1 0x4 PUSH2 0x2288 JUMP JUMPDEST PUSH2 0x1071 JUMP JUMPDEST PUSH2 0x30A PUSH2 0x305 CALLDATASIZE PUSH1 0x4 PUSH2 0x2288 JUMP JUMPDEST PUSH2 0x116E JUMP JUMPDEST PUSH1 0x40 DUP1 MLOAD SWAP3 DUP4 MSTORE PUSH1 0x20 DUP4 ADD SWAP2 SWAP1 SWAP2 MSTORE ADD PUSH2 0x1D4 JUMP JUMPDEST PUSH2 0x1A6 PUSH2 0x32D CALLDATASIZE PUSH1 0x4 PUSH2 0x2288 JUMP JUMPDEST PUSH2 0x126D JUMP JUMPDEST PUSH2 0x1CA PUSH2 0x340 CALLDATASIZE PUSH1 0x4 PUSH2 0x2288 JUMP JUMPDEST PUSH2 0x12AA JUMP JUMPDEST PUSH2 0x1CA PUSH8 0x16345785D8A0000 DUP2 JUMP JUMPDEST PUSH1 0x5 SLOAD PUSH2 0x361 SWAP1 PUSH1 0xFF AND DUP2 JUMP JUMPDEST PUSH1 0x40 MLOAD SWAP1 ISZERO ISZERO DUP2 MSTORE PUSH1 0x20 ADD PUSH2 0x1D4 JUMP JUMPDEST PUSH2 0x1CA PUSH2 0x37F CALLDATASIZE PUSH1 0x4 PUSH2 0x2288 JUMP JUMPDEST PUSH2 0x1351 JUMP JUMPDEST PUSH2 0x3AB PUSH32 0x0 DUP2 JUMP JUMPDEST PUSH1 0x40 MLOAD PUSH1 0x1 PUSH1 0x1 PUSH1 0xA0 SHL SUB SWAP1 SWAP2 AND DUP2 MSTORE PUSH1 0x20 ADD PUSH2 0x1D4 JUMP JUMPDEST PUSH2 0x3AB PUSH32 0x0 DUP2 JUMP JUMPDEST PUSH2 0x1CA PUSH2 0x3F8 CALLDATASIZE PUSH1 0x4 PUSH2 0x22A5 JUMP JUMPDEST PUSH2 0x14B5 JUMP JUMPDEST PUSH2 0x1A6 PUSH2 0x14E0 JUMP JUMPDEST PUSH2 0x30A PUSH2 0x413 CALLDATASIZE PUSH1 0x4 PUSH2 0x2288 JUMP JUMPDEST PUSH1 0x2 PUSH1 0x20 MSTORE PUSH1 0x0 SWAP1 DUP2 MSTORE PUSH1 0x40 SWAP1 KECCAK256 DUP1 SLOAD PUSH1 0x1 SWAP1 SWAP2 ADD SLOAD DUP3 JUMP JUMPDEST PUSH1 0x40 MLOAD PUSH4 0x5B16EBB7 PUSH1 0xE0 SHL DUP2 MSTORE PUSH1 0x1 PUSH1 0x1 PUSH1 0xA0 SHL SUB DUP4 DUP2 AND PUSH1 0x4 DUP4 ADD MSTORE PUSH32 0x0 AND SWAP1 PUSH4 0x5B16EBB7 SWAP1 PUSH1 0x24 ADD PUSH1 0x20 PUSH1 0x40 MLOAD DUP1 DUP4 SUB DUP2 DUP7 GAS STATICCALL ISZERO DUP1 ISZERO PUSH2 0x492 JUMPI RETURNDATASIZE PUSH1 0x0 DUP1 RETURNDATACOPY RETURNDATASIZE PUSH1 0x0 REVERT JUMPDEST POP POP POP POP PUSH1 0x40 MLOAD RETURNDATASIZE PUSH1 0x1F NOT PUSH1 0x1F DUP3 ADD AND DUP3 ADD DUP1 PUSH1 0x40 MSTORE POP DUP2 ADD SWAP1 PUSH2 0x4B6 SWAP2 SWAP1 PUSH2 0x22D3 JUMP JUMPDEST PUSH2 0x4FA JUMPI PUSH1 0x40 MLOAD PUSH3 0x461BCD PUSH1 0xE5 SHL DUP2 MSTORE PUSH1 0x20 PUSH1 0x4 DUP3 ADD MSTORE PUSH1 0x10 PUSH1 0x24 DUP3 ADD MSTORE PUSH16 0x1B9BDD08184818DBDB9A58C81C1BDBDB PUSH1 0x82 SHL PUSH1 0x44 DUP3 ADD MSTORE PUSH1 0x64 ADD JUMPDEST PUSH1 0x40 MLOAD DUP1 SWAP2 SUB SWAP1 REVERT JUMPDEST CALLER PUSH1 0x0 SWAP1 DUP2 MSTORE PUSH1 0x20 DUP2 DUP2 MSTORE PUSH1 0x40 DUP1 DUP4 KECCAK256 PUSH1 0x1 PUSH1 0x1 PUSH1 0xA0 SHL SUB DUP7 AND DUP5 MSTORE SWAP1 SWAP2 MSTORE SWAP1 KECCAK256 SLOAD DUP4 GT ISZERO PUSH2 0x55F JUMPI PUSH1 0x40 MLOAD PUSH3 0x461BCD PUSH1 0xE5 SHL DUP2 MSTORE PUSH1 0x20 PUSH1 0x4 DUP3 ADD MSTORE PUSH1 0x11 PUSH1 0x24 DUP3 ADD MSTORE PUSH17 0x1B9BDD08195B9BDD59DA081CDD185AD959 PUSH1 0x7A SHL PUSH1 0x44 DUP3 ADD MSTORE PUSH1 0x64 ADD PUSH2 0x4F1 JUMP JUMPDEST PUSH1 0x5 SLOAD PUSH1 0xFF AND PUSH2 0x631 JUMPI DUP2 PUSH1 0x1 PUSH1 0x1 PUSH1 0xA0 SHL SUB AND PUSH4 0xF4EF8A6 PUSH1 0x40 MLOAD DUP2 PUSH4 0xFFFFFFFF AND PUSH1 0xE0 SHL DUP2 MSTORE PUSH1 0x4 ADD PUSH1 0x20 PUSH1 0x40 MLOAD DUP1 DUP4 SUB DUP2 DUP7 GAS STATICCALL ISZERO DUP1 ISZERO PUSH2 0x5A7 JUMPI RETURNDATASIZE PUSH1 0x0 DUP1 RETURNDATACOPY RETURNDATASIZE PUSH1 0x0 REVERT JUMPDEST POP POP POP POP PUSH1 0x40 MLOAD RETURNDATASIZE PUSH1 0x1F NOT PUSH1 0x1F DUP3 ADD AND DUP3 ADD DUP1 PUSH1 0x40 MSTORE POP DUP2 ADD SWAP1 PUSH2 0x5CB SWAP2 SWAP1 PUSH2 0x22F5 JUMP JUMPDEST PUSH1 0x40 MLOAD PUSH4 0xBF928F8B PUSH1 0xE0 SHL DUP2 MSTORE CALLER PUSH1 0x4 DUP3 ADD MSTORE PUSH1 0x1 PUSH1 0x1 PUSH1 0xA0 SHL SUB SWAP2 SWAP1 SWAP2 AND SWAP1 PUSH4 0xBF928F8B SWAP1 PUSH1 0x24 ADD PUSH1 0x0 PUSH1 0x40 MLOAD DUP1 DUP4 SUB DUP2 PUSH1 0x0 DUP8 DUP1 EXTCODESIZE ISZERO DUP1 ISZERO PUSH2 0x60E JUMPI PUSH1 0x0 DUP1 REVERT JUMPDEST POP GAS CALL ISZERO DUP1 ISZERO PUSH2 0x622 JUMPI RETURNDATASIZE PUSH1 0x0 DUP1 RETURNDATACOPY RETURNDATASIZE PUSH1 0x0 REVERT JUMPDEST POP POP POP POP PUSH2 0x631 CALLER PUSH1 0x0 PUSH2 0x17A5 JUMP JUMPDEST CALLER PUSH1 0x0 SWAP1 DUP2 MSTORE PUSH1 0x20 DUP2 DUP2 MSTORE PUSH1 0x40 DUP1 DUP4 KECCAK256 PUSH1 0x1 PUSH1 0x1 PUSH1 0xA0 SHL SUB DUP7 AND DUP5 MSTORE SWAP1 SWAP2 MSTORE DUP2 KECCAK256 DUP1 SLOAD DUP6 SWAP3 SWAP1 PUSH2 0x662 SWAP1 DUP5 SWAP1 PUSH2 0x2328 JUMP JUMPDEST SWAP1 SWAP2 SSTORE POP POP PUSH1 0x1 PUSH1 0x1 PUSH1 0xA0 SHL SUB DUP3 AND PUSH1 0x0 SWAP1 DUP2 MSTORE PUSH1 0x1 PUSH1 0x20 MSTORE PUSH1 0x40 DUP2 KECCAK256 DUP1 SLOAD DUP6 SWAP3 SWAP1 PUSH2 0x68F SWAP1 DUP5 SWAP1 PUSH2 0x2328 JUMP JUMPDEST SWAP3 POP POP DUP2 SWAP1 SSTORE POP PUSH2 0x70D DUP2 DUP5 DUP5 PUSH1 0x1 PUSH1 0x1 PUSH1 0xA0 SHL SUB AND PUSH4 0x5FCBD285 PUSH1 0x40 MLOAD DUP2 PUSH4 0xFFFFFFFF AND PUSH1 0xE0 SHL DUP2 MSTORE PUSH1 0x4 ADD PUSH1 0x20 PUSH1 0x40 MLOAD DUP1 DUP4 SUB DUP2 DUP7 GAS STATICCALL ISZERO DUP1 ISZERO PUSH2 0x6D9 JUMPI RETURNDATASIZE PUSH1 0x0 DUP1 RETURNDATACOPY RETURNDATASIZE PUSH1 0x0 REVERT JUMPDEST POP POP POP POP PUSH1 0x40 MLOAD RETURNDATASIZE PUSH1 0x1F NOT PUSH1 0x1F DUP3 ADD AND DUP3 ADD DUP1 PUSH1 0x40 MSTORE POP DUP2 ADD SWAP1 PUSH2 0x6FD SWAP2 SWAP1 PUSH2 0x22F5 JUMP JUMPDEST PUSH1 0x1 PUSH1 0x1 PUSH1 0xA0 SHL SUB AND SWAP2 SWAP1 PUSH2 0x17C3 JUMP JUMPDEST DUP2 PUSH1 0x1 PUSH1 0x1 PUSH1 0xA0 SHL SUB AND PUSH4 0x5FCBD285 PUSH1 0x40 MLOAD DUP2 PUSH4 0xFFFFFFFF AND PUSH1 0xE0 SHL DUP2 MSTORE PUSH1 0x4 ADD PUSH1 0x20 PUSH1 0x40 MLOAD DUP1 DUP4 SUB DUP2 DUP7 GAS STATICCALL ISZERO DUP1 ISZERO PUSH2 0x74B JUMPI RETURNDATASIZE PUSH1 0x0 DUP1 RETURNDATACOPY RETURNDATASIZE PUSH1 0x0 REVERT JUMPDEST POP POP POP POP PUSH1 0x40 MLOAD RETURNDATASIZE PUSH1 0x1F NOT PUSH1 0x1F DUP3 ADD AND DUP3 ADD DUP1 PUSH1 0x40 MSTORE POP DUP2 ADD SWAP1 PUSH2 0x76F SWAP2 SWAP1 PUSH2 0x22F5 JUMP JUMPDEST PUSH1 0x40 MLOAD PUSH4 0x62E4A677 PUSH1 0xE1 SHL DUP2 MSTORE CALLER PUSH1 0x4 DUP3 ADD MSTORE PUSH1 0x1 PUSH1 0x1 PUSH1 0xA0 SHL SUB DUP4 DUP2 AND PUSH1 0x24 DUP4 ADD MSTORE PUSH1 0x44 DUP3 ADD DUP7 SWAP1 MSTORE SWAP2 SWAP1 SWAP2 AND SWAP1 PUSH4 0xC5C94CEE SWAP1 PUSH1 0x64 ADD PUSH1 0x0 PUSH1 0x40 MLOAD DUP1 DUP4 SUB DUP2 PUSH1 0x0 DUP8 DUP1 EXTCODESIZE ISZERO DUP1 ISZERO PUSH2 0x7C1 JUMPI PUSH1 0x0 DUP1 REVERT JUMPDEST POP GAS CALL ISZERO DUP1 ISZERO PUSH2 0x7D5 JUMPI RETURNDATASIZE PUSH1 0x0 DUP1 RETURNDATACOPY RETURNDATASIZE PUSH1 0x0 REVERT JUMPDEST POP POP POP POP POP POP POP JUMP JUMPDEST PUSH1 0x40 MLOAD PUSH4 0x5B16EBB7 PUSH1 0xE0 SHL DUP2 MSTORE CALLER PUSH1 0x4 DUP3 ADD MSTORE PUSH32 0x0 PUSH1 0x1 PUSH1 0x1 PUSH1 0xA0 SHL SUB AND SWAP1 PUSH4 0x5B16EBB7 SWAP1 PUSH1 0x24 ADD PUSH1 0x20 PUSH1 0x40 MLOAD DUP1 DUP4 SUB DUP2 DUP7 GAS STATICCALL ISZERO DUP1 ISZERO PUSH2 0x842 JUMPI RETURNDATASIZE PUSH1 0x0 DUP1 RETURNDATACOPY RETURNDATASIZE PUSH1 0x0 REVERT JUMPDEST POP POP POP POP PUSH1 0x40 MLOAD RETURNDATASIZE PUSH1 0x1F NOT PUSH1 0x1F DUP3 ADD AND DUP3 ADD DUP1 PUSH1 0x40 MSTORE POP DUP2 ADD SWAP1 PUSH2 0x866 SWAP2 SWAP1 PUSH2 0x22D3 JUMP JUMPDEST PUSH2 0x8B2 JUMPI PUSH1 0x40 MLOAD PUSH3 0x461BCD PUSH1 0xE5 SHL DUP2 MSTORE PUSH1 0x20 PUSH1 0x4 DUP3 ADD MSTORE PUSH1 0x1D PUSH1 0x24 DUP3 ADD MSTORE PUSH32 0x6F6E6C792063616C6C61626C652066726F6D20636F6E696320706F6F6C000000 PUSH1 0x44 DUP3 ADD MSTORE PUSH1 0x64 ADD PUSH2 0x4F1 JUMP JUMPDEST PUSH1 0x1 PUSH1 0x1 PUSH1 0xA0 SHL SUB DUP2 AND PUSH1 0x0 SWAP1 DUP2 MSTORE PUSH1 0x20 DUP2 DUP2 MSTORE PUSH1 0x40 DUP1 DUP4 KECCAK256 CALLER DUP5 MSTORE SWAP1 SWAP2 MSTORE SWAP1 KECCAK256 SLOAD DUP3 GT ISZERO PUSH2 0x917 JUMPI PUSH1 0x40 MLOAD PUSH3 0x461BCD PUSH1 0xE5 SHL DUP2 MSTORE PUSH1 0x20 PUSH1 0x4 DUP3 ADD MSTORE PUSH1 0x11 PUSH1 0x24 DUP3 ADD MSTORE PUSH17 0x1B9BDD08195B9BDD59DA081CDD185AD959 PUSH1 0x7A SHL PUSH1 0x44 DUP3 ADD MSTORE PUSH1 0x64 ADD PUSH2 0x4F1 JUMP JUMPDEST PUSH1 0x5 SLOAD PUSH1 0xFF AND PUSH2 0x9EB JUMPI CALLER PUSH1 0x1 PUSH1 0x1 PUSH1 0xA0 SHL SUB AND PUSH4 0xF4EF8A6 PUSH1 0x40 MLOAD DUP2 PUSH4 0xFFFFFFFF AND PUSH1 0xE0 SHL DUP2 MSTORE PUSH1 0x4 ADD PUSH1 0x20 PUSH1 0x40 MLOAD DUP1 DUP4 SUB DUP2 DUP7 GAS STATICCALL ISZERO DUP1 ISZERO PUSH2 0x95F JUMPI RETURNDATASIZE PUSH1 0x0 DUP1 RETURNDATACOPY RETURNDATASIZE PUSH1 0x0 REVERT JUMPDEST POP POP POP POP PUSH1 0x40 MLOAD RETURNDATASIZE PUSH1 0x1F NOT PUSH1 0x1F DUP3 ADD AND DUP3 ADD DUP1 PUSH1 0x40 MSTORE POP DUP2 ADD SWAP1 PUSH2 0x983 SWAP2 SWAP1 PUSH2 0x22F5 JUMP JUMPDEST PUSH1 0x40 MLOAD PUSH4 0xBF928F8B PUSH1 0xE0 SHL DUP2 MSTORE PUSH1 0x1 PUSH1 0x1 PUSH1 0xA0 SHL SUB DUP4 DUP2 AND PUSH1 0x4 DUP4 ADD MSTORE SWAP2 SWAP1 SWAP2 AND SWAP1 PUSH4 0xBF928F8B SWAP1 PUSH1 0x24 ADD PUSH1 0x0 PUSH1 0x40 MLOAD DUP1 DUP4 SUB DUP2 PUSH1 0x0 DUP8 DUP1 EXTCODESIZE ISZERO DUP1 ISZERO PUSH2 0x9C8 JUMPI PUSH1 0x0 DUP1 REVERT JUMPDEST POP GAS CALL ISZERO DUP1 ISZERO PUSH2 0x9DC JUMPI RETURNDATASIZE PUSH1 0x0 DUP1 RETURNDATACOPY RETURNDATASIZE PUSH1 0x0 REVERT JUMPDEST POP POP POP POP PUSH2 0x9EB DUP2 PUSH1 0x0 PUSH2 0x17A5 JUMP JUMPDEST PUSH1 0x1 PUSH1 0x1 PUSH1 0xA0 SHL SUB DUP2 AND PUSH1 0x0 SWAP1 DUP2 MSTORE PUSH1 0x20 DUP2 DUP2 MSTORE PUSH1 0x40 DUP1 DUP4 KECCAK256 CALLER DUP5 MSTORE SWAP1 SWAP2 MSTORE DUP2 KECCAK256 DUP1 SLOAD DUP5 SWAP3 SWAP1 PUSH2 0xA1C SWAP1 DUP5 SWAP1 PUSH2 0x2328 JUMP JUMPDEST SWAP1 SWAP2 SSTORE POP POP CALLER PUSH1 0x0 SWAP1 DUP2 MSTORE PUSH1 0x1 PUSH1 0x20 MSTORE PUSH1 0x40 DUP2 KECCAK256 DUP1 SLOAD DUP5 SWAP3 SWAP1 PUSH2 0xA40 SWAP1 DUP5 SWAP1 PUSH2 0x2328 JUMP JUMPDEST SWAP3 POP POP DUP2 SWAP1 SSTORE POP PUSH2 0xA8A DUP2 DUP4 CALLER PUSH1 0x1 PUSH1 0x1 PUSH1 0xA0 SHL SUB AND PUSH4 0x5FCBD285 PUSH1 0x40 MLOAD DUP2 PUSH4 0xFFFFFFFF AND PUSH1 0xE0 SHL DUP2 MSTORE PUSH1 0x4 ADD PUSH1 0x20 PUSH1 0x40 MLOAD DUP1 DUP4 SUB DUP2 DUP7 GAS STATICCALL ISZERO DUP1 ISZERO PUSH2 0x6D9 JUMPI RETURNDATASIZE PUSH1 0x0 DUP1 RETURNDATACOPY RETURNDATASIZE PUSH1 0x0 REVERT JUMPDEST POP POP JUMP JUMPDEST PUSH1 0x5 SLOAD PUSH1 0xFF AND ISZERO PUSH2 0xAB1 JUMPI PUSH1 0x40 MLOAD PUSH3 0x461BCD PUSH1 0xE5 SHL DUP2 MSTORE PUSH1 0x4 ADD PUSH2 0x4F1 SWAP1 PUSH2 0x233B JUMP JUMPDEST PUSH1 0x40 MLOAD PUSH4 0x5B16EBB7 PUSH1 0xE0 SHL DUP2 MSTORE PUSH1 0x1 PUSH1 0x1 PUSH1 0xA0 SHL SUB DUP4 DUP2 AND PUSH1 0x4 DUP4 ADD MSTORE PUSH32 0x0 AND SWAP1 PUSH4 0x5B16EBB7 SWAP1 PUSH1 0x24 ADD PUSH1 0x20 PUSH1 0x40 MLOAD DUP1 DUP4 SUB DUP2 DUP7 GAS STATICCALL ISZERO DUP1 ISZERO PUSH2 0xB17 JUMPI RETURNDATASIZE PUSH1 0x0 DUP1 RETURNDATACOPY RETURNDATASIZE PUSH1 0x0 REVERT JUMPDEST POP POP POP POP PUSH1 0x40 MLOAD RETURNDATASIZE PUSH1 0x1F NOT PUSH1 0x1F DUP3 ADD AND DUP3 ADD DUP1 PUSH1 0x40 MSTORE POP DUP2 ADD SWAP1 PUSH2 0xB3B SWAP2 SWAP1 PUSH2 0x22D3 JUMP JUMPDEST PUSH2 0xB7A JUMPI PUSH1 0x40 MLOAD PUSH3 0x461BCD PUSH1 0xE5 SHL DUP2 MSTORE PUSH1 0x20 PUSH1 0x4 DUP3 ADD MSTORE PUSH1 0x10 PUSH1 0x24 DUP3 ADD MSTORE PUSH16 0x1B9BDD08184818DBDB9A58C81C1BDBDB PUSH1 0x82 SHL PUSH1 0x44 DUP3 ADD MSTORE PUSH1 0x64 ADD PUSH2 0x4F1 JUMP JUMPDEST PUSH1 0x0 DUP3 PUSH1 0x1 PUSH1 0x1 PUSH1 0xA0 SHL SUB AND PUSH4 0x5FCBD285 PUSH1 0x40 MLOAD DUP2 PUSH4 0xFFFFFFFF AND PUSH1 0xE0 SHL DUP2 MSTORE PUSH1 0x4 ADD PUSH1 0x20 PUSH1 0x40 MLOAD DUP1 DUP4 SUB DUP2 DUP7 GAS STATICCALL ISZERO DUP1 ISZERO PUSH2 0xBBA JUMPI RETURNDATASIZE PUSH1 0x0 DUP1 RETURNDATACOPY RETURNDATASIZE PUSH1 0x0 REVERT JUMPDEST POP POP POP POP PUSH1 0x40 MLOAD RETURNDATASIZE PUSH1 0x1F NOT PUSH1 0x1F DUP3 ADD AND DUP3 ADD DUP1 PUSH1 0x40 MSTORE POP DUP2 ADD SWAP1 PUSH2 0xBDE SWAP2 SWAP1 PUSH2 0x22F5 JUMP JUMPDEST SWAP1 POP PUSH1 0x0 DUP4 PUSH1 0x1 PUSH1 0x1 PUSH1 0xA0 SHL SUB AND PUSH4 0xCE75040E PUSH1 0x40 MLOAD DUP2 PUSH4 0xFFFFFFFF AND PUSH1 0xE0 SHL DUP2 MSTORE PUSH1 0x4 ADD PUSH1 0x20 PUSH1 0x40 MLOAD DUP1 DUP4 SUB DUP2 DUP7 GAS STATICCALL ISZERO DUP1 ISZERO PUSH2 0xC20 JUMPI RETURNDATASIZE PUSH1 0x0 DUP1 RETURNDATACOPY RETURNDATASIZE PUSH1 0x0 REVERT JUMPDEST POP POP POP POP PUSH1 0x40 MLOAD RETURNDATASIZE PUSH1 0x1F NOT PUSH1 0x1F DUP3 ADD AND DUP3 ADD DUP1 PUSH1 0x40 MSTORE POP DUP2 ADD SWAP1 PUSH2 0xC44 SWAP2 SWAP1 PUSH2 0x2372 JUMP JUMPDEST SWAP1 POP DUP4 PUSH1 0x1 PUSH1 0x1 PUSH1 0xA0 SHL SUB AND PUSH4 0xF4EF8A6 PUSH1 0x40 MLOAD DUP2 PUSH4 0xFFFFFFFF AND PUSH1 0xE0 SHL DUP2 MSTORE PUSH1 0x4 ADD PUSH1 0x20 PUSH1 0x40 MLOAD DUP1 DUP4 SUB DUP2 DUP7 GAS STATICCALL ISZERO DUP1 ISZERO PUSH2 0xC84 JUMPI RETURNDATASIZE PUSH1 0x0 DUP1 RETURNDATACOPY RETURNDATASIZE PUSH1 0x0 REVERT JUMPDEST POP POP POP POP PUSH1 0x40 MLOAD RETURNDATASIZE PUSH1 0x1F NOT PUSH1 0x1F DUP3 ADD AND DUP3 ADD DUP1 PUSH1 0x40 MSTORE POP DUP2 ADD SWAP1 PUSH2 0xCA8 SWAP2 SWAP1 PUSH2 0x22F5 JUMP JUMPDEST PUSH1 0x40 MLOAD PUSH4 0xBF928F8B PUSH1 0xE0 SHL DUP2 MSTORE PUSH1 0x1 PUSH1 0x1 PUSH1 0xA0 SHL SUB DUP6 DUP2 AND PUSH1 0x4 DUP4 ADD MSTORE SWAP2 SWAP1 SWAP2 AND SWAP1 PUSH4 0xBF928F8B SWAP1 PUSH1 0x24 ADD PUSH1 0x0 PUSH1 0x40 MLOAD DUP1 DUP4 SUB DUP2 PUSH1 0x0 DUP8 DUP1 EXTCODESIZE ISZERO DUP1 ISZERO PUSH2 0xCED JUMPI PUSH1 0x0 DUP1 REVERT JUMPDEST POP GAS CALL ISZERO DUP1 ISZERO PUSH2 0xD01 JUMPI RETURNDATASIZE PUSH1 0x0 DUP1 RETURNDATACOPY RETURNDATASIZE PUSH1 0x0 REVERT JUMPDEST POP POP POP POP PUSH2 0xD86 DUP4 PUSH2 0xD81 DUP4 PUSH2 0xD7B DUP7 PUSH1 0x1 PUSH1 0x1 PUSH1 0xA0 SHL SUB AND PUSH4 0x313CE567 PUSH1 0x40 MLOAD DUP2 PUSH4 0xFFFFFFFF AND PUSH1 0xE0 SHL DUP2 MSTORE PUSH1 0x4 ADD PUSH1 0x20 PUSH1 0x40 MLOAD DUP1 DUP4 SUB DUP2 DUP7 GAS STATICCALL ISZERO DUP1 ISZERO PUSH2 0xD4E JUMPI RETURNDATASIZE PUSH1 0x0 DUP1 RETURNDATACOPY RETURNDATASIZE PUSH1 0x0 REVERT JUMPDEST POP POP POP POP PUSH1 0x40 MLOAD RETURNDATASIZE PUSH1 0x1F NOT PUSH1 0x1F DUP3 ADD AND DUP3 ADD DUP1 PUSH1 0x40 MSTORE POP DUP2 ADD SWAP1 PUSH2 0xD72 SWAP2 SWAP1 PUSH2 0x238B JUMP JUMPDEST DUP11 SWAP1 PUSH1 0x12 PUSH2 0x1826 JUMP JUMPDEST SWAP1 PUSH2 0x1871 JUMP JUMPDEST PUSH2 0x17A5 JUMP JUMPDEST PUSH2 0xD9B PUSH1 0x1 PUSH1 0x1 PUSH1 0xA0 SHL SUB DUP4 AND CALLER ADDRESS DUP9 PUSH2 0x1893 JUMP JUMPDEST PUSH1 0x40 MLOAD PUSH4 0x5B16EBB7 PUSH1 0xE0 SHL DUP2 MSTORE CALLER PUSH1 0x4 DUP3 ADD MSTORE PUSH32 0x0 PUSH1 0x1 PUSH1 0x1 PUSH1 0xA0 SHL SUB AND SWAP1 PUSH4 0x5B16EBB7 SWAP1 PUSH1 0x24 ADD PUSH1 0x20 PUSH1 0x40 MLOAD DUP1 DUP4 SUB DUP2 DUP7 GAS STATICCALL ISZERO DUP1 ISZERO PUSH2 0xDFF JUMPI RETURNDATASIZE PUSH1 0x0 DUP1 RETURNDATACOPY RETURNDATASIZE PUSH1 0x0 REVERT JUMPDEST POP POP POP POP PUSH1 0x40 MLOAD RETURNDATASIZE PUSH1 0x1F NOT PUSH1 0x1F DUP3 ADD AND DUP3 ADD DUP1 PUSH1 0x40 MSTORE POP DUP2 ADD SWAP1 PUSH2 0xE23 SWAP2 SWAP1 PUSH2 0x22D3 JUMP JUMPDEST PUSH2 0xE90 JUMPI PUSH1 0x40 MLOAD PUSH4 0x62E4A677 PUSH1 0xE1 SHL DUP2 MSTORE CALLER PUSH1 0x4 DUP3 ADD MSTORE PUSH1 0x1 PUSH1 0x1 PUSH1 0xA0 SHL SUB DUP5 DUP2 AND PUSH1 0x24 DUP4 ADD MSTORE PUSH1 0x44 DUP3 ADD DUP8 SWAP1 MSTORE DUP4 AND SWAP1 PUSH4 0xC5C94CEE SWAP1 PUSH1 0x64 ADD PUSH1 0x0 PUSH1 0x40 MLOAD DUP1 DUP4 SUB DUP2 PUSH1 0x0 DUP8 DUP1 EXTCODESIZE ISZERO DUP1 ISZERO PUSH2 0xE77 JUMPI PUSH1 0x0 DUP1 REVERT JUMPDEST POP GAS CALL ISZERO DUP1 ISZERO PUSH2 0xE8B JUMPI RETURNDATASIZE PUSH1 0x0 DUP1 RETURNDATACOPY RETURNDATASIZE PUSH1 0x0 REVERT JUMPDEST POP POP POP POP JUMPDEST PUSH1 0x1 PUSH1 0x1 PUSH1 0xA0 SHL SUB DUP1 DUP5 AND PUSH1 0x0 SWAP1 DUP2 MSTORE PUSH1 0x20 DUP2 DUP2 MSTORE PUSH1 0x40 DUP1 DUP4 KECCAK256 SWAP4 DUP9 AND DUP4 MSTORE SWAP3 SWAP1 MSTORE SWAP1 DUP2 KECCAK256 DUP1 SLOAD DUP8 SWAP3 SWAP1 PUSH2 0xEC5 SWAP1 DUP5 SWAP1 PUSH2 0x23AE JUMP JUMPDEST SWAP1 SWAP2 SSTORE POP POP PUSH1 0x1 PUSH1 0x1 PUSH1 0xA0 SHL SUB DUP5 AND PUSH1 0x0 SWAP1 DUP2 MSTORE PUSH1 0x1 PUSH1 0x20 MSTORE PUSH1 0x40 DUP2 KECCAK256 DUP1 SLOAD DUP8 SWAP3 SWAP1 PUSH2 0xEF2 SWAP1 DUP5 SWAP1 PUSH2 0x23AE JUMP JUMPDEST SWAP1 SWAP2 SSTORE POP POP POP POP POP POP POP JUMP JUMPDEST PUSH1 0x5 SLOAD PUSH1 0x0 SWAP1 PUSH1 0xFF AND ISZERO PUSH2 0xF1B JUMPI POP PUSH8 0xDE0B6B3A7640000 SWAP2 SWAP1 POP JUMP JUMPDEST PUSH1 0x0 DUP1 PUSH2 0xF27 DUP5 PUSH2 0x116E JUMP JUMPDEST SWAP2 POP SWAP2 POP DUP1 PUSH1 0x0 EQ DUP1 PUSH2 0xF38 JUMPI POP DUP2 ISZERO JUMPDEST ISZERO PUSH2 0xF4E JUMPI POP PUSH8 0xDE0B6B3A7640000 SWAP4 SWAP3 POP POP POP JUMP JUMPDEST PUSH1 0x0 PUSH2 0xF67 PUSH9 0x270801D946C940000 PUSH2 0xD7B DUP6 DUP6 PUSH2 0x18D1 JUMP JUMPDEST PUSH2 0xF73 PUSH1 0x12 PUSH1 0xA PUSH2 0x24A5 JUMP JUMPDEST PUSH2 0xF7D SWAP2 SWAP1 PUSH2 0x23AE JUMP JUMPDEST PUSH1 0x1 PUSH1 0x1 PUSH1 0xA0 SHL SUB DUP7 AND PUSH1 0x0 SWAP1 DUP2 MSTORE PUSH1 0x2 PUSH1 0x20 MSTORE PUSH1 0x40 SWAP1 KECCAK256 DUP1 SLOAD SWAP2 SWAP3 POP SWAP1 PUSH2 0xFDA PUSH8 0x16345785D8A0000 PUSH2 0xFB3 PUSH1 0x12 PUSH1 0xA PUSH2 0x24A5 JUMP JUMPDEST PUSH2 0xFBD SWAP2 SWAP1 PUSH2 0x2328 JUMP JUMPDEST PUSH2 0xD7B PUSH3 0x278D00 DUP6 PUSH1 0x1 ADD SLOAD TIMESTAMP PUSH2 0xFD4 SWAP2 SWAP1 PUSH2 0x2328 JUMP JUMPDEST SWAP1 PUSH2 0x18D1 JUMP JUMPDEST PUSH2 0xFE4 SWAP1 DUP3 PUSH2 0x23AE JUMP JUMPDEST SWAP1 POP PUSH2 0xFF2 PUSH1 0x12 PUSH1 0xA PUSH2 0x24A5 JUMP JUMPDEST DUP2 GT ISZERO PUSH2 0x1008 JUMPI PUSH2 0x1005 PUSH1 0x12 PUSH1 0xA PUSH2 0x24A5 JUMP JUMPDEST SWAP1 POP JUMPDEST PUSH1 0x0 PUSH2 0x1014 DUP5 DUP4 PUSH2 0x1871 JUMP JUMPDEST SWAP1 POP PUSH8 0xDE0B6B3A7640000 DUP2 LT ISZERO PUSH2 0x1035 JUMPI POP PUSH8 0xDE0B6B3A7640000 PUSH2 0x1050 JUMP JUMPDEST PUSH8 0x8AC7230489E80000 DUP2 GT ISZERO PUSH2 0x1050 JUMPI POP PUSH8 0x8AC7230489E80000 JUMPDEST SWAP8 SWAP7 POP POP POP POP POP POP POP JUMP JUMPDEST PUSH2 0xA8A DUP3 DUP3 CALLER PUSH2 0xA8E JUMP JUMPDEST PUSH2 0xA8A DUP3 DUP3 CALLER PUSH2 0x42C JUMP JUMPDEST PUSH1 0x5 SLOAD PUSH1 0xFF AND ISZERO PUSH2 0x1094 JUMPI PUSH1 0x40 MLOAD PUSH3 0x461BCD PUSH1 0xE5 SHL DUP2 MSTORE PUSH1 0x4 ADD PUSH2 0x4F1 SWAP1 PUSH2 0x233B JUMP JUMPDEST DUP1 PUSH1 0x1 PUSH1 0x1 PUSH1 0xA0 SHL SUB AND PUSH4 0xF4EF8A6 PUSH1 0x40 MLOAD DUP2 PUSH4 0xFFFFFFFF AND PUSH1 0xE0 SHL DUP2 MSTORE PUSH1 0x4 ADD PUSH1 0x20 PUSH1 0x40 MLOAD DUP1 DUP4 SUB DUP2 DUP7 GAS STATICCALL ISZERO DUP1 ISZERO PUSH2 0x10D2 JUMPI RETURNDATASIZE PUSH1 0x0 DUP1 RETURNDATACOPY RETURNDATASIZE PUSH1 0x0 REVERT JUMPDEST POP POP POP POP PUSH1 0x40 MLOAD RETURNDATASIZE PUSH1 0x1F NOT PUSH1 0x1F DUP3 ADD AND DUP3 ADD DUP1 PUSH1 0x40 MSTORE POP DUP2 ADD SWAP1 PUSH2 0x10F6 SWAP2 SWAP1 PUSH2 0x22F5 JUMP JUMPDEST PUSH1 0x1 PUSH1 0x1 PUSH1 0xA0 SHL SUB AND CALLER PUSH1 0x1 PUSH1 0x1 PUSH1 0xA0 SHL SUB AND EQ PUSH2 0x1162 JUMPI PUSH1 0x40 MLOAD PUSH3 0x461BCD PUSH1 0xE5 SHL DUP2 MSTORE PUSH1 0x20 PUSH1 0x4 DUP3 ADD MSTORE PUSH1 0x24 DUP1 DUP3 ADD MSTORE PUSH32 0x63616E206F6E6C792062652063616C6C656420627920726577617264206D616E PUSH1 0x44 DUP3 ADD MSTORE PUSH4 0x30B3B2B9 PUSH1 0xE1 SHL PUSH1 0x64 DUP3 ADD MSTORE PUSH1 0x84 ADD PUSH2 0x4F1 JUMP JUMPDEST PUSH2 0x116B DUP2 PUSH2 0x18EA JUMP JUMPDEST POP JUMP JUMPDEST PUSH1 0x0 DUP1 PUSH1 0x0 PUSH32 0x0 PUSH1 0x1 PUSH1 0x1 PUSH1 0xA0 SHL SUB AND PUSH4 0x68795862 PUSH1 0x40 MLOAD DUP2 PUSH4 0xFFFFFFFF AND PUSH1 0xE0 SHL DUP2 MSTORE PUSH1 0x4 ADD PUSH1 0x0 PUSH1 0x40 MLOAD DUP1 DUP4 SUB DUP2 DUP7 GAS STATICCALL ISZERO DUP1 ISZERO PUSH2 0x11D1 JUMPI RETURNDATASIZE PUSH1 0x0 DUP1 RETURNDATACOPY RETURNDATASIZE PUSH1 0x0 REVERT JUMPDEST POP POP POP POP PUSH1 0x40 MLOAD RETURNDATASIZE PUSH1 0x0 DUP3 RETURNDATACOPY PUSH1 0x1F RETURNDATASIZE SWAP1 DUP2 ADD PUSH1 0x1F NOT AND DUP3 ADD PUSH1 0x40 MSTORE PUSH2 0x11F9 SWAP2 SWAP1 DUP2 ADD SWAP1 PUSH2 0x24D2 JUMP JUMPDEST SWAP1 POP PUSH1 0x0 DUP1 PUSH1 0x0 JUMPDEST DUP4 MLOAD DUP2 LT ISZERO PUSH2 0x1262 JUMPI PUSH1 0x0 DUP1 PUSH2 0x1230 DUP10 DUP8 DUP6 DUP2 MLOAD DUP2 LT PUSH2 0x1223 JUMPI PUSH2 0x1223 PUSH2 0x2597 JUMP JUMPDEST PUSH1 0x20 MUL PUSH1 0x20 ADD ADD MLOAD PUSH2 0x1BFA JUMP JUMPDEST SWAP1 SWAP3 POP SWAP1 POP PUSH2 0x123F DUP3 DUP7 PUSH2 0x23AE JUMP JUMPDEST SWAP5 POP PUSH2 0x124B DUP2 DUP6 PUSH2 0x23AE JUMP JUMPDEST SWAP4 POP POP POP DUP1 DUP1 PUSH2 0x125A SWAP1 PUSH2 0x25AD JUMP JUMPDEST SWAP2 POP POP PUSH2 0x1201 JUMP JUMPDEST POP SWAP6 SWAP1 SWAP5 POP SWAP3 POP POP POP JUMP JUMPDEST PUSH1 0x5 SLOAD PUSH1 0xFF AND ISZERO PUSH2 0x1290 JUMPI PUSH1 0x40 MLOAD PUSH3 0x461BCD PUSH1 0xE5 SHL DUP2 MSTORE PUSH1 0x4 ADD PUSH2 0x4F1 SWAP1 PUSH2 0x233B JUMP JUMPDEST PUSH1 0x0 PUSH2 0x129B DUP3 PUSH2 0x116E JUMP JUMPDEST POP SWAP1 POP PUSH2 0xA8A DUP3 DUP3 PUSH1 0x0 PUSH2 0x1D9A JUMP JUMPDEST PUSH1 0x5 SLOAD PUSH1 0x0 SWAP1 PUSH1 0xFF AND ISZERO PUSH2 0x12D0 JUMPI PUSH1 0x40 MLOAD PUSH3 0x461BCD PUSH1 0xE5 SHL DUP2 MSTORE PUSH1 0x4 ADD PUSH2 0x4F1 SWAP1 PUSH2 0x233B JUMP JUMPDEST PUSH1 0x1 PUSH1 0x1 PUSH1 0xA0 SHL SUB DUP3 AND PUSH1 0x0 SWAP1 DUP2 MSTORE PUSH1 0x4 PUSH1 0x20 MSTORE PUSH1 0x40 DUP2 KECCAK256 SLOAD PUSH2 0x12F3 SWAP1 TIMESTAMP PUSH2 0x2328 JUMP JUMPDEST SWAP1 POP DUP1 PUSH1 0x0 SUB PUSH2 0x131A JUMPI POP POP PUSH1 0x1 PUSH1 0x1 PUSH1 0xA0 SHL SUB AND PUSH1 0x0 SWAP1 DUP2 MSTORE PUSH1 0x3 PUSH1 0x20 MSTORE PUSH1 0x40 SWAP1 KECCAK256 SLOAD SWAP1 JUMP JUMPDEST PUSH2 0x1323 DUP4 PUSH2 0x1E82 JUMP JUMPDEST POP POP PUSH1 0x1 PUSH1 0x1 PUSH1 0xA0 SHL SUB DUP2 AND PUSH1 0x0 SWAP1 DUP2 MSTORE PUSH1 0x4 PUSH1 0x20 SWAP1 DUP2 MSTORE PUSH1 0x40 DUP1 DUP4 KECCAK256 TIMESTAMP SWAP1 SSTORE PUSH1 0x3 SWAP1 SWAP2 MSTORE SWAP1 KECCAK256 SLOAD JUMPDEST SWAP2 SWAP1 POP JUMP JUMPDEST PUSH1 0x5 SLOAD PUSH1 0x0 SWAP1 PUSH1 0xFF AND ISZERO PUSH2 0x1367 JUMPI POP PUSH1 0x0 SWAP2 SWAP1 POP JUMP JUMPDEST PUSH1 0x0 PUSH32 0x0 PUSH1 0x1 PUSH1 0x1 PUSH1 0xA0 SHL SUB AND PUSH4 0xDBCD89FA PUSH1 0x40 MLOAD DUP2 PUSH4 0xFFFFFFFF AND PUSH1 0xE0 SHL DUP2 MSTORE PUSH1 0x4 ADD PUSH1 0x20 PUSH1 0x40 MLOAD DUP1 DUP4 SUB DUP2 DUP7 GAS STATICCALL ISZERO DUP1 ISZERO PUSH2 0x13C7 JUMPI RETURNDATASIZE PUSH1 0x0 DUP1 RETURNDATACOPY RETURNDATASIZE PUSH1 0x0 REVERT JUMPDEST POP POP POP POP PUSH1 0x40 MLOAD RETURNDATASIZE PUSH1 0x1F NOT PUSH1 0x1F DUP3 ADD AND DUP3 ADD DUP1 PUSH1 0x40 MSTORE POP DUP2 ADD SWAP1 PUSH2 0x13EB SWAP2 SWAP1 PUSH2 0x22F5 JUMP JUMPDEST PUSH1 0x40 MLOAD PUSH4 0x1D43C9D3 PUSH1 0xE0 SHL DUP2 MSTORE PUSH1 0x1 PUSH1 0x1 PUSH1 0xA0 SHL SUB DUP6 DUP2 AND PUSH1 0x4 DUP4 ADD MSTORE SWAP2 SWAP1 SWAP2 AND SWAP1 PUSH4 0x1D43C9D3 SWAP1 PUSH1 0x24 ADD PUSH1 0x20 PUSH1 0x40 MLOAD DUP1 DUP4 SUB DUP2 DUP7 GAS STATICCALL ISZERO DUP1 ISZERO PUSH2 0x1433 JUMPI RETURNDATASIZE PUSH1 0x0 DUP1 RETURNDATACOPY RETURNDATASIZE PUSH1 0x0 REVERT JUMPDEST POP POP POP POP PUSH1 0x40 MLOAD RETURNDATASIZE PUSH1 0x1F NOT PUSH1 0x1F DUP3 ADD AND DUP3 ADD DUP1 PUSH1 0x40 MSTORE POP DUP2 ADD SWAP1 PUSH2 0x1457 SWAP2 SWAP1 PUSH2 0x2372 JUMP JUMPDEST PUSH1 0x1 PUSH1 0x1 PUSH1 0xA0 SHL SUB DUP5 AND PUSH1 0x0 SWAP1 DUP2 MSTORE PUSH1 0x4 PUSH1 0x20 MSTORE PUSH1 0x40 DUP2 KECCAK256 SLOAD SWAP2 SWAP3 POP SWAP1 PUSH2 0x147E SWAP1 TIMESTAMP PUSH2 0x2328 JUMP JUMPDEST SWAP1 POP PUSH2 0x148A DUP2 DUP4 PUSH2 0x25C6 JUMP JUMPDEST PUSH1 0x1 PUSH1 0x1 PUSH1 0xA0 SHL SUB DUP6 AND PUSH1 0x0 SWAP1 DUP2 MSTORE PUSH1 0x3 PUSH1 0x20 MSTORE PUSH1 0x40 SWAP1 KECCAK256 SLOAD PUSH2 0x14AD SWAP2 SWAP1 PUSH2 0x23AE JUMP JUMPDEST SWAP5 SWAP4 POP POP POP POP JUMP JUMPDEST PUSH1 0x1 PUSH1 0x1 PUSH1 0xA0 SHL SUB DUP1 DUP3 AND PUSH1 0x0 SWAP1 DUP2 MSTORE PUSH1 0x20 DUP2 DUP2 MSTORE PUSH1 0x40 DUP1 DUP4 KECCAK256 SWAP4 DUP7 AND DUP4 MSTORE SWAP3 SWAP1 MSTORE KECCAK256 SLOAD JUMPDEST SWAP3 SWAP2 POP POP JUMP JUMPDEST CALLER PUSH1 0x1 PUSH1 0x1 PUSH1 0xA0 SHL SUB PUSH32 0x0 AND EQ PUSH2 0x1558 JUMPI PUSH1 0x40 MLOAD PUSH3 0x461BCD PUSH1 0xE5 SHL DUP2 MSTORE PUSH1 0x20 PUSH1 0x4 DUP3 ADD MSTORE PUSH1 0x1D PUSH1 0x24 DUP3 ADD MSTORE PUSH32 0x4C70546F6B656E5374616B65723A206E6F7420636F6E74726F6C6C6572000000 PUSH1 0x44 DUP3 ADD MSTORE PUSH1 0x64 ADD PUSH2 0x4F1 JUMP JUMPDEST PUSH1 0x0 PUSH32 0x0 PUSH1 0x1 PUSH1 0x1 PUSH1 0xA0 SHL SUB AND PUSH4 0x68795862 PUSH1 0x40 MLOAD DUP2 PUSH4 0xFFFFFFFF AND PUSH1 0xE0 SHL DUP2 MSTORE PUSH1 0x4 ADD PUSH1 0x0 PUSH1 0x40 MLOAD DUP1 DUP4 SUB DUP2 DUP7 GAS STATICCALL ISZERO DUP1 ISZERO PUSH2 0x15B8 JUMPI RETURNDATASIZE PUSH1 0x0 DUP1 RETURNDATACOPY RETURNDATASIZE PUSH1 0x0 REVERT JUMPDEST POP POP POP POP PUSH1 0x40 MLOAD RETURNDATASIZE PUSH1 0x0 DUP3 RETURNDATACOPY PUSH1 0x1F RETURNDATASIZE SWAP1 DUP2 ADD PUSH1 0x1F NOT AND DUP3 ADD PUSH1 0x40 MSTORE PUSH2 0x15E0 SWAP2 SWAP1 DUP2 ADD SWAP1 PUSH2 0x24D2 JUMP JUMPDEST SWAP1 POP PUSH1 0x0 JUMPDEST DUP2 MLOAD DUP2 LT ISZERO PUSH2 0x1622 JUMPI PUSH2 0x1610 DUP3 DUP3 DUP2 MLOAD DUP2 LT PUSH2 0x1603 JUMPI PUSH2 0x1603 PUSH2 0x2597 JUMP JUMPDEST PUSH1 0x20 MUL PUSH1 0x20 ADD ADD MLOAD PUSH2 0x18EA JUMP JUMPDEST DUP1 PUSH2 0x161A DUP2 PUSH2 0x25AD JUMP JUMPDEST SWAP2 POP POP PUSH2 0x15E5 JUMP JUMPDEST POP PUSH1 0x40 MLOAD PUSH4 0x70A08231 PUSH1 0xE0 SHL DUP2 MSTORE ADDRESS PUSH1 0x4 DUP3 ADD MSTORE PUSH1 0x0 SWAP1 PUSH32 0x0 PUSH1 0x1 PUSH1 0x1 PUSH1 0xA0 SHL SUB AND SWAP1 PUSH4 0x70A08231 SWAP1 PUSH1 0x24 ADD PUSH1 0x20 PUSH1 0x40 MLOAD DUP1 DUP4 SUB DUP2 DUP7 GAS STATICCALL ISZERO DUP1 ISZERO PUSH2 0x168A JUMPI RETURNDATASIZE PUSH1 0x0 DUP1 RETURNDATACOPY RETURNDATASIZE PUSH1 0x0 REVERT JUMPDEST POP POP POP POP PUSH1 0x40 MLOAD RETURNDATASIZE PUSH1 0x1F NOT PUSH1 0x1F DUP3 ADD AND DUP3 ADD DUP1 PUSH1 0x40 MSTORE POP DUP2 ADD SWAP1 PUSH2 0x16AE SWAP2 SWAP1 PUSH2 0x2372 JUMP JUMPDEST SWAP1 POP DUP1 ISZERO PUSH2 0x176B JUMPI PUSH1 0x40 MLOAD PUSH4 0xA9059CBB PUSH1 0xE0 SHL DUP2 MSTORE PUSH1 0x1 PUSH1 0x1 PUSH1 0xA0 SHL SUB PUSH32 0x0 DUP2 AND PUSH1 0x4 DUP4 ADD MSTORE PUSH1 0x24 DUP3 ADD DUP4 SWAP1 MSTORE PUSH32 0x0 AND SWAP1 PUSH4 0xA9059CBB SWAP1 PUSH1 0x44 ADD PUSH1 0x20 PUSH1 0x40 MLOAD DUP1 DUP4 SUB DUP2 PUSH1 0x0 DUP8 GAS CALL ISZERO DUP1 ISZERO PUSH2 0x1745 JUMPI RETURNDATASIZE PUSH1 0x0 DUP1 RETURNDATACOPY RETURNDATASIZE PUSH1 0x0 REVERT JUMPDEST POP POP POP POP PUSH1 0x40 MLOAD RETURNDATASIZE PUSH1 0x1F NOT PUSH1 0x1F DUP3 ADD AND DUP3 ADD DUP1 PUSH1 0x40 MSTORE POP DUP2 ADD SWAP1 PUSH2 0x1769 SWAP2 SWAP1 PUSH2 0x22D3 JUMP JUMPDEST POP JUMPDEST PUSH1 0x5 DUP1 SLOAD PUSH1 0xFF NOT AND PUSH1 0x1 OR SWAP1 SSTORE PUSH1 0x40 MLOAD PUSH32 0x4426AA1FB73E391071491FCFE21A88B5C38A0A0333A1F6E77161470439704CF8 SWAP1 PUSH1 0x0 SWAP1 LOG1 POP POP JUMP JUMPDEST PUSH1 0x0 PUSH2 0x17B0 DUP4 PUSH2 0x116E JUMP JUMPDEST POP SWAP1 POP PUSH2 0x17BE DUP4 DUP3 DUP5 PUSH2 0x1D9A JUMP JUMPDEST POP POP POP JUMP JUMPDEST PUSH1 0x40 MLOAD PUSH1 0x1 PUSH1 0x1 PUSH1 0xA0 SHL SUB DUP4 AND PUSH1 0x24 DUP3 ADD MSTORE PUSH1 0x44 DUP2 ADD DUP3 SWAP1 MSTORE PUSH2 0x17BE SWAP1 DUP5 SWAP1 PUSH4 0xA9059CBB PUSH1 0xE0 SHL SWAP1 PUSH1 0x64 ADD JUMPDEST PUSH1 0x40 DUP1 MLOAD PUSH1 0x1F NOT DUP2 DUP5 SUB ADD DUP2 MSTORE SWAP2 SWAP1 MSTORE PUSH1 0x20 DUP2 ADD DUP1 MLOAD PUSH1 0x1 PUSH1 0x1 PUSH1 0xE0 SHL SUB AND PUSH1 0x1 PUSH1 0x1 PUSH1 0xE0 SHL SUB NOT SWAP1 SWAP4 AND SWAP3 SWAP1 SWAP3 OR SWAP1 SWAP2 MSTORE PUSH2 0x1FD7 JUMP JUMPDEST PUSH1 0x0 DUP2 PUSH1 0xFF AND DUP4 PUSH1 0xFF AND SUB PUSH2 0x183C JUMPI POP DUP3 PUSH2 0x186A JUMP JUMPDEST DUP2 PUSH1 0xFF AND DUP4 PUSH1 0xFF AND GT ISZERO PUSH2 0x185C JUMPI PUSH2 0x1855 DUP5 DUP5 DUP5 PUSH2 0x20AC JUMP JUMPDEST SWAP1 POP PUSH2 0x186A JUMP JUMPDEST PUSH2 0x1867 DUP5 DUP5 DUP5 PUSH2 0x20CD JUMP JUMPDEST SWAP1 POP JUMPDEST SWAP4 SWAP3 POP POP POP JUMP JUMPDEST PUSH1 0x0 PUSH2 0x187F PUSH1 0x12 PUSH1 0xA PUSH2 0x24A5 JUMP JUMPDEST PUSH2 0x1889 DUP4 DUP6 PUSH2 0x25C6 JUMP JUMPDEST PUSH2 0x186A SWAP2 SWAP1 PUSH2 0x25DD JUMP JUMPDEST PUSH1 0x40 MLOAD PUSH1 0x1 PUSH1 0x1 PUSH1 0xA0 SHL SUB DUP1 DUP6 AND PUSH1 0x24 DUP4 ADD MSTORE DUP4 AND PUSH1 0x44 DUP3 ADD MSTORE PUSH1 0x64 DUP2 ADD DUP3 SWAP1 MSTORE PUSH2 0x18CB SWAP1 DUP6 SWAP1 PUSH4 0x23B872DD PUSH1 0xE0 SHL SWAP1 PUSH1 0x84 ADD PUSH2 0x17EF JUMP JUMPDEST POP POP POP POP JUMP JUMPDEST PUSH1 0x0 DUP2 PUSH2 0x18E0 PUSH1 0x12 PUSH1 0xA PUSH2 0x24A5 JUMP JUMPDEST PUSH2 0x1889 SWAP1 DUP6 PUSH2 0x25C6 JUMP JUMPDEST PUSH1 0x40 MLOAD PUSH4 0x5B16EBB7 PUSH1 0xE0 SHL DUP2 MSTORE PUSH1 0x1 PUSH1 0x1 PUSH1 0xA0 SHL SUB DUP3 DUP2 AND PUSH1 0x4 DUP4 ADD MSTORE PUSH32 0x0 AND SWAP1 PUSH4 0x5B16EBB7 SWAP1 PUSH1 0x24 ADD PUSH1 0x20 PUSH1 0x40 MLOAD DUP1 DUP4 SUB DUP2 DUP7 GAS STATICCALL ISZERO DUP1 ISZERO PUSH2 0x1950 JUMPI RETURNDATASIZE PUSH1 0x0 DUP1 RETURNDATACOPY RETURNDATASIZE PUSH1 0x0 REVERT JUMPDEST POP POP POP POP PUSH1 0x40 MLOAD RETURNDATASIZE PUSH1 0x1F NOT PUSH1 0x1F DUP3 ADD AND DUP3 ADD DUP1 PUSH1 0x40 MSTORE POP DUP2 ADD SWAP1 PUSH2 0x1974 SWAP2 SWAP1 PUSH2 0x22D3 JUMP JUMPDEST PUSH2 0x19AD JUMPI PUSH1 0x40 MLOAD PUSH3 0x461BCD PUSH1 0xE5 SHL DUP2 MSTORE PUSH1 0x20 PUSH1 0x4 DUP3 ADD MSTORE PUSH1 0xA PUSH1 0x24 DUP3 ADD MSTORE PUSH10 0x1B9BDD0818481C1BDBDB PUSH1 0xB2 SHL PUSH1 0x44 DUP3 ADD MSTORE PUSH1 0x64 ADD PUSH2 0x4F1 JUMP JUMPDEST PUSH1 0x0 PUSH2 0x19B8 DUP3 PUSH2 0x12AA JUMP JUMPDEST SWAP1 POP DUP1 PUSH1 0x0 SUB PUSH2 0x19C6 JUMPI POP POP JUMP JUMPDEST PUSH1 0x40 MLOAD PUSH4 0x70A08231 PUSH1 0xE0 SHL DUP2 MSTORE ADDRESS PUSH1 0x4 DUP3 ADD MSTORE PUSH1 0x0 SWAP1 PUSH32 0x0 PUSH1 0x1 PUSH1 0x1 PUSH1 0xA0 SHL SUB AND SWAP1 PUSH4 0x70A08231 SWAP1 PUSH1 0x24 ADD PUSH1 0x20 PUSH1 0x40 MLOAD DUP1 DUP4 SUB DUP2 DUP7 GAS STATICCALL ISZERO DUP1 ISZERO PUSH2 0x1A2D JUMPI RETURNDATASIZE PUSH1 0x0 DUP1 RETURNDATACOPY RETURNDATASIZE PUSH1 0x0 REVERT JUMPDEST POP POP POP POP PUSH1 0x40 MLOAD RETURNDATASIZE PUSH1 0x1F NOT PUSH1 0x1F DUP3 ADD AND DUP3 ADD DUP1 PUSH1 0x40 MSTORE POP DUP2 ADD SWAP1 PUSH2 0x1A51 SWAP2 SWAP1 PUSH2 0x2372 JUMP JUMPDEST SWAP1 POP DUP1 ISZERO PUSH2 0x1B05 JUMPI DUP2 DUP2 GT ISZERO PUSH2 0x1A64 JUMPI POP DUP1 JUMPDEST PUSH1 0x40 MLOAD PUSH4 0xA9059CBB PUSH1 0xE0 SHL DUP2 MSTORE PUSH1 0x1 PUSH1 0x1 PUSH1 0xA0 SHL SUB DUP5 DUP2 AND PUSH1 0x4 DUP4 ADD MSTORE PUSH1 0x24 DUP3 ADD DUP4 SWAP1 MSTORE PUSH32 0x0 AND SWAP1 PUSH4 0xA9059CBB SWAP1 PUSH1 0x44 ADD PUSH1 0x20 PUSH1 0x40 MLOAD DUP1 DUP4 SUB DUP2 PUSH1 0x0 DUP8 GAS CALL ISZERO DUP1 ISZERO PUSH2 0x1AD3 JUMPI RETURNDATASIZE PUSH1 0x0 DUP1 RETURNDATACOPY RETURNDATASIZE PUSH1 0x0 REVERT JUMPDEST POP POP POP POP PUSH1 0x40 MLOAD RETURNDATASIZE PUSH1 0x1F NOT PUSH1 0x1F DUP3 ADD AND DUP3 ADD DUP1 PUSH1 0x40 MSTORE POP DUP2 ADD SWAP1 PUSH2 0x1AF7 SWAP2 SWAP1 PUSH2 0x22D3 JUMP JUMPDEST POP PUSH2 0x1B02 DUP2 DUP4 PUSH2 0x2328 JUMP JUMPDEST SWAP2 POP JUMPDEST DUP2 ISZERO PUSH2 0x1BA0 JUMPI PUSH1 0x40 MLOAD PUSH4 0x40C10F19 PUSH1 0xE0 SHL DUP2 MSTORE PUSH1 0x1 PUSH1 0x1 PUSH1 0xA0 SHL SUB DUP5 DUP2 AND PUSH1 0x4 DUP4 ADD MSTORE PUSH1 0x24 DUP3 ADD DUP5 SWAP1 MSTORE PUSH32 0x0 AND SWAP1 PUSH4 0x40C10F19 SWAP1 PUSH1 0x44 ADD PUSH1 0x20 PUSH1 0x40 MLOAD DUP1 DUP4 SUB DUP2 PUSH1 0x0 DUP8 GAS CALL ISZERO DUP1 ISZERO PUSH2 0x1B7A JUMPI RETURNDATASIZE PUSH1 0x0 DUP1 RETURNDATACOPY RETURNDATASIZE PUSH1 0x0 REVERT JUMPDEST POP POP POP POP PUSH1 0x40 MLOAD RETURNDATASIZE PUSH1 0x1F NOT PUSH1 0x1F DUP3 ADD AND DUP3 ADD DUP1 PUSH1 0x40 MSTORE POP DUP2 ADD SWAP1 PUSH2 0x1B9E SWAP2 SWAP1 PUSH2 0x2372 JUMP JUMPDEST POP JUMPDEST PUSH1 0x1 PUSH1 0x1 PUSH1 0xA0 SHL SUB DUP4 AND PUSH1 0x0 DUP2 DUP2 MSTORE PUSH1 0x3 PUSH1 0x20 MSTORE PUSH1 0x40 DUP2 KECCAK256 SSTORE PUSH32 0x896E034966EAAF1ADC54ACC0F257056FEBBD300C9E47182CF761982CF1F5E430 PUSH2 0x1BE4 DUP4 DUP6 PUSH2 0x23AE JUMP JUMPDEST PUSH1 0x40 MLOAD SWAP1 DUP2 MSTORE PUSH1 0x20 ADD PUSH1 0x40 MLOAD DUP1 SWAP2 SUB SWAP1 LOG2 POP POP POP JUMP JUMPDEST PUSH1 0x0 DUP1 PUSH1 0x0 DUP4 PUSH1 0x1 PUSH1 0x1 PUSH1 0xA0 SHL SUB AND PUSH4 0xCE75040E PUSH1 0x40 MLOAD DUP2 PUSH4 0xFFFFFFFF AND PUSH1 0xE0 SHL DUP2 MSTORE PUSH1 0x4 ADD PUSH1 0x20 PUSH1 0x40 MLOAD DUP1 DUP4 SUB DUP2 DUP7 GAS STATICCALL ISZERO DUP1 ISZERO PUSH2 0x1C3D JUMPI RETURNDATASIZE PUSH1 0x0 DUP1 RETURNDATACOPY RETURNDATASIZE PUSH1 0x0 REVERT JUMPDEST POP POP POP POP PUSH1 0x40 MLOAD RETURNDATASIZE PUSH1 0x1F NOT PUSH1 0x1F DUP3 ADD AND DUP3 ADD DUP1 PUSH1 0x40 MSTORE POP DUP2 ADD SWAP1 PUSH2 0x1C61 SWAP2 SWAP1 PUSH2 0x2372 JUMP JUMPDEST SWAP1 POP PUSH1 0x0 DUP5 PUSH1 0x1 PUSH1 0x1 PUSH1 0xA0 SHL SUB AND PUSH4 0x5FCBD285 PUSH1 0x40 MLOAD DUP2 PUSH4 0xFFFFFFFF AND PUSH1 0xE0 SHL DUP2 MSTORE PUSH1 0x4 ADD PUSH1 0x20 PUSH1 0x40 MLOAD DUP1 DUP4 SUB DUP2 DUP7 GAS STATICCALL ISZERO DUP1 ISZERO PUSH2 0x1CA3 JUMPI RETURNDATASIZE PUSH1 0x0 DUP1 RETURNDATACOPY RETURNDATASIZE PUSH1 0x0 REVERT JUMPDEST POP POP POP POP PUSH1 0x40 MLOAD RETURNDATASIZE PUSH1 0x1F NOT PUSH1 0x1F DUP3 ADD AND DUP3 ADD DUP1 PUSH1 0x40 MSTORE POP DUP2 ADD SWAP1 PUSH2 0x1CC7 SWAP2 SWAP1 PUSH2 0x22F5 JUMP JUMPDEST PUSH1 0x1 PUSH1 0x1 PUSH1 0xA0 SHL SUB AND PUSH4 0x313CE567 PUSH1 0x40 MLOAD DUP2 PUSH4 0xFFFFFFFF AND PUSH1 0xE0 SHL DUP2 MSTORE PUSH1 0x4 ADD PUSH1 0x20 PUSH1 0x40 MLOAD DUP1 DUP4 SUB DUP2 DUP7 GAS STATICCALL ISZERO DUP1 ISZERO PUSH2 0x1D04 JUMPI RETURNDATASIZE PUSH1 0x0 DUP1 RETURNDATACOPY RETURNDATASIZE PUSH1 0x0 REVERT JUMPDEST POP POP POP POP PUSH1 0x40 MLOAD RETURNDATASIZE PUSH1 0x1F NOT PUSH1 0x1F DUP3 ADD AND DUP3 ADD DUP1 PUSH1 0x40 MSTORE POP DUP2 ADD SWAP1 PUSH2 0x1D28 SWAP2 SWAP1 PUSH2 0x238B JUMP JUMPDEST PUSH1 0x1 PUSH1 0x1 PUSH1 0xA0 SHL SUB DUP7 AND PUSH1 0x0 SWAP1 DUP2 MSTORE PUSH1 0x1 PUSH1 0x20 MSTORE PUSH1 0x40 SWAP1 KECCAK256 SLOAD SWAP1 SWAP2 POP PUSH2 0x1D56 SWAP1 DUP4 SWAP1 PUSH2 0xD7B SWAP1 DUP5 PUSH1 0x12 PUSH2 0x1826 JUMP JUMPDEST PUSH1 0x1 PUSH1 0x1 PUSH1 0xA0 SHL SUB DUP1 DUP9 AND PUSH1 0x0 SWAP1 DUP2 MSTORE PUSH1 0x20 DUP2 DUP2 MSTORE PUSH1 0x40 DUP1 DUP4 KECCAK256 SWAP4 DUP11 AND DUP4 MSTORE SWAP3 SWAP1 MSTORE KECCAK256 SLOAD SWAP1 SWAP5 POP PUSH2 0x1D8F SWAP1 DUP4 SWAP1 PUSH2 0xD7B SWAP1 DUP5 PUSH1 0x12 PUSH2 0x1826 JUMP JUMPDEST SWAP3 POP POP POP SWAP3 POP SWAP3 SWAP1 POP JUMP JUMPDEST PUSH1 0x1 PUSH1 0x1 PUSH1 0xA0 SHL SUB DUP4 AND PUSH1 0x0 SWAP1 DUP2 MSTORE PUSH1 0x2 PUSH1 0x20 MSTORE PUSH1 0x40 DUP2 KECCAK256 SWAP1 DUP4 SWAP1 SUB PUSH2 0x1DD1 JUMPI PUSH8 0x16345785D8A0000 DUP2 SSTORE TIMESTAMP PUSH1 0x1 SWAP1 SWAP2 ADD SSTORE POP POP POP JUMP JUMPDEST DUP1 SLOAD PUSH2 0x1DEB PUSH8 0x16345785D8A0000 PUSH2 0xFB3 PUSH1 0x12 PUSH1 0xA PUSH2 0x24A5 JUMP JUMPDEST PUSH2 0x1DF5 SWAP1 DUP3 PUSH2 0x23AE JUMP JUMPDEST SWAP1 POP PUSH2 0x1E03 PUSH1 0x12 PUSH1 0xA PUSH2 0x24A5 JUMP JUMPDEST DUP2 GT ISZERO PUSH2 0x1E19 JUMPI PUSH2 0x1E16 PUSH1 0x12 PUSH1 0xA PUSH2 0x24A5 JUMP JUMPDEST SWAP1 POP JUMPDEST DUP3 PUSH1 0x0 SUB PUSH2 0x1E29 JUMPI DUP1 DUP3 SSTORE PUSH2 0x1E75 JUMP JUMPDEST PUSH1 0x0 PUSH2 0x1E35 DUP5 DUP7 PUSH2 0x23AE JUMP JUMPDEST SWAP1 POP PUSH2 0x1E53 PUSH2 0x1E44 DUP6 DUP4 PUSH2 0x18D1 JUMP JUMPDEST PUSH8 0x16345785D8A0000 SWAP1 PUSH2 0x1871 JUMP JUMPDEST PUSH2 0x1E67 PUSH2 0x1E60 DUP8 DUP5 PUSH2 0x18D1 JUMP JUMPDEST DUP5 SWAP1 PUSH2 0x1871 JUMP JUMPDEST PUSH2 0x1E71 SWAP2 SWAP1 PUSH2 0x23AE JUMP JUMPDEST DUP4 SSTORE POP JUMPDEST POP TIMESTAMP PUSH1 0x1 SWAP1 SWAP2 ADD SSTORE POP POP POP JUMP JUMPDEST PUSH1 0x0 PUSH32 0x0 PUSH1 0x1 PUSH1 0x1 PUSH1 0xA0 SHL SUB AND PUSH4 0xDBCD89FA PUSH1 0x40 MLOAD DUP2 PUSH4 0xFFFFFFFF AND PUSH1 0xE0 SHL DUP2 MSTORE PUSH1 0x4 ADD PUSH1 0x20 PUSH1 0x40 MLOAD DUP1 DUP4 SUB DUP2 DUP7 GAS STATICCALL ISZERO DUP1 ISZERO PUSH2 0x1EE2 JUMPI RETURNDATASIZE PUSH1 0x0 DUP1 RETURNDATACOPY RETURNDATASIZE PUSH1 0x0 REVERT JUMPDEST POP POP POP POP PUSH1 0x40 MLOAD RETURNDATASIZE PUSH1 0x1F NOT PUSH1 0x1F DUP3 ADD AND DUP3 ADD DUP1 PUSH1 0x40 MSTORE POP DUP2 ADD SWAP1 PUSH2 0x1F06 SWAP2 SWAP1 PUSH2 0x22F5 JUMP JUMPDEST PUSH1 0x40 MLOAD PUSH4 0x1D43C9D3 PUSH1 0xE0 SHL DUP2 MSTORE PUSH1 0x1 PUSH1 0x1 PUSH1 0xA0 SHL SUB DUP5 DUP2 AND PUSH1 0x4 DUP4 ADD MSTORE SWAP2 SWAP1 SWAP2 AND SWAP1 PUSH4 0x1D43C9D3 SWAP1 PUSH1 0x24 ADD PUSH1 0x20 PUSH1 0x40 MLOAD DUP1 DUP4 SUB DUP2 DUP7 GAS STATICCALL ISZERO DUP1 ISZERO PUSH2 0x1F4E JUMPI RETURNDATASIZE PUSH1 0x0 DUP1 RETURNDATACOPY RETURNDATASIZE PUSH1 0x0 REVERT JUMPDEST POP POP POP POP PUSH1 0x40 MLOAD RETURNDATASIZE PUSH1 0x1F NOT PUSH1 0x1F DUP3 ADD AND DUP3 ADD DUP1 PUSH1 0x40 MSTORE POP DUP2 ADD SWAP1 PUSH2 0x1F72 SWAP2 SWAP1 PUSH2 0x2372 JUMP JUMPDEST PUSH1 0x1 PUSH1 0x1 PUSH1 0xA0 SHL SUB DUP4 AND PUSH1 0x0 SWAP1 DUP2 MSTORE PUSH1 0x4 PUSH1 0x20 MSTORE PUSH1 0x40 DUP2 KECCAK256 SLOAD SWAP2 SWAP3 POP SWAP1 PUSH2 0x1F99 SWAP1 TIMESTAMP PUSH2 0x2328 JUMP JUMPDEST SWAP1 POP PUSH2 0x1FA5 DUP2 DUP4 PUSH2 0x25C6 JUMP JUMPDEST PUSH1 0x1 PUSH1 0x1 PUSH1 0xA0 SHL SUB DUP5 AND PUSH1 0x0 SWAP1 DUP2 MSTORE PUSH1 0x3 PUSH1 0x20 MSTORE PUSH1 0x40 DUP2 KECCAK256 DUP1 SLOAD SWAP1 SWAP2 SWAP1 PUSH2 0x1FCD SWAP1 DUP5 SWAP1 PUSH2 0x23AE JUMP JUMPDEST SWAP1 SWAP2 SSTORE POP POP POP POP POP JUMP JUMPDEST PUSH1 0x0 PUSH2 0x202C DUP3 PUSH1 0x40 MLOAD DUP1 PUSH1 0x40 ADD PUSH1 0x40 MSTORE DUP1 PUSH1 0x20 DUP2 MSTORE PUSH1 0x20 ADD PUSH32 0x5361666545524332303A206C6F772D6C6576656C2063616C6C206661696C6564 DUP2 MSTORE POP DUP6 PUSH1 0x1 PUSH1 0x1 PUSH1 0xA0 SHL SUB AND PUSH2 0x20EE SWAP1 SWAP3 SWAP2 SWAP1 PUSH4 0xFFFFFFFF AND JUMP JUMPDEST SWAP1 POP DUP1 MLOAD PUSH1 0x0 EQ DUP1 PUSH2 0x204D JUMPI POP DUP1 DUP1 PUSH1 0x20 ADD SWAP1 MLOAD DUP2 ADD SWAP1 PUSH2 0x204D SWAP2 SWAP1 PUSH2 0x22D3 JUMP JUMPDEST PUSH2 0x17BE JUMPI PUSH1 0x40 MLOAD PUSH3 0x461BCD PUSH1 0xE5 SHL DUP2 MSTORE PUSH1 0x20 PUSH1 0x4 DUP3 ADD MSTORE PUSH1 0x2A PUSH1 0x24 DUP3 ADD MSTORE PUSH32 0x5361666545524332303A204552433230206F7065726174696F6E20646964206E PUSH1 0x44 DUP3 ADD MSTORE PUSH10 0x1BDD081CDD58D8D95959 PUSH1 0xB2 SHL PUSH1 0x64 DUP3 ADD MSTORE PUSH1 0x84 ADD PUSH2 0x4F1 JUMP JUMPDEST PUSH1 0x0 PUSH2 0x20B8 DUP3 DUP5 PUSH2 0x25FF JUMP JUMPDEST PUSH2 0x20C3 SWAP1 PUSH1 0xA PUSH2 0x2618 JUMP JUMPDEST PUSH2 0x1867 SWAP1 DUP6 PUSH2 0x25DD JUMP JUMPDEST PUSH1 0x0 PUSH2 0x20D9 DUP4 DUP4 PUSH2 0x25FF JUMP JUMPDEST PUSH2 0x20E4 SWAP1 PUSH1 0xA PUSH2 0x2618 JUMP JUMPDEST PUSH2 0x1867 SWAP1 DUP6 PUSH2 0x25C6 JUMP JUMPDEST PUSH1 0x60 PUSH2 0x1867 DUP5 DUP5 PUSH1 0x0 DUP6 DUP6 PUSH1 0x0 DUP1 DUP7 PUSH1 0x1 PUSH1 0x1 PUSH1 0xA0 SHL SUB AND DUP6 DUP8 PUSH1 0x40 MLOAD PUSH2 0x2115 SWAP2 SWAP1 PUSH2 0x264B JUMP JUMPDEST PUSH1 0x0 PUSH1 0x40 MLOAD DUP1 DUP4 SUB DUP2 DUP6 DUP8 GAS CALL SWAP3 POP POP POP RETURNDATASIZE DUP1 PUSH1 0x0 DUP2 EQ PUSH2 0x2152 JUMPI PUSH1 0x40 MLOAD SWAP2 POP PUSH1 0x1F NOT PUSH1 0x3F RETURNDATASIZE ADD AND DUP3 ADD PUSH1 0x40 MSTORE RETURNDATASIZE DUP3 MSTORE RETURNDATASIZE PUSH1 0x0 PUSH1 0x20 DUP5 ADD RETURNDATACOPY PUSH2 0x2157 JUMP JUMPDEST PUSH1 0x60 SWAP2 POP JUMPDEST POP SWAP2 POP SWAP2 POP PUSH2 0x1050 DUP8 DUP4 DUP4 DUP8 PUSH1 0x60 DUP4 ISZERO PUSH2 0x21D2 JUMPI DUP3 MLOAD PUSH1 0x0 SUB PUSH2 0x21CB JUMPI PUSH1 0x1 PUSH1 0x1 PUSH1 0xA0 SHL SUB DUP6 AND EXTCODESIZE PUSH2 0x21CB JUMPI PUSH1 0x40 MLOAD PUSH3 0x461BCD PUSH1 0xE5 SHL DUP2 MSTORE PUSH1 0x20 PUSH1 0x4 DUP3 ADD MSTORE PUSH1 0x1D PUSH1 0x24 DUP3 ADD MSTORE PUSH32 0x416464726573733A2063616C6C20746F206E6F6E2D636F6E7472616374000000 PUSH1 0x44 DUP3 ADD MSTORE PUSH1 0x64 ADD PUSH2 0x4F1 JUMP JUMPDEST POP DUP2 PUSH2 0x14AD JUMP JUMPDEST PUSH2 0x14AD DUP4 DUP4 DUP2 MLOAD ISZERO PUSH2 0x21E7 JUMPI DUP2 MLOAD DUP1 DUP4 PUSH1 0x20 ADD REVERT JUMPDEST DUP1 PUSH1 0x40 MLOAD PUSH3 0x461BCD PUSH1 0xE5 SHL DUP2 MSTORE PUSH1 0x4 ADD PUSH2 0x4F1 SWAP2 SWAP1 PUSH2 0x2667 JUMP JUMPDEST PUSH1 0x1 PUSH1 0x1 PUSH1 0xA0 SHL SUB DUP2 AND DUP2 EQ PUSH2 0x116B JUMPI PUSH1 0x0 DUP1 REVERT JUMPDEST PUSH1 0x0 DUP1 PUSH1 0x0 PUSH1 0x60 DUP5 DUP7 SUB SLT ISZERO PUSH2 0x222B JUMPI PUSH1 0x0 DUP1 REVERT JUMPDEST DUP4 CALLDATALOAD SWAP3 POP PUSH1 0x20 DUP5 ADD CALLDATALOAD PUSH2 0x223D DUP2 PUSH2 0x2201 JUMP JUMPDEST SWAP2 POP PUSH1 0x40 DUP5 ADD CALLDATALOAD PUSH2 0x224D DUP2 PUSH2 0x2201 JUMP JUMPDEST DUP1 SWAP2 POP POP SWAP3 POP SWAP3 POP SWAP3 JUMP JUMPDEST PUSH1 0x0 DUP1 PUSH1 0x40 DUP4 DUP6 SUB SLT ISZERO PUSH2 0x226B JUMPI PUSH1 0x0 DUP1 REVERT JUMPDEST DUP3 CALLDATALOAD SWAP2 POP PUSH1 0x20 DUP4 ADD CALLDATALOAD PUSH2 0x227D DUP2 PUSH2 0x2201 JUMP JUMPDEST DUP1 SWAP2 POP POP SWAP3 POP SWAP3 SWAP1 POP JUMP JUMPDEST PUSH1 0x0 PUSH1 0x20 DUP3 DUP5 SUB SLT ISZERO PUSH2 0x229A JUMPI PUSH1 0x0 DUP1 REVERT JUMPDEST DUP2 CALLDATALOAD PUSH2 0x186A DUP2 PUSH2 0x2201 JUMP JUMPDEST PUSH1 0x0 DUP1 PUSH1 0x40 DUP4 DUP6 SUB SLT ISZERO PUSH2 0x22B8 JUMPI PUSH1 0x0 DUP1 REVERT JUMPDEST DUP3 CALLDATALOAD PUSH2 0x22C3 DUP2 PUSH2 0x2201 JUMP JUMPDEST SWAP2 POP PUSH1 0x20 DUP4 ADD CALLDATALOAD PUSH2 0x227D DUP2 PUSH2 0x2201 JUMP JUMPDEST PUSH1 0x0 PUSH1 0x20 DUP3 DUP5 SUB SLT ISZERO PUSH2 0x22E5 JUMPI PUSH1 0x0 DUP1 REVERT JUMPDEST DUP2 MLOAD DUP1 ISZERO ISZERO DUP2 EQ PUSH2 0x186A JUMPI PUSH1 0x0 DUP1 REVERT JUMPDEST PUSH1 0x0 PUSH1 0x20 DUP3 DUP5 SUB SLT ISZERO PUSH2 0x2307 JUMPI PUSH1 0x0 DUP1 REVERT JUMPDEST DUP2 MLOAD PUSH2 0x186A DUP2 PUSH2 0x2201 JUMP JUMPDEST PUSH4 0x4E487B71 PUSH1 0xE0 SHL PUSH1 0x0 MSTORE PUSH1 0x11 PUSH1 0x4 MSTORE PUSH1 0x24 PUSH1 0x0 REVERT JUMPDEST DUP2 DUP2 SUB DUP2 DUP2 GT ISZERO PUSH2 0x14DA JUMPI PUSH2 0x14DA PUSH2 0x2312 JUMP JUMPDEST PUSH1 0x20 DUP1 DUP3 MSTORE PUSH1 0x17 SWAP1 DUP3 ADD MSTORE PUSH32 0x4C70546F6B656E5374616B65723A2073687574646F776E000000000000000000 PUSH1 0x40 DUP3 ADD MSTORE PUSH1 0x60 ADD SWAP1 JUMP JUMPDEST PUSH1 0x0 PUSH1 0x20 DUP3 DUP5 SUB SLT ISZERO PUSH2 0x2384 JUMPI PUSH1 0x0 DUP1 REVERT JUMPDEST POP MLOAD SWAP2 SWAP1 POP JUMP JUMPDEST PUSH1 0x0 PUSH1 0x20 DUP3 DUP5 SUB SLT ISZERO PUSH2 0x239D JUMPI PUSH1 0x0 DUP1 REVERT JUMPDEST DUP2 MLOAD PUSH1 0xFF DUP2 AND DUP2 EQ PUSH2 0x186A JUMPI PUSH1 0x0 DUP1 REVERT JUMPDEST DUP1 DUP3 ADD DUP1 DUP3 GT ISZERO PUSH2 0x14DA JUMPI PUSH2 0x14DA PUSH2 0x2312 JUMP JUMPDEST PUSH1 0x1 DUP2 DUP2 JUMPDEST DUP1 DUP6 GT ISZERO PUSH2 0x23FC JUMPI DUP2 PUSH1 0x0 NOT DIV DUP3 GT ISZERO PUSH2 0x23E2 JUMPI PUSH2 0x23E2 PUSH2 0x2312 JUMP JUMPDEST DUP1 DUP6 AND ISZERO PUSH2 0x23EF JUMPI SWAP2 DUP2 MUL SWAP2 JUMPDEST SWAP4 DUP5 SHR SWAP4 SWAP1 DUP1 MUL SWAP1 PUSH2 0x23C6 JUMP JUMPDEST POP SWAP3 POP SWAP3 SWAP1 POP JUMP JUMPDEST PUSH1 0x0 DUP3 PUSH2 0x2413 JUMPI POP PUSH1 0x1 PUSH2 0x14DA JUMP JUMPDEST DUP2 PUSH2 0x2420 JUMPI POP PUSH1 0x0 PUSH2 0x14DA JUMP JUMPDEST DUP2 PUSH1 0x1 DUP2 EQ PUSH2 0x2436 JUMPI PUSH1 0x2 DUP2 EQ PUSH2 0x2440 JUMPI PUSH2 0x245C JUMP JUMPDEST PUSH1 0x1 SWAP2 POP POP PUSH2 0x14DA JUMP JUMPDEST PUSH1 0xFF DUP5 GT ISZERO PUSH2 0x2451 JUMPI PUSH2 0x2451 PUSH2 0x2312 JUMP JUMPDEST POP POP PUSH1 0x1 DUP3 SHL PUSH2 0x14DA JUMP JUMPDEST POP PUSH1 0x20 DUP4 LT PUSH2 0x133 DUP4 LT AND PUSH1 0x4E DUP5 LT PUSH1 0xB DUP5 LT AND OR ISZERO PUSH2 0x247F JUMPI POP DUP2 DUP2 EXP PUSH2 0x14DA JUMP JUMPDEST PUSH2 0x2489 DUP4 DUP4 PUSH2 0x23C1 JUMP JUMPDEST DUP1 PUSH1 0x0 NOT DIV DUP3 GT ISZERO PUSH2 0x249D JUMPI PUSH2 0x249D PUSH2 0x2312 JUMP JUMPDEST MUL SWAP4 SWAP3 POP POP POP JUMP JUMPDEST PUSH1 0x0 PUSH2 0x186A DUP4 DUP4 PUSH2 0x2404 JUMP JUMPDEST PUSH4 0x4E487B71 PUSH1 0xE0 SHL PUSH1 0x0 MSTORE PUSH1 0x41 PUSH1 0x4 MSTORE PUSH1 0x24 PUSH1 0x0 REVERT JUMPDEST DUP1 MLOAD PUSH2 0x134C DUP2 PUSH2 0x2201 JUMP JUMPDEST PUSH1 0x0 PUSH1 0x20 DUP1 DUP4 DUP6 SUB SLT ISZERO PUSH2 0x24E5 JUMPI PUSH1 0x0 DUP1 REVERT JUMPDEST DUP3 MLOAD PUSH8 0xFFFFFFFFFFFFFFFF DUP1 DUP3 GT ISZERO PUSH2 0x24FD JUMPI PUSH1 0x0 DUP1 REVERT JUMPDEST DUP2 DUP6 ADD SWAP2 POP DUP6 PUSH1 0x1F DUP4 ADD SLT PUSH2 0x2511 JUMPI PUSH1 0x0 DUP1 REVERT JUMPDEST DUP2 MLOAD DUP2 DUP2 GT ISZERO PUSH2 0x2523 JUMPI PUSH2 0x2523 PUSH2 0x24B1 JUMP JUMPDEST DUP1 PUSH1 0x5 SHL PUSH1 0x40 MLOAD PUSH1 0x1F NOT PUSH1 0x3F DUP4 ADD AND DUP2 ADD DUP2 DUP2 LT DUP6 DUP3 GT OR ISZERO PUSH2 0x2548 JUMPI PUSH2 0x2548 PUSH2 0x24B1 JUMP JUMPDEST PUSH1 0x40 MSTORE SWAP2 DUP3 MSTORE DUP5 DUP3 ADD SWAP3 POP DUP4 DUP2 ADD DUP6 ADD SWAP2 DUP9 DUP4 GT ISZERO PUSH2 0x2566 JUMPI PUSH1 0x0 DUP1 REVERT JUMPDEST SWAP4 DUP6 ADD SWAP4 JUMPDEST DUP3 DUP6 LT ISZERO PUSH2 0x258B JUMPI PUSH2 0x257C DUP6 PUSH2 0x24C7 JUMP JUMPDEST DUP5 MSTORE SWAP4 DUP6 ADD SWAP4 SWAP3 DUP6 ADD SWAP3 PUSH2 0x256B JUMP JUMPDEST SWAP9 SWAP8 POP POP POP POP POP POP POP POP JUMP JUMPDEST PUSH4 0x4E487B71 PUSH1 0xE0 SHL PUSH1 0x0 MSTORE PUSH1 0x32 PUSH1 0x4 MSTORE PUSH1 0x24 PUSH1 0x0 REVERT JUMPDEST PUSH1 0x0 PUSH1 0x1 DUP3 ADD PUSH2 0x25BF JUMPI PUSH2 0x25BF PUSH2 0x2312 JUMP JUMPDEST POP PUSH1 0x1 ADD SWAP1 JUMP JUMPDEST DUP1 DUP3 MUL DUP2 ISZERO DUP3 DUP3 DIV DUP5 EQ OR PUSH2 0x14DA JUMPI PUSH2 0x14DA PUSH2 0x2312 JUMP JUMPDEST PUSH1 0x0 DUP3 PUSH2 0x25FA JUMPI PUSH4 0x4E487B71 PUSH1 0xE0 SHL PUSH1 0x0 MSTORE PUSH1 0x12 PUSH1 0x4 MSTORE PUSH1 0x24 PUSH1 0x0 REVERT JUMPDEST POP DIV SWAP1 JUMP JUMPDEST PUSH1 0xFF DUP3 DUP2 AND DUP3 DUP3 AND SUB SWAP1 DUP2 GT ISZERO PUSH2 0x14DA JUMPI PUSH2 0x14DA PUSH2 0x2312 JUMP JUMPDEST PUSH1 0x0 PUSH2 0x186A PUSH1 0xFF DUP5 AND DUP4 PUSH2 0x2404 JUMP JUMPDEST PUSH1 0x0 JUMPDEST DUP4 DUP2 LT ISZERO PUSH2 0x2642 JUMPI DUP2 DUP2 ADD MLOAD DUP4 DUP3 ADD MSTORE PUSH1 0x20 ADD PUSH2 0x262A JUMP JUMPDEST POP POP PUSH1 0x0 SWAP2 ADD MSTORE JUMP JUMPDEST PUSH1 0x0 DUP3 MLOAD PUSH2 0x265D DUP2 DUP5 PUSH1 0x20 DUP8 ADD PUSH2 0x2627 JUMP JUMPDEST SWAP2 SWAP1 SWAP2 ADD SWAP3 SWAP2 POP POP JUMP JUMPDEST PUSH1 0x20 DUP2 MSTORE PUSH1 0x0 DUP3 MLOAD DUP1 PUSH1 0x20 DUP5 ADD MSTORE PUSH2 0x2686 DUP2 PUSH1 0x40 DUP6 ADD PUSH1 0x20 DUP8 ADD PUSH2 0x2627 JUMP JUMPDEST PUSH1 0x1F ADD PUSH1 0x1F NOT AND SWAP2 SWAP1 SWAP2 ADD PUSH1 0x40 ADD SWAP3 SWAP2 POP POP JUMP INVALID LOG2 PUSH5 0x6970667358 0x22 SLT KECCAK256 0x28 DUP6 CHAINID 0xBD DUP6 0x2A PUSH2 0x8E10 BLOCKHASH PUSH16 0x912B2FC6DFBF231F12B97EE12EF01853 0xC1 0x49 POP LOG0 PUSH5 0x64736F6C63 NUMBER STOP ADDMOD GT STOP CALLER ","sha1":"67d3aead5aca583dece2a55e36128dfeb1e421cb","source":"// SPDX-License-Identifier: GPL-3.0-or-later\npragma solidity 0.8.17;\n\nimport \"@openzeppelin/contracts/token/ERC20/utils/SafeERC20.sol\";\n\nimport \"../../interfaces/tokenomics/ILpTokenStaker.sol\";\nimport \"../../interfaces/tokenomics/IInflationManager.sol\";\nimport \"../../interfaces/IController.sol\";\nimport \"../../interfaces/pools/IConicPool.sol\";\nimport \"../../interfaces/pools/ILpToken.sol\";\nimport \"../../interfaces/tokenomics/ICNCToken.sol\";\nimport \"../../libraries/ScaledMath.sol\";\n\n/// @dev USD amounts in this contract are always scaled by 1e18\ncontract LpTokenStaker is ILpTokenStaker {\n    using SafeERC20 for IERC20;\n    using SafeERC20 for ILpToken;\n    using ScaledMath for uint256;\n    struct Boost {\n        uint256 timeBoost;\n        uint256 lastUpdated;\n    }\n\n    uint256 public constant MAX_BOOST = 10e18;\n    uint256 public constant MIN_BOOST = 1e18;\n    uint256 public constant TIME_STARTING_FACTOR = 1e17;\n    uint256 public constant INCREASE_PERIOD = 30 days;\n    uint256 public constant TVL_FACTOR = 45e18;\n\n    mapping(address => mapping(address => uint256)) internal stakedPerUser;\n    mapping(address => uint256) internal _stakedPerPool;\n    mapping(address => Boost) public boosts;\n\n    mapping(address => uint256) public poolShares;\n    mapping(address => uint256) public poolLastUpdated;\n\n    IController public immutable controller;\n    ICNCToken public immutable cnc;\n    address internal immutable _treasury;\n\n    bool public isShutdown;\n\n    modifier notShutdown() {\n        require(!isShutdown, \"LpTokenStaker: shutdown\");\n        _;\n    }\n\n    constructor(address controller_, ICNCToken cnc_, address treasury_) {\n        controller = IController(controller_);\n        cnc = cnc_;\n        _initializeLastUpdated();\n        _treasury = treasury_;\n    }\n\n    function stake(uint256 amount, address conicPool) external override {\n        stakeFor(amount, conicPool, msg.sender);\n    }\n\n    function unstake(uint256 amount, address conicPool) external override {\n        unstakeFor(amount, conicPool, msg.sender);\n    }\n\n    function stakeFor(\n        uint256 amount,\n        address conicPool,\n        address account\n    ) public override notShutdown {\n        require(controller.isPool(conicPool), \"not a conic pool\");\n        ILpToken lpToken = IConicPool(conicPool).lpToken();\n        uint256 exchangeRate = IConicPool(conicPool).usdExchangeRate();\n        // Checkpoint all inflation logic\n        IConicPool(conicPool).rewardManager().accountCheckpoint(account);\n        _stakerCheckpoint(\n            account,\n            amount.convertScale(lpToken.decimals(), 18).mulDown(exchangeRate)\n        );\n        // Actual staking\n        lpToken.safeTransferFrom(msg.sender, address(this), amount);\n        if (!controller.isPool(msg.sender)) {\n            lpToken.taint(msg.sender, account, amount);\n        }\n        stakedPerUser[account][conicPool] += amount;\n        _stakedPerPool[conicPool] += amount;\n    }\n\n    function unstakeFor(uint256 amount, address conicPool, address account) public override {\n        require(controller.isPool(conicPool), \"not a conic pool\");\n        require(stakedPerUser[msg.sender][conicPool] >= amount, \"not enough staked\");\n        // Checkpoint all inflation logic\n        if (!isShutdown) {\n            IConicPool(conicPool).rewardManager().accountCheckpoint(msg.sender);\n            _stakerCheckpoint(msg.sender, 0);\n        }\n        // Actual unstaking\n        stakedPerUser[msg.sender][conicPool] -= amount;\n        _stakedPerPool[conicPool] -= amount;\n        IConicPool(conicPool).lpToken().safeTransfer(account, amount);\n        IConicPool(conicPool).lpToken().taint(msg.sender, account, amount);\n    }\n\n    function unstakeFrom(uint256 amount, address account) public override {\n        require(controller.isPool(msg.sender), \"only callable from conic pool\");\n        require(stakedPerUser[account][msg.sender] >= amount, \"not enough staked\");\n        // Checkpoint all inflation logic\n        if (!isShutdown) {\n            IConicPool(msg.sender).rewardManager().accountCheckpoint(account);\n            _stakerCheckpoint(account, 0);\n        }\n        // Actual unstaking\n        stakedPerUser[account][msg.sender] -= amount;\n        _stakedPerPool[msg.sender] -= amount;\n        IConicPool(msg.sender).lpToken().safeTransfer(account, amount);\n    }\n\n    function shutdown() external {\n        require(msg.sender == address(controller), \"LpTokenStaker: not controller\");\n\n        // Claim all rewards\n        address[] memory pools = controller.listPools();\n        for (uint256 i; i < pools.length; i++) {\n            _claimCNCRewardsForPool(pools[i]);\n        }\n\n        // Transfer all idle CNC to treasury\n        uint256 idleCnc = cnc.balanceOf(address(this));\n        if (idleCnc > 0) IERC20(address(cnc)).transfer(_treasury, idleCnc);\n\n        isShutdown = true;\n        emit Shutdown();\n    }\n\n    function getUserBalanceForPool(\n        address conicPool,\n        address account\n    ) external view override returns (uint256) {\n        return stakedPerUser[account][conicPool];\n    }\n\n    function getBalanceForPool(address conicPool) external view override returns (uint256) {\n        return _stakedPerPool[conicPool];\n    }\n\n    function getCachedBoost(address user) external view returns (uint256) {\n        return boosts[user].timeBoost;\n    }\n\n    function getBoost(address user) external view override returns (uint256) {\n        if (isShutdown) return MIN_BOOST;\n        (uint256 userStakedUSD, uint256 totalStakedUSD) = _getTotalStakedForUserCommonDenomination(\n            user\n        );\n        if (totalStakedUSD == 0 || userStakedUSD == 0) {\n            return MIN_BOOST;\n        }\n        uint256 stakeBoost = ScaledMath.ONE +\n            userStakedUSD.divDown(totalStakedUSD).mulDown(TVL_FACTOR);\n\n        Boost storage userBoost = boosts[user];\n        uint256 timeBoost = userBoost.timeBoost;\n        timeBoost += (block.timestamp - userBoost.lastUpdated).divDown(INCREASE_PERIOD).mulDown(\n            ScaledMath.ONE - TIME_STARTING_FACTOR\n        );\n        if (timeBoost > ScaledMath.ONE) {\n            timeBoost = ScaledMath.ONE;\n        }\n        uint256 totalBoost = stakeBoost.mulDown(timeBoost);\n        if (totalBoost < MIN_BOOST) {\n            totalBoost = MIN_BOOST;\n        } else if (totalBoost > MAX_BOOST) {\n            totalBoost = MAX_BOOST;\n        }\n        return totalBoost;\n    }\n\n    function updateBoost(address user) external override notShutdown {\n        (uint256 userStaked, ) = _getTotalStakedForUserCommonDenomination(user);\n        _updateTimeBoost(user, userStaked, 0);\n    }\n\n    function claimCNCRewardsForPool(address pool) external override notShutdown {\n        require(\n            msg.sender == address(IConicPool(pool).rewardManager()),\n            \"can only be called by reward manager\"\n        );\n        _claimCNCRewardsForPool(pool);\n    }\n\n    function _claimCNCRewardsForPool(address pool) internal {\n        require(controller.isPool(pool), \"not a pool\");\n        uint256 cncToMint = checkpoint(pool);\n        if (cncToMint == 0) {\n            return;\n        }\n        uint256 idleCnc = cnc.balanceOf(address(this));\n        if (idleCnc > 0) {\n            if (idleCnc > cncToMint) idleCnc = cncToMint;\n            IERC20(address(cnc)).transfer(address(pool), idleCnc);\n            cncToMint -= idleCnc;\n        }\n        if (cncToMint > 0) {\n            cnc.mint(address(pool), cncToMint);\n        }\n        poolShares[pool] = 0;\n        emit TokensClaimed(pool, cncToMint + idleCnc);\n    }\n\n    function claimableCnc(address pool) public view override returns (uint256) {\n        if (isShutdown) return 0;\n        uint256 currentRate = controller.inflationManager().getCurrentPoolInflationRate(pool);\n        uint256 timeElapsed = block.timestamp - poolLastUpdated[pool];\n        return poolShares[pool] + (currentRate * timeElapsed);\n    }\n\n    function _stakerCheckpoint(address account, uint256 amountAddedUSD) internal {\n        (uint256 userStakedUSD, ) = _getTotalStakedForUserCommonDenomination(account);\n        _updateTimeBoost(account, userStakedUSD, amountAddedUSD);\n    }\n\n    function checkpoint(address pool) public override notShutdown returns (uint256) {\n        // Update the integral of total token supply for the pool\n        uint256 timeElapsed = block.timestamp - poolLastUpdated[pool];\n        if (timeElapsed == 0) return poolShares[pool];\n        poolCheckpoint(pool);\n        poolLastUpdated[pool] = block.timestamp;\n        return poolShares[pool];\n    }\n\n    function poolCheckpoint(address pool) internal {\n        uint256 currentRate = controller.inflationManager().getCurrentPoolInflationRate(pool);\n        uint256 timeElapsed = block.timestamp - poolLastUpdated[pool];\n        poolShares[pool] += (currentRate * timeElapsed);\n    }\n\n    function _updateTimeBoost(\n        address user,\n        uint256 userStakedUSD,\n        uint256 amountAddedUSD\n    ) internal {\n        Boost storage userBoost = boosts[user];\n\n        if (userStakedUSD == 0) {\n            userBoost.timeBoost = TIME_STARTING_FACTOR;\n            userBoost.lastUpdated = block.timestamp;\n            return;\n        }\n        uint256 newBoost;\n        newBoost = userBoost.timeBoost;\n        newBoost += (block.timestamp - userBoost.lastUpdated).divDown(INCREASE_PERIOD).mulDown(\n            ScaledMath.ONE - TIME_STARTING_FACTOR\n        );\n        if (newBoost > ScaledMath.ONE) {\n            newBoost = ScaledMath.ONE;\n        }\n        if (amountAddedUSD == 0) {\n            userBoost.timeBoost = newBoost;\n        } else {\n            uint256 newTotalStakedUSD = userStakedUSD + amountAddedUSD;\n            userBoost.timeBoost =\n                newBoost.mulDown(userStakedUSD.divDown(newTotalStakedUSD)) +\n                TIME_STARTING_FACTOR.mulDown(amountAddedUSD.divDown(newTotalStakedUSD));\n        }\n        userBoost.lastUpdated = block.timestamp;\n    }\n\n    function _getUserUSDStakedInPool(\n        address account,\n        address pool\n    ) internal view returns (uint256 poolStaked, uint256 poolUserStaked) {\n        uint256 curExchangeRate = IConicPool(pool).usdExchangeRate();\n\n        uint8 decimals = IConicPool(pool).lpToken().decimals();\n        poolStaked = _stakedPerPool[pool].convertScale(decimals, 18).mulDown(curExchangeRate);\n        poolUserStaked = stakedPerUser[account][pool].convertScale(decimals, 18).mulDown(\n            curExchangeRate\n        );\n    }\n\n    function _getTotalStakedForUserCommonDenomination(\n        address account\n    ) public view returns (uint256, uint256) {\n        address[] memory conicPools = controller.listPools();\n        uint256 totalStakedUSD = 0;\n        uint256 userStakedUSD = 0;\n        for (uint256 i; i < conicPools.length; i++) {\n            (uint256 poolStakedUSD, uint256 poolUserStakedUSD) = _getUserUSDStakedInPool(\n                account,\n                conicPools[i]\n            );\n            totalStakedUSD += poolStakedUSD;\n            userStakedUSD += poolUserStakedUSD;\n        }\n        return (userStakedUSD, totalStakedUSD);\n    }\n\n    function _initializeLastUpdated() internal {\n        address[] memory pools = controller.listPools();\n        for (uint256 i; i < pools.length; i++) {\n            poolLastUpdated[pools[i]] = block.timestamp;\n        }\n    }\n}\n","sourcePath":"contracts/tokenomics/LpTokenStaker.sol","type":"contract","deployment":{"address":"0xA5241560306298efb9ed80b87427e664FFff0CF9","chainid":"1","blockHeight":19036171}}