{"abi":[{"inputs":[{"internalType":"address","name":"_underlying","type":"address"},{"internalType":"address","name":"_controller","type":"address"},{"internalType":"address","name":"locker","type":"address"},{"internalType":"string","name":"_lpTokenName","type":"string"},{"internalType":"string","name":"_symbol","type":"string"},{"internalType":"address","name":"_cvx","type":"address"},{"internalType":"address","name":"_crv","type":"address"}],"stateMutability":"nonpayable","type":"constructor","name":"constructor"},{"anonymous":false,"inputs":[{"indexed":false,"internalType":"uint256","name":"claimedCrv","type":"uint256"},{"indexed":false,"internalType":"uint256","name":"claimedCvx","type":"uint256"}],"name":"ClaimedRewards","type":"event"},{"anonymous":false,"inputs":[{"indexed":false,"internalType":"address","name":"curvePool_","type":"address"}],"name":"CurvePoolAdded","type":"event"},{"anonymous":false,"inputs":[{"indexed":false,"internalType":"address","name":"curvePool_","type":"address"}],"name":"CurvePoolRemoved","type":"event"},{"anonymous":false,"inputs":[{"indexed":false,"internalType":"uint256","name":"newThreshold","type":"uint256"}],"name":"DepegThresholdUpdated","type":"event"},{"anonymous":false,"inputs":[{"indexed":true,"internalType":"address","name":"sender","type":"address"},{"indexed":true,"internalType":"address","name":"receiver","type":"address"},{"indexed":false,"internalType":"uint256","name":"depositedAmount","type":"uint256"},{"indexed":false,"internalType":"uint256","name":"lpReceived","type":"uint256"}],"name":"Deposit","type":"event"},{"anonymous":false,"inputs":[{"indexed":false,"internalType":"address","name":"curvePool_","type":"address"}],"name":"HandledDepeggedCurvePool","type":"event"},{"anonymous":false,"inputs":[{"indexed":false,"internalType":"address","name":"curvePool_","type":"address"},{"indexed":false,"internalType":"uint256","name":"pid_","type":"uint256"}],"name":"HandledInvalidConvexPid","type":"event"},{"anonymous":false,"inputs":[{"indexed":false,"internalType":"uint256","name":"newMaxDeviation","type":"uint256"}],"name":"MaxDeviationUpdated","type":"event"},{"anonymous":false,"inputs":[{"indexed":false,"internalType":"uint256","name":"newRatio","type":"uint256"}],"name":"NewMaxIdleCurveLpRatio","type":"event"},{"anonymous":false,"inputs":[{"indexed":true,"internalType":"address","name":"curvePool","type":"address"},{"indexed":false,"internalType":"uint256","name":"newWeight","type":"uint256"}],"name":"NewWeight","type":"event"},{"anonymous":false,"inputs":[{"indexed":true,"internalType":"address","name":"previousOwner","type":"address"},{"indexed":true,"internalType":"address","name":"newOwner","type":"address"}],"name":"OwnershipTransferred","type":"event"},{"anonymous":false,"inputs":[],"name":"Shutdown","type":"event"},{"anonymous":false,"inputs":[{"indexed":true,"internalType":"address","name":"account","type":"address"},{"indexed":false,"internalType":"uint256","name":"amount","type":"uint256"}],"name":"Withdraw","type":"event"},{"inputs":[],"name":"CNC","outputs":[{"internalType":"contract IERC20","name":"","type":"address"}],"stateMutability":"view","type":"function"},{"inputs":[],"name":"CRV","outputs":[{"internalType":"contract IERC20","name":"","type":"address"}],"stateMutability":"view","type":"function"},{"inputs":[],"name":"CVX","outputs":[{"internalType":"contract IERC20","name":"","type":"address"}],"stateMutability":"view","type":"function"},{"inputs":[{"internalType":"address","name":"_pool","type":"address"}],"name":"addCurvePool","outputs":[],"stateMutability":"nonpayable","type":"function"},{"inputs":[],"name":"allCurvePools","outputs":[{"internalType":"address[]","name":"","type":"address[]"}],"stateMutability":"view","type":"function"},{"inputs":[],"name":"cachedTotalUnderlying","outputs":[{"internalType":"uint256","name":"","type":"uint256"}],"stateMutability":"view","type":"function"},{"inputs":[],"name":"computeDeviationRatio","outputs":[{"internalType":"uint256","name":"","type":"uint256"}],"stateMutability":"view","type":"function"},{"inputs":[],"name":"computeTotalDeviation","outputs":[{"internalType":"uint256","name":"","type":"uint256"}],"stateMutability":"view","type":"function"},{"inputs":[],"name":"controller","outputs":[{"internalType":"contract IController","name":"","type":"address"}],"stateMutability":"view","type":"function"},{"inputs":[],"name":"curvePoolsCount","outputs":[{"internalType":"uint256","name":"","type":"uint256"}],"stateMutability":"view","type":"function"},{"inputs":[],"name":"depegThreshold","outputs":[{"internalType":"uint256","name":"","type":"uint256"}],"stateMutability":"view","type":"function"},{"inputs":[{"internalType":"uint256","name":"underlyingAmount","type":"uint256"},{"internalType":"uint256","name":"minLpReceived","type":"uint256"},{"internalType":"bool","name":"stake","type":"bool"}],"name":"deposit","outputs":[{"internalType":"uint256","name":"","type":"uint256"}],"stateMutability":"nonpayable","type":"function"},{"inputs":[{"internalType":"uint256","name":"underlyingAmount","type":"uint256"},{"internalType":"uint256","name":"minLpReceived","type":"uint256"}],"name":"deposit","outputs":[{"internalType":"uint256","name":"","type":"uint256"}],"stateMutability":"nonpayable","type":"function"},{"inputs":[{"internalType":"address","name":"account","type":"address"},{"internalType":"uint256","name":"underlyingAmount","type":"uint256"},{"internalType":"uint256","name":"minLpReceived","type":"uint256"},{"internalType":"bool","name":"stake","type":"bool"}],"name":"depositFor","outputs":[{"internalType":"uint256","name":"","type":"uint256"}],"stateMutability":"nonpayable","type":"function"},{"inputs":[],"name":"exchangeRate","outputs":[{"internalType":"uint256","name":"","type":"uint256"}],"stateMutability":"view","type":"function"},{"inputs":[],"name":"getAllocatedUnderlying","outputs":[{"components":[{"internalType":"address","name":"poolAddress","type":"address"},{"internalType":"uint256","name":"amount","type":"uint256"}],"internalType":"struct IConicPool.PoolWithAmount[]","name":"","type":"tuple[]"}],"stateMutability":"view","type":"function"},{"inputs":[{"internalType":"uint256","name":"_index","type":"uint256"}],"name":"getCurvePoolAtIndex","outputs":[{"internalType":"address","name":"","type":"address"}],"stateMutability":"view","type":"function"},{"inputs":[{"internalType":"address","name":"_pool","type":"address"}],"name":"getPoolWeight","outputs":[{"internalType":"uint256","name":"","type":"uint256"}],"stateMutability":"view","type":"function"},{"inputs":[],"name":"getTotalAndPerPoolUnderlying","outputs":[{"internalType":"uint256","name":"totalUnderlying_","type":"uint256"},{"internalType":"uint256","name":"totalAllocated_","type":"uint256"},{"internalType":"uint256[]","name":"perPoolUnderlying_","type":"uint256[]"}],"stateMutability":"view","type":"function"},{"inputs":[{"internalType":"address","name":"curvePool","type":"address"}],"name":"getWeight","outputs":[{"internalType":"uint256","name":"","type":"uint256"}],"stateMutability":"view","type":"function"},{"inputs":[],"name":"getWeights","outputs":[{"components":[{"internalType":"address","name":"poolAddress","type":"address"},{"internalType":"uint256","name":"weight","type":"uint256"}],"internalType":"struct IConicPool.PoolWeight[]","name":"","type":"tuple[]"}],"stateMutability":"view","type":"function"},{"inputs":[{"internalType":"address","name":"curvePool_","type":"address"}],"name":"handleDepeggedCurvePool","outputs":[],"stateMutability":"nonpayable","type":"function"},{"inputs":[{"internalType":"address","name":"curvePool_","type":"address"}],"name":"handleInvalidConvexPid","outputs":[],"stateMutability":"nonpayable","type":"function"},{"inputs":[],"name":"isBalanced","outputs":[{"internalType":"bool","name":"","type":"bool"}],"stateMutability":"view","type":"function"},{"inputs":[{"internalType":"address","name":"_pool","type":"address"}],"name":"isRegisteredCurvePool","outputs":[{"internalType":"bool","name":"","type":"bool"}],"stateMutability":"view","type":"function"},{"inputs":[],"name":"isShutdown","outputs":[{"internalType":"bool","name":"","type":"bool"}],"stateMutability":"view","type":"function"},{"inputs":[],"name":"lpToken","outputs":[{"internalType":"contract ILpToken","name":"","type":"address"}],"stateMutability":"view","type":"function"},{"inputs":[],"name":"maxDeviation","outputs":[{"internalType":"uint256","name":"","type":"uint256"}],"stateMutability":"view","type":"function"},{"inputs":[],"name":"maxIdleCurveLpRatio","outputs":[{"internalType":"uint256","name":"","type":"uint256"}],"stateMutability":"view","type":"function"},{"inputs":[],"name":"owner","outputs":[{"internalType":"address","name":"","type":"address"}],"stateMutability":"view","type":"function"},{"inputs":[],"name":"rebalancingRewardActive","outputs":[{"internalType":"bool","name":"","type":"bool"}],"stateMutability":"view","type":"function"},{"inputs":[{"internalType":"address","name":"_pool","type":"address"}],"name":"removeCurvePool","outputs":[],"stateMutability":"nonpayable","type":"function"},{"inputs":[],"name":"renounceOwnership","outputs":[],"stateMutability":"nonpayable","type":"function"},{"inputs":[],"name":"rewardManager","outputs":[{"internalType":"contract IRewardManager","name":"","type":"address"}],"stateMutability":"view","type":"function"},{"inputs":[{"internalType":"uint256","name":"maxDeviation_","type":"uint256"}],"name":"setMaxDeviation","outputs":[],"stateMutability":"nonpayable","type":"function"},{"inputs":[{"internalType":"uint256","name":"maxIdleCurveLpRatio_","type":"uint256"}],"name":"setMaxIdleCurveLpRatio","outputs":[],"stateMutability":"nonpayable","type":"function"},{"inputs":[],"name":"shutdownPool","outputs":[],"stateMutability":"nonpayable","type":"function"},{"inputs":[{"internalType":"address","name":"curvePool_","type":"address"}],"name":"totalCurveLpBalance","outputs":[{"internalType":"uint256","name":"","type":"uint256"}],"stateMutability":"view","type":"function"},{"inputs":[],"name":"totalDeviationAfterWeightUpdate","outputs":[{"internalType":"uint256","name":"","type":"uint256"}],"stateMutability":"view","type":"function"},{"inputs":[],"name":"totalUnderlying","outputs":[{"internalType":"uint256","name":"","type":"uint256"}],"stateMutability":"view","type":"function"},{"inputs":[{"internalType":"address","name":"newOwner","type":"address"}],"name":"transferOwnership","outputs":[],"stateMutability":"nonpayable","type":"function"},{"inputs":[],"name":"underlying","outputs":[{"internalType":"contract IERC20Metadata","name":"","type":"address"}],"stateMutability":"view","type":"function"},{"inputs":[{"internalType":"uint256","name":"conicLpAmount","type":"uint256"},{"internalType":"uint256","name":"minUnderlyingReceived","type":"uint256"}],"name":"unstakeAndWithdraw","outputs":[{"internalType":"uint256","name":"","type":"uint256"}],"stateMutability":"nonpayable","type":"function"},{"inputs":[{"internalType":"uint256","name":"newDepegThreshold_","type":"uint256"}],"name":"updateDepegThreshold","outputs":[],"stateMutability":"nonpayable","type":"function"},{"inputs":[{"components":[{"internalType":"address","name":"poolAddress","type":"address"},{"internalType":"uint256","name":"weight","type":"uint256"}],"internalType":"struct IConicPool.PoolWeight[]","name":"poolWeights","type":"tuple[]"}],"name":"updateWeights","outputs":[],"stateMutability":"nonpayable","type":"function"},{"inputs":[],"name":"usdExchangeRate","outputs":[{"internalType":"uint256","name":"","type":"uint256"}],"stateMutability":"view","type":"function"},{"inputs":[{"internalType":"uint256","name":"conicLpAmount","type":"uint256"},{"internalType":"uint256","name":"minUnderlyingReceived","type":"uint256"}],"name":"withdraw","outputs":[{"internalType":"uint256","name":"","type":"uint256"}],"stateMutability":"nonpayable","type":"function"},{"stateMutability":"payable","type":"receive"}],"bytecode":"61014060405266470de4df82000060015566b1a2bc2ec50000600255666a94d74f4300006004553480156200003357600080fd5b506040516200c85b3803806200c85b833981016040819052620000569162000865565b62000061336200033e565b816001600160a01b0316876001600160a01b031614158015620000965750806001600160a01b0316876001600160a01b031614155b8015620000c057506001600160a01b038716739ae380f0272e2162340a5bb646c354271c0f5cfc14155b620001075760405162461bcd60e51b8152602060048201526012602482015271696e76616c696420756e6465726c79696e6760701b60448201526064015b60405180910390fd5b6001600160a01b0380881660c0819052908716610120526040805163313ce56760e01b815290516000929163313ce5679160048083019260209291908290030181865afa1580156200015d573d6000803e3d6000fd5b505050506040513d601f19601f820116820180604052508101906200018391906200092d565b90503081868660405162000197906200075f565b620001a6949392919062000987565b604051809103906000f080158015620001c3573d6000803e3d6000fd5b506001600160a01b031660e0816001600160a01b0316815250506000873060e0518b8a604051620001f4906200076d565b6001600160a01b0395861681529385166020850152918416604084015283166060830152909116608082015260a001604051809103906000f08015801562000240573d6000803e3d6000fd5b5060405163f2fde38b60e01b81523360048201529091506001600160a01b0382169063f2fde38b90602401600060405180830381600087803b1580156200028657600080fd5b505af11580156200029b573d6000803e3d6000fd5b505050506001600160a01b0381811661010052848116608081905290841660a052620002d790826000196200038e602090811b62002f1c17901c565b620003008160001960a0516001600160a01b03166200038e60201b62002f1c179092919060201c565b6200032f739ae380f0272e2162340a5bb646c354271c0f5cfc826000196200038e602090811b62002f1c17901c565b50505050505050505062000a3b565b600080546001600160a01b038381166001600160a01b0319831681178455604051919092169283917f8be0079c531659141344cd1fd0a4f28419497f9722a3daafe3b4186f6b6457e09190a35050565b8015806200040c5750604051636eb1769f60e11b81523060048201526001600160a01b03838116602483015284169063dd62ed3e90604401602060405180830381865afa158015620003e4573d6000803e3d6000fd5b505050506040513d601f19601f820116820180604052508101906200040a9190620009ca565b155b620004805760405162461bcd60e51b815260206004820152603660248201527f5361666545524332303a20617070726f76652066726f6d206e6f6e2d7a65726f60448201527f20746f206e6f6e2d7a65726f20616c6c6f77616e6365000000000000000000006064820152608401620000fe565b604080516001600160a01b038416602482015260448082018490528251808303909101815260649091019091526020810180516001600160e01b0390811663095ea7b360e01b17909152620004d8918591620004dd16565b505050565b600062000539826040518060400160405280602081526020017f5361666545524332303a206c6f772d6c6576656c2063616c6c206661696c6564815250856001600160a01b0316620005bb60201b62003069179092919060201c565b805190915015620004d857808060200190518101906200055a9190620009e4565b620004d85760405162461bcd60e51b815260206004820152602a60248201527f5361666545524332303a204552433230206f7065726174696f6e20646964206e6044820152691bdd081cdd58d8d9595960b21b6064820152608401620000fe565b6060620005cc8484600085620005d4565b949350505050565b606082471015620006375760405162461bcd60e51b815260206004820152602660248201527f416464726573733a20696e73756666696369656e742062616c616e636520666f6044820152651c8818d85b1b60d21b6064820152608401620000fe565b600080866001600160a01b0316858760405162000655919062000a08565b60006040518083038185875af1925050503d806000811462000694576040519150601f19603f3d011682016040523d82523d6000602084013e62000699565b606091505b509092509050620006ad87838387620006b8565b979650505050505050565b606083156200072c57825160000362000724576001600160a01b0385163b620007245760405162461bcd60e51b815260206004820152601d60248201527f416464726573733a2063616c6c20746f206e6f6e2d636f6e74726163740000006044820152606401620000fe565b5081620005cc565b620005cc8383815115620007435781518083602001fd5b8060405162461bcd60e51b8152600401620000fe919062000a26565b610f428062006bb283390190565b614d678062007af483390190565b80516001600160a01b03811681146200079357600080fd5b919050565b634e487b7160e01b600052604160045260246000fd5b60005b83811015620007cb578181015183820152602001620007b1565b50506000910152565b600082601f830112620007e657600080fd5b81516001600160401b038082111562000803576200080362000798565b604051601f8301601f19908116603f011681019082821181831017156200082e576200082e62000798565b816040528381528660208588010111156200084857600080fd5b6200085b846020830160208901620007ae565b9695505050505050565b600080600080600080600060e0888a0312156200088157600080fd5b6200088c886200077b565b96506200089c602089016200077b565b9550620008ac604089016200077b565b60608901519095506001600160401b0380821115620008ca57600080fd5b620008d88b838c01620007d4565b955060808a0151915080821115620008ef57600080fd5b50620008fe8a828b01620007d4565b9350506200090f60a089016200077b565b91506200091f60c089016200077b565b905092959891949750929550565b6000602082840312156200094057600080fd5b815160ff811681146200095257600080fd5b9392505050565b6000815180845262000973816020860160208601620007ae565b601f01601f19169290920160200192915050565b6001600160a01b038516815260ff84166020820152608060408201819052600090620009b69083018562000959565b8281036060840152620006ad818562000959565b600060208284031215620009dd57600080fd5b5051919050565b600060208284031215620009f757600080fd5b815180151581146200095257600080fd5b6000825162000a1c818460208701620007ae565b9190910192915050565b60208152600062000952602083018462000959565b60805160a05160c05160e0516101005161012051615f7c62000c36600039600081816108f80152818161092f01528181610c2401528181610e5a015281816114d90152818161181901528181611bc201528181611e8e015281816121ba015281816122ee0152818161247c0152818161256e015281816126d901528181612a8501528181612cad01528181612de101528181613173015281816133d7015281816138370152818161399201528181613b7301528181613de701528181614042015281816140d3015281816145fa0152818161487001528181614b2e01528181614db601528181614ebe01528181615105015281816151e9015281816155a10152615692015260006103530152600081816104fb01528181611036015281816112b70152818161179f015281816118a60152818161197d015261366f0152600081816102930152818161059701528181610cbb01528181610dec015281816110fe015281816111e40152818161133a01528181611570015281816116190152818161166e0152818161225101528181612b81015281816132c50152818161337101528181613e7e01528181613ef90152818161428601528181614571015281816149070152818161498201528181614e480152818161508f0152818161551a0152615729015260006106ab015260006106020152615f7c6000f3fe60806040526004361061028c5760003560e01c806386fe9a661161015a578063c70920bc116100c1578063dddbc0491161007a578063dddbc04914610851578063e17e172514610871578063e2bbb15814610886578063f2fde38b146108a6578063f5cfc592146108c6578063f77c4791146108e657600080fd5b8063c70920bc146107c7578063cb03a464146107dc578063ce75040e146107f1578063d1e6c1e514610806578063d6038dc61461081c578063ddd2c6841461083157600080fd5b8063a1e2849f11610113578063a1e2849f14610717578063a58f1d8e14610737578063ac6c52511461074d578063b0a439681461076d578063bd096cbb1461078d578063bf86d690146107ad57600080fd5b806386fe9a66146106395780638da5cb5b1461065b5780638dbfb25b14610679578063945c9142146106995780639765ca15146106cd5780639e486562146106ed57600080fd5b806343a0d066116101fe57806365f20355116101b757806365f20355146105655780636f307dc3146105855780636f934abe146105b9578063715018a6146105db578063759cb53b146105f057806383645abf1461062457600080fd5b806343a0d06614610489578063441a3e70146104a95780635757ed5b146104c95780635fcbd285146104e957806360ffd5ae1461051d578063632473da1461053d57600080fd5b80632a1bab73116102505780632a1bab73146103e457806332f44c42146103fa578063331666fa1461041a57806336797aec1461043e5780633ba0b9a91461045e5780633d4912c31461047357600080fd5b806308bf1345146103195780630f4ef8a61461034157806310aec8f91461038d57806322acb867146103ad57806324a71a66146103cf57600080fd5b36610314577f00000000000000000000000000000000000000000000000000000000000000006001600160a01b031673c02aaa39b223fe8d0a0e5c4f27ead9083c756cc2146103125760405162461bcd60e51b815260206004820152600d60248201526c1b9bdd0815d15512081c1bdbdb609a1b60448201526064015b60405180910390fd5b005b600080fd5b34801561032557600080fd5b5061032e61091a565b6040519081526020015b60405180910390f35b34801561034d57600080fd5b506103757f000000000000000000000000000000000000000000000000000000000000000081565b6040516001600160a01b039091168152602001610338565b34801561039957600080fd5b5061032e6103a83660046158de565b61092b565b3480156103b957600080fd5b506103c2610a24565b6040516103389190615900565b3480156103db57600080fd5b5061032e610b0b565b3480156103f057600080fd5b5061032e60015481565b34801561040657600080fd5b50610312610415366004615960565b610b34565b34801561042657600080fd5b5061042f610c1b565b60405161033893929190615979565b34801561044a57600080fd5b506103126104593660046159e3565b610d47565b34801561046a57600080fd5b5061032e610fea565b34801561047f57600080fd5b5061032e60045481565b34801561049557600080fd5b5061032e6104a4366004615a0e565b610ffc565b3480156104b557600080fd5b5061032e6104c43660046158de565b611014565b3480156104d557600080fd5b5061032e6104e43660046159e3565b6113b3565b3480156104f557600080fd5b506103757f000000000000000000000000000000000000000000000000000000000000000081565b34801561052957600080fd5b5061032e6105383660046159e3565b6113c9565b34801561054957600080fd5b50610375739ae380f0272e2162340a5bb646c354271c0f5cfc81565b34801561057157600080fd5b5061032e610580366004615a47565b6113e7565b34801561059157600080fd5b506103757f000000000000000000000000000000000000000000000000000000000000000081565b3480156105c557600080fd5b506105ce611a73565b6040516103389190615a91565b3480156105e757600080fd5b50610312611a7f565b3480156105fc57600080fd5b506103757f000000000000000000000000000000000000000000000000000000000000000081565b34801561063057600080fd5b5061032e611a93565b34801561064557600080fd5b5061064e611ab6565b6040516103389190615ade565b34801561066757600080fd5b506000546001600160a01b0316610375565b34801561068557600080fd5b50610312610694366004615ba1565b611bb7565b3480156106a557600080fd5b506103757f000000000000000000000000000000000000000000000000000000000000000081565b3480156106d957600080fd5b506103126106e83660046159e3565b611e35565b3480156106f957600080fd5b506007546107079060ff1681565b6040519015158152602001610338565b34801561072357600080fd5b506107076107323660046159e3565b612086565b34801561074357600080fd5b5061032e60025481565b34801561075957600080fd5b5061032e6107683660046159e3565b612093565b34801561077957600080fd5b50610312610788366004615960565b6120a0565b34801561079957600080fd5b506103756107a8366004615960565b612178565b3480156107b957600080fd5b506003546107079060ff1681565b3480156107d357600080fd5b5061032e612185565b3480156107e857600080fd5b50610707612199565b3480156107fd57600080fd5b5061032e6121b5565b34801561081257600080fd5b5061032e600d5481565b34801561082857600080fd5b506103126122e3565b34801561083d57600080fd5b5061031261084c3660046159e3565b6123cf565b34801561085d57600080fd5b5061031261086c366004615960565b612889565b34801561087d57600080fd5b5061032e612961565b34801561089257600080fd5b5061032e6108a13660046158de565b6129a4565b3480156108b257600080fd5b506103126108c13660046159e3565b6129b3565b3480156108d257600080fd5b506103126108e13660046159e3565b612a2c565b3480156108f257600080fd5b506103757f000000000000000000000000000000000000000000000000000000000000000081565b60006109266008613078565b905090565b60007f00000000000000000000000000000000000000000000000000000000000000006001600160a01b03166348439e7e6040518163ffffffff1660e01b8152600401602060405180830381865afa15801561098b573d6000803e3d6000fd5b505050506040513d601f19601f820116820180604052508101906109af9190615c6c565b604051630325d16160e01b8152600481018590523360248201526001600160a01b039190911690630325d16190604401600060405180830381600087803b1580156109f957600080fd5b505af1158015610a0d573d6000803e3d6000fd5b50505050610a1b8383611014565b90505b92915050565b60606000610a326008613078565b905060008167ffffffffffffffff811115610a4f57610a4f615b31565b604051908082528060200260200182016040528015610a9457816020015b6040805180820190915260008082526020820152815260200190600190039081610a6d5790505b50905060005b82811015610b0457600080610ab0600a84613082565b915091506040518060400160405280836001600160a01b0316815260200182815250848481518110610ae457610ae4615c89565b602002602001018190525050508080610afc90615cb5565b915050610a9a565b5092915050565b60006203f480600554610b1e9190615cce565b421115610b2d57610926612185565b5060065490565b610b3c6130a0565b662386f26fc10000811015610b8d5760405162461bcd60e51b81526020600482015260176024820152761a5b9d985b1a590819195c1959c81d1a1c995cda1bdb19604a1b6044820152606401610309565b67016345785d8a0000811115610bdf5760405162461bcd60e51b81526020600482015260176024820152761a5b9d985b1a590819195c1959c81d1a1c995cda1bdb19604a1b6044820152606401610309565b60048190556040518181527f20da4a1840e5e1bb25784e941f370e4db630545ed9434c8c0bad8e421480595b906020015b60405180910390a150565b600080606060007f00000000000000000000000000000000000000000000000000000000000000006001600160a01b0316632630c12f6040518163ffffffff1660e01b8152600401602060405180830381865afa158015610c80573d6000803e3d6000fd5b505050506040513d601f19601f82011682018060405250810190610ca49190615c6c565b604051638b2f0f4f60e01b81526001600160a01b037f0000000000000000000000000000000000000000000000000000000000000000811660048301529190911690638b2f0f4f90602401602060405180830381865afa158015610d0c573d6000803e3d6000fd5b505050506040513d601f19601f82011682018060405250810190610d309190615ce1565b9050610d3b816130fa565b93509350935050909192565b610d5081612086565b610d955760405162461bcd60e51b81526020600482015260166024820152751c1bdbdb081a5cc81b9bdd081c9959da5cdd195c995960521b6044820152606401610309565b610da0600a8261334c565b600003610de75760405162461bcd60e51b81526020600482015260156024820152740706f6f6c2077656967687420616c7265616479203605c1b6044820152606401610309565b610e107f0000000000000000000000000000000000000000000000000000000000000000613361565b15610e565760405162461bcd60e51b81526020600482015260166024820152751d5b99195c9b1e5a5b99c81a5cc819195c1959d9d95960521b6044820152606401610309565b60007f00000000000000000000000000000000000000000000000000000000000000006001600160a01b0316639f82b2176040518163ffffffff1660e01b8152600401602060405180830381865afa158015610eb6573d6000803e3d6000fd5b505050506040513d601f19601f82011682018060405250810190610eda9190615c6c565b604051631da958a960e21b81526001600160a01b03848116600483015291909116906376a562a490602401602060405180830381865afa158015610f22573d6000803e3d6000fd5b505050506040513d601f19601f82011682018060405250810190610f469190615c6c565b9050610f5181613361565b610f945760405162461bcd60e51b81526020600482015260146024820152731c1bdbdb081a5cc81b9bdd0819195c1959d9d95960621b6044820152606401610309565b610f9d826134d8565b6007805460ff191660011790556040516001600160a01b03831681527f7d90518f39c7f92fd9046bbb246d9c650dd159f73cca88aa7d919c89c040fa799060200160405180910390a15050565b6000610926610ff7612185565b61366a565b600061100a338585856113e7565b90505b9392505050565b6040516370a0823160e01b815233600482015260009083906001600160a01b037f000000000000000000000000000000000000000000000000000000000000000016906370a0823190602401602060405180830381865afa15801561107d573d6000803e3d6000fd5b505050506040513d601f19601f820116820180604052508101906110a19190615ce1565b10156110e65760405162461bcd60e51b8152602060048201526014602482015273696e73756666696369656e742062616c616e636560601b6044820152606401610309565b6040516370a0823160e01b81523060048201526000907f00000000000000000000000000000000000000000000000000000000000000006001600160a01b0316906370a0823190602401602060405180830381865afa15801561114d573d6000803e3d6000fd5b505050506040513d601f19601f820116820180604052508101906111719190615ce1565b90506000806000611180610c1b565b925092509250600061119b6111948561366a565b8990613717565b9050808510156111c05760006111b18683615cfa565b90506111be848483613739565b505b6040516370a0823160e01b8152306004820152600090611255906001600160a01b037f000000000000000000000000000000000000000000000000000000000000000016906370a0823190602401602060405180830381865afa15801561122b573d6000803e3d6000fd5b505050506040513d601f19601f8201168201806040525081019061124f9190615ce1565b836137d5565b90508781101561129b5760405162461bcd60e51b8152602060048201526011602482015270746f6f206d75636820736c69707061676560781b6044820152606401610309565b604051632770a7eb60e21b8152336004820152602481018a90527f00000000000000000000000000000000000000000000000000000000000000006001600160a01b031690639dc29fac906044016020604051808303816000875af1158015611308573d6000803e3d6000fd5b505050506040513d601f19601f8201168201806040525081019061132c9190615ce1565b506113616001600160a01b037f00000000000000000000000000000000000000000000000000000000000000001633836137eb565b61136b8186615cfa565b6006554260055560405181815233907f884edad9ce6fa2440d8a54cc123490eb96d2768479d49ff9c7366125a94243649060200160405180910390a298975050505050505050565b6000806113c1600a8461381b565b949350505050565b60006113d482613833565b6113dd8361398e565b610a1e9190615cce565b600061143f604051806101400160405280600081526020016000815260200160008152602001600081526020016000815260200160008152602001606081526020016000815260200160008152602001606081525090565b60035460ff16156114855760405162461bcd60e51b815260206004820152601060248201526f3837b7b61034b99039b43aba3237bbb760811b6044820152606401610309565b600085116114d55760405162461bcd60e51b815260206004820152601d60248201527f6465706f73697420616d6f756e742063616e6e6f74206265207a65726f0000006044820152606401610309565b60007f00000000000000000000000000000000000000000000000000000000000000006001600160a01b0316632630c12f6040518163ffffffff1660e01b8152600401602060405180830381865afa158015611535573d6000803e3d6000fd5b505050506040513d601f19601f820116820180604052508101906115599190615c6c565b604051638b2f0f4f60e01b81526001600160a01b037f0000000000000000000000000000000000000000000000000000000000000000811660048301529190911690638b2f0f4f90602401602060405180830381865afa1580156115c1573d6000803e3d6000fd5b505050506040513d601f19601f820116820180604052508101906115e59190615ce1565b90506115f0816130fa565b60c085015260a08401526080830181905261160a9061366a565b82526116416001600160a01b037f000000000000000000000000000000000000000000000000000000000000000016333089613a42565b60a082015160c08301516040516370a0823160e01b81523060048201526116de9291906001600160a01b037f000000000000000000000000000000000000000000000000000000000000000016906370a0823190602401602060405180830381865afa1580156116b5573d6000803e3d6000fd5b505050506040513d601f19601f820116820180604052508101906116d99190615ce1565b613a80565b6116e7816130fa565b61012085015261010084015260e08301819052608083015161170891615cfa565b6020830181905261171a9087906137d5565b60408301819052825161172d9190613b31565b606083018190528511156117775760405162461bcd60e51b8152602060048201526011602482015270746f6f206d75636820736c69707061676560781b6044820152606401610309565b83156119515760608201516040516340c10f1960e01b815230600482015260248101919091527f00000000000000000000000000000000000000000000000000000000000000006001600160a01b0316906340c10f19906044016020604051808303816000875af11580156117f0573d6000803e3d6000fd5b505050506040513d601f19601f820116820180604052508101906118149190615ce1565b5060007f00000000000000000000000000000000000000000000000000000000000000006001600160a01b03166348439e7e6040518163ffffffff1660e01b8152600401602060405180830381865afa158015611875573d6000803e3d6000fd5b505050506040513d601f19601f820116820180604052508101906118999190615c6c565b90506118dd8184606001517f00000000000000000000000000000000000000000000000000000000000000006001600160a01b0316612f1c9092919063ffffffff16565b60608301516040516333f1c33760e01b815260048101919091523060248201526001600160a01b0389811660448301528216906333f1c33790606401600060405180830381600087803b15801561193357600080fd5b505af1158015611947573d6000803e3d6000fd5b50505050506119ee565b60608201516040516340c10f1960e01b81526001600160a01b03898116600483015260248201929092527f0000000000000000000000000000000000000000000000000000000000000000909116906340c10f19906044016020604051808303816000875af11580156119c8573d6000803e3d6000fd5b505050506040513d601f19601f820116820180604052508101906119ec9190615ce1565b505b611a0d878360a001518460c00151856101000151866101200151613b4a565b60e08201516006554260055560608201516040805188815260208101929092526001600160a01b0389169133917fdcbc1c05240f31ff3ad067ef1ee35ce4997762752e3a095284754544f4c709d7910160405180910390a3506060015195945050505050565b60606109266008613c82565b611a876130a0565b611a916000613c8f565b565b6000806000611aa0610c1b565b9250925050611aaf8282613cdf565b9250505090565b60606000611ac46008613078565b67ffffffffffffffff811115611adc57611adc615b31565b604051908082528060200260200182016040528015611b2157816020015b6040805180820190915260008082526020820152815260200190600190039081611afa5790505b5090506000611b2e610c1b565b9250505060005b8251811015611baf576040805180820190915280611b54600884613d6b565b6001600160a01b03168152602001838381518110611b7457611b74615c89565b6020026020010151815250838281518110611b9157611b91615c89565b60200260200101819052508080611ba790615cb5565b915050611b35565b509092915050565b336001600160a01b037f00000000000000000000000000000000000000000000000000000000000000001614611c205760405162461bcd60e51b815260206004820152600e60248201526d1b9bdd08185d5d1a1bdc9a5e995960921b6044820152606401610309565b611c2a6008613078565b815114611c705760405162461bcd60e51b8152602060048201526014602482015273696e76616c696420706f6f6c207765696768747360601b6044820152606401610309565b6000805b8251811015611d8a576000838281518110611c9157611c91615c89565b6020026020010151600001519050611ca881612086565b611ced5760405162461bcd60e51b81526020600482015260166024820152751c1bdbdb081a5cc81b9bdd081c9959da5cdd195c995960521b6044820152606401610309565b6000848381518110611d0157611d01615c89565b6020026020010151602001519050611d258282600a613d779092919063ffffffff16565b50816001600160a01b03167f49175c3467edeba7662e939bf84305eaf5084072855b0560f6ac3e145cd172ae82604051611d6191815260200190565b60405180910390a2611d738185615cce565b935050508080611d8290615cb5565b915050611c74565b50611d976012600a615de9565b8114611de55760405162461bcd60e51b815260206004820152601760248201527f7765696768747320646f206e6f742073756d20746f20310000000000000000006044820152606401610309565b6000806000611df2610c1b565b9250925092506000611e048483613cdf565b600d8190559050611e158284613d8d565b6007805460ff19169115919091179055611e2d614030565b505050505050565b611e3e81612086565b611e8a5760405162461bcd60e51b815260206004820152601960248201527f637572766520706f6f6c206e6f742072656769737465726564000000000000006044820152606401610309565b60007f00000000000000000000000000000000000000000000000000000000000000006001600160a01b0316639f82b2176040518163ffffffff1660e01b8152600401602060405180830381865afa158015611eea573d6000803e3d6000fd5b505050506040513d601f19601f82011682018060405250810190611f0e9190615c6c565b6040516343b55f3560e01b81526001600160a01b0384811660048301529192506000918316906343b55f3590602401602060405180830381865afa158015611f5a573d6000803e3d6000fd5b505050506040513d601f19601f82011682018060405250810190611f7e9190615ce1565b604051631cec69e560e11b8152600481018290529091506001600160a01b038316906339d8d3ca90602401602060405180830381865afa158015611fc6573d6000803e3d6000fd5b505050506040513d601f19601f82011682018060405250810190611fea9190615df5565b6120365760405162461bcd60e51b815260206004820152601b60248201527f636f6e76657820706f6f6c207069642069732073687574646f776e00000000006044820152606401610309565b61203f836134d8565b604080516001600160a01b0385168152602081018390527fb6e3324444a482d3e4041851d767063381c41cd9abc8a3191a0b61e3896f9443910160405180910390a1505050565b6000610a1e60088361431a565b6000610a1e600a8361334c565b6120a86130a0565b80600254036120eb5760405162461bcd60e51b815260206004820152600f60248201526e1cd85b5948185cc818dd5c9c995b9d608a1b6044820152606401610309565b6702c68af0bb1400008111156121435760405162461bcd60e51b815260206004820152601960248201527f726174696f206578636565647320757070657220626f756e64000000000000006044820152606401610309565b60028190556040518181527fcf75d305993755a06325155bdff6a203ff5eb28a3561e219588aeb6aba8b3b5490602001610c10565b6000610a1e600883613d6b565b600080612190610c1b565b50909392505050565b60008060006121a6610c1b565b9250925050611aaf8183613d8d565b6000807f00000000000000000000000000000000000000000000000000000000000000006001600160a01b0316632630c12f6040518163ffffffff1660e01b8152600401602060405180830381865afa158015612216573d6000803e3d6000fd5b505050506040513d601f19601f8201168201806040525081019061223a9190615c6c565b604051638b2f0f4f60e01b81526001600160a01b037f0000000000000000000000000000000000000000000000000000000000000000811660048301529190911690638b2f0f4f90602401602060405180830381865afa1580156122a2573d6000803e3d6000fd5b505050506040513d601f19601f820116820180604052508101906122c69190615ce1565b90506122dd816122d760065461366a565b90613717565b91505090565b336001600160a01b037f0000000000000000000000000000000000000000000000000000000000000000161461234c5760405162461bcd60e51b815260206004820152600e60248201526d1b9bdd08185d5d1a1bdc9a5e995960921b6044820152606401610309565b60035460ff16156123975760405162461bcd60e51b81526020600482015260156024820152743837b7b61030b63932b0b23c9039b43aba3237bbb760591b6044820152606401610309565b6003805460ff191660011790556040517f4426aa1fb73e391071491fcfe21a88b5c38a0a0333a1f6e77161470439704cf890600090a1565b6123d76130a0565b6123e260088261431a565b61241f5760405162461bcd60e51b815260206004820152600e60248201526d1c1bdbdb081b9bdd08185919195960921b6044820152606401610309565b600161242b6008613078565b116124785760405162461bcd60e51b815260206004820152601760248201527f63616e6e6f742072656d6f7665206c61737420706f6f6c0000000000000000006044820152606401610309565b60007f00000000000000000000000000000000000000000000000000000000000000006001600160a01b0316639f82b2176040518163ffffffff1660e01b8152600401602060405180830381865afa1580156124d8573d6000803e3d6000fd5b505050506040513d601f19601f820116820180604052508101906124fc9190615c6c565b604051631da958a960e21b81526001600160a01b03848116600483015291909116906376a562a490602401602060405180830381865afa158015612544573d6000803e3d6000fd5b505050506040513d601f19601f820116820180604052508101906125689190615c6c565b905060007f00000000000000000000000000000000000000000000000000000000000000006001600160a01b0316632630c12f6040518163ffffffff1660e01b8152600401602060405180830381865afa1580156125ca573d6000803e3d6000fd5b505050506040513d601f19601f820116820180604052508101906125ee9190615c6c565b604051638b2f0f4f60e01b81526001600160a01b0384811660048301529190911690638b2f0f4f90602401602060405180830381865afa158015612636573d6000803e3d6000fd5b505050506040513d601f19601f8201168201806040525081019061265a9190615ce1565b9050600061266b826122d7866113c9565b905068056bc75e2d6310000081106126c55760405162461bcd60e51b815260206004820152601860248201527f706f6f6c2068617320616c6c6f63617465642066756e647300000000000000006044820152606401610309565b60006126d2600a8661334c565b905061276b7f00000000000000000000000000000000000000000000000000000000000000006001600160a01b0316632cdacb506040518163ffffffff1660e01b8152600401602060405180830381865afa158015612735573d6000803e3d6000fd5b505050506040513d601f19601f820116820180604052508101906127599190615c6c565b6001600160a01b038616906000612f1c565b80156127af5760405162461bcd60e51b81526020600482015260136024820152721c1bdbdb081a185cc81dd95a59da1d081cd95d606a1b6044820152606401610309565b6127ba60088661433c565b6127f95760405162461bcd60e51b815260206004820152601060248201526f1c1bdbdb081b9bdd081c995b5bdd995960821b6044820152606401610309565b612804600a86614351565b6128455760405162461bcd60e51b81526020600482015260126024820152711dd95a59da1d081b9bdd081c995b5bdd995960721b6044820152606401610309565b6040516001600160a01b03861681527fca2456580e344539a90d4d0369fc77866a3135141e2e51621b88d2f010c6bbe2906020015b60405180910390a15050505050565b6128916130a0565b80600154036128d45760405162461bcd60e51b815260206004820152600f60248201526e1cd85b5948185cc818dd5c9c995b9d608a1b6044820152606401610309565b6702c68af0bb14000081111561292c5760405162461bcd60e51b815260206004820152601d60248201527f646576696174696f6e206578636565647320757070657220626f756e640000006044820152606401610309565b60018190556040518181527f3f9ef5ed5d378ef819698e4b3c710d362f981f90087b428b7a1ee1e716d689d590602001610c10565b600080600061296e610c1b565b9250925050816000036129845760009250505090565b60006129908383613cdf565b905061299c8184613b31565b935050505090565b6000610a1b33848460016113e7565b6129bb6130a0565b6001600160a01b038116612a205760405162461bcd60e51b815260206004820152602660248201527f4f776e61626c653a206e6577206f776e657220697320746865207a65726f206160448201526564647265737360d01b6064820152608401610309565b612a2981613c8f565b50565b612a346130a0565b612a3f60088261431a565b15612a815760405162461bcd60e51b81526020600482015260126024820152711c1bdbdb08185b1c9958591e48185919195960721b6044820152606401610309565b60007f00000000000000000000000000000000000000000000000000000000000000006001600160a01b0316639f82b2176040518163ffffffff1660e01b8152600401602060405180830381865afa158015612ae1573d6000803e3d6000fd5b505050506040513d601f19601f82011682018060405250810190612b059190615c6c565b60405163f7d372f160e01b81526001600160a01b0384811660048301529192509082169063f7d372f190602401600060405180830381600087803b158015612b4c57600080fd5b505af1158015612b60573d6000803e3d6000fd5b505060405163effd708160e01b81526001600160a01b0385811660048301527f000000000000000000000000000000000000000000000000000000000000000081166024830152600093508416915063effd708190604401602060405180830381865afa158015612bd5573d6000803e3d6000fd5b505050506040513d601f19601f82011682018060405250810190612bf99190615df5565b905080612c3b5760405162461bcd60e51b815260206004820152601060248201526f18dbda5b881b9bdd081a5b881c1bdbdb60821b6044820152606401610309565b604051631da958a960e21b81526001600160a01b038481166004830152600091908416906376a562a490602401602060405180830381865afa158015612c85573d6000803e3d6000fd5b505050506040513d601f19601f82011682018060405250810190612ca99190615c6c565b90507f00000000000000000000000000000000000000000000000000000000000000006001600160a01b0316632630c12f6040518163ffffffff1660e01b8152600401602060405180830381865afa158015612d09573d6000803e3d6000fd5b505050506040513d601f19601f82011682018060405250810190612d2d9190615c6c565b6040516375151b6360e01b81526001600160a01b03838116600483015291909116906375151b6390602401602060405180830381865afa158015612d75573d6000803e3d6000fd5b505050506040513d601f19601f82011682018060405250810190612d999190615df5565b612ddd5760405162461bcd60e51b815260206004820152601560248201527431b0b73737ba10383934b1b2902628102a37b5b2b760591b6044820152606401610309565b60007f00000000000000000000000000000000000000000000000000000000000000006001600160a01b0316632cdacb506040518163ffffffff1660e01b8152600401602060405180830381865afa158015612e3d573d6000803e3d6000fd5b505050506040513d601f19601f82011682018060405250810190612e619190615c6c565b9050612e796001600160a01b03831682600019612f1c565b612e84600a86614366565b612e9757612e95600a866000613d77565b505b612ea260088661437b565b612ee35760405162461bcd60e51b815260206004820152601260248201527119985a5b1959081d1bc8185919081c1bdbdb60721b6044820152606401610309565b6040516001600160a01b03861681527fbadad752e47b51d72487f7881b9baa7c0ed207b8d84f37c0e23eb0a6d67e5b159060200161287a565b801580612f965750604051636eb1769f60e11b81523060048201526001600160a01b03838116602483015284169063dd62ed3e90604401602060405180830381865afa158015612f70573d6000803e3d6000fd5b505050506040513d601f19601f82011682018060405250810190612f949190615ce1565b155b6130015760405162461bcd60e51b815260206004820152603660248201527f5361666545524332303a20617070726f76652066726f6d206e6f6e2d7a65726f60448201527520746f206e6f6e2d7a65726f20616c6c6f77616e636560501b6064820152608401610309565b6040516001600160a01b03831660248201526044810182905261306490849063095ea7b360e01b906064015b60408051601f198184030181529190526020810180516001600160e01b03166001600160e01b031990931692909217909152614390565b505050565b606061100a8484600085614462565b6000610a1e825490565b6000808080613091868661453d565b909450925050505b9250929050565b6000546001600160a01b03163314611a915760405162461bcd60e51b815260206004820181905260248201527f4f776e61626c653a2063616c6c6572206973206e6f7420746865206f776e65726044820152606401610309565b6000806060600061310b6008613078565b90508067ffffffffffffffff81111561312657613126615b31565b60405190808252806020026020018201604052801561314f578160200160208202803683370190505b50915060005b818110156132af57600061316a600883613d6b565b9050600061326e7f00000000000000000000000000000000000000000000000000000000000000006001600160a01b0316639f82b2176040518163ffffffff1660e01b8152600401602060405180830381865afa1580156131cf573d6000803e3d6000fd5b505050506040513d601f19601f820116820180604052508101906131f39190615c6c565b604051631da958a960e21b81526001600160a01b03858116600483015291909116906376a562a490602401602060405180830381865afa15801561323b573d6000803e3d6000fd5b505050506040513d601f19601f8201168201806040525081019061325f9190615c6c565b613268846113c9565b8a614568565b90508085848151811061328357613283615c89565b60209081029190910101526132988187615cce565b9550505080806132a790615cb5565b915050613155565b506040516370a0823160e01b81523060048201527f00000000000000000000000000000000000000000000000000000000000000006001600160a01b0316906370a0823190602401602060405180830381865afa158015613314573d6000803e3d6000fd5b505050506040513d601f19601f820116820180604052508101906133389190615ce1565b6133429084615cce565b9350509193909250565b6000610a1b836001600160a01b0384166146ed565b6004546000906001600160a01b037f00000000000000000000000000000000000000000000000000000000000000008116908416036133a8576133a5600282615e12565b90505b6001600160a01b038084166000908152600e60209081526040808320548151632630c12f60e01b8152915190947f00000000000000000000000000000000000000000000000000000000000000001692632630c12f92600480820193918290030181865afa15801561341e573d6000803e3d6000fd5b505050506040513d601f19601f820116820180604052508101906134429190615c6c565b604051638b2f0f4f60e01b81526001600160a01b0387811660048301529190911690638b2f0f4f90602401602060405180830381865afa15801561348a573d6000803e3d6000fd5b505050506040513d601f19601f820116820180604052508101906134ae9190615ce1565b905060006134bc838361475d565b905060006134ca8285613b31565b949094119695505050505050565b60006134e5600a8361334c565b9050806000036134f3575050565b6134ff6012600a615de9565b81036135465760405162461bcd60e51b815260206004820152601660248201527518d85b89dd081c995b5bdd99481b185cdd081c1bdbdb60521b6044820152606401610309565b600061357e613556600a8561334c565b6135626012600a615de9565b61356c9190615cfa565b6135786012600a615de9565b90613b31565b9050600061358c6008613078565b905060005b818110156136415760006135a6600883613d6b565b90506000866001600160a01b0316826001600160a01b0316146135d7576135d2856122d7600a8561334c565b6135da565b60005b90506135e8600a8383613d77565b50816001600160a01b03167f49175c3467edeba7662e939bf84305eaf5084072855b0560f6ac3e145cd172ae8260405161362491815260200190565b60405180910390a25050808061363990615cb5565b915050613591565b5060008061364d610c1b565b9250509150600061365e8383613cdf565b600d5550505050505050565b6000807f00000000000000000000000000000000000000000000000000000000000000006001600160a01b03166318160ddd6040518163ffffffff1660e01b8152600401602060405180830381865afa1580156136cb573d6000803e3d6000fd5b505050506040513d601f19601f820116820180604052508101906136ef9190615ce1565b90508015806136fc575082155b1561370d5761100d6012600a615de9565b61100d8382613b31565b60006137256012600a615de9565b61372f8385615e12565b610a1b9190615e29565b8060006137468286615cfa565b9050600061375385614775565b90505b8215611e2d576000806137698484614814565b9092509050600061377b600884613d6b565b9050600061378987846137d5565b90506137958282614b2a565b61379f8188615cfa565b9650808585815181106137b4576137b4615c89565b602002602001018181516137c89190615cfa565b9052506137569350505050565b60008183106137e45781610a1b565b5090919050565b6040516001600160a01b03831660248201526044810182905261306490849063a9059cbb60e01b9060640161302d565b6000808080613091866001600160a01b038716614f12565b60007f00000000000000000000000000000000000000000000000000000000000000006001600160a01b0316639f82b2176040518163ffffffff1660e01b8152600401602060405180830381865afa158015613893573d6000803e3d6000fd5b505050506040513d601f19601f820116820180604052508101906138b79190615c6c565b604051631da958a960e21b81526001600160a01b03848116600483015291909116906376a562a4906024015b602060405180830381865afa158015613900573d6000803e3d6000fd5b505050506040513d601f19601f820116820180604052508101906139249190615c6c565b6040516370a0823160e01b81523060048201526001600160a01b0391909116906370a0823190602401602060405180830381865afa15801561396a573d6000803e3d6000fd5b505050506040513d601f19601f82011682018060405250810190610a1e9190615ce1565b60007f00000000000000000000000000000000000000000000000000000000000000006001600160a01b031663b050ecb86040518163ffffffff1660e01b8152600401602060405180830381865afa1580156139ee573d6000803e3d6000fd5b505050506040513d601f19601f82011682018060405250810190613a129190615c6c565b60405163514a900960e01b81526001600160a01b038481166004830152919091169063514a9009906024016138e3565b6040516001600160a01b0380851660248301528316604482015260648101829052613a7a9085906323b872dd60e01b9060840161302d565b50505050565b806000613a8d8286615cce565b90506000613a9a85614775565b90505b8215611e2d57600080613ab08484614f54565b9092509050613ac0816064615cce565b851015613aca5750835b6000613ad7600884613d6b565b90506000613ae587846137d5565b9050613af1828261506e565b613afb8188615cfa565b965080858581518110613b1057613b10615c89565b60200260200101818151613b249190615cce565b905250613a9d9350505050565b600081613b406012600a615de9565b61372f9085615e12565b60075460ff1615613c7b576000613b618585613cdf565b90506000613b6f8484613cdf565b90507f00000000000000000000000000000000000000000000000000000000000000006001600160a01b031663dbcd89fa6040518163ffffffff1660e01b8152600401602060405180830381865afa158015613bcf573d6000803e3d6000fd5b505050506040513d601f19601f82011682018060405250810190613bf39190615c6c565b604051630a48af5f60e11b81526001600160a01b038981166004830152602482018590526044820184905291909116906314915ebe90606401600060405180830381600087803b158015613c4657600080fd5b505af1158015613c5a573d6000803e3d6000fd5b50505050613c688385613d8d565b15613c78576007805460ff191690555b50505b5050505050565b6060600061100d83615231565b600080546001600160a01b038381166001600160a01b0319831681178455604051919092169283917f8be0079c531659141344cd1fd0a4f28419497f9722a3daafe3b4186f6b6457e09190a35050565b60008060005b8351811015613d63576000613d06613cfe600884613d6b565b600a9061334c565b90506000613d148783613717565b9050613d42868481518110613d2b57613d2b615c89565b60200260200101518261475d90919063ffffffff16565b613d4c9085615cce565b935050508080613d5b90615cb5565b915050613ce5565b509392505050565b6000610a1b838361528d565b600061100a846001600160a01b038516846152b7565b600081600003613d9f57506001610a1e565b60005b8351811015614026576000613dbb613cfe600884613d6b565b90506000858381518110613dd157613dd1615c89565b6020026020010151905081600003613fcb5760007f00000000000000000000000000000000000000000000000000000000000000006001600160a01b0316632630c12f6040518163ffffffff1660e01b8152600401602060405180830381865afa158015613e43573d6000803e3d6000fd5b505050506040513d601f19601f82011682018060405250810190613e679190615c6c565b604051638b2f0f4f60e01b81526001600160a01b037f0000000000000000000000000000000000000000000000000000000000000000811660048301529190911690638b2f0f4f90602401602060405180830381865afa158015613ecf573d6000803e3d6000fd5b505050506040513d601f19601f82011682018060405250810190613ef39190615ce1565b905060007f00000000000000000000000000000000000000000000000000000000000000006001600160a01b031663313ce5676040518163ffffffff1660e01b8152600401602060405180830381865afa158015613f55573d6000803e3d6000fd5b505050506040513d601f19601f82011682018060405250810190613f799190615e4b565b613f8490600a615e6e565b613f8e8484615e12565b613f989190615e29565b9050613fae600268056bc75e2d63100000615e29565b8110613fc257600095505050505050610a1e565b50505050614014565b6000613fd78684613717565b90506000613fe5828461475d565b90506000613ff38284613b31565b905060015481111561400e5760009650505050505050610a1e565b50505050505b8061401e81615cb5565b915050613da2565b5060019392505050565b600061403c6008613078565b905060007f00000000000000000000000000000000000000000000000000000000000000006001600160a01b0316632630c12f6040518163ffffffff1660e01b8152600401602060405180830381865afa15801561409e573d6000803e3d6000fd5b505050506040513d601f19601f820116820180604052508101906140c29190615c6c565b905060005b8281101561426e5760007f00000000000000000000000000000000000000000000000000000000000000006001600160a01b0316639f82b2176040518163ffffffff1660e01b8152600401602060405180830381865afa15801561412f573d6000803e3d6000fd5b505050506040513d601f19601f820116820180604052508101906141539190615c6c565b6001600160a01b03166376a562a461416c600885613d6b565b6040516001600160e01b031960e084901b1681526001600160a01b039091166004820152602401602060405180830381865afa1580156141b0573d6000803e3d6000fd5b505050506040513d601f19601f820116820180604052508101906141d49190615c6c565b604051638b2f0f4f60e01b81526001600160a01b03808316600483015291925090841690638b2f0f4f90602401602060405180830381865afa15801561421e573d6000803e3d6000fd5b505050506040513d601f19601f820116820180604052508101906142429190615ce1565b6001600160a01b039091166000908152600e60205260409020558061426681615cb5565b9150506140c7565b50604051638b2f0f4f60e01b81526001600160a01b037f000000000000000000000000000000000000000000000000000000000000000081811660048401529190831690638b2f0f4f90602401602060405180830381865afa1580156142d8573d6000803e3d6000fd5b505050506040513d601f19601f820116820180604052508101906142fc9190615ce1565b6001600160a01b039091166000908152600e60205260409020555050565b6001600160a01b03811660009081526001830160205260408120541515610a1b565b6000610a1b836001600160a01b0384166152d4565b6000610a1b836001600160a01b0384166153c7565b6000610a1b836001600160a01b0384166153e4565b6000610a1b836001600160a01b0384166153f0565b60006143e5826040518060400160405280602081526020017f5361666545524332303a206c6f772d6c6576656c2063616c6c206661696c6564815250856001600160a01b03166130699092919063ffffffff16565b80519091501561306457808060200190518101906144039190615df5565b6130645760405162461bcd60e51b815260206004820152602a60248201527f5361666545524332303a204552433230206f7065726174696f6e20646964206e6044820152691bdd081cdd58d8d9595960b21b6064820152608401610309565b6060824710156144c35760405162461bcd60e51b815260206004820152602660248201527f416464726573733a20696e73756666696369656e742062616c616e636520666f6044820152651c8818d85b1b60d21b6064820152608401610309565b600080866001600160a01b031685876040516144df9190615ea1565b60006040518083038185875af1925050503d806000811461451c576040519150601f19603f3d011682016040523d82523d6000602084013e614521565b606091505b50915091506145328783838761543f565b979650505050505050565b6000808061454b8585613d6b565b600081815260029690960160205260409095205494959350505050565b600061100a60127f00000000000000000000000000000000000000000000000000000000000000006001600160a01b031663313ce5676040518163ffffffff1660e01b8152600401602060405180830381865afa1580156145cd573d6000803e3d6000fd5b505050506040513d601f19601f820116820180604052508101906145f19190615e4b565b6146e6856135787f00000000000000000000000000000000000000000000000000000000000000006001600160a01b0316632630c12f6040518163ffffffff1660e01b8152600401602060405180830381865afa158015614656573d6000803e3d6000fd5b505050506040513d601f19601f8201168201806040525081019061467a9190615c6c565b604051638b2f0f4f60e01b81526001600160a01b038c811660048301529190911690638b2f0f4f90602401602060405180830381865afa1580156146c2573d6000803e3d6000fd5b505050506040513d601f19601f820116820180604052508101906111949190615ce1565b91906154b8565b600081815260028301602052604081205480151580614711575061471184846153e4565b610a1b5760405162461bcd60e51b815260206004820152601e60248201527f456e756d657261626c654d61703a206e6f6e6578697374656e74206b657900006044820152606401610309565b60008183101561476f57828203610a1b565b50900390565b60606000825167ffffffffffffffff81111561479357614793615b31565b6040519080825280602002602001820160405280156147bc578160200160208202803683370190505b50905060005b8351811015610b04578381815181106147dd576147dd615c89565b60200260200101518282815181106147f7576147f7615c89565b60209081029190910101528061480c81615cb5565b9150506147c2565b80516000908190600019825b82811015614ace576000614835600883613d6b565b90506000614844600a8361334c565b9050600088848151811061485a5761485a615c89565b6020026020010151905081600003614a515760007f00000000000000000000000000000000000000000000000000000000000000006001600160a01b0316632630c12f6040518163ffffffff1660e01b8152600401602060405180830381865afa1580156148cc573d6000803e3d6000fd5b505050506040513d601f19601f820116820180604052508101906148f09190615c6c565b604051638b2f0f4f60e01b81526001600160a01b037f0000000000000000000000000000000000000000000000000000000000000000811660048301529190911690638b2f0f4f90602401602060405180830381865afa158015614958573d6000803e3d6000fd5b505050506040513d601f19601f8201168201806040525081019061497c9190615ce1565b905060007f00000000000000000000000000000000000000000000000000000000000000006001600160a01b031663313ce5676040518163ffffffff1660e01b8152600401602060405180830381865afa1580156149de573d6000803e3d6000fd5b505050506040513d601f19601f82011682018060405250810190614a029190615e4b565b614a0d90600a615e6e565b614a178484615e12565b614a219190615e29565b9050614a37600268056bc75e2d63100000615e29565b8110614a4e57509397509550613099945050505050565b50505b6000614a5d8b84613717565b9050808211614a6f5750505050614abc565b6000614a83614a7c6154f9565b8390613717565b614a8d9083615cfa565b90506000614a9b8285615cfa565b9050898111614aaf57505050505050614abc565b8099508697505050505050505b80614ac681615cb5565b915050614820565b506000198113614b205760405162461bcd60e51b815260206004820152601e60248201527f6572726f722072657472696576696e6720776974686472617720706f6f6c00006044820152606401610309565b9250509250929050565b60007f00000000000000000000000000000000000000000000000000000000000000006001600160a01b0316639f82b2176040518163ffffffff1660e01b8152600401602060405180830381865afa158015614b8a573d6000803e3d6000fd5b505050506040513d601f19601f82011682018060405250810190614bae9190615c6c565b604051631da958a960e21b81526001600160a01b0385811660048301529192506000918316906376a562a490602401602060405180830381865afa158015614bfa573d6000803e3d6000fd5b505050506040513d601f19601f82011682018060405250810190614c1e9190615c6c565b90506000614c2c8285615513565b905080600003614c3d575050505050565b6000614c4886613833565b60405163514a900960e01b81526001600160a01b03888116600483015291925060009186169063514a900990602401602060405180830381865afa158015614c94573d6000803e3d6000fd5b505050506040513d601f19601f82011682018060405250810190614cb89190615c6c565b6040516370a0823160e01b81523060048201529091506000906001600160a01b038316906370a0823190602401602060405180830381865afa158015614d02573d6000803e3d6000fd5b505050506040513d601f19601f82011682018060405250810190614d269190615ce1565b90506000614d348285615cce565b905084811015614d42578094505b83851115614e3357614e3189614d588688615cfa565b6040516001600160a01b039092166024830152604482015260640160408051601f19818403018152918152602080830180516001600160e01b031663f3fef3a360e01b179052815163160a1d9760e31b815291516001600160a01b037f0000000000000000000000000000000000000000000000000000000000000000169263b050ecb89260048083019391928290030181865afa158015614dfe573d6000803e3d6000fd5b505050506040513d601f19601f82011682018060405250810190614e229190615c6c565b6001600160a01b0316906157a5565b505b6040516001600160a01b03808b1660248301527f000000000000000000000000000000000000000000000000000000000000000016604482015260648101869052614f069060840160408051601f19818403018152918152602080830180516001600160e01b0316636ce5768960e11b1790528151635a99191760e01b815291516001600160a01b037f00000000000000000000000000000000000000000000000000000000000000001692635a9919179260048083019391928290030181865afa158015614dfe573d6000803e3d6000fd5b50505050505050505050565b6000818152600283016020526040812054819080614f4157614f3485856153e4565b9250600091506130999050565b600192509050613099565b509250929050565b80516000908190600019825b8281101561501c576000614f75600883613d6b565b90506000878381518110614f8b57614f8b615c89565b602002602001015190506000614fb5614fae84600a61334c90919063ffffffff16565b8b90613717565b9050808210614fc65750505061500a565b6000614fd3614a7c6154f9565b614fdd9083615cce565b90506000614feb8483615cfa565b9050888111614ffe57505050505061500a565b80985085965050505050505b8061501481615cb5565b915050614f60565b506000198113614b205760405162461bcd60e51b815260206004820152601d60248201527f6572726f722072657472696576696e67206465706f73697420706f6f6c0000006044820152606401610309565b8060000361507a575050565b6040516001600160a01b0380841660248301527f00000000000000000000000000000000000000000000000000000000000000001660448201526064810182905261514d9060840160408051601f19818403018152918152602080830180516001600160e01b0316638340f54960e01b1790528151635a99191760e01b815291516001600160a01b037f00000000000000000000000000000000000000000000000000000000000000001692635a9919179260048083019391928290030181865afa158015614dfe573d6000803e3d6000fd5b50600061515983613833565b90506000816151678561398e565b6151719190615cce565b6002549091506151818383613b31565b10613a7a576040516001600160a01b038516602482015260448101839052613c7b9060640160408051601f19818403018152918152602080830180516001600160e01b03166311f9fbc960e21b179052815163160a1d9760e31b815291516001600160a01b037f0000000000000000000000000000000000000000000000000000000000000000169263b050ecb89260048083019391928290030181865afa158015614dfe573d6000803e3d6000fd5b60608160000180548060200260200160405190810160405280929190818152602001828054801561528157602002820191906000526020600020905b81548152602001906001019080831161526d575b50505050509050919050565b60008260000182815481106152a4576152a4615c89565b9060005260206000200154905092915050565b6000828152600284016020526040812082905561100a84846157ca565b600081815260018301602052604081205480156153bd5760006152f8600183615cfa565b855490915060009061530c90600190615cfa565b905081811461537157600086600001828154811061532c5761532c615c89565b906000526020600020015490508087600001848154811061534f5761534f615c89565b6000918252602080832090910192909255918252600188019052604090208390555b855486908061538257615382615ebd565b600190038181906000526020600020016000905590558560010160008681526020019081526020016000206000905560019350505050610a1e565b6000915050610a1e565b60008181526002830160205260408120819055610a1b83836157d6565b6000610a1b83836157e2565b600081815260018301602052604081205461543757508154600181810184556000848152602080822090930184905584548482528286019093526040902091909155610a1e565b506000610a1e565b606083156154ae5782516000036154a7576001600160a01b0385163b6154a75760405162461bcd60e51b815260206004820152601d60248201527f416464726573733a2063616c6c20746f206e6f6e2d636f6e74726163740000006044820152606401610309565b50816113c1565b6113c183836157fa565b60008160ff168360ff16036154ce57508261100d565b8160ff168360ff1611156154ee576154e7848484615824565b905061100d565b61100a848484615845565b60075460009060ff1661550d575060015490565b50600090565b6000610a1b7f00000000000000000000000000000000000000000000000000000000000000006001600160a01b031663313ce5676040518163ffffffff1660e01b8152600401602060405180830381865afa158015615576573d6000803e3d6000fd5b505050506040513d601f19601f8201168201806040525081019061559a9190615e4b565b60126146e67f00000000000000000000000000000000000000000000000000000000000000006001600160a01b0316632630c12f6040518163ffffffff1660e01b8152600401602060405180830381865afa1580156155fd573d6000803e3d6000fd5b505050506040513d601f19601f820116820180604052508101906156219190615c6c565b604051638b2f0f4f60e01b81526001600160a01b0389811660048301529190911690638b2f0f4f90602401602060405180830381865afa158015615669573d6000803e3d6000fd5b505050506040513d601f19601f8201168201806040525081019061568d9190615ce1565b6135787f00000000000000000000000000000000000000000000000000000000000000006001600160a01b0316632630c12f6040518163ffffffff1660e01b8152600401602060405180830381865afa1580156156ee573d6000803e3d6000fd5b505050506040513d601f19601f820116820180604052508101906157129190615c6c565b604051638b2f0f4f60e01b81526001600160a01b037f0000000000000000000000000000000000000000000000000000000000000000811660048301529190911690638b2f0f4f90602401602060405180830381865afa15801561577a573d6000803e3d6000fd5b505050506040513d601f19601f8201168201806040525081019061579e9190615ce1565b8890613717565b6060610a1b8383604051806060016040528060278152602001615f2060279139615866565b6000610a1b83836153f0565b6000610a1b83836152d4565b60008181526001830160205260408120541515610a1b565b81511561580a5781518083602001fd5b8060405162461bcd60e51b81526004016103099190615ed3565b60006158308284615f06565b61583b90600a615e6e565b61100a9085615e29565b60006158518383615f06565b61585c90600a615e6e565b61100a9085615e12565b6060600080856001600160a01b0316856040516158839190615ea1565b600060405180830381855af49150503d80600081146158be576040519150601f19603f3d011682016040523d82523d6000602084013e6158c3565b606091505b50915091506158d48683838761543f565b9695505050505050565b600080604083850312156158f157600080fd5b50508035926020909101359150565b602080825282518282018190526000919060409081850190868401855b828110156159535761594384835180516001600160a01b03168252602090810151910152565b928401929085019060010161591d565b5091979650505050505050565b60006020828403121561597257600080fd5b5035919050565b6000606082018583526020858185015260606040850152818551808452608086019150828701935060005b818110156159c0578451835293830193918301916001016159a4565b509098975050505050505050565b6001600160a01b0381168114612a2957600080fd5b6000602082840312156159f557600080fd5b8135610a1b816159ce565b8015158114612a2957600080fd5b600080600060608486031215615a2357600080fd5b83359250602084013591506040840135615a3c81615a00565b809150509250925092565b60008060008060808587031215615a5d57600080fd5b8435615a68816159ce565b935060208501359250604085013591506060850135615a8681615a00565b939692955090935050565b6020808252825182820181905260009190848201906040850190845b81811015615ad25783516001600160a01b031683529284019291840191600101615aad565b50909695505050505050565b602080825282518282018190526000919060409081850190868401855b8281101561595357615b2184835180516001600160a01b03168252602090810151910152565b9284019290850190600101615afb565b634e487b7160e01b600052604160045260246000fd5b6040805190810167ffffffffffffffff81118282101715615b6a57615b6a615b31565b60405290565b604051601f8201601f1916810167ffffffffffffffff81118282101715615b9957615b99615b31565b604052919050565b60006020808385031215615bb457600080fd5b823567ffffffffffffffff80821115615bcc57600080fd5b818501915085601f830112615be057600080fd5b813581811115615bf257615bf2615b31565b615c00848260051b01615b70565b818152848101925060069190911b830184019087821115615c2057600080fd5b928401925b818410156145325760408489031215615c3e5760008081fd5b615c46615b47565b8435615c51816159ce565b81528486013586820152835260409093019291840191615c25565b600060208284031215615c7e57600080fd5b8151610a1b816159ce565b634e487b7160e01b600052603260045260246000fd5b634e487b7160e01b600052601160045260246000fd5b600060018201615cc757615cc7615c9f565b5060010190565b80820180821115610a1e57610a1e615c9f565b600060208284031215615cf357600080fd5b5051919050565b81810381811115610a1e57610a1e615c9f565b600181815b80851115614f4c578160001904821115615d2e57615d2e615c9f565b80851615615d3b57918102915b93841c9390800290615d12565b600082615d5757506001610a1e565b81615d6457506000610a1e565b8160018114615d7a5760028114615d8457615da0565b6001915050610a1e565b60ff841115615d9557615d95615c9f565b50506001821b610a1e565b5060208310610133831016604e8410600b8410161715615dc3575081810a610a1e565b615dcd8383615d0d565b8060001904821115615de157615de1615c9f565b029392505050565b6000610a1b8383615d48565b600060208284031215615e0757600080fd5b8151610a1b81615a00565b8082028115828204841417610a1e57610a1e615c9f565b600082615e4657634e487b7160e01b600052601260045260246000fd5b500490565b600060208284031215615e5d57600080fd5b815160ff81168114610a1b57600080fd5b6000610a1b60ff841683615d48565b60005b83811015615e98578181015183820152602001615e80565b50506000910152565b60008251615eb3818460208701615e7d565b9190910192915050565b634e487b7160e01b600052603160045260246000fd5b6020815260008251806020840152615ef2816040850160208701615e7d565b601f01601f19169190910160400192915050565b60ff8281168282160390811115610a1e57610a1e615c9f56fe416464726573733a206c6f772d6c6576656c2064656c65676174652063616c6c206661696c6564a2646970667358221220f50f2d33251facca4ccedefcd9e5efd3e5d709bec171e7948d51b935464430f564736f6c6343000811003360a06040523480156200001157600080fd5b5060405162000f4238038062000f42833981016040819052620000349162000146565b818160036200004483826200027a565b5060046200005382826200027a565b5050506001600160a01b03909316608052506005805460ff90921660ff199092169190911790555062000346565b634e487b7160e01b600052604160045260246000fd5b600082601f830112620000a957600080fd5b81516001600160401b0380821115620000c657620000c662000081565b604051601f8301601f19908116603f01168101908282118183101715620000f157620000f162000081565b816040528381526020925086838588010111156200010e57600080fd5b600091505b8382101562000132578582018301518183018401529082019062000113565b600093810190920192909252949350505050565b600080600080608085870312156200015d57600080fd5b84516001600160a01b03811681146200017557600080fd5b602086015190945060ff811681146200018d57600080fd5b60408601519093506001600160401b0380821115620001ab57600080fd5b620001b98883890162000097565b93506060870151915080821115620001d057600080fd5b50620001df8782880162000097565b91505092959194509250565b600181811c908216806200020057607f821691505b6020821081036200022157634e487b7160e01b600052602260045260246000fd5b50919050565b601f8211156200027557600081815260208120601f850160051c81016020861015620002505750805b601f850160051c820191505b8181101562000271578281556001016200025c565b5050505b505050565b81516001600160401b0381111562000296576200029662000081565b620002ae81620002a78454620001eb565b8462000227565b602080601f831160018114620002e65760008415620002cd5750858301515b600019600386901b1c1916600185901b17855562000271565b600085815260208120601f198616915b828110156200031757888601518255948401946001909101908401620002f6565b5085821015620003365787850151600019600388901b60f8161c191681555b5050505050600190811b01905550565b608051610bd262000370600039600081816101120152818161034b01526103da0152610bd26000f3fe608060405234801561001057600080fd5b50600436106100ea5760003560e01c806340c10f191161008c5780639dc29fac116100665780639dc29fac14610200578063a457c2d714610213578063a9059cbb14610226578063dd62ed3e1461023957600080fd5b806340c10f19146101bc57806370a08231146101cf57806395d89b41146101f857600080fd5b806318160ddd116100c857806318160ddd1461016f57806323b872dd14610181578063313ce5671461019457806339509351146101a957600080fd5b806306fdde03146100ef578063075461721461010d578063095ea7b31461014c575b600080fd5b6100f761024c565b6040516101049190610a22565b60405180910390f35b6101347f000000000000000000000000000000000000000000000000000000000000000081565b6040516001600160a01b039091168152602001610104565b61015f61015a366004610a8c565b6102de565b6040519015158152602001610104565b6002545b604051908152602001610104565b61015f61018f366004610ab6565b6102f8565b60055460405160ff9091168152602001610104565b61015f6101b7366004610a8c565b61031c565b6101736101ca366004610a8c565b61033e565b6101736101dd366004610af2565b6001600160a01b031660009081526020819052604090205490565b6100f76103be565b61017361020e366004610a8c565b6103cd565b61015f610221366004610a8c565b610442565b61015f610234366004610a8c565b6104bd565b610173610247366004610b14565b6104cb565b60606003805461025b90610b47565b80601f016020809104026020016040519081016040528092919081815260200182805461028790610b47565b80156102d45780601f106102a9576101008083540402835291602001916102d4565b820191906000526020600020905b8154815290600101906020018083116102b757829003601f168201915b5050505050905090565b6000336102ec8185856104f6565b60019150505b92915050565b60003361030685828561061b565b610311858585610695565b506001949350505050565b6000336102ec81858561032f83836104cb565b6103399190610b7b565b6104f6565b6000336001600160a01b037f000000000000000000000000000000000000000000000000000000000000000016146103ae5760405162461bcd60e51b815260206004820152600e60248201526d1b9bdd08185d5d1a1bdc9a5e995960921b60448201526064015b60405180910390fd5b6103b88383610839565b50919050565b60606004805461025b90610b47565b6000336001600160a01b037f000000000000000000000000000000000000000000000000000000000000000016146104385760405162461bcd60e51b815260206004820152600e60248201526d1b9bdd08185d5d1a1bdc9a5e995960921b60448201526064016103a5565b6103b883836108f8565b6000338161045082866104cb565b9050838110156104b05760405162461bcd60e51b815260206004820152602560248201527f45524332303a2064656372656173656420616c6c6f77616e63652062656c6f77604482015264207a65726f60d81b60648201526084016103a5565b61031182868684036104f6565b6000336102ec818585610695565b6001600160a01b03918216600090815260016020908152604080832093909416825291909152205490565b6001600160a01b0383166105585760405162461bcd60e51b8152602060048201526024808201527f45524332303a20617070726f76652066726f6d20746865207a65726f206164646044820152637265737360e01b60648201526084016103a5565b6001600160a01b0382166105b95760405162461bcd60e51b815260206004820152602260248201527f45524332303a20617070726f766520746f20746865207a65726f206164647265604482015261737360f01b60648201526084016103a5565b6001600160a01b0383811660008181526001602090815260408083209487168084529482529182902085905590518481527f8c5be1e5ebec7d5bd14f71427d1e84f3dd0314c0f7b2291e5b200ac8c7c3b92591015b60405180910390a3505050565b600061062784846104cb565b9050600019811461068f57818110156106825760405162461bcd60e51b815260206004820152601d60248201527f45524332303a20696e73756666696369656e7420616c6c6f77616e636500000060448201526064016103a5565b61068f84848484036104f6565b50505050565b6001600160a01b0383166106f95760405162461bcd60e51b815260206004820152602560248201527f45524332303a207472616e736665722066726f6d20746865207a65726f206164604482015264647265737360d81b60648201526084016103a5565b6001600160a01b03821661075b5760405162461bcd60e51b815260206004820152602360248201527f45524332303a207472616e7366657220746f20746865207a65726f206164647260448201526265737360e81b60648201526084016103a5565b6001600160a01b038316600090815260208190526040902054818110156107d35760405162461bcd60e51b815260206004820152602660248201527f45524332303a207472616e7366657220616d6f756e7420657863656564732062604482015265616c616e636560d01b60648201526084016103a5565b6001600160a01b03848116600081815260208181526040808320878703905593871680835291849020805487019055925185815290927fddf252ad1be2c89b69c2b068fc378daa952ba7f163c4a11628f55a4df523b3ef910160405180910390a361068f565b6001600160a01b03821661088f5760405162461bcd60e51b815260206004820152601f60248201527f45524332303a206d696e7420746f20746865207a65726f20616464726573730060448201526064016103a5565b80600260008282546108a19190610b7b565b90915550506001600160a01b038216600081815260208181526040808320805486019055518481527fddf252ad1be2c89b69c2b068fc378daa952ba7f163c4a11628f55a4df523b3ef910160405180910390a35050565b6001600160a01b0382166109585760405162461bcd60e51b815260206004820152602160248201527f45524332303a206275726e2066726f6d20746865207a65726f206164647265736044820152607360f81b60648201526084016103a5565b6001600160a01b038216600090815260208190526040902054818110156109cc5760405162461bcd60e51b815260206004820152602260248201527f45524332303a206275726e20616d6f756e7420657863656564732062616c616e604482015261636560f01b60648201526084016103a5565b6001600160a01b0383166000818152602081815260408083208686039055600280548790039055518581529192917fddf252ad1be2c89b69c2b068fc378daa952ba7f163c4a11628f55a4df523b3ef910161060e565b600060208083528351808285015260005b81811015610a4f57858101830151858201604001528201610a33565b506000604082860101526040601f19601f8301168501019250505092915050565b80356001600160a01b0381168114610a8757600080fd5b919050565b60008060408385031215610a9f57600080fd5b610aa883610a70565b946020939093013593505050565b600080600060608486031215610acb57600080fd5b610ad484610a70565b9250610ae260208501610a70565b9150604084013590509250925092565b600060208284031215610b0457600080fd5b610b0d82610a70565b9392505050565b60008060408385031215610b2757600080fd5b610b3083610a70565b9150610b3e60208401610a70565b90509250929050565b600181811c90821680610b5b57607f821691505b6020821081036103b857634e487b7160e01b600052602260045260246000fd5b808201808211156102f257634e487b7160e01b600052601160045260246000fdfea26469706673582212200438c762570bd266ee91a96ce3951392b460fe10143f946ce6b188a153eed7e864736f6c634300081100336101206040523480156200001257600080fd5b5060405162004d6738038062004d678339810160408190526200003591620004fc565b6200004033620000ba565b6001600160a01b0384811660805283811660a05282811660c052851660e052620000a273c02aaa39b223fe8d0a0e5c4f27ead9083c756cc273838af967537350d2c44abb8c010e49e32673ab946000196200010a602090811b62001beb17901c565b6001600160a01b031661010052506200062a92505050565b600080546001600160a01b038381166001600160a01b0319831681178455604051919092169283917f8be0079c531659141344cd1fd0a4f28419497f9722a3daafe3b4186f6b6457e09190a35050565b801580620001885750604051636eb1769f60e11b81523060048201526001600160a01b03838116602483015284169063dd62ed3e90604401602060405180830381865afa15801562000160573d6000803e3d6000fd5b505050506040513d601f19601f820116820180604052508101906200018691906200056c565b155b620002005760405162461bcd60e51b815260206004820152603660248201527f5361666545524332303a20617070726f76652066726f6d206e6f6e2d7a65726f60448201527f20746f206e6f6e2d7a65726f20616c6c6f77616e63650000000000000000000060648201526084015b60405180910390fd5b604080516001600160a01b038416602482015260448082018490528251808303909101815260649091019091526020810180516001600160e01b0390811663095ea7b360e01b17909152620002589185916200025d16565b505050565b6000620002b9826040518060400160405280602081526020017f5361666545524332303a206c6f772d6c6576656c2063616c6c206661696c6564815250856001600160a01b03166200033b60201b62001d38179092919060201c565b805190915015620002585780806020019051810190620002da919062000586565b620002585760405162461bcd60e51b815260206004820152602a60248201527f5361666545524332303a204552433230206f7065726174696f6e20646964206e6044820152691bdd081cdd58d8d9595960b21b6064820152608401620001f7565b60606200034c848460008562000354565b949350505050565b606082471015620003b75760405162461bcd60e51b815260206004820152602660248201527f416464726573733a20696e73756666696369656e742062616c616e636520666f6044820152651c8818d85b1b60d21b6064820152608401620001f7565b600080866001600160a01b03168587604051620003d59190620005d7565b60006040518083038185875af1925050503d806000811462000414576040519150601f19603f3d011682016040523d82523d6000602084013e62000419565b606091505b5090925090506200042d8783838762000438565b979650505050505050565b60608315620004ac578251600003620004a4576001600160a01b0385163b620004a45760405162461bcd60e51b815260206004820152601d60248201527f416464726573733a2063616c6c20746f206e6f6e2d636f6e74726163740000006044820152606401620001f7565b50816200034c565b6200034c8383815115620004c35781518083602001fd5b8060405162461bcd60e51b8152600401620001f79190620005f5565b80516001600160a01b0381168114620004f757600080fd5b919050565b600080600080600060a086880312156200051557600080fd5b6200052086620004df565b94506200053060208701620004df565b93506200054060408701620004df565b92506200055060608701620004df565b91506200056060808701620004df565b90509295509295909350565b6000602082840312156200057f57600080fd5b5051919050565b6000602082840312156200059957600080fd5b81518015158114620005aa57600080fd5b9392505050565b60005b83811015620005ce578181015183820152602001620005b4565b50506000910152565b60008251620005eb818460208701620005b1565b9190910192915050565b602081526000825180602084015262000616816040850160208701620005b1565b601f01601f19169190910160400192915050565b60805160a05160c05160e05161010051614577620007f0600039600081816103e601528181610a0c01528181610a4501528181610a87015261110b015260008181610496015281816105ee015281816106da01528181610dfa0152818161171e0152818161185c015281816120ab01528181612588015281816127ef0152818161294901528181612c7701528181612eaf0152818161357f0152613a7e0152600081816102f70152610cc2015260006102a00152600081816101f90152818161077101528181610850015281816108f101528181610998015281816109d201528181610b0001528181610b9b01528181610d640152818161128b01528181611329015281816113c8015281816114f70152818161153101528181611571015281816115ae01528181611647015281816117b5015281816118f301528181611a0b01528181611aa401528181611db301528181611e4c01528181611edc015281816120010152818161214201528181612445015281816124ee0152818161261f0152818161288601528181612d0e01528181612d8901528181612e2401528181612f4201528181612fc80152818161304b015281816130f201526139ba01526145776000f3fe608060405234801561001057600080fd5b50600436106101da5760003560e01c8063a001ecdd11610104578063d9ceab13116100a2578063e846500911610071578063e84650091461046f578063f2fde38b1461047e578063f77c479114610491578063fe09d54d146104b857600080fd5b8063d9ceab1314610408578063d9e65ced1461042b578063dc01f60d14610454578063e77061831461046757600080fd5b8063ad5c4648116100de578063ad5c4648146103a0578063ae06c1b7146103bb578063bf928f8b146103ce578063d7b96d4e146103e157600080fd5b8063a001ecdd14610377578063a64e4f8a14610380578063a80ff90a1461038d57600080fd5b8063632473da1161017c578063759cb53b1161014b578063759cb53b146103215780638da5cb5b14610336578063945c9142146103475780639c708aab1461035c57600080fd5b8063632473da146102c25780636dc47e1e146102dd5780636f307dc3146102f2578063715018a61461031957600080fd5b8063558e44d3116101b8578063558e44d3146102535780635790a0c8146102705780635e43c47b146102885780635fcbd2851461029b57600080fd5b806303950fb5146101df57806316f0115b146101f45780634955670914610238575b600080fd5b6101f26101ed366004613e74565b6104cb565b005b61021b7f000000000000000000000000000000000000000000000000000000000000000081565b6040516001600160a01b0390911681526020015b60405180910390f35b61021b73838af967537350d2c44abb8c010e49e32673ab9481565b610262670429d069189e000081565b60405190815260200161022f565b6102786105e9565b604051901515815260200161022f565b610278610296366004613ead565b610c29565b61021b7f000000000000000000000000000000000000000000000000000000000000000081565b61021b739ae380f0272e2162340a5bb646c354271c0f5cfc81565b6102e561101c565b60405161022f9190613f0e565b61021b7f000000000000000000000000000000000000000000000000000000000000000081565b6101f261102d565b61021b60008051602061452283398151915281565b6000546001600160a01b031661021b565b61021b60008051602061450283398151915281565b61021b73d9e1ce17f2641f24ae83637ab66a2cca9c378b9f81565b61026260085481565b6007546102789060ff1681565b6101f261039b366004613ead565b611041565b61021b73c02aaa39b223fe8d0a0e5c4f27ead9083c756cc281565b6101f26103c9366004613f21565b611095565b6101f26103dc366004613ead565b6111d9565b61021b7f000000000000000000000000000000000000000000000000000000000000000081565b6104106111e5565b6040805193845260208401929092529082015260600161022f565b61021b610439366004613ead565b6005602052600090815260409020546001600160a01b031681565b610410610462366004613ead565b611716565b6101f26119e0565b610262670d2f13f7789f000081565b6101f261048c366004613ead565b611b28565b61021b7f000000000000000000000000000000000000000000000000000000000000000081565b6101f26104c6366004613fa5565b611b9e565b6104d3611d51565b6001600160a01b038083166000908152600560205260409020548116908216036105445760405162461bcd60e51b815260206004820152601c60248201527f6d75737420626520646966666572656e7420746f2063757272656e740000000060448201526064015b60405180910390fd5b6001600160a01b0381161561057e576105686001600160a01b038316826000611beb565b61057e6001600160a01b03831682600019611beb565b6001600160a01b0382811660008181526005602090815260409182902080546001600160a01b031916948616948517905581519283528201929092527f8c529c22babad500cea1516422f2bf23f6e1e7fab884b816062d20a9a0f78fef910160405180910390a15050565b6000807f00000000000000000000000000000000000000000000000000000000000000006001600160a01b031663b050ecb86040518163ffffffff1660e01b8152600401602060405180830381865afa15801561064a573d6000803e3d6000fd5b505050506040513d601f19601f8201168201806040525081019061066e9190614044565b9050600080600061067e84611dab565b6007549295509093509150600090819060ff16156106d6576008546106a4908690612329565b91506106bb6008548561232990919063ffffffff16565b90506106c78286614077565b94506106d38185614077565b93505b60007f00000000000000000000000000000000000000000000000000000000000000006001600160a01b03166348439e7e6040518163ffffffff1660e01b8152600401602060405180830381865afa158015610736573d6000803e3d6000fd5b505050506040513d601f19601f8201168201806040525081019061075a9190614044565b604051635598b20960e01b81526001600160a01b037f0000000000000000000000000000000000000000000000000000000000000000811660048301529190911690635598b20990602401602060405180830381865afa1580156107c2573d6000803e3d6000fd5b505050506040513d601f19601f820116820180604052508101906107e6919061408a565b90508015610821576107ff620c6ecf60eb1b8683612354565b6108106231b93b60e91b8783612354565b61082162636e6360e81b8583612354565b60075460ff1661083957600097505050505050505090565b6040516370a0823160e01b81526001600160a01b037f0000000000000000000000000000000000000000000000000000000000000000166004820152600090600080516020614502833981519152906370a0823190602401602060405180830381865afa1580156108ae573d6000803e3d6000fd5b505050506040513d601f19601f820116820180604052508101906108d2919061408a565b84118061097357506040516370a0823160e01b81526001600160a01b037f0000000000000000000000000000000000000000000000000000000000000000166004820152600080516020614522833981519152906370a0823190602401602060405180830381865afa15801561094c573d6000803e3d6000fd5b505050506040513d601f19601f82011682018060405250810190610970919061408a565b83115b15610984576109806123ac565b5060015b6109be6000805160206145028339815191527f00000000000000000000000000000000000000000000000000000000000000003087612726565b6109f86000805160206145228339815191527f00000000000000000000000000000000000000000000000000000000000000003086612726565b610a316000805160206145028339815191527f000000000000000000000000000000000000000000000000000000000000000086611beb565b610a6a6000805160206145228339815191527f000000000000000000000000000000000000000000000000000000000000000085611beb565b6040516309e690eb60e31b815260048101859052602481018490527f00000000000000000000000000000000000000000000000000000000000000006001600160a01b031690634f34875890604401600060405180830381600087803b158015610ad357600080fd5b505af1158015610ae7573d6000803e3d6000fd5b50506040516370a0823160e01b81526001600160a01b037f000000000000000000000000000000000000000000000000000000000000000016600482015260008051602061450283398151915292506370a082319150602401602060405180830381865afa158015610b5d573d6000803e3d6000fd5b505050506040513d601f19601f82011682018060405250810190610b81919061408a565b6001556040516370a0823160e01b81526001600160a01b037f0000000000000000000000000000000000000000000000000000000000000000166004820152600080516020614522833981519152906370a0823190602401602060405180830381865afa158015610bf6573d6000803e3d6000fd5b505050506040513d601f19601f82011682018060405250810190610c1a919061408a565b60025598975050505050505050565b6000610c33611d51565b6001600160a01b038216610c7b5760405162461bcd60e51b815260206004820152600f60248201526e696e76616c6964206164647265737360881b604482015260640161053b565b6001600160a01b03821660008051602061452283398151915214801590610cb957506001600160a01b03821660008051602061450283398151915214155b8015610cf757507f00000000000000000000000000000000000000000000000000000000000000006001600160a01b0316826001600160a01b031614155b8015610d2057506001600160a01b038216739ae380f0272e2162340a5bb646c354271c0f5cfc14155b610d605760405162461bcd60e51b81526020600482015260116024820152701d1bdad95b881b9bdd08185b1b1bddd959607a1b604482015260640161053b565b60007f00000000000000000000000000000000000000000000000000000000000000006001600160a01b0316636f934abe6040518163ffffffff1660e01b8152600401600060405180830381865afa158015610dc0573d6000803e3d6000fd5b505050506040513d6000823e601f3d908101601f19168201604052610de891908101906140a3565b905060005b8151811015610f785760007f00000000000000000000000000000000000000000000000000000000000000006001600160a01b0316639f82b2176040518163ffffffff1660e01b8152600401602060405180830381865afa158015610e56573d6000803e3d6000fd5b505050506040513d601f19601f82011682018060405250810190610e7a9190614044565b6001600160a01b03166376a562a4848481518110610e9a57610e9a614132565b60200260200101516040518263ffffffff1660e01b8152600401610ecd91906001600160a01b0391909116815260200190565b602060405180830381865afa158015610eea573d6000803e3d6000fd5b505050506040513d601f19601f82011682018060405250810190610f0e9190614044565b9050806001600160a01b0316856001600160a01b031603610f655760405162461bcd60e51b81526020600482015260116024820152701d1bdad95b881b9bdd08185b1b1bddd959607a1b604482015260640161053b565b5080610f7081614148565b915050610ded565b50610fa26001600160a01b03841673d9e1ce17f2641f24ae83637ab66a2cca9c378b9f6000611beb565b610fcc6001600160a01b03841673d9e1ce17f2641f24ae83637ab66a2cca9c378b9f600019611beb565b6040516001600160a01b03841681527fd432e6f46dbf91c120fdfa95a1f4bf5c43f04d957fbc3a32e693be0d29bf17b09060200160405180910390a1611013600384612764565b9150505b919050565b60606110286003612779565b905090565b611035611d51565b61103f6000612786565b565b611049611d51565b6110546003826127d6565b506040516001600160a01b03821681527fe0f3b1406ab4dd940a92a081b1bcef51da212a57978cc8f6dde5c89ab41a5aa7906020015b60405180910390a150565b61109d611d51565b670429d069189e000081106111075760405162461bcd60e51b815260206004820152602a60248201527f63616e6e6f7420736574206665652070657263656e7461676520746f206d6f7260448201526965207468616e2033302560b01b606482015260840161053b565b60007f00000000000000000000000000000000000000000000000000000000000000006001600160a01b031663631516c26040518163ffffffff1660e01b8152600401602060405180830381865afa158015611167573d6000803e3d6000fd5b505050506040513d601f19601f8201168201806040525081019061118b919061408a565b1161119557600080fd5b60088190556007805460ff191660011790556040517f3346af6da1932164d501f2ec28f8c5d686db5828a36b77f2da4332d89184fe7b9061108a9083815260200190565b6111e2816127eb565b50565b60008060006111f3336127eb565b3360009081527fe2ee452672e51ea6a0e1a769beff058add3428c3669348c1314b250e4abcf64660209081526040808320547f3acadc8a217eebdcf686f20849b9575c123b0b8572285c75a94ddd9d4c51e5bd8352818420547f7af089d8bde560df8f6fed82c9d27c7cabc5c74f30c79b49f5655e8729cb5c51909352928190205490516370a0823160e01b81526001600160a01b037f0000000000000000000000000000000000000000000000000000000000000000166004820152600080516020614502833981519152906370a0823190602401602060405180830381865afa1580156112e6573d6000803e3d6000fd5b505050506040513d601f19601f8201168201806040525081019061130a919061408a565b8311806113ab57506040516370a0823160e01b81526001600160a01b037f0000000000000000000000000000000000000000000000000000000000000000166004820152600080516020614522833981519152906370a0823190602401602060405180830381865afa158015611384573d6000803e3d6000fd5b505050506040513d601f19601f820116820180604052508101906113a8919061408a565b82115b8061145057506040516370a0823160e01b81526001600160a01b037f0000000000000000000000000000000000000000000000000000000000000000166004820152739ae380f0272e2162340a5bb646c354271c0f5cfc906370a0823190602401602060405180830381865afa158015611429573d6000803e3d6000fd5b505050506040513d601f19601f8201168201806040525081019061144d919061408a565b81115b1561145d5761145d6123ac565b3360008181527f7af089d8bde560df8f6fed82c9d27c7cabc5c74f30c79b49f5655e8729cb5c51602090815260408083208390557f3acadc8a217eebdcf686f20849b9575c123b0b8572285c75a94ddd9d4c51e5bd82528083208390557fe2ee452672e51ea6a0e1a769beff058add3428c3669348c1314b250e4abcf64690915281205561151d90600080516020614502833981519152907f00000000000000000000000000000000000000000000000000000000000000009086612726565b6115576000805160206145228339815191527f00000000000000000000000000000000000000000000000000000000000000003385612726565b611597739ae380f0272e2162340a5bb646c354271c0f5cfc7f00000000000000000000000000000000000000000000000000000000000000003384612726565b6040516370a0823160e01b81526001600160a01b037f0000000000000000000000000000000000000000000000000000000000000000166004820152600080516020614502833981519152906370a0823190602401602060405180830381865afa158015611609573d6000803e3d6000fd5b505050506040513d601f19601f8201168201806040525081019061162d919061408a565b6001556040516370a0823160e01b81526001600160a01b037f0000000000000000000000000000000000000000000000000000000000000000166004820152600080516020614522833981519152906370a0823190602401602060405180830381865afa1580156116a2573d6000803e3d6000fd5b505050506040513d601f19601f820116820180604052508101906116c6919061408a565b600255604080518281526020810185905290810183905233907f06f39318c760ad4d630f57ba8f8d3c21b8e1deb076e19476d1dece4e3d737e7a9060600160405180910390a29591945092509050565b6000806000807f00000000000000000000000000000000000000000000000000000000000000006001600160a01b03166348439e7e6040518163ffffffff1660e01b8152600401602060405180830381865afa15801561177a573d6000803e3d6000fd5b505050506040513d601f19601f8201168201806040525081019061179e9190614044565b604051635598b20960e01b81526001600160a01b037f0000000000000000000000000000000000000000000000000000000000000000811660048301529190911690635598b20990602401602060405180830381865afa158015611806573d6000803e3d6000fd5b505050506040513d601f19601f8201168201806040525081019061182a919061408a565b905080600003611845576000806000935093509350506119d9565b6000806000611852612941565b92509250925060007f00000000000000000000000000000000000000000000000000000000000000006001600160a01b03166348439e7e6040518163ffffffff1660e01b8152600401602060405180830381865afa1580156118b8573d6000803e3d6000fd5b505050506040513d601f19601f820116820180604052508101906118dc9190614044565b604051637d2041e560e11b81526001600160a01b037f0000000000000000000000000000000000000000000000000000000000000000811660048301528b81166024830152919091169063fa4083ca90604401602060405180830381865afa15801561194c573d6000803e3d6000fd5b505050506040513d601f19601f82011682018060405250810190611970919061408a565b90506119878962636e6360e81b84848960006129e0565b97506119ac896231b93b60e91b868489600760009054906101000a900460ff166129e0565b96506119d189620c6ecf60eb1b858489600760009054906101000a900460ff166129e0565b955050505050505b9193909250565b6119e86105e9565b61103f576119f46123ac565b6040516370a0823160e01b81526001600160a01b037f0000000000000000000000000000000000000000000000000000000000000000166004820152600080516020614502833981519152906370a0823190602401602060405180830381865afa158015611a66573d6000803e3d6000fd5b505050506040513d601f19601f82011682018060405250810190611a8a919061408a565b6001556040516370a0823160e01b81526001600160a01b037f0000000000000000000000000000000000000000000000000000000000000000166004820152600080516020614522833981519152906370a0823190602401602060405180830381865afa158015611aff573d6000803e3d6000fd5b505050506040513d601f19601f82011682018060405250810190611b23919061408a565b600255565b611b30611d51565b6001600160a01b038116611b955760405162461bcd60e51b815260206004820152602660248201527f4f776e61626c653a206e6577206f776e657220697320746865207a65726f206160448201526564647265737360d01b606482015260840161053b565b6111e281612786565b611ba6611d51565b60005b8151811015611be757611bd4828281518110611bc757611bc7614132565b6020026020010151610c29565b5080611bdf81614148565b915050611ba9565b5050565b801580611c655750604051636eb1769f60e11b81523060048201526001600160a01b03838116602483015284169063dd62ed3e90604401602060405180830381865afa158015611c3f573d6000803e3d6000fd5b505050506040513d601f19601f82011682018060405250810190611c63919061408a565b155b611cd05760405162461bcd60e51b815260206004820152603660248201527f5361666545524332303a20617070726f76652066726f6d206e6f6e2d7a65726f60448201527520746f206e6f6e2d7a65726f20616c6c6f77616e636560501b606482015260840161053b565b6040516001600160a01b038316602482015260448101829052611d3390849063095ea7b360e01b906064015b60408051601f198184030181529190526020810180516001600160e01b03166001600160e01b031990931692909217909152612aad565b505050565b6060611d478484600085612b7f565b90505b9392505050565b6000546001600160a01b0316331461103f5760405162461bcd60e51b815260206004820181905260248201527f4f776e61626c653a2063616c6c6572206973206e6f7420746865206f776e6572604482015260640161053b565b6000806000807f00000000000000000000000000000000000000000000000000000000000000006001600160a01b0316636f934abe6040518163ffffffff1660e01b8152600401600060405180830381865afa158015611e0f573d6000803e3d6000fd5b505050506040513d6000823e601f3d908101601f19168201604052611e3791908101906140a3565b90506000856001600160a01b031663d83350087f0000000000000000000000000000000000000000000000000000000000000000846040518363ffffffff1660e01b8152600401611e89929190614161565b602060405180830381865afa158015611ea6573d6000803e3d6000fd5b505050506040513d601f19601f82011682018060405250810190611eca919061408a565b6001546040516370a0823160e01b81527f00000000000000000000000000000000000000000000000000000000000000006001600160a01b03166004820152919250600091839190600080516020614502833981519152906370a0823190602401602060405180830381865afa158015611f48573d6000803e3d6000fd5b505050506040513d601f19601f82011682018060405250810190611f6c919061408a565b611f769190614077565b611f809190614185565b60405163323808cd60e01b8152600481018490529091506000906001600160a01b0389169063323808cd90602401602060405180830381865afa158015611fcb573d6000803e3d6000fd5b505050506040513d601f19601f82011682018060405250810190611fef919061408a565b6002546040516370a0823160e01b81527f00000000000000000000000000000000000000000000000000000000000000006001600160a01b03166004820152919250600091839190600080516020614522833981519152906370a0823190602401602060405180830381865afa15801561206d573d6000803e3d6000fd5b505050506040513d601f19601f82011682018060405250810190612091919061408a565b61209b9190614077565b6120a59190614185565b905060007f00000000000000000000000000000000000000000000000000000000000000006001600160a01b03166348439e7e6040518163ffffffff1660e01b8152600401602060405180830381865afa158015612107573d6000803e3d6000fd5b505050506040513d601f19601f8201168201806040525081019061212b9190614044565b6040516334d21ea360e21b81526001600160a01b037f000000000000000000000000000000000000000000000000000000000000000081166004830152919091169063d3487a8c90602401602060405180830381865afa158015612193573d6000803e3d6000fd5b505050506040513d601f19601f820116820180604052508101906121b7919061408a565b6231b93b60e91b60005260066020527fe2ee452672e51ea6a0e1a769beff058add3428c3669348c1314b250e4abcf64454909150841115612230576231b93b60e91b60005260066020527fe2ee452672e51ea6a0e1a769beff058add3428c3669348c1314b250e4abcf6445461222d9085614077565b98505b620c6ecf60eb1b60005260066020527f3acadc8a217eebdcf686f20849b9575c123b0b8572285c75a94ddd9d4c51e5bb548211156122a657620c6ecf60eb1b60005260066020527f3acadc8a217eebdcf686f20849b9575c123b0b8572285c75a94ddd9d4c51e5bb546122a39083614077565b97505b62636e6360e81b60005260066020527f7af089d8bde560df8f6fed82c9d27c7cabc5c74f30c79b49f5655e8729cb5c4f5481111561231c5762636e6360e81b60005260066020527f7af089d8bde560df8f6fed82c9d27c7cabc5c74f30c79b49f5655e8729cb5c4f546123199082614077565b96505b5050505050509193909250565b60006123376012600a61427c565b6123418385614288565b61234b919061429f565b90505b92915050565b61235e8282612c5c565b6000848152600660205260408120805490919061237c908490614185565b9091555050600083815260066020526040812060010180548492906123a2908490614185565b9091555050505050565b600660205260007fe2ee452672e51ea6a0e1a769beff058add3428c3669348c1314b250e4abcf6448190557f3acadc8a217eebdcf686f20849b9575c123b0b8572285c75a94ddd9d4c51e5bb81905562636e6360e81b81527f7af089d8bde560df8f6fed82c9d27c7cabc5c74f30c79b49f5655e8729cb5c4f5561242e612c75565b6040516370a0823160e01b81526001600160a01b037f0000000000000000000000000000000000000000000000000000000000000000166004820152600090739ae380f0272e2162340a5bb646c354271c0f5cfc906370a0823190602401602060405180830381865afa1580156124a9573d6000803e3d6000fd5b505050506040513d601f19601f820116820180604052508101906124cd919061408a565b90506124d76131c6565b6040516370a0823160e01b81526001600160a01b037f00000000000000000000000000000000000000000000000000000000000000001660048201526000908290739ae380f0272e2162340a5bb646c354271c0f5cfc906370a0823190602401602060405180830381865afa158015612554573d6000803e3d6000fd5b505050506040513d601f19601f82011682018060405250810190612578919061408a565b6125829190614077565b905060007f00000000000000000000000000000000000000000000000000000000000000006001600160a01b03166348439e7e6040518163ffffffff1660e01b8152600401602060405180830381865afa1580156125e4573d6000803e3d6000fd5b505050506040513d601f19601f820116820180604052508101906126089190614044565b604051635598b20960e01b81526001600160a01b037f0000000000000000000000000000000000000000000000000000000000000000811660048301529190911690635598b20990602401602060405180830381865afa158015612670573d6000803e3d6000fd5b505050506040513d601f19601f82011682018060405250810190612694919061408a565b905080156126ee576126a68282612c5c565b62636e6360e81b600090815260066020527f7af089d8bde560df8f6fed82c9d27c7cabc5c74f30c79b49f5655e8729cb5c4e80549091906126e8908490614185565b90915550505b6040518281527ffc8ed0cd46874d9c3cf1425e1b3bbf9c523bc17c4a959c2c2f600e016f4eddef9060200160405180910390a1505050565b6040516001600160a01b038085166024830152831660448201526064810182905261275e9085906323b872dd60e01b90608401611cfc565b50505050565b600061234b836001600160a01b038416613218565b60606000611d4a83613267565b600080546001600160a01b038381166001600160a01b0319831681178455604051919092169283917f8be0079c531659141344cd1fd0a4f28419497f9722a3daafe3b4186f6b6457e09190a35050565b600061234b836001600160a01b0384166132c3565b60007f00000000000000000000000000000000000000000000000000000000000000006001600160a01b03166348439e7e6040518163ffffffff1660e01b8152600401602060405180830381865afa15801561284b573d6000803e3d6000fd5b505050506040513d601f19601f8201168201806040525081019061286f9190614044565b604051637d2041e560e11b81526001600160a01b037f0000000000000000000000000000000000000000000000000000000000000000811660048301528481166024830152919091169063fa4083ca90604401602060405180830381865afa1580156128df573d6000803e3d6000fd5b505050506040513d601f19601f82011682018060405250810190612903919061408a565b905061290d6105e9565b5061291f62636e6360e81b83836133b6565b6129306231b93b60e91b83836133b6565b611be7620c6ecf60eb1b83836133b6565b6000806000807f00000000000000000000000000000000000000000000000000000000000000006001600160a01b031663b050ecb86040518163ffffffff1660e01b8152600401602060405180830381865afa1580156129a5573d6000803e3d6000fd5b505050506040513d601f19601f820116820180604052508101906129c99190614044565b90506129d481611dab565b93509350935050909192565b600085815260066020526040812080548315612a3457600854612a2390612a096012600a61427c565b612a139190614077565b612a1d8988612c5c565b90612329565b612a2d9082614185565b9050612a4b565b612a3e8786612c5c565b612a489082614185565b90505b6001600160a01b0389166000908152600283016020526040902054612a7b90612a749083614077565b8790612329565b6001600160a01b038a166000908152600384016020526040902054612aa09190614185565b9998505050505050505050565b6000612b02826040518060400160405280602081526020017f5361666545524332303a206c6f772d6c6576656c2063616c6c206661696c6564815250856001600160a01b0316611d389092919063ffffffff16565b805190915015611d335780806020019051810190612b2091906142d1565b611d335760405162461bcd60e51b815260206004820152602a60248201527f5361666545524332303a204552433230206f7065726174696f6e20646964206e6044820152691bdd081cdd58d8d9595960b21b606482015260840161053b565b606082471015612be05760405162461bcd60e51b815260206004820152602660248201527f416464726573733a20696e73756666696369656e742062616c616e636520666f6044820152651c8818d85b1b60d21b606482015260840161053b565b600080866001600160a01b03168587604051612bfc9190614310565b60006040518083038185875af1925050503d8060008114612c39576040519150601f19603f3d011682016040523d82523d6000602084013e612c3e565b606091505b5091509150612c4f87838387613451565b925050505b949350505050565b600081612c6b6012600a61427c565b6123419085614288565b7f00000000000000000000000000000000000000000000000000000000000000006001600160a01b03166348439e7e6040518163ffffffff1660e01b8152600401602060405180830381865afa158015612cd3573d6000803e3d6000fd5b505050506040513d601f19601f82011682018060405250810190612cf79190614044565b60405163a0190c1760e01b81526001600160a01b037f000000000000000000000000000000000000000000000000000000000000000081166004830152919091169063a0190c1790602401600060405180830381600087803b158015612d5c57600080fd5b505af1158015612d70573d6000803e3d6000fd5b50506040516370a0823160e01b81526001600160a01b037f00000000000000000000000000000000000000000000000000000000000000001660048201526000925060008051602061452283398151915291506370a0823190602401602060405180830381865afa158015612de9573d6000803e3d6000fd5b505050506040513d601f19601f82011682018060405250810190612e0d919061408a565b6040516370a0823160e01b81526001600160a01b037f0000000000000000000000000000000000000000000000000000000000000000166004820152909150600090600080516020614502833981519152906370a0823190602401602060405180830381865afa158015612e85573d6000803e3d6000fd5b505050506040513d601f19601f82011682018060405250810190612ea9919061408a565b905060007f00000000000000000000000000000000000000000000000000000000000000006001600160a01b031663b050ecb86040518163ffffffff1660e01b8152600401602060405180830381865afa158015612f0b573d6000803e3d6000fd5b505050506040513d601f19601f82011682018060405250810190612f2f9190614044565b9050806001600160a01b031663bc810e267f00000000000000000000000000000000000000000000000000000000000000006001600160a01b0316636f934abe6040518163ffffffff1660e01b8152600401600060405180830381865afa158015612f9e573d6000803e3d6000fd5b505050506040513d6000823e601f3d908101601f19168201604052612fc691908101906140a3565b7f00000000000000000000000000000000000000000000000000000000000000006040518363ffffffff1660e01b815260040161300492919061432c565b600060405180830381600087803b15801561301e57600080fd5b505af1158015613032573d6000803e3d6000fd5b50506040516370a0823160e01b81526001600160a01b037f000000000000000000000000000000000000000000000000000000000000000016600482015260009250859150600080516020614522833981519152906370a0823190602401602060405180830381865afa1580156130ad573d6000803e3d6000fd5b505050506040513d601f19601f820116820180604052508101906130d1919061408a565b6130db9190614077565b6040516370a0823160e01b81526001600160a01b037f00000000000000000000000000000000000000000000000000000000000000001660048201529091506000908490600080516020614502833981519152906370a0823190602401602060405180830381865afa158015613155573d6000803e3d6000fd5b505050506040513d601f19601f82011682018060405250810190613179919061408a565b6131839190614077565b60408051828152602081018590529192507f141d6e75554381bcc1326596e8010e6c432bb0988e14ca0310d85837a211d292910160405180910390a15050505050565b60006131d260036134ca565b9050806000036131df5750565b60005b8181101561320f576131fd6131f86003836134d4565b6134e0565b8061320781614148565b9150506131e2565b506111e26138a6565b600081815260018301602052604081205461325f5750815460018181018455600084815260208082209093018490558454848252828601909352604090209190915561234e565b50600061234e565b6060816000018054806020026020016040519081016040528092919081815260200182805480156132b757602002820191906000526020600020905b8154815260200190600101908083116132a3575b50505050509050919050565b600081815260018301602052604081205480156133ac5760006132e7600183614077565b85549091506000906132fb90600190614077565b905081811461336057600086600001828154811061331b5761331b614132565b906000526020600020015490508087600001848154811061333e5761333e614132565b6000918252602080832090910192909255918252600188019052604090208390555b855486908061337157613371614356565b60019003818190600052602060002001600090559055856001016000868152602001908152602001600020600090556001935050505061234e565b600091505061234e565b60008381526006602090815260408083206001600160a01b03861684526002810190925282205481549192916133f6916133ef91614077565b8490612329565b6001600160a01b0385166000908152600384016020526040812080549293508392909190613425908490614185565b909155505081546001600160a01b03909416600090815260029092016020525060409020919091555050565b606083156134c05782516000036134b9576001600160a01b0385163b6134b95760405162461bcd60e51b815260206004820152601d60248201527f416464726573733a2063616c6c20746f206e6f6e2d636f6e7472616374000000604482015260640161053b565b5081612c54565b612c548383613a25565b600061234e825490565b600061234b8383613a4f565b6040516370a0823160e01b81523060048201526000906001600160a01b038316906370a0823190602401602060405180830381865afa158015613527573d6000803e3d6000fd5b505050506040513d601f19601f8201168201806040525081019061354b919061408a565b905080600003613559575050565b6001600160a01b03808316600090815260056020526040902054168015613766576000807f00000000000000000000000000000000000000000000000000000000000000006001600160a01b0316639f82b2176040518163ffffffff1660e01b8152600401602060405180830381865afa1580156135db573d6000803e3d6000fd5b505050506040513d601f19601f820116820180604052508101906135ff9190614044565b604051632feaac8560e11b81526001600160a01b038581166004830152878116602483015273c02aaa39b223fe8d0a0e5c4f27ead9083c756cc260448301529190911690635fd5590a90606401606060405180830381865afa158015613669573d6000803e3d6000fd5b505050506040513d601f19601f8201168201806040525081019061368d919061437e565b5090925090506fffffffffffffffffffffffffffffffff8083169082166001600160a01b03851663ce7d65038383896136db8c73c02aaa39b223fe8d0a0e5c4f27ead9083c756cc283613a79565b6040516001600160e01b031960e087901b1681526004810194909452602484019290925260448301526064820152600060848201523060a482015260c4016020604051808303816000875af1158015613738573d6000803e3d6000fd5b505050506040513d601f19601f8201168201806040525081019061375c919061408a565b5050505050505050565b604080516002808252606082018352600092602083019080368337019050509050838160008151811061379b5761379b614132565b60200260200101906001600160a01b031690816001600160a01b03168152505073c02aaa39b223fe8d0a0e5c4f27ead9083c756cc2816001815181106137e3576137e3614132565b6001600160a01b039092166020928302919091019091015273d9e1ce17f2641f24ae83637ab66a2cca9c378b9f6338ed1739846138358773c02aaa39b223fe8d0a0e5c4f27ead9083c756cc283613a79565b8430426040518663ffffffff1660e01b81526004016138589594939291906143c1565b6000604051808303816000875af1158015613877573d6000803e3d6000fd5b505050506040513d6000823e601f3d908101601f1916820160405261389f91908101906143fd565b5050505050565b6040516370a0823160e01b815230600482015260009073c02aaa39b223fe8d0a0e5c4f27ead9083c756cc2906370a0823190602401602060405180830381865afa1580156138f8573d6000803e3d6000fd5b505050506040513d601f19601f8201168201806040525081019061391c919061408a565b9050806000036139295750565b73838af967537350d2c44abb8c010e49e32673ab9463ce7d6503600060018461397b73c02aaa39b223fe8d0a0e5c4f27ead9083c756cc2739ae380f0272e2162340a5bb646c354271c0f5cfc83613a79565b6040516001600160e01b031960e087901b1681526004810194909452602484019290925260448301526064820152600060848201526001600160a01b037f00000000000000000000000000000000000000000000000000000000000000001660a482015260c4016020604051808303816000875af1158015613a01573d6000803e3d6000fd5b505050506040513d601f19601f82011682018060405250810190611be7919061408a565b815115613a355781518083602001fd5b8060405162461bcd60e51b815260040161053b9190614483565b6000826000018281548110613a6657613a66614132565b9060005260206000200154905092915050565b6000807f00000000000000000000000000000000000000000000000000000000000000006001600160a01b0316632630c12f6040518163ffffffff1660e01b8152600401602060405180830381865afa158015613ada573d6000803e3d6000fd5b505050506040513d601f19601f82011682018060405250810190613afe9190614044565b9050836001600160a01b0316856001600160a01b031603613b225782915050611d4a565b6040516375151b6360e01b81526001600160a01b0386811660048301528216906375151b6390602401602060405180830381865afa158015613b68573d6000803e3d6000fd5b505050506040513d601f19601f82011682018060405250810190613b8c91906142d1565b1580613bff57506040516375151b6360e01b81526001600160a01b0385811660048301528216906375151b6390602401602060405180830381865afa158015613bd9573d6000803e3d6000fd5b505050506040513d601f19601f82011682018060405250810190613bfd91906142d1565b155b15613c0e576000915050611d4a565b613dd3670d2f13f7789f0000612a1d876001600160a01b031663313ce5676040518163ffffffff1660e01b8152600401602060405180830381865afa158015613c5b573d6000803e3d6000fd5b505050506040513d601f19601f82011682018060405250810190613c7f91906144b6565b876001600160a01b031663313ce5676040518163ffffffff1660e01b8152600401602060405180830381865afa158015613cbd573d6000803e3d6000fd5b505050506040513d601f19601f82011682018060405250810190613ce191906144b6565b604051638b2f0f4f60e01b81526001600160a01b038a81166004830152613dcc9190881690638b2f0f4f90602401602060405180830381865afa158015613d2c573d6000803e3d6000fd5b505050506040513d601f19601f82011682018060405250810190613d50919061408a565b604051638b2f0f4f60e01b81526001600160a01b038d81166004830152613dc691908a1690638b2f0f4f90602401602060405180830381865afa158015613d9b573d6000803e3d6000fd5b505050506040513d601f19601f82011682018060405250810190613dbf919061408a565b8b90612329565b90612c5c565b9190613ddc565b95945050505050565b60008160ff168360ff1603613df2575082611d4a565b8160ff168360ff161115613e1257613e0b848484613e1d565b9050611d4a565b611d47848484613e3e565b6000613e2982846144d9565b613e3490600a6144f2565b611d47908561429f565b6000613e4a83836144d9565b613e5590600a6144f2565b611d479085614288565b6001600160a01b03811681146111e257600080fd5b60008060408385031215613e8757600080fd5b8235613e9281613e5f565b91506020830135613ea281613e5f565b809150509250929050565b600060208284031215613ebf57600080fd5b8135611d4a81613e5f565b600081518084526020808501945080840160005b83811015613f035781516001600160a01b031687529582019590820190600101613ede565b509495945050505050565b60208152600061234b6020830184613eca565b600060208284031215613f3357600080fd5b5035919050565b634e487b7160e01b600052604160045260246000fd5b604051601f8201601f1916810167ffffffffffffffff81118282101715613f7957613f79613f3a565b604052919050565b600067ffffffffffffffff821115613f9b57613f9b613f3a565b5060051b60200190565b60006020808385031215613fb857600080fd5b823567ffffffffffffffff811115613fcf57600080fd5b8301601f81018513613fe057600080fd5b8035613ff3613fee82613f81565b613f50565b81815260059190911b8201830190838101908783111561401257600080fd5b928401925b8284101561403957833561402a81613e5f565b82529284019290840190614017565b979650505050505050565b60006020828403121561405657600080fd5b8151611d4a81613e5f565b634e487b7160e01b600052601160045260246000fd5b8181038181111561234e5761234e614061565b60006020828403121561409c57600080fd5b5051919050565b600060208083850312156140b657600080fd5b825167ffffffffffffffff8111156140cd57600080fd5b8301601f810185136140de57600080fd5b80516140ec613fee82613f81565b81815260059190911b8201830190838101908783111561410b57600080fd5b928401925b8284101561403957835161412381613e5f565b82529284019290840190614110565b634e487b7160e01b600052603260045260246000fd5b60006001820161415a5761415a614061565b5060010190565b6001600160a01b0383168152604060208201819052600090611d4790830184613eca565b8082018082111561234e5761234e614061565b600181815b808511156141d35781600019048211156141b9576141b9614061565b808516156141c657918102915b93841c939080029061419d565b509250929050565b6000826141ea5750600161234e565b816141f75750600061234e565b816001811461420d576002811461421757614233565b600191505061234e565b60ff84111561422857614228614061565b50506001821b61234e565b5060208310610133831016604e8410600b8410161715614256575081810a61234e565b6142608383614198565b806000190482111561427457614274614061565b029392505050565b600061234b83836141db565b808202811582820484141761234e5761234e614061565b6000826142bc57634e487b7160e01b600052601260045260246000fd5b500490565b8051801515811461101757600080fd5b6000602082840312156142e357600080fd5b61234b826142c1565b60005b838110156143075781810151838201526020016142ef565b50506000910152565b600082516143228184602087016142ec565b9190910192915050565b60408152600061433f6040830185613eca565b905060018060a01b03831660208301529392505050565b634e487b7160e01b600052603160045260246000fd5b8051600f81900b811461101757600080fd5b60008060006060848603121561439357600080fd5b61439c8461436c565b92506143aa6020850161436c565b91506143b8604085016142c1565b90509250925092565b85815284602082015260a0604082015260006143e060a0830186613eca565b6001600160a01b0394909416606083015250608001529392505050565b6000602080838503121561441057600080fd5b825167ffffffffffffffff81111561442757600080fd5b8301601f8101851361443857600080fd5b8051614446613fee82613f81565b81815260059190911b8201830190838101908783111561446557600080fd5b928401925b828410156140395783518252928401929084019061446a565b60208152600082518060208401526144a28160408501602087016142ec565b601f01601f19169190910160400192915050565b6000602082840312156144c857600080fd5b815160ff81168114611d4a57600080fd5b60ff828116828216039081111561234e5761234e614061565b600061234b60ff8416836141db56fe000000000000000000000000d533a949740bb3306d119cc777fa900ba034cd520000000000000000000000004e3fbd56cd56c3e72c1403e103b45db9da5b9d2ba2646970667358221220551e1fd45cf47d765afc714b4bfe144cbf390cda42a52b2f9723b80be5fb9ddb64736f6c63430008110033","bytecodeSha1":"fe1267d33ea33eec565aa2ded4588af4261c6f5d","compiler":{"evm_version":"istanbul","optimizer":{"enabled":true,"runs":200},"version":"0.8.17+commit.8df45f5f"},"contractName":"ConicPool","language":"Solidity","natspec":{"kind":"dev","methods":{"cachedTotalUnderlying()":{"details":"this is useful in cases where we want to reduce gas usage and do not need a precise value","notice":"same as `totalUnderlying` but returns a cached version that might be slightly outdated if oracle prices have changed"},"deposit(uint256,uint256)":{"notice":"Deposit underlying","params":{"minLpReceived":"The minimum amoun of LP to accept from the deposit","underlyingAmount":"Amount of underlying to deposit"},"returns":{"_0":"lpReceived The amount of LP received"}},"deposit(uint256,uint256,bool)":{"notice":"Deposit underlying","params":{"minLpReceived":"The minimum amoun of LP to accept from the deposit","stake":"Whether or not to stake in the LpTokenStaker","underlyingAmount":"Amount of underlying to deposit"},"returns":{"_0":"lpReceived The amount of LP received"}},"depositFor(address,uint256,uint256,bool)":{"notice":"Deposit underlying on behalf of someone","params":{"minLpReceived":"The minimum amount of LP to accept from the deposit","underlyingAmount":"Amount of underlying to deposit"},"returns":{"_0":"lpReceived The amount of LP received"}},"exchangeRate()":{"notice":"Get current exchange rate for the pool's LP token to the underlying"},"handleDepeggedCurvePool(address)":{"details":"Cannot be called if the underlying of this pool itself has depegged.","notice":"Called when an underlying of a Curve Pool has depegged and we want to exit the pool. Will check if a coin has depegged, and will revert if not. Sets the weight of the Curve Pool to 0, and re-enables CNC rewards for deposits.","params":{"curvePool_":"The Curve Pool to handle."}},"handleInvalidConvexPid(address)":{"notice":"Allows anyone to set the weight of a Curve pool to 0 if the Convex pool for the associated PID has been shutdown. This is a very unilkely outcomu and the method does not reenable rebalancing rewards.","params":{"curvePool_":"Curve pool for which the Convex PID is invalid (has been shut down)"}},"owner()":{"details":"Returns the address of the current owner."},"renounceOwnership()":{"details":"Leaves the contract without owner. It will not be possible to call `onlyOwner` functions anymore. Can only be called by the current owner. NOTE: Renouncing ownership will leave the contract without an owner, thereby removing any functionality that is only available to the owner."},"totalUnderlying()":{"notice":"Get current underlying balance of pool"},"transferOwnership(address)":{"details":"Transfers ownership of the contract to a new account (`newOwner`). Can only be called by the current owner."},"unstakeAndWithdraw(uint256,uint256)":{"notice":"Unstake LP Tokens and withdraw underlying","params":{"conicLpAmount":"Amount of LP tokens to burn","minUnderlyingReceived":"Minimum amount of underlying to redeem This should always be set to a reasonable value (e.g. 2%), otherwise the user withdrawing could be forced into paying a withdrawal penalty fee by another user"},"returns":{"_0":"uint256 Total underlying withdrawn"}},"usdExchangeRate()":{"details":"This is using the cached total underlying value, so is not precisely accurate.","notice":"Get current exchange rate for the pool's LP token to USD"},"withdraw(uint256,uint256)":{"notice":"Withdraw underlying","params":{"conicLpAmount":"Amount of LP tokens to burn","minUnderlyingReceived":"Minimum amount of underlying to redeem This should always be set to a reasonable value (e.g. 2%), otherwise the user withdrawing could be forced into paying a withdrawal penalty fee by another user"},"returns":{"_0":"uint256 Total underlying withdrawn"}}},"stateVariables":{"maxDeviation":{"details":"once the deviation gets under this threshold, the reward distribution will be paused until the next rebalancing. This is expressed as a ratio, scaled with 18 decimals"},"rebalancingRewardActive":{"details":"`true` while the reward distribution is active"},"totalDeviationAfterWeightUpdate":{"details":"the absolute value in terms of USD of the total deviation after the weights have been updated"}},"version":1},"opcodes":"PUSH1 0x80 PUSH1 0x40 MSTORE PUSH1 0x4 CALLDATASIZE LT PUSH2 0x28C JUMPI PUSH1 0x0 CALLDATALOAD PUSH1 0xE0 SHR DUP1 PUSH4 0x86FE9A66 GT PUSH2 0x15A JUMPI DUP1 PUSH4 0xC70920BC GT PUSH2 0xC1 JUMPI DUP1 PUSH4 0xDDDBC049 GT PUSH2 0x7A JUMPI DUP1 PUSH4 0xDDDBC049 EQ PUSH2 0x851 JUMPI DUP1 PUSH4 0xE17E1725 EQ PUSH2 0x871 JUMPI DUP1 PUSH4 0xE2BBB158 EQ PUSH2 0x886 JUMPI DUP1 PUSH4 0xF2FDE38B EQ PUSH2 0x8A6 JUMPI DUP1 PUSH4 0xF5CFC592 EQ PUSH2 0x8C6 JUMPI DUP1 PUSH4 0xF77C4791 EQ PUSH2 0x8E6 JUMPI PUSH1 0x0 DUP1 REVERT JUMPDEST DUP1 PUSH4 0xC70920BC EQ PUSH2 0x7C7 JUMPI DUP1 PUSH4 0xCB03A464 EQ PUSH2 0x7DC JUMPI DUP1 PUSH4 0xCE75040E EQ PUSH2 0x7F1 JUMPI DUP1 PUSH4 0xD1E6C1E5 EQ PUSH2 0x806 JUMPI DUP1 PUSH4 0xD6038DC6 EQ PUSH2 0x81C JUMPI DUP1 PUSH4 0xDDD2C684 EQ PUSH2 0x831 JUMPI PUSH1 0x0 DUP1 REVERT JUMPDEST DUP1 PUSH4 0xA1E2849F GT PUSH2 0x113 JUMPI DUP1 PUSH4 0xA1E2849F EQ PUSH2 0x717 JUMPI DUP1 PUSH4 0xA58F1D8E EQ PUSH2 0x737 JUMPI DUP1 PUSH4 0xAC6C5251 EQ PUSH2 0x74D JUMPI DUP1 PUSH4 0xB0A43968 EQ PUSH2 0x76D JUMPI DUP1 PUSH4 0xBD096CBB EQ PUSH2 0x78D JUMPI DUP1 PUSH4 0xBF86D690 EQ PUSH2 0x7AD JUMPI PUSH1 0x0 DUP1 REVERT JUMPDEST DUP1 PUSH4 0x86FE9A66 EQ PUSH2 0x639 JUMPI DUP1 PUSH4 0x8DA5CB5B EQ PUSH2 0x65B JUMPI DUP1 PUSH4 0x8DBFB25B EQ PUSH2 0x679 JUMPI DUP1 PUSH4 0x945C9142 EQ PUSH2 0x699 JUMPI DUP1 PUSH4 0x9765CA15 EQ PUSH2 0x6CD JUMPI DUP1 PUSH4 0x9E486562 EQ PUSH2 0x6ED JUMPI PUSH1 0x0 DUP1 REVERT JUMPDEST DUP1 PUSH4 0x43A0D066 GT PUSH2 0x1FE JUMPI DUP1 PUSH4 0x65F20355 GT PUSH2 0x1B7 JUMPI DUP1 PUSH4 0x65F20355 EQ PUSH2 0x565 JUMPI DUP1 PUSH4 0x6F307DC3 EQ PUSH2 0x585 JUMPI DUP1 PUSH4 0x6F934ABE EQ PUSH2 0x5B9 JUMPI DUP1 PUSH4 0x715018A6 EQ PUSH2 0x5DB JUMPI DUP1 PUSH4 0x759CB53B EQ PUSH2 0x5F0 JUMPI DUP1 PUSH4 0x83645ABF EQ PUSH2 0x624 JUMPI PUSH1 0x0 DUP1 REVERT JUMPDEST DUP1 PUSH4 0x43A0D066 EQ PUSH2 0x489 JUMPI DUP1 PUSH4 0x441A3E70 EQ PUSH2 0x4A9 JUMPI DUP1 PUSH4 0x5757ED5B EQ PUSH2 0x4C9 JUMPI DUP1 PUSH4 0x5FCBD285 EQ PUSH2 0x4E9 JUMPI DUP1 PUSH4 0x60FFD5AE EQ PUSH2 0x51D JUMPI DUP1 PUSH4 0x632473DA EQ PUSH2 0x53D JUMPI PUSH1 0x0 DUP1 REVERT JUMPDEST DUP1 PUSH4 0x2A1BAB73 GT PUSH2 0x250 JUMPI DUP1 PUSH4 0x2A1BAB73 EQ PUSH2 0x3E4 JUMPI DUP1 PUSH4 0x32F44C42 EQ PUSH2 0x3FA JUMPI DUP1 PUSH4 0x331666FA EQ PUSH2 0x41A JUMPI DUP1 PUSH4 0x36797AEC EQ PUSH2 0x43E JUMPI DUP1 PUSH4 0x3BA0B9A9 EQ PUSH2 0x45E JUMPI DUP1 PUSH4 0x3D4912C3 EQ PUSH2 0x473 JUMPI PUSH1 0x0 DUP1 REVERT JUMPDEST DUP1 PUSH4 0x8BF1345 EQ PUSH2 0x319 JUMPI DUP1 PUSH4 0xF4EF8A6 EQ PUSH2 0x341 JUMPI DUP1 PUSH4 0x10AEC8F9 EQ PUSH2 0x38D JUMPI DUP1 PUSH4 0x22ACB867 EQ PUSH2 0x3AD JUMPI DUP1 PUSH4 0x24A71A66 EQ PUSH2 0x3CF JUMPI PUSH1 0x0 DUP1 REVERT JUMPDEST CALLDATASIZE PUSH2 0x314 JUMPI PUSH32 0x0 PUSH1 0x1 PUSH1 0x1 PUSH1 0xA0 SHL SUB AND PUSH20 0xC02AAA39B223FE8D0A0E5C4F27EAD9083C756CC2 EQ PUSH2 0x312 JUMPI PUSH1 0x40 MLOAD PUSH3 0x461BCD PUSH1 0xE5 SHL DUP2 MSTORE PUSH1 0x20 PUSH1 0x4 DUP3 ADD MSTORE PUSH1 0xD PUSH1 0x24 DUP3 ADD MSTORE PUSH13 0x1B9BDD0815D15512081C1BDBDB PUSH1 0x9A SHL PUSH1 0x44 DUP3 ADD MSTORE PUSH1 0x64 ADD JUMPDEST PUSH1 0x40 MLOAD DUP1 SWAP2 SUB SWAP1 REVERT JUMPDEST STOP JUMPDEST PUSH1 0x0 DUP1 REVERT JUMPDEST CALLVALUE DUP1 ISZERO PUSH2 0x325 JUMPI PUSH1 0x0 DUP1 REVERT JUMPDEST POP PUSH2 0x32E PUSH2 0x91A JUMP JUMPDEST PUSH1 0x40 MLOAD SWAP1 DUP2 MSTORE PUSH1 0x20 ADD JUMPDEST PUSH1 0x40 MLOAD DUP1 SWAP2 SUB SWAP1 RETURN JUMPDEST CALLVALUE DUP1 ISZERO PUSH2 0x34D JUMPI PUSH1 0x0 DUP1 REVERT JUMPDEST POP PUSH2 0x375 PUSH32 0x0 DUP2 JUMP JUMPDEST PUSH1 0x40 MLOAD PUSH1 0x1 PUSH1 0x1 PUSH1 0xA0 SHL SUB SWAP1 SWAP2 AND DUP2 MSTORE PUSH1 0x20 ADD PUSH2 0x338 JUMP JUMPDEST CALLVALUE DUP1 ISZERO PUSH2 0x399 JUMPI PUSH1 0x0 DUP1 REVERT JUMPDEST POP PUSH2 0x32E PUSH2 0x3A8 CALLDATASIZE PUSH1 0x4 PUSH2 0x58DE JUMP JUMPDEST PUSH2 0x92B JUMP JUMPDEST CALLVALUE DUP1 ISZERO PUSH2 0x3B9 JUMPI PUSH1 0x0 DUP1 REVERT JUMPDEST POP PUSH2 0x3C2 PUSH2 0xA24 JUMP JUMPDEST PUSH1 0x40 MLOAD PUSH2 0x338 SWAP2 SWAP1 PUSH2 0x5900 JUMP JUMPDEST CALLVALUE DUP1 ISZERO PUSH2 0x3DB JUMPI PUSH1 0x0 DUP1 REVERT JUMPDEST POP PUSH2 0x32E PUSH2 0xB0B JUMP JUMPDEST CALLVALUE DUP1 ISZERO PUSH2 0x3F0 JUMPI PUSH1 0x0 DUP1 REVERT JUMPDEST POP PUSH2 0x32E PUSH1 0x1 SLOAD DUP2 JUMP JUMPDEST CALLVALUE DUP1 ISZERO PUSH2 0x406 JUMPI PUSH1 0x0 DUP1 REVERT JUMPDEST POP PUSH2 0x312 PUSH2 0x415 CALLDATASIZE PUSH1 0x4 PUSH2 0x5960 JUMP JUMPDEST PUSH2 0xB34 JUMP JUMPDEST CALLVALUE DUP1 ISZERO PUSH2 0x426 JUMPI PUSH1 0x0 DUP1 REVERT JUMPDEST POP PUSH2 0x42F PUSH2 0xC1B JUMP JUMPDEST PUSH1 0x40 MLOAD PUSH2 0x338 SWAP4 SWAP3 SWAP2 SWAP1 PUSH2 0x5979 JUMP JUMPDEST CALLVALUE DUP1 ISZERO PUSH2 0x44A JUMPI PUSH1 0x0 DUP1 REVERT JUMPDEST POP PUSH2 0x312 PUSH2 0x459 CALLDATASIZE PUSH1 0x4 PUSH2 0x59E3 JUMP JUMPDEST PUSH2 0xD47 JUMP JUMPDEST CALLVALUE DUP1 ISZERO PUSH2 0x46A JUMPI PUSH1 0x0 DUP1 REVERT JUMPDEST POP PUSH2 0x32E PUSH2 0xFEA JUMP JUMPDEST CALLVALUE DUP1 ISZERO PUSH2 0x47F JUMPI PUSH1 0x0 DUP1 REVERT JUMPDEST POP PUSH2 0x32E PUSH1 0x4 SLOAD DUP2 JUMP JUMPDEST CALLVALUE DUP1 ISZERO PUSH2 0x495 JUMPI PUSH1 0x0 DUP1 REVERT JUMPDEST POP PUSH2 0x32E PUSH2 0x4A4 CALLDATASIZE PUSH1 0x4 PUSH2 0x5A0E JUMP JUMPDEST PUSH2 0xFFC JUMP JUMPDEST CALLVALUE DUP1 ISZERO PUSH2 0x4B5 JUMPI PUSH1 0x0 DUP1 REVERT JUMPDEST POP PUSH2 0x32E PUSH2 0x4C4 CALLDATASIZE PUSH1 0x4 PUSH2 0x58DE JUMP JUMPDEST PUSH2 0x1014 JUMP JUMPDEST CALLVALUE DUP1 ISZERO PUSH2 0x4D5 JUMPI PUSH1 0x0 DUP1 REVERT JUMPDEST POP PUSH2 0x32E PUSH2 0x4E4 CALLDATASIZE PUSH1 0x4 PUSH2 0x59E3 JUMP JUMPDEST PUSH2 0x13B3 JUMP JUMPDEST CALLVALUE DUP1 ISZERO PUSH2 0x4F5 JUMPI PUSH1 0x0 DUP1 REVERT JUMPDEST POP PUSH2 0x375 PUSH32 0x0 DUP2 JUMP JUMPDEST CALLVALUE DUP1 ISZERO PUSH2 0x529 JUMPI PUSH1 0x0 DUP1 REVERT JUMPDEST POP PUSH2 0x32E PUSH2 0x538 CALLDATASIZE PUSH1 0x4 PUSH2 0x59E3 JUMP JUMPDEST PUSH2 0x13C9 JUMP JUMPDEST CALLVALUE DUP1 ISZERO PUSH2 0x549 JUMPI PUSH1 0x0 DUP1 REVERT JUMPDEST POP PUSH2 0x375 PUSH20 0x9AE380F0272E2162340A5BB646C354271C0F5CFC DUP2 JUMP JUMPDEST CALLVALUE DUP1 ISZERO PUSH2 0x571 JUMPI PUSH1 0x0 DUP1 REVERT JUMPDEST POP PUSH2 0x32E PUSH2 0x580 CALLDATASIZE PUSH1 0x4 PUSH2 0x5A47 JUMP JUMPDEST PUSH2 0x13E7 JUMP JUMPDEST CALLVALUE DUP1 ISZERO PUSH2 0x591 JUMPI PUSH1 0x0 DUP1 REVERT JUMPDEST POP PUSH2 0x375 PUSH32 0x0 DUP2 JUMP JUMPDEST CALLVALUE DUP1 ISZERO PUSH2 0x5C5 JUMPI PUSH1 0x0 DUP1 REVERT JUMPDEST POP PUSH2 0x5CE PUSH2 0x1A73 JUMP JUMPDEST PUSH1 0x40 MLOAD PUSH2 0x338 SWAP2 SWAP1 PUSH2 0x5A91 JUMP JUMPDEST CALLVALUE DUP1 ISZERO PUSH2 0x5E7 JUMPI PUSH1 0x0 DUP1 REVERT JUMPDEST POP PUSH2 0x312 PUSH2 0x1A7F JUMP JUMPDEST CALLVALUE DUP1 ISZERO PUSH2 0x5FC JUMPI PUSH1 0x0 DUP1 REVERT JUMPDEST POP PUSH2 0x375 PUSH32 0x0 DUP2 JUMP JUMPDEST CALLVALUE DUP1 ISZERO PUSH2 0x630 JUMPI PUSH1 0x0 DUP1 REVERT JUMPDEST POP PUSH2 0x32E PUSH2 0x1A93 JUMP JUMPDEST CALLVALUE DUP1 ISZERO PUSH2 0x645 JUMPI PUSH1 0x0 DUP1 REVERT JUMPDEST POP PUSH2 0x64E PUSH2 0x1AB6 JUMP JUMPDEST PUSH1 0x40 MLOAD PUSH2 0x338 SWAP2 SWAP1 PUSH2 0x5ADE JUMP JUMPDEST CALLVALUE DUP1 ISZERO PUSH2 0x667 JUMPI PUSH1 0x0 DUP1 REVERT JUMPDEST POP PUSH1 0x0 SLOAD PUSH1 0x1 PUSH1 0x1 PUSH1 0xA0 SHL SUB AND PUSH2 0x375 JUMP JUMPDEST CALLVALUE DUP1 ISZERO PUSH2 0x685 JUMPI PUSH1 0x0 DUP1 REVERT JUMPDEST POP PUSH2 0x312 PUSH2 0x694 CALLDATASIZE PUSH1 0x4 PUSH2 0x5BA1 JUMP JUMPDEST PUSH2 0x1BB7 JUMP JUMPDEST CALLVALUE DUP1 ISZERO PUSH2 0x6A5 JUMPI PUSH1 0x0 DUP1 REVERT JUMPDEST POP PUSH2 0x375 PUSH32 0x0 DUP2 JUMP JUMPDEST CALLVALUE DUP1 ISZERO PUSH2 0x6D9 JUMPI PUSH1 0x0 DUP1 REVERT JUMPDEST POP PUSH2 0x312 PUSH2 0x6E8 CALLDATASIZE PUSH1 0x4 PUSH2 0x59E3 JUMP JUMPDEST PUSH2 0x1E35 JUMP JUMPDEST CALLVALUE DUP1 ISZERO PUSH2 0x6F9 JUMPI PUSH1 0x0 DUP1 REVERT JUMPDEST POP PUSH1 0x7 SLOAD PUSH2 0x707 SWAP1 PUSH1 0xFF AND DUP2 JUMP JUMPDEST PUSH1 0x40 MLOAD SWAP1 ISZERO ISZERO DUP2 MSTORE PUSH1 0x20 ADD PUSH2 0x338 JUMP JUMPDEST CALLVALUE DUP1 ISZERO PUSH2 0x723 JUMPI PUSH1 0x0 DUP1 REVERT JUMPDEST POP PUSH2 0x707 PUSH2 0x732 CALLDATASIZE PUSH1 0x4 PUSH2 0x59E3 JUMP JUMPDEST PUSH2 0x2086 JUMP JUMPDEST CALLVALUE DUP1 ISZERO PUSH2 0x743 JUMPI PUSH1 0x0 DUP1 REVERT JUMPDEST POP PUSH2 0x32E PUSH1 0x2 SLOAD DUP2 JUMP JUMPDEST CALLVALUE DUP1 ISZERO PUSH2 0x759 JUMPI PUSH1 0x0 DUP1 REVERT JUMPDEST POP PUSH2 0x32E PUSH2 0x768 CALLDATASIZE PUSH1 0x4 PUSH2 0x59E3 JUMP JUMPDEST PUSH2 0x2093 JUMP JUMPDEST CALLVALUE DUP1 ISZERO PUSH2 0x779 JUMPI PUSH1 0x0 DUP1 REVERT JUMPDEST POP PUSH2 0x312 PUSH2 0x788 CALLDATASIZE PUSH1 0x4 PUSH2 0x5960 JUMP JUMPDEST PUSH2 0x20A0 JUMP JUMPDEST CALLVALUE DUP1 ISZERO PUSH2 0x799 JUMPI PUSH1 0x0 DUP1 REVERT JUMPDEST POP PUSH2 0x375 PUSH2 0x7A8 CALLDATASIZE PUSH1 0x4 PUSH2 0x5960 JUMP JUMPDEST PUSH2 0x2178 JUMP JUMPDEST CALLVALUE DUP1 ISZERO PUSH2 0x7B9 JUMPI PUSH1 0x0 DUP1 REVERT JUMPDEST POP PUSH1 0x3 SLOAD PUSH2 0x707 SWAP1 PUSH1 0xFF AND DUP2 JUMP JUMPDEST CALLVALUE DUP1 ISZERO PUSH2 0x7D3 JUMPI PUSH1 0x0 DUP1 REVERT JUMPDEST POP PUSH2 0x32E PUSH2 0x2185 JUMP JUMPDEST CALLVALUE DUP1 ISZERO PUSH2 0x7E8 JUMPI PUSH1 0x0 DUP1 REVERT JUMPDEST POP PUSH2 0x707 PUSH2 0x2199 JUMP JUMPDEST CALLVALUE DUP1 ISZERO PUSH2 0x7FD JUMPI PUSH1 0x0 DUP1 REVERT JUMPDEST POP PUSH2 0x32E PUSH2 0x21B5 JUMP JUMPDEST CALLVALUE DUP1 ISZERO PUSH2 0x812 JUMPI PUSH1 0x0 DUP1 REVERT JUMPDEST POP PUSH2 0x32E PUSH1 0xD SLOAD DUP2 JUMP JUMPDEST CALLVALUE DUP1 ISZERO PUSH2 0x828 JUMPI PUSH1 0x0 DUP1 REVERT JUMPDEST POP PUSH2 0x312 PUSH2 0x22E3 JUMP JUMPDEST CALLVALUE DUP1 ISZERO PUSH2 0x83D JUMPI PUSH1 0x0 DUP1 REVERT JUMPDEST POP PUSH2 0x312 PUSH2 0x84C CALLDATASIZE PUSH1 0x4 PUSH2 0x59E3 JUMP JUMPDEST PUSH2 0x23CF JUMP JUMPDEST CALLVALUE DUP1 ISZERO PUSH2 0x85D JUMPI PUSH1 0x0 DUP1 REVERT JUMPDEST POP PUSH2 0x312 PUSH2 0x86C CALLDATASIZE PUSH1 0x4 PUSH2 0x5960 JUMP JUMPDEST PUSH2 0x2889 JUMP JUMPDEST CALLVALUE DUP1 ISZERO PUSH2 0x87D JUMPI PUSH1 0x0 DUP1 REVERT JUMPDEST POP PUSH2 0x32E PUSH2 0x2961 JUMP JUMPDEST CALLVALUE DUP1 ISZERO PUSH2 0x892 JUMPI PUSH1 0x0 DUP1 REVERT JUMPDEST POP PUSH2 0x32E PUSH2 0x8A1 CALLDATASIZE PUSH1 0x4 PUSH2 0x58DE JUMP JUMPDEST PUSH2 0x29A4 JUMP JUMPDEST CALLVALUE DUP1 ISZERO PUSH2 0x8B2 JUMPI PUSH1 0x0 DUP1 REVERT JUMPDEST POP PUSH2 0x312 PUSH2 0x8C1 CALLDATASIZE PUSH1 0x4 PUSH2 0x59E3 JUMP JUMPDEST PUSH2 0x29B3 JUMP JUMPDEST CALLVALUE DUP1 ISZERO PUSH2 0x8D2 JUMPI PUSH1 0x0 DUP1 REVERT JUMPDEST POP PUSH2 0x312 PUSH2 0x8E1 CALLDATASIZE PUSH1 0x4 PUSH2 0x59E3 JUMP JUMPDEST PUSH2 0x2A2C JUMP JUMPDEST CALLVALUE DUP1 ISZERO PUSH2 0x8F2 JUMPI PUSH1 0x0 DUP1 REVERT JUMPDEST POP PUSH2 0x375 PUSH32 0x0 DUP2 JUMP JUMPDEST PUSH1 0x0 PUSH2 0x926 PUSH1 0x8 PUSH2 0x3078 JUMP JUMPDEST SWAP1 POP SWAP1 JUMP JUMPDEST PUSH1 0x0 PUSH32 0x0 PUSH1 0x1 PUSH1 0x1 PUSH1 0xA0 SHL SUB AND PUSH4 0x48439E7E PUSH1 0x40 MLOAD DUP2 PUSH4 0xFFFFFFFF AND PUSH1 0xE0 SHL DUP2 MSTORE PUSH1 0x4 ADD PUSH1 0x20 PUSH1 0x40 MLOAD DUP1 DUP4 SUB DUP2 DUP7 GAS STATICCALL ISZERO DUP1 ISZERO PUSH2 0x98B JUMPI RETURNDATASIZE PUSH1 0x0 DUP1 RETURNDATACOPY RETURNDATASIZE PUSH1 0x0 REVERT JUMPDEST POP POP POP POP PUSH1 0x40 MLOAD RETURNDATASIZE PUSH1 0x1F NOT PUSH1 0x1F DUP3 ADD AND DUP3 ADD DUP1 PUSH1 0x40 MSTORE POP DUP2 ADD SWAP1 PUSH2 0x9AF SWAP2 SWAP1 PUSH2 0x5C6C JUMP JUMPDEST PUSH1 0x40 MLOAD PUSH4 0x325D161 PUSH1 0xE0 SHL DUP2 MSTORE PUSH1 0x4 DUP2 ADD DUP6 SWAP1 MSTORE CALLER PUSH1 0x24 DUP3 ADD MSTORE PUSH1 0x1 PUSH1 0x1 PUSH1 0xA0 SHL SUB SWAP2 SWAP1 SWAP2 AND SWAP1 PUSH4 0x325D161 SWAP1 PUSH1 0x44 ADD PUSH1 0x0 PUSH1 0x40 MLOAD DUP1 DUP4 SUB DUP2 PUSH1 0x0 DUP8 DUP1 EXTCODESIZE ISZERO DUP1 ISZERO PUSH2 0x9F9 JUMPI PUSH1 0x0 DUP1 REVERT JUMPDEST POP GAS CALL ISZERO DUP1 ISZERO PUSH2 0xA0D JUMPI RETURNDATASIZE PUSH1 0x0 DUP1 RETURNDATACOPY RETURNDATASIZE PUSH1 0x0 REVERT JUMPDEST POP POP POP POP PUSH2 0xA1B DUP4 DUP4 PUSH2 0x1014 JUMP JUMPDEST SWAP1 POP JUMPDEST SWAP3 SWAP2 POP POP JUMP JUMPDEST PUSH1 0x60 PUSH1 0x0 PUSH2 0xA32 PUSH1 0x8 PUSH2 0x3078 JUMP JUMPDEST SWAP1 POP PUSH1 0x0 DUP2 PUSH8 0xFFFFFFFFFFFFFFFF DUP2 GT ISZERO PUSH2 0xA4F JUMPI PUSH2 0xA4F PUSH2 0x5B31 JUMP JUMPDEST PUSH1 0x40 MLOAD SWAP1 DUP1 DUP3 MSTORE DUP1 PUSH1 0x20 MUL PUSH1 0x20 ADD DUP3 ADD PUSH1 0x40 MSTORE DUP1 ISZERO PUSH2 0xA94 JUMPI DUP2 PUSH1 0x20 ADD JUMPDEST PUSH1 0x40 DUP1 MLOAD DUP1 DUP3 ADD SWAP1 SWAP2 MSTORE PUSH1 0x0 DUP1 DUP3 MSTORE PUSH1 0x20 DUP3 ADD MSTORE DUP2 MSTORE PUSH1 0x20 ADD SWAP1 PUSH1 0x1 SWAP1 SUB SWAP1 DUP2 PUSH2 0xA6D JUMPI SWAP1 POP JUMPDEST POP SWAP1 POP PUSH1 0x0 JUMPDEST DUP3 DUP2 LT ISZERO PUSH2 0xB04 JUMPI PUSH1 0x0 DUP1 PUSH2 0xAB0 PUSH1 0xA DUP5 PUSH2 0x3082 JUMP JUMPDEST SWAP2 POP SWAP2 POP PUSH1 0x40 MLOAD DUP1 PUSH1 0x40 ADD PUSH1 0x40 MSTORE DUP1 DUP4 PUSH1 0x1 PUSH1 0x1 PUSH1 0xA0 SHL SUB AND DUP2 MSTORE PUSH1 0x20 ADD DUP3 DUP2 MSTORE POP DUP5 DUP5 DUP2 MLOAD DUP2 LT PUSH2 0xAE4 JUMPI PUSH2 0xAE4 PUSH2 0x5C89 JUMP JUMPDEST PUSH1 0x20 MUL PUSH1 0x20 ADD ADD DUP2 SWAP1 MSTORE POP POP POP DUP1 DUP1 PUSH2 0xAFC SWAP1 PUSH2 0x5CB5 JUMP JUMPDEST SWAP2 POP POP PUSH2 0xA9A JUMP JUMPDEST POP SWAP3 SWAP2 POP POP JUMP JUMPDEST PUSH1 0x0 PUSH3 0x3F480 PUSH1 0x5 SLOAD PUSH2 0xB1E SWAP2 SWAP1 PUSH2 0x5CCE JUMP JUMPDEST TIMESTAMP GT ISZERO PUSH2 0xB2D JUMPI PUSH2 0x926 PUSH2 0x2185 JUMP JUMPDEST POP PUSH1 0x6 SLOAD SWAP1 JUMP JUMPDEST PUSH2 0xB3C PUSH2 0x30A0 JUMP JUMPDEST PUSH7 0x2386F26FC10000 DUP2 LT ISZERO PUSH2 0xB8D JUMPI PUSH1 0x40 MLOAD PUSH3 0x461BCD PUSH1 0xE5 SHL DUP2 MSTORE PUSH1 0x20 PUSH1 0x4 DUP3 ADD MSTORE PUSH1 0x17 PUSH1 0x24 DUP3 ADD MSTORE PUSH23 0x1A5B9D985B1A590819195C1959C81D1A1C995CDA1BDB19 PUSH1 0x4A SHL PUSH1 0x44 DUP3 ADD MSTORE PUSH1 0x64 ADD PUSH2 0x309 JUMP JUMPDEST PUSH8 0x16345785D8A0000 DUP2 GT ISZERO PUSH2 0xBDF JUMPI PUSH1 0x40 MLOAD PUSH3 0x461BCD PUSH1 0xE5 SHL DUP2 MSTORE PUSH1 0x20 PUSH1 0x4 DUP3 ADD MSTORE PUSH1 0x17 PUSH1 0x24 DUP3 ADD MSTORE PUSH23 0x1A5B9D985B1A590819195C1959C81D1A1C995CDA1BDB19 PUSH1 0x4A SHL PUSH1 0x44 DUP3 ADD MSTORE PUSH1 0x64 ADD PUSH2 0x309 JUMP JUMPDEST PUSH1 0x4 DUP2 SWAP1 SSTORE PUSH1 0x40 MLOAD DUP2 DUP2 MSTORE PUSH32 0x20DA4A1840E5E1BB25784E941F370E4DB630545ED9434C8C0BAD8E421480595B SWAP1 PUSH1 0x20 ADD JUMPDEST PUSH1 0x40 MLOAD DUP1 SWAP2 SUB SWAP1 LOG1 POP JUMP JUMPDEST PUSH1 0x0 DUP1 PUSH1 0x60 PUSH1 0x0 PUSH32 0x0 PUSH1 0x1 PUSH1 0x1 PUSH1 0xA0 SHL SUB AND PUSH4 0x2630C12F PUSH1 0x40 MLOAD DUP2 PUSH4 0xFFFFFFFF AND PUSH1 0xE0 SHL DUP2 MSTORE PUSH1 0x4 ADD PUSH1 0x20 PUSH1 0x40 MLOAD DUP1 DUP4 SUB DUP2 DUP7 GAS STATICCALL ISZERO DUP1 ISZERO PUSH2 0xC80 JUMPI RETURNDATASIZE PUSH1 0x0 DUP1 RETURNDATACOPY RETURNDATASIZE PUSH1 0x0 REVERT JUMPDEST POP POP POP POP PUSH1 0x40 MLOAD RETURNDATASIZE PUSH1 0x1F NOT PUSH1 0x1F DUP3 ADD AND DUP3 ADD DUP1 PUSH1 0x40 MSTORE POP DUP2 ADD SWAP1 PUSH2 0xCA4 SWAP2 SWAP1 PUSH2 0x5C6C JUMP JUMPDEST PUSH1 0x40 MLOAD PUSH4 0x8B2F0F4F PUSH1 0xE0 SHL DUP2 MSTORE PUSH1 0x1 PUSH1 0x1 PUSH1 0xA0 SHL SUB PUSH32 0x0 DUP2 AND PUSH1 0x4 DUP4 ADD MSTORE SWAP2 SWAP1 SWAP2 AND SWAP1 PUSH4 0x8B2F0F4F SWAP1 PUSH1 0x24 ADD PUSH1 0x20 PUSH1 0x40 MLOAD DUP1 DUP4 SUB DUP2 DUP7 GAS STATICCALL ISZERO DUP1 ISZERO PUSH2 0xD0C JUMPI RETURNDATASIZE PUSH1 0x0 DUP1 RETURNDATACOPY RETURNDATASIZE PUSH1 0x0 REVERT JUMPDEST POP POP POP POP PUSH1 0x40 MLOAD RETURNDATASIZE PUSH1 0x1F NOT PUSH1 0x1F DUP3 ADD AND DUP3 ADD DUP1 PUSH1 0x40 MSTORE POP DUP2 ADD SWAP1 PUSH2 0xD30 SWAP2 SWAP1 PUSH2 0x5CE1 JUMP JUMPDEST SWAP1 POP PUSH2 0xD3B DUP2 PUSH2 0x30FA JUMP JUMPDEST SWAP4 POP SWAP4 POP SWAP4 POP POP SWAP1 SWAP2 SWAP3 JUMP JUMPDEST PUSH2 0xD50 DUP2 PUSH2 0x2086 JUMP JUMPDEST PUSH2 0xD95 JUMPI PUSH1 0x40 MLOAD PUSH3 0x461BCD PUSH1 0xE5 SHL DUP2 MSTORE PUSH1 0x20 PUSH1 0x4 DUP3 ADD MSTORE PUSH1 0x16 PUSH1 0x24 DUP3 ADD MSTORE PUSH22 0x1C1BDBDB081A5CC81B9BDD081C9959DA5CDD195C9959 PUSH1 0x52 SHL PUSH1 0x44 DUP3 ADD MSTORE PUSH1 0x64 ADD PUSH2 0x309 JUMP JUMPDEST PUSH2 0xDA0 PUSH1 0xA DUP3 PUSH2 0x334C JUMP JUMPDEST PUSH1 0x0 SUB PUSH2 0xDE7 JUMPI PUSH1 0x40 MLOAD PUSH3 0x461BCD PUSH1 0xE5 SHL DUP2 MSTORE PUSH1 0x20 PUSH1 0x4 DUP3 ADD MSTORE PUSH1 0x15 PUSH1 0x24 DUP3 ADD MSTORE PUSH21 0x706F6F6C2077656967687420616C7265616479203 PUSH1 0x5C SHL PUSH1 0x44 DUP3 ADD MSTORE PUSH1 0x64 ADD PUSH2 0x309 JUMP JUMPDEST PUSH2 0xE10 PUSH32 0x0 PUSH2 0x3361 JUMP JUMPDEST ISZERO PUSH2 0xE56 JUMPI PUSH1 0x40 MLOAD PUSH3 0x461BCD PUSH1 0xE5 SHL DUP2 MSTORE PUSH1 0x20 PUSH1 0x4 DUP3 ADD MSTORE PUSH1 0x16 PUSH1 0x24 DUP3 ADD MSTORE PUSH22 0x1D5B99195C9B1E5A5B99C81A5CC819195C1959D9D959 PUSH1 0x52 SHL PUSH1 0x44 DUP3 ADD MSTORE PUSH1 0x64 ADD PUSH2 0x309 JUMP JUMPDEST PUSH1 0x0 PUSH32 0x0 PUSH1 0x1 PUSH1 0x1 PUSH1 0xA0 SHL SUB AND PUSH4 0x9F82B217 PUSH1 0x40 MLOAD DUP2 PUSH4 0xFFFFFFFF AND PUSH1 0xE0 SHL DUP2 MSTORE PUSH1 0x4 ADD PUSH1 0x20 PUSH1 0x40 MLOAD DUP1 DUP4 SUB DUP2 DUP7 GAS STATICCALL ISZERO DUP1 ISZERO PUSH2 0xEB6 JUMPI RETURNDATASIZE PUSH1 0x0 DUP1 RETURNDATACOPY RETURNDATASIZE PUSH1 0x0 REVERT JUMPDEST POP POP POP POP PUSH1 0x40 MLOAD RETURNDATASIZE PUSH1 0x1F NOT PUSH1 0x1F DUP3 ADD AND DUP3 ADD DUP1 PUSH1 0x40 MSTORE POP DUP2 ADD SWAP1 PUSH2 0xEDA SWAP2 SWAP1 PUSH2 0x5C6C JUMP JUMPDEST PUSH1 0x40 MLOAD PUSH4 0x1DA958A9 PUSH1 0xE2 SHL DUP2 MSTORE PUSH1 0x1 PUSH1 0x1 PUSH1 0xA0 SHL SUB DUP5 DUP2 AND PUSH1 0x4 DUP4 ADD MSTORE SWAP2 SWAP1 SWAP2 AND SWAP1 PUSH4 0x76A562A4 SWAP1 PUSH1 0x24 ADD PUSH1 0x20 PUSH1 0x40 MLOAD DUP1 DUP4 SUB DUP2 DUP7 GAS STATICCALL ISZERO DUP1 ISZERO PUSH2 0xF22 JUMPI RETURNDATASIZE PUSH1 0x0 DUP1 RETURNDATACOPY RETURNDATASIZE PUSH1 0x0 REVERT JUMPDEST POP POP POP POP PUSH1 0x40 MLOAD RETURNDATASIZE PUSH1 0x1F NOT PUSH1 0x1F DUP3 ADD AND DUP3 ADD DUP1 PUSH1 0x40 MSTORE POP DUP2 ADD SWAP1 PUSH2 0xF46 SWAP2 SWAP1 PUSH2 0x5C6C JUMP JUMPDEST SWAP1 POP PUSH2 0xF51 DUP2 PUSH2 0x3361 JUMP JUMPDEST PUSH2 0xF94 JUMPI PUSH1 0x40 MLOAD PUSH3 0x461BCD PUSH1 0xE5 SHL DUP2 MSTORE PUSH1 0x20 PUSH1 0x4 DUP3 ADD MSTORE PUSH1 0x14 PUSH1 0x24 DUP3 ADD MSTORE PUSH20 0x1C1BDBDB081A5CC81B9BDD0819195C1959D9D959 PUSH1 0x62 SHL PUSH1 0x44 DUP3 ADD MSTORE PUSH1 0x64 ADD PUSH2 0x309 JUMP JUMPDEST PUSH2 0xF9D DUP3 PUSH2 0x34D8 JUMP JUMPDEST PUSH1 0x7 DUP1 SLOAD PUSH1 0xFF NOT AND PUSH1 0x1 OR SWAP1 SSTORE PUSH1 0x40 MLOAD PUSH1 0x1 PUSH1 0x1 PUSH1 0xA0 SHL SUB DUP4 AND DUP2 MSTORE PUSH32 0x7D90518F39C7F92FD9046BBB246D9C650DD159F73CCA88AA7D919C89C040FA79 SWAP1 PUSH1 0x20 ADD PUSH1 0x40 MLOAD DUP1 SWAP2 SUB SWAP1 LOG1 POP POP JUMP JUMPDEST PUSH1 0x0 PUSH2 0x926 PUSH2 0xFF7 PUSH2 0x2185 JUMP JUMPDEST PUSH2 0x366A JUMP JUMPDEST PUSH1 0x0 PUSH2 0x100A CALLER DUP6 DUP6 DUP6 PUSH2 0x13E7 JUMP JUMPDEST SWAP1 POP JUMPDEST SWAP4 SWAP3 POP POP POP JUMP JUMPDEST PUSH1 0x40 MLOAD PUSH4 0x70A08231 PUSH1 0xE0 SHL DUP2 MSTORE CALLER PUSH1 0x4 DUP3 ADD MSTORE PUSH1 0x0 SWAP1 DUP4 SWAP1 PUSH1 0x1 PUSH1 0x1 PUSH1 0xA0 SHL SUB PUSH32 0x0 AND SWAP1 PUSH4 0x70A08231 SWAP1 PUSH1 0x24 ADD PUSH1 0x20 PUSH1 0x40 MLOAD DUP1 DUP4 SUB DUP2 DUP7 GAS STATICCALL ISZERO DUP1 ISZERO PUSH2 0x107D JUMPI RETURNDATASIZE PUSH1 0x0 DUP1 RETURNDATACOPY RETURNDATASIZE PUSH1 0x0 REVERT JUMPDEST POP POP POP POP PUSH1 0x40 MLOAD RETURNDATASIZE PUSH1 0x1F NOT PUSH1 0x1F DUP3 ADD AND DUP3 ADD DUP1 PUSH1 0x40 MSTORE POP DUP2 ADD SWAP1 PUSH2 0x10A1 SWAP2 SWAP1 PUSH2 0x5CE1 JUMP JUMPDEST LT ISZERO PUSH2 0x10E6 JUMPI PUSH1 0x40 MLOAD PUSH3 0x461BCD PUSH1 0xE5 SHL DUP2 MSTORE PUSH1 0x20 PUSH1 0x4 DUP3 ADD MSTORE PUSH1 0x14 PUSH1 0x24 DUP3 ADD MSTORE PUSH20 0x696E73756666696369656E742062616C616E6365 PUSH1 0x60 SHL PUSH1 0x44 DUP3 ADD MSTORE PUSH1 0x64 ADD PUSH2 0x309 JUMP JUMPDEST PUSH1 0x40 MLOAD PUSH4 0x70A08231 PUSH1 0xE0 SHL DUP2 MSTORE ADDRESS PUSH1 0x4 DUP3 ADD MSTORE PUSH1 0x0 SWAP1 PUSH32 0x0 PUSH1 0x1 PUSH1 0x1 PUSH1 0xA0 SHL SUB AND SWAP1 PUSH4 0x70A08231 SWAP1 PUSH1 0x24 ADD PUSH1 0x20 PUSH1 0x40 MLOAD DUP1 DUP4 SUB DUP2 DUP7 GAS STATICCALL ISZERO DUP1 ISZERO PUSH2 0x114D JUMPI RETURNDATASIZE PUSH1 0x0 DUP1 RETURNDATACOPY RETURNDATASIZE PUSH1 0x0 REVERT JUMPDEST POP POP POP POP PUSH1 0x40 MLOAD RETURNDATASIZE PUSH1 0x1F NOT PUSH1 0x1F DUP3 ADD AND DUP3 ADD DUP1 PUSH1 0x40 MSTORE POP DUP2 ADD SWAP1 PUSH2 0x1171 SWAP2 SWAP1 PUSH2 0x5CE1 JUMP JUMPDEST SWAP1 POP PUSH1 0x0 DUP1 PUSH1 0x0 PUSH2 0x1180 PUSH2 0xC1B JUMP JUMPDEST SWAP3 POP SWAP3 POP SWAP3 POP PUSH1 0x0 PUSH2 0x119B PUSH2 0x1194 DUP6 PUSH2 0x366A JUMP JUMPDEST DUP10 SWAP1 PUSH2 0x3717 JUMP JUMPDEST SWAP1 POP DUP1 DUP6 LT ISZERO PUSH2 0x11C0 JUMPI PUSH1 0x0 PUSH2 0x11B1 DUP7 DUP4 PUSH2 0x5CFA JUMP JUMPDEST SWAP1 POP PUSH2 0x11BE DUP5 DUP5 DUP4 PUSH2 0x3739 JUMP JUMPDEST POP JUMPDEST PUSH1 0x40 MLOAD PUSH4 0x70A08231 PUSH1 0xE0 SHL DUP2 MSTORE ADDRESS PUSH1 0x4 DUP3 ADD MSTORE PUSH1 0x0 SWAP1 PUSH2 0x1255 SWAP1 PUSH1 0x1 PUSH1 0x1 PUSH1 0xA0 SHL SUB PUSH32 0x0 AND SWAP1 PUSH4 0x70A08231 SWAP1 PUSH1 0x24 ADD PUSH1 0x20 PUSH1 0x40 MLOAD DUP1 DUP4 SUB DUP2 DUP7 GAS STATICCALL ISZERO DUP1 ISZERO PUSH2 0x122B JUMPI RETURNDATASIZE PUSH1 0x0 DUP1 RETURNDATACOPY RETURNDATASIZE PUSH1 0x0 REVERT JUMPDEST POP POP POP POP PUSH1 0x40 MLOAD RETURNDATASIZE PUSH1 0x1F NOT PUSH1 0x1F DUP3 ADD AND DUP3 ADD DUP1 PUSH1 0x40 MSTORE POP DUP2 ADD SWAP1 PUSH2 0x124F SWAP2 SWAP1 PUSH2 0x5CE1 JUMP JUMPDEST DUP4 PUSH2 0x37D5 JUMP JUMPDEST SWAP1 POP DUP8 DUP2 LT ISZERO PUSH2 0x129B JUMPI PUSH1 0x40 MLOAD PUSH3 0x461BCD PUSH1 0xE5 SHL DUP2 MSTORE PUSH1 0x20 PUSH1 0x4 DUP3 ADD MSTORE PUSH1 0x11 PUSH1 0x24 DUP3 ADD MSTORE PUSH17 0x746F6F206D75636820736C697070616765 PUSH1 0x78 SHL PUSH1 0x44 DUP3 ADD MSTORE PUSH1 0x64 ADD PUSH2 0x309 JUMP JUMPDEST PUSH1 0x40 MLOAD PUSH4 0x2770A7EB PUSH1 0xE2 SHL DUP2 MSTORE CALLER PUSH1 0x4 DUP3 ADD MSTORE PUSH1 0x24 DUP2 ADD DUP11 SWAP1 MSTORE PUSH32 0x0 PUSH1 0x1 PUSH1 0x1 PUSH1 0xA0 SHL SUB AND SWAP1 PUSH4 0x9DC29FAC SWAP1 PUSH1 0x44 ADD PUSH1 0x20 PUSH1 0x40 MLOAD DUP1 DUP4 SUB DUP2 PUSH1 0x0 DUP8 GAS CALL ISZERO DUP1 ISZERO PUSH2 0x1308 JUMPI RETURNDATASIZE PUSH1 0x0 DUP1 RETURNDATACOPY RETURNDATASIZE PUSH1 0x0 REVERT JUMPDEST POP POP POP POP PUSH1 0x40 MLOAD RETURNDATASIZE PUSH1 0x1F NOT PUSH1 0x1F DUP3 ADD AND DUP3 ADD DUP1 PUSH1 0x40 MSTORE POP DUP2 ADD SWAP1 PUSH2 0x132C SWAP2 SWAP1 PUSH2 0x5CE1 JUMP JUMPDEST POP PUSH2 0x1361 PUSH1 0x1 PUSH1 0x1 PUSH1 0xA0 SHL SUB PUSH32 0x0 AND CALLER DUP4 PUSH2 0x37EB JUMP JUMPDEST PUSH2 0x136B DUP2 DUP7 PUSH2 0x5CFA JUMP JUMPDEST PUSH1 0x6 SSTORE TIMESTAMP PUSH1 0x5 SSTORE PUSH1 0x40 MLOAD DUP2 DUP2 MSTORE CALLER SWAP1 PUSH32 0x884EDAD9CE6FA2440D8A54CC123490EB96D2768479D49FF9C7366125A9424364 SWAP1 PUSH1 0x20 ADD PUSH1 0x40 MLOAD DUP1 SWAP2 SUB SWAP1 LOG2 SWAP9 SWAP8 POP POP POP POP POP POP POP POP JUMP JUMPDEST PUSH1 0x0 DUP1 PUSH2 0x13C1 PUSH1 0xA DUP5 PUSH2 0x381B JUMP JUMPDEST SWAP5 SWAP4 POP POP POP POP JUMP JUMPDEST PUSH1 0x0 PUSH2 0x13D4 DUP3 PUSH2 0x3833 JUMP JUMPDEST PUSH2 0x13DD DUP4 PUSH2 0x398E JUMP JUMPDEST PUSH2 0xA1E SWAP2 SWAP1 PUSH2 0x5CCE JUMP JUMPDEST PUSH1 0x0 PUSH2 0x143F PUSH1 0x40 MLOAD DUP1 PUSH2 0x140 ADD PUSH1 0x40 MSTORE DUP1 PUSH1 0x0 DUP2 MSTORE PUSH1 0x20 ADD PUSH1 0x0 DUP2 MSTORE PUSH1 0x20 ADD PUSH1 0x0 DUP2 MSTORE PUSH1 0x20 ADD PUSH1 0x0 DUP2 MSTORE PUSH1 0x20 ADD PUSH1 0x0 DUP2 MSTORE PUSH1 0x20 ADD PUSH1 0x0 DUP2 MSTORE PUSH1 0x20 ADD PUSH1 0x60 DUP2 MSTORE PUSH1 0x20 ADD PUSH1 0x0 DUP2 MSTORE PUSH1 0x20 ADD PUSH1 0x0 DUP2 MSTORE PUSH1 0x20 ADD PUSH1 0x60 DUP2 MSTORE POP SWAP1 JUMP JUMPDEST PUSH1 0x3 SLOAD PUSH1 0xFF AND ISZERO PUSH2 0x1485 JUMPI PUSH1 0x40 MLOAD PUSH3 0x461BCD PUSH1 0xE5 SHL DUP2 MSTORE PUSH1 0x20 PUSH1 0x4 DUP3 ADD MSTORE PUSH1 0x10 PUSH1 0x24 DUP3 ADD MSTORE PUSH16 0x3837B7B61034B99039B43ABA3237BBB7 PUSH1 0x81 SHL PUSH1 0x44 DUP3 ADD MSTORE PUSH1 0x64 ADD PUSH2 0x309 JUMP JUMPDEST PUSH1 0x0 DUP6 GT PUSH2 0x14D5 JUMPI PUSH1 0x40 MLOAD PUSH3 0x461BCD PUSH1 0xE5 SHL DUP2 MSTORE PUSH1 0x20 PUSH1 0x4 DUP3 ADD MSTORE PUSH1 0x1D PUSH1 0x24 DUP3 ADD MSTORE PUSH32 0x6465706F73697420616D6F756E742063616E6E6F74206265207A65726F000000 PUSH1 0x44 DUP3 ADD MSTORE PUSH1 0x64 ADD PUSH2 0x309 JUMP JUMPDEST PUSH1 0x0 PUSH32 0x0 PUSH1 0x1 PUSH1 0x1 PUSH1 0xA0 SHL SUB AND PUSH4 0x2630C12F PUSH1 0x40 MLOAD DUP2 PUSH4 0xFFFFFFFF AND PUSH1 0xE0 SHL DUP2 MSTORE PUSH1 0x4 ADD PUSH1 0x20 PUSH1 0x40 MLOAD DUP1 DUP4 SUB DUP2 DUP7 GAS STATICCALL ISZERO DUP1 ISZERO PUSH2 0x1535 JUMPI RETURNDATASIZE PUSH1 0x0 DUP1 RETURNDATACOPY RETURNDATASIZE PUSH1 0x0 REVERT JUMPDEST POP POP POP POP PUSH1 0x40 MLOAD RETURNDATASIZE PUSH1 0x1F NOT PUSH1 0x1F DUP3 ADD AND DUP3 ADD DUP1 PUSH1 0x40 MSTORE POP DUP2 ADD SWAP1 PUSH2 0x1559 SWAP2 SWAP1 PUSH2 0x5C6C JUMP JUMPDEST PUSH1 0x40 MLOAD PUSH4 0x8B2F0F4F PUSH1 0xE0 SHL DUP2 MSTORE PUSH1 0x1 PUSH1 0x1 PUSH1 0xA0 SHL SUB PUSH32 0x0 DUP2 AND PUSH1 0x4 DUP4 ADD MSTORE SWAP2 SWAP1 SWAP2 AND SWAP1 PUSH4 0x8B2F0F4F SWAP1 PUSH1 0x24 ADD PUSH1 0x20 PUSH1 0x40 MLOAD DUP1 DUP4 SUB DUP2 DUP7 GAS STATICCALL ISZERO DUP1 ISZERO PUSH2 0x15C1 JUMPI RETURNDATASIZE PUSH1 0x0 DUP1 RETURNDATACOPY RETURNDATASIZE PUSH1 0x0 REVERT JUMPDEST POP POP POP POP PUSH1 0x40 MLOAD RETURNDATASIZE PUSH1 0x1F NOT PUSH1 0x1F DUP3 ADD AND DUP3 ADD DUP1 PUSH1 0x40 MSTORE POP DUP2 ADD SWAP1 PUSH2 0x15E5 SWAP2 SWAP1 PUSH2 0x5CE1 JUMP JUMPDEST SWAP1 POP PUSH2 0x15F0 DUP2 PUSH2 0x30FA JUMP JUMPDEST PUSH1 0xC0 DUP6 ADD MSTORE PUSH1 0xA0 DUP5 ADD MSTORE PUSH1 0x80 DUP4 ADD DUP2 SWAP1 MSTORE PUSH2 0x160A SWAP1 PUSH2 0x366A JUMP JUMPDEST DUP3 MSTORE PUSH2 0x1641 PUSH1 0x1 PUSH1 0x1 PUSH1 0xA0 SHL SUB PUSH32 0x0 AND CALLER ADDRESS DUP10 PUSH2 0x3A42 JUMP JUMPDEST PUSH1 0xA0 DUP3 ADD MLOAD PUSH1 0xC0 DUP4 ADD MLOAD PUSH1 0x40 MLOAD PUSH4 0x70A08231 PUSH1 0xE0 SHL DUP2 MSTORE ADDRESS PUSH1 0x4 DUP3 ADD MSTORE PUSH2 0x16DE SWAP3 SWAP2 SWAP1 PUSH1 0x1 PUSH1 0x1 PUSH1 0xA0 SHL SUB PUSH32 0x0 AND SWAP1 PUSH4 0x70A08231 SWAP1 PUSH1 0x24 ADD PUSH1 0x20 PUSH1 0x40 MLOAD DUP1 DUP4 SUB DUP2 DUP7 GAS STATICCALL ISZERO DUP1 ISZERO PUSH2 0x16B5 JUMPI RETURNDATASIZE PUSH1 0x0 DUP1 RETURNDATACOPY RETURNDATASIZE PUSH1 0x0 REVERT JUMPDEST POP POP POP POP PUSH1 0x40 MLOAD RETURNDATASIZE PUSH1 0x1F NOT PUSH1 0x1F DUP3 ADD AND DUP3 ADD DUP1 PUSH1 0x40 MSTORE POP DUP2 ADD SWAP1 PUSH2 0x16D9 SWAP2 SWAP1 PUSH2 0x5CE1 JUMP JUMPDEST PUSH2 0x3A80 JUMP JUMPDEST PUSH2 0x16E7 DUP2 PUSH2 0x30FA JUMP JUMPDEST PUSH2 0x120 DUP6 ADD MSTORE PUSH2 0x100 DUP5 ADD MSTORE PUSH1 0xE0 DUP4 ADD DUP2 SWAP1 MSTORE PUSH1 0x80 DUP4 ADD MLOAD PUSH2 0x1708 SWAP2 PUSH2 0x5CFA JUMP JUMPDEST PUSH1 0x20 DUP4 ADD DUP2 SWAP1 MSTORE PUSH2 0x171A SWAP1 DUP8 SWAP1 PUSH2 0x37D5 JUMP JUMPDEST PUSH1 0x40 DUP4 ADD DUP2 SWAP1 MSTORE DUP3 MLOAD PUSH2 0x172D SWAP2 SWAP1 PUSH2 0x3B31 JUMP JUMPDEST PUSH1 0x60 DUP4 ADD DUP2 SWAP1 MSTORE DUP6 GT ISZERO PUSH2 0x1777 JUMPI PUSH1 0x40 MLOAD PUSH3 0x461BCD PUSH1 0xE5 SHL DUP2 MSTORE PUSH1 0x20 PUSH1 0x4 DUP3 ADD MSTORE PUSH1 0x11 PUSH1 0x24 DUP3 ADD MSTORE PUSH17 0x746F6F206D75636820736C697070616765 PUSH1 0x78 SHL PUSH1 0x44 DUP3 ADD MSTORE PUSH1 0x64 ADD PUSH2 0x309 JUMP JUMPDEST DUP4 ISZERO PUSH2 0x1951 JUMPI PUSH1 0x60 DUP3 ADD MLOAD PUSH1 0x40 MLOAD PUSH4 0x40C10F19 PUSH1 0xE0 SHL DUP2 MSTORE ADDRESS PUSH1 0x4 DUP3 ADD MSTORE PUSH1 0x24 DUP2 ADD SWAP2 SWAP1 SWAP2 MSTORE PUSH32 0x0 PUSH1 0x1 PUSH1 0x1 PUSH1 0xA0 SHL SUB AND SWAP1 PUSH4 0x40C10F19 SWAP1 PUSH1 0x44 ADD PUSH1 0x20 PUSH1 0x40 MLOAD DUP1 DUP4 SUB DUP2 PUSH1 0x0 DUP8 GAS CALL ISZERO DUP1 ISZERO PUSH2 0x17F0 JUMPI RETURNDATASIZE PUSH1 0x0 DUP1 RETURNDATACOPY RETURNDATASIZE PUSH1 0x0 REVERT JUMPDEST POP POP POP POP PUSH1 0x40 MLOAD RETURNDATASIZE PUSH1 0x1F NOT PUSH1 0x1F DUP3 ADD AND DUP3 ADD DUP1 PUSH1 0x40 MSTORE POP DUP2 ADD SWAP1 PUSH2 0x1814 SWAP2 SWAP1 PUSH2 0x5CE1 JUMP JUMPDEST POP PUSH1 0x0 PUSH32 0x0 PUSH1 0x1 PUSH1 0x1 PUSH1 0xA0 SHL SUB AND PUSH4 0x48439E7E PUSH1 0x40 MLOAD DUP2 PUSH4 0xFFFFFFFF AND PUSH1 0xE0 SHL DUP2 MSTORE PUSH1 0x4 ADD PUSH1 0x20 PUSH1 0x40 MLOAD DUP1 DUP4 SUB DUP2 DUP7 GAS STATICCALL ISZERO DUP1 ISZERO PUSH2 0x1875 JUMPI RETURNDATASIZE PUSH1 0x0 DUP1 RETURNDATACOPY RETURNDATASIZE PUSH1 0x0 REVERT JUMPDEST POP POP POP POP PUSH1 0x40 MLOAD RETURNDATASIZE PUSH1 0x1F NOT PUSH1 0x1F DUP3 ADD AND DUP3 ADD DUP1 PUSH1 0x40 MSTORE POP DUP2 ADD SWAP1 PUSH2 0x1899 SWAP2 SWAP1 PUSH2 0x5C6C JUMP JUMPDEST SWAP1 POP PUSH2 0x18DD DUP2 DUP5 PUSH1 0x60 ADD MLOAD PUSH32 0x0 PUSH1 0x1 PUSH1 0x1 PUSH1 0xA0 SHL SUB AND PUSH2 0x2F1C SWAP1 SWAP3 SWAP2 SWAP1 PUSH4 0xFFFFFFFF AND JUMP JUMPDEST PUSH1 0x60 DUP4 ADD MLOAD PUSH1 0x40 MLOAD PUSH4 0x33F1C337 PUSH1 0xE0 SHL DUP2 MSTORE PUSH1 0x4 DUP2 ADD SWAP2 SWAP1 SWAP2 MSTORE ADDRESS PUSH1 0x24 DUP3 ADD MSTORE PUSH1 0x1 PUSH1 0x1 PUSH1 0xA0 SHL SUB DUP10 DUP2 AND PUSH1 0x44 DUP4 ADD MSTORE DUP3 AND SWAP1 PUSH4 0x33F1C337 SWAP1 PUSH1 0x64 ADD PUSH1 0x0 PUSH1 0x40 MLOAD DUP1 DUP4 SUB DUP2 PUSH1 0x0 DUP8 DUP1 EXTCODESIZE ISZERO DUP1 ISZERO PUSH2 0x1933 JUMPI PUSH1 0x0 DUP1 REVERT JUMPDEST POP GAS CALL ISZERO DUP1 ISZERO PUSH2 0x1947 JUMPI RETURNDATASIZE PUSH1 0x0 DUP1 RETURNDATACOPY RETURNDATASIZE PUSH1 0x0 REVERT JUMPDEST POP POP POP POP POP PUSH2 0x19EE JUMP JUMPDEST PUSH1 0x60 DUP3 ADD MLOAD PUSH1 0x40 MLOAD PUSH4 0x40C10F19 PUSH1 0xE0 SHL DUP2 MSTORE PUSH1 0x1 PUSH1 0x1 PUSH1 0xA0 SHL SUB DUP10 DUP2 AND PUSH1 0x4 DUP4 ADD MSTORE PUSH1 0x24 DUP3 ADD SWAP3 SWAP1 SWAP3 MSTORE PUSH32 0x0 SWAP1 SWAP2 AND SWAP1 PUSH4 0x40C10F19 SWAP1 PUSH1 0x44 ADD PUSH1 0x20 PUSH1 0x40 MLOAD DUP1 DUP4 SUB DUP2 PUSH1 0x0 DUP8 GAS CALL ISZERO DUP1 ISZERO PUSH2 0x19C8 JUMPI RETURNDATASIZE PUSH1 0x0 DUP1 RETURNDATACOPY RETURNDATASIZE PUSH1 0x0 REVERT JUMPDEST POP POP POP POP PUSH1 0x40 MLOAD RETURNDATASIZE PUSH1 0x1F NOT PUSH1 0x1F DUP3 ADD AND DUP3 ADD DUP1 PUSH1 0x40 MSTORE POP DUP2 ADD SWAP1 PUSH2 0x19EC SWAP2 SWAP1 PUSH2 0x5CE1 JUMP JUMPDEST POP JUMPDEST PUSH2 0x1A0D DUP8 DUP4 PUSH1 0xA0 ADD MLOAD DUP5 PUSH1 0xC0 ADD MLOAD DUP6 PUSH2 0x100 ADD MLOAD DUP7 PUSH2 0x120 ADD MLOAD PUSH2 0x3B4A JUMP JUMPDEST PUSH1 0xE0 DUP3 ADD MLOAD PUSH1 0x6 SSTORE TIMESTAMP PUSH1 0x5 SSTORE PUSH1 0x60 DUP3 ADD MLOAD PUSH1 0x40 DUP1 MLOAD DUP9 DUP2 MSTORE PUSH1 0x20 DUP2 ADD SWAP3 SWAP1 SWAP3 MSTORE PUSH1 0x1 PUSH1 0x1 PUSH1 0xA0 SHL SUB DUP10 AND SWAP2 CALLER SWAP2 PUSH32 0xDCBC1C05240F31FF3AD067EF1EE35CE4997762752E3A095284754544F4C709D7 SWAP2 ADD PUSH1 0x40 MLOAD DUP1 SWAP2 SUB SWAP1 LOG3 POP PUSH1 0x60 ADD MLOAD SWAP6 SWAP5 POP POP POP POP POP JUMP JUMPDEST PUSH1 0x60 PUSH2 0x926 PUSH1 0x8 PUSH2 0x3C82 JUMP JUMPDEST PUSH2 0x1A87 PUSH2 0x30A0 JUMP JUMPDEST PUSH2 0x1A91 PUSH1 0x0 PUSH2 0x3C8F JUMP JUMPDEST JUMP JUMPDEST PUSH1 0x0 DUP1 PUSH1 0x0 PUSH2 0x1AA0 PUSH2 0xC1B JUMP JUMPDEST SWAP3 POP SWAP3 POP POP PUSH2 0x1AAF DUP3 DUP3 PUSH2 0x3CDF JUMP JUMPDEST SWAP3 POP POP POP SWAP1 JUMP JUMPDEST PUSH1 0x60 PUSH1 0x0 PUSH2 0x1AC4 PUSH1 0x8 PUSH2 0x3078 JUMP JUMPDEST PUSH8 0xFFFFFFFFFFFFFFFF DUP2 GT ISZERO PUSH2 0x1ADC JUMPI PUSH2 0x1ADC PUSH2 0x5B31 JUMP JUMPDEST PUSH1 0x40 MLOAD SWAP1 DUP1 DUP3 MSTORE DUP1 PUSH1 0x20 MUL PUSH1 0x20 ADD DUP3 ADD PUSH1 0x40 MSTORE DUP1 ISZERO PUSH2 0x1B21 JUMPI DUP2 PUSH1 0x20 ADD JUMPDEST PUSH1 0x40 DUP1 MLOAD DUP1 DUP3 ADD SWAP1 SWAP2 MSTORE PUSH1 0x0 DUP1 DUP3 MSTORE PUSH1 0x20 DUP3 ADD MSTORE DUP2 MSTORE PUSH1 0x20 ADD SWAP1 PUSH1 0x1 SWAP1 SUB SWAP1 DUP2 PUSH2 0x1AFA JUMPI SWAP1 POP JUMPDEST POP SWAP1 POP PUSH1 0x0 PUSH2 0x1B2E PUSH2 0xC1B JUMP JUMPDEST SWAP3 POP POP POP PUSH1 0x0 JUMPDEST DUP3 MLOAD DUP2 LT ISZERO PUSH2 0x1BAF JUMPI PUSH1 0x40 DUP1 MLOAD DUP1 DUP3 ADD SWAP1 SWAP2 MSTORE DUP1 PUSH2 0x1B54 PUSH1 0x8 DUP5 PUSH2 0x3D6B JUMP JUMPDEST PUSH1 0x1 PUSH1 0x1 PUSH1 0xA0 SHL SUB AND DUP2 MSTORE PUSH1 0x20 ADD DUP4 DUP4 DUP2 MLOAD DUP2 LT PUSH2 0x1B74 JUMPI PUSH2 0x1B74 PUSH2 0x5C89 JUMP JUMPDEST PUSH1 0x20 MUL PUSH1 0x20 ADD ADD MLOAD DUP2 MSTORE POP DUP4 DUP3 DUP2 MLOAD DUP2 LT PUSH2 0x1B91 JUMPI PUSH2 0x1B91 PUSH2 0x5C89 JUMP JUMPDEST PUSH1 0x20 MUL PUSH1 0x20 ADD ADD DUP2 SWAP1 MSTORE POP DUP1 DUP1 PUSH2 0x1BA7 SWAP1 PUSH2 0x5CB5 JUMP JUMPDEST SWAP2 POP POP PUSH2 0x1B35 JUMP JUMPDEST POP SWAP1 SWAP3 SWAP2 POP POP JUMP JUMPDEST CALLER PUSH1 0x1 PUSH1 0x1 PUSH1 0xA0 SHL SUB PUSH32 0x0 AND EQ PUSH2 0x1C20 JUMPI PUSH1 0x40 MLOAD PUSH3 0x461BCD PUSH1 0xE5 SHL DUP2 MSTORE PUSH1 0x20 PUSH1 0x4 DUP3 ADD MSTORE PUSH1 0xE PUSH1 0x24 DUP3 ADD MSTORE PUSH14 0x1B9BDD08185D5D1A1BDC9A5E9959 PUSH1 0x92 SHL PUSH1 0x44 DUP3 ADD MSTORE PUSH1 0x64 ADD PUSH2 0x309 JUMP JUMPDEST PUSH2 0x1C2A PUSH1 0x8 PUSH2 0x3078 JUMP JUMPDEST DUP2 MLOAD EQ PUSH2 0x1C70 JUMPI PUSH1 0x40 MLOAD PUSH3 0x461BCD PUSH1 0xE5 SHL DUP2 MSTORE PUSH1 0x20 PUSH1 0x4 DUP3 ADD MSTORE PUSH1 0x14 PUSH1 0x24 DUP3 ADD MSTORE PUSH20 0x696E76616C696420706F6F6C2077656967687473 PUSH1 0x60 SHL PUSH1 0x44 DUP3 ADD MSTORE PUSH1 0x64 ADD PUSH2 0x309 JUMP JUMPDEST PUSH1 0x0 DUP1 JUMPDEST DUP3 MLOAD DUP2 LT ISZERO PUSH2 0x1D8A JUMPI PUSH1 0x0 DUP4 DUP3 DUP2 MLOAD DUP2 LT PUSH2 0x1C91 JUMPI PUSH2 0x1C91 PUSH2 0x5C89 JUMP JUMPDEST PUSH1 0x20 MUL PUSH1 0x20 ADD ADD MLOAD PUSH1 0x0 ADD MLOAD SWAP1 POP PUSH2 0x1CA8 DUP2 PUSH2 0x2086 JUMP JUMPDEST PUSH2 0x1CED JUMPI PUSH1 0x40 MLOAD PUSH3 0x461BCD PUSH1 0xE5 SHL DUP2 MSTORE PUSH1 0x20 PUSH1 0x4 DUP3 ADD MSTORE PUSH1 0x16 PUSH1 0x24 DUP3 ADD MSTORE PUSH22 0x1C1BDBDB081A5CC81B9BDD081C9959DA5CDD195C9959 PUSH1 0x52 SHL PUSH1 0x44 DUP3 ADD MSTORE PUSH1 0x64 ADD PUSH2 0x309 JUMP JUMPDEST PUSH1 0x0 DUP5 DUP4 DUP2 MLOAD DUP2 LT PUSH2 0x1D01 JUMPI PUSH2 0x1D01 PUSH2 0x5C89 JUMP JUMPDEST PUSH1 0x20 MUL PUSH1 0x20 ADD ADD MLOAD PUSH1 0x20 ADD MLOAD SWAP1 POP PUSH2 0x1D25 DUP3 DUP3 PUSH1 0xA PUSH2 0x3D77 SWAP1 SWAP3 SWAP2 SWAP1 PUSH4 0xFFFFFFFF AND JUMP JUMPDEST POP DUP2 PUSH1 0x1 PUSH1 0x1 PUSH1 0xA0 SHL SUB AND PUSH32 0x49175C3467EDEBA7662E939BF84305EAF5084072855B0560F6AC3E145CD172AE DUP3 PUSH1 0x40 MLOAD PUSH2 0x1D61 SWAP2 DUP2 MSTORE PUSH1 0x20 ADD SWAP1 JUMP JUMPDEST PUSH1 0x40 MLOAD DUP1 SWAP2 SUB SWAP1 LOG2 PUSH2 0x1D73 DUP2 DUP6 PUSH2 0x5CCE JUMP JUMPDEST SWAP4 POP POP POP DUP1 DUP1 PUSH2 0x1D82 SWAP1 PUSH2 0x5CB5 JUMP JUMPDEST SWAP2 POP POP PUSH2 0x1C74 JUMP JUMPDEST POP PUSH2 0x1D97 PUSH1 0x12 PUSH1 0xA PUSH2 0x5DE9 JUMP JUMPDEST DUP2 EQ PUSH2 0x1DE5 JUMPI PUSH1 0x40 MLOAD PUSH3 0x461BCD PUSH1 0xE5 SHL DUP2 MSTORE PUSH1 0x20 PUSH1 0x4 DUP3 ADD MSTORE PUSH1 0x17 PUSH1 0x24 DUP3 ADD MSTORE PUSH32 0x7765696768747320646F206E6F742073756D20746F2031000000000000000000 PUSH1 0x44 DUP3 ADD MSTORE PUSH1 0x64 ADD PUSH2 0x309 JUMP JUMPDEST PUSH1 0x0 DUP1 PUSH1 0x0 PUSH2 0x1DF2 PUSH2 0xC1B JUMP JUMPDEST SWAP3 POP SWAP3 POP SWAP3 POP PUSH1 0x0 PUSH2 0x1E04 DUP5 DUP4 PUSH2 0x3CDF JUMP JUMPDEST PUSH1 0xD DUP2 SWAP1 SSTORE SWAP1 POP PUSH2 0x1E15 DUP3 DUP5 PUSH2 0x3D8D JUMP JUMPDEST PUSH1 0x7 DUP1 SLOAD PUSH1 0xFF NOT AND SWAP2 ISZERO SWAP2 SWAP1 SWAP2 OR SWAP1 SSTORE PUSH2 0x1E2D PUSH2 0x4030 JUMP JUMPDEST POP POP POP POP POP POP JUMP JUMPDEST PUSH2 0x1E3E DUP2 PUSH2 0x2086 JUMP JUMPDEST PUSH2 0x1E8A JUMPI PUSH1 0x40 MLOAD PUSH3 0x461BCD PUSH1 0xE5 SHL DUP2 MSTORE PUSH1 0x20 PUSH1 0x4 DUP3 ADD MSTORE PUSH1 0x19 PUSH1 0x24 DUP3 ADD MSTORE PUSH32 0x637572766520706F6F6C206E6F74207265676973746572656400000000000000 PUSH1 0x44 DUP3 ADD MSTORE PUSH1 0x64 ADD PUSH2 0x309 JUMP JUMPDEST PUSH1 0x0 PUSH32 0x0 PUSH1 0x1 PUSH1 0x1 PUSH1 0xA0 SHL SUB AND PUSH4 0x9F82B217 PUSH1 0x40 MLOAD DUP2 PUSH4 0xFFFFFFFF AND PUSH1 0xE0 SHL DUP2 MSTORE PUSH1 0x4 ADD PUSH1 0x20 PUSH1 0x40 MLOAD DUP1 DUP4 SUB DUP2 DUP7 GAS STATICCALL ISZERO DUP1 ISZERO PUSH2 0x1EEA JUMPI RETURNDATASIZE PUSH1 0x0 DUP1 RETURNDATACOPY RETURNDATASIZE PUSH1 0x0 REVERT JUMPDEST POP POP POP POP PUSH1 0x40 MLOAD RETURNDATASIZE PUSH1 0x1F NOT PUSH1 0x1F DUP3 ADD AND DUP3 ADD DUP1 PUSH1 0x40 MSTORE POP DUP2 ADD SWAP1 PUSH2 0x1F0E SWAP2 SWAP1 PUSH2 0x5C6C JUMP JUMPDEST PUSH1 0x40 MLOAD PUSH4 0x43B55F35 PUSH1 0xE0 SHL DUP2 MSTORE PUSH1 0x1 PUSH1 0x1 PUSH1 0xA0 SHL SUB DUP5 DUP2 AND PUSH1 0x4 DUP4 ADD MSTORE SWAP2 SWAP3 POP PUSH1 0x0 SWAP2 DUP4 AND SWAP1 PUSH4 0x43B55F35 SWAP1 PUSH1 0x24 ADD PUSH1 0x20 PUSH1 0x40 MLOAD DUP1 DUP4 SUB DUP2 DUP7 GAS STATICCALL ISZERO DUP1 ISZERO PUSH2 0x1F5A JUMPI RETURNDATASIZE PUSH1 0x0 DUP1 RETURNDATACOPY RETURNDATASIZE PUSH1 0x0 REVERT JUMPDEST POP POP POP POP PUSH1 0x40 MLOAD RETURNDATASIZE PUSH1 0x1F NOT PUSH1 0x1F DUP3 ADD AND DUP3 ADD DUP1 PUSH1 0x40 MSTORE POP DUP2 ADD SWAP1 PUSH2 0x1F7E SWAP2 SWAP1 PUSH2 0x5CE1 JUMP JUMPDEST PUSH1 0x40 MLOAD PUSH4 0x1CEC69E5 PUSH1 0xE1 SHL DUP2 MSTORE PUSH1 0x4 DUP2 ADD DUP3 SWAP1 MSTORE SWAP1 SWAP2 POP PUSH1 0x1 PUSH1 0x1 PUSH1 0xA0 SHL SUB DUP4 AND SWAP1 PUSH4 0x39D8D3CA SWAP1 PUSH1 0x24 ADD PUSH1 0x20 PUSH1 0x40 MLOAD DUP1 DUP4 SUB DUP2 DUP7 GAS STATICCALL ISZERO DUP1 ISZERO PUSH2 0x1FC6 JUMPI RETURNDATASIZE PUSH1 0x0 DUP1 RETURNDATACOPY RETURNDATASIZE PUSH1 0x0 REVERT JUMPDEST POP POP POP POP PUSH1 0x40 MLOAD RETURNDATASIZE PUSH1 0x1F NOT PUSH1 0x1F DUP3 ADD AND DUP3 ADD DUP1 PUSH1 0x40 MSTORE POP DUP2 ADD SWAP1 PUSH2 0x1FEA SWAP2 SWAP1 PUSH2 0x5DF5 JUMP JUMPDEST PUSH2 0x2036 JUMPI PUSH1 0x40 MLOAD PUSH3 0x461BCD PUSH1 0xE5 SHL DUP2 MSTORE PUSH1 0x20 PUSH1 0x4 DUP3 ADD MSTORE PUSH1 0x1B PUSH1 0x24 DUP3 ADD MSTORE PUSH32 0x636F6E76657820706F6F6C207069642069732073687574646F776E0000000000 PUSH1 0x44 DUP3 ADD MSTORE PUSH1 0x64 ADD PUSH2 0x309 JUMP JUMPDEST PUSH2 0x203F DUP4 PUSH2 0x34D8 JUMP JUMPDEST PUSH1 0x40 DUP1 MLOAD PUSH1 0x1 PUSH1 0x1 PUSH1 0xA0 SHL SUB DUP6 AND DUP2 MSTORE PUSH1 0x20 DUP2 ADD DUP4 SWAP1 MSTORE PUSH32 0xB6E3324444A482D3E4041851D767063381C41CD9ABC8A3191A0B61E3896F9443 SWAP2 ADD PUSH1 0x40 MLOAD DUP1 SWAP2 SUB SWAP1 LOG1 POP POP POP JUMP JUMPDEST PUSH1 0x0 PUSH2 0xA1E PUSH1 0x8 DUP4 PUSH2 0x431A JUMP JUMPDEST PUSH1 0x0 PUSH2 0xA1E PUSH1 0xA DUP4 PUSH2 0x334C JUMP JUMPDEST PUSH2 0x20A8 PUSH2 0x30A0 JUMP JUMPDEST DUP1 PUSH1 0x2 SLOAD SUB PUSH2 0x20EB JUMPI PUSH1 0x40 MLOAD PUSH3 0x461BCD PUSH1 0xE5 SHL DUP2 MSTORE PUSH1 0x20 PUSH1 0x4 DUP3 ADD MSTORE PUSH1 0xF PUSH1 0x24 DUP3 ADD MSTORE PUSH15 0x1CD85B5948185CC818DD5C9C995B9D PUSH1 0x8A SHL PUSH1 0x44 DUP3 ADD MSTORE PUSH1 0x64 ADD PUSH2 0x309 JUMP JUMPDEST PUSH8 0x2C68AF0BB140000 DUP2 GT ISZERO PUSH2 0x2143 JUMPI PUSH1 0x40 MLOAD PUSH3 0x461BCD PUSH1 0xE5 SHL DUP2 MSTORE PUSH1 0x20 PUSH1 0x4 DUP3 ADD MSTORE PUSH1 0x19 PUSH1 0x24 DUP3 ADD MSTORE PUSH32 0x726174696F206578636565647320757070657220626F756E6400000000000000 PUSH1 0x44 DUP3 ADD MSTORE PUSH1 0x64 ADD PUSH2 0x309 JUMP JUMPDEST PUSH1 0x2 DUP2 SWAP1 SSTORE PUSH1 0x40 MLOAD DUP2 DUP2 MSTORE PUSH32 0xCF75D305993755A06325155BDFF6A203FF5EB28A3561E219588AEB6ABA8B3B54 SWAP1 PUSH1 0x20 ADD PUSH2 0xC10 JUMP JUMPDEST PUSH1 0x0 PUSH2 0xA1E PUSH1 0x8 DUP4 PUSH2 0x3D6B JUMP JUMPDEST PUSH1 0x0 DUP1 PUSH2 0x2190 PUSH2 0xC1B JUMP JUMPDEST POP SWAP1 SWAP4 SWAP3 POP POP POP JUMP JUMPDEST PUSH1 0x0 DUP1 PUSH1 0x0 PUSH2 0x21A6 PUSH2 0xC1B JUMP JUMPDEST SWAP3 POP SWAP3 POP POP PUSH2 0x1AAF DUP2 DUP4 PUSH2 0x3D8D JUMP JUMPDEST PUSH1 0x0 DUP1 PUSH32 0x0 PUSH1 0x1 PUSH1 0x1 PUSH1 0xA0 SHL SUB AND PUSH4 0x2630C12F PUSH1 0x40 MLOAD DUP2 PUSH4 0xFFFFFFFF AND PUSH1 0xE0 SHL DUP2 MSTORE PUSH1 0x4 ADD PUSH1 0x20 PUSH1 0x40 MLOAD DUP1 DUP4 SUB DUP2 DUP7 GAS STATICCALL ISZERO DUP1 ISZERO PUSH2 0x2216 JUMPI RETURNDATASIZE PUSH1 0x0 DUP1 RETURNDATACOPY RETURNDATASIZE PUSH1 0x0 REVERT JUMPDEST POP POP POP POP PUSH1 0x40 MLOAD RETURNDATASIZE PUSH1 0x1F NOT PUSH1 0x1F DUP3 ADD AND DUP3 ADD DUP1 PUSH1 0x40 MSTORE POP DUP2 ADD SWAP1 PUSH2 0x223A SWAP2 SWAP1 PUSH2 0x5C6C JUMP JUMPDEST PUSH1 0x40 MLOAD PUSH4 0x8B2F0F4F PUSH1 0xE0 SHL DUP2 MSTORE PUSH1 0x1 PUSH1 0x1 PUSH1 0xA0 SHL SUB PUSH32 0x0 DUP2 AND PUSH1 0x4 DUP4 ADD MSTORE SWAP2 SWAP1 SWAP2 AND SWAP1 PUSH4 0x8B2F0F4F SWAP1 PUSH1 0x24 ADD PUSH1 0x20 PUSH1 0x40 MLOAD DUP1 DUP4 SUB DUP2 DUP7 GAS STATICCALL ISZERO DUP1 ISZERO PUSH2 0x22A2 JUMPI RETURNDATASIZE PUSH1 0x0 DUP1 RETURNDATACOPY RETURNDATASIZE PUSH1 0x0 REVERT JUMPDEST POP POP POP POP PUSH1 0x40 MLOAD RETURNDATASIZE PUSH1 0x1F NOT PUSH1 0x1F DUP3 ADD AND DUP3 ADD DUP1 PUSH1 0x40 MSTORE POP DUP2 ADD SWAP1 PUSH2 0x22C6 SWAP2 SWAP1 PUSH2 0x5CE1 JUMP JUMPDEST SWAP1 POP PUSH2 0x22DD DUP2 PUSH2 0x22D7 PUSH1 0x6 SLOAD PUSH2 0x366A JUMP JUMPDEST SWAP1 PUSH2 0x3717 JUMP JUMPDEST SWAP2 POP POP SWAP1 JUMP JUMPDEST CALLER PUSH1 0x1 PUSH1 0x1 PUSH1 0xA0 SHL SUB PUSH32 0x0 AND EQ PUSH2 0x234C JUMPI PUSH1 0x40 MLOAD PUSH3 0x461BCD PUSH1 0xE5 SHL DUP2 MSTORE PUSH1 0x20 PUSH1 0x4 DUP3 ADD MSTORE PUSH1 0xE PUSH1 0x24 DUP3 ADD MSTORE PUSH14 0x1B9BDD08185D5D1A1BDC9A5E9959 PUSH1 0x92 SHL PUSH1 0x44 DUP3 ADD MSTORE PUSH1 0x64 ADD PUSH2 0x309 JUMP JUMPDEST PUSH1 0x3 SLOAD PUSH1 0xFF AND ISZERO PUSH2 0x2397 JUMPI PUSH1 0x40 MLOAD PUSH3 0x461BCD PUSH1 0xE5 SHL DUP2 MSTORE PUSH1 0x20 PUSH1 0x4 DUP3 ADD MSTORE PUSH1 0x15 PUSH1 0x24 DUP3 ADD MSTORE PUSH21 0x3837B7B61030B63932B0B23C9039B43ABA3237BBB7 PUSH1 0x59 SHL PUSH1 0x44 DUP3 ADD MSTORE PUSH1 0x64 ADD PUSH2 0x309 JUMP JUMPDEST PUSH1 0x3 DUP1 SLOAD PUSH1 0xFF NOT AND PUSH1 0x1 OR SWAP1 SSTORE PUSH1 0x40 MLOAD PUSH32 0x4426AA1FB73E391071491FCFE21A88B5C38A0A0333A1F6E77161470439704CF8 SWAP1 PUSH1 0x0 SWAP1 LOG1 JUMP JUMPDEST PUSH2 0x23D7 PUSH2 0x30A0 JUMP JUMPDEST PUSH2 0x23E2 PUSH1 0x8 DUP3 PUSH2 0x431A JUMP JUMPDEST PUSH2 0x241F JUMPI PUSH1 0x40 MLOAD PUSH3 0x461BCD PUSH1 0xE5 SHL DUP2 MSTORE PUSH1 0x20 PUSH1 0x4 DUP3 ADD MSTORE PUSH1 0xE PUSH1 0x24 DUP3 ADD MSTORE PUSH14 0x1C1BDBDB081B9BDD081859191959 PUSH1 0x92 SHL PUSH1 0x44 DUP3 ADD MSTORE PUSH1 0x64 ADD PUSH2 0x309 JUMP JUMPDEST PUSH1 0x1 PUSH2 0x242B PUSH1 0x8 PUSH2 0x3078 JUMP JUMPDEST GT PUSH2 0x2478 JUMPI PUSH1 0x40 MLOAD PUSH3 0x461BCD PUSH1 0xE5 SHL DUP2 MSTORE PUSH1 0x20 PUSH1 0x4 DUP3 ADD MSTORE PUSH1 0x17 PUSH1 0x24 DUP3 ADD MSTORE PUSH32 0x63616E6E6F742072656D6F7665206C61737420706F6F6C000000000000000000 PUSH1 0x44 DUP3 ADD MSTORE PUSH1 0x64 ADD PUSH2 0x309 JUMP JUMPDEST PUSH1 0x0 PUSH32 0x0 PUSH1 0x1 PUSH1 0x1 PUSH1 0xA0 SHL SUB AND PUSH4 0x9F82B217 PUSH1 0x40 MLOAD DUP2 PUSH4 0xFFFFFFFF AND PUSH1 0xE0 SHL DUP2 MSTORE PUSH1 0x4 ADD PUSH1 0x20 PUSH1 0x40 MLOAD DUP1 DUP4 SUB DUP2 DUP7 GAS STATICCALL ISZERO DUP1 ISZERO PUSH2 0x24D8 JUMPI RETURNDATASIZE PUSH1 0x0 DUP1 RETURNDATACOPY RETURNDATASIZE PUSH1 0x0 REVERT JUMPDEST POP POP POP POP PUSH1 0x40 MLOAD RETURNDATASIZE PUSH1 0x1F NOT PUSH1 0x1F DUP3 ADD AND DUP3 ADD DUP1 PUSH1 0x40 MSTORE POP DUP2 ADD SWAP1 PUSH2 0x24FC SWAP2 SWAP1 PUSH2 0x5C6C JUMP JUMPDEST PUSH1 0x40 MLOAD PUSH4 0x1DA958A9 PUSH1 0xE2 SHL DUP2 MSTORE PUSH1 0x1 PUSH1 0x1 PUSH1 0xA0 SHL SUB DUP5 DUP2 AND PUSH1 0x4 DUP4 ADD MSTORE SWAP2 SWAP1 SWAP2 AND SWAP1 PUSH4 0x76A562A4 SWAP1 PUSH1 0x24 ADD PUSH1 0x20 PUSH1 0x40 MLOAD DUP1 DUP4 SUB DUP2 DUP7 GAS STATICCALL ISZERO DUP1 ISZERO PUSH2 0x2544 JUMPI RETURNDATASIZE PUSH1 0x0 DUP1 RETURNDATACOPY RETURNDATASIZE PUSH1 0x0 REVERT JUMPDEST POP POP POP POP PUSH1 0x40 MLOAD RETURNDATASIZE PUSH1 0x1F NOT PUSH1 0x1F DUP3 ADD AND DUP3 ADD DUP1 PUSH1 0x40 MSTORE POP DUP2 ADD SWAP1 PUSH2 0x2568 SWAP2 SWAP1 PUSH2 0x5C6C JUMP JUMPDEST SWAP1 POP PUSH1 0x0 PUSH32 0x0 PUSH1 0x1 PUSH1 0x1 PUSH1 0xA0 SHL SUB AND PUSH4 0x2630C12F PUSH1 0x40 MLOAD DUP2 PUSH4 0xFFFFFFFF AND PUSH1 0xE0 SHL DUP2 MSTORE PUSH1 0x4 ADD PUSH1 0x20 PUSH1 0x40 MLOAD DUP1 DUP4 SUB DUP2 DUP7 GAS STATICCALL ISZERO DUP1 ISZERO PUSH2 0x25CA JUMPI RETURNDATASIZE PUSH1 0x0 DUP1 RETURNDATACOPY RETURNDATASIZE PUSH1 0x0 REVERT JUMPDEST POP POP POP POP PUSH1 0x40 MLOAD RETURNDATASIZE PUSH1 0x1F NOT PUSH1 0x1F DUP3 ADD AND DUP3 ADD DUP1 PUSH1 0x40 MSTORE POP DUP2 ADD SWAP1 PUSH2 0x25EE SWAP2 SWAP1 PUSH2 0x5C6C JUMP JUMPDEST PUSH1 0x40 MLOAD PUSH4 0x8B2F0F4F PUSH1 0xE0 SHL DUP2 MSTORE PUSH1 0x1 PUSH1 0x1 PUSH1 0xA0 SHL SUB DUP5 DUP2 AND PUSH1 0x4 DUP4 ADD MSTORE SWAP2 SWAP1 SWAP2 AND SWAP1 PUSH4 0x8B2F0F4F SWAP1 PUSH1 0x24 ADD PUSH1 0x20 PUSH1 0x40 MLOAD DUP1 DUP4 SUB DUP2 DUP7 GAS STATICCALL ISZERO DUP1 ISZERO PUSH2 0x2636 JUMPI RETURNDATASIZE PUSH1 0x0 DUP1 RETURNDATACOPY RETURNDATASIZE PUSH1 0x0 REVERT JUMPDEST POP POP POP POP PUSH1 0x40 MLOAD RETURNDATASIZE PUSH1 0x1F NOT PUSH1 0x1F DUP3 ADD AND DUP3 ADD DUP1 PUSH1 0x40 MSTORE POP DUP2 ADD SWAP1 PUSH2 0x265A SWAP2 SWAP1 PUSH2 0x5CE1 JUMP JUMPDEST SWAP1 POP PUSH1 0x0 PUSH2 0x266B DUP3 PUSH2 0x22D7 DUP7 PUSH2 0x13C9 JUMP JUMPDEST SWAP1 POP PUSH9 0x56BC75E2D63100000 DUP2 LT PUSH2 0x26C5 JUMPI PUSH1 0x40 MLOAD PUSH3 0x461BCD PUSH1 0xE5 SHL DUP2 MSTORE PUSH1 0x20 PUSH1 0x4 DUP3 ADD MSTORE PUSH1 0x18 PUSH1 0x24 DUP3 ADD MSTORE PUSH32 0x706F6F6C2068617320616C6C6F63617465642066756E64730000000000000000 PUSH1 0x44 DUP3 ADD MSTORE PUSH1 0x64 ADD PUSH2 0x309 JUMP JUMPDEST PUSH1 0x0 PUSH2 0x26D2 PUSH1 0xA DUP7 PUSH2 0x334C JUMP JUMPDEST SWAP1 POP PUSH2 0x276B PUSH32 0x0 PUSH1 0x1 PUSH1 0x1 PUSH1 0xA0 SHL SUB AND PUSH4 0x2CDACB50 PUSH1 0x40 MLOAD DUP2 PUSH4 0xFFFFFFFF AND PUSH1 0xE0 SHL DUP2 MSTORE PUSH1 0x4 ADD PUSH1 0x20 PUSH1 0x40 MLOAD DUP1 DUP4 SUB DUP2 DUP7 GAS STATICCALL ISZERO DUP1 ISZERO PUSH2 0x2735 JUMPI RETURNDATASIZE PUSH1 0x0 DUP1 RETURNDATACOPY RETURNDATASIZE PUSH1 0x0 REVERT JUMPDEST POP POP POP POP PUSH1 0x40 MLOAD RETURNDATASIZE PUSH1 0x1F NOT PUSH1 0x1F DUP3 ADD AND DUP3 ADD DUP1 PUSH1 0x40 MSTORE POP DUP2 ADD SWAP1 PUSH2 0x2759 SWAP2 SWAP1 PUSH2 0x5C6C JUMP JUMPDEST PUSH1 0x1 PUSH1 0x1 PUSH1 0xA0 SHL SUB DUP7 AND SWAP1 PUSH1 0x0 PUSH2 0x2F1C JUMP JUMPDEST DUP1 ISZERO PUSH2 0x27AF JUMPI PUSH1 0x40 MLOAD PUSH3 0x461BCD PUSH1 0xE5 SHL DUP2 MSTORE PUSH1 0x20 PUSH1 0x4 DUP3 ADD MSTORE PUSH1 0x13 PUSH1 0x24 DUP3 ADD MSTORE PUSH19 0x1C1BDBDB081A185CC81DD95A59DA1D081CD95D PUSH1 0x6A SHL PUSH1 0x44 DUP3 ADD MSTORE PUSH1 0x64 ADD PUSH2 0x309 JUMP JUMPDEST PUSH2 0x27BA PUSH1 0x8 DUP7 PUSH2 0x433C JUMP JUMPDEST PUSH2 0x27F9 JUMPI PUSH1 0x40 MLOAD PUSH3 0x461BCD PUSH1 0xE5 SHL DUP2 MSTORE PUSH1 0x20 PUSH1 0x4 DUP3 ADD MSTORE PUSH1 0x10 PUSH1 0x24 DUP3 ADD MSTORE PUSH16 0x1C1BDBDB081B9BDD081C995B5BDD9959 PUSH1 0x82 SHL PUSH1 0x44 DUP3 ADD MSTORE PUSH1 0x64 ADD PUSH2 0x309 JUMP JUMPDEST PUSH2 0x2804 PUSH1 0xA DUP7 PUSH2 0x4351 JUMP JUMPDEST PUSH2 0x2845 JUMPI PUSH1 0x40 MLOAD PUSH3 0x461BCD PUSH1 0xE5 SHL DUP2 MSTORE PUSH1 0x20 PUSH1 0x4 DUP3 ADD MSTORE PUSH1 0x12 PUSH1 0x24 DUP3 ADD MSTORE PUSH18 0x1DD95A59DA1D081B9BDD081C995B5BDD9959 PUSH1 0x72 SHL PUSH1 0x44 DUP3 ADD MSTORE PUSH1 0x64 ADD PUSH2 0x309 JUMP JUMPDEST PUSH1 0x40 MLOAD PUSH1 0x1 PUSH1 0x1 PUSH1 0xA0 SHL SUB DUP7 AND DUP2 MSTORE PUSH32 0xCA2456580E344539A90D4D0369FC77866A3135141E2E51621B88D2F010C6BBE2 SWAP1 PUSH1 0x20 ADD JUMPDEST PUSH1 0x40 MLOAD DUP1 SWAP2 SUB SWAP1 LOG1 POP POP POP POP POP JUMP JUMPDEST PUSH2 0x2891 PUSH2 0x30A0 JUMP JUMPDEST DUP1 PUSH1 0x1 SLOAD SUB PUSH2 0x28D4 JUMPI PUSH1 0x40 MLOAD PUSH3 0x461BCD PUSH1 0xE5 SHL DUP2 MSTORE PUSH1 0x20 PUSH1 0x4 DUP3 ADD MSTORE PUSH1 0xF PUSH1 0x24 DUP3 ADD MSTORE PUSH15 0x1CD85B5948185CC818DD5C9C995B9D PUSH1 0x8A SHL PUSH1 0x44 DUP3 ADD MSTORE PUSH1 0x64 ADD PUSH2 0x309 JUMP JUMPDEST PUSH8 0x2C68AF0BB140000 DUP2 GT ISZERO PUSH2 0x292C JUMPI PUSH1 0x40 MLOAD PUSH3 0x461BCD PUSH1 0xE5 SHL DUP2 MSTORE PUSH1 0x20 PUSH1 0x4 DUP3 ADD MSTORE PUSH1 0x1D PUSH1 0x24 DUP3 ADD MSTORE PUSH32 0x646576696174696F6E206578636565647320757070657220626F756E64000000 PUSH1 0x44 DUP3 ADD MSTORE PUSH1 0x64 ADD PUSH2 0x309 JUMP JUMPDEST PUSH1 0x1 DUP2 SWAP1 SSTORE PUSH1 0x40 MLOAD DUP2 DUP2 MSTORE PUSH32 0x3F9EF5ED5D378EF819698E4B3C710D362F981F90087B428B7A1EE1E716D689D5 SWAP1 PUSH1 0x20 ADD PUSH2 0xC10 JUMP JUMPDEST PUSH1 0x0 DUP1 PUSH1 0x0 PUSH2 0x296E PUSH2 0xC1B JUMP JUMPDEST SWAP3 POP SWAP3 POP POP DUP2 PUSH1 0x0 SUB PUSH2 0x2984 JUMPI PUSH1 0x0 SWAP3 POP POP POP SWAP1 JUMP JUMPDEST PUSH1 0x0 PUSH2 0x2990 DUP4 DUP4 PUSH2 0x3CDF JUMP JUMPDEST SWAP1 POP PUSH2 0x299C DUP2 DUP5 PUSH2 0x3B31 JUMP JUMPDEST SWAP4 POP POP POP POP SWAP1 JUMP JUMPDEST PUSH1 0x0 PUSH2 0xA1B CALLER DUP5 DUP5 PUSH1 0x1 PUSH2 0x13E7 JUMP JUMPDEST PUSH2 0x29BB PUSH2 0x30A0 JUMP JUMPDEST PUSH1 0x1 PUSH1 0x1 PUSH1 0xA0 SHL SUB DUP2 AND PUSH2 0x2A20 JUMPI PUSH1 0x40 MLOAD PUSH3 0x461BCD PUSH1 0xE5 SHL DUP2 MSTORE PUSH1 0x20 PUSH1 0x4 DUP3 ADD MSTORE PUSH1 0x26 PUSH1 0x24 DUP3 ADD MSTORE PUSH32 0x4F776E61626C653A206E6577206F776E657220697320746865207A65726F2061 PUSH1 0x44 DUP3 ADD MSTORE PUSH6 0x646472657373 PUSH1 0xD0 SHL PUSH1 0x64 DUP3 ADD MSTORE PUSH1 0x84 ADD PUSH2 0x309 JUMP JUMPDEST PUSH2 0x2A29 DUP2 PUSH2 0x3C8F JUMP JUMPDEST POP JUMP JUMPDEST PUSH2 0x2A34 PUSH2 0x30A0 JUMP JUMPDEST PUSH2 0x2A3F PUSH1 0x8 DUP3 PUSH2 0x431A JUMP JUMPDEST ISZERO PUSH2 0x2A81 JUMPI PUSH1 0x40 MLOAD PUSH3 0x461BCD PUSH1 0xE5 SHL DUP2 MSTORE PUSH1 0x20 PUSH1 0x4 DUP3 ADD MSTORE PUSH1 0x12 PUSH1 0x24 DUP3 ADD MSTORE PUSH18 0x1C1BDBDB08185B1C9958591E481859191959 PUSH1 0x72 SHL PUSH1 0x44 DUP3 ADD MSTORE PUSH1 0x64 ADD PUSH2 0x309 JUMP JUMPDEST PUSH1 0x0 PUSH32 0x0 PUSH1 0x1 PUSH1 0x1 PUSH1 0xA0 SHL SUB AND PUSH4 0x9F82B217 PUSH1 0x40 MLOAD DUP2 PUSH4 0xFFFFFFFF AND PUSH1 0xE0 SHL DUP2 MSTORE PUSH1 0x4 ADD PUSH1 0x20 PUSH1 0x40 MLOAD DUP1 DUP4 SUB DUP2 DUP7 GAS STATICCALL ISZERO DUP1 ISZERO PUSH2 0x2AE1 JUMPI RETURNDATASIZE PUSH1 0x0 DUP1 RETURNDATACOPY RETURNDATASIZE PUSH1 0x0 REVERT JUMPDEST POP POP POP POP PUSH1 0x40 MLOAD RETURNDATASIZE PUSH1 0x1F NOT PUSH1 0x1F DUP3 ADD AND DUP3 ADD DUP1 PUSH1 0x40 MSTORE POP DUP2 ADD SWAP1 PUSH2 0x2B05 SWAP2 SWAP1 PUSH2 0x5C6C JUMP JUMPDEST PUSH1 0x40 MLOAD PUSH4 0xF7D372F1 PUSH1 0xE0 SHL DUP2 MSTORE PUSH1 0x1 PUSH1 0x1 PUSH1 0xA0 SHL SUB DUP5 DUP2 AND PUSH1 0x4 DUP4 ADD MSTORE SWAP2 SWAP3 POP SWAP1 DUP3 AND SWAP1 PUSH4 0xF7D372F1 SWAP1 PUSH1 0x24 ADD PUSH1 0x0 PUSH1 0x40 MLOAD DUP1 DUP4 SUB DUP2 PUSH1 0x0 DUP8 DUP1 EXTCODESIZE ISZERO DUP1 ISZERO PUSH2 0x2B4C JUMPI PUSH1 0x0 DUP1 REVERT JUMPDEST POP GAS CALL ISZERO DUP1 ISZERO PUSH2 0x2B60 JUMPI RETURNDATASIZE PUSH1 0x0 DUP1 RETURNDATACOPY RETURNDATASIZE PUSH1 0x0 REVERT JUMPDEST POP POP PUSH1 0x40 MLOAD PUSH4 0xEFFD7081 PUSH1 0xE0 SHL DUP2 MSTORE PUSH1 0x1 PUSH1 0x1 PUSH1 0xA0 SHL SUB DUP6 DUP2 AND PUSH1 0x4 DUP4 ADD MSTORE PUSH32 0x0 DUP2 AND PUSH1 0x24 DUP4 ADD MSTORE PUSH1 0x0 SWAP4 POP DUP5 AND SWAP2 POP PUSH4 0xEFFD7081 SWAP1 PUSH1 0x44 ADD PUSH1 0x20 PUSH1 0x40 MLOAD DUP1 DUP4 SUB DUP2 DUP7 GAS STATICCALL ISZERO DUP1 ISZERO PUSH2 0x2BD5 JUMPI RETURNDATASIZE PUSH1 0x0 DUP1 RETURNDATACOPY RETURNDATASIZE PUSH1 0x0 REVERT JUMPDEST POP POP POP POP PUSH1 0x40 MLOAD RETURNDATASIZE PUSH1 0x1F NOT PUSH1 0x1F DUP3 ADD AND DUP3 ADD DUP1 PUSH1 0x40 MSTORE POP DUP2 ADD SWAP1 PUSH2 0x2BF9 SWAP2 SWAP1 PUSH2 0x5DF5 JUMP JUMPDEST SWAP1 POP DUP1 PUSH2 0x2C3B JUMPI PUSH1 0x40 MLOAD PUSH3 0x461BCD PUSH1 0xE5 SHL DUP2 MSTORE PUSH1 0x20 PUSH1 0x4 DUP3 ADD MSTORE PUSH1 0x10 PUSH1 0x24 DUP3 ADD MSTORE PUSH16 0x18DBDA5B881B9BDD081A5B881C1BDBDB PUSH1 0x82 SHL PUSH1 0x44 DUP3 ADD MSTORE PUSH1 0x64 ADD PUSH2 0x309 JUMP JUMPDEST PUSH1 0x40 MLOAD PUSH4 0x1DA958A9 PUSH1 0xE2 SHL DUP2 MSTORE PUSH1 0x1 PUSH1 0x1 PUSH1 0xA0 SHL SUB DUP5 DUP2 AND PUSH1 0x4 DUP4 ADD MSTORE PUSH1 0x0 SWAP2 SWAP1 DUP5 AND SWAP1 PUSH4 0x76A562A4 SWAP1 PUSH1 0x24 ADD PUSH1 0x20 PUSH1 0x40 MLOAD DUP1 DUP4 SUB DUP2 DUP7 GAS STATICCALL ISZERO DUP1 ISZERO PUSH2 0x2C85 JUMPI RETURNDATASIZE PUSH1 0x0 DUP1 RETURNDATACOPY RETURNDATASIZE PUSH1 0x0 REVERT JUMPDEST POP POP POP POP PUSH1 0x40 MLOAD RETURNDATASIZE PUSH1 0x1F NOT PUSH1 0x1F DUP3 ADD AND DUP3 ADD DUP1 PUSH1 0x40 MSTORE POP DUP2 ADD SWAP1 PUSH2 0x2CA9 SWAP2 SWAP1 PUSH2 0x5C6C JUMP JUMPDEST SWAP1 POP PUSH32 0x0 PUSH1 0x1 PUSH1 0x1 PUSH1 0xA0 SHL SUB AND PUSH4 0x2630C12F PUSH1 0x40 MLOAD DUP2 PUSH4 0xFFFFFFFF AND PUSH1 0xE0 SHL DUP2 MSTORE PUSH1 0x4 ADD PUSH1 0x20 PUSH1 0x40 MLOAD DUP1 DUP4 SUB DUP2 DUP7 GAS STATICCALL ISZERO DUP1 ISZERO PUSH2 0x2D09 JUMPI RETURNDATASIZE PUSH1 0x0 DUP1 RETURNDATACOPY RETURNDATASIZE PUSH1 0x0 REVERT JUMPDEST POP POP POP POP PUSH1 0x40 MLOAD RETURNDATASIZE PUSH1 0x1F NOT PUSH1 0x1F DUP3 ADD AND DUP3 ADD DUP1 PUSH1 0x40 MSTORE POP DUP2 ADD SWAP1 PUSH2 0x2D2D SWAP2 SWAP1 PUSH2 0x5C6C JUMP JUMPDEST PUSH1 0x40 MLOAD PUSH4 0x75151B63 PUSH1 0xE0 SHL DUP2 MSTORE PUSH1 0x1 PUSH1 0x1 PUSH1 0xA0 SHL SUB DUP4 DUP2 AND PUSH1 0x4 DUP4 ADD MSTORE SWAP2 SWAP1 SWAP2 AND SWAP1 PUSH4 0x75151B63 SWAP1 PUSH1 0x24 ADD PUSH1 0x20 PUSH1 0x40 MLOAD DUP1 DUP4 SUB DUP2 DUP7 GAS STATICCALL ISZERO DUP1 ISZERO PUSH2 0x2D75 JUMPI RETURNDATASIZE PUSH1 0x0 DUP1 RETURNDATACOPY RETURNDATASIZE PUSH1 0x0 REVERT JUMPDEST POP POP POP POP PUSH1 0x40 MLOAD RETURNDATASIZE PUSH1 0x1F NOT PUSH1 0x1F DUP3 ADD AND DUP3 ADD DUP1 PUSH1 0x40 MSTORE POP DUP2 ADD SWAP1 PUSH2 0x2D99 SWAP2 SWAP1 PUSH2 0x5DF5 JUMP JUMPDEST PUSH2 0x2DDD JUMPI PUSH1 0x40 MLOAD PUSH3 0x461BCD PUSH1 0xE5 SHL DUP2 MSTORE PUSH1 0x20 PUSH1 0x4 DUP3 ADD MSTORE PUSH1 0x15 PUSH1 0x24 DUP3 ADD MSTORE PUSH21 0x31B0B73737BA10383934B1B2902628102A37B5B2B7 PUSH1 0x59 SHL PUSH1 0x44 DUP3 ADD MSTORE PUSH1 0x64 ADD PUSH2 0x309 JUMP JUMPDEST PUSH1 0x0 PUSH32 0x0 PUSH1 0x1 PUSH1 0x1 PUSH1 0xA0 SHL SUB AND PUSH4 0x2CDACB50 PUSH1 0x40 MLOAD DUP2 PUSH4 0xFFFFFFFF AND PUSH1 0xE0 SHL DUP2 MSTORE PUSH1 0x4 ADD PUSH1 0x20 PUSH1 0x40 MLOAD DUP1 DUP4 SUB DUP2 DUP7 GAS STATICCALL ISZERO DUP1 ISZERO PUSH2 0x2E3D JUMPI RETURNDATASIZE PUSH1 0x0 DUP1 RETURNDATACOPY RETURNDATASIZE PUSH1 0x0 REVERT JUMPDEST POP POP POP POP PUSH1 0x40 MLOAD RETURNDATASIZE PUSH1 0x1F NOT PUSH1 0x1F DUP3 ADD AND DUP3 ADD DUP1 PUSH1 0x40 MSTORE POP DUP2 ADD SWAP1 PUSH2 0x2E61 SWAP2 SWAP1 PUSH2 0x5C6C JUMP JUMPDEST SWAP1 POP PUSH2 0x2E79 PUSH1 0x1 PUSH1 0x1 PUSH1 0xA0 SHL SUB DUP4 AND DUP3 PUSH1 0x0 NOT PUSH2 0x2F1C JUMP JUMPDEST PUSH2 0x2E84 PUSH1 0xA DUP7 PUSH2 0x4366 JUMP JUMPDEST PUSH2 0x2E97 JUMPI PUSH2 0x2E95 PUSH1 0xA DUP7 PUSH1 0x0 PUSH2 0x3D77 JUMP JUMPDEST POP JUMPDEST PUSH2 0x2EA2 PUSH1 0x8 DUP7 PUSH2 0x437B JUMP JUMPDEST PUSH2 0x2EE3 JUMPI PUSH1 0x40 MLOAD PUSH3 0x461BCD PUSH1 0xE5 SHL DUP2 MSTORE PUSH1 0x20 PUSH1 0x4 DUP3 ADD MSTORE PUSH1 0x12 PUSH1 0x24 DUP3 ADD MSTORE PUSH18 0x19985A5B1959081D1BC8185919081C1BDBDB PUSH1 0x72 SHL PUSH1 0x44 DUP3 ADD MSTORE PUSH1 0x64 ADD PUSH2 0x309 JUMP JUMPDEST PUSH1 0x40 MLOAD PUSH1 0x1 PUSH1 0x1 PUSH1 0xA0 SHL SUB DUP7 AND DUP2 MSTORE PUSH32 0xBADAD752E47B51D72487F7881B9BAA7C0ED207B8D84F37C0E23EB0A6D67E5B15 SWAP1 PUSH1 0x20 ADD PUSH2 0x287A JUMP JUMPDEST DUP1 ISZERO DUP1 PUSH2 0x2F96 JUMPI POP PUSH1 0x40 MLOAD PUSH4 0x6EB1769F PUSH1 0xE1 SHL DUP2 MSTORE ADDRESS PUSH1 0x4 DUP3 ADD MSTORE PUSH1 0x1 PUSH1 0x1 PUSH1 0xA0 SHL SUB DUP4 DUP2 AND PUSH1 0x24 DUP4 ADD MSTORE DUP5 AND SWAP1 PUSH4 0xDD62ED3E SWAP1 PUSH1 0x44 ADD PUSH1 0x20 PUSH1 0x40 MLOAD DUP1 DUP4 SUB DUP2 DUP7 GAS STATICCALL ISZERO DUP1 ISZERO PUSH2 0x2F70 JUMPI RETURNDATASIZE PUSH1 0x0 DUP1 RETURNDATACOPY RETURNDATASIZE PUSH1 0x0 REVERT JUMPDEST POP POP POP POP PUSH1 0x40 MLOAD RETURNDATASIZE PUSH1 0x1F NOT PUSH1 0x1F DUP3 ADD AND DUP3 ADD DUP1 PUSH1 0x40 MSTORE POP DUP2 ADD SWAP1 PUSH2 0x2F94 SWAP2 SWAP1 PUSH2 0x5CE1 JUMP JUMPDEST ISZERO JUMPDEST PUSH2 0x3001 JUMPI PUSH1 0x40 MLOAD PUSH3 0x461BCD PUSH1 0xE5 SHL DUP2 MSTORE PUSH1 0x20 PUSH1 0x4 DUP3 ADD MSTORE PUSH1 0x36 PUSH1 0x24 DUP3 ADD MSTORE PUSH32 0x5361666545524332303A20617070726F76652066726F6D206E6F6E2D7A65726F PUSH1 0x44 DUP3 ADD MSTORE PUSH22 0x20746F206E6F6E2D7A65726F20616C6C6F77616E6365 PUSH1 0x50 SHL PUSH1 0x64 DUP3 ADD MSTORE PUSH1 0x84 ADD PUSH2 0x309 JUMP JUMPDEST PUSH1 0x40 MLOAD PUSH1 0x1 PUSH1 0x1 PUSH1 0xA0 SHL SUB DUP4 AND PUSH1 0x24 DUP3 ADD MSTORE PUSH1 0x44 DUP2 ADD DUP3 SWAP1 MSTORE PUSH2 0x3064 SWAP1 DUP5 SWAP1 PUSH4 0x95EA7B3 PUSH1 0xE0 SHL SWAP1 PUSH1 0x64 ADD JUMPDEST PUSH1 0x40 DUP1 MLOAD PUSH1 0x1F NOT DUP2 DUP5 SUB ADD DUP2 MSTORE SWAP2 SWAP1 MSTORE PUSH1 0x20 DUP2 ADD DUP1 MLOAD PUSH1 0x1 PUSH1 0x1 PUSH1 0xE0 SHL SUB AND PUSH1 0x1 PUSH1 0x1 PUSH1 0xE0 SHL SUB NOT SWAP1 SWAP4 AND SWAP3 SWAP1 SWAP3 OR SWAP1 SWAP2 MSTORE PUSH2 0x4390 JUMP JUMPDEST POP POP POP JUMP JUMPDEST PUSH1 0x60 PUSH2 0x100A DUP5 DUP5 PUSH1 0x0 DUP6 PUSH2 0x4462 JUMP JUMPDEST PUSH1 0x0 PUSH2 0xA1E DUP3 SLOAD SWAP1 JUMP JUMPDEST PUSH1 0x0 DUP1 DUP1 DUP1 PUSH2 0x3091 DUP7 DUP7 PUSH2 0x453D JUMP JUMPDEST SWAP1 SWAP5 POP SWAP3 POP POP POP JUMPDEST SWAP3 POP SWAP3 SWAP1 POP JUMP JUMPDEST PUSH1 0x0 SLOAD PUSH1 0x1 PUSH1 0x1 PUSH1 0xA0 SHL SUB AND CALLER EQ PUSH2 0x1A91 JUMPI PUSH1 0x40 MLOAD PUSH3 0x461BCD PUSH1 0xE5 SHL DUP2 MSTORE PUSH1 0x20 PUSH1 0x4 DUP3 ADD DUP2 SWAP1 MSTORE PUSH1 0x24 DUP3 ADD MSTORE PUSH32 0x4F776E61626C653A2063616C6C6572206973206E6F7420746865206F776E6572 PUSH1 0x44 DUP3 ADD MSTORE PUSH1 0x64 ADD PUSH2 0x309 JUMP JUMPDEST PUSH1 0x0 DUP1 PUSH1 0x60 PUSH1 0x0 PUSH2 0x310B PUSH1 0x8 PUSH2 0x3078 JUMP JUMPDEST SWAP1 POP DUP1 PUSH8 0xFFFFFFFFFFFFFFFF DUP2 GT ISZERO PUSH2 0x3126 JUMPI PUSH2 0x3126 PUSH2 0x5B31 JUMP JUMPDEST PUSH1 0x40 MLOAD SWAP1 DUP1 DUP3 MSTORE DUP1 PUSH1 0x20 MUL PUSH1 0x20 ADD DUP3 ADD PUSH1 0x40 MSTORE DUP1 ISZERO PUSH2 0x314F JUMPI DUP2 PUSH1 0x20 ADD PUSH1 0x20 DUP3 MUL DUP1 CALLDATASIZE DUP4 CALLDATACOPY ADD SWAP1 POP JUMPDEST POP SWAP2 POP PUSH1 0x0 JUMPDEST DUP2 DUP2 LT ISZERO PUSH2 0x32AF JUMPI PUSH1 0x0 PUSH2 0x316A PUSH1 0x8 DUP4 PUSH2 0x3D6B JUMP JUMPDEST SWAP1 POP PUSH1 0x0 PUSH2 0x326E PUSH32 0x0 PUSH1 0x1 PUSH1 0x1 PUSH1 0xA0 SHL SUB AND PUSH4 0x9F82B217 PUSH1 0x40 MLOAD DUP2 PUSH4 0xFFFFFFFF AND PUSH1 0xE0 SHL DUP2 MSTORE PUSH1 0x4 ADD PUSH1 0x20 PUSH1 0x40 MLOAD DUP1 DUP4 SUB DUP2 DUP7 GAS STATICCALL ISZERO DUP1 ISZERO PUSH2 0x31CF JUMPI RETURNDATASIZE PUSH1 0x0 DUP1 RETURNDATACOPY RETURNDATASIZE PUSH1 0x0 REVERT JUMPDEST POP POP POP POP PUSH1 0x40 MLOAD RETURNDATASIZE PUSH1 0x1F NOT PUSH1 0x1F DUP3 ADD AND DUP3 ADD DUP1 PUSH1 0x40 MSTORE POP DUP2 ADD SWAP1 PUSH2 0x31F3 SWAP2 SWAP1 PUSH2 0x5C6C JUMP JUMPDEST PUSH1 0x40 MLOAD PUSH4 0x1DA958A9 PUSH1 0xE2 SHL DUP2 MSTORE PUSH1 0x1 PUSH1 0x1 PUSH1 0xA0 SHL SUB DUP6 DUP2 AND PUSH1 0x4 DUP4 ADD MSTORE SWAP2 SWAP1 SWAP2 AND SWAP1 PUSH4 0x76A562A4 SWAP1 PUSH1 0x24 ADD PUSH1 0x20 PUSH1 0x40 MLOAD DUP1 DUP4 SUB DUP2 DUP7 GAS STATICCALL ISZERO DUP1 ISZERO PUSH2 0x323B JUMPI RETURNDATASIZE PUSH1 0x0 DUP1 RETURNDATACOPY RETURNDATASIZE PUSH1 0x0 REVERT JUMPDEST POP POP POP POP PUSH1 0x40 MLOAD RETURNDATASIZE PUSH1 0x1F NOT PUSH1 0x1F DUP3 ADD AND DUP3 ADD DUP1 PUSH1 0x40 MSTORE POP DUP2 ADD SWAP1 PUSH2 0x325F SWAP2 SWAP1 PUSH2 0x5C6C JUMP JUMPDEST PUSH2 0x3268 DUP5 PUSH2 0x13C9 JUMP JUMPDEST DUP11 PUSH2 0x4568 JUMP JUMPDEST SWAP1 POP DUP1 DUP6 DUP5 DUP2 MLOAD DUP2 LT PUSH2 0x3283 JUMPI PUSH2 0x3283 PUSH2 0x5C89 JUMP JUMPDEST PUSH1 0x20 SWAP1 DUP2 MUL SWAP2 SWAP1 SWAP2 ADD ADD MSTORE PUSH2 0x3298 DUP2 DUP8 PUSH2 0x5CCE JUMP JUMPDEST SWAP6 POP POP POP DUP1 DUP1 PUSH2 0x32A7 SWAP1 PUSH2 0x5CB5 JUMP JUMPDEST SWAP2 POP POP PUSH2 0x3155 JUMP JUMPDEST POP PUSH1 0x40 MLOAD PUSH4 0x70A08231 PUSH1 0xE0 SHL DUP2 MSTORE ADDRESS PUSH1 0x4 DUP3 ADD MSTORE PUSH32 0x0 PUSH1 0x1 PUSH1 0x1 PUSH1 0xA0 SHL SUB AND SWAP1 PUSH4 0x70A08231 SWAP1 PUSH1 0x24 ADD PUSH1 0x20 PUSH1 0x40 MLOAD DUP1 DUP4 SUB DUP2 DUP7 GAS STATICCALL ISZERO DUP1 ISZERO PUSH2 0x3314 JUMPI RETURNDATASIZE PUSH1 0x0 DUP1 RETURNDATACOPY RETURNDATASIZE PUSH1 0x0 REVERT JUMPDEST POP POP POP POP PUSH1 0x40 MLOAD RETURNDATASIZE PUSH1 0x1F NOT PUSH1 0x1F DUP3 ADD AND DUP3 ADD DUP1 PUSH1 0x40 MSTORE POP DUP2 ADD SWAP1 PUSH2 0x3338 SWAP2 SWAP1 PUSH2 0x5CE1 JUMP JUMPDEST PUSH2 0x3342 SWAP1 DUP5 PUSH2 0x5CCE JUMP JUMPDEST SWAP4 POP POP SWAP2 SWAP4 SWAP1 SWAP3 POP JUMP JUMPDEST PUSH1 0x0 PUSH2 0xA1B DUP4 PUSH1 0x1 PUSH1 0x1 PUSH1 0xA0 SHL SUB DUP5 AND PUSH2 0x46ED JUMP JUMPDEST PUSH1 0x4 SLOAD PUSH1 0x0 SWAP1 PUSH1 0x1 PUSH1 0x1 PUSH1 0xA0 SHL SUB PUSH32 0x0 DUP2 AND SWAP1 DUP5 AND SUB PUSH2 0x33A8 JUMPI PUSH2 0x33A5 PUSH1 0x2 DUP3 PUSH2 0x5E12 JUMP JUMPDEST SWAP1 POP JUMPDEST PUSH1 0x1 PUSH1 0x1 PUSH1 0xA0 SHL SUB DUP1 DUP5 AND PUSH1 0x0 SWAP1 DUP2 MSTORE PUSH1 0xE PUSH1 0x20 SWAP1 DUP2 MSTORE PUSH1 0x40 DUP1 DUP4 KECCAK256 SLOAD DUP2 MLOAD PUSH4 0x2630C12F PUSH1 0xE0 SHL DUP2 MSTORE SWAP2 MLOAD SWAP1 SWAP5 PUSH32 0x0 AND SWAP3 PUSH4 0x2630C12F SWAP3 PUSH1 0x4 DUP1 DUP3 ADD SWAP4 SWAP2 DUP3 SWAP1 SUB ADD DUP2 DUP7 GAS STATICCALL ISZERO DUP1 ISZERO PUSH2 0x341E JUMPI RETURNDATASIZE PUSH1 0x0 DUP1 RETURNDATACOPY RETURNDATASIZE PUSH1 0x0 REVERT JUMPDEST POP POP POP POP PUSH1 0x40 MLOAD RETURNDATASIZE PUSH1 0x1F NOT PUSH1 0x1F DUP3 ADD AND DUP3 ADD DUP1 PUSH1 0x40 MSTORE POP DUP2 ADD SWAP1 PUSH2 0x3442 SWAP2 SWAP1 PUSH2 0x5C6C JUMP JUMPDEST PUSH1 0x40 MLOAD PUSH4 0x8B2F0F4F PUSH1 0xE0 SHL DUP2 MSTORE PUSH1 0x1 PUSH1 0x1 PUSH1 0xA0 SHL SUB DUP8 DUP2 AND PUSH1 0x4 DUP4 ADD MSTORE SWAP2 SWAP1 SWAP2 AND SWAP1 PUSH4 0x8B2F0F4F SWAP1 PUSH1 0x24 ADD PUSH1 0x20 PUSH1 0x40 MLOAD DUP1 DUP4 SUB DUP2 DUP7 GAS STATICCALL ISZERO DUP1 ISZERO PUSH2 0x348A JUMPI RETURNDATASIZE PUSH1 0x0 DUP1 RETURNDATACOPY RETURNDATASIZE PUSH1 0x0 REVERT JUMPDEST POP POP POP POP PUSH1 0x40 MLOAD RETURNDATASIZE PUSH1 0x1F NOT PUSH1 0x1F DUP3 ADD AND DUP3 ADD DUP1 PUSH1 0x40 MSTORE POP DUP2 ADD SWAP1 PUSH2 0x34AE SWAP2 SWAP1 PUSH2 0x5CE1 JUMP JUMPDEST SWAP1 POP PUSH1 0x0 PUSH2 0x34BC DUP4 DUP4 PUSH2 0x475D JUMP JUMPDEST SWAP1 POP PUSH1 0x0 PUSH2 0x34CA DUP3 DUP6 PUSH2 0x3B31 JUMP JUMPDEST SWAP5 SWAP1 SWAP5 GT SWAP7 SWAP6 POP POP POP POP POP POP JUMP JUMPDEST PUSH1 0x0 PUSH2 0x34E5 PUSH1 0xA DUP4 PUSH2 0x334C JUMP JUMPDEST SWAP1 POP DUP1 PUSH1 0x0 SUB PUSH2 0x34F3 JUMPI POP POP JUMP JUMPDEST PUSH2 0x34FF PUSH1 0x12 PUSH1 0xA PUSH2 0x5DE9 JUMP JUMPDEST DUP2 SUB PUSH2 0x3546 JUMPI PUSH1 0x40 MLOAD PUSH3 0x461BCD PUSH1 0xE5 SHL DUP2 MSTORE PUSH1 0x20 PUSH1 0x4 DUP3 ADD MSTORE PUSH1 0x16 PUSH1 0x24 DUP3 ADD MSTORE PUSH22 0x18D85B89DD081C995B5BDD99481B185CDD081C1BDBDB PUSH1 0x52 SHL PUSH1 0x44 DUP3 ADD MSTORE PUSH1 0x64 ADD PUSH2 0x309 JUMP JUMPDEST PUSH1 0x0 PUSH2 0x357E PUSH2 0x3556 PUSH1 0xA DUP6 PUSH2 0x334C JUMP JUMPDEST PUSH2 0x3562 PUSH1 0x12 PUSH1 0xA PUSH2 0x5DE9 JUMP JUMPDEST PUSH2 0x356C SWAP2 SWAP1 PUSH2 0x5CFA JUMP JUMPDEST PUSH2 0x3578 PUSH1 0x12 PUSH1 0xA PUSH2 0x5DE9 JUMP JUMPDEST SWAP1 PUSH2 0x3B31 JUMP JUMPDEST SWAP1 POP PUSH1 0x0 PUSH2 0x358C PUSH1 0x8 PUSH2 0x3078 JUMP JUMPDEST SWAP1 POP PUSH1 0x0 JUMPDEST DUP2 DUP2 LT ISZERO PUSH2 0x3641 JUMPI PUSH1 0x0 PUSH2 0x35A6 PUSH1 0x8 DUP4 PUSH2 0x3D6B JUMP JUMPDEST SWAP1 POP PUSH1 0x0 DUP7 PUSH1 0x1 PUSH1 0x1 PUSH1 0xA0 SHL SUB AND DUP3 PUSH1 0x1 PUSH1 0x1 PUSH1 0xA0 SHL SUB AND EQ PUSH2 0x35D7 JUMPI PUSH2 0x35D2 DUP6 PUSH2 0x22D7 PUSH1 0xA DUP6 PUSH2 0x334C JUMP JUMPDEST PUSH2 0x35DA JUMP JUMPDEST PUSH1 0x0 JUMPDEST SWAP1 POP PUSH2 0x35E8 PUSH1 0xA DUP4 DUP4 PUSH2 0x3D77 JUMP JUMPDEST POP DUP2 PUSH1 0x1 PUSH1 0x1 PUSH1 0xA0 SHL SUB AND PUSH32 0x49175C3467EDEBA7662E939BF84305EAF5084072855B0560F6AC3E145CD172AE DUP3 PUSH1 0x40 MLOAD PUSH2 0x3624 SWAP2 DUP2 MSTORE PUSH1 0x20 ADD SWAP1 JUMP JUMPDEST PUSH1 0x40 MLOAD DUP1 SWAP2 SUB SWAP1 LOG2 POP POP DUP1 DUP1 PUSH2 0x3639 SWAP1 PUSH2 0x5CB5 JUMP JUMPDEST SWAP2 POP POP PUSH2 0x3591 JUMP JUMPDEST POP PUSH1 0x0 DUP1 PUSH2 0x364D PUSH2 0xC1B JUMP JUMPDEST SWAP3 POP POP SWAP2 POP PUSH1 0x0 PUSH2 0x365E DUP4 DUP4 PUSH2 0x3CDF JUMP JUMPDEST PUSH1 0xD SSTORE POP POP POP POP POP POP POP JUMP JUMPDEST PUSH1 0x0 DUP1 PUSH32 0x0 PUSH1 0x1 PUSH1 0x1 PUSH1 0xA0 SHL SUB AND PUSH4 0x18160DDD PUSH1 0x40 MLOAD DUP2 PUSH4 0xFFFFFFFF AND PUSH1 0xE0 SHL DUP2 MSTORE PUSH1 0x4 ADD PUSH1 0x20 PUSH1 0x40 MLOAD DUP1 DUP4 SUB DUP2 DUP7 GAS STATICCALL ISZERO DUP1 ISZERO PUSH2 0x36CB JUMPI RETURNDATASIZE PUSH1 0x0 DUP1 RETURNDATACOPY RETURNDATASIZE PUSH1 0x0 REVERT JUMPDEST POP POP POP POP PUSH1 0x40 MLOAD RETURNDATASIZE PUSH1 0x1F NOT PUSH1 0x1F DUP3 ADD AND DUP3 ADD DUP1 PUSH1 0x40 MSTORE POP DUP2 ADD SWAP1 PUSH2 0x36EF SWAP2 SWAP1 PUSH2 0x5CE1 JUMP JUMPDEST SWAP1 POP DUP1 ISZERO DUP1 PUSH2 0x36FC JUMPI POP DUP3 ISZERO JUMPDEST ISZERO PUSH2 0x370D JUMPI PUSH2 0x100D PUSH1 0x12 PUSH1 0xA PUSH2 0x5DE9 JUMP JUMPDEST PUSH2 0x100D DUP4 DUP3 PUSH2 0x3B31 JUMP JUMPDEST PUSH1 0x0 PUSH2 0x3725 PUSH1 0x12 PUSH1 0xA PUSH2 0x5DE9 JUMP JUMPDEST PUSH2 0x372F DUP4 DUP6 PUSH2 0x5E12 JUMP JUMPDEST PUSH2 0xA1B SWAP2 SWAP1 PUSH2 0x5E29 JUMP JUMPDEST DUP1 PUSH1 0x0 PUSH2 0x3746 DUP3 DUP7 PUSH2 0x5CFA JUMP JUMPDEST SWAP1 POP PUSH1 0x0 PUSH2 0x3753 DUP6 PUSH2 0x4775 JUMP JUMPDEST SWAP1 POP JUMPDEST DUP3 ISZERO PUSH2 0x1E2D JUMPI PUSH1 0x0 DUP1 PUSH2 0x3769 DUP5 DUP5 PUSH2 0x4814 JUMP JUMPDEST SWAP1 SWAP3 POP SWAP1 POP PUSH1 0x0 PUSH2 0x377B PUSH1 0x8 DUP5 PUSH2 0x3D6B JUMP JUMPDEST SWAP1 POP PUSH1 0x0 PUSH2 0x3789 DUP8 DUP5 PUSH2 0x37D5 JUMP JUMPDEST SWAP1 POP PUSH2 0x3795 DUP3 DUP3 PUSH2 0x4B2A JUMP JUMPDEST PUSH2 0x379F DUP2 DUP9 PUSH2 0x5CFA JUMP JUMPDEST SWAP7 POP DUP1 DUP6 DUP6 DUP2 MLOAD DUP2 LT PUSH2 0x37B4 JUMPI PUSH2 0x37B4 PUSH2 0x5C89 JUMP JUMPDEST PUSH1 0x20 MUL PUSH1 0x20 ADD ADD DUP2 DUP2 MLOAD PUSH2 0x37C8 SWAP2 SWAP1 PUSH2 0x5CFA JUMP JUMPDEST SWAP1 MSTORE POP PUSH2 0x3756 SWAP4 POP POP POP POP JUMP JUMPDEST PUSH1 0x0 DUP2 DUP4 LT PUSH2 0x37E4 JUMPI DUP2 PUSH2 0xA1B JUMP JUMPDEST POP SWAP1 SWAP2 SWAP1 POP JUMP JUMPDEST PUSH1 0x40 MLOAD PUSH1 0x1 PUSH1 0x1 PUSH1 0xA0 SHL SUB DUP4 AND PUSH1 0x24 DUP3 ADD MSTORE PUSH1 0x44 DUP2 ADD DUP3 SWAP1 MSTORE PUSH2 0x3064 SWAP1 DUP5 SWAP1 PUSH4 0xA9059CBB PUSH1 0xE0 SHL SWAP1 PUSH1 0x64 ADD PUSH2 0x302D JUMP JUMPDEST PUSH1 0x0 DUP1 DUP1 DUP1 PUSH2 0x3091 DUP7 PUSH1 0x1 PUSH1 0x1 PUSH1 0xA0 SHL SUB DUP8 AND PUSH2 0x4F12 JUMP JUMPDEST PUSH1 0x0 PUSH32 0x0 PUSH1 0x1 PUSH1 0x1 PUSH1 0xA0 SHL SUB AND PUSH4 0x9F82B217 PUSH1 0x40 MLOAD DUP2 PUSH4 0xFFFFFFFF AND PUSH1 0xE0 SHL DUP2 MSTORE PUSH1 0x4 ADD PUSH1 0x20 PUSH1 0x40 MLOAD DUP1 DUP4 SUB DUP2 DUP7 GAS STATICCALL ISZERO DUP1 ISZERO PUSH2 0x3893 JUMPI RETURNDATASIZE PUSH1 0x0 DUP1 RETURNDATACOPY RETURNDATASIZE PUSH1 0x0 REVERT JUMPDEST POP POP POP POP PUSH1 0x40 MLOAD RETURNDATASIZE PUSH1 0x1F NOT PUSH1 0x1F DUP3 ADD AND DUP3 ADD DUP1 PUSH1 0x40 MSTORE POP DUP2 ADD SWAP1 PUSH2 0x38B7 SWAP2 SWAP1 PUSH2 0x5C6C JUMP JUMPDEST PUSH1 0x40 MLOAD PUSH4 0x1DA958A9 PUSH1 0xE2 SHL DUP2 MSTORE PUSH1 0x1 PUSH1 0x1 PUSH1 0xA0 SHL SUB DUP5 DUP2 AND PUSH1 0x4 DUP4 ADD MSTORE SWAP2 SWAP1 SWAP2 AND SWAP1 PUSH4 0x76A562A4 SWAP1 PUSH1 0x24 ADD JUMPDEST PUSH1 0x20 PUSH1 0x40 MLOAD DUP1 DUP4 SUB DUP2 DUP7 GAS STATICCALL ISZERO DUP1 ISZERO PUSH2 0x3900 JUMPI RETURNDATASIZE PUSH1 0x0 DUP1 RETURNDATACOPY RETURNDATASIZE PUSH1 0x0 REVERT JUMPDEST POP POP POP POP PUSH1 0x40 MLOAD RETURNDATASIZE PUSH1 0x1F NOT PUSH1 0x1F DUP3 ADD AND DUP3 ADD DUP1 PUSH1 0x40 MSTORE POP DUP2 ADD SWAP1 PUSH2 0x3924 SWAP2 SWAP1 PUSH2 0x5C6C JUMP JUMPDEST PUSH1 0x40 MLOAD PUSH4 0x70A08231 PUSH1 0xE0 SHL DUP2 MSTORE ADDRESS PUSH1 0x4 DUP3 ADD MSTORE PUSH1 0x1 PUSH1 0x1 PUSH1 0xA0 SHL SUB SWAP2 SWAP1 SWAP2 AND SWAP1 PUSH4 0x70A08231 SWAP1 PUSH1 0x24 ADD PUSH1 0x20 PUSH1 0x40 MLOAD DUP1 DUP4 SUB DUP2 DUP7 GAS STATICCALL ISZERO DUP1 ISZERO PUSH2 0x396A JUMPI RETURNDATASIZE PUSH1 0x0 DUP1 RETURNDATACOPY RETURNDATASIZE PUSH1 0x0 REVERT JUMPDEST POP POP POP POP PUSH1 0x40 MLOAD RETURNDATASIZE PUSH1 0x1F NOT PUSH1 0x1F DUP3 ADD AND DUP3 ADD DUP1 PUSH1 0x40 MSTORE POP DUP2 ADD SWAP1 PUSH2 0xA1E SWAP2 SWAP1 PUSH2 0x5CE1 JUMP JUMPDEST PUSH1 0x0 PUSH32 0x0 PUSH1 0x1 PUSH1 0x1 PUSH1 0xA0 SHL SUB AND PUSH4 0xB050ECB8 PUSH1 0x40 MLOAD DUP2 PUSH4 0xFFFFFFFF AND PUSH1 0xE0 SHL DUP2 MSTORE PUSH1 0x4 ADD PUSH1 0x20 PUSH1 0x40 MLOAD DUP1 DUP4 SUB DUP2 DUP7 GAS STATICCALL ISZERO DUP1 ISZERO PUSH2 0x39EE JUMPI RETURNDATASIZE PUSH1 0x0 DUP1 RETURNDATACOPY RETURNDATASIZE PUSH1 0x0 REVERT JUMPDEST POP POP POP POP PUSH1 0x40 MLOAD RETURNDATASIZE PUSH1 0x1F NOT PUSH1 0x1F DUP3 ADD AND DUP3 ADD DUP1 PUSH1 0x40 MSTORE POP DUP2 ADD SWAP1 PUSH2 0x3A12 SWAP2 SWAP1 PUSH2 0x5C6C JUMP JUMPDEST PUSH1 0x40 MLOAD PUSH4 0x514A9009 PUSH1 0xE0 SHL DUP2 MSTORE PUSH1 0x1 PUSH1 0x1 PUSH1 0xA0 SHL SUB DUP5 DUP2 AND PUSH1 0x4 DUP4 ADD MSTORE SWAP2 SWAP1 SWAP2 AND SWAP1 PUSH4 0x514A9009 SWAP1 PUSH1 0x24 ADD PUSH2 0x38E3 JUMP JUMPDEST PUSH1 0x40 MLOAD PUSH1 0x1 PUSH1 0x1 PUSH1 0xA0 SHL SUB DUP1 DUP6 AND PUSH1 0x24 DUP4 ADD MSTORE DUP4 AND PUSH1 0x44 DUP3 ADD MSTORE PUSH1 0x64 DUP2 ADD DUP3 SWAP1 MSTORE PUSH2 0x3A7A SWAP1 DUP6 SWAP1 PUSH4 0x23B872DD PUSH1 0xE0 SHL SWAP1 PUSH1 0x84 ADD PUSH2 0x302D JUMP JUMPDEST POP POP POP POP JUMP JUMPDEST DUP1 PUSH1 0x0 PUSH2 0x3A8D DUP3 DUP7 PUSH2 0x5CCE JUMP JUMPDEST SWAP1 POP PUSH1 0x0 PUSH2 0x3A9A DUP6 PUSH2 0x4775 JUMP JUMPDEST SWAP1 POP JUMPDEST DUP3 ISZERO PUSH2 0x1E2D JUMPI PUSH1 0x0 DUP1 PUSH2 0x3AB0 DUP5 DUP5 PUSH2 0x4F54 JUMP JUMPDEST SWAP1 SWAP3 POP SWAP1 POP PUSH2 0x3AC0 DUP2 PUSH1 0x64 PUSH2 0x5CCE JUMP JUMPDEST DUP6 LT ISZERO PUSH2 0x3ACA JUMPI POP DUP4 JUMPDEST PUSH1 0x0 PUSH2 0x3AD7 PUSH1 0x8 DUP5 PUSH2 0x3D6B JUMP JUMPDEST SWAP1 POP PUSH1 0x0 PUSH2 0x3AE5 DUP8 DUP5 PUSH2 0x37D5 JUMP JUMPDEST SWAP1 POP PUSH2 0x3AF1 DUP3 DUP3 PUSH2 0x506E JUMP JUMPDEST PUSH2 0x3AFB DUP2 DUP9 PUSH2 0x5CFA JUMP JUMPDEST SWAP7 POP DUP1 DUP6 DUP6 DUP2 MLOAD DUP2 LT PUSH2 0x3B10 JUMPI PUSH2 0x3B10 PUSH2 0x5C89 JUMP JUMPDEST PUSH1 0x20 MUL PUSH1 0x20 ADD ADD DUP2 DUP2 MLOAD PUSH2 0x3B24 SWAP2 SWAP1 PUSH2 0x5CCE JUMP JUMPDEST SWAP1 MSTORE POP PUSH2 0x3A9D SWAP4 POP POP POP POP JUMP JUMPDEST PUSH1 0x0 DUP2 PUSH2 0x3B40 PUSH1 0x12 PUSH1 0xA PUSH2 0x5DE9 JUMP JUMPDEST PUSH2 0x372F SWAP1 DUP6 PUSH2 0x5E12 JUMP JUMPDEST PUSH1 0x7 SLOAD PUSH1 0xFF AND ISZERO PUSH2 0x3C7B JUMPI PUSH1 0x0 PUSH2 0x3B61 DUP6 DUP6 PUSH2 0x3CDF JUMP JUMPDEST SWAP1 POP PUSH1 0x0 PUSH2 0x3B6F DUP5 DUP5 PUSH2 0x3CDF JUMP JUMPDEST SWAP1 POP PUSH32 0x0 PUSH1 0x1 PUSH1 0x1 PUSH1 0xA0 SHL SUB AND PUSH4 0xDBCD89FA PUSH1 0x40 MLOAD DUP2 PUSH4 0xFFFFFFFF AND PUSH1 0xE0 SHL DUP2 MSTORE PUSH1 0x4 ADD PUSH1 0x20 PUSH1 0x40 MLOAD DUP1 DUP4 SUB DUP2 DUP7 GAS STATICCALL ISZERO DUP1 ISZERO PUSH2 0x3BCF JUMPI RETURNDATASIZE PUSH1 0x0 DUP1 RETURNDATACOPY RETURNDATASIZE PUSH1 0x0 REVERT JUMPDEST POP POP POP POP PUSH1 0x40 MLOAD RETURNDATASIZE PUSH1 0x1F NOT PUSH1 0x1F DUP3 ADD AND DUP3 ADD DUP1 PUSH1 0x40 MSTORE POP DUP2 ADD SWAP1 PUSH2 0x3BF3 SWAP2 SWAP1 PUSH2 0x5C6C JUMP JUMPDEST PUSH1 0x40 MLOAD PUSH4 0xA48AF5F PUSH1 0xE1 SHL DUP2 MSTORE PUSH1 0x1 PUSH1 0x1 PUSH1 0xA0 SHL SUB DUP10 DUP2 AND PUSH1 0x4 DUP4 ADD MSTORE PUSH1 0x24 DUP3 ADD DUP6 SWAP1 MSTORE PUSH1 0x44 DUP3 ADD DUP5 SWAP1 MSTORE SWAP2 SWAP1 SWAP2 AND SWAP1 PUSH4 0x14915EBE SWAP1 PUSH1 0x64 ADD PUSH1 0x0 PUSH1 0x40 MLOAD DUP1 DUP4 SUB DUP2 PUSH1 0x0 DUP8 DUP1 EXTCODESIZE ISZERO DUP1 ISZERO PUSH2 0x3C46 JUMPI PUSH1 0x0 DUP1 REVERT JUMPDEST POP GAS CALL ISZERO DUP1 ISZERO PUSH2 0x3C5A JUMPI RETURNDATASIZE PUSH1 0x0 DUP1 RETURNDATACOPY RETURNDATASIZE PUSH1 0x0 REVERT JUMPDEST POP POP POP POP PUSH2 0x3C68 DUP4 DUP6 PUSH2 0x3D8D JUMP JUMPDEST ISZERO PUSH2 0x3C78 JUMPI PUSH1 0x7 DUP1 SLOAD PUSH1 0xFF NOT AND SWAP1 SSTORE JUMPDEST POP POP JUMPDEST POP POP POP POP POP JUMP JUMPDEST PUSH1 0x60 PUSH1 0x0 PUSH2 0x100D DUP4 PUSH2 0x5231 JUMP JUMPDEST PUSH1 0x0 DUP1 SLOAD PUSH1 0x1 PUSH1 0x1 PUSH1 0xA0 SHL SUB DUP4 DUP2 AND PUSH1 0x1 PUSH1 0x1 PUSH1 0xA0 SHL SUB NOT DUP4 AND DUP2 OR DUP5 SSTORE PUSH1 0x40 MLOAD SWAP2 SWAP1 SWAP3 AND SWAP3 DUP4 SWAP2 PUSH32 0x8BE0079C531659141344CD1FD0A4F28419497F9722A3DAAFE3B4186F6B6457E0 SWAP2 SWAP1 LOG3 POP POP JUMP JUMPDEST PUSH1 0x0 DUP1 PUSH1 0x0 JUMPDEST DUP4 MLOAD DUP2 LT ISZERO PUSH2 0x3D63 JUMPI PUSH1 0x0 PUSH2 0x3D06 PUSH2 0x3CFE PUSH1 0x8 DUP5 PUSH2 0x3D6B JUMP JUMPDEST PUSH1 0xA SWAP1 PUSH2 0x334C JUMP JUMPDEST SWAP1 POP PUSH1 0x0 PUSH2 0x3D14 DUP8 DUP4 PUSH2 0x3717 JUMP JUMPDEST SWAP1 POP PUSH2 0x3D42 DUP7 DUP5 DUP2 MLOAD DUP2 LT PUSH2 0x3D2B JUMPI PUSH2 0x3D2B PUSH2 0x5C89 JUMP JUMPDEST PUSH1 0x20 MUL PUSH1 0x20 ADD ADD MLOAD DUP3 PUSH2 0x475D SWAP1 SWAP2 SWAP1 PUSH4 0xFFFFFFFF AND JUMP JUMPDEST PUSH2 0x3D4C SWAP1 DUP6 PUSH2 0x5CCE JUMP JUMPDEST SWAP4 POP POP POP DUP1 DUP1 PUSH2 0x3D5B SWAP1 PUSH2 0x5CB5 JUMP JUMPDEST SWAP2 POP POP PUSH2 0x3CE5 JUMP JUMPDEST POP SWAP4 SWAP3 POP POP POP JUMP JUMPDEST PUSH1 0x0 PUSH2 0xA1B DUP4 DUP4 PUSH2 0x528D JUMP JUMPDEST PUSH1 0x0 PUSH2 0x100A DUP5 PUSH1 0x1 PUSH1 0x1 PUSH1 0xA0 SHL SUB DUP6 AND DUP5 PUSH2 0x52B7 JUMP JUMPDEST PUSH1 0x0 DUP2 PUSH1 0x0 SUB PUSH2 0x3D9F JUMPI POP PUSH1 0x1 PUSH2 0xA1E JUMP JUMPDEST PUSH1 0x0 JUMPDEST DUP4 MLOAD DUP2 LT ISZERO PUSH2 0x4026 JUMPI PUSH1 0x0 PUSH2 0x3DBB PUSH2 0x3CFE PUSH1 0x8 DUP5 PUSH2 0x3D6B JUMP JUMPDEST SWAP1 POP PUSH1 0x0 DUP6 DUP4 DUP2 MLOAD DUP2 LT PUSH2 0x3DD1 JUMPI PUSH2 0x3DD1 PUSH2 0x5C89 JUMP JUMPDEST PUSH1 0x20 MUL PUSH1 0x20 ADD ADD MLOAD SWAP1 POP DUP2 PUSH1 0x0 SUB PUSH2 0x3FCB JUMPI PUSH1 0x0 PUSH32 0x0 PUSH1 0x1 PUSH1 0x1 PUSH1 0xA0 SHL SUB AND PUSH4 0x2630C12F PUSH1 0x40 MLOAD DUP2 PUSH4 0xFFFFFFFF AND PUSH1 0xE0 SHL DUP2 MSTORE PUSH1 0x4 ADD PUSH1 0x20 PUSH1 0x40 MLOAD DUP1 DUP4 SUB DUP2 DUP7 GAS STATICCALL ISZERO DUP1 ISZERO PUSH2 0x3E43 JUMPI RETURNDATASIZE PUSH1 0x0 DUP1 RETURNDATACOPY RETURNDATASIZE PUSH1 0x0 REVERT JUMPDEST POP POP POP POP PUSH1 0x40 MLOAD RETURNDATASIZE PUSH1 0x1F NOT PUSH1 0x1F DUP3 ADD AND DUP3 ADD DUP1 PUSH1 0x40 MSTORE POP DUP2 ADD SWAP1 PUSH2 0x3E67 SWAP2 SWAP1 PUSH2 0x5C6C JUMP JUMPDEST PUSH1 0x40 MLOAD PUSH4 0x8B2F0F4F PUSH1 0xE0 SHL DUP2 MSTORE PUSH1 0x1 PUSH1 0x1 PUSH1 0xA0 SHL SUB PUSH32 0x0 DUP2 AND PUSH1 0x4 DUP4 ADD MSTORE SWAP2 SWAP1 SWAP2 AND SWAP1 PUSH4 0x8B2F0F4F SWAP1 PUSH1 0x24 ADD PUSH1 0x20 PUSH1 0x40 MLOAD DUP1 DUP4 SUB DUP2 DUP7 GAS STATICCALL ISZERO DUP1 ISZERO PUSH2 0x3ECF JUMPI RETURNDATASIZE PUSH1 0x0 DUP1 RETURNDATACOPY RETURNDATASIZE PUSH1 0x0 REVERT JUMPDEST POP POP POP POP PUSH1 0x40 MLOAD RETURNDATASIZE PUSH1 0x1F NOT PUSH1 0x1F DUP3 ADD AND DUP3 ADD DUP1 PUSH1 0x40 MSTORE POP DUP2 ADD SWAP1 PUSH2 0x3EF3 SWAP2 SWAP1 PUSH2 0x5CE1 JUMP JUMPDEST SWAP1 POP PUSH1 0x0 PUSH32 0x0 PUSH1 0x1 PUSH1 0x1 PUSH1 0xA0 SHL SUB AND PUSH4 0x313CE567 PUSH1 0x40 MLOAD DUP2 PUSH4 0xFFFFFFFF AND PUSH1 0xE0 SHL DUP2 MSTORE PUSH1 0x4 ADD PUSH1 0x20 PUSH1 0x40 MLOAD DUP1 DUP4 SUB DUP2 DUP7 GAS STATICCALL ISZERO DUP1 ISZERO PUSH2 0x3F55 JUMPI RETURNDATASIZE PUSH1 0x0 DUP1 RETURNDATACOPY RETURNDATASIZE PUSH1 0x0 REVERT JUMPDEST POP POP POP POP PUSH1 0x40 MLOAD RETURNDATASIZE PUSH1 0x1F NOT PUSH1 0x1F DUP3 ADD AND DUP3 ADD DUP1 PUSH1 0x40 MSTORE POP DUP2 ADD SWAP1 PUSH2 0x3F79 SWAP2 SWAP1 PUSH2 0x5E4B JUMP JUMPDEST PUSH2 0x3F84 SWAP1 PUSH1 0xA PUSH2 0x5E6E JUMP JUMPDEST PUSH2 0x3F8E DUP5 DUP5 PUSH2 0x5E12 JUMP JUMPDEST PUSH2 0x3F98 SWAP2 SWAP1 PUSH2 0x5E29 JUMP JUMPDEST SWAP1 POP PUSH2 0x3FAE PUSH1 0x2 PUSH9 0x56BC75E2D63100000 PUSH2 0x5E29 JUMP JUMPDEST DUP2 LT PUSH2 0x3FC2 JUMPI PUSH1 0x0 SWAP6 POP POP POP POP POP POP PUSH2 0xA1E JUMP JUMPDEST POP POP POP POP PUSH2 0x4014 JUMP JUMPDEST PUSH1 0x0 PUSH2 0x3FD7 DUP7 DUP5 PUSH2 0x3717 JUMP JUMPDEST SWAP1 POP PUSH1 0x0 PUSH2 0x3FE5 DUP3 DUP5 PUSH2 0x475D JUMP JUMPDEST SWAP1 POP PUSH1 0x0 PUSH2 0x3FF3 DUP3 DUP5 PUSH2 0x3B31 JUMP JUMPDEST SWAP1 POP PUSH1 0x1 SLOAD DUP2 GT ISZERO PUSH2 0x400E JUMPI PUSH1 0x0 SWAP7 POP POP POP POP POP POP POP PUSH2 0xA1E JUMP JUMPDEST POP POP POP POP POP JUMPDEST DUP1 PUSH2 0x401E DUP2 PUSH2 0x5CB5 JUMP JUMPDEST SWAP2 POP POP PUSH2 0x3DA2 JUMP JUMPDEST POP PUSH1 0x1 SWAP4 SWAP3 POP POP POP JUMP JUMPDEST PUSH1 0x0 PUSH2 0x403C PUSH1 0x8 PUSH2 0x3078 JUMP JUMPDEST SWAP1 POP PUSH1 0x0 PUSH32 0x0 PUSH1 0x1 PUSH1 0x1 PUSH1 0xA0 SHL SUB AND PUSH4 0x2630C12F PUSH1 0x40 MLOAD DUP2 PUSH4 0xFFFFFFFF AND PUSH1 0xE0 SHL DUP2 MSTORE PUSH1 0x4 ADD PUSH1 0x20 PUSH1 0x40 MLOAD DUP1 DUP4 SUB DUP2 DUP7 GAS STATICCALL ISZERO DUP1 ISZERO PUSH2 0x409E JUMPI RETURNDATASIZE PUSH1 0x0 DUP1 RETURNDATACOPY RETURNDATASIZE PUSH1 0x0 REVERT JUMPDEST POP POP POP POP PUSH1 0x40 MLOAD RETURNDATASIZE PUSH1 0x1F NOT PUSH1 0x1F DUP3 ADD AND DUP3 ADD DUP1 PUSH1 0x40 MSTORE POP DUP2 ADD SWAP1 PUSH2 0x40C2 SWAP2 SWAP1 PUSH2 0x5C6C JUMP JUMPDEST SWAP1 POP PUSH1 0x0 JUMPDEST DUP3 DUP2 LT ISZERO PUSH2 0x426E JUMPI PUSH1 0x0 PUSH32 0x0 PUSH1 0x1 PUSH1 0x1 PUSH1 0xA0 SHL SUB AND PUSH4 0x9F82B217 PUSH1 0x40 MLOAD DUP2 PUSH4 0xFFFFFFFF AND PUSH1 0xE0 SHL DUP2 MSTORE PUSH1 0x4 ADD PUSH1 0x20 PUSH1 0x40 MLOAD DUP1 DUP4 SUB DUP2 DUP7 GAS STATICCALL ISZERO DUP1 ISZERO PUSH2 0x412F JUMPI RETURNDATASIZE PUSH1 0x0 DUP1 RETURNDATACOPY RETURNDATASIZE PUSH1 0x0 REVERT JUMPDEST POP POP POP POP PUSH1 0x40 MLOAD RETURNDATASIZE PUSH1 0x1F NOT PUSH1 0x1F DUP3 ADD AND DUP3 ADD DUP1 PUSH1 0x40 MSTORE POP DUP2 ADD SWAP1 PUSH2 0x4153 SWAP2 SWAP1 PUSH2 0x5C6C JUMP JUMPDEST PUSH1 0x1 PUSH1 0x1 PUSH1 0xA0 SHL SUB AND PUSH4 0x76A562A4 PUSH2 0x416C PUSH1 0x8 DUP6 PUSH2 0x3D6B JUMP JUMPDEST PUSH1 0x40 MLOAD PUSH1 0x1 PUSH1 0x1 PUSH1 0xE0 SHL SUB NOT PUSH1 0xE0 DUP5 SWAP1 SHL AND DUP2 MSTORE PUSH1 0x1 PUSH1 0x1 PUSH1 0xA0 SHL SUB SWAP1 SWAP2 AND PUSH1 0x4 DUP3 ADD MSTORE PUSH1 0x24 ADD PUSH1 0x20 PUSH1 0x40 MLOAD DUP1 DUP4 SUB DUP2 DUP7 GAS STATICCALL ISZERO DUP1 ISZERO PUSH2 0x41B0 JUMPI RETURNDATASIZE PUSH1 0x0 DUP1 RETURNDATACOPY RETURNDATASIZE PUSH1 0x0 REVERT JUMPDEST POP POP POP POP PUSH1 0x40 MLOAD RETURNDATASIZE PUSH1 0x1F NOT PUSH1 0x1F DUP3 ADD AND DUP3 ADD DUP1 PUSH1 0x40 MSTORE POP DUP2 ADD SWAP1 PUSH2 0x41D4 SWAP2 SWAP1 PUSH2 0x5C6C JUMP JUMPDEST PUSH1 0x40 MLOAD PUSH4 0x8B2F0F4F PUSH1 0xE0 SHL DUP2 MSTORE PUSH1 0x1 PUSH1 0x1 PUSH1 0xA0 SHL SUB DUP1 DUP4 AND PUSH1 0x4 DUP4 ADD MSTORE SWAP2 SWAP3 POP SWAP1 DUP5 AND SWAP1 PUSH4 0x8B2F0F4F SWAP1 PUSH1 0x24 ADD PUSH1 0x20 PUSH1 0x40 MLOAD DUP1 DUP4 SUB DUP2 DUP7 GAS STATICCALL ISZERO DUP1 ISZERO PUSH2 0x421E JUMPI RETURNDATASIZE PUSH1 0x0 DUP1 RETURNDATACOPY RETURNDATASIZE PUSH1 0x0 REVERT JUMPDEST POP POP POP POP PUSH1 0x40 MLOAD RETURNDATASIZE PUSH1 0x1F NOT PUSH1 0x1F DUP3 ADD AND DUP3 ADD DUP1 PUSH1 0x40 MSTORE POP DUP2 ADD SWAP1 PUSH2 0x4242 SWAP2 SWAP1 PUSH2 0x5CE1 JUMP JUMPDEST PUSH1 0x1 PUSH1 0x1 PUSH1 0xA0 SHL SUB SWAP1 SWAP2 AND PUSH1 0x0 SWAP1 DUP2 MSTORE PUSH1 0xE PUSH1 0x20 MSTORE PUSH1 0x40 SWAP1 KECCAK256 SSTORE DUP1 PUSH2 0x4266 DUP2 PUSH2 0x5CB5 JUMP JUMPDEST SWAP2 POP POP PUSH2 0x40C7 JUMP JUMPDEST POP PUSH1 0x40 MLOAD PUSH4 0x8B2F0F4F PUSH1 0xE0 SHL DUP2 MSTORE PUSH1 0x1 PUSH1 0x1 PUSH1 0xA0 SHL SUB PUSH32 0x0 DUP2 DUP2 AND PUSH1 0x4 DUP5 ADD MSTORE SWAP2 SWAP1 DUP4 AND SWAP1 PUSH4 0x8B2F0F4F SWAP1 PUSH1 0x24 ADD PUSH1 0x20 PUSH1 0x40 MLOAD DUP1 DUP4 SUB DUP2 DUP7 GAS STATICCALL ISZERO DUP1 ISZERO PUSH2 0x42D8 JUMPI RETURNDATASIZE PUSH1 0x0 DUP1 RETURNDATACOPY RETURNDATASIZE PUSH1 0x0 REVERT JUMPDEST POP POP POP POP PUSH1 0x40 MLOAD RETURNDATASIZE PUSH1 0x1F NOT PUSH1 0x1F DUP3 ADD AND DUP3 ADD DUP1 PUSH1 0x40 MSTORE POP DUP2 ADD SWAP1 PUSH2 0x42FC SWAP2 SWAP1 PUSH2 0x5CE1 JUMP JUMPDEST PUSH1 0x1 PUSH1 0x1 PUSH1 0xA0 SHL SUB SWAP1 SWAP2 AND PUSH1 0x0 SWAP1 DUP2 MSTORE PUSH1 0xE PUSH1 0x20 MSTORE PUSH1 0x40 SWAP1 KECCAK256 SSTORE POP POP JUMP JUMPDEST PUSH1 0x1 PUSH1 0x1 PUSH1 0xA0 SHL SUB DUP2 AND PUSH1 0x0 SWAP1 DUP2 MSTORE PUSH1 0x1 DUP4 ADD PUSH1 0x20 MSTORE PUSH1 0x40 DUP2 KECCAK256 SLOAD ISZERO ISZERO PUSH2 0xA1B JUMP JUMPDEST PUSH1 0x0 PUSH2 0xA1B DUP4 PUSH1 0x1 PUSH1 0x1 PUSH1 0xA0 SHL SUB DUP5 AND PUSH2 0x52D4 JUMP JUMPDEST PUSH1 0x0 PUSH2 0xA1B DUP4 PUSH1 0x1 PUSH1 0x1 PUSH1 0xA0 SHL SUB DUP5 AND PUSH2 0x53C7 JUMP JUMPDEST PUSH1 0x0 PUSH2 0xA1B DUP4 PUSH1 0x1 PUSH1 0x1 PUSH1 0xA0 SHL SUB DUP5 AND PUSH2 0x53E4 JUMP JUMPDEST PUSH1 0x0 PUSH2 0xA1B DUP4 PUSH1 0x1 PUSH1 0x1 PUSH1 0xA0 SHL SUB DUP5 AND PUSH2 0x53F0 JUMP JUMPDEST PUSH1 0x0 PUSH2 0x43E5 DUP3 PUSH1 0x40 MLOAD DUP1 PUSH1 0x40 ADD PUSH1 0x40 MSTORE DUP1 PUSH1 0x20 DUP2 MSTORE PUSH1 0x20 ADD PUSH32 0x5361666545524332303A206C6F772D6C6576656C2063616C6C206661696C6564 DUP2 MSTORE POP DUP6 PUSH1 0x1 PUSH1 0x1 PUSH1 0xA0 SHL SUB AND PUSH2 0x3069 SWAP1 SWAP3 SWAP2 SWAP1 PUSH4 0xFFFFFFFF AND JUMP JUMPDEST DUP1 MLOAD SWAP1 SWAP2 POP ISZERO PUSH2 0x3064 JUMPI DUP1 DUP1 PUSH1 0x20 ADD SWAP1 MLOAD DUP2 ADD SWAP1 PUSH2 0x4403 SWAP2 SWAP1 PUSH2 0x5DF5 JUMP JUMPDEST PUSH2 0x3064 JUMPI PUSH1 0x40 MLOAD PUSH3 0x461BCD PUSH1 0xE5 SHL DUP2 MSTORE PUSH1 0x20 PUSH1 0x4 DUP3 ADD MSTORE PUSH1 0x2A PUSH1 0x24 DUP3 ADD MSTORE PUSH32 0x5361666545524332303A204552433230206F7065726174696F6E20646964206E PUSH1 0x44 DUP3 ADD MSTORE PUSH10 0x1BDD081CDD58D8D95959 PUSH1 0xB2 SHL PUSH1 0x64 DUP3 ADD MSTORE PUSH1 0x84 ADD PUSH2 0x309 JUMP JUMPDEST PUSH1 0x60 DUP3 SELFBALANCE LT ISZERO PUSH2 0x44C3 JUMPI PUSH1 0x40 MLOAD PUSH3 0x461BCD PUSH1 0xE5 SHL DUP2 MSTORE PUSH1 0x20 PUSH1 0x4 DUP3 ADD MSTORE PUSH1 0x26 PUSH1 0x24 DUP3 ADD MSTORE PUSH32 0x416464726573733A20696E73756666696369656E742062616C616E636520666F PUSH1 0x44 DUP3 ADD MSTORE PUSH6 0x1C8818D85B1B PUSH1 0xD2 SHL PUSH1 0x64 DUP3 ADD MSTORE PUSH1 0x84 ADD PUSH2 0x309 JUMP JUMPDEST PUSH1 0x0 DUP1 DUP7 PUSH1 0x1 PUSH1 0x1 PUSH1 0xA0 SHL SUB AND DUP6 DUP8 PUSH1 0x40 MLOAD PUSH2 0x44DF SWAP2 SWAP1 PUSH2 0x5EA1 JUMP JUMPDEST PUSH1 0x0 PUSH1 0x40 MLOAD DUP1 DUP4 SUB DUP2 DUP6 DUP8 GAS CALL SWAP3 POP POP POP RETURNDATASIZE DUP1 PUSH1 0x0 DUP2 EQ PUSH2 0x451C JUMPI PUSH1 0x40 MLOAD SWAP2 POP PUSH1 0x1F NOT PUSH1 0x3F RETURNDATASIZE ADD AND DUP3 ADD PUSH1 0x40 MSTORE RETURNDATASIZE DUP3 MSTORE RETURNDATASIZE PUSH1 0x0 PUSH1 0x20 DUP5 ADD RETURNDATACOPY PUSH2 0x4521 JUMP JUMPDEST PUSH1 0x60 SWAP2 POP JUMPDEST POP SWAP2 POP SWAP2 POP PUSH2 0x4532 DUP8 DUP4 DUP4 DUP8 PUSH2 0x543F JUMP JUMPDEST SWAP8 SWAP7 POP POP POP POP POP POP POP JUMP JUMPDEST PUSH1 0x0 DUP1 DUP1 PUSH2 0x454B DUP6 DUP6 PUSH2 0x3D6B JUMP JUMPDEST PUSH1 0x0 DUP2 DUP2 MSTORE PUSH1 0x2 SWAP7 SWAP1 SWAP7 ADD PUSH1 0x20 MSTORE PUSH1 0x40 SWAP1 SWAP6 KECCAK256 SLOAD SWAP5 SWAP6 SWAP4 POP POP POP POP JUMP JUMPDEST PUSH1 0x0 PUSH2 0x100A PUSH1 0x12 PUSH32 0x0 PUSH1 0x1 PUSH1 0x1 PUSH1 0xA0 SHL SUB AND PUSH4 0x313CE567 PUSH1 0x40 MLOAD DUP2 PUSH4 0xFFFFFFFF AND PUSH1 0xE0 SHL DUP2 MSTORE PUSH1 0x4 ADD PUSH1 0x20 PUSH1 0x40 MLOAD DUP1 DUP4 SUB DUP2 DUP7 GAS STATICCALL ISZERO DUP1 ISZERO PUSH2 0x45CD JUMPI RETURNDATASIZE PUSH1 0x0 DUP1 RETURNDATACOPY RETURNDATASIZE PUSH1 0x0 REVERT JUMPDEST POP POP POP POP PUSH1 0x40 MLOAD RETURNDATASIZE PUSH1 0x1F NOT PUSH1 0x1F DUP3 ADD AND DUP3 ADD DUP1 PUSH1 0x40 MSTORE POP DUP2 ADD SWAP1 PUSH2 0x45F1 SWAP2 SWAP1 PUSH2 0x5E4B JUMP JUMPDEST PUSH2 0x46E6 DUP6 PUSH2 0x3578 PUSH32 0x0 PUSH1 0x1 PUSH1 0x1 PUSH1 0xA0 SHL SUB AND PUSH4 0x2630C12F PUSH1 0x40 MLOAD DUP2 PUSH4 0xFFFFFFFF AND PUSH1 0xE0 SHL DUP2 MSTORE PUSH1 0x4 ADD PUSH1 0x20 PUSH1 0x40 MLOAD DUP1 DUP4 SUB DUP2 DUP7 GAS STATICCALL ISZERO DUP1 ISZERO PUSH2 0x4656 JUMPI RETURNDATASIZE PUSH1 0x0 DUP1 RETURNDATACOPY RETURNDATASIZE PUSH1 0x0 REVERT JUMPDEST POP POP POP POP PUSH1 0x40 MLOAD RETURNDATASIZE PUSH1 0x1F NOT PUSH1 0x1F DUP3 ADD AND DUP3 ADD DUP1 PUSH1 0x40 MSTORE POP DUP2 ADD SWAP1 PUSH2 0x467A SWAP2 SWAP1 PUSH2 0x5C6C JUMP JUMPDEST PUSH1 0x40 MLOAD PUSH4 0x8B2F0F4F PUSH1 0xE0 SHL DUP2 MSTORE PUSH1 0x1 PUSH1 0x1 PUSH1 0xA0 SHL SUB DUP13 DUP2 AND PUSH1 0x4 DUP4 ADD MSTORE SWAP2 SWAP1 SWAP2 AND SWAP1 PUSH4 0x8B2F0F4F SWAP1 PUSH1 0x24 ADD PUSH1 0x20 PUSH1 0x40 MLOAD DUP1 DUP4 SUB DUP2 DUP7 GAS STATICCALL ISZERO DUP1 ISZERO PUSH2 0x46C2 JUMPI RETURNDATASIZE PUSH1 0x0 DUP1 RETURNDATACOPY RETURNDATASIZE PUSH1 0x0 REVERT JUMPDEST POP POP POP POP PUSH1 0x40 MLOAD RETURNDATASIZE PUSH1 0x1F NOT PUSH1 0x1F DUP3 ADD AND DUP3 ADD DUP1 PUSH1 0x40 MSTORE POP DUP2 ADD SWAP1 PUSH2 0x1194 SWAP2 SWAP1 PUSH2 0x5CE1 JUMP JUMPDEST SWAP2 SWAP1 PUSH2 0x54B8 JUMP JUMPDEST PUSH1 0x0 DUP2 DUP2 MSTORE PUSH1 0x2 DUP4 ADD PUSH1 0x20 MSTORE PUSH1 0x40 DUP2 KECCAK256 SLOAD DUP1 ISZERO ISZERO DUP1 PUSH2 0x4711 JUMPI POP PUSH2 0x4711 DUP5 DUP5 PUSH2 0x53E4 JUMP JUMPDEST PUSH2 0xA1B JUMPI PUSH1 0x40 MLOAD PUSH3 0x461BCD PUSH1 0xE5 SHL DUP2 MSTORE PUSH1 0x20 PUSH1 0x4 DUP3 ADD MSTORE PUSH1 0x1E PUSH1 0x24 DUP3 ADD MSTORE PUSH32 0x456E756D657261626C654D61703A206E6F6E6578697374656E74206B65790000 PUSH1 0x44 DUP3 ADD MSTORE PUSH1 0x64 ADD PUSH2 0x309 JUMP JUMPDEST PUSH1 0x0 DUP2 DUP4 LT ISZERO PUSH2 0x476F JUMPI DUP3 DUP3 SUB PUSH2 0xA1B JUMP JUMPDEST POP SWAP1 SUB SWAP1 JUMP JUMPDEST PUSH1 0x60 PUSH1 0x0 DUP3 MLOAD PUSH8 0xFFFFFFFFFFFFFFFF DUP2 GT ISZERO PUSH2 0x4793 JUMPI PUSH2 0x4793 PUSH2 0x5B31 JUMP JUMPDEST PUSH1 0x40 MLOAD SWAP1 DUP1 DUP3 MSTORE DUP1 PUSH1 0x20 MUL PUSH1 0x20 ADD DUP3 ADD PUSH1 0x40 MSTORE DUP1 ISZERO PUSH2 0x47BC JUMPI DUP2 PUSH1 0x20 ADD PUSH1 0x20 DUP3 MUL DUP1 CALLDATASIZE DUP4 CALLDATACOPY ADD SWAP1 POP JUMPDEST POP SWAP1 POP PUSH1 0x0 JUMPDEST DUP4 MLOAD DUP2 LT ISZERO PUSH2 0xB04 JUMPI DUP4 DUP2 DUP2 MLOAD DUP2 LT PUSH2 0x47DD JUMPI PUSH2 0x47DD PUSH2 0x5C89 JUMP JUMPDEST PUSH1 0x20 MUL PUSH1 0x20 ADD ADD MLOAD DUP3 DUP3 DUP2 MLOAD DUP2 LT PUSH2 0x47F7 JUMPI PUSH2 0x47F7 PUSH2 0x5C89 JUMP JUMPDEST PUSH1 0x20 SWAP1 DUP2 MUL SWAP2 SWAP1 SWAP2 ADD ADD MSTORE DUP1 PUSH2 0x480C DUP2 PUSH2 0x5CB5 JUMP JUMPDEST SWAP2 POP POP PUSH2 0x47C2 JUMP JUMPDEST DUP1 MLOAD PUSH1 0x0 SWAP1 DUP2 SWAP1 PUSH1 0x0 NOT DUP3 JUMPDEST DUP3 DUP2 LT ISZERO PUSH2 0x4ACE JUMPI PUSH1 0x0 PUSH2 0x4835 PUSH1 0x8 DUP4 PUSH2 0x3D6B JUMP JUMPDEST SWAP1 POP PUSH1 0x0 PUSH2 0x4844 PUSH1 0xA DUP4 PUSH2 0x334C JUMP JUMPDEST SWAP1 POP PUSH1 0x0 DUP9 DUP5 DUP2 MLOAD DUP2 LT PUSH2 0x485A JUMPI PUSH2 0x485A PUSH2 0x5C89 JUMP JUMPDEST PUSH1 0x20 MUL PUSH1 0x20 ADD ADD MLOAD SWAP1 POP DUP2 PUSH1 0x0 SUB PUSH2 0x4A51 JUMPI PUSH1 0x0 PUSH32 0x0 PUSH1 0x1 PUSH1 0x1 PUSH1 0xA0 SHL SUB AND PUSH4 0x2630C12F PUSH1 0x40 MLOAD DUP2 PUSH4 0xFFFFFFFF AND PUSH1 0xE0 SHL DUP2 MSTORE PUSH1 0x4 ADD PUSH1 0x20 PUSH1 0x40 MLOAD DUP1 DUP4 SUB DUP2 DUP7 GAS STATICCALL ISZERO DUP1 ISZERO PUSH2 0x48CC JUMPI RETURNDATASIZE PUSH1 0x0 DUP1 RETURNDATACOPY RETURNDATASIZE PUSH1 0x0 REVERT JUMPDEST POP POP POP POP PUSH1 0x40 MLOAD RETURNDATASIZE PUSH1 0x1F NOT PUSH1 0x1F DUP3 ADD AND DUP3 ADD DUP1 PUSH1 0x40 MSTORE POP DUP2 ADD SWAP1 PUSH2 0x48F0 SWAP2 SWAP1 PUSH2 0x5C6C JUMP JUMPDEST PUSH1 0x40 MLOAD PUSH4 0x8B2F0F4F PUSH1 0xE0 SHL DUP2 MSTORE PUSH1 0x1 PUSH1 0x1 PUSH1 0xA0 SHL SUB PUSH32 0x0 DUP2 AND PUSH1 0x4 DUP4 ADD MSTORE SWAP2 SWAP1 SWAP2 AND SWAP1 PUSH4 0x8B2F0F4F SWAP1 PUSH1 0x24 ADD PUSH1 0x20 PUSH1 0x40 MLOAD DUP1 DUP4 SUB DUP2 DUP7 GAS STATICCALL ISZERO DUP1 ISZERO PUSH2 0x4958 JUMPI RETURNDATASIZE PUSH1 0x0 DUP1 RETURNDATACOPY RETURNDATASIZE PUSH1 0x0 REVERT JUMPDEST POP POP POP POP PUSH1 0x40 MLOAD RETURNDATASIZE PUSH1 0x1F NOT PUSH1 0x1F DUP3 ADD AND DUP3 ADD DUP1 PUSH1 0x40 MSTORE POP DUP2 ADD SWAP1 PUSH2 0x497C SWAP2 SWAP1 PUSH2 0x5CE1 JUMP JUMPDEST SWAP1 POP PUSH1 0x0 PUSH32 0x0 PUSH1 0x1 PUSH1 0x1 PUSH1 0xA0 SHL SUB AND PUSH4 0x313CE567 PUSH1 0x40 MLOAD DUP2 PUSH4 0xFFFFFFFF AND PUSH1 0xE0 SHL DUP2 MSTORE PUSH1 0x4 ADD PUSH1 0x20 PUSH1 0x40 MLOAD DUP1 DUP4 SUB DUP2 DUP7 GAS STATICCALL ISZERO DUP1 ISZERO PUSH2 0x49DE JUMPI RETURNDATASIZE PUSH1 0x0 DUP1 RETURNDATACOPY RETURNDATASIZE PUSH1 0x0 REVERT JUMPDEST POP POP POP POP PUSH1 0x40 MLOAD RETURNDATASIZE PUSH1 0x1F NOT PUSH1 0x1F DUP3 ADD AND DUP3 ADD DUP1 PUSH1 0x40 MSTORE POP DUP2 ADD SWAP1 PUSH2 0x4A02 SWAP2 SWAP1 PUSH2 0x5E4B JUMP JUMPDEST PUSH2 0x4A0D SWAP1 PUSH1 0xA PUSH2 0x5E6E JUMP JUMPDEST PUSH2 0x4A17 DUP5 DUP5 PUSH2 0x5E12 JUMP JUMPDEST PUSH2 0x4A21 SWAP2 SWAP1 PUSH2 0x5E29 JUMP JUMPDEST SWAP1 POP PUSH2 0x4A37 PUSH1 0x2 PUSH9 0x56BC75E2D63100000 PUSH2 0x5E29 JUMP JUMPDEST DUP2 LT PUSH2 0x4A4E JUMPI POP SWAP4 SWAP8 POP SWAP6 POP PUSH2 0x3099 SWAP5 POP POP POP POP POP JUMP JUMPDEST POP POP JUMPDEST PUSH1 0x0 PUSH2 0x4A5D DUP12 DUP5 PUSH2 0x3717 JUMP JUMPDEST SWAP1 POP DUP1 DUP3 GT PUSH2 0x4A6F JUMPI POP POP POP POP PUSH2 0x4ABC JUMP JUMPDEST PUSH1 0x0 PUSH2 0x4A83 PUSH2 0x4A7C PUSH2 0x54F9 JUMP JUMPDEST DUP4 SWAP1 PUSH2 0x3717 JUMP JUMPDEST PUSH2 0x4A8D SWAP1 DUP4 PUSH2 0x5CFA JUMP JUMPDEST SWAP1 POP PUSH1 0x0 PUSH2 0x4A9B DUP3 DUP6 PUSH2 0x5CFA JUMP JUMPDEST SWAP1 POP DUP10 DUP2 GT PUSH2 0x4AAF JUMPI POP POP POP POP POP POP PUSH2 0x4ABC JUMP JUMPDEST DUP1 SWAP10 POP DUP7 SWAP8 POP POP POP POP POP POP POP JUMPDEST DUP1 PUSH2 0x4AC6 DUP2 PUSH2 0x5CB5 JUMP JUMPDEST SWAP2 POP POP PUSH2 0x4820 JUMP JUMPDEST POP PUSH1 0x0 NOT DUP2 SGT PUSH2 0x4B20 JUMPI PUSH1 0x40 MLOAD PUSH3 0x461BCD PUSH1 0xE5 SHL DUP2 MSTORE PUSH1 0x20 PUSH1 0x4 DUP3 ADD MSTORE PUSH1 0x1E PUSH1 0x24 DUP3 ADD MSTORE PUSH32 0x6572726F722072657472696576696E6720776974686472617720706F6F6C0000 PUSH1 0x44 DUP3 ADD MSTORE PUSH1 0x64 ADD PUSH2 0x309 JUMP JUMPDEST SWAP3 POP POP SWAP3 POP SWAP3 SWAP1 POP JUMP JUMPDEST PUSH1 0x0 PUSH32 0x0 PUSH1 0x1 PUSH1 0x1 PUSH1 0xA0 SHL SUB AND PUSH4 0x9F82B217 PUSH1 0x40 MLOAD DUP2 PUSH4 0xFFFFFFFF AND PUSH1 0xE0 SHL DUP2 MSTORE PUSH1 0x4 ADD PUSH1 0x20 PUSH1 0x40 MLOAD DUP1 DUP4 SUB DUP2 DUP7 GAS STATICCALL ISZERO DUP1 ISZERO PUSH2 0x4B8A JUMPI RETURNDATASIZE PUSH1 0x0 DUP1 RETURNDATACOPY RETURNDATASIZE PUSH1 0x0 REVERT JUMPDEST POP POP POP POP PUSH1 0x40 MLOAD RETURNDATASIZE PUSH1 0x1F NOT PUSH1 0x1F DUP3 ADD AND DUP3 ADD DUP1 PUSH1 0x40 MSTORE POP DUP2 ADD SWAP1 PUSH2 0x4BAE SWAP2 SWAP1 PUSH2 0x5C6C JUMP JUMPDEST PUSH1 0x40 MLOAD PUSH4 0x1DA958A9 PUSH1 0xE2 SHL DUP2 MSTORE PUSH1 0x1 PUSH1 0x1 PUSH1 0xA0 SHL SUB DUP6 DUP2 AND PUSH1 0x4 DUP4 ADD MSTORE SWAP2 SWAP3 POP PUSH1 0x0 SWAP2 DUP4 AND SWAP1 PUSH4 0x76A562A4 SWAP1 PUSH1 0x24 ADD PUSH1 0x20 PUSH1 0x40 MLOAD DUP1 DUP4 SUB DUP2 DUP7 GAS STATICCALL ISZERO DUP1 ISZERO PUSH2 0x4BFA JUMPI RETURNDATASIZE PUSH1 0x0 DUP1 RETURNDATACOPY RETURNDATASIZE PUSH1 0x0 REVERT JUMPDEST POP POP POP POP PUSH1 0x40 MLOAD RETURNDATASIZE PUSH1 0x1F NOT PUSH1 0x1F DUP3 ADD AND DUP3 ADD DUP1 PUSH1 0x40 MSTORE POP DUP2 ADD SWAP1 PUSH2 0x4C1E SWAP2 SWAP1 PUSH2 0x5C6C JUMP JUMPDEST SWAP1 POP PUSH1 0x0 PUSH2 0x4C2C DUP3 DUP6 PUSH2 0x5513 JUMP JUMPDEST SWAP1 POP DUP1 PUSH1 0x0 SUB PUSH2 0x4C3D JUMPI POP POP POP POP POP JUMP JUMPDEST PUSH1 0x0 PUSH2 0x4C48 DUP7 PUSH2 0x3833 JUMP JUMPDEST PUSH1 0x40 MLOAD PUSH4 0x514A9009 PUSH1 0xE0 SHL DUP2 MSTORE PUSH1 0x1 PUSH1 0x1 PUSH1 0xA0 SHL SUB DUP9 DUP2 AND PUSH1 0x4 DUP4 ADD MSTORE SWAP2 SWAP3 POP PUSH1 0x0 SWAP2 DUP7 AND SWAP1 PUSH4 0x514A9009 SWAP1 PUSH1 0x24 ADD PUSH1 0x20 PUSH1 0x40 MLOAD DUP1 DUP4 SUB DUP2 DUP7 GAS STATICCALL ISZERO DUP1 ISZERO PUSH2 0x4C94 JUMPI RETURNDATASIZE PUSH1 0x0 DUP1 RETURNDATACOPY RETURNDATASIZE PUSH1 0x0 REVERT JUMPDEST POP POP POP POP PUSH1 0x40 MLOAD RETURNDATASIZE PUSH1 0x1F NOT PUSH1 0x1F DUP3 ADD AND DUP3 ADD DUP1 PUSH1 0x40 MSTORE POP DUP2 ADD SWAP1 PUSH2 0x4CB8 SWAP2 SWAP1 PUSH2 0x5C6C JUMP JUMPDEST PUSH1 0x40 MLOAD PUSH4 0x70A08231 PUSH1 0xE0 SHL DUP2 MSTORE ADDRESS PUSH1 0x4 DUP3 ADD MSTORE SWAP1 SWAP2 POP PUSH1 0x0 SWAP1 PUSH1 0x1 PUSH1 0x1 PUSH1 0xA0 SHL SUB DUP4 AND SWAP1 PUSH4 0x70A08231 SWAP1 PUSH1 0x24 ADD PUSH1 0x20 PUSH1 0x40 MLOAD DUP1 DUP4 SUB DUP2 DUP7 GAS STATICCALL ISZERO DUP1 ISZERO PUSH2 0x4D02 JUMPI RETURNDATASIZE PUSH1 0x0 DUP1 RETURNDATACOPY RETURNDATASIZE PUSH1 0x0 REVERT JUMPDEST POP POP POP POP PUSH1 0x40 MLOAD RETURNDATASIZE PUSH1 0x1F NOT PUSH1 0x1F DUP3 ADD AND DUP3 ADD DUP1 PUSH1 0x40 MSTORE POP DUP2 ADD SWAP1 PUSH2 0x4D26 SWAP2 SWAP1 PUSH2 0x5CE1 JUMP JUMPDEST SWAP1 POP PUSH1 0x0 PUSH2 0x4D34 DUP3 DUP6 PUSH2 0x5CCE JUMP JUMPDEST SWAP1 POP DUP5 DUP2 LT ISZERO PUSH2 0x4D42 JUMPI DUP1 SWAP5 POP JUMPDEST DUP4 DUP6 GT ISZERO PUSH2 0x4E33 JUMPI PUSH2 0x4E31 DUP10 PUSH2 0x4D58 DUP7 DUP9 PUSH2 0x5CFA JUMP JUMPDEST PUSH1 0x40 MLOAD PUSH1 0x1 PUSH1 0x1 PUSH1 0xA0 SHL SUB SWAP1 SWAP3 AND PUSH1 0x24 DUP4 ADD MSTORE PUSH1 0x44 DUP3 ADD MSTORE PUSH1 0x64 ADD PUSH1 0x40 DUP1 MLOAD PUSH1 0x1F NOT DUP2 DUP5 SUB ADD DUP2 MSTORE SWAP2 DUP2 MSTORE PUSH1 0x20 DUP1 DUP4 ADD DUP1 MLOAD PUSH1 0x1 PUSH1 0x1 PUSH1 0xE0 SHL SUB AND PUSH4 0xF3FEF3A3 PUSH1 0xE0 SHL OR SWAP1 MSTORE DUP2 MLOAD PUSH4 0x160A1D97 PUSH1 0xE3 SHL DUP2 MSTORE SWAP2 MLOAD PUSH1 0x1 PUSH1 0x1 PUSH1 0xA0 SHL SUB PUSH32 0x0 AND SWAP3 PUSH4 0xB050ECB8 SWAP3 PUSH1 0x4 DUP1 DUP4 ADD SWAP4 SWAP2 SWAP3 DUP3 SWAP1 SUB ADD DUP2 DUP7 GAS STATICCALL ISZERO DUP1 ISZERO PUSH2 0x4DFE JUMPI RETURNDATASIZE PUSH1 0x0 DUP1 RETURNDATACOPY RETURNDATASIZE PUSH1 0x0 REVERT JUMPDEST POP POP POP POP PUSH1 0x40 MLOAD RETURNDATASIZE PUSH1 0x1F NOT PUSH1 0x1F DUP3 ADD AND DUP3 ADD DUP1 PUSH1 0x40 MSTORE POP DUP2 ADD SWAP1 PUSH2 0x4E22 SWAP2 SWAP1 PUSH2 0x5C6C JUMP JUMPDEST PUSH1 0x1 PUSH1 0x1 PUSH1 0xA0 SHL SUB AND SWAP1 PUSH2 0x57A5 JUMP JUMPDEST POP JUMPDEST PUSH1 0x40 MLOAD PUSH1 0x1 PUSH1 0x1 PUSH1 0xA0 SHL SUB DUP1 DUP12 AND PUSH1 0x24 DUP4 ADD MSTORE PUSH32 0x0 AND PUSH1 0x44 DUP3 ADD MSTORE PUSH1 0x64 DUP2 ADD DUP7 SWAP1 MSTORE PUSH2 0x4F06 SWAP1 PUSH1 0x84 ADD PUSH1 0x40 DUP1 MLOAD PUSH1 0x1F NOT DUP2 DUP5 SUB ADD DUP2 MSTORE SWAP2 DUP2 MSTORE PUSH1 0x20 DUP1 DUP4 ADD DUP1 MLOAD PUSH1 0x1 PUSH1 0x1 PUSH1 0xE0 SHL SUB AND PUSH4 0x6CE57689 PUSH1 0xE1 SHL OR SWAP1 MSTORE DUP2 MLOAD PUSH4 0x5A991917 PUSH1 0xE0 SHL DUP2 MSTORE SWAP2 MLOAD PUSH1 0x1 PUSH1 0x1 PUSH1 0xA0 SHL SUB PUSH32 0x0 AND SWAP3 PUSH4 0x5A991917 SWAP3 PUSH1 0x4 DUP1 DUP4 ADD SWAP4 SWAP2 SWAP3 DUP3 SWAP1 SUB ADD DUP2 DUP7 GAS STATICCALL ISZERO DUP1 ISZERO PUSH2 0x4DFE JUMPI RETURNDATASIZE PUSH1 0x0 DUP1 RETURNDATACOPY RETURNDATASIZE PUSH1 0x0 REVERT JUMPDEST POP POP POP POP POP POP POP POP POP POP JUMP JUMPDEST PUSH1 0x0 DUP2 DUP2 MSTORE PUSH1 0x2 DUP4 ADD PUSH1 0x20 MSTORE PUSH1 0x40 DUP2 KECCAK256 SLOAD DUP2 SWAP1 DUP1 PUSH2 0x4F41 JUMPI PUSH2 0x4F34 DUP6 DUP6 PUSH2 0x53E4 JUMP JUMPDEST SWAP3 POP PUSH1 0x0 SWAP2 POP PUSH2 0x3099 SWAP1 POP JUMP JUMPDEST PUSH1 0x1 SWAP3 POP SWAP1 POP PUSH2 0x3099 JUMP JUMPDEST POP SWAP3 POP SWAP3 SWAP1 POP JUMP JUMPDEST DUP1 MLOAD PUSH1 0x0 SWAP1 DUP2 SWAP1 PUSH1 0x0 NOT DUP3 JUMPDEST DUP3 DUP2 LT ISZERO PUSH2 0x501C JUMPI PUSH1 0x0 PUSH2 0x4F75 PUSH1 0x8 DUP4 PUSH2 0x3D6B JUMP JUMPDEST SWAP1 POP PUSH1 0x0 DUP8 DUP4 DUP2 MLOAD DUP2 LT PUSH2 0x4F8B JUMPI PUSH2 0x4F8B PUSH2 0x5C89 JUMP JUMPDEST PUSH1 0x20 MUL PUSH1 0x20 ADD ADD MLOAD SWAP1 POP PUSH1 0x0 PUSH2 0x4FB5 PUSH2 0x4FAE DUP5 PUSH1 0xA PUSH2 0x334C SWAP1 SWAP2 SWAP1 PUSH4 0xFFFFFFFF AND JUMP JUMPDEST DUP12 SWAP1 PUSH2 0x3717 JUMP JUMPDEST SWAP1 POP DUP1 DUP3 LT PUSH2 0x4FC6 JUMPI POP POP POP PUSH2 0x500A JUMP JUMPDEST PUSH1 0x0 PUSH2 0x4FD3 PUSH2 0x4A7C PUSH2 0x54F9 JUMP JUMPDEST PUSH2 0x4FDD SWAP1 DUP4 PUSH2 0x5CCE JUMP JUMPDEST SWAP1 POP PUSH1 0x0 PUSH2 0x4FEB DUP5 DUP4 PUSH2 0x5CFA JUMP JUMPDEST SWAP1 POP DUP9 DUP2 GT PUSH2 0x4FFE JUMPI POP POP POP POP POP PUSH2 0x500A JUMP JUMPDEST DUP1 SWAP9 POP DUP6 SWAP7 POP POP POP POP POP POP JUMPDEST DUP1 PUSH2 0x5014 DUP2 PUSH2 0x5CB5 JUMP JUMPDEST SWAP2 POP POP PUSH2 0x4F60 JUMP JUMPDEST POP PUSH1 0x0 NOT DUP2 SGT PUSH2 0x4B20 JUMPI PUSH1 0x40 MLOAD PUSH3 0x461BCD PUSH1 0xE5 SHL DUP2 MSTORE PUSH1 0x20 PUSH1 0x4 DUP3 ADD MSTORE PUSH1 0x1D PUSH1 0x24 DUP3 ADD MSTORE PUSH32 0x6572726F722072657472696576696E67206465706F73697420706F6F6C000000 PUSH1 0x44 DUP3 ADD MSTORE PUSH1 0x64 ADD PUSH2 0x309 JUMP JUMPDEST DUP1 PUSH1 0x0 SUB PUSH2 0x507A JUMPI POP POP JUMP JUMPDEST PUSH1 0x40 MLOAD PUSH1 0x1 PUSH1 0x1 PUSH1 0xA0 SHL SUB DUP1 DUP5 AND PUSH1 0x24 DUP4 ADD MSTORE PUSH32 0x0 AND PUSH1 0x44 DUP3 ADD MSTORE PUSH1 0x64 DUP2 ADD DUP3 SWAP1 MSTORE PUSH2 0x514D SWAP1 PUSH1 0x84 ADD PUSH1 0x40 DUP1 MLOAD PUSH1 0x1F NOT DUP2 DUP5 SUB ADD DUP2 MSTORE SWAP2 DUP2 MSTORE PUSH1 0x20 DUP1 DUP4 ADD DUP1 MLOAD PUSH1 0x1 PUSH1 0x1 PUSH1 0xE0 SHL SUB AND PUSH4 0x8340F549 PUSH1 0xE0 SHL OR SWAP1 MSTORE DUP2 MLOAD PUSH4 0x5A991917 PUSH1 0xE0 SHL DUP2 MSTORE SWAP2 MLOAD PUSH1 0x1 PUSH1 0x1 PUSH1 0xA0 SHL SUB PUSH32 0x0 AND SWAP3 PUSH4 0x5A991917 SWAP3 PUSH1 0x4 DUP1 DUP4 ADD SWAP4 SWAP2 SWAP3 DUP3 SWAP1 SUB ADD DUP2 DUP7 GAS STATICCALL ISZERO DUP1 ISZERO PUSH2 0x4DFE JUMPI RETURNDATASIZE PUSH1 0x0 DUP1 RETURNDATACOPY RETURNDATASIZE PUSH1 0x0 REVERT JUMPDEST POP PUSH1 0x0 PUSH2 0x5159 DUP4 PUSH2 0x3833 JUMP JUMPDEST SWAP1 POP PUSH1 0x0 DUP2 PUSH2 0x5167 DUP6 PUSH2 0x398E JUMP JUMPDEST PUSH2 0x5171 SWAP2 SWAP1 PUSH2 0x5CCE JUMP JUMPDEST PUSH1 0x2 SLOAD SWAP1 SWAP2 POP PUSH2 0x5181 DUP4 DUP4 PUSH2 0x3B31 JUMP JUMPDEST LT PUSH2 0x3A7A JUMPI PUSH1 0x40 MLOAD PUSH1 0x1 PUSH1 0x1 PUSH1 0xA0 SHL SUB DUP6 AND PUSH1 0x24 DUP3 ADD MSTORE PUSH1 0x44 DUP2 ADD DUP4 SWAP1 MSTORE PUSH2 0x3C7B SWAP1 PUSH1 0x64 ADD PUSH1 0x40 DUP1 MLOAD PUSH1 0x1F NOT DUP2 DUP5 SUB ADD DUP2 MSTORE SWAP2 DUP2 MSTORE PUSH1 0x20 DUP1 DUP4 ADD DUP1 MLOAD PUSH1 0x1 PUSH1 0x1 PUSH1 0xE0 SHL SUB AND PUSH4 0x11F9FBC9 PUSH1 0xE2 SHL OR SWAP1 MSTORE DUP2 MLOAD PUSH4 0x160A1D97 PUSH1 0xE3 SHL DUP2 MSTORE SWAP2 MLOAD PUSH1 0x1 PUSH1 0x1 PUSH1 0xA0 SHL SUB PUSH32 0x0 AND SWAP3 PUSH4 0xB050ECB8 SWAP3 PUSH1 0x4 DUP1 DUP4 ADD SWAP4 SWAP2 SWAP3 DUP3 SWAP1 SUB ADD DUP2 DUP7 GAS STATICCALL ISZERO DUP1 ISZERO PUSH2 0x4DFE JUMPI RETURNDATASIZE PUSH1 0x0 DUP1 RETURNDATACOPY RETURNDATASIZE PUSH1 0x0 REVERT JUMPDEST PUSH1 0x60 DUP2 PUSH1 0x0 ADD DUP1 SLOAD DUP1 PUSH1 0x20 MUL PUSH1 0x20 ADD PUSH1 0x40 MLOAD SWAP1 DUP2 ADD PUSH1 0x40 MSTORE DUP1 SWAP3 SWAP2 SWAP1 DUP2 DUP2 MSTORE PUSH1 0x20 ADD DUP3 DUP1 SLOAD DUP1 ISZERO PUSH2 0x5281 JUMPI PUSH1 0x20 MUL DUP3 ADD SWAP2 SWAP1 PUSH1 0x0 MSTORE PUSH1 0x20 PUSH1 0x0 KECCAK256 SWAP1 JUMPDEST DUP2 SLOAD DUP2 MSTORE PUSH1 0x20 ADD SWAP1 PUSH1 0x1 ADD SWAP1 DUP1 DUP4 GT PUSH2 0x526D JUMPI JUMPDEST POP POP POP POP POP SWAP1 POP SWAP2 SWAP1 POP JUMP JUMPDEST PUSH1 0x0 DUP3 PUSH1 0x0 ADD DUP3 DUP2 SLOAD DUP2 LT PUSH2 0x52A4 JUMPI PUSH2 0x52A4 PUSH2 0x5C89 JUMP JUMPDEST SWAP1 PUSH1 0x0 MSTORE PUSH1 0x20 PUSH1 0x0 KECCAK256 ADD SLOAD SWAP1 POP SWAP3 SWAP2 POP POP JUMP JUMPDEST PUSH1 0x0 DUP3 DUP2 MSTORE PUSH1 0x2 DUP5 ADD PUSH1 0x20 MSTORE PUSH1 0x40 DUP2 KECCAK256 DUP3 SWAP1 SSTORE PUSH2 0x100A DUP5 DUP5 PUSH2 0x57CA JUMP JUMPDEST PUSH1 0x0 DUP2 DUP2 MSTORE PUSH1 0x1 DUP4 ADD PUSH1 0x20 MSTORE PUSH1 0x40 DUP2 KECCAK256 SLOAD DUP1 ISZERO PUSH2 0x53BD JUMPI PUSH1 0x0 PUSH2 0x52F8 PUSH1 0x1 DUP4 PUSH2 0x5CFA JUMP JUMPDEST DUP6 SLOAD SWAP1 SWAP2 POP PUSH1 0x0 SWAP1 PUSH2 0x530C SWAP1 PUSH1 0x1 SWAP1 PUSH2 0x5CFA JUMP JUMPDEST SWAP1 POP DUP2 DUP2 EQ PUSH2 0x5371 JUMPI PUSH1 0x0 DUP7 PUSH1 0x0 ADD DUP3 DUP2 SLOAD DUP2 LT PUSH2 0x532C JUMPI PUSH2 0x532C PUSH2 0x5C89 JUMP JUMPDEST SWAP1 PUSH1 0x0 MSTORE PUSH1 0x20 PUSH1 0x0 KECCAK256 ADD SLOAD SWAP1 POP DUP1 DUP8 PUSH1 0x0 ADD DUP5 DUP2 SLOAD DUP2 LT PUSH2 0x534F JUMPI PUSH2 0x534F PUSH2 0x5C89 JUMP JUMPDEST PUSH1 0x0 SWAP2 DUP3 MSTORE PUSH1 0x20 DUP1 DUP4 KECCAK256 SWAP1 SWAP2 ADD SWAP3 SWAP1 SWAP3 SSTORE SWAP2 DUP3 MSTORE PUSH1 0x1 DUP9 ADD SWAP1 MSTORE PUSH1 0x40 SWAP1 KECCAK256 DUP4 SWAP1 SSTORE JUMPDEST DUP6 SLOAD DUP7 SWAP1 DUP1 PUSH2 0x5382 JUMPI PUSH2 0x5382 PUSH2 0x5EBD JUMP JUMPDEST PUSH1 0x1 SWAP1 SUB DUP2 DUP2 SWAP1 PUSH1 0x0 MSTORE PUSH1 0x20 PUSH1 0x0 KECCAK256 ADD PUSH1 0x0 SWAP1 SSTORE SWAP1 SSTORE DUP6 PUSH1 0x1 ADD PUSH1 0x0 DUP7 DUP2 MSTORE PUSH1 0x20 ADD SWAP1 DUP2 MSTORE PUSH1 0x20 ADD PUSH1 0x0 KECCAK256 PUSH1 0x0 SWAP1 SSTORE PUSH1 0x1 SWAP4 POP POP POP POP PUSH2 0xA1E JUMP JUMPDEST PUSH1 0x0 SWAP2 POP POP PUSH2 0xA1E JUMP JUMPDEST PUSH1 0x0 DUP2 DUP2 MSTORE PUSH1 0x2 DUP4 ADD PUSH1 0x20 MSTORE PUSH1 0x40 DUP2 KECCAK256 DUP2 SWAP1 SSTORE PUSH2 0xA1B DUP4 DUP4 PUSH2 0x57D6 JUMP JUMPDEST PUSH1 0x0 PUSH2 0xA1B DUP4 DUP4 PUSH2 0x57E2 JUMP JUMPDEST PUSH1 0x0 DUP2 DUP2 MSTORE PUSH1 0x1 DUP4 ADD PUSH1 0x20 MSTORE PUSH1 0x40 DUP2 KECCAK256 SLOAD PUSH2 0x5437 JUMPI POP DUP2 SLOAD PUSH1 0x1 DUP2 DUP2 ADD DUP5 SSTORE PUSH1 0x0 DUP5 DUP2 MSTORE PUSH1 0x20 DUP1 DUP3 KECCAK256 SWAP1 SWAP4 ADD DUP5 SWAP1 SSTORE DUP5 SLOAD DUP5 DUP3 MSTORE DUP3 DUP7 ADD SWAP1 SWAP4 MSTORE PUSH1 0x40 SWAP1 KECCAK256 SWAP2 SWAP1 SWAP2 SSTORE PUSH2 0xA1E JUMP JUMPDEST POP PUSH1 0x0 PUSH2 0xA1E JUMP JUMPDEST PUSH1 0x60 DUP4 ISZERO PUSH2 0x54AE JUMPI DUP3 MLOAD PUSH1 0x0 SUB PUSH2 0x54A7 JUMPI PUSH1 0x1 PUSH1 0x1 PUSH1 0xA0 SHL SUB DUP6 AND EXTCODESIZE PUSH2 0x54A7 JUMPI PUSH1 0x40 MLOAD PUSH3 0x461BCD PUSH1 0xE5 SHL DUP2 MSTORE PUSH1 0x20 PUSH1 0x4 DUP3 ADD MSTORE PUSH1 0x1D PUSH1 0x24 DUP3 ADD MSTORE PUSH32 0x416464726573733A2063616C6C20746F206E6F6E2D636F6E7472616374000000 PUSH1 0x44 DUP3 ADD MSTORE PUSH1 0x64 ADD PUSH2 0x309 JUMP JUMPDEST POP DUP2 PUSH2 0x13C1 JUMP JUMPDEST PUSH2 0x13C1 DUP4 DUP4 PUSH2 0x57FA JUMP JUMPDEST PUSH1 0x0 DUP2 PUSH1 0xFF AND DUP4 PUSH1 0xFF AND SUB PUSH2 0x54CE JUMPI POP DUP3 PUSH2 0x100D JUMP JUMPDEST DUP2 PUSH1 0xFF AND DUP4 PUSH1 0xFF AND GT ISZERO PUSH2 0x54EE JUMPI PUSH2 0x54E7 DUP5 DUP5 DUP5 PUSH2 0x5824 JUMP JUMPDEST SWAP1 POP PUSH2 0x100D JUMP JUMPDEST PUSH2 0x100A DUP5 DUP5 DUP5 PUSH2 0x5845 JUMP JUMPDEST PUSH1 0x7 SLOAD PUSH1 0x0 SWAP1 PUSH1 0xFF AND PUSH2 0x550D JUMPI POP PUSH1 0x1 SLOAD SWAP1 JUMP JUMPDEST POP PUSH1 0x0 SWAP1 JUMP JUMPDEST PUSH1 0x0 PUSH2 0xA1B PUSH32 0x0 PUSH1 0x1 PUSH1 0x1 PUSH1 0xA0 SHL SUB AND PUSH4 0x313CE567 PUSH1 0x40 MLOAD DUP2 PUSH4 0xFFFFFFFF AND PUSH1 0xE0 SHL DUP2 MSTORE PUSH1 0x4 ADD PUSH1 0x20 PUSH1 0x40 MLOAD DUP1 DUP4 SUB DUP2 DUP7 GAS STATICCALL ISZERO DUP1 ISZERO PUSH2 0x5576 JUMPI RETURNDATASIZE PUSH1 0x0 DUP1 RETURNDATACOPY RETURNDATASIZE PUSH1 0x0 REVERT JUMPDEST POP POP POP POP PUSH1 0x40 MLOAD RETURNDATASIZE PUSH1 0x1F NOT PUSH1 0x1F DUP3 ADD AND DUP3 ADD DUP1 PUSH1 0x40 MSTORE POP DUP2 ADD SWAP1 PUSH2 0x559A SWAP2 SWAP1 PUSH2 0x5E4B JUMP JUMPDEST PUSH1 0x12 PUSH2 0x46E6 PUSH32 0x0 PUSH1 0x1 PUSH1 0x1 PUSH1 0xA0 SHL SUB AND PUSH4 0x2630C12F PUSH1 0x40 MLOAD DUP2 PUSH4 0xFFFFFFFF AND PUSH1 0xE0 SHL DUP2 MSTORE PUSH1 0x4 ADD PUSH1 0x20 PUSH1 0x40 MLOAD DUP1 DUP4 SUB DUP2 DUP7 GAS STATICCALL ISZERO DUP1 ISZERO PUSH2 0x55FD JUMPI RETURNDATASIZE PUSH1 0x0 DUP1 RETURNDATACOPY RETURNDATASIZE PUSH1 0x0 REVERT JUMPDEST POP POP POP POP PUSH1 0x40 MLOAD RETURNDATASIZE PUSH1 0x1F NOT PUSH1 0x1F DUP3 ADD AND DUP3 ADD DUP1 PUSH1 0x40 MSTORE POP DUP2 ADD SWAP1 PUSH2 0x5621 SWAP2 SWAP1 PUSH2 0x5C6C JUMP JUMPDEST PUSH1 0x40 MLOAD PUSH4 0x8B2F0F4F PUSH1 0xE0 SHL DUP2 MSTORE PUSH1 0x1 PUSH1 0x1 PUSH1 0xA0 SHL SUB DUP10 DUP2 AND PUSH1 0x4 DUP4 ADD MSTORE SWAP2 SWAP1 SWAP2 AND SWAP1 PUSH4 0x8B2F0F4F SWAP1 PUSH1 0x24 ADD PUSH1 0x20 PUSH1 0x40 MLOAD DUP1 DUP4 SUB DUP2 DUP7 GAS STATICCALL ISZERO DUP1 ISZERO PUSH2 0x5669 JUMPI RETURNDATASIZE PUSH1 0x0 DUP1 RETURNDATACOPY RETURNDATASIZE PUSH1 0x0 REVERT JUMPDEST POP POP POP POP PUSH1 0x40 MLOAD RETURNDATASIZE PUSH1 0x1F NOT PUSH1 0x1F DUP3 ADD AND DUP3 ADD DUP1 PUSH1 0x40 MSTORE POP DUP2 ADD SWAP1 PUSH2 0x568D SWAP2 SWAP1 PUSH2 0x5CE1 JUMP JUMPDEST PUSH2 0x3578 PUSH32 0x0 PUSH1 0x1 PUSH1 0x1 PUSH1 0xA0 SHL SUB AND PUSH4 0x2630C12F PUSH1 0x40 MLOAD DUP2 PUSH4 0xFFFFFFFF AND PUSH1 0xE0 SHL DUP2 MSTORE PUSH1 0x4 ADD PUSH1 0x20 PUSH1 0x40 MLOAD DUP1 DUP4 SUB DUP2 DUP7 GAS STATICCALL ISZERO DUP1 ISZERO PUSH2 0x56EE JUMPI RETURNDATASIZE PUSH1 0x0 DUP1 RETURNDATACOPY RETURNDATASIZE PUSH1 0x0 REVERT JUMPDEST POP POP POP POP PUSH1 0x40 MLOAD RETURNDATASIZE PUSH1 0x1F NOT PUSH1 0x1F DUP3 ADD AND DUP3 ADD DUP1 PUSH1 0x40 MSTORE POP DUP2 ADD SWAP1 PUSH2 0x5712 SWAP2 SWAP1 PUSH2 0x5C6C JUMP JUMPDEST PUSH1 0x40 MLOAD PUSH4 0x8B2F0F4F PUSH1 0xE0 SHL DUP2 MSTORE PUSH1 0x1 PUSH1 0x1 PUSH1 0xA0 SHL SUB PUSH32 0x0 DUP2 AND PUSH1 0x4 DUP4 ADD MSTORE SWAP2 SWAP1 SWAP2 AND SWAP1 PUSH4 0x8B2F0F4F SWAP1 PUSH1 0x24 ADD PUSH1 0x20 PUSH1 0x40 MLOAD DUP1 DUP4 SUB DUP2 DUP7 GAS STATICCALL ISZERO DUP1 ISZERO PUSH2 0x577A JUMPI RETURNDATASIZE PUSH1 0x0 DUP1 RETURNDATACOPY RETURNDATASIZE PUSH1 0x0 REVERT JUMPDEST POP POP POP POP PUSH1 0x40 MLOAD RETURNDATASIZE PUSH1 0x1F NOT PUSH1 0x1F DUP3 ADD AND DUP3 ADD DUP1 PUSH1 0x40 MSTORE POP DUP2 ADD SWAP1 PUSH2 0x579E SWAP2 SWAP1 PUSH2 0x5CE1 JUMP JUMPDEST DUP9 SWAP1 PUSH2 0x3717 JUMP JUMPDEST PUSH1 0x60 PUSH2 0xA1B DUP4 DUP4 PUSH1 0x40 MLOAD DUP1 PUSH1 0x60 ADD PUSH1 0x40 MSTORE DUP1 PUSH1 0x27 DUP2 MSTORE PUSH1 0x20 ADD PUSH2 0x5F20 PUSH1 0x27 SWAP2 CODECOPY PUSH2 0x5866 JUMP JUMPDEST PUSH1 0x0 PUSH2 0xA1B DUP4 DUP4 PUSH2 0x53F0 JUMP JUMPDEST PUSH1 0x0 PUSH2 0xA1B DUP4 DUP4 PUSH2 0x52D4 JUMP JUMPDEST PUSH1 0x0 DUP2 DUP2 MSTORE PUSH1 0x1 DUP4 ADD PUSH1 0x20 MSTORE PUSH1 0x40 DUP2 KECCAK256 SLOAD ISZERO ISZERO PUSH2 0xA1B JUMP JUMPDEST DUP2 MLOAD ISZERO PUSH2 0x580A JUMPI DUP2 MLOAD DUP1 DUP4 PUSH1 0x20 ADD REVERT JUMPDEST DUP1 PUSH1 0x40 MLOAD PUSH3 0x461BCD PUSH1 0xE5 SHL DUP2 MSTORE PUSH1 0x4 ADD PUSH2 0x309 SWAP2 SWAP1 PUSH2 0x5ED3 JUMP JUMPDEST PUSH1 0x0 PUSH2 0x5830 DUP3 DUP5 PUSH2 0x5F06 JUMP JUMPDEST PUSH2 0x583B SWAP1 PUSH1 0xA PUSH2 0x5E6E JUMP JUMPDEST PUSH2 0x100A SWAP1 DUP6 PUSH2 0x5E29 JUMP JUMPDEST PUSH1 0x0 PUSH2 0x5851 DUP4 DUP4 PUSH2 0x5F06 JUMP JUMPDEST PUSH2 0x585C SWAP1 PUSH1 0xA PUSH2 0x5E6E JUMP JUMPDEST PUSH2 0x100A SWAP1 DUP6 PUSH2 0x5E12 JUMP JUMPDEST PUSH1 0x60 PUSH1 0x0 DUP1 DUP6 PUSH1 0x1 PUSH1 0x1 PUSH1 0xA0 SHL SUB AND DUP6 PUSH1 0x40 MLOAD PUSH2 0x5883 SWAP2 SWAP1 PUSH2 0x5EA1 JUMP JUMPDEST PUSH1 0x0 PUSH1 0x40 MLOAD DUP1 DUP4 SUB DUP2 DUP6 GAS DELEGATECALL SWAP2 POP POP RETURNDATASIZE DUP1 PUSH1 0x0 DUP2 EQ PUSH2 0x58BE JUMPI PUSH1 0x40 MLOAD SWAP2 POP PUSH1 0x1F NOT PUSH1 0x3F RETURNDATASIZE ADD AND DUP3 ADD PUSH1 0x40 MSTORE RETURNDATASIZE DUP3 MSTORE RETURNDATASIZE PUSH1 0x0 PUSH1 0x20 DUP5 ADD RETURNDATACOPY PUSH2 0x58C3 JUMP JUMPDEST PUSH1 0x60 SWAP2 POP JUMPDEST POP SWAP2 POP SWAP2 POP PUSH2 0x58D4 DUP7 DUP4 DUP4 DUP8 PUSH2 0x543F JUMP JUMPDEST SWAP7 SWAP6 POP POP POP POP POP POP JUMP JUMPDEST PUSH1 0x0 DUP1 PUSH1 0x40 DUP4 DUP6 SUB SLT ISZERO PUSH2 0x58F1 JUMPI PUSH1 0x0 DUP1 REVERT JUMPDEST POP POP DUP1 CALLDATALOAD SWAP3 PUSH1 0x20 SWAP1 SWAP2 ADD CALLDATALOAD SWAP2 POP JUMP JUMPDEST PUSH1 0x20 DUP1 DUP3 MSTORE DUP3 MLOAD DUP3 DUP3 ADD DUP2 SWAP1 MSTORE PUSH1 0x0 SWAP2 SWAP1 PUSH1 0x40 SWAP1 DUP2 DUP6 ADD SWAP1 DUP7 DUP5 ADD DUP6 JUMPDEST DUP3 DUP2 LT ISZERO PUSH2 0x5953 JUMPI PUSH2 0x5943 DUP5 DUP4 MLOAD DUP1 MLOAD PUSH1 0x1 PUSH1 0x1 PUSH1 0xA0 SHL SUB AND DUP3 MSTORE PUSH1 0x20 SWAP1 DUP2 ADD MLOAD SWAP2 ADD MSTORE JUMP JUMPDEST SWAP3 DUP5 ADD SWAP3 SWAP1 DUP6 ADD SWAP1 PUSH1 0x1 ADD PUSH2 0x591D JUMP JUMPDEST POP SWAP2 SWAP8 SWAP7 POP POP POP POP POP POP POP JUMP JUMPDEST PUSH1 0x0 PUSH1 0x20 DUP3 DUP5 SUB SLT ISZERO PUSH2 0x5972 JUMPI PUSH1 0x0 DUP1 REVERT JUMPDEST POP CALLDATALOAD SWAP2 SWAP1 POP JUMP JUMPDEST PUSH1 0x0 PUSH1 0x60 DUP3 ADD DUP6 DUP4 MSTORE PUSH1 0x20 DUP6 DUP2 DUP6 ADD MSTORE PUSH1 0x60 PUSH1 0x40 DUP6 ADD MSTORE DUP2 DUP6 MLOAD DUP1 DUP5 MSTORE PUSH1 0x80 DUP7 ADD SWAP2 POP DUP3 DUP8 ADD SWAP4 POP PUSH1 0x0 JUMPDEST DUP2 DUP2 LT ISZERO PUSH2 0x59C0 JUMPI DUP5 MLOAD DUP4 MSTORE SWAP4 DUP4 ADD SWAP4 SWAP2 DUP4 ADD SWAP2 PUSH1 0x1 ADD PUSH2 0x59A4 JUMP JUMPDEST POP SWAP1 SWAP9 SWAP8 POP POP POP POP POP POP POP POP JUMP JUMPDEST PUSH1 0x1 PUSH1 0x1 PUSH1 0xA0 SHL SUB DUP2 AND DUP2 EQ PUSH2 0x2A29 JUMPI PUSH1 0x0 DUP1 REVERT JUMPDEST PUSH1 0x0 PUSH1 0x20 DUP3 DUP5 SUB SLT ISZERO PUSH2 0x59F5 JUMPI PUSH1 0x0 DUP1 REVERT JUMPDEST DUP2 CALLDATALOAD PUSH2 0xA1B DUP2 PUSH2 0x59CE JUMP JUMPDEST DUP1 ISZERO ISZERO DUP2 EQ PUSH2 0x2A29 JUMPI PUSH1 0x0 DUP1 REVERT JUMPDEST PUSH1 0x0 DUP1 PUSH1 0x0 PUSH1 0x60 DUP5 DUP7 SUB SLT ISZERO PUSH2 0x5A23 JUMPI PUSH1 0x0 DUP1 REVERT JUMPDEST DUP4 CALLDATALOAD SWAP3 POP PUSH1 0x20 DUP5 ADD CALLDATALOAD SWAP2 POP PUSH1 0x40 DUP5 ADD CALLDATALOAD PUSH2 0x5A3C DUP2 PUSH2 0x5A00 JUMP JUMPDEST DUP1 SWAP2 POP POP SWAP3 POP SWAP3 POP SWAP3 JUMP JUMPDEST PUSH1 0x0 DUP1 PUSH1 0x0 DUP1 PUSH1 0x80 DUP6 DUP8 SUB SLT ISZERO PUSH2 0x5A5D JUMPI PUSH1 0x0 DUP1 REVERT JUMPDEST DUP5 CALLDATALOAD PUSH2 0x5A68 DUP2 PUSH2 0x59CE JUMP JUMPDEST SWAP4 POP PUSH1 0x20 DUP6 ADD CALLDATALOAD SWAP3 POP PUSH1 0x40 DUP6 ADD CALLDATALOAD SWAP2 POP PUSH1 0x60 DUP6 ADD CALLDATALOAD PUSH2 0x5A86 DUP2 PUSH2 0x5A00 JUMP JUMPDEST SWAP4 SWAP7 SWAP3 SWAP6 POP SWAP1 SWAP4 POP POP JUMP JUMPDEST PUSH1 0x20 DUP1 DUP3 MSTORE DUP3 MLOAD DUP3 DUP3 ADD DUP2 SWAP1 MSTORE PUSH1 0x0 SWAP2 SWAP1 DUP5 DUP3 ADD SWAP1 PUSH1 0x40 DUP6 ADD SWAP1 DUP5 JUMPDEST DUP2 DUP2 LT ISZERO PUSH2 0x5AD2 JUMPI DUP4 MLOAD PUSH1 0x1 PUSH1 0x1 PUSH1 0xA0 SHL SUB AND DUP4 MSTORE SWAP3 DUP5 ADD SWAP3 SWAP2 DUP5 ADD SWAP2 PUSH1 0x1 ADD PUSH2 0x5AAD JUMP JUMPDEST POP SWAP1 SWAP7 SWAP6 POP POP POP POP POP POP JUMP JUMPDEST PUSH1 0x20 DUP1 DUP3 MSTORE DUP3 MLOAD DUP3 DUP3 ADD DUP2 SWAP1 MSTORE PUSH1 0x0 SWAP2 SWAP1 PUSH1 0x40 SWAP1 DUP2 DUP6 ADD SWAP1 DUP7 DUP5 ADD DUP6 JUMPDEST DUP3 DUP2 LT ISZERO PUSH2 0x5953 JUMPI PUSH2 0x5B21 DUP5 DUP4 MLOAD DUP1 MLOAD PUSH1 0x1 PUSH1 0x1 PUSH1 0xA0 SHL SUB AND DUP3 MSTORE PUSH1 0x20 SWAP1 DUP2 ADD MLOAD SWAP2 ADD MSTORE JUMP JUMPDEST SWAP3 DUP5 ADD SWAP3 SWAP1 DUP6 ADD SWAP1 PUSH1 0x1 ADD PUSH2 0x5AFB JUMP JUMPDEST PUSH4 0x4E487B71 PUSH1 0xE0 SHL PUSH1 0x0 MSTORE PUSH1 0x41 PUSH1 0x4 MSTORE PUSH1 0x24 PUSH1 0x0 REVERT JUMPDEST PUSH1 0x40 DUP1 MLOAD SWAP1 DUP2 ADD PUSH8 0xFFFFFFFFFFFFFFFF DUP2 GT DUP3 DUP3 LT OR ISZERO PUSH2 0x5B6A JUMPI PUSH2 0x5B6A PUSH2 0x5B31 JUMP JUMPDEST PUSH1 0x40 MSTORE SWAP1 JUMP JUMPDEST PUSH1 0x40 MLOAD PUSH1 0x1F DUP3 ADD PUSH1 0x1F NOT AND DUP2 ADD PUSH8 0xFFFFFFFFFFFFFFFF DUP2 GT DUP3 DUP3 LT OR ISZERO PUSH2 0x5B99 JUMPI PUSH2 0x5B99 PUSH2 0x5B31 JUMP JUMPDEST PUSH1 0x40 MSTORE SWAP2 SWAP1 POP JUMP JUMPDEST PUSH1 0x0 PUSH1 0x20 DUP1 DUP4 DUP6 SUB SLT ISZERO PUSH2 0x5BB4 JUMPI PUSH1 0x0 DUP1 REVERT JUMPDEST DUP3 CALLDATALOAD PUSH8 0xFFFFFFFFFFFFFFFF DUP1 DUP3 GT ISZERO PUSH2 0x5BCC JUMPI PUSH1 0x0 DUP1 REVERT JUMPDEST DUP2 DUP6 ADD SWAP2 POP DUP6 PUSH1 0x1F DUP4 ADD SLT PUSH2 0x5BE0 JUMPI PUSH1 0x0 DUP1 REVERT JUMPDEST DUP2 CALLDATALOAD DUP2 DUP2 GT ISZERO PUSH2 0x5BF2 JUMPI PUSH2 0x5BF2 PUSH2 0x5B31 JUMP JUMPDEST PUSH2 0x5C00 DUP5 DUP3 PUSH1 0x5 SHL ADD PUSH2 0x5B70 JUMP JUMPDEST DUP2 DUP2 MSTORE DUP5 DUP2 ADD SWAP3 POP PUSH1 0x6 SWAP2 SWAP1 SWAP2 SHL DUP4 ADD DUP5 ADD SWAP1 DUP8 DUP3 GT ISZERO PUSH2 0x5C20 JUMPI PUSH1 0x0 DUP1 REVERT JUMPDEST SWAP3 DUP5 ADD SWAP3 JUMPDEST DUP2 DUP5 LT ISZERO PUSH2 0x4532 JUMPI PUSH1 0x40 DUP5 DUP10 SUB SLT ISZERO PUSH2 0x5C3E JUMPI PUSH1 0x0 DUP1 DUP2 REVERT JUMPDEST PUSH2 0x5C46 PUSH2 0x5B47 JUMP JUMPDEST DUP5 CALLDATALOAD PUSH2 0x5C51 DUP2 PUSH2 0x59CE JUMP JUMPDEST DUP2 MSTORE DUP5 DUP7 ADD CALLDATALOAD DUP7 DUP3 ADD MSTORE DUP4 MSTORE PUSH1 0x40 SWAP1 SWAP4 ADD SWAP3 SWAP2 DUP5 ADD SWAP2 PUSH2 0x5C25 JUMP JUMPDEST PUSH1 0x0 PUSH1 0x20 DUP3 DUP5 SUB SLT ISZERO PUSH2 0x5C7E JUMPI PUSH1 0x0 DUP1 REVERT JUMPDEST DUP2 MLOAD PUSH2 0xA1B DUP2 PUSH2 0x59CE JUMP JUMPDEST PUSH4 0x4E487B71 PUSH1 0xE0 SHL PUSH1 0x0 MSTORE PUSH1 0x32 PUSH1 0x4 MSTORE PUSH1 0x24 PUSH1 0x0 REVERT JUMPDEST PUSH4 0x4E487B71 PUSH1 0xE0 SHL PUSH1 0x0 MSTORE PUSH1 0x11 PUSH1 0x4 MSTORE PUSH1 0x24 PUSH1 0x0 REVERT JUMPDEST PUSH1 0x0 PUSH1 0x1 DUP3 ADD PUSH2 0x5CC7 JUMPI PUSH2 0x5CC7 PUSH2 0x5C9F JUMP JUMPDEST POP PUSH1 0x1 ADD SWAP1 JUMP JUMPDEST DUP1 DUP3 ADD DUP1 DUP3 GT ISZERO PUSH2 0xA1E JUMPI PUSH2 0xA1E PUSH2 0x5C9F JUMP JUMPDEST PUSH1 0x0 PUSH1 0x20 DUP3 DUP5 SUB SLT ISZERO PUSH2 0x5CF3 JUMPI PUSH1 0x0 DUP1 REVERT JUMPDEST POP MLOAD SWAP2 SWAP1 POP JUMP JUMPDEST DUP2 DUP2 SUB DUP2 DUP2 GT ISZERO PUSH2 0xA1E JUMPI PUSH2 0xA1E PUSH2 0x5C9F JUMP JUMPDEST PUSH1 0x1 DUP2 DUP2 JUMPDEST DUP1 DUP6 GT ISZERO PUSH2 0x4F4C JUMPI DUP2 PUSH1 0x0 NOT DIV DUP3 GT ISZERO PUSH2 0x5D2E JUMPI PUSH2 0x5D2E PUSH2 0x5C9F JUMP JUMPDEST DUP1 DUP6 AND ISZERO PUSH2 0x5D3B JUMPI SWAP2 DUP2 MUL SWAP2 JUMPDEST SWAP4 DUP5 SHR SWAP4 SWAP1 DUP1 MUL SWAP1 PUSH2 0x5D12 JUMP JUMPDEST PUSH1 0x0 DUP3 PUSH2 0x5D57 JUMPI POP PUSH1 0x1 PUSH2 0xA1E JUMP JUMPDEST DUP2 PUSH2 0x5D64 JUMPI POP PUSH1 0x0 PUSH2 0xA1E JUMP JUMPDEST DUP2 PUSH1 0x1 DUP2 EQ PUSH2 0x5D7A JUMPI PUSH1 0x2 DUP2 EQ PUSH2 0x5D84 JUMPI PUSH2 0x5DA0 JUMP JUMPDEST PUSH1 0x1 SWAP2 POP POP PUSH2 0xA1E JUMP JUMPDEST PUSH1 0xFF DUP5 GT ISZERO PUSH2 0x5D95 JUMPI PUSH2 0x5D95 PUSH2 0x5C9F JUMP JUMPDEST POP POP PUSH1 0x1 DUP3 SHL PUSH2 0xA1E JUMP JUMPDEST POP PUSH1 0x20 DUP4 LT PUSH2 0x133 DUP4 LT AND PUSH1 0x4E DUP5 LT PUSH1 0xB DUP5 LT AND OR ISZERO PUSH2 0x5DC3 JUMPI POP DUP2 DUP2 EXP PUSH2 0xA1E JUMP JUMPDEST PUSH2 0x5DCD DUP4 DUP4 PUSH2 0x5D0D JUMP JUMPDEST DUP1 PUSH1 0x0 NOT DIV DUP3 GT ISZERO PUSH2 0x5DE1 JUMPI PUSH2 0x5DE1 PUSH2 0x5C9F JUMP JUMPDEST MUL SWAP4 SWAP3 POP POP POP JUMP JUMPDEST PUSH1 0x0 PUSH2 0xA1B DUP4 DUP4 PUSH2 0x5D48 JUMP JUMPDEST PUSH1 0x0 PUSH1 0x20 DUP3 DUP5 SUB SLT ISZERO PUSH2 0x5E07 JUMPI PUSH1 0x0 DUP1 REVERT JUMPDEST DUP2 MLOAD PUSH2 0xA1B DUP2 PUSH2 0x5A00 JUMP JUMPDEST DUP1 DUP3 MUL DUP2 ISZERO DUP3 DUP3 DIV DUP5 EQ OR PUSH2 0xA1E JUMPI PUSH2 0xA1E PUSH2 0x5C9F JUMP JUMPDEST PUSH1 0x0 DUP3 PUSH2 0x5E46 JUMPI PUSH4 0x4E487B71 PUSH1 0xE0 SHL PUSH1 0x0 MSTORE PUSH1 0x12 PUSH1 0x4 MSTORE PUSH1 0x24 PUSH1 0x0 REVERT JUMPDEST POP DIV SWAP1 JUMP JUMPDEST PUSH1 0x0 PUSH1 0x20 DUP3 DUP5 SUB SLT ISZERO PUSH2 0x5E5D JUMPI PUSH1 0x0 DUP1 REVERT JUMPDEST DUP2 MLOAD PUSH1 0xFF DUP2 AND DUP2 EQ PUSH2 0xA1B JUMPI PUSH1 0x0 DUP1 REVERT JUMPDEST PUSH1 0x0 PUSH2 0xA1B PUSH1 0xFF DUP5 AND DUP4 PUSH2 0x5D48 JUMP JUMPDEST PUSH1 0x0 JUMPDEST DUP4 DUP2 LT ISZERO PUSH2 0x5E98 JUMPI DUP2 DUP2 ADD MLOAD DUP4 DUP3 ADD MSTORE PUSH1 0x20 ADD PUSH2 0x5E80 JUMP JUMPDEST POP POP PUSH1 0x0 SWAP2 ADD MSTORE JUMP JUMPDEST PUSH1 0x0 DUP3 MLOAD PUSH2 0x5EB3 DUP2 DUP5 PUSH1 0x20 DUP8 ADD PUSH2 0x5E7D JUMP JUMPDEST SWAP2 SWAP1 SWAP2 ADD SWAP3 SWAP2 POP POP JUMP JUMPDEST PUSH4 0x4E487B71 PUSH1 0xE0 SHL PUSH1 0x0 MSTORE PUSH1 0x31 PUSH1 0x4 MSTORE PUSH1 0x24 PUSH1 0x0 REVERT JUMPDEST PUSH1 0x20 DUP2 MSTORE PUSH1 0x0 DUP3 MLOAD DUP1 PUSH1 0x20 DUP5 ADD MSTORE PUSH2 0x5EF2 DUP2 PUSH1 0x40 DUP6 ADD PUSH1 0x20 DUP8 ADD PUSH2 0x5E7D JUMP JUMPDEST PUSH1 0x1F ADD PUSH1 0x1F NOT AND SWAP2 SWAP1 SWAP2 ADD PUSH1 0x40 ADD SWAP3 SWAP2 POP POP JUMP JUMPDEST PUSH1 0xFF DUP3 DUP2 AND DUP3 DUP3 AND SUB SWAP1 DUP2 GT ISZERO PUSH2 0xA1E JUMPI PUSH2 0xA1E PUSH2 0x5C9F JUMP INVALID COINBASE PUSH5 0x6472657373 GASPRICE KECCAK256 PUSH13 0x6F772D6C6576656C2064656C65 PUSH8 0x6174652063616C6C KECCAK256 PUSH7 0x61696C6564A264 PUSH10 0x70667358221220F50F2D CALLER 0x25 0x1F 0xAC 0xCA 0x4C 0xCE 0xDE 0xFC 0xD9 0xE5 0xEF 0xD3 0xE5 0xD7 MULMOD 0xBE 0xC1 PUSH18 0xE7948D51B935464430F564736F6C63430008 GT STOP CALLER ","sha1":"6cb4498f75010c677190c1c818c37ab31a3f6c44","source":"// SPDX-License-Identifier: GPL-3.0-or-later\npragma solidity 0.8.17;\n\nimport \"@openzeppelin/contracts/access/Ownable.sol\";\nimport \"@openzeppelin/contracts/token/ERC20/ERC20.sol\";\nimport \"@openzeppelin/contracts/utils/Address.sol\";\nimport \"@openzeppelin/contracts/utils/structs/EnumerableSet.sol\";\nimport \"@openzeppelin/contracts/utils/structs/EnumerableMap.sol\";\nimport \"@openzeppelin/contracts/token/ERC20/IERC20.sol\";\nimport \"@openzeppelin/contracts/token/ERC20/utils/SafeERC20.sol\";\nimport \"@openzeppelin/contracts/token/ERC20/extensions/IERC20Metadata.sol\";\n\nimport \"../interfaces/pools/IConicPool.sol\";\nimport \"../interfaces/pools/IRewardManager.sol\";\nimport \"../interfaces/ICurveHandler.sol\";\nimport \"../interfaces/ICurveRegistryCache.sol\";\nimport \"../interfaces/tokenomics/IInflationManager.sol\";\nimport \"../interfaces/tokenomics/ILpTokenStaker.sol\";\nimport \"../interfaces/IConvexHandler.sol\";\nimport \"../interfaces/IController.sol\";\nimport \"../interfaces/IOracle.sol\";\nimport \"../interfaces/vendor/IBaseRewardPool.sol\";\n\nimport \"./LpToken.sol\";\nimport \"./RewardManager.sol\";\n\nimport \"../libraries/ScaledMath.sol\";\nimport \"../libraries/ArrayExtensions.sol\";\n\ncontract ConicPool is IConicPool, Ownable {\n    using ArrayExtensions for uint256[];\n    using EnumerableSet for EnumerableSet.AddressSet;\n    using EnumerableMap for EnumerableMap.AddressToUintMap;\n    using SafeERC20 for IERC20;\n    using SafeERC20 for IERC20Metadata;\n    using SafeERC20 for ILpToken;\n    using ScaledMath for uint256;\n    using Address for address;\n\n    // Avoid stack depth errors\n    struct DepositVars {\n        uint256 exchangeRate;\n        uint256 underlyingBalanceIncrease;\n        uint256 mintableUnderlyingAmount;\n        uint256 lpReceived;\n        uint256 underlyingBalanceBefore;\n        uint256 allocatedBalanceBefore;\n        uint256[] allocatedPerPoolBefore;\n        uint256 underlyingBalanceAfter;\n        uint256 allocatedBalanceAfter;\n        uint256[] allocatedPerPoolAfter;\n    }\n\n    uint256 internal constant _IDLE_RATIO_UPPER_BOUND = 0.2e18;\n    uint256 internal constant _MIN_DEPEG_THRESHOLD = 0.01e18;\n    uint256 internal constant _MAX_DEPEG_THRESHOLD = 0.1e18;\n    uint256 internal constant _MAX_DEVIATION_UPPER_BOUND = 0.2e18;\n    uint256 internal constant _DEPEG_UNDERLYING_MULTIPLIER = 2;\n    uint256 internal constant _TOTAL_UNDERLYING_CACHE_EXPIRY = 3 days;\n    uint256 internal constant _MAX_USD_LP_VALUE_FOR_REMOVING_CURVE_POOL = 100e18;\n\n    IERC20 public immutable CVX;\n    IERC20 public immutable CRV;\n    IERC20 public constant CNC = IERC20(0x9aE380F0272E2162340a5bB646c354271c0F5cFC);\n    address internal constant _WETH_ADDRESS = 0xC02aaA39b223FE8D0A0e5C4F27eAD9083C756Cc2;\n\n    IERC20Metadata public immutable override underlying;\n    ILpToken public immutable override lpToken;\n\n    IRewardManager public immutable rewardManager;\n    IController public immutable controller;\n\n    /// @dev once the deviation gets under this threshold, the reward distribution will be paused\n    /// until the next rebalancing. This is expressed as a ratio, scaled with 18 decimals\n    uint256 public maxDeviation = 0.02e18; // 2%\n    uint256 public maxIdleCurveLpRatio = 0.05e18; // triggers Convex staking when exceeded\n    bool public isShutdown;\n    uint256 public depegThreshold = 0.03e18; // 3%\n    uint256 internal _cacheUpdatedTimestamp;\n    uint256 internal _cachedTotalUnderlying;\n\n    /// @dev `true` while the reward distribution is active\n    bool public rebalancingRewardActive;\n\n    EnumerableSet.AddressSet internal _curvePools;\n    EnumerableMap.AddressToUintMap internal weights; // liquidity allocation weights\n\n    /// @dev the absolute value in terms of USD of the total deviation after\n    /// the weights have been updated\n    uint256 public totalDeviationAfterWeightUpdate;\n\n    mapping(address => uint256) _cachedPrices;\n\n    modifier onlyController() {\n        require(msg.sender == address(controller), \"not authorized\");\n        _;\n    }\n\n    constructor(\n        address _underlying,\n        address _controller,\n        address locker,\n        string memory _lpTokenName,\n        string memory _symbol,\n        address _cvx,\n        address _crv\n    ) {\n        require(\n            _underlying != _cvx && _underlying != _crv && _underlying != address(CNC),\n            \"invalid underlying\"\n        );\n        underlying = IERC20Metadata(_underlying);\n        controller = IController(_controller);\n        uint8 decimals = IERC20Metadata(_underlying).decimals();\n        lpToken = new LpToken(address(this), decimals, _lpTokenName, _symbol);\n        RewardManager _rewardManager = new RewardManager(\n            _controller,\n            address(this),\n            address(lpToken),\n            _underlying,\n            locker\n        );\n        _rewardManager.transferOwnership(msg.sender);\n        rewardManager = _rewardManager;\n\n        CVX = IERC20(_cvx);\n        CRV = IERC20(_crv);\n        CVX.safeApprove(address(_rewardManager), type(uint256).max);\n        CRV.safeApprove(address(_rewardManager), type(uint256).max);\n        CNC.safeApprove(address(_rewardManager), type(uint256).max);\n    }\n\n    /// @dev We always delegate-call to the Curve handler, which means\n    /// that we need to be able to receive the ETH to unwrap it and\n    /// send it to the Curve pool, as well as to receive it back from\n    /// the Curve pool when withdrawing\n    receive() external payable {\n        require(address(underlying) == _WETH_ADDRESS, \"not WETH pool\");\n    }\n\n    /// @notice Deposit underlying on behalf of someone\n    /// @param underlyingAmount Amount of underlying to deposit\n    /// @param minLpReceived The minimum amount of LP to accept from the deposit\n    /// @return lpReceived The amount of LP received\n    function depositFor(\n        address account,\n        uint256 underlyingAmount,\n        uint256 minLpReceived,\n        bool stake\n    ) public override returns (uint256) {\n        DepositVars memory vars;\n\n        // Preparing deposit\n        require(!isShutdown, \"pool is shutdown\");\n        require(underlyingAmount > 0, \"deposit amount cannot be zero\");\n        uint256 underlyingPrice_ = controller.priceOracle().getUSDPrice(address(underlying));\n        (\n            vars.underlyingBalanceBefore,\n            vars.allocatedBalanceBefore,\n            vars.allocatedPerPoolBefore\n        ) = _getTotalAndPerPoolUnderlying(underlyingPrice_);\n        vars.exchangeRate = _exchangeRate(vars.underlyingBalanceBefore);\n\n        // Executing deposit\n        underlying.safeTransferFrom(msg.sender, address(this), underlyingAmount);\n        _depositToCurve(\n            vars.allocatedBalanceBefore,\n            vars.allocatedPerPoolBefore,\n            underlying.balanceOf(address(this))\n        );\n\n        // Minting LP Tokens\n        (\n            vars.underlyingBalanceAfter,\n            vars.allocatedBalanceAfter,\n            vars.allocatedPerPoolAfter\n        ) = _getTotalAndPerPoolUnderlying(underlyingPrice_);\n        vars.underlyingBalanceIncrease = vars.underlyingBalanceAfter - vars.underlyingBalanceBefore;\n        vars.mintableUnderlyingAmount = _min(underlyingAmount, vars.underlyingBalanceIncrease);\n        vars.lpReceived = vars.mintableUnderlyingAmount.divDown(vars.exchangeRate);\n        require(vars.lpReceived >= minLpReceived, \"too much slippage\");\n\n        if (stake) {\n            lpToken.mint(address(this), vars.lpReceived);\n            ILpTokenStaker lpTokenStaker = controller.lpTokenStaker();\n            lpToken.safeApprove(address(lpTokenStaker), vars.lpReceived);\n            lpTokenStaker.stakeFor(vars.lpReceived, address(this), account);\n        } else {\n            lpToken.mint(account, vars.lpReceived);\n        }\n\n        _handleRebalancingRewards(\n            account,\n            vars.allocatedBalanceBefore,\n            vars.allocatedPerPoolBefore,\n            vars.allocatedBalanceAfter,\n            vars.allocatedPerPoolAfter\n        );\n\n        _cachedTotalUnderlying = vars.underlyingBalanceAfter;\n        _cacheUpdatedTimestamp = block.timestamp;\n\n        emit Deposit(msg.sender, account, underlyingAmount, vars.lpReceived);\n        return vars.lpReceived;\n    }\n\n    /// @notice Deposit underlying\n    /// @param underlyingAmount Amount of underlying to deposit\n    /// @param minLpReceived The minimum amoun of LP to accept from the deposit\n    /// @return lpReceived The amount of LP received\n    function deposit(uint256 underlyingAmount, uint256 minLpReceived)\n        external\n        override\n        returns (uint256)\n    {\n        return depositFor(msg.sender, underlyingAmount, minLpReceived, true);\n    }\n\n    /// @notice Deposit underlying\n    /// @param underlyingAmount Amount of underlying to deposit\n    /// @param minLpReceived The minimum amoun of LP to accept from the deposit\n    /// @param stake Whether or not to stake in the LpTokenStaker\n    /// @return lpReceived The amount of LP received\n    function deposit(\n        uint256 underlyingAmount,\n        uint256 minLpReceived,\n        bool stake\n    ) external override returns (uint256) {\n        return depositFor(msg.sender, underlyingAmount, minLpReceived, stake);\n    }\n\n    function _depositToCurve(\n        uint256 totalUnderlying_,\n        uint256[] memory allocatedPerPool,\n        uint256 underlyingAmount_\n    ) internal {\n        uint256 depositsRemaining_ = underlyingAmount_;\n        uint256 totalAfterDeposit_ = totalUnderlying_ + underlyingAmount_;\n\n        // NOTE: avoid modifying `allocatedPerPool`\n        uint256[] memory allocatedPerPoolCopy = allocatedPerPool.copy();\n\n        while (depositsRemaining_ > 0) {\n            (uint256 curvePoolIndex_, uint256 maxDeposit_) = _getDepositPool(\n                totalAfterDeposit_,\n                allocatedPerPoolCopy\n            );\n            // account for rounding errors\n            if (depositsRemaining_ < maxDeposit_ + 1e2) {\n                maxDeposit_ = depositsRemaining_;\n            }\n\n            address curvePool_ = _curvePools.at(curvePoolIndex_);\n\n            // Depositing into least balanced pool\n            uint256 toDeposit_ = _min(depositsRemaining_, maxDeposit_);\n            _depositToCurvePool(curvePool_, toDeposit_);\n            depositsRemaining_ -= toDeposit_;\n            allocatedPerPoolCopy[curvePoolIndex_] += toDeposit_;\n        }\n    }\n\n    function _getDepositPool(uint256 totalUnderlying_, uint256[] memory allocatedPerPool)\n        internal\n        view\n        returns (uint256 poolIndex, uint256 maxDepositAmount)\n    {\n        uint256 curvePoolCount_ = allocatedPerPool.length;\n        int256 iPoolIndex = -1;\n        for (uint256 i; i < curvePoolCount_; i++) {\n            address curvePool_ = _curvePools.at(i);\n            uint256 allocatedUnderlying_ = allocatedPerPool[i];\n            uint256 targetAllocation_ = totalUnderlying_.mulDown(weights.get(curvePool_));\n            if (allocatedUnderlying_ >= targetAllocation_) continue;\n            uint256 maxBalance_ = targetAllocation_ + targetAllocation_.mulDown(_getMaxDeviation());\n            uint256 maxDepositAmount_ = maxBalance_ - allocatedUnderlying_;\n            if (maxDepositAmount_ <= maxDepositAmount) continue;\n            maxDepositAmount = maxDepositAmount_;\n            iPoolIndex = int256(i);\n        }\n        require(iPoolIndex > -1, \"error retrieving deposit pool\");\n        poolIndex = uint256(iPoolIndex);\n    }\n\n    function _depositToCurvePool(address curvePool_, uint256 underlyingAmount_) internal {\n        if (underlyingAmount_ == 0) return;\n        controller.curveHandler().functionDelegateCall(\n            abi.encodeWithSignature(\n                \"deposit(address,address,uint256)\",\n                curvePool_,\n                underlying,\n                underlyingAmount_\n            )\n        );\n\n        uint256 idleCurveLpBalance_ = _idleCurveLpBalance(curvePool_);\n        uint256 totalCurveLpBalance_ = _stakedCurveLpBalance(curvePool_) + idleCurveLpBalance_;\n\n        if (idleCurveLpBalance_.divDown(totalCurveLpBalance_) >= maxIdleCurveLpRatio) {\n            controller.convexHandler().functionDelegateCall(\n                abi.encodeWithSignature(\"deposit(address,uint256)\", curvePool_, idleCurveLpBalance_)\n            );\n        }\n    }\n\n    /// @notice Get current underlying balance of pool\n    function totalUnderlying() public view virtual returns (uint256) {\n        (uint256 totalUnderlying_, , ) = getTotalAndPerPoolUnderlying();\n\n        return totalUnderlying_;\n    }\n\n    function _exchangeRate(uint256 totalUnderlying_) internal view returns (uint256) {\n        uint256 lpSupply = lpToken.totalSupply();\n        if (lpSupply == 0 || totalUnderlying_ == 0) return ScaledMath.ONE;\n\n        return totalUnderlying_.divDown(lpSupply);\n    }\n\n    /// @notice Get current exchange rate for the pool's LP token to the underlying\n    function exchangeRate() public view virtual override returns (uint256) {\n        return _exchangeRate(totalUnderlying());\n    }\n\n    /// @notice Get current exchange rate for the pool's LP token to USD\n    /// @dev This is using the cached total underlying value, so is not precisely accurate.\n    function usdExchangeRate() external view virtual override returns (uint256) {\n        uint256 underlyingPrice = controller.priceOracle().getUSDPrice(address(underlying));\n        return _exchangeRate(_cachedTotalUnderlying).mulDown(underlyingPrice);\n    }\n\n    /// @notice Unstake LP Tokens and withdraw underlying\n    /// @param conicLpAmount Amount of LP tokens to burn\n    /// @param minUnderlyingReceived Minimum amount of underlying to redeem\n    /// This should always be set to a reasonable value (e.g. 2%), otherwise\n    /// the user withdrawing could be forced into paying a withdrawal penalty fee\n    /// by another user\n    /// @return uint256 Total underlying withdrawn\n    function unstakeAndWithdraw(uint256 conicLpAmount, uint256 minUnderlyingReceived)\n        external\n        returns (uint256)\n    {\n        controller.lpTokenStaker().unstakeFrom(conicLpAmount, msg.sender);\n        return withdraw(conicLpAmount, minUnderlyingReceived);\n    }\n\n    /// @notice Withdraw underlying\n    /// @param conicLpAmount Amount of LP tokens to burn\n    /// @param minUnderlyingReceived Minimum amount of underlying to redeem\n    /// This should always be set to a reasonable value (e.g. 2%), otherwise\n    /// the user withdrawing could be forced into paying a withdrawal penalty fee\n    /// by another user\n    /// @return uint256 Total underlying withdrawn\n    function withdraw(uint256 conicLpAmount, uint256 minUnderlyingReceived)\n        public\n        override\n        returns (uint256)\n    {\n        // Preparing Withdrawals\n        require(lpToken.balanceOf(msg.sender) >= conicLpAmount, \"insufficient balance\");\n        uint256 underlyingBalanceBefore_ = underlying.balanceOf(address(this));\n\n        // Processing Withdrawals\n        (\n            uint256 totalUnderlying_,\n            uint256 allocatedUnderlying_,\n            uint256[] memory allocatedPerPool\n        ) = getTotalAndPerPoolUnderlying();\n        uint256 underlyingToReceive_ = conicLpAmount.mulDown(_exchangeRate(totalUnderlying_));\n        {\n            if (underlyingBalanceBefore_ < underlyingToReceive_) {\n                uint256 underlyingToWithdraw_ = underlyingToReceive_ - underlyingBalanceBefore_;\n                _withdrawFromCurve(allocatedUnderlying_, allocatedPerPool, underlyingToWithdraw_);\n            }\n        }\n\n        // Sending Underlying and burning LP Tokens\n        uint256 underlyingWithdrawn_ = _min(\n            underlying.balanceOf(address(this)),\n            underlyingToReceive_\n        );\n        require(underlyingWithdrawn_ >= minUnderlyingReceived, \"too much slippage\");\n        lpToken.burn(msg.sender, conicLpAmount);\n        underlying.safeTransfer(msg.sender, underlyingWithdrawn_);\n\n        _cachedTotalUnderlying = totalUnderlying_ - underlyingWithdrawn_;\n        _cacheUpdatedTimestamp = block.timestamp;\n\n        emit Withdraw(msg.sender, underlyingWithdrawn_);\n        return underlyingWithdrawn_;\n    }\n\n    function _withdrawFromCurve(\n        uint256 totalUnderlying_,\n        uint256[] memory allocatedPerPool,\n        uint256 amount_\n    ) internal {\n        uint256 withdrawalsRemaining_ = amount_;\n        uint256 totalAfterWithdrawal_ = totalUnderlying_ - amount_;\n\n        // NOTE: avoid modifying `allocatedPerPool`\n        uint256[] memory allocatedPerPoolCopy = allocatedPerPool.copy();\n\n        while (withdrawalsRemaining_ > 0) {\n            (uint256 curvePoolIndex_, uint256 maxWithdrawal_) = _getWithdrawPool(\n                totalAfterWithdrawal_,\n                allocatedPerPoolCopy\n            );\n            address curvePool_ = _curvePools.at(curvePoolIndex_);\n\n            // Withdrawing from least balanced Curve pool\n            uint256 toWithdraw_ = _min(withdrawalsRemaining_, maxWithdrawal_);\n            _withdrawFromCurvePool(curvePool_, toWithdraw_);\n            withdrawalsRemaining_ -= toWithdraw_;\n            allocatedPerPoolCopy[curvePoolIndex_] -= toWithdraw_;\n        }\n    }\n\n    function _getWithdrawPool(uint256 totalUnderlying_, uint256[] memory allocatedPerPool)\n        internal\n        view\n        returns (uint256 withdrawPoolIndex, uint256 maxWithdrawalAmount)\n    {\n        uint256 curvePoolCount_ = allocatedPerPool.length;\n        int256 iWithdrawPoolIndex = -1;\n        for (uint256 i; i < curvePoolCount_; i++) {\n            address curvePool_ = _curvePools.at(i);\n            uint256 weight_ = weights.get(curvePool_);\n            uint256 allocatedUnderlying_ = allocatedPerPool[i];\n\n            // If a curve pool has a weight of 0,\n            // withdraw from it if it has more than the max lp value\n            if (weight_ == 0) {\n                uint256 price_ = controller.priceOracle().getUSDPrice(address(underlying));\n                uint256 allocatedUsd = (price_ * allocatedUnderlying_) / 10**underlying.decimals();\n                if (allocatedUsd >= _MAX_USD_LP_VALUE_FOR_REMOVING_CURVE_POOL / 2) {\n                    return (uint256(i), allocatedUnderlying_);\n                }\n            }\n\n            uint256 targetAllocation_ = totalUnderlying_.mulDown(weight_);\n            if (allocatedUnderlying_ <= targetAllocation_) continue;\n            uint256 minBalance_ = targetAllocation_ - targetAllocation_.mulDown(_getMaxDeviation());\n            uint256 maxWithdrawalAmount_ = allocatedUnderlying_ - minBalance_;\n            if (maxWithdrawalAmount_ <= maxWithdrawalAmount) continue;\n            maxWithdrawalAmount = maxWithdrawalAmount_;\n            iWithdrawPoolIndex = int256(i);\n        }\n        require(iWithdrawPoolIndex > -1, \"error retrieving withdraw pool\");\n        withdrawPoolIndex = uint256(iWithdrawPoolIndex);\n    }\n\n    function _withdrawFromCurvePool(address curvePool_, uint256 underlyingAmount_) internal {\n        ICurveRegistryCache registryCache_ = controller.curveRegistryCache();\n        address curveLpToken_ = registryCache_.lpToken(curvePool_);\n        uint256 lpToWithdraw_ = _underlyingToCurveLp(curveLpToken_, underlyingAmount_);\n        if (lpToWithdraw_ == 0) return;\n\n        uint256 idleCurveLpBalance_ = _idleCurveLpBalance(curvePool_);\n        address rewardPool = registryCache_.getRewardPool(curvePool_);\n        uint256 stakedLpBalance = IBaseRewardPool(rewardPool).balanceOf(address(this));\n        uint256 totalAvailableLp = idleCurveLpBalance_ + stakedLpBalance;\n        // Due to rounding errors with the conversion of underlying to LP tokens,\n        // we may not have the precise amount of LP tokens to withdraw from the pool.\n        // In this case, we withdraw the maximum amount of LP tokens available.\n        if (totalAvailableLp < lpToWithdraw_) {\n            lpToWithdraw_ = totalAvailableLp;\n        }\n\n        if (lpToWithdraw_ > idleCurveLpBalance_) {\n            controller.convexHandler().functionDelegateCall(\n                abi.encodeWithSignature(\n                    \"withdraw(address,uint256)\",\n                    curvePool_,\n                    lpToWithdraw_ - idleCurveLpBalance_\n                )\n            );\n        }\n\n        controller.curveHandler().functionDelegateCall(\n            abi.encodeWithSignature(\n                \"withdraw(address,address,uint256)\",\n                curvePool_,\n                underlying,\n                lpToWithdraw_\n            )\n        );\n    }\n\n    function allCurvePools() external view override returns (address[] memory) {\n        return _curvePools.values();\n    }\n\n    function curvePoolsCount() external view override returns (uint256) {\n        return _curvePools.length();\n    }\n\n    function getCurvePoolAtIndex(uint256 _index) external view returns (address) {\n        return _curvePools.at(_index);\n    }\n\n    function isRegisteredCurvePool(address _pool) public view returns (bool) {\n        return _curvePools.contains(_pool);\n    }\n\n    function getPoolWeight(address _pool) external view returns (uint256) {\n        (, uint256 _weight) = weights.tryGet(_pool);\n        return _weight;\n    }\n\n    // Controller and Admin functions\n\n    function addCurvePool(address _pool) external override onlyOwner {\n        require(!_curvePools.contains(_pool), \"pool already added\");\n        ICurveRegistryCache curveRegistryCache_ = controller.curveRegistryCache();\n        curveRegistryCache_.initPool(_pool);\n        bool supported_ = curveRegistryCache_.hasCoinAnywhere(_pool, address(underlying));\n        require(supported_, \"coin not in pool\");\n        address curveLpToken = curveRegistryCache_.lpToken(_pool);\n        require(controller.priceOracle().isTokenSupported(curveLpToken), \"cannot price LP Token\");\n\n        address booster = controller.convexBooster();\n        IERC20(curveLpToken).safeApprove(booster, type(uint256).max);\n\n        if (!weights.contains(_pool)) weights.set(_pool, 0);\n        require(_curvePools.add(_pool), \"failed to add pool\");\n        emit CurvePoolAdded(_pool);\n    }\n\n    // This requires that the weight of the pool is first set to 0\n    function removeCurvePool(address _pool) external override onlyOwner {\n        require(_curvePools.contains(_pool), \"pool not added\");\n        require(_curvePools.length() > 1, \"cannot remove last pool\");\n        address curveLpToken = controller.curveRegistryCache().lpToken(_pool);\n        uint256 lpTokenPrice = controller.priceOracle().getUSDPrice(curveLpToken);\n        uint256 usdLpValue = totalCurveLpBalance(_pool).mulDown(lpTokenPrice);\n        require(usdLpValue < _MAX_USD_LP_VALUE_FOR_REMOVING_CURVE_POOL, \"pool has allocated funds\");\n        uint256 weight = weights.get(_pool);\n        IERC20(curveLpToken).safeApprove(controller.convexBooster(), 0);\n        require(weight == 0, \"pool has weight set\");\n        require(_curvePools.remove(_pool), \"pool not removed\");\n        require(weights.remove(_pool), \"weight not removed\");\n        emit CurvePoolRemoved(_pool);\n    }\n\n    function updateWeights(PoolWeight[] memory poolWeights) external onlyController {\n        require(poolWeights.length == _curvePools.length(), \"invalid pool weights\");\n        uint256 total;\n        for (uint256 i; i < poolWeights.length; i++) {\n            address pool = poolWeights[i].poolAddress;\n            require(isRegisteredCurvePool(pool), \"pool is not registered\");\n            uint256 newWeight = poolWeights[i].weight;\n            weights.set(pool, newWeight);\n            emit NewWeight(pool, newWeight);\n            total += newWeight;\n        }\n\n        require(total == ScaledMath.ONE, \"weights do not sum to 1\");\n\n        (\n            uint256 totalUnderlying_,\n            uint256 totalAllocated,\n            uint256[] memory allocatedPerPool\n        ) = getTotalAndPerPoolUnderlying();\n\n        uint256 totalDeviation = _computeTotalDeviation(totalUnderlying_, allocatedPerPool);\n        totalDeviationAfterWeightUpdate = totalDeviation;\n        rebalancingRewardActive = !_isBalanced(allocatedPerPool, totalAllocated);\n\n        // Updating price cache for all pools\n        // Used for seeing if a pool has depegged\n        _updatePriceCache();\n    }\n\n    function _updatePriceCache() internal {\n        uint256 length_ = _curvePools.length();\n        IOracle priceOracle_ = controller.priceOracle();\n        for (uint256 i; i < length_; i++) {\n            address lpToken_ = controller.curveRegistryCache().lpToken(_curvePools.at(i));\n            _cachedPrices[lpToken_] = priceOracle_.getUSDPrice(lpToken_);\n        }\n        address underlying_ = address(underlying);\n        _cachedPrices[underlying_] = priceOracle_.getUSDPrice(underlying_);\n    }\n\n    function shutdownPool() external override onlyController {\n        require(!isShutdown, \"pool already shutdown\");\n        isShutdown = true;\n        emit Shutdown();\n    }\n\n    function updateDepegThreshold(uint256 newDepegThreshold_) external onlyOwner {\n        require(newDepegThreshold_ >= _MIN_DEPEG_THRESHOLD, \"invalid depeg threshold\");\n        require(newDepegThreshold_ <= _MAX_DEPEG_THRESHOLD, \"invalid depeg threshold\");\n        depegThreshold = newDepegThreshold_;\n        emit DepegThresholdUpdated(newDepegThreshold_);\n    }\n\n    /// @notice Called when an underlying of a Curve Pool has depegged and we want to exit the pool.\n    /// Will check if a coin has depegged, and will revert if not.\n    /// Sets the weight of the Curve Pool to 0, and re-enables CNC rewards for deposits.\n    /// @dev Cannot be called if the underlying of this pool itself has depegged.\n    /// @param curvePool_ The Curve Pool to handle.\n    function handleDepeggedCurvePool(address curvePool_) external override {\n        // Validation\n        require(isRegisteredCurvePool(curvePool_), \"pool is not registered\");\n        require(weights.get(curvePool_) != 0, \"pool weight already 0\");\n        require(!_isDepegged(address(underlying)), \"underlying is depegged\");\n        address lpToken_ = controller.curveRegistryCache().lpToken(curvePool_);\n        require(_isDepegged(lpToken_), \"pool is not depegged\");\n\n        // Set target curve pool weight to 0\n        // Scale up other weights to compensate\n        _setWeightToZero(curvePool_);\n        rebalancingRewardActive = true;\n\n        emit HandledDepeggedCurvePool(curvePool_);\n    }\n\n    function _setWeightToZero(address curvePool_) internal {\n        uint256 weight_ = weights.get(curvePool_);\n        if (weight_ == 0) return;\n        require(weight_ != ScaledMath.ONE, \"can't remove last pool\");\n        uint256 scaleUp_ = ScaledMath.ONE.divDown(ScaledMath.ONE - weights.get(curvePool_));\n        uint256 curvePoolLength_ = _curvePools.length();\n        for (uint256 i; i < curvePoolLength_; i++) {\n            address pool_ = _curvePools.at(i);\n            uint256 newWeight_ = pool_ == curvePool_ ? 0 : weights.get(pool_).mulDown(scaleUp_);\n            weights.set(pool_, newWeight_);\n            emit NewWeight(pool_, newWeight_);\n        }\n\n        // Updating total deviation\n        (\n            uint256 totalUnderlying_,\n            ,\n            uint256[] memory allocatedPerPool\n        ) = getTotalAndPerPoolUnderlying();\n        uint256 totalDeviation = _computeTotalDeviation(totalUnderlying_, allocatedPerPool);\n        totalDeviationAfterWeightUpdate = totalDeviation;\n    }\n\n    function _isDepegged(address asset_) internal view returns (bool) {\n        uint256 depegThreshold_ = depegThreshold;\n        if (asset_ == address(underlying)) depegThreshold_ *= _DEPEG_UNDERLYING_MULTIPLIER; // Threshold is higher for underlying\n        uint256 cachedPrice_ = _cachedPrices[asset_];\n        uint256 currentPrice_ = controller.priceOracle().getUSDPrice(asset_);\n        uint256 priceDiff_ = cachedPrice_.absSub(currentPrice_);\n        uint256 priceDiffPercent_ = priceDiff_.divDown(cachedPrice_);\n        return priceDiffPercent_ > depegThreshold_;\n    }\n\n    /**\n     * @notice Allows anyone to set the weight of a Curve pool to 0 if the Convex pool for the\n     * associated PID has been shutdown. This is a very unilkely outcomu and the method does\n     * not reenable rebalancing rewards.\n     * @param curvePool_ Curve pool for which the Convex PID is invalid (has been shut down)\n     */\n    function handleInvalidConvexPid(address curvePool_) external {\n        require(isRegisteredCurvePool(curvePool_), \"curve pool not registered\");\n        ICurveRegistryCache registryCache_ = controller.curveRegistryCache();\n        uint256 pid = registryCache_.getPid(curvePool_);\n        require(registryCache_.isShutdownPid(pid), \"convex pool pid is shutdown\");\n        _setWeightToZero(curvePool_);\n        emit HandledInvalidConvexPid(curvePool_, pid);\n    }\n\n    function setMaxIdleCurveLpRatio(uint256 maxIdleCurveLpRatio_) external onlyOwner {\n        require(maxIdleCurveLpRatio != maxIdleCurveLpRatio_, \"same as current\");\n        require(maxIdleCurveLpRatio_ <= _IDLE_RATIO_UPPER_BOUND, \"ratio exceeds upper bound\");\n        maxIdleCurveLpRatio = maxIdleCurveLpRatio_;\n        emit NewMaxIdleCurveLpRatio(maxIdleCurveLpRatio_);\n    }\n\n    function setMaxDeviation(uint256 maxDeviation_) external onlyOwner {\n        require(maxDeviation != maxDeviation_, \"same as current\");\n        require(maxDeviation_ <= _MAX_DEVIATION_UPPER_BOUND, \"deviation exceeds upper bound\");\n        maxDeviation = maxDeviation_;\n        emit MaxDeviationUpdated(maxDeviation_);\n    }\n\n    function getWeight(address curvePool) external view returns (uint256) {\n        return weights.get(curvePool);\n    }\n\n    function getWeights() external view override returns (PoolWeight[] memory) {\n        uint256 length_ = _curvePools.length();\n        PoolWeight[] memory weights_ = new PoolWeight[](length_);\n        for (uint256 i; i < length_; i++) {\n            (address pool_, uint256 weight_) = weights.at(i);\n            weights_[i] = PoolWeight(pool_, weight_);\n        }\n        return weights_;\n    }\n\n    function getAllocatedUnderlying() external view override returns (PoolWithAmount[] memory) {\n        PoolWithAmount[] memory perPoolAllocated = new PoolWithAmount[](_curvePools.length());\n        (, , uint256[] memory allocated) = getTotalAndPerPoolUnderlying();\n\n        for (uint256 i; i < perPoolAllocated.length; i++) {\n            perPoolAllocated[i] = PoolWithAmount(_curvePools.at(i), allocated[i]);\n        }\n        return perPoolAllocated;\n    }\n\n    function computeTotalDeviation() external view override returns (uint256) {\n        (\n            ,\n            uint256 allocatedUnderlying_,\n            uint256[] memory perPoolUnderlying\n        ) = getTotalAndPerPoolUnderlying();\n        return _computeTotalDeviation(allocatedUnderlying_, perPoolUnderlying);\n    }\n\n    function computeDeviationRatio() external view returns (uint256) {\n        (\n            ,\n            uint256 allocatedUnderlying_,\n            uint256[] memory perPoolUnderlying\n        ) = getTotalAndPerPoolUnderlying();\n        if (allocatedUnderlying_ == 0) return 0;\n        uint256 deviation = _computeTotalDeviation(allocatedUnderlying_, perPoolUnderlying);\n        return deviation.divDown(allocatedUnderlying_);\n    }\n\n    function cachedTotalUnderlying() external view virtual override returns (uint256) {\n        if (block.timestamp > _cacheUpdatedTimestamp + _TOTAL_UNDERLYING_CACHE_EXPIRY) {\n            return totalUnderlying();\n        }\n        return _cachedTotalUnderlying;\n    }\n\n    function getTotalAndPerPoolUnderlying()\n        public\n        view\n        returns (\n            uint256 totalUnderlying_,\n            uint256 totalAllocated_,\n            uint256[] memory perPoolUnderlying_\n        )\n    {\n        uint256 underlyingPrice_ = controller.priceOracle().getUSDPrice(address(underlying));\n        return _getTotalAndPerPoolUnderlying(underlyingPrice_);\n    }\n\n    function totalCurveLpBalance(address curvePool_) public view returns (uint256) {\n        return _stakedCurveLpBalance(curvePool_) + _idleCurveLpBalance(curvePool_);\n    }\n\n    function isBalanced() external view override returns (bool) {\n        (\n            ,\n            uint256 allocatedUnderlying_,\n            uint256[] memory allocatedPerPool_\n        ) = getTotalAndPerPoolUnderlying();\n        return _isBalanced(allocatedPerPool_, allocatedUnderlying_);\n    }\n\n    /**\n     * @notice Returns several values related to the Omnipools's underlying assets.\n     * @param underlyingPrice_ Price of the underlying asset in USD\n     * @return totalUnderlying_ Total underlying value of the Omnipool\n     * @return totalAllocated_ Total underlying value of the Omnipool that is allocated to Curve pools\n     * @return perPoolUnderlying_ Array of underlying values of the Omnipool that is allocated to each Curve pool\n     */\n    function _getTotalAndPerPoolUnderlying(uint256 underlyingPrice_)\n        internal\n        view\n        returns (\n            uint256 totalUnderlying_,\n            uint256 totalAllocated_,\n            uint256[] memory perPoolUnderlying_\n        )\n    {\n        uint256 curvePoolsLength_ = _curvePools.length();\n        perPoolUnderlying_ = new uint256[](curvePoolsLength_);\n        for (uint256 i; i < curvePoolsLength_; i++) {\n            address curvePool_ = _curvePools.at(i);\n            uint256 poolUnderlying_ = _curveLpToUnderlying(\n                controller.curveRegistryCache().lpToken(curvePool_),\n                totalCurveLpBalance(curvePool_),\n                underlyingPrice_\n            );\n            perPoolUnderlying_[i] = poolUnderlying_;\n            totalAllocated_ += poolUnderlying_;\n        }\n        totalUnderlying_ = totalAllocated_ + underlying.balanceOf(address(this));\n    }\n\n    function _stakedCurveLpBalance(address pool_) internal view returns (uint256) {\n        return\n            IBaseRewardPool(IConvexHandler(controller.convexHandler()).getRewardPool(pool_))\n                .balanceOf(address(this));\n    }\n\n    function _idleCurveLpBalance(address curvePool_) internal view returns (uint256) {\n        return IERC20(controller.curveRegistryCache().lpToken(curvePool_)).balanceOf(address(this));\n    }\n\n    function _curveLpToUnderlying(\n        address curveLpToken_,\n        uint256 curveLpAmount_,\n        uint256 underlyingPrice_\n    ) internal view returns (uint256) {\n        return\n            curveLpAmount_\n                .mulDown(controller.priceOracle().getUSDPrice(curveLpToken_))\n                .divDown(underlyingPrice_)\n                .convertScale(18, underlying.decimals());\n    }\n\n    function _underlyingToCurveLp(address curveLpToken_, uint256 underlyingAmount_)\n        internal\n        view\n        returns (uint256)\n    {\n        return\n            underlyingAmount_\n                .mulDown(controller.priceOracle().getUSDPrice(address(underlying)))\n                .divDown(controller.priceOracle().getUSDPrice(curveLpToken_))\n                .convertScale(underlying.decimals(), 18);\n    }\n\n    function _computeTotalDeviation(\n        uint256 allocatedUnderlying_,\n        uint256[] memory perPoolAllocations_\n    ) internal view returns (uint256) {\n        uint256 totalDeviation;\n        for (uint256 i; i < perPoolAllocations_.length; i++) {\n            uint256 weight = weights.get(_curvePools.at(i));\n            uint256 targetAmount = allocatedUnderlying_.mulDown(weight);\n            totalDeviation += targetAmount.absSub(perPoolAllocations_[i]);\n        }\n        return totalDeviation;\n    }\n\n    function _handleRebalancingRewards(\n        address account,\n        uint256 allocatedBalanceBefore_,\n        uint256[] memory allocatedPerPoolBefore,\n        uint256 allocatedBalanceAfter_,\n        uint256[] memory allocatedPerPoolAfter\n    ) internal {\n        if (!rebalancingRewardActive) return;\n        uint256 deviationBefore = _computeTotalDeviation(\n            allocatedBalanceBefore_,\n            allocatedPerPoolBefore\n        );\n        uint256 deviationAfter = _computeTotalDeviation(\n            allocatedBalanceAfter_,\n            allocatedPerPoolAfter\n        );\n\n        controller.inflationManager().handleRebalancingRewards(\n            account,\n            deviationBefore,\n            deviationAfter\n        );\n\n        if (_isBalanced(allocatedPerPoolAfter, allocatedBalanceAfter_)) {\n            rebalancingRewardActive = false;\n        }\n    }\n\n    function _min(uint256 a, uint256 b) internal pure returns (uint256) {\n        return a < b ? a : b;\n    }\n\n    function _isBalanced(uint256[] memory allocatedPerPool_, uint256 totalAllocated_)\n        internal\n        view\n        returns (bool)\n    {\n        if (totalAllocated_ == 0) return true;\n        for (uint256 i; i < allocatedPerPool_.length; i++) {\n            uint256 weight_ = weights.get(_curvePools.at(i));\n            uint256 currentAllocated_ = allocatedPerPool_[i];\n\n            // If a curve pool has a weight of 0,\n            if (weight_ == 0) {\n                uint256 price_ = controller.priceOracle().getUSDPrice(address(underlying));\n                uint256 allocatedUsd_ = (price_ * currentAllocated_) / 10**underlying.decimals();\n                if (allocatedUsd_ >= _MAX_USD_LP_VALUE_FOR_REMOVING_CURVE_POOL / 2) {\n                    return false;\n                }\n                continue;\n            }\n\n            uint256 targetAmount = totalAllocated_.mulDown(weight_);\n            uint256 deviation = targetAmount.absSub(currentAllocated_);\n            uint256 deviationRatio = deviation.divDown(targetAmount);\n\n            if (deviationRatio > maxDeviation) return false;\n        }\n        return true;\n    }\n\n    function _getMaxDeviation() internal view returns (uint256) {\n        return rebalancingRewardActive ? 0 : maxDeviation;\n    }\n}\n","sourcePath":"contracts/ConicPool.sol","type":"contract","deployment":{"address":"0xAbb735648a076d570AfF2A61D8D141099823EAe9","chainid":"1","blockHeight":16734437}}