{"abi":[{"inputs":[{"internalType":"address","name":"_underlying","type":"address"},{"internalType":"contract IRewardManager","name":"_rewardManager","type":"address"},{"internalType":"address","name":"_controller","type":"address"},{"internalType":"string","name":"_lpTokenName","type":"string"},{"internalType":"string","name":"_symbol","type":"string"},{"internalType":"address","name":"_cvx","type":"address"},{"internalType":"address","name":"_crv","type":"address"}],"stateMutability":"nonpayable","type":"constructor","name":"constructor"},{"anonymous":false,"inputs":[{"indexed":false,"internalType":"uint256","name":"claimedCrv","type":"uint256"},{"indexed":false,"internalType":"uint256","name":"claimedCvx","type":"uint256"}],"name":"ClaimedRewards","type":"event"},{"anonymous":false,"inputs":[{"indexed":false,"internalType":"address","name":"curvePool_","type":"address"}],"name":"CurvePoolAdded","type":"event"},{"anonymous":false,"inputs":[{"indexed":false,"internalType":"address","name":"curvePool_","type":"address"}],"name":"CurvePoolRemoved","type":"event"},{"anonymous":false,"inputs":[{"indexed":false,"internalType":"uint256","name":"newThreshold","type":"uint256"}],"name":"DepegThresholdUpdated","type":"event"},{"anonymous":false,"inputs":[{"indexed":true,"internalType":"address","name":"sender","type":"address"},{"indexed":true,"internalType":"address","name":"receiver","type":"address"},{"indexed":false,"internalType":"uint256","name":"depositedAmount","type":"uint256"},{"indexed":false,"internalType":"uint256","name":"lpReceived","type":"uint256"}],"name":"Deposit","type":"event"},{"anonymous":false,"inputs":[{"indexed":false,"internalType":"address","name":"curvePool_","type":"address"}],"name":"HandledDepeggedCurvePool","type":"event"},{"anonymous":false,"inputs":[{"indexed":false,"internalType":"address","name":"curvePool_","type":"address"},{"indexed":false,"internalType":"uint256","name":"pid_","type":"uint256"}],"name":"HandledInvalidConvexPid","type":"event"},{"anonymous":false,"inputs":[{"indexed":false,"internalType":"uint256","name":"newMaxDeviation","type":"uint256"}],"name":"MaxDeviationUpdated","type":"event"},{"anonymous":false,"inputs":[{"indexed":false,"internalType":"uint256","name":"newRatio","type":"uint256"}],"name":"NewMaxIdleCurveLpRatio","type":"event"},{"anonymous":false,"inputs":[{"indexed":true,"internalType":"address","name":"curvePool","type":"address"},{"indexed":false,"internalType":"uint256","name":"newWeight","type":"uint256"}],"name":"NewWeight","type":"event"},{"anonymous":false,"inputs":[{"indexed":true,"internalType":"address","name":"previousOwner","type":"address"},{"indexed":true,"internalType":"address","name":"newOwner","type":"address"}],"name":"OwnershipTransferred","type":"event"},{"anonymous":false,"inputs":[],"name":"Shutdown","type":"event"},{"anonymous":false,"inputs":[{"indexed":true,"internalType":"address","name":"account","type":"address"},{"indexed":false,"internalType":"uint256","name":"amount","type":"uint256"}],"name":"Withdraw","type":"event"},{"inputs":[{"internalType":"address","name":"_pool","type":"address"}],"name":"addCurvePool","outputs":[],"stateMutability":"nonpayable","type":"function"},{"inputs":[],"name":"allCurvePools","outputs":[{"internalType":"address[]","name":"","type":"address[]"}],"stateMutability":"view","type":"function"},{"inputs":[],"name":"cachedTotalUnderlying","outputs":[{"internalType":"uint256","name":"","type":"uint256"}],"stateMutability":"view","type":"function"},{"inputs":[],"name":"computeDeviationRatio","outputs":[{"internalType":"uint256","name":"","type":"uint256"}],"stateMutability":"view","type":"function"},{"inputs":[],"name":"computeTotalDeviation","outputs":[{"internalType":"uint256","name":"","type":"uint256"}],"stateMutability":"view","type":"function"},{"inputs":[],"name":"controller","outputs":[{"internalType":"contract IController","name":"","type":"address"}],"stateMutability":"view","type":"function"},{"inputs":[],"name":"curvePoolsCount","outputs":[{"internalType":"uint256","name":"","type":"uint256"}],"stateMutability":"view","type":"function"},{"inputs":[],"name":"depegThreshold","outputs":[{"internalType":"uint256","name":"","type":"uint256"}],"stateMutability":"view","type":"function"},{"inputs":[{"internalType":"uint256","name":"underlyingAmount","type":"uint256"},{"internalType":"uint256","name":"minLpReceived","type":"uint256"},{"internalType":"bool","name":"stake","type":"bool"}],"name":"deposit","outputs":[{"internalType":"uint256","name":"","type":"uint256"}],"stateMutability":"nonpayable","type":"function"},{"inputs":[{"internalType":"uint256","name":"underlyingAmount","type":"uint256"},{"internalType":"uint256","name":"minLpReceived","type":"uint256"}],"name":"deposit","outputs":[{"internalType":"uint256","name":"","type":"uint256"}],"stateMutability":"nonpayable","type":"function"},{"inputs":[{"internalType":"address","name":"account","type":"address"},{"internalType":"uint256","name":"underlyingAmount","type":"uint256"},{"internalType":"uint256","name":"minLpReceived","type":"uint256"},{"internalType":"bool","name":"stake","type":"bool"}],"name":"depositFor","outputs":[{"internalType":"uint256","name":"","type":"uint256"}],"stateMutability":"nonpayable","type":"function"},{"inputs":[],"name":"exchangeRate","outputs":[{"internalType":"uint256","name":"","type":"uint256"}],"stateMutability":"view","type":"function"},{"inputs":[],"name":"getAllocatedUnderlying","outputs":[{"components":[{"internalType":"address","name":"poolAddress","type":"address"},{"internalType":"uint256","name":"amount","type":"uint256"}],"internalType":"struct IConicPool.PoolWithAmount[]","name":"","type":"tuple[]"}],"stateMutability":"view","type":"function"},{"inputs":[{"internalType":"uint256","name":"_index","type":"uint256"}],"name":"getCurvePoolAtIndex","outputs":[{"internalType":"address","name":"","type":"address"}],"stateMutability":"view","type":"function"},{"inputs":[{"internalType":"address","name":"_pool","type":"address"}],"name":"getPoolWeight","outputs":[{"internalType":"uint256","name":"","type":"uint256"}],"stateMutability":"view","type":"function"},{"inputs":[],"name":"getTotalAndPerPoolUnderlying","outputs":[{"internalType":"uint256","name":"totalUnderlying_","type":"uint256"},{"internalType":"uint256","name":"totalAllocated_","type":"uint256"},{"internalType":"uint256[]","name":"perPoolUnderlying_","type":"uint256[]"}],"stateMutability":"view","type":"function"},{"inputs":[{"internalType":"address","name":"curvePool","type":"address"}],"name":"getWeight","outputs":[{"internalType":"uint256","name":"","type":"uint256"}],"stateMutability":"view","type":"function"},{"inputs":[],"name":"getWeights","outputs":[{"components":[{"internalType":"address","name":"poolAddress","type":"address"},{"internalType":"uint256","name":"weight","type":"uint256"}],"internalType":"struct IConicPool.PoolWeight[]","name":"","type":"tuple[]"}],"stateMutability":"view","type":"function"},{"inputs":[{"internalType":"address","name":"curvePool_","type":"address"}],"name":"handleDepeggedCurvePool","outputs":[],"stateMutability":"nonpayable","type":"function"},{"inputs":[{"internalType":"address","name":"curvePool_","type":"address"}],"name":"handleInvalidConvexPid","outputs":[],"stateMutability":"nonpayable","type":"function"},{"inputs":[],"name":"isBalanced","outputs":[{"internalType":"bool","name":"","type":"bool"}],"stateMutability":"view","type":"function"},{"inputs":[{"internalType":"address","name":"_pool","type":"address"}],"name":"isRegisteredCurvePool","outputs":[{"internalType":"bool","name":"","type":"bool"}],"stateMutability":"view","type":"function"},{"inputs":[],"name":"isShutdown","outputs":[{"internalType":"bool","name":"","type":"bool"}],"stateMutability":"view","type":"function"},{"inputs":[],"name":"lpToken","outputs":[{"internalType":"contract ILpToken","name":"","type":"address"}],"stateMutability":"view","type":"function"},{"inputs":[],"name":"maxDeviation","outputs":[{"internalType":"uint256","name":"","type":"uint256"}],"stateMutability":"view","type":"function"},{"inputs":[],"name":"maxIdleCurveLpRatio","outputs":[{"internalType":"uint256","name":"","type":"uint256"}],"stateMutability":"view","type":"function"},{"inputs":[],"name":"owner","outputs":[{"internalType":"address","name":"","type":"address"}],"stateMutability":"view","type":"function"},{"inputs":[],"name":"rebalancingRewardActive","outputs":[{"internalType":"bool","name":"","type":"bool"}],"stateMutability":"view","type":"function"},{"inputs":[{"internalType":"address","name":"_pool","type":"address"}],"name":"removeCurvePool","outputs":[],"stateMutability":"nonpayable","type":"function"},{"inputs":[],"name":"renounceOwnership","outputs":[],"stateMutability":"nonpayable","type":"function"},{"inputs":[],"name":"rewardManager","outputs":[{"internalType":"contract IRewardManager","name":"","type":"address"}],"stateMutability":"view","type":"function"},{"inputs":[{"internalType":"uint256","name":"maxDeviation_","type":"uint256"}],"name":"setMaxDeviation","outputs":[],"stateMutability":"nonpayable","type":"function"},{"inputs":[{"internalType":"uint256","name":"maxIdleCurveLpRatio_","type":"uint256"}],"name":"setMaxIdleCurveLpRatio","outputs":[],"stateMutability":"nonpayable","type":"function"},{"inputs":[],"name":"shutdownPool","outputs":[],"stateMutability":"nonpayable","type":"function"},{"inputs":[{"internalType":"address","name":"curvePool_","type":"address"}],"name":"totalCurveLpBalance","outputs":[{"internalType":"uint256","name":"","type":"uint256"}],"stateMutability":"view","type":"function"},{"inputs":[],"name":"totalDeviationAfterWeightUpdate","outputs":[{"internalType":"uint256","name":"","type":"uint256"}],"stateMutability":"view","type":"function"},{"inputs":[],"name":"totalUnderlying","outputs":[{"internalType":"uint256","name":"","type":"uint256"}],"stateMutability":"view","type":"function"},{"inputs":[{"internalType":"address","name":"newOwner","type":"address"}],"name":"transferOwnership","outputs":[],"stateMutability":"nonpayable","type":"function"},{"inputs":[],"name":"underlying","outputs":[{"internalType":"contract IERC20Metadata","name":"","type":"address"}],"stateMutability":"view","type":"function"},{"inputs":[{"internalType":"uint256","name":"conicLpAmount","type":"uint256"},{"internalType":"uint256","name":"minUnderlyingReceived","type":"uint256"}],"name":"unstakeAndWithdraw","outputs":[{"internalType":"uint256","name":"","type":"uint256"}],"stateMutability":"nonpayable","type":"function"},{"inputs":[{"internalType":"uint256","name":"newDepegThreshold_","type":"uint256"}],"name":"updateDepegThreshold","outputs":[],"stateMutability":"nonpayable","type":"function"},{"inputs":[{"components":[{"internalType":"address","name":"poolAddress","type":"address"},{"internalType":"uint256","name":"weight","type":"uint256"}],"internalType":"struct IConicPool.PoolWeight[]","name":"poolWeights","type":"tuple[]"}],"name":"updateWeights","outputs":[],"stateMutability":"nonpayable","type":"function"},{"inputs":[],"name":"usdExchangeRate","outputs":[{"internalType":"uint256","name":"","type":"uint256"}],"stateMutability":"view","type":"function"},{"inputs":[{"internalType":"uint256","name":"conicLpAmount","type":"uint256"},{"internalType":"uint256","name":"minUnderlyingReceived","type":"uint256"}],"name":"withdraw","outputs":[{"internalType":"uint256","name":"","type":"uint256"}],"stateMutability":"nonpayable","type":"function"},{"stateMutability":"payable","type":"receive"}],"bytecode":"61014060405266470de4df82000060015566b1a2bc2ec50000600255666a94d74f4300006004553480156200003357600080fd5b5060405162007a3638038062007a3683398101604081905262000056916200077d565b620000613362000268565b816001600160a01b0316876001600160a01b031614158015620000965750806001600160a01b0316876001600160a01b031614155b8015620000c057506001600160a01b038716739ae380f0272e2162340a5bb646c354271c0f5cfc14155b620001075760405162461bcd60e51b8152602060048201526012602482015271696e76616c696420756e6465726c79696e6760701b60448201526064015b60405180910390fd5b6001600160a01b0380881660c0819052908616610120526040805163313ce56760e01b815290516000929163313ce5679160048083019260209291908290030181865afa1580156200015d573d6000803e3d6000fd5b505050506040513d601f19601f8201168201806040525081019062000183919062000854565b905030818686604051620001979062000689565b620001a69493929190620008ae565b604051809103906000f080158015620001c3573d6000803e3d6000fd5b506001600160a01b0390811660e05287811661010052838116608081905290831660a052620002029088600019620002b8602090811b62002e0c17901c565b6200022b8760001960a0516001600160a01b0316620002b860201b62002e0c179092919060201c565b6200025a739ae380f0272e2162340a5bb646c354271c0f5cfc88600019620002b8602090811b62002e0c17901c565b505050505050505062000962565b600080546001600160a01b038381166001600160a01b0319831681178455604051919092169283917f8be0079c531659141344cd1fd0a4f28419497f9722a3daafe3b4186f6b6457e09190a35050565b801580620003365750604051636eb1769f60e11b81523060048201526001600160a01b03838116602483015284169063dd62ed3e90604401602060405180830381865afa1580156200030e573d6000803e3d6000fd5b505050506040513d601f19601f82011682018060405250810190620003349190620008f1565b155b620003aa5760405162461bcd60e51b815260206004820152603660248201527f5361666545524332303a20617070726f76652066726f6d206e6f6e2d7a65726f60448201527f20746f206e6f6e2d7a65726f20616c6c6f77616e6365000000000000000000006064820152608401620000fe565b604080516001600160a01b038416602482015260448082018490528251808303909101815260649091019091526020810180516001600160e01b0390811663095ea7b360e01b17909152620004029185916200040716565b505050565b600062000463826040518060400160405280602081526020017f5361666545524332303a206c6f772d6c6576656c2063616c6c206661696c6564815250856001600160a01b0316620004e560201b62002f59179092919060201c565b8051909150156200040257808060200190518101906200048491906200090b565b620004025760405162461bcd60e51b815260206004820152602a60248201527f5361666545524332303a204552433230206f7065726174696f6e20646964206e6044820152691bdd081cdd58d8d9595960b21b6064820152608401620000fe565b6060620004f68484600085620004fe565b949350505050565b606082471015620005615760405162461bcd60e51b815260206004820152602660248201527f416464726573733a20696e73756666696369656e742062616c616e636520666f6044820152651c8818d85b1b60d21b6064820152608401620000fe565b600080866001600160a01b031685876040516200057f91906200092f565b60006040518083038185875af1925050503d8060008114620005be576040519150601f19603f3d011682016040523d82523d6000602084013e620005c3565b606091505b509092509050620005d787838387620005e2565b979650505050505050565b60608315620006565782516000036200064e576001600160a01b0385163b6200064e5760405162461bcd60e51b815260206004820152601d60248201527f416464726573733a2063616c6c20746f206e6f6e2d636f6e74726163740000006044820152606401620000fe565b5081620004f6565b620004f683838151156200066d5781518083602001fd5b8060405162461bcd60e51b8152600401620000fe91906200094d565b610f428062006af483390190565b6001600160a01b0381168114620006ad57600080fd5b50565b634e487b7160e01b600052604160045260246000fd5b60005b83811015620006e3578181015183820152602001620006c9565b50506000910152565b600082601f830112620006fe57600080fd5b81516001600160401b03808211156200071b576200071b620006b0565b604051601f8301601f19908116603f01168101908282118183101715620007465762000746620006b0565b816040528381528660208588010111156200076057600080fd5b62000773846020830160208901620006c6565b9695505050505050565b600080600080600080600060e0888a0312156200079957600080fd5b8751620007a68162000697565b6020890151909750620007b98162000697565b6040890151909650620007cc8162000697565b60608901519095506001600160401b0380821115620007ea57600080fd5b620007f88b838c01620006ec565b955060808a01519150808211156200080f57600080fd5b506200081e8a828b01620006ec565b93505060a0880151620008318162000697565b60c0890151909250620008448162000697565b8091505092959891949750929550565b6000602082840312156200086757600080fd5b815160ff811681146200087957600080fd5b9392505050565b600081518084526200089a816020860160208601620006c6565b601f01601f19169290920160200192915050565b6001600160a01b038516815260ff84166020820152608060408201819052600090620008dd9083018562000880565b8281036060840152620005d7818562000880565b6000602082840312156200090457600080fd5b5051919050565b6000602082840312156200091e57600080fd5b815180151581146200087957600080fd5b6000825162000943818460208701620006c6565b9190910192915050565b60208152600062000879602083018462000880565b60805160a05160c05160e0516101005161012051615fab62000b49600039600081816108470152818161087e01528181610b7301528181610d3a015281816113c10152818161170101528181611ab201528181611d7e015281816120aa015281816121de0152818161236c0152818161245e015281816125c90152818161297501528181612b9d01528181612cd10152818161306301528181613280015281816137810152818161388e015281816139e901528181613bca01528181613e3e0152818161409901528181614198015281816146290152818161489f01528181614b5d01528181614de501528181614eed0152818161513401528181615218015281816155d001526156c1015260006103320152600081816104da01528181610f1601528181611197015281816116870152818161178e0152818161186501526135b00152600081816102720152818161054e01528181610c0a01528181610fde015281816110c40152818161121a0152818161145801528181611501015281816115560152818161214101528181612a71015281816131b501528181613ed501528181613f50015281816145a001528181614936015281816149b101528181614e77015281816150be01528181615549015261575801526000505060005050615fab6000f3fe60806040526004361061026b5760003560e01c80638da5cb5b11610144578063cb03a464116100b6578063dddbc0491161007a578063dddbc049146107a0578063e17e1725146107c0578063e2bbb158146107d5578063f2fde38b146107f5578063f5cfc59214610815578063f77c47911461083557600080fd5b8063cb03a4641461072b578063ce75040e14610740578063d1e6c1e514610755578063d6038dc61461076b578063ddd2c6841461078057600080fd5b8063a58f1d8e11610108578063a58f1d8e14610686578063ac6c52511461069c578063b0a43968146106bc578063bd096cbb146106dc578063bf86d690146106fc578063c70920bc1461071657600080fd5b80638da5cb5b146105de5780638dbfb25b146105fc5780639765ca151461061c5780639e4865621461063c578063a1e2849f1461066657600080fd5b806343a0d066116101dd57806365f20355116101a157806365f203551461051c5780636f307dc31461053c5780636f934abe14610570578063715018a61461059257806383645abf146105a757806386fe9a66146105bc57600080fd5b806343a0d06614610468578063441a3e70146104885780635757ed5b146104a85780635fcbd285146104c857806360ffd5ae146104fc57600080fd5b80632a1bab731161022f5780632a1bab73146103c357806332f44c42146103d9578063331666fa146103f957806336797aec1461041d5780633ba0b9a91461043d5780633d4912c31461045257600080fd5b806308bf1345146102f85780630f4ef8a61461032057806310aec8f91461036c57806322acb8671461038c57806324a71a66146103ae57600080fd5b366102f3577f00000000000000000000000000000000000000000000000000000000000000006001600160a01b031673c02aaa39b223fe8d0a0e5c4f27ead9083c756cc2146102f15760405162461bcd60e51b815260206004820152600d60248201526c1b9bdd0815d15512081c1bdbdb609a1b60448201526064015b60405180910390fd5b005b600080fd5b34801561030457600080fd5b5061030d610869565b6040519081526020015b60405180910390f35b34801561032c57600080fd5b506103547f000000000000000000000000000000000000000000000000000000000000000081565b6040516001600160a01b039091168152602001610317565b34801561037857600080fd5b5061030d61038736600461590d565b61087a565b34801561039857600080fd5b506103a1610973565b604051610317919061592f565b3480156103ba57600080fd5b5061030d610a5a565b3480156103cf57600080fd5b5061030d60015481565b3480156103e557600080fd5b506102f16103f436600461598f565b610a83565b34801561040557600080fd5b5061040e610b6a565b604051610317939291906159a8565b34801561042957600080fd5b506102f1610438366004615a12565b610c96565b34801561044957600080fd5b5061030d610eca565b34801561045e57600080fd5b5061030d60045481565b34801561047457600080fd5b5061030d610483366004615a3d565b610edc565b34801561049457600080fd5b5061030d6104a336600461590d565b610ef4565b3480156104b457600080fd5b5061030d6104c3366004615a12565b61129b565b3480156104d457600080fd5b506103547f000000000000000000000000000000000000000000000000000000000000000081565b34801561050857600080fd5b5061030d610517366004615a12565b6112b1565b34801561052857600080fd5b5061030d610537366004615a76565b6112cf565b34801561054857600080fd5b506103547f000000000000000000000000000000000000000000000000000000000000000081565b34801561057c57600080fd5b50610585611963565b6040516103179190615ac0565b34801561059e57600080fd5b506102f161196f565b3480156105b357600080fd5b5061030d611983565b3480156105c857600080fd5b506105d16119a6565b6040516103179190615b0d565b3480156105ea57600080fd5b506000546001600160a01b0316610354565b34801561060857600080fd5b506102f1610617366004615bd0565b611aa7565b34801561062857600080fd5b506102f1610637366004615a12565b611d25565b34801561064857600080fd5b506007546106569060ff1681565b6040519015158152602001610317565b34801561067257600080fd5b50610656610681366004615a12565b611f76565b34801561069257600080fd5b5061030d60025481565b3480156106a857600080fd5b5061030d6106b7366004615a12565b611f83565b3480156106c857600080fd5b506102f16106d736600461598f565b611f90565b3480156106e857600080fd5b506103546106f736600461598f565b612068565b34801561070857600080fd5b506003546106569060ff1681565b34801561072257600080fd5b5061030d612075565b34801561073757600080fd5b50610656612089565b34801561074c57600080fd5b5061030d6120a5565b34801561076157600080fd5b5061030d600d5481565b34801561077757600080fd5b506102f16121d3565b34801561078c57600080fd5b506102f161079b366004615a12565b6122bf565b3480156107ac57600080fd5b506102f16107bb36600461598f565b612779565b3480156107cc57600080fd5b5061030d612851565b3480156107e157600080fd5b5061030d6107f036600461590d565b612894565b34801561080157600080fd5b506102f1610810366004615a12565b6128a3565b34801561082157600080fd5b506102f1610830366004615a12565b61291c565b34801561084157600080fd5b506103547f000000000000000000000000000000000000000000000000000000000000000081565b60006108756008612f68565b905090565b60007f00000000000000000000000000000000000000000000000000000000000000006001600160a01b03166348439e7e6040518163ffffffff1660e01b8152600401602060405180830381865afa1580156108da573d6000803e3d6000fd5b505050506040513d601f19601f820116820180604052508101906108fe9190615c9b565b604051630325d16160e01b8152600481018590523360248201526001600160a01b039190911690630325d16190604401600060405180830381600087803b15801561094857600080fd5b505af115801561095c573d6000803e3d6000fd5b5050505061096a8383610ef4565b90505b92915050565b606060006109816008612f68565b905060008167ffffffffffffffff81111561099e5761099e615b60565b6040519080825280602002602001820160405280156109e357816020015b60408051808201909152600080825260208201528152602001906001900390816109bc5790505b50905060005b82811015610a53576000806109ff600a84612f72565b915091506040518060400160405280836001600160a01b0316815260200182815250848481518110610a3357610a33615cb8565b602002602001018190525050508080610a4b90615ce4565b9150506109e9565b5092915050565b60006203f480600554610a6d9190615cfd565b421115610a7c57610875612075565b5060065490565b610a8b612f90565b662386f26fc10000811015610adc5760405162461bcd60e51b81526020600482015260176024820152761a5b9d985b1a590819195c1959c81d1a1c995cda1bdb19604a1b60448201526064016102e8565b67016345785d8a0000811115610b2e5760405162461bcd60e51b81526020600482015260176024820152761a5b9d985b1a590819195c1959c81d1a1c995cda1bdb19604a1b60448201526064016102e8565b60048190556040518181527f20da4a1840e5e1bb25784e941f370e4db630545ed9434c8c0bad8e421480595b906020015b60405180910390a150565b600080606060007f00000000000000000000000000000000000000000000000000000000000000006001600160a01b0316632630c12f6040518163ffffffff1660e01b8152600401602060405180830381865afa158015610bcf573d6000803e3d6000fd5b505050506040513d601f19601f82011682018060405250810190610bf39190615c9b565b604051638b2f0f4f60e01b81526001600160a01b037f0000000000000000000000000000000000000000000000000000000000000000811660048301529190911690638b2f0f4f90602401602060405180830381865afa158015610c5b573d6000803e3d6000fd5b505050506040513d601f19601f82011682018060405250810190610c7f9190615d10565b9050610c8a81612fea565b93509350935050909192565b610c9f81611f76565b610ce45760405162461bcd60e51b81526020600482015260166024820152751c1bdbdb081a5cc81b9bdd081c9959da5cdd195c995960521b60448201526064016102e8565b610cef600a8261323c565b600003610d365760405162461bcd60e51b81526020600482015260156024820152740706f6f6c2077656967687420616c7265616479203605c1b60448201526064016102e8565b60007f00000000000000000000000000000000000000000000000000000000000000006001600160a01b0316639f82b2176040518163ffffffff1660e01b8152600401602060405180830381865afa158015610d96573d6000803e3d6000fd5b505050506040513d601f19601f82011682018060405250810190610dba9190615c9b565b604051631da958a960e21b81526001600160a01b03848116600483015291909116906376a562a490602401602060405180830381865afa158015610e02573d6000803e3d6000fd5b505050506040513d601f19601f82011682018060405250810190610e269190615c9b565b9050610e3181613251565b610e745760405162461bcd60e51b81526020600482015260146024820152731c1bdbdb081a5cc81b9bdd0819195c1959d9d95960621b60448201526064016102e8565b610e7d82613419565b6007805460ff191660011790556040516001600160a01b03831681527f7d90518f39c7f92fd9046bbb246d9c650dd159f73cca88aa7d919c89c040fa799060200160405180910390a15050565b6000610875610ed7612075565b6135ab565b6000610eea338585856112cf565b90505b9392505050565b6040516370a0823160e01b815233600482015260009083906001600160a01b037f000000000000000000000000000000000000000000000000000000000000000016906370a0823190602401602060405180830381865afa158015610f5d573d6000803e3d6000fd5b505050506040513d601f19601f82011682018060405250810190610f819190615d10565b1015610fc65760405162461bcd60e51b8152602060048201526014602482015273696e73756666696369656e742062616c616e636560601b60448201526064016102e8565b6040516370a0823160e01b81523060048201526000907f00000000000000000000000000000000000000000000000000000000000000006001600160a01b0316906370a0823190602401602060405180830381865afa15801561102d573d6000803e3d6000fd5b505050506040513d601f19601f820116820180604052508101906110519190615d10565b90506000806000611060610b6a565b925092509250600061107b611074856135ab565b8990613658565b9050808510156110a05760006110918683615d29565b905061109e84848361367a565b505b6040516370a0823160e01b8152306004820152600090611135906001600160a01b037f000000000000000000000000000000000000000000000000000000000000000016906370a0823190602401602060405180830381865afa15801561110b573d6000803e3d6000fd5b505050506040513d601f19601f8201168201806040525081019061112f9190615d10565b83613716565b90508781101561117b5760405162461bcd60e51b8152602060048201526011602482015270746f6f206d75636820736c69707061676560781b60448201526064016102e8565b604051632770a7eb60e21b8152336004820152602481018a90527f00000000000000000000000000000000000000000000000000000000000000006001600160a01b031690639dc29fac906044016020604051808303816000875af11580156111e8573d6000803e3d6000fd5b505050506040513d601f19601f8201168201806040525081019061120c9190615d10565b506112416001600160a01b037f000000000000000000000000000000000000000000000000000000000000000016338361372c565b61124b8186615d29565b6006554260055560405181815233907f884edad9ce6fa2440d8a54cc123490eb96d2768479d49ff9c7366125a94243649060200160405180910390a261128f61375c565b98975050505050505050565b6000806112a9600a84613872565b949350505050565b60006112bc8261388a565b6112c5836139e5565b61096d9190615cfd565b6000611327604051806101400160405280600081526020016000815260200160008152602001600081526020016000815260200160008152602001606081526020016000815260200160008152602001606081525090565b60035460ff161561136d5760405162461bcd60e51b815260206004820152601060248201526f3837b7b61034b99039b43aba3237bbb760811b60448201526064016102e8565b600085116113bd5760405162461bcd60e51b815260206004820152601d60248201527f6465706f73697420616d6f756e742063616e6e6f74206265207a65726f00000060448201526064016102e8565b60007f00000000000000000000000000000000000000000000000000000000000000006001600160a01b0316632630c12f6040518163ffffffff1660e01b8152600401602060405180830381865afa15801561141d573d6000803e3d6000fd5b505050506040513d601f19601f820116820180604052508101906114419190615c9b565b604051638b2f0f4f60e01b81526001600160a01b037f0000000000000000000000000000000000000000000000000000000000000000811660048301529190911690638b2f0f4f90602401602060405180830381865afa1580156114a9573d6000803e3d6000fd5b505050506040513d601f19601f820116820180604052508101906114cd9190615d10565b90506114d881612fea565b60c085015260a0840152608083018190526114f2906135ab565b82526115296001600160a01b037f000000000000000000000000000000000000000000000000000000000000000016333089613a99565b60a082015160c08301516040516370a0823160e01b81523060048201526115c69291906001600160a01b037f000000000000000000000000000000000000000000000000000000000000000016906370a0823190602401602060405180830381865afa15801561159d573d6000803e3d6000fd5b505050506040513d601f19601f820116820180604052508101906115c19190615d10565b613ad7565b6115cf81612fea565b61012085015261010084015260e0830181905260808301516115f091615d29565b60208301819052611602908790613716565b6040830181905282516116159190613b88565b6060830181905285111561165f5760405162461bcd60e51b8152602060048201526011602482015270746f6f206d75636820736c69707061676560781b60448201526064016102e8565b83156118395760608201516040516340c10f1960e01b815230600482015260248101919091527f00000000000000000000000000000000000000000000000000000000000000006001600160a01b0316906340c10f19906044016020604051808303816000875af11580156116d8573d6000803e3d6000fd5b505050506040513d601f19601f820116820180604052508101906116fc9190615d10565b5060007f00000000000000000000000000000000000000000000000000000000000000006001600160a01b03166348439e7e6040518163ffffffff1660e01b8152600401602060405180830381865afa15801561175d573d6000803e3d6000fd5b505050506040513d601f19601f820116820180604052508101906117819190615c9b565b90506117c58184606001517f00000000000000000000000000000000000000000000000000000000000000006001600160a01b0316612e0c9092919063ffffffff16565b60608301516040516333f1c33760e01b815260048101919091523060248201526001600160a01b0389811660448301528216906333f1c33790606401600060405180830381600087803b15801561181b57600080fd5b505af115801561182f573d6000803e3d6000fd5b50505050506118d6565b60608201516040516340c10f1960e01b81526001600160a01b03898116600483015260248201929092527f0000000000000000000000000000000000000000000000000000000000000000909116906340c10f19906044016020604051808303816000875af11580156118b0573d6000803e3d6000fd5b505050506040513d601f19601f820116820180604052508101906118d49190615d10565b505b6118f5878360a001518460c00151856101000151866101200151613ba1565b60e08201516006554260055560608201516040805188815260208101929092526001600160a01b0389169133917fdcbc1c05240f31ff3ad067ef1ee35ce4997762752e3a095284754544f4c709d7910160405180910390a361195561375c565b506060015195945050505050565b60606108756008613cd9565b611977612f90565b6119816000613ce6565b565b6000806000611990610b6a565b925092505061199f8282613d36565b9250505090565b606060006119b46008612f68565b67ffffffffffffffff8111156119cc576119cc615b60565b604051908082528060200260200182016040528015611a1157816020015b60408051808201909152600080825260208201528152602001906001900390816119ea5790505b5090506000611a1e610b6a565b9250505060005b8251811015611a9f576040805180820190915280611a44600884613dc2565b6001600160a01b03168152602001838381518110611a6457611a64615cb8565b6020026020010151815250838281518110611a8157611a81615cb8565b60200260200101819052508080611a9790615ce4565b915050611a25565b509092915050565b336001600160a01b037f00000000000000000000000000000000000000000000000000000000000000001614611b105760405162461bcd60e51b815260206004820152600e60248201526d1b9bdd08185d5d1a1bdc9a5e995960921b60448201526064016102e8565b611b1a6008612f68565b815114611b605760405162461bcd60e51b8152602060048201526014602482015273696e76616c696420706f6f6c207765696768747360601b60448201526064016102e8565b6000805b8251811015611c7a576000838281518110611b8157611b81615cb8565b6020026020010151600001519050611b9881611f76565b611bdd5760405162461bcd60e51b81526020600482015260166024820152751c1bdbdb081a5cc81b9bdd081c9959da5cdd195c995960521b60448201526064016102e8565b6000848381518110611bf157611bf1615cb8565b6020026020010151602001519050611c158282600a613dce9092919063ffffffff16565b50816001600160a01b03167f49175c3467edeba7662e939bf84305eaf5084072855b0560f6ac3e145cd172ae82604051611c5191815260200190565b60405180910390a2611c638185615cfd565b935050508080611c7290615ce4565b915050611b64565b50611c876012600a615e18565b8114611cd55760405162461bcd60e51b815260206004820152601760248201527f7765696768747320646f206e6f742073756d20746f203100000000000000000060448201526064016102e8565b6000806000611ce2610b6a565b9250925092506000611cf48483613d36565b600d8190559050611d058284613de4565b6007805460ff19169115919091179055611d1d614087565b505050505050565b611d2e81611f76565b611d7a5760405162461bcd60e51b815260206004820152601960248201527f637572766520706f6f6c206e6f7420726567697374657265640000000000000060448201526064016102e8565b60007f00000000000000000000000000000000000000000000000000000000000000006001600160a01b0316639f82b2176040518163ffffffff1660e01b8152600401602060405180830381865afa158015611dda573d6000803e3d6000fd5b505050506040513d601f19601f82011682018060405250810190611dfe9190615c9b565b6040516343b55f3560e01b81526001600160a01b0384811660048301529192506000918316906343b55f3590602401602060405180830381865afa158015611e4a573d6000803e3d6000fd5b505050506040513d601f19601f82011682018060405250810190611e6e9190615d10565b604051631cec69e560e11b8152600481018290529091506001600160a01b038316906339d8d3ca90602401602060405180830381865afa158015611eb6573d6000803e3d6000fd5b505050506040513d601f19601f82011682018060405250810190611eda9190615e24565b611f265760405162461bcd60e51b815260206004820152601b60248201527f636f6e76657820706f6f6c207069642069732073687574646f776e000000000060448201526064016102e8565b611f2f83613419565b604080516001600160a01b0385168152602081018390527fb6e3324444a482d3e4041851d767063381c41cd9abc8a3191a0b61e3896f9443910160405180910390a1505050565b600061096d600883614349565b600061096d600a8361323c565b611f98612f90565b8060025403611fdb5760405162461bcd60e51b815260206004820152600f60248201526e1cd85b5948185cc818dd5c9c995b9d608a1b60448201526064016102e8565b6702c68af0bb1400008111156120335760405162461bcd60e51b815260206004820152601960248201527f726174696f206578636565647320757070657220626f756e640000000000000060448201526064016102e8565b60028190556040518181527fcf75d305993755a06325155bdff6a203ff5eb28a3561e219588aeb6aba8b3b5490602001610b5f565b600061096d600883613dc2565b600080612080610b6a565b50909392505050565b6000806000612096610b6a565b925092505061199f8183613de4565b6000807f00000000000000000000000000000000000000000000000000000000000000006001600160a01b0316632630c12f6040518163ffffffff1660e01b8152600401602060405180830381865afa158015612106573d6000803e3d6000fd5b505050506040513d601f19601f8201168201806040525081019061212a9190615c9b565b604051638b2f0f4f60e01b81526001600160a01b037f0000000000000000000000000000000000000000000000000000000000000000811660048301529190911690638b2f0f4f90602401602060405180830381865afa158015612192573d6000803e3d6000fd5b505050506040513d601f19601f820116820180604052508101906121b69190615d10565b90506121cd816121c76006546135ab565b90613658565b91505090565b336001600160a01b037f0000000000000000000000000000000000000000000000000000000000000000161461223c5760405162461bcd60e51b815260206004820152600e60248201526d1b9bdd08185d5d1a1bdc9a5e995960921b60448201526064016102e8565b60035460ff16156122875760405162461bcd60e51b81526020600482015260156024820152743837b7b61030b63932b0b23c9039b43aba3237bbb760591b60448201526064016102e8565b6003805460ff191660011790556040517f4426aa1fb73e391071491fcfe21a88b5c38a0a0333a1f6e77161470439704cf890600090a1565b6122c7612f90565b6122d2600882614349565b61230f5760405162461bcd60e51b815260206004820152600e60248201526d1c1bdbdb081b9bdd08185919195960921b60448201526064016102e8565b600161231b6008612f68565b116123685760405162461bcd60e51b815260206004820152601760248201527f63616e6e6f742072656d6f7665206c61737420706f6f6c00000000000000000060448201526064016102e8565b60007f00000000000000000000000000000000000000000000000000000000000000006001600160a01b0316639f82b2176040518163ffffffff1660e01b8152600401602060405180830381865afa1580156123c8573d6000803e3d6000fd5b505050506040513d601f19601f820116820180604052508101906123ec9190615c9b565b604051631da958a960e21b81526001600160a01b03848116600483015291909116906376a562a490602401602060405180830381865afa158015612434573d6000803e3d6000fd5b505050506040513d601f19601f820116820180604052508101906124589190615c9b565b905060007f00000000000000000000000000000000000000000000000000000000000000006001600160a01b0316632630c12f6040518163ffffffff1660e01b8152600401602060405180830381865afa1580156124ba573d6000803e3d6000fd5b505050506040513d601f19601f820116820180604052508101906124de9190615c9b565b604051638b2f0f4f60e01b81526001600160a01b0384811660048301529190911690638b2f0f4f90602401602060405180830381865afa158015612526573d6000803e3d6000fd5b505050506040513d601f19601f8201168201806040525081019061254a9190615d10565b9050600061255b826121c7866112b1565b905068056bc75e2d6310000081106125b55760405162461bcd60e51b815260206004820152601860248201527f706f6f6c2068617320616c6c6f63617465642066756e6473000000000000000060448201526064016102e8565b60006125c2600a8661323c565b905061265b7f00000000000000000000000000000000000000000000000000000000000000006001600160a01b0316632cdacb506040518163ffffffff1660e01b8152600401602060405180830381865afa158015612625573d6000803e3d6000fd5b505050506040513d601f19601f820116820180604052508101906126499190615c9b565b6001600160a01b038616906000612e0c565b801561269f5760405162461bcd60e51b81526020600482015260136024820152721c1bdbdb081a185cc81dd95a59da1d081cd95d606a1b60448201526064016102e8565b6126aa60088661436b565b6126e95760405162461bcd60e51b815260206004820152601060248201526f1c1bdbdb081b9bdd081c995b5bdd995960821b60448201526064016102e8565b6126f4600a86614380565b6127355760405162461bcd60e51b81526020600482015260126024820152711dd95a59da1d081b9bdd081c995b5bdd995960721b60448201526064016102e8565b6040516001600160a01b03861681527fca2456580e344539a90d4d0369fc77866a3135141e2e51621b88d2f010c6bbe2906020015b60405180910390a15050505050565b612781612f90565b80600154036127c45760405162461bcd60e51b815260206004820152600f60248201526e1cd85b5948185cc818dd5c9c995b9d608a1b60448201526064016102e8565b6702c68af0bb14000081111561281c5760405162461bcd60e51b815260206004820152601d60248201527f646576696174696f6e206578636565647320757070657220626f756e6400000060448201526064016102e8565b60018190556040518181527f3f9ef5ed5d378ef819698e4b3c710d362f981f90087b428b7a1ee1e716d689d590602001610b5f565b600080600061285e610b6a565b9250925050816000036128745760009250505090565b60006128808383613d36565b905061288c8184613b88565b935050505090565b600061096a33848460016112cf565b6128ab612f90565b6001600160a01b0381166129105760405162461bcd60e51b815260206004820152602660248201527f4f776e61626c653a206e6577206f776e657220697320746865207a65726f206160448201526564647265737360d01b60648201526084016102e8565b61291981613ce6565b50565b612924612f90565b61292f600882614349565b156129715760405162461bcd60e51b81526020600482015260126024820152711c1bdbdb08185b1c9958591e48185919195960721b60448201526064016102e8565b60007f00000000000000000000000000000000000000000000000000000000000000006001600160a01b0316639f82b2176040518163ffffffff1660e01b8152600401602060405180830381865afa1580156129d1573d6000803e3d6000fd5b505050506040513d601f19601f820116820180604052508101906129f59190615c9b565b60405163f7d372f160e01b81526001600160a01b0384811660048301529192509082169063f7d372f190602401600060405180830381600087803b158015612a3c57600080fd5b505af1158015612a50573d6000803e3d6000fd5b505060405163effd708160e01b81526001600160a01b0385811660048301527f000000000000000000000000000000000000000000000000000000000000000081166024830152600093508416915063effd708190604401602060405180830381865afa158015612ac5573d6000803e3d6000fd5b505050506040513d601f19601f82011682018060405250810190612ae99190615e24565b905080612b2b5760405162461bcd60e51b815260206004820152601060248201526f18dbda5b881b9bdd081a5b881c1bdbdb60821b60448201526064016102e8565b604051631da958a960e21b81526001600160a01b038481166004830152600091908416906376a562a490602401602060405180830381865afa158015612b75573d6000803e3d6000fd5b505050506040513d601f19601f82011682018060405250810190612b999190615c9b565b90507f00000000000000000000000000000000000000000000000000000000000000006001600160a01b0316632630c12f6040518163ffffffff1660e01b8152600401602060405180830381865afa158015612bf9573d6000803e3d6000fd5b505050506040513d601f19601f82011682018060405250810190612c1d9190615c9b565b6040516375151b6360e01b81526001600160a01b03838116600483015291909116906375151b6390602401602060405180830381865afa158015612c65573d6000803e3d6000fd5b505050506040513d601f19601f82011682018060405250810190612c899190615e24565b612ccd5760405162461bcd60e51b815260206004820152601560248201527431b0b73737ba10383934b1b2902628102a37b5b2b760591b60448201526064016102e8565b60007f00000000000000000000000000000000000000000000000000000000000000006001600160a01b0316632cdacb506040518163ffffffff1660e01b8152600401602060405180830381865afa158015612d2d573d6000803e3d6000fd5b505050506040513d601f19601f82011682018060405250810190612d519190615c9b565b9050612d696001600160a01b03831682600019612e0c565b612d74600a86614395565b612d8757612d85600a866000613dce565b505b612d926008866143aa565b612dd35760405162461bcd60e51b815260206004820152601260248201527119985a5b1959081d1bc8185919081c1bdbdb60721b60448201526064016102e8565b6040516001600160a01b03861681527fbadad752e47b51d72487f7881b9baa7c0ed207b8d84f37c0e23eb0a6d67e5b159060200161276a565b801580612e865750604051636eb1769f60e11b81523060048201526001600160a01b03838116602483015284169063dd62ed3e90604401602060405180830381865afa158015612e60573d6000803e3d6000fd5b505050506040513d601f19601f82011682018060405250810190612e849190615d10565b155b612ef15760405162461bcd60e51b815260206004820152603660248201527f5361666545524332303a20617070726f76652066726f6d206e6f6e2d7a65726f60448201527520746f206e6f6e2d7a65726f20616c6c6f77616e636560501b60648201526084016102e8565b6040516001600160a01b038316602482015260448101829052612f5490849063095ea7b360e01b906064015b60408051601f198184030181529190526020810180516001600160e01b03166001600160e01b0319909316929092179091526143bf565b505050565b6060610eea8484600085614491565b600061096d825490565b6000808080612f81868661456c565b909450925050505b9250929050565b6000546001600160a01b031633146119815760405162461bcd60e51b815260206004820181905260248201527f4f776e61626c653a2063616c6c6572206973206e6f7420746865206f776e657260448201526064016102e8565b60008060606000612ffb6008612f68565b90508067ffffffffffffffff81111561301657613016615b60565b60405190808252806020026020018201604052801561303f578160200160208202803683370190505b50915060005b8181101561319f57600061305a600883613dc2565b9050600061315e7f00000000000000000000000000000000000000000000000000000000000000006001600160a01b0316639f82b2176040518163ffffffff1660e01b8152600401602060405180830381865afa1580156130bf573d6000803e3d6000fd5b505050506040513d601f19601f820116820180604052508101906130e39190615c9b565b604051631da958a960e21b81526001600160a01b03858116600483015291909116906376a562a490602401602060405180830381865afa15801561312b573d6000803e3d6000fd5b505050506040513d601f19601f8201168201806040525081019061314f9190615c9b565b613158846112b1565b8a614597565b90508085848151811061317357613173615cb8565b60209081029190910101526131888187615cfd565b95505050808061319790615ce4565b915050613045565b506040516370a0823160e01b81523060048201527f00000000000000000000000000000000000000000000000000000000000000006001600160a01b0316906370a0823190602401602060405180830381865afa158015613204573d6000803e3d6000fd5b505050506040513d601f19601f820116820180604052508101906132289190615d10565b6132329084615cfd565b9350509193909250565b600061096a836001600160a01b03841661471c565b600080600e6000846001600160a01b03166001600160a01b0316815260200190815260200160002054905060007f00000000000000000000000000000000000000000000000000000000000000006001600160a01b0316632630c12f6040518163ffffffff1660e01b8152600401602060405180830381865afa1580156132dc573d6000803e3d6000fd5b505050506040513d601f19601f820116820180604052508101906133009190615c9b565b604051638b2f0f4f60e01b81526000600482018190529192506001600160a01b03831690638b2f0f4f90602401602060405180830381865afa15801561334a573d6000803e3d6000fd5b505050506040513d601f19601f8201168201806040525081019061336e9190615d10565b604051638b2f0f4f60e01b81526001600160a01b038781166004830152919250600091841690638b2f0f4f90602401602060405180830381865afa1580156133ba573d6000803e3d6000fd5b505050506040513d601f19601f820116820180604052508101906133de9190615d10565b905060006133ec8284613b88565b905060006133fa868361478c565b905060006134088288613b88565b600454109998505050505050505050565b6000613426600a8361323c565b905080600003613434575050565b6134406012600a615e18565b81036134875760405162461bcd60e51b815260206004820152601660248201527518d85b89dd081c995b5bdd99481b185cdd081c1bdbdb60521b60448201526064016102e8565b60006134bf613497600a8561323c565b6134a36012600a615e18565b6134ad9190615d29565b6134b96012600a615e18565b90613b88565b905060006134cd6008612f68565b905060005b818110156135825760006134e7600883613dc2565b90506000866001600160a01b0316826001600160a01b03161461351857613513856121c7600a8561323c565b61351b565b60005b9050613529600a8383613dce565b50816001600160a01b03167f49175c3467edeba7662e939bf84305eaf5084072855b0560f6ac3e145cd172ae8260405161356591815260200190565b60405180910390a25050808061357a90615ce4565b9150506134d2565b5060008061358e610b6a565b9250509150600061359f8383613d36565b600d5550505050505050565b6000807f00000000000000000000000000000000000000000000000000000000000000006001600160a01b03166318160ddd6040518163ffffffff1660e01b8152600401602060405180830381865afa15801561360c573d6000803e3d6000fd5b505050506040513d601f19601f820116820180604052508101906136309190615d10565b905080158061363d575082155b1561364e57610eed6012600a615e18565b610eed8382613b88565b60006136666012600a615e18565b6136708385615e41565b61096a9190615e58565b8060006136878286615d29565b90506000613694856147a4565b90505b8215611d1d576000806136aa8484614843565b909250905060006136bc600884613dc2565b905060006136ca8784613716565b90506136d68282614b59565b6136e08188615d29565b9650808585815181106136f5576136f5615cb8565b602002602001018181516137099190615d29565b9052506136979350505050565b6000818310613725578161096a565b5090919050565b6040516001600160a01b038316602482015260448101829052612f5490849063a9059cbb60e01b90606401612f1d565b60005b6137696008612f68565b81101561291957600061377d600883613dc2565b90507f00000000000000000000000000000000000000000000000000000000000000006001600160a01b0316635a9919176040518163ffffffff1660e01b8152600401602060405180830381865afa1580156137dd573d6000803e3d6000fd5b505050506040513d601f19601f820116820180604052508101906138019190615c9b565b60405163af9fe9e560e01b81526001600160a01b038381166004830152919091169063af9fe9e590602401600060405180830381600087803b15801561384657600080fd5b505af115801561385a573d6000803e3d6000fd5b5050505050808061386a90615ce4565b91505061375f565b6000808080612f81866001600160a01b038716614f41565b60007f00000000000000000000000000000000000000000000000000000000000000006001600160a01b0316639f82b2176040518163ffffffff1660e01b8152600401602060405180830381865afa1580156138ea573d6000803e3d6000fd5b505050506040513d601f19601f8201168201806040525081019061390e9190615c9b565b604051631da958a960e21b81526001600160a01b03848116600483015291909116906376a562a4906024015b602060405180830381865afa158015613957573d6000803e3d6000fd5b505050506040513d601f19601f8201168201806040525081019061397b9190615c9b565b6040516370a0823160e01b81523060048201526001600160a01b0391909116906370a0823190602401602060405180830381865afa1580156139c1573d6000803e3d6000fd5b505050506040513d601f19601f8201168201806040525081019061096d9190615d10565b60007f00000000000000000000000000000000000000000000000000000000000000006001600160a01b031663b050ecb86040518163ffffffff1660e01b8152600401602060405180830381865afa158015613a45573d6000803e3d6000fd5b505050506040513d601f19601f82011682018060405250810190613a699190615c9b565b60405163514a900960e01b81526001600160a01b038481166004830152919091169063514a90099060240161393a565b6040516001600160a01b0380851660248301528316604482015260648101829052613ad19085906323b872dd60e01b90608401612f1d565b50505050565b806000613ae48286615cfd565b90506000613af1856147a4565b90505b8215611d1d57600080613b078484614f83565b9092509050613b17816064615cfd565b851015613b215750835b6000613b2e600884613dc2565b90506000613b3c8784613716565b9050613b48828261509d565b613b528188615d29565b965080858581518110613b6757613b67615cb8565b60200260200101818151613b7b9190615cfd565b905250613af49350505050565b600081613b976012600a615e18565b6136709085615e41565b60075460ff1615613cd2576000613bb88585613d36565b90506000613bc68484613d36565b90507f00000000000000000000000000000000000000000000000000000000000000006001600160a01b031663dbcd89fa6040518163ffffffff1660e01b8152600401602060405180830381865afa158015613c26573d6000803e3d6000fd5b505050506040513d601f19601f82011682018060405250810190613c4a9190615c9b565b604051630a48af5f60e11b81526001600160a01b038981166004830152602482018590526044820184905291909116906314915ebe90606401600060405180830381600087803b158015613c9d57600080fd5b505af1158015613cb1573d6000803e3d6000fd5b50505050613cbf8385613de4565b15613ccf576007805460ff191690555b50505b5050505050565b60606000610eed83615260565b600080546001600160a01b038381166001600160a01b0319831681178455604051919092169283917f8be0079c531659141344cd1fd0a4f28419497f9722a3daafe3b4186f6b6457e09190a35050565b60008060005b8351811015613dba576000613d5d613d55600884613dc2565b600a9061323c565b90506000613d6b8783613658565b9050613d99868481518110613d8257613d82615cb8565b60200260200101518261478c90919063ffffffff16565b613da39085615cfd565b935050508080613db290615ce4565b915050613d3c565b509392505050565b600061096a83836152bc565b6000610eea846001600160a01b038516846152e6565b600081600003613df65750600161096d565b60005b835181101561407d576000613e12613d55600884613dc2565b90506000858381518110613e2857613e28615cb8565b60200260200101519050816000036140225760007f00000000000000000000000000000000000000000000000000000000000000006001600160a01b0316632630c12f6040518163ffffffff1660e01b8152600401602060405180830381865afa158015613e9a573d6000803e3d6000fd5b505050506040513d601f19601f82011682018060405250810190613ebe9190615c9b565b604051638b2f0f4f60e01b81526001600160a01b037f0000000000000000000000000000000000000000000000000000000000000000811660048301529190911690638b2f0f4f90602401602060405180830381865afa158015613f26573d6000803e3d6000fd5b505050506040513d601f19601f82011682018060405250810190613f4a9190615d10565b905060007f00000000000000000000000000000000000000000000000000000000000000006001600160a01b031663313ce5676040518163ffffffff1660e01b8152600401602060405180830381865afa158015613fac573d6000803e3d6000fd5b505050506040513d601f19601f82011682018060405250810190613fd09190615e7a565b613fdb90600a615e9d565b613fe58484615e41565b613fef9190615e58565b9050614005600268056bc75e2d63100000615e58565b81106140195760009550505050505061096d565b5050505061406b565b600061402e8684613658565b9050600061403c828461478c565b9050600061404a8284613b88565b9050600154811115614065576000965050505050505061096d565b50505050505b8061407581615ce4565b915050613df9565b5060019392505050565b60006140936008612f68565b905060007f00000000000000000000000000000000000000000000000000000000000000006001600160a01b0316632630c12f6040518163ffffffff1660e01b8152600401602060405180830381865afa1580156140f5573d6000803e3d6000fd5b505050506040513d601f19601f820116820180604052508101906141199190615c9b565b604051638b2f0f4f60e01b81526000600482018190529192506001600160a01b03831690638b2f0f4f90602401602060405180830381865afa158015614163573d6000803e3d6000fd5b505050506040513d601f19601f820116820180604052508101906141879190615d10565b905060005b83811015613ad15760007f00000000000000000000000000000000000000000000000000000000000000006001600160a01b0316639f82b2176040518163ffffffff1660e01b8152600401602060405180830381865afa1580156141f4573d6000803e3d6000fd5b505050506040513d601f19601f820116820180604052508101906142189190615c9b565b6001600160a01b03166376a562a4614231600885613dc2565b6040516001600160e01b031960e084901b1681526001600160a01b039091166004820152602401602060405180830381865afa158015614275573d6000803e3d6000fd5b505050506040513d601f19601f820116820180604052508101906142999190615c9b565b604051638b2f0f4f60e01b81526001600160a01b038083166004830152919250600091861690638b2f0f4f90602401602060405180830381865afa1580156142e5573d6000803e3d6000fd5b505050506040513d601f19601f820116820180604052508101906143099190615d10565b905060006143178286613b88565b6001600160a01b039093166000908152600e60205260409020929092555081905061434181615ce4565b91505061418c565b6001600160a01b0381166000908152600183016020526040812054151561096a565b600061096a836001600160a01b038416615303565b600061096a836001600160a01b0384166153f6565b600061096a836001600160a01b038416615413565b600061096a836001600160a01b03841661541f565b6000614414826040518060400160405280602081526020017f5361666545524332303a206c6f772d6c6576656c2063616c6c206661696c6564815250856001600160a01b0316612f599092919063ffffffff16565b805190915015612f5457808060200190518101906144329190615e24565b612f545760405162461bcd60e51b815260206004820152602a60248201527f5361666545524332303a204552433230206f7065726174696f6e20646964206e6044820152691bdd081cdd58d8d9595960b21b60648201526084016102e8565b6060824710156144f25760405162461bcd60e51b815260206004820152602660248201527f416464726573733a20696e73756666696369656e742062616c616e636520666f6044820152651c8818d85b1b60d21b60648201526084016102e8565b600080866001600160a01b0316858760405161450e9190615ed0565b60006040518083038185875af1925050503d806000811461454b576040519150601f19603f3d011682016040523d82523d6000602084013e614550565b606091505b50915091506145618783838761546e565b979650505050505050565b6000808061457a8585613dc2565b600081815260029690960160205260409095205494959350505050565b6000610eea60127f00000000000000000000000000000000000000000000000000000000000000006001600160a01b031663313ce5676040518163ffffffff1660e01b8152600401602060405180830381865afa1580156145fc573d6000803e3d6000fd5b505050506040513d601f19601f820116820180604052508101906146209190615e7a565b614715856134b97f00000000000000000000000000000000000000000000000000000000000000006001600160a01b0316632630c12f6040518163ffffffff1660e01b8152600401602060405180830381865afa158015614685573d6000803e3d6000fd5b505050506040513d601f19601f820116820180604052508101906146a99190615c9b565b604051638b2f0f4f60e01b81526001600160a01b038c811660048301529190911690638b2f0f4f90602401602060405180830381865afa1580156146f1573d6000803e3d6000fd5b505050506040513d601f19601f820116820180604052508101906110749190615d10565b91906154e7565b60008181526002830160205260408120548015158061474057506147408484615413565b61096a5760405162461bcd60e51b815260206004820152601e60248201527f456e756d657261626c654d61703a206e6f6e6578697374656e74206b6579000060448201526064016102e8565b60008183101561479e5782820361096a565b50900390565b60606000825167ffffffffffffffff8111156147c2576147c2615b60565b6040519080825280602002602001820160405280156147eb578160200160208202803683370190505b50905060005b8351811015610a535783818151811061480c5761480c615cb8565b602002602001015182828151811061482657614826615cb8565b60209081029190910101528061483b81615ce4565b9150506147f1565b80516000908190600019825b82811015614afd576000614864600883613dc2565b90506000614873600a8361323c565b9050600088848151811061488957614889615cb8565b6020026020010151905081600003614a805760007f00000000000000000000000000000000000000000000000000000000000000006001600160a01b0316632630c12f6040518163ffffffff1660e01b8152600401602060405180830381865afa1580156148fb573d6000803e3d6000fd5b505050506040513d601f19601f8201168201806040525081019061491f9190615c9b565b604051638b2f0f4f60e01b81526001600160a01b037f0000000000000000000000000000000000000000000000000000000000000000811660048301529190911690638b2f0f4f90602401602060405180830381865afa158015614987573d6000803e3d6000fd5b505050506040513d601f19601f820116820180604052508101906149ab9190615d10565b905060007f00000000000000000000000000000000000000000000000000000000000000006001600160a01b031663313ce5676040518163ffffffff1660e01b8152600401602060405180830381865afa158015614a0d573d6000803e3d6000fd5b505050506040513d601f19601f82011682018060405250810190614a319190615e7a565b614a3c90600a615e9d565b614a468484615e41565b614a509190615e58565b9050614a66600268056bc75e2d63100000615e58565b8110614a7d57509397509550612f89945050505050565b50505b6000614a8c8b84613658565b9050808211614a9e5750505050614aeb565b6000614ab2614aab615528565b8390613658565b614abc9083615d29565b90506000614aca8285615d29565b9050898111614ade57505050505050614aeb565b8099508697505050505050505b80614af581615ce4565b91505061484f565b506000198113614b4f5760405162461bcd60e51b815260206004820152601e60248201527f6572726f722072657472696576696e6720776974686472617720706f6f6c000060448201526064016102e8565b9250509250929050565b60007f00000000000000000000000000000000000000000000000000000000000000006001600160a01b0316639f82b2176040518163ffffffff1660e01b8152600401602060405180830381865afa158015614bb9573d6000803e3d6000fd5b505050506040513d601f19601f82011682018060405250810190614bdd9190615c9b565b604051631da958a960e21b81526001600160a01b0385811660048301529192506000918316906376a562a490602401602060405180830381865afa158015614c29573d6000803e3d6000fd5b505050506040513d601f19601f82011682018060405250810190614c4d9190615c9b565b90506000614c5b8285615542565b905080600003614c6c575050505050565b6000614c778661388a565b60405163514a900960e01b81526001600160a01b03888116600483015291925060009186169063514a900990602401602060405180830381865afa158015614cc3573d6000803e3d6000fd5b505050506040513d601f19601f82011682018060405250810190614ce79190615c9b565b6040516370a0823160e01b81523060048201529091506000906001600160a01b038316906370a0823190602401602060405180830381865afa158015614d31573d6000803e3d6000fd5b505050506040513d601f19601f82011682018060405250810190614d559190615d10565b90506000614d638285615cfd565b905084811015614d71578094505b83851115614e6257614e6089614d878688615d29565b6040516001600160a01b039092166024830152604482015260640160408051601f19818403018152918152602080830180516001600160e01b031663f3fef3a360e01b179052815163160a1d9760e31b815291516001600160a01b037f0000000000000000000000000000000000000000000000000000000000000000169263b050ecb89260048083019391928290030181865afa158015614e2d573d6000803e3d6000fd5b505050506040513d601f19601f82011682018060405250810190614e519190615c9b565b6001600160a01b0316906157d4565b505b6040516001600160a01b03808b1660248301527f000000000000000000000000000000000000000000000000000000000000000016604482015260648101869052614f359060840160408051601f19818403018152918152602080830180516001600160e01b0316636ce5768960e11b1790528151635a99191760e01b815291516001600160a01b037f00000000000000000000000000000000000000000000000000000000000000001692635a9919179260048083019391928290030181865afa158015614e2d573d6000803e3d6000fd5b50505050505050505050565b6000818152600283016020526040812054819080614f7057614f638585615413565b925060009150612f899050565b600192509050612f89565b509250929050565b80516000908190600019825b8281101561504b576000614fa4600883613dc2565b90506000878381518110614fba57614fba615cb8565b602002602001015190506000614fe4614fdd84600a61323c90919063ffffffff16565b8b90613658565b9050808210614ff557505050615039565b6000615002614aab615528565b61500c9083615cfd565b9050600061501a8483615d29565b905088811161502d575050505050615039565b80985085965050505050505b8061504381615ce4565b915050614f8f565b506000198113614b4f5760405162461bcd60e51b815260206004820152601d60248201527f6572726f722072657472696576696e67206465706f73697420706f6f6c00000060448201526064016102e8565b806000036150a9575050565b6040516001600160a01b0380841660248301527f00000000000000000000000000000000000000000000000000000000000000001660448201526064810182905261517c9060840160408051601f19818403018152918152602080830180516001600160e01b0316638340f54960e01b1790528151635a99191760e01b815291516001600160a01b037f00000000000000000000000000000000000000000000000000000000000000001692635a9919179260048083019391928290030181865afa158015614e2d573d6000803e3d6000fd5b5060006151888361388a565b9050600081615196856139e5565b6151a09190615cfd565b6002549091506151b08383613b88565b10613ad1576040516001600160a01b038516602482015260448101839052613cd29060640160408051601f19818403018152918152602080830180516001600160e01b03166311f9fbc960e21b179052815163160a1d9760e31b815291516001600160a01b037f0000000000000000000000000000000000000000000000000000000000000000169263b050ecb89260048083019391928290030181865afa158015614e2d573d6000803e3d6000fd5b6060816000018054806020026020016040519081016040528092919081815260200182805480156152b057602002820191906000526020600020905b81548152602001906001019080831161529c575b50505050509050919050565b60008260000182815481106152d3576152d3615cb8565b9060005260206000200154905092915050565b60008281526002840160205260408120829055610eea84846157f9565b600081815260018301602052604081205480156153ec576000615327600183615d29565b855490915060009061533b90600190615d29565b90508181146153a057600086600001828154811061535b5761535b615cb8565b906000526020600020015490508087600001848154811061537e5761537e615cb8565b6000918252602080832090910192909255918252600188019052604090208390555b85548690806153b1576153b1615eec565b60019003818190600052602060002001600090559055856001016000868152602001908152602001600020600090556001935050505061096d565b600091505061096d565b6000818152600283016020526040812081905561096a8383615805565b600061096a8383615811565b60008181526001830160205260408120546154665750815460018181018455600084815260208082209093018490558454848252828601909352604090209190915561096d565b50600061096d565b606083156154dd5782516000036154d6576001600160a01b0385163b6154d65760405162461bcd60e51b815260206004820152601d60248201527f416464726573733a2063616c6c20746f206e6f6e2d636f6e747261637400000060448201526064016102e8565b50816112a9565b6112a98383615829565b60008160ff168360ff16036154fd575082610eed565b8160ff168360ff16111561551d57615516848484615853565b9050610eed565b610eea848484615874565b60075460009060ff1661553c575060015490565b50600090565b600061096a7f00000000000000000000000000000000000000000000000000000000000000006001600160a01b031663313ce5676040518163ffffffff1660e01b8152600401602060405180830381865afa1580156155a5573d6000803e3d6000fd5b505050506040513d601f19601f820116820180604052508101906155c99190615e7a565b60126147157f00000000000000000000000000000000000000000000000000000000000000006001600160a01b0316632630c12f6040518163ffffffff1660e01b8152600401602060405180830381865afa15801561562c573d6000803e3d6000fd5b505050506040513d601f19601f820116820180604052508101906156509190615c9b565b604051638b2f0f4f60e01b81526001600160a01b0389811660048301529190911690638b2f0f4f90602401602060405180830381865afa158015615698573d6000803e3d6000fd5b505050506040513d601f19601f820116820180604052508101906156bc9190615d10565b6134b97f00000000000000000000000000000000000000000000000000000000000000006001600160a01b0316632630c12f6040518163ffffffff1660e01b8152600401602060405180830381865afa15801561571d573d6000803e3d6000fd5b505050506040513d601f19601f820116820180604052508101906157419190615c9b565b604051638b2f0f4f60e01b81526001600160a01b037f0000000000000000000000000000000000000000000000000000000000000000811660048301529190911690638b2f0f4f90602401602060405180830381865afa1580156157a9573d6000803e3d6000fd5b505050506040513d601f19601f820116820180604052508101906157cd9190615d10565b8890613658565b606061096a8383604051806060016040528060278152602001615f4f60279139615895565b600061096a838361541f565b600061096a8383615303565b6000818152600183016020526040812054151561096a565b8151156158395781518083602001fd5b8060405162461bcd60e51b81526004016102e89190615f02565b600061585f8284615f35565b61586a90600a615e9d565b610eea9085615e58565b60006158808383615f35565b61588b90600a615e9d565b610eea9085615e41565b6060600080856001600160a01b0316856040516158b29190615ed0565b600060405180830381855af49150503d80600081146158ed576040519150601f19603f3d011682016040523d82523d6000602084013e6158f2565b606091505b50915091506159038683838761546e565b9695505050505050565b6000806040838503121561592057600080fd5b50508035926020909101359150565b602080825282518282018190526000919060409081850190868401855b828110156159825761597284835180516001600160a01b03168252602090810151910152565b928401929085019060010161594c565b5091979650505050505050565b6000602082840312156159a157600080fd5b5035919050565b6000606082018583526020858185015260606040850152818551808452608086019150828701935060005b818110156159ef578451835293830193918301916001016159d3565b509098975050505050505050565b6001600160a01b038116811461291957600080fd5b600060208284031215615a2457600080fd5b813561096a816159fd565b801515811461291957600080fd5b600080600060608486031215615a5257600080fd5b83359250602084013591506040840135615a6b81615a2f565b809150509250925092565b60008060008060808587031215615a8c57600080fd5b8435615a97816159fd565b935060208501359250604085013591506060850135615ab581615a2f565b939692955090935050565b6020808252825182820181905260009190848201906040850190845b81811015615b015783516001600160a01b031683529284019291840191600101615adc565b50909695505050505050565b602080825282518282018190526000919060409081850190868401855b8281101561598257615b5084835180516001600160a01b03168252602090810151910152565b9284019290850190600101615b2a565b634e487b7160e01b600052604160045260246000fd5b6040805190810167ffffffffffffffff81118282101715615b9957615b99615b60565b60405290565b604051601f8201601f1916810167ffffffffffffffff81118282101715615bc857615bc8615b60565b604052919050565b60006020808385031215615be357600080fd5b823567ffffffffffffffff80821115615bfb57600080fd5b818501915085601f830112615c0f57600080fd5b813581811115615c2157615c21615b60565b615c2f848260051b01615b9f565b818152848101925060069190911b830184019087821115615c4f57600080fd5b928401925b818410156145615760408489031215615c6d5760008081fd5b615c75615b76565b8435615c80816159fd565b81528486013586820152835260409093019291840191615c54565b600060208284031215615cad57600080fd5b815161096a816159fd565b634e487b7160e01b600052603260045260246000fd5b634e487b7160e01b600052601160045260246000fd5b600060018201615cf657615cf6615cce565b5060010190565b8082018082111561096d5761096d615cce565b600060208284031215615d2257600080fd5b5051919050565b8181038181111561096d5761096d615cce565b600181815b80851115614f7b578160001904821115615d5d57615d5d615cce565b80851615615d6a57918102915b93841c9390800290615d41565b600082615d865750600161096d565b81615d935750600061096d565b8160018114615da95760028114615db357615dcf565b600191505061096d565b60ff841115615dc457615dc4615cce565b50506001821b61096d565b5060208310610133831016604e8410600b8410161715615df2575081810a61096d565b615dfc8383615d3c565b8060001904821115615e1057615e10615cce565b029392505050565b600061096a8383615d77565b600060208284031215615e3657600080fd5b815161096a81615a2f565b808202811582820484141761096d5761096d615cce565b600082615e7557634e487b7160e01b600052601260045260246000fd5b500490565b600060208284031215615e8c57600080fd5b815160ff8116811461096a57600080fd5b600061096a60ff841683615d77565b60005b83811015615ec7578181015183820152602001615eaf565b50506000910152565b60008251615ee2818460208701615eac565b9190910192915050565b634e487b7160e01b600052603160045260246000fd5b6020815260008251806020840152615f21816040850160208701615eac565b601f01601f19169190910160400192915050565b60ff828116828216039081111561096d5761096d615cce56fe416464726573733a206c6f772d6c6576656c2064656c65676174652063616c6c206661696c6564a2646970667358221220cece56ca928c4e8b2a35ff50182d745e2dbf1945167a467d1b9522f3def631ab64736f6c6343000811003360a06040523480156200001157600080fd5b5060405162000f4238038062000f42833981016040819052620000349162000146565b818160036200004483826200027a565b5060046200005382826200027a565b5050506001600160a01b03909316608052506005805460ff90921660ff199092169190911790555062000346565b634e487b7160e01b600052604160045260246000fd5b600082601f830112620000a957600080fd5b81516001600160401b0380821115620000c657620000c662000081565b604051601f8301601f19908116603f01168101908282118183101715620000f157620000f162000081565b816040528381526020925086838588010111156200010e57600080fd5b600091505b8382101562000132578582018301518183018401529082019062000113565b600093810190920192909252949350505050565b600080600080608085870312156200015d57600080fd5b84516001600160a01b03811681146200017557600080fd5b602086015190945060ff811681146200018d57600080fd5b60408601519093506001600160401b0380821115620001ab57600080fd5b620001b98883890162000097565b93506060870151915080821115620001d057600080fd5b50620001df8782880162000097565b91505092959194509250565b600181811c908216806200020057607f821691505b6020821081036200022157634e487b7160e01b600052602260045260246000fd5b50919050565b601f8211156200027557600081815260208120601f850160051c81016020861015620002505750805b601f850160051c820191505b8181101562000271578281556001016200025c565b5050505b505050565b81516001600160401b0381111562000296576200029662000081565b620002ae81620002a78454620001eb565b8462000227565b602080601f831160018114620002e65760008415620002cd5750858301515b600019600386901b1c1916600185901b17855562000271565b600085815260208120601f198616915b828110156200031757888601518255948401946001909101908401620002f6565b5085821015620003365787850151600019600388901b60f8161c191681555b5050505050600190811b01905550565b608051610bd262000370600039600081816101120152818161034b01526103da0152610bd26000f3fe608060405234801561001057600080fd5b50600436106100ea5760003560e01c806340c10f191161008c5780639dc29fac116100665780639dc29fac14610200578063a457c2d714610213578063a9059cbb14610226578063dd62ed3e1461023957600080fd5b806340c10f19146101bc57806370a08231146101cf57806395d89b41146101f857600080fd5b806318160ddd116100c857806318160ddd1461016f57806323b872dd14610181578063313ce5671461019457806339509351146101a957600080fd5b806306fdde03146100ef578063075461721461010d578063095ea7b31461014c575b600080fd5b6100f761024c565b6040516101049190610a22565b60405180910390f35b6101347f000000000000000000000000000000000000000000000000000000000000000081565b6040516001600160a01b039091168152602001610104565b61015f61015a366004610a8c565b6102de565b6040519015158152602001610104565b6002545b604051908152602001610104565b61015f61018f366004610ab6565b6102f8565b60055460405160ff9091168152602001610104565b61015f6101b7366004610a8c565b61031c565b6101736101ca366004610a8c565b61033e565b6101736101dd366004610af2565b6001600160a01b031660009081526020819052604090205490565b6100f76103be565b61017361020e366004610a8c565b6103cd565b61015f610221366004610a8c565b610442565b61015f610234366004610a8c565b6104bd565b610173610247366004610b14565b6104cb565b60606003805461025b90610b47565b80601f016020809104026020016040519081016040528092919081815260200182805461028790610b47565b80156102d45780601f106102a9576101008083540402835291602001916102d4565b820191906000526020600020905b8154815290600101906020018083116102b757829003601f168201915b5050505050905090565b6000336102ec8185856104f6565b60019150505b92915050565b60003361030685828561061b565b610311858585610695565b506001949350505050565b6000336102ec81858561032f83836104cb565b6103399190610b7b565b6104f6565b6000336001600160a01b037f000000000000000000000000000000000000000000000000000000000000000016146103ae5760405162461bcd60e51b815260206004820152600e60248201526d1b9bdd08185d5d1a1bdc9a5e995960921b60448201526064015b60405180910390fd5b6103b88383610839565b50919050565b60606004805461025b90610b47565b6000336001600160a01b037f000000000000000000000000000000000000000000000000000000000000000016146104385760405162461bcd60e51b815260206004820152600e60248201526d1b9bdd08185d5d1a1bdc9a5e995960921b60448201526064016103a5565b6103b883836108f8565b6000338161045082866104cb565b9050838110156104b05760405162461bcd60e51b815260206004820152602560248201527f45524332303a2064656372656173656420616c6c6f77616e63652062656c6f77604482015264207a65726f60d81b60648201526084016103a5565b61031182868684036104f6565b6000336102ec818585610695565b6001600160a01b03918216600090815260016020908152604080832093909416825291909152205490565b6001600160a01b0383166105585760405162461bcd60e51b8152602060048201526024808201527f45524332303a20617070726f76652066726f6d20746865207a65726f206164646044820152637265737360e01b60648201526084016103a5565b6001600160a01b0382166105b95760405162461bcd60e51b815260206004820152602260248201527f45524332303a20617070726f766520746f20746865207a65726f206164647265604482015261737360f01b60648201526084016103a5565b6001600160a01b0383811660008181526001602090815260408083209487168084529482529182902085905590518481527f8c5be1e5ebec7d5bd14f71427d1e84f3dd0314c0f7b2291e5b200ac8c7c3b92591015b60405180910390a3505050565b600061062784846104cb565b9050600019811461068f57818110156106825760405162461bcd60e51b815260206004820152601d60248201527f45524332303a20696e73756666696369656e7420616c6c6f77616e636500000060448201526064016103a5565b61068f84848484036104f6565b50505050565b6001600160a01b0383166106f95760405162461bcd60e51b815260206004820152602560248201527f45524332303a207472616e736665722066726f6d20746865207a65726f206164604482015264647265737360d81b60648201526084016103a5565b6001600160a01b03821661075b5760405162461bcd60e51b815260206004820152602360248201527f45524332303a207472616e7366657220746f20746865207a65726f206164647260448201526265737360e81b60648201526084016103a5565b6001600160a01b038316600090815260208190526040902054818110156107d35760405162461bcd60e51b815260206004820152602660248201527f45524332303a207472616e7366657220616d6f756e7420657863656564732062604482015265616c616e636560d01b60648201526084016103a5565b6001600160a01b03848116600081815260208181526040808320878703905593871680835291849020805487019055925185815290927fddf252ad1be2c89b69c2b068fc378daa952ba7f163c4a11628f55a4df523b3ef910160405180910390a361068f565b6001600160a01b03821661088f5760405162461bcd60e51b815260206004820152601f60248201527f45524332303a206d696e7420746f20746865207a65726f20616464726573730060448201526064016103a5565b80600260008282546108a19190610b7b565b90915550506001600160a01b038216600081815260208181526040808320805486019055518481527fddf252ad1be2c89b69c2b068fc378daa952ba7f163c4a11628f55a4df523b3ef910160405180910390a35050565b6001600160a01b0382166109585760405162461bcd60e51b815260206004820152602160248201527f45524332303a206275726e2066726f6d20746865207a65726f206164647265736044820152607360f81b60648201526084016103a5565b6001600160a01b038216600090815260208190526040902054818110156109cc5760405162461bcd60e51b815260206004820152602260248201527f45524332303a206275726e20616d6f756e7420657863656564732062616c616e604482015261636560f01b60648201526084016103a5565b6001600160a01b0383166000818152602081815260408083208686039055600280548790039055518581529192917fddf252ad1be2c89b69c2b068fc378daa952ba7f163c4a11628f55a4df523b3ef910161060e565b600060208083528351808285015260005b81811015610a4f57858101830151858201604001528201610a33565b506000604082860101526040601f19601f8301168501019250505092915050565b80356001600160a01b0381168114610a8757600080fd5b919050565b60008060408385031215610a9f57600080fd5b610aa883610a70565b946020939093013593505050565b600080600060608486031215610acb57600080fd5b610ad484610a70565b9250610ae260208501610a70565b9150604084013590509250925092565b600060208284031215610b0457600080fd5b610b0d82610a70565b9392505050565b60008060408385031215610b2757600080fd5b610b3083610a70565b9150610b3e60208401610a70565b90509250929050565b600181811c90821680610b5b57607f821691505b6020821081036103b857634e487b7160e01b600052602260045260246000fd5b808201808211156102f257634e487b7160e01b600052601160045260246000fdfea26469706673582212206aa75b9591bfcccdaf994092d6954367efcd0246068eea823c68028250113a8b64736f6c63430008110033","bytecodeSha1":"cf101388d356dab43d4b0c873c2676f005d13baf","compiler":{"evm_version":"london","optimizer":{"enabled":true,"runs":200},"version":"0.8.17+commit.8df45f5f"},"contractName":"ConicEthPool","language":"Solidity","natspec":{"kind":"dev","methods":{"cachedTotalUnderlying()":{"details":"this is useful in cases where we want to reduce gas usage and do not need a precise value","notice":"same as `totalUnderlying` but returns a cached version that might be slightly outdated if oracle prices have changed"},"deposit(uint256,uint256)":{"notice":"Deposit underlying","params":{"minLpReceived":"The minimum amoun of LP to accept from the deposit","underlyingAmount":"Amount of underlying to deposit"},"returns":{"_0":"lpReceived The amount of LP received"}},"deposit(uint256,uint256,bool)":{"notice":"Deposit underlying","params":{"minLpReceived":"The minimum amoun of LP to accept from the deposit","stake":"Whether or not to stake in the LpTokenStaker","underlyingAmount":"Amount of underlying to deposit"},"returns":{"_0":"lpReceived The amount of LP received"}},"depositFor(address,uint256,uint256,bool)":{"notice":"Deposit underlying on behalf of someone","params":{"minLpReceived":"The minimum amount of LP to accept from the deposit","underlyingAmount":"Amount of underlying to deposit"},"returns":{"_0":"lpReceived The amount of LP received"}},"exchangeRate()":{"notice":"Get current exchange rate for the pool's LP token to the underlying"},"handleDepeggedCurvePool(address)":{"details":"Cannot be called if the underlying of this pool itself has depegged.","notice":"Called when an underlying of a Curve Pool has depegged and we want to exit the pool. Will check if a coin has depegged, and will revert if not. Sets the weight of the Curve Pool to 0, and re-enables CNC rewards for deposits.","params":{"curvePool_":"The Curve Pool to handle."}},"handleInvalidConvexPid(address)":{"notice":"Allows anyone to set the weight of a Curve pool to 0 if the Convex pool for the associated PID has been shutdown. This is a very unilkely outcomu and the method does not reenable rebalancing rewards.","params":{"curvePool_":"Curve pool for which the Convex PID is invalid (has been shut down)"}},"owner()":{"details":"Returns the address of the current owner."},"renounceOwnership()":{"details":"Leaves the contract without owner. It will not be possible to call `onlyOwner` functions anymore. Can only be called by the current owner. NOTE: Renouncing ownership will leave the contract without an owner, thereby removing any functionality that is only available to the owner."},"totalUnderlying()":{"notice":"Get current underlying balance of pool"},"transferOwnership(address)":{"details":"Transfers ownership of the contract to a new account (`newOwner`). Can only be called by the current owner."},"unstakeAndWithdraw(uint256,uint256)":{"notice":"Unstake LP Tokens and withdraw underlying","params":{"conicLpAmount":"Amount of LP tokens to burn","minUnderlyingReceived":"Minimum amount of underlying to redeem This should always be set to a reasonable value (e.g. 2%), otherwise the user withdrawing could be forced into paying a withdrawal penalty fee by another user"},"returns":{"_0":"uint256 Total underlying withdrawn"}},"usdExchangeRate()":{"details":"This is using the cached total underlying value, so is not precisely accurate.","notice":"Get current exchange rate for the pool's LP token to USD"},"withdraw(uint256,uint256)":{"notice":"Withdraw underlying","params":{"conicLpAmount":"Amount of LP tokens to burn","minUnderlyingReceived":"Minimum amount of underlying to redeem This should always be set to a reasonable value (e.g. 2%), otherwise the user withdrawing could be forced into paying a withdrawal penalty fee by another user"},"returns":{"_0":"uint256 Total underlying withdrawn"}}},"stateVariables":{"maxDeviation":{"details":"once the deviation gets under this threshold, the reward distribution will be paused until the next rebalancing. This is expressed as a ratio, scaled with 18 decimals"},"rebalancingRewardActive":{"details":"`true` while the reward distribution is active"},"totalDeviationAfterWeightUpdate":{"details":"the absolute value in terms of USD of the total deviation after the weights have been updated"}},"version":1},"opcodes":"PUSH1 0x80 PUSH1 0x40 MSTORE PUSH1 0x4 CALLDATASIZE LT PUSH2 0x26B JUMPI PUSH1 0x0 CALLDATALOAD PUSH1 0xE0 SHR DUP1 PUSH4 0x8DA5CB5B GT PUSH2 0x144 JUMPI DUP1 PUSH4 0xCB03A464 GT PUSH2 0xB6 JUMPI DUP1 PUSH4 0xDDDBC049 GT PUSH2 0x7A JUMPI DUP1 PUSH4 0xDDDBC049 EQ PUSH2 0x7A0 JUMPI DUP1 PUSH4 0xE17E1725 EQ PUSH2 0x7C0 JUMPI DUP1 PUSH4 0xE2BBB158 EQ PUSH2 0x7D5 JUMPI DUP1 PUSH4 0xF2FDE38B EQ PUSH2 0x7F5 JUMPI DUP1 PUSH4 0xF5CFC592 EQ PUSH2 0x815 JUMPI DUP1 PUSH4 0xF77C4791 EQ PUSH2 0x835 JUMPI PUSH1 0x0 DUP1 REVERT JUMPDEST DUP1 PUSH4 0xCB03A464 EQ PUSH2 0x72B JUMPI DUP1 PUSH4 0xCE75040E EQ PUSH2 0x740 JUMPI DUP1 PUSH4 0xD1E6C1E5 EQ PUSH2 0x755 JUMPI DUP1 PUSH4 0xD6038DC6 EQ PUSH2 0x76B JUMPI DUP1 PUSH4 0xDDD2C684 EQ PUSH2 0x780 JUMPI PUSH1 0x0 DUP1 REVERT JUMPDEST DUP1 PUSH4 0xA58F1D8E GT PUSH2 0x108 JUMPI DUP1 PUSH4 0xA58F1D8E EQ PUSH2 0x686 JUMPI DUP1 PUSH4 0xAC6C5251 EQ PUSH2 0x69C JUMPI DUP1 PUSH4 0xB0A43968 EQ PUSH2 0x6BC JUMPI DUP1 PUSH4 0xBD096CBB EQ PUSH2 0x6DC JUMPI DUP1 PUSH4 0xBF86D690 EQ PUSH2 0x6FC JUMPI DUP1 PUSH4 0xC70920BC EQ PUSH2 0x716 JUMPI PUSH1 0x0 DUP1 REVERT JUMPDEST DUP1 PUSH4 0x8DA5CB5B EQ PUSH2 0x5DE JUMPI DUP1 PUSH4 0x8DBFB25B EQ PUSH2 0x5FC JUMPI DUP1 PUSH4 0x9765CA15 EQ PUSH2 0x61C JUMPI DUP1 PUSH4 0x9E486562 EQ PUSH2 0x63C JUMPI DUP1 PUSH4 0xA1E2849F EQ PUSH2 0x666 JUMPI PUSH1 0x0 DUP1 REVERT JUMPDEST DUP1 PUSH4 0x43A0D066 GT PUSH2 0x1DD JUMPI DUP1 PUSH4 0x65F20355 GT PUSH2 0x1A1 JUMPI DUP1 PUSH4 0x65F20355 EQ PUSH2 0x51C JUMPI DUP1 PUSH4 0x6F307DC3 EQ PUSH2 0x53C JUMPI DUP1 PUSH4 0x6F934ABE EQ PUSH2 0x570 JUMPI DUP1 PUSH4 0x715018A6 EQ PUSH2 0x592 JUMPI DUP1 PUSH4 0x83645ABF EQ PUSH2 0x5A7 JUMPI DUP1 PUSH4 0x86FE9A66 EQ PUSH2 0x5BC JUMPI PUSH1 0x0 DUP1 REVERT JUMPDEST DUP1 PUSH4 0x43A0D066 EQ PUSH2 0x468 JUMPI DUP1 PUSH4 0x441A3E70 EQ PUSH2 0x488 JUMPI DUP1 PUSH4 0x5757ED5B EQ PUSH2 0x4A8 JUMPI DUP1 PUSH4 0x5FCBD285 EQ PUSH2 0x4C8 JUMPI DUP1 PUSH4 0x60FFD5AE EQ PUSH2 0x4FC JUMPI PUSH1 0x0 DUP1 REVERT JUMPDEST DUP1 PUSH4 0x2A1BAB73 GT PUSH2 0x22F JUMPI DUP1 PUSH4 0x2A1BAB73 EQ PUSH2 0x3C3 JUMPI DUP1 PUSH4 0x32F44C42 EQ PUSH2 0x3D9 JUMPI DUP1 PUSH4 0x331666FA EQ PUSH2 0x3F9 JUMPI DUP1 PUSH4 0x36797AEC EQ PUSH2 0x41D JUMPI DUP1 PUSH4 0x3BA0B9A9 EQ PUSH2 0x43D JUMPI DUP1 PUSH4 0x3D4912C3 EQ PUSH2 0x452 JUMPI PUSH1 0x0 DUP1 REVERT JUMPDEST DUP1 PUSH4 0x8BF1345 EQ PUSH2 0x2F8 JUMPI DUP1 PUSH4 0xF4EF8A6 EQ PUSH2 0x320 JUMPI DUP1 PUSH4 0x10AEC8F9 EQ PUSH2 0x36C JUMPI DUP1 PUSH4 0x22ACB867 EQ PUSH2 0x38C JUMPI DUP1 PUSH4 0x24A71A66 EQ PUSH2 0x3AE JUMPI PUSH1 0x0 DUP1 REVERT JUMPDEST CALLDATASIZE PUSH2 0x2F3 JUMPI PUSH32 0x0 PUSH1 0x1 PUSH1 0x1 PUSH1 0xA0 SHL SUB AND PUSH20 0xC02AAA39B223FE8D0A0E5C4F27EAD9083C756CC2 EQ PUSH2 0x2F1 JUMPI PUSH1 0x40 MLOAD PUSH3 0x461BCD PUSH1 0xE5 SHL DUP2 MSTORE PUSH1 0x20 PUSH1 0x4 DUP3 ADD MSTORE PUSH1 0xD PUSH1 0x24 DUP3 ADD MSTORE PUSH13 0x1B9BDD0815D15512081C1BDBDB PUSH1 0x9A SHL PUSH1 0x44 DUP3 ADD MSTORE PUSH1 0x64 ADD JUMPDEST PUSH1 0x40 MLOAD DUP1 SWAP2 SUB SWAP1 REVERT JUMPDEST STOP JUMPDEST PUSH1 0x0 DUP1 REVERT JUMPDEST CALLVALUE DUP1 ISZERO PUSH2 0x304 JUMPI PUSH1 0x0 DUP1 REVERT JUMPDEST POP PUSH2 0x30D PUSH2 0x869 JUMP JUMPDEST PUSH1 0x40 MLOAD SWAP1 DUP2 MSTORE PUSH1 0x20 ADD JUMPDEST PUSH1 0x40 MLOAD DUP1 SWAP2 SUB SWAP1 RETURN JUMPDEST CALLVALUE DUP1 ISZERO PUSH2 0x32C JUMPI PUSH1 0x0 DUP1 REVERT JUMPDEST POP PUSH2 0x354 PUSH32 0x0 DUP2 JUMP JUMPDEST PUSH1 0x40 MLOAD PUSH1 0x1 PUSH1 0x1 PUSH1 0xA0 SHL SUB SWAP1 SWAP2 AND DUP2 MSTORE PUSH1 0x20 ADD PUSH2 0x317 JUMP JUMPDEST CALLVALUE DUP1 ISZERO PUSH2 0x378 JUMPI PUSH1 0x0 DUP1 REVERT JUMPDEST POP PUSH2 0x30D PUSH2 0x387 CALLDATASIZE PUSH1 0x4 PUSH2 0x590D JUMP JUMPDEST PUSH2 0x87A JUMP JUMPDEST CALLVALUE DUP1 ISZERO PUSH2 0x398 JUMPI PUSH1 0x0 DUP1 REVERT JUMPDEST POP PUSH2 0x3A1 PUSH2 0x973 JUMP JUMPDEST PUSH1 0x40 MLOAD PUSH2 0x317 SWAP2 SWAP1 PUSH2 0x592F JUMP JUMPDEST CALLVALUE DUP1 ISZERO PUSH2 0x3BA JUMPI PUSH1 0x0 DUP1 REVERT JUMPDEST POP PUSH2 0x30D PUSH2 0xA5A JUMP JUMPDEST CALLVALUE DUP1 ISZERO PUSH2 0x3CF JUMPI PUSH1 0x0 DUP1 REVERT JUMPDEST POP PUSH2 0x30D PUSH1 0x1 SLOAD DUP2 JUMP JUMPDEST CALLVALUE DUP1 ISZERO PUSH2 0x3E5 JUMPI PUSH1 0x0 DUP1 REVERT JUMPDEST POP PUSH2 0x2F1 PUSH2 0x3F4 CALLDATASIZE PUSH1 0x4 PUSH2 0x598F JUMP JUMPDEST PUSH2 0xA83 JUMP JUMPDEST CALLVALUE DUP1 ISZERO PUSH2 0x405 JUMPI PUSH1 0x0 DUP1 REVERT JUMPDEST POP PUSH2 0x40E PUSH2 0xB6A JUMP JUMPDEST PUSH1 0x40 MLOAD PUSH2 0x317 SWAP4 SWAP3 SWAP2 SWAP1 PUSH2 0x59A8 JUMP JUMPDEST CALLVALUE DUP1 ISZERO PUSH2 0x429 JUMPI PUSH1 0x0 DUP1 REVERT JUMPDEST POP PUSH2 0x2F1 PUSH2 0x438 CALLDATASIZE PUSH1 0x4 PUSH2 0x5A12 JUMP JUMPDEST PUSH2 0xC96 JUMP JUMPDEST CALLVALUE DUP1 ISZERO PUSH2 0x449 JUMPI PUSH1 0x0 DUP1 REVERT JUMPDEST POP PUSH2 0x30D PUSH2 0xECA JUMP JUMPDEST CALLVALUE DUP1 ISZERO PUSH2 0x45E JUMPI PUSH1 0x0 DUP1 REVERT JUMPDEST POP PUSH2 0x30D PUSH1 0x4 SLOAD DUP2 JUMP JUMPDEST CALLVALUE DUP1 ISZERO PUSH2 0x474 JUMPI PUSH1 0x0 DUP1 REVERT JUMPDEST POP PUSH2 0x30D PUSH2 0x483 CALLDATASIZE PUSH1 0x4 PUSH2 0x5A3D JUMP JUMPDEST PUSH2 0xEDC JUMP JUMPDEST CALLVALUE DUP1 ISZERO PUSH2 0x494 JUMPI PUSH1 0x0 DUP1 REVERT JUMPDEST POP PUSH2 0x30D PUSH2 0x4A3 CALLDATASIZE PUSH1 0x4 PUSH2 0x590D JUMP JUMPDEST PUSH2 0xEF4 JUMP JUMPDEST CALLVALUE DUP1 ISZERO PUSH2 0x4B4 JUMPI PUSH1 0x0 DUP1 REVERT JUMPDEST POP PUSH2 0x30D PUSH2 0x4C3 CALLDATASIZE PUSH1 0x4 PUSH2 0x5A12 JUMP JUMPDEST PUSH2 0x129B JUMP JUMPDEST CALLVALUE DUP1 ISZERO PUSH2 0x4D4 JUMPI PUSH1 0x0 DUP1 REVERT JUMPDEST POP PUSH2 0x354 PUSH32 0x0 DUP2 JUMP JUMPDEST CALLVALUE DUP1 ISZERO PUSH2 0x508 JUMPI PUSH1 0x0 DUP1 REVERT JUMPDEST POP PUSH2 0x30D PUSH2 0x517 CALLDATASIZE PUSH1 0x4 PUSH2 0x5A12 JUMP JUMPDEST PUSH2 0x12B1 JUMP JUMPDEST CALLVALUE DUP1 ISZERO PUSH2 0x528 JUMPI PUSH1 0x0 DUP1 REVERT JUMPDEST POP PUSH2 0x30D PUSH2 0x537 CALLDATASIZE PUSH1 0x4 PUSH2 0x5A76 JUMP JUMPDEST PUSH2 0x12CF JUMP JUMPDEST CALLVALUE DUP1 ISZERO PUSH2 0x548 JUMPI PUSH1 0x0 DUP1 REVERT JUMPDEST POP PUSH2 0x354 PUSH32 0x0 DUP2 JUMP JUMPDEST CALLVALUE DUP1 ISZERO PUSH2 0x57C JUMPI PUSH1 0x0 DUP1 REVERT JUMPDEST POP PUSH2 0x585 PUSH2 0x1963 JUMP JUMPDEST PUSH1 0x40 MLOAD PUSH2 0x317 SWAP2 SWAP1 PUSH2 0x5AC0 JUMP JUMPDEST CALLVALUE DUP1 ISZERO PUSH2 0x59E JUMPI PUSH1 0x0 DUP1 REVERT JUMPDEST POP PUSH2 0x2F1 PUSH2 0x196F JUMP JUMPDEST CALLVALUE DUP1 ISZERO PUSH2 0x5B3 JUMPI PUSH1 0x0 DUP1 REVERT JUMPDEST POP PUSH2 0x30D PUSH2 0x1983 JUMP JUMPDEST CALLVALUE DUP1 ISZERO PUSH2 0x5C8 JUMPI PUSH1 0x0 DUP1 REVERT JUMPDEST POP PUSH2 0x5D1 PUSH2 0x19A6 JUMP JUMPDEST PUSH1 0x40 MLOAD PUSH2 0x317 SWAP2 SWAP1 PUSH2 0x5B0D JUMP JUMPDEST CALLVALUE DUP1 ISZERO PUSH2 0x5EA JUMPI PUSH1 0x0 DUP1 REVERT JUMPDEST POP PUSH1 0x0 SLOAD PUSH1 0x1 PUSH1 0x1 PUSH1 0xA0 SHL SUB AND PUSH2 0x354 JUMP JUMPDEST CALLVALUE DUP1 ISZERO PUSH2 0x608 JUMPI PUSH1 0x0 DUP1 REVERT JUMPDEST POP PUSH2 0x2F1 PUSH2 0x617 CALLDATASIZE PUSH1 0x4 PUSH2 0x5BD0 JUMP JUMPDEST PUSH2 0x1AA7 JUMP JUMPDEST CALLVALUE DUP1 ISZERO PUSH2 0x628 JUMPI PUSH1 0x0 DUP1 REVERT JUMPDEST POP PUSH2 0x2F1 PUSH2 0x637 CALLDATASIZE PUSH1 0x4 PUSH2 0x5A12 JUMP JUMPDEST PUSH2 0x1D25 JUMP JUMPDEST CALLVALUE DUP1 ISZERO PUSH2 0x648 JUMPI PUSH1 0x0 DUP1 REVERT JUMPDEST POP PUSH1 0x7 SLOAD PUSH2 0x656 SWAP1 PUSH1 0xFF AND DUP2 JUMP JUMPDEST PUSH1 0x40 MLOAD SWAP1 ISZERO ISZERO DUP2 MSTORE PUSH1 0x20 ADD PUSH2 0x317 JUMP JUMPDEST CALLVALUE DUP1 ISZERO PUSH2 0x672 JUMPI PUSH1 0x0 DUP1 REVERT JUMPDEST POP PUSH2 0x656 PUSH2 0x681 CALLDATASIZE PUSH1 0x4 PUSH2 0x5A12 JUMP JUMPDEST PUSH2 0x1F76 JUMP JUMPDEST CALLVALUE DUP1 ISZERO PUSH2 0x692 JUMPI PUSH1 0x0 DUP1 REVERT JUMPDEST POP PUSH2 0x30D PUSH1 0x2 SLOAD DUP2 JUMP JUMPDEST CALLVALUE DUP1 ISZERO PUSH2 0x6A8 JUMPI PUSH1 0x0 DUP1 REVERT JUMPDEST POP PUSH2 0x30D PUSH2 0x6B7 CALLDATASIZE PUSH1 0x4 PUSH2 0x5A12 JUMP JUMPDEST PUSH2 0x1F83 JUMP JUMPDEST CALLVALUE DUP1 ISZERO PUSH2 0x6C8 JUMPI PUSH1 0x0 DUP1 REVERT JUMPDEST POP PUSH2 0x2F1 PUSH2 0x6D7 CALLDATASIZE PUSH1 0x4 PUSH2 0x598F JUMP JUMPDEST PUSH2 0x1F90 JUMP JUMPDEST CALLVALUE DUP1 ISZERO PUSH2 0x6E8 JUMPI PUSH1 0x0 DUP1 REVERT JUMPDEST POP PUSH2 0x354 PUSH2 0x6F7 CALLDATASIZE PUSH1 0x4 PUSH2 0x598F JUMP JUMPDEST PUSH2 0x2068 JUMP JUMPDEST CALLVALUE DUP1 ISZERO PUSH2 0x708 JUMPI PUSH1 0x0 DUP1 REVERT JUMPDEST POP PUSH1 0x3 SLOAD PUSH2 0x656 SWAP1 PUSH1 0xFF AND DUP2 JUMP JUMPDEST CALLVALUE DUP1 ISZERO PUSH2 0x722 JUMPI PUSH1 0x0 DUP1 REVERT JUMPDEST POP PUSH2 0x30D PUSH2 0x2075 JUMP JUMPDEST CALLVALUE DUP1 ISZERO PUSH2 0x737 JUMPI PUSH1 0x0 DUP1 REVERT JUMPDEST POP PUSH2 0x656 PUSH2 0x2089 JUMP JUMPDEST CALLVALUE DUP1 ISZERO PUSH2 0x74C JUMPI PUSH1 0x0 DUP1 REVERT JUMPDEST POP PUSH2 0x30D PUSH2 0x20A5 JUMP JUMPDEST CALLVALUE DUP1 ISZERO PUSH2 0x761 JUMPI PUSH1 0x0 DUP1 REVERT JUMPDEST POP PUSH2 0x30D PUSH1 0xD SLOAD DUP2 JUMP JUMPDEST CALLVALUE DUP1 ISZERO PUSH2 0x777 JUMPI PUSH1 0x0 DUP1 REVERT JUMPDEST POP PUSH2 0x2F1 PUSH2 0x21D3 JUMP JUMPDEST CALLVALUE DUP1 ISZERO PUSH2 0x78C JUMPI PUSH1 0x0 DUP1 REVERT JUMPDEST POP PUSH2 0x2F1 PUSH2 0x79B CALLDATASIZE PUSH1 0x4 PUSH2 0x5A12 JUMP JUMPDEST PUSH2 0x22BF JUMP JUMPDEST CALLVALUE DUP1 ISZERO PUSH2 0x7AC JUMPI PUSH1 0x0 DUP1 REVERT JUMPDEST POP PUSH2 0x2F1 PUSH2 0x7BB CALLDATASIZE PUSH1 0x4 PUSH2 0x598F JUMP JUMPDEST PUSH2 0x2779 JUMP JUMPDEST CALLVALUE DUP1 ISZERO PUSH2 0x7CC JUMPI PUSH1 0x0 DUP1 REVERT JUMPDEST POP PUSH2 0x30D PUSH2 0x2851 JUMP JUMPDEST CALLVALUE DUP1 ISZERO PUSH2 0x7E1 JUMPI PUSH1 0x0 DUP1 REVERT JUMPDEST POP PUSH2 0x30D PUSH2 0x7F0 CALLDATASIZE PUSH1 0x4 PUSH2 0x590D JUMP JUMPDEST PUSH2 0x2894 JUMP JUMPDEST CALLVALUE DUP1 ISZERO PUSH2 0x801 JUMPI PUSH1 0x0 DUP1 REVERT JUMPDEST POP PUSH2 0x2F1 PUSH2 0x810 CALLDATASIZE PUSH1 0x4 PUSH2 0x5A12 JUMP JUMPDEST PUSH2 0x28A3 JUMP JUMPDEST CALLVALUE DUP1 ISZERO PUSH2 0x821 JUMPI PUSH1 0x0 DUP1 REVERT JUMPDEST POP PUSH2 0x2F1 PUSH2 0x830 CALLDATASIZE PUSH1 0x4 PUSH2 0x5A12 JUMP JUMPDEST PUSH2 0x291C JUMP JUMPDEST CALLVALUE DUP1 ISZERO PUSH2 0x841 JUMPI PUSH1 0x0 DUP1 REVERT JUMPDEST POP PUSH2 0x354 PUSH32 0x0 DUP2 JUMP JUMPDEST PUSH1 0x0 PUSH2 0x875 PUSH1 0x8 PUSH2 0x2F68 JUMP JUMPDEST SWAP1 POP SWAP1 JUMP JUMPDEST PUSH1 0x0 PUSH32 0x0 PUSH1 0x1 PUSH1 0x1 PUSH1 0xA0 SHL SUB AND PUSH4 0x48439E7E PUSH1 0x40 MLOAD DUP2 PUSH4 0xFFFFFFFF AND PUSH1 0xE0 SHL DUP2 MSTORE PUSH1 0x4 ADD PUSH1 0x20 PUSH1 0x40 MLOAD DUP1 DUP4 SUB DUP2 DUP7 GAS STATICCALL ISZERO DUP1 ISZERO PUSH2 0x8DA JUMPI RETURNDATASIZE PUSH1 0x0 DUP1 RETURNDATACOPY RETURNDATASIZE PUSH1 0x0 REVERT JUMPDEST POP POP POP POP PUSH1 0x40 MLOAD RETURNDATASIZE PUSH1 0x1F NOT PUSH1 0x1F DUP3 ADD AND DUP3 ADD DUP1 PUSH1 0x40 MSTORE POP DUP2 ADD SWAP1 PUSH2 0x8FE SWAP2 SWAP1 PUSH2 0x5C9B JUMP JUMPDEST PUSH1 0x40 MLOAD PUSH4 0x325D161 PUSH1 0xE0 SHL DUP2 MSTORE PUSH1 0x4 DUP2 ADD DUP6 SWAP1 MSTORE CALLER PUSH1 0x24 DUP3 ADD MSTORE PUSH1 0x1 PUSH1 0x1 PUSH1 0xA0 SHL SUB SWAP2 SWAP1 SWAP2 AND SWAP1 PUSH4 0x325D161 SWAP1 PUSH1 0x44 ADD PUSH1 0x0 PUSH1 0x40 MLOAD DUP1 DUP4 SUB DUP2 PUSH1 0x0 DUP8 DUP1 EXTCODESIZE ISZERO DUP1 ISZERO PUSH2 0x948 JUMPI PUSH1 0x0 DUP1 REVERT JUMPDEST POP GAS CALL ISZERO DUP1 ISZERO PUSH2 0x95C JUMPI RETURNDATASIZE PUSH1 0x0 DUP1 RETURNDATACOPY RETURNDATASIZE PUSH1 0x0 REVERT JUMPDEST POP POP POP POP PUSH2 0x96A DUP4 DUP4 PUSH2 0xEF4 JUMP JUMPDEST SWAP1 POP JUMPDEST SWAP3 SWAP2 POP POP JUMP JUMPDEST PUSH1 0x60 PUSH1 0x0 PUSH2 0x981 PUSH1 0x8 PUSH2 0x2F68 JUMP JUMPDEST SWAP1 POP PUSH1 0x0 DUP2 PUSH8 0xFFFFFFFFFFFFFFFF DUP2 GT ISZERO PUSH2 0x99E JUMPI PUSH2 0x99E PUSH2 0x5B60 JUMP JUMPDEST PUSH1 0x40 MLOAD SWAP1 DUP1 DUP3 MSTORE DUP1 PUSH1 0x20 MUL PUSH1 0x20 ADD DUP3 ADD PUSH1 0x40 MSTORE DUP1 ISZERO PUSH2 0x9E3 JUMPI DUP2 PUSH1 0x20 ADD JUMPDEST PUSH1 0x40 DUP1 MLOAD DUP1 DUP3 ADD SWAP1 SWAP2 MSTORE PUSH1 0x0 DUP1 DUP3 MSTORE PUSH1 0x20 DUP3 ADD MSTORE DUP2 MSTORE PUSH1 0x20 ADD SWAP1 PUSH1 0x1 SWAP1 SUB SWAP1 DUP2 PUSH2 0x9BC JUMPI SWAP1 POP JUMPDEST POP SWAP1 POP PUSH1 0x0 JUMPDEST DUP3 DUP2 LT ISZERO PUSH2 0xA53 JUMPI PUSH1 0x0 DUP1 PUSH2 0x9FF PUSH1 0xA DUP5 PUSH2 0x2F72 JUMP JUMPDEST SWAP2 POP SWAP2 POP PUSH1 0x40 MLOAD DUP1 PUSH1 0x40 ADD PUSH1 0x40 MSTORE DUP1 DUP4 PUSH1 0x1 PUSH1 0x1 PUSH1 0xA0 SHL SUB AND DUP2 MSTORE PUSH1 0x20 ADD DUP3 DUP2 MSTORE POP DUP5 DUP5 DUP2 MLOAD DUP2 LT PUSH2 0xA33 JUMPI PUSH2 0xA33 PUSH2 0x5CB8 JUMP JUMPDEST PUSH1 0x20 MUL PUSH1 0x20 ADD ADD DUP2 SWAP1 MSTORE POP POP POP DUP1 DUP1 PUSH2 0xA4B SWAP1 PUSH2 0x5CE4 JUMP JUMPDEST SWAP2 POP POP PUSH2 0x9E9 JUMP JUMPDEST POP SWAP3 SWAP2 POP POP JUMP JUMPDEST PUSH1 0x0 PUSH3 0x3F480 PUSH1 0x5 SLOAD PUSH2 0xA6D SWAP2 SWAP1 PUSH2 0x5CFD JUMP JUMPDEST TIMESTAMP GT ISZERO PUSH2 0xA7C JUMPI PUSH2 0x875 PUSH2 0x2075 JUMP JUMPDEST POP PUSH1 0x6 SLOAD SWAP1 JUMP JUMPDEST PUSH2 0xA8B PUSH2 0x2F90 JUMP JUMPDEST PUSH7 0x2386F26FC10000 DUP2 LT ISZERO PUSH2 0xADC JUMPI PUSH1 0x40 MLOAD PUSH3 0x461BCD PUSH1 0xE5 SHL DUP2 MSTORE PUSH1 0x20 PUSH1 0x4 DUP3 ADD MSTORE PUSH1 0x17 PUSH1 0x24 DUP3 ADD MSTORE PUSH23 0x1A5B9D985B1A590819195C1959C81D1A1C995CDA1BDB19 PUSH1 0x4A SHL PUSH1 0x44 DUP3 ADD MSTORE PUSH1 0x64 ADD PUSH2 0x2E8 JUMP JUMPDEST PUSH8 0x16345785D8A0000 DUP2 GT ISZERO PUSH2 0xB2E JUMPI PUSH1 0x40 MLOAD PUSH3 0x461BCD PUSH1 0xE5 SHL DUP2 MSTORE PUSH1 0x20 PUSH1 0x4 DUP3 ADD MSTORE PUSH1 0x17 PUSH1 0x24 DUP3 ADD MSTORE PUSH23 0x1A5B9D985B1A590819195C1959C81D1A1C995CDA1BDB19 PUSH1 0x4A SHL PUSH1 0x44 DUP3 ADD MSTORE PUSH1 0x64 ADD PUSH2 0x2E8 JUMP JUMPDEST PUSH1 0x4 DUP2 SWAP1 SSTORE PUSH1 0x40 MLOAD DUP2 DUP2 MSTORE PUSH32 0x20DA4A1840E5E1BB25784E941F370E4DB630545ED9434C8C0BAD8E421480595B SWAP1 PUSH1 0x20 ADD JUMPDEST PUSH1 0x40 MLOAD DUP1 SWAP2 SUB SWAP1 LOG1 POP JUMP JUMPDEST PUSH1 0x0 DUP1 PUSH1 0x60 PUSH1 0x0 PUSH32 0x0 PUSH1 0x1 PUSH1 0x1 PUSH1 0xA0 SHL SUB AND PUSH4 0x2630C12F PUSH1 0x40 MLOAD DUP2 PUSH4 0xFFFFFFFF AND PUSH1 0xE0 SHL DUP2 MSTORE PUSH1 0x4 ADD PUSH1 0x20 PUSH1 0x40 MLOAD DUP1 DUP4 SUB DUP2 DUP7 GAS STATICCALL ISZERO DUP1 ISZERO PUSH2 0xBCF JUMPI RETURNDATASIZE PUSH1 0x0 DUP1 RETURNDATACOPY RETURNDATASIZE PUSH1 0x0 REVERT JUMPDEST POP POP POP POP PUSH1 0x40 MLOAD RETURNDATASIZE PUSH1 0x1F NOT PUSH1 0x1F DUP3 ADD AND DUP3 ADD DUP1 PUSH1 0x40 MSTORE POP DUP2 ADD SWAP1 PUSH2 0xBF3 SWAP2 SWAP1 PUSH2 0x5C9B JUMP JUMPDEST PUSH1 0x40 MLOAD PUSH4 0x8B2F0F4F PUSH1 0xE0 SHL DUP2 MSTORE PUSH1 0x1 PUSH1 0x1 PUSH1 0xA0 SHL SUB PUSH32 0x0 DUP2 AND PUSH1 0x4 DUP4 ADD MSTORE SWAP2 SWAP1 SWAP2 AND SWAP1 PUSH4 0x8B2F0F4F SWAP1 PUSH1 0x24 ADD PUSH1 0x20 PUSH1 0x40 MLOAD DUP1 DUP4 SUB DUP2 DUP7 GAS STATICCALL ISZERO DUP1 ISZERO PUSH2 0xC5B JUMPI RETURNDATASIZE PUSH1 0x0 DUP1 RETURNDATACOPY RETURNDATASIZE PUSH1 0x0 REVERT JUMPDEST POP POP POP POP PUSH1 0x40 MLOAD RETURNDATASIZE PUSH1 0x1F NOT PUSH1 0x1F DUP3 ADD AND DUP3 ADD DUP1 PUSH1 0x40 MSTORE POP DUP2 ADD SWAP1 PUSH2 0xC7F SWAP2 SWAP1 PUSH2 0x5D10 JUMP JUMPDEST SWAP1 POP PUSH2 0xC8A DUP2 PUSH2 0x2FEA JUMP JUMPDEST SWAP4 POP SWAP4 POP SWAP4 POP POP SWAP1 SWAP2 SWAP3 JUMP JUMPDEST PUSH2 0xC9F DUP2 PUSH2 0x1F76 JUMP JUMPDEST PUSH2 0xCE4 JUMPI PUSH1 0x40 MLOAD PUSH3 0x461BCD PUSH1 0xE5 SHL DUP2 MSTORE PUSH1 0x20 PUSH1 0x4 DUP3 ADD MSTORE PUSH1 0x16 PUSH1 0x24 DUP3 ADD MSTORE PUSH22 0x1C1BDBDB081A5CC81B9BDD081C9959DA5CDD195C9959 PUSH1 0x52 SHL PUSH1 0x44 DUP3 ADD MSTORE PUSH1 0x64 ADD PUSH2 0x2E8 JUMP JUMPDEST PUSH2 0xCEF PUSH1 0xA DUP3 PUSH2 0x323C JUMP JUMPDEST PUSH1 0x0 SUB PUSH2 0xD36 JUMPI PUSH1 0x40 MLOAD PUSH3 0x461BCD PUSH1 0xE5 SHL DUP2 MSTORE PUSH1 0x20 PUSH1 0x4 DUP3 ADD MSTORE PUSH1 0x15 PUSH1 0x24 DUP3 ADD MSTORE PUSH21 0x706F6F6C2077656967687420616C7265616479203 PUSH1 0x5C SHL PUSH1 0x44 DUP3 ADD MSTORE PUSH1 0x64 ADD PUSH2 0x2E8 JUMP JUMPDEST PUSH1 0x0 PUSH32 0x0 PUSH1 0x1 PUSH1 0x1 PUSH1 0xA0 SHL SUB AND PUSH4 0x9F82B217 PUSH1 0x40 MLOAD DUP2 PUSH4 0xFFFFFFFF AND PUSH1 0xE0 SHL DUP2 MSTORE PUSH1 0x4 ADD PUSH1 0x20 PUSH1 0x40 MLOAD DUP1 DUP4 SUB DUP2 DUP7 GAS STATICCALL ISZERO DUP1 ISZERO PUSH2 0xD96 JUMPI RETURNDATASIZE PUSH1 0x0 DUP1 RETURNDATACOPY RETURNDATASIZE PUSH1 0x0 REVERT JUMPDEST POP POP POP POP PUSH1 0x40 MLOAD RETURNDATASIZE PUSH1 0x1F NOT PUSH1 0x1F DUP3 ADD AND DUP3 ADD DUP1 PUSH1 0x40 MSTORE POP DUP2 ADD SWAP1 PUSH2 0xDBA SWAP2 SWAP1 PUSH2 0x5C9B JUMP JUMPDEST PUSH1 0x40 MLOAD PUSH4 0x1DA958A9 PUSH1 0xE2 SHL DUP2 MSTORE PUSH1 0x1 PUSH1 0x1 PUSH1 0xA0 SHL SUB DUP5 DUP2 AND PUSH1 0x4 DUP4 ADD MSTORE SWAP2 SWAP1 SWAP2 AND SWAP1 PUSH4 0x76A562A4 SWAP1 PUSH1 0x24 ADD PUSH1 0x20 PUSH1 0x40 MLOAD DUP1 DUP4 SUB DUP2 DUP7 GAS STATICCALL ISZERO DUP1 ISZERO PUSH2 0xE02 JUMPI RETURNDATASIZE PUSH1 0x0 DUP1 RETURNDATACOPY RETURNDATASIZE PUSH1 0x0 REVERT JUMPDEST POP POP POP POP PUSH1 0x40 MLOAD RETURNDATASIZE PUSH1 0x1F NOT PUSH1 0x1F DUP3 ADD AND DUP3 ADD DUP1 PUSH1 0x40 MSTORE POP DUP2 ADD SWAP1 PUSH2 0xE26 SWAP2 SWAP1 PUSH2 0x5C9B JUMP JUMPDEST SWAP1 POP PUSH2 0xE31 DUP2 PUSH2 0x3251 JUMP JUMPDEST PUSH2 0xE74 JUMPI PUSH1 0x40 MLOAD PUSH3 0x461BCD PUSH1 0xE5 SHL DUP2 MSTORE PUSH1 0x20 PUSH1 0x4 DUP3 ADD MSTORE PUSH1 0x14 PUSH1 0x24 DUP3 ADD MSTORE PUSH20 0x1C1BDBDB081A5CC81B9BDD0819195C1959D9D959 PUSH1 0x62 SHL PUSH1 0x44 DUP3 ADD MSTORE PUSH1 0x64 ADD PUSH2 0x2E8 JUMP JUMPDEST PUSH2 0xE7D DUP3 PUSH2 0x3419 JUMP JUMPDEST PUSH1 0x7 DUP1 SLOAD PUSH1 0xFF NOT AND PUSH1 0x1 OR SWAP1 SSTORE PUSH1 0x40 MLOAD PUSH1 0x1 PUSH1 0x1 PUSH1 0xA0 SHL SUB DUP4 AND DUP2 MSTORE PUSH32 0x7D90518F39C7F92FD9046BBB246D9C650DD159F73CCA88AA7D919C89C040FA79 SWAP1 PUSH1 0x20 ADD PUSH1 0x40 MLOAD DUP1 SWAP2 SUB SWAP1 LOG1 POP POP JUMP JUMPDEST PUSH1 0x0 PUSH2 0x875 PUSH2 0xED7 PUSH2 0x2075 JUMP JUMPDEST PUSH2 0x35AB JUMP JUMPDEST PUSH1 0x0 PUSH2 0xEEA CALLER DUP6 DUP6 DUP6 PUSH2 0x12CF JUMP JUMPDEST SWAP1 POP JUMPDEST SWAP4 SWAP3 POP POP POP JUMP JUMPDEST PUSH1 0x40 MLOAD PUSH4 0x70A08231 PUSH1 0xE0 SHL DUP2 MSTORE CALLER PUSH1 0x4 DUP3 ADD MSTORE PUSH1 0x0 SWAP1 DUP4 SWAP1 PUSH1 0x1 PUSH1 0x1 PUSH1 0xA0 SHL SUB PUSH32 0x0 AND SWAP1 PUSH4 0x70A08231 SWAP1 PUSH1 0x24 ADD PUSH1 0x20 PUSH1 0x40 MLOAD DUP1 DUP4 SUB DUP2 DUP7 GAS STATICCALL ISZERO DUP1 ISZERO PUSH2 0xF5D JUMPI RETURNDATASIZE PUSH1 0x0 DUP1 RETURNDATACOPY RETURNDATASIZE PUSH1 0x0 REVERT JUMPDEST POP POP POP POP PUSH1 0x40 MLOAD RETURNDATASIZE PUSH1 0x1F NOT PUSH1 0x1F DUP3 ADD AND DUP3 ADD DUP1 PUSH1 0x40 MSTORE POP DUP2 ADD SWAP1 PUSH2 0xF81 SWAP2 SWAP1 PUSH2 0x5D10 JUMP JUMPDEST LT ISZERO PUSH2 0xFC6 JUMPI PUSH1 0x40 MLOAD PUSH3 0x461BCD PUSH1 0xE5 SHL DUP2 MSTORE PUSH1 0x20 PUSH1 0x4 DUP3 ADD MSTORE PUSH1 0x14 PUSH1 0x24 DUP3 ADD MSTORE PUSH20 0x696E73756666696369656E742062616C616E6365 PUSH1 0x60 SHL PUSH1 0x44 DUP3 ADD MSTORE PUSH1 0x64 ADD PUSH2 0x2E8 JUMP JUMPDEST PUSH1 0x40 MLOAD PUSH4 0x70A08231 PUSH1 0xE0 SHL DUP2 MSTORE ADDRESS PUSH1 0x4 DUP3 ADD MSTORE PUSH1 0x0 SWAP1 PUSH32 0x0 PUSH1 0x1 PUSH1 0x1 PUSH1 0xA0 SHL SUB AND SWAP1 PUSH4 0x70A08231 SWAP1 PUSH1 0x24 ADD PUSH1 0x20 PUSH1 0x40 MLOAD DUP1 DUP4 SUB DUP2 DUP7 GAS STATICCALL ISZERO DUP1 ISZERO PUSH2 0x102D JUMPI RETURNDATASIZE PUSH1 0x0 DUP1 RETURNDATACOPY RETURNDATASIZE PUSH1 0x0 REVERT JUMPDEST POP POP POP POP PUSH1 0x40 MLOAD RETURNDATASIZE PUSH1 0x1F NOT PUSH1 0x1F DUP3 ADD AND DUP3 ADD DUP1 PUSH1 0x40 MSTORE POP DUP2 ADD SWAP1 PUSH2 0x1051 SWAP2 SWAP1 PUSH2 0x5D10 JUMP JUMPDEST SWAP1 POP PUSH1 0x0 DUP1 PUSH1 0x0 PUSH2 0x1060 PUSH2 0xB6A JUMP JUMPDEST SWAP3 POP SWAP3 POP SWAP3 POP PUSH1 0x0 PUSH2 0x107B PUSH2 0x1074 DUP6 PUSH2 0x35AB JUMP JUMPDEST DUP10 SWAP1 PUSH2 0x3658 JUMP JUMPDEST SWAP1 POP DUP1 DUP6 LT ISZERO PUSH2 0x10A0 JUMPI PUSH1 0x0 PUSH2 0x1091 DUP7 DUP4 PUSH2 0x5D29 JUMP JUMPDEST SWAP1 POP PUSH2 0x109E DUP5 DUP5 DUP4 PUSH2 0x367A JUMP JUMPDEST POP JUMPDEST PUSH1 0x40 MLOAD PUSH4 0x70A08231 PUSH1 0xE0 SHL DUP2 MSTORE ADDRESS PUSH1 0x4 DUP3 ADD MSTORE PUSH1 0x0 SWAP1 PUSH2 0x1135 SWAP1 PUSH1 0x1 PUSH1 0x1 PUSH1 0xA0 SHL SUB PUSH32 0x0 AND SWAP1 PUSH4 0x70A08231 SWAP1 PUSH1 0x24 ADD PUSH1 0x20 PUSH1 0x40 MLOAD DUP1 DUP4 SUB DUP2 DUP7 GAS STATICCALL ISZERO DUP1 ISZERO PUSH2 0x110B JUMPI RETURNDATASIZE PUSH1 0x0 DUP1 RETURNDATACOPY RETURNDATASIZE PUSH1 0x0 REVERT JUMPDEST POP POP POP POP PUSH1 0x40 MLOAD RETURNDATASIZE PUSH1 0x1F NOT PUSH1 0x1F DUP3 ADD AND DUP3 ADD DUP1 PUSH1 0x40 MSTORE POP DUP2 ADD SWAP1 PUSH2 0x112F SWAP2 SWAP1 PUSH2 0x5D10 JUMP JUMPDEST DUP4 PUSH2 0x3716 JUMP JUMPDEST SWAP1 POP DUP8 DUP2 LT ISZERO PUSH2 0x117B JUMPI PUSH1 0x40 MLOAD PUSH3 0x461BCD PUSH1 0xE5 SHL DUP2 MSTORE PUSH1 0x20 PUSH1 0x4 DUP3 ADD MSTORE PUSH1 0x11 PUSH1 0x24 DUP3 ADD MSTORE PUSH17 0x746F6F206D75636820736C697070616765 PUSH1 0x78 SHL PUSH1 0x44 DUP3 ADD MSTORE PUSH1 0x64 ADD PUSH2 0x2E8 JUMP JUMPDEST PUSH1 0x40 MLOAD PUSH4 0x2770A7EB PUSH1 0xE2 SHL DUP2 MSTORE CALLER PUSH1 0x4 DUP3 ADD MSTORE PUSH1 0x24 DUP2 ADD DUP11 SWAP1 MSTORE PUSH32 0x0 PUSH1 0x1 PUSH1 0x1 PUSH1 0xA0 SHL SUB AND SWAP1 PUSH4 0x9DC29FAC SWAP1 PUSH1 0x44 ADD PUSH1 0x20 PUSH1 0x40 MLOAD DUP1 DUP4 SUB DUP2 PUSH1 0x0 DUP8 GAS CALL ISZERO DUP1 ISZERO PUSH2 0x11E8 JUMPI RETURNDATASIZE PUSH1 0x0 DUP1 RETURNDATACOPY RETURNDATASIZE PUSH1 0x0 REVERT JUMPDEST POP POP POP POP PUSH1 0x40 MLOAD RETURNDATASIZE PUSH1 0x1F NOT PUSH1 0x1F DUP3 ADD AND DUP3 ADD DUP1 PUSH1 0x40 MSTORE POP DUP2 ADD SWAP1 PUSH2 0x120C SWAP2 SWAP1 PUSH2 0x5D10 JUMP JUMPDEST POP PUSH2 0x1241 PUSH1 0x1 PUSH1 0x1 PUSH1 0xA0 SHL SUB PUSH32 0x0 AND CALLER DUP4 PUSH2 0x372C JUMP JUMPDEST PUSH2 0x124B DUP2 DUP7 PUSH2 0x5D29 JUMP JUMPDEST PUSH1 0x6 SSTORE TIMESTAMP PUSH1 0x5 SSTORE PUSH1 0x40 MLOAD DUP2 DUP2 MSTORE CALLER SWAP1 PUSH32 0x884EDAD9CE6FA2440D8A54CC123490EB96D2768479D49FF9C7366125A9424364 SWAP1 PUSH1 0x20 ADD PUSH1 0x40 MLOAD DUP1 SWAP2 SUB SWAP1 LOG2 PUSH2 0x128F PUSH2 0x375C JUMP JUMPDEST SWAP9 SWAP8 POP POP POP POP POP POP POP POP JUMP JUMPDEST PUSH1 0x0 DUP1 PUSH2 0x12A9 PUSH1 0xA DUP5 PUSH2 0x3872 JUMP JUMPDEST SWAP5 SWAP4 POP POP POP POP JUMP JUMPDEST PUSH1 0x0 PUSH2 0x12BC DUP3 PUSH2 0x388A JUMP JUMPDEST PUSH2 0x12C5 DUP4 PUSH2 0x39E5 JUMP JUMPDEST PUSH2 0x96D SWAP2 SWAP1 PUSH2 0x5CFD JUMP JUMPDEST PUSH1 0x0 PUSH2 0x1327 PUSH1 0x40 MLOAD DUP1 PUSH2 0x140 ADD PUSH1 0x40 MSTORE DUP1 PUSH1 0x0 DUP2 MSTORE PUSH1 0x20 ADD PUSH1 0x0 DUP2 MSTORE PUSH1 0x20 ADD PUSH1 0x0 DUP2 MSTORE PUSH1 0x20 ADD PUSH1 0x0 DUP2 MSTORE PUSH1 0x20 ADD PUSH1 0x0 DUP2 MSTORE PUSH1 0x20 ADD PUSH1 0x0 DUP2 MSTORE PUSH1 0x20 ADD PUSH1 0x60 DUP2 MSTORE PUSH1 0x20 ADD PUSH1 0x0 DUP2 MSTORE PUSH1 0x20 ADD PUSH1 0x0 DUP2 MSTORE PUSH1 0x20 ADD PUSH1 0x60 DUP2 MSTORE POP SWAP1 JUMP JUMPDEST PUSH1 0x3 SLOAD PUSH1 0xFF AND ISZERO PUSH2 0x136D JUMPI PUSH1 0x40 MLOAD PUSH3 0x461BCD PUSH1 0xE5 SHL DUP2 MSTORE PUSH1 0x20 PUSH1 0x4 DUP3 ADD MSTORE PUSH1 0x10 PUSH1 0x24 DUP3 ADD MSTORE PUSH16 0x3837B7B61034B99039B43ABA3237BBB7 PUSH1 0x81 SHL PUSH1 0x44 DUP3 ADD MSTORE PUSH1 0x64 ADD PUSH2 0x2E8 JUMP JUMPDEST PUSH1 0x0 DUP6 GT PUSH2 0x13BD JUMPI PUSH1 0x40 MLOAD PUSH3 0x461BCD PUSH1 0xE5 SHL DUP2 MSTORE PUSH1 0x20 PUSH1 0x4 DUP3 ADD MSTORE PUSH1 0x1D PUSH1 0x24 DUP3 ADD MSTORE PUSH32 0x6465706F73697420616D6F756E742063616E6E6F74206265207A65726F000000 PUSH1 0x44 DUP3 ADD MSTORE PUSH1 0x64 ADD PUSH2 0x2E8 JUMP JUMPDEST PUSH1 0x0 PUSH32 0x0 PUSH1 0x1 PUSH1 0x1 PUSH1 0xA0 SHL SUB AND PUSH4 0x2630C12F PUSH1 0x40 MLOAD DUP2 PUSH4 0xFFFFFFFF AND PUSH1 0xE0 SHL DUP2 MSTORE PUSH1 0x4 ADD PUSH1 0x20 PUSH1 0x40 MLOAD DUP1 DUP4 SUB DUP2 DUP7 GAS STATICCALL ISZERO DUP1 ISZERO PUSH2 0x141D JUMPI RETURNDATASIZE PUSH1 0x0 DUP1 RETURNDATACOPY RETURNDATASIZE PUSH1 0x0 REVERT JUMPDEST POP POP POP POP PUSH1 0x40 MLOAD RETURNDATASIZE PUSH1 0x1F NOT PUSH1 0x1F DUP3 ADD AND DUP3 ADD DUP1 PUSH1 0x40 MSTORE POP DUP2 ADD SWAP1 PUSH2 0x1441 SWAP2 SWAP1 PUSH2 0x5C9B JUMP JUMPDEST PUSH1 0x40 MLOAD PUSH4 0x8B2F0F4F PUSH1 0xE0 SHL DUP2 MSTORE PUSH1 0x1 PUSH1 0x1 PUSH1 0xA0 SHL SUB PUSH32 0x0 DUP2 AND PUSH1 0x4 DUP4 ADD MSTORE SWAP2 SWAP1 SWAP2 AND SWAP1 PUSH4 0x8B2F0F4F SWAP1 PUSH1 0x24 ADD PUSH1 0x20 PUSH1 0x40 MLOAD DUP1 DUP4 SUB DUP2 DUP7 GAS STATICCALL ISZERO DUP1 ISZERO PUSH2 0x14A9 JUMPI RETURNDATASIZE PUSH1 0x0 DUP1 RETURNDATACOPY RETURNDATASIZE PUSH1 0x0 REVERT JUMPDEST POP POP POP POP PUSH1 0x40 MLOAD RETURNDATASIZE PUSH1 0x1F NOT PUSH1 0x1F DUP3 ADD AND DUP3 ADD DUP1 PUSH1 0x40 MSTORE POP DUP2 ADD SWAP1 PUSH2 0x14CD SWAP2 SWAP1 PUSH2 0x5D10 JUMP JUMPDEST SWAP1 POP PUSH2 0x14D8 DUP2 PUSH2 0x2FEA JUMP JUMPDEST PUSH1 0xC0 DUP6 ADD MSTORE PUSH1 0xA0 DUP5 ADD MSTORE PUSH1 0x80 DUP4 ADD DUP2 SWAP1 MSTORE PUSH2 0x14F2 SWAP1 PUSH2 0x35AB JUMP JUMPDEST DUP3 MSTORE PUSH2 0x1529 PUSH1 0x1 PUSH1 0x1 PUSH1 0xA0 SHL SUB PUSH32 0x0 AND CALLER ADDRESS DUP10 PUSH2 0x3A99 JUMP JUMPDEST PUSH1 0xA0 DUP3 ADD MLOAD PUSH1 0xC0 DUP4 ADD MLOAD PUSH1 0x40 MLOAD PUSH4 0x70A08231 PUSH1 0xE0 SHL DUP2 MSTORE ADDRESS PUSH1 0x4 DUP3 ADD MSTORE PUSH2 0x15C6 SWAP3 SWAP2 SWAP1 PUSH1 0x1 PUSH1 0x1 PUSH1 0xA0 SHL SUB PUSH32 0x0 AND SWAP1 PUSH4 0x70A08231 SWAP1 PUSH1 0x24 ADD PUSH1 0x20 PUSH1 0x40 MLOAD DUP1 DUP4 SUB DUP2 DUP7 GAS STATICCALL ISZERO DUP1 ISZERO PUSH2 0x159D JUMPI RETURNDATASIZE PUSH1 0x0 DUP1 RETURNDATACOPY RETURNDATASIZE PUSH1 0x0 REVERT JUMPDEST POP POP POP POP PUSH1 0x40 MLOAD RETURNDATASIZE PUSH1 0x1F NOT PUSH1 0x1F DUP3 ADD AND DUP3 ADD DUP1 PUSH1 0x40 MSTORE POP DUP2 ADD SWAP1 PUSH2 0x15C1 SWAP2 SWAP1 PUSH2 0x5D10 JUMP JUMPDEST PUSH2 0x3AD7 JUMP JUMPDEST PUSH2 0x15CF DUP2 PUSH2 0x2FEA JUMP JUMPDEST PUSH2 0x120 DUP6 ADD MSTORE PUSH2 0x100 DUP5 ADD MSTORE PUSH1 0xE0 DUP4 ADD DUP2 SWAP1 MSTORE PUSH1 0x80 DUP4 ADD MLOAD PUSH2 0x15F0 SWAP2 PUSH2 0x5D29 JUMP JUMPDEST PUSH1 0x20 DUP4 ADD DUP2 SWAP1 MSTORE PUSH2 0x1602 SWAP1 DUP8 SWAP1 PUSH2 0x3716 JUMP JUMPDEST PUSH1 0x40 DUP4 ADD DUP2 SWAP1 MSTORE DUP3 MLOAD PUSH2 0x1615 SWAP2 SWAP1 PUSH2 0x3B88 JUMP JUMPDEST PUSH1 0x60 DUP4 ADD DUP2 SWAP1 MSTORE DUP6 GT ISZERO PUSH2 0x165F JUMPI PUSH1 0x40 MLOAD PUSH3 0x461BCD PUSH1 0xE5 SHL DUP2 MSTORE PUSH1 0x20 PUSH1 0x4 DUP3 ADD MSTORE PUSH1 0x11 PUSH1 0x24 DUP3 ADD MSTORE PUSH17 0x746F6F206D75636820736C697070616765 PUSH1 0x78 SHL PUSH1 0x44 DUP3 ADD MSTORE PUSH1 0x64 ADD PUSH2 0x2E8 JUMP JUMPDEST DUP4 ISZERO PUSH2 0x1839 JUMPI PUSH1 0x60 DUP3 ADD MLOAD PUSH1 0x40 MLOAD PUSH4 0x40C10F19 PUSH1 0xE0 SHL DUP2 MSTORE ADDRESS PUSH1 0x4 DUP3 ADD MSTORE PUSH1 0x24 DUP2 ADD SWAP2 SWAP1 SWAP2 MSTORE PUSH32 0x0 PUSH1 0x1 PUSH1 0x1 PUSH1 0xA0 SHL SUB AND SWAP1 PUSH4 0x40C10F19 SWAP1 PUSH1 0x44 ADD PUSH1 0x20 PUSH1 0x40 MLOAD DUP1 DUP4 SUB DUP2 PUSH1 0x0 DUP8 GAS CALL ISZERO DUP1 ISZERO PUSH2 0x16D8 JUMPI RETURNDATASIZE PUSH1 0x0 DUP1 RETURNDATACOPY RETURNDATASIZE PUSH1 0x0 REVERT JUMPDEST POP POP POP POP PUSH1 0x40 MLOAD RETURNDATASIZE PUSH1 0x1F NOT PUSH1 0x1F DUP3 ADD AND DUP3 ADD DUP1 PUSH1 0x40 MSTORE POP DUP2 ADD SWAP1 PUSH2 0x16FC SWAP2 SWAP1 PUSH2 0x5D10 JUMP JUMPDEST POP PUSH1 0x0 PUSH32 0x0 PUSH1 0x1 PUSH1 0x1 PUSH1 0xA0 SHL SUB AND PUSH4 0x48439E7E PUSH1 0x40 MLOAD DUP2 PUSH4 0xFFFFFFFF AND PUSH1 0xE0 SHL DUP2 MSTORE PUSH1 0x4 ADD PUSH1 0x20 PUSH1 0x40 MLOAD DUP1 DUP4 SUB DUP2 DUP7 GAS STATICCALL ISZERO DUP1 ISZERO PUSH2 0x175D JUMPI RETURNDATASIZE PUSH1 0x0 DUP1 RETURNDATACOPY RETURNDATASIZE PUSH1 0x0 REVERT JUMPDEST POP POP POP POP PUSH1 0x40 MLOAD RETURNDATASIZE PUSH1 0x1F NOT PUSH1 0x1F DUP3 ADD AND DUP3 ADD DUP1 PUSH1 0x40 MSTORE POP DUP2 ADD SWAP1 PUSH2 0x1781 SWAP2 SWAP1 PUSH2 0x5C9B JUMP JUMPDEST SWAP1 POP PUSH2 0x17C5 DUP2 DUP5 PUSH1 0x60 ADD MLOAD PUSH32 0x0 PUSH1 0x1 PUSH1 0x1 PUSH1 0xA0 SHL SUB AND PUSH2 0x2E0C SWAP1 SWAP3 SWAP2 SWAP1 PUSH4 0xFFFFFFFF AND JUMP JUMPDEST PUSH1 0x60 DUP4 ADD MLOAD PUSH1 0x40 MLOAD PUSH4 0x33F1C337 PUSH1 0xE0 SHL DUP2 MSTORE PUSH1 0x4 DUP2 ADD SWAP2 SWAP1 SWAP2 MSTORE ADDRESS PUSH1 0x24 DUP3 ADD MSTORE PUSH1 0x1 PUSH1 0x1 PUSH1 0xA0 SHL SUB DUP10 DUP2 AND PUSH1 0x44 DUP4 ADD MSTORE DUP3 AND SWAP1 PUSH4 0x33F1C337 SWAP1 PUSH1 0x64 ADD PUSH1 0x0 PUSH1 0x40 MLOAD DUP1 DUP4 SUB DUP2 PUSH1 0x0 DUP8 DUP1 EXTCODESIZE ISZERO DUP1 ISZERO PUSH2 0x181B JUMPI PUSH1 0x0 DUP1 REVERT JUMPDEST POP GAS CALL ISZERO DUP1 ISZERO PUSH2 0x182F JUMPI RETURNDATASIZE PUSH1 0x0 DUP1 RETURNDATACOPY RETURNDATASIZE PUSH1 0x0 REVERT JUMPDEST POP POP POP POP POP PUSH2 0x18D6 JUMP JUMPDEST PUSH1 0x60 DUP3 ADD MLOAD PUSH1 0x40 MLOAD PUSH4 0x40C10F19 PUSH1 0xE0 SHL DUP2 MSTORE PUSH1 0x1 PUSH1 0x1 PUSH1 0xA0 SHL SUB DUP10 DUP2 AND PUSH1 0x4 DUP4 ADD MSTORE PUSH1 0x24 DUP3 ADD SWAP3 SWAP1 SWAP3 MSTORE PUSH32 0x0 SWAP1 SWAP2 AND SWAP1 PUSH4 0x40C10F19 SWAP1 PUSH1 0x44 ADD PUSH1 0x20 PUSH1 0x40 MLOAD DUP1 DUP4 SUB DUP2 PUSH1 0x0 DUP8 GAS CALL ISZERO DUP1 ISZERO PUSH2 0x18B0 JUMPI RETURNDATASIZE PUSH1 0x0 DUP1 RETURNDATACOPY RETURNDATASIZE PUSH1 0x0 REVERT JUMPDEST POP POP POP POP PUSH1 0x40 MLOAD RETURNDATASIZE PUSH1 0x1F NOT PUSH1 0x1F DUP3 ADD AND DUP3 ADD DUP1 PUSH1 0x40 MSTORE POP DUP2 ADD SWAP1 PUSH2 0x18D4 SWAP2 SWAP1 PUSH2 0x5D10 JUMP JUMPDEST POP JUMPDEST PUSH2 0x18F5 DUP8 DUP4 PUSH1 0xA0 ADD MLOAD DUP5 PUSH1 0xC0 ADD MLOAD DUP6 PUSH2 0x100 ADD MLOAD DUP7 PUSH2 0x120 ADD MLOAD PUSH2 0x3BA1 JUMP JUMPDEST PUSH1 0xE0 DUP3 ADD MLOAD PUSH1 0x6 SSTORE TIMESTAMP PUSH1 0x5 SSTORE PUSH1 0x60 DUP3 ADD MLOAD PUSH1 0x40 DUP1 MLOAD DUP9 DUP2 MSTORE PUSH1 0x20 DUP2 ADD SWAP3 SWAP1 SWAP3 MSTORE PUSH1 0x1 PUSH1 0x1 PUSH1 0xA0 SHL SUB DUP10 AND SWAP2 CALLER SWAP2 PUSH32 0xDCBC1C05240F31FF3AD067EF1EE35CE4997762752E3A095284754544F4C709D7 SWAP2 ADD PUSH1 0x40 MLOAD DUP1 SWAP2 SUB SWAP1 LOG3 PUSH2 0x1955 PUSH2 0x375C JUMP JUMPDEST POP PUSH1 0x60 ADD MLOAD SWAP6 SWAP5 POP POP POP POP POP JUMP JUMPDEST PUSH1 0x60 PUSH2 0x875 PUSH1 0x8 PUSH2 0x3CD9 JUMP JUMPDEST PUSH2 0x1977 PUSH2 0x2F90 JUMP JUMPDEST PUSH2 0x1981 PUSH1 0x0 PUSH2 0x3CE6 JUMP JUMPDEST JUMP JUMPDEST PUSH1 0x0 DUP1 PUSH1 0x0 PUSH2 0x1990 PUSH2 0xB6A JUMP JUMPDEST SWAP3 POP SWAP3 POP POP PUSH2 0x199F DUP3 DUP3 PUSH2 0x3D36 JUMP JUMPDEST SWAP3 POP POP POP SWAP1 JUMP JUMPDEST PUSH1 0x60 PUSH1 0x0 PUSH2 0x19B4 PUSH1 0x8 PUSH2 0x2F68 JUMP JUMPDEST PUSH8 0xFFFFFFFFFFFFFFFF DUP2 GT ISZERO PUSH2 0x19CC JUMPI PUSH2 0x19CC PUSH2 0x5B60 JUMP JUMPDEST PUSH1 0x40 MLOAD SWAP1 DUP1 DUP3 MSTORE DUP1 PUSH1 0x20 MUL PUSH1 0x20 ADD DUP3 ADD PUSH1 0x40 MSTORE DUP1 ISZERO PUSH2 0x1A11 JUMPI DUP2 PUSH1 0x20 ADD JUMPDEST PUSH1 0x40 DUP1 MLOAD DUP1 DUP3 ADD SWAP1 SWAP2 MSTORE PUSH1 0x0 DUP1 DUP3 MSTORE PUSH1 0x20 DUP3 ADD MSTORE DUP2 MSTORE PUSH1 0x20 ADD SWAP1 PUSH1 0x1 SWAP1 SUB SWAP1 DUP2 PUSH2 0x19EA JUMPI SWAP1 POP JUMPDEST POP SWAP1 POP PUSH1 0x0 PUSH2 0x1A1E PUSH2 0xB6A JUMP JUMPDEST SWAP3 POP POP POP PUSH1 0x0 JUMPDEST DUP3 MLOAD DUP2 LT ISZERO PUSH2 0x1A9F JUMPI PUSH1 0x40 DUP1 MLOAD DUP1 DUP3 ADD SWAP1 SWAP2 MSTORE DUP1 PUSH2 0x1A44 PUSH1 0x8 DUP5 PUSH2 0x3DC2 JUMP JUMPDEST PUSH1 0x1 PUSH1 0x1 PUSH1 0xA0 SHL SUB AND DUP2 MSTORE PUSH1 0x20 ADD DUP4 DUP4 DUP2 MLOAD DUP2 LT PUSH2 0x1A64 JUMPI PUSH2 0x1A64 PUSH2 0x5CB8 JUMP JUMPDEST PUSH1 0x20 MUL PUSH1 0x20 ADD ADD MLOAD DUP2 MSTORE POP DUP4 DUP3 DUP2 MLOAD DUP2 LT PUSH2 0x1A81 JUMPI PUSH2 0x1A81 PUSH2 0x5CB8 JUMP JUMPDEST PUSH1 0x20 MUL PUSH1 0x20 ADD ADD DUP2 SWAP1 MSTORE POP DUP1 DUP1 PUSH2 0x1A97 SWAP1 PUSH2 0x5CE4 JUMP JUMPDEST SWAP2 POP POP PUSH2 0x1A25 JUMP JUMPDEST POP SWAP1 SWAP3 SWAP2 POP POP JUMP JUMPDEST CALLER PUSH1 0x1 PUSH1 0x1 PUSH1 0xA0 SHL SUB PUSH32 0x0 AND EQ PUSH2 0x1B10 JUMPI PUSH1 0x40 MLOAD PUSH3 0x461BCD PUSH1 0xE5 SHL DUP2 MSTORE PUSH1 0x20 PUSH1 0x4 DUP3 ADD MSTORE PUSH1 0xE PUSH1 0x24 DUP3 ADD MSTORE PUSH14 0x1B9BDD08185D5D1A1BDC9A5E9959 PUSH1 0x92 SHL PUSH1 0x44 DUP3 ADD MSTORE PUSH1 0x64 ADD PUSH2 0x2E8 JUMP JUMPDEST PUSH2 0x1B1A PUSH1 0x8 PUSH2 0x2F68 JUMP JUMPDEST DUP2 MLOAD EQ PUSH2 0x1B60 JUMPI PUSH1 0x40 MLOAD PUSH3 0x461BCD PUSH1 0xE5 SHL DUP2 MSTORE PUSH1 0x20 PUSH1 0x4 DUP3 ADD MSTORE PUSH1 0x14 PUSH1 0x24 DUP3 ADD MSTORE PUSH20 0x696E76616C696420706F6F6C2077656967687473 PUSH1 0x60 SHL PUSH1 0x44 DUP3 ADD MSTORE PUSH1 0x64 ADD PUSH2 0x2E8 JUMP JUMPDEST PUSH1 0x0 DUP1 JUMPDEST DUP3 MLOAD DUP2 LT ISZERO PUSH2 0x1C7A JUMPI PUSH1 0x0 DUP4 DUP3 DUP2 MLOAD DUP2 LT PUSH2 0x1B81 JUMPI PUSH2 0x1B81 PUSH2 0x5CB8 JUMP JUMPDEST PUSH1 0x20 MUL PUSH1 0x20 ADD ADD MLOAD PUSH1 0x0 ADD MLOAD SWAP1 POP PUSH2 0x1B98 DUP2 PUSH2 0x1F76 JUMP JUMPDEST PUSH2 0x1BDD JUMPI PUSH1 0x40 MLOAD PUSH3 0x461BCD PUSH1 0xE5 SHL DUP2 MSTORE PUSH1 0x20 PUSH1 0x4 DUP3 ADD MSTORE PUSH1 0x16 PUSH1 0x24 DUP3 ADD MSTORE PUSH22 0x1C1BDBDB081A5CC81B9BDD081C9959DA5CDD195C9959 PUSH1 0x52 SHL PUSH1 0x44 DUP3 ADD MSTORE PUSH1 0x64 ADD PUSH2 0x2E8 JUMP JUMPDEST PUSH1 0x0 DUP5 DUP4 DUP2 MLOAD DUP2 LT PUSH2 0x1BF1 JUMPI PUSH2 0x1BF1 PUSH2 0x5CB8 JUMP JUMPDEST PUSH1 0x20 MUL PUSH1 0x20 ADD ADD MLOAD PUSH1 0x20 ADD MLOAD SWAP1 POP PUSH2 0x1C15 DUP3 DUP3 PUSH1 0xA PUSH2 0x3DCE SWAP1 SWAP3 SWAP2 SWAP1 PUSH4 0xFFFFFFFF AND JUMP JUMPDEST POP DUP2 PUSH1 0x1 PUSH1 0x1 PUSH1 0xA0 SHL SUB AND PUSH32 0x49175C3467EDEBA7662E939BF84305EAF5084072855B0560F6AC3E145CD172AE DUP3 PUSH1 0x40 MLOAD PUSH2 0x1C51 SWAP2 DUP2 MSTORE PUSH1 0x20 ADD SWAP1 JUMP JUMPDEST PUSH1 0x40 MLOAD DUP1 SWAP2 SUB SWAP1 LOG2 PUSH2 0x1C63 DUP2 DUP6 PUSH2 0x5CFD JUMP JUMPDEST SWAP4 POP POP POP DUP1 DUP1 PUSH2 0x1C72 SWAP1 PUSH2 0x5CE4 JUMP JUMPDEST SWAP2 POP POP PUSH2 0x1B64 JUMP JUMPDEST POP PUSH2 0x1C87 PUSH1 0x12 PUSH1 0xA PUSH2 0x5E18 JUMP JUMPDEST DUP2 EQ PUSH2 0x1CD5 JUMPI PUSH1 0x40 MLOAD PUSH3 0x461BCD PUSH1 0xE5 SHL DUP2 MSTORE PUSH1 0x20 PUSH1 0x4 DUP3 ADD MSTORE PUSH1 0x17 PUSH1 0x24 DUP3 ADD MSTORE PUSH32 0x7765696768747320646F206E6F742073756D20746F2031000000000000000000 PUSH1 0x44 DUP3 ADD MSTORE PUSH1 0x64 ADD PUSH2 0x2E8 JUMP JUMPDEST PUSH1 0x0 DUP1 PUSH1 0x0 PUSH2 0x1CE2 PUSH2 0xB6A JUMP JUMPDEST SWAP3 POP SWAP3 POP SWAP3 POP PUSH1 0x0 PUSH2 0x1CF4 DUP5 DUP4 PUSH2 0x3D36 JUMP JUMPDEST PUSH1 0xD DUP2 SWAP1 SSTORE SWAP1 POP PUSH2 0x1D05 DUP3 DUP5 PUSH2 0x3DE4 JUMP JUMPDEST PUSH1 0x7 DUP1 SLOAD PUSH1 0xFF NOT AND SWAP2 ISZERO SWAP2 SWAP1 SWAP2 OR SWAP1 SSTORE PUSH2 0x1D1D PUSH2 0x4087 JUMP JUMPDEST POP POP POP POP POP POP JUMP JUMPDEST PUSH2 0x1D2E DUP2 PUSH2 0x1F76 JUMP JUMPDEST PUSH2 0x1D7A JUMPI PUSH1 0x40 MLOAD PUSH3 0x461BCD PUSH1 0xE5 SHL DUP2 MSTORE PUSH1 0x20 PUSH1 0x4 DUP3 ADD MSTORE PUSH1 0x19 PUSH1 0x24 DUP3 ADD MSTORE PUSH32 0x637572766520706F6F6C206E6F74207265676973746572656400000000000000 PUSH1 0x44 DUP3 ADD MSTORE PUSH1 0x64 ADD PUSH2 0x2E8 JUMP JUMPDEST PUSH1 0x0 PUSH32 0x0 PUSH1 0x1 PUSH1 0x1 PUSH1 0xA0 SHL SUB AND PUSH4 0x9F82B217 PUSH1 0x40 MLOAD DUP2 PUSH4 0xFFFFFFFF AND PUSH1 0xE0 SHL DUP2 MSTORE PUSH1 0x4 ADD PUSH1 0x20 PUSH1 0x40 MLOAD DUP1 DUP4 SUB DUP2 DUP7 GAS STATICCALL ISZERO DUP1 ISZERO PUSH2 0x1DDA JUMPI RETURNDATASIZE PUSH1 0x0 DUP1 RETURNDATACOPY RETURNDATASIZE PUSH1 0x0 REVERT JUMPDEST POP POP POP POP PUSH1 0x40 MLOAD RETURNDATASIZE PUSH1 0x1F NOT PUSH1 0x1F DUP3 ADD AND DUP3 ADD DUP1 PUSH1 0x40 MSTORE POP DUP2 ADD SWAP1 PUSH2 0x1DFE SWAP2 SWAP1 PUSH2 0x5C9B JUMP JUMPDEST PUSH1 0x40 MLOAD PUSH4 0x43B55F35 PUSH1 0xE0 SHL DUP2 MSTORE PUSH1 0x1 PUSH1 0x1 PUSH1 0xA0 SHL SUB DUP5 DUP2 AND PUSH1 0x4 DUP4 ADD MSTORE SWAP2 SWAP3 POP PUSH1 0x0 SWAP2 DUP4 AND SWAP1 PUSH4 0x43B55F35 SWAP1 PUSH1 0x24 ADD PUSH1 0x20 PUSH1 0x40 MLOAD DUP1 DUP4 SUB DUP2 DUP7 GAS STATICCALL ISZERO DUP1 ISZERO PUSH2 0x1E4A JUMPI RETURNDATASIZE PUSH1 0x0 DUP1 RETURNDATACOPY RETURNDATASIZE PUSH1 0x0 REVERT JUMPDEST POP POP POP POP PUSH1 0x40 MLOAD RETURNDATASIZE PUSH1 0x1F NOT PUSH1 0x1F DUP3 ADD AND DUP3 ADD DUP1 PUSH1 0x40 MSTORE POP DUP2 ADD SWAP1 PUSH2 0x1E6E SWAP2 SWAP1 PUSH2 0x5D10 JUMP JUMPDEST PUSH1 0x40 MLOAD PUSH4 0x1CEC69E5 PUSH1 0xE1 SHL DUP2 MSTORE PUSH1 0x4 DUP2 ADD DUP3 SWAP1 MSTORE SWAP1 SWAP2 POP PUSH1 0x1 PUSH1 0x1 PUSH1 0xA0 SHL SUB DUP4 AND SWAP1 PUSH4 0x39D8D3CA SWAP1 PUSH1 0x24 ADD PUSH1 0x20 PUSH1 0x40 MLOAD DUP1 DUP4 SUB DUP2 DUP7 GAS STATICCALL ISZERO DUP1 ISZERO PUSH2 0x1EB6 JUMPI RETURNDATASIZE PUSH1 0x0 DUP1 RETURNDATACOPY RETURNDATASIZE PUSH1 0x0 REVERT JUMPDEST POP POP POP POP PUSH1 0x40 MLOAD RETURNDATASIZE PUSH1 0x1F NOT PUSH1 0x1F DUP3 ADD AND DUP3 ADD DUP1 PUSH1 0x40 MSTORE POP DUP2 ADD SWAP1 PUSH2 0x1EDA SWAP2 SWAP1 PUSH2 0x5E24 JUMP JUMPDEST PUSH2 0x1F26 JUMPI PUSH1 0x40 MLOAD PUSH3 0x461BCD PUSH1 0xE5 SHL DUP2 MSTORE PUSH1 0x20 PUSH1 0x4 DUP3 ADD MSTORE PUSH1 0x1B PUSH1 0x24 DUP3 ADD MSTORE PUSH32 0x636F6E76657820706F6F6C207069642069732073687574646F776E0000000000 PUSH1 0x44 DUP3 ADD MSTORE PUSH1 0x64 ADD PUSH2 0x2E8 JUMP JUMPDEST PUSH2 0x1F2F DUP4 PUSH2 0x3419 JUMP JUMPDEST PUSH1 0x40 DUP1 MLOAD PUSH1 0x1 PUSH1 0x1 PUSH1 0xA0 SHL SUB DUP6 AND DUP2 MSTORE PUSH1 0x20 DUP2 ADD DUP4 SWAP1 MSTORE PUSH32 0xB6E3324444A482D3E4041851D767063381C41CD9ABC8A3191A0B61E3896F9443 SWAP2 ADD PUSH1 0x40 MLOAD DUP1 SWAP2 SUB SWAP1 LOG1 POP POP POP JUMP JUMPDEST PUSH1 0x0 PUSH2 0x96D PUSH1 0x8 DUP4 PUSH2 0x4349 JUMP JUMPDEST PUSH1 0x0 PUSH2 0x96D PUSH1 0xA DUP4 PUSH2 0x323C JUMP JUMPDEST PUSH2 0x1F98 PUSH2 0x2F90 JUMP JUMPDEST DUP1 PUSH1 0x2 SLOAD SUB PUSH2 0x1FDB JUMPI PUSH1 0x40 MLOAD PUSH3 0x461BCD PUSH1 0xE5 SHL DUP2 MSTORE PUSH1 0x20 PUSH1 0x4 DUP3 ADD MSTORE PUSH1 0xF PUSH1 0x24 DUP3 ADD MSTORE PUSH15 0x1CD85B5948185CC818DD5C9C995B9D PUSH1 0x8A SHL PUSH1 0x44 DUP3 ADD MSTORE PUSH1 0x64 ADD PUSH2 0x2E8 JUMP JUMPDEST PUSH8 0x2C68AF0BB140000 DUP2 GT ISZERO PUSH2 0x2033 JUMPI PUSH1 0x40 MLOAD PUSH3 0x461BCD PUSH1 0xE5 SHL DUP2 MSTORE PUSH1 0x20 PUSH1 0x4 DUP3 ADD MSTORE PUSH1 0x19 PUSH1 0x24 DUP3 ADD MSTORE PUSH32 0x726174696F206578636565647320757070657220626F756E6400000000000000 PUSH1 0x44 DUP3 ADD MSTORE PUSH1 0x64 ADD PUSH2 0x2E8 JUMP JUMPDEST PUSH1 0x2 DUP2 SWAP1 SSTORE PUSH1 0x40 MLOAD DUP2 DUP2 MSTORE PUSH32 0xCF75D305993755A06325155BDFF6A203FF5EB28A3561E219588AEB6ABA8B3B54 SWAP1 PUSH1 0x20 ADD PUSH2 0xB5F JUMP JUMPDEST PUSH1 0x0 PUSH2 0x96D PUSH1 0x8 DUP4 PUSH2 0x3DC2 JUMP JUMPDEST PUSH1 0x0 DUP1 PUSH2 0x2080 PUSH2 0xB6A JUMP JUMPDEST POP SWAP1 SWAP4 SWAP3 POP POP POP JUMP JUMPDEST PUSH1 0x0 DUP1 PUSH1 0x0 PUSH2 0x2096 PUSH2 0xB6A JUMP JUMPDEST SWAP3 POP SWAP3 POP POP PUSH2 0x199F DUP2 DUP4 PUSH2 0x3DE4 JUMP JUMPDEST PUSH1 0x0 DUP1 PUSH32 0x0 PUSH1 0x1 PUSH1 0x1 PUSH1 0xA0 SHL SUB AND PUSH4 0x2630C12F PUSH1 0x40 MLOAD DUP2 PUSH4 0xFFFFFFFF AND PUSH1 0xE0 SHL DUP2 MSTORE PUSH1 0x4 ADD PUSH1 0x20 PUSH1 0x40 MLOAD DUP1 DUP4 SUB DUP2 DUP7 GAS STATICCALL ISZERO DUP1 ISZERO PUSH2 0x2106 JUMPI RETURNDATASIZE PUSH1 0x0 DUP1 RETURNDATACOPY RETURNDATASIZE PUSH1 0x0 REVERT JUMPDEST POP POP POP POP PUSH1 0x40 MLOAD RETURNDATASIZE PUSH1 0x1F NOT PUSH1 0x1F DUP3 ADD AND DUP3 ADD DUP1 PUSH1 0x40 MSTORE POP DUP2 ADD SWAP1 PUSH2 0x212A SWAP2 SWAP1 PUSH2 0x5C9B JUMP JUMPDEST PUSH1 0x40 MLOAD PUSH4 0x8B2F0F4F PUSH1 0xE0 SHL DUP2 MSTORE PUSH1 0x1 PUSH1 0x1 PUSH1 0xA0 SHL SUB PUSH32 0x0 DUP2 AND PUSH1 0x4 DUP4 ADD MSTORE SWAP2 SWAP1 SWAP2 AND SWAP1 PUSH4 0x8B2F0F4F SWAP1 PUSH1 0x24 ADD PUSH1 0x20 PUSH1 0x40 MLOAD DUP1 DUP4 SUB DUP2 DUP7 GAS STATICCALL ISZERO DUP1 ISZERO PUSH2 0x2192 JUMPI RETURNDATASIZE PUSH1 0x0 DUP1 RETURNDATACOPY RETURNDATASIZE PUSH1 0x0 REVERT JUMPDEST POP POP POP POP PUSH1 0x40 MLOAD RETURNDATASIZE PUSH1 0x1F NOT PUSH1 0x1F DUP3 ADD AND DUP3 ADD DUP1 PUSH1 0x40 MSTORE POP DUP2 ADD SWAP1 PUSH2 0x21B6 SWAP2 SWAP1 PUSH2 0x5D10 JUMP JUMPDEST SWAP1 POP PUSH2 0x21CD DUP2 PUSH2 0x21C7 PUSH1 0x6 SLOAD PUSH2 0x35AB JUMP JUMPDEST SWAP1 PUSH2 0x3658 JUMP JUMPDEST SWAP2 POP POP SWAP1 JUMP JUMPDEST CALLER PUSH1 0x1 PUSH1 0x1 PUSH1 0xA0 SHL SUB PUSH32 0x0 AND EQ PUSH2 0x223C JUMPI PUSH1 0x40 MLOAD PUSH3 0x461BCD PUSH1 0xE5 SHL DUP2 MSTORE PUSH1 0x20 PUSH1 0x4 DUP3 ADD MSTORE PUSH1 0xE PUSH1 0x24 DUP3 ADD MSTORE PUSH14 0x1B9BDD08185D5D1A1BDC9A5E9959 PUSH1 0x92 SHL PUSH1 0x44 DUP3 ADD MSTORE PUSH1 0x64 ADD PUSH2 0x2E8 JUMP JUMPDEST PUSH1 0x3 SLOAD PUSH1 0xFF AND ISZERO PUSH2 0x2287 JUMPI PUSH1 0x40 MLOAD PUSH3 0x461BCD PUSH1 0xE5 SHL DUP2 MSTORE PUSH1 0x20 PUSH1 0x4 DUP3 ADD MSTORE PUSH1 0x15 PUSH1 0x24 DUP3 ADD MSTORE PUSH21 0x3837B7B61030B63932B0B23C9039B43ABA3237BBB7 PUSH1 0x59 SHL PUSH1 0x44 DUP3 ADD MSTORE PUSH1 0x64 ADD PUSH2 0x2E8 JUMP JUMPDEST PUSH1 0x3 DUP1 SLOAD PUSH1 0xFF NOT AND PUSH1 0x1 OR SWAP1 SSTORE PUSH1 0x40 MLOAD PUSH32 0x4426AA1FB73E391071491FCFE21A88B5C38A0A0333A1F6E77161470439704CF8 SWAP1 PUSH1 0x0 SWAP1 LOG1 JUMP JUMPDEST PUSH2 0x22C7 PUSH2 0x2F90 JUMP JUMPDEST PUSH2 0x22D2 PUSH1 0x8 DUP3 PUSH2 0x4349 JUMP JUMPDEST PUSH2 0x230F JUMPI PUSH1 0x40 MLOAD PUSH3 0x461BCD PUSH1 0xE5 SHL DUP2 MSTORE PUSH1 0x20 PUSH1 0x4 DUP3 ADD MSTORE PUSH1 0xE PUSH1 0x24 DUP3 ADD MSTORE PUSH14 0x1C1BDBDB081B9BDD081859191959 PUSH1 0x92 SHL PUSH1 0x44 DUP3 ADD MSTORE PUSH1 0x64 ADD PUSH2 0x2E8 JUMP JUMPDEST PUSH1 0x1 PUSH2 0x231B PUSH1 0x8 PUSH2 0x2F68 JUMP JUMPDEST GT PUSH2 0x2368 JUMPI PUSH1 0x40 MLOAD PUSH3 0x461BCD PUSH1 0xE5 SHL DUP2 MSTORE PUSH1 0x20 PUSH1 0x4 DUP3 ADD MSTORE PUSH1 0x17 PUSH1 0x24 DUP3 ADD MSTORE PUSH32 0x63616E6E6F742072656D6F7665206C61737420706F6F6C000000000000000000 PUSH1 0x44 DUP3 ADD MSTORE PUSH1 0x64 ADD PUSH2 0x2E8 JUMP JUMPDEST PUSH1 0x0 PUSH32 0x0 PUSH1 0x1 PUSH1 0x1 PUSH1 0xA0 SHL SUB AND PUSH4 0x9F82B217 PUSH1 0x40 MLOAD DUP2 PUSH4 0xFFFFFFFF AND PUSH1 0xE0 SHL DUP2 MSTORE PUSH1 0x4 ADD PUSH1 0x20 PUSH1 0x40 MLOAD DUP1 DUP4 SUB DUP2 DUP7 GAS STATICCALL ISZERO DUP1 ISZERO PUSH2 0x23C8 JUMPI RETURNDATASIZE PUSH1 0x0 DUP1 RETURNDATACOPY RETURNDATASIZE PUSH1 0x0 REVERT JUMPDEST POP POP POP POP PUSH1 0x40 MLOAD RETURNDATASIZE PUSH1 0x1F NOT PUSH1 0x1F DUP3 ADD AND DUP3 ADD DUP1 PUSH1 0x40 MSTORE POP DUP2 ADD SWAP1 PUSH2 0x23EC SWAP2 SWAP1 PUSH2 0x5C9B JUMP JUMPDEST PUSH1 0x40 MLOAD PUSH4 0x1DA958A9 PUSH1 0xE2 SHL DUP2 MSTORE PUSH1 0x1 PUSH1 0x1 PUSH1 0xA0 SHL SUB DUP5 DUP2 AND PUSH1 0x4 DUP4 ADD MSTORE SWAP2 SWAP1 SWAP2 AND SWAP1 PUSH4 0x76A562A4 SWAP1 PUSH1 0x24 ADD PUSH1 0x20 PUSH1 0x40 MLOAD DUP1 DUP4 SUB DUP2 DUP7 GAS STATICCALL ISZERO DUP1 ISZERO PUSH2 0x2434 JUMPI RETURNDATASIZE PUSH1 0x0 DUP1 RETURNDATACOPY RETURNDATASIZE PUSH1 0x0 REVERT JUMPDEST POP POP POP POP PUSH1 0x40 MLOAD RETURNDATASIZE PUSH1 0x1F NOT PUSH1 0x1F DUP3 ADD AND DUP3 ADD DUP1 PUSH1 0x40 MSTORE POP DUP2 ADD SWAP1 PUSH2 0x2458 SWAP2 SWAP1 PUSH2 0x5C9B JUMP JUMPDEST SWAP1 POP PUSH1 0x0 PUSH32 0x0 PUSH1 0x1 PUSH1 0x1 PUSH1 0xA0 SHL SUB AND PUSH4 0x2630C12F PUSH1 0x40 MLOAD DUP2 PUSH4 0xFFFFFFFF AND PUSH1 0xE0 SHL DUP2 MSTORE PUSH1 0x4 ADD PUSH1 0x20 PUSH1 0x40 MLOAD DUP1 DUP4 SUB DUP2 DUP7 GAS STATICCALL ISZERO DUP1 ISZERO PUSH2 0x24BA JUMPI RETURNDATASIZE PUSH1 0x0 DUP1 RETURNDATACOPY RETURNDATASIZE PUSH1 0x0 REVERT JUMPDEST POP POP POP POP PUSH1 0x40 MLOAD RETURNDATASIZE PUSH1 0x1F NOT PUSH1 0x1F DUP3 ADD AND DUP3 ADD DUP1 PUSH1 0x40 MSTORE POP DUP2 ADD SWAP1 PUSH2 0x24DE SWAP2 SWAP1 PUSH2 0x5C9B JUMP JUMPDEST PUSH1 0x40 MLOAD PUSH4 0x8B2F0F4F PUSH1 0xE0 SHL DUP2 MSTORE PUSH1 0x1 PUSH1 0x1 PUSH1 0xA0 SHL SUB DUP5 DUP2 AND PUSH1 0x4 DUP4 ADD MSTORE SWAP2 SWAP1 SWAP2 AND SWAP1 PUSH4 0x8B2F0F4F SWAP1 PUSH1 0x24 ADD PUSH1 0x20 PUSH1 0x40 MLOAD DUP1 DUP4 SUB DUP2 DUP7 GAS STATICCALL ISZERO DUP1 ISZERO PUSH2 0x2526 JUMPI RETURNDATASIZE PUSH1 0x0 DUP1 RETURNDATACOPY RETURNDATASIZE PUSH1 0x0 REVERT JUMPDEST POP POP POP POP PUSH1 0x40 MLOAD RETURNDATASIZE PUSH1 0x1F NOT PUSH1 0x1F DUP3 ADD AND DUP3 ADD DUP1 PUSH1 0x40 MSTORE POP DUP2 ADD SWAP1 PUSH2 0x254A SWAP2 SWAP1 PUSH2 0x5D10 JUMP JUMPDEST SWAP1 POP PUSH1 0x0 PUSH2 0x255B DUP3 PUSH2 0x21C7 DUP7 PUSH2 0x12B1 JUMP JUMPDEST SWAP1 POP PUSH9 0x56BC75E2D63100000 DUP2 LT PUSH2 0x25B5 JUMPI PUSH1 0x40 MLOAD PUSH3 0x461BCD PUSH1 0xE5 SHL DUP2 MSTORE PUSH1 0x20 PUSH1 0x4 DUP3 ADD MSTORE PUSH1 0x18 PUSH1 0x24 DUP3 ADD MSTORE PUSH32 0x706F6F6C2068617320616C6C6F63617465642066756E64730000000000000000 PUSH1 0x44 DUP3 ADD MSTORE PUSH1 0x64 ADD PUSH2 0x2E8 JUMP JUMPDEST PUSH1 0x0 PUSH2 0x25C2 PUSH1 0xA DUP7 PUSH2 0x323C JUMP JUMPDEST SWAP1 POP PUSH2 0x265B PUSH32 0x0 PUSH1 0x1 PUSH1 0x1 PUSH1 0xA0 SHL SUB AND PUSH4 0x2CDACB50 PUSH1 0x40 MLOAD DUP2 PUSH4 0xFFFFFFFF AND PUSH1 0xE0 SHL DUP2 MSTORE PUSH1 0x4 ADD PUSH1 0x20 PUSH1 0x40 MLOAD DUP1 DUP4 SUB DUP2 DUP7 GAS STATICCALL ISZERO DUP1 ISZERO PUSH2 0x2625 JUMPI RETURNDATASIZE PUSH1 0x0 DUP1 RETURNDATACOPY RETURNDATASIZE PUSH1 0x0 REVERT JUMPDEST POP POP POP POP PUSH1 0x40 MLOAD RETURNDATASIZE PUSH1 0x1F NOT PUSH1 0x1F DUP3 ADD AND DUP3 ADD DUP1 PUSH1 0x40 MSTORE POP DUP2 ADD SWAP1 PUSH2 0x2649 SWAP2 SWAP1 PUSH2 0x5C9B JUMP JUMPDEST PUSH1 0x1 PUSH1 0x1 PUSH1 0xA0 SHL SUB DUP7 AND SWAP1 PUSH1 0x0 PUSH2 0x2E0C JUMP JUMPDEST DUP1 ISZERO PUSH2 0x269F JUMPI PUSH1 0x40 MLOAD PUSH3 0x461BCD PUSH1 0xE5 SHL DUP2 MSTORE PUSH1 0x20 PUSH1 0x4 DUP3 ADD MSTORE PUSH1 0x13 PUSH1 0x24 DUP3 ADD MSTORE PUSH19 0x1C1BDBDB081A185CC81DD95A59DA1D081CD95D PUSH1 0x6A SHL PUSH1 0x44 DUP3 ADD MSTORE PUSH1 0x64 ADD PUSH2 0x2E8 JUMP JUMPDEST PUSH2 0x26AA PUSH1 0x8 DUP7 PUSH2 0x436B JUMP JUMPDEST PUSH2 0x26E9 JUMPI PUSH1 0x40 MLOAD PUSH3 0x461BCD PUSH1 0xE5 SHL DUP2 MSTORE PUSH1 0x20 PUSH1 0x4 DUP3 ADD MSTORE PUSH1 0x10 PUSH1 0x24 DUP3 ADD MSTORE PUSH16 0x1C1BDBDB081B9BDD081C995B5BDD9959 PUSH1 0x82 SHL PUSH1 0x44 DUP3 ADD MSTORE PUSH1 0x64 ADD PUSH2 0x2E8 JUMP JUMPDEST PUSH2 0x26F4 PUSH1 0xA DUP7 PUSH2 0x4380 JUMP JUMPDEST PUSH2 0x2735 JUMPI PUSH1 0x40 MLOAD PUSH3 0x461BCD PUSH1 0xE5 SHL DUP2 MSTORE PUSH1 0x20 PUSH1 0x4 DUP3 ADD MSTORE PUSH1 0x12 PUSH1 0x24 DUP3 ADD MSTORE PUSH18 0x1DD95A59DA1D081B9BDD081C995B5BDD9959 PUSH1 0x72 SHL PUSH1 0x44 DUP3 ADD MSTORE PUSH1 0x64 ADD PUSH2 0x2E8 JUMP JUMPDEST PUSH1 0x40 MLOAD PUSH1 0x1 PUSH1 0x1 PUSH1 0xA0 SHL SUB DUP7 AND DUP2 MSTORE PUSH32 0xCA2456580E344539A90D4D0369FC77866A3135141E2E51621B88D2F010C6BBE2 SWAP1 PUSH1 0x20 ADD JUMPDEST PUSH1 0x40 MLOAD DUP1 SWAP2 SUB SWAP1 LOG1 POP POP POP POP POP JUMP JUMPDEST PUSH2 0x2781 PUSH2 0x2F90 JUMP JUMPDEST DUP1 PUSH1 0x1 SLOAD SUB PUSH2 0x27C4 JUMPI PUSH1 0x40 MLOAD PUSH3 0x461BCD PUSH1 0xE5 SHL DUP2 MSTORE PUSH1 0x20 PUSH1 0x4 DUP3 ADD MSTORE PUSH1 0xF PUSH1 0x24 DUP3 ADD MSTORE PUSH15 0x1CD85B5948185CC818DD5C9C995B9D PUSH1 0x8A SHL PUSH1 0x44 DUP3 ADD MSTORE PUSH1 0x64 ADD PUSH2 0x2E8 JUMP JUMPDEST PUSH8 0x2C68AF0BB140000 DUP2 GT ISZERO PUSH2 0x281C JUMPI PUSH1 0x40 MLOAD PUSH3 0x461BCD PUSH1 0xE5 SHL DUP2 MSTORE PUSH1 0x20 PUSH1 0x4 DUP3 ADD MSTORE PUSH1 0x1D PUSH1 0x24 DUP3 ADD MSTORE PUSH32 0x646576696174696F6E206578636565647320757070657220626F756E64000000 PUSH1 0x44 DUP3 ADD MSTORE PUSH1 0x64 ADD PUSH2 0x2E8 JUMP JUMPDEST PUSH1 0x1 DUP2 SWAP1 SSTORE PUSH1 0x40 MLOAD DUP2 DUP2 MSTORE PUSH32 0x3F9EF5ED5D378EF819698E4B3C710D362F981F90087B428B7A1EE1E716D689D5 SWAP1 PUSH1 0x20 ADD PUSH2 0xB5F JUMP JUMPDEST PUSH1 0x0 DUP1 PUSH1 0x0 PUSH2 0x285E PUSH2 0xB6A JUMP JUMPDEST SWAP3 POP SWAP3 POP POP DUP2 PUSH1 0x0 SUB PUSH2 0x2874 JUMPI PUSH1 0x0 SWAP3 POP POP POP SWAP1 JUMP JUMPDEST PUSH1 0x0 PUSH2 0x2880 DUP4 DUP4 PUSH2 0x3D36 JUMP JUMPDEST SWAP1 POP PUSH2 0x288C DUP2 DUP5 PUSH2 0x3B88 JUMP JUMPDEST SWAP4 POP POP POP POP SWAP1 JUMP JUMPDEST PUSH1 0x0 PUSH2 0x96A CALLER DUP5 DUP5 PUSH1 0x1 PUSH2 0x12CF JUMP JUMPDEST PUSH2 0x28AB PUSH2 0x2F90 JUMP JUMPDEST PUSH1 0x1 PUSH1 0x1 PUSH1 0xA0 SHL SUB DUP2 AND PUSH2 0x2910 JUMPI PUSH1 0x40 MLOAD PUSH3 0x461BCD PUSH1 0xE5 SHL DUP2 MSTORE PUSH1 0x20 PUSH1 0x4 DUP3 ADD MSTORE PUSH1 0x26 PUSH1 0x24 DUP3 ADD MSTORE PUSH32 0x4F776E61626C653A206E6577206F776E657220697320746865207A65726F2061 PUSH1 0x44 DUP3 ADD MSTORE PUSH6 0x646472657373 PUSH1 0xD0 SHL PUSH1 0x64 DUP3 ADD MSTORE PUSH1 0x84 ADD PUSH2 0x2E8 JUMP JUMPDEST PUSH2 0x2919 DUP2 PUSH2 0x3CE6 JUMP JUMPDEST POP JUMP JUMPDEST PUSH2 0x2924 PUSH2 0x2F90 JUMP JUMPDEST PUSH2 0x292F PUSH1 0x8 DUP3 PUSH2 0x4349 JUMP JUMPDEST ISZERO PUSH2 0x2971 JUMPI PUSH1 0x40 MLOAD PUSH3 0x461BCD PUSH1 0xE5 SHL DUP2 MSTORE PUSH1 0x20 PUSH1 0x4 DUP3 ADD MSTORE PUSH1 0x12 PUSH1 0x24 DUP3 ADD MSTORE PUSH18 0x1C1BDBDB08185B1C9958591E481859191959 PUSH1 0x72 SHL PUSH1 0x44 DUP3 ADD MSTORE PUSH1 0x64 ADD PUSH2 0x2E8 JUMP JUMPDEST PUSH1 0x0 PUSH32 0x0 PUSH1 0x1 PUSH1 0x1 PUSH1 0xA0 SHL SUB AND PUSH4 0x9F82B217 PUSH1 0x40 MLOAD DUP2 PUSH4 0xFFFFFFFF AND PUSH1 0xE0 SHL DUP2 MSTORE PUSH1 0x4 ADD PUSH1 0x20 PUSH1 0x40 MLOAD DUP1 DUP4 SUB DUP2 DUP7 GAS STATICCALL ISZERO DUP1 ISZERO PUSH2 0x29D1 JUMPI RETURNDATASIZE PUSH1 0x0 DUP1 RETURNDATACOPY RETURNDATASIZE PUSH1 0x0 REVERT JUMPDEST POP POP POP POP PUSH1 0x40 MLOAD RETURNDATASIZE PUSH1 0x1F NOT PUSH1 0x1F DUP3 ADD AND DUP3 ADD DUP1 PUSH1 0x40 MSTORE POP DUP2 ADD SWAP1 PUSH2 0x29F5 SWAP2 SWAP1 PUSH2 0x5C9B JUMP JUMPDEST PUSH1 0x40 MLOAD PUSH4 0xF7D372F1 PUSH1 0xE0 SHL DUP2 MSTORE PUSH1 0x1 PUSH1 0x1 PUSH1 0xA0 SHL SUB DUP5 DUP2 AND PUSH1 0x4 DUP4 ADD MSTORE SWAP2 SWAP3 POP SWAP1 DUP3 AND SWAP1 PUSH4 0xF7D372F1 SWAP1 PUSH1 0x24 ADD PUSH1 0x0 PUSH1 0x40 MLOAD DUP1 DUP4 SUB DUP2 PUSH1 0x0 DUP8 DUP1 EXTCODESIZE ISZERO DUP1 ISZERO PUSH2 0x2A3C JUMPI PUSH1 0x0 DUP1 REVERT JUMPDEST POP GAS CALL ISZERO DUP1 ISZERO PUSH2 0x2A50 JUMPI RETURNDATASIZE PUSH1 0x0 DUP1 RETURNDATACOPY RETURNDATASIZE PUSH1 0x0 REVERT JUMPDEST POP POP PUSH1 0x40 MLOAD PUSH4 0xEFFD7081 PUSH1 0xE0 SHL DUP2 MSTORE PUSH1 0x1 PUSH1 0x1 PUSH1 0xA0 SHL SUB DUP6 DUP2 AND PUSH1 0x4 DUP4 ADD MSTORE PUSH32 0x0 DUP2 AND PUSH1 0x24 DUP4 ADD MSTORE PUSH1 0x0 SWAP4 POP DUP5 AND SWAP2 POP PUSH4 0xEFFD7081 SWAP1 PUSH1 0x44 ADD PUSH1 0x20 PUSH1 0x40 MLOAD DUP1 DUP4 SUB DUP2 DUP7 GAS STATICCALL ISZERO DUP1 ISZERO PUSH2 0x2AC5 JUMPI RETURNDATASIZE PUSH1 0x0 DUP1 RETURNDATACOPY RETURNDATASIZE PUSH1 0x0 REVERT JUMPDEST POP POP POP POP PUSH1 0x40 MLOAD RETURNDATASIZE PUSH1 0x1F NOT PUSH1 0x1F DUP3 ADD AND DUP3 ADD DUP1 PUSH1 0x40 MSTORE POP DUP2 ADD SWAP1 PUSH2 0x2AE9 SWAP2 SWAP1 PUSH2 0x5E24 JUMP JUMPDEST SWAP1 POP DUP1 PUSH2 0x2B2B JUMPI PUSH1 0x40 MLOAD PUSH3 0x461BCD PUSH1 0xE5 SHL DUP2 MSTORE PUSH1 0x20 PUSH1 0x4 DUP3 ADD MSTORE PUSH1 0x10 PUSH1 0x24 DUP3 ADD MSTORE PUSH16 0x18DBDA5B881B9BDD081A5B881C1BDBDB PUSH1 0x82 SHL PUSH1 0x44 DUP3 ADD MSTORE PUSH1 0x64 ADD PUSH2 0x2E8 JUMP JUMPDEST PUSH1 0x40 MLOAD PUSH4 0x1DA958A9 PUSH1 0xE2 SHL DUP2 MSTORE PUSH1 0x1 PUSH1 0x1 PUSH1 0xA0 SHL SUB DUP5 DUP2 AND PUSH1 0x4 DUP4 ADD MSTORE PUSH1 0x0 SWAP2 SWAP1 DUP5 AND SWAP1 PUSH4 0x76A562A4 SWAP1 PUSH1 0x24 ADD PUSH1 0x20 PUSH1 0x40 MLOAD DUP1 DUP4 SUB DUP2 DUP7 GAS STATICCALL ISZERO DUP1 ISZERO PUSH2 0x2B75 JUMPI RETURNDATASIZE PUSH1 0x0 DUP1 RETURNDATACOPY RETURNDATASIZE PUSH1 0x0 REVERT JUMPDEST POP POP POP POP PUSH1 0x40 MLOAD RETURNDATASIZE PUSH1 0x1F NOT PUSH1 0x1F DUP3 ADD AND DUP3 ADD DUP1 PUSH1 0x40 MSTORE POP DUP2 ADD SWAP1 PUSH2 0x2B99 SWAP2 SWAP1 PUSH2 0x5C9B JUMP JUMPDEST SWAP1 POP PUSH32 0x0 PUSH1 0x1 PUSH1 0x1 PUSH1 0xA0 SHL SUB AND PUSH4 0x2630C12F PUSH1 0x40 MLOAD DUP2 PUSH4 0xFFFFFFFF AND PUSH1 0xE0 SHL DUP2 MSTORE PUSH1 0x4 ADD PUSH1 0x20 PUSH1 0x40 MLOAD DUP1 DUP4 SUB DUP2 DUP7 GAS STATICCALL ISZERO DUP1 ISZERO PUSH2 0x2BF9 JUMPI RETURNDATASIZE PUSH1 0x0 DUP1 RETURNDATACOPY RETURNDATASIZE PUSH1 0x0 REVERT JUMPDEST POP POP POP POP PUSH1 0x40 MLOAD RETURNDATASIZE PUSH1 0x1F NOT PUSH1 0x1F DUP3 ADD AND DUP3 ADD DUP1 PUSH1 0x40 MSTORE POP DUP2 ADD SWAP1 PUSH2 0x2C1D SWAP2 SWAP1 PUSH2 0x5C9B JUMP JUMPDEST PUSH1 0x40 MLOAD PUSH4 0x75151B63 PUSH1 0xE0 SHL DUP2 MSTORE PUSH1 0x1 PUSH1 0x1 PUSH1 0xA0 SHL SUB DUP4 DUP2 AND PUSH1 0x4 DUP4 ADD MSTORE SWAP2 SWAP1 SWAP2 AND SWAP1 PUSH4 0x75151B63 SWAP1 PUSH1 0x24 ADD PUSH1 0x20 PUSH1 0x40 MLOAD DUP1 DUP4 SUB DUP2 DUP7 GAS STATICCALL ISZERO DUP1 ISZERO PUSH2 0x2C65 JUMPI RETURNDATASIZE PUSH1 0x0 DUP1 RETURNDATACOPY RETURNDATASIZE PUSH1 0x0 REVERT JUMPDEST POP POP POP POP PUSH1 0x40 MLOAD RETURNDATASIZE PUSH1 0x1F NOT PUSH1 0x1F DUP3 ADD AND DUP3 ADD DUP1 PUSH1 0x40 MSTORE POP DUP2 ADD SWAP1 PUSH2 0x2C89 SWAP2 SWAP1 PUSH2 0x5E24 JUMP JUMPDEST PUSH2 0x2CCD JUMPI PUSH1 0x40 MLOAD PUSH3 0x461BCD PUSH1 0xE5 SHL DUP2 MSTORE PUSH1 0x20 PUSH1 0x4 DUP3 ADD MSTORE PUSH1 0x15 PUSH1 0x24 DUP3 ADD MSTORE PUSH21 0x31B0B73737BA10383934B1B2902628102A37B5B2B7 PUSH1 0x59 SHL PUSH1 0x44 DUP3 ADD MSTORE PUSH1 0x64 ADD PUSH2 0x2E8 JUMP JUMPDEST PUSH1 0x0 PUSH32 0x0 PUSH1 0x1 PUSH1 0x1 PUSH1 0xA0 SHL SUB AND PUSH4 0x2CDACB50 PUSH1 0x40 MLOAD DUP2 PUSH4 0xFFFFFFFF AND PUSH1 0xE0 SHL DUP2 MSTORE PUSH1 0x4 ADD PUSH1 0x20 PUSH1 0x40 MLOAD DUP1 DUP4 SUB DUP2 DUP7 GAS STATICCALL ISZERO DUP1 ISZERO PUSH2 0x2D2D JUMPI RETURNDATASIZE PUSH1 0x0 DUP1 RETURNDATACOPY RETURNDATASIZE PUSH1 0x0 REVERT JUMPDEST POP POP POP POP PUSH1 0x40 MLOAD RETURNDATASIZE PUSH1 0x1F NOT PUSH1 0x1F DUP3 ADD AND DUP3 ADD DUP1 PUSH1 0x40 MSTORE POP DUP2 ADD SWAP1 PUSH2 0x2D51 SWAP2 SWAP1 PUSH2 0x5C9B JUMP JUMPDEST SWAP1 POP PUSH2 0x2D69 PUSH1 0x1 PUSH1 0x1 PUSH1 0xA0 SHL SUB DUP4 AND DUP3 PUSH1 0x0 NOT PUSH2 0x2E0C JUMP JUMPDEST PUSH2 0x2D74 PUSH1 0xA DUP7 PUSH2 0x4395 JUMP JUMPDEST PUSH2 0x2D87 JUMPI PUSH2 0x2D85 PUSH1 0xA DUP7 PUSH1 0x0 PUSH2 0x3DCE JUMP JUMPDEST POP JUMPDEST PUSH2 0x2D92 PUSH1 0x8 DUP7 PUSH2 0x43AA JUMP JUMPDEST PUSH2 0x2DD3 JUMPI PUSH1 0x40 MLOAD PUSH3 0x461BCD PUSH1 0xE5 SHL DUP2 MSTORE PUSH1 0x20 PUSH1 0x4 DUP3 ADD MSTORE PUSH1 0x12 PUSH1 0x24 DUP3 ADD MSTORE PUSH18 0x19985A5B1959081D1BC8185919081C1BDBDB PUSH1 0x72 SHL PUSH1 0x44 DUP3 ADD MSTORE PUSH1 0x64 ADD PUSH2 0x2E8 JUMP JUMPDEST PUSH1 0x40 MLOAD PUSH1 0x1 PUSH1 0x1 PUSH1 0xA0 SHL SUB DUP7 AND DUP2 MSTORE PUSH32 0xBADAD752E47B51D72487F7881B9BAA7C0ED207B8D84F37C0E23EB0A6D67E5B15 SWAP1 PUSH1 0x20 ADD PUSH2 0x276A JUMP JUMPDEST DUP1 ISZERO DUP1 PUSH2 0x2E86 JUMPI POP PUSH1 0x40 MLOAD PUSH4 0x6EB1769F PUSH1 0xE1 SHL DUP2 MSTORE ADDRESS PUSH1 0x4 DUP3 ADD MSTORE PUSH1 0x1 PUSH1 0x1 PUSH1 0xA0 SHL SUB DUP4 DUP2 AND PUSH1 0x24 DUP4 ADD MSTORE DUP5 AND SWAP1 PUSH4 0xDD62ED3E SWAP1 PUSH1 0x44 ADD PUSH1 0x20 PUSH1 0x40 MLOAD DUP1 DUP4 SUB DUP2 DUP7 GAS STATICCALL ISZERO DUP1 ISZERO PUSH2 0x2E60 JUMPI RETURNDATASIZE PUSH1 0x0 DUP1 RETURNDATACOPY RETURNDATASIZE PUSH1 0x0 REVERT JUMPDEST POP POP POP POP PUSH1 0x40 MLOAD RETURNDATASIZE PUSH1 0x1F NOT PUSH1 0x1F DUP3 ADD AND DUP3 ADD DUP1 PUSH1 0x40 MSTORE POP DUP2 ADD SWAP1 PUSH2 0x2E84 SWAP2 SWAP1 PUSH2 0x5D10 JUMP JUMPDEST ISZERO JUMPDEST PUSH2 0x2EF1 JUMPI PUSH1 0x40 MLOAD PUSH3 0x461BCD PUSH1 0xE5 SHL DUP2 MSTORE PUSH1 0x20 PUSH1 0x4 DUP3 ADD MSTORE PUSH1 0x36 PUSH1 0x24 DUP3 ADD MSTORE PUSH32 0x5361666545524332303A20617070726F76652066726F6D206E6F6E2D7A65726F PUSH1 0x44 DUP3 ADD MSTORE PUSH22 0x20746F206E6F6E2D7A65726F20616C6C6F77616E6365 PUSH1 0x50 SHL PUSH1 0x64 DUP3 ADD MSTORE PUSH1 0x84 ADD PUSH2 0x2E8 JUMP JUMPDEST PUSH1 0x40 MLOAD PUSH1 0x1 PUSH1 0x1 PUSH1 0xA0 SHL SUB DUP4 AND PUSH1 0x24 DUP3 ADD MSTORE PUSH1 0x44 DUP2 ADD DUP3 SWAP1 MSTORE PUSH2 0x2F54 SWAP1 DUP5 SWAP1 PUSH4 0x95EA7B3 PUSH1 0xE0 SHL SWAP1 PUSH1 0x64 ADD JUMPDEST PUSH1 0x40 DUP1 MLOAD PUSH1 0x1F NOT DUP2 DUP5 SUB ADD DUP2 MSTORE SWAP2 SWAP1 MSTORE PUSH1 0x20 DUP2 ADD DUP1 MLOAD PUSH1 0x1 PUSH1 0x1 PUSH1 0xE0 SHL SUB AND PUSH1 0x1 PUSH1 0x1 PUSH1 0xE0 SHL SUB NOT SWAP1 SWAP4 AND SWAP3 SWAP1 SWAP3 OR SWAP1 SWAP2 MSTORE PUSH2 0x43BF JUMP JUMPDEST POP POP POP JUMP JUMPDEST PUSH1 0x60 PUSH2 0xEEA DUP5 DUP5 PUSH1 0x0 DUP6 PUSH2 0x4491 JUMP JUMPDEST PUSH1 0x0 PUSH2 0x96D DUP3 SLOAD SWAP1 JUMP JUMPDEST PUSH1 0x0 DUP1 DUP1 DUP1 PUSH2 0x2F81 DUP7 DUP7 PUSH2 0x456C JUMP JUMPDEST SWAP1 SWAP5 POP SWAP3 POP POP POP JUMPDEST SWAP3 POP SWAP3 SWAP1 POP JUMP JUMPDEST PUSH1 0x0 SLOAD PUSH1 0x1 PUSH1 0x1 PUSH1 0xA0 SHL SUB AND CALLER EQ PUSH2 0x1981 JUMPI PUSH1 0x40 MLOAD PUSH3 0x461BCD PUSH1 0xE5 SHL DUP2 MSTORE PUSH1 0x20 PUSH1 0x4 DUP3 ADD DUP2 SWAP1 MSTORE PUSH1 0x24 DUP3 ADD MSTORE PUSH32 0x4F776E61626C653A2063616C6C6572206973206E6F7420746865206F776E6572 PUSH1 0x44 DUP3 ADD MSTORE PUSH1 0x64 ADD PUSH2 0x2E8 JUMP JUMPDEST PUSH1 0x0 DUP1 PUSH1 0x60 PUSH1 0x0 PUSH2 0x2FFB PUSH1 0x8 PUSH2 0x2F68 JUMP JUMPDEST SWAP1 POP DUP1 PUSH8 0xFFFFFFFFFFFFFFFF DUP2 GT ISZERO PUSH2 0x3016 JUMPI PUSH2 0x3016 PUSH2 0x5B60 JUMP JUMPDEST PUSH1 0x40 MLOAD SWAP1 DUP1 DUP3 MSTORE DUP1 PUSH1 0x20 MUL PUSH1 0x20 ADD DUP3 ADD PUSH1 0x40 MSTORE DUP1 ISZERO PUSH2 0x303F JUMPI DUP2 PUSH1 0x20 ADD PUSH1 0x20 DUP3 MUL DUP1 CALLDATASIZE DUP4 CALLDATACOPY ADD SWAP1 POP JUMPDEST POP SWAP2 POP PUSH1 0x0 JUMPDEST DUP2 DUP2 LT ISZERO PUSH2 0x319F JUMPI PUSH1 0x0 PUSH2 0x305A PUSH1 0x8 DUP4 PUSH2 0x3DC2 JUMP JUMPDEST SWAP1 POP PUSH1 0x0 PUSH2 0x315E PUSH32 0x0 PUSH1 0x1 PUSH1 0x1 PUSH1 0xA0 SHL SUB AND PUSH4 0x9F82B217 PUSH1 0x40 MLOAD DUP2 PUSH4 0xFFFFFFFF AND PUSH1 0xE0 SHL DUP2 MSTORE PUSH1 0x4 ADD PUSH1 0x20 PUSH1 0x40 MLOAD DUP1 DUP4 SUB DUP2 DUP7 GAS STATICCALL ISZERO DUP1 ISZERO PUSH2 0x30BF JUMPI RETURNDATASIZE PUSH1 0x0 DUP1 RETURNDATACOPY RETURNDATASIZE PUSH1 0x0 REVERT JUMPDEST POP POP POP POP PUSH1 0x40 MLOAD RETURNDATASIZE PUSH1 0x1F NOT PUSH1 0x1F DUP3 ADD AND DUP3 ADD DUP1 PUSH1 0x40 MSTORE POP DUP2 ADD SWAP1 PUSH2 0x30E3 SWAP2 SWAP1 PUSH2 0x5C9B JUMP JUMPDEST PUSH1 0x40 MLOAD PUSH4 0x1DA958A9 PUSH1 0xE2 SHL DUP2 MSTORE PUSH1 0x1 PUSH1 0x1 PUSH1 0xA0 SHL SUB DUP6 DUP2 AND PUSH1 0x4 DUP4 ADD MSTORE SWAP2 SWAP1 SWAP2 AND SWAP1 PUSH4 0x76A562A4 SWAP1 PUSH1 0x24 ADD PUSH1 0x20 PUSH1 0x40 MLOAD DUP1 DUP4 SUB DUP2 DUP7 GAS STATICCALL ISZERO DUP1 ISZERO PUSH2 0x312B JUMPI RETURNDATASIZE PUSH1 0x0 DUP1 RETURNDATACOPY RETURNDATASIZE PUSH1 0x0 REVERT JUMPDEST POP POP POP POP PUSH1 0x40 MLOAD RETURNDATASIZE PUSH1 0x1F NOT PUSH1 0x1F DUP3 ADD AND DUP3 ADD DUP1 PUSH1 0x40 MSTORE POP DUP2 ADD SWAP1 PUSH2 0x314F SWAP2 SWAP1 PUSH2 0x5C9B JUMP JUMPDEST PUSH2 0x3158 DUP5 PUSH2 0x12B1 JUMP JUMPDEST DUP11 PUSH2 0x4597 JUMP JUMPDEST SWAP1 POP DUP1 DUP6 DUP5 DUP2 MLOAD DUP2 LT PUSH2 0x3173 JUMPI PUSH2 0x3173 PUSH2 0x5CB8 JUMP JUMPDEST PUSH1 0x20 SWAP1 DUP2 MUL SWAP2 SWAP1 SWAP2 ADD ADD MSTORE PUSH2 0x3188 DUP2 DUP8 PUSH2 0x5CFD JUMP JUMPDEST SWAP6 POP POP POP DUP1 DUP1 PUSH2 0x3197 SWAP1 PUSH2 0x5CE4 JUMP JUMPDEST SWAP2 POP POP PUSH2 0x3045 JUMP JUMPDEST POP PUSH1 0x40 MLOAD PUSH4 0x70A08231 PUSH1 0xE0 SHL DUP2 MSTORE ADDRESS PUSH1 0x4 DUP3 ADD MSTORE PUSH32 0x0 PUSH1 0x1 PUSH1 0x1 PUSH1 0xA0 SHL SUB AND SWAP1 PUSH4 0x70A08231 SWAP1 PUSH1 0x24 ADD PUSH1 0x20 PUSH1 0x40 MLOAD DUP1 DUP4 SUB DUP2 DUP7 GAS STATICCALL ISZERO DUP1 ISZERO PUSH2 0x3204 JUMPI RETURNDATASIZE PUSH1 0x0 DUP1 RETURNDATACOPY RETURNDATASIZE PUSH1 0x0 REVERT JUMPDEST POP POP POP POP PUSH1 0x40 MLOAD RETURNDATASIZE PUSH1 0x1F NOT PUSH1 0x1F DUP3 ADD AND DUP3 ADD DUP1 PUSH1 0x40 MSTORE POP DUP2 ADD SWAP1 PUSH2 0x3228 SWAP2 SWAP1 PUSH2 0x5D10 JUMP JUMPDEST PUSH2 0x3232 SWAP1 DUP5 PUSH2 0x5CFD JUMP JUMPDEST SWAP4 POP POP SWAP2 SWAP4 SWAP1 SWAP3 POP JUMP JUMPDEST PUSH1 0x0 PUSH2 0x96A DUP4 PUSH1 0x1 PUSH1 0x1 PUSH1 0xA0 SHL SUB DUP5 AND PUSH2 0x471C JUMP JUMPDEST PUSH1 0x0 DUP1 PUSH1 0xE PUSH1 0x0 DUP5 PUSH1 0x1 PUSH1 0x1 PUSH1 0xA0 SHL SUB AND PUSH1 0x1 PUSH1 0x1 PUSH1 0xA0 SHL SUB AND DUP2 MSTORE PUSH1 0x20 ADD SWAP1 DUP2 MSTORE PUSH1 0x20 ADD PUSH1 0x0 KECCAK256 SLOAD SWAP1 POP PUSH1 0x0 PUSH32 0x0 PUSH1 0x1 PUSH1 0x1 PUSH1 0xA0 SHL SUB AND PUSH4 0x2630C12F PUSH1 0x40 MLOAD DUP2 PUSH4 0xFFFFFFFF AND PUSH1 0xE0 SHL DUP2 MSTORE PUSH1 0x4 ADD PUSH1 0x20 PUSH1 0x40 MLOAD DUP1 DUP4 SUB DUP2 DUP7 GAS STATICCALL ISZERO DUP1 ISZERO PUSH2 0x32DC JUMPI RETURNDATASIZE PUSH1 0x0 DUP1 RETURNDATACOPY RETURNDATASIZE PUSH1 0x0 REVERT JUMPDEST POP POP POP POP PUSH1 0x40 MLOAD RETURNDATASIZE PUSH1 0x1F NOT PUSH1 0x1F DUP3 ADD AND DUP3 ADD DUP1 PUSH1 0x40 MSTORE POP DUP2 ADD SWAP1 PUSH2 0x3300 SWAP2 SWAP1 PUSH2 0x5C9B JUMP JUMPDEST PUSH1 0x40 MLOAD PUSH4 0x8B2F0F4F PUSH1 0xE0 SHL DUP2 MSTORE PUSH1 0x0 PUSH1 0x4 DUP3 ADD DUP2 SWAP1 MSTORE SWAP2 SWAP3 POP PUSH1 0x1 PUSH1 0x1 PUSH1 0xA0 SHL SUB DUP4 AND SWAP1 PUSH4 0x8B2F0F4F SWAP1 PUSH1 0x24 ADD PUSH1 0x20 PUSH1 0x40 MLOAD DUP1 DUP4 SUB DUP2 DUP7 GAS STATICCALL ISZERO DUP1 ISZERO PUSH2 0x334A JUMPI RETURNDATASIZE PUSH1 0x0 DUP1 RETURNDATACOPY RETURNDATASIZE PUSH1 0x0 REVERT JUMPDEST POP POP POP POP PUSH1 0x40 MLOAD RETURNDATASIZE PUSH1 0x1F NOT PUSH1 0x1F DUP3 ADD AND DUP3 ADD DUP1 PUSH1 0x40 MSTORE POP DUP2 ADD SWAP1 PUSH2 0x336E SWAP2 SWAP1 PUSH2 0x5D10 JUMP JUMPDEST PUSH1 0x40 MLOAD PUSH4 0x8B2F0F4F PUSH1 0xE0 SHL DUP2 MSTORE PUSH1 0x1 PUSH1 0x1 PUSH1 0xA0 SHL SUB DUP8 DUP2 AND PUSH1 0x4 DUP4 ADD MSTORE SWAP2 SWAP3 POP PUSH1 0x0 SWAP2 DUP5 AND SWAP1 PUSH4 0x8B2F0F4F SWAP1 PUSH1 0x24 ADD PUSH1 0x20 PUSH1 0x40 MLOAD DUP1 DUP4 SUB DUP2 DUP7 GAS STATICCALL ISZERO DUP1 ISZERO PUSH2 0x33BA JUMPI RETURNDATASIZE PUSH1 0x0 DUP1 RETURNDATACOPY RETURNDATASIZE PUSH1 0x0 REVERT JUMPDEST POP POP POP POP PUSH1 0x40 MLOAD RETURNDATASIZE PUSH1 0x1F NOT PUSH1 0x1F DUP3 ADD AND DUP3 ADD DUP1 PUSH1 0x40 MSTORE POP DUP2 ADD SWAP1 PUSH2 0x33DE SWAP2 SWAP1 PUSH2 0x5D10 JUMP JUMPDEST SWAP1 POP PUSH1 0x0 PUSH2 0x33EC DUP3 DUP5 PUSH2 0x3B88 JUMP JUMPDEST SWAP1 POP PUSH1 0x0 PUSH2 0x33FA DUP7 DUP4 PUSH2 0x478C JUMP JUMPDEST SWAP1 POP PUSH1 0x0 PUSH2 0x3408 DUP3 DUP9 PUSH2 0x3B88 JUMP JUMPDEST PUSH1 0x4 SLOAD LT SWAP10 SWAP9 POP POP POP POP POP POP POP POP POP JUMP JUMPDEST PUSH1 0x0 PUSH2 0x3426 PUSH1 0xA DUP4 PUSH2 0x323C JUMP JUMPDEST SWAP1 POP DUP1 PUSH1 0x0 SUB PUSH2 0x3434 JUMPI POP POP JUMP JUMPDEST PUSH2 0x3440 PUSH1 0x12 PUSH1 0xA PUSH2 0x5E18 JUMP JUMPDEST DUP2 SUB PUSH2 0x3487 JUMPI PUSH1 0x40 MLOAD PUSH3 0x461BCD PUSH1 0xE5 SHL DUP2 MSTORE PUSH1 0x20 PUSH1 0x4 DUP3 ADD MSTORE PUSH1 0x16 PUSH1 0x24 DUP3 ADD MSTORE PUSH22 0x18D85B89DD081C995B5BDD99481B185CDD081C1BDBDB PUSH1 0x52 SHL PUSH1 0x44 DUP3 ADD MSTORE PUSH1 0x64 ADD PUSH2 0x2E8 JUMP JUMPDEST PUSH1 0x0 PUSH2 0x34BF PUSH2 0x3497 PUSH1 0xA DUP6 PUSH2 0x323C JUMP JUMPDEST PUSH2 0x34A3 PUSH1 0x12 PUSH1 0xA PUSH2 0x5E18 JUMP JUMPDEST PUSH2 0x34AD SWAP2 SWAP1 PUSH2 0x5D29 JUMP JUMPDEST PUSH2 0x34B9 PUSH1 0x12 PUSH1 0xA PUSH2 0x5E18 JUMP JUMPDEST SWAP1 PUSH2 0x3B88 JUMP JUMPDEST SWAP1 POP PUSH1 0x0 PUSH2 0x34CD PUSH1 0x8 PUSH2 0x2F68 JUMP JUMPDEST SWAP1 POP PUSH1 0x0 JUMPDEST DUP2 DUP2 LT ISZERO PUSH2 0x3582 JUMPI PUSH1 0x0 PUSH2 0x34E7 PUSH1 0x8 DUP4 PUSH2 0x3DC2 JUMP JUMPDEST SWAP1 POP PUSH1 0x0 DUP7 PUSH1 0x1 PUSH1 0x1 PUSH1 0xA0 SHL SUB AND DUP3 PUSH1 0x1 PUSH1 0x1 PUSH1 0xA0 SHL SUB AND EQ PUSH2 0x3518 JUMPI PUSH2 0x3513 DUP6 PUSH2 0x21C7 PUSH1 0xA DUP6 PUSH2 0x323C JUMP JUMPDEST PUSH2 0x351B JUMP JUMPDEST PUSH1 0x0 JUMPDEST SWAP1 POP PUSH2 0x3529 PUSH1 0xA DUP4 DUP4 PUSH2 0x3DCE JUMP JUMPDEST POP DUP2 PUSH1 0x1 PUSH1 0x1 PUSH1 0xA0 SHL SUB AND PUSH32 0x49175C3467EDEBA7662E939BF84305EAF5084072855B0560F6AC3E145CD172AE DUP3 PUSH1 0x40 MLOAD PUSH2 0x3565 SWAP2 DUP2 MSTORE PUSH1 0x20 ADD SWAP1 JUMP JUMPDEST PUSH1 0x40 MLOAD DUP1 SWAP2 SUB SWAP1 LOG2 POP POP DUP1 DUP1 PUSH2 0x357A SWAP1 PUSH2 0x5CE4 JUMP JUMPDEST SWAP2 POP POP PUSH2 0x34D2 JUMP JUMPDEST POP PUSH1 0x0 DUP1 PUSH2 0x358E PUSH2 0xB6A JUMP JUMPDEST SWAP3 POP POP SWAP2 POP PUSH1 0x0 PUSH2 0x359F DUP4 DUP4 PUSH2 0x3D36 JUMP JUMPDEST PUSH1 0xD SSTORE POP POP POP POP POP POP POP JUMP JUMPDEST PUSH1 0x0 DUP1 PUSH32 0x0 PUSH1 0x1 PUSH1 0x1 PUSH1 0xA0 SHL SUB AND PUSH4 0x18160DDD PUSH1 0x40 MLOAD DUP2 PUSH4 0xFFFFFFFF AND PUSH1 0xE0 SHL DUP2 MSTORE PUSH1 0x4 ADD PUSH1 0x20 PUSH1 0x40 MLOAD DUP1 DUP4 SUB DUP2 DUP7 GAS STATICCALL ISZERO DUP1 ISZERO PUSH2 0x360C JUMPI RETURNDATASIZE PUSH1 0x0 DUP1 RETURNDATACOPY RETURNDATASIZE PUSH1 0x0 REVERT JUMPDEST POP POP POP POP PUSH1 0x40 MLOAD RETURNDATASIZE PUSH1 0x1F NOT PUSH1 0x1F DUP3 ADD AND DUP3 ADD DUP1 PUSH1 0x40 MSTORE POP DUP2 ADD SWAP1 PUSH2 0x3630 SWAP2 SWAP1 PUSH2 0x5D10 JUMP JUMPDEST SWAP1 POP DUP1 ISZERO DUP1 PUSH2 0x363D JUMPI POP DUP3 ISZERO JUMPDEST ISZERO PUSH2 0x364E JUMPI PUSH2 0xEED PUSH1 0x12 PUSH1 0xA PUSH2 0x5E18 JUMP JUMPDEST PUSH2 0xEED DUP4 DUP3 PUSH2 0x3B88 JUMP JUMPDEST PUSH1 0x0 PUSH2 0x3666 PUSH1 0x12 PUSH1 0xA PUSH2 0x5E18 JUMP JUMPDEST PUSH2 0x3670 DUP4 DUP6 PUSH2 0x5E41 JUMP JUMPDEST PUSH2 0x96A SWAP2 SWAP1 PUSH2 0x5E58 JUMP JUMPDEST DUP1 PUSH1 0x0 PUSH2 0x3687 DUP3 DUP7 PUSH2 0x5D29 JUMP JUMPDEST SWAP1 POP PUSH1 0x0 PUSH2 0x3694 DUP6 PUSH2 0x47A4 JUMP JUMPDEST SWAP1 POP JUMPDEST DUP3 ISZERO PUSH2 0x1D1D JUMPI PUSH1 0x0 DUP1 PUSH2 0x36AA DUP5 DUP5 PUSH2 0x4843 JUMP JUMPDEST SWAP1 SWAP3 POP SWAP1 POP PUSH1 0x0 PUSH2 0x36BC PUSH1 0x8 DUP5 PUSH2 0x3DC2 JUMP JUMPDEST SWAP1 POP PUSH1 0x0 PUSH2 0x36CA DUP8 DUP5 PUSH2 0x3716 JUMP JUMPDEST SWAP1 POP PUSH2 0x36D6 DUP3 DUP3 PUSH2 0x4B59 JUMP JUMPDEST PUSH2 0x36E0 DUP2 DUP9 PUSH2 0x5D29 JUMP JUMPDEST SWAP7 POP DUP1 DUP6 DUP6 DUP2 MLOAD DUP2 LT PUSH2 0x36F5 JUMPI PUSH2 0x36F5 PUSH2 0x5CB8 JUMP JUMPDEST PUSH1 0x20 MUL PUSH1 0x20 ADD ADD DUP2 DUP2 MLOAD PUSH2 0x3709 SWAP2 SWAP1 PUSH2 0x5D29 JUMP JUMPDEST SWAP1 MSTORE POP PUSH2 0x3697 SWAP4 POP POP POP POP JUMP JUMPDEST PUSH1 0x0 DUP2 DUP4 LT PUSH2 0x3725 JUMPI DUP2 PUSH2 0x96A JUMP JUMPDEST POP SWAP1 SWAP2 SWAP1 POP JUMP JUMPDEST PUSH1 0x40 MLOAD PUSH1 0x1 PUSH1 0x1 PUSH1 0xA0 SHL SUB DUP4 AND PUSH1 0x24 DUP3 ADD MSTORE PUSH1 0x44 DUP2 ADD DUP3 SWAP1 MSTORE PUSH2 0x2F54 SWAP1 DUP5 SWAP1 PUSH4 0xA9059CBB PUSH1 0xE0 SHL SWAP1 PUSH1 0x64 ADD PUSH2 0x2F1D JUMP JUMPDEST PUSH1 0x0 JUMPDEST PUSH2 0x3769 PUSH1 0x8 PUSH2 0x2F68 JUMP JUMPDEST DUP2 LT ISZERO PUSH2 0x2919 JUMPI PUSH1 0x0 PUSH2 0x377D PUSH1 0x8 DUP4 PUSH2 0x3DC2 JUMP JUMPDEST SWAP1 POP PUSH32 0x0 PUSH1 0x1 PUSH1 0x1 PUSH1 0xA0 SHL SUB AND PUSH4 0x5A991917 PUSH1 0x40 MLOAD DUP2 PUSH4 0xFFFFFFFF AND PUSH1 0xE0 SHL DUP2 MSTORE PUSH1 0x4 ADD PUSH1 0x20 PUSH1 0x40 MLOAD DUP1 DUP4 SUB DUP2 DUP7 GAS STATICCALL ISZERO DUP1 ISZERO PUSH2 0x37DD JUMPI RETURNDATASIZE PUSH1 0x0 DUP1 RETURNDATACOPY RETURNDATASIZE PUSH1 0x0 REVERT JUMPDEST POP POP POP POP PUSH1 0x40 MLOAD RETURNDATASIZE PUSH1 0x1F NOT PUSH1 0x1F DUP3 ADD AND DUP3 ADD DUP1 PUSH1 0x40 MSTORE POP DUP2 ADD SWAP1 PUSH2 0x3801 SWAP2 SWAP1 PUSH2 0x5C9B JUMP JUMPDEST PUSH1 0x40 MLOAD PUSH4 0xAF9FE9E5 PUSH1 0xE0 SHL DUP2 MSTORE PUSH1 0x1 PUSH1 0x1 PUSH1 0xA0 SHL SUB DUP4 DUP2 AND PUSH1 0x4 DUP4 ADD MSTORE SWAP2 SWAP1 SWAP2 AND SWAP1 PUSH4 0xAF9FE9E5 SWAP1 PUSH1 0x24 ADD PUSH1 0x0 PUSH1 0x40 MLOAD DUP1 DUP4 SUB DUP2 PUSH1 0x0 DUP8 DUP1 EXTCODESIZE ISZERO DUP1 ISZERO PUSH2 0x3846 JUMPI PUSH1 0x0 DUP1 REVERT JUMPDEST POP GAS CALL ISZERO DUP1 ISZERO PUSH2 0x385A JUMPI RETURNDATASIZE PUSH1 0x0 DUP1 RETURNDATACOPY RETURNDATASIZE PUSH1 0x0 REVERT JUMPDEST POP POP POP POP POP DUP1 DUP1 PUSH2 0x386A SWAP1 PUSH2 0x5CE4 JUMP JUMPDEST SWAP2 POP POP PUSH2 0x375F JUMP JUMPDEST PUSH1 0x0 DUP1 DUP1 DUP1 PUSH2 0x2F81 DUP7 PUSH1 0x1 PUSH1 0x1 PUSH1 0xA0 SHL SUB DUP8 AND PUSH2 0x4F41 JUMP JUMPDEST PUSH1 0x0 PUSH32 0x0 PUSH1 0x1 PUSH1 0x1 PUSH1 0xA0 SHL SUB AND PUSH4 0x9F82B217 PUSH1 0x40 MLOAD DUP2 PUSH4 0xFFFFFFFF AND PUSH1 0xE0 SHL DUP2 MSTORE PUSH1 0x4 ADD PUSH1 0x20 PUSH1 0x40 MLOAD DUP1 DUP4 SUB DUP2 DUP7 GAS STATICCALL ISZERO DUP1 ISZERO PUSH2 0x38EA JUMPI RETURNDATASIZE PUSH1 0x0 DUP1 RETURNDATACOPY RETURNDATASIZE PUSH1 0x0 REVERT JUMPDEST POP POP POP POP PUSH1 0x40 MLOAD RETURNDATASIZE PUSH1 0x1F NOT PUSH1 0x1F DUP3 ADD AND DUP3 ADD DUP1 PUSH1 0x40 MSTORE POP DUP2 ADD SWAP1 PUSH2 0x390E SWAP2 SWAP1 PUSH2 0x5C9B JUMP JUMPDEST PUSH1 0x40 MLOAD PUSH4 0x1DA958A9 PUSH1 0xE2 SHL DUP2 MSTORE PUSH1 0x1 PUSH1 0x1 PUSH1 0xA0 SHL SUB DUP5 DUP2 AND PUSH1 0x4 DUP4 ADD MSTORE SWAP2 SWAP1 SWAP2 AND SWAP1 PUSH4 0x76A562A4 SWAP1 PUSH1 0x24 ADD JUMPDEST PUSH1 0x20 PUSH1 0x40 MLOAD DUP1 DUP4 SUB DUP2 DUP7 GAS STATICCALL ISZERO DUP1 ISZERO PUSH2 0x3957 JUMPI RETURNDATASIZE PUSH1 0x0 DUP1 RETURNDATACOPY RETURNDATASIZE PUSH1 0x0 REVERT JUMPDEST POP POP POP POP PUSH1 0x40 MLOAD RETURNDATASIZE PUSH1 0x1F NOT PUSH1 0x1F DUP3 ADD AND DUP3 ADD DUP1 PUSH1 0x40 MSTORE POP DUP2 ADD SWAP1 PUSH2 0x397B SWAP2 SWAP1 PUSH2 0x5C9B JUMP JUMPDEST PUSH1 0x40 MLOAD PUSH4 0x70A08231 PUSH1 0xE0 SHL DUP2 MSTORE ADDRESS PUSH1 0x4 DUP3 ADD MSTORE PUSH1 0x1 PUSH1 0x1 PUSH1 0xA0 SHL SUB SWAP2 SWAP1 SWAP2 AND SWAP1 PUSH4 0x70A08231 SWAP1 PUSH1 0x24 ADD PUSH1 0x20 PUSH1 0x40 MLOAD DUP1 DUP4 SUB DUP2 DUP7 GAS STATICCALL ISZERO DUP1 ISZERO PUSH2 0x39C1 JUMPI RETURNDATASIZE PUSH1 0x0 DUP1 RETURNDATACOPY RETURNDATASIZE PUSH1 0x0 REVERT JUMPDEST POP POP POP POP PUSH1 0x40 MLOAD RETURNDATASIZE PUSH1 0x1F NOT PUSH1 0x1F DUP3 ADD AND DUP3 ADD DUP1 PUSH1 0x40 MSTORE POP DUP2 ADD SWAP1 PUSH2 0x96D SWAP2 SWAP1 PUSH2 0x5D10 JUMP JUMPDEST PUSH1 0x0 PUSH32 0x0 PUSH1 0x1 PUSH1 0x1 PUSH1 0xA0 SHL SUB AND PUSH4 0xB050ECB8 PUSH1 0x40 MLOAD DUP2 PUSH4 0xFFFFFFFF AND PUSH1 0xE0 SHL DUP2 MSTORE PUSH1 0x4 ADD PUSH1 0x20 PUSH1 0x40 MLOAD DUP1 DUP4 SUB DUP2 DUP7 GAS STATICCALL ISZERO DUP1 ISZERO PUSH2 0x3A45 JUMPI RETURNDATASIZE PUSH1 0x0 DUP1 RETURNDATACOPY RETURNDATASIZE PUSH1 0x0 REVERT JUMPDEST POP POP POP POP PUSH1 0x40 MLOAD RETURNDATASIZE PUSH1 0x1F NOT PUSH1 0x1F DUP3 ADD AND DUP3 ADD DUP1 PUSH1 0x40 MSTORE POP DUP2 ADD SWAP1 PUSH2 0x3A69 SWAP2 SWAP1 PUSH2 0x5C9B JUMP JUMPDEST PUSH1 0x40 MLOAD PUSH4 0x514A9009 PUSH1 0xE0 SHL DUP2 MSTORE PUSH1 0x1 PUSH1 0x1 PUSH1 0xA0 SHL SUB DUP5 DUP2 AND PUSH1 0x4 DUP4 ADD MSTORE SWAP2 SWAP1 SWAP2 AND SWAP1 PUSH4 0x514A9009 SWAP1 PUSH1 0x24 ADD PUSH2 0x393A JUMP JUMPDEST PUSH1 0x40 MLOAD PUSH1 0x1 PUSH1 0x1 PUSH1 0xA0 SHL SUB DUP1 DUP6 AND PUSH1 0x24 DUP4 ADD MSTORE DUP4 AND PUSH1 0x44 DUP3 ADD MSTORE PUSH1 0x64 DUP2 ADD DUP3 SWAP1 MSTORE PUSH2 0x3AD1 SWAP1 DUP6 SWAP1 PUSH4 0x23B872DD PUSH1 0xE0 SHL SWAP1 PUSH1 0x84 ADD PUSH2 0x2F1D JUMP JUMPDEST POP POP POP POP JUMP JUMPDEST DUP1 PUSH1 0x0 PUSH2 0x3AE4 DUP3 DUP7 PUSH2 0x5CFD JUMP JUMPDEST SWAP1 POP PUSH1 0x0 PUSH2 0x3AF1 DUP6 PUSH2 0x47A4 JUMP JUMPDEST SWAP1 POP JUMPDEST DUP3 ISZERO PUSH2 0x1D1D JUMPI PUSH1 0x0 DUP1 PUSH2 0x3B07 DUP5 DUP5 PUSH2 0x4F83 JUMP JUMPDEST SWAP1 SWAP3 POP SWAP1 POP PUSH2 0x3B17 DUP2 PUSH1 0x64 PUSH2 0x5CFD JUMP JUMPDEST DUP6 LT ISZERO PUSH2 0x3B21 JUMPI POP DUP4 JUMPDEST PUSH1 0x0 PUSH2 0x3B2E PUSH1 0x8 DUP5 PUSH2 0x3DC2 JUMP JUMPDEST SWAP1 POP PUSH1 0x0 PUSH2 0x3B3C DUP8 DUP5 PUSH2 0x3716 JUMP JUMPDEST SWAP1 POP PUSH2 0x3B48 DUP3 DUP3 PUSH2 0x509D JUMP JUMPDEST PUSH2 0x3B52 DUP2 DUP9 PUSH2 0x5D29 JUMP JUMPDEST SWAP7 POP DUP1 DUP6 DUP6 DUP2 MLOAD DUP2 LT PUSH2 0x3B67 JUMPI PUSH2 0x3B67 PUSH2 0x5CB8 JUMP JUMPDEST PUSH1 0x20 MUL PUSH1 0x20 ADD ADD DUP2 DUP2 MLOAD PUSH2 0x3B7B SWAP2 SWAP1 PUSH2 0x5CFD JUMP JUMPDEST SWAP1 MSTORE POP PUSH2 0x3AF4 SWAP4 POP POP POP POP JUMP JUMPDEST PUSH1 0x0 DUP2 PUSH2 0x3B97 PUSH1 0x12 PUSH1 0xA PUSH2 0x5E18 JUMP JUMPDEST PUSH2 0x3670 SWAP1 DUP6 PUSH2 0x5E41 JUMP JUMPDEST PUSH1 0x7 SLOAD PUSH1 0xFF AND ISZERO PUSH2 0x3CD2 JUMPI PUSH1 0x0 PUSH2 0x3BB8 DUP6 DUP6 PUSH2 0x3D36 JUMP JUMPDEST SWAP1 POP PUSH1 0x0 PUSH2 0x3BC6 DUP5 DUP5 PUSH2 0x3D36 JUMP JUMPDEST SWAP1 POP PUSH32 0x0 PUSH1 0x1 PUSH1 0x1 PUSH1 0xA0 SHL SUB AND PUSH4 0xDBCD89FA PUSH1 0x40 MLOAD DUP2 PUSH4 0xFFFFFFFF AND PUSH1 0xE0 SHL DUP2 MSTORE PUSH1 0x4 ADD PUSH1 0x20 PUSH1 0x40 MLOAD DUP1 DUP4 SUB DUP2 DUP7 GAS STATICCALL ISZERO DUP1 ISZERO PUSH2 0x3C26 JUMPI RETURNDATASIZE PUSH1 0x0 DUP1 RETURNDATACOPY RETURNDATASIZE PUSH1 0x0 REVERT JUMPDEST POP POP POP POP PUSH1 0x40 MLOAD RETURNDATASIZE PUSH1 0x1F NOT PUSH1 0x1F DUP3 ADD AND DUP3 ADD DUP1 PUSH1 0x40 MSTORE POP DUP2 ADD SWAP1 PUSH2 0x3C4A SWAP2 SWAP1 PUSH2 0x5C9B JUMP JUMPDEST PUSH1 0x40 MLOAD PUSH4 0xA48AF5F PUSH1 0xE1 SHL DUP2 MSTORE PUSH1 0x1 PUSH1 0x1 PUSH1 0xA0 SHL SUB DUP10 DUP2 AND PUSH1 0x4 DUP4 ADD MSTORE PUSH1 0x24 DUP3 ADD DUP6 SWAP1 MSTORE PUSH1 0x44 DUP3 ADD DUP5 SWAP1 MSTORE SWAP2 SWAP1 SWAP2 AND SWAP1 PUSH4 0x14915EBE SWAP1 PUSH1 0x64 ADD PUSH1 0x0 PUSH1 0x40 MLOAD DUP1 DUP4 SUB DUP2 PUSH1 0x0 DUP8 DUP1 EXTCODESIZE ISZERO DUP1 ISZERO PUSH2 0x3C9D JUMPI PUSH1 0x0 DUP1 REVERT JUMPDEST POP GAS CALL ISZERO DUP1 ISZERO PUSH2 0x3CB1 JUMPI RETURNDATASIZE PUSH1 0x0 DUP1 RETURNDATACOPY RETURNDATASIZE PUSH1 0x0 REVERT JUMPDEST POP POP POP POP PUSH2 0x3CBF DUP4 DUP6 PUSH2 0x3DE4 JUMP JUMPDEST ISZERO PUSH2 0x3CCF JUMPI PUSH1 0x7 DUP1 SLOAD PUSH1 0xFF NOT AND SWAP1 SSTORE JUMPDEST POP POP JUMPDEST POP POP POP POP POP JUMP JUMPDEST PUSH1 0x60 PUSH1 0x0 PUSH2 0xEED DUP4 PUSH2 0x5260 JUMP JUMPDEST PUSH1 0x0 DUP1 SLOAD PUSH1 0x1 PUSH1 0x1 PUSH1 0xA0 SHL SUB DUP4 DUP2 AND PUSH1 0x1 PUSH1 0x1 PUSH1 0xA0 SHL SUB NOT DUP4 AND DUP2 OR DUP5 SSTORE PUSH1 0x40 MLOAD SWAP2 SWAP1 SWAP3 AND SWAP3 DUP4 SWAP2 PUSH32 0x8BE0079C531659141344CD1FD0A4F28419497F9722A3DAAFE3B4186F6B6457E0 SWAP2 SWAP1 LOG3 POP POP JUMP JUMPDEST PUSH1 0x0 DUP1 PUSH1 0x0 JUMPDEST DUP4 MLOAD DUP2 LT ISZERO PUSH2 0x3DBA JUMPI PUSH1 0x0 PUSH2 0x3D5D PUSH2 0x3D55 PUSH1 0x8 DUP5 PUSH2 0x3DC2 JUMP JUMPDEST PUSH1 0xA SWAP1 PUSH2 0x323C JUMP JUMPDEST SWAP1 POP PUSH1 0x0 PUSH2 0x3D6B DUP8 DUP4 PUSH2 0x3658 JUMP JUMPDEST SWAP1 POP PUSH2 0x3D99 DUP7 DUP5 DUP2 MLOAD DUP2 LT PUSH2 0x3D82 JUMPI PUSH2 0x3D82 PUSH2 0x5CB8 JUMP JUMPDEST PUSH1 0x20 MUL PUSH1 0x20 ADD ADD MLOAD DUP3 PUSH2 0x478C SWAP1 SWAP2 SWAP1 PUSH4 0xFFFFFFFF AND JUMP JUMPDEST PUSH2 0x3DA3 SWAP1 DUP6 PUSH2 0x5CFD JUMP JUMPDEST SWAP4 POP POP POP DUP1 DUP1 PUSH2 0x3DB2 SWAP1 PUSH2 0x5CE4 JUMP JUMPDEST SWAP2 POP POP PUSH2 0x3D3C JUMP JUMPDEST POP SWAP4 SWAP3 POP POP POP JUMP JUMPDEST PUSH1 0x0 PUSH2 0x96A DUP4 DUP4 PUSH2 0x52BC JUMP JUMPDEST PUSH1 0x0 PUSH2 0xEEA DUP5 PUSH1 0x1 PUSH1 0x1 PUSH1 0xA0 SHL SUB DUP6 AND DUP5 PUSH2 0x52E6 JUMP JUMPDEST PUSH1 0x0 DUP2 PUSH1 0x0 SUB PUSH2 0x3DF6 JUMPI POP PUSH1 0x1 PUSH2 0x96D JUMP JUMPDEST PUSH1 0x0 JUMPDEST DUP4 MLOAD DUP2 LT ISZERO PUSH2 0x407D JUMPI PUSH1 0x0 PUSH2 0x3E12 PUSH2 0x3D55 PUSH1 0x8 DUP5 PUSH2 0x3DC2 JUMP JUMPDEST SWAP1 POP PUSH1 0x0 DUP6 DUP4 DUP2 MLOAD DUP2 LT PUSH2 0x3E28 JUMPI PUSH2 0x3E28 PUSH2 0x5CB8 JUMP JUMPDEST PUSH1 0x20 MUL PUSH1 0x20 ADD ADD MLOAD SWAP1 POP DUP2 PUSH1 0x0 SUB PUSH2 0x4022 JUMPI PUSH1 0x0 PUSH32 0x0 PUSH1 0x1 PUSH1 0x1 PUSH1 0xA0 SHL SUB AND PUSH4 0x2630C12F PUSH1 0x40 MLOAD DUP2 PUSH4 0xFFFFFFFF AND PUSH1 0xE0 SHL DUP2 MSTORE PUSH1 0x4 ADD PUSH1 0x20 PUSH1 0x40 MLOAD DUP1 DUP4 SUB DUP2 DUP7 GAS STATICCALL ISZERO DUP1 ISZERO PUSH2 0x3E9A JUMPI RETURNDATASIZE PUSH1 0x0 DUP1 RETURNDATACOPY RETURNDATASIZE PUSH1 0x0 REVERT JUMPDEST POP POP POP POP PUSH1 0x40 MLOAD RETURNDATASIZE PUSH1 0x1F NOT PUSH1 0x1F DUP3 ADD AND DUP3 ADD DUP1 PUSH1 0x40 MSTORE POP DUP2 ADD SWAP1 PUSH2 0x3EBE SWAP2 SWAP1 PUSH2 0x5C9B JUMP JUMPDEST PUSH1 0x40 MLOAD PUSH4 0x8B2F0F4F PUSH1 0xE0 SHL DUP2 MSTORE PUSH1 0x1 PUSH1 0x1 PUSH1 0xA0 SHL SUB PUSH32 0x0 DUP2 AND PUSH1 0x4 DUP4 ADD MSTORE SWAP2 SWAP1 SWAP2 AND SWAP1 PUSH4 0x8B2F0F4F SWAP1 PUSH1 0x24 ADD PUSH1 0x20 PUSH1 0x40 MLOAD DUP1 DUP4 SUB DUP2 DUP7 GAS STATICCALL ISZERO DUP1 ISZERO PUSH2 0x3F26 JUMPI RETURNDATASIZE PUSH1 0x0 DUP1 RETURNDATACOPY RETURNDATASIZE PUSH1 0x0 REVERT JUMPDEST POP POP POP POP PUSH1 0x40 MLOAD RETURNDATASIZE PUSH1 0x1F NOT PUSH1 0x1F DUP3 ADD AND DUP3 ADD DUP1 PUSH1 0x40 MSTORE POP DUP2 ADD SWAP1 PUSH2 0x3F4A SWAP2 SWAP1 PUSH2 0x5D10 JUMP JUMPDEST SWAP1 POP PUSH1 0x0 PUSH32 0x0 PUSH1 0x1 PUSH1 0x1 PUSH1 0xA0 SHL SUB AND PUSH4 0x313CE567 PUSH1 0x40 MLOAD DUP2 PUSH4 0xFFFFFFFF AND PUSH1 0xE0 SHL DUP2 MSTORE PUSH1 0x4 ADD PUSH1 0x20 PUSH1 0x40 MLOAD DUP1 DUP4 SUB DUP2 DUP7 GAS STATICCALL ISZERO DUP1 ISZERO PUSH2 0x3FAC JUMPI RETURNDATASIZE PUSH1 0x0 DUP1 RETURNDATACOPY RETURNDATASIZE PUSH1 0x0 REVERT JUMPDEST POP POP POP POP PUSH1 0x40 MLOAD RETURNDATASIZE PUSH1 0x1F NOT PUSH1 0x1F DUP3 ADD AND DUP3 ADD DUP1 PUSH1 0x40 MSTORE POP DUP2 ADD SWAP1 PUSH2 0x3FD0 SWAP2 SWAP1 PUSH2 0x5E7A JUMP JUMPDEST PUSH2 0x3FDB SWAP1 PUSH1 0xA PUSH2 0x5E9D JUMP JUMPDEST PUSH2 0x3FE5 DUP5 DUP5 PUSH2 0x5E41 JUMP JUMPDEST PUSH2 0x3FEF SWAP2 SWAP1 PUSH2 0x5E58 JUMP JUMPDEST SWAP1 POP PUSH2 0x4005 PUSH1 0x2 PUSH9 0x56BC75E2D63100000 PUSH2 0x5E58 JUMP JUMPDEST DUP2 LT PUSH2 0x4019 JUMPI PUSH1 0x0 SWAP6 POP POP POP POP POP POP PUSH2 0x96D JUMP JUMPDEST POP POP POP POP PUSH2 0x406B JUMP JUMPDEST PUSH1 0x0 PUSH2 0x402E DUP7 DUP5 PUSH2 0x3658 JUMP JUMPDEST SWAP1 POP PUSH1 0x0 PUSH2 0x403C DUP3 DUP5 PUSH2 0x478C JUMP JUMPDEST SWAP1 POP PUSH1 0x0 PUSH2 0x404A DUP3 DUP5 PUSH2 0x3B88 JUMP JUMPDEST SWAP1 POP PUSH1 0x1 SLOAD DUP2 GT ISZERO PUSH2 0x4065 JUMPI PUSH1 0x0 SWAP7 POP POP POP POP POP POP POP PUSH2 0x96D JUMP JUMPDEST POP POP POP POP POP JUMPDEST DUP1 PUSH2 0x4075 DUP2 PUSH2 0x5CE4 JUMP JUMPDEST SWAP2 POP POP PUSH2 0x3DF9 JUMP JUMPDEST POP PUSH1 0x1 SWAP4 SWAP3 POP POP POP JUMP JUMPDEST PUSH1 0x0 PUSH2 0x4093 PUSH1 0x8 PUSH2 0x2F68 JUMP JUMPDEST SWAP1 POP PUSH1 0x0 PUSH32 0x0 PUSH1 0x1 PUSH1 0x1 PUSH1 0xA0 SHL SUB AND PUSH4 0x2630C12F PUSH1 0x40 MLOAD DUP2 PUSH4 0xFFFFFFFF AND PUSH1 0xE0 SHL DUP2 MSTORE PUSH1 0x4 ADD PUSH1 0x20 PUSH1 0x40 MLOAD DUP1 DUP4 SUB DUP2 DUP7 GAS STATICCALL ISZERO DUP1 ISZERO PUSH2 0x40F5 JUMPI RETURNDATASIZE PUSH1 0x0 DUP1 RETURNDATACOPY RETURNDATASIZE PUSH1 0x0 REVERT JUMPDEST POP POP POP POP PUSH1 0x40 MLOAD RETURNDATASIZE PUSH1 0x1F NOT PUSH1 0x1F DUP3 ADD AND DUP3 ADD DUP1 PUSH1 0x40 MSTORE POP DUP2 ADD SWAP1 PUSH2 0x4119 SWAP2 SWAP1 PUSH2 0x5C9B JUMP JUMPDEST PUSH1 0x40 MLOAD PUSH4 0x8B2F0F4F PUSH1 0xE0 SHL DUP2 MSTORE PUSH1 0x0 PUSH1 0x4 DUP3 ADD DUP2 SWAP1 MSTORE SWAP2 SWAP3 POP PUSH1 0x1 PUSH1 0x1 PUSH1 0xA0 SHL SUB DUP4 AND SWAP1 PUSH4 0x8B2F0F4F SWAP1 PUSH1 0x24 ADD PUSH1 0x20 PUSH1 0x40 MLOAD DUP1 DUP4 SUB DUP2 DUP7 GAS STATICCALL ISZERO DUP1 ISZERO PUSH2 0x4163 JUMPI RETURNDATASIZE PUSH1 0x0 DUP1 RETURNDATACOPY RETURNDATASIZE PUSH1 0x0 REVERT JUMPDEST POP POP POP POP PUSH1 0x40 MLOAD RETURNDATASIZE PUSH1 0x1F NOT PUSH1 0x1F DUP3 ADD AND DUP3 ADD DUP1 PUSH1 0x40 MSTORE POP DUP2 ADD SWAP1 PUSH2 0x4187 SWAP2 SWAP1 PUSH2 0x5D10 JUMP JUMPDEST SWAP1 POP PUSH1 0x0 JUMPDEST DUP4 DUP2 LT ISZERO PUSH2 0x3AD1 JUMPI PUSH1 0x0 PUSH32 0x0 PUSH1 0x1 PUSH1 0x1 PUSH1 0xA0 SHL SUB AND PUSH4 0x9F82B217 PUSH1 0x40 MLOAD DUP2 PUSH4 0xFFFFFFFF AND PUSH1 0xE0 SHL DUP2 MSTORE PUSH1 0x4 ADD PUSH1 0x20 PUSH1 0x40 MLOAD DUP1 DUP4 SUB DUP2 DUP7 GAS STATICCALL ISZERO DUP1 ISZERO PUSH2 0x41F4 JUMPI RETURNDATASIZE PUSH1 0x0 DUP1 RETURNDATACOPY RETURNDATASIZE PUSH1 0x0 REVERT JUMPDEST POP POP POP POP PUSH1 0x40 MLOAD RETURNDATASIZE PUSH1 0x1F NOT PUSH1 0x1F DUP3 ADD AND DUP3 ADD DUP1 PUSH1 0x40 MSTORE POP DUP2 ADD SWAP1 PUSH2 0x4218 SWAP2 SWAP1 PUSH2 0x5C9B JUMP JUMPDEST PUSH1 0x1 PUSH1 0x1 PUSH1 0xA0 SHL SUB AND PUSH4 0x76A562A4 PUSH2 0x4231 PUSH1 0x8 DUP6 PUSH2 0x3DC2 JUMP JUMPDEST PUSH1 0x40 MLOAD PUSH1 0x1 PUSH1 0x1 PUSH1 0xE0 SHL SUB NOT PUSH1 0xE0 DUP5 SWAP1 SHL AND DUP2 MSTORE PUSH1 0x1 PUSH1 0x1 PUSH1 0xA0 SHL SUB SWAP1 SWAP2 AND PUSH1 0x4 DUP3 ADD MSTORE PUSH1 0x24 ADD PUSH1 0x20 PUSH1 0x40 MLOAD DUP1 DUP4 SUB DUP2 DUP7 GAS STATICCALL ISZERO DUP1 ISZERO PUSH2 0x4275 JUMPI RETURNDATASIZE PUSH1 0x0 DUP1 RETURNDATACOPY RETURNDATASIZE PUSH1 0x0 REVERT JUMPDEST POP POP POP POP PUSH1 0x40 MLOAD RETURNDATASIZE PUSH1 0x1F NOT PUSH1 0x1F DUP3 ADD AND DUP3 ADD DUP1 PUSH1 0x40 MSTORE POP DUP2 ADD SWAP1 PUSH2 0x4299 SWAP2 SWAP1 PUSH2 0x5C9B JUMP JUMPDEST PUSH1 0x40 MLOAD PUSH4 0x8B2F0F4F PUSH1 0xE0 SHL DUP2 MSTORE PUSH1 0x1 PUSH1 0x1 PUSH1 0xA0 SHL SUB DUP1 DUP4 AND PUSH1 0x4 DUP4 ADD MSTORE SWAP2 SWAP3 POP PUSH1 0x0 SWAP2 DUP7 AND SWAP1 PUSH4 0x8B2F0F4F SWAP1 PUSH1 0x24 ADD PUSH1 0x20 PUSH1 0x40 MLOAD DUP1 DUP4 SUB DUP2 DUP7 GAS STATICCALL ISZERO DUP1 ISZERO PUSH2 0x42E5 JUMPI RETURNDATASIZE PUSH1 0x0 DUP1 RETURNDATACOPY RETURNDATASIZE PUSH1 0x0 REVERT JUMPDEST POP POP POP POP PUSH1 0x40 MLOAD RETURNDATASIZE PUSH1 0x1F NOT PUSH1 0x1F DUP3 ADD AND DUP3 ADD DUP1 PUSH1 0x40 MSTORE POP DUP2 ADD SWAP1 PUSH2 0x4309 SWAP2 SWAP1 PUSH2 0x5D10 JUMP JUMPDEST SWAP1 POP PUSH1 0x0 PUSH2 0x4317 DUP3 DUP7 PUSH2 0x3B88 JUMP JUMPDEST PUSH1 0x1 PUSH1 0x1 PUSH1 0xA0 SHL SUB SWAP1 SWAP4 AND PUSH1 0x0 SWAP1 DUP2 MSTORE PUSH1 0xE PUSH1 0x20 MSTORE PUSH1 0x40 SWAP1 KECCAK256 SWAP3 SWAP1 SWAP3 SSTORE POP DUP2 SWAP1 POP PUSH2 0x4341 DUP2 PUSH2 0x5CE4 JUMP JUMPDEST SWAP2 POP POP PUSH2 0x418C JUMP JUMPDEST PUSH1 0x1 PUSH1 0x1 PUSH1 0xA0 SHL SUB DUP2 AND PUSH1 0x0 SWAP1 DUP2 MSTORE PUSH1 0x1 DUP4 ADD PUSH1 0x20 MSTORE PUSH1 0x40 DUP2 KECCAK256 SLOAD ISZERO ISZERO PUSH2 0x96A JUMP JUMPDEST PUSH1 0x0 PUSH2 0x96A DUP4 PUSH1 0x1 PUSH1 0x1 PUSH1 0xA0 SHL SUB DUP5 AND PUSH2 0x5303 JUMP JUMPDEST PUSH1 0x0 PUSH2 0x96A DUP4 PUSH1 0x1 PUSH1 0x1 PUSH1 0xA0 SHL SUB DUP5 AND PUSH2 0x53F6 JUMP JUMPDEST PUSH1 0x0 PUSH2 0x96A DUP4 PUSH1 0x1 PUSH1 0x1 PUSH1 0xA0 SHL SUB DUP5 AND PUSH2 0x5413 JUMP JUMPDEST PUSH1 0x0 PUSH2 0x96A DUP4 PUSH1 0x1 PUSH1 0x1 PUSH1 0xA0 SHL SUB DUP5 AND PUSH2 0x541F JUMP JUMPDEST PUSH1 0x0 PUSH2 0x4414 DUP3 PUSH1 0x40 MLOAD DUP1 PUSH1 0x40 ADD PUSH1 0x40 MSTORE DUP1 PUSH1 0x20 DUP2 MSTORE PUSH1 0x20 ADD PUSH32 0x5361666545524332303A206C6F772D6C6576656C2063616C6C206661696C6564 DUP2 MSTORE POP DUP6 PUSH1 0x1 PUSH1 0x1 PUSH1 0xA0 SHL SUB AND PUSH2 0x2F59 SWAP1 SWAP3 SWAP2 SWAP1 PUSH4 0xFFFFFFFF AND JUMP JUMPDEST DUP1 MLOAD SWAP1 SWAP2 POP ISZERO PUSH2 0x2F54 JUMPI DUP1 DUP1 PUSH1 0x20 ADD SWAP1 MLOAD DUP2 ADD SWAP1 PUSH2 0x4432 SWAP2 SWAP1 PUSH2 0x5E24 JUMP JUMPDEST PUSH2 0x2F54 JUMPI PUSH1 0x40 MLOAD PUSH3 0x461BCD PUSH1 0xE5 SHL DUP2 MSTORE PUSH1 0x20 PUSH1 0x4 DUP3 ADD MSTORE PUSH1 0x2A PUSH1 0x24 DUP3 ADD MSTORE PUSH32 0x5361666545524332303A204552433230206F7065726174696F6E20646964206E PUSH1 0x44 DUP3 ADD MSTORE PUSH10 0x1BDD081CDD58D8D95959 PUSH1 0xB2 SHL PUSH1 0x64 DUP3 ADD MSTORE PUSH1 0x84 ADD PUSH2 0x2E8 JUMP JUMPDEST PUSH1 0x60 DUP3 SELFBALANCE LT ISZERO PUSH2 0x44F2 JUMPI PUSH1 0x40 MLOAD PUSH3 0x461BCD PUSH1 0xE5 SHL DUP2 MSTORE PUSH1 0x20 PUSH1 0x4 DUP3 ADD MSTORE PUSH1 0x26 PUSH1 0x24 DUP3 ADD MSTORE PUSH32 0x416464726573733A20696E73756666696369656E742062616C616E636520666F PUSH1 0x44 DUP3 ADD MSTORE PUSH6 0x1C8818D85B1B PUSH1 0xD2 SHL PUSH1 0x64 DUP3 ADD MSTORE PUSH1 0x84 ADD PUSH2 0x2E8 JUMP JUMPDEST PUSH1 0x0 DUP1 DUP7 PUSH1 0x1 PUSH1 0x1 PUSH1 0xA0 SHL SUB AND DUP6 DUP8 PUSH1 0x40 MLOAD PUSH2 0x450E SWAP2 SWAP1 PUSH2 0x5ED0 JUMP JUMPDEST PUSH1 0x0 PUSH1 0x40 MLOAD DUP1 DUP4 SUB DUP2 DUP6 DUP8 GAS CALL SWAP3 POP POP POP RETURNDATASIZE DUP1 PUSH1 0x0 DUP2 EQ PUSH2 0x454B JUMPI PUSH1 0x40 MLOAD SWAP2 POP PUSH1 0x1F NOT PUSH1 0x3F RETURNDATASIZE ADD AND DUP3 ADD PUSH1 0x40 MSTORE RETURNDATASIZE DUP3 MSTORE RETURNDATASIZE PUSH1 0x0 PUSH1 0x20 DUP5 ADD RETURNDATACOPY PUSH2 0x4550 JUMP JUMPDEST PUSH1 0x60 SWAP2 POP JUMPDEST POP SWAP2 POP SWAP2 POP PUSH2 0x4561 DUP8 DUP4 DUP4 DUP8 PUSH2 0x546E JUMP JUMPDEST SWAP8 SWAP7 POP POP POP POP POP POP POP JUMP JUMPDEST PUSH1 0x0 DUP1 DUP1 PUSH2 0x457A DUP6 DUP6 PUSH2 0x3DC2 JUMP JUMPDEST PUSH1 0x0 DUP2 DUP2 MSTORE PUSH1 0x2 SWAP7 SWAP1 SWAP7 ADD PUSH1 0x20 MSTORE PUSH1 0x40 SWAP1 SWAP6 KECCAK256 SLOAD SWAP5 SWAP6 SWAP4 POP POP POP POP JUMP JUMPDEST PUSH1 0x0 PUSH2 0xEEA PUSH1 0x12 PUSH32 0x0 PUSH1 0x1 PUSH1 0x1 PUSH1 0xA0 SHL SUB AND PUSH4 0x313CE567 PUSH1 0x40 MLOAD DUP2 PUSH4 0xFFFFFFFF AND PUSH1 0xE0 SHL DUP2 MSTORE PUSH1 0x4 ADD PUSH1 0x20 PUSH1 0x40 MLOAD DUP1 DUP4 SUB DUP2 DUP7 GAS STATICCALL ISZERO DUP1 ISZERO PUSH2 0x45FC JUMPI RETURNDATASIZE PUSH1 0x0 DUP1 RETURNDATACOPY RETURNDATASIZE PUSH1 0x0 REVERT JUMPDEST POP POP POP POP PUSH1 0x40 MLOAD RETURNDATASIZE PUSH1 0x1F NOT PUSH1 0x1F DUP3 ADD AND DUP3 ADD DUP1 PUSH1 0x40 MSTORE POP DUP2 ADD SWAP1 PUSH2 0x4620 SWAP2 SWAP1 PUSH2 0x5E7A JUMP JUMPDEST PUSH2 0x4715 DUP6 PUSH2 0x34B9 PUSH32 0x0 PUSH1 0x1 PUSH1 0x1 PUSH1 0xA0 SHL SUB AND PUSH4 0x2630C12F PUSH1 0x40 MLOAD DUP2 PUSH4 0xFFFFFFFF AND PUSH1 0xE0 SHL DUP2 MSTORE PUSH1 0x4 ADD PUSH1 0x20 PUSH1 0x40 MLOAD DUP1 DUP4 SUB DUP2 DUP7 GAS STATICCALL ISZERO DUP1 ISZERO PUSH2 0x4685 JUMPI RETURNDATASIZE PUSH1 0x0 DUP1 RETURNDATACOPY RETURNDATASIZE PUSH1 0x0 REVERT JUMPDEST POP POP POP POP PUSH1 0x40 MLOAD RETURNDATASIZE PUSH1 0x1F NOT PUSH1 0x1F DUP3 ADD AND DUP3 ADD DUP1 PUSH1 0x40 MSTORE POP DUP2 ADD SWAP1 PUSH2 0x46A9 SWAP2 SWAP1 PUSH2 0x5C9B JUMP JUMPDEST PUSH1 0x40 MLOAD PUSH4 0x8B2F0F4F PUSH1 0xE0 SHL DUP2 MSTORE PUSH1 0x1 PUSH1 0x1 PUSH1 0xA0 SHL SUB DUP13 DUP2 AND PUSH1 0x4 DUP4 ADD MSTORE SWAP2 SWAP1 SWAP2 AND SWAP1 PUSH4 0x8B2F0F4F SWAP1 PUSH1 0x24 ADD PUSH1 0x20 PUSH1 0x40 MLOAD DUP1 DUP4 SUB DUP2 DUP7 GAS STATICCALL ISZERO DUP1 ISZERO PUSH2 0x46F1 JUMPI RETURNDATASIZE PUSH1 0x0 DUP1 RETURNDATACOPY RETURNDATASIZE PUSH1 0x0 REVERT JUMPDEST POP POP POP POP PUSH1 0x40 MLOAD RETURNDATASIZE PUSH1 0x1F NOT PUSH1 0x1F DUP3 ADD AND DUP3 ADD DUP1 PUSH1 0x40 MSTORE POP DUP2 ADD SWAP1 PUSH2 0x1074 SWAP2 SWAP1 PUSH2 0x5D10 JUMP JUMPDEST SWAP2 SWAP1 PUSH2 0x54E7 JUMP JUMPDEST PUSH1 0x0 DUP2 DUP2 MSTORE PUSH1 0x2 DUP4 ADD PUSH1 0x20 MSTORE PUSH1 0x40 DUP2 KECCAK256 SLOAD DUP1 ISZERO ISZERO DUP1 PUSH2 0x4740 JUMPI POP PUSH2 0x4740 DUP5 DUP5 PUSH2 0x5413 JUMP JUMPDEST PUSH2 0x96A JUMPI PUSH1 0x40 MLOAD PUSH3 0x461BCD PUSH1 0xE5 SHL DUP2 MSTORE PUSH1 0x20 PUSH1 0x4 DUP3 ADD MSTORE PUSH1 0x1E PUSH1 0x24 DUP3 ADD MSTORE PUSH32 0x456E756D657261626C654D61703A206E6F6E6578697374656E74206B65790000 PUSH1 0x44 DUP3 ADD MSTORE PUSH1 0x64 ADD PUSH2 0x2E8 JUMP JUMPDEST PUSH1 0x0 DUP2 DUP4 LT ISZERO PUSH2 0x479E JUMPI DUP3 DUP3 SUB PUSH2 0x96A JUMP JUMPDEST POP SWAP1 SUB SWAP1 JUMP JUMPDEST PUSH1 0x60 PUSH1 0x0 DUP3 MLOAD PUSH8 0xFFFFFFFFFFFFFFFF DUP2 GT ISZERO PUSH2 0x47C2 JUMPI PUSH2 0x47C2 PUSH2 0x5B60 JUMP JUMPDEST PUSH1 0x40 MLOAD SWAP1 DUP1 DUP3 MSTORE DUP1 PUSH1 0x20 MUL PUSH1 0x20 ADD DUP3 ADD PUSH1 0x40 MSTORE DUP1 ISZERO PUSH2 0x47EB JUMPI DUP2 PUSH1 0x20 ADD PUSH1 0x20 DUP3 MUL DUP1 CALLDATASIZE DUP4 CALLDATACOPY ADD SWAP1 POP JUMPDEST POP SWAP1 POP PUSH1 0x0 JUMPDEST DUP4 MLOAD DUP2 LT ISZERO PUSH2 0xA53 JUMPI DUP4 DUP2 DUP2 MLOAD DUP2 LT PUSH2 0x480C JUMPI PUSH2 0x480C PUSH2 0x5CB8 JUMP JUMPDEST PUSH1 0x20 MUL PUSH1 0x20 ADD ADD MLOAD DUP3 DUP3 DUP2 MLOAD DUP2 LT PUSH2 0x4826 JUMPI PUSH2 0x4826 PUSH2 0x5CB8 JUMP JUMPDEST PUSH1 0x20 SWAP1 DUP2 MUL SWAP2 SWAP1 SWAP2 ADD ADD MSTORE DUP1 PUSH2 0x483B DUP2 PUSH2 0x5CE4 JUMP JUMPDEST SWAP2 POP POP PUSH2 0x47F1 JUMP JUMPDEST DUP1 MLOAD PUSH1 0x0 SWAP1 DUP2 SWAP1 PUSH1 0x0 NOT DUP3 JUMPDEST DUP3 DUP2 LT ISZERO PUSH2 0x4AFD JUMPI PUSH1 0x0 PUSH2 0x4864 PUSH1 0x8 DUP4 PUSH2 0x3DC2 JUMP JUMPDEST SWAP1 POP PUSH1 0x0 PUSH2 0x4873 PUSH1 0xA DUP4 PUSH2 0x323C JUMP JUMPDEST SWAP1 POP PUSH1 0x0 DUP9 DUP5 DUP2 MLOAD DUP2 LT PUSH2 0x4889 JUMPI PUSH2 0x4889 PUSH2 0x5CB8 JUMP JUMPDEST PUSH1 0x20 MUL PUSH1 0x20 ADD ADD MLOAD SWAP1 POP DUP2 PUSH1 0x0 SUB PUSH2 0x4A80 JUMPI PUSH1 0x0 PUSH32 0x0 PUSH1 0x1 PUSH1 0x1 PUSH1 0xA0 SHL SUB AND PUSH4 0x2630C12F PUSH1 0x40 MLOAD DUP2 PUSH4 0xFFFFFFFF AND PUSH1 0xE0 SHL DUP2 MSTORE PUSH1 0x4 ADD PUSH1 0x20 PUSH1 0x40 MLOAD DUP1 DUP4 SUB DUP2 DUP7 GAS STATICCALL ISZERO DUP1 ISZERO PUSH2 0x48FB JUMPI RETURNDATASIZE PUSH1 0x0 DUP1 RETURNDATACOPY RETURNDATASIZE PUSH1 0x0 REVERT JUMPDEST POP POP POP POP PUSH1 0x40 MLOAD RETURNDATASIZE PUSH1 0x1F NOT PUSH1 0x1F DUP3 ADD AND DUP3 ADD DUP1 PUSH1 0x40 MSTORE POP DUP2 ADD SWAP1 PUSH2 0x491F SWAP2 SWAP1 PUSH2 0x5C9B JUMP JUMPDEST PUSH1 0x40 MLOAD PUSH4 0x8B2F0F4F PUSH1 0xE0 SHL DUP2 MSTORE PUSH1 0x1 PUSH1 0x1 PUSH1 0xA0 SHL SUB PUSH32 0x0 DUP2 AND PUSH1 0x4 DUP4 ADD MSTORE SWAP2 SWAP1 SWAP2 AND SWAP1 PUSH4 0x8B2F0F4F SWAP1 PUSH1 0x24 ADD PUSH1 0x20 PUSH1 0x40 MLOAD DUP1 DUP4 SUB DUP2 DUP7 GAS STATICCALL ISZERO DUP1 ISZERO PUSH2 0x4987 JUMPI RETURNDATASIZE PUSH1 0x0 DUP1 RETURNDATACOPY RETURNDATASIZE PUSH1 0x0 REVERT JUMPDEST POP POP POP POP PUSH1 0x40 MLOAD RETURNDATASIZE PUSH1 0x1F NOT PUSH1 0x1F DUP3 ADD AND DUP3 ADD DUP1 PUSH1 0x40 MSTORE POP DUP2 ADD SWAP1 PUSH2 0x49AB SWAP2 SWAP1 PUSH2 0x5D10 JUMP JUMPDEST SWAP1 POP PUSH1 0x0 PUSH32 0x0 PUSH1 0x1 PUSH1 0x1 PUSH1 0xA0 SHL SUB AND PUSH4 0x313CE567 PUSH1 0x40 MLOAD DUP2 PUSH4 0xFFFFFFFF AND PUSH1 0xE0 SHL DUP2 MSTORE PUSH1 0x4 ADD PUSH1 0x20 PUSH1 0x40 MLOAD DUP1 DUP4 SUB DUP2 DUP7 GAS STATICCALL ISZERO DUP1 ISZERO PUSH2 0x4A0D JUMPI RETURNDATASIZE PUSH1 0x0 DUP1 RETURNDATACOPY RETURNDATASIZE PUSH1 0x0 REVERT JUMPDEST POP POP POP POP PUSH1 0x40 MLOAD RETURNDATASIZE PUSH1 0x1F NOT PUSH1 0x1F DUP3 ADD AND DUP3 ADD DUP1 PUSH1 0x40 MSTORE POP DUP2 ADD SWAP1 PUSH2 0x4A31 SWAP2 SWAP1 PUSH2 0x5E7A JUMP JUMPDEST PUSH2 0x4A3C SWAP1 PUSH1 0xA PUSH2 0x5E9D JUMP JUMPDEST PUSH2 0x4A46 DUP5 DUP5 PUSH2 0x5E41 JUMP JUMPDEST PUSH2 0x4A50 SWAP2 SWAP1 PUSH2 0x5E58 JUMP JUMPDEST SWAP1 POP PUSH2 0x4A66 PUSH1 0x2 PUSH9 0x56BC75E2D63100000 PUSH2 0x5E58 JUMP JUMPDEST DUP2 LT PUSH2 0x4A7D JUMPI POP SWAP4 SWAP8 POP SWAP6 POP PUSH2 0x2F89 SWAP5 POP POP POP POP POP JUMP JUMPDEST POP POP JUMPDEST PUSH1 0x0 PUSH2 0x4A8C DUP12 DUP5 PUSH2 0x3658 JUMP JUMPDEST SWAP1 POP DUP1 DUP3 GT PUSH2 0x4A9E JUMPI POP POP POP POP PUSH2 0x4AEB JUMP JUMPDEST PUSH1 0x0 PUSH2 0x4AB2 PUSH2 0x4AAB PUSH2 0x5528 JUMP JUMPDEST DUP4 SWAP1 PUSH2 0x3658 JUMP JUMPDEST PUSH2 0x4ABC SWAP1 DUP4 PUSH2 0x5D29 JUMP JUMPDEST SWAP1 POP PUSH1 0x0 PUSH2 0x4ACA DUP3 DUP6 PUSH2 0x5D29 JUMP JUMPDEST SWAP1 POP DUP10 DUP2 GT PUSH2 0x4ADE JUMPI POP POP POP POP POP POP PUSH2 0x4AEB JUMP JUMPDEST DUP1 SWAP10 POP DUP7 SWAP8 POP POP POP POP POP POP POP JUMPDEST DUP1 PUSH2 0x4AF5 DUP2 PUSH2 0x5CE4 JUMP JUMPDEST SWAP2 POP POP PUSH2 0x484F JUMP JUMPDEST POP PUSH1 0x0 NOT DUP2 SGT PUSH2 0x4B4F JUMPI PUSH1 0x40 MLOAD PUSH3 0x461BCD PUSH1 0xE5 SHL DUP2 MSTORE PUSH1 0x20 PUSH1 0x4 DUP3 ADD MSTORE PUSH1 0x1E PUSH1 0x24 DUP3 ADD MSTORE PUSH32 0x6572726F722072657472696576696E6720776974686472617720706F6F6C0000 PUSH1 0x44 DUP3 ADD MSTORE PUSH1 0x64 ADD PUSH2 0x2E8 JUMP JUMPDEST SWAP3 POP POP SWAP3 POP SWAP3 SWAP1 POP JUMP JUMPDEST PUSH1 0x0 PUSH32 0x0 PUSH1 0x1 PUSH1 0x1 PUSH1 0xA0 SHL SUB AND PUSH4 0x9F82B217 PUSH1 0x40 MLOAD DUP2 PUSH4 0xFFFFFFFF AND PUSH1 0xE0 SHL DUP2 MSTORE PUSH1 0x4 ADD PUSH1 0x20 PUSH1 0x40 MLOAD DUP1 DUP4 SUB DUP2 DUP7 GAS STATICCALL ISZERO DUP1 ISZERO PUSH2 0x4BB9 JUMPI RETURNDATASIZE PUSH1 0x0 DUP1 RETURNDATACOPY RETURNDATASIZE PUSH1 0x0 REVERT JUMPDEST POP POP POP POP PUSH1 0x40 MLOAD RETURNDATASIZE PUSH1 0x1F NOT PUSH1 0x1F DUP3 ADD AND DUP3 ADD DUP1 PUSH1 0x40 MSTORE POP DUP2 ADD SWAP1 PUSH2 0x4BDD SWAP2 SWAP1 PUSH2 0x5C9B JUMP JUMPDEST PUSH1 0x40 MLOAD PUSH4 0x1DA958A9 PUSH1 0xE2 SHL DUP2 MSTORE PUSH1 0x1 PUSH1 0x1 PUSH1 0xA0 SHL SUB DUP6 DUP2 AND PUSH1 0x4 DUP4 ADD MSTORE SWAP2 SWAP3 POP PUSH1 0x0 SWAP2 DUP4 AND SWAP1 PUSH4 0x76A562A4 SWAP1 PUSH1 0x24 ADD PUSH1 0x20 PUSH1 0x40 MLOAD DUP1 DUP4 SUB DUP2 DUP7 GAS STATICCALL ISZERO DUP1 ISZERO PUSH2 0x4C29 JUMPI RETURNDATASIZE PUSH1 0x0 DUP1 RETURNDATACOPY RETURNDATASIZE PUSH1 0x0 REVERT JUMPDEST POP POP POP POP PUSH1 0x40 MLOAD RETURNDATASIZE PUSH1 0x1F NOT PUSH1 0x1F DUP3 ADD AND DUP3 ADD DUP1 PUSH1 0x40 MSTORE POP DUP2 ADD SWAP1 PUSH2 0x4C4D SWAP2 SWAP1 PUSH2 0x5C9B JUMP JUMPDEST SWAP1 POP PUSH1 0x0 PUSH2 0x4C5B DUP3 DUP6 PUSH2 0x5542 JUMP JUMPDEST SWAP1 POP DUP1 PUSH1 0x0 SUB PUSH2 0x4C6C JUMPI POP POP POP POP POP JUMP JUMPDEST PUSH1 0x0 PUSH2 0x4C77 DUP7 PUSH2 0x388A JUMP JUMPDEST PUSH1 0x40 MLOAD PUSH4 0x514A9009 PUSH1 0xE0 SHL DUP2 MSTORE PUSH1 0x1 PUSH1 0x1 PUSH1 0xA0 SHL SUB DUP9 DUP2 AND PUSH1 0x4 DUP4 ADD MSTORE SWAP2 SWAP3 POP PUSH1 0x0 SWAP2 DUP7 AND SWAP1 PUSH4 0x514A9009 SWAP1 PUSH1 0x24 ADD PUSH1 0x20 PUSH1 0x40 MLOAD DUP1 DUP4 SUB DUP2 DUP7 GAS STATICCALL ISZERO DUP1 ISZERO PUSH2 0x4CC3 JUMPI RETURNDATASIZE PUSH1 0x0 DUP1 RETURNDATACOPY RETURNDATASIZE PUSH1 0x0 REVERT JUMPDEST POP POP POP POP PUSH1 0x40 MLOAD RETURNDATASIZE PUSH1 0x1F NOT PUSH1 0x1F DUP3 ADD AND DUP3 ADD DUP1 PUSH1 0x40 MSTORE POP DUP2 ADD SWAP1 PUSH2 0x4CE7 SWAP2 SWAP1 PUSH2 0x5C9B JUMP JUMPDEST PUSH1 0x40 MLOAD PUSH4 0x70A08231 PUSH1 0xE0 SHL DUP2 MSTORE ADDRESS PUSH1 0x4 DUP3 ADD MSTORE SWAP1 SWAP2 POP PUSH1 0x0 SWAP1 PUSH1 0x1 PUSH1 0x1 PUSH1 0xA0 SHL SUB DUP4 AND SWAP1 PUSH4 0x70A08231 SWAP1 PUSH1 0x24 ADD PUSH1 0x20 PUSH1 0x40 MLOAD DUP1 DUP4 SUB DUP2 DUP7 GAS STATICCALL ISZERO DUP1 ISZERO PUSH2 0x4D31 JUMPI RETURNDATASIZE PUSH1 0x0 DUP1 RETURNDATACOPY RETURNDATASIZE PUSH1 0x0 REVERT JUMPDEST POP POP POP POP PUSH1 0x40 MLOAD RETURNDATASIZE PUSH1 0x1F NOT PUSH1 0x1F DUP3 ADD AND DUP3 ADD DUP1 PUSH1 0x40 MSTORE POP DUP2 ADD SWAP1 PUSH2 0x4D55 SWAP2 SWAP1 PUSH2 0x5D10 JUMP JUMPDEST SWAP1 POP PUSH1 0x0 PUSH2 0x4D63 DUP3 DUP6 PUSH2 0x5CFD JUMP JUMPDEST SWAP1 POP DUP5 DUP2 LT ISZERO PUSH2 0x4D71 JUMPI DUP1 SWAP5 POP JUMPDEST DUP4 DUP6 GT ISZERO PUSH2 0x4E62 JUMPI PUSH2 0x4E60 DUP10 PUSH2 0x4D87 DUP7 DUP9 PUSH2 0x5D29 JUMP JUMPDEST PUSH1 0x40 MLOAD PUSH1 0x1 PUSH1 0x1 PUSH1 0xA0 SHL SUB SWAP1 SWAP3 AND PUSH1 0x24 DUP4 ADD MSTORE PUSH1 0x44 DUP3 ADD MSTORE PUSH1 0x64 ADD PUSH1 0x40 DUP1 MLOAD PUSH1 0x1F NOT DUP2 DUP5 SUB ADD DUP2 MSTORE SWAP2 DUP2 MSTORE PUSH1 0x20 DUP1 DUP4 ADD DUP1 MLOAD PUSH1 0x1 PUSH1 0x1 PUSH1 0xE0 SHL SUB AND PUSH4 0xF3FEF3A3 PUSH1 0xE0 SHL OR SWAP1 MSTORE DUP2 MLOAD PUSH4 0x160A1D97 PUSH1 0xE3 SHL DUP2 MSTORE SWAP2 MLOAD PUSH1 0x1 PUSH1 0x1 PUSH1 0xA0 SHL SUB PUSH32 0x0 AND SWAP3 PUSH4 0xB050ECB8 SWAP3 PUSH1 0x4 DUP1 DUP4 ADD SWAP4 SWAP2 SWAP3 DUP3 SWAP1 SUB ADD DUP2 DUP7 GAS STATICCALL ISZERO DUP1 ISZERO PUSH2 0x4E2D JUMPI RETURNDATASIZE PUSH1 0x0 DUP1 RETURNDATACOPY RETURNDATASIZE PUSH1 0x0 REVERT JUMPDEST POP POP POP POP PUSH1 0x40 MLOAD RETURNDATASIZE PUSH1 0x1F NOT PUSH1 0x1F DUP3 ADD AND DUP3 ADD DUP1 PUSH1 0x40 MSTORE POP DUP2 ADD SWAP1 PUSH2 0x4E51 SWAP2 SWAP1 PUSH2 0x5C9B JUMP JUMPDEST PUSH1 0x1 PUSH1 0x1 PUSH1 0xA0 SHL SUB AND SWAP1 PUSH2 0x57D4 JUMP JUMPDEST POP JUMPDEST PUSH1 0x40 MLOAD PUSH1 0x1 PUSH1 0x1 PUSH1 0xA0 SHL SUB DUP1 DUP12 AND PUSH1 0x24 DUP4 ADD MSTORE PUSH32 0x0 AND PUSH1 0x44 DUP3 ADD MSTORE PUSH1 0x64 DUP2 ADD DUP7 SWAP1 MSTORE PUSH2 0x4F35 SWAP1 PUSH1 0x84 ADD PUSH1 0x40 DUP1 MLOAD PUSH1 0x1F NOT DUP2 DUP5 SUB ADD DUP2 MSTORE SWAP2 DUP2 MSTORE PUSH1 0x20 DUP1 DUP4 ADD DUP1 MLOAD PUSH1 0x1 PUSH1 0x1 PUSH1 0xE0 SHL SUB AND PUSH4 0x6CE57689 PUSH1 0xE1 SHL OR SWAP1 MSTORE DUP2 MLOAD PUSH4 0x5A991917 PUSH1 0xE0 SHL DUP2 MSTORE SWAP2 MLOAD PUSH1 0x1 PUSH1 0x1 PUSH1 0xA0 SHL SUB PUSH32 0x0 AND SWAP3 PUSH4 0x5A991917 SWAP3 PUSH1 0x4 DUP1 DUP4 ADD SWAP4 SWAP2 SWAP3 DUP3 SWAP1 SUB ADD DUP2 DUP7 GAS STATICCALL ISZERO DUP1 ISZERO PUSH2 0x4E2D JUMPI RETURNDATASIZE PUSH1 0x0 DUP1 RETURNDATACOPY RETURNDATASIZE PUSH1 0x0 REVERT JUMPDEST POP POP POP POP POP POP POP POP POP POP JUMP JUMPDEST PUSH1 0x0 DUP2 DUP2 MSTORE PUSH1 0x2 DUP4 ADD PUSH1 0x20 MSTORE PUSH1 0x40 DUP2 KECCAK256 SLOAD DUP2 SWAP1 DUP1 PUSH2 0x4F70 JUMPI PUSH2 0x4F63 DUP6 DUP6 PUSH2 0x5413 JUMP JUMPDEST SWAP3 POP PUSH1 0x0 SWAP2 POP PUSH2 0x2F89 SWAP1 POP JUMP JUMPDEST PUSH1 0x1 SWAP3 POP SWAP1 POP PUSH2 0x2F89 JUMP JUMPDEST POP SWAP3 POP SWAP3 SWAP1 POP JUMP JUMPDEST DUP1 MLOAD PUSH1 0x0 SWAP1 DUP2 SWAP1 PUSH1 0x0 NOT DUP3 JUMPDEST DUP3 DUP2 LT ISZERO PUSH2 0x504B JUMPI PUSH1 0x0 PUSH2 0x4FA4 PUSH1 0x8 DUP4 PUSH2 0x3DC2 JUMP JUMPDEST SWAP1 POP PUSH1 0x0 DUP8 DUP4 DUP2 MLOAD DUP2 LT PUSH2 0x4FBA JUMPI PUSH2 0x4FBA PUSH2 0x5CB8 JUMP JUMPDEST PUSH1 0x20 MUL PUSH1 0x20 ADD ADD MLOAD SWAP1 POP PUSH1 0x0 PUSH2 0x4FE4 PUSH2 0x4FDD DUP5 PUSH1 0xA PUSH2 0x323C SWAP1 SWAP2 SWAP1 PUSH4 0xFFFFFFFF AND JUMP JUMPDEST DUP12 SWAP1 PUSH2 0x3658 JUMP JUMPDEST SWAP1 POP DUP1 DUP3 LT PUSH2 0x4FF5 JUMPI POP POP POP PUSH2 0x5039 JUMP JUMPDEST PUSH1 0x0 PUSH2 0x5002 PUSH2 0x4AAB PUSH2 0x5528 JUMP JUMPDEST PUSH2 0x500C SWAP1 DUP4 PUSH2 0x5CFD JUMP JUMPDEST SWAP1 POP PUSH1 0x0 PUSH2 0x501A DUP5 DUP4 PUSH2 0x5D29 JUMP JUMPDEST SWAP1 POP DUP9 DUP2 GT PUSH2 0x502D JUMPI POP POP POP POP POP PUSH2 0x5039 JUMP JUMPDEST DUP1 SWAP9 POP DUP6 SWAP7 POP POP POP POP POP POP JUMPDEST DUP1 PUSH2 0x5043 DUP2 PUSH2 0x5CE4 JUMP JUMPDEST SWAP2 POP POP PUSH2 0x4F8F JUMP JUMPDEST POP PUSH1 0x0 NOT DUP2 SGT PUSH2 0x4B4F JUMPI PUSH1 0x40 MLOAD PUSH3 0x461BCD PUSH1 0xE5 SHL DUP2 MSTORE PUSH1 0x20 PUSH1 0x4 DUP3 ADD MSTORE PUSH1 0x1D PUSH1 0x24 DUP3 ADD MSTORE PUSH32 0x6572726F722072657472696576696E67206465706F73697420706F6F6C000000 PUSH1 0x44 DUP3 ADD MSTORE PUSH1 0x64 ADD PUSH2 0x2E8 JUMP JUMPDEST DUP1 PUSH1 0x0 SUB PUSH2 0x50A9 JUMPI POP POP JUMP JUMPDEST PUSH1 0x40 MLOAD PUSH1 0x1 PUSH1 0x1 PUSH1 0xA0 SHL SUB DUP1 DUP5 AND PUSH1 0x24 DUP4 ADD MSTORE PUSH32 0x0 AND PUSH1 0x44 DUP3 ADD MSTORE PUSH1 0x64 DUP2 ADD DUP3 SWAP1 MSTORE PUSH2 0x517C SWAP1 PUSH1 0x84 ADD PUSH1 0x40 DUP1 MLOAD PUSH1 0x1F NOT DUP2 DUP5 SUB ADD DUP2 MSTORE SWAP2 DUP2 MSTORE PUSH1 0x20 DUP1 DUP4 ADD DUP1 MLOAD PUSH1 0x1 PUSH1 0x1 PUSH1 0xE0 SHL SUB AND PUSH4 0x8340F549 PUSH1 0xE0 SHL OR SWAP1 MSTORE DUP2 MLOAD PUSH4 0x5A991917 PUSH1 0xE0 SHL DUP2 MSTORE SWAP2 MLOAD PUSH1 0x1 PUSH1 0x1 PUSH1 0xA0 SHL SUB PUSH32 0x0 AND SWAP3 PUSH4 0x5A991917 SWAP3 PUSH1 0x4 DUP1 DUP4 ADD SWAP4 SWAP2 SWAP3 DUP3 SWAP1 SUB ADD DUP2 DUP7 GAS STATICCALL ISZERO DUP1 ISZERO PUSH2 0x4E2D JUMPI RETURNDATASIZE PUSH1 0x0 DUP1 RETURNDATACOPY RETURNDATASIZE PUSH1 0x0 REVERT JUMPDEST POP PUSH1 0x0 PUSH2 0x5188 DUP4 PUSH2 0x388A JUMP JUMPDEST SWAP1 POP PUSH1 0x0 DUP2 PUSH2 0x5196 DUP6 PUSH2 0x39E5 JUMP JUMPDEST PUSH2 0x51A0 SWAP2 SWAP1 PUSH2 0x5CFD JUMP JUMPDEST PUSH1 0x2 SLOAD SWAP1 SWAP2 POP PUSH2 0x51B0 DUP4 DUP4 PUSH2 0x3B88 JUMP JUMPDEST LT PUSH2 0x3AD1 JUMPI PUSH1 0x40 MLOAD PUSH1 0x1 PUSH1 0x1 PUSH1 0xA0 SHL SUB DUP6 AND PUSH1 0x24 DUP3 ADD MSTORE PUSH1 0x44 DUP2 ADD DUP4 SWAP1 MSTORE PUSH2 0x3CD2 SWAP1 PUSH1 0x64 ADD PUSH1 0x40 DUP1 MLOAD PUSH1 0x1F NOT DUP2 DUP5 SUB ADD DUP2 MSTORE SWAP2 DUP2 MSTORE PUSH1 0x20 DUP1 DUP4 ADD DUP1 MLOAD PUSH1 0x1 PUSH1 0x1 PUSH1 0xE0 SHL SUB AND PUSH4 0x11F9FBC9 PUSH1 0xE2 SHL OR SWAP1 MSTORE DUP2 MLOAD PUSH4 0x160A1D97 PUSH1 0xE3 SHL DUP2 MSTORE SWAP2 MLOAD PUSH1 0x1 PUSH1 0x1 PUSH1 0xA0 SHL SUB PUSH32 0x0 AND SWAP3 PUSH4 0xB050ECB8 SWAP3 PUSH1 0x4 DUP1 DUP4 ADD SWAP4 SWAP2 SWAP3 DUP3 SWAP1 SUB ADD DUP2 DUP7 GAS STATICCALL ISZERO DUP1 ISZERO PUSH2 0x4E2D JUMPI RETURNDATASIZE PUSH1 0x0 DUP1 RETURNDATACOPY RETURNDATASIZE PUSH1 0x0 REVERT JUMPDEST PUSH1 0x60 DUP2 PUSH1 0x0 ADD DUP1 SLOAD DUP1 PUSH1 0x20 MUL PUSH1 0x20 ADD PUSH1 0x40 MLOAD SWAP1 DUP2 ADD PUSH1 0x40 MSTORE DUP1 SWAP3 SWAP2 SWAP1 DUP2 DUP2 MSTORE PUSH1 0x20 ADD DUP3 DUP1 SLOAD DUP1 ISZERO PUSH2 0x52B0 JUMPI PUSH1 0x20 MUL DUP3 ADD SWAP2 SWAP1 PUSH1 0x0 MSTORE PUSH1 0x20 PUSH1 0x0 KECCAK256 SWAP1 JUMPDEST DUP2 SLOAD DUP2 MSTORE PUSH1 0x20 ADD SWAP1 PUSH1 0x1 ADD SWAP1 DUP1 DUP4 GT PUSH2 0x529C JUMPI JUMPDEST POP POP POP POP POP SWAP1 POP SWAP2 SWAP1 POP JUMP JUMPDEST PUSH1 0x0 DUP3 PUSH1 0x0 ADD DUP3 DUP2 SLOAD DUP2 LT PUSH2 0x52D3 JUMPI PUSH2 0x52D3 PUSH2 0x5CB8 JUMP JUMPDEST SWAP1 PUSH1 0x0 MSTORE PUSH1 0x20 PUSH1 0x0 KECCAK256 ADD SLOAD SWAP1 POP SWAP3 SWAP2 POP POP JUMP JUMPDEST PUSH1 0x0 DUP3 DUP2 MSTORE PUSH1 0x2 DUP5 ADD PUSH1 0x20 MSTORE PUSH1 0x40 DUP2 KECCAK256 DUP3 SWAP1 SSTORE PUSH2 0xEEA DUP5 DUP5 PUSH2 0x57F9 JUMP JUMPDEST PUSH1 0x0 DUP2 DUP2 MSTORE PUSH1 0x1 DUP4 ADD PUSH1 0x20 MSTORE PUSH1 0x40 DUP2 KECCAK256 SLOAD DUP1 ISZERO PUSH2 0x53EC JUMPI PUSH1 0x0 PUSH2 0x5327 PUSH1 0x1 DUP4 PUSH2 0x5D29 JUMP JUMPDEST DUP6 SLOAD SWAP1 SWAP2 POP PUSH1 0x0 SWAP1 PUSH2 0x533B SWAP1 PUSH1 0x1 SWAP1 PUSH2 0x5D29 JUMP JUMPDEST SWAP1 POP DUP2 DUP2 EQ PUSH2 0x53A0 JUMPI PUSH1 0x0 DUP7 PUSH1 0x0 ADD DUP3 DUP2 SLOAD DUP2 LT PUSH2 0x535B JUMPI PUSH2 0x535B PUSH2 0x5CB8 JUMP JUMPDEST SWAP1 PUSH1 0x0 MSTORE PUSH1 0x20 PUSH1 0x0 KECCAK256 ADD SLOAD SWAP1 POP DUP1 DUP8 PUSH1 0x0 ADD DUP5 DUP2 SLOAD DUP2 LT PUSH2 0x537E JUMPI PUSH2 0x537E PUSH2 0x5CB8 JUMP JUMPDEST PUSH1 0x0 SWAP2 DUP3 MSTORE PUSH1 0x20 DUP1 DUP4 KECCAK256 SWAP1 SWAP2 ADD SWAP3 SWAP1 SWAP3 SSTORE SWAP2 DUP3 MSTORE PUSH1 0x1 DUP9 ADD SWAP1 MSTORE PUSH1 0x40 SWAP1 KECCAK256 DUP4 SWAP1 SSTORE JUMPDEST DUP6 SLOAD DUP7 SWAP1 DUP1 PUSH2 0x53B1 JUMPI PUSH2 0x53B1 PUSH2 0x5EEC JUMP JUMPDEST PUSH1 0x1 SWAP1 SUB DUP2 DUP2 SWAP1 PUSH1 0x0 MSTORE PUSH1 0x20 PUSH1 0x0 KECCAK256 ADD PUSH1 0x0 SWAP1 SSTORE SWAP1 SSTORE DUP6 PUSH1 0x1 ADD PUSH1 0x0 DUP7 DUP2 MSTORE PUSH1 0x20 ADD SWAP1 DUP2 MSTORE PUSH1 0x20 ADD PUSH1 0x0 KECCAK256 PUSH1 0x0 SWAP1 SSTORE PUSH1 0x1 SWAP4 POP POP POP POP PUSH2 0x96D JUMP JUMPDEST PUSH1 0x0 SWAP2 POP POP PUSH2 0x96D JUMP JUMPDEST PUSH1 0x0 DUP2 DUP2 MSTORE PUSH1 0x2 DUP4 ADD PUSH1 0x20 MSTORE PUSH1 0x40 DUP2 KECCAK256 DUP2 SWAP1 SSTORE PUSH2 0x96A DUP4 DUP4 PUSH2 0x5805 JUMP JUMPDEST PUSH1 0x0 PUSH2 0x96A DUP4 DUP4 PUSH2 0x5811 JUMP JUMPDEST PUSH1 0x0 DUP2 DUP2 MSTORE PUSH1 0x1 DUP4 ADD PUSH1 0x20 MSTORE PUSH1 0x40 DUP2 KECCAK256 SLOAD PUSH2 0x5466 JUMPI POP DUP2 SLOAD PUSH1 0x1 DUP2 DUP2 ADD DUP5 SSTORE PUSH1 0x0 DUP5 DUP2 MSTORE PUSH1 0x20 DUP1 DUP3 KECCAK256 SWAP1 SWAP4 ADD DUP5 SWAP1 SSTORE DUP5 SLOAD DUP5 DUP3 MSTORE DUP3 DUP7 ADD SWAP1 SWAP4 MSTORE PUSH1 0x40 SWAP1 KECCAK256 SWAP2 SWAP1 SWAP2 SSTORE PUSH2 0x96D JUMP JUMPDEST POP PUSH1 0x0 PUSH2 0x96D JUMP JUMPDEST PUSH1 0x60 DUP4 ISZERO PUSH2 0x54DD JUMPI DUP3 MLOAD PUSH1 0x0 SUB PUSH2 0x54D6 JUMPI PUSH1 0x1 PUSH1 0x1 PUSH1 0xA0 SHL SUB DUP6 AND EXTCODESIZE PUSH2 0x54D6 JUMPI PUSH1 0x40 MLOAD PUSH3 0x461BCD PUSH1 0xE5 SHL DUP2 MSTORE PUSH1 0x20 PUSH1 0x4 DUP3 ADD MSTORE PUSH1 0x1D PUSH1 0x24 DUP3 ADD MSTORE PUSH32 0x416464726573733A2063616C6C20746F206E6F6E2D636F6E7472616374000000 PUSH1 0x44 DUP3 ADD MSTORE PUSH1 0x64 ADD PUSH2 0x2E8 JUMP JUMPDEST POP DUP2 PUSH2 0x12A9 JUMP JUMPDEST PUSH2 0x12A9 DUP4 DUP4 PUSH2 0x5829 JUMP JUMPDEST PUSH1 0x0 DUP2 PUSH1 0xFF AND DUP4 PUSH1 0xFF AND SUB PUSH2 0x54FD JUMPI POP DUP3 PUSH2 0xEED JUMP JUMPDEST DUP2 PUSH1 0xFF AND DUP4 PUSH1 0xFF AND GT ISZERO PUSH2 0x551D JUMPI PUSH2 0x5516 DUP5 DUP5 DUP5 PUSH2 0x5853 JUMP JUMPDEST SWAP1 POP PUSH2 0xEED JUMP JUMPDEST PUSH2 0xEEA DUP5 DUP5 DUP5 PUSH2 0x5874 JUMP JUMPDEST PUSH1 0x7 SLOAD PUSH1 0x0 SWAP1 PUSH1 0xFF AND PUSH2 0x553C JUMPI POP PUSH1 0x1 SLOAD SWAP1 JUMP JUMPDEST POP PUSH1 0x0 SWAP1 JUMP JUMPDEST PUSH1 0x0 PUSH2 0x96A PUSH32 0x0 PUSH1 0x1 PUSH1 0x1 PUSH1 0xA0 SHL SUB AND PUSH4 0x313CE567 PUSH1 0x40 MLOAD DUP2 PUSH4 0xFFFFFFFF AND PUSH1 0xE0 SHL DUP2 MSTORE PUSH1 0x4 ADD PUSH1 0x20 PUSH1 0x40 MLOAD DUP1 DUP4 SUB DUP2 DUP7 GAS STATICCALL ISZERO DUP1 ISZERO PUSH2 0x55A5 JUMPI RETURNDATASIZE PUSH1 0x0 DUP1 RETURNDATACOPY RETURNDATASIZE PUSH1 0x0 REVERT JUMPDEST POP POP POP POP PUSH1 0x40 MLOAD RETURNDATASIZE PUSH1 0x1F NOT PUSH1 0x1F DUP3 ADD AND DUP3 ADD DUP1 PUSH1 0x40 MSTORE POP DUP2 ADD SWAP1 PUSH2 0x55C9 SWAP2 SWAP1 PUSH2 0x5E7A JUMP JUMPDEST PUSH1 0x12 PUSH2 0x4715 PUSH32 0x0 PUSH1 0x1 PUSH1 0x1 PUSH1 0xA0 SHL SUB AND PUSH4 0x2630C12F PUSH1 0x40 MLOAD DUP2 PUSH4 0xFFFFFFFF AND PUSH1 0xE0 SHL DUP2 MSTORE PUSH1 0x4 ADD PUSH1 0x20 PUSH1 0x40 MLOAD DUP1 DUP4 SUB DUP2 DUP7 GAS STATICCALL ISZERO DUP1 ISZERO PUSH2 0x562C JUMPI RETURNDATASIZE PUSH1 0x0 DUP1 RETURNDATACOPY RETURNDATASIZE PUSH1 0x0 REVERT JUMPDEST POP POP POP POP PUSH1 0x40 MLOAD RETURNDATASIZE PUSH1 0x1F NOT PUSH1 0x1F DUP3 ADD AND DUP3 ADD DUP1 PUSH1 0x40 MSTORE POP DUP2 ADD SWAP1 PUSH2 0x5650 SWAP2 SWAP1 PUSH2 0x5C9B JUMP JUMPDEST PUSH1 0x40 MLOAD PUSH4 0x8B2F0F4F PUSH1 0xE0 SHL DUP2 MSTORE PUSH1 0x1 PUSH1 0x1 PUSH1 0xA0 SHL SUB DUP10 DUP2 AND PUSH1 0x4 DUP4 ADD MSTORE SWAP2 SWAP1 SWAP2 AND SWAP1 PUSH4 0x8B2F0F4F SWAP1 PUSH1 0x24 ADD PUSH1 0x20 PUSH1 0x40 MLOAD DUP1 DUP4 SUB DUP2 DUP7 GAS STATICCALL ISZERO DUP1 ISZERO PUSH2 0x5698 JUMPI RETURNDATASIZE PUSH1 0x0 DUP1 RETURNDATACOPY RETURNDATASIZE PUSH1 0x0 REVERT JUMPDEST POP POP POP POP PUSH1 0x40 MLOAD RETURNDATASIZE PUSH1 0x1F NOT PUSH1 0x1F DUP3 ADD AND DUP3 ADD DUP1 PUSH1 0x40 MSTORE POP DUP2 ADD SWAP1 PUSH2 0x56BC SWAP2 SWAP1 PUSH2 0x5D10 JUMP JUMPDEST PUSH2 0x34B9 PUSH32 0x0 PUSH1 0x1 PUSH1 0x1 PUSH1 0xA0 SHL SUB AND PUSH4 0x2630C12F PUSH1 0x40 MLOAD DUP2 PUSH4 0xFFFFFFFF AND PUSH1 0xE0 SHL DUP2 MSTORE PUSH1 0x4 ADD PUSH1 0x20 PUSH1 0x40 MLOAD DUP1 DUP4 SUB DUP2 DUP7 GAS STATICCALL ISZERO DUP1 ISZERO PUSH2 0x571D JUMPI RETURNDATASIZE PUSH1 0x0 DUP1 RETURNDATACOPY RETURNDATASIZE PUSH1 0x0 REVERT JUMPDEST POP POP POP POP PUSH1 0x40 MLOAD RETURNDATASIZE PUSH1 0x1F NOT PUSH1 0x1F DUP3 ADD AND DUP3 ADD DUP1 PUSH1 0x40 MSTORE POP DUP2 ADD SWAP1 PUSH2 0x5741 SWAP2 SWAP1 PUSH2 0x5C9B JUMP JUMPDEST PUSH1 0x40 MLOAD PUSH4 0x8B2F0F4F PUSH1 0xE0 SHL DUP2 MSTORE PUSH1 0x1 PUSH1 0x1 PUSH1 0xA0 SHL SUB PUSH32 0x0 DUP2 AND PUSH1 0x4 DUP4 ADD MSTORE SWAP2 SWAP1 SWAP2 AND SWAP1 PUSH4 0x8B2F0F4F SWAP1 PUSH1 0x24 ADD PUSH1 0x20 PUSH1 0x40 MLOAD DUP1 DUP4 SUB DUP2 DUP7 GAS STATICCALL ISZERO DUP1 ISZERO PUSH2 0x57A9 JUMPI RETURNDATASIZE PUSH1 0x0 DUP1 RETURNDATACOPY RETURNDATASIZE PUSH1 0x0 REVERT JUMPDEST POP POP POP POP PUSH1 0x40 MLOAD RETURNDATASIZE PUSH1 0x1F NOT PUSH1 0x1F DUP3 ADD AND DUP3 ADD DUP1 PUSH1 0x40 MSTORE POP DUP2 ADD SWAP1 PUSH2 0x57CD SWAP2 SWAP1 PUSH2 0x5D10 JUMP JUMPDEST DUP9 SWAP1 PUSH2 0x3658 JUMP JUMPDEST PUSH1 0x60 PUSH2 0x96A DUP4 DUP4 PUSH1 0x40 MLOAD DUP1 PUSH1 0x60 ADD PUSH1 0x40 MSTORE DUP1 PUSH1 0x27 DUP2 MSTORE PUSH1 0x20 ADD PUSH2 0x5F4F PUSH1 0x27 SWAP2 CODECOPY PUSH2 0x5895 JUMP JUMPDEST PUSH1 0x0 PUSH2 0x96A DUP4 DUP4 PUSH2 0x541F JUMP JUMPDEST PUSH1 0x0 PUSH2 0x96A DUP4 DUP4 PUSH2 0x5303 JUMP JUMPDEST PUSH1 0x0 DUP2 DUP2 MSTORE PUSH1 0x1 DUP4 ADD PUSH1 0x20 MSTORE PUSH1 0x40 DUP2 KECCAK256 SLOAD ISZERO ISZERO PUSH2 0x96A JUMP JUMPDEST DUP2 MLOAD ISZERO PUSH2 0x5839 JUMPI DUP2 MLOAD DUP1 DUP4 PUSH1 0x20 ADD REVERT JUMPDEST DUP1 PUSH1 0x40 MLOAD PUSH3 0x461BCD PUSH1 0xE5 SHL DUP2 MSTORE PUSH1 0x4 ADD PUSH2 0x2E8 SWAP2 SWAP1 PUSH2 0x5F02 JUMP JUMPDEST PUSH1 0x0 PUSH2 0x585F DUP3 DUP5 PUSH2 0x5F35 JUMP JUMPDEST PUSH2 0x586A SWAP1 PUSH1 0xA PUSH2 0x5E9D JUMP JUMPDEST PUSH2 0xEEA SWAP1 DUP6 PUSH2 0x5E58 JUMP JUMPDEST PUSH1 0x0 PUSH2 0x5880 DUP4 DUP4 PUSH2 0x5F35 JUMP JUMPDEST PUSH2 0x588B SWAP1 PUSH1 0xA PUSH2 0x5E9D JUMP JUMPDEST PUSH2 0xEEA SWAP1 DUP6 PUSH2 0x5E41 JUMP JUMPDEST PUSH1 0x60 PUSH1 0x0 DUP1 DUP6 PUSH1 0x1 PUSH1 0x1 PUSH1 0xA0 SHL SUB AND DUP6 PUSH1 0x40 MLOAD PUSH2 0x58B2 SWAP2 SWAP1 PUSH2 0x5ED0 JUMP JUMPDEST PUSH1 0x0 PUSH1 0x40 MLOAD DUP1 DUP4 SUB DUP2 DUP6 GAS DELEGATECALL SWAP2 POP POP RETURNDATASIZE DUP1 PUSH1 0x0 DUP2 EQ PUSH2 0x58ED JUMPI PUSH1 0x40 MLOAD SWAP2 POP PUSH1 0x1F NOT PUSH1 0x3F RETURNDATASIZE ADD AND DUP3 ADD PUSH1 0x40 MSTORE RETURNDATASIZE DUP3 MSTORE RETURNDATASIZE PUSH1 0x0 PUSH1 0x20 DUP5 ADD RETURNDATACOPY PUSH2 0x58F2 JUMP JUMPDEST PUSH1 0x60 SWAP2 POP JUMPDEST POP SWAP2 POP SWAP2 POP PUSH2 0x5903 DUP7 DUP4 DUP4 DUP8 PUSH2 0x546E JUMP JUMPDEST SWAP7 SWAP6 POP POP POP POP POP POP JUMP JUMPDEST PUSH1 0x0 DUP1 PUSH1 0x40 DUP4 DUP6 SUB SLT ISZERO PUSH2 0x5920 JUMPI PUSH1 0x0 DUP1 REVERT JUMPDEST POP POP DUP1 CALLDATALOAD SWAP3 PUSH1 0x20 SWAP1 SWAP2 ADD CALLDATALOAD SWAP2 POP JUMP JUMPDEST PUSH1 0x20 DUP1 DUP3 MSTORE DUP3 MLOAD DUP3 DUP3 ADD DUP2 SWAP1 MSTORE PUSH1 0x0 SWAP2 SWAP1 PUSH1 0x40 SWAP1 DUP2 DUP6 ADD SWAP1 DUP7 DUP5 ADD DUP6 JUMPDEST DUP3 DUP2 LT ISZERO PUSH2 0x5982 JUMPI PUSH2 0x5972 DUP5 DUP4 MLOAD DUP1 MLOAD PUSH1 0x1 PUSH1 0x1 PUSH1 0xA0 SHL SUB AND DUP3 MSTORE PUSH1 0x20 SWAP1 DUP2 ADD MLOAD SWAP2 ADD MSTORE JUMP JUMPDEST SWAP3 DUP5 ADD SWAP3 SWAP1 DUP6 ADD SWAP1 PUSH1 0x1 ADD PUSH2 0x594C JUMP JUMPDEST POP SWAP2 SWAP8 SWAP7 POP POP POP POP POP POP POP JUMP JUMPDEST PUSH1 0x0 PUSH1 0x20 DUP3 DUP5 SUB SLT ISZERO PUSH2 0x59A1 JUMPI PUSH1 0x0 DUP1 REVERT JUMPDEST POP CALLDATALOAD SWAP2 SWAP1 POP JUMP JUMPDEST PUSH1 0x0 PUSH1 0x60 DUP3 ADD DUP6 DUP4 MSTORE PUSH1 0x20 DUP6 DUP2 DUP6 ADD MSTORE PUSH1 0x60 PUSH1 0x40 DUP6 ADD MSTORE DUP2 DUP6 MLOAD DUP1 DUP5 MSTORE PUSH1 0x80 DUP7 ADD SWAP2 POP DUP3 DUP8 ADD SWAP4 POP PUSH1 0x0 JUMPDEST DUP2 DUP2 LT ISZERO PUSH2 0x59EF JUMPI DUP5 MLOAD DUP4 MSTORE SWAP4 DUP4 ADD SWAP4 SWAP2 DUP4 ADD SWAP2 PUSH1 0x1 ADD PUSH2 0x59D3 JUMP JUMPDEST POP SWAP1 SWAP9 SWAP8 POP POP POP POP POP POP POP POP JUMP JUMPDEST PUSH1 0x1 PUSH1 0x1 PUSH1 0xA0 SHL SUB DUP2 AND DUP2 EQ PUSH2 0x2919 JUMPI PUSH1 0x0 DUP1 REVERT JUMPDEST PUSH1 0x0 PUSH1 0x20 DUP3 DUP5 SUB SLT ISZERO PUSH2 0x5A24 JUMPI PUSH1 0x0 DUP1 REVERT JUMPDEST DUP2 CALLDATALOAD PUSH2 0x96A DUP2 PUSH2 0x59FD JUMP JUMPDEST DUP1 ISZERO ISZERO DUP2 EQ PUSH2 0x2919 JUMPI PUSH1 0x0 DUP1 REVERT JUMPDEST PUSH1 0x0 DUP1 PUSH1 0x0 PUSH1 0x60 DUP5 DUP7 SUB SLT ISZERO PUSH2 0x5A52 JUMPI PUSH1 0x0 DUP1 REVERT JUMPDEST DUP4 CALLDATALOAD SWAP3 POP PUSH1 0x20 DUP5 ADD CALLDATALOAD SWAP2 POP PUSH1 0x40 DUP5 ADD CALLDATALOAD PUSH2 0x5A6B DUP2 PUSH2 0x5A2F JUMP JUMPDEST DUP1 SWAP2 POP POP SWAP3 POP SWAP3 POP SWAP3 JUMP JUMPDEST PUSH1 0x0 DUP1 PUSH1 0x0 DUP1 PUSH1 0x80 DUP6 DUP8 SUB SLT ISZERO PUSH2 0x5A8C JUMPI PUSH1 0x0 DUP1 REVERT JUMPDEST DUP5 CALLDATALOAD PUSH2 0x5A97 DUP2 PUSH2 0x59FD JUMP JUMPDEST SWAP4 POP PUSH1 0x20 DUP6 ADD CALLDATALOAD SWAP3 POP PUSH1 0x40 DUP6 ADD CALLDATALOAD SWAP2 POP PUSH1 0x60 DUP6 ADD CALLDATALOAD PUSH2 0x5AB5 DUP2 PUSH2 0x5A2F JUMP JUMPDEST SWAP4 SWAP7 SWAP3 SWAP6 POP SWAP1 SWAP4 POP POP JUMP JUMPDEST PUSH1 0x20 DUP1 DUP3 MSTORE DUP3 MLOAD DUP3 DUP3 ADD DUP2 SWAP1 MSTORE PUSH1 0x0 SWAP2 SWAP1 DUP5 DUP3 ADD SWAP1 PUSH1 0x40 DUP6 ADD SWAP1 DUP5 JUMPDEST DUP2 DUP2 LT ISZERO PUSH2 0x5B01 JUMPI DUP4 MLOAD PUSH1 0x1 PUSH1 0x1 PUSH1 0xA0 SHL SUB AND DUP4 MSTORE SWAP3 DUP5 ADD SWAP3 SWAP2 DUP5 ADD SWAP2 PUSH1 0x1 ADD PUSH2 0x5ADC JUMP JUMPDEST POP SWAP1 SWAP7 SWAP6 POP POP POP POP POP POP JUMP JUMPDEST PUSH1 0x20 DUP1 DUP3 MSTORE DUP3 MLOAD DUP3 DUP3 ADD DUP2 SWAP1 MSTORE PUSH1 0x0 SWAP2 SWAP1 PUSH1 0x40 SWAP1 DUP2 DUP6 ADD SWAP1 DUP7 DUP5 ADD DUP6 JUMPDEST DUP3 DUP2 LT ISZERO PUSH2 0x5982 JUMPI PUSH2 0x5B50 DUP5 DUP4 MLOAD DUP1 MLOAD PUSH1 0x1 PUSH1 0x1 PUSH1 0xA0 SHL SUB AND DUP3 MSTORE PUSH1 0x20 SWAP1 DUP2 ADD MLOAD SWAP2 ADD MSTORE JUMP JUMPDEST SWAP3 DUP5 ADD SWAP3 SWAP1 DUP6 ADD SWAP1 PUSH1 0x1 ADD PUSH2 0x5B2A JUMP JUMPDEST PUSH4 0x4E487B71 PUSH1 0xE0 SHL PUSH1 0x0 MSTORE PUSH1 0x41 PUSH1 0x4 MSTORE PUSH1 0x24 PUSH1 0x0 REVERT JUMPDEST PUSH1 0x40 DUP1 MLOAD SWAP1 DUP2 ADD PUSH8 0xFFFFFFFFFFFFFFFF DUP2 GT DUP3 DUP3 LT OR ISZERO PUSH2 0x5B99 JUMPI PUSH2 0x5B99 PUSH2 0x5B60 JUMP JUMPDEST PUSH1 0x40 MSTORE SWAP1 JUMP JUMPDEST PUSH1 0x40 MLOAD PUSH1 0x1F DUP3 ADD PUSH1 0x1F NOT AND DUP2 ADD PUSH8 0xFFFFFFFFFFFFFFFF DUP2 GT DUP3 DUP3 LT OR ISZERO PUSH2 0x5BC8 JUMPI PUSH2 0x5BC8 PUSH2 0x5B60 JUMP JUMPDEST PUSH1 0x40 MSTORE SWAP2 SWAP1 POP JUMP JUMPDEST PUSH1 0x0 PUSH1 0x20 DUP1 DUP4 DUP6 SUB SLT ISZERO PUSH2 0x5BE3 JUMPI PUSH1 0x0 DUP1 REVERT JUMPDEST DUP3 CALLDATALOAD PUSH8 0xFFFFFFFFFFFFFFFF DUP1 DUP3 GT ISZERO PUSH2 0x5BFB JUMPI PUSH1 0x0 DUP1 REVERT JUMPDEST DUP2 DUP6 ADD SWAP2 POP DUP6 PUSH1 0x1F DUP4 ADD SLT PUSH2 0x5C0F JUMPI PUSH1 0x0 DUP1 REVERT JUMPDEST DUP2 CALLDATALOAD DUP2 DUP2 GT ISZERO PUSH2 0x5C21 JUMPI PUSH2 0x5C21 PUSH2 0x5B60 JUMP JUMPDEST PUSH2 0x5C2F DUP5 DUP3 PUSH1 0x5 SHL ADD PUSH2 0x5B9F JUMP JUMPDEST DUP2 DUP2 MSTORE DUP5 DUP2 ADD SWAP3 POP PUSH1 0x6 SWAP2 SWAP1 SWAP2 SHL DUP4 ADD DUP5 ADD SWAP1 DUP8 DUP3 GT ISZERO PUSH2 0x5C4F JUMPI PUSH1 0x0 DUP1 REVERT JUMPDEST SWAP3 DUP5 ADD SWAP3 JUMPDEST DUP2 DUP5 LT ISZERO PUSH2 0x4561 JUMPI PUSH1 0x40 DUP5 DUP10 SUB SLT ISZERO PUSH2 0x5C6D JUMPI PUSH1 0x0 DUP1 DUP2 REVERT JUMPDEST PUSH2 0x5C75 PUSH2 0x5B76 JUMP JUMPDEST DUP5 CALLDATALOAD PUSH2 0x5C80 DUP2 PUSH2 0x59FD JUMP JUMPDEST DUP2 MSTORE DUP5 DUP7 ADD CALLDATALOAD DUP7 DUP3 ADD MSTORE DUP4 MSTORE PUSH1 0x40 SWAP1 SWAP4 ADD SWAP3 SWAP2 DUP5 ADD SWAP2 PUSH2 0x5C54 JUMP JUMPDEST PUSH1 0x0 PUSH1 0x20 DUP3 DUP5 SUB SLT ISZERO PUSH2 0x5CAD JUMPI PUSH1 0x0 DUP1 REVERT JUMPDEST DUP2 MLOAD PUSH2 0x96A DUP2 PUSH2 0x59FD JUMP JUMPDEST PUSH4 0x4E487B71 PUSH1 0xE0 SHL PUSH1 0x0 MSTORE PUSH1 0x32 PUSH1 0x4 MSTORE PUSH1 0x24 PUSH1 0x0 REVERT JUMPDEST PUSH4 0x4E487B71 PUSH1 0xE0 SHL PUSH1 0x0 MSTORE PUSH1 0x11 PUSH1 0x4 MSTORE PUSH1 0x24 PUSH1 0x0 REVERT JUMPDEST PUSH1 0x0 PUSH1 0x1 DUP3 ADD PUSH2 0x5CF6 JUMPI PUSH2 0x5CF6 PUSH2 0x5CCE JUMP JUMPDEST POP PUSH1 0x1 ADD SWAP1 JUMP JUMPDEST DUP1 DUP3 ADD DUP1 DUP3 GT ISZERO PUSH2 0x96D JUMPI PUSH2 0x96D PUSH2 0x5CCE JUMP JUMPDEST PUSH1 0x0 PUSH1 0x20 DUP3 DUP5 SUB SLT ISZERO PUSH2 0x5D22 JUMPI PUSH1 0x0 DUP1 REVERT JUMPDEST POP MLOAD SWAP2 SWAP1 POP JUMP JUMPDEST DUP2 DUP2 SUB DUP2 DUP2 GT ISZERO PUSH2 0x96D JUMPI PUSH2 0x96D PUSH2 0x5CCE JUMP JUMPDEST PUSH1 0x1 DUP2 DUP2 JUMPDEST DUP1 DUP6 GT ISZERO PUSH2 0x4F7B JUMPI DUP2 PUSH1 0x0 NOT DIV DUP3 GT ISZERO PUSH2 0x5D5D JUMPI PUSH2 0x5D5D PUSH2 0x5CCE JUMP JUMPDEST DUP1 DUP6 AND ISZERO PUSH2 0x5D6A JUMPI SWAP2 DUP2 MUL SWAP2 JUMPDEST SWAP4 DUP5 SHR SWAP4 SWAP1 DUP1 MUL SWAP1 PUSH2 0x5D41 JUMP JUMPDEST PUSH1 0x0 DUP3 PUSH2 0x5D86 JUMPI POP PUSH1 0x1 PUSH2 0x96D JUMP JUMPDEST DUP2 PUSH2 0x5D93 JUMPI POP PUSH1 0x0 PUSH2 0x96D JUMP JUMPDEST DUP2 PUSH1 0x1 DUP2 EQ PUSH2 0x5DA9 JUMPI PUSH1 0x2 DUP2 EQ PUSH2 0x5DB3 JUMPI PUSH2 0x5DCF JUMP JUMPDEST PUSH1 0x1 SWAP2 POP POP PUSH2 0x96D JUMP JUMPDEST PUSH1 0xFF DUP5 GT ISZERO PUSH2 0x5DC4 JUMPI PUSH2 0x5DC4 PUSH2 0x5CCE JUMP JUMPDEST POP POP PUSH1 0x1 DUP3 SHL PUSH2 0x96D JUMP JUMPDEST POP PUSH1 0x20 DUP4 LT PUSH2 0x133 DUP4 LT AND PUSH1 0x4E DUP5 LT PUSH1 0xB DUP5 LT AND OR ISZERO PUSH2 0x5DF2 JUMPI POP DUP2 DUP2 EXP PUSH2 0x96D JUMP JUMPDEST PUSH2 0x5DFC DUP4 DUP4 PUSH2 0x5D3C JUMP JUMPDEST DUP1 PUSH1 0x0 NOT DIV DUP3 GT ISZERO PUSH2 0x5E10 JUMPI PUSH2 0x5E10 PUSH2 0x5CCE JUMP JUMPDEST MUL SWAP4 SWAP3 POP POP POP JUMP JUMPDEST PUSH1 0x0 PUSH2 0x96A DUP4 DUP4 PUSH2 0x5D77 JUMP JUMPDEST PUSH1 0x0 PUSH1 0x20 DUP3 DUP5 SUB SLT ISZERO PUSH2 0x5E36 JUMPI PUSH1 0x0 DUP1 REVERT JUMPDEST DUP2 MLOAD PUSH2 0x96A DUP2 PUSH2 0x5A2F JUMP JUMPDEST DUP1 DUP3 MUL DUP2 ISZERO DUP3 DUP3 DIV DUP5 EQ OR PUSH2 0x96D JUMPI PUSH2 0x96D PUSH2 0x5CCE JUMP JUMPDEST PUSH1 0x0 DUP3 PUSH2 0x5E75 JUMPI PUSH4 0x4E487B71 PUSH1 0xE0 SHL PUSH1 0x0 MSTORE PUSH1 0x12 PUSH1 0x4 MSTORE PUSH1 0x24 PUSH1 0x0 REVERT JUMPDEST POP DIV SWAP1 JUMP JUMPDEST PUSH1 0x0 PUSH1 0x20 DUP3 DUP5 SUB SLT ISZERO PUSH2 0x5E8C JUMPI PUSH1 0x0 DUP1 REVERT JUMPDEST DUP2 MLOAD PUSH1 0xFF DUP2 AND DUP2 EQ PUSH2 0x96A JUMPI PUSH1 0x0 DUP1 REVERT JUMPDEST PUSH1 0x0 PUSH2 0x96A PUSH1 0xFF DUP5 AND DUP4 PUSH2 0x5D77 JUMP JUMPDEST PUSH1 0x0 JUMPDEST DUP4 DUP2 LT ISZERO PUSH2 0x5EC7 JUMPI DUP2 DUP2 ADD MLOAD DUP4 DUP3 ADD MSTORE PUSH1 0x20 ADD PUSH2 0x5EAF JUMP JUMPDEST POP POP PUSH1 0x0 SWAP2 ADD MSTORE JUMP JUMPDEST PUSH1 0x0 DUP3 MLOAD PUSH2 0x5EE2 DUP2 DUP5 PUSH1 0x20 DUP8 ADD PUSH2 0x5EAC JUMP JUMPDEST SWAP2 SWAP1 SWAP2 ADD SWAP3 SWAP2 POP POP JUMP JUMPDEST PUSH4 0x4E487B71 PUSH1 0xE0 SHL PUSH1 0x0 MSTORE PUSH1 0x31 PUSH1 0x4 MSTORE PUSH1 0x24 PUSH1 0x0 REVERT JUMPDEST PUSH1 0x20 DUP2 MSTORE PUSH1 0x0 DUP3 MLOAD DUP1 PUSH1 0x20 DUP5 ADD MSTORE PUSH2 0x5F21 DUP2 PUSH1 0x40 DUP6 ADD PUSH1 0x20 DUP8 ADD PUSH2 0x5EAC JUMP JUMPDEST PUSH1 0x1F ADD PUSH1 0x1F NOT AND SWAP2 SWAP1 SWAP2 ADD PUSH1 0x40 ADD SWAP3 SWAP2 POP POP JUMP JUMPDEST PUSH1 0xFF DUP3 DUP2 AND DUP3 DUP3 AND SUB SWAP1 DUP2 GT ISZERO PUSH2 0x96D JUMPI PUSH2 0x96D PUSH2 0x5CCE JUMP INVALID COINBASE PUSH5 0x6472657373 GASPRICE KECCAK256 PUSH13 0x6F772D6C6576656C2064656C65 PUSH8 0x6174652063616C6C KECCAK256 PUSH7 0x61696C6564A264 PUSH10 0x70667358221220CECE56 0xCA SWAP3 DUP13 0x4E DUP12 0x2A CALLDATALOAD SELFDESTRUCT POP XOR 0x2D PUSH21 0x5E2DBF1945167A467D1B9522F3DEF631AB64736F6C PUSH4 0x43000811 STOP CALLER ","sha1":"26debab13efbc17b321b080f5245a4b2288d4f39","source":"// SPDX-License-Identifier: GPL-3.0-or-later\npragma solidity 0.8.17;\n\nimport \"@openzeppelin/contracts/access/Ownable.sol\";\nimport \"@openzeppelin/contracts/token/ERC20/ERC20.sol\";\nimport \"@openzeppelin/contracts/utils/Address.sol\";\nimport \"@openzeppelin/contracts/utils/structs/EnumerableSet.sol\";\nimport \"@openzeppelin/contracts/utils/structs/EnumerableMap.sol\";\nimport \"@openzeppelin/contracts/token/ERC20/IERC20.sol\";\nimport \"@openzeppelin/contracts/token/ERC20/utils/SafeERC20.sol\";\nimport \"@openzeppelin/contracts/token/ERC20/extensions/IERC20Metadata.sol\";\n\nimport \"../interfaces/pools/IConicPool.sol\";\nimport \"../interfaces/pools/IRewardManager.sol\";\nimport \"../interfaces/ICurveHandlerV3.sol\";\nimport \"../interfaces/ICurveRegistryCache.sol\";\nimport \"../interfaces/tokenomics/IInflationManager.sol\";\nimport \"../interfaces/tokenomics/ILpTokenStaker.sol\";\nimport \"../interfaces/IConvexHandler.sol\";\nimport \"../interfaces/IController.sol\";\nimport \"../interfaces/IOracle.sol\";\nimport \"../interfaces/vendor/IBaseRewardPool.sol\";\n\nimport \"./LpToken.sol\";\nimport \"./RewardManagerV2.sol\";\n\nimport \"../libraries/ScaledMath.sol\";\nimport \"../libraries/ArrayExtensions.sol\";\n\ncontract ConicEthPool is IConicPool, Ownable {\n    using ArrayExtensions for uint256[];\n    using EnumerableSet for EnumerableSet.AddressSet;\n    using EnumerableMap for EnumerableMap.AddressToUintMap;\n    using SafeERC20 for IERC20;\n    using SafeERC20 for IERC20Metadata;\n    using SafeERC20 for ILpToken;\n    using ScaledMath for uint256;\n    using Address for address;\n\n    // Avoid stack depth errors\n    struct DepositVars {\n        uint256 exchangeRate;\n        uint256 underlyingBalanceIncrease;\n        uint256 mintableUnderlyingAmount;\n        uint256 lpReceived;\n        uint256 underlyingBalanceBefore;\n        uint256 allocatedBalanceBefore;\n        uint256[] allocatedPerPoolBefore;\n        uint256 underlyingBalanceAfter;\n        uint256 allocatedBalanceAfter;\n        uint256[] allocatedPerPoolAfter;\n    }\n\n    uint256 internal constant _IDLE_RATIO_UPPER_BOUND = 0.2e18;\n    uint256 internal constant _MIN_DEPEG_THRESHOLD = 0.01e18;\n    uint256 internal constant _MAX_DEPEG_THRESHOLD = 0.1e18;\n    uint256 internal constant _MAX_DEVIATION_UPPER_BOUND = 0.2e18;\n    uint256 internal constant _TOTAL_UNDERLYING_CACHE_EXPIRY = 3 days;\n    uint256 internal constant _MAX_USD_LP_VALUE_FOR_REMOVING_CURVE_POOL = 100e18;\n\n    IERC20 internal immutable CVX;\n    IERC20 internal immutable CRV;\n    IERC20 internal constant CNC = IERC20(0x9aE380F0272E2162340a5bB646c354271c0F5cFC);\n    address internal constant _WETH_ADDRESS = 0xC02aaA39b223FE8D0A0e5C4F27eAD9083C756Cc2;\n\n    IERC20Metadata public immutable override underlying;\n    ILpToken public immutable override lpToken;\n\n    IRewardManager public immutable rewardManager;\n    IController public immutable controller;\n\n    /// @dev once the deviation gets under this threshold, the reward distribution will be paused\n    /// until the next rebalancing. This is expressed as a ratio, scaled with 18 decimals\n    uint256 public maxDeviation = 0.02e18; // 2%\n    uint256 public maxIdleCurveLpRatio = 0.05e18; // triggers Convex staking when exceeded\n    bool public isShutdown;\n    uint256 public depegThreshold = 0.03e18; // 3%\n    uint256 internal _cacheUpdatedTimestamp;\n    uint256 internal _cachedTotalUnderlying;\n\n    /// @dev `true` while the reward distribution is active\n    bool public rebalancingRewardActive;\n\n    EnumerableSet.AddressSet internal _curvePools;\n    EnumerableMap.AddressToUintMap internal weights; // liquidity allocation weights\n\n    /// @dev the absolute value in terms of USD of the total deviation after\n    /// the weights have been updated\n    uint256 public totalDeviationAfterWeightUpdate;\n\n    mapping(address => uint256) _cachedPrices;\n\n    modifier onlyController() {\n        require(msg.sender == address(controller), \"not authorized\");\n        _;\n    }\n\n    constructor(\n        address _underlying,\n        IRewardManager _rewardManager,\n        address _controller,\n        string memory _lpTokenName,\n        string memory _symbol,\n        address _cvx,\n        address _crv\n    ) {\n        require(\n            _underlying != _cvx && _underlying != _crv && _underlying != address(CNC),\n            \"invalid underlying\"\n        );\n        underlying = IERC20Metadata(_underlying);\n        controller = IController(_controller);\n        uint8 decimals = IERC20Metadata(_underlying).decimals();\n        lpToken = new LpToken(address(this), decimals, _lpTokenName, _symbol);\n        rewardManager = _rewardManager;\n\n        CVX = IERC20(_cvx);\n        CRV = IERC20(_crv);\n        CVX.safeApprove(address(_rewardManager), type(uint256).max);\n        CRV.safeApprove(address(_rewardManager), type(uint256).max);\n        CNC.safeApprove(address(_rewardManager), type(uint256).max);\n    }\n\n    /// @dev We always delegate-call to the Curve handler, which means\n    /// that we need to be able to receive the ETH to unwrap it and\n    /// send it to the Curve pool, as well as to receive it back from\n    /// the Curve pool when withdrawing\n    receive() external payable {\n        require(address(underlying) == _WETH_ADDRESS, \"not WETH pool\");\n    }\n\n    /// @notice Deposit underlying on behalf of someone\n    /// @param underlyingAmount Amount of underlying to deposit\n    /// @param minLpReceived The minimum amount of LP to accept from the deposit\n    /// @return lpReceived The amount of LP received\n    function depositFor(\n        address account,\n        uint256 underlyingAmount,\n        uint256 minLpReceived,\n        bool stake\n    ) public override returns (uint256) {\n        DepositVars memory vars;\n\n        // Preparing deposit\n        require(!isShutdown, \"pool is shutdown\");\n        require(underlyingAmount > 0, \"deposit amount cannot be zero\");\n        uint256 underlyingPrice_ = controller.priceOracle().getUSDPrice(address(underlying));\n        (\n            vars.underlyingBalanceBefore,\n            vars.allocatedBalanceBefore,\n            vars.allocatedPerPoolBefore\n        ) = _getTotalAndPerPoolUnderlying(underlyingPrice_);\n        vars.exchangeRate = _exchangeRate(vars.underlyingBalanceBefore);\n\n        // Executing deposit\n        underlying.safeTransferFrom(msg.sender, address(this), underlyingAmount);\n        _depositToCurve(\n            vars.allocatedBalanceBefore,\n            vars.allocatedPerPoolBefore,\n            underlying.balanceOf(address(this))\n        );\n\n        // Minting LP Tokens\n        (\n            vars.underlyingBalanceAfter,\n            vars.allocatedBalanceAfter,\n            vars.allocatedPerPoolAfter\n        ) = _getTotalAndPerPoolUnderlying(underlyingPrice_);\n        vars.underlyingBalanceIncrease = vars.underlyingBalanceAfter - vars.underlyingBalanceBefore;\n        vars.mintableUnderlyingAmount = _min(underlyingAmount, vars.underlyingBalanceIncrease);\n        vars.lpReceived = vars.mintableUnderlyingAmount.divDown(vars.exchangeRate);\n        require(vars.lpReceived >= minLpReceived, \"too much slippage\");\n\n        if (stake) {\n            lpToken.mint(address(this), vars.lpReceived);\n            ILpTokenStaker lpTokenStaker = controller.lpTokenStaker();\n            lpToken.safeApprove(address(lpTokenStaker), vars.lpReceived);\n            lpTokenStaker.stakeFor(vars.lpReceived, address(this), account);\n        } else {\n            lpToken.mint(account, vars.lpReceived);\n        }\n\n        _handleRebalancingRewards(\n            account,\n            vars.allocatedBalanceBefore,\n            vars.allocatedPerPoolBefore,\n            vars.allocatedBalanceAfter,\n            vars.allocatedPerPoolAfter\n        );\n\n        _cachedTotalUnderlying = vars.underlyingBalanceAfter;\n        _cacheUpdatedTimestamp = block.timestamp;\n\n        emit Deposit(msg.sender, account, underlyingAmount, vars.lpReceived);\n        _reentrancyCheck();\n        return vars.lpReceived;\n    }\n\n    /// @notice Deposit underlying\n    /// @param underlyingAmount Amount of underlying to deposit\n    /// @param minLpReceived The minimum amoun of LP to accept from the deposit\n    /// @return lpReceived The amount of LP received\n    function deposit(\n        uint256 underlyingAmount,\n        uint256 minLpReceived\n    ) external override returns (uint256) {\n        return depositFor(msg.sender, underlyingAmount, minLpReceived, true);\n    }\n\n    /// @notice Deposit underlying\n    /// @param underlyingAmount Amount of underlying to deposit\n    /// @param minLpReceived The minimum amoun of LP to accept from the deposit\n    /// @param stake Whether or not to stake in the LpTokenStaker\n    /// @return lpReceived The amount of LP received\n    function deposit(\n        uint256 underlyingAmount,\n        uint256 minLpReceived,\n        bool stake\n    ) external override returns (uint256) {\n        return depositFor(msg.sender, underlyingAmount, minLpReceived, stake);\n    }\n\n    function _depositToCurve(\n        uint256 totalUnderlying_,\n        uint256[] memory allocatedPerPool,\n        uint256 underlyingAmount_\n    ) internal {\n        uint256 depositsRemaining_ = underlyingAmount_;\n        uint256 totalAfterDeposit_ = totalUnderlying_ + underlyingAmount_;\n\n        // NOTE: avoid modifying `allocatedPerPool`\n        uint256[] memory allocatedPerPoolCopy = allocatedPerPool.copy();\n\n        while (depositsRemaining_ > 0) {\n            (uint256 curvePoolIndex_, uint256 maxDeposit_) = _getDepositPool(\n                totalAfterDeposit_,\n                allocatedPerPoolCopy\n            );\n            // account for rounding errors\n            if (depositsRemaining_ < maxDeposit_ + 1e2) {\n                maxDeposit_ = depositsRemaining_;\n            }\n\n            address curvePool_ = _curvePools.at(curvePoolIndex_);\n\n            // Depositing into least balanced pool\n            uint256 toDeposit_ = _min(depositsRemaining_, maxDeposit_);\n            _depositToCurvePool(curvePool_, toDeposit_);\n            depositsRemaining_ -= toDeposit_;\n            allocatedPerPoolCopy[curvePoolIndex_] += toDeposit_;\n        }\n    }\n\n    function _getDepositPool(\n        uint256 totalUnderlying_,\n        uint256[] memory allocatedPerPool\n    ) internal view returns (uint256 poolIndex, uint256 maxDepositAmount) {\n        uint256 curvePoolCount_ = allocatedPerPool.length;\n        int256 iPoolIndex = -1;\n        for (uint256 i; i < curvePoolCount_; i++) {\n            address curvePool_ = _curvePools.at(i);\n            uint256 allocatedUnderlying_ = allocatedPerPool[i];\n            uint256 targetAllocation_ = totalUnderlying_.mulDown(weights.get(curvePool_));\n            if (allocatedUnderlying_ >= targetAllocation_) continue;\n            uint256 maxBalance_ = targetAllocation_ + targetAllocation_.mulDown(_getMaxDeviation());\n            uint256 maxDepositAmount_ = maxBalance_ - allocatedUnderlying_;\n            if (maxDepositAmount_ <= maxDepositAmount) continue;\n            maxDepositAmount = maxDepositAmount_;\n            iPoolIndex = int256(i);\n        }\n        require(iPoolIndex > -1, \"error retrieving deposit pool\");\n        poolIndex = uint256(iPoolIndex);\n    }\n\n    function _depositToCurvePool(address curvePool_, uint256 underlyingAmount_) internal {\n        if (underlyingAmount_ == 0) return;\n        controller.curveHandler().functionDelegateCall(\n            abi.encodeWithSignature(\n                \"deposit(address,address,uint256)\",\n                curvePool_,\n                underlying,\n                underlyingAmount_\n            )\n        );\n\n        uint256 idleCurveLpBalance_ = _idleCurveLpBalance(curvePool_);\n        uint256 totalCurveLpBalance_ = _stakedCurveLpBalance(curvePool_) + idleCurveLpBalance_;\n\n        if (idleCurveLpBalance_.divDown(totalCurveLpBalance_) >= maxIdleCurveLpRatio) {\n            controller.convexHandler().functionDelegateCall(\n                abi.encodeWithSignature(\"deposit(address,uint256)\", curvePool_, idleCurveLpBalance_)\n            );\n        }\n    }\n\n    /// @notice Get current underlying balance of pool\n    function totalUnderlying() public view virtual returns (uint256) {\n        (uint256 totalUnderlying_, , ) = getTotalAndPerPoolUnderlying();\n\n        return totalUnderlying_;\n    }\n\n    function _exchangeRate(uint256 totalUnderlying_) internal view returns (uint256) {\n        uint256 lpSupply = lpToken.totalSupply();\n        if (lpSupply == 0 || totalUnderlying_ == 0) return ScaledMath.ONE;\n\n        return totalUnderlying_.divDown(lpSupply);\n    }\n\n    /// @notice Get current exchange rate for the pool's LP token to the underlying\n    function exchangeRate() public view virtual override returns (uint256) {\n        return _exchangeRate(totalUnderlying());\n    }\n\n    /// @notice Get current exchange rate for the pool's LP token to USD\n    /// @dev This is using the cached total underlying value, so is not precisely accurate.\n    function usdExchangeRate() external view virtual override returns (uint256) {\n        uint256 underlyingPrice = controller.priceOracle().getUSDPrice(address(underlying));\n        return _exchangeRate(_cachedTotalUnderlying).mulDown(underlyingPrice);\n    }\n\n    /// @notice Unstake LP Tokens and withdraw underlying\n    /// @param conicLpAmount Amount of LP tokens to burn\n    /// @param minUnderlyingReceived Minimum amount of underlying to redeem\n    /// This should always be set to a reasonable value (e.g. 2%), otherwise\n    /// the user withdrawing could be forced into paying a withdrawal penalty fee\n    /// by another user\n    /// @return uint256 Total underlying withdrawn\n    function unstakeAndWithdraw(\n        uint256 conicLpAmount,\n        uint256 minUnderlyingReceived\n    ) external returns (uint256) {\n        controller.lpTokenStaker().unstakeFrom(conicLpAmount, msg.sender);\n        return withdraw(conicLpAmount, minUnderlyingReceived);\n    }\n\n    /// @notice Withdraw underlying\n    /// @param conicLpAmount Amount of LP tokens to burn\n    /// @param minUnderlyingReceived Minimum amount of underlying to redeem\n    /// This should always be set to a reasonable value (e.g. 2%), otherwise\n    /// the user withdrawing could be forced into paying a withdrawal penalty fee\n    /// by another user\n    /// @return uint256 Total underlying withdrawn\n    function withdraw(\n        uint256 conicLpAmount,\n        uint256 minUnderlyingReceived\n    ) public override returns (uint256) {\n        // Preparing Withdrawals\n        require(lpToken.balanceOf(msg.sender) >= conicLpAmount, \"insufficient balance\");\n        uint256 underlyingBalanceBefore_ = underlying.balanceOf(address(this));\n\n        // Processing Withdrawals\n        (\n            uint256 totalUnderlying_,\n            uint256 allocatedUnderlying_,\n            uint256[] memory allocatedPerPool\n        ) = getTotalAndPerPoolUnderlying();\n        uint256 underlyingToReceive_ = conicLpAmount.mulDown(_exchangeRate(totalUnderlying_));\n        {\n            if (underlyingBalanceBefore_ < underlyingToReceive_) {\n                uint256 underlyingToWithdraw_ = underlyingToReceive_ - underlyingBalanceBefore_;\n                _withdrawFromCurve(allocatedUnderlying_, allocatedPerPool, underlyingToWithdraw_);\n            }\n        }\n\n        // Sending Underlying and burning LP Tokens\n        uint256 underlyingWithdrawn_ = _min(\n            underlying.balanceOf(address(this)),\n            underlyingToReceive_\n        );\n        require(underlyingWithdrawn_ >= minUnderlyingReceived, \"too much slippage\");\n        lpToken.burn(msg.sender, conicLpAmount);\n        underlying.safeTransfer(msg.sender, underlyingWithdrawn_);\n\n        _cachedTotalUnderlying = totalUnderlying_ - underlyingWithdrawn_;\n        _cacheUpdatedTimestamp = block.timestamp;\n\n        emit Withdraw(msg.sender, underlyingWithdrawn_);\n        _reentrancyCheck();\n        return underlyingWithdrawn_;\n    }\n\n    function _withdrawFromCurve(\n        uint256 totalUnderlying_,\n        uint256[] memory allocatedPerPool,\n        uint256 amount_\n    ) internal {\n        uint256 withdrawalsRemaining_ = amount_;\n        uint256 totalAfterWithdrawal_ = totalUnderlying_ - amount_;\n\n        // NOTE: avoid modifying `allocatedPerPool`\n        uint256[] memory allocatedPerPoolCopy = allocatedPerPool.copy();\n\n        while (withdrawalsRemaining_ > 0) {\n            (uint256 curvePoolIndex_, uint256 maxWithdrawal_) = _getWithdrawPool(\n                totalAfterWithdrawal_,\n                allocatedPerPoolCopy\n            );\n            address curvePool_ = _curvePools.at(curvePoolIndex_);\n\n            // Withdrawing from least balanced Curve pool\n            uint256 toWithdraw_ = _min(withdrawalsRemaining_, maxWithdrawal_);\n            _withdrawFromCurvePool(curvePool_, toWithdraw_);\n            withdrawalsRemaining_ -= toWithdraw_;\n            allocatedPerPoolCopy[curvePoolIndex_] -= toWithdraw_;\n        }\n    }\n\n    function _getWithdrawPool(\n        uint256 totalUnderlying_,\n        uint256[] memory allocatedPerPool\n    ) internal view returns (uint256 withdrawPoolIndex, uint256 maxWithdrawalAmount) {\n        uint256 curvePoolCount_ = allocatedPerPool.length;\n        int256 iWithdrawPoolIndex = -1;\n        for (uint256 i; i < curvePoolCount_; i++) {\n            address curvePool_ = _curvePools.at(i);\n            uint256 weight_ = weights.get(curvePool_);\n            uint256 allocatedUnderlying_ = allocatedPerPool[i];\n\n            // If a curve pool has a weight of 0,\n            // withdraw from it if it has more than the max lp value\n            if (weight_ == 0) {\n                uint256 price_ = controller.priceOracle().getUSDPrice(address(underlying));\n                uint256 allocatedUsd = (price_ * allocatedUnderlying_) /\n                    10 ** underlying.decimals();\n                if (allocatedUsd >= _MAX_USD_LP_VALUE_FOR_REMOVING_CURVE_POOL / 2) {\n                    return (uint256(i), allocatedUnderlying_);\n                }\n            }\n\n            uint256 targetAllocation_ = totalUnderlying_.mulDown(weight_);\n            if (allocatedUnderlying_ <= targetAllocation_) continue;\n            uint256 minBalance_ = targetAllocation_ - targetAllocation_.mulDown(_getMaxDeviation());\n            uint256 maxWithdrawalAmount_ = allocatedUnderlying_ - minBalance_;\n            if (maxWithdrawalAmount_ <= maxWithdrawalAmount) continue;\n            maxWithdrawalAmount = maxWithdrawalAmount_;\n            iWithdrawPoolIndex = int256(i);\n        }\n        require(iWithdrawPoolIndex > -1, \"error retrieving withdraw pool\");\n        withdrawPoolIndex = uint256(iWithdrawPoolIndex);\n    }\n\n    function _withdrawFromCurvePool(address curvePool_, uint256 underlyingAmount_) internal {\n        ICurveRegistryCache registryCache_ = controller.curveRegistryCache();\n        address curveLpToken_ = registryCache_.lpToken(curvePool_);\n        uint256 lpToWithdraw_ = _underlyingToCurveLp(curveLpToken_, underlyingAmount_);\n        if (lpToWithdraw_ == 0) return;\n\n        uint256 idleCurveLpBalance_ = _idleCurveLpBalance(curvePool_);\n        address rewardPool = registryCache_.getRewardPool(curvePool_);\n        uint256 stakedLpBalance = IBaseRewardPool(rewardPool).balanceOf(address(this));\n        uint256 totalAvailableLp = idleCurveLpBalance_ + stakedLpBalance;\n        // Due to rounding errors with the conversion of underlying to LP tokens,\n        // we may not have the precise amount of LP tokens to withdraw from the pool.\n        // In this case, we withdraw the maximum amount of LP tokens available.\n        if (totalAvailableLp < lpToWithdraw_) {\n            lpToWithdraw_ = totalAvailableLp;\n        }\n\n        if (lpToWithdraw_ > idleCurveLpBalance_) {\n            controller.convexHandler().functionDelegateCall(\n                abi.encodeWithSignature(\n                    \"withdraw(address,uint256)\",\n                    curvePool_,\n                    lpToWithdraw_ - idleCurveLpBalance_\n                )\n            );\n        }\n\n        controller.curveHandler().functionDelegateCall(\n            abi.encodeWithSignature(\n                \"withdraw(address,address,uint256)\",\n                curvePool_,\n                underlying,\n                lpToWithdraw_\n            )\n        );\n    }\n\n    function allCurvePools() external view override returns (address[] memory) {\n        return _curvePools.values();\n    }\n\n    function curvePoolsCount() external view override returns (uint256) {\n        return _curvePools.length();\n    }\n\n    function getCurvePoolAtIndex(uint256 _index) external view returns (address) {\n        return _curvePools.at(_index);\n    }\n\n    function isRegisteredCurvePool(address _pool) public view returns (bool) {\n        return _curvePools.contains(_pool);\n    }\n\n    function getPoolWeight(address _pool) external view returns (uint256) {\n        (, uint256 _weight) = weights.tryGet(_pool);\n        return _weight;\n    }\n\n    // Controller and Admin functions\n\n    function addCurvePool(address _pool) external override onlyOwner {\n        require(!_curvePools.contains(_pool), \"pool already added\");\n        ICurveRegistryCache curveRegistryCache_ = controller.curveRegistryCache();\n        curveRegistryCache_.initPool(_pool);\n        bool supported_ = curveRegistryCache_.hasCoinAnywhere(_pool, address(underlying));\n        require(supported_, \"coin not in pool\");\n        address curveLpToken = curveRegistryCache_.lpToken(_pool);\n        require(controller.priceOracle().isTokenSupported(curveLpToken), \"cannot price LP Token\");\n\n        address booster = controller.convexBooster();\n        IERC20(curveLpToken).safeApprove(booster, type(uint256).max);\n\n        if (!weights.contains(_pool)) weights.set(_pool, 0);\n        require(_curvePools.add(_pool), \"failed to add pool\");\n        emit CurvePoolAdded(_pool);\n    }\n\n    // This requires that the weight of the pool is first set to 0\n    function removeCurvePool(address _pool) external override onlyOwner {\n        require(_curvePools.contains(_pool), \"pool not added\");\n        require(_curvePools.length() > 1, \"cannot remove last pool\");\n        address curveLpToken = controller.curveRegistryCache().lpToken(_pool);\n        uint256 lpTokenPrice = controller.priceOracle().getUSDPrice(curveLpToken);\n        uint256 usdLpValue = totalCurveLpBalance(_pool).mulDown(lpTokenPrice);\n        require(usdLpValue < _MAX_USD_LP_VALUE_FOR_REMOVING_CURVE_POOL, \"pool has allocated funds\");\n        uint256 weight = weights.get(_pool);\n        IERC20(curveLpToken).safeApprove(controller.convexBooster(), 0);\n        require(weight == 0, \"pool has weight set\");\n        require(_curvePools.remove(_pool), \"pool not removed\");\n        require(weights.remove(_pool), \"weight not removed\");\n        emit CurvePoolRemoved(_pool);\n    }\n\n    function updateWeights(PoolWeight[] memory poolWeights) external onlyController {\n        require(poolWeights.length == _curvePools.length(), \"invalid pool weights\");\n        uint256 total;\n        for (uint256 i; i < poolWeights.length; i++) {\n            address pool = poolWeights[i].poolAddress;\n            require(isRegisteredCurvePool(pool), \"pool is not registered\");\n            uint256 newWeight = poolWeights[i].weight;\n            weights.set(pool, newWeight);\n            emit NewWeight(pool, newWeight);\n            total += newWeight;\n        }\n\n        require(total == ScaledMath.ONE, \"weights do not sum to 1\");\n\n        (\n            uint256 totalUnderlying_,\n            uint256 totalAllocated,\n            uint256[] memory allocatedPerPool\n        ) = getTotalAndPerPoolUnderlying();\n\n        uint256 totalDeviation = _computeTotalDeviation(totalUnderlying_, allocatedPerPool);\n        totalDeviationAfterWeightUpdate = totalDeviation;\n        rebalancingRewardActive = !_isBalanced(allocatedPerPool, totalAllocated);\n\n        // Updating price cache for all pools\n        // Used for seeing if a pool has depegged\n        _updatePriceCache();\n    }\n\n    function _updatePriceCache() internal {\n        uint256 length_ = _curvePools.length();\n        IOracle priceOracle_ = controller.priceOracle();\n        uint256 ethUsdPrice_ = priceOracle_.getUSDPrice(address(0));\n        for (uint256 i; i < length_; i++) {\n            address lpToken_ = controller.curveRegistryCache().lpToken(_curvePools.at(i));\n            uint256 priceInUsd_ = priceOracle_.getUSDPrice(lpToken_);\n            uint256 priceInEth_ = priceInUsd_.divDown(ethUsdPrice_);\n            _cachedPrices[lpToken_] = priceInEth_;\n        }\n    }\n\n    function shutdownPool() external override onlyController {\n        require(!isShutdown, \"pool already shutdown\");\n        isShutdown = true;\n        emit Shutdown();\n    }\n\n    function updateDepegThreshold(uint256 newDepegThreshold_) external onlyOwner {\n        require(newDepegThreshold_ >= _MIN_DEPEG_THRESHOLD, \"invalid depeg threshold\");\n        require(newDepegThreshold_ <= _MAX_DEPEG_THRESHOLD, \"invalid depeg threshold\");\n        depegThreshold = newDepegThreshold_;\n        emit DepegThresholdUpdated(newDepegThreshold_);\n    }\n\n    /// @notice Called when an underlying of a Curve Pool has depegged and we want to exit the pool.\n    /// Will check if a coin has depegged, and will revert if not.\n    /// Sets the weight of the Curve Pool to 0, and re-enables CNC rewards for deposits.\n    /// @dev Cannot be called if the underlying of this pool itself has depegged.\n    /// @param curvePool_ The Curve Pool to handle.\n    function handleDepeggedCurvePool(address curvePool_) external override {\n        // Validation\n        require(isRegisteredCurvePool(curvePool_), \"pool is not registered\");\n        require(weights.get(curvePool_) != 0, \"pool weight already 0\");\n        address lpToken_ = controller.curveRegistryCache().lpToken(curvePool_);\n        require(_isDepegged(lpToken_), \"pool is not depegged\");\n\n        // Set target curve pool weight to 0\n        // Scale up other weights to compensate\n        _setWeightToZero(curvePool_);\n        rebalancingRewardActive = true;\n\n        emit HandledDepeggedCurvePool(curvePool_);\n    }\n\n    function _setWeightToZero(address curvePool_) internal {\n        uint256 weight_ = weights.get(curvePool_);\n        if (weight_ == 0) return;\n        require(weight_ != ScaledMath.ONE, \"can't remove last pool\");\n        uint256 scaleUp_ = ScaledMath.ONE.divDown(ScaledMath.ONE - weights.get(curvePool_));\n        uint256 curvePoolLength_ = _curvePools.length();\n        for (uint256 i; i < curvePoolLength_; i++) {\n            address pool_ = _curvePools.at(i);\n            uint256 newWeight_ = pool_ == curvePool_ ? 0 : weights.get(pool_).mulDown(scaleUp_);\n            weights.set(pool_, newWeight_);\n            emit NewWeight(pool_, newWeight_);\n        }\n\n        // Updating total deviation\n        (\n            uint256 totalUnderlying_,\n            ,\n            uint256[] memory allocatedPerPool\n        ) = getTotalAndPerPoolUnderlying();\n        uint256 totalDeviation = _computeTotalDeviation(totalUnderlying_, allocatedPerPool);\n        totalDeviationAfterWeightUpdate = totalDeviation;\n    }\n\n    function _isDepegged(address asset_) internal view returns (bool) {\n        uint256 cachedPrice_ = _cachedPrices[asset_];\n        IOracle priceOracle_ = controller.priceOracle();\n        uint256 ethUsdPrice_ = priceOracle_.getUSDPrice(address(0));\n        uint256 currentPriceUsd_ = priceOracle_.getUSDPrice(asset_);\n        uint256 currentPrice_ = currentPriceUsd_.divDown(ethUsdPrice_);\n        uint256 priceDiff_ = cachedPrice_.absSub(currentPrice_);\n        uint256 priceDiffPercent_ = priceDiff_.divDown(cachedPrice_);\n        return priceDiffPercent_ > depegThreshold;\n    }\n\n    /**\n     * @notice Allows anyone to set the weight of a Curve pool to 0 if the Convex pool for the\n     * associated PID has been shutdown. This is a very unilkely outcomu and the method does\n     * not reenable rebalancing rewards.\n     * @param curvePool_ Curve pool for which the Convex PID is invalid (has been shut down)\n     */\n    function handleInvalidConvexPid(address curvePool_) external {\n        require(isRegisteredCurvePool(curvePool_), \"curve pool not registered\");\n        ICurveRegistryCache registryCache_ = controller.curveRegistryCache();\n        uint256 pid = registryCache_.getPid(curvePool_);\n        require(registryCache_.isShutdownPid(pid), \"convex pool pid is shutdown\");\n        _setWeightToZero(curvePool_);\n        emit HandledInvalidConvexPid(curvePool_, pid);\n    }\n\n    function setMaxIdleCurveLpRatio(uint256 maxIdleCurveLpRatio_) external onlyOwner {\n        require(maxIdleCurveLpRatio != maxIdleCurveLpRatio_, \"same as current\");\n        require(maxIdleCurveLpRatio_ <= _IDLE_RATIO_UPPER_BOUND, \"ratio exceeds upper bound\");\n        maxIdleCurveLpRatio = maxIdleCurveLpRatio_;\n        emit NewMaxIdleCurveLpRatio(maxIdleCurveLpRatio_);\n    }\n\n    function setMaxDeviation(uint256 maxDeviation_) external onlyOwner {\n        require(maxDeviation != maxDeviation_, \"same as current\");\n        require(maxDeviation_ <= _MAX_DEVIATION_UPPER_BOUND, \"deviation exceeds upper bound\");\n        maxDeviation = maxDeviation_;\n        emit MaxDeviationUpdated(maxDeviation_);\n    }\n\n    function getWeight(address curvePool) external view returns (uint256) {\n        return weights.get(curvePool);\n    }\n\n    function getWeights() external view override returns (PoolWeight[] memory) {\n        uint256 length_ = _curvePools.length();\n        PoolWeight[] memory weights_ = new PoolWeight[](length_);\n        for (uint256 i; i < length_; i++) {\n            (address pool_, uint256 weight_) = weights.at(i);\n            weights_[i] = PoolWeight(pool_, weight_);\n        }\n        return weights_;\n    }\n\n    function getAllocatedUnderlying() external view override returns (PoolWithAmount[] memory) {\n        PoolWithAmount[] memory perPoolAllocated = new PoolWithAmount[](_curvePools.length());\n        (, , uint256[] memory allocated) = getTotalAndPerPoolUnderlying();\n\n        for (uint256 i; i < perPoolAllocated.length; i++) {\n            perPoolAllocated[i] = PoolWithAmount(_curvePools.at(i), allocated[i]);\n        }\n        return perPoolAllocated;\n    }\n\n    function computeTotalDeviation() external view override returns (uint256) {\n        (\n            ,\n            uint256 allocatedUnderlying_,\n            uint256[] memory perPoolUnderlying\n        ) = getTotalAndPerPoolUnderlying();\n        return _computeTotalDeviation(allocatedUnderlying_, perPoolUnderlying);\n    }\n\n    function computeDeviationRatio() external view returns (uint256) {\n        (\n            ,\n            uint256 allocatedUnderlying_,\n            uint256[] memory perPoolUnderlying\n        ) = getTotalAndPerPoolUnderlying();\n        if (allocatedUnderlying_ == 0) return 0;\n        uint256 deviation = _computeTotalDeviation(allocatedUnderlying_, perPoolUnderlying);\n        return deviation.divDown(allocatedUnderlying_);\n    }\n\n    function cachedTotalUnderlying() external view virtual override returns (uint256) {\n        if (block.timestamp > _cacheUpdatedTimestamp + _TOTAL_UNDERLYING_CACHE_EXPIRY) {\n            return totalUnderlying();\n        }\n        return _cachedTotalUnderlying;\n    }\n\n    function getTotalAndPerPoolUnderlying()\n        public\n        view\n        returns (\n            uint256 totalUnderlying_,\n            uint256 totalAllocated_,\n            uint256[] memory perPoolUnderlying_\n        )\n    {\n        uint256 underlyingPrice_ = controller.priceOracle().getUSDPrice(address(underlying));\n        return _getTotalAndPerPoolUnderlying(underlyingPrice_);\n    }\n\n    function totalCurveLpBalance(address curvePool_) public view returns (uint256) {\n        return _stakedCurveLpBalance(curvePool_) + _idleCurveLpBalance(curvePool_);\n    }\n\n    function isBalanced() external view override returns (bool) {\n        (\n            ,\n            uint256 allocatedUnderlying_,\n            uint256[] memory allocatedPerPool_\n        ) = getTotalAndPerPoolUnderlying();\n        return _isBalanced(allocatedPerPool_, allocatedUnderlying_);\n    }\n\n    /**\n     * @notice Returns several values related to the Omnipools's underlying assets.\n     * @param underlyingPrice_ Price of the underlying asset in USD\n     * @return totalUnderlying_ Total underlying value of the Omnipool\n     * @return totalAllocated_ Total underlying value of the Omnipool that is allocated to Curve pools\n     * @return perPoolUnderlying_ Array of underlying values of the Omnipool that is allocated to each Curve pool\n     */\n    function _getTotalAndPerPoolUnderlying(\n        uint256 underlyingPrice_\n    )\n        internal\n        view\n        returns (\n            uint256 totalUnderlying_,\n            uint256 totalAllocated_,\n            uint256[] memory perPoolUnderlying_\n        )\n    {\n        uint256 curvePoolsLength_ = _curvePools.length();\n        perPoolUnderlying_ = new uint256[](curvePoolsLength_);\n        for (uint256 i; i < curvePoolsLength_; i++) {\n            address curvePool_ = _curvePools.at(i);\n            uint256 poolUnderlying_ = _curveLpToUnderlying(\n                controller.curveRegistryCache().lpToken(curvePool_),\n                totalCurveLpBalance(curvePool_),\n                underlyingPrice_\n            );\n            perPoolUnderlying_[i] = poolUnderlying_;\n            totalAllocated_ += poolUnderlying_;\n        }\n        totalUnderlying_ = totalAllocated_ + underlying.balanceOf(address(this));\n    }\n\n    function _stakedCurveLpBalance(address pool_) internal view returns (uint256) {\n        return\n            IBaseRewardPool(IConvexHandler(controller.convexHandler()).getRewardPool(pool_))\n                .balanceOf(address(this));\n    }\n\n    function _idleCurveLpBalance(address curvePool_) internal view returns (uint256) {\n        return IERC20(controller.curveRegistryCache().lpToken(curvePool_)).balanceOf(address(this));\n    }\n\n    function _curveLpToUnderlying(\n        address curveLpToken_,\n        uint256 curveLpAmount_,\n        uint256 underlyingPrice_\n    ) internal view returns (uint256) {\n        return\n            curveLpAmount_\n                .mulDown(controller.priceOracle().getUSDPrice(curveLpToken_))\n                .divDown(underlyingPrice_)\n                .convertScale(18, underlying.decimals());\n    }\n\n    function _underlyingToCurveLp(\n        address curveLpToken_,\n        uint256 underlyingAmount_\n    ) internal view returns (uint256) {\n        return\n            underlyingAmount_\n                .mulDown(controller.priceOracle().getUSDPrice(address(underlying)))\n                .divDown(controller.priceOracle().getUSDPrice(curveLpToken_))\n                .convertScale(underlying.decimals(), 18);\n    }\n\n    function _computeTotalDeviation(\n        uint256 allocatedUnderlying_,\n        uint256[] memory perPoolAllocations_\n    ) internal view returns (uint256) {\n        uint256 totalDeviation;\n        for (uint256 i; i < perPoolAllocations_.length; i++) {\n            uint256 weight = weights.get(_curvePools.at(i));\n            uint256 targetAmount = allocatedUnderlying_.mulDown(weight);\n            totalDeviation += targetAmount.absSub(perPoolAllocations_[i]);\n        }\n        return totalDeviation;\n    }\n\n    function _handleRebalancingRewards(\n        address account,\n        uint256 allocatedBalanceBefore_,\n        uint256[] memory allocatedPerPoolBefore,\n        uint256 allocatedBalanceAfter_,\n        uint256[] memory allocatedPerPoolAfter\n    ) internal {\n        if (!rebalancingRewardActive) return;\n        uint256 deviationBefore = _computeTotalDeviation(\n            allocatedBalanceBefore_,\n            allocatedPerPoolBefore\n        );\n        uint256 deviationAfter = _computeTotalDeviation(\n            allocatedBalanceAfter_,\n            allocatedPerPoolAfter\n        );\n\n        controller.inflationManager().handleRebalancingRewards(\n            account,\n            deviationBefore,\n            deviationAfter\n        );\n\n        if (_isBalanced(allocatedPerPoolAfter, allocatedBalanceAfter_)) {\n            rebalancingRewardActive = false;\n        }\n    }\n\n    function _min(uint256 a, uint256 b) internal pure returns (uint256) {\n        return a < b ? a : b;\n    }\n\n    function _isBalanced(\n        uint256[] memory allocatedPerPool_,\n        uint256 totalAllocated_\n    ) internal view returns (bool) {\n        if (totalAllocated_ == 0) return true;\n        for (uint256 i; i < allocatedPerPool_.length; i++) {\n            uint256 weight_ = weights.get(_curvePools.at(i));\n            uint256 currentAllocated_ = allocatedPerPool_[i];\n\n            // If a curve pool has a weight of 0,\n            if (weight_ == 0) {\n                uint256 price_ = controller.priceOracle().getUSDPrice(address(underlying));\n                uint256 allocatedUsd_ = (price_ * currentAllocated_) / 10 ** underlying.decimals();\n                if (allocatedUsd_ >= _MAX_USD_LP_VALUE_FOR_REMOVING_CURVE_POOL / 2) {\n                    return false;\n                }\n                continue;\n            }\n\n            uint256 targetAmount = totalAllocated_.mulDown(weight_);\n            uint256 deviation = targetAmount.absSub(currentAllocated_);\n            uint256 deviationRatio = deviation.divDown(targetAmount);\n\n            if (deviationRatio > maxDeviation) return false;\n        }\n        return true;\n    }\n\n    function _getMaxDeviation() internal view returns (uint256) {\n        return rebalancingRewardActive ? 0 : maxDeviation;\n    }\n\n    function _reentrancyCheck() internal {\n        for (uint256 i; i < _curvePools.length(); i++) {\n            address curvePool_ = _curvePools.at(i);\n            ICurveHandlerV3(controller.curveHandler()).reentrancyCheck(curvePool_);\n        }\n    }\n}\n","sourcePath":"contracts/ConicEthPool.sol","type":"contract","deployment":{"address":"0xBb787d6243a8D450659E09ea6fD82F1C859691e9","chainid":"1","blockHeight":17592111}}