{"abi":[{"inputs":[{"internalType":"address","name":"_cncLocker","type":"address"},{"internalType":"address","name":"_controller","type":"address"},{"internalType":"address","name":"_treasury","type":"address"},{"internalType":"address","name":"_crvUsdPool","type":"address"},{"internalType":"uint256","name":"_epochDuration","type":"uint256"},{"internalType":"uint256","name":"_totalNumberEpochs","type":"uint256"}],"stateMutability":"nonpayable","type":"constructor","name":"constructor"},{"anonymous":false,"inputs":[{"indexed":true,"internalType":"address","name":"account","type":"address"},{"indexed":true,"internalType":"address","name":"recipient","type":"address"},{"indexed":false,"internalType":"uint256","name":"lpTokenAmount","type":"uint256"},{"indexed":false,"internalType":"uint256","name":"cncReceived","type":"uint256"},{"indexed":false,"internalType":"uint256","name":"lockTime","type":"uint256"}],"name":"Bonded","type":"event"},{"anonymous":false,"inputs":[{"indexed":false,"internalType":"uint256","name":"amount","type":"uint256"},{"indexed":false,"internalType":"uint256","name":"epochs","type":"uint256"}],"name":"BondingStarted","type":"event"},{"anonymous":false,"inputs":[{"indexed":false,"internalType":"uint256","name":"startPrice","type":"uint256"}],"name":"CncStartPriceSet","type":"event"},{"anonymous":false,"inputs":[{"indexed":false,"internalType":"uint256","name":"crvAmount","type":"uint256"},{"indexed":false,"internalType":"uint256","name":"cvxAmount","type":"uint256"},{"indexed":false,"internalType":"uint256","name":"cncAmount","type":"uint256"}],"name":"DebtPoolFeesClaimed","type":"event"},{"anonymous":false,"inputs":[{"indexed":true,"internalType":"address","name":"pool","type":"address"}],"name":"DebtPoolSet","type":"event"},{"anonymous":false,"inputs":[{"indexed":false,"internalType":"uint256","name":"amount","type":"uint256"}],"name":"MinBondingAmountSet","type":"event"},{"anonymous":false,"inputs":[{"indexed":true,"internalType":"address","name":"previousOwner","type":"address"},{"indexed":true,"internalType":"address","name":"newOwner","type":"address"}],"name":"OwnershipTransferred","type":"event"},{"anonymous":false,"inputs":[{"indexed":false,"internalType":"uint256","name":"factor","type":"uint256"}],"name":"PriceIncreaseFactorSet","type":"event"},{"anonymous":false,"inputs":[{"indexed":false,"internalType":"uint256","name":"amount","type":"uint256"}],"name":"RemainingCNCRecovered","type":"event"},{"anonymous":false,"inputs":[{"indexed":true,"internalType":"address","name":"account","type":"address"},{"indexed":false,"internalType":"uint256","name":"amount","type":"uint256"}],"name":"StreamClaimed","type":"event"},{"inputs":[],"name":"CNC","outputs":[{"internalType":"contract IERC20","name":"","type":"address"}],"stateMutability":"view","type":"function"},{"inputs":[],"name":"CRV","outputs":[{"internalType":"contract IERC20","name":"","type":"address"}],"stateMutability":"view","type":"function"},{"inputs":[],"name":"CVX","outputs":[{"internalType":"contract IERC20","name":"","type":"address"}],"stateMutability":"view","type":"function"},{"inputs":[],"name":"INITIAL_MIN_BONDING_AMOUNT","outputs":[{"internalType":"uint256","name":"","type":"uint256"}],"stateMutability":"view","type":"function"},{"inputs":[],"name":"MAX_CNC_START_PRICE","outputs":[{"internalType":"uint256","name":"","type":"uint256"}],"stateMutability":"view","type":"function"},{"inputs":[],"name":"MAX_MIN_BONDING_AMOUNT","outputs":[{"internalType":"uint256","name":"","type":"uint256"}],"stateMutability":"view","type":"function"},{"inputs":[],"name":"MIN_CNC_START_PRICE","outputs":[{"internalType":"uint256","name":"","type":"uint256"}],"stateMutability":"view","type":"function"},{"inputs":[],"name":"MIN_PRICE_INCREASE_FACTOR","outputs":[{"internalType":"uint256","name":"","type":"uint256"}],"stateMutability":"view","type":"function"},{"inputs":[{"internalType":"address","name":"account","type":"address"}],"name":"accountCheckpoint","outputs":[],"stateMutability":"nonpayable","type":"function"},{"inputs":[{"internalType":"uint256","name":"","type":"uint256"}],"name":"assetsInEpoch","outputs":[{"internalType":"uint256","name":"","type":"uint256"}],"stateMutability":"view","type":"function"},{"inputs":[{"internalType":"uint256","name":"lpTokenAmount","type":"uint256"},{"internalType":"uint256","name":"minCncReceived","type":"uint256"},{"internalType":"uint64","name":"cncLockTime","type":"uint64"}],"name":"bondCncCrvUsd","outputs":[{"internalType":"uint256","name":"","type":"uint256"}],"stateMutability":"nonpayable","type":"function"},{"inputs":[{"internalType":"uint256","name":"lpTokenAmount","type":"uint256"},{"internalType":"uint256","name":"minCncReceived","type":"uint256"},{"internalType":"uint64","name":"cncLockTime","type":"uint64"},{"internalType":"address","name":"recipient","type":"address"}],"name":"bondCncCrvUsdFor","outputs":[{"internalType":"uint256","name":"","type":"uint256"}],"stateMutability":"nonpayable","type":"function"},{"inputs":[],"name":"bondingEndTime","outputs":[{"internalType":"uint256","name":"","type":"uint256"}],"stateMutability":"view","type":"function"},{"inputs":[],"name":"bondingStarted","outputs":[{"internalType":"bool","name":"","type":"bool"}],"stateMutability":"view","type":"function"},{"inputs":[],"name":"claimFeesForDebtPool","outputs":[],"stateMutability":"nonpayable","type":"function"},{"inputs":[],"name":"claimStream","outputs":[],"stateMutability":"nonpayable","type":"function"},{"inputs":[],"name":"cncAvailable","outputs":[{"internalType":"uint256","name":"","type":"uint256"}],"stateMutability":"view","type":"function"},{"inputs":[],"name":"cncAvailableCache","outputs":[{"internalType":"uint256","name":"","type":"uint256"}],"stateMutability":"view","type":"function"},{"inputs":[],"name":"cncBondPrice","outputs":[{"internalType":"uint256","name":"","type":"uint256"}],"stateMutability":"view","type":"function"},{"inputs":[],"name":"cncDistributed","outputs":[{"internalType":"uint256","name":"","type":"uint256"}],"stateMutability":"view","type":"function"},{"inputs":[],"name":"cncLocker","outputs":[{"internalType":"contract ICNCLockerV3","name":"","type":"address"}],"stateMutability":"view","type":"function"},{"inputs":[],"name":"cncPerEpoch","outputs":[{"internalType":"uint256","name":"","type":"uint256"}],"stateMutability":"view","type":"function"},{"inputs":[],"name":"cncStartPrice","outputs":[{"internalType":"uint256","name":"","type":"uint256"}],"stateMutability":"view","type":"function"},{"inputs":[],"name":"computeCurrentCncBondPrice","outputs":[{"internalType":"uint256","name":"","type":"uint256"}],"stateMutability":"view","type":"function"},{"inputs":[],"name":"controller","outputs":[{"internalType":"contract IController","name":"","type":"address"}],"stateMutability":"view","type":"function"},{"inputs":[],"name":"crvUsdPool","outputs":[{"internalType":"contract IConicPool","name":"","type":"address"}],"stateMutability":"view","type":"function"},{"inputs":[],"name":"debtPool","outputs":[{"internalType":"address","name":"","type":"address"}],"stateMutability":"view","type":"function"},{"inputs":[],"name":"epochDuration","outputs":[{"internalType":"uint256","name":"","type":"uint256"}],"stateMutability":"view","type":"function"},{"inputs":[],"name":"epochPriceIncreaseFactor","outputs":[{"internalType":"uint256","name":"","type":"uint256"}],"stateMutability":"view","type":"function"},{"inputs":[],"name":"epochStartTime","outputs":[{"internalType":"uint256","name":"","type":"uint256"}],"stateMutability":"view","type":"function"},{"inputs":[],"name":"lastCncPrice","outputs":[{"internalType":"uint256","name":"","type":"uint256"}],"stateMutability":"view","type":"function"},{"inputs":[],"name":"lastStreamEpochStartTime","outputs":[{"internalType":"uint256","name":"","type":"uint256"}],"stateMutability":"view","type":"function"},{"inputs":[],"name":"lastStreamUpdate","outputs":[{"internalType":"uint256","name":"","type":"uint256"}],"stateMutability":"view","type":"function"},{"inputs":[],"name":"minBondingAmount","outputs":[{"internalType":"uint256","name":"","type":"uint256"}],"stateMutability":"view","type":"function"},{"inputs":[],"name":"owner","outputs":[{"internalType":"address","name":"","type":"address"}],"stateMutability":"view","type":"function"},{"inputs":[{"internalType":"address","name":"","type":"address"}],"name":"perAccountStreamAccrued","outputs":[{"internalType":"uint256","name":"","type":"uint256"}],"stateMutability":"view","type":"function"},{"inputs":[{"internalType":"address","name":"","type":"address"}],"name":"perAccountStreamIntegral","outputs":[{"internalType":"uint256","name":"","type":"uint256"}],"stateMutability":"view","type":"function"},{"inputs":[],"name":"recoverRemainingCNC","outputs":[],"stateMutability":"nonpayable","type":"function"},{"inputs":[],"name":"renounceOwnership","outputs":[],"stateMutability":"nonpayable","type":"function"},{"inputs":[{"internalType":"uint256","name":"_priceIncreaseFactor","type":"uint256"}],"name":"setCncPriceIncreaseFactor","outputs":[],"stateMutability":"nonpayable","type":"function"},{"inputs":[{"internalType":"uint256","name":"_cncStartPrice","type":"uint256"}],"name":"setCncStartPrice","outputs":[],"stateMutability":"nonpayable","type":"function"},{"inputs":[{"internalType":"address","name":"_debtPool","type":"address"}],"name":"setDebtPool","outputs":[],"stateMutability":"nonpayable","type":"function"},{"inputs":[{"internalType":"uint256","name":"_minBondingAmount","type":"uint256"}],"name":"setMinBondingAmount","outputs":[],"stateMutability":"nonpayable","type":"function"},{"inputs":[],"name":"startBonding","outputs":[],"stateMutability":"nonpayable","type":"function"},{"inputs":[],"name":"streamCheckpoint","outputs":[],"stateMutability":"nonpayable","type":"function"},{"inputs":[],"name":"streamIntegral","outputs":[{"internalType":"uint256","name":"","type":"uint256"}],"stateMutability":"view","type":"function"},{"inputs":[],"name":"totalNumberEpochs","outputs":[{"internalType":"uint256","name":"","type":"uint256"}],"stateMutability":"view","type":"function"},{"inputs":[{"internalType":"address","name":"newOwner","type":"address"}],"name":"transferOwnership","outputs":[],"stateMutability":"nonpayable","type":"function"},{"inputs":[],"name":"treasury","outputs":[{"internalType":"address","name":"","type":"address"}],"stateMutability":"view","type":"function"},{"inputs":[],"name":"underlying","outputs":[{"internalType":"contract IERC20","name":"","type":"address"}],"stateMutability":"view","type":"function"}],"bytecode":"6101606040523480156200001257600080fd5b5060405162002a8e38038062002a8e833981016040819052620000359162000211565b6200004033620001a8565b60008111620000a65760405162461bcd60e51b815260206004820152602760248201527f746f74616c206e756d626572206f662065706f636873206d75737420626520706044820152666f73697469766560c81b60648201526084015b60405180910390fd5b60008211620000f85760405162461bcd60e51b815260206004820152601f60248201527f65706f6368206475726174696f6e206d75737420626520706f7369746976650060448201526064016200009d565b6001600160a01b0380871660805285811660a05284811661010052831660c081905260408051636f307dc360e01b81529051636f307dc3916004808201926020929091908290030181865afa15801562000156573d6000803e3d6000fd5b505050506040513d601f19601f820116820180604052508101906200017c91906200028d565b6001600160a01b031660e05261012052610140525050683635c9adc5dea00000600b5550620002b49050565b600080546001600160a01b038381166001600160a01b0319831681178455604051919092169283917f8be0079c531659141344cd1fd0a4f28419497f9722a3daafe3b4186f6b6457e09190a35050565b6001600160a01b03811681146200020e57600080fd5b50565b60008060008060008060c087890312156200022b57600080fd5b86516200023881620001f8565b60208801519096506200024b81620001f8565b60408801519095506200025e81620001f8565b60608801519094506200027181620001f8565b809350506080870151915060a087015190509295509295509295565b600060208284031215620002a057600080fd5b8151620002ad81620001f8565b9392505050565b60805160a05160c05160e0516101005161012051610140516126ad620003e1600039600081816103ba0152818161068e01528181610b56015281816111d1015281816112010152818161124f015281816114f601528181611787015281816117c601528181611c4201528181611c9101528181612092015281816120ca0152818161211f0152818161215e01526121c80152600081816105de0152818161149a015281816114d50152611543015260008181610400015261167a0152600061047a0152600081816105a40152818161093a01528181610aeb01528181610e46015281816118ec0152611a5b01526000818161065b015281816109d501526119bd0152600081816104c401528181610bd401528181610ca001528181611d110152611eb801526126ad6000f3fe608060405234801561001057600080fd5b50600436106102d65760003560e01c8063715018a611610182578063c7837fac116100e9578063e4e7da7a116100a2578063f2fde38b1161007c578063f2fde38b1461063a578063f60ca6411461064d578063f77c479114610656578063f88d44181461067d57600080fd5b8063e4e7da7a14610608578063ee568b7014610611578063f2be29c41461061a57600080fd5b8063c7837fac1461057f578063cd6929f51461059f578063cf4f6d63146105c6578063d1938dda146105d9578063e30872c114610554578063e4951f321461060057600080fd5b806397df0fff1161013b57806397df0fff1461051b578063a32a39391461052e578063a4ffa1b61461054b578063a82333b914610554578063ba3c73dc14610564578063bf928f8b1461056c57600080fd5b8063715018a61461049c578063759cb53b146104a45780637da93a98146104bf5780638da5cb5b146104e657806392279471146104f7578063945c91421461050057600080fd5b806342ae86841161024157806361d027b3116101fa57806368f94823116101d457806368f94823146104455780636ac17ec4146104655780636f307dc3146104755780636f77ab18146103ec57600080fd5b806361d027b3146103fb578063632473da14610422578063685a2c961461043d57600080fd5b806342ae86841461039a5780634ed17c29146103ad5780634ff0876a146103b557806353c30c83146103dc5780635fa73e33146103e45780635ffe14d1146103ec57600080fd5b80631ffe1667116102935780631ffe16671461032d5780632a7c5718146103585780632a841cb014610361578063345d7974146103765780633e5e6b2d1461038957806342a0d3a31461039157600080fd5b806301471ca9146102db578063015599f3146102f65780630b61aedf146102ff5780630cc678c9146103125780631566637b1461031b57806315fefe6d14610324575b600080fd5b6102e3610686565b6040519081526020015b60405180910390f35b6102e3600e5481565b6102e361030d36600461234a565b6106ed565b6102e360045481565b6102e360095481565b6102e360055481565b600154610340906001600160a01b031681565b6040516001600160a01b0390911681526020016102ed565b6102e360115481565b61037461036f36600461237f565b610703565b005b6102e36103843660046123ad565b6107a4565b610374610d81565b6102e360025481565b6103746103a83660046123f5565b61116e565b6102e36111c0565b6102e37f000000000000000000000000000000000000000000000000000000000000000081565b6103746112a3565b6103746112b9565b6102e3670de0b6b3a764000081565b6103407f000000000000000000000000000000000000000000000000000000000000000081565b610340739ae380f0272e2162340a5bb646c354271c0f5cfc81565b61037461158f565b6102e36104533660046123f5565b60106020526000908152604090205481565b6102e36801158e460913d0000081565b6103407f000000000000000000000000000000000000000000000000000000000000000081565b6103746116cf565b610340734e3fbd56cd56c3e72c1403e103b45db9da5b9d2b81565b6103407f000000000000000000000000000000000000000000000000000000000000000081565b6000546001600160a01b0316610340565b6102e3600a5481565b61034073d533a949740bb3306d119cc777fa900ba034cd5281565b61037461052936600461237f565b6116e1565b60035461053b9060ff1681565b60405190151581526020016102ed565b6102e3600b5481565b6102e3683635c9adc5dea0000081565b6102e3611777565b61037461057a3660046123f5565b6117f8565b6102e361058d36600461237f565b600c6020526000908152604090205481565b6103407f000000000000000000000000000000000000000000000000000000000000000081565b6103746105d436600461237f565b611811565b6102e37f000000000000000000000000000000000000000000000000000000000000000081565b6103746118d3565b6102e360065481565b6102e3600d5481565b6102e36106283660046123f5565b600f6020526000908152604090205481565b6103746106483660046123f5565b611b29565b6102e360085481565b6103407f000000000000000000000000000000000000000000000000000000000000000081565b6102e360075481565b6000806106c17f0000000000000000000000000000000000000000000000000000000000000000600854426106bb919061242f565b90611b9f565b6106cd6012600a612526565b6106d7919061242f565b6005549091506106e79082611bcb565b91505090565b60006106fb848484336107a4565b949350505050565b61070b611be3565b670de0b6b3a76400008110156107685760405162461bcd60e51b815260206004820152601860248201527f496e63726561736520666163746f7220746f6f206c6f772e000000000000000060448201526064015b60405180910390fd5b600a8190556040518181527f4b25403baf6bd88b3d7a5fab8d5b72ceff3459464f3f59c2d53c2e3f1978b009906020015b60405180910390a150565b60035460009060ff166107b9575060006106fb565b6004544211156107ff5760405162461bcd60e51b8152602060048201526011602482015270109bdb991a5b99c81a185cc8195b991959607a1b604482015260640161075f565b600b548510156108515760405162461bcd60e51b815260206004820152601f60248201527f4d696e2e20626f6e64696e6720616d6f756e74206e6f74207265616368656400604482015260640161075f565b610859611c3d565b6000610863610686565b905060006108718783611b9f565b9050600654600754826108849190612532565b11156108dd5760405162461bcd60e51b815260206004820152602260248201527f4e6f7420656e6f75676820434e432063757272656e746c7920617661696c61626044820152616c6560f01b606482015260840161075f565b8581101561092d5760405162461bcd60e51b815260206004820152601960248201527f496e73756666696369656e7420434e4320726563656976656400000000000000604482015260640161075f565b61093684611ce7565b60007f00000000000000000000000000000000000000000000000000000000000000006001600160a01b0316635fcbd2856040518163ffffffff1660e01b8152600401602060405180830381865afa158015610996573d6000803e3d6000fd5b505050506040513d601f19601f820116820180604052508101906109ba9190612545565b90506109d16001600160a01b03821633308b611e02565b60007f00000000000000000000000000000000000000000000000000000000000000006001600160a01b03166348439e7e6040518163ffffffff1660e01b8152600401602060405180830381865afa158015610a31573d6000803e3d6000fd5b505050506040513d601f19601f82011682018060405250810190610a559190612545565b60405163095ea7b360e01b81526001600160a01b038083166004830152602482018c90529192509083169063095ea7b3906044016020604051808303816000875af1158015610aa8573d6000803e3d6000fd5b505050506040513d601f19601f82011682018060405250810190610acc9190612562565b50604051637acb775760e01b8152600481018a90526001600160a01b037f000000000000000000000000000000000000000000000000000000000000000081166024830152821690637acb775790604401600060405180830381600087803b158015610b3757600080fd5b505af1158015610b4b573d6000803e3d6000fd5b5050505088600c60007f0000000000000000000000000000000000000000000000000000000000000000600854610b829190612532565b81526020019081526020016000206000828254610b9f9190612532565b925050819055508260076000828254610bb89190612532565b909155505060405163095ea7b360e01b81526001600160a01b037f000000000000000000000000000000000000000000000000000000000000000016600482015260248101849052739ae380f0272e2162340a5bb646c354271c0f5cfc9063095ea7b3906044016020604051808303816000875af1158015610c3e573d6000803e3d6000fd5b505050506040513d601f19601f82011682018060405250810190610c629190612562565b5060405163c5890d2d60e01b81526004810184905267ffffffffffffffff88166024820152600060448201526001600160a01b0387811660648301527f0000000000000000000000000000000000000000000000000000000000000000169063c5890d2d90608401600060405180830381600087803b158015610ce457600080fd5b505af1158015610cf8573d6000803e3d6000fd5b50505050670de0b6b3a76400008410610d115783610d1b565b670de0b6b3a76400005b600955604080518a81526020810185905267ffffffffffffffff89168183015290516001600160a01b0388169133917fac3c8746b89d398cb40742a68232abb55778432754236f5d5bc5c56a74971bac9181900360600190a35090979650505050505050565b6001546001600160a01b0316610dcc5760405162461bcd60e51b815260206004820152601060248201526f139bc81919589d081c1bdbdb081cd95d60821b604482015260640161075f565b6040516370a0823160e01b8152306004820152600090739ae380f0272e2162340a5bb646c354271c0f5cfc906370a0823190602401602060405180830381865afa158015610e1e573d6000803e3d6000fd5b505050506040513d601f19601f82011682018060405250810190610e429190612584565b90507f00000000000000000000000000000000000000000000000000000000000000006001600160a01b0316630f4ef8a66040518163ffffffff1660e01b8152600401602060405180830381865afa158015610ea2573d6000803e3d6000fd5b505050506040513d601f19601f82011682018060405250810190610ec69190612545565b6001600160a01b031663d9ceab136040518163ffffffff1660e01b81526004016060604051808303816000875af1158015610f05573d6000803e3d6000fd5b505050506040513d601f19601f82011682018060405250810190610f29919061259d565b50506040516370a0823160e01b8152306004820152600091508290739ae380f0272e2162340a5bb646c354271c0f5cfc906370a0823190602401602060405180830381865afa158015610f80573d6000803e3d6000fd5b505050506040513d601f19601f82011682018060405250810190610fa49190612584565b610fae919061242f565b6040516370a0823160e01b815230600482015290915060009073d533a949740bb3306d119cc777fa900ba034cd52906370a0823190602401602060405180830381865afa158015611003573d6000803e3d6000fd5b505050506040513d601f19601f820116820180604052508101906110279190612584565b6040516370a0823160e01b8152306004820152909150600090734e3fbd56cd56c3e72c1403e103b45db9da5b9d2b906370a0823190602401602060405180830381865afa15801561107c573d6000803e3d6000fd5b505050506040513d601f19601f820116820180604052508101906110a09190612584565b6001549091506110cf9073d533a949740bb3306d119cc777fa900ba034cd52906001600160a01b031684611e73565b6001546110fb90734e3fbd56cd56c3e72c1403e103b45db9da5b9d2b906001600160a01b031683611e73565b60015461112790739ae380f0272e2162340a5bb646c354271c0f5cfc906001600160a01b031685611e73565b60408051838152602081018390529081018490527fc35564c915fd519dce51800665d3358f893260ad81fc4693fbdbfa0d3149f0519060600160405180910390a150505050565b611176611be3565b600180546001600160a01b0319166001600160a01b0383169081179091556040517f897d28fc0f1cadc73effa45a06e2335d5371805b4dec6bd0bf5f91ecac62fd7590600090a250565b60055460085460009190825b6111f67f000000000000000000000000000000000000000000000000000000000000000083612532565b4210611248576112267f000000000000000000000000000000000000000000000000000000000000000083612532565b91508061124357600954600a5461123c91611bcb565b9250600190505b6111cc565b60006112787f00000000000000000000000000000000000000000000000000000000000000006106bb854261242f565b6112846012600a612526565b61128e919061242f565b905061129a8482611bcb565b94505050505090565b60035460ff166112af57565b6112b7611ea8565b565b6112c1611be3565b60035460ff16156113145760405162461bcd60e51b815260206004820152601760248201527f626f6e64696e6720616c72656164792073746172746564000000000000000000604482015260640161075f565b6000600a541161137b5760405162461bcd60e51b815260206004820152602c60248201527f45706f636820707269636520696e63726561736520666163746f72206861732060448201526b1b9bdd081899595b881cd95d60a21b606482015260840161075f565b6000600554116113cd5760405162461bcd60e51b815260206004820152601760248201527f434e43207374617274207072696365206e6f7420736574000000000000000000604482015260640161075f565b6040516370a0823160e01b8152306004820152600090739ae380f0272e2162340a5bb646c354271c0f5cfc906370a0823190602401602060405180830381865afa15801561141f573d6000803e3d6000fd5b505050506040513d601f19601f820116820180604052508101906114439190612584565b9050600081116114955760405162461bcd60e51b815260206004820152601b60248201527f6e6f20434e432062616c616e636520746f20626f6e6420776974680000000000604482015260640161075f565b6114bf7f0000000000000000000000000000000000000000000000000000000000000000826125cb565b60025542600e819055600d81905560085561151a7f00000000000000000000000000000000000000000000000000000000000000007f00000000000000000000000000000000000000000000000000000000000000006125ed565b6115249042612532565b6004556003805460ff19166001179055600254600655604080518281527f000000000000000000000000000000000000000000000000000000000000000060208201527fea76ee52281e88bb7bab355426a8b2e5dd63d1b7e0977519fd651a4e49f892f99101610799565b611597611be3565b60045442116115e85760405162461bcd60e51b815260206004820152601960248201527f426f6e64696e6720686173206e6f742079657420656e64656400000000000000604482015260640161075f565b6040516370a0823160e01b8152306004820152600090739ae380f0272e2162340a5bb646c354271c0f5cfc906370a0823190602401602060405180830381865afa15801561163a573d6000803e3d6000fd5b505050506040513d601f19601f8201168201806040525081019061165e9190612584565b905061169f739ae380f0272e2162340a5bb646c354271c0f5cfc7f000000000000000000000000000000000000000000000000000000000000000083611e73565b6040518181527f83215a5b38b70b63639f55d51a13668784e98c26ee62b611805553e4150ad5f590602001610799565b6116d7611be3565b6112b76000611f65565b6116e9611be3565b683635c9adc5dea000008111156117425760405162461bcd60e51b815260206004820152601f60248201527f4d696e2e20626f6e64696e6720616d6f756e7420697320746f6f206869676800604482015260640161075f565b600b8190556040518181527f10e09798485729ce5fd12b76a828d533749854e5a975bda711c14b2f5894b0d790602001610799565b600654600854600091905b6117ac7f000000000000000000000000000000000000000000000000000000000000000082612532565b42106117f2576002546117bf9083612532565b91506117eb7f000000000000000000000000000000000000000000000000000000000000000082612532565b9050611782565b50919050565b60035460ff166118055750565b61180e81611ce7565b50565b611819611be3565b670de0b6b3a7640000811015801561183a57506801158e460913d000008111155b6118995760405162461bcd60e51b815260206004820152602a60248201527f434e43207374617274207072696365206e6f742077697468696e207065726d69604482015269747465642072616e676560b01b606482015260840161075f565b600581905560098190556040518181527fb7981e6c408018a3a6208b34883f61769546910cc29089a9cac5c1e6c3f4514590602001610799565b60035460ff166118df57565b6118e833611ce7565b60007f00000000000000000000000000000000000000000000000000000000000000006001600160a01b0316635fcbd2856040518163ffffffff1660e01b8152600401602060405180830381865afa158015611948573d6000803e3d6000fd5b505050506040513d601f19601f8201168201806040525081019061196c9190612545565b33600090815260106020526040902054909150806119b95760405162461bcd60e51b815260206004820152600a6024820152696e6f2062616c616e636560b01b604482015260640161075f565b60007f00000000000000000000000000000000000000000000000000000000000000006001600160a01b03166348439e7e6040518163ffffffff1660e01b8152600401602060405180830381865afa158015611a19573d6000803e3d6000fd5b505050506040513d601f19601f82011682018060405250810190611a3d9190612545565b6040516341c0f0c160e11b8152600481018490526001600160a01b037f00000000000000000000000000000000000000000000000000000000000000008116602483015291925090821690638381e18290604401600060405180830381600087803b158015611aab57600080fd5b505af1158015611abf573d6000803e3d6000fd5b50611ad8925050506001600160a01b0384163384611e73565b3360008181526010602052604080822091909155517f77f1af9635c992f9b354c06f732cc27c28f021ea0fecfbf4bec2329401c9663f90611b1c9085815260200190565b60405180910390a2505050565b611b31611be3565b6001600160a01b038116611b965760405162461bcd60e51b815260206004820152602660248201527f4f776e61626c653a206e6577206f776e657220697320746865207a65726f206160448201526564647265737360d01b606482015260840161075f565b61180e81611f65565b600081611bae6012600a612526565b611bb890856125ed565b611bc291906125cb565b90505b92915050565b6000611bd96012600a612526565b611bb883856125ed565b6000546001600160a01b031633146112b75760405162461bcd60e51b815260206004820181905260248201527f4f776e61626c653a2063616c6c6572206973206e6f7420746865206f776e6572604482015260640161075f565b60005b7f0000000000000000000000000000000000000000000000000000000000000000600854611c6e9190612532565b421061180e5760025460066000828254611c889190612532565b925050819055507f000000000000000000000000000000000000000000000000000000000000000060086000828254611cc19190612532565b90915550819050611ce257600954600a54611cdb91611bcb565b6005555060015b611c40565b611cef611ea8565b6040516328a8103960e01b81526001600160a01b0382811660048301526000917f0000000000000000000000000000000000000000000000000000000000000000909116906328a8103990602401602060405180830381865afa158015611d5a573d6000803e3d6000fd5b505050506040513d601f19601f82011682018060405250810190611d7e9190612584565b6001600160a01b0383166000908152600f6020526040902054601154919250611db291611dab919061242f565b8290611bcb565b6001600160a01b03831660009081526010602052604081208054909190611dda908490612532565b90915550506011546001600160a01b039092166000908152600f602052604090209190915550565b6040516001600160a01b0380851660248301528316604482015260648101829052611e6d9085906323b872dd60e01b906084015b60408051601f198184030181529190526020810180516001600160e01b03166001600160e01b031990931692909217909152611fb5565b50505050565b6040516001600160a01b038316602482015260448101829052611ea390849063a9059cbb60e01b90606401611e36565b505050565b6000611eb261208a565b905060007f00000000000000000000000000000000000000000000000000000000000000006001600160a01b031663631516c26040518163ffffffff1660e01b8152600401602060405180830381865afa158015611f14573d6000803e3d6000fd5b505050506040513d601f19601f82011682018060405250810190611f389190612584565b90508015611f6157611f4a8282611b9f565b60116000828254611f5b9190612532565b90915550505b5050565b600080546001600160a01b038381166001600160a01b0319831681178455604051919092169283917f8be0079c531659141344cd1fd0a4f28419497f9722a3daafe3b4186f6b6457e09190a35050565b600061200a826040518060400160405280602081526020017f5361666545524332303a206c6f772d6c6576656c2063616c6c206661696c6564815250856001600160a01b031661220a9092919063ffffffff16565b905080516000148061202b57508080602001905181019061202b9190612562565b611ea35760405162461bcd60e51b815260206004820152602a60248201527f5361666545524332303a204552433230206f7065726174696f6e20646964206e6044820152691bdd081cdd58d8d9595960b21b606482015260840161075f565b60008060005b7f0000000000000000000000000000000000000000000000000000000000000000600e546120be9190612532565b42101580156120fb57507f00000000000000000000000000000000000000000000000000000000000000006004546120f69190612532565b600e54105b156121aa57600e546000818152600c6020526040902054600d5461215a92612154917f00000000000000000000000000000000000000000000000000000000000000009161214a908390612532565b6106bb919061242f565b90611bcb565b90507f0000000000000000000000000000000000000000000000000000000000000000600e600082825461218e9190612532565b9091555050600e54600d556121a38183612532565b9150612090565b6121f5600c6000600e548152602001908152602001600020546121547f0000000000000000000000000000000000000000000000000000000000000000600d54426106bb919061242f565b6121ff9083612532565b42600d559392505050565b60606106fb848460008585600080866001600160a01b031685876040516122319190612628565b60006040518083038185875af1925050503d806000811461226e576040519150601f19603f3d011682016040523d82523d6000602084013e612273565b606091505b50915091506122848783838761228f565b979650505050505050565b606083156122fe5782516000036122f7576001600160a01b0385163b6122f75760405162461bcd60e51b815260206004820152601d60248201527f416464726573733a2063616c6c20746f206e6f6e2d636f6e7472616374000000604482015260640161075f565b50816106fb565b6106fb83838151156123135781518083602001fd5b8060405162461bcd60e51b815260040161075f9190612644565b803567ffffffffffffffff8116811461234557600080fd5b919050565b60008060006060848603121561235f57600080fd5b83359250602084013591506123766040850161232d565b90509250925092565b60006020828403121561239157600080fd5b5035919050565b6001600160a01b038116811461180e57600080fd5b600080600080608085870312156123c357600080fd5b84359350602085013592506123da6040860161232d565b915060608501356123ea81612398565b939692955090935050565b60006020828403121561240757600080fd5b813561241281612398565b9392505050565b634e487b7160e01b600052601160045260246000fd5b81810381811115611bc557611bc5612419565b600181815b8085111561247d57816000190482111561246357612463612419565b8085161561247057918102915b93841c9390800290612447565b509250929050565b60008261249457506001611bc5565b816124a157506000611bc5565b81600181146124b757600281146124c1576124dd565b6001915050611bc5565b60ff8411156124d2576124d2612419565b50506001821b611bc5565b5060208310610133831016604e8410600b8410161715612500575081810a611bc5565b61250a8383612442565b806000190482111561251e5761251e612419565b029392505050565b6000611bc28383612485565b80820180821115611bc557611bc5612419565b60006020828403121561255757600080fd5b815161241281612398565b60006020828403121561257457600080fd5b8151801515811461241257600080fd5b60006020828403121561259657600080fd5b5051919050565b6000806000606084860312156125b257600080fd5b8351925060208401519150604084015190509250925092565b6000826125e857634e487b7160e01b600052601260045260246000fd5b500490565b8082028115828204841417611bc557611bc5612419565b60005b8381101561261f578181015183820152602001612607565b50506000910152565b6000825161263a818460208701612604565b9190910192915050565b6020815260008251806020840152612663816040850160208701612604565b601f01601f1916919091016040019291505056fea2646970667358221220934595ca4309923380fb0a26f30f7edc8c9024b2f6208caa9c0320f0a7fe1f0664736f6c63430008110033","bytecodeSha1":"2dca86a4bfe7e46b67372c97f26470e39df6e452","compiler":{"evm_version":"london","optimizer":{"enabled":true,"runs":200},"version":"0.8.17+commit.8df45f5f"},"contractName":"Bonding","language":"Solidity","natspec":{"kind":"dev","methods":{"owner()":{"details":"Returns the address of the current owner."},"renounceOwnership()":{"details":"Leaves the contract without owner. It will not be possible to call `onlyOwner` functions. Can only be called by the current owner. NOTE: Renouncing ownership will leave the contract without an owner, thereby disabling any functionality that is only available to the owner."},"transferOwnership(address)":{"details":"Transfers ownership of the contract to a new account (`newOwner`). Can only be called by the current owner."}},"version":1},"opcodes":"PUSH1 0x80 PUSH1 0x40 MSTORE CALLVALUE DUP1 ISZERO PUSH2 0x10 JUMPI PUSH1 0x0 DUP1 REVERT JUMPDEST POP PUSH1 0x4 CALLDATASIZE LT PUSH2 0x2D6 JUMPI PUSH1 0x0 CALLDATALOAD PUSH1 0xE0 SHR DUP1 PUSH4 0x715018A6 GT PUSH2 0x182 JUMPI DUP1 PUSH4 0xC7837FAC GT PUSH2 0xE9 JUMPI DUP1 PUSH4 0xE4E7DA7A GT PUSH2 0xA2 JUMPI DUP1 PUSH4 0xF2FDE38B GT PUSH2 0x7C JUMPI DUP1 PUSH4 0xF2FDE38B EQ PUSH2 0x63A JUMPI DUP1 PUSH4 0xF60CA641 EQ PUSH2 0x64D JUMPI DUP1 PUSH4 0xF77C4791 EQ PUSH2 0x656 JUMPI DUP1 PUSH4 0xF88D4418 EQ PUSH2 0x67D JUMPI PUSH1 0x0 DUP1 REVERT JUMPDEST DUP1 PUSH4 0xE4E7DA7A EQ PUSH2 0x608 JUMPI DUP1 PUSH4 0xEE568B70 EQ PUSH2 0x611 JUMPI DUP1 PUSH4 0xF2BE29C4 EQ PUSH2 0x61A JUMPI PUSH1 0x0 DUP1 REVERT JUMPDEST DUP1 PUSH4 0xC7837FAC EQ PUSH2 0x57F JUMPI DUP1 PUSH4 0xCD6929F5 EQ PUSH2 0x59F JUMPI DUP1 PUSH4 0xCF4F6D63 EQ PUSH2 0x5C6 JUMPI DUP1 PUSH4 0xD1938DDA EQ PUSH2 0x5D9 JUMPI DUP1 PUSH4 0xE30872C1 EQ PUSH2 0x554 JUMPI DUP1 PUSH4 0xE4951F32 EQ PUSH2 0x600 JUMPI PUSH1 0x0 DUP1 REVERT JUMPDEST DUP1 PUSH4 0x97DF0FFF GT PUSH2 0x13B JUMPI DUP1 PUSH4 0x97DF0FFF EQ PUSH2 0x51B JUMPI DUP1 PUSH4 0xA32A3939 EQ PUSH2 0x52E JUMPI DUP1 PUSH4 0xA4FFA1B6 EQ PUSH2 0x54B JUMPI DUP1 PUSH4 0xA82333B9 EQ PUSH2 0x554 JUMPI DUP1 PUSH4 0xBA3C73DC EQ PUSH2 0x564 JUMPI DUP1 PUSH4 0xBF928F8B EQ PUSH2 0x56C JUMPI PUSH1 0x0 DUP1 REVERT JUMPDEST DUP1 PUSH4 0x715018A6 EQ PUSH2 0x49C JUMPI DUP1 PUSH4 0x759CB53B EQ PUSH2 0x4A4 JUMPI DUP1 PUSH4 0x7DA93A98 EQ PUSH2 0x4BF JUMPI DUP1 PUSH4 0x8DA5CB5B EQ PUSH2 0x4E6 JUMPI DUP1 PUSH4 0x92279471 EQ PUSH2 0x4F7 JUMPI DUP1 PUSH4 0x945C9142 EQ PUSH2 0x500 JUMPI PUSH1 0x0 DUP1 REVERT JUMPDEST DUP1 PUSH4 0x42AE8684 GT PUSH2 0x241 JUMPI DUP1 PUSH4 0x61D027B3 GT PUSH2 0x1FA JUMPI DUP1 PUSH4 0x68F94823 GT PUSH2 0x1D4 JUMPI DUP1 PUSH4 0x68F94823 EQ PUSH2 0x445 JUMPI DUP1 PUSH4 0x6AC17EC4 EQ PUSH2 0x465 JUMPI DUP1 PUSH4 0x6F307DC3 EQ PUSH2 0x475 JUMPI DUP1 PUSH4 0x6F77AB18 EQ PUSH2 0x3EC JUMPI PUSH1 0x0 DUP1 REVERT JUMPDEST DUP1 PUSH4 0x61D027B3 EQ PUSH2 0x3FB JUMPI DUP1 PUSH4 0x632473DA EQ PUSH2 0x422 JUMPI DUP1 PUSH4 0x685A2C96 EQ PUSH2 0x43D JUMPI PUSH1 0x0 DUP1 REVERT JUMPDEST DUP1 PUSH4 0x42AE8684 EQ PUSH2 0x39A JUMPI DUP1 PUSH4 0x4ED17C29 EQ PUSH2 0x3AD JUMPI DUP1 PUSH4 0x4FF0876A EQ PUSH2 0x3B5 JUMPI DUP1 PUSH4 0x53C30C83 EQ PUSH2 0x3DC JUMPI DUP1 PUSH4 0x5FA73E33 EQ PUSH2 0x3E4 JUMPI DUP1 PUSH4 0x5FFE14D1 EQ PUSH2 0x3EC JUMPI PUSH1 0x0 DUP1 REVERT JUMPDEST DUP1 PUSH4 0x1FFE1667 GT PUSH2 0x293 JUMPI DUP1 PUSH4 0x1FFE1667 EQ PUSH2 0x32D JUMPI DUP1 PUSH4 0x2A7C5718 EQ PUSH2 0x358 JUMPI DUP1 PUSH4 0x2A841CB0 EQ PUSH2 0x361 JUMPI DUP1 PUSH4 0x345D7974 EQ PUSH2 0x376 JUMPI DUP1 PUSH4 0x3E5E6B2D EQ PUSH2 0x389 JUMPI DUP1 PUSH4 0x42A0D3A3 EQ PUSH2 0x391 JUMPI PUSH1 0x0 DUP1 REVERT JUMPDEST DUP1 PUSH4 0x1471CA9 EQ PUSH2 0x2DB JUMPI DUP1 PUSH4 0x15599F3 EQ PUSH2 0x2F6 JUMPI DUP1 PUSH4 0xB61AEDF EQ PUSH2 0x2FF JUMPI DUP1 PUSH4 0xCC678C9 EQ PUSH2 0x312 JUMPI DUP1 PUSH4 0x1566637B EQ PUSH2 0x31B JUMPI DUP1 PUSH4 0x15FEFE6D EQ PUSH2 0x324 JUMPI JUMPDEST PUSH1 0x0 DUP1 REVERT JUMPDEST PUSH2 0x2E3 PUSH2 0x686 JUMP JUMPDEST PUSH1 0x40 MLOAD SWAP1 DUP2 MSTORE PUSH1 0x20 ADD JUMPDEST PUSH1 0x40 MLOAD DUP1 SWAP2 SUB SWAP1 RETURN JUMPDEST PUSH2 0x2E3 PUSH1 0xE SLOAD DUP2 JUMP JUMPDEST PUSH2 0x2E3 PUSH2 0x30D CALLDATASIZE PUSH1 0x4 PUSH2 0x234A JUMP JUMPDEST PUSH2 0x6ED JUMP JUMPDEST PUSH2 0x2E3 PUSH1 0x4 SLOAD DUP2 JUMP JUMPDEST PUSH2 0x2E3 PUSH1 0x9 SLOAD DUP2 JUMP JUMPDEST PUSH2 0x2E3 PUSH1 0x5 SLOAD DUP2 JUMP JUMPDEST PUSH1 0x1 SLOAD PUSH2 0x340 SWAP1 PUSH1 0x1 PUSH1 0x1 PUSH1 0xA0 SHL SUB AND DUP2 JUMP JUMPDEST PUSH1 0x40 MLOAD PUSH1 0x1 PUSH1 0x1 PUSH1 0xA0 SHL SUB SWAP1 SWAP2 AND DUP2 MSTORE PUSH1 0x20 ADD PUSH2 0x2ED JUMP JUMPDEST PUSH2 0x2E3 PUSH1 0x11 SLOAD DUP2 JUMP JUMPDEST PUSH2 0x374 PUSH2 0x36F CALLDATASIZE PUSH1 0x4 PUSH2 0x237F JUMP JUMPDEST PUSH2 0x703 JUMP JUMPDEST STOP JUMPDEST PUSH2 0x2E3 PUSH2 0x384 CALLDATASIZE PUSH1 0x4 PUSH2 0x23AD JUMP JUMPDEST PUSH2 0x7A4 JUMP JUMPDEST PUSH2 0x374 PUSH2 0xD81 JUMP JUMPDEST PUSH2 0x2E3 PUSH1 0x2 SLOAD DUP2 JUMP JUMPDEST PUSH2 0x374 PUSH2 0x3A8 CALLDATASIZE PUSH1 0x4 PUSH2 0x23F5 JUMP JUMPDEST PUSH2 0x116E JUMP JUMPDEST PUSH2 0x2E3 PUSH2 0x11C0 JUMP JUMPDEST PUSH2 0x2E3 PUSH32 0x0 DUP2 JUMP JUMPDEST PUSH2 0x374 PUSH2 0x12A3 JUMP JUMPDEST PUSH2 0x374 PUSH2 0x12B9 JUMP JUMPDEST PUSH2 0x2E3 PUSH8 0xDE0B6B3A7640000 DUP2 JUMP JUMPDEST PUSH2 0x340 PUSH32 0x0 DUP2 JUMP JUMPDEST PUSH2 0x340 PUSH20 0x9AE380F0272E2162340A5BB646C354271C0F5CFC DUP2 JUMP JUMPDEST PUSH2 0x374 PUSH2 0x158F JUMP JUMPDEST PUSH2 0x2E3 PUSH2 0x453 CALLDATASIZE PUSH1 0x4 PUSH2 0x23F5 JUMP JUMPDEST PUSH1 0x10 PUSH1 0x20 MSTORE PUSH1 0x0 SWAP1 DUP2 MSTORE PUSH1 0x40 SWAP1 KECCAK256 SLOAD DUP2 JUMP JUMPDEST PUSH2 0x2E3 PUSH9 0x1158E460913D00000 DUP2 JUMP JUMPDEST PUSH2 0x340 PUSH32 0x0 DUP2 JUMP JUMPDEST PUSH2 0x374 PUSH2 0x16CF JUMP JUMPDEST PUSH2 0x340 PUSH20 0x4E3FBD56CD56C3E72C1403E103B45DB9DA5B9D2B DUP2 JUMP JUMPDEST PUSH2 0x340 PUSH32 0x0 DUP2 JUMP JUMPDEST PUSH1 0x0 SLOAD PUSH1 0x1 PUSH1 0x1 PUSH1 0xA0 SHL SUB AND PUSH2 0x340 JUMP JUMPDEST PUSH2 0x2E3 PUSH1 0xA SLOAD DUP2 JUMP JUMPDEST PUSH2 0x340 PUSH20 0xD533A949740BB3306D119CC777FA900BA034CD52 DUP2 JUMP JUMPDEST PUSH2 0x374 PUSH2 0x529 CALLDATASIZE PUSH1 0x4 PUSH2 0x237F JUMP JUMPDEST PUSH2 0x16E1 JUMP JUMPDEST PUSH1 0x3 SLOAD PUSH2 0x53B SWAP1 PUSH1 0xFF AND DUP2 JUMP JUMPDEST PUSH1 0x40 MLOAD SWAP1 ISZERO ISZERO DUP2 MSTORE PUSH1 0x20 ADD PUSH2 0x2ED JUMP JUMPDEST PUSH2 0x2E3 PUSH1 0xB SLOAD DUP2 JUMP JUMPDEST PUSH2 0x2E3 PUSH9 0x3635C9ADC5DEA00000 DUP2 JUMP JUMPDEST PUSH2 0x2E3 PUSH2 0x1777 JUMP JUMPDEST PUSH2 0x374 PUSH2 0x57A CALLDATASIZE PUSH1 0x4 PUSH2 0x23F5 JUMP JUMPDEST PUSH2 0x17F8 JUMP JUMPDEST PUSH2 0x2E3 PUSH2 0x58D CALLDATASIZE PUSH1 0x4 PUSH2 0x237F JUMP JUMPDEST PUSH1 0xC PUSH1 0x20 MSTORE PUSH1 0x0 SWAP1 DUP2 MSTORE PUSH1 0x40 SWAP1 KECCAK256 SLOAD DUP2 JUMP JUMPDEST PUSH2 0x340 PUSH32 0x0 DUP2 JUMP JUMPDEST PUSH2 0x374 PUSH2 0x5D4 CALLDATASIZE PUSH1 0x4 PUSH2 0x237F JUMP JUMPDEST PUSH2 0x1811 JUMP JUMPDEST PUSH2 0x2E3 PUSH32 0x0 DUP2 JUMP JUMPDEST PUSH2 0x374 PUSH2 0x18D3 JUMP JUMPDEST PUSH2 0x2E3 PUSH1 0x6 SLOAD DUP2 JUMP JUMPDEST PUSH2 0x2E3 PUSH1 0xD SLOAD DUP2 JUMP JUMPDEST PUSH2 0x2E3 PUSH2 0x628 CALLDATASIZE PUSH1 0x4 PUSH2 0x23F5 JUMP JUMPDEST PUSH1 0xF PUSH1 0x20 MSTORE PUSH1 0x0 SWAP1 DUP2 MSTORE PUSH1 0x40 SWAP1 KECCAK256 SLOAD DUP2 JUMP JUMPDEST PUSH2 0x374 PUSH2 0x648 CALLDATASIZE PUSH1 0x4 PUSH2 0x23F5 JUMP JUMPDEST PUSH2 0x1B29 JUMP JUMPDEST PUSH2 0x2E3 PUSH1 0x8 SLOAD DUP2 JUMP JUMPDEST PUSH2 0x340 PUSH32 0x0 DUP2 JUMP JUMPDEST PUSH2 0x2E3 PUSH1 0x7 SLOAD DUP2 JUMP JUMPDEST PUSH1 0x0 DUP1 PUSH2 0x6C1 PUSH32 0x0 PUSH1 0x8 SLOAD TIMESTAMP PUSH2 0x6BB SWAP2 SWAP1 PUSH2 0x242F JUMP JUMPDEST SWAP1 PUSH2 0x1B9F JUMP JUMPDEST PUSH2 0x6CD PUSH1 0x12 PUSH1 0xA PUSH2 0x2526 JUMP JUMPDEST PUSH2 0x6D7 SWAP2 SWAP1 PUSH2 0x242F JUMP JUMPDEST PUSH1 0x5 SLOAD SWAP1 SWAP2 POP PUSH2 0x6E7 SWAP1 DUP3 PUSH2 0x1BCB JUMP JUMPDEST SWAP2 POP POP SWAP1 JUMP JUMPDEST PUSH1 0x0 PUSH2 0x6FB DUP5 DUP5 DUP5 CALLER PUSH2 0x7A4 JUMP JUMPDEST SWAP5 SWAP4 POP POP POP POP JUMP JUMPDEST PUSH2 0x70B PUSH2 0x1BE3 JUMP JUMPDEST PUSH8 0xDE0B6B3A7640000 DUP2 LT ISZERO PUSH2 0x768 JUMPI PUSH1 0x40 MLOAD PUSH3 0x461BCD PUSH1 0xE5 SHL DUP2 MSTORE PUSH1 0x20 PUSH1 0x4 DUP3 ADD MSTORE PUSH1 0x18 PUSH1 0x24 DUP3 ADD MSTORE PUSH32 0x496E63726561736520666163746F7220746F6F206C6F772E0000000000000000 PUSH1 0x44 DUP3 ADD MSTORE PUSH1 0x64 ADD JUMPDEST PUSH1 0x40 MLOAD DUP1 SWAP2 SUB SWAP1 REVERT JUMPDEST PUSH1 0xA DUP2 SWAP1 SSTORE PUSH1 0x40 MLOAD DUP2 DUP2 MSTORE PUSH32 0x4B25403BAF6BD88B3D7A5FAB8D5B72CEFF3459464F3F59C2D53C2E3F1978B009 SWAP1 PUSH1 0x20 ADD JUMPDEST PUSH1 0x40 MLOAD DUP1 SWAP2 SUB SWAP1 LOG1 POP JUMP JUMPDEST PUSH1 0x3 SLOAD PUSH1 0x0 SWAP1 PUSH1 0xFF AND PUSH2 0x7B9 JUMPI POP PUSH1 0x0 PUSH2 0x6FB JUMP JUMPDEST PUSH1 0x4 SLOAD TIMESTAMP GT ISZERO PUSH2 0x7FF JUMPI PUSH1 0x40 MLOAD PUSH3 0x461BCD PUSH1 0xE5 SHL DUP2 MSTORE PUSH1 0x20 PUSH1 0x4 DUP3 ADD MSTORE PUSH1 0x11 PUSH1 0x24 DUP3 ADD MSTORE PUSH17 0x109BDB991A5B99C81A185CC8195B991959 PUSH1 0x7A SHL PUSH1 0x44 DUP3 ADD MSTORE PUSH1 0x64 ADD PUSH2 0x75F JUMP JUMPDEST PUSH1 0xB SLOAD DUP6 LT ISZERO PUSH2 0x851 JUMPI PUSH1 0x40 MLOAD PUSH3 0x461BCD PUSH1 0xE5 SHL DUP2 MSTORE PUSH1 0x20 PUSH1 0x4 DUP3 ADD MSTORE PUSH1 0x1F PUSH1 0x24 DUP3 ADD MSTORE PUSH32 0x4D696E2E20626F6E64696E6720616D6F756E74206E6F74207265616368656400 PUSH1 0x44 DUP3 ADD MSTORE PUSH1 0x64 ADD PUSH2 0x75F JUMP JUMPDEST PUSH2 0x859 PUSH2 0x1C3D JUMP JUMPDEST PUSH1 0x0 PUSH2 0x863 PUSH2 0x686 JUMP JUMPDEST SWAP1 POP PUSH1 0x0 PUSH2 0x871 DUP8 DUP4 PUSH2 0x1B9F JUMP JUMPDEST SWAP1 POP PUSH1 0x6 SLOAD PUSH1 0x7 SLOAD DUP3 PUSH2 0x884 SWAP2 SWAP1 PUSH2 0x2532 JUMP JUMPDEST GT ISZERO PUSH2 0x8DD JUMPI PUSH1 0x40 MLOAD PUSH3 0x461BCD PUSH1 0xE5 SHL DUP2 MSTORE PUSH1 0x20 PUSH1 0x4 DUP3 ADD MSTORE PUSH1 0x22 PUSH1 0x24 DUP3 ADD MSTORE PUSH32 0x4E6F7420656E6F75676820434E432063757272656E746C7920617661696C6162 PUSH1 0x44 DUP3 ADD MSTORE PUSH2 0x6C65 PUSH1 0xF0 SHL PUSH1 0x64 DUP3 ADD MSTORE PUSH1 0x84 ADD PUSH2 0x75F JUMP JUMPDEST DUP6 DUP2 LT ISZERO PUSH2 0x92D JUMPI PUSH1 0x40 MLOAD PUSH3 0x461BCD PUSH1 0xE5 SHL DUP2 MSTORE PUSH1 0x20 PUSH1 0x4 DUP3 ADD MSTORE PUSH1 0x19 PUSH1 0x24 DUP3 ADD MSTORE PUSH32 0x496E73756666696369656E7420434E4320726563656976656400000000000000 PUSH1 0x44 DUP3 ADD MSTORE PUSH1 0x64 ADD PUSH2 0x75F JUMP JUMPDEST PUSH2 0x936 DUP5 PUSH2 0x1CE7 JUMP JUMPDEST PUSH1 0x0 PUSH32 0x0 PUSH1 0x1 PUSH1 0x1 PUSH1 0xA0 SHL SUB AND PUSH4 0x5FCBD285 PUSH1 0x40 MLOAD DUP2 PUSH4 0xFFFFFFFF AND PUSH1 0xE0 SHL DUP2 MSTORE PUSH1 0x4 ADD PUSH1 0x20 PUSH1 0x40 MLOAD DUP1 DUP4 SUB DUP2 DUP7 GAS STATICCALL ISZERO DUP1 ISZERO PUSH2 0x996 JUMPI RETURNDATASIZE PUSH1 0x0 DUP1 RETURNDATACOPY RETURNDATASIZE PUSH1 0x0 REVERT JUMPDEST POP POP POP POP PUSH1 0x40 MLOAD RETURNDATASIZE PUSH1 0x1F NOT PUSH1 0x1F DUP3 ADD AND DUP3 ADD DUP1 PUSH1 0x40 MSTORE POP DUP2 ADD SWAP1 PUSH2 0x9BA SWAP2 SWAP1 PUSH2 0x2545 JUMP JUMPDEST SWAP1 POP PUSH2 0x9D1 PUSH1 0x1 PUSH1 0x1 PUSH1 0xA0 SHL SUB DUP3 AND CALLER ADDRESS DUP12 PUSH2 0x1E02 JUMP JUMPDEST PUSH1 0x0 PUSH32 0x0 PUSH1 0x1 PUSH1 0x1 PUSH1 0xA0 SHL SUB AND PUSH4 0x48439E7E PUSH1 0x40 MLOAD DUP2 PUSH4 0xFFFFFFFF AND PUSH1 0xE0 SHL DUP2 MSTORE PUSH1 0x4 ADD PUSH1 0x20 PUSH1 0x40 MLOAD DUP1 DUP4 SUB DUP2 DUP7 GAS STATICCALL ISZERO DUP1 ISZERO PUSH2 0xA31 JUMPI RETURNDATASIZE PUSH1 0x0 DUP1 RETURNDATACOPY RETURNDATASIZE PUSH1 0x0 REVERT JUMPDEST POP POP POP POP PUSH1 0x40 MLOAD RETURNDATASIZE PUSH1 0x1F NOT PUSH1 0x1F DUP3 ADD AND DUP3 ADD DUP1 PUSH1 0x40 MSTORE POP DUP2 ADD SWAP1 PUSH2 0xA55 SWAP2 SWAP1 PUSH2 0x2545 JUMP JUMPDEST PUSH1 0x40 MLOAD PUSH4 0x95EA7B3 PUSH1 0xE0 SHL DUP2 MSTORE PUSH1 0x1 PUSH1 0x1 PUSH1 0xA0 SHL SUB DUP1 DUP4 AND PUSH1 0x4 DUP4 ADD MSTORE PUSH1 0x24 DUP3 ADD DUP13 SWAP1 MSTORE SWAP2 SWAP3 POP SWAP1 DUP4 AND SWAP1 PUSH4 0x95EA7B3 SWAP1 PUSH1 0x44 ADD PUSH1 0x20 PUSH1 0x40 MLOAD DUP1 DUP4 SUB DUP2 PUSH1 0x0 DUP8 GAS CALL ISZERO DUP1 ISZERO PUSH2 0xAA8 JUMPI RETURNDATASIZE PUSH1 0x0 DUP1 RETURNDATACOPY RETURNDATASIZE PUSH1 0x0 REVERT JUMPDEST POP POP POP POP PUSH1 0x40 MLOAD RETURNDATASIZE PUSH1 0x1F NOT PUSH1 0x1F DUP3 ADD AND DUP3 ADD DUP1 PUSH1 0x40 MSTORE POP DUP2 ADD SWAP1 PUSH2 0xACC SWAP2 SWAP1 PUSH2 0x2562 JUMP JUMPDEST POP PUSH1 0x40 MLOAD PUSH4 0x7ACB7757 PUSH1 0xE0 SHL DUP2 MSTORE PUSH1 0x4 DUP2 ADD DUP11 SWAP1 MSTORE PUSH1 0x1 PUSH1 0x1 PUSH1 0xA0 SHL SUB PUSH32 0x0 DUP2 AND PUSH1 0x24 DUP4 ADD MSTORE DUP3 AND SWAP1 PUSH4 0x7ACB7757 SWAP1 PUSH1 0x44 ADD PUSH1 0x0 PUSH1 0x40 MLOAD DUP1 DUP4 SUB DUP2 PUSH1 0x0 DUP8 DUP1 EXTCODESIZE ISZERO DUP1 ISZERO PUSH2 0xB37 JUMPI PUSH1 0x0 DUP1 REVERT JUMPDEST POP GAS CALL ISZERO DUP1 ISZERO PUSH2 0xB4B JUMPI RETURNDATASIZE PUSH1 0x0 DUP1 RETURNDATACOPY RETURNDATASIZE PUSH1 0x0 REVERT JUMPDEST POP POP POP POP DUP9 PUSH1 0xC PUSH1 0x0 PUSH32 0x0 PUSH1 0x8 SLOAD PUSH2 0xB82 SWAP2 SWAP1 PUSH2 0x2532 JUMP JUMPDEST DUP2 MSTORE PUSH1 0x20 ADD SWAP1 DUP2 MSTORE PUSH1 0x20 ADD PUSH1 0x0 KECCAK256 PUSH1 0x0 DUP3 DUP3 SLOAD PUSH2 0xB9F SWAP2 SWAP1 PUSH2 0x2532 JUMP JUMPDEST SWAP3 POP POP DUP2 SWAP1 SSTORE POP DUP3 PUSH1 0x7 PUSH1 0x0 DUP3 DUP3 SLOAD PUSH2 0xBB8 SWAP2 SWAP1 PUSH2 0x2532 JUMP JUMPDEST SWAP1 SWAP2 SSTORE POP POP PUSH1 0x40 MLOAD PUSH4 0x95EA7B3 PUSH1 0xE0 SHL DUP2 MSTORE PUSH1 0x1 PUSH1 0x1 PUSH1 0xA0 SHL SUB PUSH32 0x0 AND PUSH1 0x4 DUP3 ADD MSTORE PUSH1 0x24 DUP2 ADD DUP5 SWAP1 MSTORE PUSH20 0x9AE380F0272E2162340A5BB646C354271C0F5CFC SWAP1 PUSH4 0x95EA7B3 SWAP1 PUSH1 0x44 ADD PUSH1 0x20 PUSH1 0x40 MLOAD DUP1 DUP4 SUB DUP2 PUSH1 0x0 DUP8 GAS CALL ISZERO DUP1 ISZERO PUSH2 0xC3E JUMPI RETURNDATASIZE PUSH1 0x0 DUP1 RETURNDATACOPY RETURNDATASIZE PUSH1 0x0 REVERT JUMPDEST POP POP POP POP PUSH1 0x40 MLOAD RETURNDATASIZE PUSH1 0x1F NOT PUSH1 0x1F DUP3 ADD AND DUP3 ADD DUP1 PUSH1 0x40 MSTORE POP DUP2 ADD SWAP1 PUSH2 0xC62 SWAP2 SWAP1 PUSH2 0x2562 JUMP JUMPDEST POP PUSH1 0x40 MLOAD PUSH4 0xC5890D2D PUSH1 0xE0 SHL DUP2 MSTORE PUSH1 0x4 DUP2 ADD DUP5 SWAP1 MSTORE PUSH8 0xFFFFFFFFFFFFFFFF DUP9 AND PUSH1 0x24 DUP3 ADD MSTORE PUSH1 0x0 PUSH1 0x44 DUP3 ADD MSTORE PUSH1 0x1 PUSH1 0x1 PUSH1 0xA0 SHL SUB DUP8 DUP2 AND PUSH1 0x64 DUP4 ADD MSTORE PUSH32 0x0 AND SWAP1 PUSH4 0xC5890D2D SWAP1 PUSH1 0x84 ADD PUSH1 0x0 PUSH1 0x40 MLOAD DUP1 DUP4 SUB DUP2 PUSH1 0x0 DUP8 DUP1 EXTCODESIZE ISZERO DUP1 ISZERO PUSH2 0xCE4 JUMPI PUSH1 0x0 DUP1 REVERT JUMPDEST POP GAS CALL ISZERO DUP1 ISZERO PUSH2 0xCF8 JUMPI RETURNDATASIZE PUSH1 0x0 DUP1 RETURNDATACOPY RETURNDATASIZE PUSH1 0x0 REVERT JUMPDEST POP POP POP POP PUSH8 0xDE0B6B3A7640000 DUP5 LT PUSH2 0xD11 JUMPI DUP4 PUSH2 0xD1B JUMP JUMPDEST PUSH8 0xDE0B6B3A7640000 JUMPDEST PUSH1 0x9 SSTORE PUSH1 0x40 DUP1 MLOAD DUP11 DUP2 MSTORE PUSH1 0x20 DUP2 ADD DUP6 SWAP1 MSTORE PUSH8 0xFFFFFFFFFFFFFFFF DUP10 AND DUP2 DUP4 ADD MSTORE SWAP1 MLOAD PUSH1 0x1 PUSH1 0x1 PUSH1 0xA0 SHL SUB DUP9 AND SWAP2 CALLER SWAP2 PUSH32 0xAC3C8746B89D398CB40742A68232ABB55778432754236F5D5BC5C56A74971BAC SWAP2 DUP2 SWAP1 SUB PUSH1 0x60 ADD SWAP1 LOG3 POP SWAP1 SWAP8 SWAP7 POP POP POP POP POP POP POP JUMP JUMPDEST PUSH1 0x1 SLOAD PUSH1 0x1 PUSH1 0x1 PUSH1 0xA0 SHL SUB AND PUSH2 0xDCC JUMPI PUSH1 0x40 MLOAD PUSH3 0x461BCD PUSH1 0xE5 SHL DUP2 MSTORE PUSH1 0x20 PUSH1 0x4 DUP3 ADD MSTORE PUSH1 0x10 PUSH1 0x24 DUP3 ADD MSTORE PUSH16 0x139BC81919589D081C1BDBDB081CD95D PUSH1 0x82 SHL PUSH1 0x44 DUP3 ADD MSTORE PUSH1 0x64 ADD PUSH2 0x75F JUMP JUMPDEST PUSH1 0x40 MLOAD PUSH4 0x70A08231 PUSH1 0xE0 SHL DUP2 MSTORE ADDRESS PUSH1 0x4 DUP3 ADD MSTORE PUSH1 0x0 SWAP1 PUSH20 0x9AE380F0272E2162340A5BB646C354271C0F5CFC SWAP1 PUSH4 0x70A08231 SWAP1 PUSH1 0x24 ADD PUSH1 0x20 PUSH1 0x40 MLOAD DUP1 DUP4 SUB DUP2 DUP7 GAS STATICCALL ISZERO DUP1 ISZERO PUSH2 0xE1E JUMPI RETURNDATASIZE PUSH1 0x0 DUP1 RETURNDATACOPY RETURNDATASIZE PUSH1 0x0 REVERT JUMPDEST POP POP POP POP PUSH1 0x40 MLOAD RETURNDATASIZE PUSH1 0x1F NOT PUSH1 0x1F DUP3 ADD AND DUP3 ADD DUP1 PUSH1 0x40 MSTORE POP DUP2 ADD SWAP1 PUSH2 0xE42 SWAP2 SWAP1 PUSH2 0x2584 JUMP JUMPDEST SWAP1 POP PUSH32 0x0 PUSH1 0x1 PUSH1 0x1 PUSH1 0xA0 SHL SUB AND PUSH4 0xF4EF8A6 PUSH1 0x40 MLOAD DUP2 PUSH4 0xFFFFFFFF AND PUSH1 0xE0 SHL DUP2 MSTORE PUSH1 0x4 ADD PUSH1 0x20 PUSH1 0x40 MLOAD DUP1 DUP4 SUB DUP2 DUP7 GAS STATICCALL ISZERO DUP1 ISZERO PUSH2 0xEA2 JUMPI RETURNDATASIZE PUSH1 0x0 DUP1 RETURNDATACOPY RETURNDATASIZE PUSH1 0x0 REVERT JUMPDEST POP POP POP POP PUSH1 0x40 MLOAD RETURNDATASIZE PUSH1 0x1F NOT PUSH1 0x1F DUP3 ADD AND DUP3 ADD DUP1 PUSH1 0x40 MSTORE POP DUP2 ADD SWAP1 PUSH2 0xEC6 SWAP2 SWAP1 PUSH2 0x2545 JUMP JUMPDEST PUSH1 0x1 PUSH1 0x1 PUSH1 0xA0 SHL SUB AND PUSH4 0xD9CEAB13 PUSH1 0x40 MLOAD DUP2 PUSH4 0xFFFFFFFF AND PUSH1 0xE0 SHL DUP2 MSTORE PUSH1 0x4 ADD PUSH1 0x60 PUSH1 0x40 MLOAD DUP1 DUP4 SUB DUP2 PUSH1 0x0 DUP8 GAS CALL ISZERO DUP1 ISZERO PUSH2 0xF05 JUMPI RETURNDATASIZE PUSH1 0x0 DUP1 RETURNDATACOPY RETURNDATASIZE PUSH1 0x0 REVERT JUMPDEST POP POP POP POP PUSH1 0x40 MLOAD RETURNDATASIZE PUSH1 0x1F NOT PUSH1 0x1F DUP3 ADD AND DUP3 ADD DUP1 PUSH1 0x40 MSTORE POP DUP2 ADD SWAP1 PUSH2 0xF29 SWAP2 SWAP1 PUSH2 0x259D JUMP JUMPDEST POP POP PUSH1 0x40 MLOAD PUSH4 0x70A08231 PUSH1 0xE0 SHL DUP2 MSTORE ADDRESS PUSH1 0x4 DUP3 ADD MSTORE PUSH1 0x0 SWAP2 POP DUP3 SWAP1 PUSH20 0x9AE380F0272E2162340A5BB646C354271C0F5CFC SWAP1 PUSH4 0x70A08231 SWAP1 PUSH1 0x24 ADD PUSH1 0x20 PUSH1 0x40 MLOAD DUP1 DUP4 SUB DUP2 DUP7 GAS STATICCALL ISZERO DUP1 ISZERO PUSH2 0xF80 JUMPI RETURNDATASIZE PUSH1 0x0 DUP1 RETURNDATACOPY RETURNDATASIZE PUSH1 0x0 REVERT JUMPDEST POP POP POP POP PUSH1 0x40 MLOAD RETURNDATASIZE PUSH1 0x1F NOT PUSH1 0x1F DUP3 ADD AND DUP3 ADD DUP1 PUSH1 0x40 MSTORE POP DUP2 ADD SWAP1 PUSH2 0xFA4 SWAP2 SWAP1 PUSH2 0x2584 JUMP JUMPDEST PUSH2 0xFAE SWAP2 SWAP1 PUSH2 0x242F JUMP JUMPDEST PUSH1 0x40 MLOAD PUSH4 0x70A08231 PUSH1 0xE0 SHL DUP2 MSTORE ADDRESS PUSH1 0x4 DUP3 ADD MSTORE SWAP1 SWAP2 POP PUSH1 0x0 SWAP1 PUSH20 0xD533A949740BB3306D119CC777FA900BA034CD52 SWAP1 PUSH4 0x70A08231 SWAP1 PUSH1 0x24 ADD PUSH1 0x20 PUSH1 0x40 MLOAD DUP1 DUP4 SUB DUP2 DUP7 GAS STATICCALL ISZERO DUP1 ISZERO PUSH2 0x1003 JUMPI RETURNDATASIZE PUSH1 0x0 DUP1 RETURNDATACOPY RETURNDATASIZE PUSH1 0x0 REVERT JUMPDEST POP POP POP POP PUSH1 0x40 MLOAD RETURNDATASIZE PUSH1 0x1F NOT PUSH1 0x1F DUP3 ADD AND DUP3 ADD DUP1 PUSH1 0x40 MSTORE POP DUP2 ADD SWAP1 PUSH2 0x1027 SWAP2 SWAP1 PUSH2 0x2584 JUMP JUMPDEST PUSH1 0x40 MLOAD PUSH4 0x70A08231 PUSH1 0xE0 SHL DUP2 MSTORE ADDRESS PUSH1 0x4 DUP3 ADD MSTORE SWAP1 SWAP2 POP PUSH1 0x0 SWAP1 PUSH20 0x4E3FBD56CD56C3E72C1403E103B45DB9DA5B9D2B SWAP1 PUSH4 0x70A08231 SWAP1 PUSH1 0x24 ADD PUSH1 0x20 PUSH1 0x40 MLOAD DUP1 DUP4 SUB DUP2 DUP7 GAS STATICCALL ISZERO DUP1 ISZERO PUSH2 0x107C JUMPI RETURNDATASIZE PUSH1 0x0 DUP1 RETURNDATACOPY RETURNDATASIZE PUSH1 0x0 REVERT JUMPDEST POP POP POP POP PUSH1 0x40 MLOAD RETURNDATASIZE PUSH1 0x1F NOT PUSH1 0x1F DUP3 ADD AND DUP3 ADD DUP1 PUSH1 0x40 MSTORE POP DUP2 ADD SWAP1 PUSH2 0x10A0 SWAP2 SWAP1 PUSH2 0x2584 JUMP JUMPDEST PUSH1 0x1 SLOAD SWAP1 SWAP2 POP PUSH2 0x10CF SWAP1 PUSH20 0xD533A949740BB3306D119CC777FA900BA034CD52 SWAP1 PUSH1 0x1 PUSH1 0x1 PUSH1 0xA0 SHL SUB AND DUP5 PUSH2 0x1E73 JUMP JUMPDEST PUSH1 0x1 SLOAD PUSH2 0x10FB SWAP1 PUSH20 0x4E3FBD56CD56C3E72C1403E103B45DB9DA5B9D2B SWAP1 PUSH1 0x1 PUSH1 0x1 PUSH1 0xA0 SHL SUB AND DUP4 PUSH2 0x1E73 JUMP JUMPDEST PUSH1 0x1 SLOAD PUSH2 0x1127 SWAP1 PUSH20 0x9AE380F0272E2162340A5BB646C354271C0F5CFC SWAP1 PUSH1 0x1 PUSH1 0x1 PUSH1 0xA0 SHL SUB AND DUP6 PUSH2 0x1E73 JUMP JUMPDEST PUSH1 0x40 DUP1 MLOAD DUP4 DUP2 MSTORE PUSH1 0x20 DUP2 ADD DUP4 SWAP1 MSTORE SWAP1 DUP2 ADD DUP5 SWAP1 MSTORE PUSH32 0xC35564C915FD519DCE51800665D3358F893260AD81FC4693FBDBFA0D3149F051 SWAP1 PUSH1 0x60 ADD PUSH1 0x40 MLOAD DUP1 SWAP2 SUB SWAP1 LOG1 POP POP POP POP JUMP JUMPDEST PUSH2 0x1176 PUSH2 0x1BE3 JUMP JUMPDEST PUSH1 0x1 DUP1 SLOAD PUSH1 0x1 PUSH1 0x1 PUSH1 0xA0 SHL SUB NOT AND PUSH1 0x1 PUSH1 0x1 PUSH1 0xA0 SHL SUB DUP4 AND SWAP1 DUP2 OR SWAP1 SWAP2 SSTORE PUSH1 0x40 MLOAD PUSH32 0x897D28FC0F1CADC73EFFA45A06E2335D5371805B4DEC6BD0BF5F91ECAC62FD75 SWAP1 PUSH1 0x0 SWAP1 LOG2 POP JUMP JUMPDEST PUSH1 0x5 SLOAD PUSH1 0x8 SLOAD PUSH1 0x0 SWAP2 SWAP1 DUP3 JUMPDEST PUSH2 0x11F6 PUSH32 0x0 DUP4 PUSH2 0x2532 JUMP JUMPDEST TIMESTAMP LT PUSH2 0x1248 JUMPI PUSH2 0x1226 PUSH32 0x0 DUP4 PUSH2 0x2532 JUMP JUMPDEST SWAP2 POP DUP1 PUSH2 0x1243 JUMPI PUSH1 0x9 SLOAD PUSH1 0xA SLOAD PUSH2 0x123C SWAP2 PUSH2 0x1BCB JUMP JUMPDEST SWAP3 POP PUSH1 0x1 SWAP1 POP JUMPDEST PUSH2 0x11CC JUMP JUMPDEST PUSH1 0x0 PUSH2 0x1278 PUSH32 0x0 PUSH2 0x6BB DUP6 TIMESTAMP PUSH2 0x242F JUMP JUMPDEST PUSH2 0x1284 PUSH1 0x12 PUSH1 0xA PUSH2 0x2526 JUMP JUMPDEST PUSH2 0x128E SWAP2 SWAP1 PUSH2 0x242F JUMP JUMPDEST SWAP1 POP PUSH2 0x129A DUP5 DUP3 PUSH2 0x1BCB JUMP JUMPDEST SWAP5 POP POP POP POP POP SWAP1 JUMP JUMPDEST PUSH1 0x3 SLOAD PUSH1 0xFF AND PUSH2 0x12AF JUMPI JUMP JUMPDEST PUSH2 0x12B7 PUSH2 0x1EA8 JUMP JUMPDEST JUMP JUMPDEST PUSH2 0x12C1 PUSH2 0x1BE3 JUMP JUMPDEST PUSH1 0x3 SLOAD PUSH1 0xFF AND ISZERO PUSH2 0x1314 JUMPI PUSH1 0x40 MLOAD PUSH3 0x461BCD PUSH1 0xE5 SHL DUP2 MSTORE PUSH1 0x20 PUSH1 0x4 DUP3 ADD MSTORE PUSH1 0x17 PUSH1 0x24 DUP3 ADD MSTORE PUSH32 0x626F6E64696E6720616C72656164792073746172746564000000000000000000 PUSH1 0x44 DUP3 ADD MSTORE PUSH1 0x64 ADD PUSH2 0x75F JUMP JUMPDEST PUSH1 0x0 PUSH1 0xA SLOAD GT PUSH2 0x137B JUMPI PUSH1 0x40 MLOAD PUSH3 0x461BCD PUSH1 0xE5 SHL DUP2 MSTORE PUSH1 0x20 PUSH1 0x4 DUP3 ADD MSTORE PUSH1 0x2C PUSH1 0x24 DUP3 ADD MSTORE PUSH32 0x45706F636820707269636520696E63726561736520666163746F722068617320 PUSH1 0x44 DUP3 ADD MSTORE PUSH12 0x1B9BDD081899595B881CD95D PUSH1 0xA2 SHL PUSH1 0x64 DUP3 ADD MSTORE PUSH1 0x84 ADD PUSH2 0x75F JUMP JUMPDEST PUSH1 0x0 PUSH1 0x5 SLOAD GT PUSH2 0x13CD JUMPI PUSH1 0x40 MLOAD PUSH3 0x461BCD PUSH1 0xE5 SHL DUP2 MSTORE PUSH1 0x20 PUSH1 0x4 DUP3 ADD MSTORE PUSH1 0x17 PUSH1 0x24 DUP3 ADD MSTORE PUSH32 0x434E43207374617274207072696365206E6F7420736574000000000000000000 PUSH1 0x44 DUP3 ADD MSTORE PUSH1 0x64 ADD PUSH2 0x75F JUMP JUMPDEST PUSH1 0x40 MLOAD PUSH4 0x70A08231 PUSH1 0xE0 SHL DUP2 MSTORE ADDRESS PUSH1 0x4 DUP3 ADD MSTORE PUSH1 0x0 SWAP1 PUSH20 0x9AE380F0272E2162340A5BB646C354271C0F5CFC SWAP1 PUSH4 0x70A08231 SWAP1 PUSH1 0x24 ADD PUSH1 0x20 PUSH1 0x40 MLOAD DUP1 DUP4 SUB DUP2 DUP7 GAS STATICCALL ISZERO DUP1 ISZERO PUSH2 0x141F JUMPI RETURNDATASIZE PUSH1 0x0 DUP1 RETURNDATACOPY RETURNDATASIZE PUSH1 0x0 REVERT JUMPDEST POP POP POP POP PUSH1 0x40 MLOAD RETURNDATASIZE PUSH1 0x1F NOT PUSH1 0x1F DUP3 ADD AND DUP3 ADD DUP1 PUSH1 0x40 MSTORE POP DUP2 ADD SWAP1 PUSH2 0x1443 SWAP2 SWAP1 PUSH2 0x2584 JUMP JUMPDEST SWAP1 POP PUSH1 0x0 DUP2 GT PUSH2 0x1495 JUMPI PUSH1 0x40 MLOAD PUSH3 0x461BCD PUSH1 0xE5 SHL DUP2 MSTORE PUSH1 0x20 PUSH1 0x4 DUP3 ADD MSTORE PUSH1 0x1B PUSH1 0x24 DUP3 ADD MSTORE PUSH32 0x6E6F20434E432062616C616E636520746F20626F6E6420776974680000000000 PUSH1 0x44 DUP3 ADD MSTORE PUSH1 0x64 ADD PUSH2 0x75F JUMP JUMPDEST PUSH2 0x14BF PUSH32 0x0 DUP3 PUSH2 0x25CB JUMP JUMPDEST PUSH1 0x2 SSTORE TIMESTAMP PUSH1 0xE DUP2 SWAP1 SSTORE PUSH1 0xD DUP2 SWAP1 SSTORE PUSH1 0x8 SSTORE PUSH2 0x151A PUSH32 0x0 PUSH32 0x0 PUSH2 0x25ED JUMP JUMPDEST PUSH2 0x1524 SWAP1 TIMESTAMP PUSH2 0x2532 JUMP JUMPDEST PUSH1 0x4 SSTORE PUSH1 0x3 DUP1 SLOAD PUSH1 0xFF NOT AND PUSH1 0x1 OR SWAP1 SSTORE PUSH1 0x2 SLOAD PUSH1 0x6 SSTORE PUSH1 0x40 DUP1 MLOAD DUP3 DUP2 MSTORE PUSH32 0x0 PUSH1 0x20 DUP3 ADD MSTORE PUSH32 0xEA76EE52281E88BB7BAB355426A8B2E5DD63D1B7E0977519FD651A4E49F892F9 SWAP2 ADD PUSH2 0x799 JUMP JUMPDEST PUSH2 0x1597 PUSH2 0x1BE3 JUMP JUMPDEST PUSH1 0x4 SLOAD TIMESTAMP GT PUSH2 0x15E8 JUMPI PUSH1 0x40 MLOAD PUSH3 0x461BCD PUSH1 0xE5 SHL DUP2 MSTORE PUSH1 0x20 PUSH1 0x4 DUP3 ADD MSTORE PUSH1 0x19 PUSH1 0x24 DUP3 ADD MSTORE PUSH32 0x426F6E64696E6720686173206E6F742079657420656E64656400000000000000 PUSH1 0x44 DUP3 ADD MSTORE PUSH1 0x64 ADD PUSH2 0x75F JUMP JUMPDEST PUSH1 0x40 MLOAD PUSH4 0x70A08231 PUSH1 0xE0 SHL DUP2 MSTORE ADDRESS PUSH1 0x4 DUP3 ADD MSTORE PUSH1 0x0 SWAP1 PUSH20 0x9AE380F0272E2162340A5BB646C354271C0F5CFC SWAP1 PUSH4 0x70A08231 SWAP1 PUSH1 0x24 ADD PUSH1 0x20 PUSH1 0x40 MLOAD DUP1 DUP4 SUB DUP2 DUP7 GAS STATICCALL ISZERO DUP1 ISZERO PUSH2 0x163A JUMPI RETURNDATASIZE PUSH1 0x0 DUP1 RETURNDATACOPY RETURNDATASIZE PUSH1 0x0 REVERT JUMPDEST POP POP POP POP PUSH1 0x40 MLOAD RETURNDATASIZE PUSH1 0x1F NOT PUSH1 0x1F DUP3 ADD AND DUP3 ADD DUP1 PUSH1 0x40 MSTORE POP DUP2 ADD SWAP1 PUSH2 0x165E SWAP2 SWAP1 PUSH2 0x2584 JUMP JUMPDEST SWAP1 POP PUSH2 0x169F PUSH20 0x9AE380F0272E2162340A5BB646C354271C0F5CFC PUSH32 0x0 DUP4 PUSH2 0x1E73 JUMP JUMPDEST PUSH1 0x40 MLOAD DUP2 DUP2 MSTORE PUSH32 0x83215A5B38B70B63639F55D51A13668784E98C26EE62B611805553E4150AD5F5 SWAP1 PUSH1 0x20 ADD PUSH2 0x799 JUMP JUMPDEST PUSH2 0x16D7 PUSH2 0x1BE3 JUMP JUMPDEST PUSH2 0x12B7 PUSH1 0x0 PUSH2 0x1F65 JUMP JUMPDEST PUSH2 0x16E9 PUSH2 0x1BE3 JUMP JUMPDEST PUSH9 0x3635C9ADC5DEA00000 DUP2 GT ISZERO PUSH2 0x1742 JUMPI PUSH1 0x40 MLOAD PUSH3 0x461BCD PUSH1 0xE5 SHL DUP2 MSTORE PUSH1 0x20 PUSH1 0x4 DUP3 ADD MSTORE PUSH1 0x1F PUSH1 0x24 DUP3 ADD MSTORE PUSH32 0x4D696E2E20626F6E64696E6720616D6F756E7420697320746F6F206869676800 PUSH1 0x44 DUP3 ADD MSTORE PUSH1 0x64 ADD PUSH2 0x75F JUMP JUMPDEST PUSH1 0xB DUP2 SWAP1 SSTORE PUSH1 0x40 MLOAD DUP2 DUP2 MSTORE PUSH32 0x10E09798485729CE5FD12B76A828D533749854E5A975BDA711C14B2F5894B0D7 SWAP1 PUSH1 0x20 ADD PUSH2 0x799 JUMP JUMPDEST PUSH1 0x6 SLOAD PUSH1 0x8 SLOAD PUSH1 0x0 SWAP2 SWAP1 JUMPDEST PUSH2 0x17AC PUSH32 0x0 DUP3 PUSH2 0x2532 JUMP JUMPDEST TIMESTAMP LT PUSH2 0x17F2 JUMPI PUSH1 0x2 SLOAD PUSH2 0x17BF SWAP1 DUP4 PUSH2 0x2532 JUMP JUMPDEST SWAP2 POP PUSH2 0x17EB PUSH32 0x0 DUP3 PUSH2 0x2532 JUMP JUMPDEST SWAP1 POP PUSH2 0x1782 JUMP JUMPDEST POP SWAP2 SWAP1 POP JUMP JUMPDEST PUSH1 0x3 SLOAD PUSH1 0xFF AND PUSH2 0x1805 JUMPI POP JUMP JUMPDEST PUSH2 0x180E DUP2 PUSH2 0x1CE7 JUMP JUMPDEST POP JUMP JUMPDEST PUSH2 0x1819 PUSH2 0x1BE3 JUMP JUMPDEST PUSH8 0xDE0B6B3A7640000 DUP2 LT ISZERO DUP1 ISZERO PUSH2 0x183A JUMPI POP PUSH9 0x1158E460913D00000 DUP2 GT ISZERO JUMPDEST PUSH2 0x1899 JUMPI PUSH1 0x40 MLOAD PUSH3 0x461BCD PUSH1 0xE5 SHL DUP2 MSTORE PUSH1 0x20 PUSH1 0x4 DUP3 ADD MSTORE PUSH1 0x2A PUSH1 0x24 DUP3 ADD MSTORE PUSH32 0x434E43207374617274207072696365206E6F742077697468696E207065726D69 PUSH1 0x44 DUP3 ADD MSTORE PUSH10 0x747465642072616E6765 PUSH1 0xB0 SHL PUSH1 0x64 DUP3 ADD MSTORE PUSH1 0x84 ADD PUSH2 0x75F JUMP JUMPDEST PUSH1 0x5 DUP2 SWAP1 SSTORE PUSH1 0x9 DUP2 SWAP1 SSTORE PUSH1 0x40 MLOAD DUP2 DUP2 MSTORE PUSH32 0xB7981E6C408018A3A6208B34883F61769546910CC29089A9CAC5C1E6C3F45145 SWAP1 PUSH1 0x20 ADD PUSH2 0x799 JUMP JUMPDEST PUSH1 0x3 SLOAD PUSH1 0xFF AND PUSH2 0x18DF JUMPI JUMP JUMPDEST PUSH2 0x18E8 CALLER PUSH2 0x1CE7 JUMP JUMPDEST PUSH1 0x0 PUSH32 0x0 PUSH1 0x1 PUSH1 0x1 PUSH1 0xA0 SHL SUB AND PUSH4 0x5FCBD285 PUSH1 0x40 MLOAD DUP2 PUSH4 0xFFFFFFFF AND PUSH1 0xE0 SHL DUP2 MSTORE PUSH1 0x4 ADD PUSH1 0x20 PUSH1 0x40 MLOAD DUP1 DUP4 SUB DUP2 DUP7 GAS STATICCALL ISZERO DUP1 ISZERO PUSH2 0x1948 JUMPI RETURNDATASIZE PUSH1 0x0 DUP1 RETURNDATACOPY RETURNDATASIZE PUSH1 0x0 REVERT JUMPDEST POP POP POP POP PUSH1 0x40 MLOAD RETURNDATASIZE PUSH1 0x1F NOT PUSH1 0x1F DUP3 ADD AND DUP3 ADD DUP1 PUSH1 0x40 MSTORE POP DUP2 ADD SWAP1 PUSH2 0x196C SWAP2 SWAP1 PUSH2 0x2545 JUMP JUMPDEST CALLER PUSH1 0x0 SWAP1 DUP2 MSTORE PUSH1 0x10 PUSH1 0x20 MSTORE PUSH1 0x40 SWAP1 KECCAK256 SLOAD SWAP1 SWAP2 POP DUP1 PUSH2 0x19B9 JUMPI PUSH1 0x40 MLOAD PUSH3 0x461BCD PUSH1 0xE5 SHL DUP2 MSTORE PUSH1 0x20 PUSH1 0x4 DUP3 ADD MSTORE PUSH1 0xA PUSH1 0x24 DUP3 ADD MSTORE PUSH10 0x6E6F2062616C616E6365 PUSH1 0xB0 SHL PUSH1 0x44 DUP3 ADD MSTORE PUSH1 0x64 ADD PUSH2 0x75F JUMP JUMPDEST PUSH1 0x0 PUSH32 0x0 PUSH1 0x1 PUSH1 0x1 PUSH1 0xA0 SHL SUB AND PUSH4 0x48439E7E PUSH1 0x40 MLOAD DUP2 PUSH4 0xFFFFFFFF AND PUSH1 0xE0 SHL DUP2 MSTORE PUSH1 0x4 ADD PUSH1 0x20 PUSH1 0x40 MLOAD DUP1 DUP4 SUB DUP2 DUP7 GAS STATICCALL ISZERO DUP1 ISZERO PUSH2 0x1A19 JUMPI RETURNDATASIZE PUSH1 0x0 DUP1 RETURNDATACOPY RETURNDATASIZE PUSH1 0x0 REVERT JUMPDEST POP POP POP POP PUSH1 0x40 MLOAD RETURNDATASIZE PUSH1 0x1F NOT PUSH1 0x1F DUP3 ADD AND DUP3 ADD DUP1 PUSH1 0x40 MSTORE POP DUP2 ADD SWAP1 PUSH2 0x1A3D SWAP2 SWAP1 PUSH2 0x2545 JUMP JUMPDEST PUSH1 0x40 MLOAD PUSH4 0x41C0F0C1 PUSH1 0xE1 SHL DUP2 MSTORE PUSH1 0x4 DUP2 ADD DUP5 SWAP1 MSTORE PUSH1 0x1 PUSH1 0x1 PUSH1 0xA0 SHL SUB PUSH32 0x0 DUP2 AND PUSH1 0x24 DUP4 ADD MSTORE SWAP2 SWAP3 POP SWAP1 DUP3 AND SWAP1 PUSH4 0x8381E182 SWAP1 PUSH1 0x44 ADD PUSH1 0x0 PUSH1 0x40 MLOAD DUP1 DUP4 SUB DUP2 PUSH1 0x0 DUP8 DUP1 EXTCODESIZE ISZERO DUP1 ISZERO PUSH2 0x1AAB JUMPI PUSH1 0x0 DUP1 REVERT JUMPDEST POP GAS CALL ISZERO DUP1 ISZERO PUSH2 0x1ABF JUMPI RETURNDATASIZE PUSH1 0x0 DUP1 RETURNDATACOPY RETURNDATASIZE PUSH1 0x0 REVERT JUMPDEST POP PUSH2 0x1AD8 SWAP3 POP POP POP PUSH1 0x1 PUSH1 0x1 PUSH1 0xA0 SHL SUB DUP5 AND CALLER DUP5 PUSH2 0x1E73 JUMP JUMPDEST CALLER PUSH1 0x0 DUP2 DUP2 MSTORE PUSH1 0x10 PUSH1 0x20 MSTORE PUSH1 0x40 DUP1 DUP3 KECCAK256 SWAP2 SWAP1 SWAP2 SSTORE MLOAD PUSH32 0x77F1AF9635C992F9B354C06F732CC27C28F021EA0FECFBF4BEC2329401C9663F SWAP1 PUSH2 0x1B1C SWAP1 DUP6 DUP2 MSTORE PUSH1 0x20 ADD SWAP1 JUMP JUMPDEST PUSH1 0x40 MLOAD DUP1 SWAP2 SUB SWAP1 LOG2 POP POP POP JUMP JUMPDEST PUSH2 0x1B31 PUSH2 0x1BE3 JUMP JUMPDEST PUSH1 0x1 PUSH1 0x1 PUSH1 0xA0 SHL SUB DUP2 AND PUSH2 0x1B96 JUMPI PUSH1 0x40 MLOAD PUSH3 0x461BCD PUSH1 0xE5 SHL DUP2 MSTORE PUSH1 0x20 PUSH1 0x4 DUP3 ADD MSTORE PUSH1 0x26 PUSH1 0x24 DUP3 ADD MSTORE PUSH32 0x4F776E61626C653A206E6577206F776E657220697320746865207A65726F2061 PUSH1 0x44 DUP3 ADD MSTORE PUSH6 0x646472657373 PUSH1 0xD0 SHL PUSH1 0x64 DUP3 ADD MSTORE PUSH1 0x84 ADD PUSH2 0x75F JUMP JUMPDEST PUSH2 0x180E DUP2 PUSH2 0x1F65 JUMP JUMPDEST PUSH1 0x0 DUP2 PUSH2 0x1BAE PUSH1 0x12 PUSH1 0xA PUSH2 0x2526 JUMP JUMPDEST PUSH2 0x1BB8 SWAP1 DUP6 PUSH2 0x25ED JUMP JUMPDEST PUSH2 0x1BC2 SWAP2 SWAP1 PUSH2 0x25CB JUMP JUMPDEST SWAP1 POP JUMPDEST SWAP3 SWAP2 POP POP JUMP JUMPDEST PUSH1 0x0 PUSH2 0x1BD9 PUSH1 0x12 PUSH1 0xA PUSH2 0x2526 JUMP JUMPDEST PUSH2 0x1BB8 DUP4 DUP6 PUSH2 0x25ED JUMP JUMPDEST PUSH1 0x0 SLOAD PUSH1 0x1 PUSH1 0x1 PUSH1 0xA0 SHL SUB AND CALLER EQ PUSH2 0x12B7 JUMPI PUSH1 0x40 MLOAD PUSH3 0x461BCD PUSH1 0xE5 SHL DUP2 MSTORE PUSH1 0x20 PUSH1 0x4 DUP3 ADD DUP2 SWAP1 MSTORE PUSH1 0x24 DUP3 ADD MSTORE PUSH32 0x4F776E61626C653A2063616C6C6572206973206E6F7420746865206F776E6572 PUSH1 0x44 DUP3 ADD MSTORE PUSH1 0x64 ADD PUSH2 0x75F JUMP JUMPDEST PUSH1 0x0 JUMPDEST PUSH32 0x0 PUSH1 0x8 SLOAD PUSH2 0x1C6E SWAP2 SWAP1 PUSH2 0x2532 JUMP JUMPDEST TIMESTAMP LT PUSH2 0x180E JUMPI PUSH1 0x2 SLOAD PUSH1 0x6 PUSH1 0x0 DUP3 DUP3 SLOAD PUSH2 0x1C88 SWAP2 SWAP1 PUSH2 0x2532 JUMP JUMPDEST SWAP3 POP POP DUP2 SWAP1 SSTORE POP PUSH32 0x0 PUSH1 0x8 PUSH1 0x0 DUP3 DUP3 SLOAD PUSH2 0x1CC1 SWAP2 SWAP1 PUSH2 0x2532 JUMP JUMPDEST SWAP1 SWAP2 SSTORE POP DUP2 SWAP1 POP PUSH2 0x1CE2 JUMPI PUSH1 0x9 SLOAD PUSH1 0xA SLOAD PUSH2 0x1CDB SWAP2 PUSH2 0x1BCB JUMP JUMPDEST PUSH1 0x5 SSTORE POP PUSH1 0x1 JUMPDEST PUSH2 0x1C40 JUMP JUMPDEST PUSH2 0x1CEF PUSH2 0x1EA8 JUMP JUMPDEST PUSH1 0x40 MLOAD PUSH4 0x28A81039 PUSH1 0xE0 SHL DUP2 MSTORE PUSH1 0x1 PUSH1 0x1 PUSH1 0xA0 SHL SUB DUP3 DUP2 AND PUSH1 0x4 DUP4 ADD MSTORE PUSH1 0x0 SWAP2 PUSH32 0x0 SWAP1 SWAP2 AND SWAP1 PUSH4 0x28A81039 SWAP1 PUSH1 0x24 ADD PUSH1 0x20 PUSH1 0x40 MLOAD DUP1 DUP4 SUB DUP2 DUP7 GAS STATICCALL ISZERO DUP1 ISZERO PUSH2 0x1D5A JUMPI RETURNDATASIZE PUSH1 0x0 DUP1 RETURNDATACOPY RETURNDATASIZE PUSH1 0x0 REVERT JUMPDEST POP POP POP POP PUSH1 0x40 MLOAD RETURNDATASIZE PUSH1 0x1F NOT PUSH1 0x1F DUP3 ADD AND DUP3 ADD DUP1 PUSH1 0x40 MSTORE POP DUP2 ADD SWAP1 PUSH2 0x1D7E SWAP2 SWAP1 PUSH2 0x2584 JUMP JUMPDEST PUSH1 0x1 PUSH1 0x1 PUSH1 0xA0 SHL SUB DUP4 AND PUSH1 0x0 SWAP1 DUP2 MSTORE PUSH1 0xF PUSH1 0x20 MSTORE PUSH1 0x40 SWAP1 KECCAK256 SLOAD PUSH1 0x11 SLOAD SWAP2 SWAP3 POP PUSH2 0x1DB2 SWAP2 PUSH2 0x1DAB SWAP2 SWAP1 PUSH2 0x242F JUMP JUMPDEST DUP3 SWAP1 PUSH2 0x1BCB JUMP JUMPDEST PUSH1 0x1 PUSH1 0x1 PUSH1 0xA0 SHL SUB DUP4 AND PUSH1 0x0 SWAP1 DUP2 MSTORE PUSH1 0x10 PUSH1 0x20 MSTORE PUSH1 0x40 DUP2 KECCAK256 DUP1 SLOAD SWAP1 SWAP2 SWAP1 PUSH2 0x1DDA SWAP1 DUP5 SWAP1 PUSH2 0x2532 JUMP JUMPDEST SWAP1 SWAP2 SSTORE POP POP PUSH1 0x11 SLOAD PUSH1 0x1 PUSH1 0x1 PUSH1 0xA0 SHL SUB SWAP1 SWAP3 AND PUSH1 0x0 SWAP1 DUP2 MSTORE PUSH1 0xF PUSH1 0x20 MSTORE PUSH1 0x40 SWAP1 KECCAK256 SWAP2 SWAP1 SWAP2 SSTORE POP JUMP JUMPDEST PUSH1 0x40 MLOAD PUSH1 0x1 PUSH1 0x1 PUSH1 0xA0 SHL SUB DUP1 DUP6 AND PUSH1 0x24 DUP4 ADD MSTORE DUP4 AND PUSH1 0x44 DUP3 ADD MSTORE PUSH1 0x64 DUP2 ADD DUP3 SWAP1 MSTORE PUSH2 0x1E6D SWAP1 DUP6 SWAP1 PUSH4 0x23B872DD PUSH1 0xE0 SHL SWAP1 PUSH1 0x84 ADD JUMPDEST PUSH1 0x40 DUP1 MLOAD PUSH1 0x1F NOT DUP2 DUP5 SUB ADD DUP2 MSTORE SWAP2 SWAP1 MSTORE PUSH1 0x20 DUP2 ADD DUP1 MLOAD PUSH1 0x1 PUSH1 0x1 PUSH1 0xE0 SHL SUB AND PUSH1 0x1 PUSH1 0x1 PUSH1 0xE0 SHL SUB NOT SWAP1 SWAP4 AND SWAP3 SWAP1 SWAP3 OR SWAP1 SWAP2 MSTORE PUSH2 0x1FB5 JUMP JUMPDEST POP POP POP POP JUMP JUMPDEST PUSH1 0x40 MLOAD PUSH1 0x1 PUSH1 0x1 PUSH1 0xA0 SHL SUB DUP4 AND PUSH1 0x24 DUP3 ADD MSTORE PUSH1 0x44 DUP2 ADD DUP3 SWAP1 MSTORE PUSH2 0x1EA3 SWAP1 DUP5 SWAP1 PUSH4 0xA9059CBB PUSH1 0xE0 SHL SWAP1 PUSH1 0x64 ADD PUSH2 0x1E36 JUMP JUMPDEST POP POP POP JUMP JUMPDEST PUSH1 0x0 PUSH2 0x1EB2 PUSH2 0x208A JUMP JUMPDEST SWAP1 POP PUSH1 0x0 PUSH32 0x0 PUSH1 0x1 PUSH1 0x1 PUSH1 0xA0 SHL SUB AND PUSH4 0x631516C2 PUSH1 0x40 MLOAD DUP2 PUSH4 0xFFFFFFFF AND PUSH1 0xE0 SHL DUP2 MSTORE PUSH1 0x4 ADD PUSH1 0x20 PUSH1 0x40 MLOAD DUP1 DUP4 SUB DUP2 DUP7 GAS STATICCALL ISZERO DUP1 ISZERO PUSH2 0x1F14 JUMPI RETURNDATASIZE PUSH1 0x0 DUP1 RETURNDATACOPY RETURNDATASIZE PUSH1 0x0 REVERT JUMPDEST POP POP POP POP PUSH1 0x40 MLOAD RETURNDATASIZE PUSH1 0x1F NOT PUSH1 0x1F DUP3 ADD AND DUP3 ADD DUP1 PUSH1 0x40 MSTORE POP DUP2 ADD SWAP1 PUSH2 0x1F38 SWAP2 SWAP1 PUSH2 0x2584 JUMP JUMPDEST SWAP1 POP DUP1 ISZERO PUSH2 0x1F61 JUMPI PUSH2 0x1F4A DUP3 DUP3 PUSH2 0x1B9F JUMP JUMPDEST PUSH1 0x11 PUSH1 0x0 DUP3 DUP3 SLOAD PUSH2 0x1F5B SWAP2 SWAP1 PUSH2 0x2532 JUMP JUMPDEST SWAP1 SWAP2 SSTORE POP POP JUMPDEST POP POP JUMP JUMPDEST PUSH1 0x0 DUP1 SLOAD PUSH1 0x1 PUSH1 0x1 PUSH1 0xA0 SHL SUB DUP4 DUP2 AND PUSH1 0x1 PUSH1 0x1 PUSH1 0xA0 SHL SUB NOT DUP4 AND DUP2 OR DUP5 SSTORE PUSH1 0x40 MLOAD SWAP2 SWAP1 SWAP3 AND SWAP3 DUP4 SWAP2 PUSH32 0x8BE0079C531659141344CD1FD0A4F28419497F9722A3DAAFE3B4186F6B6457E0 SWAP2 SWAP1 LOG3 POP POP JUMP JUMPDEST PUSH1 0x0 PUSH2 0x200A DUP3 PUSH1 0x40 MLOAD DUP1 PUSH1 0x40 ADD PUSH1 0x40 MSTORE DUP1 PUSH1 0x20 DUP2 MSTORE PUSH1 0x20 ADD PUSH32 0x5361666545524332303A206C6F772D6C6576656C2063616C6C206661696C6564 DUP2 MSTORE POP DUP6 PUSH1 0x1 PUSH1 0x1 PUSH1 0xA0 SHL SUB AND PUSH2 0x220A SWAP1 SWAP3 SWAP2 SWAP1 PUSH4 0xFFFFFFFF AND JUMP JUMPDEST SWAP1 POP DUP1 MLOAD PUSH1 0x0 EQ DUP1 PUSH2 0x202B JUMPI POP DUP1 DUP1 PUSH1 0x20 ADD SWAP1 MLOAD DUP2 ADD SWAP1 PUSH2 0x202B SWAP2 SWAP1 PUSH2 0x2562 JUMP JUMPDEST PUSH2 0x1EA3 JUMPI PUSH1 0x40 MLOAD PUSH3 0x461BCD PUSH1 0xE5 SHL DUP2 MSTORE PUSH1 0x20 PUSH1 0x4 DUP3 ADD MSTORE PUSH1 0x2A PUSH1 0x24 DUP3 ADD MSTORE PUSH32 0x5361666545524332303A204552433230206F7065726174696F6E20646964206E PUSH1 0x44 DUP3 ADD MSTORE PUSH10 0x1BDD081CDD58D8D95959 PUSH1 0xB2 SHL PUSH1 0x64 DUP3 ADD MSTORE PUSH1 0x84 ADD PUSH2 0x75F JUMP JUMPDEST PUSH1 0x0 DUP1 PUSH1 0x0 JUMPDEST PUSH32 0x0 PUSH1 0xE SLOAD PUSH2 0x20BE SWAP2 SWAP1 PUSH2 0x2532 JUMP JUMPDEST TIMESTAMP LT ISZERO DUP1 ISZERO PUSH2 0x20FB JUMPI POP PUSH32 0x0 PUSH1 0x4 SLOAD PUSH2 0x20F6 SWAP2 SWAP1 PUSH2 0x2532 JUMP JUMPDEST PUSH1 0xE SLOAD LT JUMPDEST ISZERO PUSH2 0x21AA JUMPI PUSH1 0xE SLOAD PUSH1 0x0 DUP2 DUP2 MSTORE PUSH1 0xC PUSH1 0x20 MSTORE PUSH1 0x40 SWAP1 KECCAK256 SLOAD PUSH1 0xD SLOAD PUSH2 0x215A SWAP3 PUSH2 0x2154 SWAP2 PUSH32 0x0 SWAP2 PUSH2 0x214A SWAP1 DUP4 SWAP1 PUSH2 0x2532 JUMP JUMPDEST PUSH2 0x6BB SWAP2 SWAP1 PUSH2 0x242F JUMP JUMPDEST SWAP1 PUSH2 0x1BCB JUMP JUMPDEST SWAP1 POP PUSH32 0x0 PUSH1 0xE PUSH1 0x0 DUP3 DUP3 SLOAD PUSH2 0x218E SWAP2 SWAP1 PUSH2 0x2532 JUMP JUMPDEST SWAP1 SWAP2 SSTORE POP POP PUSH1 0xE SLOAD PUSH1 0xD SSTORE PUSH2 0x21A3 DUP2 DUP4 PUSH2 0x2532 JUMP JUMPDEST SWAP2 POP PUSH2 0x2090 JUMP JUMPDEST PUSH2 0x21F5 PUSH1 0xC PUSH1 0x0 PUSH1 0xE SLOAD DUP2 MSTORE PUSH1 0x20 ADD SWAP1 DUP2 MSTORE PUSH1 0x20 ADD PUSH1 0x0 KECCAK256 SLOAD PUSH2 0x2154 PUSH32 0x0 PUSH1 0xD SLOAD TIMESTAMP PUSH2 0x6BB SWAP2 SWAP1 PUSH2 0x242F JUMP JUMPDEST PUSH2 0x21FF SWAP1 DUP4 PUSH2 0x2532 JUMP JUMPDEST TIMESTAMP PUSH1 0xD SSTORE SWAP4 SWAP3 POP POP POP JUMP JUMPDEST PUSH1 0x60 PUSH2 0x6FB DUP5 DUP5 PUSH1 0x0 DUP6 DUP6 PUSH1 0x0 DUP1 DUP7 PUSH1 0x1 PUSH1 0x1 PUSH1 0xA0 SHL SUB AND DUP6 DUP8 PUSH1 0x40 MLOAD PUSH2 0x2231 SWAP2 SWAP1 PUSH2 0x2628 JUMP JUMPDEST PUSH1 0x0 PUSH1 0x40 MLOAD DUP1 DUP4 SUB DUP2 DUP6 DUP8 GAS CALL SWAP3 POP POP POP RETURNDATASIZE DUP1 PUSH1 0x0 DUP2 EQ PUSH2 0x226E JUMPI PUSH1 0x40 MLOAD SWAP2 POP PUSH1 0x1F NOT PUSH1 0x3F RETURNDATASIZE ADD AND DUP3 ADD PUSH1 0x40 MSTORE RETURNDATASIZE DUP3 MSTORE RETURNDATASIZE PUSH1 0x0 PUSH1 0x20 DUP5 ADD RETURNDATACOPY PUSH2 0x2273 JUMP JUMPDEST PUSH1 0x60 SWAP2 POP JUMPDEST POP SWAP2 POP SWAP2 POP PUSH2 0x2284 DUP8 DUP4 DUP4 DUP8 PUSH2 0x228F JUMP JUMPDEST SWAP8 SWAP7 POP POP POP POP POP POP POP JUMP JUMPDEST PUSH1 0x60 DUP4 ISZERO PUSH2 0x22FE JUMPI DUP3 MLOAD PUSH1 0x0 SUB PUSH2 0x22F7 JUMPI PUSH1 0x1 PUSH1 0x1 PUSH1 0xA0 SHL SUB DUP6 AND EXTCODESIZE PUSH2 0x22F7 JUMPI PUSH1 0x40 MLOAD PUSH3 0x461BCD PUSH1 0xE5 SHL DUP2 MSTORE PUSH1 0x20 PUSH1 0x4 DUP3 ADD MSTORE PUSH1 0x1D PUSH1 0x24 DUP3 ADD MSTORE PUSH32 0x416464726573733A2063616C6C20746F206E6F6E2D636F6E7472616374000000 PUSH1 0x44 DUP3 ADD MSTORE PUSH1 0x64 ADD PUSH2 0x75F JUMP JUMPDEST POP DUP2 PUSH2 0x6FB JUMP JUMPDEST PUSH2 0x6FB DUP4 DUP4 DUP2 MLOAD ISZERO PUSH2 0x2313 JUMPI DUP2 MLOAD DUP1 DUP4 PUSH1 0x20 ADD REVERT JUMPDEST DUP1 PUSH1 0x40 MLOAD PUSH3 0x461BCD PUSH1 0xE5 SHL DUP2 MSTORE PUSH1 0x4 ADD PUSH2 0x75F SWAP2 SWAP1 PUSH2 0x2644 JUMP JUMPDEST DUP1 CALLDATALOAD PUSH8 0xFFFFFFFFFFFFFFFF DUP2 AND DUP2 EQ PUSH2 0x2345 JUMPI PUSH1 0x0 DUP1 REVERT JUMPDEST SWAP2 SWAP1 POP JUMP JUMPDEST PUSH1 0x0 DUP1 PUSH1 0x0 PUSH1 0x60 DUP5 DUP7 SUB SLT ISZERO PUSH2 0x235F JUMPI PUSH1 0x0 DUP1 REVERT JUMPDEST DUP4 CALLDATALOAD SWAP3 POP PUSH1 0x20 DUP5 ADD CALLDATALOAD SWAP2 POP PUSH2 0x2376 PUSH1 0x40 DUP6 ADD PUSH2 0x232D JUMP JUMPDEST SWAP1 POP SWAP3 POP SWAP3 POP SWAP3 JUMP JUMPDEST PUSH1 0x0 PUSH1 0x20 DUP3 DUP5 SUB SLT ISZERO PUSH2 0x2391 JUMPI PUSH1 0x0 DUP1 REVERT JUMPDEST POP CALLDATALOAD SWAP2 SWAP1 POP JUMP JUMPDEST PUSH1 0x1 PUSH1 0x1 PUSH1 0xA0 SHL SUB DUP2 AND DUP2 EQ PUSH2 0x180E JUMPI PUSH1 0x0 DUP1 REVERT JUMPDEST PUSH1 0x0 DUP1 PUSH1 0x0 DUP1 PUSH1 0x80 DUP6 DUP8 SUB SLT ISZERO PUSH2 0x23C3 JUMPI PUSH1 0x0 DUP1 REVERT JUMPDEST DUP5 CALLDATALOAD SWAP4 POP PUSH1 0x20 DUP6 ADD CALLDATALOAD SWAP3 POP PUSH2 0x23DA PUSH1 0x40 DUP7 ADD PUSH2 0x232D JUMP JUMPDEST SWAP2 POP PUSH1 0x60 DUP6 ADD CALLDATALOAD PUSH2 0x23EA DUP2 PUSH2 0x2398 JUMP JUMPDEST SWAP4 SWAP7 SWAP3 SWAP6 POP SWAP1 SWAP4 POP POP JUMP JUMPDEST PUSH1 0x0 PUSH1 0x20 DUP3 DUP5 SUB SLT ISZERO PUSH2 0x2407 JUMPI PUSH1 0x0 DUP1 REVERT JUMPDEST DUP2 CALLDATALOAD PUSH2 0x2412 DUP2 PUSH2 0x2398 JUMP JUMPDEST SWAP4 SWAP3 POP POP POP JUMP JUMPDEST PUSH4 0x4E487B71 PUSH1 0xE0 SHL PUSH1 0x0 MSTORE PUSH1 0x11 PUSH1 0x4 MSTORE PUSH1 0x24 PUSH1 0x0 REVERT JUMPDEST DUP2 DUP2 SUB DUP2 DUP2 GT ISZERO PUSH2 0x1BC5 JUMPI PUSH2 0x1BC5 PUSH2 0x2419 JUMP JUMPDEST PUSH1 0x1 DUP2 DUP2 JUMPDEST DUP1 DUP6 GT ISZERO PUSH2 0x247D JUMPI DUP2 PUSH1 0x0 NOT DIV DUP3 GT ISZERO PUSH2 0x2463 JUMPI PUSH2 0x2463 PUSH2 0x2419 JUMP JUMPDEST DUP1 DUP6 AND ISZERO PUSH2 0x2470 JUMPI SWAP2 DUP2 MUL SWAP2 JUMPDEST SWAP4 DUP5 SHR SWAP4 SWAP1 DUP1 MUL SWAP1 PUSH2 0x2447 JUMP JUMPDEST POP SWAP3 POP SWAP3 SWAP1 POP JUMP JUMPDEST PUSH1 0x0 DUP3 PUSH2 0x2494 JUMPI POP PUSH1 0x1 PUSH2 0x1BC5 JUMP JUMPDEST DUP2 PUSH2 0x24A1 JUMPI POP PUSH1 0x0 PUSH2 0x1BC5 JUMP JUMPDEST DUP2 PUSH1 0x1 DUP2 EQ PUSH2 0x24B7 JUMPI PUSH1 0x2 DUP2 EQ PUSH2 0x24C1 JUMPI PUSH2 0x24DD JUMP JUMPDEST PUSH1 0x1 SWAP2 POP POP PUSH2 0x1BC5 JUMP JUMPDEST PUSH1 0xFF DUP5 GT ISZERO PUSH2 0x24D2 JUMPI PUSH2 0x24D2 PUSH2 0x2419 JUMP JUMPDEST POP POP PUSH1 0x1 DUP3 SHL PUSH2 0x1BC5 JUMP JUMPDEST POP PUSH1 0x20 DUP4 LT PUSH2 0x133 DUP4 LT AND PUSH1 0x4E DUP5 LT PUSH1 0xB DUP5 LT AND OR ISZERO PUSH2 0x2500 JUMPI POP DUP2 DUP2 EXP PUSH2 0x1BC5 JUMP JUMPDEST PUSH2 0x250A DUP4 DUP4 PUSH2 0x2442 JUMP JUMPDEST DUP1 PUSH1 0x0 NOT DIV DUP3 GT ISZERO PUSH2 0x251E JUMPI PUSH2 0x251E PUSH2 0x2419 JUMP JUMPDEST MUL SWAP4 SWAP3 POP POP POP JUMP JUMPDEST PUSH1 0x0 PUSH2 0x1BC2 DUP4 DUP4 PUSH2 0x2485 JUMP JUMPDEST DUP1 DUP3 ADD DUP1 DUP3 GT ISZERO PUSH2 0x1BC5 JUMPI PUSH2 0x1BC5 PUSH2 0x2419 JUMP JUMPDEST PUSH1 0x0 PUSH1 0x20 DUP3 DUP5 SUB SLT ISZERO PUSH2 0x2557 JUMPI PUSH1 0x0 DUP1 REVERT JUMPDEST DUP2 MLOAD PUSH2 0x2412 DUP2 PUSH2 0x2398 JUMP JUMPDEST PUSH1 0x0 PUSH1 0x20 DUP3 DUP5 SUB SLT ISZERO PUSH2 0x2574 JUMPI PUSH1 0x0 DUP1 REVERT JUMPDEST DUP2 MLOAD DUP1 ISZERO ISZERO DUP2 EQ PUSH2 0x2412 JUMPI PUSH1 0x0 DUP1 REVERT JUMPDEST PUSH1 0x0 PUSH1 0x20 DUP3 DUP5 SUB SLT ISZERO PUSH2 0x2596 JUMPI PUSH1 0x0 DUP1 REVERT JUMPDEST POP MLOAD SWAP2 SWAP1 POP JUMP JUMPDEST PUSH1 0x0 DUP1 PUSH1 0x0 PUSH1 0x60 DUP5 DUP7 SUB SLT ISZERO PUSH2 0x25B2 JUMPI PUSH1 0x0 DUP1 REVERT JUMPDEST DUP4 MLOAD SWAP3 POP PUSH1 0x20 DUP5 ADD MLOAD SWAP2 POP PUSH1 0x40 DUP5 ADD MLOAD SWAP1 POP SWAP3 POP SWAP3 POP SWAP3 JUMP JUMPDEST PUSH1 0x0 DUP3 PUSH2 0x25E8 JUMPI PUSH4 0x4E487B71 PUSH1 0xE0 SHL PUSH1 0x0 MSTORE PUSH1 0x12 PUSH1 0x4 MSTORE PUSH1 0x24 PUSH1 0x0 REVERT JUMPDEST POP DIV SWAP1 JUMP JUMPDEST DUP1 DUP3 MUL DUP2 ISZERO DUP3 DUP3 DIV DUP5 EQ OR PUSH2 0x1BC5 JUMPI PUSH2 0x1BC5 PUSH2 0x2419 JUMP JUMPDEST PUSH1 0x0 JUMPDEST DUP4 DUP2 LT ISZERO PUSH2 0x261F JUMPI DUP2 DUP2 ADD MLOAD DUP4 DUP3 ADD MSTORE PUSH1 0x20 ADD PUSH2 0x2607 JUMP JUMPDEST POP POP PUSH1 0x0 SWAP2 ADD MSTORE JUMP JUMPDEST PUSH1 0x0 DUP3 MLOAD PUSH2 0x263A DUP2 DUP5 PUSH1 0x20 DUP8 ADD PUSH2 0x2604 JUMP JUMPDEST SWAP2 SWAP1 SWAP2 ADD SWAP3 SWAP2 POP POP JUMP JUMPDEST PUSH1 0x20 DUP2 MSTORE PUSH1 0x0 DUP3 MLOAD DUP1 PUSH1 0x20 DUP5 ADD MSTORE PUSH2 0x2663 DUP2 PUSH1 0x40 DUP6 ADD PUSH1 0x20 DUP8 ADD PUSH2 0x2604 JUMP JUMPDEST PUSH1 0x1F ADD PUSH1 0x1F NOT AND SWAP2 SWAP1 SWAP2 ADD PUSH1 0x40 ADD SWAP3 SWAP2 POP POP JUMP INVALID LOG2 PUSH5 0x6970667358 0x22 SLT KECCAK256 SWAP4 GASLIMIT SWAP6 0xCA NUMBER MULMOD SWAP3 CALLER DUP1 0xFB EXP 0x26 RETURN 0xF PUSH31 0xDC8C9024B2F6208CAA9C0320F0A7FE1F0664736F6C63430008110033000000 ","sha1":"42622133a3af9d12498afb80cfc155d1a4481b75","source":"// SPDX-License-Identifier: GPL-3.0-or-later\npragma solidity 0.8.17;\n\nimport \"@openzeppelin/contracts/token/ERC20/IERC20.sol\";\nimport \"@openzeppelin/contracts/token/ERC20/utils/SafeERC20.sol\";\nimport \"@openzeppelin/contracts/access/Ownable.sol\";\n\nimport \"../../interfaces/tokenomics/IBonding.sol\";\nimport \"../../interfaces/tokenomics/ICNCLockerV3.sol\";\nimport \"../../interfaces/pools/IRewardManager.sol\";\nimport \"../../interfaces/tokenomics/ILpTokenStaker.sol\";\nimport \"../../interfaces/IController.sol\";\nimport \"../../interfaces/IOracle.sol\";\nimport \"../../interfaces/pools/IConicPool.sol\";\n\nimport \"../../libraries/ScaledMath.sol\";\n\ncontract Bonding is IBonding, Ownable {\n    using ScaledMath for uint256;\n    using SafeERC20 for IERC20;\n\n    IERC20 public constant CVX = IERC20(0x4e3FBD56CD56c3e72c1403e103b45Db9da5B9D2B);\n    IERC20 public constant CRV = IERC20(0xD533a949740bb3306d119CC777fa900bA034cd52);\n    IERC20 public constant CNC = IERC20(0x9aE380F0272E2162340a5bB646c354271c0F5cFC);\n\n    // The price is set in terms of LP tokens, not USD\n    uint256 public constant MAX_CNC_START_PRICE = 20e18;\n    uint256 public constant MIN_CNC_START_PRICE = 1e18;\n    uint256 public constant MIN_PRICE_INCREASE_FACTOR = 1e18;\n    uint256 public constant MAX_MIN_BONDING_AMOUNT = 1_000e18;\n    uint256 public constant INITIAL_MIN_BONDING_AMOUNT = 1_000e18;\n\n    ICNCLockerV3 public immutable cncLocker;\n    IController public immutable controller;\n    IConicPool public immutable crvUsdPool;\n    IERC20 public immutable underlying;\n    address public immutable treasury;\n\n    address public debtPool;\n\n    uint256 public immutable totalNumberEpochs;\n    uint256 public immutable epochDuration;\n    uint256 public cncPerEpoch;\n    bool public bondingStarted;\n    uint256 public bondingEndTime;\n\n    uint256 public cncStartPrice;\n    uint256 public cncAvailableCache;\n    uint256 public cncDistributed;\n    uint256 public epochStartTime; // start time of the current epoch\n    uint256 public lastCncPrice;\n    uint256 public epochPriceIncreaseFactor;\n    uint256 public minBondingAmount;\n\n    mapping(uint256 => uint256) public assetsInEpoch;\n    uint256 public lastStreamUpdate; // last update for asset streaming\n    uint256 public lastStreamEpochStartTime;\n\n    mapping(address => uint256) public perAccountStreamIntegral;\n    mapping(address => uint256) public perAccountStreamAccrued;\n    uint256 public streamIntegral;\n\n    constructor(\n        address _cncLocker,\n        address _controller,\n        address _treasury,\n        address _crvUsdPool,\n        uint256 _epochDuration,\n        uint256 _totalNumberEpochs\n    ) {\n        require(_totalNumberEpochs > 0, \"total number of epochs must be positive\");\n        require(_epochDuration > 0, \"epoch duration must be positive\");\n\n        cncLocker = ICNCLockerV3(_cncLocker);\n        controller = IController(_controller);\n        treasury = _treasury;\n        crvUsdPool = IConicPool(_crvUsdPool);\n        underlying = crvUsdPool.underlying();\n        totalNumberEpochs = _totalNumberEpochs;\n        epochDuration = _epochDuration;\n        minBondingAmount = INITIAL_MIN_BONDING_AMOUNT;\n    }\n\n    function startBonding() external override onlyOwner {\n        require(!bondingStarted, \"bonding already started\");\n        require(epochPriceIncreaseFactor > 0, \"Epoch price increase factor has not been set\");\n        require(cncStartPrice > 0, \"CNC start price not set\");\n        uint256 cncBalance = CNC.balanceOf(address(this));\n        require(cncBalance > 0, \"no CNC balance to bond with\");\n\n        cncPerEpoch = cncBalance / totalNumberEpochs;\n\n        lastStreamEpochStartTime = block.timestamp;\n        lastStreamUpdate = block.timestamp;\n        epochStartTime = block.timestamp;\n        bondingEndTime = block.timestamp + epochDuration * totalNumberEpochs;\n\n        bondingStarted = true;\n        cncAvailableCache = cncPerEpoch;\n        emit BondingStarted(cncBalance, totalNumberEpochs);\n    }\n\n    function setCncStartPrice(uint256 _cncStartPrice) external override onlyOwner {\n        require(\n            _cncStartPrice >= MIN_CNC_START_PRICE && _cncStartPrice <= MAX_CNC_START_PRICE,\n            \"CNC start price not within permitted range\"\n        );\n        cncStartPrice = _cncStartPrice;\n        lastCncPrice = _cncStartPrice;\n        emit CncStartPriceSet(_cncStartPrice);\n    }\n\n    function setCncPriceIncreaseFactor(uint256 _priceIncreaseFactor) external override onlyOwner {\n        require(_priceIncreaseFactor >= MIN_PRICE_INCREASE_FACTOR, \"Increase factor too low.\");\n        epochPriceIncreaseFactor = _priceIncreaseFactor;\n        emit PriceIncreaseFactorSet(_priceIncreaseFactor);\n    }\n\n    function setMinBondingAmount(uint256 _minBondingAmount) external override onlyOwner {\n        require(_minBondingAmount <= MAX_MIN_BONDING_AMOUNT, \"Min. bonding amount is too high\");\n        minBondingAmount = _minBondingAmount;\n        emit MinBondingAmountSet(_minBondingAmount);\n    }\n\n    function setDebtPool(address _debtPool) external override onlyOwner {\n        debtPool = _debtPool;\n        emit DebtPoolSet(_debtPool);\n    }\n\n    function bondCncCrvUsd(\n        uint256 lpTokenAmount,\n        uint256 minCncReceived,\n        uint64 cncLockTime\n    ) external override returns (uint256) {\n        return bondCncCrvUsdFor(lpTokenAmount, minCncReceived, cncLockTime, msg.sender);\n    }\n\n    function bondCncCrvUsdFor(\n        uint256 lpTokenAmount,\n        uint256 minCncReceived,\n        uint64 cncLockTime,\n        address recipient\n    ) public override returns (uint256) {\n        if (!bondingStarted) return 0;\n        require(block.timestamp <= bondingEndTime, \"Bonding has ended\");\n        require(lpTokenAmount >= minBondingAmount, \"Min. bonding amount not reached\");\n        _updateAvailableCncAndStartPrice();\n        uint256 currentCncBondPrice = computeCurrentCncBondPrice();\n        uint256 cncToReceive = lpTokenAmount.divDown(currentCncBondPrice);\n\n        require(\n            cncToReceive + cncDistributed <= cncAvailableCache,\n            \"Not enough CNC currently available\"\n        );\n        require(cncToReceive >= minCncReceived, \"Insufficient CNC received\");\n\n        // Checkpoint to set user integrals etc.\n        _accountCheckpoint(recipient);\n\n        IERC20 lpToken = IERC20(crvUsdPool.lpToken());\n        lpToken.safeTransferFrom(msg.sender, address(this), lpTokenAmount);\n        ILpTokenStaker lpTokenStaker = controller.lpTokenStaker();\n        lpToken.approve(address(lpTokenStaker), lpTokenAmount);\n        lpTokenStaker.stake(lpTokenAmount, address(crvUsdPool));\n\n        // Schedule assets for streaming in the next epoch\n        assetsInEpoch[epochStartTime + epochDuration] += lpTokenAmount;\n        cncDistributed += cncToReceive;\n        CNC.approve(address(cncLocker), cncToReceive);\n        cncLocker.lockFor(cncToReceive, cncLockTime, false, recipient);\n\n        lastCncPrice = currentCncBondPrice < MIN_CNC_START_PRICE\n            ? MIN_CNC_START_PRICE\n            : currentCncBondPrice;\n\n        emit Bonded(msg.sender, recipient, lpTokenAmount, cncToReceive, cncLockTime);\n        return cncToReceive;\n    }\n\n    function claimStream() external override {\n        if (!bondingStarted) return;\n        _accountCheckpoint(msg.sender);\n        IERC20 lpToken = IERC20(crvUsdPool.lpToken());\n        uint256 amount = perAccountStreamAccrued[msg.sender];\n        require(amount > 0, \"no balance\");\n        ILpTokenStaker lpTokenStaker = controller.lpTokenStaker();\n        lpTokenStaker.unstake(amount, address(crvUsdPool));\n        lpToken.safeTransfer(msg.sender, amount);\n        perAccountStreamAccrued[msg.sender] = 0;\n        emit StreamClaimed(msg.sender, amount);\n    }\n\n    function claimFeesForDebtPool() external override {\n        require(address(debtPool) != address(0), \"No debt pool set\");\n        uint256 cncBefore = CNC.balanceOf(address(this));\n        crvUsdPool.rewardManager().claimEarnings();\n        uint256 cncAmount = CNC.balanceOf(address(this)) - cncBefore;\n        uint256 crvAmount = CRV.balanceOf(address(this));\n        uint256 cvxAmount = CVX.balanceOf(address(this));\n        CRV.safeTransfer(address(debtPool), crvAmount);\n        CVX.safeTransfer(address(debtPool), cvxAmount);\n        CNC.safeTransfer(address(debtPool), cncAmount);\n        emit DebtPoolFeesClaimed(crvAmount, cvxAmount, cncAmount);\n    }\n\n    function recoverRemainingCNC() external override onlyOwner {\n        require(block.timestamp > bondingEndTime, \"Bonding has not yet ended\");\n        uint256 amount = CNC.balanceOf(address(this));\n        CNC.safeTransfer(treasury, amount);\n        emit RemainingCNCRecovered(amount);\n    }\n\n    function streamCheckpoint() public override {\n        if (!bondingStarted) return;\n        _streamCheckpoint();\n    }\n\n    function accountCheckpoint(address account) public override {\n        if (!bondingStarted) return;\n        _accountCheckpoint(account);\n    }\n\n    function computeCurrentCncBondPrice() public view override returns (uint256) {\n        uint256 discountFactor = ScaledMath.ONE -\n            (block.timestamp - epochStartTime).divDown(epochDuration);\n        return cncStartPrice.mulDown(discountFactor);\n    }\n\n    function cncBondPrice() external view override returns (uint256) {\n        uint256 cncStartPrice_ = cncStartPrice;\n        uint256 epochStartTime_ = epochStartTime;\n\n        bool priceUpdated;\n        while (block.timestamp >= epochStartTime_ + epochDuration) {\n            epochStartTime_ += epochDuration;\n            if (!priceUpdated) {\n                cncStartPrice_ = epochPriceIncreaseFactor.mulDown(lastCncPrice);\n                priceUpdated = true;\n            }\n        }\n\n        uint256 discountFactor = ScaledMath.ONE -\n            (block.timestamp - epochStartTime_).divDown(epochDuration);\n        return cncStartPrice_.mulDown(discountFactor);\n    }\n\n    function cncAvailable() external view override returns (uint256) {\n        uint256 cncAvailable_ = cncAvailableCache;\n        uint256 epochStartTime_ = epochStartTime;\n        while (block.timestamp >= epochStartTime_ + epochDuration) {\n            cncAvailable_ += cncPerEpoch;\n            epochStartTime_ += epochDuration;\n        }\n        return cncAvailable_;\n    }\n\n    function _accountCheckpoint(address account) internal {\n        _streamCheckpoint();\n        uint256 accountBoostedBalance = cncLocker.totalStreamBoost(account);\n        perAccountStreamAccrued[account] += accountBoostedBalance.mulDown(\n            streamIntegral - perAccountStreamIntegral[account]\n        );\n        perAccountStreamIntegral[account] = streamIntegral;\n    }\n\n    function _streamCheckpoint() internal {\n        uint256 streamed = _updateStreamed();\n        uint256 totalBoosted = cncLocker.totalBoosted();\n        if (totalBoosted > 0) {\n            streamIntegral += streamed.divDown(totalBoosted);\n        }\n    }\n\n    function _updateStreamed() internal returns (uint256) {\n        uint256 streamed;\n        uint256 streamedInEpoch;\n        while (\n            (block.timestamp >= lastStreamEpochStartTime + epochDuration) &&\n            (lastStreamEpochStartTime < bondingEndTime + epochDuration)\n        ) {\n            streamedInEpoch = (lastStreamEpochStartTime + epochDuration - lastStreamUpdate)\n                .divDown(epochDuration)\n                .mulDown(assetsInEpoch[lastStreamEpochStartTime]);\n            lastStreamEpochStartTime += epochDuration;\n            lastStreamUpdate = lastStreamEpochStartTime;\n            streamed += streamedInEpoch;\n        }\n        streamed += (block.timestamp - lastStreamUpdate).divDown(epochDuration).mulDown(\n            assetsInEpoch[lastStreamEpochStartTime]\n        );\n        lastStreamUpdate = block.timestamp;\n        return streamed;\n    }\n\n    function _updateAvailableCncAndStartPrice() internal {\n        bool priceUpdated;\n        while (block.timestamp >= epochStartTime + epochDuration) {\n            cncAvailableCache += cncPerEpoch;\n            epochStartTime += epochDuration;\n            if (!priceUpdated) {\n                cncStartPrice = epochPriceIncreaseFactor.mulDown(lastCncPrice);\n                priceUpdated = true;\n            }\n        }\n    }\n}\n","sourcePath":"contracts/tokenomics/Bonding.sol","type":"contract","deployment":{"address":"0xC3D0D54aFf5209118aED32253cC8EC5f417d6B9C","chainid":"1","blockHeight":19112617}}