{"abi":[{"inputs":[{"internalType":"address","name":"_rewardToken","type":"address"},{"internalType":"address","name":"_treasury","type":"address"}],"stateMutability":"nonpayable","type":"constructor","name":"constructor"},{"anonymous":false,"inputs":[{"indexed":false,"internalType":"address","name":"_ammToken","type":"address"}],"name":"AmmTokenSet","type":"event"},{"anonymous":false,"inputs":[{"indexed":true,"internalType":"address","name":"account","type":"address"},{"indexed":false,"internalType":"uint256","name":"amount","type":"uint256"}],"name":"AmmTokenStaked","type":"event"},{"anonymous":false,"inputs":[{"indexed":true,"internalType":"address","name":"account","type":"address"},{"indexed":false,"internalType":"uint256","name":"amount","type":"uint256"}],"name":"AmmTokenUnstaked","type":"event"},{"anonymous":false,"inputs":[{"indexed":true,"internalType":"address","name":"previousOwner","type":"address"},{"indexed":true,"internalType":"address","name":"newOwner","type":"address"}],"name":"OwnershipTransferred","type":"event"},{"anonymous":false,"inputs":[{"indexed":true,"internalType":"address","name":"account","type":"address"},{"indexed":false,"internalType":"uint256","name":"amount","type":"uint256"}],"name":"TokensClaimed","type":"event"},{"inputs":[{"internalType":"address","name":"","type":"address"}],"name":"accountAccruals","outputs":[{"internalType":"uint256","name":"","type":"uint256"}],"stateMutability":"view","type":"function"},{"inputs":[{"internalType":"address","name":"","type":"address"}],"name":"accountShares","outputs":[{"internalType":"uint256","name":"","type":"uint256"}],"stateMutability":"view","type":"function"},{"inputs":[],"name":"ammToken","outputs":[{"internalType":"address","name":"","type":"address"}],"stateMutability":"view","type":"function"},{"inputs":[{"internalType":"address","name":"","type":"address"}],"name":"balances","outputs":[{"internalType":"uint256","name":"","type":"uint256"}],"stateMutability":"view","type":"function"},{"inputs":[],"name":"claimRewards","outputs":[{"internalType":"uint256","name":"","type":"uint256"}],"stateMutability":"nonpayable","type":"function"},{"inputs":[{"internalType":"address","name":"user","type":"address"}],"name":"claimableRewards","outputs":[{"internalType":"uint256","name":"","type":"uint256"}],"stateMutability":"view","type":"function"},{"inputs":[],"name":"currentInflationRate","outputs":[{"internalType":"uint256","name":"","type":"uint256"}],"stateMutability":"view","type":"function"},{"inputs":[],"name":"executeInflationRateUpdate","outputs":[],"stateMutability":"nonpayable","type":"function"},{"inputs":[],"name":"globalCheckpoint","outputs":[{"internalType":"bool","name":"","type":"bool"}],"stateMutability":"nonpayable","type":"function"},{"inputs":[],"name":"lastInflationRateDecay","outputs":[{"internalType":"uint256","name":"","type":"uint256"}],"stateMutability":"view","type":"function"},{"inputs":[],"name":"lastUpdate","outputs":[{"internalType":"uint256","name":"","type":"uint256"}],"stateMutability":"view","type":"function"},{"inputs":[],"name":"owner","outputs":[{"internalType":"address","name":"","type":"address"}],"stateMutability":"view","type":"function"},{"inputs":[],"name":"renounceOwnership","outputs":[],"stateMutability":"nonpayable","type":"function"},{"inputs":[],"name":"rewardToken","outputs":[{"internalType":"address","name":"","type":"address"}],"stateMutability":"view","type":"function"},{"inputs":[{"internalType":"address","name":"_ammToken","type":"address"}],"name":"setAmmToken","outputs":[],"stateMutability":"nonpayable","type":"function"},{"inputs":[],"name":"shutdown","outputs":[],"stateMutability":"nonpayable","type":"function"},{"inputs":[{"internalType":"address","name":"account","type":"address"},{"internalType":"uint256","name":"amount","type":"uint256"}],"name":"stakeFor","outputs":[],"stateMutability":"nonpayable","type":"function"},{"inputs":[],"name":"stakedIntegral","outputs":[{"internalType":"uint256","name":"","type":"uint256"}],"stateMutability":"view","type":"function"},{"inputs":[],"name":"terminated","outputs":[{"internalType":"bool","name":"","type":"bool"}],"stateMutability":"view","type":"function"},{"inputs":[],"name":"totalClaimable","outputs":[{"internalType":"uint256","name":"","type":"uint256"}],"stateMutability":"view","type":"function"},{"inputs":[],"name":"totalStaked","outputs":[{"internalType":"uint256","name":"","type":"uint256"}],"stateMutability":"view","type":"function"},{"inputs":[{"internalType":"address","name":"newOwner","type":"address"}],"name":"transferOwnership","outputs":[],"stateMutability":"nonpayable","type":"function"},{"inputs":[],"name":"treasury","outputs":[{"internalType":"address","name":"","type":"address"}],"stateMutability":"view","type":"function"},{"inputs":[{"internalType":"address","name":"dst","type":"address"},{"internalType":"uint256","name":"amount","type":"uint256"}],"name":"unstakeFor","outputs":[],"stateMutability":"nonpayable","type":"function"}],"bytecode":"60c06040523480156200001157600080fd5b50604051620015ac380380620015ac8339810160408190526200003491620000ed565b6200003f3362000080565b6001600160a01b03808316608052811660a0526200006c6301e13380697f0e10af47c1c700000062000125565b600155505042600a81905560025562000148565b600080546001600160a01b038381166001600160a01b0319831681178455604051919092169283917f8be0079c531659141344cd1fd0a4f28419497f9722a3daafe3b4186f6b6457e09190a35050565b80516001600160a01b0381168114620000e857600080fd5b919050565b600080604083850312156200010157600080fd5b6200010c83620000d0565b91506200011c60208401620000d0565b90509250929050565b6000826200014357634e487b7160e01b600052601260045260246000fd5b500490565b60805160a05161142962000183600039600081816102220152610c1e015260008181610313015281816108630152610bf801526114296000f3fe608060405234801561001057600080fd5b50600436106101585760003560e01c80638da5cb5b116100c3578063d8b511131161007c578063d8b51113146102cc578063dc01f60d146102d5578063ee0492fc146102e8578063f2fde38b146102fb578063f7c618c11461030e578063fc0e74d11461033557600080fd5b80638da5cb5b1461026d578063992d4aef1461027e578063a563c3d51461029e578063ac793139146102a7578063c0463711146102ba578063d30113b7146102c357600080fd5b80634838ed19116101155780634838ed19146101ec5780634a17ed59146101f557806352c8b2f9146101fd57806361d027b31461021d578063715018a61461025c578063817b1cd21461026457600080fd5b8063194307bf1461015d5780631ac40e661461018657806327e235e31461018e5780632ee40908146101bc57806336ef088c146101d1578063372500ab146101e4575b600080fd5b60095461017190600160a01b900460ff1681565b60405190151581526020015b60405180910390f35b61017161033d565b6101ae61019c36600461114d565b60066020526000908152604090205481565b60405190815260200161017d565b6101cf6101ca366004611168565b6103af565b005b6101cf6101df366004611168565b6105e3565b6101ae610804565b6101ae60035481565b6101cf6108cc565b6101ae61020b36600461114d565b60086020526000908152604090205481565b6102447f000000000000000000000000000000000000000000000000000000000000000081565b6040516001600160a01b03909116815260200161017d565b6101cf6108df565b6101ae60055481565b6000546001600160a01b0316610244565b6101ae61028c36600461114d565b60076020526000908152604090205481565b6101ae60015481565b600954610244906001600160a01b031681565b6101ae600a5481565b6101ae60025481565b6101ae60045481565b6101ae6102e336600461114d565b610913565b6101cf6102f636600461114d565b6109d9565b6101cf61030936600461114d565b610ab0565b6102447f000000000000000000000000000000000000000000000000000000000000000081565b6101cf610b4b565b600954600090600160a01b900460ff16156103585750600090565b6000600a544261036891906111a8565b600554909150156103a45761038d6005548260015461038791906111bf565b90610caf565b6004600082825461039e91906111de565b90915550505b505042600a55600190565b600081116103f55760405162461bcd60e51b815260206004820152600e60248201526d043616e6e6f74207374616b6520360941b60448201526064015b60405180910390fd5b600954600160a01b900460ff16156104465760405162461bcd60e51b815260206004820152601460248201527314dd185ad95c881a5cc81d195c9b5a5b985d195960621b60448201526064016103ec565b61044f82610cdb565b6009546040516370a0823160e01b81523060048201526000916001600160a01b0316906370a0823190602401602060405180830381865afa158015610498573d6000803e3d6000fd5b505050506040513d601f19601f820116820180604052508101906104bc91906111f6565b6009549091506104d7906001600160a01b0316333085610d9a565b6009546040516370a0823160e01b81523060048201526000916001600160a01b0316906370a0823190602401602060405180830381865afa158015610520573d6000803e3d6000fd5b505050506040513d601f19601f8201168201806040525081019061054491906111f6565b9050600061055283836111a8565b6001600160a01b03861660009081526006602052604081208054929350839290919061057f9084906111de565b92505081905550806005600082825461059891906111de565b90915550506040518481526001600160a01b038616907fd72a07c2b69603590e6e3af93b18bc5cb1e3e52e6052d0538fa3fb94200930e6906020015b60405180910390a25050505050565b600081116106265760405162461bcd60e51b815260206004820152601060248201526f043616e6e6f7420756e7374616b6520360841b60448201526064016103ec565b336000908152600660205260409020548111156106855760405162461bcd60e51b815260206004820152601b60248201527f4e6f7420656e6f7567682066756e647320746f20756e7374616b65000000000060448201526064016103ec565b61068e33610cdb565b6009546040516370a0823160e01b81523060048201526000916001600160a01b0316906370a0823190602401602060405180830381865afa1580156106d7573d6000803e3d6000fd5b505050506040513d601f19601f820116820180604052508101906106fb91906111f6565b600954909150610715906001600160a01b03168484610e0b565b6009546040516370a0823160e01b81523060048201526000916001600160a01b0316906370a0823190602401602060405180830381865afa15801561075e573d6000803e3d6000fd5b505050506040513d601f19601f8201168201806040525081019061078291906111f6565b9050600061079082846111a8565b336000908152600660205260408120805492935083929091906107b49084906111a8565b9250508190555080600560008282546107cd91906111a8565b909155505060405184815233907fdb72f4f1c40867050ece06466e0c51ae6857dd54fe6ad4ad9ef47420cd3c9dce906020016105d4565b600061080f33610cdb565b336000908152600860205260409020548061082c57600091505090565b336000908152600860205260408120819055600380548392906108509084906111a8565b9091555061088a90506001600160a01b037f0000000000000000000000000000000000000000000000000000000000000000163383610e0b565b610892610e40565b60405181815233907f896e034966eaaf1adc54acc0f257056febbd300c9e47182cf761982cf1f5e4309060200160405180910390a2919050565b6108d461033d565b506108dd610e40565b565b6000546001600160a01b031633146109095760405162461bcd60e51b81526004016103ec9061120f565b6108dd6000610e76565b60045460095460009190600160a01b900460ff1615801561093657506000600554115b156109695761094f600554600a544261038791906111a8565b60015461095c91906111bf565b61096690826111de565b90505b6001600160a01b0383166000908152600760205260409020546109af9061099090836111a8565b6001600160a01b03851660009081526006602052604090205490610ec6565b6001600160a01b0384166000908152600860205260409020546109d291906111de565b9392505050565b6000546001600160a01b03163314610a035760405162461bcd60e51b81526004016103ec9061120f565b6009546001600160a01b031615610a5c5760405162461bcd60e51b815260206004820152601d60248201527f416d6d20746f6b656e20616c726561647920696e697469616c697a656400000060448201526064016103ec565b600980546001600160a01b0319166001600160a01b0383169081179091556040519081527ff257414bcda7532ba4574f26ac65885b9e0db7d0b1a29149d422ed03411794ac9060200160405180910390a150565b6000546001600160a01b03163314610ada5760405162461bcd60e51b81526004016103ec9061120f565b6001600160a01b038116610b3f5760405162461bcd60e51b815260206004820152602660248201527f4f776e61626c653a206e6577206f776e657220697320746865207a65726f206160448201526564647265737360d01b60648201526084016103ec565b610b4881610e76565b50565b6000546001600160a01b03163314610b755760405162461bcd60e51b81526004016103ec9061120f565b600954600160a01b900460ff1615610bc45760405162461bcd60e51b8152602060048201526012602482015271105b1c9958591e481d195c9b5a5b985d195960721b60448201526064016103ec565b610bcc61033d565b506009805460ff60a01b1916600160a01b1790556003546040516370a0823160e01b81523060048201527f000000000000000000000000000000000000000000000000000000000000000091610b48917f000000000000000000000000000000000000000000000000000000000000000091906001600160a01b038516906370a0823190602401602060405180830381865afa158015610c70573d6000803e3d6000fd5b505050506040513d601f19601f82011682018060405250810190610c9491906111f6565b610c9e91906111a8565b6001600160a01b0384169190610e0b565b600081610cbe6012600a611328565b610cc890856111bf565b610cd29190611334565b90505b92915050565b610ce361033d565b506001600160a01b038116600090815260076020526040812054600454610d2c91610d0d916111a8565b6001600160a01b03841660009081526006602052604090205490610ec6565b6001600160a01b038316600090815260086020526040812080549293508392909190610d599084906111de565b925050819055508060036000828254610d7291906111de565b90915550506004546001600160a01b0390921660009081526007602052604090209190915550565b6040516001600160a01b0380851660248301528316604482015260648101829052610e059085906323b872dd60e01b906084015b60408051601f198184030181529190526020810180516001600160e01b03166001600160e01b031990931692909217909152610ede565b50505050565b6040516001600160a01b038316602482015260448101829052610e3b90849063a9059cbb60e01b90606401610dce565b505050565b6301e13380600254610e5291906111de565b42106108dd57600154610e6d9067058d15ca2db11800610ec6565b60015542600255565b600080546001600160a01b038381166001600160a01b0319831681178455604051919092169283917f8be0079c531659141344cd1fd0a4f28419497f9722a3daafe3b4186f6b6457e09190a35050565b6000610ed46012600a611328565b610cc883856111bf565b6000610f33826040518060400160405280602081526020017f5361666545524332303a206c6f772d6c6576656c2063616c6c206661696c6564815250856001600160a01b0316610fb09092919063ffffffff16565b805190915015610e3b5780806020019051810190610f519190611356565b610e3b5760405162461bcd60e51b815260206004820152602a60248201527f5361666545524332303a204552433230206f7065726174696f6e20646964206e6044820152691bdd081cdd58d8d9595960b21b60648201526084016103ec565b6060610fbf8484600085610fc7565b949350505050565b6060824710156110285760405162461bcd60e51b815260206004820152602660248201527f416464726573733a20696e73756666696369656e742062616c616e636520666f6044820152651c8818d85b1b60d21b60648201526084016103ec565b6001600160a01b0385163b61107f5760405162461bcd60e51b815260206004820152601d60248201527f416464726573733a2063616c6c20746f206e6f6e2d636f6e747261637400000060448201526064016103ec565b600080866001600160a01b0316858760405161109b91906113a4565b60006040518083038185875af1925050503d80600081146110d8576040519150601f19603f3d011682016040523d82523d6000602084013e6110dd565b606091505b50915091506110ed8282866110f8565b979650505050505050565b606083156111075750816109d2565b8251156111175782518084602001fd5b8160405162461bcd60e51b81526004016103ec91906113c0565b80356001600160a01b038116811461114857600080fd5b919050565b60006020828403121561115f57600080fd5b610cd282611131565b6000806040838503121561117b57600080fd5b61118483611131565b946020939093013593505050565b634e487b7160e01b600052601160045260246000fd5b6000828210156111ba576111ba611192565b500390565b60008160001904831182151516156111d9576111d9611192565b500290565b600082198211156111f1576111f1611192565b500190565b60006020828403121561120857600080fd5b5051919050565b6020808252818101527f4f776e61626c653a2063616c6c6572206973206e6f7420746865206f776e6572604082015260600190565b600181815b8085111561127f57816000190482111561126557611265611192565b8085161561127257918102915b93841c9390800290611249565b509250929050565b60008261129657506001610cd5565b816112a357506000610cd5565b81600181146112b957600281146112c3576112df565b6001915050610cd5565b60ff8411156112d4576112d4611192565b50506001821b610cd5565b5060208310610133831016604e8410600b8410161715611302575081810a610cd5565b61130c8383611244565b806000190482111561132057611320611192565b029392505050565b6000610cd28383611287565b60008261135157634e487b7160e01b600052601260045260246000fd5b500490565b60006020828403121561136857600080fd5b815180151581146109d257600080fd5b60005b8381101561139357818101518382015260200161137b565b83811115610e055750506000910152565b600082516113b6818460208701611378565b9190910192915050565b60208152600082518060208401526113df816040850160208701611378565b601f01601f1916919091016040019291505056fea26469706673582212209a10e90cea51e7defe0ce81babb4b972b9ed6f31a49e1f6f965e982e3d39219364736f6c634300080d0033","bytecodeSha1":"511839e30a205cf6c0051fd22f9e247a0cd17aa3","compiler":{"evm_version":"istanbul","optimizer":{"enabled":true,"runs":200},"version":"0.8.13+commit.abaa5c0e"},"contractName":"AmmStaker","language":"Solidity","natspec":{"kind":"dev","methods":{"owner()":{"details":"Returns the address of the current owner."},"renounceOwnership()":{"details":"Leaves the contract without owner. It will not be possible to call `onlyOwner` functions anymore. Can only be called by the current owner. NOTE: Renouncing ownership will leave the contract without an owner, thereby removing any functionality that is only available to the owner."},"transferOwnership(address)":{"details":"Transfers ownership of the contract to a new account (`newOwner`). Can only be called by the current owner."}},"version":1},"opcodes":"PUSH1 0x80 PUSH1 0x40 MSTORE CALLVALUE DUP1 ISZERO PUSH2 0x10 JUMPI PUSH1 0x0 DUP1 REVERT JUMPDEST POP PUSH1 0x4 CALLDATASIZE LT PUSH2 0x158 JUMPI PUSH1 0x0 CALLDATALOAD PUSH1 0xE0 SHR DUP1 PUSH4 0x8DA5CB5B GT PUSH2 0xC3 JUMPI DUP1 PUSH4 0xD8B51113 GT PUSH2 0x7C JUMPI DUP1 PUSH4 0xD8B51113 EQ PUSH2 0x2CC JUMPI DUP1 PUSH4 0xDC01F60D EQ PUSH2 0x2D5 JUMPI DUP1 PUSH4 0xEE0492FC EQ PUSH2 0x2E8 JUMPI DUP1 PUSH4 0xF2FDE38B EQ PUSH2 0x2FB JUMPI DUP1 PUSH4 0xF7C618C1 EQ PUSH2 0x30E JUMPI DUP1 PUSH4 0xFC0E74D1 EQ PUSH2 0x335 JUMPI PUSH1 0x0 DUP1 REVERT JUMPDEST DUP1 PUSH4 0x8DA5CB5B EQ PUSH2 0x26D JUMPI DUP1 PUSH4 0x992D4AEF EQ PUSH2 0x27E JUMPI DUP1 PUSH4 0xA563C3D5 EQ PUSH2 0x29E JUMPI DUP1 PUSH4 0xAC793139 EQ PUSH2 0x2A7 JUMPI DUP1 PUSH4 0xC0463711 EQ PUSH2 0x2BA JUMPI DUP1 PUSH4 0xD30113B7 EQ PUSH2 0x2C3 JUMPI PUSH1 0x0 DUP1 REVERT JUMPDEST DUP1 PUSH4 0x4838ED19 GT PUSH2 0x115 JUMPI DUP1 PUSH4 0x4838ED19 EQ PUSH2 0x1EC JUMPI DUP1 PUSH4 0x4A17ED59 EQ PUSH2 0x1F5 JUMPI DUP1 PUSH4 0x52C8B2F9 EQ PUSH2 0x1FD JUMPI DUP1 PUSH4 0x61D027B3 EQ PUSH2 0x21D JUMPI DUP1 PUSH4 0x715018A6 EQ PUSH2 0x25C JUMPI DUP1 PUSH4 0x817B1CD2 EQ PUSH2 0x264 JUMPI PUSH1 0x0 DUP1 REVERT JUMPDEST DUP1 PUSH4 0x194307BF EQ PUSH2 0x15D JUMPI DUP1 PUSH4 0x1AC40E66 EQ PUSH2 0x186 JUMPI DUP1 PUSH4 0x27E235E3 EQ PUSH2 0x18E JUMPI DUP1 PUSH4 0x2EE40908 EQ PUSH2 0x1BC JUMPI DUP1 PUSH4 0x36EF088C EQ PUSH2 0x1D1 JUMPI DUP1 PUSH4 0x372500AB EQ PUSH2 0x1E4 JUMPI JUMPDEST PUSH1 0x0 DUP1 REVERT JUMPDEST PUSH1 0x9 SLOAD PUSH2 0x171 SWAP1 PUSH1 0x1 PUSH1 0xA0 SHL SWAP1 DIV PUSH1 0xFF AND DUP2 JUMP JUMPDEST PUSH1 0x40 MLOAD SWAP1 ISZERO ISZERO DUP2 MSTORE PUSH1 0x20 ADD JUMPDEST PUSH1 0x40 MLOAD DUP1 SWAP2 SUB SWAP1 RETURN JUMPDEST PUSH2 0x171 PUSH2 0x33D JUMP JUMPDEST PUSH2 0x1AE PUSH2 0x19C CALLDATASIZE PUSH1 0x4 PUSH2 0x114D JUMP JUMPDEST PUSH1 0x6 PUSH1 0x20 MSTORE PUSH1 0x0 SWAP1 DUP2 MSTORE PUSH1 0x40 SWAP1 KECCAK256 SLOAD DUP2 JUMP JUMPDEST PUSH1 0x40 MLOAD SWAP1 DUP2 MSTORE PUSH1 0x20 ADD PUSH2 0x17D JUMP JUMPDEST PUSH2 0x1CF PUSH2 0x1CA CALLDATASIZE PUSH1 0x4 PUSH2 0x1168 JUMP JUMPDEST PUSH2 0x3AF JUMP JUMPDEST STOP JUMPDEST PUSH2 0x1CF PUSH2 0x1DF CALLDATASIZE PUSH1 0x4 PUSH2 0x1168 JUMP JUMPDEST PUSH2 0x5E3 JUMP JUMPDEST PUSH2 0x1AE PUSH2 0x804 JUMP JUMPDEST PUSH2 0x1AE PUSH1 0x3 SLOAD DUP2 JUMP JUMPDEST PUSH2 0x1CF PUSH2 0x8CC JUMP JUMPDEST PUSH2 0x1AE PUSH2 0x20B CALLDATASIZE PUSH1 0x4 PUSH2 0x114D JUMP JUMPDEST PUSH1 0x8 PUSH1 0x20 MSTORE PUSH1 0x0 SWAP1 DUP2 MSTORE PUSH1 0x40 SWAP1 KECCAK256 SLOAD DUP2 JUMP JUMPDEST PUSH2 0x244 PUSH32 0x0 DUP2 JUMP JUMPDEST PUSH1 0x40 MLOAD PUSH1 0x1 PUSH1 0x1 PUSH1 0xA0 SHL SUB SWAP1 SWAP2 AND DUP2 MSTORE PUSH1 0x20 ADD PUSH2 0x17D JUMP JUMPDEST PUSH2 0x1CF PUSH2 0x8DF JUMP JUMPDEST PUSH2 0x1AE PUSH1 0x5 SLOAD DUP2 JUMP JUMPDEST PUSH1 0x0 SLOAD PUSH1 0x1 PUSH1 0x1 PUSH1 0xA0 SHL SUB AND PUSH2 0x244 JUMP JUMPDEST PUSH2 0x1AE PUSH2 0x28C CALLDATASIZE PUSH1 0x4 PUSH2 0x114D JUMP JUMPDEST PUSH1 0x7 PUSH1 0x20 MSTORE PUSH1 0x0 SWAP1 DUP2 MSTORE PUSH1 0x40 SWAP1 KECCAK256 SLOAD DUP2 JUMP JUMPDEST PUSH2 0x1AE PUSH1 0x1 SLOAD DUP2 JUMP JUMPDEST PUSH1 0x9 SLOAD PUSH2 0x244 SWAP1 PUSH1 0x1 PUSH1 0x1 PUSH1 0xA0 SHL SUB AND DUP2 JUMP JUMPDEST PUSH2 0x1AE PUSH1 0xA SLOAD DUP2 JUMP JUMPDEST PUSH2 0x1AE PUSH1 0x2 SLOAD DUP2 JUMP JUMPDEST PUSH2 0x1AE PUSH1 0x4 SLOAD DUP2 JUMP JUMPDEST PUSH2 0x1AE PUSH2 0x2E3 CALLDATASIZE PUSH1 0x4 PUSH2 0x114D JUMP JUMPDEST PUSH2 0x913 JUMP JUMPDEST PUSH2 0x1CF PUSH2 0x2F6 CALLDATASIZE PUSH1 0x4 PUSH2 0x114D JUMP JUMPDEST PUSH2 0x9D9 JUMP JUMPDEST PUSH2 0x1CF PUSH2 0x309 CALLDATASIZE PUSH1 0x4 PUSH2 0x114D JUMP JUMPDEST PUSH2 0xAB0 JUMP JUMPDEST PUSH2 0x244 PUSH32 0x0 DUP2 JUMP JUMPDEST PUSH2 0x1CF PUSH2 0xB4B JUMP JUMPDEST PUSH1 0x9 SLOAD PUSH1 0x0 SWAP1 PUSH1 0x1 PUSH1 0xA0 SHL SWAP1 DIV PUSH1 0xFF AND ISZERO PUSH2 0x358 JUMPI POP PUSH1 0x0 SWAP1 JUMP JUMPDEST PUSH1 0x0 PUSH1 0xA SLOAD TIMESTAMP PUSH2 0x368 SWAP2 SWAP1 PUSH2 0x11A8 JUMP JUMPDEST PUSH1 0x5 SLOAD SWAP1 SWAP2 POP ISZERO PUSH2 0x3A4 JUMPI PUSH2 0x38D PUSH1 0x5 SLOAD DUP3 PUSH1 0x1 SLOAD PUSH2 0x387 SWAP2 SWAP1 PUSH2 0x11BF JUMP JUMPDEST SWAP1 PUSH2 0xCAF JUMP JUMPDEST PUSH1 0x4 PUSH1 0x0 DUP3 DUP3 SLOAD PUSH2 0x39E SWAP2 SWAP1 PUSH2 0x11DE JUMP JUMPDEST SWAP1 SWAP2 SSTORE POP POP JUMPDEST POP POP TIMESTAMP PUSH1 0xA SSTORE PUSH1 0x1 SWAP1 JUMP JUMPDEST PUSH1 0x0 DUP2 GT PUSH2 0x3F5 JUMPI PUSH1 0x40 MLOAD PUSH3 0x461BCD PUSH1 0xE5 SHL DUP2 MSTORE PUSH1 0x20 PUSH1 0x4 DUP3 ADD MSTORE PUSH1 0xE PUSH1 0x24 DUP3 ADD MSTORE PUSH14 0x43616E6E6F74207374616B65203 PUSH1 0x94 SHL PUSH1 0x44 DUP3 ADD MSTORE PUSH1 0x64 ADD JUMPDEST PUSH1 0x40 MLOAD DUP1 SWAP2 SUB SWAP1 REVERT JUMPDEST PUSH1 0x9 SLOAD PUSH1 0x1 PUSH1 0xA0 SHL SWAP1 DIV PUSH1 0xFF AND ISZERO PUSH2 0x446 JUMPI PUSH1 0x40 MLOAD PUSH3 0x461BCD PUSH1 0xE5 SHL DUP2 MSTORE PUSH1 0x20 PUSH1 0x4 DUP3 ADD MSTORE PUSH1 0x14 PUSH1 0x24 DUP3 ADD MSTORE PUSH20 0x14DD185AD95C881A5CC81D195C9B5A5B985D1959 PUSH1 0x62 SHL PUSH1 0x44 DUP3 ADD MSTORE PUSH1 0x64 ADD PUSH2 0x3EC JUMP JUMPDEST PUSH2 0x44F DUP3 PUSH2 0xCDB JUMP JUMPDEST PUSH1 0x9 SLOAD PUSH1 0x40 MLOAD PUSH4 0x70A08231 PUSH1 0xE0 SHL DUP2 MSTORE ADDRESS PUSH1 0x4 DUP3 ADD MSTORE PUSH1 0x0 SWAP2 PUSH1 0x1 PUSH1 0x1 PUSH1 0xA0 SHL SUB AND SWAP1 PUSH4 0x70A08231 SWAP1 PUSH1 0x24 ADD PUSH1 0x20 PUSH1 0x40 MLOAD DUP1 DUP4 SUB DUP2 DUP7 GAS STATICCALL ISZERO DUP1 ISZERO PUSH2 0x498 JUMPI RETURNDATASIZE PUSH1 0x0 DUP1 RETURNDATACOPY RETURNDATASIZE PUSH1 0x0 REVERT JUMPDEST POP POP POP POP PUSH1 0x40 MLOAD RETURNDATASIZE PUSH1 0x1F NOT PUSH1 0x1F DUP3 ADD AND DUP3 ADD DUP1 PUSH1 0x40 MSTORE POP DUP2 ADD SWAP1 PUSH2 0x4BC SWAP2 SWAP1 PUSH2 0x11F6 JUMP JUMPDEST PUSH1 0x9 SLOAD SWAP1 SWAP2 POP PUSH2 0x4D7 SWAP1 PUSH1 0x1 PUSH1 0x1 PUSH1 0xA0 SHL SUB AND CALLER ADDRESS DUP6 PUSH2 0xD9A JUMP JUMPDEST PUSH1 0x9 SLOAD PUSH1 0x40 MLOAD PUSH4 0x70A08231 PUSH1 0xE0 SHL DUP2 MSTORE ADDRESS PUSH1 0x4 DUP3 ADD MSTORE PUSH1 0x0 SWAP2 PUSH1 0x1 PUSH1 0x1 PUSH1 0xA0 SHL SUB AND SWAP1 PUSH4 0x70A08231 SWAP1 PUSH1 0x24 ADD PUSH1 0x20 PUSH1 0x40 MLOAD DUP1 DUP4 SUB DUP2 DUP7 GAS STATICCALL ISZERO DUP1 ISZERO PUSH2 0x520 JUMPI RETURNDATASIZE PUSH1 0x0 DUP1 RETURNDATACOPY RETURNDATASIZE PUSH1 0x0 REVERT JUMPDEST POP POP POP POP PUSH1 0x40 MLOAD RETURNDATASIZE PUSH1 0x1F NOT PUSH1 0x1F DUP3 ADD AND DUP3 ADD DUP1 PUSH1 0x40 MSTORE POP DUP2 ADD SWAP1 PUSH2 0x544 SWAP2 SWAP1 PUSH2 0x11F6 JUMP JUMPDEST SWAP1 POP PUSH1 0x0 PUSH2 0x552 DUP4 DUP4 PUSH2 0x11A8 JUMP JUMPDEST PUSH1 0x1 PUSH1 0x1 PUSH1 0xA0 SHL SUB DUP7 AND PUSH1 0x0 SWAP1 DUP2 MSTORE PUSH1 0x6 PUSH1 0x20 MSTORE PUSH1 0x40 DUP2 KECCAK256 DUP1 SLOAD SWAP3 SWAP4 POP DUP4 SWAP3 SWAP1 SWAP2 SWAP1 PUSH2 0x57F SWAP1 DUP5 SWAP1 PUSH2 0x11DE JUMP JUMPDEST SWAP3 POP POP DUP2 SWAP1 SSTORE POP DUP1 PUSH1 0x5 PUSH1 0x0 DUP3 DUP3 SLOAD PUSH2 0x598 SWAP2 SWAP1 PUSH2 0x11DE JUMP JUMPDEST SWAP1 SWAP2 SSTORE POP POP PUSH1 0x40 MLOAD DUP5 DUP2 MSTORE PUSH1 0x1 PUSH1 0x1 PUSH1 0xA0 SHL SUB DUP7 AND SWAP1 PUSH32 0xD72A07C2B69603590E6E3AF93B18BC5CB1E3E52E6052D0538FA3FB94200930E6 SWAP1 PUSH1 0x20 ADD JUMPDEST PUSH1 0x40 MLOAD DUP1 SWAP2 SUB SWAP1 LOG2 POP POP POP POP POP JUMP JUMPDEST PUSH1 0x0 DUP2 GT PUSH2 0x626 JUMPI PUSH1 0x40 MLOAD PUSH3 0x461BCD PUSH1 0xE5 SHL DUP2 MSTORE PUSH1 0x20 PUSH1 0x4 DUP3 ADD MSTORE PUSH1 0x10 PUSH1 0x24 DUP3 ADD MSTORE PUSH16 0x43616E6E6F7420756E7374616B65203 PUSH1 0x84 SHL PUSH1 0x44 DUP3 ADD MSTORE PUSH1 0x64 ADD PUSH2 0x3EC JUMP JUMPDEST CALLER PUSH1 0x0 SWAP1 DUP2 MSTORE PUSH1 0x6 PUSH1 0x20 MSTORE PUSH1 0x40 SWAP1 KECCAK256 SLOAD DUP2 GT ISZERO PUSH2 0x685 JUMPI PUSH1 0x40 MLOAD PUSH3 0x461BCD PUSH1 0xE5 SHL DUP2 MSTORE PUSH1 0x20 PUSH1 0x4 DUP3 ADD MSTORE PUSH1 0x1B PUSH1 0x24 DUP3 ADD MSTORE PUSH32 0x4E6F7420656E6F7567682066756E647320746F20756E7374616B650000000000 PUSH1 0x44 DUP3 ADD MSTORE PUSH1 0x64 ADD PUSH2 0x3EC JUMP JUMPDEST PUSH2 0x68E CALLER PUSH2 0xCDB JUMP JUMPDEST PUSH1 0x9 SLOAD PUSH1 0x40 MLOAD PUSH4 0x70A08231 PUSH1 0xE0 SHL DUP2 MSTORE ADDRESS PUSH1 0x4 DUP3 ADD MSTORE PUSH1 0x0 SWAP2 PUSH1 0x1 PUSH1 0x1 PUSH1 0xA0 SHL SUB AND SWAP1 PUSH4 0x70A08231 SWAP1 PUSH1 0x24 ADD PUSH1 0x20 PUSH1 0x40 MLOAD DUP1 DUP4 SUB DUP2 DUP7 GAS STATICCALL ISZERO DUP1 ISZERO PUSH2 0x6D7 JUMPI RETURNDATASIZE PUSH1 0x0 DUP1 RETURNDATACOPY RETURNDATASIZE PUSH1 0x0 REVERT JUMPDEST POP POP POP POP PUSH1 0x40 MLOAD RETURNDATASIZE PUSH1 0x1F NOT PUSH1 0x1F DUP3 ADD AND DUP3 ADD DUP1 PUSH1 0x40 MSTORE POP DUP2 ADD SWAP1 PUSH2 0x6FB SWAP2 SWAP1 PUSH2 0x11F6 JUMP JUMPDEST PUSH1 0x9 SLOAD SWAP1 SWAP2 POP PUSH2 0x715 SWAP1 PUSH1 0x1 PUSH1 0x1 PUSH1 0xA0 SHL SUB AND DUP5 DUP5 PUSH2 0xE0B JUMP JUMPDEST PUSH1 0x9 SLOAD PUSH1 0x40 MLOAD PUSH4 0x70A08231 PUSH1 0xE0 SHL DUP2 MSTORE ADDRESS PUSH1 0x4 DUP3 ADD MSTORE PUSH1 0x0 SWAP2 PUSH1 0x1 PUSH1 0x1 PUSH1 0xA0 SHL SUB AND SWAP1 PUSH4 0x70A08231 SWAP1 PUSH1 0x24 ADD PUSH1 0x20 PUSH1 0x40 MLOAD DUP1 DUP4 SUB DUP2 DUP7 GAS STATICCALL ISZERO DUP1 ISZERO PUSH2 0x75E JUMPI RETURNDATASIZE PUSH1 0x0 DUP1 RETURNDATACOPY RETURNDATASIZE PUSH1 0x0 REVERT JUMPDEST POP POP POP POP PUSH1 0x40 MLOAD RETURNDATASIZE PUSH1 0x1F NOT PUSH1 0x1F DUP3 ADD AND DUP3 ADD DUP1 PUSH1 0x40 MSTORE POP DUP2 ADD SWAP1 PUSH2 0x782 SWAP2 SWAP1 PUSH2 0x11F6 JUMP JUMPDEST SWAP1 POP PUSH1 0x0 PUSH2 0x790 DUP3 DUP5 PUSH2 0x11A8 JUMP JUMPDEST CALLER PUSH1 0x0 SWAP1 DUP2 MSTORE PUSH1 0x6 PUSH1 0x20 MSTORE PUSH1 0x40 DUP2 KECCAK256 DUP1 SLOAD SWAP3 SWAP4 POP DUP4 SWAP3 SWAP1 SWAP2 SWAP1 PUSH2 0x7B4 SWAP1 DUP5 SWAP1 PUSH2 0x11A8 JUMP JUMPDEST SWAP3 POP POP DUP2 SWAP1 SSTORE POP DUP1 PUSH1 0x5 PUSH1 0x0 DUP3 DUP3 SLOAD PUSH2 0x7CD SWAP2 SWAP1 PUSH2 0x11A8 JUMP JUMPDEST SWAP1 SWAP2 SSTORE POP POP PUSH1 0x40 MLOAD DUP5 DUP2 MSTORE CALLER SWAP1 PUSH32 0xDB72F4F1C40867050ECE06466E0C51AE6857DD54FE6AD4AD9EF47420CD3C9DCE SWAP1 PUSH1 0x20 ADD PUSH2 0x5D4 JUMP JUMPDEST PUSH1 0x0 PUSH2 0x80F CALLER PUSH2 0xCDB JUMP JUMPDEST CALLER PUSH1 0x0 SWAP1 DUP2 MSTORE PUSH1 0x8 PUSH1 0x20 MSTORE PUSH1 0x40 SWAP1 KECCAK256 SLOAD DUP1 PUSH2 0x82C JUMPI PUSH1 0x0 SWAP2 POP POP SWAP1 JUMP JUMPDEST CALLER PUSH1 0x0 SWAP1 DUP2 MSTORE PUSH1 0x8 PUSH1 0x20 MSTORE PUSH1 0x40 DUP2 KECCAK256 DUP2 SWAP1 SSTORE PUSH1 0x3 DUP1 SLOAD DUP4 SWAP3 SWAP1 PUSH2 0x850 SWAP1 DUP5 SWAP1 PUSH2 0x11A8 JUMP JUMPDEST SWAP1 SWAP2 SSTORE POP PUSH2 0x88A SWAP1 POP PUSH1 0x1 PUSH1 0x1 PUSH1 0xA0 SHL SUB PUSH32 0x0 AND CALLER DUP4 PUSH2 0xE0B JUMP JUMPDEST PUSH2 0x892 PUSH2 0xE40 JUMP JUMPDEST PUSH1 0x40 MLOAD DUP2 DUP2 MSTORE CALLER SWAP1 PUSH32 0x896E034966EAAF1ADC54ACC0F257056FEBBD300C9E47182CF761982CF1F5E430 SWAP1 PUSH1 0x20 ADD PUSH1 0x40 MLOAD DUP1 SWAP2 SUB SWAP1 LOG2 SWAP2 SWAP1 POP JUMP JUMPDEST PUSH2 0x8D4 PUSH2 0x33D JUMP JUMPDEST POP PUSH2 0x8DD PUSH2 0xE40 JUMP JUMPDEST JUMP JUMPDEST PUSH1 0x0 SLOAD PUSH1 0x1 PUSH1 0x1 PUSH1 0xA0 SHL SUB AND CALLER EQ PUSH2 0x909 JUMPI PUSH1 0x40 MLOAD PUSH3 0x461BCD PUSH1 0xE5 SHL DUP2 MSTORE PUSH1 0x4 ADD PUSH2 0x3EC SWAP1 PUSH2 0x120F JUMP JUMPDEST PUSH2 0x8DD PUSH1 0x0 PUSH2 0xE76 JUMP JUMPDEST PUSH1 0x4 SLOAD PUSH1 0x9 SLOAD PUSH1 0x0 SWAP2 SWAP1 PUSH1 0x1 PUSH1 0xA0 SHL SWAP1 DIV PUSH1 0xFF AND ISZERO DUP1 ISZERO PUSH2 0x936 JUMPI POP PUSH1 0x0 PUSH1 0x5 SLOAD GT JUMPDEST ISZERO PUSH2 0x969 JUMPI PUSH2 0x94F PUSH1 0x5 SLOAD PUSH1 0xA SLOAD TIMESTAMP PUSH2 0x387 SWAP2 SWAP1 PUSH2 0x11A8 JUMP JUMPDEST PUSH1 0x1 SLOAD PUSH2 0x95C SWAP2 SWAP1 PUSH2 0x11BF JUMP JUMPDEST PUSH2 0x966 SWAP1 DUP3 PUSH2 0x11DE JUMP JUMPDEST SWAP1 POP JUMPDEST PUSH1 0x1 PUSH1 0x1 PUSH1 0xA0 SHL SUB DUP4 AND PUSH1 0x0 SWAP1 DUP2 MSTORE PUSH1 0x7 PUSH1 0x20 MSTORE PUSH1 0x40 SWAP1 KECCAK256 SLOAD PUSH2 0x9AF SWAP1 PUSH2 0x990 SWAP1 DUP4 PUSH2 0x11A8 JUMP JUMPDEST PUSH1 0x1 PUSH1 0x1 PUSH1 0xA0 SHL SUB DUP6 AND PUSH1 0x0 SWAP1 DUP2 MSTORE PUSH1 0x6 PUSH1 0x20 MSTORE PUSH1 0x40 SWAP1 KECCAK256 SLOAD SWAP1 PUSH2 0xEC6 JUMP JUMPDEST PUSH1 0x1 PUSH1 0x1 PUSH1 0xA0 SHL SUB DUP5 AND PUSH1 0x0 SWAP1 DUP2 MSTORE PUSH1 0x8 PUSH1 0x20 MSTORE PUSH1 0x40 SWAP1 KECCAK256 SLOAD PUSH2 0x9D2 SWAP2 SWAP1 PUSH2 0x11DE JUMP JUMPDEST SWAP4 SWAP3 POP POP POP JUMP JUMPDEST PUSH1 0x0 SLOAD PUSH1 0x1 PUSH1 0x1 PUSH1 0xA0 SHL SUB AND CALLER EQ PUSH2 0xA03 JUMPI PUSH1 0x40 MLOAD PUSH3 0x461BCD PUSH1 0xE5 SHL DUP2 MSTORE PUSH1 0x4 ADD PUSH2 0x3EC SWAP1 PUSH2 0x120F JUMP JUMPDEST PUSH1 0x9 SLOAD PUSH1 0x1 PUSH1 0x1 PUSH1 0xA0 SHL SUB AND ISZERO PUSH2 0xA5C JUMPI PUSH1 0x40 MLOAD PUSH3 0x461BCD PUSH1 0xE5 SHL DUP2 MSTORE PUSH1 0x20 PUSH1 0x4 DUP3 ADD MSTORE PUSH1 0x1D PUSH1 0x24 DUP3 ADD MSTORE PUSH32 0x416D6D20746F6B656E20616C726561647920696E697469616C697A6564000000 PUSH1 0x44 DUP3 ADD MSTORE PUSH1 0x64 ADD PUSH2 0x3EC JUMP JUMPDEST PUSH1 0x9 DUP1 SLOAD PUSH1 0x1 PUSH1 0x1 PUSH1 0xA0 SHL SUB NOT AND PUSH1 0x1 PUSH1 0x1 PUSH1 0xA0 SHL SUB DUP4 AND SWAP1 DUP2 OR SWAP1 SWAP2 SSTORE PUSH1 0x40 MLOAD SWAP1 DUP2 MSTORE PUSH32 0xF257414BCDA7532BA4574F26AC65885B9E0DB7D0B1A29149D422ED03411794AC SWAP1 PUSH1 0x20 ADD PUSH1 0x40 MLOAD DUP1 SWAP2 SUB SWAP1 LOG1 POP JUMP JUMPDEST PUSH1 0x0 SLOAD PUSH1 0x1 PUSH1 0x1 PUSH1 0xA0 SHL SUB AND CALLER EQ PUSH2 0xADA JUMPI PUSH1 0x40 MLOAD PUSH3 0x461BCD PUSH1 0xE5 SHL DUP2 MSTORE PUSH1 0x4 ADD PUSH2 0x3EC SWAP1 PUSH2 0x120F JUMP JUMPDEST PUSH1 0x1 PUSH1 0x1 PUSH1 0xA0 SHL SUB DUP2 AND PUSH2 0xB3F JUMPI PUSH1 0x40 MLOAD PUSH3 0x461BCD PUSH1 0xE5 SHL DUP2 MSTORE PUSH1 0x20 PUSH1 0x4 DUP3 ADD MSTORE PUSH1 0x26 PUSH1 0x24 DUP3 ADD MSTORE PUSH32 0x4F776E61626C653A206E6577206F776E657220697320746865207A65726F2061 PUSH1 0x44 DUP3 ADD MSTORE PUSH6 0x646472657373 PUSH1 0xD0 SHL PUSH1 0x64 DUP3 ADD MSTORE PUSH1 0x84 ADD PUSH2 0x3EC JUMP JUMPDEST PUSH2 0xB48 DUP2 PUSH2 0xE76 JUMP JUMPDEST POP JUMP JUMPDEST PUSH1 0x0 SLOAD PUSH1 0x1 PUSH1 0x1 PUSH1 0xA0 SHL SUB AND CALLER EQ PUSH2 0xB75 JUMPI PUSH1 0x40 MLOAD PUSH3 0x461BCD PUSH1 0xE5 SHL DUP2 MSTORE PUSH1 0x4 ADD PUSH2 0x3EC SWAP1 PUSH2 0x120F JUMP JUMPDEST PUSH1 0x9 SLOAD PUSH1 0x1 PUSH1 0xA0 SHL SWAP1 DIV PUSH1 0xFF AND ISZERO PUSH2 0xBC4 JUMPI PUSH1 0x40 MLOAD PUSH3 0x461BCD PUSH1 0xE5 SHL DUP2 MSTORE PUSH1 0x20 PUSH1 0x4 DUP3 ADD MSTORE PUSH1 0x12 PUSH1 0x24 DUP3 ADD MSTORE PUSH18 0x105B1C9958591E481D195C9B5A5B985D1959 PUSH1 0x72 SHL PUSH1 0x44 DUP3 ADD MSTORE PUSH1 0x64 ADD PUSH2 0x3EC JUMP JUMPDEST PUSH2 0xBCC PUSH2 0x33D JUMP JUMPDEST POP PUSH1 0x9 DUP1 SLOAD PUSH1 0xFF PUSH1 0xA0 SHL NOT AND PUSH1 0x1 PUSH1 0xA0 SHL OR SWAP1 SSTORE PUSH1 0x3 SLOAD PUSH1 0x40 MLOAD PUSH4 0x70A08231 PUSH1 0xE0 SHL DUP2 MSTORE ADDRESS PUSH1 0x4 DUP3 ADD MSTORE PUSH32 0x0 SWAP2 PUSH2 0xB48 SWAP2 PUSH32 0x0 SWAP2 SWAP1 PUSH1 0x1 PUSH1 0x1 PUSH1 0xA0 SHL SUB DUP6 AND SWAP1 PUSH4 0x70A08231 SWAP1 PUSH1 0x24 ADD PUSH1 0x20 PUSH1 0x40 MLOAD DUP1 DUP4 SUB DUP2 DUP7 GAS STATICCALL ISZERO DUP1 ISZERO PUSH2 0xC70 JUMPI RETURNDATASIZE PUSH1 0x0 DUP1 RETURNDATACOPY RETURNDATASIZE PUSH1 0x0 REVERT JUMPDEST POP POP POP POP PUSH1 0x40 MLOAD RETURNDATASIZE PUSH1 0x1F NOT PUSH1 0x1F DUP3 ADD AND DUP3 ADD DUP1 PUSH1 0x40 MSTORE POP DUP2 ADD SWAP1 PUSH2 0xC94 SWAP2 SWAP1 PUSH2 0x11F6 JUMP JUMPDEST PUSH2 0xC9E SWAP2 SWAP1 PUSH2 0x11A8 JUMP JUMPDEST PUSH1 0x1 PUSH1 0x1 PUSH1 0xA0 SHL SUB DUP5 AND SWAP2 SWAP1 PUSH2 0xE0B JUMP JUMPDEST PUSH1 0x0 DUP2 PUSH2 0xCBE PUSH1 0x12 PUSH1 0xA PUSH2 0x1328 JUMP JUMPDEST PUSH2 0xCC8 SWAP1 DUP6 PUSH2 0x11BF JUMP JUMPDEST PUSH2 0xCD2 SWAP2 SWAP1 PUSH2 0x1334 JUMP JUMPDEST SWAP1 POP JUMPDEST SWAP3 SWAP2 POP POP JUMP JUMPDEST PUSH2 0xCE3 PUSH2 0x33D JUMP JUMPDEST POP PUSH1 0x1 PUSH1 0x1 PUSH1 0xA0 SHL SUB DUP2 AND PUSH1 0x0 SWAP1 DUP2 MSTORE PUSH1 0x7 PUSH1 0x20 MSTORE PUSH1 0x40 DUP2 KECCAK256 SLOAD PUSH1 0x4 SLOAD PUSH2 0xD2C SWAP2 PUSH2 0xD0D SWAP2 PUSH2 0x11A8 JUMP JUMPDEST PUSH1 0x1 PUSH1 0x1 PUSH1 0xA0 SHL SUB DUP5 AND PUSH1 0x0 SWAP1 DUP2 MSTORE PUSH1 0x6 PUSH1 0x20 MSTORE PUSH1 0x40 SWAP1 KECCAK256 SLOAD SWAP1 PUSH2 0xEC6 JUMP JUMPDEST PUSH1 0x1 PUSH1 0x1 PUSH1 0xA0 SHL SUB DUP4 AND PUSH1 0x0 SWAP1 DUP2 MSTORE PUSH1 0x8 PUSH1 0x20 MSTORE PUSH1 0x40 DUP2 KECCAK256 DUP1 SLOAD SWAP3 SWAP4 POP DUP4 SWAP3 SWAP1 SWAP2 SWAP1 PUSH2 0xD59 SWAP1 DUP5 SWAP1 PUSH2 0x11DE JUMP JUMPDEST SWAP3 POP POP DUP2 SWAP1 SSTORE POP DUP1 PUSH1 0x3 PUSH1 0x0 DUP3 DUP3 SLOAD PUSH2 0xD72 SWAP2 SWAP1 PUSH2 0x11DE JUMP JUMPDEST SWAP1 SWAP2 SSTORE POP POP PUSH1 0x4 SLOAD PUSH1 0x1 PUSH1 0x1 PUSH1 0xA0 SHL SUB SWAP1 SWAP3 AND PUSH1 0x0 SWAP1 DUP2 MSTORE PUSH1 0x7 PUSH1 0x20 MSTORE PUSH1 0x40 SWAP1 KECCAK256 SWAP2 SWAP1 SWAP2 SSTORE POP JUMP JUMPDEST PUSH1 0x40 MLOAD PUSH1 0x1 PUSH1 0x1 PUSH1 0xA0 SHL SUB DUP1 DUP6 AND PUSH1 0x24 DUP4 ADD MSTORE DUP4 AND PUSH1 0x44 DUP3 ADD MSTORE PUSH1 0x64 DUP2 ADD DUP3 SWAP1 MSTORE PUSH2 0xE05 SWAP1 DUP6 SWAP1 PUSH4 0x23B872DD PUSH1 0xE0 SHL SWAP1 PUSH1 0x84 ADD JUMPDEST PUSH1 0x40 DUP1 MLOAD PUSH1 0x1F NOT DUP2 DUP5 SUB ADD DUP2 MSTORE SWAP2 SWAP1 MSTORE PUSH1 0x20 DUP2 ADD DUP1 MLOAD PUSH1 0x1 PUSH1 0x1 PUSH1 0xE0 SHL SUB AND PUSH1 0x1 PUSH1 0x1 PUSH1 0xE0 SHL SUB NOT SWAP1 SWAP4 AND SWAP3 SWAP1 SWAP3 OR SWAP1 SWAP2 MSTORE PUSH2 0xEDE JUMP JUMPDEST POP POP POP POP JUMP JUMPDEST PUSH1 0x40 MLOAD PUSH1 0x1 PUSH1 0x1 PUSH1 0xA0 SHL SUB DUP4 AND PUSH1 0x24 DUP3 ADD MSTORE PUSH1 0x44 DUP2 ADD DUP3 SWAP1 MSTORE PUSH2 0xE3B SWAP1 DUP5 SWAP1 PUSH4 0xA9059CBB PUSH1 0xE0 SHL SWAP1 PUSH1 0x64 ADD PUSH2 0xDCE JUMP JUMPDEST POP POP POP JUMP JUMPDEST PUSH4 0x1E13380 PUSH1 0x2 SLOAD PUSH2 0xE52 SWAP2 SWAP1 PUSH2 0x11DE JUMP JUMPDEST TIMESTAMP LT PUSH2 0x8DD JUMPI PUSH1 0x1 SLOAD PUSH2 0xE6D SWAP1 PUSH8 0x58D15CA2DB11800 PUSH2 0xEC6 JUMP JUMPDEST PUSH1 0x1 SSTORE TIMESTAMP PUSH1 0x2 SSTORE JUMP JUMPDEST PUSH1 0x0 DUP1 SLOAD PUSH1 0x1 PUSH1 0x1 PUSH1 0xA0 SHL SUB DUP4 DUP2 AND PUSH1 0x1 PUSH1 0x1 PUSH1 0xA0 SHL SUB NOT DUP4 AND DUP2 OR DUP5 SSTORE PUSH1 0x40 MLOAD SWAP2 SWAP1 SWAP3 AND SWAP3 DUP4 SWAP2 PUSH32 0x8BE0079C531659141344CD1FD0A4F28419497F9722A3DAAFE3B4186F6B6457E0 SWAP2 SWAP1 LOG3 POP POP JUMP JUMPDEST PUSH1 0x0 PUSH2 0xED4 PUSH1 0x12 PUSH1 0xA PUSH2 0x1328 JUMP JUMPDEST PUSH2 0xCC8 DUP4 DUP6 PUSH2 0x11BF JUMP JUMPDEST PUSH1 0x0 PUSH2 0xF33 DUP3 PUSH1 0x40 MLOAD DUP1 PUSH1 0x40 ADD PUSH1 0x40 MSTORE DUP1 PUSH1 0x20 DUP2 MSTORE PUSH1 0x20 ADD PUSH32 0x5361666545524332303A206C6F772D6C6576656C2063616C6C206661696C6564 DUP2 MSTORE POP DUP6 PUSH1 0x1 PUSH1 0x1 PUSH1 0xA0 SHL SUB AND PUSH2 0xFB0 SWAP1 SWAP3 SWAP2 SWAP1 PUSH4 0xFFFFFFFF AND JUMP JUMPDEST DUP1 MLOAD SWAP1 SWAP2 POP ISZERO PUSH2 0xE3B JUMPI DUP1 DUP1 PUSH1 0x20 ADD SWAP1 MLOAD DUP2 ADD SWAP1 PUSH2 0xF51 SWAP2 SWAP1 PUSH2 0x1356 JUMP JUMPDEST PUSH2 0xE3B JUMPI PUSH1 0x40 MLOAD PUSH3 0x461BCD PUSH1 0xE5 SHL DUP2 MSTORE PUSH1 0x20 PUSH1 0x4 DUP3 ADD MSTORE PUSH1 0x2A PUSH1 0x24 DUP3 ADD MSTORE PUSH32 0x5361666545524332303A204552433230206F7065726174696F6E20646964206E PUSH1 0x44 DUP3 ADD MSTORE PUSH10 0x1BDD081CDD58D8D95959 PUSH1 0xB2 SHL PUSH1 0x64 DUP3 ADD MSTORE PUSH1 0x84 ADD PUSH2 0x3EC JUMP JUMPDEST PUSH1 0x60 PUSH2 0xFBF DUP5 DUP5 PUSH1 0x0 DUP6 PUSH2 0xFC7 JUMP JUMPDEST SWAP5 SWAP4 POP POP POP POP JUMP JUMPDEST PUSH1 0x60 DUP3 SELFBALANCE LT ISZERO PUSH2 0x1028 JUMPI PUSH1 0x40 MLOAD PUSH3 0x461BCD PUSH1 0xE5 SHL DUP2 MSTORE PUSH1 0x20 PUSH1 0x4 DUP3 ADD MSTORE PUSH1 0x26 PUSH1 0x24 DUP3 ADD MSTORE PUSH32 0x416464726573733A20696E73756666696369656E742062616C616E636520666F PUSH1 0x44 DUP3 ADD MSTORE PUSH6 0x1C8818D85B1B PUSH1 0xD2 SHL PUSH1 0x64 DUP3 ADD MSTORE PUSH1 0x84 ADD PUSH2 0x3EC JUMP JUMPDEST PUSH1 0x1 PUSH1 0x1 PUSH1 0xA0 SHL SUB DUP6 AND EXTCODESIZE PUSH2 0x107F JUMPI PUSH1 0x40 MLOAD PUSH3 0x461BCD PUSH1 0xE5 SHL DUP2 MSTORE PUSH1 0x20 PUSH1 0x4 DUP3 ADD MSTORE PUSH1 0x1D PUSH1 0x24 DUP3 ADD MSTORE PUSH32 0x416464726573733A2063616C6C20746F206E6F6E2D636F6E7472616374000000 PUSH1 0x44 DUP3 ADD MSTORE PUSH1 0x64 ADD PUSH2 0x3EC JUMP JUMPDEST PUSH1 0x0 DUP1 DUP7 PUSH1 0x1 PUSH1 0x1 PUSH1 0xA0 SHL SUB AND DUP6 DUP8 PUSH1 0x40 MLOAD PUSH2 0x109B SWAP2 SWAP1 PUSH2 0x13A4 JUMP JUMPDEST PUSH1 0x0 PUSH1 0x40 MLOAD DUP1 DUP4 SUB DUP2 DUP6 DUP8 GAS CALL SWAP3 POP POP POP RETURNDATASIZE DUP1 PUSH1 0x0 DUP2 EQ PUSH2 0x10D8 JUMPI PUSH1 0x40 MLOAD SWAP2 POP PUSH1 0x1F NOT PUSH1 0x3F RETURNDATASIZE ADD AND DUP3 ADD PUSH1 0x40 MSTORE RETURNDATASIZE DUP3 MSTORE RETURNDATASIZE PUSH1 0x0 PUSH1 0x20 DUP5 ADD RETURNDATACOPY PUSH2 0x10DD JUMP JUMPDEST PUSH1 0x60 SWAP2 POP JUMPDEST POP SWAP2 POP SWAP2 POP PUSH2 0x10ED DUP3 DUP3 DUP7 PUSH2 0x10F8 JUMP JUMPDEST SWAP8 SWAP7 POP POP POP POP POP POP POP JUMP JUMPDEST PUSH1 0x60 DUP4 ISZERO PUSH2 0x1107 JUMPI POP DUP2 PUSH2 0x9D2 JUMP JUMPDEST DUP3 MLOAD ISZERO PUSH2 0x1117 JUMPI DUP3 MLOAD DUP1 DUP5 PUSH1 0x20 ADD REVERT JUMPDEST DUP2 PUSH1 0x40 MLOAD PUSH3 0x461BCD PUSH1 0xE5 SHL DUP2 MSTORE PUSH1 0x4 ADD PUSH2 0x3EC SWAP2 SWAP1 PUSH2 0x13C0 JUMP JUMPDEST DUP1 CALLDATALOAD PUSH1 0x1 PUSH1 0x1 PUSH1 0xA0 SHL SUB DUP2 AND DUP2 EQ PUSH2 0x1148 JUMPI PUSH1 0x0 DUP1 REVERT JUMPDEST SWAP2 SWAP1 POP JUMP JUMPDEST PUSH1 0x0 PUSH1 0x20 DUP3 DUP5 SUB SLT ISZERO PUSH2 0x115F JUMPI PUSH1 0x0 DUP1 REVERT JUMPDEST PUSH2 0xCD2 DUP3 PUSH2 0x1131 JUMP JUMPDEST PUSH1 0x0 DUP1 PUSH1 0x40 DUP4 DUP6 SUB SLT ISZERO PUSH2 0x117B JUMPI PUSH1 0x0 DUP1 REVERT JUMPDEST PUSH2 0x1184 DUP4 PUSH2 0x1131 JUMP JUMPDEST SWAP5 PUSH1 0x20 SWAP4 SWAP1 SWAP4 ADD CALLDATALOAD SWAP4 POP POP POP JUMP JUMPDEST PUSH4 0x4E487B71 PUSH1 0xE0 SHL PUSH1 0x0 MSTORE PUSH1 0x11 PUSH1 0x4 MSTORE PUSH1 0x24 PUSH1 0x0 REVERT JUMPDEST PUSH1 0x0 DUP3 DUP3 LT ISZERO PUSH2 0x11BA JUMPI PUSH2 0x11BA PUSH2 0x1192 JUMP JUMPDEST POP SUB SWAP1 JUMP JUMPDEST PUSH1 0x0 DUP2 PUSH1 0x0 NOT DIV DUP4 GT DUP3 ISZERO ISZERO AND ISZERO PUSH2 0x11D9 JUMPI PUSH2 0x11D9 PUSH2 0x1192 JUMP JUMPDEST POP MUL SWAP1 JUMP JUMPDEST PUSH1 0x0 DUP3 NOT DUP3 GT ISZERO PUSH2 0x11F1 JUMPI PUSH2 0x11F1 PUSH2 0x1192 JUMP JUMPDEST POP ADD SWAP1 JUMP JUMPDEST PUSH1 0x0 PUSH1 0x20 DUP3 DUP5 SUB SLT ISZERO PUSH2 0x1208 JUMPI PUSH1 0x0 DUP1 REVERT JUMPDEST POP MLOAD SWAP2 SWAP1 POP JUMP JUMPDEST PUSH1 0x20 DUP1 DUP3 MSTORE DUP2 DUP2 ADD MSTORE PUSH32 0x4F776E61626C653A2063616C6C6572206973206E6F7420746865206F776E6572 PUSH1 0x40 DUP3 ADD MSTORE PUSH1 0x60 ADD SWAP1 JUMP JUMPDEST PUSH1 0x1 DUP2 DUP2 JUMPDEST DUP1 DUP6 GT ISZERO PUSH2 0x127F JUMPI DUP2 PUSH1 0x0 NOT DIV DUP3 GT ISZERO PUSH2 0x1265 JUMPI PUSH2 0x1265 PUSH2 0x1192 JUMP JUMPDEST DUP1 DUP6 AND ISZERO PUSH2 0x1272 JUMPI SWAP2 DUP2 MUL SWAP2 JUMPDEST SWAP4 DUP5 SHR SWAP4 SWAP1 DUP1 MUL SWAP1 PUSH2 0x1249 JUMP JUMPDEST POP SWAP3 POP SWAP3 SWAP1 POP JUMP JUMPDEST PUSH1 0x0 DUP3 PUSH2 0x1296 JUMPI POP PUSH1 0x1 PUSH2 0xCD5 JUMP JUMPDEST DUP2 PUSH2 0x12A3 JUMPI POP PUSH1 0x0 PUSH2 0xCD5 JUMP JUMPDEST DUP2 PUSH1 0x1 DUP2 EQ PUSH2 0x12B9 JUMPI PUSH1 0x2 DUP2 EQ PUSH2 0x12C3 JUMPI PUSH2 0x12DF JUMP JUMPDEST PUSH1 0x1 SWAP2 POP POP PUSH2 0xCD5 JUMP JUMPDEST PUSH1 0xFF DUP5 GT ISZERO PUSH2 0x12D4 JUMPI PUSH2 0x12D4 PUSH2 0x1192 JUMP JUMPDEST POP POP PUSH1 0x1 DUP3 SHL PUSH2 0xCD5 JUMP JUMPDEST POP PUSH1 0x20 DUP4 LT PUSH2 0x133 DUP4 LT AND PUSH1 0x4E DUP5 LT PUSH1 0xB DUP5 LT AND OR ISZERO PUSH2 0x1302 JUMPI POP DUP2 DUP2 EXP PUSH2 0xCD5 JUMP JUMPDEST PUSH2 0x130C DUP4 DUP4 PUSH2 0x1244 JUMP JUMPDEST DUP1 PUSH1 0x0 NOT DIV DUP3 GT ISZERO PUSH2 0x1320 JUMPI PUSH2 0x1320 PUSH2 0x1192 JUMP JUMPDEST MUL SWAP4 SWAP3 POP POP POP JUMP JUMPDEST PUSH1 0x0 PUSH2 0xCD2 DUP4 DUP4 PUSH2 0x1287 JUMP JUMPDEST PUSH1 0x0 DUP3 PUSH2 0x1351 JUMPI PUSH4 0x4E487B71 PUSH1 0xE0 SHL PUSH1 0x0 MSTORE PUSH1 0x12 PUSH1 0x4 MSTORE PUSH1 0x24 PUSH1 0x0 REVERT JUMPDEST POP DIV SWAP1 JUMP JUMPDEST PUSH1 0x0 PUSH1 0x20 DUP3 DUP5 SUB SLT ISZERO PUSH2 0x1368 JUMPI PUSH1 0x0 DUP1 REVERT JUMPDEST DUP2 MLOAD DUP1 ISZERO ISZERO DUP2 EQ PUSH2 0x9D2 JUMPI PUSH1 0x0 DUP1 REVERT JUMPDEST PUSH1 0x0 JUMPDEST DUP4 DUP2 LT ISZERO PUSH2 0x1393 JUMPI DUP2 DUP2 ADD MLOAD DUP4 DUP3 ADD MSTORE PUSH1 0x20 ADD PUSH2 0x137B JUMP JUMPDEST DUP4 DUP2 GT ISZERO PUSH2 0xE05 JUMPI POP POP PUSH1 0x0 SWAP2 ADD MSTORE JUMP JUMPDEST PUSH1 0x0 DUP3 MLOAD PUSH2 0x13B6 DUP2 DUP5 PUSH1 0x20 DUP8 ADD PUSH2 0x1378 JUMP JUMPDEST SWAP2 SWAP1 SWAP2 ADD SWAP3 SWAP2 POP POP JUMP JUMPDEST PUSH1 0x20 DUP2 MSTORE PUSH1 0x0 DUP3 MLOAD DUP1 PUSH1 0x20 DUP5 ADD MSTORE PUSH2 0x13DF DUP2 PUSH1 0x40 DUP6 ADD PUSH1 0x20 DUP8 ADD PUSH2 0x1378 JUMP JUMPDEST PUSH1 0x1F ADD PUSH1 0x1F NOT AND SWAP2 SWAP1 SWAP2 ADD PUSH1 0x40 ADD SWAP3 SWAP2 POP POP JUMP INVALID LOG2 PUSH5 0x6970667358 0x22 SLT KECCAK256 SWAP11 LT 0xE9 0xC 0xEA MLOAD 0xE7 0xDE INVALID 0xC 0xE8 SHL 0xAB 0xB4 0xB9 PUSH19 0xB9ED6F31A49E1F6F965E982E3D39219364736F PUSH13 0x634300080D0033000000000000 ","sha1":"5aa9c4f860ab548b5476253678e15f3940b1b639","source":"// SPDX-License-Identifier: GPL-3.0-or-later\npragma solidity ^0.8.13;\n\nimport \"@openzeppelin/contracts/token/ERC20/utils/SafeERC20.sol\";\nimport \"@openzeppelin/contracts/access/Ownable.sol\";\n\nimport \"../../interfaces/tokenomics/ICNCToken.sol\";\nimport \"../../interfaces/tokenomics/IAmmStaker.sol\";\nimport \"../../libraries/ScaledMath.sol\";\n\ncontract AmmStaker is Ownable, IAmmStaker {\n    using ScaledMath for uint256;\n    using SafeERC20 for IERC20;\n\n    // Approaches 500k tokens in total inflation\n    uint256 internal constant INITIAL_INFLATION_RATE = 600_000 * 1e18;\n    uint256 internal constant INFLATION_RATE_DECAY = 0.3999999 * 1e18;\n    uint256 internal constant INFLATION_RATE_PERIOD = 365 days;\n\n    // Global trackers\n    uint256 public currentInflationRate;\n    uint256 public lastInflationRateDecay;\n    uint256 public totalClaimable;\n    uint256 public stakedIntegral;\n    uint256 public totalStaked;\n\n    // Per account trackers\n    mapping(address => uint256) public balances;\n    mapping(address => uint256) public accountAccruals;\n    mapping(address => uint256) public accountShares;\n\n    address public ammToken;\n    address public immutable rewardToken;\n    address public immutable treasury;\n    bool public terminated;\n    uint256 public lastUpdate;\n\n    event TokensClaimed(address indexed account, uint256 amount);\n    event AmmTokenStaked(address indexed account, uint256 amount);\n    event AmmTokenUnstaked(address indexed account, uint256 amount);\n    event AmmTokenSet(address _ammToken);\n\n    constructor(address _rewardToken, address _treasury) {\n        rewardToken = _rewardToken;\n        treasury = _treasury;\n        currentInflationRate = INITIAL_INFLATION_RATE / INFLATION_RATE_PERIOD;\n        lastUpdate = block.timestamp;\n        lastInflationRateDecay = block.timestamp;\n    }\n\n    function setAmmToken(address _ammToken) external override onlyOwner {\n        require(ammToken == address(0), \"Amm token already initialized\");\n        ammToken = _ammToken;\n        emit AmmTokenSet(_ammToken);\n    }\n\n    function shutdown() external override onlyOwner {\n        require(!terminated, \"Already terminated\");\n        globalCheckpoint();\n        terminated = true;\n        IERC20 _rewardToken = IERC20(rewardToken);\n        _rewardToken.safeTransfer(treasury, _rewardToken.balanceOf(address(this)) - totalClaimable);\n    }\n\n    function claimRewards() external override returns (uint256) {\n        _userCheckpoint(msg.sender);\n        uint256 amount = accountShares[msg.sender];\n        if (amount <= 0) return 0;\n        accountShares[msg.sender] = 0;\n        totalClaimable -= amount;\n        IERC20(rewardToken).safeTransfer(msg.sender, amount);\n        _executeInflationRateUpdate();\n        emit TokensClaimed(msg.sender, amount);\n        return amount;\n    }\n\n    function claimableRewards(address user) external view override returns (uint256) {\n        uint256 tempStakedIntegral = stakedIntegral;\n        if (!terminated && totalStaked > 0) {\n            tempStakedIntegral +=\n                currentInflationRate *\n                (block.timestamp - lastUpdate).divDown(totalStaked);\n        }\n        return\n            accountShares[user] +\n            balances[user].mulDown(tempStakedIntegral - accountAccruals[user]);\n    }\n\n    function executeInflationRateUpdate() external override {\n        globalCheckpoint();\n        _executeInflationRateUpdate();\n    }\n\n    function stakeFor(address account, uint256 amount) public override {\n        require(amount > 0, \"Cannot stake 0\");\n        require(!terminated, \"Staker is terminated\");\n        _userCheckpoint(account);\n\n        uint256 oldBal = IERC20(ammToken).balanceOf(address(this));\n        IERC20(ammToken).safeTransferFrom(msg.sender, address(this), amount);\n        uint256 newBal = IERC20(ammToken).balanceOf(address(this));\n        uint256 staked = newBal - oldBal;\n        balances[account] += staked;\n        totalStaked += staked;\n        emit AmmTokenStaked(account, amount);\n    }\n\n    function unstakeFor(address dst, uint256 amount) public override {\n        require(amount > 0, \"Cannot unstake 0\");\n        require(balances[msg.sender] >= amount, \"Not enough funds to unstake\");\n\n        _userCheckpoint(msg.sender);\n\n        uint256 oldBal = IERC20(ammToken).balanceOf(address(this));\n        IERC20(ammToken).safeTransfer(dst, amount);\n        uint256 newBal = IERC20(ammToken).balanceOf(address(this));\n        uint256 unstaked = oldBal - newBal;\n        balances[msg.sender] -= unstaked;\n        totalStaked -= unstaked;\n        emit AmmTokenUnstaked(msg.sender, amount);\n    }\n\n    function globalCheckpoint() public override returns (bool) {\n        if (terminated) {\n            return false;\n        }\n        // Update the integral of total token supply for the pool\n        uint256 timeElapsed = block.timestamp - lastUpdate;\n        if (totalStaked > 0) {\n            stakedIntegral += (currentInflationRate * timeElapsed).divDown(totalStaked);\n        }\n        lastUpdate = block.timestamp;\n        return true;\n    }\n\n    function _executeInflationRateUpdate() internal {\n        if (block.timestamp >= lastInflationRateDecay + INFLATION_RATE_PERIOD) {\n            currentInflationRate = currentInflationRate.mulDown(INFLATION_RATE_DECAY);\n            lastInflationRateDecay = block.timestamp;\n        }\n    }\n\n    function _userCheckpoint(address user) internal {\n        globalCheckpoint();\n        uint256 claimableAdded = balances[user].mulDown(stakedIntegral - accountAccruals[user]);\n        accountShares[user] += claimableAdded;\n        totalClaimable += claimableAdded;\n        accountAccruals[user] = stakedIntegral;\n    }\n}\n","sourcePath":"contracts/tokenomics/AmmStaker.sol","type":"contract","deployment":{"address":"0xC67e9Cdf599369130DD0841Ee5CB8eBF9BB661C4","chainid":"1","blockHeight":14535257}}