{"abi":[{"inputs":[{"internalType":"address","name":"_controller","type":"address"}],"stateMutability":"nonpayable","type":"constructor","name":"constructor"},{"inputs":[{"internalType":"address","name":"_curvePool","type":"address"},{"internalType":"address","name":"_conicPool","type":"address"}],"name":"claimEarnings","outputs":[],"stateMutability":"nonpayable","type":"function"},{"inputs":[],"name":"cliffThreshold","outputs":[{"internalType":"uint256","name":"","type":"uint256"}],"stateMutability":"view","type":"function"},{"inputs":[{"internalType":"uint256","name":"crvAmount","type":"uint256"}],"name":"computeClaimableConvex","outputs":[{"internalType":"uint256","name":"","type":"uint256"}],"stateMutability":"view","type":"function"},{"inputs":[{"internalType":"uint256","name":"crvAmount","type":"uint256"}],"name":"computeClaimableConvexWithCliffInfo","outputs":[{"internalType":"uint256","name":"cvxEarned","type":"uint256"},{"components":[{"internalType":"uint256","name":"currentCliff","type":"uint256"},{"internalType":"bool","name":"withinThreshold","type":"bool"}],"internalType":"struct Types.CliffInfo","name":"cliffInfo","type":"tuple"}],"stateMutability":"view","type":"function"},{"inputs":[],"name":"controller","outputs":[{"internalType":"contract IController","name":"","type":"address"}],"stateMutability":"view","type":"function"},{"inputs":[{"internalType":"address","name":"_curvePool","type":"address"},{"internalType":"uint256","name":"_amount","type":"uint256"}],"name":"deposit","outputs":[],"stateMutability":"nonpayable","type":"function"},{"inputs":[{"internalType":"address","name":"_account","type":"address"},{"internalType":"address","name":"_curvePool","type":"address"}],"name":"getCrvEarned","outputs":[{"internalType":"uint256","name":"","type":"uint256"}],"stateMutability":"view","type":"function"},{"inputs":[{"internalType":"address","name":"_account","type":"address"},{"internalType":"address[]","name":"_curvePools","type":"address[]"}],"name":"getCrvEarnedBatch","outputs":[{"internalType":"uint256","name":"","type":"uint256"}],"stateMutability":"view","type":"function"},{"inputs":[{"internalType":"address","name":"_curvePool","type":"address"}],"name":"getRewardPool","outputs":[{"internalType":"address","name":"","type":"address"}],"stateMutability":"view","type":"function"},{"inputs":[{"internalType":"uint256","name":"_cliffThreshold","type":"uint256"}],"name":"updateCliffThreshold","outputs":[],"stateMutability":"nonpayable","type":"function"},{"inputs":[{"internalType":"address","name":"_curvePool","type":"address"},{"internalType":"uint256","name":"_amount","type":"uint256"}],"name":"withdraw","outputs":[],"stateMutability":"nonpayable","type":"function"}],"bytecode":"60a060405266b1a2bc2ec5000060005534801561001b57600080fd5b5060405161113138038061113183398101604081905261003a9161004b565b6001600160a01b031660805261007b565b60006020828403121561005d57600080fd5b81516001600160a01b038116811461007457600080fd5b9392505050565b60805161106a6100c7600039600081816101b8015281816101dc0152818161038801528181610502015281816105f2015281816106f8015281816109d20152610b22015261106a6000f3fe608060405234801561001057600080fd5b50600436106100a95760003560e01c8063514a900911610071578063514a900914610118578063705e1e5514610143578063970de3811461017a578063d83350081461018d578063f3fef3a3146101a0578063f77c4791146101b357600080fd5b8063080898ca146100ae5780631fa309b0146100c3578063212f9b4f146100df578063323808cd146100f257806347e7ef2414610105575b600080fd5b6100c16100bc366004610c79565b6101da565b005b6100cc60005481565b6040519081526020015b60405180910390f35b6100cc6100ed366004610cba565b610383565b6100cc610100366004610c79565b6104ea565b6100c1610113366004610cf3565b6104fe565b61012b610126366004610d1f565b6106f4565b6040516001600160a01b0390911681526020016100d6565b610156610151366004610c79565b6107e4565b604080519283528151602080850191909152909101511515908201526060016100d6565b6100c1610188366004610cba565b610969565b6100cc61019b366004610d52565b610977565b6100c16101ae366004610cf3565b6109ce565b61012b7f000000000000000000000000000000000000000000000000000000000000000081565b7f00000000000000000000000000000000000000000000000000000000000000006001600160a01b0316638da5cb5b6040518163ffffffff1660e01b8152600401602060405180830381865afa158015610238573d6000803e3d6000fd5b505050506040513d601f19601f8201168201806040525081019061025c9190610e2c565b6001600160a01b0316336001600160a01b0316146102c15760405162461bcd60e51b815260206004820152601e60248201527f63616c6c6572206973206e6f7420676f7665726e616e63652070726f7879000060448201526064015b60405180910390fd5b670429d069189e00008111156103195760405162461bcd60e51b815260206004820152601f60248201527f6e657720636c696666207468726573686f6c6420697320746f6f20686967680060448201526064016102b8565b600054810361037e5760405162461bcd60e51b815260206004820152602b60248201527f6e657720636c696666207468726573686f6c64206d757374206265206869676860448201526a32b91037b9103637bbb2b960a91b60648201526084016102b8565b600055565b6000807f00000000000000000000000000000000000000000000000000000000000000006001600160a01b0316639f82b2176040518163ffffffff1660e01b8152600401602060405180830381865afa1580156103e4573d6000803e3d6000fd5b505050506040513d601f19601f820116820180604052508101906104089190610e2c565b60405163514a900960e01b81526001600160a01b038581166004830152919091169063514a900990602401602060405180830381865afa158015610450573d6000803e3d6000fd5b505050506040513d601f19601f820116820180604052508101906104749190610e2c565b6040516246613160e11b81526001600160a01b03868116600483015291925090821690628cc26290602401602060405180830381865afa1580156104bc573d6000803e3d6000fd5b505050506040513d601f19601f820116820180604052508101906104e09190610e49565b9150505b92915050565b6000806104f6836107e4565b509392505050565b60007f00000000000000000000000000000000000000000000000000000000000000006001600160a01b0316639f82b2176040518163ffffffff1660e01b8152600401602060405180830381865afa15801561055e573d6000803e3d6000fd5b505050506040513d601f19601f820116820180604052508101906105829190610e2c565b6040516343b55f3560e01b81526001600160a01b03858116600483015291909116906343b55f3590602401602060405180830381865afa1580156105ca573d6000803e3d6000fd5b505050506040513d601f19601f820116820180604052508101906105ee9190610e49565b90507f00000000000000000000000000000000000000000000000000000000000000006001600160a01b0316632cdacb506040518163ffffffff1660e01b8152600401602060405180830381865afa15801561064e573d6000803e3d6000fd5b505050506040513d601f19601f820116820180604052508101906106729190610e2c565b6040516321d0683360e11b81526004810183905260248101849052600160448201526001600160a01b0391909116906343a0d066906064015b6020604051808303816000875af11580156106ca573d6000803e3d6000fd5b505050506040513d601f19601f820116820180604052508101906106ee9190610e62565b50505050565b60007f00000000000000000000000000000000000000000000000000000000000000006001600160a01b0316639f82b2176040518163ffffffff1660e01b8152600401602060405180830381865afa158015610754573d6000803e3d6000fd5b505050506040513d601f19601f820116820180604052508101906107789190610e2c565b60405163514a900960e01b81526001600160a01b038481166004830152919091169063514a900990602401602060405180830381865afa1580156107c0573d6000803e3d6000fd5b505050506040513d601f19601f820116820180604052508101906104e49190610e2c565b60408051808201909152600080825260208201819052906000734e3fbd56cd56c3e72c1403e103b45db9da5b9d2b6001600160a01b03166318160ddd6040518163ffffffff1660e01b8152600401602060405180830381865afa15801561084f573d6000803e3d6000fd5b505050506040513d601f19601f820116820180604052508101906108739190610e49565b905061088969152d02c7e14af680000082610eb0565b825260006108a169152d02c7e14af680000083610ec4565b6108b59069152d02c7e14af6800000610ed8565b90506108d660005469152d02c7e14af6800000610af590919063ffffffff16565b81116108fa576001836000018181516108ef9190610eeb565b905250600160208401525b82516103e81161090f57600093505050915091565b8251600090610920906103e8610ed8565b90506103e861092f8288610efe565b6109399190610eb0565b94506000610952846a52b7d2dcc80cd2e4000000610ed8565b905080861115610960578095505b50505050915091565b6109738282610b1e565b5050565b60008060005b83518110156104f657600084828151811061099a5761099a610f15565b602002602001015190506109ae8682610383565b6109b89084610eeb565b92505080806109c690610f2b565b91505061097d565b60007f00000000000000000000000000000000000000000000000000000000000000006001600160a01b0316639f82b2176040518163ffffffff1660e01b8152600401602060405180830381865afa158015610a2e573d6000803e3d6000fd5b505050506040513d601f19601f82011682018060405250810190610a529190610e2c565b60405163514a900960e01b81526001600160a01b038581166004830152919091169063514a900990602401602060405180830381865afa158015610a9a573d6000803e3d6000fd5b505050506040513d601f19601f82011682018060405250810190610abe9190610e2c565b604051636197390160e11b815260048101849052600060248201529091506001600160a01b0382169063c32e7202906044016106ab565b6000610b036012600a611028565b610b0d8385610efe565b610b179190610eb0565b9392505050565b60007f00000000000000000000000000000000000000000000000000000000000000006001600160a01b0316639f82b2176040518163ffffffff1660e01b8152600401602060405180830381865afa158015610b7e573d6000803e3d6000fd5b505050506040513d601f19601f82011682018060405250810190610ba29190610e2c565b60405163514a900960e01b81526001600160a01b038581166004830152919091169063514a900990602401602060405180830381865afa158015610bea573d6000803e3d6000fd5b505050506040513d601f19601f82011682018060405250810190610c0e9190610e2c565b604051637050ccd960e01b81526001600160a01b0384811660048301526001602483015291925090821690637050ccd990604401600060405180830381600087803b158015610c5c57600080fd5b505af1158015610c70573d6000803e3d6000fd5b50505050505050565b600060208284031215610c8b57600080fd5b5035919050565b6001600160a01b0381168114610ca757600080fd5b50565b8035610cb581610c92565b919050565b60008060408385031215610ccd57600080fd5b8235610cd881610c92565b91506020830135610ce881610c92565b809150509250929050565b60008060408385031215610d0657600080fd5b8235610d1181610c92565b946020939093013593505050565b600060208284031215610d3157600080fd5b8135610b1781610c92565b634e487b7160e01b600052604160045260246000fd5b60008060408385031215610d6557600080fd5b8235610d7081610c92565b915060208381013567ffffffffffffffff80821115610d8e57600080fd5b818601915086601f830112610da257600080fd5b813581811115610db457610db4610d3c565b8060051b604051601f19603f83011681018181108582111715610dd957610dd9610d3c565b604052918252848201925083810185019189831115610df757600080fd5b938501935b82851015610e1c57610e0d85610caa565b84529385019392850192610dfc565b8096505050505050509250929050565b600060208284031215610e3e57600080fd5b8151610b1781610c92565b600060208284031215610e5b57600080fd5b5051919050565b600060208284031215610e7457600080fd5b81518015158114610b1757600080fd5b634e487b7160e01b600052601260045260246000fd5b634e487b7160e01b600052601160045260246000fd5b600082610ebf57610ebf610e84565b500490565b600082610ed357610ed3610e84565b500690565b818103818111156104e4576104e4610e9a565b808201808211156104e4576104e4610e9a565b80820281158282048414176104e4576104e4610e9a565b634e487b7160e01b600052603260045260246000fd5b600060018201610f3d57610f3d610e9a565b5060010190565b600181815b80851115610f7f578160001904821115610f6557610f65610e9a565b80851615610f7257918102915b93841c9390800290610f49565b509250929050565b600082610f96575060016104e4565b81610fa3575060006104e4565b8160018114610fb95760028114610fc357610fdf565b60019150506104e4565b60ff841115610fd457610fd4610e9a565b50506001821b6104e4565b5060208310610133831016604e8410600b8410161715611002575081810a6104e4565b61100c8383610f44565b806000190482111561102057611020610e9a565b029392505050565b6000610b178383610f8756fea2646970667358221220d3a87fef64eb4ab1cd665b8dca7b4784b14ff527c796f8f0715e719df1a4bac164736f6c63430008110033","bytecodeSha1":"f84822d1ff3b7a28c86141147894ac13bf402fba","compiler":{"evm_version":"london","optimizer":{"enabled":true,"runs":200},"version":"0.8.17+commit.8df45f5f"},"contractName":"ConvexHandler","language":"Solidity","natspec":{"kind":"dev","methods":{"claimEarnings(address,address)":{"notice":"Claims CRV, CVX and extra rewards from Convex on behalf of a Conic pool.","params":{"_conicPool":"Conic pool for which rewards will be claimed.","_curvePool":"Curve pool from which LP tokens have been deposited on Convex."}},"computeClaimableConvexWithCliffInfo(uint256)":{"details":"Not easily computable from the CVX token contract","notice":"Computes how much CVX can be claimed for an amount of CRV earned","params":{"crvAmount":"Amount of CRV for which CVX will be minted pro rata."},"returns":{"cliffInfo":"information about the current Convex cliff","cvxEarned":"CVX amount that would be minted."}},"deposit(address,uint256)":{"notice":"Deposits a Curve LP token on Convex and stakes the Convex Curve LP token in the respective CRV rewards contract on Convex.","params":{"_amount":"Amount of Curve LP tokens to deposit","_curvePool":"Curve Pool for which LP tokens should be deposited"}},"getCrvEarned(address,address)":{"notice":"Gets total amount of CRV earned by an account from staking an amount of Curve LP tokens via Convex for a single Curve pool.","params":{"_account":"Account which staked an amount of Curve LP tokens.","_curvePool":"Curve pool for which earned CRV should be computed."},"returns":{"_0":"Total amount of CRV earned."}},"getCrvEarnedBatch(address,address[])":{"notice":"Gets total amount of CRV earned by an account from staking multiple Curve LP tokens via Convex.","params":{"_account":"Account which staked Curve LP tokens.","_curvePools":"List of Curve pools for which earned CRV should be computed."},"returns":{"_0":"Total amount of CRV earned."}},"withdraw(address,uint256)":{"details":"Curve LP tokens get unstaked from the Convex CRV rewards contract.","notice":"Withdraws Curve LP tokens from Convex.","params":{"_amount":"Amount of Curve LP tokens to withdraw.","_curvePool":"Curve pool for which LP tokens should be withdrawn."}}},"version":1},"opcodes":"PUSH1 0x80 PUSH1 0x40 MSTORE CALLVALUE DUP1 ISZERO PUSH2 0x10 JUMPI PUSH1 0x0 DUP1 REVERT JUMPDEST POP PUSH1 0x4 CALLDATASIZE LT PUSH2 0xA9 JUMPI PUSH1 0x0 CALLDATALOAD PUSH1 0xE0 SHR DUP1 PUSH4 0x514A9009 GT PUSH2 0x71 JUMPI DUP1 PUSH4 0x514A9009 EQ PUSH2 0x118 JUMPI DUP1 PUSH4 0x705E1E55 EQ PUSH2 0x143 JUMPI DUP1 PUSH4 0x970DE381 EQ PUSH2 0x17A JUMPI DUP1 PUSH4 0xD8335008 EQ PUSH2 0x18D JUMPI DUP1 PUSH4 0xF3FEF3A3 EQ PUSH2 0x1A0 JUMPI DUP1 PUSH4 0xF77C4791 EQ PUSH2 0x1B3 JUMPI PUSH1 0x0 DUP1 REVERT JUMPDEST DUP1 PUSH4 0x80898CA EQ PUSH2 0xAE JUMPI DUP1 PUSH4 0x1FA309B0 EQ PUSH2 0xC3 JUMPI DUP1 PUSH4 0x212F9B4F EQ PUSH2 0xDF JUMPI DUP1 PUSH4 0x323808CD EQ PUSH2 0xF2 JUMPI DUP1 PUSH4 0x47E7EF24 EQ PUSH2 0x105 JUMPI JUMPDEST PUSH1 0x0 DUP1 REVERT JUMPDEST PUSH2 0xC1 PUSH2 0xBC CALLDATASIZE PUSH1 0x4 PUSH2 0xC79 JUMP JUMPDEST PUSH2 0x1DA JUMP JUMPDEST STOP JUMPDEST PUSH2 0xCC PUSH1 0x0 SLOAD DUP2 JUMP JUMPDEST PUSH1 0x40 MLOAD SWAP1 DUP2 MSTORE PUSH1 0x20 ADD JUMPDEST PUSH1 0x40 MLOAD DUP1 SWAP2 SUB SWAP1 RETURN JUMPDEST PUSH2 0xCC PUSH2 0xED CALLDATASIZE PUSH1 0x4 PUSH2 0xCBA JUMP JUMPDEST PUSH2 0x383 JUMP JUMPDEST PUSH2 0xCC PUSH2 0x100 CALLDATASIZE PUSH1 0x4 PUSH2 0xC79 JUMP JUMPDEST PUSH2 0x4EA JUMP JUMPDEST PUSH2 0xC1 PUSH2 0x113 CALLDATASIZE PUSH1 0x4 PUSH2 0xCF3 JUMP JUMPDEST PUSH2 0x4FE JUMP JUMPDEST PUSH2 0x12B PUSH2 0x126 CALLDATASIZE PUSH1 0x4 PUSH2 0xD1F JUMP JUMPDEST PUSH2 0x6F4 JUMP JUMPDEST PUSH1 0x40 MLOAD PUSH1 0x1 PUSH1 0x1 PUSH1 0xA0 SHL SUB SWAP1 SWAP2 AND DUP2 MSTORE PUSH1 0x20 ADD PUSH2 0xD6 JUMP JUMPDEST PUSH2 0x156 PUSH2 0x151 CALLDATASIZE PUSH1 0x4 PUSH2 0xC79 JUMP JUMPDEST PUSH2 0x7E4 JUMP JUMPDEST PUSH1 0x40 DUP1 MLOAD SWAP3 DUP4 MSTORE DUP2 MLOAD PUSH1 0x20 DUP1 DUP6 ADD SWAP2 SWAP1 SWAP2 MSTORE SWAP1 SWAP2 ADD MLOAD ISZERO ISZERO SWAP1 DUP3 ADD MSTORE PUSH1 0x60 ADD PUSH2 0xD6 JUMP JUMPDEST PUSH2 0xC1 PUSH2 0x188 CALLDATASIZE PUSH1 0x4 PUSH2 0xCBA JUMP JUMPDEST PUSH2 0x969 JUMP JUMPDEST PUSH2 0xCC PUSH2 0x19B CALLDATASIZE PUSH1 0x4 PUSH2 0xD52 JUMP JUMPDEST PUSH2 0x977 JUMP JUMPDEST PUSH2 0xC1 PUSH2 0x1AE CALLDATASIZE PUSH1 0x4 PUSH2 0xCF3 JUMP JUMPDEST PUSH2 0x9CE JUMP JUMPDEST PUSH2 0x12B PUSH32 0x0 DUP2 JUMP JUMPDEST PUSH32 0x0 PUSH1 0x1 PUSH1 0x1 PUSH1 0xA0 SHL SUB AND PUSH4 0x8DA5CB5B PUSH1 0x40 MLOAD DUP2 PUSH4 0xFFFFFFFF AND PUSH1 0xE0 SHL DUP2 MSTORE PUSH1 0x4 ADD PUSH1 0x20 PUSH1 0x40 MLOAD DUP1 DUP4 SUB DUP2 DUP7 GAS STATICCALL ISZERO DUP1 ISZERO PUSH2 0x238 JUMPI RETURNDATASIZE PUSH1 0x0 DUP1 RETURNDATACOPY RETURNDATASIZE PUSH1 0x0 REVERT JUMPDEST POP POP POP POP PUSH1 0x40 MLOAD RETURNDATASIZE PUSH1 0x1F NOT PUSH1 0x1F DUP3 ADD AND DUP3 ADD DUP1 PUSH1 0x40 MSTORE POP DUP2 ADD SWAP1 PUSH2 0x25C SWAP2 SWAP1 PUSH2 0xE2C JUMP JUMPDEST PUSH1 0x1 PUSH1 0x1 PUSH1 0xA0 SHL SUB AND CALLER PUSH1 0x1 PUSH1 0x1 PUSH1 0xA0 SHL SUB AND EQ PUSH2 0x2C1 JUMPI PUSH1 0x40 MLOAD PUSH3 0x461BCD PUSH1 0xE5 SHL DUP2 MSTORE PUSH1 0x20 PUSH1 0x4 DUP3 ADD MSTORE PUSH1 0x1E PUSH1 0x24 DUP3 ADD MSTORE PUSH32 0x63616C6C6572206973206E6F7420676F7665726E616E63652070726F78790000 PUSH1 0x44 DUP3 ADD MSTORE PUSH1 0x64 ADD JUMPDEST PUSH1 0x40 MLOAD DUP1 SWAP2 SUB SWAP1 REVERT JUMPDEST PUSH8 0x429D069189E0000 DUP2 GT ISZERO PUSH2 0x319 JUMPI PUSH1 0x40 MLOAD PUSH3 0x461BCD PUSH1 0xE5 SHL DUP2 MSTORE PUSH1 0x20 PUSH1 0x4 DUP3 ADD MSTORE PUSH1 0x1F PUSH1 0x24 DUP3 ADD MSTORE PUSH32 0x6E657720636C696666207468726573686F6C6420697320746F6F206869676800 PUSH1 0x44 DUP3 ADD MSTORE PUSH1 0x64 ADD PUSH2 0x2B8 JUMP JUMPDEST PUSH1 0x0 SLOAD DUP2 SUB PUSH2 0x37E JUMPI PUSH1 0x40 MLOAD PUSH3 0x461BCD PUSH1 0xE5 SHL DUP2 MSTORE PUSH1 0x20 PUSH1 0x4 DUP3 ADD MSTORE PUSH1 0x2B PUSH1 0x24 DUP3 ADD MSTORE PUSH32 0x6E657720636C696666207468726573686F6C64206D7573742062652068696768 PUSH1 0x44 DUP3 ADD MSTORE PUSH11 0x32B91037B9103637BBB2B9 PUSH1 0xA9 SHL PUSH1 0x64 DUP3 ADD MSTORE PUSH1 0x84 ADD PUSH2 0x2B8 JUMP JUMPDEST PUSH1 0x0 SSTORE JUMP JUMPDEST PUSH1 0x0 DUP1 PUSH32 0x0 PUSH1 0x1 PUSH1 0x1 PUSH1 0xA0 SHL SUB AND PUSH4 0x9F82B217 PUSH1 0x40 MLOAD DUP2 PUSH4 0xFFFFFFFF AND PUSH1 0xE0 SHL DUP2 MSTORE PUSH1 0x4 ADD PUSH1 0x20 PUSH1 0x40 MLOAD DUP1 DUP4 SUB DUP2 DUP7 GAS STATICCALL ISZERO DUP1 ISZERO PUSH2 0x3E4 JUMPI RETURNDATASIZE PUSH1 0x0 DUP1 RETURNDATACOPY RETURNDATASIZE PUSH1 0x0 REVERT JUMPDEST POP POP POP POP PUSH1 0x40 MLOAD RETURNDATASIZE PUSH1 0x1F NOT PUSH1 0x1F DUP3 ADD AND DUP3 ADD DUP1 PUSH1 0x40 MSTORE POP DUP2 ADD SWAP1 PUSH2 0x408 SWAP2 SWAP1 PUSH2 0xE2C JUMP JUMPDEST PUSH1 0x40 MLOAD PUSH4 0x514A9009 PUSH1 0xE0 SHL DUP2 MSTORE PUSH1 0x1 PUSH1 0x1 PUSH1 0xA0 SHL SUB DUP6 DUP2 AND PUSH1 0x4 DUP4 ADD MSTORE SWAP2 SWAP1 SWAP2 AND SWAP1 PUSH4 0x514A9009 SWAP1 PUSH1 0x24 ADD PUSH1 0x20 PUSH1 0x40 MLOAD DUP1 DUP4 SUB DUP2 DUP7 GAS STATICCALL ISZERO DUP1 ISZERO PUSH2 0x450 JUMPI RETURNDATASIZE PUSH1 0x0 DUP1 RETURNDATACOPY RETURNDATASIZE PUSH1 0x0 REVERT JUMPDEST POP POP POP POP PUSH1 0x40 MLOAD RETURNDATASIZE PUSH1 0x1F NOT PUSH1 0x1F DUP3 ADD AND DUP3 ADD DUP1 PUSH1 0x40 MSTORE POP DUP2 ADD SWAP1 PUSH2 0x474 SWAP2 SWAP1 PUSH2 0xE2C JUMP JUMPDEST PUSH1 0x40 MLOAD PUSH3 0x466131 PUSH1 0xE1 SHL DUP2 MSTORE PUSH1 0x1 PUSH1 0x1 PUSH1 0xA0 SHL SUB DUP7 DUP2 AND PUSH1 0x4 DUP4 ADD MSTORE SWAP2 SWAP3 POP SWAP1 DUP3 AND SWAP1 PUSH3 0x8CC262 SWAP1 PUSH1 0x24 ADD PUSH1 0x20 PUSH1 0x40 MLOAD DUP1 DUP4 SUB DUP2 DUP7 GAS STATICCALL ISZERO DUP1 ISZERO PUSH2 0x4BC JUMPI RETURNDATASIZE PUSH1 0x0 DUP1 RETURNDATACOPY RETURNDATASIZE PUSH1 0x0 REVERT JUMPDEST POP POP POP POP PUSH1 0x40 MLOAD RETURNDATASIZE PUSH1 0x1F NOT PUSH1 0x1F DUP3 ADD AND DUP3 ADD DUP1 PUSH1 0x40 MSTORE POP DUP2 ADD SWAP1 PUSH2 0x4E0 SWAP2 SWAP1 PUSH2 0xE49 JUMP JUMPDEST SWAP2 POP POP JUMPDEST SWAP3 SWAP2 POP POP JUMP JUMPDEST PUSH1 0x0 DUP1 PUSH2 0x4F6 DUP4 PUSH2 0x7E4 JUMP JUMPDEST POP SWAP4 SWAP3 POP POP POP JUMP JUMPDEST PUSH1 0x0 PUSH32 0x0 PUSH1 0x1 PUSH1 0x1 PUSH1 0xA0 SHL SUB AND PUSH4 0x9F82B217 PUSH1 0x40 MLOAD DUP2 PUSH4 0xFFFFFFFF AND PUSH1 0xE0 SHL DUP2 MSTORE PUSH1 0x4 ADD PUSH1 0x20 PUSH1 0x40 MLOAD DUP1 DUP4 SUB DUP2 DUP7 GAS STATICCALL ISZERO DUP1 ISZERO PUSH2 0x55E JUMPI RETURNDATASIZE PUSH1 0x0 DUP1 RETURNDATACOPY RETURNDATASIZE PUSH1 0x0 REVERT JUMPDEST POP POP POP POP PUSH1 0x40 MLOAD RETURNDATASIZE PUSH1 0x1F NOT PUSH1 0x1F DUP3 ADD AND DUP3 ADD DUP1 PUSH1 0x40 MSTORE POP DUP2 ADD SWAP1 PUSH2 0x582 SWAP2 SWAP1 PUSH2 0xE2C JUMP JUMPDEST PUSH1 0x40 MLOAD PUSH4 0x43B55F35 PUSH1 0xE0 SHL DUP2 MSTORE PUSH1 0x1 PUSH1 0x1 PUSH1 0xA0 SHL SUB DUP6 DUP2 AND PUSH1 0x4 DUP4 ADD MSTORE SWAP2 SWAP1 SWAP2 AND SWAP1 PUSH4 0x43B55F35 SWAP1 PUSH1 0x24 ADD PUSH1 0x20 PUSH1 0x40 MLOAD DUP1 DUP4 SUB DUP2 DUP7 GAS STATICCALL ISZERO DUP1 ISZERO PUSH2 0x5CA JUMPI RETURNDATASIZE PUSH1 0x0 DUP1 RETURNDATACOPY RETURNDATASIZE PUSH1 0x0 REVERT JUMPDEST POP POP POP POP PUSH1 0x40 MLOAD RETURNDATASIZE PUSH1 0x1F NOT PUSH1 0x1F DUP3 ADD AND DUP3 ADD DUP1 PUSH1 0x40 MSTORE POP DUP2 ADD SWAP1 PUSH2 0x5EE SWAP2 SWAP1 PUSH2 0xE49 JUMP JUMPDEST SWAP1 POP PUSH32 0x0 PUSH1 0x1 PUSH1 0x1 PUSH1 0xA0 SHL SUB AND PUSH4 0x2CDACB50 PUSH1 0x40 MLOAD DUP2 PUSH4 0xFFFFFFFF AND PUSH1 0xE0 SHL DUP2 MSTORE PUSH1 0x4 ADD PUSH1 0x20 PUSH1 0x40 MLOAD DUP1 DUP4 SUB DUP2 DUP7 GAS STATICCALL ISZERO DUP1 ISZERO PUSH2 0x64E JUMPI RETURNDATASIZE PUSH1 0x0 DUP1 RETURNDATACOPY RETURNDATASIZE PUSH1 0x0 REVERT JUMPDEST POP POP POP POP PUSH1 0x40 MLOAD RETURNDATASIZE PUSH1 0x1F NOT PUSH1 0x1F DUP3 ADD AND DUP3 ADD DUP1 PUSH1 0x40 MSTORE POP DUP2 ADD SWAP1 PUSH2 0x672 SWAP2 SWAP1 PUSH2 0xE2C JUMP JUMPDEST PUSH1 0x40 MLOAD PUSH4 0x21D06833 PUSH1 0xE1 SHL DUP2 MSTORE PUSH1 0x4 DUP2 ADD DUP4 SWAP1 MSTORE PUSH1 0x24 DUP2 ADD DUP5 SWAP1 MSTORE PUSH1 0x1 PUSH1 0x44 DUP3 ADD MSTORE PUSH1 0x1 PUSH1 0x1 PUSH1 0xA0 SHL SUB SWAP2 SWAP1 SWAP2 AND SWAP1 PUSH4 0x43A0D066 SWAP1 PUSH1 0x64 ADD JUMPDEST PUSH1 0x20 PUSH1 0x40 MLOAD DUP1 DUP4 SUB DUP2 PUSH1 0x0 DUP8 GAS CALL ISZERO DUP1 ISZERO PUSH2 0x6CA JUMPI RETURNDATASIZE PUSH1 0x0 DUP1 RETURNDATACOPY RETURNDATASIZE PUSH1 0x0 REVERT JUMPDEST POP POP POP POP PUSH1 0x40 MLOAD RETURNDATASIZE PUSH1 0x1F NOT PUSH1 0x1F DUP3 ADD AND DUP3 ADD DUP1 PUSH1 0x40 MSTORE POP DUP2 ADD SWAP1 PUSH2 0x6EE SWAP2 SWAP1 PUSH2 0xE62 JUMP JUMPDEST POP POP POP POP JUMP JUMPDEST PUSH1 0x0 PUSH32 0x0 PUSH1 0x1 PUSH1 0x1 PUSH1 0xA0 SHL SUB AND PUSH4 0x9F82B217 PUSH1 0x40 MLOAD DUP2 PUSH4 0xFFFFFFFF AND PUSH1 0xE0 SHL DUP2 MSTORE PUSH1 0x4 ADD PUSH1 0x20 PUSH1 0x40 MLOAD DUP1 DUP4 SUB DUP2 DUP7 GAS STATICCALL ISZERO DUP1 ISZERO PUSH2 0x754 JUMPI RETURNDATASIZE PUSH1 0x0 DUP1 RETURNDATACOPY RETURNDATASIZE PUSH1 0x0 REVERT JUMPDEST POP POP POP POP PUSH1 0x40 MLOAD RETURNDATASIZE PUSH1 0x1F NOT PUSH1 0x1F DUP3 ADD AND DUP3 ADD DUP1 PUSH1 0x40 MSTORE POP DUP2 ADD SWAP1 PUSH2 0x778 SWAP2 SWAP1 PUSH2 0xE2C JUMP JUMPDEST PUSH1 0x40 MLOAD PUSH4 0x514A9009 PUSH1 0xE0 SHL DUP2 MSTORE PUSH1 0x1 PUSH1 0x1 PUSH1 0xA0 SHL SUB DUP5 DUP2 AND PUSH1 0x4 DUP4 ADD MSTORE SWAP2 SWAP1 SWAP2 AND SWAP1 PUSH4 0x514A9009 SWAP1 PUSH1 0x24 ADD PUSH1 0x20 PUSH1 0x40 MLOAD DUP1 DUP4 SUB DUP2 DUP7 GAS STATICCALL ISZERO DUP1 ISZERO PUSH2 0x7C0 JUMPI RETURNDATASIZE PUSH1 0x0 DUP1 RETURNDATACOPY RETURNDATASIZE PUSH1 0x0 REVERT JUMPDEST POP POP POP POP PUSH1 0x40 MLOAD RETURNDATASIZE PUSH1 0x1F NOT PUSH1 0x1F DUP3 ADD AND DUP3 ADD DUP1 PUSH1 0x40 MSTORE POP DUP2 ADD SWAP1 PUSH2 0x4E4 SWAP2 SWAP1 PUSH2 0xE2C JUMP JUMPDEST PUSH1 0x40 DUP1 MLOAD DUP1 DUP3 ADD SWAP1 SWAP2 MSTORE PUSH1 0x0 DUP1 DUP3 MSTORE PUSH1 0x20 DUP3 ADD DUP2 SWAP1 MSTORE SWAP1 PUSH1 0x0 PUSH20 0x4E3FBD56CD56C3E72C1403E103B45DB9DA5B9D2B PUSH1 0x1 PUSH1 0x1 PUSH1 0xA0 SHL SUB AND PUSH4 0x18160DDD PUSH1 0x40 MLOAD DUP2 PUSH4 0xFFFFFFFF AND PUSH1 0xE0 SHL DUP2 MSTORE PUSH1 0x4 ADD PUSH1 0x20 PUSH1 0x40 MLOAD DUP1 DUP4 SUB DUP2 DUP7 GAS STATICCALL ISZERO DUP1 ISZERO PUSH2 0x84F JUMPI RETURNDATASIZE PUSH1 0x0 DUP1 RETURNDATACOPY RETURNDATASIZE PUSH1 0x0 REVERT JUMPDEST POP POP POP POP PUSH1 0x40 MLOAD RETURNDATASIZE PUSH1 0x1F NOT PUSH1 0x1F DUP3 ADD AND DUP3 ADD DUP1 PUSH1 0x40 MSTORE POP DUP2 ADD SWAP1 PUSH2 0x873 SWAP2 SWAP1 PUSH2 0xE49 JUMP JUMPDEST SWAP1 POP PUSH2 0x889 PUSH10 0x152D02C7E14AF6800000 DUP3 PUSH2 0xEB0 JUMP JUMPDEST DUP3 MSTORE PUSH1 0x0 PUSH2 0x8A1 PUSH10 0x152D02C7E14AF6800000 DUP4 PUSH2 0xEC4 JUMP JUMPDEST PUSH2 0x8B5 SWAP1 PUSH10 0x152D02C7E14AF6800000 PUSH2 0xED8 JUMP JUMPDEST SWAP1 POP PUSH2 0x8D6 PUSH1 0x0 SLOAD PUSH10 0x152D02C7E14AF6800000 PUSH2 0xAF5 SWAP1 SWAP2 SWAP1 PUSH4 0xFFFFFFFF AND JUMP JUMPDEST DUP2 GT PUSH2 0x8FA JUMPI PUSH1 0x1 DUP4 PUSH1 0x0 ADD DUP2 DUP2 MLOAD PUSH2 0x8EF SWAP2 SWAP1 PUSH2 0xEEB JUMP JUMPDEST SWAP1 MSTORE POP PUSH1 0x1 PUSH1 0x20 DUP5 ADD MSTORE JUMPDEST DUP3 MLOAD PUSH2 0x3E8 GT PUSH2 0x90F JUMPI PUSH1 0x0 SWAP4 POP POP POP SWAP2 POP SWAP2 JUMP JUMPDEST DUP3 MLOAD PUSH1 0x0 SWAP1 PUSH2 0x920 SWAP1 PUSH2 0x3E8 PUSH2 0xED8 JUMP JUMPDEST SWAP1 POP PUSH2 0x3E8 PUSH2 0x92F DUP3 DUP9 PUSH2 0xEFE JUMP JUMPDEST PUSH2 0x939 SWAP2 SWAP1 PUSH2 0xEB0 JUMP JUMPDEST SWAP5 POP PUSH1 0x0 PUSH2 0x952 DUP5 PUSH11 0x52B7D2DCC80CD2E4000000 PUSH2 0xED8 JUMP JUMPDEST SWAP1 POP DUP1 DUP7 GT ISZERO PUSH2 0x960 JUMPI DUP1 SWAP6 POP JUMPDEST POP POP POP POP SWAP2 POP SWAP2 JUMP JUMPDEST PUSH2 0x973 DUP3 DUP3 PUSH2 0xB1E JUMP JUMPDEST POP POP JUMP JUMPDEST PUSH1 0x0 DUP1 PUSH1 0x0 JUMPDEST DUP4 MLOAD DUP2 LT ISZERO PUSH2 0x4F6 JUMPI PUSH1 0x0 DUP5 DUP3 DUP2 MLOAD DUP2 LT PUSH2 0x99A JUMPI PUSH2 0x99A PUSH2 0xF15 JUMP JUMPDEST PUSH1 0x20 MUL PUSH1 0x20 ADD ADD MLOAD SWAP1 POP PUSH2 0x9AE DUP7 DUP3 PUSH2 0x383 JUMP JUMPDEST PUSH2 0x9B8 SWAP1 DUP5 PUSH2 0xEEB JUMP JUMPDEST SWAP3 POP POP DUP1 DUP1 PUSH2 0x9C6 SWAP1 PUSH2 0xF2B JUMP JUMPDEST SWAP2 POP POP PUSH2 0x97D JUMP JUMPDEST PUSH1 0x0 PUSH32 0x0 PUSH1 0x1 PUSH1 0x1 PUSH1 0xA0 SHL SUB AND PUSH4 0x9F82B217 PUSH1 0x40 MLOAD DUP2 PUSH4 0xFFFFFFFF AND PUSH1 0xE0 SHL DUP2 MSTORE PUSH1 0x4 ADD PUSH1 0x20 PUSH1 0x40 MLOAD DUP1 DUP4 SUB DUP2 DUP7 GAS STATICCALL ISZERO DUP1 ISZERO PUSH2 0xA2E JUMPI RETURNDATASIZE PUSH1 0x0 DUP1 RETURNDATACOPY RETURNDATASIZE PUSH1 0x0 REVERT JUMPDEST POP POP POP POP PUSH1 0x40 MLOAD RETURNDATASIZE PUSH1 0x1F NOT PUSH1 0x1F DUP3 ADD AND DUP3 ADD DUP1 PUSH1 0x40 MSTORE POP DUP2 ADD SWAP1 PUSH2 0xA52 SWAP2 SWAP1 PUSH2 0xE2C JUMP JUMPDEST PUSH1 0x40 MLOAD PUSH4 0x514A9009 PUSH1 0xE0 SHL DUP2 MSTORE PUSH1 0x1 PUSH1 0x1 PUSH1 0xA0 SHL SUB DUP6 DUP2 AND PUSH1 0x4 DUP4 ADD MSTORE SWAP2 SWAP1 SWAP2 AND SWAP1 PUSH4 0x514A9009 SWAP1 PUSH1 0x24 ADD PUSH1 0x20 PUSH1 0x40 MLOAD DUP1 DUP4 SUB DUP2 DUP7 GAS STATICCALL ISZERO DUP1 ISZERO PUSH2 0xA9A JUMPI RETURNDATASIZE PUSH1 0x0 DUP1 RETURNDATACOPY RETURNDATASIZE PUSH1 0x0 REVERT JUMPDEST POP POP POP POP PUSH1 0x40 MLOAD RETURNDATASIZE PUSH1 0x1F NOT PUSH1 0x1F DUP3 ADD AND DUP3 ADD DUP1 PUSH1 0x40 MSTORE POP DUP2 ADD SWAP1 PUSH2 0xABE SWAP2 SWAP1 PUSH2 0xE2C JUMP JUMPDEST PUSH1 0x40 MLOAD PUSH4 0x61973901 PUSH1 0xE1 SHL DUP2 MSTORE PUSH1 0x4 DUP2 ADD DUP5 SWAP1 MSTORE PUSH1 0x0 PUSH1 0x24 DUP3 ADD MSTORE SWAP1 SWAP2 POP PUSH1 0x1 PUSH1 0x1 PUSH1 0xA0 SHL SUB DUP3 AND SWAP1 PUSH4 0xC32E7202 SWAP1 PUSH1 0x44 ADD PUSH2 0x6AB JUMP JUMPDEST PUSH1 0x0 PUSH2 0xB03 PUSH1 0x12 PUSH1 0xA PUSH2 0x1028 JUMP JUMPDEST PUSH2 0xB0D DUP4 DUP6 PUSH2 0xEFE JUMP JUMPDEST PUSH2 0xB17 SWAP2 SWAP1 PUSH2 0xEB0 JUMP JUMPDEST SWAP4 SWAP3 POP POP POP JUMP JUMPDEST PUSH1 0x0 PUSH32 0x0 PUSH1 0x1 PUSH1 0x1 PUSH1 0xA0 SHL SUB AND PUSH4 0x9F82B217 PUSH1 0x40 MLOAD DUP2 PUSH4 0xFFFFFFFF AND PUSH1 0xE0 SHL DUP2 MSTORE PUSH1 0x4 ADD PUSH1 0x20 PUSH1 0x40 MLOAD DUP1 DUP4 SUB DUP2 DUP7 GAS STATICCALL ISZERO DUP1 ISZERO PUSH2 0xB7E JUMPI RETURNDATASIZE PUSH1 0x0 DUP1 RETURNDATACOPY RETURNDATASIZE PUSH1 0x0 REVERT JUMPDEST POP POP POP POP PUSH1 0x40 MLOAD RETURNDATASIZE PUSH1 0x1F NOT PUSH1 0x1F DUP3 ADD AND DUP3 ADD DUP1 PUSH1 0x40 MSTORE POP DUP2 ADD SWAP1 PUSH2 0xBA2 SWAP2 SWAP1 PUSH2 0xE2C JUMP JUMPDEST PUSH1 0x40 MLOAD PUSH4 0x514A9009 PUSH1 0xE0 SHL DUP2 MSTORE PUSH1 0x1 PUSH1 0x1 PUSH1 0xA0 SHL SUB DUP6 DUP2 AND PUSH1 0x4 DUP4 ADD MSTORE SWAP2 SWAP1 SWAP2 AND SWAP1 PUSH4 0x514A9009 SWAP1 PUSH1 0x24 ADD PUSH1 0x20 PUSH1 0x40 MLOAD DUP1 DUP4 SUB DUP2 DUP7 GAS STATICCALL ISZERO DUP1 ISZERO PUSH2 0xBEA JUMPI RETURNDATASIZE PUSH1 0x0 DUP1 RETURNDATACOPY RETURNDATASIZE PUSH1 0x0 REVERT JUMPDEST POP POP POP POP PUSH1 0x40 MLOAD RETURNDATASIZE PUSH1 0x1F NOT PUSH1 0x1F DUP3 ADD AND DUP3 ADD DUP1 PUSH1 0x40 MSTORE POP DUP2 ADD SWAP1 PUSH2 0xC0E SWAP2 SWAP1 PUSH2 0xE2C JUMP JUMPDEST PUSH1 0x40 MLOAD PUSH4 0x7050CCD9 PUSH1 0xE0 SHL DUP2 MSTORE PUSH1 0x1 PUSH1 0x1 PUSH1 0xA0 SHL SUB DUP5 DUP2 AND PUSH1 0x4 DUP4 ADD MSTORE PUSH1 0x1 PUSH1 0x24 DUP4 ADD MSTORE SWAP2 SWAP3 POP SWAP1 DUP3 AND SWAP1 PUSH4 0x7050CCD9 SWAP1 PUSH1 0x44 ADD PUSH1 0x0 PUSH1 0x40 MLOAD DUP1 DUP4 SUB DUP2 PUSH1 0x0 DUP8 DUP1 EXTCODESIZE ISZERO DUP1 ISZERO PUSH2 0xC5C JUMPI PUSH1 0x0 DUP1 REVERT JUMPDEST POP GAS CALL ISZERO DUP1 ISZERO PUSH2 0xC70 JUMPI RETURNDATASIZE PUSH1 0x0 DUP1 RETURNDATACOPY RETURNDATASIZE PUSH1 0x0 REVERT JUMPDEST POP POP POP POP POP POP POP JUMP JUMPDEST PUSH1 0x0 PUSH1 0x20 DUP3 DUP5 SUB SLT ISZERO PUSH2 0xC8B JUMPI PUSH1 0x0 DUP1 REVERT JUMPDEST POP CALLDATALOAD SWAP2 SWAP1 POP JUMP JUMPDEST PUSH1 0x1 PUSH1 0x1 PUSH1 0xA0 SHL SUB DUP2 AND DUP2 EQ PUSH2 0xCA7 JUMPI PUSH1 0x0 DUP1 REVERT JUMPDEST POP JUMP JUMPDEST DUP1 CALLDATALOAD PUSH2 0xCB5 DUP2 PUSH2 0xC92 JUMP JUMPDEST SWAP2 SWAP1 POP JUMP JUMPDEST PUSH1 0x0 DUP1 PUSH1 0x40 DUP4 DUP6 SUB SLT ISZERO PUSH2 0xCCD JUMPI PUSH1 0x0 DUP1 REVERT JUMPDEST DUP3 CALLDATALOAD PUSH2 0xCD8 DUP2 PUSH2 0xC92 JUMP JUMPDEST SWAP2 POP PUSH1 0x20 DUP4 ADD CALLDATALOAD PUSH2 0xCE8 DUP2 PUSH2 0xC92 JUMP JUMPDEST DUP1 SWAP2 POP POP SWAP3 POP SWAP3 SWAP1 POP JUMP JUMPDEST PUSH1 0x0 DUP1 PUSH1 0x40 DUP4 DUP6 SUB SLT ISZERO PUSH2 0xD06 JUMPI PUSH1 0x0 DUP1 REVERT JUMPDEST DUP3 CALLDATALOAD PUSH2 0xD11 DUP2 PUSH2 0xC92 JUMP JUMPDEST SWAP5 PUSH1 0x20 SWAP4 SWAP1 SWAP4 ADD CALLDATALOAD SWAP4 POP POP POP JUMP JUMPDEST PUSH1 0x0 PUSH1 0x20 DUP3 DUP5 SUB SLT ISZERO PUSH2 0xD31 JUMPI PUSH1 0x0 DUP1 REVERT JUMPDEST DUP2 CALLDATALOAD PUSH2 0xB17 DUP2 PUSH2 0xC92 JUMP JUMPDEST PUSH4 0x4E487B71 PUSH1 0xE0 SHL PUSH1 0x0 MSTORE PUSH1 0x41 PUSH1 0x4 MSTORE PUSH1 0x24 PUSH1 0x0 REVERT JUMPDEST PUSH1 0x0 DUP1 PUSH1 0x40 DUP4 DUP6 SUB SLT ISZERO PUSH2 0xD65 JUMPI PUSH1 0x0 DUP1 REVERT JUMPDEST DUP3 CALLDATALOAD PUSH2 0xD70 DUP2 PUSH2 0xC92 JUMP JUMPDEST SWAP2 POP PUSH1 0x20 DUP4 DUP2 ADD CALLDATALOAD PUSH8 0xFFFFFFFFFFFFFFFF DUP1 DUP3 GT ISZERO PUSH2 0xD8E JUMPI PUSH1 0x0 DUP1 REVERT JUMPDEST DUP2 DUP7 ADD SWAP2 POP DUP7 PUSH1 0x1F DUP4 ADD SLT PUSH2 0xDA2 JUMPI PUSH1 0x0 DUP1 REVERT JUMPDEST DUP2 CALLDATALOAD DUP2 DUP2 GT ISZERO PUSH2 0xDB4 JUMPI PUSH2 0xDB4 PUSH2 0xD3C JUMP JUMPDEST DUP1 PUSH1 0x5 SHL PUSH1 0x40 MLOAD PUSH1 0x1F NOT PUSH1 0x3F DUP4 ADD AND DUP2 ADD DUP2 DUP2 LT DUP6 DUP3 GT OR ISZERO PUSH2 0xDD9 JUMPI PUSH2 0xDD9 PUSH2 0xD3C JUMP JUMPDEST PUSH1 0x40 MSTORE SWAP2 DUP3 MSTORE DUP5 DUP3 ADD SWAP3 POP DUP4 DUP2 ADD DUP6 ADD SWAP2 DUP10 DUP4 GT ISZERO PUSH2 0xDF7 JUMPI PUSH1 0x0 DUP1 REVERT JUMPDEST SWAP4 DUP6 ADD SWAP4 JUMPDEST DUP3 DUP6 LT ISZERO PUSH2 0xE1C JUMPI PUSH2 0xE0D DUP6 PUSH2 0xCAA JUMP JUMPDEST DUP5 MSTORE SWAP4 DUP6 ADD SWAP4 SWAP3 DUP6 ADD SWAP3 PUSH2 0xDFC JUMP JUMPDEST DUP1 SWAP7 POP POP POP POP POP POP POP SWAP3 POP SWAP3 SWAP1 POP JUMP JUMPDEST PUSH1 0x0 PUSH1 0x20 DUP3 DUP5 SUB SLT ISZERO PUSH2 0xE3E JUMPI PUSH1 0x0 DUP1 REVERT JUMPDEST DUP2 MLOAD PUSH2 0xB17 DUP2 PUSH2 0xC92 JUMP JUMPDEST PUSH1 0x0 PUSH1 0x20 DUP3 DUP5 SUB SLT ISZERO PUSH2 0xE5B JUMPI PUSH1 0x0 DUP1 REVERT JUMPDEST POP MLOAD SWAP2 SWAP1 POP JUMP JUMPDEST PUSH1 0x0 PUSH1 0x20 DUP3 DUP5 SUB SLT ISZERO PUSH2 0xE74 JUMPI PUSH1 0x0 DUP1 REVERT JUMPDEST DUP2 MLOAD DUP1 ISZERO ISZERO DUP2 EQ PUSH2 0xB17 JUMPI PUSH1 0x0 DUP1 REVERT JUMPDEST PUSH4 0x4E487B71 PUSH1 0xE0 SHL PUSH1 0x0 MSTORE PUSH1 0x12 PUSH1 0x4 MSTORE PUSH1 0x24 PUSH1 0x0 REVERT JUMPDEST PUSH4 0x4E487B71 PUSH1 0xE0 SHL PUSH1 0x0 MSTORE PUSH1 0x11 PUSH1 0x4 MSTORE PUSH1 0x24 PUSH1 0x0 REVERT JUMPDEST PUSH1 0x0 DUP3 PUSH2 0xEBF JUMPI PUSH2 0xEBF PUSH2 0xE84 JUMP JUMPDEST POP DIV SWAP1 JUMP JUMPDEST PUSH1 0x0 DUP3 PUSH2 0xED3 JUMPI PUSH2 0xED3 PUSH2 0xE84 JUMP JUMPDEST POP MOD SWAP1 JUMP JUMPDEST DUP2 DUP2 SUB DUP2 DUP2 GT ISZERO PUSH2 0x4E4 JUMPI PUSH2 0x4E4 PUSH2 0xE9A JUMP JUMPDEST DUP1 DUP3 ADD DUP1 DUP3 GT ISZERO PUSH2 0x4E4 JUMPI PUSH2 0x4E4 PUSH2 0xE9A JUMP JUMPDEST DUP1 DUP3 MUL DUP2 ISZERO DUP3 DUP3 DIV DUP5 EQ OR PUSH2 0x4E4 JUMPI PUSH2 0x4E4 PUSH2 0xE9A JUMP JUMPDEST PUSH4 0x4E487B71 PUSH1 0xE0 SHL PUSH1 0x0 MSTORE PUSH1 0x32 PUSH1 0x4 MSTORE PUSH1 0x24 PUSH1 0x0 REVERT JUMPDEST PUSH1 0x0 PUSH1 0x1 DUP3 ADD PUSH2 0xF3D JUMPI PUSH2 0xF3D PUSH2 0xE9A JUMP JUMPDEST POP PUSH1 0x1 ADD SWAP1 JUMP JUMPDEST PUSH1 0x1 DUP2 DUP2 JUMPDEST DUP1 DUP6 GT ISZERO PUSH2 0xF7F JUMPI DUP2 PUSH1 0x0 NOT DIV DUP3 GT ISZERO PUSH2 0xF65 JUMPI PUSH2 0xF65 PUSH2 0xE9A JUMP JUMPDEST DUP1 DUP6 AND ISZERO PUSH2 0xF72 JUMPI SWAP2 DUP2 MUL SWAP2 JUMPDEST SWAP4 DUP5 SHR SWAP4 SWAP1 DUP1 MUL SWAP1 PUSH2 0xF49 JUMP JUMPDEST POP SWAP3 POP SWAP3 SWAP1 POP JUMP JUMPDEST PUSH1 0x0 DUP3 PUSH2 0xF96 JUMPI POP PUSH1 0x1 PUSH2 0x4E4 JUMP JUMPDEST DUP2 PUSH2 0xFA3 JUMPI POP PUSH1 0x0 PUSH2 0x4E4 JUMP JUMPDEST DUP2 PUSH1 0x1 DUP2 EQ PUSH2 0xFB9 JUMPI PUSH1 0x2 DUP2 EQ PUSH2 0xFC3 JUMPI PUSH2 0xFDF JUMP JUMPDEST PUSH1 0x1 SWAP2 POP POP PUSH2 0x4E4 JUMP JUMPDEST PUSH1 0xFF DUP5 GT ISZERO PUSH2 0xFD4 JUMPI PUSH2 0xFD4 PUSH2 0xE9A JUMP JUMPDEST POP POP PUSH1 0x1 DUP3 SHL PUSH2 0x4E4 JUMP JUMPDEST POP PUSH1 0x20 DUP4 LT PUSH2 0x133 DUP4 LT AND PUSH1 0x4E DUP5 LT PUSH1 0xB DUP5 LT AND OR ISZERO PUSH2 0x1002 JUMPI POP DUP2 DUP2 EXP PUSH2 0x4E4 JUMP JUMPDEST PUSH2 0x100C DUP4 DUP4 PUSH2 0xF44 JUMP JUMPDEST DUP1 PUSH1 0x0 NOT DIV DUP3 GT ISZERO PUSH2 0x1020 JUMPI PUSH2 0x1020 PUSH2 0xE9A JUMP JUMPDEST MUL SWAP4 SWAP3 POP POP POP JUMP JUMPDEST PUSH1 0x0 PUSH2 0xB17 DUP4 DUP4 PUSH2 0xF87 JUMP INVALID LOG2 PUSH5 0x6970667358 0x22 SLT KECCAK256 0xD3 0xA8 PUSH32 0xEF64EB4AB1CD665B8DCA7B4784B14FF527C796F8F0715E719DF1A4BAC164736F PUSH13 0x63430008110033000000000000 ","sha1":"450a8054fc7e6d7d07f1efb477ceb5444d3019c2","source":"// SPDX-License-Identifier: GPL-3.0-or-later\npragma solidity 0.8.17;\n\nimport \"@openzeppelin/contracts/token/ERC20/utils/SafeERC20.sol\";\nimport \"@openzeppelin/contracts/token/ERC20/IERC20.sol\";\n\nimport \"../interfaces/IConvexHandler.sol\";\nimport \"../interfaces/pools/ILpToken.sol\";\nimport \"../interfaces/access/IOwnable.sol\";\nimport \"../interfaces/vendor/IRewardStaking.sol\";\nimport \"../interfaces/vendor/IBooster.sol\";\nimport \"../interfaces/vendor/IBaseRewardPool.sol\";\nimport \"../interfaces/ICurveRegistryCache.sol\";\nimport \"../interfaces/IController.sol\";\nimport \"../libraries/ScaledMath.sol\";\n\ncontract ConvexHandler is IConvexHandler {\n    using ScaledMath for uint256;\n    using SafeERC20 for IERC20;\n\n    uint256 internal constant _CLIFF_COUNT = 1000;\n    uint256 internal constant _CLIFF_SIZE = 100_000e18;\n    uint256 internal constant _MAX_CVX_SUPPLY = 100_000_000e18;\n    uint256 internal constant _MAX_CLIFF_THRESHOLD = 0.3e18;\n    address internal constant _CVX_TOKEN = address(0x4e3FBD56CD56c3e72c1403e103b45Db9da5B9D2B);\n\n    uint256 public cliffThreshold = 0.05e18;\n\n    IController public immutable controller;\n\n    constructor(address _controller) {\n        controller = IController(_controller);\n    }\n\n    /// @notice Deposits a Curve LP token on Convex and stakes the Convex\n    /// Curve LP token in the respective CRV rewards contract on Convex.\n    /// @param _curvePool Curve Pool for which LP tokens should be deposited\n    /// @param _amount Amount of Curve LP tokens to deposit\n    function deposit(address _curvePool, uint256 _amount) external {\n        uint256 pid = controller.curveRegistryCache().getPid(_curvePool);\n        IBooster(controller.convexBooster()).deposit(pid, _amount, true);\n    }\n\n    /// @notice Withdraws Curve LP tokens from Convex.\n    /// @dev Curve LP tokens get unstaked from the Convex CRV rewards contract.\n    /// @param _curvePool Curve pool for which LP tokens should be withdrawn.\n    /// @param _amount Amount of Curve LP tokens to withdraw.\n    function withdraw(address _curvePool, uint256 _amount) external {\n        address rewardPool = controller.curveRegistryCache().getRewardPool(_curvePool);\n        IBaseRewardPool(rewardPool).withdrawAndUnwrap(_amount, false);\n    }\n\n    /// @notice Claims CRV, CVX and extra rewards from Convex on behalf of a Conic pool.\n    /// @param _curvePool Curve pool from which LP tokens have been deposited on Convex.\n    /// @param _conicPool Conic pool for which rewards will be claimed.\n    function claimEarnings(address _curvePool, address _conicPool) external {\n        _claimConvexReward(_curvePool, _conicPool);\n    }\n\n    function getRewardPool(address _curvePool) public view returns (address) {\n        return controller.curveRegistryCache().getRewardPool(_curvePool);\n    }\n\n    function _claimConvexReward(address _curvePool, address _conicPool) internal {\n        address rewardPool = controller.curveRegistryCache().getRewardPool(_curvePool);\n        IBaseRewardPool(rewardPool).getReward(_conicPool, true);\n    }\n\n    /// @notice Gets total amount of CRV earned by an account from staking an amount of\n    /// Curve LP tokens via Convex for a single Curve pool.\n    /// @param _account Account which staked an amount of Curve LP tokens.\n    /// @param _curvePool Curve pool for which earned CRV should be computed.\n    /// @return Total amount of CRV earned.\n    function getCrvEarned(address _account, address _curvePool) public view returns (uint256) {\n        address rewardPool = controller.curveRegistryCache().getRewardPool(_curvePool);\n        return IBaseRewardPool(rewardPool).earned(_account);\n    }\n\n    /// @notice Gets total amount of CRV earned by an account from staking multiple Curve\n    /// LP tokens via Convex.\n    /// @param _account Account which staked Curve LP tokens.\n    /// @param _curvePools List of Curve pools for which earned CRV should be computed.\n    /// @return Total amount of CRV earned.\n    function getCrvEarnedBatch(\n        address _account,\n        address[] memory _curvePools\n    ) external view returns (uint256) {\n        uint256 totalCrvEarned;\n        for (uint256 i; i < _curvePools.length; i++) {\n            address pool = _curvePools[i];\n            totalCrvEarned += getCrvEarned(_account, pool);\n        }\n        return totalCrvEarned;\n    }\n\n    /// @notice Computes how much CVX can be claimed for an amount of CRV earned\n    /// @dev Not easily computable from the CVX token contract\n    /// @param crvAmount Amount of CRV for which CVX will be minted pro rata.\n    /// @return cvxEarned CVX amount that would be minted.\n    /// @return cliffInfo information about the current Convex cliff\n    function computeClaimableConvexWithCliffInfo(\n        uint256 crvAmount\n    ) public view returns (uint256 cvxEarned, Types.CliffInfo memory cliffInfo) {\n        uint256 cvxTotalSupply = IERC20(_CVX_TOKEN).totalSupply();\n        cliffInfo.currentCliff = cvxTotalSupply / _CLIFF_SIZE;\n        uint256 cvxNeededUntilNextCliff = _CLIFF_SIZE - (cvxTotalSupply % _CLIFF_SIZE);\n        if (cvxNeededUntilNextCliff <= _CLIFF_SIZE.mulDown(cliffThreshold)) {\n            cliffInfo.currentCliff += 1;\n            cliffInfo.withinThreshold = true;\n        }\n\n        if (cliffInfo.currentCliff >= _CLIFF_COUNT) {\n            return (0, cliffInfo);\n        }\n\n        uint256 remaining = _CLIFF_COUNT - cliffInfo.currentCliff;\n        cvxEarned = (crvAmount * remaining) / _CLIFF_COUNT;\n        uint256 amountTillMax = _MAX_CVX_SUPPLY - cvxTotalSupply;\n        if (cvxEarned > amountTillMax) {\n            cvxEarned = amountTillMax;\n        }\n    }\n\n    function computeClaimableConvex(uint256 crvAmount) external view returns (uint256) {\n        (uint256 cvxEarned, ) = computeClaimableConvexWithCliffInfo(crvAmount);\n        return cvxEarned;\n    }\n\n    function updateCliffThreshold(uint256 _cliffThreshold) external {\n        require(\n            msg.sender == IOwnable(address(controller)).owner(),\n            \"caller is not governance proxy\"\n        );\n        require(_cliffThreshold <= _MAX_CLIFF_THRESHOLD, \"new cliff threshold is too high\");\n        require(_cliffThreshold != cliffThreshold, \"new cliff threshold must be higher or lower\");\n        cliffThreshold = _cliffThreshold;\n    }\n}\n","sourcePath":"contracts/ConvexHandler.sol","type":"contract","deployment":{"address":"0xca432AbffBe075CC3fA63a8FA9Fb933d6f92D798","chainid":"1","blockHeight":19036191}}