{"abi":[{"inputs":[{"internalType":"address","name":"governance","type":"address"},{"internalType":"address","name":"veto","type":"address"}],"stateMutability":"nonpayable","type":"constructor","name":"constructor"},{"anonymous":false,"inputs":[{"indexed":true,"internalType":"uint64","name":"changeId","type":"uint64"}],"name":"ChangeCanceled","type":"event"},{"anonymous":false,"inputs":[{"indexed":true,"internalType":"uint64","name":"changeId","type":"uint64"}],"name":"ChangeExecuted","type":"event"},{"anonymous":false,"inputs":[{"components":[{"internalType":"address","name":"target","type":"address"},{"internalType":"bytes","name":"data","type":"bytes"}],"indexed":false,"internalType":"struct IGovernanceProxy.Call[]","name":"calls","type":"tuple[]"},{"indexed":false,"internalType":"uint64","name":"delay","type":"uint64"},{"indexed":false,"internalType":"uint64","name":"changeId","type":"uint64"}],"name":"ChangeRequested","type":"event"},{"anonymous":false,"inputs":[{"indexed":true,"internalType":"bytes4","name":"selector","type":"bytes4"},{"indexed":false,"internalType":"uint64","name":"delay","type":"uint64"}],"name":"DelayUpdated","type":"event"},{"inputs":[],"name":"GOVERNANCE_ROLE","outputs":[{"internalType":"bytes32","name":"","type":"bytes32"}],"stateMutability":"view","type":"function"},{"inputs":[],"name":"VETO_ROLE","outputs":[{"internalType":"bytes32","name":"","type":"bytes32"}],"stateMutability":"view","type":"function"},{"inputs":[{"internalType":"bytes32","name":"role","type":"bytes32"}],"name":"accountsWithRole","outputs":[{"internalType":"address[]","name":"","type":"address[]"}],"stateMutability":"view","type":"function"},{"inputs":[{"internalType":"uint64","name":"id","type":"uint64"}],"name":"cancelChange","outputs":[],"stateMutability":"nonpayable","type":"function"},{"inputs":[{"internalType":"bytes4","name":"","type":"bytes4"}],"name":"delays","outputs":[{"internalType":"uint64","name":"","type":"uint64"}],"stateMutability":"view","type":"function"},{"inputs":[{"internalType":"uint64","name":"id","type":"uint64"}],"name":"executeChange","outputs":[],"stateMutability":"nonpayable","type":"function"},{"inputs":[{"internalType":"uint256","name":"offset","type":"uint256"},{"internalType":"uint256","name":"n","type":"uint256"}],"name":"getEndedChanges","outputs":[{"components":[{"internalType":"enum IGovernanceProxy.Status","name":"status","type":"uint8"},{"internalType":"uint64","name":"id","type":"uint64"},{"internalType":"uint64","name":"requestedAt","type":"uint64"},{"internalType":"uint64","name":"delay","type":"uint64"},{"internalType":"uint64","name":"endedAt","type":"uint64"},{"components":[{"internalType":"address","name":"target","type":"address"},{"internalType":"bytes","name":"data","type":"bytes"}],"internalType":"struct IGovernanceProxy.Call[]","name":"calls","type":"tuple[]"}],"internalType":"struct IGovernanceProxy.Change[]","name":"","type":"tuple[]"}],"stateMutability":"view","type":"function"},{"inputs":[],"name":"getEndedChanges","outputs":[{"components":[{"internalType":"enum IGovernanceProxy.Status","name":"status","type":"uint8"},{"internalType":"uint64","name":"id","type":"uint64"},{"internalType":"uint64","name":"requestedAt","type":"uint64"},{"internalType":"uint64","name":"delay","type":"uint64"},{"internalType":"uint64","name":"endedAt","type":"uint64"},{"components":[{"internalType":"address","name":"target","type":"address"},{"internalType":"bytes","name":"data","type":"bytes"}],"internalType":"struct IGovernanceProxy.Call[]","name":"calls","type":"tuple[]"}],"internalType":"struct IGovernanceProxy.Change[]","name":"","type":"tuple[]"}],"stateMutability":"view","type":"function"},{"inputs":[],"name":"getEndedChangesCount","outputs":[{"internalType":"uint256","name":"","type":"uint256"}],"stateMutability":"view","type":"function"},{"inputs":[{"internalType":"uint64","name":"changeId","type":"uint64"}],"name":"getPendingChange","outputs":[{"components":[{"internalType":"enum IGovernanceProxy.Status","name":"status","type":"uint8"},{"internalType":"uint64","name":"id","type":"uint64"},{"internalType":"uint64","name":"requestedAt","type":"uint64"},{"internalType":"uint64","name":"delay","type":"uint64"},{"internalType":"uint64","name":"endedAt","type":"uint64"},{"components":[{"internalType":"address","name":"target","type":"address"},{"internalType":"bytes","name":"data","type":"bytes"}],"internalType":"struct IGovernanceProxy.Call[]","name":"calls","type":"tuple[]"}],"internalType":"struct IGovernanceProxy.Change","name":"change","type":"tuple"}],"stateMutability":"view","type":"function"},{"inputs":[],"name":"getPendingChanges","outputs":[{"components":[{"internalType":"enum IGovernanceProxy.Status","name":"status","type":"uint8"},{"internalType":"uint64","name":"id","type":"uint64"},{"internalType":"uint64","name":"requestedAt","type":"uint64"},{"internalType":"uint64","name":"delay","type":"uint64"},{"internalType":"uint64","name":"endedAt","type":"uint64"},{"components":[{"internalType":"address","name":"target","type":"address"},{"internalType":"bytes","name":"data","type":"bytes"}],"internalType":"struct IGovernanceProxy.Call[]","name":"calls","type":"tuple[]"}],"internalType":"struct IGovernanceProxy.Change[]","name":"","type":"tuple[]"}],"stateMutability":"view","type":"function"},{"inputs":[{"internalType":"bytes32","name":"role","type":"bytes32"}],"name":"getRoleMemberCount","outputs":[{"internalType":"uint256","name":"","type":"uint256"}],"stateMutability":"view","type":"function"},{"inputs":[{"internalType":"bytes32","name":"role","type":"bytes32"},{"internalType":"address","name":"account","type":"address"}],"name":"grantRole","outputs":[],"stateMutability":"nonpayable","type":"function"},{"inputs":[{"internalType":"bytes32","name":"role","type":"bytes32"},{"internalType":"address","name":"account","type":"address"}],"name":"hasRole","outputs":[{"internalType":"bool","name":"","type":"bool"}],"stateMutability":"view","type":"function"},{"inputs":[],"name":"nextChangeId","outputs":[{"internalType":"uint64","name":"","type":"uint64"}],"stateMutability":"view","type":"function"},{"inputs":[{"components":[{"internalType":"address","name":"target","type":"address"},{"internalType":"bytes","name":"data","type":"bytes"}],"internalType":"struct IGovernanceProxy.Call[]","name":"calls","type":"tuple[]"}],"name":"requestChange","outputs":[],"stateMutability":"nonpayable","type":"function"},{"inputs":[{"internalType":"bytes32","name":"role","type":"bytes32"},{"internalType":"address","name":"account","type":"address"}],"name":"revokeRole","outputs":[],"stateMutability":"nonpayable","type":"function"},{"inputs":[{"internalType":"bytes4","name":"selector","type":"bytes4"},{"internalType":"uint64","name":"delay","type":"uint64"}],"name":"updateDelay","outputs":[],"stateMutability":"nonpayable","type":"function"}],"bytecode":"60806040523480156200001157600080fd5b506040516200267c3803806200267c833981016040819052620000349162000121565b6200004d69474f5645524e414e434560b01b8362000068565b62000060635645544f60e01b8262000068565b505062000159565b6000828152602081815260409091206200008d91839062000e5162000092821b17901c565b505050565b6000620000a9836001600160a01b038416620000b2565b90505b92915050565b6000818152600183016020526040812054620000fb57508154600181810184556000848152602080822090930184905584548482528286019093526040902091909155620000ac565b506000620000ac565b80516001600160a01b03811681146200011c57600080fd5b919050565b600080604083850312156200013557600080fd5b620001408362000104565b9150620001506020840162000104565b90509250929050565b61251380620001696000396000f3fe608060405234801561001057600080fd5b50600436106101165760003560e01c8063d547741f116100a2578063ee5112a911610071578063ee5112a91461024e578063f36c8f5c14610256578063f3de7f4f1461026a578063fb507e8714610293578063fcb96a9f146102b357600080fd5b8063d547741f14610202578063d980e4b114610215578063da2d17fe14610228578063e4a99c471461023b57600080fd5b8063634f8ed6116100e9578063634f8ed61461017357806391d1485414610193578063a147109b146101b6578063a825a680146101c4578063ca15c873146101ef57600080fd5b80630954ae961461011b5780630c2cdbd7146101395780630f26f5d21461014b5780632f2ff15d14610160575b600080fd5b6101236102c6565b6040516101309190611cdf565b60405180910390f35b6004545b604051908152602001610130565b61015e610159366004611d41565b61049c565b005b61015e61016e366004611dca565b61058a565b610186610181366004611dfa565b610613565b6040516101309190611e13565b6101a66101a1366004611dca565b610633565b6040519015158152602001610130565b61013d635645544f60e01b81565b6001546101d7906001600160401b031681565b6040516001600160401b039091168152602001610130565b61013d6101fd366004611dfa565b610652565b61015e610210366004611dca565b610669565b61015e610223366004611e7c565b610702565b61015e610236366004611ead565b6107a2565b610123610249366004611ee2565b61082f565b610123610aa1565b61013d69474f5645524e414e434560b01b81565b6101d7610278366004611f04565b6002602052600090815260409020546001600160401b031681565b6102a66102a1366004611e7c565b610c6e565b6040516101309190611f21565b61015e6102c1366004611e7c565b610e37565b60606003805480602002602001604051908101604052809291908181526020016000905b82821015610493576000848152602090206040805160c08101909152600384029091018054829060ff16600281111561032557610325611b7b565b600281111561033657610336611b7b565b815281546001600160401b0361010082048116602080850191909152600160481b83048216604080860191909152600160881b909304821660608501526001850154909116608084015260028401805483518184028101840190945280845260a090940193909160009084015b8282101561047c576000848152602090819020604080518082019091526002850290910180546001600160a01b0316825260018101805492939192918401916103eb90611f34565b80601f016020809104026020016040519081016040528092919081815260200182805461041790611f34565b80156104645780601f1061043957610100808354040283529160200191610464565b820191906000526020600020905b81548152906001019060200180831161044757829003601f168201915b505050505081525050815260200190600101906103a3565b5050505081525050815260200190600101906102ea565b50505050905090565b69474f5645524e414e434560b01b6104b48133610633565b6104d95760405162461bcd60e51b81526004016104d090611f6e565b60405180910390fd5b6000805b838110156105545760006105218686848181106104fc576104fc611f96565b905060200281019061050e9190611fac565b61051c906020810190611fcc565b610e66565b9050826001600160401b0316816001600160401b03161115610541578092505b508061054c8161202f565b9150506104dd565b50600080610563838787610f23565b91509150826001600160401b03166000036105825761058282826110f8565b505050505050565b3330146105a95760405162461bcd60e51b81526004016104d090611f6e565b69474f5645524e414e434560b01b8214806105ca5750635645544f60e01b82145b6106055760405162461bcd60e51b815260206004820152600c60248201526b696e76616c696420726f6c6560a01b60448201526064016104d0565b61060f82826112c7565b5050565b600081815260208190526040902060609061062d906112df565b92915050565b600082815260208190526040812061064b90836112ec565b9392505050565b600081815260208190526040812061062d9061130e565b3330146106885760405162461bcd60e51b81526004016104d090611f6e565b69474f5645524e414e434560b01b821415806106ac575060016106aa83610652565b115b6106f85760405162461bcd60e51b815260206004820152601a60248201527f6e656564206174206c65617374206f6e6520676f7665726e6f7200000000000060448201526064016104d0565b61060f8282611318565b61071969474f5645524e414e434560b01b33610633565b806107305750610730635645544f60e01b33610633565b61074c5760405162461bcd60e51b81526004016104d090611f6e565b60008061075883611330565b60405191935091506001600160401b038416907f4bb934cf1c626b3439a169ba2f7710e204c468538fc3a2f54942fd8ee60046af90600090a261079d828260016113fb565b505050565b3330146107c15760405162461bcd60e51b81526004016104d090611f6e565b6001600160e01b03198216600081815260026020908152604091829020805467ffffffffffffffff19166001600160401b03861690811790915591519182527f0816c272a68b4bff071bf7f969473d64b07dcee749dc4b37a85be0ea27f05efd910160405180910390a25050565b60606000826001600160401b0381111561084b5761084b612048565b6040519080825280602002602001820160405280156108ad57816020015b6040805160c081018252600080825260208083018290529282018190526060808301829052608083019190915260a082015282526000199092019101816108695790505b50905060005b83811015610a995760046108c7828761205e565b815481106108d7576108d7611f96565b600091825260209091206040805160c081019091526003909202018054829060ff16600281111561090a5761090a611b7b565b600281111561091b5761091b611b7b565b815281546001600160401b0361010082048116602080850191909152600160481b83048216604080860191909152600160881b909304821660608501526001850154909116608084015260028401805483518184028101840190945280845260a090940193909160009084015b82821015610a61576000848152602090819020604080518082019091526002850290910180546001600160a01b0316825260018101805492939192918401916109d090611f34565b80601f01602080910402602001604051908101604052809291908181526020018280546109fc90611f34565b8015610a495780601f10610a1e57610100808354040283529160200191610a49565b820191906000526020600020905b815481529060010190602001808311610a2c57829003601f168201915b50505050508152505081526020019060010190610988565b5050505081525050828281518110610a7b57610a7b611f96565b60200260200101819052508080610a919061202f565b9150506108b3565b509392505050565b60606004805480602002602001604051908101604052809291908181526020016000905b82821015610493576000848152602090206040805160c08101909152600384029091018054829060ff166002811115610b0057610b00611b7b565b6002811115610b1157610b11611b7b565b815281546001600160401b0361010082048116602080850191909152600160481b83048216604080860191909152600160881b909304821660608501526001850154909116608084015260028401805483518184028101840190945280845260a090940193909160009084015b82821015610c57576000848152602090819020604080518082019091526002850290910180546001600160a01b031682526001810180549293919291840191610bc690611f34565b80601f0160208091040260200160405190810160405280929190818152602001828054610bf290611f34565b8015610c3f5780601f10610c1457610100808354040283529160200191610c3f565b820191906000526020600020905b815481529060010190602001808311610c2257829003601f168201915b50505050508152505081526020019060010190610b7e565b505050508152505081526020019060010190610ac5565b6040805160c0810182526000808252602082018190529181018290526060808201839052608082019290925260a0810191909152610cab82611330565b6040805160c0810190915282548390829060ff166002811115610cd057610cd0611b7b565b6002811115610ce157610ce1611b7b565b815281546001600160401b0361010082048116602080850191909152600160481b83048216604080860191909152600160881b909304821660608501526001850154909116608084015260028401805483518184028101840190945280845260a090940193909160009084015b82821015610e27576000848152602090819020604080518082019091526002850290910180546001600160a01b031682526001810180549293919291840191610d9690611f34565b80601f0160208091040260200160405190810160405280929190818152602001828054610dc290611f34565b8015610e0f5780601f10610de457610100808354040283529160200191610e0f565b820191906000526020600020905b815481529060010190602001808311610df257829003601f168201915b50505050508152505081526020019060010190610d4e565b5050509152509095945050505050565b600080610e4383611330565b9150915061079d82826110f8565b600061064b836001600160a01b038416611559565b600080610e766004828587612071565b610e7f9161209b565b90506312e9740160e11b6001600160e01b0319821601610efa576000610ea88460048188612071565b8080601f016020809104026020016040519081016040528093929190818152602001838380828437600092019190915250508251929350610ef592840160209081019250840190506120cb565b509150505b6001600160e01b0319166000908152600260205260409020546001600160401b03169392505050565b60018054600091829182916001600160401b039091169082610f44836120f9565b825461010092830a6001600160401b038181021990921692821602919091179092556003805460018101825560008281527fc2575a0e9e593c00f959f8c92f12db2869c3395a3b0502d05e2516446f71f85b9190920290810180547fc2575a0e9e593c00f959f8c92f12db2869c3395a3b0502d05e2516446f71f85c909201805467ffffffffffffffff19169055610100600160881b031990911685851690930267ffffffffffffffff60481b191692909217600160481b428516021778ffffffffffffffff00000000000000000000000000000000ff1916600160881b938b169390930260ff191692909217815594509091505b848110156110a0578360020186868381811061105757611057611f96565b90506020028101906110699190611fac565b81546001810183556000928352602090922090916002020161108b8282612165565b505080806110989061202f565b915050611039565b506003546110b090600190612280565b91507fea6e341f82fb9f110709efb8c6306f361297efe562f52a900dd723067675762a858588846040516110e79493929190612293565b60405180910390a150935093915050565b8154429061111f906001600160401b03600160881b8204811691600160481b9004166123a2565b6001600160401b031611156111765760405162461bcd60e51b815260206004820152601d60248201527f646561646c696e6520686173206e6f74206265656e207265616368656400000060448201526064016104d0565b60005b600283015481101561127f5761126c83600201828154811061119d5761119d611f96565b906000526020600020906002020160010180546111b990611f34565b80601f01602080910402602001604051908101604052809291908181526020018280546111e590611f34565b80156112325780601f1061120757610100808354040283529160200191611232565b820191906000526020600020905b81548152906001019060200180831161121557829003601f168201915b505050505084600201838154811061124c5761124c611f96565b60009182526020909120600290910201546001600160a01b0316906115a8565b50806112778161202f565b915050611179565b5081546040516101009091046001600160401b0316907f4093c58d6d95b5dc15bbca26257f9d4618824328023882d9cf600066a1f4bf3490600090a261060f828260026113fb565b600082815260208190526040902061079d9082610e51565b6060600061064b836115ec565b6001600160a01b0381166000908152600183016020526040812054151561064b565b600061062d825490565b600082815260208190526040902061079d9082611648565b60008060005b6003548110156113bf57836001600160401b03166003828154811061135d5761135d611f96565b600091825260209091206003909102015461010090046001600160401b0316036113ad576003818154811061139457611394611f96565b9060005260206000209060030201819250925050915091565b806113b78161202f565b915050611336565b5060405162461bcd60e51b815260206004820152601060248201526f18da185b99d9481b9bdd08199bdd5b9960821b60448201526064016104d0565b82548190849060ff1916600183600281111561141957611419611b7b565b0217905550600180840180546001600160401b03421667ffffffffffffffff19909116179055600480548083018255600091909152845460039091027f8a35acfbc15ff81a39ae7d344fd709f28e8600b4aa8c65c6b64bfe7fe36bd19b0180548693919260ff1691839160ff19169083600281111561149a5761149a611b7b565b0217905550815481546001600160401b0361010092839004811690920268ffffffffffffffff00198216811784558454600160481b9081900484160267ffffffffffffffff60481b19909116610100600160881b031990921691909117178083558354600160881b9081900483160267ffffffffffffffff60881b19909116178255600180840154908301805467ffffffffffffffff1916919092161790556002808301805461154d9284019190611a5a565b50505061079d8261165d565b60008181526001830160205260408120546115a05750815460018181018455600084815260208082209093018490558454848252828601909352604090209190915561062d565b50600061062d565b606061064b838360006040518060400160405280601e81526020017f416464726573733a206c6f772d6c6576656c2063616c6c206661696c656400008152506117e5565b60608160000180548060200260200160405190810160405280929190818152602001828054801561163c57602002820191906000526020600020905b815481526020019060010190808311611628575b50505050509050919050565b600061064b836001600160a01b0384166118c2565b6003805461166d90600190612280565b8154811061167d5761167d611f96565b90600052602060002090600302016003828154811061169e5761169e611f96565b6000918252602090912082546003909202018054909160ff1690829060ff191660018360028111156116d2576116d2611b7b565b0217905550815481546001600160401b0361010092839004811690920268ffffffffffffffff00198216811784558454600160481b9081900484160267ffffffffffffffff60481b19909116610100600160881b031990921691909117178083558354600160881b9081900483160267ffffffffffffffff60881b19909116178255600180840154908301805467ffffffffffffffff191691909216179055600280830180546117859284019190611a5a565b50905050600380548061179a5761179a6123c2565b60008281526020812060036000199093019283020180546001600160c81b031916815560018101805467ffffffffffffffff19169055906117de6002830182611adf565b5050905550565b6060824710156118465760405162461bcd60e51b815260206004820152602660248201527f416464726573733a20696e73756666696369656e742062616c616e636520666f6044820152651c8818d85b1b60d21b60648201526084016104d0565b600080866001600160a01b0316858760405161186291906123d8565b60006040518083038185875af1925050503d806000811461189f576040519150601f19603f3d011682016040523d82523d6000602084013e6118a4565b606091505b50915091506118b5878383876119bc565b925050505b949350505050565b600081815260018301602052604081205480156119ab5760006118e6600183612280565b85549091506000906118fa90600190612280565b905081811461195f57600086600001828154811061191a5761191a611f96565b906000526020600020015490508087600001848154811061193d5761193d611f96565b6000918252602080832090910192909255918252600188019052604090208390555b8554869080611970576119706123c2565b60019003818190600052602060002001600090559055856001016000868152602001908152602001600020600090556001935050505061062d565b600091505061062d565b5092915050565b60608315611a2b578251600003611a24576001600160a01b0385163b611a245760405162461bcd60e51b815260206004820152601d60248201527f416464726573733a2063616c6c20746f206e6f6e2d636f6e747261637400000060448201526064016104d0565b50816118ba565b6118ba8383815115611a405781518083602001fd5b8060405162461bcd60e51b81526004016104d091906123ea565b828054828255906000526020600020906002028101928215611acf5760005260206000209160020282015b82811115611acf57825482546001600160a01b0319166001600160a01b039091161782558282600180820190611abd908401826123fd565b50505091600201919060020190611a85565b50611adb929150611b03565b5090565b5080546000825560020290600052602060002090810190611b009190611b03565b50565b80821115611adb5780546001600160a01b03191681556000611b286001830182611b31565b50600201611b03565b508054611b3d90611f34565b6000825580601f10611b4d575050565b601f016020900490600052602060002090810190611b0091905b80821115611adb5760008155600101611b67565b634e487b7160e01b600052602160045260246000fd5b60005b83811015611bac578181015183820152602001611b94565b50506000910152565b60008151808452611bcd816020860160208601611b91565b601f01601f19169290920160200192915050565b600082825180855260208086019550808260051b84010181860160005b84811015611c4957858303601f19018952815180516001600160a01b031684528401516040858501819052611c3581860183611bb5565b9a86019a9450505090830190600101611bfe565b5090979650505050505050565b6000815160038110611c7857634e487b7160e01b600052602160045260246000fd5b8084525060208201516001600160401b03808216602086015280604085015116604086015280606085015116606086015250506080820151611cc560808501826001600160401b03169052565b5060a082015160c060a08501526118ba60c0850182611be1565b6000602080830181845280855180835260408601915060408160051b870101925083870160005b82811015611d3457603f19888603018452611d22858351611c56565b94509285019290850190600101611d06565b5092979650505050505050565b60008060208385031215611d5457600080fd5b82356001600160401b0380821115611d6b57600080fd5b818501915085601f830112611d7f57600080fd5b813581811115611d8e57600080fd5b8660208260051b8501011115611da357600080fd5b60209290920196919550909350505050565b6001600160a01b0381168114611b0057600080fd5b60008060408385031215611ddd57600080fd5b823591506020830135611def81611db5565b809150509250929050565b600060208284031215611e0c57600080fd5b5035919050565b6020808252825182820181905260009190848201906040850190845b81811015611e545783516001600160a01b031683529284019291840191600101611e2f565b50909695505050505050565b80356001600160401b0381168114611e7757600080fd5b919050565b600060208284031215611e8e57600080fd5b61064b82611e60565b6001600160e01b031981168114611b0057600080fd5b60008060408385031215611ec057600080fd5b8235611ecb81611e97565b9150611ed960208401611e60565b90509250929050565b60008060408385031215611ef557600080fd5b50508035926020909101359150565b600060208284031215611f1657600080fd5b813561064b81611e97565b60208152600061064b6020830184611c56565b600181811c90821680611f4857607f821691505b602082108103611f6857634e487b7160e01b600052602260045260246000fd5b50919050565b6020808252600e908201526d1b9bdd08185d5d1a1bdc9a5e995960921b604082015260600190565b634e487b7160e01b600052603260045260246000fd5b60008235603e19833603018112611fc257600080fd5b9190910192915050565b6000808335601e19843603018112611fe357600080fd5b8301803591506001600160401b03821115611ffd57600080fd5b60200191503681900382131561201257600080fd5b9250929050565b634e487b7160e01b600052601160045260246000fd5b60006001820161204157612041612019565b5060010190565b634e487b7160e01b600052604160045260246000fd5b8082018082111561062d5761062d612019565b6000808585111561208157600080fd5b8386111561208e57600080fd5b5050820193919092039150565b6001600160e01b031981358181169160048510156120c35780818660040360031b1b83161692505b505092915050565b600080604083850312156120de57600080fd5b82516120e981611e97565b6020939093015192949293505050565b60006001600160401b0380831681810361211557612115612019565b6001019392505050565b601f82111561079d57600081815260208120601f850160051c810160208610156121465750805b601f850160051c820191505b8181101561058257828155600101612152565b813561217081611db5565b81546001600160a01b0319166001600160a01b0391909116178155600181810160208481013536869003601e190181126121a957600080fd5b850180356001600160401b038111156121c157600080fd5b80360383830113156121d257600080fd5b6121e6816121e08654611f34565b8661211f565b6000601f82116001811461221c576000831561220457508382018501355b600019600385901b1c1916600184901b178655612275565b600086815260209020601f19841690835b8281101561224c5786850188013582559387019390890190870161222d565b508482101561226b5760001960f88660031b161c198785880101351681555b50508683881b0186555b505050505050505050565b8181038181111561062d5761062d612019565b60608082528181018590526000906080600587901b8401810190840188845b8981101561236f57868403607f190183528135368c9003603e190181126122d857600080fd5b8b01604081356122e781611db5565b6001600160a01b0316865260208281013536849003601e1901811261230b57600080fd5b9092018281019290356001600160401b0381111561232857600080fd5b80360384131561233757600080fd5b8282890152808389015280848a8a013760008882018a0152601f01601f191690960187019594850194939093019250506001016122b2565b5050506001600160401b0386166020850152915061238a9050565b6001600160401b038316604083015295945050505050565b6001600160401b038181168382160190808211156119b5576119b5612019565b634e487b7160e01b600052603160045260246000fd5b60008251611fc2818460208701611b91565b60208152600061064b6020830184611bb5565b818103612408575050565b6124128254611f34565b6001600160401b0381111561242957612429612048565b61243d816124378454611f34565b8461211f565b6000601f82116001811461247157600083156124595750848201545b600019600385901b1c1916600184901b1784556124d6565b600085815260209020601f19841690600086815260209020845b838110156124ab578286015482556001958601959091019060200161248b565b50858310156124c95781850154600019600388901b60f8161c191681555b50505060018360011b0184555b505050505056fea2646970667358221220c8668c7165bdb5f9e8777ee13a4515ca548ee15ab5854d0a3fc06d06b60b4ea964736f6c63430008110033","bytecodeSha1":"6de7320bcdb1904358a8b8becc098565ca460cb4","compiler":{"evm_version":"istanbul","optimizer":{"enabled":true,"runs":200},"version":"0.8.17+commit.8df45f5f"},"contractName":"GovernanceProxy","language":"Solidity","natspec":{"kind":"dev","methods":{"cancelChange(uint64)":{"notice":"Cancels a pending change Both governance and users having veto power can cancel a pending change"},"delays(bytes4)":{"notice":"mapping from function selector to delay in seconds NOTE: For simplicity, delays are only based on selectors and not on the contract address, which means that if two functions in different contracts have the exact same name and arguments, they will share the same delay"},"executeChange(uint64)":{"notice":"Executes a change The deadline of the change must be past Anyone can execute a pending change but in practice, this will be called by governance too"},"getEndedChanges()":{"returns":{"_0":"all the ended changes this can become large so `getEndedChanges(uint256 offset, uint256 n)` is the preferred way to query"}},"getEndedChanges(uint256,uint256)":{"returns":{"_0":"`n` ended changes starting from offset This is useful is you want to paginate through the changes note that the changes are in chronological order of execution/cancelation which means that it might be useful to start paginatign from the end of the array"}},"getEndedChangesCount()":{"returns":{"_0":"total number of ended changes"}},"getPendingChange(uint64)":{"returns":{"change":"the pending change with the given id if found this reverts if the change is not found"}},"getPendingChanges()":{"returns":{"_0":"all the pending changes this should typically be quite small so no need for pagination"}},"requestChange((address,bytes)[])":{"details":"If the change requires no delay, it will be executed immediately","notice":"Requests a list of function calls to be executed as a change","params":{"calls":"the calls to be executed this should be fully encoded including the selectors and the abi-encoded arguments Changes can only be requested by governance"}}},"stateVariables":{"endedChanges":{"details":"this is an array of all changes that have ended, regardless of their status this is only used to make it easier to query but should not be used from within any contract as the length is completely unbounded"},"pendingChanges":{"details":"array of pending changes to execute We perform linear searches through this using the change ID, so in theory this could run out of gas. However, in practice, the number of pending changes should never become large enough for this to become an issue"}},"version":1},"opcodes":"PUSH1 0x80 PUSH1 0x40 MSTORE CALLVALUE DUP1 ISZERO PUSH2 0x10 JUMPI PUSH1 0x0 DUP1 REVERT JUMPDEST POP PUSH1 0x4 CALLDATASIZE LT PUSH2 0x116 JUMPI PUSH1 0x0 CALLDATALOAD PUSH1 0xE0 SHR DUP1 PUSH4 0xD547741F GT PUSH2 0xA2 JUMPI DUP1 PUSH4 0xEE5112A9 GT PUSH2 0x71 JUMPI DUP1 PUSH4 0xEE5112A9 EQ PUSH2 0x24E JUMPI DUP1 PUSH4 0xF36C8F5C EQ PUSH2 0x256 JUMPI DUP1 PUSH4 0xF3DE7F4F EQ PUSH2 0x26A JUMPI DUP1 PUSH4 0xFB507E87 EQ PUSH2 0x293 JUMPI DUP1 PUSH4 0xFCB96A9F EQ PUSH2 0x2B3 JUMPI PUSH1 0x0 DUP1 REVERT JUMPDEST DUP1 PUSH4 0xD547741F EQ PUSH2 0x202 JUMPI DUP1 PUSH4 0xD980E4B1 EQ PUSH2 0x215 JUMPI DUP1 PUSH4 0xDA2D17FE EQ PUSH2 0x228 JUMPI DUP1 PUSH4 0xE4A99C47 EQ PUSH2 0x23B JUMPI PUSH1 0x0 DUP1 REVERT JUMPDEST DUP1 PUSH4 0x634F8ED6 GT PUSH2 0xE9 JUMPI DUP1 PUSH4 0x634F8ED6 EQ PUSH2 0x173 JUMPI DUP1 PUSH4 0x91D14854 EQ PUSH2 0x193 JUMPI DUP1 PUSH4 0xA147109B EQ PUSH2 0x1B6 JUMPI DUP1 PUSH4 0xA825A680 EQ PUSH2 0x1C4 JUMPI DUP1 PUSH4 0xCA15C873 EQ PUSH2 0x1EF JUMPI PUSH1 0x0 DUP1 REVERT JUMPDEST DUP1 PUSH4 0x954AE96 EQ PUSH2 0x11B JUMPI DUP1 PUSH4 0xC2CDBD7 EQ PUSH2 0x139 JUMPI DUP1 PUSH4 0xF26F5D2 EQ PUSH2 0x14B JUMPI DUP1 PUSH4 0x2F2FF15D EQ PUSH2 0x160 JUMPI JUMPDEST PUSH1 0x0 DUP1 REVERT JUMPDEST PUSH2 0x123 PUSH2 0x2C6 JUMP JUMPDEST PUSH1 0x40 MLOAD PUSH2 0x130 SWAP2 SWAP1 PUSH2 0x1CDF JUMP JUMPDEST PUSH1 0x40 MLOAD DUP1 SWAP2 SUB SWAP1 RETURN JUMPDEST PUSH1 0x4 SLOAD JUMPDEST PUSH1 0x40 MLOAD SWAP1 DUP2 MSTORE PUSH1 0x20 ADD PUSH2 0x130 JUMP JUMPDEST PUSH2 0x15E PUSH2 0x159 CALLDATASIZE PUSH1 0x4 PUSH2 0x1D41 JUMP JUMPDEST PUSH2 0x49C JUMP JUMPDEST STOP JUMPDEST PUSH2 0x15E PUSH2 0x16E CALLDATASIZE PUSH1 0x4 PUSH2 0x1DCA JUMP JUMPDEST PUSH2 0x58A JUMP JUMPDEST PUSH2 0x186 PUSH2 0x181 CALLDATASIZE PUSH1 0x4 PUSH2 0x1DFA JUMP JUMPDEST PUSH2 0x613 JUMP JUMPDEST PUSH1 0x40 MLOAD PUSH2 0x130 SWAP2 SWAP1 PUSH2 0x1E13 JUMP JUMPDEST PUSH2 0x1A6 PUSH2 0x1A1 CALLDATASIZE PUSH1 0x4 PUSH2 0x1DCA JUMP JUMPDEST PUSH2 0x633 JUMP JUMPDEST PUSH1 0x40 MLOAD SWAP1 ISZERO ISZERO DUP2 MSTORE PUSH1 0x20 ADD PUSH2 0x130 JUMP JUMPDEST PUSH2 0x13D PUSH4 0x5645544F PUSH1 0xE0 SHL DUP2 JUMP JUMPDEST PUSH1 0x1 SLOAD PUSH2 0x1D7 SWAP1 PUSH1 0x1 PUSH1 0x1 PUSH1 0x40 SHL SUB AND DUP2 JUMP JUMPDEST PUSH1 0x40 MLOAD PUSH1 0x1 PUSH1 0x1 PUSH1 0x40 SHL SUB SWAP1 SWAP2 AND DUP2 MSTORE PUSH1 0x20 ADD PUSH2 0x130 JUMP JUMPDEST PUSH2 0x13D PUSH2 0x1FD CALLDATASIZE PUSH1 0x4 PUSH2 0x1DFA JUMP JUMPDEST PUSH2 0x652 JUMP JUMPDEST PUSH2 0x15E PUSH2 0x210 CALLDATASIZE PUSH1 0x4 PUSH2 0x1DCA JUMP JUMPDEST PUSH2 0x669 JUMP JUMPDEST PUSH2 0x15E PUSH2 0x223 CALLDATASIZE PUSH1 0x4 PUSH2 0x1E7C JUMP JUMPDEST PUSH2 0x702 JUMP JUMPDEST PUSH2 0x15E PUSH2 0x236 CALLDATASIZE PUSH1 0x4 PUSH2 0x1EAD JUMP JUMPDEST PUSH2 0x7A2 JUMP JUMPDEST PUSH2 0x123 PUSH2 0x249 CALLDATASIZE PUSH1 0x4 PUSH2 0x1EE2 JUMP JUMPDEST PUSH2 0x82F JUMP JUMPDEST PUSH2 0x123 PUSH2 0xAA1 JUMP JUMPDEST PUSH2 0x13D PUSH10 0x474F5645524E414E4345 PUSH1 0xB0 SHL DUP2 JUMP JUMPDEST PUSH2 0x1D7 PUSH2 0x278 CALLDATASIZE PUSH1 0x4 PUSH2 0x1F04 JUMP JUMPDEST PUSH1 0x2 PUSH1 0x20 MSTORE PUSH1 0x0 SWAP1 DUP2 MSTORE PUSH1 0x40 SWAP1 KECCAK256 SLOAD PUSH1 0x1 PUSH1 0x1 PUSH1 0x40 SHL SUB AND DUP2 JUMP JUMPDEST PUSH2 0x2A6 PUSH2 0x2A1 CALLDATASIZE PUSH1 0x4 PUSH2 0x1E7C JUMP JUMPDEST PUSH2 0xC6E JUMP JUMPDEST PUSH1 0x40 MLOAD PUSH2 0x130 SWAP2 SWAP1 PUSH2 0x1F21 JUMP JUMPDEST PUSH2 0x15E PUSH2 0x2C1 CALLDATASIZE PUSH1 0x4 PUSH2 0x1E7C JUMP JUMPDEST PUSH2 0xE37 JUMP JUMPDEST PUSH1 0x60 PUSH1 0x3 DUP1 SLOAD DUP1 PUSH1 0x20 MUL PUSH1 0x20 ADD PUSH1 0x40 MLOAD SWAP1 DUP2 ADD PUSH1 0x40 MSTORE DUP1 SWAP3 SWAP2 SWAP1 DUP2 DUP2 MSTORE PUSH1 0x20 ADD PUSH1 0x0 SWAP1 JUMPDEST DUP3 DUP3 LT ISZERO PUSH2 0x493 JUMPI PUSH1 0x0 DUP5 DUP2 MSTORE PUSH1 0x20 SWAP1 KECCAK256 PUSH1 0x40 DUP1 MLOAD PUSH1 0xC0 DUP2 ADD SWAP1 SWAP2 MSTORE PUSH1 0x3 DUP5 MUL SWAP1 SWAP2 ADD DUP1 SLOAD DUP3 SWAP1 PUSH1 0xFF AND PUSH1 0x2 DUP2 GT ISZERO PUSH2 0x325 JUMPI PUSH2 0x325 PUSH2 0x1B7B JUMP JUMPDEST PUSH1 0x2 DUP2 GT ISZERO PUSH2 0x336 JUMPI PUSH2 0x336 PUSH2 0x1B7B JUMP JUMPDEST DUP2 MSTORE DUP2 SLOAD PUSH1 0x1 PUSH1 0x1 PUSH1 0x40 SHL SUB PUSH2 0x100 DUP3 DIV DUP2 AND PUSH1 0x20 DUP1 DUP6 ADD SWAP2 SWAP1 SWAP2 MSTORE PUSH1 0x1 PUSH1 0x48 SHL DUP4 DIV DUP3 AND PUSH1 0x40 DUP1 DUP7 ADD SWAP2 SWAP1 SWAP2 MSTORE PUSH1 0x1 PUSH1 0x88 SHL SWAP1 SWAP4 DIV DUP3 AND PUSH1 0x60 DUP6 ADD MSTORE PUSH1 0x1 DUP6 ADD SLOAD SWAP1 SWAP2 AND PUSH1 0x80 DUP5 ADD MSTORE PUSH1 0x2 DUP5 ADD DUP1 SLOAD DUP4 MLOAD DUP2 DUP5 MUL DUP2 ADD DUP5 ADD SWAP1 SWAP5 MSTORE DUP1 DUP5 MSTORE PUSH1 0xA0 SWAP1 SWAP5 ADD SWAP4 SWAP1 SWAP2 PUSH1 0x0 SWAP1 DUP5 ADD JUMPDEST DUP3 DUP3 LT ISZERO PUSH2 0x47C JUMPI PUSH1 0x0 DUP5 DUP2 MSTORE PUSH1 0x20 SWAP1 DUP2 SWAP1 KECCAK256 PUSH1 0x40 DUP1 MLOAD DUP1 DUP3 ADD SWAP1 SWAP2 MSTORE PUSH1 0x2 DUP6 MUL SWAP1 SWAP2 ADD DUP1 SLOAD PUSH1 0x1 PUSH1 0x1 PUSH1 0xA0 SHL SUB AND DUP3 MSTORE PUSH1 0x1 DUP2 ADD DUP1 SLOAD SWAP3 SWAP4 SWAP2 SWAP3 SWAP2 DUP5 ADD SWAP2 PUSH2 0x3EB SWAP1 PUSH2 0x1F34 JUMP JUMPDEST DUP1 PUSH1 0x1F ADD PUSH1 0x20 DUP1 SWAP2 DIV MUL PUSH1 0x20 ADD PUSH1 0x40 MLOAD SWAP1 DUP2 ADD PUSH1 0x40 MSTORE DUP1 SWAP3 SWAP2 SWAP1 DUP2 DUP2 MSTORE PUSH1 0x20 ADD DUP3 DUP1 SLOAD PUSH2 0x417 SWAP1 PUSH2 0x1F34 JUMP JUMPDEST DUP1 ISZERO PUSH2 0x464 JUMPI DUP1 PUSH1 0x1F LT PUSH2 0x439 JUMPI PUSH2 0x100 DUP1 DUP4 SLOAD DIV MUL DUP4 MSTORE SWAP2 PUSH1 0x20 ADD SWAP2 PUSH2 0x464 JUMP JUMPDEST DUP3 ADD SWAP2 SWAP1 PUSH1 0x0 MSTORE PUSH1 0x20 PUSH1 0x0 KECCAK256 SWAP1 JUMPDEST DUP2 SLOAD DUP2 MSTORE SWAP1 PUSH1 0x1 ADD SWAP1 PUSH1 0x20 ADD DUP1 DUP4 GT PUSH2 0x447 JUMPI DUP3 SWAP1 SUB PUSH1 0x1F AND DUP3 ADD SWAP2 JUMPDEST POP POP POP POP POP DUP2 MSTORE POP POP DUP2 MSTORE PUSH1 0x20 ADD SWAP1 PUSH1 0x1 ADD SWAP1 PUSH2 0x3A3 JUMP JUMPDEST POP POP POP POP DUP2 MSTORE POP POP DUP2 MSTORE PUSH1 0x20 ADD SWAP1 PUSH1 0x1 ADD SWAP1 PUSH2 0x2EA JUMP JUMPDEST POP POP POP POP SWAP1 POP SWAP1 JUMP JUMPDEST PUSH10 0x474F5645524E414E4345 PUSH1 0xB0 SHL PUSH2 0x4B4 DUP2 CALLER PUSH2 0x633 JUMP JUMPDEST PUSH2 0x4D9 JUMPI PUSH1 0x40 MLOAD PUSH3 0x461BCD PUSH1 0xE5 SHL DUP2 MSTORE PUSH1 0x4 ADD PUSH2 0x4D0 SWAP1 PUSH2 0x1F6E JUMP JUMPDEST PUSH1 0x40 MLOAD DUP1 SWAP2 SUB SWAP1 REVERT JUMPDEST PUSH1 0x0 DUP1 JUMPDEST DUP4 DUP2 LT ISZERO PUSH2 0x554 JUMPI PUSH1 0x0 PUSH2 0x521 DUP7 DUP7 DUP5 DUP2 DUP2 LT PUSH2 0x4FC JUMPI PUSH2 0x4FC PUSH2 0x1F96 JUMP JUMPDEST SWAP1 POP PUSH1 0x20 MUL DUP2 ADD SWAP1 PUSH2 0x50E SWAP2 SWAP1 PUSH2 0x1FAC JUMP JUMPDEST PUSH2 0x51C SWAP1 PUSH1 0x20 DUP2 ADD SWAP1 PUSH2 0x1FCC JUMP JUMPDEST PUSH2 0xE66 JUMP JUMPDEST SWAP1 POP DUP3 PUSH1 0x1 PUSH1 0x1 PUSH1 0x40 SHL SUB AND DUP2 PUSH1 0x1 PUSH1 0x1 PUSH1 0x40 SHL SUB AND GT ISZERO PUSH2 0x541 JUMPI DUP1 SWAP3 POP JUMPDEST POP DUP1 PUSH2 0x54C DUP2 PUSH2 0x202F JUMP JUMPDEST SWAP2 POP POP PUSH2 0x4DD JUMP JUMPDEST POP PUSH1 0x0 DUP1 PUSH2 0x563 DUP4 DUP8 DUP8 PUSH2 0xF23 JUMP JUMPDEST SWAP2 POP SWAP2 POP DUP3 PUSH1 0x1 PUSH1 0x1 PUSH1 0x40 SHL SUB AND PUSH1 0x0 SUB PUSH2 0x582 JUMPI PUSH2 0x582 DUP3 DUP3 PUSH2 0x10F8 JUMP JUMPDEST POP POP POP POP POP POP JUMP JUMPDEST CALLER ADDRESS EQ PUSH2 0x5A9 JUMPI PUSH1 0x40 MLOAD PUSH3 0x461BCD PUSH1 0xE5 SHL DUP2 MSTORE PUSH1 0x4 ADD PUSH2 0x4D0 SWAP1 PUSH2 0x1F6E JUMP JUMPDEST PUSH10 0x474F5645524E414E4345 PUSH1 0xB0 SHL DUP3 EQ DUP1 PUSH2 0x5CA JUMPI POP PUSH4 0x5645544F PUSH1 0xE0 SHL DUP3 EQ JUMPDEST PUSH2 0x605 JUMPI PUSH1 0x40 MLOAD PUSH3 0x461BCD PUSH1 0xE5 SHL DUP2 MSTORE PUSH1 0x20 PUSH1 0x4 DUP3 ADD MSTORE PUSH1 0xC PUSH1 0x24 DUP3 ADD MSTORE PUSH12 0x696E76616C696420726F6C65 PUSH1 0xA0 SHL PUSH1 0x44 DUP3 ADD MSTORE PUSH1 0x64 ADD PUSH2 0x4D0 JUMP JUMPDEST PUSH2 0x60F DUP3 DUP3 PUSH2 0x12C7 JUMP JUMPDEST POP POP JUMP JUMPDEST PUSH1 0x0 DUP2 DUP2 MSTORE PUSH1 0x20 DUP2 SWAP1 MSTORE PUSH1 0x40 SWAP1 KECCAK256 PUSH1 0x60 SWAP1 PUSH2 0x62D SWAP1 PUSH2 0x12DF JUMP JUMPDEST SWAP3 SWAP2 POP POP JUMP JUMPDEST PUSH1 0x0 DUP3 DUP2 MSTORE PUSH1 0x20 DUP2 SWAP1 MSTORE PUSH1 0x40 DUP2 KECCAK256 PUSH2 0x64B SWAP1 DUP4 PUSH2 0x12EC JUMP JUMPDEST SWAP4 SWAP3 POP POP POP JUMP JUMPDEST PUSH1 0x0 DUP2 DUP2 MSTORE PUSH1 0x20 DUP2 SWAP1 MSTORE PUSH1 0x40 DUP2 KECCAK256 PUSH2 0x62D SWAP1 PUSH2 0x130E JUMP JUMPDEST CALLER ADDRESS EQ PUSH2 0x688 JUMPI PUSH1 0x40 MLOAD PUSH3 0x461BCD PUSH1 0xE5 SHL DUP2 MSTORE PUSH1 0x4 ADD PUSH2 0x4D0 SWAP1 PUSH2 0x1F6E JUMP JUMPDEST PUSH10 0x474F5645524E414E4345 PUSH1 0xB0 SHL DUP3 EQ ISZERO DUP1 PUSH2 0x6AC JUMPI POP PUSH1 0x1 PUSH2 0x6AA DUP4 PUSH2 0x652 JUMP JUMPDEST GT JUMPDEST PUSH2 0x6F8 JUMPI PUSH1 0x40 MLOAD PUSH3 0x461BCD PUSH1 0xE5 SHL DUP2 MSTORE PUSH1 0x20 PUSH1 0x4 DUP3 ADD MSTORE PUSH1 0x1A PUSH1 0x24 DUP3 ADD MSTORE PUSH32 0x6E656564206174206C65617374206F6E6520676F7665726E6F72000000000000 PUSH1 0x44 DUP3 ADD MSTORE PUSH1 0x64 ADD PUSH2 0x4D0 JUMP JUMPDEST PUSH2 0x60F DUP3 DUP3 PUSH2 0x1318 JUMP JUMPDEST PUSH2 0x719 PUSH10 0x474F5645524E414E4345 PUSH1 0xB0 SHL CALLER PUSH2 0x633 JUMP JUMPDEST DUP1 PUSH2 0x730 JUMPI POP PUSH2 0x730 PUSH4 0x5645544F PUSH1 0xE0 SHL CALLER PUSH2 0x633 JUMP JUMPDEST PUSH2 0x74C JUMPI PUSH1 0x40 MLOAD PUSH3 0x461BCD PUSH1 0xE5 SHL DUP2 MSTORE PUSH1 0x4 ADD PUSH2 0x4D0 SWAP1 PUSH2 0x1F6E JUMP JUMPDEST PUSH1 0x0 DUP1 PUSH2 0x758 DUP4 PUSH2 0x1330 JUMP JUMPDEST PUSH1 0x40 MLOAD SWAP2 SWAP4 POP SWAP2 POP PUSH1 0x1 PUSH1 0x1 PUSH1 0x40 SHL SUB DUP5 AND SWAP1 PUSH32 0x4BB934CF1C626B3439A169BA2F7710E204C468538FC3A2F54942FD8EE60046AF SWAP1 PUSH1 0x0 SWAP1 LOG2 PUSH2 0x79D DUP3 DUP3 PUSH1 0x1 PUSH2 0x13FB JUMP JUMPDEST POP POP POP JUMP JUMPDEST CALLER ADDRESS EQ PUSH2 0x7C1 JUMPI PUSH1 0x40 MLOAD PUSH3 0x461BCD PUSH1 0xE5 SHL DUP2 MSTORE PUSH1 0x4 ADD PUSH2 0x4D0 SWAP1 PUSH2 0x1F6E JUMP JUMPDEST PUSH1 0x1 PUSH1 0x1 PUSH1 0xE0 SHL SUB NOT DUP3 AND PUSH1 0x0 DUP2 DUP2 MSTORE PUSH1 0x2 PUSH1 0x20 SWAP1 DUP2 MSTORE PUSH1 0x40 SWAP2 DUP3 SWAP1 KECCAK256 DUP1 SLOAD PUSH8 0xFFFFFFFFFFFFFFFF NOT AND PUSH1 0x1 PUSH1 0x1 PUSH1 0x40 SHL SUB DUP7 AND SWAP1 DUP2 OR SWAP1 SWAP2 SSTORE SWAP2 MLOAD SWAP2 DUP3 MSTORE PUSH32 0x816C272A68B4BFF071BF7F969473D64B07DCEE749DC4B37A85BE0EA27F05EFD SWAP2 ADD PUSH1 0x40 MLOAD DUP1 SWAP2 SUB SWAP1 LOG2 POP POP JUMP JUMPDEST PUSH1 0x60 PUSH1 0x0 DUP3 PUSH1 0x1 PUSH1 0x1 PUSH1 0x40 SHL SUB DUP2 GT ISZERO PUSH2 0x84B JUMPI PUSH2 0x84B PUSH2 0x2048 JUMP JUMPDEST PUSH1 0x40 MLOAD SWAP1 DUP1 DUP3 MSTORE DUP1 PUSH1 0x20 MUL PUSH1 0x20 ADD DUP3 ADD PUSH1 0x40 MSTORE DUP1 ISZERO PUSH2 0x8AD JUMPI DUP2 PUSH1 0x20 ADD JUMPDEST PUSH1 0x40 DUP1 MLOAD PUSH1 0xC0 DUP2 ADD DUP3 MSTORE PUSH1 0x0 DUP1 DUP3 MSTORE PUSH1 0x20 DUP1 DUP4 ADD DUP3 SWAP1 MSTORE SWAP3 DUP3 ADD DUP2 SWAP1 MSTORE PUSH1 0x60 DUP1 DUP4 ADD DUP3 SWAP1 MSTORE PUSH1 0x80 DUP4 ADD SWAP2 SWAP1 SWAP2 MSTORE PUSH1 0xA0 DUP3 ADD MSTORE DUP3 MSTORE PUSH1 0x0 NOT SWAP1 SWAP3 ADD SWAP2 ADD DUP2 PUSH2 0x869 JUMPI SWAP1 POP JUMPDEST POP SWAP1 POP PUSH1 0x0 JUMPDEST DUP4 DUP2 LT ISZERO PUSH2 0xA99 JUMPI PUSH1 0x4 PUSH2 0x8C7 DUP3 DUP8 PUSH2 0x205E JUMP JUMPDEST DUP2 SLOAD DUP2 LT PUSH2 0x8D7 JUMPI PUSH2 0x8D7 PUSH2 0x1F96 JUMP JUMPDEST PUSH1 0x0 SWAP2 DUP3 MSTORE PUSH1 0x20 SWAP1 SWAP2 KECCAK256 PUSH1 0x40 DUP1 MLOAD PUSH1 0xC0 DUP2 ADD SWAP1 SWAP2 MSTORE PUSH1 0x3 SWAP1 SWAP3 MUL ADD DUP1 SLOAD DUP3 SWAP1 PUSH1 0xFF AND PUSH1 0x2 DUP2 GT ISZERO PUSH2 0x90A JUMPI PUSH2 0x90A PUSH2 0x1B7B JUMP JUMPDEST PUSH1 0x2 DUP2 GT ISZERO PUSH2 0x91B JUMPI PUSH2 0x91B PUSH2 0x1B7B JUMP JUMPDEST DUP2 MSTORE DUP2 SLOAD PUSH1 0x1 PUSH1 0x1 PUSH1 0x40 SHL SUB PUSH2 0x100 DUP3 DIV DUP2 AND PUSH1 0x20 DUP1 DUP6 ADD SWAP2 SWAP1 SWAP2 MSTORE PUSH1 0x1 PUSH1 0x48 SHL DUP4 DIV DUP3 AND PUSH1 0x40 DUP1 DUP7 ADD SWAP2 SWAP1 SWAP2 MSTORE PUSH1 0x1 PUSH1 0x88 SHL SWAP1 SWAP4 DIV DUP3 AND PUSH1 0x60 DUP6 ADD MSTORE PUSH1 0x1 DUP6 ADD SLOAD SWAP1 SWAP2 AND PUSH1 0x80 DUP5 ADD MSTORE PUSH1 0x2 DUP5 ADD DUP1 SLOAD DUP4 MLOAD DUP2 DUP5 MUL DUP2 ADD DUP5 ADD SWAP1 SWAP5 MSTORE DUP1 DUP5 MSTORE PUSH1 0xA0 SWAP1 SWAP5 ADD SWAP4 SWAP1 SWAP2 PUSH1 0x0 SWAP1 DUP5 ADD JUMPDEST DUP3 DUP3 LT ISZERO PUSH2 0xA61 JUMPI PUSH1 0x0 DUP5 DUP2 MSTORE PUSH1 0x20 SWAP1 DUP2 SWAP1 KECCAK256 PUSH1 0x40 DUP1 MLOAD DUP1 DUP3 ADD SWAP1 SWAP2 MSTORE PUSH1 0x2 DUP6 MUL SWAP1 SWAP2 ADD DUP1 SLOAD PUSH1 0x1 PUSH1 0x1 PUSH1 0xA0 SHL SUB AND DUP3 MSTORE PUSH1 0x1 DUP2 ADD DUP1 SLOAD SWAP3 SWAP4 SWAP2 SWAP3 SWAP2 DUP5 ADD SWAP2 PUSH2 0x9D0 SWAP1 PUSH2 0x1F34 JUMP JUMPDEST DUP1 PUSH1 0x1F ADD PUSH1 0x20 DUP1 SWAP2 DIV MUL PUSH1 0x20 ADD PUSH1 0x40 MLOAD SWAP1 DUP2 ADD PUSH1 0x40 MSTORE DUP1 SWAP3 SWAP2 SWAP1 DUP2 DUP2 MSTORE PUSH1 0x20 ADD DUP3 DUP1 SLOAD PUSH2 0x9FC SWAP1 PUSH2 0x1F34 JUMP JUMPDEST DUP1 ISZERO PUSH2 0xA49 JUMPI DUP1 PUSH1 0x1F LT PUSH2 0xA1E JUMPI PUSH2 0x100 DUP1 DUP4 SLOAD DIV MUL DUP4 MSTORE SWAP2 PUSH1 0x20 ADD SWAP2 PUSH2 0xA49 JUMP JUMPDEST DUP3 ADD SWAP2 SWAP1 PUSH1 0x0 MSTORE PUSH1 0x20 PUSH1 0x0 KECCAK256 SWAP1 JUMPDEST DUP2 SLOAD DUP2 MSTORE SWAP1 PUSH1 0x1 ADD SWAP1 PUSH1 0x20 ADD DUP1 DUP4 GT PUSH2 0xA2C JUMPI DUP3 SWAP1 SUB PUSH1 0x1F AND DUP3 ADD SWAP2 JUMPDEST POP POP POP POP POP DUP2 MSTORE POP POP DUP2 MSTORE PUSH1 0x20 ADD SWAP1 PUSH1 0x1 ADD SWAP1 PUSH2 0x988 JUMP JUMPDEST POP POP POP POP DUP2 MSTORE POP POP DUP3 DUP3 DUP2 MLOAD DUP2 LT PUSH2 0xA7B JUMPI PUSH2 0xA7B PUSH2 0x1F96 JUMP JUMPDEST PUSH1 0x20 MUL PUSH1 0x20 ADD ADD DUP2 SWAP1 MSTORE POP DUP1 DUP1 PUSH2 0xA91 SWAP1 PUSH2 0x202F JUMP JUMPDEST SWAP2 POP POP PUSH2 0x8B3 JUMP JUMPDEST POP SWAP4 SWAP3 POP POP POP JUMP JUMPDEST PUSH1 0x60 PUSH1 0x4 DUP1 SLOAD DUP1 PUSH1 0x20 MUL PUSH1 0x20 ADD PUSH1 0x40 MLOAD SWAP1 DUP2 ADD PUSH1 0x40 MSTORE DUP1 SWAP3 SWAP2 SWAP1 DUP2 DUP2 MSTORE PUSH1 0x20 ADD PUSH1 0x0 SWAP1 JUMPDEST DUP3 DUP3 LT ISZERO PUSH2 0x493 JUMPI PUSH1 0x0 DUP5 DUP2 MSTORE PUSH1 0x20 SWAP1 KECCAK256 PUSH1 0x40 DUP1 MLOAD PUSH1 0xC0 DUP2 ADD SWAP1 SWAP2 MSTORE PUSH1 0x3 DUP5 MUL SWAP1 SWAP2 ADD DUP1 SLOAD DUP3 SWAP1 PUSH1 0xFF AND PUSH1 0x2 DUP2 GT ISZERO PUSH2 0xB00 JUMPI PUSH2 0xB00 PUSH2 0x1B7B JUMP JUMPDEST PUSH1 0x2 DUP2 GT ISZERO PUSH2 0xB11 JUMPI PUSH2 0xB11 PUSH2 0x1B7B JUMP JUMPDEST DUP2 MSTORE DUP2 SLOAD PUSH1 0x1 PUSH1 0x1 PUSH1 0x40 SHL SUB PUSH2 0x100 DUP3 DIV DUP2 AND PUSH1 0x20 DUP1 DUP6 ADD SWAP2 SWAP1 SWAP2 MSTORE PUSH1 0x1 PUSH1 0x48 SHL DUP4 DIV DUP3 AND PUSH1 0x40 DUP1 DUP7 ADD SWAP2 SWAP1 SWAP2 MSTORE PUSH1 0x1 PUSH1 0x88 SHL SWAP1 SWAP4 DIV DUP3 AND PUSH1 0x60 DUP6 ADD MSTORE PUSH1 0x1 DUP6 ADD SLOAD SWAP1 SWAP2 AND PUSH1 0x80 DUP5 ADD MSTORE PUSH1 0x2 DUP5 ADD DUP1 SLOAD DUP4 MLOAD DUP2 DUP5 MUL DUP2 ADD DUP5 ADD SWAP1 SWAP5 MSTORE DUP1 DUP5 MSTORE PUSH1 0xA0 SWAP1 SWAP5 ADD SWAP4 SWAP1 SWAP2 PUSH1 0x0 SWAP1 DUP5 ADD JUMPDEST DUP3 DUP3 LT ISZERO PUSH2 0xC57 JUMPI PUSH1 0x0 DUP5 DUP2 MSTORE PUSH1 0x20 SWAP1 DUP2 SWAP1 KECCAK256 PUSH1 0x40 DUP1 MLOAD DUP1 DUP3 ADD SWAP1 SWAP2 MSTORE PUSH1 0x2 DUP6 MUL SWAP1 SWAP2 ADD DUP1 SLOAD PUSH1 0x1 PUSH1 0x1 PUSH1 0xA0 SHL SUB AND DUP3 MSTORE PUSH1 0x1 DUP2 ADD DUP1 SLOAD SWAP3 SWAP4 SWAP2 SWAP3 SWAP2 DUP5 ADD SWAP2 PUSH2 0xBC6 SWAP1 PUSH2 0x1F34 JUMP JUMPDEST DUP1 PUSH1 0x1F ADD PUSH1 0x20 DUP1 SWAP2 DIV MUL PUSH1 0x20 ADD PUSH1 0x40 MLOAD SWAP1 DUP2 ADD PUSH1 0x40 MSTORE DUP1 SWAP3 SWAP2 SWAP1 DUP2 DUP2 MSTORE PUSH1 0x20 ADD DUP3 DUP1 SLOAD PUSH2 0xBF2 SWAP1 PUSH2 0x1F34 JUMP JUMPDEST DUP1 ISZERO PUSH2 0xC3F JUMPI DUP1 PUSH1 0x1F LT PUSH2 0xC14 JUMPI PUSH2 0x100 DUP1 DUP4 SLOAD DIV MUL DUP4 MSTORE SWAP2 PUSH1 0x20 ADD SWAP2 PUSH2 0xC3F JUMP JUMPDEST DUP3 ADD SWAP2 SWAP1 PUSH1 0x0 MSTORE PUSH1 0x20 PUSH1 0x0 KECCAK256 SWAP1 JUMPDEST DUP2 SLOAD DUP2 MSTORE SWAP1 PUSH1 0x1 ADD SWAP1 PUSH1 0x20 ADD DUP1 DUP4 GT PUSH2 0xC22 JUMPI DUP3 SWAP1 SUB PUSH1 0x1F AND DUP3 ADD SWAP2 JUMPDEST POP POP POP POP POP DUP2 MSTORE POP POP DUP2 MSTORE PUSH1 0x20 ADD SWAP1 PUSH1 0x1 ADD SWAP1 PUSH2 0xB7E JUMP JUMPDEST POP POP POP POP DUP2 MSTORE POP POP DUP2 MSTORE PUSH1 0x20 ADD SWAP1 PUSH1 0x1 ADD SWAP1 PUSH2 0xAC5 JUMP JUMPDEST PUSH1 0x40 DUP1 MLOAD PUSH1 0xC0 DUP2 ADD DUP3 MSTORE PUSH1 0x0 DUP1 DUP3 MSTORE PUSH1 0x20 DUP3 ADD DUP2 SWAP1 MSTORE SWAP2 DUP2 ADD DUP3 SWAP1 MSTORE PUSH1 0x60 DUP1 DUP3 ADD DUP4 SWAP1 MSTORE PUSH1 0x80 DUP3 ADD SWAP3 SWAP1 SWAP3 MSTORE PUSH1 0xA0 DUP2 ADD SWAP2 SWAP1 SWAP2 MSTORE PUSH2 0xCAB DUP3 PUSH2 0x1330 JUMP JUMPDEST PUSH1 0x40 DUP1 MLOAD PUSH1 0xC0 DUP2 ADD SWAP1 SWAP2 MSTORE DUP3 SLOAD DUP4 SWAP1 DUP3 SWAP1 PUSH1 0xFF AND PUSH1 0x2 DUP2 GT ISZERO PUSH2 0xCD0 JUMPI PUSH2 0xCD0 PUSH2 0x1B7B JUMP JUMPDEST PUSH1 0x2 DUP2 GT ISZERO PUSH2 0xCE1 JUMPI PUSH2 0xCE1 PUSH2 0x1B7B JUMP JUMPDEST DUP2 MSTORE DUP2 SLOAD PUSH1 0x1 PUSH1 0x1 PUSH1 0x40 SHL SUB PUSH2 0x100 DUP3 DIV DUP2 AND PUSH1 0x20 DUP1 DUP6 ADD SWAP2 SWAP1 SWAP2 MSTORE PUSH1 0x1 PUSH1 0x48 SHL DUP4 DIV DUP3 AND PUSH1 0x40 DUP1 DUP7 ADD SWAP2 SWAP1 SWAP2 MSTORE PUSH1 0x1 PUSH1 0x88 SHL SWAP1 SWAP4 DIV DUP3 AND PUSH1 0x60 DUP6 ADD MSTORE PUSH1 0x1 DUP6 ADD SLOAD SWAP1 SWAP2 AND PUSH1 0x80 DUP5 ADD MSTORE PUSH1 0x2 DUP5 ADD DUP1 SLOAD DUP4 MLOAD DUP2 DUP5 MUL DUP2 ADD DUP5 ADD SWAP1 SWAP5 MSTORE DUP1 DUP5 MSTORE PUSH1 0xA0 SWAP1 SWAP5 ADD SWAP4 SWAP1 SWAP2 PUSH1 0x0 SWAP1 DUP5 ADD JUMPDEST DUP3 DUP3 LT ISZERO PUSH2 0xE27 JUMPI PUSH1 0x0 DUP5 DUP2 MSTORE PUSH1 0x20 SWAP1 DUP2 SWAP1 KECCAK256 PUSH1 0x40 DUP1 MLOAD DUP1 DUP3 ADD SWAP1 SWAP2 MSTORE PUSH1 0x2 DUP6 MUL SWAP1 SWAP2 ADD DUP1 SLOAD PUSH1 0x1 PUSH1 0x1 PUSH1 0xA0 SHL SUB AND DUP3 MSTORE PUSH1 0x1 DUP2 ADD DUP1 SLOAD SWAP3 SWAP4 SWAP2 SWAP3 SWAP2 DUP5 ADD SWAP2 PUSH2 0xD96 SWAP1 PUSH2 0x1F34 JUMP JUMPDEST DUP1 PUSH1 0x1F ADD PUSH1 0x20 DUP1 SWAP2 DIV MUL PUSH1 0x20 ADD PUSH1 0x40 MLOAD SWAP1 DUP2 ADD PUSH1 0x40 MSTORE DUP1 SWAP3 SWAP2 SWAP1 DUP2 DUP2 MSTORE PUSH1 0x20 ADD DUP3 DUP1 SLOAD PUSH2 0xDC2 SWAP1 PUSH2 0x1F34 JUMP JUMPDEST DUP1 ISZERO PUSH2 0xE0F JUMPI DUP1 PUSH1 0x1F LT PUSH2 0xDE4 JUMPI PUSH2 0x100 DUP1 DUP4 SLOAD DIV MUL DUP4 MSTORE SWAP2 PUSH1 0x20 ADD SWAP2 PUSH2 0xE0F JUMP JUMPDEST DUP3 ADD SWAP2 SWAP1 PUSH1 0x0 MSTORE PUSH1 0x20 PUSH1 0x0 KECCAK256 SWAP1 JUMPDEST DUP2 SLOAD DUP2 MSTORE SWAP1 PUSH1 0x1 ADD SWAP1 PUSH1 0x20 ADD DUP1 DUP4 GT PUSH2 0xDF2 JUMPI DUP3 SWAP1 SUB PUSH1 0x1F AND DUP3 ADD SWAP2 JUMPDEST POP POP POP POP POP DUP2 MSTORE POP POP DUP2 MSTORE PUSH1 0x20 ADD SWAP1 PUSH1 0x1 ADD SWAP1 PUSH2 0xD4E JUMP JUMPDEST POP POP POP SWAP2 MSTORE POP SWAP1 SWAP6 SWAP5 POP POP POP POP POP JUMP JUMPDEST PUSH1 0x0 DUP1 PUSH2 0xE43 DUP4 PUSH2 0x1330 JUMP JUMPDEST SWAP2 POP SWAP2 POP PUSH2 0x79D DUP3 DUP3 PUSH2 0x10F8 JUMP JUMPDEST PUSH1 0x0 PUSH2 0x64B DUP4 PUSH1 0x1 PUSH1 0x1 PUSH1 0xA0 SHL SUB DUP5 AND PUSH2 0x1559 JUMP JUMPDEST PUSH1 0x0 DUP1 PUSH2 0xE76 PUSH1 0x4 DUP3 DUP6 DUP8 PUSH2 0x2071 JUMP JUMPDEST PUSH2 0xE7F SWAP2 PUSH2 0x209B JUMP JUMPDEST SWAP1 POP PUSH4 0x12E97401 PUSH1 0xE1 SHL PUSH1 0x1 PUSH1 0x1 PUSH1 0xE0 SHL SUB NOT DUP3 AND ADD PUSH2 0xEFA JUMPI PUSH1 0x0 PUSH2 0xEA8 DUP5 PUSH1 0x4 DUP2 DUP9 PUSH2 0x2071 JUMP JUMPDEST DUP1 DUP1 PUSH1 0x1F ADD PUSH1 0x20 DUP1 SWAP2 DIV MUL PUSH1 0x20 ADD PUSH1 0x40 MLOAD SWAP1 DUP2 ADD PUSH1 0x40 MSTORE DUP1 SWAP4 SWAP3 SWAP2 SWAP1 DUP2 DUP2 MSTORE PUSH1 0x20 ADD DUP4 DUP4 DUP1 DUP3 DUP5 CALLDATACOPY PUSH1 0x0 SWAP3 ADD SWAP2 SWAP1 SWAP2 MSTORE POP POP DUP3 MLOAD SWAP3 SWAP4 POP PUSH2 0xEF5 SWAP3 DUP5 ADD PUSH1 0x20 SWAP1 DUP2 ADD SWAP3 POP DUP5 ADD SWAP1 POP PUSH2 0x20CB JUMP JUMPDEST POP SWAP2 POP POP JUMPDEST PUSH1 0x1 PUSH1 0x1 PUSH1 0xE0 SHL SUB NOT AND PUSH1 0x0 SWAP1 DUP2 MSTORE PUSH1 0x2 PUSH1 0x20 MSTORE PUSH1 0x40 SWAP1 KECCAK256 SLOAD PUSH1 0x1 PUSH1 0x1 PUSH1 0x40 SHL SUB AND SWAP4 SWAP3 POP POP POP JUMP JUMPDEST PUSH1 0x1 DUP1 SLOAD PUSH1 0x0 SWAP2 DUP3 SWAP2 DUP3 SWAP2 PUSH1 0x1 PUSH1 0x1 PUSH1 0x40 SHL SUB SWAP1 SWAP2 AND SWAP1 DUP3 PUSH2 0xF44 DUP4 PUSH2 0x20F9 JUMP JUMPDEST DUP3 SLOAD PUSH2 0x100 SWAP3 DUP4 EXP PUSH1 0x1 PUSH1 0x1 PUSH1 0x40 SHL SUB DUP2 DUP2 MUL NOT SWAP1 SWAP3 AND SWAP3 DUP3 AND MUL SWAP2 SWAP1 SWAP2 OR SWAP1 SWAP3 SSTORE PUSH1 0x3 DUP1 SLOAD PUSH1 0x1 DUP2 ADD DUP3 SSTORE PUSH1 0x0 DUP3 DUP2 MSTORE PUSH32 0xC2575A0E9E593C00F959F8C92F12DB2869C3395A3B0502D05E2516446F71F85B SWAP2 SWAP1 SWAP3 MUL SWAP1 DUP2 ADD DUP1 SLOAD PUSH32 0xC2575A0E9E593C00F959F8C92F12DB2869C3395A3B0502D05E2516446F71F85C SWAP1 SWAP3 ADD DUP1 SLOAD PUSH8 0xFFFFFFFFFFFFFFFF NOT AND SWAP1 SSTORE PUSH2 0x100 PUSH1 0x1 PUSH1 0x88 SHL SUB NOT SWAP1 SWAP2 AND DUP6 DUP6 AND SWAP1 SWAP4 MUL PUSH8 0xFFFFFFFFFFFFFFFF PUSH1 0x48 SHL NOT AND SWAP3 SWAP1 SWAP3 OR PUSH1 0x1 PUSH1 0x48 SHL TIMESTAMP DUP6 AND MUL OR PUSH25 0xFFFFFFFFFFFFFFFF00000000000000000000000000000000FF NOT AND PUSH1 0x1 PUSH1 0x88 SHL SWAP4 DUP12 AND SWAP4 SWAP1 SWAP4 MUL PUSH1 0xFF NOT AND SWAP3 SWAP1 SWAP3 OR DUP2 SSTORE SWAP5 POP SWAP1 SWAP2 POP JUMPDEST DUP5 DUP2 LT ISZERO PUSH2 0x10A0 JUMPI DUP4 PUSH1 0x2 ADD DUP7 DUP7 DUP4 DUP2 DUP2 LT PUSH2 0x1057 JUMPI PUSH2 0x1057 PUSH2 0x1F96 JUMP JUMPDEST SWAP1 POP PUSH1 0x20 MUL DUP2 ADD SWAP1 PUSH2 0x1069 SWAP2 SWAP1 PUSH2 0x1FAC JUMP JUMPDEST DUP2 SLOAD PUSH1 0x1 DUP2 ADD DUP4 SSTORE PUSH1 0x0 SWAP3 DUP4 MSTORE PUSH1 0x20 SWAP1 SWAP3 KECCAK256 SWAP1 SWAP2 PUSH1 0x2 MUL ADD PUSH2 0x108B DUP3 DUP3 PUSH2 0x2165 JUMP JUMPDEST POP POP DUP1 DUP1 PUSH2 0x1098 SWAP1 PUSH2 0x202F JUMP JUMPDEST SWAP2 POP POP PUSH2 0x1039 JUMP JUMPDEST POP PUSH1 0x3 SLOAD PUSH2 0x10B0 SWAP1 PUSH1 0x1 SWAP1 PUSH2 0x2280 JUMP JUMPDEST SWAP2 POP PUSH32 0xEA6E341F82FB9F110709EFB8C6306F361297EFE562F52A900DD723067675762A DUP6 DUP6 DUP9 DUP5 PUSH1 0x40 MLOAD PUSH2 0x10E7 SWAP5 SWAP4 SWAP3 SWAP2 SWAP1 PUSH2 0x2293 JUMP JUMPDEST PUSH1 0x40 MLOAD DUP1 SWAP2 SUB SWAP1 LOG1 POP SWAP4 POP SWAP4 SWAP2 POP POP JUMP JUMPDEST DUP2 SLOAD TIMESTAMP SWAP1 PUSH2 0x111F SWAP1 PUSH1 0x1 PUSH1 0x1 PUSH1 0x40 SHL SUB PUSH1 0x1 PUSH1 0x88 SHL DUP3 DIV DUP2 AND SWAP2 PUSH1 0x1 PUSH1 0x48 SHL SWAP1 DIV AND PUSH2 0x23A2 JUMP JUMPDEST PUSH1 0x1 PUSH1 0x1 PUSH1 0x40 SHL SUB AND GT ISZERO PUSH2 0x1176 JUMPI PUSH1 0x40 MLOAD PUSH3 0x461BCD PUSH1 0xE5 SHL DUP2 MSTORE PUSH1 0x20 PUSH1 0x4 DUP3 ADD MSTORE PUSH1 0x1D PUSH1 0x24 DUP3 ADD MSTORE PUSH32 0x646561646C696E6520686173206E6F74206265656E2072656163686564000000 PUSH1 0x44 DUP3 ADD MSTORE PUSH1 0x64 ADD PUSH2 0x4D0 JUMP JUMPDEST PUSH1 0x0 JUMPDEST PUSH1 0x2 DUP4 ADD SLOAD DUP2 LT ISZERO PUSH2 0x127F JUMPI PUSH2 0x126C DUP4 PUSH1 0x2 ADD DUP3 DUP2 SLOAD DUP2 LT PUSH2 0x119D JUMPI PUSH2 0x119D PUSH2 0x1F96 JUMP JUMPDEST SWAP1 PUSH1 0x0 MSTORE PUSH1 0x20 PUSH1 0x0 KECCAK256 SWAP1 PUSH1 0x2 MUL ADD PUSH1 0x1 ADD DUP1 SLOAD PUSH2 0x11B9 SWAP1 PUSH2 0x1F34 JUMP JUMPDEST DUP1 PUSH1 0x1F ADD PUSH1 0x20 DUP1 SWAP2 DIV MUL PUSH1 0x20 ADD PUSH1 0x40 MLOAD SWAP1 DUP2 ADD PUSH1 0x40 MSTORE DUP1 SWAP3 SWAP2 SWAP1 DUP2 DUP2 MSTORE PUSH1 0x20 ADD DUP3 DUP1 SLOAD PUSH2 0x11E5 SWAP1 PUSH2 0x1F34 JUMP JUMPDEST DUP1 ISZERO PUSH2 0x1232 JUMPI DUP1 PUSH1 0x1F LT PUSH2 0x1207 JUMPI PUSH2 0x100 DUP1 DUP4 SLOAD DIV MUL DUP4 MSTORE SWAP2 PUSH1 0x20 ADD SWAP2 PUSH2 0x1232 JUMP JUMPDEST DUP3 ADD SWAP2 SWAP1 PUSH1 0x0 MSTORE PUSH1 0x20 PUSH1 0x0 KECCAK256 SWAP1 JUMPDEST DUP2 SLOAD DUP2 MSTORE SWAP1 PUSH1 0x1 ADD SWAP1 PUSH1 0x20 ADD DUP1 DUP4 GT PUSH2 0x1215 JUMPI DUP3 SWAP1 SUB PUSH1 0x1F AND DUP3 ADD SWAP2 JUMPDEST POP POP POP POP POP DUP5 PUSH1 0x2 ADD DUP4 DUP2 SLOAD DUP2 LT PUSH2 0x124C JUMPI PUSH2 0x124C PUSH2 0x1F96 JUMP JUMPDEST PUSH1 0x0 SWAP2 DUP3 MSTORE PUSH1 0x20 SWAP1 SWAP2 KECCAK256 PUSH1 0x2 SWAP1 SWAP2 MUL ADD SLOAD PUSH1 0x1 PUSH1 0x1 PUSH1 0xA0 SHL SUB AND SWAP1 PUSH2 0x15A8 JUMP JUMPDEST POP DUP1 PUSH2 0x1277 DUP2 PUSH2 0x202F JUMP JUMPDEST SWAP2 POP POP PUSH2 0x1179 JUMP JUMPDEST POP DUP2 SLOAD PUSH1 0x40 MLOAD PUSH2 0x100 SWAP1 SWAP2 DIV PUSH1 0x1 PUSH1 0x1 PUSH1 0x40 SHL SUB AND SWAP1 PUSH32 0x4093C58D6D95B5DC15BBCA26257F9D4618824328023882D9CF600066A1F4BF34 SWAP1 PUSH1 0x0 SWAP1 LOG2 PUSH2 0x60F DUP3 DUP3 PUSH1 0x2 PUSH2 0x13FB JUMP JUMPDEST PUSH1 0x0 DUP3 DUP2 MSTORE PUSH1 0x20 DUP2 SWAP1 MSTORE PUSH1 0x40 SWAP1 KECCAK256 PUSH2 0x79D SWAP1 DUP3 PUSH2 0xE51 JUMP JUMPDEST PUSH1 0x60 PUSH1 0x0 PUSH2 0x64B DUP4 PUSH2 0x15EC JUMP JUMPDEST PUSH1 0x1 PUSH1 0x1 PUSH1 0xA0 SHL SUB DUP2 AND PUSH1 0x0 SWAP1 DUP2 MSTORE PUSH1 0x1 DUP4 ADD PUSH1 0x20 MSTORE PUSH1 0x40 DUP2 KECCAK256 SLOAD ISZERO ISZERO PUSH2 0x64B JUMP JUMPDEST PUSH1 0x0 PUSH2 0x62D DUP3 SLOAD SWAP1 JUMP JUMPDEST PUSH1 0x0 DUP3 DUP2 MSTORE PUSH1 0x20 DUP2 SWAP1 MSTORE PUSH1 0x40 SWAP1 KECCAK256 PUSH2 0x79D SWAP1 DUP3 PUSH2 0x1648 JUMP JUMPDEST PUSH1 0x0 DUP1 PUSH1 0x0 JUMPDEST PUSH1 0x3 SLOAD DUP2 LT ISZERO PUSH2 0x13BF JUMPI DUP4 PUSH1 0x1 PUSH1 0x1 PUSH1 0x40 SHL SUB AND PUSH1 0x3 DUP3 DUP2 SLOAD DUP2 LT PUSH2 0x135D JUMPI PUSH2 0x135D PUSH2 0x1F96 JUMP JUMPDEST PUSH1 0x0 SWAP2 DUP3 MSTORE PUSH1 0x20 SWAP1 SWAP2 KECCAK256 PUSH1 0x3 SWAP1 SWAP2 MUL ADD SLOAD PUSH2 0x100 SWAP1 DIV PUSH1 0x1 PUSH1 0x1 PUSH1 0x40 SHL SUB AND SUB PUSH2 0x13AD JUMPI PUSH1 0x3 DUP2 DUP2 SLOAD DUP2 LT PUSH2 0x1394 JUMPI PUSH2 0x1394 PUSH2 0x1F96 JUMP JUMPDEST SWAP1 PUSH1 0x0 MSTORE PUSH1 0x20 PUSH1 0x0 KECCAK256 SWAP1 PUSH1 0x3 MUL ADD DUP2 SWAP3 POP SWAP3 POP POP SWAP2 POP SWAP2 JUMP JUMPDEST DUP1 PUSH2 0x13B7 DUP2 PUSH2 0x202F JUMP JUMPDEST SWAP2 POP POP PUSH2 0x1336 JUMP JUMPDEST POP PUSH1 0x40 MLOAD PUSH3 0x461BCD PUSH1 0xE5 SHL DUP2 MSTORE PUSH1 0x20 PUSH1 0x4 DUP3 ADD MSTORE PUSH1 0x10 PUSH1 0x24 DUP3 ADD MSTORE PUSH16 0x18DA185B99D9481B9BDD08199BDD5B99 PUSH1 0x82 SHL PUSH1 0x44 DUP3 ADD MSTORE PUSH1 0x64 ADD PUSH2 0x4D0 JUMP JUMPDEST DUP3 SLOAD DUP2 SWAP1 DUP5 SWAP1 PUSH1 0xFF NOT AND PUSH1 0x1 DUP4 PUSH1 0x2 DUP2 GT ISZERO PUSH2 0x1419 JUMPI PUSH2 0x1419 PUSH2 0x1B7B JUMP JUMPDEST MUL OR SWAP1 SSTORE POP PUSH1 0x1 DUP1 DUP5 ADD DUP1 SLOAD PUSH1 0x1 PUSH1 0x1 PUSH1 0x40 SHL SUB TIMESTAMP AND PUSH8 0xFFFFFFFFFFFFFFFF NOT SWAP1 SWAP2 AND OR SWAP1 SSTORE PUSH1 0x4 DUP1 SLOAD DUP1 DUP4 ADD DUP3 SSTORE PUSH1 0x0 SWAP2 SWAP1 SWAP2 MSTORE DUP5 SLOAD PUSH1 0x3 SWAP1 SWAP2 MUL PUSH32 0x8A35ACFBC15FF81A39AE7D344FD709F28E8600B4AA8C65C6B64BFE7FE36BD19B ADD DUP1 SLOAD DUP7 SWAP4 SWAP2 SWAP3 PUSH1 0xFF AND SWAP2 DUP4 SWAP2 PUSH1 0xFF NOT AND SWAP1 DUP4 PUSH1 0x2 DUP2 GT ISZERO PUSH2 0x149A JUMPI PUSH2 0x149A PUSH2 0x1B7B JUMP JUMPDEST MUL OR SWAP1 SSTORE POP DUP2 SLOAD DUP2 SLOAD PUSH1 0x1 PUSH1 0x1 PUSH1 0x40 SHL SUB PUSH2 0x100 SWAP3 DUP4 SWAP1 DIV DUP2 AND SWAP1 SWAP3 MUL PUSH9 0xFFFFFFFFFFFFFFFF00 NOT DUP3 AND DUP2 OR DUP5 SSTORE DUP5 SLOAD PUSH1 0x1 PUSH1 0x48 SHL SWAP1 DUP2 SWAP1 DIV DUP5 AND MUL PUSH8 0xFFFFFFFFFFFFFFFF PUSH1 0x48 SHL NOT SWAP1 SWAP2 AND PUSH2 0x100 PUSH1 0x1 PUSH1 0x88 SHL SUB NOT SWAP1 SWAP3 AND SWAP2 SWAP1 SWAP2 OR OR DUP1 DUP4 SSTORE DUP4 SLOAD PUSH1 0x1 PUSH1 0x88 SHL SWAP1 DUP2 SWAP1 DIV DUP4 AND MUL PUSH8 0xFFFFFFFFFFFFFFFF PUSH1 0x88 SHL NOT SWAP1 SWAP2 AND OR DUP3 SSTORE PUSH1 0x1 DUP1 DUP5 ADD SLOAD SWAP1 DUP4 ADD DUP1 SLOAD PUSH8 0xFFFFFFFFFFFFFFFF NOT AND SWAP2 SWAP1 SWAP3 AND OR SWAP1 SSTORE PUSH1 0x2 DUP1 DUP4 ADD DUP1 SLOAD PUSH2 0x154D SWAP3 DUP5 ADD SWAP2 SWAP1 PUSH2 0x1A5A JUMP JUMPDEST POP POP POP PUSH2 0x79D DUP3 PUSH2 0x165D JUMP JUMPDEST PUSH1 0x0 DUP2 DUP2 MSTORE PUSH1 0x1 DUP4 ADD PUSH1 0x20 MSTORE PUSH1 0x40 DUP2 KECCAK256 SLOAD PUSH2 0x15A0 JUMPI POP DUP2 SLOAD PUSH1 0x1 DUP2 DUP2 ADD DUP5 SSTORE PUSH1 0x0 DUP5 DUP2 MSTORE PUSH1 0x20 DUP1 DUP3 KECCAK256 SWAP1 SWAP4 ADD DUP5 SWAP1 SSTORE DUP5 SLOAD DUP5 DUP3 MSTORE DUP3 DUP7 ADD SWAP1 SWAP4 MSTORE PUSH1 0x40 SWAP1 KECCAK256 SWAP2 SWAP1 SWAP2 SSTORE PUSH2 0x62D JUMP JUMPDEST POP PUSH1 0x0 PUSH2 0x62D JUMP JUMPDEST PUSH1 0x60 PUSH2 0x64B DUP4 DUP4 PUSH1 0x0 PUSH1 0x40 MLOAD DUP1 PUSH1 0x40 ADD PUSH1 0x40 MSTORE DUP1 PUSH1 0x1E DUP2 MSTORE PUSH1 0x20 ADD PUSH32 0x416464726573733A206C6F772D6C6576656C2063616C6C206661696C65640000 DUP2 MSTORE POP PUSH2 0x17E5 JUMP JUMPDEST PUSH1 0x60 DUP2 PUSH1 0x0 ADD DUP1 SLOAD DUP1 PUSH1 0x20 MUL PUSH1 0x20 ADD PUSH1 0x40 MLOAD SWAP1 DUP2 ADD PUSH1 0x40 MSTORE DUP1 SWAP3 SWAP2 SWAP1 DUP2 DUP2 MSTORE PUSH1 0x20 ADD DUP3 DUP1 SLOAD DUP1 ISZERO PUSH2 0x163C JUMPI PUSH1 0x20 MUL DUP3 ADD SWAP2 SWAP1 PUSH1 0x0 MSTORE PUSH1 0x20 PUSH1 0x0 KECCAK256 SWAP1 JUMPDEST DUP2 SLOAD DUP2 MSTORE PUSH1 0x20 ADD SWAP1 PUSH1 0x1 ADD SWAP1 DUP1 DUP4 GT PUSH2 0x1628 JUMPI JUMPDEST POP POP POP POP POP SWAP1 POP SWAP2 SWAP1 POP JUMP JUMPDEST PUSH1 0x0 PUSH2 0x64B DUP4 PUSH1 0x1 PUSH1 0x1 PUSH1 0xA0 SHL SUB DUP5 AND PUSH2 0x18C2 JUMP JUMPDEST PUSH1 0x3 DUP1 SLOAD PUSH2 0x166D SWAP1 PUSH1 0x1 SWAP1 PUSH2 0x2280 JUMP JUMPDEST DUP2 SLOAD DUP2 LT PUSH2 0x167D JUMPI PUSH2 0x167D PUSH2 0x1F96 JUMP JUMPDEST SWAP1 PUSH1 0x0 MSTORE PUSH1 0x20 PUSH1 0x0 KECCAK256 SWAP1 PUSH1 0x3 MUL ADD PUSH1 0x3 DUP3 DUP2 SLOAD DUP2 LT PUSH2 0x169E JUMPI PUSH2 0x169E PUSH2 0x1F96 JUMP JUMPDEST PUSH1 0x0 SWAP2 DUP3 MSTORE PUSH1 0x20 SWAP1 SWAP2 KECCAK256 DUP3 SLOAD PUSH1 0x3 SWAP1 SWAP3 MUL ADD DUP1 SLOAD SWAP1 SWAP2 PUSH1 0xFF AND SWAP1 DUP3 SWAP1 PUSH1 0xFF NOT AND PUSH1 0x1 DUP4 PUSH1 0x2 DUP2 GT ISZERO PUSH2 0x16D2 JUMPI PUSH2 0x16D2 PUSH2 0x1B7B JUMP JUMPDEST MUL OR SWAP1 SSTORE POP DUP2 SLOAD DUP2 SLOAD PUSH1 0x1 PUSH1 0x1 PUSH1 0x40 SHL SUB PUSH2 0x100 SWAP3 DUP4 SWAP1 DIV DUP2 AND SWAP1 SWAP3 MUL PUSH9 0xFFFFFFFFFFFFFFFF00 NOT DUP3 AND DUP2 OR DUP5 SSTORE DUP5 SLOAD PUSH1 0x1 PUSH1 0x48 SHL SWAP1 DUP2 SWAP1 DIV DUP5 AND MUL PUSH8 0xFFFFFFFFFFFFFFFF PUSH1 0x48 SHL NOT SWAP1 SWAP2 AND PUSH2 0x100 PUSH1 0x1 PUSH1 0x88 SHL SUB NOT SWAP1 SWAP3 AND SWAP2 SWAP1 SWAP2 OR OR DUP1 DUP4 SSTORE DUP4 SLOAD PUSH1 0x1 PUSH1 0x88 SHL SWAP1 DUP2 SWAP1 DIV DUP4 AND MUL PUSH8 0xFFFFFFFFFFFFFFFF PUSH1 0x88 SHL NOT SWAP1 SWAP2 AND OR DUP3 SSTORE PUSH1 0x1 DUP1 DUP5 ADD SLOAD SWAP1 DUP4 ADD DUP1 SLOAD PUSH8 0xFFFFFFFFFFFFFFFF NOT AND SWAP2 SWAP1 SWAP3 AND OR SWAP1 SSTORE PUSH1 0x2 DUP1 DUP4 ADD DUP1 SLOAD PUSH2 0x1785 SWAP3 DUP5 ADD SWAP2 SWAP1 PUSH2 0x1A5A JUMP JUMPDEST POP SWAP1 POP POP PUSH1 0x3 DUP1 SLOAD DUP1 PUSH2 0x179A JUMPI PUSH2 0x179A PUSH2 0x23C2 JUMP JUMPDEST PUSH1 0x0 DUP3 DUP2 MSTORE PUSH1 0x20 DUP2 KECCAK256 PUSH1 0x3 PUSH1 0x0 NOT SWAP1 SWAP4 ADD SWAP3 DUP4 MUL ADD DUP1 SLOAD PUSH1 0x1 PUSH1 0x1 PUSH1 0xC8 SHL SUB NOT AND DUP2 SSTORE PUSH1 0x1 DUP2 ADD DUP1 SLOAD PUSH8 0xFFFFFFFFFFFFFFFF NOT AND SWAP1 SSTORE SWAP1 PUSH2 0x17DE PUSH1 0x2 DUP4 ADD DUP3 PUSH2 0x1ADF JUMP JUMPDEST POP POP SWAP1 SSTORE POP JUMP JUMPDEST PUSH1 0x60 DUP3 SELFBALANCE LT ISZERO PUSH2 0x1846 JUMPI PUSH1 0x40 MLOAD PUSH3 0x461BCD PUSH1 0xE5 SHL DUP2 MSTORE PUSH1 0x20 PUSH1 0x4 DUP3 ADD MSTORE PUSH1 0x26 PUSH1 0x24 DUP3 ADD MSTORE PUSH32 0x416464726573733A20696E73756666696369656E742062616C616E636520666F PUSH1 0x44 DUP3 ADD MSTORE PUSH6 0x1C8818D85B1B PUSH1 0xD2 SHL PUSH1 0x64 DUP3 ADD MSTORE PUSH1 0x84 ADD PUSH2 0x4D0 JUMP JUMPDEST PUSH1 0x0 DUP1 DUP7 PUSH1 0x1 PUSH1 0x1 PUSH1 0xA0 SHL SUB AND DUP6 DUP8 PUSH1 0x40 MLOAD PUSH2 0x1862 SWAP2 SWAP1 PUSH2 0x23D8 JUMP JUMPDEST PUSH1 0x0 PUSH1 0x40 MLOAD DUP1 DUP4 SUB DUP2 DUP6 DUP8 GAS CALL SWAP3 POP POP POP RETURNDATASIZE DUP1 PUSH1 0x0 DUP2 EQ PUSH2 0x189F JUMPI PUSH1 0x40 MLOAD SWAP2 POP PUSH1 0x1F NOT PUSH1 0x3F RETURNDATASIZE ADD AND DUP3 ADD PUSH1 0x40 MSTORE RETURNDATASIZE DUP3 MSTORE RETURNDATASIZE PUSH1 0x0 PUSH1 0x20 DUP5 ADD RETURNDATACOPY PUSH2 0x18A4 JUMP JUMPDEST PUSH1 0x60 SWAP2 POP JUMPDEST POP SWAP2 POP SWAP2 POP PUSH2 0x18B5 DUP8 DUP4 DUP4 DUP8 PUSH2 0x19BC JUMP JUMPDEST SWAP3 POP POP POP JUMPDEST SWAP5 SWAP4 POP POP POP POP JUMP JUMPDEST PUSH1 0x0 DUP2 DUP2 MSTORE PUSH1 0x1 DUP4 ADD PUSH1 0x20 MSTORE PUSH1 0x40 DUP2 KECCAK256 SLOAD DUP1 ISZERO PUSH2 0x19AB JUMPI PUSH1 0x0 PUSH2 0x18E6 PUSH1 0x1 DUP4 PUSH2 0x2280 JUMP JUMPDEST DUP6 SLOAD SWAP1 SWAP2 POP PUSH1 0x0 SWAP1 PUSH2 0x18FA SWAP1 PUSH1 0x1 SWAP1 PUSH2 0x2280 JUMP JUMPDEST SWAP1 POP DUP2 DUP2 EQ PUSH2 0x195F JUMPI PUSH1 0x0 DUP7 PUSH1 0x0 ADD DUP3 DUP2 SLOAD DUP2 LT PUSH2 0x191A JUMPI PUSH2 0x191A PUSH2 0x1F96 JUMP JUMPDEST SWAP1 PUSH1 0x0 MSTORE PUSH1 0x20 PUSH1 0x0 KECCAK256 ADD SLOAD SWAP1 POP DUP1 DUP8 PUSH1 0x0 ADD DUP5 DUP2 SLOAD DUP2 LT PUSH2 0x193D JUMPI PUSH2 0x193D PUSH2 0x1F96 JUMP JUMPDEST PUSH1 0x0 SWAP2 DUP3 MSTORE PUSH1 0x20 DUP1 DUP4 KECCAK256 SWAP1 SWAP2 ADD SWAP3 SWAP1 SWAP3 SSTORE SWAP2 DUP3 MSTORE PUSH1 0x1 DUP9 ADD SWAP1 MSTORE PUSH1 0x40 SWAP1 KECCAK256 DUP4 SWAP1 SSTORE JUMPDEST DUP6 SLOAD DUP7 SWAP1 DUP1 PUSH2 0x1970 JUMPI PUSH2 0x1970 PUSH2 0x23C2 JUMP JUMPDEST PUSH1 0x1 SWAP1 SUB DUP2 DUP2 SWAP1 PUSH1 0x0 MSTORE PUSH1 0x20 PUSH1 0x0 KECCAK256 ADD PUSH1 0x0 SWAP1 SSTORE SWAP1 SSTORE DUP6 PUSH1 0x1 ADD PUSH1 0x0 DUP7 DUP2 MSTORE PUSH1 0x20 ADD SWAP1 DUP2 MSTORE PUSH1 0x20 ADD PUSH1 0x0 KECCAK256 PUSH1 0x0 SWAP1 SSTORE PUSH1 0x1 SWAP4 POP POP POP POP PUSH2 0x62D JUMP JUMPDEST PUSH1 0x0 SWAP2 POP POP PUSH2 0x62D JUMP JUMPDEST POP SWAP3 SWAP2 POP POP JUMP JUMPDEST PUSH1 0x60 DUP4 ISZERO PUSH2 0x1A2B JUMPI DUP3 MLOAD PUSH1 0x0 SUB PUSH2 0x1A24 JUMPI PUSH1 0x1 PUSH1 0x1 PUSH1 0xA0 SHL SUB DUP6 AND EXTCODESIZE PUSH2 0x1A24 JUMPI PUSH1 0x40 MLOAD PUSH3 0x461BCD PUSH1 0xE5 SHL DUP2 MSTORE PUSH1 0x20 PUSH1 0x4 DUP3 ADD MSTORE PUSH1 0x1D PUSH1 0x24 DUP3 ADD MSTORE PUSH32 0x416464726573733A2063616C6C20746F206E6F6E2D636F6E7472616374000000 PUSH1 0x44 DUP3 ADD MSTORE PUSH1 0x64 ADD PUSH2 0x4D0 JUMP JUMPDEST POP DUP2 PUSH2 0x18BA JUMP JUMPDEST PUSH2 0x18BA DUP4 DUP4 DUP2 MLOAD ISZERO PUSH2 0x1A40 JUMPI DUP2 MLOAD DUP1 DUP4 PUSH1 0x20 ADD REVERT JUMPDEST DUP1 PUSH1 0x40 MLOAD PUSH3 0x461BCD PUSH1 0xE5 SHL DUP2 MSTORE PUSH1 0x4 ADD PUSH2 0x4D0 SWAP2 SWAP1 PUSH2 0x23EA JUMP JUMPDEST DUP3 DUP1 SLOAD DUP3 DUP3 SSTORE SWAP1 PUSH1 0x0 MSTORE PUSH1 0x20 PUSH1 0x0 KECCAK256 SWAP1 PUSH1 0x2 MUL DUP2 ADD SWAP3 DUP3 ISZERO PUSH2 0x1ACF JUMPI PUSH1 0x0 MSTORE PUSH1 0x20 PUSH1 0x0 KECCAK256 SWAP2 PUSH1 0x2 MUL DUP3 ADD JUMPDEST DUP3 DUP2 GT ISZERO PUSH2 0x1ACF JUMPI DUP3 SLOAD DUP3 SLOAD PUSH1 0x1 PUSH1 0x1 PUSH1 0xA0 SHL SUB NOT AND PUSH1 0x1 PUSH1 0x1 PUSH1 0xA0 SHL SUB SWAP1 SWAP2 AND OR DUP3 SSTORE DUP3 DUP3 PUSH1 0x1 DUP1 DUP3 ADD SWAP1 PUSH2 0x1ABD SWAP1 DUP5 ADD DUP3 PUSH2 0x23FD JUMP JUMPDEST POP POP POP SWAP2 PUSH1 0x2 ADD SWAP2 SWAP1 PUSH1 0x2 ADD SWAP1 PUSH2 0x1A85 JUMP JUMPDEST POP PUSH2 0x1ADB SWAP3 SWAP2 POP PUSH2 0x1B03 JUMP JUMPDEST POP SWAP1 JUMP JUMPDEST POP DUP1 SLOAD PUSH1 0x0 DUP3 SSTORE PUSH1 0x2 MUL SWAP1 PUSH1 0x0 MSTORE PUSH1 0x20 PUSH1 0x0 KECCAK256 SWAP1 DUP2 ADD SWAP1 PUSH2 0x1B00 SWAP2 SWAP1 PUSH2 0x1B03 JUMP JUMPDEST POP JUMP JUMPDEST DUP1 DUP3 GT ISZERO PUSH2 0x1ADB JUMPI DUP1 SLOAD PUSH1 0x1 PUSH1 0x1 PUSH1 0xA0 SHL SUB NOT AND DUP2 SSTORE PUSH1 0x0 PUSH2 0x1B28 PUSH1 0x1 DUP4 ADD DUP3 PUSH2 0x1B31 JUMP JUMPDEST POP PUSH1 0x2 ADD PUSH2 0x1B03 JUMP JUMPDEST POP DUP1 SLOAD PUSH2 0x1B3D SWAP1 PUSH2 0x1F34 JUMP JUMPDEST PUSH1 0x0 DUP3 SSTORE DUP1 PUSH1 0x1F LT PUSH2 0x1B4D JUMPI POP POP JUMP JUMPDEST PUSH1 0x1F ADD PUSH1 0x20 SWAP1 DIV SWAP1 PUSH1 0x0 MSTORE PUSH1 0x20 PUSH1 0x0 KECCAK256 SWAP1 DUP2 ADD SWAP1 PUSH2 0x1B00 SWAP2 SWAP1 JUMPDEST DUP1 DUP3 GT ISZERO PUSH2 0x1ADB JUMPI PUSH1 0x0 DUP2 SSTORE PUSH1 0x1 ADD PUSH2 0x1B67 JUMP JUMPDEST PUSH4 0x4E487B71 PUSH1 0xE0 SHL PUSH1 0x0 MSTORE PUSH1 0x21 PUSH1 0x4 MSTORE PUSH1 0x24 PUSH1 0x0 REVERT JUMPDEST PUSH1 0x0 JUMPDEST DUP4 DUP2 LT ISZERO PUSH2 0x1BAC JUMPI DUP2 DUP2 ADD MLOAD DUP4 DUP3 ADD MSTORE PUSH1 0x20 ADD PUSH2 0x1B94 JUMP JUMPDEST POP POP PUSH1 0x0 SWAP2 ADD MSTORE JUMP JUMPDEST PUSH1 0x0 DUP2 MLOAD DUP1 DUP5 MSTORE PUSH2 0x1BCD DUP2 PUSH1 0x20 DUP7 ADD PUSH1 0x20 DUP7 ADD PUSH2 0x1B91 JUMP JUMPDEST PUSH1 0x1F ADD PUSH1 0x1F NOT AND SWAP3 SWAP1 SWAP3 ADD PUSH1 0x20 ADD SWAP3 SWAP2 POP POP JUMP JUMPDEST PUSH1 0x0 DUP3 DUP3 MLOAD DUP1 DUP6 MSTORE PUSH1 0x20 DUP1 DUP7 ADD SWAP6 POP DUP1 DUP3 PUSH1 0x5 SHL DUP5 ADD ADD DUP2 DUP7 ADD PUSH1 0x0 JUMPDEST DUP5 DUP2 LT ISZERO PUSH2 0x1C49 JUMPI DUP6 DUP4 SUB PUSH1 0x1F NOT ADD DUP10 MSTORE DUP2 MLOAD DUP1 MLOAD PUSH1 0x1 PUSH1 0x1 PUSH1 0xA0 SHL SUB AND DUP5 MSTORE DUP5 ADD MLOAD PUSH1 0x40 DUP6 DUP6 ADD DUP2 SWAP1 MSTORE PUSH2 0x1C35 DUP2 DUP7 ADD DUP4 PUSH2 0x1BB5 JUMP JUMPDEST SWAP11 DUP7 ADD SWAP11 SWAP5 POP POP POP SWAP1 DUP4 ADD SWAP1 PUSH1 0x1 ADD PUSH2 0x1BFE JUMP JUMPDEST POP SWAP1 SWAP8 SWAP7 POP POP POP POP POP POP POP JUMP JUMPDEST PUSH1 0x0 DUP2 MLOAD PUSH1 0x3 DUP2 LT PUSH2 0x1C78 JUMPI PUSH4 0x4E487B71 PUSH1 0xE0 SHL PUSH1 0x0 MSTORE PUSH1 0x21 PUSH1 0x4 MSTORE PUSH1 0x24 PUSH1 0x0 REVERT JUMPDEST DUP1 DUP5 MSTORE POP PUSH1 0x20 DUP3 ADD MLOAD PUSH1 0x1 PUSH1 0x1 PUSH1 0x40 SHL SUB DUP1 DUP3 AND PUSH1 0x20 DUP7 ADD MSTORE DUP1 PUSH1 0x40 DUP6 ADD MLOAD AND PUSH1 0x40 DUP7 ADD MSTORE DUP1 PUSH1 0x60 DUP6 ADD MLOAD AND PUSH1 0x60 DUP7 ADD MSTORE POP POP PUSH1 0x80 DUP3 ADD MLOAD PUSH2 0x1CC5 PUSH1 0x80 DUP6 ADD DUP3 PUSH1 0x1 PUSH1 0x1 PUSH1 0x40 SHL SUB AND SWAP1 MSTORE JUMP JUMPDEST POP PUSH1 0xA0 DUP3 ADD MLOAD PUSH1 0xC0 PUSH1 0xA0 DUP6 ADD MSTORE PUSH2 0x18BA PUSH1 0xC0 DUP6 ADD DUP3 PUSH2 0x1BE1 JUMP JUMPDEST PUSH1 0x0 PUSH1 0x20 DUP1 DUP4 ADD DUP2 DUP5 MSTORE DUP1 DUP6 MLOAD DUP1 DUP4 MSTORE PUSH1 0x40 DUP7 ADD SWAP2 POP PUSH1 0x40 DUP2 PUSH1 0x5 SHL DUP8 ADD ADD SWAP3 POP DUP4 DUP8 ADD PUSH1 0x0 JUMPDEST DUP3 DUP2 LT ISZERO PUSH2 0x1D34 JUMPI PUSH1 0x3F NOT DUP9 DUP7 SUB ADD DUP5 MSTORE PUSH2 0x1D22 DUP6 DUP4 MLOAD PUSH2 0x1C56 JUMP JUMPDEST SWAP5 POP SWAP3 DUP6 ADD SWAP3 SWAP1 DUP6 ADD SWAP1 PUSH1 0x1 ADD PUSH2 0x1D06 JUMP JUMPDEST POP SWAP3 SWAP8 SWAP7 POP POP POP POP POP POP POP JUMP JUMPDEST PUSH1 0x0 DUP1 PUSH1 0x20 DUP4 DUP6 SUB SLT ISZERO PUSH2 0x1D54 JUMPI PUSH1 0x0 DUP1 REVERT JUMPDEST DUP3 CALLDATALOAD PUSH1 0x1 PUSH1 0x1 PUSH1 0x40 SHL SUB DUP1 DUP3 GT ISZERO PUSH2 0x1D6B JUMPI PUSH1 0x0 DUP1 REVERT JUMPDEST DUP2 DUP6 ADD SWAP2 POP DUP6 PUSH1 0x1F DUP4 ADD SLT PUSH2 0x1D7F JUMPI PUSH1 0x0 DUP1 REVERT JUMPDEST DUP2 CALLDATALOAD DUP2 DUP2 GT ISZERO PUSH2 0x1D8E JUMPI PUSH1 0x0 DUP1 REVERT JUMPDEST DUP7 PUSH1 0x20 DUP3 PUSH1 0x5 SHL DUP6 ADD ADD GT ISZERO PUSH2 0x1DA3 JUMPI PUSH1 0x0 DUP1 REVERT JUMPDEST PUSH1 0x20 SWAP3 SWAP1 SWAP3 ADD SWAP7 SWAP2 SWAP6 POP SWAP1 SWAP4 POP POP POP POP JUMP JUMPDEST PUSH1 0x1 PUSH1 0x1 PUSH1 0xA0 SHL SUB DUP2 AND DUP2 EQ PUSH2 0x1B00 JUMPI PUSH1 0x0 DUP1 REVERT JUMPDEST PUSH1 0x0 DUP1 PUSH1 0x40 DUP4 DUP6 SUB SLT ISZERO PUSH2 0x1DDD JUMPI PUSH1 0x0 DUP1 REVERT JUMPDEST DUP3 CALLDATALOAD SWAP2 POP PUSH1 0x20 DUP4 ADD CALLDATALOAD PUSH2 0x1DEF DUP2 PUSH2 0x1DB5 JUMP JUMPDEST DUP1 SWAP2 POP POP SWAP3 POP SWAP3 SWAP1 POP JUMP JUMPDEST PUSH1 0x0 PUSH1 0x20 DUP3 DUP5 SUB SLT ISZERO PUSH2 0x1E0C JUMPI PUSH1 0x0 DUP1 REVERT JUMPDEST POP CALLDATALOAD SWAP2 SWAP1 POP JUMP JUMPDEST PUSH1 0x20 DUP1 DUP3 MSTORE DUP3 MLOAD DUP3 DUP3 ADD DUP2 SWAP1 MSTORE PUSH1 0x0 SWAP2 SWAP1 DUP5 DUP3 ADD SWAP1 PUSH1 0x40 DUP6 ADD SWAP1 DUP5 JUMPDEST DUP2 DUP2 LT ISZERO PUSH2 0x1E54 JUMPI DUP4 MLOAD PUSH1 0x1 PUSH1 0x1 PUSH1 0xA0 SHL SUB AND DUP4 MSTORE SWAP3 DUP5 ADD SWAP3 SWAP2 DUP5 ADD SWAP2 PUSH1 0x1 ADD PUSH2 0x1E2F JUMP JUMPDEST POP SWAP1 SWAP7 SWAP6 POP POP POP POP POP POP JUMP JUMPDEST DUP1 CALLDATALOAD PUSH1 0x1 PUSH1 0x1 PUSH1 0x40 SHL SUB DUP2 AND DUP2 EQ PUSH2 0x1E77 JUMPI PUSH1 0x0 DUP1 REVERT JUMPDEST SWAP2 SWAP1 POP JUMP JUMPDEST PUSH1 0x0 PUSH1 0x20 DUP3 DUP5 SUB SLT ISZERO PUSH2 0x1E8E JUMPI PUSH1 0x0 DUP1 REVERT JUMPDEST PUSH2 0x64B DUP3 PUSH2 0x1E60 JUMP JUMPDEST PUSH1 0x1 PUSH1 0x1 PUSH1 0xE0 SHL SUB NOT DUP2 AND DUP2 EQ PUSH2 0x1B00 JUMPI PUSH1 0x0 DUP1 REVERT JUMPDEST PUSH1 0x0 DUP1 PUSH1 0x40 DUP4 DUP6 SUB SLT ISZERO PUSH2 0x1EC0 JUMPI PUSH1 0x0 DUP1 REVERT JUMPDEST DUP3 CALLDATALOAD PUSH2 0x1ECB DUP2 PUSH2 0x1E97 JUMP JUMPDEST SWAP2 POP PUSH2 0x1ED9 PUSH1 0x20 DUP5 ADD PUSH2 0x1E60 JUMP JUMPDEST SWAP1 POP SWAP3 POP SWAP3 SWAP1 POP JUMP JUMPDEST PUSH1 0x0 DUP1 PUSH1 0x40 DUP4 DUP6 SUB SLT ISZERO PUSH2 0x1EF5 JUMPI PUSH1 0x0 DUP1 REVERT JUMPDEST POP POP DUP1 CALLDATALOAD SWAP3 PUSH1 0x20 SWAP1 SWAP2 ADD CALLDATALOAD SWAP2 POP JUMP JUMPDEST PUSH1 0x0 PUSH1 0x20 DUP3 DUP5 SUB SLT ISZERO PUSH2 0x1F16 JUMPI PUSH1 0x0 DUP1 REVERT JUMPDEST DUP2 CALLDATALOAD PUSH2 0x64B DUP2 PUSH2 0x1E97 JUMP JUMPDEST PUSH1 0x20 DUP2 MSTORE PUSH1 0x0 PUSH2 0x64B PUSH1 0x20 DUP4 ADD DUP5 PUSH2 0x1C56 JUMP JUMPDEST PUSH1 0x1 DUP2 DUP2 SHR SWAP1 DUP3 AND DUP1 PUSH2 0x1F48 JUMPI PUSH1 0x7F DUP3 AND SWAP2 POP JUMPDEST PUSH1 0x20 DUP3 LT DUP2 SUB PUSH2 0x1F68 JUMPI PUSH4 0x4E487B71 PUSH1 0xE0 SHL PUSH1 0x0 MSTORE PUSH1 0x22 PUSH1 0x4 MSTORE PUSH1 0x24 PUSH1 0x0 REVERT JUMPDEST POP SWAP2 SWAP1 POP JUMP JUMPDEST PUSH1 0x20 DUP1 DUP3 MSTORE PUSH1 0xE SWAP1 DUP3 ADD MSTORE PUSH14 0x1B9BDD08185D5D1A1BDC9A5E9959 PUSH1 0x92 SHL PUSH1 0x40 DUP3 ADD MSTORE PUSH1 0x60 ADD SWAP1 JUMP JUMPDEST PUSH4 0x4E487B71 PUSH1 0xE0 SHL PUSH1 0x0 MSTORE PUSH1 0x32 PUSH1 0x4 MSTORE PUSH1 0x24 PUSH1 0x0 REVERT JUMPDEST PUSH1 0x0 DUP3 CALLDATALOAD PUSH1 0x3E NOT DUP4 CALLDATASIZE SUB ADD DUP2 SLT PUSH2 0x1FC2 JUMPI PUSH1 0x0 DUP1 REVERT JUMPDEST SWAP2 SWAP1 SWAP2 ADD SWAP3 SWAP2 POP POP JUMP JUMPDEST PUSH1 0x0 DUP1 DUP4 CALLDATALOAD PUSH1 0x1E NOT DUP5 CALLDATASIZE SUB ADD DUP2 SLT PUSH2 0x1FE3 JUMPI PUSH1 0x0 DUP1 REVERT JUMPDEST DUP4 ADD DUP1 CALLDATALOAD SWAP2 POP PUSH1 0x1 PUSH1 0x1 PUSH1 0x40 SHL SUB DUP3 GT ISZERO PUSH2 0x1FFD JUMPI PUSH1 0x0 DUP1 REVERT JUMPDEST PUSH1 0x20 ADD SWAP2 POP CALLDATASIZE DUP2 SWAP1 SUB DUP3 SGT ISZERO PUSH2 0x2012 JUMPI PUSH1 0x0 DUP1 REVERT JUMPDEST SWAP3 POP SWAP3 SWAP1 POP JUMP JUMPDEST PUSH4 0x4E487B71 PUSH1 0xE0 SHL PUSH1 0x0 MSTORE PUSH1 0x11 PUSH1 0x4 MSTORE PUSH1 0x24 PUSH1 0x0 REVERT JUMPDEST PUSH1 0x0 PUSH1 0x1 DUP3 ADD PUSH2 0x2041 JUMPI PUSH2 0x2041 PUSH2 0x2019 JUMP JUMPDEST POP PUSH1 0x1 ADD SWAP1 JUMP JUMPDEST PUSH4 0x4E487B71 PUSH1 0xE0 SHL PUSH1 0x0 MSTORE PUSH1 0x41 PUSH1 0x4 MSTORE PUSH1 0x24 PUSH1 0x0 REVERT JUMPDEST DUP1 DUP3 ADD DUP1 DUP3 GT ISZERO PUSH2 0x62D JUMPI PUSH2 0x62D PUSH2 0x2019 JUMP JUMPDEST PUSH1 0x0 DUP1 DUP6 DUP6 GT ISZERO PUSH2 0x2081 JUMPI PUSH1 0x0 DUP1 REVERT JUMPDEST DUP4 DUP7 GT ISZERO PUSH2 0x208E JUMPI PUSH1 0x0 DUP1 REVERT JUMPDEST POP POP DUP3 ADD SWAP4 SWAP2 SWAP1 SWAP3 SUB SWAP2 POP JUMP JUMPDEST PUSH1 0x1 PUSH1 0x1 PUSH1 0xE0 SHL SUB NOT DUP2 CALLDATALOAD DUP2 DUP2 AND SWAP2 PUSH1 0x4 DUP6 LT ISZERO PUSH2 0x20C3 JUMPI DUP1 DUP2 DUP7 PUSH1 0x4 SUB PUSH1 0x3 SHL SHL DUP4 AND AND SWAP3 POP JUMPDEST POP POP SWAP3 SWAP2 POP POP JUMP JUMPDEST PUSH1 0x0 DUP1 PUSH1 0x40 DUP4 DUP6 SUB SLT ISZERO PUSH2 0x20DE JUMPI PUSH1 0x0 DUP1 REVERT JUMPDEST DUP3 MLOAD PUSH2 0x20E9 DUP2 PUSH2 0x1E97 JUMP JUMPDEST PUSH1 0x20 SWAP4 SWAP1 SWAP4 ADD MLOAD SWAP3 SWAP5 SWAP3 SWAP4 POP POP POP JUMP JUMPDEST PUSH1 0x0 PUSH1 0x1 PUSH1 0x1 PUSH1 0x40 SHL SUB DUP1 DUP4 AND DUP2 DUP2 SUB PUSH2 0x2115 JUMPI PUSH2 0x2115 PUSH2 0x2019 JUMP JUMPDEST PUSH1 0x1 ADD SWAP4 SWAP3 POP POP POP JUMP JUMPDEST PUSH1 0x1F DUP3 GT ISZERO PUSH2 0x79D JUMPI PUSH1 0x0 DUP2 DUP2 MSTORE PUSH1 0x20 DUP2 KECCAK256 PUSH1 0x1F DUP6 ADD PUSH1 0x5 SHR DUP2 ADD PUSH1 0x20 DUP7 LT ISZERO PUSH2 0x2146 JUMPI POP DUP1 JUMPDEST PUSH1 0x1F DUP6 ADD PUSH1 0x5 SHR DUP3 ADD SWAP2 POP JUMPDEST DUP2 DUP2 LT ISZERO PUSH2 0x582 JUMPI DUP3 DUP2 SSTORE PUSH1 0x1 ADD PUSH2 0x2152 JUMP JUMPDEST DUP2 CALLDATALOAD PUSH2 0x2170 DUP2 PUSH2 0x1DB5 JUMP JUMPDEST DUP2 SLOAD PUSH1 0x1 PUSH1 0x1 PUSH1 0xA0 SHL SUB NOT AND PUSH1 0x1 PUSH1 0x1 PUSH1 0xA0 SHL SUB SWAP2 SWAP1 SWAP2 AND OR DUP2 SSTORE PUSH1 0x1 DUP2 DUP2 ADD PUSH1 0x20 DUP5 DUP2 ADD CALLDATALOAD CALLDATASIZE DUP7 SWAP1 SUB PUSH1 0x1E NOT ADD DUP2 SLT PUSH2 0x21A9 JUMPI PUSH1 0x0 DUP1 REVERT JUMPDEST DUP6 ADD DUP1 CALLDATALOAD PUSH1 0x1 PUSH1 0x1 PUSH1 0x40 SHL SUB DUP2 GT ISZERO PUSH2 0x21C1 JUMPI PUSH1 0x0 DUP1 REVERT JUMPDEST DUP1 CALLDATASIZE SUB DUP4 DUP4 ADD SGT ISZERO PUSH2 0x21D2 JUMPI PUSH1 0x0 DUP1 REVERT JUMPDEST PUSH2 0x21E6 DUP2 PUSH2 0x21E0 DUP7 SLOAD PUSH2 0x1F34 JUMP JUMPDEST DUP7 PUSH2 0x211F JUMP JUMPDEST PUSH1 0x0 PUSH1 0x1F DUP3 GT PUSH1 0x1 DUP2 EQ PUSH2 0x221C JUMPI PUSH1 0x0 DUP4 ISZERO PUSH2 0x2204 JUMPI POP DUP4 DUP3 ADD DUP6 ADD CALLDATALOAD JUMPDEST PUSH1 0x0 NOT PUSH1 0x3 DUP6 SWAP1 SHL SHR NOT AND PUSH1 0x1 DUP5 SWAP1 SHL OR DUP7 SSTORE PUSH2 0x2275 JUMP JUMPDEST PUSH1 0x0 DUP7 DUP2 MSTORE PUSH1 0x20 SWAP1 KECCAK256 PUSH1 0x1F NOT DUP5 AND SWAP1 DUP4 JUMPDEST DUP3 DUP2 LT ISZERO PUSH2 0x224C JUMPI DUP7 DUP6 ADD DUP9 ADD CALLDATALOAD DUP3 SSTORE SWAP4 DUP8 ADD SWAP4 SWAP1 DUP10 ADD SWAP1 DUP8 ADD PUSH2 0x222D JUMP JUMPDEST POP DUP5 DUP3 LT ISZERO PUSH2 0x226B JUMPI PUSH1 0x0 NOT PUSH1 0xF8 DUP7 PUSH1 0x3 SHL AND SHR NOT DUP8 DUP6 DUP9 ADD ADD CALLDATALOAD AND DUP2 SSTORE JUMPDEST POP POP DUP7 DUP4 DUP9 SHL ADD DUP7 SSTORE JUMPDEST POP POP POP POP POP POP POP POP POP JUMP JUMPDEST DUP2 DUP2 SUB DUP2 DUP2 GT ISZERO PUSH2 0x62D JUMPI PUSH2 0x62D PUSH2 0x2019 JUMP JUMPDEST PUSH1 0x60 DUP1 DUP3 MSTORE DUP2 DUP2 ADD DUP6 SWAP1 MSTORE PUSH1 0x0 SWAP1 PUSH1 0x80 PUSH1 0x5 DUP8 SWAP1 SHL DUP5 ADD DUP2 ADD SWAP1 DUP5 ADD DUP9 DUP5 JUMPDEST DUP10 DUP2 LT ISZERO PUSH2 0x236F JUMPI DUP7 DUP5 SUB PUSH1 0x7F NOT ADD DUP4 MSTORE DUP2 CALLDATALOAD CALLDATASIZE DUP13 SWAP1 SUB PUSH1 0x3E NOT ADD DUP2 SLT PUSH2 0x22D8 JUMPI PUSH1 0x0 DUP1 REVERT JUMPDEST DUP12 ADD PUSH1 0x40 DUP2 CALLDATALOAD PUSH2 0x22E7 DUP2 PUSH2 0x1DB5 JUMP JUMPDEST PUSH1 0x1 PUSH1 0x1 PUSH1 0xA0 SHL SUB AND DUP7 MSTORE PUSH1 0x20 DUP3 DUP2 ADD CALLDATALOAD CALLDATASIZE DUP5 SWAP1 SUB PUSH1 0x1E NOT ADD DUP2 SLT PUSH2 0x230B JUMPI PUSH1 0x0 DUP1 REVERT JUMPDEST SWAP1 SWAP3 ADD DUP3 DUP2 ADD SWAP3 SWAP1 CALLDATALOAD PUSH1 0x1 PUSH1 0x1 PUSH1 0x40 SHL SUB DUP2 GT ISZERO PUSH2 0x2328 JUMPI PUSH1 0x0 DUP1 REVERT JUMPDEST DUP1 CALLDATASIZE SUB DUP5 SGT ISZERO PUSH2 0x2337 JUMPI PUSH1 0x0 DUP1 REVERT JUMPDEST DUP3 DUP3 DUP10 ADD MSTORE DUP1 DUP4 DUP10 ADD MSTORE DUP1 DUP5 DUP11 DUP11 ADD CALLDATACOPY PUSH1 0x0 DUP9 DUP3 ADD DUP11 ADD MSTORE PUSH1 0x1F ADD PUSH1 0x1F NOT AND SWAP1 SWAP7 ADD DUP8 ADD SWAP6 SWAP5 DUP6 ADD SWAP5 SWAP4 SWAP1 SWAP4 ADD SWAP3 POP POP PUSH1 0x1 ADD PUSH2 0x22B2 JUMP JUMPDEST POP POP POP PUSH1 0x1 PUSH1 0x1 PUSH1 0x40 SHL SUB DUP7 AND PUSH1 0x20 DUP6 ADD MSTORE SWAP2 POP PUSH2 0x238A SWAP1 POP JUMP JUMPDEST PUSH1 0x1 PUSH1 0x1 PUSH1 0x40 SHL SUB DUP4 AND PUSH1 0x40 DUP4 ADD MSTORE SWAP6 SWAP5 POP POP POP POP POP JUMP JUMPDEST PUSH1 0x1 PUSH1 0x1 PUSH1 0x40 SHL SUB DUP2 DUP2 AND DUP4 DUP3 AND ADD SWAP1 DUP1 DUP3 GT ISZERO PUSH2 0x19B5 JUMPI PUSH2 0x19B5 PUSH2 0x2019 JUMP JUMPDEST PUSH4 0x4E487B71 PUSH1 0xE0 SHL PUSH1 0x0 MSTORE PUSH1 0x31 PUSH1 0x4 MSTORE PUSH1 0x24 PUSH1 0x0 REVERT JUMPDEST PUSH1 0x0 DUP3 MLOAD PUSH2 0x1FC2 DUP2 DUP5 PUSH1 0x20 DUP8 ADD PUSH2 0x1B91 JUMP JUMPDEST PUSH1 0x20 DUP2 MSTORE PUSH1 0x0 PUSH2 0x64B PUSH1 0x20 DUP4 ADD DUP5 PUSH2 0x1BB5 JUMP JUMPDEST DUP2 DUP2 SUB PUSH2 0x2408 JUMPI POP POP JUMP JUMPDEST PUSH2 0x2412 DUP3 SLOAD PUSH2 0x1F34 JUMP JUMPDEST PUSH1 0x1 PUSH1 0x1 PUSH1 0x40 SHL SUB DUP2 GT ISZERO PUSH2 0x2429 JUMPI PUSH2 0x2429 PUSH2 0x2048 JUMP JUMPDEST PUSH2 0x243D DUP2 PUSH2 0x2437 DUP5 SLOAD PUSH2 0x1F34 JUMP JUMPDEST DUP5 PUSH2 0x211F JUMP JUMPDEST PUSH1 0x0 PUSH1 0x1F DUP3 GT PUSH1 0x1 DUP2 EQ PUSH2 0x2471 JUMPI PUSH1 0x0 DUP4 ISZERO PUSH2 0x2459 JUMPI POP DUP5 DUP3 ADD SLOAD JUMPDEST PUSH1 0x0 NOT PUSH1 0x3 DUP6 SWAP1 SHL SHR NOT AND PUSH1 0x1 DUP5 SWAP1 SHL OR DUP5 SSTORE PUSH2 0x24D6 JUMP JUMPDEST PUSH1 0x0 DUP6 DUP2 MSTORE PUSH1 0x20 SWAP1 KECCAK256 PUSH1 0x1F NOT DUP5 AND SWAP1 PUSH1 0x0 DUP7 DUP2 MSTORE PUSH1 0x20 SWAP1 KECCAK256 DUP5 JUMPDEST DUP4 DUP2 LT ISZERO PUSH2 0x24AB JUMPI DUP3 DUP7 ADD SLOAD DUP3 SSTORE PUSH1 0x1 SWAP6 DUP7 ADD SWAP6 SWAP1 SWAP2 ADD SWAP1 PUSH1 0x20 ADD PUSH2 0x248B JUMP JUMPDEST POP DUP6 DUP4 LT ISZERO PUSH2 0x24C9 JUMPI DUP2 DUP6 ADD SLOAD PUSH1 0x0 NOT PUSH1 0x3 DUP9 SWAP1 SHL PUSH1 0xF8 AND SHR NOT AND DUP2 SSTORE JUMPDEST POP POP POP PUSH1 0x1 DUP4 PUSH1 0x1 SHL ADD DUP5 SSTORE JUMPDEST POP POP POP POP POP JUMP INVALID LOG2 PUSH5 0x6970667358 0x22 SLT KECCAK256 0xC8 PUSH7 0x8C7165BDB5F9E8 PUSH24 0x7EE13A4515CA548EE15AB5854D0A3FC06D06B60B4EA96473 PUSH16 0x6C634300081100330000000000000000 ","sha1":"ffeeaa2a6b4e662107dd8d64392854392b4564df","source":"// SPDX-License-Identifier: GPL-3.0-or-later\npragma solidity 0.8.17;\n\nimport \"@openzeppelin/contracts/utils/Address.sol\";\n\nimport \"./SimpleAccessControl.sol\";\nimport \"../../interfaces/access/IGovernanceProxy.sol\";\n\ncontract GovernanceProxy is IGovernanceProxy, SimpleAccessControl {\n    using Address for address;\n\n    bytes32 public constant GOVERNANCE_ROLE = \"GOVERNANCE\";\n    bytes32 public constant VETO_ROLE = \"VETO\";\n\n    uint64 public nextChangeId;\n\n    /// @notice mapping from function selector to delay in seconds\n    /// NOTE: For simplicity, delays are only based on selectors and not on the\n    /// contract address, which means that if two functions in different\n    /// contracts have the exact same name and arguments, they will share the same delay\n    mapping(bytes4 => uint64) public override delays;\n\n    /// @dev array of pending changes to execute\n    /// We perform linear searches through this using the change ID, so in theory\n    /// this could run out of gas. However, in practice, the number of pending\n    /// changes should never become large enough for this to become an issue\n    Change[] internal pendingChanges;\n\n    /// @dev this is an array of all changes that have ended, regardless of their status\n    /// this is only used to make it easier to query but should not be used from within\n    /// any contract as the length is completely unbounded\n    Change[] internal endedChanges;\n\n    constructor(address governance, address veto) {\n        _grantRole(GOVERNANCE_ROLE, governance);\n        _grantRole(VETO_ROLE, veto);\n    }\n\n    /// @return change the pending change with the given id if found\n    /// this reverts if the change is not found\n    function getPendingChange(uint64 changeId) external view returns (Change memory change) {\n        (change, ) = _findPendingChange(changeId);\n    }\n\n    /// @return all the pending changes\n    /// this should typically be quite small so no need for pagination\n    function getPendingChanges() external view returns (Change[] memory) {\n        return pendingChanges;\n    }\n\n    /// @return total number of ended changes\n    function getEndedChangesCount() external view returns (uint256) {\n        return endedChanges.length;\n    }\n\n    /// @return all the ended changes\n    /// this can become large so `getEndedChanges(uint256 offset, uint256 n)`\n    /// is the preferred way to query\n    function getEndedChanges() external view returns (Change[] memory) {\n        return endedChanges;\n    }\n\n    /// @return `n` ended changes starting from offset\n    /// This is useful is you want to paginate through the changes\n    /// note that the changes are in chronological order of execution/cancelation\n    /// which means that it might be useful to start paginatign from the end of the array\n    function getEndedChanges(uint256 offset, uint256 n) external view returns (Change[] memory) {\n        Change[] memory paginated = new Change[](n);\n        for (uint256 i; i < n; i++) {\n            paginated[i] = endedChanges[offset + i];\n        }\n        return paginated;\n    }\n\n    /// @notice Requests a list of function calls to be executed as a change\n    /// @dev If the change requires no delay, it will be executed immediately\n    /// @param calls the calls to be executed\n    /// this should be fully encoded including the selectors and the abi-encoded arguments\n    /// Changes can only be requested by governance\n    function requestChange(Call[] calldata calls) external onlyRole(GOVERNANCE_ROLE) {\n        // Calculating the maximum delay for all calls\n        uint64 maxDelay;\n        for (uint256 i; i < calls.length; i++) {\n            uint64 delay = _computeDelay(calls[i].data);\n            if (delay > maxDelay) maxDelay = delay;\n        }\n\n        (Change storage change, uint256 index) = _requestChange(maxDelay, calls);\n\n        // If the change requires no delay, execute it immediately\n        if (maxDelay == 0) {\n            _executeChange(change, index);\n        }\n    }\n\n    /// @notice Executes a change\n    /// The deadline of the change must be past\n    /// Anyone can execute a pending change but in practice, this will be called by governance too\n    function executeChange(uint64 id) external {\n        (Change storage change, uint256 index) = _findPendingChange(id);\n        _executeChange(change, index);\n    }\n\n    /// @notice Cancels a pending change\n    /// Both governance and users having veto power can cancel a pending change\n    function cancelChange(uint64 id) external {\n        require(\n            hasRole(GOVERNANCE_ROLE, msg.sender) || hasRole(VETO_ROLE, msg.sender),\n            \"not authorized\"\n        );\n\n        (Change storage change, uint256 index) = _findPendingChange(id);\n        emit ChangeCanceled(id);\n        _endChange(change, index, Status.Canceled);\n    }\n\n    // the following functions should be called through `executeChange`\n\n    function updateDelay(bytes4 selector, uint64 delay) external override {\n        require(msg.sender == address(this), \"not authorized\");\n        delays[selector] = delay;\n        emit DelayUpdated(selector, delay);\n    }\n\n    function grantRole(bytes32 role, address account) external override {\n        require(msg.sender == address(this), \"not authorized\");\n        require(role == GOVERNANCE_ROLE || role == VETO_ROLE, \"invalid role\");\n        _grantRole(role, account);\n    }\n\n    function revokeRole(bytes32 role, address account) external override {\n        require(msg.sender == address(this), \"not authorized\");\n        require(\n            role != GOVERNANCE_ROLE || getRoleMemberCount(role) > 1,\n            \"need at least one governor\"\n        );\n        _revokeRole(role, account);\n    }\n\n    // internal helpers\n\n    function _requestChange(uint64 delay, Call[] calldata calls)\n        internal\n        returns (Change storage change, uint256 index)\n    {\n        uint64 id = nextChangeId++;\n        change = pendingChanges.push();\n        change.id = id;\n        change.requestedAt = uint64(block.timestamp);\n        change.endedAt = 0;\n        change.delay = delay;\n        change.status = Status.Pending;\n        for (uint256 i; i < calls.length; i++) {\n            change.calls.push(calls[i]);\n        }\n\n        index = pendingChanges.length - 1;\n\n        emit ChangeRequested(calls, delay, id);\n    }\n\n    function _executeChange(Change storage change, uint256 index) internal {\n        require(\n            change.requestedAt + change.delay <= block.timestamp,\n            \"deadline has not been reached\"\n        );\n\n        for (uint256 i; i < change.calls.length; i++) {\n            change.calls[i].target.functionCall(change.calls[i].data);\n        }\n\n        emit ChangeExecuted(change.id);\n        _endChange(change, index, Status.Executed);\n    }\n\n    function _endChange(\n        Change storage change,\n        uint256 index,\n        Status status\n    ) internal {\n        change.status = status;\n        change.endedAt = uint64(block.timestamp);\n        endedChanges.push(change);\n        _removePendingChange(index);\n    }\n\n    function _removePendingChange(uint256 index) internal {\n        pendingChanges[index] = pendingChanges[pendingChanges.length - 1];\n        pendingChanges.pop();\n    }\n\n    function _findPendingChange(uint64 id) internal view returns (Change storage, uint256 index) {\n        for (uint256 i; i < pendingChanges.length; i++) {\n            if (pendingChanges[i].id == id) {\n                return (pendingChanges[i], i);\n            }\n        }\n        revert(\"change not found\");\n    }\n\n    function _computeDelay(bytes calldata data) internal view returns (uint64) {\n        bytes4 selector = bytes4(data[:4]);\n\n        // special case for `updateDelay`, we want to set the delay\n        // as the delay for the current function for which the delay\n        // will be changed, rather than a generic delay for `updateDelay` itself\n        // for all the other functions, we use their actual delay\n        if (selector == GovernanceProxy.updateDelay.selector) {\n            bytes memory callData = data[4:];\n            (selector, ) = abi.decode(callData, (bytes4, uint256));\n        }\n\n        return delays[selector];\n    }\n}\n","sourcePath":"contracts/access/GovernanceProxy.sol","type":"contract","deployment":{"address":"0xCb7c67bDde9F7aF0667E8d82bb87F1432Bd1d902","chainid":"1","blockHeight":16750074}}