{"abi":[{"inputs":[{"internalType":"address","name":"_debtToken","type":"address"}],"stateMutability":"nonpayable","type":"constructor","name":"constructor"},{"anonymous":false,"inputs":[{"indexed":true,"internalType":"address","name":"account","type":"address"},{"indexed":false,"internalType":"uint256","name":"debtTokenAmount","type":"uint256"},{"indexed":false,"internalType":"uint256","name":"crvAmount","type":"uint256"},{"indexed":false,"internalType":"uint256","name":"cvxAmount","type":"uint256"},{"indexed":false,"internalType":"uint256","name":"cncAmount","type":"uint256"}],"name":"DebtTokenRedeemed","type":"event"},{"anonymous":false,"inputs":[{"indexed":true,"internalType":"address","name":"sender","type":"address"},{"indexed":false,"internalType":"uint256","name":"crvAmount","type":"uint256"},{"indexed":false,"internalType":"uint256","name":"cvxAmount","type":"uint256"}],"name":"FeesReceived","type":"event"},{"anonymous":false,"inputs":[{"indexed":true,"internalType":"address","name":"previousOwner","type":"address"},{"indexed":true,"internalType":"address","name":"newOwner","type":"address"}],"name":"OwnershipTransferred","type":"event"},{"inputs":[],"name":"CNC","outputs":[{"internalType":"contract IERC20","name":"","type":"address"}],"stateMutability":"view","type":"function"},{"inputs":[],"name":"CRV","outputs":[{"internalType":"contract IERC20","name":"","type":"address"}],"stateMutability":"view","type":"function"},{"inputs":[],"name":"CVX","outputs":[{"internalType":"contract IERC20","name":"","type":"address"}],"stateMutability":"view","type":"function"},{"inputs":[],"name":"debtToken","outputs":[{"internalType":"contract IConicDebtToken","name":"","type":"address"}],"stateMutability":"view","type":"function"},{"inputs":[],"name":"exchangeRate","outputs":[{"internalType":"uint256","name":"crvPerDebtToken","type":"uint256"},{"internalType":"uint256","name":"cvxPerDebtToken","type":"uint256"},{"internalType":"uint256","name":"cncPerDebtToken","type":"uint256"}],"stateMutability":"view","type":"function"},{"inputs":[],"name":"owner","outputs":[{"internalType":"address","name":"","type":"address"}],"stateMutability":"view","type":"function"},{"inputs":[{"internalType":"uint256","name":"amountCrv","type":"uint256"},{"internalType":"uint256","name":"amountCvx","type":"uint256"}],"name":"receiveFees","outputs":[],"stateMutability":"nonpayable","type":"function"},{"inputs":[{"internalType":"uint256","name":"debtTokenAmount","type":"uint256"}],"name":"redeemDebtToken","outputs":[],"stateMutability":"nonpayable","type":"function"},{"inputs":[{"internalType":"uint256","name":"debtTokenAmount","type":"uint256"}],"name":"redeemable","outputs":[{"internalType":"uint256","name":"crvAmount","type":"uint256"},{"internalType":"uint256","name":"cvxAmount","type":"uint256"},{"internalType":"uint256","name":"cncAmount","type":"uint256"}],"stateMutability":"view","type":"function"},{"inputs":[],"name":"renounceOwnership","outputs":[],"stateMutability":"nonpayable","type":"function"},{"inputs":[{"internalType":"address","name":"newOwner","type":"address"}],"name":"transferOwnership","outputs":[],"stateMutability":"nonpayable","type":"function"}],"bytecode":"608060405234801561001057600080fd5b50604051610d32380380610d3283398101604081905261002f916100ad565b6100383361005d565b600180546001600160a01b0319166001600160a01b03929092169190911790556100dd565b600080546001600160a01b038381166001600160a01b0319831681178455604051919092169283917f8be0079c531659141344cd1fd0a4f28419497f9722a3daafe3b4186f6b6457e09190a35050565b6000602082840312156100bf57600080fd5b81516001600160a01b03811681146100d657600080fd5b9392505050565b610c46806100ec6000396000f3fe608060405234801561001057600080fd5b50600436106100a95760003560e01c8063825a926f11610071578063825a926f146101415780638da5cb5b14610154578063945c914214610165578063b37c080514610180578063f2fde38b14610193578063f8d89898146101a657600080fd5b80633ba0b9a9146100ae5780634f348758146100d6578063632473da146100eb578063715018a61461011e578063759cb53b14610126575b600080fd5b6100b66101b9565b604080519384526020840192909252908201526060015b60405180910390f35b6100e96100e43660046109b8565b610341565b005b610106739ae380f0272e2162340a5bb646c354271c0f5cfc81565b6040516001600160a01b0390911681526020016100cd565b6100e96103c0565b610106734e3fbd56cd56c3e72c1403e103b45db9da5b9d2b81565b6100b661014f3660046109da565b6103d4565b6000546001600160a01b0316610106565b61010673d533a949740bb3306d119cc777fa900ba034cd5281565b6100e961018e3660046109da565b610419565b6100e96101a13660046109f3565b610541565b600154610106906001600160a01b031681565b600080600080600160009054906101000a90046001600160a01b03166001600160a01b03166318160ddd6040518163ffffffff1660e01b8152600401602060405180830381865afa158015610212573d6000803e3d6000fd5b505050506040513d601f19601f820116820180604052508101906102369190610a23565b6040516370a0823160e01b81523060048201529091506102b990829073d533a949740bb3306d119cc777fa900ba034cd52906370a08231906024015b602060405180830381865afa15801561028f573d6000803e3d6000fd5b505050506040513d601f19601f820116820180604052508101906102b39190610a23565b906105bf565b6040516370a0823160e01b81523060048201529094506102f9908290734e3fbd56cd56c3e72c1403e103b45db9da5b9d2b906370a0823190602401610272565b6040516370a0823160e01b8152306004820152909350610339908290739ae380f0272e2162340a5bb646c354271c0f5cfc906370a0823190602401610272565b915050909192565b61036173d533a949740bb3306d119cc777fa900ba034cd523330856105eb565b610381734e3fbd56cd56c3e72c1403e103b45db9da5b9d2b3330846105eb565b604080518381526020810183905233917f213e72af0d3613bd643cff3059f872c1015e6541624e37872bf95eefbaf220a8910160405180910390a25050565b6103c861065c565b6103d260006106b6565b565b6000806000806000806103e56101b9565b919450925090506103f68784610706565b95506104028783610706565b945061040e8782610706565b959794965050505050565b6000806000610427846103d4565b600154604051632770a7eb60e21b81523360048201526024810189905293965091945092506001600160a01b031690639dc29fac90604401600060405180830381600087803b15801561047957600080fd5b505af115801561048d573d6000803e3d6000fd5b506104b3925073d533a949740bb3306d119cc777fa900ba034cd5291503390508561071e565b6104d2734e3fbd56cd56c3e72c1403e103b45db9da5b9d2b338461071e565b6104f1739ae380f0272e2162340a5bb646c354271c0f5cfc338361071e565b60408051858152602081018590529081018390526060810182905233907f02a3a976b604266e2af2f677af62b9e8e8f6885136a5c31959d548fe7abb4ec69060800160405180910390a250505050565b61054961065c565b6001600160a01b0381166105b35760405162461bcd60e51b815260206004820152602660248201527f4f776e61626c653a206e6577206f776e657220697320746865207a65726f206160448201526564647265737360d01b60648201526084015b60405180910390fd5b6105bc816106b6565b50565b6000816105ce6012600a610b36565b6105d89085610b42565b6105e29190610b59565b90505b92915050565b6040516001600160a01b03808516602483015283166044820152606481018290526106569085906323b872dd60e01b906084015b60408051601f198184030181529190526020810180516001600160e01b03166001600160e01b031990931692909217909152610753565b50505050565b6000546001600160a01b031633146103d25760405162461bcd60e51b815260206004820181905260248201527f4f776e61626c653a2063616c6c6572206973206e6f7420746865206f776e657260448201526064016105aa565b600080546001600160a01b038381166001600160a01b0319831681178455604051919092169283917f8be0079c531659141344cd1fd0a4f28419497f9722a3daafe3b4186f6b6457e09190a35050565b60006107146012600a610b36565b6105d88385610b42565b6040516001600160a01b03831660248201526044810182905261074e90849063a9059cbb60e01b9060640161061f565b505050565b60006107a8826040518060400160405280602081526020017f5361666545524332303a206c6f772d6c6576656c2063616c6c206661696c6564815250856001600160a01b03166108289092919063ffffffff16565b90508051600014806107c95750808060200190518101906107c99190610b7b565b61074e5760405162461bcd60e51b815260206004820152602a60248201527f5361666545524332303a204552433230206f7065726174696f6e20646964206e6044820152691bdd081cdd58d8d9595960b21b60648201526084016105aa565b6060610837848460008561083f565b949350505050565b6060824710156108a05760405162461bcd60e51b815260206004820152602660248201527f416464726573733a20696e73756666696369656e742062616c616e636520666f6044820152651c8818d85b1b60d21b60648201526084016105aa565b600080866001600160a01b031685876040516108bc9190610bc1565b60006040518083038185875af1925050503d80600081146108f9576040519150601f19603f3d011682016040523d82523d6000602084013e6108fe565b606091505b509150915061090f8783838761091a565b979650505050505050565b60608315610989578251600003610982576001600160a01b0385163b6109825760405162461bcd60e51b815260206004820152601d60248201527f416464726573733a2063616c6c20746f206e6f6e2d636f6e747261637400000060448201526064016105aa565b5081610837565b610837838381511561099e5781518083602001fd5b8060405162461bcd60e51b81526004016105aa9190610bdd565b600080604083850312156109cb57600080fd5b50508035926020909101359150565b6000602082840312156109ec57600080fd5b5035919050565b600060208284031215610a0557600080fd5b81356001600160a01b0381168114610a1c57600080fd5b9392505050565b600060208284031215610a3557600080fd5b5051919050565b634e487b7160e01b600052601160045260246000fd5b600181815b80851115610a8d578160001904821115610a7357610a73610a3c565b80851615610a8057918102915b93841c9390800290610a57565b509250929050565b600082610aa4575060016105e5565b81610ab1575060006105e5565b8160018114610ac75760028114610ad157610aed565b60019150506105e5565b60ff841115610ae257610ae2610a3c565b50506001821b6105e5565b5060208310610133831016604e8410600b8410161715610b10575081810a6105e5565b610b1a8383610a52565b8060001904821115610b2e57610b2e610a3c565b029392505050565b60006105e28383610a95565b80820281158282048414176105e5576105e5610a3c565b600082610b7657634e487b7160e01b600052601260045260246000fd5b500490565b600060208284031215610b8d57600080fd5b81518015158114610a1c57600080fd5b60005b83811015610bb8578181015183820152602001610ba0565b50506000910152565b60008251610bd3818460208701610b9d565b9190910192915050565b6020815260008251806020840152610bfc816040850160208701610b9d565b601f01601f1916919091016040019291505056fea26469706673582212208e1f822481b1d174fbe8d1f5a305182afd8ca4414b1104469d1b244333a1991664736f6c63430008110033","bytecodeSha1":"6fa092aa8a17e93049b343ff394d150a0ce9b54a","compiler":{"evm_version":"london","optimizer":{"enabled":true,"runs":200},"version":"0.8.17+commit.8df45f5f"},"contractName":"DebtPool","language":"Solidity","natspec":{"kind":"dev","methods":{"owner()":{"details":"Returns the address of the current owner."},"renounceOwnership()":{"details":"Leaves the contract without owner. It will not be possible to call `onlyOwner` functions. Can only be called by the current owner. NOTE: Renouncing ownership will leave the contract without an owner, thereby disabling any functionality that is only available to the owner."},"transferOwnership(address)":{"details":"Transfers ownership of the contract to a new account (`newOwner`). Can only be called by the current owner."}},"version":1},"opcodes":"PUSH1 0x80 PUSH1 0x40 MSTORE CALLVALUE DUP1 ISZERO PUSH2 0x10 JUMPI PUSH1 0x0 DUP1 REVERT JUMPDEST POP PUSH1 0x4 CALLDATASIZE LT PUSH2 0xA9 JUMPI PUSH1 0x0 CALLDATALOAD PUSH1 0xE0 SHR DUP1 PUSH4 0x825A926F GT PUSH2 0x71 JUMPI DUP1 PUSH4 0x825A926F EQ PUSH2 0x141 JUMPI DUP1 PUSH4 0x8DA5CB5B EQ PUSH2 0x154 JUMPI DUP1 PUSH4 0x945C9142 EQ PUSH2 0x165 JUMPI DUP1 PUSH4 0xB37C0805 EQ PUSH2 0x180 JUMPI DUP1 PUSH4 0xF2FDE38B EQ PUSH2 0x193 JUMPI DUP1 PUSH4 0xF8D89898 EQ PUSH2 0x1A6 JUMPI PUSH1 0x0 DUP1 REVERT JUMPDEST DUP1 PUSH4 0x3BA0B9A9 EQ PUSH2 0xAE JUMPI DUP1 PUSH4 0x4F348758 EQ PUSH2 0xD6 JUMPI DUP1 PUSH4 0x632473DA EQ PUSH2 0xEB JUMPI DUP1 PUSH4 0x715018A6 EQ PUSH2 0x11E JUMPI DUP1 PUSH4 0x759CB53B EQ PUSH2 0x126 JUMPI JUMPDEST PUSH1 0x0 DUP1 REVERT JUMPDEST PUSH2 0xB6 PUSH2 0x1B9 JUMP JUMPDEST PUSH1 0x40 DUP1 MLOAD SWAP4 DUP5 MSTORE PUSH1 0x20 DUP5 ADD SWAP3 SWAP1 SWAP3 MSTORE SWAP1 DUP3 ADD MSTORE PUSH1 0x60 ADD JUMPDEST PUSH1 0x40 MLOAD DUP1 SWAP2 SUB SWAP1 RETURN JUMPDEST PUSH2 0xE9 PUSH2 0xE4 CALLDATASIZE PUSH1 0x4 PUSH2 0x9B8 JUMP JUMPDEST PUSH2 0x341 JUMP JUMPDEST STOP JUMPDEST PUSH2 0x106 PUSH20 0x9AE380F0272E2162340A5BB646C354271C0F5CFC DUP2 JUMP JUMPDEST PUSH1 0x40 MLOAD PUSH1 0x1 PUSH1 0x1 PUSH1 0xA0 SHL SUB SWAP1 SWAP2 AND DUP2 MSTORE PUSH1 0x20 ADD PUSH2 0xCD JUMP JUMPDEST PUSH2 0xE9 PUSH2 0x3C0 JUMP JUMPDEST PUSH2 0x106 PUSH20 0x4E3FBD56CD56C3E72C1403E103B45DB9DA5B9D2B DUP2 JUMP JUMPDEST PUSH2 0xB6 PUSH2 0x14F CALLDATASIZE PUSH1 0x4 PUSH2 0x9DA JUMP JUMPDEST PUSH2 0x3D4 JUMP JUMPDEST PUSH1 0x0 SLOAD PUSH1 0x1 PUSH1 0x1 PUSH1 0xA0 SHL SUB AND PUSH2 0x106 JUMP JUMPDEST PUSH2 0x106 PUSH20 0xD533A949740BB3306D119CC777FA900BA034CD52 DUP2 JUMP JUMPDEST PUSH2 0xE9 PUSH2 0x18E CALLDATASIZE PUSH1 0x4 PUSH2 0x9DA JUMP JUMPDEST PUSH2 0x419 JUMP JUMPDEST PUSH2 0xE9 PUSH2 0x1A1 CALLDATASIZE PUSH1 0x4 PUSH2 0x9F3 JUMP JUMPDEST PUSH2 0x541 JUMP JUMPDEST PUSH1 0x1 SLOAD PUSH2 0x106 SWAP1 PUSH1 0x1 PUSH1 0x1 PUSH1 0xA0 SHL SUB AND DUP2 JUMP JUMPDEST PUSH1 0x0 DUP1 PUSH1 0x0 DUP1 PUSH1 0x1 PUSH1 0x0 SWAP1 SLOAD SWAP1 PUSH2 0x100 EXP SWAP1 DIV PUSH1 0x1 PUSH1 0x1 PUSH1 0xA0 SHL SUB AND PUSH1 0x1 PUSH1 0x1 PUSH1 0xA0 SHL SUB AND PUSH4 0x18160DDD PUSH1 0x40 MLOAD DUP2 PUSH4 0xFFFFFFFF AND PUSH1 0xE0 SHL DUP2 MSTORE PUSH1 0x4 ADD PUSH1 0x20 PUSH1 0x40 MLOAD DUP1 DUP4 SUB DUP2 DUP7 GAS STATICCALL ISZERO DUP1 ISZERO PUSH2 0x212 JUMPI RETURNDATASIZE PUSH1 0x0 DUP1 RETURNDATACOPY RETURNDATASIZE PUSH1 0x0 REVERT JUMPDEST POP POP POP POP PUSH1 0x40 MLOAD RETURNDATASIZE PUSH1 0x1F NOT PUSH1 0x1F DUP3 ADD AND DUP3 ADD DUP1 PUSH1 0x40 MSTORE POP DUP2 ADD SWAP1 PUSH2 0x236 SWAP2 SWAP1 PUSH2 0xA23 JUMP JUMPDEST PUSH1 0x40 MLOAD PUSH4 0x70A08231 PUSH1 0xE0 SHL DUP2 MSTORE ADDRESS PUSH1 0x4 DUP3 ADD MSTORE SWAP1 SWAP2 POP PUSH2 0x2B9 SWAP1 DUP3 SWAP1 PUSH20 0xD533A949740BB3306D119CC777FA900BA034CD52 SWAP1 PUSH4 0x70A08231 SWAP1 PUSH1 0x24 ADD JUMPDEST PUSH1 0x20 PUSH1 0x40 MLOAD DUP1 DUP4 SUB DUP2 DUP7 GAS STATICCALL ISZERO DUP1 ISZERO PUSH2 0x28F JUMPI RETURNDATASIZE PUSH1 0x0 DUP1 RETURNDATACOPY RETURNDATASIZE PUSH1 0x0 REVERT JUMPDEST POP POP POP POP PUSH1 0x40 MLOAD RETURNDATASIZE PUSH1 0x1F NOT PUSH1 0x1F DUP3 ADD AND DUP3 ADD DUP1 PUSH1 0x40 MSTORE POP DUP2 ADD SWAP1 PUSH2 0x2B3 SWAP2 SWAP1 PUSH2 0xA23 JUMP JUMPDEST SWAP1 PUSH2 0x5BF JUMP JUMPDEST PUSH1 0x40 MLOAD PUSH4 0x70A08231 PUSH1 0xE0 SHL DUP2 MSTORE ADDRESS PUSH1 0x4 DUP3 ADD MSTORE SWAP1 SWAP5 POP PUSH2 0x2F9 SWAP1 DUP3 SWAP1 PUSH20 0x4E3FBD56CD56C3E72C1403E103B45DB9DA5B9D2B SWAP1 PUSH4 0x70A08231 SWAP1 PUSH1 0x24 ADD PUSH2 0x272 JUMP JUMPDEST PUSH1 0x40 MLOAD PUSH4 0x70A08231 PUSH1 0xE0 SHL DUP2 MSTORE ADDRESS PUSH1 0x4 DUP3 ADD MSTORE SWAP1 SWAP4 POP PUSH2 0x339 SWAP1 DUP3 SWAP1 PUSH20 0x9AE380F0272E2162340A5BB646C354271C0F5CFC SWAP1 PUSH4 0x70A08231 SWAP1 PUSH1 0x24 ADD PUSH2 0x272 JUMP JUMPDEST SWAP2 POP POP SWAP1 SWAP2 SWAP3 JUMP JUMPDEST PUSH2 0x361 PUSH20 0xD533A949740BB3306D119CC777FA900BA034CD52 CALLER ADDRESS DUP6 PUSH2 0x5EB JUMP JUMPDEST PUSH2 0x381 PUSH20 0x4E3FBD56CD56C3E72C1403E103B45DB9DA5B9D2B CALLER ADDRESS DUP5 PUSH2 0x5EB JUMP JUMPDEST PUSH1 0x40 DUP1 MLOAD DUP4 DUP2 MSTORE PUSH1 0x20 DUP2 ADD DUP4 SWAP1 MSTORE CALLER SWAP2 PUSH32 0x213E72AF0D3613BD643CFF3059F872C1015E6541624E37872BF95EEFBAF220A8 SWAP2 ADD PUSH1 0x40 MLOAD DUP1 SWAP2 SUB SWAP1 LOG2 POP POP JUMP JUMPDEST PUSH2 0x3C8 PUSH2 0x65C JUMP JUMPDEST PUSH2 0x3D2 PUSH1 0x0 PUSH2 0x6B6 JUMP JUMPDEST JUMP JUMPDEST PUSH1 0x0 DUP1 PUSH1 0x0 DUP1 PUSH1 0x0 DUP1 PUSH2 0x3E5 PUSH2 0x1B9 JUMP JUMPDEST SWAP2 SWAP5 POP SWAP3 POP SWAP1 POP PUSH2 0x3F6 DUP8 DUP5 PUSH2 0x706 JUMP JUMPDEST SWAP6 POP PUSH2 0x402 DUP8 DUP4 PUSH2 0x706 JUMP JUMPDEST SWAP5 POP PUSH2 0x40E DUP8 DUP3 PUSH2 0x706 JUMP JUMPDEST SWAP6 SWAP8 SWAP5 SWAP7 POP POP POP POP POP JUMP JUMPDEST PUSH1 0x0 DUP1 PUSH1 0x0 PUSH2 0x427 DUP5 PUSH2 0x3D4 JUMP JUMPDEST PUSH1 0x1 SLOAD PUSH1 0x40 MLOAD PUSH4 0x2770A7EB PUSH1 0xE2 SHL DUP2 MSTORE CALLER PUSH1 0x4 DUP3 ADD MSTORE PUSH1 0x24 DUP2 ADD DUP10 SWAP1 MSTORE SWAP4 SWAP7 POP SWAP2 SWAP5 POP SWAP3 POP PUSH1 0x1 PUSH1 0x1 PUSH1 0xA0 SHL SUB AND SWAP1 PUSH4 0x9DC29FAC SWAP1 PUSH1 0x44 ADD PUSH1 0x0 PUSH1 0x40 MLOAD DUP1 DUP4 SUB DUP2 PUSH1 0x0 DUP8 DUP1 EXTCODESIZE ISZERO DUP1 ISZERO PUSH2 0x479 JUMPI PUSH1 0x0 DUP1 REVERT JUMPDEST POP GAS CALL ISZERO DUP1 ISZERO PUSH2 0x48D JUMPI RETURNDATASIZE PUSH1 0x0 DUP1 RETURNDATACOPY RETURNDATASIZE PUSH1 0x0 REVERT JUMPDEST POP PUSH2 0x4B3 SWAP3 POP PUSH20 0xD533A949740BB3306D119CC777FA900BA034CD52 SWAP2 POP CALLER SWAP1 POP DUP6 PUSH2 0x71E JUMP JUMPDEST PUSH2 0x4D2 PUSH20 0x4E3FBD56CD56C3E72C1403E103B45DB9DA5B9D2B CALLER DUP5 PUSH2 0x71E JUMP JUMPDEST PUSH2 0x4F1 PUSH20 0x9AE380F0272E2162340A5BB646C354271C0F5CFC CALLER DUP4 PUSH2 0x71E JUMP JUMPDEST PUSH1 0x40 DUP1 MLOAD DUP6 DUP2 MSTORE PUSH1 0x20 DUP2 ADD DUP6 SWAP1 MSTORE SWAP1 DUP2 ADD DUP4 SWAP1 MSTORE PUSH1 0x60 DUP2 ADD DUP3 SWAP1 MSTORE CALLER SWAP1 PUSH32 0x2A3A976B604266E2AF2F677AF62B9E8E8F6885136A5C31959D548FE7ABB4EC6 SWAP1 PUSH1 0x80 ADD PUSH1 0x40 MLOAD DUP1 SWAP2 SUB SWAP1 LOG2 POP POP POP POP JUMP JUMPDEST PUSH2 0x549 PUSH2 0x65C JUMP JUMPDEST PUSH1 0x1 PUSH1 0x1 PUSH1 0xA0 SHL SUB DUP2 AND PUSH2 0x5B3 JUMPI PUSH1 0x40 MLOAD PUSH3 0x461BCD PUSH1 0xE5 SHL DUP2 MSTORE PUSH1 0x20 PUSH1 0x4 DUP3 ADD MSTORE PUSH1 0x26 PUSH1 0x24 DUP3 ADD MSTORE PUSH32 0x4F776E61626C653A206E6577206F776E657220697320746865207A65726F2061 PUSH1 0x44 DUP3 ADD MSTORE PUSH6 0x646472657373 PUSH1 0xD0 SHL PUSH1 0x64 DUP3 ADD MSTORE PUSH1 0x84 ADD JUMPDEST PUSH1 0x40 MLOAD DUP1 SWAP2 SUB SWAP1 REVERT JUMPDEST PUSH2 0x5BC DUP2 PUSH2 0x6B6 JUMP JUMPDEST POP JUMP JUMPDEST PUSH1 0x0 DUP2 PUSH2 0x5CE PUSH1 0x12 PUSH1 0xA PUSH2 0xB36 JUMP JUMPDEST PUSH2 0x5D8 SWAP1 DUP6 PUSH2 0xB42 JUMP JUMPDEST PUSH2 0x5E2 SWAP2 SWAP1 PUSH2 0xB59 JUMP JUMPDEST SWAP1 POP JUMPDEST SWAP3 SWAP2 POP POP JUMP JUMPDEST PUSH1 0x40 MLOAD PUSH1 0x1 PUSH1 0x1 PUSH1 0xA0 SHL SUB DUP1 DUP6 AND PUSH1 0x24 DUP4 ADD MSTORE DUP4 AND PUSH1 0x44 DUP3 ADD MSTORE PUSH1 0x64 DUP2 ADD DUP3 SWAP1 MSTORE PUSH2 0x656 SWAP1 DUP6 SWAP1 PUSH4 0x23B872DD PUSH1 0xE0 SHL SWAP1 PUSH1 0x84 ADD JUMPDEST PUSH1 0x40 DUP1 MLOAD PUSH1 0x1F NOT DUP2 DUP5 SUB ADD DUP2 MSTORE SWAP2 SWAP1 MSTORE PUSH1 0x20 DUP2 ADD DUP1 MLOAD PUSH1 0x1 PUSH1 0x1 PUSH1 0xE0 SHL SUB AND PUSH1 0x1 PUSH1 0x1 PUSH1 0xE0 SHL SUB NOT SWAP1 SWAP4 AND SWAP3 SWAP1 SWAP3 OR SWAP1 SWAP2 MSTORE PUSH2 0x753 JUMP JUMPDEST POP POP POP POP JUMP JUMPDEST PUSH1 0x0 SLOAD PUSH1 0x1 PUSH1 0x1 PUSH1 0xA0 SHL SUB AND CALLER EQ PUSH2 0x3D2 JUMPI PUSH1 0x40 MLOAD PUSH3 0x461BCD PUSH1 0xE5 SHL DUP2 MSTORE PUSH1 0x20 PUSH1 0x4 DUP3 ADD DUP2 SWAP1 MSTORE PUSH1 0x24 DUP3 ADD MSTORE PUSH32 0x4F776E61626C653A2063616C6C6572206973206E6F7420746865206F776E6572 PUSH1 0x44 DUP3 ADD MSTORE PUSH1 0x64 ADD PUSH2 0x5AA JUMP JUMPDEST PUSH1 0x0 DUP1 SLOAD PUSH1 0x1 PUSH1 0x1 PUSH1 0xA0 SHL SUB DUP4 DUP2 AND PUSH1 0x1 PUSH1 0x1 PUSH1 0xA0 SHL SUB NOT DUP4 AND DUP2 OR DUP5 SSTORE PUSH1 0x40 MLOAD SWAP2 SWAP1 SWAP3 AND SWAP3 DUP4 SWAP2 PUSH32 0x8BE0079C531659141344CD1FD0A4F28419497F9722A3DAAFE3B4186F6B6457E0 SWAP2 SWAP1 LOG3 POP POP JUMP JUMPDEST PUSH1 0x0 PUSH2 0x714 PUSH1 0x12 PUSH1 0xA PUSH2 0xB36 JUMP JUMPDEST PUSH2 0x5D8 DUP4 DUP6 PUSH2 0xB42 JUMP JUMPDEST PUSH1 0x40 MLOAD PUSH1 0x1 PUSH1 0x1 PUSH1 0xA0 SHL SUB DUP4 AND PUSH1 0x24 DUP3 ADD MSTORE PUSH1 0x44 DUP2 ADD DUP3 SWAP1 MSTORE PUSH2 0x74E SWAP1 DUP5 SWAP1 PUSH4 0xA9059CBB PUSH1 0xE0 SHL SWAP1 PUSH1 0x64 ADD PUSH2 0x61F JUMP JUMPDEST POP POP POP JUMP JUMPDEST PUSH1 0x0 PUSH2 0x7A8 DUP3 PUSH1 0x40 MLOAD DUP1 PUSH1 0x40 ADD PUSH1 0x40 MSTORE DUP1 PUSH1 0x20 DUP2 MSTORE PUSH1 0x20 ADD PUSH32 0x5361666545524332303A206C6F772D6C6576656C2063616C6C206661696C6564 DUP2 MSTORE POP DUP6 PUSH1 0x1 PUSH1 0x1 PUSH1 0xA0 SHL SUB AND PUSH2 0x828 SWAP1 SWAP3 SWAP2 SWAP1 PUSH4 0xFFFFFFFF AND JUMP JUMPDEST SWAP1 POP DUP1 MLOAD PUSH1 0x0 EQ DUP1 PUSH2 0x7C9 JUMPI POP DUP1 DUP1 PUSH1 0x20 ADD SWAP1 MLOAD DUP2 ADD SWAP1 PUSH2 0x7C9 SWAP2 SWAP1 PUSH2 0xB7B JUMP JUMPDEST PUSH2 0x74E JUMPI PUSH1 0x40 MLOAD PUSH3 0x461BCD PUSH1 0xE5 SHL DUP2 MSTORE PUSH1 0x20 PUSH1 0x4 DUP3 ADD MSTORE PUSH1 0x2A PUSH1 0x24 DUP3 ADD MSTORE PUSH32 0x5361666545524332303A204552433230206F7065726174696F6E20646964206E PUSH1 0x44 DUP3 ADD MSTORE PUSH10 0x1BDD081CDD58D8D95959 PUSH1 0xB2 SHL PUSH1 0x64 DUP3 ADD MSTORE PUSH1 0x84 ADD PUSH2 0x5AA JUMP JUMPDEST PUSH1 0x60 PUSH2 0x837 DUP5 DUP5 PUSH1 0x0 DUP6 PUSH2 0x83F JUMP JUMPDEST SWAP5 SWAP4 POP POP POP POP JUMP JUMPDEST PUSH1 0x60 DUP3 SELFBALANCE LT ISZERO PUSH2 0x8A0 JUMPI PUSH1 0x40 MLOAD PUSH3 0x461BCD PUSH1 0xE5 SHL DUP2 MSTORE PUSH1 0x20 PUSH1 0x4 DUP3 ADD MSTORE PUSH1 0x26 PUSH1 0x24 DUP3 ADD MSTORE PUSH32 0x416464726573733A20696E73756666696369656E742062616C616E636520666F PUSH1 0x44 DUP3 ADD MSTORE PUSH6 0x1C8818D85B1B PUSH1 0xD2 SHL PUSH1 0x64 DUP3 ADD MSTORE PUSH1 0x84 ADD PUSH2 0x5AA JUMP JUMPDEST PUSH1 0x0 DUP1 DUP7 PUSH1 0x1 PUSH1 0x1 PUSH1 0xA0 SHL SUB AND DUP6 DUP8 PUSH1 0x40 MLOAD PUSH2 0x8BC SWAP2 SWAP1 PUSH2 0xBC1 JUMP JUMPDEST PUSH1 0x0 PUSH1 0x40 MLOAD DUP1 DUP4 SUB DUP2 DUP6 DUP8 GAS CALL SWAP3 POP POP POP RETURNDATASIZE DUP1 PUSH1 0x0 DUP2 EQ PUSH2 0x8F9 JUMPI PUSH1 0x40 MLOAD SWAP2 POP PUSH1 0x1F NOT PUSH1 0x3F RETURNDATASIZE ADD AND DUP3 ADD PUSH1 0x40 MSTORE RETURNDATASIZE DUP3 MSTORE RETURNDATASIZE PUSH1 0x0 PUSH1 0x20 DUP5 ADD RETURNDATACOPY PUSH2 0x8FE JUMP JUMPDEST PUSH1 0x60 SWAP2 POP JUMPDEST POP SWAP2 POP SWAP2 POP PUSH2 0x90F DUP8 DUP4 DUP4 DUP8 PUSH2 0x91A JUMP JUMPDEST SWAP8 SWAP7 POP POP POP POP POP POP POP JUMP JUMPDEST PUSH1 0x60 DUP4 ISZERO PUSH2 0x989 JUMPI DUP3 MLOAD PUSH1 0x0 SUB PUSH2 0x982 JUMPI PUSH1 0x1 PUSH1 0x1 PUSH1 0xA0 SHL SUB DUP6 AND EXTCODESIZE PUSH2 0x982 JUMPI PUSH1 0x40 MLOAD PUSH3 0x461BCD PUSH1 0xE5 SHL DUP2 MSTORE PUSH1 0x20 PUSH1 0x4 DUP3 ADD MSTORE PUSH1 0x1D PUSH1 0x24 DUP3 ADD MSTORE PUSH32 0x416464726573733A2063616C6C20746F206E6F6E2D636F6E7472616374000000 PUSH1 0x44 DUP3 ADD MSTORE PUSH1 0x64 ADD PUSH2 0x5AA JUMP JUMPDEST POP DUP2 PUSH2 0x837 JUMP JUMPDEST PUSH2 0x837 DUP4 DUP4 DUP2 MLOAD ISZERO PUSH2 0x99E JUMPI DUP2 MLOAD DUP1 DUP4 PUSH1 0x20 ADD REVERT JUMPDEST DUP1 PUSH1 0x40 MLOAD PUSH3 0x461BCD PUSH1 0xE5 SHL DUP2 MSTORE PUSH1 0x4 ADD PUSH2 0x5AA SWAP2 SWAP1 PUSH2 0xBDD JUMP JUMPDEST PUSH1 0x0 DUP1 PUSH1 0x40 DUP4 DUP6 SUB SLT ISZERO PUSH2 0x9CB JUMPI PUSH1 0x0 DUP1 REVERT JUMPDEST POP POP DUP1 CALLDATALOAD SWAP3 PUSH1 0x20 SWAP1 SWAP2 ADD CALLDATALOAD SWAP2 POP JUMP JUMPDEST PUSH1 0x0 PUSH1 0x20 DUP3 DUP5 SUB SLT ISZERO PUSH2 0x9EC JUMPI PUSH1 0x0 DUP1 REVERT JUMPDEST POP CALLDATALOAD SWAP2 SWAP1 POP JUMP JUMPDEST PUSH1 0x0 PUSH1 0x20 DUP3 DUP5 SUB SLT ISZERO PUSH2 0xA05 JUMPI PUSH1 0x0 DUP1 REVERT JUMPDEST DUP2 CALLDATALOAD PUSH1 0x1 PUSH1 0x1 PUSH1 0xA0 SHL SUB DUP2 AND DUP2 EQ PUSH2 0xA1C JUMPI PUSH1 0x0 DUP1 REVERT JUMPDEST SWAP4 SWAP3 POP POP POP JUMP JUMPDEST PUSH1 0x0 PUSH1 0x20 DUP3 DUP5 SUB SLT ISZERO PUSH2 0xA35 JUMPI PUSH1 0x0 DUP1 REVERT JUMPDEST POP MLOAD SWAP2 SWAP1 POP JUMP JUMPDEST PUSH4 0x4E487B71 PUSH1 0xE0 SHL PUSH1 0x0 MSTORE PUSH1 0x11 PUSH1 0x4 MSTORE PUSH1 0x24 PUSH1 0x0 REVERT JUMPDEST PUSH1 0x1 DUP2 DUP2 JUMPDEST DUP1 DUP6 GT ISZERO PUSH2 0xA8D JUMPI DUP2 PUSH1 0x0 NOT DIV DUP3 GT ISZERO PUSH2 0xA73 JUMPI PUSH2 0xA73 PUSH2 0xA3C JUMP JUMPDEST DUP1 DUP6 AND ISZERO PUSH2 0xA80 JUMPI SWAP2 DUP2 MUL SWAP2 JUMPDEST SWAP4 DUP5 SHR SWAP4 SWAP1 DUP1 MUL SWAP1 PUSH2 0xA57 JUMP JUMPDEST POP SWAP3 POP SWAP3 SWAP1 POP JUMP JUMPDEST PUSH1 0x0 DUP3 PUSH2 0xAA4 JUMPI POP PUSH1 0x1 PUSH2 0x5E5 JUMP JUMPDEST DUP2 PUSH2 0xAB1 JUMPI POP PUSH1 0x0 PUSH2 0x5E5 JUMP JUMPDEST DUP2 PUSH1 0x1 DUP2 EQ PUSH2 0xAC7 JUMPI PUSH1 0x2 DUP2 EQ PUSH2 0xAD1 JUMPI PUSH2 0xAED JUMP JUMPDEST PUSH1 0x1 SWAP2 POP POP PUSH2 0x5E5 JUMP JUMPDEST PUSH1 0xFF DUP5 GT ISZERO PUSH2 0xAE2 JUMPI PUSH2 0xAE2 PUSH2 0xA3C JUMP JUMPDEST POP POP PUSH1 0x1 DUP3 SHL PUSH2 0x5E5 JUMP JUMPDEST POP PUSH1 0x20 DUP4 LT PUSH2 0x133 DUP4 LT AND PUSH1 0x4E DUP5 LT PUSH1 0xB DUP5 LT AND OR ISZERO PUSH2 0xB10 JUMPI POP DUP2 DUP2 EXP PUSH2 0x5E5 JUMP JUMPDEST PUSH2 0xB1A DUP4 DUP4 PUSH2 0xA52 JUMP JUMPDEST DUP1 PUSH1 0x0 NOT DIV DUP3 GT ISZERO PUSH2 0xB2E JUMPI PUSH2 0xB2E PUSH2 0xA3C JUMP JUMPDEST MUL SWAP4 SWAP3 POP POP POP JUMP JUMPDEST PUSH1 0x0 PUSH2 0x5E2 DUP4 DUP4 PUSH2 0xA95 JUMP JUMPDEST DUP1 DUP3 MUL DUP2 ISZERO DUP3 DUP3 DIV DUP5 EQ OR PUSH2 0x5E5 JUMPI PUSH2 0x5E5 PUSH2 0xA3C JUMP JUMPDEST PUSH1 0x0 DUP3 PUSH2 0xB76 JUMPI PUSH4 0x4E487B71 PUSH1 0xE0 SHL PUSH1 0x0 MSTORE PUSH1 0x12 PUSH1 0x4 MSTORE PUSH1 0x24 PUSH1 0x0 REVERT JUMPDEST POP DIV SWAP1 JUMP JUMPDEST PUSH1 0x0 PUSH1 0x20 DUP3 DUP5 SUB SLT ISZERO PUSH2 0xB8D JUMPI PUSH1 0x0 DUP1 REVERT JUMPDEST DUP2 MLOAD DUP1 ISZERO ISZERO DUP2 EQ PUSH2 0xA1C JUMPI PUSH1 0x0 DUP1 REVERT JUMPDEST PUSH1 0x0 JUMPDEST DUP4 DUP2 LT ISZERO PUSH2 0xBB8 JUMPI DUP2 DUP2 ADD MLOAD DUP4 DUP3 ADD MSTORE PUSH1 0x20 ADD PUSH2 0xBA0 JUMP JUMPDEST POP POP PUSH1 0x0 SWAP2 ADD MSTORE JUMP JUMPDEST PUSH1 0x0 DUP3 MLOAD PUSH2 0xBD3 DUP2 DUP5 PUSH1 0x20 DUP8 ADD PUSH2 0xB9D JUMP JUMPDEST SWAP2 SWAP1 SWAP2 ADD SWAP3 SWAP2 POP POP JUMP JUMPDEST PUSH1 0x20 DUP2 MSTORE PUSH1 0x0 DUP3 MLOAD DUP1 PUSH1 0x20 DUP5 ADD MSTORE PUSH2 0xBFC DUP2 PUSH1 0x40 DUP6 ADD PUSH1 0x20 DUP8 ADD PUSH2 0xB9D JUMP JUMPDEST PUSH1 0x1F ADD PUSH1 0x1F NOT AND SWAP2 SWAP1 SWAP2 ADD PUSH1 0x40 ADD SWAP3 SWAP2 POP POP JUMP INVALID LOG2 PUSH5 0x6970667358 0x22 SLT KECCAK256 DUP15 0x1F DUP3 0x24 DUP2 0xB1 0xD1 PUSH21 0xFBE8D1F5A305182AFD8CA4414B1104469D1B244333 LOG1 SWAP10 AND PUSH5 0x736F6C6343 STOP ADDMOD GT STOP CALLER ","sha1":"96528b70ca24b719c902cbce33acca75e1d00e1b","source":"// SPDX-License-Identifier: GPL-3.0-or-later\npragma solidity 0.8.17;\n\nimport \"@openzeppelin/contracts/token/ERC20/IERC20.sol\";\nimport \"@openzeppelin/contracts/token/ERC20/utils/SafeERC20.sol\";\nimport \"@openzeppelin/contracts/access/Ownable.sol\";\nimport \"@openzeppelin/contracts/proxy/utils/Initializable.sol\";\n\nimport \"../../libraries/ScaledMath.sol\";\n\nimport \"../../interfaces/tokenomics/IDebtPool.sol\";\nimport \"../../interfaces/IConicDebtToken.sol\";\nimport \"../../interfaces/pools/IConicPool.sol\";\n\ncontract DebtPool is IDebtPool, IFeeRecipient, Ownable {\n    using ScaledMath for uint256;\n    using SafeERC20 for IERC20;\n\n    IERC20 public constant CVX = IERC20(0x4e3FBD56CD56c3e72c1403e103b45Db9da5B9D2B);\n    IERC20 public constant CRV = IERC20(0xD533a949740bb3306d119CC777fa900bA034cd52);\n    IERC20 public constant CNC = IERC20(0x9aE380F0272E2162340a5bB646c354271c0F5cFC);\n\n    IConicDebtToken public debtToken;\n\n    constructor(address _debtToken) {\n        debtToken = IConicDebtToken(_debtToken);\n    }\n\n    function redeemDebtToken(uint256 debtTokenAmount) external override {\n        (uint256 crvAmount, uint256 cvxAmount, uint256 cncAmount) = redeemable(debtTokenAmount);\n        debtToken.burn(msg.sender, debtTokenAmount);\n        CRV.safeTransfer(msg.sender, crvAmount);\n        CVX.safeTransfer(msg.sender, cvxAmount);\n        CNC.safeTransfer(msg.sender, cncAmount);\n\n        emit DebtTokenRedeemed(msg.sender, debtTokenAmount, crvAmount, cvxAmount, cncAmount);\n    }\n\n    function redeemable(\n        uint256 debtTokenAmount\n    ) public view override returns (uint256 crvAmount, uint256 cvxAmount, uint256 cncAmount) {\n        (\n            uint256 crvExchangeRate,\n            uint256 cvxExchangeRate,\n            uint256 cncExchangeRate\n        ) = exchangeRate();\n        crvAmount = debtTokenAmount.mulDown(crvExchangeRate);\n        cvxAmount = debtTokenAmount.mulDown(cvxExchangeRate);\n        cncAmount = debtTokenAmount.mulDown(cncExchangeRate);\n    }\n\n    function exchangeRate()\n        public\n        view\n        override\n        returns (uint256 crvPerDebtToken, uint256 cvxPerDebtToken, uint256 cncPerDebtToken)\n    {\n        uint256 debtTokensOutstanding = debtToken.totalSupply();\n        crvPerDebtToken = CRV.balanceOf(address(this)).divDown(debtTokensOutstanding);\n        cvxPerDebtToken = CVX.balanceOf(address(this)).divDown(debtTokensOutstanding);\n        cncPerDebtToken = CNC.balanceOf(address(this)).divDown(debtTokensOutstanding);\n    }\n\n    function receiveFees(uint256 amountCrv, uint256 amountCvx) external override {\n        CRV.safeTransferFrom(msg.sender, address(this), amountCrv);\n        CVX.safeTransferFrom(msg.sender, address(this), amountCvx);\n        emit FeesReceived(msg.sender, amountCrv, amountCvx);\n    }\n}\n","sourcePath":"contracts/tokenomics/DebtPool.sol","type":"contract","deployment":{"address":"0xCFe7bA85D916875779F9668b606b70051901D5ca","chainid":"1","blockHeight":19070653}}