{"abi":[{"inputs":[{"internalType":"contract ICNCToken","name":"_cnc","type":"address"},{"internalType":"contract IController","name":"_controller","type":"address"}],"stateMutability":"nonpayable","type":"constructor","name":"constructor"},{"anonymous":false,"inputs":[{"indexed":false,"internalType":"address","name":"previousTokenStaker","type":"address"},{"indexed":false,"internalType":"address","name":"newTokenStaker","type":"address"}],"name":"LpTokenStakerSwitched","type":"event"},{"anonymous":false,"inputs":[{"indexed":true,"internalType":"address","name":"previousOwner","type":"address"},{"indexed":true,"internalType":"address","name":"newOwner","type":"address"}],"name":"OwnershipTransferred","type":"event"},{"anonymous":false,"inputs":[{"indexed":false,"internalType":"address","name":"previousHandler","type":"address"},{"indexed":false,"internalType":"address","name":"newHandler","type":"address"}],"name":"RebalancingRewardsHandlerSwitched","type":"event"},{"anonymous":false,"inputs":[],"name":"Shutdown","type":"event"},{"inputs":[],"name":"ACTIVE_TIME","outputs":[{"internalType":"uint256","name":"","type":"uint256"}],"stateMutability":"view","type":"function"},{"inputs":[],"name":"cnc","outputs":[{"internalType":"contract ICNCToken","name":"","type":"address"}],"stateMutability":"view","type":"function"},{"inputs":[],"name":"controller","outputs":[{"internalType":"contract IController","name":"","type":"address"}],"stateMutability":"view","type":"function"},{"inputs":[],"name":"deployedAt","outputs":[{"internalType":"uint256","name":"","type":"uint256"}],"stateMutability":"view","type":"function"},{"inputs":[],"name":"owner","outputs":[{"internalType":"address","name":"","type":"address"}],"stateMutability":"view","type":"function"},{"inputs":[],"name":"renounceOwnership","outputs":[],"stateMutability":"nonpayable","type":"function"},{"inputs":[],"name":"shutdown","outputs":[],"stateMutability":"nonpayable","type":"function"},{"inputs":[{"internalType":"address","name":"previousTokenStaker","type":"address"},{"internalType":"address","name":"newTokenStaker","type":"address"}],"name":"switchLpTokenStaker","outputs":[],"stateMutability":"nonpayable","type":"function"},{"inputs":[{"internalType":"address","name":"previousHandler","type":"address"},{"internalType":"address","name":"newHandler","type":"address"}],"name":"switchRebalancingRewardsHandler","outputs":[],"stateMutability":"nonpayable","type":"function"},{"inputs":[{"internalType":"address","name":"newOwner","type":"address"}],"name":"transferOwnership","outputs":[],"stateMutability":"nonpayable","type":"function"}],"bytecode":"60e060405234801561001057600080fd5b5060405161105138038061105183398101604081905261002f916100bb565b61003833610053565b6001600160a01b039182166080521660a0524260c0526100f5565b600080546001600160a01b038381166001600160a01b0319831681178455604051919092169283917f8be0079c531659141344cd1fd0a4f28419497f9722a3daafe3b4186f6b6457e09190a35050565b6001600160a01b03811681146100b857600080fd5b50565b600080604083850312156100ce57600080fd5b82516100d9816100a3565b60208401519092506100ea816100a3565b809150509250929050565b60805160a05160c051610eee6101636000396000818161011a0152818161073501526108a901526000818161017b015281816101b10152818161023b015281816104a501526105f0015260008181610141015281816107aa01528181610b1d0152610bd40152610eee6000f3fe608060405234801561001057600080fd5b506004361061009e5760003560e01c8063eae4c19f11610066578063eae4c19f14610115578063f0aa0a1d1461013c578063f2fde38b14610163578063f77c479114610176578063fc0e74d11461019d57600080fd5b80632e45c987146100a35780636ae0ca82146100b85780636bbe080e146100d5578063715018a6146100e85780638da5cb5b146100f0575b600080fd5b6100b66100b1366004610cd3565b6101a5565b005b6100c26276a70081565b6040519081526020015b60405180910390f35b6100b66100e3366004610cd3565b610491565b6100b661069f565b6000546001600160a01b03165b6040516001600160a01b0390911681526020016100cc565b6100c27f000000000000000000000000000000000000000000000000000000000000000081565b6100fd7f000000000000000000000000000000000000000000000000000000000000000081565b6100b6610171366004610d0c565b6106b3565b6100fd7f000000000000000000000000000000000000000000000000000000000000000081565b6100b661072c565b6101ad610846565b60007f00000000000000000000000000000000000000000000000000000000000000006001600160a01b031663687958626040518163ffffffff1660e01b8152600401600060405180830381865afa15801561020d573d6000803e3d6000fd5b505050506040513d6000823e601f3d908101601f191682016040526102359190810190610d56565b905060007f00000000000000000000000000000000000000000000000000000000000000006001600160a01b031663dbcd89fa6040518163ffffffff1660e01b8152600401602060405180830381865afa158015610297573d6000803e3d6000fd5b505050506040513d601f19601f820116820180604052508101906102bb9190610e1b565b905060005b825181101561043d5760008382815181106102dd576102dd610e38565b602090810291909101015160405163b46507a160e01b81526001600160a01b03808316600483015288811660248301529192509084169063b46507a190604401602060405180830381865afa15801561033a573d6000803e3d6000fd5b505050506040513d601f19601f8201168201806040525081019061035e9190610e4e565b1561042a576040516356a0d31560e01b81526001600160a01b03828116600483015287811660248301528416906356a0d31590604401600060405180830381600087803b1580156103ae57600080fd5b505af11580156103c2573d6000803e3d6000fd5b505060405163dba8cc3560e01b81526001600160a01b03848116600483015288811660248301528616925063dba8cc359150604401600060405180830381600087803b15801561041157600080fd5b505af1158015610425573d6000803e3d6000fd5b505050505b508061043581610e86565b9150506102c0565b5061044884846108a0565b604080516001600160a01b038087168252851660208201527fc9e531e8bc630778353ecd6045e7e393cd8ec41279cc5c55613631cf227931f7910160405180910390a150505050565b610499610846565b816001600160a01b03167f00000000000000000000000000000000000000000000000000000000000000006001600160a01b03166348439e7e6040518163ffffffff1660e01b8152600401602060405180830381865afa158015610501573d6000803e3d6000fd5b505050506040513d601f19601f820116820180604052508101906105259190610e1b565b6001600160a01b0316146105805760405162461bcd60e51b815260206004820152601f60248201527f456d657267656e63794d696e7465723a20696e76616c6964207374616b65720060448201526064015b60405180910390fd5b816001600160a01b031663fc0e74d16040518163ffffffff1660e01b8152600401600060405180830381600087803b1580156105bb57600080fd5b505af11580156105cf573d6000803e3d6000fd5b5050604051631d913a7760e31b81526001600160a01b0384811660048301527f000000000000000000000000000000000000000000000000000000000000000016925063ec89d3b89150602401600060405180830381600087803b15801561063657600080fd5b505af115801561064a573d6000803e3d6000fd5b5050505061065882826108a0565b604080516001600160a01b038085168252831660208201527ff295a9b77dbaa28354cf6e93e652cbdfe1807b8a0ef1765035e3e167057a8669910160405180910390a15050565b6106a7610846565b6106b16000610b7f565b565b6106bb610846565b6001600160a01b0381166107205760405162461bcd60e51b815260206004820152602660248201527f4f776e61626c653a206e6577206f776e657220697320746865207a65726f206160448201526564647265737360d01b6064820152608401610577565b61072981610b7f565b50565b6107596276a7007f0000000000000000000000000000000000000000000000000000000000000000610e9f565b4210156107a85760405162461bcd60e51b815260206004820152601d60248201527f456d657267656e63794d696e7465723a207374696c6c206163746976650000006044820152606401610577565b7f00000000000000000000000000000000000000000000000000000000000000006001600160a01b03166370e9749a6040518163ffffffff1660e01b8152600401600060405180830381600087803b15801561080357600080fd5b505af1158015610817573d6000803e3d6000fd5b50506040517f4426aa1fb73e391071491fcfe21a88b5c38a0a0333a1f6e77161470439704cf8925060009150a1565b6000546001600160a01b031633146106b15760405162461bcd60e51b815260206004820181905260248201527f4f776e61626c653a2063616c6c6572206973206e6f7420746865206f776e65726044820152606401610577565b6108cd6276a7007f0000000000000000000000000000000000000000000000000000000000000000610e9f565b42106109255760405162461bcd60e51b815260206004820152602160248201527f456d657267656e63794d696e7465723a206e6f206c6f6e6765722061637469766044820152606560f81b6064820152608401610577565b806001600160a01b0316826001600160a01b0316036109865760405162461bcd60e51b815260206004820152601c60248201527f456d657267656e63794d696e7465723a2073616d65206d696e746572000000006044820152606401610577565b61098f82610bcf565b6109f25760405162461bcd60e51b815260206004820152602e60248201527f456d657267656e63794d696e7465723a2063757272656e744d696e746572206960448201526d39903737ba10309036b4b73a32b960911b6064820152608401610577565b6040516301ffc9a760e01b8152633874ba4d60e11b60048201526001600160a01b038216906301ffc9a790602401602060405180830381865afa158015610a3d573d6000803e3d6000fd5b505050506040513d601f19601f82011682018060405250810190610a619190610e4e565b610aad5760405162461bcd60e51b815260206004820152601f60248201527f456d657267656e63794d696e7465723a20696e76616c6964206d696e746572006044820152606401610577565b816001600160a01b03166370e9749a6040518163ffffffff1660e01b8152600401600060405180830381600087803b158015610ae857600080fd5b505af1158015610afc573d6000803e3d6000fd5b5050604051634c1d96ab60e11b81526001600160a01b0384811660048301527f000000000000000000000000000000000000000000000000000000000000000016925063983b2d569150602401600060405180830381600087803b158015610b6357600080fd5b505af1158015610b77573d6000803e3d6000fd5b505050505050565b600080546001600160a01b038381166001600160a01b0319831681178455604051919092169283917f8be0079c531659141344cd1fd0a4f28419497f9722a3daafe3b4186f6b6457e09190a35050565b6000807f00000000000000000000000000000000000000000000000000000000000000006001600160a01b03166322d8dc236040518163ffffffff1660e01b8152600401600060405180830381865afa158015610c30573d6000803e3d6000fd5b505050506040513d6000823e601f3d908101601f19168201604052610c589190810190610d56565b905060005b8151811015610cb457836001600160a01b0316828281518110610c8257610c82610e38565b60200260200101516001600160a01b031603610ca2575060019392505050565b80610cac81610e86565b915050610c5d565b5060009392505050565b6001600160a01b038116811461072957600080fd5b60008060408385031215610ce657600080fd5b8235610cf181610cbe565b91506020830135610d0181610cbe565b809150509250929050565b600060208284031215610d1e57600080fd5b8135610d2981610cbe565b9392505050565b634e487b7160e01b600052604160045260246000fd5b8051610d5181610cbe565b919050565b60006020808385031215610d6957600080fd5b825167ffffffffffffffff80821115610d8157600080fd5b818501915085601f830112610d9557600080fd5b815181811115610da757610da7610d30565b8060051b604051601f19603f83011681018181108582111715610dcc57610dcc610d30565b604052918252848201925083810185019188831115610dea57600080fd5b938501935b82851015610e0f57610e0085610d46565b84529385019392850192610def565b98975050505050505050565b600060208284031215610e2d57600080fd5b8151610d2981610cbe565b634e487b7160e01b600052603260045260246000fd5b600060208284031215610e6057600080fd5b81518015158114610d2957600080fd5b634e487b7160e01b600052601160045260246000fd5b600060018201610e9857610e98610e70565b5060010190565b80820180821115610eb257610eb2610e70565b9291505056fea264697066735822122060391f55239f121123e7abd8cc4e35952f3330e136472e7bcc9b2c3176bb7e6c64736f6c63430008110033","bytecodeSha1":"b0ef25e12e62f48e26e03a1ec2980f391eefcc94","compiler":{"evm_version":"istanbul","optimizer":{"enabled":true,"runs":200},"version":"0.8.17+commit.8df45f5f"},"contractName":"EmergencyMinter","language":"Solidity","natspec":{"kind":"dev","methods":{"owner()":{"details":"Returns the address of the current owner."},"renounceOwnership()":{"details":"Leaves the contract without owner. It will not be possible to call `onlyOwner` functions anymore. Can only be called by the current owner. NOTE: Renouncing ownership will leave the contract without an owner, thereby removing any functionality that is only available to the owner."},"shutdown()":{"notice":"after the 90 days period, the contract cannot add new minters anymore and this can be called to remove it from the list of minters, although this will in practice not make a difference"},"switchRebalancingRewardsHandler(address,address)":{"notice":"this switches the rebalancing reward handler in charge of minting CNC as reward it replaces the reward handler for all the pools that have the previous handler this should typicall be all the Omnipools, since at launch, they will all have the same reward handler"},"transferOwnership(address)":{"details":"Transfers ownership of the contract to a new account (`newOwner`). Can only be called by the current owner."}},"notice":"this contract will be added as a minter to the CNC token and will only be allow to add new minters for the first three months to be able to recover in case of an issue in the protocol Adding a minter will always be a governance decision and will have a timelock of 7 days (enforced by the governance proxy) to allow the community to review the decision should there ever be a need to add a new minter This will only be used in case of an emergency and should not actually be used should the protocol operate as intended","version":1},"opcodes":"PUSH1 0x80 PUSH1 0x40 MSTORE CALLVALUE DUP1 ISZERO PUSH2 0x10 JUMPI PUSH1 0x0 DUP1 REVERT JUMPDEST POP PUSH1 0x4 CALLDATASIZE LT PUSH2 0x9E JUMPI PUSH1 0x0 CALLDATALOAD PUSH1 0xE0 SHR DUP1 PUSH4 0xEAE4C19F GT PUSH2 0x66 JUMPI DUP1 PUSH4 0xEAE4C19F EQ PUSH2 0x115 JUMPI DUP1 PUSH4 0xF0AA0A1D EQ PUSH2 0x13C JUMPI DUP1 PUSH4 0xF2FDE38B EQ PUSH2 0x163 JUMPI DUP1 PUSH4 0xF77C4791 EQ PUSH2 0x176 JUMPI DUP1 PUSH4 0xFC0E74D1 EQ PUSH2 0x19D JUMPI PUSH1 0x0 DUP1 REVERT JUMPDEST DUP1 PUSH4 0x2E45C987 EQ PUSH2 0xA3 JUMPI DUP1 PUSH4 0x6AE0CA82 EQ PUSH2 0xB8 JUMPI DUP1 PUSH4 0x6BBE080E EQ PUSH2 0xD5 JUMPI DUP1 PUSH4 0x715018A6 EQ PUSH2 0xE8 JUMPI DUP1 PUSH4 0x8DA5CB5B EQ PUSH2 0xF0 JUMPI JUMPDEST PUSH1 0x0 DUP1 REVERT JUMPDEST PUSH2 0xB6 PUSH2 0xB1 CALLDATASIZE PUSH1 0x4 PUSH2 0xCD3 JUMP JUMPDEST PUSH2 0x1A5 JUMP JUMPDEST STOP JUMPDEST PUSH2 0xC2 PUSH3 0x76A700 DUP2 JUMP JUMPDEST PUSH1 0x40 MLOAD SWAP1 DUP2 MSTORE PUSH1 0x20 ADD JUMPDEST PUSH1 0x40 MLOAD DUP1 SWAP2 SUB SWAP1 RETURN JUMPDEST PUSH2 0xB6 PUSH2 0xE3 CALLDATASIZE PUSH1 0x4 PUSH2 0xCD3 JUMP JUMPDEST PUSH2 0x491 JUMP JUMPDEST PUSH2 0xB6 PUSH2 0x69F JUMP JUMPDEST PUSH1 0x0 SLOAD PUSH1 0x1 PUSH1 0x1 PUSH1 0xA0 SHL SUB AND JUMPDEST PUSH1 0x40 MLOAD PUSH1 0x1 PUSH1 0x1 PUSH1 0xA0 SHL SUB SWAP1 SWAP2 AND DUP2 MSTORE PUSH1 0x20 ADD PUSH2 0xCC JUMP JUMPDEST PUSH2 0xC2 PUSH32 0x0 DUP2 JUMP JUMPDEST PUSH2 0xFD PUSH32 0x0 DUP2 JUMP JUMPDEST PUSH2 0xB6 PUSH2 0x171 CALLDATASIZE PUSH1 0x4 PUSH2 0xD0C JUMP JUMPDEST PUSH2 0x6B3 JUMP JUMPDEST PUSH2 0xFD PUSH32 0x0 DUP2 JUMP JUMPDEST PUSH2 0xB6 PUSH2 0x72C JUMP JUMPDEST PUSH2 0x1AD PUSH2 0x846 JUMP JUMPDEST PUSH1 0x0 PUSH32 0x0 PUSH1 0x1 PUSH1 0x1 PUSH1 0xA0 SHL SUB AND PUSH4 0x68795862 PUSH1 0x40 MLOAD DUP2 PUSH4 0xFFFFFFFF AND PUSH1 0xE0 SHL DUP2 MSTORE PUSH1 0x4 ADD PUSH1 0x0 PUSH1 0x40 MLOAD DUP1 DUP4 SUB DUP2 DUP7 GAS STATICCALL ISZERO DUP1 ISZERO PUSH2 0x20D JUMPI RETURNDATASIZE PUSH1 0x0 DUP1 RETURNDATACOPY RETURNDATASIZE PUSH1 0x0 REVERT JUMPDEST POP POP POP POP PUSH1 0x40 MLOAD RETURNDATASIZE PUSH1 0x0 DUP3 RETURNDATACOPY PUSH1 0x1F RETURNDATASIZE SWAP1 DUP2 ADD PUSH1 0x1F NOT AND DUP3 ADD PUSH1 0x40 MSTORE PUSH2 0x235 SWAP2 SWAP1 DUP2 ADD SWAP1 PUSH2 0xD56 JUMP JUMPDEST SWAP1 POP PUSH1 0x0 PUSH32 0x0 PUSH1 0x1 PUSH1 0x1 PUSH1 0xA0 SHL SUB AND PUSH4 0xDBCD89FA PUSH1 0x40 MLOAD DUP2 PUSH4 0xFFFFFFFF AND PUSH1 0xE0 SHL DUP2 MSTORE PUSH1 0x4 ADD PUSH1 0x20 PUSH1 0x40 MLOAD DUP1 DUP4 SUB DUP2 DUP7 GAS STATICCALL ISZERO DUP1 ISZERO PUSH2 0x297 JUMPI RETURNDATASIZE PUSH1 0x0 DUP1 RETURNDATACOPY RETURNDATASIZE PUSH1 0x0 REVERT JUMPDEST POP POP POP POP PUSH1 0x40 MLOAD RETURNDATASIZE PUSH1 0x1F NOT PUSH1 0x1F DUP3 ADD AND DUP3 ADD DUP1 PUSH1 0x40 MSTORE POP DUP2 ADD SWAP1 PUSH2 0x2BB SWAP2 SWAP1 PUSH2 0xE1B JUMP JUMPDEST SWAP1 POP PUSH1 0x0 JUMPDEST DUP3 MLOAD DUP2 LT ISZERO PUSH2 0x43D JUMPI PUSH1 0x0 DUP4 DUP3 DUP2 MLOAD DUP2 LT PUSH2 0x2DD JUMPI PUSH2 0x2DD PUSH2 0xE38 JUMP JUMPDEST PUSH1 0x20 SWAP1 DUP2 MUL SWAP2 SWAP1 SWAP2 ADD ADD MLOAD PUSH1 0x40 MLOAD PUSH4 0xB46507A1 PUSH1 0xE0 SHL DUP2 MSTORE PUSH1 0x1 PUSH1 0x1 PUSH1 0xA0 SHL SUB DUP1 DUP4 AND PUSH1 0x4 DUP4 ADD MSTORE DUP9 DUP2 AND PUSH1 0x24 DUP4 ADD MSTORE SWAP2 SWAP3 POP SWAP1 DUP5 AND SWAP1 PUSH4 0xB46507A1 SWAP1 PUSH1 0x44 ADD PUSH1 0x20 PUSH1 0x40 MLOAD DUP1 DUP4 SUB DUP2 DUP7 GAS STATICCALL ISZERO DUP1 ISZERO PUSH2 0x33A JUMPI RETURNDATASIZE PUSH1 0x0 DUP1 RETURNDATACOPY RETURNDATASIZE PUSH1 0x0 REVERT JUMPDEST POP POP POP POP PUSH1 0x40 MLOAD RETURNDATASIZE PUSH1 0x1F NOT PUSH1 0x1F DUP3 ADD AND DUP3 ADD DUP1 PUSH1 0x40 MSTORE POP DUP2 ADD SWAP1 PUSH2 0x35E SWAP2 SWAP1 PUSH2 0xE4E JUMP JUMPDEST ISZERO PUSH2 0x42A JUMPI PUSH1 0x40 MLOAD PUSH4 0x56A0D315 PUSH1 0xE0 SHL DUP2 MSTORE PUSH1 0x1 PUSH1 0x1 PUSH1 0xA0 SHL SUB DUP3 DUP2 AND PUSH1 0x4 DUP4 ADD MSTORE DUP8 DUP2 AND PUSH1 0x24 DUP4 ADD MSTORE DUP5 AND SWAP1 PUSH4 0x56A0D315 SWAP1 PUSH1 0x44 ADD PUSH1 0x0 PUSH1 0x40 MLOAD DUP1 DUP4 SUB DUP2 PUSH1 0x0 DUP8 DUP1 EXTCODESIZE ISZERO DUP1 ISZERO PUSH2 0x3AE JUMPI PUSH1 0x0 DUP1 REVERT JUMPDEST POP GAS CALL ISZERO DUP1 ISZERO PUSH2 0x3C2 JUMPI RETURNDATASIZE PUSH1 0x0 DUP1 RETURNDATACOPY RETURNDATASIZE PUSH1 0x0 REVERT JUMPDEST POP POP PUSH1 0x40 MLOAD PUSH4 0xDBA8CC35 PUSH1 0xE0 SHL DUP2 MSTORE PUSH1 0x1 PUSH1 0x1 PUSH1 0xA0 SHL SUB DUP5 DUP2 AND PUSH1 0x4 DUP4 ADD MSTORE DUP9 DUP2 AND PUSH1 0x24 DUP4 ADD MSTORE DUP7 AND SWAP3 POP PUSH4 0xDBA8CC35 SWAP2 POP PUSH1 0x44 ADD PUSH1 0x0 PUSH1 0x40 MLOAD DUP1 DUP4 SUB DUP2 PUSH1 0x0 DUP8 DUP1 EXTCODESIZE ISZERO DUP1 ISZERO PUSH2 0x411 JUMPI PUSH1 0x0 DUP1 REVERT JUMPDEST POP GAS CALL ISZERO DUP1 ISZERO PUSH2 0x425 JUMPI RETURNDATASIZE PUSH1 0x0 DUP1 RETURNDATACOPY RETURNDATASIZE PUSH1 0x0 REVERT JUMPDEST POP POP POP POP JUMPDEST POP DUP1 PUSH2 0x435 DUP2 PUSH2 0xE86 JUMP JUMPDEST SWAP2 POP POP PUSH2 0x2C0 JUMP JUMPDEST POP PUSH2 0x448 DUP5 DUP5 PUSH2 0x8A0 JUMP JUMPDEST PUSH1 0x40 DUP1 MLOAD PUSH1 0x1 PUSH1 0x1 PUSH1 0xA0 SHL SUB DUP1 DUP8 AND DUP3 MSTORE DUP6 AND PUSH1 0x20 DUP3 ADD MSTORE PUSH32 0xC9E531E8BC630778353ECD6045E7E393CD8EC41279CC5C55613631CF227931F7 SWAP2 ADD PUSH1 0x40 MLOAD DUP1 SWAP2 SUB SWAP1 LOG1 POP POP POP POP JUMP JUMPDEST PUSH2 0x499 PUSH2 0x846 JUMP JUMPDEST DUP2 PUSH1 0x1 PUSH1 0x1 PUSH1 0xA0 SHL SUB AND PUSH32 0x0 PUSH1 0x1 PUSH1 0x1 PUSH1 0xA0 SHL SUB AND PUSH4 0x48439E7E PUSH1 0x40 MLOAD DUP2 PUSH4 0xFFFFFFFF AND PUSH1 0xE0 SHL DUP2 MSTORE PUSH1 0x4 ADD PUSH1 0x20 PUSH1 0x40 MLOAD DUP1 DUP4 SUB DUP2 DUP7 GAS STATICCALL ISZERO DUP1 ISZERO PUSH2 0x501 JUMPI RETURNDATASIZE PUSH1 0x0 DUP1 RETURNDATACOPY RETURNDATASIZE PUSH1 0x0 REVERT JUMPDEST POP POP POP POP PUSH1 0x40 MLOAD RETURNDATASIZE PUSH1 0x1F NOT PUSH1 0x1F DUP3 ADD AND DUP3 ADD DUP1 PUSH1 0x40 MSTORE POP DUP2 ADD SWAP1 PUSH2 0x525 SWAP2 SWAP1 PUSH2 0xE1B JUMP JUMPDEST PUSH1 0x1 PUSH1 0x1 PUSH1 0xA0 SHL SUB AND EQ PUSH2 0x580 JUMPI PUSH1 0x40 MLOAD PUSH3 0x461BCD PUSH1 0xE5 SHL DUP2 MSTORE PUSH1 0x20 PUSH1 0x4 DUP3 ADD MSTORE PUSH1 0x1F PUSH1 0x24 DUP3 ADD MSTORE PUSH32 0x456D657267656E63794D696E7465723A20696E76616C6964207374616B657200 PUSH1 0x44 DUP3 ADD MSTORE PUSH1 0x64 ADD JUMPDEST PUSH1 0x40 MLOAD DUP1 SWAP2 SUB SWAP1 REVERT JUMPDEST DUP2 PUSH1 0x1 PUSH1 0x1 PUSH1 0xA0 SHL SUB AND PUSH4 0xFC0E74D1 PUSH1 0x40 MLOAD DUP2 PUSH4 0xFFFFFFFF AND PUSH1 0xE0 SHL DUP2 MSTORE PUSH1 0x4 ADD PUSH1 0x0 PUSH1 0x40 MLOAD DUP1 DUP4 SUB DUP2 PUSH1 0x0 DUP8 DUP1 EXTCODESIZE ISZERO DUP1 ISZERO PUSH2 0x5BB JUMPI PUSH1 0x0 DUP1 REVERT JUMPDEST POP GAS CALL ISZERO DUP1 ISZERO PUSH2 0x5CF JUMPI RETURNDATASIZE PUSH1 0x0 DUP1 RETURNDATACOPY RETURNDATASIZE PUSH1 0x0 REVERT JUMPDEST POP POP PUSH1 0x40 MLOAD PUSH4 0x1D913A77 PUSH1 0xE3 SHL DUP2 MSTORE PUSH1 0x1 PUSH1 0x1 PUSH1 0xA0 SHL SUB DUP5 DUP2 AND PUSH1 0x4 DUP4 ADD MSTORE PUSH32 0x0 AND SWAP3 POP PUSH4 0xEC89D3B8 SWAP2 POP PUSH1 0x24 ADD PUSH1 0x0 PUSH1 0x40 MLOAD DUP1 DUP4 SUB DUP2 PUSH1 0x0 DUP8 DUP1 EXTCODESIZE ISZERO DUP1 ISZERO PUSH2 0x636 JUMPI PUSH1 0x0 DUP1 REVERT JUMPDEST POP GAS CALL ISZERO DUP1 ISZERO PUSH2 0x64A JUMPI RETURNDATASIZE PUSH1 0x0 DUP1 RETURNDATACOPY RETURNDATASIZE PUSH1 0x0 REVERT JUMPDEST POP POP POP POP PUSH2 0x658 DUP3 DUP3 PUSH2 0x8A0 JUMP JUMPDEST PUSH1 0x40 DUP1 MLOAD PUSH1 0x1 PUSH1 0x1 PUSH1 0xA0 SHL SUB DUP1 DUP6 AND DUP3 MSTORE DUP4 AND PUSH1 0x20 DUP3 ADD MSTORE PUSH32 0xF295A9B77DBAA28354CF6E93E652CBDFE1807B8A0EF1765035E3E167057A8669 SWAP2 ADD PUSH1 0x40 MLOAD DUP1 SWAP2 SUB SWAP1 LOG1 POP POP JUMP JUMPDEST PUSH2 0x6A7 PUSH2 0x846 JUMP JUMPDEST PUSH2 0x6B1 PUSH1 0x0 PUSH2 0xB7F JUMP JUMPDEST JUMP JUMPDEST PUSH2 0x6BB PUSH2 0x846 JUMP JUMPDEST PUSH1 0x1 PUSH1 0x1 PUSH1 0xA0 SHL SUB DUP2 AND PUSH2 0x720 JUMPI PUSH1 0x40 MLOAD PUSH3 0x461BCD PUSH1 0xE5 SHL DUP2 MSTORE PUSH1 0x20 PUSH1 0x4 DUP3 ADD MSTORE PUSH1 0x26 PUSH1 0x24 DUP3 ADD MSTORE PUSH32 0x4F776E61626C653A206E6577206F776E657220697320746865207A65726F2061 PUSH1 0x44 DUP3 ADD MSTORE PUSH6 0x646472657373 PUSH1 0xD0 SHL PUSH1 0x64 DUP3 ADD MSTORE PUSH1 0x84 ADD PUSH2 0x577 JUMP JUMPDEST PUSH2 0x729 DUP2 PUSH2 0xB7F JUMP JUMPDEST POP JUMP JUMPDEST PUSH2 0x759 PUSH3 0x76A700 PUSH32 0x0 PUSH2 0xE9F JUMP JUMPDEST TIMESTAMP LT ISZERO PUSH2 0x7A8 JUMPI PUSH1 0x40 MLOAD PUSH3 0x461BCD PUSH1 0xE5 SHL DUP2 MSTORE PUSH1 0x20 PUSH1 0x4 DUP3 ADD MSTORE PUSH1 0x1D PUSH1 0x24 DUP3 ADD MSTORE PUSH32 0x456D657267656E63794D696E7465723A207374696C6C20616374697665000000 PUSH1 0x44 DUP3 ADD MSTORE PUSH1 0x64 ADD PUSH2 0x577 JUMP JUMPDEST PUSH32 0x0 PUSH1 0x1 PUSH1 0x1 PUSH1 0xA0 SHL SUB AND PUSH4 0x70E9749A PUSH1 0x40 MLOAD DUP2 PUSH4 0xFFFFFFFF AND PUSH1 0xE0 SHL DUP2 MSTORE PUSH1 0x4 ADD PUSH1 0x0 PUSH1 0x40 MLOAD DUP1 DUP4 SUB DUP2 PUSH1 0x0 DUP8 DUP1 EXTCODESIZE ISZERO DUP1 ISZERO PUSH2 0x803 JUMPI PUSH1 0x0 DUP1 REVERT JUMPDEST POP GAS CALL ISZERO DUP1 ISZERO PUSH2 0x817 JUMPI RETURNDATASIZE PUSH1 0x0 DUP1 RETURNDATACOPY RETURNDATASIZE PUSH1 0x0 REVERT JUMPDEST POP POP PUSH1 0x40 MLOAD PUSH32 0x4426AA1FB73E391071491FCFE21A88B5C38A0A0333A1F6E77161470439704CF8 SWAP3 POP PUSH1 0x0 SWAP2 POP LOG1 JUMP JUMPDEST PUSH1 0x0 SLOAD PUSH1 0x1 PUSH1 0x1 PUSH1 0xA0 SHL SUB AND CALLER EQ PUSH2 0x6B1 JUMPI PUSH1 0x40 MLOAD PUSH3 0x461BCD PUSH1 0xE5 SHL DUP2 MSTORE PUSH1 0x20 PUSH1 0x4 DUP3 ADD DUP2 SWAP1 MSTORE PUSH1 0x24 DUP3 ADD MSTORE PUSH32 0x4F776E61626C653A2063616C6C6572206973206E6F7420746865206F776E6572 PUSH1 0x44 DUP3 ADD MSTORE PUSH1 0x64 ADD PUSH2 0x577 JUMP JUMPDEST PUSH2 0x8CD PUSH3 0x76A700 PUSH32 0x0 PUSH2 0xE9F JUMP JUMPDEST TIMESTAMP LT PUSH2 0x925 JUMPI PUSH1 0x40 MLOAD PUSH3 0x461BCD PUSH1 0xE5 SHL DUP2 MSTORE PUSH1 0x20 PUSH1 0x4 DUP3 ADD MSTORE PUSH1 0x21 PUSH1 0x24 DUP3 ADD MSTORE PUSH32 0x456D657267656E63794D696E7465723A206E6F206C6F6E676572206163746976 PUSH1 0x44 DUP3 ADD MSTORE PUSH1 0x65 PUSH1 0xF8 SHL PUSH1 0x64 DUP3 ADD MSTORE PUSH1 0x84 ADD PUSH2 0x577 JUMP JUMPDEST DUP1 PUSH1 0x1 PUSH1 0x1 PUSH1 0xA0 SHL SUB AND DUP3 PUSH1 0x1 PUSH1 0x1 PUSH1 0xA0 SHL SUB AND SUB PUSH2 0x986 JUMPI PUSH1 0x40 MLOAD PUSH3 0x461BCD PUSH1 0xE5 SHL DUP2 MSTORE PUSH1 0x20 PUSH1 0x4 DUP3 ADD MSTORE PUSH1 0x1C PUSH1 0x24 DUP3 ADD MSTORE PUSH32 0x456D657267656E63794D696E7465723A2073616D65206D696E74657200000000 PUSH1 0x44 DUP3 ADD MSTORE PUSH1 0x64 ADD PUSH2 0x577 JUMP JUMPDEST PUSH2 0x98F DUP3 PUSH2 0xBCF JUMP JUMPDEST PUSH2 0x9F2 JUMPI PUSH1 0x40 MLOAD PUSH3 0x461BCD PUSH1 0xE5 SHL DUP2 MSTORE PUSH1 0x20 PUSH1 0x4 DUP3 ADD MSTORE PUSH1 0x2E PUSH1 0x24 DUP3 ADD MSTORE PUSH32 0x456D657267656E63794D696E7465723A2063757272656E744D696E7465722069 PUSH1 0x44 DUP3 ADD MSTORE PUSH14 0x39903737BA10309036B4B73A32B9 PUSH1 0x91 SHL PUSH1 0x64 DUP3 ADD MSTORE PUSH1 0x84 ADD PUSH2 0x577 JUMP JUMPDEST PUSH1 0x40 MLOAD PUSH4 0x1FFC9A7 PUSH1 0xE0 SHL DUP2 MSTORE PUSH4 0x3874BA4D PUSH1 0xE1 SHL PUSH1 0x4 DUP3 ADD MSTORE PUSH1 0x1 PUSH1 0x1 PUSH1 0xA0 SHL SUB DUP3 AND SWAP1 PUSH4 0x1FFC9A7 SWAP1 PUSH1 0x24 ADD PUSH1 0x20 PUSH1 0x40 MLOAD DUP1 DUP4 SUB DUP2 DUP7 GAS STATICCALL ISZERO DUP1 ISZERO PUSH2 0xA3D JUMPI RETURNDATASIZE PUSH1 0x0 DUP1 RETURNDATACOPY RETURNDATASIZE PUSH1 0x0 REVERT JUMPDEST POP POP POP POP PUSH1 0x40 MLOAD RETURNDATASIZE PUSH1 0x1F NOT PUSH1 0x1F DUP3 ADD AND DUP3 ADD DUP1 PUSH1 0x40 MSTORE POP DUP2 ADD SWAP1 PUSH2 0xA61 SWAP2 SWAP1 PUSH2 0xE4E JUMP JUMPDEST PUSH2 0xAAD JUMPI PUSH1 0x40 MLOAD PUSH3 0x461BCD PUSH1 0xE5 SHL DUP2 MSTORE PUSH1 0x20 PUSH1 0x4 DUP3 ADD MSTORE PUSH1 0x1F PUSH1 0x24 DUP3 ADD MSTORE PUSH32 0x456D657267656E63794D696E7465723A20696E76616C6964206D696E74657200 PUSH1 0x44 DUP3 ADD MSTORE PUSH1 0x64 ADD PUSH2 0x577 JUMP JUMPDEST DUP2 PUSH1 0x1 PUSH1 0x1 PUSH1 0xA0 SHL SUB AND PUSH4 0x70E9749A PUSH1 0x40 MLOAD DUP2 PUSH4 0xFFFFFFFF AND PUSH1 0xE0 SHL DUP2 MSTORE PUSH1 0x4 ADD PUSH1 0x0 PUSH1 0x40 MLOAD DUP1 DUP4 SUB DUP2 PUSH1 0x0 DUP8 DUP1 EXTCODESIZE ISZERO DUP1 ISZERO PUSH2 0xAE8 JUMPI PUSH1 0x0 DUP1 REVERT JUMPDEST POP GAS CALL ISZERO DUP1 ISZERO PUSH2 0xAFC JUMPI RETURNDATASIZE PUSH1 0x0 DUP1 RETURNDATACOPY RETURNDATASIZE PUSH1 0x0 REVERT JUMPDEST POP POP PUSH1 0x40 MLOAD PUSH4 0x4C1D96AB PUSH1 0xE1 SHL DUP2 MSTORE PUSH1 0x1 PUSH1 0x1 PUSH1 0xA0 SHL SUB DUP5 DUP2 AND PUSH1 0x4 DUP4 ADD MSTORE PUSH32 0x0 AND SWAP3 POP PUSH4 0x983B2D56 SWAP2 POP PUSH1 0x24 ADD PUSH1 0x0 PUSH1 0x40 MLOAD DUP1 DUP4 SUB DUP2 PUSH1 0x0 DUP8 DUP1 EXTCODESIZE ISZERO DUP1 ISZERO PUSH2 0xB63 JUMPI PUSH1 0x0 DUP1 REVERT JUMPDEST POP GAS CALL ISZERO DUP1 ISZERO PUSH2 0xB77 JUMPI RETURNDATASIZE PUSH1 0x0 DUP1 RETURNDATACOPY RETURNDATASIZE PUSH1 0x0 REVERT JUMPDEST POP POP POP POP POP POP JUMP JUMPDEST PUSH1 0x0 DUP1 SLOAD PUSH1 0x1 PUSH1 0x1 PUSH1 0xA0 SHL SUB DUP4 DUP2 AND PUSH1 0x1 PUSH1 0x1 PUSH1 0xA0 SHL SUB NOT DUP4 AND DUP2 OR DUP5 SSTORE PUSH1 0x40 MLOAD SWAP2 SWAP1 SWAP3 AND SWAP3 DUP4 SWAP2 PUSH32 0x8BE0079C531659141344CD1FD0A4F28419497F9722A3DAAFE3B4186F6B6457E0 SWAP2 SWAP1 LOG3 POP POP JUMP JUMPDEST PUSH1 0x0 DUP1 PUSH32 0x0 PUSH1 0x1 PUSH1 0x1 PUSH1 0xA0 SHL SUB AND PUSH4 0x22D8DC23 PUSH1 0x40 MLOAD DUP2 PUSH4 0xFFFFFFFF AND PUSH1 0xE0 SHL DUP2 MSTORE PUSH1 0x4 ADD PUSH1 0x0 PUSH1 0x40 MLOAD DUP1 DUP4 SUB DUP2 DUP7 GAS STATICCALL ISZERO DUP1 ISZERO PUSH2 0xC30 JUMPI RETURNDATASIZE PUSH1 0x0 DUP1 RETURNDATACOPY RETURNDATASIZE PUSH1 0x0 REVERT JUMPDEST POP POP POP POP PUSH1 0x40 MLOAD RETURNDATASIZE PUSH1 0x0 DUP3 RETURNDATACOPY PUSH1 0x1F RETURNDATASIZE SWAP1 DUP2 ADD PUSH1 0x1F NOT AND DUP3 ADD PUSH1 0x40 MSTORE PUSH2 0xC58 SWAP2 SWAP1 DUP2 ADD SWAP1 PUSH2 0xD56 JUMP JUMPDEST SWAP1 POP PUSH1 0x0 JUMPDEST DUP2 MLOAD DUP2 LT ISZERO PUSH2 0xCB4 JUMPI DUP4 PUSH1 0x1 PUSH1 0x1 PUSH1 0xA0 SHL SUB AND DUP3 DUP3 DUP2 MLOAD DUP2 LT PUSH2 0xC82 JUMPI PUSH2 0xC82 PUSH2 0xE38 JUMP JUMPDEST PUSH1 0x20 MUL PUSH1 0x20 ADD ADD MLOAD PUSH1 0x1 PUSH1 0x1 PUSH1 0xA0 SHL SUB AND SUB PUSH2 0xCA2 JUMPI POP PUSH1 0x1 SWAP4 SWAP3 POP POP POP JUMP JUMPDEST DUP1 PUSH2 0xCAC DUP2 PUSH2 0xE86 JUMP JUMPDEST SWAP2 POP POP PUSH2 0xC5D JUMP JUMPDEST POP PUSH1 0x0 SWAP4 SWAP3 POP POP POP JUMP JUMPDEST PUSH1 0x1 PUSH1 0x1 PUSH1 0xA0 SHL SUB DUP2 AND DUP2 EQ PUSH2 0x729 JUMPI PUSH1 0x0 DUP1 REVERT JUMPDEST PUSH1 0x0 DUP1 PUSH1 0x40 DUP4 DUP6 SUB SLT ISZERO PUSH2 0xCE6 JUMPI PUSH1 0x0 DUP1 REVERT JUMPDEST DUP3 CALLDATALOAD PUSH2 0xCF1 DUP2 PUSH2 0xCBE JUMP JUMPDEST SWAP2 POP PUSH1 0x20 DUP4 ADD CALLDATALOAD PUSH2 0xD01 DUP2 PUSH2 0xCBE JUMP JUMPDEST DUP1 SWAP2 POP POP SWAP3 POP SWAP3 SWAP1 POP JUMP JUMPDEST PUSH1 0x0 PUSH1 0x20 DUP3 DUP5 SUB SLT ISZERO PUSH2 0xD1E JUMPI PUSH1 0x0 DUP1 REVERT JUMPDEST DUP2 CALLDATALOAD PUSH2 0xD29 DUP2 PUSH2 0xCBE JUMP JUMPDEST SWAP4 SWAP3 POP POP POP JUMP JUMPDEST PUSH4 0x4E487B71 PUSH1 0xE0 SHL PUSH1 0x0 MSTORE PUSH1 0x41 PUSH1 0x4 MSTORE PUSH1 0x24 PUSH1 0x0 REVERT JUMPDEST DUP1 MLOAD PUSH2 0xD51 DUP2 PUSH2 0xCBE JUMP JUMPDEST SWAP2 SWAP1 POP JUMP JUMPDEST PUSH1 0x0 PUSH1 0x20 DUP1 DUP4 DUP6 SUB SLT ISZERO PUSH2 0xD69 JUMPI PUSH1 0x0 DUP1 REVERT JUMPDEST DUP3 MLOAD PUSH8 0xFFFFFFFFFFFFFFFF DUP1 DUP3 GT ISZERO PUSH2 0xD81 JUMPI PUSH1 0x0 DUP1 REVERT JUMPDEST DUP2 DUP6 ADD SWAP2 POP DUP6 PUSH1 0x1F DUP4 ADD SLT PUSH2 0xD95 JUMPI PUSH1 0x0 DUP1 REVERT JUMPDEST DUP2 MLOAD DUP2 DUP2 GT ISZERO PUSH2 0xDA7 JUMPI PUSH2 0xDA7 PUSH2 0xD30 JUMP JUMPDEST DUP1 PUSH1 0x5 SHL PUSH1 0x40 MLOAD PUSH1 0x1F NOT PUSH1 0x3F DUP4 ADD AND DUP2 ADD DUP2 DUP2 LT DUP6 DUP3 GT OR ISZERO PUSH2 0xDCC JUMPI PUSH2 0xDCC PUSH2 0xD30 JUMP JUMPDEST PUSH1 0x40 MSTORE SWAP2 DUP3 MSTORE DUP5 DUP3 ADD SWAP3 POP DUP4 DUP2 ADD DUP6 ADD SWAP2 DUP9 DUP4 GT ISZERO PUSH2 0xDEA JUMPI PUSH1 0x0 DUP1 REVERT JUMPDEST SWAP4 DUP6 ADD SWAP4 JUMPDEST DUP3 DUP6 LT ISZERO PUSH2 0xE0F JUMPI PUSH2 0xE00 DUP6 PUSH2 0xD46 JUMP JUMPDEST DUP5 MSTORE SWAP4 DUP6 ADD SWAP4 SWAP3 DUP6 ADD SWAP3 PUSH2 0xDEF JUMP JUMPDEST SWAP9 SWAP8 POP POP POP POP POP POP POP POP JUMP JUMPDEST PUSH1 0x0 PUSH1 0x20 DUP3 DUP5 SUB SLT ISZERO PUSH2 0xE2D JUMPI PUSH1 0x0 DUP1 REVERT JUMPDEST DUP2 MLOAD PUSH2 0xD29 DUP2 PUSH2 0xCBE JUMP JUMPDEST PUSH4 0x4E487B71 PUSH1 0xE0 SHL PUSH1 0x0 MSTORE PUSH1 0x32 PUSH1 0x4 MSTORE PUSH1 0x24 PUSH1 0x0 REVERT JUMPDEST PUSH1 0x0 PUSH1 0x20 DUP3 DUP5 SUB SLT ISZERO PUSH2 0xE60 JUMPI PUSH1 0x0 DUP1 REVERT JUMPDEST DUP2 MLOAD DUP1 ISZERO ISZERO DUP2 EQ PUSH2 0xD29 JUMPI PUSH1 0x0 DUP1 REVERT JUMPDEST PUSH4 0x4E487B71 PUSH1 0xE0 SHL PUSH1 0x0 MSTORE PUSH1 0x11 PUSH1 0x4 MSTORE PUSH1 0x24 PUSH1 0x0 REVERT JUMPDEST PUSH1 0x0 PUSH1 0x1 DUP3 ADD PUSH2 0xE98 JUMPI PUSH2 0xE98 PUSH2 0xE70 JUMP JUMPDEST POP PUSH1 0x1 ADD SWAP1 JUMP JUMPDEST DUP1 DUP3 ADD DUP1 DUP3 GT ISZERO PUSH2 0xEB2 JUMPI PUSH2 0xEB2 PUSH2 0xE70 JUMP JUMPDEST SWAP3 SWAP2 POP POP JUMP INVALID LOG2 PUSH5 0x6970667358 0x22 SLT KECCAK256 PUSH1 0x39 0x1F SSTORE 0x23 SWAP16 SLT GT 0x23 0xE7 0xAB 0xD8 0xCC 0x4E CALLDATALOAD SWAP6 0x2F CALLER ADDRESS 0xE1 CALLDATASIZE SELFBALANCE 0x2E PUSH28 0xCC9B2C3176BB7E6C64736F6C63430008110033000000000000000000 ","sha1":"19aa3d162d1fc7527d6bd10b3fd5ad06bbaac896","source":"// SPDX-License-Identifier: GPL-3.0-or-later\npragma solidity 0.8.17;\n\nimport \"@openzeppelin/contracts/access/Ownable.sol\";\n\nimport \"../../interfaces/IController.sol\";\nimport \"../../interfaces/tokenomics/ICNCToken.sol\";\nimport \"../../interfaces/tokenomics/IMinter.sol\";\n\n/// @notice this contract will be added as a minter to the CNC token\n/// and will only be allow to add new minters for the first three months\n/// to be able to recover in case of an issue in the protocol\n/// Adding a minter will always be a governance decision and will have a\n/// timelock of 7 days (enforced by the governance proxy)\n/// to allow the community to review the decision\n/// should there ever be a need to add a new minter\n/// This will only be used in case of an emergency and should not actually\n/// be used should the protocol operate as intended\ncontract EmergencyMinter is Ownable {\n    event LpTokenStakerSwitched(address previousTokenStaker, address newTokenStaker);\n    event RebalancingRewardsHandlerSwitched(address previousHandler, address newHandler);\n    event Shutdown();\n\n    uint256 public constant ACTIVE_TIME = 90 days;\n\n    ICNCToken public immutable cnc;\n    IController public immutable controller;\n    uint256 public immutable deployedAt;\n\n    constructor(ICNCToken _cnc, IController _controller) {\n        cnc = _cnc;\n        controller = _controller;\n        deployedAt = block.timestamp;\n    }\n\n    /// @notice this switches the rebalancing reward handler in charge of minting CNC as reward\n    /// it replaces the reward handler for all the pools that have the previous handler\n    /// this should typicall be all the Omnipools, since at launch, they will all have\n    /// the same reward handler\n    function switchRebalancingRewardsHandler(address previousHandler, address newHandler)\n        external\n        onlyOwner\n    {\n        address[] memory pools = controller.listPools();\n        IInflationManager inflationManager = controller.inflationManager();\n        for (uint256 i; i < pools.length; i++) {\n            address pool = pools[i];\n            if (inflationManager.hasPoolRebalancingRewardHandlers(pool, previousHandler)) {\n                inflationManager.removePoolRebalancingRewardHandler(pool, previousHandler);\n                inflationManager.addPoolRebalancingRewardHandler(pool, newHandler);\n            }\n        }\n        _switchMinter(IMinter(previousHandler), IMinter(newHandler));\n        emit RebalancingRewardsHandlerSwitched(previousHandler, newHandler);\n    }\n\n    // NOTE: If a new LpTokenStaker is created, the previous one should be shut down first.\n    // Otherwise there is a risk of double counting inflation.\n    // Also to rescue rewards, one should call `claimPoolEarningsAndSellRewardTokens` for the reward managers\n    function switchLpTokenStaker(address previousTokenStaker, address newTokenStaker)\n        external\n        onlyOwner\n    {\n        require(\n            address(controller.lpTokenStaker()) == previousTokenStaker,\n            \"EmergencyMinter: invalid staker\"\n        );\n        ILpTokenStaker(previousTokenStaker).shutdown();\n        controller.setLpTokenStaker(newTokenStaker);\n        _switchMinter(IMinter(previousTokenStaker), IMinter(newTokenStaker));\n        emit LpTokenStakerSwitched(previousTokenStaker, newTokenStaker);\n    }\n\n    /// @notice renounces minting rights for `currentMinter` and adds them to `replacementMinter`\n    /// This is a critical operation that should only be executed in case an issue arises and will have a 7 days timelock\n    /// This function will only be callable for the first 90 days after deployment\n    function _switchMinter(IMinter currentMinter, IMinter replacementMinter) internal {\n        require(block.timestamp < deployedAt + ACTIVE_TIME, \"EmergencyMinter: no longer active\");\n        require(\n            address(currentMinter) != address(replacementMinter),\n            \"EmergencyMinter: same minter\"\n        );\n        require(\n            _isMinter(address(currentMinter)),\n            \"EmergencyMinter: currentMinter is not a minter\"\n        );\n        require(\n            replacementMinter.supportsInterface(IMinter.renounceMinterRights.selector),\n            \"EmergencyMinter: invalid minter\"\n        );\n\n        currentMinter.renounceMinterRights();\n        cnc.addMinter(address(replacementMinter));\n    }\n\n    /// @notice after the 90 days period, the contract cannot add new minters anymore\n    /// and this can be called to remove it from the list of minters,\n    /// although this will in practice not make a difference\n    function shutdown() external {\n        require(block.timestamp >= deployedAt + ACTIVE_TIME, \"EmergencyMinter: still active\");\n        cnc.renounceMinterRights();\n        emit Shutdown();\n    }\n\n    /// @dev we do not have a constant-time way to check if an address is a minter\n    /// so we need to iterate through all the minters\n    /// there should only ever be three minters when this function is called, so this is not an issue\n    function _isMinter(address minter) internal view returns (bool) {\n        address[] memory minters = cnc.listMinters();\n        for (uint256 i; i < minters.length; i++) {\n            if (minters[i] == address(minter)) {\n                return true;\n            }\n        }\n        return false;\n    }\n}\n","sourcePath":"contracts/tokenomics/EmergencyMinter.sol","type":"contract","deployment":{"address":"0xd12843bB5f174c8B01b7Fc09DB7D40d4102ABaf6","chainid":"1","blockHeight":16734354}}