{"abi":[{"inputs":[{"internalType":"address","name":"controller_","type":"address"}],"stateMutability":"nonpayable","type":"constructor","name":"constructor"},{"inputs":[{"internalType":"address","name":"_curvePool","type":"address"},{"internalType":"address","name":"_token","type":"address"},{"internalType":"uint256","name":"_amount","type":"uint256"}],"name":"deposit","outputs":[],"stateMutability":"nonpayable","type":"function"},{"inputs":[{"internalType":"address","name":"_curvePool","type":"address"}],"name":"isReentrantCall","outputs":[{"internalType":"bool","name":"","type":"bool"}],"stateMutability":"nonpayable","type":"function"},{"inputs":[{"internalType":"address","name":"_curvePool","type":"address"}],"name":"reentrancyCheck","outputs":[],"stateMutability":"nonpayable","type":"function"},{"inputs":[{"internalType":"address","name":"_curvePool","type":"address"},{"internalType":"address","name":"_token","type":"address"},{"internalType":"uint256","name":"_amount","type":"uint256"}],"name":"withdraw","outputs":[],"stateMutability":"nonpayable","type":"function"}],"bytecode":"60a06040523480156200001157600080fd5b50604051620029f4380380620029f4833981016040819052620000349162000046565b6001600160a01b031660805262000078565b6000602082840312156200005957600080fd5b81516001600160a01b03811681146200007157600080fd5b9392505050565b608051612921620000d3600039600081816101870152818161040a015281816107b301528181610ae701528181610c1d01528181610d53015281816113d5015281816114e90152818161160101526119ec01526129216000f3fe608060405234801561001057600080fd5b506004361061004c5760003560e01c80631aa5fba9146100515780638340f54914610078578063af9fe9e51461008d578063d9caed12146100a0575b600080fd5b61006461005f3660046123a8565b6100b3565b604051901515815260200160405180910390f35b61008b6100863660046123c5565b610406565b005b61008b61009b3660046123a8565b610746565b61008b6100ae3660046123c5565b6107af565b60006001600160a01b0382163f7f9e28a09452d2354fc4e15e3244dde27cbc4d52f12a10b91f2ca755b672bfa9be81148061010d57507f3429b8decaf6b79a2721e434f60c3c47b9961fdba16eb6ac6c50d3690ac2527681145b1561018357826001600160a01b03166386fc88d36040518163ffffffff1660e01b8152600401602060405180830381865afa92505050801561016c575060408051601f3d908101601f1916820190925261016991810190612406565b60015b6101795750600192915050565b5060009392505050565b60007f00000000000000000000000000000000000000000000000000000000000000006001600160a01b0316639f82b2176040518163ffffffff1660e01b8152600401602060405180830381865afa1580156101e3573d6000803e3d6000fd5b505050506040513d601f19601f82011682018060405250810190610207919061241f565b604051630bb075af60e11b81526001600160a01b0386811660048301529190911690631760eb5e90602401602060405180830381865afa15801561024f573d6000803e3d6000fd5b505050506040513d601f19601f820116820180604052508101906102739190612406565b9050600061028085610adf565b90506000805a90508360020361034e57866001600160a01b0316635b41b908846102ab5760016102ae565b60005b856102ba5760006102bd565b60015b6040516001600160e01b031960e085901b1681526004810192909252602482015260006044820181905260648201526084016020604051808303816000875af192505050801561032a575060408051601f3d908101601f1916820190925261032791810190612406565b60015b610340575a6103399082612452565b91506103f8565b506000979650505050505050565b866001600160a01b0316633df021248461036957600161036c565b60005b8561037857600061037b565b60015b6040516001600160e01b031960e085901b168152600f92830b6004820152910b60248201526000604482018190526064820152608401600060405180830381600087803b1580156103cb57600080fd5b505af19250505080156103dc575060015b6103eb575a6103399082612452565b5060009695505050505050565b506113881195945050505050565b60007f00000000000000000000000000000000000000000000000000000000000000006001600160a01b0316639f82b2176040518163ffffffff1660e01b8152600401602060405180830381865afa158015610466573d6000803e3d6000fd5b505050506040513d601f19601f8201168201806040525081019061048a919061241f565b905060006104988585610bf2565b9050816001600160a01b031663b677560f86836104b557866104cb565b73eeeeeeeeeeeeeeeeeeeeeeeeeeeeeeeeeeeeeeee5b6040518363ffffffff1660e01b81526004016104e8929190612465565b602060405180830381865afa158015610505573d6000803e3d6000fd5b505050506040513d601f19601f82011682018060405250810190610529919061247f565b610734576040516339d16a2360e11b81526001600160a01b038681166004830152600091908416906373a2d44690602401602060405180830381865afa158015610577573d6000803e3d6000fd5b505050506040513d601f19601f8201168201806040525081019061059b919061241f565b90506001600160a01b0381166105cc5760405162461bcd60e51b81526004016105c3906124b1565b60405180910390fd5b604051631da958a960e21b81526001600160a01b038281166004830152600091908516906376a562a490602401602060405180830381865afa158015610616573d6000803e3d6000fd5b505050506040513d601f19601f8201168201806040525081019061063a919061241f565b6040516370a0823160e01b81523060048201529091506000906001600160a01b038316906370a0823190602401602060405180830381865afa158015610684573d6000803e3d6000fd5b505050506040513d601f19601f820116820180604052508101906106a89190612406565b90506106b5838789610d28565b6040516370a0823160e01b8152306004820152919650869181906001600160a01b038416906370a0823190602401602060405180830381865afa158015610700573d6000803e3d6000fd5b505050506040513d601f19601f820116820180604052508101906107249190612406565b61072e9190612452565b95505050505b61073f858486610d28565b5050505050565b61074f816113d1565b6107565750565b61075f816100b3565b156107ac5760405162461bcd60e51b815260206004820152601c60248201527f437572766548616e646c65723a207265656e7472616e742063616c6c0000000060448201526064016105c3565b50565b60007f00000000000000000000000000000000000000000000000000000000000000006001600160a01b0316639f82b2176040518163ffffffff1660e01b8152600401602060405180830381865afa15801561080f573d6000803e3d6000fd5b505050506040513d601f19601f82011682018060405250810190610833919061241f565b905060006108418585610bf2565b9050816001600160a01b031663b677560f868361085e5786610874565b73eeeeeeeeeeeeeeeeeeeeeeeeeeeeeeeeeeeeeeee5b6040518363ffffffff1660e01b8152600401610891929190612465565b602060405180830381865afa1580156108ae573d6000803e3d6000fd5b505050506040513d601f19601f820116820180604052508101906108d2919061247f565b610ad4576040516339d16a2360e11b81526001600160a01b038681166004830152600091908416906373a2d44690602401602060405180830381865afa158015610920573d6000803e3d6000fd5b505050506040513d601f19601f82011682018060405250810190610944919061241f565b90506001600160a01b03811661096c5760405162461bcd60e51b81526004016105c3906124b1565b604051631da958a960e21b81526001600160a01b038281166004830152600091908516906376a562a490602401602060405180830381865afa1580156109b6573d6000803e3d6000fd5b505050506040513d601f19601f820116820180604052508101906109da919061241f565b6040516370a0823160e01b81523060048201529091506000906001600160a01b038316906370a0823190602401602060405180830381865afa158015610a24573d6000803e3d6000fd5b505050506040513d601f19601f82011682018060405250810190610a489190612406565b9050610a558887846114d7565b6040516370a0823160e01b8152306004820152929750879281906001600160a01b038416906370a0823190602401602060405180830381865afa158015610aa0573d6000803e3d6000fd5b505050506040513d601f19601f82011682018060405250810190610ac49190612406565b610ace9190612452565b95505050505b61073f8584866114d7565b600080600f0b7f00000000000000000000000000000000000000000000000000000000000000006001600160a01b0316639f82b2176040518163ffffffff1660e01b8152600401602060405180830381865afa158015610b43573d6000803e3d6000fd5b505050506040513d601f19601f82011682018060405250810190610b67919061241f565b6001600160a01b031662eb8ba48473c02aaa39b223fe8d0a0e5c4f27ead9083c756cc26040518363ffffffff1660e01b8152600401610ba7929190612465565b602060405180830381865afa158015610bc4573d6000803e3d6000fd5b505050506040513d601f19601f82011682018060405250810190610be891906124f5565b600f0b1492915050565b60006001600160a01b03821673c02aaa39b223fe8d0a0e5c4f27ead9083c756cc2148015610d1f57507f00000000000000000000000000000000000000000000000000000000000000006001600160a01b0316639f82b2176040518163ffffffff1660e01b8152600401602060405180830381865afa158015610c79573d6000803e3d6000fd5b505050506040513d601f19601f82011682018060405250810190610c9d919061241f565b6001600160a01b031663b677560f8473eeeeeeeeeeeeeeeeeeeeeeeeeeeeeeeeeeeeeeee6040518363ffffffff1660e01b8152600401610cde929190612465565b602060405180830381865afa158015610cfb573d6000803e3d6000fd5b505050506040513d601f19601f82011682018060405250810190610d1f919061247f565b90505b92915050565b6000610d348483610bf2565b905080610d4f57610d4f6001600160a01b038316858561189f565b60007f00000000000000000000000000000000000000000000000000000000000000006001600160a01b0316639f82b2176040518163ffffffff1660e01b8152600401602060405180830381865afa158015610daf573d6000803e3d6000fd5b505050506040513d601f19601f82011682018060405250810190610dd3919061241f565b90506000816001600160a01b031662eb8ba48785610df15786610e07565b73eeeeeeeeeeeeeeeeeeeeeeeeeeeeeeeeeeeeeeee5b6040518363ffffffff1660e01b8152600401610e24929190612465565b602060405180830381865afa158015610e41573d6000803e3d6000fd5b505050506040513d601f19601f82011682018060405250810190610e6591906124f5565b604051635f92e81560e11b81526001600160a01b0388811660048301526001600160801b0392909216925060009184169063bf25d02a90602401602060405180830381865afa158015610ebc573d6000803e3d6000fd5b505050506040513d601f19601f82011682018060405250810190610ee09190612406565b905080600203610fe957610ef26122c0565b86818460028110610f0557610f05612518565b60200201528415610f8157610f1987611987565b604051630b4c7e4d60e01b81526001600160a01b03891690630b4c7e4d908990610f4a908590600090600401612551565b6000604051808303818588803b158015610f6357600080fd5b505af1158015610f77573d6000803e3d6000fd5b5050505050610fe3565b604051630b4c7e4d60e01b81526001600160a01b03891690630b4c7e4d90610fb0908490600090600401612551565b600060405180830381600087803b158015610fca57600080fd5b505af1158015610fde573d6000803e3d6000fd5b505050505b506113c8565b8060030361108057610ff96122de565b8681846003811061100c5761100c612518565b602002015284156110515761102087611987565b604051634515cef360e01b81526001600160a01b03891690634515cef3908990610f4a90859060009060040161258f565b604051634515cef360e01b81526001600160a01b03891690634515cef390610fb090849060009060040161258f565b80600403611115576110906122fc565b868184600481106110a3576110a3612518565b602002015284156110e7576110b787611987565b60405162a6cbcd60e21b81526001600160a01b0389169063029b2f34908990610f4a9085906000906004016125cd565b60405162a6cbcd60e21b81526001600160a01b0389169063029b2f3490610fb09084906000906004016125cd565b806005036111ac5761112561231a565b8681846005811061113857611138612518565b6020020152841561117d5761114c87611987565b604051638473849960e01b81526001600160a01b038916906384738499908990610f4a90859060009060040161260b565b604051638473849960e01b81526001600160a01b03891690638473849990610fb090849060009060040161260b565b80600603611243576111bc612338565b868184600681106111cf576111cf612518565b60200201528415611214576111e387611987565b604051633f8a44f360e01b81526001600160a01b03891690633f8a44f3908990610f4a908590600090600401612649565b604051633f8a44f360e01b81526001600160a01b03891690633f8a44f390610fb0908490600090600401612649565b806007036112da57611253612356565b8681846007811061126657611266612518565b602002015284156112ab5761127a87611987565b60405163a5918ca160e01b81526001600160a01b0389169063a5918ca1908990610f4a908590600090600401612687565b60405163a5918ca160e01b81526001600160a01b0389169063a5918ca190610fb0908490600090600401612687565b80600803611371576112ea612374565b868184600881106112fd576112fd612518565b602002015284156113425761131187611987565b6040516352d7f31760e01b81526001600160a01b038916906352d7f317908990610f4a9085906000906004016126c6565b6040516352d7f31760e01b81526001600160a01b038916906352d7f31790610fb09084906000906004016126c6565b60405162461bcd60e51b815260206004820152602660248201527f696e76616c6964206e756d626572206f6620636f696e7320666f72206375727660448201526519481c1bdbdb60d21b60648201526084016105c3565b50505050505050565b60007f00000000000000000000000000000000000000000000000000000000000000006001600160a01b0316639f82b2176040518163ffffffff1660e01b8152600401602060405180830381865afa158015611431573d6000803e3d6000fd5b505050506040513d601f19601f82011682018060405250810190611455919061241f565b6001600160a01b031663b677560f8373eeeeeeeeeeeeeeeeeeeeeeeeeeeeeeeeeeeeeeee6040518363ffffffff1660e01b8152600401611496929190612465565b602060405180830381865afa1580156114b3573d6000803e3d6000fd5b505050506040513d601f19601f82011682018060405250810190610d22919061247f565b60006114e38483610bf2565b905060007f00000000000000000000000000000000000000000000000000000000000000006001600160a01b0316639f82b2176040518163ffffffff1660e01b8152600401602060405180830381865afa158015611545573d6000803e3d6000fd5b505050506040513d601f19601f82011682018060405250810190611569919061241f565b6001600160a01b031662eb8ba486846115825785611598565b73eeeeeeeeeeeeeeeeeeeeeeeeeeeeeeeeeeeeeeee5b6040518363ffffffff1660e01b81526004016115b5929190612465565b602060405180830381865afa1580156115d2573d6000803e3d6000fd5b505050506040513d601f19601f820116820180604052508101906115f691906124f5565b9050600047905060007f00000000000000000000000000000000000000000000000000000000000000006001600160a01b0316639f82b2176040518163ffffffff1660e01b8152600401602060405180830381865afa15801561165d573d6000803e3d6000fd5b505050506040513d601f19601f82011682018060405250810190611681919061241f565b604051630bb075af60e11b81526001600160a01b0389811660048301529190911690631760eb5e90602401602060405180830381865afa1580156116c9573d6000803e3d6000fd5b505050506040513d601f19601f820116820180604052508101906116ed9190612406565b905080600003611707576117028787856119e8565b611878565b8060010361177f57604051630d2680e960e11b815260048101879052600f84900b6024820152600060448201526001600160a01b03881690631a4d01d290606401600060405180830381600087803b15801561176257600080fd5b505af1158015611776573d6000803e3d6000fd5b50505050611878565b8060020361181c576040516307329bcd60e01b8152600481018790526001600160801b03841660248201526000604482015284151560648201523060848201526001600160a01b038816906307329bcd9060a4016020604051808303816000875af11580156117f2573d6000803e3d6000fd5b505050506040513d601f19601f820116820180604052508101906118169190612406565b50611878565b60405162461bcd60e51b815260206004820152602b60248201527f437572766548616e646c65723a20756e737570706f7274656420696e7465726660448201526a30b1b2903b32b939b4b7b760a91b60648201526084016105c3565b83156113c857600061188a8347612452565b905061189581611ede565b5050505050505050565b600081846001600160a01b031663dd62ed3e30866040518363ffffffff1660e01b81526004016118d0929190612465565b602060405180830381865afa1580156118ed573d6000803e3d6000fd5b505050506040513d601f19601f820116820180604052508101906119119190612406565b61191b91906126e3565b6040516001600160a01b03851660248201526044810182905290915061198190859063095ea7b360e01b906064015b60408051601f198184030181529190526020810180516001600160e01b03166001600160e01b031990931692909217909152611f41565b50505050565b604051632e1a7d4d60e01b81526004810182905273c02aaa39b223fe8d0a0e5c4f27ead9083c756cc290632e1a7d4d90602401600060405180830381600087803b1580156119d457600080fd5b505af115801561073f573d6000803e3d6000fd5b60007f00000000000000000000000000000000000000000000000000000000000000006001600160a01b0316639f82b2176040518163ffffffff1660e01b8152600401602060405180830381865afa158015611a48573d6000803e3d6000fd5b505050506040513d601f19601f82011682018060405250810190611a6c919061241f565b604051635f92e81560e11b81526001600160a01b03868116600483015291925060009183169063bf25d02a90602401602060405180830381865afa158015611ab8573d6000803e3d6000fd5b505050506040513d601f19601f82011682018060405250810190611adc9190612406565b905080600203611b5457611aee6122c0565b6040516316cd8e2760e21b81526001600160a01b03871690635b36389c90611b1c90889085906004016126f6565b600060405180830381600087803b158015611b3657600080fd5b505af1158015611b4a573d6000803e3d6000fd5b5050505050611d10565b80600303611b9257611b646122de565b60405163ecb586a560e01b81526001600160a01b0387169063ecb586a590611b1c908890859060040161270a565b80600403611bd057611ba26122fc565b604051637d49d87560e01b81526001600160a01b03871690637d49d87590611b1c908890859060040161271e565b80600503611c0e57611be061231a565b6040516371dffae760e11b81526001600160a01b0387169063e3bff5ce90611b1c9088908590600401612732565b80600603611c4c57611c1e612338565b60405163684916a560e01b81526001600160a01b0387169063684916a590611b1c9088908590600401612746565b80600703611c8a57611c5c612356565b604051635c912d2b60e01b81526001600160a01b03871690635c912d2b90611b1c908890859060040161275a565b80600803611cc857611c9a612374565b604051633fec654960e01b81526001600160a01b03871690633fec654990611b1c908890859060040161276f565b60405162461bcd60e51b815260206004820152601f60248201527f437572766548616e646c65723a20756e737570706f7274656420636f696e730060448201526064016105c3565b60005b81811015611ed65783600f0b810315611ec457604051630fa1ef5160e31b81526001600160a01b03878116600483015260009190851690637d0f7a8890602401600060405180830381865afa158015611d70573d6000803e3d6000fd5b505050506040513d6000823e601f3d908101601f19168201604052611d98919081019061279a565b90506000818381518110611dae57611dae612518565b60209081029190910101516040516370a0823160e01b81523060048201529091506000906001600160a01b038316906370a0823190602401602060405180830381865afa158015611e03573d6000803e3d6000fd5b505050506040513d601f19601f82011682018060405250810190611e279190612406565b905080600003611e3957505050611ec4565b611e4d6001600160a01b0383168a83612018565b604051630f7c084960e21b8152600f85810b600483015288900b602482015260448101829052600060648201526001600160a01b038a1690633df0212490608401600060405180830381600087803b158015611ea857600080fd5b505af1158015611ebc573d6000803e3d6000fd5b505050505050505b80611ece8161285f565b915050611d13565b505050505050565b73c02aaa39b223fe8d0a0e5c4f27ead9083c756cc26001600160a01b031663d0e30db0826040518263ffffffff1660e01b81526004016000604051808303818588803b158015611f2d57600080fd5b505af1158015611ed6573d6000803e3d6000fd5b6000611f96826040518060400160405280602081526020017f5361666545524332303a206c6f772d6c6576656c2063616c6c206661696c6564815250856001600160a01b031661212c9092919063ffffffff16565b8051909150156120135780806020019051810190611fb4919061247f565b6120135760405162461bcd60e51b815260206004820152602a60248201527f5361666545524332303a204552433230206f7065726174696f6e20646964206e6044820152691bdd081cdd58d8d9595960b21b60648201526084016105c3565b505050565b8015806120915750604051636eb1769f60e11b81526001600160a01b0384169063dd62ed3e9061204e9030908690600401612465565b602060405180830381865afa15801561206b573d6000803e3d6000fd5b505050506040513d601f19601f8201168201806040525081019061208f9190612406565b155b6120fc5760405162461bcd60e51b815260206004820152603660248201527f5361666545524332303a20617070726f76652066726f6d206e6f6e2d7a65726f60448201527520746f206e6f6e2d7a65726f20616c6c6f77616e636560501b60648201526084016105c3565b6040516001600160a01b03831660248201526044810182905261201390849063095ea7b360e01b9060640161194a565b606061213b8484600085612145565b90505b9392505050565b6060824710156121a65760405162461bcd60e51b815260206004820152602660248201527f416464726573733a20696e73756666696369656e742062616c616e636520666f6044820152651c8818d85b1b60d21b60648201526084016105c3565b600080866001600160a01b031685876040516121c2919061289c565b60006040518083038185875af1925050503d80600081146121ff576040519150601f19603f3d011682016040523d82523d6000602084013e612204565b606091505b509150915061221587838387612222565b925050505b949350505050565b6060831561229157825160000361228a576001600160a01b0385163b61228a5760405162461bcd60e51b815260206004820152601d60248201527f416464726573733a2063616c6c20746f206e6f6e2d636f6e747261637400000060448201526064016105c3565b508161221a565b61221a83838151156122a65781518083602001fd5b8060405162461bcd60e51b81526004016105c391906128b8565b60405180604001604052806002906020820280368337509192915050565b60405180606001604052806003906020820280368337509192915050565b60405180608001604052806004906020820280368337509192915050565b6040518060a001604052806005906020820280368337509192915050565b6040518060c001604052806006906020820280368337509192915050565b6040518060e001604052806007906020820280368337509192915050565b6040518061010001604052806008906020820280368337509192915050565b6001600160a01b03811681146107ac57600080fd5b6000602082840312156123ba57600080fd5b813561213e81612393565b6000806000606084860312156123da57600080fd5b83356123e581612393565b925060208401356123f581612393565b929592945050506040919091013590565b60006020828403121561241857600080fd5b5051919050565b60006020828403121561243157600080fd5b815161213e81612393565b634e487b7160e01b600052601160045260246000fd5b81810381811115610d2257610d2261243c565b6001600160a01b0392831681529116602082015260400190565b60006020828403121561249157600080fd5b8151801515811461213e57600080fd5b80516124ac81612393565b919050565b60208082526024908201527f437572766548616e646c65723a20696e7465726d656469617465206e6f7420666040820152631bdd5b9960e21b606082015260800190565b60006020828403121561250757600080fd5b815180600f0b811461213e57600080fd5b634e487b7160e01b600052603260045260246000fd5b8060005b6002811015611981578151845260209384019390910190600101612532565b6060810161255f828561252e565b8260408301529392505050565b8060005b6003811015611981578151845260209384019390910190600101612570565b6080810161259d828561256c565b8260608301529392505050565b8060005b60048110156119815781518452602093840193909101906001016125ae565b60a081016125db82856125aa565b8260808301529392505050565b8060005b60058110156119815781518452602093840193909101906001016125ec565b60c0810161261982856125e8565b8260a08301529392505050565b8060005b600681101561198157815184526020938401939091019060010161262a565b60e081016126578285612626565b8260c08301529392505050565b8060005b6007811015611981578151845260209384019390910190600101612668565b61010081016126968285612664565b8260e08301529392505050565b8060005b60088110156119815781518452602093840193909101906001016126a7565b61012081016126d582856126a3565b826101008301529392505050565b80820180821115610d2257610d2261243c565b8281526060810161213e602083018461252e565b8281526080810161213e602083018461256c565b82815260a0810161213e60208301846125aa565b82815260c0810161213e60208301846125e8565b82815260e0810161213e6020830184612626565b828152610100810161213e6020830184612664565b828152610120810161213e60208301846126a3565b634e487b7160e01b600052604160045260246000fd5b600060208083850312156127ad57600080fd5b825167ffffffffffffffff808211156127c557600080fd5b818501915085601f8301126127d957600080fd5b8151818111156127eb576127eb612784565b8060051b604051601f19603f8301168101818110858211171561281057612810612784565b60405291825284820192508381018501918883111561282e57600080fd5b938501935b8285101561285357612844856124a1565b84529385019392850192612833565b98975050505050505050565b6000600182016128715761287161243c565b5060010190565b60005b8381101561289357818101518382015260200161287b565b50506000910152565b600082516128ae818460208701612878565b9190910192915050565b60208152600082518060208401526128d7816040850160208701612878565b601f01601f1916919091016040019291505056fea264697066735822122044f5ad04e72f249707c5bf386b556af65411ba1330d7fd1787c950f089e088f564736f6c63430008110033","bytecodeSha1":"ed3d0709ac44642a382934d2ea0aa13cfb757fb6","compiler":{"evm_version":"london","optimizer":{"enabled":true,"runs":200},"version":"0.8.17+commit.8df45f5f"},"contractName":"CurveHandlerV3","language":"Solidity","natspec":{"kind":"dev","methods":{"deposit(address,address,uint256)":{"details":"This supports both v1 and v2 (crypto) pools.","notice":"Deposits single sided liquidity into a Curve pool","params":{"_amount":"Amount of asset to deposit","_curvePool":"Curve pool to deposit into","_token":"Asset to deposit"}},"reentrancyCheck(address)":{"details":"Reverts if it is in reentrancy","notice":"Validates if a given Curve pool is currently in reentrancy","params":{"_curvePool":"Curve pool to validate"}},"withdraw(address,address,uint256)":{"notice":"Withdraws single sided liquidity from a Curve pool","params":{"_amount":"Amount of Curve LP tokens to withdraw","_curvePool":"Curve pool to withdraw from","_token":"Underlying asset to withdraw"}}},"notice":"This contract acts as a wrapper for depositing and removing liquidity to and from Curve pools. Please be aware of the following: - This contract accepts WETH and unwraps it for Curve pool deposits - This contract should only be used through delegate calls for deposits and withdrawals - Slippage from deposits and withdrawals is handled in the ConicPool (do not use handler elsewhere)","version":1},"opcodes":"PUSH1 0x80 PUSH1 0x40 MSTORE CALLVALUE DUP1 ISZERO PUSH2 0x10 JUMPI PUSH1 0x0 DUP1 REVERT JUMPDEST POP PUSH1 0x4 CALLDATASIZE LT PUSH2 0x4C JUMPI PUSH1 0x0 CALLDATALOAD PUSH1 0xE0 SHR DUP1 PUSH4 0x1AA5FBA9 EQ PUSH2 0x51 JUMPI DUP1 PUSH4 0x8340F549 EQ PUSH2 0x78 JUMPI DUP1 PUSH4 0xAF9FE9E5 EQ PUSH2 0x8D JUMPI DUP1 PUSH4 0xD9CAED12 EQ PUSH2 0xA0 JUMPI JUMPDEST PUSH1 0x0 DUP1 REVERT JUMPDEST PUSH2 0x64 PUSH2 0x5F CALLDATASIZE PUSH1 0x4 PUSH2 0x23A8 JUMP JUMPDEST PUSH2 0xB3 JUMP JUMPDEST PUSH1 0x40 MLOAD SWAP1 ISZERO ISZERO DUP2 MSTORE PUSH1 0x20 ADD PUSH1 0x40 MLOAD DUP1 SWAP2 SUB SWAP1 RETURN JUMPDEST PUSH2 0x8B PUSH2 0x86 CALLDATASIZE PUSH1 0x4 PUSH2 0x23C5 JUMP JUMPDEST PUSH2 0x406 JUMP JUMPDEST STOP JUMPDEST PUSH2 0x8B PUSH2 0x9B CALLDATASIZE PUSH1 0x4 PUSH2 0x23A8 JUMP JUMPDEST PUSH2 0x746 JUMP JUMPDEST PUSH2 0x8B PUSH2 0xAE CALLDATASIZE PUSH1 0x4 PUSH2 0x23C5 JUMP JUMPDEST PUSH2 0x7AF JUMP JUMPDEST PUSH1 0x0 PUSH1 0x1 PUSH1 0x1 PUSH1 0xA0 SHL SUB DUP3 AND EXTCODEHASH PUSH32 0x9E28A09452D2354FC4E15E3244DDE27CBC4D52F12A10B91F2CA755B672BFA9BE DUP2 EQ DUP1 PUSH2 0x10D JUMPI POP PUSH32 0x3429B8DECAF6B79A2721E434F60C3C47B9961FDBA16EB6AC6C50D3690AC25276 DUP2 EQ JUMPDEST ISZERO PUSH2 0x183 JUMPI DUP3 PUSH1 0x1 PUSH1 0x1 PUSH1 0xA0 SHL SUB AND PUSH4 0x86FC88D3 PUSH1 0x40 MLOAD DUP2 PUSH4 0xFFFFFFFF AND PUSH1 0xE0 SHL DUP2 MSTORE PUSH1 0x4 ADD PUSH1 0x20 PUSH1 0x40 MLOAD DUP1 DUP4 SUB DUP2 DUP7 GAS STATICCALL SWAP3 POP POP POP DUP1 ISZERO PUSH2 0x16C JUMPI POP PUSH1 0x40 DUP1 MLOAD PUSH1 0x1F RETURNDATASIZE SWAP1 DUP2 ADD PUSH1 0x1F NOT AND DUP3 ADD SWAP1 SWAP3 MSTORE PUSH2 0x169 SWAP2 DUP2 ADD SWAP1 PUSH2 0x2406 JUMP JUMPDEST PUSH1 0x1 JUMPDEST PUSH2 0x179 JUMPI POP PUSH1 0x1 SWAP3 SWAP2 POP POP JUMP JUMPDEST POP PUSH1 0x0 SWAP4 SWAP3 POP POP POP JUMP JUMPDEST PUSH1 0x0 PUSH32 0x0 PUSH1 0x1 PUSH1 0x1 PUSH1 0xA0 SHL SUB AND PUSH4 0x9F82B217 PUSH1 0x40 MLOAD DUP2 PUSH4 0xFFFFFFFF AND PUSH1 0xE0 SHL DUP2 MSTORE PUSH1 0x4 ADD PUSH1 0x20 PUSH1 0x40 MLOAD DUP1 DUP4 SUB DUP2 DUP7 GAS STATICCALL ISZERO DUP1 ISZERO PUSH2 0x1E3 JUMPI RETURNDATASIZE PUSH1 0x0 DUP1 RETURNDATACOPY RETURNDATASIZE PUSH1 0x0 REVERT JUMPDEST POP POP POP POP PUSH1 0x40 MLOAD RETURNDATASIZE PUSH1 0x1F NOT PUSH1 0x1F DUP3 ADD AND DUP3 ADD DUP1 PUSH1 0x40 MSTORE POP DUP2 ADD SWAP1 PUSH2 0x207 SWAP2 SWAP1 PUSH2 0x241F JUMP JUMPDEST PUSH1 0x40 MLOAD PUSH4 0xBB075AF PUSH1 0xE1 SHL DUP2 MSTORE PUSH1 0x1 PUSH1 0x1 PUSH1 0xA0 SHL SUB DUP7 DUP2 AND PUSH1 0x4 DUP4 ADD MSTORE SWAP2 SWAP1 SWAP2 AND SWAP1 PUSH4 0x1760EB5E SWAP1 PUSH1 0x24 ADD PUSH1 0x20 PUSH1 0x40 MLOAD DUP1 DUP4 SUB DUP2 DUP7 GAS STATICCALL ISZERO DUP1 ISZERO PUSH2 0x24F JUMPI RETURNDATASIZE PUSH1 0x0 DUP1 RETURNDATACOPY RETURNDATASIZE PUSH1 0x0 REVERT JUMPDEST POP POP POP POP PUSH1 0x40 MLOAD RETURNDATASIZE PUSH1 0x1F NOT PUSH1 0x1F DUP3 ADD AND DUP3 ADD DUP1 PUSH1 0x40 MSTORE POP DUP2 ADD SWAP1 PUSH2 0x273 SWAP2 SWAP1 PUSH2 0x2406 JUMP JUMPDEST SWAP1 POP PUSH1 0x0 PUSH2 0x280 DUP6 PUSH2 0xADF JUMP JUMPDEST SWAP1 POP PUSH1 0x0 DUP1 GAS SWAP1 POP DUP4 PUSH1 0x2 SUB PUSH2 0x34E JUMPI DUP7 PUSH1 0x1 PUSH1 0x1 PUSH1 0xA0 SHL SUB AND PUSH4 0x5B41B908 DUP5 PUSH2 0x2AB JUMPI PUSH1 0x1 PUSH2 0x2AE JUMP JUMPDEST PUSH1 0x0 JUMPDEST DUP6 PUSH2 0x2BA JUMPI PUSH1 0x0 PUSH2 0x2BD JUMP JUMPDEST PUSH1 0x1 JUMPDEST PUSH1 0x40 MLOAD PUSH1 0x1 PUSH1 0x1 PUSH1 0xE0 SHL SUB NOT PUSH1 0xE0 DUP6 SWAP1 SHL AND DUP2 MSTORE PUSH1 0x4 DUP2 ADD SWAP3 SWAP1 SWAP3 MSTORE PUSH1 0x24 DUP3 ADD MSTORE PUSH1 0x0 PUSH1 0x44 DUP3 ADD DUP2 SWAP1 MSTORE PUSH1 0x64 DUP3 ADD MSTORE PUSH1 0x84 ADD PUSH1 0x20 PUSH1 0x40 MLOAD DUP1 DUP4 SUB DUP2 PUSH1 0x0 DUP8 GAS CALL SWAP3 POP POP POP DUP1 ISZERO PUSH2 0x32A JUMPI POP PUSH1 0x40 DUP1 MLOAD PUSH1 0x1F RETURNDATASIZE SWAP1 DUP2 ADD PUSH1 0x1F NOT AND DUP3 ADD SWAP1 SWAP3 MSTORE PUSH2 0x327 SWAP2 DUP2 ADD SWAP1 PUSH2 0x2406 JUMP JUMPDEST PUSH1 0x1 JUMPDEST PUSH2 0x340 JUMPI GAS PUSH2 0x339 SWAP1 DUP3 PUSH2 0x2452 JUMP JUMPDEST SWAP2 POP PUSH2 0x3F8 JUMP JUMPDEST POP PUSH1 0x0 SWAP8 SWAP7 POP POP POP POP POP POP POP JUMP JUMPDEST DUP7 PUSH1 0x1 PUSH1 0x1 PUSH1 0xA0 SHL SUB AND PUSH4 0x3DF02124 DUP5 PUSH2 0x369 JUMPI PUSH1 0x1 PUSH2 0x36C JUMP JUMPDEST PUSH1 0x0 JUMPDEST DUP6 PUSH2 0x378 JUMPI PUSH1 0x0 PUSH2 0x37B JUMP JUMPDEST PUSH1 0x1 JUMPDEST PUSH1 0x40 MLOAD PUSH1 0x1 PUSH1 0x1 PUSH1 0xE0 SHL SUB NOT PUSH1 0xE0 DUP6 SWAP1 SHL AND DUP2 MSTORE PUSH1 0xF SWAP3 DUP4 SIGNEXTEND PUSH1 0x4 DUP3 ADD MSTORE SWAP2 SIGNEXTEND PUSH1 0x24 DUP3 ADD MSTORE PUSH1 0x0 PUSH1 0x44 DUP3 ADD DUP2 SWAP1 MSTORE PUSH1 0x64 DUP3 ADD MSTORE PUSH1 0x84 ADD PUSH1 0x0 PUSH1 0x40 MLOAD DUP1 DUP4 SUB DUP2 PUSH1 0x0 DUP8 DUP1 EXTCODESIZE ISZERO DUP1 ISZERO PUSH2 0x3CB JUMPI PUSH1 0x0 DUP1 REVERT JUMPDEST POP GAS CALL SWAP3 POP POP POP DUP1 ISZERO PUSH2 0x3DC JUMPI POP PUSH1 0x1 JUMPDEST PUSH2 0x3EB JUMPI GAS PUSH2 0x339 SWAP1 DUP3 PUSH2 0x2452 JUMP JUMPDEST POP PUSH1 0x0 SWAP7 SWAP6 POP POP POP POP POP POP JUMP JUMPDEST POP PUSH2 0x1388 GT SWAP6 SWAP5 POP POP POP POP POP JUMP JUMPDEST PUSH1 0x0 PUSH32 0x0 PUSH1 0x1 PUSH1 0x1 PUSH1 0xA0 SHL SUB AND PUSH4 0x9F82B217 PUSH1 0x40 MLOAD DUP2 PUSH4 0xFFFFFFFF AND PUSH1 0xE0 SHL DUP2 MSTORE PUSH1 0x4 ADD PUSH1 0x20 PUSH1 0x40 MLOAD DUP1 DUP4 SUB DUP2 DUP7 GAS STATICCALL ISZERO DUP1 ISZERO PUSH2 0x466 JUMPI RETURNDATASIZE PUSH1 0x0 DUP1 RETURNDATACOPY RETURNDATASIZE PUSH1 0x0 REVERT JUMPDEST POP POP POP POP PUSH1 0x40 MLOAD RETURNDATASIZE PUSH1 0x1F NOT PUSH1 0x1F DUP3 ADD AND DUP3 ADD DUP1 PUSH1 0x40 MSTORE POP DUP2 ADD SWAP1 PUSH2 0x48A SWAP2 SWAP1 PUSH2 0x241F JUMP JUMPDEST SWAP1 POP PUSH1 0x0 PUSH2 0x498 DUP6 DUP6 PUSH2 0xBF2 JUMP JUMPDEST SWAP1 POP DUP2 PUSH1 0x1 PUSH1 0x1 PUSH1 0xA0 SHL SUB AND PUSH4 0xB677560F DUP7 DUP4 PUSH2 0x4B5 JUMPI DUP7 PUSH2 0x4CB JUMP JUMPDEST PUSH20 0xEEEEEEEEEEEEEEEEEEEEEEEEEEEEEEEEEEEEEEEE JUMPDEST PUSH1 0x40 MLOAD DUP4 PUSH4 0xFFFFFFFF AND PUSH1 0xE0 SHL DUP2 MSTORE PUSH1 0x4 ADD PUSH2 0x4E8 SWAP3 SWAP2 SWAP1 PUSH2 0x2465 JUMP JUMPDEST PUSH1 0x20 PUSH1 0x40 MLOAD DUP1 DUP4 SUB DUP2 DUP7 GAS STATICCALL ISZERO DUP1 ISZERO PUSH2 0x505 JUMPI RETURNDATASIZE PUSH1 0x0 DUP1 RETURNDATACOPY RETURNDATASIZE PUSH1 0x0 REVERT JUMPDEST POP POP POP POP PUSH1 0x40 MLOAD RETURNDATASIZE PUSH1 0x1F NOT PUSH1 0x1F DUP3 ADD AND DUP3 ADD DUP1 PUSH1 0x40 MSTORE POP DUP2 ADD SWAP1 PUSH2 0x529 SWAP2 SWAP1 PUSH2 0x247F JUMP JUMPDEST PUSH2 0x734 JUMPI PUSH1 0x40 MLOAD PUSH4 0x39D16A23 PUSH1 0xE1 SHL DUP2 MSTORE PUSH1 0x1 PUSH1 0x1 PUSH1 0xA0 SHL SUB DUP7 DUP2 AND PUSH1 0x4 DUP4 ADD MSTORE PUSH1 0x0 SWAP2 SWAP1 DUP5 AND SWAP1 PUSH4 0x73A2D446 SWAP1 PUSH1 0x24 ADD PUSH1 0x20 PUSH1 0x40 MLOAD DUP1 DUP4 SUB DUP2 DUP7 GAS STATICCALL ISZERO DUP1 ISZERO PUSH2 0x577 JUMPI RETURNDATASIZE PUSH1 0x0 DUP1 RETURNDATACOPY RETURNDATASIZE PUSH1 0x0 REVERT JUMPDEST POP POP POP POP PUSH1 0x40 MLOAD RETURNDATASIZE PUSH1 0x1F NOT PUSH1 0x1F DUP3 ADD AND DUP3 ADD DUP1 PUSH1 0x40 MSTORE POP DUP2 ADD SWAP1 PUSH2 0x59B SWAP2 SWAP1 PUSH2 0x241F JUMP JUMPDEST SWAP1 POP PUSH1 0x1 PUSH1 0x1 PUSH1 0xA0 SHL SUB DUP2 AND PUSH2 0x5CC JUMPI PUSH1 0x40 MLOAD PUSH3 0x461BCD PUSH1 0xE5 SHL DUP2 MSTORE PUSH1 0x4 ADD PUSH2 0x5C3 SWAP1 PUSH2 0x24B1 JUMP JUMPDEST PUSH1 0x40 MLOAD DUP1 SWAP2 SUB SWAP1 REVERT JUMPDEST PUSH1 0x40 MLOAD PUSH4 0x1DA958A9 PUSH1 0xE2 SHL DUP2 MSTORE PUSH1 0x1 PUSH1 0x1 PUSH1 0xA0 SHL SUB DUP3 DUP2 AND PUSH1 0x4 DUP4 ADD MSTORE PUSH1 0x0 SWAP2 SWAP1 DUP6 AND SWAP1 PUSH4 0x76A562A4 SWAP1 PUSH1 0x24 ADD PUSH1 0x20 PUSH1 0x40 MLOAD DUP1 DUP4 SUB DUP2 DUP7 GAS STATICCALL ISZERO DUP1 ISZERO PUSH2 0x616 JUMPI RETURNDATASIZE PUSH1 0x0 DUP1 RETURNDATACOPY RETURNDATASIZE PUSH1 0x0 REVERT JUMPDEST POP POP POP POP PUSH1 0x40 MLOAD RETURNDATASIZE PUSH1 0x1F NOT PUSH1 0x1F DUP3 ADD AND DUP3 ADD DUP1 PUSH1 0x40 MSTORE POP DUP2 ADD SWAP1 PUSH2 0x63A SWAP2 SWAP1 PUSH2 0x241F JUMP JUMPDEST PUSH1 0x40 MLOAD PUSH4 0x70A08231 PUSH1 0xE0 SHL DUP2 MSTORE ADDRESS PUSH1 0x4 DUP3 ADD MSTORE SWAP1 SWAP2 POP PUSH1 0x0 SWAP1 PUSH1 0x1 PUSH1 0x1 PUSH1 0xA0 SHL SUB DUP4 AND SWAP1 PUSH4 0x70A08231 SWAP1 PUSH1 0x24 ADD PUSH1 0x20 PUSH1 0x40 MLOAD DUP1 DUP4 SUB DUP2 DUP7 GAS STATICCALL ISZERO DUP1 ISZERO PUSH2 0x684 JUMPI RETURNDATASIZE PUSH1 0x0 DUP1 RETURNDATACOPY RETURNDATASIZE PUSH1 0x0 REVERT JUMPDEST POP POP POP POP PUSH1 0x40 MLOAD RETURNDATASIZE PUSH1 0x1F NOT PUSH1 0x1F DUP3 ADD AND DUP3 ADD DUP1 PUSH1 0x40 MSTORE POP DUP2 ADD SWAP1 PUSH2 0x6A8 SWAP2 SWAP1 PUSH2 0x2406 JUMP JUMPDEST SWAP1 POP PUSH2 0x6B5 DUP4 DUP8 DUP10 PUSH2 0xD28 JUMP JUMPDEST PUSH1 0x40 MLOAD PUSH4 0x70A08231 PUSH1 0xE0 SHL DUP2 MSTORE ADDRESS PUSH1 0x4 DUP3 ADD MSTORE SWAP2 SWAP7 POP DUP7 SWAP2 DUP2 SWAP1 PUSH1 0x1 PUSH1 0x1 PUSH1 0xA0 SHL SUB DUP5 AND SWAP1 PUSH4 0x70A08231 SWAP1 PUSH1 0x24 ADD PUSH1 0x20 PUSH1 0x40 MLOAD DUP1 DUP4 SUB DUP2 DUP7 GAS STATICCALL ISZERO DUP1 ISZERO PUSH2 0x700 JUMPI RETURNDATASIZE PUSH1 0x0 DUP1 RETURNDATACOPY RETURNDATASIZE PUSH1 0x0 REVERT JUMPDEST POP POP POP POP PUSH1 0x40 MLOAD RETURNDATASIZE PUSH1 0x1F NOT PUSH1 0x1F DUP3 ADD AND DUP3 ADD DUP1 PUSH1 0x40 MSTORE POP DUP2 ADD SWAP1 PUSH2 0x724 SWAP2 SWAP1 PUSH2 0x2406 JUMP JUMPDEST PUSH2 0x72E SWAP2 SWAP1 PUSH2 0x2452 JUMP JUMPDEST SWAP6 POP POP POP POP JUMPDEST PUSH2 0x73F DUP6 DUP5 DUP7 PUSH2 0xD28 JUMP JUMPDEST POP POP POP POP POP JUMP JUMPDEST PUSH2 0x74F DUP2 PUSH2 0x13D1 JUMP JUMPDEST PUSH2 0x756 JUMPI POP JUMP JUMPDEST PUSH2 0x75F DUP2 PUSH2 0xB3 JUMP JUMPDEST ISZERO PUSH2 0x7AC JUMPI PUSH1 0x40 MLOAD PUSH3 0x461BCD PUSH1 0xE5 SHL DUP2 MSTORE PUSH1 0x20 PUSH1 0x4 DUP3 ADD MSTORE PUSH1 0x1C PUSH1 0x24 DUP3 ADD MSTORE PUSH32 0x437572766548616E646C65723A207265656E7472616E742063616C6C00000000 PUSH1 0x44 DUP3 ADD MSTORE PUSH1 0x64 ADD PUSH2 0x5C3 JUMP JUMPDEST POP JUMP JUMPDEST PUSH1 0x0 PUSH32 0x0 PUSH1 0x1 PUSH1 0x1 PUSH1 0xA0 SHL SUB AND PUSH4 0x9F82B217 PUSH1 0x40 MLOAD DUP2 PUSH4 0xFFFFFFFF AND PUSH1 0xE0 SHL DUP2 MSTORE PUSH1 0x4 ADD PUSH1 0x20 PUSH1 0x40 MLOAD DUP1 DUP4 SUB DUP2 DUP7 GAS STATICCALL ISZERO DUP1 ISZERO PUSH2 0x80F JUMPI RETURNDATASIZE PUSH1 0x0 DUP1 RETURNDATACOPY RETURNDATASIZE PUSH1 0x0 REVERT JUMPDEST POP POP POP POP PUSH1 0x40 MLOAD RETURNDATASIZE PUSH1 0x1F NOT PUSH1 0x1F DUP3 ADD AND DUP3 ADD DUP1 PUSH1 0x40 MSTORE POP DUP2 ADD SWAP1 PUSH2 0x833 SWAP2 SWAP1 PUSH2 0x241F JUMP JUMPDEST SWAP1 POP PUSH1 0x0 PUSH2 0x841 DUP6 DUP6 PUSH2 0xBF2 JUMP JUMPDEST SWAP1 POP DUP2 PUSH1 0x1 PUSH1 0x1 PUSH1 0xA0 SHL SUB AND PUSH4 0xB677560F DUP7 DUP4 PUSH2 0x85E JUMPI DUP7 PUSH2 0x874 JUMP JUMPDEST PUSH20 0xEEEEEEEEEEEEEEEEEEEEEEEEEEEEEEEEEEEEEEEE JUMPDEST PUSH1 0x40 MLOAD DUP4 PUSH4 0xFFFFFFFF AND PUSH1 0xE0 SHL DUP2 MSTORE PUSH1 0x4 ADD PUSH2 0x891 SWAP3 SWAP2 SWAP1 PUSH2 0x2465 JUMP JUMPDEST PUSH1 0x20 PUSH1 0x40 MLOAD DUP1 DUP4 SUB DUP2 DUP7 GAS STATICCALL ISZERO DUP1 ISZERO PUSH2 0x8AE JUMPI RETURNDATASIZE PUSH1 0x0 DUP1 RETURNDATACOPY RETURNDATASIZE PUSH1 0x0 REVERT JUMPDEST POP POP POP POP PUSH1 0x40 MLOAD RETURNDATASIZE PUSH1 0x1F NOT PUSH1 0x1F DUP3 ADD AND DUP3 ADD DUP1 PUSH1 0x40 MSTORE POP DUP2 ADD SWAP1 PUSH2 0x8D2 SWAP2 SWAP1 PUSH2 0x247F JUMP JUMPDEST PUSH2 0xAD4 JUMPI PUSH1 0x40 MLOAD PUSH4 0x39D16A23 PUSH1 0xE1 SHL DUP2 MSTORE PUSH1 0x1 PUSH1 0x1 PUSH1 0xA0 SHL SUB DUP7 DUP2 AND PUSH1 0x4 DUP4 ADD MSTORE PUSH1 0x0 SWAP2 SWAP1 DUP5 AND SWAP1 PUSH4 0x73A2D446 SWAP1 PUSH1 0x24 ADD PUSH1 0x20 PUSH1 0x40 MLOAD DUP1 DUP4 SUB DUP2 DUP7 GAS STATICCALL ISZERO DUP1 ISZERO PUSH2 0x920 JUMPI RETURNDATASIZE PUSH1 0x0 DUP1 RETURNDATACOPY RETURNDATASIZE PUSH1 0x0 REVERT JUMPDEST POP POP POP POP PUSH1 0x40 MLOAD RETURNDATASIZE PUSH1 0x1F NOT PUSH1 0x1F DUP3 ADD AND DUP3 ADD DUP1 PUSH1 0x40 MSTORE POP DUP2 ADD SWAP1 PUSH2 0x944 SWAP2 SWAP1 PUSH2 0x241F JUMP JUMPDEST SWAP1 POP PUSH1 0x1 PUSH1 0x1 PUSH1 0xA0 SHL SUB DUP2 AND PUSH2 0x96C JUMPI PUSH1 0x40 MLOAD PUSH3 0x461BCD PUSH1 0xE5 SHL DUP2 MSTORE PUSH1 0x4 ADD PUSH2 0x5C3 SWAP1 PUSH2 0x24B1 JUMP JUMPDEST PUSH1 0x40 MLOAD PUSH4 0x1DA958A9 PUSH1 0xE2 SHL DUP2 MSTORE PUSH1 0x1 PUSH1 0x1 PUSH1 0xA0 SHL SUB DUP3 DUP2 AND PUSH1 0x4 DUP4 ADD MSTORE PUSH1 0x0 SWAP2 SWAP1 DUP6 AND SWAP1 PUSH4 0x76A562A4 SWAP1 PUSH1 0x24 ADD PUSH1 0x20 PUSH1 0x40 MLOAD DUP1 DUP4 SUB DUP2 DUP7 GAS STATICCALL ISZERO DUP1 ISZERO PUSH2 0x9B6 JUMPI RETURNDATASIZE PUSH1 0x0 DUP1 RETURNDATACOPY RETURNDATASIZE PUSH1 0x0 REVERT JUMPDEST POP POP POP POP PUSH1 0x40 MLOAD RETURNDATASIZE PUSH1 0x1F NOT PUSH1 0x1F DUP3 ADD AND DUP3 ADD DUP1 PUSH1 0x40 MSTORE POP DUP2 ADD SWAP1 PUSH2 0x9DA SWAP2 SWAP1 PUSH2 0x241F JUMP JUMPDEST PUSH1 0x40 MLOAD PUSH4 0x70A08231 PUSH1 0xE0 SHL DUP2 MSTORE ADDRESS PUSH1 0x4 DUP3 ADD MSTORE SWAP1 SWAP2 POP PUSH1 0x0 SWAP1 PUSH1 0x1 PUSH1 0x1 PUSH1 0xA0 SHL SUB DUP4 AND SWAP1 PUSH4 0x70A08231 SWAP1 PUSH1 0x24 ADD PUSH1 0x20 PUSH1 0x40 MLOAD DUP1 DUP4 SUB DUP2 DUP7 GAS STATICCALL ISZERO DUP1 ISZERO PUSH2 0xA24 JUMPI RETURNDATASIZE PUSH1 0x0 DUP1 RETURNDATACOPY RETURNDATASIZE PUSH1 0x0 REVERT JUMPDEST POP POP POP POP PUSH1 0x40 MLOAD RETURNDATASIZE PUSH1 0x1F NOT PUSH1 0x1F DUP3 ADD AND DUP3 ADD DUP1 PUSH1 0x40 MSTORE POP DUP2 ADD SWAP1 PUSH2 0xA48 SWAP2 SWAP1 PUSH2 0x2406 JUMP JUMPDEST SWAP1 POP PUSH2 0xA55 DUP9 DUP8 DUP5 PUSH2 0x14D7 JUMP JUMPDEST PUSH1 0x40 MLOAD PUSH4 0x70A08231 PUSH1 0xE0 SHL DUP2 MSTORE ADDRESS PUSH1 0x4 DUP3 ADD MSTORE SWAP3 SWAP8 POP DUP8 SWAP3 DUP2 SWAP1 PUSH1 0x1 PUSH1 0x1 PUSH1 0xA0 SHL SUB DUP5 AND SWAP1 PUSH4 0x70A08231 SWAP1 PUSH1 0x24 ADD PUSH1 0x20 PUSH1 0x40 MLOAD DUP1 DUP4 SUB DUP2 DUP7 GAS STATICCALL ISZERO DUP1 ISZERO PUSH2 0xAA0 JUMPI RETURNDATASIZE PUSH1 0x0 DUP1 RETURNDATACOPY RETURNDATASIZE PUSH1 0x0 REVERT JUMPDEST POP POP POP POP PUSH1 0x40 MLOAD RETURNDATASIZE PUSH1 0x1F NOT PUSH1 0x1F DUP3 ADD AND DUP3 ADD DUP1 PUSH1 0x40 MSTORE POP DUP2 ADD SWAP1 PUSH2 0xAC4 SWAP2 SWAP1 PUSH2 0x2406 JUMP JUMPDEST PUSH2 0xACE SWAP2 SWAP1 PUSH2 0x2452 JUMP JUMPDEST SWAP6 POP POP POP POP JUMPDEST PUSH2 0x73F DUP6 DUP5 DUP7 PUSH2 0x14D7 JUMP JUMPDEST PUSH1 0x0 DUP1 PUSH1 0xF SIGNEXTEND PUSH32 0x0 PUSH1 0x1 PUSH1 0x1 PUSH1 0xA0 SHL SUB AND PUSH4 0x9F82B217 PUSH1 0x40 MLOAD DUP2 PUSH4 0xFFFFFFFF AND PUSH1 0xE0 SHL DUP2 MSTORE PUSH1 0x4 ADD PUSH1 0x20 PUSH1 0x40 MLOAD DUP1 DUP4 SUB DUP2 DUP7 GAS STATICCALL ISZERO DUP1 ISZERO PUSH2 0xB43 JUMPI RETURNDATASIZE PUSH1 0x0 DUP1 RETURNDATACOPY RETURNDATASIZE PUSH1 0x0 REVERT JUMPDEST POP POP POP POP PUSH1 0x40 MLOAD RETURNDATASIZE PUSH1 0x1F NOT PUSH1 0x1F DUP3 ADD AND DUP3 ADD DUP1 PUSH1 0x40 MSTORE POP DUP2 ADD SWAP1 PUSH2 0xB67 SWAP2 SWAP1 PUSH2 0x241F JUMP JUMPDEST PUSH1 0x1 PUSH1 0x1 PUSH1 0xA0 SHL SUB AND PUSH3 0xEB8BA4 DUP5 PUSH20 0xC02AAA39B223FE8D0A0E5C4F27EAD9083C756CC2 PUSH1 0x40 MLOAD DUP4 PUSH4 0xFFFFFFFF AND PUSH1 0xE0 SHL DUP2 MSTORE PUSH1 0x4 ADD PUSH2 0xBA7 SWAP3 SWAP2 SWAP1 PUSH2 0x2465 JUMP JUMPDEST PUSH1 0x20 PUSH1 0x40 MLOAD DUP1 DUP4 SUB DUP2 DUP7 GAS STATICCALL ISZERO DUP1 ISZERO PUSH2 0xBC4 JUMPI RETURNDATASIZE PUSH1 0x0 DUP1 RETURNDATACOPY RETURNDATASIZE PUSH1 0x0 REVERT JUMPDEST POP POP POP POP PUSH1 0x40 MLOAD RETURNDATASIZE PUSH1 0x1F NOT PUSH1 0x1F DUP3 ADD AND DUP3 ADD DUP1 PUSH1 0x40 MSTORE POP DUP2 ADD SWAP1 PUSH2 0xBE8 SWAP2 SWAP1 PUSH2 0x24F5 JUMP JUMPDEST PUSH1 0xF SIGNEXTEND EQ SWAP3 SWAP2 POP POP JUMP JUMPDEST PUSH1 0x0 PUSH1 0x1 PUSH1 0x1 PUSH1 0xA0 SHL SUB DUP3 AND PUSH20 0xC02AAA39B223FE8D0A0E5C4F27EAD9083C756CC2 EQ DUP1 ISZERO PUSH2 0xD1F JUMPI POP PUSH32 0x0 PUSH1 0x1 PUSH1 0x1 PUSH1 0xA0 SHL SUB AND PUSH4 0x9F82B217 PUSH1 0x40 MLOAD DUP2 PUSH4 0xFFFFFFFF AND PUSH1 0xE0 SHL DUP2 MSTORE PUSH1 0x4 ADD PUSH1 0x20 PUSH1 0x40 MLOAD DUP1 DUP4 SUB DUP2 DUP7 GAS STATICCALL ISZERO DUP1 ISZERO PUSH2 0xC79 JUMPI RETURNDATASIZE PUSH1 0x0 DUP1 RETURNDATACOPY RETURNDATASIZE PUSH1 0x0 REVERT JUMPDEST POP POP POP POP PUSH1 0x40 MLOAD RETURNDATASIZE PUSH1 0x1F NOT PUSH1 0x1F DUP3 ADD AND DUP3 ADD DUP1 PUSH1 0x40 MSTORE POP DUP2 ADD SWAP1 PUSH2 0xC9D SWAP2 SWAP1 PUSH2 0x241F JUMP JUMPDEST PUSH1 0x1 PUSH1 0x1 PUSH1 0xA0 SHL SUB AND PUSH4 0xB677560F DUP5 PUSH20 0xEEEEEEEEEEEEEEEEEEEEEEEEEEEEEEEEEEEEEEEE PUSH1 0x40 MLOAD DUP4 PUSH4 0xFFFFFFFF AND PUSH1 0xE0 SHL DUP2 MSTORE PUSH1 0x4 ADD PUSH2 0xCDE SWAP3 SWAP2 SWAP1 PUSH2 0x2465 JUMP JUMPDEST PUSH1 0x20 PUSH1 0x40 MLOAD DUP1 DUP4 SUB DUP2 DUP7 GAS STATICCALL ISZERO DUP1 ISZERO PUSH2 0xCFB JUMPI RETURNDATASIZE PUSH1 0x0 DUP1 RETURNDATACOPY RETURNDATASIZE PUSH1 0x0 REVERT JUMPDEST POP POP POP POP PUSH1 0x40 MLOAD RETURNDATASIZE PUSH1 0x1F NOT PUSH1 0x1F DUP3 ADD AND DUP3 ADD DUP1 PUSH1 0x40 MSTORE POP DUP2 ADD SWAP1 PUSH2 0xD1F SWAP2 SWAP1 PUSH2 0x247F JUMP JUMPDEST SWAP1 POP JUMPDEST SWAP3 SWAP2 POP POP JUMP JUMPDEST PUSH1 0x0 PUSH2 0xD34 DUP5 DUP4 PUSH2 0xBF2 JUMP JUMPDEST SWAP1 POP DUP1 PUSH2 0xD4F JUMPI PUSH2 0xD4F PUSH1 0x1 PUSH1 0x1 PUSH1 0xA0 SHL SUB DUP4 AND DUP6 DUP6 PUSH2 0x189F JUMP JUMPDEST PUSH1 0x0 PUSH32 0x0 PUSH1 0x1 PUSH1 0x1 PUSH1 0xA0 SHL SUB AND PUSH4 0x9F82B217 PUSH1 0x40 MLOAD DUP2 PUSH4 0xFFFFFFFF AND PUSH1 0xE0 SHL DUP2 MSTORE PUSH1 0x4 ADD PUSH1 0x20 PUSH1 0x40 MLOAD DUP1 DUP4 SUB DUP2 DUP7 GAS STATICCALL ISZERO DUP1 ISZERO PUSH2 0xDAF JUMPI RETURNDATASIZE PUSH1 0x0 DUP1 RETURNDATACOPY RETURNDATASIZE PUSH1 0x0 REVERT JUMPDEST POP POP POP POP PUSH1 0x40 MLOAD RETURNDATASIZE PUSH1 0x1F NOT PUSH1 0x1F DUP3 ADD AND DUP3 ADD DUP1 PUSH1 0x40 MSTORE POP DUP2 ADD SWAP1 PUSH2 0xDD3 SWAP2 SWAP1 PUSH2 0x241F JUMP JUMPDEST SWAP1 POP PUSH1 0x0 DUP2 PUSH1 0x1 PUSH1 0x1 PUSH1 0xA0 SHL SUB AND PUSH3 0xEB8BA4 DUP8 DUP6 PUSH2 0xDF1 JUMPI DUP7 PUSH2 0xE07 JUMP JUMPDEST PUSH20 0xEEEEEEEEEEEEEEEEEEEEEEEEEEEEEEEEEEEEEEEE JUMPDEST PUSH1 0x40 MLOAD DUP4 PUSH4 0xFFFFFFFF AND PUSH1 0xE0 SHL DUP2 MSTORE PUSH1 0x4 ADD PUSH2 0xE24 SWAP3 SWAP2 SWAP1 PUSH2 0x2465 JUMP JUMPDEST PUSH1 0x20 PUSH1 0x40 MLOAD DUP1 DUP4 SUB DUP2 DUP7 GAS STATICCALL ISZERO DUP1 ISZERO PUSH2 0xE41 JUMPI RETURNDATASIZE PUSH1 0x0 DUP1 RETURNDATACOPY RETURNDATASIZE PUSH1 0x0 REVERT JUMPDEST POP POP POP POP PUSH1 0x40 MLOAD RETURNDATASIZE PUSH1 0x1F NOT PUSH1 0x1F DUP3 ADD AND DUP3 ADD DUP1 PUSH1 0x40 MSTORE POP DUP2 ADD SWAP1 PUSH2 0xE65 SWAP2 SWAP1 PUSH2 0x24F5 JUMP JUMPDEST PUSH1 0x40 MLOAD PUSH4 0x5F92E815 PUSH1 0xE1 SHL DUP2 MSTORE PUSH1 0x1 PUSH1 0x1 PUSH1 0xA0 SHL SUB DUP9 DUP2 AND PUSH1 0x4 DUP4 ADD MSTORE PUSH1 0x1 PUSH1 0x1 PUSH1 0x80 SHL SUB SWAP3 SWAP1 SWAP3 AND SWAP3 POP PUSH1 0x0 SWAP2 DUP5 AND SWAP1 PUSH4 0xBF25D02A SWAP1 PUSH1 0x24 ADD PUSH1 0x20 PUSH1 0x40 MLOAD DUP1 DUP4 SUB DUP2 DUP7 GAS STATICCALL ISZERO DUP1 ISZERO PUSH2 0xEBC JUMPI RETURNDATASIZE PUSH1 0x0 DUP1 RETURNDATACOPY RETURNDATASIZE PUSH1 0x0 REVERT JUMPDEST POP POP POP POP PUSH1 0x40 MLOAD RETURNDATASIZE PUSH1 0x1F NOT PUSH1 0x1F DUP3 ADD AND DUP3 ADD DUP1 PUSH1 0x40 MSTORE POP DUP2 ADD SWAP1 PUSH2 0xEE0 SWAP2 SWAP1 PUSH2 0x2406 JUMP JUMPDEST SWAP1 POP DUP1 PUSH1 0x2 SUB PUSH2 0xFE9 JUMPI PUSH2 0xEF2 PUSH2 0x22C0 JUMP JUMPDEST DUP7 DUP2 DUP5 PUSH1 0x2 DUP2 LT PUSH2 0xF05 JUMPI PUSH2 0xF05 PUSH2 0x2518 JUMP JUMPDEST PUSH1 0x20 MUL ADD MSTORE DUP5 ISZERO PUSH2 0xF81 JUMPI PUSH2 0xF19 DUP8 PUSH2 0x1987 JUMP JUMPDEST PUSH1 0x40 MLOAD PUSH4 0xB4C7E4D PUSH1 0xE0 SHL DUP2 MSTORE PUSH1 0x1 PUSH1 0x1 PUSH1 0xA0 SHL SUB DUP10 AND SWAP1 PUSH4 0xB4C7E4D SWAP1 DUP10 SWAP1 PUSH2 0xF4A SWAP1 DUP6 SWAP1 PUSH1 0x0 SWAP1 PUSH1 0x4 ADD PUSH2 0x2551 JUMP JUMPDEST PUSH1 0x0 PUSH1 0x40 MLOAD DUP1 DUP4 SUB DUP2 DUP6 DUP9 DUP1 EXTCODESIZE ISZERO DUP1 ISZERO PUSH2 0xF63 JUMPI PUSH1 0x0 DUP1 REVERT JUMPDEST POP GAS CALL ISZERO DUP1 ISZERO PUSH2 0xF77 JUMPI RETURNDATASIZE PUSH1 0x0 DUP1 RETURNDATACOPY RETURNDATASIZE PUSH1 0x0 REVERT JUMPDEST POP POP POP POP POP PUSH2 0xFE3 JUMP JUMPDEST PUSH1 0x40 MLOAD PUSH4 0xB4C7E4D PUSH1 0xE0 SHL DUP2 MSTORE PUSH1 0x1 PUSH1 0x1 PUSH1 0xA0 SHL SUB DUP10 AND SWAP1 PUSH4 0xB4C7E4D SWAP1 PUSH2 0xFB0 SWAP1 DUP5 SWAP1 PUSH1 0x0 SWAP1 PUSH1 0x4 ADD PUSH2 0x2551 JUMP JUMPDEST PUSH1 0x0 PUSH1 0x40 MLOAD DUP1 DUP4 SUB DUP2 PUSH1 0x0 DUP8 DUP1 EXTCODESIZE ISZERO DUP1 ISZERO PUSH2 0xFCA JUMPI PUSH1 0x0 DUP1 REVERT JUMPDEST POP GAS CALL ISZERO DUP1 ISZERO PUSH2 0xFDE JUMPI RETURNDATASIZE PUSH1 0x0 DUP1 RETURNDATACOPY RETURNDATASIZE PUSH1 0x0 REVERT JUMPDEST POP POP POP POP JUMPDEST POP PUSH2 0x13C8 JUMP JUMPDEST DUP1 PUSH1 0x3 SUB PUSH2 0x1080 JUMPI PUSH2 0xFF9 PUSH2 0x22DE JUMP JUMPDEST DUP7 DUP2 DUP5 PUSH1 0x3 DUP2 LT PUSH2 0x100C JUMPI PUSH2 0x100C PUSH2 0x2518 JUMP JUMPDEST PUSH1 0x20 MUL ADD MSTORE DUP5 ISZERO PUSH2 0x1051 JUMPI PUSH2 0x1020 DUP8 PUSH2 0x1987 JUMP JUMPDEST PUSH1 0x40 MLOAD PUSH4 0x4515CEF3 PUSH1 0xE0 SHL DUP2 MSTORE PUSH1 0x1 PUSH1 0x1 PUSH1 0xA0 SHL SUB DUP10 AND SWAP1 PUSH4 0x4515CEF3 SWAP1 DUP10 SWAP1 PUSH2 0xF4A SWAP1 DUP6 SWAP1 PUSH1 0x0 SWAP1 PUSH1 0x4 ADD PUSH2 0x258F JUMP JUMPDEST PUSH1 0x40 MLOAD PUSH4 0x4515CEF3 PUSH1 0xE0 SHL DUP2 MSTORE PUSH1 0x1 PUSH1 0x1 PUSH1 0xA0 SHL SUB DUP10 AND SWAP1 PUSH4 0x4515CEF3 SWAP1 PUSH2 0xFB0 SWAP1 DUP5 SWAP1 PUSH1 0x0 SWAP1 PUSH1 0x4 ADD PUSH2 0x258F JUMP JUMPDEST DUP1 PUSH1 0x4 SUB PUSH2 0x1115 JUMPI PUSH2 0x1090 PUSH2 0x22FC JUMP JUMPDEST DUP7 DUP2 DUP5 PUSH1 0x4 DUP2 LT PUSH2 0x10A3 JUMPI PUSH2 0x10A3 PUSH2 0x2518 JUMP JUMPDEST PUSH1 0x20 MUL ADD MSTORE DUP5 ISZERO PUSH2 0x10E7 JUMPI PUSH2 0x10B7 DUP8 PUSH2 0x1987 JUMP JUMPDEST PUSH1 0x40 MLOAD PUSH3 0xA6CBCD PUSH1 0xE2 SHL DUP2 MSTORE PUSH1 0x1 PUSH1 0x1 PUSH1 0xA0 SHL SUB DUP10 AND SWAP1 PUSH4 0x29B2F34 SWAP1 DUP10 SWAP1 PUSH2 0xF4A SWAP1 DUP6 SWAP1 PUSH1 0x0 SWAP1 PUSH1 0x4 ADD PUSH2 0x25CD JUMP JUMPDEST PUSH1 0x40 MLOAD PUSH3 0xA6CBCD PUSH1 0xE2 SHL DUP2 MSTORE PUSH1 0x1 PUSH1 0x1 PUSH1 0xA0 SHL SUB DUP10 AND SWAP1 PUSH4 0x29B2F34 SWAP1 PUSH2 0xFB0 SWAP1 DUP5 SWAP1 PUSH1 0x0 SWAP1 PUSH1 0x4 ADD PUSH2 0x25CD JUMP JUMPDEST DUP1 PUSH1 0x5 SUB PUSH2 0x11AC JUMPI PUSH2 0x1125 PUSH2 0x231A JUMP JUMPDEST DUP7 DUP2 DUP5 PUSH1 0x5 DUP2 LT PUSH2 0x1138 JUMPI PUSH2 0x1138 PUSH2 0x2518 JUMP JUMPDEST PUSH1 0x20 MUL ADD MSTORE DUP5 ISZERO PUSH2 0x117D JUMPI PUSH2 0x114C DUP8 PUSH2 0x1987 JUMP JUMPDEST PUSH1 0x40 MLOAD PUSH4 0x84738499 PUSH1 0xE0 SHL DUP2 MSTORE PUSH1 0x1 PUSH1 0x1 PUSH1 0xA0 SHL SUB DUP10 AND SWAP1 PUSH4 0x84738499 SWAP1 DUP10 SWAP1 PUSH2 0xF4A SWAP1 DUP6 SWAP1 PUSH1 0x0 SWAP1 PUSH1 0x4 ADD PUSH2 0x260B JUMP JUMPDEST PUSH1 0x40 MLOAD PUSH4 0x84738499 PUSH1 0xE0 SHL DUP2 MSTORE PUSH1 0x1 PUSH1 0x1 PUSH1 0xA0 SHL SUB DUP10 AND SWAP1 PUSH4 0x84738499 SWAP1 PUSH2 0xFB0 SWAP1 DUP5 SWAP1 PUSH1 0x0 SWAP1 PUSH1 0x4 ADD PUSH2 0x260B JUMP JUMPDEST DUP1 PUSH1 0x6 SUB PUSH2 0x1243 JUMPI PUSH2 0x11BC PUSH2 0x2338 JUMP JUMPDEST DUP7 DUP2 DUP5 PUSH1 0x6 DUP2 LT PUSH2 0x11CF JUMPI PUSH2 0x11CF PUSH2 0x2518 JUMP JUMPDEST PUSH1 0x20 MUL ADD MSTORE DUP5 ISZERO PUSH2 0x1214 JUMPI PUSH2 0x11E3 DUP8 PUSH2 0x1987 JUMP JUMPDEST PUSH1 0x40 MLOAD PUSH4 0x3F8A44F3 PUSH1 0xE0 SHL DUP2 MSTORE PUSH1 0x1 PUSH1 0x1 PUSH1 0xA0 SHL SUB DUP10 AND SWAP1 PUSH4 0x3F8A44F3 SWAP1 DUP10 SWAP1 PUSH2 0xF4A SWAP1 DUP6 SWAP1 PUSH1 0x0 SWAP1 PUSH1 0x4 ADD PUSH2 0x2649 JUMP JUMPDEST PUSH1 0x40 MLOAD PUSH4 0x3F8A44F3 PUSH1 0xE0 SHL DUP2 MSTORE PUSH1 0x1 PUSH1 0x1 PUSH1 0xA0 SHL SUB DUP10 AND SWAP1 PUSH4 0x3F8A44F3 SWAP1 PUSH2 0xFB0 SWAP1 DUP5 SWAP1 PUSH1 0x0 SWAP1 PUSH1 0x4 ADD PUSH2 0x2649 JUMP JUMPDEST DUP1 PUSH1 0x7 SUB PUSH2 0x12DA JUMPI PUSH2 0x1253 PUSH2 0x2356 JUMP JUMPDEST DUP7 DUP2 DUP5 PUSH1 0x7 DUP2 LT PUSH2 0x1266 JUMPI PUSH2 0x1266 PUSH2 0x2518 JUMP JUMPDEST PUSH1 0x20 MUL ADD MSTORE DUP5 ISZERO PUSH2 0x12AB JUMPI PUSH2 0x127A DUP8 PUSH2 0x1987 JUMP JUMPDEST PUSH1 0x40 MLOAD PUSH4 0xA5918CA1 PUSH1 0xE0 SHL DUP2 MSTORE PUSH1 0x1 PUSH1 0x1 PUSH1 0xA0 SHL SUB DUP10 AND SWAP1 PUSH4 0xA5918CA1 SWAP1 DUP10 SWAP1 PUSH2 0xF4A SWAP1 DUP6 SWAP1 PUSH1 0x0 SWAP1 PUSH1 0x4 ADD PUSH2 0x2687 JUMP JUMPDEST PUSH1 0x40 MLOAD PUSH4 0xA5918CA1 PUSH1 0xE0 SHL DUP2 MSTORE PUSH1 0x1 PUSH1 0x1 PUSH1 0xA0 SHL SUB DUP10 AND SWAP1 PUSH4 0xA5918CA1 SWAP1 PUSH2 0xFB0 SWAP1 DUP5 SWAP1 PUSH1 0x0 SWAP1 PUSH1 0x4 ADD PUSH2 0x2687 JUMP JUMPDEST DUP1 PUSH1 0x8 SUB PUSH2 0x1371 JUMPI PUSH2 0x12EA PUSH2 0x2374 JUMP JUMPDEST DUP7 DUP2 DUP5 PUSH1 0x8 DUP2 LT PUSH2 0x12FD JUMPI PUSH2 0x12FD PUSH2 0x2518 JUMP JUMPDEST PUSH1 0x20 MUL ADD MSTORE DUP5 ISZERO PUSH2 0x1342 JUMPI PUSH2 0x1311 DUP8 PUSH2 0x1987 JUMP JUMPDEST PUSH1 0x40 MLOAD PUSH4 0x52D7F317 PUSH1 0xE0 SHL DUP2 MSTORE PUSH1 0x1 PUSH1 0x1 PUSH1 0xA0 SHL SUB DUP10 AND SWAP1 PUSH4 0x52D7F317 SWAP1 DUP10 SWAP1 PUSH2 0xF4A SWAP1 DUP6 SWAP1 PUSH1 0x0 SWAP1 PUSH1 0x4 ADD PUSH2 0x26C6 JUMP JUMPDEST PUSH1 0x40 MLOAD PUSH4 0x52D7F317 PUSH1 0xE0 SHL DUP2 MSTORE PUSH1 0x1 PUSH1 0x1 PUSH1 0xA0 SHL SUB DUP10 AND SWAP1 PUSH4 0x52D7F317 SWAP1 PUSH2 0xFB0 SWAP1 DUP5 SWAP1 PUSH1 0x0 SWAP1 PUSH1 0x4 ADD PUSH2 0x26C6 JUMP JUMPDEST PUSH1 0x40 MLOAD PUSH3 0x461BCD PUSH1 0xE5 SHL DUP2 MSTORE PUSH1 0x20 PUSH1 0x4 DUP3 ADD MSTORE PUSH1 0x26 PUSH1 0x24 DUP3 ADD MSTORE PUSH32 0x696E76616C6964206E756D626572206F6620636F696E7320666F722063757276 PUSH1 0x44 DUP3 ADD MSTORE PUSH6 0x19481C1BDBDB PUSH1 0xD2 SHL PUSH1 0x64 DUP3 ADD MSTORE PUSH1 0x84 ADD PUSH2 0x5C3 JUMP JUMPDEST POP POP POP POP POP POP POP JUMP JUMPDEST PUSH1 0x0 PUSH32 0x0 PUSH1 0x1 PUSH1 0x1 PUSH1 0xA0 SHL SUB AND PUSH4 0x9F82B217 PUSH1 0x40 MLOAD DUP2 PUSH4 0xFFFFFFFF AND PUSH1 0xE0 SHL DUP2 MSTORE PUSH1 0x4 ADD PUSH1 0x20 PUSH1 0x40 MLOAD DUP1 DUP4 SUB DUP2 DUP7 GAS STATICCALL ISZERO DUP1 ISZERO PUSH2 0x1431 JUMPI RETURNDATASIZE PUSH1 0x0 DUP1 RETURNDATACOPY RETURNDATASIZE PUSH1 0x0 REVERT JUMPDEST POP POP POP POP PUSH1 0x40 MLOAD RETURNDATASIZE PUSH1 0x1F NOT PUSH1 0x1F DUP3 ADD AND DUP3 ADD DUP1 PUSH1 0x40 MSTORE POP DUP2 ADD SWAP1 PUSH2 0x1455 SWAP2 SWAP1 PUSH2 0x241F JUMP JUMPDEST PUSH1 0x1 PUSH1 0x1 PUSH1 0xA0 SHL SUB AND PUSH4 0xB677560F DUP4 PUSH20 0xEEEEEEEEEEEEEEEEEEEEEEEEEEEEEEEEEEEEEEEE PUSH1 0x40 MLOAD DUP4 PUSH4 0xFFFFFFFF AND PUSH1 0xE0 SHL DUP2 MSTORE PUSH1 0x4 ADD PUSH2 0x1496 SWAP3 SWAP2 SWAP1 PUSH2 0x2465 JUMP JUMPDEST PUSH1 0x20 PUSH1 0x40 MLOAD DUP1 DUP4 SUB DUP2 DUP7 GAS STATICCALL ISZERO DUP1 ISZERO PUSH2 0x14B3 JUMPI RETURNDATASIZE PUSH1 0x0 DUP1 RETURNDATACOPY RETURNDATASIZE PUSH1 0x0 REVERT JUMPDEST POP POP POP POP PUSH1 0x40 MLOAD RETURNDATASIZE PUSH1 0x1F NOT PUSH1 0x1F DUP3 ADD AND DUP3 ADD DUP1 PUSH1 0x40 MSTORE POP DUP2 ADD SWAP1 PUSH2 0xD22 SWAP2 SWAP1 PUSH2 0x247F JUMP JUMPDEST PUSH1 0x0 PUSH2 0x14E3 DUP5 DUP4 PUSH2 0xBF2 JUMP JUMPDEST SWAP1 POP PUSH1 0x0 PUSH32 0x0 PUSH1 0x1 PUSH1 0x1 PUSH1 0xA0 SHL SUB AND PUSH4 0x9F82B217 PUSH1 0x40 MLOAD DUP2 PUSH4 0xFFFFFFFF AND PUSH1 0xE0 SHL DUP2 MSTORE PUSH1 0x4 ADD PUSH1 0x20 PUSH1 0x40 MLOAD DUP1 DUP4 SUB DUP2 DUP7 GAS STATICCALL ISZERO DUP1 ISZERO PUSH2 0x1545 JUMPI RETURNDATASIZE PUSH1 0x0 DUP1 RETURNDATACOPY RETURNDATASIZE PUSH1 0x0 REVERT JUMPDEST POP POP POP POP PUSH1 0x40 MLOAD RETURNDATASIZE PUSH1 0x1F NOT PUSH1 0x1F DUP3 ADD AND DUP3 ADD DUP1 PUSH1 0x40 MSTORE POP DUP2 ADD SWAP1 PUSH2 0x1569 SWAP2 SWAP1 PUSH2 0x241F JUMP JUMPDEST PUSH1 0x1 PUSH1 0x1 PUSH1 0xA0 SHL SUB AND PUSH3 0xEB8BA4 DUP7 DUP5 PUSH2 0x1582 JUMPI DUP6 PUSH2 0x1598 JUMP JUMPDEST PUSH20 0xEEEEEEEEEEEEEEEEEEEEEEEEEEEEEEEEEEEEEEEE JUMPDEST PUSH1 0x40 MLOAD DUP4 PUSH4 0xFFFFFFFF AND PUSH1 0xE0 SHL DUP2 MSTORE PUSH1 0x4 ADD PUSH2 0x15B5 SWAP3 SWAP2 SWAP1 PUSH2 0x2465 JUMP JUMPDEST PUSH1 0x20 PUSH1 0x40 MLOAD DUP1 DUP4 SUB DUP2 DUP7 GAS STATICCALL ISZERO DUP1 ISZERO PUSH2 0x15D2 JUMPI RETURNDATASIZE PUSH1 0x0 DUP1 RETURNDATACOPY RETURNDATASIZE PUSH1 0x0 REVERT JUMPDEST POP POP POP POP PUSH1 0x40 MLOAD RETURNDATASIZE PUSH1 0x1F NOT PUSH1 0x1F DUP3 ADD AND DUP3 ADD DUP1 PUSH1 0x40 MSTORE POP DUP2 ADD SWAP1 PUSH2 0x15F6 SWAP2 SWAP1 PUSH2 0x24F5 JUMP JUMPDEST SWAP1 POP PUSH1 0x0 SELFBALANCE SWAP1 POP PUSH1 0x0 PUSH32 0x0 PUSH1 0x1 PUSH1 0x1 PUSH1 0xA0 SHL SUB AND PUSH4 0x9F82B217 PUSH1 0x40 MLOAD DUP2 PUSH4 0xFFFFFFFF AND PUSH1 0xE0 SHL DUP2 MSTORE PUSH1 0x4 ADD PUSH1 0x20 PUSH1 0x40 MLOAD DUP1 DUP4 SUB DUP2 DUP7 GAS STATICCALL ISZERO DUP1 ISZERO PUSH2 0x165D JUMPI RETURNDATASIZE PUSH1 0x0 DUP1 RETURNDATACOPY RETURNDATASIZE PUSH1 0x0 REVERT JUMPDEST POP POP POP POP PUSH1 0x40 MLOAD RETURNDATASIZE PUSH1 0x1F NOT PUSH1 0x1F DUP3 ADD AND DUP3 ADD DUP1 PUSH1 0x40 MSTORE POP DUP2 ADD SWAP1 PUSH2 0x1681 SWAP2 SWAP1 PUSH2 0x241F JUMP JUMPDEST PUSH1 0x40 MLOAD PUSH4 0xBB075AF PUSH1 0xE1 SHL DUP2 MSTORE PUSH1 0x1 PUSH1 0x1 PUSH1 0xA0 SHL SUB DUP10 DUP2 AND PUSH1 0x4 DUP4 ADD MSTORE SWAP2 SWAP1 SWAP2 AND SWAP1 PUSH4 0x1760EB5E SWAP1 PUSH1 0x24 ADD PUSH1 0x20 PUSH1 0x40 MLOAD DUP1 DUP4 SUB DUP2 DUP7 GAS STATICCALL ISZERO DUP1 ISZERO PUSH2 0x16C9 JUMPI RETURNDATASIZE PUSH1 0x0 DUP1 RETURNDATACOPY RETURNDATASIZE PUSH1 0x0 REVERT JUMPDEST POP POP POP POP PUSH1 0x40 MLOAD RETURNDATASIZE PUSH1 0x1F NOT PUSH1 0x1F DUP3 ADD AND DUP3 ADD DUP1 PUSH1 0x40 MSTORE POP DUP2 ADD SWAP1 PUSH2 0x16ED SWAP2 SWAP1 PUSH2 0x2406 JUMP JUMPDEST SWAP1 POP DUP1 PUSH1 0x0 SUB PUSH2 0x1707 JUMPI PUSH2 0x1702 DUP8 DUP8 DUP6 PUSH2 0x19E8 JUMP JUMPDEST PUSH2 0x1878 JUMP JUMPDEST DUP1 PUSH1 0x1 SUB PUSH2 0x177F JUMPI PUSH1 0x40 MLOAD PUSH4 0xD2680E9 PUSH1 0xE1 SHL DUP2 MSTORE PUSH1 0x4 DUP2 ADD DUP8 SWAP1 MSTORE PUSH1 0xF DUP5 SWAP1 SIGNEXTEND PUSH1 0x24 DUP3 ADD MSTORE PUSH1 0x0 PUSH1 0x44 DUP3 ADD MSTORE PUSH1 0x1 PUSH1 0x1 PUSH1 0xA0 SHL SUB DUP9 AND SWAP1 PUSH4 0x1A4D01D2 SWAP1 PUSH1 0x64 ADD PUSH1 0x0 PUSH1 0x40 MLOAD DUP1 DUP4 SUB DUP2 PUSH1 0x0 DUP8 DUP1 EXTCODESIZE ISZERO DUP1 ISZERO PUSH2 0x1762 JUMPI PUSH1 0x0 DUP1 REVERT JUMPDEST POP GAS CALL ISZERO DUP1 ISZERO PUSH2 0x1776 JUMPI RETURNDATASIZE PUSH1 0x0 DUP1 RETURNDATACOPY RETURNDATASIZE PUSH1 0x0 REVERT JUMPDEST POP POP POP POP PUSH2 0x1878 JUMP JUMPDEST DUP1 PUSH1 0x2 SUB PUSH2 0x181C JUMPI PUSH1 0x40 MLOAD PUSH4 0x7329BCD PUSH1 0xE0 SHL DUP2 MSTORE PUSH1 0x4 DUP2 ADD DUP8 SWAP1 MSTORE PUSH1 0x1 PUSH1 0x1 PUSH1 0x80 SHL SUB DUP5 AND PUSH1 0x24 DUP3 ADD MSTORE PUSH1 0x0 PUSH1 0x44 DUP3 ADD MSTORE DUP5 ISZERO ISZERO PUSH1 0x64 DUP3 ADD MSTORE ADDRESS PUSH1 0x84 DUP3 ADD MSTORE PUSH1 0x1 PUSH1 0x1 PUSH1 0xA0 SHL SUB DUP9 AND SWAP1 PUSH4 0x7329BCD SWAP1 PUSH1 0xA4 ADD PUSH1 0x20 PUSH1 0x40 MLOAD DUP1 DUP4 SUB DUP2 PUSH1 0x0 DUP8 GAS CALL ISZERO DUP1 ISZERO PUSH2 0x17F2 JUMPI RETURNDATASIZE PUSH1 0x0 DUP1 RETURNDATACOPY RETURNDATASIZE PUSH1 0x0 REVERT JUMPDEST POP POP POP POP PUSH1 0x40 MLOAD RETURNDATASIZE PUSH1 0x1F NOT PUSH1 0x1F DUP3 ADD AND DUP3 ADD DUP1 PUSH1 0x40 MSTORE POP DUP2 ADD SWAP1 PUSH2 0x1816 SWAP2 SWAP1 PUSH2 0x2406 JUMP JUMPDEST POP PUSH2 0x1878 JUMP JUMPDEST PUSH1 0x40 MLOAD PUSH3 0x461BCD PUSH1 0xE5 SHL DUP2 MSTORE PUSH1 0x20 PUSH1 0x4 DUP3 ADD MSTORE PUSH1 0x2B PUSH1 0x24 DUP3 ADD MSTORE PUSH32 0x437572766548616E646C65723A20756E737570706F7274656420696E74657266 PUSH1 0x44 DUP3 ADD MSTORE PUSH11 0x30B1B2903B32B939B4B7B7 PUSH1 0xA9 SHL PUSH1 0x64 DUP3 ADD MSTORE PUSH1 0x84 ADD PUSH2 0x5C3 JUMP JUMPDEST DUP4 ISZERO PUSH2 0x13C8 JUMPI PUSH1 0x0 PUSH2 0x188A DUP4 SELFBALANCE PUSH2 0x2452 JUMP JUMPDEST SWAP1 POP PUSH2 0x1895 DUP2 PUSH2 0x1EDE JUMP JUMPDEST POP POP POP POP POP POP POP POP JUMP JUMPDEST PUSH1 0x0 DUP2 DUP5 PUSH1 0x1 PUSH1 0x1 PUSH1 0xA0 SHL SUB AND PUSH4 0xDD62ED3E ADDRESS DUP7 PUSH1 0x40 MLOAD DUP4 PUSH4 0xFFFFFFFF AND PUSH1 0xE0 SHL DUP2 MSTORE PUSH1 0x4 ADD PUSH2 0x18D0 SWAP3 SWAP2 SWAP1 PUSH2 0x2465 JUMP JUMPDEST PUSH1 0x20 PUSH1 0x40 MLOAD DUP1 DUP4 SUB DUP2 DUP7 GAS STATICCALL ISZERO DUP1 ISZERO PUSH2 0x18ED JUMPI RETURNDATASIZE PUSH1 0x0 DUP1 RETURNDATACOPY RETURNDATASIZE PUSH1 0x0 REVERT JUMPDEST POP POP POP POP PUSH1 0x40 MLOAD RETURNDATASIZE PUSH1 0x1F NOT PUSH1 0x1F DUP3 ADD AND DUP3 ADD DUP1 PUSH1 0x40 MSTORE POP DUP2 ADD SWAP1 PUSH2 0x1911 SWAP2 SWAP1 PUSH2 0x2406 JUMP JUMPDEST PUSH2 0x191B SWAP2 SWAP1 PUSH2 0x26E3 JUMP JUMPDEST PUSH1 0x40 MLOAD PUSH1 0x1 PUSH1 0x1 PUSH1 0xA0 SHL SUB DUP6 AND PUSH1 0x24 DUP3 ADD MSTORE PUSH1 0x44 DUP2 ADD DUP3 SWAP1 MSTORE SWAP1 SWAP2 POP PUSH2 0x1981 SWAP1 DUP6 SWAP1 PUSH4 0x95EA7B3 PUSH1 0xE0 SHL SWAP1 PUSH1 0x64 ADD JUMPDEST PUSH1 0x40 DUP1 MLOAD PUSH1 0x1F NOT DUP2 DUP5 SUB ADD DUP2 MSTORE SWAP2 SWAP1 MSTORE PUSH1 0x20 DUP2 ADD DUP1 MLOAD PUSH1 0x1 PUSH1 0x1 PUSH1 0xE0 SHL SUB AND PUSH1 0x1 PUSH1 0x1 PUSH1 0xE0 SHL SUB NOT SWAP1 SWAP4 AND SWAP3 SWAP1 SWAP3 OR SWAP1 SWAP2 MSTORE PUSH2 0x1F41 JUMP JUMPDEST POP POP POP POP JUMP JUMPDEST PUSH1 0x40 MLOAD PUSH4 0x2E1A7D4D PUSH1 0xE0 SHL DUP2 MSTORE PUSH1 0x4 DUP2 ADD DUP3 SWAP1 MSTORE PUSH20 0xC02AAA39B223FE8D0A0E5C4F27EAD9083C756CC2 SWAP1 PUSH4 0x2E1A7D4D SWAP1 PUSH1 0x24 ADD PUSH1 0x0 PUSH1 0x40 MLOAD DUP1 DUP4 SUB DUP2 PUSH1 0x0 DUP8 DUP1 EXTCODESIZE ISZERO DUP1 ISZERO PUSH2 0x19D4 JUMPI PUSH1 0x0 DUP1 REVERT JUMPDEST POP GAS CALL ISZERO DUP1 ISZERO PUSH2 0x73F JUMPI RETURNDATASIZE PUSH1 0x0 DUP1 RETURNDATACOPY RETURNDATASIZE PUSH1 0x0 REVERT JUMPDEST PUSH1 0x0 PUSH32 0x0 PUSH1 0x1 PUSH1 0x1 PUSH1 0xA0 SHL SUB AND PUSH4 0x9F82B217 PUSH1 0x40 MLOAD DUP2 PUSH4 0xFFFFFFFF AND PUSH1 0xE0 SHL DUP2 MSTORE PUSH1 0x4 ADD PUSH1 0x20 PUSH1 0x40 MLOAD DUP1 DUP4 SUB DUP2 DUP7 GAS STATICCALL ISZERO DUP1 ISZERO PUSH2 0x1A48 JUMPI RETURNDATASIZE PUSH1 0x0 DUP1 RETURNDATACOPY RETURNDATASIZE PUSH1 0x0 REVERT JUMPDEST POP POP POP POP PUSH1 0x40 MLOAD RETURNDATASIZE PUSH1 0x1F NOT PUSH1 0x1F DUP3 ADD AND DUP3 ADD DUP1 PUSH1 0x40 MSTORE POP DUP2 ADD SWAP1 PUSH2 0x1A6C SWAP2 SWAP1 PUSH2 0x241F JUMP JUMPDEST PUSH1 0x40 MLOAD PUSH4 0x5F92E815 PUSH1 0xE1 SHL DUP2 MSTORE PUSH1 0x1 PUSH1 0x1 PUSH1 0xA0 SHL SUB DUP7 DUP2 AND PUSH1 0x4 DUP4 ADD MSTORE SWAP2 SWAP3 POP PUSH1 0x0 SWAP2 DUP4 AND SWAP1 PUSH4 0xBF25D02A SWAP1 PUSH1 0x24 ADD PUSH1 0x20 PUSH1 0x40 MLOAD DUP1 DUP4 SUB DUP2 DUP7 GAS STATICCALL ISZERO DUP1 ISZERO PUSH2 0x1AB8 JUMPI RETURNDATASIZE PUSH1 0x0 DUP1 RETURNDATACOPY RETURNDATASIZE PUSH1 0x0 REVERT JUMPDEST POP POP POP POP PUSH1 0x40 MLOAD RETURNDATASIZE PUSH1 0x1F NOT PUSH1 0x1F DUP3 ADD AND DUP3 ADD DUP1 PUSH1 0x40 MSTORE POP DUP2 ADD SWAP1 PUSH2 0x1ADC SWAP2 SWAP1 PUSH2 0x2406 JUMP JUMPDEST SWAP1 POP DUP1 PUSH1 0x2 SUB PUSH2 0x1B54 JUMPI PUSH2 0x1AEE PUSH2 0x22C0 JUMP JUMPDEST PUSH1 0x40 MLOAD PUSH4 0x16CD8E27 PUSH1 0xE2 SHL DUP2 MSTORE PUSH1 0x1 PUSH1 0x1 PUSH1 0xA0 SHL SUB DUP8 AND SWAP1 PUSH4 0x5B36389C SWAP1 PUSH2 0x1B1C SWAP1 DUP9 SWAP1 DUP6 SWAP1 PUSH1 0x4 ADD PUSH2 0x26F6 JUMP JUMPDEST PUSH1 0x0 PUSH1 0x40 MLOAD DUP1 DUP4 SUB DUP2 PUSH1 0x0 DUP8 DUP1 EXTCODESIZE ISZERO DUP1 ISZERO PUSH2 0x1B36 JUMPI PUSH1 0x0 DUP1 REVERT JUMPDEST POP GAS CALL ISZERO DUP1 ISZERO PUSH2 0x1B4A JUMPI RETURNDATASIZE PUSH1 0x0 DUP1 RETURNDATACOPY RETURNDATASIZE PUSH1 0x0 REVERT JUMPDEST POP POP POP POP POP PUSH2 0x1D10 JUMP JUMPDEST DUP1 PUSH1 0x3 SUB PUSH2 0x1B92 JUMPI PUSH2 0x1B64 PUSH2 0x22DE JUMP JUMPDEST PUSH1 0x40 MLOAD PUSH4 0xECB586A5 PUSH1 0xE0 SHL DUP2 MSTORE PUSH1 0x1 PUSH1 0x1 PUSH1 0xA0 SHL SUB DUP8 AND SWAP1 PUSH4 0xECB586A5 SWAP1 PUSH2 0x1B1C SWAP1 DUP9 SWAP1 DUP6 SWAP1 PUSH1 0x4 ADD PUSH2 0x270A JUMP JUMPDEST DUP1 PUSH1 0x4 SUB PUSH2 0x1BD0 JUMPI PUSH2 0x1BA2 PUSH2 0x22FC JUMP JUMPDEST PUSH1 0x40 MLOAD PUSH4 0x7D49D875 PUSH1 0xE0 SHL DUP2 MSTORE PUSH1 0x1 PUSH1 0x1 PUSH1 0xA0 SHL SUB DUP8 AND SWAP1 PUSH4 0x7D49D875 SWAP1 PUSH2 0x1B1C SWAP1 DUP9 SWAP1 DUP6 SWAP1 PUSH1 0x4 ADD PUSH2 0x271E JUMP JUMPDEST DUP1 PUSH1 0x5 SUB PUSH2 0x1C0E JUMPI PUSH2 0x1BE0 PUSH2 0x231A JUMP JUMPDEST PUSH1 0x40 MLOAD PUSH4 0x71DFFAE7 PUSH1 0xE1 SHL DUP2 MSTORE PUSH1 0x1 PUSH1 0x1 PUSH1 0xA0 SHL SUB DUP8 AND SWAP1 PUSH4 0xE3BFF5CE SWAP1 PUSH2 0x1B1C SWAP1 DUP9 SWAP1 DUP6 SWAP1 PUSH1 0x4 ADD PUSH2 0x2732 JUMP JUMPDEST DUP1 PUSH1 0x6 SUB PUSH2 0x1C4C JUMPI PUSH2 0x1C1E PUSH2 0x2338 JUMP JUMPDEST PUSH1 0x40 MLOAD PUSH4 0x684916A5 PUSH1 0xE0 SHL DUP2 MSTORE PUSH1 0x1 PUSH1 0x1 PUSH1 0xA0 SHL SUB DUP8 AND SWAP1 PUSH4 0x684916A5 SWAP1 PUSH2 0x1B1C SWAP1 DUP9 SWAP1 DUP6 SWAP1 PUSH1 0x4 ADD PUSH2 0x2746 JUMP JUMPDEST DUP1 PUSH1 0x7 SUB PUSH2 0x1C8A JUMPI PUSH2 0x1C5C PUSH2 0x2356 JUMP JUMPDEST PUSH1 0x40 MLOAD PUSH4 0x5C912D2B PUSH1 0xE0 SHL DUP2 MSTORE PUSH1 0x1 PUSH1 0x1 PUSH1 0xA0 SHL SUB DUP8 AND SWAP1 PUSH4 0x5C912D2B SWAP1 PUSH2 0x1B1C SWAP1 DUP9 SWAP1 DUP6 SWAP1 PUSH1 0x4 ADD PUSH2 0x275A JUMP JUMPDEST DUP1 PUSH1 0x8 SUB PUSH2 0x1CC8 JUMPI PUSH2 0x1C9A PUSH2 0x2374 JUMP JUMPDEST PUSH1 0x40 MLOAD PUSH4 0x3FEC6549 PUSH1 0xE0 SHL DUP2 MSTORE PUSH1 0x1 PUSH1 0x1 PUSH1 0xA0 SHL SUB DUP8 AND SWAP1 PUSH4 0x3FEC6549 SWAP1 PUSH2 0x1B1C SWAP1 DUP9 SWAP1 DUP6 SWAP1 PUSH1 0x4 ADD PUSH2 0x276F JUMP JUMPDEST PUSH1 0x40 MLOAD PUSH3 0x461BCD PUSH1 0xE5 SHL DUP2 MSTORE PUSH1 0x20 PUSH1 0x4 DUP3 ADD MSTORE PUSH1 0x1F PUSH1 0x24 DUP3 ADD MSTORE PUSH32 0x437572766548616E646C65723A20756E737570706F7274656420636F696E7300 PUSH1 0x44 DUP3 ADD MSTORE PUSH1 0x64 ADD PUSH2 0x5C3 JUMP JUMPDEST PUSH1 0x0 JUMPDEST DUP2 DUP2 LT ISZERO PUSH2 0x1ED6 JUMPI DUP4 PUSH1 0xF SIGNEXTEND DUP2 SUB ISZERO PUSH2 0x1EC4 JUMPI PUSH1 0x40 MLOAD PUSH4 0xFA1EF51 PUSH1 0xE3 SHL DUP2 MSTORE PUSH1 0x1 PUSH1 0x1 PUSH1 0xA0 SHL SUB DUP8 DUP2 AND PUSH1 0x4 DUP4 ADD MSTORE PUSH1 0x0 SWAP2 SWAP1 DUP6 AND SWAP1 PUSH4 0x7D0F7A88 SWAP1 PUSH1 0x24 ADD PUSH1 0x0 PUSH1 0x40 MLOAD DUP1 DUP4 SUB DUP2 DUP7 GAS STATICCALL ISZERO DUP1 ISZERO PUSH2 0x1D70 JUMPI RETURNDATASIZE PUSH1 0x0 DUP1 RETURNDATACOPY RETURNDATASIZE PUSH1 0x0 REVERT JUMPDEST POP POP POP POP PUSH1 0x40 MLOAD RETURNDATASIZE PUSH1 0x0 DUP3 RETURNDATACOPY PUSH1 0x1F RETURNDATASIZE SWAP1 DUP2 ADD PUSH1 0x1F NOT AND DUP3 ADD PUSH1 0x40 MSTORE PUSH2 0x1D98 SWAP2 SWAP1 DUP2 ADD SWAP1 PUSH2 0x279A JUMP JUMPDEST SWAP1 POP PUSH1 0x0 DUP2 DUP4 DUP2 MLOAD DUP2 LT PUSH2 0x1DAE JUMPI PUSH2 0x1DAE PUSH2 0x2518 JUMP JUMPDEST PUSH1 0x20 SWAP1 DUP2 MUL SWAP2 SWAP1 SWAP2 ADD ADD MLOAD PUSH1 0x40 MLOAD PUSH4 0x70A08231 PUSH1 0xE0 SHL DUP2 MSTORE ADDRESS PUSH1 0x4 DUP3 ADD MSTORE SWAP1 SWAP2 POP PUSH1 0x0 SWAP1 PUSH1 0x1 PUSH1 0x1 PUSH1 0xA0 SHL SUB DUP4 AND SWAP1 PUSH4 0x70A08231 SWAP1 PUSH1 0x24 ADD PUSH1 0x20 PUSH1 0x40 MLOAD DUP1 DUP4 SUB DUP2 DUP7 GAS STATICCALL ISZERO DUP1 ISZERO PUSH2 0x1E03 JUMPI RETURNDATASIZE PUSH1 0x0 DUP1 RETURNDATACOPY RETURNDATASIZE PUSH1 0x0 REVERT JUMPDEST POP POP POP POP PUSH1 0x40 MLOAD RETURNDATASIZE PUSH1 0x1F NOT PUSH1 0x1F DUP3 ADD AND DUP3 ADD DUP1 PUSH1 0x40 MSTORE POP DUP2 ADD SWAP1 PUSH2 0x1E27 SWAP2 SWAP1 PUSH2 0x2406 JUMP JUMPDEST SWAP1 POP DUP1 PUSH1 0x0 SUB PUSH2 0x1E39 JUMPI POP POP POP PUSH2 0x1EC4 JUMP JUMPDEST PUSH2 0x1E4D PUSH1 0x1 PUSH1 0x1 PUSH1 0xA0 SHL SUB DUP4 AND DUP11 DUP4 PUSH2 0x2018 JUMP JUMPDEST PUSH1 0x40 MLOAD PUSH4 0xF7C0849 PUSH1 0xE2 SHL DUP2 MSTORE PUSH1 0xF DUP6 DUP2 SIGNEXTEND PUSH1 0x4 DUP4 ADD MSTORE DUP9 SWAP1 SIGNEXTEND PUSH1 0x24 DUP3 ADD MSTORE PUSH1 0x44 DUP2 ADD DUP3 SWAP1 MSTORE PUSH1 0x0 PUSH1 0x64 DUP3 ADD MSTORE PUSH1 0x1 PUSH1 0x1 PUSH1 0xA0 SHL SUB DUP11 AND SWAP1 PUSH4 0x3DF02124 SWAP1 PUSH1 0x84 ADD PUSH1 0x0 PUSH1 0x40 MLOAD DUP1 DUP4 SUB DUP2 PUSH1 0x0 DUP8 DUP1 EXTCODESIZE ISZERO DUP1 ISZERO PUSH2 0x1EA8 JUMPI PUSH1 0x0 DUP1 REVERT JUMPDEST POP GAS CALL ISZERO DUP1 ISZERO PUSH2 0x1EBC JUMPI RETURNDATASIZE PUSH1 0x0 DUP1 RETURNDATACOPY RETURNDATASIZE PUSH1 0x0 REVERT JUMPDEST POP POP POP POP POP POP POP JUMPDEST DUP1 PUSH2 0x1ECE DUP2 PUSH2 0x285F JUMP JUMPDEST SWAP2 POP POP PUSH2 0x1D13 JUMP JUMPDEST POP POP POP POP POP POP JUMP JUMPDEST PUSH20 0xC02AAA39B223FE8D0A0E5C4F27EAD9083C756CC2 PUSH1 0x1 PUSH1 0x1 PUSH1 0xA0 SHL SUB AND PUSH4 0xD0E30DB0 DUP3 PUSH1 0x40 MLOAD DUP3 PUSH4 0xFFFFFFFF AND PUSH1 0xE0 SHL DUP2 MSTORE PUSH1 0x4 ADD PUSH1 0x0 PUSH1 0x40 MLOAD DUP1 DUP4 SUB DUP2 DUP6 DUP9 DUP1 EXTCODESIZE ISZERO DUP1 ISZERO PUSH2 0x1F2D JUMPI PUSH1 0x0 DUP1 REVERT JUMPDEST POP GAS CALL ISZERO DUP1 ISZERO PUSH2 0x1ED6 JUMPI RETURNDATASIZE PUSH1 0x0 DUP1 RETURNDATACOPY RETURNDATASIZE PUSH1 0x0 REVERT JUMPDEST PUSH1 0x0 PUSH2 0x1F96 DUP3 PUSH1 0x40 MLOAD DUP1 PUSH1 0x40 ADD PUSH1 0x40 MSTORE DUP1 PUSH1 0x20 DUP2 MSTORE PUSH1 0x20 ADD PUSH32 0x5361666545524332303A206C6F772D6C6576656C2063616C6C206661696C6564 DUP2 MSTORE POP DUP6 PUSH1 0x1 PUSH1 0x1 PUSH1 0xA0 SHL SUB AND PUSH2 0x212C SWAP1 SWAP3 SWAP2 SWAP1 PUSH4 0xFFFFFFFF AND JUMP JUMPDEST DUP1 MLOAD SWAP1 SWAP2 POP ISZERO PUSH2 0x2013 JUMPI DUP1 DUP1 PUSH1 0x20 ADD SWAP1 MLOAD DUP2 ADD SWAP1 PUSH2 0x1FB4 SWAP2 SWAP1 PUSH2 0x247F JUMP JUMPDEST PUSH2 0x2013 JUMPI PUSH1 0x40 MLOAD PUSH3 0x461BCD PUSH1 0xE5 SHL DUP2 MSTORE PUSH1 0x20 PUSH1 0x4 DUP3 ADD MSTORE PUSH1 0x2A PUSH1 0x24 DUP3 ADD MSTORE PUSH32 0x5361666545524332303A204552433230206F7065726174696F6E20646964206E PUSH1 0x44 DUP3 ADD MSTORE PUSH10 0x1BDD081CDD58D8D95959 PUSH1 0xB2 SHL PUSH1 0x64 DUP3 ADD MSTORE PUSH1 0x84 ADD PUSH2 0x5C3 JUMP JUMPDEST POP POP POP JUMP JUMPDEST DUP1 ISZERO DUP1 PUSH2 0x2091 JUMPI POP PUSH1 0x40 MLOAD PUSH4 0x6EB1769F PUSH1 0xE1 SHL DUP2 MSTORE PUSH1 0x1 PUSH1 0x1 PUSH1 0xA0 SHL SUB DUP5 AND SWAP1 PUSH4 0xDD62ED3E SWAP1 PUSH2 0x204E SWAP1 ADDRESS SWAP1 DUP7 SWAP1 PUSH1 0x4 ADD PUSH2 0x2465 JUMP JUMPDEST PUSH1 0x20 PUSH1 0x40 MLOAD DUP1 DUP4 SUB DUP2 DUP7 GAS STATICCALL ISZERO DUP1 ISZERO PUSH2 0x206B JUMPI RETURNDATASIZE PUSH1 0x0 DUP1 RETURNDATACOPY RETURNDATASIZE PUSH1 0x0 REVERT JUMPDEST POP POP POP POP PUSH1 0x40 MLOAD RETURNDATASIZE PUSH1 0x1F NOT PUSH1 0x1F DUP3 ADD AND DUP3 ADD DUP1 PUSH1 0x40 MSTORE POP DUP2 ADD SWAP1 PUSH2 0x208F SWAP2 SWAP1 PUSH2 0x2406 JUMP JUMPDEST ISZERO JUMPDEST PUSH2 0x20FC JUMPI PUSH1 0x40 MLOAD PUSH3 0x461BCD PUSH1 0xE5 SHL DUP2 MSTORE PUSH1 0x20 PUSH1 0x4 DUP3 ADD MSTORE PUSH1 0x36 PUSH1 0x24 DUP3 ADD MSTORE PUSH32 0x5361666545524332303A20617070726F76652066726F6D206E6F6E2D7A65726F PUSH1 0x44 DUP3 ADD MSTORE PUSH22 0x20746F206E6F6E2D7A65726F20616C6C6F77616E6365 PUSH1 0x50 SHL PUSH1 0x64 DUP3 ADD MSTORE PUSH1 0x84 ADD PUSH2 0x5C3 JUMP JUMPDEST PUSH1 0x40 MLOAD PUSH1 0x1 PUSH1 0x1 PUSH1 0xA0 SHL SUB DUP4 AND PUSH1 0x24 DUP3 ADD MSTORE PUSH1 0x44 DUP2 ADD DUP3 SWAP1 MSTORE PUSH2 0x2013 SWAP1 DUP5 SWAP1 PUSH4 0x95EA7B3 PUSH1 0xE0 SHL SWAP1 PUSH1 0x64 ADD PUSH2 0x194A JUMP JUMPDEST PUSH1 0x60 PUSH2 0x213B DUP5 DUP5 PUSH1 0x0 DUP6 PUSH2 0x2145 JUMP JUMPDEST SWAP1 POP JUMPDEST SWAP4 SWAP3 POP POP POP JUMP JUMPDEST PUSH1 0x60 DUP3 SELFBALANCE LT ISZERO PUSH2 0x21A6 JUMPI PUSH1 0x40 MLOAD PUSH3 0x461BCD PUSH1 0xE5 SHL DUP2 MSTORE PUSH1 0x20 PUSH1 0x4 DUP3 ADD MSTORE PUSH1 0x26 PUSH1 0x24 DUP3 ADD MSTORE PUSH32 0x416464726573733A20696E73756666696369656E742062616C616E636520666F PUSH1 0x44 DUP3 ADD MSTORE PUSH6 0x1C8818D85B1B PUSH1 0xD2 SHL PUSH1 0x64 DUP3 ADD MSTORE PUSH1 0x84 ADD PUSH2 0x5C3 JUMP JUMPDEST PUSH1 0x0 DUP1 DUP7 PUSH1 0x1 PUSH1 0x1 PUSH1 0xA0 SHL SUB AND DUP6 DUP8 PUSH1 0x40 MLOAD PUSH2 0x21C2 SWAP2 SWAP1 PUSH2 0x289C JUMP JUMPDEST PUSH1 0x0 PUSH1 0x40 MLOAD DUP1 DUP4 SUB DUP2 DUP6 DUP8 GAS CALL SWAP3 POP POP POP RETURNDATASIZE DUP1 PUSH1 0x0 DUP2 EQ PUSH2 0x21FF JUMPI PUSH1 0x40 MLOAD SWAP2 POP PUSH1 0x1F NOT PUSH1 0x3F RETURNDATASIZE ADD AND DUP3 ADD PUSH1 0x40 MSTORE RETURNDATASIZE DUP3 MSTORE RETURNDATASIZE PUSH1 0x0 PUSH1 0x20 DUP5 ADD RETURNDATACOPY PUSH2 0x2204 JUMP JUMPDEST PUSH1 0x60 SWAP2 POP JUMPDEST POP SWAP2 POP SWAP2 POP PUSH2 0x2215 DUP8 DUP4 DUP4 DUP8 PUSH2 0x2222 JUMP JUMPDEST SWAP3 POP POP POP JUMPDEST SWAP5 SWAP4 POP POP POP POP JUMP JUMPDEST PUSH1 0x60 DUP4 ISZERO PUSH2 0x2291 JUMPI DUP3 MLOAD PUSH1 0x0 SUB PUSH2 0x228A JUMPI PUSH1 0x1 PUSH1 0x1 PUSH1 0xA0 SHL SUB DUP6 AND EXTCODESIZE PUSH2 0x228A JUMPI PUSH1 0x40 MLOAD PUSH3 0x461BCD PUSH1 0xE5 SHL DUP2 MSTORE PUSH1 0x20 PUSH1 0x4 DUP3 ADD MSTORE PUSH1 0x1D PUSH1 0x24 DUP3 ADD MSTORE PUSH32 0x416464726573733A2063616C6C20746F206E6F6E2D636F6E7472616374000000 PUSH1 0x44 DUP3 ADD MSTORE PUSH1 0x64 ADD PUSH2 0x5C3 JUMP JUMPDEST POP DUP2 PUSH2 0x221A JUMP JUMPDEST PUSH2 0x221A DUP4 DUP4 DUP2 MLOAD ISZERO PUSH2 0x22A6 JUMPI DUP2 MLOAD DUP1 DUP4 PUSH1 0x20 ADD REVERT JUMPDEST DUP1 PUSH1 0x40 MLOAD PUSH3 0x461BCD PUSH1 0xE5 SHL DUP2 MSTORE PUSH1 0x4 ADD PUSH2 0x5C3 SWAP2 SWAP1 PUSH2 0x28B8 JUMP JUMPDEST PUSH1 0x40 MLOAD DUP1 PUSH1 0x40 ADD PUSH1 0x40 MSTORE DUP1 PUSH1 0x2 SWAP1 PUSH1 0x20 DUP3 MUL DUP1 CALLDATASIZE DUP4 CALLDATACOPY POP SWAP2 SWAP3 SWAP2 POP POP JUMP JUMPDEST PUSH1 0x40 MLOAD DUP1 PUSH1 0x60 ADD PUSH1 0x40 MSTORE DUP1 PUSH1 0x3 SWAP1 PUSH1 0x20 DUP3 MUL DUP1 CALLDATASIZE DUP4 CALLDATACOPY POP SWAP2 SWAP3 SWAP2 POP POP JUMP JUMPDEST PUSH1 0x40 MLOAD DUP1 PUSH1 0x80 ADD PUSH1 0x40 MSTORE DUP1 PUSH1 0x4 SWAP1 PUSH1 0x20 DUP3 MUL DUP1 CALLDATASIZE DUP4 CALLDATACOPY POP SWAP2 SWAP3 SWAP2 POP POP JUMP JUMPDEST PUSH1 0x40 MLOAD DUP1 PUSH1 0xA0 ADD PUSH1 0x40 MSTORE DUP1 PUSH1 0x5 SWAP1 PUSH1 0x20 DUP3 MUL DUP1 CALLDATASIZE DUP4 CALLDATACOPY POP SWAP2 SWAP3 SWAP2 POP POP JUMP JUMPDEST PUSH1 0x40 MLOAD DUP1 PUSH1 0xC0 ADD PUSH1 0x40 MSTORE DUP1 PUSH1 0x6 SWAP1 PUSH1 0x20 DUP3 MUL DUP1 CALLDATASIZE DUP4 CALLDATACOPY POP SWAP2 SWAP3 SWAP2 POP POP JUMP JUMPDEST PUSH1 0x40 MLOAD DUP1 PUSH1 0xE0 ADD PUSH1 0x40 MSTORE DUP1 PUSH1 0x7 SWAP1 PUSH1 0x20 DUP3 MUL DUP1 CALLDATASIZE DUP4 CALLDATACOPY POP SWAP2 SWAP3 SWAP2 POP POP JUMP JUMPDEST PUSH1 0x40 MLOAD DUP1 PUSH2 0x100 ADD PUSH1 0x40 MSTORE DUP1 PUSH1 0x8 SWAP1 PUSH1 0x20 DUP3 MUL DUP1 CALLDATASIZE DUP4 CALLDATACOPY POP SWAP2 SWAP3 SWAP2 POP POP JUMP JUMPDEST PUSH1 0x1 PUSH1 0x1 PUSH1 0xA0 SHL SUB DUP2 AND DUP2 EQ PUSH2 0x7AC JUMPI PUSH1 0x0 DUP1 REVERT JUMPDEST PUSH1 0x0 PUSH1 0x20 DUP3 DUP5 SUB SLT ISZERO PUSH2 0x23BA JUMPI PUSH1 0x0 DUP1 REVERT JUMPDEST DUP2 CALLDATALOAD PUSH2 0x213E DUP2 PUSH2 0x2393 JUMP JUMPDEST PUSH1 0x0 DUP1 PUSH1 0x0 PUSH1 0x60 DUP5 DUP7 SUB SLT ISZERO PUSH2 0x23DA JUMPI PUSH1 0x0 DUP1 REVERT JUMPDEST DUP4 CALLDATALOAD PUSH2 0x23E5 DUP2 PUSH2 0x2393 JUMP JUMPDEST SWAP3 POP PUSH1 0x20 DUP5 ADD CALLDATALOAD PUSH2 0x23F5 DUP2 PUSH2 0x2393 JUMP JUMPDEST SWAP3 SWAP6 SWAP3 SWAP5 POP POP POP PUSH1 0x40 SWAP2 SWAP1 SWAP2 ADD CALLDATALOAD SWAP1 JUMP JUMPDEST PUSH1 0x0 PUSH1 0x20 DUP3 DUP5 SUB SLT ISZERO PUSH2 0x2418 JUMPI PUSH1 0x0 DUP1 REVERT JUMPDEST POP MLOAD SWAP2 SWAP1 POP JUMP JUMPDEST PUSH1 0x0 PUSH1 0x20 DUP3 DUP5 SUB SLT ISZERO PUSH2 0x2431 JUMPI PUSH1 0x0 DUP1 REVERT JUMPDEST DUP2 MLOAD PUSH2 0x213E DUP2 PUSH2 0x2393 JUMP JUMPDEST PUSH4 0x4E487B71 PUSH1 0xE0 SHL PUSH1 0x0 MSTORE PUSH1 0x11 PUSH1 0x4 MSTORE PUSH1 0x24 PUSH1 0x0 REVERT JUMPDEST DUP2 DUP2 SUB DUP2 DUP2 GT ISZERO PUSH2 0xD22 JUMPI PUSH2 0xD22 PUSH2 0x243C JUMP JUMPDEST PUSH1 0x1 PUSH1 0x1 PUSH1 0xA0 SHL SUB SWAP3 DUP4 AND DUP2 MSTORE SWAP2 AND PUSH1 0x20 DUP3 ADD MSTORE PUSH1 0x40 ADD SWAP1 JUMP JUMPDEST PUSH1 0x0 PUSH1 0x20 DUP3 DUP5 SUB SLT ISZERO PUSH2 0x2491 JUMPI PUSH1 0x0 DUP1 REVERT JUMPDEST DUP2 MLOAD DUP1 ISZERO ISZERO DUP2 EQ PUSH2 0x213E JUMPI PUSH1 0x0 DUP1 REVERT JUMPDEST DUP1 MLOAD PUSH2 0x24AC DUP2 PUSH2 0x2393 JUMP JUMPDEST SWAP2 SWAP1 POP JUMP JUMPDEST PUSH1 0x20 DUP1 DUP3 MSTORE PUSH1 0x24 SWAP1 DUP3 ADD MSTORE PUSH32 0x437572766548616E646C65723A20696E7465726D656469617465206E6F742066 PUSH1 0x40 DUP3 ADD MSTORE PUSH4 0x1BDD5B99 PUSH1 0xE2 SHL PUSH1 0x60 DUP3 ADD MSTORE PUSH1 0x80 ADD SWAP1 JUMP JUMPDEST PUSH1 0x0 PUSH1 0x20 DUP3 DUP5 SUB SLT ISZERO PUSH2 0x2507 JUMPI PUSH1 0x0 DUP1 REVERT JUMPDEST DUP2 MLOAD DUP1 PUSH1 0xF SIGNEXTEND DUP2 EQ PUSH2 0x213E JUMPI PUSH1 0x0 DUP1 REVERT JUMPDEST PUSH4 0x4E487B71 PUSH1 0xE0 SHL PUSH1 0x0 MSTORE PUSH1 0x32 PUSH1 0x4 MSTORE PUSH1 0x24 PUSH1 0x0 REVERT JUMPDEST DUP1 PUSH1 0x0 JUMPDEST PUSH1 0x2 DUP2 LT ISZERO PUSH2 0x1981 JUMPI DUP2 MLOAD DUP5 MSTORE PUSH1 0x20 SWAP4 DUP5 ADD SWAP4 SWAP1 SWAP2 ADD SWAP1 PUSH1 0x1 ADD PUSH2 0x2532 JUMP JUMPDEST PUSH1 0x60 DUP2 ADD PUSH2 0x255F DUP3 DUP6 PUSH2 0x252E JUMP JUMPDEST DUP3 PUSH1 0x40 DUP4 ADD MSTORE SWAP4 SWAP3 POP POP POP JUMP JUMPDEST DUP1 PUSH1 0x0 JUMPDEST PUSH1 0x3 DUP2 LT ISZERO PUSH2 0x1981 JUMPI DUP2 MLOAD DUP5 MSTORE PUSH1 0x20 SWAP4 DUP5 ADD SWAP4 SWAP1 SWAP2 ADD SWAP1 PUSH1 0x1 ADD PUSH2 0x2570 JUMP JUMPDEST PUSH1 0x80 DUP2 ADD PUSH2 0x259D DUP3 DUP6 PUSH2 0x256C JUMP JUMPDEST DUP3 PUSH1 0x60 DUP4 ADD MSTORE SWAP4 SWAP3 POP POP POP JUMP JUMPDEST DUP1 PUSH1 0x0 JUMPDEST PUSH1 0x4 DUP2 LT ISZERO PUSH2 0x1981 JUMPI DUP2 MLOAD DUP5 MSTORE PUSH1 0x20 SWAP4 DUP5 ADD SWAP4 SWAP1 SWAP2 ADD SWAP1 PUSH1 0x1 ADD PUSH2 0x25AE JUMP JUMPDEST PUSH1 0xA0 DUP2 ADD PUSH2 0x25DB DUP3 DUP6 PUSH2 0x25AA JUMP JUMPDEST DUP3 PUSH1 0x80 DUP4 ADD MSTORE SWAP4 SWAP3 POP POP POP JUMP JUMPDEST DUP1 PUSH1 0x0 JUMPDEST PUSH1 0x5 DUP2 LT ISZERO PUSH2 0x1981 JUMPI DUP2 MLOAD DUP5 MSTORE PUSH1 0x20 SWAP4 DUP5 ADD SWAP4 SWAP1 SWAP2 ADD SWAP1 PUSH1 0x1 ADD PUSH2 0x25EC JUMP JUMPDEST PUSH1 0xC0 DUP2 ADD PUSH2 0x2619 DUP3 DUP6 PUSH2 0x25E8 JUMP JUMPDEST DUP3 PUSH1 0xA0 DUP4 ADD MSTORE SWAP4 SWAP3 POP POP POP JUMP JUMPDEST DUP1 PUSH1 0x0 JUMPDEST PUSH1 0x6 DUP2 LT ISZERO PUSH2 0x1981 JUMPI DUP2 MLOAD DUP5 MSTORE PUSH1 0x20 SWAP4 DUP5 ADD SWAP4 SWAP1 SWAP2 ADD SWAP1 PUSH1 0x1 ADD PUSH2 0x262A JUMP JUMPDEST PUSH1 0xE0 DUP2 ADD PUSH2 0x2657 DUP3 DUP6 PUSH2 0x2626 JUMP JUMPDEST DUP3 PUSH1 0xC0 DUP4 ADD MSTORE SWAP4 SWAP3 POP POP POP JUMP JUMPDEST DUP1 PUSH1 0x0 JUMPDEST PUSH1 0x7 DUP2 LT ISZERO PUSH2 0x1981 JUMPI DUP2 MLOAD DUP5 MSTORE PUSH1 0x20 SWAP4 DUP5 ADD SWAP4 SWAP1 SWAP2 ADD SWAP1 PUSH1 0x1 ADD PUSH2 0x2668 JUMP JUMPDEST PUSH2 0x100 DUP2 ADD PUSH2 0x2696 DUP3 DUP6 PUSH2 0x2664 JUMP JUMPDEST DUP3 PUSH1 0xE0 DUP4 ADD MSTORE SWAP4 SWAP3 POP POP POP JUMP JUMPDEST DUP1 PUSH1 0x0 JUMPDEST PUSH1 0x8 DUP2 LT ISZERO PUSH2 0x1981 JUMPI DUP2 MLOAD DUP5 MSTORE PUSH1 0x20 SWAP4 DUP5 ADD SWAP4 SWAP1 SWAP2 ADD SWAP1 PUSH1 0x1 ADD PUSH2 0x26A7 JUMP JUMPDEST PUSH2 0x120 DUP2 ADD PUSH2 0x26D5 DUP3 DUP6 PUSH2 0x26A3 JUMP JUMPDEST DUP3 PUSH2 0x100 DUP4 ADD MSTORE SWAP4 SWAP3 POP POP POP JUMP JUMPDEST DUP1 DUP3 ADD DUP1 DUP3 GT ISZERO PUSH2 0xD22 JUMPI PUSH2 0xD22 PUSH2 0x243C JUMP JUMPDEST DUP3 DUP2 MSTORE PUSH1 0x60 DUP2 ADD PUSH2 0x213E PUSH1 0x20 DUP4 ADD DUP5 PUSH2 0x252E JUMP JUMPDEST DUP3 DUP2 MSTORE PUSH1 0x80 DUP2 ADD PUSH2 0x213E PUSH1 0x20 DUP4 ADD DUP5 PUSH2 0x256C JUMP JUMPDEST DUP3 DUP2 MSTORE PUSH1 0xA0 DUP2 ADD PUSH2 0x213E PUSH1 0x20 DUP4 ADD DUP5 PUSH2 0x25AA JUMP JUMPDEST DUP3 DUP2 MSTORE PUSH1 0xC0 DUP2 ADD PUSH2 0x213E PUSH1 0x20 DUP4 ADD DUP5 PUSH2 0x25E8 JUMP JUMPDEST DUP3 DUP2 MSTORE PUSH1 0xE0 DUP2 ADD PUSH2 0x213E PUSH1 0x20 DUP4 ADD DUP5 PUSH2 0x2626 JUMP JUMPDEST DUP3 DUP2 MSTORE PUSH2 0x100 DUP2 ADD PUSH2 0x213E PUSH1 0x20 DUP4 ADD DUP5 PUSH2 0x2664 JUMP JUMPDEST DUP3 DUP2 MSTORE PUSH2 0x120 DUP2 ADD PUSH2 0x213E PUSH1 0x20 DUP4 ADD DUP5 PUSH2 0x26A3 JUMP JUMPDEST PUSH4 0x4E487B71 PUSH1 0xE0 SHL PUSH1 0x0 MSTORE PUSH1 0x41 PUSH1 0x4 MSTORE PUSH1 0x24 PUSH1 0x0 REVERT JUMPDEST PUSH1 0x0 PUSH1 0x20 DUP1 DUP4 DUP6 SUB SLT ISZERO PUSH2 0x27AD JUMPI PUSH1 0x0 DUP1 REVERT JUMPDEST DUP3 MLOAD PUSH8 0xFFFFFFFFFFFFFFFF DUP1 DUP3 GT ISZERO PUSH2 0x27C5 JUMPI PUSH1 0x0 DUP1 REVERT JUMPDEST DUP2 DUP6 ADD SWAP2 POP DUP6 PUSH1 0x1F DUP4 ADD SLT PUSH2 0x27D9 JUMPI PUSH1 0x0 DUP1 REVERT JUMPDEST DUP2 MLOAD DUP2 DUP2 GT ISZERO PUSH2 0x27EB JUMPI PUSH2 0x27EB PUSH2 0x2784 JUMP JUMPDEST DUP1 PUSH1 0x5 SHL PUSH1 0x40 MLOAD PUSH1 0x1F NOT PUSH1 0x3F DUP4 ADD AND DUP2 ADD DUP2 DUP2 LT DUP6 DUP3 GT OR ISZERO PUSH2 0x2810 JUMPI PUSH2 0x2810 PUSH2 0x2784 JUMP JUMPDEST PUSH1 0x40 MSTORE SWAP2 DUP3 MSTORE DUP5 DUP3 ADD SWAP3 POP DUP4 DUP2 ADD DUP6 ADD SWAP2 DUP9 DUP4 GT ISZERO PUSH2 0x282E JUMPI PUSH1 0x0 DUP1 REVERT JUMPDEST SWAP4 DUP6 ADD SWAP4 JUMPDEST DUP3 DUP6 LT ISZERO PUSH2 0x2853 JUMPI PUSH2 0x2844 DUP6 PUSH2 0x24A1 JUMP JUMPDEST DUP5 MSTORE SWAP4 DUP6 ADD SWAP4 SWAP3 DUP6 ADD SWAP3 PUSH2 0x2833 JUMP JUMPDEST SWAP9 SWAP8 POP POP POP POP POP POP POP POP JUMP JUMPDEST PUSH1 0x0 PUSH1 0x1 DUP3 ADD PUSH2 0x2871 JUMPI PUSH2 0x2871 PUSH2 0x243C JUMP JUMPDEST POP PUSH1 0x1 ADD SWAP1 JUMP JUMPDEST PUSH1 0x0 JUMPDEST DUP4 DUP2 LT ISZERO PUSH2 0x2893 JUMPI DUP2 DUP2 ADD MLOAD DUP4 DUP3 ADD MSTORE PUSH1 0x20 ADD PUSH2 0x287B JUMP JUMPDEST POP POP PUSH1 0x0 SWAP2 ADD MSTORE JUMP JUMPDEST PUSH1 0x0 DUP3 MLOAD PUSH2 0x28AE DUP2 DUP5 PUSH1 0x20 DUP8 ADD PUSH2 0x2878 JUMP JUMPDEST SWAP2 SWAP1 SWAP2 ADD SWAP3 SWAP2 POP POP JUMP JUMPDEST PUSH1 0x20 DUP2 MSTORE PUSH1 0x0 DUP3 MLOAD DUP1 PUSH1 0x20 DUP5 ADD MSTORE PUSH2 0x28D7 DUP2 PUSH1 0x40 DUP6 ADD PUSH1 0x20 DUP8 ADD PUSH2 0x2878 JUMP JUMPDEST PUSH1 0x1F ADD PUSH1 0x1F NOT AND SWAP2 SWAP1 SWAP2 ADD PUSH1 0x40 ADD SWAP3 SWAP2 POP POP JUMP INVALID LOG2 PUSH5 0x6970667358 0x22 SLT KECCAK256 DIFFICULTY CREATE2 0xAD DIV 0xE7 0x2F 0x24 SWAP8 SMOD 0xC5 0xBF CODESIZE PUSH12 0x556AF65411BA1330D7FD1787 0xC9 POP CREATE DUP10 0xE0 DUP9 CREATE2 PUSH5 0x736F6C6343 STOP ADDMOD GT STOP CALLER ","sha1":"2d29bdc535fcea7835dd5bfef10c847d18eb9ac1","source":"// SPDX-License-Identifier: GPL-3.0-or-later\npragma solidity 0.8.17;\n\nimport \"@openzeppelin/contracts/token/ERC20/utils/SafeERC20.sol\";\nimport \"@openzeppelin/contracts/token/ERC20/IERC20.sol\";\n\nimport \"../interfaces/pools/ILpToken.sol\";\nimport \"../interfaces/ICurveHandlerV3.sol\";\nimport \"../interfaces/ICurveRegistryCache.sol\";\nimport \"../interfaces/vendor/IWETH.sol\";\nimport \"../interfaces/vendor/ICurvePoolV1.sol\";\nimport \"../interfaces/vendor/ICurvePoolV0.sol\";\nimport \"../interfaces/vendor/ICurvePoolV2.sol\";\nimport \"../interfaces/vendor/ICurvePoolV1Eth.sol\";\nimport \"../interfaces/vendor/ICurvePoolV2Eth.sol\";\nimport \"../interfaces/IController.sol\";\n\n/// @notice This contract acts as a wrapper for depositing and removing liquidity to and from Curve pools.\n/// Please be aware of the following:\n/// - This contract accepts WETH and unwraps it for Curve pool deposits\n/// - This contract should only be used through delegate calls for deposits and withdrawals\n/// - Slippage from deposits and withdrawals is handled in the ConicPool (do not use handler elsewhere)\ncontract CurveHandlerV3 is ICurveHandlerV3 {\n    using SafeERC20 for IERC20;\n\n    address internal constant _ETH_ADDRESS = 0xEeeeeEeeeEeEeeEeEeEeeEEEeeeeEeeeeeeeEEeE;\n    IWETH internal constant _WETH = IWETH(0xC02aaA39b223FE8D0A0e5C4F27eAD9083C756Cc2);\n\n    // Normal calls to `exchange` functions will read various state variables, resulting in\n    // gas fees that are always in the double-digit thousand gas.\n    // On the other hand, a reentrant call will only read a single warm variable (100 gas)\n    // and call a contract already touched, so it will use vastly less than 5k gas.\n    // In practice, reentrant calls appear to use ~1.5k gas while non-reentrant\n    // calls use ~60k gas.\n    // We are better off setting this value a little too high compared to the ~1.5k estimate\n    // to make sure that we always prevent reentrant calls.\n    uint256 internal constant LOCK_GAS_THRESHOLD = 5_000;\n\n    // Recent factory pools are deployed using a minimal proxy pattern pointing to\n    // 1. `0x847ee1227a9900b73aeeb3a47fac92c52fd54ed9`\n    // 2. `0x94b4dfd9ba5865cc931195c99a2db42f3fc5d45b`\n    // The exact bytecodes are:\n    // 1. `0x363d3d373d3d3d363d73847ee1227a9900b73aeeb3a47fac92c52fd54ed95af43d82803e903d91602b57fd5bf3`\n    // 2. `0x363d3d373d3d3d363d7394b4dfd9ba5865cc931195c99a2db42f3fc5d45b5af43d82803e903d91602b57fd5bf3`\n    // that yield the following hashes, against which we can compare the result of `EXTCODEHASH` to\n    // check whether it is from this factory or not.\n    // This check is very local, so we do not include it in the `CurveRegistryCache`.\n    // Note that other pools may have `price_oracle` that do not check for reentrancy, so we cannot\n    // rely on this check for any pool with the `price_oracle` function.\n    // We only include the hash codes of pools created through factories, because\n    // the bytecode is otherwise slightly different for each pool\n    // Since this is only a optimization for gas purposes, we choose to make this constant,\n    // even if that means that we might miss this optimization for new factories deployed later.\n    bytes32 internal constant ETH_FACTORY_POOL_CODE_HASH_1 =\n        0x9e28a09452d2354fc4e15e3244dde27cbc4d52f12a10b91f2ca755b672bfa9be;\n    bytes32 internal constant ETH_FACTORY_POOL_CODE_HASH_2 =\n        0x3429b8decaf6b79a2721e434f60c3c47b9961fdba16eb6ac6c50d3690ac25276;\n\n    IController internal immutable controller;\n\n    constructor(address controller_) {\n        controller = IController(controller_);\n    }\n\n    /// @notice Deposits single sided liquidity into a Curve pool\n    /// @dev This supports both v1 and v2 (crypto) pools.\n    /// @param _curvePool Curve pool to deposit into\n    /// @param _token Asset to deposit\n    /// @param _amount Amount of asset to deposit\n    function deposit(address _curvePool, address _token, uint256 _amount) public override {\n        ICurveRegistryCache registry_ = controller.curveRegistryCache();\n        bool isETH = _isETH(_curvePool, _token);\n        if (!registry_.hasCoinDirectly(_curvePool, isETH ? _ETH_ADDRESS : _token)) {\n            address intermediate = registry_.basePool(_curvePool);\n            require(intermediate != address(0), \"CurveHandler: intermediate not found\");\n            address lpToken = registry_.lpToken(intermediate);\n            uint256 balanceBefore = ILpToken(lpToken).balanceOf(address(this));\n            _addLiquidity(intermediate, _amount, _token);\n            _token = lpToken;\n            _amount = ILpToken(_token).balanceOf(address(this)) - balanceBefore;\n        }\n        _addLiquidity(_curvePool, _amount, _token);\n    }\n\n    /// @notice Withdraws single sided liquidity from a Curve pool\n    /// @param _curvePool Curve pool to withdraw from\n    /// @param _token Underlying asset to withdraw\n    /// @param _amount Amount of Curve LP tokens to withdraw\n    function withdraw(address _curvePool, address _token, uint256 _amount) external override {\n        ICurveRegistryCache registry_ = controller.curveRegistryCache();\n        bool isETH = _isETH(_curvePool, _token);\n        if (!registry_.hasCoinDirectly(_curvePool, isETH ? _ETH_ADDRESS : _token)) {\n            address intermediate = registry_.basePool(_curvePool);\n            require(intermediate != address(0), \"CurveHandler: intermediate not found\");\n            address lpToken = registry_.lpToken(intermediate);\n            uint256 balanceBefore = ILpToken(lpToken).balanceOf(address(this));\n            _removeLiquidity(_curvePool, _amount, lpToken);\n            _curvePool = intermediate;\n            _amount = ILpToken(lpToken).balanceOf(address(this)) - balanceBefore;\n        }\n\n        _removeLiquidity(_curvePool, _amount, _token);\n    }\n\n    function isReentrantCall(address _curvePool) public override returns (bool) {\n        // In this version, curve pools have a price oracle that has a reentrancy lock\n        // so this call will only succeed if we are not in a reentrant call\n        // This is cheaper than trying to do an exchange\n        bytes32 codeHash = _curvePool.codehash;\n        if (codeHash == ETH_FACTORY_POOL_CODE_HASH_1 || codeHash == ETH_FACTORY_POOL_CODE_HASH_2) {\n            try ICurvePoolV2Eth(_curvePool).price_oracle() {\n                return false;\n            } catch {\n                return true;\n            }\n        }\n\n        uint256 interfaceVersion_ = controller.curveRegistryCache().interfaceVersion(_curvePool);\n        bool ethIndexFirst_ = _isEthIndexFirst(_curvePool);\n\n        // If we don't have any other way to check for reentrancy, we try to do a swap\n        // with 0 amount, which can behave in 3 ways depending on the state and the pool:\n        // 1. If it succeeds, there was definitely no lock in place, so the call is not reentrant\n        // 2. If it fails, it can fail in 2 ways:\n        //   a. It fails because some pools do not allow to swap 0 amount. This also means that the call is non-reentrant\n        //   b. It fails because there is a reentrancy lock in place, which means that the call is reentrant\n        // Checking for case 1 is trivial. For case 2a vs 2b, we check the amount of gas consumed by the call.\n        // Some more details about the values are given in the comments of `LOCK_GAS_THRESHOLD`\n        uint256 gasUsed;\n        uint256 currentGasLeft = gasleft();\n        if (interfaceVersion_ == 2) {\n            try\n                ICurvePoolV2Eth(_curvePool).exchange(\n                    ethIndexFirst_ ? uint256(0) : uint256(1),\n                    ethIndexFirst_ ? uint256(1) : uint256(0),\n                    uint256(0),\n                    uint256(0)\n                )\n            {\n                return false;\n            } catch {\n                gasUsed = currentGasLeft - gasleft();\n            }\n        } else {\n            try\n                ICurvePoolV1Eth(_curvePool).exchange(\n                    ethIndexFirst_ ? int128(0) : int128(1),\n                    ethIndexFirst_ ? int128(1) : int128(0),\n                    uint256(0),\n                    uint256(0)\n                )\n            {\n                return false;\n            } catch {\n                gasUsed = currentGasLeft - gasleft();\n            }\n        }\n\n        return gasUsed < LOCK_GAS_THRESHOLD;\n    }\n\n    /// @notice Validates if a given Curve pool is currently in reentrancy\n    /// @dev Reverts if it is in reentrancy\n    /// @param _curvePool Curve pool to validate\n    function reentrancyCheck(address _curvePool) external override {\n        if (!_isETH(_curvePool)) return;\n        require(!isReentrantCall(_curvePool), \"CurveHandler: reentrant call\");\n    }\n\n    function _removeLiquidity(\n        address _curvePool,\n        uint256 _amount, // Curve LP token amount\n        address _token // underlying asset to withdraw\n    ) internal {\n        bool isETH = _isETH(_curvePool, _token);\n        int128 index = controller.curveRegistryCache().coinIndex(\n            _curvePool,\n            isETH ? _ETH_ADDRESS : _token\n        );\n\n        uint256 balanceBeforeWithdraw = address(this).balance;\n\n        uint256 interfaceVersion_ = controller.curveRegistryCache().interfaceVersion(_curvePool);\n        if (interfaceVersion_ == 0) {\n            _version_0_remove_liquidity_one_coin(_curvePool, _amount, index);\n        } else if (interfaceVersion_ == 1) {\n            ICurvePoolV1(_curvePool).remove_liquidity_one_coin(_amount, index, 0);\n        } else if (interfaceVersion_ == 2) {\n            ICurvePoolV2(_curvePool).remove_liquidity_one_coin(\n                _amount,\n                uint256(uint128(index)),\n                0,\n                isETH,\n                address(this)\n            );\n        } else {\n            revert(\"CurveHandler: unsupported interface version\");\n        }\n\n        if (isETH) {\n            uint256 balanceIncrease = address(this).balance - balanceBeforeWithdraw;\n            _wrapWETH(balanceIncrease);\n        }\n    }\n\n    /// Version 0 pools don't have a `remove_liquidity_one_coin` function.\n    /// So we work around this by calling `removing_liquidity`\n    /// and then swapping all the coins to the target\n    function _version_0_remove_liquidity_one_coin(\n        address _curvePool,\n        uint256 _amount,\n        int128 _index\n    ) internal {\n        ICurveRegistryCache registry_ = controller.curveRegistryCache();\n        uint256 coins = registry_.nCoins(_curvePool);\n        if (coins == 2) {\n            uint256[2] memory min_amounts;\n            ICurvePoolV0(_curvePool).remove_liquidity(_amount, min_amounts);\n        } else if (coins == 3) {\n            uint256[3] memory min_amounts;\n            ICurvePoolV0(_curvePool).remove_liquidity(_amount, min_amounts);\n        } else if (coins == 4) {\n            uint256[4] memory min_amounts;\n            ICurvePoolV0(_curvePool).remove_liquidity(_amount, min_amounts);\n        } else if (coins == 5) {\n            uint256[5] memory min_amounts;\n            ICurvePoolV0(_curvePool).remove_liquidity(_amount, min_amounts);\n        } else if (coins == 6) {\n            uint256[6] memory min_amounts;\n            ICurvePoolV0(_curvePool).remove_liquidity(_amount, min_amounts);\n        } else if (coins == 7) {\n            uint256[7] memory min_amounts;\n            ICurvePoolV0(_curvePool).remove_liquidity(_amount, min_amounts);\n        } else if (coins == 8) {\n            uint256[8] memory min_amounts;\n            ICurvePoolV0(_curvePool).remove_liquidity(_amount, min_amounts);\n        } else {\n            revert(\"CurveHandler: unsupported coins\");\n        }\n\n        for (uint256 i = 0; i < coins; i++) {\n            if (i == uint256(int256(_index))) continue;\n            address[] memory coins_ = registry_.coins(_curvePool);\n            address coin_ = coins_[i];\n            uint256 balance_ = IERC20(coin_).balanceOf(address(this));\n            if (balance_ == 0) continue;\n            IERC20(coin_).safeApprove(_curvePool, balance_);\n            ICurvePoolV0(_curvePool).exchange(int128(int256(i)), _index, balance_, 0);\n        }\n    }\n\n    function _wrapWETH(uint256 amount) internal {\n        _WETH.deposit{value: amount}();\n    }\n\n    function _unwrapWETH(uint256 amount) internal {\n        _WETH.withdraw(amount);\n    }\n\n    function _addLiquidity(\n        address _curvePool,\n        uint256 _amount, // amount of asset to deposit\n        address _token // asset to deposit\n    ) internal {\n        bool isETH = _isETH(_curvePool, _token);\n        if (!isETH) {\n            IERC20(_token).safeIncreaseAllowance(_curvePool, _amount);\n        }\n\n        ICurveRegistryCache registry_ = controller.curveRegistryCache();\n        uint256 index = uint128(registry_.coinIndex(_curvePool, isETH ? _ETH_ADDRESS : _token));\n        uint256 coins = registry_.nCoins(_curvePool);\n        if (coins == 2) {\n            uint256[2] memory amounts;\n            amounts[index] = _amount;\n            if (isETH) {\n                _unwrapWETH(_amount);\n                ICurvePoolV1Eth(_curvePool).add_liquidity{value: _amount}(amounts, 0);\n            } else {\n                ICurvePoolV1(_curvePool).add_liquidity(amounts, 0);\n            }\n        } else if (coins == 3) {\n            uint256[3] memory amounts;\n            amounts[index] = _amount;\n            if (isETH) {\n                _unwrapWETH(_amount);\n                ICurvePoolV1Eth(_curvePool).add_liquidity{value: _amount}(amounts, 0);\n            } else {\n                ICurvePoolV1(_curvePool).add_liquidity(amounts, 0);\n            }\n        } else if (coins == 4) {\n            uint256[4] memory amounts;\n            amounts[index] = _amount;\n            if (isETH) {\n                _unwrapWETH(_amount);\n                ICurvePoolV1Eth(_curvePool).add_liquidity{value: _amount}(amounts, 0);\n            } else {\n                ICurvePoolV1(_curvePool).add_liquidity(amounts, 0);\n            }\n        } else if (coins == 5) {\n            uint256[5] memory amounts;\n            amounts[index] = _amount;\n            if (isETH) {\n                _unwrapWETH(_amount);\n                ICurvePoolV1Eth(_curvePool).add_liquidity{value: _amount}(amounts, 0);\n            } else {\n                ICurvePoolV1(_curvePool).add_liquidity(amounts, 0);\n            }\n        } else if (coins == 6) {\n            uint256[6] memory amounts;\n            amounts[index] = _amount;\n            if (isETH) {\n                _unwrapWETH(_amount);\n                ICurvePoolV1Eth(_curvePool).add_liquidity{value: _amount}(amounts, 0);\n            } else {\n                ICurvePoolV1(_curvePool).add_liquidity(amounts, 0);\n            }\n        } else if (coins == 7) {\n            uint256[7] memory amounts;\n            amounts[index] = _amount;\n            if (isETH) {\n                _unwrapWETH(_amount);\n                ICurvePoolV1Eth(_curvePool).add_liquidity{value: _amount}(amounts, 0);\n            } else {\n                ICurvePoolV1(_curvePool).add_liquidity(amounts, 0);\n            }\n        } else if (coins == 8) {\n            uint256[8] memory amounts;\n            amounts[index] = _amount;\n            if (isETH) {\n                _unwrapWETH(_amount);\n                ICurvePoolV1Eth(_curvePool).add_liquidity{value: _amount}(amounts, 0);\n            } else {\n                ICurvePoolV1(_curvePool).add_liquidity(amounts, 0);\n            }\n        } else {\n            revert(\"invalid number of coins for curve pool\");\n        }\n    }\n\n    function _isETH(address pool, address token) internal view returns (bool) {\n        return\n            token == address(_WETH) &&\n            controller.curveRegistryCache().hasCoinDirectly(pool, _ETH_ADDRESS);\n    }\n\n    function _isETH(address pool) internal view returns (bool) {\n        return controller.curveRegistryCache().hasCoinDirectly(pool, _ETH_ADDRESS);\n    }\n\n    function _isEthIndexFirst(address pool) internal view returns (bool) {\n        return controller.curveRegistryCache().coinIndex(pool, address(_WETH)) == int128(0);\n    }\n}\n","sourcePath":"contracts/CurveHandlerV3.sol","type":"contract","deployment":{"address":"0xD775ae26F89bcd89e66485324D8830c0EF1e8B6c","chainid":"1","blockHeight":17591566}}