{"abi":[{"anonymous":false,"inputs":[{"indexed":false,"internalType":"uint256","name":"heartbeat","type":"uint256"}],"name":"HeartbeatUpdated","type":"event"},{"anonymous":false,"inputs":[{"indexed":true,"internalType":"address","name":"previousOwner","type":"address"},{"indexed":true,"internalType":"address","name":"newOwner","type":"address"}],"name":"OwnershipTransferred","type":"event"},{"anonymous":false,"inputs":[{"indexed":true,"internalType":"address","name":"token","type":"address"},{"indexed":false,"internalType":"address","name":"feed","type":"address"},{"indexed":false,"internalType":"uint256","name":"maxDelay","type":"uint256"},{"indexed":false,"internalType":"bool","name":"isEthPrice","type":"bool"}],"name":"TokenUpdated","type":"event"},{"inputs":[{"internalType":"address","name":"token","type":"address"}],"name":"getUSDPrice","outputs":[{"internalType":"uint256","name":"","type":"uint256"}],"stateMutability":"view","type":"function"},{"inputs":[],"name":"heartbeat","outputs":[{"internalType":"uint256","name":"","type":"uint256"}],"stateMutability":"view","type":"function"},{"inputs":[{"internalType":"address","name":"token","type":"address"}],"name":"isTokenSupported","outputs":[{"internalType":"bool","name":"","type":"bool"}],"stateMutability":"view","type":"function"},{"inputs":[],"name":"owner","outputs":[{"internalType":"address","name":"","type":"address"}],"stateMutability":"view","type":"function"},{"inputs":[],"name":"renounceOwnership","outputs":[],"stateMutability":"nonpayable","type":"function"},{"inputs":[{"internalType":"uint256","name":"heartbeat_","type":"uint256"}],"name":"setHeartbeat","outputs":[],"stateMutability":"nonpayable","type":"function"},{"inputs":[{"internalType":"address","name":"newOwner","type":"address"}],"name":"transferOwnership","outputs":[],"stateMutability":"nonpayable","type":"function"}],"bytecode":"60806040526201518060015534801561001757600080fd5b5061002133610026565b610076565b600080546001600160a01b038381166001600160a01b0319831681178455604051919092169283917f8be0079c531659141344cd1fd0a4f28419497f9722a3daafe3b4186f6b6457e09190a35050565b610b9f806100856000396000f3fe608060405234801561001057600080fd5b506004361061007d5760003560e01c80638b2f0f4f1161005b5780638b2f0f4f146100cb5780638da5cb5b146100de578063d29dba91146100f9578063f2fde38b1461010c57600080fd5b80633defb96214610082578063715018a61461009e57806375151b63146100a8575b600080fd5b61008b60015481565b6040519081526020015b60405180910390f35b6100a661011f565b005b6100bb6100b63660046107e4565b610133565b6040519015158152602001610095565b61008b6100d93660046107e4565b6101f9565b6000546040516001600160a01b039091168152602001610095565b6100a661010736600461080d565b61020f565b6100a661011a3660046107e4565b6102e0565b610127610359565b61013160006103b3565b565b600061013e82610403565b1561014b57506001919050565b604051638b2f0f4f60e01b81526001600160a01b03831660048201523090638b2f0f4f90602401602060405180830381865afa9250505080156101ab575060408051601f3d908101601f191682019092526101a891810190610826565b60015b6101eb576101b761083f565b806308c379a0036101df57506101cb610896565b806101d657506101e1565b50600092915050565b505b3d6000803e3d6000fd5b50600192915050565b919050565b6000610209826103486001610463565b92915050565b610217610359565b6154608110156102625760405162461bcd60e51b815260206004820152601160248201527068656172746265617420746f6f206c6f7760781b60448201526064015b60405180910390fd5b60015481036102a55760405162461bcd60e51b815260206004820152600f60248201526e1cd85b5948185cc818dd5c9c995b9d608a1b6044820152606401610259565b60018190556040518181527fc2178046992f7ede7649071430a5471a38fa34dc920c308b50d50c3271519b6d9060200160405180910390a150565b6102e8610359565b6001600160a01b03811661034d5760405162461bcd60e51b815260206004820152602660248201527f4f776e61626c653a206e6577206f776e657220697320746865207a65726f206160448201526564647265737360d01b6064820152608401610259565b610356816103b3565b50565b6000546001600160a01b031633146101315760405162461bcd60e51b815260206004820181905260248201527f4f776e61626c653a2063616c6c6572206973206e6f7420746865206f776e65726044820152606401610259565b600080546001600160a01b038381166001600160a01b0319831681178455604051919092169283917f8be0079c531659141344cd1fd0a4f28419497f9722a3daafe3b4186f6b6457e09190a35050565b60006001600160a01b038216158061043757506001600160a01b03821673c02aaa39b223fe8d0a0e5c4f27ead9083c756cc2145b8061020957506001600160a01b03821673eeeeeeeeeeeeeeeeeeeeeeeeeeeeeeeeeeeeeeee1492915050565b600061046e84610403565b1561048b5773eeeeeeeeeeeeeeeeeeeeeeeeeeeeeeeeeeeeeeee93505b60405163bcfd032d60e01b81526001600160a01b038086166004830152841660248201527347fb2585d2c56fe188d0e6ec628a38b74fceeedf9063bcfd032d9060440160a060405180830381865afa925050508015610507575060408051601f3d908101601f191682019092526105049181019061093a565b60015b61060d5761051361083f565b806308c379a0036101df5750610527610896565b8061053257506101e1565b82610551578060405162461bcd60e51b8152600401610259919061098a565b610347196001600160a01b038516016105cb57670de0b6b3a764000061058f73eeeeeeeeeeeeeeeeeeeeeeeeeeeeeeeeeeeeeeee6103486000610463565b6105af8773eeeeeeeeeeeeeeeeeeeeeeeeeeeeeeeeeeeeeeee6000610463565b6105b991906109ee565b6105c39190610a05565b915050610776565b6105ed73eeeeeeeeeeeeeeeeeeeeeeeeeeeeeeeeeeeeeeee6103486000610463565b6105fb866103486000610463565b6105b990670de0b6b3a76400006109ee565b816000036106525760405162461bcd60e51b8152602060048201526012602482015271726f756e64206e6f7420636f6d706c65746560701b6044820152606401610259565b600084136106935760405162461bcd60e51b815260206004820152600e60248201526d6e6567617469766520707269636560901b6044820152606401610259565b6001546106a09042610a27565b8210156106df5760405162461bcd60e51b815260206004820152600d60248201526c1c1c9a58d9481d1bdbc81bdb19609a1b6044820152606401610259565b604051630b1c5a7560e31b81526001600160a01b03808b1660048301528916602482015261076e9085907347fb2585d2c56fe188d0e6ec628a38b74fceeedf906358e2d3a890604401602060405180830381865afa158015610745573d6000803e3d6000fd5b505050506040513d601f19601f820116820180604052508101906107699190610a3a565b61077d565b955050505050505b9392505050565b60008160ff16601203610791575081610209565b60128260ff1611156107c4576107a8601283610a5d565b6107b390600a610b5a565b6107bd9084610a05565b9050610209565b6107cf826012610a5d565b6107da90600a610b5a565b6107bd90846109ee565b6000602082840312156107f657600080fd5b81356001600160a01b038116811461077657600080fd5b60006020828403121561081f57600080fd5b5035919050565b60006020828403121561083857600080fd5b5051919050565b600060033d11156108585760046000803e5060005160e01c5b90565b601f8201601f1916810167ffffffffffffffff8111828210171561088f57634e487b7160e01b600052604160045260246000fd5b6040525050565b600060443d10156108a45790565b6040516003193d81016004833e81513d67ffffffffffffffff81602484011181841117156108d457505050505090565b82850191508151818111156108ec5750505050505090565b843d87010160208285010111156109065750505050505090565b6109156020828601018761085b565b509095945050505050565b805169ffffffffffffffffffff811681146101f457600080fd5b600080600080600060a0868803121561095257600080fd5b61095b86610920565b945060208601519350604086015192506060860151915061097e60808701610920565b90509295509295909350565b600060208083528351808285015260005b818110156109b75785810183015185820160400152820161099b565b506000604082860101526040601f19601f8301168501019250505092915050565b634e487b7160e01b600052601160045260246000fd5b8082028115828204841417610209576102096109d8565b600082610a2257634e487b7160e01b600052601260045260246000fd5b500490565b81810381811115610209576102096109d8565b600060208284031215610a4c57600080fd5b815160ff8116811461077657600080fd5b60ff8281168282160390811115610209576102096109d8565b600181815b80851115610ab1578160001904821115610a9757610a976109d8565b80851615610aa457918102915b93841c9390800290610a7b565b509250929050565b600082610ac857506001610209565b81610ad557506000610209565b8160018114610aeb5760028114610af557610b11565b6001915050610209565b60ff841115610b0657610b066109d8565b50506001821b610209565b5060208310610133831016604e8410600b8410161715610b34575081810a610209565b610b3e8383610a76565b8060001904821115610b5257610b526109d8565b029392505050565b600061077660ff841683610ab956fea26469706673582212208159b71a9544352a5293a949b3d25feb921c96ae1b2b32e4ac77abc8938acc0664736f6c63430008110033","bytecodeSha1":"70468005e80d1ace96d7216f1c2d7f8a12ebc6ef","compiler":{"evm_version":"london","optimizer":{"enabled":true,"runs":200},"version":"0.8.17+commit.8df45f5f"},"contractName":"ChainlinkOracle","language":"Solidity","natspec":{"kind":"dev","methods":{"getUSDPrice(address)":{"notice":"returns the price in USD of symbol."},"isTokenSupported(address)":{"notice":"returns if the given token is supported for pricing."},"owner()":{"details":"Returns the address of the current owner."},"renounceOwnership()":{"details":"Leaves the contract without owner. It will not be possible to call `onlyOwner` functions. Can only be called by the current owner. NOTE: Renouncing ownership will leave the contract without an owner, thereby disabling any functionality that is only available to the owner."},"transferOwnership(address)":{"details":"Transfers ownership of the contract to a new account (`newOwner`). Can only be called by the current owner."}},"version":1},"opcodes":"PUSH1 0x80 PUSH1 0x40 MSTORE CALLVALUE DUP1 ISZERO PUSH2 0x10 JUMPI PUSH1 0x0 DUP1 REVERT JUMPDEST POP PUSH1 0x4 CALLDATASIZE LT PUSH2 0x7D JUMPI PUSH1 0x0 CALLDATALOAD PUSH1 0xE0 SHR DUP1 PUSH4 0x8B2F0F4F GT PUSH2 0x5B JUMPI DUP1 PUSH4 0x8B2F0F4F EQ PUSH2 0xCB JUMPI DUP1 PUSH4 0x8DA5CB5B EQ PUSH2 0xDE JUMPI DUP1 PUSH4 0xD29DBA91 EQ PUSH2 0xF9 JUMPI DUP1 PUSH4 0xF2FDE38B EQ PUSH2 0x10C JUMPI PUSH1 0x0 DUP1 REVERT JUMPDEST DUP1 PUSH4 0x3DEFB962 EQ PUSH2 0x82 JUMPI DUP1 PUSH4 0x715018A6 EQ PUSH2 0x9E JUMPI DUP1 PUSH4 0x75151B63 EQ PUSH2 0xA8 JUMPI JUMPDEST PUSH1 0x0 DUP1 REVERT JUMPDEST PUSH2 0x8B PUSH1 0x1 SLOAD DUP2 JUMP JUMPDEST PUSH1 0x40 MLOAD SWAP1 DUP2 MSTORE PUSH1 0x20 ADD JUMPDEST PUSH1 0x40 MLOAD DUP1 SWAP2 SUB SWAP1 RETURN JUMPDEST PUSH2 0xA6 PUSH2 0x11F JUMP JUMPDEST STOP JUMPDEST PUSH2 0xBB PUSH2 0xB6 CALLDATASIZE PUSH1 0x4 PUSH2 0x7E4 JUMP JUMPDEST PUSH2 0x133 JUMP JUMPDEST PUSH1 0x40 MLOAD SWAP1 ISZERO ISZERO DUP2 MSTORE PUSH1 0x20 ADD PUSH2 0x95 JUMP JUMPDEST PUSH2 0x8B PUSH2 0xD9 CALLDATASIZE PUSH1 0x4 PUSH2 0x7E4 JUMP JUMPDEST PUSH2 0x1F9 JUMP JUMPDEST PUSH1 0x0 SLOAD PUSH1 0x40 MLOAD PUSH1 0x1 PUSH1 0x1 PUSH1 0xA0 SHL SUB SWAP1 SWAP2 AND DUP2 MSTORE PUSH1 0x20 ADD PUSH2 0x95 JUMP JUMPDEST PUSH2 0xA6 PUSH2 0x107 CALLDATASIZE PUSH1 0x4 PUSH2 0x80D JUMP JUMPDEST PUSH2 0x20F JUMP JUMPDEST PUSH2 0xA6 PUSH2 0x11A CALLDATASIZE PUSH1 0x4 PUSH2 0x7E4 JUMP JUMPDEST PUSH2 0x2E0 JUMP JUMPDEST PUSH2 0x127 PUSH2 0x359 JUMP JUMPDEST PUSH2 0x131 PUSH1 0x0 PUSH2 0x3B3 JUMP JUMPDEST JUMP JUMPDEST PUSH1 0x0 PUSH2 0x13E DUP3 PUSH2 0x403 JUMP JUMPDEST ISZERO PUSH2 0x14B JUMPI POP PUSH1 0x1 SWAP2 SWAP1 POP JUMP JUMPDEST PUSH1 0x40 MLOAD PUSH4 0x8B2F0F4F PUSH1 0xE0 SHL DUP2 MSTORE PUSH1 0x1 PUSH1 0x1 PUSH1 0xA0 SHL SUB DUP4 AND PUSH1 0x4 DUP3 ADD MSTORE ADDRESS SWAP1 PUSH4 0x8B2F0F4F SWAP1 PUSH1 0x24 ADD PUSH1 0x20 PUSH1 0x40 MLOAD DUP1 DUP4 SUB DUP2 DUP7 GAS STATICCALL SWAP3 POP POP POP DUP1 ISZERO PUSH2 0x1AB JUMPI POP PUSH1 0x40 DUP1 MLOAD PUSH1 0x1F RETURNDATASIZE SWAP1 DUP2 ADD PUSH1 0x1F NOT AND DUP3 ADD SWAP1 SWAP3 MSTORE PUSH2 0x1A8 SWAP2 DUP2 ADD SWAP1 PUSH2 0x826 JUMP JUMPDEST PUSH1 0x1 JUMPDEST PUSH2 0x1EB JUMPI PUSH2 0x1B7 PUSH2 0x83F JUMP JUMPDEST DUP1 PUSH4 0x8C379A0 SUB PUSH2 0x1DF JUMPI POP PUSH2 0x1CB PUSH2 0x896 JUMP JUMPDEST DUP1 PUSH2 0x1D6 JUMPI POP PUSH2 0x1E1 JUMP JUMPDEST POP PUSH1 0x0 SWAP3 SWAP2 POP POP JUMP JUMPDEST POP JUMPDEST RETURNDATASIZE PUSH1 0x0 DUP1 RETURNDATACOPY RETURNDATASIZE PUSH1 0x0 REVERT JUMPDEST POP PUSH1 0x1 SWAP3 SWAP2 POP POP JUMP JUMPDEST SWAP2 SWAP1 POP JUMP JUMPDEST PUSH1 0x0 PUSH2 0x209 DUP3 PUSH2 0x348 PUSH1 0x1 PUSH2 0x463 JUMP JUMPDEST SWAP3 SWAP2 POP POP JUMP JUMPDEST PUSH2 0x217 PUSH2 0x359 JUMP JUMPDEST PUSH2 0x5460 DUP2 LT ISZERO PUSH2 0x262 JUMPI PUSH1 0x40 MLOAD PUSH3 0x461BCD PUSH1 0xE5 SHL DUP2 MSTORE PUSH1 0x20 PUSH1 0x4 DUP3 ADD MSTORE PUSH1 0x11 PUSH1 0x24 DUP3 ADD MSTORE PUSH17 0x68656172746265617420746F6F206C6F77 PUSH1 0x78 SHL PUSH1 0x44 DUP3 ADD MSTORE PUSH1 0x64 ADD JUMPDEST PUSH1 0x40 MLOAD DUP1 SWAP2 SUB SWAP1 REVERT JUMPDEST PUSH1 0x1 SLOAD DUP2 SUB PUSH2 0x2A5 JUMPI PUSH1 0x40 MLOAD PUSH3 0x461BCD PUSH1 0xE5 SHL DUP2 MSTORE PUSH1 0x20 PUSH1 0x4 DUP3 ADD MSTORE PUSH1 0xF PUSH1 0x24 DUP3 ADD MSTORE PUSH15 0x1CD85B5948185CC818DD5C9C995B9D PUSH1 0x8A SHL PUSH1 0x44 DUP3 ADD MSTORE PUSH1 0x64 ADD PUSH2 0x259 JUMP JUMPDEST PUSH1 0x1 DUP2 SWAP1 SSTORE PUSH1 0x40 MLOAD DUP2 DUP2 MSTORE PUSH32 0xC2178046992F7EDE7649071430A5471A38FA34DC920C308B50D50C3271519B6D SWAP1 PUSH1 0x20 ADD PUSH1 0x40 MLOAD DUP1 SWAP2 SUB SWAP1 LOG1 POP JUMP JUMPDEST PUSH2 0x2E8 PUSH2 0x359 JUMP JUMPDEST PUSH1 0x1 PUSH1 0x1 PUSH1 0xA0 SHL SUB DUP2 AND PUSH2 0x34D JUMPI PUSH1 0x40 MLOAD PUSH3 0x461BCD PUSH1 0xE5 SHL DUP2 MSTORE PUSH1 0x20 PUSH1 0x4 DUP3 ADD MSTORE PUSH1 0x26 PUSH1 0x24 DUP3 ADD MSTORE PUSH32 0x4F776E61626C653A206E6577206F776E657220697320746865207A65726F2061 PUSH1 0x44 DUP3 ADD MSTORE PUSH6 0x646472657373 PUSH1 0xD0 SHL PUSH1 0x64 DUP3 ADD MSTORE PUSH1 0x84 ADD PUSH2 0x259 JUMP JUMPDEST PUSH2 0x356 DUP2 PUSH2 0x3B3 JUMP JUMPDEST POP JUMP JUMPDEST PUSH1 0x0 SLOAD PUSH1 0x1 PUSH1 0x1 PUSH1 0xA0 SHL SUB AND CALLER EQ PUSH2 0x131 JUMPI PUSH1 0x40 MLOAD PUSH3 0x461BCD PUSH1 0xE5 SHL DUP2 MSTORE PUSH1 0x20 PUSH1 0x4 DUP3 ADD DUP2 SWAP1 MSTORE PUSH1 0x24 DUP3 ADD MSTORE PUSH32 0x4F776E61626C653A2063616C6C6572206973206E6F7420746865206F776E6572 PUSH1 0x44 DUP3 ADD MSTORE PUSH1 0x64 ADD PUSH2 0x259 JUMP JUMPDEST PUSH1 0x0 DUP1 SLOAD PUSH1 0x1 PUSH1 0x1 PUSH1 0xA0 SHL SUB DUP4 DUP2 AND PUSH1 0x1 PUSH1 0x1 PUSH1 0xA0 SHL SUB NOT DUP4 AND DUP2 OR DUP5 SSTORE PUSH1 0x40 MLOAD SWAP2 SWAP1 SWAP3 AND SWAP3 DUP4 SWAP2 PUSH32 0x8BE0079C531659141344CD1FD0A4F28419497F9722A3DAAFE3B4186F6B6457E0 SWAP2 SWAP1 LOG3 POP POP JUMP JUMPDEST PUSH1 0x0 PUSH1 0x1 PUSH1 0x1 PUSH1 0xA0 SHL SUB DUP3 AND ISZERO DUP1 PUSH2 0x437 JUMPI POP PUSH1 0x1 PUSH1 0x1 PUSH1 0xA0 SHL SUB DUP3 AND PUSH20 0xC02AAA39B223FE8D0A0E5C4F27EAD9083C756CC2 EQ JUMPDEST DUP1 PUSH2 0x209 JUMPI POP PUSH1 0x1 PUSH1 0x1 PUSH1 0xA0 SHL SUB DUP3 AND PUSH20 0xEEEEEEEEEEEEEEEEEEEEEEEEEEEEEEEEEEEEEEEE EQ SWAP3 SWAP2 POP POP JUMP JUMPDEST PUSH1 0x0 PUSH2 0x46E DUP5 PUSH2 0x403 JUMP JUMPDEST ISZERO PUSH2 0x48B JUMPI PUSH20 0xEEEEEEEEEEEEEEEEEEEEEEEEEEEEEEEEEEEEEEEE SWAP4 POP JUMPDEST PUSH1 0x40 MLOAD PUSH4 0xBCFD032D PUSH1 0xE0 SHL DUP2 MSTORE PUSH1 0x1 PUSH1 0x1 PUSH1 0xA0 SHL SUB DUP1 DUP7 AND PUSH1 0x4 DUP4 ADD MSTORE DUP5 AND PUSH1 0x24 DUP3 ADD MSTORE PUSH20 0x47FB2585D2C56FE188D0E6EC628A38B74FCEEEDF SWAP1 PUSH4 0xBCFD032D SWAP1 PUSH1 0x44 ADD PUSH1 0xA0 PUSH1 0x40 MLOAD DUP1 DUP4 SUB DUP2 DUP7 GAS STATICCALL SWAP3 POP POP POP DUP1 ISZERO PUSH2 0x507 JUMPI POP PUSH1 0x40 DUP1 MLOAD PUSH1 0x1F RETURNDATASIZE SWAP1 DUP2 ADD PUSH1 0x1F NOT AND DUP3 ADD SWAP1 SWAP3 MSTORE PUSH2 0x504 SWAP2 DUP2 ADD SWAP1 PUSH2 0x93A JUMP JUMPDEST PUSH1 0x1 JUMPDEST PUSH2 0x60D JUMPI PUSH2 0x513 PUSH2 0x83F JUMP JUMPDEST DUP1 PUSH4 0x8C379A0 SUB PUSH2 0x1DF JUMPI POP PUSH2 0x527 PUSH2 0x896 JUMP JUMPDEST DUP1 PUSH2 0x532 JUMPI POP PUSH2 0x1E1 JUMP JUMPDEST DUP3 PUSH2 0x551 JUMPI DUP1 PUSH1 0x40 MLOAD PUSH3 0x461BCD PUSH1 0xE5 SHL DUP2 MSTORE PUSH1 0x4 ADD PUSH2 0x259 SWAP2 SWAP1 PUSH2 0x98A JUMP JUMPDEST PUSH2 0x347 NOT PUSH1 0x1 PUSH1 0x1 PUSH1 0xA0 SHL SUB DUP6 AND ADD PUSH2 0x5CB JUMPI PUSH8 0xDE0B6B3A7640000 PUSH2 0x58F PUSH20 0xEEEEEEEEEEEEEEEEEEEEEEEEEEEEEEEEEEEEEEEE PUSH2 0x348 PUSH1 0x0 PUSH2 0x463 JUMP JUMPDEST PUSH2 0x5AF DUP8 PUSH20 0xEEEEEEEEEEEEEEEEEEEEEEEEEEEEEEEEEEEEEEEE PUSH1 0x0 PUSH2 0x463 JUMP JUMPDEST PUSH2 0x5B9 SWAP2 SWAP1 PUSH2 0x9EE JUMP JUMPDEST PUSH2 0x5C3 SWAP2 SWAP1 PUSH2 0xA05 JUMP JUMPDEST SWAP2 POP POP PUSH2 0x776 JUMP JUMPDEST PUSH2 0x5ED PUSH20 0xEEEEEEEEEEEEEEEEEEEEEEEEEEEEEEEEEEEEEEEE PUSH2 0x348 PUSH1 0x0 PUSH2 0x463 JUMP JUMPDEST PUSH2 0x5FB DUP7 PUSH2 0x348 PUSH1 0x0 PUSH2 0x463 JUMP JUMPDEST PUSH2 0x5B9 SWAP1 PUSH8 0xDE0B6B3A7640000 PUSH2 0x9EE JUMP JUMPDEST DUP2 PUSH1 0x0 SUB PUSH2 0x652 JUMPI PUSH1 0x40 MLOAD PUSH3 0x461BCD PUSH1 0xE5 SHL DUP2 MSTORE PUSH1 0x20 PUSH1 0x4 DUP3 ADD MSTORE PUSH1 0x12 PUSH1 0x24 DUP3 ADD MSTORE PUSH18 0x726F756E64206E6F7420636F6D706C657465 PUSH1 0x70 SHL PUSH1 0x44 DUP3 ADD MSTORE PUSH1 0x64 ADD PUSH2 0x259 JUMP JUMPDEST PUSH1 0x0 DUP5 SGT PUSH2 0x693 JUMPI PUSH1 0x40 MLOAD PUSH3 0x461BCD PUSH1 0xE5 SHL DUP2 MSTORE PUSH1 0x20 PUSH1 0x4 DUP3 ADD MSTORE PUSH1 0xE PUSH1 0x24 DUP3 ADD MSTORE PUSH14 0x6E65676174697665207072696365 PUSH1 0x90 SHL PUSH1 0x44 DUP3 ADD MSTORE PUSH1 0x64 ADD PUSH2 0x259 JUMP JUMPDEST PUSH1 0x1 SLOAD PUSH2 0x6A0 SWAP1 TIMESTAMP PUSH2 0xA27 JUMP JUMPDEST DUP3 LT ISZERO PUSH2 0x6DF JUMPI PUSH1 0x40 MLOAD PUSH3 0x461BCD PUSH1 0xE5 SHL DUP2 MSTORE PUSH1 0x20 PUSH1 0x4 DUP3 ADD MSTORE PUSH1 0xD PUSH1 0x24 DUP3 ADD MSTORE PUSH13 0x1C1C9A58D9481D1BDBC81BDB19 PUSH1 0x9A SHL PUSH1 0x44 DUP3 ADD MSTORE PUSH1 0x64 ADD PUSH2 0x259 JUMP JUMPDEST PUSH1 0x40 MLOAD PUSH4 0xB1C5A75 PUSH1 0xE3 SHL DUP2 MSTORE PUSH1 0x1 PUSH1 0x1 PUSH1 0xA0 SHL SUB DUP1 DUP12 AND PUSH1 0x4 DUP4 ADD MSTORE DUP10 AND PUSH1 0x24 DUP3 ADD MSTORE PUSH2 0x76E SWAP1 DUP6 SWAP1 PUSH20 0x47FB2585D2C56FE188D0E6EC628A38B74FCEEEDF SWAP1 PUSH4 0x58E2D3A8 SWAP1 PUSH1 0x44 ADD PUSH1 0x20 PUSH1 0x40 MLOAD DUP1 DUP4 SUB DUP2 DUP7 GAS STATICCALL ISZERO DUP1 ISZERO PUSH2 0x745 JUMPI RETURNDATASIZE PUSH1 0x0 DUP1 RETURNDATACOPY RETURNDATASIZE PUSH1 0x0 REVERT JUMPDEST POP POP POP POP PUSH1 0x40 MLOAD RETURNDATASIZE PUSH1 0x1F NOT PUSH1 0x1F DUP3 ADD AND DUP3 ADD DUP1 PUSH1 0x40 MSTORE POP DUP2 ADD SWAP1 PUSH2 0x769 SWAP2 SWAP1 PUSH2 0xA3A JUMP JUMPDEST PUSH2 0x77D JUMP JUMPDEST SWAP6 POP POP POP POP POP POP JUMPDEST SWAP4 SWAP3 POP POP POP JUMP JUMPDEST PUSH1 0x0 DUP2 PUSH1 0xFF AND PUSH1 0x12 SUB PUSH2 0x791 JUMPI POP DUP2 PUSH2 0x209 JUMP JUMPDEST PUSH1 0x12 DUP3 PUSH1 0xFF AND GT ISZERO PUSH2 0x7C4 JUMPI PUSH2 0x7A8 PUSH1 0x12 DUP4 PUSH2 0xA5D JUMP JUMPDEST PUSH2 0x7B3 SWAP1 PUSH1 0xA PUSH2 0xB5A JUMP JUMPDEST PUSH2 0x7BD SWAP1 DUP5 PUSH2 0xA05 JUMP JUMPDEST SWAP1 POP PUSH2 0x209 JUMP JUMPDEST PUSH2 0x7CF DUP3 PUSH1 0x12 PUSH2 0xA5D JUMP JUMPDEST PUSH2 0x7DA SWAP1 PUSH1 0xA PUSH2 0xB5A JUMP JUMPDEST PUSH2 0x7BD SWAP1 DUP5 PUSH2 0x9EE JUMP JUMPDEST PUSH1 0x0 PUSH1 0x20 DUP3 DUP5 SUB SLT ISZERO PUSH2 0x7F6 JUMPI PUSH1 0x0 DUP1 REVERT JUMPDEST DUP2 CALLDATALOAD PUSH1 0x1 PUSH1 0x1 PUSH1 0xA0 SHL SUB DUP2 AND DUP2 EQ PUSH2 0x776 JUMPI PUSH1 0x0 DUP1 REVERT JUMPDEST PUSH1 0x0 PUSH1 0x20 DUP3 DUP5 SUB SLT ISZERO PUSH2 0x81F JUMPI PUSH1 0x0 DUP1 REVERT JUMPDEST POP CALLDATALOAD SWAP2 SWAP1 POP JUMP JUMPDEST PUSH1 0x0 PUSH1 0x20 DUP3 DUP5 SUB SLT ISZERO PUSH2 0x838 JUMPI PUSH1 0x0 DUP1 REVERT JUMPDEST POP MLOAD SWAP2 SWAP1 POP JUMP JUMPDEST PUSH1 0x0 PUSH1 0x3 RETURNDATASIZE GT ISZERO PUSH2 0x858 JUMPI PUSH1 0x4 PUSH1 0x0 DUP1 RETURNDATACOPY POP PUSH1 0x0 MLOAD PUSH1 0xE0 SHR JUMPDEST SWAP1 JUMP JUMPDEST PUSH1 0x1F DUP3 ADD PUSH1 0x1F NOT AND DUP2 ADD PUSH8 0xFFFFFFFFFFFFFFFF DUP2 GT DUP3 DUP3 LT OR ISZERO PUSH2 0x88F JUMPI PUSH4 0x4E487B71 PUSH1 0xE0 SHL PUSH1 0x0 MSTORE PUSH1 0x41 PUSH1 0x4 MSTORE PUSH1 0x24 PUSH1 0x0 REVERT JUMPDEST PUSH1 0x40 MSTORE POP POP JUMP JUMPDEST PUSH1 0x0 PUSH1 0x44 RETURNDATASIZE LT ISZERO PUSH2 0x8A4 JUMPI SWAP1 JUMP JUMPDEST PUSH1 0x40 MLOAD PUSH1 0x3 NOT RETURNDATASIZE DUP2 ADD PUSH1 0x4 DUP4 RETURNDATACOPY DUP2 MLOAD RETURNDATASIZE PUSH8 0xFFFFFFFFFFFFFFFF DUP2 PUSH1 0x24 DUP5 ADD GT DUP2 DUP5 GT OR ISZERO PUSH2 0x8D4 JUMPI POP POP POP POP POP SWAP1 JUMP JUMPDEST DUP3 DUP6 ADD SWAP2 POP DUP2 MLOAD DUP2 DUP2 GT ISZERO PUSH2 0x8EC JUMPI POP POP POP POP POP POP SWAP1 JUMP JUMPDEST DUP5 RETURNDATASIZE DUP8 ADD ADD PUSH1 0x20 DUP3 DUP6 ADD ADD GT ISZERO PUSH2 0x906 JUMPI POP POP POP POP POP POP SWAP1 JUMP JUMPDEST PUSH2 0x915 PUSH1 0x20 DUP3 DUP7 ADD ADD DUP8 PUSH2 0x85B JUMP JUMPDEST POP SWAP1 SWAP6 SWAP5 POP POP POP POP POP JUMP JUMPDEST DUP1 MLOAD PUSH10 0xFFFFFFFFFFFFFFFFFFFF DUP2 AND DUP2 EQ PUSH2 0x1F4 JUMPI PUSH1 0x0 DUP1 REVERT JUMPDEST PUSH1 0x0 DUP1 PUSH1 0x0 DUP1 PUSH1 0x0 PUSH1 0xA0 DUP7 DUP9 SUB SLT ISZERO PUSH2 0x952 JUMPI PUSH1 0x0 DUP1 REVERT JUMPDEST PUSH2 0x95B DUP7 PUSH2 0x920 JUMP JUMPDEST SWAP5 POP PUSH1 0x20 DUP7 ADD MLOAD SWAP4 POP PUSH1 0x40 DUP7 ADD MLOAD SWAP3 POP PUSH1 0x60 DUP7 ADD MLOAD SWAP2 POP PUSH2 0x97E PUSH1 0x80 DUP8 ADD PUSH2 0x920 JUMP JUMPDEST SWAP1 POP SWAP3 SWAP6 POP SWAP3 SWAP6 SWAP1 SWAP4 POP JUMP JUMPDEST PUSH1 0x0 PUSH1 0x20 DUP1 DUP4 MSTORE DUP4 MLOAD DUP1 DUP3 DUP6 ADD MSTORE PUSH1 0x0 JUMPDEST DUP2 DUP2 LT ISZERO PUSH2 0x9B7 JUMPI DUP6 DUP2 ADD DUP4 ADD MLOAD DUP6 DUP3 ADD PUSH1 0x40 ADD MSTORE DUP3 ADD PUSH2 0x99B JUMP JUMPDEST POP PUSH1 0x0 PUSH1 0x40 DUP3 DUP7 ADD ADD MSTORE PUSH1 0x40 PUSH1 0x1F NOT PUSH1 0x1F DUP4 ADD AND DUP6 ADD ADD SWAP3 POP POP POP SWAP3 SWAP2 POP POP JUMP JUMPDEST PUSH4 0x4E487B71 PUSH1 0xE0 SHL PUSH1 0x0 MSTORE PUSH1 0x11 PUSH1 0x4 MSTORE PUSH1 0x24 PUSH1 0x0 REVERT JUMPDEST DUP1 DUP3 MUL DUP2 ISZERO DUP3 DUP3 DIV DUP5 EQ OR PUSH2 0x209 JUMPI PUSH2 0x209 PUSH2 0x9D8 JUMP JUMPDEST PUSH1 0x0 DUP3 PUSH2 0xA22 JUMPI PUSH4 0x4E487B71 PUSH1 0xE0 SHL PUSH1 0x0 MSTORE PUSH1 0x12 PUSH1 0x4 MSTORE PUSH1 0x24 PUSH1 0x0 REVERT JUMPDEST POP DIV SWAP1 JUMP JUMPDEST DUP2 DUP2 SUB DUP2 DUP2 GT ISZERO PUSH2 0x209 JUMPI PUSH2 0x209 PUSH2 0x9D8 JUMP JUMPDEST PUSH1 0x0 PUSH1 0x20 DUP3 DUP5 SUB SLT ISZERO PUSH2 0xA4C JUMPI PUSH1 0x0 DUP1 REVERT JUMPDEST DUP2 MLOAD PUSH1 0xFF DUP2 AND DUP2 EQ PUSH2 0x776 JUMPI PUSH1 0x0 DUP1 REVERT JUMPDEST PUSH1 0xFF DUP3 DUP2 AND DUP3 DUP3 AND SUB SWAP1 DUP2 GT ISZERO PUSH2 0x209 JUMPI PUSH2 0x209 PUSH2 0x9D8 JUMP JUMPDEST PUSH1 0x1 DUP2 DUP2 JUMPDEST DUP1 DUP6 GT ISZERO PUSH2 0xAB1 JUMPI DUP2 PUSH1 0x0 NOT DIV DUP3 GT ISZERO PUSH2 0xA97 JUMPI PUSH2 0xA97 PUSH2 0x9D8 JUMP JUMPDEST DUP1 DUP6 AND ISZERO PUSH2 0xAA4 JUMPI SWAP2 DUP2 MUL SWAP2 JUMPDEST SWAP4 DUP5 SHR SWAP4 SWAP1 DUP1 MUL SWAP1 PUSH2 0xA7B JUMP JUMPDEST POP SWAP3 POP SWAP3 SWAP1 POP JUMP JUMPDEST PUSH1 0x0 DUP3 PUSH2 0xAC8 JUMPI POP PUSH1 0x1 PUSH2 0x209 JUMP JUMPDEST DUP2 PUSH2 0xAD5 JUMPI POP PUSH1 0x0 PUSH2 0x209 JUMP JUMPDEST DUP2 PUSH1 0x1 DUP2 EQ PUSH2 0xAEB JUMPI PUSH1 0x2 DUP2 EQ PUSH2 0xAF5 JUMPI PUSH2 0xB11 JUMP JUMPDEST PUSH1 0x1 SWAP2 POP POP PUSH2 0x209 JUMP JUMPDEST PUSH1 0xFF DUP5 GT ISZERO PUSH2 0xB06 JUMPI PUSH2 0xB06 PUSH2 0x9D8 JUMP JUMPDEST POP POP PUSH1 0x1 DUP3 SHL PUSH2 0x209 JUMP JUMPDEST POP PUSH1 0x20 DUP4 LT PUSH2 0x133 DUP4 LT AND PUSH1 0x4E DUP5 LT PUSH1 0xB DUP5 LT AND OR ISZERO PUSH2 0xB34 JUMPI POP DUP2 DUP2 EXP PUSH2 0x209 JUMP JUMPDEST PUSH2 0xB3E DUP4 DUP4 PUSH2 0xA76 JUMP JUMPDEST DUP1 PUSH1 0x0 NOT DIV DUP3 GT ISZERO PUSH2 0xB52 JUMPI PUSH2 0xB52 PUSH2 0x9D8 JUMP JUMPDEST MUL SWAP4 SWAP3 POP POP POP JUMP JUMPDEST PUSH1 0x0 PUSH2 0x776 PUSH1 0xFF DUP5 AND DUP4 PUSH2 0xAB9 JUMP INVALID LOG2 PUSH5 0x6970667358 0x22 SLT KECCAK256 DUP2 MSIZE 0xB7 BYTE SWAP6 DIFFICULTY CALLDATALOAD 0x2A MSTORE SWAP4 0xA9 0x49 0xB3 0xD2 0x5F 0xEB SWAP3 SHR SWAP7 0xAE SHL 0x2B ORIGIN 0xE4 0xAC PUSH24 0xABC8938ACC0664736F6C6343000811003300000000000000 ","sha1":"270631bbe1e52e6e0fad5bbf762c95408da60569","source":"// SPDX-License-Identifier: GPL-3.0-or-later\npragma solidity 0.8.17;\n\nimport \"@chainlink/contracts/Denominations.sol\";\nimport \"@chainlink/contracts/interfaces/FeedRegistryInterface.sol\";\nimport \"@openzeppelin/contracts/access/Ownable.sol\";\n\nimport \"../../interfaces/IOracle.sol\";\n\ninterface IAggregatorV3Interface {\n    function decimals() external view returns (uint8);\n\n    function description() external view returns (string memory);\n\n    function version() external view returns (uint256);\n\n    /// @notice `getRoundData` and `latestRoundData` should both raise \"No data present\"\n    /// if they do not have data to report, instead of returning unset values\n    /// which could be misinterpreted as actual reported values.\n    function getRoundData(\n        uint80 _roundId\n    )\n        external\n        view\n        returns (\n            uint80 roundId,\n            int256 answer,\n            uint256 startedAt,\n            uint256 updatedAt,\n            uint80 answeredInRound\n        );\n\n    function latestRoundData()\n        external\n        view\n        returns (\n            uint80 roundId,\n            int256 answer,\n            uint256 startedAt,\n            uint256 updatedAt,\n            uint80 answeredInRound\n        );\n}\n\ncontract ChainlinkOracle is IOracle, Ownable {\n    event HeartbeatUpdated(uint256 heartbeat);\n\n    uint256 public heartbeat = 24 hours;\n\n    FeedRegistryInterface internal constant _feedRegistry =\n        FeedRegistryInterface(0x47Fb2585D2C56Fe188D0E6ec628a38b74fCeeeDf);\n    address internal constant _WETH = address(0xC02aaA39b223FE8D0A0e5C4F27eAD9083C756Cc2);\n    address internal constant _CURVE_ETH = address(0xEeeeeEeeeEeEeeEeEeEeeEEEeeeeEeeeeeeeEEeE);\n    uint256 internal constant _MIN_HEARTBEAT = 6 hours;\n\n    function setHeartbeat(uint256 heartbeat_) external onlyOwner {\n        require(heartbeat_ >= _MIN_HEARTBEAT, \"heartbeat too low\");\n        require(heartbeat_ != heartbeat, \"same as current\");\n        heartbeat = heartbeat_;\n        emit HeartbeatUpdated(heartbeat_);\n    }\n\n    function isTokenSupported(address token) external view override returns (bool) {\n        if (_isEth(token)) return true;\n        try this.getUSDPrice(token) returns (uint256) {\n            return true;\n        } catch Error(string memory) {\n            return false;\n        }\n    }\n\n    // Prices are always provided with 18 decimals pecision\n    function getUSDPrice(address token) external view returns (uint256) {\n        return _getPrice(token, Denominations.USD, true);\n    }\n\n    function _getPrice(\n        address token,\n        address denomination,\n        bool tryOtherDenomination\n    ) internal view returns (uint256) {\n        if (_isEth(token)) token = Denominations.ETH;\n        try _feedRegistry.latestRoundData(token, denomination) returns (\n            uint80,\n            int256 price_,\n            uint256,\n            uint256 updatedAt_,\n            uint80\n        ) {\n            require(updatedAt_ != 0, \"round not complete\");\n            require(price_ > 0, \"negative price\");\n            require(updatedAt_ >= block.timestamp - heartbeat, \"price too old\");\n            return _scaleFrom(uint256(price_), _feedRegistry.decimals(token, denomination));\n        } catch Error(string memory reason) {\n            if (!tryOtherDenomination) revert(reason);\n\n            if (denomination == Denominations.USD) {\n                return\n                    (_getPrice(token, Denominations.ETH, false) *\n                        _getPrice(Denominations.ETH, Denominations.USD, false)) / 1e18;\n            }\n            return\n                (_getPrice(token, Denominations.USD, false) * 1e18) /\n                _getPrice(Denominations.ETH, Denominations.USD, false);\n        }\n    }\n\n    function _scaleFrom(uint256 value, uint8 decimals) internal pure returns (uint256) {\n        if (decimals == 18) return value;\n        if (decimals > 18) return value / 10 ** (decimals - 18);\n        else return value * 10 ** (18 - decimals);\n    }\n\n    function _isEth(address token) internal pure returns (bool) {\n        return token == address(0) || token == _WETH || token == _CURVE_ETH;\n    }\n}\n","sourcePath":"contracts/oracles/ChainlinkOracle.sol","type":"contract","deployment":{"address":"0xd918685c42A248Ff471ef87e005718C4AaFe04B7","chainid":"1","blockHeight":19036206}}