{"abi":[{"inputs":[{"internalType":"address","name":"_controller","type":"address"},{"internalType":"address","name":"_pool","type":"address"},{"internalType":"address","name":"_lpToken","type":"address"},{"internalType":"address","name":"_underlying","type":"address"},{"internalType":"address","name":"cncLocker","type":"address"}],"stateMutability":"nonpayable","type":"constructor","name":"constructor"},{"anonymous":false,"inputs":[{"indexed":false,"internalType":"uint256","name":"claimedCrv","type":"uint256"},{"indexed":false,"internalType":"uint256","name":"claimedCvx","type":"uint256"}],"name":"ClaimedRewards","type":"event"},{"anonymous":false,"inputs":[{"indexed":true,"internalType":"address","name":"claimedBy","type":"address"},{"indexed":false,"internalType":"uint256","name":"cncEarned","type":"uint256"},{"indexed":false,"internalType":"uint256","name":"crvEarned","type":"uint256"},{"indexed":false,"internalType":"uint256","name":"cvxEarned","type":"uint256"}],"name":"EarningsClaimed","type":"event"},{"anonymous":false,"inputs":[{"indexed":false,"internalType":"address","name":"reward","type":"address"}],"name":"ExtraRewardAdded","type":"event"},{"anonymous":false,"inputs":[{"indexed":false,"internalType":"address","name":"reward","type":"address"}],"name":"ExtraRewardRemoved","type":"event"},{"anonymous":false,"inputs":[{"indexed":false,"internalType":"address","name":"extraReward","type":"address"},{"indexed":false,"internalType":"address","name":"curvePool","type":"address"}],"name":"ExtraRewardsCurvePoolSet","type":"event"},{"anonymous":false,"inputs":[{"indexed":false,"internalType":"uint256","name":"feePercentage","type":"uint256"}],"name":"FeesEnabled","type":"event"},{"anonymous":false,"inputs":[{"indexed":false,"internalType":"uint256","name":"feePercentage","type":"uint256"}],"name":"FeesSet","type":"event"},{"anonymous":false,"inputs":[{"indexed":true,"internalType":"address","name":"previousOwner","type":"address"},{"indexed":true,"internalType":"address","name":"newOwner","type":"address"}],"name":"OwnershipTransferred","type":"event"},{"anonymous":false,"inputs":[{"indexed":false,"internalType":"uint256","name":"targetTokenReceived","type":"uint256"}],"name":"SoldRewardTokens","type":"event"},{"inputs":[],"name":"CNC","outputs":[{"internalType":"contract IERC20","name":"","type":"address"}],"stateMutability":"view","type":"function"},{"inputs":[],"name":"CNC_ETH_POOL","outputs":[{"internalType":"contract ICurvePoolV2","name":"","type":"address"}],"stateMutability":"view","type":"function"},{"inputs":[],"name":"CRV","outputs":[{"internalType":"contract IERC20","name":"","type":"address"}],"stateMutability":"view","type":"function"},{"inputs":[],"name":"CVX","outputs":[{"internalType":"contract IERC20","name":"","type":"address"}],"stateMutability":"view","type":"function"},{"inputs":[],"name":"MAX_FEE_PERCENTAGE","outputs":[{"internalType":"uint256","name":"","type":"uint256"}],"stateMutability":"view","type":"function"},{"inputs":[],"name":"SLIPPAGE_THRESHOLD","outputs":[{"internalType":"uint256","name":"","type":"uint256"}],"stateMutability":"view","type":"function"},{"inputs":[],"name":"SUSHISWAP","outputs":[{"internalType":"contract UniswapRouter02","name":"","type":"address"}],"stateMutability":"view","type":"function"},{"inputs":[],"name":"WETH","outputs":[{"internalType":"contract IERC20","name":"","type":"address"}],"stateMutability":"view","type":"function"},{"inputs":[{"internalType":"address","name":"account","type":"address"}],"name":"accountCheckpoint","outputs":[],"stateMutability":"nonpayable","type":"function"},{"inputs":[{"internalType":"address[]","name":"_rewards","type":"address[]"}],"name":"addBatchExtraRewards","outputs":[],"stateMutability":"nonpayable","type":"function"},{"inputs":[{"internalType":"address","name":"reward","type":"address"}],"name":"addExtraReward","outputs":[{"internalType":"bool","name":"","type":"bool"}],"stateMutability":"nonpayable","type":"function"},{"inputs":[],"name":"claimEarnings","outputs":[{"internalType":"uint256","name":"","type":"uint256"},{"internalType":"uint256","name":"","type":"uint256"},{"internalType":"uint256","name":"","type":"uint256"}],"stateMutability":"nonpayable","type":"function"},{"inputs":[],"name":"claimPoolEarningsAndSellRewardTokens","outputs":[],"stateMutability":"nonpayable","type":"function"},{"inputs":[{"internalType":"address","name":"account","type":"address"}],"name":"claimableRewards","outputs":[{"internalType":"uint256","name":"cncRewards","type":"uint256"},{"internalType":"uint256","name":"crvRewards","type":"uint256"},{"internalType":"uint256","name":"cvxRewards","type":"uint256"}],"stateMutability":"view","type":"function"},{"inputs":[],"name":"controller","outputs":[{"internalType":"contract IController","name":"","type":"address"}],"stateMutability":"view","type":"function"},{"inputs":[{"internalType":"address","name":"","type":"address"}],"name":"extraRewardsCurvePool","outputs":[{"internalType":"address","name":"","type":"address"}],"stateMutability":"view","type":"function"},{"inputs":[],"name":"feePercentage","outputs":[{"internalType":"uint256","name":"","type":"uint256"}],"stateMutability":"view","type":"function"},{"inputs":[],"name":"feesEnabled","outputs":[{"internalType":"bool","name":"","type":"bool"}],"stateMutability":"view","type":"function"},{"inputs":[],"name":"listExtraRewards","outputs":[{"internalType":"address[]","name":"","type":"address[]"}],"stateMutability":"view","type":"function"},{"inputs":[],"name":"locker","outputs":[{"internalType":"contract ICNCLockerV2","name":"","type":"address"}],"stateMutability":"view","type":"function"},{"inputs":[],"name":"lpToken","outputs":[{"internalType":"contract ILpToken","name":"","type":"address"}],"stateMutability":"view","type":"function"},{"inputs":[],"name":"owner","outputs":[{"internalType":"address","name":"","type":"address"}],"stateMutability":"view","type":"function"},{"inputs":[],"name":"pool","outputs":[{"internalType":"address","name":"","type":"address"}],"stateMutability":"view","type":"function"},{"inputs":[],"name":"poolCheckpoint","outputs":[{"internalType":"bool","name":"","type":"bool"}],"stateMutability":"nonpayable","type":"function"},{"inputs":[{"internalType":"address","name":"tokenAddress","type":"address"}],"name":"removeExtraReward","outputs":[],"stateMutability":"nonpayable","type":"function"},{"inputs":[],"name":"renounceOwnership","outputs":[],"stateMutability":"nonpayable","type":"function"},{"inputs":[{"internalType":"address","name":"extraReward_","type":"address"},{"internalType":"address","name":"curvePool_","type":"address"}],"name":"setExtraRewardsCurvePool","outputs":[],"stateMutability":"nonpayable","type":"function"},{"inputs":[{"internalType":"uint256","name":"_feePercentage","type":"uint256"}],"name":"setFeePercentage","outputs":[],"stateMutability":"nonpayable","type":"function"},{"inputs":[{"internalType":"address","name":"newOwner","type":"address"}],"name":"transferOwnership","outputs":[],"stateMutability":"nonpayable","type":"function"},{"inputs":[],"name":"underlying","outputs":[{"internalType":"contract IERC20","name":"","type":"address"}],"stateMutability":"view","type":"function"}],"bytecode":"6101206040523480156200001257600080fd5b5060405162004d6738038062004d678339810160408190526200003591620004fc565b6200004033620000ba565b6001600160a01b0384811660805283811660a05282811660c052851660e052620000a273c02aaa39b223fe8d0a0e5c4f27ead9083c756cc273838af967537350d2c44abb8c010e49e32673ab946000196200010a602090811b62001beb17901c565b6001600160a01b031661010052506200062a92505050565b600080546001600160a01b038381166001600160a01b0319831681178455604051919092169283917f8be0079c531659141344cd1fd0a4f28419497f9722a3daafe3b4186f6b6457e09190a35050565b801580620001885750604051636eb1769f60e11b81523060048201526001600160a01b03838116602483015284169063dd62ed3e90604401602060405180830381865afa15801562000160573d6000803e3d6000fd5b505050506040513d601f19601f820116820180604052508101906200018691906200056c565b155b620002005760405162461bcd60e51b815260206004820152603660248201527f5361666545524332303a20617070726f76652066726f6d206e6f6e2d7a65726f60448201527f20746f206e6f6e2d7a65726f20616c6c6f77616e63650000000000000000000060648201526084015b60405180910390fd5b604080516001600160a01b038416602482015260448082018490528251808303909101815260649091019091526020810180516001600160e01b0390811663095ea7b360e01b17909152620002589185916200025d16565b505050565b6000620002b9826040518060400160405280602081526020017f5361666545524332303a206c6f772d6c6576656c2063616c6c206661696c6564815250856001600160a01b03166200033b60201b62001d38179092919060201c565b805190915015620002585780806020019051810190620002da919062000586565b620002585760405162461bcd60e51b815260206004820152602a60248201527f5361666545524332303a204552433230206f7065726174696f6e20646964206e6044820152691bdd081cdd58d8d9595960b21b6064820152608401620001f7565b60606200034c848460008562000354565b949350505050565b606082471015620003b75760405162461bcd60e51b815260206004820152602660248201527f416464726573733a20696e73756666696369656e742062616c616e636520666f6044820152651c8818d85b1b60d21b6064820152608401620001f7565b600080866001600160a01b03168587604051620003d59190620005d7565b60006040518083038185875af1925050503d806000811462000414576040519150601f19603f3d011682016040523d82523d6000602084013e62000419565b606091505b5090925090506200042d8783838762000438565b979650505050505050565b60608315620004ac578251600003620004a4576001600160a01b0385163b620004a45760405162461bcd60e51b815260206004820152601d60248201527f416464726573733a2063616c6c20746f206e6f6e2d636f6e74726163740000006044820152606401620001f7565b50816200034c565b6200034c8383815115620004c35781518083602001fd5b8060405162461bcd60e51b8152600401620001f79190620005f5565b80516001600160a01b0381168114620004f757600080fd5b919050565b600080600080600060a086880312156200051557600080fd5b6200052086620004df565b94506200053060208701620004df565b93506200054060408701620004df565b92506200055060608701620004df565b91506200056060808701620004df565b90509295509295909350565b6000602082840312156200057f57600080fd5b5051919050565b6000602082840312156200059957600080fd5b81518015158114620005aa57600080fd5b9392505050565b60005b83811015620005ce578181015183820152602001620005b4565b50506000910152565b60008251620005eb818460208701620005b1565b9190910192915050565b602081526000825180602084015262000616816040850160208701620005b1565b601f01601f19169190910160400192915050565b60805160a05160c05160e05161010051614577620007f0600039600081816103e601528181610a0c01528181610a4501528181610a87015261110b015260008181610496015281816105ee015281816106da01528181610dfa0152818161171e0152818161185c015281816120ab01528181612588015281816127ef0152818161294901528181612c7701528181612eaf0152818161357f0152613a7e0152600081816102f70152610cc2015260006102a00152600081816101f90152818161077101528181610850015281816108f101528181610998015281816109d201528181610b0001528181610b9b01528181610d640152818161128b01528181611329015281816113c8015281816114f70152818161153101528181611571015281816115ae01528181611647015281816117b5015281816118f301528181611a0b01528181611aa401528181611db301528181611e4c01528181611edc015281816120010152818161214201528181612445015281816124ee0152818161261f0152818161288601528181612d0e01528181612d8901528181612e2401528181612f4201528181612fc80152818161304b015281816130f201526139ba01526145776000f3fe608060405234801561001057600080fd5b50600436106101da5760003560e01c8063a001ecdd11610104578063d9ceab13116100a2578063e846500911610071578063e84650091461046f578063f2fde38b1461047e578063f77c479114610491578063fe09d54d146104b857600080fd5b8063d9ceab1314610408578063d9e65ced1461042b578063dc01f60d14610454578063e77061831461046757600080fd5b8063ad5c4648116100de578063ad5c4648146103a0578063ae06c1b7146103bb578063bf928f8b146103ce578063d7b96d4e146103e157600080fd5b8063a001ecdd14610377578063a64e4f8a14610380578063a80ff90a1461038d57600080fd5b8063632473da1161017c578063759cb53b1161014b578063759cb53b146103215780638da5cb5b14610336578063945c9142146103475780639c708aab1461035c57600080fd5b8063632473da146102c25780636dc47e1e146102dd5780636f307dc3146102f2578063715018a61461031957600080fd5b8063558e44d3116101b8578063558e44d3146102535780635790a0c8146102705780635e43c47b146102885780635fcbd2851461029b57600080fd5b806303950fb5146101df57806316f0115b146101f45780634955670914610238575b600080fd5b6101f26101ed366004613e74565b6104cb565b005b61021b7f000000000000000000000000000000000000000000000000000000000000000081565b6040516001600160a01b0390911681526020015b60405180910390f35b61021b73838af967537350d2c44abb8c010e49e32673ab9481565b610262670429d069189e000081565b60405190815260200161022f565b6102786105e9565b604051901515815260200161022f565b610278610296366004613ead565b610c29565b61021b7f000000000000000000000000000000000000000000000000000000000000000081565b61021b739ae380f0272e2162340a5bb646c354271c0f5cfc81565b6102e561101c565b60405161022f9190613f0e565b61021b7f000000000000000000000000000000000000000000000000000000000000000081565b6101f261102d565b61021b60008051602061452283398151915281565b6000546001600160a01b031661021b565b61021b60008051602061450283398151915281565b61021b73d9e1ce17f2641f24ae83637ab66a2cca9c378b9f81565b61026260085481565b6007546102789060ff1681565b6101f261039b366004613ead565b611041565b61021b73c02aaa39b223fe8d0a0e5c4f27ead9083c756cc281565b6101f26103c9366004613f21565b611095565b6101f26103dc366004613ead565b6111d9565b61021b7f000000000000000000000000000000000000000000000000000000000000000081565b6104106111e5565b6040805193845260208401929092529082015260600161022f565b61021b610439366004613ead565b6005602052600090815260409020546001600160a01b031681565b610410610462366004613ead565b611716565b6101f26119e0565b610262670d2f13f7789f000081565b6101f261048c366004613ead565b611b28565b61021b7f000000000000000000000000000000000000000000000000000000000000000081565b6101f26104c6366004613fa5565b611b9e565b6104d3611d51565b6001600160a01b038083166000908152600560205260409020548116908216036105445760405162461bcd60e51b815260206004820152601c60248201527f6d75737420626520646966666572656e7420746f2063757272656e740000000060448201526064015b60405180910390fd5b6001600160a01b0381161561057e576105686001600160a01b038316826000611beb565b61057e6001600160a01b03831682600019611beb565b6001600160a01b0382811660008181526005602090815260409182902080546001600160a01b031916948616948517905581519283528201929092527f8c529c22babad500cea1516422f2bf23f6e1e7fab884b816062d20a9a0f78fef910160405180910390a15050565b6000807f00000000000000000000000000000000000000000000000000000000000000006001600160a01b031663b050ecb86040518163ffffffff1660e01b8152600401602060405180830381865afa15801561064a573d6000803e3d6000fd5b505050506040513d601f19601f8201168201806040525081019061066e9190614044565b9050600080600061067e84611dab565b6007549295509093509150600090819060ff16156106d6576008546106a4908690612329565b91506106bb6008548561232990919063ffffffff16565b90506106c78286614077565b94506106d38185614077565b93505b60007f00000000000000000000000000000000000000000000000000000000000000006001600160a01b03166348439e7e6040518163ffffffff1660e01b8152600401602060405180830381865afa158015610736573d6000803e3d6000fd5b505050506040513d601f19601f8201168201806040525081019061075a9190614044565b604051635598b20960e01b81526001600160a01b037f0000000000000000000000000000000000000000000000000000000000000000811660048301529190911690635598b20990602401602060405180830381865afa1580156107c2573d6000803e3d6000fd5b505050506040513d601f19601f820116820180604052508101906107e6919061408a565b90508015610821576107ff620c6ecf60eb1b8683612354565b6108106231b93b60e91b8783612354565b61082162636e6360e81b8583612354565b60075460ff1661083957600097505050505050505090565b6040516370a0823160e01b81526001600160a01b037f0000000000000000000000000000000000000000000000000000000000000000166004820152600090600080516020614502833981519152906370a0823190602401602060405180830381865afa1580156108ae573d6000803e3d6000fd5b505050506040513d601f19601f820116820180604052508101906108d2919061408a565b84118061097357506040516370a0823160e01b81526001600160a01b037f0000000000000000000000000000000000000000000000000000000000000000166004820152600080516020614522833981519152906370a0823190602401602060405180830381865afa15801561094c573d6000803e3d6000fd5b505050506040513d601f19601f82011682018060405250810190610970919061408a565b83115b15610984576109806123ac565b5060015b6109be6000805160206145028339815191527f00000000000000000000000000000000000000000000000000000000000000003087612726565b6109f86000805160206145228339815191527f00000000000000000000000000000000000000000000000000000000000000003086612726565b610a316000805160206145028339815191527f000000000000000000000000000000000000000000000000000000000000000086611beb565b610a6a6000805160206145228339815191527f000000000000000000000000000000000000000000000000000000000000000085611beb565b6040516309e690eb60e31b815260048101859052602481018490527f00000000000000000000000000000000000000000000000000000000000000006001600160a01b031690634f34875890604401600060405180830381600087803b158015610ad357600080fd5b505af1158015610ae7573d6000803e3d6000fd5b50506040516370a0823160e01b81526001600160a01b037f000000000000000000000000000000000000000000000000000000000000000016600482015260008051602061450283398151915292506370a082319150602401602060405180830381865afa158015610b5d573d6000803e3d6000fd5b505050506040513d601f19601f82011682018060405250810190610b81919061408a565b6001556040516370a0823160e01b81526001600160a01b037f0000000000000000000000000000000000000000000000000000000000000000166004820152600080516020614522833981519152906370a0823190602401602060405180830381865afa158015610bf6573d6000803e3d6000fd5b505050506040513d601f19601f82011682018060405250810190610c1a919061408a565b60025598975050505050505050565b6000610c33611d51565b6001600160a01b038216610c7b5760405162461bcd60e51b815260206004820152600f60248201526e696e76616c6964206164647265737360881b604482015260640161053b565b6001600160a01b03821660008051602061452283398151915214801590610cb957506001600160a01b03821660008051602061450283398151915214155b8015610cf757507f00000000000000000000000000000000000000000000000000000000000000006001600160a01b0316826001600160a01b031614155b8015610d2057506001600160a01b038216739ae380f0272e2162340a5bb646c354271c0f5cfc14155b610d605760405162461bcd60e51b81526020600482015260116024820152701d1bdad95b881b9bdd08185b1b1bddd959607a1b604482015260640161053b565b60007f00000000000000000000000000000000000000000000000000000000000000006001600160a01b0316636f934abe6040518163ffffffff1660e01b8152600401600060405180830381865afa158015610dc0573d6000803e3d6000fd5b505050506040513d6000823e601f3d908101601f19168201604052610de891908101906140a3565b905060005b8151811015610f785760007f00000000000000000000000000000000000000000000000000000000000000006001600160a01b0316639f82b2176040518163ffffffff1660e01b8152600401602060405180830381865afa158015610e56573d6000803e3d6000fd5b505050506040513d601f19601f82011682018060405250810190610e7a9190614044565b6001600160a01b03166376a562a4848481518110610e9a57610e9a614132565b60200260200101516040518263ffffffff1660e01b8152600401610ecd91906001600160a01b0391909116815260200190565b602060405180830381865afa158015610eea573d6000803e3d6000fd5b505050506040513d601f19601f82011682018060405250810190610f0e9190614044565b9050806001600160a01b0316856001600160a01b031603610f655760405162461bcd60e51b81526020600482015260116024820152701d1bdad95b881b9bdd08185b1b1bddd959607a1b604482015260640161053b565b5080610f7081614148565b915050610ded565b50610fa26001600160a01b03841673d9e1ce17f2641f24ae83637ab66a2cca9c378b9f6000611beb565b610fcc6001600160a01b03841673d9e1ce17f2641f24ae83637ab66a2cca9c378b9f600019611beb565b6040516001600160a01b03841681527fd432e6f46dbf91c120fdfa95a1f4bf5c43f04d957fbc3a32e693be0d29bf17b09060200160405180910390a1611013600384612764565b9150505b919050565b60606110286003612779565b905090565b611035611d51565b61103f6000612786565b565b611049611d51565b6110546003826127d6565b506040516001600160a01b03821681527fe0f3b1406ab4dd940a92a081b1bcef51da212a57978cc8f6dde5c89ab41a5aa7906020015b60405180910390a150565b61109d611d51565b670429d069189e000081106111075760405162461bcd60e51b815260206004820152602a60248201527f63616e6e6f7420736574206665652070657263656e7461676520746f206d6f7260448201526965207468616e2033302560b01b606482015260840161053b565b60007f00000000000000000000000000000000000000000000000000000000000000006001600160a01b031663631516c26040518163ffffffff1660e01b8152600401602060405180830381865afa158015611167573d6000803e3d6000fd5b505050506040513d601f19601f8201168201806040525081019061118b919061408a565b1161119557600080fd5b60088190556007805460ff191660011790556040517f3346af6da1932164d501f2ec28f8c5d686db5828a36b77f2da4332d89184fe7b9061108a9083815260200190565b6111e2816127eb565b50565b60008060006111f3336127eb565b3360009081527fe2ee452672e51ea6a0e1a769beff058add3428c3669348c1314b250e4abcf64660209081526040808320547f3acadc8a217eebdcf686f20849b9575c123b0b8572285c75a94ddd9d4c51e5bd8352818420547f7af089d8bde560df8f6fed82c9d27c7cabc5c74f30c79b49f5655e8729cb5c51909352928190205490516370a0823160e01b81526001600160a01b037f0000000000000000000000000000000000000000000000000000000000000000166004820152600080516020614502833981519152906370a0823190602401602060405180830381865afa1580156112e6573d6000803e3d6000fd5b505050506040513d601f19601f8201168201806040525081019061130a919061408a565b8311806113ab57506040516370a0823160e01b81526001600160a01b037f0000000000000000000000000000000000000000000000000000000000000000166004820152600080516020614522833981519152906370a0823190602401602060405180830381865afa158015611384573d6000803e3d6000fd5b505050506040513d601f19601f820116820180604052508101906113a8919061408a565b82115b8061145057506040516370a0823160e01b81526001600160a01b037f0000000000000000000000000000000000000000000000000000000000000000166004820152739ae380f0272e2162340a5bb646c354271c0f5cfc906370a0823190602401602060405180830381865afa158015611429573d6000803e3d6000fd5b505050506040513d601f19601f8201168201806040525081019061144d919061408a565b81115b1561145d5761145d6123ac565b3360008181527f7af089d8bde560df8f6fed82c9d27c7cabc5c74f30c79b49f5655e8729cb5c51602090815260408083208390557f3acadc8a217eebdcf686f20849b9575c123b0b8572285c75a94ddd9d4c51e5bd82528083208390557fe2ee452672e51ea6a0e1a769beff058add3428c3669348c1314b250e4abcf64690915281205561151d90600080516020614502833981519152907f00000000000000000000000000000000000000000000000000000000000000009086612726565b6115576000805160206145228339815191527f00000000000000000000000000000000000000000000000000000000000000003385612726565b611597739ae380f0272e2162340a5bb646c354271c0f5cfc7f00000000000000000000000000000000000000000000000000000000000000003384612726565b6040516370a0823160e01b81526001600160a01b037f0000000000000000000000000000000000000000000000000000000000000000166004820152600080516020614502833981519152906370a0823190602401602060405180830381865afa158015611609573d6000803e3d6000fd5b505050506040513d601f19601f8201168201806040525081019061162d919061408a565b6001556040516370a0823160e01b81526001600160a01b037f0000000000000000000000000000000000000000000000000000000000000000166004820152600080516020614522833981519152906370a0823190602401602060405180830381865afa1580156116a2573d6000803e3d6000fd5b505050506040513d601f19601f820116820180604052508101906116c6919061408a565b600255604080518281526020810185905290810183905233907f06f39318c760ad4d630f57ba8f8d3c21b8e1deb076e19476d1dece4e3d737e7a9060600160405180910390a29591945092509050565b6000806000807f00000000000000000000000000000000000000000000000000000000000000006001600160a01b03166348439e7e6040518163ffffffff1660e01b8152600401602060405180830381865afa15801561177a573d6000803e3d6000fd5b505050506040513d601f19601f8201168201806040525081019061179e9190614044565b604051635598b20960e01b81526001600160a01b037f0000000000000000000000000000000000000000000000000000000000000000811660048301529190911690635598b20990602401602060405180830381865afa158015611806573d6000803e3d6000fd5b505050506040513d601f19601f8201168201806040525081019061182a919061408a565b905080600003611845576000806000935093509350506119d9565b6000806000611852612941565b92509250925060007f00000000000000000000000000000000000000000000000000000000000000006001600160a01b03166348439e7e6040518163ffffffff1660e01b8152600401602060405180830381865afa1580156118b8573d6000803e3d6000fd5b505050506040513d601f19601f820116820180604052508101906118dc9190614044565b604051637d2041e560e11b81526001600160a01b037f0000000000000000000000000000000000000000000000000000000000000000811660048301528b81166024830152919091169063fa4083ca90604401602060405180830381865afa15801561194c573d6000803e3d6000fd5b505050506040513d601f19601f82011682018060405250810190611970919061408a565b90506119878962636e6360e81b84848960006129e0565b97506119ac896231b93b60e91b868489600760009054906101000a900460ff166129e0565b96506119d189620c6ecf60eb1b858489600760009054906101000a900460ff166129e0565b955050505050505b9193909250565b6119e86105e9565b61103f576119f46123ac565b6040516370a0823160e01b81526001600160a01b037f0000000000000000000000000000000000000000000000000000000000000000166004820152600080516020614502833981519152906370a0823190602401602060405180830381865afa158015611a66573d6000803e3d6000fd5b505050506040513d601f19601f82011682018060405250810190611a8a919061408a565b6001556040516370a0823160e01b81526001600160a01b037f0000000000000000000000000000000000000000000000000000000000000000166004820152600080516020614522833981519152906370a0823190602401602060405180830381865afa158015611aff573d6000803e3d6000fd5b505050506040513d601f19601f82011682018060405250810190611b23919061408a565b600255565b611b30611d51565b6001600160a01b038116611b955760405162461bcd60e51b815260206004820152602660248201527f4f776e61626c653a206e6577206f776e657220697320746865207a65726f206160448201526564647265737360d01b606482015260840161053b565b6111e281612786565b611ba6611d51565b60005b8151811015611be757611bd4828281518110611bc757611bc7614132565b6020026020010151610c29565b5080611bdf81614148565b915050611ba9565b5050565b801580611c655750604051636eb1769f60e11b81523060048201526001600160a01b03838116602483015284169063dd62ed3e90604401602060405180830381865afa158015611c3f573d6000803e3d6000fd5b505050506040513d601f19601f82011682018060405250810190611c63919061408a565b155b611cd05760405162461bcd60e51b815260206004820152603660248201527f5361666545524332303a20617070726f76652066726f6d206e6f6e2d7a65726f60448201527520746f206e6f6e2d7a65726f20616c6c6f77616e636560501b606482015260840161053b565b6040516001600160a01b038316602482015260448101829052611d3390849063095ea7b360e01b906064015b60408051601f198184030181529190526020810180516001600160e01b03166001600160e01b031990931692909217909152612aad565b505050565b6060611d478484600085612b7f565b90505b9392505050565b6000546001600160a01b0316331461103f5760405162461bcd60e51b815260206004820181905260248201527f4f776e61626c653a2063616c6c6572206973206e6f7420746865206f776e6572604482015260640161053b565b6000806000807f00000000000000000000000000000000000000000000000000000000000000006001600160a01b0316636f934abe6040518163ffffffff1660e01b8152600401600060405180830381865afa158015611e0f573d6000803e3d6000fd5b505050506040513d6000823e601f3d908101601f19168201604052611e3791908101906140a3565b90506000856001600160a01b031663d83350087f0000000000000000000000000000000000000000000000000000000000000000846040518363ffffffff1660e01b8152600401611e89929190614161565b602060405180830381865afa158015611ea6573d6000803e3d6000fd5b505050506040513d601f19601f82011682018060405250810190611eca919061408a565b6001546040516370a0823160e01b81527f00000000000000000000000000000000000000000000000000000000000000006001600160a01b03166004820152919250600091839190600080516020614502833981519152906370a0823190602401602060405180830381865afa158015611f48573d6000803e3d6000fd5b505050506040513d601f19601f82011682018060405250810190611f6c919061408a565b611f769190614077565b611f809190614185565b60405163323808cd60e01b8152600481018490529091506000906001600160a01b0389169063323808cd90602401602060405180830381865afa158015611fcb573d6000803e3d6000fd5b505050506040513d601f19601f82011682018060405250810190611fef919061408a565b6002546040516370a0823160e01b81527f00000000000000000000000000000000000000000000000000000000000000006001600160a01b03166004820152919250600091839190600080516020614522833981519152906370a0823190602401602060405180830381865afa15801561206d573d6000803e3d6000fd5b505050506040513d601f19601f82011682018060405250810190612091919061408a565b61209b9190614077565b6120a59190614185565b905060007f00000000000000000000000000000000000000000000000000000000000000006001600160a01b03166348439e7e6040518163ffffffff1660e01b8152600401602060405180830381865afa158015612107573d6000803e3d6000fd5b505050506040513d601f19601f8201168201806040525081019061212b9190614044565b6040516334d21ea360e21b81526001600160a01b037f000000000000000000000000000000000000000000000000000000000000000081166004830152919091169063d3487a8c90602401602060405180830381865afa158015612193573d6000803e3d6000fd5b505050506040513d601f19601f820116820180604052508101906121b7919061408a565b6231b93b60e91b60005260066020527fe2ee452672e51ea6a0e1a769beff058add3428c3669348c1314b250e4abcf64454909150841115612230576231b93b60e91b60005260066020527fe2ee452672e51ea6a0e1a769beff058add3428c3669348c1314b250e4abcf6445461222d9085614077565b98505b620c6ecf60eb1b60005260066020527f3acadc8a217eebdcf686f20849b9575c123b0b8572285c75a94ddd9d4c51e5bb548211156122a657620c6ecf60eb1b60005260066020527f3acadc8a217eebdcf686f20849b9575c123b0b8572285c75a94ddd9d4c51e5bb546122a39083614077565b97505b62636e6360e81b60005260066020527f7af089d8bde560df8f6fed82c9d27c7cabc5c74f30c79b49f5655e8729cb5c4f5481111561231c5762636e6360e81b60005260066020527f7af089d8bde560df8f6fed82c9d27c7cabc5c74f30c79b49f5655e8729cb5c4f546123199082614077565b96505b5050505050509193909250565b60006123376012600a61427c565b6123418385614288565b61234b919061429f565b90505b92915050565b61235e8282612c5c565b6000848152600660205260408120805490919061237c908490614185565b9091555050600083815260066020526040812060010180548492906123a2908490614185565b9091555050505050565b600660205260007fe2ee452672e51ea6a0e1a769beff058add3428c3669348c1314b250e4abcf6448190557f3acadc8a217eebdcf686f20849b9575c123b0b8572285c75a94ddd9d4c51e5bb81905562636e6360e81b81527f7af089d8bde560df8f6fed82c9d27c7cabc5c74f30c79b49f5655e8729cb5c4f5561242e612c75565b6040516370a0823160e01b81526001600160a01b037f0000000000000000000000000000000000000000000000000000000000000000166004820152600090739ae380f0272e2162340a5bb646c354271c0f5cfc906370a0823190602401602060405180830381865afa1580156124a9573d6000803e3d6000fd5b505050506040513d601f19601f820116820180604052508101906124cd919061408a565b90506124d76131c6565b6040516370a0823160e01b81526001600160a01b037f00000000000000000000000000000000000000000000000000000000000000001660048201526000908290739ae380f0272e2162340a5bb646c354271c0f5cfc906370a0823190602401602060405180830381865afa158015612554573d6000803e3d6000fd5b505050506040513d601f19601f82011682018060405250810190612578919061408a565b6125829190614077565b905060007f00000000000000000000000000000000000000000000000000000000000000006001600160a01b03166348439e7e6040518163ffffffff1660e01b8152600401602060405180830381865afa1580156125e4573d6000803e3d6000fd5b505050506040513d601f19601f820116820180604052508101906126089190614044565b604051635598b20960e01b81526001600160a01b037f0000000000000000000000000000000000000000000000000000000000000000811660048301529190911690635598b20990602401602060405180830381865afa158015612670573d6000803e3d6000fd5b505050506040513d601f19601f82011682018060405250810190612694919061408a565b905080156126ee576126a68282612c5c565b62636e6360e81b600090815260066020527f7af089d8bde560df8f6fed82c9d27c7cabc5c74f30c79b49f5655e8729cb5c4e80549091906126e8908490614185565b90915550505b6040518281527ffc8ed0cd46874d9c3cf1425e1b3bbf9c523bc17c4a959c2c2f600e016f4eddef9060200160405180910390a1505050565b6040516001600160a01b038085166024830152831660448201526064810182905261275e9085906323b872dd60e01b90608401611cfc565b50505050565b600061234b836001600160a01b038416613218565b60606000611d4a83613267565b600080546001600160a01b038381166001600160a01b0319831681178455604051919092169283917f8be0079c531659141344cd1fd0a4f28419497f9722a3daafe3b4186f6b6457e09190a35050565b600061234b836001600160a01b0384166132c3565b60007f00000000000000000000000000000000000000000000000000000000000000006001600160a01b03166348439e7e6040518163ffffffff1660e01b8152600401602060405180830381865afa15801561284b573d6000803e3d6000fd5b505050506040513d601f19601f8201168201806040525081019061286f9190614044565b604051637d2041e560e11b81526001600160a01b037f0000000000000000000000000000000000000000000000000000000000000000811660048301528481166024830152919091169063fa4083ca90604401602060405180830381865afa1580156128df573d6000803e3d6000fd5b505050506040513d601f19601f82011682018060405250810190612903919061408a565b905061290d6105e9565b5061291f62636e6360e81b83836133b6565b6129306231b93b60e91b83836133b6565b611be7620c6ecf60eb1b83836133b6565b6000806000807f00000000000000000000000000000000000000000000000000000000000000006001600160a01b031663b050ecb86040518163ffffffff1660e01b8152600401602060405180830381865afa1580156129a5573d6000803e3d6000fd5b505050506040513d601f19601f820116820180604052508101906129c99190614044565b90506129d481611dab565b93509350935050909192565b600085815260066020526040812080548315612a3457600854612a2390612a096012600a61427c565b612a139190614077565b612a1d8988612c5c565b90612329565b612a2d9082614185565b9050612a4b565b612a3e8786612c5c565b612a489082614185565b90505b6001600160a01b0389166000908152600283016020526040902054612a7b90612a749083614077565b8790612329565b6001600160a01b038a166000908152600384016020526040902054612aa09190614185565b9998505050505050505050565b6000612b02826040518060400160405280602081526020017f5361666545524332303a206c6f772d6c6576656c2063616c6c206661696c6564815250856001600160a01b0316611d389092919063ffffffff16565b805190915015611d335780806020019051810190612b2091906142d1565b611d335760405162461bcd60e51b815260206004820152602a60248201527f5361666545524332303a204552433230206f7065726174696f6e20646964206e6044820152691bdd081cdd58d8d9595960b21b606482015260840161053b565b606082471015612be05760405162461bcd60e51b815260206004820152602660248201527f416464726573733a20696e73756666696369656e742062616c616e636520666f6044820152651c8818d85b1b60d21b606482015260840161053b565b600080866001600160a01b03168587604051612bfc9190614310565b60006040518083038185875af1925050503d8060008114612c39576040519150601f19603f3d011682016040523d82523d6000602084013e612c3e565b606091505b5091509150612c4f87838387613451565b925050505b949350505050565b600081612c6b6012600a61427c565b6123419085614288565b7f00000000000000000000000000000000000000000000000000000000000000006001600160a01b03166348439e7e6040518163ffffffff1660e01b8152600401602060405180830381865afa158015612cd3573d6000803e3d6000fd5b505050506040513d601f19601f82011682018060405250810190612cf79190614044565b60405163a0190c1760e01b81526001600160a01b037f000000000000000000000000000000000000000000000000000000000000000081166004830152919091169063a0190c1790602401600060405180830381600087803b158015612d5c57600080fd5b505af1158015612d70573d6000803e3d6000fd5b50506040516370a0823160e01b81526001600160a01b037f00000000000000000000000000000000000000000000000000000000000000001660048201526000925060008051602061452283398151915291506370a0823190602401602060405180830381865afa158015612de9573d6000803e3d6000fd5b505050506040513d601f19601f82011682018060405250810190612e0d919061408a565b6040516370a0823160e01b81526001600160a01b037f0000000000000000000000000000000000000000000000000000000000000000166004820152909150600090600080516020614502833981519152906370a0823190602401602060405180830381865afa158015612e85573d6000803e3d6000fd5b505050506040513d601f19601f82011682018060405250810190612ea9919061408a565b905060007f00000000000000000000000000000000000000000000000000000000000000006001600160a01b031663b050ecb86040518163ffffffff1660e01b8152600401602060405180830381865afa158015612f0b573d6000803e3d6000fd5b505050506040513d601f19601f82011682018060405250810190612f2f9190614044565b9050806001600160a01b031663bc810e267f00000000000000000000000000000000000000000000000000000000000000006001600160a01b0316636f934abe6040518163ffffffff1660e01b8152600401600060405180830381865afa158015612f9e573d6000803e3d6000fd5b505050506040513d6000823e601f3d908101601f19168201604052612fc691908101906140a3565b7f00000000000000000000000000000000000000000000000000000000000000006040518363ffffffff1660e01b815260040161300492919061432c565b600060405180830381600087803b15801561301e57600080fd5b505af1158015613032573d6000803e3d6000fd5b50506040516370a0823160e01b81526001600160a01b037f000000000000000000000000000000000000000000000000000000000000000016600482015260009250859150600080516020614522833981519152906370a0823190602401602060405180830381865afa1580156130ad573d6000803e3d6000fd5b505050506040513d601f19601f820116820180604052508101906130d1919061408a565b6130db9190614077565b6040516370a0823160e01b81526001600160a01b037f00000000000000000000000000000000000000000000000000000000000000001660048201529091506000908490600080516020614502833981519152906370a0823190602401602060405180830381865afa158015613155573d6000803e3d6000fd5b505050506040513d601f19601f82011682018060405250810190613179919061408a565b6131839190614077565b60408051828152602081018590529192507f141d6e75554381bcc1326596e8010e6c432bb0988e14ca0310d85837a211d292910160405180910390a15050505050565b60006131d260036134ca565b9050806000036131df5750565b60005b8181101561320f576131fd6131f86003836134d4565b6134e0565b8061320781614148565b9150506131e2565b506111e26138a6565b600081815260018301602052604081205461325f5750815460018181018455600084815260208082209093018490558454848252828601909352604090209190915561234e565b50600061234e565b6060816000018054806020026020016040519081016040528092919081815260200182805480156132b757602002820191906000526020600020905b8154815260200190600101908083116132a3575b50505050509050919050565b600081815260018301602052604081205480156133ac5760006132e7600183614077565b85549091506000906132fb90600190614077565b905081811461336057600086600001828154811061331b5761331b614132565b906000526020600020015490508087600001848154811061333e5761333e614132565b6000918252602080832090910192909255918252600188019052604090208390555b855486908061337157613371614356565b60019003818190600052602060002001600090559055856001016000868152602001908152602001600020600090556001935050505061234e565b600091505061234e565b60008381526006602090815260408083206001600160a01b03861684526002810190925282205481549192916133f6916133ef91614077565b8490612329565b6001600160a01b0385166000908152600384016020526040812080549293508392909190613425908490614185565b909155505081546001600160a01b03909416600090815260029092016020525060409020919091555050565b606083156134c05782516000036134b9576001600160a01b0385163b6134b95760405162461bcd60e51b815260206004820152601d60248201527f416464726573733a2063616c6c20746f206e6f6e2d636f6e7472616374000000604482015260640161053b565b5081612c54565b612c548383613a25565b600061234e825490565b600061234b8383613a4f565b6040516370a0823160e01b81523060048201526000906001600160a01b038316906370a0823190602401602060405180830381865afa158015613527573d6000803e3d6000fd5b505050506040513d601f19601f8201168201806040525081019061354b919061408a565b905080600003613559575050565b6001600160a01b03808316600090815260056020526040902054168015613766576000807f00000000000000000000000000000000000000000000000000000000000000006001600160a01b0316639f82b2176040518163ffffffff1660e01b8152600401602060405180830381865afa1580156135db573d6000803e3d6000fd5b505050506040513d601f19601f820116820180604052508101906135ff9190614044565b604051632feaac8560e11b81526001600160a01b038581166004830152878116602483015273c02aaa39b223fe8d0a0e5c4f27ead9083c756cc260448301529190911690635fd5590a90606401606060405180830381865afa158015613669573d6000803e3d6000fd5b505050506040513d601f19601f8201168201806040525081019061368d919061437e565b5090925090506fffffffffffffffffffffffffffffffff8083169082166001600160a01b03851663ce7d65038383896136db8c73c02aaa39b223fe8d0a0e5c4f27ead9083c756cc283613a79565b6040516001600160e01b031960e087901b1681526004810194909452602484019290925260448301526064820152600060848201523060a482015260c4016020604051808303816000875af1158015613738573d6000803e3d6000fd5b505050506040513d601f19601f8201168201806040525081019061375c919061408a565b5050505050505050565b604080516002808252606082018352600092602083019080368337019050509050838160008151811061379b5761379b614132565b60200260200101906001600160a01b031690816001600160a01b03168152505073c02aaa39b223fe8d0a0e5c4f27ead9083c756cc2816001815181106137e3576137e3614132565b6001600160a01b039092166020928302919091019091015273d9e1ce17f2641f24ae83637ab66a2cca9c378b9f6338ed1739846138358773c02aaa39b223fe8d0a0e5c4f27ead9083c756cc283613a79565b8430426040518663ffffffff1660e01b81526004016138589594939291906143c1565b6000604051808303816000875af1158015613877573d6000803e3d6000fd5b505050506040513d6000823e601f3d908101601f1916820160405261389f91908101906143fd565b5050505050565b6040516370a0823160e01b815230600482015260009073c02aaa39b223fe8d0a0e5c4f27ead9083c756cc2906370a0823190602401602060405180830381865afa1580156138f8573d6000803e3d6000fd5b505050506040513d601f19601f8201168201806040525081019061391c919061408a565b9050806000036139295750565b73838af967537350d2c44abb8c010e49e32673ab9463ce7d6503600060018461397b73c02aaa39b223fe8d0a0e5c4f27ead9083c756cc2739ae380f0272e2162340a5bb646c354271c0f5cfc83613a79565b6040516001600160e01b031960e087901b1681526004810194909452602484019290925260448301526064820152600060848201526001600160a01b037f00000000000000000000000000000000000000000000000000000000000000001660a482015260c4016020604051808303816000875af1158015613a01573d6000803e3d6000fd5b505050506040513d601f19601f82011682018060405250810190611be7919061408a565b815115613a355781518083602001fd5b8060405162461bcd60e51b815260040161053b9190614483565b6000826000018281548110613a6657613a66614132565b9060005260206000200154905092915050565b6000807f00000000000000000000000000000000000000000000000000000000000000006001600160a01b0316632630c12f6040518163ffffffff1660e01b8152600401602060405180830381865afa158015613ada573d6000803e3d6000fd5b505050506040513d601f19601f82011682018060405250810190613afe9190614044565b9050836001600160a01b0316856001600160a01b031603613b225782915050611d4a565b6040516375151b6360e01b81526001600160a01b0386811660048301528216906375151b6390602401602060405180830381865afa158015613b68573d6000803e3d6000fd5b505050506040513d601f19601f82011682018060405250810190613b8c91906142d1565b1580613bff57506040516375151b6360e01b81526001600160a01b0385811660048301528216906375151b6390602401602060405180830381865afa158015613bd9573d6000803e3d6000fd5b505050506040513d601f19601f82011682018060405250810190613bfd91906142d1565b155b15613c0e576000915050611d4a565b613dd3670d2f13f7789f0000612a1d876001600160a01b031663313ce5676040518163ffffffff1660e01b8152600401602060405180830381865afa158015613c5b573d6000803e3d6000fd5b505050506040513d601f19601f82011682018060405250810190613c7f91906144b6565b876001600160a01b031663313ce5676040518163ffffffff1660e01b8152600401602060405180830381865afa158015613cbd573d6000803e3d6000fd5b505050506040513d601f19601f82011682018060405250810190613ce191906144b6565b604051638b2f0f4f60e01b81526001600160a01b038a81166004830152613dcc9190881690638b2f0f4f90602401602060405180830381865afa158015613d2c573d6000803e3d6000fd5b505050506040513d601f19601f82011682018060405250810190613d50919061408a565b604051638b2f0f4f60e01b81526001600160a01b038d81166004830152613dc691908a1690638b2f0f4f90602401602060405180830381865afa158015613d9b573d6000803e3d6000fd5b505050506040513d601f19601f82011682018060405250810190613dbf919061408a565b8b90612329565b90612c5c565b9190613ddc565b95945050505050565b60008160ff168360ff1603613df2575082611d4a565b8160ff168360ff161115613e1257613e0b848484613e1d565b9050611d4a565b611d47848484613e3e565b6000613e2982846144d9565b613e3490600a6144f2565b611d47908561429f565b6000613e4a83836144d9565b613e5590600a6144f2565b611d479085614288565b6001600160a01b03811681146111e257600080fd5b60008060408385031215613e8757600080fd5b8235613e9281613e5f565b91506020830135613ea281613e5f565b809150509250929050565b600060208284031215613ebf57600080fd5b8135611d4a81613e5f565b600081518084526020808501945080840160005b83811015613f035781516001600160a01b031687529582019590820190600101613ede565b509495945050505050565b60208152600061234b6020830184613eca565b600060208284031215613f3357600080fd5b5035919050565b634e487b7160e01b600052604160045260246000fd5b604051601f8201601f1916810167ffffffffffffffff81118282101715613f7957613f79613f3a565b604052919050565b600067ffffffffffffffff821115613f9b57613f9b613f3a565b5060051b60200190565b60006020808385031215613fb857600080fd5b823567ffffffffffffffff811115613fcf57600080fd5b8301601f81018513613fe057600080fd5b8035613ff3613fee82613f81565b613f50565b81815260059190911b8201830190838101908783111561401257600080fd5b928401925b8284101561403957833561402a81613e5f565b82529284019290840190614017565b979650505050505050565b60006020828403121561405657600080fd5b8151611d4a81613e5f565b634e487b7160e01b600052601160045260246000fd5b8181038181111561234e5761234e614061565b60006020828403121561409c57600080fd5b5051919050565b600060208083850312156140b657600080fd5b825167ffffffffffffffff8111156140cd57600080fd5b8301601f810185136140de57600080fd5b80516140ec613fee82613f81565b81815260059190911b8201830190838101908783111561410b57600080fd5b928401925b8284101561403957835161412381613e5f565b82529284019290840190614110565b634e487b7160e01b600052603260045260246000fd5b60006001820161415a5761415a614061565b5060010190565b6001600160a01b0383168152604060208201819052600090611d4790830184613eca565b8082018082111561234e5761234e614061565b600181815b808511156141d35781600019048211156141b9576141b9614061565b808516156141c657918102915b93841c939080029061419d565b509250929050565b6000826141ea5750600161234e565b816141f75750600061234e565b816001811461420d576002811461421757614233565b600191505061234e565b60ff84111561422857614228614061565b50506001821b61234e565b5060208310610133831016604e8410600b8410161715614256575081810a61234e565b6142608383614198565b806000190482111561427457614274614061565b029392505050565b600061234b83836141db565b808202811582820484141761234e5761234e614061565b6000826142bc57634e487b7160e01b600052601260045260246000fd5b500490565b8051801515811461101757600080fd5b6000602082840312156142e357600080fd5b61234b826142c1565b60005b838110156143075781810151838201526020016142ef565b50506000910152565b600082516143228184602087016142ec565b9190910192915050565b60408152600061433f6040830185613eca565b905060018060a01b03831660208301529392505050565b634e487b7160e01b600052603160045260246000fd5b8051600f81900b811461101757600080fd5b60008060006060848603121561439357600080fd5b61439c8461436c565b92506143aa6020850161436c565b91506143b8604085016142c1565b90509250925092565b85815284602082015260a0604082015260006143e060a0830186613eca565b6001600160a01b0394909416606083015250608001529392505050565b6000602080838503121561441057600080fd5b825167ffffffffffffffff81111561442757600080fd5b8301601f8101851361443857600080fd5b8051614446613fee82613f81565b81815260059190911b8201830190838101908783111561446557600080fd5b928401925b828410156140395783518252928401929084019061446a565b60208152600082518060208401526144a28160408501602087016142ec565b601f01601f19169190910160400192915050565b6000602082840312156144c857600080fd5b815160ff81168114611d4a57600080fd5b60ff828116828216039081111561234e5761234e614061565b600061234b60ff8416836141db56fe000000000000000000000000d533a949740bb3306d119cc777fa900ba034cd520000000000000000000000004e3fbd56cd56c3e72c1403e103b45db9da5b9d2ba26469706673582212209c58b0e988973ff16c4b788082d8047edc334f91ee4807ea76db6c2c342dece064736f6c63430008110033","bytecodeSha1":"12cf63386a1e87e1d3d535d4bb5046d278a50d62","compiler":{"evm_version":"istanbul","optimizer":{"enabled":true,"runs":200},"version":"0.8.17+commit.8df45f5f"},"contractName":"RewardManager","language":"Solidity","natspec":{"kind":"dev","methods":{"claimEarnings()":{"details":"Conic pool LP tokens need to be staked in the `LpTokenStaker` in order to receive a share of the CRV, CVX and CNC earnings. after selling all extra reward tokens.","notice":"Claims all CRV, CVX and CNC earned by a user. All extra reward tokens earned will be sold for CNC."},"claimPoolEarningsAndSellRewardTokens()":{"notice":"Claims all claimable CVX and CRV from Convex for all staked Curve LP tokens. Then Swaps all additional rewards tokens for CNC."},"owner()":{"details":"Returns the address of the current owner."},"poolCheckpoint()":{"notice":"Updates the internal fee accounting state. Returns `true` if rewards were claimed"},"renounceOwnership()":{"details":"Leaves the contract without owner. It will not be possible to call `onlyOwner` functions anymore. Can only be called by the current owner. NOTE: Renouncing ownership will leave the contract without an owner, thereby removing any functionality that is only available to the owner."},"transferOwnership(address)":{"details":"Transfers ownership of the contract to a new account (`newOwner`). Can only be called by the current owner."}},"version":1},"opcodes":"PUSH1 0x80 PUSH1 0x40 MSTORE CALLVALUE DUP1 ISZERO PUSH2 0x10 JUMPI PUSH1 0x0 DUP1 REVERT JUMPDEST POP PUSH1 0x4 CALLDATASIZE LT PUSH2 0x1DA JUMPI PUSH1 0x0 CALLDATALOAD PUSH1 0xE0 SHR DUP1 PUSH4 0xA001ECDD GT PUSH2 0x104 JUMPI DUP1 PUSH4 0xD9CEAB13 GT PUSH2 0xA2 JUMPI DUP1 PUSH4 0xE8465009 GT PUSH2 0x71 JUMPI DUP1 PUSH4 0xE8465009 EQ PUSH2 0x46F JUMPI DUP1 PUSH4 0xF2FDE38B EQ PUSH2 0x47E JUMPI DUP1 PUSH4 0xF77C4791 EQ PUSH2 0x491 JUMPI DUP1 PUSH4 0xFE09D54D EQ PUSH2 0x4B8 JUMPI PUSH1 0x0 DUP1 REVERT JUMPDEST DUP1 PUSH4 0xD9CEAB13 EQ PUSH2 0x408 JUMPI DUP1 PUSH4 0xD9E65CED EQ PUSH2 0x42B JUMPI DUP1 PUSH4 0xDC01F60D EQ PUSH2 0x454 JUMPI DUP1 PUSH4 0xE7706183 EQ PUSH2 0x467 JUMPI PUSH1 0x0 DUP1 REVERT JUMPDEST DUP1 PUSH4 0xAD5C4648 GT PUSH2 0xDE JUMPI DUP1 PUSH4 0xAD5C4648 EQ PUSH2 0x3A0 JUMPI DUP1 PUSH4 0xAE06C1B7 EQ PUSH2 0x3BB JUMPI DUP1 PUSH4 0xBF928F8B EQ PUSH2 0x3CE JUMPI DUP1 PUSH4 0xD7B96D4E EQ PUSH2 0x3E1 JUMPI PUSH1 0x0 DUP1 REVERT JUMPDEST DUP1 PUSH4 0xA001ECDD EQ PUSH2 0x377 JUMPI DUP1 PUSH4 0xA64E4F8A EQ PUSH2 0x380 JUMPI DUP1 PUSH4 0xA80FF90A EQ PUSH2 0x38D JUMPI PUSH1 0x0 DUP1 REVERT JUMPDEST DUP1 PUSH4 0x632473DA GT PUSH2 0x17C JUMPI DUP1 PUSH4 0x759CB53B GT PUSH2 0x14B JUMPI DUP1 PUSH4 0x759CB53B EQ PUSH2 0x321 JUMPI DUP1 PUSH4 0x8DA5CB5B EQ PUSH2 0x336 JUMPI DUP1 PUSH4 0x945C9142 EQ PUSH2 0x347 JUMPI DUP1 PUSH4 0x9C708AAB EQ PUSH2 0x35C JUMPI PUSH1 0x0 DUP1 REVERT JUMPDEST DUP1 PUSH4 0x632473DA EQ PUSH2 0x2C2 JUMPI DUP1 PUSH4 0x6DC47E1E EQ PUSH2 0x2DD JUMPI DUP1 PUSH4 0x6F307DC3 EQ PUSH2 0x2F2 JUMPI DUP1 PUSH4 0x715018A6 EQ PUSH2 0x319 JUMPI PUSH1 0x0 DUP1 REVERT JUMPDEST DUP1 PUSH4 0x558E44D3 GT PUSH2 0x1B8 JUMPI DUP1 PUSH4 0x558E44D3 EQ PUSH2 0x253 JUMPI DUP1 PUSH4 0x5790A0C8 EQ PUSH2 0x270 JUMPI DUP1 PUSH4 0x5E43C47B EQ PUSH2 0x288 JUMPI DUP1 PUSH4 0x5FCBD285 EQ PUSH2 0x29B JUMPI PUSH1 0x0 DUP1 REVERT JUMPDEST DUP1 PUSH4 0x3950FB5 EQ PUSH2 0x1DF JUMPI DUP1 PUSH4 0x16F0115B EQ PUSH2 0x1F4 JUMPI DUP1 PUSH4 0x49556709 EQ PUSH2 0x238 JUMPI JUMPDEST PUSH1 0x0 DUP1 REVERT JUMPDEST PUSH2 0x1F2 PUSH2 0x1ED CALLDATASIZE PUSH1 0x4 PUSH2 0x3E74 JUMP JUMPDEST PUSH2 0x4CB JUMP JUMPDEST STOP JUMPDEST PUSH2 0x21B PUSH32 0x0 DUP2 JUMP JUMPDEST PUSH1 0x40 MLOAD PUSH1 0x1 PUSH1 0x1 PUSH1 0xA0 SHL SUB SWAP1 SWAP2 AND DUP2 MSTORE PUSH1 0x20 ADD JUMPDEST PUSH1 0x40 MLOAD DUP1 SWAP2 SUB SWAP1 RETURN JUMPDEST PUSH2 0x21B PUSH20 0x838AF967537350D2C44ABB8C010E49E32673AB94 DUP2 JUMP JUMPDEST PUSH2 0x262 PUSH8 0x429D069189E0000 DUP2 JUMP JUMPDEST PUSH1 0x40 MLOAD SWAP1 DUP2 MSTORE PUSH1 0x20 ADD PUSH2 0x22F JUMP JUMPDEST PUSH2 0x278 PUSH2 0x5E9 JUMP JUMPDEST PUSH1 0x40 MLOAD SWAP1 ISZERO ISZERO DUP2 MSTORE PUSH1 0x20 ADD PUSH2 0x22F JUMP JUMPDEST PUSH2 0x278 PUSH2 0x296 CALLDATASIZE PUSH1 0x4 PUSH2 0x3EAD JUMP JUMPDEST PUSH2 0xC29 JUMP JUMPDEST PUSH2 0x21B PUSH32 0x0 DUP2 JUMP JUMPDEST PUSH2 0x21B PUSH20 0x9AE380F0272E2162340A5BB646C354271C0F5CFC DUP2 JUMP JUMPDEST PUSH2 0x2E5 PUSH2 0x101C JUMP JUMPDEST PUSH1 0x40 MLOAD PUSH2 0x22F SWAP2 SWAP1 PUSH2 0x3F0E JUMP JUMPDEST PUSH2 0x21B PUSH32 0x0 DUP2 JUMP JUMPDEST PUSH2 0x1F2 PUSH2 0x102D JUMP JUMPDEST PUSH2 0x21B PUSH1 0x0 DUP1 MLOAD PUSH1 0x20 PUSH2 0x4522 DUP4 CODECOPY DUP2 MLOAD SWAP2 MSTORE DUP2 JUMP JUMPDEST PUSH1 0x0 SLOAD PUSH1 0x1 PUSH1 0x1 PUSH1 0xA0 SHL SUB AND PUSH2 0x21B JUMP JUMPDEST PUSH2 0x21B PUSH1 0x0 DUP1 MLOAD PUSH1 0x20 PUSH2 0x4502 DUP4 CODECOPY DUP2 MLOAD SWAP2 MSTORE DUP2 JUMP JUMPDEST PUSH2 0x21B PUSH20 0xD9E1CE17F2641F24AE83637AB66A2CCA9C378B9F DUP2 JUMP JUMPDEST PUSH2 0x262 PUSH1 0x8 SLOAD DUP2 JUMP JUMPDEST PUSH1 0x7 SLOAD PUSH2 0x278 SWAP1 PUSH1 0xFF AND DUP2 JUMP JUMPDEST PUSH2 0x1F2 PUSH2 0x39B CALLDATASIZE PUSH1 0x4 PUSH2 0x3EAD JUMP JUMPDEST PUSH2 0x1041 JUMP JUMPDEST PUSH2 0x21B PUSH20 0xC02AAA39B223FE8D0A0E5C4F27EAD9083C756CC2 DUP2 JUMP JUMPDEST PUSH2 0x1F2 PUSH2 0x3C9 CALLDATASIZE PUSH1 0x4 PUSH2 0x3F21 JUMP JUMPDEST PUSH2 0x1095 JUMP JUMPDEST PUSH2 0x1F2 PUSH2 0x3DC CALLDATASIZE PUSH1 0x4 PUSH2 0x3EAD JUMP JUMPDEST PUSH2 0x11D9 JUMP JUMPDEST PUSH2 0x21B PUSH32 0x0 DUP2 JUMP JUMPDEST PUSH2 0x410 PUSH2 0x11E5 JUMP JUMPDEST PUSH1 0x40 DUP1 MLOAD SWAP4 DUP5 MSTORE PUSH1 0x20 DUP5 ADD SWAP3 SWAP1 SWAP3 MSTORE SWAP1 DUP3 ADD MSTORE PUSH1 0x60 ADD PUSH2 0x22F JUMP JUMPDEST PUSH2 0x21B PUSH2 0x439 CALLDATASIZE PUSH1 0x4 PUSH2 0x3EAD JUMP JUMPDEST PUSH1 0x5 PUSH1 0x20 MSTORE PUSH1 0x0 SWAP1 DUP2 MSTORE PUSH1 0x40 SWAP1 KECCAK256 SLOAD PUSH1 0x1 PUSH1 0x1 PUSH1 0xA0 SHL SUB AND DUP2 JUMP JUMPDEST PUSH2 0x410 PUSH2 0x462 CALLDATASIZE PUSH1 0x4 PUSH2 0x3EAD JUMP JUMPDEST PUSH2 0x1716 JUMP JUMPDEST PUSH2 0x1F2 PUSH2 0x19E0 JUMP JUMPDEST PUSH2 0x262 PUSH8 0xD2F13F7789F0000 DUP2 JUMP JUMPDEST PUSH2 0x1F2 PUSH2 0x48C CALLDATASIZE PUSH1 0x4 PUSH2 0x3EAD JUMP JUMPDEST PUSH2 0x1B28 JUMP JUMPDEST PUSH2 0x21B PUSH32 0x0 DUP2 JUMP JUMPDEST PUSH2 0x1F2 PUSH2 0x4C6 CALLDATASIZE PUSH1 0x4 PUSH2 0x3FA5 JUMP JUMPDEST PUSH2 0x1B9E JUMP JUMPDEST PUSH2 0x4D3 PUSH2 0x1D51 JUMP JUMPDEST PUSH1 0x1 PUSH1 0x1 PUSH1 0xA0 SHL SUB DUP1 DUP4 AND PUSH1 0x0 SWAP1 DUP2 MSTORE PUSH1 0x5 PUSH1 0x20 MSTORE PUSH1 0x40 SWAP1 KECCAK256 SLOAD DUP2 AND SWAP1 DUP3 AND SUB PUSH2 0x544 JUMPI PUSH1 0x40 MLOAD PUSH3 0x461BCD PUSH1 0xE5 SHL DUP2 MSTORE PUSH1 0x20 PUSH1 0x4 DUP3 ADD MSTORE PUSH1 0x1C PUSH1 0x24 DUP3 ADD MSTORE PUSH32 0x6D75737420626520646966666572656E7420746F2063757272656E7400000000 PUSH1 0x44 DUP3 ADD MSTORE PUSH1 0x64 ADD JUMPDEST PUSH1 0x40 MLOAD DUP1 SWAP2 SUB SWAP1 REVERT JUMPDEST PUSH1 0x1 PUSH1 0x1 PUSH1 0xA0 SHL SUB DUP2 AND ISZERO PUSH2 0x57E JUMPI PUSH2 0x568 PUSH1 0x1 PUSH1 0x1 PUSH1 0xA0 SHL SUB DUP4 AND DUP3 PUSH1 0x0 PUSH2 0x1BEB JUMP JUMPDEST PUSH2 0x57E PUSH1 0x1 PUSH1 0x1 PUSH1 0xA0 SHL SUB DUP4 AND DUP3 PUSH1 0x0 NOT PUSH2 0x1BEB JUMP JUMPDEST PUSH1 0x1 PUSH1 0x1 PUSH1 0xA0 SHL SUB DUP3 DUP2 AND PUSH1 0x0 DUP2 DUP2 MSTORE PUSH1 0x5 PUSH1 0x20 SWAP1 DUP2 MSTORE PUSH1 0x40 SWAP2 DUP3 SWAP1 KECCAK256 DUP1 SLOAD PUSH1 0x1 PUSH1 0x1 PUSH1 0xA0 SHL SUB NOT AND SWAP5 DUP7 AND SWAP5 DUP6 OR SWAP1 SSTORE DUP2 MLOAD SWAP3 DUP4 MSTORE DUP3 ADD SWAP3 SWAP1 SWAP3 MSTORE PUSH32 0x8C529C22BABAD500CEA1516422F2BF23F6E1E7FAB884B816062D20A9A0F78FEF SWAP2 ADD PUSH1 0x40 MLOAD DUP1 SWAP2 SUB SWAP1 LOG1 POP POP JUMP JUMPDEST PUSH1 0x0 DUP1 PUSH32 0x0 PUSH1 0x1 PUSH1 0x1 PUSH1 0xA0 SHL SUB AND PUSH4 0xB050ECB8 PUSH1 0x40 MLOAD DUP2 PUSH4 0xFFFFFFFF AND PUSH1 0xE0 SHL DUP2 MSTORE PUSH1 0x4 ADD PUSH1 0x20 PUSH1 0x40 MLOAD DUP1 DUP4 SUB DUP2 DUP7 GAS STATICCALL ISZERO DUP1 ISZERO PUSH2 0x64A JUMPI RETURNDATASIZE PUSH1 0x0 DUP1 RETURNDATACOPY RETURNDATASIZE PUSH1 0x0 REVERT JUMPDEST POP POP POP POP PUSH1 0x40 MLOAD RETURNDATASIZE PUSH1 0x1F NOT PUSH1 0x1F DUP3 ADD AND DUP3 ADD DUP1 PUSH1 0x40 MSTORE POP DUP2 ADD SWAP1 PUSH2 0x66E SWAP2 SWAP1 PUSH2 0x4044 JUMP JUMPDEST SWAP1 POP PUSH1 0x0 DUP1 PUSH1 0x0 PUSH2 0x67E DUP5 PUSH2 0x1DAB JUMP JUMPDEST PUSH1 0x7 SLOAD SWAP3 SWAP6 POP SWAP1 SWAP4 POP SWAP2 POP PUSH1 0x0 SWAP1 DUP2 SWAP1 PUSH1 0xFF AND ISZERO PUSH2 0x6D6 JUMPI PUSH1 0x8 SLOAD PUSH2 0x6A4 SWAP1 DUP7 SWAP1 PUSH2 0x2329 JUMP JUMPDEST SWAP2 POP PUSH2 0x6BB PUSH1 0x8 SLOAD DUP6 PUSH2 0x2329 SWAP1 SWAP2 SWAP1 PUSH4 0xFFFFFFFF AND JUMP JUMPDEST SWAP1 POP PUSH2 0x6C7 DUP3 DUP7 PUSH2 0x4077 JUMP JUMPDEST SWAP5 POP PUSH2 0x6D3 DUP2 DUP6 PUSH2 0x4077 JUMP JUMPDEST SWAP4 POP JUMPDEST PUSH1 0x0 PUSH32 0x0 PUSH1 0x1 PUSH1 0x1 PUSH1 0xA0 SHL SUB AND PUSH4 0x48439E7E PUSH1 0x40 MLOAD DUP2 PUSH4 0xFFFFFFFF AND PUSH1 0xE0 SHL DUP2 MSTORE PUSH1 0x4 ADD PUSH1 0x20 PUSH1 0x40 MLOAD DUP1 DUP4 SUB DUP2 DUP7 GAS STATICCALL ISZERO DUP1 ISZERO PUSH2 0x736 JUMPI RETURNDATASIZE PUSH1 0x0 DUP1 RETURNDATACOPY RETURNDATASIZE PUSH1 0x0 REVERT JUMPDEST POP POP POP POP PUSH1 0x40 MLOAD RETURNDATASIZE PUSH1 0x1F NOT PUSH1 0x1F DUP3 ADD AND DUP3 ADD DUP1 PUSH1 0x40 MSTORE POP DUP2 ADD SWAP1 PUSH2 0x75A SWAP2 SWAP1 PUSH2 0x4044 JUMP JUMPDEST PUSH1 0x40 MLOAD PUSH4 0x5598B209 PUSH1 0xE0 SHL DUP2 MSTORE PUSH1 0x1 PUSH1 0x1 PUSH1 0xA0 SHL SUB PUSH32 0x0 DUP2 AND PUSH1 0x4 DUP4 ADD MSTORE SWAP2 SWAP1 SWAP2 AND SWAP1 PUSH4 0x5598B209 SWAP1 PUSH1 0x24 ADD PUSH1 0x20 PUSH1 0x40 MLOAD DUP1 DUP4 SUB DUP2 DUP7 GAS STATICCALL ISZERO DUP1 ISZERO PUSH2 0x7C2 JUMPI RETURNDATASIZE PUSH1 0x0 DUP1 RETURNDATACOPY RETURNDATASIZE PUSH1 0x0 REVERT JUMPDEST POP POP POP POP PUSH1 0x40 MLOAD RETURNDATASIZE PUSH1 0x1F NOT PUSH1 0x1F DUP3 ADD AND DUP3 ADD DUP1 PUSH1 0x40 MSTORE POP DUP2 ADD SWAP1 PUSH2 0x7E6 SWAP2 SWAP1 PUSH2 0x408A JUMP JUMPDEST SWAP1 POP DUP1 ISZERO PUSH2 0x821 JUMPI PUSH2 0x7FF PUSH3 0xC6ECF PUSH1 0xEB SHL DUP7 DUP4 PUSH2 0x2354 JUMP JUMPDEST PUSH2 0x810 PUSH3 0x31B93B PUSH1 0xE9 SHL DUP8 DUP4 PUSH2 0x2354 JUMP JUMPDEST PUSH2 0x821 PUSH3 0x636E63 PUSH1 0xE8 SHL DUP6 DUP4 PUSH2 0x2354 JUMP JUMPDEST PUSH1 0x7 SLOAD PUSH1 0xFF AND PUSH2 0x839 JUMPI PUSH1 0x0 SWAP8 POP POP POP POP POP POP POP POP SWAP1 JUMP JUMPDEST PUSH1 0x40 MLOAD PUSH4 0x70A08231 PUSH1 0xE0 SHL DUP2 MSTORE PUSH1 0x1 PUSH1 0x1 PUSH1 0xA0 SHL SUB PUSH32 0x0 AND PUSH1 0x4 DUP3 ADD MSTORE PUSH1 0x0 SWAP1 PUSH1 0x0 DUP1 MLOAD PUSH1 0x20 PUSH2 0x4502 DUP4 CODECOPY DUP2 MLOAD SWAP2 MSTORE SWAP1 PUSH4 0x70A08231 SWAP1 PUSH1 0x24 ADD PUSH1 0x20 PUSH1 0x40 MLOAD DUP1 DUP4 SUB DUP2 DUP7 GAS STATICCALL ISZERO DUP1 ISZERO PUSH2 0x8AE JUMPI RETURNDATASIZE PUSH1 0x0 DUP1 RETURNDATACOPY RETURNDATASIZE PUSH1 0x0 REVERT JUMPDEST POP POP POP POP PUSH1 0x40 MLOAD RETURNDATASIZE PUSH1 0x1F NOT PUSH1 0x1F DUP3 ADD AND DUP3 ADD DUP1 PUSH1 0x40 MSTORE POP DUP2 ADD SWAP1 PUSH2 0x8D2 SWAP2 SWAP1 PUSH2 0x408A JUMP JUMPDEST DUP5 GT DUP1 PUSH2 0x973 JUMPI POP PUSH1 0x40 MLOAD PUSH4 0x70A08231 PUSH1 0xE0 SHL DUP2 MSTORE PUSH1 0x1 PUSH1 0x1 PUSH1 0xA0 SHL SUB PUSH32 0x0 AND PUSH1 0x4 DUP3 ADD MSTORE PUSH1 0x0 DUP1 MLOAD PUSH1 0x20 PUSH2 0x4522 DUP4 CODECOPY DUP2 MLOAD SWAP2 MSTORE SWAP1 PUSH4 0x70A08231 SWAP1 PUSH1 0x24 ADD PUSH1 0x20 PUSH1 0x40 MLOAD DUP1 DUP4 SUB DUP2 DUP7 GAS STATICCALL ISZERO DUP1 ISZERO PUSH2 0x94C JUMPI RETURNDATASIZE PUSH1 0x0 DUP1 RETURNDATACOPY RETURNDATASIZE PUSH1 0x0 REVERT JUMPDEST POP POP POP POP PUSH1 0x40 MLOAD RETURNDATASIZE PUSH1 0x1F NOT PUSH1 0x1F DUP3 ADD AND DUP3 ADD DUP1 PUSH1 0x40 MSTORE POP DUP2 ADD SWAP1 PUSH2 0x970 SWAP2 SWAP1 PUSH2 0x408A JUMP JUMPDEST DUP4 GT JUMPDEST ISZERO PUSH2 0x984 JUMPI PUSH2 0x980 PUSH2 0x23AC JUMP JUMPDEST POP PUSH1 0x1 JUMPDEST PUSH2 0x9BE PUSH1 0x0 DUP1 MLOAD PUSH1 0x20 PUSH2 0x4502 DUP4 CODECOPY DUP2 MLOAD SWAP2 MSTORE PUSH32 0x0 ADDRESS DUP8 PUSH2 0x2726 JUMP JUMPDEST PUSH2 0x9F8 PUSH1 0x0 DUP1 MLOAD PUSH1 0x20 PUSH2 0x4522 DUP4 CODECOPY DUP2 MLOAD SWAP2 MSTORE PUSH32 0x0 ADDRESS DUP7 PUSH2 0x2726 JUMP JUMPDEST PUSH2 0xA31 PUSH1 0x0 DUP1 MLOAD PUSH1 0x20 PUSH2 0x4502 DUP4 CODECOPY DUP2 MLOAD SWAP2 MSTORE PUSH32 0x0 DUP7 PUSH2 0x1BEB JUMP JUMPDEST PUSH2 0xA6A PUSH1 0x0 DUP1 MLOAD PUSH1 0x20 PUSH2 0x4522 DUP4 CODECOPY DUP2 MLOAD SWAP2 MSTORE PUSH32 0x0 DUP6 PUSH2 0x1BEB JUMP JUMPDEST PUSH1 0x40 MLOAD PUSH4 0x9E690EB PUSH1 0xE3 SHL DUP2 MSTORE PUSH1 0x4 DUP2 ADD DUP6 SWAP1 MSTORE PUSH1 0x24 DUP2 ADD DUP5 SWAP1 MSTORE PUSH32 0x0 PUSH1 0x1 PUSH1 0x1 PUSH1 0xA0 SHL SUB AND SWAP1 PUSH4 0x4F348758 SWAP1 PUSH1 0x44 ADD PUSH1 0x0 PUSH1 0x40 MLOAD DUP1 DUP4 SUB DUP2 PUSH1 0x0 DUP8 DUP1 EXTCODESIZE ISZERO DUP1 ISZERO PUSH2 0xAD3 JUMPI PUSH1 0x0 DUP1 REVERT JUMPDEST POP GAS CALL ISZERO DUP1 ISZERO PUSH2 0xAE7 JUMPI RETURNDATASIZE PUSH1 0x0 DUP1 RETURNDATACOPY RETURNDATASIZE PUSH1 0x0 REVERT JUMPDEST POP POP PUSH1 0x40 MLOAD PUSH4 0x70A08231 PUSH1 0xE0 SHL DUP2 MSTORE PUSH1 0x1 PUSH1 0x1 PUSH1 0xA0 SHL SUB PUSH32 0x0 AND PUSH1 0x4 DUP3 ADD MSTORE PUSH1 0x0 DUP1 MLOAD PUSH1 0x20 PUSH2 0x4502 DUP4 CODECOPY DUP2 MLOAD SWAP2 MSTORE SWAP3 POP PUSH4 0x70A08231 SWAP2 POP PUSH1 0x24 ADD PUSH1 0x20 PUSH1 0x40 MLOAD DUP1 DUP4 SUB DUP2 DUP7 GAS STATICCALL ISZERO DUP1 ISZERO PUSH2 0xB5D JUMPI RETURNDATASIZE PUSH1 0x0 DUP1 RETURNDATACOPY RETURNDATASIZE PUSH1 0x0 REVERT JUMPDEST POP POP POP POP PUSH1 0x40 MLOAD RETURNDATASIZE PUSH1 0x1F NOT PUSH1 0x1F DUP3 ADD AND DUP3 ADD DUP1 PUSH1 0x40 MSTORE POP DUP2 ADD SWAP1 PUSH2 0xB81 SWAP2 SWAP1 PUSH2 0x408A JUMP JUMPDEST PUSH1 0x1 SSTORE PUSH1 0x40 MLOAD PUSH4 0x70A08231 PUSH1 0xE0 SHL DUP2 MSTORE PUSH1 0x1 PUSH1 0x1 PUSH1 0xA0 SHL SUB PUSH32 0x0 AND PUSH1 0x4 DUP3 ADD MSTORE PUSH1 0x0 DUP1 MLOAD PUSH1 0x20 PUSH2 0x4522 DUP4 CODECOPY DUP2 MLOAD SWAP2 MSTORE SWAP1 PUSH4 0x70A08231 SWAP1 PUSH1 0x24 ADD PUSH1 0x20 PUSH1 0x40 MLOAD DUP1 DUP4 SUB DUP2 DUP7 GAS STATICCALL ISZERO DUP1 ISZERO PUSH2 0xBF6 JUMPI RETURNDATASIZE PUSH1 0x0 DUP1 RETURNDATACOPY RETURNDATASIZE PUSH1 0x0 REVERT JUMPDEST POP POP POP POP PUSH1 0x40 MLOAD RETURNDATASIZE PUSH1 0x1F NOT PUSH1 0x1F DUP3 ADD AND DUP3 ADD DUP1 PUSH1 0x40 MSTORE POP DUP2 ADD SWAP1 PUSH2 0xC1A SWAP2 SWAP1 PUSH2 0x408A JUMP JUMPDEST PUSH1 0x2 SSTORE SWAP9 SWAP8 POP POP POP POP POP POP POP POP JUMP JUMPDEST PUSH1 0x0 PUSH2 0xC33 PUSH2 0x1D51 JUMP JUMPDEST PUSH1 0x1 PUSH1 0x1 PUSH1 0xA0 SHL SUB DUP3 AND PUSH2 0xC7B JUMPI PUSH1 0x40 MLOAD PUSH3 0x461BCD PUSH1 0xE5 SHL DUP2 MSTORE PUSH1 0x20 PUSH1 0x4 DUP3 ADD MSTORE PUSH1 0xF PUSH1 0x24 DUP3 ADD MSTORE PUSH15 0x696E76616C69642061646472657373 PUSH1 0x88 SHL PUSH1 0x44 DUP3 ADD MSTORE PUSH1 0x64 ADD PUSH2 0x53B JUMP JUMPDEST PUSH1 0x1 PUSH1 0x1 PUSH1 0xA0 SHL SUB DUP3 AND PUSH1 0x0 DUP1 MLOAD PUSH1 0x20 PUSH2 0x4522 DUP4 CODECOPY DUP2 MLOAD SWAP2 MSTORE EQ DUP1 ISZERO SWAP1 PUSH2 0xCB9 JUMPI POP PUSH1 0x1 PUSH1 0x1 PUSH1 0xA0 SHL SUB DUP3 AND PUSH1 0x0 DUP1 MLOAD PUSH1 0x20 PUSH2 0x4502 DUP4 CODECOPY DUP2 MLOAD SWAP2 MSTORE EQ ISZERO JUMPDEST DUP1 ISZERO PUSH2 0xCF7 JUMPI POP PUSH32 0x0 PUSH1 0x1 PUSH1 0x1 PUSH1 0xA0 SHL SUB AND DUP3 PUSH1 0x1 PUSH1 0x1 PUSH1 0xA0 SHL SUB AND EQ ISZERO JUMPDEST DUP1 ISZERO PUSH2 0xD20 JUMPI POP PUSH1 0x1 PUSH1 0x1 PUSH1 0xA0 SHL SUB DUP3 AND PUSH20 0x9AE380F0272E2162340A5BB646C354271C0F5CFC EQ ISZERO JUMPDEST PUSH2 0xD60 JUMPI PUSH1 0x40 MLOAD PUSH3 0x461BCD PUSH1 0xE5 SHL DUP2 MSTORE PUSH1 0x20 PUSH1 0x4 DUP3 ADD MSTORE PUSH1 0x11 PUSH1 0x24 DUP3 ADD MSTORE PUSH17 0x1D1BDAD95B881B9BDD08185B1B1BDDD959 PUSH1 0x7A SHL PUSH1 0x44 DUP3 ADD MSTORE PUSH1 0x64 ADD PUSH2 0x53B JUMP JUMPDEST PUSH1 0x0 PUSH32 0x0 PUSH1 0x1 PUSH1 0x1 PUSH1 0xA0 SHL SUB AND PUSH4 0x6F934ABE PUSH1 0x40 MLOAD DUP2 PUSH4 0xFFFFFFFF AND PUSH1 0xE0 SHL DUP2 MSTORE PUSH1 0x4 ADD PUSH1 0x0 PUSH1 0x40 MLOAD DUP1 DUP4 SUB DUP2 DUP7 GAS STATICCALL ISZERO DUP1 ISZERO PUSH2 0xDC0 JUMPI RETURNDATASIZE PUSH1 0x0 DUP1 RETURNDATACOPY RETURNDATASIZE PUSH1 0x0 REVERT JUMPDEST POP POP POP POP PUSH1 0x40 MLOAD RETURNDATASIZE PUSH1 0x0 DUP3 RETURNDATACOPY PUSH1 0x1F RETURNDATASIZE SWAP1 DUP2 ADD PUSH1 0x1F NOT AND DUP3 ADD PUSH1 0x40 MSTORE PUSH2 0xDE8 SWAP2 SWAP1 DUP2 ADD SWAP1 PUSH2 0x40A3 JUMP JUMPDEST SWAP1 POP PUSH1 0x0 JUMPDEST DUP2 MLOAD DUP2 LT ISZERO PUSH2 0xF78 JUMPI PUSH1 0x0 PUSH32 0x0 PUSH1 0x1 PUSH1 0x1 PUSH1 0xA0 SHL SUB AND PUSH4 0x9F82B217 PUSH1 0x40 MLOAD DUP2 PUSH4 0xFFFFFFFF AND PUSH1 0xE0 SHL DUP2 MSTORE PUSH1 0x4 ADD PUSH1 0x20 PUSH1 0x40 MLOAD DUP1 DUP4 SUB DUP2 DUP7 GAS STATICCALL ISZERO DUP1 ISZERO PUSH2 0xE56 JUMPI RETURNDATASIZE PUSH1 0x0 DUP1 RETURNDATACOPY RETURNDATASIZE PUSH1 0x0 REVERT JUMPDEST POP POP POP POP PUSH1 0x40 MLOAD RETURNDATASIZE PUSH1 0x1F NOT PUSH1 0x1F DUP3 ADD AND DUP3 ADD DUP1 PUSH1 0x40 MSTORE POP DUP2 ADD SWAP1 PUSH2 0xE7A SWAP2 SWAP1 PUSH2 0x4044 JUMP JUMPDEST PUSH1 0x1 PUSH1 0x1 PUSH1 0xA0 SHL SUB AND PUSH4 0x76A562A4 DUP5 DUP5 DUP2 MLOAD DUP2 LT PUSH2 0xE9A JUMPI PUSH2 0xE9A PUSH2 0x4132 JUMP JUMPDEST PUSH1 0x20 MUL PUSH1 0x20 ADD ADD MLOAD PUSH1 0x40 MLOAD DUP3 PUSH4 0xFFFFFFFF AND PUSH1 0xE0 SHL DUP2 MSTORE PUSH1 0x4 ADD PUSH2 0xECD SWAP2 SWAP1 PUSH1 0x1 PUSH1 0x1 PUSH1 0xA0 SHL SUB SWAP2 SWAP1 SWAP2 AND DUP2 MSTORE PUSH1 0x20 ADD SWAP1 JUMP JUMPDEST PUSH1 0x20 PUSH1 0x40 MLOAD DUP1 DUP4 SUB DUP2 DUP7 GAS STATICCALL ISZERO DUP1 ISZERO PUSH2 0xEEA JUMPI RETURNDATASIZE PUSH1 0x0 DUP1 RETURNDATACOPY RETURNDATASIZE PUSH1 0x0 REVERT JUMPDEST POP POP POP POP PUSH1 0x40 MLOAD RETURNDATASIZE PUSH1 0x1F NOT PUSH1 0x1F DUP3 ADD AND DUP3 ADD DUP1 PUSH1 0x40 MSTORE POP DUP2 ADD SWAP1 PUSH2 0xF0E SWAP2 SWAP1 PUSH2 0x4044 JUMP JUMPDEST SWAP1 POP DUP1 PUSH1 0x1 PUSH1 0x1 PUSH1 0xA0 SHL SUB AND DUP6 PUSH1 0x1 PUSH1 0x1 PUSH1 0xA0 SHL SUB AND SUB PUSH2 0xF65 JUMPI PUSH1 0x40 MLOAD PUSH3 0x461BCD PUSH1 0xE5 SHL DUP2 MSTORE PUSH1 0x20 PUSH1 0x4 DUP3 ADD MSTORE PUSH1 0x11 PUSH1 0x24 DUP3 ADD MSTORE PUSH17 0x1D1BDAD95B881B9BDD08185B1B1BDDD959 PUSH1 0x7A SHL PUSH1 0x44 DUP3 ADD MSTORE PUSH1 0x64 ADD PUSH2 0x53B JUMP JUMPDEST POP DUP1 PUSH2 0xF70 DUP2 PUSH2 0x4148 JUMP JUMPDEST SWAP2 POP POP PUSH2 0xDED JUMP JUMPDEST POP PUSH2 0xFA2 PUSH1 0x1 PUSH1 0x1 PUSH1 0xA0 SHL SUB DUP5 AND PUSH20 0xD9E1CE17F2641F24AE83637AB66A2CCA9C378B9F PUSH1 0x0 PUSH2 0x1BEB JUMP JUMPDEST PUSH2 0xFCC PUSH1 0x1 PUSH1 0x1 PUSH1 0xA0 SHL SUB DUP5 AND PUSH20 0xD9E1CE17F2641F24AE83637AB66A2CCA9C378B9F PUSH1 0x0 NOT PUSH2 0x1BEB JUMP JUMPDEST PUSH1 0x40 MLOAD PUSH1 0x1 PUSH1 0x1 PUSH1 0xA0 SHL SUB DUP5 AND DUP2 MSTORE PUSH32 0xD432E6F46DBF91C120FDFA95A1F4BF5C43F04D957FBC3A32E693BE0D29BF17B0 SWAP1 PUSH1 0x20 ADD PUSH1 0x40 MLOAD DUP1 SWAP2 SUB SWAP1 LOG1 PUSH2 0x1013 PUSH1 0x3 DUP5 PUSH2 0x2764 JUMP JUMPDEST SWAP2 POP POP JUMPDEST SWAP2 SWAP1 POP JUMP JUMPDEST PUSH1 0x60 PUSH2 0x1028 PUSH1 0x3 PUSH2 0x2779 JUMP JUMPDEST SWAP1 POP SWAP1 JUMP JUMPDEST PUSH2 0x1035 PUSH2 0x1D51 JUMP JUMPDEST PUSH2 0x103F PUSH1 0x0 PUSH2 0x2786 JUMP JUMPDEST JUMP JUMPDEST PUSH2 0x1049 PUSH2 0x1D51 JUMP JUMPDEST PUSH2 0x1054 PUSH1 0x3 DUP3 PUSH2 0x27D6 JUMP JUMPDEST POP PUSH1 0x40 MLOAD PUSH1 0x1 PUSH1 0x1 PUSH1 0xA0 SHL SUB DUP3 AND DUP2 MSTORE PUSH32 0xE0F3B1406AB4DD940A92A081B1BCEF51DA212A57978CC8F6DDE5C89AB41A5AA7 SWAP1 PUSH1 0x20 ADD JUMPDEST PUSH1 0x40 MLOAD DUP1 SWAP2 SUB SWAP1 LOG1 POP JUMP JUMPDEST PUSH2 0x109D PUSH2 0x1D51 JUMP JUMPDEST PUSH8 0x429D069189E0000 DUP2 LT PUSH2 0x1107 JUMPI PUSH1 0x40 MLOAD PUSH3 0x461BCD PUSH1 0xE5 SHL DUP2 MSTORE PUSH1 0x20 PUSH1 0x4 DUP3 ADD MSTORE PUSH1 0x2A PUSH1 0x24 DUP3 ADD MSTORE PUSH32 0x63616E6E6F7420736574206665652070657263656E7461676520746F206D6F72 PUSH1 0x44 DUP3 ADD MSTORE PUSH10 0x65207468616E20333025 PUSH1 0xB0 SHL PUSH1 0x64 DUP3 ADD MSTORE PUSH1 0x84 ADD PUSH2 0x53B JUMP JUMPDEST PUSH1 0x0 PUSH32 0x0 PUSH1 0x1 PUSH1 0x1 PUSH1 0xA0 SHL SUB AND PUSH4 0x631516C2 PUSH1 0x40 MLOAD DUP2 PUSH4 0xFFFFFFFF AND PUSH1 0xE0 SHL DUP2 MSTORE PUSH1 0x4 ADD PUSH1 0x20 PUSH1 0x40 MLOAD DUP1 DUP4 SUB DUP2 DUP7 GAS STATICCALL ISZERO DUP1 ISZERO PUSH2 0x1167 JUMPI RETURNDATASIZE PUSH1 0x0 DUP1 RETURNDATACOPY RETURNDATASIZE PUSH1 0x0 REVERT JUMPDEST POP POP POP POP PUSH1 0x40 MLOAD RETURNDATASIZE PUSH1 0x1F NOT PUSH1 0x1F DUP3 ADD AND DUP3 ADD DUP1 PUSH1 0x40 MSTORE POP DUP2 ADD SWAP1 PUSH2 0x118B SWAP2 SWAP1 PUSH2 0x408A JUMP JUMPDEST GT PUSH2 0x1195 JUMPI PUSH1 0x0 DUP1 REVERT JUMPDEST PUSH1 0x8 DUP2 SWAP1 SSTORE PUSH1 0x7 DUP1 SLOAD PUSH1 0xFF NOT AND PUSH1 0x1 OR SWAP1 SSTORE PUSH1 0x40 MLOAD PUSH32 0x3346AF6DA1932164D501F2EC28F8C5D686DB5828A36B77F2DA4332D89184FE7B SWAP1 PUSH2 0x108A SWAP1 DUP4 DUP2 MSTORE PUSH1 0x20 ADD SWAP1 JUMP JUMPDEST PUSH2 0x11E2 DUP2 PUSH2 0x27EB JUMP JUMPDEST POP JUMP JUMPDEST PUSH1 0x0 DUP1 PUSH1 0x0 PUSH2 0x11F3 CALLER PUSH2 0x27EB JUMP JUMPDEST CALLER PUSH1 0x0 SWAP1 DUP2 MSTORE PUSH32 0xE2EE452672E51EA6A0E1A769BEFF058ADD3428C3669348C1314B250E4ABCF646 PUSH1 0x20 SWAP1 DUP2 MSTORE PUSH1 0x40 DUP1 DUP4 KECCAK256 SLOAD PUSH32 0x3ACADC8A217EEBDCF686F20849B9575C123B0B8572285C75A94DDD9D4C51E5BD DUP4 MSTORE DUP2 DUP5 KECCAK256 SLOAD PUSH32 0x7AF089D8BDE560DF8F6FED82C9D27C7CABC5C74F30C79B49F5655E8729CB5C51 SWAP1 SWAP4 MSTORE SWAP3 DUP2 SWAP1 KECCAK256 SLOAD SWAP1 MLOAD PUSH4 0x70A08231 PUSH1 0xE0 SHL DUP2 MSTORE PUSH1 0x1 PUSH1 0x1 PUSH1 0xA0 SHL SUB PUSH32 0x0 AND PUSH1 0x4 DUP3 ADD MSTORE PUSH1 0x0 DUP1 MLOAD PUSH1 0x20 PUSH2 0x4502 DUP4 CODECOPY DUP2 MLOAD SWAP2 MSTORE SWAP1 PUSH4 0x70A08231 SWAP1 PUSH1 0x24 ADD PUSH1 0x20 PUSH1 0x40 MLOAD DUP1 DUP4 SUB DUP2 DUP7 GAS STATICCALL ISZERO DUP1 ISZERO PUSH2 0x12E6 JUMPI RETURNDATASIZE PUSH1 0x0 DUP1 RETURNDATACOPY RETURNDATASIZE PUSH1 0x0 REVERT JUMPDEST POP POP POP POP PUSH1 0x40 MLOAD RETURNDATASIZE PUSH1 0x1F NOT PUSH1 0x1F DUP3 ADD AND DUP3 ADD DUP1 PUSH1 0x40 MSTORE POP DUP2 ADD SWAP1 PUSH2 0x130A SWAP2 SWAP1 PUSH2 0x408A JUMP JUMPDEST DUP4 GT DUP1 PUSH2 0x13AB JUMPI POP PUSH1 0x40 MLOAD PUSH4 0x70A08231 PUSH1 0xE0 SHL DUP2 MSTORE PUSH1 0x1 PUSH1 0x1 PUSH1 0xA0 SHL SUB PUSH32 0x0 AND PUSH1 0x4 DUP3 ADD MSTORE PUSH1 0x0 DUP1 MLOAD PUSH1 0x20 PUSH2 0x4522 DUP4 CODECOPY DUP2 MLOAD SWAP2 MSTORE SWAP1 PUSH4 0x70A08231 SWAP1 PUSH1 0x24 ADD PUSH1 0x20 PUSH1 0x40 MLOAD DUP1 DUP4 SUB DUP2 DUP7 GAS STATICCALL ISZERO DUP1 ISZERO PUSH2 0x1384 JUMPI RETURNDATASIZE PUSH1 0x0 DUP1 RETURNDATACOPY RETURNDATASIZE PUSH1 0x0 REVERT JUMPDEST POP POP POP POP PUSH1 0x40 MLOAD RETURNDATASIZE PUSH1 0x1F NOT PUSH1 0x1F DUP3 ADD AND DUP3 ADD DUP1 PUSH1 0x40 MSTORE POP DUP2 ADD SWAP1 PUSH2 0x13A8 SWAP2 SWAP1 PUSH2 0x408A JUMP JUMPDEST DUP3 GT JUMPDEST DUP1 PUSH2 0x1450 JUMPI POP PUSH1 0x40 MLOAD PUSH4 0x70A08231 PUSH1 0xE0 SHL DUP2 MSTORE PUSH1 0x1 PUSH1 0x1 PUSH1 0xA0 SHL SUB PUSH32 0x0 AND PUSH1 0x4 DUP3 ADD MSTORE PUSH20 0x9AE380F0272E2162340A5BB646C354271C0F5CFC SWAP1 PUSH4 0x70A08231 SWAP1 PUSH1 0x24 ADD PUSH1 0x20 PUSH1 0x40 MLOAD DUP1 DUP4 SUB DUP2 DUP7 GAS STATICCALL ISZERO DUP1 ISZERO PUSH2 0x1429 JUMPI RETURNDATASIZE PUSH1 0x0 DUP1 RETURNDATACOPY RETURNDATASIZE PUSH1 0x0 REVERT JUMPDEST POP POP POP POP PUSH1 0x40 MLOAD RETURNDATASIZE PUSH1 0x1F NOT PUSH1 0x1F DUP3 ADD AND DUP3 ADD DUP1 PUSH1 0x40 MSTORE POP DUP2 ADD SWAP1 PUSH2 0x144D SWAP2 SWAP1 PUSH2 0x408A JUMP JUMPDEST DUP2 GT JUMPDEST ISZERO PUSH2 0x145D JUMPI PUSH2 0x145D PUSH2 0x23AC JUMP JUMPDEST CALLER PUSH1 0x0 DUP2 DUP2 MSTORE PUSH32 0x7AF089D8BDE560DF8F6FED82C9D27C7CABC5C74F30C79B49F5655E8729CB5C51 PUSH1 0x20 SWAP1 DUP2 MSTORE PUSH1 0x40 DUP1 DUP4 KECCAK256 DUP4 SWAP1 SSTORE PUSH32 0x3ACADC8A217EEBDCF686F20849B9575C123B0B8572285C75A94DDD9D4C51E5BD DUP3 MSTORE DUP1 DUP4 KECCAK256 DUP4 SWAP1 SSTORE PUSH32 0xE2EE452672E51EA6A0E1A769BEFF058ADD3428C3669348C1314B250E4ABCF646 SWAP1 SWAP2 MSTORE DUP2 KECCAK256 SSTORE PUSH2 0x151D SWAP1 PUSH1 0x0 DUP1 MLOAD PUSH1 0x20 PUSH2 0x4502 DUP4 CODECOPY DUP2 MLOAD SWAP2 MSTORE SWAP1 PUSH32 0x0 SWAP1 DUP7 PUSH2 0x2726 JUMP JUMPDEST PUSH2 0x1557 PUSH1 0x0 DUP1 MLOAD PUSH1 0x20 PUSH2 0x4522 DUP4 CODECOPY DUP2 MLOAD SWAP2 MSTORE PUSH32 0x0 CALLER DUP6 PUSH2 0x2726 JUMP JUMPDEST PUSH2 0x1597 PUSH20 0x9AE380F0272E2162340A5BB646C354271C0F5CFC PUSH32 0x0 CALLER DUP5 PUSH2 0x2726 JUMP JUMPDEST PUSH1 0x40 MLOAD PUSH4 0x70A08231 PUSH1 0xE0 SHL DUP2 MSTORE PUSH1 0x1 PUSH1 0x1 PUSH1 0xA0 SHL SUB PUSH32 0x0 AND PUSH1 0x4 DUP3 ADD MSTORE PUSH1 0x0 DUP1 MLOAD PUSH1 0x20 PUSH2 0x4502 DUP4 CODECOPY DUP2 MLOAD SWAP2 MSTORE SWAP1 PUSH4 0x70A08231 SWAP1 PUSH1 0x24 ADD PUSH1 0x20 PUSH1 0x40 MLOAD DUP1 DUP4 SUB DUP2 DUP7 GAS STATICCALL ISZERO DUP1 ISZERO PUSH2 0x1609 JUMPI RETURNDATASIZE PUSH1 0x0 DUP1 RETURNDATACOPY RETURNDATASIZE PUSH1 0x0 REVERT JUMPDEST POP POP POP POP PUSH1 0x40 MLOAD RETURNDATASIZE PUSH1 0x1F NOT PUSH1 0x1F DUP3 ADD AND DUP3 ADD DUP1 PUSH1 0x40 MSTORE POP DUP2 ADD SWAP1 PUSH2 0x162D SWAP2 SWAP1 PUSH2 0x408A JUMP JUMPDEST PUSH1 0x1 SSTORE PUSH1 0x40 MLOAD PUSH4 0x70A08231 PUSH1 0xE0 SHL DUP2 MSTORE PUSH1 0x1 PUSH1 0x1 PUSH1 0xA0 SHL SUB PUSH32 0x0 AND PUSH1 0x4 DUP3 ADD MSTORE PUSH1 0x0 DUP1 MLOAD PUSH1 0x20 PUSH2 0x4522 DUP4 CODECOPY DUP2 MLOAD SWAP2 MSTORE SWAP1 PUSH4 0x70A08231 SWAP1 PUSH1 0x24 ADD PUSH1 0x20 PUSH1 0x40 MLOAD DUP1 DUP4 SUB DUP2 DUP7 GAS STATICCALL ISZERO DUP1 ISZERO PUSH2 0x16A2 JUMPI RETURNDATASIZE PUSH1 0x0 DUP1 RETURNDATACOPY RETURNDATASIZE PUSH1 0x0 REVERT JUMPDEST POP POP POP POP PUSH1 0x40 MLOAD RETURNDATASIZE PUSH1 0x1F NOT PUSH1 0x1F DUP3 ADD AND DUP3 ADD DUP1 PUSH1 0x40 MSTORE POP DUP2 ADD SWAP1 PUSH2 0x16C6 SWAP2 SWAP1 PUSH2 0x408A JUMP JUMPDEST PUSH1 0x2 SSTORE PUSH1 0x40 DUP1 MLOAD DUP3 DUP2 MSTORE PUSH1 0x20 DUP2 ADD DUP6 SWAP1 MSTORE SWAP1 DUP2 ADD DUP4 SWAP1 MSTORE CALLER SWAP1 PUSH32 0x6F39318C760AD4D630F57BA8F8D3C21B8E1DEB076E19476D1DECE4E3D737E7A SWAP1 PUSH1 0x60 ADD PUSH1 0x40 MLOAD DUP1 SWAP2 SUB SWAP1 LOG2 SWAP6 SWAP2 SWAP5 POP SWAP3 POP SWAP1 POP JUMP JUMPDEST PUSH1 0x0 DUP1 PUSH1 0x0 DUP1 PUSH32 0x0 PUSH1 0x1 PUSH1 0x1 PUSH1 0xA0 SHL SUB AND PUSH4 0x48439E7E PUSH1 0x40 MLOAD DUP2 PUSH4 0xFFFFFFFF AND PUSH1 0xE0 SHL DUP2 MSTORE PUSH1 0x4 ADD PUSH1 0x20 PUSH1 0x40 MLOAD DUP1 DUP4 SUB DUP2 DUP7 GAS STATICCALL ISZERO DUP1 ISZERO PUSH2 0x177A JUMPI RETURNDATASIZE PUSH1 0x0 DUP1 RETURNDATACOPY RETURNDATASIZE PUSH1 0x0 REVERT JUMPDEST POP POP POP POP PUSH1 0x40 MLOAD RETURNDATASIZE PUSH1 0x1F NOT PUSH1 0x1F DUP3 ADD AND DUP3 ADD DUP1 PUSH1 0x40 MSTORE POP DUP2 ADD SWAP1 PUSH2 0x179E SWAP2 SWAP1 PUSH2 0x4044 JUMP JUMPDEST PUSH1 0x40 MLOAD PUSH4 0x5598B209 PUSH1 0xE0 SHL DUP2 MSTORE PUSH1 0x1 PUSH1 0x1 PUSH1 0xA0 SHL SUB PUSH32 0x0 DUP2 AND PUSH1 0x4 DUP4 ADD MSTORE SWAP2 SWAP1 SWAP2 AND SWAP1 PUSH4 0x5598B209 SWAP1 PUSH1 0x24 ADD PUSH1 0x20 PUSH1 0x40 MLOAD DUP1 DUP4 SUB DUP2 DUP7 GAS STATICCALL ISZERO DUP1 ISZERO PUSH2 0x1806 JUMPI RETURNDATASIZE PUSH1 0x0 DUP1 RETURNDATACOPY RETURNDATASIZE PUSH1 0x0 REVERT JUMPDEST POP POP POP POP PUSH1 0x40 MLOAD RETURNDATASIZE PUSH1 0x1F NOT PUSH1 0x1F DUP3 ADD AND DUP3 ADD DUP1 PUSH1 0x40 MSTORE POP DUP2 ADD SWAP1 PUSH2 0x182A SWAP2 SWAP1 PUSH2 0x408A JUMP JUMPDEST SWAP1 POP DUP1 PUSH1 0x0 SUB PUSH2 0x1845 JUMPI PUSH1 0x0 DUP1 PUSH1 0x0 SWAP4 POP SWAP4 POP SWAP4 POP POP PUSH2 0x19D9 JUMP JUMPDEST PUSH1 0x0 DUP1 PUSH1 0x0 PUSH2 0x1852 PUSH2 0x2941 JUMP JUMPDEST SWAP3 POP SWAP3 POP SWAP3 POP PUSH1 0x0 PUSH32 0x0 PUSH1 0x1 PUSH1 0x1 PUSH1 0xA0 SHL SUB AND PUSH4 0x48439E7E PUSH1 0x40 MLOAD DUP2 PUSH4 0xFFFFFFFF AND PUSH1 0xE0 SHL DUP2 MSTORE PUSH1 0x4 ADD PUSH1 0x20 PUSH1 0x40 MLOAD DUP1 DUP4 SUB DUP2 DUP7 GAS STATICCALL ISZERO DUP1 ISZERO PUSH2 0x18B8 JUMPI RETURNDATASIZE PUSH1 0x0 DUP1 RETURNDATACOPY RETURNDATASIZE PUSH1 0x0 REVERT JUMPDEST POP POP POP POP PUSH1 0x40 MLOAD RETURNDATASIZE PUSH1 0x1F NOT PUSH1 0x1F DUP3 ADD AND DUP3 ADD DUP1 PUSH1 0x40 MSTORE POP DUP2 ADD SWAP1 PUSH2 0x18DC SWAP2 SWAP1 PUSH2 0x4044 JUMP JUMPDEST PUSH1 0x40 MLOAD PUSH4 0x7D2041E5 PUSH1 0xE1 SHL DUP2 MSTORE PUSH1 0x1 PUSH1 0x1 PUSH1 0xA0 SHL SUB PUSH32 0x0 DUP2 AND PUSH1 0x4 DUP4 ADD MSTORE DUP12 DUP2 AND PUSH1 0x24 DUP4 ADD MSTORE SWAP2 SWAP1 SWAP2 AND SWAP1 PUSH4 0xFA4083CA SWAP1 PUSH1 0x44 ADD PUSH1 0x20 PUSH1 0x40 MLOAD DUP1 DUP4 SUB DUP2 DUP7 GAS STATICCALL ISZERO DUP1 ISZERO PUSH2 0x194C JUMPI RETURNDATASIZE PUSH1 0x0 DUP1 RETURNDATACOPY RETURNDATASIZE PUSH1 0x0 REVERT JUMPDEST POP POP POP POP PUSH1 0x40 MLOAD RETURNDATASIZE PUSH1 0x1F NOT PUSH1 0x1F DUP3 ADD AND DUP3 ADD DUP1 PUSH1 0x40 MSTORE POP DUP2 ADD SWAP1 PUSH2 0x1970 SWAP2 SWAP1 PUSH2 0x408A JUMP JUMPDEST SWAP1 POP PUSH2 0x1987 DUP10 PUSH3 0x636E63 PUSH1 0xE8 SHL DUP5 DUP5 DUP10 PUSH1 0x0 PUSH2 0x29E0 JUMP JUMPDEST SWAP8 POP PUSH2 0x19AC DUP10 PUSH3 0x31B93B PUSH1 0xE9 SHL DUP7 DUP5 DUP10 PUSH1 0x7 PUSH1 0x0 SWAP1 SLOAD SWAP1 PUSH2 0x100 EXP SWAP1 DIV PUSH1 0xFF AND PUSH2 0x29E0 JUMP JUMPDEST SWAP7 POP PUSH2 0x19D1 DUP10 PUSH3 0xC6ECF PUSH1 0xEB SHL DUP6 DUP5 DUP10 PUSH1 0x7 PUSH1 0x0 SWAP1 SLOAD SWAP1 PUSH2 0x100 EXP SWAP1 DIV PUSH1 0xFF AND PUSH2 0x29E0 JUMP JUMPDEST SWAP6 POP POP POP POP POP POP JUMPDEST SWAP2 SWAP4 SWAP1 SWAP3 POP JUMP JUMPDEST PUSH2 0x19E8 PUSH2 0x5E9 JUMP JUMPDEST PUSH2 0x103F JUMPI PUSH2 0x19F4 PUSH2 0x23AC JUMP JUMPDEST PUSH1 0x40 MLOAD PUSH4 0x70A08231 PUSH1 0xE0 SHL DUP2 MSTORE PUSH1 0x1 PUSH1 0x1 PUSH1 0xA0 SHL SUB PUSH32 0x0 AND PUSH1 0x4 DUP3 ADD MSTORE PUSH1 0x0 DUP1 MLOAD PUSH1 0x20 PUSH2 0x4502 DUP4 CODECOPY DUP2 MLOAD SWAP2 MSTORE SWAP1 PUSH4 0x70A08231 SWAP1 PUSH1 0x24 ADD PUSH1 0x20 PUSH1 0x40 MLOAD DUP1 DUP4 SUB DUP2 DUP7 GAS STATICCALL ISZERO DUP1 ISZERO PUSH2 0x1A66 JUMPI RETURNDATASIZE PUSH1 0x0 DUP1 RETURNDATACOPY RETURNDATASIZE PUSH1 0x0 REVERT JUMPDEST POP POP POP POP PUSH1 0x40 MLOAD RETURNDATASIZE PUSH1 0x1F NOT PUSH1 0x1F DUP3 ADD AND DUP3 ADD DUP1 PUSH1 0x40 MSTORE POP DUP2 ADD SWAP1 PUSH2 0x1A8A SWAP2 SWAP1 PUSH2 0x408A JUMP JUMPDEST PUSH1 0x1 SSTORE PUSH1 0x40 MLOAD PUSH4 0x70A08231 PUSH1 0xE0 SHL DUP2 MSTORE PUSH1 0x1 PUSH1 0x1 PUSH1 0xA0 SHL SUB PUSH32 0x0 AND PUSH1 0x4 DUP3 ADD MSTORE PUSH1 0x0 DUP1 MLOAD PUSH1 0x20 PUSH2 0x4522 DUP4 CODECOPY DUP2 MLOAD SWAP2 MSTORE SWAP1 PUSH4 0x70A08231 SWAP1 PUSH1 0x24 ADD PUSH1 0x20 PUSH1 0x40 MLOAD DUP1 DUP4 SUB DUP2 DUP7 GAS STATICCALL ISZERO DUP1 ISZERO PUSH2 0x1AFF JUMPI RETURNDATASIZE PUSH1 0x0 DUP1 RETURNDATACOPY RETURNDATASIZE PUSH1 0x0 REVERT JUMPDEST POP POP POP POP PUSH1 0x40 MLOAD RETURNDATASIZE PUSH1 0x1F NOT PUSH1 0x1F DUP3 ADD AND DUP3 ADD DUP1 PUSH1 0x40 MSTORE POP DUP2 ADD SWAP1 PUSH2 0x1B23 SWAP2 SWAP1 PUSH2 0x408A JUMP JUMPDEST PUSH1 0x2 SSTORE JUMP JUMPDEST PUSH2 0x1B30 PUSH2 0x1D51 JUMP JUMPDEST PUSH1 0x1 PUSH1 0x1 PUSH1 0xA0 SHL SUB DUP2 AND PUSH2 0x1B95 JUMPI PUSH1 0x40 MLOAD PUSH3 0x461BCD PUSH1 0xE5 SHL DUP2 MSTORE PUSH1 0x20 PUSH1 0x4 DUP3 ADD MSTORE PUSH1 0x26 PUSH1 0x24 DUP3 ADD MSTORE PUSH32 0x4F776E61626C653A206E6577206F776E657220697320746865207A65726F2061 PUSH1 0x44 DUP3 ADD MSTORE PUSH6 0x646472657373 PUSH1 0xD0 SHL PUSH1 0x64 DUP3 ADD MSTORE PUSH1 0x84 ADD PUSH2 0x53B JUMP JUMPDEST PUSH2 0x11E2 DUP2 PUSH2 0x2786 JUMP JUMPDEST PUSH2 0x1BA6 PUSH2 0x1D51 JUMP JUMPDEST PUSH1 0x0 JUMPDEST DUP2 MLOAD DUP2 LT ISZERO PUSH2 0x1BE7 JUMPI PUSH2 0x1BD4 DUP3 DUP3 DUP2 MLOAD DUP2 LT PUSH2 0x1BC7 JUMPI PUSH2 0x1BC7 PUSH2 0x4132 JUMP JUMPDEST PUSH1 0x20 MUL PUSH1 0x20 ADD ADD MLOAD PUSH2 0xC29 JUMP JUMPDEST POP DUP1 PUSH2 0x1BDF DUP2 PUSH2 0x4148 JUMP JUMPDEST SWAP2 POP POP PUSH2 0x1BA9 JUMP JUMPDEST POP POP JUMP JUMPDEST DUP1 ISZERO DUP1 PUSH2 0x1C65 JUMPI POP PUSH1 0x40 MLOAD PUSH4 0x6EB1769F PUSH1 0xE1 SHL DUP2 MSTORE ADDRESS PUSH1 0x4 DUP3 ADD MSTORE PUSH1 0x1 PUSH1 0x1 PUSH1 0xA0 SHL SUB DUP4 DUP2 AND PUSH1 0x24 DUP4 ADD MSTORE DUP5 AND SWAP1 PUSH4 0xDD62ED3E SWAP1 PUSH1 0x44 ADD PUSH1 0x20 PUSH1 0x40 MLOAD DUP1 DUP4 SUB DUP2 DUP7 GAS STATICCALL ISZERO DUP1 ISZERO PUSH2 0x1C3F JUMPI RETURNDATASIZE PUSH1 0x0 DUP1 RETURNDATACOPY RETURNDATASIZE PUSH1 0x0 REVERT JUMPDEST POP POP POP POP PUSH1 0x40 MLOAD RETURNDATASIZE PUSH1 0x1F NOT PUSH1 0x1F DUP3 ADD AND DUP3 ADD DUP1 PUSH1 0x40 MSTORE POP DUP2 ADD SWAP1 PUSH2 0x1C63 SWAP2 SWAP1 PUSH2 0x408A JUMP JUMPDEST ISZERO JUMPDEST PUSH2 0x1CD0 JUMPI PUSH1 0x40 MLOAD PUSH3 0x461BCD PUSH1 0xE5 SHL DUP2 MSTORE PUSH1 0x20 PUSH1 0x4 DUP3 ADD MSTORE PUSH1 0x36 PUSH1 0x24 DUP3 ADD MSTORE PUSH32 0x5361666545524332303A20617070726F76652066726F6D206E6F6E2D7A65726F PUSH1 0x44 DUP3 ADD MSTORE PUSH22 0x20746F206E6F6E2D7A65726F20616C6C6F77616E6365 PUSH1 0x50 SHL PUSH1 0x64 DUP3 ADD MSTORE PUSH1 0x84 ADD PUSH2 0x53B JUMP JUMPDEST PUSH1 0x40 MLOAD PUSH1 0x1 PUSH1 0x1 PUSH1 0xA0 SHL SUB DUP4 AND PUSH1 0x24 DUP3 ADD MSTORE PUSH1 0x44 DUP2 ADD DUP3 SWAP1 MSTORE PUSH2 0x1D33 SWAP1 DUP5 SWAP1 PUSH4 0x95EA7B3 PUSH1 0xE0 SHL SWAP1 PUSH1 0x64 ADD JUMPDEST PUSH1 0x40 DUP1 MLOAD PUSH1 0x1F NOT DUP2 DUP5 SUB ADD DUP2 MSTORE SWAP2 SWAP1 MSTORE PUSH1 0x20 DUP2 ADD DUP1 MLOAD PUSH1 0x1 PUSH1 0x1 PUSH1 0xE0 SHL SUB AND PUSH1 0x1 PUSH1 0x1 PUSH1 0xE0 SHL SUB NOT SWAP1 SWAP4 AND SWAP3 SWAP1 SWAP3 OR SWAP1 SWAP2 MSTORE PUSH2 0x2AAD JUMP JUMPDEST POP POP POP JUMP JUMPDEST PUSH1 0x60 PUSH2 0x1D47 DUP5 DUP5 PUSH1 0x0 DUP6 PUSH2 0x2B7F JUMP JUMPDEST SWAP1 POP JUMPDEST SWAP4 SWAP3 POP POP POP JUMP JUMPDEST PUSH1 0x0 SLOAD PUSH1 0x1 PUSH1 0x1 PUSH1 0xA0 SHL SUB AND CALLER EQ PUSH2 0x103F JUMPI PUSH1 0x40 MLOAD PUSH3 0x461BCD PUSH1 0xE5 SHL DUP2 MSTORE PUSH1 0x20 PUSH1 0x4 DUP3 ADD DUP2 SWAP1 MSTORE PUSH1 0x24 DUP3 ADD MSTORE PUSH32 0x4F776E61626C653A2063616C6C6572206973206E6F7420746865206F776E6572 PUSH1 0x44 DUP3 ADD MSTORE PUSH1 0x64 ADD PUSH2 0x53B JUMP JUMPDEST PUSH1 0x0 DUP1 PUSH1 0x0 DUP1 PUSH32 0x0 PUSH1 0x1 PUSH1 0x1 PUSH1 0xA0 SHL SUB AND PUSH4 0x6F934ABE PUSH1 0x40 MLOAD DUP2 PUSH4 0xFFFFFFFF AND PUSH1 0xE0 SHL DUP2 MSTORE PUSH1 0x4 ADD PUSH1 0x0 PUSH1 0x40 MLOAD DUP1 DUP4 SUB DUP2 DUP7 GAS STATICCALL ISZERO DUP1 ISZERO PUSH2 0x1E0F JUMPI RETURNDATASIZE PUSH1 0x0 DUP1 RETURNDATACOPY RETURNDATASIZE PUSH1 0x0 REVERT JUMPDEST POP POP POP POP PUSH1 0x40 MLOAD RETURNDATASIZE PUSH1 0x0 DUP3 RETURNDATACOPY PUSH1 0x1F RETURNDATASIZE SWAP1 DUP2 ADD PUSH1 0x1F NOT AND DUP3 ADD PUSH1 0x40 MSTORE PUSH2 0x1E37 SWAP2 SWAP1 DUP2 ADD SWAP1 PUSH2 0x40A3 JUMP JUMPDEST SWAP1 POP PUSH1 0x0 DUP6 PUSH1 0x1 PUSH1 0x1 PUSH1 0xA0 SHL SUB AND PUSH4 0xD8335008 PUSH32 0x0 DUP5 PUSH1 0x40 MLOAD DUP4 PUSH4 0xFFFFFFFF AND PUSH1 0xE0 SHL DUP2 MSTORE PUSH1 0x4 ADD PUSH2 0x1E89 SWAP3 SWAP2 SWAP1 PUSH2 0x4161 JUMP JUMPDEST PUSH1 0x20 PUSH1 0x40 MLOAD DUP1 DUP4 SUB DUP2 DUP7 GAS STATICCALL ISZERO DUP1 ISZERO PUSH2 0x1EA6 JUMPI RETURNDATASIZE PUSH1 0x0 DUP1 RETURNDATACOPY RETURNDATASIZE PUSH1 0x0 REVERT JUMPDEST POP POP POP POP PUSH1 0x40 MLOAD RETURNDATASIZE PUSH1 0x1F NOT PUSH1 0x1F DUP3 ADD AND DUP3 ADD DUP1 PUSH1 0x40 MSTORE POP DUP2 ADD SWAP1 PUSH2 0x1ECA SWAP2 SWAP1 PUSH2 0x408A JUMP JUMPDEST PUSH1 0x1 SLOAD PUSH1 0x40 MLOAD PUSH4 0x70A08231 PUSH1 0xE0 SHL DUP2 MSTORE PUSH32 0x0 PUSH1 0x1 PUSH1 0x1 PUSH1 0xA0 SHL SUB AND PUSH1 0x4 DUP3 ADD MSTORE SWAP2 SWAP3 POP PUSH1 0x0 SWAP2 DUP4 SWAP2 SWAP1 PUSH1 0x0 DUP1 MLOAD PUSH1 0x20 PUSH2 0x4502 DUP4 CODECOPY DUP2 MLOAD SWAP2 MSTORE SWAP1 PUSH4 0x70A08231 SWAP1 PUSH1 0x24 ADD PUSH1 0x20 PUSH1 0x40 MLOAD DUP1 DUP4 SUB DUP2 DUP7 GAS STATICCALL ISZERO DUP1 ISZERO PUSH2 0x1F48 JUMPI RETURNDATASIZE PUSH1 0x0 DUP1 RETURNDATACOPY RETURNDATASIZE PUSH1 0x0 REVERT JUMPDEST POP POP POP POP PUSH1 0x40 MLOAD RETURNDATASIZE PUSH1 0x1F NOT PUSH1 0x1F DUP3 ADD AND DUP3 ADD DUP1 PUSH1 0x40 MSTORE POP DUP2 ADD SWAP1 PUSH2 0x1F6C SWAP2 SWAP1 PUSH2 0x408A JUMP JUMPDEST PUSH2 0x1F76 SWAP2 SWAP1 PUSH2 0x4077 JUMP JUMPDEST PUSH2 0x1F80 SWAP2 SWAP1 PUSH2 0x4185 JUMP JUMPDEST PUSH1 0x40 MLOAD PUSH4 0x323808CD PUSH1 0xE0 SHL DUP2 MSTORE PUSH1 0x4 DUP2 ADD DUP5 SWAP1 MSTORE SWAP1 SWAP2 POP PUSH1 0x0 SWAP1 PUSH1 0x1 PUSH1 0x1 PUSH1 0xA0 SHL SUB DUP10 AND SWAP1 PUSH4 0x323808CD SWAP1 PUSH1 0x24 ADD PUSH1 0x20 PUSH1 0x40 MLOAD DUP1 DUP4 SUB DUP2 DUP7 GAS STATICCALL ISZERO DUP1 ISZERO PUSH2 0x1FCB JUMPI RETURNDATASIZE PUSH1 0x0 DUP1 RETURNDATACOPY RETURNDATASIZE PUSH1 0x0 REVERT JUMPDEST POP POP POP POP PUSH1 0x40 MLOAD RETURNDATASIZE PUSH1 0x1F NOT PUSH1 0x1F DUP3 ADD AND DUP3 ADD DUP1 PUSH1 0x40 MSTORE POP DUP2 ADD SWAP1 PUSH2 0x1FEF SWAP2 SWAP1 PUSH2 0x408A JUMP JUMPDEST PUSH1 0x2 SLOAD PUSH1 0x40 MLOAD PUSH4 0x70A08231 PUSH1 0xE0 SHL DUP2 MSTORE PUSH32 0x0 PUSH1 0x1 PUSH1 0x1 PUSH1 0xA0 SHL SUB AND PUSH1 0x4 DUP3 ADD MSTORE SWAP2 SWAP3 POP PUSH1 0x0 SWAP2 DUP4 SWAP2 SWAP1 PUSH1 0x0 DUP1 MLOAD PUSH1 0x20 PUSH2 0x4522 DUP4 CODECOPY DUP2 MLOAD SWAP2 MSTORE SWAP1 PUSH4 0x70A08231 SWAP1 PUSH1 0x24 ADD PUSH1 0x20 PUSH1 0x40 MLOAD DUP1 DUP4 SUB DUP2 DUP7 GAS STATICCALL ISZERO DUP1 ISZERO PUSH2 0x206D JUMPI RETURNDATASIZE PUSH1 0x0 DUP1 RETURNDATACOPY RETURNDATASIZE PUSH1 0x0 REVERT JUMPDEST POP POP POP POP PUSH1 0x40 MLOAD RETURNDATASIZE PUSH1 0x1F NOT PUSH1 0x1F DUP3 ADD AND DUP3 ADD DUP1 PUSH1 0x40 MSTORE POP DUP2 ADD SWAP1 PUSH2 0x2091 SWAP2 SWAP1 PUSH2 0x408A JUMP JUMPDEST PUSH2 0x209B SWAP2 SWAP1 PUSH2 0x4077 JUMP JUMPDEST PUSH2 0x20A5 SWAP2 SWAP1 PUSH2 0x4185 JUMP JUMPDEST SWAP1 POP PUSH1 0x0 PUSH32 0x0 PUSH1 0x1 PUSH1 0x1 PUSH1 0xA0 SHL SUB AND PUSH4 0x48439E7E PUSH1 0x40 MLOAD DUP2 PUSH4 0xFFFFFFFF AND PUSH1 0xE0 SHL DUP2 MSTORE PUSH1 0x4 ADD PUSH1 0x20 PUSH1 0x40 MLOAD DUP1 DUP4 SUB DUP2 DUP7 GAS STATICCALL ISZERO DUP1 ISZERO PUSH2 0x2107 JUMPI RETURNDATASIZE PUSH1 0x0 DUP1 RETURNDATACOPY RETURNDATASIZE PUSH1 0x0 REVERT JUMPDEST POP POP POP POP PUSH1 0x40 MLOAD RETURNDATASIZE PUSH1 0x1F NOT PUSH1 0x1F DUP3 ADD AND DUP3 ADD DUP1 PUSH1 0x40 MSTORE POP DUP2 ADD SWAP1 PUSH2 0x212B SWAP2 SWAP1 PUSH2 0x4044 JUMP JUMPDEST PUSH1 0x40 MLOAD PUSH4 0x34D21EA3 PUSH1 0xE2 SHL DUP2 MSTORE PUSH1 0x1 PUSH1 0x1 PUSH1 0xA0 SHL SUB PUSH32 0x0 DUP2 AND PUSH1 0x4 DUP4 ADD MSTORE SWAP2 SWAP1 SWAP2 AND SWAP1 PUSH4 0xD3487A8C SWAP1 PUSH1 0x24 ADD PUSH1 0x20 PUSH1 0x40 MLOAD DUP1 DUP4 SUB DUP2 DUP7 GAS STATICCALL ISZERO DUP1 ISZERO PUSH2 0x2193 JUMPI RETURNDATASIZE PUSH1 0x0 DUP1 RETURNDATACOPY RETURNDATASIZE PUSH1 0x0 REVERT JUMPDEST POP POP POP POP PUSH1 0x40 MLOAD RETURNDATASIZE PUSH1 0x1F NOT PUSH1 0x1F DUP3 ADD AND DUP3 ADD DUP1 PUSH1 0x40 MSTORE POP DUP2 ADD SWAP1 PUSH2 0x21B7 SWAP2 SWAP1 PUSH2 0x408A JUMP JUMPDEST PUSH3 0x31B93B PUSH1 0xE9 SHL PUSH1 0x0 MSTORE PUSH1 0x6 PUSH1 0x20 MSTORE PUSH32 0xE2EE452672E51EA6A0E1A769BEFF058ADD3428C3669348C1314B250E4ABCF644 SLOAD SWAP1 SWAP2 POP DUP5 GT ISZERO PUSH2 0x2230 JUMPI PUSH3 0x31B93B PUSH1 0xE9 SHL PUSH1 0x0 MSTORE PUSH1 0x6 PUSH1 0x20 MSTORE PUSH32 0xE2EE452672E51EA6A0E1A769BEFF058ADD3428C3669348C1314B250E4ABCF644 SLOAD PUSH2 0x222D SWAP1 DUP6 PUSH2 0x4077 JUMP JUMPDEST SWAP9 POP JUMPDEST PUSH3 0xC6ECF PUSH1 0xEB SHL PUSH1 0x0 MSTORE PUSH1 0x6 PUSH1 0x20 MSTORE PUSH32 0x3ACADC8A217EEBDCF686F20849B9575C123B0B8572285C75A94DDD9D4C51E5BB SLOAD DUP3 GT ISZERO PUSH2 0x22A6 JUMPI PUSH3 0xC6ECF PUSH1 0xEB SHL PUSH1 0x0 MSTORE PUSH1 0x6 PUSH1 0x20 MSTORE PUSH32 0x3ACADC8A217EEBDCF686F20849B9575C123B0B8572285C75A94DDD9D4C51E5BB SLOAD PUSH2 0x22A3 SWAP1 DUP4 PUSH2 0x4077 JUMP JUMPDEST SWAP8 POP JUMPDEST PUSH3 0x636E63 PUSH1 0xE8 SHL PUSH1 0x0 MSTORE PUSH1 0x6 PUSH1 0x20 MSTORE PUSH32 0x7AF089D8BDE560DF8F6FED82C9D27C7CABC5C74F30C79B49F5655E8729CB5C4F SLOAD DUP2 GT ISZERO PUSH2 0x231C JUMPI PUSH3 0x636E63 PUSH1 0xE8 SHL PUSH1 0x0 MSTORE PUSH1 0x6 PUSH1 0x20 MSTORE PUSH32 0x7AF089D8BDE560DF8F6FED82C9D27C7CABC5C74F30C79B49F5655E8729CB5C4F SLOAD PUSH2 0x2319 SWAP1 DUP3 PUSH2 0x4077 JUMP JUMPDEST SWAP7 POP JUMPDEST POP POP POP POP POP POP SWAP2 SWAP4 SWAP1 SWAP3 POP JUMP JUMPDEST PUSH1 0x0 PUSH2 0x2337 PUSH1 0x12 PUSH1 0xA PUSH2 0x427C JUMP JUMPDEST PUSH2 0x2341 DUP4 DUP6 PUSH2 0x4288 JUMP JUMPDEST PUSH2 0x234B SWAP2 SWAP1 PUSH2 0x429F JUMP JUMPDEST SWAP1 POP JUMPDEST SWAP3 SWAP2 POP POP JUMP JUMPDEST PUSH2 0x235E DUP3 DUP3 PUSH2 0x2C5C JUMP JUMPDEST PUSH1 0x0 DUP5 DUP2 MSTORE PUSH1 0x6 PUSH1 0x20 MSTORE PUSH1 0x40 DUP2 KECCAK256 DUP1 SLOAD SWAP1 SWAP2 SWAP1 PUSH2 0x237C SWAP1 DUP5 SWAP1 PUSH2 0x4185 JUMP JUMPDEST SWAP1 SWAP2 SSTORE POP POP PUSH1 0x0 DUP4 DUP2 MSTORE PUSH1 0x6 PUSH1 0x20 MSTORE PUSH1 0x40 DUP2 KECCAK256 PUSH1 0x1 ADD DUP1 SLOAD DUP5 SWAP3 SWAP1 PUSH2 0x23A2 SWAP1 DUP5 SWAP1 PUSH2 0x4185 JUMP JUMPDEST SWAP1 SWAP2 SSTORE POP POP POP POP POP JUMP JUMPDEST PUSH1 0x6 PUSH1 0x20 MSTORE PUSH1 0x0 PUSH32 0xE2EE452672E51EA6A0E1A769BEFF058ADD3428C3669348C1314B250E4ABCF644 DUP2 SWAP1 SSTORE PUSH32 0x3ACADC8A217EEBDCF686F20849B9575C123B0B8572285C75A94DDD9D4C51E5BB DUP2 SWAP1 SSTORE PUSH3 0x636E63 PUSH1 0xE8 SHL DUP2 MSTORE PUSH32 0x7AF089D8BDE560DF8F6FED82C9D27C7CABC5C74F30C79B49F5655E8729CB5C4F SSTORE PUSH2 0x242E PUSH2 0x2C75 JUMP JUMPDEST PUSH1 0x40 MLOAD PUSH4 0x70A08231 PUSH1 0xE0 SHL DUP2 MSTORE PUSH1 0x1 PUSH1 0x1 PUSH1 0xA0 SHL SUB PUSH32 0x0 AND PUSH1 0x4 DUP3 ADD MSTORE PUSH1 0x0 SWAP1 PUSH20 0x9AE380F0272E2162340A5BB646C354271C0F5CFC SWAP1 PUSH4 0x70A08231 SWAP1 PUSH1 0x24 ADD PUSH1 0x20 PUSH1 0x40 MLOAD DUP1 DUP4 SUB DUP2 DUP7 GAS STATICCALL ISZERO DUP1 ISZERO PUSH2 0x24A9 JUMPI RETURNDATASIZE PUSH1 0x0 DUP1 RETURNDATACOPY RETURNDATASIZE PUSH1 0x0 REVERT JUMPDEST POP POP POP POP PUSH1 0x40 MLOAD RETURNDATASIZE PUSH1 0x1F NOT PUSH1 0x1F DUP3 ADD AND DUP3 ADD DUP1 PUSH1 0x40 MSTORE POP DUP2 ADD SWAP1 PUSH2 0x24CD SWAP2 SWAP1 PUSH2 0x408A JUMP JUMPDEST SWAP1 POP PUSH2 0x24D7 PUSH2 0x31C6 JUMP JUMPDEST PUSH1 0x40 MLOAD PUSH4 0x70A08231 PUSH1 0xE0 SHL DUP2 MSTORE PUSH1 0x1 PUSH1 0x1 PUSH1 0xA0 SHL SUB PUSH32 0x0 AND PUSH1 0x4 DUP3 ADD MSTORE PUSH1 0x0 SWAP1 DUP3 SWAP1 PUSH20 0x9AE380F0272E2162340A5BB646C354271C0F5CFC SWAP1 PUSH4 0x70A08231 SWAP1 PUSH1 0x24 ADD PUSH1 0x20 PUSH1 0x40 MLOAD DUP1 DUP4 SUB DUP2 DUP7 GAS STATICCALL ISZERO DUP1 ISZERO PUSH2 0x2554 JUMPI RETURNDATASIZE PUSH1 0x0 DUP1 RETURNDATACOPY RETURNDATASIZE PUSH1 0x0 REVERT JUMPDEST POP POP POP POP PUSH1 0x40 MLOAD RETURNDATASIZE PUSH1 0x1F NOT PUSH1 0x1F DUP3 ADD AND DUP3 ADD DUP1 PUSH1 0x40 MSTORE POP DUP2 ADD SWAP1 PUSH2 0x2578 SWAP2 SWAP1 PUSH2 0x408A JUMP JUMPDEST PUSH2 0x2582 SWAP2 SWAP1 PUSH2 0x4077 JUMP JUMPDEST SWAP1 POP PUSH1 0x0 PUSH32 0x0 PUSH1 0x1 PUSH1 0x1 PUSH1 0xA0 SHL SUB AND PUSH4 0x48439E7E PUSH1 0x40 MLOAD DUP2 PUSH4 0xFFFFFFFF AND PUSH1 0xE0 SHL DUP2 MSTORE PUSH1 0x4 ADD PUSH1 0x20 PUSH1 0x40 MLOAD DUP1 DUP4 SUB DUP2 DUP7 GAS STATICCALL ISZERO DUP1 ISZERO PUSH2 0x25E4 JUMPI RETURNDATASIZE PUSH1 0x0 DUP1 RETURNDATACOPY RETURNDATASIZE PUSH1 0x0 REVERT JUMPDEST POP POP POP POP PUSH1 0x40 MLOAD RETURNDATASIZE PUSH1 0x1F NOT PUSH1 0x1F DUP3 ADD AND DUP3 ADD DUP1 PUSH1 0x40 MSTORE POP DUP2 ADD SWAP1 PUSH2 0x2608 SWAP2 SWAP1 PUSH2 0x4044 JUMP JUMPDEST PUSH1 0x40 MLOAD PUSH4 0x5598B209 PUSH1 0xE0 SHL DUP2 MSTORE PUSH1 0x1 PUSH1 0x1 PUSH1 0xA0 SHL SUB PUSH32 0x0 DUP2 AND PUSH1 0x4 DUP4 ADD MSTORE SWAP2 SWAP1 SWAP2 AND SWAP1 PUSH4 0x5598B209 SWAP1 PUSH1 0x24 ADD PUSH1 0x20 PUSH1 0x40 MLOAD DUP1 DUP4 SUB DUP2 DUP7 GAS STATICCALL ISZERO DUP1 ISZERO PUSH2 0x2670 JUMPI RETURNDATASIZE PUSH1 0x0 DUP1 RETURNDATACOPY RETURNDATASIZE PUSH1 0x0 REVERT JUMPDEST POP POP POP POP PUSH1 0x40 MLOAD RETURNDATASIZE PUSH1 0x1F NOT PUSH1 0x1F DUP3 ADD AND DUP3 ADD DUP1 PUSH1 0x40 MSTORE POP DUP2 ADD SWAP1 PUSH2 0x2694 SWAP2 SWAP1 PUSH2 0x408A JUMP JUMPDEST SWAP1 POP DUP1 ISZERO PUSH2 0x26EE JUMPI PUSH2 0x26A6 DUP3 DUP3 PUSH2 0x2C5C JUMP JUMPDEST PUSH3 0x636E63 PUSH1 0xE8 SHL PUSH1 0x0 SWAP1 DUP2 MSTORE PUSH1 0x6 PUSH1 0x20 MSTORE PUSH32 0x7AF089D8BDE560DF8F6FED82C9D27C7CABC5C74F30C79B49F5655E8729CB5C4E DUP1 SLOAD SWAP1 SWAP2 SWAP1 PUSH2 0x26E8 SWAP1 DUP5 SWAP1 PUSH2 0x4185 JUMP JUMPDEST SWAP1 SWAP2 SSTORE POP POP JUMPDEST PUSH1 0x40 MLOAD DUP3 DUP2 MSTORE PUSH32 0xFC8ED0CD46874D9C3CF1425E1B3BBF9C523BC17C4A959C2C2F600E016F4EDDEF SWAP1 PUSH1 0x20 ADD PUSH1 0x40 MLOAD DUP1 SWAP2 SUB SWAP1 LOG1 POP POP POP JUMP JUMPDEST PUSH1 0x40 MLOAD PUSH1 0x1 PUSH1 0x1 PUSH1 0xA0 SHL SUB DUP1 DUP6 AND PUSH1 0x24 DUP4 ADD MSTORE DUP4 AND PUSH1 0x44 DUP3 ADD MSTORE PUSH1 0x64 DUP2 ADD DUP3 SWAP1 MSTORE PUSH2 0x275E SWAP1 DUP6 SWAP1 PUSH4 0x23B872DD PUSH1 0xE0 SHL SWAP1 PUSH1 0x84 ADD PUSH2 0x1CFC JUMP JUMPDEST POP POP POP POP JUMP JUMPDEST PUSH1 0x0 PUSH2 0x234B DUP4 PUSH1 0x1 PUSH1 0x1 PUSH1 0xA0 SHL SUB DUP5 AND PUSH2 0x3218 JUMP JUMPDEST PUSH1 0x60 PUSH1 0x0 PUSH2 0x1D4A DUP4 PUSH2 0x3267 JUMP JUMPDEST PUSH1 0x0 DUP1 SLOAD PUSH1 0x1 PUSH1 0x1 PUSH1 0xA0 SHL SUB DUP4 DUP2 AND PUSH1 0x1 PUSH1 0x1 PUSH1 0xA0 SHL SUB NOT DUP4 AND DUP2 OR DUP5 SSTORE PUSH1 0x40 MLOAD SWAP2 SWAP1 SWAP3 AND SWAP3 DUP4 SWAP2 PUSH32 0x8BE0079C531659141344CD1FD0A4F28419497F9722A3DAAFE3B4186F6B6457E0 SWAP2 SWAP1 LOG3 POP POP JUMP JUMPDEST PUSH1 0x0 PUSH2 0x234B DUP4 PUSH1 0x1 PUSH1 0x1 PUSH1 0xA0 SHL SUB DUP5 AND PUSH2 0x32C3 JUMP JUMPDEST PUSH1 0x0 PUSH32 0x0 PUSH1 0x1 PUSH1 0x1 PUSH1 0xA0 SHL SUB AND PUSH4 0x48439E7E PUSH1 0x40 MLOAD DUP2 PUSH4 0xFFFFFFFF AND PUSH1 0xE0 SHL DUP2 MSTORE PUSH1 0x4 ADD PUSH1 0x20 PUSH1 0x40 MLOAD DUP1 DUP4 SUB DUP2 DUP7 GAS STATICCALL ISZERO DUP1 ISZERO PUSH2 0x284B JUMPI RETURNDATASIZE PUSH1 0x0 DUP1 RETURNDATACOPY RETURNDATASIZE PUSH1 0x0 REVERT JUMPDEST POP POP POP POP PUSH1 0x40 MLOAD RETURNDATASIZE PUSH1 0x1F NOT PUSH1 0x1F DUP3 ADD AND DUP3 ADD DUP1 PUSH1 0x40 MSTORE POP DUP2 ADD SWAP1 PUSH2 0x286F SWAP2 SWAP1 PUSH2 0x4044 JUMP JUMPDEST PUSH1 0x40 MLOAD PUSH4 0x7D2041E5 PUSH1 0xE1 SHL DUP2 MSTORE PUSH1 0x1 PUSH1 0x1 PUSH1 0xA0 SHL SUB PUSH32 0x0 DUP2 AND PUSH1 0x4 DUP4 ADD MSTORE DUP5 DUP2 AND PUSH1 0x24 DUP4 ADD MSTORE SWAP2 SWAP1 SWAP2 AND SWAP1 PUSH4 0xFA4083CA SWAP1 PUSH1 0x44 ADD PUSH1 0x20 PUSH1 0x40 MLOAD DUP1 DUP4 SUB DUP2 DUP7 GAS STATICCALL ISZERO DUP1 ISZERO PUSH2 0x28DF JUMPI RETURNDATASIZE PUSH1 0x0 DUP1 RETURNDATACOPY RETURNDATASIZE PUSH1 0x0 REVERT JUMPDEST POP POP POP POP PUSH1 0x40 MLOAD RETURNDATASIZE PUSH1 0x1F NOT PUSH1 0x1F DUP3 ADD AND DUP3 ADD DUP1 PUSH1 0x40 MSTORE POP DUP2 ADD SWAP1 PUSH2 0x2903 SWAP2 SWAP1 PUSH2 0x408A JUMP JUMPDEST SWAP1 POP PUSH2 0x290D PUSH2 0x5E9 JUMP JUMPDEST POP PUSH2 0x291F PUSH3 0x636E63 PUSH1 0xE8 SHL DUP4 DUP4 PUSH2 0x33B6 JUMP JUMPDEST PUSH2 0x2930 PUSH3 0x31B93B PUSH1 0xE9 SHL DUP4 DUP4 PUSH2 0x33B6 JUMP JUMPDEST PUSH2 0x1BE7 PUSH3 0xC6ECF PUSH1 0xEB SHL DUP4 DUP4 PUSH2 0x33B6 JUMP JUMPDEST PUSH1 0x0 DUP1 PUSH1 0x0 DUP1 PUSH32 0x0 PUSH1 0x1 PUSH1 0x1 PUSH1 0xA0 SHL SUB AND PUSH4 0xB050ECB8 PUSH1 0x40 MLOAD DUP2 PUSH4 0xFFFFFFFF AND PUSH1 0xE0 SHL DUP2 MSTORE PUSH1 0x4 ADD PUSH1 0x20 PUSH1 0x40 MLOAD DUP1 DUP4 SUB DUP2 DUP7 GAS STATICCALL ISZERO DUP1 ISZERO PUSH2 0x29A5 JUMPI RETURNDATASIZE PUSH1 0x0 DUP1 RETURNDATACOPY RETURNDATASIZE PUSH1 0x0 REVERT JUMPDEST POP POP POP POP PUSH1 0x40 MLOAD RETURNDATASIZE PUSH1 0x1F NOT PUSH1 0x1F DUP3 ADD AND DUP3 ADD DUP1 PUSH1 0x40 MSTORE POP DUP2 ADD SWAP1 PUSH2 0x29C9 SWAP2 SWAP1 PUSH2 0x4044 JUMP JUMPDEST SWAP1 POP PUSH2 0x29D4 DUP2 PUSH2 0x1DAB JUMP JUMPDEST SWAP4 POP SWAP4 POP SWAP4 POP POP SWAP1 SWAP2 SWAP3 JUMP JUMPDEST PUSH1 0x0 DUP6 DUP2 MSTORE PUSH1 0x6 PUSH1 0x20 MSTORE PUSH1 0x40 DUP2 KECCAK256 DUP1 SLOAD DUP4 ISZERO PUSH2 0x2A34 JUMPI PUSH1 0x8 SLOAD PUSH2 0x2A23 SWAP1 PUSH2 0x2A09 PUSH1 0x12 PUSH1 0xA PUSH2 0x427C JUMP JUMPDEST PUSH2 0x2A13 SWAP2 SWAP1 PUSH2 0x4077 JUMP JUMPDEST PUSH2 0x2A1D DUP10 DUP9 PUSH2 0x2C5C JUMP JUMPDEST SWAP1 PUSH2 0x2329 JUMP JUMPDEST PUSH2 0x2A2D SWAP1 DUP3 PUSH2 0x4185 JUMP JUMPDEST SWAP1 POP PUSH2 0x2A4B JUMP JUMPDEST PUSH2 0x2A3E DUP8 DUP7 PUSH2 0x2C5C JUMP JUMPDEST PUSH2 0x2A48 SWAP1 DUP3 PUSH2 0x4185 JUMP JUMPDEST SWAP1 POP JUMPDEST PUSH1 0x1 PUSH1 0x1 PUSH1 0xA0 SHL SUB DUP10 AND PUSH1 0x0 SWAP1 DUP2 MSTORE PUSH1 0x2 DUP4 ADD PUSH1 0x20 MSTORE PUSH1 0x40 SWAP1 KECCAK256 SLOAD PUSH2 0x2A7B SWAP1 PUSH2 0x2A74 SWAP1 DUP4 PUSH2 0x4077 JUMP JUMPDEST DUP8 SWAP1 PUSH2 0x2329 JUMP JUMPDEST PUSH1 0x1 PUSH1 0x1 PUSH1 0xA0 SHL SUB DUP11 AND PUSH1 0x0 SWAP1 DUP2 MSTORE PUSH1 0x3 DUP5 ADD PUSH1 0x20 MSTORE PUSH1 0x40 SWAP1 KECCAK256 SLOAD PUSH2 0x2AA0 SWAP2 SWAP1 PUSH2 0x4185 JUMP JUMPDEST SWAP10 SWAP9 POP POP POP POP POP POP POP POP POP JUMP JUMPDEST PUSH1 0x0 PUSH2 0x2B02 DUP3 PUSH1 0x40 MLOAD DUP1 PUSH1 0x40 ADD PUSH1 0x40 MSTORE DUP1 PUSH1 0x20 DUP2 MSTORE PUSH1 0x20 ADD PUSH32 0x5361666545524332303A206C6F772D6C6576656C2063616C6C206661696C6564 DUP2 MSTORE POP DUP6 PUSH1 0x1 PUSH1 0x1 PUSH1 0xA0 SHL SUB AND PUSH2 0x1D38 SWAP1 SWAP3 SWAP2 SWAP1 PUSH4 0xFFFFFFFF AND JUMP JUMPDEST DUP1 MLOAD SWAP1 SWAP2 POP ISZERO PUSH2 0x1D33 JUMPI DUP1 DUP1 PUSH1 0x20 ADD SWAP1 MLOAD DUP2 ADD SWAP1 PUSH2 0x2B20 SWAP2 SWAP1 PUSH2 0x42D1 JUMP JUMPDEST PUSH2 0x1D33 JUMPI PUSH1 0x40 MLOAD PUSH3 0x461BCD PUSH1 0xE5 SHL DUP2 MSTORE PUSH1 0x20 PUSH1 0x4 DUP3 ADD MSTORE PUSH1 0x2A PUSH1 0x24 DUP3 ADD MSTORE PUSH32 0x5361666545524332303A204552433230206F7065726174696F6E20646964206E PUSH1 0x44 DUP3 ADD MSTORE PUSH10 0x1BDD081CDD58D8D95959 PUSH1 0xB2 SHL PUSH1 0x64 DUP3 ADD MSTORE PUSH1 0x84 ADD PUSH2 0x53B JUMP JUMPDEST PUSH1 0x60 DUP3 SELFBALANCE LT ISZERO PUSH2 0x2BE0 JUMPI PUSH1 0x40 MLOAD PUSH3 0x461BCD PUSH1 0xE5 SHL DUP2 MSTORE PUSH1 0x20 PUSH1 0x4 DUP3 ADD MSTORE PUSH1 0x26 PUSH1 0x24 DUP3 ADD MSTORE PUSH32 0x416464726573733A20696E73756666696369656E742062616C616E636520666F PUSH1 0x44 DUP3 ADD MSTORE PUSH6 0x1C8818D85B1B PUSH1 0xD2 SHL PUSH1 0x64 DUP3 ADD MSTORE PUSH1 0x84 ADD PUSH2 0x53B JUMP JUMPDEST PUSH1 0x0 DUP1 DUP7 PUSH1 0x1 PUSH1 0x1 PUSH1 0xA0 SHL SUB AND DUP6 DUP8 PUSH1 0x40 MLOAD PUSH2 0x2BFC SWAP2 SWAP1 PUSH2 0x4310 JUMP JUMPDEST PUSH1 0x0 PUSH1 0x40 MLOAD DUP1 DUP4 SUB DUP2 DUP6 DUP8 GAS CALL SWAP3 POP POP POP RETURNDATASIZE DUP1 PUSH1 0x0 DUP2 EQ PUSH2 0x2C39 JUMPI PUSH1 0x40 MLOAD SWAP2 POP PUSH1 0x1F NOT PUSH1 0x3F RETURNDATASIZE ADD AND DUP3 ADD PUSH1 0x40 MSTORE RETURNDATASIZE DUP3 MSTORE RETURNDATASIZE PUSH1 0x0 PUSH1 0x20 DUP5 ADD RETURNDATACOPY PUSH2 0x2C3E JUMP JUMPDEST PUSH1 0x60 SWAP2 POP JUMPDEST POP SWAP2 POP SWAP2 POP PUSH2 0x2C4F DUP8 DUP4 DUP4 DUP8 PUSH2 0x3451 JUMP JUMPDEST SWAP3 POP POP POP JUMPDEST SWAP5 SWAP4 POP POP POP POP JUMP JUMPDEST PUSH1 0x0 DUP2 PUSH2 0x2C6B PUSH1 0x12 PUSH1 0xA PUSH2 0x427C JUMP JUMPDEST PUSH2 0x2341 SWAP1 DUP6 PUSH2 0x4288 JUMP JUMPDEST PUSH32 0x0 PUSH1 0x1 PUSH1 0x1 PUSH1 0xA0 SHL SUB AND PUSH4 0x48439E7E PUSH1 0x40 MLOAD DUP2 PUSH4 0xFFFFFFFF AND PUSH1 0xE0 SHL DUP2 MSTORE PUSH1 0x4 ADD PUSH1 0x20 PUSH1 0x40 MLOAD DUP1 DUP4 SUB DUP2 DUP7 GAS STATICCALL ISZERO DUP1 ISZERO PUSH2 0x2CD3 JUMPI RETURNDATASIZE PUSH1 0x0 DUP1 RETURNDATACOPY RETURNDATASIZE PUSH1 0x0 REVERT JUMPDEST POP POP POP POP PUSH1 0x40 MLOAD RETURNDATASIZE PUSH1 0x1F NOT PUSH1 0x1F DUP3 ADD AND DUP3 ADD DUP1 PUSH1 0x40 MSTORE POP DUP2 ADD SWAP1 PUSH2 0x2CF7 SWAP2 SWAP1 PUSH2 0x4044 JUMP JUMPDEST PUSH1 0x40 MLOAD PUSH4 0xA0190C17 PUSH1 0xE0 SHL DUP2 MSTORE PUSH1 0x1 PUSH1 0x1 PUSH1 0xA0 SHL SUB PUSH32 0x0 DUP2 AND PUSH1 0x4 DUP4 ADD MSTORE SWAP2 SWAP1 SWAP2 AND SWAP1 PUSH4 0xA0190C17 SWAP1 PUSH1 0x24 ADD PUSH1 0x0 PUSH1 0x40 MLOAD DUP1 DUP4 SUB DUP2 PUSH1 0x0 DUP8 DUP1 EXTCODESIZE ISZERO DUP1 ISZERO PUSH2 0x2D5C JUMPI PUSH1 0x0 DUP1 REVERT JUMPDEST POP GAS CALL ISZERO DUP1 ISZERO PUSH2 0x2D70 JUMPI RETURNDATASIZE PUSH1 0x0 DUP1 RETURNDATACOPY RETURNDATASIZE PUSH1 0x0 REVERT JUMPDEST POP POP PUSH1 0x40 MLOAD PUSH4 0x70A08231 PUSH1 0xE0 SHL DUP2 MSTORE PUSH1 0x1 PUSH1 0x1 PUSH1 0xA0 SHL SUB PUSH32 0x0 AND PUSH1 0x4 DUP3 ADD MSTORE PUSH1 0x0 SWAP3 POP PUSH1 0x0 DUP1 MLOAD PUSH1 0x20 PUSH2 0x4522 DUP4 CODECOPY DUP2 MLOAD SWAP2 MSTORE SWAP2 POP PUSH4 0x70A08231 SWAP1 PUSH1 0x24 ADD PUSH1 0x20 PUSH1 0x40 MLOAD DUP1 DUP4 SUB DUP2 DUP7 GAS STATICCALL ISZERO DUP1 ISZERO PUSH2 0x2DE9 JUMPI RETURNDATASIZE PUSH1 0x0 DUP1 RETURNDATACOPY RETURNDATASIZE PUSH1 0x0 REVERT JUMPDEST POP POP POP POP PUSH1 0x40 MLOAD RETURNDATASIZE PUSH1 0x1F NOT PUSH1 0x1F DUP3 ADD AND DUP3 ADD DUP1 PUSH1 0x40 MSTORE POP DUP2 ADD SWAP1 PUSH2 0x2E0D SWAP2 SWAP1 PUSH2 0x408A JUMP JUMPDEST PUSH1 0x40 MLOAD PUSH4 0x70A08231 PUSH1 0xE0 SHL DUP2 MSTORE PUSH1 0x1 PUSH1 0x1 PUSH1 0xA0 SHL SUB PUSH32 0x0 AND PUSH1 0x4 DUP3 ADD MSTORE SWAP1 SWAP2 POP PUSH1 0x0 SWAP1 PUSH1 0x0 DUP1 MLOAD PUSH1 0x20 PUSH2 0x4502 DUP4 CODECOPY DUP2 MLOAD SWAP2 MSTORE SWAP1 PUSH4 0x70A08231 SWAP1 PUSH1 0x24 ADD PUSH1 0x20 PUSH1 0x40 MLOAD DUP1 DUP4 SUB DUP2 DUP7 GAS STATICCALL ISZERO DUP1 ISZERO PUSH2 0x2E85 JUMPI RETURNDATASIZE PUSH1 0x0 DUP1 RETURNDATACOPY RETURNDATASIZE PUSH1 0x0 REVERT JUMPDEST POP POP POP POP PUSH1 0x40 MLOAD RETURNDATASIZE PUSH1 0x1F NOT PUSH1 0x1F DUP3 ADD AND DUP3 ADD DUP1 PUSH1 0x40 MSTORE POP DUP2 ADD SWAP1 PUSH2 0x2EA9 SWAP2 SWAP1 PUSH2 0x408A JUMP JUMPDEST SWAP1 POP PUSH1 0x0 PUSH32 0x0 PUSH1 0x1 PUSH1 0x1 PUSH1 0xA0 SHL SUB AND PUSH4 0xB050ECB8 PUSH1 0x40 MLOAD DUP2 PUSH4 0xFFFFFFFF AND PUSH1 0xE0 SHL DUP2 MSTORE PUSH1 0x4 ADD PUSH1 0x20 PUSH1 0x40 MLOAD DUP1 DUP4 SUB DUP2 DUP7 GAS STATICCALL ISZERO DUP1 ISZERO PUSH2 0x2F0B JUMPI RETURNDATASIZE PUSH1 0x0 DUP1 RETURNDATACOPY RETURNDATASIZE PUSH1 0x0 REVERT JUMPDEST POP POP POP POP PUSH1 0x40 MLOAD RETURNDATASIZE PUSH1 0x1F NOT PUSH1 0x1F DUP3 ADD AND DUP3 ADD DUP1 PUSH1 0x40 MSTORE POP DUP2 ADD SWAP1 PUSH2 0x2F2F SWAP2 SWAP1 PUSH2 0x4044 JUMP JUMPDEST SWAP1 POP DUP1 PUSH1 0x1 PUSH1 0x1 PUSH1 0xA0 SHL SUB AND PUSH4 0xBC810E26 PUSH32 0x0 PUSH1 0x1 PUSH1 0x1 PUSH1 0xA0 SHL SUB AND PUSH4 0x6F934ABE PUSH1 0x40 MLOAD DUP2 PUSH4 0xFFFFFFFF AND PUSH1 0xE0 SHL DUP2 MSTORE PUSH1 0x4 ADD PUSH1 0x0 PUSH1 0x40 MLOAD DUP1 DUP4 SUB DUP2 DUP7 GAS STATICCALL ISZERO DUP1 ISZERO PUSH2 0x2F9E JUMPI RETURNDATASIZE PUSH1 0x0 DUP1 RETURNDATACOPY RETURNDATASIZE PUSH1 0x0 REVERT JUMPDEST POP POP POP POP PUSH1 0x40 MLOAD RETURNDATASIZE PUSH1 0x0 DUP3 RETURNDATACOPY PUSH1 0x1F RETURNDATASIZE SWAP1 DUP2 ADD PUSH1 0x1F NOT AND DUP3 ADD PUSH1 0x40 MSTORE PUSH2 0x2FC6 SWAP2 SWAP1 DUP2 ADD SWAP1 PUSH2 0x40A3 JUMP JUMPDEST PUSH32 0x0 PUSH1 0x40 MLOAD DUP4 PUSH4 0xFFFFFFFF AND PUSH1 0xE0 SHL DUP2 MSTORE PUSH1 0x4 ADD PUSH2 0x3004 SWAP3 SWAP2 SWAP1 PUSH2 0x432C JUMP JUMPDEST PUSH1 0x0 PUSH1 0x40 MLOAD DUP1 DUP4 SUB DUP2 PUSH1 0x0 DUP8 DUP1 EXTCODESIZE ISZERO DUP1 ISZERO PUSH2 0x301E JUMPI PUSH1 0x0 DUP1 REVERT JUMPDEST POP GAS CALL ISZERO DUP1 ISZERO PUSH2 0x3032 JUMPI RETURNDATASIZE PUSH1 0x0 DUP1 RETURNDATACOPY RETURNDATASIZE PUSH1 0x0 REVERT JUMPDEST POP POP PUSH1 0x40 MLOAD PUSH4 0x70A08231 PUSH1 0xE0 SHL DUP2 MSTORE PUSH1 0x1 PUSH1 0x1 PUSH1 0xA0 SHL SUB PUSH32 0x0 AND PUSH1 0x4 DUP3 ADD MSTORE PUSH1 0x0 SWAP3 POP DUP6 SWAP2 POP PUSH1 0x0 DUP1 MLOAD PUSH1 0x20 PUSH2 0x4522 DUP4 CODECOPY DUP2 MLOAD SWAP2 MSTORE SWAP1 PUSH4 0x70A08231 SWAP1 PUSH1 0x24 ADD PUSH1 0x20 PUSH1 0x40 MLOAD DUP1 DUP4 SUB DUP2 DUP7 GAS STATICCALL ISZERO DUP1 ISZERO PUSH2 0x30AD JUMPI RETURNDATASIZE PUSH1 0x0 DUP1 RETURNDATACOPY RETURNDATASIZE PUSH1 0x0 REVERT JUMPDEST POP POP POP POP PUSH1 0x40 MLOAD RETURNDATASIZE PUSH1 0x1F NOT PUSH1 0x1F DUP3 ADD AND DUP3 ADD DUP1 PUSH1 0x40 MSTORE POP DUP2 ADD SWAP1 PUSH2 0x30D1 SWAP2 SWAP1 PUSH2 0x408A JUMP JUMPDEST PUSH2 0x30DB SWAP2 SWAP1 PUSH2 0x4077 JUMP JUMPDEST PUSH1 0x40 MLOAD PUSH4 0x70A08231 PUSH1 0xE0 SHL DUP2 MSTORE PUSH1 0x1 PUSH1 0x1 PUSH1 0xA0 SHL SUB PUSH32 0x0 AND PUSH1 0x4 DUP3 ADD MSTORE SWAP1 SWAP2 POP PUSH1 0x0 SWAP1 DUP5 SWAP1 PUSH1 0x0 DUP1 MLOAD PUSH1 0x20 PUSH2 0x4502 DUP4 CODECOPY DUP2 MLOAD SWAP2 MSTORE SWAP1 PUSH4 0x70A08231 SWAP1 PUSH1 0x24 ADD PUSH1 0x20 PUSH1 0x40 MLOAD DUP1 DUP4 SUB DUP2 DUP7 GAS STATICCALL ISZERO DUP1 ISZERO PUSH2 0x3155 JUMPI RETURNDATASIZE PUSH1 0x0 DUP1 RETURNDATACOPY RETURNDATASIZE PUSH1 0x0 REVERT JUMPDEST POP POP POP POP PUSH1 0x40 MLOAD RETURNDATASIZE PUSH1 0x1F NOT PUSH1 0x1F DUP3 ADD AND DUP3 ADD DUP1 PUSH1 0x40 MSTORE POP DUP2 ADD SWAP1 PUSH2 0x3179 SWAP2 SWAP1 PUSH2 0x408A JUMP JUMPDEST PUSH2 0x3183 SWAP2 SWAP1 PUSH2 0x4077 JUMP JUMPDEST PUSH1 0x40 DUP1 MLOAD DUP3 DUP2 MSTORE PUSH1 0x20 DUP2 ADD DUP6 SWAP1 MSTORE SWAP2 SWAP3 POP PUSH32 0x141D6E75554381BCC1326596E8010E6C432BB0988E14CA0310D85837A211D292 SWAP2 ADD PUSH1 0x40 MLOAD DUP1 SWAP2 SUB SWAP1 LOG1 POP POP POP POP POP JUMP JUMPDEST PUSH1 0x0 PUSH2 0x31D2 PUSH1 0x3 PUSH2 0x34CA JUMP JUMPDEST SWAP1 POP DUP1 PUSH1 0x0 SUB PUSH2 0x31DF JUMPI POP JUMP JUMPDEST PUSH1 0x0 JUMPDEST DUP2 DUP2 LT ISZERO PUSH2 0x320F JUMPI PUSH2 0x31FD PUSH2 0x31F8 PUSH1 0x3 DUP4 PUSH2 0x34D4 JUMP JUMPDEST PUSH2 0x34E0 JUMP JUMPDEST DUP1 PUSH2 0x3207 DUP2 PUSH2 0x4148 JUMP JUMPDEST SWAP2 POP POP PUSH2 0x31E2 JUMP JUMPDEST POP PUSH2 0x11E2 PUSH2 0x38A6 JUMP JUMPDEST PUSH1 0x0 DUP2 DUP2 MSTORE PUSH1 0x1 DUP4 ADD PUSH1 0x20 MSTORE PUSH1 0x40 DUP2 KECCAK256 SLOAD PUSH2 0x325F JUMPI POP DUP2 SLOAD PUSH1 0x1 DUP2 DUP2 ADD DUP5 SSTORE PUSH1 0x0 DUP5 DUP2 MSTORE PUSH1 0x20 DUP1 DUP3 KECCAK256 SWAP1 SWAP4 ADD DUP5 SWAP1 SSTORE DUP5 SLOAD DUP5 DUP3 MSTORE DUP3 DUP7 ADD SWAP1 SWAP4 MSTORE PUSH1 0x40 SWAP1 KECCAK256 SWAP2 SWAP1 SWAP2 SSTORE PUSH2 0x234E JUMP JUMPDEST POP PUSH1 0x0 PUSH2 0x234E JUMP JUMPDEST PUSH1 0x60 DUP2 PUSH1 0x0 ADD DUP1 SLOAD DUP1 PUSH1 0x20 MUL PUSH1 0x20 ADD PUSH1 0x40 MLOAD SWAP1 DUP2 ADD PUSH1 0x40 MSTORE DUP1 SWAP3 SWAP2 SWAP1 DUP2 DUP2 MSTORE PUSH1 0x20 ADD DUP3 DUP1 SLOAD DUP1 ISZERO PUSH2 0x32B7 JUMPI PUSH1 0x20 MUL DUP3 ADD SWAP2 SWAP1 PUSH1 0x0 MSTORE PUSH1 0x20 PUSH1 0x0 KECCAK256 SWAP1 JUMPDEST DUP2 SLOAD DUP2 MSTORE PUSH1 0x20 ADD SWAP1 PUSH1 0x1 ADD SWAP1 DUP1 DUP4 GT PUSH2 0x32A3 JUMPI JUMPDEST POP POP POP POP POP SWAP1 POP SWAP2 SWAP1 POP JUMP JUMPDEST PUSH1 0x0 DUP2 DUP2 MSTORE PUSH1 0x1 DUP4 ADD PUSH1 0x20 MSTORE PUSH1 0x40 DUP2 KECCAK256 SLOAD DUP1 ISZERO PUSH2 0x33AC JUMPI PUSH1 0x0 PUSH2 0x32E7 PUSH1 0x1 DUP4 PUSH2 0x4077 JUMP JUMPDEST DUP6 SLOAD SWAP1 SWAP2 POP PUSH1 0x0 SWAP1 PUSH2 0x32FB SWAP1 PUSH1 0x1 SWAP1 PUSH2 0x4077 JUMP JUMPDEST SWAP1 POP DUP2 DUP2 EQ PUSH2 0x3360 JUMPI PUSH1 0x0 DUP7 PUSH1 0x0 ADD DUP3 DUP2 SLOAD DUP2 LT PUSH2 0x331B JUMPI PUSH2 0x331B PUSH2 0x4132 JUMP JUMPDEST SWAP1 PUSH1 0x0 MSTORE PUSH1 0x20 PUSH1 0x0 KECCAK256 ADD SLOAD SWAP1 POP DUP1 DUP8 PUSH1 0x0 ADD DUP5 DUP2 SLOAD DUP2 LT PUSH2 0x333E JUMPI PUSH2 0x333E PUSH2 0x4132 JUMP JUMPDEST PUSH1 0x0 SWAP2 DUP3 MSTORE PUSH1 0x20 DUP1 DUP4 KECCAK256 SWAP1 SWAP2 ADD SWAP3 SWAP1 SWAP3 SSTORE SWAP2 DUP3 MSTORE PUSH1 0x1 DUP9 ADD SWAP1 MSTORE PUSH1 0x40 SWAP1 KECCAK256 DUP4 SWAP1 SSTORE JUMPDEST DUP6 SLOAD DUP7 SWAP1 DUP1 PUSH2 0x3371 JUMPI PUSH2 0x3371 PUSH2 0x4356 JUMP JUMPDEST PUSH1 0x1 SWAP1 SUB DUP2 DUP2 SWAP1 PUSH1 0x0 MSTORE PUSH1 0x20 PUSH1 0x0 KECCAK256 ADD PUSH1 0x0 SWAP1 SSTORE SWAP1 SSTORE DUP6 PUSH1 0x1 ADD PUSH1 0x0 DUP7 DUP2 MSTORE PUSH1 0x20 ADD SWAP1 DUP2 MSTORE PUSH1 0x20 ADD PUSH1 0x0 KECCAK256 PUSH1 0x0 SWAP1 SSTORE PUSH1 0x1 SWAP4 POP POP POP POP PUSH2 0x234E JUMP JUMPDEST PUSH1 0x0 SWAP2 POP POP PUSH2 0x234E JUMP JUMPDEST PUSH1 0x0 DUP4 DUP2 MSTORE PUSH1 0x6 PUSH1 0x20 SWAP1 DUP2 MSTORE PUSH1 0x40 DUP1 DUP4 KECCAK256 PUSH1 0x1 PUSH1 0x1 PUSH1 0xA0 SHL SUB DUP7 AND DUP5 MSTORE PUSH1 0x2 DUP2 ADD SWAP1 SWAP3 MSTORE DUP3 KECCAK256 SLOAD DUP2 SLOAD SWAP2 SWAP3 SWAP2 PUSH2 0x33F6 SWAP2 PUSH2 0x33EF SWAP2 PUSH2 0x4077 JUMP JUMPDEST DUP5 SWAP1 PUSH2 0x2329 JUMP JUMPDEST PUSH1 0x1 PUSH1 0x1 PUSH1 0xA0 SHL SUB DUP6 AND PUSH1 0x0 SWAP1 DUP2 MSTORE PUSH1 0x3 DUP5 ADD PUSH1 0x20 MSTORE PUSH1 0x40 DUP2 KECCAK256 DUP1 SLOAD SWAP3 SWAP4 POP DUP4 SWAP3 SWAP1 SWAP2 SWAP1 PUSH2 0x3425 SWAP1 DUP5 SWAP1 PUSH2 0x4185 JUMP JUMPDEST SWAP1 SWAP2 SSTORE POP POP DUP2 SLOAD PUSH1 0x1 PUSH1 0x1 PUSH1 0xA0 SHL SUB SWAP1 SWAP5 AND PUSH1 0x0 SWAP1 DUP2 MSTORE PUSH1 0x2 SWAP1 SWAP3 ADD PUSH1 0x20 MSTORE POP PUSH1 0x40 SWAP1 KECCAK256 SWAP2 SWAP1 SWAP2 SSTORE POP POP JUMP JUMPDEST PUSH1 0x60 DUP4 ISZERO PUSH2 0x34C0 JUMPI DUP3 MLOAD PUSH1 0x0 SUB PUSH2 0x34B9 JUMPI PUSH1 0x1 PUSH1 0x1 PUSH1 0xA0 SHL SUB DUP6 AND EXTCODESIZE PUSH2 0x34B9 JUMPI PUSH1 0x40 MLOAD PUSH3 0x461BCD PUSH1 0xE5 SHL DUP2 MSTORE PUSH1 0x20 PUSH1 0x4 DUP3 ADD MSTORE PUSH1 0x1D PUSH1 0x24 DUP3 ADD MSTORE PUSH32 0x416464726573733A2063616C6C20746F206E6F6E2D636F6E7472616374000000 PUSH1 0x44 DUP3 ADD MSTORE PUSH1 0x64 ADD PUSH2 0x53B JUMP JUMPDEST POP DUP2 PUSH2 0x2C54 JUMP JUMPDEST PUSH2 0x2C54 DUP4 DUP4 PUSH2 0x3A25 JUMP JUMPDEST PUSH1 0x0 PUSH2 0x234E DUP3 SLOAD SWAP1 JUMP JUMPDEST PUSH1 0x0 PUSH2 0x234B DUP4 DUP4 PUSH2 0x3A4F JUMP JUMPDEST PUSH1 0x40 MLOAD PUSH4 0x70A08231 PUSH1 0xE0 SHL DUP2 MSTORE ADDRESS PUSH1 0x4 DUP3 ADD MSTORE PUSH1 0x0 SWAP1 PUSH1 0x1 PUSH1 0x1 PUSH1 0xA0 SHL SUB DUP4 AND SWAP1 PUSH4 0x70A08231 SWAP1 PUSH1 0x24 ADD PUSH1 0x20 PUSH1 0x40 MLOAD DUP1 DUP4 SUB DUP2 DUP7 GAS STATICCALL ISZERO DUP1 ISZERO PUSH2 0x3527 JUMPI RETURNDATASIZE PUSH1 0x0 DUP1 RETURNDATACOPY RETURNDATASIZE PUSH1 0x0 REVERT JUMPDEST POP POP POP POP PUSH1 0x40 MLOAD RETURNDATASIZE PUSH1 0x1F NOT PUSH1 0x1F DUP3 ADD AND DUP3 ADD DUP1 PUSH1 0x40 MSTORE POP DUP2 ADD SWAP1 PUSH2 0x354B SWAP2 SWAP1 PUSH2 0x408A JUMP JUMPDEST SWAP1 POP DUP1 PUSH1 0x0 SUB PUSH2 0x3559 JUMPI POP POP JUMP JUMPDEST PUSH1 0x1 PUSH1 0x1 PUSH1 0xA0 SHL SUB DUP1 DUP4 AND PUSH1 0x0 SWAP1 DUP2 MSTORE PUSH1 0x5 PUSH1 0x20 MSTORE PUSH1 0x40 SWAP1 KECCAK256 SLOAD AND DUP1 ISZERO PUSH2 0x3766 JUMPI PUSH1 0x0 DUP1 PUSH32 0x0 PUSH1 0x1 PUSH1 0x1 PUSH1 0xA0 SHL SUB AND PUSH4 0x9F82B217 PUSH1 0x40 MLOAD DUP2 PUSH4 0xFFFFFFFF AND PUSH1 0xE0 SHL DUP2 MSTORE PUSH1 0x4 ADD PUSH1 0x20 PUSH1 0x40 MLOAD DUP1 DUP4 SUB DUP2 DUP7 GAS STATICCALL ISZERO DUP1 ISZERO PUSH2 0x35DB JUMPI RETURNDATASIZE PUSH1 0x0 DUP1 RETURNDATACOPY RETURNDATASIZE PUSH1 0x0 REVERT JUMPDEST POP POP POP POP PUSH1 0x40 MLOAD RETURNDATASIZE PUSH1 0x1F NOT PUSH1 0x1F DUP3 ADD AND DUP3 ADD DUP1 PUSH1 0x40 MSTORE POP DUP2 ADD SWAP1 PUSH2 0x35FF SWAP2 SWAP1 PUSH2 0x4044 JUMP JUMPDEST PUSH1 0x40 MLOAD PUSH4 0x2FEAAC85 PUSH1 0xE1 SHL DUP2 MSTORE PUSH1 0x1 PUSH1 0x1 PUSH1 0xA0 SHL SUB DUP6 DUP2 AND PUSH1 0x4 DUP4 ADD MSTORE DUP8 DUP2 AND PUSH1 0x24 DUP4 ADD MSTORE PUSH20 0xC02AAA39B223FE8D0A0E5C4F27EAD9083C756CC2 PUSH1 0x44 DUP4 ADD MSTORE SWAP2 SWAP1 SWAP2 AND SWAP1 PUSH4 0x5FD5590A SWAP1 PUSH1 0x64 ADD PUSH1 0x60 PUSH1 0x40 MLOAD DUP1 DUP4 SUB DUP2 DUP7 GAS STATICCALL ISZERO DUP1 ISZERO PUSH2 0x3669 JUMPI RETURNDATASIZE PUSH1 0x0 DUP1 RETURNDATACOPY RETURNDATASIZE PUSH1 0x0 REVERT JUMPDEST POP POP POP POP PUSH1 0x40 MLOAD RETURNDATASIZE PUSH1 0x1F NOT PUSH1 0x1F DUP3 ADD AND DUP3 ADD DUP1 PUSH1 0x40 MSTORE POP DUP2 ADD SWAP1 PUSH2 0x368D SWAP2 SWAP1 PUSH2 0x437E JUMP JUMPDEST POP SWAP1 SWAP3 POP SWAP1 POP PUSH16 0xFFFFFFFFFFFFFFFFFFFFFFFFFFFFFFFF DUP1 DUP4 AND SWAP1 DUP3 AND PUSH1 0x1 PUSH1 0x1 PUSH1 0xA0 SHL SUB DUP6 AND PUSH4 0xCE7D6503 DUP4 DUP4 DUP10 PUSH2 0x36DB DUP13 PUSH20 0xC02AAA39B223FE8D0A0E5C4F27EAD9083C756CC2 DUP4 PUSH2 0x3A79 JUMP JUMPDEST PUSH1 0x40 MLOAD PUSH1 0x1 PUSH1 0x1 PUSH1 0xE0 SHL SUB NOT PUSH1 0xE0 DUP8 SWAP1 SHL AND DUP2 MSTORE PUSH1 0x4 DUP2 ADD SWAP5 SWAP1 SWAP5 MSTORE PUSH1 0x24 DUP5 ADD SWAP3 SWAP1 SWAP3 MSTORE PUSH1 0x44 DUP4 ADD MSTORE PUSH1 0x64 DUP3 ADD MSTORE PUSH1 0x0 PUSH1 0x84 DUP3 ADD MSTORE ADDRESS PUSH1 0xA4 DUP3 ADD MSTORE PUSH1 0xC4 ADD PUSH1 0x20 PUSH1 0x40 MLOAD DUP1 DUP4 SUB DUP2 PUSH1 0x0 DUP8 GAS CALL ISZERO DUP1 ISZERO PUSH2 0x3738 JUMPI RETURNDATASIZE PUSH1 0x0 DUP1 RETURNDATACOPY RETURNDATASIZE PUSH1 0x0 REVERT JUMPDEST POP POP POP POP PUSH1 0x40 MLOAD RETURNDATASIZE PUSH1 0x1F NOT PUSH1 0x1F DUP3 ADD AND DUP3 ADD DUP1 PUSH1 0x40 MSTORE POP DUP2 ADD SWAP1 PUSH2 0x375C SWAP2 SWAP1 PUSH2 0x408A JUMP JUMPDEST POP POP POP POP POP POP POP POP JUMP JUMPDEST PUSH1 0x40 DUP1 MLOAD PUSH1 0x2 DUP1 DUP3 MSTORE PUSH1 0x60 DUP3 ADD DUP4 MSTORE PUSH1 0x0 SWAP3 PUSH1 0x20 DUP4 ADD SWAP1 DUP1 CALLDATASIZE DUP4 CALLDATACOPY ADD SWAP1 POP POP SWAP1 POP DUP4 DUP2 PUSH1 0x0 DUP2 MLOAD DUP2 LT PUSH2 0x379B JUMPI PUSH2 0x379B PUSH2 0x4132 JUMP JUMPDEST PUSH1 0x20 MUL PUSH1 0x20 ADD ADD SWAP1 PUSH1 0x1 PUSH1 0x1 PUSH1 0xA0 SHL SUB AND SWAP1 DUP2 PUSH1 0x1 PUSH1 0x1 PUSH1 0xA0 SHL SUB AND DUP2 MSTORE POP POP PUSH20 0xC02AAA39B223FE8D0A0E5C4F27EAD9083C756CC2 DUP2 PUSH1 0x1 DUP2 MLOAD DUP2 LT PUSH2 0x37E3 JUMPI PUSH2 0x37E3 PUSH2 0x4132 JUMP JUMPDEST PUSH1 0x1 PUSH1 0x1 PUSH1 0xA0 SHL SUB SWAP1 SWAP3 AND PUSH1 0x20 SWAP3 DUP4 MUL SWAP2 SWAP1 SWAP2 ADD SWAP1 SWAP2 ADD MSTORE PUSH20 0xD9E1CE17F2641F24AE83637AB66A2CCA9C378B9F PUSH4 0x38ED1739 DUP5 PUSH2 0x3835 DUP8 PUSH20 0xC02AAA39B223FE8D0A0E5C4F27EAD9083C756CC2 DUP4 PUSH2 0x3A79 JUMP JUMPDEST DUP5 ADDRESS TIMESTAMP PUSH1 0x40 MLOAD DUP7 PUSH4 0xFFFFFFFF AND PUSH1 0xE0 SHL DUP2 MSTORE PUSH1 0x4 ADD PUSH2 0x3858 SWAP6 SWAP5 SWAP4 SWAP3 SWAP2 SWAP1 PUSH2 0x43C1 JUMP JUMPDEST PUSH1 0x0 PUSH1 0x40 MLOAD DUP1 DUP4 SUB DUP2 PUSH1 0x0 DUP8 GAS CALL ISZERO DUP1 ISZERO PUSH2 0x3877 JUMPI RETURNDATASIZE PUSH1 0x0 DUP1 RETURNDATACOPY RETURNDATASIZE PUSH1 0x0 REVERT JUMPDEST POP POP POP POP PUSH1 0x40 MLOAD RETURNDATASIZE PUSH1 0x0 DUP3 RETURNDATACOPY PUSH1 0x1F RETURNDATASIZE SWAP1 DUP2 ADD PUSH1 0x1F NOT AND DUP3 ADD PUSH1 0x40 MSTORE PUSH2 0x389F SWAP2 SWAP1 DUP2 ADD SWAP1 PUSH2 0x43FD JUMP JUMPDEST POP POP POP POP POP JUMP JUMPDEST PUSH1 0x40 MLOAD PUSH4 0x70A08231 PUSH1 0xE0 SHL DUP2 MSTORE ADDRESS PUSH1 0x4 DUP3 ADD MSTORE PUSH1 0x0 SWAP1 PUSH20 0xC02AAA39B223FE8D0A0E5C4F27EAD9083C756CC2 SWAP1 PUSH4 0x70A08231 SWAP1 PUSH1 0x24 ADD PUSH1 0x20 PUSH1 0x40 MLOAD DUP1 DUP4 SUB DUP2 DUP7 GAS STATICCALL ISZERO DUP1 ISZERO PUSH2 0x38F8 JUMPI RETURNDATASIZE PUSH1 0x0 DUP1 RETURNDATACOPY RETURNDATASIZE PUSH1 0x0 REVERT JUMPDEST POP POP POP POP PUSH1 0x40 MLOAD RETURNDATASIZE PUSH1 0x1F NOT PUSH1 0x1F DUP3 ADD AND DUP3 ADD DUP1 PUSH1 0x40 MSTORE POP DUP2 ADD SWAP1 PUSH2 0x391C SWAP2 SWAP1 PUSH2 0x408A JUMP JUMPDEST SWAP1 POP DUP1 PUSH1 0x0 SUB PUSH2 0x3929 JUMPI POP JUMP JUMPDEST PUSH20 0x838AF967537350D2C44ABB8C010E49E32673AB94 PUSH4 0xCE7D6503 PUSH1 0x0 PUSH1 0x1 DUP5 PUSH2 0x397B PUSH20 0xC02AAA39B223FE8D0A0E5C4F27EAD9083C756CC2 PUSH20 0x9AE380F0272E2162340A5BB646C354271C0F5CFC DUP4 PUSH2 0x3A79 JUMP JUMPDEST PUSH1 0x40 MLOAD PUSH1 0x1 PUSH1 0x1 PUSH1 0xE0 SHL SUB NOT PUSH1 0xE0 DUP8 SWAP1 SHL AND DUP2 MSTORE PUSH1 0x4 DUP2 ADD SWAP5 SWAP1 SWAP5 MSTORE PUSH1 0x24 DUP5 ADD SWAP3 SWAP1 SWAP3 MSTORE PUSH1 0x44 DUP4 ADD MSTORE PUSH1 0x64 DUP3 ADD MSTORE PUSH1 0x0 PUSH1 0x84 DUP3 ADD MSTORE PUSH1 0x1 PUSH1 0x1 PUSH1 0xA0 SHL SUB PUSH32 0x0 AND PUSH1 0xA4 DUP3 ADD MSTORE PUSH1 0xC4 ADD PUSH1 0x20 PUSH1 0x40 MLOAD DUP1 DUP4 SUB DUP2 PUSH1 0x0 DUP8 GAS CALL ISZERO DUP1 ISZERO PUSH2 0x3A01 JUMPI RETURNDATASIZE PUSH1 0x0 DUP1 RETURNDATACOPY RETURNDATASIZE PUSH1 0x0 REVERT JUMPDEST POP POP POP POP PUSH1 0x40 MLOAD RETURNDATASIZE PUSH1 0x1F NOT PUSH1 0x1F DUP3 ADD AND DUP3 ADD DUP1 PUSH1 0x40 MSTORE POP DUP2 ADD SWAP1 PUSH2 0x1BE7 SWAP2 SWAP1 PUSH2 0x408A JUMP JUMPDEST DUP2 MLOAD ISZERO PUSH2 0x3A35 JUMPI DUP2 MLOAD DUP1 DUP4 PUSH1 0x20 ADD REVERT JUMPDEST DUP1 PUSH1 0x40 MLOAD PUSH3 0x461BCD PUSH1 0xE5 SHL DUP2 MSTORE PUSH1 0x4 ADD PUSH2 0x53B SWAP2 SWAP1 PUSH2 0x4483 JUMP JUMPDEST PUSH1 0x0 DUP3 PUSH1 0x0 ADD DUP3 DUP2 SLOAD DUP2 LT PUSH2 0x3A66 JUMPI PUSH2 0x3A66 PUSH2 0x4132 JUMP JUMPDEST SWAP1 PUSH1 0x0 MSTORE PUSH1 0x20 PUSH1 0x0 KECCAK256 ADD SLOAD SWAP1 POP SWAP3 SWAP2 POP POP JUMP JUMPDEST PUSH1 0x0 DUP1 PUSH32 0x0 PUSH1 0x1 PUSH1 0x1 PUSH1 0xA0 SHL SUB AND PUSH4 0x2630C12F PUSH1 0x40 MLOAD DUP2 PUSH4 0xFFFFFFFF AND PUSH1 0xE0 SHL DUP2 MSTORE PUSH1 0x4 ADD PUSH1 0x20 PUSH1 0x40 MLOAD DUP1 DUP4 SUB DUP2 DUP7 GAS STATICCALL ISZERO DUP1 ISZERO PUSH2 0x3ADA JUMPI RETURNDATASIZE PUSH1 0x0 DUP1 RETURNDATACOPY RETURNDATASIZE PUSH1 0x0 REVERT JUMPDEST POP POP POP POP PUSH1 0x40 MLOAD RETURNDATASIZE PUSH1 0x1F NOT PUSH1 0x1F DUP3 ADD AND DUP3 ADD DUP1 PUSH1 0x40 MSTORE POP DUP2 ADD SWAP1 PUSH2 0x3AFE SWAP2 SWAP1 PUSH2 0x4044 JUMP JUMPDEST SWAP1 POP DUP4 PUSH1 0x1 PUSH1 0x1 PUSH1 0xA0 SHL SUB AND DUP6 PUSH1 0x1 PUSH1 0x1 PUSH1 0xA0 SHL SUB AND SUB PUSH2 0x3B22 JUMPI DUP3 SWAP2 POP POP PUSH2 0x1D4A JUMP JUMPDEST PUSH1 0x40 MLOAD PUSH4 0x75151B63 PUSH1 0xE0 SHL DUP2 MSTORE PUSH1 0x1 PUSH1 0x1 PUSH1 0xA0 SHL SUB DUP7 DUP2 AND PUSH1 0x4 DUP4 ADD MSTORE DUP3 AND SWAP1 PUSH4 0x75151B63 SWAP1 PUSH1 0x24 ADD PUSH1 0x20 PUSH1 0x40 MLOAD DUP1 DUP4 SUB DUP2 DUP7 GAS STATICCALL ISZERO DUP1 ISZERO PUSH2 0x3B68 JUMPI RETURNDATASIZE PUSH1 0x0 DUP1 RETURNDATACOPY RETURNDATASIZE PUSH1 0x0 REVERT JUMPDEST POP POP POP POP PUSH1 0x40 MLOAD RETURNDATASIZE PUSH1 0x1F NOT PUSH1 0x1F DUP3 ADD AND DUP3 ADD DUP1 PUSH1 0x40 MSTORE POP DUP2 ADD SWAP1 PUSH2 0x3B8C SWAP2 SWAP1 PUSH2 0x42D1 JUMP JUMPDEST ISZERO DUP1 PUSH2 0x3BFF JUMPI POP PUSH1 0x40 MLOAD PUSH4 0x75151B63 PUSH1 0xE0 SHL DUP2 MSTORE PUSH1 0x1 PUSH1 0x1 PUSH1 0xA0 SHL SUB DUP6 DUP2 AND PUSH1 0x4 DUP4 ADD MSTORE DUP3 AND SWAP1 PUSH4 0x75151B63 SWAP1 PUSH1 0x24 ADD PUSH1 0x20 PUSH1 0x40 MLOAD DUP1 DUP4 SUB DUP2 DUP7 GAS STATICCALL ISZERO DUP1 ISZERO PUSH2 0x3BD9 JUMPI RETURNDATASIZE PUSH1 0x0 DUP1 RETURNDATACOPY RETURNDATASIZE PUSH1 0x0 REVERT JUMPDEST POP POP POP POP PUSH1 0x40 MLOAD RETURNDATASIZE PUSH1 0x1F NOT PUSH1 0x1F DUP3 ADD AND DUP3 ADD DUP1 PUSH1 0x40 MSTORE POP DUP2 ADD SWAP1 PUSH2 0x3BFD SWAP2 SWAP1 PUSH2 0x42D1 JUMP JUMPDEST ISZERO JUMPDEST ISZERO PUSH2 0x3C0E JUMPI PUSH1 0x0 SWAP2 POP POP PUSH2 0x1D4A JUMP JUMPDEST PUSH2 0x3DD3 PUSH8 0xD2F13F7789F0000 PUSH2 0x2A1D DUP8 PUSH1 0x1 PUSH1 0x1 PUSH1 0xA0 SHL SUB AND PUSH4 0x313CE567 PUSH1 0x40 MLOAD DUP2 PUSH4 0xFFFFFFFF AND PUSH1 0xE0 SHL DUP2 MSTORE PUSH1 0x4 ADD PUSH1 0x20 PUSH1 0x40 MLOAD DUP1 DUP4 SUB DUP2 DUP7 GAS STATICCALL ISZERO DUP1 ISZERO PUSH2 0x3C5B JUMPI RETURNDATASIZE PUSH1 0x0 DUP1 RETURNDATACOPY RETURNDATASIZE PUSH1 0x0 REVERT JUMPDEST POP POP POP POP PUSH1 0x40 MLOAD RETURNDATASIZE PUSH1 0x1F NOT PUSH1 0x1F DUP3 ADD AND DUP3 ADD DUP1 PUSH1 0x40 MSTORE POP DUP2 ADD SWAP1 PUSH2 0x3C7F SWAP2 SWAP1 PUSH2 0x44B6 JUMP JUMPDEST DUP8 PUSH1 0x1 PUSH1 0x1 PUSH1 0xA0 SHL SUB AND PUSH4 0x313CE567 PUSH1 0x40 MLOAD DUP2 PUSH4 0xFFFFFFFF AND PUSH1 0xE0 SHL DUP2 MSTORE PUSH1 0x4 ADD PUSH1 0x20 PUSH1 0x40 MLOAD DUP1 DUP4 SUB DUP2 DUP7 GAS STATICCALL ISZERO DUP1 ISZERO PUSH2 0x3CBD JUMPI RETURNDATASIZE PUSH1 0x0 DUP1 RETURNDATACOPY RETURNDATASIZE PUSH1 0x0 REVERT JUMPDEST POP POP POP POP PUSH1 0x40 MLOAD RETURNDATASIZE PUSH1 0x1F NOT PUSH1 0x1F DUP3 ADD AND DUP3 ADD DUP1 PUSH1 0x40 MSTORE POP DUP2 ADD SWAP1 PUSH2 0x3CE1 SWAP2 SWAP1 PUSH2 0x44B6 JUMP JUMPDEST PUSH1 0x40 MLOAD PUSH4 0x8B2F0F4F PUSH1 0xE0 SHL DUP2 MSTORE PUSH1 0x1 PUSH1 0x1 PUSH1 0xA0 SHL SUB DUP11 DUP2 AND PUSH1 0x4 DUP4 ADD MSTORE PUSH2 0x3DCC SWAP2 SWAP1 DUP9 AND SWAP1 PUSH4 0x8B2F0F4F SWAP1 PUSH1 0x24 ADD PUSH1 0x20 PUSH1 0x40 MLOAD DUP1 DUP4 SUB DUP2 DUP7 GAS STATICCALL ISZERO DUP1 ISZERO PUSH2 0x3D2C JUMPI RETURNDATASIZE PUSH1 0x0 DUP1 RETURNDATACOPY RETURNDATASIZE PUSH1 0x0 REVERT JUMPDEST POP POP POP POP PUSH1 0x40 MLOAD RETURNDATASIZE PUSH1 0x1F NOT PUSH1 0x1F DUP3 ADD AND DUP3 ADD DUP1 PUSH1 0x40 MSTORE POP DUP2 ADD SWAP1 PUSH2 0x3D50 SWAP2 SWAP1 PUSH2 0x408A JUMP JUMPDEST PUSH1 0x40 MLOAD PUSH4 0x8B2F0F4F PUSH1 0xE0 SHL DUP2 MSTORE PUSH1 0x1 PUSH1 0x1 PUSH1 0xA0 SHL SUB DUP14 DUP2 AND PUSH1 0x4 DUP4 ADD MSTORE PUSH2 0x3DC6 SWAP2 SWAP1 DUP11 AND SWAP1 PUSH4 0x8B2F0F4F SWAP1 PUSH1 0x24 ADD PUSH1 0x20 PUSH1 0x40 MLOAD DUP1 DUP4 SUB DUP2 DUP7 GAS STATICCALL ISZERO DUP1 ISZERO PUSH2 0x3D9B JUMPI RETURNDATASIZE PUSH1 0x0 DUP1 RETURNDATACOPY RETURNDATASIZE PUSH1 0x0 REVERT JUMPDEST POP POP POP POP PUSH1 0x40 MLOAD RETURNDATASIZE PUSH1 0x1F NOT PUSH1 0x1F DUP3 ADD AND DUP3 ADD DUP1 PUSH1 0x40 MSTORE POP DUP2 ADD SWAP1 PUSH2 0x3DBF SWAP2 SWAP1 PUSH2 0x408A JUMP JUMPDEST DUP12 SWAP1 PUSH2 0x2329 JUMP JUMPDEST SWAP1 PUSH2 0x2C5C JUMP JUMPDEST SWAP2 SWAP1 PUSH2 0x3DDC JUMP JUMPDEST SWAP6 SWAP5 POP POP POP POP POP JUMP JUMPDEST PUSH1 0x0 DUP2 PUSH1 0xFF AND DUP4 PUSH1 0xFF AND SUB PUSH2 0x3DF2 JUMPI POP DUP3 PUSH2 0x1D4A JUMP JUMPDEST DUP2 PUSH1 0xFF AND DUP4 PUSH1 0xFF AND GT ISZERO PUSH2 0x3E12 JUMPI PUSH2 0x3E0B DUP5 DUP5 DUP5 PUSH2 0x3E1D JUMP JUMPDEST SWAP1 POP PUSH2 0x1D4A JUMP JUMPDEST PUSH2 0x1D47 DUP5 DUP5 DUP5 PUSH2 0x3E3E JUMP JUMPDEST PUSH1 0x0 PUSH2 0x3E29 DUP3 DUP5 PUSH2 0x44D9 JUMP JUMPDEST PUSH2 0x3E34 SWAP1 PUSH1 0xA PUSH2 0x44F2 JUMP JUMPDEST PUSH2 0x1D47 SWAP1 DUP6 PUSH2 0x429F JUMP JUMPDEST PUSH1 0x0 PUSH2 0x3E4A DUP4 DUP4 PUSH2 0x44D9 JUMP JUMPDEST PUSH2 0x3E55 SWAP1 PUSH1 0xA PUSH2 0x44F2 JUMP JUMPDEST PUSH2 0x1D47 SWAP1 DUP6 PUSH2 0x4288 JUMP JUMPDEST PUSH1 0x1 PUSH1 0x1 PUSH1 0xA0 SHL SUB DUP2 AND DUP2 EQ PUSH2 0x11E2 JUMPI PUSH1 0x0 DUP1 REVERT JUMPDEST PUSH1 0x0 DUP1 PUSH1 0x40 DUP4 DUP6 SUB SLT ISZERO PUSH2 0x3E87 JUMPI PUSH1 0x0 DUP1 REVERT JUMPDEST DUP3 CALLDATALOAD PUSH2 0x3E92 DUP2 PUSH2 0x3E5F JUMP JUMPDEST SWAP2 POP PUSH1 0x20 DUP4 ADD CALLDATALOAD PUSH2 0x3EA2 DUP2 PUSH2 0x3E5F JUMP JUMPDEST DUP1 SWAP2 POP POP SWAP3 POP SWAP3 SWAP1 POP JUMP JUMPDEST PUSH1 0x0 PUSH1 0x20 DUP3 DUP5 SUB SLT ISZERO PUSH2 0x3EBF JUMPI PUSH1 0x0 DUP1 REVERT JUMPDEST DUP2 CALLDATALOAD PUSH2 0x1D4A DUP2 PUSH2 0x3E5F JUMP JUMPDEST PUSH1 0x0 DUP2 MLOAD DUP1 DUP5 MSTORE PUSH1 0x20 DUP1 DUP6 ADD SWAP5 POP DUP1 DUP5 ADD PUSH1 0x0 JUMPDEST DUP4 DUP2 LT ISZERO PUSH2 0x3F03 JUMPI DUP2 MLOAD PUSH1 0x1 PUSH1 0x1 PUSH1 0xA0 SHL SUB AND DUP8 MSTORE SWAP6 DUP3 ADD SWAP6 SWAP1 DUP3 ADD SWAP1 PUSH1 0x1 ADD PUSH2 0x3EDE JUMP JUMPDEST POP SWAP5 SWAP6 SWAP5 POP POP POP POP POP JUMP JUMPDEST PUSH1 0x20 DUP2 MSTORE PUSH1 0x0 PUSH2 0x234B PUSH1 0x20 DUP4 ADD DUP5 PUSH2 0x3ECA JUMP JUMPDEST PUSH1 0x0 PUSH1 0x20 DUP3 DUP5 SUB SLT ISZERO PUSH2 0x3F33 JUMPI PUSH1 0x0 DUP1 REVERT JUMPDEST POP CALLDATALOAD SWAP2 SWAP1 POP JUMP JUMPDEST PUSH4 0x4E487B71 PUSH1 0xE0 SHL PUSH1 0x0 MSTORE PUSH1 0x41 PUSH1 0x4 MSTORE PUSH1 0x24 PUSH1 0x0 REVERT JUMPDEST PUSH1 0x40 MLOAD PUSH1 0x1F DUP3 ADD PUSH1 0x1F NOT AND DUP2 ADD PUSH8 0xFFFFFFFFFFFFFFFF DUP2 GT DUP3 DUP3 LT OR ISZERO PUSH2 0x3F79 JUMPI PUSH2 0x3F79 PUSH2 0x3F3A JUMP JUMPDEST PUSH1 0x40 MSTORE SWAP2 SWAP1 POP JUMP JUMPDEST PUSH1 0x0 PUSH8 0xFFFFFFFFFFFFFFFF DUP3 GT ISZERO PUSH2 0x3F9B JUMPI PUSH2 0x3F9B PUSH2 0x3F3A JUMP JUMPDEST POP PUSH1 0x5 SHL PUSH1 0x20 ADD SWAP1 JUMP JUMPDEST PUSH1 0x0 PUSH1 0x20 DUP1 DUP4 DUP6 SUB SLT ISZERO PUSH2 0x3FB8 JUMPI PUSH1 0x0 DUP1 REVERT JUMPDEST DUP3 CALLDATALOAD PUSH8 0xFFFFFFFFFFFFFFFF DUP2 GT ISZERO PUSH2 0x3FCF JUMPI PUSH1 0x0 DUP1 REVERT JUMPDEST DUP4 ADD PUSH1 0x1F DUP2 ADD DUP6 SGT PUSH2 0x3FE0 JUMPI PUSH1 0x0 DUP1 REVERT JUMPDEST DUP1 CALLDATALOAD PUSH2 0x3FF3 PUSH2 0x3FEE DUP3 PUSH2 0x3F81 JUMP JUMPDEST PUSH2 0x3F50 JUMP JUMPDEST DUP2 DUP2 MSTORE PUSH1 0x5 SWAP2 SWAP1 SWAP2 SHL DUP3 ADD DUP4 ADD SWAP1 DUP4 DUP2 ADD SWAP1 DUP8 DUP4 GT ISZERO PUSH2 0x4012 JUMPI PUSH1 0x0 DUP1 REVERT JUMPDEST SWAP3 DUP5 ADD SWAP3 JUMPDEST DUP3 DUP5 LT ISZERO PUSH2 0x4039 JUMPI DUP4 CALLDATALOAD PUSH2 0x402A DUP2 PUSH2 0x3E5F JUMP JUMPDEST DUP3 MSTORE SWAP3 DUP5 ADD SWAP3 SWAP1 DUP5 ADD SWAP1 PUSH2 0x4017 JUMP JUMPDEST SWAP8 SWAP7 POP POP POP POP POP POP POP JUMP JUMPDEST PUSH1 0x0 PUSH1 0x20 DUP3 DUP5 SUB SLT ISZERO PUSH2 0x4056 JUMPI PUSH1 0x0 DUP1 REVERT JUMPDEST DUP2 MLOAD PUSH2 0x1D4A DUP2 PUSH2 0x3E5F JUMP JUMPDEST PUSH4 0x4E487B71 PUSH1 0xE0 SHL PUSH1 0x0 MSTORE PUSH1 0x11 PUSH1 0x4 MSTORE PUSH1 0x24 PUSH1 0x0 REVERT JUMPDEST DUP2 DUP2 SUB DUP2 DUP2 GT ISZERO PUSH2 0x234E JUMPI PUSH2 0x234E PUSH2 0x4061 JUMP JUMPDEST PUSH1 0x0 PUSH1 0x20 DUP3 DUP5 SUB SLT ISZERO PUSH2 0x409C JUMPI PUSH1 0x0 DUP1 REVERT JUMPDEST POP MLOAD SWAP2 SWAP1 POP JUMP JUMPDEST PUSH1 0x0 PUSH1 0x20 DUP1 DUP4 DUP6 SUB SLT ISZERO PUSH2 0x40B6 JUMPI PUSH1 0x0 DUP1 REVERT JUMPDEST DUP3 MLOAD PUSH8 0xFFFFFFFFFFFFFFFF DUP2 GT ISZERO PUSH2 0x40CD JUMPI PUSH1 0x0 DUP1 REVERT JUMPDEST DUP4 ADD PUSH1 0x1F DUP2 ADD DUP6 SGT PUSH2 0x40DE JUMPI PUSH1 0x0 DUP1 REVERT JUMPDEST DUP1 MLOAD PUSH2 0x40EC PUSH2 0x3FEE DUP3 PUSH2 0x3F81 JUMP JUMPDEST DUP2 DUP2 MSTORE PUSH1 0x5 SWAP2 SWAP1 SWAP2 SHL DUP3 ADD DUP4 ADD SWAP1 DUP4 DUP2 ADD SWAP1 DUP8 DUP4 GT ISZERO PUSH2 0x410B JUMPI PUSH1 0x0 DUP1 REVERT JUMPDEST SWAP3 DUP5 ADD SWAP3 JUMPDEST DUP3 DUP5 LT ISZERO PUSH2 0x4039 JUMPI DUP4 MLOAD PUSH2 0x4123 DUP2 PUSH2 0x3E5F JUMP JUMPDEST DUP3 MSTORE SWAP3 DUP5 ADD SWAP3 SWAP1 DUP5 ADD SWAP1 PUSH2 0x4110 JUMP JUMPDEST PUSH4 0x4E487B71 PUSH1 0xE0 SHL PUSH1 0x0 MSTORE PUSH1 0x32 PUSH1 0x4 MSTORE PUSH1 0x24 PUSH1 0x0 REVERT JUMPDEST PUSH1 0x0 PUSH1 0x1 DUP3 ADD PUSH2 0x415A JUMPI PUSH2 0x415A PUSH2 0x4061 JUMP JUMPDEST POP PUSH1 0x1 ADD SWAP1 JUMP JUMPDEST PUSH1 0x1 PUSH1 0x1 PUSH1 0xA0 SHL SUB DUP4 AND DUP2 MSTORE PUSH1 0x40 PUSH1 0x20 DUP3 ADD DUP2 SWAP1 MSTORE PUSH1 0x0 SWAP1 PUSH2 0x1D47 SWAP1 DUP4 ADD DUP5 PUSH2 0x3ECA JUMP JUMPDEST DUP1 DUP3 ADD DUP1 DUP3 GT ISZERO PUSH2 0x234E JUMPI PUSH2 0x234E PUSH2 0x4061 JUMP JUMPDEST PUSH1 0x1 DUP2 DUP2 JUMPDEST DUP1 DUP6 GT ISZERO PUSH2 0x41D3 JUMPI DUP2 PUSH1 0x0 NOT DIV DUP3 GT ISZERO PUSH2 0x41B9 JUMPI PUSH2 0x41B9 PUSH2 0x4061 JUMP JUMPDEST DUP1 DUP6 AND ISZERO PUSH2 0x41C6 JUMPI SWAP2 DUP2 MUL SWAP2 JUMPDEST SWAP4 DUP5 SHR SWAP4 SWAP1 DUP1 MUL SWAP1 PUSH2 0x419D JUMP JUMPDEST POP SWAP3 POP SWAP3 SWAP1 POP JUMP JUMPDEST PUSH1 0x0 DUP3 PUSH2 0x41EA JUMPI POP PUSH1 0x1 PUSH2 0x234E JUMP JUMPDEST DUP2 PUSH2 0x41F7 JUMPI POP PUSH1 0x0 PUSH2 0x234E JUMP JUMPDEST DUP2 PUSH1 0x1 DUP2 EQ PUSH2 0x420D JUMPI PUSH1 0x2 DUP2 EQ PUSH2 0x4217 JUMPI PUSH2 0x4233 JUMP JUMPDEST PUSH1 0x1 SWAP2 POP POP PUSH2 0x234E JUMP JUMPDEST PUSH1 0xFF DUP5 GT ISZERO PUSH2 0x4228 JUMPI PUSH2 0x4228 PUSH2 0x4061 JUMP JUMPDEST POP POP PUSH1 0x1 DUP3 SHL PUSH2 0x234E JUMP JUMPDEST POP PUSH1 0x20 DUP4 LT PUSH2 0x133 DUP4 LT AND PUSH1 0x4E DUP5 LT PUSH1 0xB DUP5 LT AND OR ISZERO PUSH2 0x4256 JUMPI POP DUP2 DUP2 EXP PUSH2 0x234E JUMP JUMPDEST PUSH2 0x4260 DUP4 DUP4 PUSH2 0x4198 JUMP JUMPDEST DUP1 PUSH1 0x0 NOT DIV DUP3 GT ISZERO PUSH2 0x4274 JUMPI PUSH2 0x4274 PUSH2 0x4061 JUMP JUMPDEST MUL SWAP4 SWAP3 POP POP POP JUMP JUMPDEST PUSH1 0x0 PUSH2 0x234B DUP4 DUP4 PUSH2 0x41DB JUMP JUMPDEST DUP1 DUP3 MUL DUP2 ISZERO DUP3 DUP3 DIV DUP5 EQ OR PUSH2 0x234E JUMPI PUSH2 0x234E PUSH2 0x4061 JUMP JUMPDEST PUSH1 0x0 DUP3 PUSH2 0x42BC JUMPI PUSH4 0x4E487B71 PUSH1 0xE0 SHL PUSH1 0x0 MSTORE PUSH1 0x12 PUSH1 0x4 MSTORE PUSH1 0x24 PUSH1 0x0 REVERT JUMPDEST POP DIV SWAP1 JUMP JUMPDEST DUP1 MLOAD DUP1 ISZERO ISZERO DUP2 EQ PUSH2 0x1017 JUMPI PUSH1 0x0 DUP1 REVERT JUMPDEST PUSH1 0x0 PUSH1 0x20 DUP3 DUP5 SUB SLT ISZERO PUSH2 0x42E3 JUMPI PUSH1 0x0 DUP1 REVERT JUMPDEST PUSH2 0x234B DUP3 PUSH2 0x42C1 JUMP JUMPDEST PUSH1 0x0 JUMPDEST DUP4 DUP2 LT ISZERO PUSH2 0x4307 JUMPI DUP2 DUP2 ADD MLOAD DUP4 DUP3 ADD MSTORE PUSH1 0x20 ADD PUSH2 0x42EF JUMP JUMPDEST POP POP PUSH1 0x0 SWAP2 ADD MSTORE JUMP JUMPDEST PUSH1 0x0 DUP3 MLOAD PUSH2 0x4322 DUP2 DUP5 PUSH1 0x20 DUP8 ADD PUSH2 0x42EC JUMP JUMPDEST SWAP2 SWAP1 SWAP2 ADD SWAP3 SWAP2 POP POP JUMP JUMPDEST PUSH1 0x40 DUP2 MSTORE PUSH1 0x0 PUSH2 0x433F PUSH1 0x40 DUP4 ADD DUP6 PUSH2 0x3ECA JUMP JUMPDEST SWAP1 POP PUSH1 0x1 DUP1 PUSH1 0xA0 SHL SUB DUP4 AND PUSH1 0x20 DUP4 ADD MSTORE SWAP4 SWAP3 POP POP POP JUMP JUMPDEST PUSH4 0x4E487B71 PUSH1 0xE0 SHL PUSH1 0x0 MSTORE PUSH1 0x31 PUSH1 0x4 MSTORE PUSH1 0x24 PUSH1 0x0 REVERT JUMPDEST DUP1 MLOAD PUSH1 0xF DUP2 SWAP1 SIGNEXTEND DUP2 EQ PUSH2 0x1017 JUMPI PUSH1 0x0 DUP1 REVERT JUMPDEST PUSH1 0x0 DUP1 PUSH1 0x0 PUSH1 0x60 DUP5 DUP7 SUB SLT ISZERO PUSH2 0x4393 JUMPI PUSH1 0x0 DUP1 REVERT JUMPDEST PUSH2 0x439C DUP5 PUSH2 0x436C JUMP JUMPDEST SWAP3 POP PUSH2 0x43AA PUSH1 0x20 DUP6 ADD PUSH2 0x436C JUMP JUMPDEST SWAP2 POP PUSH2 0x43B8 PUSH1 0x40 DUP6 ADD PUSH2 0x42C1 JUMP JUMPDEST SWAP1 POP SWAP3 POP SWAP3 POP SWAP3 JUMP JUMPDEST DUP6 DUP2 MSTORE DUP5 PUSH1 0x20 DUP3 ADD MSTORE PUSH1 0xA0 PUSH1 0x40 DUP3 ADD MSTORE PUSH1 0x0 PUSH2 0x43E0 PUSH1 0xA0 DUP4 ADD DUP7 PUSH2 0x3ECA JUMP JUMPDEST PUSH1 0x1 PUSH1 0x1 PUSH1 0xA0 SHL SUB SWAP5 SWAP1 SWAP5 AND PUSH1 0x60 DUP4 ADD MSTORE POP PUSH1 0x80 ADD MSTORE SWAP4 SWAP3 POP POP POP JUMP JUMPDEST PUSH1 0x0 PUSH1 0x20 DUP1 DUP4 DUP6 SUB SLT ISZERO PUSH2 0x4410 JUMPI PUSH1 0x0 DUP1 REVERT JUMPDEST DUP3 MLOAD PUSH8 0xFFFFFFFFFFFFFFFF DUP2 GT ISZERO PUSH2 0x4427 JUMPI PUSH1 0x0 DUP1 REVERT JUMPDEST DUP4 ADD PUSH1 0x1F DUP2 ADD DUP6 SGT PUSH2 0x4438 JUMPI PUSH1 0x0 DUP1 REVERT JUMPDEST DUP1 MLOAD PUSH2 0x4446 PUSH2 0x3FEE DUP3 PUSH2 0x3F81 JUMP JUMPDEST DUP2 DUP2 MSTORE PUSH1 0x5 SWAP2 SWAP1 SWAP2 SHL DUP3 ADD DUP4 ADD SWAP1 DUP4 DUP2 ADD SWAP1 DUP8 DUP4 GT ISZERO PUSH2 0x4465 JUMPI PUSH1 0x0 DUP1 REVERT JUMPDEST SWAP3 DUP5 ADD SWAP3 JUMPDEST DUP3 DUP5 LT ISZERO PUSH2 0x4039 JUMPI DUP4 MLOAD DUP3 MSTORE SWAP3 DUP5 ADD SWAP3 SWAP1 DUP5 ADD SWAP1 PUSH2 0x446A JUMP JUMPDEST PUSH1 0x20 DUP2 MSTORE PUSH1 0x0 DUP3 MLOAD DUP1 PUSH1 0x20 DUP5 ADD MSTORE PUSH2 0x44A2 DUP2 PUSH1 0x40 DUP6 ADD PUSH1 0x20 DUP8 ADD PUSH2 0x42EC JUMP JUMPDEST PUSH1 0x1F ADD PUSH1 0x1F NOT AND SWAP2 SWAP1 SWAP2 ADD PUSH1 0x40 ADD SWAP3 SWAP2 POP POP JUMP JUMPDEST PUSH1 0x0 PUSH1 0x20 DUP3 DUP5 SUB SLT ISZERO PUSH2 0x44C8 JUMPI PUSH1 0x0 DUP1 REVERT JUMPDEST DUP2 MLOAD PUSH1 0xFF DUP2 AND DUP2 EQ PUSH2 0x1D4A JUMPI PUSH1 0x0 DUP1 REVERT JUMPDEST PUSH1 0xFF DUP3 DUP2 AND DUP3 DUP3 AND SUB SWAP1 DUP2 GT ISZERO PUSH2 0x234E JUMPI PUSH2 0x234E PUSH2 0x4061 JUMP JUMPDEST PUSH1 0x0 PUSH2 0x234B PUSH1 0xFF DUP5 AND DUP4 PUSH2 0x41DB JUMP INVALID STOP STOP STOP STOP STOP STOP STOP STOP STOP STOP STOP STOP 0xD5 CALLER 0xA9 0x49 PUSH21 0xBB3306D119CC777FA900BA034CD52000000000000 STOP STOP STOP STOP STOP STOP 0x4E EXTCODEHASH 0xBD JUMP 0xCD JUMP 0xC3 0xE7 0x2C EQ SUB 0xE1 SUB 0xB4 0x5D 0xB9 0xDA JUMPDEST SWAP14 0x2B LOG2 PUSH5 0x6970667358 0x22 SLT KECCAK256 SWAP13 PC 0xB0 0xE9 DUP9 SWAP8 EXTCODEHASH CALL PUSH13 0x4B788082D8047EDC334F91EE48 SMOD 0xEA PUSH23 0xDB6C2C342DECE064736F6C634300081100330000000000 ","sha1":"c173cbeb8057fbde7180f952ee90378a2d031e63","source":"// SPDX-License-Identifier: GPL-3.0-or-later\npragma solidity 0.8.17;\n\nimport \"@openzeppelin/contracts/access/Ownable.sol\";\nimport \"@openzeppelin/contracts/utils/structs/EnumerableSet.sol\";\nimport \"@openzeppelin/contracts/token/ERC20/utils/SafeERC20.sol\";\nimport \"@openzeppelin/contracts/token/ERC20/extensions/IERC20Metadata.sol\";\n\nimport \"../interfaces/pools/IConicPool.sol\";\nimport \"../interfaces/pools/ILpToken.sol\";\nimport \"../interfaces/pools/IRewardManager.sol\";\nimport \"../interfaces/IConvexHandler.sol\";\nimport \"../interfaces/ICurveHandler.sol\";\nimport \"../interfaces/IController.sol\";\nimport \"../interfaces/IOracle.sol\";\nimport \"../interfaces/tokenomics/IInflationManager.sol\";\nimport \"../interfaces/tokenomics/ILpTokenStaker.sol\";\nimport \"../interfaces/tokenomics/ICNCLockerV2.sol\";\nimport \"../interfaces/vendor/ICurvePoolV2.sol\";\nimport \"../interfaces/vendor/UniswapRouter02.sol\";\n\nimport \"../libraries/ScaledMath.sol\";\n\ncontract RewardManager is IRewardManager, Ownable {\n    using ScaledMath for uint256;\n    using SafeERC20 for IERC20;\n    using EnumerableSet for EnumerableSet.AddressSet;\n\n    struct RewardMeta {\n        uint256 earnedIntegral;\n        uint256 lastEarned;\n        mapping(address => uint256) accountIntegral;\n        mapping(address => uint256) accountShare;\n    }\n\n    IERC20 public constant CVX = IERC20(0x4e3FBD56CD56c3e72c1403e103b45Db9da5B9D2B);\n    IERC20 public constant CRV = IERC20(0xD533a949740bb3306d119CC777fa900bA034cd52);\n    IERC20 public constant WETH = IERC20(0xC02aaA39b223FE8D0A0e5C4F27eAD9083C756Cc2);\n    IERC20 public constant CNC = IERC20(0x9aE380F0272E2162340a5bB646c354271c0F5cFC);\n    UniswapRouter02 public constant SUSHISWAP =\n        UniswapRouter02(0xd9e1cE17f2641f24aE83637ab66a2cca9C378B9F);\n    ICurvePoolV2 public constant CNC_ETH_POOL =\n        ICurvePoolV2(0x838af967537350D2C44ABB8c010E49E32673ab94);\n\n    uint256 public constant MAX_FEE_PERCENTAGE = 3e17;\n    uint256 public constant SLIPPAGE_THRESHOLD = 0.95e18; // 5% slippage as a multiplier\n\n    bytes32 internal constant _CNC_KEY = \"cnc\";\n    bytes32 internal constant _CRV_KEY = \"crv\";\n    bytes32 internal constant _CVX_KEY = \"cvx\";\n\n    address public immutable override pool;\n    ILpToken public immutable lpToken;\n    IERC20 public immutable underlying;\n    IController public immutable controller;\n    ICNCLockerV2 public immutable locker;\n\n    uint256 internal _oldCrvBalance;\n    uint256 internal _oldCvxBalance;\n\n    EnumerableSet.AddressSet internal _extraRewards;\n    mapping(address => address) public extraRewardsCurvePool;\n    mapping(bytes32 => RewardMeta) internal _rewardsMeta;\n\n    bool public feesEnabled;\n    uint256 public feePercentage;\n\n    constructor(\n        address _controller,\n        address _pool,\n        address _lpToken,\n        address _underlying,\n        address cncLocker\n    ) {\n        pool = _pool;\n        lpToken = ILpToken(_lpToken);\n        underlying = IERC20(_underlying);\n        controller = IController(_controller);\n        WETH.safeApprove(address(CNC_ETH_POOL), type(uint256).max);\n        locker = ICNCLockerV2(cncLocker);\n    }\n\n    /// @notice Updates the internal fee accounting state. Returns `true` if rewards were claimed\n    function poolCheckpoint() public override returns (bool) {\n        IConvexHandler convexHandler = IConvexHandler(controller.convexHandler());\n\n        (uint256 crvEarned, uint256 cvxEarned, uint256 cncEarned) = _getEarnedRewards(\n            convexHandler\n        );\n\n        uint256 crvFee;\n        uint256 cvxFee;\n\n        if (feesEnabled) {\n            crvFee = crvEarned.mulDown(feePercentage);\n            cvxFee = cvxEarned.mulDown(feePercentage);\n            crvEarned = crvEarned - crvFee;\n            cvxEarned = cvxEarned - cvxFee;\n        }\n\n        uint256 _totalStaked = controller.lpTokenStaker().getBalanceForPool(pool);\n        if (_totalStaked > 0) {\n            _updateEarned(_CVX_KEY, cvxEarned, _totalStaked);\n            _updateEarned(_CRV_KEY, crvEarned, _totalStaked);\n            _updateEarned(_CNC_KEY, cncEarned, _totalStaked);\n        }\n\n        if (!feesEnabled) {\n            return false;\n        }\n\n        bool rewardsClaimed = false;\n\n        if (crvFee > CRV.balanceOf(pool) || cvxFee > CVX.balanceOf(pool)) {\n            _claimPoolEarningsAndSellRewardTokens();\n            rewardsClaimed = true;\n        }\n\n        CRV.safeTransferFrom(pool, address(this), crvFee);\n        CVX.safeTransferFrom(pool, address(this), cvxFee);\n\n        // Fee transfer to the CNC locker\n        CRV.safeApprove(address(locker), crvFee);\n        CVX.safeApprove(address(locker), cvxFee);\n        locker.receiveFees(crvFee, cvxFee);\n\n        _oldCrvBalance = CRV.balanceOf(pool);\n        _oldCvxBalance = CVX.balanceOf(pool);\n\n        return rewardsClaimed;\n    }\n\n    function _updateEarned(bytes32 key, uint256 earned, uint256 _totalSupply) internal {\n        _rewardsMeta[key].earnedIntegral += earned.divDown(_totalSupply);\n        _rewardsMeta[key].lastEarned += earned;\n    }\n\n    function _getEarnedRewards()\n        internal\n        view\n        returns (uint256 crvEarned, uint256 cvxEarned, uint256 cncEarned)\n    {\n        IConvexHandler convexHandler = IConvexHandler(controller.convexHandler());\n        return _getEarnedRewards(convexHandler);\n    }\n\n    function _getEarnedRewards(\n        IConvexHandler convexHandler\n    ) internal view returns (uint256 crvEarned, uint256 cvxEarned, uint256 cncEarned) {\n        address[] memory curvePools = IConicPool(pool).allCurvePools();\n\n        uint256 claimableCRV = convexHandler.getCrvEarnedBatch(pool, curvePools);\n        uint256 totalCRVEarned = CRV.balanceOf(pool) - _oldCrvBalance + claimableCRV;\n\n        uint256 claimableCVX = convexHandler.computeClaimableConvex(claimableCRV);\n        uint256 totalCVXEarned = CVX.balanceOf(pool) - _oldCvxBalance + claimableCVX;\n        uint256 totalCNCEarned = controller.lpTokenStaker().claimableCnc(pool);\n\n        if (totalCRVEarned > _rewardsMeta[_CRV_KEY].lastEarned) {\n            crvEarned = totalCRVEarned - _rewardsMeta[_CRV_KEY].lastEarned;\n        }\n        if (totalCVXEarned > _rewardsMeta[_CVX_KEY].lastEarned) {\n            cvxEarned = totalCVXEarned - _rewardsMeta[_CVX_KEY].lastEarned;\n        }\n        if (totalCNCEarned > _rewardsMeta[_CNC_KEY].lastEarned) {\n            cncEarned = totalCNCEarned - _rewardsMeta[_CNC_KEY].lastEarned;\n        }\n    }\n\n    function accountCheckpoint(address account) external {\n        _accountCheckpoint(account);\n    }\n\n    function _accountCheckpoint(address account) internal {\n        uint256 accountBalance = controller.lpTokenStaker().getUserBalanceForPool(pool, account);\n        poolCheckpoint();\n        _updateAccountRewardsMeta(_CNC_KEY, account, accountBalance);\n        _updateAccountRewardsMeta(_CRV_KEY, account, accountBalance);\n        _updateAccountRewardsMeta(_CVX_KEY, account, accountBalance);\n    }\n\n    function _updateAccountRewardsMeta(bytes32 key, address account, uint256 balance) internal {\n        RewardMeta storage meta = _rewardsMeta[key];\n        uint256 share = balance.mulDown(meta.earnedIntegral - meta.accountIntegral[account]);\n        meta.accountShare[account] += share;\n        meta.accountIntegral[account] = meta.earnedIntegral;\n    }\n\n    /// @notice Claims all CRV, CVX and CNC earned by a user. All extra reward\n    /// tokens earned will be sold for CNC.\n    /// @dev Conic pool LP tokens need to be staked in the `LpTokenStaker` in\n    /// order to receive a share of the CRV, CVX and CNC earnings.\n    /// after selling all extra reward tokens.\n    function claimEarnings() public override returns (uint256, uint256, uint256) {\n        _accountCheckpoint(msg.sender);\n        uint256 crvAmount = _rewardsMeta[_CRV_KEY].accountShare[msg.sender];\n        uint256 cvxAmount = _rewardsMeta[_CVX_KEY].accountShare[msg.sender];\n        uint256 cncAmount = _rewardsMeta[_CNC_KEY].accountShare[msg.sender];\n\n        if (\n            crvAmount > CRV.balanceOf(pool) ||\n            cvxAmount > CVX.balanceOf(pool) ||\n            cncAmount > CNC.balanceOf(pool)\n        ) {\n            _claimPoolEarningsAndSellRewardTokens();\n        }\n        _rewardsMeta[_CNC_KEY].accountShare[msg.sender] = 0;\n        _rewardsMeta[_CVX_KEY].accountShare[msg.sender] = 0;\n        _rewardsMeta[_CRV_KEY].accountShare[msg.sender] = 0;\n\n        CRV.safeTransferFrom(pool, msg.sender, crvAmount);\n        CVX.safeTransferFrom(pool, msg.sender, cvxAmount);\n        CNC.safeTransferFrom(pool, msg.sender, cncAmount);\n\n        _oldCrvBalance = CRV.balanceOf(pool);\n        _oldCvxBalance = CVX.balanceOf(pool);\n\n        emit EarningsClaimed(msg.sender, cncAmount, crvAmount, cvxAmount);\n        return (cncAmount, crvAmount, cvxAmount);\n    }\n\n    /// @notice Claims all claimable CVX and CRV from Convex for all staked Curve LP tokens.\n    /// Then Swaps all additional rewards tokens for CNC.\n    function claimPoolEarningsAndSellRewardTokens() external override {\n        if (!poolCheckpoint()) {\n            _claimPoolEarningsAndSellRewardTokens();\n            _oldCrvBalance = CRV.balanceOf(pool);\n            _oldCvxBalance = CVX.balanceOf(pool);\n        }\n    }\n\n    function _claimPoolEarningsAndSellRewardTokens() internal {\n        _rewardsMeta[_CRV_KEY].lastEarned = 0;\n        _rewardsMeta[_CVX_KEY].lastEarned = 0;\n        _rewardsMeta[_CNC_KEY].lastEarned = 0;\n\n        _claimPoolEarnings();\n\n        uint256 cncBalanceBefore_ = CNC.balanceOf(pool);\n\n        _sellRewardTokens();\n\n        uint256 receivedCnc_ = CNC.balanceOf(pool) - cncBalanceBefore_;\n        uint256 _totalStaked = controller.lpTokenStaker().getBalanceForPool(pool);\n        if (_totalStaked > 0)\n            _rewardsMeta[_CNC_KEY].earnedIntegral += receivedCnc_.divDown(_totalStaked);\n        emit SoldRewardTokens(receivedCnc_);\n    }\n\n    /// @notice Claims all claimable CVX and CRV from Convex for all staked Curve LP tokens\n    function _claimPoolEarnings() internal {\n        controller.lpTokenStaker().claimCNCRewardsForPool(pool);\n\n        uint256 cvxBalance = CVX.balanceOf(pool);\n        uint256 crvBalance = CRV.balanceOf(pool);\n\n        address convexHandler = controller.convexHandler();\n\n        IConvexHandler(convexHandler).claimBatchEarnings(IConicPool(pool).allCurvePools(), pool);\n\n        uint256 claimedCvx = CVX.balanceOf(pool) - cvxBalance;\n        uint256 claimedCrv = CRV.balanceOf(pool) - crvBalance;\n\n        emit ClaimedRewards(claimedCrv, claimedCvx);\n    }\n\n    /// @notice Swaps all additional rewards tokens for CNC.\n    function _sellRewardTokens() internal {\n        uint256 extraRewardsLength_ = _extraRewards.length();\n        if (extraRewardsLength_ == 0) return;\n        for (uint256 i; i < extraRewardsLength_; i++) {\n            _swapRewardTokenForWeth(_extraRewards.at(i));\n        }\n        _swapWethForCNC();\n    }\n\n    function listExtraRewards() external view returns (address[] memory) {\n        return _extraRewards.values();\n    }\n\n    function addExtraReward(address reward) public override onlyOwner returns (bool) {\n        require(reward != address(0), \"invalid address\");\n        require(\n            reward != address(CVX) &&\n                reward != address(CRV) &&\n                reward != address(underlying) &&\n                reward != address(CNC),\n            \"token not allowed\"\n        );\n\n        // Checking reward token isn't a Curve Pool LP Token\n        address[] memory curvePools_ = IConicPool(pool).allCurvePools();\n        for (uint256 i; i < curvePools_.length; i++) {\n            address curveLpToken_ = controller.curveRegistryCache().lpToken(curvePools_[i]);\n            require(reward != curveLpToken_, \"token not allowed\");\n        }\n\n        IERC20(reward).safeApprove(address(SUSHISWAP), 0);\n        IERC20(reward).safeApprove(address(SUSHISWAP), type(uint256).max);\n        emit ExtraRewardAdded(reward);\n        return _extraRewards.add(reward);\n    }\n\n    function addBatchExtraRewards(address[] memory _rewards) external override onlyOwner {\n        for (uint256 i; i < _rewards.length; i++) {\n            addExtraReward(_rewards[i]);\n        }\n    }\n\n    function removeExtraReward(address tokenAddress) external onlyOwner {\n        _extraRewards.remove(tokenAddress);\n        emit ExtraRewardRemoved(tokenAddress);\n    }\n\n    function setExtraRewardsCurvePool(address extraReward_, address curvePool_) external onlyOwner {\n        require(curvePool_ != extraRewardsCurvePool[extraReward_], \"must be different to current\");\n        if (curvePool_ != address(0)) {\n            IERC20(extraReward_).safeApprove(curvePool_, 0);\n            IERC20(extraReward_).safeApprove(curvePool_, type(uint256).max);\n        }\n        extraRewardsCurvePool[extraReward_] = curvePool_;\n        emit ExtraRewardsCurvePoolSet(extraReward_, curvePool_);\n    }\n\n    function setFeePercentage(uint256 _feePercentage) external override onlyOwner {\n        require(_feePercentage < MAX_FEE_PERCENTAGE, \"cannot set fee percentage to more than 30%\");\n        require(locker.totalBoosted() > 0);\n        feePercentage = _feePercentage;\n        feesEnabled = true;\n        emit FeesSet(feePercentage);\n    }\n\n    function claimableRewards(\n        address account\n    ) external view returns (uint256 cncRewards, uint256 crvRewards, uint256 cvxRewards) {\n        uint256 _totalStaked = controller.lpTokenStaker().getBalanceForPool(pool);\n        if (_totalStaked == 0) return (0, 0, 0);\n        (uint256 crvEarned, uint256 cvxEarned, uint256 cncEarned) = _getEarnedRewards();\n        uint256 userBalance = controller.lpTokenStaker().getUserBalanceForPool(pool, account);\n\n        cncRewards = _getClaimableReward(\n            account,\n            _CNC_KEY,\n            cncEarned,\n            userBalance,\n            _totalStaked,\n            false\n        );\n        crvRewards = _getClaimableReward(\n            account,\n            _CRV_KEY,\n            crvEarned,\n            userBalance,\n            _totalStaked,\n            feesEnabled\n        );\n        cvxRewards = _getClaimableReward(\n            account,\n            _CVX_KEY,\n            cvxEarned,\n            userBalance,\n            _totalStaked,\n            feesEnabled\n        );\n    }\n\n    function _getClaimableReward(\n        address account,\n        bytes32 key,\n        uint256 earned,\n        uint256 userBalance,\n        uint256 _totalSupply,\n        bool deductFee\n    ) internal view returns (uint256) {\n        RewardMeta storage meta = _rewardsMeta[key];\n        uint256 integral = meta.earnedIntegral;\n        if (deductFee) {\n            integral += earned.divDown(_totalSupply).mulDown(ScaledMath.ONE - feePercentage);\n        } else {\n            integral += earned.divDown(_totalSupply);\n        }\n        return\n            meta.accountShare[account] +\n            userBalance.mulDown(integral - meta.accountIntegral[account]);\n    }\n\n    function _swapRewardTokenForWeth(address rewardToken_) internal {\n        uint256 tokenBalance_ = IERC20(rewardToken_).balanceOf(address(this));\n        if (tokenBalance_ == 0) return;\n\n        ICurvePoolV2 curvePool_ = ICurvePoolV2(extraRewardsCurvePool[rewardToken_]);\n        if (address(curvePool_) != address(0)) {\n            (int128 i, int128 j, ) = controller.curveRegistryCache().coinIndices(\n                address(curvePool_),\n                rewardToken_,\n                address(WETH)\n            );\n            (uint256 from_, uint256 to_) = (uint256(uint128(i)), uint256(uint128(j)));\n            curvePool_.exchange(\n                from_,\n                to_,\n                tokenBalance_,\n                _minAmountOut(address(rewardToken_), address(WETH), tokenBalance_),\n                false,\n                address(this)\n            );\n            return;\n        }\n\n        address[] memory path_ = new address[](2);\n        path_[0] = rewardToken_;\n        path_[1] = address(WETH);\n        SUSHISWAP.swapExactTokensForTokens(\n            tokenBalance_,\n            _minAmountOut(address(rewardToken_), address(WETH), tokenBalance_),\n            path_,\n            address(this),\n            block.timestamp\n        );\n    }\n\n    function _swapWethForCNC() internal {\n        uint256 wethBalance_ = WETH.balanceOf(address(this));\n        if (wethBalance_ == 0) return;\n        CNC_ETH_POOL.exchange(\n            0,\n            1,\n            wethBalance_,\n            _minAmountOut(address(WETH), address(CNC), wethBalance_),\n            false,\n            pool\n        );\n    }\n\n    function _minAmountOut(\n        address tokenIn_,\n        address tokenOut_,\n        uint256 amountIn_\n    ) internal view returns (uint256) {\n        IOracle oracle_ = controller.priceOracle();\n\n        if (tokenIn_ == tokenOut_) {\n            return amountIn_;\n        }\n\n        // If we don't have a price for either token, we can't calculate the min amount out\n        // This should only ever happen for very minor tokens, so we accept the risk of not having\n        // slippage protection in that case\n        if (!oracle_.isTokenSupported(tokenIn_) || !oracle_.isTokenSupported(tokenOut_)) {\n            return 0;\n        }\n\n        return\n            amountIn_\n                .mulDown(oracle_.getUSDPrice(tokenIn_))\n                .divDown(oracle_.getUSDPrice(tokenOut_))\n                .convertScale(\n                    IERC20Metadata(tokenIn_).decimals(),\n                    IERC20Metadata(tokenOut_).decimals()\n                )\n                .mulDown(SLIPPAGE_THRESHOLD);\n    }\n}\n","sourcePath":"contracts/RewardManager.sol","type":"contract","deployment":{"address":"0xE976F643d4dc08Aa3CeD55b0CA391B1d11328347","chainid":"1","blockHeight":17436623}}