{"abi":[{"inputs":[{"internalType":"address","name":"controller_","type":"address"},{"internalType":"contract ICNCToken","name":"_cnc","type":"address"},{"internalType":"address","name":"_emergencyMinter","type":"address"}],"stateMutability":"nonpayable","type":"constructor","name":"constructor"},{"anonymous":false,"inputs":[{"indexed":true,"internalType":"address","name":"account","type":"address"},{"indexed":false,"internalType":"uint256","name":"amount","type":"uint256"}],"name":"LpTokenStaked","type":"event"},{"anonymous":false,"inputs":[{"indexed":true,"internalType":"address","name":"account","type":"address"},{"indexed":false,"internalType":"uint256","name":"amount","type":"uint256"}],"name":"LpTokenUnstaked","type":"event"},{"anonymous":false,"inputs":[],"name":"Shutdown","type":"event"},{"anonymous":false,"inputs":[{"indexed":true,"internalType":"address","name":"pool","type":"address"},{"indexed":false,"internalType":"uint256","name":"cncAmount","type":"uint256"}],"name":"TokensClaimed","type":"event"},{"inputs":[],"name":"INCREASE_PERIOD","outputs":[{"internalType":"uint256","name":"","type":"uint256"}],"stateMutability":"view","type":"function"},{"inputs":[],"name":"MAX_BOOST","outputs":[{"internalType":"uint256","name":"","type":"uint256"}],"stateMutability":"view","type":"function"},{"inputs":[],"name":"MIN_BOOST","outputs":[{"internalType":"uint256","name":"","type":"uint256"}],"stateMutability":"view","type":"function"},{"inputs":[],"name":"TIME_STARTING_FACTOR","outputs":[{"internalType":"uint256","name":"","type":"uint256"}],"stateMutability":"view","type":"function"},{"inputs":[],"name":"TVL_FACTOR","outputs":[{"internalType":"uint256","name":"","type":"uint256"}],"stateMutability":"view","type":"function"},{"inputs":[{"internalType":"address","name":"account","type":"address"}],"name":"_getTotalStakedForUserCommonDenomination","outputs":[{"internalType":"uint256","name":"","type":"uint256"},{"internalType":"uint256","name":"","type":"uint256"}],"stateMutability":"view","type":"function"},{"inputs":[{"internalType":"address","name":"","type":"address"}],"name":"boosts","outputs":[{"internalType":"uint256","name":"timeBoost","type":"uint256"},{"internalType":"uint256","name":"lastUpdated","type":"uint256"}],"stateMutability":"view","type":"function"},{"inputs":[{"internalType":"address","name":"pool","type":"address"}],"name":"checkpoint","outputs":[{"internalType":"uint256","name":"","type":"uint256"}],"stateMutability":"nonpayable","type":"function"},{"inputs":[{"internalType":"address","name":"pool","type":"address"}],"name":"claimCNCRewardsForPool","outputs":[],"stateMutability":"nonpayable","type":"function"},{"inputs":[{"internalType":"address","name":"pool","type":"address"}],"name":"claimableCnc","outputs":[{"internalType":"uint256","name":"","type":"uint256"}],"stateMutability":"view","type":"function"},{"inputs":[],"name":"cnc","outputs":[{"internalType":"contract ICNCToken","name":"","type":"address"}],"stateMutability":"view","type":"function"},{"inputs":[],"name":"controller","outputs":[{"internalType":"contract IController","name":"","type":"address"}],"stateMutability":"view","type":"function"},{"inputs":[],"name":"emergencyMinter","outputs":[{"internalType":"address","name":"","type":"address"}],"stateMutability":"view","type":"function"},{"inputs":[{"internalType":"address","name":"conicPool","type":"address"}],"name":"getBalanceForPool","outputs":[{"internalType":"uint256","name":"","type":"uint256"}],"stateMutability":"view","type":"function"},{"inputs":[{"internalType":"address","name":"user","type":"address"}],"name":"getBoost","outputs":[{"internalType":"uint256","name":"","type":"uint256"}],"stateMutability":"view","type":"function"},{"inputs":[{"internalType":"address","name":"user","type":"address"}],"name":"getCachedBoost","outputs":[{"internalType":"uint256","name":"","type":"uint256"}],"stateMutability":"view","type":"function"},{"inputs":[{"internalType":"address","name":"user","type":"address"}],"name":"getTimeToFullBoost","outputs":[{"internalType":"uint256","name":"","type":"uint256"}],"stateMutability":"view","type":"function"},{"inputs":[{"internalType":"address","name":"conicPool","type":"address"},{"internalType":"address","name":"account","type":"address"}],"name":"getUserBalanceForPool","outputs":[{"internalType":"uint256","name":"","type":"uint256"}],"stateMutability":"view","type":"function"},{"inputs":[],"name":"isShutdown","outputs":[{"internalType":"bool","name":"","type":"bool"}],"stateMutability":"view","type":"function"},{"inputs":[{"internalType":"address","name":"","type":"address"}],"name":"poolLastUpdated","outputs":[{"internalType":"uint256","name":"","type":"uint256"}],"stateMutability":"view","type":"function"},{"inputs":[{"internalType":"address","name":"","type":"address"}],"name":"poolShares","outputs":[{"internalType":"uint256","name":"","type":"uint256"}],"stateMutability":"view","type":"function"},{"inputs":[],"name":"renounceMinterRights","outputs":[],"stateMutability":"nonpayable","type":"function"},{"inputs":[],"name":"shutdown","outputs":[],"stateMutability":"nonpayable","type":"function"},{"inputs":[{"internalType":"uint256","name":"amount","type":"uint256"},{"internalType":"address","name":"conicPool","type":"address"}],"name":"stake","outputs":[],"stateMutability":"nonpayable","type":"function"},{"inputs":[{"internalType":"uint256","name":"amount","type":"uint256"},{"internalType":"address","name":"conicPool","type":"address"},{"internalType":"address","name":"account","type":"address"}],"name":"stakeFor","outputs":[],"stateMutability":"nonpayable","type":"function"},{"inputs":[{"internalType":"bytes4","name":"interfaceId","type":"bytes4"}],"name":"supportsInterface","outputs":[{"internalType":"bool","name":"","type":"bool"}],"stateMutability":"view","type":"function"},{"inputs":[{"internalType":"uint256","name":"amount","type":"uint256"},{"internalType":"address","name":"conicPool","type":"address"}],"name":"unstake","outputs":[],"stateMutability":"nonpayable","type":"function"},{"inputs":[{"internalType":"uint256","name":"amount","type":"uint256"},{"internalType":"address","name":"conicPool","type":"address"},{"internalType":"address","name":"account","type":"address"}],"name":"unstakeFor","outputs":[],"stateMutability":"nonpayable","type":"function"},{"inputs":[{"internalType":"uint256","name":"amount","type":"uint256"},{"internalType":"address","name":"account","type":"address"}],"name":"unstakeFrom","outputs":[],"stateMutability":"nonpayable","type":"function"},{"inputs":[{"internalType":"address","name":"user","type":"address"}],"name":"updateBoost","outputs":[],"stateMutability":"nonpayable","type":"function"}],"bytecode":"60e06040523480156200001157600080fd5b50604051620029c2380380620029c2833981016040819052620000349162000208565b6001600160a01b03808216608052821660a05281816200005b633874ba4d60e11b6200007d565b50506001600160a01b03831660c0526200007462000101565b50505062000382565b6001600160e01b03198082169003620000dc5760405162461bcd60e51b815260206004820152601c60248201527f4552433136353a20696e76616c696420696e7465726661636520696400000000604482015260640160405180910390fd5b6001600160e01b0319166000908152602081905260409020805460ff19166001179055565b600060c0516001600160a01b031663687958626040518163ffffffff1660e01b8152600401600060405180830381865afa15801562000144573d6000803e3d6000fd5b505050506040513d6000823e601f3d908101601f191682016040526200016e919081019062000272565b905060005b8151811015620001d957426005600084848151811062000197576200019762000344565b60200260200101516001600160a01b03166001600160a01b03168152602001908152602001600020819055508080620001d0906200035a565b91505062000173565b5050565b6001600160a01b0381168114620001f357600080fd5b50565b80516200020381620001dd565b919050565b6000806000606084860312156200021e57600080fd5b83516200022b81620001dd565b60208501519093506200023e81620001dd565b60408501519092506200025181620001dd565b809150509250925092565b634e487b7160e01b600052604160045260246000fd5b600060208083850312156200028657600080fd5b82516001600160401b03808211156200029e57600080fd5b818501915085601f830112620002b357600080fd5b815181811115620002c857620002c86200025c565b8060051b604051601f19603f83011681018181108582111715620002f057620002f06200025c565b6040529182528482019250838101850191888311156200030f57600080fd5b938501935b8285101562000338576200032885620001f6565b8452938501939285019262000314565b98975050505050505050565b634e487b7160e01b600052603260045260246000fd5b6000600182016200037b57634e487b7160e01b600052601160045260246000fd5b5060010190565b60805160a05160c0516125b56200040d60003960008181610469015281816105530152818161083301528181610b0a0152818161121101528181611407015281816115d901528181611828015281816119910152611d440152600081816104420152818161103501526119210152600081816102bc01528181610fad015261155c01526125b56000f3fe608060405234801561001057600080fd5b50600436106101da5760003560e01c80638381e18211610104578063bb51ccf0116100a2578063f77c479111610071578063f77c479114610464578063fa4083ca1461048b578063fc0e74d1146104c5578063fdabc986146104cd57600080fd5b8063bb51ccf01461040e578063bf86d6901461041d578063d3487a8c1461042a578063f0aa0a1d1461043d57600080fd5b8063a0190c17116100de578063a0190c17146103ad578063a3f0ed07146103c0578063a91ea1ba146103e8578063a972985e146103fb57600080fd5b80638381e18214610361578063863445b8146103745780638aba3f771461038457600080fd5b80635598b2091161017c57806370e9749a1161014b57806370e9749a146103295780637acb7757146103315780637b3db81a146103445780637ea2b4591461034e57600080fd5b80635598b2091461028e5780635e2f23ce146102b757806362f04c00146102f657806367ba3d901461031657600080fd5b80630a7486c7116101b85780630a7486c71461022f5780630fb51f411461024c578063315865df1461026c57806333f1c3371461027b57600080fd5b806301ffc9a7146101df5780630276d476146102075780630325d1611461021c575b600080fd5b6101f26101ed3660046120bc565b6104f4565b60405190151581526020015b60405180910390f35b61021a6102153660046120fb565b610534565b005b61021a61022a36600461213d565b61081e565b61023e670de0b6b3a764000081565b6040519081526020016101fe565b61023e61025a36600461216d565b60046020526000908152604090205481565b61023e678ac7230489e8000081565b61021a6102893660046120fb565b610ac8565b61023e61029c36600461216d565b6001600160a01b031660009081526002602052604090205490565b6102de7f000000000000000000000000000000000000000000000000000000000000000081565b6040516001600160a01b0390911681526020016101fe565b61023e61030436600461216d565b60056020526000908152604090205481565b61023e61032436600461216d565b610e45565b61021a610fa2565b61021a61033f36600461213d565b6110a8565b61023e62278d0081565b61023e61035c36600461216d565b6110b3565b61021a61036f36600461213d565b611102565b61023e6802b5e3af16b188000081565b61023e61039236600461216d565b6001600160a01b031660009081526003602052604090205490565b61021a6103bb36600461216d565b61110d565b6103d36103ce36600461216d565b61120a565b604080519283526020830191909152016101fe565b61021a6103f636600461216d565b611309565b61023e61040936600461216d565b611346565b61023e67016345785d8a000081565b6006546101f29060ff1681565b61023e61043836600461216d565b6113ed565b6102de7f000000000000000000000000000000000000000000000000000000000000000081565b6102de7f000000000000000000000000000000000000000000000000000000000000000081565b61023e61049936600461218a565b6001600160a01b0380821660009081526001602090815260408083209386168352929052205492915050565b61021a611551565b6103d36104db36600461216d565b6003602052600090815260409020805460019091015482565b60006301ffc9a760e01b6001600160e01b03198316148061052e57506001600160e01b0319821660009081526020819052604090205460ff165b92915050565b604051635b16ebb760e01b81526001600160a01b0383811660048301527f00000000000000000000000000000000000000000000000000000000000000001690635b16ebb790602401602060405180830381865afa15801561059a573d6000803e3d6000fd5b505050506040513d601f19601f820116820180604052508101906105be91906121b8565b6106025760405162461bcd60e51b815260206004820152601060248201526f1b9bdd08184818dbdb9a58c81c1bdbdb60821b60448201526064015b60405180910390fd5b3360009081526001602090815260408083206001600160a01b03861684529091529020548311156106695760405162461bcd60e51b81526020600482015260116024820152701b9bdd08195b9bdd59da081cdd185ad959607a1b60448201526064016105f9565b60065460ff1661073b57816001600160a01b0316630f4ef8a66040518163ffffffff1660e01b8152600401602060405180830381865afa1580156106b1573d6000803e3d6000fd5b505050506040513d601f19601f820116820180604052508101906106d591906121da565b60405163bf928f8b60e01b81523360048201526001600160a01b03919091169063bf928f8b90602401600060405180830381600087803b15801561071857600080fd5b505af115801561072c573d6000803e3d6000fd5b5050505061073b3360006116d9565b3360009081526001602090815260408083206001600160a01b03861684529091528120805485929061076e90849061220d565b90915550506001600160a01b0382166000908152600260205260408120805485929061079b90849061220d565b925050819055506108198184846001600160a01b0316635fcbd2856040518163ffffffff1660e01b8152600401602060405180830381865afa1580156107e5573d6000803e3d6000fd5b505050506040513d601f19601f8201168201806040525081019061080991906121da565b6001600160a01b031691906116f2565b505050565b604051635b16ebb760e01b81523360048201527f00000000000000000000000000000000000000000000000000000000000000006001600160a01b031690635b16ebb790602401602060405180830381865afa158015610882573d6000803e3d6000fd5b505050506040513d601f19601f820116820180604052508101906108a691906121b8565b6108f25760405162461bcd60e51b815260206004820152601d60248201527f6f6e6c792063616c6c61626c652066726f6d20636f6e696320706f6f6c00000060448201526064016105f9565b6001600160a01b03811660009081526001602090815260408083203384529091529020548211156109595760405162461bcd60e51b81526020600482015260116024820152701b9bdd08195b9bdd59da081cdd185ad959607a1b60448201526064016105f9565b336001600160a01b0316630f4ef8a66040518163ffffffff1660e01b8152600401602060405180830381865afa158015610997573d6000803e3d6000fd5b505050506040513d601f19601f820116820180604052508101906109bb91906121da565b60405163bf928f8b60e01b81526001600160a01b038381166004830152919091169063bf928f8b90602401600060405180830381600087803b158015610a0057600080fd5b505af1158015610a14573d6000803e3d6000fd5b50505050610a238160006116d9565b6001600160a01b038116600090815260016020908152604080832033845290915281208054849290610a5690849061220d565b90915550503360009081526002602052604081208054849290610a7a90849061220d565b92505081905550610ac48183336001600160a01b0316635fcbd2856040518163ffffffff1660e01b8152600401602060405180830381865afa1580156107e5573d6000803e3d6000fd5b5050565b60065460ff1615610aeb5760405162461bcd60e51b81526004016105f990612220565b604051635b16ebb760e01b81526001600160a01b0383811660048301527f00000000000000000000000000000000000000000000000000000000000000001690635b16ebb790602401602060405180830381865afa158015610b51573d6000803e3d6000fd5b505050506040513d601f19601f82011682018060405250810190610b7591906121b8565b610bb45760405162461bcd60e51b815260206004820152601060248201526f1b9bdd08184818dbdb9a58c81c1bdbdb60821b60448201526064016105f9565b6000826001600160a01b0316635fcbd2856040518163ffffffff1660e01b8152600401602060405180830381865afa158015610bf4573d6000803e3d6000fd5b505050506040513d601f19601f82011682018060405250810190610c1891906121da565b90506000836001600160a01b031663ce75040e6040518163ffffffff1660e01b8152600401602060405180830381865afa158015610c5a573d6000803e3d6000fd5b505050506040513d601f19601f82011682018060405250810190610c7e9190612257565b9050836001600160a01b0316630f4ef8a66040518163ffffffff1660e01b8152600401602060405180830381865afa158015610cbe573d6000803e3d6000fd5b505050506040513d601f19601f82011682018060405250810190610ce291906121da565b60405163bf928f8b60e01b81526001600160a01b038581166004830152919091169063bf928f8b90602401600060405180830381600087803b158015610d2757600080fd5b505af1158015610d3b573d6000803e3d6000fd5b50505050610dc083610dbb83610db5866001600160a01b031663313ce5676040518163ffffffff1660e01b8152600401602060405180830381865afa158015610d88573d6000803e3d6000fd5b505050506040513d601f19601f82011682018060405250810190610dac9190612270565b8a906012611755565b90611796565b6116d9565b610dd56001600160a01b0383163330886117b8565b6001600160a01b03808416600090815260016020908152604080832093881683529290529081208054879290610e0c908490612293565b90915550506001600160a01b03841660009081526002602052604081208054879290610e39908490612293565b90915550505050505050565b60065460009060ff1615610e625750670de0b6b3a7640000919050565b600080610e6e8461120a565b915091508060001480610e7f575081155b15610e955750670de0b6b3a76400009392505050565b6000610eae6802b5e3af16b1880000610db585856117f0565b610eba6012600a61238a565b610ec49190612293565b6001600160a01b0386166000908152600360205260409020805491925090610f2167016345785d8a0000610efa6012600a61238a565b610f04919061220d565b610db562278d00856001015442610f1b919061220d565b906117f0565b610f2b9082612293565b9050610f396012600a61238a565b811115610f4f57610f4c6012600a61238a565b90505b6000610f5b8483611796565b9050670de0b6b3a7640000811015610f7c5750670de0b6b3a7640000610f97565b678ac7230489e80000811115610f975750678ac7230489e800005b979650505050505050565b336001600160a01b037f000000000000000000000000000000000000000000000000000000000000000016146110335760405162461bcd60e51b815260206004820152603060248201527f6f6e6c7920656d657267656e6379206d696e7465722063616e2072656e6f756e60448201526f6365206d696e7465722072696768747360801b60648201526084016105f9565b7f00000000000000000000000000000000000000000000000000000000000000006001600160a01b03166370e9749a6040518163ffffffff1660e01b8152600401600060405180830381600087803b15801561108e57600080fd5b505af11580156110a2573d6000803e3d6000fd5b50505050565b610ac4828233610ac8565b6001600160a01b03811660009081526003602052604081206001015481906110df9062278d0090612293565b90504281116110f15750600092915050565b6110fb428261220d565b9392505050565b610ac4828233610534565b60065460ff16156111305760405162461bcd60e51b81526004016105f990612220565b806001600160a01b0316630f4ef8a66040518163ffffffff1660e01b8152600401602060405180830381865afa15801561116e573d6000803e3d6000fd5b505050506040513d601f19601f8201168201806040525081019061119291906121da565b6001600160a01b0316336001600160a01b0316146111fe5760405162461bcd60e51b8152602060048201526024808201527f63616e206f6e6c792062652063616c6c656420627920726577617264206d616e60448201526330b3b2b960e11b60648201526084016105f9565b61120781611809565b50565b60008060007f00000000000000000000000000000000000000000000000000000000000000006001600160a01b031663687958626040518163ffffffff1660e01b8152600401600060405180830381865afa15801561126d573d6000803e3d6000fd5b505050506040513d6000823e601f3d908101601f1916820160405261129591908101906123b7565b905060008060005b83518110156112fe576000806112cc898785815181106112bf576112bf61247c565b6020026020010151611ab6565b90925090506112db8286612293565b94506112e78185612293565b9350505080806112f690612492565b91505061129d565b509590945092505050565b60065460ff161561132c5760405162461bcd60e51b81526004016105f990612220565b60006113378261120a565b509050610ac482826000611c58565b60065460009060ff161561136c5760405162461bcd60e51b81526004016105f990612220565b6001600160a01b03821660009081526005602052604081205461138f904261220d565b9050806000036113b65750506001600160a01b031660009081526004602052604090205490565b6113bf83611d40565b50506001600160a01b038116600090815260056020908152604080832042905560049091529020545b919050565b60065460009060ff161561140357506000919050565b60007f00000000000000000000000000000000000000000000000000000000000000006001600160a01b031663dbcd89fa6040518163ffffffff1660e01b8152600401602060405180830381865afa158015611463573d6000803e3d6000fd5b505050506040513d601f19601f8201168201806040525081019061148791906121da565b604051631d43c9d360e01b81526001600160a01b0385811660048301529190911690631d43c9d390602401602060405180830381865afa1580156114cf573d6000803e3d6000fd5b505050506040513d601f19601f820116820180604052508101906114f39190612257565b6001600160a01b0384166000908152600560205260408120549192509061151a904261220d565b905061152681836124ab565b6001600160a01b0385166000908152600460205260409020546115499190612293565b949350505050565b336001600160a01b037f000000000000000000000000000000000000000000000000000000000000000016146115d55760405162461bcd60e51b815260206004820152602360248201527f4c70546f6b656e5374616b65723a206e6f7420656d657267656e6379206d696e6044820152623a32b960e91b60648201526084016105f9565b60007f00000000000000000000000000000000000000000000000000000000000000006001600160a01b031663687958626040518163ffffffff1660e01b8152600401600060405180830381865afa158015611635573d6000803e3d6000fd5b505050506040513d6000823e601f3d908101601f1916820160405261165d91908101906123b7565b905060005b815181101561169f5761168d8282815181106116805761168061247c565b6020026020010151611809565b8061169781612492565b915050611662565b506006805460ff191660011790556040517f4426aa1fb73e391071491fcfe21a88b5c38a0a0333a1f6e77161470439704cf890600090a150565b60006116e48361120a565b509050610819838284611c58565b6040516001600160a01b03831660248201526044810182905261081990849063a9059cbb60e01b906064015b60408051601f198184030181529190526020810180516001600160e01b03166001600160e01b031990931692909217909152611e95565b60008160ff168360ff160361176b5750826110fb565b8160ff168360ff16111561178b57611784848484611f67565b90506110fb565b611549848484611f88565b60006117a46012600a61238a565b6117ae83856124ab565b6110fb91906124c2565b6040516001600160a01b03808516602483015283166044820152606481018290526110a29085906323b872dd60e01b9060840161171e565b6000816117ff6012600a61238a565b6117ae90856124ab565b604051635b16ebb760e01b81526001600160a01b0382811660048301527f00000000000000000000000000000000000000000000000000000000000000001690635b16ebb790602401602060405180830381865afa15801561186f573d6000803e3d6000fd5b505050506040513d601f19601f8201168201806040525081019061189391906121b8565b6118cc5760405162461bcd60e51b815260206004820152600a6024820152691b9bdd0818481c1bdbdb60b21b60448201526064016105f9565b6118d581611346565b506001600160a01b038116600090815260046020526040812054908190036118fb575050565b6040516340c10f1960e01b81526001600160a01b038381166004830152602482018390527f000000000000000000000000000000000000000000000000000000000000000016906340c10f19906044016020604051808303816000875af115801561196a573d6000803e3d6000fd5b505050506040513d601f19601f8201168201806040525081019061198e9190612257565b507f00000000000000000000000000000000000000000000000000000000000000006001600160a01b031663dbcd89fa6040518163ffffffff1660e01b8152600401602060405180830381865afa1580156119ed573d6000803e3d6000fd5b505050506040513d601f19601f82011682018060405250810190611a1191906121da565b6001600160a01b0316634a17ed596040518163ffffffff1660e01b8152600401600060405180830381600087803b158015611a4b57600080fd5b505af1158015611a5f573d6000803e3d6000fd5b505050506001600160a01b03821660008181526004602090815260408083209290925590518381527f896e034966eaaf1adc54acc0f257056febbd300c9e47182cf761982cf1f5e430910160405180910390a25050565b6000806000836001600160a01b031663ce75040e6040518163ffffffff1660e01b8152600401602060405180830381865afa158015611af9573d6000803e3d6000fd5b505050506040513d601f19601f82011682018060405250810190611b1d9190612257565b90506000846001600160a01b0316635fcbd2856040518163ffffffff1660e01b8152600401602060405180830381865afa158015611b5f573d6000803e3d6000fd5b505050506040513d601f19601f82011682018060405250810190611b8391906121da565b6001600160a01b031663313ce5676040518163ffffffff1660e01b8152600401602060405180830381865afa158015611bc0573d6000803e3d6000fd5b505050506040513d601f19601f82011682018060405250810190611be49190612270565b6001600160a01b038616600090815260026020526040902054909150611c12908390610db590846012611755565b6001600160a01b038088166000908152600160209081526040808320938a1683529290522054909450611c4d908390610db590846012611755565b925050509250929050565b6001600160a01b038316600090815260036020526040812090839003611c8f5767016345785d8a0000815542600190910155505050565b8054611ca967016345785d8a0000610efa6012600a61238a565b611cb39082612293565b9050611cc16012600a61238a565b811115611cd757611cd46012600a61238a565b90505b82600003611ce757808255611d33565b6000611cf38486612293565b9050611d11611d0285836117f0565b67016345785d8a000090611796565b611d25611d1e87846117f0565b8490611796565b611d2f9190612293565b8355505b5042600190910155505050565b60007f00000000000000000000000000000000000000000000000000000000000000006001600160a01b031663dbcd89fa6040518163ffffffff1660e01b8152600401602060405180830381865afa158015611da0573d6000803e3d6000fd5b505050506040513d601f19601f82011682018060405250810190611dc491906121da565b604051631d43c9d360e01b81526001600160a01b0384811660048301529190911690631d43c9d390602401602060405180830381865afa158015611e0c573d6000803e3d6000fd5b505050506040513d601f19601f82011682018060405250810190611e309190612257565b6001600160a01b03831660009081526005602052604081205491925090611e57904261220d565b9050611e6381836124ab565b6001600160a01b03841660009081526004602052604081208054909190611e8b908490612293565b9091555050505050565b6000611eea826040518060400160405280602081526020017f5361666545524332303a206c6f772d6c6576656c2063616c6c206661696c6564815250856001600160a01b0316611fa99092919063ffffffff16565b8051909150156108195780806020019051810190611f0891906121b8565b6108195760405162461bcd60e51b815260206004820152602a60248201527f5361666545524332303a204552433230206f7065726174696f6e20646964206e6044820152691bdd081cdd58d8d9595960b21b60648201526084016105f9565b6000611f7382846124e4565b611f7e90600a6124fd565b61154990856124c2565b6000611f9483836124e4565b611f9f90600a6124fd565b61154990856124ab565b6060611549848460008585600080866001600160a01b03168587604051611fd09190612530565b60006040518083038185875af1925050503d806000811461200d576040519150601f19603f3d011682016040523d82523d6000602084013e612012565b606091505b5091509150610f97878383876060831561208d578251600003612086576001600160a01b0385163b6120865760405162461bcd60e51b815260206004820152601d60248201527f416464726573733a2063616c6c20746f206e6f6e2d636f6e747261637400000060448201526064016105f9565b5081611549565b61154983838151156120a25781518083602001fd5b8060405162461bcd60e51b81526004016105f9919061254c565b6000602082840312156120ce57600080fd5b81356001600160e01b0319811681146110fb57600080fd5b6001600160a01b038116811461120757600080fd5b60008060006060848603121561211057600080fd5b833592506020840135612122816120e6565b91506040840135612132816120e6565b809150509250925092565b6000806040838503121561215057600080fd5b823591506020830135612162816120e6565b809150509250929050565b60006020828403121561217f57600080fd5b81356110fb816120e6565b6000806040838503121561219d57600080fd5b82356121a8816120e6565b91506020830135612162816120e6565b6000602082840312156121ca57600080fd5b815180151581146110fb57600080fd5b6000602082840312156121ec57600080fd5b81516110fb816120e6565b634e487b7160e01b600052601160045260246000fd5b8181038181111561052e5761052e6121f7565b60208082526017908201527f4c70546f6b656e5374616b65723a2073687574646f776e000000000000000000604082015260600190565b60006020828403121561226957600080fd5b5051919050565b60006020828403121561228257600080fd5b815160ff811681146110fb57600080fd5b8082018082111561052e5761052e6121f7565b600181815b808511156122e15781600019048211156122c7576122c76121f7565b808516156122d457918102915b93841c93908002906122ab565b509250929050565b6000826122f85750600161052e565b816123055750600061052e565b816001811461231b576002811461232557612341565b600191505061052e565b60ff841115612336576123366121f7565b50506001821b61052e565b5060208310610133831016604e8410600b8410161715612364575081810a61052e565b61236e83836122a6565b8060001904821115612382576123826121f7565b029392505050565b60006110fb83836122e9565b634e487b7160e01b600052604160045260246000fd5b80516113e8816120e6565b600060208083850312156123ca57600080fd5b825167ffffffffffffffff808211156123e257600080fd5b818501915085601f8301126123f657600080fd5b81518181111561240857612408612396565b8060051b604051601f19603f8301168101818110858211171561242d5761242d612396565b60405291825284820192508381018501918883111561244b57600080fd5b938501935b8285101561247057612461856123ac565b84529385019392850192612450565b98975050505050505050565b634e487b7160e01b600052603260045260246000fd5b6000600182016124a4576124a46121f7565b5060010190565b808202811582820484141761052e5761052e6121f7565b6000826124df57634e487b7160e01b600052601260045260246000fd5b500490565b60ff828116828216039081111561052e5761052e6121f7565b60006110fb60ff8416836122e9565b60005b8381101561252757818101518382015260200161250f565b50506000910152565b6000825161254281846020870161250c565b9190910192915050565b602081526000825180602084015261256b81604085016020870161250c565b601f01601f1916919091016040019291505056fea2646970667358221220de7c22b154233fd2ec7fd380b13b2cededc91c5bf16ab3a48984cfe4743dfcce64736f6c63430008110033","bytecodeSha1":"ed285f664f603d34c4ab994d85f7075677ae0693","compiler":{"evm_version":"istanbul","optimizer":{"enabled":true,"runs":200},"version":"0.8.17+commit.8df45f5f"},"contractName":"LpTokenStaker","language":"Solidity","natspec":{"details":"USD amounts in this contract are always scaled by 1e18","kind":"dev","methods":{"supportsInterface(bytes4)":{"details":"See {IERC165-supportsInterface}."}},"version":1},"opcodes":"PUSH1 0x80 PUSH1 0x40 MSTORE CALLVALUE DUP1 ISZERO PUSH2 0x10 JUMPI PUSH1 0x0 DUP1 REVERT JUMPDEST POP PUSH1 0x4 CALLDATASIZE LT PUSH2 0x1DA JUMPI PUSH1 0x0 CALLDATALOAD PUSH1 0xE0 SHR DUP1 PUSH4 0x8381E182 GT PUSH2 0x104 JUMPI DUP1 PUSH4 0xBB51CCF0 GT PUSH2 0xA2 JUMPI DUP1 PUSH4 0xF77C4791 GT PUSH2 0x71 JUMPI DUP1 PUSH4 0xF77C4791 EQ PUSH2 0x464 JUMPI DUP1 PUSH4 0xFA4083CA EQ PUSH2 0x48B JUMPI DUP1 PUSH4 0xFC0E74D1 EQ PUSH2 0x4C5 JUMPI DUP1 PUSH4 0xFDABC986 EQ PUSH2 0x4CD JUMPI PUSH1 0x0 DUP1 REVERT JUMPDEST DUP1 PUSH4 0xBB51CCF0 EQ PUSH2 0x40E JUMPI DUP1 PUSH4 0xBF86D690 EQ PUSH2 0x41D JUMPI DUP1 PUSH4 0xD3487A8C EQ PUSH2 0x42A JUMPI DUP1 PUSH4 0xF0AA0A1D EQ PUSH2 0x43D JUMPI PUSH1 0x0 DUP1 REVERT JUMPDEST DUP1 PUSH4 0xA0190C17 GT PUSH2 0xDE JUMPI DUP1 PUSH4 0xA0190C17 EQ PUSH2 0x3AD JUMPI DUP1 PUSH4 0xA3F0ED07 EQ PUSH2 0x3C0 JUMPI DUP1 PUSH4 0xA91EA1BA EQ PUSH2 0x3E8 JUMPI DUP1 PUSH4 0xA972985E EQ PUSH2 0x3FB JUMPI PUSH1 0x0 DUP1 REVERT JUMPDEST DUP1 PUSH4 0x8381E182 EQ PUSH2 0x361 JUMPI DUP1 PUSH4 0x863445B8 EQ PUSH2 0x374 JUMPI DUP1 PUSH4 0x8ABA3F77 EQ PUSH2 0x384 JUMPI PUSH1 0x0 DUP1 REVERT JUMPDEST DUP1 PUSH4 0x5598B209 GT PUSH2 0x17C JUMPI DUP1 PUSH4 0x70E9749A GT PUSH2 0x14B JUMPI DUP1 PUSH4 0x70E9749A EQ PUSH2 0x329 JUMPI DUP1 PUSH4 0x7ACB7757 EQ PUSH2 0x331 JUMPI DUP1 PUSH4 0x7B3DB81A EQ PUSH2 0x344 JUMPI DUP1 PUSH4 0x7EA2B459 EQ PUSH2 0x34E JUMPI PUSH1 0x0 DUP1 REVERT JUMPDEST DUP1 PUSH4 0x5598B209 EQ PUSH2 0x28E JUMPI DUP1 PUSH4 0x5E2F23CE EQ PUSH2 0x2B7 JUMPI DUP1 PUSH4 0x62F04C00 EQ PUSH2 0x2F6 JUMPI DUP1 PUSH4 0x67BA3D90 EQ PUSH2 0x316 JUMPI PUSH1 0x0 DUP1 REVERT JUMPDEST DUP1 PUSH4 0xA7486C7 GT PUSH2 0x1B8 JUMPI DUP1 PUSH4 0xA7486C7 EQ PUSH2 0x22F JUMPI DUP1 PUSH4 0xFB51F41 EQ PUSH2 0x24C JUMPI DUP1 PUSH4 0x315865DF EQ PUSH2 0x26C JUMPI DUP1 PUSH4 0x33F1C337 EQ PUSH2 0x27B JUMPI PUSH1 0x0 DUP1 REVERT JUMPDEST DUP1 PUSH4 0x1FFC9A7 EQ PUSH2 0x1DF JUMPI DUP1 PUSH4 0x276D476 EQ PUSH2 0x207 JUMPI DUP1 PUSH4 0x325D161 EQ PUSH2 0x21C JUMPI JUMPDEST PUSH1 0x0 DUP1 REVERT JUMPDEST PUSH2 0x1F2 PUSH2 0x1ED CALLDATASIZE PUSH1 0x4 PUSH2 0x20BC JUMP JUMPDEST PUSH2 0x4F4 JUMP JUMPDEST PUSH1 0x40 MLOAD SWAP1 ISZERO ISZERO DUP2 MSTORE PUSH1 0x20 ADD JUMPDEST PUSH1 0x40 MLOAD DUP1 SWAP2 SUB SWAP1 RETURN JUMPDEST PUSH2 0x21A PUSH2 0x215 CALLDATASIZE PUSH1 0x4 PUSH2 0x20FB JUMP JUMPDEST PUSH2 0x534 JUMP JUMPDEST STOP JUMPDEST PUSH2 0x21A PUSH2 0x22A CALLDATASIZE PUSH1 0x4 PUSH2 0x213D JUMP JUMPDEST PUSH2 0x81E JUMP JUMPDEST PUSH2 0x23E PUSH8 0xDE0B6B3A7640000 DUP2 JUMP JUMPDEST PUSH1 0x40 MLOAD SWAP1 DUP2 MSTORE PUSH1 0x20 ADD PUSH2 0x1FE JUMP JUMPDEST PUSH2 0x23E PUSH2 0x25A CALLDATASIZE PUSH1 0x4 PUSH2 0x216D JUMP JUMPDEST PUSH1 0x4 PUSH1 0x20 MSTORE PUSH1 0x0 SWAP1 DUP2 MSTORE PUSH1 0x40 SWAP1 KECCAK256 SLOAD DUP2 JUMP JUMPDEST PUSH2 0x23E PUSH8 0x8AC7230489E80000 DUP2 JUMP JUMPDEST PUSH2 0x21A PUSH2 0x289 CALLDATASIZE PUSH1 0x4 PUSH2 0x20FB JUMP JUMPDEST PUSH2 0xAC8 JUMP JUMPDEST PUSH2 0x23E PUSH2 0x29C CALLDATASIZE PUSH1 0x4 PUSH2 0x216D JUMP JUMPDEST PUSH1 0x1 PUSH1 0x1 PUSH1 0xA0 SHL SUB AND PUSH1 0x0 SWAP1 DUP2 MSTORE PUSH1 0x2 PUSH1 0x20 MSTORE PUSH1 0x40 SWAP1 KECCAK256 SLOAD SWAP1 JUMP JUMPDEST PUSH2 0x2DE PUSH32 0x0 DUP2 JUMP JUMPDEST PUSH1 0x40 MLOAD PUSH1 0x1 PUSH1 0x1 PUSH1 0xA0 SHL SUB SWAP1 SWAP2 AND DUP2 MSTORE PUSH1 0x20 ADD PUSH2 0x1FE JUMP JUMPDEST PUSH2 0x23E PUSH2 0x304 CALLDATASIZE PUSH1 0x4 PUSH2 0x216D JUMP JUMPDEST PUSH1 0x5 PUSH1 0x20 MSTORE PUSH1 0x0 SWAP1 DUP2 MSTORE PUSH1 0x40 SWAP1 KECCAK256 SLOAD DUP2 JUMP JUMPDEST PUSH2 0x23E PUSH2 0x324 CALLDATASIZE PUSH1 0x4 PUSH2 0x216D JUMP JUMPDEST PUSH2 0xE45 JUMP JUMPDEST PUSH2 0x21A PUSH2 0xFA2 JUMP JUMPDEST PUSH2 0x21A PUSH2 0x33F CALLDATASIZE PUSH1 0x4 PUSH2 0x213D JUMP JUMPDEST PUSH2 0x10A8 JUMP JUMPDEST PUSH2 0x23E PUSH3 0x278D00 DUP2 JUMP JUMPDEST PUSH2 0x23E PUSH2 0x35C CALLDATASIZE PUSH1 0x4 PUSH2 0x216D JUMP JUMPDEST PUSH2 0x10B3 JUMP JUMPDEST PUSH2 0x21A PUSH2 0x36F CALLDATASIZE PUSH1 0x4 PUSH2 0x213D JUMP JUMPDEST PUSH2 0x1102 JUMP JUMPDEST PUSH2 0x23E PUSH9 0x2B5E3AF16B1880000 DUP2 JUMP JUMPDEST PUSH2 0x23E PUSH2 0x392 CALLDATASIZE PUSH1 0x4 PUSH2 0x216D JUMP JUMPDEST PUSH1 0x1 PUSH1 0x1 PUSH1 0xA0 SHL SUB AND PUSH1 0x0 SWAP1 DUP2 MSTORE PUSH1 0x3 PUSH1 0x20 MSTORE PUSH1 0x40 SWAP1 KECCAK256 SLOAD SWAP1 JUMP JUMPDEST PUSH2 0x21A PUSH2 0x3BB CALLDATASIZE PUSH1 0x4 PUSH2 0x216D JUMP JUMPDEST PUSH2 0x110D JUMP JUMPDEST PUSH2 0x3D3 PUSH2 0x3CE CALLDATASIZE PUSH1 0x4 PUSH2 0x216D JUMP JUMPDEST PUSH2 0x120A JUMP JUMPDEST PUSH1 0x40 DUP1 MLOAD SWAP3 DUP4 MSTORE PUSH1 0x20 DUP4 ADD SWAP2 SWAP1 SWAP2 MSTORE ADD PUSH2 0x1FE JUMP JUMPDEST PUSH2 0x21A PUSH2 0x3F6 CALLDATASIZE PUSH1 0x4 PUSH2 0x216D JUMP JUMPDEST PUSH2 0x1309 JUMP JUMPDEST PUSH2 0x23E PUSH2 0x409 CALLDATASIZE PUSH1 0x4 PUSH2 0x216D JUMP JUMPDEST PUSH2 0x1346 JUMP JUMPDEST PUSH2 0x23E PUSH8 0x16345785D8A0000 DUP2 JUMP JUMPDEST PUSH1 0x6 SLOAD PUSH2 0x1F2 SWAP1 PUSH1 0xFF AND DUP2 JUMP JUMPDEST PUSH2 0x23E PUSH2 0x438 CALLDATASIZE PUSH1 0x4 PUSH2 0x216D JUMP JUMPDEST PUSH2 0x13ED JUMP JUMPDEST PUSH2 0x2DE PUSH32 0x0 DUP2 JUMP JUMPDEST PUSH2 0x2DE PUSH32 0x0 DUP2 JUMP JUMPDEST PUSH2 0x23E PUSH2 0x499 CALLDATASIZE PUSH1 0x4 PUSH2 0x218A JUMP JUMPDEST PUSH1 0x1 PUSH1 0x1 PUSH1 0xA0 SHL SUB DUP1 DUP3 AND PUSH1 0x0 SWAP1 DUP2 MSTORE PUSH1 0x1 PUSH1 0x20 SWAP1 DUP2 MSTORE PUSH1 0x40 DUP1 DUP4 KECCAK256 SWAP4 DUP7 AND DUP4 MSTORE SWAP3 SWAP1 MSTORE KECCAK256 SLOAD SWAP3 SWAP2 POP POP JUMP JUMPDEST PUSH2 0x21A PUSH2 0x1551 JUMP JUMPDEST PUSH2 0x3D3 PUSH2 0x4DB CALLDATASIZE PUSH1 0x4 PUSH2 0x216D JUMP JUMPDEST PUSH1 0x3 PUSH1 0x20 MSTORE PUSH1 0x0 SWAP1 DUP2 MSTORE PUSH1 0x40 SWAP1 KECCAK256 DUP1 SLOAD PUSH1 0x1 SWAP1 SWAP2 ADD SLOAD DUP3 JUMP JUMPDEST PUSH1 0x0 PUSH4 0x1FFC9A7 PUSH1 0xE0 SHL PUSH1 0x1 PUSH1 0x1 PUSH1 0xE0 SHL SUB NOT DUP4 AND EQ DUP1 PUSH2 0x52E JUMPI POP PUSH1 0x1 PUSH1 0x1 PUSH1 0xE0 SHL SUB NOT DUP3 AND PUSH1 0x0 SWAP1 DUP2 MSTORE PUSH1 0x20 DUP2 SWAP1 MSTORE PUSH1 0x40 SWAP1 KECCAK256 SLOAD PUSH1 0xFF AND JUMPDEST SWAP3 SWAP2 POP POP JUMP JUMPDEST PUSH1 0x40 MLOAD PUSH4 0x5B16EBB7 PUSH1 0xE0 SHL DUP2 MSTORE PUSH1 0x1 PUSH1 0x1 PUSH1 0xA0 SHL SUB DUP4 DUP2 AND PUSH1 0x4 DUP4 ADD MSTORE PUSH32 0x0 AND SWAP1 PUSH4 0x5B16EBB7 SWAP1 PUSH1 0x24 ADD PUSH1 0x20 PUSH1 0x40 MLOAD DUP1 DUP4 SUB DUP2 DUP7 GAS STATICCALL ISZERO DUP1 ISZERO PUSH2 0x59A JUMPI RETURNDATASIZE PUSH1 0x0 DUP1 RETURNDATACOPY RETURNDATASIZE PUSH1 0x0 REVERT JUMPDEST POP POP POP POP PUSH1 0x40 MLOAD RETURNDATASIZE PUSH1 0x1F NOT PUSH1 0x1F DUP3 ADD AND DUP3 ADD DUP1 PUSH1 0x40 MSTORE POP DUP2 ADD SWAP1 PUSH2 0x5BE SWAP2 SWAP1 PUSH2 0x21B8 JUMP JUMPDEST PUSH2 0x602 JUMPI PUSH1 0x40 MLOAD PUSH3 0x461BCD PUSH1 0xE5 SHL DUP2 MSTORE PUSH1 0x20 PUSH1 0x4 DUP3 ADD MSTORE PUSH1 0x10 PUSH1 0x24 DUP3 ADD MSTORE PUSH16 0x1B9BDD08184818DBDB9A58C81C1BDBDB PUSH1 0x82 SHL PUSH1 0x44 DUP3 ADD MSTORE PUSH1 0x64 ADD JUMPDEST PUSH1 0x40 MLOAD DUP1 SWAP2 SUB SWAP1 REVERT JUMPDEST CALLER PUSH1 0x0 SWAP1 DUP2 MSTORE PUSH1 0x1 PUSH1 0x20 SWAP1 DUP2 MSTORE PUSH1 0x40 DUP1 DUP4 KECCAK256 PUSH1 0x1 PUSH1 0x1 PUSH1 0xA0 SHL SUB DUP7 AND DUP5 MSTORE SWAP1 SWAP2 MSTORE SWAP1 KECCAK256 SLOAD DUP4 GT ISZERO PUSH2 0x669 JUMPI PUSH1 0x40 MLOAD PUSH3 0x461BCD PUSH1 0xE5 SHL DUP2 MSTORE PUSH1 0x20 PUSH1 0x4 DUP3 ADD MSTORE PUSH1 0x11 PUSH1 0x24 DUP3 ADD MSTORE PUSH17 0x1B9BDD08195B9BDD59DA081CDD185AD959 PUSH1 0x7A SHL PUSH1 0x44 DUP3 ADD MSTORE PUSH1 0x64 ADD PUSH2 0x5F9 JUMP JUMPDEST PUSH1 0x6 SLOAD PUSH1 0xFF AND PUSH2 0x73B JUMPI DUP2 PUSH1 0x1 PUSH1 0x1 PUSH1 0xA0 SHL SUB AND PUSH4 0xF4EF8A6 PUSH1 0x40 MLOAD DUP2 PUSH4 0xFFFFFFFF AND PUSH1 0xE0 SHL DUP2 MSTORE PUSH1 0x4 ADD PUSH1 0x20 PUSH1 0x40 MLOAD DUP1 DUP4 SUB DUP2 DUP7 GAS STATICCALL ISZERO DUP1 ISZERO PUSH2 0x6B1 JUMPI RETURNDATASIZE PUSH1 0x0 DUP1 RETURNDATACOPY RETURNDATASIZE PUSH1 0x0 REVERT JUMPDEST POP POP POP POP PUSH1 0x40 MLOAD RETURNDATASIZE PUSH1 0x1F NOT PUSH1 0x1F DUP3 ADD AND DUP3 ADD DUP1 PUSH1 0x40 MSTORE POP DUP2 ADD SWAP1 PUSH2 0x6D5 SWAP2 SWAP1 PUSH2 0x21DA JUMP JUMPDEST PUSH1 0x40 MLOAD PUSH4 0xBF928F8B PUSH1 0xE0 SHL DUP2 MSTORE CALLER PUSH1 0x4 DUP3 ADD MSTORE PUSH1 0x1 PUSH1 0x1 PUSH1 0xA0 SHL SUB SWAP2 SWAP1 SWAP2 AND SWAP1 PUSH4 0xBF928F8B SWAP1 PUSH1 0x24 ADD PUSH1 0x0 PUSH1 0x40 MLOAD DUP1 DUP4 SUB DUP2 PUSH1 0x0 DUP8 DUP1 EXTCODESIZE ISZERO DUP1 ISZERO PUSH2 0x718 JUMPI PUSH1 0x0 DUP1 REVERT JUMPDEST POP GAS CALL ISZERO DUP1 ISZERO PUSH2 0x72C JUMPI RETURNDATASIZE PUSH1 0x0 DUP1 RETURNDATACOPY RETURNDATASIZE PUSH1 0x0 REVERT JUMPDEST POP POP POP POP PUSH2 0x73B CALLER PUSH1 0x0 PUSH2 0x16D9 JUMP JUMPDEST CALLER PUSH1 0x0 SWAP1 DUP2 MSTORE PUSH1 0x1 PUSH1 0x20 SWAP1 DUP2 MSTORE PUSH1 0x40 DUP1 DUP4 KECCAK256 PUSH1 0x1 PUSH1 0x1 PUSH1 0xA0 SHL SUB DUP7 AND DUP5 MSTORE SWAP1 SWAP2 MSTORE DUP2 KECCAK256 DUP1 SLOAD DUP6 SWAP3 SWAP1 PUSH2 0x76E SWAP1 DUP5 SWAP1 PUSH2 0x220D JUMP JUMPDEST SWAP1 SWAP2 SSTORE POP POP PUSH1 0x1 PUSH1 0x1 PUSH1 0xA0 SHL SUB DUP3 AND PUSH1 0x0 SWAP1 DUP2 MSTORE PUSH1 0x2 PUSH1 0x20 MSTORE PUSH1 0x40 DUP2 KECCAK256 DUP1 SLOAD DUP6 SWAP3 SWAP1 PUSH2 0x79B SWAP1 DUP5 SWAP1 PUSH2 0x220D JUMP JUMPDEST SWAP3 POP POP DUP2 SWAP1 SSTORE POP PUSH2 0x819 DUP2 DUP5 DUP5 PUSH1 0x1 PUSH1 0x1 PUSH1 0xA0 SHL SUB AND PUSH4 0x5FCBD285 PUSH1 0x40 MLOAD DUP2 PUSH4 0xFFFFFFFF AND PUSH1 0xE0 SHL DUP2 MSTORE PUSH1 0x4 ADD PUSH1 0x20 PUSH1 0x40 MLOAD DUP1 DUP4 SUB DUP2 DUP7 GAS STATICCALL ISZERO DUP1 ISZERO PUSH2 0x7E5 JUMPI RETURNDATASIZE PUSH1 0x0 DUP1 RETURNDATACOPY RETURNDATASIZE PUSH1 0x0 REVERT JUMPDEST POP POP POP POP PUSH1 0x40 MLOAD RETURNDATASIZE PUSH1 0x1F NOT PUSH1 0x1F DUP3 ADD AND DUP3 ADD DUP1 PUSH1 0x40 MSTORE POP DUP2 ADD SWAP1 PUSH2 0x809 SWAP2 SWAP1 PUSH2 0x21DA JUMP JUMPDEST PUSH1 0x1 PUSH1 0x1 PUSH1 0xA0 SHL SUB AND SWAP2 SWAP1 PUSH2 0x16F2 JUMP JUMPDEST POP POP POP JUMP JUMPDEST PUSH1 0x40 MLOAD PUSH4 0x5B16EBB7 PUSH1 0xE0 SHL DUP2 MSTORE CALLER PUSH1 0x4 DUP3 ADD MSTORE PUSH32 0x0 PUSH1 0x1 PUSH1 0x1 PUSH1 0xA0 SHL SUB AND SWAP1 PUSH4 0x5B16EBB7 SWAP1 PUSH1 0x24 ADD PUSH1 0x20 PUSH1 0x40 MLOAD DUP1 DUP4 SUB DUP2 DUP7 GAS STATICCALL ISZERO DUP1 ISZERO PUSH2 0x882 JUMPI RETURNDATASIZE PUSH1 0x0 DUP1 RETURNDATACOPY RETURNDATASIZE PUSH1 0x0 REVERT JUMPDEST POP POP POP POP PUSH1 0x40 MLOAD RETURNDATASIZE PUSH1 0x1F NOT PUSH1 0x1F DUP3 ADD AND DUP3 ADD DUP1 PUSH1 0x40 MSTORE POP DUP2 ADD SWAP1 PUSH2 0x8A6 SWAP2 SWAP1 PUSH2 0x21B8 JUMP JUMPDEST PUSH2 0x8F2 JUMPI PUSH1 0x40 MLOAD PUSH3 0x461BCD PUSH1 0xE5 SHL DUP2 MSTORE PUSH1 0x20 PUSH1 0x4 DUP3 ADD MSTORE PUSH1 0x1D PUSH1 0x24 DUP3 ADD MSTORE PUSH32 0x6F6E6C792063616C6C61626C652066726F6D20636F6E696320706F6F6C000000 PUSH1 0x44 DUP3 ADD MSTORE PUSH1 0x64 ADD PUSH2 0x5F9 JUMP JUMPDEST PUSH1 0x1 PUSH1 0x1 PUSH1 0xA0 SHL SUB DUP2 AND PUSH1 0x0 SWAP1 DUP2 MSTORE PUSH1 0x1 PUSH1 0x20 SWAP1 DUP2 MSTORE PUSH1 0x40 DUP1 DUP4 KECCAK256 CALLER DUP5 MSTORE SWAP1 SWAP2 MSTORE SWAP1 KECCAK256 SLOAD DUP3 GT ISZERO PUSH2 0x959 JUMPI PUSH1 0x40 MLOAD PUSH3 0x461BCD PUSH1 0xE5 SHL DUP2 MSTORE PUSH1 0x20 PUSH1 0x4 DUP3 ADD MSTORE PUSH1 0x11 PUSH1 0x24 DUP3 ADD MSTORE PUSH17 0x1B9BDD08195B9BDD59DA081CDD185AD959 PUSH1 0x7A SHL PUSH1 0x44 DUP3 ADD MSTORE PUSH1 0x64 ADD PUSH2 0x5F9 JUMP JUMPDEST CALLER PUSH1 0x1 PUSH1 0x1 PUSH1 0xA0 SHL SUB AND PUSH4 0xF4EF8A6 PUSH1 0x40 MLOAD DUP2 PUSH4 0xFFFFFFFF AND PUSH1 0xE0 SHL DUP2 MSTORE PUSH1 0x4 ADD PUSH1 0x20 PUSH1 0x40 MLOAD DUP1 DUP4 SUB DUP2 DUP7 GAS STATICCALL ISZERO DUP1 ISZERO PUSH2 0x997 JUMPI RETURNDATASIZE PUSH1 0x0 DUP1 RETURNDATACOPY RETURNDATASIZE PUSH1 0x0 REVERT JUMPDEST POP POP POP POP PUSH1 0x40 MLOAD RETURNDATASIZE PUSH1 0x1F NOT PUSH1 0x1F DUP3 ADD AND DUP3 ADD DUP1 PUSH1 0x40 MSTORE POP DUP2 ADD SWAP1 PUSH2 0x9BB SWAP2 SWAP1 PUSH2 0x21DA JUMP JUMPDEST PUSH1 0x40 MLOAD PUSH4 0xBF928F8B PUSH1 0xE0 SHL DUP2 MSTORE PUSH1 0x1 PUSH1 0x1 PUSH1 0xA0 SHL SUB DUP4 DUP2 AND PUSH1 0x4 DUP4 ADD MSTORE SWAP2 SWAP1 SWAP2 AND SWAP1 PUSH4 0xBF928F8B SWAP1 PUSH1 0x24 ADD PUSH1 0x0 PUSH1 0x40 MLOAD DUP1 DUP4 SUB DUP2 PUSH1 0x0 DUP8 DUP1 EXTCODESIZE ISZERO DUP1 ISZERO PUSH2 0xA00 JUMPI PUSH1 0x0 DUP1 REVERT JUMPDEST POP GAS CALL ISZERO DUP1 ISZERO PUSH2 0xA14 JUMPI RETURNDATASIZE PUSH1 0x0 DUP1 RETURNDATACOPY RETURNDATASIZE PUSH1 0x0 REVERT JUMPDEST POP POP POP POP PUSH2 0xA23 DUP2 PUSH1 0x0 PUSH2 0x16D9 JUMP JUMPDEST PUSH1 0x1 PUSH1 0x1 PUSH1 0xA0 SHL SUB DUP2 AND PUSH1 0x0 SWAP1 DUP2 MSTORE PUSH1 0x1 PUSH1 0x20 SWAP1 DUP2 MSTORE PUSH1 0x40 DUP1 DUP4 KECCAK256 CALLER DUP5 MSTORE SWAP1 SWAP2 MSTORE DUP2 KECCAK256 DUP1 SLOAD DUP5 SWAP3 SWAP1 PUSH2 0xA56 SWAP1 DUP5 SWAP1 PUSH2 0x220D JUMP JUMPDEST SWAP1 SWAP2 SSTORE POP POP CALLER PUSH1 0x0 SWAP1 DUP2 MSTORE PUSH1 0x2 PUSH1 0x20 MSTORE PUSH1 0x40 DUP2 KECCAK256 DUP1 SLOAD DUP5 SWAP3 SWAP1 PUSH2 0xA7A SWAP1 DUP5 SWAP1 PUSH2 0x220D JUMP JUMPDEST SWAP3 POP POP DUP2 SWAP1 SSTORE POP PUSH2 0xAC4 DUP2 DUP4 CALLER PUSH1 0x1 PUSH1 0x1 PUSH1 0xA0 SHL SUB AND PUSH4 0x5FCBD285 PUSH1 0x40 MLOAD DUP2 PUSH4 0xFFFFFFFF AND PUSH1 0xE0 SHL DUP2 MSTORE PUSH1 0x4 ADD PUSH1 0x20 PUSH1 0x40 MLOAD DUP1 DUP4 SUB DUP2 DUP7 GAS STATICCALL ISZERO DUP1 ISZERO PUSH2 0x7E5 JUMPI RETURNDATASIZE PUSH1 0x0 DUP1 RETURNDATACOPY RETURNDATASIZE PUSH1 0x0 REVERT JUMPDEST POP POP JUMP JUMPDEST PUSH1 0x6 SLOAD PUSH1 0xFF AND ISZERO PUSH2 0xAEB JUMPI PUSH1 0x40 MLOAD PUSH3 0x461BCD PUSH1 0xE5 SHL DUP2 MSTORE PUSH1 0x4 ADD PUSH2 0x5F9 SWAP1 PUSH2 0x2220 JUMP JUMPDEST PUSH1 0x40 MLOAD PUSH4 0x5B16EBB7 PUSH1 0xE0 SHL DUP2 MSTORE PUSH1 0x1 PUSH1 0x1 PUSH1 0xA0 SHL SUB DUP4 DUP2 AND PUSH1 0x4 DUP4 ADD MSTORE PUSH32 0x0 AND SWAP1 PUSH4 0x5B16EBB7 SWAP1 PUSH1 0x24 ADD PUSH1 0x20 PUSH1 0x40 MLOAD DUP1 DUP4 SUB DUP2 DUP7 GAS STATICCALL ISZERO DUP1 ISZERO PUSH2 0xB51 JUMPI RETURNDATASIZE PUSH1 0x0 DUP1 RETURNDATACOPY RETURNDATASIZE PUSH1 0x0 REVERT JUMPDEST POP POP POP POP PUSH1 0x40 MLOAD RETURNDATASIZE PUSH1 0x1F NOT PUSH1 0x1F DUP3 ADD AND DUP3 ADD DUP1 PUSH1 0x40 MSTORE POP DUP2 ADD SWAP1 PUSH2 0xB75 SWAP2 SWAP1 PUSH2 0x21B8 JUMP JUMPDEST PUSH2 0xBB4 JUMPI PUSH1 0x40 MLOAD PUSH3 0x461BCD PUSH1 0xE5 SHL DUP2 MSTORE PUSH1 0x20 PUSH1 0x4 DUP3 ADD MSTORE PUSH1 0x10 PUSH1 0x24 DUP3 ADD MSTORE PUSH16 0x1B9BDD08184818DBDB9A58C81C1BDBDB PUSH1 0x82 SHL PUSH1 0x44 DUP3 ADD MSTORE PUSH1 0x64 ADD PUSH2 0x5F9 JUMP JUMPDEST PUSH1 0x0 DUP3 PUSH1 0x1 PUSH1 0x1 PUSH1 0xA0 SHL SUB AND PUSH4 0x5FCBD285 PUSH1 0x40 MLOAD DUP2 PUSH4 0xFFFFFFFF AND PUSH1 0xE0 SHL DUP2 MSTORE PUSH1 0x4 ADD PUSH1 0x20 PUSH1 0x40 MLOAD DUP1 DUP4 SUB DUP2 DUP7 GAS STATICCALL ISZERO DUP1 ISZERO PUSH2 0xBF4 JUMPI RETURNDATASIZE PUSH1 0x0 DUP1 RETURNDATACOPY RETURNDATASIZE PUSH1 0x0 REVERT JUMPDEST POP POP POP POP PUSH1 0x40 MLOAD RETURNDATASIZE PUSH1 0x1F NOT PUSH1 0x1F DUP3 ADD AND DUP3 ADD DUP1 PUSH1 0x40 MSTORE POP DUP2 ADD SWAP1 PUSH2 0xC18 SWAP2 SWAP1 PUSH2 0x21DA JUMP JUMPDEST SWAP1 POP PUSH1 0x0 DUP4 PUSH1 0x1 PUSH1 0x1 PUSH1 0xA0 SHL SUB AND PUSH4 0xCE75040E PUSH1 0x40 MLOAD DUP2 PUSH4 0xFFFFFFFF AND PUSH1 0xE0 SHL DUP2 MSTORE PUSH1 0x4 ADD PUSH1 0x20 PUSH1 0x40 MLOAD DUP1 DUP4 SUB DUP2 DUP7 GAS STATICCALL ISZERO DUP1 ISZERO PUSH2 0xC5A JUMPI RETURNDATASIZE PUSH1 0x0 DUP1 RETURNDATACOPY RETURNDATASIZE PUSH1 0x0 REVERT JUMPDEST POP POP POP POP PUSH1 0x40 MLOAD RETURNDATASIZE PUSH1 0x1F NOT PUSH1 0x1F DUP3 ADD AND DUP3 ADD DUP1 PUSH1 0x40 MSTORE POP DUP2 ADD SWAP1 PUSH2 0xC7E SWAP2 SWAP1 PUSH2 0x2257 JUMP JUMPDEST SWAP1 POP DUP4 PUSH1 0x1 PUSH1 0x1 PUSH1 0xA0 SHL SUB AND PUSH4 0xF4EF8A6 PUSH1 0x40 MLOAD DUP2 PUSH4 0xFFFFFFFF AND PUSH1 0xE0 SHL DUP2 MSTORE PUSH1 0x4 ADD PUSH1 0x20 PUSH1 0x40 MLOAD DUP1 DUP4 SUB DUP2 DUP7 GAS STATICCALL ISZERO DUP1 ISZERO PUSH2 0xCBE JUMPI RETURNDATASIZE PUSH1 0x0 DUP1 RETURNDATACOPY RETURNDATASIZE PUSH1 0x0 REVERT JUMPDEST POP POP POP POP PUSH1 0x40 MLOAD RETURNDATASIZE PUSH1 0x1F NOT PUSH1 0x1F DUP3 ADD AND DUP3 ADD DUP1 PUSH1 0x40 MSTORE POP DUP2 ADD SWAP1 PUSH2 0xCE2 SWAP2 SWAP1 PUSH2 0x21DA JUMP JUMPDEST PUSH1 0x40 MLOAD PUSH4 0xBF928F8B PUSH1 0xE0 SHL DUP2 MSTORE PUSH1 0x1 PUSH1 0x1 PUSH1 0xA0 SHL SUB DUP6 DUP2 AND PUSH1 0x4 DUP4 ADD MSTORE SWAP2 SWAP1 SWAP2 AND SWAP1 PUSH4 0xBF928F8B SWAP1 PUSH1 0x24 ADD PUSH1 0x0 PUSH1 0x40 MLOAD DUP1 DUP4 SUB DUP2 PUSH1 0x0 DUP8 DUP1 EXTCODESIZE ISZERO DUP1 ISZERO PUSH2 0xD27 JUMPI PUSH1 0x0 DUP1 REVERT JUMPDEST POP GAS CALL ISZERO DUP1 ISZERO PUSH2 0xD3B JUMPI RETURNDATASIZE PUSH1 0x0 DUP1 RETURNDATACOPY RETURNDATASIZE PUSH1 0x0 REVERT JUMPDEST POP POP POP POP PUSH2 0xDC0 DUP4 PUSH2 0xDBB DUP4 PUSH2 0xDB5 DUP7 PUSH1 0x1 PUSH1 0x1 PUSH1 0xA0 SHL SUB AND PUSH4 0x313CE567 PUSH1 0x40 MLOAD DUP2 PUSH4 0xFFFFFFFF AND PUSH1 0xE0 SHL DUP2 MSTORE PUSH1 0x4 ADD PUSH1 0x20 PUSH1 0x40 MLOAD DUP1 DUP4 SUB DUP2 DUP7 GAS STATICCALL ISZERO DUP1 ISZERO PUSH2 0xD88 JUMPI RETURNDATASIZE PUSH1 0x0 DUP1 RETURNDATACOPY RETURNDATASIZE PUSH1 0x0 REVERT JUMPDEST POP POP POP POP PUSH1 0x40 MLOAD RETURNDATASIZE PUSH1 0x1F NOT PUSH1 0x1F DUP3 ADD AND DUP3 ADD DUP1 PUSH1 0x40 MSTORE POP DUP2 ADD SWAP1 PUSH2 0xDAC SWAP2 SWAP1 PUSH2 0x2270 JUMP JUMPDEST DUP11 SWAP1 PUSH1 0x12 PUSH2 0x1755 JUMP JUMPDEST SWAP1 PUSH2 0x1796 JUMP JUMPDEST PUSH2 0x16D9 JUMP JUMPDEST PUSH2 0xDD5 PUSH1 0x1 PUSH1 0x1 PUSH1 0xA0 SHL SUB DUP4 AND CALLER ADDRESS DUP9 PUSH2 0x17B8 JUMP JUMPDEST PUSH1 0x1 PUSH1 0x1 PUSH1 0xA0 SHL SUB DUP1 DUP5 AND PUSH1 0x0 SWAP1 DUP2 MSTORE PUSH1 0x1 PUSH1 0x20 SWAP1 DUP2 MSTORE PUSH1 0x40 DUP1 DUP4 KECCAK256 SWAP4 DUP9 AND DUP4 MSTORE SWAP3 SWAP1 MSTORE SWAP1 DUP2 KECCAK256 DUP1 SLOAD DUP8 SWAP3 SWAP1 PUSH2 0xE0C SWAP1 DUP5 SWAP1 PUSH2 0x2293 JUMP JUMPDEST SWAP1 SWAP2 SSTORE POP POP PUSH1 0x1 PUSH1 0x1 PUSH1 0xA0 SHL SUB DUP5 AND PUSH1 0x0 SWAP1 DUP2 MSTORE PUSH1 0x2 PUSH1 0x20 MSTORE PUSH1 0x40 DUP2 KECCAK256 DUP1 SLOAD DUP8 SWAP3 SWAP1 PUSH2 0xE39 SWAP1 DUP5 SWAP1 PUSH2 0x2293 JUMP JUMPDEST SWAP1 SWAP2 SSTORE POP POP POP POP POP POP POP JUMP JUMPDEST PUSH1 0x6 SLOAD PUSH1 0x0 SWAP1 PUSH1 0xFF AND ISZERO PUSH2 0xE62 JUMPI POP PUSH8 0xDE0B6B3A7640000 SWAP2 SWAP1 POP JUMP JUMPDEST PUSH1 0x0 DUP1 PUSH2 0xE6E DUP5 PUSH2 0x120A JUMP JUMPDEST SWAP2 POP SWAP2 POP DUP1 PUSH1 0x0 EQ DUP1 PUSH2 0xE7F JUMPI POP DUP2 ISZERO JUMPDEST ISZERO PUSH2 0xE95 JUMPI POP PUSH8 0xDE0B6B3A7640000 SWAP4 SWAP3 POP POP POP JUMP JUMPDEST PUSH1 0x0 PUSH2 0xEAE PUSH9 0x2B5E3AF16B1880000 PUSH2 0xDB5 DUP6 DUP6 PUSH2 0x17F0 JUMP JUMPDEST PUSH2 0xEBA PUSH1 0x12 PUSH1 0xA PUSH2 0x238A JUMP JUMPDEST PUSH2 0xEC4 SWAP2 SWAP1 PUSH2 0x2293 JUMP JUMPDEST PUSH1 0x1 PUSH1 0x1 PUSH1 0xA0 SHL SUB DUP7 AND PUSH1 0x0 SWAP1 DUP2 MSTORE PUSH1 0x3 PUSH1 0x20 MSTORE PUSH1 0x40 SWAP1 KECCAK256 DUP1 SLOAD SWAP2 SWAP3 POP SWAP1 PUSH2 0xF21 PUSH8 0x16345785D8A0000 PUSH2 0xEFA PUSH1 0x12 PUSH1 0xA PUSH2 0x238A JUMP JUMPDEST PUSH2 0xF04 SWAP2 SWAP1 PUSH2 0x220D JUMP JUMPDEST PUSH2 0xDB5 PUSH3 0x278D00 DUP6 PUSH1 0x1 ADD SLOAD TIMESTAMP PUSH2 0xF1B SWAP2 SWAP1 PUSH2 0x220D JUMP JUMPDEST SWAP1 PUSH2 0x17F0 JUMP JUMPDEST PUSH2 0xF2B SWAP1 DUP3 PUSH2 0x2293 JUMP JUMPDEST SWAP1 POP PUSH2 0xF39 PUSH1 0x12 PUSH1 0xA PUSH2 0x238A JUMP JUMPDEST DUP2 GT ISZERO PUSH2 0xF4F JUMPI PUSH2 0xF4C PUSH1 0x12 PUSH1 0xA PUSH2 0x238A JUMP JUMPDEST SWAP1 POP JUMPDEST PUSH1 0x0 PUSH2 0xF5B DUP5 DUP4 PUSH2 0x1796 JUMP JUMPDEST SWAP1 POP PUSH8 0xDE0B6B3A7640000 DUP2 LT ISZERO PUSH2 0xF7C JUMPI POP PUSH8 0xDE0B6B3A7640000 PUSH2 0xF97 JUMP JUMPDEST PUSH8 0x8AC7230489E80000 DUP2 GT ISZERO PUSH2 0xF97 JUMPI POP PUSH8 0x8AC7230489E80000 JUMPDEST SWAP8 SWAP7 POP POP POP POP POP POP POP JUMP JUMPDEST CALLER PUSH1 0x1 PUSH1 0x1 PUSH1 0xA0 SHL SUB PUSH32 0x0 AND EQ PUSH2 0x1033 JUMPI PUSH1 0x40 MLOAD PUSH3 0x461BCD PUSH1 0xE5 SHL DUP2 MSTORE PUSH1 0x20 PUSH1 0x4 DUP3 ADD MSTORE PUSH1 0x30 PUSH1 0x24 DUP3 ADD MSTORE PUSH32 0x6F6E6C7920656D657267656E6379206D696E7465722063616E2072656E6F756E PUSH1 0x44 DUP3 ADD MSTORE PUSH16 0x6365206D696E74657220726967687473 PUSH1 0x80 SHL PUSH1 0x64 DUP3 ADD MSTORE PUSH1 0x84 ADD PUSH2 0x5F9 JUMP JUMPDEST PUSH32 0x0 PUSH1 0x1 PUSH1 0x1 PUSH1 0xA0 SHL SUB AND PUSH4 0x70E9749A PUSH1 0x40 MLOAD DUP2 PUSH4 0xFFFFFFFF AND PUSH1 0xE0 SHL DUP2 MSTORE PUSH1 0x4 ADD PUSH1 0x0 PUSH1 0x40 MLOAD DUP1 DUP4 SUB DUP2 PUSH1 0x0 DUP8 DUP1 EXTCODESIZE ISZERO DUP1 ISZERO PUSH2 0x108E JUMPI PUSH1 0x0 DUP1 REVERT JUMPDEST POP GAS CALL ISZERO DUP1 ISZERO PUSH2 0x10A2 JUMPI RETURNDATASIZE PUSH1 0x0 DUP1 RETURNDATACOPY RETURNDATASIZE PUSH1 0x0 REVERT JUMPDEST POP POP POP POP JUMP JUMPDEST PUSH2 0xAC4 DUP3 DUP3 CALLER PUSH2 0xAC8 JUMP JUMPDEST PUSH1 0x1 PUSH1 0x1 PUSH1 0xA0 SHL SUB DUP2 AND PUSH1 0x0 SWAP1 DUP2 MSTORE PUSH1 0x3 PUSH1 0x20 MSTORE PUSH1 0x40 DUP2 KECCAK256 PUSH1 0x1 ADD SLOAD DUP2 SWAP1 PUSH2 0x10DF SWAP1 PUSH3 0x278D00 SWAP1 PUSH2 0x2293 JUMP JUMPDEST SWAP1 POP TIMESTAMP DUP2 GT PUSH2 0x10F1 JUMPI POP PUSH1 0x0 SWAP3 SWAP2 POP POP JUMP JUMPDEST PUSH2 0x10FB TIMESTAMP DUP3 PUSH2 0x220D JUMP JUMPDEST SWAP4 SWAP3 POP POP POP JUMP JUMPDEST PUSH2 0xAC4 DUP3 DUP3 CALLER PUSH2 0x534 JUMP JUMPDEST PUSH1 0x6 SLOAD PUSH1 0xFF AND ISZERO PUSH2 0x1130 JUMPI PUSH1 0x40 MLOAD PUSH3 0x461BCD PUSH1 0xE5 SHL DUP2 MSTORE PUSH1 0x4 ADD PUSH2 0x5F9 SWAP1 PUSH2 0x2220 JUMP JUMPDEST DUP1 PUSH1 0x1 PUSH1 0x1 PUSH1 0xA0 SHL SUB AND PUSH4 0xF4EF8A6 PUSH1 0x40 MLOAD DUP2 PUSH4 0xFFFFFFFF AND PUSH1 0xE0 SHL DUP2 MSTORE PUSH1 0x4 ADD PUSH1 0x20 PUSH1 0x40 MLOAD DUP1 DUP4 SUB DUP2 DUP7 GAS STATICCALL ISZERO DUP1 ISZERO PUSH2 0x116E JUMPI RETURNDATASIZE PUSH1 0x0 DUP1 RETURNDATACOPY RETURNDATASIZE PUSH1 0x0 REVERT JUMPDEST POP POP POP POP PUSH1 0x40 MLOAD RETURNDATASIZE PUSH1 0x1F NOT PUSH1 0x1F DUP3 ADD AND DUP3 ADD DUP1 PUSH1 0x40 MSTORE POP DUP2 ADD SWAP1 PUSH2 0x1192 SWAP2 SWAP1 PUSH2 0x21DA JUMP JUMPDEST PUSH1 0x1 PUSH1 0x1 PUSH1 0xA0 SHL SUB AND CALLER PUSH1 0x1 PUSH1 0x1 PUSH1 0xA0 SHL SUB AND EQ PUSH2 0x11FE JUMPI PUSH1 0x40 MLOAD PUSH3 0x461BCD PUSH1 0xE5 SHL DUP2 MSTORE PUSH1 0x20 PUSH1 0x4 DUP3 ADD MSTORE PUSH1 0x24 DUP1 DUP3 ADD MSTORE PUSH32 0x63616E206F6E6C792062652063616C6C656420627920726577617264206D616E PUSH1 0x44 DUP3 ADD MSTORE PUSH4 0x30B3B2B9 PUSH1 0xE1 SHL PUSH1 0x64 DUP3 ADD MSTORE PUSH1 0x84 ADD PUSH2 0x5F9 JUMP JUMPDEST PUSH2 0x1207 DUP2 PUSH2 0x1809 JUMP JUMPDEST POP JUMP JUMPDEST PUSH1 0x0 DUP1 PUSH1 0x0 PUSH32 0x0 PUSH1 0x1 PUSH1 0x1 PUSH1 0xA0 SHL SUB AND PUSH4 0x68795862 PUSH1 0x40 MLOAD DUP2 PUSH4 0xFFFFFFFF AND PUSH1 0xE0 SHL DUP2 MSTORE PUSH1 0x4 ADD PUSH1 0x0 PUSH1 0x40 MLOAD DUP1 DUP4 SUB DUP2 DUP7 GAS STATICCALL ISZERO DUP1 ISZERO PUSH2 0x126D JUMPI RETURNDATASIZE PUSH1 0x0 DUP1 RETURNDATACOPY RETURNDATASIZE PUSH1 0x0 REVERT JUMPDEST POP POP POP POP PUSH1 0x40 MLOAD RETURNDATASIZE PUSH1 0x0 DUP3 RETURNDATACOPY PUSH1 0x1F RETURNDATASIZE SWAP1 DUP2 ADD PUSH1 0x1F NOT AND DUP3 ADD PUSH1 0x40 MSTORE PUSH2 0x1295 SWAP2 SWAP1 DUP2 ADD SWAP1 PUSH2 0x23B7 JUMP JUMPDEST SWAP1 POP PUSH1 0x0 DUP1 PUSH1 0x0 JUMPDEST DUP4 MLOAD DUP2 LT ISZERO PUSH2 0x12FE JUMPI PUSH1 0x0 DUP1 PUSH2 0x12CC DUP10 DUP8 DUP6 DUP2 MLOAD DUP2 LT PUSH2 0x12BF JUMPI PUSH2 0x12BF PUSH2 0x247C JUMP JUMPDEST PUSH1 0x20 MUL PUSH1 0x20 ADD ADD MLOAD PUSH2 0x1AB6 JUMP JUMPDEST SWAP1 SWAP3 POP SWAP1 POP PUSH2 0x12DB DUP3 DUP7 PUSH2 0x2293 JUMP JUMPDEST SWAP5 POP PUSH2 0x12E7 DUP2 DUP6 PUSH2 0x2293 JUMP JUMPDEST SWAP4 POP POP POP DUP1 DUP1 PUSH2 0x12F6 SWAP1 PUSH2 0x2492 JUMP JUMPDEST SWAP2 POP POP PUSH2 0x129D JUMP JUMPDEST POP SWAP6 SWAP1 SWAP5 POP SWAP3 POP POP POP JUMP JUMPDEST PUSH1 0x6 SLOAD PUSH1 0xFF AND ISZERO PUSH2 0x132C JUMPI PUSH1 0x40 MLOAD PUSH3 0x461BCD PUSH1 0xE5 SHL DUP2 MSTORE PUSH1 0x4 ADD PUSH2 0x5F9 SWAP1 PUSH2 0x2220 JUMP JUMPDEST PUSH1 0x0 PUSH2 0x1337 DUP3 PUSH2 0x120A JUMP JUMPDEST POP SWAP1 POP PUSH2 0xAC4 DUP3 DUP3 PUSH1 0x0 PUSH2 0x1C58 JUMP JUMPDEST PUSH1 0x6 SLOAD PUSH1 0x0 SWAP1 PUSH1 0xFF AND ISZERO PUSH2 0x136C JUMPI PUSH1 0x40 MLOAD PUSH3 0x461BCD PUSH1 0xE5 SHL DUP2 MSTORE PUSH1 0x4 ADD PUSH2 0x5F9 SWAP1 PUSH2 0x2220 JUMP JUMPDEST PUSH1 0x1 PUSH1 0x1 PUSH1 0xA0 SHL SUB DUP3 AND PUSH1 0x0 SWAP1 DUP2 MSTORE PUSH1 0x5 PUSH1 0x20 MSTORE PUSH1 0x40 DUP2 KECCAK256 SLOAD PUSH2 0x138F SWAP1 TIMESTAMP PUSH2 0x220D JUMP JUMPDEST SWAP1 POP DUP1 PUSH1 0x0 SUB PUSH2 0x13B6 JUMPI POP POP PUSH1 0x1 PUSH1 0x1 PUSH1 0xA0 SHL SUB AND PUSH1 0x0 SWAP1 DUP2 MSTORE PUSH1 0x4 PUSH1 0x20 MSTORE PUSH1 0x40 SWAP1 KECCAK256 SLOAD SWAP1 JUMP JUMPDEST PUSH2 0x13BF DUP4 PUSH2 0x1D40 JUMP JUMPDEST POP POP PUSH1 0x1 PUSH1 0x1 PUSH1 0xA0 SHL SUB DUP2 AND PUSH1 0x0 SWAP1 DUP2 MSTORE PUSH1 0x5 PUSH1 0x20 SWAP1 DUP2 MSTORE PUSH1 0x40 DUP1 DUP4 KECCAK256 TIMESTAMP SWAP1 SSTORE PUSH1 0x4 SWAP1 SWAP2 MSTORE SWAP1 KECCAK256 SLOAD JUMPDEST SWAP2 SWAP1 POP JUMP JUMPDEST PUSH1 0x6 SLOAD PUSH1 0x0 SWAP1 PUSH1 0xFF AND ISZERO PUSH2 0x1403 JUMPI POP PUSH1 0x0 SWAP2 SWAP1 POP JUMP JUMPDEST PUSH1 0x0 PUSH32 0x0 PUSH1 0x1 PUSH1 0x1 PUSH1 0xA0 SHL SUB AND PUSH4 0xDBCD89FA PUSH1 0x40 MLOAD DUP2 PUSH4 0xFFFFFFFF AND PUSH1 0xE0 SHL DUP2 MSTORE PUSH1 0x4 ADD PUSH1 0x20 PUSH1 0x40 MLOAD DUP1 DUP4 SUB DUP2 DUP7 GAS STATICCALL ISZERO DUP1 ISZERO PUSH2 0x1463 JUMPI RETURNDATASIZE PUSH1 0x0 DUP1 RETURNDATACOPY RETURNDATASIZE PUSH1 0x0 REVERT JUMPDEST POP POP POP POP PUSH1 0x40 MLOAD RETURNDATASIZE PUSH1 0x1F NOT PUSH1 0x1F DUP3 ADD AND DUP3 ADD DUP1 PUSH1 0x40 MSTORE POP DUP2 ADD SWAP1 PUSH2 0x1487 SWAP2 SWAP1 PUSH2 0x21DA JUMP JUMPDEST PUSH1 0x40 MLOAD PUSH4 0x1D43C9D3 PUSH1 0xE0 SHL DUP2 MSTORE PUSH1 0x1 PUSH1 0x1 PUSH1 0xA0 SHL SUB DUP6 DUP2 AND PUSH1 0x4 DUP4 ADD MSTORE SWAP2 SWAP1 SWAP2 AND SWAP1 PUSH4 0x1D43C9D3 SWAP1 PUSH1 0x24 ADD PUSH1 0x20 PUSH1 0x40 MLOAD DUP1 DUP4 SUB DUP2 DUP7 GAS STATICCALL ISZERO DUP1 ISZERO PUSH2 0x14CF JUMPI RETURNDATASIZE PUSH1 0x0 DUP1 RETURNDATACOPY RETURNDATASIZE PUSH1 0x0 REVERT JUMPDEST POP POP POP POP PUSH1 0x40 MLOAD RETURNDATASIZE PUSH1 0x1F NOT PUSH1 0x1F DUP3 ADD AND DUP3 ADD DUP1 PUSH1 0x40 MSTORE POP DUP2 ADD SWAP1 PUSH2 0x14F3 SWAP2 SWAP1 PUSH2 0x2257 JUMP JUMPDEST PUSH1 0x1 PUSH1 0x1 PUSH1 0xA0 SHL SUB DUP5 AND PUSH1 0x0 SWAP1 DUP2 MSTORE PUSH1 0x5 PUSH1 0x20 MSTORE PUSH1 0x40 DUP2 KECCAK256 SLOAD SWAP2 SWAP3 POP SWAP1 PUSH2 0x151A SWAP1 TIMESTAMP PUSH2 0x220D JUMP JUMPDEST SWAP1 POP PUSH2 0x1526 DUP2 DUP4 PUSH2 0x24AB JUMP JUMPDEST PUSH1 0x1 PUSH1 0x1 PUSH1 0xA0 SHL SUB DUP6 AND PUSH1 0x0 SWAP1 DUP2 MSTORE PUSH1 0x4 PUSH1 0x20 MSTORE PUSH1 0x40 SWAP1 KECCAK256 SLOAD PUSH2 0x1549 SWAP2 SWAP1 PUSH2 0x2293 JUMP JUMPDEST SWAP5 SWAP4 POP POP POP POP JUMP JUMPDEST CALLER PUSH1 0x1 PUSH1 0x1 PUSH1 0xA0 SHL SUB PUSH32 0x0 AND EQ PUSH2 0x15D5 JUMPI PUSH1 0x40 MLOAD PUSH3 0x461BCD PUSH1 0xE5 SHL DUP2 MSTORE PUSH1 0x20 PUSH1 0x4 DUP3 ADD MSTORE PUSH1 0x23 PUSH1 0x24 DUP3 ADD MSTORE PUSH32 0x4C70546F6B656E5374616B65723A206E6F7420656D657267656E6379206D696E PUSH1 0x44 DUP3 ADD MSTORE PUSH3 0x3A32B9 PUSH1 0xE9 SHL PUSH1 0x64 DUP3 ADD MSTORE PUSH1 0x84 ADD PUSH2 0x5F9 JUMP JUMPDEST PUSH1 0x0 PUSH32 0x0 PUSH1 0x1 PUSH1 0x1 PUSH1 0xA0 SHL SUB AND PUSH4 0x68795862 PUSH1 0x40 MLOAD DUP2 PUSH4 0xFFFFFFFF AND PUSH1 0xE0 SHL DUP2 MSTORE PUSH1 0x4 ADD PUSH1 0x0 PUSH1 0x40 MLOAD DUP1 DUP4 SUB DUP2 DUP7 GAS STATICCALL ISZERO DUP1 ISZERO PUSH2 0x1635 JUMPI RETURNDATASIZE PUSH1 0x0 DUP1 RETURNDATACOPY RETURNDATASIZE PUSH1 0x0 REVERT JUMPDEST POP POP POP POP PUSH1 0x40 MLOAD RETURNDATASIZE PUSH1 0x0 DUP3 RETURNDATACOPY PUSH1 0x1F RETURNDATASIZE SWAP1 DUP2 ADD PUSH1 0x1F NOT AND DUP3 ADD PUSH1 0x40 MSTORE PUSH2 0x165D SWAP2 SWAP1 DUP2 ADD SWAP1 PUSH2 0x23B7 JUMP JUMPDEST SWAP1 POP PUSH1 0x0 JUMPDEST DUP2 MLOAD DUP2 LT ISZERO PUSH2 0x169F JUMPI PUSH2 0x168D DUP3 DUP3 DUP2 MLOAD DUP2 LT PUSH2 0x1680 JUMPI PUSH2 0x1680 PUSH2 0x247C JUMP JUMPDEST PUSH1 0x20 MUL PUSH1 0x20 ADD ADD MLOAD PUSH2 0x1809 JUMP JUMPDEST DUP1 PUSH2 0x1697 DUP2 PUSH2 0x2492 JUMP JUMPDEST SWAP2 POP POP PUSH2 0x1662 JUMP JUMPDEST POP PUSH1 0x6 DUP1 SLOAD PUSH1 0xFF NOT AND PUSH1 0x1 OR SWAP1 SSTORE PUSH1 0x40 MLOAD PUSH32 0x4426AA1FB73E391071491FCFE21A88B5C38A0A0333A1F6E77161470439704CF8 SWAP1 PUSH1 0x0 SWAP1 LOG1 POP JUMP JUMPDEST PUSH1 0x0 PUSH2 0x16E4 DUP4 PUSH2 0x120A JUMP JUMPDEST POP SWAP1 POP PUSH2 0x819 DUP4 DUP3 DUP5 PUSH2 0x1C58 JUMP JUMPDEST PUSH1 0x40 MLOAD PUSH1 0x1 PUSH1 0x1 PUSH1 0xA0 SHL SUB DUP4 AND PUSH1 0x24 DUP3 ADD MSTORE PUSH1 0x44 DUP2 ADD DUP3 SWAP1 MSTORE PUSH2 0x819 SWAP1 DUP5 SWAP1 PUSH4 0xA9059CBB PUSH1 0xE0 SHL SWAP1 PUSH1 0x64 ADD JUMPDEST PUSH1 0x40 DUP1 MLOAD PUSH1 0x1F NOT DUP2 DUP5 SUB ADD DUP2 MSTORE SWAP2 SWAP1 MSTORE PUSH1 0x20 DUP2 ADD DUP1 MLOAD PUSH1 0x1 PUSH1 0x1 PUSH1 0xE0 SHL SUB AND PUSH1 0x1 PUSH1 0x1 PUSH1 0xE0 SHL SUB NOT SWAP1 SWAP4 AND SWAP3 SWAP1 SWAP3 OR SWAP1 SWAP2 MSTORE PUSH2 0x1E95 JUMP JUMPDEST PUSH1 0x0 DUP2 PUSH1 0xFF AND DUP4 PUSH1 0xFF AND SUB PUSH2 0x176B JUMPI POP DUP3 PUSH2 0x10FB JUMP JUMPDEST DUP2 PUSH1 0xFF AND DUP4 PUSH1 0xFF AND GT ISZERO PUSH2 0x178B JUMPI PUSH2 0x1784 DUP5 DUP5 DUP5 PUSH2 0x1F67 JUMP JUMPDEST SWAP1 POP PUSH2 0x10FB JUMP JUMPDEST PUSH2 0x1549 DUP5 DUP5 DUP5 PUSH2 0x1F88 JUMP JUMPDEST PUSH1 0x0 PUSH2 0x17A4 PUSH1 0x12 PUSH1 0xA PUSH2 0x238A JUMP JUMPDEST PUSH2 0x17AE DUP4 DUP6 PUSH2 0x24AB JUMP JUMPDEST PUSH2 0x10FB SWAP2 SWAP1 PUSH2 0x24C2 JUMP JUMPDEST PUSH1 0x40 MLOAD PUSH1 0x1 PUSH1 0x1 PUSH1 0xA0 SHL SUB DUP1 DUP6 AND PUSH1 0x24 DUP4 ADD MSTORE DUP4 AND PUSH1 0x44 DUP3 ADD MSTORE PUSH1 0x64 DUP2 ADD DUP3 SWAP1 MSTORE PUSH2 0x10A2 SWAP1 DUP6 SWAP1 PUSH4 0x23B872DD PUSH1 0xE0 SHL SWAP1 PUSH1 0x84 ADD PUSH2 0x171E JUMP JUMPDEST PUSH1 0x0 DUP2 PUSH2 0x17FF PUSH1 0x12 PUSH1 0xA PUSH2 0x238A JUMP JUMPDEST PUSH2 0x17AE SWAP1 DUP6 PUSH2 0x24AB JUMP JUMPDEST PUSH1 0x40 MLOAD PUSH4 0x5B16EBB7 PUSH1 0xE0 SHL DUP2 MSTORE PUSH1 0x1 PUSH1 0x1 PUSH1 0xA0 SHL SUB DUP3 DUP2 AND PUSH1 0x4 DUP4 ADD MSTORE PUSH32 0x0 AND SWAP1 PUSH4 0x5B16EBB7 SWAP1 PUSH1 0x24 ADD PUSH1 0x20 PUSH1 0x40 MLOAD DUP1 DUP4 SUB DUP2 DUP7 GAS STATICCALL ISZERO DUP1 ISZERO PUSH2 0x186F JUMPI RETURNDATASIZE PUSH1 0x0 DUP1 RETURNDATACOPY RETURNDATASIZE PUSH1 0x0 REVERT JUMPDEST POP POP POP POP PUSH1 0x40 MLOAD RETURNDATASIZE PUSH1 0x1F NOT PUSH1 0x1F DUP3 ADD AND DUP3 ADD DUP1 PUSH1 0x40 MSTORE POP DUP2 ADD SWAP1 PUSH2 0x1893 SWAP2 SWAP1 PUSH2 0x21B8 JUMP JUMPDEST PUSH2 0x18CC JUMPI PUSH1 0x40 MLOAD PUSH3 0x461BCD PUSH1 0xE5 SHL DUP2 MSTORE PUSH1 0x20 PUSH1 0x4 DUP3 ADD MSTORE PUSH1 0xA PUSH1 0x24 DUP3 ADD MSTORE PUSH10 0x1B9BDD0818481C1BDBDB PUSH1 0xB2 SHL PUSH1 0x44 DUP3 ADD MSTORE PUSH1 0x64 ADD PUSH2 0x5F9 JUMP JUMPDEST PUSH2 0x18D5 DUP2 PUSH2 0x1346 JUMP JUMPDEST POP PUSH1 0x1 PUSH1 0x1 PUSH1 0xA0 SHL SUB DUP2 AND PUSH1 0x0 SWAP1 DUP2 MSTORE PUSH1 0x4 PUSH1 0x20 MSTORE PUSH1 0x40 DUP2 KECCAK256 SLOAD SWAP1 DUP2 SWAP1 SUB PUSH2 0x18FB JUMPI POP POP JUMP JUMPDEST PUSH1 0x40 MLOAD PUSH4 0x40C10F19 PUSH1 0xE0 SHL DUP2 MSTORE PUSH1 0x1 PUSH1 0x1 PUSH1 0xA0 SHL SUB DUP4 DUP2 AND PUSH1 0x4 DUP4 ADD MSTORE PUSH1 0x24 DUP3 ADD DUP4 SWAP1 MSTORE PUSH32 0x0 AND SWAP1 PUSH4 0x40C10F19 SWAP1 PUSH1 0x44 ADD PUSH1 0x20 PUSH1 0x40 MLOAD DUP1 DUP4 SUB DUP2 PUSH1 0x0 DUP8 GAS CALL ISZERO DUP1 ISZERO PUSH2 0x196A JUMPI RETURNDATASIZE PUSH1 0x0 DUP1 RETURNDATACOPY RETURNDATASIZE PUSH1 0x0 REVERT JUMPDEST POP POP POP POP PUSH1 0x40 MLOAD RETURNDATASIZE PUSH1 0x1F NOT PUSH1 0x1F DUP3 ADD AND DUP3 ADD DUP1 PUSH1 0x40 MSTORE POP DUP2 ADD SWAP1 PUSH2 0x198E SWAP2 SWAP1 PUSH2 0x2257 JUMP JUMPDEST POP PUSH32 0x0 PUSH1 0x1 PUSH1 0x1 PUSH1 0xA0 SHL SUB AND PUSH4 0xDBCD89FA PUSH1 0x40 MLOAD DUP2 PUSH4 0xFFFFFFFF AND PUSH1 0xE0 SHL DUP2 MSTORE PUSH1 0x4 ADD PUSH1 0x20 PUSH1 0x40 MLOAD DUP1 DUP4 SUB DUP2 DUP7 GAS STATICCALL ISZERO DUP1 ISZERO PUSH2 0x19ED JUMPI RETURNDATASIZE PUSH1 0x0 DUP1 RETURNDATACOPY RETURNDATASIZE PUSH1 0x0 REVERT JUMPDEST POP POP POP POP PUSH1 0x40 MLOAD RETURNDATASIZE PUSH1 0x1F NOT PUSH1 0x1F DUP3 ADD AND DUP3 ADD DUP1 PUSH1 0x40 MSTORE POP DUP2 ADD SWAP1 PUSH2 0x1A11 SWAP2 SWAP1 PUSH2 0x21DA JUMP JUMPDEST PUSH1 0x1 PUSH1 0x1 PUSH1 0xA0 SHL SUB AND PUSH4 0x4A17ED59 PUSH1 0x40 MLOAD DUP2 PUSH4 0xFFFFFFFF AND PUSH1 0xE0 SHL DUP2 MSTORE PUSH1 0x4 ADD PUSH1 0x0 PUSH1 0x40 MLOAD DUP1 DUP4 SUB DUP2 PUSH1 0x0 DUP8 DUP1 EXTCODESIZE ISZERO DUP1 ISZERO PUSH2 0x1A4B JUMPI PUSH1 0x0 DUP1 REVERT JUMPDEST POP GAS CALL ISZERO DUP1 ISZERO PUSH2 0x1A5F JUMPI RETURNDATASIZE PUSH1 0x0 DUP1 RETURNDATACOPY RETURNDATASIZE PUSH1 0x0 REVERT JUMPDEST POP POP POP POP PUSH1 0x1 PUSH1 0x1 PUSH1 0xA0 SHL SUB DUP3 AND PUSH1 0x0 DUP2 DUP2 MSTORE PUSH1 0x4 PUSH1 0x20 SWAP1 DUP2 MSTORE PUSH1 0x40 DUP1 DUP4 KECCAK256 SWAP3 SWAP1 SWAP3 SSTORE SWAP1 MLOAD DUP4 DUP2 MSTORE PUSH32 0x896E034966EAAF1ADC54ACC0F257056FEBBD300C9E47182CF761982CF1F5E430 SWAP2 ADD PUSH1 0x40 MLOAD DUP1 SWAP2 SUB SWAP1 LOG2 POP POP JUMP JUMPDEST PUSH1 0x0 DUP1 PUSH1 0x0 DUP4 PUSH1 0x1 PUSH1 0x1 PUSH1 0xA0 SHL SUB AND PUSH4 0xCE75040E PUSH1 0x40 MLOAD DUP2 PUSH4 0xFFFFFFFF AND PUSH1 0xE0 SHL DUP2 MSTORE PUSH1 0x4 ADD PUSH1 0x20 PUSH1 0x40 MLOAD DUP1 DUP4 SUB DUP2 DUP7 GAS STATICCALL ISZERO DUP1 ISZERO PUSH2 0x1AF9 JUMPI RETURNDATASIZE PUSH1 0x0 DUP1 RETURNDATACOPY RETURNDATASIZE PUSH1 0x0 REVERT JUMPDEST POP POP POP POP PUSH1 0x40 MLOAD RETURNDATASIZE PUSH1 0x1F NOT PUSH1 0x1F DUP3 ADD AND DUP3 ADD DUP1 PUSH1 0x40 MSTORE POP DUP2 ADD SWAP1 PUSH2 0x1B1D SWAP2 SWAP1 PUSH2 0x2257 JUMP JUMPDEST SWAP1 POP PUSH1 0x0 DUP5 PUSH1 0x1 PUSH1 0x1 PUSH1 0xA0 SHL SUB AND PUSH4 0x5FCBD285 PUSH1 0x40 MLOAD DUP2 PUSH4 0xFFFFFFFF AND PUSH1 0xE0 SHL DUP2 MSTORE PUSH1 0x4 ADD PUSH1 0x20 PUSH1 0x40 MLOAD DUP1 DUP4 SUB DUP2 DUP7 GAS STATICCALL ISZERO DUP1 ISZERO PUSH2 0x1B5F JUMPI RETURNDATASIZE PUSH1 0x0 DUP1 RETURNDATACOPY RETURNDATASIZE PUSH1 0x0 REVERT JUMPDEST POP POP POP POP PUSH1 0x40 MLOAD RETURNDATASIZE PUSH1 0x1F NOT PUSH1 0x1F DUP3 ADD AND DUP3 ADD DUP1 PUSH1 0x40 MSTORE POP DUP2 ADD SWAP1 PUSH2 0x1B83 SWAP2 SWAP1 PUSH2 0x21DA JUMP JUMPDEST PUSH1 0x1 PUSH1 0x1 PUSH1 0xA0 SHL SUB AND PUSH4 0x313CE567 PUSH1 0x40 MLOAD DUP2 PUSH4 0xFFFFFFFF AND PUSH1 0xE0 SHL DUP2 MSTORE PUSH1 0x4 ADD PUSH1 0x20 PUSH1 0x40 MLOAD DUP1 DUP4 SUB DUP2 DUP7 GAS STATICCALL ISZERO DUP1 ISZERO PUSH2 0x1BC0 JUMPI RETURNDATASIZE PUSH1 0x0 DUP1 RETURNDATACOPY RETURNDATASIZE PUSH1 0x0 REVERT JUMPDEST POP POP POP POP PUSH1 0x40 MLOAD RETURNDATASIZE PUSH1 0x1F NOT PUSH1 0x1F DUP3 ADD AND DUP3 ADD DUP1 PUSH1 0x40 MSTORE POP DUP2 ADD SWAP1 PUSH2 0x1BE4 SWAP2 SWAP1 PUSH2 0x2270 JUMP JUMPDEST PUSH1 0x1 PUSH1 0x1 PUSH1 0xA0 SHL SUB DUP7 AND PUSH1 0x0 SWAP1 DUP2 MSTORE PUSH1 0x2 PUSH1 0x20 MSTORE PUSH1 0x40 SWAP1 KECCAK256 SLOAD SWAP1 SWAP2 POP PUSH2 0x1C12 SWAP1 DUP4 SWAP1 PUSH2 0xDB5 SWAP1 DUP5 PUSH1 0x12 PUSH2 0x1755 JUMP JUMPDEST PUSH1 0x1 PUSH1 0x1 PUSH1 0xA0 SHL SUB DUP1 DUP9 AND PUSH1 0x0 SWAP1 DUP2 MSTORE PUSH1 0x1 PUSH1 0x20 SWAP1 DUP2 MSTORE PUSH1 0x40 DUP1 DUP4 KECCAK256 SWAP4 DUP11 AND DUP4 MSTORE SWAP3 SWAP1 MSTORE KECCAK256 SLOAD SWAP1 SWAP5 POP PUSH2 0x1C4D SWAP1 DUP4 SWAP1 PUSH2 0xDB5 SWAP1 DUP5 PUSH1 0x12 PUSH2 0x1755 JUMP JUMPDEST SWAP3 POP POP POP SWAP3 POP SWAP3 SWAP1 POP JUMP JUMPDEST PUSH1 0x1 PUSH1 0x1 PUSH1 0xA0 SHL SUB DUP4 AND PUSH1 0x0 SWAP1 DUP2 MSTORE PUSH1 0x3 PUSH1 0x20 MSTORE PUSH1 0x40 DUP2 KECCAK256 SWAP1 DUP4 SWAP1 SUB PUSH2 0x1C8F JUMPI PUSH8 0x16345785D8A0000 DUP2 SSTORE TIMESTAMP PUSH1 0x1 SWAP1 SWAP2 ADD SSTORE POP POP POP JUMP JUMPDEST DUP1 SLOAD PUSH2 0x1CA9 PUSH8 0x16345785D8A0000 PUSH2 0xEFA PUSH1 0x12 PUSH1 0xA PUSH2 0x238A JUMP JUMPDEST PUSH2 0x1CB3 SWAP1 DUP3 PUSH2 0x2293 JUMP JUMPDEST SWAP1 POP PUSH2 0x1CC1 PUSH1 0x12 PUSH1 0xA PUSH2 0x238A JUMP JUMPDEST DUP2 GT ISZERO PUSH2 0x1CD7 JUMPI PUSH2 0x1CD4 PUSH1 0x12 PUSH1 0xA PUSH2 0x238A JUMP JUMPDEST SWAP1 POP JUMPDEST DUP3 PUSH1 0x0 SUB PUSH2 0x1CE7 JUMPI DUP1 DUP3 SSTORE PUSH2 0x1D33 JUMP JUMPDEST PUSH1 0x0 PUSH2 0x1CF3 DUP5 DUP7 PUSH2 0x2293 JUMP JUMPDEST SWAP1 POP PUSH2 0x1D11 PUSH2 0x1D02 DUP6 DUP4 PUSH2 0x17F0 JUMP JUMPDEST PUSH8 0x16345785D8A0000 SWAP1 PUSH2 0x1796 JUMP JUMPDEST PUSH2 0x1D25 PUSH2 0x1D1E DUP8 DUP5 PUSH2 0x17F0 JUMP JUMPDEST DUP5 SWAP1 PUSH2 0x1796 JUMP JUMPDEST PUSH2 0x1D2F SWAP2 SWAP1 PUSH2 0x2293 JUMP JUMPDEST DUP4 SSTORE POP JUMPDEST POP TIMESTAMP PUSH1 0x1 SWAP1 SWAP2 ADD SSTORE POP POP POP JUMP JUMPDEST PUSH1 0x0 PUSH32 0x0 PUSH1 0x1 PUSH1 0x1 PUSH1 0xA0 SHL SUB AND PUSH4 0xDBCD89FA PUSH1 0x40 MLOAD DUP2 PUSH4 0xFFFFFFFF AND PUSH1 0xE0 SHL DUP2 MSTORE PUSH1 0x4 ADD PUSH1 0x20 PUSH1 0x40 MLOAD DUP1 DUP4 SUB DUP2 DUP7 GAS STATICCALL ISZERO DUP1 ISZERO PUSH2 0x1DA0 JUMPI RETURNDATASIZE PUSH1 0x0 DUP1 RETURNDATACOPY RETURNDATASIZE PUSH1 0x0 REVERT JUMPDEST POP POP POP POP PUSH1 0x40 MLOAD RETURNDATASIZE PUSH1 0x1F NOT PUSH1 0x1F DUP3 ADD AND DUP3 ADD DUP1 PUSH1 0x40 MSTORE POP DUP2 ADD SWAP1 PUSH2 0x1DC4 SWAP2 SWAP1 PUSH2 0x21DA JUMP JUMPDEST PUSH1 0x40 MLOAD PUSH4 0x1D43C9D3 PUSH1 0xE0 SHL DUP2 MSTORE PUSH1 0x1 PUSH1 0x1 PUSH1 0xA0 SHL SUB DUP5 DUP2 AND PUSH1 0x4 DUP4 ADD MSTORE SWAP2 SWAP1 SWAP2 AND SWAP1 PUSH4 0x1D43C9D3 SWAP1 PUSH1 0x24 ADD PUSH1 0x20 PUSH1 0x40 MLOAD DUP1 DUP4 SUB DUP2 DUP7 GAS STATICCALL ISZERO DUP1 ISZERO PUSH2 0x1E0C JUMPI RETURNDATASIZE PUSH1 0x0 DUP1 RETURNDATACOPY RETURNDATASIZE PUSH1 0x0 REVERT JUMPDEST POP POP POP POP PUSH1 0x40 MLOAD RETURNDATASIZE PUSH1 0x1F NOT PUSH1 0x1F DUP3 ADD AND DUP3 ADD DUP1 PUSH1 0x40 MSTORE POP DUP2 ADD SWAP1 PUSH2 0x1E30 SWAP2 SWAP1 PUSH2 0x2257 JUMP JUMPDEST PUSH1 0x1 PUSH1 0x1 PUSH1 0xA0 SHL SUB DUP4 AND PUSH1 0x0 SWAP1 DUP2 MSTORE PUSH1 0x5 PUSH1 0x20 MSTORE PUSH1 0x40 DUP2 KECCAK256 SLOAD SWAP2 SWAP3 POP SWAP1 PUSH2 0x1E57 SWAP1 TIMESTAMP PUSH2 0x220D JUMP JUMPDEST SWAP1 POP PUSH2 0x1E63 DUP2 DUP4 PUSH2 0x24AB JUMP JUMPDEST PUSH1 0x1 PUSH1 0x1 PUSH1 0xA0 SHL SUB DUP5 AND PUSH1 0x0 SWAP1 DUP2 MSTORE PUSH1 0x4 PUSH1 0x20 MSTORE PUSH1 0x40 DUP2 KECCAK256 DUP1 SLOAD SWAP1 SWAP2 SWAP1 PUSH2 0x1E8B SWAP1 DUP5 SWAP1 PUSH2 0x2293 JUMP JUMPDEST SWAP1 SWAP2 SSTORE POP POP POP POP POP JUMP JUMPDEST PUSH1 0x0 PUSH2 0x1EEA DUP3 PUSH1 0x40 MLOAD DUP1 PUSH1 0x40 ADD PUSH1 0x40 MSTORE DUP1 PUSH1 0x20 DUP2 MSTORE PUSH1 0x20 ADD PUSH32 0x5361666545524332303A206C6F772D6C6576656C2063616C6C206661696C6564 DUP2 MSTORE POP DUP6 PUSH1 0x1 PUSH1 0x1 PUSH1 0xA0 SHL SUB AND PUSH2 0x1FA9 SWAP1 SWAP3 SWAP2 SWAP1 PUSH4 0xFFFFFFFF AND JUMP JUMPDEST DUP1 MLOAD SWAP1 SWAP2 POP ISZERO PUSH2 0x819 JUMPI DUP1 DUP1 PUSH1 0x20 ADD SWAP1 MLOAD DUP2 ADD SWAP1 PUSH2 0x1F08 SWAP2 SWAP1 PUSH2 0x21B8 JUMP JUMPDEST PUSH2 0x819 JUMPI PUSH1 0x40 MLOAD PUSH3 0x461BCD PUSH1 0xE5 SHL DUP2 MSTORE PUSH1 0x20 PUSH1 0x4 DUP3 ADD MSTORE PUSH1 0x2A PUSH1 0x24 DUP3 ADD MSTORE PUSH32 0x5361666545524332303A204552433230206F7065726174696F6E20646964206E PUSH1 0x44 DUP3 ADD MSTORE PUSH10 0x1BDD081CDD58D8D95959 PUSH1 0xB2 SHL PUSH1 0x64 DUP3 ADD MSTORE PUSH1 0x84 ADD PUSH2 0x5F9 JUMP JUMPDEST PUSH1 0x0 PUSH2 0x1F73 DUP3 DUP5 PUSH2 0x24E4 JUMP JUMPDEST PUSH2 0x1F7E SWAP1 PUSH1 0xA PUSH2 0x24FD JUMP JUMPDEST PUSH2 0x1549 SWAP1 DUP6 PUSH2 0x24C2 JUMP JUMPDEST PUSH1 0x0 PUSH2 0x1F94 DUP4 DUP4 PUSH2 0x24E4 JUMP JUMPDEST PUSH2 0x1F9F SWAP1 PUSH1 0xA PUSH2 0x24FD JUMP JUMPDEST PUSH2 0x1549 SWAP1 DUP6 PUSH2 0x24AB JUMP JUMPDEST PUSH1 0x60 PUSH2 0x1549 DUP5 DUP5 PUSH1 0x0 DUP6 DUP6 PUSH1 0x0 DUP1 DUP7 PUSH1 0x1 PUSH1 0x1 PUSH1 0xA0 SHL SUB AND DUP6 DUP8 PUSH1 0x40 MLOAD PUSH2 0x1FD0 SWAP2 SWAP1 PUSH2 0x2530 JUMP JUMPDEST PUSH1 0x0 PUSH1 0x40 MLOAD DUP1 DUP4 SUB DUP2 DUP6 DUP8 GAS CALL SWAP3 POP POP POP RETURNDATASIZE DUP1 PUSH1 0x0 DUP2 EQ PUSH2 0x200D JUMPI PUSH1 0x40 MLOAD SWAP2 POP PUSH1 0x1F NOT PUSH1 0x3F RETURNDATASIZE ADD AND DUP3 ADD PUSH1 0x40 MSTORE RETURNDATASIZE DUP3 MSTORE RETURNDATASIZE PUSH1 0x0 PUSH1 0x20 DUP5 ADD RETURNDATACOPY PUSH2 0x2012 JUMP JUMPDEST PUSH1 0x60 SWAP2 POP JUMPDEST POP SWAP2 POP SWAP2 POP PUSH2 0xF97 DUP8 DUP4 DUP4 DUP8 PUSH1 0x60 DUP4 ISZERO PUSH2 0x208D JUMPI DUP3 MLOAD PUSH1 0x0 SUB PUSH2 0x2086 JUMPI PUSH1 0x1 PUSH1 0x1 PUSH1 0xA0 SHL SUB DUP6 AND EXTCODESIZE PUSH2 0x2086 JUMPI PUSH1 0x40 MLOAD PUSH3 0x461BCD PUSH1 0xE5 SHL DUP2 MSTORE PUSH1 0x20 PUSH1 0x4 DUP3 ADD MSTORE PUSH1 0x1D PUSH1 0x24 DUP3 ADD MSTORE PUSH32 0x416464726573733A2063616C6C20746F206E6F6E2D636F6E7472616374000000 PUSH1 0x44 DUP3 ADD MSTORE PUSH1 0x64 ADD PUSH2 0x5F9 JUMP JUMPDEST POP DUP2 PUSH2 0x1549 JUMP JUMPDEST PUSH2 0x1549 DUP4 DUP4 DUP2 MLOAD ISZERO PUSH2 0x20A2 JUMPI DUP2 MLOAD DUP1 DUP4 PUSH1 0x20 ADD REVERT JUMPDEST DUP1 PUSH1 0x40 MLOAD PUSH3 0x461BCD PUSH1 0xE5 SHL DUP2 MSTORE PUSH1 0x4 ADD PUSH2 0x5F9 SWAP2 SWAP1 PUSH2 0x254C JUMP JUMPDEST PUSH1 0x0 PUSH1 0x20 DUP3 DUP5 SUB SLT ISZERO PUSH2 0x20CE JUMPI PUSH1 0x0 DUP1 REVERT JUMPDEST DUP2 CALLDATALOAD PUSH1 0x1 PUSH1 0x1 PUSH1 0xE0 SHL SUB NOT DUP2 AND DUP2 EQ PUSH2 0x10FB JUMPI PUSH1 0x0 DUP1 REVERT JUMPDEST PUSH1 0x1 PUSH1 0x1 PUSH1 0xA0 SHL SUB DUP2 AND DUP2 EQ PUSH2 0x1207 JUMPI PUSH1 0x0 DUP1 REVERT JUMPDEST PUSH1 0x0 DUP1 PUSH1 0x0 PUSH1 0x60 DUP5 DUP7 SUB SLT ISZERO PUSH2 0x2110 JUMPI PUSH1 0x0 DUP1 REVERT JUMPDEST DUP4 CALLDATALOAD SWAP3 POP PUSH1 0x20 DUP5 ADD CALLDATALOAD PUSH2 0x2122 DUP2 PUSH2 0x20E6 JUMP JUMPDEST SWAP2 POP PUSH1 0x40 DUP5 ADD CALLDATALOAD PUSH2 0x2132 DUP2 PUSH2 0x20E6 JUMP JUMPDEST DUP1 SWAP2 POP POP SWAP3 POP SWAP3 POP SWAP3 JUMP JUMPDEST PUSH1 0x0 DUP1 PUSH1 0x40 DUP4 DUP6 SUB SLT ISZERO PUSH2 0x2150 JUMPI PUSH1 0x0 DUP1 REVERT JUMPDEST DUP3 CALLDATALOAD SWAP2 POP PUSH1 0x20 DUP4 ADD CALLDATALOAD PUSH2 0x2162 DUP2 PUSH2 0x20E6 JUMP JUMPDEST DUP1 SWAP2 POP POP SWAP3 POP SWAP3 SWAP1 POP JUMP JUMPDEST PUSH1 0x0 PUSH1 0x20 DUP3 DUP5 SUB SLT ISZERO PUSH2 0x217F JUMPI PUSH1 0x0 DUP1 REVERT JUMPDEST DUP2 CALLDATALOAD PUSH2 0x10FB DUP2 PUSH2 0x20E6 JUMP JUMPDEST PUSH1 0x0 DUP1 PUSH1 0x40 DUP4 DUP6 SUB SLT ISZERO PUSH2 0x219D JUMPI PUSH1 0x0 DUP1 REVERT JUMPDEST DUP3 CALLDATALOAD PUSH2 0x21A8 DUP2 PUSH2 0x20E6 JUMP JUMPDEST SWAP2 POP PUSH1 0x20 DUP4 ADD CALLDATALOAD PUSH2 0x2162 DUP2 PUSH2 0x20E6 JUMP JUMPDEST PUSH1 0x0 PUSH1 0x20 DUP3 DUP5 SUB SLT ISZERO PUSH2 0x21CA JUMPI PUSH1 0x0 DUP1 REVERT JUMPDEST DUP2 MLOAD DUP1 ISZERO ISZERO DUP2 EQ PUSH2 0x10FB JUMPI PUSH1 0x0 DUP1 REVERT JUMPDEST PUSH1 0x0 PUSH1 0x20 DUP3 DUP5 SUB SLT ISZERO PUSH2 0x21EC JUMPI PUSH1 0x0 DUP1 REVERT JUMPDEST DUP2 MLOAD PUSH2 0x10FB DUP2 PUSH2 0x20E6 JUMP JUMPDEST PUSH4 0x4E487B71 PUSH1 0xE0 SHL PUSH1 0x0 MSTORE PUSH1 0x11 PUSH1 0x4 MSTORE PUSH1 0x24 PUSH1 0x0 REVERT JUMPDEST DUP2 DUP2 SUB DUP2 DUP2 GT ISZERO PUSH2 0x52E JUMPI PUSH2 0x52E PUSH2 0x21F7 JUMP JUMPDEST PUSH1 0x20 DUP1 DUP3 MSTORE PUSH1 0x17 SWAP1 DUP3 ADD MSTORE PUSH32 0x4C70546F6B656E5374616B65723A2073687574646F776E000000000000000000 PUSH1 0x40 DUP3 ADD MSTORE PUSH1 0x60 ADD SWAP1 JUMP JUMPDEST PUSH1 0x0 PUSH1 0x20 DUP3 DUP5 SUB SLT ISZERO PUSH2 0x2269 JUMPI PUSH1 0x0 DUP1 REVERT JUMPDEST POP MLOAD SWAP2 SWAP1 POP JUMP JUMPDEST PUSH1 0x0 PUSH1 0x20 DUP3 DUP5 SUB SLT ISZERO PUSH2 0x2282 JUMPI PUSH1 0x0 DUP1 REVERT JUMPDEST DUP2 MLOAD PUSH1 0xFF DUP2 AND DUP2 EQ PUSH2 0x10FB JUMPI PUSH1 0x0 DUP1 REVERT JUMPDEST DUP1 DUP3 ADD DUP1 DUP3 GT ISZERO PUSH2 0x52E JUMPI PUSH2 0x52E PUSH2 0x21F7 JUMP JUMPDEST PUSH1 0x1 DUP2 DUP2 JUMPDEST DUP1 DUP6 GT ISZERO PUSH2 0x22E1 JUMPI DUP2 PUSH1 0x0 NOT DIV DUP3 GT ISZERO PUSH2 0x22C7 JUMPI PUSH2 0x22C7 PUSH2 0x21F7 JUMP JUMPDEST DUP1 DUP6 AND ISZERO PUSH2 0x22D4 JUMPI SWAP2 DUP2 MUL SWAP2 JUMPDEST SWAP4 DUP5 SHR SWAP4 SWAP1 DUP1 MUL SWAP1 PUSH2 0x22AB JUMP JUMPDEST POP SWAP3 POP SWAP3 SWAP1 POP JUMP JUMPDEST PUSH1 0x0 DUP3 PUSH2 0x22F8 JUMPI POP PUSH1 0x1 PUSH2 0x52E JUMP JUMPDEST DUP2 PUSH2 0x2305 JUMPI POP PUSH1 0x0 PUSH2 0x52E JUMP JUMPDEST DUP2 PUSH1 0x1 DUP2 EQ PUSH2 0x231B JUMPI PUSH1 0x2 DUP2 EQ PUSH2 0x2325 JUMPI PUSH2 0x2341 JUMP JUMPDEST PUSH1 0x1 SWAP2 POP POP PUSH2 0x52E JUMP JUMPDEST PUSH1 0xFF DUP5 GT ISZERO PUSH2 0x2336 JUMPI PUSH2 0x2336 PUSH2 0x21F7 JUMP JUMPDEST POP POP PUSH1 0x1 DUP3 SHL PUSH2 0x52E JUMP JUMPDEST POP PUSH1 0x20 DUP4 LT PUSH2 0x133 DUP4 LT AND PUSH1 0x4E DUP5 LT PUSH1 0xB DUP5 LT AND OR ISZERO PUSH2 0x2364 JUMPI POP DUP2 DUP2 EXP PUSH2 0x52E JUMP JUMPDEST PUSH2 0x236E DUP4 DUP4 PUSH2 0x22A6 JUMP JUMPDEST DUP1 PUSH1 0x0 NOT DIV DUP3 GT ISZERO PUSH2 0x2382 JUMPI PUSH2 0x2382 PUSH2 0x21F7 JUMP JUMPDEST MUL SWAP4 SWAP3 POP POP POP JUMP JUMPDEST PUSH1 0x0 PUSH2 0x10FB DUP4 DUP4 PUSH2 0x22E9 JUMP JUMPDEST PUSH4 0x4E487B71 PUSH1 0xE0 SHL PUSH1 0x0 MSTORE PUSH1 0x41 PUSH1 0x4 MSTORE PUSH1 0x24 PUSH1 0x0 REVERT JUMPDEST DUP1 MLOAD PUSH2 0x13E8 DUP2 PUSH2 0x20E6 JUMP JUMPDEST PUSH1 0x0 PUSH1 0x20 DUP1 DUP4 DUP6 SUB SLT ISZERO PUSH2 0x23CA JUMPI PUSH1 0x0 DUP1 REVERT JUMPDEST DUP3 MLOAD PUSH8 0xFFFFFFFFFFFFFFFF DUP1 DUP3 GT ISZERO PUSH2 0x23E2 JUMPI PUSH1 0x0 DUP1 REVERT JUMPDEST DUP2 DUP6 ADD SWAP2 POP DUP6 PUSH1 0x1F DUP4 ADD SLT PUSH2 0x23F6 JUMPI PUSH1 0x0 DUP1 REVERT JUMPDEST DUP2 MLOAD DUP2 DUP2 GT ISZERO PUSH2 0x2408 JUMPI PUSH2 0x2408 PUSH2 0x2396 JUMP JUMPDEST DUP1 PUSH1 0x5 SHL PUSH1 0x40 MLOAD PUSH1 0x1F NOT PUSH1 0x3F DUP4 ADD AND DUP2 ADD DUP2 DUP2 LT DUP6 DUP3 GT OR ISZERO PUSH2 0x242D JUMPI PUSH2 0x242D PUSH2 0x2396 JUMP JUMPDEST PUSH1 0x40 MSTORE SWAP2 DUP3 MSTORE DUP5 DUP3 ADD SWAP3 POP DUP4 DUP2 ADD DUP6 ADD SWAP2 DUP9 DUP4 GT ISZERO PUSH2 0x244B JUMPI PUSH1 0x0 DUP1 REVERT JUMPDEST SWAP4 DUP6 ADD SWAP4 JUMPDEST DUP3 DUP6 LT ISZERO PUSH2 0x2470 JUMPI PUSH2 0x2461 DUP6 PUSH2 0x23AC JUMP JUMPDEST DUP5 MSTORE SWAP4 DUP6 ADD SWAP4 SWAP3 DUP6 ADD SWAP3 PUSH2 0x2450 JUMP JUMPDEST SWAP9 SWAP8 POP POP POP POP POP POP POP POP JUMP JUMPDEST PUSH4 0x4E487B71 PUSH1 0xE0 SHL PUSH1 0x0 MSTORE PUSH1 0x32 PUSH1 0x4 MSTORE PUSH1 0x24 PUSH1 0x0 REVERT JUMPDEST PUSH1 0x0 PUSH1 0x1 DUP3 ADD PUSH2 0x24A4 JUMPI PUSH2 0x24A4 PUSH2 0x21F7 JUMP JUMPDEST POP PUSH1 0x1 ADD SWAP1 JUMP JUMPDEST DUP1 DUP3 MUL DUP2 ISZERO DUP3 DUP3 DIV DUP5 EQ OR PUSH2 0x52E JUMPI PUSH2 0x52E PUSH2 0x21F7 JUMP JUMPDEST PUSH1 0x0 DUP3 PUSH2 0x24DF JUMPI PUSH4 0x4E487B71 PUSH1 0xE0 SHL PUSH1 0x0 MSTORE PUSH1 0x12 PUSH1 0x4 MSTORE PUSH1 0x24 PUSH1 0x0 REVERT JUMPDEST POP DIV SWAP1 JUMP JUMPDEST PUSH1 0xFF DUP3 DUP2 AND DUP3 DUP3 AND SUB SWAP1 DUP2 GT ISZERO PUSH2 0x52E JUMPI PUSH2 0x52E PUSH2 0x21F7 JUMP JUMPDEST PUSH1 0x0 PUSH2 0x10FB PUSH1 0xFF DUP5 AND DUP4 PUSH2 0x22E9 JUMP JUMPDEST PUSH1 0x0 JUMPDEST DUP4 DUP2 LT ISZERO PUSH2 0x2527 JUMPI DUP2 DUP2 ADD MLOAD DUP4 DUP3 ADD MSTORE PUSH1 0x20 ADD PUSH2 0x250F JUMP JUMPDEST POP POP PUSH1 0x0 SWAP2 ADD MSTORE JUMP JUMPDEST PUSH1 0x0 DUP3 MLOAD PUSH2 0x2542 DUP2 DUP5 PUSH1 0x20 DUP8 ADD PUSH2 0x250C JUMP JUMPDEST SWAP2 SWAP1 SWAP2 ADD SWAP3 SWAP2 POP POP JUMP JUMPDEST PUSH1 0x20 DUP2 MSTORE PUSH1 0x0 DUP3 MLOAD DUP1 PUSH1 0x20 DUP5 ADD MSTORE PUSH2 0x256B DUP2 PUSH1 0x40 DUP6 ADD PUSH1 0x20 DUP8 ADD PUSH2 0x250C JUMP JUMPDEST PUSH1 0x1F ADD PUSH1 0x1F NOT AND SWAP2 SWAP1 SWAP2 ADD PUSH1 0x40 ADD SWAP3 SWAP2 POP POP JUMP INVALID LOG2 PUSH5 0x6970667358 0x22 SLT KECCAK256 0xDE PUSH29 0x22B154233FD2EC7FD380B13B2CEDEDC91C5BF16AB3A48984CFE4743DFC 0xCE PUSH5 0x736F6C6343 STOP ADDMOD GT STOP CALLER ","sha1":"027742cd91335d14caaeb634b096976539f0093d","source":"// SPDX-License-Identifier: GPL-3.0-or-later\npragma solidity 0.8.17;\n\nimport \"@openzeppelin/contracts/token/ERC20/utils/SafeERC20.sol\";\n\nimport \"./BaseMinter.sol\";\nimport \"../../interfaces/tokenomics/ILpTokenStaker.sol\";\nimport \"../../interfaces/tokenomics/IInflationManager.sol\";\nimport \"../../interfaces/IController.sol\";\nimport \"../../interfaces/pools/IConicPool.sol\";\nimport \"../../interfaces/pools/ILpToken.sol\";\nimport \"../../interfaces/tokenomics/ICNCToken.sol\";\nimport \"../../libraries/ScaledMath.sol\";\n\n/// @dev USD amounts in this contract are always scaled by 1e18\ncontract LpTokenStaker is ILpTokenStaker, BaseMinter {\n    using SafeERC20 for IERC20;\n    using SafeERC20 for ILpToken;\n    using ScaledMath for uint256;\n    struct Boost {\n        uint256 timeBoost;\n        uint256 lastUpdated;\n    }\n\n    uint256 public constant MAX_BOOST = 10e18;\n    uint256 public constant MIN_BOOST = 1e18;\n    uint256 public constant TIME_STARTING_FACTOR = 1e17;\n    uint256 public constant INCREASE_PERIOD = 30 days;\n    uint256 public constant TVL_FACTOR = 50e18;\n\n    mapping(address => mapping(address => uint256)) internal stakedPerUser;\n    mapping(address => uint256) internal _stakedPerPool;\n    mapping(address => Boost) public boosts;\n\n    mapping(address => uint256) public poolShares;\n    mapping(address => uint256) public poolLastUpdated;\n\n    IController public immutable controller;\n\n    bool public isShutdown;\n\n    modifier notShutdown() {\n        require(!isShutdown, \"LpTokenStaker: shutdown\");\n        _;\n    }\n\n    constructor(\n        address controller_,\n        ICNCToken _cnc,\n        address _emergencyMinter\n    ) BaseMinter(_cnc, _emergencyMinter) {\n        controller = IController(controller_);\n        _initializeLastUpdated();\n    }\n\n    function stake(uint256 amount, address conicPool) external override {\n        stakeFor(amount, conicPool, msg.sender);\n    }\n\n    function unstake(uint256 amount, address conicPool) external override {\n        unstakeFor(amount, conicPool, msg.sender);\n    }\n\n    function stakeFor(\n        uint256 amount,\n        address conicPool,\n        address account\n    ) public override notShutdown {\n        require(controller.isPool(conicPool), \"not a conic pool\");\n        ILpToken lpToken = IConicPool(conicPool).lpToken();\n        uint256 exchangeRate = IConicPool(conicPool).usdExchangeRate();\n        // Checkpoint all inflation logic\n        IConicPool(conicPool).rewardManager().accountCheckpoint(account);\n        _stakerCheckpoint(\n            account,\n            amount.convertScale(lpToken.decimals(), 18).mulDown(exchangeRate)\n        );\n        // Actual staking\n        lpToken.safeTransferFrom(msg.sender, address(this), amount);\n        stakedPerUser[account][conicPool] += amount;\n        _stakedPerPool[conicPool] += amount;\n    }\n\n    function unstakeFor(\n        uint256 amount,\n        address conicPool,\n        address account\n    ) public override {\n        require(controller.isPool(conicPool), \"not a conic pool\");\n        require(stakedPerUser[msg.sender][conicPool] >= amount, \"not enough staked\");\n        // Checkpoint all inflation logic\n        if (!isShutdown) {\n            IConicPool(conicPool).rewardManager().accountCheckpoint(msg.sender);\n            _stakerCheckpoint(msg.sender, 0);\n        }\n        // Actual unstaking\n        stakedPerUser[msg.sender][conicPool] -= amount;\n        _stakedPerPool[conicPool] -= amount;\n        IConicPool(conicPool).lpToken().safeTransfer(account, amount);\n    }\n\n    function unstakeFrom(uint256 amount, address account) public override {\n        require(controller.isPool(msg.sender), \"only callable from conic pool\");\n        require(stakedPerUser[account][msg.sender] >= amount, \"not enough staked\");\n        // Checkpoint all inflation logic\n        IConicPool(msg.sender).rewardManager().accountCheckpoint(account);\n        _stakerCheckpoint(account, 0);\n        // Actual unstaking\n        stakedPerUser[account][msg.sender] -= amount;\n        _stakedPerPool[msg.sender] -= amount;\n        IConicPool(msg.sender).lpToken().safeTransfer(account, amount);\n    }\n\n    function shutdown() external {\n        require(msg.sender == emergencyMinter, \"LpTokenStaker: not emergency minter\");\n        address[] memory pools = controller.listPools();\n        for (uint256 i; i < pools.length; i++) {\n            _claimCNCRewardsForPool(pools[i]);\n        }\n        isShutdown = true;\n        emit Shutdown();\n    }\n\n    function getUserBalanceForPool(address conicPool, address account)\n        external\n        view\n        override\n        returns (uint256)\n    {\n        return stakedPerUser[account][conicPool];\n    }\n\n    function getBalanceForPool(address conicPool) external view override returns (uint256) {\n        return _stakedPerPool[conicPool];\n    }\n\n    function getCachedBoost(address user) external view returns (uint256) {\n        return boosts[user].timeBoost;\n    }\n\n    function getTimeToFullBoost(address user) external view returns (uint256) {\n        uint256 fullBoostAt_ = boosts[user].lastUpdated + INCREASE_PERIOD;\n        if (fullBoostAt_ <= block.timestamp) return 0;\n        return fullBoostAt_ - block.timestamp;\n    }\n\n    function getBoost(address user) external view override returns (uint256) {\n        if (isShutdown) return MIN_BOOST;\n        (uint256 userStakedUSD, uint256 totalStakedUSD) = _getTotalStakedForUserCommonDenomination(\n            user\n        );\n        if (totalStakedUSD == 0 || userStakedUSD == 0) {\n            return MIN_BOOST;\n        }\n        uint256 stakeBoost = ScaledMath.ONE +\n            userStakedUSD.divDown(totalStakedUSD).mulDown(TVL_FACTOR);\n\n        Boost storage userBoost = boosts[user];\n        uint256 timeBoost = userBoost.timeBoost;\n        timeBoost += (block.timestamp - userBoost.lastUpdated).divDown(INCREASE_PERIOD).mulDown(\n            ScaledMath.ONE - TIME_STARTING_FACTOR\n        );\n        if (timeBoost > ScaledMath.ONE) {\n            timeBoost = ScaledMath.ONE;\n        }\n        uint256 totalBoost = stakeBoost.mulDown(timeBoost);\n        if (totalBoost < MIN_BOOST) {\n            totalBoost = MIN_BOOST;\n        } else if (totalBoost > MAX_BOOST) {\n            totalBoost = MAX_BOOST;\n        }\n        return totalBoost;\n    }\n\n    function updateBoost(address user) external override notShutdown {\n        (uint256 userStaked, ) = _getTotalStakedForUserCommonDenomination(user);\n        _updateTimeBoost(user, userStaked, 0);\n    }\n\n    function claimCNCRewardsForPool(address pool) external override notShutdown {\n        require(\n            msg.sender == address(IConicPool(pool).rewardManager()),\n            \"can only be called by reward manager\"\n        );\n        _claimCNCRewardsForPool(pool);\n    }\n\n    function _claimCNCRewardsForPool(address pool) internal {\n        require(controller.isPool(pool), \"not a pool\");\n        checkpoint(pool);\n        uint256 cncToMint = poolShares[pool];\n        if (cncToMint == 0) {\n            return;\n        }\n        cnc.mint(address(pool), cncToMint);\n        controller.inflationManager().executeInflationRateUpdate();\n        poolShares[pool] = 0;\n        emit TokensClaimed(pool, cncToMint);\n    }\n\n    function claimableCnc(address pool) public view override returns (uint256) {\n        if (isShutdown) return 0;\n        uint256 currentRate = controller.inflationManager().getCurrentPoolInflationRate(pool);\n        uint256 timeElapsed = block.timestamp - poolLastUpdated[pool];\n        return poolShares[pool] + (currentRate * timeElapsed);\n    }\n\n    function _stakerCheckpoint(address account, uint256 amountAddedUSD) internal {\n        (uint256 userStakedUSD, ) = _getTotalStakedForUserCommonDenomination(account);\n        _updateTimeBoost(account, userStakedUSD, amountAddedUSD);\n    }\n\n    function checkpoint(address pool) public override notShutdown returns (uint256) {\n        // Update the integral of total token supply for the pool\n        uint256 timeElapsed = block.timestamp - poolLastUpdated[pool];\n        if (timeElapsed == 0) return poolShares[pool];\n        poolCheckpoint(pool);\n        poolLastUpdated[pool] = block.timestamp;\n        return poolShares[pool];\n    }\n\n    function poolCheckpoint(address pool) internal {\n        uint256 currentRate = controller.inflationManager().getCurrentPoolInflationRate(pool);\n        uint256 timeElapsed = block.timestamp - poolLastUpdated[pool];\n        poolShares[pool] += (currentRate * timeElapsed);\n    }\n\n    function _updateTimeBoost(\n        address user,\n        uint256 userStakedUSD,\n        uint256 amountAddedUSD\n    ) internal {\n        Boost storage userBoost = boosts[user];\n\n        if (userStakedUSD == 0) {\n            userBoost.timeBoost = TIME_STARTING_FACTOR;\n            userBoost.lastUpdated = block.timestamp;\n            return;\n        }\n        uint256 newBoost;\n        newBoost = userBoost.timeBoost;\n        newBoost += (block.timestamp - userBoost.lastUpdated).divDown(INCREASE_PERIOD).mulDown(\n            ScaledMath.ONE - TIME_STARTING_FACTOR\n        );\n        if (newBoost > ScaledMath.ONE) {\n            newBoost = ScaledMath.ONE;\n        }\n        if (amountAddedUSD == 0) {\n            userBoost.timeBoost = newBoost;\n        } else {\n            uint256 newTotalStakedUSD = userStakedUSD + amountAddedUSD;\n            userBoost.timeBoost =\n                newBoost.mulDown(userStakedUSD.divDown(newTotalStakedUSD)) +\n                TIME_STARTING_FACTOR.mulDown(amountAddedUSD.divDown(newTotalStakedUSD));\n        }\n        userBoost.lastUpdated = block.timestamp;\n    }\n\n    function _getUserUSDStakedInPool(address account, address pool)\n        internal\n        view\n        returns (uint256 poolStaked, uint256 poolUserStaked)\n    {\n        uint256 curExchangeRate = IConicPool(pool).usdExchangeRate();\n\n        uint8 decimals = IConicPool(pool).lpToken().decimals();\n        poolStaked = _stakedPerPool[pool].convertScale(decimals, 18).mulDown(curExchangeRate);\n        poolUserStaked = stakedPerUser[account][pool].convertScale(decimals, 18).mulDown(\n            curExchangeRate\n        );\n    }\n\n    function _getTotalStakedForUserCommonDenomination(address account)\n        public\n        view\n        returns (uint256, uint256)\n    {\n        address[] memory conicPools = controller.listPools();\n        uint256 totalStakedUSD = 0;\n        uint256 userStakedUSD = 0;\n        for (uint256 i; i < conicPools.length; i++) {\n            (uint256 poolStakedUSD, uint256 poolUserStakedUSD) = _getUserUSDStakedInPool(\n                account,\n                conicPools[i]\n            );\n            totalStakedUSD += poolStakedUSD;\n            userStakedUSD += poolUserStakedUSD;\n        }\n        return (userStakedUSD, totalStakedUSD);\n    }\n\n    function _initializeLastUpdated() internal {\n        address[] memory pools = controller.listPools();\n        for (uint256 i; i < pools.length; i++) {\n            poolLastUpdated[pools[i]] = block.timestamp;\n        }\n    }\n}\n","sourcePath":"contracts/tokenomics/LpTokenStaker.sol","type":"contract","deployment":{"address":"0xeC037423A61B634BFc490dcc215236349999ca3d","chainid":"1","blockHeight":16734403}}