{"abi":[{"inputs":[{"internalType":"address","name":"_controller","type":"address"}],"stateMutability":"nonpayable","type":"constructor","name":"constructor"},{"anonymous":false,"inputs":[{"indexed":true,"internalType":"address","name":"previousOwner","type":"address"},{"indexed":true,"internalType":"address","name":"newOwner","type":"address"}],"name":"OwnershipTransferred","type":"event"},{"anonymous":false,"inputs":[],"name":"PoolWeightsUpdated","type":"event"},{"anonymous":false,"inputs":[{"indexed":true,"internalType":"address","name":"pool","type":"address"},{"indexed":true,"internalType":"address","name":"handler","type":"address"}],"name":"RebalancingRewardHandlerAdded","type":"event"},{"anonymous":false,"inputs":[{"indexed":true,"internalType":"address","name":"pool","type":"address"},{"indexed":true,"internalType":"address","name":"handler","type":"address"}],"name":"RebalancingRewardHandlerRemoved","type":"event"},{"anonymous":false,"inputs":[{"indexed":true,"internalType":"address","name":"pool","type":"address"},{"indexed":false,"internalType":"uint256","name":"cncAmount","type":"uint256"}],"name":"TokensClaimed","type":"event"},{"inputs":[],"name":"CNC","outputs":[{"internalType":"contract ICNCToken","name":"","type":"address"}],"stateMutability":"view","type":"function"},{"inputs":[{"internalType":"address","name":"poolAddress","type":"address"},{"internalType":"address","name":"rebalancingRewardHandler","type":"address"}],"name":"addPoolRebalancingRewardHandler","outputs":[],"stateMutability":"nonpayable","type":"function"},{"inputs":[{"internalType":"address","name":"pool","type":"address"}],"name":"computePoolWeight","outputs":[{"internalType":"uint256","name":"poolWeight","type":"uint256"},{"internalType":"uint256","name":"totalUSDValue","type":"uint256"}],"stateMutability":"view","type":"function"},{"inputs":[],"name":"computePoolWeights","outputs":[{"internalType":"address[]","name":"pools","type":"address[]"},{"internalType":"uint256[]","name":"poolWeights","type":"uint256[]"},{"internalType":"uint256","name":"totalUSDValue","type":"uint256"}],"stateMutability":"view","type":"function"},{"inputs":[],"name":"controller","outputs":[{"internalType":"contract IController","name":"","type":"address"}],"stateMutability":"view","type":"function"},{"inputs":[],"name":"currentInflationRate","outputs":[{"internalType":"uint256","name":"","type":"uint256"}],"stateMutability":"view","type":"function"},{"inputs":[{"internalType":"address","name":"","type":"address"}],"name":"currentPoolWeights","outputs":[{"internalType":"uint256","name":"","type":"uint256"}],"stateMutability":"view","type":"function"},{"inputs":[],"name":"executeInflationRateUpdate","outputs":[],"stateMutability":"nonpayable","type":"function"},{"inputs":[{"internalType":"address","name":"pool","type":"address"}],"name":"getCurrentPoolInflationRate","outputs":[{"internalType":"uint256","name":"","type":"uint256"}],"stateMutability":"view","type":"function"},{"inputs":[{"internalType":"address","name":"account","type":"address"},{"internalType":"uint256","name":"deviationBefore","type":"uint256"},{"internalType":"uint256","name":"deviationAfter","type":"uint256"}],"name":"handleRebalancingRewards","outputs":[],"stateMutability":"nonpayable","type":"function"},{"inputs":[{"internalType":"address","name":"poolAddress","type":"address"},{"internalType":"address","name":"handler","type":"address"}],"name":"hasPoolRebalancingRewardHandlers","outputs":[{"internalType":"bool","name":"","type":"bool"}],"stateMutability":"view","type":"function"},{"inputs":[],"name":"lastInflationRateDecay","outputs":[{"internalType":"uint256","name":"","type":"uint256"}],"stateMutability":"view","type":"function"},{"inputs":[],"name":"lastUpdate","outputs":[{"internalType":"uint256","name":"","type":"uint256"}],"stateMutability":"view","type":"function"},{"inputs":[],"name":"owner","outputs":[{"internalType":"address","name":"","type":"address"}],"stateMutability":"view","type":"function"},{"inputs":[{"internalType":"address","name":"poolAddress","type":"address"}],"name":"rebalancingRewardHandlers","outputs":[{"internalType":"address[]","name":"","type":"address[]"}],"stateMutability":"view","type":"function"},{"inputs":[{"internalType":"address","name":"poolAddress","type":"address"},{"internalType":"address","name":"rebalancingRewardHandler","type":"address"}],"name":"removePoolRebalancingRewardHandler","outputs":[],"stateMutability":"nonpayable","type":"function"},{"inputs":[],"name":"renounceOwnership","outputs":[],"stateMutability":"nonpayable","type":"function"},{"inputs":[],"name":"totalLpInflationMinted","outputs":[{"internalType":"uint256","name":"","type":"uint256"}],"stateMutability":"view","type":"function"},{"inputs":[{"internalType":"address","name":"newOwner","type":"address"}],"name":"transferOwnership","outputs":[],"stateMutability":"nonpayable","type":"function"},{"inputs":[],"name":"updatePoolWeights","outputs":[],"stateMutability":"nonpayable","type":"function"}],"bytecode":"60a06040523480156200001157600080fd5b50604051620021ca380380620021ca833981016040819052620000349162000134565b6200003f33620000e4565b6001600160a01b038116620000a95760405162461bcd60e51b815260206004820152602660248201527f43616e6e6f7420757365207a65726f206164647265737320666f7220636f6e746044820152653937b63632b960d11b606482015260840160405180910390fd5b6001600160a01b038116608052620000d16301e133806a013da329b633647180000062000166565b6002555042600481905560035562000189565b600080546001600160a01b038381166001600160a01b0319831681178455604051919092169283917f8be0079c531659141344cd1fd0a4f28419497f9722a3daafe3b4186f6b6457e09190a35050565b6000602082840312156200014757600080fd5b81516001600160a01b03811681146200015f57600080fd5b9392505050565b6000826200018457634e487b7160e01b600052601260045260246000fd5b500490565b608051611fc362000207600039600081816102cc01528181610312015281816103c301528181610449015281816104de015281816107c80152818161088f01528181610a6501528181610cdd01528181610ddd01528181610f6501528181610fe9015281816110c50152818161145201526115520152611fc36000f3fe608060405234801561001057600080fd5b506004361061012c5760003560e01c8063a53eb52e116100ad578063cd1c374f11610071578063cd1c374f1461028f578063d30113b714610298578063dba8cc35146102a1578063f2fde38b146102b4578063f77c4791146102c757600080fd5b8063a53eb52e14610223578063a563c3d51461023a578063ad174d8e14610243578063b46507a114610263578063c04637111461028657600080fd5b806356a0d315116100f457806356a0d315146101a4578063632473da146101b7578063715018a6146101ea5780638da5cb5b146101f2578063965125c61461020357600080fd5b8063129e16511461013157806314915ebe1461015e5780631d43c9d3146101735780633dc4f7de146101945780634a17ed591461019c575b600080fd5b61014461013f366004611b13565b6102ee565b604080519283526020830191909152015b60405180910390f35b61017161016c366004611b30565b61087a565b005b610186610181366004611b13565b610a20565b604051908152602001610155565b610171610a4b565b610171610cbd565b6101716101b2366004611b65565b610cc7565b6101d2739ae380f0272e2162340a5bb646c354271c0f5cfc81565b6040516001600160a01b039091168152602001610155565b610171610f27565b6000546001600160a01b03166101d2565b610216610211366004611b13565b610f39565b6040516101559190611be2565b61022b610f5d565b60405161015593929190611bf5565b61018660025481565b610186610251366004611b13565b60066020526000908152604090205481565b610276610271366004611b65565b611413565b6040519015158152602001610155565b61018660045481565b61018660055481565b61018660035481565b6101716102af366004611b65565b61143c565b6101716102c2366004611b13565b6116a0565b6101d27f000000000000000000000000000000000000000000000000000000000000000081565b604051635b16ebb760e01b81526001600160a01b03828116600483015260009182917f00000000000000000000000000000000000000000000000000000000000000001690635b16ebb790602401602060405180830381865afa158015610359573d6000803e3d6000fd5b505050506040513d601f19601f8201168201806040525081019061037d9190611c55565b6103bf5760405162461bcd60e51b815260206004820152600e60248201526d1c1bdbdb081b9bdd08199bdd5b9960921b60448201526064015b60405180910390fd5b60007f00000000000000000000000000000000000000000000000000000000000000006001600160a01b0316632630c12f6040518163ffffffff1660e01b8152600401602060405180830381865afa15801561041f573d6000803e3d6000fd5b505050506040513d601f19601f820116820180604052508101906104439190611c77565b905060007f00000000000000000000000000000000000000000000000000000000000000006001600160a01b031663687958626040518163ffffffff1660e01b8152600401600060405180830381865afa1580156104a5573d6000803e3d6000fd5b505050506040513d6000823e601f3d908101601f191682016040526104cd9190810190611cba565b90506000805b82518110156107a8577f00000000000000000000000000000000000000000000000000000000000000006001600160a01b0316638097354f84838151811061051d5761051d611d7f565b60200260200101516040518263ffffffff1660e01b815260040161055091906001600160a01b0391909116815260200190565b602060405180830381865afa15801561056d573d6000803e3d6000fd5b505050506040513d601f19601f820116820180604052508101906105919190611c55565b156107965760008382815181106105aa576105aa611d7f565b602002602001015190506000816001600160a01b0316636f307dc36040518163ffffffff1660e01b8152600401602060405180830381865afa1580156105f4573d6000803e3d6000fd5b505050506040513d601f19601f820116820180604052508101906106189190611c77565b604051638b2f0f4f60e01b81526001600160a01b038083166004830152919250600091881690638b2f0f4f90602401602060405180830381865afa158015610664573d6000803e3d6000fd5b505050506040513d601f19601f820116820180604052508101906106889190611d95565b9050600061076682610760856001600160a01b031663313ce5676040518163ffffffff1660e01b8152600401602060405180830381865afa1580156106d1573d6000803e3d6000fd5b505050506040513d601f19601f820116820180604052508101906106f59190611dae565b6012886001600160a01b03166324a71a666040518163ffffffff1660e01b8152600401602060405180830381865afa158015610735573d6000803e3d6000fd5b505050506040513d601f19601f820116820180604052508101906107599190611d95565b9190611719565b90611762565b9050610772818a611de7565b98508a6001600160a01b0316846001600160a01b031603610791578095505b505050505b806107a081611dfa565b9150506104d3565b50604051638097354f60e01b81526001600160a01b0387811660048301527f00000000000000000000000000000000000000000000000000000000000000001690638097354f90602401602060405180830381865afa15801561080f573d6000803e3d6000fd5b505050506040513d601f19601f820116820180604052508101906108339190611c55565b6108435760009450505050915091565b8315610858576108538185611784565b610870565b81516108666012600a611ef7565b6108709190611f03565b9450505050915091565b604051635b16ebb760e01b81523360048201527f00000000000000000000000000000000000000000000000000000000000000006001600160a01b031690635b16ebb790602401602060405180830381865afa1580156108de573d6000803e3d6000fd5b505050506040513d601f19601f820116820180604052508101906109029190611c55565b6109585760405162461bcd60e51b815260206004820152602160248201527f6f6e6c7920706f6f6c732063616e2063616c6c20746869732066756e6374696f6044820152603760f91b60648201526084016103b6565b60005b3360009081526001602052604090206109739061179d565b811015610a1a5733600090815260016020526040812061099390836117a7565b60405163f95878f560e01b81523360048201526001600160a01b03878116602483015260448201879052606482018690529192509082169063f95878f590608401600060405180830381600087803b1580156109ee57600080fd5b505af1158015610a02573d6000803e3d6000fd5b50505050508080610a1290611dfa565b91505061095b565b50505050565b6001600160a01b038116600090815260066020526040812054600254610a4591611762565b92915050565b600080610a56610f5d565b509150915060008251905060007f00000000000000000000000000000000000000000000000000000000000000006001600160a01b03166348439e7e6040518163ffffffff1660e01b8152600401602060405180830381865afa158015610ac1573d6000803e3d6000fd5b505050506040513d601f19601f82011682018060405250810190610ae59190611c77565b905060005b82811015610c8d576000858281518110610b0657610b06611d7f565b60200260200101519050806001600160a01b0316630f4ef8a66040518163ffffffff1660e01b8152600401602060405180830381865afa158015610b4e573d6000803e3d6000fd5b505050506040513d601f19601f82011682018060405250810190610b729190611c77565b6001600160a01b0316635790a0c86040518163ffffffff1660e01b81526004016020604051808303816000875af1158015610bb1573d6000803e3d6000fd5b505050506040513d601f19601f82011682018060405250810190610bd59190611c55565b506040516354b94c2f60e11b81526001600160a01b03828116600483015284169063a972985e906024016020604051808303816000875af1158015610c1e573d6000803e3d6000fd5b505050506040513d601f19601f82011682018060405250810190610c429190611d95565b50848281518110610c5557610c55611d7f565b6020908102919091018101516001600160a01b0390921660009081526006909152604090205580610c8581611dfa565b915050610aea565b506040517ffb56001529302f12afdfa225ba5ad5da2d7d51b21709e2a2a8821f42b0e2cb5690600090a150505050565b610cc56117b3565b565b6000546001600160a01b0316331480610d7257507f00000000000000000000000000000000000000000000000000000000000000006001600160a01b0316635e2f23ce6040518163ffffffff1660e01b8152600401602060405180830381865afa158015610d39573d6000803e3d6000fd5b505050506040513d601f19601f82011682018060405250810190610d5d9190611c77565b6001600160a01b0316336001600160a01b0316145b610dbe5760405162461bcd60e51b815260206004820152601e60248201527f6f6e6c79206f776e6572206f7220656d657267656e6379206d696e746572000060448201526064016103b6565b604051635b16ebb760e01b81526001600160a01b0383811660048301527f00000000000000000000000000000000000000000000000000000000000000001690635b16ebb790602401602060405180830381865afa158015610e24573d6000803e3d6000fd5b505050506040513d601f19601f82011682018060405250810190610e489190611c55565b610e835760405162461bcd60e51b815260206004820152600c60248201526b1a5b9d985b1a59081c1bdbdb60a21b60448201526064016103b6565b6001600160a01b0382166000908152600160205260409020610ea590826117f1565b610ee35760405162461bcd60e51b815260206004820152600f60248201526e1a185b991b195c881b9bdd081cd95d608a1b60448201526064016103b6565b806001600160a01b0316826001600160a01b03167f388f4b3ec4b4c3329f2ec4ad5434090b54fdef42e3efa2bb40e82136640abc3160405160405180910390a35050565b610f2f611806565b610cc56000611860565b6001600160a01b0381166000908152600160205260409020606090610a45906118b0565b6060806000807f00000000000000000000000000000000000000000000000000000000000000006001600160a01b0316632630c12f6040518163ffffffff1660e01b8152600401602060405180830381865afa158015610fc1573d6000803e3d6000fd5b505050506040513d601f19601f82011682018060405250810190610fe59190611c77565b90507f00000000000000000000000000000000000000000000000000000000000000006001600160a01b031663687958626040518163ffffffff1660e01b8152600401600060405180830381865afa158015611045573d6000803e3d6000fd5b505050506040513d6000823e601f3d908101601f1916820160405261106d9190810190611cba565b93506000845167ffffffffffffffff81111561108b5761108b611c94565b6040519080825280602002602001820160405280156110b4578160200160208202803683370190505b50905060005b85518110156112fb577f00000000000000000000000000000000000000000000000000000000000000006001600160a01b0316638097354f87838151811061110457611104611d7f565b60200260200101516040518263ffffffff1660e01b815260040161113791906001600160a01b0391909116815260200190565b602060405180830381865afa158015611154573d6000803e3d6000fd5b505050506040513d601f19601f820116820180604052508101906111789190611c55565b156112e957600086828151811061119157611191611d7f565b602002602001015190506000816001600160a01b0316636f307dc36040518163ffffffff1660e01b8152600401602060405180830381865afa1580156111db573d6000803e3d6000fd5b505050506040513d601f19601f820116820180604052508101906111ff9190611c77565b604051638b2f0f4f60e01b81526001600160a01b038083166004830152919250600091871690638b2f0f4f90602401602060405180830381865afa15801561124b573d6000803e3d6000fd5b505050506040513d601f19601f8201168201806040525081019061126f9190611d95565b905060006112b882610760856001600160a01b031663313ce5676040518163ffffffff1660e01b8152600401602060405180830381865afa1580156106d1573d6000803e3d6000fd5b9050808686815181106112cd576112cd611d7f565b60209081029190910101526112e28189611de7565b9750505050505b806112f381611dfa565b9150506110ba565b50845167ffffffffffffffff81111561131657611316611c94565b60405190808252806020026020018201604052801561133f578160200160208202803683370190505b509350826000036113a35760005b855181101561139d5785516113646012600a611ef7565b61136e9190611f03565b85828151811061138057611380611d7f565b60209081029190910101528061139581611dfa565b91505061134d565b5061140c565b60005b855181101561140a576113db848383815181106113c5576113c5611d7f565b602002602001015161178490919063ffffffff16565b8582815181106113ed576113ed611d7f565b60209081029190910101528061140281611dfa565b9150506113a6565b505b5050909192565b6001600160a01b038216600090815260016020526040812061143590836118bd565b9392505050565b6000546001600160a01b03163314806114e757507f00000000000000000000000000000000000000000000000000000000000000006001600160a01b0316635e2f23ce6040518163ffffffff1660e01b8152600401602060405180830381865afa1580156114ae573d6000803e3d6000fd5b505050506040513d601f19601f820116820180604052508101906114d29190611c77565b6001600160a01b0316336001600160a01b0316145b6115335760405162461bcd60e51b815260206004820152601e60248201527f6f6e6c79206f776e6572206f7220656d657267656e6379206d696e746572000060448201526064016103b6565b604051635b16ebb760e01b81526001600160a01b0383811660048301527f00000000000000000000000000000000000000000000000000000000000000001690635b16ebb790602401602060405180830381865afa158015611599573d6000803e3d6000fd5b505050506040513d601f19601f820116820180604052508101906115bd9190611c55565b6115f85760405162461bcd60e51b815260206004820152600c60248201526b1a5b9d985b1a59081c1bdbdb60a21b60448201526064016103b6565b6001600160a01b038216600090815260016020526040902061161a90826118df565b61165c5760405162461bcd60e51b81526020600482015260136024820152721a185b991b195c88185b1c9958591e481cd95d606a1b60448201526064016103b6565b806001600160a01b0316826001600160a01b03167fc2892f3aa5a025efdf54a8a5b3ef7397fc15169328547915b9b5825a8c33e05f60405160405180910390a35050565b6116a8611806565b6001600160a01b03811661170d5760405162461bcd60e51b815260206004820152602660248201527f4f776e61626c653a206e6577206f776e657220697320746865207a65726f206160448201526564647265737360d01b60648201526084016103b6565b61171681611860565b50565b60008160ff168360ff160361172f575082611435565b8160ff168360ff16111561174f576117488484846118f4565b9050611435565b61175a848484611915565b949350505050565b60006117706012600a611ef7565b61177a8385611f25565b6114359190611f03565b6000816117936012600a611ef7565b61177a9085611f25565b6000610a45825490565b60006114358383611936565b6301e133806003546117c59190611de7565b4210610cc5576117d3610a4b565b6002546117e89067058d15ca2db11800611762565b60025542600355565b6000611435836001600160a01b038416611960565b6000546001600160a01b03163314610cc55760405162461bcd60e51b815260206004820181905260248201527f4f776e61626c653a2063616c6c6572206973206e6f7420746865206f776e657260448201526064016103b6565b600080546001600160a01b038381166001600160a01b0319831681178455604051919092169283917f8be0079c531659141344cd1fd0a4f28419497f9722a3daafe3b4186f6b6457e09190a35050565b6060600061143583611a53565b6001600160a01b03811660009081526001830160205260408120541515611435565b6000611435836001600160a01b038416611aaf565b60006119008284611f3c565b61190b90600a611f55565b61175a9085611f03565b60006119218383611f3c565b61192c90600a611f55565b61175a9085611f25565b600082600001828154811061194d5761194d611d7f565b9060005260206000200154905092915050565b60008181526001830160205260408120548015611a49576000611984600183611f64565b855490915060009061199890600190611f64565b90508181146119fd5760008660000182815481106119b8576119b8611d7f565b90600052602060002001549050808760000184815481106119db576119db611d7f565b6000918252602080832090910192909255918252600188019052604090208390555b8554869080611a0e57611a0e611f77565b600190038181906000526020600020016000905590558560010160008681526020019081526020016000206000905560019350505050610a45565b6000915050610a45565b606081600001805480602002602001604051908101604052809291908181526020018280548015611aa357602002820191906000526020600020905b815481526020019060010190808311611a8f575b50505050509050919050565b6000818152600183016020526040812054611af657508154600181810184556000848152602080822090930184905584548482528286019093526040902091909155610a45565b506000610a45565b6001600160a01b038116811461171657600080fd5b600060208284031215611b2557600080fd5b813561143581611afe565b600080600060608486031215611b4557600080fd5b8335611b5081611afe565b95602085013595506040909401359392505050565b60008060408385031215611b7857600080fd5b8235611b8381611afe565b91506020830135611b9381611afe565b809150509250929050565b600081518084526020808501945080840160005b83811015611bd75781516001600160a01b031687529582019590820190600101611bb2565b509495945050505050565b6020815260006114356020830184611b9e565b606081526000611c086060830186611b9e565b82810360208481019190915285518083528682019282019060005b81811015611c3f57845183529383019391830191600101611c23565b5050809350505050826040830152949350505050565b600060208284031215611c6757600080fd5b8151801515811461143557600080fd5b600060208284031215611c8957600080fd5b815161143581611afe565b634e487b7160e01b600052604160045260246000fd5b8051611cb581611afe565b919050565b60006020808385031215611ccd57600080fd5b825167ffffffffffffffff80821115611ce557600080fd5b818501915085601f830112611cf957600080fd5b815181811115611d0b57611d0b611c94565b8060051b604051601f19603f83011681018181108582111715611d3057611d30611c94565b604052918252848201925083810185019188831115611d4e57600080fd5b938501935b82851015611d7357611d6485611caa565b84529385019392850192611d53565b98975050505050505050565b634e487b7160e01b600052603260045260246000fd5b600060208284031215611da757600080fd5b5051919050565b600060208284031215611dc057600080fd5b815160ff8116811461143557600080fd5b634e487b7160e01b600052601160045260246000fd5b80820180821115610a4557610a45611dd1565b600060018201611e0c57611e0c611dd1565b5060010190565b600181815b80851115611e4e578160001904821115611e3457611e34611dd1565b80851615611e4157918102915b93841c9390800290611e18565b509250929050565b600082611e6557506001610a45565b81611e7257506000610a45565b8160018114611e885760028114611e9257611eae565b6001915050610a45565b60ff841115611ea357611ea3611dd1565b50506001821b610a45565b5060208310610133831016604e8410600b8410161715611ed1575081810a610a45565b611edb8383611e13565b8060001904821115611eef57611eef611dd1565b029392505050565b60006114358383611e56565b600082611f2057634e487b7160e01b600052601260045260246000fd5b500490565b8082028115828204841417610a4557610a45611dd1565b60ff8281168282160390811115610a4557610a45611dd1565b600061143560ff841683611e56565b81810381811115610a4557610a45611dd1565b634e487b7160e01b600052603160045260246000fdfea2646970667358221220eddf299b14721a503d51fd4f459cf2db5972fa0482b6959635594f5a1d5ad31564736f6c63430008110033","bytecodeSha1":"cab296d05b51ec0f7b853c45b7c12dd519e628af","compiler":{"evm_version":"istanbul","optimizer":{"enabled":true,"runs":200},"version":"0.8.17+commit.8df45f5f"},"contractName":"InflationManager","language":"Solidity","natspec":{"kind":"dev","methods":{"computePoolWeight(address)":{"notice":"Same as `computePoolWeights` but only returns the value for a single pool totalUSDValue only accounts for funds in active pools"},"computePoolWeights()":{"notice":"returns the weights of the Conic pools to know how much inflation each of them will receive. totalUSDValue only accounts for funds in active pools"},"getCurrentPoolInflationRate(address)":{"details":"Pool weights will be updated periodically"},"owner()":{"details":"Returns the address of the current owner."},"renounceOwnership()":{"details":"Leaves the contract without owner. It will not be possible to call `onlyOwner` functions anymore. Can only be called by the current owner. NOTE: Renouncing ownership will leave the contract without an owner, thereby removing any functionality that is only available to the owner."},"transferOwnership(address)":{"details":"Transfers ownership of the contract to a new account (`newOwner`). Can only be called by the current owner."}},"stateVariables":{"_rebalancingRewardHandlers":{"details":"mapping from conic pool to their rebalancing reward handlers"}},"version":1},"opcodes":"PUSH1 0x80 PUSH1 0x40 MSTORE CALLVALUE DUP1 ISZERO PUSH2 0x10 JUMPI PUSH1 0x0 DUP1 REVERT JUMPDEST POP PUSH1 0x4 CALLDATASIZE LT PUSH2 0x12C JUMPI PUSH1 0x0 CALLDATALOAD PUSH1 0xE0 SHR DUP1 PUSH4 0xA53EB52E GT PUSH2 0xAD JUMPI DUP1 PUSH4 0xCD1C374F GT PUSH2 0x71 JUMPI DUP1 PUSH4 0xCD1C374F EQ PUSH2 0x28F JUMPI DUP1 PUSH4 0xD30113B7 EQ PUSH2 0x298 JUMPI DUP1 PUSH4 0xDBA8CC35 EQ PUSH2 0x2A1 JUMPI DUP1 PUSH4 0xF2FDE38B EQ PUSH2 0x2B4 JUMPI DUP1 PUSH4 0xF77C4791 EQ PUSH2 0x2C7 JUMPI PUSH1 0x0 DUP1 REVERT JUMPDEST DUP1 PUSH4 0xA53EB52E EQ PUSH2 0x223 JUMPI DUP1 PUSH4 0xA563C3D5 EQ PUSH2 0x23A JUMPI DUP1 PUSH4 0xAD174D8E EQ PUSH2 0x243 JUMPI DUP1 PUSH4 0xB46507A1 EQ PUSH2 0x263 JUMPI DUP1 PUSH4 0xC0463711 EQ PUSH2 0x286 JUMPI PUSH1 0x0 DUP1 REVERT JUMPDEST DUP1 PUSH4 0x56A0D315 GT PUSH2 0xF4 JUMPI DUP1 PUSH4 0x56A0D315 EQ PUSH2 0x1A4 JUMPI DUP1 PUSH4 0x632473DA EQ PUSH2 0x1B7 JUMPI DUP1 PUSH4 0x715018A6 EQ PUSH2 0x1EA JUMPI DUP1 PUSH4 0x8DA5CB5B EQ PUSH2 0x1F2 JUMPI DUP1 PUSH4 0x965125C6 EQ PUSH2 0x203 JUMPI PUSH1 0x0 DUP1 REVERT JUMPDEST DUP1 PUSH4 0x129E1651 EQ PUSH2 0x131 JUMPI DUP1 PUSH4 0x14915EBE EQ PUSH2 0x15E JUMPI DUP1 PUSH4 0x1D43C9D3 EQ PUSH2 0x173 JUMPI DUP1 PUSH4 0x3DC4F7DE EQ PUSH2 0x194 JUMPI DUP1 PUSH4 0x4A17ED59 EQ PUSH2 0x19C JUMPI JUMPDEST PUSH1 0x0 DUP1 REVERT JUMPDEST PUSH2 0x144 PUSH2 0x13F CALLDATASIZE PUSH1 0x4 PUSH2 0x1B13 JUMP JUMPDEST PUSH2 0x2EE JUMP JUMPDEST PUSH1 0x40 DUP1 MLOAD SWAP3 DUP4 MSTORE PUSH1 0x20 DUP4 ADD SWAP2 SWAP1 SWAP2 MSTORE ADD JUMPDEST PUSH1 0x40 MLOAD DUP1 SWAP2 SUB SWAP1 RETURN JUMPDEST PUSH2 0x171 PUSH2 0x16C CALLDATASIZE PUSH1 0x4 PUSH2 0x1B30 JUMP JUMPDEST PUSH2 0x87A JUMP JUMPDEST STOP JUMPDEST PUSH2 0x186 PUSH2 0x181 CALLDATASIZE PUSH1 0x4 PUSH2 0x1B13 JUMP JUMPDEST PUSH2 0xA20 JUMP JUMPDEST PUSH1 0x40 MLOAD SWAP1 DUP2 MSTORE PUSH1 0x20 ADD PUSH2 0x155 JUMP JUMPDEST PUSH2 0x171 PUSH2 0xA4B JUMP JUMPDEST PUSH2 0x171 PUSH2 0xCBD JUMP JUMPDEST PUSH2 0x171 PUSH2 0x1B2 CALLDATASIZE PUSH1 0x4 PUSH2 0x1B65 JUMP JUMPDEST PUSH2 0xCC7 JUMP JUMPDEST PUSH2 0x1D2 PUSH20 0x9AE380F0272E2162340A5BB646C354271C0F5CFC DUP2 JUMP JUMPDEST PUSH1 0x40 MLOAD PUSH1 0x1 PUSH1 0x1 PUSH1 0xA0 SHL SUB SWAP1 SWAP2 AND DUP2 MSTORE PUSH1 0x20 ADD PUSH2 0x155 JUMP JUMPDEST PUSH2 0x171 PUSH2 0xF27 JUMP JUMPDEST PUSH1 0x0 SLOAD PUSH1 0x1 PUSH1 0x1 PUSH1 0xA0 SHL SUB AND PUSH2 0x1D2 JUMP JUMPDEST PUSH2 0x216 PUSH2 0x211 CALLDATASIZE PUSH1 0x4 PUSH2 0x1B13 JUMP JUMPDEST PUSH2 0xF39 JUMP JUMPDEST PUSH1 0x40 MLOAD PUSH2 0x155 SWAP2 SWAP1 PUSH2 0x1BE2 JUMP JUMPDEST PUSH2 0x22B PUSH2 0xF5D JUMP JUMPDEST PUSH1 0x40 MLOAD PUSH2 0x155 SWAP4 SWAP3 SWAP2 SWAP1 PUSH2 0x1BF5 JUMP JUMPDEST PUSH2 0x186 PUSH1 0x2 SLOAD DUP2 JUMP JUMPDEST PUSH2 0x186 PUSH2 0x251 CALLDATASIZE PUSH1 0x4 PUSH2 0x1B13 JUMP JUMPDEST PUSH1 0x6 PUSH1 0x20 MSTORE PUSH1 0x0 SWAP1 DUP2 MSTORE PUSH1 0x40 SWAP1 KECCAK256 SLOAD DUP2 JUMP JUMPDEST PUSH2 0x276 PUSH2 0x271 CALLDATASIZE PUSH1 0x4 PUSH2 0x1B65 JUMP JUMPDEST PUSH2 0x1413 JUMP JUMPDEST PUSH1 0x40 MLOAD SWAP1 ISZERO ISZERO DUP2 MSTORE PUSH1 0x20 ADD PUSH2 0x155 JUMP JUMPDEST PUSH2 0x186 PUSH1 0x4 SLOAD DUP2 JUMP JUMPDEST PUSH2 0x186 PUSH1 0x5 SLOAD DUP2 JUMP JUMPDEST PUSH2 0x186 PUSH1 0x3 SLOAD DUP2 JUMP JUMPDEST PUSH2 0x171 PUSH2 0x2AF CALLDATASIZE PUSH1 0x4 PUSH2 0x1B65 JUMP JUMPDEST PUSH2 0x143C JUMP JUMPDEST PUSH2 0x171 PUSH2 0x2C2 CALLDATASIZE PUSH1 0x4 PUSH2 0x1B13 JUMP JUMPDEST PUSH2 0x16A0 JUMP JUMPDEST PUSH2 0x1D2 PUSH32 0x0 DUP2 JUMP JUMPDEST PUSH1 0x40 MLOAD PUSH4 0x5B16EBB7 PUSH1 0xE0 SHL DUP2 MSTORE PUSH1 0x1 PUSH1 0x1 PUSH1 0xA0 SHL SUB DUP3 DUP2 AND PUSH1 0x4 DUP4 ADD MSTORE PUSH1 0x0 SWAP2 DUP3 SWAP2 PUSH32 0x0 AND SWAP1 PUSH4 0x5B16EBB7 SWAP1 PUSH1 0x24 ADD PUSH1 0x20 PUSH1 0x40 MLOAD DUP1 DUP4 SUB DUP2 DUP7 GAS STATICCALL ISZERO DUP1 ISZERO PUSH2 0x359 JUMPI RETURNDATASIZE PUSH1 0x0 DUP1 RETURNDATACOPY RETURNDATASIZE PUSH1 0x0 REVERT JUMPDEST POP POP POP POP PUSH1 0x40 MLOAD RETURNDATASIZE PUSH1 0x1F NOT PUSH1 0x1F DUP3 ADD AND DUP3 ADD DUP1 PUSH1 0x40 MSTORE POP DUP2 ADD SWAP1 PUSH2 0x37D SWAP2 SWAP1 PUSH2 0x1C55 JUMP JUMPDEST PUSH2 0x3BF JUMPI PUSH1 0x40 MLOAD PUSH3 0x461BCD PUSH1 0xE5 SHL DUP2 MSTORE PUSH1 0x20 PUSH1 0x4 DUP3 ADD MSTORE PUSH1 0xE PUSH1 0x24 DUP3 ADD MSTORE PUSH14 0x1C1BDBDB081B9BDD08199BDD5B99 PUSH1 0x92 SHL PUSH1 0x44 DUP3 ADD MSTORE PUSH1 0x64 ADD JUMPDEST PUSH1 0x40 MLOAD DUP1 SWAP2 SUB SWAP1 REVERT JUMPDEST PUSH1 0x0 PUSH32 0x0 PUSH1 0x1 PUSH1 0x1 PUSH1 0xA0 SHL SUB AND PUSH4 0x2630C12F PUSH1 0x40 MLOAD DUP2 PUSH4 0xFFFFFFFF AND PUSH1 0xE0 SHL DUP2 MSTORE PUSH1 0x4 ADD PUSH1 0x20 PUSH1 0x40 MLOAD DUP1 DUP4 SUB DUP2 DUP7 GAS STATICCALL ISZERO DUP1 ISZERO PUSH2 0x41F JUMPI RETURNDATASIZE PUSH1 0x0 DUP1 RETURNDATACOPY RETURNDATASIZE PUSH1 0x0 REVERT JUMPDEST POP POP POP POP PUSH1 0x40 MLOAD RETURNDATASIZE PUSH1 0x1F NOT PUSH1 0x1F DUP3 ADD AND DUP3 ADD DUP1 PUSH1 0x40 MSTORE POP DUP2 ADD SWAP1 PUSH2 0x443 SWAP2 SWAP1 PUSH2 0x1C77 JUMP JUMPDEST SWAP1 POP PUSH1 0x0 PUSH32 0x0 PUSH1 0x1 PUSH1 0x1 PUSH1 0xA0 SHL SUB AND PUSH4 0x68795862 PUSH1 0x40 MLOAD DUP2 PUSH4 0xFFFFFFFF AND PUSH1 0xE0 SHL DUP2 MSTORE PUSH1 0x4 ADD PUSH1 0x0 PUSH1 0x40 MLOAD DUP1 DUP4 SUB DUP2 DUP7 GAS STATICCALL ISZERO DUP1 ISZERO PUSH2 0x4A5 JUMPI RETURNDATASIZE PUSH1 0x0 DUP1 RETURNDATACOPY RETURNDATASIZE PUSH1 0x0 REVERT JUMPDEST POP POP POP POP PUSH1 0x40 MLOAD RETURNDATASIZE PUSH1 0x0 DUP3 RETURNDATACOPY PUSH1 0x1F RETURNDATASIZE SWAP1 DUP2 ADD PUSH1 0x1F NOT AND DUP3 ADD PUSH1 0x40 MSTORE PUSH2 0x4CD SWAP2 SWAP1 DUP2 ADD SWAP1 PUSH2 0x1CBA JUMP JUMPDEST SWAP1 POP PUSH1 0x0 DUP1 JUMPDEST DUP3 MLOAD DUP2 LT ISZERO PUSH2 0x7A8 JUMPI PUSH32 0x0 PUSH1 0x1 PUSH1 0x1 PUSH1 0xA0 SHL SUB AND PUSH4 0x8097354F DUP5 DUP4 DUP2 MLOAD DUP2 LT PUSH2 0x51D JUMPI PUSH2 0x51D PUSH2 0x1D7F JUMP JUMPDEST PUSH1 0x20 MUL PUSH1 0x20 ADD ADD MLOAD PUSH1 0x40 MLOAD DUP3 PUSH4 0xFFFFFFFF AND PUSH1 0xE0 SHL DUP2 MSTORE PUSH1 0x4 ADD PUSH2 0x550 SWAP2 SWAP1 PUSH1 0x1 PUSH1 0x1 PUSH1 0xA0 SHL SUB SWAP2 SWAP1 SWAP2 AND DUP2 MSTORE PUSH1 0x20 ADD SWAP1 JUMP JUMPDEST PUSH1 0x20 PUSH1 0x40 MLOAD DUP1 DUP4 SUB DUP2 DUP7 GAS STATICCALL ISZERO DUP1 ISZERO PUSH2 0x56D JUMPI RETURNDATASIZE PUSH1 0x0 DUP1 RETURNDATACOPY RETURNDATASIZE PUSH1 0x0 REVERT JUMPDEST POP POP POP POP PUSH1 0x40 MLOAD RETURNDATASIZE PUSH1 0x1F NOT PUSH1 0x1F DUP3 ADD AND DUP3 ADD DUP1 PUSH1 0x40 MSTORE POP DUP2 ADD SWAP1 PUSH2 0x591 SWAP2 SWAP1 PUSH2 0x1C55 JUMP JUMPDEST ISZERO PUSH2 0x796 JUMPI PUSH1 0x0 DUP4 DUP3 DUP2 MLOAD DUP2 LT PUSH2 0x5AA JUMPI PUSH2 0x5AA PUSH2 0x1D7F JUMP JUMPDEST PUSH1 0x20 MUL PUSH1 0x20 ADD ADD MLOAD SWAP1 POP PUSH1 0x0 DUP2 PUSH1 0x1 PUSH1 0x1 PUSH1 0xA0 SHL SUB AND PUSH4 0x6F307DC3 PUSH1 0x40 MLOAD DUP2 PUSH4 0xFFFFFFFF AND PUSH1 0xE0 SHL DUP2 MSTORE PUSH1 0x4 ADD PUSH1 0x20 PUSH1 0x40 MLOAD DUP1 DUP4 SUB DUP2 DUP7 GAS STATICCALL ISZERO DUP1 ISZERO PUSH2 0x5F4 JUMPI RETURNDATASIZE PUSH1 0x0 DUP1 RETURNDATACOPY RETURNDATASIZE PUSH1 0x0 REVERT JUMPDEST POP POP POP POP PUSH1 0x40 MLOAD RETURNDATASIZE PUSH1 0x1F NOT PUSH1 0x1F DUP3 ADD AND DUP3 ADD DUP1 PUSH1 0x40 MSTORE POP DUP2 ADD SWAP1 PUSH2 0x618 SWAP2 SWAP1 PUSH2 0x1C77 JUMP JUMPDEST PUSH1 0x40 MLOAD PUSH4 0x8B2F0F4F PUSH1 0xE0 SHL DUP2 MSTORE PUSH1 0x1 PUSH1 0x1 PUSH1 0xA0 SHL SUB DUP1 DUP4 AND PUSH1 0x4 DUP4 ADD MSTORE SWAP2 SWAP3 POP PUSH1 0x0 SWAP2 DUP9 AND SWAP1 PUSH4 0x8B2F0F4F SWAP1 PUSH1 0x24 ADD PUSH1 0x20 PUSH1 0x40 MLOAD DUP1 DUP4 SUB DUP2 DUP7 GAS STATICCALL ISZERO DUP1 ISZERO PUSH2 0x664 JUMPI RETURNDATASIZE PUSH1 0x0 DUP1 RETURNDATACOPY RETURNDATASIZE PUSH1 0x0 REVERT JUMPDEST POP POP POP POP PUSH1 0x40 MLOAD RETURNDATASIZE PUSH1 0x1F NOT PUSH1 0x1F DUP3 ADD AND DUP3 ADD DUP1 PUSH1 0x40 MSTORE POP DUP2 ADD SWAP1 PUSH2 0x688 SWAP2 SWAP1 PUSH2 0x1D95 JUMP JUMPDEST SWAP1 POP PUSH1 0x0 PUSH2 0x766 DUP3 PUSH2 0x760 DUP6 PUSH1 0x1 PUSH1 0x1 PUSH1 0xA0 SHL SUB AND PUSH4 0x313CE567 PUSH1 0x40 MLOAD DUP2 PUSH4 0xFFFFFFFF AND PUSH1 0xE0 SHL DUP2 MSTORE PUSH1 0x4 ADD PUSH1 0x20 PUSH1 0x40 MLOAD DUP1 DUP4 SUB DUP2 DUP7 GAS STATICCALL ISZERO DUP1 ISZERO PUSH2 0x6D1 JUMPI RETURNDATASIZE PUSH1 0x0 DUP1 RETURNDATACOPY RETURNDATASIZE PUSH1 0x0 REVERT JUMPDEST POP POP POP POP PUSH1 0x40 MLOAD RETURNDATASIZE PUSH1 0x1F NOT PUSH1 0x1F DUP3 ADD AND DUP3 ADD DUP1 PUSH1 0x40 MSTORE POP DUP2 ADD SWAP1 PUSH2 0x6F5 SWAP2 SWAP1 PUSH2 0x1DAE JUMP JUMPDEST PUSH1 0x12 DUP9 PUSH1 0x1 PUSH1 0x1 PUSH1 0xA0 SHL SUB AND PUSH4 0x24A71A66 PUSH1 0x40 MLOAD DUP2 PUSH4 0xFFFFFFFF AND PUSH1 0xE0 SHL DUP2 MSTORE PUSH1 0x4 ADD PUSH1 0x20 PUSH1 0x40 MLOAD DUP1 DUP4 SUB DUP2 DUP7 GAS STATICCALL ISZERO DUP1 ISZERO PUSH2 0x735 JUMPI RETURNDATASIZE PUSH1 0x0 DUP1 RETURNDATACOPY RETURNDATASIZE PUSH1 0x0 REVERT JUMPDEST POP POP POP POP PUSH1 0x40 MLOAD RETURNDATASIZE PUSH1 0x1F NOT PUSH1 0x1F DUP3 ADD AND DUP3 ADD DUP1 PUSH1 0x40 MSTORE POP DUP2 ADD SWAP1 PUSH2 0x759 SWAP2 SWAP1 PUSH2 0x1D95 JUMP JUMPDEST SWAP2 SWAP1 PUSH2 0x1719 JUMP JUMPDEST SWAP1 PUSH2 0x1762 JUMP JUMPDEST SWAP1 POP PUSH2 0x772 DUP2 DUP11 PUSH2 0x1DE7 JUMP JUMPDEST SWAP9 POP DUP11 PUSH1 0x1 PUSH1 0x1 PUSH1 0xA0 SHL SUB AND DUP5 PUSH1 0x1 PUSH1 0x1 PUSH1 0xA0 SHL SUB AND SUB PUSH2 0x791 JUMPI DUP1 SWAP6 POP JUMPDEST POP POP POP POP JUMPDEST DUP1 PUSH2 0x7A0 DUP2 PUSH2 0x1DFA JUMP JUMPDEST SWAP2 POP POP PUSH2 0x4D3 JUMP JUMPDEST POP PUSH1 0x40 MLOAD PUSH4 0x8097354F PUSH1 0xE0 SHL DUP2 MSTORE PUSH1 0x1 PUSH1 0x1 PUSH1 0xA0 SHL SUB DUP8 DUP2 AND PUSH1 0x4 DUP4 ADD MSTORE PUSH32 0x0 AND SWAP1 PUSH4 0x8097354F SWAP1 PUSH1 0x24 ADD PUSH1 0x20 PUSH1 0x40 MLOAD DUP1 DUP4 SUB DUP2 DUP7 GAS STATICCALL ISZERO DUP1 ISZERO PUSH2 0x80F JUMPI RETURNDATASIZE PUSH1 0x0 DUP1 RETURNDATACOPY RETURNDATASIZE PUSH1 0x0 REVERT JUMPDEST POP POP POP POP PUSH1 0x40 MLOAD RETURNDATASIZE PUSH1 0x1F NOT PUSH1 0x1F DUP3 ADD AND DUP3 ADD DUP1 PUSH1 0x40 MSTORE POP DUP2 ADD SWAP1 PUSH2 0x833 SWAP2 SWAP1 PUSH2 0x1C55 JUMP JUMPDEST PUSH2 0x843 JUMPI PUSH1 0x0 SWAP5 POP POP POP POP SWAP2 POP SWAP2 JUMP JUMPDEST DUP4 ISZERO PUSH2 0x858 JUMPI PUSH2 0x853 DUP2 DUP6 PUSH2 0x1784 JUMP JUMPDEST PUSH2 0x870 JUMP JUMPDEST DUP2 MLOAD PUSH2 0x866 PUSH1 0x12 PUSH1 0xA PUSH2 0x1EF7 JUMP JUMPDEST PUSH2 0x870 SWAP2 SWAP1 PUSH2 0x1F03 JUMP JUMPDEST SWAP5 POP POP POP POP SWAP2 POP SWAP2 JUMP JUMPDEST PUSH1 0x40 MLOAD PUSH4 0x5B16EBB7 PUSH1 0xE0 SHL DUP2 MSTORE CALLER PUSH1 0x4 DUP3 ADD MSTORE PUSH32 0x0 PUSH1 0x1 PUSH1 0x1 PUSH1 0xA0 SHL SUB AND SWAP1 PUSH4 0x5B16EBB7 SWAP1 PUSH1 0x24 ADD PUSH1 0x20 PUSH1 0x40 MLOAD DUP1 DUP4 SUB DUP2 DUP7 GAS STATICCALL ISZERO DUP1 ISZERO PUSH2 0x8DE JUMPI RETURNDATASIZE PUSH1 0x0 DUP1 RETURNDATACOPY RETURNDATASIZE PUSH1 0x0 REVERT JUMPDEST POP POP POP POP PUSH1 0x40 MLOAD RETURNDATASIZE PUSH1 0x1F NOT PUSH1 0x1F DUP3 ADD AND DUP3 ADD DUP1 PUSH1 0x40 MSTORE POP DUP2 ADD SWAP1 PUSH2 0x902 SWAP2 SWAP1 PUSH2 0x1C55 JUMP JUMPDEST PUSH2 0x958 JUMPI PUSH1 0x40 MLOAD PUSH3 0x461BCD PUSH1 0xE5 SHL DUP2 MSTORE PUSH1 0x20 PUSH1 0x4 DUP3 ADD MSTORE PUSH1 0x21 PUSH1 0x24 DUP3 ADD MSTORE PUSH32 0x6F6E6C7920706F6F6C732063616E2063616C6C20746869732066756E6374696F PUSH1 0x44 DUP3 ADD MSTORE PUSH1 0x37 PUSH1 0xF9 SHL PUSH1 0x64 DUP3 ADD MSTORE PUSH1 0x84 ADD PUSH2 0x3B6 JUMP JUMPDEST PUSH1 0x0 JUMPDEST CALLER PUSH1 0x0 SWAP1 DUP2 MSTORE PUSH1 0x1 PUSH1 0x20 MSTORE PUSH1 0x40 SWAP1 KECCAK256 PUSH2 0x973 SWAP1 PUSH2 0x179D JUMP JUMPDEST DUP2 LT ISZERO PUSH2 0xA1A JUMPI CALLER PUSH1 0x0 SWAP1 DUP2 MSTORE PUSH1 0x1 PUSH1 0x20 MSTORE PUSH1 0x40 DUP2 KECCAK256 PUSH2 0x993 SWAP1 DUP4 PUSH2 0x17A7 JUMP JUMPDEST PUSH1 0x40 MLOAD PUSH4 0xF95878F5 PUSH1 0xE0 SHL DUP2 MSTORE CALLER PUSH1 0x4 DUP3 ADD MSTORE PUSH1 0x1 PUSH1 0x1 PUSH1 0xA0 SHL SUB DUP8 DUP2 AND PUSH1 0x24 DUP4 ADD MSTORE PUSH1 0x44 DUP3 ADD DUP8 SWAP1 MSTORE PUSH1 0x64 DUP3 ADD DUP7 SWAP1 MSTORE SWAP2 SWAP3 POP SWAP1 DUP3 AND SWAP1 PUSH4 0xF95878F5 SWAP1 PUSH1 0x84 ADD PUSH1 0x0 PUSH1 0x40 MLOAD DUP1 DUP4 SUB DUP2 PUSH1 0x0 DUP8 DUP1 EXTCODESIZE ISZERO DUP1 ISZERO PUSH2 0x9EE JUMPI PUSH1 0x0 DUP1 REVERT JUMPDEST POP GAS CALL ISZERO DUP1 ISZERO PUSH2 0xA02 JUMPI RETURNDATASIZE PUSH1 0x0 DUP1 RETURNDATACOPY RETURNDATASIZE PUSH1 0x0 REVERT JUMPDEST POP POP POP POP POP DUP1 DUP1 PUSH2 0xA12 SWAP1 PUSH2 0x1DFA JUMP JUMPDEST SWAP2 POP POP PUSH2 0x95B JUMP JUMPDEST POP POP POP POP JUMP JUMPDEST PUSH1 0x1 PUSH1 0x1 PUSH1 0xA0 SHL SUB DUP2 AND PUSH1 0x0 SWAP1 DUP2 MSTORE PUSH1 0x6 PUSH1 0x20 MSTORE PUSH1 0x40 DUP2 KECCAK256 SLOAD PUSH1 0x2 SLOAD PUSH2 0xA45 SWAP2 PUSH2 0x1762 JUMP JUMPDEST SWAP3 SWAP2 POP POP JUMP JUMPDEST PUSH1 0x0 DUP1 PUSH2 0xA56 PUSH2 0xF5D JUMP JUMPDEST POP SWAP2 POP SWAP2 POP PUSH1 0x0 DUP3 MLOAD SWAP1 POP PUSH1 0x0 PUSH32 0x0 PUSH1 0x1 PUSH1 0x1 PUSH1 0xA0 SHL SUB AND PUSH4 0x48439E7E PUSH1 0x40 MLOAD DUP2 PUSH4 0xFFFFFFFF AND PUSH1 0xE0 SHL DUP2 MSTORE PUSH1 0x4 ADD PUSH1 0x20 PUSH1 0x40 MLOAD DUP1 DUP4 SUB DUP2 DUP7 GAS STATICCALL ISZERO DUP1 ISZERO PUSH2 0xAC1 JUMPI RETURNDATASIZE PUSH1 0x0 DUP1 RETURNDATACOPY RETURNDATASIZE PUSH1 0x0 REVERT JUMPDEST POP POP POP POP PUSH1 0x40 MLOAD RETURNDATASIZE PUSH1 0x1F NOT PUSH1 0x1F DUP3 ADD AND DUP3 ADD DUP1 PUSH1 0x40 MSTORE POP DUP2 ADD SWAP1 PUSH2 0xAE5 SWAP2 SWAP1 PUSH2 0x1C77 JUMP JUMPDEST SWAP1 POP PUSH1 0x0 JUMPDEST DUP3 DUP2 LT ISZERO PUSH2 0xC8D JUMPI PUSH1 0x0 DUP6 DUP3 DUP2 MLOAD DUP2 LT PUSH2 0xB06 JUMPI PUSH2 0xB06 PUSH2 0x1D7F JUMP JUMPDEST PUSH1 0x20 MUL PUSH1 0x20 ADD ADD MLOAD SWAP1 POP DUP1 PUSH1 0x1 PUSH1 0x1 PUSH1 0xA0 SHL SUB AND PUSH4 0xF4EF8A6 PUSH1 0x40 MLOAD DUP2 PUSH4 0xFFFFFFFF AND PUSH1 0xE0 SHL DUP2 MSTORE PUSH1 0x4 ADD PUSH1 0x20 PUSH1 0x40 MLOAD DUP1 DUP4 SUB DUP2 DUP7 GAS STATICCALL ISZERO DUP1 ISZERO PUSH2 0xB4E JUMPI RETURNDATASIZE PUSH1 0x0 DUP1 RETURNDATACOPY RETURNDATASIZE PUSH1 0x0 REVERT JUMPDEST POP POP POP POP PUSH1 0x40 MLOAD RETURNDATASIZE PUSH1 0x1F NOT PUSH1 0x1F DUP3 ADD AND DUP3 ADD DUP1 PUSH1 0x40 MSTORE POP DUP2 ADD SWAP1 PUSH2 0xB72 SWAP2 SWAP1 PUSH2 0x1C77 JUMP JUMPDEST PUSH1 0x1 PUSH1 0x1 PUSH1 0xA0 SHL SUB AND PUSH4 0x5790A0C8 PUSH1 0x40 MLOAD DUP2 PUSH4 0xFFFFFFFF AND PUSH1 0xE0 SHL DUP2 MSTORE PUSH1 0x4 ADD PUSH1 0x20 PUSH1 0x40 MLOAD DUP1 DUP4 SUB DUP2 PUSH1 0x0 DUP8 GAS CALL ISZERO DUP1 ISZERO PUSH2 0xBB1 JUMPI RETURNDATASIZE PUSH1 0x0 DUP1 RETURNDATACOPY RETURNDATASIZE PUSH1 0x0 REVERT JUMPDEST POP POP POP POP PUSH1 0x40 MLOAD RETURNDATASIZE PUSH1 0x1F NOT PUSH1 0x1F DUP3 ADD AND DUP3 ADD DUP1 PUSH1 0x40 MSTORE POP DUP2 ADD SWAP1 PUSH2 0xBD5 SWAP2 SWAP1 PUSH2 0x1C55 JUMP JUMPDEST POP PUSH1 0x40 MLOAD PUSH4 0x54B94C2F PUSH1 0xE1 SHL DUP2 MSTORE PUSH1 0x1 PUSH1 0x1 PUSH1 0xA0 SHL SUB DUP3 DUP2 AND PUSH1 0x4 DUP4 ADD MSTORE DUP5 AND SWAP1 PUSH4 0xA972985E SWAP1 PUSH1 0x24 ADD PUSH1 0x20 PUSH1 0x40 MLOAD DUP1 DUP4 SUB DUP2 PUSH1 0x0 DUP8 GAS CALL ISZERO DUP1 ISZERO PUSH2 0xC1E JUMPI RETURNDATASIZE PUSH1 0x0 DUP1 RETURNDATACOPY RETURNDATASIZE PUSH1 0x0 REVERT JUMPDEST POP POP POP POP PUSH1 0x40 MLOAD RETURNDATASIZE PUSH1 0x1F NOT PUSH1 0x1F DUP3 ADD AND DUP3 ADD DUP1 PUSH1 0x40 MSTORE POP DUP2 ADD SWAP1 PUSH2 0xC42 SWAP2 SWAP1 PUSH2 0x1D95 JUMP JUMPDEST POP DUP5 DUP3 DUP2 MLOAD DUP2 LT PUSH2 0xC55 JUMPI PUSH2 0xC55 PUSH2 0x1D7F JUMP JUMPDEST PUSH1 0x20 SWAP1 DUP2 MUL SWAP2 SWAP1 SWAP2 ADD DUP2 ADD MLOAD PUSH1 0x1 PUSH1 0x1 PUSH1 0xA0 SHL SUB SWAP1 SWAP3 AND PUSH1 0x0 SWAP1 DUP2 MSTORE PUSH1 0x6 SWAP1 SWAP2 MSTORE PUSH1 0x40 SWAP1 KECCAK256 SSTORE DUP1 PUSH2 0xC85 DUP2 PUSH2 0x1DFA JUMP JUMPDEST SWAP2 POP POP PUSH2 0xAEA JUMP JUMPDEST POP PUSH1 0x40 MLOAD PUSH32 0xFB56001529302F12AFDFA225BA5AD5DA2D7D51B21709E2A2A8821F42B0E2CB56 SWAP1 PUSH1 0x0 SWAP1 LOG1 POP POP POP POP JUMP JUMPDEST PUSH2 0xCC5 PUSH2 0x17B3 JUMP JUMPDEST JUMP JUMPDEST PUSH1 0x0 SLOAD PUSH1 0x1 PUSH1 0x1 PUSH1 0xA0 SHL SUB AND CALLER EQ DUP1 PUSH2 0xD72 JUMPI POP PUSH32 0x0 PUSH1 0x1 PUSH1 0x1 PUSH1 0xA0 SHL SUB AND PUSH4 0x5E2F23CE PUSH1 0x40 MLOAD DUP2 PUSH4 0xFFFFFFFF AND PUSH1 0xE0 SHL DUP2 MSTORE PUSH1 0x4 ADD PUSH1 0x20 PUSH1 0x40 MLOAD DUP1 DUP4 SUB DUP2 DUP7 GAS STATICCALL ISZERO DUP1 ISZERO PUSH2 0xD39 JUMPI RETURNDATASIZE PUSH1 0x0 DUP1 RETURNDATACOPY RETURNDATASIZE PUSH1 0x0 REVERT JUMPDEST POP POP POP POP PUSH1 0x40 MLOAD RETURNDATASIZE PUSH1 0x1F NOT PUSH1 0x1F DUP3 ADD AND DUP3 ADD DUP1 PUSH1 0x40 MSTORE POP DUP2 ADD SWAP1 PUSH2 0xD5D SWAP2 SWAP1 PUSH2 0x1C77 JUMP JUMPDEST PUSH1 0x1 PUSH1 0x1 PUSH1 0xA0 SHL SUB AND CALLER PUSH1 0x1 PUSH1 0x1 PUSH1 0xA0 SHL SUB AND EQ JUMPDEST PUSH2 0xDBE JUMPI PUSH1 0x40 MLOAD PUSH3 0x461BCD PUSH1 0xE5 SHL DUP2 MSTORE PUSH1 0x20 PUSH1 0x4 DUP3 ADD MSTORE PUSH1 0x1E PUSH1 0x24 DUP3 ADD MSTORE PUSH32 0x6F6E6C79206F776E6572206F7220656D657267656E6379206D696E7465720000 PUSH1 0x44 DUP3 ADD MSTORE PUSH1 0x64 ADD PUSH2 0x3B6 JUMP JUMPDEST PUSH1 0x40 MLOAD PUSH4 0x5B16EBB7 PUSH1 0xE0 SHL DUP2 MSTORE PUSH1 0x1 PUSH1 0x1 PUSH1 0xA0 SHL SUB DUP4 DUP2 AND PUSH1 0x4 DUP4 ADD MSTORE PUSH32 0x0 AND SWAP1 PUSH4 0x5B16EBB7 SWAP1 PUSH1 0x24 ADD PUSH1 0x20 PUSH1 0x40 MLOAD DUP1 DUP4 SUB DUP2 DUP7 GAS STATICCALL ISZERO DUP1 ISZERO PUSH2 0xE24 JUMPI RETURNDATASIZE PUSH1 0x0 DUP1 RETURNDATACOPY RETURNDATASIZE PUSH1 0x0 REVERT JUMPDEST POP POP POP POP PUSH1 0x40 MLOAD RETURNDATASIZE PUSH1 0x1F NOT PUSH1 0x1F DUP3 ADD AND DUP3 ADD DUP1 PUSH1 0x40 MSTORE POP DUP2 ADD SWAP1 PUSH2 0xE48 SWAP2 SWAP1 PUSH2 0x1C55 JUMP JUMPDEST PUSH2 0xE83 JUMPI PUSH1 0x40 MLOAD PUSH3 0x461BCD PUSH1 0xE5 SHL DUP2 MSTORE PUSH1 0x20 PUSH1 0x4 DUP3 ADD MSTORE PUSH1 0xC PUSH1 0x24 DUP3 ADD MSTORE PUSH12 0x1A5B9D985B1A59081C1BDBDB PUSH1 0xA2 SHL PUSH1 0x44 DUP3 ADD MSTORE PUSH1 0x64 ADD PUSH2 0x3B6 JUMP JUMPDEST PUSH1 0x1 PUSH1 0x1 PUSH1 0xA0 SHL SUB DUP3 AND PUSH1 0x0 SWAP1 DUP2 MSTORE PUSH1 0x1 PUSH1 0x20 MSTORE PUSH1 0x40 SWAP1 KECCAK256 PUSH2 0xEA5 SWAP1 DUP3 PUSH2 0x17F1 JUMP JUMPDEST PUSH2 0xEE3 JUMPI PUSH1 0x40 MLOAD PUSH3 0x461BCD PUSH1 0xE5 SHL DUP2 MSTORE PUSH1 0x20 PUSH1 0x4 DUP3 ADD MSTORE PUSH1 0xF PUSH1 0x24 DUP3 ADD MSTORE PUSH15 0x1A185B991B195C881B9BDD081CD95D PUSH1 0x8A SHL PUSH1 0x44 DUP3 ADD MSTORE PUSH1 0x64 ADD PUSH2 0x3B6 JUMP JUMPDEST DUP1 PUSH1 0x1 PUSH1 0x1 PUSH1 0xA0 SHL SUB AND DUP3 PUSH1 0x1 PUSH1 0x1 PUSH1 0xA0 SHL SUB AND PUSH32 0x388F4B3EC4B4C3329F2EC4AD5434090B54FDEF42E3EFA2BB40E82136640ABC31 PUSH1 0x40 MLOAD PUSH1 0x40 MLOAD DUP1 SWAP2 SUB SWAP1 LOG3 POP POP JUMP JUMPDEST PUSH2 0xF2F PUSH2 0x1806 JUMP JUMPDEST PUSH2 0xCC5 PUSH1 0x0 PUSH2 0x1860 JUMP JUMPDEST PUSH1 0x1 PUSH1 0x1 PUSH1 0xA0 SHL SUB DUP2 AND PUSH1 0x0 SWAP1 DUP2 MSTORE PUSH1 0x1 PUSH1 0x20 MSTORE PUSH1 0x40 SWAP1 KECCAK256 PUSH1 0x60 SWAP1 PUSH2 0xA45 SWAP1 PUSH2 0x18B0 JUMP JUMPDEST PUSH1 0x60 DUP1 PUSH1 0x0 DUP1 PUSH32 0x0 PUSH1 0x1 PUSH1 0x1 PUSH1 0xA0 SHL SUB AND PUSH4 0x2630C12F PUSH1 0x40 MLOAD DUP2 PUSH4 0xFFFFFFFF AND PUSH1 0xE0 SHL DUP2 MSTORE PUSH1 0x4 ADD PUSH1 0x20 PUSH1 0x40 MLOAD DUP1 DUP4 SUB DUP2 DUP7 GAS STATICCALL ISZERO DUP1 ISZERO PUSH2 0xFC1 JUMPI RETURNDATASIZE PUSH1 0x0 DUP1 RETURNDATACOPY RETURNDATASIZE PUSH1 0x0 REVERT JUMPDEST POP POP POP POP PUSH1 0x40 MLOAD RETURNDATASIZE PUSH1 0x1F NOT PUSH1 0x1F DUP3 ADD AND DUP3 ADD DUP1 PUSH1 0x40 MSTORE POP DUP2 ADD SWAP1 PUSH2 0xFE5 SWAP2 SWAP1 PUSH2 0x1C77 JUMP JUMPDEST SWAP1 POP PUSH32 0x0 PUSH1 0x1 PUSH1 0x1 PUSH1 0xA0 SHL SUB AND PUSH4 0x68795862 PUSH1 0x40 MLOAD DUP2 PUSH4 0xFFFFFFFF AND PUSH1 0xE0 SHL DUP2 MSTORE PUSH1 0x4 ADD PUSH1 0x0 PUSH1 0x40 MLOAD DUP1 DUP4 SUB DUP2 DUP7 GAS STATICCALL ISZERO DUP1 ISZERO PUSH2 0x1045 JUMPI RETURNDATASIZE PUSH1 0x0 DUP1 RETURNDATACOPY RETURNDATASIZE PUSH1 0x0 REVERT JUMPDEST POP POP POP POP PUSH1 0x40 MLOAD RETURNDATASIZE PUSH1 0x0 DUP3 RETURNDATACOPY PUSH1 0x1F RETURNDATASIZE SWAP1 DUP2 ADD PUSH1 0x1F NOT AND DUP3 ADD PUSH1 0x40 MSTORE PUSH2 0x106D SWAP2 SWAP1 DUP2 ADD SWAP1 PUSH2 0x1CBA JUMP JUMPDEST SWAP4 POP PUSH1 0x0 DUP5 MLOAD PUSH8 0xFFFFFFFFFFFFFFFF DUP2 GT ISZERO PUSH2 0x108B JUMPI PUSH2 0x108B PUSH2 0x1C94 JUMP JUMPDEST PUSH1 0x40 MLOAD SWAP1 DUP1 DUP3 MSTORE DUP1 PUSH1 0x20 MUL PUSH1 0x20 ADD DUP3 ADD PUSH1 0x40 MSTORE DUP1 ISZERO PUSH2 0x10B4 JUMPI DUP2 PUSH1 0x20 ADD PUSH1 0x20 DUP3 MUL DUP1 CALLDATASIZE DUP4 CALLDATACOPY ADD SWAP1 POP JUMPDEST POP SWAP1 POP PUSH1 0x0 JUMPDEST DUP6 MLOAD DUP2 LT ISZERO PUSH2 0x12FB JUMPI PUSH32 0x0 PUSH1 0x1 PUSH1 0x1 PUSH1 0xA0 SHL SUB AND PUSH4 0x8097354F DUP8 DUP4 DUP2 MLOAD DUP2 LT PUSH2 0x1104 JUMPI PUSH2 0x1104 PUSH2 0x1D7F JUMP JUMPDEST PUSH1 0x20 MUL PUSH1 0x20 ADD ADD MLOAD PUSH1 0x40 MLOAD DUP3 PUSH4 0xFFFFFFFF AND PUSH1 0xE0 SHL DUP2 MSTORE PUSH1 0x4 ADD PUSH2 0x1137 SWAP2 SWAP1 PUSH1 0x1 PUSH1 0x1 PUSH1 0xA0 SHL SUB SWAP2 SWAP1 SWAP2 AND DUP2 MSTORE PUSH1 0x20 ADD SWAP1 JUMP JUMPDEST PUSH1 0x20 PUSH1 0x40 MLOAD DUP1 DUP4 SUB DUP2 DUP7 GAS STATICCALL ISZERO DUP1 ISZERO PUSH2 0x1154 JUMPI RETURNDATASIZE PUSH1 0x0 DUP1 RETURNDATACOPY RETURNDATASIZE PUSH1 0x0 REVERT JUMPDEST POP POP POP POP PUSH1 0x40 MLOAD RETURNDATASIZE PUSH1 0x1F NOT PUSH1 0x1F DUP3 ADD AND DUP3 ADD DUP1 PUSH1 0x40 MSTORE POP DUP2 ADD SWAP1 PUSH2 0x1178 SWAP2 SWAP1 PUSH2 0x1C55 JUMP JUMPDEST ISZERO PUSH2 0x12E9 JUMPI PUSH1 0x0 DUP7 DUP3 DUP2 MLOAD DUP2 LT PUSH2 0x1191 JUMPI PUSH2 0x1191 PUSH2 0x1D7F JUMP JUMPDEST PUSH1 0x20 MUL PUSH1 0x20 ADD ADD MLOAD SWAP1 POP PUSH1 0x0 DUP2 PUSH1 0x1 PUSH1 0x1 PUSH1 0xA0 SHL SUB AND PUSH4 0x6F307DC3 PUSH1 0x40 MLOAD DUP2 PUSH4 0xFFFFFFFF AND PUSH1 0xE0 SHL DUP2 MSTORE PUSH1 0x4 ADD PUSH1 0x20 PUSH1 0x40 MLOAD DUP1 DUP4 SUB DUP2 DUP7 GAS STATICCALL ISZERO DUP1 ISZERO PUSH2 0x11DB JUMPI RETURNDATASIZE PUSH1 0x0 DUP1 RETURNDATACOPY RETURNDATASIZE PUSH1 0x0 REVERT JUMPDEST POP POP POP POP PUSH1 0x40 MLOAD RETURNDATASIZE PUSH1 0x1F NOT PUSH1 0x1F DUP3 ADD AND DUP3 ADD DUP1 PUSH1 0x40 MSTORE POP DUP2 ADD SWAP1 PUSH2 0x11FF SWAP2 SWAP1 PUSH2 0x1C77 JUMP JUMPDEST PUSH1 0x40 MLOAD PUSH4 0x8B2F0F4F PUSH1 0xE0 SHL DUP2 MSTORE PUSH1 0x1 PUSH1 0x1 PUSH1 0xA0 SHL SUB DUP1 DUP4 AND PUSH1 0x4 DUP4 ADD MSTORE SWAP2 SWAP3 POP PUSH1 0x0 SWAP2 DUP8 AND SWAP1 PUSH4 0x8B2F0F4F SWAP1 PUSH1 0x24 ADD PUSH1 0x20 PUSH1 0x40 MLOAD DUP1 DUP4 SUB DUP2 DUP7 GAS STATICCALL ISZERO DUP1 ISZERO PUSH2 0x124B JUMPI RETURNDATASIZE PUSH1 0x0 DUP1 RETURNDATACOPY RETURNDATASIZE PUSH1 0x0 REVERT JUMPDEST POP POP POP POP PUSH1 0x40 MLOAD RETURNDATASIZE PUSH1 0x1F NOT PUSH1 0x1F DUP3 ADD AND DUP3 ADD DUP1 PUSH1 0x40 MSTORE POP DUP2 ADD SWAP1 PUSH2 0x126F SWAP2 SWAP1 PUSH2 0x1D95 JUMP JUMPDEST SWAP1 POP PUSH1 0x0 PUSH2 0x12B8 DUP3 PUSH2 0x760 DUP6 PUSH1 0x1 PUSH1 0x1 PUSH1 0xA0 SHL SUB AND PUSH4 0x313CE567 PUSH1 0x40 MLOAD DUP2 PUSH4 0xFFFFFFFF AND PUSH1 0xE0 SHL DUP2 MSTORE PUSH1 0x4 ADD PUSH1 0x20 PUSH1 0x40 MLOAD DUP1 DUP4 SUB DUP2 DUP7 GAS STATICCALL ISZERO DUP1 ISZERO PUSH2 0x6D1 JUMPI RETURNDATASIZE PUSH1 0x0 DUP1 RETURNDATACOPY RETURNDATASIZE PUSH1 0x0 REVERT JUMPDEST SWAP1 POP DUP1 DUP7 DUP7 DUP2 MLOAD DUP2 LT PUSH2 0x12CD JUMPI PUSH2 0x12CD PUSH2 0x1D7F JUMP JUMPDEST PUSH1 0x20 SWAP1 DUP2 MUL SWAP2 SWAP1 SWAP2 ADD ADD MSTORE PUSH2 0x12E2 DUP2 DUP10 PUSH2 0x1DE7 JUMP JUMPDEST SWAP8 POP POP POP POP POP JUMPDEST DUP1 PUSH2 0x12F3 DUP2 PUSH2 0x1DFA JUMP JUMPDEST SWAP2 POP POP PUSH2 0x10BA JUMP JUMPDEST POP DUP5 MLOAD PUSH8 0xFFFFFFFFFFFFFFFF DUP2 GT ISZERO PUSH2 0x1316 JUMPI PUSH2 0x1316 PUSH2 0x1C94 JUMP JUMPDEST PUSH1 0x40 MLOAD SWAP1 DUP1 DUP3 MSTORE DUP1 PUSH1 0x20 MUL PUSH1 0x20 ADD DUP3 ADD PUSH1 0x40 MSTORE DUP1 ISZERO PUSH2 0x133F JUMPI DUP2 PUSH1 0x20 ADD PUSH1 0x20 DUP3 MUL DUP1 CALLDATASIZE DUP4 CALLDATACOPY ADD SWAP1 POP JUMPDEST POP SWAP4 POP DUP3 PUSH1 0x0 SUB PUSH2 0x13A3 JUMPI PUSH1 0x0 JUMPDEST DUP6 MLOAD DUP2 LT ISZERO PUSH2 0x139D JUMPI DUP6 MLOAD PUSH2 0x1364 PUSH1 0x12 PUSH1 0xA PUSH2 0x1EF7 JUMP JUMPDEST PUSH2 0x136E SWAP2 SWAP1 PUSH2 0x1F03 JUMP JUMPDEST DUP6 DUP3 DUP2 MLOAD DUP2 LT PUSH2 0x1380 JUMPI PUSH2 0x1380 PUSH2 0x1D7F JUMP JUMPDEST PUSH1 0x20 SWAP1 DUP2 MUL SWAP2 SWAP1 SWAP2 ADD ADD MSTORE DUP1 PUSH2 0x1395 DUP2 PUSH2 0x1DFA JUMP JUMPDEST SWAP2 POP POP PUSH2 0x134D JUMP JUMPDEST POP PUSH2 0x140C JUMP JUMPDEST PUSH1 0x0 JUMPDEST DUP6 MLOAD DUP2 LT ISZERO PUSH2 0x140A JUMPI PUSH2 0x13DB DUP5 DUP4 DUP4 DUP2 MLOAD DUP2 LT PUSH2 0x13C5 JUMPI PUSH2 0x13C5 PUSH2 0x1D7F JUMP JUMPDEST PUSH1 0x20 MUL PUSH1 0x20 ADD ADD MLOAD PUSH2 0x1784 SWAP1 SWAP2 SWAP1 PUSH4 0xFFFFFFFF AND JUMP JUMPDEST DUP6 DUP3 DUP2 MLOAD DUP2 LT PUSH2 0x13ED JUMPI PUSH2 0x13ED PUSH2 0x1D7F JUMP JUMPDEST PUSH1 0x20 SWAP1 DUP2 MUL SWAP2 SWAP1 SWAP2 ADD ADD MSTORE DUP1 PUSH2 0x1402 DUP2 PUSH2 0x1DFA JUMP JUMPDEST SWAP2 POP POP PUSH2 0x13A6 JUMP JUMPDEST POP JUMPDEST POP POP SWAP1 SWAP2 SWAP3 JUMP JUMPDEST PUSH1 0x1 PUSH1 0x1 PUSH1 0xA0 SHL SUB DUP3 AND PUSH1 0x0 SWAP1 DUP2 MSTORE PUSH1 0x1 PUSH1 0x20 MSTORE PUSH1 0x40 DUP2 KECCAK256 PUSH2 0x1435 SWAP1 DUP4 PUSH2 0x18BD JUMP JUMPDEST SWAP4 SWAP3 POP POP POP JUMP JUMPDEST PUSH1 0x0 SLOAD PUSH1 0x1 PUSH1 0x1 PUSH1 0xA0 SHL SUB AND CALLER EQ DUP1 PUSH2 0x14E7 JUMPI POP PUSH32 0x0 PUSH1 0x1 PUSH1 0x1 PUSH1 0xA0 SHL SUB AND PUSH4 0x5E2F23CE PUSH1 0x40 MLOAD DUP2 PUSH4 0xFFFFFFFF AND PUSH1 0xE0 SHL DUP2 MSTORE PUSH1 0x4 ADD PUSH1 0x20 PUSH1 0x40 MLOAD DUP1 DUP4 SUB DUP2 DUP7 GAS STATICCALL ISZERO DUP1 ISZERO PUSH2 0x14AE JUMPI RETURNDATASIZE PUSH1 0x0 DUP1 RETURNDATACOPY RETURNDATASIZE PUSH1 0x0 REVERT JUMPDEST POP POP POP POP PUSH1 0x40 MLOAD RETURNDATASIZE PUSH1 0x1F NOT PUSH1 0x1F DUP3 ADD AND DUP3 ADD DUP1 PUSH1 0x40 MSTORE POP DUP2 ADD SWAP1 PUSH2 0x14D2 SWAP2 SWAP1 PUSH2 0x1C77 JUMP JUMPDEST PUSH1 0x1 PUSH1 0x1 PUSH1 0xA0 SHL SUB AND CALLER PUSH1 0x1 PUSH1 0x1 PUSH1 0xA0 SHL SUB AND EQ JUMPDEST PUSH2 0x1533 JUMPI PUSH1 0x40 MLOAD PUSH3 0x461BCD PUSH1 0xE5 SHL DUP2 MSTORE PUSH1 0x20 PUSH1 0x4 DUP3 ADD MSTORE PUSH1 0x1E PUSH1 0x24 DUP3 ADD MSTORE PUSH32 0x6F6E6C79206F776E6572206F7220656D657267656E6379206D696E7465720000 PUSH1 0x44 DUP3 ADD MSTORE PUSH1 0x64 ADD PUSH2 0x3B6 JUMP JUMPDEST PUSH1 0x40 MLOAD PUSH4 0x5B16EBB7 PUSH1 0xE0 SHL DUP2 MSTORE PUSH1 0x1 PUSH1 0x1 PUSH1 0xA0 SHL SUB DUP4 DUP2 AND PUSH1 0x4 DUP4 ADD MSTORE PUSH32 0x0 AND SWAP1 PUSH4 0x5B16EBB7 SWAP1 PUSH1 0x24 ADD PUSH1 0x20 PUSH1 0x40 MLOAD DUP1 DUP4 SUB DUP2 DUP7 GAS STATICCALL ISZERO DUP1 ISZERO PUSH2 0x1599 JUMPI RETURNDATASIZE PUSH1 0x0 DUP1 RETURNDATACOPY RETURNDATASIZE PUSH1 0x0 REVERT JUMPDEST POP POP POP POP PUSH1 0x40 MLOAD RETURNDATASIZE PUSH1 0x1F NOT PUSH1 0x1F DUP3 ADD AND DUP3 ADD DUP1 PUSH1 0x40 MSTORE POP DUP2 ADD SWAP1 PUSH2 0x15BD SWAP2 SWAP1 PUSH2 0x1C55 JUMP JUMPDEST PUSH2 0x15F8 JUMPI PUSH1 0x40 MLOAD PUSH3 0x461BCD PUSH1 0xE5 SHL DUP2 MSTORE PUSH1 0x20 PUSH1 0x4 DUP3 ADD MSTORE PUSH1 0xC PUSH1 0x24 DUP3 ADD MSTORE PUSH12 0x1A5B9D985B1A59081C1BDBDB PUSH1 0xA2 SHL PUSH1 0x44 DUP3 ADD MSTORE PUSH1 0x64 ADD PUSH2 0x3B6 JUMP JUMPDEST PUSH1 0x1 PUSH1 0x1 PUSH1 0xA0 SHL SUB DUP3 AND PUSH1 0x0 SWAP1 DUP2 MSTORE PUSH1 0x1 PUSH1 0x20 MSTORE PUSH1 0x40 SWAP1 KECCAK256 PUSH2 0x161A SWAP1 DUP3 PUSH2 0x18DF JUMP JUMPDEST PUSH2 0x165C JUMPI PUSH1 0x40 MLOAD PUSH3 0x461BCD PUSH1 0xE5 SHL DUP2 MSTORE PUSH1 0x20 PUSH1 0x4 DUP3 ADD MSTORE PUSH1 0x13 PUSH1 0x24 DUP3 ADD MSTORE PUSH19 0x1A185B991B195C88185B1C9958591E481CD95D PUSH1 0x6A SHL PUSH1 0x44 DUP3 ADD MSTORE PUSH1 0x64 ADD PUSH2 0x3B6 JUMP JUMPDEST DUP1 PUSH1 0x1 PUSH1 0x1 PUSH1 0xA0 SHL SUB AND DUP3 PUSH1 0x1 PUSH1 0x1 PUSH1 0xA0 SHL SUB AND PUSH32 0xC2892F3AA5A025EFDF54A8A5B3EF7397FC15169328547915B9B5825A8C33E05F PUSH1 0x40 MLOAD PUSH1 0x40 MLOAD DUP1 SWAP2 SUB SWAP1 LOG3 POP POP JUMP JUMPDEST PUSH2 0x16A8 PUSH2 0x1806 JUMP JUMPDEST PUSH1 0x1 PUSH1 0x1 PUSH1 0xA0 SHL SUB DUP2 AND PUSH2 0x170D JUMPI PUSH1 0x40 MLOAD PUSH3 0x461BCD PUSH1 0xE5 SHL DUP2 MSTORE PUSH1 0x20 PUSH1 0x4 DUP3 ADD MSTORE PUSH1 0x26 PUSH1 0x24 DUP3 ADD MSTORE PUSH32 0x4F776E61626C653A206E6577206F776E657220697320746865207A65726F2061 PUSH1 0x44 DUP3 ADD MSTORE PUSH6 0x646472657373 PUSH1 0xD0 SHL PUSH1 0x64 DUP3 ADD MSTORE PUSH1 0x84 ADD PUSH2 0x3B6 JUMP JUMPDEST PUSH2 0x1716 DUP2 PUSH2 0x1860 JUMP JUMPDEST POP JUMP JUMPDEST PUSH1 0x0 DUP2 PUSH1 0xFF AND DUP4 PUSH1 0xFF AND SUB PUSH2 0x172F JUMPI POP DUP3 PUSH2 0x1435 JUMP JUMPDEST DUP2 PUSH1 0xFF AND DUP4 PUSH1 0xFF AND GT ISZERO PUSH2 0x174F JUMPI PUSH2 0x1748 DUP5 DUP5 DUP5 PUSH2 0x18F4 JUMP JUMPDEST SWAP1 POP PUSH2 0x1435 JUMP JUMPDEST PUSH2 0x175A DUP5 DUP5 DUP5 PUSH2 0x1915 JUMP JUMPDEST SWAP5 SWAP4 POP POP POP POP JUMP JUMPDEST PUSH1 0x0 PUSH2 0x1770 PUSH1 0x12 PUSH1 0xA PUSH2 0x1EF7 JUMP JUMPDEST PUSH2 0x177A DUP4 DUP6 PUSH2 0x1F25 JUMP JUMPDEST PUSH2 0x1435 SWAP2 SWAP1 PUSH2 0x1F03 JUMP JUMPDEST PUSH1 0x0 DUP2 PUSH2 0x1793 PUSH1 0x12 PUSH1 0xA PUSH2 0x1EF7 JUMP JUMPDEST PUSH2 0x177A SWAP1 DUP6 PUSH2 0x1F25 JUMP JUMPDEST PUSH1 0x0 PUSH2 0xA45 DUP3 SLOAD SWAP1 JUMP JUMPDEST PUSH1 0x0 PUSH2 0x1435 DUP4 DUP4 PUSH2 0x1936 JUMP JUMPDEST PUSH4 0x1E13380 PUSH1 0x3 SLOAD PUSH2 0x17C5 SWAP2 SWAP1 PUSH2 0x1DE7 JUMP JUMPDEST TIMESTAMP LT PUSH2 0xCC5 JUMPI PUSH2 0x17D3 PUSH2 0xA4B JUMP JUMPDEST PUSH1 0x2 SLOAD PUSH2 0x17E8 SWAP1 PUSH8 0x58D15CA2DB11800 PUSH2 0x1762 JUMP JUMPDEST PUSH1 0x2 SSTORE TIMESTAMP PUSH1 0x3 SSTORE JUMP JUMPDEST PUSH1 0x0 PUSH2 0x1435 DUP4 PUSH1 0x1 PUSH1 0x1 PUSH1 0xA0 SHL SUB DUP5 AND PUSH2 0x1960 JUMP JUMPDEST PUSH1 0x0 SLOAD PUSH1 0x1 PUSH1 0x1 PUSH1 0xA0 SHL SUB AND CALLER EQ PUSH2 0xCC5 JUMPI PUSH1 0x40 MLOAD PUSH3 0x461BCD PUSH1 0xE5 SHL DUP2 MSTORE PUSH1 0x20 PUSH1 0x4 DUP3 ADD DUP2 SWAP1 MSTORE PUSH1 0x24 DUP3 ADD MSTORE PUSH32 0x4F776E61626C653A2063616C6C6572206973206E6F7420746865206F776E6572 PUSH1 0x44 DUP3 ADD MSTORE PUSH1 0x64 ADD PUSH2 0x3B6 JUMP JUMPDEST PUSH1 0x0 DUP1 SLOAD PUSH1 0x1 PUSH1 0x1 PUSH1 0xA0 SHL SUB DUP4 DUP2 AND PUSH1 0x1 PUSH1 0x1 PUSH1 0xA0 SHL SUB NOT DUP4 AND DUP2 OR DUP5 SSTORE PUSH1 0x40 MLOAD SWAP2 SWAP1 SWAP3 AND SWAP3 DUP4 SWAP2 PUSH32 0x8BE0079C531659141344CD1FD0A4F28419497F9722A3DAAFE3B4186F6B6457E0 SWAP2 SWAP1 LOG3 POP POP JUMP JUMPDEST PUSH1 0x60 PUSH1 0x0 PUSH2 0x1435 DUP4 PUSH2 0x1A53 JUMP JUMPDEST PUSH1 0x1 PUSH1 0x1 PUSH1 0xA0 SHL SUB DUP2 AND PUSH1 0x0 SWAP1 DUP2 MSTORE PUSH1 0x1 DUP4 ADD PUSH1 0x20 MSTORE PUSH1 0x40 DUP2 KECCAK256 SLOAD ISZERO ISZERO PUSH2 0x1435 JUMP JUMPDEST PUSH1 0x0 PUSH2 0x1435 DUP4 PUSH1 0x1 PUSH1 0x1 PUSH1 0xA0 SHL SUB DUP5 AND PUSH2 0x1AAF JUMP JUMPDEST PUSH1 0x0 PUSH2 0x1900 DUP3 DUP5 PUSH2 0x1F3C JUMP JUMPDEST PUSH2 0x190B SWAP1 PUSH1 0xA PUSH2 0x1F55 JUMP JUMPDEST PUSH2 0x175A SWAP1 DUP6 PUSH2 0x1F03 JUMP JUMPDEST PUSH1 0x0 PUSH2 0x1921 DUP4 DUP4 PUSH2 0x1F3C JUMP JUMPDEST PUSH2 0x192C SWAP1 PUSH1 0xA PUSH2 0x1F55 JUMP JUMPDEST PUSH2 0x175A SWAP1 DUP6 PUSH2 0x1F25 JUMP JUMPDEST PUSH1 0x0 DUP3 PUSH1 0x0 ADD DUP3 DUP2 SLOAD DUP2 LT PUSH2 0x194D JUMPI PUSH2 0x194D PUSH2 0x1D7F JUMP JUMPDEST SWAP1 PUSH1 0x0 MSTORE PUSH1 0x20 PUSH1 0x0 KECCAK256 ADD SLOAD SWAP1 POP SWAP3 SWAP2 POP POP JUMP JUMPDEST PUSH1 0x0 DUP2 DUP2 MSTORE PUSH1 0x1 DUP4 ADD PUSH1 0x20 MSTORE PUSH1 0x40 DUP2 KECCAK256 SLOAD DUP1 ISZERO PUSH2 0x1A49 JUMPI PUSH1 0x0 PUSH2 0x1984 PUSH1 0x1 DUP4 PUSH2 0x1F64 JUMP JUMPDEST DUP6 SLOAD SWAP1 SWAP2 POP PUSH1 0x0 SWAP1 PUSH2 0x1998 SWAP1 PUSH1 0x1 SWAP1 PUSH2 0x1F64 JUMP JUMPDEST SWAP1 POP DUP2 DUP2 EQ PUSH2 0x19FD JUMPI PUSH1 0x0 DUP7 PUSH1 0x0 ADD DUP3 DUP2 SLOAD DUP2 LT PUSH2 0x19B8 JUMPI PUSH2 0x19B8 PUSH2 0x1D7F JUMP JUMPDEST SWAP1 PUSH1 0x0 MSTORE PUSH1 0x20 PUSH1 0x0 KECCAK256 ADD SLOAD SWAP1 POP DUP1 DUP8 PUSH1 0x0 ADD DUP5 DUP2 SLOAD DUP2 LT PUSH2 0x19DB JUMPI PUSH2 0x19DB PUSH2 0x1D7F JUMP JUMPDEST PUSH1 0x0 SWAP2 DUP3 MSTORE PUSH1 0x20 DUP1 DUP4 KECCAK256 SWAP1 SWAP2 ADD SWAP3 SWAP1 SWAP3 SSTORE SWAP2 DUP3 MSTORE PUSH1 0x1 DUP9 ADD SWAP1 MSTORE PUSH1 0x40 SWAP1 KECCAK256 DUP4 SWAP1 SSTORE JUMPDEST DUP6 SLOAD DUP7 SWAP1 DUP1 PUSH2 0x1A0E JUMPI PUSH2 0x1A0E PUSH2 0x1F77 JUMP JUMPDEST PUSH1 0x1 SWAP1 SUB DUP2 DUP2 SWAP1 PUSH1 0x0 MSTORE PUSH1 0x20 PUSH1 0x0 KECCAK256 ADD PUSH1 0x0 SWAP1 SSTORE SWAP1 SSTORE DUP6 PUSH1 0x1 ADD PUSH1 0x0 DUP7 DUP2 MSTORE PUSH1 0x20 ADD SWAP1 DUP2 MSTORE PUSH1 0x20 ADD PUSH1 0x0 KECCAK256 PUSH1 0x0 SWAP1 SSTORE PUSH1 0x1 SWAP4 POP POP POP POP PUSH2 0xA45 JUMP JUMPDEST PUSH1 0x0 SWAP2 POP POP PUSH2 0xA45 JUMP JUMPDEST PUSH1 0x60 DUP2 PUSH1 0x0 ADD DUP1 SLOAD DUP1 PUSH1 0x20 MUL PUSH1 0x20 ADD PUSH1 0x40 MLOAD SWAP1 DUP2 ADD PUSH1 0x40 MSTORE DUP1 SWAP3 SWAP2 SWAP1 DUP2 DUP2 MSTORE PUSH1 0x20 ADD DUP3 DUP1 SLOAD DUP1 ISZERO PUSH2 0x1AA3 JUMPI PUSH1 0x20 MUL DUP3 ADD SWAP2 SWAP1 PUSH1 0x0 MSTORE PUSH1 0x20 PUSH1 0x0 KECCAK256 SWAP1 JUMPDEST DUP2 SLOAD DUP2 MSTORE PUSH1 0x20 ADD SWAP1 PUSH1 0x1 ADD SWAP1 DUP1 DUP4 GT PUSH2 0x1A8F JUMPI JUMPDEST POP POP POP POP POP SWAP1 POP SWAP2 SWAP1 POP JUMP JUMPDEST PUSH1 0x0 DUP2 DUP2 MSTORE PUSH1 0x1 DUP4 ADD PUSH1 0x20 MSTORE PUSH1 0x40 DUP2 KECCAK256 SLOAD PUSH2 0x1AF6 JUMPI POP DUP2 SLOAD PUSH1 0x1 DUP2 DUP2 ADD DUP5 SSTORE PUSH1 0x0 DUP5 DUP2 MSTORE PUSH1 0x20 DUP1 DUP3 KECCAK256 SWAP1 SWAP4 ADD DUP5 SWAP1 SSTORE DUP5 SLOAD DUP5 DUP3 MSTORE DUP3 DUP7 ADD SWAP1 SWAP4 MSTORE PUSH1 0x40 SWAP1 KECCAK256 SWAP2 SWAP1 SWAP2 SSTORE PUSH2 0xA45 JUMP JUMPDEST POP PUSH1 0x0 PUSH2 0xA45 JUMP JUMPDEST PUSH1 0x1 PUSH1 0x1 PUSH1 0xA0 SHL SUB DUP2 AND DUP2 EQ PUSH2 0x1716 JUMPI PUSH1 0x0 DUP1 REVERT JUMPDEST PUSH1 0x0 PUSH1 0x20 DUP3 DUP5 SUB SLT ISZERO PUSH2 0x1B25 JUMPI PUSH1 0x0 DUP1 REVERT JUMPDEST DUP2 CALLDATALOAD PUSH2 0x1435 DUP2 PUSH2 0x1AFE JUMP JUMPDEST PUSH1 0x0 DUP1 PUSH1 0x0 PUSH1 0x60 DUP5 DUP7 SUB SLT ISZERO PUSH2 0x1B45 JUMPI PUSH1 0x0 DUP1 REVERT JUMPDEST DUP4 CALLDATALOAD PUSH2 0x1B50 DUP2 PUSH2 0x1AFE JUMP JUMPDEST SWAP6 PUSH1 0x20 DUP6 ADD CALLDATALOAD SWAP6 POP PUSH1 0x40 SWAP1 SWAP5 ADD CALLDATALOAD SWAP4 SWAP3 POP POP POP JUMP JUMPDEST PUSH1 0x0 DUP1 PUSH1 0x40 DUP4 DUP6 SUB SLT ISZERO PUSH2 0x1B78 JUMPI PUSH1 0x0 DUP1 REVERT JUMPDEST DUP3 CALLDATALOAD PUSH2 0x1B83 DUP2 PUSH2 0x1AFE JUMP JUMPDEST SWAP2 POP PUSH1 0x20 DUP4 ADD CALLDATALOAD PUSH2 0x1B93 DUP2 PUSH2 0x1AFE JUMP JUMPDEST DUP1 SWAP2 POP POP SWAP3 POP SWAP3 SWAP1 POP JUMP JUMPDEST PUSH1 0x0 DUP2 MLOAD DUP1 DUP5 MSTORE PUSH1 0x20 DUP1 DUP6 ADD SWAP5 POP DUP1 DUP5 ADD PUSH1 0x0 JUMPDEST DUP4 DUP2 LT ISZERO PUSH2 0x1BD7 JUMPI DUP2 MLOAD PUSH1 0x1 PUSH1 0x1 PUSH1 0xA0 SHL SUB AND DUP8 MSTORE SWAP6 DUP3 ADD SWAP6 SWAP1 DUP3 ADD SWAP1 PUSH1 0x1 ADD PUSH2 0x1BB2 JUMP JUMPDEST POP SWAP5 SWAP6 SWAP5 POP POP POP POP POP JUMP JUMPDEST PUSH1 0x20 DUP2 MSTORE PUSH1 0x0 PUSH2 0x1435 PUSH1 0x20 DUP4 ADD DUP5 PUSH2 0x1B9E JUMP JUMPDEST PUSH1 0x60 DUP2 MSTORE PUSH1 0x0 PUSH2 0x1C08 PUSH1 0x60 DUP4 ADD DUP7 PUSH2 0x1B9E JUMP JUMPDEST DUP3 DUP2 SUB PUSH1 0x20 DUP5 DUP2 ADD SWAP2 SWAP1 SWAP2 MSTORE DUP6 MLOAD DUP1 DUP4 MSTORE DUP7 DUP3 ADD SWAP3 DUP3 ADD SWAP1 PUSH1 0x0 JUMPDEST DUP2 DUP2 LT ISZERO PUSH2 0x1C3F JUMPI DUP5 MLOAD DUP4 MSTORE SWAP4 DUP4 ADD SWAP4 SWAP2 DUP4 ADD SWAP2 PUSH1 0x1 ADD PUSH2 0x1C23 JUMP JUMPDEST POP POP DUP1 SWAP4 POP POP POP POP DUP3 PUSH1 0x40 DUP4 ADD MSTORE SWAP5 SWAP4 POP POP POP POP JUMP JUMPDEST PUSH1 0x0 PUSH1 0x20 DUP3 DUP5 SUB SLT ISZERO PUSH2 0x1C67 JUMPI PUSH1 0x0 DUP1 REVERT JUMPDEST DUP2 MLOAD DUP1 ISZERO ISZERO DUP2 EQ PUSH2 0x1435 JUMPI PUSH1 0x0 DUP1 REVERT JUMPDEST PUSH1 0x0 PUSH1 0x20 DUP3 DUP5 SUB SLT ISZERO PUSH2 0x1C89 JUMPI PUSH1 0x0 DUP1 REVERT JUMPDEST DUP2 MLOAD PUSH2 0x1435 DUP2 PUSH2 0x1AFE JUMP JUMPDEST PUSH4 0x4E487B71 PUSH1 0xE0 SHL PUSH1 0x0 MSTORE PUSH1 0x41 PUSH1 0x4 MSTORE PUSH1 0x24 PUSH1 0x0 REVERT JUMPDEST DUP1 MLOAD PUSH2 0x1CB5 DUP2 PUSH2 0x1AFE JUMP JUMPDEST SWAP2 SWAP1 POP JUMP JUMPDEST PUSH1 0x0 PUSH1 0x20 DUP1 DUP4 DUP6 SUB SLT ISZERO PUSH2 0x1CCD JUMPI PUSH1 0x0 DUP1 REVERT JUMPDEST DUP3 MLOAD PUSH8 0xFFFFFFFFFFFFFFFF DUP1 DUP3 GT ISZERO PUSH2 0x1CE5 JUMPI PUSH1 0x0 DUP1 REVERT JUMPDEST DUP2 DUP6 ADD SWAP2 POP DUP6 PUSH1 0x1F DUP4 ADD SLT PUSH2 0x1CF9 JUMPI PUSH1 0x0 DUP1 REVERT JUMPDEST DUP2 MLOAD DUP2 DUP2 GT ISZERO PUSH2 0x1D0B JUMPI PUSH2 0x1D0B PUSH2 0x1C94 JUMP JUMPDEST DUP1 PUSH1 0x5 SHL PUSH1 0x40 MLOAD PUSH1 0x1F NOT PUSH1 0x3F DUP4 ADD AND DUP2 ADD DUP2 DUP2 LT DUP6 DUP3 GT OR ISZERO PUSH2 0x1D30 JUMPI PUSH2 0x1D30 PUSH2 0x1C94 JUMP JUMPDEST PUSH1 0x40 MSTORE SWAP2 DUP3 MSTORE DUP5 DUP3 ADD SWAP3 POP DUP4 DUP2 ADD DUP6 ADD SWAP2 DUP9 DUP4 GT ISZERO PUSH2 0x1D4E JUMPI PUSH1 0x0 DUP1 REVERT JUMPDEST SWAP4 DUP6 ADD SWAP4 JUMPDEST DUP3 DUP6 LT ISZERO PUSH2 0x1D73 JUMPI PUSH2 0x1D64 DUP6 PUSH2 0x1CAA JUMP JUMPDEST DUP5 MSTORE SWAP4 DUP6 ADD SWAP4 SWAP3 DUP6 ADD SWAP3 PUSH2 0x1D53 JUMP JUMPDEST SWAP9 SWAP8 POP POP POP POP POP POP POP POP JUMP JUMPDEST PUSH4 0x4E487B71 PUSH1 0xE0 SHL PUSH1 0x0 MSTORE PUSH1 0x32 PUSH1 0x4 MSTORE PUSH1 0x24 PUSH1 0x0 REVERT JUMPDEST PUSH1 0x0 PUSH1 0x20 DUP3 DUP5 SUB SLT ISZERO PUSH2 0x1DA7 JUMPI PUSH1 0x0 DUP1 REVERT JUMPDEST POP MLOAD SWAP2 SWAP1 POP JUMP JUMPDEST PUSH1 0x0 PUSH1 0x20 DUP3 DUP5 SUB SLT ISZERO PUSH2 0x1DC0 JUMPI PUSH1 0x0 DUP1 REVERT JUMPDEST DUP2 MLOAD PUSH1 0xFF DUP2 AND DUP2 EQ PUSH2 0x1435 JUMPI PUSH1 0x0 DUP1 REVERT JUMPDEST PUSH4 0x4E487B71 PUSH1 0xE0 SHL PUSH1 0x0 MSTORE PUSH1 0x11 PUSH1 0x4 MSTORE PUSH1 0x24 PUSH1 0x0 REVERT JUMPDEST DUP1 DUP3 ADD DUP1 DUP3 GT ISZERO PUSH2 0xA45 JUMPI PUSH2 0xA45 PUSH2 0x1DD1 JUMP JUMPDEST PUSH1 0x0 PUSH1 0x1 DUP3 ADD PUSH2 0x1E0C JUMPI PUSH2 0x1E0C PUSH2 0x1DD1 JUMP JUMPDEST POP PUSH1 0x1 ADD SWAP1 JUMP JUMPDEST PUSH1 0x1 DUP2 DUP2 JUMPDEST DUP1 DUP6 GT ISZERO PUSH2 0x1E4E JUMPI DUP2 PUSH1 0x0 NOT DIV DUP3 GT ISZERO PUSH2 0x1E34 JUMPI PUSH2 0x1E34 PUSH2 0x1DD1 JUMP JUMPDEST DUP1 DUP6 AND ISZERO PUSH2 0x1E41 JUMPI SWAP2 DUP2 MUL SWAP2 JUMPDEST SWAP4 DUP5 SHR SWAP4 SWAP1 DUP1 MUL SWAP1 PUSH2 0x1E18 JUMP JUMPDEST POP SWAP3 POP SWAP3 SWAP1 POP JUMP JUMPDEST PUSH1 0x0 DUP3 PUSH2 0x1E65 JUMPI POP PUSH1 0x1 PUSH2 0xA45 JUMP JUMPDEST DUP2 PUSH2 0x1E72 JUMPI POP PUSH1 0x0 PUSH2 0xA45 JUMP JUMPDEST DUP2 PUSH1 0x1 DUP2 EQ PUSH2 0x1E88 JUMPI PUSH1 0x2 DUP2 EQ PUSH2 0x1E92 JUMPI PUSH2 0x1EAE JUMP JUMPDEST PUSH1 0x1 SWAP2 POP POP PUSH2 0xA45 JUMP JUMPDEST PUSH1 0xFF DUP5 GT ISZERO PUSH2 0x1EA3 JUMPI PUSH2 0x1EA3 PUSH2 0x1DD1 JUMP JUMPDEST POP POP PUSH1 0x1 DUP3 SHL PUSH2 0xA45 JUMP JUMPDEST POP PUSH1 0x20 DUP4 LT PUSH2 0x133 DUP4 LT AND PUSH1 0x4E DUP5 LT PUSH1 0xB DUP5 LT AND OR ISZERO PUSH2 0x1ED1 JUMPI POP DUP2 DUP2 EXP PUSH2 0xA45 JUMP JUMPDEST PUSH2 0x1EDB DUP4 DUP4 PUSH2 0x1E13 JUMP JUMPDEST DUP1 PUSH1 0x0 NOT DIV DUP3 GT ISZERO PUSH2 0x1EEF JUMPI PUSH2 0x1EEF PUSH2 0x1DD1 JUMP JUMPDEST MUL SWAP4 SWAP3 POP POP POP JUMP JUMPDEST PUSH1 0x0 PUSH2 0x1435 DUP4 DUP4 PUSH2 0x1E56 JUMP JUMPDEST PUSH1 0x0 DUP3 PUSH2 0x1F20 JUMPI PUSH4 0x4E487B71 PUSH1 0xE0 SHL PUSH1 0x0 MSTORE PUSH1 0x12 PUSH1 0x4 MSTORE PUSH1 0x24 PUSH1 0x0 REVERT JUMPDEST POP DIV SWAP1 JUMP JUMPDEST DUP1 DUP3 MUL DUP2 ISZERO DUP3 DUP3 DIV DUP5 EQ OR PUSH2 0xA45 JUMPI PUSH2 0xA45 PUSH2 0x1DD1 JUMP JUMPDEST PUSH1 0xFF DUP3 DUP2 AND DUP3 DUP3 AND SUB SWAP1 DUP2 GT ISZERO PUSH2 0xA45 JUMPI PUSH2 0xA45 PUSH2 0x1DD1 JUMP JUMPDEST PUSH1 0x0 PUSH2 0x1435 PUSH1 0xFF DUP5 AND DUP4 PUSH2 0x1E56 JUMP JUMPDEST DUP2 DUP2 SUB DUP2 DUP2 GT ISZERO PUSH2 0xA45 JUMPI PUSH2 0xA45 PUSH2 0x1DD1 JUMP JUMPDEST PUSH4 0x4E487B71 PUSH1 0xE0 SHL PUSH1 0x0 MSTORE PUSH1 0x31 PUSH1 0x4 MSTORE PUSH1 0x24 PUSH1 0x0 REVERT INVALID LOG2 PUSH5 0x6970667358 0x22 SLT KECCAK256 0xED 0xDF 0x29 SWAP12 EQ PUSH19 0x1A503D51FD4F459CF2DB5972FA0482B6959635 MSIZE 0x4F GAS SAR GAS 0xD3 ISZERO PUSH5 0x736F6C6343 STOP ADDMOD GT STOP CALLER ","sha1":"1555a9e03ea5455ab5987fbd5cabd047042d9675","source":"// SPDX-License-Identifier: GPL-3.0-or-later\npragma solidity 0.8.17;\n\nimport \"@openzeppelin/contracts/access/Ownable.sol\";\nimport \"@openzeppelin/contracts/utils/structs/EnumerableSet.sol\";\n\nimport \"../../interfaces/tokenomics/IRebalancingRewardsHandler.sol\";\nimport \"../../interfaces/tokenomics/IInflationManager.sol\";\nimport \"../../interfaces/IController.sol\";\nimport \"../../interfaces/tokenomics/ICNCToken.sol\";\nimport \"../../interfaces/pools/IConicPool.sol\";\nimport \"../../interfaces/pools/ILpToken.sol\";\n\nimport \"../../libraries/ScaledMath.sol\";\n\ncontract InflationManager is IInflationManager, Ownable {\n    using ScaledMath for uint256;\n    using EnumerableSet for EnumerableSet.AddressSet;\n\n    ICNCToken public constant CNC = ICNCToken(0x9aE380F0272E2162340a5bB646c354271c0F5cFC);\n\n    IController public immutable controller;\n\n    uint256 internal constant _INITIAL_INFLATION_RATE = 1_500_000 * 1e18;\n    uint256 internal constant _INFLATION_RATE_DECAY = 0.3999999 * 1e18;\n    uint256 internal constant _INFLATION_RATE_PERIOD = 365 days;\n\n    /// @dev mapping from conic pool to their rebalancing reward handlers\n    mapping(address => EnumerableSet.AddressSet) internal _rebalancingRewardHandlers;\n\n    uint256 public override currentInflationRate;\n    uint256 public lastInflationRateDecay;\n    uint256 public lastUpdate;\n    uint256 public totalLpInflationMinted;\n\n    mapping(address => uint256) public currentPoolWeights;\n\n    constructor(address _controller) Ownable() {\n        require(_controller != address(0), \"Cannot use zero address for controller\");\n        controller = IController(_controller);\n\n        currentInflationRate = _INITIAL_INFLATION_RATE / _INFLATION_RATE_PERIOD;\n        lastUpdate = block.timestamp;\n        lastInflationRateDecay = block.timestamp;\n    }\n\n    /// @notice returns the weights of the Conic pools to know how much inflation\n    /// each of them will receive. totalUSDValue only accounts for funds in active pools\n    function computePoolWeights()\n        public\n        view\n        override\n        returns (\n            address[] memory pools,\n            uint256[] memory poolWeights,\n            uint256 totalUSDValue\n        )\n    {\n        IOracle oracle = controller.priceOracle();\n        pools = controller.listPools();\n        uint256[] memory poolUSDValues = new uint256[](pools.length);\n        for (uint256 i; i < pools.length; i++) {\n            if (controller.isActivePool(pools[i])) {\n                IConicPool pool = IConicPool(pools[i]);\n                IERC20Metadata underlying = pool.underlying();\n                uint256 price = oracle.getUSDPrice(address(underlying));\n                uint256 poolUSDValue = pool\n                    .cachedTotalUnderlying()\n                    .convertScale(underlying.decimals(), 18)\n                    .mulDown(price);\n                poolUSDValues[i] = poolUSDValue;\n                totalUSDValue += poolUSDValue;\n            }\n        }\n\n        poolWeights = new uint256[](pools.length);\n\n        if (totalUSDValue == 0) {\n            for (uint256 i; i < pools.length; i++) {\n                poolWeights[i] = ScaledMath.ONE / pools.length;\n            }\n        } else {\n            for (uint256 i; i < pools.length; i++) {\n                poolWeights[i] = poolUSDValues[i].divDown(totalUSDValue);\n            }\n        }\n    }\n\n    /// @notice Same as `computePoolWeights` but only returns the value for a single pool\n    /// totalUSDValue only accounts for funds in active pools\n    function computePoolWeight(address pool)\n        public\n        view\n        returns (uint256 poolWeight, uint256 totalUSDValue)\n    {\n        require(controller.isPool(pool), \"pool not found\");\n        IOracle oracle = controller.priceOracle();\n        address[] memory pools = controller.listPools();\n        uint256 poolUSDValue;\n        for (uint256 i; i < pools.length; i++) {\n            if (controller.isActivePool(pools[i])) {\n                IConicPool currentPool = IConicPool(pools[i]);\n                IERC20Metadata underlying = currentPool.underlying();\n                uint256 price = oracle.getUSDPrice(address(underlying));\n                uint256 usdValue = currentPool\n                    .cachedTotalUnderlying()\n                    .convertScale(underlying.decimals(), 18)\n                    .mulDown(price);\n                totalUSDValue += usdValue;\n                if (address(currentPool) == pool) poolUSDValue = usdValue;\n            }\n        }\n\n        if (!controller.isActivePool(pool)) {\n            return (0, totalUSDValue);\n        }\n        poolWeight = totalUSDValue == 0\n            ? ScaledMath.ONE / pools.length\n            : poolUSDValue.divDown(totalUSDValue);\n    }\n\n    function executeInflationRateUpdate() external override {\n        _executeInflationRateUpdate();\n    }\n\n    function handleRebalancingRewards(\n        address account,\n        uint256 deviationBefore,\n        uint256 deviationAfter\n    ) external {\n        require(controller.isPool(msg.sender), \"only pools can call this function\");\n        for (uint256 i; i < _rebalancingRewardHandlers[msg.sender].length(); i++) {\n            address handler = _rebalancingRewardHandlers[msg.sender].at(i);\n            IRebalancingRewardsHandler(handler).handleRebalancingRewards(\n                IConicPool(msg.sender),\n                account,\n                deviationBefore,\n                deviationAfter\n            );\n        }\n    }\n\n    function addPoolRebalancingRewardHandler(address poolAddress, address rebalancingRewardHandler)\n        external\n        override\n    {\n        require(\n            msg.sender == owner() || msg.sender == controller.emergencyMinter(),\n            \"only owner or emergency minter\"\n        );\n        require(controller.isPool(poolAddress), \"invalid pool\");\n        require(\n            _rebalancingRewardHandlers[poolAddress].add(rebalancingRewardHandler),\n            \"handler already set\"\n        );\n\n        emit RebalancingRewardHandlerAdded(poolAddress, rebalancingRewardHandler);\n    }\n\n    function removePoolRebalancingRewardHandler(\n        address poolAddress,\n        address rebalancingRewardHandler\n    ) external override {\n        require(\n            msg.sender == owner() || msg.sender == controller.emergencyMinter(),\n            \"only owner or emergency minter\"\n        );\n        require(controller.isPool(poolAddress), \"invalid pool\");\n        require(\n            _rebalancingRewardHandlers[poolAddress].remove(rebalancingRewardHandler),\n            \"handler not set\"\n        );\n        emit RebalancingRewardHandlerRemoved(poolAddress, rebalancingRewardHandler);\n    }\n\n    function hasPoolRebalancingRewardHandlers(address poolAddress, address handler)\n        external\n        view\n        returns (bool)\n    {\n        return _rebalancingRewardHandlers[poolAddress].contains(handler);\n    }\n\n    function rebalancingRewardHandlers(address poolAddress)\n        external\n        view\n        returns (address[] memory)\n    {\n        return _rebalancingRewardHandlers[poolAddress].values();\n    }\n\n    function updatePoolWeights() public override {\n        (address[] memory _pools, uint256[] memory poolWeights, ) = computePoolWeights();\n        uint256 numPools = _pools.length;\n        ILpTokenStaker lpTokenStaker = controller.lpTokenStaker();\n        for (uint256 i; i < numPools; i++) {\n            address curPool = _pools[i];\n            IRewardManager(IConicPool(curPool).rewardManager()).poolCheckpoint();\n            lpTokenStaker.checkpoint(curPool);\n            currentPoolWeights[curPool] = poolWeights[i];\n        }\n        emit PoolWeightsUpdated();\n    }\n\n    /// @dev Pool weights will be updated periodically\n    function getCurrentPoolInflationRate(address pool) external view override returns (uint256) {\n        return currentInflationRate.mulDown(currentPoolWeights[pool]);\n    }\n\n    function _executeInflationRateUpdate() internal {\n        if (block.timestamp >= lastInflationRateDecay + _INFLATION_RATE_PERIOD) {\n            updatePoolWeights();\n            currentInflationRate = currentInflationRate.mulDown(_INFLATION_RATE_DECAY);\n            lastInflationRateDecay = block.timestamp;\n        }\n    }\n}\n","sourcePath":"contracts/tokenomics/InflationManager.sol","type":"contract","deployment":{"address":"0xf4A364d6B513158dC880d0e8DA6Ae65B9688FD7B","chainid":"1","blockHeight":16734391}}