{"abi":[{"inputs":[{"internalType":"contract IController","name":"_controller","type":"address"},{"internalType":"contract IERC20Metadata","name":"_underlying","type":"address"}],"stateMutability":"nonpayable","type":"constructor","name":"constructor"},{"anonymous":false,"inputs":[{"indexed":false,"internalType":"address","name":"curvePool_","type":"address"}],"name":"CurvePoolAdded","type":"event"},{"anonymous":false,"inputs":[{"indexed":false,"internalType":"address","name":"curvePool_","type":"address"}],"name":"CurvePoolRemoved","type":"event"},{"anonymous":false,"inputs":[{"indexed":true,"internalType":"address","name":"curvePool","type":"address"},{"indexed":false,"internalType":"uint256","name":"newWeight","type":"uint256"}],"name":"NewWeight","type":"event"},{"inputs":[{"internalType":"address","name":"_pool","type":"address"}],"name":"addPool","outputs":[],"stateMutability":"nonpayable","type":"function"},{"inputs":[],"name":"allPools","outputs":[{"internalType":"address[]","name":"","type":"address[]"}],"stateMutability":"view","type":"function"},{"inputs":[{"internalType":"uint256","name":"allocatedUnderlying_","type":"uint256"},{"internalType":"uint256[]","name":"perPoolAllocations_","type":"uint256[]"}],"name":"computeTotalDeviation","outputs":[{"internalType":"uint256","name":"","type":"uint256"}],"stateMutability":"view","type":"function"},{"inputs":[],"name":"conicPool","outputs":[{"internalType":"contract IConicPool","name":"","type":"address"}],"stateMutability":"view","type":"function"},{"inputs":[],"name":"controller","outputs":[{"internalType":"contract IController","name":"","type":"address"}],"stateMutability":"view","type":"function"},{"inputs":[{"internalType":"uint256","name":"totalUnderlying_","type":"uint256"},{"internalType":"uint256[]","name":"allocatedPerPool","type":"uint256[]"},{"internalType":"uint256","name":"maxDeviation","type":"uint256"}],"name":"getDepositPool","outputs":[{"internalType":"uint256","name":"poolIndex","type":"uint256"},{"internalType":"uint256","name":"maxDepositAmount","type":"uint256"}],"stateMutability":"view","type":"function"},{"inputs":[{"internalType":"uint256","name":"_index","type":"uint256"}],"name":"getPoolAtIndex","outputs":[{"internalType":"address","name":"","type":"address"}],"stateMutability":"view","type":"function"},{"inputs":[{"internalType":"address","name":"pool","type":"address"}],"name":"getWeight","outputs":[{"internalType":"uint256","name":"","type":"uint256"}],"stateMutability":"view","type":"function"},{"inputs":[],"name":"getWeights","outputs":[{"components":[{"internalType":"address","name":"poolAddress","type":"address"},{"internalType":"uint256","name":"weight","type":"uint256"}],"internalType":"struct IConicPoolWeightManagement.PoolWeight[]","name":"","type":"tuple[]"}],"stateMutability":"view","type":"function"},{"inputs":[{"internalType":"uint256","name":"totalUnderlying_","type":"uint256"},{"internalType":"uint256[]","name":"allocatedPerPool","type":"uint256[]"},{"internalType":"uint256","name":"maxDeviation","type":"uint256"}],"name":"getWithdrawPool","outputs":[{"internalType":"uint256","name":"withdrawPoolIndex","type":"uint256"},{"internalType":"uint256","name":"maxWithdrawalAmount","type":"uint256"}],"stateMutability":"view","type":"function"},{"inputs":[{"internalType":"address","name":"curvePool_","type":"address"}],"name":"handleDepeggedCurvePool","outputs":[],"stateMutability":"nonpayable","type":"function"},{"inputs":[{"internalType":"address","name":"curvePool_","type":"address"}],"name":"handleInvalidConvexPid","outputs":[{"internalType":"uint256","name":"","type":"uint256"}],"stateMutability":"nonpayable","type":"function"},{"inputs":[{"internalType":"uint256[]","name":"allocatedPerPool_","type":"uint256[]"},{"internalType":"uint256","name":"totalAllocated_","type":"uint256"},{"internalType":"uint256","name":"maxDeviation","type":"uint256"}],"name":"isBalanced","outputs":[{"internalType":"bool","name":"","type":"bool"}],"stateMutability":"view","type":"function"},{"inputs":[{"internalType":"address","name":"_pool","type":"address"}],"name":"isRegisteredPool","outputs":[{"internalType":"bool","name":"","type":"bool"}],"stateMutability":"view","type":"function"},{"inputs":[],"name":"poolsCount","outputs":[{"internalType":"uint256","name":"","type":"uint256"}],"stateMutability":"view","type":"function"},{"inputs":[{"internalType":"address","name":"_pool","type":"address"}],"name":"removePool","outputs":[],"stateMutability":"nonpayable","type":"function"},{"inputs":[],"name":"underlying","outputs":[{"internalType":"contract IERC20Metadata","name":"","type":"address"}],"stateMutability":"view","type":"function"},{"inputs":[{"components":[{"internalType":"address","name":"poolAddress","type":"address"},{"internalType":"uint256","name":"weight","type":"uint256"}],"internalType":"struct IConicPoolWeightManagement.PoolWeight[]","name":"poolWeights","type":"tuple[]"}],"name":"updateWeights","outputs":[],"stateMutability":"nonpayable","type":"function"}],"bytecode":"60e06040523480156200001157600080fd5b506040516200288a3803806200288a833981016040819052620000349162000069565b336080526001600160a01b0391821660a0521660c052620000a8565b6001600160a01b03811681146200006657600080fd5b50565b600080604083850312156200007d57600080fd5b82516200008a8162000050565b60208401519092506200009d8162000050565b809150509250929050565b60805160a05160c05161273b6200014f600039600081816101eb0152818161074a015281816107c501528181610df101528181610e6c01526116ab0152600081816102d6015281816106b301528181610a6e01528181610d5a015281816113450152818161161f01526117d80152600081816102120152818161056f0152818161096e01528181610af201528181611043015281816112af0152611526015261273b6000f3fe608060405234801561001057600080fd5b50600436106101165760003560e01c80637e412a7a116100a2578063ac6c525111610071578063ac6c525114610283578063c5c63e6514610296578063c699e633146102ab578063d914cd4b146102be578063f77c4791146102d157600080fd5b80637e412a7a146102345780638c788de0146102555780638dbfb25b1461025d5780639765ca151461027057600080fd5b806339d82513116100e957806339d825131461019d5780633b7d0946146101b0578063519703de146101c35780636f307dc3146101e65780637d59ce011461020d57600080fd5b80631010b58c1461011b57806312968a291461014b57806322acb8671461017357806336797aec14610188575b600080fd5b61012e610129366004612116565b6102f8565b6040516001600160a01b0390911681526020015b60405180910390f35b61015e61015936600461222e565b61030a565b60408051928352602083019190915201610142565b61017b61047d565b604051610142919061227e565b61019b6101963660046122eb565b610564565b005b61015e6101ab36600461222e565b610658565b61019b6101be3660046122eb565b610963565b6101d66101d1366004612308565b610cf9565b6040519015158152602001610142565b61012e7f000000000000000000000000000000000000000000000000000000000000000081565b61012e7f000000000000000000000000000000000000000000000000000000000000000081565b610247610242366004612356565b610fa4565b604051908152602001610142565b610247611027565b61019b61026b36600461239d565b611038565b61024761027e3660046122eb565b6112a2565b6102476102913660046122eb565b6114f6565b61029e611503565b604051610142919061245c565b6101d66102b93660046122eb565b61150f565b61019b6102cc3660046122eb565b61151b565b61012e7f000000000000000000000000000000000000000000000000000000000000000081565b600061030481836119ab565b92915050565b81516000908190600019825b8281101561041a57600061032a81836119ab565b90506000888381518110610340576103406124a9565b6020026020010151905060006103608360026119b790919063ffffffff16565b9050600061036e8c836119cc565b90508083106103805750505050610408565b60006103a38b6103926012600a6125b9565b61039c91906125c5565b84906119cc565b90506103b16012600a6125b9565b81116103bd57806103c9565b6103c96012600a6125b9565b905060006103d78e836119cc565b905060006103e586836125d8565b90508a81116103fa5750505050505050610408565b809a50879850505050505050505b80610412816125eb565b915050610316565b5060001981136104715760405162461bcd60e51b815260206004820152601d60248201527f6572726f722072657472696576696e67206465706f73697420706f6f6c00000060448201526064015b60405180910390fd5b96919550909350505050565b6060600061048b60006119ee565b905060008167ffffffffffffffff8111156104a8576104a861212f565b6040519080825280602002602001820160405280156104ed57816020015b60408051808201909152600080825260208201528152602001906001900390816104c65790505b50905060005b8281101561055d576000806105096002846119f8565b915091506040518060400160405280836001600160a01b031681526020018281525084848151811061053d5761053d6124a9565b602002602001018190525050508080610555906125eb565b9150506104f3565b5092915050565b336001600160a01b037f000000000000000000000000000000000000000000000000000000000000000016146105ac5760405162461bcd60e51b815260040161046890612604565b6105b58161150f565b6105fa5760405162461bcd60e51b81526020600482015260166024820152751c1bdbdb081a5cc81b9bdd081c9959da5cdd195c995960521b6044820152606401610468565b6106056002826119b7565b60000361064c5760405162461bcd60e51b81526020600482015260156024820152740706f6f6c2077656967687420616c7265616479203605c1b6044820152606401610468565b61065581611a14565b50565b81516000908190600019825b8281101561090957600061067881836119ab565b905060006106876002836119b7565b9050600089848151811061069d5761069d6124a9565b60200260200101519050816000036108945760007f00000000000000000000000000000000000000000000000000000000000000006001600160a01b0316632630c12f6040518163ffffffff1660e01b8152600401602060405180830381865afa15801561070f573d6000803e3d6000fd5b505050506040513d601f19601f82011682018060405250810190610733919061262c565b604051638b2f0f4f60e01b81526001600160a01b037f0000000000000000000000000000000000000000000000000000000000000000811660048301529190911690638b2f0f4f90602401602060405180830381865afa15801561079b573d6000803e3d6000fd5b505050506040513d601f19601f820116820180604052508101906107bf9190612649565b905060007f00000000000000000000000000000000000000000000000000000000000000006001600160a01b031663313ce5676040518163ffffffff1660e01b8152600401602060405180830381865afa158015610821573d6000803e3d6000fd5b505050506040513d601f19601f820116820180604052508101906108459190612662565b61085090600a612685565b61085a8484612694565b61086491906126ab565b905061087a600268056bc75e2d631000006126ab565b81106108915750939750955061095b945050505050565b50505b60006108a08c846119cc565b90508082116108b257505050506108f7565b60006108be828c6119cc565b6108c890836125d8565b905060006108d682856125d8565b90508981116108ea575050505050506108f7565b8099508697505050505050505b80610901816125eb565b915050610664565b5060001981136104715760405162461bcd60e51b815260206004820152601e60248201527f6572726f722072657472696576696e6720776974686472617720706f6f6c00006044820152606401610468565b935093915050565b336001600160a01b037f000000000000000000000000000000000000000000000000000000000000000016146109ab5760405162461bcd60e51b815260040161046890612604565b6109b6600082611d6b565b6109f35760405162461bcd60e51b815260206004820152600e60248201526d1c1bdbdb081b9bdd08185919195960921b6044820152606401610468565b60016109ff60006119ee565b11610a4c5760405162461bcd60e51b815260206004820152601760248201527f63616e6e6f742072656d6f7665206c61737420706f6f6c0000000000000000006044820152606401610468565b6040516355eb6b3560e01b81526001600160a01b0382811660048301526000917f0000000000000000000000000000000000000000000000000000000000000000909116906355eb6b3590602401602060405180830381865afa158015610ab7573d6000803e3d6000fd5b505050506040513d601f19601f82011682018060405250810190610adb919061262c565b604051633dfa59d160e01b81526001600160a01b037f0000000000000000000000000000000000000000000000000000000000000000811660048301528481166024830152919250600091831690633dfa59d190604401602060405180830381865afa158015610b4f573d6000803e3d6000fd5b505050506040513d601f19601f82011682018060405250810190610b739190612649565b905068056bc75e2d631000008110610bcd5760405162461bcd60e51b815260206004820152601860248201527f706f6f6c2068617320616c6c6f63617465642066756e647300000000000000006044820152606401610468565b6000610bda6002856119b7565b90508015610c205760405162461bcd60e51b81526020600482015260136024820152721c1bdbdb081a185cc81dd95a59da1d081cd95d606a1b6044820152606401610468565b610c2b600085611d8d565b610c6a5760405162461bcd60e51b815260206004820152601060248201526f1c1bdbdb081b9bdd081c995b5bdd995960821b6044820152606401610468565b610c75600285611da2565b610cb65760405162461bcd60e51b81526020600482015260126024820152711dd95a59da1d081b9bdd081c995b5bdd995960721b6044820152606401610468565b6040516001600160a01b03851681527fca2456580e344539a90d4d0369fc77866a3135141e2e51621b88d2f010c6bbe2906020015b60405180910390a150505050565b600082600003610d0b57506001610f9d565b60005b8451811015610f97576000610d2e610d2682846119ab565b6002906119b7565b90506000868381518110610d4457610d446124a9565b6020026020010151905081600003610f3e5760007f00000000000000000000000000000000000000000000000000000000000000006001600160a01b0316632630c12f6040518163ffffffff1660e01b8152600401602060405180830381865afa158015610db6573d6000803e3d6000fd5b505050506040513d601f19601f82011682018060405250810190610dda919061262c565b604051638b2f0f4f60e01b81526001600160a01b037f0000000000000000000000000000000000000000000000000000000000000000811660048301529190911690638b2f0f4f90602401602060405180830381865afa158015610e42573d6000803e3d6000fd5b505050506040513d601f19601f82011682018060405250810190610e669190612649565b905060007f00000000000000000000000000000000000000000000000000000000000000006001600160a01b031663313ce5676040518163ffffffff1660e01b8152600401602060405180830381865afa158015610ec8573d6000803e3d6000fd5b505050506040513d601f19601f82011682018060405250810190610eec9190612662565b610ef790600a612685565b610f018484612694565b610f0b91906126ab565b9050610f21600268056bc75e2d631000006126ab565b8110610f3557600095505050505050610f9d565b50505050610f85565b6000610f4a87846119cc565b90506000610f588284611db7565b90506000610f668284611dcf565b905087811115610f7f5760009650505050505050610f9d565b50505050505b80610f8f816125eb565b915050610d0e565b50600190505b9392505050565b60008060005b835181101561101f576000610fc2610d2682846119ab565b90506000610fd087836119cc565b9050610ffe868481518110610fe757610fe76124a9565b602002602001015182611db790919063ffffffff16565b61100890856125c5565b935050508080611017906125eb565b915050610faa565b509392505050565b600061103360006119ee565b905090565b336001600160a01b037f000000000000000000000000000000000000000000000000000000000000000016146110805760405162461bcd60e51b815260040161046890612604565b61108a60006119ee565b8151146110d05760405162461bcd60e51b8152602060048201526014602482015273696e76616c696420706f6f6c207765696768747360601b6044820152606401610468565b60008060005b83518110156112425760008482815181106110f3576110f36124a9565b6020026020010151600001519050826001600160a01b0316816001600160a01b0316116111555760405162461bcd60e51b815260206004820152601060248201526f1c1bdbdb1cc81b9bdd081cdbdc9d195960821b6044820152606401610468565b61115e8161150f565b6111a35760405162461bcd60e51b81526020600482015260166024820152751c1bdbdb081a5cc81b9bdd081c9959da5cdd195c995960521b6044820152606401610468565b60008583815181106111b7576111b76124a9565b60200260200101516020015190506111db82826002611de89092919063ffffffff16565b50816001600160a01b03167f49175c3467edeba7662e939bf84305eaf5084072855b0560f6ac3e145cd172ae8260405161121791815260200190565b60405180910390a261122981866125c5565b945090925081905061123a816125eb565b9150506110d6565b5061124f6012600a6125b9565b821461129d5760405162461bcd60e51b815260206004820152601760248201527f7765696768747320646f206e6f742073756d20746f20310000000000000000006044820152606401610468565b505050565b6000336001600160a01b037f000000000000000000000000000000000000000000000000000000000000000016146112ec5760405162461bcd60e51b815260040161046890612604565b6112f58261150f565b6113415760405162461bcd60e51b815260206004820152601960248201527f637572766520706f6f6c206e6f742072656769737465726564000000000000006044820152606401610468565b60007f00000000000000000000000000000000000000000000000000000000000000006001600160a01b0316639f82b2176040518163ffffffff1660e01b8152600401602060405180830381865afa1580156113a1573d6000803e3d6000fd5b505050506040513d601f19601f820116820180604052508101906113c5919061262c565b6040516343b55f3560e01b81526001600160a01b0385811660048301529192506000918316906343b55f3590602401602060405180830381865afa158015611411573d6000803e3d6000fd5b505050506040513d601f19601f820116820180604052508101906114359190612649565b604051631cec69e560e11b8152600481018290529091506001600160a01b038316906339d8d3ca90602401602060405180830381865afa15801561147d573d6000803e3d6000fd5b505050506040513d601f19601f820116820180604052508101906114a191906126cd565b6114ed5760405162461bcd60e51b815260206004820181905260248201527f636f6e76657820706f6f6c20706964206973206e6f74207368757420646f776e6044820152606401610468565b610f9d84611a14565b60006103046002836119b7565b60606110336000611e06565b60006103048183611d6b565b336001600160a01b037f000000000000000000000000000000000000000000000000000000000000000016146115635760405162461bcd60e51b815260040161046890612604565b600a61156f60006119ee565b106115b05760405162461bcd60e51b81526020600482015260116024820152701b585e081c1bdbdb1cc81c995858da1959607a1b6044820152606401610468565b6115bb600082611d6b565b156115fd5760405162461bcd60e51b81526020600482015260126024820152711c1bdbdb08185b1c9958591e48185919195960721b6044820152606401610468565b6040516355eb6b3560e01b81526001600160a01b0382811660048301526000917f0000000000000000000000000000000000000000000000000000000000000000909116906355eb6b3590602401602060405180830381865afa158015611668573d6000803e3d6000fd5b505050506040513d601f19601f8201168201806040525081019061168c919061262c565b604051632aa2d3f760e21b81526001600160a01b0384811660048301527f00000000000000000000000000000000000000000000000000000000000000008116602483015291925060009183169063aa8b4fdc90604401602060405180830381865afa158015611700573d6000803e3d6000fd5b505050506040513d601f19601f8201168201806040525081019061172491906126cd565b9050806117665760405162461bcd60e51b815260206004820152601060248201526f18dbda5b881b9bdd081a5b881c1bdbdb60821b6044820152606401610468565b604051631da958a960e21b81526001600160a01b038481166004830152600091908416906376a562a490602401602060405180830381865afa1580156117b0573d6000803e3d6000fd5b505050506040513d601f19601f820116820180604052508101906117d4919061262c565b90507f00000000000000000000000000000000000000000000000000000000000000006001600160a01b0316632630c12f6040518163ffffffff1660e01b8152600401602060405180830381865afa158015611834573d6000803e3d6000fd5b505050506040513d601f19601f82011682018060405250810190611858919061262c565b6040516375151b6360e01b81526001600160a01b03838116600483015291909116906375151b6390602401602060405180830381865afa1580156118a0573d6000803e3d6000fd5b505050506040513d601f19601f820116820180604052508101906118c491906126cd565b6119085760405162461bcd60e51b815260206004820152601560248201527431b0b73737ba10383934b1b2902628102a37b5b2b760591b6044820152606401610468565b611913600285611e13565b611926576119246002856000611de8565b505b611931600085611e28565b6119725760405162461bcd60e51b815260206004820152601260248201527119985a5b1959081d1bc8185919081c1bdbdb60721b6044820152606401610468565b6040516001600160a01b03851681527fbadad752e47b51d72487f7881b9baa7c0ed207b8d84f37c0e23eb0a6d67e5b1590602001610ceb565b6000610f9d8383611e3d565b6000610f9d836001600160a01b038416611e67565b60006119da6012600a6125b9565b6119e48385612694565b610f9d91906126ab565b6000610304825490565b6000808080611a078686611ed7565b9097909650945050505050565b6000611a216002836119b7565b905080600003611a2f575050565b611a3b6012600a6125b9565b8103611a825760405162461bcd60e51b815260206004820152601660248201527518d85b89dd081c995b5bdd99481b185cdd081c1bdbdb60521b6044820152606401610468565b6000611aba611a926002856119b7565b611a9e6012600a6125b9565b611aa891906125d8565b611ab46012600a6125b9565b90611dcf565b90506000611ac860006119ee565b9050611ad76002856000611de8565b50836001600160a01b03167f49175c3467edeba7662e939bf84305eaf5084072855b0560f6ac3e145cd172ae6000604051611b1491815260200190565b60405180910390a26000611b296001836125d8565b67ffffffffffffffff811115611b4157611b4161212f565b604051908082528060200260200182016040528015611b6a578160200160208202803683370190505b5090506000611b7a6001846125d8565b67ffffffffffffffff811115611b9257611b9261212f565b604051908082528060200260200182016040528015611bbb578160200160208202803683370190505b5090506000805b84811015611c69576000611bd681836119ab565b90506000611be56002836119b7565b905080600003611bf6575050611c57565b81868581518110611c0957611c096124a9565b60200260200101906001600160a01b031690816001600160a01b03168152505080858581518110611c3c57611c3c6124a9565b602090810291909101015283611c51816125eb565b94505050505b80611c61816125eb565b915050611bc2565b506000805b82811015611d60576000858281518110611c8a57611c8a6124a9565b602002602001015190506000611cc289878581518110611cac57611cac6124a9565b60200260200101516119cc90919063ffffffff16565b9050611ccf6001866125d8565b8303611cef5783611ce26012600a6125b9565b611cec91906125d8565b90505b611cf981856125c5565b9350611d0760028383611de8565b50816001600160a01b03167f49175c3467edeba7662e939bf84305eaf5084072855b0560f6ac3e145cd172ae82604051611d4391815260200190565b60405180910390a250508080611d58906125eb565b915050611c6e565b505050505050505050565b6001600160a01b03811660009081526001830160205260408120541515610f9d565b6000610f9d836001600160a01b038416611f02565b6000610f9d836001600160a01b038416611ff5565b600081831015611dc957828203610f9d565b50900390565b600081611dde6012600a6125b9565b6119e49085612694565b6000611dfe846001600160a01b03851684612012565b949350505050565b60606000610f9d8361202f565b6000610f9d836001600160a01b03841661208b565b6000610f9d836001600160a01b038416612097565b6000826000018281548110611e5457611e546124a9565b9060005260206000200154905092915050565b600081815260028301602052604081205480151580611e8b5750611e8b848461208b565b610f9d5760405162461bcd60e51b815260206004820152601e60248201527f456e756d657261626c654d61703a206e6f6e6578697374656e74206b657900006044820152606401610468565b60008080611ee585856119ab565b600081815260029690960160205260409095205494959350505050565b60008181526001830160205260408120548015611feb576000611f266001836125d8565b8554909150600090611f3a906001906125d8565b9050818114611f9f576000866000018281548110611f5a57611f5a6124a9565b9060005260206000200154905080876000018481548110611f7d57611f7d6124a9565b6000918252602080832090910192909255918252600188019052604090208390555b8554869080611fb057611fb06126ef565b600190038181906000526020600020016000905590558560010160008681526020019081526020016000206000905560019350505050610304565b6000915050610304565b60008181526002830160205260408120819055610f9d83836120e6565b60008281526002840160205260408120829055611dfe84846120f2565b60608160000180548060200260200160405190810160405280929190818152602001828054801561207f57602002820191906000526020600020905b81548152602001906001019080831161206b575b50505050509050919050565b6000610f9d83836120fe565b60008181526001830160205260408120546120de57508154600181810184556000848152602080822090930184905584548482528286019093526040902091909155610304565b506000610304565b6000610f9d8383611f02565b6000610f9d8383612097565b60008181526001830160205260408120541515610f9d565b60006020828403121561212857600080fd5b5035919050565b634e487b7160e01b600052604160045260246000fd5b6040805190810167ffffffffffffffff811182821017156121685761216861212f565b60405290565b604051601f8201601f1916810167ffffffffffffffff811182821017156121975761219761212f565b604052919050565b600067ffffffffffffffff8211156121b9576121b961212f565b5060051b60200190565b600082601f8301126121d457600080fd5b813560206121e96121e48361219f565b61216e565b82815260059290921b8401810191818101908684111561220857600080fd5b8286015b84811015612223578035835291830191830161220c565b509695505050505050565b60008060006060848603121561224357600080fd5b83359250602084013567ffffffffffffffff81111561226157600080fd5b61226d868287016121c3565b925050604084013590509250925092565b602080825282518282018190526000919060409081850190868401855b828110156122c957815180516001600160a01b0316855286015186850152928401929085019060010161229b565b5091979650505050505050565b6001600160a01b038116811461065557600080fd5b6000602082840312156122fd57600080fd5b8135610f9d816122d6565b60008060006060848603121561231d57600080fd5b833567ffffffffffffffff81111561233457600080fd5b612340868287016121c3565b9660208601359650604090950135949350505050565b6000806040838503121561236957600080fd5b82359150602083013567ffffffffffffffff81111561238757600080fd5b612393858286016121c3565b9150509250929050565b600060208083850312156123b057600080fd5b823567ffffffffffffffff8111156123c757600080fd5b8301601f810185136123d857600080fd5b80356123e66121e48261219f565b81815260069190911b8201830190838101908783111561240557600080fd5b928401925b8284101561245157604084890312156124235760008081fd5b61242b612145565b8435612436816122d6565b8152848601358682015282526040909301929084019061240a565b979650505050505050565b6020808252825182820181905260009190848201906040850190845b8181101561249d5783516001600160a01b031683529284019291840191600101612478565b50909695505050505050565b634e487b7160e01b600052603260045260246000fd5b634e487b7160e01b600052601160045260246000fd5b600181815b808511156125105781600019048211156124f6576124f66124bf565b8085161561250357918102915b93841c93908002906124da565b509250929050565b60008261252757506001610304565b8161253457506000610304565b816001811461254a576002811461255457612570565b6001915050610304565b60ff841115612565576125656124bf565b50506001821b610304565b5060208310610133831016604e8410600b8410161715612593575081810a610304565b61259d83836124d5565b80600019048211156125b1576125b16124bf565b029392505050565b6000610f9d8383612518565b80820180821115610304576103046124bf565b81810381811115610304576103046124bf565b6000600182016125fd576125fd6124bf565b5060010190565b6020808252600e908201526d1b9bdd08185d5d1a1bdc9a5e995960921b604082015260600190565b60006020828403121561263e57600080fd5b8151610f9d816122d6565b60006020828403121561265b57600080fd5b5051919050565b60006020828403121561267457600080fd5b815160ff81168114610f9d57600080fd5b6000610f9d60ff841683612518565b8082028115828204841417610304576103046124bf565b6000826126c857634e487b7160e01b600052601260045260246000fd5b500490565b6000602082840312156126df57600080fd5b81518015158114610f9d57600080fd5b634e487b7160e01b600052603160045260246000fdfea26469706673582212202b8aa78af29f211a32bc516d4d0be7aa98a6ad88f4ae3b0e35dd24b1b15c92cd64736f6c63430008110033","bytecodeSha1":"f354414f40741c02208a6b70b2d617765910d1b0","compiler":{"evm_version":"london","optimizer":{"enabled":true,"runs":200},"version":"0.8.17+commit.8df45f5f"},"contractName":"ConicPoolWeightManager","language":"Solidity","natspec":{"kind":"dev","methods":{},"version":1},"opcodes":"PUSH1 0x80 PUSH1 0x40 MSTORE CALLVALUE DUP1 ISZERO PUSH2 0x10 JUMPI PUSH1 0x0 DUP1 REVERT JUMPDEST POP PUSH1 0x4 CALLDATASIZE LT PUSH2 0x116 JUMPI PUSH1 0x0 CALLDATALOAD PUSH1 0xE0 SHR DUP1 PUSH4 0x7E412A7A GT PUSH2 0xA2 JUMPI DUP1 PUSH4 0xAC6C5251 GT PUSH2 0x71 JUMPI DUP1 PUSH4 0xAC6C5251 EQ PUSH2 0x283 JUMPI DUP1 PUSH4 0xC5C63E65 EQ PUSH2 0x296 JUMPI DUP1 PUSH4 0xC699E633 EQ PUSH2 0x2AB JUMPI DUP1 PUSH4 0xD914CD4B EQ PUSH2 0x2BE JUMPI DUP1 PUSH4 0xF77C4791 EQ PUSH2 0x2D1 JUMPI PUSH1 0x0 DUP1 REVERT JUMPDEST DUP1 PUSH4 0x7E412A7A EQ PUSH2 0x234 JUMPI DUP1 PUSH4 0x8C788DE0 EQ PUSH2 0x255 JUMPI DUP1 PUSH4 0x8DBFB25B EQ PUSH2 0x25D JUMPI DUP1 PUSH4 0x9765CA15 EQ PUSH2 0x270 JUMPI PUSH1 0x0 DUP1 REVERT JUMPDEST DUP1 PUSH4 0x39D82513 GT PUSH2 0xE9 JUMPI DUP1 PUSH4 0x39D82513 EQ PUSH2 0x19D JUMPI DUP1 PUSH4 0x3B7D0946 EQ PUSH2 0x1B0 JUMPI DUP1 PUSH4 0x519703DE EQ PUSH2 0x1C3 JUMPI DUP1 PUSH4 0x6F307DC3 EQ PUSH2 0x1E6 JUMPI DUP1 PUSH4 0x7D59CE01 EQ PUSH2 0x20D JUMPI PUSH1 0x0 DUP1 REVERT JUMPDEST DUP1 PUSH4 0x1010B58C EQ PUSH2 0x11B JUMPI DUP1 PUSH4 0x12968A29 EQ PUSH2 0x14B JUMPI DUP1 PUSH4 0x22ACB867 EQ PUSH2 0x173 JUMPI DUP1 PUSH4 0x36797AEC EQ PUSH2 0x188 JUMPI JUMPDEST PUSH1 0x0 DUP1 REVERT JUMPDEST PUSH2 0x12E PUSH2 0x129 CALLDATASIZE PUSH1 0x4 PUSH2 0x2116 JUMP JUMPDEST PUSH2 0x2F8 JUMP JUMPDEST PUSH1 0x40 MLOAD PUSH1 0x1 PUSH1 0x1 PUSH1 0xA0 SHL SUB SWAP1 SWAP2 AND DUP2 MSTORE PUSH1 0x20 ADD JUMPDEST PUSH1 0x40 MLOAD DUP1 SWAP2 SUB SWAP1 RETURN JUMPDEST PUSH2 0x15E PUSH2 0x159 CALLDATASIZE PUSH1 0x4 PUSH2 0x222E JUMP JUMPDEST PUSH2 0x30A JUMP JUMPDEST PUSH1 0x40 DUP1 MLOAD SWAP3 DUP4 MSTORE PUSH1 0x20 DUP4 ADD SWAP2 SWAP1 SWAP2 MSTORE ADD PUSH2 0x142 JUMP JUMPDEST PUSH2 0x17B PUSH2 0x47D JUMP JUMPDEST PUSH1 0x40 MLOAD PUSH2 0x142 SWAP2 SWAP1 PUSH2 0x227E JUMP JUMPDEST PUSH2 0x19B PUSH2 0x196 CALLDATASIZE PUSH1 0x4 PUSH2 0x22EB JUMP JUMPDEST PUSH2 0x564 JUMP JUMPDEST STOP JUMPDEST PUSH2 0x15E PUSH2 0x1AB CALLDATASIZE PUSH1 0x4 PUSH2 0x222E JUMP JUMPDEST PUSH2 0x658 JUMP JUMPDEST PUSH2 0x19B PUSH2 0x1BE CALLDATASIZE PUSH1 0x4 PUSH2 0x22EB JUMP JUMPDEST PUSH2 0x963 JUMP JUMPDEST PUSH2 0x1D6 PUSH2 0x1D1 CALLDATASIZE PUSH1 0x4 PUSH2 0x2308 JUMP JUMPDEST PUSH2 0xCF9 JUMP JUMPDEST PUSH1 0x40 MLOAD SWAP1 ISZERO ISZERO DUP2 MSTORE PUSH1 0x20 ADD PUSH2 0x142 JUMP JUMPDEST PUSH2 0x12E PUSH32 0x0 DUP2 JUMP JUMPDEST PUSH2 0x12E PUSH32 0x0 DUP2 JUMP JUMPDEST PUSH2 0x247 PUSH2 0x242 CALLDATASIZE PUSH1 0x4 PUSH2 0x2356 JUMP JUMPDEST PUSH2 0xFA4 JUMP JUMPDEST PUSH1 0x40 MLOAD SWAP1 DUP2 MSTORE PUSH1 0x20 ADD PUSH2 0x142 JUMP JUMPDEST PUSH2 0x247 PUSH2 0x1027 JUMP JUMPDEST PUSH2 0x19B PUSH2 0x26B CALLDATASIZE PUSH1 0x4 PUSH2 0x239D JUMP JUMPDEST PUSH2 0x1038 JUMP JUMPDEST PUSH2 0x247 PUSH2 0x27E CALLDATASIZE PUSH1 0x4 PUSH2 0x22EB JUMP JUMPDEST PUSH2 0x12A2 JUMP JUMPDEST PUSH2 0x247 PUSH2 0x291 CALLDATASIZE PUSH1 0x4 PUSH2 0x22EB JUMP JUMPDEST PUSH2 0x14F6 JUMP JUMPDEST PUSH2 0x29E PUSH2 0x1503 JUMP JUMPDEST PUSH1 0x40 MLOAD PUSH2 0x142 SWAP2 SWAP1 PUSH2 0x245C JUMP JUMPDEST PUSH2 0x1D6 PUSH2 0x2B9 CALLDATASIZE PUSH1 0x4 PUSH2 0x22EB JUMP JUMPDEST PUSH2 0x150F JUMP JUMPDEST PUSH2 0x19B PUSH2 0x2CC CALLDATASIZE PUSH1 0x4 PUSH2 0x22EB JUMP JUMPDEST PUSH2 0x151B JUMP JUMPDEST PUSH2 0x12E PUSH32 0x0 DUP2 JUMP JUMPDEST PUSH1 0x0 PUSH2 0x304 DUP2 DUP4 PUSH2 0x19AB JUMP JUMPDEST SWAP3 SWAP2 POP POP JUMP JUMPDEST DUP2 MLOAD PUSH1 0x0 SWAP1 DUP2 SWAP1 PUSH1 0x0 NOT DUP3 JUMPDEST DUP3 DUP2 LT ISZERO PUSH2 0x41A JUMPI PUSH1 0x0 PUSH2 0x32A DUP2 DUP4 PUSH2 0x19AB JUMP JUMPDEST SWAP1 POP PUSH1 0x0 DUP9 DUP4 DUP2 MLOAD DUP2 LT PUSH2 0x340 JUMPI PUSH2 0x340 PUSH2 0x24A9 JUMP JUMPDEST PUSH1 0x20 MUL PUSH1 0x20 ADD ADD MLOAD SWAP1 POP PUSH1 0x0 PUSH2 0x360 DUP4 PUSH1 0x2 PUSH2 0x19B7 SWAP1 SWAP2 SWAP1 PUSH4 0xFFFFFFFF AND JUMP JUMPDEST SWAP1 POP PUSH1 0x0 PUSH2 0x36E DUP13 DUP4 PUSH2 0x19CC JUMP JUMPDEST SWAP1 POP DUP1 DUP4 LT PUSH2 0x380 JUMPI POP POP POP POP PUSH2 0x408 JUMP JUMPDEST PUSH1 0x0 PUSH2 0x3A3 DUP12 PUSH2 0x392 PUSH1 0x12 PUSH1 0xA PUSH2 0x25B9 JUMP JUMPDEST PUSH2 0x39C SWAP2 SWAP1 PUSH2 0x25C5 JUMP JUMPDEST DUP5 SWAP1 PUSH2 0x19CC JUMP JUMPDEST SWAP1 POP PUSH2 0x3B1 PUSH1 0x12 PUSH1 0xA PUSH2 0x25B9 JUMP JUMPDEST DUP2 GT PUSH2 0x3BD JUMPI DUP1 PUSH2 0x3C9 JUMP JUMPDEST PUSH2 0x3C9 PUSH1 0x12 PUSH1 0xA PUSH2 0x25B9 JUMP JUMPDEST SWAP1 POP PUSH1 0x0 PUSH2 0x3D7 DUP15 DUP4 PUSH2 0x19CC JUMP JUMPDEST SWAP1 POP PUSH1 0x0 PUSH2 0x3E5 DUP7 DUP4 PUSH2 0x25D8 JUMP JUMPDEST SWAP1 POP DUP11 DUP2 GT PUSH2 0x3FA JUMPI POP POP POP POP POP POP POP PUSH2 0x408 JUMP JUMPDEST DUP1 SWAP11 POP DUP8 SWAP9 POP POP POP POP POP POP POP POP JUMPDEST DUP1 PUSH2 0x412 DUP2 PUSH2 0x25EB JUMP JUMPDEST SWAP2 POP POP PUSH2 0x316 JUMP JUMPDEST POP PUSH1 0x0 NOT DUP2 SGT PUSH2 0x471 JUMPI PUSH1 0x40 MLOAD PUSH3 0x461BCD PUSH1 0xE5 SHL DUP2 MSTORE PUSH1 0x20 PUSH1 0x4 DUP3 ADD MSTORE PUSH1 0x1D PUSH1 0x24 DUP3 ADD MSTORE PUSH32 0x6572726F722072657472696576696E67206465706F73697420706F6F6C000000 PUSH1 0x44 DUP3 ADD MSTORE PUSH1 0x64 ADD JUMPDEST PUSH1 0x40 MLOAD DUP1 SWAP2 SUB SWAP1 REVERT JUMPDEST SWAP7 SWAP2 SWAP6 POP SWAP1 SWAP4 POP POP POP POP JUMP JUMPDEST PUSH1 0x60 PUSH1 0x0 PUSH2 0x48B PUSH1 0x0 PUSH2 0x19EE JUMP JUMPDEST SWAP1 POP PUSH1 0x0 DUP2 PUSH8 0xFFFFFFFFFFFFFFFF DUP2 GT ISZERO PUSH2 0x4A8 JUMPI PUSH2 0x4A8 PUSH2 0x212F JUMP JUMPDEST PUSH1 0x40 MLOAD SWAP1 DUP1 DUP3 MSTORE DUP1 PUSH1 0x20 MUL PUSH1 0x20 ADD DUP3 ADD PUSH1 0x40 MSTORE DUP1 ISZERO PUSH2 0x4ED JUMPI DUP2 PUSH1 0x20 ADD JUMPDEST PUSH1 0x40 DUP1 MLOAD DUP1 DUP3 ADD SWAP1 SWAP2 MSTORE PUSH1 0x0 DUP1 DUP3 MSTORE PUSH1 0x20 DUP3 ADD MSTORE DUP2 MSTORE PUSH1 0x20 ADD SWAP1 PUSH1 0x1 SWAP1 SUB SWAP1 DUP2 PUSH2 0x4C6 JUMPI SWAP1 POP JUMPDEST POP SWAP1 POP PUSH1 0x0 JUMPDEST DUP3 DUP2 LT ISZERO PUSH2 0x55D JUMPI PUSH1 0x0 DUP1 PUSH2 0x509 PUSH1 0x2 DUP5 PUSH2 0x19F8 JUMP JUMPDEST SWAP2 POP SWAP2 POP PUSH1 0x40 MLOAD DUP1 PUSH1 0x40 ADD PUSH1 0x40 MSTORE DUP1 DUP4 PUSH1 0x1 PUSH1 0x1 PUSH1 0xA0 SHL SUB AND DUP2 MSTORE PUSH1 0x20 ADD DUP3 DUP2 MSTORE POP DUP5 DUP5 DUP2 MLOAD DUP2 LT PUSH2 0x53D JUMPI PUSH2 0x53D PUSH2 0x24A9 JUMP JUMPDEST PUSH1 0x20 MUL PUSH1 0x20 ADD ADD DUP2 SWAP1 MSTORE POP POP POP DUP1 DUP1 PUSH2 0x555 SWAP1 PUSH2 0x25EB JUMP JUMPDEST SWAP2 POP POP PUSH2 0x4F3 JUMP JUMPDEST POP SWAP3 SWAP2 POP POP JUMP JUMPDEST CALLER PUSH1 0x1 PUSH1 0x1 PUSH1 0xA0 SHL SUB PUSH32 0x0 AND EQ PUSH2 0x5AC JUMPI PUSH1 0x40 MLOAD PUSH3 0x461BCD PUSH1 0xE5 SHL DUP2 MSTORE PUSH1 0x4 ADD PUSH2 0x468 SWAP1 PUSH2 0x2604 JUMP JUMPDEST PUSH2 0x5B5 DUP2 PUSH2 0x150F JUMP JUMPDEST PUSH2 0x5FA JUMPI PUSH1 0x40 MLOAD PUSH3 0x461BCD PUSH1 0xE5 SHL DUP2 MSTORE PUSH1 0x20 PUSH1 0x4 DUP3 ADD MSTORE PUSH1 0x16 PUSH1 0x24 DUP3 ADD MSTORE PUSH22 0x1C1BDBDB081A5CC81B9BDD081C9959DA5CDD195C9959 PUSH1 0x52 SHL PUSH1 0x44 DUP3 ADD MSTORE PUSH1 0x64 ADD PUSH2 0x468 JUMP JUMPDEST PUSH2 0x605 PUSH1 0x2 DUP3 PUSH2 0x19B7 JUMP JUMPDEST PUSH1 0x0 SUB PUSH2 0x64C JUMPI PUSH1 0x40 MLOAD PUSH3 0x461BCD PUSH1 0xE5 SHL DUP2 MSTORE PUSH1 0x20 PUSH1 0x4 DUP3 ADD MSTORE PUSH1 0x15 PUSH1 0x24 DUP3 ADD MSTORE PUSH21 0x706F6F6C2077656967687420616C7265616479203 PUSH1 0x5C SHL PUSH1 0x44 DUP3 ADD MSTORE PUSH1 0x64 ADD PUSH2 0x468 JUMP JUMPDEST PUSH2 0x655 DUP2 PUSH2 0x1A14 JUMP JUMPDEST POP JUMP JUMPDEST DUP2 MLOAD PUSH1 0x0 SWAP1 DUP2 SWAP1 PUSH1 0x0 NOT DUP3 JUMPDEST DUP3 DUP2 LT ISZERO PUSH2 0x909 JUMPI PUSH1 0x0 PUSH2 0x678 DUP2 DUP4 PUSH2 0x19AB JUMP JUMPDEST SWAP1 POP PUSH1 0x0 PUSH2 0x687 PUSH1 0x2 DUP4 PUSH2 0x19B7 JUMP JUMPDEST SWAP1 POP PUSH1 0x0 DUP10 DUP5 DUP2 MLOAD DUP2 LT PUSH2 0x69D JUMPI PUSH2 0x69D PUSH2 0x24A9 JUMP JUMPDEST PUSH1 0x20 MUL PUSH1 0x20 ADD ADD MLOAD SWAP1 POP DUP2 PUSH1 0x0 SUB PUSH2 0x894 JUMPI PUSH1 0x0 PUSH32 0x0 PUSH1 0x1 PUSH1 0x1 PUSH1 0xA0 SHL SUB AND PUSH4 0x2630C12F PUSH1 0x40 MLOAD DUP2 PUSH4 0xFFFFFFFF AND PUSH1 0xE0 SHL DUP2 MSTORE PUSH1 0x4 ADD PUSH1 0x20 PUSH1 0x40 MLOAD DUP1 DUP4 SUB DUP2 DUP7 GAS STATICCALL ISZERO DUP1 ISZERO PUSH2 0x70F JUMPI RETURNDATASIZE PUSH1 0x0 DUP1 RETURNDATACOPY RETURNDATASIZE PUSH1 0x0 REVERT JUMPDEST POP POP POP POP PUSH1 0x40 MLOAD RETURNDATASIZE PUSH1 0x1F NOT PUSH1 0x1F DUP3 ADD AND DUP3 ADD DUP1 PUSH1 0x40 MSTORE POP DUP2 ADD SWAP1 PUSH2 0x733 SWAP2 SWAP1 PUSH2 0x262C JUMP JUMPDEST PUSH1 0x40 MLOAD PUSH4 0x8B2F0F4F PUSH1 0xE0 SHL DUP2 MSTORE PUSH1 0x1 PUSH1 0x1 PUSH1 0xA0 SHL SUB PUSH32 0x0 DUP2 AND PUSH1 0x4 DUP4 ADD MSTORE SWAP2 SWAP1 SWAP2 AND SWAP1 PUSH4 0x8B2F0F4F SWAP1 PUSH1 0x24 ADD PUSH1 0x20 PUSH1 0x40 MLOAD DUP1 DUP4 SUB DUP2 DUP7 GAS STATICCALL ISZERO DUP1 ISZERO PUSH2 0x79B JUMPI RETURNDATASIZE PUSH1 0x0 DUP1 RETURNDATACOPY RETURNDATASIZE PUSH1 0x0 REVERT JUMPDEST POP POP POP POP PUSH1 0x40 MLOAD RETURNDATASIZE PUSH1 0x1F NOT PUSH1 0x1F DUP3 ADD AND DUP3 ADD DUP1 PUSH1 0x40 MSTORE POP DUP2 ADD SWAP1 PUSH2 0x7BF SWAP2 SWAP1 PUSH2 0x2649 JUMP JUMPDEST SWAP1 POP PUSH1 0x0 PUSH32 0x0 PUSH1 0x1 PUSH1 0x1 PUSH1 0xA0 SHL SUB AND PUSH4 0x313CE567 PUSH1 0x40 MLOAD DUP2 PUSH4 0xFFFFFFFF AND PUSH1 0xE0 SHL DUP2 MSTORE PUSH1 0x4 ADD PUSH1 0x20 PUSH1 0x40 MLOAD DUP1 DUP4 SUB DUP2 DUP7 GAS STATICCALL ISZERO DUP1 ISZERO PUSH2 0x821 JUMPI RETURNDATASIZE PUSH1 0x0 DUP1 RETURNDATACOPY RETURNDATASIZE PUSH1 0x0 REVERT JUMPDEST POP POP POP POP PUSH1 0x40 MLOAD RETURNDATASIZE PUSH1 0x1F NOT PUSH1 0x1F DUP3 ADD AND DUP3 ADD DUP1 PUSH1 0x40 MSTORE POP DUP2 ADD SWAP1 PUSH2 0x845 SWAP2 SWAP1 PUSH2 0x2662 JUMP JUMPDEST PUSH2 0x850 SWAP1 PUSH1 0xA PUSH2 0x2685 JUMP JUMPDEST PUSH2 0x85A DUP5 DUP5 PUSH2 0x2694 JUMP JUMPDEST PUSH2 0x864 SWAP2 SWAP1 PUSH2 0x26AB JUMP JUMPDEST SWAP1 POP PUSH2 0x87A PUSH1 0x2 PUSH9 0x56BC75E2D63100000 PUSH2 0x26AB JUMP JUMPDEST DUP2 LT PUSH2 0x891 JUMPI POP SWAP4 SWAP8 POP SWAP6 POP PUSH2 0x95B SWAP5 POP POP POP POP POP JUMP JUMPDEST POP POP JUMPDEST PUSH1 0x0 PUSH2 0x8A0 DUP13 DUP5 PUSH2 0x19CC JUMP JUMPDEST SWAP1 POP DUP1 DUP3 GT PUSH2 0x8B2 JUMPI POP POP POP POP PUSH2 0x8F7 JUMP JUMPDEST PUSH1 0x0 PUSH2 0x8BE DUP3 DUP13 PUSH2 0x19CC JUMP JUMPDEST PUSH2 0x8C8 SWAP1 DUP4 PUSH2 0x25D8 JUMP JUMPDEST SWAP1 POP PUSH1 0x0 PUSH2 0x8D6 DUP3 DUP6 PUSH2 0x25D8 JUMP JUMPDEST SWAP1 POP DUP10 DUP2 GT PUSH2 0x8EA JUMPI POP POP POP POP POP POP PUSH2 0x8F7 JUMP JUMPDEST DUP1 SWAP10 POP DUP7 SWAP8 POP POP POP POP POP POP POP JUMPDEST DUP1 PUSH2 0x901 DUP2 PUSH2 0x25EB JUMP JUMPDEST SWAP2 POP POP PUSH2 0x664 JUMP JUMPDEST POP PUSH1 0x0 NOT DUP2 SGT PUSH2 0x471 JUMPI PUSH1 0x40 MLOAD PUSH3 0x461BCD PUSH1 0xE5 SHL DUP2 MSTORE PUSH1 0x20 PUSH1 0x4 DUP3 ADD MSTORE PUSH1 0x1E PUSH1 0x24 DUP3 ADD MSTORE PUSH32 0x6572726F722072657472696576696E6720776974686472617720706F6F6C0000 PUSH1 0x44 DUP3 ADD MSTORE PUSH1 0x64 ADD PUSH2 0x468 JUMP JUMPDEST SWAP4 POP SWAP4 SWAP2 POP POP JUMP JUMPDEST CALLER PUSH1 0x1 PUSH1 0x1 PUSH1 0xA0 SHL SUB PUSH32 0x0 AND EQ PUSH2 0x9AB JUMPI PUSH1 0x40 MLOAD PUSH3 0x461BCD PUSH1 0xE5 SHL DUP2 MSTORE PUSH1 0x4 ADD PUSH2 0x468 SWAP1 PUSH2 0x2604 JUMP JUMPDEST PUSH2 0x9B6 PUSH1 0x0 DUP3 PUSH2 0x1D6B JUMP JUMPDEST PUSH2 0x9F3 JUMPI PUSH1 0x40 MLOAD PUSH3 0x461BCD PUSH1 0xE5 SHL DUP2 MSTORE PUSH1 0x20 PUSH1 0x4 DUP3 ADD MSTORE PUSH1 0xE PUSH1 0x24 DUP3 ADD MSTORE PUSH14 0x1C1BDBDB081B9BDD081859191959 PUSH1 0x92 SHL PUSH1 0x44 DUP3 ADD MSTORE PUSH1 0x64 ADD PUSH2 0x468 JUMP JUMPDEST PUSH1 0x1 PUSH2 0x9FF PUSH1 0x0 PUSH2 0x19EE JUMP JUMPDEST GT PUSH2 0xA4C JUMPI PUSH1 0x40 MLOAD PUSH3 0x461BCD PUSH1 0xE5 SHL DUP2 MSTORE PUSH1 0x20 PUSH1 0x4 DUP3 ADD MSTORE PUSH1 0x17 PUSH1 0x24 DUP3 ADD MSTORE PUSH32 0x63616E6E6F742072656D6F7665206C61737420706F6F6C000000000000000000 PUSH1 0x44 DUP3 ADD MSTORE PUSH1 0x64 ADD PUSH2 0x468 JUMP JUMPDEST PUSH1 0x40 MLOAD PUSH4 0x55EB6B35 PUSH1 0xE0 SHL DUP2 MSTORE PUSH1 0x1 PUSH1 0x1 PUSH1 0xA0 SHL SUB DUP3 DUP2 AND PUSH1 0x4 DUP4 ADD MSTORE PUSH1 0x0 SWAP2 PUSH32 0x0 SWAP1 SWAP2 AND SWAP1 PUSH4 0x55EB6B35 SWAP1 PUSH1 0x24 ADD PUSH1 0x20 PUSH1 0x40 MLOAD DUP1 DUP4 SUB DUP2 DUP7 GAS STATICCALL ISZERO DUP1 ISZERO PUSH2 0xAB7 JUMPI RETURNDATASIZE PUSH1 0x0 DUP1 RETURNDATACOPY RETURNDATASIZE PUSH1 0x0 REVERT JUMPDEST POP POP POP POP PUSH1 0x40 MLOAD RETURNDATASIZE PUSH1 0x1F NOT PUSH1 0x1F DUP3 ADD AND DUP3 ADD DUP1 PUSH1 0x40 MSTORE POP DUP2 ADD SWAP1 PUSH2 0xADB SWAP2 SWAP1 PUSH2 0x262C JUMP JUMPDEST PUSH1 0x40 MLOAD PUSH4 0x3DFA59D1 PUSH1 0xE0 SHL DUP2 MSTORE PUSH1 0x1 PUSH1 0x1 PUSH1 0xA0 SHL SUB PUSH32 0x0 DUP2 AND PUSH1 0x4 DUP4 ADD MSTORE DUP5 DUP2 AND PUSH1 0x24 DUP4 ADD MSTORE SWAP2 SWAP3 POP PUSH1 0x0 SWAP2 DUP4 AND SWAP1 PUSH4 0x3DFA59D1 SWAP1 PUSH1 0x44 ADD PUSH1 0x20 PUSH1 0x40 MLOAD DUP1 DUP4 SUB DUP2 DUP7 GAS STATICCALL ISZERO DUP1 ISZERO PUSH2 0xB4F JUMPI RETURNDATASIZE PUSH1 0x0 DUP1 RETURNDATACOPY RETURNDATASIZE PUSH1 0x0 REVERT JUMPDEST POP POP POP POP PUSH1 0x40 MLOAD RETURNDATASIZE PUSH1 0x1F NOT PUSH1 0x1F DUP3 ADD AND DUP3 ADD DUP1 PUSH1 0x40 MSTORE POP DUP2 ADD SWAP1 PUSH2 0xB73 SWAP2 SWAP1 PUSH2 0x2649 JUMP JUMPDEST SWAP1 POP PUSH9 0x56BC75E2D63100000 DUP2 LT PUSH2 0xBCD JUMPI PUSH1 0x40 MLOAD PUSH3 0x461BCD PUSH1 0xE5 SHL DUP2 MSTORE PUSH1 0x20 PUSH1 0x4 DUP3 ADD MSTORE PUSH1 0x18 PUSH1 0x24 DUP3 ADD MSTORE PUSH32 0x706F6F6C2068617320616C6C6F63617465642066756E64730000000000000000 PUSH1 0x44 DUP3 ADD MSTORE PUSH1 0x64 ADD PUSH2 0x468 JUMP JUMPDEST PUSH1 0x0 PUSH2 0xBDA PUSH1 0x2 DUP6 PUSH2 0x19B7 JUMP JUMPDEST SWAP1 POP DUP1 ISZERO PUSH2 0xC20 JUMPI PUSH1 0x40 MLOAD PUSH3 0x461BCD PUSH1 0xE5 SHL DUP2 MSTORE PUSH1 0x20 PUSH1 0x4 DUP3 ADD MSTORE PUSH1 0x13 PUSH1 0x24 DUP3 ADD MSTORE PUSH19 0x1C1BDBDB081A185CC81DD95A59DA1D081CD95D PUSH1 0x6A SHL PUSH1 0x44 DUP3 ADD MSTORE PUSH1 0x64 ADD PUSH2 0x468 JUMP JUMPDEST PUSH2 0xC2B PUSH1 0x0 DUP6 PUSH2 0x1D8D JUMP JUMPDEST PUSH2 0xC6A JUMPI PUSH1 0x40 MLOAD PUSH3 0x461BCD PUSH1 0xE5 SHL DUP2 MSTORE PUSH1 0x20 PUSH1 0x4 DUP3 ADD MSTORE PUSH1 0x10 PUSH1 0x24 DUP3 ADD MSTORE PUSH16 0x1C1BDBDB081B9BDD081C995B5BDD9959 PUSH1 0x82 SHL PUSH1 0x44 DUP3 ADD MSTORE PUSH1 0x64 ADD PUSH2 0x468 JUMP JUMPDEST PUSH2 0xC75 PUSH1 0x2 DUP6 PUSH2 0x1DA2 JUMP JUMPDEST PUSH2 0xCB6 JUMPI PUSH1 0x40 MLOAD PUSH3 0x461BCD PUSH1 0xE5 SHL DUP2 MSTORE PUSH1 0x20 PUSH1 0x4 DUP3 ADD MSTORE PUSH1 0x12 PUSH1 0x24 DUP3 ADD MSTORE PUSH18 0x1DD95A59DA1D081B9BDD081C995B5BDD9959 PUSH1 0x72 SHL PUSH1 0x44 DUP3 ADD MSTORE PUSH1 0x64 ADD PUSH2 0x468 JUMP JUMPDEST PUSH1 0x40 MLOAD PUSH1 0x1 PUSH1 0x1 PUSH1 0xA0 SHL SUB DUP6 AND DUP2 MSTORE PUSH32 0xCA2456580E344539A90D4D0369FC77866A3135141E2E51621B88D2F010C6BBE2 SWAP1 PUSH1 0x20 ADD JUMPDEST PUSH1 0x40 MLOAD DUP1 SWAP2 SUB SWAP1 LOG1 POP POP POP POP JUMP JUMPDEST PUSH1 0x0 DUP3 PUSH1 0x0 SUB PUSH2 0xD0B JUMPI POP PUSH1 0x1 PUSH2 0xF9D JUMP JUMPDEST PUSH1 0x0 JUMPDEST DUP5 MLOAD DUP2 LT ISZERO PUSH2 0xF97 JUMPI PUSH1 0x0 PUSH2 0xD2E PUSH2 0xD26 DUP3 DUP5 PUSH2 0x19AB JUMP JUMPDEST PUSH1 0x2 SWAP1 PUSH2 0x19B7 JUMP JUMPDEST SWAP1 POP PUSH1 0x0 DUP7 DUP4 DUP2 MLOAD DUP2 LT PUSH2 0xD44 JUMPI PUSH2 0xD44 PUSH2 0x24A9 JUMP JUMPDEST PUSH1 0x20 MUL PUSH1 0x20 ADD ADD MLOAD SWAP1 POP DUP2 PUSH1 0x0 SUB PUSH2 0xF3E JUMPI PUSH1 0x0 PUSH32 0x0 PUSH1 0x1 PUSH1 0x1 PUSH1 0xA0 SHL SUB AND PUSH4 0x2630C12F PUSH1 0x40 MLOAD DUP2 PUSH4 0xFFFFFFFF AND PUSH1 0xE0 SHL DUP2 MSTORE PUSH1 0x4 ADD PUSH1 0x20 PUSH1 0x40 MLOAD DUP1 DUP4 SUB DUP2 DUP7 GAS STATICCALL ISZERO DUP1 ISZERO PUSH2 0xDB6 JUMPI RETURNDATASIZE PUSH1 0x0 DUP1 RETURNDATACOPY RETURNDATASIZE PUSH1 0x0 REVERT JUMPDEST POP POP POP POP PUSH1 0x40 MLOAD RETURNDATASIZE PUSH1 0x1F NOT PUSH1 0x1F DUP3 ADD AND DUP3 ADD DUP1 PUSH1 0x40 MSTORE POP DUP2 ADD SWAP1 PUSH2 0xDDA SWAP2 SWAP1 PUSH2 0x262C JUMP JUMPDEST PUSH1 0x40 MLOAD PUSH4 0x8B2F0F4F PUSH1 0xE0 SHL DUP2 MSTORE PUSH1 0x1 PUSH1 0x1 PUSH1 0xA0 SHL SUB PUSH32 0x0 DUP2 AND PUSH1 0x4 DUP4 ADD MSTORE SWAP2 SWAP1 SWAP2 AND SWAP1 PUSH4 0x8B2F0F4F SWAP1 PUSH1 0x24 ADD PUSH1 0x20 PUSH1 0x40 MLOAD DUP1 DUP4 SUB DUP2 DUP7 GAS STATICCALL ISZERO DUP1 ISZERO PUSH2 0xE42 JUMPI RETURNDATASIZE PUSH1 0x0 DUP1 RETURNDATACOPY RETURNDATASIZE PUSH1 0x0 REVERT JUMPDEST POP POP POP POP PUSH1 0x40 MLOAD RETURNDATASIZE PUSH1 0x1F NOT PUSH1 0x1F DUP3 ADD AND DUP3 ADD DUP1 PUSH1 0x40 MSTORE POP DUP2 ADD SWAP1 PUSH2 0xE66 SWAP2 SWAP1 PUSH2 0x2649 JUMP JUMPDEST SWAP1 POP PUSH1 0x0 PUSH32 0x0 PUSH1 0x1 PUSH1 0x1 PUSH1 0xA0 SHL SUB AND PUSH4 0x313CE567 PUSH1 0x40 MLOAD DUP2 PUSH4 0xFFFFFFFF AND PUSH1 0xE0 SHL DUP2 MSTORE PUSH1 0x4 ADD PUSH1 0x20 PUSH1 0x40 MLOAD DUP1 DUP4 SUB DUP2 DUP7 GAS STATICCALL ISZERO DUP1 ISZERO PUSH2 0xEC8 JUMPI RETURNDATASIZE PUSH1 0x0 DUP1 RETURNDATACOPY RETURNDATASIZE PUSH1 0x0 REVERT JUMPDEST POP POP POP POP PUSH1 0x40 MLOAD RETURNDATASIZE PUSH1 0x1F NOT PUSH1 0x1F DUP3 ADD AND DUP3 ADD DUP1 PUSH1 0x40 MSTORE POP DUP2 ADD SWAP1 PUSH2 0xEEC SWAP2 SWAP1 PUSH2 0x2662 JUMP JUMPDEST PUSH2 0xEF7 SWAP1 PUSH1 0xA PUSH2 0x2685 JUMP JUMPDEST PUSH2 0xF01 DUP5 DUP5 PUSH2 0x2694 JUMP JUMPDEST PUSH2 0xF0B SWAP2 SWAP1 PUSH2 0x26AB JUMP JUMPDEST SWAP1 POP PUSH2 0xF21 PUSH1 0x2 PUSH9 0x56BC75E2D63100000 PUSH2 0x26AB JUMP JUMPDEST DUP2 LT PUSH2 0xF35 JUMPI PUSH1 0x0 SWAP6 POP POP POP POP POP POP PUSH2 0xF9D JUMP JUMPDEST POP POP POP POP PUSH2 0xF85 JUMP JUMPDEST PUSH1 0x0 PUSH2 0xF4A DUP8 DUP5 PUSH2 0x19CC JUMP JUMPDEST SWAP1 POP PUSH1 0x0 PUSH2 0xF58 DUP3 DUP5 PUSH2 0x1DB7 JUMP JUMPDEST SWAP1 POP PUSH1 0x0 PUSH2 0xF66 DUP3 DUP5 PUSH2 0x1DCF JUMP JUMPDEST SWAP1 POP DUP8 DUP2 GT ISZERO PUSH2 0xF7F JUMPI PUSH1 0x0 SWAP7 POP POP POP POP POP POP POP PUSH2 0xF9D JUMP JUMPDEST POP POP POP POP POP JUMPDEST DUP1 PUSH2 0xF8F DUP2 PUSH2 0x25EB JUMP JUMPDEST SWAP2 POP POP PUSH2 0xD0E JUMP JUMPDEST POP PUSH1 0x1 SWAP1 POP JUMPDEST SWAP4 SWAP3 POP POP POP JUMP JUMPDEST PUSH1 0x0 DUP1 PUSH1 0x0 JUMPDEST DUP4 MLOAD DUP2 LT ISZERO PUSH2 0x101F JUMPI PUSH1 0x0 PUSH2 0xFC2 PUSH2 0xD26 DUP3 DUP5 PUSH2 0x19AB JUMP JUMPDEST SWAP1 POP PUSH1 0x0 PUSH2 0xFD0 DUP8 DUP4 PUSH2 0x19CC JUMP JUMPDEST SWAP1 POP PUSH2 0xFFE DUP7 DUP5 DUP2 MLOAD DUP2 LT PUSH2 0xFE7 JUMPI PUSH2 0xFE7 PUSH2 0x24A9 JUMP JUMPDEST PUSH1 0x20 MUL PUSH1 0x20 ADD ADD MLOAD DUP3 PUSH2 0x1DB7 SWAP1 SWAP2 SWAP1 PUSH4 0xFFFFFFFF AND JUMP JUMPDEST PUSH2 0x1008 SWAP1 DUP6 PUSH2 0x25C5 JUMP JUMPDEST SWAP4 POP POP POP DUP1 DUP1 PUSH2 0x1017 SWAP1 PUSH2 0x25EB JUMP JUMPDEST SWAP2 POP POP PUSH2 0xFAA JUMP JUMPDEST POP SWAP4 SWAP3 POP POP POP JUMP JUMPDEST PUSH1 0x0 PUSH2 0x1033 PUSH1 0x0 PUSH2 0x19EE JUMP JUMPDEST SWAP1 POP SWAP1 JUMP JUMPDEST CALLER PUSH1 0x1 PUSH1 0x1 PUSH1 0xA0 SHL SUB PUSH32 0x0 AND EQ PUSH2 0x1080 JUMPI PUSH1 0x40 MLOAD PUSH3 0x461BCD PUSH1 0xE5 SHL DUP2 MSTORE PUSH1 0x4 ADD PUSH2 0x468 SWAP1 PUSH2 0x2604 JUMP JUMPDEST PUSH2 0x108A PUSH1 0x0 PUSH2 0x19EE JUMP JUMPDEST DUP2 MLOAD EQ PUSH2 0x10D0 JUMPI PUSH1 0x40 MLOAD PUSH3 0x461BCD PUSH1 0xE5 SHL DUP2 MSTORE PUSH1 0x20 PUSH1 0x4 DUP3 ADD MSTORE PUSH1 0x14 PUSH1 0x24 DUP3 ADD MSTORE PUSH20 0x696E76616C696420706F6F6C2077656967687473 PUSH1 0x60 SHL PUSH1 0x44 DUP3 ADD MSTORE PUSH1 0x64 ADD PUSH2 0x468 JUMP JUMPDEST PUSH1 0x0 DUP1 PUSH1 0x0 JUMPDEST DUP4 MLOAD DUP2 LT ISZERO PUSH2 0x1242 JUMPI PUSH1 0x0 DUP5 DUP3 DUP2 MLOAD DUP2 LT PUSH2 0x10F3 JUMPI PUSH2 0x10F3 PUSH2 0x24A9 JUMP JUMPDEST PUSH1 0x20 MUL PUSH1 0x20 ADD ADD MLOAD PUSH1 0x0 ADD MLOAD SWAP1 POP DUP3 PUSH1 0x1 PUSH1 0x1 PUSH1 0xA0 SHL SUB AND DUP2 PUSH1 0x1 PUSH1 0x1 PUSH1 0xA0 SHL SUB AND GT PUSH2 0x1155 JUMPI PUSH1 0x40 MLOAD PUSH3 0x461BCD PUSH1 0xE5 SHL DUP2 MSTORE PUSH1 0x20 PUSH1 0x4 DUP3 ADD MSTORE PUSH1 0x10 PUSH1 0x24 DUP3 ADD MSTORE PUSH16 0x1C1BDBDB1CC81B9BDD081CDBDC9D1959 PUSH1 0x82 SHL PUSH1 0x44 DUP3 ADD MSTORE PUSH1 0x64 ADD PUSH2 0x468 JUMP JUMPDEST PUSH2 0x115E DUP2 PUSH2 0x150F JUMP JUMPDEST PUSH2 0x11A3 JUMPI PUSH1 0x40 MLOAD PUSH3 0x461BCD PUSH1 0xE5 SHL DUP2 MSTORE PUSH1 0x20 PUSH1 0x4 DUP3 ADD MSTORE PUSH1 0x16 PUSH1 0x24 DUP3 ADD MSTORE PUSH22 0x1C1BDBDB081A5CC81B9BDD081C9959DA5CDD195C9959 PUSH1 0x52 SHL PUSH1 0x44 DUP3 ADD MSTORE PUSH1 0x64 ADD PUSH2 0x468 JUMP JUMPDEST PUSH1 0x0 DUP6 DUP4 DUP2 MLOAD DUP2 LT PUSH2 0x11B7 JUMPI PUSH2 0x11B7 PUSH2 0x24A9 JUMP JUMPDEST PUSH1 0x20 MUL PUSH1 0x20 ADD ADD MLOAD PUSH1 0x20 ADD MLOAD SWAP1 POP PUSH2 0x11DB DUP3 DUP3 PUSH1 0x2 PUSH2 0x1DE8 SWAP1 SWAP3 SWAP2 SWAP1 PUSH4 0xFFFFFFFF AND JUMP JUMPDEST POP DUP2 PUSH1 0x1 PUSH1 0x1 PUSH1 0xA0 SHL SUB AND PUSH32 0x49175C3467EDEBA7662E939BF84305EAF5084072855B0560F6AC3E145CD172AE DUP3 PUSH1 0x40 MLOAD PUSH2 0x1217 SWAP2 DUP2 MSTORE PUSH1 0x20 ADD SWAP1 JUMP JUMPDEST PUSH1 0x40 MLOAD DUP1 SWAP2 SUB SWAP1 LOG2 PUSH2 0x1229 DUP2 DUP7 PUSH2 0x25C5 JUMP JUMPDEST SWAP5 POP SWAP1 SWAP3 POP DUP2 SWAP1 POP PUSH2 0x123A DUP2 PUSH2 0x25EB JUMP JUMPDEST SWAP2 POP POP PUSH2 0x10D6 JUMP JUMPDEST POP PUSH2 0x124F PUSH1 0x12 PUSH1 0xA PUSH2 0x25B9 JUMP JUMPDEST DUP3 EQ PUSH2 0x129D JUMPI PUSH1 0x40 MLOAD PUSH3 0x461BCD PUSH1 0xE5 SHL DUP2 MSTORE PUSH1 0x20 PUSH1 0x4 DUP3 ADD MSTORE PUSH1 0x17 PUSH1 0x24 DUP3 ADD MSTORE PUSH32 0x7765696768747320646F206E6F742073756D20746F2031000000000000000000 PUSH1 0x44 DUP3 ADD MSTORE PUSH1 0x64 ADD PUSH2 0x468 JUMP JUMPDEST POP POP POP JUMP JUMPDEST PUSH1 0x0 CALLER PUSH1 0x1 PUSH1 0x1 PUSH1 0xA0 SHL SUB PUSH32 0x0 AND EQ PUSH2 0x12EC JUMPI PUSH1 0x40 MLOAD PUSH3 0x461BCD PUSH1 0xE5 SHL DUP2 MSTORE PUSH1 0x4 ADD PUSH2 0x468 SWAP1 PUSH2 0x2604 JUMP JUMPDEST PUSH2 0x12F5 DUP3 PUSH2 0x150F JUMP JUMPDEST PUSH2 0x1341 JUMPI PUSH1 0x40 MLOAD PUSH3 0x461BCD PUSH1 0xE5 SHL DUP2 MSTORE PUSH1 0x20 PUSH1 0x4 DUP3 ADD MSTORE PUSH1 0x19 PUSH1 0x24 DUP3 ADD MSTORE PUSH32 0x637572766520706F6F6C206E6F74207265676973746572656400000000000000 PUSH1 0x44 DUP3 ADD MSTORE PUSH1 0x64 ADD PUSH2 0x468 JUMP JUMPDEST PUSH1 0x0 PUSH32 0x0 PUSH1 0x1 PUSH1 0x1 PUSH1 0xA0 SHL SUB AND PUSH4 0x9F82B217 PUSH1 0x40 MLOAD DUP2 PUSH4 0xFFFFFFFF AND PUSH1 0xE0 SHL DUP2 MSTORE PUSH1 0x4 ADD PUSH1 0x20 PUSH1 0x40 MLOAD DUP1 DUP4 SUB DUP2 DUP7 GAS STATICCALL ISZERO DUP1 ISZERO PUSH2 0x13A1 JUMPI RETURNDATASIZE PUSH1 0x0 DUP1 RETURNDATACOPY RETURNDATASIZE PUSH1 0x0 REVERT JUMPDEST POP POP POP POP PUSH1 0x40 MLOAD RETURNDATASIZE PUSH1 0x1F NOT PUSH1 0x1F DUP3 ADD AND DUP3 ADD DUP1 PUSH1 0x40 MSTORE POP DUP2 ADD SWAP1 PUSH2 0x13C5 SWAP2 SWAP1 PUSH2 0x262C JUMP JUMPDEST PUSH1 0x40 MLOAD PUSH4 0x43B55F35 PUSH1 0xE0 SHL DUP2 MSTORE PUSH1 0x1 PUSH1 0x1 PUSH1 0xA0 SHL SUB DUP6 DUP2 AND PUSH1 0x4 DUP4 ADD MSTORE SWAP2 SWAP3 POP PUSH1 0x0 SWAP2 DUP4 AND SWAP1 PUSH4 0x43B55F35 SWAP1 PUSH1 0x24 ADD PUSH1 0x20 PUSH1 0x40 MLOAD DUP1 DUP4 SUB DUP2 DUP7 GAS STATICCALL ISZERO DUP1 ISZERO PUSH2 0x1411 JUMPI RETURNDATASIZE PUSH1 0x0 DUP1 RETURNDATACOPY RETURNDATASIZE PUSH1 0x0 REVERT JUMPDEST POP POP POP POP PUSH1 0x40 MLOAD RETURNDATASIZE PUSH1 0x1F NOT PUSH1 0x1F DUP3 ADD AND DUP3 ADD DUP1 PUSH1 0x40 MSTORE POP DUP2 ADD SWAP1 PUSH2 0x1435 SWAP2 SWAP1 PUSH2 0x2649 JUMP JUMPDEST PUSH1 0x40 MLOAD PUSH4 0x1CEC69E5 PUSH1 0xE1 SHL DUP2 MSTORE PUSH1 0x4 DUP2 ADD DUP3 SWAP1 MSTORE SWAP1 SWAP2 POP PUSH1 0x1 PUSH1 0x1 PUSH1 0xA0 SHL SUB DUP4 AND SWAP1 PUSH4 0x39D8D3CA SWAP1 PUSH1 0x24 ADD PUSH1 0x20 PUSH1 0x40 MLOAD DUP1 DUP4 SUB DUP2 DUP7 GAS STATICCALL ISZERO DUP1 ISZERO PUSH2 0x147D JUMPI RETURNDATASIZE PUSH1 0x0 DUP1 RETURNDATACOPY RETURNDATASIZE PUSH1 0x0 REVERT JUMPDEST POP POP POP POP PUSH1 0x40 MLOAD RETURNDATASIZE PUSH1 0x1F NOT PUSH1 0x1F DUP3 ADD AND DUP3 ADD DUP1 PUSH1 0x40 MSTORE POP DUP2 ADD SWAP1 PUSH2 0x14A1 SWAP2 SWAP1 PUSH2 0x26CD JUMP JUMPDEST PUSH2 0x14ED JUMPI PUSH1 0x40 MLOAD PUSH3 0x461BCD PUSH1 0xE5 SHL DUP2 MSTORE PUSH1 0x20 PUSH1 0x4 DUP3 ADD DUP2 SWAP1 MSTORE PUSH1 0x24 DUP3 ADD MSTORE PUSH32 0x636F6E76657820706F6F6C20706964206973206E6F74207368757420646F776E PUSH1 0x44 DUP3 ADD MSTORE PUSH1 0x64 ADD PUSH2 0x468 JUMP JUMPDEST PUSH2 0xF9D DUP5 PUSH2 0x1A14 JUMP JUMPDEST PUSH1 0x0 PUSH2 0x304 PUSH1 0x2 DUP4 PUSH2 0x19B7 JUMP JUMPDEST PUSH1 0x60 PUSH2 0x1033 PUSH1 0x0 PUSH2 0x1E06 JUMP JUMPDEST PUSH1 0x0 PUSH2 0x304 DUP2 DUP4 PUSH2 0x1D6B JUMP JUMPDEST CALLER PUSH1 0x1 PUSH1 0x1 PUSH1 0xA0 SHL SUB PUSH32 0x0 AND EQ PUSH2 0x1563 JUMPI PUSH1 0x40 MLOAD PUSH3 0x461BCD PUSH1 0xE5 SHL DUP2 MSTORE PUSH1 0x4 ADD PUSH2 0x468 SWAP1 PUSH2 0x2604 JUMP JUMPDEST PUSH1 0xA PUSH2 0x156F PUSH1 0x0 PUSH2 0x19EE JUMP JUMPDEST LT PUSH2 0x15B0 JUMPI PUSH1 0x40 MLOAD PUSH3 0x461BCD PUSH1 0xE5 SHL DUP2 MSTORE PUSH1 0x20 PUSH1 0x4 DUP3 ADD MSTORE PUSH1 0x11 PUSH1 0x24 DUP3 ADD MSTORE PUSH17 0x1B585E081C1BDBDB1CC81C995858DA1959 PUSH1 0x7A SHL PUSH1 0x44 DUP3 ADD MSTORE PUSH1 0x64 ADD PUSH2 0x468 JUMP JUMPDEST PUSH2 0x15BB PUSH1 0x0 DUP3 PUSH2 0x1D6B JUMP JUMPDEST ISZERO PUSH2 0x15FD JUMPI PUSH1 0x40 MLOAD PUSH3 0x461BCD PUSH1 0xE5 SHL DUP2 MSTORE PUSH1 0x20 PUSH1 0x4 DUP3 ADD MSTORE PUSH1 0x12 PUSH1 0x24 DUP3 ADD MSTORE PUSH18 0x1C1BDBDB08185B1C9958591E481859191959 PUSH1 0x72 SHL PUSH1 0x44 DUP3 ADD MSTORE PUSH1 0x64 ADD PUSH2 0x468 JUMP JUMPDEST PUSH1 0x40 MLOAD PUSH4 0x55EB6B35 PUSH1 0xE0 SHL DUP2 MSTORE PUSH1 0x1 PUSH1 0x1 PUSH1 0xA0 SHL SUB DUP3 DUP2 AND PUSH1 0x4 DUP4 ADD MSTORE PUSH1 0x0 SWAP2 PUSH32 0x0 SWAP1 SWAP2 AND SWAP1 PUSH4 0x55EB6B35 SWAP1 PUSH1 0x24 ADD PUSH1 0x20 PUSH1 0x40 MLOAD DUP1 DUP4 SUB DUP2 DUP7 GAS STATICCALL ISZERO DUP1 ISZERO PUSH2 0x1668 JUMPI RETURNDATASIZE PUSH1 0x0 DUP1 RETURNDATACOPY RETURNDATASIZE PUSH1 0x0 REVERT JUMPDEST POP POP POP POP PUSH1 0x40 MLOAD RETURNDATASIZE PUSH1 0x1F NOT PUSH1 0x1F DUP3 ADD AND DUP3 ADD DUP1 PUSH1 0x40 MSTORE POP DUP2 ADD SWAP1 PUSH2 0x168C SWAP2 SWAP1 PUSH2 0x262C JUMP JUMPDEST PUSH1 0x40 MLOAD PUSH4 0x2AA2D3F7 PUSH1 0xE2 SHL DUP2 MSTORE PUSH1 0x1 PUSH1 0x1 PUSH1 0xA0 SHL SUB DUP5 DUP2 AND PUSH1 0x4 DUP4 ADD MSTORE PUSH32 0x0 DUP2 AND PUSH1 0x24 DUP4 ADD MSTORE SWAP2 SWAP3 POP PUSH1 0x0 SWAP2 DUP4 AND SWAP1 PUSH4 0xAA8B4FDC SWAP1 PUSH1 0x44 ADD PUSH1 0x20 PUSH1 0x40 MLOAD DUP1 DUP4 SUB DUP2 DUP7 GAS STATICCALL ISZERO DUP1 ISZERO PUSH2 0x1700 JUMPI RETURNDATASIZE PUSH1 0x0 DUP1 RETURNDATACOPY RETURNDATASIZE PUSH1 0x0 REVERT JUMPDEST POP POP POP POP PUSH1 0x40 MLOAD RETURNDATASIZE PUSH1 0x1F NOT PUSH1 0x1F DUP3 ADD AND DUP3 ADD DUP1 PUSH1 0x40 MSTORE POP DUP2 ADD SWAP1 PUSH2 0x1724 SWAP2 SWAP1 PUSH2 0x26CD JUMP JUMPDEST SWAP1 POP DUP1 PUSH2 0x1766 JUMPI PUSH1 0x40 MLOAD PUSH3 0x461BCD PUSH1 0xE5 SHL DUP2 MSTORE PUSH1 0x20 PUSH1 0x4 DUP3 ADD MSTORE PUSH1 0x10 PUSH1 0x24 DUP3 ADD MSTORE PUSH16 0x18DBDA5B881B9BDD081A5B881C1BDBDB PUSH1 0x82 SHL PUSH1 0x44 DUP3 ADD MSTORE PUSH1 0x64 ADD PUSH2 0x468 JUMP JUMPDEST PUSH1 0x40 MLOAD PUSH4 0x1DA958A9 PUSH1 0xE2 SHL DUP2 MSTORE PUSH1 0x1 PUSH1 0x1 PUSH1 0xA0 SHL SUB DUP5 DUP2 AND PUSH1 0x4 DUP4 ADD MSTORE PUSH1 0x0 SWAP2 SWAP1 DUP5 AND SWAP1 PUSH4 0x76A562A4 SWAP1 PUSH1 0x24 ADD PUSH1 0x20 PUSH1 0x40 MLOAD DUP1 DUP4 SUB DUP2 DUP7 GAS STATICCALL ISZERO DUP1 ISZERO PUSH2 0x17B0 JUMPI RETURNDATASIZE PUSH1 0x0 DUP1 RETURNDATACOPY RETURNDATASIZE PUSH1 0x0 REVERT JUMPDEST POP POP POP POP PUSH1 0x40 MLOAD RETURNDATASIZE PUSH1 0x1F NOT PUSH1 0x1F DUP3 ADD AND DUP3 ADD DUP1 PUSH1 0x40 MSTORE POP DUP2 ADD SWAP1 PUSH2 0x17D4 SWAP2 SWAP1 PUSH2 0x262C JUMP JUMPDEST SWAP1 POP PUSH32 0x0 PUSH1 0x1 PUSH1 0x1 PUSH1 0xA0 SHL SUB AND PUSH4 0x2630C12F PUSH1 0x40 MLOAD DUP2 PUSH4 0xFFFFFFFF AND PUSH1 0xE0 SHL DUP2 MSTORE PUSH1 0x4 ADD PUSH1 0x20 PUSH1 0x40 MLOAD DUP1 DUP4 SUB DUP2 DUP7 GAS STATICCALL ISZERO DUP1 ISZERO PUSH2 0x1834 JUMPI RETURNDATASIZE PUSH1 0x0 DUP1 RETURNDATACOPY RETURNDATASIZE PUSH1 0x0 REVERT JUMPDEST POP POP POP POP PUSH1 0x40 MLOAD RETURNDATASIZE PUSH1 0x1F NOT PUSH1 0x1F DUP3 ADD AND DUP3 ADD DUP1 PUSH1 0x40 MSTORE POP DUP2 ADD SWAP1 PUSH2 0x1858 SWAP2 SWAP1 PUSH2 0x262C JUMP JUMPDEST PUSH1 0x40 MLOAD PUSH4 0x75151B63 PUSH1 0xE0 SHL DUP2 MSTORE PUSH1 0x1 PUSH1 0x1 PUSH1 0xA0 SHL SUB DUP4 DUP2 AND PUSH1 0x4 DUP4 ADD MSTORE SWAP2 SWAP1 SWAP2 AND SWAP1 PUSH4 0x75151B63 SWAP1 PUSH1 0x24 ADD PUSH1 0x20 PUSH1 0x40 MLOAD DUP1 DUP4 SUB DUP2 DUP7 GAS STATICCALL ISZERO DUP1 ISZERO PUSH2 0x18A0 JUMPI RETURNDATASIZE PUSH1 0x0 DUP1 RETURNDATACOPY RETURNDATASIZE PUSH1 0x0 REVERT JUMPDEST POP POP POP POP PUSH1 0x40 MLOAD RETURNDATASIZE PUSH1 0x1F NOT PUSH1 0x1F DUP3 ADD AND DUP3 ADD DUP1 PUSH1 0x40 MSTORE POP DUP2 ADD SWAP1 PUSH2 0x18C4 SWAP2 SWAP1 PUSH2 0x26CD JUMP JUMPDEST PUSH2 0x1908 JUMPI PUSH1 0x40 MLOAD PUSH3 0x461BCD PUSH1 0xE5 SHL DUP2 MSTORE PUSH1 0x20 PUSH1 0x4 DUP3 ADD MSTORE PUSH1 0x15 PUSH1 0x24 DUP3 ADD MSTORE PUSH21 0x31B0B73737BA10383934B1B2902628102A37B5B2B7 PUSH1 0x59 SHL PUSH1 0x44 DUP3 ADD MSTORE PUSH1 0x64 ADD PUSH2 0x468 JUMP JUMPDEST PUSH2 0x1913 PUSH1 0x2 DUP6 PUSH2 0x1E13 JUMP JUMPDEST PUSH2 0x1926 JUMPI PUSH2 0x1924 PUSH1 0x2 DUP6 PUSH1 0x0 PUSH2 0x1DE8 JUMP JUMPDEST POP JUMPDEST PUSH2 0x1931 PUSH1 0x0 DUP6 PUSH2 0x1E28 JUMP JUMPDEST PUSH2 0x1972 JUMPI PUSH1 0x40 MLOAD PUSH3 0x461BCD PUSH1 0xE5 SHL DUP2 MSTORE PUSH1 0x20 PUSH1 0x4 DUP3 ADD MSTORE PUSH1 0x12 PUSH1 0x24 DUP3 ADD MSTORE PUSH18 0x19985A5B1959081D1BC8185919081C1BDBDB PUSH1 0x72 SHL PUSH1 0x44 DUP3 ADD MSTORE PUSH1 0x64 ADD PUSH2 0x468 JUMP JUMPDEST PUSH1 0x40 MLOAD PUSH1 0x1 PUSH1 0x1 PUSH1 0xA0 SHL SUB DUP6 AND DUP2 MSTORE PUSH32 0xBADAD752E47B51D72487F7881B9BAA7C0ED207B8D84F37C0E23EB0A6D67E5B15 SWAP1 PUSH1 0x20 ADD PUSH2 0xCEB JUMP JUMPDEST PUSH1 0x0 PUSH2 0xF9D DUP4 DUP4 PUSH2 0x1E3D JUMP JUMPDEST PUSH1 0x0 PUSH2 0xF9D DUP4 PUSH1 0x1 PUSH1 0x1 PUSH1 0xA0 SHL SUB DUP5 AND PUSH2 0x1E67 JUMP JUMPDEST PUSH1 0x0 PUSH2 0x19DA PUSH1 0x12 PUSH1 0xA PUSH2 0x25B9 JUMP JUMPDEST PUSH2 0x19E4 DUP4 DUP6 PUSH2 0x2694 JUMP JUMPDEST PUSH2 0xF9D SWAP2 SWAP1 PUSH2 0x26AB JUMP JUMPDEST PUSH1 0x0 PUSH2 0x304 DUP3 SLOAD SWAP1 JUMP JUMPDEST PUSH1 0x0 DUP1 DUP1 DUP1 PUSH2 0x1A07 DUP7 DUP7 PUSH2 0x1ED7 JUMP JUMPDEST SWAP1 SWAP8 SWAP1 SWAP7 POP SWAP5 POP POP POP POP POP JUMP JUMPDEST PUSH1 0x0 PUSH2 0x1A21 PUSH1 0x2 DUP4 PUSH2 0x19B7 JUMP JUMPDEST SWAP1 POP DUP1 PUSH1 0x0 SUB PUSH2 0x1A2F JUMPI POP POP JUMP JUMPDEST PUSH2 0x1A3B PUSH1 0x12 PUSH1 0xA PUSH2 0x25B9 JUMP JUMPDEST DUP2 SUB PUSH2 0x1A82 JUMPI PUSH1 0x40 MLOAD PUSH3 0x461BCD PUSH1 0xE5 SHL DUP2 MSTORE PUSH1 0x20 PUSH1 0x4 DUP3 ADD MSTORE PUSH1 0x16 PUSH1 0x24 DUP3 ADD MSTORE PUSH22 0x18D85B89DD081C995B5BDD99481B185CDD081C1BDBDB PUSH1 0x52 SHL PUSH1 0x44 DUP3 ADD MSTORE PUSH1 0x64 ADD PUSH2 0x468 JUMP JUMPDEST PUSH1 0x0 PUSH2 0x1ABA PUSH2 0x1A92 PUSH1 0x2 DUP6 PUSH2 0x19B7 JUMP JUMPDEST PUSH2 0x1A9E PUSH1 0x12 PUSH1 0xA PUSH2 0x25B9 JUMP JUMPDEST PUSH2 0x1AA8 SWAP2 SWAP1 PUSH2 0x25D8 JUMP JUMPDEST PUSH2 0x1AB4 PUSH1 0x12 PUSH1 0xA PUSH2 0x25B9 JUMP JUMPDEST SWAP1 PUSH2 0x1DCF JUMP JUMPDEST SWAP1 POP PUSH1 0x0 PUSH2 0x1AC8 PUSH1 0x0 PUSH2 0x19EE JUMP JUMPDEST SWAP1 POP PUSH2 0x1AD7 PUSH1 0x2 DUP6 PUSH1 0x0 PUSH2 0x1DE8 JUMP JUMPDEST POP DUP4 PUSH1 0x1 PUSH1 0x1 PUSH1 0xA0 SHL SUB AND PUSH32 0x49175C3467EDEBA7662E939BF84305EAF5084072855B0560F6AC3E145CD172AE PUSH1 0x0 PUSH1 0x40 MLOAD PUSH2 0x1B14 SWAP2 DUP2 MSTORE PUSH1 0x20 ADD SWAP1 JUMP JUMPDEST PUSH1 0x40 MLOAD DUP1 SWAP2 SUB SWAP1 LOG2 PUSH1 0x0 PUSH2 0x1B29 PUSH1 0x1 DUP4 PUSH2 0x25D8 JUMP JUMPDEST PUSH8 0xFFFFFFFFFFFFFFFF DUP2 GT ISZERO PUSH2 0x1B41 JUMPI PUSH2 0x1B41 PUSH2 0x212F JUMP JUMPDEST PUSH1 0x40 MLOAD SWAP1 DUP1 DUP3 MSTORE DUP1 PUSH1 0x20 MUL PUSH1 0x20 ADD DUP3 ADD PUSH1 0x40 MSTORE DUP1 ISZERO PUSH2 0x1B6A JUMPI DUP2 PUSH1 0x20 ADD PUSH1 0x20 DUP3 MUL DUP1 CALLDATASIZE DUP4 CALLDATACOPY ADD SWAP1 POP JUMPDEST POP SWAP1 POP PUSH1 0x0 PUSH2 0x1B7A PUSH1 0x1 DUP5 PUSH2 0x25D8 JUMP JUMPDEST PUSH8 0xFFFFFFFFFFFFFFFF DUP2 GT ISZERO PUSH2 0x1B92 JUMPI PUSH2 0x1B92 PUSH2 0x212F JUMP JUMPDEST PUSH1 0x40 MLOAD SWAP1 DUP1 DUP3 MSTORE DUP1 PUSH1 0x20 MUL PUSH1 0x20 ADD DUP3 ADD PUSH1 0x40 MSTORE DUP1 ISZERO PUSH2 0x1BBB JUMPI DUP2 PUSH1 0x20 ADD PUSH1 0x20 DUP3 MUL DUP1 CALLDATASIZE DUP4 CALLDATACOPY ADD SWAP1 POP JUMPDEST POP SWAP1 POP PUSH1 0x0 DUP1 JUMPDEST DUP5 DUP2 LT ISZERO PUSH2 0x1C69 JUMPI PUSH1 0x0 PUSH2 0x1BD6 DUP2 DUP4 PUSH2 0x19AB JUMP JUMPDEST SWAP1 POP PUSH1 0x0 PUSH2 0x1BE5 PUSH1 0x2 DUP4 PUSH2 0x19B7 JUMP JUMPDEST SWAP1 POP DUP1 PUSH1 0x0 SUB PUSH2 0x1BF6 JUMPI POP POP PUSH2 0x1C57 JUMP JUMPDEST DUP2 DUP7 DUP6 DUP2 MLOAD DUP2 LT PUSH2 0x1C09 JUMPI PUSH2 0x1C09 PUSH2 0x24A9 JUMP JUMPDEST PUSH1 0x20 MUL PUSH1 0x20 ADD ADD SWAP1 PUSH1 0x1 PUSH1 0x1 PUSH1 0xA0 SHL SUB AND SWAP1 DUP2 PUSH1 0x1 PUSH1 0x1 PUSH1 0xA0 SHL SUB AND DUP2 MSTORE POP POP DUP1 DUP6 DUP6 DUP2 MLOAD DUP2 LT PUSH2 0x1C3C JUMPI PUSH2 0x1C3C PUSH2 0x24A9 JUMP JUMPDEST PUSH1 0x20 SWAP1 DUP2 MUL SWAP2 SWAP1 SWAP2 ADD ADD MSTORE DUP4 PUSH2 0x1C51 DUP2 PUSH2 0x25EB JUMP JUMPDEST SWAP5 POP POP POP POP JUMPDEST DUP1 PUSH2 0x1C61 DUP2 PUSH2 0x25EB JUMP JUMPDEST SWAP2 POP POP PUSH2 0x1BC2 JUMP JUMPDEST POP PUSH1 0x0 DUP1 JUMPDEST DUP3 DUP2 LT ISZERO PUSH2 0x1D60 JUMPI PUSH1 0x0 DUP6 DUP3 DUP2 MLOAD DUP2 LT PUSH2 0x1C8A JUMPI PUSH2 0x1C8A PUSH2 0x24A9 JUMP JUMPDEST PUSH1 0x20 MUL PUSH1 0x20 ADD ADD MLOAD SWAP1 POP PUSH1 0x0 PUSH2 0x1CC2 DUP10 DUP8 DUP6 DUP2 MLOAD DUP2 LT PUSH2 0x1CAC JUMPI PUSH2 0x1CAC PUSH2 0x24A9 JUMP JUMPDEST PUSH1 0x20 MUL PUSH1 0x20 ADD ADD MLOAD PUSH2 0x19CC SWAP1 SWAP2 SWAP1 PUSH4 0xFFFFFFFF AND JUMP JUMPDEST SWAP1 POP PUSH2 0x1CCF PUSH1 0x1 DUP7 PUSH2 0x25D8 JUMP JUMPDEST DUP4 SUB PUSH2 0x1CEF JUMPI DUP4 PUSH2 0x1CE2 PUSH1 0x12 PUSH1 0xA PUSH2 0x25B9 JUMP JUMPDEST PUSH2 0x1CEC SWAP2 SWAP1 PUSH2 0x25D8 JUMP JUMPDEST SWAP1 POP JUMPDEST PUSH2 0x1CF9 DUP2 DUP6 PUSH2 0x25C5 JUMP JUMPDEST SWAP4 POP PUSH2 0x1D07 PUSH1 0x2 DUP4 DUP4 PUSH2 0x1DE8 JUMP JUMPDEST POP DUP2 PUSH1 0x1 PUSH1 0x1 PUSH1 0xA0 SHL SUB AND PUSH32 0x49175C3467EDEBA7662E939BF84305EAF5084072855B0560F6AC3E145CD172AE DUP3 PUSH1 0x40 MLOAD PUSH2 0x1D43 SWAP2 DUP2 MSTORE PUSH1 0x20 ADD SWAP1 JUMP JUMPDEST PUSH1 0x40 MLOAD DUP1 SWAP2 SUB SWAP1 LOG2 POP POP DUP1 DUP1 PUSH2 0x1D58 SWAP1 PUSH2 0x25EB JUMP JUMPDEST SWAP2 POP POP PUSH2 0x1C6E JUMP JUMPDEST POP POP POP POP POP POP POP POP POP JUMP JUMPDEST PUSH1 0x1 PUSH1 0x1 PUSH1 0xA0 SHL SUB DUP2 AND PUSH1 0x0 SWAP1 DUP2 MSTORE PUSH1 0x1 DUP4 ADD PUSH1 0x20 MSTORE PUSH1 0x40 DUP2 KECCAK256 SLOAD ISZERO ISZERO PUSH2 0xF9D JUMP JUMPDEST PUSH1 0x0 PUSH2 0xF9D DUP4 PUSH1 0x1 PUSH1 0x1 PUSH1 0xA0 SHL SUB DUP5 AND PUSH2 0x1F02 JUMP JUMPDEST PUSH1 0x0 PUSH2 0xF9D DUP4 PUSH1 0x1 PUSH1 0x1 PUSH1 0xA0 SHL SUB DUP5 AND PUSH2 0x1FF5 JUMP JUMPDEST PUSH1 0x0 DUP2 DUP4 LT ISZERO PUSH2 0x1DC9 JUMPI DUP3 DUP3 SUB PUSH2 0xF9D JUMP JUMPDEST POP SWAP1 SUB SWAP1 JUMP JUMPDEST PUSH1 0x0 DUP2 PUSH2 0x1DDE PUSH1 0x12 PUSH1 0xA PUSH2 0x25B9 JUMP JUMPDEST PUSH2 0x19E4 SWAP1 DUP6 PUSH2 0x2694 JUMP JUMPDEST PUSH1 0x0 PUSH2 0x1DFE DUP5 PUSH1 0x1 PUSH1 0x1 PUSH1 0xA0 SHL SUB DUP6 AND DUP5 PUSH2 0x2012 JUMP JUMPDEST SWAP5 SWAP4 POP POP POP POP JUMP JUMPDEST PUSH1 0x60 PUSH1 0x0 PUSH2 0xF9D DUP4 PUSH2 0x202F JUMP JUMPDEST PUSH1 0x0 PUSH2 0xF9D DUP4 PUSH1 0x1 PUSH1 0x1 PUSH1 0xA0 SHL SUB DUP5 AND PUSH2 0x208B JUMP JUMPDEST PUSH1 0x0 PUSH2 0xF9D DUP4 PUSH1 0x1 PUSH1 0x1 PUSH1 0xA0 SHL SUB DUP5 AND PUSH2 0x2097 JUMP JUMPDEST PUSH1 0x0 DUP3 PUSH1 0x0 ADD DUP3 DUP2 SLOAD DUP2 LT PUSH2 0x1E54 JUMPI PUSH2 0x1E54 PUSH2 0x24A9 JUMP JUMPDEST SWAP1 PUSH1 0x0 MSTORE PUSH1 0x20 PUSH1 0x0 KECCAK256 ADD SLOAD SWAP1 POP SWAP3 SWAP2 POP POP JUMP JUMPDEST PUSH1 0x0 DUP2 DUP2 MSTORE PUSH1 0x2 DUP4 ADD PUSH1 0x20 MSTORE PUSH1 0x40 DUP2 KECCAK256 SLOAD DUP1 ISZERO ISZERO DUP1 PUSH2 0x1E8B JUMPI POP PUSH2 0x1E8B DUP5 DUP5 PUSH2 0x208B JUMP JUMPDEST PUSH2 0xF9D JUMPI PUSH1 0x40 MLOAD PUSH3 0x461BCD PUSH1 0xE5 SHL DUP2 MSTORE PUSH1 0x20 PUSH1 0x4 DUP3 ADD MSTORE PUSH1 0x1E PUSH1 0x24 DUP3 ADD MSTORE PUSH32 0x456E756D657261626C654D61703A206E6F6E6578697374656E74206B65790000 PUSH1 0x44 DUP3 ADD MSTORE PUSH1 0x64 ADD PUSH2 0x468 JUMP JUMPDEST PUSH1 0x0 DUP1 DUP1 PUSH2 0x1EE5 DUP6 DUP6 PUSH2 0x19AB JUMP JUMPDEST PUSH1 0x0 DUP2 DUP2 MSTORE PUSH1 0x2 SWAP7 SWAP1 SWAP7 ADD PUSH1 0x20 MSTORE PUSH1 0x40 SWAP1 SWAP6 KECCAK256 SLOAD SWAP5 SWAP6 SWAP4 POP POP POP POP JUMP JUMPDEST PUSH1 0x0 DUP2 DUP2 MSTORE PUSH1 0x1 DUP4 ADD PUSH1 0x20 MSTORE PUSH1 0x40 DUP2 KECCAK256 SLOAD DUP1 ISZERO PUSH2 0x1FEB JUMPI PUSH1 0x0 PUSH2 0x1F26 PUSH1 0x1 DUP4 PUSH2 0x25D8 JUMP JUMPDEST DUP6 SLOAD SWAP1 SWAP2 POP PUSH1 0x0 SWAP1 PUSH2 0x1F3A SWAP1 PUSH1 0x1 SWAP1 PUSH2 0x25D8 JUMP JUMPDEST SWAP1 POP DUP2 DUP2 EQ PUSH2 0x1F9F JUMPI PUSH1 0x0 DUP7 PUSH1 0x0 ADD DUP3 DUP2 SLOAD DUP2 LT PUSH2 0x1F5A JUMPI PUSH2 0x1F5A PUSH2 0x24A9 JUMP JUMPDEST SWAP1 PUSH1 0x0 MSTORE PUSH1 0x20 PUSH1 0x0 KECCAK256 ADD SLOAD SWAP1 POP DUP1 DUP8 PUSH1 0x0 ADD DUP5 DUP2 SLOAD DUP2 LT PUSH2 0x1F7D JUMPI PUSH2 0x1F7D PUSH2 0x24A9 JUMP JUMPDEST PUSH1 0x0 SWAP2 DUP3 MSTORE PUSH1 0x20 DUP1 DUP4 KECCAK256 SWAP1 SWAP2 ADD SWAP3 SWAP1 SWAP3 SSTORE SWAP2 DUP3 MSTORE PUSH1 0x1 DUP9 ADD SWAP1 MSTORE PUSH1 0x40 SWAP1 KECCAK256 DUP4 SWAP1 SSTORE JUMPDEST DUP6 SLOAD DUP7 SWAP1 DUP1 PUSH2 0x1FB0 JUMPI PUSH2 0x1FB0 PUSH2 0x26EF JUMP JUMPDEST PUSH1 0x1 SWAP1 SUB DUP2 DUP2 SWAP1 PUSH1 0x0 MSTORE PUSH1 0x20 PUSH1 0x0 KECCAK256 ADD PUSH1 0x0 SWAP1 SSTORE SWAP1 SSTORE DUP6 PUSH1 0x1 ADD PUSH1 0x0 DUP7 DUP2 MSTORE PUSH1 0x20 ADD SWAP1 DUP2 MSTORE PUSH1 0x20 ADD PUSH1 0x0 KECCAK256 PUSH1 0x0 SWAP1 SSTORE PUSH1 0x1 SWAP4 POP POP POP POP PUSH2 0x304 JUMP JUMPDEST PUSH1 0x0 SWAP2 POP POP PUSH2 0x304 JUMP JUMPDEST PUSH1 0x0 DUP2 DUP2 MSTORE PUSH1 0x2 DUP4 ADD PUSH1 0x20 MSTORE PUSH1 0x40 DUP2 KECCAK256 DUP2 SWAP1 SSTORE PUSH2 0xF9D DUP4 DUP4 PUSH2 0x20E6 JUMP JUMPDEST PUSH1 0x0 DUP3 DUP2 MSTORE PUSH1 0x2 DUP5 ADD PUSH1 0x20 MSTORE PUSH1 0x40 DUP2 KECCAK256 DUP3 SWAP1 SSTORE PUSH2 0x1DFE DUP5 DUP5 PUSH2 0x20F2 JUMP JUMPDEST PUSH1 0x60 DUP2 PUSH1 0x0 ADD DUP1 SLOAD DUP1 PUSH1 0x20 MUL PUSH1 0x20 ADD PUSH1 0x40 MLOAD SWAP1 DUP2 ADD PUSH1 0x40 MSTORE DUP1 SWAP3 SWAP2 SWAP1 DUP2 DUP2 MSTORE PUSH1 0x20 ADD DUP3 DUP1 SLOAD DUP1 ISZERO PUSH2 0x207F JUMPI PUSH1 0x20 MUL DUP3 ADD SWAP2 SWAP1 PUSH1 0x0 MSTORE PUSH1 0x20 PUSH1 0x0 KECCAK256 SWAP1 JUMPDEST DUP2 SLOAD DUP2 MSTORE PUSH1 0x20 ADD SWAP1 PUSH1 0x1 ADD SWAP1 DUP1 DUP4 GT PUSH2 0x206B JUMPI JUMPDEST POP POP POP POP POP SWAP1 POP SWAP2 SWAP1 POP JUMP JUMPDEST PUSH1 0x0 PUSH2 0xF9D DUP4 DUP4 PUSH2 0x20FE JUMP JUMPDEST PUSH1 0x0 DUP2 DUP2 MSTORE PUSH1 0x1 DUP4 ADD PUSH1 0x20 MSTORE PUSH1 0x40 DUP2 KECCAK256 SLOAD PUSH2 0x20DE JUMPI POP DUP2 SLOAD PUSH1 0x1 DUP2 DUP2 ADD DUP5 SSTORE PUSH1 0x0 DUP5 DUP2 MSTORE PUSH1 0x20 DUP1 DUP3 KECCAK256 SWAP1 SWAP4 ADD DUP5 SWAP1 SSTORE DUP5 SLOAD DUP5 DUP3 MSTORE DUP3 DUP7 ADD SWAP1 SWAP4 MSTORE PUSH1 0x40 SWAP1 KECCAK256 SWAP2 SWAP1 SWAP2 SSTORE PUSH2 0x304 JUMP JUMPDEST POP PUSH1 0x0 PUSH2 0x304 JUMP JUMPDEST PUSH1 0x0 PUSH2 0xF9D DUP4 DUP4 PUSH2 0x1F02 JUMP JUMPDEST PUSH1 0x0 PUSH2 0xF9D DUP4 DUP4 PUSH2 0x2097 JUMP JUMPDEST PUSH1 0x0 DUP2 DUP2 MSTORE PUSH1 0x1 DUP4 ADD PUSH1 0x20 MSTORE PUSH1 0x40 DUP2 KECCAK256 SLOAD ISZERO ISZERO PUSH2 0xF9D JUMP JUMPDEST PUSH1 0x0 PUSH1 0x20 DUP3 DUP5 SUB SLT ISZERO PUSH2 0x2128 JUMPI PUSH1 0x0 DUP1 REVERT JUMPDEST POP CALLDATALOAD SWAP2 SWAP1 POP JUMP JUMPDEST PUSH4 0x4E487B71 PUSH1 0xE0 SHL PUSH1 0x0 MSTORE PUSH1 0x41 PUSH1 0x4 MSTORE PUSH1 0x24 PUSH1 0x0 REVERT JUMPDEST PUSH1 0x40 DUP1 MLOAD SWAP1 DUP2 ADD PUSH8 0xFFFFFFFFFFFFFFFF DUP2 GT DUP3 DUP3 LT OR ISZERO PUSH2 0x2168 JUMPI PUSH2 0x2168 PUSH2 0x212F JUMP JUMPDEST PUSH1 0x40 MSTORE SWAP1 JUMP JUMPDEST PUSH1 0x40 MLOAD PUSH1 0x1F DUP3 ADD PUSH1 0x1F NOT AND DUP2 ADD PUSH8 0xFFFFFFFFFFFFFFFF DUP2 GT DUP3 DUP3 LT OR ISZERO PUSH2 0x2197 JUMPI PUSH2 0x2197 PUSH2 0x212F JUMP JUMPDEST PUSH1 0x40 MSTORE SWAP2 SWAP1 POP JUMP JUMPDEST PUSH1 0x0 PUSH8 0xFFFFFFFFFFFFFFFF DUP3 GT ISZERO PUSH2 0x21B9 JUMPI PUSH2 0x21B9 PUSH2 0x212F JUMP JUMPDEST POP PUSH1 0x5 SHL PUSH1 0x20 ADD SWAP1 JUMP JUMPDEST PUSH1 0x0 DUP3 PUSH1 0x1F DUP4 ADD SLT PUSH2 0x21D4 JUMPI PUSH1 0x0 DUP1 REVERT JUMPDEST DUP2 CALLDATALOAD PUSH1 0x20 PUSH2 0x21E9 PUSH2 0x21E4 DUP4 PUSH2 0x219F JUMP JUMPDEST PUSH2 0x216E JUMP JUMPDEST DUP3 DUP2 MSTORE PUSH1 0x5 SWAP3 SWAP1 SWAP3 SHL DUP5 ADD DUP2 ADD SWAP2 DUP2 DUP2 ADD SWAP1 DUP7 DUP5 GT ISZERO PUSH2 0x2208 JUMPI PUSH1 0x0 DUP1 REVERT JUMPDEST DUP3 DUP7 ADD JUMPDEST DUP5 DUP2 LT ISZERO PUSH2 0x2223 JUMPI DUP1 CALLDATALOAD DUP4 MSTORE SWAP2 DUP4 ADD SWAP2 DUP4 ADD PUSH2 0x220C JUMP JUMPDEST POP SWAP7 SWAP6 POP POP POP POP POP POP JUMP JUMPDEST PUSH1 0x0 DUP1 PUSH1 0x0 PUSH1 0x60 DUP5 DUP7 SUB SLT ISZERO PUSH2 0x2243 JUMPI PUSH1 0x0 DUP1 REVERT JUMPDEST DUP4 CALLDATALOAD SWAP3 POP PUSH1 0x20 DUP5 ADD CALLDATALOAD PUSH8 0xFFFFFFFFFFFFFFFF DUP2 GT ISZERO PUSH2 0x2261 JUMPI PUSH1 0x0 DUP1 REVERT JUMPDEST PUSH2 0x226D DUP7 DUP3 DUP8 ADD PUSH2 0x21C3 JUMP JUMPDEST SWAP3 POP POP PUSH1 0x40 DUP5 ADD CALLDATALOAD SWAP1 POP SWAP3 POP SWAP3 POP SWAP3 JUMP JUMPDEST PUSH1 0x20 DUP1 DUP3 MSTORE DUP3 MLOAD DUP3 DUP3 ADD DUP2 SWAP1 MSTORE PUSH1 0x0 SWAP2 SWAP1 PUSH1 0x40 SWAP1 DUP2 DUP6 ADD SWAP1 DUP7 DUP5 ADD DUP6 JUMPDEST DUP3 DUP2 LT ISZERO PUSH2 0x22C9 JUMPI DUP2 MLOAD DUP1 MLOAD PUSH1 0x1 PUSH1 0x1 PUSH1 0xA0 SHL SUB AND DUP6 MSTORE DUP7 ADD MLOAD DUP7 DUP6 ADD MSTORE SWAP3 DUP5 ADD SWAP3 SWAP1 DUP6 ADD SWAP1 PUSH1 0x1 ADD PUSH2 0x229B JUMP JUMPDEST POP SWAP2 SWAP8 SWAP7 POP POP POP POP POP POP POP JUMP JUMPDEST PUSH1 0x1 PUSH1 0x1 PUSH1 0xA0 SHL SUB DUP2 AND DUP2 EQ PUSH2 0x655 JUMPI PUSH1 0x0 DUP1 REVERT JUMPDEST PUSH1 0x0 PUSH1 0x20 DUP3 DUP5 SUB SLT ISZERO PUSH2 0x22FD JUMPI PUSH1 0x0 DUP1 REVERT JUMPDEST DUP2 CALLDATALOAD PUSH2 0xF9D DUP2 PUSH2 0x22D6 JUMP JUMPDEST PUSH1 0x0 DUP1 PUSH1 0x0 PUSH1 0x60 DUP5 DUP7 SUB SLT ISZERO PUSH2 0x231D JUMPI PUSH1 0x0 DUP1 REVERT JUMPDEST DUP4 CALLDATALOAD PUSH8 0xFFFFFFFFFFFFFFFF DUP2 GT ISZERO PUSH2 0x2334 JUMPI PUSH1 0x0 DUP1 REVERT JUMPDEST PUSH2 0x2340 DUP7 DUP3 DUP8 ADD PUSH2 0x21C3 JUMP JUMPDEST SWAP7 PUSH1 0x20 DUP7 ADD CALLDATALOAD SWAP7 POP PUSH1 0x40 SWAP1 SWAP6 ADD CALLDATALOAD SWAP5 SWAP4 POP POP POP POP JUMP JUMPDEST PUSH1 0x0 DUP1 PUSH1 0x40 DUP4 DUP6 SUB SLT ISZERO PUSH2 0x2369 JUMPI PUSH1 0x0 DUP1 REVERT JUMPDEST DUP3 CALLDATALOAD SWAP2 POP PUSH1 0x20 DUP4 ADD CALLDATALOAD PUSH8 0xFFFFFFFFFFFFFFFF DUP2 GT ISZERO PUSH2 0x2387 JUMPI PUSH1 0x0 DUP1 REVERT JUMPDEST PUSH2 0x2393 DUP6 DUP3 DUP7 ADD PUSH2 0x21C3 JUMP JUMPDEST SWAP2 POP POP SWAP3 POP SWAP3 SWAP1 POP JUMP JUMPDEST PUSH1 0x0 PUSH1 0x20 DUP1 DUP4 DUP6 SUB SLT ISZERO PUSH2 0x23B0 JUMPI PUSH1 0x0 DUP1 REVERT JUMPDEST DUP3 CALLDATALOAD PUSH8 0xFFFFFFFFFFFFFFFF DUP2 GT ISZERO PUSH2 0x23C7 JUMPI PUSH1 0x0 DUP1 REVERT JUMPDEST DUP4 ADD PUSH1 0x1F DUP2 ADD DUP6 SGT PUSH2 0x23D8 JUMPI PUSH1 0x0 DUP1 REVERT JUMPDEST DUP1 CALLDATALOAD PUSH2 0x23E6 PUSH2 0x21E4 DUP3 PUSH2 0x219F JUMP JUMPDEST DUP2 DUP2 MSTORE PUSH1 0x6 SWAP2 SWAP1 SWAP2 SHL DUP3 ADD DUP4 ADD SWAP1 DUP4 DUP2 ADD SWAP1 DUP8 DUP4 GT ISZERO PUSH2 0x2405 JUMPI PUSH1 0x0 DUP1 REVERT JUMPDEST SWAP3 DUP5 ADD SWAP3 JUMPDEST DUP3 DUP5 LT ISZERO PUSH2 0x2451 JUMPI PUSH1 0x40 DUP5 DUP10 SUB SLT ISZERO PUSH2 0x2423 JUMPI PUSH1 0x0 DUP1 DUP2 REVERT JUMPDEST PUSH2 0x242B PUSH2 0x2145 JUMP JUMPDEST DUP5 CALLDATALOAD PUSH2 0x2436 DUP2 PUSH2 0x22D6 JUMP JUMPDEST DUP2 MSTORE DUP5 DUP7 ADD CALLDATALOAD DUP7 DUP3 ADD MSTORE DUP3 MSTORE PUSH1 0x40 SWAP1 SWAP4 ADD SWAP3 SWAP1 DUP5 ADD SWAP1 PUSH2 0x240A JUMP JUMPDEST SWAP8 SWAP7 POP POP POP POP POP POP POP JUMP JUMPDEST PUSH1 0x20 DUP1 DUP3 MSTORE DUP3 MLOAD DUP3 DUP3 ADD DUP2 SWAP1 MSTORE PUSH1 0x0 SWAP2 SWAP1 DUP5 DUP3 ADD SWAP1 PUSH1 0x40 DUP6 ADD SWAP1 DUP5 JUMPDEST DUP2 DUP2 LT ISZERO PUSH2 0x249D JUMPI DUP4 MLOAD PUSH1 0x1 PUSH1 0x1 PUSH1 0xA0 SHL SUB AND DUP4 MSTORE SWAP3 DUP5 ADD SWAP3 SWAP2 DUP5 ADD SWAP2 PUSH1 0x1 ADD PUSH2 0x2478 JUMP JUMPDEST POP SWAP1 SWAP7 SWAP6 POP POP POP POP POP POP JUMP JUMPDEST PUSH4 0x4E487B71 PUSH1 0xE0 SHL PUSH1 0x0 MSTORE PUSH1 0x32 PUSH1 0x4 MSTORE PUSH1 0x24 PUSH1 0x0 REVERT JUMPDEST PUSH4 0x4E487B71 PUSH1 0xE0 SHL PUSH1 0x0 MSTORE PUSH1 0x11 PUSH1 0x4 MSTORE PUSH1 0x24 PUSH1 0x0 REVERT JUMPDEST PUSH1 0x1 DUP2 DUP2 JUMPDEST DUP1 DUP6 GT ISZERO PUSH2 0x2510 JUMPI DUP2 PUSH1 0x0 NOT DIV DUP3 GT ISZERO PUSH2 0x24F6 JUMPI PUSH2 0x24F6 PUSH2 0x24BF JUMP JUMPDEST DUP1 DUP6 AND ISZERO PUSH2 0x2503 JUMPI SWAP2 DUP2 MUL SWAP2 JUMPDEST SWAP4 DUP5 SHR SWAP4 SWAP1 DUP1 MUL SWAP1 PUSH2 0x24DA JUMP JUMPDEST POP SWAP3 POP SWAP3 SWAP1 POP JUMP JUMPDEST PUSH1 0x0 DUP3 PUSH2 0x2527 JUMPI POP PUSH1 0x1 PUSH2 0x304 JUMP JUMPDEST DUP2 PUSH2 0x2534 JUMPI POP PUSH1 0x0 PUSH2 0x304 JUMP JUMPDEST DUP2 PUSH1 0x1 DUP2 EQ PUSH2 0x254A JUMPI PUSH1 0x2 DUP2 EQ PUSH2 0x2554 JUMPI PUSH2 0x2570 JUMP JUMPDEST PUSH1 0x1 SWAP2 POP POP PUSH2 0x304 JUMP JUMPDEST PUSH1 0xFF DUP5 GT ISZERO PUSH2 0x2565 JUMPI PUSH2 0x2565 PUSH2 0x24BF JUMP JUMPDEST POP POP PUSH1 0x1 DUP3 SHL PUSH2 0x304 JUMP JUMPDEST POP PUSH1 0x20 DUP4 LT PUSH2 0x133 DUP4 LT AND PUSH1 0x4E DUP5 LT PUSH1 0xB DUP5 LT AND OR ISZERO PUSH2 0x2593 JUMPI POP DUP2 DUP2 EXP PUSH2 0x304 JUMP JUMPDEST PUSH2 0x259D DUP4 DUP4 PUSH2 0x24D5 JUMP JUMPDEST DUP1 PUSH1 0x0 NOT DIV DUP3 GT ISZERO PUSH2 0x25B1 JUMPI PUSH2 0x25B1 PUSH2 0x24BF JUMP JUMPDEST MUL SWAP4 SWAP3 POP POP POP JUMP JUMPDEST PUSH1 0x0 PUSH2 0xF9D DUP4 DUP4 PUSH2 0x2518 JUMP JUMPDEST DUP1 DUP3 ADD DUP1 DUP3 GT ISZERO PUSH2 0x304 JUMPI PUSH2 0x304 PUSH2 0x24BF JUMP JUMPDEST DUP2 DUP2 SUB DUP2 DUP2 GT ISZERO PUSH2 0x304 JUMPI PUSH2 0x304 PUSH2 0x24BF JUMP JUMPDEST PUSH1 0x0 PUSH1 0x1 DUP3 ADD PUSH2 0x25FD JUMPI PUSH2 0x25FD PUSH2 0x24BF JUMP JUMPDEST POP PUSH1 0x1 ADD SWAP1 JUMP JUMPDEST PUSH1 0x20 DUP1 DUP3 MSTORE PUSH1 0xE SWAP1 DUP3 ADD MSTORE PUSH14 0x1B9BDD08185D5D1A1BDC9A5E9959 PUSH1 0x92 SHL PUSH1 0x40 DUP3 ADD MSTORE PUSH1 0x60 ADD SWAP1 JUMP JUMPDEST PUSH1 0x0 PUSH1 0x20 DUP3 DUP5 SUB SLT ISZERO PUSH2 0x263E JUMPI PUSH1 0x0 DUP1 REVERT JUMPDEST DUP2 MLOAD PUSH2 0xF9D DUP2 PUSH2 0x22D6 JUMP JUMPDEST PUSH1 0x0 PUSH1 0x20 DUP3 DUP5 SUB SLT ISZERO PUSH2 0x265B JUMPI PUSH1 0x0 DUP1 REVERT JUMPDEST POP MLOAD SWAP2 SWAP1 POP JUMP JUMPDEST PUSH1 0x0 PUSH1 0x20 DUP3 DUP5 SUB SLT ISZERO PUSH2 0x2674 JUMPI PUSH1 0x0 DUP1 REVERT JUMPDEST DUP2 MLOAD PUSH1 0xFF DUP2 AND DUP2 EQ PUSH2 0xF9D JUMPI PUSH1 0x0 DUP1 REVERT JUMPDEST PUSH1 0x0 PUSH2 0xF9D PUSH1 0xFF DUP5 AND DUP4 PUSH2 0x2518 JUMP JUMPDEST DUP1 DUP3 MUL DUP2 ISZERO DUP3 DUP3 DIV DUP5 EQ OR PUSH2 0x304 JUMPI PUSH2 0x304 PUSH2 0x24BF JUMP JUMPDEST PUSH1 0x0 DUP3 PUSH2 0x26C8 JUMPI PUSH4 0x4E487B71 PUSH1 0xE0 SHL PUSH1 0x0 MSTORE PUSH1 0x12 PUSH1 0x4 MSTORE PUSH1 0x24 PUSH1 0x0 REVERT JUMPDEST POP DIV SWAP1 JUMP JUMPDEST PUSH1 0x0 PUSH1 0x20 DUP3 DUP5 SUB SLT ISZERO PUSH2 0x26DF JUMPI PUSH1 0x0 DUP1 REVERT JUMPDEST DUP2 MLOAD DUP1 ISZERO ISZERO DUP2 EQ PUSH2 0xF9D JUMPI PUSH1 0x0 DUP1 REVERT JUMPDEST PUSH4 0x4E487B71 PUSH1 0xE0 SHL PUSH1 0x0 MSTORE PUSH1 0x31 PUSH1 0x4 MSTORE PUSH1 0x24 PUSH1 0x0 REVERT INVALID LOG2 PUSH5 0x6970667358 0x22 SLT KECCAK256 0x2B DUP11 0xA7 DUP11 CALLCODE SWAP16 0x21 BYTE ORIGIN 0xBC MLOAD PUSH14 0x4D0BE7AA98A6AD88F4AE3B0E35DD 0x24 0xB1 0xB1 0x5C SWAP3 0xCD PUSH5 0x736F6C6343 STOP ADDMOD GT STOP CALLER ","sha1":"168cbae5845d4397adafb4c3c14b43ac0dfef0b3","source":"// SPDX-License-Identifier: GPL-3.0-or-later\npragma solidity 0.8.17;\n\nimport \"@openzeppelin/contracts/utils/structs/EnumerableSet.sol\";\nimport \"@openzeppelin/contracts/utils/structs/EnumerableMap.sol\";\nimport \"@openzeppelin/contracts/token/ERC20/utils/SafeERC20.sol\";\n\nimport \"../interfaces/pools/IConicPool.sol\";\nimport \"../interfaces/pools/IConicPoolWeightManager.sol\";\n\nimport \"../libraries/ScaledMath.sol\";\n\ncontract ConicPoolWeightManager is IConicPoolWeightManager {\n    using EnumerableSet for EnumerableSet.AddressSet;\n    using EnumerableMap for EnumerableMap.AddressToUintMap;\n    using ScaledMath for uint256;\n    using SafeERC20 for IERC20;\n\n    event CurvePoolAdded(address curvePool_);\n    event CurvePoolRemoved(address curvePool_);\n    event NewWeight(address indexed curvePool, uint256 newWeight);\n\n    uint256 internal constant _MAX_USD_VALUE_FOR_REMOVING_POOL = 100e18;\n    uint256 internal constant _MAX_CURVE_POOLS = 10;\n\n    IConicPool public immutable conicPool;\n    IController public immutable controller;\n    IERC20Metadata public immutable underlying;\n\n    EnumerableSet.AddressSet internal _pools;\n    EnumerableMap.AddressToUintMap internal weights; // liquidity allocation weights\n\n    modifier onlyController() {\n        require(msg.sender == address(controller), \"not authorized\");\n        _;\n    }\n\n    modifier onlyConicPool() {\n        require(msg.sender == address(conicPool), \"not authorized\");\n        _;\n    }\n\n    constructor(IController _controller, IERC20Metadata _underlying) {\n        conicPool = IConicPool(msg.sender);\n        controller = _controller;\n        underlying = _underlying;\n    }\n\n    function addPool(address _pool) external onlyConicPool {\n        require(_pools.length() < _MAX_CURVE_POOLS, \"max pools reached\");\n        require(!_pools.contains(_pool), \"pool already added\");\n        IPoolAdapter poolAdapter = controller.poolAdapterFor(_pool);\n        bool supported_ = poolAdapter.supportsAsset(_pool, address(underlying));\n        require(supported_, \"coin not in pool\");\n        address lpToken_ = poolAdapter.lpToken(_pool);\n        require(controller.priceOracle().isTokenSupported(lpToken_), \"cannot price LP Token\");\n\n        if (!weights.contains(_pool)) weights.set(_pool, 0);\n        require(_pools.add(_pool), \"failed to add pool\");\n        emit CurvePoolAdded(_pool);\n    }\n\n    // This requires that the weight of the pool is first set to 0\n    function removePool(address _pool) external onlyConicPool {\n        require(_pools.contains(_pool), \"pool not added\");\n        require(_pools.length() > 1, \"cannot remove last pool\");\n        IPoolAdapter poolAdapter = controller.poolAdapterFor(_pool);\n        uint256 usdValue = poolAdapter.computePoolValueInUSD(address(conicPool), _pool);\n        require(usdValue < _MAX_USD_VALUE_FOR_REMOVING_POOL, \"pool has allocated funds\");\n        uint256 weight = weights.get(_pool);\n        require(weight == 0, \"pool has weight set\");\n        require(_pools.remove(_pool), \"pool not removed\");\n        require(weights.remove(_pool), \"weight not removed\");\n        emit CurvePoolRemoved(_pool);\n    }\n\n    function updateWeights(PoolWeight[] memory poolWeights) external onlyConicPool {\n        require(poolWeights.length == _pools.length(), \"invalid pool weights\");\n        uint256 total;\n\n        address previousPool;\n        for (uint256 i; i < poolWeights.length; i++) {\n            address pool_ = poolWeights[i].poolAddress;\n            require(pool_ > previousPool, \"pools not sorted\");\n            require(isRegisteredPool(pool_), \"pool is not registered\");\n            uint256 newWeight = poolWeights[i].weight;\n            weights.set(pool_, newWeight);\n            emit NewWeight(pool_, newWeight);\n            total += newWeight;\n            previousPool = pool_;\n        }\n\n        require(total == ScaledMath.ONE, \"weights do not sum to 1\");\n    }\n\n    function handleDepeggedCurvePool(address curvePool_) external onlyConicPool {\n        // Validation\n        require(isRegisteredPool(curvePool_), \"pool is not registered\");\n        require(weights.get(curvePool_) != 0, \"pool weight already 0\");\n\n        // Set target curve pool weight to 0\n        // Scale up other weights to compensate\n        _setWeightToZero(curvePool_);\n    }\n\n    function handleInvalidConvexPid(address curvePool_) external onlyConicPool returns (uint256) {\n        require(isRegisteredPool(curvePool_), \"curve pool not registered\");\n        ICurveRegistryCache registryCache_ = controller.curveRegistryCache();\n        uint256 pid = registryCache_.getPid(curvePool_);\n        require(registryCache_.isShutdownPid(pid), \"convex pool pid is not shut down\");\n        _setWeightToZero(curvePool_);\n        return pid;\n    }\n\n    function getDepositPool(\n        uint256 totalUnderlying_,\n        uint256[] memory allocatedPerPool,\n        uint256 maxDeviation\n    ) external view returns (uint256 poolIndex, uint256 maxDepositAmount) {\n        uint256 poolsCount_ = allocatedPerPool.length;\n        int256 iPoolIndex = -1;\n        for (uint256 i; i < poolsCount_; i++) {\n            address pool_ = _pools.at(i);\n            uint256 allocatedUnderlying_ = allocatedPerPool[i];\n            uint256 weight_ = weights.get(pool_);\n            uint256 targetAllocation_ = totalUnderlying_.mulDown(weight_);\n            if (allocatedUnderlying_ >= targetAllocation_) continue;\n            // Compute max balance with deviation\n            uint256 weightWithDeviation_ = weight_.mulDown(ScaledMath.ONE + maxDeviation);\n            weightWithDeviation_ = weightWithDeviation_ > ScaledMath.ONE\n                ? ScaledMath.ONE\n                : weightWithDeviation_;\n            uint256 maxBalance_ = totalUnderlying_.mulDown(weightWithDeviation_);\n            uint256 maxDepositAmount_ = maxBalance_ - allocatedUnderlying_;\n            if (maxDepositAmount_ <= maxDepositAmount) continue;\n            maxDepositAmount = maxDepositAmount_;\n            iPoolIndex = int256(i);\n        }\n        require(iPoolIndex > -1, \"error retrieving deposit pool\");\n        poolIndex = uint256(iPoolIndex);\n    }\n\n    function getWithdrawPool(\n        uint256 totalUnderlying_,\n        uint256[] memory allocatedPerPool,\n        uint256 maxDeviation\n    ) external view returns (uint256 withdrawPoolIndex, uint256 maxWithdrawalAmount) {\n        uint256 poolsCount_ = allocatedPerPool.length;\n        int256 iWithdrawPoolIndex = -1;\n        for (uint256 i; i < poolsCount_; i++) {\n            address curvePool_ = _pools.at(i);\n            uint256 weight_ = weights.get(curvePool_);\n            uint256 allocatedUnderlying_ = allocatedPerPool[i];\n\n            // If a pool has a weight of 0,\n            // withdraw from it if it has more than the max lp value\n            if (weight_ == 0) {\n                uint256 price_ = controller.priceOracle().getUSDPrice(address(underlying));\n                uint256 allocatedUsd = (price_ * allocatedUnderlying_) /\n                    10 ** underlying.decimals();\n                if (allocatedUsd >= _MAX_USD_VALUE_FOR_REMOVING_POOL / 2) {\n                    return (uint256(i), allocatedUnderlying_);\n                }\n            }\n\n            uint256 targetAllocation_ = totalUnderlying_.mulDown(weight_);\n            if (allocatedUnderlying_ <= targetAllocation_) continue;\n            uint256 minBalance_ = targetAllocation_ - targetAllocation_.mulDown(maxDeviation);\n            uint256 maxWithdrawalAmount_ = allocatedUnderlying_ - minBalance_;\n            if (maxWithdrawalAmount_ <= maxWithdrawalAmount) continue;\n            maxWithdrawalAmount = maxWithdrawalAmount_;\n            iWithdrawPoolIndex = int256(i);\n        }\n        require(iWithdrawPoolIndex > -1, \"error retrieving withdraw pool\");\n        withdrawPoolIndex = uint256(iWithdrawPoolIndex);\n    }\n\n    function allPools() external view returns (address[] memory) {\n        return _pools.values();\n    }\n\n    function poolsCount() external view returns (uint256) {\n        return _pools.length();\n    }\n\n    function getPoolAtIndex(uint256 _index) external view returns (address) {\n        return _pools.at(_index);\n    }\n\n    function isRegisteredPool(address _pool) public view returns (bool) {\n        return _pools.contains(_pool);\n    }\n\n    function getWeight(address pool) external view returns (uint256) {\n        return weights.get(pool);\n    }\n\n    function getWeights() external view returns (IConicPool.PoolWeight[] memory) {\n        uint256 length_ = _pools.length();\n        IConicPool.PoolWeight[] memory weights_ = new IConicPool.PoolWeight[](length_);\n        for (uint256 i; i < length_; i++) {\n            (address pool_, uint256 weight_) = weights.at(i);\n            weights_[i] = PoolWeight(pool_, weight_);\n        }\n        return weights_;\n    }\n\n    function computeTotalDeviation(\n        uint256 allocatedUnderlying_,\n        uint256[] memory perPoolAllocations_\n    ) external view returns (uint256) {\n        uint256 totalDeviation;\n        for (uint256 i; i < perPoolAllocations_.length; i++) {\n            uint256 weight = weights.get(_pools.at(i));\n            uint256 targetAmount = allocatedUnderlying_.mulDown(weight);\n            totalDeviation += targetAmount.absSub(perPoolAllocations_[i]);\n        }\n        return totalDeviation;\n    }\n\n    function isBalanced(\n        uint256[] memory allocatedPerPool_,\n        uint256 totalAllocated_,\n        uint256 maxDeviation\n    ) external view returns (bool) {\n        if (totalAllocated_ == 0) return true;\n        for (uint256 i; i < allocatedPerPool_.length; i++) {\n            uint256 weight_ = weights.get(_pools.at(i));\n            uint256 currentAllocated_ = allocatedPerPool_[i];\n\n            // If a curve pool has a weight of 0,\n            if (weight_ == 0) {\n                uint256 price_ = controller.priceOracle().getUSDPrice(address(underlying));\n                uint256 allocatedUsd_ = (price_ * currentAllocated_) / 10 ** underlying.decimals();\n                if (allocatedUsd_ >= _MAX_USD_VALUE_FOR_REMOVING_POOL / 2) {\n                    return false;\n                }\n                continue;\n            }\n\n            uint256 targetAmount = totalAllocated_.mulDown(weight_);\n            uint256 deviation = targetAmount.absSub(currentAllocated_);\n            uint256 deviationRatio = deviation.divDown(targetAmount);\n\n            if (deviationRatio > maxDeviation) return false;\n        }\n        return true;\n    }\n\n    function _setWeightToZero(address zeroedPool) internal {\n        uint256 weight_ = weights.get(zeroedPool);\n        if (weight_ == 0) return;\n        require(weight_ != ScaledMath.ONE, \"can't remove last pool\");\n        uint256 scaleUp_ = ScaledMath.ONE.divDown(ScaledMath.ONE - weights.get(zeroedPool));\n        uint256 curvePoolLength_ = _pools.length();\n\n        weights.set(zeroedPool, 0);\n        emit NewWeight(zeroedPool, 0);\n\n        address[] memory nonZeroPools = new address[](curvePoolLength_ - 1);\n        uint256[] memory nonZeroWeights = new uint256[](curvePoolLength_ - 1);\n        uint256 nonZeroPoolsCount;\n        for (uint256 i; i < curvePoolLength_; i++) {\n            address pool_ = _pools.at(i);\n            uint256 currentWeight = weights.get(pool_);\n            if (currentWeight == 0) continue;\n            nonZeroPools[nonZeroPoolsCount] = pool_;\n            nonZeroWeights[nonZeroPoolsCount] = currentWeight;\n            nonZeroPoolsCount++;\n        }\n\n        uint256 totalWeight;\n        for (uint256 i; i < nonZeroPoolsCount; i++) {\n            address pool_ = nonZeroPools[i];\n            uint256 newWeight_ = nonZeroWeights[i].mulDown(scaleUp_);\n            // ensure that the sum of the weights is 1 despite potential rounding errors\n            if (i == nonZeroPoolsCount - 1) {\n                newWeight_ = ScaledMath.ONE - totalWeight;\n            }\n            totalWeight += newWeight_;\n            weights.set(pool_, newWeight_);\n            emit NewWeight(pool_, newWeight_);\n        }\n    }\n}\n","sourcePath":"contracts/ConicPoolWeightManager.sol","type":"contract","deployment":{"address":"0xfC468D8100A453764A6c10eA7F80BC3bb4180846","chainid":"1","blockHeight":19113107}}